00BDIN9999BOVESPA 99992001073020010730
0101IBOVESPA                      0139480137040141170000000000000000002001073000000020010730013704000000
0202LOTE PADRAO                   EMBRATEL PARPN *       EBTP4       010VISTA          000000000014400000000144000000001340000000000000000000134000057486600
0202LOTE PADRAO                   EMBRATEL PARON *       EBTP3       010VISTA          000000000015250000000153000000001400000000000000000000140000031268400
0202LOTE PADRAO                   TRAN PAULISTPN * EJ    TRPL4       010VISTA          000000000006900000000069000000000640000000000000000000065000009317700
0202LOTE PADRAO                   TELEMAR     PN * EJ    TNLP4       010VISTA          000000000032700000000330000000003150000000000000000000315000094842500
0202LOTE PADRAO                   ITAUBANCO   PN * EJ    ITAU4       010VISTA          000000000192300000001930000000019030000000000000000001915000004708100
0202LOTE PADRAO                   TELEMAR     ON * EJ    TNLP3       010VISTA          000000000028800000000288000000002750000000000000000000278000009351400
0202LOTE PADRAO                   SID NACIONALON *       CSNA3       010VISTA          000000000041000000000413000000003900000000000000000000390000001785000
0202LOTE PADRAO                   TELE LEST CLPN *       TLCP4       010VISTA          000000000001600000000017100000000160000000000000000000016000020419000
0202LOTE PADRAO                   CRT CELULAR PNA* EJ    CRTP5       010VISTA          000000000920000000009289000000090100000000000000000009010000000492900
0202LOTE PADRAO                   IPIRANGA PETPN *       PTIP4       010VISTA          000000000016100000000161000000001600000000000000000000160000023932600
0202LOTE PADRAO                   BRASIL T PARPN *       BRTP4       010VISTA          000000000018000000000188000000001800000000000000000000180000026577600
0202LOTE PADRAO                   BRASIL T PARON *       BRTP3       010VISTA          000000000017600000000178000000001650000000000000000000165000004828000
0202LOTE PADRAO                   ACESITA     PN *       ACES4       010VISTA          000000000000600000000006200000000060000000000000000000006000093302400
0202LOTE PADRAO                   PETROBRAS   PN         PETR4       010VISTA          000000000054000000000544000000005360000000000000000000537000000067900
0202LOTE PADRAO                   ELETROBRAS  PNB*       ELET6       010VISTA          000000000031000000000315000000002980000000000000000000298000011703400
0202LOTE PADRAO                   PETROBRAS   ON         PETR3       010VISTA          000000000059000000000595000000005820000000000000000000582000000013300
0202LOTE PADRAO                   COMGAS      PNA*       CGAS5       010VISTA          000000000134800000001349000000013200000000000000000001320000002910000
0202LOTE PADRAO                   SOUZA CRUZ  ON EJ      CRUZ3       010VISTA          000000000011300000000113000000001110000000000000000000111000000007200
0202LOTE PADRAO                   ELETROBRAS  ON *       ELET3       010VISTA          000000000036000000000362000000003450000000000000000000347000004498500
0202LOTE PADRAO                   CELESC      PNB        CLSC6       010VISTA          000000000000440000000004400000000043000000000000000000004300000079300
0202LOTE PADRAO                   BRADESCO    PN * EJ    BBDC4       010VISTA          000000000011800000000118000000001150000000000000000000115000100993000
0202LOTE PADRAO                   CESP        PN *       CESP4       010VISTA          000000000013500000000137000000001350000000000000000000136000013015000
0202LOTE PADRAO                   LIGHT       ON *       LIGH3       010VISTA          000000000116500000001177000000011350000000000000000001140000000223000
0202LOTE PADRAO                   TELESP CL PAPN *       TSPP4       010VISTA          000000000014000000000143000000001400000000000000000000141000103780000
0202LOTE PADRAO                   VALE R DOCE PNA        VALE5       010VISTA          000000000052500000000526000000005200000000000000000000522000000011200
0202LOTE PADRAO                   COPEL       PNB*       CPLE6       010VISTA          000000000017800000000178000000001725000000000000000000174000013732800
0202LOTE PADRAO                   VALE R DOCE ON         VALE3       010VISTA          000000000052200000000522000000005150000000000000000000515000000001300
0202LOTE PADRAO                   ARACRUZ     PNB        ARCZ6       010VISTA          000000000003900000000040000000000381000000000000000000038100000009100
0202LOTE PADRAO                   TELEMIG PARTPN *       TMCP4       010VISTA          000000000004750000000048000000000460000000000000000000046000030407800
0202LOTE PADRAO                   BRASIL TELECPN *       BRTO4       010VISTA          000000000012500000000128000000001220000000000000000000123000060284300
0202LOTE PADRAO                   SABESP      ON *       SBSP3       010VISTA          000000000167400000001674000000016300000000000000000001630000001597600
0202LOTE PADRAO                   BRASKEM     PNA*       BRKM5       010VISTA          000000000539000000005390000000052100000000000000000005210000000108200
0202LOTE PADRAO                   EMBRAER     PN EJ      EMBR4       010VISTA          000000000021800000000218000000002130000000000000000000213000000015200
0202LOTE PADRAO                   TELESP      PN * EJ    TLPP4       010VISTA          000000000026000000000260000000002480000000000000000000250000018244300
0202LOTE PADRAO                   EMBRAER     ON EJ      EMBR3       010VISTA          000000000017800000000178000000001725000000000000000000172500000013600
0202LOTE PADRAO                   AMBEV       PN *       AMBV4       010VISTA          000000000508000000005090000000050300000000000000000005030000000545800
0202LOTE PADRAO                   USIMINAS    PNA        USIM5       010VISTA          000000000006200000000063000000000620000000000000000000062000000022600
0202LOTE PADRAO                   ELETROPAULO PN *       ELPL4       010VISTA          000000000063500000000635000000006030000000000000000000603000000512500
0202LOTE PADRAO                   TELE NORD CLPN *       TNEP4       010VISTA          000000000003600000000037000000000340000000000000000000034000091932100
0202LOTE PADRAO                   CEMIG       PN * EJ    CMIG4       010VISTA          000000000027800000000280000000002610000000000000000000263000026892400
0202LOTE PADRAO                   TELE CL SUL PN * EJ    TCSL4       010VISTA          000000000004200000000044000000000400000000000000000000040000032791300
0202LOTE PADRAO                   CEMIG       ON * EJ    CMIG3       010VISTA          000000000027300000000273000000002530000000000000000000256000000260000
0202LOTE PADRAO                   TELE CL SUL ON * EJ    TCSL3       010VISTA          000000000003500000000036000000000330000000000000000000033000008297300
0202LOTE PADRAO                   ITAUSA      PN         ITSA4       010VISTA          000000000002000000000021000000000200000000000000000000020000000189700
0202LOTE PADRAO                   SID TUBARAO PN *       CSTB4       010VISTA          000000000020600000000206000000002010000000000000000000203000005723500
0202LOTE PADRAO                   V C P       PN *       VCPA4       010VISTA          000000000060400000000604000000005900000000000000000000590000001222700
0202LOTE PADRAO                   BRADESPAR   PN *       BRAP4       010VISTA          000000000000830000000008400000000080000000000000000000008000099903000
0202LOTE PADRAO                   NET         PN         PLIM4       010VISTA          000000000001000000000010000000000100000000000000000000010000000645700
0202LOTE PADRAO                   TELE CTR OESPN * EJ    TCOC4       010VISTA          000000000006000000000060000000000590000000000000000000059600017765600
0202LOTE PADRAO                   GERDAU      PN * EJ    GGBR4       010VISTA          000000000016800000000168000000001610000000000000000000161000003086500
0202LOTE PADRAO                   BRASIL      ON *       BBAS3       010VISTA          000000000009000000000090000000000860000000000000000000086000002726800
