00BDIN9999BOVESPA 99992001082020010820
0101IBOVESPA                      0130440129160132280000000000000000002001082000000020010820013115000000
0202LOTE PADRAO                   EMBRATEL PARPN *       EBTP4       010VISTA          000000000011000000000115000000001100000000000000000000111000058628300
0202LOTE PADRAO                   EMBRATEL PARON *       EBTP3       010VISTA          000000000012000000000122000000001190000000000000000000120000017399200
0202LOTE PADRAO                   TRAN PAULISTPN * EJ    TRPL4       010VISTA          000000000006800000000068000000000650000000000000000000066000013161300
0202LOTE PADRAO                   TELEMAR     PN * EJ    TNLP4       010VISTA          000000000029500000000310000000002950000000000000000000305000323470000
0202LOTE PADRAO                   ITAUBANCO   PN * EJ    ITAU4       010VISTA          000000000180900000001820000000017800000000000000000001790000009207500
0202LOTE PADRAO                   TELEMAR     ON * EJ    TNLP3       010VISTA          000000000027200000000282000000002700000000000000000000281000022864800
0202LOTE PADRAO                   SID NACIONALON *       CSNA3       010VISTA          000000000036600000000373000000003660000000000000000000372500003470400
0202LOTE PADRAO                   TELE LEST CLPN *       TLCP4       010VISTA          000000000001300000000014000000000130000000000000000000014000051058000
0202LOTE PADRAO                   CRT CELULAR PNA* EJ    CRTP5       010VISTA          000000000940000000009450000000093000000000000000000009350000000163300
0202LOTE PADRAO                   IPIRANGA PETPN *       PTIP4       010VISTA          000000000015100000000159000000001510000000000000000000158000000562600
0202LOTE PADRAO                   BRASIL T PARPN *       BRTP4       010VISTA          000000000015700000000163000000001570000000000000000000160000030110400
0202LOTE PADRAO                   BRASIL T PARON *       BRTP3       010VISTA          000000000015000000000160000000001500000000000000000000158000007583300
0202LOTE PADRAO                   ACESITA     PN *       ACES4       010VISTA          000000000000550000000005800000000055000000000000000000005600059156600
0202LOTE PADRAO                   PETROBRAS   PN         PETR4       010VISTA          000000000052600000000528000000005150000000000000000000522500000121100
0202LOTE PADRAO                   ELETROBRAS  PNB*       ELET6       010VISTA          000000000031000000000320000000003100000000000000000000313000009456000
0202LOTE PADRAO                   PETROBRAS   ON         PETR3       010VISTA          000000000053700000000547000000005270000000000000000000540000000089500
0202LOTE PADRAO                   COMGAS      PNA*       CGAS5       010VISTA          000000000134000000001340000000013100000000000000000001320000001322500
0202LOTE PADRAO                   SOUZA CRUZ  ON EJ      CRUZ3       010VISTA          000000000010500000000110000000001050000000000000000000109000000012200
0202LOTE PADRAO                   ELETROBRAS  ON *       ELET3       010VISTA          000000000035300000000360000000003525000000000000000000358000028600300
0202LOTE PADRAO                   CELESC      PNB        CLSC6       010VISTA          000000000000420000000004400000000042000000000000000000004400000101400
0202LOTE PADRAO                   BRADESCO    PN * EJ    BBDC4       010VISTA          000000000011400000000116000000001130000000000000000000115000087946300
0202LOTE PADRAO                   CESP        PN *       CESP4       010VISTA          000000000013100000000132000000001280000000000000000000132000008029200
0202LOTE PADRAO                   LIGHT       ON *       LIGH3       010VISTA          000000000119000000001240000000011900000000000000000001220000000059200
0202LOTE PADRAO                   TELESP CL PAPN *       TSPP4       010VISTA          000000000013800000000143000000001380000000000000000000140000117985000
0202LOTE PADRAO                   VALE R DOCE PNA        VALE5       010VISTA          000000000051100000000520000000005110000000000000000000517000000015500
0202LOTE PADRAO                   COPEL       PNB*       CPLE6       010VISTA          000000000017100000000178000000001710000000000000000000177000007470400
0202LOTE PADRAO                   VALE R DOCE ON         VALE3       010VISTA          000000000052000000000520000000005170000000000000000000518000000001500
0202LOTE PADRAO                   ARACRUZ     PNB        ARCZ6       010VISTA          000000000004000000000042000000000400000000000000000000040000000023700
0202LOTE PADRAO                   TELEMIG PARTPN *       TMCP4       010VISTA          000000000003800000000040000000000380000000000000000000040000028331700
0202LOTE PADRAO                   BRASIL TELECPN *       BRTO4       010VISTA          000000000010500000000110000000001050000000000000000000109000043537700
0202LOTE PADRAO                   SABESP      ON *       SBSP3       010VISTA          000000000166000000001700000000016600000000000000000001689000000585400
0202LOTE PADRAO                   BRASKEM     PNA*       BRKM5       010VISTA          000000000470000000004730000000045000000000000000000004550000000795800
0202LOTE PADRAO                   EMBRAER     PN EJ      EMBR4       010VISTA          000000000018200000000186000000001810000000000000000000183000000016700
0202LOTE PADRAO                   TELESP      PN * EJ    TLPP4       010VISTA          000000000025100000000256000000002510000000000000000000253000013308800
0202LOTE PADRAO                   EMBRAER     ON EJ      EMBR3       010VISTA          000000000015000000000153000000001480000000000000000000150000000011800
0202LOTE PADRAO                   AMBEV       PN *       AMBV4       010VISTA          000000000495000000005040000000049500000000000000000004960000000467600
0202LOTE PADRAO                   USIMINAS    PNA        USIM5       010VISTA          000000000005900000000060000000000590000000000000000000059000000016200
0202LOTE PADRAO                   ELETROPAULO PN *       ELPL4       010VISTA          000000000065700000000680000000006570000000000000000000675000002559700
0202LOTE PADRAO                   TELE NORD CLPN *       TNEP4       010VISTA          000000000002800000000029000000000280000000000000000000029000073459000
0202LOTE PADRAO                   CEMIG       PN * EJ    CMIG4       010VISTA          000000000026700000000278000000002670000000000000000000275000007695700
0202LOTE PADRAO                   TELE CL SUL PN * EJ    TCSL4       010VISTA          000000000003700000000037000000000360000000000000000000036000049495000
0202LOTE PADRAO                   CEMIG       ON * EJ    CMIG3       010VISTA          000000000027300000000275000000002730000000000000000000274000001009000
0202LOTE PADRAO                   TELE CL SUL ON * EJ    TCSL3       010VISTA          000000000002900000000031000000000290000000000000000000030000012708500
0202LOTE PADRAO                   ITAUSA      PN         ITSA4       010VISTA          000000000002000000000020000000000196000000000000000000019600000420000
0202LOTE PADRAO                   SID TUBARAO PN *       CSTB4       010VISTA          000000000021000000000216000000002090000000000000000000213000005026200
0202LOTE PADRAO                   V C P       PN *       VCPA4       010VISTA          000000000064200000000685000000006400000000000000000000680000002134800
0202LOTE PADRAO                   BRADESPAR   PN *       BRAP4       010VISTA          000000000000720000000007400000000072000000000000000000007200114745000
0202LOTE PADRAO                   NET         PN         PLIM4       010VISTA          000000000000800000000008600000000077000000000000000000008400002090700
0202LOTE PADRAO                   TELE CTR OESPN * EJ    TCOC4       010VISTA          000000000005400000000056000000000540000000000000000000055000039851600
0202LOTE PADRAO                   GERDAU      PN * EJ    GGBR4       010VISTA          000000000016600000000171000000001650000000000000000000165000003003400
0202LOTE PADRAO                   BRASIL      ON *       BBAS3       010VISTA          000000000009200000000095000000000920000000000000000000093000004885800
