00BDIN9999BOVESPA 99992001030720010307
0101IBOVESPA                      0163290162230164300000000000000000002001030700000020010307016395000000
0202LOTE PADRAO                   EMBRATEL PARPN *       EBTP4       010VISTA          000000000026600000000271000000002630000000000000000000264000069587700
0202LOTE PADRAO                   EMBRATEL PARON *       EBTP3       010VISTA          000000000021800000000218000000002080000000000000000000211000059771300
0202LOTE PADRAO                   TRAN PAULISTPN * EJ    TRPL4       010VISTA          000000000009000000000090000000000875000000000000000000090000014636400
0202LOTE PADRAO                   TELEMAR     PN * EJ    TNLP4       010VISTA          000000000045000000000450000000004350000000000000000000442500099505300
0202LOTE PADRAO                   ITAUBANCO   PN * EJ    ITAU4       010VISTA          000000000182750000001850000000018150000000000000000001835000005817500
0202LOTE PADRAO                   TELEMAR     ON * EJ    TNLP3       010VISTA          000000000033600000000338000000003310000000000000000000337000008487000
0202LOTE PADRAO                   SID NACIONALON *       CSNA3       010VISTA          000000000071000000000717000000007100000000000000000000715000012285100
0202LOTE PADRAO                   TELE LEST CLPN *       TLCP4       010VISTA          000000000001700000000017900000000170000000000000000000017900319413000
0202LOTE PADRAO                   CRT CELULAR PNA* EJ    CRTP5       010VISTA          000000000958000000009600000000092000000000000000000009598000002913700
0202LOTE PADRAO                   IPIRANGA PETPN *       PTIP4       010VISTA          000000000014800000000148000000001450000000000000000000148000002605300
0202LOTE PADRAO                   BRASIL T PARPN *       BRTP4       010VISTA          000000000022900000000230000000002210000000000000000000223000037888200
0202LOTE PADRAO                   BRASIL T PARON *       BRTP3       010VISTA          000000000019600000000199000000001880000000000000000000191000022393900
0202LOTE PADRAO                   ACESITA     PN *       ACES4       010VISTA          000000000001100000000011000000000100000000000000000000011000085207300
0202LOTE PADRAO                   PETROBRAS   PN         PETR4       010VISTA          000000000057500000000576000000005650000000000000000000572000000055300
0202LOTE PADRAO                   ELETROBRAS  PNB*       ELET6       010VISTA          000000000037600000000380000000003720000000000000000000380000054571200
0202LOTE PADRAO                   PETROBRAS   ON         PETR3       010VISTA          000000000058700000000592000000005830000000000000000000590000000034200
0202LOTE PADRAO                   COMGAS      PNA*       CGAS5       010VISTA          000000000151000000001569000000014850000000000000000001510000003337700
0202LOTE PADRAO                   SOUZA CRUZ  ON EJ      CRUZ3       010VISTA          000000000012750000000131000000001275000000000000000000130000000038300
0202LOTE PADRAO                   ELETROBRAS  ON *       ELET3       010VISTA          000000000039000000000395000000003850000000000000000000391000035430800
0202LOTE PADRAO                   CELESC      PNB        CLSC6       010VISTA          000000000000640000000006400000000063000000000000000000006300000076100
0202LOTE PADRAO                   BRADESCO    PN * EJ    BBDC4       010VISTA          000000000011800000000123000000001175000000000000000000123000153180000
0202LOTE PADRAO                   CESP        PN *       CESP4       010VISTA          000000000025800000000261000000002550000000000000000000260000006037500
0202LOTE PADRAO                   LIGHT       ON *       LIGH3       010VISTA          000000000224000000002240000000021700000000000000000002204000000294300
0202LOTE PADRAO                   TELESP CL PAPN *       TSPP4       010VISTA          000000000018300000000183000000001700000000000000000000172000235636000
0202LOTE PADRAO                   VALE R DOCE PNA        VALE5       010VISTA          000000000050900000000513000000005010000000000000000000508000000022600
0202LOTE PADRAO                   COPEL       PNB*       CPLE6       010VISTA          000000000018800000000188000000001850000000000000000000186000019891400
0202LOTE PADRAO                   VALE R DOCE ON         VALE3       010VISTA          000000000050000000000502000000005000000000000000000000502000000000000
0202LOTE PADRAO                   ARACRUZ     PNB        ARCZ6       010VISTA          000000000002710000000028000000000270000000000000000000028000000034300
0202LOTE PADRAO                   TELEMIG PARTPN *       TMCP4       010VISTA          000000000006500000000066000000000630000000000000000000064000053931300
0202LOTE PADRAO                   BRASIL TELECPN *       BRTO4       010VISTA          000000000016600000000166000000001575000000000000000000160000023411200
0202LOTE PADRAO                   SABESP      ON *       SBSP3       010VISTA          000000000219300000002193000000021550000000000000000002175000001364100
0202LOTE PADRAO                   BRASKEM     PNA*       BRKM5       010VISTA          000000000645000000006590000000063900000000000000000006590000000130100
0202LOTE PADRAO                   EMBRAER     PN EJ      EMBR4       010VISTA          000000000019200000000205000000001910000000000000000000203000000031400
0202LOTE PADRAO                   TELESP      PN * EJ    TLPP4       010VISTA          000000000030800000000318000000003030000000000000000000313000003657500
0202LOTE PADRAO                   EMBRAER     ON EJ      EMBR3       010VISTA          000000000015600000000161000000001525000000000000000000160000000045800
0202LOTE PADRAO                   AMBEV       PN *       AMBV4       010VISTA          000000000498000000005120000000049600000000000000000005120000002669800
0202LOTE PADRAO                   USIMINAS    PNA        USIM5       010VISTA          000000000011000000000114000000001090000000000000000000113000000050200
0202LOTE PADRAO                   ELETROPAULO PN *       ELPL4       010VISTA          000000000102000000001027000000010200000000000000000001020000000297400
0202LOTE PADRAO                   TELE NORD CLPN *       TNEP4       010VISTA          000000000003560000000036000000000350000000000000000000036000044503800
0202LOTE PADRAO                   CEMIG       PN * EJ    CMIG4       010VISTA          000000000032600000000326000000003100000000000000000000310000026239000
0202LOTE PADRAO                   TELE CL SUL PN * EJ    TCSL4       010VISTA          000000000004600000000047500000000440000000000000000000045000087166700
0202LOTE PADRAO                   CEMIG       ON * EJ    CMIG3       010VISTA          000000000025800000000258000000002500000000000000000000255000006600000
0202LOTE PADRAO                   TELE CL SUL ON * EJ    TCSL3       010VISTA          000000000003800000000038000000000350000000000000000000036000031628000
0202LOTE PADRAO                   ITAUSA      PN         ITSA4       010VISTA          000000000001900000000019700000000180000000000000000000019600000224100
0202LOTE PADRAO                   SID TUBARAO PN *       CSTB4       010VISTA          000000000022100000000229000000002150000000000000000000215000002010000
0202LOTE PADRAO                   V C P       PN *       VCPA4       010VISTA          000000000057900000000579000000005600000000000000000000570000002476300
0202LOTE PADRAO                   BRADESPAR   PN *       BRAP4       010VISTA          000000000001000000000011000000000100000000000000000000010000138919000
0202LOTE PADRAO                   NET         PN         PLIM4       010VISTA          000000000001710000000017700000000160000000000000000000017000000914300
0202LOTE PADRAO                   TELE CTR OESPN * EJ    TCOC4       010VISTA          000000000007700000000081000000000770000000000000000000079000033982700
0202LOTE PADRAO                   GERDAU      PN * EJ    GGBR4       010VISTA          000000000019600000000203000000001925000000000000000000198000019826500
0202LOTE PADRAO                   BRASIL      ON *       BBAS3       010VISTA          000000000008100000000081000000000770000000000000000000079000003659300
