00BDIN9999BOVESPA 99992001060520010605
0101IBOVESPA                      0151070150320154060000000000000000002001060500000020010605015395000000
0202LOTE PADRAO                   EMBRATEL PARPN *       EBTP4       010VISTA          000000000020900000000220000000002030000000000000000000220000117260000
0202LOTE PADRAO                   EMBRATEL PARON *       EBTP3       010VISTA          000000000019300000000206000000001910000000000000000000206000087998400
0202LOTE PADRAO                   TRAN PAULISTPN * EJ    TRPL4       010VISTA          000000000006800000000068000000000640000000000000000000065000016163300
0202LOTE PADRAO                   TELEMAR     PN * EJ    TNLP4       010VISTA          000000000037400000000386000000003710000000000000000000385000201290000
0202LOTE PADRAO                   ITAUBANCO   PN * EJ    ITAU4       010VISTA          000000000194000000001975000000019400000000000000000001950000007671200
0202LOTE PADRAO                   TELEMAR     ON * EJ    TNLP3       010VISTA          000000000032600000000333000000003240000000000000000000332500036800500
0202LOTE PADRAO                   SID NACIONALON *       CSNA3       010VISTA          000000000048000000000505000000004800000000000000000000502000013428000
0202LOTE PADRAO                   TELE LEST CLPN *       TLCP4       010VISTA          000000000002000000000021000000000197000000000000000000020000103942000
0202LOTE PADRAO                   IPIRANGA PETPN *       PTIP4       010VISTA          000000000016000000000161000000001550000000000000000000160000003337400
0202LOTE PADRAO                   BRASIL T PARPN *       BRTP4       010VISTA          000000000019600000000198000000001930000000000000000000196000067190600
0202LOTE PADRAO                   BRASIL T PARON *       BRTP3       010VISTA          000000000018400000000188000000001830000000000000000000187000016262000
0202LOTE PADRAO                   ACESITA     PN *       ACES4       010VISTA          000000000000680000000007000000000067000000000000000000007000175786000
0202LOTE PADRAO                   PETROBRAS   PN         PETR4       010VISTA          000000000062400000000624000000006050000000000000000000610000000087500
0202LOTE PADRAO                   ELETROBRAS  PNB*       ELET6       010VISTA          000000000027100000000306000000002710000000000000000000306000210938000
0202LOTE PADRAO                   PETROBRAS   ON         PETR3       010VISTA          000000000068200000000702000000006800000000000000000000684000000053000
0202LOTE PADRAO                   COMGAS      PNA*       CGAS5       010VISTA          000000000154000000001579000000015200000000000000000001530000000951500
0202LOTE PADRAO                   SOUZA CRUZ  ON EJ      CRUZ3       010VISTA          000000000011600000000119000000001160000000000000000000117000000019400
0202LOTE PADRAO                   CELESC      PNB        CLSC6       010VISTA          000000000000470000000004800000000046000000000000000000004700000202500
0202LOTE PADRAO                   ELETROBRAS  ON *       ELET3       010VISTA          000000000031500000000345000000003050000000000000000000343000058970200
0202LOTE PADRAO                   BRADESCO    PN * EJ    BBDC4       010VISTA          000000000012400000000125000000001220000000000000000000124000221524000
0202LOTE PADRAO                   CESP        PN *       CESP4       010VISTA          000000000014500000000157500000001440000000000000000000155000018697600
0202LOTE PADRAO                   LIGHT       ON *       LIGH3       010VISTA          000000000138000000001435000000013700000000000000000001435000001343800
0202LOTE PADRAO                   TELESP CL PAPN *       TSPP4       010VISTA          000000000016300000000165000000001610000000000000000000163000197727000
0202LOTE PADRAO                   VALE R DOCE PNA        VALE5       010VISTA          000000000056600000000577000000005600000000000000000000567000000050300
0202LOTE PADRAO                   COPEL       PNB*       CPLE6       010VISTA          000000000017100000000181000000001660000000000000000000180000078068100
0202LOTE PADRAO                   VALE R DOCE ON         VALE3       010VISTA          000000000052200000000530000000005210000000000000000000530000000002200
0202LOTE PADRAO                   ARACRUZ     PNB        ARCZ6       010VISTA          000000000004100000000042500000000400000000000000000000040000000155100
0202LOTE PADRAO                   TELEMIG PARTPN *       TMCP4       010VISTA          000000000005200000000055000000000520000000000000000000055000188083000
0202LOTE PADRAO                   BRASIL TELECPN *       BRTO4       010VISTA          000000000013400000000135000000001310000000000000000000134000072642300
0202LOTE PADRAO                   SABESP      ON *       SBSP3       010VISTA          000000000168000000001719000000016750000000000000000001715000003124000
0202LOTE PADRAO                   BRASKEM     PNA*       BRKM5       010VISTA          000000000502000000005020000000049900000000000000000005008000000243700
0202LOTE PADRAO                   EMBRAER     PN EJ      EMBR4       010VISTA          000000000025000000000250000000002375000000000000000000240000000014200
0202LOTE PADRAO                   TELESP      PN * EJ    TLPP4       010VISTA          000000000030500000000306000000003000000000000000000000304000007197500
0202LOTE PADRAO                   EMBRAER     ON EJ      EMBR3       010VISTA          000000000018800000000189000000001820000000000000000000186000000022300
0202LOTE PADRAO                   AMBEV       PN *       AMBV4       010VISTA          000000000545000000005500000000053000000000000000000005360000001536500
0202LOTE PADRAO                   USIMINAS    PNA        USIM5       010VISTA          000000000006700000000067000000000650000000000000000000066000000131900
0202LOTE PADRAO                   ELETROPAULO PN *       ELPL4       010VISTA          000000000066000000000660000000006400000000000000000000650000004276800
0202LOTE PADRAO                   TELE NORD CLPN *       TNEP4       010VISTA          000000000004000000000043000000000400000000000000000000043000474656000
0202LOTE PADRAO                   CEMIG       PN * EJ    CMIG4       010VISTA          000000000024300000000256000000002400000000000000000000256000061537100
0202LOTE PADRAO                   TELE CL SUL PN * EJ    TCSL4       010VISTA          000000000004700000000050000000000470000000000000000000049000092103800
0202LOTE PADRAO                   CEMIG       ON * EJ    CMIG3       010VISTA          000000000024400000000253000000002440000000000000000000253000001093100
0202LOTE PADRAO                   TELE CL SUL ON * EJ    TCSL3       010VISTA          000000000003800000000041000000000380000000000000000000041000060626000
0202LOTE PADRAO                   ITAUSA      PN         ITSA4       010VISTA          000000000002000000000021000000000200000000000000000000020000000210000
0202LOTE PADRAO                   SID TUBARAO PN *       CSTB4       010VISTA          000000000023400000000245000000002310000000000000000000235000008444300
0202LOTE PADRAO                   V C P       PN *       VCPA4       010VISTA          000000000066000000000680000000006600000000000000000000670000006682900
0202LOTE PADRAO                   BRADESPAR   PN *       BRAP4       010VISTA          000000000000860000000008800000000085000000000000000000008700089466500
0202LOTE PADRAO                   NET         PN         PLIM4       010VISTA          000000000000930000000009900000000089000000000000000000009700001355800
0202LOTE PADRAO                   TELE CTR OESPN * EJ    TCOC4       010VISTA          000000000006800000000073000000000680000000000000000000071000092876400
0202LOTE PADRAO                   GERDAU      PN * EJ    GGBR4       010VISTA          000000000016500000000170000000001650000000000000000000168000015932100
0202LOTE PADRAO                   BRASIL      ON *       BBAS3       010VISTA          000000000007900000000082000000000775000000000000000000080000010530000
