00BDIN9999BOVESPA 99992001033020010330
0101IBOVESPA                      0142920139220144380000000000000000002001033000000020010330014438000000
0202LOTE PADRAO                   EMBRATEL PARPN *       EBTP4       010VISTA          000000000020500000000205000000001910000000000000000000203000127711000
0202LOTE PADRAO                   EMBRATEL PARON *       EBTP3       010VISTA          000000000018500000000191000000001800000000000000000000188000069630800
0202LOTE PADRAO                   TRAN PAULISTPN * EJ    TRPL4       010VISTA          000000000007500000000075000000000700000000000000000000075000025709100
0202LOTE PADRAO                   TELEMAR     PN * EJ    TNLP4       010VISTA          000000000034900000000354000000003330000000000000000000350000341537000
0202LOTE PADRAO                   ITAUBANCO   PN * EJ    ITAU4       010VISTA          000000000170000000001715000000016340000000000000000001680000005599900
0202LOTE PADRAO                   TELEMAR     ON * EJ    TNLP3       010VISTA          000000000029800000000315000000002910000000000000000000314000067383200
0202LOTE PADRAO                   SID NACIONALON *       CSNA3       010VISTA          000000000047200000000472000000004640000000000000000000468000021319200
0202LOTE PADRAO                   TELE LEST CLPN *       TLCP4       010VISTA          000000000001540000000015600000000152000000000000000000015600070308500
0202LOTE PADRAO                   CRT CELULAR PNA* EJ    CRTP5       010VISTA          000000000890000000009250000000089000000000000000000009100000001209200
0202LOTE PADRAO                   IPIRANGA PETPN *       PTIP4       010VISTA          000000000016400000000168000000001600000000000000000000168000002278600
0202LOTE PADRAO                   BRASIL T PARPN *       BRTP4       010VISTA          000000000017100000000173000000001630000000000000000000169000192816000
0202LOTE PADRAO                   BRASIL T PARON *       BRTP3       010VISTA          000000000016500000000175000000001580000000000000000000173000021781300
0202LOTE PADRAO                   ACESITA     PN *       ACES4       010VISTA          000000000000970000000009800000000094000000000000000000009500208343000
0202LOTE PADRAO                   PETROBRAS   PN         PETR4       010VISTA          000000000047100000000471000000004560000000000000000000469000000103500
0202LOTE PADRAO                   ELETROBRAS  PNB*       ELET6       010VISTA          000000000037700000000399000000003700000000000000000000399000043865700
0202LOTE PADRAO                   PETROBRAS   ON         PETR3       010VISTA          000000000050000000000515000000004950000000000000000000515000000037800
0202LOTE PADRAO                   COMGAS      PNA*       CGAS5       010VISTA          000000000171900000001740000000016600000000000000000001735000004854000
0202LOTE PADRAO                   SOUZA CRUZ  ON EJ      CRUZ3       010VISTA          000000000011000000000112500000001050000000000000000000111000000011200
0202LOTE PADRAO                   ELETROBRAS  ON *       ELET3       010VISTA          000000000039500000000420000000003900000000000000000000415000025262600
0202LOTE PADRAO                   CELESC      PNB        CLSC6       010VISTA          000000000000580000000006000000000057000000000000000000006000000127900
0202LOTE PADRAO                   BRADESCO    PN * EJ    BBDC4       010VISTA          000000000011600000000118000000001110000000000000000000116000125890000
0202LOTE PADRAO                   CESP        PN *       CESP4       010VISTA          000000000022500000000228000000002130000000000000000000222000014577400
0202LOTE PADRAO                   LIGHT       ON *       LIGH3       010VISTA          000000000195000000002020000000019000000000000000000002020000000373900
0202LOTE PADRAO                   TELESP CL PAPN *       TSPP4       010VISTA          000000000012800000000130000000001230000000000000000000126000250897000
0202LOTE PADRAO                   VALE R DOCE PNA        VALE5       010VISTA          000000000052000000000530000000005150000000000000000000530000000046900
0202LOTE PADRAO                   COPEL       PNB*       CPLE6       010VISTA          000000000018000000000180000000001730000000000000000000176000033821600
0202LOTE PADRAO                   VALE R DOCE ON         VALE3       010VISTA          000000000049500000000495000000004940000000000000000000495000000002000
0202LOTE PADRAO                   ARACRUZ     PNB        ARCZ6       010VISTA          000000000002710000000028000000000271000000000000000000028000000052600
0202LOTE PADRAO                   TELEMIG PARTPN *       TMCP4       010VISTA          000000000004300000000044000000000410000000000000000000043000088669900
0202LOTE PADRAO                   BRASIL TELECPN *       BRTO4       010VISTA          000000000012000000000124000000001150000000000000000000124000018423400
0202LOTE PADRAO                   SABESP      ON *       SBSP3       010VISTA          000000000190000000001900000000018700000000000000000001890000001828200
0202LOTE PADRAO                   BRASKEM     PNA*       BRKM5       010VISTA          000000000592000000006080000000059200000000000000000006000000000178000
0202LOTE PADRAO                   EMBRAER     PN EJ      EMBR4       010VISTA          000000000020750000000215000000001940000000000000000000215000000015400
0202LOTE PADRAO                   TELESP      PN * EJ    TLPP4       010VISTA          000000000027500000000280000000002670000000000000000000278000009356700
0202LOTE PADRAO                   EMBRAER     ON EJ      EMBR3       010VISTA          000000000015900000000159000000001530000000000000000000158000000014300
0202LOTE PADRAO                   AMBEV       PN *       AMBV4       010VISTA          000000000500000000005050000000048000000000000000000005050000001439800
0202LOTE PADRAO                   USIMINAS    PNA        USIM5       010VISTA          000000000008800000000090000000000850000000000000000000085000000075300
0202LOTE PADRAO                   ELETROPAULO PN *       ELPL4       010VISTA          000000000080500000000824000000008050000000000000000000815000004895100
0202LOTE PADRAO                   TELE NORD CLPN *       TNEP4       010VISTA          000000000002700000000029800000000270000000000000000000029000095703400
0202LOTE PADRAO                   CEMIG       PN * EJ    CMIG4       010VISTA          000000000026300000000275000000002580000000000000000000273000039571200
0202LOTE PADRAO                   TELE CL SUL PN * EJ    TCSL4       010VISTA          000000000003750000000039000000000373000000000000000000039000131075000
0202LOTE PADRAO                   CEMIG       ON * EJ    CMIG3       010VISTA          000000000024700000000260000000002400000000000000000000260000003591200
0202LOTE PADRAO                   TELE CL SUL ON * EJ    TCSL3       010VISTA          000000000002900000000030000000000280000000000000000000030000108151000
0202LOTE PADRAO                   ITAUSA      PN         ITSA4       010VISTA          000000000001750000000017600000000160000000000000000000017400000509000
0202LOTE PADRAO                   SID TUBARAO PN *       CSTB4       010VISTA          000000000020000000000210000000001960000000000000000000210000002135000
0202LOTE PADRAO                   V C P       PN *       VCPA4       010VISTA          000000000052200000000549000000005220000000000000000000549000001196700
0202LOTE PADRAO                   BRADESPAR   PN *       BRAP4       010VISTA          000000000001000000000010000000000098000000000000000000010000234467000
0202LOTE PADRAO                   NET         PN         PLIM4       010VISTA          000000000001300000000014000000000130000000000000000000014000000807000
0202LOTE PADRAO                   TELE CTR OESPN * EJ    TCOC4       010VISTA          000000000005600000000059000000000550000000000000000000057500094719200
0202LOTE PADRAO                   GERDAU      PN * EJ    GGBR4       010VISTA          000000000019000000000191000000001850000000000000000000190000009842500
0202LOTE PADRAO                   BRASIL      ON *       BBAS3       010VISTA          000000000007200000000075000000000700000000000000000000072000005636900
