00BDIN9999BOVESPA 99992001022220010222
0101IBOVESPA                      0156040155580159140000000000000000002001022200000020010222015910000000
0202LOTE PADRAO                   EMBRATEL PARPN *       EBTP4       010VISTA          000000000024600000000253000000002430000000000000000000253000119025000
0202LOTE PADRAO                   EMBRATEL PARON *       EBTP3       010VISTA          000000000020300000000206000000001970000000000000000000205000036143500
0202LOTE PADRAO                   TRAN PAULISTPN * EJ    TRPL4       010VISTA          000000000009000000000092500000000860000000000000000000090000014491600
0202LOTE PADRAO                   TELEMAR     PN * EJ    TNLP4       010VISTA          000000000043200000000432000000004200000000000000000000429000196504000
0202LOTE PADRAO                   ITAUBANCO   PN * EJ    ITAU4       010VISTA          000000000171000000001745000000017100000000000000000001745000011359600
0202LOTE PADRAO                   TELEMAR     ON * EJ    TNLP3       010VISTA          000000000033000000000333000000003220000000000000000000327000006799600
0202LOTE PADRAO                   SID NACIONALON *       CSNA3       010VISTA          000000000070500000000706000000006900000000000000000000706000016699500
0202LOTE PADRAO                   TELE LEST CLPN *       TLCP4       010VISTA          000000000001300000000014800000000130000000000000000000013000084917700
0202LOTE PADRAO                   IPIRANGA PETPN *       PTIP4       010VISTA          000000000014400000000145000000001430000000000000000000145000002630000
0202LOTE PADRAO                   BRASIL T PARPN *       BRTP4       010VISTA          000000000020600000000210000000002000000000000000000000210000155621000
0202LOTE PADRAO                   BRASIL T PARON *       BRTP3       010VISTA          000000000017800000000181000000001750000000000000000000178000012368700
0202LOTE PADRAO                   ACESITA     PN *       ACES4       010VISTA          000000000001000000000011000000000100000000000000000000010000178914000
0202LOTE PADRAO                   PETROBRAS   PN         PETR4       010VISTA          000000000056000000000562000000005520000000000000000000560000000102500
0202LOTE PADRAO                   ELETROBRAS  PNB*       ELET6       010VISTA          000000000036200000000370000000003550000000000000000000370000057477000
0202LOTE PADRAO                   PETROBRAS   ON         PETR3       010VISTA          000000000056900000000576000000005650000000000000000000572000000073400
0202LOTE PADRAO                   COMGAS      PNA*       CGAS5       010VISTA          000000000158900000001600000000015550000000000000000001590000001483600
0202LOTE PADRAO                   SOUZA CRUZ  ON EJ      CRUZ3       010VISTA          000000000012100000000125000000001200000000000000000000123000000043500
0202LOTE PADRAO                   CELESC      PNB        CLSC6       010VISTA          000000000000630000000006500000000062000000000000000000006400000089300
0202LOTE PADRAO                   ELETROBRAS  ON *       ELET3       010VISTA          000000000037200000000382000000003720000000000000000000382000025874300
0202LOTE PADRAO                   BRADESCO    PN * EJ    BBDC4       010VISTA          000000000011800000000121000000001160000000000000000000117000254578000
0202LOTE PADRAO                   CESP        PN *       CESP4       010VISTA          000000000023300000000233000000002250000000000000000000228000008439200
0202LOTE PADRAO                   LIGHT       ON *       LIGH3       010VISTA          000000000225500000002340000000022000000000000000000002300000000268500
0202LOTE PADRAO                   TELESP CL PAPN *       TSPP4       010VISTA          000000000017800000000182500000001750000000000000000000181000118200000
0202LOTE PADRAO                   VALE R DOCE PNA        VALE5       010VISTA          000000000048200000000505000000004820000000000000000000505000000039300
0202LOTE PADRAO                   COPEL       PNB*       CPLE6       010VISTA          000000000018200000000191000000001820000000000000000000190000036682100
0202LOTE PADRAO                   VALE R DOCE ON         VALE3       010VISTA          000000000047300000000485000000004730000000000000000000485000000000600
0202LOTE PADRAO                   ARACRUZ     PNB        ARCZ6       010VISTA          000000000002770000000027000000000270000000000000000000027300000053100
0202LOTE PADRAO                   TELEMIG PARTPN *       TMCP4       010VISTA          000000000005300000000057000000000530000000000000000000055000077597000
0202LOTE PADRAO                   BRASIL TELECPN *       BRTO4       010VISTA          000000000014800000000148000000001400000000000000000000147000055697800
0202LOTE PADRAO                   SABESP      ON *       SBSP3       010VISTA          000000000214000000002240000000021400000000000000000002235000001468400
0202LOTE PADRAO                   BRASKEM     PNA*       BRKM5       010VISTA          000000000620000000006460000000061800000000000000000006450000000188700
0202LOTE PADRAO                   EMBRAER     PN EJ      EMBR4       010VISTA          000000000018100000000181000000001760000000000000000000179000000012600
0202LOTE PADRAO                   TELESP      PN * EJ    TLPP4       010VISTA          000000000030300000000303000000002950000000000000000000303000009749400
0202LOTE PADRAO                   EMBRAER     ON EJ      EMBR3       010VISTA          000000000015100000000151000000001490000000000000000000150000000018100
0202LOTE PADRAO                   AMBEV       PN *       AMBV4       010VISTA          000000000510000000005199000000050300000000000000000005080000001178300
0202LOTE PADRAO                   USIMINAS    PNA        USIM5       010VISTA          000000000010500000000114000000001040000000000000000000110000000020600
0202LOTE PADRAO                   ELETROPAULO PN *       ELPL4       010VISTA          000000000110300000001103000000010000000000000000000001075000002787700
0202LOTE PADRAO                   TELE NORD CLPN *       TNEP4       010VISTA          000000000003300000000034000000000325000000000000000000033000077485000
0202LOTE PADRAO                   CEMIG       PN * EJ    CMIG4       010VISTA          000000000031000000000313000000003050000000000000000000313000034584200
0202LOTE PADRAO                   TELE CL SUL PN * EJ    TCSL4       010VISTA          000000000004200000000042500000000410000000000000000000041000079998000
0202LOTE PADRAO                   CEMIG       ON * EJ    CMIG3       010VISTA          000000000025300000000270000000002460000000000000000000269000001587800
0202LOTE PADRAO                   TELE CL SUL ON * EJ    TCSL3       010VISTA          000000000003400000000034000000000330000000000000000000033000013753100
0202LOTE PADRAO                   ITAUSA      PN         ITSA4       010VISTA          000000000001900000000019500000000180000000000000000000019400000362600
0202LOTE PADRAO                   SID TUBARAO PN *       CSTB4       010VISTA          000000000021250000000220000000002110000000000000000000220000006290000
0202LOTE PADRAO                   V C P       PN *       VCPA4       010VISTA          000000000054000000000565000000005350000000000000000000555000004495600
0202LOTE PADRAO                   BRADESPAR   PN *       BRAP4       010VISTA          000000000001000000000010000000000100000000000000000000010000144833000
0202LOTE PADRAO                   NET         PN         PLIM4       010VISTA          000000000001690000000017600000000160000000000000000000017600001673700
0202LOTE PADRAO                   TELE CTR OESPN * EJ    TCOC4       010VISTA          000000000006600000000067000000000640000000000000000000066000077321400
0202LOTE PADRAO                   GERDAU      PN * EJ    GGBR4       010VISTA          000000000018100000000189000000001760000000000000000000188000006328400
0202LOTE PADRAO                   BRASIL      ON *       BBAS3       010VISTA          000000000007200000000073000000000700000000000000000000072000006353600
