00BDIN9999BOVESPA 99992001070320010703
0101IBOVESPA                      0145610143250147710000000000000000002001070300000020010703014353000000
0202LOTE PADRAO                   EMBRATEL PARPN *       EBTP4       010VISTA          000000000017300000000177500000001680000000000000000000169000103217000
0202LOTE PADRAO                   EMBRATEL PARON *       EBTP3       010VISTA          000000000017300000000184000000001710000000000000000000173000060029100
0202LOTE PADRAO                   TRAN PAULISTPN * EJ    TRPL4       010VISTA          000000000006500000000067000000000630000000000000000000064000011906500
0202LOTE PADRAO                   TELEMAR     PN * EJ    TNLP4       010VISTA          000000000035000000000356000000003420000000000000000000343000143766000
0202LOTE PADRAO                   ITAUBANCO   PN * EJ    ITAU4       010VISTA          000000000201900000002019000000019130000000000000000001920000004145800
0202LOTE PADRAO                   TELEMAR     ON * EJ    TNLP3       010VISTA          000000000029600000000310000000002900000000000000000000296000013550800
0202LOTE PADRAO                   SID NACIONALON *       CSNA3       010VISTA          000000000043000000000432500000004120000000000000000000415000005160000
0202LOTE PADRAO                   TELE LEST CLPN *       TLCP4       010VISTA          000000000001800000000018000000000180000000000000000000018000102345000
0202LOTE PADRAO                   IPIRANGA PETPN *       PTIP4       010VISTA          000000000017300000000173000000001700000000000000000000170000000295000
0202LOTE PADRAO                   BRASIL T PARPN *       BRTP4       010VISTA          000000000019000000000200000000001880000000000000000000190000056521800
0202LOTE PADRAO                   BRASIL T PARON *       BRTP3       010VISTA          000000000018900000000190000000001810000000000000000000183000013744900
0202LOTE PADRAO                   ACESITA     PN *       ACES4       010VISTA          000000000000680000000006900000000067000000000000000000006700110850000
0202LOTE PADRAO                   PETROBRAS   PN         PETR4       010VISTA          000000000052700000000530000000005100000000000000000000517500000076400
0202LOTE PADRAO                   ELETROBRAS  PNB*       ELET6       010VISTA          000000000027500000000275000000002600000000000000000000260000043879300
0202LOTE PADRAO                   PETROBRAS   ON         PETR3       010VISTA          000000000058400000000585000000005660000000000000000000568000000026800
0202LOTE PADRAO                   COMGAS      PNA*       CGAS5       010VISTA          000000000147900000001480000000014250000000000000000001470000002818100
0202LOTE PADRAO                   SOUZA CRUZ  ON EJ      CRUZ3       010VISTA          000000000011600000000116000000001130000000000000000000113000000002000
0202LOTE PADRAO                   CELESC      PNB        CLSC6       010VISTA          000000000000450000000004500000000044000000000000000000004400000131400
0202LOTE PADRAO                   ELETROBRAS  ON *       ELET3       010VISTA          000000000029700000000297000000002830000000000000000000285000017580800
0202LOTE PADRAO                   BRADESCO    PN * EJ    BBDC4       010VISTA          000000000012300000000123000000001190000000000000000000119000097677700
0202LOTE PADRAO                   CESP        PN *       CESP4       010VISTA          000000000013900000000145000000001360000000000000000000145000011277400
0202LOTE PADRAO                   LIGHT       ON *       LIGH3       010VISTA          000000000140000000001435000000014000000000000000000001420000000528700
0202LOTE PADRAO                   TELESP CL PAPN *       TSPP4       010VISTA          000000000014600000000151000000001450000000000000000000146000198454000
0202LOTE PADRAO                   VALE R DOCE PNA        VALE5       010VISTA          000000000054500000000545000000005170000000000000000000527000000022300
0202LOTE PADRAO                   COPEL       PNB*       CPLE6       010VISTA          000000000017800000000186000000001780000000000000000000185000043776700
0202LOTE PADRAO                   VALE R DOCE ON         VALE3       010VISTA          000000000054900000000550000000005000000000000000000000512000000000900
0202LOTE PADRAO                   ARACRUZ     PNB        ARCZ6       010VISTA          000000000004200000000042000000000390000000000000000000039800000014400
0202LOTE PADRAO                   TELEMIG PARTPN *       TMCP4       010VISTA          000000000004750000000047500000000450000000000000000000045000023782700
0202LOTE PADRAO                   BRASIL TELECPN *       BRTO4       010VISTA          000000000013500000000138000000001340000000000000000000134000056204800
0202LOTE PADRAO                   SABESP      ON *       SBSP3       010VISTA          000000000165000000001650000000015500000000000000000001570000000925000
0202LOTE PADRAO                   BRASKEM     PNA*       BRKM5       010VISTA          000000000610000000006300000000059100000000000000000005960000000290500
0202LOTE PADRAO                   EMBRAER     PN EJ      EMBR4       010VISTA          000000000022800000000231000000002230000000000000000000228000000010600
0202LOTE PADRAO                   TELESP      PN * EJ    TLPP4       010VISTA          000000000026300000000265000000002580000000000000000000262500005724100
0202LOTE PADRAO                   EMBRAER     ON EJ      EMBR3       010VISTA          000000000017600000000178000000001730000000000000000000173000000028500
0202LOTE PADRAO                   AMBEV       PN *       AMBV4       010VISTA          000000000537000000005370000000051510000000000000000005151000000683300
0202LOTE PADRAO                   USIMINAS    PNA        USIM5       010VISTA          000000000006400000000066000000000640000000000000000000065000000035400
0202LOTE PADRAO                   ELETROPAULO PN *       ELPL4       010VISTA          000000000075900000000762000000007050000000000000000000730000004791700
0202LOTE PADRAO                   TELE NORD CLPN *       TNEP4       010VISTA          000000000003700000000038000000000377000000000000000000038100114360000
0202LOTE PADRAO                   CEMIG       PN * EJ    CMIG4       010VISTA          000000000026500000000268000000002510000000000000000000251000019051900
0202LOTE PADRAO                   TELE CL SUL PN * EJ    TCSL4       010VISTA          000000000004500000000045000000000440000000000000000000044000026589800
0202LOTE PADRAO                   CEMIG       ON * EJ    CMIG3       010VISTA          000000000025600000000256000000002460000000000000000000246000000361800
0202LOTE PADRAO                   TELE CL SUL ON * EJ    TCSL3       010VISTA          000000000003750000000037000000000360000000000000000000036000011608300
0202LOTE PADRAO                   ITAUSA      PN         ITSA4       010VISTA          000000000002100000000021000000000200000000000000000000020000000210700
0202LOTE PADRAO                   SID TUBARAO PN *       CSTB4       010VISTA          000000000021800000000218000000002080000000000000000000218000006333400
0202LOTE PADRAO                   V C P       PN *       VCPA4       010VISTA          000000000071800000000718000000006500000000000000000000650000000582500
0202LOTE PADRAO                   BRADESPAR   PN *       BRAP4       010VISTA          000000000000860000000009000000000083000000000000000000008400345116000
0202LOTE PADRAO                   NET         PN         PLIM4       010VISTA          000000000001100000000012000000000110000000000000000000011000003884600
0202LOTE PADRAO                   TELE CTR OESPN * EJ    TCOC4       010VISTA          000000000006800000000068000000000650000000000000000000065000052470300
0202LOTE PADRAO                   GERDAU      PN * EJ    GGBR4       010VISTA          000000000017200000000173000000001710000000000000000000171000006646400
0202LOTE PADRAO                   BRASIL      ON *       BBAS3       010VISTA          000000000009750000000100000000000960000000000000000000096000002701400
