00BDIN9999BOVESPA 99992001041920010419
0101IBOVESPA                      0149560144200150170000000000000000002001041900000020010419014431000000
0202LOTE PADRAO                   EMBRATEL PARPN *       EBTP4       010VISTA          000000000022300000000231000000002210000000000000000000222000093070500
0202LOTE PADRAO                   EMBRATEL PARON *       EBTP3       010VISTA          000000000021400000000216000000002030000000000000000000206000032959800
0202LOTE PADRAO                   TRAN PAULISTPN * EJ    TRPL4       010VISTA          000000000007750000000080000000000760000000000000000000076000037330000
0202LOTE PADRAO                   TELEMAR     PN * EJ    TNLP4       010VISTA          000000000036300000000367500000003490000000000000000000350000243749000
0202LOTE PADRAO                   ITAUBANCO   PN * EJ    ITAU4       010VISTA          000000000167900000001700000000016500000000000000000001650000010004200
0202LOTE PADRAO                   TELEMAR     ON * EJ    TNLP3       010VISTA          000000000032000000000342000000003180000000000000000000318000009401400
0202LOTE PADRAO                   SID NACIONALON *       CSNA3       010VISTA          000000000049000000000492000000004700000000000000000000481000008348600
0202LOTE PADRAO                   TELE LEST CLPN *       TLCP4       010VISTA          000000000001600000000017000000000160000000000000000000016000114215000
0202LOTE PADRAO                   IPIRANGA PETPN *       PTIP4       010VISTA          000000000016000000000163000000001600000000000000000000160000002242000
0202LOTE PADRAO                   BRASIL T PARPN *       BRTP4       010VISTA          000000000018300000000188000000001750000000000000000000177000059891800
0202LOTE PADRAO                   BRASIL T PARON *       BRTP3       010VISTA          000000000018600000000190000000001800000000000000000000181000046117800
0202LOTE PADRAO                   ACESITA     PN *       ACES4       010VISTA          000000000000920000000009300000000088000000000000000000008900195120000
0202LOTE PADRAO                   PETROBRAS   PN         PETR4       010VISTA          000000000051000000000515000000005000000000000000000000500000000103200
0202LOTE PADRAO                   ELETROBRAS  PNB*       ELET6       010VISTA          000000000033700000000340000000003220000000000000000000322000048371500
0202LOTE PADRAO                   PETROBRAS   ON         PETR3       010VISTA          000000000055000000000557000000005400000000000000000000541000000033500
0202LOTE PADRAO                   COMGAS      PNA*       CGAS5       010VISTA          000000000146000000001460000000013950000000000000000001419000000316300
0202LOTE PADRAO                   SOUZA CRUZ  ON EJ      CRUZ3       010VISTA          000000000011500000000119000000001100000000000000000000111000000020400
0202LOTE PADRAO                   CELESC      PNB        CLSC6       010VISTA          000000000000560000000005600000000053000000000000000000005300000243000
0202LOTE PADRAO                   ELETROBRAS  ON *       ELET3       010VISTA          000000000036800000000377000000003500000000000000000000355000045830300
0202LOTE PADRAO                   BRADESCO    PN * EJ    BBDC4       010VISTA          000000000011600000000119000000001130000000000000000000116000086926400
0202LOTE PADRAO                   CESP        PN *       CESP4       010VISTA          000000000020500000000208000000001950000000000000000000195000009593500
0202LOTE PADRAO                   LIGHT       ON *       LIGH3       010VISTA          000000000182000000001820000000016850000000000000000001685000000642700
0202LOTE PADRAO                   TELESP CL PAPN *       TSPP4       010VISTA          000000000014300000000145000000001380000000000000000000138000132912000
0202LOTE PADRAO                   VALE R DOCE PNA        VALE5       010VISTA          000000000051600000000521000000005050000000000000000000510000000031400
0202LOTE PADRAO                   COPEL       PNB*       CPLE6       010VISTA          000000000017100000000171000000001600000000000000000000160000020615000
0202LOTE PADRAO                   VALE R DOCE ON         VALE3       010VISTA          000000000047800000000478000000004770000000000000000000477000000000500
0202LOTE PADRAO                   ARACRUZ     PNB        ARCZ6       010VISTA          000000000002800000000029000000000280000000000000000000028000000082300
0202LOTE PADRAO                   TELEMIG PARTPN *       TMCP4       010VISTA          000000000004200000000044000000000400000000000000000000041000123950000
0202LOTE PADRAO                   BRASIL TELECPN *       BRTO4       010VISTA          000000000013300000000133000000001240000000000000000000126000046683900
0202LOTE PADRAO                   SABESP      ON *       SBSP3       010VISTA          000000000191500000001929000000018600000000000000000001860000001237100
0202LOTE PADRAO                   BRASKEM     PNA*       BRKM5       010VISTA          000000000609900000006099000000056900000000000000000005690000000137200
0202LOTE PADRAO                   EMBRAER     PN EJ      EMBR4       010VISTA          000000000022000000000225000000002160000000000000000000216000000032500
0202LOTE PADRAO                   TELESP      PN * EJ    TLPP4       010VISTA          000000000029500000000300000000002850000000000000000000294000019820700
0202LOTE PADRAO                   EMBRAER     ON EJ      EMBR3       010VISTA          000000000017500000000176000000001700000000000000000000173000000023800
0202LOTE PADRAO                   AMBEV       PN *       AMBV4       010VISTA          000000000507000000005130000000049800000000000000000004981000001940600
0202LOTE PADRAO                   USIMINAS    PNA        USIM5       010VISTA          000000000009200000000093000000000890000000000000000000090000000019800
0202LOTE PADRAO                   ELETROPAULO PN *       ELPL4       010VISTA          000000000077000000000780000000007350000000000000000000740000002138000
0202LOTE PADRAO                   TELE NORD CLPN *       TNEP4       010VISTA          000000000003000000000032000000000300000000000000000000030000102757000
0202LOTE PADRAO                   CEMIG       PN * EJ    CMIG4       010VISTA          000000000027000000000273000000002630000000000000000000268000047247900
0202LOTE PADRAO                   TELE CL SUL PN * EJ    TCSL4       010VISTA          000000000004400000000047000000000440000000000000000000044000113973000
0202LOTE PADRAO                   CEMIG       ON * EJ    CMIG3       010VISTA          000000000027300000000273000000002500000000000000000000261000000785000
0202LOTE PADRAO                   TELE CL SUL ON * EJ    TCSL3       010VISTA          000000000004000000000041000000000380000000000000000000040000063156300
0202LOTE PADRAO                   ITAUSA      PN         ITSA4       010VISTA          000000000001800000000018000000000181000000000000000000018000000387900
0202LOTE PADRAO                   SID TUBARAO PN *       CSTB4       010VISTA          000000000021600000000230000000002110000000000000000000212000009690000
0202LOTE PADRAO                   V C P       PN *       VCPA4       010VISTA          000000000057000000000575000000005490000000000000000000560000006610500
0202LOTE PADRAO                   BRADESPAR   PN *       BRAP4       010VISTA          000000000000990000000010000000000096000000000000000000009600462574000
0202LOTE PADRAO                   NET         PN         PLIM4       010VISTA          000000000001270000000013000000000124000000000000000000012500002062800
0202LOTE PADRAO                   TELE CTR OESPN * EJ    TCOC4       010VISTA          000000000005800000000059600000000571000000000000000000057100055414300
0202LOTE PADRAO                   GERDAU      PN * EJ    GGBR4       010VISTA          000000000019300000000197500000001850000000000000000000191000008046900
0202LOTE PADRAO                   BRASIL      ON *       BBAS3       010VISTA          000000000008900000000091000000000830000000000000000000083000009029800
