00BDIN9999BOVESPA 99992001052820010528
0101IBOVESPA                      0143280140560144390000000000000000002001052800000020010528014302000000
0202LOTE PADRAO                   EMBRATEL PARPN *       EBTP4       010VISTA          000000000019800000000205000000001960000000000000000000199000051865700
0202LOTE PADRAO                   EMBRATEL PARON *       EBTP3       010VISTA          000000000019100000000202000000001910000000000000000000196000078326000
0202LOTE PADRAO                   TRAN PAULISTPN * EJ    TRPL4       010VISTA          000000000005300000000055000000000510000000000000000000054000005890000
0202LOTE PADRAO                   TELEMAR     PN * EJ    TNLP4       010VISTA          000000000036900000000369000000003550000000000000000000362000089127900
0202LOTE PADRAO                   ITAUBANCO   PN * EJ    ITAU4       010VISTA          000000000190500000001920000000018700000000000000000001880000000657300
0202LOTE PADRAO                   TELEMAR     ON * EJ    TNLP3       010VISTA          000000000031800000000320000000003100000000000000000000316000005269700
0202LOTE PADRAO                   SID NACIONALON *       CSNA3       010VISTA          000000000047200000000472000000004680000000000000000000471000003607800
0202LOTE PADRAO                   TELE LEST CLPN *       TLCP4       010VISTA          000000000001960000000019600000000180000000000000000000019000048421000
0202LOTE PADRAO                   IPIRANGA PETPN *       PTIP4       010VISTA          000000000016200000000162000000001600000000000000000000160000002327600
0202LOTE PADRAO                   BRASIL T PARPN *       BRTP4       010VISTA          000000000017300000000176000000001660000000000000000000175000023315600
0202LOTE PADRAO                   BRASIL T PARON *       BRTP3       010VISTA          000000000017700000000177000000001680000000000000000000175000013944600
0202LOTE PADRAO                   ACESITA     PN *       ACES4       010VISTA          000000000000680000000006800000000065000000000000000000006500100003000
0202LOTE PADRAO                   PETROBRAS   PN         PETR4       010VISTA          000000000057800000000583000000005630000000000000000000576000000024400
0202LOTE PADRAO                   ELETROBRAS  PNB*       ELET6       010VISTA          000000000025600000000256000000002400000000000000000000242500022883000
0202LOTE PADRAO                   PETROBRAS   ON         PETR3       010VISTA          000000000063200000000635000000006210000000000000000000627500000007900
0202LOTE PADRAO                   COMGAS      PNA*       CGAS5       010VISTA          000000000154500000001545000000015250000000000000000001525000002226500
0202LOTE PADRAO                   SOUZA CRUZ  ON EJ      CRUZ3       010VISTA          000000000011700000000118000000001150000000000000000000118000000016600
0202LOTE PADRAO                   CELESC      PNB        CLSC6       010VISTA          000000000000450000000004500000000043000000000000000000004300000105400
0202LOTE PADRAO                   ELETROBRAS  ON *       ELET3       010VISTA          000000000028900000000289000000002730000000000000000000276000007055900
0202LOTE PADRAO                   BRADESCO    PN * EJ    BBDC4       010VISTA          000000000012000000000120000000001160000000000000000000119000044269700
0202LOTE PADRAO                   CESP        PN *       CESP4       010VISTA          000000000013600000000136000000001280000000000000000000130000016453900
0202LOTE PADRAO                   LIGHT       ON *       LIGH3       010VISTA          000000000136000000001360000000012900000000000000000001290000000285400
0202LOTE PADRAO                   TELESP CL PAPN *       TSPP4       010VISTA          000000000017100000000171000000001660000000000000000000168000047663600
0202LOTE PADRAO                   VALE R DOCE PNA        VALE5       010VISTA          000000000057800000000579000000005650000000000000000000575000000019300
0202LOTE PADRAO                   COPEL       PNB*       CPLE6       010VISTA          000000000015500000000158000000001550000000000000000000156000021996700
0202LOTE PADRAO                   VALE R DOCE ON         VALE3       010VISTA          000000000051500000000520000000005150000000000000000000518000000010700
0202LOTE PADRAO                   ARACRUZ     PNB        ARCZ6       010VISTA          000000000003940000000039400000000370000000000000000000037500000011100
0202LOTE PADRAO                   TELEMIG PARTPN *       TMCP4       010VISTA          000000000004900000000053000000000490000000000000000000052000031656100
0202LOTE PADRAO                   BRASIL TELECPN *       BRTO4       010VISTA          000000000012100000000121000000001160000000000000000000119000036989000
0202LOTE PADRAO                   SABESP      ON *       SBSP3       010VISTA          000000000163000000001648000000015500000000000000000001560000000710100
0202LOTE PADRAO                   BRASKEM     PNA*       BRKM5       010VISTA          000000000510000000005100000000050000000000000000000005050000000162000
0202LOTE PADRAO                   EMBRAER     PN EJ      EMBR4       010VISTA          000000000024800000000248000000002380000000000000000000242000000006300
0202LOTE PADRAO                   TELESP      PN * EJ    TLPP4       010VISTA          000000000030600000000306000000002980000000000000000000301000005746100
0202LOTE PADRAO                   EMBRAER     ON EJ      EMBR3       010VISTA          000000000019100000000191000000001810000000000000000000186000000012400
0202LOTE PADRAO                   AMBEV       PN *       AMBV4       010VISTA          000000000550000000005500000000052500000000000000000005350000000281500
0202LOTE PADRAO                   USIMINAS    PNA        USIM5       010VISTA          000000000005900000000061000000000580000000000000000000059000000030000
0202LOTE PADRAO                   ELETROPAULO PN *       ELPL4       010VISTA          000000000062700000000657000000006250000000000000000000640000001147800
0202LOTE PADRAO                   TELE NORD CLPN *       TNEP4       010VISTA          000000000004100000000041000000000390000000000000000000041000076714800
0202LOTE PADRAO                   CEMIG       PN * EJ    CMIG4       010VISTA          000000000021500000000218000000002100000000000000000000213000031728400
0202LOTE PADRAO                   TELE CL SUL PN * EJ    TCSL4       010VISTA          000000000004700000000048000000000450000000000000000000048000038923200
0202LOTE PADRAO                   CEMIG       ON * EJ    CMIG3       010VISTA          000000000023000000000238000000002200000000000000000000220000004300000
0202LOTE PADRAO                   TELE CL SUL ON * EJ    TCSL3       010VISTA          000000000004200000000042000000000400000000000000000000042000011432000
0202LOTE PADRAO                   ITAUSA      PN         ITSA4       010VISTA          000000000002000000000020000000000199000000000000000000019900000156900
0202LOTE PADRAO                   SID TUBARAO PN *       CSTB4       010VISTA          000000000025600000000256000000002500000000000000000000250000003072800
0202LOTE PADRAO                   V C P       PN *       VCPA4       010VISTA          000000000061800000000618000000005800000000000000000000594000000362400
0202LOTE PADRAO                   BRADESPAR   PN *       BRAP4       010VISTA          000000000000810000000008100000000078000000000000000000007900077160700
0202LOTE PADRAO                   NET         PN         PLIM4       010VISTA          000000000000780000000008000000000078000000000000000000008000000504800
0202LOTE PADRAO                   TELE CTR OESPN * EJ    TCOC4       010VISTA          000000000006800000000069000000000650000000000000000000066000024793800
0202LOTE PADRAO                   GERDAU      PN * EJ    GGBR4       010VISTA          000000000015500000000155000000001530000000000000000000153000010791100
0202LOTE PADRAO                   BRASIL      ON *       BBAS3       010VISTA          000000000008100000000081000000000770000000000000000000079000000568000
