00BDIN9999BOVESPA 99992001121820011218
0101IBOVESPA                      0129350129240134140000000000000000002001121800000020011218013397000000
0202LOTE PADRAO                   EMBRATEL PARPN *       EBTP4       010VISTA          000000000009500000000099000000000930000000000000000000097000134212000
0202LOTE PADRAO                   EMBRATEL PARON *       EBTP3       010VISTA          000000000010700000000114000000001070000000000000000000113000022156000
0202LOTE PADRAO                   TRAN PAULISTPN * EJ    TRPL4       010VISTA          000000000006300000000065000000000630000000000000000000064000012190200
0202LOTE PADRAO                   TELEMAR     PN * EJ    TNLP4       010VISTA          000000000033300000000354000000003330000000000000000000354000339297000
0202LOTE PADRAO                   ITAUBANCO   PN * EJ    ITAU4       010VISTA          000000000175000000001760000000017460000000000000000001760000011247200
0202LOTE PADRAO                   TELEMAR     ON * EJ    TNLP3       010VISTA          000000000029300000000305000000002900000000000000000000303000012846700
0202LOTE PADRAO                   SID NACIONALON *       CSNA3       010VISTA          000000000035300000000367000000003530000000000000000000365000069745200
0202LOTE PADRAO                   TELE LEST CLPN *       TLCP4       010VISTA          000000000000900000000009200000000088000000000000000000008800249376000
0202LOTE PADRAO                   CRT CELULAR PNA* EJ    CRTP5       010VISTA          000000000459000000004700000000045900000000000000000004680000001368600
0202LOTE PADRAO                   IPIRANGA PETPN *       PTIP4       010VISTA          000000000012900000000130000000001280000000000000000000129000001527600
0202LOTE PADRAO                   BRASIL T PARPN *       BRTP4       010VISTA          000000000018100000000188000000001810000000000000000000188000053253300
0202LOTE PADRAO                   BRASIL T PARON *       BRTP3       010VISTA          000000000017700000000188000000001770000000000000000000188000015876300
0202LOTE PADRAO                   ACESITA     PN *       ACES4       010VISTA          000000000000700000000007400000000070000000000000000000007300301188000
0202LOTE PADRAO                   PETROBRAS   PN         PETR4       010VISTA          000000000047600000000487000000004730000000000000000000482000000089000
0202LOTE PADRAO                   ELETROBRAS  PNB*       ELET6       010VISTA          000000000028600000000294000000002850000000000000000000290000071908800
0202LOTE PADRAO                   PETROBRAS   ON         PETR3       010VISTA          000000000049000000000500000000004870000000000000000000497000000020400
0202LOTE PADRAO                   COMGAS      PNA*       CGAS5       010VISTA          000000000089000000000929000000008900000000000000000000929000001171000
0202LOTE PADRAO                   SOUZA CRUZ  ON EJ      CRUZ3       010VISTA          000000000014000000000140000000001390000000000000000000139000000038700
0202LOTE PADRAO                   ELETROBRAS  ON *       ELET3       010VISTA          000000000030000000000306000000002950000000000000000000304000025307100
0202LOTE PADRAO                   CELESC      PNB        CLSC6       010VISTA          000000000000440000000004600000000044000000000000000000004600000440000
0202LOTE PADRAO                   BRADESCO    PN * EJ    BBDC4       010VISTA          000000000011300000000119000000001130000000000000000000118000187719000
0202LOTE PADRAO                   CESP        PN *       CESP4       010VISTA          000000000016000000000179000000001600000000000000000000175000013625900
0202LOTE PADRAO                   LIGHT       ON *       LIGH3       010VISTA          000000000114000000001197000000011400000000000000000001187000000615200
0202LOTE PADRAO                   TELESP CL PAPN *       TSPP4       010VISTA          000000000007800000000080000000000770000000000000000000080000335913000
0202LOTE PADRAO                   VALE R DOCE PNA        VALE5       010VISTA          000000000052500000000537000000005250000000000000000000532000000032200
0202LOTE PADRAO                   COPEL       PNB*       CPLE6       010VISTA          000000000016100000000169000000001600000000000000000000168000028399900
0202LOTE PADRAO                   VALE R DOCE ON         VALE3       010VISTA          000000000049800000000515000000004980000000000000000000515000000004700
0202LOTE PADRAO                   ARACRUZ     PNB        ARCZ6       010VISTA          000000000004500000000045000000000430000000000000000000043000000054600
0202LOTE PADRAO                   TELEMIG PARTPN *       TMCP4       010VISTA          000000000004000000000040000000000400000000000000000000040000111594000
0202LOTE PADRAO                   BRASIL TELECPN *       BRTO4       010VISTA          000000000012800000000132500000001280000000000000000000131000139116000
0202LOTE PADRAO                   SABESP      ON *       SBSP3       010VISTA          000000000132000000001340000000013190000000000000000001335000003861200
0202LOTE PADRAO                   BRASKEM     PNA*       BRKM5       010VISTA          000000000430000000004500000000043000000000000000000004420000000274500
0202LOTE PADRAO                   EMBRAER     PN EJ      EMBR4       010VISTA          000000000012500000000129000000001240000000000000000000124000000061700
0202LOTE PADRAO                   TELESP      PN * EJ    TLPP4       010VISTA          000000000031300000000316000000003080000000000000000000315000011532000
0202LOTE PADRAO                   EMBRAER     ON EJ      EMBR3       010VISTA          000000000011300000000115000000001130000000000000000000115000000030000
0202LOTE PADRAO                   AMBEV       PN *       AMBV4       010VISTA          000000000473000000004799000000047100000000000000000004769000001750400
0202LOTE PADRAO                   USIMINAS    PNA        USIM5       010VISTA          000000000006000000000062000000000600000000000000000000062000000038500
0202LOTE PADRAO                   ELETROPAULO PN *       ELPL4       010VISTA          000000000079500000000795000000007700000000000000000000780000004283200
0202LOTE PADRAO                   TELE NORD CLPN *       TNEP4       010VISTA          000000000003200000000032000000000310000000000000000000032000094672100
0202LOTE PADRAO                   CEMIG       PN * EJ    CMIG4       010VISTA          000000000032000000000339000000003200000000000000000000337000049447500
0202LOTE PADRAO                   TELE CL SUL PN * EJ    TCSL4       010VISTA          000000000003600000000037500000000360000000000000000000036000137849000
0202LOTE PADRAO                   CEMIG       ON * EJ    CMIG3       010VISTA          000000000028300000000301000000002830000000000000000000299000004045100
0202LOTE PADRAO                   TELE CL SUL ON * EJ    TCSL3       010VISTA          000000000003000000000031000000000300000000000000000000031000029271700
0202LOTE PADRAO                   ITAUSA      PN         ITSA4       010VISTA          000000000002200000000022000000000210000000000000000000021000000321800
0202LOTE PADRAO                   V C P       PN *       VCPA4       010VISTA          000000000077700000000790000000007730000000000000000000778000001719900
0202LOTE PADRAO                   SID TUBARAO PN *       CSTB4       010VISTA          000000000020800000000225000000002080000000000000000000220000003533400
0202LOTE PADRAO                   BRADESPAR   PN *       BRAP4       010VISTA          000000000000840000000009000000000084000000000000000000008700314974000
0202LOTE PADRAO                   NET         PN         PLIM4       010VISTA          000000000000790000000008200000000078000000000000000000008200002951600
0202LOTE PADRAO                   TELE CTR OESPN * EJ    TCOC4       010VISTA          000000000005250000000054000000000520000000000000000000053000110003000
0202LOTE PADRAO                   TELEMAR N L PNA* EJ    TMAR5       010VISTA          000000000055000000000580000000005500000000000000000000571000039331300
0202LOTE PADRAO                   GERDAU      PN * EJ    GGBR4       010VISTA          000000000022300000000232000000002230000000000000000000228000022934300
0202LOTE PADRAO                   BRASIL      ON *       BBAS3       010VISTA          000000000010200000000109000000001010000000000000000000109000006443000
