00BDIN9999BOVESPA 99992001103120011031
0101IBOVESPA                      0110570110470113650000000000000000002001103100000020011031011365000000
0202LOTE PADRAO                   EMBRATEL PARPN *       EBTP4       010VISTA          000000000007200000000075000000000710000000000000000000075000074920600
0202LOTE PADRAO                   EMBRATEL PARON *       EBTP3       010VISTA          000000000008000000000084000000000771000000000000000000084000021142000
0202LOTE PADRAO                   TRAN PAULISTPN * EJ    TRPL4       010VISTA          000000000005400000000055000000000520000000000000000000055000007090700
0202LOTE PADRAO                   TELEMAR     PN * EJ    TNLP4       010VISTA          000000000027400000000276000000002610000000000000000000272000253660000
0202LOTE PADRAO                   ITAUBANCO   PN * EJ    ITAU4       010VISTA          000000000170000000001730000000016900000000000000000001715000017749500
0202LOTE PADRAO                   TELEMAR     ON * EJ    TNLP3       010VISTA          000000000024000000000249000000002310000000000000000000249000019725700
0202LOTE PADRAO                   SID NACIONALON *       CSNA3       010VISTA          000000000028000000000283000000002760000000000000000000280000007124100
0202LOTE PADRAO                   TELE LEST CLPN *       TLCP4       010VISTA          000000000000740000000007500000000071000000000000000000007300119492000
0202LOTE PADRAO                   CRT CELULAR PNA* EJ    CRTP5       010VISTA          000000000375000000003750000000035500000000000000000003700000001084300
0202LOTE PADRAO                   IPIRANGA PETPN *       PTIP4       010VISTA          000000000011300000000115000000001100000000000000000000115000003632100
0202LOTE PADRAO                   BRASIL T PARPN *       BRTP4       010VISTA          000000000015100000000151000000001450000000000000000000149000061211300
0202LOTE PADRAO                   BRASIL T PARON *       BRTP3       010VISTA          000000000014600000000147500000001400000000000000000000147500015905100
0202LOTE PADRAO                   ACESITA     PN *       ACES4       010VISTA          000000000000470000000004900000000047000000000000000000004800103492000
0202LOTE PADRAO                   PETROBRAS   PN         PETR4       010VISTA          000000000051500000000524000000005060000000000000000000518000000114700
0202LOTE PADRAO                   ELETROBRAS  PNB*       ELET6       010VISTA          000000000031500000000332000000003150000000000000000000332000030801400
0202LOTE PADRAO                   PETROBRAS   ON         PETR3       010VISTA          000000000053000000000539000000005220000000000000000000533000000054800
0202LOTE PADRAO                   COMGAS      PNA*       CGAS5       010VISTA          000000000080000000000818000000007900000000000000000000813000000608000
0202LOTE PADRAO                   SOUZA CRUZ  ON EJ      CRUZ3       010VISTA          000000000012400000000127000000001230000000000000000000124000000032200
0202LOTE PADRAO                   ELETROBRAS  ON *       ELET3       010VISTA          000000000034300000000350000000003400000000000000000000350000010220000
0202LOTE PADRAO                   CELESC      PNB        CLSC6       010VISTA          000000000000430000000004400000000042000000000000000000004300000099200
0202LOTE PADRAO                   BRADESCO    PN * EJ    BBDC4       010VISTA          000000000010100000000103000000001010000000000000000000102500267825000
0202LOTE PADRAO                   CESP        PN *       CESP4       010VISTA          000000000012900000000134000000001280000000000000000000131000010667400
0202LOTE PADRAO                   LIGHT       ON *       LIGH3       010VISTA          000000000091000000000920000000008940000000000000000000915000000897400
0202LOTE PADRAO                   TELESP CL PAPN *       TSPP4       010VISTA          000000000005500000000055000000000520000000000000000000054000285504000
0202LOTE PADRAO                   VALE R DOCE PNA        VALE5       010VISTA          000000000055500000000563000000005510000000000000000000563000000074500
0202LOTE PADRAO                   COPEL       PNB*       CPLE6       010VISTA          000000000013500000000141000000001300000000000000000000134000116557000
0202LOTE PADRAO                   VALE R DOCE ON         VALE3       010VISTA          000000000052000000000530000000005150000000000000000000529000000000700
0202LOTE PADRAO                   ARACRUZ     PNB        ARCZ6       010VISTA          000000000004700000000047000000000460000000000000000000047000000020200
0202LOTE PADRAO                   TELEMIG PARTPN *       TMCP4       010VISTA          000000000003200000000033000000000320000000000000000000032500080374700
0202LOTE PADRAO                   BRASIL TELECPN *       BRTO4       010VISTA          000000000010100000000103000000001000000000000000000000103000096056100
0202LOTE PADRAO                   SABESP      ON *       SBSP3       010VISTA          000000000112200000001159000000010750000000000000000001120000001047600
0202LOTE PADRAO                   BRASKEM     PNA*       BRKM5       010VISTA          000000000385000000003900000000037700000000000000000003800000000104100
0202LOTE PADRAO                   EMBRAER     PN EJ      EMBR4       010VISTA          000000000011500000000118000000001130000000000000000000116000000048100
0202LOTE PADRAO                   TELESP      PN * EJ    TLPP4       010VISTA          000000000025000000000255000000002500000000000000000000254000008280600
0202LOTE PADRAO                   EMBRAER     ON EJ      EMBR3       010VISTA          000000000009500000000098000000000950000000000000000000098000000017400
0202LOTE PADRAO                   AMBEV       PN *       AMBV4       010VISTA          000000000436500000004400000000043490000000000000000004395000003546300
0202LOTE PADRAO                   USIMINAS    PNA        USIM5       010VISTA          000000000003900000000040000000000370000000000000000000039000000049000
0202LOTE PADRAO                   ELETROPAULO PN *       ELPL4       010VISTA          000000000063000000000670000000006270000000000000000000650000004794500
0202LOTE PADRAO                   TELE NORD CLPN *       TNEP4       010VISTA          000000000002600000000027100000000260000000000000000000026000120390000
0202LOTE PADRAO                   CEMIG       PN * EJ    CMIG4       010VISTA          000000000026500000000271000000002600000000000000000000266000038404300
0202LOTE PADRAO                   TELE CL SUL PN * EJ    TCSL4       010VISTA          000000000002790000000028000000000273000000000000000000028000068054600
0202LOTE PADRAO                   CEMIG       ON * EJ    CMIG3       010VISTA          000000000024800000000264000000002480000000000000000000264000002824200
0202LOTE PADRAO                   TELE CL SUL ON * EJ    TCSL3       010VISTA          000000000002300000000024000000000230000000000000000000023000027228900
0202LOTE PADRAO                   ITAUSA      PN         ITSA4       010VISTA          000000000001800000000018000000000180000000000000000000018000000386500
0202LOTE PADRAO                   SID TUBARAO PN *       CSTB4       010VISTA          000000000016000000000163000000001550000000000000000000156000004040000
0202LOTE PADRAO                   V C P       PN *       VCPA4       010VISTA          000000000077300000000807000000007550000000000000000000807000004553200
0202LOTE PADRAO                   BRADESPAR   PN *       BRAP4       010VISTA          000000000000610000000006600000000061000000000000000000006600170406000
0202LOTE PADRAO                   NET         PN         PLIM4       010VISTA          000000000000640000000006600000000063000000000000000000006600000506600
0202LOTE PADRAO                   TELE CTR OESPN * EJ    TCOC4       010VISTA          000000000004600000000047500000000450000000000000000000045000070551800
0202LOTE PADRAO                   GERDAU      PN * EJ    GGBR4       010VISTA          000000000017800000000188000000001780000000000000000000188000010668700
0202LOTE PADRAO                   BRASIL      ON *       BBAS3       010VISTA          000000000007300000000077000000000730000000000000000000077000004881500
