00BDIN9999BOVESPA 99992001032920010329
0101IBOVESPA                      0146470142260147130000000000000000002001032900000020010329014282000000
0202LOTE PADRAO                   EMBRATEL PARPN *       EBTP4       010VISTA          000000000021600000000217000000002010000000000000000000202500082309300
0202LOTE PADRAO                   EMBRATEL PARON *       EBTP3       010VISTA          000000000019100000000203000000001860000000000000000000189000046300100
0202LOTE PADRAO                   TRAN PAULISTPN * EJ    TRPL4       010VISTA          000000000007700000000080000000000725000000000000000000073000023095600
0202LOTE PADRAO                   TELEMAR     PN * EJ    TNLP4       010VISTA          000000000036200000000365000000003470000000000000000000350000263777000
0202LOTE PADRAO                   ITAUBANCO   PN * EJ    ITAU4       010VISTA          000000000172000000001780000000017050000000000000000001715000003752300
0202LOTE PADRAO                   TELEMAR     ON * EJ    TNLP3       010VISTA          000000000030100000000310000000002910000000000000000000300000110319000
0202LOTE PADRAO                   SID NACIONALON *       CSNA3       010VISTA          000000000045400000000472000000004540000000000000000000470000014397800
0202LOTE PADRAO                   TELE LEST CLPN *       TLCP4       010VISTA          000000000001600000000016000000000152000000000000000000015400101080000
0202LOTE PADRAO                   CRT CELULAR PNA* EJ    CRTP5       010VISTA          000000000866000000009000000000086000000000000000000008850000000821200
0202LOTE PADRAO                   IPIRANGA PETPN *       PTIP4       010VISTA          000000000016300000000165000000001630000000000000000000165000001713900
0202LOTE PADRAO                   BRASIL T PARPN *       BRTP4       010VISTA          000000000017800000000179000000001700000000000000000000171000058716200
0202LOTE PADRAO                   BRASIL T PARON *       BRTP3       010VISTA          000000000017000000000175000000001610000000000000000000163000023953700
0202LOTE PADRAO                   ACESITA     PN *       ACES4       010VISTA          000000000001000000000010000000000094000000000000000000009400166781000
0202LOTE PADRAO                   PETROBRAS   PN         PETR4       010VISTA          000000000048300000000488000000004650000000000000000000470000000069000
0202LOTE PADRAO                   ELETROBRAS  PNB*       ELET6       010VISTA          000000000037700000000393000000003770000000000000000000382000060948200
0202LOTE PADRAO                   PETROBRAS   ON         PETR3       010VISTA          000000000051500000000521000000005000000000000000000000505000000026800
0202LOTE PADRAO                   COMGAS      PNA*       CGAS5       010VISTA          000000000173000000001740000000016800000000000000000001703000002336000
0202LOTE PADRAO                   SOUZA CRUZ  ON EJ      CRUZ3       010VISTA          000000000011100000000114000000001080000000000000000000108000000013500
0202LOTE PADRAO                   ELETROBRAS  ON *       ELET3       010VISTA          000000000040300000000413000000003950000000000000000000400000034873700
0202LOTE PADRAO                   CELESC      PNB        CLSC6       010VISTA          000000000000590000000006000000000057000000000000000000005700000197700
0202LOTE PADRAO                   BRADESCO    PN * EJ    BBDC4       010VISTA          000000000011800000000119000000001150000000000000000000116000253926000
0202LOTE PADRAO                   CESP        PN *       CESP4       010VISTA          000000000022800000000233000000002180000000000000000000225000013273600
0202LOTE PADRAO                   LIGHT       ON *       LIGH3       010VISTA          000000000198900000002000000000019100000000000000000001921000000439400
0202LOTE PADRAO                   TELESP CL PAPN *       TSPP4       010VISTA          000000000013500000000136000000001280000000000000000000130000126894000
0202LOTE PADRAO                   VALE R DOCE PNA        VALE5       010VISTA          000000000052000000000536000000005200000000000000000000520000000052800
0202LOTE PADRAO                   COPEL       PNB*       CPLE6       010VISTA          000000000017900000000186000000001750000000000000000000178000029469100
0202LOTE PADRAO                   VALE R DOCE ON         VALE3       010VISTA          000000000049000000000510000000004900000000000000000000493000000004200
0202LOTE PADRAO                   ARACRUZ     PNB        ARCZ6       010VISTA          000000000002700000000027000000000270000000000000000000027000000042100
0202LOTE PADRAO                   TELEMIG PARTPN *       TMCP4       010VISTA          000000000004400000000045000000000430000000000000000000043000118994000
0202LOTE PADRAO                   BRASIL TELECPN *       BRTO4       010VISTA          000000000012600000000128000000001200000000000000000000120000035453000
0202LOTE PADRAO                   SABESP      ON *       SBSP3       010VISTA          000000000196500000001965000000018900000000000000000001900000000812300
0202LOTE PADRAO                   BRASKEM     PNA*       BRKM5       010VISTA          000000000593800000006150000000059000000000000000000006000000000229600
0202LOTE PADRAO                   EMBRAER     PN EJ      EMBR4       010VISTA          000000000020600000000208000000002010000000000000000000207000000018800
0202LOTE PADRAO                   TELESP      PN * EJ    TLPP4       010VISTA          000000000028300000000283000000002700000000000000000000275000006264400
0202LOTE PADRAO                   EMBRAER     ON EJ      EMBR3       010VISTA          000000000015600000000159000000001550000000000000000000157000000024100
0202LOTE PADRAO                   AMBEV       PN *       AMBV4       010VISTA          000000000500000000005150000000049700000000000000000005000000002581800
0202LOTE PADRAO                   USIMINAS    PNA        USIM5       010VISTA          000000000009000000000093000000000870000000000000000000087000000022200
0202LOTE PADRAO                   ELETROPAULO PN *       ELPL4       010VISTA          000000000083100000000840000000007990000000000000000000815000003578500
0202LOTE PADRAO                   TELE NORD CLPN *       TNEP4       010VISTA          000000000002900000000029000000000270000000000000000000027000095772900
0202LOTE PADRAO                   CEMIG       PN * EJ    CMIG4       010VISTA          000000000027800000000278000000002610000000000000000000263000046118700
0202LOTE PADRAO                   TELE CL SUL PN * EJ    TCSL4       010VISTA          000000000003900000000039000000000370000000000000000000038000170610000
0202LOTE PADRAO                   CEMIG       ON * EJ    CMIG3       010VISTA          000000000023300000000246000000002330000000000000000000246000002550000
0202LOTE PADRAO                   TELE CL SUL ON * EJ    TCSL3       010VISTA          000000000002900000000030000000000290000000000000000000029800084402900
0202LOTE PADRAO                   ITAUSA      PN         ITSA4       010VISTA          000000000001800000000018000000000175000000000000000000017700000235000
0202LOTE PADRAO                   SID TUBARAO PN *       CSTB4       010VISTA          000000000020800000000211000000001980000000000000000000203000005203600
0202LOTE PADRAO                   V C P       PN *       VCPA4       010VISTA          000000000054000000000547000000005370000000000000000000540000001134400
0202LOTE PADRAO                   BRADESPAR   PN *       BRAP4       010VISTA          000000000001000000000010000000000098000000000000000000009800312882000
0202LOTE PADRAO                   NET         PN         PLIM4       010VISTA          000000000001480000000014900000000130000000000000000000013000000852800
0202LOTE PADRAO                   TELE CTR OESPN * EJ    TCOC4       010VISTA          000000000005900000000059000000000560000000000000000000056000085179900
0202LOTE PADRAO                   GERDAU      PN * EJ    GGBR4       010VISTA          000000000019500000000196000000001900000000000000000000193000022763400
0202LOTE PADRAO                   BRASIL      ON *       BBAS3       010VISTA          000000000007200000000073000000000700000000000000000000070000004059700
