00BDIN9999BOVESPA 99992001083020010830
0101IBOVESPA                      0130740127980131140000000000000000002001083000000020010830012892000000
0202LOTE PADRAO                   EMBRATEL PARPN *       EBTP4       010VISTA          000000000010900000000109000000001050000000000000000000105000108491000
0202LOTE PADRAO                   EMBRATEL PARON *       EBTP3       010VISTA          000000000011900000000119000000001110000000000000000000112000021280100
0202LOTE PADRAO                   TRAN PAULISTPN * EJ    TRPL4       010VISTA          000000000006500000000067500000000620000000000000000000064000016057500
0202LOTE PADRAO                   TELEMAR     PN * EJ    TNLP4       010VISTA          000000000029100000000291000000002800000000000000000000284000176854000
0202LOTE PADRAO                   ITAUBANCO   PN * EJ    ITAU4       010VISTA          000000000179000000001814000000017610000000000000000001769000003066700
0202LOTE PADRAO                   TELEMAR     ON * EJ    TNLP3       010VISTA          000000000026800000000268000000002520000000000000000000258000004188900
0202LOTE PADRAO                   SID NACIONALON *       CSNA3       010VISTA          000000000035600000000364000000003480000000000000000000364000005631300
0202LOTE PADRAO                   TELE LEST CLPN *       TLCP4       010VISTA          000000000001300000000013000000000130000000000000000000013000045301900
0202LOTE PADRAO                   CRT CELULAR PNA* EJ    CRTP5       010VISTA          000000000950000000009599000000093200000000000000000009450000000403200
0202LOTE PADRAO                   IPIRANGA PETPN *       PTIP4       010VISTA          000000000014300000000143000000001360000000000000000000137500000520000
0202LOTE PADRAO                   BRASIL T PARPN *       BRTP4       010VISTA          000000000014900000000149000000001400000000000000000000146000073725100
0202LOTE PADRAO                   BRASIL T PARON *       BRTP3       010VISTA          000000000013900000000140000000001330000000000000000000136000011719900
0202LOTE PADRAO                   ACESITA     PN *       ACES4       010VISTA          000000000000540000000005400000000052000000000000000000005200112569000
0202LOTE PADRAO                   PETROBRAS   PN         PETR4       010VISTA          000000000056100000000562000000005520000000000000000000556000000057100
0202LOTE PADRAO                   ELETROBRAS  PNB*       ELET6       010VISTA          000000000033100000000332000000003240000000000000000000324000035597000
0202LOTE PADRAO                   PETROBRAS   ON         PETR3       010VISTA          000000000058500000000585000000005760000000000000000000578000000024400
0202LOTE PADRAO                   COMGAS      PNA*       CGAS5       010VISTA          000000000128000000001294000000012600000000000000000001289000001085000
0202LOTE PADRAO                   SOUZA CRUZ  ON EJ      CRUZ3       010VISTA          000000000011400000000114000000001100000000000000000000111000000004300
0202LOTE PADRAO                   ELETROBRAS  ON *       ELET3       010VISTA          000000000037300000000373000000003650000000000000000000365000009472000
0202LOTE PADRAO                   CELESC      PNB        CLSC6       010VISTA          000000000000440000000004400000000041000000000000000000004200000070900
0202LOTE PADRAO                   BRADESCO    PN * EJ    BBDC4       010VISTA          000000000011500000000116000000001140000000000000000000114000148927000
0202LOTE PADRAO                   CESP        PN *       CESP4       010VISTA          000000000012000000000120000000001140000000000000000000117000008663800
0202LOTE PADRAO                   LIGHT       ON *       LIGH3       010VISTA          000000000115900000001177500000011300000000000000000001140000000120800
0202LOTE PADRAO                   TELESP CL PAPN *       TSPP4       010VISTA          000000000013500000000135000000001310000000000000000000132500043144100
0202LOTE PADRAO                   VALE R DOCE PNA        VALE5       010VISTA          000000000052000000000520000000005120000000000000000000515000000034000
0202LOTE PADRAO                   COPEL       PNB*       CPLE6       010VISTA          000000000018300000000184000000001800000000000000000000181000021586300
0202LOTE PADRAO                   VALE R DOCE ON         VALE3       010VISTA          000000000052000000000520000000005070000000000000000000515000000000800
0202LOTE PADRAO                   ARACRUZ     PNB        ARCZ6       010VISTA          000000000004500000000045000000000450000000000000000000045000000034900
0202LOTE PADRAO                   TELEMIG PARTPN *       TMCP4       010VISTA          000000000003600000000036000000000340000000000000000000034000045293000
0202LOTE PADRAO                   BRASIL TELECPN *       BRTO4       010VISTA          000000000010100000000101000000000980000000000000000000100000048911700
0202LOTE PADRAO                   SABESP      ON *       SBSP3       010VISTA          000000000172000000001740000000017200000000000000000001739000001493100
0202LOTE PADRAO                   BRASKEM     PNA*       BRKM5       010VISTA          000000000435000000004350000000041500000000000000000004231000000174700
0202LOTE PADRAO                   EMBRAER     PN EJ      EMBR4       010VISTA          000000000018000000000180000000001630000000000000000000168000000103100
0202LOTE PADRAO                   TELESP      PN * EJ    TLPP4       010VISTA          000000000025000000000257500000002500000000000000000000256000007141600
0202LOTE PADRAO                   EMBRAER     ON EJ      EMBR3       010VISTA          000000000014600000000146000000001340000000000000000000138000000016900
0202LOTE PADRAO                   AMBEV       PN *       AMBV4       010VISTA          000000000488000000004880000000047200000000000000000004770000000572700
0202LOTE PADRAO                   USIMINAS    PNA        USIM5       010VISTA          000000000005900000000059000000000580000000000000000000058000000031300
0202LOTE PADRAO                   ELETROPAULO PN *       ELPL4       010VISTA          000000000070400000000717000000007040000000000000000000710000000388100
0202LOTE PADRAO                   TELE NORD CLPN *       TNEP4       010VISTA          000000000002700000000028000000000270000000000000000000028000100953000
0202LOTE PADRAO                   CEMIG       PN * EJ    CMIG4       010VISTA          000000000026700000000273000000002660000000000000000000273000036640600
0202LOTE PADRAO                   TELE CL SUL PN * EJ    TCSL4       010VISTA          000000000003300000000033000000000310000000000000000000032000044808300
0202LOTE PADRAO                   CEMIG       ON * EJ    CMIG3       010VISTA          000000000026800000000275000000002600000000000000000000275000000347000
0202LOTE PADRAO                   TELE CL SUL ON * EJ    TCSL3       010VISTA          000000000002730000000027300000000260000000000000000000026000012683900
0202LOTE PADRAO                   ITAUSA      PN         ITSA4       010VISTA          000000000001970000000019700000000190000000000000000000019400000095300
0202LOTE PADRAO                   SID TUBARAO PN *       CSTB4       010VISTA          000000000020100000000203000000001960000000000000000000203000004587400
0202LOTE PADRAO                   V C P       PN *       VCPA4       010VISTA          000000000073500000000735000000007200000000000000000000725000001409800
0202LOTE PADRAO                   BRADESPAR   PN *       BRAP4       010VISTA          000000000000680000000007000000000066000000000000000000006600114124000
0202LOTE PADRAO                   NET         PN         PLIM4       010VISTA          000000000000920000000009300000000087000000000000000000008800001266500
0202LOTE PADRAO                   TELE CTR OESPN * EJ    TCOC4       010VISTA          000000000005200000000052000000000500000000000000000000052000036470500
0202LOTE PADRAO                   GERDAU      PN * EJ    GGBR4       010VISTA          000000000016500000000166000000001630000000000000000000165000003360300
0202LOTE PADRAO                   BRASIL      ON *       BBAS3       010VISTA          000000000009200000000092000000000880000000000000000000090000002432300
