00BDIN9999BOVESPA 99992001092020010920
0101IBOVESPA                      0107190104700107190000000000000000002001092000000020010920010543000000
0202LOTE PADRAO                   EMBRATEL PARPN *       EBTP4       010VISTA          000000000007700000000081000000000770000000000000000000079600129918000
0202LOTE PADRAO                   EMBRATEL PARON *       EBTP3       010VISTA          000000000008200000000090000000000820000000000000000000087000050220700
0202LOTE PADRAO                   TRAN PAULISTPN * EJ    TRPL4       010VISTA          000000000004500000000047000000000440000000000000000000047000008928400
0202LOTE PADRAO                   TELEMAR     PN * EJ    TNLP4       010VISTA          000000000022600000000238000000002230000000000000000000231000330968000
0202LOTE PADRAO                   ITAUBANCO   PN * EJ    ITAU4       010VISTA          000000000165000000001670000000015900000000000000000001600000005469600
0202LOTE PADRAO                   TELEMAR     ON * EJ    TNLP3       010VISTA          000000000021600000000221000000002160000000000000000000220000024122800
0202LOTE PADRAO                   SID NACIONALON *       CSNA3       010VISTA          000000000030600000000313000000002960000000000000000000298000014641100
0202LOTE PADRAO                   TELE LEST CLPN *       TLCP4       010VISTA          000000000000630000000006500000000061000000000000000000006200135366000
0202LOTE PADRAO                   CRT CELULAR PNA* EJ    CRTP5       010VISTA          000000000314900000003399000000030010000000000000000003250000002359600
0202LOTE PADRAO                   IPIRANGA PETPN *       PTIP4       010VISTA          000000000010700000000115000000001070000000000000000000109000000600000
0202LOTE PADRAO                   BRASIL T PARPN *       BRTP4       010VISTA          000000000012300000000131000000001200000000000000000000126000088925800
0202LOTE PADRAO                   BRASIL T PARON *       BRTP3       010VISTA          000000000011100000000125000000001110000000000000000000118000012042800
0202LOTE PADRAO                   ACESITA     PN *       ACES4       010VISTA          000000000000430000000004800000000042000000000000000000004200113410000
0202LOTE PADRAO                   PETROBRAS   PN         PETR4       010VISTA          000000000055600000000556000000005300000000000000000000537000000140400
0202LOTE PADRAO                   ELETROBRAS  PNB*       ELET6       010VISTA          000000000030300000000310000000002980000000000000000000298000036460200
0202LOTE PADRAO                   PETROBRAS   ON         PETR3       010VISTA          000000000056700000000567000000005400000000000000000000543000000033400
0202LOTE PADRAO                   COMGAS      PNA*       CGAS5       010VISTA          000000000084000000000889000000008400000000000000000000875000000594300
0202LOTE PADRAO                   SOUZA CRUZ  ON EJ      CRUZ3       010VISTA          000000000011100000000114000000001100000000000000000000111000000036500
0202LOTE PADRAO                   ELETROBRAS  ON *       ELET3       010VISTA          000000000033500000000340000000003300000000000000000000330000029827900
0202LOTE PADRAO                   CELESC      PNB        CLSC6       010VISTA          000000000000350000000003700000000034000000000000000000003600000072800
0202LOTE PADRAO                   BRADESCO    PN * EJ    BBDC4       010VISTA          000000000009900000000100000000000980000000000000000000098000141204000
0202LOTE PADRAO                   CESP        PN *       CESP4       010VISTA          000000000008900000000090000000000850000000000000000000086000012621700
0202LOTE PADRAO                   LIGHT       ON *       LIGH3       010VISTA          000000000088000000000880000000008520000000000000000000852000001064100
0202LOTE PADRAO                   TELESP CL PAPN *       TSPP4       010VISTA          000000000005900000000060000000000570000000000000000000057000229578000
0202LOTE PADRAO                   VALE R DOCE PNA        VALE5       010VISTA          000000000052000000000527000000005130000000000000000000526000000105800
0202LOTE PADRAO                   COPEL       PNB*       CPLE6       010VISTA          000000000015100000000152000000001450000000000000000000145000030053000
0202LOTE PADRAO                   VALE R DOCE ON         VALE3       010VISTA          000000000051500000000517000000005150000000000000000000517000000000400
0202LOTE PADRAO                   ARACRUZ     PNB        ARCZ6       010VISTA          000000000004000000000040000000000380000000000000000000039400000102800
0202LOTE PADRAO                   TELEMIG PARTPN *       TMCP4       010VISTA          000000000002800000000031000000000280000000000000000000031000091844600
0202LOTE PADRAO                   BRASIL TELECPN *       BRTO4       010VISTA          000000000008400000000087000000000830000000000000000000086000043058200
0202LOTE PADRAO                   SABESP      ON *       SBSP3       010VISTA          000000000122200000001225000000011800000000000000000001180000000853000
0202LOTE PADRAO                   BRASKEM     PNA*       BRKM5       010VISTA          000000000352500000003550000000033010000000000000000003500000000145000
0202LOTE PADRAO                   EMBRAER     PN EJ      EMBR4       010VISTA          000000000010000000000100000000000790000000000000000000083000000345400
0202LOTE PADRAO                   TELESP      PN * EJ    TLPP4       010VISTA          000000000022000000000228000000002200000000000000000000223000034472300
0202LOTE PADRAO                   EMBRAER     ON EJ      EMBR3       010VISTA          000000000009100000000091000000000700000000000000000000075000000061200
0202LOTE PADRAO                   AMBEV       PN *       AMBV4       010VISTA          000000000448000000004600000000043990000000000000000004420000001233000
0202LOTE PADRAO                   USIMINAS    PNA        USIM5       010VISTA          000000000004300000000043000000000410000000000000000000041000000056800
0202LOTE PADRAO                   ELETROPAULO PN *       ELPL4       010VISTA          000000000068000000000690000000006550000000000000000000655000003095100
0202LOTE PADRAO                   TELE NORD CLPN *       TNEP4       010VISTA          000000000002300000000025400000000230000000000000000000024000066563300
0202LOTE PADRAO                   CEMIG       PN * EJ    CMIG4       010VISTA          000000000024800000000248000000002400000000000000000000241000021563100
0202LOTE PADRAO                   TELE CL SUL PN * EJ    TCSL4       010VISTA          000000000002800000000029000000000270000000000000000000029000099161000
0202LOTE PADRAO                   CEMIG       ON * EJ    CMIG3       010VISTA          000000000023250000000240000000002325000000000000000000236000001800000
0202LOTE PADRAO                   TELE CL SUL ON * EJ    TCSL3       010VISTA          000000000002300000000025000000000220000000000000000000025000030825800
0202LOTE PADRAO                   ITAUSA      PN         ITSA4       010VISTA          000000000001800000000018000000000174000000000000000000017400000306400
0202LOTE PADRAO                   SID TUBARAO PN *       CSTB4       010VISTA          000000000016600000000166000000001580000000000000000000160000009703900
0202LOTE PADRAO                   V C P       PN *       VCPA4       010VISTA          000000000060300000000630000000006030000000000000000000625000001060000
0202LOTE PADRAO                   BRADESPAR   PN *       BRAP4       010VISTA          000000000000500000000005200000000049000000000000000000005000136920000
0202LOTE PADRAO                   NET         PN         PLIM4       010VISTA          000000000000640000000006700000000062000000000000000000006400001500000
0202LOTE PADRAO                   TELE CTR OESPN * EJ    TCOC4       010VISTA          000000000003900000000040000000000390000000000000000000039000100403000
0202LOTE PADRAO                   GERDAU      PN * EJ    GGBR4       010VISTA          000000000014600000000146000000001390000000000000000000140000006233800
0202LOTE PADRAO                   BRASIL      ON *       BBAS3       010VISTA          000000000007700000000078000000000740000000000000000000077000006590300
