00BDIN9999BOVESPA 99992001061920010619
0101IBOVESPA                      0143750142450145410000000000000000002001061900000020010619014401000000
0202LOTE PADRAO                   EMBRATEL PARPN *       EBTP4       010VISTA          000000000019100000000193000000001860000000000000000000188000099714300
0202LOTE PADRAO                   EMBRATEL PARON *       EBTP3       010VISTA          000000000020900000000209000000001960000000000000000000201000031492100
0202LOTE PADRAO                   TRAN PAULISTPN * EJ    TRPL4       010VISTA          000000000006300000000063000000000590000000000000000000061000008083900
0202LOTE PADRAO                   TELEMAR     PN * EJ    TNLP4       010VISTA          000000000035700000000359000000003520000000000000000000357000180387000
0202LOTE PADRAO                   ITAUBANCO   PN * EJ    ITAU4       010VISTA          000000000187500000001880000000017850000000000000000001809000013628200
0202LOTE PADRAO                   TELEMAR     ON * EJ    TNLP3       010VISTA          000000000030500000000310000000002960000000000000000000308000044124300
0202LOTE PADRAO                   SID NACIONALON *       CSNA3       010VISTA          000000000043500000000445000000004300000000000000000000445000013369800
0202LOTE PADRAO                   TELE LEST CLPN *       TLCP4       010VISTA          000000000001900000000019000000000180000000000000000000018000081579300
0202LOTE PADRAO                   IPIRANGA PETPN *       PTIP4       010VISTA          000000000015500000000160000000001550000000000000000000155000002941000
0202LOTE PADRAO                   BRASIL T PARPN *       BRTP4       010VISTA          000000000018500000000188000000001790000000000000000000186000078935200
0202LOTE PADRAO                   BRASIL T PARON *       BRTP3       010VISTA          000000000018000000000181000000001750000000000000000000177000011941000
0202LOTE PADRAO                   ACESITA     PN *       ACES4       010VISTA          000000000000680000000006800000000065000000000000000000006700163492000
0202LOTE PADRAO                   PETROBRAS   PN         PETR4       010VISTA          000000000056300000000573000000005630000000000000000000571000000107800
0202LOTE PADRAO                   ELETROBRAS  PNB*       ELET6       010VISTA          000000000029000000000290000000002760000000000000000000280000072397600
0202LOTE PADRAO                   PETROBRAS   ON         PETR3       010VISTA          000000000064000000000647000000006400000000000000000000643000000011700
0202LOTE PADRAO                   COMGAS      PNA*       CGAS5       010VISTA          000000000147500000001490000000014490000000000000000001468000003405400
0202LOTE PADRAO                   SOUZA CRUZ  ON EJ      CRUZ3       010VISTA          000000000011800000000118000000001150000000000000000000116000000015800
0202LOTE PADRAO                   CELESC      PNB        CLSC6       010VISTA          000000000000450000000004600000000044000000000000000000004500000144800
0202LOTE PADRAO                   ELETROBRAS  ON *       ELET3       010VISTA          000000000030500000000318000000003050000000000000000000310000035989700
0202LOTE PADRAO                   BRADESCO    PN * EJ    BBDC4       010VISTA          000000000012000000000120000000001160000000000000000000118000213010000
0202LOTE PADRAO                   CESP        PN *       CESP4       010VISTA          000000000013800000000141000000001340000000000000000000140000018876600
0202LOTE PADRAO                   LIGHT       ON *       LIGH3       010VISTA          000000000132000000001330000000012800000000000000000001320000000590900
0202LOTE PADRAO                   TELESP CL PAPN *       TSPP4       010VISTA          000000000014300000000145000000001400000000000000000000141000097067400
0202LOTE PADRAO                   VALE R DOCE PNA        VALE5       010VISTA          000000000056500000000565000000005420000000000000000000550000000039600
0202LOTE PADRAO                   COPEL       PNB*       CPLE6       010VISTA          000000000016100000000162000000001590000000000000000000161000028811600
0202LOTE PADRAO                   VALE R DOCE ON         VALE3       010VISTA          000000000051500000000515000000005100000000000000000000510000000000400
0202LOTE PADRAO                   ARACRUZ     PNB        ARCZ6       010VISTA          000000000004300000000044000000000420000000000000000000043000000064100
0202LOTE PADRAO                   TELEMIG PARTPN *       TMCP4       010VISTA          000000000004700000000049000000000450000000000000000000046000179754000
0202LOTE PADRAO                   BRASIL TELECPN *       BRTO4       010VISTA          000000000013500000000138000000001300000000000000000000138000092460300
0202LOTE PADRAO                   SABESP      ON *       SBSP3       010VISTA          000000000168500000001685000000015710000000000000000001640000002224800
0202LOTE PADRAO                   BRASKEM     PNA*       BRKM5       010VISTA          000000000510000000005249000000050600000000000000000005180000000150600
0202LOTE PADRAO                   EMBRAER     PN EJ      EMBR4       010VISTA          000000000024100000000248000000002410000000000000000000246000000010900
0202LOTE PADRAO                   TELESP      PN * EJ    TLPP4       010VISTA          000000000027800000000278000000002710000000000000000000271000019484900
0202LOTE PADRAO                   EMBRAER     ON EJ      EMBR3       010VISTA          000000000019100000000194000000001880000000000000000000193000000015700
0202LOTE PADRAO                   AMBEV       PN *       AMBV4       010VISTA          000000000482000000004820000000047000000000000000000004769000003971000
0202LOTE PADRAO                   USIMINAS    PNA        USIM5       010VISTA          000000000006400000000064000000000600000000000000000000063000000039300
0202LOTE PADRAO                   ELETROPAULO PN *       ELPL4       010VISTA          000000000062900000000649000000005970000000000000000000640000007047500
0202LOTE PADRAO                   TELE NORD CLPN *       TNEP4       010VISTA          000000000004300000000044000000000380000000000000000000040000365423000
0202LOTE PADRAO                   CEMIG       PN * EJ    CMIG4       010VISTA          000000000024200000000243000000002360000000000000000000241000034457300
0202LOTE PADRAO                   TELE CL SUL PN * EJ    TCSL4       010VISTA          000000000005000000000050000000000490000000000000000000049000109033000
0202LOTE PADRAO                   CEMIG       ON * EJ    CMIG3       010VISTA          000000000023000000000231000000002280000000000000000000228000001059400
0202LOTE PADRAO                   TELE CL SUL ON * EJ    TCSL3       010VISTA          000000000004300000000043000000000400000000000000000000040000027376800
0202LOTE PADRAO                   ITAUSA      PN         ITSA4       010VISTA          000000000002000000000020000000000196000000000000000000019600000550200
0202LOTE PADRAO                   SID TUBARAO PN *       CSTB4       010VISTA          000000000023400000000234000000002250000000000000000000230000007992300
0202LOTE PADRAO                   V C P       PN *       VCPA4       010VISTA          000000000074400000000744000000007120000000000000000000715000003798600
0202LOTE PADRAO                   BRADESPAR   PN *       BRAP4       010VISTA          000000000000850000000008500000000082000000000000000000008400142569000
0202LOTE PADRAO                   NET         PN         PLIM4       010VISTA          000000000000850000000008600000000081000000000000000000008200001229500
0202LOTE PADRAO                   TELE CTR OESPN * EJ    TCOC4       010VISTA          000000000006300000000063000000000600000000000000000000060000130055000
0202LOTE PADRAO                   GERDAU      PN * EJ    GGBR4       010VISTA          000000000017000000000172500000001680000000000000000000171000022851900
0202LOTE PADRAO                   BRASIL      ON *       BBAS3       010VISTA          000000000008250000000084000000000800000000000000000000084000005875400
