00BDIN9999BOVESPA 99992001032620010326
0101IBOVESPA                      0144430144430149120000000000000000002001032600000020010326014712000000
0202LOTE PADRAO                   EMBRATEL PARPN *       EBTP4       010VISTA          000000000022800000000231000000002200000000000000000000223000130766000
0202LOTE PADRAO                   EMBRATEL PARON *       EBTP3       010VISTA          000000000019100000000196000000001900000000000000000000191000032114600
0202LOTE PADRAO                   TRAN PAULISTPN * EJ    TRPL4       010VISTA          000000000007500000000077000000000750000000000000000000075000008880800
0202LOTE PADRAO                   TELEMAR     PN * EJ    TNLP4       010VISTA          000000000037000000000385000000003680000000000000000000373000279718000
0202LOTE PADRAO                   ITAUBANCO   PN * EJ    ITAU4       010VISTA          000000000170000000001730000000016990000000000000000001725000004546500
0202LOTE PADRAO                   TELEMAR     ON * EJ    TNLP3       010VISTA          000000000028000000000301000000002800000000000000000000291000028606200
0202LOTE PADRAO                   SID NACIONALON *       CSNA3       010VISTA          000000000045000000000460000000004490000000000000000000457000004990400
0202LOTE PADRAO                   TELE LEST CLPN *       TLCP4       010VISTA          000000000001540000000015000000000150000000000000000000015300081393500
0202LOTE PADRAO                   CRT CELULAR PNA* EJ    CRTP5       010VISTA          000000000920000000009200000000089500000000000000000009000000000357000
0202LOTE PADRAO                   IPIRANGA PETPN *       PTIP4       010VISTA          000000000017000000000173000000001650000000000000000000165000001347200
0202LOTE PADRAO                   BRASIL T PARPN *       BRTP4       010VISTA          000000000018500000000190000000001850000000000000000000186000076369900
0202LOTE PADRAO                   BRASIL T PARON *       BRTP3       010VISTA          000000000016800000000173000000001680000000000000000000171000025943500
0202LOTE PADRAO                   ACESITA     PN *       ACES4       010VISTA          000000000001000000000010000000000099000000000000000000010000073696700
0202LOTE PADRAO                   PETROBRAS   PN         PETR4       010VISTA          000000000048000000000480000000004670000000000000000000475000000111700
0202LOTE PADRAO                   ELETROBRAS  PNB*       ELET6       010VISTA          000000000036600000000373000000003660000000000000000000371000052228500
0202LOTE PADRAO                   PETROBRAS   ON         PETR3       010VISTA          000000000050500000000525000000005050000000000000000000510000000034300
0202LOTE PADRAO                   COMGAS      PNA*       CGAS5       010VISTA          000000000170000000001750000000016860000000000000000001725000004163100
0202LOTE PADRAO                   SOUZA CRUZ  ON EJ      CRUZ3       010VISTA          000000000011200000000115000000001075000000000000000000110000000005300
0202LOTE PADRAO                   ELETROBRAS  ON *       ELET3       010VISTA          000000000039700000000415000000003970000000000000000000410000014522800
0202LOTE PADRAO                   CELESC      PNB        CLSC6       010VISTA          000000000000610000000006200000000057000000000000000000006000000118500
0202LOTE PADRAO                   BRADESCO    PN * EJ    BBDC4       010VISTA          000000000011500000000119000000001130000000000000000000116000235009000
0202LOTE PADRAO                   CESP        PN *       CESP4       010VISTA          000000000022500000000230000000002200000000000000000000224000006408100
0202LOTE PADRAO                   LIGHT       ON *       LIGH3       010VISTA          000000000203000000002110000000020300000000000000000002050000000415100
0202LOTE PADRAO                   TELESP CL PAPN *       TSPP4       010VISTA          000000000013700000000138000000001320000000000000000000137500146789000
0202LOTE PADRAO                   VALE R DOCE PNA        VALE5       010VISTA          000000000051400000000522000000005110000000000000000000518000000038900
0202LOTE PADRAO                   COPEL       PNB*       CPLE6       010VISTA          000000000018300000000188000000001800000000000000000000181000031863600
0202LOTE PADRAO                   VALE R DOCE ON         VALE3       010VISTA          000000000049000000000490000000004900000000000000000000490000000000900
0202LOTE PADRAO                   ARACRUZ     PNB        ARCZ6       010VISTA          000000000002700000000029000000000270000000000000000000027000000041800
0202LOTE PADRAO                   TELEMIG PARTPN *       TMCP4       010VISTA          000000000004250000000044000000000410000000000000000000043000262830000
0202LOTE PADRAO                   BRASIL TELECPN *       BRTO4       010VISTA          000000000013000000000134000000001300000000000000000000130000052489800
0202LOTE PADRAO                   SABESP      ON *       SBSP3       010VISTA          000000000196000000001985000000019300000000000000000001940000000608900
0202LOTE PADRAO                   BRASKEM     PNA*       BRKM5       010VISTA          000000000635000000006400000000063100000000000000000006310000000138100
0202LOTE PADRAO                   EMBRAER     PN EJ      EMBR4       010VISTA          000000000020800000000215000000002030000000000000000000203000000006300
0202LOTE PADRAO                   TELESP      PN * EJ    TLPP4       010VISTA          000000000029000000000290000000002800000000000000000000284000009471200
0202LOTE PADRAO                   EMBRAER     ON EJ      EMBR3       010VISTA          000000000015800000000160000000001560000000000000000000159000000074200
0202LOTE PADRAO                   AMBEV       PN *       AMBV4       010VISTA          000000000505000000005120000000050500000000000000000005100000000509200
0202LOTE PADRAO                   USIMINAS    PNA        USIM5       010VISTA          000000000009100000000091000000000890000000000000000000089000000065800
0202LOTE PADRAO                   ELETROPAULO PN *       ELPL4       010VISTA          000000000093900000000939000000008630000000000000000000867000001241800
0202LOTE PADRAO                   TELE NORD CLPN *       TNEP4       010VISTA          000000000002900000000030000000000280000000000000000000028000044831700
0202LOTE PADRAO                   CEMIG       PN * EJ    CMIG4       010VISTA          000000000028000000000285000000002760000000000000000000276000043092200
0202LOTE PADRAO                   TELE CL SUL PN * EJ    TCSL4       010VISTA          000000000003800000000039000000000370000000000000000000039000102286000
0202LOTE PADRAO                   CEMIG       ON * EJ    CMIG3       010VISTA          000000000025300000000253000000002350000000000000000000238000000313700
0202LOTE PADRAO                   TELE CL SUL ON * EJ    TCSL3       010VISTA          000000000002800000000029800000000280000000000000000000028000032632300
0202LOTE PADRAO                   ITAUSA      PN         ITSA4       010VISTA          000000000001770000000018100000000177000000000000000000018000000138800
0202LOTE PADRAO                   SID TUBARAO PN *       CSTB4       010VISTA          000000000020600000000212500000002060000000000000000000206000005336000
0202LOTE PADRAO                   V C P       PN *       VCPA4       010VISTA          000000000054900000000549000000005400000000000000000000548000000364400
0202LOTE PADRAO                   BRADESPAR   PN *       BRAP4       010VISTA          000000000001000000000010000000000100000000000000000000010000207770000
0202LOTE PADRAO                   NET         PN         PLIM4       010VISTA          000000000001540000000015600000000150000000000000000000015100000485300
0202LOTE PADRAO                   TELE CTR OESPN * EJ    TCOC4       010VISTA          000000000005900000000064000000000580000000000000000000059000107842000
0202LOTE PADRAO                   GERDAU      PN * EJ    GGBR4       010VISTA          000000000019400000000201000000001930000000000000000000196000017126500
0202LOTE PADRAO                   BRASIL      ON *       BBAS3       010VISTA          000000000007300000000075000000000710000000000000000000072000003725400
