00BDIN9999BOVESPA 99992001062920010629
0101IBOVESPA                      0144120143760146400000000000000000002001062900000020010629014560000000
0202LOTE PADRAO                   EMBRATEL PARPN *       EBTP4       010VISTA          000000000017500000000177500000001710000000000000000000176000062202600
0202LOTE PADRAO                   EMBRATEL PARON *       EBTP3       010VISTA          000000000017500000000181000000001725000000000000000000179000034642200
0202LOTE PADRAO                   TRAN PAULISTPN * EJ    TRPL4       010VISTA          000000000006500000000068000000000650000000000000000000067000016673000
0202LOTE PADRAO                   TELEMAR     PN * EJ    TNLP4       010VISTA          000000000035000000000356000000003420000000000000000000352500152832000
0202LOTE PADRAO                   ITAUBANCO   PN * EJ    ITAU4       010VISTA          000000000195000000002020000000019500000000000000000002020000009166200
0202LOTE PADRAO                   TELEMAR     ON * EJ    TNLP3       010VISTA          000000000030000000000306000000002910000000000000000000306000011660100
0202LOTE PADRAO                   SID NACIONALON *       CSNA3       010VISTA          000000000043000000000433000000004220000000000000000000429000007812900
0202LOTE PADRAO                   TELE LEST CLPN *       TLCP4       010VISTA          000000000001900000000019000000000180000000000000000000018000048777600
0202LOTE PADRAO                   CRT CELULAR PNA* EJ    CRTP5       010VISTA          000000000950000000009699000000095000000000000000000009550000000444600
0202LOTE PADRAO                   IPIRANGA PETPN *       PTIP4       010VISTA          000000000017600000000176000000001730000000000000000000176000001173000
0202LOTE PADRAO                   BRASIL T PARPN *       BRTP4       010VISTA          000000000018800000000193000000001880000000000000000000193000056511400
0202LOTE PADRAO                   BRASIL T PARON *       BRTP3       010VISTA          000000000018000000000189000000001780000000000000000000189000013546600
0202LOTE PADRAO                   ACESITA     PN *       ACES4       010VISTA          000000000000680000000007000000000068000000000000000000006800059073300
0202LOTE PADRAO                   PETROBRAS   PN         PETR4       010VISTA          000000000053400000000545000000005220000000000000000000539000000110200
0202LOTE PADRAO                   ELETROBRAS  PNB*       ELET6       010VISTA          000000000027300000000278000000002700000000000000000000271000050337400
0202LOTE PADRAO                   PETROBRAS   ON         PETR3       010VISTA          000000000059500000000605000000005900000000000000000000601000000035200
0202LOTE PADRAO                   COMGAS      PNA*       CGAS5       010VISTA          000000000144000000001469000000014400000000000000000001445000000820800
0202LOTE PADRAO                   SOUZA CRUZ  ON EJ      CRUZ3       010VISTA          000000000011900000000120000000001150000000000000000000115000000016100
0202LOTE PADRAO                   ELETROBRAS  ON *       ELET3       010VISTA          000000000030000000000301000000002950000000000000000000295000016061100
0202LOTE PADRAO                   CELESC      PNB        CLSC6       010VISTA          000000000000450000000004600000000045000000000000000000004500000113200
0202LOTE PADRAO                   BRADESCO    PN * EJ    BBDC4       010VISTA          000000000012000000000121000000001190000000000000000000120000097480500
0202LOTE PADRAO                   CESP        PN *       CESP4       010VISTA          000000000014700000000149000000001450000000000000000000145000019585400
0202LOTE PADRAO                   LIGHT       ON *       LIGH3       010VISTA          000000000142000000001420000000013800000000000000000001420000000075200
0202LOTE PADRAO                   TELESP CL PAPN *       TSPP4       010VISTA          000000000014100000000146000000001400000000000000000000140000095423400
0202LOTE PADRAO                   VALE R DOCE PNA        VALE5       010VISTA          000000000051200000000532000000005120000000000000000000524000000053500
0202LOTE PADRAO                   COPEL       PNB*       CPLE6       010VISTA          000000000017300000000176000000001710000000000000000000173000022479200
0202LOTE PADRAO                   VALE R DOCE ON         VALE3       010VISTA          000000000051000000000530000000005100000000000000000000530000000003600
0202LOTE PADRAO                   ARACRUZ     PNB        ARCZ6       010VISTA          000000000004000000000043000000000400000000000000000000042000000024500
0202LOTE PADRAO                   TELEMIG PARTPN *       TMCP4       010VISTA          000000000004800000000049000000000450000000000000000000047900060818400
0202LOTE PADRAO                   BRASIL TELECPN *       BRTO4       010VISTA          000000000013500000000138000000001340000000000000000000135000043499400
0202LOTE PADRAO                   SABESP      ON *       SBSP3       010VISTA          000000000167000000001680000000016600000000000000000001660000000597500
0202LOTE PADRAO                   BRASKEM     PNA*       BRKM5       010VISTA          000000000529900000005655000000052000000000000000000005655000000217100
0202LOTE PADRAO                   EMBRAER     PN EJ      EMBR4       010VISTA          000000000022500000000228000000002220000000000000000000226000000013100
0202LOTE PADRAO                   TELESP      PN * EJ    TLPP4       010VISTA          000000000026500000000268000000002580000000000000000000261000003981600
0202LOTE PADRAO                   EMBRAER     ON EJ      EMBR3       010VISTA          000000000017600000000182000000001730000000000000000000178000000009700
0202LOTE PADRAO                   AMBEV       PN *       AMBV4       010VISTA          000000000534900000005400000000052500000000000000000005400000001977800
0202LOTE PADRAO                   USIMINAS    PNA        USIM5       010VISTA          000000000006500000000066000000000640000000000000000000065400000023400
0202LOTE PADRAO                   ELETROPAULO PN *       ELPL4       010VISTA          000000000068500000000740000000006650000000000000000000724000007305800
0202LOTE PADRAO                   TELE NORD CLPN *       TNEP4       010VISTA          000000000003750000000038000000000370000000000000000000037500093928500
0202LOTE PADRAO                   CEMIG       PN * EJ    CMIG4       010VISTA          000000000027000000000278000000002700000000000000000000273000050258700
0202LOTE PADRAO                   TELE CL SUL PN * EJ    TCSL4       010VISTA          000000000004600000000047500000000450000000000000000000046000057410700
0202LOTE PADRAO                   CEMIG       ON * EJ    CMIG3       010VISTA          000000000026000000000263000000002600000000000000000000263000000782800
0202LOTE PADRAO                   TELE CL SUL ON * EJ    TCSL3       010VISTA          000000000003900000000039000000000380000000000000000000039000010079000
0202LOTE PADRAO                   ITAUSA      PN         ITSA4       010VISTA          000000000002000000000021000000000200000000000000000000020000000387700
0202LOTE PADRAO                   SID TUBARAO PN *       CSTB4       010VISTA          000000000021500000000224000000002130000000000000000000218000003290000
0202LOTE PADRAO                   V C P       PN *       VCPA4       010VISTA          000000000067000000000695000000006700000000000000000000690000001378200
0202LOTE PADRAO                   BRADESPAR   PN *       BRAP4       010VISTA          000000000000890000000009000000000087000000000000000000008700090705900
0202LOTE PADRAO                   NET         PN         PLIM4       010VISTA          000000000001100000000011000000000100000000000000000000010000001786900
0202LOTE PADRAO                   TELE CTR OESPN * EJ    TCOC4       010VISTA          000000000006700000000067000000000660000000000000000000067100049781900
0202LOTE PADRAO                   GERDAU      PN * EJ    GGBR4       010VISTA          000000000016800000000178000000001680000000000000000000178000012709400
0202LOTE PADRAO                   BRASIL      ON *       BBAS3       010VISTA          000000000010300000000104000000000950000000000000000000095000065050800
