00BDIN9999BOVESPA 99992001062220010622
0101IBOVESPA                      0148700146770151040000000000000000002001062200000020010622014682000000
0202LOTE PADRAO                   EMBRATEL PARPN *       EBTP4       010VISTA          000000000019200000000195000000001830000000000000000000184000169355000
0202LOTE PADRAO                   EMBRATEL PARON *       EBTP3       010VISTA          000000000020000000000201000000001860000000000000000000188000041987800
0202LOTE PADRAO                   TRAN PAULISTPN * EJ    TRPL4       010VISTA          000000000006700000000069000000000640000000000000000000067500009010000
0202LOTE PADRAO                   TELEMAR     PN * EJ    TNLP4       010VISTA          000000000037300000000381000000003660000000000000000000366000251851000
0202LOTE PADRAO                   ITAUBANCO   PN * EJ    ITAU4       010VISTA          000000000197000000001980000000019400000000000000000001965000012892400
0202LOTE PADRAO                   TELEMAR     ON * EJ    TNLP3       010VISTA          000000000032500000000330000000003060000000000000000000306000023312200
0202LOTE PADRAO                   SID NACIONALON *       CSNA3       010VISTA          000000000045300000000461000000004450000000000000000000445000014850300
0202LOTE PADRAO                   TELE LEST CLPN *       TLCP4       010VISTA          000000000001990000000020000000000190000000000000000000019000079682100
0202LOTE PADRAO                   CRT CELULAR PNA* EJ    CRTP5       010VISTA          000000000986000000009950000000097000000000000000000009710000000384200
0202LOTE PADRAO                   IPIRANGA PETPN *       PTIP4       010VISTA          000000000016600000000168000000001650000000000000000000165000001027900
0202LOTE PADRAO                   BRASIL T PARPN *       BRTP4       010VISTA          000000000019800000000203000000001910000000000000000000193000092293000
0202LOTE PADRAO                   BRASIL T PARON *       BRTP3       010VISTA          000000000019300000000195000000001860000000000000000000190000007539500
0202LOTE PADRAO                   ACESITA     PN *       ACES4       010VISTA          000000000000720000000007300000000070000000000000000000007200155321000
0202LOTE PADRAO                   PETROBRAS   PN         PETR4       010VISTA          000000000059000000000593000000005670000000000000000000572000000080200
0202LOTE PADRAO                   ELETROBRAS  PNB*       ELET6       010VISTA          000000000028750000000295000000002810000000000000000000281000043509300
0202LOTE PADRAO                   PETROBRAS   ON         PETR3       010VISTA          000000000066000000000660000000006340000000000000000000634000000026200
0202LOTE PADRAO                   COMGAS      PNA*       CGAS5       010VISTA          000000000148500000001540000000014600000000000000000001530000003401300
0202LOTE PADRAO                   SOUZA CRUZ  ON EJ      CRUZ3       010VISTA          000000000011600000000118000000001160000000000000000000118000000014000
0202LOTE PADRAO                   CELESC      PNB        CLSC6       010VISTA          000000000000490000000004900000000046000000000000000000004700000174400
0202LOTE PADRAO                   ELETROBRAS  ON *       ELET3       010VISTA          000000000031700000000322000000003060000000000000000000308000030052000
0202LOTE PADRAO                   BRADESCO    PN * EJ    BBDC4       010VISTA          000000000012100000000123000000001200000000000000000000121000155984000
0202LOTE PADRAO                   CESP        PN *       CESP4       010VISTA          000000000014600000000148000000001430000000000000000000147000016013200
0202LOTE PADRAO                   LIGHT       ON *       LIGH3       010VISTA          000000000140000000001450000000014000000000000000000001440000000340200
0202LOTE PADRAO                   TELESP CL PAPN *       TSPP4       010VISTA          000000000013900000000140000000001360000000000000000000138000099014900
0202LOTE PADRAO                   VALE R DOCE PNA        VALE5       010VISTA          000000000054700000000547000000005330000000000000000000544000000036800
0202LOTE PADRAO                   COPEL       PNB*       CPLE6       010VISTA          000000000016300000000170000000001630000000000000000000167000027050500
0202LOTE PADRAO                   VALE R DOCE ON         VALE3       010VISTA          000000000051000000000525000000005050000000000000000000524000000005000
0202LOTE PADRAO                   ARACRUZ     PNB        ARCZ6       010VISTA          000000000003810000000039400000000381000000000000000000038000000041100
0202LOTE PADRAO                   TELEMIG PARTPN *       TMCP4       010VISTA          000000000004800000000049000000000470000000000000000000048000111019000
0202LOTE PADRAO                   BRASIL TELECPN *       BRTO4       010VISTA          000000000014500000000145000000001400000000000000000000140000114595000
0202LOTE PADRAO                   SABESP      ON *       SBSP3       010VISTA          000000000172500000001790000000017000000000000000000001731000000896900
0202LOTE PADRAO                   BRASKEM     PNA*       BRKM5       010VISTA          000000000525000000005250000000050700000000000000000005160000000222100
0202LOTE PADRAO                   EMBRAER     PN EJ      EMBR4       010VISTA          000000000023600000000238000000002280000000000000000000228000000036900
0202LOTE PADRAO                   TELESP      PN * EJ    TLPP4       010VISTA          000000000027600000000278000000002730000000000000000000276000005737300
0202LOTE PADRAO                   EMBRAER     ON EJ      EMBR3       010VISTA          000000000019000000000190000000001800000000000000000000181000000034300
0202LOTE PADRAO                   AMBEV       PN *       AMBV4       010VISTA          000000000490000000004900000000047100000000000000000004726000004334600
0202LOTE PADRAO                   USIMINAS    PNA        USIM5       010VISTA          000000000006800000000069000000000670000000000000000000068000000067200
0202LOTE PADRAO                   ELETROPAULO PN *       ELPL4       010VISTA          000000000065200000000660000000006270000000000000000000630000007136500
0202LOTE PADRAO                   TELE NORD CLPN *       TNEP4       010VISTA          000000000004300000000043000000000400000000000000000000040000139204000
0202LOTE PADRAO                   CEMIG       PN * EJ    CMIG4       010VISTA          000000000026900000000272500000002630000000000000000000265000021768900
0202LOTE PADRAO                   TELE CL SUL PN * EJ    TCSL4       010VISTA          000000000005000000000052000000000490000000000000000000050000077838000
0202LOTE PADRAO                   CEMIG       ON * EJ    CMIG3       010VISTA          000000000025100000000256000000002450000000000000000000253000000737600
0202LOTE PADRAO                   TELE CL SUL ON * EJ    TCSL3       010VISTA          000000000004300000000043000000000410000000000000000000042000015398900
0202LOTE PADRAO                   ITAUSA      PN         ITSA4       010VISTA          000000000002000000000020000000000200000000000000000000020000000200400
0202LOTE PADRAO                   SID TUBARAO PN *       CSTB4       010VISTA          000000000023600000000236000000002250000000000000000000229000010456300
0202LOTE PADRAO                   V C P       PN *       VCPA4       010VISTA          000000000067000000000675000000006520000000000000000000652000004036800
0202LOTE PADRAO                   BRADESPAR   PN *       BRAP4       010VISTA          000000000000900000000009100000000085000000000000000000008500143119000
0202LOTE PADRAO                   NET         PN         PLIM4       010VISTA          000000000000910000000009600000000091000000000000000000009200001477100
0202LOTE PADRAO                   TELE CTR OESPN * EJ    TCOC4       010VISTA          000000000006400000000065000000000640000000000000000000065000159834000
0202LOTE PADRAO                   GERDAU      PN * EJ    GGBR4       010VISTA          000000000018100000000185000000001775000000000000000000180000013905100
