00BDIN9999BOVESPA 99992001032020010320
0101IBOVESPA                      0148540148540164290000000000000000002001032000000020010320014903000000
0202LOTE PADRAO                   EMBRATEL PARPN *       EBTP4       010VISTA          000000000025300000000256000000002410000000000000000000243000071851300
0202LOTE PADRAO                   EMBRATEL PARON *       EBTP3       010VISTA          000000000020000000000203000000001910000000000000000000191000057303500
0202LOTE PADRAO                   TRAN PAULISTPN * EJ    TRPL4       010VISTA          000000000008100000000081000000000780000000000000000000079000019212400
0202LOTE PADRAO                   TELEMAR     PN * EJ    TNLP4       010VISTA          000000000038500000000387000000003660000000000000000000366000264325000
0202LOTE PADRAO                   ITAUBANCO   PN * EJ    ITAU4       010VISTA          000000000160000000001680000000016000000000000000000001650000012237500
0202LOTE PADRAO                   TELEMAR     ON * EJ    TNLP3       010VISTA          000000000030300000000303000000002830000000000000000000285000021126400
0202LOTE PADRAO                   SID NACIONALON *       CSNA3       010VISTA          000000000045700000000470000000004560000000000000000000460000015354200
0202LOTE PADRAO                   TELE LEST CLPN *       TLCP4       010VISTA          000000000001600000000017400000000160000000000000000000017000096423200
0202LOTE PADRAO                   CRT CELULAR PNA* EJ    CRTP5       010VISTA          000000000915000000009350000000090700000000000000000009100000000423200
0202LOTE PADRAO                   IPIRANGA PETPN *       PTIP4       010VISTA          000000000015400000000159000000001500000000000000000000159000004715100
0202LOTE PADRAO                   BRASIL T PARPN *       BRTP4       010VISTA          000000000018500000000191000000001830000000000000000000183000090453500
0202LOTE PADRAO                   BRASIL T PARON *       BRTP3       010VISTA          000000000016800000000170000000001560000000000000000000165000015147400
0202LOTE PADRAO                   ACESITA     PN *       ACES4       010VISTA          000000000001000000000010000000000100000000000000000000010000131690000
0202LOTE PADRAO                   PETROBRAS   PN         PETR4       010VISTA          000000000051200000000515000000004960000000000000000000498000000206300
0202LOTE PADRAO                   ELETROBRAS  PNB*       ELET6       010VISTA          000000000037700000000385000000003770000000000000000000377000044229300
0202LOTE PADRAO                   PETROBRAS   ON         PETR3       010VISTA          000000000054000000000549000000005050000000000000000000541000000055300
0202LOTE PADRAO                   COMGAS      PNA*       CGAS5       010VISTA          000000000160000000001645000000015800000000000000000001590000002799500
0202LOTE PADRAO                   SOUZA CRUZ  ON EJ      CRUZ3       010VISTA          000000000010000000000110000000001000000000000000000000108000000011800
0202LOTE PADRAO                   ELETROBRAS  ON *       ELET3       010VISTA          000000000040000000000416000000004000000000000000000000401000009917700
0202LOTE PADRAO                   CELESC      PNB        CLSC6       010VISTA          000000000000590000000006300000000059000000000000000000006100000265200
0202LOTE PADRAO                   BRADESCO    PN * EJ    BBDC4       010VISTA          000000000010800000000110000000001080000000000000000000108000211613000
0202LOTE PADRAO                   CESP        PN *       CESP4       010VISTA          000000000024300000000245000000002380000000000000000000238000009590800
0202LOTE PADRAO                   LIGHT       ON *       LIGH3       010VISTA          000000000209000000002180000000020500000000000000000002100000000601600
0202LOTE PADRAO                   TELESP CL PAPN *       TSPP4       010VISTA          000000000015000000000153000000001450000000000000000000146000091308000
0202LOTE PADRAO                   VALE R DOCE PNA        VALE5       010VISTA          000000000049500000000522000000004950000000000000000000517500000063300
0202LOTE PADRAO                   COPEL       PNB*       CPLE6       010VISTA          000000000018000000000186000000001800000000000000000000180000058780200
0202LOTE PADRAO                   VALE R DOCE ON         VALE3       010VISTA          000000000047000000000490000000004700000000000000000000490000000002500
0202LOTE PADRAO                   ARACRUZ     PNB        ARCZ6       010VISTA          000000000002770000000028000000000270000000000000000000028000000106000
0202LOTE PADRAO                   TELEMIG PARTPN *       TMCP4       010VISTA          000000000005000000000051000000000480000000000000000000048000151389000
0202LOTE PADRAO                   BRASIL TELECPN *       BRTO4       010VISTA          000000000013000000000133000000001280000000000000000000128000078661000
0202LOTE PADRAO                   SABESP      ON *       SBSP3       010VISTA          000000000196000000002050000000019600000000000000000002010000001631300
0202LOTE PADRAO                   BRASKEM     PNA*       BRKM5       010VISTA          000000000630000000006500000000063000000000000000000006450000000108700
0202LOTE PADRAO                   EMBRAER     PN EJ      EMBR4       010VISTA          000000000020400000000208000000002000000000000000000000200000000031800
0202LOTE PADRAO                   TELESP      PN * EJ    TLPP4       010VISTA          000000000029500000000295000000002860000000000000000000291000004110000
0202LOTE PADRAO                   EMBRAER     ON EJ      EMBR3       010VISTA          000000000015600000000159000000001550000000000000000000158000000059900
0202LOTE PADRAO                   AMBEV       PN *       AMBV4       010VISTA          000000000510100000005200000000051010000000000000000005150000001000600
0202LOTE PADRAO                   USIMINAS    PNA        USIM5       010VISTA          000000000010000000000103000000000990000000000000000000099000000031600
0202LOTE PADRAO                   ELETROPAULO PN *       ELPL4       010VISTA          000000000097500000000980000000009500000000000000000000950000001761600
0202LOTE PADRAO                   TELE NORD CLPN *       TNEP4       010VISTA          000000000003100000000031000000000300000000000000000000030000038029300
0202LOTE PADRAO                   CEMIG       PN * EJ    CMIG4       010VISTA          000000000028400000000293000000002830000000000000000000290000031352100
0202LOTE PADRAO                   TELE CL SUL PN * EJ    TCSL4       010VISTA          000000000003800000000039400000000370000000000000000000037000183955000
0202LOTE PADRAO                   CEMIG       ON * EJ    CMIG3       010VISTA          000000000024500000000255000000002380000000000000000000250000000610600
0202LOTE PADRAO                   TELE CL SUL ON * EJ    TCSL3       010VISTA          000000000003000000000031000000000296000000000000000000029600045087900
0202LOTE PADRAO                   ITAUSA      PN         ITSA4       010VISTA          000000000001720000000017500000000169000000000000000000017100000647200
0202LOTE PADRAO                   SID TUBARAO PN *       CSTB4       010VISTA          000000000021800000000220000000002075000000000000000000219000004685000
0202LOTE PADRAO                   V C P       PN *       VCPA4       010VISTA          000000000053100000000570000000005310000000000000000000569000001649000
0202LOTE PADRAO                   BRADESPAR   PN *       BRAP4       010VISTA          000000000001000000000010000000000100000000000000000000010000347293000
0202LOTE PADRAO                   NET         PN         PLIM4       010VISTA          000000000001560000000016000000000151000000000000000000015000001388100
0202LOTE PADRAO                   TELE CTR OESPN * EJ    TCOC4       010VISTA          000000000006500000000067900000000650000000000000000000065000055428800
0202LOTE PADRAO                   GERDAU      PN * EJ    GGBR4       010VISTA          000000000019000000000197000000001820000000000000000000195000008697300
0202LOTE PADRAO                   BRASIL      ON *       BBAS3       010VISTA          000000000007250000000075000000000720000000000000000000073000003850400
