00BDIN9999BOVESPA 99992001071320010713
0101IBOVESPA                      0139070137370140870000000000000000002001071300000020010713014078000000
0202LOTE PADRAO                   EMBRATEL PARPN *       EBTP4       010VISTA          000000000014500000000148000000001410000000000000000000145000070740700
0202LOTE PADRAO                   EMBRATEL PARON *       EBTP3       010VISTA          000000000014600000000149000000001440000000000000000000148000033163500
0202LOTE PADRAO                   TRAN PAULISTPN * EJ    TRPL4       010VISTA          000000000006200000000062000000000600000000000000000000060000005590000
0202LOTE PADRAO                   TELEMAR     PN * EJ    TNLP4       010VISTA          000000000033500000000346000000003310000000000000000000345000147291000
0202LOTE PADRAO                   ITAUBANCO   PN * EJ    ITAU4       010VISTA          000000000192000000001959000000018850000000000000000001950000009306700
0202LOTE PADRAO                   TELEMAR     ON * EJ    TNLP3       010VISTA          000000000028500000000292000000002750000000000000000000281000013919400
0202LOTE PADRAO                   SID NACIONALON *       CSNA3       010VISTA          000000000038500000000390000000003820000000000000000000385000006520600
0202LOTE PADRAO                   TELE LEST CLPN *       TLCP4       010VISTA          000000000001600000000017400000000160000000000000000000016000143137000
0202LOTE PADRAO                   CRT CELULAR PNA* EJ    CRTP5       010VISTA          000000000870000000008700000000080000000000000000000008500000000993900
0202LOTE PADRAO                   IPIRANGA PETPN *       PTIP4       010VISTA          000000000016300000000165000000001610000000000000000000163000000380000
0202LOTE PADRAO                   BRASIL T PARPN *       BRTP4       010VISTA          000000000018300000000185000000001800000000000000000000183000041834900
0202LOTE PADRAO                   BRASIL T PARON *       BRTP3       010VISTA          000000000017000000000170000000001650000000000000000000169000017809300
0202LOTE PADRAO                   ACESITA     PN *       ACES4       010VISTA          000000000000650000000006500000000062000000000000000000006500115961000
0202LOTE PADRAO                   PETROBRAS   PN         PETR4       010VISTA          000000000053800000000544000000005300000000000000000000537000000043000
0202LOTE PADRAO                   ELETROBRAS  PNB*       ELET6       010VISTA          000000000027800000000288000000002700000000000000000000284000029580900
0202LOTE PADRAO                   PETROBRAS   ON         PETR3       010VISTA          000000000060500000000607000000005870000000000000000000595000000014900
0202LOTE PADRAO                   COMGAS      PNA*       CGAS5       010VISTA          000000000138600000001386000000013200000000000000000001330000001234000
0202LOTE PADRAO                   SOUZA CRUZ  ON EJ      CRUZ3       010VISTA          000000000011300000000113000000001110000000000000000000111000000014600
0202LOTE PADRAO                   ELETROBRAS  ON *       ELET3       010VISTA          000000000032000000000323000000003080000000000000000000320000012479400
0202LOTE PADRAO                   CELESC      PNB        CLSC6       010VISTA          000000000000430000000004400000000042000000000000000000004400000092700
0202LOTE PADRAO                   BRADESCO    PN * EJ    BBDC4       010VISTA          000000000011200000000120000000001120000000000000000000120000275457000
0202LOTE PADRAO                   CESP        PN *       CESP4       010VISTA          000000000013000000000131000000001270000000000000000000129000007797300
0202LOTE PADRAO                   LIGHT       ON *       LIGH3       010VISTA          000000000119900000001199000000011370000000000000000001170000000398400
0202LOTE PADRAO                   TELESP CL PAPN *       TSPP4       010VISTA          000000000013250000000136000000001290000000000000000000136000161159000
0202LOTE PADRAO                   VALE R DOCE PNA        VALE5       010VISTA          000000000052200000000525000000005120000000000000000000525000000029700
0202LOTE PADRAO                   COPEL       PNB*       CPLE6       010VISTA          000000000018100000000191000000001725000000000000000000188000021066800
0202LOTE PADRAO                   VALE R DOCE ON         VALE3       010VISTA          000000000052500000000525000000005100000000000000000000520000000000200
0202LOTE PADRAO                   ARACRUZ     PNB        ARCZ6       010VISTA          000000000004200000000043000000000420000000000000000000043000000072000
0202LOTE PADRAO                   TELEMIG PARTPN *       TMCP4       010VISTA          000000000004400000000045000000000430000000000000000000044000036238000
0202LOTE PADRAO                   BRASIL TELECPN *       BRTO4       010VISTA          000000000012500000000129000000001210000000000000000000127500056863100
0202LOTE PADRAO                   SABESP      ON *       SBSP3       010VISTA          000000000152000000001525000000014700000000000000000001500000001095200
0202LOTE PADRAO                   BRASKEM     PNA*       BRKM5       010VISTA          000000000590000000005900000000058000000000000000000005850000000218500
0202LOTE PADRAO                   EMBRAER     PN EJ      EMBR4       010VISTA          000000000022300000000223000000002180000000000000000000220000000007000
0202LOTE PADRAO                   TELESP      PN * EJ    TLPP4       010VISTA          000000000025000000000250000000002440000000000000000000245000007093900
0202LOTE PADRAO                   EMBRAER     ON EJ      EMBR3       010VISTA          000000000017300000000173000000001690000000000000000000173000000018000
0202LOTE PADRAO                   AMBEV       PN *       AMBV4       010VISTA          000000000511500000005220000000050950000000000000000005160000001429000
0202LOTE PADRAO                   USIMINAS    PNA        USIM5       010VISTA          000000000006100000000061000000000590000000000000000000060000000035600
0202LOTE PADRAO                   ELETROPAULO PN *       ELPL4       010VISTA          000000000062000000000649000000006200000000000000000000644000009580900
0202LOTE PADRAO                   TELE NORD CLPN *       TNEP4       010VISTA          000000000003790000000038100000000360000000000000000000037000063148600
0202LOTE PADRAO                   CEMIG       PN * EJ    CMIG4       010VISTA          000000000027500000000276000000002660000000000000000000268000056381500
0202LOTE PADRAO                   TELE CL SUL PN * EJ    TCSL4       010VISTA          000000000004200000000044000000000420000000000000000000044000026808800
0202LOTE PADRAO                   CEMIG       ON * EJ    CMIG3       010VISTA          000000000026500000000270000000002530000000000000000000261000004460000
0202LOTE PADRAO                   TELE CL SUL ON * EJ    TCSL3       010VISTA          000000000003600000000036000000000330000000000000000000034000025579900
0202LOTE PADRAO                   ITAUSA      PN         ITSA4       010VISTA          000000000002000000000020000000000200000000000000000000020000000202900
0202LOTE PADRAO                   SID TUBARAO PN *       CSTB4       010VISTA          000000000021100000000215000000002100000000000000000000215000006930500
0202LOTE PADRAO                   V C P       PN *       VCPA4       010VISTA          000000000061300000000630000000006130000000000000000000620000000745400
0202LOTE PADRAO                   BRADESPAR   PN *       BRAP4       010VISTA          000000000000840000000008500000000082000000000000000000008300121029000
0202LOTE PADRAO                   NET         PN         PLIM4       010VISTA          000000000001000000000011000000000100000000000000000000011000001515300
0202LOTE PADRAO                   TELE CTR OESPN * EJ    TCOC4       010VISTA          000000000006000000000061000000000590000000000000000000061000027251900
0202LOTE PADRAO                   GERDAU      PN * EJ    GGBR4       010VISTA          000000000016400000000167000000001590000000000000000000163000004142600
0202LOTE PADRAO                   BRASIL      ON *       BBAS3       010VISTA          000000000009500000000098000000000900000000000000000000092000002280700
