00BDIN9999BOVESPA 99992001102420011024
0101IBOVESPA                      0116110114300116660000000000000000002001102400000020011024011468000000
0202LOTE PADRAO                   EMBRATEL PARPN *       EBTP4       010VISTA          000000000007500000000077000000000750000000000000000000075000107821000
0202LOTE PADRAO                   EMBRATEL PARON *       EBTP3       010VISTA          000000000008100000000084000000000800000000000000000000083000026546300
0202LOTE PADRAO                   TRAN PAULISTPN * EJ    TRPL4       010VISTA          000000000005600000000057500000000540000000000000000000054000008825000
0202LOTE PADRAO                   TELEMAR     PN * EJ    TNLP4       010VISTA          000000000027300000000278000000002710000000000000000000271000261680000
0202LOTE PADRAO                   ITAUBANCO   PN * EJ    ITAU4       010VISTA          000000000179000000001790000000017550000000000000000001765000007541000
0202LOTE PADRAO                   TELEMAR     ON * EJ    TNLP3       010VISTA          000000000024600000000246000000002410000000000000000000245000031599000
0202LOTE PADRAO                   SID NACIONALON *       CSNA3       010VISTA          000000000027800000000281000000002760000000000000000000278000019980300
0202LOTE PADRAO                   TELE LEST CLPN *       TLCP4       010VISTA          000000000000750000000007500000000072000000000000000000007200147001000
0202LOTE PADRAO                   CRT CELULAR PNA* EJ    CRTP5       010VISTA          000000000355000000003611000000035250000000000000000003605000001681500
0202LOTE PADRAO                   IPIRANGA PETPN *       PTIP4       010VISTA          000000000011500000000117500000001150000000000000000000117500003090800
0202LOTE PADRAO                   BRASIL T PARPN *       BRTP4       010VISTA          000000000015900000000161000000001550000000000000000000156000066219300
0202LOTE PADRAO                   BRASIL T PARON *       BRTP3       010VISTA          000000000015000000000155000000001500000000000000000000154000010950200
0202LOTE PADRAO                   ACESITA     PN *       ACES4       010VISTA          000000000000490000000005000000000048000000000000000000005000221020000
0202LOTE PADRAO                   PETROBRAS   PN         PETR4       010VISTA          000000000053300000000537000000005260000000000000000000529000000085200
0202LOTE PADRAO                   ELETROBRAS  PNB*       ELET6       010VISTA          000000000032600000000326000000003080000000000000000000310000030179800
0202LOTE PADRAO                   PETROBRAS   ON         PETR3       010VISTA          000000000054500000000553000000005400000000000000000000550000000026300
0202LOTE PADRAO                   COMGAS      PNA*       CGAS5       010VISTA          000000000085200000000860000000008300000000000000000000832000001085600
0202LOTE PADRAO                   SOUZA CRUZ  ON EJ      CRUZ3       010VISTA          000000000013500000000135000000001300000000000000000000130000000009300
0202LOTE PADRAO                   ELETROBRAS  ON *       ELET3       010VISTA          000000000035000000000350000000003350000000000000000000345000007716000
0202LOTE PADRAO                   CELESC      PNB        CLSC6       010VISTA          000000000000460000000004800000000043000000000000000000004300000530900
0202LOTE PADRAO                   BRADESCO    PN * EJ    BBDC4       010VISTA          000000000011000000000110000000001075000000000000000000109000097375800
0202LOTE PADRAO                   CESP        PN *       CESP4       010VISTA          000000000011200000000129000000001075000000000000000000119000035651600
0202LOTE PADRAO                   LIGHT       ON *       LIGH3       010VISTA          000000000085900000000870000000008300000000000000000000830000000869600
0202LOTE PADRAO                   TELESP CL PAPN *       TSPP4       010VISTA          000000000005500000000059600000000540000000000000000000058000417444000
0202LOTE PADRAO                   VALE R DOCE PNA        VALE5       010VISTA          000000000055200000000557000000005470000000000000000000557000000031800
0202LOTE PADRAO                   COPEL       PNB*       CPLE6       010VISTA          000000000016100000000163000000001600000000000000000000161000030958100
0202LOTE PADRAO                   VALE R DOCE ON         VALE3       010VISTA          000000000052700000000527000000005210000000000000000000525000000001400
0202LOTE PADRAO                   ARACRUZ     PNB        ARCZ6       010VISTA          000000000004400000000045400000000430000000000000000000045400000073500
0202LOTE PADRAO                   TELEMIG PARTPN *       TMCP4       010VISTA          000000000003400000000035000000000330000000000000000000033000050966900
0202LOTE PADRAO                   BRASIL TELECPN *       BRTO4       010VISTA          000000000011000000000112000000001060000000000000000000107000084407700
0202LOTE PADRAO                   SABESP      ON *       SBSP3       010VISTA          000000000116000000001160000000011000000000000000000001100000000464800
0202LOTE PADRAO                   BRASKEM     PNA*       BRKM5       010VISTA          000000000414000000004140000000039000000000000000000003910000000068700
0202LOTE PADRAO                   EMBRAER     PN EJ      EMBR4       010VISTA          000000000011600000000118000000001150000000000000000000118000000038800
0202LOTE PADRAO                   TELESP      PN * EJ    TLPP4       010VISTA          000000000026000000000265000000002600000000000000000000261000008151800
0202LOTE PADRAO                   EMBRAER     ON EJ      EMBR3       010VISTA          000000000009900000000100000000000950000000000000000000095000000034200
0202LOTE PADRAO                   AMBEV       PN *       AMBV4       010VISTA          000000000430000000004389000000042800000000000000000004350000002506100
0202LOTE PADRAO                   USIMINAS    PNA        USIM5       010VISTA          000000000004000000000041000000000390000000000000000000040000000041600
0202LOTE PADRAO                   ELETROPAULO PN *       ELPL4       010VISTA          000000000063500000000635000000006220000000000000000000631000003414700
0202LOTE PADRAO                   TELE NORD CLPN *       TNEP4       010VISTA          000000000002600000000027000000000260000000000000000000026000085138600
0202LOTE PADRAO                   CEMIG       PN * EJ    CMIG4       010VISTA          000000000027250000000272500000002600000000000000000000266000020544200
0202LOTE PADRAO                   TELE CL SUL PN * EJ    TCSL4       010VISTA          000000000002900000000030000000000290000000000000000000029000088979500
0202LOTE PADRAO                   CEMIG       ON * EJ    CMIG3       010VISTA          000000000026000000000260000000002550000000000000000000255000000324200
0202LOTE PADRAO                   TELE CL SUL ON * EJ    TCSL3       010VISTA          000000000002500000000026000000000240000000000000000000025000017339900
0202LOTE PADRAO                   ITAUSA      PN         ITSA4       010VISTA          000000000001940000000019600000000190000000000000000000019000000243800
0202LOTE PADRAO                   SID TUBARAO PN *       CSTB4       010VISTA          000000000017000000000173000000001680000000000000000000170000006364000
0202LOTE PADRAO                   V C P       PN *       VCPA4       010VISTA          000000000074700000000784000000007470000000000000000000782000003513900
0202LOTE PADRAO                   BRADESPAR   PN *       BRAP4       010VISTA          000000000000620000000006300000000060000000000000000000006100178226000
0202LOTE PADRAO                   NET         PN         PLIM4       010VISTA          000000000000660000000007100000000066000000000000000000006700001608800
0202LOTE PADRAO                   TELE CTR OESPN * EJ    TCOC4       010VISTA          000000000005200000000052000000000475000000000000000000048000287631000
0202LOTE PADRAO                   GERDAU      PN * EJ    GGBR4       010VISTA          000000000018000000000182000000001750000000000000000000178000007965600
0202LOTE PADRAO                   BRASIL      ON *       BBAS3       010VISTA          000000000007400000000077500000000740000000000000000000075000005138900
