00BDIN9999BOVESPA 99992001051420010514
0101IBOVESPA                      0144990141040145070000000000000000002001051400000020010514014237000000
0202LOTE PADRAO                   EMBRATEL PARPN *       EBTP4       010VISTA          000000000019200000000192000000001840000000000000000000188000021844700
0202LOTE PADRAO                   EMBRATEL PARON *       EBTP3       010VISTA          000000000017800000000178000000001710000000000000000000174000007775400
0202LOTE PADRAO                   TRAN PAULISTPN * EJ    TRPL4       010VISTA          000000000006200000000062000000000570000000000000000000059000002892000
0202LOTE PADRAO                   TELEMAR     PN * EJ    TNLP4       010VISTA          000000000036000000000360000000003470000000000000000000357000071337800
0202LOTE PADRAO                   ITAUBANCO   PN * EJ    ITAU4       010VISTA          000000000174500000001745000000016950000000000000000001720000001647000
0202LOTE PADRAO                   TELEMAR     ON * EJ    TNLP3       010VISTA          000000000032200000000322000000003080000000000000000000308000001832000
0202LOTE PADRAO                   SID NACIONALON *       CSNA3       010VISTA          000000000046100000000472000000004600000000000000000000461000001944500
0202LOTE PADRAO                   TELE LEST CLPN *       TLCP4       010VISTA          000000000001600000000017000000000160000000000000000000016000015768000
0202LOTE PADRAO                   IPIRANGA PETPN *       PTIP4       010VISTA          000000000016000000000160000000001600000000000000000000160000000345000
0202LOTE PADRAO                   BRASIL T PARPN *       BRTP4       010VISTA          000000000018100000000183000000001790000000000000000000181000023200500
0202LOTE PADRAO                   BRASIL T PARON *       BRTP3       010VISTA          000000000017800000000180000000001780000000000000000000178000001938900
0202LOTE PADRAO                   ACESITA     PN *       ACES4       010VISTA          000000000000760000000007600000000071000000000000000000007100101242000
0202LOTE PADRAO                   PETROBRAS   PN         PETR4       010VISTA          000000000057000000000570000000005500000000000000000000558000000018700
0202LOTE PADRAO                   ELETROBRAS  PNB*       ELET6       010VISTA          000000000028750000000288000000002810000000000000000000282500010033100
0202LOTE PADRAO                   PETROBRAS   ON         PETR3       010VISTA          000000000060600000000612000000006000000000000000000000612000000012700
0202LOTE PADRAO                   COMGAS      PNA*       CGAS5       010VISTA          000000000130000000001309000000012400000000000000000001300000001231000
0202LOTE PADRAO                   SOUZA CRUZ  ON EJ      CRUZ3       010VISTA          000000000010500000000110000000001040000000000000000000107000000017000
0202LOTE PADRAO                   CELESC      PNB        CLSC6       010VISTA          000000000000470000000004800000000047000000000000000000004800000068700
0202LOTE PADRAO                   ELETROBRAS  ON *       ELET3       010VISTA          000000000032100000000322000000003210000000000000000000321000001750000
0202LOTE PADRAO                   BRADESCO    PN * EJ    BBDC4       010VISTA          000000000011500000000115000000001110000000000000000000111000024202700
0202LOTE PADRAO                   CESP        PN *       CESP4       010VISTA          000000000019800000000198000000001830000000000000000000186000003096700
0202LOTE PADRAO                   LIGHT       ON *       LIGH3       010VISTA          000000000148000000001490000000014500000000000000000001450000000041000
0202LOTE PADRAO                   TELESP CL PAPN *       TSPP4       010VISTA          000000000014100000000141000000001350000000000000000000139000030516400
0202LOTE PADRAO                   VALE R DOCE PNA        VALE5       010VISTA          000000000056200000000562000000005420000000000000000000543000000015500
0202LOTE PADRAO                   COPEL       PNB*       CPLE6       010VISTA          000000000015750000000163000000001575000000000000000000160000009510000
0202LOTE PADRAO                   VALE R DOCE ON         VALE3       010VISTA          000000000052000000000520000000005050000000000000000000505000000000100
0202LOTE PADRAO                   ARACRUZ     PNB        ARCZ6       010VISTA          000000000003800000000038000000000370000000000000000000037700000031600
0202LOTE PADRAO                   TELEMIG PARTPN *       TMCP4       010VISTA          000000000004200000000042000000000410000000000000000000042000016973500
0202LOTE PADRAO                   BRASIL TELECPN *       BRTO4       010VISTA          000000000012600000000127000000001240000000000000000000126000012098700
0202LOTE PADRAO                   SABESP      ON *       SBSP3       010VISTA          000000000165000000001650000000015200000000000000000001520000000264600
0202LOTE PADRAO                   BRASKEM     PNA*       BRKM5       010VISTA          000000000530000000005300000000052500000000000000000005250000000027500
0202LOTE PADRAO                   EMBRAER     PN EJ      EMBR4       010VISTA          000000000024500000000246000000002430000000000000000000245000000017800
0202LOTE PADRAO                   TELESP      PN * EJ    TLPP4       010VISTA          000000000027600000000286000000002760000000000000000000283000001097400
0202LOTE PADRAO                   EMBRAER     ON EJ      EMBR3       010VISTA          000000000019000000000190000000001880000000000000000000188000000012300
0202LOTE PADRAO                   AMBEV       PN *       AMBV4       010VISTA          000000000566000000005800000000056000000000000000000005660000000675400
0202LOTE PADRAO                   USIMINAS    PNA        USIM5       010VISTA          000000000007000000000070000000000650000000000000000000065000000023600
0202LOTE PADRAO                   ELETROPAULO PN *       ELPL4       010VISTA          000000000053800000000541000000005350000000000000000000537500004933100
0202LOTE PADRAO                   TELE NORD CLPN *       TNEP4       010VISTA          000000000003100000000031000000000294000000000000000000029400011326700
0202LOTE PADRAO                   CEMIG       PN * EJ    CMIG4       010VISTA          000000000023100000000235000000002300000000000000000000231000014560300
0202LOTE PADRAO                   TELE CL SUL PN * EJ    TCSL4       010VISTA          000000000004000000000040000000000398000000000000000000040000012117000
0202LOTE PADRAO                   CEMIG       ON * EJ    CMIG3       010VISTA          000000000023800000000240000000002380000000000000000000238000001030000
0202LOTE PADRAO                   TELE CL SUL ON * EJ    TCSL3       010VISTA          000000000003500000000035000000000340000000000000000000035000003992600
0202LOTE PADRAO                   ITAUSA      PN         ITSA4       010VISTA          000000000001900000000019000000000180000000000000000000018000000057400
0202LOTE PADRAO                   SID TUBARAO PN *       CSTB4       010VISTA          000000000023100000000231000000002280000000000000000000228000000994500
0202LOTE PADRAO                   V C P       PN *       VCPA4       010VISTA          000000000063000000000640000000006300000000000000000000635000000832300
0202LOTE PADRAO                   BRADESPAR   PN *       BRAP4       010VISTA          000000000000930000000009300000000090000000000000000000009300089711600
0202LOTE PADRAO                   NET         PN         PLIM4       010VISTA          000000000001100000000011000000000100000000000000000000010000000346300
0202LOTE PADRAO                   TELE CTR OESPN * EJ    TCOC4       010VISTA          000000000005800000000059000000000550000000000000000000058000015013200
0202LOTE PADRAO                   GERDAU      PN * EJ    GGBR4       010VISTA          000000000017500000000175000000001660000000000000000000170000003862000
0202LOTE PADRAO                   BRASIL      ON *       BBAS3       010VISTA          000000000008500000000085000000000810000000000000000000083000000453000
