00BDIN9999BOVESPA 99992001072720010727
0101IBOVESPA                      0138250137590139100000000000000000002001072700000020010727013910000000
0202LOTE PADRAO                   EMBRATEL PARPN *       EBTP4       010VISTA          000000000014000000000144000000001390000000000000000000140000047656500
0202LOTE PADRAO                   EMBRATEL PARON *       EBTP3       010VISTA          000000000014500000000150000000001450000000000000000000150000018694500
0202LOTE PADRAO                   TRAN PAULISTPN * EJ    TRPL4       010VISTA          000000000006700000000069000000000660000000000000000000067000008405600
0202LOTE PADRAO                   TELEMAR     PN * EJ    TNLP4       010VISTA          000000000032100000000321000000003150000000000000000000321000090158800
0202LOTE PADRAO                   ITAUBANCO   PN * EJ    ITAU4       010VISTA          000000000185000000001900000000018300000000000000000001900000004563900
0202LOTE PADRAO                   TELEMAR     ON * EJ    TNLP3       010VISTA          000000000027250000000278000000002700000000000000000000278000005927600
0202LOTE PADRAO                   SID NACIONALON *       CSNA3       010VISTA          000000000041000000000410000000004000000000000000000000400000005692400
0202LOTE PADRAO                   TELE LEST CLPN *       TLCP4       010VISTA          000000000001560000000016000000000156000000000000000000016000086280400
0202LOTE PADRAO                   CRT CELULAR PNA* EJ    CRTP5       010VISTA          000000000860000000009200000000086000000000000000000009099000001456900
0202LOTE PADRAO                   IPIRANGA PETPN *       PTIP4       010VISTA          000000000016000000000161000000001600000000000000000000160000063113400
0202LOTE PADRAO                   BRASIL T PARPN *       BRTP4       010VISTA          000000000018100000000181000000001780000000000000000000180000039240800
0202LOTE PADRAO                   BRASIL T PARON *       BRTP3       010VISTA          000000000017100000000171000000001660000000000000000000171000001793000
0202LOTE PADRAO                   ACESITA     PN *       ACES4       010VISTA          000000000000590000000006000000000058000000000000000000005900208510000
0202LOTE PADRAO                   PETROBRAS   PN         PETR4       010VISTA          000000000053900000000542000000005310000000000000000000535000000054900
0202LOTE PADRAO                   ELETROBRAS  PNB*       ELET6       010VISTA          000000000030900000000311000000003010000000000000000000310000039250200
0202LOTE PADRAO                   PETROBRAS   ON         PETR3       010VISTA          000000000059500000000595000000005800000000000000000000586000000012900
0202LOTE PADRAO                   COMGAS      PNA*       CGAS5       010VISTA          000000000134900000001349000000013200000000000000000001330000004075000
0202LOTE PADRAO                   SOUZA CRUZ  ON EJ      CRUZ3       010VISTA          000000000011250000000112500000001100000000000000000000112500000003900
0202LOTE PADRAO                   ELETROBRAS  ON *       ELET3       010VISTA          000000000035500000000357500000003420000000000000000000357000021836900
0202LOTE PADRAO                   CELESC      PNB        CLSC6       010VISTA          000000000000420000000004400000000042000000000000000000004400000048700
0202LOTE PADRAO                   BRADESCO    PN * EJ    BBDC4       010VISTA          000000000011400000000115000000001140000000000000000000115000071007700
0202LOTE PADRAO                   CESP        PN *       CESP4       010VISTA          000000000013200000000135000000001290000000000000000000135000014552100
0202LOTE PADRAO                   LIGHT       ON *       LIGH3       010VISTA          000000000112800000001160000000011190000000000000000001160000000144000
0202LOTE PADRAO                   TELESP CL PAPN *       TSPP4       010VISTA          000000000014000000000144000000001380000000000000000000138000088527600
0202LOTE PADRAO                   VALE R DOCE PNA        VALE5       010VISTA          000000000052200000000526000000005220000000000000000000525000000012700
0202LOTE PADRAO                   COPEL       PNB*       CPLE6       010VISTA          000000000017800000000179000000001760000000000000000000178000014010600
0202LOTE PADRAO                   VALE R DOCE ON         VALE3       010VISTA          000000000052500000000525000000005220000000000000000000522000000000000
0202LOTE PADRAO                   ARACRUZ     PNB        ARCZ6       010VISTA          000000000003900000000040000000000390000000000000000000039800000005900
0202LOTE PADRAO                   TELEMIG PARTPN *       TMCP4       010VISTA          000000000004700000000047000000000460000000000000000000047500038261700
0202LOTE PADRAO                   BRASIL TELECPN *       BRTO4       010VISTA          000000000012300000000123000000001200000000000000000000122500060291200
0202LOTE PADRAO                   SABESP      ON *       SBSP3       010VISTA          000000000162500000001645000000016100000000000000000001645000000629600
0202LOTE PADRAO                   BRASKEM     PNA*       BRKM5       010VISTA          000000000551700000005517000000053200000000000000000005400000000194000
0202LOTE PADRAO                   EMBRAER     PN EJ      EMBR4       010VISTA          000000000022100000000221000000002180000000000000000000218000000009500
0202LOTE PADRAO                   TELESP      PN * EJ    TLPP4       010VISTA          000000000025600000000258000000002460000000000000000000255000011850200
0202LOTE PADRAO                   EMBRAER     ON EJ      EMBR3       010VISTA          000000000017600000000176000000001730000000000000000000176000000004000
0202LOTE PADRAO                   AMBEV       PN *       AMBV4       010VISTA          000000000508900000005100000000050500000000000000000005090000000392200
0202LOTE PADRAO                   USIMINAS    PNA        USIM5       010VISTA          000000000006250000000064000000000610000000000000000000062500000031600
0202LOTE PADRAO                   ELETROPAULO PN *       ELPL4       010VISTA          000000000063000000000630000000006150000000000000000000624000002072700
0202LOTE PADRAO                   TELE NORD CLPN *       TNEP4       010VISTA          000000000003600000000037000000000350000000000000000000036000085140500
0202LOTE PADRAO                   CEMIG       PN * EJ    CMIG4       010VISTA          000000000027600000000278000000002710000000000000000000275000011793200
0202LOTE PADRAO                   TELE CL SUL PN * EJ    TCSL4       010VISTA          000000000004100000000042000000000400000000000000000000042000053410300
0202LOTE PADRAO                   CEMIG       ON * EJ    CMIG3       010VISTA          000000000026900000000269000000002600000000000000000000263000001260000
0202LOTE PADRAO                   TELE CL SUL ON * EJ    TCSL3       010VISTA          000000000003200000000035000000000310000000000000000000035000005089300
0202LOTE PADRAO                   ITAUSA      PN         ITSA4       010VISTA          000000000002000000000020000000000200000000000000000000020000000129900
0202LOTE PADRAO                   SID TUBARAO PN *       CSTB4       010VISTA          000000000020000000000203000000001980000000000000000000203000006545700
0202LOTE PADRAO                   V C P       PN *       VCPA4       010VISTA          000000000060300000000608000000005900000000000000000000608000002343000
0202LOTE PADRAO                   BRADESPAR   PN *       BRAP4       010VISTA          000000000000810000000008300000000080000000000000000000008300041478300
0202LOTE PADRAO                   NET         PN         PLIM4       010VISTA          000000000001000000000010000000000100000000000000000000010000000679000
0202LOTE PADRAO                   TELE CTR OESPN * EJ    TCOC4       010VISTA          000000000005900000000060000000000590000000000000000000060000016867900
0202LOTE PADRAO                   GERDAU      PN * EJ    GGBR4       010VISTA          000000000017000000000171000000001670000000000000000000167000002087600
0202LOTE PADRAO                   BRASIL      ON *       BBAS3       010VISTA          000000000008900000000091000000000880000000000000000000089000003264300
