00BDIN9999BOVESPA 99992001030220010302
0101IBOVESPA                      0164230162330167230000000000000000002001030200000020010302016581000000
0202LOTE PADRAO                   EMBRATEL PARPN *       EBTP4       010VISTA          000000000026500000000273000000002580000000000000000000266000062465200
0202LOTE PADRAO                   EMBRATEL PARON *       EBTP3       010VISTA          000000000020500000000218000000002050000000000000000000218000038601400
0202LOTE PADRAO                   TRAN PAULISTPN * EJ    TRPL4       010VISTA          000000000009000000000096000000000900000000000000000000092000012290100
0202LOTE PADRAO                   TELEMAR     PN * EJ    TNLP4       010VISTA          000000000045800000000460000000004470000000000000000000452000117459000
0202LOTE PADRAO                   ITAUBANCO   PN * EJ    ITAU4       010VISTA          000000000178000000001810000000017400000000000000000001809000011629400
0202LOTE PADRAO                   TELEMAR     ON * EJ    TNLP3       010VISTA          000000000034500000000352000000003450000000000000000000345000009539800
0202LOTE PADRAO                   SID NACIONALON *       CSNA3       010VISTA          000000000071500000000722000000007120000000000000000000720000001904500
0202LOTE PADRAO                   TELE LEST CLPN *       TLCP4       010VISTA          000000000001600000000017200000000160000000000000000000017000158938000
0202LOTE PADRAO                   CRT CELULAR PNA* EJ    CRTP5       010VISTA          000000000974000000009740000000092100000000000000000009480000003129900
0202LOTE PADRAO                   IPIRANGA PETPN *       PTIP4       010VISTA          000000000014500000000150000000001450000000000000000000148000003860000
0202LOTE PADRAO                   BRASIL T PARPN *       BRTP4       010VISTA          000000000021750000000225000000002130000000000000000000223000095746300
0202LOTE PADRAO                   BRASIL T PARON *       BRTP3       010VISTA          000000000018600000000199000000001860000000000000000000193000005278900
0202LOTE PADRAO                   ACESITA     PN *       ACES4       010VISTA          000000000001000000000011000000000100000000000000000000011000105858000
0202LOTE PADRAO                   PETROBRAS   PN         PETR4       010VISTA          000000000055600000000570000000005520000000000000000000565000000067800
0202LOTE PADRAO                   ELETROBRAS  PNB*       ELET6       010VISTA          000000000038900000000399000000003720000000000000000000396000046331900
0202LOTE PADRAO                   PETROBRAS   ON         PETR3       010VISTA          000000000057900000000587000000005730000000000000000000585000000029800
0202LOTE PADRAO                   COMGAS      PNA*       CGAS5       010VISTA          000000000159000000001594000000015250000000000000000001590000000879000
0202LOTE PADRAO                   SOUZA CRUZ  ON EJ      CRUZ3       010VISTA          000000000012300000000126000000001230000000000000000000126000000008600
0202LOTE PADRAO                   ELETROBRAS  ON *       ELET3       010VISTA          000000000040100000000421000000003900000000000000000000415000015798500
0202LOTE PADRAO                   CELESC      PNB        CLSC6       010VISTA          000000000000670000000006700000000064000000000000000000006700000283300
0202LOTE PADRAO                   BRADESCO    PN * EJ    BBDC4       010VISTA          000000000011500000000119000000001130000000000000000000118000268394000
0202LOTE PADRAO                   CESP        PN *       CESP4       010VISTA          000000000024000000000260000000002380000000000000000000250000017909000
0202LOTE PADRAO                   LIGHT       ON *       LIGH3       010VISTA          000000000224000000002330000000022390000000000000000002330000000079300
0202LOTE PADRAO                   TELESP CL PAPN *       TSPP4       010VISTA          000000000018500000000192000000001830000000000000000000188000101090000
0202LOTE PADRAO                   VALE R DOCE PNA        VALE5       010VISTA          000000000052200000000530000000005170000000000000000000523000000028500
0202LOTE PADRAO                   COPEL       PNB*       CPLE6       010VISTA          000000000019100000000192000000001910000000000000000000191000011373100
0202LOTE PADRAO                   VALE R DOCE ON         VALE3       010VISTA          000000000050000000000503000000005000000000000000000000502000000000700
0202LOTE PADRAO                   ARACRUZ     PNB        ARCZ6       010VISTA          000000000002800000000028000000000281000000000000000000028100000081000
0202LOTE PADRAO                   TELEMIG PARTPN *       TMCP4       010VISTA          000000000006100000000064000000000600000000000000000000060000107875000
0202LOTE PADRAO                   BRASIL TELECPN *       BRTO4       010VISTA          000000000015000000000159000000001490000000000000000000158000029508200
0202LOTE PADRAO                   SABESP      ON *       SBSP3       010VISTA          000000000241500000002415000000022600000000000000000002260000002129700
0202LOTE PADRAO                   BRASKEM     PNA*       BRKM5       010VISTA          000000000645000000007000000000064500000000000000000006800000000061400
0202LOTE PADRAO                   EMBRAER     PN EJ      EMBR4       010VISTA          000000000019500000000195000000001910000000000000000000193000000008900
0202LOTE PADRAO                   TELESP      PN * EJ    TLPP4       010VISTA          000000000031300000000313000000003080000000000000000000311000007908500
0202LOTE PADRAO                   EMBRAER     ON EJ      EMBR3       010VISTA          000000000015900000000159000000001550000000000000000000158000000008700
0202LOTE PADRAO                   AMBEV       PN *       AMBV4       010VISTA          000000000514900000005150000000050800000000000000000005140000003410900
0202LOTE PADRAO                   USIMINAS    PNA        USIM5       010VISTA          000000000010800000000111000000001080000000000000000000108000000022400
0202LOTE PADRAO                   ELETROPAULO PN *       ELPL4       010VISTA          000000000110900000001110000000010800000000000000000001080000000531800
0202LOTE PADRAO                   TELE NORD CLPN *       TNEP4       010VISTA          000000000003400000000036000000000320000000000000000000035600051116300
0202LOTE PADRAO                   CEMIG       PN * EJ    CMIG4       010VISTA          000000000031300000000316000000003080000000000000000000315000041422500
0202LOTE PADRAO                   TELE CL SUL PN * EJ    TCSL4       010VISTA          000000000004200000000045000000000420000000000000000000045000113625000
0202LOTE PADRAO                   CEMIG       ON * EJ    CMIG3       010VISTA          000000000027000000000274000000002680000000000000000000274000000896100
0202LOTE PADRAO                   TELE CL SUL ON * EJ    TCSL3       010VISTA          000000000003400000000036000000000325000000000000000000036000049359700
0202LOTE PADRAO                   ITAUSA      PN         ITSA4       010VISTA          000000000001800000000019600000000180000000000000000000019500000225600
0202LOTE PADRAO                   SID TUBARAO PN *       CSTB4       010VISTA          000000000022000000000229000000002160000000000000000000219000004861600
0202LOTE PADRAO                   V C P       PN *       VCPA4       010VISTA          000000000055400000000570000000005540000000000000000000565000002220100
0202LOTE PADRAO                   BRADESPAR   PN *       BRAP4       010VISTA          000000000001000000000011000000000100000000000000000000011000196676000
0202LOTE PADRAO                   NET         PN         PLIM4       010VISTA          000000000001790000000018000000000178000000000000000000018000001133800
0202LOTE PADRAO                   TELE CTR OESPN * EJ    TCOC4       010VISTA          000000000007500000000078000000000720000000000000000000077000031046600
0202LOTE PADRAO                   GERDAU      PN * EJ    GGBR4       010VISTA          000000000019700000000197000000001910000000000000000000193000008596500
0202LOTE PADRAO                   BRASIL      ON *       BBAS3       010VISTA          000000000007600000000082000000000760000000000000000000080000006614900
