00BDIN9999BOVESPA 99992001111320011113
0101IBOVESPA                      0125910125910130940000000000000000002001111300000020011113012918000000
0202LOTE PADRAO                   EMBRATEL PARPN *       EBTP4       010VISTA          000000000009600000000101000000000960000000000000000000099000171677000
0202LOTE PADRAO                   EMBRATEL PARON *       EBTP3       010VISTA          000000000010300000000110000000001030000000000000000000104000060389800
0202LOTE PADRAO                   TRAN PAULISTPN * EJ    TRPL4       010VISTA          000000000005600000000060000000000550000000000000000000056000029469900
0202LOTE PADRAO                   TELEMAR     PN * EJ    TNLP4       010VISTA          000000000033600000000344000000003330000000000000000000334000336483000
0202LOTE PADRAO                   ITAUBANCO   PN * EJ    ITAU4       010VISTA          000000000184800000001848000000018100000000000000000001810000008155900
0202LOTE PADRAO                   TELEMAR     ON * EJ    TNLP3       010VISTA          000000000029600000000303000000002930000000000000000000293000024528700
0202LOTE PADRAO                   SID NACIONALON *       CSNA3       010VISTA          000000000033500000000337000000003300000000000000000000333000016374900
0202LOTE PADRAO                   TELE LEST CLPN *       TLCP4       010VISTA          000000000000830000000008700000000083000000000000000000008400282458000
0202LOTE PADRAO                   CRT CELULAR PNA* EJ    CRTP5       010VISTA          000000000455000000004550000000044790000000000000000004520000000897800
0202LOTE PADRAO                   IPIRANGA PETPN *       PTIP4       010VISTA          000000000014000000000146000000001400000000000000000000141000002807000
0202LOTE PADRAO                   BRASIL T PARPN *       BRTP4       010VISTA          000000000019000000000195000000001890000000000000000000192000119444000
0202LOTE PADRAO                   BRASIL T PARON *       BRTP3       010VISTA          000000000018100000000190000000001810000000000000000000181000009782400
0202LOTE PADRAO                   ACESITA     PN *       ACES4       010VISTA          000000000000580000000006000000000058000000000000000000005900150555000
0202LOTE PADRAO                   PETROBRAS   PN         PETR4       010VISTA          000000000052100000000526000000005070000000000000000000516000000219200
0202LOTE PADRAO                   ELETROBRAS  PNB*       ELET6       010VISTA          000000000033400000000342500000003320000000000000000000339000043141500
0202LOTE PADRAO                   PETROBRAS   ON         PETR3       010VISTA          000000000054100000000547000000005270000000000000000000540000000056800
0202LOTE PADRAO                   COMGAS      PNA*       CGAS5       010VISTA          000000000089900000000900000000008600000000000000000000870000002440100
0202LOTE PADRAO                   SOUZA CRUZ  ON EJ      CRUZ3       010VISTA          000000000012400000000126000000001240000000000000000000126000000025100
0202LOTE PADRAO                   ELETROBRAS  ON *       ELET3       010VISTA          000000000035000000000360000000003500000000000000000000357500016947100
0202LOTE PADRAO                   CELESC      PNB        CLSC6       010VISTA          000000000000480000000004900000000048000000000000000000004800000316300
0202LOTE PADRAO                   BRADESCO    PN * EJ    BBDC4       010VISTA          000000000011700000000120000000001170000000000000000000119000125599000
0202LOTE PADRAO                   CESP        PN *       CESP4       010VISTA          000000000012500000000130000000001230000000000000000000125000007949300
0202LOTE PADRAO                   LIGHT       ON *       LIGH3       010VISTA          000000000090500000000929000000009000000000000000000000910000002052000
0202LOTE PADRAO                   TELESP CL PAPN *       TSPP4       010VISTA          000000000006700000000070000000000670000000000000000000070000442506000
0202LOTE PADRAO                   VALE R DOCE PNA        VALE5       010VISTA          000000000054500000000547000000005310000000000000000000532000000029300
0202LOTE PADRAO                   COPEL       PNB*       CPLE6       010VISTA          000000000015300000000157500000001530000000000000000000155000052440800
0202LOTE PADRAO                   VALE R DOCE ON         VALE3       010VISTA          000000000051500000000520000000005140000000000000000000516000000000300
0202LOTE PADRAO                   ARACRUZ     PNB        ARCZ6       010VISTA          000000000004600000000047000000000440000000000000000000044000000015800
0202LOTE PADRAO                   TELEMIG PARTPN *       TMCP4       010VISTA          000000000004100000000043000000000410000000000000000000042000086605800
0202LOTE PADRAO                   BRASIL TELECPN *       BRTO4       010VISTA          000000000013400000000140000000001330000000000000000000138000227814000
0202LOTE PADRAO                   SABESP      ON *       SBSP3       010VISTA          000000000121000000001240000000011970000000000000000001197000001363000
0202LOTE PADRAO                   BRASKEM     PNA*       BRKM5       010VISTA          000000000405000000004149000000039500000000000000000003950000000205200
0202LOTE PADRAO                   EMBRAER     PN EJ      EMBR4       010VISTA          000000000010600000000109000000001050000000000000000000108000000036900
0202LOTE PADRAO                   TELESP      PN * EJ    TLPP4       010VISTA          000000000028500000000295000000002850000000000000000000286000024811100
0202LOTE PADRAO                   EMBRAER     ON EJ      EMBR3       010VISTA          000000000009100000000094000000000910000000000000000000093000000061800
0202LOTE PADRAO                   AMBEV       PN *       AMBV4       010VISTA          000000000484000000004950000000048300000000000000000004848000002715800
0202LOTE PADRAO                   USIMINAS    PNA        USIM5       010VISTA          000000000004800000000049000000000470000000000000000000049000000069700
0202LOTE PADRAO                   ELETROPAULO PN *       ELPL4       010VISTA          000000000072000000000745000000007200000000000000000000740000007305800
0202LOTE PADRAO                   TELE NORD CLPN *       TNEP4       010VISTA          000000000003250000000033000000000320000000000000000000032000089435600
0202LOTE PADRAO                   CEMIG       PN * EJ    CMIG4       010VISTA          000000000028800000000296000000002880000000000000000000296000043274600
0202LOTE PADRAO                   TELE CL SUL PN * EJ    TCSL4       010VISTA          000000000003400000000036000000000340000000000000000000035000088612600
0202LOTE PADRAO                   CEMIG       ON * EJ    CMIG3       010VISTA          000000000026300000000284000000002630000000000000000000275000005816200
0202LOTE PADRAO                   TELE CL SUL ON * EJ    TCSL3       010VISTA          000000000002940000000030000000000290000000000000000000029000029510200
0202LOTE PADRAO                   ITAUSA      PN         ITSA4       010VISTA          000000000002000000000020000000000195000000000000000000019500000443300
0202LOTE PADRAO                   V C P       PN *       VCPA4       010VISTA          000000000079000000000820000000007900000000000000000000820000004315700
0202LOTE PADRAO                   SID TUBARAO PN *       CSTB4       010VISTA          000000000017900000000180000000001730000000000000000000173000006358100
0202LOTE PADRAO                   BRADESPAR   PN *       BRAP4       010VISTA          000000000000720000000007600000000072000000000000000000007500188970000
0202LOTE PADRAO                   NET         PN         PLIM4       010VISTA          000000000000780000000008200000000077000000000000000000008000000890500
0202LOTE PADRAO                   TELE CTR OESPN * EJ    TCOC4       010VISTA          000000000005300000000056000000000530000000000000000000055000107530000
0202LOTE PADRAO                   TELEMAR N L PNA* EJ    TMAR5       010VISTA          000000000052000000000527000000005110000000000000000000515000079956800
0202LOTE PADRAO                   GERDAU      PN * EJ    GGBR4       010VISTA          000000000019800000000208000000001980000000000000000000207000017143400
0202LOTE PADRAO                   BRASIL      ON *       BBAS3       010VISTA          000000000008500000000086000000000840000000000000000000084000006507400
