00BDIN9999BOVESPA 99992001021520010215
0101IBOVESPA                      0171210169220172620000000000000000002001021500000020010215016937000000
0202LOTE PADRAO                   EMBRATEL PARPN *       EBTP4       010VISTA          000000000027900000000281000000002660000000000000000000266000080470600
0202LOTE PADRAO                   EMBRATEL PARON *       EBTP3       010VISTA          000000000023300000000236000000002260000000000000000000226000011545100
0202LOTE PADRAO                   TRAN PAULISTPN * EJ    TRPL4       010VISTA          000000000009700000000099000000000950000000000000000000095000017760400
0202LOTE PADRAO                   TELEMAR     PN * EJ    TNLP4       010VISTA          000000000046700000000478000000004640000000000000000000467000135883000
0202LOTE PADRAO                   ITAUBANCO   PN * EJ    ITAU4       010VISTA          000000000186000000001870000000018550000000000000000001855000002858200
0202LOTE PADRAO                   TELEMAR     ON * EJ    TNLP3       010VISTA          000000000037500000000382000000003670000000000000000000370000008794900
0202LOTE PADRAO                   SID NACIONALON *       CSNA3       010VISTA          000000000067300000000680000000006700000000000000000000675000012067300
0202LOTE PADRAO                   TELE LEST CLPN *       TLCP4       010VISTA          000000000001600000000016000000000153000000000000000000015400046991000
0202LOTE PADRAO                   IPIRANGA PETPN *       PTIP4       010VISTA          000000000016600000000166000000001630000000000000000000163000000917000
0202LOTE PADRAO                   BRASIL T PARPN *       BRTP4       010VISTA          000000000021800000000227500000002150000000000000000000215000139247000
0202LOTE PADRAO                   BRASIL T PARON *       BRTP3       010VISTA          000000000019800000000213000000001980000000000000000000200000012182700
0202LOTE PADRAO                   ACESITA     PN *       ACES4       010VISTA          000000000001100000000011000000000110000000000000000000011000067982500
0202LOTE PADRAO                   PETROBRAS   PN         PETR4       010VISTA          000000000057000000000587000000005700000000000000000000579000000117400
0202LOTE PADRAO                   ELETROBRAS  PNB*       ELET6       010VISTA          000000000041600000000420000000004120000000000000000000415000032156600
0202LOTE PADRAO                   PETROBRAS   ON         PETR3       010VISTA          000000000059100000000597000000005870000000000000000000588000000031600
0202LOTE PADRAO                   COMGAS      PNA*       CGAS5       010VISTA          000000000154900000001600000000015050000000000000000001588000004821000
0202LOTE PADRAO                   SOUZA CRUZ  ON EJ      CRUZ3       010VISTA          000000000011800000000118000000001150000000000000000000116000000011700
0202LOTE PADRAO                   CELESC      PNB        CLSC6       010VISTA          000000000000680000000006900000000067000000000000000000006700000157700
0202LOTE PADRAO                   ELETROBRAS  ON *       ELET3       010VISTA          000000000043900000000442500000004310000000000000000000435000030031500
0202LOTE PADRAO                   BRADESCO    PN * EJ    BBDC4       010VISTA          000000000012300000000125000000001230000000000000000000123000080361600
0202LOTE PADRAO                   CESP        PN *       CESP4       010VISTA          000000000026300000000263000000002540000000000000000000254000010175100
0202LOTE PADRAO                   LIGHT       ON *       LIGH3       010VISTA          000000000250100000002510000000024500000000000000000002460000000569700
0202LOTE PADRAO                   TELESP CL PAPN *       TSPP4       010VISTA          000000000020000000000208000000001980000000000000000000205000154344000
0202LOTE PADRAO                   VALE R DOCE PNA        VALE5       010VISTA          000000000050200000000503000000004970000000000000000000497000000024600
0202LOTE PADRAO                   COPEL       PNB*       CPLE6       010VISTA          000000000020500000000208000000001960000000000000000000198000022345600
0202LOTE PADRAO                   VALE R DOCE ON         VALE3       010VISTA          000000000049000000000490000000004850000000000000000000485000000000100
0202LOTE PADRAO                   ARACRUZ     PNB        ARCZ6       010VISTA          000000000002800000000028000000000277000000000000000000027900000074600
0202LOTE PADRAO                   TELEMIG PARTPN *       TMCP4       010VISTA          000000000006200000000065000000000610000000000000000000061000056175200
0202LOTE PADRAO                   BRASIL TELECPN *       BRTO4       010VISTA          000000000015600000000159000000001525000000000000000000153000113180000
0202LOTE PADRAO                   SABESP      ON *       SBSP3       010VISTA          000000000219000000002200000000021550000000000000000002170000000656900
0202LOTE PADRAO                   BRASKEM     PNA*       BRKM5       010VISTA          000000000660000000006729000000065500000000000000000006590000000154100
0202LOTE PADRAO                   EMBRAER     PN EJ      EMBR4       010VISTA          000000000018800000000188000000001860000000000000000000186000000011100
0202LOTE PADRAO                   TELESP      PN * EJ    TLPP4       010VISTA          000000000030500000000305000000003000000000000000000000301000004953500
0202LOTE PADRAO                   EMBRAER     ON EJ      EMBR3       010VISTA          000000000016100000000163000000001580000000000000000000159000000016900
0202LOTE PADRAO                   AMBEV       PN *       AMBV4       010VISTA          000000000505000000005100000000049600000000000000000004960000002410900
0202LOTE PADRAO                   USIMINAS    PNA        USIM5       010VISTA          000000000011300000000115000000001130000000000000000000114000000022000
0202LOTE PADRAO                   ELETROPAULO PN *       ELPL4       010VISTA          000000000112900000001130000000011250000000000000000001125000002030200
0202LOTE PADRAO                   TELE NORD CLPN *       TNEP4       010VISTA          000000000003800000000038000000000370000000000000000000037000046453300
0202LOTE PADRAO                   CEMIG       PN * EJ    CMIG4       010VISTA          000000000034500000000350000000003375000000000000000000337000033407500
0202LOTE PADRAO                   TELE CL SUL PN * EJ    TCSL4       010VISTA          000000000004900000000050000000000470000000000000000000048000029849700
0202LOTE PADRAO                   CEMIG       ON * EJ    CMIG3       010VISTA          000000000030800000000308000000003010000000000000000000301000001390500
0202LOTE PADRAO                   TELE CL SUL ON * EJ    TCSL3       010VISTA          000000000004000000000041000000000380000000000000000000039000014122400
0202LOTE PADRAO                   ITAUSA      PN         ITSA4       010VISTA          000000000002000000000020000000000200000000000000000000020000000348100
0202LOTE PADRAO                   SID TUBARAO PN *       CSTB4       010VISTA          000000000024100000000243000000002350000000000000000000235000004026300
0202LOTE PADRAO                   V C P       PN *       VCPA4       010VISTA          000000000058000000000585000000005650000000000000000000580000003996000
0202LOTE PADRAO                   BRADESPAR   PN *       BRAP4       010VISTA          000000000001100000000011000000000110000000000000000000011000156652000
0202LOTE PADRAO                   NET         PN         PLIM4       010VISTA          000000000002000000000020000000000198000000000000000000019800000543600
0202LOTE PADRAO                   TELE CTR OESPN * EJ    TCOC4       010VISTA          000000000007900000000079000000000750000000000000000000077000022452200
0202LOTE PADRAO                   GERDAU      PN * EJ    GGBR4       010VISTA          000000000020500000000209000000002030000000000000000000208000014516300
0202LOTE PADRAO                   BRASIL      ON *       BBAS3       010VISTA          000000000007900000000079000000000720000000000000000000075000002608900
