00BDIN9999BOVESPA 99992001040520010405
0101IBOVESPA                      0138650138650144820000000000000000002001040500000020010405014443000000
0202LOTE PADRAO                   EMBRATEL PARPN *       EBTP4       010VISTA          000000000019400000000208000000001940000000000000000000205000131522000
0202LOTE PADRAO                   EMBRATEL PARON *       EBTP3       010VISTA          000000000019300000000201000000001880000000000000000000199000038141400
0202LOTE PADRAO                   TRAN PAULISTPN * EJ    TRPL4       010VISTA          000000000006900000000070000000000670000000000000000000067000008950000
0202LOTE PADRAO                   TELEMAR     PN * EJ    TNLP4       010VISTA          000000000034200000000361000000003410000000000000000000361000275021000
0202LOTE PADRAO                   ITAUBANCO   PN * EJ    ITAU4       010VISTA          000000000164500000001730000000016450000000000000000001730000004069200
0202LOTE PADRAO                   TELEMAR     ON * EJ    TNLP3       010VISTA          000000000030000000000310000000003000000000000000000000306000030464100
0202LOTE PADRAO                   SID NACIONALON *       CSNA3       010VISTA          000000000045000000000459000000004450000000000000000000447500010611000
0202LOTE PADRAO                   TELE LEST CLPN *       TLCP4       010VISTA          000000000001530000000015500000000148000000000000000000014800146362000
0202LOTE PADRAO                   IPIRANGA PETPN *       PTIP4       010VISTA          000000000016300000000164000000001620000000000000000000164000010847300
0202LOTE PADRAO                   BRASIL T PARPN *       BRTP4       010VISTA          000000000017600000000180000000001730000000000000000000178000109245000
0202LOTE PADRAO                   BRASIL T PARON *       BRTP3       010VISTA          000000000017000000000188000000001700000000000000000000185000015622100
0202LOTE PADRAO                   ACESITA     PN *       ACES4       010VISTA          000000000000950000000009800000000094000000000000000000009700100047000
0202LOTE PADRAO                   PETROBRAS   PN         PETR4       010VISTA          000000000047400000000490000000004730000000000000000000490000000133400
0202LOTE PADRAO                   ELETROBRAS  PNB*       ELET6       010VISTA          000000000038200000000387000000003800000000000000000000385000038807500
0202LOTE PADRAO                   PETROBRAS   ON         PETR3       010VISTA          000000000050600000000540000000005060000000000000000000537500000027000
0202LOTE PADRAO                   COMGAS      PNA*       CGAS5       010VISTA          000000000147000000001470000000013100000000000000000001370000012221300
0202LOTE PADRAO                   SOUZA CRUZ  ON EJ      CRUZ3       010VISTA          000000000011100000000111000000001060000000000000000000107000000008900
0202LOTE PADRAO                   CELESC      PNB        CLSC6       010VISTA          000000000000560000000005900000000056000000000000000000005700000094200
0202LOTE PADRAO                   ELETROBRAS  ON *       ELET3       010VISTA          000000000040700000000407000000004000000000000000000000401000023572200
0202LOTE PADRAO                   BRADESCO    PN * EJ    BBDC4       010VISTA          000000000010700000000111000000001060000000000000000000111000187030000
0202LOTE PADRAO                   CESP        PN *       CESP4       010VISTA          000000000021100000000211000000001950000000000000000000198000010200800
0202LOTE PADRAO                   LIGHT       ON *       LIGH3       010VISTA          000000000179000000001869000000017900000000000000000001810000000409200
0202LOTE PADRAO                   TELESP CL PAPN *       TSPP4       010VISTA          000000000012900000000138000000001280000000000000000000137500176574000
0202LOTE PADRAO                   VALE R DOCE PNA        VALE5       010VISTA          000000000051500000000525000000005130000000000000000000516000000024900
0202LOTE PADRAO                   COPEL       PNB*       CPLE6       010VISTA          000000000017300000000180000000001700000000000000000000177000030628100
0202LOTE PADRAO                   VALE R DOCE ON         VALE3       010VISTA          000000000047500000000485000000004750000000000000000000485000000000600
0202LOTE PADRAO                   ARACRUZ     PNB        ARCZ6       010VISTA          000000000002800000000029000000000270000000000000000000028000000046500
0202LOTE PADRAO                   TELEMIG PARTPN *       TMCP4       010VISTA          000000000004000000000041000000000380000000000000000000041000266649000
0202LOTE PADRAO                   BRASIL TELECPN *       BRTO4       010VISTA          000000000011800000000125000000001150000000000000000000125000204067000
0202LOTE PADRAO                   SABESP      ON *       SBSP3       010VISTA          000000000176000000001880000000017500000000000000000001780000002466200
0202LOTE PADRAO                   BRASKEM     PNA*       BRKM5       010VISTA          000000000600000000006095000000059000000000000000000005900000000126700
0202LOTE PADRAO                   EMBRAER     PN EJ      EMBR4       010VISTA          000000000020300000000203000000001930000000000000000000193000000012500
0202LOTE PADRAO                   TELESP      PN * EJ    TLPP4       010VISTA          000000000027800000000298000000002780000000000000000000290000004764600
0202LOTE PADRAO                   EMBRAER     ON EJ      EMBR3       010VISTA          000000000016000000000161000000001590000000000000000000160000000025200
0202LOTE PADRAO                   AMBEV       PN *       AMBV4       010VISTA          000000000510000000005120000000049000000000000000000004900000001301500
0202LOTE PADRAO                   USIMINAS    PNA        USIM5       010VISTA          000000000008500000000090000000000850000000000000000000090000000020700
0202LOTE PADRAO                   ELETROPAULO PN *       ELPL4       010VISTA          000000000081000000000810000000008000000000000000000000807000001623000
0202LOTE PADRAO                   TELE NORD CLPN *       TNEP4       010VISTA          000000000002800000000029000000000270000000000000000000028000155699000
0202LOTE PADRAO                   CEMIG       PN * EJ    CMIG4       010VISTA          000000000025750000000275000000002575000000000000000000275000047318200
0202LOTE PADRAO                   TELE CL SUL PN * EJ    TCSL4       010VISTA          000000000004000000000042000000000400000000000000000000041000147005000
0202LOTE PADRAO                   CEMIG       ON * EJ    CMIG3       010VISTA          000000000025100000000263000000002510000000000000000000258000002004400
0202LOTE PADRAO                   TELE CL SUL ON * EJ    TCSL3       010VISTA          000000000003200000000035000000000320000000000000000000033000062832000
0202LOTE PADRAO                   ITAUSA      PN         ITSA4       010VISTA          000000000001750000000017900000000175000000000000000000017900000261000
0202LOTE PADRAO                   SID TUBARAO PN *       CSTB4       010VISTA          000000000021000000000215000000002100000000000000000000215000003614400
0202LOTE PADRAO                   V C P       PN *       VCPA4       010VISTA          000000000053000000000548000000005200000000000000000000529000004386100
0202LOTE PADRAO                   BRADESPAR   PN *       BRAP4       010VISTA          000000000001000000000010000000000100000000000000000000010000215549000
0202LOTE PADRAO                   NET         PN         PLIM4       010VISTA          000000000001260000000012700000000120000000000000000000012500001468200
0202LOTE PADRAO                   TELE CTR OESPN * EJ    TCOC4       010VISTA          000000000005700000000059000000000570000000000000000000059000127993000
0202LOTE PADRAO                   GERDAU      PN * EJ    GGBR4       010VISTA          000000000018200000000190000000001800000000000000000000185000009204800
0202LOTE PADRAO                   BRASIL      ON *       BBAS3       010VISTA          000000000007300000000075000000000725000000000000000000074000002752000
