00BDIN9999BOVESPA 99992001110520011105
0101IBOVESPA                      0113890113890121770000000000000000002001110500000020011105012165000000
0202LOTE PADRAO                   EMBRATEL PARPN *       EBTP4       010VISTA          000000000008100000000091000000000790000000000000000000091000328589000
0202LOTE PADRAO                   EMBRATEL PARON *       EBTP3       010VISTA          000000000008500000000099000000000850000000000000000000099000049269800
0202LOTE PADRAO                   TRAN PAULISTPN * EJ    TRPL4       010VISTA          000000000005700000000059000000000575000000000000000000058000010730000
0202LOTE PADRAO                   TELEMAR     PN * EJ    TNLP4       010VISTA          000000000027300000000310000000002710000000000000000000306000492966000
0202LOTE PADRAO                   ITAUBANCO   PN * EJ    ITAU4       010VISTA          000000000174000000001800000000017400000000000000000001780000011451200
0202LOTE PADRAO                   TELEMAR     ON * EJ    TNLP3       010VISTA          000000000025000000000275000000002500000000000000000000275000038656700
0202LOTE PADRAO                   SID NACIONALON *       CSNA3       010VISTA          000000000029100000000291000000002850000000000000000000287500007521000
0202LOTE PADRAO                   TELE LEST CLPN *       TLCP4       010VISTA          000000000000710000000007900000000071000000000000000000007800160486000
0202LOTE PADRAO                   CRT CELULAR PNA* EJ    CRTP5       010VISTA          000000000377000000004020000000037700000000000000000004000000002281400
0202LOTE PADRAO                   IPIRANGA PETPN *       PTIP4       010VISTA          000000000011600000000118000000001150000000000000000000116000001590000
0202LOTE PADRAO                   BRASIL T PARPN *       BRTP4       010VISTA          000000000015900000000170000000001590000000000000000000166000134575000
0202LOTE PADRAO                   BRASIL T PARON *       BRTP3       010VISTA          000000000015400000000163000000001530000000000000000000157000024316600
0202LOTE PADRAO                   ACESITA     PN *       ACES4       010VISTA          000000000000500000000005500000000050000000000000000000005400195891000
0202LOTE PADRAO                   PETROBRAS   PN         PETR4       010VISTA          000000000051700000000525000000005060000000000000000000507000000125200
0202LOTE PADRAO                   ELETROBRAS  PNB*       ELET6       010VISTA          000000000033000000000352000000003300000000000000000000352000037757200
0202LOTE PADRAO                   PETROBRAS   ON         PETR3       010VISTA          000000000053200000000543000000005260000000000000000000527000000018200
0202LOTE PADRAO                   COMGAS      PNA*       CGAS5       010VISTA          000000000079000000000824000000007850000000000000000000824000002773200
0202LOTE PADRAO                   SOUZA CRUZ  ON EJ      CRUZ3       010VISTA          000000000012300000000125000000001190000000000000000000124000000022200
0202LOTE PADRAO                   ELETROBRAS  ON *       ELET3       010VISTA          000000000035300000000378000000003530000000000000000000378000024759800
0202LOTE PADRAO                   CELESC      PNB        CLSC6       010VISTA          000000000000450000000004700000000045000000000000000000004600000191100
0202LOTE PADRAO                   BRADESCO    PN * EJ    BBDC4       010VISTA          000000000010600000000113000000001060000000000000000000111000187701000
0202LOTE PADRAO                   CESP        PN *       CESP4       010VISTA          000000000013000000000135000000001300000000000000000000132500015863900
0202LOTE PADRAO                   LIGHT       ON *       LIGH3       010VISTA          000000000092000000000980000000009200000000000000000000950000000348400
0202LOTE PADRAO                   TELESP CL PAPN *       TSPP4       010VISTA          000000000005500000000057000000000540000000000000000000057000253804000
0202LOTE PADRAO                   VALE R DOCE PNA        VALE5       010VISTA          000000000057800000000586000000005720000000000000000000582000000027500
0202LOTE PADRAO                   COPEL       PNB*       CPLE6       010VISTA          000000000013100000000141000000001310000000000000000000139000101422000
0202LOTE PADRAO                   VALE R DOCE ON         VALE3       010VISTA          000000000053500000000536000000005300000000000000000000533000000005100
0202LOTE PADRAO                   ARACRUZ     PNB        ARCZ6       010VISTA          000000000004500000000047000000000450000000000000000000046000000020300
0202LOTE PADRAO                   TELEMIG PARTPN *       TMCP4       010VISTA          000000000003200000000037900000000320000000000000000000036000150678000
0202LOTE PADRAO                   BRASIL TELECPN *       BRTO4       010VISTA          000000000010600000000114000000001060000000000000000000113000279279000
0202LOTE PADRAO                   SABESP      ON *       SBSP3       010VISTA          000000000113000000001160000000011300000000000000000001155000002726200
0202LOTE PADRAO                   BRASKEM     PNA*       BRKM5       010VISTA          000000000400000000004090000000039500000000000000000004011000000153000
0202LOTE PADRAO                   EMBRAER     PN EJ      EMBR4       010VISTA          000000000012100000000126000000001200000000000000000000121000000059600
0202LOTE PADRAO                   TELESP      PN * EJ    TLPP4       010VISTA          000000000026300000000275000000002630000000000000000000275000046128100
0202LOTE PADRAO                   EMBRAER     ON EJ      EMBR3       010VISTA          000000000010100000000104000000001000000000000000000000102500000030500
0202LOTE PADRAO                   AMBEV       PN *       AMBV4       010VISTA          000000000455000000004750000000045500000000000000000004700000002827300
0202LOTE PADRAO                   USIMINAS    PNA        USIM5       010VISTA          000000000004000000000041000000000390000000000000000000040000000077600
0202LOTE PADRAO                   ELETROPAULO PN *       ELPL4       010VISTA          000000000064100000000665000000006410000000000000000000660000009642700
0202LOTE PADRAO                   TELE NORD CLPN *       TNEP4       010VISTA          000000000002750000000029400000000275000000000000000000028000157167000
0202LOTE PADRAO                   CEMIG       PN * EJ    CMIG4       010VISTA          000000000027100000000281000000002710000000000000000000281000024959600
0202LOTE PADRAO                   TELE CL SUL PN * EJ    TCSL4       010VISTA          000000000003000000000033000000000300000000000000000000033000150211000
0202LOTE PADRAO                   CEMIG       ON * EJ    CMIG3       010VISTA          000000000027000000000273000000002700000000000000000000271000001237300
0202LOTE PADRAO                   TELE CL SUL ON * EJ    TCSL3       010VISTA          000000000002500000000027100000000250000000000000000000027100032106900
0202LOTE PADRAO                   ITAUSA      PN         ITSA4       010VISTA          000000000001900000000019600000000190000000000000000000019600000163900
0202LOTE PADRAO                   SID TUBARAO PN *       CSTB4       010VISTA          000000000015500000000168000000001550000000000000000000168000005410400
0202LOTE PADRAO                   V C P       PN *       VCPA4       010VISTA          000000000080000000000815000000008000000000000000000000812000003894100
0202LOTE PADRAO                   BRADESPAR   PN *       BRAP4       010VISTA          000000000000670000000007100000000067000000000000000000007100251274000
0202LOTE PADRAO                   NET         PN         PLIM4       010VISTA          000000000000660000000007300000000066000000000000000000007200001233900
0202LOTE PADRAO                   TELE CTR OESPN * EJ    TCOC4       010VISTA          000000000004700000000049000000000470000000000000000000049000161700000
0202LOTE PADRAO                   GERDAU      PN * EJ    GGBR4       010VISTA          000000000018100000000195000000001810000000000000000000195000014949800
0202LOTE PADRAO                   BRASIL      ON *       BBAS3       010VISTA          000000000007900000000081000000000780000000000000000000080000005745400
