00BDIN9999BOVESPA 99992001041120010411
0101IBOVESPA                      0150570147240152670000000000000000002001041100000020010411014819000000
0202LOTE PADRAO                   EMBRATEL PARPN *       EBTP4       010VISTA          000000000022600000000231000000002160000000000000000000216000077147700
0202LOTE PADRAO                   EMBRATEL PARON *       EBTP3       010VISTA          000000000022300000000230000000002090000000000000000000211000030877600
0202LOTE PADRAO                   TRAN PAULISTPN * EJ    TRPL4       010VISTA          000000000007400000000075000000000700000000000000000000071000011089400
0202LOTE PADRAO                   TELEMAR     PN * EJ    TNLP4       010VISTA          000000000037400000000380000000003620000000000000000000367000264579000
0202LOTE PADRAO                   ITAUBANCO   PN * EJ    ITAU4       010VISTA          000000000169500000001710000000016800000000000000000001690000003354900
0202LOTE PADRAO                   TELEMAR     ON * EJ    TNLP3       010VISTA          000000000035700000000363000000003410000000000000000000356000050110500
0202LOTE PADRAO                   SID NACIONALON *       CSNA3       010VISTA          000000000051000000000517000000005000000000000000000000500000007003600
0202LOTE PADRAO                   TELE LEST CLPN *       TLCP4       010VISTA          000000000001730000000018000000000170000000000000000000017200212540000
0202LOTE PADRAO                   IPIRANGA PETPN *       PTIP4       010VISTA          000000000016100000000162000000001600000000000000000000160000004832300
0202LOTE PADRAO                   BRASIL T PARPN *       BRTP4       010VISTA          000000000019000000000193000000001860000000000000000000188000120420000
0202LOTE PADRAO                   BRASIL T PARON *       BRTP3       010VISTA          000000000019300000000193000000001780000000000000000000184000021417100
0202LOTE PADRAO                   ACESITA     PN *       ACES4       010VISTA          000000000001000000000010000000000096000000000000000000009700096993600
0202LOTE PADRAO                   PETROBRAS   PN         PETR4       010VISTA          000000000051500000000522000000005000000000000000000000506000000068000
0202LOTE PADRAO                   ELETROBRAS  PNB*       ELET6       010VISTA          000000000037600000000376000000003440000000000000000000351000105665000
0202LOTE PADRAO                   PETROBRAS   ON         PETR3       010VISTA          000000000055600000000562000000005400000000000000000000546000000011000
0202LOTE PADRAO                   COMGAS      PNA*       CGAS5       010VISTA          000000000142000000001504000000014200000000000000000001500000007219000
0202LOTE PADRAO                   SOUZA CRUZ  ON EJ      CRUZ3       010VISTA          000000000010800000000110000000001050000000000000000000106000000022400
0202LOTE PADRAO                   CELESC      PNB        CLSC6       010VISTA          000000000000600000000006100000000056000000000000000000005700000369600
0202LOTE PADRAO                   ELETROBRAS  ON *       ELET3       010VISTA          000000000040000000000400000000003700000000000000000000373000040989900
0202LOTE PADRAO                   BRADESCO    PN * EJ    BBDC4       010VISTA          000000000011900000000120000000001160000000000000000000117500104677000
0202LOTE PADRAO                   CESP        PN *       CESP4       010VISTA          000000000020100000000208000000001900000000000000000000194000004512400
0202LOTE PADRAO                   LIGHT       ON *       LIGH3       010VISTA          000000000197000000002000000000018250000000000000000001829000000324100
0202LOTE PADRAO                   TELESP CL PAPN *       TSPP4       010VISTA          000000000014500000000151000000001410000000000000000000145000158371000
0202LOTE PADRAO                   VALE R DOCE PNA        VALE5       010VISTA          000000000052000000000521000000005070000000000000000000507000000015800
0202LOTE PADRAO                   COPEL       PNB*       CPLE6       010VISTA          000000000018300000000184000000001760000000000000000000178000058589300
0202LOTE PADRAO                   VALE R DOCE ON         VALE3       010VISTA          000000000048000000000482000000004790000000000000000000480000000004800
0202LOTE PADRAO                   ARACRUZ     PNB        ARCZ6       010VISTA          000000000002800000000029000000000270000000000000000000027000000034400
0202LOTE PADRAO                   TELEMIG PARTPN *       TMCP4       010VISTA          000000000004500000000046000000000430000000000000000000045000262018000
0202LOTE PADRAO                   BRASIL TELECPN *       BRTO4       010VISTA          000000000013300000000135000000001300000000000000000000134000053017500
0202LOTE PADRAO                   SABESP      ON *       SBSP3       010VISTA          000000000191000000001990000000018700000000000000000001915000002204900
0202LOTE PADRAO                   BRASKEM     PNA*       BRKM5       010VISTA          000000000608000000006080000000058800000000000000000005950000000355000
0202LOTE PADRAO                   EMBRAER     PN EJ      EMBR4       010VISTA          000000000020700000000215000000002060000000000000000000210000000033100
0202LOTE PADRAO                   TELESP      PN * EJ    TLPP4       010VISTA          000000000030300000000303000000002910000000000000000000299000008333000
0202LOTE PADRAO                   EMBRAER     ON EJ      EMBR3       010VISTA          000000000016800000000171000000001675000000000000000000170000000073800
0202LOTE PADRAO                   AMBEV       PN *       AMBV4       010VISTA          000000000502000000005021000000049800000000000000000005000000000866900
0202LOTE PADRAO                   USIMINAS    PNA        USIM5       010VISTA          000000000009300000000096000000000900000000000000000000091000000108000
0202LOTE PADRAO                   ELETROPAULO PN *       ELPL4       010VISTA          000000000085500000000865000000008300000000000000000000849000003895700
0202LOTE PADRAO                   TELE NORD CLPN *       TNEP4       010VISTA          000000000003000000000031000000000300000000000000000000030000134788000
0202LOTE PADRAO                   CEMIG       PN * EJ    CMIG4       010VISTA          000000000027300000000278000000002660000000000000000000268000090459300
0202LOTE PADRAO                   TELE CL SUL PN * EJ    TCSL4       010VISTA          000000000004200000000042000000000410000000000000000000042000190750000
0202LOTE PADRAO                   CEMIG       ON * EJ    CMIG3       010VISTA          000000000027000000000270000000002630000000000000000000265000000678200
0202LOTE PADRAO                   TELE CL SUL ON * EJ    TCSL3       010VISTA          000000000003800000000038000000000370000000000000000000038000084343800
0202LOTE PADRAO                   ITAUSA      PN         ITSA4       010VISTA          000000000001800000000018000000000176000000000000000000017900000258100
0202LOTE PADRAO                   SID TUBARAO PN *       CSTB4       010VISTA          000000000021500000000215000000002100000000000000000000212000003443000
0202LOTE PADRAO                   V C P       PN *       VCPA4       010VISTA          000000000055000000000550000000005270000000000000000000540000002270200
0202LOTE PADRAO                   BRADESPAR   PN *       BRAP4       010VISTA          000000000001000000000010000000000100000000000000000000010000343311000
0202LOTE PADRAO                   NET         PN         PLIM4       010VISTA          000000000001260000000013000000000125000000000000000000012700001191300
0202LOTE PADRAO                   TELE CTR OESPN * EJ    TCOC4       010VISTA          000000000006000000000062000000000600000000000000000000060000077394800
0202LOTE PADRAO                   GERDAU      PN * EJ    GGBR4       010VISTA          000000000019600000000198000000001930000000000000000000193000032416600
0202LOTE PADRAO                   BRASIL      ON *       BBAS3       010VISTA          000000000008400000000093000000000840000000000000000000092000032092700
