00BDIN9999BOVESPA 99992001052920010529
0101IBOVESPA                      0143020143010144890000000000000000002001052900000020010529014454000000
0202LOTE PADRAO                   EMBRATEL PARPN *       EBTP4       010VISTA          000000000019900000000201000000001930000000000000000000196000052091000
0202LOTE PADRAO                   EMBRATEL PARON *       EBTP3       010VISTA          000000000019600000000200000000001900000000000000000000191000055333400
0202LOTE PADRAO                   TRAN PAULISTPN * EJ    TRPL4       010VISTA          000000000005300000000055000000000530000000000000000000054000005309000
0202LOTE PADRAO                   TELEMAR     PN * EJ    TNLP4       010VISTA          000000000036200000000372000000003610000000000000000000371000142448000
0202LOTE PADRAO                   ITAUBANCO   PN * EJ    ITAU4       010VISTA          000000000188000000001960000000018800000000000000000001940000014982800
0202LOTE PADRAO                   TELEMAR     ON * EJ    TNLP3       010VISTA          000000000031800000000325000000003180000000000000000000325000017701300
0202LOTE PADRAO                   SID NACIONALON *       CSNA3       010VISTA          000000000049200000000492000000004750000000000000000000480000009407400
0202LOTE PADRAO                   TELE LEST CLPN *       TLCP4       010VISTA          000000000001900000000019700000000180000000000000000000019700079535200
0202LOTE PADRAO                   IPIRANGA PETPN *       PTIP4       010VISTA          000000000016000000000160000000001590000000000000000000160000001628200
0202LOTE PADRAO                   BRASIL T PARPN *       BRTP4       010VISTA          000000000017300000000179000000001710000000000000000000178000047007200
0202LOTE PADRAO                   BRASIL T PARON *       BRTP3       010VISTA          000000000017500000000176000000001700000000000000000000174000010130200
0202LOTE PADRAO                   ACESITA     PN *       ACES4       010VISTA          000000000000660000000006700000000064000000000000000000006500326613000
0202LOTE PADRAO                   PETROBRAS   PN         PETR4       010VISTA          000000000057200000000583000000005720000000000000000000577000000079900
0202LOTE PADRAO                   ELETROBRAS  PNB*       ELET6       010VISTA          000000000024500000000249000000002410000000000000000000246000067909000
0202LOTE PADRAO                   PETROBRAS   ON         PETR3       010VISTA          000000000063000000000644000000006300000000000000000000642000000056900
0202LOTE PADRAO                   COMGAS      PNA*       CGAS5       010VISTA          000000000153500000001594000000015350000000000000000001575000008322400
0202LOTE PADRAO                   SOUZA CRUZ  ON EJ      CRUZ3       010VISTA          000000000011800000000118000000001150000000000000000000116000000012600
0202LOTE PADRAO                   CELESC      PNB        CLSC6       010VISTA          000000000000430000000004500000000043000000000000000000004400000119900
0202LOTE PADRAO                   ELETROBRAS  ON *       ELET3       010VISTA          000000000027100000000283000000002660000000000000000000281000048533300
0202LOTE PADRAO                   BRADESCO    PN * EJ    BBDC4       010VISTA          000000000011800000000121000000001180000000000000000000119000104037000
0202LOTE PADRAO                   CESP        PN *       CESP4       010VISTA          000000000013100000000145000000001310000000000000000000143000009828400
0202LOTE PADRAO                   LIGHT       ON *       LIGH3       010VISTA          000000000130000000001355000000013000000000000000000001340000000470900
0202LOTE PADRAO                   TELESP CL PAPN *       TSPP4       010VISTA          000000000016700000000169000000001660000000000000000000166000148701000
0202LOTE PADRAO                   VALE R DOCE PNA        VALE5       010VISTA          000000000057500000000577000000005720000000000000000000572000000022500
0202LOTE PADRAO                   COPEL       PNB*       CPLE6       010VISTA          000000000015500000000162500000001550000000000000000000161000067879900
0202LOTE PADRAO                   VALE R DOCE ON         VALE3       010VISTA          000000000051900000000520000000005180000000000000000000520000000001700
0202LOTE PADRAO                   ARACRUZ     PNB        ARCZ6       010VISTA          000000000003750000000039000000000375000000000000000000039600000752300
0202LOTE PADRAO                   TELEMIG PARTPN *       TMCP4       010VISTA          000000000005200000000054000000000510000000000000000000052000049727400
0202LOTE PADRAO                   BRASIL TELECPN *       BRTO4       010VISTA          000000000011900000000121000000001180000000000000000000119000039580400
0202LOTE PADRAO                   SABESP      ON *       SBSP3       010VISTA          000000000158000000001610000000015800000000000000000001590000000377300
0202LOTE PADRAO                   BRASKEM     PNA*       BRKM5       010VISTA          000000000530200000005302000000051500000000000000000005160000000119000
0202LOTE PADRAO                   EMBRAER     PN EJ      EMBR4       010VISTA          000000000024600000000246000000002380000000000000000000238000000007700
0202LOTE PADRAO                   TELESP      PN * EJ    TLPP4       010VISTA          000000000030100000000301000000002960000000000000000000296000012157600
0202LOTE PADRAO                   EMBRAER     ON EJ      EMBR3       010VISTA          000000000018500000000188000000001830000000000000000000187000000008600
0202LOTE PADRAO                   AMBEV       PN *       AMBV4       010VISTA          000000000539900000005480000000052400000000000000000005240000001182000
0202LOTE PADRAO                   USIMINAS    PNA        USIM5       010VISTA          000000000005900000000060000000000580000000000000000000059000000084700
0202LOTE PADRAO                   ELETROPAULO PN *       ELPL4       010VISTA          000000000063800000000660000000006380000000000000000000660000006665300
0202LOTE PADRAO                   TELE NORD CLPN *       TNEP4       010VISTA          000000000004100000000042000000000400000000000000000000040000193597000
0202LOTE PADRAO                   CEMIG       PN * EJ    CMIG4       010VISTA          000000000021800000000226000000002150000000000000000000218000036306000
0202LOTE PADRAO                   TELE CL SUL PN * EJ    TCSL4       010VISTA          000000000004800000000048000000000470000000000000000000047000091282900
0202LOTE PADRAO                   CEMIG       ON * EJ    CMIG3       010VISTA          000000000022000000000225000000002200000000000000000000225000001344500
0202LOTE PADRAO                   TELE CL SUL ON * EJ    TCSL3       010VISTA          000000000004200000000042000000000400000000000000000000040000022213700
0202LOTE PADRAO                   ITAUSA      PN         ITSA4       010VISTA          000000000002000000000020000000000199000000000000000000020000000309400
0202LOTE PADRAO                   SID TUBARAO PN *       CSTB4       010VISTA          000000000025000000000253000000002500000000000000000000251000005410000
0202LOTE PADRAO                   V C P       PN *       VCPA4       010VISTA          000000000059700000000610000000005900000000000000000000590000003066100
0202LOTE PADRAO                   BRADESPAR   PN *       BRAP4       010VISTA          000000000000800000000008400000000080000000000000000000008200167697000
0202LOTE PADRAO                   NET         PN         PLIM4       010VISTA          000000000000800000000008500000000077000000000000000000008500000878900
0202LOTE PADRAO                   TELE CTR OESPN * EJ    TCOC4       010VISTA          000000000006700000000069000000000660000000000000000000067000026141500
0202LOTE PADRAO                   GERDAU      PN * EJ    GGBR4       010VISTA          000000000015300000000156000000001530000000000000000000156000004405900
0202LOTE PADRAO                   BRASIL      ON *       BBAS3       010VISTA          000000000007900000000079000000000780000000000000000000078000001824700
