00BDIN9999BOVESPA 99992001012220010122
0101IBOVESPA                      0175480172970175780000000000000000002001012200000020010122017392000000
0202LOTE PADRAO                   EMBRATEL PARPN *       EBTP4       010VISTA          000000000033500000000335000000003220000000000000000000327000039814000
0202LOTE PADRAO                   EMBRATEL PARON *       EBTP3       010VISTA          000000000027000000000271000000002660000000000000000000270000015158500
0202LOTE PADRAO                   TRAN PAULISTPN * EJ    TRPL4       010VISTA          000000000008000000000080000000000770000000000000000000077000025922600
0202LOTE PADRAO                   TELEMAR     PN * EJ    TNLP4       010VISTA          000000000049000000000490000000004810000000000000000000483000079165600
0202LOTE PADRAO                   ITAUBANCO   PN * EJ    ITAU4       010VISTA          000000000201000000002010000000019260000000000000000001940000003288000
0202LOTE PADRAO                   TELEMAR     ON * EJ    TNLP3       010VISTA          000000000039100000000391000000003840000000000000000000390000006958300
0202LOTE PADRAO                   SID NACIONALON *       CSNA3       010VISTA          000000000068000000000682000000006750000000000000000000681000004065100
0202LOTE PADRAO                   TELE LEST CLPN *       TLCP4       010VISTA          000000000001500000000015000000000140000000000000000000014000043901700
0202LOTE PADRAO                   CRT CELULAR PNA* EJ    CRTP5       010VISTA          000000000757900000007579000000074000000000000000000007425000000269400
0202LOTE PADRAO                   IPIRANGA PETPN *       PTIP4       010VISTA          000000000018000000000181000000001780000000000000000000178000002619200
0202LOTE PADRAO                   BRASIL T PARPN *       BRTP4       010VISTA          000000000024000000000240000000002280000000000000000000234000046714900
0202LOTE PADRAO                   BRASIL T PARON *       BRTP3       010VISTA          000000000018600000000195000000001860000000000000000000191000006506600
0202LOTE PADRAO                   ACESITA     PN *       ACES4       010VISTA          000000000001200000000012000000000110000000000000000000011000342795000
0202LOTE PADRAO                   PETROBRAS   PN         PETR4       010VISTA          000000000055000000000552000000005430000000000000000000546000000098400
0202LOTE PADRAO                   ELETROBRAS  PNB*       ELET6       010VISTA          000000000037700000000392000000003750000000000000000000392000030285200
0202LOTE PADRAO                   PETROBRAS   ON         PETR3       010VISTA          000000000057000000000570000000005600000000000000000000562000000043700
0202LOTE PADRAO                   COMGAS      PNA*       CGAS5       010VISTA          000000000139000000001390000000013500000000000000000001370000003581000
0202LOTE PADRAO                   SOUZA CRUZ  ON EJ      CRUZ3       010VISTA          000000000010500000000105000000001030000000000000000000103000000004700
0202LOTE PADRAO                   ELETROBRAS  ON *       ELET3       010VISTA          000000000040500000000415000000004020000000000000000000412000010197900
0202LOTE PADRAO                   CELESC      PNB        CLSC6       010VISTA          000000000000670000000006800000000066000000000000000000006700000234200
0202LOTE PADRAO                   BRADESCO    PN * EJ    BBDC4       010VISTA          000000000013800000000138000000001350000000000000000000135000001423900
0202LOTE PADRAO                   CESP        PN *       CESP4       010VISTA          000000000022900000000238000000002280000000000000000000234000021711300
0202LOTE PADRAO                   LIGHT       ON *       LIGH3       010VISTA          000000000266000000002680000000026400000000000000000002680000001515300
0202LOTE PADRAO                   TELESP CL PAPN *       TSPP4       010VISTA          000000000021000000000210000000002030000000000000000000206000135367000
0202LOTE PADRAO                   VALE R DOCE PNA        VALE5       010VISTA          000000000049900000000499000000004870000000000000000000492000000040500
0202LOTE PADRAO                   COPEL       PNB*       CPLE6       010VISTA          000000000019100000000195000000001880000000000000000000190000016874000
0202LOTE PADRAO                   ARACRUZ     PNB        ARCZ6       010VISTA          000000000002980000000029800000000280000000000000000000029400000048200
0202LOTE PADRAO                   TELEMIG PARTPN *       TMCP4       010VISTA          000000000006400000000064000000000620000000000000000000063000055786300
0202LOTE PADRAO                   BRASIL TELECPN *       BRTO4       010VISTA          000000000017300000000173000000001690000000000000000000173000022997500
0202LOTE PADRAO                   SABESP      ON *       SBSP3       010VISTA          000000000202000000002099000000020000000000000000000002099000003561100
0202LOTE PADRAO                   BRASKEM     PNA*       BRKM5       010VISTA          000000000700000000007000000000069000000000000000000006970000000366600
0202LOTE PADRAO                   EMBRAER     PN EJ      EMBR4       010VISTA          000000000019000000000191000000001860000000000000000000190000000044800
0202LOTE PADRAO                   TELESP      PN * EJ    TLPP4       010VISTA          000000000028000000000283000000002780000000000000000000280000005631200
0202LOTE PADRAO                   EMBRAER     ON EJ      EMBR3       010VISTA          000000000015600000000156000000001500000000000000000000153000000030900
0202LOTE PADRAO                   AMBEV       PN *       AMBV4       010VISTA          000000000510800000005260000000051080000000000000000005220000001297900
0202LOTE PADRAO                   USIMINAS    PNA        USIM5       010VISTA          000000000010800000000109000000001080000000000000000000109000000031200
0202LOTE PADRAO                   ELETROPAULO PN *       ELPL4       010VISTA          000000000117000000001170000000011300000000000000000001150000000835700
0202LOTE PADRAO                   TELE NORD CLPN *       TNEP4       010VISTA          000000000004400000000044000000000430000000000000000000044000054264400
0202LOTE PADRAO                   CEMIG       PN * EJ    CMIG4       010VISTA          000000000033700000000337000000003320000000000000000000333000039876900
0202LOTE PADRAO                   TELE CL SUL PN * EJ    TCSL4       010VISTA          000000000005200000000053000000000520000000000000000000053000044414900
0202LOTE PADRAO                   CEMIG       ON * EJ    CMIG3       010VISTA          000000000029900000000299000000002850000000000000000000297000007709600
0202LOTE PADRAO                   TELE CL SUL ON * EJ    TCSL3       010VISTA          000000000004300000000044000000000420000000000000000000042500012171200
0202LOTE PADRAO                   ITAUSA      PN         ITSA4       010VISTA          000000000002100000000021000000000200000000000000000000021000000228300
0202LOTE PADRAO                   SID TUBARAO PN *       CSTB4       010VISTA          000000000024200000000243000000002400000000000000000000243000003618500
0202LOTE PADRAO                   V C P       PN *       VCPA4       010VISTA          000000000058700000000610000000005790000000000000000000610000007442900
0202LOTE PADRAO                   BRADESPAR   PN *       BRAP4       010VISTA          000000000001240000000012400000000120000000000000000000012000155512000
0202LOTE PADRAO                   NET         PN         PLIM4       010VISTA          000000000002300000000023000000000220000000000000000000023000000811200
0202LOTE PADRAO                   TELE CTR OESPN * EJ    TCOC4       010VISTA          000000000008750000000089000000000850000000000000000000085000040271300
0202LOTE PADRAO                   GERDAU      PN * EJ    GGBR4       010VISTA          000000000020800000000213000000002050000000000000000000210000054136900
0202LOTE PADRAO                   BRASIL      ON *       BBAS3       010VISTA          000000000008300000000083000000000800000000000000000000080000002290600
