00BDIN9999BOVESPA 99992001112320011123
0101IBOVESPA                      0130370130370135290000000000000000002001112300000020011123013424000000
0202LOTE PADRAO                   EMBRATEL PARPN *       EBTP4       010VISTA          000000000010000000000104000000000990000000000000000000104000236935000
0202LOTE PADRAO                   EMBRATEL PARON *       EBTP3       010VISTA          000000000010700000000113000000001070000000000000000000112500039390900
0202LOTE PADRAO                   TRAN PAULISTPN * EJ    TRPL4       010VISTA          000000000005900000000062000000000570000000000000000000062000068269800
0202LOTE PADRAO                   TELEMAR     PN * EJ    TNLP4       010VISTA          000000000032500000000339000000003230000000000000000000335000306335000
0202LOTE PADRAO                   ITAUBANCO   PN * EJ    ITAU4       010VISTA          000000000187000000001895000000018700000000000000000001880000010184700
0202LOTE PADRAO                   TELEMAR     ON * EJ    TNLP3       010VISTA          000000000028100000000299000000002810000000000000000000296000034889100
0202LOTE PADRAO                   SID NACIONALON *       CSNA3       010VISTA          000000000036300000000385000000003630000000000000000000376000010055500
0202LOTE PADRAO                   TELE LEST CLPN *       TLCP4       010VISTA          000000000000940000000009900000000094000000000000000000009800172273000
0202LOTE PADRAO                   CRT CELULAR PNA* EJ    CRTP5       010VISTA          000000000473000000004800000000046700000000000000000004799000000637100
0202LOTE PADRAO                   IPIRANGA PETPN *       PTIP4       010VISTA          000000000013800000000145000000001380000000000000000000140000001694900
0202LOTE PADRAO                   BRASIL T PARPN *       BRTP4       010VISTA          000000000017900000000193000000001790000000000000000000191000070994100
0202LOTE PADRAO                   BRASIL T PARON *       BRTP3       010VISTA          000000000018600000000193000000001790000000000000000000190000021064100
0202LOTE PADRAO                   ACESITA     PN *       ACES4       010VISTA          000000000000640000000007000000000064000000000000000000006700686395000
0202LOTE PADRAO                   PETROBRAS   PN         PETR4       010VISTA          000000000049500000000502000000004900000000000000000000498000000115100
0202LOTE PADRAO                   ELETROBRAS  PNB*       ELET6       010VISTA          000000000036100000000365000000003500000000000000000000360000030861000
0202LOTE PADRAO                   PETROBRAS   ON         PETR3       010VISTA          000000000050000000000521000000005000000000000000000000517000000033200
0202LOTE PADRAO                   COMGAS      PNA*       CGAS5       010VISTA          000000000089000000000947000000008900000000000000000000927000003198400
0202LOTE PADRAO                   SOUZA CRUZ  ON EJ      CRUZ3       010VISTA          000000000013000000000133000000001300000000000000000000130000000012200
0202LOTE PADRAO                   ELETROBRAS  ON *       ELET3       010VISTA          000000000036300000000386000000003620000000000000000000372000013342600
0202LOTE PADRAO                   CELESC      PNB        CLSC6       010VISTA          000000000000500000000005200000000049000000000000000000005100000313500
0202LOTE PADRAO                   BRADESCO    PN * EJ    BBDC4       010VISTA          000000000012500000000125000000001230000000000000000000125000182540000
0202LOTE PADRAO                   CESP        PN *       CESP4       010VISTA          000000000014100000000156000000001400000000000000000000153000037193100
0202LOTE PADRAO                   LIGHT       ON *       LIGH3       010VISTA          000000000104900000001090000000010300000000000000000001064000001630800
0202LOTE PADRAO                   TELESP CL PAPN *       TSPP4       010VISTA          000000000007500000000077500000000750000000000000000000076000334226000
0202LOTE PADRAO                   VALE R DOCE PNA        VALE5       010VISTA          000000000051500000000521000000005060000000000000000000512000000024800
0202LOTE PADRAO                   COPEL       PNB*       CPLE6       010VISTA          000000000016600000000173000000001640000000000000000000168000035632900
0202LOTE PADRAO                   VALE R DOCE ON         VALE3       010VISTA          000000000048000000000492000000004800000000000000000000487000000000300
0202LOTE PADRAO                   ARACRUZ     PNB        ARCZ6       010VISTA          000000000004600000000047000000000450000000000000000000045000000059300
0202LOTE PADRAO                   TELEMIG PARTPN *       TMCP4       010VISTA          000000000004200000000045000000000420000000000000000000044000096547900
0202LOTE PADRAO                   BRASIL TELECPN *       BRTO4       010VISTA          000000000013100000000139000000001300000000000000000000138000121370000
0202LOTE PADRAO                   SABESP      ON *       SBSP3       010VISTA          000000000133900000001360000000013160000000000000000001360000002466700
0202LOTE PADRAO                   BRASKEM     PNA*       BRKM5       010VISTA          000000000418000000004449000000041600000000000000000004340000000609100
0202LOTE PADRAO                   EMBRAER     PN EJ      EMBR4       010VISTA          000000000011400000000118000000001130000000000000000000118000000035200
0202LOTE PADRAO                   TELESP      PN * EJ    TLPP4       010VISTA          000000000029800000000319000000002980000000000000000000313000040299700
0202LOTE PADRAO                   EMBRAER     ON EJ      EMBR3       010VISTA          000000000009900000000101000000000980000000000000000000100000000045600
0202LOTE PADRAO                   AMBEV       PN *       AMBV4       010VISTA          000000000492000000005080000000049200000000000000000005000000002524100
0202LOTE PADRAO                   USIMINAS    PNA        USIM5       010VISTA          000000000006100000000067000000000610000000000000000000064000000122100
0202LOTE PADRAO                   ELETROPAULO PN *       ELPL4       010VISTA          000000000076900000000800000000007570000000000000000000774000008421500
0202LOTE PADRAO                   TELE NORD CLPN *       TNEP4       010VISTA          000000000003250000000033000000000320000000000000000000033000127504000
0202LOTE PADRAO                   CEMIG       PN * EJ    CMIG4       010VISTA          000000000030600000000307000000002910000000000000000000303000045016600
0202LOTE PADRAO                   TELE CL SUL PN * EJ    TCSL4       010VISTA          000000000003500000000037300000000350000000000000000000037300117629000
0202LOTE PADRAO                   CEMIG       ON * EJ    CMIG3       010VISTA          000000000027600000000293000000002760000000000000000000290000006216900
0202LOTE PADRAO                   TELE CL SUL ON * EJ    TCSL3       010VISTA          000000000003000000000031000000000300000000000000000000031000072498100
0202LOTE PADRAO                   ITAUSA      PN         ITSA4       010VISTA          000000000002100000000022000000000210000000000000000000021000000697900
0202LOTE PADRAO                   V C P       PN *       VCPA4       010VISTA          000000000080000000000824000000008000000000000000000000800000001899700
0202LOTE PADRAO                   SID TUBARAO PN *       CSTB4       010VISTA          000000000020100000000219000000002010000000000000000000218000006501900
0202LOTE PADRAO                   BRADESPAR   PN *       BRAP4       010VISTA          000000000000760000000008000000000075000000000000000000007700356496000
0202LOTE PADRAO                   NET         PN         PLIM4       010VISTA          000000000000770000000008200000000076000000000000000000008000001007600
0202LOTE PADRAO                   TELE CTR OESPN * EJ    TCOC4       010VISTA          000000000005800000000059600000000575000000000000000000058000073433200
0202LOTE PADRAO                   TELEMAR N L PNA* EJ    TMAR5       010VISTA          000000000053200000000545000000005250000000000000000000542000032750000
0202LOTE PADRAO                   GERDAU      PN * EJ    GGBR4       010VISTA          000000000023400000000236000000002310000000000000000000236000013859500
0202LOTE PADRAO                   BRASIL      ON *       BBAS3       010VISTA          000000000009100000000095000000000910000000000000000000095000007566900
