00BDIN9999BOVESPA 99992001111620011116
0101IBOVESPA                      0128380128070130460000000000000000002001111600000020011116012883000000
0202LOTE PADRAO                   EMBRATEL PARPN *       EBTP4       010VISTA          000000000010000000000102000000000990000000000000000000100000098124400
0202LOTE PADRAO                   EMBRATEL PARON *       EBTP3       010VISTA          000000000010800000000110000000001050000000000000000000107000007256400
0202LOTE PADRAO                   TRAN PAULISTPN * EJ    TRPL4       010VISTA          000000000005900000000059000000000575000000000000000000057000007747900
0202LOTE PADRAO                   TELEMAR     PN * EJ    TNLP4       010VISTA          000000000033600000000339000000003320000000000000000000336000138185000
0202LOTE PADRAO                   ITAUBANCO   PN * EJ    ITAU4       010VISTA          000000000182000000001845000000018150000000000000000001845000009735100
0202LOTE PADRAO                   TELEMAR     ON * EJ    TNLP3       010VISTA          000000000028600000000293000000002810000000000000000000285000014685100
0202LOTE PADRAO                   SID NACIONALON *       CSNA3       010VISTA          000000000034300000000355000000003370000000000000000000355000022622600
0202LOTE PADRAO                   TELE LEST CLPN *       TLCP4       010VISTA          000000000000870000000008800000000086000000000000000000008800128539000
0202LOTE PADRAO                   CRT CELULAR PNA* EJ    CRTP5       010VISTA          000000000470000000004700000000045000000000000000000004530000000752100
0202LOTE PADRAO                   IPIRANGA PETPN *       PTIP4       010VISTA          000000000014000000000140000000001350000000000000000000139000000360000
0202LOTE PADRAO                   BRASIL T PARPN *       BRTP4       010VISTA          000000000019300000000200000000001930000000000000000000196000098562900
0202LOTE PADRAO                   BRASIL T PARON *       BRTP3       010VISTA          000000000018100000000195000000001810000000000000000000183000005555800
0202LOTE PADRAO                   ACESITA     PN *       ACES4       010VISTA          000000000000590000000006000000000054000000000000000000005700310832000
0202LOTE PADRAO                   PETROBRAS   PN         PETR4       010VISTA          000000000047000000000475000000004560000000000000000000457000000296300
0202LOTE PADRAO                   ELETROBRAS  PNB*       ELET6       010VISTA          000000000034100000000358000000003410000000000000000000350000028122700
0202LOTE PADRAO                   PETROBRAS   ON         PETR3       010VISTA          000000000048400000000490000000004730000000000000000000475000000052700
0202LOTE PADRAO                   COMGAS      PNA*       CGAS5       010VISTA          000000000085900000000865000000008590000000000000000000865000000477000
0202LOTE PADRAO                   SOUZA CRUZ  ON EJ      CRUZ3       010VISTA          000000000012600000000130000000001250000000000000000000127000000017100
0202LOTE PADRAO                   ELETROBRAS  ON *       ELET3       010VISTA          000000000036500000000377000000003550000000000000000000355000028487400
0202LOTE PADRAO                   CELESC      PNB        CLSC6       010VISTA          000000000000470000000004800000000046000000000000000000004800000067000
0202LOTE PADRAO                   BRADESCO    PN * EJ    BBDC4       010VISTA          000000000011900000000121000000001190000000000000000000121000055031500
0202LOTE PADRAO                   CESP        PN *       CESP4       010VISTA          000000000012400000000125000000001200000000000000000000121000003030600
0202LOTE PADRAO                   LIGHT       ON *       LIGH3       010VISTA          000000000090000000000925000000009000000000000000000000910000000701100
0202LOTE PADRAO                   TELESP CL PAPN *       TSPP4       010VISTA          000000000007400000000076000000000730000000000000000000074000237347000
0202LOTE PADRAO                   VALE R DOCE PNA        VALE5       010VISTA          000000000053000000000560000000005300000000000000000000557000000034000
0202LOTE PADRAO                   COPEL       PNB*       CPLE6       010VISTA          000000000015600000000159000000001550000000000000000000155000006369900
0202LOTE PADRAO                   VALE R DOCE ON         VALE3       010VISTA          000000000050000000000523000000005000000000000000000000522000000001300
0202LOTE PADRAO                   ARACRUZ     PNB        ARCZ6       010VISTA          000000000004500000000046000000000430000000000000000000043000000027400
0202LOTE PADRAO                   TELEMIG PARTPN *       TMCP4       010VISTA          000000000004200000000045000000000420000000000000000000042000076737700
0202LOTE PADRAO                   BRASIL TELECPN *       BRTO4       010VISTA          000000000014000000000144000000001400000000000000000000140000145970000
0202LOTE PADRAO                   SABESP      ON *       SBSP3       010VISTA          000000000127000000001336000000012500000000000000000001315000001661900
0202LOTE PADRAO                   BRASKEM     PNA*       BRKM5       010VISTA          000000000390000000004039000000038500000000000000000003900000000847300
0202LOTE PADRAO                   EMBRAER     PN EJ      EMBR4       010VISTA          000000000010900000000109000000001030000000000000000000103000000016100
0202LOTE PADRAO                   TELESP      PN * EJ    TLPP4       010VISTA          000000000029000000000294000000002880000000000000000000289000011029000
0202LOTE PADRAO                   EMBRAER     ON EJ      EMBR3       010VISTA          000000000009300000000093000000000880000000000000000000088000000014200
0202LOTE PADRAO                   AMBEV       PN *       AMBV4       010VISTA          000000000480000000004949000000047500000000000000000004940000001563300
0202LOTE PADRAO                   USIMINAS    PNA        USIM5       010VISTA          000000000004900000000052000000000490000000000000000000052000000030000
0202LOTE PADRAO                   ELETROPAULO PN *       ELPL4       010VISTA          000000000070100000000745000000007010000000000000000000744000000944800
0202LOTE PADRAO                   TELE NORD CLPN *       TNEP4       010VISTA          000000000003300000000034000000000320000000000000000000032000069034100
0202LOTE PADRAO                   CEMIG       PN * EJ    CMIG4       010VISTA          000000000029800000000305000000002950000000000000000000296000015338100
0202LOTE PADRAO                   TELE CL SUL PN * EJ    TCSL4       010VISTA          000000000003700000000037500000000350000000000000000000035000128198000
0202LOTE PADRAO                   CEMIG       ON * EJ    CMIG3       010VISTA          000000000028000000000290000000002700000000000000000000270000003440000
0202LOTE PADRAO                   TELE CL SUL ON * EJ    TCSL3       010VISTA          000000000003000000000031000000000290000000000000000000029800036509800
0202LOTE PADRAO                   ITAUSA      PN         ITSA4       010VISTA          000000000001990000000020000000000199000000000000000000020000000449800
0202LOTE PADRAO                   V C P       PN *       VCPA4       010VISTA          000000000084500000000865000000008320000000000000000000832000001905000
0202LOTE PADRAO                   SID TUBARAO PN *       CSTB4       010VISTA          000000000017000000000179000000001680000000000000000000176000004982400
0202LOTE PADRAO                   BRADESPAR   PN *       BRAP4       010VISTA          000000000000730000000007400000000072000000000000000000007200069117700
0202LOTE PADRAO                   NET         PN         PLIM4       010VISTA          000000000000780000000008100000000076000000000000000000008000000651100
0202LOTE PADRAO                   TELE CTR OESPN * EJ    TCOC4       010VISTA          000000000005600000000058000000000540000000000000000000054000051419200
0202LOTE PADRAO                   TELEMAR N L PNA* EJ    TMAR5       010VISTA          000000000052000000000520000000005120000000000000000000518000037400700
0202LOTE PADRAO                   GERDAU      PN * EJ    GGBR4       010VISTA          000000000020900000000221000000002090000000000000000000221000018090600
0202LOTE PADRAO                   BRASIL      ON *       BBAS3       010VISTA          000000000008300000000084000000000820000000000000000000082000006804200
