00BDIN9999BOVESPA 99992001042620010426
0101IBOVESPA                      0142040142020147700000000000000000002001042600000020010426014757000000
0202LOTE PADRAO                   EMBRATEL PARPN *       EBTP4       010VISTA          000000000019300000000203000000001930000000000000000000203000152403000
0202LOTE PADRAO                   EMBRATEL PARON *       EBTP3       010VISTA          000000000018300000000183000000001780000000000000000000183000044343000
0202LOTE PADRAO                   TRAN PAULISTPN * EJ    TRPL4       010VISTA          000000000007250000000073000000000690000000000000000000071000008354700
0202LOTE PADRAO                   TELEMAR     PN * EJ    TNLP4       010VISTA          000000000035600000000377000000003560000000000000000000373000337979000
0202LOTE PADRAO                   ITAUBANCO   PN * EJ    ITAU4       010VISTA          000000000164400000001665000000016300000000000000000001650000013306100
0202LOTE PADRAO                   TELEMAR     ON * EJ    TNLP3       010VISTA          000000000031800000000335000000003180000000000000000000334000016416900
0202LOTE PADRAO                   SID NACIONALON *       CSNA3       010VISTA          000000000050000000000500000000004850000000000000000000491000004785400
0202LOTE PADRAO                   TELE LEST CLPN *       TLCP4       010VISTA          000000000001500000000016000000000150000000000000000000016000168304000
0202LOTE PADRAO                   IPIRANGA PETPN *       PTIP4       010VISTA          000000000016000000000165000000001600000000000000000000164000000898000
0202LOTE PADRAO                   BRASIL T PARPN *       BRTP4       010VISTA          000000000018400000000194000000001840000000000000000000194000151837000
0202LOTE PADRAO                   BRASIL T PARON *       BRTP3       010VISTA          000000000019100000000200000000001900000000000000000000196000021111000
0202LOTE PADRAO                   ACESITA     PN *       ACES4       010VISTA          000000000000830000000008600000000082000000000000000000008400148512000
0202LOTE PADRAO                   PETROBRAS   PN         PETR4       010VISTA          000000000053500000000546000000005350000000000000000000537000000145600
0202LOTE PADRAO                   ELETROBRAS  PNB*       ELET6       010VISTA          000000000031900000000332000000003190000000000000000000332000049705800
0202LOTE PADRAO                   PETROBRAS   ON         PETR3       010VISTA          000000000059000000000608000000005900000000000000000000590000000057800
0202LOTE PADRAO                   COMGAS      PNA*       CGAS5       010VISTA          000000000122000000001339000000012190000000000000000001339000001410900
0202LOTE PADRAO                   SOUZA CRUZ  ON EJ      CRUZ3       010VISTA          000000000010800000000110000000001050000000000000000000108000000013400
0202LOTE PADRAO                   CELESC      PNB        CLSC6       010VISTA          000000000000500000000005200000000049000000000000000000005200000131800
0202LOTE PADRAO                   ELETROBRAS  ON *       ELET3       010VISTA          000000000035500000000372000000003550000000000000000000372000026537100
0202LOTE PADRAO                   BRADESCO    PN * EJ    BBDC4       010VISTA          000000000011250000000119000000001100000000000000000000119000237242000
0202LOTE PADRAO                   CESP        PN *       CESP4       010VISTA          000000000018400000000186000000001750000000000000000000186000033219000
0202LOTE PADRAO                   LIGHT       ON *       LIGH3       010VISTA          000000000155000000001555000000015100000000000000000001519000000476000
0202LOTE PADRAO                   TELESP CL PAPN *       TSPP4       010VISTA          000000000013800000000145000000001380000000000000000000141000230733000
0202LOTE PADRAO                   VALE R DOCE PNA        VALE5       010VISTA          000000000052000000000528000000005150000000000000000000518000000048900
0202LOTE PADRAO                   COPEL       PNB*       CPLE6       010VISTA          000000000016400000000170000000001610000000000000000000170000056682000
0202LOTE PADRAO                   VALE R DOCE ON         VALE3       010VISTA          000000000048500000000485000000004820000000000000000000485000000002100
0202LOTE PADRAO                   ARACRUZ     PNB        ARCZ6       010VISTA          000000000003000000000031000000000300000000000000000000031000000099100
0202LOTE PADRAO                   TELEMIG PARTPN *       TMCP4       010VISTA          000000000004100000000043000000000410000000000000000000043000189874000
0202LOTE PADRAO                   BRASIL TELECPN *       BRTO4       010VISTA          000000000012500000000134000000001250000000000000000000134000111700000
0202LOTE PADRAO                   SABESP      ON *       SBSP3       010VISTA          000000000180000000001825000000018000000000000000000001815000004567500
0202LOTE PADRAO                   BRASKEM     PNA*       BRKM5       010VISTA          000000000550000000005760000000054200000000000000000005700000000254700
0202LOTE PADRAO                   EMBRAER     PN EJ      EMBR4       010VISTA          000000000023900000000255000000002390000000000000000000248000000022100
0202LOTE PADRAO                   TELESP      PN * EJ    TLPP4       010VISTA          000000000029400000000301000000002930000000000000000000301000016447500
0202LOTE PADRAO                   EMBRAER     ON EJ      EMBR3       010VISTA          000000000018300000000195000000001830000000000000000000194000000047000
0202LOTE PADRAO                   AMBEV       PN *       AMBV4       010VISTA          000000000491800000005290000000049180000000000000000005290000001853100
0202LOTE PADRAO                   USIMINAS    PNA        USIM5       010VISTA          000000000008500000000087000000000840000000000000000000086000000059400
0202LOTE PADRAO                   ELETROPAULO PN *       ELPL4       010VISTA          000000000063000000000680000000006200000000000000000000680000001577100
0202LOTE PADRAO                   TELE NORD CLPN *       TNEP4       010VISTA          000000000003100000000032000000000310000000000000000000032000111699000
0202LOTE PADRAO                   CEMIG       PN * EJ    CMIG4       010VISTA          000000000026000000000265000000002580000000000000000000262500072609400
0202LOTE PADRAO                   TELE CL SUL PN * EJ    TCSL4       010VISTA          000000000004100000000044000000000410000000000000000000044000059776200
0202LOTE PADRAO                   CEMIG       ON * EJ    CMIG3       010VISTA          000000000025600000000258000000002510000000000000000000257000001553300
0202LOTE PADRAO                   TELE CL SUL ON * EJ    TCSL3       010VISTA          000000000003500000000036000000000350000000000000000000036000019717600
0202LOTE PADRAO                   ITAUSA      PN         ITSA4       010VISTA          000000000001780000000018000000000178000000000000000000018000000296900
0202LOTE PADRAO                   SID TUBARAO PN *       CSTB4       010VISTA          000000000021000000000218000000002060000000000000000000211000008478200
0202LOTE PADRAO                   V C P       PN *       VCPA4       010VISTA          000000000057000000000580000000005650000000000000000000580000000896200
0202LOTE PADRAO                   BRADESPAR   PN *       BRAP4       010VISTA          000000000000890000000009100000000088000000000000000000009000181469000
0202LOTE PADRAO                   NET         PN         PLIM4       010VISTA          000000000001100000000011000000000100000000000000000000011000001260300
0202LOTE PADRAO                   TELE CTR OESPN * EJ    TCOC4       010VISTA          000000000005500000000060000000000550000000000000000000060000181972000
0202LOTE PADRAO                   GERDAU      PN * EJ    GGBR4       010VISTA          000000000019000000000195000000001830000000000000000000190000006914000
0202LOTE PADRAO                   BRASIL      ON *       BBAS3       010VISTA          000000000008900000000090000000000850000000000000000000088000003869000
