00BDIN9999BOVESPA 99992001071820010718
0101IBOVESPA                      0141710137780142360000000000000000002001071800000020010718013791000000
0202LOTE PADRAO                   EMBRATEL PARPN *       EBTP4       010VISTA          000000000014600000000148000000001410000000000000000000141000090871000
0202LOTE PADRAO                   EMBRATEL PARON *       EBTP3       010VISTA          000000000015200000000154000000001420000000000000000000144000028284400
0202LOTE PADRAO                   TRAN PAULISTPN * EJ    TRPL4       010VISTA          000000000006400000000066000000000620000000000000000000062000008593100
0202LOTE PADRAO                   TELEMAR     PN * EJ    TNLP4       010VISTA          000000000034600000000351000000003360000000000000000000337000169126000
0202LOTE PADRAO                   ITAUBANCO   PN * EJ    ITAU4       010VISTA          000000000192000000001920000000018450000000000000000001845000005318700
0202LOTE PADRAO                   TELEMAR     ON * EJ    TNLP3       010VISTA          000000000028600000000288000000002770000000000000000000277500009400300
0202LOTE PADRAO                   SID NACIONALON *       CSNA3       010VISTA          000000000039500000000402000000003950000000000000000000400000008591400
0202LOTE PADRAO                   TELE LEST CLPN *       TLCP4       010VISTA          000000000001790000000017900000000160000000000000000000016900061043400
0202LOTE PADRAO                   CRT CELULAR PNA* EJ    CRTP5       010VISTA          000000000845000000008500000000080000000000000000000008250000000625100
0202LOTE PADRAO                   IPIRANGA PETPN *       PTIP4       010VISTA          000000000016500000000165000000001610000000000000000000161000000730100
0202LOTE PADRAO                   BRASIL T PARPN *       BRTP4       010VISTA          000000000019100000000191000000001800000000000000000000181000033821500
0202LOTE PADRAO                   BRASIL T PARON *       BRTP3       010VISTA          000000000017800000000178000000001680000000000000000000168000008436800
0202LOTE PADRAO                   ACESITA     PN *       ACES4       010VISTA          000000000000640000000006500000000061000000000000000000006200136770000
0202LOTE PADRAO                   PETROBRAS   PN         PETR4       010VISTA          000000000052500000000525000000005000000000000000000000504000000307900
0202LOTE PADRAO                   ELETROBRAS  PNB*       ELET6       010VISTA          000000000029300000000293000000002860000000000000000000286000057904800
0202LOTE PADRAO                   PETROBRAS   ON         PETR3       010VISTA          000000000056600000000566000000005420000000000000000000542000000034700
0202LOTE PADRAO                   COMGAS      PNA*       CGAS5       010VISTA          000000000138900000001395000000013250000000000000000001339000001166300
0202LOTE PADRAO                   SOUZA CRUZ  ON EJ      CRUZ3       010VISTA          000000000011100000000111000000001100000000000000000000111000000009800
0202LOTE PADRAO                   ELETROBRAS  ON *       ELET3       010VISTA          000000000033600000000337000000003320000000000000000000334000062092800
0202LOTE PADRAO                   CELESC      PNB        CLSC6       010VISTA          000000000000440000000004500000000042000000000000000000004400000385800
0202LOTE PADRAO                   BRADESCO    PN * EJ    BBDC4       010VISTA          000000000011750000000118000000001130000000000000000000114000220434000
0202LOTE PADRAO                   CESP        PN *       CESP4       010VISTA          000000000013700000000139000000001300000000000000000000135000006960900
0202LOTE PADRAO                   LIGHT       ON *       LIGH3       010VISTA          000000000127000000001304000000011800000000000000000001180000000056300
0202LOTE PADRAO                   TELESP CL PAPN *       TSPP4       010VISTA          000000000014000000000141000000001360000000000000000000138000087972900
0202LOTE PADRAO                   VALE R DOCE PNA        VALE5       010VISTA          000000000051500000000515000000005050000000000000000000509000000075900
0202LOTE PADRAO                   COPEL       PNB*       CPLE6       010VISTA          000000000018300000000183000000001750000000000000000000176000015401300
0202LOTE PADRAO                   VALE R DOCE ON         VALE3       010VISTA          000000000053000000000530000000005000000000000000000000510000000000300
0202LOTE PADRAO                   ARACRUZ     PNB        ARCZ6       010VISTA          000000000004100000000041000000000398000000000000000000039800000026800
0202LOTE PADRAO                   TELEMIG PARTPN *       TMCP4       010VISTA          000000000004500000000045000000000440000000000000000000044000059631200
0202LOTE PADRAO                   BRASIL TELECPN *       BRTO4       010VISTA          000000000013100000000131000000001250000000000000000000126000036871600
0202LOTE PADRAO                   SABESP      ON *       SBSP3       010VISTA          000000000152000000001550000000014800000000000000000001480000000564000
0202LOTE PADRAO                   BRASKEM     PNA*       BRKM5       010VISTA          000000000555000000005600000000053500000000000000000005488000000118400
0202LOTE PADRAO                   EMBRAER     PN EJ      EMBR4       010VISTA          000000000022900000000231000000002250000000000000000000229000000022700
0202LOTE PADRAO                   TELESP      PN * EJ    TLPP4       010VISTA          000000000024500000000246000000002410000000000000000000245000014576800
0202LOTE PADRAO                   EMBRAER     ON EJ      EMBR3       010VISTA          000000000018000000000180000000001730000000000000000000176000000009800
0202LOTE PADRAO                   AMBEV       PN *       AMBV4       010VISTA          000000000518900000005189000000050240000000000000000005070000001474000
0202LOTE PADRAO                   USIMINAS    PNA        USIM5       010VISTA          000000000006400000000065000000000620000000000000000000063000000014600
0202LOTE PADRAO                   ELETROPAULO PN *       ELPL4       010VISTA          000000000068000000000680000000006390000000000000000000647000000955100
0202LOTE PADRAO                   TELE NORD CLPN *       TNEP4       010VISTA          000000000003900000000039000000000375000000000000000000037500042154100
0202LOTE PADRAO                   CEMIG       PN * EJ    CMIG4       010VISTA          000000000027100000000281000000002710000000000000000000273000051563800
0202LOTE PADRAO                   TELE CL SUL PN * EJ    TCSL4       010VISTA          000000000004600000000046000000000440000000000000000000044000027038300
0202LOTE PADRAO                   CEMIG       ON * EJ    CMIG3       010VISTA          000000000026800000000268000000002550000000000000000000255000001140000
0202LOTE PADRAO                   TELE CL SUL ON * EJ    TCSL3       010VISTA          000000000003700000000037000000000350000000000000000000035000028308600
0202LOTE PADRAO                   ITAUSA      PN         ITSA4       010VISTA          000000000002000000000020000000000200000000000000000000020000000131800
0202LOTE PADRAO                   SID TUBARAO PN *       CSTB4       010VISTA          000000000021100000000211000000002060000000000000000000208000006062200
0202LOTE PADRAO                   V C P       PN *       VCPA4       010VISTA          000000000063000000000630000000006150000000000000000000617000001441500
0202LOTE PADRAO                   BRADESPAR   PN *       BRAP4       010VISTA          000000000000840000000008500000000080000000000000000000008300110038000
0202LOTE PADRAO                   NET         PN         PLIM4       010VISTA          000000000001100000000011000000000100000000000000000000011000001031600
0202LOTE PADRAO                   TELE CTR OESPN * EJ    TCOC4       010VISTA          000000000006200000000062000000000590000000000000000000059000025478500
0202LOTE PADRAO                   GERDAU      PN * EJ    GGBR4       010VISTA          000000000016800000000168000000001590000000000000000000160000004177300
0202LOTE PADRAO                   BRASIL      ON *       BBAS3       010VISTA          000000000009500000000095000000000890000000000000000000090000001531000
