00BDIN9999BOVESPA 99992001082320010823
0101IBOVESPA                      0129610127030130130000000000000000002001082300000020010823012751000000
0202LOTE PADRAO                   EMBRATEL PARPN *       EBTP4       010VISTA          000000000010800000000108000000001000000000000000000000100000103866000
0202LOTE PADRAO                   EMBRATEL PARON *       EBTP3       010VISTA          000000000011300000000115000000001060000000000000000000108000035424700
0202LOTE PADRAO                   TRAN PAULISTPN * EJ    TRPL4       010VISTA          000000000006400000000065000000000610000000000000000000063000013825000
0202LOTE PADRAO                   TELEMAR     PN * EJ    TNLP4       010VISTA          000000000029600000000299000000002860000000000000000000287500201095000
0202LOTE PADRAO                   ITAUBANCO   PN * EJ    ITAU4       010VISTA          000000000182000000001825000000017900000000000000000001790000005322900
0202LOTE PADRAO                   TELEMAR     ON * EJ    TNLP3       010VISTA          000000000027000000000270000000002560000000000000000000256000011826900
0202LOTE PADRAO                   SID NACIONALON *       CSNA3       010VISTA          000000000036200000000362000000003580000000000000000000358000004513600
0202LOTE PADRAO                   TELE LEST CLPN *       TLCP4       010VISTA          000000000001300000000014000000000130000000000000000000014000326002000
0202LOTE PADRAO                   CRT CELULAR PNA* EJ    CRTP5       010VISTA          000000000945000000009540000000094500000000000000000009529000001336300
0202LOTE PADRAO                   IPIRANGA PETPN *       PTIP4       010VISTA          000000000014600000000146000000001400000000000000000000142500000210000
0202LOTE PADRAO                   BRASIL T PARPN *       BRTP4       010VISTA          000000000015300000000154000000001450000000000000000000145000097613600
0202LOTE PADRAO                   BRASIL T PARON *       BRTP3       010VISTA          000000000014500000000145000000001380000000000000000000138000013296700
0202LOTE PADRAO                   ACESITA     PN *       ACES4       010VISTA          000000000000550000000005500000000053000000000000000000005400091783200
0202LOTE PADRAO                   PETROBRAS   PN         PETR4       010VISTA          000000000053250000000533000000005240000000000000000000530000000090500
0202LOTE PADRAO                   ELETROBRAS  PNB*       ELET6       010VISTA          000000000031800000000322000000003110000000000000000000314000025780000
0202LOTE PADRAO                   PETROBRAS   ON         PETR3       010VISTA          000000000054800000000560000000005480000000000000000000553000000032200
0202LOTE PADRAO                   COMGAS      PNA*       CGAS5       010VISTA          000000000130000000001300000000012350000000000000000001245000002002200
0202LOTE PADRAO                   SOUZA CRUZ  ON EJ      CRUZ3       010VISTA          000000000011000000000110000000001090000000000000000000109000000005100
0202LOTE PADRAO                   ELETROBRAS  ON *       ELET3       010VISTA          000000000035200000000361000000003510000000000000000000360000012887900
0202LOTE PADRAO                   CELESC      PNB        CLSC6       010VISTA          000000000000430000000004300000000041000000000000000000004300000126300
0202LOTE PADRAO                   BRADESCO    PN * EJ    BBDC4       010VISTA          000000000011600000000117500000001150000000000000000000115000070319100
0202LOTE PADRAO                   CESP        PN *       CESP4       010VISTA          000000000012300000000123000000001200000000000000000000123000013756000
0202LOTE PADRAO                   LIGHT       ON *       LIGH3       010VISTA          000000000113000000001140000000011000000000000000000001110000000159000
0202LOTE PADRAO                   TELESP CL PAPN *       TSPP4       010VISTA          000000000014000000000140000000001350000000000000000000136000091903200
0202LOTE PADRAO                   VALE R DOCE PNA        VALE5       010VISTA          000000000051700000000520000000005130000000000000000000517000000021200
0202LOTE PADRAO                   COPEL       PNB*       CPLE6       010VISTA          000000000018000000000180000000001760000000000000000000176000021059300
0202LOTE PADRAO                   VALE R DOCE ON         VALE3       010VISTA          000000000051200000000512500000005110000000000000000000512000000001200
0202LOTE PADRAO                   ARACRUZ     PNB        ARCZ6       010VISTA          000000000004000000000042000000000400000000000000000000041000000018600
0202LOTE PADRAO                   TELEMIG PARTPN *       TMCP4       010VISTA          000000000003800000000038000000000360000000000000000000036000074028800
0202LOTE PADRAO                   BRASIL TELECPN *       BRTO4       010VISTA          000000000010500000000105000000001000000000000000000000100000113555000
0202LOTE PADRAO                   SABESP      ON *       SBSP3       010VISTA          000000000172000000001720000000016750000000000000000001675000000618400
0202LOTE PADRAO                   BRASKEM     PNA*       BRKM5       010VISTA          000000000430000000004400000000042010000000000000000004250000000101500
0202LOTE PADRAO                   EMBRAER     PN EJ      EMBR4       010VISTA          000000000018800000000188000000001810000000000000000000183000000012700
0202LOTE PADRAO                   TELESP      PN * EJ    TLPP4       010VISTA          000000000025100000000260000000002510000000000000000000253000025765600
0202LOTE PADRAO                   EMBRAER     ON EJ      EMBR3       010VISTA          000000000014800000000148000000001410000000000000000000144000000016300
0202LOTE PADRAO                   AMBEV       PN *       AMBV4       010VISTA          000000000495000000004950000000049000000000000000000004920000000417000
0202LOTE PADRAO                   USIMINAS    PNA        USIM5       010VISTA          000000000006000000000061000000000590000000000000000000060000000041800
0202LOTE PADRAO                   ELETROPAULO PN *       ELPL4       010VISTA          000000000069400000000694000000006750000000000000000000675000004437400
0202LOTE PADRAO                   TELE NORD CLPN *       TNEP4       010VISTA          000000000002900000000029000000000275000000000000000000027700146644000
0202LOTE PADRAO                   CEMIG       PN * EJ    CMIG4       010VISTA          000000000026200000000270000000002580000000000000000000261000065047200
0202LOTE PADRAO                   TELE CL SUL PN * EJ    TCSL4       010VISTA          000000000003400000000035000000000325000000000000000000032000087929300
0202LOTE PADRAO                   CEMIG       ON * EJ    CMIG3       010VISTA          000000000027000000000270000000002600000000000000000000260000000773000
0202LOTE PADRAO                   TELE CL SUL ON * EJ    TCSL3       010VISTA          000000000002900000000029000000000270000000000000000000027000069128300
0202LOTE PADRAO                   ITAUSA      PN         ITSA4       010VISTA          000000000002000000000020000000000194000000000000000000019500000275900
0202LOTE PADRAO                   SID TUBARAO PN *       CSTB4       010VISTA          000000000020500000000207000000002025000000000000000000202500002410000
0202LOTE PADRAO                   V C P       PN *       VCPA4       010VISTA          000000000068000000000695000000006800000000000000000000687000000628100
0202LOTE PADRAO                   BRADESPAR   PN *       BRAP4       010VISTA          000000000000690000000007000000000066000000000000000000006800235264000
0202LOTE PADRAO                   NET         PN         PLIM4       010VISTA          000000000000810000000008400000000079000000000000000000008300001160300
0202LOTE PADRAO                   TELE CTR OESPN * EJ    TCOC4       010VISTA          000000000005100000000052500000000500000000000000000000050000097708000
0202LOTE PADRAO                   GERDAU      PN * EJ    GGBR4       010VISTA          000000000016300000000163000000001600000000000000000000161000006037900
0202LOTE PADRAO                   BRASIL      ON *       BBAS3       010VISTA          000000000009400000000096000000000930000000000000000000095000010737600
