00BDIN9999BOVESPA 99992001022120010221
0101IBOVESPA                      0159090155680159090000000000000000002001022100000020010221015594000000
0202LOTE PADRAO                   EMBRATEL PARPN *       EBTP4       010VISTA          000000000023600000000248000000002280000000000000000000241000218384000
0202LOTE PADRAO                   EMBRATEL PARON *       EBTP3       010VISTA          000000000019500000000205000000001910000000000000000000198000069423400
0202LOTE PADRAO                   TRAN PAULISTPN * EJ    TRPL4       010VISTA          000000000008500000000089000000000830000000000000000000089000016097400
0202LOTE PADRAO                   TELEMAR     PN * EJ    TNLP4       010VISTA          000000000044000000000440000000004250000000000000000000425000243957000
0202LOTE PADRAO                   ITAUBANCO   PN * EJ    ITAU4       010VISTA          000000000170000000001780000000016890000000000000000001700000008867800
0202LOTE PADRAO                   TELEMAR     ON * EJ    TNLP3       010VISTA          000000000032600000000335000000003250000000000000000000325000038117500
0202LOTE PADRAO                   SID NACIONALON *       CSNA3       010VISTA          000000000069500000000715000000006870000000000000000000700000013859400
0202LOTE PADRAO                   TELE LEST CLPN *       TLCP4       010VISTA          000000000001300000000014000000000130000000000000000000013000067732700
0202LOTE PADRAO                   IPIRANGA PETPN *       PTIP4       010VISTA          000000000014800000000148000000001400000000000000000000143000004256000
0202LOTE PADRAO                   BRASIL T PARPN *       BRTP4       010VISTA          000000000020500000000211000000002010000000000000000000205000122029000
0202LOTE PADRAO                   BRASIL T PARON *       BRTP3       010VISTA          000000000017600000000183000000001750000000000000000000176000025930100
0202LOTE PADRAO                   ACESITA     PN *       ACES4       010VISTA          000000000001100000000011000000000100000000000000000000010000205063000
0202LOTE PADRAO                   PETROBRAS   PN         PETR4       010VISTA          000000000056700000000568000000005500000000000000000000558000000085500
0202LOTE PADRAO                   ELETROBRAS  PNB*       ELET6       010VISTA          000000000036700000000373000000003600000000000000000000360000056310600
0202LOTE PADRAO                   PETROBRAS   ON         PETR3       010VISTA          000000000057600000000576000000005630000000000000000000567000000060700
0202LOTE PADRAO                   COMGAS      PNA*       CGAS5       010VISTA          000000000154000000001599000000015350000000000000000001570000003465200
0202LOTE PADRAO                   SOUZA CRUZ  ON EJ      CRUZ3       010VISTA          000000000012100000000128000000001190000000000000000000122500000037200
0202LOTE PADRAO                   CELESC      PNB        CLSC6       010VISTA          000000000000640000000006400000000062000000000000000000006200000171400
0202LOTE PADRAO                   ELETROBRAS  ON *       ELET3       010VISTA          000000000037500000000387000000003700000000000000000000370000028958300
0202LOTE PADRAO                   BRADESCO    PN * EJ    BBDC4       010VISTA          000000000011800000000120000000001150000000000000000000119000139041000
0202LOTE PADRAO                   CESP        PN *       CESP4       010VISTA          000000000023000000000238000000002230000000000000000000229000016431600
0202LOTE PADRAO                   LIGHT       ON *       LIGH3       010VISTA          000000000216000000002230000000021600000000000000000002230000000901100
0202LOTE PADRAO                   TELESP CL PAPN *       TSPP4       010VISTA          000000000018500000000188000000001760000000000000000000176000123438000
0202LOTE PADRAO                   VALE R DOCE PNA        VALE5       010VISTA          000000000048500000000485000000004730000000000000000000482000000030900
0202LOTE PADRAO                   COPEL       PNB*       CPLE6       010VISTA          000000000018700000000190000000001825000000000000000000182000017079300
0202LOTE PADRAO                   VALE R DOCE ON         VALE3       010VISTA          000000000047300000000473000000004710000000000000000000471000000000000
0202LOTE PADRAO                   ARACRUZ     PNB        ARCZ6       010VISTA          000000000002690000000028000000000260000000000000000000027900000169300
0202LOTE PADRAO                   TELEMIG PARTPN *       TMCP4       010VISTA          000000000005400000000054000000000520000000000000000000053000116297000
0202LOTE PADRAO                   BRASIL TELECPN *       BRTO4       010VISTA          000000000014500000000150000000001450000000000000000000145000055649900
0202LOTE PADRAO                   SABESP      ON *       SBSP3       010VISTA          000000000211000000002160000000021000000000000000000002130000002997500
0202LOTE PADRAO                   BRASKEM     PNA*       BRKM5       010VISTA          000000000603000000006282000000060300000000000000000006170000000055400
0202LOTE PADRAO                   EMBRAER     PN EJ      EMBR4       010VISTA          000000000018100000000183000000001780000000000000000000181000000018000
0202LOTE PADRAO                   TELESP      PN * EJ    TLPP4       010VISTA          000000000028500000000301000000002850000000000000000000298000012440800
0202LOTE PADRAO                   EMBRAER     ON EJ      EMBR3       010VISTA          000000000015600000000156000000001500000000000000000000151000000014300
0202LOTE PADRAO                   AMBEV       PN *       AMBV4       010VISTA          000000000505000000005120000000049000000000000000000005030000003002500
0202LOTE PADRAO                   USIMINAS    PNA        USIM5       010VISTA          000000000010600000000108000000001040000000000000000000105000000016000
0202LOTE PADRAO                   ELETROPAULO PN *       ELPL4       010VISTA          000000000102000000001090000000009800000000000000000001090000003456700
0202LOTE PADRAO                   TELE NORD CLPN *       TNEP4       010VISTA          000000000003500000000035000000000320000000000000000000033000062846200
0202LOTE PADRAO                   CEMIG       PN * EJ    CMIG4       010VISTA          000000000031500000000315000000003050000000000000000000305000034756500
0202LOTE PADRAO                   TELE CL SUL PN * EJ    TCSL4       010VISTA          000000000004250000000042000000000400000000000000000000041000049582400
0202LOTE PADRAO                   CEMIG       ON * EJ    CMIG3       010VISTA          000000000026100000000261000000002500000000000000000000256000006510400
0202LOTE PADRAO                   TELE CL SUL ON * EJ    TCSL3       010VISTA          000000000003400000000035400000000320000000000000000000033000019878400
0202LOTE PADRAO                   ITAUSA      PN         ITSA4       010VISTA          000000000001900000000019000000000180000000000000000000019000000586900
0202LOTE PADRAO                   SID TUBARAO PN *       CSTB4       010VISTA          000000000021600000000223000000002125000000000000000000212500007244100
0202LOTE PADRAO                   V C P       PN *       VCPA4       010VISTA          000000000053600000000555000000005300000000000000000000549000004250000
0202LOTE PADRAO                   BRADESPAR   PN *       BRAP4       010VISTA          000000000001000000000010000000000100000000000000000000010000408893000
0202LOTE PADRAO                   NET         PN         PLIM4       010VISTA          000000000001730000000017800000000160000000000000000000016000001611900
0202LOTE PADRAO                   TELE CTR OESPN * EJ    TCOC4       010VISTA          000000000006900000000069000000000650000000000000000000065000047569700
0202LOTE PADRAO                   GERDAU      PN * EJ    GGBR4       010VISTA          000000000018000000000181000000001750000000000000000000179000010075100
0202LOTE PADRAO                   BRASIL      ON *       BBAS3       010VISTA          000000000007000000000072000000000700000000000000000000070000003297100
