00BDIN9999BOVESPA 99992001060420010604
0101IBOVESPA                      0147980147980151410000000000000000002001060400000020010604015104000000
0202LOTE PADRAO                   EMBRATEL PARPN *       EBTP4       010VISTA          000000000020300000000208000000002030000000000000000000204000051937800
0202LOTE PADRAO                   EMBRATEL PARON *       EBTP3       010VISTA          000000000019500000000196000000001910000000000000000000193000029254800
0202LOTE PADRAO                   TRAN PAULISTPN * EJ    TRPL4       010VISTA          000000000006600000000072000000000660000000000000000000067000025417500
0202LOTE PADRAO                   TELEMAR     PN * EJ    TNLP4       010VISTA          000000000037300000000378000000003710000000000000000000375000151407000
0202LOTE PADRAO                   ITAUBANCO   PN * EJ    ITAU4       010VISTA          000000000190500000001950000000019050000000000000000001940000010993500
0202LOTE PADRAO                   TELEMAR     ON * EJ    TNLP3       010VISTA          000000000032000000000327000000003200000000000000000000326000013362500
0202LOTE PADRAO                   SID NACIONALON *       CSNA3       010VISTA          000000000049000000000491000000004850000000000000000000490000005347100
0202LOTE PADRAO                   TELE LEST CLPN *       TLCP4       010VISTA          000000000002000000000020000000000200000000000000000000020000088419200
0202LOTE PADRAO                   IPIRANGA PETPN *       PTIP4       010VISTA          000000000016000000000161000000001600000000000000000000160000000880200
0202LOTE PADRAO                   BRASIL T PARPN *       BRTP4       010VISTA          000000000019100000000198000000001910000000000000000000196000060638100
0202LOTE PADRAO                   BRASIL T PARON *       BRTP3       010VISTA          000000000018500000000188000000001810000000000000000000184000018125100
0202LOTE PADRAO                   ACESITA     PN *       ACES4       010VISTA          000000000000680000000006900000000066000000000000000000006800191359000
0202LOTE PADRAO                   PETROBRAS   PN         PETR4       010VISTA          000000000060300000000628000000006030000000000000000000623000000092400
0202LOTE PADRAO                   ELETROBRAS  PNB*       ELET6       010VISTA          000000000026300000000273000000002610000000000000000000273000087497100
0202LOTE PADRAO                   PETROBRAS   ON         PETR3       010VISTA          000000000068000000000707000000006800000000000000000000701000000025000
0202LOTE PADRAO                   SOUZA CRUZ  ON EJ      CRUZ3       010VISTA          000000000011600000000116000000001150000000000000000000116000000009100
0202LOTE PADRAO                   CELESC      PNB        CLSC6       010VISTA          000000000000460000000004700000000046000000000000000000004700000130900
0202LOTE PADRAO                   ELETROBRAS  ON *       ELET3       010VISTA          000000000031000000000319000000003030000000000000000000312000048184500
0202LOTE PADRAO                   BRADESCO    PN * EJ    BBDC4       010VISTA          000000000012000000000124000000001200000000000000000000123000198324000
0202LOTE PADRAO                   CESP        PN *       CESP4       010VISTA          000000000014300000000149000000001380000000000000000000145000020751400
0202LOTE PADRAO                   LIGHT       ON *       LIGH3       010VISTA          000000000137000000001450000000013200000000000000000001364000000598700
0202LOTE PADRAO                   TELESP CL PAPN *       TSPP4       010VISTA          000000000016600000000166000000001630000000000000000000163000075907100
0202LOTE PADRAO                   VALE R DOCE PNA        VALE5       010VISTA          000000000057200000000577000000005650000000000000000000566000000026300
0202LOTE PADRAO                   COPEL       PNB*       CPLE6       010VISTA          000000000015500000000168000000001550000000000000000000166000012610000
0202LOTE PADRAO                   VALE R DOCE ON         VALE3       010VISTA          000000000052000000000521000000005150000000000000000000520000000001900
0202LOTE PADRAO                   ARACRUZ     PNB        ARCZ6       010VISTA          000000000004100000000042500000000410000000000000000000041000000096200
0202LOTE PADRAO                   TELEMIG PARTPN *       TMCP4       010VISTA          000000000005200000000052000000000510000000000000000000052000086874100
0202LOTE PADRAO                   BRASIL TELECPN *       BRTO4       010VISTA          000000000013300000000134000000001310000000000000000000134000080687500
0202LOTE PADRAO                   SABESP      ON *       SBSP3       010VISTA          000000000170000000001705000000016100000000000000000001680000000870400
0202LOTE PADRAO                   BRASKEM     PNA*       BRKM5       010VISTA          000000000509500000005150000000049950000000000000000005020000000298900
0202LOTE PADRAO                   EMBRAER     PN EJ      EMBR4       010VISTA          000000000024750000000248000000002450000000000000000000246000000005200
0202LOTE PADRAO                   TELESP      PN * EJ    TLPP4       010VISTA          000000000030300000000303000000002990000000000000000000303000005528500
0202LOTE PADRAO                   EMBRAER     ON EJ      EMBR3       010VISTA          000000000019300000000193000000001880000000000000000000188000000028200
0202LOTE PADRAO                   AMBEV       PN *       AMBV4       010VISTA          000000000540000000005510000000054000000000000000000005500000001833500
0202LOTE PADRAO                   USIMINAS    PNA        USIM5       010VISTA          000000000006600000000067000000000650000000000000000000066000000107400
0202LOTE PADRAO                   ELETROPAULO PN *       ELPL4       010VISTA          000000000065000000000650000000006100000000000000000000630000003321300
0202LOTE PADRAO                   TELE NORD CLPN *       TNEP4       010VISTA          000000000004000000000040000000000390000000000000000000040000084602100
0202LOTE PADRAO                   CEMIG       PN * EJ    CMIG4       010VISTA          000000000023600000000243000000002360000000000000000000243000037765400
0202LOTE PADRAO                   TELE CL SUL PN * EJ    TCSL4       010VISTA          000000000004790000000048000000000470000000000000000000047000067628100
0202LOTE PADRAO                   CEMIG       ON * EJ    CMIG3       010VISTA          000000000024200000000242000000002320000000000000000000242000000612000
0202LOTE PADRAO                   TELE CL SUL ON * EJ    TCSL3       010VISTA          000000000003960000000039600000000380000000000000000000038000049244500
0202LOTE PADRAO                   ITAUSA      PN         ITSA4       010VISTA          000000000002000000000021000000000200000000000000000000020000000223500
0202LOTE PADRAO                   SID TUBARAO PN *       CSTB4       010VISTA          000000000025000000000250000000002310000000000000000000240000002737900
0202LOTE PADRAO                   V C P       PN *       VCPA4       010VISTA          000000000066800000000700000000006600000000000000000000660000004741600
0202LOTE PADRAO                   BRADESPAR   PN *       BRAP4       010VISTA          000000000000850000000008700000000084000000000000000000008700100004000
0202LOTE PADRAO                   NET         PN         PLIM4       010VISTA          000000000000880000000009500000000087000000000000000000009400001737100
0202LOTE PADRAO                   TELE CTR OESPN * EJ    TCOC4       010VISTA          000000000006900000000069000000000670000000000000000000068000019718400
0202LOTE PADRAO                   GERDAU      PN * EJ    GGBR4       010VISTA          000000000016100000000165000000001610000000000000000000163000004310700
0202LOTE PADRAO                   BRASIL      ON *       BBAS3       010VISTA          000000000007800000000080000000000780000000000000000000078000008724300
