00BDIN9999BOVESPA 99992001080920010809
0101IBOVESPA                      0139210137050139300000000000000000002001080900000020010809013834000000
0202LOTE PADRAO                   EMBRATEL PARPN *       EBTP4       010VISTA          000000000012200000000124000000001200000000000000000000121000065602500
0202LOTE PADRAO                   EMBRATEL PARON *       EBTP3       010VISTA          000000000012750000000129000000001250000000000000000000125000044453400
0202LOTE PADRAO                   TRAN PAULISTPN * EJ    TRPL4       010VISTA          000000000006500000000066000000000620000000000000000000063000011010000
0202LOTE PADRAO                   TELEMAR     PN * EJ    TNLP4       010VISTA          000000000032400000000326000000003180000000000000000000320000205112000
0202LOTE PADRAO                   ITAUBANCO   PN * EJ    ITAU4       010VISTA          000000000196000000001990000000019400000000000000000001975000007196400
0202LOTE PADRAO                   TELEMAR     ON * EJ    TNLP3       010VISTA          000000000029500000000298000000002900000000000000000000293000013776400
0202LOTE PADRAO                   SID NACIONALON *       CSNA3       010VISTA          000000000039500000000397000000003825000000000000000000382500005475800
0202LOTE PADRAO                   TELE LEST CLPN *       TLCP4       010VISTA          000000000001550000000016000000000155000000000000000000016000044536900
0202LOTE PADRAO                   CRT CELULAR PNA* EJ    CRTP5       010VISTA          000000000950000000009690000000091000000000000000000009349000000487600
0202LOTE PADRAO                   IPIRANGA PETPN *       PTIP4       010VISTA          000000000015600000000160000000001550000000000000000000155000000937200
0202LOTE PADRAO                   BRASIL T PARPN *       BRTP4       010VISTA          000000000017800000000181000000001780000000000000000000178000036035300
0202LOTE PADRAO                   BRASIL T PARON *       BRTP3       010VISTA          000000000017800000000181000000001750000000000000000000175000008859200
0202LOTE PADRAO                   ACESITA     PN *       ACES4       010VISTA          000000000000580000000005900000000056000000000000000000005600198873000
0202LOTE PADRAO                   PETROBRAS   PN         PETR4       010VISTA          000000000053100000000532000000005250000000000000000000530000000087600
0202LOTE PADRAO                   ELETROBRAS  PNB*       ELET6       010VISTA          000000000031300000000313000000003000000000000000000000303000029032400
0202LOTE PADRAO                   PETROBRAS   ON         PETR3       010VISTA          000000000057200000000573000000005650000000000000000000567000000027300
0202LOTE PADRAO                   COMGAS      PNA*       CGAS5       010VISTA          000000000134000000001340000000013280000000000000000001333000002782000
0202LOTE PADRAO                   SOUZA CRUZ  ON EJ      CRUZ3       010VISTA          000000000010600000000108000000001060000000000000000000107500000002800
0202LOTE PADRAO                   ELETROBRAS  ON *       ELET3       010VISTA          000000000035600000000356000000003400000000000000000000342000033927300
0202LOTE PADRAO                   CELESC      PNB        CLSC6       010VISTA          000000000000460000000004700000000045000000000000000000004700000398600
0202LOTE PADRAO                   BRADESCO    PN * EJ    BBDC4       010VISTA          000000000012300000000125000000001220000000000000000000124000105702000
0202LOTE PADRAO                   CESP        PN *       CESP4       010VISTA          000000000013250000000136000000001320000000000000000000134000016178300
0202LOTE PADRAO                   LIGHT       ON *       LIGH3       010VISTA          000000000121200000001240000000012000000000000000000001240000000786500
0202LOTE PADRAO                   TELESP CL PAPN *       TSPP4       010VISTA          000000000014100000000143000000001360000000000000000000136000087155700
0202LOTE PADRAO                   VALE R DOCE PNA        VALE5       010VISTA          000000000052200000000522000000005100000000000000000000510000000038200
0202LOTE PADRAO                   COPEL       PNB*       CPLE6       010VISTA          000000000017800000000179000000001780000000000000000000178000014953900
0202LOTE PADRAO                   VALE R DOCE ON         VALE3       010VISTA          000000000053000000000530000000005200000000000000000000520000000000400
0202LOTE PADRAO                   ARACRUZ     PNB        ARCZ6       010VISTA          000000000003900000000040000000000390000000000000000000039000000004800
0202LOTE PADRAO                   TELEMIG PARTPN *       TMCP4       010VISTA          000000000004100000000042000000000410000000000000000000041000054397900
0202LOTE PADRAO                   BRASIL TELECPN *       BRTO4       010VISTA          000000000012300000000123000000001200000000000000000000120000039586600
0202LOTE PADRAO                   SABESP      ON *       SBSP3       010VISTA          000000000173000000001740000000017050000000000000000001720000000537500
0202LOTE PADRAO                   BRASKEM     PNA*       BRKM5       010VISTA          000000000507000000005070000000050300000000000000000005060000000151100
0202LOTE PADRAO                   EMBRAER     PN EJ      EMBR4       010VISTA          000000000022700000000228000000002210000000000000000000223000000009200
0202LOTE PADRAO                   TELESP      PN * EJ    TLPP4       010VISTA          000000000024700000000249000000002460000000000000000000247000008462700
0202LOTE PADRAO                   EMBRAER     ON EJ      EMBR3       010VISTA          000000000017600000000178000000001750000000000000000000176000000009000
0202LOTE PADRAO                   AMBEV       PN *       AMBV4       010VISTA          000000000518900000005350000000051000000000000000000005250000001168400
0202LOTE PADRAO                   USIMINAS    PNA        USIM5       010VISTA          000000000006400000000064000000000625000000000000000000063000000014300
0202LOTE PADRAO                   ELETROPAULO PN *       ELPL4       010VISTA          000000000072000000000732000000007000000000000000000000700000014218600
0202LOTE PADRAO                   TELE NORD CLPN *       TNEP4       010VISTA          000000000003300000000035000000000330000000000000000000034800052544000
0202LOTE PADRAO                   CEMIG       PN * EJ    CMIG4       010VISTA          000000000027800000000278000000002710000000000000000000278000019842500
0202LOTE PADRAO                   TELE CL SUL PN * EJ    TCSL4       010VISTA          000000000004000000000040000000000400000000000000000000040000041126200
0202LOTE PADRAO                   CEMIG       ON * EJ    CMIG3       010VISTA          000000000027500000000275000000002630000000000000000000269000004500000
0202LOTE PADRAO                   TELE CL SUL ON * EJ    TCSL3       010VISTA          000000000003500000000035000000000340000000000000000000035000032067800
0202LOTE PADRAO                   ITAUSA      PN         ITSA4       010VISTA          000000000002100000000021000000000200000000000000000000020000000140900
0202LOTE PADRAO                   SID TUBARAO PN *       CSTB4       010VISTA          000000000021100000000214000000002110000000000000000000211000002504400
0202LOTE PADRAO                   V C P       PN *       VCPA4       010VISTA          000000000064000000000672000000006400000000000000000000672000003275300
0202LOTE PADRAO                   BRADESPAR   PN *       BRAP4       010VISTA          000000000000800000000008000000000078000000000000000000007800072266700
0202LOTE PADRAO                   NET         PN         PLIM4       010VISTA          000000000001100000000011000000000100000000000000000000010000001166400
0202LOTE PADRAO                   TELE CTR OESPN * EJ    TCOC4       010VISTA          000000000006000000000060000000000590000000000000000000060000052400300
0202LOTE PADRAO                   GERDAU      PN * EJ    GGBR4       010VISTA          000000000017000000000171000000001680000000000000000000168000006495300
0202LOTE PADRAO                   BRASIL      ON *       BBAS3       010VISTA          000000000009500000000099000000000940000000000000000000099000024071500
