00BDIN9999BOVESPA 99992001120520011205
0101IBOVESPA                      0131860131030133820000000000000000002001120500000020011205013382000000
0202LOTE PADRAO                   EMBRATEL PARPN *       EBTP4       010VISTA          000000000010500000000105000000000950000000000000000000099000888063000
0202LOTE PADRAO                   EMBRATEL PARON *       EBTP3       010VISTA          000000000011700000000119000000001050000000000000000000108000074344500
0202LOTE PADRAO                   TRAN PAULISTPN * EJ    TRPL4       010VISTA          000000000006000000000063000000000600000000000000000000061000009761500
0202LOTE PADRAO                   TELEMAR     PN * EJ    TNLP4       010VISTA          000000000033100000000337000000003270000000000000000000337000252104000
0202LOTE PADRAO                   ITAUBANCO   PN * EJ    ITAU4       010VISTA          000000000178000000001780000000017450000000000000000001750000013825100
0202LOTE PADRAO                   TELEMAR     ON * EJ    TNLP3       010VISTA          000000000029500000000295000000002850000000000000000000295000015339100
0202LOTE PADRAO                   SID NACIONALON *       CSNA3       010VISTA          000000000036600000000376000000003560000000000000000000375000013384100
0202LOTE PADRAO                   TELE LEST CLPN *       TLCP4       010VISTA          000000000000860000000008900000000085000000000000000000008900257498000
0202LOTE PADRAO                   CRT CELULAR PNA* EJ    CRTP5       010VISTA          000000000480000000004850000000047500000000000000000004795000001101900
0202LOTE PADRAO                   IPIRANGA PETPN *       PTIP4       010VISTA          000000000013100000000138000000001310000000000000000000138000005124000
0202LOTE PADRAO                   BRASIL T PARPN *       BRTP4       010VISTA          000000000019100000000196000000001830000000000000000000196000088659900
0202LOTE PADRAO                   BRASIL T PARON *       BRTP3       010VISTA          000000000018300000000191000000001810000000000000000000191000045283200
0202LOTE PADRAO                   ACESITA     PN *       ACES4       010VISTA          000000000000690000000007100000000068000000000000000000007000221426000
0202LOTE PADRAO                   PETROBRAS   PN         PETR4       010VISTA          000000000051800000000521000000005110000000000000000000520000000167000
0202LOTE PADRAO                   ELETROBRAS  PNB*       ELET6       010VISTA          000000000031000000000318000000003100000000000000000000311000053701200
0202LOTE PADRAO                   PETROBRAS   ON         PETR3       010VISTA          000000000053900000000540000000005280000000000000000000540000000056200
0202LOTE PADRAO                   COMGAS      PNA*       CGAS5       010VISTA          000000000088000000000889000000008740000000000000000000885000006332500
0202LOTE PADRAO                   SOUZA CRUZ  ON EJ      CRUZ3       010VISTA          000000000013400000000135000000001340000000000000000000135000000023800
0202LOTE PADRAO                   ELETROBRAS  ON *       ELET3       010VISTA          000000000033900000000339000000003250000000000000000000335000028225500
0202LOTE PADRAO                   CELESC      PNB        CLSC6       010VISTA          000000000000490000000004900000000047000000000000000000004800000520600
0202LOTE PADRAO                   BRADESCO    PN * EJ    BBDC4       010VISTA          000000000011700000000120000000001170000000000000000000119000193768000
0202LOTE PADRAO                   CESP        PN *       CESP4       010VISTA          000000000015300000000155000000001500000000000000000000155000010232500
0202LOTE PADRAO                   LIGHT       ON *       LIGH3       010VISTA          000000000116500000001240000000011650000000000000000001240000000792000
0202LOTE PADRAO                   TELESP CL PAPN *       TSPP4       010VISTA          000000000007600000000079000000000750000000000000000000079000351558000
0202LOTE PADRAO                   VALE R DOCE PNA        VALE5       010VISTA          000000000052500000000531000000005220000000000000000000530000000041800
0202LOTE PADRAO                   COPEL       PNB*       CPLE6       010VISTA          000000000015600000000161000000001560000000000000000000161000065183100
0202LOTE PADRAO                   VALE R DOCE ON         VALE3       010VISTA          000000000050000000000500000000004910000000000000000000495000000010200
0202LOTE PADRAO                   ARACRUZ     PNB        ARCZ6       010VISTA          000000000004400000000046000000000440000000000000000000046000000137000
0202LOTE PADRAO                   TELEMIG PARTPN *       TMCP4       010VISTA          000000000004400000000047000000000440000000000000000000047000080377000
0202LOTE PADRAO                   BRASIL TELECPN *       BRTO4       010VISTA          000000000013300000000135000000001300000000000000000000134000051388400
0202LOTE PADRAO                   SABESP      ON *       SBSP3       010VISTA          000000000134000000001340000000013250000000000000000001330000001407500
0202LOTE PADRAO                   BRASKEM     PNA*       BRKM5       010VISTA          000000000415000000004298000000040500000000000000000004150000000216600
0202LOTE PADRAO                   EMBRAER     PN EJ      EMBR4       010VISTA          000000000011900000000123000000001180000000000000000000123000000068700
0202LOTE PADRAO                   TELESP      PN * EJ    TLPP4       010VISTA          000000000030100000000310000000002980000000000000000000310000005958300
0202LOTE PADRAO                   EMBRAER     ON EJ      EMBR3       010VISTA          000000000010300000000105000000001010000000000000000000104000000028700
0202LOTE PADRAO                   AMBEV       PN *       AMBV4       010VISTA          000000000485500000004920000000048550000000000000000004900000001705200
0202LOTE PADRAO                   USIMINAS    PNA        USIM5       010VISTA          000000000006000000000061000000000590000000000000000000061000000039800
0202LOTE PADRAO                   ELETROPAULO PN *       ELPL4       010VISTA          000000000078400000000805000000007840000000000000000000805000006685300
0202LOTE PADRAO                   TELE NORD CLPN *       TNEP4       010VISTA          000000000003200000000033000000000325000000000000000000033000099704700
0202LOTE PADRAO                   CEMIG       PN * EJ    CMIG4       010VISTA          000000000030500000000319000000003050000000000000000000319000051030700
0202LOTE PADRAO                   TELE CL SUL PN * EJ    TCSL4       010VISTA          000000000003700000000038000000000370000000000000000000037700114296000
0202LOTE PADRAO                   CEMIG       ON * EJ    CMIG3       010VISTA          000000000028000000000290000000002780000000000000000000290000002260000
0202LOTE PADRAO                   TELE CL SUL ON * EJ    TCSL3       010VISTA          000000000003000000000031000000000300000000000000000000030000135501000
0202LOTE PADRAO                   ITAUSA      PN         ITSA4       010VISTA          000000000002100000000021000000000210000000000000000000021000000426900
0202LOTE PADRAO                   V C P       PN *       VCPA4       010VISTA          000000000078400000000813000000007840000000000000000000813000000963400
0202LOTE PADRAO                   SID TUBARAO PN *       CSTB4       010VISTA          000000000020500000000217000000002010000000000000000000205000003131500
0202LOTE PADRAO                   BRADESPAR   PN *       BRAP4       010VISTA          000000000000820000000008500000000082000000000000000000008500235248000
0202LOTE PADRAO                   NET         PN         PLIM4       010VISTA          000000000000780000000008000000000076000000000000000000007900000919700
0202LOTE PADRAO                   TELE CTR OESPN * EJ    TCOC4       010VISTA          000000000005700000000057000000000560000000000000000000057000120371000
0202LOTE PADRAO                   TELEMAR N L PNA* EJ    TMAR5       010VISTA          000000000054500000000553000000005450000000000000000000552000055952500
0202LOTE PADRAO                   GERDAU      PN * EJ    GGBR4       010VISTA          000000000022000000000230000000002200000000000000000000228000016638900
0202LOTE PADRAO                   BRASIL      ON *       BBAS3       010VISTA          000000000009600000000096000000000910000000000000000000095000005948700
