00BDIN9999BOVESPA 99992001071620010716
0101IBOVESPA                      0140810138110141200000000000000000002001071600000020010716013811000000
0202LOTE PADRAO                   EMBRATEL PARPN *       EBTP4       010VISTA          000000000014600000000149000000001375000000000000000000138000075714300
0202LOTE PADRAO                   EMBRATEL PARON *       EBTP3       010VISTA          000000000014900000000149000000001450000000000000000000145000023649400
0202LOTE PADRAO                   TRAN PAULISTPN * EJ    TRPL4       010VISTA          000000000006100000000063000000000600000000000000000000061000004914000
0202LOTE PADRAO                   TELEMAR     PN * EJ    TNLP4       010VISTA          000000000034400000000347000000003360000000000000000000336000217316000
0202LOTE PADRAO                   ITAUBANCO   PN * EJ    ITAU4       010VISTA          000000000192500000001925000000018650000000000000000001865000004340600
0202LOTE PADRAO                   TELEMAR     ON * EJ    TNLP3       010VISTA          000000000028500000000289000000002750000000000000000000283000006766800
0202LOTE PADRAO                   SID NACIONALON *       CSNA3       010VISTA          000000000038500000000395000000003770000000000000000000389000001630700
0202LOTE PADRAO                   TELE LEST CLPN *       TLCP4       010VISTA          000000000001600000000017400000000160000000000000000000017000047985800
0202LOTE PADRAO                   CRT CELULAR PNA* EJ    CRTP5       010VISTA          000000000831000000008310000000080100000000000000000008100000000563000
0202LOTE PADRAO                   IPIRANGA PETPN *       PTIP4       010VISTA          000000000016300000000163000000001600000000000000000000161000002408800
0202LOTE PADRAO                   BRASIL T PARPN *       BRTP4       010VISTA          000000000018400000000186000000001760000000000000000000176000061989100
0202LOTE PADRAO                   BRASIL T PARON *       BRTP3       010VISTA          000000000017000000000170000000001650000000000000000000168000010146900
0202LOTE PADRAO                   ACESITA     PN *       ACES4       010VISTA          000000000000650000000006500000000063000000000000000000006300075304700
0202LOTE PADRAO                   PETROBRAS   PN         PETR4       010VISTA          000000000054000000000543000000005200000000000000000000522000000087800
0202LOTE PADRAO                   ELETROBRAS  PNB*       ELET6       010VISTA          000000000028300000000287000000002780000000000000000000278000044337200
0202LOTE PADRAO                   PETROBRAS   ON         PETR3       010VISTA          000000000060000000000600000000005720000000000000000000572000000020700
0202LOTE PADRAO                   COMGAS      PNA*       CGAS5       010VISTA          000000000136000000001374000000013300000000000000000001369000002866700
0202LOTE PADRAO                   SOUZA CRUZ  ON EJ      CRUZ3       010VISTA          000000000011100000000113000000001110000000000000000000111000000009300
0202LOTE PADRAO                   ELETROBRAS  ON *       ELET3       010VISTA          000000000032000000000326000000003160000000000000000000320000012647300
0202LOTE PADRAO                   CELESC      PNB        CLSC6       010VISTA          000000000000430000000004400000000042000000000000000000004400000045300
0202LOTE PADRAO                   BRADESCO    PN * EJ    BBDC4       010VISTA          000000000011900000000120000000001160000000000000000000116000115677000
0202LOTE PADRAO                   CESP        PN *       CESP4       010VISTA          000000000013000000000135000000001290000000000000000000131000005908200
0202LOTE PADRAO                   LIGHT       ON *       LIGH3       010VISTA          000000000117000000001240000000011690000000000000000001210000000158300
0202LOTE PADRAO                   TELESP CL PAPN *       TSPP4       010VISTA          000000000013500000000138000000001310000000000000000000131000067234300
0202LOTE PADRAO                   VALE R DOCE PNA        VALE5       010VISTA          000000000053100000000533000000005220000000000000000000522000000013300
0202LOTE PADRAO                   COPEL       PNB*       CPLE6       010VISTA          000000000018800000000191000000001770000000000000000000177000042020000
0202LOTE PADRAO                   VALE R DOCE ON         VALE3       010VISTA          000000000051500000000515000000005110000000000000000000512000000000500
0202LOTE PADRAO                   ARACRUZ     PNB        ARCZ6       010VISTA          000000000004300000000044000000000420000000000000000000042000000029000
0202LOTE PADRAO                   TELEMIG PARTPN *       TMCP4       010VISTA          000000000004500000000045000000000440000000000000000000044000030964400
0202LOTE PADRAO                   BRASIL TELECPN *       BRTO4       010VISTA          000000000012800000000128000000001240000000000000000000125000055993700
0202LOTE PADRAO                   SABESP      ON *       SBSP3       010VISTA          000000000149100000001520000000014900000000000000000001500000000335000
0202LOTE PADRAO                   BRASKEM     PNA*       BRKM5       010VISTA          000000000585000000005850000000054500000000000000000005450000000120600
0202LOTE PADRAO                   EMBRAER     PN EJ      EMBR4       010VISTA          000000000022600000000226000000002180000000000000000000218000000008000
0202LOTE PADRAO                   TELESP      PN * EJ    TLPP4       010VISTA          000000000024500000000246000000002390000000000000000000241000003570200
0202LOTE PADRAO                   EMBRAER     ON EJ      EMBR3       010VISTA          000000000017100000000171000000001660000000000000000000168000000016300
0202LOTE PADRAO                   AMBEV       PN *       AMBV4       010VISTA          000000000516000000005240000000050900000000000000000005090000000519100
0202LOTE PADRAO                   USIMINAS    PNA        USIM5       010VISTA          000000000006000000000061000000000600000000000000000000060000000012500
0202LOTE PADRAO                   ELETROPAULO PN *       ELPL4       010VISTA          000000000064400000000650000000006310000000000000000000640000006642000
0202LOTE PADRAO                   TELE NORD CLPN *       TNEP4       010VISTA          000000000003800000000038000000000370000000000000000000037000054777300
0202LOTE PADRAO                   CEMIG       PN * EJ    CMIG4       010VISTA          000000000026800000000271000000002660000000000000000000268000026631000
0202LOTE PADRAO                   TELE CL SUL PN * EJ    TCSL4       010VISTA          000000000004400000000045000000000430000000000000000000045000027865900
0202LOTE PADRAO                   CEMIG       ON * EJ    CMIG3       010VISTA          000000000025100000000261000000002500000000000000000000255000000430000
0202LOTE PADRAO                   TELE CL SUL ON * EJ    TCSL3       010VISTA          000000000003500000000035000000000340000000000000000000035000009700200
0202LOTE PADRAO                   ITAUSA      PN         ITSA4       010VISTA          000000000002000000000020000000000200000000000000000000020000000299100
0202LOTE PADRAO                   SID TUBARAO PN *       CSTB4       010VISTA          000000000021200000000216000000002100000000000000000000216000004280000
0202LOTE PADRAO                   V C P       PN *       VCPA4       010VISTA          000000000062000000000620000000006100000000000000000000618000001793000
0202LOTE PADRAO                   BRADESPAR   PN *       BRAP4       010VISTA          000000000000820000000008600000000082000000000000000000008500093096800
0202LOTE PADRAO                   NET         PN         PLIM4       010VISTA          000000000001100000000011000000000100000000000000000000010000000685100
0202LOTE PADRAO                   TELE CTR OESPN * EJ    TCOC4       010VISTA          000000000006100000000062000000000600000000000000000000060000020045900
0202LOTE PADRAO                   GERDAU      PN * EJ    GGBR4       010VISTA          000000000016300000000166000000001610000000000000000000163000002847200
0202LOTE PADRAO                   BRASIL      ON *       BBAS3       010VISTA          000000000009300000000094000000000900000000000000000000091000001897400
