00BDIN9999BOVESPA 99992001011020010110
0101IBOVESPA                      0169640167010170930000000000000000002001011000000020010110016919000000
0202LOTE PADRAO                   EMBRATEL PARPN *       EBTP4       010VISTA          000000000033000000000336000000003210000000000000000000330000075008700
0202LOTE PADRAO                   EMBRATEL PARON *       EBTP3       010VISTA          000000000025300000000265000000002510000000000000000000262000023881700
0202LOTE PADRAO                   TRAN PAULISTPN * EJ    TRPL4       010VISTA          000000000007500000000079000000000750000000000000000000076000029451200
0202LOTE PADRAO                   TELEMAR     PN * EJ    TNLP4       010VISTA          000000000046700000000477000000004620000000000000000000473000190434000
0202LOTE PADRAO                   ITAUBANCO   PN * EJ    ITAU4       010VISTA          000000000186900000001890000000018590000000000000000001885000009130600
0202LOTE PADRAO                   TELEMAR     ON * EJ    TNLP3       010VISTA          000000000036600000000367500000003550000000000000000000361000014643500
0202LOTE PADRAO                   SID NACIONALON *       CSNA3       010VISTA          000000000064000000000647000000006370000000000000000000644000015425900
0202LOTE PADRAO                   TELE LEST CLPN *       TLCP4       010VISTA          000000000001470000000014800000000140000000000000000000014000062651100
0202LOTE PADRAO                   CRT CELULAR PNA* EJ    CRTP5       010VISTA          000000000721000000007500000000072000000000000000000007400000000697300
0202LOTE PADRAO                   IPIRANGA PETPN *       PTIP4       010VISTA          000000000017300000000173000000001700000000000000000000170000014214000
0202LOTE PADRAO                   BRASIL T PARPN *       BRTP4       010VISTA          000000000023800000000243000000002350000000000000000000238000092929400
0202LOTE PADRAO                   BRASIL T PARON *       BRTP3       010VISTA          000000000019800000000200000000001910000000000000000000198000059118600
0202LOTE PADRAO                   ACESITA     PN *       ACES4       010VISTA          000000000001100000000011000000000110000000000000000000011000206559000
0202LOTE PADRAO                   PETROBRAS   PN         PETR4       010VISTA          000000000050200000000507000000004960000000000000000000500000000122700
0202LOTE PADRAO                   ELETROBRAS  PNB*       ELET6       010VISTA          000000000035700000000360000000003500000000000000000000358000058783100
0202LOTE PADRAO                   PETROBRAS   ON         PETR3       010VISTA          000000000052900000000532000000005220000000000000000000525000000023500
0202LOTE PADRAO                   COMGAS      PNA*       CGAS5       010VISTA          000000000130000000001324000000012980000000000000000001315000015723300
0202LOTE PADRAO                   SOUZA CRUZ  ON EJ      CRUZ3       010VISTA          000000000009400000000094000000000930000000000000000000093000000009600
0202LOTE PADRAO                   ELETROBRAS  ON *       ELET3       010VISTA          000000000037300000000377000000003670000000000000000000373000025208000
0202LOTE PADRAO                   CELESC      PNB        CLSC6       010VISTA          000000000000630000000006500000000062000000000000000000006500000402500
0202LOTE PADRAO                   BRADESCO    PN * EJ    BBDC4       010VISTA          000000000013900000000139000000001350000000000000000000135000002470600
0202LOTE PADRAO                   CESP        PN *       CESP4       010VISTA          000000000021000000000220000000002100000000000000000000219000022841000
0202LOTE PADRAO                   LIGHT       ON *       LIGH3       010VISTA          000000000244000000002480000000024100000000000000000002410000000894700
0202LOTE PADRAO                   TELESP CL PAPN *       TSPP4       010VISTA          000000000022800000000230000000002250000000000000000000225000091414900
0202LOTE PADRAO                   VALE R DOCE PNA        VALE5       010VISTA          000000000047700000000478000000004710000000000000000000475000000029400
0202LOTE PADRAO                   COPEL       PNB*       CPLE6       010VISTA          000000000018300000000189000000001700000000000000000000174000085061500
0202LOTE PADRAO                   VALE R DOCE ON         VALE3       010VISTA          000000000044000000000440000000004350000000000000000000439000000004300
0202LOTE PADRAO                   ARACRUZ     PNB        ARCZ6       010VISTA          000000000003250000000032000000000300000000000000000000032000000176600
0202LOTE PADRAO                   TELEMIG PARTPN *       TMCP4       010VISTA          000000000005700000000059000000000575000000000000000000058000091807600
0202LOTE PADRAO                   BRASIL TELECPN *       BRTO4       010VISTA          000000000017600000000178000000001730000000000000000000175000068357600
0202LOTE PADRAO                   SABESP      ON *       SBSP3       010VISTA          000000000190000000001969000000018890000000000000000001920000003226400
0202LOTE PADRAO                   BRASKEM     PNA*       BRKM5       010VISTA          000000000630000000006300000000062500000000000000000006300000000191900
0202LOTE PADRAO                   EMBRAER     PN EJ      EMBR4       010VISTA          000000000019800000000201000000001930000000000000000000201000000035100
0202LOTE PADRAO                   TELESP      PN * EJ    TLPP4       010VISTA          000000000027100000000272500000002660000000000000000000266000014311500
0202LOTE PADRAO                   EMBRAER     ON EJ      EMBR3       010VISTA          000000000015500000000157000000001500000000000000000000155000000088000
0202LOTE PADRAO                   AMBEV       PN *       AMBV4       010VISTA          000000000470000000004750000000046500000000000000000004750000002880400
0202LOTE PADRAO                   USIMINAS    PNA        USIM5       010VISTA          000000000010000000000105000000001000000000000000000000101000000057600
0202LOTE PADRAO                   ELETROPAULO PN *       ELPL4       010VISTA          000000000098000000001050000000009800000000000000000001039000003339000
0202LOTE PADRAO                   TELE NORD CLPN *       TNEP4       010VISTA          000000000004500000000045000000000440000000000000000000045000074942900
0202LOTE PADRAO                   CEMIG       PN * EJ    CMIG4       010VISTA          000000000031900000000323000000003150000000000000000000323000038914600
0202LOTE PADRAO                   TELE CL SUL PN * EJ    TCSL4       010VISTA          000000000005500000000055000000000540000000000000000000055000062127300
0202LOTE PADRAO                   CEMIG       ON * EJ    CMIG3       010VISTA          000000000024500000000273000000002450000000000000000000265000008312900
0202LOTE PADRAO                   TELE CL SUL ON * EJ    TCSL3       010VISTA          000000000004700000000049000000000450000000000000000000048000018262500
0202LOTE PADRAO                   ITAUSA      PN         ITSA4       010VISTA          000000000001970000000020000000000197000000000000000000020000000284200
0202LOTE PADRAO                   SID TUBARAO PN *       CSTB4       010VISTA          000000000023000000000231000000002260000000000000000000228000011871000
0202LOTE PADRAO                   V C P       PN *       VCPA4       010VISTA          000000000059000000000603000000005900000000000000000000595000004576600
0202LOTE PADRAO                   BRADESPAR   PN *       BRAP4       010VISTA          000000000001200000000012000000000110000000000000000000012000561715000
0202LOTE PADRAO                   NET         PN         PLIM4       010VISTA          000000000002200000000023000000000225000000000000000000022000001202300
0202LOTE PADRAO                   TELE CTR OESPN * EJ    TCOC4       010VISTA          000000000007600000000079000000000750000000000000000000077000054480700
0202LOTE PADRAO                   GERDAU      PN * EJ    GGBR4       010VISTA          000000000019500000000199000000001930000000000000000000197000011914100
0202LOTE PADRAO                   BRASIL      ON *       BBAS3       010VISTA          000000000007700000000081000000000740000000000000000000079000032959600
