00BDIN9999BOVESPA 99992001122020011220
0101IBOVESPA                      0132710128090132710000000000000000002001122000000020011220012918000000
0202LOTE PADRAO                   EMBRATEL PARPN *       EBTP4       010VISTA          000000000009400000000095000000000890000000000000000000090000147634000
0202LOTE PADRAO                   EMBRATEL PARON *       EBTP3       010VISTA          000000000010300000000107000000000990000000000000000000100000063431900
0202LOTE PADRAO                   TRAN PAULISTPN * EJ    TRPL4       010VISTA          000000000006000000000062000000000590000000000000000000060000012996200
0202LOTE PADRAO                   TELEMAR     PN * EJ    TNLP4       010VISTA          000000000035200000000358000000003370000000000000000000343000288025000
0202LOTE PADRAO                   ITAUBANCO   PN * EJ    ITAU4       010VISTA          000000000174000000001740000000016950000000000000000001720000009162900
0202LOTE PADRAO                   TELEMAR     ON * EJ    TNLP3       010VISTA          000000000030300000000309000000002880000000000000000000294000021006600
0202LOTE PADRAO                   SID NACIONALON *       CSNA3       010VISTA          000000000035800000000358000000003470000000000000000000352000011229800
0202LOTE PADRAO                   TELE LEST CLPN *       TLCP4       010VISTA          000000000000860000000008800000000085000000000000000000008600131166000
0202LOTE PADRAO                   CRT CELULAR PNA* EJ    CRTP5       010VISTA          000000000465000000004700000000045000000000000000000004590000001135400
0202LOTE PADRAO                   IPIRANGA PETPN *       PTIP4       010VISTA          000000000012200000000122000000001180000000000000000000120000004060000
0202LOTE PADRAO                   BRASIL T PARPN *       BRTP4       010VISTA          000000000018600000000191000000001790000000000000000000180000078435400
0202LOTE PADRAO                   BRASIL T PARON *       BRTP3       010VISTA          000000000018500000000187000000001780000000000000000000181000024088400
0202LOTE PADRAO                   ACESITA     PN *       ACES4       010VISTA          000000000000700000000007100000000068000000000000000000006800195472000
0202LOTE PADRAO                   PETROBRAS   PN         PETR4       010VISTA          000000000048500000000487000000004740000000000000000000478000000118900
0202LOTE PADRAO                   ELETROBRAS  PNB*       ELET6       010VISTA          000000000028000000000283000000002750000000000000000000278000093433000
0202LOTE PADRAO                   PETROBRAS   ON         PETR3       010VISTA          000000000050700000000507000000004880000000000000000000491000000059500
0202LOTE PADRAO                   COMGAS      PNA*       CGAS5       010VISTA          000000000089900000000905000000008650000000000000000000874000001089100
0202LOTE PADRAO                   SOUZA CRUZ  ON EJ      CRUZ3       010VISTA          000000000013600000000139000000001340000000000000000000139000000012400
0202LOTE PADRAO                   ELETROBRAS  ON *       ELET3       010VISTA          000000000029200000000292000000002830000000000000000000287000054999500
0202LOTE PADRAO                   CELESC      PNB        CLSC6       010VISTA          000000000000440000000004400000000042000000000000000000004400000140900
0202LOTE PADRAO                   BRADESCO    PN * EJ    BBDC4       010VISTA          000000000011300000000115000000001120000000000000000000114000164254000
0202LOTE PADRAO                   CESP        PN *       CESP4       010VISTA          000000000016300000000165000000001510000000000000000000151000018143800
0202LOTE PADRAO                   LIGHT       ON *       LIGH3       010VISTA          000000000115000000001150000000010990000000000000000001105000000300600
0202LOTE PADRAO                   TELESP CL PAPN *       TSPP4       010VISTA          000000000008000000000082000000000790000000000000000000080000343364000
0202LOTE PADRAO                   VALE R DOCE PNA        VALE5       010VISTA          000000000053100000000531000000005170000000000000000000524000000051200
0202LOTE PADRAO                   COPEL       PNB*       CPLE6       010VISTA          000000000016000000000169000000001600000000000000000000166000075100900
0202LOTE PADRAO                   VALE R DOCE ON         VALE3       010VISTA          000000000050700000000507000000004900000000000000000000495000000002200
0202LOTE PADRAO                   ARACRUZ     PNB        ARCZ6       010VISTA          000000000004250000000042500000000400000000000000000000042000000067700
0202LOTE PADRAO                   TELEMIG PARTPN *       TMCP4       010VISTA          000000000003960000000040000000000380000000000000000000038000101457000
0202LOTE PADRAO                   BRASIL TELECPN *       BRTO4       010VISTA          000000000013000000000132000000001250000000000000000000127000087579400
0202LOTE PADRAO                   SABESP      ON *       SBSP3       010VISTA          000000000133000000001359000000013200000000000000000001326000001367900
0202LOTE PADRAO                   BRASKEM     PNA*       BRKM5       010VISTA          000000000445000000004510000000043910000000000000000004391000000267000
0202LOTE PADRAO                   EMBRAER     PN EJ      EMBR4       010VISTA          000000000012300000000125000000001190000000000000000000125000000139900
0202LOTE PADRAO                   TELESP      PN * EJ    TLPP4       010VISTA          000000000030100000000306000000003000000000000000000000303000006971800
0202LOTE PADRAO                   EMBRAER     ON EJ      EMBR3       010VISTA          000000000011100000000113000000001080000000000000000000108000000037400
0202LOTE PADRAO                   AMBEV       PN *       AMBV4       010VISTA          000000000467000000004740000000046700000000000000000004730000002458600
0202LOTE PADRAO                   USIMINAS    PNA        USIM5       010VISTA          000000000006000000000060000000000570000000000000000000059000000063600
0202LOTE PADRAO                   ELETROPAULO PN *       ELPL4       010VISTA          000000000075000000000779000000007300000000000000000000777000002436300
0202LOTE PADRAO                   TELE NORD CLPN *       TNEP4       010VISTA          000000000003200000000032000000000300000000000000000000031000069513000
0202LOTE PADRAO                   CEMIG       PN * EJ    CMIG4       010VISTA          000000000032800000000337000000003280000000000000000000337000063835600
0202LOTE PADRAO                   TELE CL SUL PN * EJ    TCSL4       010VISTA          000000000003500000000036000000000340000000000000000000035200070891900
0202LOTE PADRAO                   CEMIG       ON * EJ    CMIG3       010VISTA          000000000029000000000298000000002850000000000000000000295000003061900
0202LOTE PADRAO                   TELE CL SUL ON * EJ    TCSL3       010VISTA          000000000003000000000030000000000280000000000000000000029600019698100
0202LOTE PADRAO                   ITAUSA      PN         ITSA4       010VISTA          000000000002100000000021000000000210000000000000000000021000000395000
0202LOTE PADRAO                   V C P       PN *       VCPA4       010VISTA          000000000075500000000765000000007250000000000000000000760000005891900
0202LOTE PADRAO                   SID TUBARAO PN *       CSTB4       010VISTA          000000000021800000000218000000002050000000000000000000212000005913000
0202LOTE PADRAO                   BRADESPAR   PN *       BRAP4       010VISTA          000000000000840000000008400000000082000000000000000000008200324642000
0202LOTE PADRAO                   NET         PN         PLIM4       010VISTA          000000000000790000000008000000000077000000000000000000007800003672200
0202LOTE PADRAO                   TELE CTR OESPN * EJ    TCOC4       010VISTA          000000000005200000000054000000000510000000000000000000052000123696000
0202LOTE PADRAO                   TELEMAR N L PNA* EJ    TMAR5       010VISTA          000000000056500000000572000000005600000000000000000000564000048880100
0202LOTE PADRAO                   GERDAU      PN * EJ    GGBR4       010VISTA          000000000022000000000221000000002060000000000000000000216000022430500
0202LOTE PADRAO                   BRASIL      ON *       BBAS3       010VISTA          000000000010400000000106000000000960000000000000000000098000003352400
