00BDIN9999BOVESPA 99992001080620010806
0101IBOVESPA                      0138560138540140670000000000000000002001080600000020010806014047000000
0202LOTE PADRAO                   EMBRATEL PARPN *       EBTP4       010VISTA          000000000013100000000132500000001280000000000000000000130000055691400
0202LOTE PADRAO                   EMBRATEL PARON *       EBTP3       010VISTA          000000000014000000000141000000001375000000000000000000139000016842200
0202LOTE PADRAO                   TRAN PAULISTPN * EJ    TRPL4       010VISTA          000000000006300000000065000000000630000000000000000000064000007584000
0202LOTE PADRAO                   TELEMAR     PN * EJ    TNLP4       010VISTA          000000000032200000000330000000003200000000000000000000328000149266000
0202LOTE PADRAO                   ITAUBANCO   PN * EJ    ITAU4       010VISTA          000000000187000000001939000000018700000000000000000001939000007090700
0202LOTE PADRAO                   TELEMAR     ON * EJ    TNLP3       010VISTA          000000000028500000000290000000002810000000000000000000288000006387700
0202LOTE PADRAO                   SID NACIONALON *       CSNA3       010VISTA          000000000041000000000410000000003960000000000000000000401000002335100
0202LOTE PADRAO                   TELE LEST CLPN *       TLCP4       010VISTA          000000000001500000000015000000000154000000000000000000015000041110400
0202LOTE PADRAO                   CRT CELULAR PNA* EJ    CRTP5       010VISTA          000000000960000000009600000000095000000000000000000009500000000962900
0202LOTE PADRAO                   IPIRANGA PETPN *       PTIP4       010VISTA          000000000015900000000159000000001500000000000000000000156000000711600
0202LOTE PADRAO                   BRASIL T PARPN *       BRTP4       010VISTA          000000000018300000000188000000001830000000000000000000186000021751800
0202LOTE PADRAO                   BRASIL T PARON *       BRTP3       010VISTA          000000000017500000000185000000001750000000000000000000181000005255000
0202LOTE PADRAO                   ACESITA     PN *       ACES4       010VISTA          000000000000580000000005900000000057000000000000000000005800145260000
0202LOTE PADRAO                   PETROBRAS   PN         PETR4       010VISTA          000000000053300000000539000000005300000000000000000000535000000058900
0202LOTE PADRAO                   ELETROBRAS  PNB*       ELET6       010VISTA          000000000031300000000322000000003100000000000000000000320000022604200
0202LOTE PADRAO                   PETROBRAS   ON         PETR3       010VISTA          000000000058000000000583000000005730000000000000000000573000000020300
0202LOTE PADRAO                   COMGAS      PNA*       CGAS5       010VISTA          000000000136000000001379000000013250000000000000000001325000000569200
0202LOTE PADRAO                   SOUZA CRUZ  ON EJ      CRUZ3       010VISTA          000000000010600000000106000000001040000000000000000000105000000054300
0202LOTE PADRAO                   ELETROBRAS  ON *       ELET3       010VISTA          000000000035500000000364000000003550000000000000000000363000021925800
0202LOTE PADRAO                   CELESC      PNB        CLSC6       010VISTA          000000000000440000000004400000000042000000000000000000004300000177500
0202LOTE PADRAO                   BRADESCO    PN * EJ    BBDC4       010VISTA          000000000011800000000123000000001180000000000000000000123000174684000
0202LOTE PADRAO                   CESP        PN *       CESP4       010VISTA          000000000013000000000131000000001260000000000000000000128000011619400
0202LOTE PADRAO                   LIGHT       ON *       LIGH3       010VISTA          000000000114500000001160000000011450000000000000000001150000000197000
0202LOTE PADRAO                   TELESP CL PAPN *       TSPP4       010VISTA          000000000015000000000151000000001500000000000000000000151000042605500
0202LOTE PADRAO                   VALE R DOCE PNA        VALE5       010VISTA          000000000052300000000525000000005200000000000000000000521000000017200
0202LOTE PADRAO                   COPEL       PNB*       CPLE6       010VISTA          000000000018000000000181000000001775000000000000000000178000039314800
0202LOTE PADRAO                   VALE R DOCE ON         VALE3       010VISTA          000000000052200000000525000000005210000000000000000000522000000001700
0202LOTE PADRAO                   ARACRUZ     PNB        ARCZ6       010VISTA          000000000003800000000039800000000370000000000000000000038000000030800
0202LOTE PADRAO                   TELEMIG PARTPN *       TMCP4       010VISTA          000000000004400000000044000000000430000000000000000000043000036643500
0202LOTE PADRAO                   BRASIL TELECPN *       BRTO4       010VISTA          000000000012800000000129000000001250000000000000000000129000040349900
0202LOTE PADRAO                   SABESP      ON *       SBSP3       010VISTA          000000000166000000001695000000016600000000000000000001686000000441100
0202LOTE PADRAO                   BRASKEM     PNA*       BRKM5       010VISTA          000000000523000000005230000000051300000000000000000005198000000884800
0202LOTE PADRAO                   EMBRAER     PN EJ      EMBR4       010VISTA          000000000022800000000230000000002260000000000000000000228000000008500
0202LOTE PADRAO                   TELESP      PN * EJ    TLPP4       010VISTA          000000000025100000000253000000002500000000000000000000252000009410000
0202LOTE PADRAO                   EMBRAER     ON EJ      EMBR3       010VISTA          000000000017600000000178000000001760000000000000000000176000000002800
0202LOTE PADRAO                   AMBEV       PN *       AMBV4       010VISTA          000000000509900000005099000000050000000000000000000005074000001238200
0202LOTE PADRAO                   USIMINAS    PNA        USIM5       010VISTA          000000000006400000000064000000000640000000000000000000064000000046100
0202LOTE PADRAO                   ELETROPAULO PN *       ELPL4       010VISTA          000000000064200000000650000000006420000000000000000000647000005944000
0202LOTE PADRAO                   TELE NORD CLPN *       TNEP4       010VISTA          000000000003200000000033000000000325000000000000000000033000065046000
0202LOTE PADRAO                   CEMIG       PN * EJ    CMIG4       010VISTA          000000000026500000000268000000002640000000000000000000268000012466700
0202LOTE PADRAO                   TELE CL SUL PN * EJ    TCSL4       010VISTA          000000000004000000000040000000000390000000000000000000040000046452800
0202LOTE PADRAO                   CEMIG       ON * EJ    CMIG3       010VISTA          000000000026900000000270000000002630000000000000000000263000000820000
0202LOTE PADRAO                   TELE CL SUL ON * EJ    TCSL3       010VISTA          000000000003400000000035000000000330000000000000000000034000041401900
0202LOTE PADRAO                   ITAUSA      PN         ITSA4       010VISTA          000000000002000000000020000000000200000000000000000000020000000243100
0202LOTE PADRAO                   SID TUBARAO PN *       CSTB4       010VISTA          000000000020000000000200000000001960000000000000000000199000004654200
0202LOTE PADRAO                   V C P       PN *       VCPA4       010VISTA          000000000063000000000660000000006300000000000000000000650000004574100
0202LOTE PADRAO                   BRADESPAR   PN *       BRAP4       010VISTA          000000000000800000000008100000000078000000000000000000008100134078000
0202LOTE PADRAO                   NET         PN         PLIM4       010VISTA          000000000001000000000011000000000100000000000000000000010000001544600
0202LOTE PADRAO                   TELE CTR OESPN * EJ    TCOC4       010VISTA          000000000006000000000060000000000590000000000000000000060000024177000
0202LOTE PADRAO                   GERDAU      PN * EJ    GGBR4       010VISTA          000000000017400000000176000000001730000000000000000000173000003937200
0202LOTE PADRAO                   BRASIL      ON *       BBAS3       010VISTA          000000000009600000000096000000000910000000000000000000094000003967300
