00BDIN9999BOVESPA 99992001030920010309
0101IBOVESPA                      0162330160180162480000000000000000002001030900000020010309016123000000
0202LOTE PADRAO                   EMBRATEL PARPN *       EBTP4       010VISTA          000000000026500000000266000000002600000000000000000000266000048876500
0202LOTE PADRAO                   EMBRATEL PARON *       EBTP3       010VISTA          000000000021500000000215000000002000000000000000000000205000048164400
0202LOTE PADRAO                   TRAN PAULISTPN * EJ    TRPL4       010VISTA          000000000008600000000089000000000850000000000000000000089000008904700
0202LOTE PADRAO                   TELEMAR     PN * EJ    TNLP4       010VISTA          000000000043000000000431000000004220000000000000000000425000148448000
0202LOTE PADRAO                   ITAUBANCO   PN * EJ    ITAU4       010VISTA          000000000180000000001810000000017950000000000000000001800000006966300
0202LOTE PADRAO                   TELEMAR     ON * EJ    TNLP3       010VISTA          000000000032200000000330000000003200000000000000000000323000013649100
0202LOTE PADRAO                   SID NACIONALON *       CSNA3       010VISTA          000000000071000000000710000000006940000000000000000000700000007076500
0202LOTE PADRAO                   TELE LEST CLPN *       TLCP4       010VISTA          000000000001720000000017400000000169000000000000000000017300140038000
0202LOTE PADRAO                   CRT CELULAR PNA* EJ    CRTP5       010VISTA          000000000950000000009730000000095000000000000000000009600000000958500
0202LOTE PADRAO                   IPIRANGA PETPN *       PTIP4       010VISTA          000000000014300000000148000000001430000000000000000000148000001265500
0202LOTE PADRAO                   BRASIL T PARPN *       BRTP4       010VISTA          000000000021100000000215000000002060000000000000000000207000050070700
0202LOTE PADRAO                   BRASIL T PARON *       BRTP3       010VISTA          000000000018600000000188000000001800000000000000000000180000019910500
0202LOTE PADRAO                   ACESITA     PN *       ACES4       010VISTA          000000000001000000000010000000000100000000000000000000010000145513000
0202LOTE PADRAO                   PETROBRAS   PN         PETR4       010VISTA          000000000057100000000572000000005640000000000000000000571000000060200
0202LOTE PADRAO                   ELETROBRAS  PNB*       ELET6       010VISTA          000000000039000000000411000000003900000000000000000000410000099793400
0202LOTE PADRAO                   PETROBRAS   ON         PETR3       010VISTA          000000000059300000000595000000005870000000000000000000591000000038800
0202LOTE PADRAO                   COMGAS      PNA*       CGAS5       010VISTA          000000000145500000001479000000014050000000000000000001440000002765800
0202LOTE PADRAO                   SOUZA CRUZ  ON EJ      CRUZ3       010VISTA          000000000012600000000127500000001250000000000000000000127500000054400
0202LOTE PADRAO                   ELETROBRAS  ON *       ELET3       010VISTA          000000000041800000000440000000004130000000000000000000432000053011000
0202LOTE PADRAO                   CELESC      PNB        CLSC6       010VISTA          000000000000630000000006400000000062000000000000000000006200000172000
0202LOTE PADRAO                   BRADESCO    PN * EJ    BBDC4       010VISTA          000000000012100000000124000000001200000000000000000000123000088381300
0202LOTE PADRAO                   CESP        PN *       CESP4       010VISTA          000000000024900000000253000000002430000000000000000000248000007964200
0202LOTE PADRAO                   LIGHT       ON *       LIGH3       010VISTA          000000000218000000002230000000021790000000000000000002230000000115300
0202LOTE PADRAO                   TELESP CL PAPN *       TSPP4       010VISTA          000000000016400000000168000000001620000000000000000000163000305232000
0202LOTE PADRAO                   VALE R DOCE PNA        VALE5       010VISTA          000000000051000000000512000000005050000000000000000000511000000048300
0202LOTE PADRAO                   COPEL       PNB*       CPLE6       010VISTA          000000000018100000000183000000001800000000000000000000181000014747700
0202LOTE PADRAO                   VALE R DOCE ON         VALE3       010VISTA          000000000047000000000482500000004700000000000000000000480000000001200
0202LOTE PADRAO                   ARACRUZ     PNB        ARCZ6       010VISTA          000000000002900000000030000000000290000000000000000000030000000263800
0202LOTE PADRAO                   TELEMIG PARTPN *       TMCP4       010VISTA          000000000006400000000064000000000600000000000000000000061000023716300
0202LOTE PADRAO                   BRASIL TELECPN *       BRTO4       010VISTA          000000000015000000000151000000001475000000000000000000148000021750500
0202LOTE PADRAO                   SABESP      ON *       SBSP3       010VISTA          000000000211000000002160000000021000000000000000000002116000002818500
0202LOTE PADRAO                   BRASKEM     PNA*       BRKM5       010VISTA          000000000635000000006650000000063000000000000000000006599000000030800
0202LOTE PADRAO                   EMBRAER     PN EJ      EMBR4       010VISTA          000000000020900000000210000000002030000000000000000000204000000015600
0202LOTE PADRAO                   TELESP      PN * EJ    TLPP4       010VISTA          000000000030500000000308000000003000000000000000000000308000006983000
0202LOTE PADRAO                   EMBRAER     ON EJ      EMBR3       010VISTA          000000000016000000000161000000001580000000000000000000159000000021000
0202LOTE PADRAO                   AMBEV       PN *       AMBV4       010VISTA          000000000527000000005270000000050800000000000000000005110000002996400
0202LOTE PADRAO                   USIMINAS    PNA        USIM5       010VISTA          000000000011000000000110000000001090000000000000000000110000000119900
0202LOTE PADRAO                   ELETROPAULO PN *       ELPL4       010VISTA          000000000097400000000974000000009600000000000000000000960000001815700
0202LOTE PADRAO                   TELE NORD CLPN *       TNEP4       010VISTA          000000000003400000000035400000000330000000000000000000035200044992800
0202LOTE PADRAO                   CEMIG       PN * EJ    CMIG4       010VISTA          000000000030900000000313000000003080000000000000000000312000020193200
0202LOTE PADRAO                   TELE CL SUL PN * EJ    TCSL4       010VISTA          000000000004200000000044000000000420000000000000000000044000036812100
0202LOTE PADRAO                   CEMIG       ON * EJ    CMIG3       010VISTA          000000000025000000000260000000002500000000000000000000255000001372600
0202LOTE PADRAO                   TELE CL SUL ON * EJ    TCSL3       010VISTA          000000000003400000000035200000000330000000000000000000035000015715100
0202LOTE PADRAO                   ITAUSA      PN         ITSA4       010VISTA          000000000001900000000019000000000180000000000000000000018000000519000
0202LOTE PADRAO                   SID TUBARAO PN *       CSTB4       010VISTA          000000000020300000000216000000002030000000000000000000208000004141000
0202LOTE PADRAO                   V C P       PN *       VCPA4       010VISTA          000000000057800000000580000000005610000000000000000000577000002645100
0202LOTE PADRAO                   BRADESPAR   PN *       BRAP4       010VISTA          000000000001000000000010000000000100000000000000000000010000118888000
0202LOTE PADRAO                   NET         PN         PLIM4       010VISTA          000000000001600000000016000000000150000000000000000000015000001164800
0202LOTE PADRAO                   TELE CTR OESPN * EJ    TCOC4       010VISTA          000000000007700000000077500000000750000000000000000000076000041105400
0202LOTE PADRAO                   GERDAU      PN * EJ    GGBR4       010VISTA          000000000019000000000198000000001900000000000000000000196000025956200
0202LOTE PADRAO                   BRASIL      ON *       BBAS3       010VISTA          000000000007900000000080000000000770000000000000000000080000001538100
