00BDIN9999BOVESPA 99992001032820010328
0101IBOVESPA                      0148460145740148520000000000000000002001032800000020010328014632000000
0202LOTE PADRAO                   EMBRATEL PARPN *       EBTP4       010VISTA          000000000022200000000222000000002130000000000000000000213000050682300
0202LOTE PADRAO                   EMBRATEL PARON *       EBTP3       010VISTA          000000000018600000000192000000001830000000000000000000188000034769600
0202LOTE PADRAO                   TRAN PAULISTPN * EJ    TRPL4       010VISTA          000000000007500000000076000000000720000000000000000000074000009228200
0202LOTE PADRAO                   TELEMAR     PN * EJ    TNLP4       010VISTA          000000000036500000000367000000003570000000000000000000363000131409000
0202LOTE PADRAO                   ITAUBANCO   PN * EJ    ITAU4       010VISTA          000000000174000000001740000000017150000000000000000001720000004851200
0202LOTE PADRAO                   TELEMAR     ON * EJ    TNLP3       010VISTA          000000000028800000000301000000002860000000000000000000298000029966400
0202LOTE PADRAO                   SID NACIONALON *       CSNA3       010VISTA          000000000045900000000467000000004500000000000000000000459000006035200
0202LOTE PADRAO                   TELE LEST CLPN *       TLCP4       010VISTA          000000000001600000000016000000000153000000000000000000015600128562000
0202LOTE PADRAO                   CRT CELULAR PNA* EJ    CRTP5       010VISTA          000000000895000000009000000000086000000000000000000008750000000208100
0202LOTE PADRAO                   IPIRANGA PETPN *       PTIP4       010VISTA          000000000016500000000165000000001650000000000000000000165000000374600
0202LOTE PADRAO                   BRASIL T PARPN *       BRTP4       010VISTA          000000000018100000000181000000001760000000000000000000178000091639200
0202LOTE PADRAO                   BRASIL T PARON *       BRTP3       010VISTA          000000000017250000000172500000001660000000000000000000170000025401000
0202LOTE PADRAO                   ACESITA     PN *       ACES4       010VISTA          000000000001000000000010000000000099000000000000000000009900152940000
0202LOTE PADRAO                   PETROBRAS   PN         PETR4       010VISTA          000000000048400000000494000000004810000000000000000000483000000049700
0202LOTE PADRAO                   ELETROBRAS  PNB*       ELET6       010VISTA          000000000038000000000383000000003760000000000000000000380000018280800
0202LOTE PADRAO                   PETROBRAS   ON         PETR3       010VISTA          000000000052000000000529000000005150000000000000000000520000000020000
0202LOTE PADRAO                   COMGAS      PNA*       CGAS5       010VISTA          000000000170000000001720000000016900000000000000000001710000001964000
0202LOTE PADRAO                   SOUZA CRUZ  ON EJ      CRUZ3       010VISTA          000000000011000000000113000000001100000000000000000000113000000011300
0202LOTE PADRAO                   ELETROBRAS  ON *       ELET3       010VISTA          000000000040700000000412000000004050000000000000000000407000013529500
0202LOTE PADRAO                   CELESC      PNB        CLSC6       010VISTA          000000000000600000000006000000000058000000000000000000005900000077900
0202LOTE PADRAO                   BRADESCO    PN * EJ    BBDC4       010VISTA          000000000011700000000119000000001150000000000000000000117500062468900
0202LOTE PADRAO                   CESP        PN *       CESP4       010VISTA          000000000022900000000229000000002160000000000000000000224000020408400
0202LOTE PADRAO                   LIGHT       ON *       LIGH3       010VISTA          000000000204000000002040000000020000000000000000000002000000000376300
0202LOTE PADRAO                   TELESP CL PAPN *       TSPP4       010VISTA          000000000013800000000139000000001340000000000000000000135000077613300
0202LOTE PADRAO                   VALE R DOCE PNA        VALE5       010VISTA          000000000052700000000527000000005150000000000000000000525000000025000
0202LOTE PADRAO                   COPEL       PNB*       CPLE6       010VISTA          000000000018500000000185000000001780000000000000000000181000016942600
0202LOTE PADRAO                   VALE R DOCE ON         VALE3       010VISTA          000000000048500000000490000000004800000000000000000000490000000000100
0202LOTE PADRAO                   ARACRUZ     PNB        ARCZ6       010VISTA          000000000002800000000028000000000275000000000000000000027000000015600
0202LOTE PADRAO                   TELEMIG PARTPN *       TMCP4       010VISTA          000000000004600000000046000000000430000000000000000000044000179386000
0202LOTE PADRAO                   BRASIL TELECPN *       BRTO4       010VISTA          000000000012800000000134000000001250000000000000000000126000039997900
0202LOTE PADRAO                   SABESP      ON *       SBSP3       010VISTA          000000000203800000002039000000019700000000000000000001971000000507000
0202LOTE PADRAO                   BRASKEM     PNA*       BRKM5       010VISTA          000000000603000000006030000000059000000000000000000006000000000382200
0202LOTE PADRAO                   EMBRAER     PN EJ      EMBR4       010VISTA          000000000020800000000208000000002010000000000000000000206000000011600
0202LOTE PADRAO                   TELESP      PN * EJ    TLPP4       010VISTA          000000000028600000000286000000002800000000000000000000283000004448200
0202LOTE PADRAO                   EMBRAER     ON EJ      EMBR3       010VISTA          000000000015900000000159000000001575000000000000000000158000000022700
0202LOTE PADRAO                   AMBEV       PN *       AMBV4       010VISTA          000000000539900000005399000000050100000000000000000005010000000474700
0202LOTE PADRAO                   USIMINAS    PNA        USIM5       010VISTA          000000000009000000000093000000000880000000000000000000091000000024500
0202LOTE PADRAO                   ELETROPAULO PN *       ELPL4       010VISTA          000000000086500000000865000000008300000000000000000000840000001813600
0202LOTE PADRAO                   TELE NORD CLPN *       TNEP4       010VISTA          000000000003000000000030000000000280000000000000000000028000063010800
0202LOTE PADRAO                   CEMIG       PN * EJ    CMIG4       010VISTA          000000000027800000000278000000002680000000000000000000275000022989600
0202LOTE PADRAO                   TELE CL SUL PN * EJ    TCSL4       010VISTA          000000000003900000000039000000000370000000000000000000038000144008000
0202LOTE PADRAO                   CEMIG       ON * EJ    CMIG3       010VISTA          000000000024000000000240000000002350000000000000000000236000000096100
0202LOTE PADRAO                   TELE CL SUL ON * EJ    TCSL3       010VISTA          000000000003000000000030000000000290000000000000000000029000038485900
0202LOTE PADRAO                   ITAUSA      PN         ITSA4       010VISTA          000000000001800000000018100000000177000000000000000000018100000234900
0202LOTE PADRAO                   SID TUBARAO PN *       CSTB4       010VISTA          000000000020800000000211000000002010000000000000000000211000002967200
0202LOTE PADRAO                   V C P       PN *       VCPA4       010VISTA          000000000054000000000545000000005400000000000000000000545000000361300
0202LOTE PADRAO                   BRADESPAR   PN *       BRAP4       010VISTA          000000000001000000000010000000000100000000000000000000010000120811000
0202LOTE PADRAO                   NET         PN         PLIM4       010VISTA          000000000001490000000015000000000140000000000000000000014000000478100
0202LOTE PADRAO                   TELE CTR OESPN * EJ    TCOC4       010VISTA          000000000005900000000059000000000570000000000000000000058000030144100
0202LOTE PADRAO                   GERDAU      PN * EJ    GGBR4       010VISTA          000000000020000000000200000000001950000000000000000000198000011984600
0202LOTE PADRAO                   BRASIL      ON *       BBAS3       010VISTA          000000000007200000000074000000000710000000000000000000073000002919100
