00BDIN9999BOVESPA 99992001122820011228
0101IBOVESPA                      0137410135100139690000000000000000002001122800000020011228013578000000
0202LOTE PADRAO                   EMBRATEL PARPN *       EBTP4       010VISTA          000000000009900000000100000000000960000000000000000000099000136833000
0202LOTE PADRAO                   EMBRATEL PARON *       EBTP3       010VISTA          000000000011100000000113000000001050000000000000000000109000014725800
0202LOTE PADRAO                   TRAN PAULISTPN * EJ    TRPL4       010VISTA          000000000006500000000066000000000620000000000000000000065000028348900
0202LOTE PADRAO                   TELEMAR     PN * EJ    TNLP4       010VISTA          000000000036700000000377000000003625000000000000000000365000131380000
0202LOTE PADRAO                   ITAUBANCO   PN * EJ    ITAU4       010VISTA          000000000176900000001770000000017500000000000000000001759000004357500
0202LOTE PADRAO                   TELEMAR     ON * EJ    TNLP3       010VISTA          000000000030000000000319000000003000000000000000000000305000017581300
0202LOTE PADRAO                   SID NACIONALON *       CSNA3       010VISTA          000000000037000000000371000000003650000000000000000000365000004563300
0202LOTE PADRAO                   TELE LEST CLPN *       TLCP4       010VISTA          000000000000970000000009900000000094000000000000000000009700308956000
0202LOTE PADRAO                   CRT CELULAR PNA* EJ    CRTP5       010VISTA          000000000506000000005099000000049500000000000000000004989000001592700
0202LOTE PADRAO                   IPIRANGA PETPN *       PTIP4       010VISTA          000000000013000000000130000000001250000000000000000000125000002276500
0202LOTE PADRAO                   BRASIL T PARPN *       BRTP4       010VISTA          000000000019100000000193000000001820000000000000000000182000069130800
0202LOTE PADRAO                   BRASIL T PARON *       BRTP3       010VISTA          000000000019100000000191000000001780000000000000000000178000032719000
0202LOTE PADRAO                   ACESITA     PN *       ACES4       010VISTA          000000000000720000000007400000000069000000000000000000006900411444000
0202LOTE PADRAO                   PETROBRAS   PN         PETR4       010VISTA          000000000051000000000515000000005060000000000000000000511000000066900
0202LOTE PADRAO                   ELETROBRAS  PNB*       ELET6       010VISTA          000000000031600000000322000000003110000000000000000000311000058630100
0202LOTE PADRAO                   PETROBRAS   ON         PETR3       010VISTA          000000000051800000000527000000005180000000000000000000524000000045000
0202LOTE PADRAO                   COMGAS      PNA*       CGAS5       010VISTA          000000000090500000000915000000009000000000000000000000915000002663600
0202LOTE PADRAO                   SOUZA CRUZ  ON EJ      CRUZ3       010VISTA          000000000014000000000143000000001400000000000000000000141000000028000
0202LOTE PADRAO                   ELETROBRAS  ON *       ELET3       010VISTA          000000000032800000000332000000003280000000000000000000332000015610900
0202LOTE PADRAO                   CELESC      PNB        CLSC6       010VISTA          000000000000470000000004700000000045000000000000000000004600000160600
0202LOTE PADRAO                   BRADESCO    PN * EJ    BBDC4       010VISTA          000000000012100000000125000000001200000000000000000000125000247025000
0202LOTE PADRAO                   CESP        PN *       CESP4       010VISTA          000000000016300000000165000000001500000000000000000000150000030406900
0202LOTE PADRAO                   LIGHT       ON *       LIGH3       010VISTA          000000000126000000001289000000012250000000000000000001225000001633200
0202LOTE PADRAO                   TELESP CL PAPN *       TSPP4       010VISTA          000000000008800000000088000000000840000000000000000000085000487620000
0202LOTE PADRAO                   VALE R DOCE PNA        VALE5       010VISTA          000000000053800000000540000000005300000000000000000000537000000015500
0202LOTE PADRAO                   COPEL       PNB*       CPLE6       010VISTA          000000000017100000000171000000001660000000000000000000168000021067100
0202LOTE PADRAO                   VALE R DOCE ON         VALE3       010VISTA          000000000052750000000527000000005200000000000000000000520000000003200
0202LOTE PADRAO                   ARACRUZ     PNB        ARCZ6       010VISTA          000000000004200000000042000000000390000000000000000000039000000038100
0202LOTE PADRAO                   TELEMIG PARTPN *       TMCP4       010VISTA          000000000004200000000043000000000410000000000000000000041000049382700
0202LOTE PADRAO                   BRASIL TELECPN *       BRTO4       010VISTA          000000000013800000000139000000001310000000000000000000131000101127000
0202LOTE PADRAO                   SABESP      ON *       SBSP3       010VISTA          000000000135900000001360000000013200000000000000000001320000001473900
0202LOTE PADRAO                   BRASKEM     PNA*       BRKM5       010VISTA          000000000454000000004700000000045400000000000000000004635000000210200
0202LOTE PADRAO                   EMBRAER     PN EJ      EMBR4       010VISTA          000000000012750000000131000000001275000000000000000000131000000092500
0202LOTE PADRAO                   TELESP      PN * EJ    TLPP4       010VISTA          000000000032700000000335000000003140000000000000000000315000009263000
0202LOTE PADRAO                   EMBRAER     ON EJ      EMBR3       010VISTA          000000000012000000000125000000001190000000000000000000125000000027000
0202LOTE PADRAO                   AMBEV       PN *       AMBV4       010VISTA          000000000490000000004990000000047600000000000000000004760000001575900
0202LOTE PADRAO                   USIMINAS    PNA        USIM5       010VISTA          000000000006400000000067000000000620000000000000000000065000000037300
0202LOTE PADRAO                   ELETROPAULO PN *       ELPL4       010VISTA          000000000080500000000810000000007800000000000000000000780000001379500
0202LOTE PADRAO                   TELE NORD CLPN *       TNEP4       010VISTA          000000000003300000000034000000000320000000000000000000032000049567300
0202LOTE PADRAO                   CEMIG       PN * EJ    CMIG4       010VISTA          000000000033900000000340000000003220000000000000000000330000018419000
0202LOTE PADRAO                   TELE CL SUL PN * EJ    TCSL4       010VISTA          000000000003700000000038000000000360000000000000000000036000079367700
0202LOTE PADRAO                   CEMIG       ON * EJ    CMIG3       010VISTA          000000000030250000000315000000002990000000000000000000315000001507500
0202LOTE PADRAO                   TELE CL SUL ON * EJ    TCSL3       010VISTA          000000000003200000000032000000000300000000000000000000030000032340600
0202LOTE PADRAO                   ITAUSA      PN         ITSA4       010VISTA          000000000002100000000021000000000210000000000000000000021000000140100
0202LOTE PADRAO                   V C P       PN *       VCPA4       010VISTA          000000000080900000000810000000008000000000000000000000807000000572500
0202LOTE PADRAO                   SID TUBARAO PN *       CSTB4       010VISTA          000000000023800000000240000000002150000000000000000000215000064247400
0202LOTE PADRAO                   BRADESPAR   PN *       BRAP4       010VISTA          000000000000860000000008700000000079000000000000000000007900846792000
0202LOTE PADRAO                   NET         PN         PLIM4       010VISTA          000000000000830000000008500000000081000000000000000000008100000822200
0202LOTE PADRAO                   TELE CTR OESPN * EJ    TCOC4       010VISTA          000000000005500000000055000000000525000000000000000000054000098131800
0202LOTE PADRAO                   TELEMAR N L PNA* EJ    TMAR5       010VISTA          000000000059100000000609000000005900000000000000000000599000029866600
0202LOTE PADRAO                   GERDAU      PN * EJ    GGBR4       010VISTA          000000000022100000000226000000002130000000000000000000213000016975200
0202LOTE PADRAO                   BRASIL      ON *       BBAS3       010VISTA          000000000010600000000108000000001010000000000000000000105000008873600
