00BDIN9999BOVESPA 99992001011820010118
0101IBOVESPA                      0172040171510176420000000000000000002001011800000020010118017521000000
0202LOTE PADRAO                   EMBRATEL PARPN *       EBTP4       010VISTA          000000000033000000000341000000003270000000000000000000337000074694700
0202LOTE PADRAO                   EMBRATEL PARON *       EBTP3       010VISTA          000000000026300000000274000000002610000000000000000000273000037527700
0202LOTE PADRAO                   TRAN PAULISTPN * EJ    TRPL4       010VISTA          000000000008100000000084000000000800000000000000000000081000016349000
0202LOTE PADRAO                   TELEMAR     PN * EJ    TNLP4       010VISTA          000000000048250000000492000000004770000000000000000000487000221818000
0202LOTE PADRAO                   ITAUBANCO   PN * EJ    ITAU4       010VISTA          000000000190500000001970000000019050000000000000000001970000011733400
0202LOTE PADRAO                   TELEMAR     ON * EJ    TNLP3       010VISTA          000000000038000000000398000000003750000000000000000000390000043748100
0202LOTE PADRAO                   SID NACIONALON *       CSNA3       010VISTA          000000000065500000000675000000006550000000000000000000670000014955800
0202LOTE PADRAO                   TELE LEST CLPN *       TLCP4       010VISTA          000000000001480000000015100000000140000000000000000000014000078294600
0202LOTE PADRAO                   CRT CELULAR PNA* EJ    CRTP5       010VISTA          000000000750000000007650000000073790000000000000000007650000000282000
0202LOTE PADRAO                   IPIRANGA PETPN *       PTIP4       010VISTA          000000000017100000000175000000001700000000000000000000173000004788300
0202LOTE PADRAO                   BRASIL T PARPN *       BRTP4       010VISTA          000000000023300000000239000000002310000000000000000000238000084890100
0202LOTE PADRAO                   BRASIL T PARON *       BRTP3       010VISTA          000000000019600000000200000000001910000000000000000000194000019302800
0202LOTE PADRAO                   ACESITA     PN *       ACES4       010VISTA          000000000001100000000012000000000110000000000000000000011003779390000
0202LOTE PADRAO                   PETROBRAS   PN         PETR4       010VISTA          000000000053300000000543000000005300000000000000000000541000000121200
0202LOTE PADRAO                   ELETROBRAS  PNB*       ELET6       010VISTA          000000000037700000000392000000003710000000000000000000390000056534400
0202LOTE PADRAO                   PETROBRAS   ON         PETR3       010VISTA          000000000057300000000590000000005700000000000000000000580000000048500
0202LOTE PADRAO                   COMGAS      PNA*       CGAS5       010VISTA          000000000135800000001395000000013400000000000000000001375000001496500
0202LOTE PADRAO                   SOUZA CRUZ  ON EJ      CRUZ3       010VISTA          000000000010200000000105000000001010000000000000000000105000000026900
0202LOTE PADRAO                   ELETROBRAS  ON *       ELET3       010VISTA          000000000039000000000421000000003900000000000000000000413000033157000
0202LOTE PADRAO                   CELESC      PNB        CLSC6       010VISTA          000000000000680000000006900000000067000000000000000000006800000250400
0202LOTE PADRAO                   BRADESCO    PN * EJ    BBDC4       010VISTA          000000000013600000000138000000001340000000000000000000138000002467300
0202LOTE PADRAO                   CESP        PN *       CESP4       010VISTA          000000000021600000000233000000002160000000000000000000226000027681300
0202LOTE PADRAO                   LIGHT       ON *       LIGH3       010VISTA          000000000250000000002600000000024700000000000000000002600000001242700
0202LOTE PADRAO                   TELESP CL PAPN *       TSPP4       010VISTA          000000000021300000000216000000002060000000000000000000211000135583000
0202LOTE PADRAO                   VALE R DOCE PNA        VALE5       010VISTA          000000000047800000000497000000004770000000000000000000495000000050800
0202LOTE PADRAO                   COPEL       PNB*       CPLE6       010VISTA          000000000018300000000196000000001830000000000000000000191000054584100
0202LOTE PADRAO                   VALE R DOCE ON         VALE3       010VISTA          000000000044000000000465000000004400000000000000000000465000000000500
0202LOTE PADRAO                   ARACRUZ     PNB        ARCZ6       010VISTA          000000000003000000000030000000000290000000000000000000029000000088600
0202LOTE PADRAO                   TELEMIG PARTPN *       TMCP4       010VISTA          000000000006000000000063000000000590000000000000000000063000262385000
0202LOTE PADRAO                   BRASIL TELECPN *       BRTO4       010VISTA          000000000017000000000175000000001680000000000000000000173000058603900
0202LOTE PADRAO                   SABESP      ON *       SBSP3       010VISTA          000000000193900000001980000000018600000000000000000001969000001880800
0202LOTE PADRAO                   BRASKEM     PNA*       BRKM5       010VISTA          000000000685000000006980000000068200000000000000000006821000000353800
0202LOTE PADRAO                   EMBRAER     PN EJ      EMBR4       010VISTA          000000000018800000000197000000001860000000000000000000195000000046500
0202LOTE PADRAO                   TELESP      PN * EJ    TLPP4       010VISTA          000000000028000000000283000000002750000000000000000000282000008979500
0202LOTE PADRAO                   EMBRAER     ON EJ      EMBR3       010VISTA          000000000015500000000159000000001510000000000000000000159000000112800
0202LOTE PADRAO                   AMBEV       PN *       AMBV4       010VISTA          000000000487000000005049000000048600000000000000000005040000001741700
0202LOTE PADRAO                   USIMINAS    PNA        USIM5       010VISTA          000000000010800000000112000000001060000000000000000000107000000041100
0202LOTE PADRAO                   ELETROPAULO PN *       ELPL4       010VISTA          000000000113000000001220000000011000000000000000000001150000003553200
0202LOTE PADRAO                   TELE NORD CLPN *       TNEP4       010VISTA          000000000004300000000044000000000420000000000000000000043000188534000
0202LOTE PADRAO                   CEMIG       PN * EJ    CMIG4       010VISTA          000000000033300000000347000000003310000000000000000000342000073474800
0202LOTE PADRAO                   TELE CL SUL PN * EJ    TCSL4       010VISTA          000000000005200000000052000000000500000000000000000000051000104221000
0202LOTE PADRAO                   CEMIG       ON * EJ    CMIG3       010VISTA          000000000028600000000301000000002860000000000000000000300000004806700
0202LOTE PADRAO                   TELE CL SUL ON * EJ    TCSL3       010VISTA          000000000004600000000046000000000440000000000000000000044000037599600
0202LOTE PADRAO                   ITAUSA      PN         ITSA4       010VISTA          000000000002000000000020000000000200000000000000000000020000000622800
0202LOTE PADRAO                   SID TUBARAO PN *       CSTB4       010VISTA          000000000023500000000240000000002340000000000000000000237000007818300
0202LOTE PADRAO                   V C P       PN *       VCPA4       010VISTA          000000000058000000000595000000005770000000000000000000577000009001000
0202LOTE PADRAO                   BRADESPAR   PN *       BRAP4       010VISTA          000000000001200000000012600000000120000000000000000000012500505085000
0202LOTE PADRAO                   NET         PN         PLIM4       010VISTA          000000000002300000000023000000000230000000000000000000023000001050300
0202LOTE PADRAO                   TELE CTR OESPN * EJ    TCOC4       010VISTA          000000000008100000000085000000000800000000000000000000084000159824000
0202LOTE PADRAO                   GERDAU      PN * EJ    GGBR4       010VISTA          000000000019300000000201000000001910000000000000000000198000020864600
0202LOTE PADRAO                   BRASIL      ON *       BBAS3       010VISTA          000000000008000000000084000000000750000000000000000000081000014541200
