00BDIN9999BOVESPA 99992001062620010626
0101IBOVESPA                      0145210144010146200000000000000000002001062600000020010626014460000000
0202LOTE PADRAO                   EMBRATEL PARPN *       EBTP4       010VISTA          000000000017700000000178000000001710000000000000000000176000112340000
0202LOTE PADRAO                   EMBRATEL PARON *       EBTP3       010VISTA          000000000018400000000184000000001750000000000000000000176000040842800
0202LOTE PADRAO                   TRAN PAULISTPN * EJ    TRPL4       010VISTA          000000000006500000000067000000000620000000000000000000063000010490100
0202LOTE PADRAO                   TELEMAR     PN * EJ    TNLP4       010VISTA          000000000035700000000360000000003520000000000000000000355000227753000
0202LOTE PADRAO                   ITAUBANCO   PN * EJ    ITAU4       010VISTA          000000000200000000002000000000019100000000000000000001920000004749900
0202LOTE PADRAO                   TELEMAR     ON * EJ    TNLP3       010VISTA          000000000031000000000310000000003000000000000000000000302000010633100
0202LOTE PADRAO                   SID NACIONALON *       CSNA3       010VISTA          000000000045000000000450000000004300000000000000000000450000015873000
0202LOTE PADRAO                   TELE LEST CLPN *       TLCP4       010VISTA          000000000001800000000018000000000175000000000000000000017900041627200
0202LOTE PADRAO                   CRT CELULAR PNA* EJ    CRTP5       010VISTA          000000000950000000009600000000093000000000000000000009500000000214800
0202LOTE PADRAO                   IPIRANGA PETPN *       PTIP4       010VISTA          000000000016000000000170000000001600000000000000000000165000001190000
0202LOTE PADRAO                   BRASIL T PARPN *       BRTP4       010VISTA          000000000019300000000193000000001880000000000000000000190000056161500
0202LOTE PADRAO                   BRASIL T PARON *       BRTP3       010VISTA          000000000018600000000186000000001800000000000000000000186000017430600
0202LOTE PADRAO                   ACESITA     PN *       ACES4       010VISTA          000000000000720000000007200000000069000000000000000000007000133037000
0202LOTE PADRAO                   PETROBRAS   PN         PETR4       010VISTA          000000000055600000000562000000005510000000000000000000553000000076300
0202LOTE PADRAO                   ELETROBRAS  PNB*       ELET6       010VISTA          000000000027500000000280000000002730000000000000000000278000025803900
0202LOTE PADRAO                   PETROBRAS   ON         PETR3       010VISTA          000000000061700000000631000000006170000000000000000000626000000022600
0202LOTE PADRAO                   COMGAS      PNA*       CGAS5       010VISTA          000000000154900000001549000000014900000000000000000001515000012724500
0202LOTE PADRAO                   SOUZA CRUZ  ON EJ      CRUZ3       010VISTA          000000000011500000000118000000001150000000000000000000117000000011600
0202LOTE PADRAO                   ELETROBRAS  ON *       ELET3       010VISTA          000000000030300000000306000000003010000000000000000000305000023550000
0202LOTE PADRAO                   CELESC      PNB        CLSC6       010VISTA          000000000000450000000004600000000045000000000000000000004600000082400
0202LOTE PADRAO                   BRADESCO    PN * EJ    BBDC4       010VISTA          000000000011900000000121000000001175000000000000000000119000102619000
0202LOTE PADRAO                   CESP        PN *       CESP4       010VISTA          000000000014100000000141000000001350000000000000000000136000018579300
0202LOTE PADRAO                   LIGHT       ON *       LIGH3       010VISTA          000000000139900000001469000000013900000000000000000001440000000299900
0202LOTE PADRAO                   TELESP CL PAPN *       TSPP4       010VISTA          000000000014000000000143000000001390000000000000000000140000077178000
0202LOTE PADRAO                   VALE R DOCE PNA        VALE5       010VISTA          000000000052700000000540000000005170000000000000000000517000000039600
0202LOTE PADRAO                   COPEL       PNB*       CPLE6       010VISTA          000000000016400000000171000000001640000000000000000000169000012894600
0202LOTE PADRAO                   VALE R DOCE ON         VALE3       010VISTA          000000000051500000000515000000005050000000000000000000509000000000500
0202LOTE PADRAO                   ARACRUZ     PNB        ARCZ6       010VISTA          000000000003700000000040000000000370000000000000000000039600000027700
0202LOTE PADRAO                   TELEMIG PARTPN *       TMCP4       010VISTA          000000000004790000000048000000000460000000000000000000047000051279600
0202LOTE PADRAO                   BRASIL TELECPN *       BRTO4       010VISTA          000000000013600000000139000000001330000000000000000000136000030825100
0202LOTE PADRAO                   SABESP      ON *       SBSP3       010VISTA          000000000171000000001750000000016900000000000000000001705000000278400
0202LOTE PADRAO                   BRASKEM     PNA*       BRKM5       010VISTA          000000000517000000005300000000051000000000000000000005298000000111100
0202LOTE PADRAO                   EMBRAER     PN EJ      EMBR4       010VISTA          000000000022100000000226000000002210000000000000000000221000000026400
0202LOTE PADRAO                   TELESP      PN * EJ    TLPP4       010VISTA          000000000027000000000270000000002610000000000000000000266000003194300
0202LOTE PADRAO                   EMBRAER     ON EJ      EMBR3       010VISTA          000000000017800000000178000000001710000000000000000000173000000021200
0202LOTE PADRAO                   AMBEV       PN *       AMBV4       010VISTA          000000000504000000005100000000049500000000000000000005000000002251000
0202LOTE PADRAO                   USIMINAS    PNA        USIM5       010VISTA          000000000006700000000067000000000650000000000000000000065000000027800
0202LOTE PADRAO                   ELETROPAULO PN *       ELPL4       010VISTA          000000000062000000000639000000006100000000000000000000630000004278600
0202LOTE PADRAO                   TELE NORD CLPN *       TNEP4       010VISTA          000000000003800000000038000000000360000000000000000000037000575520000
0202LOTE PADRAO                   CEMIG       PN * EJ    CMIG4       010VISTA          000000000026200000000263000000002550000000000000000000258000012050900
0202LOTE PADRAO                   TELE CL SUL PN * EJ    TCSL4       010VISTA          000000000004790000000049000000000450000000000000000000045000207137000
0202LOTE PADRAO                   CEMIG       ON * EJ    CMIG3       010VISTA          000000000025000000000258000000002500000000000000000000250000000293000
0202LOTE PADRAO                   TELE CL SUL ON * EJ    TCSL3       010VISTA          000000000004000000000041000000000390000000000000000000039600010286900
0202LOTE PADRAO                   ITAUSA      PN         ITSA4       010VISTA          000000000002000000000020000000000200000000000000000000020000000170200
0202LOTE PADRAO                   SID TUBARAO PN *       CSTB4       010VISTA          000000000022000000000220000000002100000000000000000000213000013175600
0202LOTE PADRAO                   V C P       PN *       VCPA4       010VISTA          000000000066500000000680000000006650000000000000000000677000002465800
0202LOTE PADRAO                   BRADESPAR   PN *       BRAP4       010VISTA          000000000000840000000009100000000083000000000000000000008600532103000
0202LOTE PADRAO                   NET         PN         PLIM4       010VISTA          000000000000970000000011000000000097000000000000000000010000006069700
0202LOTE PADRAO                   TELE CTR OESPN * EJ    TCOC4       010VISTA          000000000006700000000067900000000640000000000000000000067000039213700
0202LOTE PADRAO                   GERDAU      PN * EJ    GGBR4       010VISTA          000000000017600000000176000000001680000000000000000000170000008524700
0202LOTE PADRAO                   BRASIL      ON *       BBAS3       010VISTA          000000000009500000000098000000000930000000000000000000096000033564800
