00BDIN9999BOVESPA 99992001021220010212
0101IBOVESPA                      0171630168830172340000000000000000002001021200000020010212016917000000
0202LOTE PADRAO                   EMBRATEL PARPN *       EBTP4       010VISTA          000000000028500000000287000000002780000000000000000000281000051337800
0202LOTE PADRAO                   EMBRATEL PARON *       EBTP3       010VISTA          000000000023900000000239000000002250000000000000000000228000010516900
0202LOTE PADRAO                   TRAN PAULISTPN * EJ    TRPL4       010VISTA          000000000009250000000094000000000890000000000000000000091000013520000
0202LOTE PADRAO                   TELEMAR     PN * EJ    TNLP4       010VISTA          000000000047000000000475000000004600000000000000000000462000117383000
0202LOTE PADRAO                   ITAUBANCO   PN * EJ    ITAU4       010VISTA          000000000180000000001810000000018000000000000000000001805000003115600
0202LOTE PADRAO                   TELEMAR     ON * EJ    TNLP3       010VISTA          000000000038200000000382000000003670000000000000000000373000014267100
0202LOTE PADRAO                   SID NACIONALON *       CSNA3       010VISTA          000000000068000000000690000000006790000000000000000000686000005588700
0202LOTE PADRAO                   TELE LEST CLPN *       TLCP4       010VISTA          000000000001560000000015600000000149000000000000000000015100047085300
0202LOTE PADRAO                   IPIRANGA PETPN *       PTIP4       010VISTA          000000000016600000000166000000001650000000000000000000165000000934700
0202LOTE PADRAO                   BRASIL T PARPN *       BRTP4       010VISTA          000000000024900000000251000000002380000000000000000000243000077352900
0202LOTE PADRAO                   BRASIL T PARON *       BRTP3       010VISTA          000000000022600000000226000000002150000000000000000000225000011796100
0202LOTE PADRAO                   ACESITA     PN *       ACES4       010VISTA          000000000001100000000011000000000110000000000000000000011000102702000
0202LOTE PADRAO                   PETROBRAS   PN         PETR4       010VISTA          000000000056000000000567000000005550000000000000000000557000000057100
0202LOTE PADRAO                   ELETROBRAS  PNB*       ELET6       010VISTA          000000000039800000000400000000003925000000000000000000394000036663400
0202LOTE PADRAO                   PETROBRAS   ON         PETR3       010VISTA          000000000056800000000578000000005650000000000000000000566000000030600
0202LOTE PADRAO                   COMGAS      PNA*       CGAS5       010VISTA          000000000156000000001565000000014900000000000000000001515000005367800
0202LOTE PADRAO                   SOUZA CRUZ  ON EJ      CRUZ3       010VISTA          000000000011500000000115000000001100000000000000000000110000000010600
0202LOTE PADRAO                   CELESC      PNB        CLSC6       010VISTA          000000000000660000000006700000000065000000000000000000006600000218100
0202LOTE PADRAO                   ELETROBRAS  ON *       ELET3       010VISTA          000000000042500000000430000000004170000000000000000000421000032348500
0202LOTE PADRAO                   BRADESCO    PN * EJ    BBDC4       010VISTA          000000000012800000000128000000001220000000000000000000122000102020000
0202LOTE PADRAO                   CESP        PN *       CESP4       010VISTA          000000000025900000000270000000002550000000000000000000260000018411500
0202LOTE PADRAO                   LIGHT       ON *       LIGH3       010VISTA          000000000255000000002560000000025200000000000000000002520000000201400
0202LOTE PADRAO                   TELESP CL PAPN *       TSPP4       010VISTA          000000000019600000000201000000001900000000000000000000191000094474400
0202LOTE PADRAO                   VALE R DOCE PNA        VALE5       010VISTA          000000000050800000000510000000004980000000000000000000500000000014300
0202LOTE PADRAO                   COPEL       PNB*       CPLE6       010VISTA          000000000020100000000203000000001910000000000000000000198000033885600
0202LOTE PADRAO                   VALE R DOCE ON         VALE3       010VISTA          000000000049200000000492000000004870000000000000000000487000000000100
0202LOTE PADRAO                   ARACRUZ     PNB        ARCZ6       010VISTA          000000000002800000000028000000000270000000000000000000028000000045200
0202LOTE PADRAO                   TELEMIG PARTPN *       TMCP4       010VISTA          000000000006790000000069000000000650000000000000000000065000104341000
0202LOTE PADRAO                   BRASIL TELECPN *       BRTO4       010VISTA          000000000017800000000178000000001700000000000000000000170000026492600
0202LOTE PADRAO                   SABESP      ON *       SBSP3       010VISTA          000000000217000000002170000000021300000000000000000002140000000557400
0202LOTE PADRAO                   BRASKEM     PNA*       BRKM5       010VISTA          000000000670100000006710000000066400000000000000000006640000000125500
0202LOTE PADRAO                   EMBRAER     PN EJ      EMBR4       010VISTA          000000000019100000000193000000001850000000000000000000185000000011800
0202LOTE PADRAO                   TELESP      PN * EJ    TLPP4       010VISTA          000000000031600000000319000000003010000000000000000000306000004369100
0202LOTE PADRAO                   EMBRAER     ON EJ      EMBR3       010VISTA          000000000015900000000160000000001570000000000000000000158000000023400
0202LOTE PADRAO                   AMBEV       PN *       AMBV4       010VISTA          000000000530000000005300000000051300000000000000000005130000003083800
0202LOTE PADRAO                   USIMINAS    PNA        USIM5       010VISTA          000000000011200000000113000000001110000000000000000000111000000034600
0202LOTE PADRAO                   ELETROPAULO PN *       ELPL4       010VISTA          000000000113000000001130000000011100000000000000000001110000000985000
0202LOTE PADRAO                   TELE NORD CLPN *       TNEP4       010VISTA          000000000003980000000039800000000379000000000000000000037000040880000
0202LOTE PADRAO                   CEMIG       PN * EJ    CMIG4       010VISTA          000000000034500000000346000000003410000000000000000000341000037735600
0202LOTE PADRAO                   TELE CL SUL PN * EJ    TCSL4       010VISTA          000000000005000000000050000000000480000000000000000000048000039989400
0202LOTE PADRAO                   CEMIG       ON * EJ    CMIG3       010VISTA          000000000030500000000310000000003000000000000000000000308000000368600
0202LOTE PADRAO                   TELE CL SUL ON * EJ    TCSL3       010VISTA          000000000004200000000042000000000410000000000000000000041000008423900
0202LOTE PADRAO                   ITAUSA      PN         ITSA4       010VISTA          000000000002000000000020000000000196000000000000000000019700000157400
0202LOTE PADRAO                   SID TUBARAO PN *       CSTB4       010VISTA          000000000023300000000236000000002330000000000000000000235000001390100
0202LOTE PADRAO                   V C P       PN *       VCPA4       010VISTA          000000000059600000000596000000005850000000000000000000590000000646800
0202LOTE PADRAO                   BRADESPAR   PN *       BRAP4       010VISTA          000000000001100000000011000000000110000000000000000000011000113170000
0202LOTE PADRAO                   NET         PN         PLIM4       010VISTA          000000000002000000000020000000000190000000000000000000019000000709700
0202LOTE PADRAO                   TELE CTR OESPN * EJ    TCOC4       010VISTA          000000000008000000000080000000000790000000000000000000080000035462600
0202LOTE PADRAO                   GERDAU      PN * EJ    GGBR4       010VISTA          000000000020300000000205000000001990000000000000000000200000002767000
0202LOTE PADRAO                   BRASIL      ON *       BBAS3       010VISTA          000000000007600000000081000000000760000000000000000000077000006594400
