00BDIN9999BOVESPA 99992001062820010628
0101IBOVESPA                      0143210141640144260000000000000000002001062800000020010628014391000000
0202LOTE PADRAO                   EMBRATEL PARPN *       EBTP4       010VISTA          000000000017300000000176000000001700000000000000000000173000040582100
0202LOTE PADRAO                   EMBRATEL PARON *       EBTP3       010VISTA          000000000017400000000178000000001710000000000000000000173000018980800
0202LOTE PADRAO                   TRAN PAULISTPN * EJ    TRPL4       010VISTA          000000000006400000000065000000000640000000000000000000065000011566000
0202LOTE PADRAO                   TELEMAR     PN * EJ    TNLP4       010VISTA          000000000034300000000349000000003370000000000000000000347000349713000
0202LOTE PADRAO                   ITAUBANCO   PN * EJ    ITAU4       010VISTA          000000000194000000001970000000019000000000000000000001940000010692900
0202LOTE PADRAO                   TELEMAR     ON * EJ    TNLP3       010VISTA          000000000029300000000299000000002880000000000000000000299000009483100
0202LOTE PADRAO                   SID NACIONALON *       CSNA3       010VISTA          000000000043500000000436000000004200000000000000000000421000007094100
0202LOTE PADRAO                   TELE LEST CLPN *       TLCP4       010VISTA          000000000001800000000019000000000180000000000000000000018000078024800
0202LOTE PADRAO                   CRT CELULAR PNA* EJ    CRTP5       010VISTA          000000000950000000009699000000094000000000000000000009500000000563300
0202LOTE PADRAO                   IPIRANGA PETPN *       PTIP4       010VISTA          000000000017600000000177500000001760000000000000000000177500000060000
0202LOTE PADRAO                   BRASIL T PARPN *       BRTP4       010VISTA          000000000019000000000191000000001860000000000000000000188000058132300
0202LOTE PADRAO                   BRASIL T PARON *       BRTP3       010VISTA          000000000018300000000184000000001780000000000000000000180000004586400
0202LOTE PADRAO                   ACESITA     PN *       ACES4       010VISTA          000000000000680000000007000000000067000000000000000000006700091511100
0202LOTE PADRAO                   PETROBRAS   PN         PETR4       010VISTA          000000000053750000000540000000005180000000000000000000529000000123800
0202LOTE PADRAO                   ELETROBRAS  PNB*       ELET6       010VISTA          000000000027100000000271000000002650000000000000000000270000048229800
0202LOTE PADRAO                   PETROBRAS   ON         PETR3       010VISTA          000000000061000000000610000000005810000000000000000000595000000031000
0202LOTE PADRAO                   COMGAS      PNA*       CGAS5       010VISTA          000000000146500000001470000000014250000000000000000001470000000542000
0202LOTE PADRAO                   SOUZA CRUZ  ON EJ      CRUZ3       010VISTA          000000000011800000000118000000001160000000000000000000118000000003300
0202LOTE PADRAO                   ELETROBRAS  ON *       ELET3       010VISTA          000000000029500000000295000000002800000000000000000000294000016960000
0202LOTE PADRAO                   CELESC      PNB        CLSC6       010VISTA          000000000000460000000004600000000044000000000000000000004600000108300
0202LOTE PADRAO                   BRADESCO    PN * EJ    BBDC4       010VISTA          000000000012000000000121000000001180000000000000000000120000138193000
0202LOTE PADRAO                   CESP        PN *       CESP4       010VISTA          000000000013900000000146000000001380000000000000000000145000011522300
0202LOTE PADRAO                   LIGHT       ON *       LIGH3       010VISTA          000000000146000000001460000000014160000000000000000001440000000135700
0202LOTE PADRAO                   TELESP CL PAPN *       TSPP4       010VISTA          000000000014000000000142500000001380000000000000000000142500052077200
0202LOTE PADRAO                   VALE R DOCE PNA        VALE5       010VISTA          000000000051700000000517000000005060000000000000000000512000000021400
0202LOTE PADRAO                   COPEL       PNB*       CPLE6       010VISTA          000000000017000000000171000000001690000000000000000000171000024781300
0202LOTE PADRAO                   VALE R DOCE ON         VALE3       010VISTA          000000000051000000000510000000005000000000000000000000505000000005600
0202LOTE PADRAO                   ARACRUZ     PNB        ARCZ6       010VISTA          000000000004000000000041000000000400000000000000000000041000000033300
0202LOTE PADRAO                   TELEMIG PARTPN *       TMCP4       010VISTA          000000000004500000000046000000000450000000000000000000046000099586100
0202LOTE PADRAO                   BRASIL TELECPN *       BRTO4       010VISTA          000000000013400000000136000000001330000000000000000000135000049901500
0202LOTE PADRAO                   SABESP      ON *       SBSP3       010VISTA          000000000172500000001725000000016300000000000000000001640000000729400
0202LOTE PADRAO                   BRASKEM     PNA*       BRKM5       010VISTA          000000000525000000005280000000051100000000000000000005150000000100000
0202LOTE PADRAO                   EMBRAER     PN EJ      EMBR4       010VISTA          000000000021800000000223000000002140000000000000000000222500000018800
0202LOTE PADRAO                   TELESP      PN * EJ    TLPP4       010VISTA          000000000026100000000263000000002550000000000000000000258000008425200
0202LOTE PADRAO                   EMBRAER     ON EJ      EMBR3       010VISTA          000000000017100000000175000000001700000000000000000000175000000008600
0202LOTE PADRAO                   AMBEV       PN *       AMBV4       010VISTA          000000000518000000005300000000051200000000000000000005300000001463300
0202LOTE PADRAO                   USIMINAS    PNA        USIM5       010VISTA          000000000006500000000066000000000640000000000000000000064000000026600
0202LOTE PADRAO                   ELETROPAULO PN *       ELPL4       010VISTA          000000000063200000000680000000006320000000000000000000680000002638900
0202LOTE PADRAO                   TELE NORD CLPN *       TNEP4       010VISTA          000000000003700000000037000000000360000000000000000000037000099625900
0202LOTE PADRAO                   CEMIG       PN * EJ    CMIG4       010VISTA          000000000026000000000270000000002560000000000000000000270000072470500
0202LOTE PADRAO                   TELE CL SUL PN * EJ    TCSL4       010VISTA          000000000004500000000046000000000440000000000000000000045000048991200
0202LOTE PADRAO                   CEMIG       ON * EJ    CMIG3       010VISTA          000000000025300000000259000000002530000000000000000000259000000891300
0202LOTE PADRAO                   TELE CL SUL ON * EJ    TCSL3       010VISTA          000000000003800000000039000000000380000000000000000000039000016099900
0202LOTE PADRAO                   ITAUSA      PN         ITSA4       010VISTA          000000000002000000000020000000000200000000000000000000020000000350000
0202LOTE PADRAO                   SID TUBARAO PN *       CSTB4       010VISTA          000000000021300000000220000000002090000000000000000000220000014290000
0202LOTE PADRAO                   V C P       PN *       VCPA4       010VISTA          000000000067000000000670000000006700000000000000000000670000000140000
0202LOTE PADRAO                   BRADESPAR   PN *       BRAP4       010VISTA          000000000000890000000009000000000087000000000000000000009000126302000
0202LOTE PADRAO                   NET         PN         PLIM4       010VISTA          000000000001100000000011000000000100000000000000000000011000002588400
0202LOTE PADRAO                   TELE CTR OESPN * EJ    TCOC4       010VISTA          000000000006750000000068000000000670000000000000000000067500052455600
0202LOTE PADRAO                   GERDAU      PN * EJ    GGBR4       010VISTA          000000000016600000000173000000001660000000000000000000168000004957900
0202LOTE PADRAO                   BRASIL      ON *       BBAS3       010VISTA          000000000009900000000103000000000990000000000000000000103000035923700
