00BDIN9999BOVESPA 99992001032220010322
0101IBOVESPA                      0148470137610148470000000000000000002001032200000020010322014067000000
0202LOTE PADRAO                   EMBRATEL PARPN *       EBTP4       010VISTA          000000000023000000000236000000002100000000000000000000216000212898000
0202LOTE PADRAO                   EMBRATEL PARON *       EBTP3       010VISTA          000000000018800000000188000000001730000000000000000000184000057176000
0202LOTE PADRAO                   TRAN PAULISTPN * EJ    TRPL4       010VISTA          000000000007700000000078000000000720000000000000000000073000011190300
0202LOTE PADRAO                   TELEMAR     PN * EJ    TNLP4       010VISTA          000000000035300000000353000000003220000000000000000000338000460227000
0202LOTE PADRAO                   ITAUBANCO   PN * EJ    ITAU4       010VISTA          000000000165000000001650000000015600000000000000000001590000015504900
0202LOTE PADRAO                   TELEMAR     ON * EJ    TNLP3       010VISTA          000000000027600000000276000000002550000000000000000000261000030577500
0202LOTE PADRAO                   SID NACIONALON *       CSNA3       010VISTA          000000000046000000000460000000004320000000000000000000435000027336000
0202LOTE PADRAO                   TELE LEST CLPN *       TLCP4       010VISTA          000000000001600000000016000000000148000000000000000000015400085914400
0202LOTE PADRAO                   CRT CELULAR PNA* EJ    CRTP5       010VISTA          000000000880000000008999000000080400000000000000000008830000000927100
0202LOTE PADRAO                   IPIRANGA PETPN *       PTIP4       010VISTA          000000000016900000000169000000001640000000000000000000164000007964800
0202LOTE PADRAO                   BRASIL T PARPN *       BRTP4       010VISTA          000000000017000000000180000000001660000000000000000000175000097944500
0202LOTE PADRAO                   BRASIL T PARON *       BRTP3       010VISTA          000000000016000000000160000000001500000000000000000000154000020932000
0202LOTE PADRAO                   ACESITA     PN *       ACES4       010VISTA          000000000001000000000010000000000097000000000000000000009900272860000
0202LOTE PADRAO                   PETROBRAS   PN         PETR4       010VISTA          000000000050000000000500000000004670000000000000000000478000000203300
0202LOTE PADRAO                   ELETROBRAS  PNB*       ELET6       010VISTA          000000000036700000000375000000003320000000000000000000345000075695400
0202LOTE PADRAO                   PETROBRAS   ON         PETR3       010VISTA          000000000053700000000541000000005180000000000000000000522000000103100
0202LOTE PADRAO                   COMGAS      PNA*       CGAS5       010VISTA          000000000160000000001610000000014800000000000000000001580000003642300
0202LOTE PADRAO                   SOUZA CRUZ  ON EJ      CRUZ3       010VISTA          000000000010900000000109000000001040000000000000000000107500000009400
0202LOTE PADRAO                   ELETROBRAS  ON *       ELET3       010VISTA          000000000038300000000410000000003800000000000000000000383000034551300
0202LOTE PADRAO                   CELESC      PNB        CLSC6       010VISTA          000000000000600000000006100000000057000000000000000000005900000163900
0202LOTE PADRAO                   BRADESCO    PN * EJ    BBDC4       010VISTA          000000000011000000000110000000001000000000000000000000104000426698000
0202LOTE PADRAO                   CESP        PN *       CESP4       010VISTA          000000000023000000000233000000002100000000000000000000221000010592900
0202LOTE PADRAO                   LIGHT       ON *       LIGH3       010VISTA          000000000200000000002099000000019750000000000000000002000000000347900
0202LOTE PADRAO                   TELESP CL PAPN *       TSPP4       010VISTA          000000000014200000000144000000001300000000000000000000134000253997000
0202LOTE PADRAO                   VALE R DOCE PNA        VALE5       010VISTA          000000000051000000000513000000004920000000000000000000502000000035200
0202LOTE PADRAO                   COPEL       PNB*       CPLE6       010VISTA          000000000018300000000183000000001710000000000000000000173000028930900
0202LOTE PADRAO                   VALE R DOCE ON         VALE3       010VISTA          000000000048000000000490000000004770000000000000000000480000000020800
0202LOTE PADRAO                   ARACRUZ     PNB        ARCZ6       010VISTA          000000000002800000000028000000000260000000000000000000026000000064700
0202LOTE PADRAO                   TELEMIG PARTPN *       TMCP4       010VISTA          000000000004400000000045000000000400000000000000000000041000123203000
0202LOTE PADRAO                   BRASIL TELECPN *       BRTO4       010VISTA          000000000012800000000128000000001180000000000000000000124000111816000
0202LOTE PADRAO                   SABESP      ON *       SBSP3       010VISTA          000000000190000000001920000000018200000000000000000001838000002031900
0202LOTE PADRAO                   BRASKEM     PNA*       BRKM5       010VISTA          000000000630000000006600000000060500000000000000000006150000000125400
0202LOTE PADRAO                   EMBRAER     PN EJ      EMBR4       010VISTA          000000000019300000000198000000001660000000000000000000198000000028100
0202LOTE PADRAO                   TELESP      PN * EJ    TLPP4       010VISTA          000000000028500000000285000000002650000000000000000000268000006413000
0202LOTE PADRAO                   EMBRAER     ON EJ      EMBR3       010VISTA          000000000015500000000155000000001400000000000000000000149000000033800
0202LOTE PADRAO                   AMBEV       PN *       AMBV4       010VISTA          000000000515000000005150000000049480000000000000000005100000001963900
0202LOTE PADRAO                   USIMINAS    PNA        USIM5       010VISTA          000000000009700000000098000000000870000000000000000000089000000136000
0202LOTE PADRAO                   ELETROPAULO PN *       ELPL4       010VISTA          000000000095000000000950000000009000000000000000000000919000002345300
0202LOTE PADRAO                   TELE NORD CLPN *       TNEP4       010VISTA          000000000002900000000029000000000270000000000000000000028000059045200
0202LOTE PADRAO                   CEMIG       PN * EJ    CMIG4       010VISTA          000000000028500000000285000000002650000000000000000000275000057603000
0202LOTE PADRAO                   TELE CL SUL PN * EJ    TCSL4       010VISTA          000000000003700000000037000000000340000000000000000000036000115306000
0202LOTE PADRAO                   CEMIG       ON * EJ    CMIG3       010VISTA          000000000024000000000245000000002260000000000000000000229000000917000
0202LOTE PADRAO                   TELE CL SUL ON * EJ    TCSL3       010VISTA          000000000002810000000028000000000271000000000000000000027000026029300
0202LOTE PADRAO                   ITAUSA      PN         ITSA4       010VISTA          000000000001700000000017000000000160000000000000000000016000000465200
0202LOTE PADRAO                   SID TUBARAO PN *       CSTB4       010VISTA          000000000021000000000215000000002010000000000000000000208000006459600
0202LOTE PADRAO                   V C P       PN *       VCPA4       010VISTA          000000000055000000000550000000005000000000000000000000534000003078000
0202LOTE PADRAO                   BRADESPAR   PN *       BRAP4       010VISTA          000000000001000000000010000000000098000000000000000000010000404443000
0202LOTE PADRAO                   NET         PN         PLIM4       010VISTA          000000000001540000000015000000000140000000000000000000014000001160600
0202LOTE PADRAO                   TELE CTR OESPN * EJ    TCOC4       010VISTA          000000000006000000000060000000000550000000000000000000059000054550800
0202LOTE PADRAO                   GERDAU      PN * EJ    GGBR4       010VISTA          000000000018800000000188000000001690000000000000000000176000015044500
0202LOTE PADRAO                   BRASIL      ON *       BBAS3       010VISTA          000000000007000000000072000000000680000000000000000000071000006304600
