00BDIN9999BOVESPA 99992001102620011026
0101IBOVESPA                      0117250117150119240000000000000000002001102600000020011026011781000000
0202LOTE PADRAO                   EMBRATEL PARPN *       EBTP4       010VISTA          000000000007900000000080000000000780000000000000000000078000064017400
0202LOTE PADRAO                   EMBRATEL PARON *       EBTP3       010VISTA          000000000008700000000089000000000850000000000000000000085000021220700
0202LOTE PADRAO                   TRAN PAULISTPN * EJ    TRPL4       010VISTA          000000000005700000000057000000000550000000000000000000055000010946500
0202LOTE PADRAO                   TELEMAR     PN * EJ    TNLP4       010VISTA          000000000028100000000288000000002810000000000000000000286000241511000
0202LOTE PADRAO                   ITAUBANCO   PN * EJ    ITAU4       010VISTA          000000000179000000001830000000017800000000000000000001785000011702400
0202LOTE PADRAO                   TELEMAR     ON * EJ    TNLP3       010VISTA          000000000025600000000264000000002560000000000000000000261000015768600
0202LOTE PADRAO                   SID NACIONALON *       CSNA3       010VISTA          000000000028500000000291000000002830000000000000000000288000005881100
0202LOTE PADRAO                   TELE LEST CLPN *       TLCP4       010VISTA          000000000000760000000007700000000073000000000000000000007600366689000
0202LOTE PADRAO                   CRT CELULAR PNA* EJ    CRTP5       010VISTA          000000000380000000003890000000036500000000000000000003880000002109100
0202LOTE PADRAO                   IPIRANGA PETPN *       PTIP4       010VISTA          000000000011700000000118000000001150000000000000000000115000000470000
0202LOTE PADRAO                   BRASIL T PARPN *       BRTP4       010VISTA          000000000016000000000162500000001580000000000000000000161000047966600
0202LOTE PADRAO                   BRASIL T PARON *       BRTP3       010VISTA          000000000015200000000156000000001520000000000000000000154000013375700
0202LOTE PADRAO                   ACESITA     PN *       ACES4       010VISTA          000000000000520000000005200000000051000000000000000000005100085520000
0202LOTE PADRAO                   PETROBRAS   PN         PETR4       010VISTA          000000000052700000000537000000005220000000000000000000527000000105100
0202LOTE PADRAO                   ELETROBRAS  PNB*       ELET6       010VISTA          000000000032300000000331000000003230000000000000000000328000040718800
0202LOTE PADRAO                   PETROBRAS   ON         PETR3       010VISTA          000000000054500000000553000000005400000000000000000000542000000020500
0202LOTE PADRAO                   COMGAS      PNA*       CGAS5       010VISTA          000000000084000000000845000000008100000000000000000000810000000918800
0202LOTE PADRAO                   SOUZA CRUZ  ON EJ      CRUZ3       010VISTA          000000000013100000000131000000001290000000000000000000129000000009300
0202LOTE PADRAO                   ELETROBRAS  ON *       ELET3       010VISTA          000000000035900000000363000000003520000000000000000000354000004463500
0202LOTE PADRAO                   CELESC      PNB        CLSC6       010VISTA          000000000000440000000004600000000044000000000000000000004600000223900
0202LOTE PADRAO                   BRADESCO    PN * EJ    BBDC4       010VISTA          000000000011000000000112500000001090000000000000000000109000085716700
0202LOTE PADRAO                   CESP        PN *       CESP4       010VISTA          000000000012700000000136000000001270000000000000000000133000018538500
0202LOTE PADRAO                   LIGHT       ON *       LIGH3       010VISTA          000000000089900000000950000000008990000000000000000000939000001912700
0202LOTE PADRAO                   TELESP CL PAPN *       TSPP4       010VISTA          000000000005900000000062000000000590000000000000000000062000422947000
0202LOTE PADRAO                   VALE R DOCE PNA        VALE5       010VISTA          000000000055200000000560000000005520000000000000000000560000000010400
0202LOTE PADRAO                   COPEL       PNB*       CPLE6       010VISTA          000000000015600000000157500000001480000000000000000000150000075203900
0202LOTE PADRAO                   VALE R DOCE ON         VALE3       010VISTA          000000000053300000000540000000005220000000000000000000530000000000600
0202LOTE PADRAO                   ARACRUZ     PNB        ARCZ6       010VISTA          000000000004750000000050000000000475000000000000000000049600000028800
0202LOTE PADRAO                   TELEMIG PARTPN *       TMCP4       010VISTA          000000000003600000000037300000000360000000000000000000036000050658400
0202LOTE PADRAO                   BRASIL TELECPN *       BRTO4       010VISTA          000000000011000000000112500000001090000000000000000000110000043378700
0202LOTE PADRAO                   SABESP      ON *       SBSP3       010VISTA          000000000113000000001150000000011200000000000000000001150000000531300
0202LOTE PADRAO                   BRASKEM     PNA*       BRKM5       010VISTA          000000000400000000004040000000039300000000000000000003940000000190900
0202LOTE PADRAO                   EMBRAER     PN EJ      EMBR4       010VISTA          000000000011800000000124000000001160000000000000000000119000000048100
0202LOTE PADRAO                   TELESP      PN * EJ    TLPP4       010VISTA          000000000026300000000263000000002600000000000000000000260000003823600
0202LOTE PADRAO                   EMBRAER     ON EJ      EMBR3       010VISTA          000000000009800000000100000000000960000000000000000000097000000030400
0202LOTE PADRAO                   AMBEV       PN *       AMBV4       010VISTA          000000000432500000004520000000043250000000000000000004450000001336200
0202LOTE PADRAO                   USIMINAS    PNA        USIM5       010VISTA          000000000004100000000041000000000400000000000000000000041000000037100
0202LOTE PADRAO                   ELETROPAULO PN *       ELPL4       010VISTA          000000000065600000000689000000006560000000000000000000667000005260600
0202LOTE PADRAO                   TELE NORD CLPN *       TNEP4       010VISTA          000000000002790000000028000000000270000000000000000000028100128724000
0202LOTE PADRAO                   CEMIG       PN * EJ    CMIG4       010VISTA          000000000026800000000271000000002660000000000000000000270000022613900
0202LOTE PADRAO                   TELE CL SUL PN * EJ    TCSL4       010VISTA          000000000003000000000031000000000300000000000000000000030000077558500
0202LOTE PADRAO                   CEMIG       ON * EJ    CMIG3       010VISTA          000000000026600000000268000000002610000000000000000000266000002150000
0202LOTE PADRAO                   TELE CL SUL ON * EJ    TCSL3       010VISTA          000000000002500000000026000000000250000000000000000000026000012572800
0202LOTE PADRAO                   ITAUSA      PN         ITSA4       010VISTA          000000000001900000000019700000000190000000000000000000019000000184000
0202LOTE PADRAO                   SID TUBARAO PN *       CSTB4       010VISTA          000000000017800000000180000000001730000000000000000000180000010254400
0202LOTE PADRAO                   V C P       PN *       VCPA4       010VISTA          000000000078500000000795000000007820000000000000000000795000011782900
0202LOTE PADRAO                   BRADESPAR   PN *       BRAP4       010VISTA          000000000000650000000006600000000063000000000000000000006400144286000
0202LOTE PADRAO                   NET         PN         PLIM4       010VISTA          000000000000700000000007200000000068000000000000000000006800000692500
0202LOTE PADRAO                   TELE CTR OESPN * EJ    TCOC4       010VISTA          000000000004900000000050000000000480000000000000000000048000085358100
0202LOTE PADRAO                   GERDAU      PN * EJ    GGBR4       010VISTA          000000000018600000000191000000001850000000000000000000190000009681700
0202LOTE PADRAO                   BRASIL      ON *       BBAS3       010VISTA          000000000007700000000079000000000760000000000000000000078000003200000
