00BDIN9999BOVESPA 99992001091820010918
0101IBOVESPA                      0105430103210107080000000000000000002001091800000020010918010554000000
0202LOTE PADRAO                   EMBRATEL PARPN *       EBTP4       010VISTA          000000000007900000000080000000000750000000000000000000078000110341000
0202LOTE PADRAO                   EMBRATEL PARON *       EBTP3       010VISTA          000000000008000000000084000000000780000000000000000000081000026483100
0202LOTE PADRAO                   TRAN PAULISTPN * EJ    TRPL4       010VISTA          000000000004300000000044000000000420000000000000000000043000014281000
0202LOTE PADRAO                   TELEMAR     PN * EJ    TNLP4       010VISTA          000000000022500000000228000000002180000000000000000000221000313657000
0202LOTE PADRAO                   ITAUBANCO   PN * EJ    ITAU4       010VISTA          000000000160000000001650000000015200000000000000000001610000005044200
0202LOTE PADRAO                   TELEMAR     ON * EJ    TNLP3       010VISTA          000000000020800000000213000000002060000000000000000000208000015605200
0202LOTE PADRAO                   SID NACIONALON *       CSNA3       010VISTA          000000000032900000000330000000003180000000000000000000318000005933100
0202LOTE PADRAO                   TELE LEST CLPN *       TLCP4       010VISTA          000000000000560000000006100000000055000000000000000000006100668883000
0202LOTE PADRAO                   CRT CELULAR PNA* EJ    CRTP5       010VISTA          000000000294400000002999000000026990000000000000000002950000001736900
0202LOTE PADRAO                   IPIRANGA PETPN *       PTIP4       010VISTA          000000000010100000000104000000001000000000000000000000101000001183200
0202LOTE PADRAO                   BRASIL T PARPN *       BRTP4       010VISTA          000000000012500000000125000000001190000000000000000000121000086526600
0202LOTE PADRAO                   BRASIL T PARON *       BRTP3       010VISTA          000000000010800000000113000000001060000000000000000000111000009185100
0202LOTE PADRAO                   ACESITA     PN *       ACES4       010VISTA          000000000000410000000004200000000038000000000000000000004000195204000
0202LOTE PADRAO                   PETROBRAS   PN         PETR4       010VISTA          000000000055000000000568000000005350000000000000000000565000000128200
0202LOTE PADRAO                   ELETROBRAS  PNB*       ELET6       010VISTA          000000000028300000000300000000002830000000000000000000296000046677100
0202LOTE PADRAO                   PETROBRAS   ON         PETR3       010VISTA          000000000057500000000592000000005580000000000000000000587000000042000
0202LOTE PADRAO                   COMGAS      PNA*       CGAS5       010VISTA          000000000089700000000905000000008400000000000000000000850000001528600
0202LOTE PADRAO                   SOUZA CRUZ  ON EJ      CRUZ3       010VISTA          000000000010900000000114000000001090000000000000000000113000000034100
0202LOTE PADRAO                   ELETROBRAS  ON *       ELET3       010VISTA          000000000032000000000332000000003160000000000000000000328000038715100
0202LOTE PADRAO                   CELESC      PNB        CLSC6       010VISTA          000000000000360000000003600000000033000000000000000000003500000198800
0202LOTE PADRAO                   BRADESCO    PN * EJ    BBDC4       010VISTA          000000000009600000000105000000000950000000000000000000100000253311000
0202LOTE PADRAO                   CESP        PN *       CESP4       010VISTA          000000000008600000000090000000000830000000000000000000085000021561500
0202LOTE PADRAO                   LIGHT       ON *       LIGH3       010VISTA          000000000092000000000938000000008920000000000000000000900000001094100
0202LOTE PADRAO                   TELESP CL PAPN *       TSPP4       010VISTA          000000000005900000000060000000000570000000000000000000059000322458000
0202LOTE PADRAO                   VALE R DOCE PNA        VALE5       010VISTA          000000000050000000000517000000004920000000000000000000517000000064800
0202LOTE PADRAO                   COPEL       PNB*       CPLE6       010VISTA          000000000015500000000156000000001500000000000000000000155000038986700
0202LOTE PADRAO                   VALE R DOCE ON         VALE3       010VISTA          000000000048300000000512000000004830000000000000000000512000000005500
0202LOTE PADRAO                   ARACRUZ     PNB        ARCZ6       010VISTA          000000000004200000000042000000000400000000000000000000041000000020700
0202LOTE PADRAO                   TELEMIG PARTPN *       TMCP4       010VISTA          000000000002700000000029000000000273000000000000000000028000072536700
0202LOTE PADRAO                   BRASIL TELECPN *       BRTO4       010VISTA          000000000008500000000085000000000800000000000000000000083000093995700
0202LOTE PADRAO                   SABESP      ON *       SBSP3       010VISTA          000000000128000000001310000000012500000000000000000001250000000528400
0202LOTE PADRAO                   BRASKEM     PNA*       BRKM5       010VISTA          000000000375000000003820000000036000000000000000000003630000000186500
0202LOTE PADRAO                   EMBRAER     PN EJ      EMBR4       010VISTA          000000000010600000000109000000001040000000000000000000104000000077900
0202LOTE PADRAO                   TELESP      PN * EJ    TLPP4       010VISTA          000000000020600000000220000000002030000000000000000000216000012307800
0202LOTE PADRAO                   EMBRAER     ON EJ      EMBR3       010VISTA          000000000008800000000090000000000850000000000000000000089000000025300
0202LOTE PADRAO                   AMBEV       PN *       AMBV4       010VISTA          000000000467000000004741000000045000000000000000000004600000001872800
0202LOTE PADRAO                   USIMINAS    PNA        USIM5       010VISTA          000000000004600000000046000000000420000000000000000000044000000097900
0202LOTE PADRAO                   ELETROPAULO PN *       ELPL4       010VISTA          000000000070000000000710000000006690000000000000000000704000005369100
0202LOTE PADRAO                   TELE NORD CLPN *       TNEP4       010VISTA          000000000002300000000024000000000225000000000000000000023000061369100
0202LOTE PADRAO                   CEMIG       PN * EJ    CMIG4       010VISTA          000000000024500000000250000000002400000000000000000000243000042326600
0202LOTE PADRAO                   TELE CL SUL PN * EJ    TCSL4       010VISTA          000000000002700000000028000000000260000000000000000000028000121393000
0202LOTE PADRAO                   CEMIG       ON * EJ    CMIG3       010VISTA          000000000023000000000233000000002240000000000000000000233000000500000
0202LOTE PADRAO                   TELE CL SUL ON * EJ    TCSL3       010VISTA          000000000002200000000022000000000210000000000000000000022000051714100
0202LOTE PADRAO                   ITAUSA      PN         ITSA4       010VISTA          000000000001740000000018000000000171000000000000000000018000000323200
0202LOTE PADRAO                   SID TUBARAO PN *       CSTB4       010VISTA          000000000018000000000180000000001700000000000000000000178000009360000
0202LOTE PADRAO                   V C P       PN *       VCPA4       010VISTA          000000000064000000000640000000006200000000000000000000625000001585000
0202LOTE PADRAO                   BRADESPAR   PN *       BRAP4       010VISTA          000000000000490000000005000000000048000000000000000000004900351541000
0202LOTE PADRAO                   NET         PN         PLIM4       010VISTA          000000000000650000000006500000000061000000000000000000006300001561200
0202LOTE PADRAO                   TELE CTR OESPN * EJ    TCOC4       010VISTA          000000000003700000000040000000000370000000000000000000039000095342600
0202LOTE PADRAO                   GERDAU      PN * EJ    GGBR4       010VISTA          000000000013500000000140000000001350000000000000000000140000011715900
0202LOTE PADRAO                   BRASIL      ON *       BBAS3       010VISTA          000000000007100000000077000000000690000000000000000000077000010717900
