00BDIN9999BOVESPA 99992001072020010720
0101IBOVESPA                      0137660136590140920000000000000000002001072000000020010720014092000000
0202LOTE PADRAO                   EMBRATEL PARPN *       EBTP4       010VISTA          000000000013900000000151000000001390000000000000000000150000108916000
0202LOTE PADRAO                   EMBRATEL PARON *       EBTP3       010VISTA          000000000014100000000155000000001390000000000000000000155000039929500
0202LOTE PADRAO                   TRAN PAULISTPN * EJ    TRPL4       010VISTA          000000000006100000000064000000000610000000000000000000063000004604900
0202LOTE PADRAO                   TELEMAR     PN * EJ    TNLP4       010VISTA          000000000033000000000335000000003220000000000000000000335000184356000
0202LOTE PADRAO                   ITAUBANCO   PN * EJ    ITAU4       010VISTA          000000000188000000001920000000018800000000000000000001910000004087600
0202LOTE PADRAO                   TELEMAR     ON * EJ    TNLP3       010VISTA          000000000027000000000290000000002680000000000000000000290000017453900
0202LOTE PADRAO                   SID NACIONALON *       CSNA3       010VISTA          000000000042900000000429000000004100000000000000000000422000003435100
0202LOTE PADRAO                   TELE LEST CLPN *       TLCP4       010VISTA          000000000001600000000017300000000160000000000000000000017000070847800
0202LOTE PADRAO                   CRT CELULAR PNA* EJ    CRTP5       010VISTA          000000000816000000008400000000081600000000000000000008300000000212900
0202LOTE PADRAO                   IPIRANGA PETPN *       PTIP4       010VISTA          000000000016300000000163000000001610000000000000000000162000000708700
0202LOTE PADRAO                   BRASIL T PARPN *       BRTP4       010VISTA          000000000018600000000186000000001780000000000000000000186000046842100
0202LOTE PADRAO                   BRASIL T PARON *       BRTP3       010VISTA          000000000017100000000178000000001710000000000000000000178000009502900
0202LOTE PADRAO                   ACESITA     PN *       ACES4       010VISTA          000000000000600000000006200000000060000000000000000000006200146736000
0202LOTE PADRAO                   PETROBRAS   PN         PETR4       010VISTA          000000000051200000000530000000005020000000000000000000530000000084300
0202LOTE PADRAO                   ELETROBRAS  PNB*       ELET6       010VISTA          000000000028300000000283000000002780000000000000000000280000032911600
0202LOTE PADRAO                   PETROBRAS   ON         PETR3       010VISTA          000000000055100000000565000000005420000000000000000000563000000007000
0202LOTE PADRAO                   COMGAS      PNA*       CGAS5       010VISTA          000000000132000000001320000000012900000000000000000001305000004446500
0202LOTE PADRAO                   SOUZA CRUZ  ON EJ      CRUZ3       010VISTA          000000000011250000000114000000001110000000000000000000111000000022000
0202LOTE PADRAO                   ELETROBRAS  ON *       ELET3       010VISTA          000000000032000000000327000000003180000000000000000000322000008725400
0202LOTE PADRAO                   CELESC      PNB        CLSC6       010VISTA          000000000000430000000004500000000043000000000000000000004500000172100
0202LOTE PADRAO                   BRADESCO    PN * EJ    BBDC4       010VISTA          000000000011500000000118000000001140000000000000000000118000130161000
0202LOTE PADRAO                   CESP        PN *       CESP4       010VISTA          000000000013200000000134000000001300000000000000000000134000006240000
0202LOTE PADRAO                   LIGHT       ON *       LIGH3       010VISTA          000000000115900000001199000000011590000000000000000001199000000313200
0202LOTE PADRAO                   TELESP CL PAPN *       TSPP4       010VISTA          000000000014100000000145000000001400000000000000000000145000053006900
0202LOTE PADRAO                   VALE R DOCE PNA        VALE5       010VISTA          000000000051700000000528000000005170000000000000000000525000000023500
0202LOTE PADRAO                   COPEL       PNB*       CPLE6       010VISTA          000000000017000000000175000000001700000000000000000000173000033358000
0202LOTE PADRAO                   VALE R DOCE ON         VALE3       010VISTA          000000000051500000000515000000005150000000000000000000515000000000000
0202LOTE PADRAO                   ARACRUZ     PNB        ARCZ6       010VISTA          000000000004000000000040000000000380000000000000000000038000000062500
0202LOTE PADRAO                   TELEMIG PARTPN *       TMCP4       010VISTA          000000000004700000000047000000000440000000000000000000046000055349900
0202LOTE PADRAO                   BRASIL TELECPN *       BRTO4       010VISTA          000000000012400000000126000000001220000000000000000000124000101033000
0202LOTE PADRAO                   SABESP      ON *       SBSP3       010VISTA          000000000155000000001655000000015500000000000000000001650000002163400
0202LOTE PADRAO                   BRASKEM     PNA*       BRKM5       010VISTA          000000000548700000005487000000053490000000000000000005399000000230100
0202LOTE PADRAO                   EMBRAER     PN EJ      EMBR4       010VISTA          000000000022500000000231000000002220000000000000000000231000000014500
0202LOTE PADRAO                   TELESP      PN * EJ    TLPP4       010VISTA          000000000025000000000256000000002450000000000000000000256000011297100
0202LOTE PADRAO                   EMBRAER     ON EJ      EMBR3       010VISTA          000000000017600000000176000000001750000000000000000000176000000008600
0202LOTE PADRAO                   AMBEV       PN *       AMBV4       010VISTA          000000000509000000005150000000050390000000000000000005070000001285800
0202LOTE PADRAO                   USIMINAS    PNA        USIM5       010VISTA          000000000006400000000065000000000620000000000000000000064000000013600
0202LOTE PADRAO                   ELETROPAULO PN *       ELPL4       010VISTA          000000000064000000000660000000006390000000000000000000649000001550000
0202LOTE PADRAO                   TELE NORD CLPN *       TNEP4       010VISTA          000000000003750000000038000000000370000000000000000000038100058782300
0202LOTE PADRAO                   CEMIG       PN * EJ    CMIG4       010VISTA          000000000026800000000268000000002600000000000000000000266000034361900
0202LOTE PADRAO                   TELE CL SUL PN * EJ    TCSL4       010VISTA          000000000004300000000043000000000420000000000000000000042000052709500
0202LOTE PADRAO                   CEMIG       ON * EJ    CMIG3       010VISTA          000000000025600000000259000000002560000000000000000000256000000847600
0202LOTE PADRAO                   TELE CL SUL ON * EJ    TCSL3       010VISTA          000000000003400000000037000000000340000000000000000000034000017916800
0202LOTE PADRAO                   ITAUSA      PN         ITSA4       010VISTA          000000000002000000000020000000000200000000000000000000020000000223200
0202LOTE PADRAO                   SID TUBARAO PN *       CSTB4       010VISTA          000000000020600000000208000000002050000000000000000000205000003590000
0202LOTE PADRAO                   V C P       PN *       VCPA4       010VISTA          000000000060000000000609000000005810000000000000000000589000003353800
0202LOTE PADRAO                   BRADESPAR   PN *       BRAP4       010VISTA          000000000000820000000008500000000082000000000000000000008500156721000
0202LOTE PADRAO                   NET         PN         PLIM4       010VISTA          000000000001000000000011000000000100000000000000000000011000000728800
0202LOTE PADRAO                   TELE CTR OESPN * EJ    TCOC4       010VISTA          000000000006000000000062000000000590000000000000000000061000032213000
0202LOTE PADRAO                   GERDAU      PN * EJ    GGBR4       010VISTA          000000000016500000000169000000001600000000000000000000168000007176300
0202LOTE PADRAO                   BRASIL      ON *       BBAS3       010VISTA          000000000008800000000094000000000880000000000000000000093000002170200
