00BDIN9999BOVESPA 99992001041820010418
0101IBOVESPA                      0143450143230151510000000000000000002001041800000020010418014955000000
0202LOTE PADRAO                   EMBRATEL PARPN *       EBTP4       010VISTA          000000000020800000000230000000002080000000000000000000228000115020000
0202LOTE PADRAO                   EMBRATEL PARON *       EBTP3       010VISTA          000000000021000000000219000000002010000000000000000000213000038751000
0202LOTE PADRAO                   TRAN PAULISTPN * EJ    TRPL4       010VISTA          000000000007000000000079000000000670000000000000000000079000036300000
0202LOTE PADRAO                   TELEMAR     PN * EJ    TNLP4       010VISTA          000000000035200000000373000000003480000000000000000000369000256368000
0202LOTE PADRAO                   ITAUBANCO   PN * EJ    ITAU4       010VISTA          000000000169000000001740000000016790000000000000000001701000011375500
0202LOTE PADRAO                   TELEMAR     ON * EJ    TNLP3       010VISTA          000000000032500000000347000000003180000000000000000000337000018857200
0202LOTE PADRAO                   SID NACIONALON *       CSNA3       010VISTA          000000000048200000000525000000004800000000000000000000488000011553100
0202LOTE PADRAO                   TELE LEST CLPN *       TLCP4       010VISTA          000000000001600000000017700000000160000000000000000000016900151470000
0202LOTE PADRAO                   IPIRANGA PETPN *       PTIP4       010VISTA          000000000016000000000169000000001600000000000000000000160000005600200
0202LOTE PADRAO                   BRASIL T PARPN *       BRTP4       010VISTA          000000000017800000000195000000001780000000000000000000188000124371000
0202LOTE PADRAO                   BRASIL T PARON *       BRTP3       010VISTA          000000000019100000000193000000001750000000000000000000185000043632100
0202LOTE PADRAO                   ACESITA     PN *       ACES4       010VISTA          000000000000910000000009500000000088000000000000000000008900382703000
0202LOTE PADRAO                   PETROBRAS   PN         PETR4       010VISTA          000000000049500000000517000000004950000000000000000000517000000137500
0202LOTE PADRAO                   ELETROBRAS  PNB*       ELET6       010VISTA          000000000033900000000344000000003280000000000000000000341000077643600
0202LOTE PADRAO                   PETROBRAS   ON         PETR3       010VISTA          000000000053500000000569000000005350000000000000000000560000000029500
0202LOTE PADRAO                   COMGAS      PNA*       CGAS5       010VISTA          000000000142500000001450000000013700000000000000000001440000005374000
0202LOTE PADRAO                   SOUZA CRUZ  ON EJ      CRUZ3       010VISTA          000000000011400000000119000000001140000000000000000000115000000043500
0202LOTE PADRAO                   CELESC      PNB        CLSC6       010VISTA          000000000000550000000005900000000054000000000000000000005600000515400
0202LOTE PADRAO                   ELETROBRAS  ON *       ELET3       010VISTA          000000000036500000000390000000003610000000000000000000377000023167100
0202LOTE PADRAO                   BRADESCO    PN * EJ    BBDC4       010VISTA          000000000011400000000120000000001130000000000000000000118000141871000
0202LOTE PADRAO                   CESP        PN *       CESP4       010VISTA          000000000020000000000208000000001930000000000000000000207000038915100
0202LOTE PADRAO                   LIGHT       ON *       LIGH3       010VISTA          000000000181600000001910000000017000000000000000000001800000001135200
0202LOTE PADRAO                   TELESP CL PAPN *       TSPP4       010VISTA          000000000014000000000147500000001380000000000000000000142000173887000
0202LOTE PADRAO                   VALE R DOCE PNA        VALE5       010VISTA          000000000052200000000525000000005170000000000000000000522000000040600
0202LOTE PADRAO                   COPEL       PNB*       CPLE6       010VISTA          000000000017000000000175000000001675000000000000000000170000029221000
0202LOTE PADRAO                   VALE R DOCE ON         VALE3       010VISTA          000000000048200000000490000000004780000000000000000000478000000011200
0202LOTE PADRAO                   ARACRUZ     PNB        ARCZ6       010VISTA          000000000002790000000029000000000279000000000000000000028000000297500
0202LOTE PADRAO                   TELEMIG PARTPN *       TMCP4       010VISTA          000000000004000000000044000000000400000000000000000000043000178905000
0202LOTE PADRAO                   BRASIL TELECPN *       BRTO4       010VISTA          000000000012600000000138000000001240000000000000000000133000067164500
0202LOTE PADRAO                   SABESP      ON *       SBSP3       010VISTA          000000000191900000002040000000018600000000000000000001920000001646600
0202LOTE PADRAO                   BRASKEM     PNA*       BRKM5       010VISTA          000000000589900000005899000000058500000000000000000005850000000224100
0202LOTE PADRAO                   EMBRAER     PN EJ      EMBR4       010VISTA          000000000022900000000231000000002150000000000000000000215000000037600
0202LOTE PADRAO                   TELESP      PN * EJ    TLPP4       010VISTA          000000000028600000000304000000002800000000000000000000300000011818600
0202LOTE PADRAO                   EMBRAER     ON EJ      EMBR3       010VISTA          000000000017500000000177000000001730000000000000000000175000000072600
0202LOTE PADRAO                   AMBEV       PN *       AMBV4       010VISTA          000000000485000000005110000000048500000000000000000005104000002443900
0202LOTE PADRAO                   USIMINAS    PNA        USIM5       010VISTA          000000000009000000000094000000000880000000000000000000093000000045200
0202LOTE PADRAO                   ELETROPAULO PN *       ELPL4       010VISTA          000000000073900000000799000000007320000000000000000000785000008755500
0202LOTE PADRAO                   TELE NORD CLPN *       TNEP4       010VISTA          000000000002800000000032000000000280000000000000000000031000178356000
0202LOTE PADRAO                   CEMIG       PN * EJ    CMIG4       010VISTA          000000000027600000000277500000002610000000000000000000275000064674500
0202LOTE PADRAO                   TELE CL SUL PN * EJ    TCSL4       010VISTA          000000000004200000000045000000000420000000000000000000044000133871000
0202LOTE PADRAO                   CEMIG       ON * EJ    CMIG3       010VISTA          000000000026600000000275000000002650000000000000000000274000005407700
0202LOTE PADRAO                   TELE CL SUL ON * EJ    TCSL3       010VISTA          000000000003900000000041000000000371000000000000000000040000056775900
0202LOTE PADRAO                   ITAUSA      PN         ITSA4       010VISTA          000000000001800000000018000000000180000000000000000000018000001085000
0202LOTE PADRAO                   SID TUBARAO PN *       CSTB4       010VISTA          000000000021300000000228000000002130000000000000000000218000007738500
0202LOTE PADRAO                   V C P       PN *       VCPA4       010VISTA          000000000054000000000585000000005380000000000000000000570000005118200
0202LOTE PADRAO                   BRADESPAR   PN *       BRAP4       010VISTA          000000000000980000000010000000000098000000000000000000009900482403000
0202LOTE PADRAO                   NET         PN         PLIM4       010VISTA          000000000001200000000013000000000110000000000000000000012000001933400
0202LOTE PADRAO                   TELE CTR OESPN * EJ    TCOC4       010VISTA          000000000005400000000060000000000540000000000000000000059000116060000
0202LOTE PADRAO                   GERDAU      PN * EJ    GGBR4       010VISTA          000000000018800000000196000000001830000000000000000000191000022121200
0202LOTE PADRAO                   BRASIL      ON *       BBAS3       010VISTA          000000000009000000000095000000000880000000000000000000091000010875300
