00BDIN9999BOVESPA 99992001031220010312
0101IBOVESPA                      0161250155230161430000000000000000002001031200000020010312015527000000
0202LOTE PADRAO                   EMBRATEL PARPN *       EBTP4       010VISTA          000000000026300000000266000000002530000000000000000000253000052132700
0202LOTE PADRAO                   EMBRATEL PARON *       EBTP3       010VISTA          000000000020100000000205000000001950000000000000000000196000047886000
0202LOTE PADRAO                   TRAN PAULISTPN * EJ    TRPL4       010VISTA          000000000008900000000089000000000840000000000000000000084000012683000
0202LOTE PADRAO                   TELEMAR     PN * EJ    TNLP4       010VISTA          000000000042400000000426000000004070000000000000000000410000112321000
0202LOTE PADRAO                   ITAUBANCO   PN * EJ    ITAU4       010VISTA          000000000174300000001810000000017180000000000000000001718000003513200
0202LOTE PADRAO                   TELEMAR     ON * EJ    TNLP3       010VISTA          000000000032900000000330000000003060000000000000000000306000014406200
0202LOTE PADRAO                   SID NACIONALON *       CSNA3       010VISTA          000000000049000000000498000000004800000000000000000000480000016041800
0202LOTE PADRAO                   TELE LEST CLPN *       TLCP4       010VISTA          000000000001780000000017800000000160000000000000000000016000100026000
0202LOTE PADRAO                   CRT CELULAR PNA* EJ    CRTP5       010VISTA          000000000960000000009600000000091100000000000000000009210000000535900
0202LOTE PADRAO                   IPIRANGA PETPN *       PTIP4       010VISTA          000000000014400000000148000000001410000000000000000000141000001023200
0202LOTE PADRAO                   BRASIL T PARPN *       BRTP4       010VISTA          000000000020500000000207000000001960000000000000000000197500071921600
0202LOTE PADRAO                   BRASIL T PARON *       BRTP3       010VISTA          000000000018100000000181000000001660000000000000000000166000009916500
0202LOTE PADRAO                   ACESITA     PN *       ACES4       010VISTA          000000000001000000000010000000000100000000000000000000010000163957000
0202LOTE PADRAO                   PETROBRAS   PN         PETR4       010VISTA          000000000057100000000571000000005450000000000000000000545000000064300
0202LOTE PADRAO                   ELETROBRAS  PNB*       ELET6       010VISTA          000000000040900000000412000000004050000000000000000000408000074435400
0202LOTE PADRAO                   PETROBRAS   ON         PETR3       010VISTA          000000000059200000000592000000005730000000000000000000573000000036600
0202LOTE PADRAO                   COMGAS      PNA*       CGAS5       010VISTA          000000000144000000001500000000014400000000000000000001481000009586300
0202LOTE PADRAO                   SOUZA CRUZ  ON EJ      CRUZ3       010VISTA          000000000011700000000117000000001060000000000000000000107000000046000
0202LOTE PADRAO                   ELETROBRAS  ON *       ELET3       010VISTA          000000000043000000000445000000004300000000000000000000442000042028300
0202LOTE PADRAO                   CELESC      PNB        CLSC6       010VISTA          000000000000640000000006400000000061000000000000000000006100000183800
0202LOTE PADRAO                   BRADESCO    PN * EJ    BBDC4       010VISTA          000000000012200000000123000000001150000000000000000000115000143519000
0202LOTE PADRAO                   CESP        PN *       CESP4       010VISTA          000000000025800000000261000000002400000000000000000000241000014266200
0202LOTE PADRAO                   LIGHT       ON *       LIGH3       010VISTA          000000000223000000002230000000021800000000000000000002190000000251300
0202LOTE PADRAO                   TELESP CL PAPN *       TSPP4       010VISTA          000000000016100000000163000000001560000000000000000000156000162731000
0202LOTE PADRAO                   VALE R DOCE PNA        VALE5       010VISTA          000000000050900000000510000000004810000000000000000000481000000038600
0202LOTE PADRAO                   COPEL       PNB*       CPLE6       010VISTA          000000000018300000000183000000001750000000000000000000176000022753200
0202LOTE PADRAO                   VALE R DOCE ON         VALE3       010VISTA          000000000047700000000477000000004750000000000000000000475000000000500
0202LOTE PADRAO                   ARACRUZ     PNB        ARCZ6       010VISTA          000000000003000000000030000000000280000000000000000000028000000046700
0202LOTE PADRAO                   TELEMIG PARTPN *       TMCP4       010VISTA          000000000006400000000064000000000570000000000000000000059000034767300
0202LOTE PADRAO                   BRASIL TELECPN *       BRTO4       010VISTA          000000000014800000000149000000001390000000000000000000139000040207700
0202LOTE PADRAO                   SABESP      ON *       SBSP3       010VISTA          000000000214900000002150000000019900000000000000000002000000002145900
0202LOTE PADRAO                   BRASKEM     PNA*       BRKM5       010VISTA          000000000664900000006650000000063500000000000000000006350000000143400
0202LOTE PADRAO                   EMBRAER     PN EJ      EMBR4       010VISTA          000000000020300000000205000000001960000000000000000000199000000008300
0202LOTE PADRAO                   TELESP      PN * EJ    TLPP4       010VISTA          000000000030800000000308000000002925000000000000000000297500015046100
0202LOTE PADRAO                   EMBRAER     ON EJ      EMBR3       010VISTA          000000000016000000000160000000001530000000000000000000153000000016800
0202LOTE PADRAO                   AMBEV       PN *       AMBV4       010VISTA          000000000511000000005110000000050500000000000000000005080000004763100
0202LOTE PADRAO                   USIMINAS    PNA        USIM5       010VISTA          000000000011000000000110000000001050000000000000000000106000000087600
0202LOTE PADRAO                   ELETROPAULO PN *       ELPL4       010VISTA          000000000096000000000975000000008900000000000000000000920000001403100
0202LOTE PADRAO                   TELE NORD CLPN *       TNEP4       010VISTA          000000000003400000000034000000000330000000000000000000033000033847000
0202LOTE PADRAO                   CEMIG       PN * EJ    CMIG4       010VISTA          000000000031400000000318000000003060000000000000000000306000027950400
0202LOTE PADRAO                   TELE CL SUL PN * EJ    TCSL4       010VISTA          000000000004300000000044000000000420000000000000000000042000077703000
0202LOTE PADRAO                   CEMIG       ON * EJ    CMIG3       010VISTA          000000000025600000000256000000002460000000000000000000248000000754700
0202LOTE PADRAO                   TELE CL SUL ON * EJ    TCSL3       010VISTA          000000000003400000000034000000000320000000000000000000032000016837100
0202LOTE PADRAO                   ITAUSA      PN         ITSA4       010VISTA          000000000001800000000018000000000177000000000000000000017800000452300
0202LOTE PADRAO                   SID TUBARAO PN *       CSTB4       010VISTA          000000000021000000000213000000002080000000000000000000208000004440000
0202LOTE PADRAO                   V C P       PN *       VCPA4       010VISTA          000000000057000000000575000000005650000000000000000000569000001120000
0202LOTE PADRAO                   BRADESPAR   PN *       BRAP4       010VISTA          000000000001000000000010000000000100000000000000000000010000154913000
0202LOTE PADRAO                   NET         PN         PLIM4       010VISTA          000000000001600000000016000000000154000000000000000000015400000838800
0202LOTE PADRAO                   TELE CTR OESPN * EJ    TCOC4       010VISTA          000000000007500000000076000000000680000000000000000000068000065314500
0202LOTE PADRAO                   GERDAU      PN * EJ    GGBR4       010VISTA          000000000019500000000196000000001910000000000000000000191000011888500
0202LOTE PADRAO                   BRASIL      ON *       BBAS3       010VISTA          000000000007700000000077000000000750000000000000000000076000003014200
