00BDIN9999BOVESPA 99992001052320010523
0101IBOVESPA                      0148290146270149050000000000000000002001052300000020010523014692000000
0202LOTE PADRAO                   EMBRATEL PARPN *       EBTP4       010VISTA          000000000019800000000201000000001920000000000000000000193000114481000
0202LOTE PADRAO                   EMBRATEL PARON *       EBTP3       010VISTA          000000000017500000000185000000001710000000000000000000176000056074500
0202LOTE PADRAO                   TRAN PAULISTPN * EJ    TRPL4       010VISTA          000000000006100000000061000000000571000000000000000000058000019651800
0202LOTE PADRAO                   TELEMAR     PN * EJ    TNLP4       010VISTA          000000000038200000000385000000003730000000000000000000379000161497000
0202LOTE PADRAO                   ITAUBANCO   PN * EJ    ITAU4       010VISTA          000000000183000000001950000000018150000000000000000001899000016093200
0202LOTE PADRAO                   TELEMAR     ON * EJ    TNLP3       010VISTA          000000000032200000000325000000003200000000000000000000323000009504000
0202LOTE PADRAO                   SID NACIONALON *       CSNA3       010VISTA          000000000048400000000484000000004620000000000000000000466000004466700
0202LOTE PADRAO                   TELE LEST CLPN *       TLCP4       010VISTA          000000000001800000000019000000000181000000000000000000018000156617000
0202LOTE PADRAO                   IPIRANGA PETPN *       PTIP4       010VISTA          000000000016000000000161000000001600000000000000000000160000005100000
0202LOTE PADRAO                   BRASIL T PARPN *       BRTP4       010VISTA          000000000018800000000188000000001810000000000000000000183000074127800
0202LOTE PADRAO                   BRASIL T PARON *       BRTP3       010VISTA          000000000018500000000186000000001780000000000000000000180000009116400
0202LOTE PADRAO                   ACESITA     PN *       ACES4       010VISTA          000000000000720000000007300000000069000000000000000000007000212340000
0202LOTE PADRAO                   PETROBRAS   PN         PETR4       010VISTA          000000000059100000000605000000005870000000000000000000597000000127900
0202LOTE PADRAO                   ELETROBRAS  PNB*       ELET6       010VISTA          000000000028000000000283000000002660000000000000000000270000068762600
0202LOTE PADRAO                   PETROBRAS   ON         PETR3       010VISTA          000000000065000000000662000000006420000000000000000000655000000026800
0202LOTE PADRAO                   COMGAS      PNA*       CGAS5       010VISTA          000000000140000000001460000000014000000000000000000001430000003303000
0202LOTE PADRAO                   SOUZA CRUZ  ON EJ      CRUZ3       010VISTA          000000000011500000000115000000001130000000000000000000114000000033700
0202LOTE PADRAO                   CELESC      PNB        CLSC6       010VISTA          000000000000480000000004900000000047000000000000000000004800000070400
0202LOTE PADRAO                   ELETROBRAS  ON *       ELET3       010VISTA          000000000031600000000320000000003080000000000000000000311000055707200
0202LOTE PADRAO                   BRADESCO    PN * EJ    BBDC4       010VISTA          000000000011800000000121000000001160000000000000000000120000215282000
0202LOTE PADRAO                   CESP        PN *       CESP4       010VISTA          000000000015600000000158000000001530000000000000000000153000021391000
0202LOTE PADRAO                   LIGHT       ON *       LIGH3       010VISTA          000000000131400000001314000000012500000000000000000001269000000514900
0202LOTE PADRAO                   TELESP CL PAPN *       TSPP4       010VISTA          000000000016500000000170000000001650000000000000000000166000566514000
0202LOTE PADRAO                   VALE R DOCE PNA        VALE5       010VISTA          000000000057600000000580000000005600000000000000000000566000000051600
0202LOTE PADRAO                   COPEL       PNB*       CPLE6       010VISTA          000000000017000000000175000000001680000000000000000000170000027605800
0202LOTE PADRAO                   VALE R DOCE ON         VALE3       010VISTA          000000000051000000000510000000005060000000000000000000506000000002100
0202LOTE PADRAO                   ARACRUZ     PNB        ARCZ6       010VISTA          000000000003810000000038000000000370000000000000000000037000000152000
0202LOTE PADRAO                   TELEMIG PARTPN *       TMCP4       010VISTA          000000000005200000000054000000000510000000000000000000052500081116000
0202LOTE PADRAO                   BRASIL TELECPN *       BRTO4       010VISTA          000000000012900000000130000000001225000000000000000000125000427418000
0202LOTE PADRAO                   SABESP      ON *       SBSP3       010VISTA          000000000165000000001730000000016100000000000000000001630000000700300
0202LOTE PADRAO                   BRASKEM     PNA*       BRKM5       010VISTA          000000000520000000005560000000052000000000000000000005201000000232400
0202LOTE PADRAO                   EMBRAER     PN EJ      EMBR4       010VISTA          000000000024600000000249000000002430000000000000000000244000000011200
0202LOTE PADRAO                   TELESP      PN * EJ    TLPP4       010VISTA          000000000030300000000307000000003000000000000000000000307000004479700
0202LOTE PADRAO                   EMBRAER     ON EJ      EMBR3       010VISTA          000000000019000000000195000000001900000000000000000000190000000016100
0202LOTE PADRAO                   AMBEV       PN *       AMBV4       010VISTA          000000000585000000005930000000058000000000000000000005800000001834200
0202LOTE PADRAO                   USIMINAS    PNA        USIM5       010VISTA          000000000006540000000066000000000600000000000000000000062500000160800
0202LOTE PADRAO                   ELETROPAULO PN *       ELPL4       010VISTA          000000000060000000000620000000005880000000000000000000614000016110400
0202LOTE PADRAO                   TELE NORD CLPN *       TNEP4       010VISTA          000000000003800000000040000000000380000000000000000000039000287467000
0202LOTE PADRAO                   CEMIG       PN * EJ    CMIG4       010VISTA          000000000022500000000231000000002230000000000000000000224000064922800
0202LOTE PADRAO                   TELE CL SUL PN * EJ    TCSL4       010VISTA          000000000004800000000048000000000470000000000000000000047000108736000
0202LOTE PADRAO                   CEMIG       ON * EJ    CMIG3       010VISTA          000000000023800000000238000000002260000000000000000000234000000545500
0202LOTE PADRAO                   TELE CL SUL ON * EJ    TCSL3       010VISTA          000000000004000000000040000000000390000000000000000000040000034884600
0202LOTE PADRAO                   ITAUSA      PN         ITSA4       010VISTA          000000000001970000000020000000000197000000000000000000020000000585200
0202LOTE PADRAO                   SID TUBARAO PN *       CSTB4       010VISTA          000000000023750000000248000000002340000000000000000000243000006137000
0202LOTE PADRAO                   V C P       PN *       VCPA4       010VISTA          000000000061000000000610000000005950000000000000000000606000001099200
0202LOTE PADRAO                   BRADESPAR   PN *       BRAP4       010VISTA          000000000000900000000009000000000085000000000000000000008600401618000
0202LOTE PADRAO                   NET         PN         PLIM4       010VISTA          000000000000930000000009300000000083000000000000000000008600001490300
0202LOTE PADRAO                   TELE CTR OESPN * EJ    TCOC4       010VISTA          000000000007000000000070000000000670000000000000000000070000098292600
0202LOTE PADRAO                   GERDAU      PN * EJ    GGBR4       010VISTA          000000000016200000000162000000001550000000000000000000160000007235400
0202LOTE PADRAO                   BRASIL      ON *       BBAS3       010VISTA          000000000008100000000081000000000790000000000000000000080000001948500
