00BDIN9999BOVESPA 99992001112120011121
0101IBOVESPA                      0126460125600128320000000000000000002001112100000020011121012794000000
0202LOTE PADRAO                   EMBRATEL PARPN *       EBTP4       010VISTA          000000000009800000000099000000000950000000000000000000096000128552000
0202LOTE PADRAO                   EMBRATEL PARON *       EBTP3       010VISTA          000000000010400000000106000000001000000000000000000000105000020130300
0202LOTE PADRAO                   TRAN PAULISTPN * EJ    TRPL4       010VISTA          000000000005700000000057500000000550000000000000000000057000009131000
0202LOTE PADRAO                   TELEMAR     PN * EJ    TNLP4       010VISTA          000000000032300000000325000000003130000000000000000000322500293558000
0202LOTE PADRAO                   ITAUBANCO   PN * EJ    ITAU4       010VISTA          000000000186000000001860000000018300000000000000000001850000007789300
0202LOTE PADRAO                   TELEMAR     ON * EJ    TNLP3       010VISTA          000000000027500000000280000000002700000000000000000000278000057269900
0202LOTE PADRAO                   SID NACIONALON *       CSNA3       010VISTA          000000000037000000000372000000003625000000000000000000368000003061200
0202LOTE PADRAO                   TELE LEST CLPN *       TLCP4       010VISTA          000000000000870000000009100000000085000000000000000000009100183465000
0202LOTE PADRAO                   CRT CELULAR PNA* EJ    CRTP5       010VISTA          000000000443500000004490000000044200000000000000000004490000000422900
0202LOTE PADRAO                   IPIRANGA PETPN *       PTIP4       010VISTA          000000000013000000000131000000001290000000000000000000130000009870000
0202LOTE PADRAO                   BRASIL T PARPN *       BRTP4       010VISTA          000000000017300000000178000000001700000000000000000000176000126949000
0202LOTE PADRAO                   BRASIL T PARON *       BRTP3       010VISTA          000000000017000000000176000000001680000000000000000000176000041243500
0202LOTE PADRAO                   ACESITA     PN *       ACES4       010VISTA          000000000000570000000005900000000055000000000000000000005800131164000
0202LOTE PADRAO                   PETROBRAS   PN         PETR4       010VISTA          000000000048200000000489000000004810000000000000000000487000000081000
0202LOTE PADRAO                   ELETROBRAS  PNB*       ELET6       010VISTA          000000000034500000000347000000003360000000000000000000346000029231300
0202LOTE PADRAO                   PETROBRAS   ON         PETR3       010VISTA          000000000049200000000506000000004920000000000000000000503000000032300
0202LOTE PADRAO                   COMGAS      PNA*       CGAS5       010VISTA          000000000085000000000870000000008450000000000000000000870000002599200
0202LOTE PADRAO                   SOUZA CRUZ  ON EJ      CRUZ3       010VISTA          000000000012700000000130000000001270000000000000000000129000000008900
0202LOTE PADRAO                   ELETROBRAS  ON *       ELET3       010VISTA          000000000036000000000361000000003510000000000000000000360000015852600
0202LOTE PADRAO                   CELESC      PNB        CLSC6       010VISTA          000000000000460000000004800000000045000000000000000000004800000147200
0202LOTE PADRAO                   BRADESCO    PN * EJ    BBDC4       010VISTA          000000000012300000000124000000001220000000000000000000123000172731000
0202LOTE PADRAO                   CESP        PN *       CESP4       010VISTA          000000000012000000000134000000001200000000000000000000134000028165300
0202LOTE PADRAO                   LIGHT       ON *       LIGH3       010VISTA          000000000090000000000939000000008850000000000000000000939000001658800
0202LOTE PADRAO                   TELESP CL PAPN *       TSPP4       010VISTA          000000000007200000000072000000000700000000000000000000072500281215000
0202LOTE PADRAO                   VALE R DOCE PNA        VALE5       010VISTA          000000000055600000000561000000005420000000000000000000542000000035000
0202LOTE PADRAO                   COPEL       PNB*       CPLE6       010VISTA          000000000015500000000160000000001540000000000000000000159000035540100
0202LOTE PADRAO                   VALE R DOCE ON         VALE3       010VISTA          000000000052900000000529000000005250000000000000000000525000000003900
0202LOTE PADRAO                   ARACRUZ     PNB        ARCZ6       010VISTA          000000000004500000000047000000000450000000000000000000045000000044000
0202LOTE PADRAO                   TELEMIG PARTPN *       TMCP4       010VISTA          000000000004000000000042000000000400000000000000000000041000093636000
0202LOTE PADRAO                   BRASIL TELECPN *       BRTO4       010VISTA          000000000013000000000130000000001250000000000000000000129000128247000
0202LOTE PADRAO                   SABESP      ON *       SBSP3       010VISTA          000000000129500000001310000000012600000000000000000001300000000486000
0202LOTE PADRAO                   BRASKEM     PNA*       BRKM5       010VISTA          000000000385000000004050000000037500000000000000000004030000000263000
0202LOTE PADRAO                   EMBRAER     PN EJ      EMBR4       010VISTA          000000000011000000000113000000001090000000000000000000112000000064400
0202LOTE PADRAO                   TELESP      PN * EJ    TLPP4       010VISTA          000000000029100000000293000000002850000000000000000000292500009487800
0202LOTE PADRAO                   EMBRAER     ON EJ      EMBR3       010VISTA          000000000009300000000096000000000930000000000000000000095000000050200
0202LOTE PADRAO                   AMBEV       PN *       AMBV4       010VISTA          000000000490000000004900000000047500000000000000000004899000001356200
0202LOTE PADRAO                   USIMINAS    PNA        USIM5       010VISTA          000000000005700000000059000000000550000000000000000000059000000120300
0202LOTE PADRAO                   ELETROPAULO PN *       ELPL4       010VISTA          000000000070500000000725000000007050000000000000000000715000004405000
0202LOTE PADRAO                   TELE NORD CLPN *       TNEP4       010VISTA          000000000003100000000031000000000300000000000000000000031000074787400
0202LOTE PADRAO                   CEMIG       PN * EJ    CMIG4       010VISTA          000000000028800000000290000000002850000000000000000000286000035434400
0202LOTE PADRAO                   TELE CL SUL PN * EJ    TCSL4       010VISTA          000000000003400000000034000000000330000000000000000000033000068145000
0202LOTE PADRAO                   CEMIG       ON * EJ    CMIG3       010VISTA          000000000026600000000270000000002660000000000000000000270000004223500
0202LOTE PADRAO                   TELE CL SUL ON * EJ    TCSL3       010VISTA          000000000002800000000029400000000280000000000000000000029000015526800
0202LOTE PADRAO                   ITAUSA      PN         ITSA4       010VISTA          000000000002000000000021000000000200000000000000000000021000000434500
0202LOTE PADRAO                   V C P       PN *       VCPA4       010VISTA          000000000082000000000830000000007900000000000000000000800000009140500
0202LOTE PADRAO                   SID TUBARAO PN *       CSTB4       010VISTA          000000000019300000000198000000001900000000000000000000198000003788500
0202LOTE PADRAO                   BRADESPAR   PN *       BRAP4       010VISTA          000000000000730000000007600000000071000000000000000000007500159885000
0202LOTE PADRAO                   NET         PN         PLIM4       010VISTA          000000000000730000000007800000000073000000000000000000007600000594800
0202LOTE PADRAO                   TELE CTR OESPN * EJ    TCOC4       010VISTA          000000000005400000000057000000000540000000000000000000056000107389000
0202LOTE PADRAO                   TELEMAR N L PNA* EJ    TMAR5       010VISTA          000000000052100000000528000000005100000000000000000000521000029710300
0202LOTE PADRAO                   GERDAU      PN * EJ    GGBR4       010VISTA          000000000022200000000226000000002190000000000000000000225000034971500
0202LOTE PADRAO                   BRASIL      ON *       BBAS3       010VISTA          000000000008600000000095000000000850000000000000000000094000008213200
