00BDIN9999BOVESPA 99992001102920011029
0101IBOVESPA                      0117840113310117840000000000000000002001102900000020011029011377000000
0202LOTE PADRAO                   EMBRATEL PARPN *       EBTP4       010VISTA          000000000007800000000078000000000730000000000000000000074000076183400
0202LOTE PADRAO                   EMBRATEL PARON *       EBTP3       010VISTA          000000000008500000000085000000000780000000000000000000079000022310500
0202LOTE PADRAO                   TRAN PAULISTPN * EJ    TRPL4       010VISTA          000000000005500000000055000000000530000000000000000000053000006491500
0202LOTE PADRAO                   TELEMAR     PN * EJ    TNLP4       010VISTA          000000000028250000000288000000002775000000000000000000280000349286000
0202LOTE PADRAO                   ITAUBANCO   PN * EJ    ITAU4       010VISTA          000000000178000000001780000000016990000000000000000001701000002176500
0202LOTE PADRAO                   TELEMAR     ON * EJ    TNLP3       010VISTA          000000000026000000000260000000002450000000000000000000248000016479000
0202LOTE PADRAO                   SID NACIONALON *       CSNA3       010VISTA          000000000028750000000288000000002800000000000000000000285000004917000
0202LOTE PADRAO                   TELE LEST CLPN *       TLCP4       010VISTA          000000000000760000000007800000000072000000000000000000007300121784000
0202LOTE PADRAO                   CRT CELULAR PNA* EJ    CRTP5       010VISTA          000000000385000000003850000000036900000000000000000003730000000774100
0202LOTE PADRAO                   IPIRANGA PETPN *       PTIP4       010VISTA          000000000011600000000118000000001150000000000000000000115000000680000
0202LOTE PADRAO                   BRASIL T PARPN *       BRTP4       010VISTA          000000000015000000000159000000001500000000000000000000152000074205300
0202LOTE PADRAO                   BRASIL T PARON *       BRTP3       010VISTA          000000000015300000000153000000001440000000000000000000146000014567000
0202LOTE PADRAO                   ACESITA     PN *       ACES4       010VISTA          000000000000500000000005000000000047000000000000000000004800148464000
0202LOTE PADRAO                   PETROBRAS   PN         PETR4       010VISTA          000000000052600000000535000000005150000000000000000000517000000092700
0202LOTE PADRAO                   ELETROBRAS  PNB*       ELET6       010VISTA          000000000032700000000332000000003250000000000000000000330000048779500
0202LOTE PADRAO                   PETROBRAS   ON         PETR3       010VISTA          000000000054200000000548000000005270000000000000000000530000000018800
0202LOTE PADRAO                   COMGAS      PNA*       CGAS5       010VISTA          000000000082400000000824000000007800000000000000000000800000000647600
0202LOTE PADRAO                   SOUZA CRUZ  ON EJ      CRUZ3       010VISTA          000000000012800000000130000000001220000000000000000000122000000009000
0202LOTE PADRAO                   ELETROBRAS  ON *       ELET3       010VISTA          000000000035200000000360000000003510000000000000000000360000016797200
0202LOTE PADRAO                   CELESC      PNB        CLSC6       010VISTA          000000000000460000000004600000000043000000000000000000004300000153900
0202LOTE PADRAO                   BRADESCO    PN * EJ    BBDC4       010VISTA          000000000010700000000108000000001030000000000000000000103000108003000
0202LOTE PADRAO                   CESP        PN *       CESP4       010VISTA          000000000013300000000134000000001300000000000000000000130000008983300
0202LOTE PADRAO                   LIGHT       ON *       LIGH3       010VISTA          000000000093900000000985000000008990000000000000000000905000000747300
0202LOTE PADRAO                   TELESP CL PAPN *       TSPP4       010VISTA          000000000006000000000061000000000570000000000000000000057000284722000
0202LOTE PADRAO                   VALE R DOCE PNA        VALE5       010VISTA          000000000055500000000559000000005470000000000000000000551000000024100
0202LOTE PADRAO                   COPEL       PNB*       CPLE6       010VISTA          000000000015400000000155000000001410000000000000000000143000052758500
0202LOTE PADRAO                   VALE R DOCE ON         VALE3       010VISTA          000000000052200000000522000000005200000000000000000000520000000000000
0202LOTE PADRAO                   ARACRUZ     PNB        ARCZ6       010VISTA          000000000004750000000049000000000450000000000000000000047100000017100
0202LOTE PADRAO                   TELEMIG PARTPN *       TMCP4       010VISTA          000000000003600000000036000000000330000000000000000000033000061456000
0202LOTE PADRAO                   BRASIL TELECPN *       BRTO4       010VISTA          000000000011000000000110000000001030000000000000000000104000104098000
0202LOTE PADRAO                   SABESP      ON *       SBSP3       010VISTA          000000000115900000001159000000010900000000000000000001119000001028600
0202LOTE PADRAO                   BRASKEM     PNA*       BRKM5       010VISTA          000000000393900000004000000000037500000000000000000003750000000062100
0202LOTE PADRAO                   EMBRAER     PN EJ      EMBR4       010VISTA          000000000012000000000124000000001160000000000000000000118000000059300
0202LOTE PADRAO                   TELESP      PN * EJ    TLPP4       010VISTA          000000000026000000000260000000002450000000000000000000250000006842900
0202LOTE PADRAO                   EMBRAER     ON EJ      EMBR3       010VISTA          000000000009900000000100000000000960000000000000000000097000000033600
0202LOTE PADRAO                   AMBEV       PN *       AMBV4       010VISTA          000000000444000000004500000000043400000000000000000004465000004190500
0202LOTE PADRAO                   USIMINAS    PNA        USIM5       010VISTA          000000000004100000000041000000000380000000000000000000039800000037200
0202LOTE PADRAO                   ELETROPAULO PN *       ELPL4       010VISTA          000000000066700000000667000000006190000000000000000000621000001603900
0202LOTE PADRAO                   TELE NORD CLPN *       TNEP4       010VISTA          000000000002700000000028100000000260000000000000000000026900107886000
0202LOTE PADRAO                   CEMIG       PN * EJ    CMIG4       010VISTA          000000000026800000000273000000002650000000000000000000266000022708100
0202LOTE PADRAO                   TELE CL SUL PN * EJ    TCSL4       010VISTA          000000000003100000000032000000000280000000000000000000029000080041300
0202LOTE PADRAO                   CEMIG       ON * EJ    CMIG3       010VISTA          000000000026600000000266000000002600000000000000000000263000001043200
0202LOTE PADRAO                   TELE CL SUL ON * EJ    TCSL3       010VISTA          000000000002600000000026000000000230000000000000000000024000036377000
0202LOTE PADRAO                   ITAUSA      PN         ITSA4       010VISTA          000000000001900000000019000000000180000000000000000000018000000251700
0202LOTE PADRAO                   SID TUBARAO PN *       CSTB4       010VISTA          000000000017500000000175000000001660000000000000000000171000004060000
0202LOTE PADRAO                   V C P       PN *       VCPA4       010VISTA          000000000079400000000794000000007770000000000000000000777000002420500
0202LOTE PADRAO                   BRADESPAR   PN *       BRAP4       010VISTA          000000000000640000000006400000000061000000000000000000006200173078000
0202LOTE PADRAO                   NET         PN         PLIM4       010VISTA          000000000000680000000006900000000064000000000000000000006400000601300
0202LOTE PADRAO                   TELE CTR OESPN * EJ    TCOC4       010VISTA          000000000004900000000049000000000450000000000000000000046000066770600
0202LOTE PADRAO                   GERDAU      PN * EJ    GGBR4       010VISTA          000000000018800000000188000000001810000000000000000000182500014703600
0202LOTE PADRAO                   BRASIL      ON *       BBAS3       010VISTA          000000000007600000000079000000000740000000000000000000074000004142200
