00BDIN9999BOVESPA 99992001082420010824
0101IBOVESPA                      0127490126810130070000000000000000002001082400000020010824013001000000
0202LOTE PADRAO                   EMBRATEL PARPN *       EBTP4       010VISTA          000000000009900000000099000000000950000000000000000000096000157281000
0202LOTE PADRAO                   EMBRATEL PARON *       EBTP3       010VISTA          000000000010500000000105000000001000000000000000000000105000054239200
0202LOTE PADRAO                   TRAN PAULISTPN * EJ    TRPL4       010VISTA          000000000006400000000065000000000630000000000000000000065000008028000
0202LOTE PADRAO                   TELEMAR     PN * EJ    TNLP4       010VISTA          000000000028600000000291000000002810000000000000000000291000157758000
0202LOTE PADRAO                   ITAUBANCO   PN * EJ    ITAU4       010VISTA          000000000181500000001815000000017700000000000000000001790000008055600
0202LOTE PADRAO                   TELEMAR     ON * EJ    TNLP3       010VISTA          000000000025800000000263000000002560000000000000000000263000006204200
0202LOTE PADRAO                   SID NACIONALON *       CSNA3       010VISTA          000000000035800000000364000000003550000000000000000000360000003089700
0202LOTE PADRAO                   TELE LEST CLPN *       TLCP4       010VISTA          000000000001480000000014900000000140000000000000000000014000060228300
0202LOTE PADRAO                   CRT CELULAR PNA* EJ    CRTP5       010VISTA          000000000955000000009900000000094000000000000000000009490000000590100
0202LOTE PADRAO                   IPIRANGA PETPN *       PTIP4       010VISTA          000000000014200000000146000000001410000000000000000000142000000444300
0202LOTE PADRAO                   BRASIL T PARPN *       BRTP4       010VISTA          000000000014400000000153000000001440000000000000000000150000071515400
0202LOTE PADRAO                   BRASIL T PARON *       BRTP3       010VISTA          000000000013900000000145000000001390000000000000000000145000011399800
0202LOTE PADRAO                   ACESITA     PN *       ACES4       010VISTA          000000000000540000000005500000000053000000000000000000005500103468000
0202LOTE PADRAO                   PETROBRAS   PN         PETR4       010VISTA          000000000053200000000558000000005290000000000000000000558000000117500
0202LOTE PADRAO                   ELETROBRAS  PNB*       ELET6       010VISTA          000000000031800000000324000000003160000000000000000000321000025127000
0202LOTE PADRAO                   PETROBRAS   ON         PETR3       010VISTA          000000000055300000000581000000005480000000000000000000577000000036200
0202LOTE PADRAO                   COMGAS      PNA*       CGAS5       010VISTA          000000000127900000001279000000012300000000000000000001259000002075500
0202LOTE PADRAO                   SOUZA CRUZ  ON EJ      CRUZ3       010VISTA          000000000011000000000111000000001070000000000000000000110000000003700
0202LOTE PADRAO                   ELETROBRAS  ON *       ELET3       010VISTA          000000000035700000000366000000003570000000000000000000363000015811600
0202LOTE PADRAO                   CELESC      PNB        CLSC6       010VISTA          000000000000430000000004300000000041000000000000000000004300000163500
0202LOTE PADRAO                   BRADESCO    PN * EJ    BBDC4       010VISTA          000000000011400000000116000000001130000000000000000000113000187294000
0202LOTE PADRAO                   CESP        PN *       CESP4       010VISTA          000000000012000000000124000000001200000000000000000000123000007751800
0202LOTE PADRAO                   LIGHT       ON *       LIGH3       010VISTA          000000000111000000001169000000011100000000000000000001165000000295300
0202LOTE PADRAO                   TELESP CL PAPN *       TSPP4       010VISTA          000000000013500000000141000000001350000000000000000000140000032095800
0202LOTE PADRAO                   VALE R DOCE PNA        VALE5       010VISTA          000000000052000000000522000000005170000000000000000000520000000017500
0202LOTE PADRAO                   COPEL       PNB*       CPLE6       010VISTA          000000000017500000000176000000001730000000000000000000176000031467400
0202LOTE PADRAO                   VALE R DOCE ON         VALE3       010VISTA          000000000051250000000512000000005110000000000000000000512000000002200
0202LOTE PADRAO                   ARACRUZ     PNB        ARCZ6       010VISTA          000000000004200000000042000000000420000000000000000000042000000036500
0202LOTE PADRAO                   TELEMIG PARTPN *       TMCP4       010VISTA          000000000003700000000038000000000371000000000000000000038000037334400
0202LOTE PADRAO                   BRASIL TELECPN *       BRTO4       010VISTA          000000000010500000000105000000000980000000000000000000104000067462100
0202LOTE PADRAO                   SABESP      ON *       SBSP3       010VISTA          000000000167000000001728000000016600000000000000000001710000000637600
0202LOTE PADRAO                   BRASKEM     PNA*       BRKM5       010VISTA          000000000426000000004399000000041000000000000000000004320000000146200
0202LOTE PADRAO                   EMBRAER     PN EJ      EMBR4       010VISTA          000000000018400000000190000000001840000000000000000000190000000039600
0202LOTE PADRAO                   TELESP      PN * EJ    TLPP4       010VISTA          000000000025300000000256000000002530000000000000000000256000021005200
0202LOTE PADRAO                   EMBRAER     ON EJ      EMBR3       010VISTA          000000000014400000000149000000001440000000000000000000148000000018900
0202LOTE PADRAO                   AMBEV       PN *       AMBV4       010VISTA          000000000495000000005000000000047500000000000000000004980000000498200
0202LOTE PADRAO                   USIMINAS    PNA        USIM5       010VISTA          000000000006000000000061000000000600000000000000000000061000000037400
0202LOTE PADRAO                   ELETROPAULO PN *       ELPL4       010VISTA          000000000068800000000715000000006790000000000000000000715000002127600
0202LOTE PADRAO                   TELE NORD CLPN *       TNEP4       010VISTA          000000000002700000000028000000000270000000000000000000028000066614700
0202LOTE PADRAO                   CEMIG       PN * EJ    CMIG4       010VISTA          000000000025900000000266000000002550000000000000000000258000029763800
0202LOTE PADRAO                   TELE CL SUL PN * EJ    TCSL4       010VISTA          000000000003300000000034000000000325000000000000000000034000045742100
0202LOTE PADRAO                   CEMIG       ON * EJ    CMIG3       010VISTA          000000000026100000000270000000002540000000000000000000264000000771700
0202LOTE PADRAO                   TELE CL SUL ON * EJ    TCSL3       010VISTA          000000000002700000000028000000000270000000000000000000028000020650800
0202LOTE PADRAO                   ITAUSA      PN         ITSA4       010VISTA          000000000001950000000019800000000195000000000000000000019700000199000
0202LOTE PADRAO                   SID TUBARAO PN *       CSTB4       010VISTA          000000000020300000000203000000002020000000000000000000203000003600000
0202LOTE PADRAO                   V C P       PN *       VCPA4       010VISTA          000000000069600000000705000000006940000000000000000000695000001685400
0202LOTE PADRAO                   BRADESPAR   PN *       BRAP4       010VISTA          000000000000680000000006900000000067000000000000000000006700173862000
0202LOTE PADRAO                   NET         PN         PLIM4       010VISTA          000000000000820000000008900000000081000000000000000000008800001857500
0202LOTE PADRAO                   TELE CTR OESPN * EJ    TCOC4       010VISTA          000000000005000000000053000000000500000000000000000000051000028479300
0202LOTE PADRAO                   GERDAU      PN * EJ    GGBR4       010VISTA          000000000016100000000165000000001610000000000000000000164000002569600
0202LOTE PADRAO                   BRASIL      ON *       BBAS3       010VISTA          000000000009600000000097000000000910000000000000000000094000007409400
