00BDIN9999BOVESPA 99992001043020010430
0101IBOVESPA                      0149440148380152100000000000000000002001043000000020010430014918000000
0202LOTE PADRAO                   EMBRATEL PARPN *       EBTP4       010VISTA          000000000021000000000212500000002000000000000000000000206000106723000
0202LOTE PADRAO                   EMBRATEL PARON *       EBTP3       010VISTA          000000000019000000000193000000001880000000000000000000190000026773600
0202LOTE PADRAO                   TRAN PAULISTPN * EJ    TRPL4       010VISTA          000000000007400000000074000000000700000000000000000000070000099462400
0202LOTE PADRAO                   TELEMAR     PN * EJ    TNLP4       010VISTA          000000000038200000000392000000003750000000000000000000383000177530000
0202LOTE PADRAO                   ITAUBANCO   PN * EJ    ITAU4       010VISTA          000000000175600000001780000000017560000000000000000001770000005662100
0202LOTE PADRAO                   TELEMAR     ON * EJ    TNLP3       010VISTA          000000000034900000000360000000003240000000000000000000324000018406600
0202LOTE PADRAO                   SID NACIONALON *       CSNA3       010VISTA          000000000050200000000520000000005020000000000000000000517000009574600
0202LOTE PADRAO                   TELE LEST CLPN *       TLCP4       010VISTA          000000000001600000000017200000000154000000000000000000016000130064000
0202LOTE PADRAO                   IPIRANGA PETPN *       PTIP4       010VISTA          000000000016500000000165000000001600000000000000000000160000002690000
0202LOTE PADRAO                   BRASIL T PARPN *       BRTP4       010VISTA          000000000020000000000203000000001900000000000000000000198000046065300
0202LOTE PADRAO                   BRASIL T PARON *       BRTP3       010VISTA          000000000020000000000201000000001830000000000000000000183000024626500
0202LOTE PADRAO                   ACESITA     PN *       ACES4       010VISTA          000000000000870000000008900000000085000000000000000000008700248420000
0202LOTE PADRAO                   PETROBRAS   PN         PETR4       010VISTA          000000000053400000000540000000005260000000000000000000533000000073300
0202LOTE PADRAO                   ELETROBRAS  PNB*       ELET6       010VISTA          000000000033500000000345000000003325000000000000000000344000048630400
0202LOTE PADRAO                   PETROBRAS   ON         PETR3       010VISTA          000000000059000000000596000000005880000000000000000000588000000016800
0202LOTE PADRAO                   COMGAS      PNA*       CGAS5       010VISTA          000000000132900000001329000000012700000000000000000001300000001176300
0202LOTE PADRAO                   SOUZA CRUZ  ON EJ      CRUZ3       010VISTA          000000000010900000000109000000001050000000000000000000108000000018900
0202LOTE PADRAO                   CELESC      PNB        CLSC6       010VISTA          000000000000510000000005200000000048000000000000000000004900000218200
0202LOTE PADRAO                   ELETROBRAS  ON *       ELET3       010VISTA          000000000037000000000379000000003670000000000000000000375000015183800
0202LOTE PADRAO                   BRADESCO    PN * EJ    BBDC4       010VISTA          000000000012250000000126000000001225000000000000000000125000155744000
0202LOTE PADRAO                   CESP        PN *       CESP4       010VISTA          000000000018100000000183000000001760000000000000000000176000019422000
0202LOTE PADRAO                   LIGHT       ON *       LIGH3       010VISTA          000000000158000000001580000000015000000000000000000001500000000615700
0202LOTE PADRAO                   TELESP CL PAPN *       TSPP4       010VISTA          000000000015300000000155000000001450000000000000000000151000131822000
0202LOTE PADRAO                   VALE R DOCE PNA        VALE5       010VISTA          000000000051200000000520000000005080000000000000000000508000000071500
0202LOTE PADRAO                   COPEL       PNB*       CPLE6       010VISTA          000000000016800000000173000000001650000000000000000000165000039201000
0202LOTE PADRAO                   VALE R DOCE ON         VALE3       010VISTA          000000000048500000000485000000004850000000000000000000485000000004400
0202LOTE PADRAO                   ARACRUZ     PNB        ARCZ6       010VISTA          000000000003300000000033000000000310000000000000000000031000000055900
0202LOTE PADRAO                   TELEMIG PARTPN *       TMCP4       010VISTA          000000000004300000000044000000000410000000000000000000041000148937000
0202LOTE PADRAO                   BRASIL TELECPN *       BRTO4       010VISTA          000000000013900000000141000000001360000000000000000000137000087130100
0202LOTE PADRAO                   SABESP      ON *       SBSP3       010VISTA          000000000187000000001870000000017700000000000000000001809000001220500
0202LOTE PADRAO                   BRASKEM     PNA*       BRKM5       010VISTA          000000000596900000005969000000057000000000000000000005800000000038200
0202LOTE PADRAO                   EMBRAER     PN EJ      EMBR4       010VISTA          000000000024800000000255000000002330000000000000000000233000000024300
0202LOTE PADRAO                   TELESP      PN * EJ    TLPP4       010VISTA          000000000030000000000302000000002950000000000000000000301000007687500
0202LOTE PADRAO                   EMBRAER     ON EJ      EMBR3       010VISTA          000000000019800000000201000000001850000000000000000000188000000028100
0202LOTE PADRAO                   AMBEV       PN *       AMBV4       010VISTA          000000000540000000005500000000053000000000000000000005380000001556300
0202LOTE PADRAO                   USIMINAS    PNA        USIM5       010VISTA          000000000008900000000090000000000850000000000000000000085000000025200
0202LOTE PADRAO                   ELETROPAULO PN *       ELPL4       010VISTA          000000000070000000000700000000006600000000000000000000670000003458200
0202LOTE PADRAO                   TELE NORD CLPN *       TNEP4       010VISTA          000000000003100000000032500000000310000000000000000000031000068145400
0202LOTE PADRAO                   CEMIG       PN * EJ    CMIG4       010VISTA          000000000026500000000270000000002510000000000000000000252500035072300
0202LOTE PADRAO                   TELE CL SUL PN * EJ    TCSL4       010VISTA          000000000004200000000044000000000420000000000000000000043000077762900
0202LOTE PADRAO                   CEMIG       ON * EJ    CMIG3       010VISTA          000000000027000000000270000000002500000000000000000000250000004665100
0202LOTE PADRAO                   TELE CL SUL ON * EJ    TCSL3       010VISTA          000000000003600000000037000000000330000000000000000000034000016666600
0202LOTE PADRAO                   ITAUSA      PN         ITSA4       010VISTA          000000000001800000000019000000000180000000000000000000018000000232100
0202LOTE PADRAO                   SID TUBARAO PN *       CSTB4       010VISTA          000000000022000000000220000000002060000000000000000000210000012894400
0202LOTE PADRAO                   V C P       PN *       VCPA4       010VISTA          000000000059700000000613000000005970000000000000000000610000003533700
0202LOTE PADRAO                   BRADESPAR   PN *       BRAP4       010VISTA          000000000000940000000009500000000091000000000000000000009200219434000
0202LOTE PADRAO                   NET         PN         PLIM4       010VISTA          000000000001100000000012500000000110000000000000000000012500001226600
0202LOTE PADRAO                   TELE CTR OESPN * EJ    TCOC4       010VISTA          000000000006100000000063000000000610000000000000000000063000065617200
0202LOTE PADRAO                   GERDAU      PN * EJ    GGBR4       010VISTA          000000000019800000000205000000001980000000000000000000201000007664400
0202LOTE PADRAO                   BRASIL      ON *       BBAS3       010VISTA          000000000009000000000091000000000850000000000000000000086000010288900
