00BDIN9999BOVESPA 99992001022020010220
0101IBOVESPA                      0160660157830162420000000000000000002001022000000020010220015911000000
0202LOTE PADRAO                   EMBRATEL PARPN *       EBTP4       010VISTA          000000000025500000000256000000002380000000000000000000238000122529000
0202LOTE PADRAO                   EMBRATEL PARON *       EBTP3       010VISTA          000000000020500000000208000000001910000000000000000000195000082416600
0202LOTE PADRAO                   TRAN PAULISTPN * EJ    TRPL4       010VISTA          000000000009250000000092500000000870000000000000000000087000011491700
0202LOTE PADRAO                   TELEMAR     PN * EJ    TNLP4       010VISTA          000000000045200000000455000000004400000000000000000000442000169756000
0202LOTE PADRAO                   ITAUBANCO   PN * EJ    ITAU4       010VISTA          000000000175500000001775000000016700000000000000000001729000008172000
0202LOTE PADRAO                   TELEMAR     ON * EJ    TNLP3       010VISTA          000000000035000000000350000000003350000000000000000000335000027325200
0202LOTE PADRAO                   SID NACIONALON *       CSNA3       010VISTA          000000000068400000000697000000006800000000000000000000695000012838200
0202LOTE PADRAO                   TELE LEST CLPN *       TLCP4       010VISTA          000000000001500000000015300000000130000000000000000000013000124403000
0202LOTE PADRAO                   IPIRANGA PETPN *       PTIP4       010VISTA          000000000015900000000159000000001450000000000000000000148000006278300
0202LOTE PADRAO                   BRASIL T PARPN *       BRTP4       010VISTA          000000000021000000000213000000002040000000000000000000206000080027300
0202LOTE PADRAO                   BRASIL T PARON *       BRTP3       010VISTA          000000000019000000000190000000001800000000000000000000180000025007400
0202LOTE PADRAO                   ACESITA     PN *       ACES4       010VISTA          000000000001100000000011000000000110000000000000000000011000132252000
0202LOTE PADRAO                   PETROBRAS   PN         PETR4       010VISTA          000000000055700000000570000000005550000000000000000000570000000101200
0202LOTE PADRAO                   ELETROBRAS  PNB*       ELET6       010VISTA          000000000037800000000378000000003620000000000000000000373000043337900
0202LOTE PADRAO                   PETROBRAS   ON         PETR3       010VISTA          000000000057000000000577000000005670000000000000000000576000000103500
0202LOTE PADRAO                   COMGAS      PNA*       CGAS5       010VISTA          000000000158000000001585000000015200000000000000000001574000010886500
0202LOTE PADRAO                   SOUZA CRUZ  ON EJ      CRUZ3       010VISTA          000000000011800000000124000000001180000000000000000000121000000044800
0202LOTE PADRAO                   CELESC      PNB        CLSC6       010VISTA          000000000000650000000006500000000064000000000000000000006400000120700
0202LOTE PADRAO                   ELETROBRAS  ON *       ELET3       010VISTA          000000000039000000000397000000003800000000000000000000383000036751200
0202LOTE PADRAO                   BRADESCO    PN * EJ    BBDC4       010VISTA          000000000011800000000119000000001150000000000000000000117500216899000
0202LOTE PADRAO                   CESP        PN *       CESP4       010VISTA          000000000023600000000244000000002320000000000000000000233000007810500
0202LOTE PADRAO                   LIGHT       ON *       LIGH3       010VISTA          000000000236900000002370000000022050000000000000000002250000000149100
0202LOTE PADRAO                   TELESP CL PAPN *       TSPP4       010VISTA          000000000020000000000200000000001850000000000000000000185000071691700
0202LOTE PADRAO                   VALE R DOCE PNA        VALE5       010VISTA          000000000048000000000490000000004800000000000000000000483000000042000
0202LOTE PADRAO                   COPEL       PNB*       CPLE6       010VISTA          000000000019300000000199000000001880000000000000000000191000035490000
0202LOTE PADRAO                   VALE R DOCE ON         VALE3       010VISTA          000000000047500000000477000000004750000000000000000000477000000025300
0202LOTE PADRAO                   ARACRUZ     PNB        ARCZ6       010VISTA          000000000002690000000027000000000260000000000000000000027100000041300
0202LOTE PADRAO                   TELEMIG PARTPN *       TMCP4       010VISTA          000000000005960000000060000000000540000000000000000000054000081602400
0202LOTE PADRAO                   BRASIL TELECPN *       BRTO4       010VISTA          000000000015400000000155000000001450000000000000000000148000043364700
0202LOTE PADRAO                   SABESP      ON *       SBSP3       010VISTA          000000000210000000002170000000020800000000000000000002150000002984300
0202LOTE PADRAO                   BRASKEM     PNA*       BRKM5       010VISTA          000000000630000000006300000000061500000000000000000006250000000120600
0202LOTE PADRAO                   EMBRAER     PN EJ      EMBR4       010VISTA          000000000018000000000183000000001800000000000000000000181000000034600
0202LOTE PADRAO                   TELESP      PN * EJ    TLPP4       010VISTA          000000000030100000000301000000002930000000000000000000298000021578000
0202LOTE PADRAO                   EMBRAER     ON EJ      EMBR3       010VISTA          000000000015400000000155000000001510000000000000000000154000000027800
0202LOTE PADRAO                   AMBEV       PN *       AMBV4       010VISTA          000000000509000000005200000000050700000000000000000005120000002241000
0202LOTE PADRAO                   USIMINAS    PNA        USIM5       010VISTA          000000000011000000000111000000001050000000000000000000108000000032800
0202LOTE PADRAO                   ELETROPAULO PN *       ELPL4       010VISTA          000000000106000000001065000000010500000000000000000001065000002571900
0202LOTE PADRAO                   TELE NORD CLPN *       TNEP4       010VISTA          000000000003500000000036000000000348000000000000000000035000129686000
0202LOTE PADRAO                   CEMIG       PN * EJ    CMIG4       010VISTA          000000000031500000000316000000003080000000000000000000313000024411300
0202LOTE PADRAO                   TELE CL SUL PN * EJ    TCSL4       010VISTA          000000000004500000000045000000000410000000000000000000042000110933000
0202LOTE PADRAO                   CEMIG       ON * EJ    CMIG3       010VISTA          000000000027000000000270000000002600000000000000000000261000004802500
0202LOTE PADRAO                   TELE CL SUL ON * EJ    TCSL3       010VISTA          000000000003600000000036000000000340000000000000000000035000008215700
0202LOTE PADRAO                   ITAUSA      PN         ITSA4       010VISTA          000000000001960000000019700000000180000000000000000000018000000206500
0202LOTE PADRAO                   SID TUBARAO PN *       CSTB4       010VISTA          000000000022600000000226000000002130000000000000000000220000004560000
0202LOTE PADRAO                   V C P       PN *       VCPA4       010VISTA          000000000054900000000555000000005400000000000000000000541000001374600
0202LOTE PADRAO                   BRADESPAR   PN *       BRAP4       010VISTA          000000000001000000000011000000000100000000000000000000010000282017000
0202LOTE PADRAO                   NET         PN         PLIM4       010VISTA          000000000001800000000018000000000175000000000000000000017600000987900
0202LOTE PADRAO                   TELE CTR OESPN * EJ    TCOC4       010VISTA          000000000007100000000072000000000680000000000000000000068000079710000
0202LOTE PADRAO                   GERDAU      PN * EJ    GGBR4       010VISTA          000000000019700000000197000000001810000000000000000000181000022181800
0202LOTE PADRAO                   BRASIL      ON *       BBAS3       010VISTA          000000000007400000000074000000000700000000000000000000072000003188800
