00BDIN9999BOVESPA 99992001082820010828
0101IBOVESPA                      0130050129420131140000000000000000002001082800000020010828013018000000
0202LOTE PADRAO                   EMBRATEL PARPN *       EBTP4       010VISTA          000000000010500000000108000000001040000000000000000000106000153416000
0202LOTE PADRAO                   EMBRATEL PARON *       EBTP3       010VISTA          000000000011300000000114000000001090000000000000000000114000028337900
0202LOTE PADRAO                   TRAN PAULISTPN * EJ    TRPL4       010VISTA          000000000006300000000063000000000610000000000000000000063000028593000
0202LOTE PADRAO                   TELEMAR     PN * EJ    TNLP4       010VISTA          000000000029300000000293000000002900000000000000000000291000135918000
0202LOTE PADRAO                   ITAUBANCO   PN * EJ    ITAU4       010VISTA          000000000180000000001809000000017860000000000000000001795000006307300
0202LOTE PADRAO                   TELEMAR     ON * EJ    TNLP3       010VISTA          000000000026300000000263000000002580000000000000000000263000011378500
0202LOTE PADRAO                   SID NACIONALON *       CSNA3       010VISTA          000000000035500000000356000000003510000000000000000000352000003523900
0202LOTE PADRAO                   TELE LEST CLPN *       TLCP4       010VISTA          000000000001400000000014000000000130000000000000000000013000024057900
0202LOTE PADRAO                   CRT CELULAR PNA* EJ    CRTP5       010VISTA          000000000954000000009599000000094200000000000000000009480000000412100
0202LOTE PADRAO                   IPIRANGA PETPN *       PTIP4       010VISTA          000000000014500000000145000000001440000000000000000000144000000050500
0202LOTE PADRAO                   BRASIL T PARPN *       BRTP4       010VISTA          000000000015000000000150000000001480000000000000000000149000068877900
0202LOTE PADRAO                   BRASIL T PARON *       BRTP3       010VISTA          000000000014500000000145000000001410000000000000000000144000005635500
0202LOTE PADRAO                   ACESITA     PN *       ACES4       010VISTA          000000000000540000000005500000000053000000000000000000005300072273100
0202LOTE PADRAO                   PETROBRAS   PN         PETR4       010VISTA          000000000056000000000562000000005550000000000000000000560000000057000
0202LOTE PADRAO                   ELETROBRAS  PNB*       ELET6       010VISTA          000000000032100000000327500000003150000000000000000000322000036117000
0202LOTE PADRAO                   PETROBRAS   ON         PETR3       010VISTA          000000000058500000000587000000005770000000000000000000580000000038000
0202LOTE PADRAO                   COMGAS      PNA*       CGAS5       010VISTA          000000000128000000001300000000012600000000000000000001280000000597000
0202LOTE PADRAO                   SOUZA CRUZ  ON EJ      CRUZ3       010VISTA          000000000011100000000113000000001110000000000000000000113000000006800
0202LOTE PADRAO                   ELETROBRAS  ON *       ELET3       010VISTA          000000000037000000000371000000003620000000000000000000365000016000700
0202LOTE PADRAO                   CELESC      PNB        CLSC6       010VISTA          000000000000430000000004400000000042000000000000000000004300000305000
0202LOTE PADRAO                   BRADESCO    PN * EJ    BBDC4       010VISTA          000000000011250000000115000000001125000000000000000000115000117133000
0202LOTE PADRAO                   CESP        PN *       CESP4       010VISTA          000000000012100000000121000000001180000000000000000000120000014802300
0202LOTE PADRAO                   LIGHT       ON *       LIGH3       010VISTA          000000000112500000001130000000011250000000000000000001125000000092200
0202LOTE PADRAO                   TELESP CL PAPN *       TSPP4       010VISTA          000000000013800000000138000000001310000000000000000000133000078758900
0202LOTE PADRAO                   VALE R DOCE PNA        VALE5       010VISTA          000000000052200000000528000000005220000000000000000000526000000042600
0202LOTE PADRAO                   COPEL       PNB*       CPLE6       010VISTA          000000000018000000000180000000001780000000000000000000180000006883500
0202LOTE PADRAO                   VALE R DOCE ON         VALE3       010VISTA          000000000051500000000517000000005130000000000000000000515000000003900
0202LOTE PADRAO                   ARACRUZ     PNB        ARCZ6       010VISTA          000000000004250000000043000000000425000000000000000000043000000027100
0202LOTE PADRAO                   TELEMIG PARTPN *       TMCP4       010VISTA          000000000003700000000037000000000350000000000000000000035000020270800
0202LOTE PADRAO                   BRASIL TELECPN *       BRTO4       010VISTA          000000000010300000000105000000001000000000000000000000101000044338900
0202LOTE PADRAO                   SABESP      ON *       SBSP3       010VISTA          000000000174000000001740000000017000000000000000000001700000000709600
0202LOTE PADRAO                   BRASKEM     PNA*       BRKM5       010VISTA          000000000435000000004450000000043100000000000000000004350000000164000
0202LOTE PADRAO                   EMBRAER     PN EJ      EMBR4       010VISTA          000000000018900000000189000000001850000000000000000000186000000019200
0202LOTE PADRAO                   TELESP      PN * EJ    TLPP4       010VISTA          000000000025500000000256000000002500000000000000000000256000010135100
0202LOTE PADRAO                   EMBRAER     ON EJ      EMBR3       010VISTA          000000000014800000000149000000001460000000000000000000148000000018700
0202LOTE PADRAO                   AMBEV       PN *       AMBV4       010VISTA          000000000497900000004979000000049000000000000000000004900000000343500
0202LOTE PADRAO                   USIMINAS    PNA        USIM5       010VISTA          000000000006000000000060000000000580000000000000000000059000000029100
0202LOTE PADRAO                   ELETROPAULO PN *       ELPL4       010VISTA          000000000072000000000720000000006850000000000000000000690000002628900
0202LOTE PADRAO                   TELE NORD CLPN *       TNEP4       010VISTA          000000000002800000000028000000000270000000000000000000027000081701600
0202LOTE PADRAO                   CEMIG       PN * EJ    CMIG4       010VISTA          000000000026000000000265000000002530000000000000000000261000026054300
0202LOTE PADRAO                   TELE CL SUL PN * EJ    TCSL4       010VISTA          000000000003300000000033000000000320000000000000000000032000044704200
0202LOTE PADRAO                   CEMIG       ON * EJ    CMIG3       010VISTA          000000000025100000000260000000002510000000000000000000260000000365700
0202LOTE PADRAO                   TELE CL SUL ON * EJ    TCSL3       010VISTA          000000000002700000000028000000000271000000000000000000027000016742400
0202LOTE PADRAO                   ITAUSA      PN         ITSA4       010VISTA          000000000001970000000020000000000195000000000000000000019500000149600
0202LOTE PADRAO                   SID TUBARAO PN *       CSTB4       010VISTA          000000000019600000000203000000001960000000000000000000203000005790000
0202LOTE PADRAO                   V C P       PN *       VCPA4       010VISTA          000000000069000000000700000000006900000000000000000000695000000074600
0202LOTE PADRAO                   BRADESPAR   PN *       BRAP4       010VISTA          000000000000680000000006900000000066000000000000000000006800107650000
0202LOTE PADRAO                   NET         PN         PLIM4       010VISTA          000000000000940000000009600000000089000000000000000000009100001732500
0202LOTE PADRAO                   TELE CTR OESPN * EJ    TCOC4       010VISTA          000000000005200000000052000000000520000000000000000000052500018552700
0202LOTE PADRAO                   GERDAU      PN * EJ    GGBR4       010VISTA          000000000016300000000164000000001610000000000000000000163000006235500
0202LOTE PADRAO                   BRASIL      ON *       BBAS3       010VISTA          000000000009100000000093000000000900000000000000000000090000002379800
