00BDIN9999BOVESPA 99992001032320010323
0101IBOVESPA                      0140700138550144350000000000000000002001032300000020010323014435000000
0202LOTE PADRAO                   EMBRATEL PARPN *       EBTP4       010VISTA          000000000022300000000226000000002060000000000000000000222000127729000
0202LOTE PADRAO                   EMBRATEL PARON *       EBTP3       010VISTA          000000000017500000000185000000001730000000000000000000185000035822100
0202LOTE PADRAO                   TRAN PAULISTPN * EJ    TRPL4       010VISTA          000000000007400000000075000000000700000000000000000000074000029087800
0202LOTE PADRAO                   TELEMAR     PN * EJ    TNLP4       010VISTA          000000000034800000000361000000003400000000000000000000361000323081000
0202LOTE PADRAO                   ITAUBANCO   PN * EJ    ITAU4       010VISTA          000000000161000000001660000000015900000000000000000001660000005323300
0202LOTE PADRAO                   TELEMAR     ON * EJ    TNLP3       010VISTA          000000000026500000000279000000002610000000000000000000274000049182300
0202LOTE PADRAO                   SID NACIONALON *       CSNA3       010VISTA          000000000043600000000445000000004200000000000000000000442000006731400
0202LOTE PADRAO                   TELE LEST CLPN *       TLCP4       010VISTA          000000000001500000000015000000000140000000000000000000014800123970000
0202LOTE PADRAO                   CRT CELULAR PNA* EJ    CRTP5       010VISTA          000000000900000000009000000000086000000000000000000008849000000856500
0202LOTE PADRAO                   IPIRANGA PETPN *       PTIP4       010VISTA          000000000016500000000170000000001600000000000000000000169000002187200
0202LOTE PADRAO                   BRASIL T PARPN *       BRTP4       010VISTA          000000000017600000000183000000001750000000000000000000181000107183000
0202LOTE PADRAO                   BRASIL T PARON *       BRTP3       010VISTA          000000000015500000000166000000001520000000000000000000163000008644400
0202LOTE PADRAO                   ACESITA     PN *       ACES4       010VISTA          000000000001000000000010000000000097000000000000000000010000191451000
0202LOTE PADRAO                   PETROBRAS   PN         PETR4       010VISTA          000000000048100000000490000000004600000000000000000000484000000147400
0202LOTE PADRAO                   ELETROBRAS  PNB*       ELET6       010VISTA          000000000036000000000360000000003370000000000000000000360000057464800
0202LOTE PADRAO                   PETROBRAS   ON         PETR3       010VISTA          000000000053600000000536000000005000000000000000000000523000000107700
0202LOTE PADRAO                   COMGAS      PNA*       CGAS5       010VISTA          000000000158000000001720000000015400000000000000000001710000006804000
0202LOTE PADRAO                   SOUZA CRUZ  ON EJ      CRUZ3       010VISTA          000000000010750000000112000000001040000000000000000000112000000021200
0202LOTE PADRAO                   ELETROBRAS  ON *       ELET3       010VISTA          000000000038500000000397000000003800000000000000000000397000025096600
0202LOTE PADRAO                   CELESC      PNB        CLSC6       010VISTA          000000000000600000000006100000000057000000000000000000006000000160700
0202LOTE PADRAO                   BRADESCO    PN * EJ    BBDC4       010VISTA          000000000010600000000113000000001060000000000000000000113000246591000
0202LOTE PADRAO                   CESP        PN *       CESP4       010VISTA          000000000022300000000230000000002100000000000000000000221000023621700
0202LOTE PADRAO                   LIGHT       ON *       LIGH3       010VISTA          000000000206900000002089000000020000000000000000000002050000000245900
0202LOTE PADRAO                   TELESP CL PAPN *       TSPP4       010VISTA          000000000013800000000138000000001290000000000000000000133000172142000
0202LOTE PADRAO                   VALE R DOCE PNA        VALE5       010VISTA          000000000050250000000505000000004920000000000000000000505000000037600
0202LOTE PADRAO                   COPEL       PNB*       CPLE6       010VISTA          000000000017600000000178000000001700000000000000000000178000027650500
0202LOTE PADRAO                   VALE R DOCE ON         VALE3       010VISTA          000000000048000000000480000000004750000000000000000000480000000000900
0202LOTE PADRAO                   ARACRUZ     PNB        ARCZ6       010VISTA          000000000002700000000027000000000250000000000000000000027000000058000
0202LOTE PADRAO                   TELEMIG PARTPN *       TMCP4       010VISTA          000000000004200000000044000000000400000000000000000000040000169719000
0202LOTE PADRAO                   BRASIL TELECPN *       BRTO4       010VISTA          000000000012500000000129000000001200000000000000000000129000058752300
0202LOTE PADRAO                   SABESP      ON *       SBSP3       010VISTA          000000000186000000001918000000017600000000000000000001918000001347300
0202LOTE PADRAO                   BRASKEM     PNA*       BRKM5       010VISTA          000000000615000000006350000000060100000000000000000006350000000078600
0202LOTE PADRAO                   EMBRAER     PN EJ      EMBR4       010VISTA          000000000019700000000208000000001930000000000000000000208000000041600
0202LOTE PADRAO                   TELESP      PN * EJ    TLPP4       010VISTA          000000000028000000000280000000002660000000000000000000278000010996100
0202LOTE PADRAO                   EMBRAER     ON EJ      EMBR3       010VISTA          000000000015200000000157000000001500000000000000000000157000000036900
0202LOTE PADRAO                   AMBEV       PN *       AMBV4       010VISTA          000000000510000000005100000000049000000000000000000004950000001667000
0202LOTE PADRAO                   USIMINAS    PNA        USIM5       010VISTA          000000000009100000000091000000000830000000000000000000087000000124900
0202LOTE PADRAO                   ELETROPAULO PN *       ELPL4       010VISTA          000000000091500000000915000000008800000000000000000000900000002561200
0202LOTE PADRAO                   TELE NORD CLPN *       TNEP4       010VISTA          000000000002800000000029000000000271000000000000000000028000062004600
0202LOTE PADRAO                   CEMIG       PN * EJ    CMIG4       010VISTA          000000000027600000000278000000002610000000000000000000276000056271300
0202LOTE PADRAO                   TELE CL SUL PN * EJ    TCSL4       010VISTA          000000000003750000000037500000000360000000000000000000037300227604000
0202LOTE PADRAO                   CEMIG       ON * EJ    CMIG3       010VISTA          000000000023000000000235000000002250000000000000000000230000001062200
0202LOTE PADRAO                   TELE CL SUL ON * EJ    TCSL3       010VISTA          000000000002800000000030000000000270000000000000000000027000034057600
0202LOTE PADRAO                   ITAUSA      PN         ITSA4       010VISTA          000000000001690000000017600000000160000000000000000000017600000212400
0202LOTE PADRAO                   SID TUBARAO PN *       CSTB4       010VISTA          000000000020600000000207500000001980000000000000000000205000006564100
0202LOTE PADRAO                   V C P       PN *       VCPA4       010VISTA          000000000052500000000549000000005200000000000000000000549000002014700
0202LOTE PADRAO                   BRADESPAR   PN *       BRAP4       010VISTA          000000000001000000000010000000000100000000000000000000010000270860000
0202LOTE PADRAO                   NET         PN         PLIM4       010VISTA          000000000001490000000015200000000140000000000000000000015100000906600
0202LOTE PADRAO                   TELE CTR OESPN * EJ    TCOC4       010VISTA          000000000006000000000060000000000550000000000000000000059000101622000
0202LOTE PADRAO                   GERDAU      PN * EJ    GGBR4       010VISTA          000000000018300000000193000000001780000000000000000000193000009670000
0202LOTE PADRAO                   BRASIL      ON *       BBAS3       010VISTA          000000000007300000000073000000000700000000000000000000072000003075000
