00BDIN9999BOVESPA 99992001101520011015
0101IBOVESPA                      0107750106950113300000000000000000002001101500000020011015011329000000
0202LOTE PADRAO                   EMBRATEL PARPN *       EBTP4       010VISTA          000000000007600000000080000000000720000000000000000000080000110059000
0202LOTE PADRAO                   EMBRATEL PARON *       EBTP3       010VISTA          000000000008000000000090000000000770000000000000000000090031130000000
0202LOTE PADRAO                   TRAN PAULISTPN * EJ    TRPL4       010VISTA          000000000004300000000046000000000430000000000000000000046000012934100
0202LOTE PADRAO                   TELEMAR     PN * EJ    TNLP4       010VISTA          000000000024800000000272500000002460000000000000000000268000463221000
0202LOTE PADRAO                   ITAUBANCO   PN * EJ    ITAU4       010VISTA          000000000165000000001710000000016500000000000000000001679000007145900
0202LOTE PADRAO                   TELEMAR     ON * EJ    TNLP3       010VISTA          000000000022500000000245000000002210000000000000000000245000032269400
0202LOTE PADRAO                   SID NACIONALON *       CSNA3       010VISTA          000000000026600000000280000000002660000000000000000000280000009681300
0202LOTE PADRAO                   TELE LEST CLPN *       TLCP4       010VISTA          000000000000690000000007000000000066000000000000000000006900251249000
0202LOTE PADRAO                   CRT CELULAR PNA* EJ    CRTP5       010VISTA          000000000370000000003700000000036400000000000000000003660000000733700
0202LOTE PADRAO                   IPIRANGA PETPN *       PTIP4       010VISTA          000000000010900000000119000000001090000000000000000000118000001441500
0202LOTE PADRAO                   BRASIL T PARPN *       BRTP4       010VISTA          000000000014600000000156000000001450000000000000000000154000095610400
0202LOTE PADRAO                   BRASIL T PARON *       BRTP3       010VISTA          000000000014000000000150000000001400000000000000000000150000016555500
0202LOTE PADRAO                   ACESITA     PN *       ACES4       010VISTA          000000000000430000000004600000000042000000000000000000004600195366000
0202LOTE PADRAO                   PETROBRAS   PN         PETR4       010VISTA          000000000054500000000552000000005370000000000000000000550000000179000
0202LOTE PADRAO                   ELETROBRAS  PNB*       ELET6       010VISTA          000000000029400000000316000000002900000000000000000000310000037629100
0202LOTE PADRAO                   PETROBRAS   ON         PETR3       010VISTA          000000000055200000000570000000005520000000000000000000570000000048400
0202LOTE PADRAO                   COMGAS      PNA*       CGAS5       010VISTA          000000000076000000000800000000007500000000000000000000780000001277000
0202LOTE PADRAO                   SOUZA CRUZ  ON EJ      CRUZ3       010VISTA          000000000012000000000130000000001160000000000000000000129000000006900
0202LOTE PADRAO                   ELETROBRAS  ON *       ELET3       010VISTA          000000000033500000000359000000003260000000000000000000359000012590400
0202LOTE PADRAO                   CELESC      PNB        CLSC6       010VISTA          000000000000360000000003700000000035000000000000000000003700000142100
0202LOTE PADRAO                   BRADESCO    PN * EJ    BBDC4       010VISTA          000000000010200000000106000000001025000000000000000000105000124964000
0202LOTE PADRAO                   CESP        PN *       CESP4       010VISTA          000000000008100000000091000000000810000000000000000000090000012204200
0202LOTE PADRAO                   LIGHT       ON *       LIGH3       010VISTA          000000000074500000000794000000007450000000000000000000789000000431300
0202LOTE PADRAO                   TELESP CL PAPN *       TSPP4       010VISTA          000000000005500000000059000000000550000000000000000000058000270716000
0202LOTE PADRAO                   VALE R DOCE PNA        VALE5       010VISTA          000000000053500000000545000000005300000000000000000000545000000049500
0202LOTE PADRAO                   COPEL       PNB*       CPLE6       010VISTA          000000000014300000000156000000001430000000000000000000155000053107100
0202LOTE PADRAO                   VALE R DOCE ON         VALE3       010VISTA          000000000052200000000525000000005220000000000000000000525000000000900
0202LOTE PADRAO                   ARACRUZ     PNB        ARCZ6       010VISTA          000000000004600000000047000000000450000000000000000000046000000040000
0202LOTE PADRAO                   TELEMIG PARTPN *       TMCP4       010VISTA          000000000003200000000034000000000320000000000000000000033000068926400
0202LOTE PADRAO                   BRASIL TELECPN *       BRTO4       010VISTA          000000000010000000000107500000000990000000000000000000105000102120000
0202LOTE PADRAO                   SABESP      ON *       SBSP3       010VISTA          000000000110000000001145000000010950000000000000000001140000002344500
0202LOTE PADRAO                   BRASKEM     PNA*       BRKM5       010VISTA          000000000350000000003700000000035000000000000000000003700000000604700
0202LOTE PADRAO                   EMBRAER     PN EJ      EMBR4       010VISTA          000000000009800000000100000000000950000000000000000000100000000038200
0202LOTE PADRAO                   TELESP      PN * EJ    TLPP4       010VISTA          000000000023100000000248000000002300000000000000000000248000008747700
0202LOTE PADRAO                   EMBRAER     ON EJ      EMBR3       010VISTA          000000000007900000000083000000000770000000000000000000082000000015900
0202LOTE PADRAO                   AMBEV       PN *       AMBV4       010VISTA          000000000420000000004450000000042000000000000000000004400000001180600
0202LOTE PADRAO                   USIMINAS    PNA        USIM5       010VISTA          000000000003700000000042000000000373000000000000000000041000000106500
0202LOTE PADRAO                   ELETROPAULO PN *       ELPL4       010VISTA          000000000057700000000585000000005550000000000000000000585000014956400
0202LOTE PADRAO                   TELE NORD CLPN *       TNEP4       010VISTA          000000000002300000000024000000000230000000000000000000024000084166200
0202LOTE PADRAO                   CEMIG       PN * EJ    CMIG4       010VISTA          000000000025000000000263000000002500000000000000000000263000081285500
0202LOTE PADRAO                   TELE CL SUL PN * EJ    TCSL4       010VISTA          000000000002700000000027300000000260000000000000000000026000159263000
0202LOTE PADRAO                   CEMIG       ON * EJ    CMIG3       010VISTA          000000000024800000000263000000002460000000000000000000263000001450000
0202LOTE PADRAO                   TELE CL SUL ON * EJ    TCSL3       010VISTA          000000000002400000000025000000000230000000000000000000024000062027300
0202LOTE PADRAO                   ITAUSA      PN         ITSA4       010VISTA          000000000001800000000018000000000179000000000000000000018000000246800
0202LOTE PADRAO                   SID TUBARAO PN *       CSTB4       010VISTA          000000000014600000000164000000001460000000000000000000160000005363800
0202LOTE PADRAO                   V C P       PN *       VCPA4       010VISTA          000000000071800000000747000000007150000000000000000000747000003883900
0202LOTE PADRAO                   BRADESPAR   PN *       BRAP4       010VISTA          000000000000510000000006000000000051000000000000000000006000372908000
0202LOTE PADRAO                   NET         PN         PLIM4       010VISTA          000000000000610000000006700000000059000000000000000000006700001812200
0202LOTE PADRAO                   TELE CTR OESPN * EJ    TCOC4       010VISTA          000000000004900000000052000000000479000000000000000000051000053695100
0202LOTE PADRAO                   GERDAU      PN * EJ    GGBR4       010VISTA          000000000015000000000161000000001500000000000000000000161000019138500
0202LOTE PADRAO                   BRASIL      ON *       BBAS3       010VISTA          000000000007000000000077000000000690000000000000000000077100005478600
