00BDIN9999BOVESPA 99992001100820011008
0101IBOVESPA                      0101200099860101750000000000000000002001100800000020011008010095000000
0202LOTE PADRAO                   EMBRATEL PARPN *       EBTP4       010VISTA          000000000006300000000066000000000620000000000000000000065000042372500
0202LOTE PADRAO                   EMBRATEL PARON *       EBTP3       010VISTA          000000000007000000000072000000000675000000000000000000070000007281600
0202LOTE PADRAO                   TRAN PAULISTPN * EJ    TRPL4       010VISTA          000000000004000000000041000000000400000000000000000000040000003375600
0202LOTE PADRAO                   TELEMAR     PN * EJ    TNLP4       010VISTA          000000000022100000000229000000002210000000000000000000227000106094000
0202LOTE PADRAO                   ITAUBANCO   PN * EJ    ITAU4       010VISTA          000000000159800000001598000000015300000000000000000001579000003793700
0202LOTE PADRAO                   TELEMAR     ON * EJ    TNLP3       010VISTA          000000000020500000000210000000002010000000000000000000210000003077100
0202LOTE PADRAO                   SID NACIONALON *       CSNA3       010VISTA          000000000026500000000265000000002520000000000000000000253000001581800
0202LOTE PADRAO                   TELE LEST CLPN *       TLCP4       010VISTA          000000000000620000000006400000000061000000000000000000006400099098300
0202LOTE PADRAO                   CRT CELULAR PNA* EJ    CRTP5       010VISTA          000000000338900000003389000000033200000000000000000003350000000511400
0202LOTE PADRAO                   IPIRANGA PETPN *       PTIP4       010VISTA          000000000010900000000109000000001090000000000000000000109000000156000
0202LOTE PADRAO                   BRASIL T PARPN *       BRTP4       010VISTA          000000000013600000000146000000001360000000000000000000144000036770300
0202LOTE PADRAO                   BRASIL T PARON *       BRTP3       010VISTA          000000000013400000000139000000001340000000000000000000134000004468400
0202LOTE PADRAO                   ACESITA     PN *       ACES4       010VISTA          000000000000400000000004200000000040000000000000000000004000063335800
0202LOTE PADRAO                   PETROBRAS   PN         PETR4       010VISTA          000000000049500000000506000000004940000000000000000000501000000044400
0202LOTE PADRAO                   ELETROBRAS  PNB*       ELET6       010VISTA          000000000026800000000273000000002650000000000000000000272000017680900
0202LOTE PADRAO                   PETROBRAS   ON         PETR3       010VISTA          000000000050500000000522000000005050000000000000000000518000000012500
0202LOTE PADRAO                   COMGAS      PNA*       CGAS5       010VISTA          000000000076400000000764000000007120000000000000000000715000000993000
0202LOTE PADRAO                   SOUZA CRUZ  ON EJ      CRUZ3       010VISTA          000000000011500000000117500000001150000000000000000000116000000019500
0202LOTE PADRAO                   ELETROBRAS  ON *       ELET3       010VISTA          000000000030000000000300000000002910000000000000000000300000010093000
0202LOTE PADRAO                   CELESC      PNB        CLSC6       010VISTA          000000000000350000000003500000000034000000000000000000003500000061700
0202LOTE PADRAO                   BRADESCO    PN * EJ    BBDC4       010VISTA          000000000009600000000098000000000960000000000000000000096000133830000
0202LOTE PADRAO                   CESP        PN *       CESP4       010VISTA          000000000007700000000080000000000760000000000000000000080000005124400
0202LOTE PADRAO                   LIGHT       ON *       LIGH3       010VISTA          000000000072000000000745000000007100000000000000000000745000000106100
0202LOTE PADRAO                   TELESP CL PAPN *       TSPP4       010VISTA          000000000005200000000052000000000500000000000000000000052000028255200
0202LOTE PADRAO                   VALE R DOCE PNA        VALE5       010VISTA          000000000051500000000528000000005150000000000000000000528000000020600
0202LOTE PADRAO                   COPEL       PNB*       CPLE6       010VISTA          000000000013500000000141000000001340000000000000000000136000015500100
0202LOTE PADRAO                   ARACRUZ     PNB        ARCZ6       010VISTA          000000000004300000000044000000000420000000000000000000043000000025900
0202LOTE PADRAO                   TELEMIG PARTPN *       TMCP4       010VISTA          000000000002900000000031000000000290000000000000000000030000035515500
0202LOTE PADRAO                   BRASIL TELECPN *       BRTO4       010VISTA          000000000009800000000102500000000980000000000000000000100000022921500
0202LOTE PADRAO                   SABESP      ON *       SBSP3       010VISTA          000000000096000000001020000000009600000000000000000001009000000843300
0202LOTE PADRAO                   BRASKEM     PNA*       BRKM5       010VISTA          000000000339000000003450000000033710000000000000000003385000000125300
0202LOTE PADRAO                   EMBRAER     PN EJ      EMBR4       010VISTA          000000000008400000000089000000000830000000000000000000084000000053500
0202LOTE PADRAO                   TELESP      PN * EJ    TLPP4       010VISTA          000000000021000000000220000000002100000000000000000000218000004601800
0202LOTE PADRAO                   EMBRAER     ON EJ      EMBR3       010VISTA          000000000007300000000073000000000700000000000000000000071000000017400
0202LOTE PADRAO                   AMBEV       PN *       AMBV4       010VISTA          000000000386000000004050000000038600000000000000000003950000001099300
0202LOTE PADRAO                   USIMINAS    PNA        USIM5       010VISTA          000000000003700000000037500000000360000000000000000000036000000017500
0202LOTE PADRAO                   ELETROPAULO PN *       ELPL4       010VISTA          000000000056000000000570000000005400000000000000000000545000001394200
0202LOTE PADRAO                   TELE NORD CLPN *       TNEP4       010VISTA          000000000002300000000023000000000227000000000000000000022700032709200
0202LOTE PADRAO                   CEMIG       PN * EJ    CMIG4       010VISTA          000000000022500000000236000000002250000000000000000000236000009558800
0202LOTE PADRAO                   TELE CL SUL PN * EJ    TCSL4       010VISTA          000000000002600000000027000000000260000000000000000000026000020116600
0202LOTE PADRAO                   CEMIG       ON * EJ    CMIG3       010VISTA          000000000023100000000231000000002260000000000000000000230000002632300
0202LOTE PADRAO                   TELE CL SUL ON * EJ    TCSL3       010VISTA          000000000002200000000023000000000225000000000000000000023000007464100
0202LOTE PADRAO                   ITAUSA      PN         ITSA4       010VISTA          000000000001700000000017200000000169000000000000000000017100000185500
0202LOTE PADRAO                   SID TUBARAO PN *       CSTB4       010VISTA          000000000013500000000138000000001350000000000000000000135000003872000
0202LOTE PADRAO                   V C P       PN *       VCPA4       010VISTA          000000000070000000000738000000007000000000000000000000720000001433600
0202LOTE PADRAO                   BRADESPAR   PN *       BRAP4       010VISTA          000000000000490000000005100000000049000000000000000000004900091875900
0202LOTE PADRAO                   NET         PN         PLIM4       010VISTA          000000000000600000000006200000000057000000000000000000005900001192300
0202LOTE PADRAO                   TELE CTR OESPN * EJ    TCOC4       010VISTA          000000000004200000000044000000000420000000000000000000043000504468000
0202LOTE PADRAO                   GERDAU      PN * EJ    GGBR4       010VISTA          000000000013900000000140000000001350000000000000000000139000002805500
0202LOTE PADRAO                   BRASIL      ON *       BBAS3       010VISTA          000000000006700000000068000000000650000000000000000000065000003178400
