00BDIN9999BOVESPA 99992001071120010711
0101IBOVESPA                      0135080133610138530000000000000000002001071100000020010711013812000000
0202LOTE PADRAO                   EMBRATEL PARPN *       EBTP4       010VISTA          000000000014800000000148000000001410000000000000000000142000177773000
0202LOTE PADRAO                   EMBRATEL PARON *       EBTP3       010VISTA          000000000014500000000151000000001410000000000000000000144000104982000
0202LOTE PADRAO                   TRAN PAULISTPN * EJ    TRPL4       010VISTA          000000000005750000000062000000000560000000000000000000062000021040000
0202LOTE PADRAO                   TELEMAR     PN * EJ    TNLP4       010VISTA          000000000031500000000333000000003080000000000000000000325000315731000
0202LOTE PADRAO                   ITAUBANCO   PN * EJ    ITAU4       010VISTA          000000000179000000001810000000017200000000000000000001810000017080200
0202LOTE PADRAO                   TELEMAR     ON * EJ    TNLP3       010VISTA          000000000026600000000270000000002600000000000000000000270000027154600
0202LOTE PADRAO                   SID NACIONALON *       CSNA3       010VISTA          000000000038000000000382000000003670000000000000000000370000017968000
0202LOTE PADRAO                   TELE LEST CLPN *       TLCP4       010VISTA          000000000001600000000017000000000160000000000000000000016000138934000
0202LOTE PADRAO                   CRT CELULAR PNA* EJ    CRTP5       010VISTA          000000000965000000009750000000092000000000000000000009200000000686100
0202LOTE PADRAO                   IPIRANGA PETPN *       PTIP4       010VISTA          000000000016000000000166000000001600000000000000000000166000001667100
0202LOTE PADRAO                   BRASIL T PARPN *       BRTP4       010VISTA          000000000017200000000173000000001680000000000000000000173000096316900
0202LOTE PADRAO                   BRASIL T PARON *       BRTP3       010VISTA          000000000016100000000166000000001580000000000000000000166000020505200
0202LOTE PADRAO                   ACESITA     PN *       ACES4       010VISTA          000000000000600000000006600000000059000000000000000000006500314348000
0202LOTE PADRAO                   PETROBRAS   PN         PETR4       010VISTA          000000000053200000000545000000005280000000000000000000545000000101400
0202LOTE PADRAO                   ELETROBRAS  PNB*       ELET6       010VISTA          000000000025500000000270000000002530000000000000000000270000056501700
0202LOTE PADRAO                   PETROBRAS   ON         PETR3       010VISTA          000000000057500000000607000000005750000000000000000000607000000045800
0202LOTE PADRAO                   COMGAS      PNA*       CGAS5       010VISTA          000000000135900000001400000000013250000000000000000001370000001646300
0202LOTE PADRAO                   SOUZA CRUZ  ON EJ      CRUZ3       010VISTA          000000000011100000000115000000001110000000000000000000115000000020600
0202LOTE PADRAO                   ELETROBRAS  ON *       ELET3       010VISTA          000000000027500000000301000000002750000000000000000000300000042269400
0202LOTE PADRAO                   CELESC      PNB        CLSC6       010VISTA          000000000000400000000004500000000040000000000000000000004500000448900
0202LOTE PADRAO                   BRADESCO    PN * EJ    BBDC4       010VISTA          000000000011000000000111000000001080000000000000000000111000219784000
0202LOTE PADRAO                   CESP        PN *       CESP4       010VISTA          000000000012500000000133000000001250000000000000000000132000015340500
0202LOTE PADRAO                   LIGHT       ON *       LIGH3       010VISTA          000000000123000000001290000000011600000000000000000001170000001677600
0202LOTE PADRAO                   TELESP CL PAPN *       TSPP4       010VISTA          000000000014200000000142000000001360000000000000000000138000100995000
0202LOTE PADRAO                   VALE R DOCE PNA        VALE5       010VISTA          000000000053200000000542000000005260000000000000000000538000000026300
0202LOTE PADRAO                   COPEL       PNB*       CPLE6       010VISTA          000000000018000000000180000000001740000000000000000000177000033367100
0202LOTE PADRAO                   VALE R DOCE ON         VALE3       010VISTA          000000000052500000000535000000005210000000000000000000533000000039200
0202LOTE PADRAO                   ARACRUZ     PNB        ARCZ6       010VISTA          000000000004000000000043000000000400000000000000000000042000000121300
0202LOTE PADRAO                   TELEMIG PARTPN *       TMCP4       010VISTA          000000000004300000000043000000000425000000000000000000043000091441600
0202LOTE PADRAO                   BRASIL TELECPN *       BRTO4       010VISTA          000000000012000000000121000000001160000000000000000000120000067554400
0202LOTE PADRAO                   SABESP      ON *       SBSP3       010VISTA          000000000145500000001500000000014400000000000000000001490000001389000
0202LOTE PADRAO                   BRASKEM     PNA*       BRKM5       010VISTA          000000000565000000005850000000055000000000000000000005600000000223700
0202LOTE PADRAO                   EMBRAER     PN EJ      EMBR4       010VISTA          000000000022600000000226000000002200000000000000000000221000000026400
0202LOTE PADRAO                   TELESP      PN * EJ    TLPP4       010VISTA          000000000024200000000253000000002400000000000000000000253000008091500
0202LOTE PADRAO                   EMBRAER     ON EJ      EMBR3       010VISTA          000000000016600000000171000000001650000000000000000000170000000015400
0202LOTE PADRAO                   AMBEV       PN *       AMBV4       010VISTA          000000000480000000004879000000046500000000000000000004762000003907600
0202LOTE PADRAO                   USIMINAS    PNA        USIM5       010VISTA          000000000006000000000061000000000590000000000000000000060000000065900
0202LOTE PADRAO                   ELETROPAULO PN *       ELPL4       010VISTA          000000000061900000000620000000005850000000000000000000620000005057800
0202LOTE PADRAO                   TELE NORD CLPN *       TNEP4       010VISTA          000000000003600000000037000000000350000000000000000000037000130735000
0202LOTE PADRAO                   CEMIG       PN * EJ    CMIG4       010VISTA          000000000025500000000271000000002550000000000000000000263000053386500
0202LOTE PADRAO                   TELE CL SUL PN * EJ    TCSL4       010VISTA          000000000004200000000044000000000420000000000000000000044000085724900
0202LOTE PADRAO                   CEMIG       ON * EJ    CMIG3       010VISTA          000000000023500000000255000000002350000000000000000000250000002431500
0202LOTE PADRAO                   TELE CL SUL ON * EJ    TCSL3       010VISTA          000000000003600000000037000000000350000000000000000000035000029616600
0202LOTE PADRAO                   ITAUSA      PN         ITSA4       010VISTA          000000000001950000000019500000000180000000000000000000019500000628700
0202LOTE PADRAO                   SID TUBARAO PN *       CSTB4       010VISTA          000000000020400000000215000000002010000000000000000000215000013673300
0202LOTE PADRAO                   V C P       PN *       VCPA4       010VISTA          000000000063300000000636000000006150000000000000000000620000001620300
0202LOTE PADRAO                   BRADESPAR   PN *       BRAP4       010VISTA          000000000000780000000008400000000077000000000000000000008400340021000
0202LOTE PADRAO                   NET         PN         PLIM4       010VISTA          000000000000950000000011000000000093000000000000000000011000002458500
0202LOTE PADRAO                   TELE CTR OESPN * EJ    TCOC4       010VISTA          000000000006000000000062000000000580000000000000000000060000103865000
0202LOTE PADRAO                   GERDAU      PN * EJ    GGBR4       010VISTA          000000000014900000000160000000001460000000000000000000155000024677800
0202LOTE PADRAO                   BRASIL      ON *       BBAS3       010VISTA          000000000008600000000095000000000850000000000000000000095000007592600
