00BDIN9999BOVESPA 99992001092420010924
0101IBOVESPA                      0104530104530106940000000000000000002001092400000020010924010533000000
0202LOTE PADRAO                   EMBRATEL PARPN *       EBTP4       010VISTA          000000000007900000000081000000000770000000000000000000080000082867000
0202LOTE PADRAO                   EMBRATEL PARON *       EBTP3       010VISTA          000000000008400000000088000000000840000000000000000000088000017911400
0202LOTE PADRAO                   TRAN PAULISTPN * EJ    TRPL4       010VISTA          000000000004600000000048000000000460000000000000000000047000021786000
0202LOTE PADRAO                   TELEMAR     PN * EJ    TNLP4       010VISTA          000000000024600000000251000000002360000000000000000000238000254788000
0202LOTE PADRAO                   ITAUBANCO   PN * EJ    ITAU4       010VISTA          000000000162000000001660000000016000000000000000000001630000009391900
0202LOTE PADRAO                   TELEMAR     ON * EJ    TNLP3       010VISTA          000000000023400000000235000000002180000000000000000000219000025569700
0202LOTE PADRAO                   SID NACIONALON *       CSNA3       010VISTA          000000000029500000000299000000002840000000000000000000288000001448500
0202LOTE PADRAO                   TELE LEST CLPN *       TLCP4       010VISTA          000000000000630000000006600000000062000000000000000000006200167967000
0202LOTE PADRAO                   CRT CELULAR PNA* EJ    CRTP5       010VISTA          000000000325000000003350000000032290000000000000000003260000003497100
0202LOTE PADRAO                   IPIRANGA PETPN *       PTIP4       010VISTA          000000000011000000000111000000001080000000000000000000108000000590000
0202LOTE PADRAO                   BRASIL T PARPN *       BRTP4       010VISTA          000000000013400000000143000000001330000000000000000000139000197236000
0202LOTE PADRAO                   BRASIL T PARON *       BRTP3       010VISTA          000000000012500000000134000000001240000000000000000000129000009866300
0202LOTE PADRAO                   ACESITA     PN *       ACES4       010VISTA          000000000000420000000004400000000042000000000000000000004300100553000
0202LOTE PADRAO                   PETROBRAS   PN         PETR4       010VISTA          000000000052750000000528000000005020000000000000000000505000000176700
0202LOTE PADRAO                   ELETROBRAS  PNB*       ELET6       010VISTA          000000000029500000000301000000002930000000000000000000300000026615500
0202LOTE PADRAO                   PETROBRAS   ON         PETR3       010VISTA          000000000054500000000545000000005100000000000000000000513000000069200
0202LOTE PADRAO                   COMGAS      PNA*       CGAS5       010VISTA          000000000081000000000850000000008100000000000000000000830000000338900
0202LOTE PADRAO                   SOUZA CRUZ  ON EJ      CRUZ3       010VISTA          000000000011500000000115000000001130000000000000000000113000000009500
0202LOTE PADRAO                   ELETROBRAS  ON *       ELET3       010VISTA          000000000032000000000328000000003180000000000000000000326000012038700
0202LOTE PADRAO                   CELESC      PNB        CLSC6       010VISTA          000000000000360000000003700000000035000000000000000000003500000176900
0202LOTE PADRAO                   BRADESCO    PN * EJ    BBDC4       010VISTA          000000000009600000000100000000000960000000000000000000099000103988000
0202LOTE PADRAO                   CESP        PN *       CESP4       010VISTA          000000000008100000000083000000000790000000000000000000079000016130000
0202LOTE PADRAO                   LIGHT       ON *       LIGH3       010VISTA          000000000075000000000784000000007500000000000000000000762000000700800
0202LOTE PADRAO                   TELESP CL PAPN *       TSPP4       010VISTA          000000000005900000000060000000000570000000000000000000058000545913000
0202LOTE PADRAO                   VALE R DOCE PNA        VALE5       010VISTA          000000000052400000000532000000005220000000000000000000531000000041000
0202LOTE PADRAO                   COPEL       PNB*       CPLE6       010VISTA          000000000014000000000144000000001400000000000000000000143000016549000
0202LOTE PADRAO                   VALE R DOCE ON         VALE3       010VISTA          000000000051200000000520000000005120000000000000000000520000000000900
0202LOTE PADRAO                   ARACRUZ     PNB        ARCZ6       010VISTA          000000000004100000000042000000000398000000000000000000040000000059000
0202LOTE PADRAO                   TELEMIG PARTPN *       TMCP4       010VISTA          000000000003200000000034000000000320000000000000000000032500079926300
0202LOTE PADRAO                   BRASIL TELECPN *       BRTO4       010VISTA          000000000009100000000097000000000910000000000000000000095000096149000
0202LOTE PADRAO                   SABESP      ON *       SBSP3       010VISTA          000000000111000000001190000000011100000000000000000001179000000332700
0202LOTE PADRAO                   BRASKEM     PNA*       BRKM5       010VISTA          000000000340000000003490000000033600000000000000000003400000000288000
0202LOTE PADRAO                   EMBRAER     PN EJ      EMBR4       010VISTA          000000000009000000000092500000000880000000000000000000090000000073700
0202LOTE PADRAO                   TELESP      PN * EJ    TLPP4       010VISTA          000000000022500000000228000000002150000000000000000000223000004394900
0202LOTE PADRAO                   EMBRAER     ON EJ      EMBR3       010VISTA          000000000007800000000078000000000740000000000000000000076000000047500
0202LOTE PADRAO                   AMBEV       PN *       AMBV4       010VISTA          000000000430000000004350000000041300000000000000000004150000001498800
0202LOTE PADRAO                   USIMINAS    PNA        USIM5       010VISTA          000000000004100000000041000000000390000000000000000000040000000038900
0202LOTE PADRAO                   ELETROPAULO PN *       ELPL4       010VISTA          000000000062000000000620000000006000000000000000000000607000000804000
0202LOTE PADRAO                   TELE NORD CLPN *       TNEP4       010VISTA          000000000002700000000028000000000260000000000000000000026000092458100
0202LOTE PADRAO                   CEMIG       PN * EJ    CMIG4       010VISTA          000000000024100000000250000000002360000000000000000000247500019854600
0202LOTE PADRAO                   TELE CL SUL PN * EJ    TCSL4       010VISTA          000000000003000000000031000000000300000000000000000000030000153600000
0202LOTE PADRAO                   CEMIG       ON * EJ    CMIG3       010VISTA          000000000024900000000249000000002300000000000000000000241000000120000
0202LOTE PADRAO                   TELE CL SUL ON * EJ    TCSL3       010VISTA          000000000002600000000026000000000250000000000000000000025600018034400
0202LOTE PADRAO                   ITAUSA      PN         ITSA4       010VISTA          000000000001710000000017800000000171000000000000000000017500000423300
0202LOTE PADRAO                   SID TUBARAO PN *       CSTB4       010VISTA          000000000015100000000159000000001510000000000000000000154000010295600
0202LOTE PADRAO                   V C P       PN *       VCPA4       010VISTA          000000000067000000000710000000006620000000000000000000710000001855100
0202LOTE PADRAO                   BRADESPAR   PN *       BRAP4       010VISTA          000000000000500000000005100000000049000000000000000000004900140887000
0202LOTE PADRAO                   NET         PN         PLIM4       010VISTA          000000000000590000000006000000000056000000000000000000005700001011000
0202LOTE PADRAO                   TELE CTR OESPN * EJ    TCOC4       010VISTA          000000000004000000000044000000000400000000000000000000041000093704700
0202LOTE PADRAO                   GERDAU      PN * EJ    GGBR4       010VISTA          000000000013400000000143000000001340000000000000000000137000005415500
0202LOTE PADRAO                   BRASIL      ON *       BBAS3       010VISTA          000000000007500000000077000000000730000000000000000000073000005971800
