00BDIN9999BOVESPA 99992001010820010108
0101IBOVESPA                      0163980162260166230000000000000000002001010800000020010108016562000000
0202LOTE PADRAO                   EMBRATEL PARPN *       EBTP4       010VISTA          000000000031500000000322000000003080000000000000000000321000067123500
0202LOTE PADRAO                   EMBRATEL PARON *       EBTP3       010VISTA          000000000024500000000255000000002400000000000000000000253000021009500
0202LOTE PADRAO                   TRAN PAULISTPN * EJ    TRPL4       010VISTA          000000000007300000000074000000000710000000000000000000073000006001500
0202LOTE PADRAO                   TELEMAR     PN * EJ    TNLP4       010VISTA          000000000044800000000461000000004475000000000000000000459000124778000
0202LOTE PADRAO                   ITAUBANCO   PN * EJ    ITAU4       010VISTA          000000000188000000001900000000018660000000000000000001875000002658600
0202LOTE PADRAO                   TELEMAR     ON * EJ    TNLP3       010VISTA          000000000034500000000356000000003420000000000000000000352000010545900
0202LOTE PADRAO                   SID NACIONALON *       CSNA3       010VISTA          000000000063800000000638000000006270000000000000000000634000004300500
0202LOTE PADRAO                   TELE LEST CLPN *       TLCP4       010VISTA          000000000001400000000014000000000130000000000000000000014000151899000
0202LOTE PADRAO                   CRT CELULAR PNA* EJ    CRTP5       010VISTA          000000000670000000006990000000067000000000000000000006990000000256300
0202LOTE PADRAO                   IPIRANGA PETPN *       PTIP4       010VISTA          000000000017500000000175000000001670000000000000000000170000002740000
0202LOTE PADRAO                   BRASIL T PARPN *       BRTP4       010VISTA          000000000023000000000236000000002300000000000000000000234000058184300
0202LOTE PADRAO                   BRASIL T PARON *       BRTP3       010VISTA          000000000019000000000193000000001860000000000000000000190000011623500
0202LOTE PADRAO                   ACESITA     PN *       ACES4       010VISTA          000000000001100000000011000000000100000000000000000000011000158900000
0202LOTE PADRAO                   PETROBRAS   PN         PETR4       010VISTA          000000000050000000000502000000004910000000000000000000493000000112300
0202LOTE PADRAO                   ELETROBRAS  PNB*       ELET6       010VISTA          000000000033700000000352000000003350000000000000000000349000027863900
0202LOTE PADRAO                   PETROBRAS   ON         PETR3       010VISTA          000000000052500000000526000000005160000000000000000000520000000024700
0202LOTE PADRAO                   COMGAS      PNA*       CGAS5       010VISTA          000000000131000000001310000000012700000000000000000001285000006657800
0202LOTE PADRAO                   SOUZA CRUZ  ON EJ      CRUZ3       010VISTA          000000000009400000000094000000000925000000000000000000094000000012000
0202LOTE PADRAO                   ELETROBRAS  ON *       ELET3       010VISTA          000000000034500000000370000000003420000000000000000000358000012052000
0202LOTE PADRAO                   CELESC      PNB        CLSC6       010VISTA          000000000000600000000006200000000060000000000000000000006200000103500
0202LOTE PADRAO                   BRADESCO    PN * EJ    BBDC4       010VISTA          000000000013900000000139000000001350000000000000000000138000001896700
0202LOTE PADRAO                   CESP        PN *       CESP4       010VISTA          000000000021100000000211000000002050000000000000000000210000009920100
0202LOTE PADRAO                   LIGHT       ON *       LIGH3       010VISTA          000000000230000000002375000000023000000000000000000002360000000260200
0202LOTE PADRAO                   TELESP CL PAPN *       TSPP4       010VISTA          000000000023000000000231000000002250000000000000000000226000028156600
0202LOTE PADRAO                   VALE R DOCE PNA        VALE5       010VISTA          000000000046500000000475000000004570000000000000000000471000000023000
0202LOTE PADRAO                   COPEL       PNB*       CPLE6       010VISTA          000000000016400000000170000000001630000000000000000000166000007397600
0202LOTE PADRAO                   VALE R DOCE ON         VALE3       010VISTA          000000000044000000000440000000004300000000000000000000435000000001200
0202LOTE PADRAO                   ARACRUZ     PNB        ARCZ6       010VISTA          000000000003000000000031000000000300000000000000000000031000000069500
0202LOTE PADRAO                   TELEMIG PARTPN *       TMCP4       010VISTA          000000000005700000000057000000000550000000000000000000057000047271100
0202LOTE PADRAO                   BRASIL TELECPN *       BRTO4       010VISTA          000000000017300000000175000000001700000000000000000000174000040945900
0202LOTE PADRAO                   SABESP      ON *       SBSP3       010VISTA          000000000185100000001899000000018500000000000000000001899000001107900
0202LOTE PADRAO                   BRASKEM     PNA*       BRKM5       010VISTA          000000000630000000006499000000062990000000000000000006348000000164200
0202LOTE PADRAO                   EMBRAER     PN EJ      EMBR4       010VISTA          000000000019500000000195000000001900000000000000000000191000000020500
0202LOTE PADRAO                   TELESP      PN * EJ    TLPP4       010VISTA          000000000026800000000270000000002650000000000000000000270000006860100
0202LOTE PADRAO                   EMBRAER     ON EJ      EMBR3       010VISTA          000000000014600000000146000000001400000000000000000000146000000042100
0202LOTE PADRAO                   AMBEV       PN *       AMBV4       010VISTA          000000000465000000004680000000045800000000000000000004600000000885000
0202LOTE PADRAO                   USIMINAS    PNA        USIM5       010VISTA          000000000009900000000099000000000970000000000000000000098000000041200
0202LOTE PADRAO                   ELETROPAULO PN *       ELPL4       010VISTA          000000000095000000000990000000009500000000000000000000980000001189800
0202LOTE PADRAO                   TELE NORD CLPN *       TNEP4       010VISTA          000000000004200000000044000000000410000000000000000000043000062734900
0202LOTE PADRAO                   CEMIG       PN * EJ    CMIG4       010VISTA          000000000030500000000314000000002980000000000000000000311000038228700
0202LOTE PADRAO                   TELE CL SUL PN * EJ    TCSL4       010VISTA          000000000005300000000055000000000520000000000000000000055000045450600
0202LOTE PADRAO                   CEMIG       ON * EJ    CMIG3       010VISTA          000000000023000000000248000000002300000000000000000000246000001709200
0202LOTE PADRAO                   TELE CL SUL ON * EJ    TCSL3       010VISTA          000000000004300000000045000000000425000000000000000000045000007481100
0202LOTE PADRAO                   ITAUSA      PN         ITSA4       010VISTA          000000000001950000000020000000000195000000000000000000019900000168300
0202LOTE PADRAO                   SID TUBARAO PN *       CSTB4       010VISTA          000000000022600000000230000000002210000000000000000000228000009803600
0202LOTE PADRAO                   V C P       PN *       VCPA4       010VISTA          000000000056000000000575000000005600000000000000000000575000010080400
0202LOTE PADRAO                   BRADESPAR   PN *       BRAP4       010VISTA          000000000001200000000012000000000110000000000000000000011000232103000
0202LOTE PADRAO                   NET         PN         PLIM4       010VISTA          000000000002200000000022000000000210000000000000000000022700001328700
0202LOTE PADRAO                   TELE CTR OESPN * EJ    TCOC4       010VISTA          000000000007000000000073000000000690000000000000000000073000062359900
0202LOTE PADRAO                   GERDAU      PN * EJ    GGBR4       010VISTA          000000000018900000000196000000001880000000000000000000196000011209000
0202LOTE PADRAO                   BRASIL      ON *       BBAS3       010VISTA          000000000006700000000071000000000640000000000000000000070000008764200
