00BDIN9999BOVESPA 99992001080120010801
0101IBOVESPA                      0137570136060138370000000000000000002001080100000020010801013743000000
0202LOTE PADRAO                   EMBRATEL PARPN *       EBTP4       010VISTA          000000000013300000000136000000001310000000000000000000135000063493600
0202LOTE PADRAO                   EMBRATEL PARON *       EBTP3       010VISTA          000000000013800000000142000000001350000000000000000000140000024154800
0202LOTE PADRAO                   TRAN PAULISTPN * EJ    TRPL4       010VISTA          000000000006540000000065000000000630000000000000000000063000026505300
0202LOTE PADRAO                   TELEMAR     PN * EJ    TNLP4       010VISTA          000000000031100000000315000000003080000000000000000000311000157291000
0202LOTE PADRAO                   ITAUBANCO   PN * EJ    ITAU4       010VISTA          000000000194000000001955000000018900000000000000000001914000010524300
0202LOTE PADRAO                   TELEMAR     ON * EJ    TNLP3       010VISTA          000000000027800000000279000000002700000000000000000000273000006796100
0202LOTE PADRAO                   SID NACIONALON *       CSNA3       010VISTA          000000000039000000000391000000003800000000000000000000389000005316000
0202LOTE PADRAO                   TELE LEST CLPN *       TLCP4       010VISTA          000000000001600000000016000000000160000000000000000000016000058469100
0202LOTE PADRAO                   CRT CELULAR PNA* EJ    CRTP5       010VISTA          000000000928900000009289000000091200000000000000000009200000002380000
0202LOTE PADRAO                   IPIRANGA PETPN *       PTIP4       010VISTA          000000000015600000000158000000001510000000000000000000158000000480000
0202LOTE PADRAO                   BRASIL T PARPN *       BRTP4       010VISTA          000000000018000000000185000000001760000000000000000000183000069323500
0202LOTE PADRAO                   BRASIL T PARON *       BRTP3       010VISTA          000000000016800000000175000000001660000000000000000000173000016712200
0202LOTE PADRAO                   ACESITA     PN *       ACES4       010VISTA          000000000000590000000006000000000058000000000000000000005900100522000
0202LOTE PADRAO                   PETROBRAS   PN         PETR4       010VISTA          000000000054200000000542000000005310000000000000000000532000000051100
0202LOTE PADRAO                   ELETROBRAS  PNB*       ELET6       010VISTA          000000000030300000000313000000003030000000000000000000311000036810500
0202LOTE PADRAO                   PETROBRAS   ON         PETR3       010VISTA          000000000058200000000588000000005720000000000000000000575000000017100
0202LOTE PADRAO                   COMGAS      PNA*       CGAS5       010VISTA          000000000130000000001330000000012700000000000000000001305000002660000
0202LOTE PADRAO                   SOUZA CRUZ  ON EJ      CRUZ3       010VISTA          000000000011100000000114000000001110000000000000000000113000000010000
0202LOTE PADRAO                   ELETROBRAS  ON *       ELET3       010VISTA          000000000035000000000360000000003490000000000000000000355000017273200
0202LOTE PADRAO                   CELESC      PNB        CLSC6       010VISTA          000000000000430000000004400000000042000000000000000000004400000578000
0202LOTE PADRAO                   BRADESCO    PN * EJ    BBDC4       010VISTA          000000000011600000000118000000001140000000000000000000115000129757000
0202LOTE PADRAO                   CESP        PN *       CESP4       010VISTA          000000000013700000000137000000001280000000000000000000128000008968200
0202LOTE PADRAO                   LIGHT       ON *       LIGH3       010VISTA          000000000111250000001140000000011100000000000000000001140000000108600
0202LOTE PADRAO                   TELESP CL PAPN *       TSPP4       010VISTA          000000000014600000000148000000001430000000000000000000146000109252000
0202LOTE PADRAO                   VALE R DOCE PNA        VALE5       010VISTA          000000000052500000000526000000005200000000000000000000520000000018800
0202LOTE PADRAO                   COPEL       PNB*       CPLE6       010VISTA          000000000017800000000178000000001720000000000000000000176000019547800
0202LOTE PADRAO                   VALE R DOCE ON         VALE3       010VISTA          000000000053900000000539000000005200000000000000000000520000000002800
0202LOTE PADRAO                   ARACRUZ     PNB        ARCZ6       010VISTA          000000000003900000000040000000000394000000000000000000039800000025600
0202LOTE PADRAO                   TELEMIG PARTPN *       TMCP4       010VISTA          000000000004600000000047000000000450000000000000000000046000039185200
0202LOTE PADRAO                   BRASIL TELECPN *       BRTO4       010VISTA          000000000012000000000124000000001180000000000000000000124000104158000
0202LOTE PADRAO                   SABESP      ON *       SBSP3       010VISTA          000000000163000000001670000000016025000000000000000001655000001292200
0202LOTE PADRAO                   BRASKEM     PNA*       BRKM5       010VISTA          000000000535000000005387000000053100000000000000000005350000000122900
0202LOTE PADRAO                   EMBRAER     PN EJ      EMBR4       010VISTA          000000000021800000000224000000002160000000000000000000221000000012200
0202LOTE PADRAO                   TELESP      PN * EJ    TLPP4       010VISTA          000000000024500000000248000000002410000000000000000000248000010480600
0202LOTE PADRAO                   EMBRAER     ON EJ      EMBR3       010VISTA          000000000017600000000176000000001710000000000000000000172000000026500
0202LOTE PADRAO                   AMBEV       PN *       AMBV4       010VISTA          000000000500000000005050000000049900000000000000000005020000001247200
0202LOTE PADRAO                   USIMINAS    PNA        USIM5       010VISTA          000000000006200000000062000000000610000000000000000000061000000025400
0202LOTE PADRAO                   ELETROPAULO PN *       ELPL4       010VISTA          000000000060800000000629000000005900000000000000000000600000001333300
0202LOTE PADRAO                   TELE NORD CLPN *       TNEP4       010VISTA          000000000003520000000035200000000320000000000000000000033000104504000
0202LOTE PADRAO                   CEMIG       PN * EJ    CMIG4       010VISTA          000000000026000000000265000000002560000000000000000000259000022609500
0202LOTE PADRAO                   TELE CL SUL PN * EJ    TCSL4       010VISTA          000000000004200000000042000000000410000000000000000000042500036980300
0202LOTE PADRAO                   CEMIG       ON * EJ    CMIG3       010VISTA          000000000026000000000263000000002500000000000000000000259000000460000
0202LOTE PADRAO                   TELE CL SUL ON * EJ    TCSL3       010VISTA          000000000003300000000034800000000330000000000000000000033000028801100
0202LOTE PADRAO                   ITAUSA      PN         ITSA4       010VISTA          000000000002000000000020000000000200000000000000000000020000000176400
0202LOTE PADRAO                   SID TUBARAO PN *       CSTB4       010VISTA          000000000019900000000201000000001960000000000000000000200000005150400
0202LOTE PADRAO                   V C P       PN *       VCPA4       010VISTA          000000000059500000000600000000005850000000000000000000600000001306200
0202LOTE PADRAO                   BRADESPAR   PN *       BRAP4       010VISTA          000000000000810000000008100000000079000000000000000000007900211813000
0202LOTE PADRAO                   NET         PN         PLIM4       010VISTA          000000000000970000000010000000000095000000000000000000010000002123500
0202LOTE PADRAO                   TELE CTR OESPN * EJ    TCOC4       010VISTA          000000000005900000000060000000000580000000000000000000060000029884700
0202LOTE PADRAO                   GERDAU      PN * EJ    GGBR4       010VISTA          000000000017000000000170000000001660000000000000000000168000010776600
0202LOTE PADRAO                   BRASIL      ON *       BBAS3       010VISTA          000000000008600000000089000000000860000000000000000000088000004610000
