00BDIN9999BOVESPA 99992001020820010208
0101IBOVESPA                      0168140168140172790000000000000000002001020800000020010208017243000000
0202LOTE PADRAO                   EMBRATEL PARPN *       EBTP4       010VISTA          000000000029000000000293000000002860000000000000000000290000084094700
0202LOTE PADRAO                   EMBRATEL PARON *       EBTP3       010VISTA          000000000023800000000243000000002340000000000000000000239000017061300
0202LOTE PADRAO                   TRAN PAULISTPN * EJ    TRPL4       010VISTA          000000000009000000000094000000000900000000000000000000092500028707200
0202LOTE PADRAO                   TELEMAR     PN * EJ    TNLP4       010VISTA          000000000046700000000482000000004660000000000000000000480000214735000
0202LOTE PADRAO                   ITAUBANCO   PN * EJ    ITAU4       010VISTA          000000000179900000001855000000017990000000000000000001829000004486200
0202LOTE PADRAO                   TELEMAR     ON * EJ    TNLP3       010VISTA          000000000036700000000387000000003670000000000000000000387000010882200
0202LOTE PADRAO                   SID NACIONALON *       CSNA3       010VISTA          000000000067700000000700000000006770000000000000000000698000003699700
0202LOTE PADRAO                   TELE LEST CLPN *       TLCP4       010VISTA          000000000001520000000016000000000152000000000000000000016000157485000
0202LOTE PADRAO                   IPIRANGA PETPN *       PTIP4       010VISTA          000000000016600000000166000000001630000000000000000000166000004121400
0202LOTE PADRAO                   BRASIL T PARPN *       BRTP4       010VISTA          000000000024100000000250000000002400000000000000000000246000109412000
0202LOTE PADRAO                   BRASIL T PARON *       BRTP3       010VISTA          000000000021100000000221000000002050000000000000000000220000060418400
0202LOTE PADRAO                   ACESITA     PN *       ACES4       010VISTA          000000000001100000000011000000000110000000000000000000011000199353000
0202LOTE PADRAO                   PETROBRAS   PN         PETR4       010VISTA          000000000054800000000557000000005450000000000000000000557000000087900
0202LOTE PADRAO                   ELETROBRAS  PNB*       ELET6       010VISTA          000000000038300000000391000000003820000000000000000000391000017258800
0202LOTE PADRAO                   PETROBRAS   ON         PETR3       010VISTA          000000000055500000000569000000005550000000000000000000562000000029500
0202LOTE PADRAO                   COMGAS      PNA*       CGAS5       010VISTA          000000000153500000001568000000015200000000000000000001539000002921700
0202LOTE PADRAO                   SOUZA CRUZ  ON EJ      CRUZ3       010VISTA          000000000011900000000119000000001090000000000000000000110000000031600
0202LOTE PADRAO                   CELESC      PNB        CLSC6       010VISTA          000000000000660000000006800000000066000000000000000000006700000128000
0202LOTE PADRAO                   ELETROBRAS  ON *       ELET3       010VISTA          000000000040100000000420000000004010000000000000000000416000023258000
0202LOTE PADRAO                   BRADESCO    PN * EJ    BBDC4       010VISTA          000000000012800000000129000000001260000000000000000000127000110565000
0202LOTE PADRAO                   CESP        PN *       CESP4       010VISTA          000000000024750000000259000000002450000000000000000000257000010393800
0202LOTE PADRAO                   LIGHT       ON *       LIGH3       010VISTA          000000000249000000002560000000024900000000000000000002559000000211500
0202LOTE PADRAO                   TELESP CL PAPN *       TSPP4       010VISTA          000000000020100000000205000000001980000000000000000000201000132646000
0202LOTE PADRAO                   VALE R DOCE PNA        VALE5       010VISTA          000000000050500000000514000000005000000000000000000000510000000032800
0202LOTE PADRAO                   COPEL       PNB*       CPLE6       010VISTA          000000000018500000000195000000001850000000000000000000194000023801500
0202LOTE PADRAO                   VALE R DOCE ON         VALE3       010VISTA          000000000048000000000484000000004760000000000000000000476000000000800
0202LOTE PADRAO                   ARACRUZ     PNB        ARCZ6       010VISTA          000000000002800000000028000000000280000000000000000000028000000041000
0202LOTE PADRAO                   TELEMIG PARTPN *       TMCP4       010VISTA          000000000006500000000066000000000640000000000000000000066000162477000
0202LOTE PADRAO                   BRASIL TELECPN *       BRTO4       010VISTA          000000000017100000000175000000001700000000000000000000173000066326900
0202LOTE PADRAO                   SABESP      ON *       SBSP3       010VISTA          000000000214500000002220000000021450000000000000000002220000000914000
0202LOTE PADRAO                   BRASKEM     PNA*       BRKM5       010VISTA          000000000661000000006620000000065500000000000000000006610000000046300
0202LOTE PADRAO                   EMBRAER     PN EJ      EMBR4       010VISTA          000000000020000000000203000000001950000000000000000000195000000005900
0202LOTE PADRAO                   TELESP      PN * EJ    TLPP4       010VISTA          000000000031500000000316000000003020000000000000000000316000009917400
0202LOTE PADRAO                   EMBRAER     ON EJ      EMBR3       010VISTA          000000000015500000000157000000001510000000000000000000157000000015000
0202LOTE PADRAO                   AMBEV       PN *       AMBV4       010VISTA          000000000541000000005450000000053100000000000000000005349000000927000
0202LOTE PADRAO                   USIMINAS    PNA        USIM5       010VISTA          000000000011500000000118000000001140000000000000000000116000000021100
0202LOTE PADRAO                   ELETROPAULO PN *       ELPL4       010VISTA          000000000108000000001150000000010800000000000000000001150000001020900
0202LOTE PADRAO                   TELE NORD CLPN *       TNEP4       010VISTA          000000000004100000000041000000000400000000000000000000040000104691000
0202LOTE PADRAO                   CEMIG       PN * EJ    CMIG4       010VISTA          000000000034700000000355000000003410000000000000000000347000034449100
0202LOTE PADRAO                   TELE CL SUL PN * EJ    TCSL4       010VISTA          000000000005000000000051000000000490000000000000000000050000059169400
0202LOTE PADRAO                   CEMIG       ON * EJ    CMIG3       010VISTA          000000000031200000000312000000003040000000000000000000308000003016700
0202LOTE PADRAO                   TELE CL SUL ON * EJ    TCSL3       010VISTA          000000000004000000000044000000000400000000000000000000042000013940500
0202LOTE PADRAO                   ITAUSA      PN         ITSA4       010VISTA          000000000002000000000020000000000199000000000000000000020000000079000
0202LOTE PADRAO                   SID TUBARAO PN *       CSTB4       010VISTA          000000000022600000000241000000002260000000000000000000238000008560000
0202LOTE PADRAO                   V C P       PN *       VCPA4       010VISTA          000000000060000000000610000000006000000000000000000000605000002512000
0202LOTE PADRAO                   BRADESPAR   PN *       BRAP4       010VISTA          000000000001100000000011000000000110000000000000000000011000106727000
0202LOTE PADRAO                   NET         PN         PLIM4       010VISTA          000000000001970000000020000000000197000000000000000000019900001130200
0202LOTE PADRAO                   TELE CTR OESPN * EJ    TCOC4       010VISTA          000000000008300000000084000000000810000000000000000000082000072524700
0202LOTE PADRAO                   GERDAU      PN * EJ    GGBR4       010VISTA          000000000020100000000206000000002010000000000000000000203000020129400
0202LOTE PADRAO                   BRASIL      ON *       BBAS3       010VISTA          000000000007700000000080000000000760000000000000000000079000007266200
