00BDIN9999BOVESPA 99992001021320010213
0101IBOVESPA                      0169220168830171740000000000000000002001021300000020010213017096000000
0202LOTE PADRAO                   EMBRATEL PARPN *       EBTP4       010VISTA          000000000028500000000289000000002800000000000000000000288000045952100
0202LOTE PADRAO                   EMBRATEL PARON *       EBTP3       010VISTA          000000000022800000000238000000002280000000000000000000238000012323300
0202LOTE PADRAO                   TRAN PAULISTPN * EJ    TRPL4       010VISTA          000000000009250000000092500000000900000000000000000000090000011464000
0202LOTE PADRAO                   TELEMAR     PN * EJ    TNLP4       010VISTA          000000000046500000000470000000004570000000000000000000464000159237000
0202LOTE PADRAO                   ITAUBANCO   PN * EJ    ITAU4       010VISTA          000000000182000000001830000000018200000000000000000001830000010536100
0202LOTE PADRAO                   TELEMAR     ON * EJ    TNLP3       010VISTA          000000000037500000000382000000003750000000000000000000375000022359200
0202LOTE PADRAO                   SID NACIONALON *       CSNA3       010VISTA          000000000069900000000699000000006700000000000000000000672500005842600
0202LOTE PADRAO                   TELE LEST CLPN *       TLCP4       010VISTA          000000000001540000000016000000000150000000000000000000015000053467300
0202LOTE PADRAO                   IPIRANGA PETPN *       PTIP4       010VISTA          000000000016500000000168000000001650000000000000000000165000004892500
0202LOTE PADRAO                   BRASIL T PARPN *       BRTP4       010VISTA          000000000023600000000240000000002280000000000000000000228000168778000
0202LOTE PADRAO                   BRASIL T PARON *       BRTP3       010VISTA          000000000022500000000225000000002150000000000000000000223000040885200
0202LOTE PADRAO                   ACESITA     PN *       ACES4       010VISTA          000000000001100000000011000000000110000000000000000000011000089756500
0202LOTE PADRAO                   PETROBRAS   PN         PETR4       010VISTA          000000000055750000000570000000005550000000000000000000570000000083500
0202LOTE PADRAO                   ELETROBRAS  PNB*       ELET6       010VISTA          000000000039700000000408000000003950000000000000000000408000034730600
0202LOTE PADRAO                   PETROBRAS   ON         PETR3       010VISTA          000000000056800000000583000000005670000000000000000000582000000064900
0202LOTE PADRAO                   COMGAS      PNA*       CGAS5       010VISTA          000000000150000000001500000000014500000000000000000001485000010244200
0202LOTE PADRAO                   SOUZA CRUZ  ON EJ      CRUZ3       010VISTA          000000000011300000000115000000001110000000000000000000115000000015600
0202LOTE PADRAO                   CELESC      PNB        CLSC6       010VISTA          000000000000660000000006700000000065000000000000000000006700000122100
0202LOTE PADRAO                   ELETROBRAS  ON *       ELET3       010VISTA          000000000042200000000431000000004220000000000000000000430000035290200
0202LOTE PADRAO                   BRADESCO    PN * EJ    BBDC4       010VISTA          000000000012300000000125000000001230000000000000000000123000103383000
0202LOTE PADRAO                   CESP        PN *       CESP4       010VISTA          000000000026300000000268000000002560000000000000000000257000006669800
0202LOTE PADRAO                   LIGHT       ON *       LIGH3       010VISTA          000000000252000000002565000000025200000000000000000002550000000244200
0202LOTE PADRAO                   TELESP CL PAPN *       TSPP4       010VISTA          000000000019500000000200000000001910000000000000000000198000086859100
0202LOTE PADRAO                   VALE R DOCE PNA        VALE5       010VISTA          000000000049900000000509000000004990000000000000000000502000000010100
0202LOTE PADRAO                   COPEL       PNB*       CPLE6       010VISTA          000000000020100000000204000000001980000000000000000000200000019542000
0202LOTE PADRAO                   VALE R DOCE ON         VALE3       010VISTA          000000000048500000000495000000004850000000000000000000490000000000100
0202LOTE PADRAO                   ARACRUZ     PNB        ARCZ6       010VISTA          000000000002800000000028000000000280000000000000000000028000000038600
0202LOTE PADRAO                   TELEMIG PARTPN *       TMCP4       010VISTA          000000000006500000000066000000000640000000000000000000065000037329500
0202LOTE PADRAO                   BRASIL TELECPN *       BRTO4       010VISTA          000000000017600000000176000000001580000000000000000000160000140869000
0202LOTE PADRAO                   SABESP      ON *       SBSP3       010VISTA          000000000214000000002170000000021250000000000000000002170000001429200
0202LOTE PADRAO                   BRASKEM     PNA*       BRKM5       010VISTA          000000000667900000006720000000066780000000000000000006700000000200200
0202LOTE PADRAO                   EMBRAER     PN EJ      EMBR4       010VISTA          000000000018750000000190000000001860000000000000000000189000000033900
0202LOTE PADRAO                   TELESP      PN * EJ    TLPP4       010VISTA          000000000030600000000306000000002980000000000000000000303000008406700
0202LOTE PADRAO                   EMBRAER     ON EJ      EMBR3       010VISTA          000000000015900000000161000000001590000000000000000000160000000028600
0202LOTE PADRAO                   AMBEV       PN *       AMBV4       010VISTA          000000000513000000005160000000050000000000000000000005010000002573500
0202LOTE PADRAO                   USIMINAS    PNA        USIM5       010VISTA          000000000011250000000114000000001125000000000000000000113000000026500
0202LOTE PADRAO                   ELETROPAULO PN *       ELPL4       010VISTA          000000000108700000001189000000010870000000000000000001120000001121900
0202LOTE PADRAO                   TELE NORD CLPN *       TNEP4       010VISTA          000000000003700000000038000000000373000000000000000000037000032377300
0202LOTE PADRAO                   CEMIG       PN * EJ    CMIG4       010VISTA          000000000034000000000347500000003370000000000000000000343000035223400
0202LOTE PADRAO                   TELE CL SUL PN * EJ    TCSL4       010VISTA          000000000004900000000049000000000470000000000000000000049000036582600
0202LOTE PADRAO                   CEMIG       ON * EJ    CMIG3       010VISTA          000000000030600000000315000000003060000000000000000000310000002763100
0202LOTE PADRAO                   TELE CL SUL ON * EJ    TCSL3       010VISTA          000000000004100000000042000000000410000000000000000000042500005013300
0202LOTE PADRAO                   ITAUSA      PN         ITSA4       010VISTA          000000000001970000000021000000000197000000000000000000020000000295000
0202LOTE PADRAO                   SID TUBARAO PN *       CSTB4       010VISTA          000000000023300000000241000000002330000000000000000000238000002705400
0202LOTE PADRAO                   V C P       PN *       VCPA4       010VISTA          000000000059000000000602000000005800000000000000000000602000003456000
0202LOTE PADRAO                   BRADESPAR   PN *       BRAP4       010VISTA          000000000001100000000011000000000110000000000000000000011000120484000
0202LOTE PADRAO                   NET         PN         PLIM4       010VISTA          000000000001950000000020000000000190000000000000000000020000000623600
0202LOTE PADRAO                   TELE CTR OESPN * EJ    TCOC4       010VISTA          000000000008000000000082000000000790000000000000000000080000016096100
0202LOTE PADRAO                   GERDAU      PN * EJ    GGBR4       010VISTA          000000000020100000000205000000002000000000000000000000201000014239700
0202LOTE PADRAO                   BRASIL      ON *       BBAS3       010VISTA          000000000007700000000079000000000760000000000000000000077500004842400
