00BDIN9999BOVESPA 99992001101920011019
0101IBOVESPA                      0110030108940114130000000000000000002001101900000020011019011332000000
0202LOTE PADRAO                   EMBRATEL PARPN *       EBTP4       010VISTA          000000000007200000000079000000000710000000000000000000078000148277000
0202LOTE PADRAO                   EMBRATEL PARON *       EBTP3       010VISTA          000000000007900000000086000000000770000000000000000000086000036225000
0202LOTE PADRAO                   TRAN PAULISTPN * EJ    TRPL4       010VISTA          000000000004900000000052000000000496000000000000000000051000026250000
0202LOTE PADRAO                   TELEMAR     PN * EJ    TNLP4       010VISTA          000000000026100000000273000000002560000000000000000000271000365906000
0202LOTE PADRAO                   ITAUBANCO   PN * EJ    ITAU4       010VISTA          000000000170000000001733000000016900000000000000000001720000009135800
0202LOTE PADRAO                   TELEMAR     ON * EJ    TNLP3       010VISTA          000000000022900000000241000000002250000000000000000000239000020413400
0202LOTE PADRAO                   SID NACIONALON *       CSNA3       010VISTA          000000000026600000000271000000002660000000000000000000270000020388700
0202LOTE PADRAO                   TELE LEST CLPN *       TLCP4       010VISTA          000000000000710000000007300000000068000000000000000000007200361080000
0202LOTE PADRAO                   CRT CELULAR PNA* EJ    CRTP5       010VISTA          000000000358000000003650000000035500000000000000000003598000001330800
0202LOTE PADRAO                   IPIRANGA PETPN *       PTIP4       010VISTA          000000000011000000000118000000001100000000000000000000115000003277500
0202LOTE PADRAO                   BRASIL T PARPN *       BRTP4       010VISTA          000000000014900000000155000000001430000000000000000000152500093270000
0202LOTE PADRAO                   BRASIL T PARON *       BRTP3       010VISTA          000000000013800000000149000000001380000000000000000000148000022885800
0202LOTE PADRAO                   ACESITA     PN *       ACES4       010VISTA          000000000000450000000004800000000044000000000000000000004700145203000
0202LOTE PADRAO                   PETROBRAS   PN         PETR4       010VISTA          000000000052000000000525000000005120000000000000000000521000000165400
0202LOTE PADRAO                   ELETROBRAS  PNB*       ELET6       010VISTA          000000000031000000000323000000003060000000000000000000319000032812700
0202LOTE PADRAO                   PETROBRAS   ON         PETR3       010VISTA          000000000054000000000545000000005270000000000000000000537000000060300
0202LOTE PADRAO                   COMGAS      PNA*       CGAS5       010VISTA          000000000082400000000830000000008100000000000000000000825000000920300
0202LOTE PADRAO                   SOUZA CRUZ  ON EJ      CRUZ3       010VISTA          000000000012800000000132500000001280000000000000000000131000000029900
0202LOTE PADRAO                   ELETROBRAS  ON *       ELET3       010VISTA          000000000033600000000350000000003250000000000000000000345000021167700
0202LOTE PADRAO                   CELESC      PNB        CLSC6       010VISTA          000000000000370000000004300000000037000000000000000000004200001217700
0202LOTE PADRAO                   BRADESCO    PN * EJ    BBDC4       010VISTA          000000000010400000000108000000001030000000000000000000106000175254000
0202LOTE PADRAO                   CESP        PN *       CESP4       010VISTA          000000000011000000000131000000001090000000000000000000130000036883500
0202LOTE PADRAO                   LIGHT       ON *       LIGH3       010VISTA          000000000079900000000800000000007800000000000000000000795000000663200
0202LOTE PADRAO                   TELESP CL PAPN *       TSPP4       010VISTA          000000000005500000000058000000000540000000000000000000056000212517000
0202LOTE PADRAO                   VALE R DOCE PNA        VALE5       010VISTA          000000000055600000000560000000005500000000000000000000552000000023500
0202LOTE PADRAO                   COPEL       PNB*       CPLE6       010VISTA          000000000014800000000159000000001460000000000000000000154000048164600
0202LOTE PADRAO                   VALE R DOCE ON         VALE3       010VISTA          000000000053500000000535000000005350000000000000000000535000000000900
0202LOTE PADRAO                   ARACRUZ     PNB        ARCZ6       010VISTA          000000000004500000000045000000000450000000000000000000045000000030900
0202LOTE PADRAO                   TELEMIG PARTPN *       TMCP4       010VISTA          000000000003100000000032000000000310000000000000000000032500057475900
0202LOTE PADRAO                   BRASIL TELECPN *       BRTO4       010VISTA          000000000010200000000107500000001000000000000000000000104000469775000
0202LOTE PADRAO                   SABESP      ON *       SBSP3       010VISTA          000000000115700000001200000000011380000000000000000001185000001545700
0202LOTE PADRAO                   BRASKEM     PNA*       BRKM5       010VISTA          000000000369000000004000000000036500000000000000000003800000000560000
0202LOTE PADRAO                   EMBRAER     PN EJ      EMBR4       010VISTA          000000000010400000000115000000001010000000000000000000114000000148100
0202LOTE PADRAO                   TELESP      PN * EJ    TLPP4       010VISTA          000000000024100000000251000000002380000000000000000000251000014100600
0202LOTE PADRAO                   EMBRAER     ON EJ      EMBR3       010VISTA          000000000008500000000095000000000850000000000000000000094000000027200
0202LOTE PADRAO                   AMBEV       PN *       AMBV4       010VISTA          000000000430000000004400000000043000000000000000000004350000003774700
0202LOTE PADRAO                   USIMINAS    PNA        USIM5       010VISTA          000000000003800000000040000000000380000000000000000000040000000070000
0202LOTE PADRAO                   ELETROPAULO PN *       ELPL4       010VISTA          000000000061800000000620000000006050000000000000000000609000003803500
0202LOTE PADRAO                   TELE NORD CLPN *       TNEP4       010VISTA          000000000002300000000025400000000230000000000000000000024000088847600
0202LOTE PADRAO                   CEMIG       PN * EJ    CMIG4       010VISTA          000000000026000000000266000000002560000000000000000000266000033211300
0202LOTE PADRAO                   TELE CL SUL PN * EJ    TCSL4       010VISTA          000000000002750000000030000000000270000000000000000000028000071681800
0202LOTE PADRAO                   CEMIG       ON * EJ    CMIG3       010VISTA          000000000025000000000261000000002500000000000000000000260000002130100
0202LOTE PADRAO                   TELE CL SUL ON * EJ    TCSL3       010VISTA          000000000002250000000025200000000225000000000000000000024000022800500
0202LOTE PADRAO                   ITAUSA      PN         ITSA4       010VISTA          000000000001800000000018000000000180000000000000000000018000000379200
0202LOTE PADRAO                   SID TUBARAO PN *       CSTB4       010VISTA          000000000015800000000170000000001580000000000000000000170000007314700
0202LOTE PADRAO                   V C P       PN *       VCPA4       010VISTA          000000000075800000000779000000007550000000000000000000755000002084000
0202LOTE PADRAO                   BRADESPAR   PN *       BRAP4       010VISTA          000000000000560000000006100000000055000000000000000000006000162133000
0202LOTE PADRAO                   NET         PN         PLIM4       010VISTA          000000000000620000000006600000000061000000000000000000006400000697500
0202LOTE PADRAO                   TELE CTR OESPN * EJ    TCOC4       010VISTA          000000000004600000000050000000000450000000000000000000048000087531800
0202LOTE PADRAO                   GERDAU      PN * EJ    GGBR4       010VISTA          000000000016400000000177500000001630000000000000000000177500014236500
0202LOTE PADRAO                   BRASIL      ON *       BBAS3       010VISTA          000000000007200000000076000000000720000000000000000000075000002771300
