00BDIN9999BOVESPA 99992001100520011005
0101IBOVESPA                      0100680099850102710000000000000000002001100500000020011005010197000000
0202LOTE PADRAO                   EMBRATEL PARPN *       EBTP4       010VISTA          000000000006700000000068000000000650000000000000000000065000083395200
0202LOTE PADRAO                   EMBRATEL PARON *       EBTP3       010VISTA          000000000007200000000074000000000700000000000000000000071000008313000
0202LOTE PADRAO                   TRAN PAULISTPN * EJ    TRPL4       010VISTA          000000000003900000000042000000000380000000000000000000040000018780000
0202LOTE PADRAO                   TELEMAR     PN * EJ    TNLP4       010VISTA          000000000022500000000231000000002210000000000000000000229000169169000
0202LOTE PADRAO                   ITAUBANCO   PN * EJ    ITAU4       010VISTA          000000000158600000001589000000015560000000000000000001565000007517000
0202LOTE PADRAO                   TELEMAR     ON * EJ    TNLP3       010VISTA          000000000020000000000210000000002000000000000000000000206000011788000
0202LOTE PADRAO                   SID NACIONALON *       CSNA3       010VISTA          000000000026800000000268000000002600000000000000000000263000005016400
0202LOTE PADRAO                   TELE LEST CLPN *       TLCP4       010VISTA          000000000000620000000006500000000060000000000000000000006300162681000
0202LOTE PADRAO                   CRT CELULAR PNA* EJ    CRTP5       010VISTA          000000000339000000003480000000033400000000000000000003420000000922600
0202LOTE PADRAO                   IPIRANGA PETPN *       PTIP4       010VISTA          000000000010500000000110000000001050000000000000000000110000001120000
0202LOTE PADRAO                   BRASIL T PARPN *       BRTP4       010VISTA          000000000014000000000145000000001380000000000000000000142000054404700
0202LOTE PADRAO                   BRASIL T PARON *       BRTP3       010VISTA          000000000012600000000139000000001250000000000000000000136000010476500
0202LOTE PADRAO                   ACESITA     PN *       ACES4       010VISTA          000000000000410000000004200000000040000000000000000000004100074272300
0202LOTE PADRAO                   PETROBRAS   PN         PETR4       010VISTA          000000000050100000000506000000004970000000000000000000502500000076500
0202LOTE PADRAO                   ELETROBRAS  PNB*       ELET6       010VISTA          000000000026000000000275000000002580000000000000000000273000024819300
0202LOTE PADRAO                   PETROBRAS   ON         PETR3       010VISTA          000000000052000000000522000000005130000000000000000000521000000019300
0202LOTE PADRAO                   COMGAS      PNA*       CGAS5       010VISTA          000000000074000000000749000000007300000000000000000000749000001081000
0202LOTE PADRAO                   SOUZA CRUZ  ON EJ      CRUZ3       010VISTA          000000000010800000000115000000001080000000000000000000115000000023000
0202LOTE PADRAO                   ELETROBRAS  ON *       ELET3       010VISTA          000000000028300000000308000000002790000000000000000000303000013150000
0202LOTE PADRAO                   CELESC      PNB        CLSC6       010VISTA          000000000000360000000003600000000034000000000000000000003500000051600
0202LOTE PADRAO                   BRADESCO    PN * EJ    BBDC4       010VISTA          000000000010200000000102500000000980000000000000000000099000132581000
0202LOTE PADRAO                   CESP        PN *       CESP4       010VISTA          000000000007200000000081000000000720000000000000000000081000011666900
0202LOTE PADRAO                   LIGHT       ON *       LIGH3       010VISTA          000000000072000000000759000000007200000000000000000000720000000387400
0202LOTE PADRAO                   TELESP CL PAPN *       TSPP4       010VISTA          000000000005100000000052000000000510000000000000000000052500113765000
0202LOTE PADRAO                   VALE R DOCE PNA        VALE5       010VISTA          000000000051500000000529000000005150000000000000000000523000000066700
0202LOTE PADRAO                   COPEL       PNB*       CPLE6       010VISTA          000000000014300000000145000000001320000000000000000000140000038654000
0202LOTE PADRAO                   VALE R DOCE ON         VALE3       010VISTA          000000000051000000000517000000005100000000000000000000517000000005500
0202LOTE PADRAO                   ARACRUZ     PNB        ARCZ6       010VISTA          000000000004200000000044000000000420000000000000000000043000000062300
0202LOTE PADRAO                   TELEMIG PARTPN *       TMCP4       010VISTA          000000000003000000000031000000000300000000000000000000031000038801800
0202LOTE PADRAO                   BRASIL TELECPN *       BRTO4       010VISTA          000000000009800000000101000000000950000000000000000000101000074588100
0202LOTE PADRAO                   SABESP      ON *       SBSP3       010VISTA          000000000098000000001030000000009790000000000000000001000000001228400
0202LOTE PADRAO                   BRASKEM     PNA*       BRKM5       010VISTA          000000000335000000003600000000033500000000000000000003451000000104200
0202LOTE PADRAO                   EMBRAER     PN EJ      EMBR4       010VISTA          000000000009000000000090000000000850000000000000000000085000000083800
0202LOTE PADRAO                   TELESP      PN * EJ    TLPP4       010VISTA          000000000021500000000221000000002130000000000000000000220000020272700
0202LOTE PADRAO                   EMBRAER     ON EJ      EMBR3       010VISTA          000000000007300000000073000000000700000000000000000000072000000015700
0202LOTE PADRAO                   AMBEV       PN *       AMBV4       010VISTA          000000000412000000004120000000040100000000000000000004060000002160600
0202LOTE PADRAO                   USIMINAS    PNA        USIM5       010VISTA          000000000003770000000038000000000370000000000000000000037000000070800
0202LOTE PADRAO                   ELETROPAULO PN *       ELPL4       010VISTA          000000000054000000000590000000005300000000000000000000570000002831200
0202LOTE PADRAO                   TELE NORD CLPN *       TNEP4       010VISTA          000000000002300000000024000000000230000000000000000000024000061771300
0202LOTE PADRAO                   CEMIG       PN * EJ    CMIG4       010VISTA          000000000023500000000243000000002310000000000000000000235000020201500
0202LOTE PADRAO                   TELE CL SUL PN * EJ    TCSL4       010VISTA          000000000002600000000027000000000260000000000000000000027100028748000
0202LOTE PADRAO                   CEMIG       ON * EJ    CMIG3       010VISTA          000000000023500000000235000000002260000000000000000000230000003680000
0202LOTE PADRAO                   TELE CL SUL ON * EJ    TCSL3       010VISTA          000000000002250000000023000000000220000000000000000000023000005582500
0202LOTE PADRAO                   ITAUSA      PN         ITSA4       010VISTA          000000000001710000000017400000000170000000000000000000017100000263900
0202LOTE PADRAO                   SID TUBARAO PN *       CSTB4       010VISTA          000000000013500000000139000000001310000000000000000000135000006067000
0202LOTE PADRAO                   V C P       PN *       VCPA4       010VISTA          000000000067000000000719000000006700000000000000000000717000001915400
0202LOTE PADRAO                   BRADESPAR   PN *       BRAP4       010VISTA          000000000000490000000005100000000049000000000000000000005100166459000
0202LOTE PADRAO                   NET         PN         PLIM4       010VISTA          000000000000590000000006600000000057000000000000000000006200003099000
0202LOTE PADRAO                   TELE CTR OESPN * EJ    TCOC4       010VISTA          000000000004400000000045000000000440000000000000000000044000093507600
0202LOTE PADRAO                   GERDAU      PN * EJ    GGBR4       010VISTA          000000000013800000000141000000001350000000000000000000140000006823800
0202LOTE PADRAO                   BRASIL      ON *       BBAS3       010VISTA          000000000007000000000070000000000670000000000000000000069000002806400
