00BDIN9999BOVESPA 99992001062020010620
0101IBOVESPA                      0143960143930145990000000000000000002001062000000020010620014571000000
0202LOTE PADRAO                   EMBRATEL PARPN *       EBTP4       010VISTA          000000000018900000000192500000001860000000000000000000189000135519000
0202LOTE PADRAO                   EMBRATEL PARON *       EBTP3       010VISTA          000000000020300000000203000000001950000000000000000000198000027495600
0202LOTE PADRAO                   TRAN PAULISTPN * EJ    TRPL4       010VISTA          000000000006200000000063000000000620000000000000000000062000005457400
0202LOTE PADRAO                   TELEMAR     PN * EJ    TNLP4       010VISTA          000000000035700000000366000000003570000000000000000000362000129712000
0202LOTE PADRAO                   ITAUBANCO   PN * EJ    ITAU4       010VISTA          000000000181000000001870000000018100000000000000000001869000006753700
0202LOTE PADRAO                   TELEMAR     ON * EJ    TNLP3       010VISTA          000000000031000000000311000000003050000000000000000000310000009855500
0202LOTE PADRAO                   SID NACIONALON *       CSNA3       010VISTA          000000000044700000000451000000004400000000000000000000445000008497600
0202LOTE PADRAO                   TELE LEST CLPN *       TLCP4       010VISTA          000000000001800000000018000000000180000000000000000000018000089037400
0202LOTE PADRAO                   IPIRANGA PETPN *       PTIP4       010VISTA          000000000016100000000165000000001550000000000000000000163000001800000
0202LOTE PADRAO                   BRASIL T PARPN *       BRTP4       010VISTA          000000000019100000000191000000001880000000000000000000190000067158700
0202LOTE PADRAO                   BRASIL T PARON *       BRTP3       010VISTA          000000000018000000000181000000001780000000000000000000180000014712800
0202LOTE PADRAO                   ACESITA     PN *       ACES4       010VISTA          000000000000670000000006900000000066000000000000000000006900124608000
0202LOTE PADRAO                   PETROBRAS   PN         PETR4       010VISTA          000000000057300000000587000000005730000000000000000000583000000057700
0202LOTE PADRAO                   ELETROBRAS  PNB*       ELET6       010VISTA          000000000028100000000290000000002780000000000000000000281000035416700
0202LOTE PADRAO                   PETROBRAS   ON         PETR3       010VISTA          000000000064700000000667000000006470000000000000000000663000000030000
0202LOTE PADRAO                   COMGAS      PNA*       CGAS5       010VISTA          000000000147000000001519000000014500000000000000000001450000002827000
0202LOTE PADRAO                   SOUZA CRUZ  ON EJ      CRUZ3       010VISTA          000000000011800000000118000000001140000000000000000000116000000008500
0202LOTE PADRAO                   CELESC      PNB        CLSC6       010VISTA          000000000000450000000004600000000044000000000000000000004600000168000
0202LOTE PADRAO                   ELETROBRAS  ON *       ELET3       010VISTA          000000000030100000000325000000003010000000000000000000315000024374300
0202LOTE PADRAO                   BRADESCO    PN * EJ    BBDC4       010VISTA          000000000011900000000119000000001175000000000000000000119000111404000
0202LOTE PADRAO                   CESP        PN *       CESP4       010VISTA          000000000014000000000141000000001375000000000000000000140000012357600
0202LOTE PADRAO                   LIGHT       ON *       LIGH3       010VISTA          000000000135000000001350000000013250000000000000000001344000000146000
0202LOTE PADRAO                   TELESP CL PAPN *       TSPP4       010VISTA          000000000014000000000142000000001380000000000000000000142000113932000
0202LOTE PADRAO                   VALE R DOCE PNA        VALE5       010VISTA          000000000055000000000555000000005420000000000000000000545000000028900
0202LOTE PADRAO                   COPEL       PNB*       CPLE6       010VISTA          000000000016200000000163000000001560000000000000000000161000032411800
0202LOTE PADRAO                   VALE R DOCE ON         VALE3       010VISTA          000000000051000000000513000000005100000000000000000000510000000001000
0202LOTE PADRAO                   ARACRUZ     PNB        ARCZ6       010VISTA          000000000004300000000043000000000400000000000000000000041000000055800
0202LOTE PADRAO                   TELEMIG PARTPN *       TMCP4       010VISTA          000000000004700000000047500000000440000000000000000000045000097242200
0202LOTE PADRAO                   BRASIL TELECPN *       BRTO4       010VISTA          000000000013700000000141000000001370000000000000000000140000109994000
0202LOTE PADRAO                   SABESP      ON *       SBSP3       010VISTA          000000000164000000001660000000015800000000000000000001656000003079700
0202LOTE PADRAO                   BRASKEM     PNA*       BRKM5       010VISTA          000000000529900000005323000000052000000000000000000005290000000071800
0202LOTE PADRAO                   EMBRAER     PN EJ      EMBR4       010VISTA          000000000025100000000254000000002430000000000000000000246000000082900
0202LOTE PADRAO                   TELESP      PN * EJ    TLPP4       010VISTA          000000000027100000000275000000002660000000000000000000273000016424800
0202LOTE PADRAO                   EMBRAER     ON EJ      EMBR3       010VISTA          000000000019800000000198000000001900000000000000000000193000000022100
0202LOTE PADRAO                   AMBEV       PN *       AMBV4       010VISTA          000000000480000000004995000000047750000000000000000004980000001296900
0202LOTE PADRAO                   USIMINAS    PNA        USIM5       010VISTA          000000000006300000000064000000000610000000000000000000063000000027900
0202LOTE PADRAO                   ELETROPAULO PN *       ELPL4       010VISTA          000000000065200000000669000000006200000000000000000000638000008794300
0202LOTE PADRAO                   TELE NORD CLPN *       TNEP4       010VISTA          000000000004000000000040000000000370000000000000000000039400315295000
0202LOTE PADRAO                   CEMIG       PN * EJ    CMIG4       010VISTA          000000000024300000000253000000002430000000000000000000253000026619500
0202LOTE PADRAO                   TELE CL SUL PN * EJ    TCSL4       010VISTA          000000000004900000000051000000000479000000000000000000049000057401800
0202LOTE PADRAO                   CEMIG       ON * EJ    CMIG3       010VISTA          000000000023000000000240000000002300000000000000000000240000001936300
0202LOTE PADRAO                   TELE CL SUL ON * EJ    TCSL3       010VISTA          000000000004200000000042000000000400000000000000000000040000021583400
0202LOTE PADRAO                   ITAUSA      PN         ITSA4       010VISTA          000000000001960000000019900000000194000000000000000000019700000381800
0202LOTE PADRAO                   SID TUBARAO PN *       CSTB4       010VISTA          000000000023000000000233000000002260000000000000000000233000051725800
0202LOTE PADRAO                   V C P       PN *       VCPA4       010VISTA          000000000071500000000715000000006840000000000000000000684000002917800
0202LOTE PADRAO                   BRADESPAR   PN *       BRAP4       010VISTA          000000000000830000000008400000000082000000000000000000008300141509000
0202LOTE PADRAO                   NET         PN         PLIM4       010VISTA          000000000000820000000008700000000081000000000000000000008300001797200
0202LOTE PADRAO                   TELE CTR OESPN * EJ    TCOC4       010VISTA          000000000006000000000062000000000580000000000000000000059000077338100
0202LOTE PADRAO                   GERDAU      PN * EJ    GGBR4       010VISTA          000000000017100000000173000000001700000000000000000000173000010781500
0202LOTE PADRAO                   BRASIL      ON *       BBAS3       010VISTA          000000000008500000000088000000000850000000000000000000087000035054700
