00BDIN9999BOVESPA 99992001091920010919
0101IBOVESPA                      0105600104850108360000000000000000002001091900000020010919010745000000
0202LOTE PADRAO                   EMBRATEL PARPN *       EBTP4       010VISTA          000000000007900000000081000000000760000000000000000000079000119602000
0202LOTE PADRAO                   EMBRATEL PARON *       EBTP3       010VISTA          000000000008250000000086000000000810000000000000000000086000033738500
0202LOTE PADRAO                   TRAN PAULISTPN * EJ    TRPL4       010VISTA          000000000004300000000045000000000430000000000000000000045000015678600
0202LOTE PADRAO                   TELEMAR     PN * EJ    TNLP4       010VISTA          000000000022300000000230000000002160000000000000000000229000348721000
0202LOTE PADRAO                   ITAUBANCO   PN * EJ    ITAU4       010VISTA          000000000164500000001690000000016400000000000000000001670000005318600
0202LOTE PADRAO                   TELEMAR     ON * EJ    TNLP3       010VISTA          000000000021100000000221000000002100000000000000000000218000041791300
0202LOTE PADRAO                   SID NACIONALON *       CSNA3       010VISTA          000000000032600000000326000000003060000000000000000000309000024851300
0202LOTE PADRAO                   TELE LEST CLPN *       TLCP4       010VISTA          000000000000630000000006700000000061000000000000000000006300398622000
0202LOTE PADRAO                   CRT CELULAR PNA* EJ    CRTP5       010VISTA          000000000308000000003185000000030000000000000000000003100000001943800
0202LOTE PADRAO                   IPIRANGA PETPN *       PTIP4       010VISTA          000000000010300000000117000000001030000000000000000000117000001219300
0202LOTE PADRAO                   BRASIL T PARPN *       BRTP4       010VISTA          000000000012300000000126000000001200000000000000000000125000055644300
0202LOTE PADRAO                   BRASIL T PARON *       BRTP3       010VISTA          000000000011400000000118000000001125000000000000000000118000017462300
0202LOTE PADRAO                   ACESITA     PN *       ACES4       010VISTA          000000000000410000000004500000000040000000000000000000004500206747000
0202LOTE PADRAO                   PETROBRAS   PN         PETR4       010VISTA          000000000056200000000567000000005480000000000000000000561000000170400
0202LOTE PADRAO                   ELETROBRAS  PNB*       ELET6       010VISTA          000000000029800000000308000000002960000000000000000000305000036678100
0202LOTE PADRAO                   PETROBRAS   ON         PETR3       010VISTA          000000000058000000000588000000005670000000000000000000571000000041100
0202LOTE PADRAO                   COMGAS      PNA*       CGAS5       010VISTA          000000000085000000000897000000008300000000000000000000870000000787000
0202LOTE PADRAO                   SOUZA CRUZ  ON EJ      CRUZ3       010VISTA          000000000011400000000119000000001125000000000000000000112500000018700
0202LOTE PADRAO                   ELETROBRAS  ON *       ELET3       010VISTA          000000000033000000000337000000003270000000000000000000336000018858900
0202LOTE PADRAO                   CELESC      PNB        CLSC6       010VISTA          000000000000350000000003600000000034000000000000000000003500000121700
0202LOTE PADRAO                   BRADESCO    PN * EJ    BBDC4       010VISTA          000000000010400000000104000000000980000000000000000000100000165057000
0202LOTE PADRAO                   CESP        PN *       CESP4       010VISTA          000000000008500000000093000000000850000000000000000000093000019301100
0202LOTE PADRAO                   LIGHT       ON *       LIGH3       010VISTA          000000000092000000000950000000008800000000000000000000905000000171100
0202LOTE PADRAO                   TELESP CL PAPN *       TSPP4       010VISTA          000000000005900000000062000000000590000000000000000000060000301253000
0202LOTE PADRAO                   VALE R DOCE PNA        VALE5       010VISTA          000000000051700000000523000000005120000000000000000000521000000069100
0202LOTE PADRAO                   COPEL       PNB*       CPLE6       010VISTA          000000000016000000000160000000001510000000000000000000154000042926000
0202LOTE PADRAO                   VALE R DOCE ON         VALE3       010VISTA          000000000051000000000512000000005100000000000000000000512000000023900
0202LOTE PADRAO                   ARACRUZ     PNB        ARCZ6       010VISTA          000000000004100000000041000000000400000000000000000000041000000033300
0202LOTE PADRAO                   TELEMIG PARTPN *       TMCP4       010VISTA          000000000002980000000030000000000280000000000000000000029000103353000
0202LOTE PADRAO                   BRASIL TELECPN *       BRTO4       010VISTA          000000000008300000000088000000000810000000000000000000087000069107500
0202LOTE PADRAO                   SABESP      ON *       SBSP3       010VISTA          000000000128000000001289000000012150000000000000000001240000000755400
0202LOTE PADRAO                   BRASKEM     PNA*       BRKM5       010VISTA          000000000366000000003900000000035000000000000000000003660000000242200
0202LOTE PADRAO                   EMBRAER     PN EJ      EMBR4       010VISTA          000000000010800000000109000000000980000000000000000000098000000068500
0202LOTE PADRAO                   TELESP      PN * EJ    TLPP4       010VISTA          000000000021700000000226000000002150000000000000000000226000010716000
0202LOTE PADRAO                   EMBRAER     ON EJ      EMBR3       010VISTA          000000000009300000000094000000000860000000000000000000090000000064300
0202LOTE PADRAO                   AMBEV       PN *       AMBV4       010VISTA          000000000468000000004740000000045500000000000000000004620000001251700
0202LOTE PADRAO                   USIMINAS    PNA        USIM5       010VISTA          000000000004400000000045000000000425000000000000000000043000000067600
0202LOTE PADRAO                   ELETROPAULO PN *       ELPL4       010VISTA          000000000069500000000710000000006690000000000000000000710000002627000
0202LOTE PADRAO                   TELE NORD CLPN *       TNEP4       010VISTA          000000000002400000000024800000000230000000000000000000023000091668700
0202LOTE PADRAO                   CEMIG       PN * EJ    CMIG4       010VISTA          000000000024500000000253000000002410000000000000000000249000021310400
0202LOTE PADRAO                   TELE CL SUL PN * EJ    TCSL4       010VISTA          000000000002900000000029800000000270000000000000000000029000095317700
0202LOTE PADRAO                   CEMIG       ON * EJ    CMIG3       010VISTA          000000000023700000000245000000002270000000000000000000241000001860000
0202LOTE PADRAO                   TELE CL SUL ON * EJ    TCSL3       010VISTA          000000000002300000000025000000000220000000000000000000025000035762900
0202LOTE PADRAO                   ITAUSA      PN         ITSA4       010VISTA          000000000001800000000018000000000180000000000000000000018000000322400
0202LOTE PADRAO                   SID TUBARAO PN *       CSTB4       010VISTA          000000000018100000000181000000001660000000000000000000166000008261000
0202LOTE PADRAO                   V C P       PN *       VCPA4       010VISTA          000000000062500000000654000000006250000000000000000000635000004212400
0202LOTE PADRAO                   BRADESPAR   PN *       BRAP4       010VISTA          000000000000490000000005300000000048000000000000000000005200360298000
0202LOTE PADRAO                   NET         PN         PLIM4       010VISTA          000000000000640000000006500000000062000000000000000000006400001217000
0202LOTE PADRAO                   TELE CTR OESPN * EJ    TCOC4       010VISTA          000000000004000000000041000000000380000000000000000000040000072994600
0202LOTE PADRAO                   GERDAU      PN * EJ    GGBR4       010VISTA          000000000014000000000149000000001400000000000000000000145000012044600
0202LOTE PADRAO                   BRASIL      ON *       BBAS3       010VISTA          000000000007500000000076000000000720000000000000000000076000005927000
