00BDIN9999BOVESPA 99992001020520010205
0101IBOVESPA                      0169140165390169410000000000000000002001020500000020010205016731000000
0202LOTE PADRAO                   EMBRATEL PARPN *       EBTP4       010VISTA          000000000030500000000305000000002850000000000000000000290000072486400
0202LOTE PADRAO                   EMBRATEL PARON *       EBTP3       010VISTA          000000000024900000000249000000002360000000000000000000236000015913100
0202LOTE PADRAO                   TRAN PAULISTPN * EJ    TRPL4       010VISTA          000000000008100000000082000000000800000000000000000000082000011402000
0202LOTE PADRAO                   TELEMAR     PN * EJ    TNLP4       010VISTA          000000000046500000000466000000004530000000000000000000462000115526000
0202LOTE PADRAO                   ITAUBANCO   PN * EJ    ITAU4       010VISTA          000000000183000000001830000000017900000000000000000001795000000993500
0202LOTE PADRAO                   TELEMAR     ON * EJ    TNLP3       010VISTA          000000000037200000000373000000003700000000000000000000371000009010100
0202LOTE PADRAO                   SID NACIONALON *       CSNA3       010VISTA          000000000069500000000695000000006720000000000000000000678000004725900
0202LOTE PADRAO                   TELE LEST CLPN *       TLCP4       010VISTA          000000000001550000000015000000000147000000000000000000015500156549000
0202LOTE PADRAO                   IPIRANGA PETPN *       PTIP4       010VISTA          000000000016600000000166000000001630000000000000000000163000001429600
0202LOTE PADRAO                   BRASIL T PARPN *       BRTP4       010VISTA          000000000023800000000238000000002280000000000000000000238000036577000
0202LOTE PADRAO                   BRASIL T PARON *       BRTP3       010VISTA          000000000019800000000200000000001950000000000000000000197000009220100
0202LOTE PADRAO                   ACESITA     PN *       ACES4       010VISTA          000000000001100000000011000000000110000000000000000000011000183151000
0202LOTE PADRAO                   PETROBRAS   PN         PETR4       010VISTA          000000000053700000000540000000005320000000000000000000536000000068400
0202LOTE PADRAO                   ELETROBRAS  PNB*       ELET6       010VISTA          000000000037200000000375000000003700000000000000000000373000019356000
0202LOTE PADRAO                   PETROBRAS   ON         PETR3       010VISTA          000000000054600000000550000000005400000000000000000000547000000019700
0202LOTE PADRAO                   COMGAS      PNA*       CGAS5       010VISTA          000000000158000000001595000000015450000000000000000001566000006156700
0202LOTE PADRAO                   SOUZA CRUZ  ON EJ      CRUZ3       010VISTA          000000000011900000000119000000001150000000000000000000116000000010300
0202LOTE PADRAO                   CELESC      PNB        CLSC6       010VISTA          000000000000660000000006700000000066000000000000000000006700000094900
0202LOTE PADRAO                   ELETROBRAS  ON *       ELET3       010VISTA          000000000039700000000397000000003900000000000000000000393000020585900
0202LOTE PADRAO                   BRADESCO    PN * EJ    BBDC4       010VISTA          000000000012750000000133000000001240000000000000000000125000001630700
0202LOTE PADRAO                   CESP        PN *       CESP4       010VISTA          000000000023400000000235000000002300000000000000000000231000006053600
0202LOTE PADRAO                   LIGHT       ON *       LIGH3       010VISTA          000000000253000000002530000000024800000000000000000002530000000178000
0202LOTE PADRAO                   TELESP CL PAPN *       TSPP4       010VISTA          000000000020100000000203000000001950000000000000000000196000053581900
0202LOTE PADRAO                   VALE R DOCE PNA        VALE5       010VISTA          000000000050600000000507500000004920000000000000000000494000000027200
0202LOTE PADRAO                   COPEL       PNB*       CPLE6       010VISTA          000000000019000000000198000000001850000000000000000000186000015259900
0202LOTE PADRAO                   VALE R DOCE ON         VALE3       010VISTA          000000000049000000000490000000004850000000000000000000487000000000000
0202LOTE PADRAO                   ARACRUZ     PNB        ARCZ6       010VISTA          000000000002750000000027000000000273000000000000000000027500000045900
0202LOTE PADRAO                   TELEMIG PARTPN *       TMCP4       010VISTA          000000000006000000000061000000000590000000000000000000060000061008900
0202LOTE PADRAO                   BRASIL TELECPN *       BRTO4       010VISTA          000000000017100000000173000000001660000000000000000000169000031865500
0202LOTE PADRAO                   SABESP      ON *       SBSP3       010VISTA          000000000216000000002166000000021100000000000000000002140000002352900
0202LOTE PADRAO                   BRASKEM     PNA*       BRKM5       010VISTA          000000000662000000006949000000066200000000000000000006710000000150500
0202LOTE PADRAO                   EMBRAER     PN EJ      EMBR4       010VISTA          000000000020100000000201000000001930000000000000000000198000000013100
0202LOTE PADRAO                   TELESP      PN * EJ    TLPP4       010VISTA          000000000031000000000310000000002980000000000000000000308000005802500
0202LOTE PADRAO                   EMBRAER     ON EJ      EMBR3       010VISTA          000000000015500000000155000000001450000000000000000000153000000022100
0202LOTE PADRAO                   AMBEV       PN *       AMBV4       010VISTA          000000000530000000005390000000052100000000000000000005390000000695500
0202LOTE PADRAO                   USIMINAS    PNA        USIM5       010VISTA          000000000011100000000112000000001090000000000000000000110000000044100
0202LOTE PADRAO                   ELETROPAULO PN *       ELPL4       010VISTA          000000000112000000001120000000010900000000000000000001098000001965400
0202LOTE PADRAO                   TELE NORD CLPN *       TNEP4       010VISTA          000000000003800000000039000000000371000000000000000000038100053632700
0202LOTE PADRAO                   CEMIG       PN * EJ    CMIG4       010VISTA          000000000034000000000345000000003360000000000000000000342000016339800
0202LOTE PADRAO                   TELE CL SUL PN * EJ    TCSL4       010VISTA          000000000005000000000050000000000480000000000000000000049000033694200
0202LOTE PADRAO                   CEMIG       ON * EJ    CMIG3       010VISTA          000000000030600000000309000000002950000000000000000000306000004032000
0202LOTE PADRAO                   TELE CL SUL ON * EJ    TCSL3       010VISTA          000000000003940000000039400000000370000000000000000000039000009070900
0202LOTE PADRAO                   ITAUSA      PN         ITSA4       010VISTA          000000000001990000000020000000000198000000000000000000020000000239000
0202LOTE PADRAO                   SID TUBARAO PN *       CSTB4       010VISTA          000000000022800000000230000000002250000000000000000000226000007945800
0202LOTE PADRAO                   V C P       PN *       VCPA4       010VISTA          000000000058000000000600000000005800000000000000000000599000001572000
0202LOTE PADRAO                   BRADESPAR   PN *       BRAP4       010VISTA          000000000001100000000011000000000110000000000000000000011000107964000
0202LOTE PADRAO                   NET         PN         PLIM4       010VISTA          000000000002000000000020000000000194000000000000000000020000000709200
0202LOTE PADRAO                   TELE CTR OESPN * EJ    TCOC4       010VISTA          000000000007900000000080000000000760000000000000000000080000052146000
0202LOTE PADRAO                   BRASIL      ON *       BBAS3       010VISTA          000000000007500000000075000000000700000000000000000000071000004979400
