00BDIN9999BOVESPA 99992001120320011203
0101IBOVESPA                      0129140128700133360000000000000000002001120300000020011203013336000000
0202LOTE PADRAO                   EMBRATEL PARPN *       EBTP4       010VISTA          000000000010500000000112000000001040000000000000000000111000268363000
0202LOTE PADRAO                   EMBRATEL PARON *       EBTP3       010VISTA          000000000011500000000130000000001150000000000000000000130000037610800
0202LOTE PADRAO                   TRAN PAULISTPN * EJ    TRPL4       010VISTA          000000000005900000000065000000000590000000000000000000062000020413300
0202LOTE PADRAO                   TELEMAR     PN * EJ    TNLP4       010VISTA          000000000032800000000337000000003270000000000000000000333000222963000
0202LOTE PADRAO                   ITAUBANCO   PN * EJ    ITAU4       010VISTA          000000000174000000001800000000017400000000000000000001800000006878900
0202LOTE PADRAO                   TELEMAR     ON * EJ    TNLP3       010VISTA          000000000028600000000296000000002830000000000000000000296000016756700
0202LOTE PADRAO                   SID NACIONALON *       CSNA3       010VISTA          000000000035500000000370000000003520000000000000000000370000010446800
0202LOTE PADRAO                   TELE LEST CLPN *       TLCP4       010VISTA          000000000000880000000009100000000086000000000000000000008700365526000
0202LOTE PADRAO                   CRT CELULAR PNA* EJ    CRTP5       010VISTA          000000000487000000004900000000048000000000000000000004850000001763000
0202LOTE PADRAO                   IPIRANGA PETPN *       PTIP4       010VISTA          000000000013000000000134000000001275000000000000000000133000003979200
0202LOTE PADRAO                   BRASIL T PARPN *       BRTP4       010VISTA          000000000018300000000193000000001810000000000000000000193000105349000
0202LOTE PADRAO                   BRASIL T PARON *       BRTP3       010VISTA          000000000017800000000189000000001780000000000000000000188000016430800
0202LOTE PADRAO                   ACESITA     PN *       ACES4       010VISTA          000000000000670000000007100000000065000000000000000000006900187219000
0202LOTE PADRAO                   PETROBRAS   PN         PETR4       010VISTA          000000000048600000000511000000004860000000000000000000510000000130200
0202LOTE PADRAO                   ELETROBRAS  PNB*       ELET6       010VISTA          000000000031200000000321000000003100000000000000000000320000079336000
0202LOTE PADRAO                   PETROBRAS   ON         PETR3       010VISTA          000000000051000000000526000000005020000000000000000000526000000043400
0202LOTE PADRAO                   COMGAS      PNA*       CGAS5       010VISTA          000000000090000000000915000000009000000000000000000000915000000568000
0202LOTE PADRAO                   SOUZA CRUZ  ON EJ      CRUZ3       010VISTA          000000000012750000000134000000001275000000000000000000134000000015300
0202LOTE PADRAO                   ELETROBRAS  ON *       ELET3       010VISTA          000000000032200000000340000000003220000000000000000000340000016704400
0202LOTE PADRAO                   CELESC      PNB        CLSC6       010VISTA          000000000000480000000004900000000047000000000000000000004800000130800
0202LOTE PADRAO                   BRADESCO    PN * EJ    BBDC4       010VISTA          000000000011400000000116000000001120000000000000000000115000207366000
0202LOTE PADRAO                   CESP        PN *       CESP4       010VISTA          000000000014200000000154000000001420000000000000000000151000010670500
0202LOTE PADRAO                   LIGHT       ON *       LIGH3       010VISTA          000000000120000000001234000000012000000000000000000001210000000685200
0202LOTE PADRAO                   TELESP CL PAPN *       TSPP4       010VISTA          000000000007400000000077000000000740000000000000000000076000261590000
0202LOTE PADRAO                   VALE R DOCE PNA        VALE5       010VISTA          000000000054100000000543000000005270000000000000000000542000000023900
0202LOTE PADRAO                   COPEL       PNB*       CPLE6       010VISTA          000000000015500000000158000000001500000000000000000000155000034693900
0202LOTE PADRAO                   VALE R DOCE ON         VALE3       010VISTA          000000000049500000000502000000004940000000000000000000502000000000700
0202LOTE PADRAO                   ARACRUZ     PNB        ARCZ6       010VISTA          000000000004300000000047100000000425000000000000000000046000000046200
0202LOTE PADRAO                   TELEMIG PARTPN *       TMCP4       010VISTA          000000000004100000000044000000000410000000000000000000044000138340000
0202LOTE PADRAO                   BRASIL TELECPN *       BRTO4       010VISTA          000000000013200000000136000000001320000000000000000000136000131365000
0202LOTE PADRAO                   SABESP      ON *       SBSP3       010VISTA          000000000132500000001350000000013250000000000000000001345000000803700
0202LOTE PADRAO                   BRASKEM     PNA*       BRKM5       010VISTA          000000000405000000004300000000040500000000000000000004300000000094300
0202LOTE PADRAO                   EMBRAER     PN EJ      EMBR4       010VISTA          000000000011100000000120000000001110000000000000000000118000000069200
0202LOTE PADRAO                   TELESP      PN * EJ    TLPP4       010VISTA          000000000028500000000299000000002850000000000000000000295000012948300
0202LOTE PADRAO                   EMBRAER     ON EJ      EMBR3       010VISTA          000000000009900000000100000000000960000000000000000000099000000022200
0202LOTE PADRAO                   AMBEV       PN *       AMBV4       010VISTA          000000000485000000004899000000048000000000000000000004820000001705600
0202LOTE PADRAO                   USIMINAS    PNA        USIM5       010VISTA          000000000005700000000060000000000570000000000000000000059000000119500
0202LOTE PADRAO                   ELETROPAULO PN *       ELPL4       010VISTA          000000000076200000000800000000007620000000000000000000799000005140900
0202LOTE PADRAO                   TELE NORD CLPN *       TNEP4       010VISTA          000000000003000000000032000000000300000000000000000000032500165402000
0202LOTE PADRAO                   CEMIG       PN * EJ    CMIG4       010VISTA          000000000029900000000311000000002980000000000000000000301000065005000
0202LOTE PADRAO                   TELE CL SUL PN * EJ    TCSL4       010VISTA          000000000003400000000036000000000330000000000000000000036000091185700
0202LOTE PADRAO                   CEMIG       ON * EJ    CMIG3       010VISTA          000000000028900000000290000000002860000000000000000000288000000692000
0202LOTE PADRAO                   TELE CL SUL ON * EJ    TCSL3       010VISTA          000000000002700000000029000000000270000000000000000000029400044261000
0202LOTE PADRAO                   ITAUSA      PN         ITSA4       010VISTA          000000000002000000000021000000000200000000000000000000021000000293500
0202LOTE PADRAO                   V C P       PN *       VCPA4       010VISTA          000000000075000000000795000000007500000000000000000000790000003667300
0202LOTE PADRAO                   SID TUBARAO PN *       CSTB4       010VISTA          000000000019800000000215000000001970000000000000000000215000004725500
0202LOTE PADRAO                   BRADESPAR   PN *       BRAP4       010VISTA          000000000000750000000008100000000074000000000000000000008100396656000
0202LOTE PADRAO                   NET         PN         PLIM4       010VISTA          000000000000760000000008000000000075000000000000000000008000000916500
0202LOTE PADRAO                   TELE CTR OESPN * EJ    TCOC4       010VISTA          000000000005400000000057900000000540000000000000000000055000273015000
0202LOTE PADRAO                   TELEMAR N L PNA* EJ    TMAR5       010VISTA          000000000053400000000543000000005340000000000000000000539000016061300
0202LOTE PADRAO                   GERDAU      PN * EJ    GGBR4       010VISTA          000000000021800000000234000000002180000000000000000000234000020794000
0202LOTE PADRAO                   BRASIL      ON *       BBAS3       010VISTA          000000000009100000000097500000000910000000000000000000096000007082400
