00BDIN9999BOVESPA 99992001013020010130
0101IBOVESPA                      0178820176680178980000000000000000002001013000000020010130017723000000
0202LOTE PADRAO                   EMBRATEL PARPN *       EBTP4       010VISTA          000000000032700000000332000000003260000000000000000000330000069084000
0202LOTE PADRAO                   EMBRATEL PARON *       EBTP3       010VISTA          000000000026800000000270000000002650000000000000000000266000016654800
0202LOTE PADRAO                   TRAN PAULISTPN * EJ    TRPL4       010VISTA          000000000008300000000083000000000800000000000000000000081000774875000
0202LOTE PADRAO                   TELEMAR     PN * EJ    TNLP4       010VISTA          000000000048600000000493000000004820000000000000000000490000098856900
0202LOTE PADRAO                   ITAUBANCO   PN * EJ    ITAU4       010VISTA          000000000191000000001910000000018600000000000000000001860000012259400
0202LOTE PADRAO                   TELEMAR     ON * EJ    TNLP3       010VISTA          000000000039600000000397000000003910000000000000000000392000011826100
0202LOTE PADRAO                   SID NACIONALON *       CSNA3       010VISTA          000000000072000000000729000000007200000000000000000000729000009120000
0202LOTE PADRAO                   TELE LEST CLPN *       TLCP4       010VISTA          000000000001750000000017600000000160000000000000000000017300276783000
0202LOTE PADRAO                   CRT CELULAR PNA* EJ    CRTP5       010VISTA          000000000800000000008000000000075000000000000000000007749000000534100
0202LOTE PADRAO                   IPIRANGA PETPN *       PTIP4       010VISTA          000000000017500000000178000000001750000000000000000000175000001316100
0202LOTE PADRAO                   BRASIL T PARPN *       BRTP4       010VISTA          000000000026000000000260000000002530000000000000000000253000077784200
0202LOTE PADRAO                   BRASIL T PARON *       BRTP3       010VISTA          000000000022000000000220000000002150000000000000000000216000013368700
0202LOTE PADRAO                   ACESITA     PN *       ACES4       010VISTA          000000000001200000000012000000000110000000000000000000011000141968000
0202LOTE PADRAO                   PETROBRAS   PN         PETR4       010VISTA          000000000054300000000548000000005390000000000000000000544000000078400
0202LOTE PADRAO                   ELETROBRAS  PNB*       ELET6       010VISTA          000000000041300000000413000000004000000000000000000000400000038197700
0202LOTE PADRAO                   PETROBRAS   ON         PETR3       010VISTA          000000000054700000000553000000005460000000000000000000552000000019100
0202LOTE PADRAO                   COMGAS      PNA*       CGAS5       010VISTA          000000000148000000001490000000014550000000000000000001490000004039900
0202LOTE PADRAO                   SOUZA CRUZ  ON EJ      CRUZ3       010VISTA          000000000011250000000123000000001090000000000000000000119000000107400
0202LOTE PADRAO                   ELETROBRAS  ON *       ELET3       010VISTA          000000000043000000000432000000004170000000000000000000420000024777800
0202LOTE PADRAO                   CELESC      PNB        CLSC6       010VISTA          000000000000690000000007000000000068000000000000000000006900000073100
0202LOTE PADRAO                   BRADESCO    PN * EJ    BBDC4       010VISTA          000000000013300000000134000000001310000000000000000000131000002293500
0202LOTE PADRAO                   CESP        PN *       CESP4       010VISTA          000000000023600000000238000000002330000000000000000000235000011175200
0202LOTE PADRAO                   LIGHT       ON *       LIGH3       010VISTA          000000000254900000002611000000025490000000000000000002605000000227600
0202LOTE PADRAO                   TELESP CL PAPN *       TSPP4       010VISTA          000000000023000000000230000000002180000000000000000000218000124872000
0202LOTE PADRAO                   VALE R DOCE PNA        VALE5       010VISTA          000000000052500000000528000000005100000000000000000000516000000037700
0202LOTE PADRAO                   COPEL       PNB*       CPLE6       010VISTA          000000000020300000000203000000001950000000000000000000196000044294900
0202LOTE PADRAO                   VALE R DOCE ON         VALE3       010VISTA          000000000050500000000505000000004890000000000000000000500000000001300
0202LOTE PADRAO                   ARACRUZ     PNB        ARCZ6       010VISTA          000000000002900000000029400000000280000000000000000000028000000111800
0202LOTE PADRAO                   TELEMIG PARTPN *       TMCP4       010VISTA          000000000007000000000070000000000670000000000000000000067000087379800
0202LOTE PADRAO                   BRASIL TELECPN *       BRTO4       010VISTA          000000000019000000000190000000001880000000000000000000188000117435000
0202LOTE PADRAO                   SABESP      ON *       SBSP3       010VISTA          000000000220000000002200000000021000000000000000000002150000000852600
0202LOTE PADRAO                   BRASKEM     PNA*       BRKM5       010VISTA          000000000681000000006899000000067550000000000000000006760000000186000
0202LOTE PADRAO                   EMBRAER     PN EJ      EMBR4       010VISTA          000000000020300000000211000000002000000000000000000000203000000036100
0202LOTE PADRAO                   TELESP      PN * EJ    TLPP4       010VISTA          000000000032100000000321000000003110000000000000000000314000009544300
0202LOTE PADRAO                   EMBRAER     ON EJ      EMBR3       010VISTA          000000000016000000000165000000001580000000000000000000163000000080700
0202LOTE PADRAO                   AMBEV       PN *       AMBV4       010VISTA          000000000530000000005470000000052500000000000000000005470000002056300
0202LOTE PADRAO                   USIMINAS    PNA        USIM5       010VISTA          000000000011400000000114000000001130000000000000000000114000000034300
0202LOTE PADRAO                   ELETROPAULO PN *       ELPL4       010VISTA          000000000115000000001150000000011300000000000000000001150000004584700
0202LOTE PADRAO                   TELE NORD CLPN *       TNEP4       010VISTA          000000000004400000000044000000000420000000000000000000042000053406100
0202LOTE PADRAO                   CEMIG       PN * EJ    CMIG4       010VISTA          000000000036500000000365000000003520000000000000000000354000055638900
0202LOTE PADRAO                   TELE CL SUL PN * EJ    TCSL4       010VISTA          000000000005700000000059000000000560000000000000000000057000089135800
0202LOTE PADRAO                   CEMIG       ON * EJ    CMIG3       010VISTA          000000000031500000000318000000003080000000000000000000316000000780000
0202LOTE PADRAO                   TELE CL SUL ON * EJ    TCSL3       010VISTA          000000000004500000000045000000000440000000000000000000044000019281100
0202LOTE PADRAO                   ITAUSA      PN         ITSA4       010VISTA          000000000002000000000020000000000200000000000000000000020000000433900
0202LOTE PADRAO                   SID TUBARAO PN *       CSTB4       010VISTA          000000000023600000000239000000002360000000000000000000238000003102100
0202LOTE PADRAO                   V C P       PN *       VCPA4       010VISTA          000000000063500000000644000000006300000000000000000000639000005032200
0202LOTE PADRAO                   BRADESPAR   PN *       BRAP4       010VISTA          000000000001200000000012400000000120000000000000000000012000186177000
0202LOTE PADRAO                   NET         PN         PLIM4       010VISTA          000000000002250000000022000000000210000000000000000000022000000874200
0202LOTE PADRAO                   TELE CTR OESPN * EJ    TCOC4       010VISTA          000000000008500000000086000000000830000000000000000000084000075864600
0202LOTE PADRAO                   GERDAU      PN * EJ    GGBR4       010VISTA          000000000022800000000228000000002180000000000000000000220000027053800
0202LOTE PADRAO                   BRASIL      ON *       BBAS3       010VISTA          000000000008500000000085000000000810000000000000000000081000008378600
