00BDIN9999BOVESPA 99992001060620010606
0101IBOVESPA                      0153930152680155690000000000000000002001060600000020010606015329000000
0202LOTE PADRAO                   EMBRATEL PARPN *       EBTP4       010VISTA          000000000022100000000226000000002150000000000000000000216000107682000
0202LOTE PADRAO                   EMBRATEL PARON *       EBTP3       010VISTA          000000000020800000000216000000002070000000000000000000211000109592000
0202LOTE PADRAO                   TRAN PAULISTPN * EJ    TRPL4       010VISTA          000000000006500000000067500000000640000000000000000000064000017301000
0202LOTE PADRAO                   TELEMAR     PN * EJ    TNLP4       010VISTA          000000000038500000000392000000003830000000000000000000388000162486000
0202LOTE PADRAO                   ITAUBANCO   PN * EJ    ITAU4       010VISTA          000000000195000000002000000000019500000000000000000002000000006710200
0202LOTE PADRAO                   TELEMAR     ON * EJ    TNLP3       010VISTA          000000000033300000000338000000003300000000000000000000330000016008900
0202LOTE PADRAO                   SID NACIONALON *       CSNA3       010VISTA          000000000050200000000512500000005000000000000000000000512000003869900
0202LOTE PADRAO                   TELE LEST CLPN *       TLCP4       010VISTA          000000000002000000000020000000000195000000000000000000020000161248000
0202LOTE PADRAO                   IPIRANGA PETPN *       PTIP4       010VISTA          000000000016100000000164000000001590000000000000000000164000000890000
0202LOTE PADRAO                   BRASIL T PARPN *       BRTP4       010VISTA          000000000019800000000203000000001950000000000000000000203000103057000
0202LOTE PADRAO                   BRASIL T PARON *       BRTP3       010VISTA          000000000018700000000193000000001875000000000000000000192000006185000
0202LOTE PADRAO                   ACESITA     PN *       ACES4       010VISTA          000000000000700000000007300000000069000000000000000000007100297724000
0202LOTE PADRAO                   PETROBRAS   PN         PETR4       010VISTA          000000000061000000000617000000005870000000000000000000591000000118900
0202LOTE PADRAO                   ELETROBRAS  PNB*       ELET6       010VISTA          000000000030600000000308000000002980000000000000000000298000076584300
0202LOTE PADRAO                   PETROBRAS   ON         PETR3       010VISTA          000000000068000000000695000000006610000000000000000000661000000056200
0202LOTE PADRAO                   COMGAS      PNA*       CGAS5       010VISTA          000000000153200000001550000000014500000000000000000001465000006334100
0202LOTE PADRAO                   SOUZA CRUZ  ON EJ      CRUZ3       010VISTA          000000000011800000000119000000001150000000000000000000118000000010100
0202LOTE PADRAO                   CELESC      PNB        CLSC6       010VISTA          000000000000480000000004800000000047000000000000000000004800000410600
0202LOTE PADRAO                   ELETROBRAS  ON *       ELET3       010VISTA          000000000034300000000347000000003330000000000000000000336000016232000
0202LOTE PADRAO                   BRADESCO    PN * EJ    BBDC4       010VISTA          000000000012500000000125000000001230000000000000000000125000133905000
0202LOTE PADRAO                   CESP        PN *       CESP4       010VISTA          000000000015800000000164000000001550000000000000000000159000025326500
0202LOTE PADRAO                   LIGHT       ON *       LIGH3       010VISTA          000000000149000000001490000000014210000000000000000001425000000263100
0202LOTE PADRAO                   TELESP CL PAPN *       TSPP4       010VISTA          000000000016300000000163000000001600000000000000000000160000150751000
0202LOTE PADRAO                   VALE R DOCE PNA        VALE5       010VISTA          000000000056700000000567000000005620000000000000000000567000000021800
0202LOTE PADRAO                   COPEL       PNB*       CPLE6       010VISTA          000000000018000000000180000000001710000000000000000000172000036392600
0202LOTE PADRAO                   VALE R DOCE ON         VALE3       010VISTA          000000000052800000000530000000005250000000000000000000528000000003600
0202LOTE PADRAO                   ARACRUZ     PNB        ARCZ6       010VISTA          000000000004100000000042000000000400000000000000000000042000000041600
0202LOTE PADRAO                   TELEMIG PARTPN *       TMCP4       010VISTA          000000000005500000000055000000000540000000000000000000055000120381000
0202LOTE PADRAO                   BRASIL TELECPN *       BRTO4       010VISTA          000000000013400000000138000000001330000000000000000000137000076829500
0202LOTE PADRAO                   SABESP      ON *       SBSP3       010VISTA          000000000171500000001770000000017150000000000000000001719000002770400
0202LOTE PADRAO                   BRASKEM     PNA*       BRKM5       010VISTA          000000000509000000005090000000049500000000000000000004985000000398500
0202LOTE PADRAO                   EMBRAER     PN EJ      EMBR4       010VISTA          000000000024300000000243000000002350000000000000000000235000000010000
0202LOTE PADRAO                   TELESP      PN * EJ    TLPP4       010VISTA          000000000030400000000307000000002950000000000000000000296000009699500
0202LOTE PADRAO                   EMBRAER     ON EJ      EMBR3       010VISTA          000000000018800000000188000000001810000000000000000000183000000021500
0202LOTE PADRAO                   AMBEV       PN *       AMBV4       010VISTA          000000000536000000005360000000052000000000000000000005230000001161900
0202LOTE PADRAO                   USIMINAS    PNA        USIM5       010VISTA          000000000006700000000067000000000640000000000000000000065400000132600
0202LOTE PADRAO                   ELETROPAULO PN *       ELPL4       010VISTA          000000000065000000000652000000006370000000000000000000648000000675300
0202LOTE PADRAO                   TELE NORD CLPN *       TNEP4       010VISTA          000000000004300000000044000000000430000000000000000000043000239780000
0202LOTE PADRAO                   CEMIG       PN * EJ    CMIG4       010VISTA          000000000026000000000262500000002560000000000000000000261000058994900
0202LOTE PADRAO                   TELE CL SUL PN * EJ    TCSL4       010VISTA          000000000004900000000051000000000490000000000000000000050000159482000
0202LOTE PADRAO                   CEMIG       ON * EJ    CMIG3       010VISTA          000000000025500000000258000000002530000000000000000000253000004280000
0202LOTE PADRAO                   TELE CL SUL ON * EJ    TCSL3       010VISTA          000000000004100000000043000000000410000000000000000000042000051310000
0202LOTE PADRAO                   ITAUSA      PN         ITSA4       010VISTA          000000000002000000000020000000000200000000000000000000020000000261900
0202LOTE PADRAO                   SID TUBARAO PN *       CSTB4       010VISTA          000000000024300000000243000000002300000000000000000000234000006334400
0202LOTE PADRAO                   V C P       PN *       VCPA4       010VISTA          000000000067000000000695000000006700000000000000000000692000001931800
0202LOTE PADRAO                   BRADESPAR   PN *       BRAP4       010VISTA          000000000000870000000008800000000085000000000000000000008600164681000
0202LOTE PADRAO                   NET         PN         PLIM4       010VISTA          000000000000980000000010000000000091000000000000000000009200001516400
0202LOTE PADRAO                   TELE CTR OESPN * EJ    TCOC4       010VISTA          000000000007100000000072000000000700000000000000000000070000027432200
0202LOTE PADRAO                   GERDAU      PN * EJ    GGBR4       010VISTA          000000000016800000000172500000001660000000000000000000166000018017600
0202LOTE PADRAO                   BRASIL      ON *       BBAS3       010VISTA          000000000007900000000085000000000790000000000000000000083000013940400
