00BDIN9999BOVESPA 99992001080220010802
0101IBOVESPA                      0137460136900138460000000000000000002001080200000020010802013823000000
0202LOTE PADRAO                   EMBRATEL PARPN *       EBTP4       010VISTA          000000000013500000000137500000001330000000000000000000135000055965600
0202LOTE PADRAO                   EMBRATEL PARON *       EBTP3       010VISTA          000000000014100000000144000000001400000000000000000000143000029179500
0202LOTE PADRAO                   TRAN PAULISTPN * EJ    TRPL4       010VISTA          000000000006300000000063000000000600000000000000000000062000013380000
0202LOTE PADRAO                   TELEMAR     PN * EJ    TNLP4       010VISTA          000000000031300000000318000000003110000000000000000000315000132130000
0202LOTE PADRAO                   ITAUBANCO   PN * EJ    ITAU4       010VISTA          000000000191400000001915000000018400000000000000000001849000006545400
0202LOTE PADRAO                   TELEMAR     ON * EJ    TNLP3       010VISTA          000000000027500000000281000000002740000000000000000000281000025847900
0202LOTE PADRAO                   SID NACIONALON *       CSNA3       010VISTA          000000000038900000000398000000003870000000000000000000398000002978500
0202LOTE PADRAO                   TELE LEST CLPN *       TLCP4       010VISTA          000000000001600000000016000000000150000000000000000000016000053336900
0202LOTE PADRAO                   CRT CELULAR PNA* EJ    CRTP5       010VISTA          000000000930000000009490000000092990000000000000000009430000001513200
0202LOTE PADRAO                   IPIRANGA PETPN *       PTIP4       010VISTA          000000000016000000000163000000001580000000000000000000160000001727000
0202LOTE PADRAO                   BRASIL T PARPN *       BRTP4       010VISTA          000000000018200000000186000000001810000000000000000000186000037817500
0202LOTE PADRAO                   BRASIL T PARON *       BRTP3       010VISTA          000000000017300000000179000000001730000000000000000000179000005895000
0202LOTE PADRAO                   ACESITA     PN *       ACES4       010VISTA          000000000000590000000005900000000057000000000000000000005800089512000
0202LOTE PADRAO                   PETROBRAS   PN         PETR4       010VISTA          000000000053700000000537000000005130000000000000000000518000000075800
0202LOTE PADRAO                   ELETROBRAS  PNB*       ELET6       010VISTA          000000000031000000000314000000003060000000000000000000310000021420000
0202LOTE PADRAO                   PETROBRAS   ON         PETR3       010VISTA          000000000057200000000575000000005600000000000000000000562000000017100
0202LOTE PADRAO                   COMGAS      PNA*       CGAS5       010VISTA          000000000133400000001334000000013000000000000000000001300000000451900
0202LOTE PADRAO                   SOUZA CRUZ  ON EJ      CRUZ3       010VISTA          000000000010600000000106000000001050000000000000000000106000000020200
0202LOTE PADRAO                   ELETROBRAS  ON *       ELET3       010VISTA          000000000035700000000357000000003500000000000000000000355000012036300
0202LOTE PADRAO                   CELESC      PNB        CLSC6       010VISTA          000000000000440000000004400000000042000000000000000000004300000071100
0202LOTE PADRAO                   BRADESCO    PN * EJ    BBDC4       010VISTA          000000000011500000000116000000001150000000000000000000116000102194000
0202LOTE PADRAO                   CESP        PN *       CESP4       010VISTA          000000000013000000000130000000001250000000000000000000128000017824800
0202LOTE PADRAO                   LIGHT       ON *       LIGH3       010VISTA          000000000113900000001157000000011380000000000000000001157000000241300
0202LOTE PADRAO                   TELESP CL PAPN *       TSPP4       010VISTA          000000000014800000000150000000001450000000000000000000149000059740800
0202LOTE PADRAO                   VALE R DOCE PNA        VALE5       010VISTA          000000000052200000000522000000005110000000000000000000520000000017700
0202LOTE PADRAO                   COPEL       PNB*       CPLE6       010VISTA          000000000017600000000178000000001730000000000000000000176000041226000
0202LOTE PADRAO                   VALE R DOCE ON         VALE3       010VISTA          000000000052000000000522000000005150000000000000000000520000000003500
0202LOTE PADRAO                   ARACRUZ     PNB        ARCZ6       010VISTA          000000000004000000000040000000000394000000000000000000039400000016100
0202LOTE PADRAO                   TELEMIG PARTPN *       TMCP4       010VISTA          000000000004600000000046000000000440000000000000000000044000027651000
0202LOTE PADRAO                   BRASIL TELECPN *       BRTO4       010VISTA          000000000012300000000126000000001230000000000000000000126000032684100
0202LOTE PADRAO                   SABESP      ON *       SBSP3       010VISTA          000000000165000000001660000000016500000000000000000001655000000943000
0202LOTE PADRAO                   BRASKEM     PNA*       BRKM5       010VISTA          000000000535000000005350000000052400000000000000000005278000000326200
0202LOTE PADRAO                   EMBRAER     PN EJ      EMBR4       010VISTA          000000000022400000000225000000002210000000000000000000223000000008900
0202LOTE PADRAO                   TELESP      PN * EJ    TLPP4       010VISTA          000000000024900000000251000000002460000000000000000000251000008794100
0202LOTE PADRAO                   EMBRAER     ON EJ      EMBR3       010VISTA          000000000017400000000176000000001720000000000000000000175000000005900
0202LOTE PADRAO                   AMBEV       PN *       AMBV4       010VISTA          000000000505000000005100000000050500000000000000000005079000001188400
0202LOTE PADRAO                   USIMINAS    PNA        USIM5       010VISTA          000000000006300000000063000000000620000000000000000000062000000017100
0202LOTE PADRAO                   ELETROPAULO PN *       ELPL4       010VISTA          000000000060000000000640000000006000000000000000000000640000001699300
0202LOTE PADRAO                   TELE NORD CLPN *       TNEP4       010VISTA          000000000003300000000033000000000327000000000000000000032000088599000
0202LOTE PADRAO                   CEMIG       PN * EJ    CMIG4       010VISTA          000000000026100000000266000000002580000000000000000000266000014268300
0202LOTE PADRAO                   TELE CL SUL PN * EJ    TCSL4       010VISTA          000000000004250000000042000000000400000000000000000000040000059174800
0202LOTE PADRAO                   CEMIG       ON * EJ    CMIG3       010VISTA          000000000025800000000265000000002560000000000000000000264000002417800
0202LOTE PADRAO                   TELE CL SUL ON * EJ    TCSL3       010VISTA          000000000003300000000035200000000330000000000000000000034000026981400
0202LOTE PADRAO                   ITAUSA      PN         ITSA4       010VISTA          000000000002000000000020000000000199000000000000000000020000000121200
0202LOTE PADRAO                   SID TUBARAO PN *       CSTB4       010VISTA          000000000019800000000202000000001900000000000000000000202000007170200
0202LOTE PADRAO                   V C P       PN *       VCPA4       010VISTA          000000000060000000000627000000006000000000000000000000625000001547800
0202LOTE PADRAO                   BRADESPAR   PN *       BRAP4       010VISTA          000000000000800000000008000000000078000000000000000000007900162517000
0202LOTE PADRAO                   NET         PN         PLIM4       010VISTA          000000000001000000000010000000000100000000000000000000010000001307100
0202LOTE PADRAO                   TELE CTR OESPN * EJ    TCOC4       010VISTA          000000000006000000000060000000000590000000000000000000059000022077100
0202LOTE PADRAO                   GERDAU      PN * EJ    GGBR4       010VISTA          000000000016800000000173000000001680000000000000000000173000017154600
0202LOTE PADRAO                   BRASIL      ON *       BBAS3       010VISTA          000000000008800000000091000000000880000000000000000000090000007965300
