00BDIN9999BOVESPA 99992001031520010315
0101IBOVESPA                      0152520149770154820000000000000000002001031500000020010315015061000000
0202LOTE PADRAO                   EMBRATEL PARPN *       EBTP4       010VISTA          000000000025300000000256000000002500000000000000000000253000086956600
0202LOTE PADRAO                   EMBRATEL PARON *       EBTP3       010VISTA          000000000020000000000204000000001960000000000000000000198000019516500
0202LOTE PADRAO                   TRAN PAULISTPN * EJ    TRPL4       010VISTA          000000000008400000000085000000000810000000000000000000081000007613000
0202LOTE PADRAO                   TELEMAR     PN * EJ    TNLP4       010VISTA          000000000039800000000403000000003880000000000000000000391000208806000
0202LOTE PADRAO                   ITAUBANCO   PN * EJ    ITAU4       010VISTA          000000000167000000001680000000016090000000000000000001609000015400200
0202LOTE PADRAO                   TELEMAR     ON * EJ    TNLP3       010VISTA          000000000030300000000305000000002900000000000000000000291000020718800
0202LOTE PADRAO                   SID NACIONALON *       CSNA3       010VISTA          000000000047500000000480000000004720000000000000000000477000010992700
0202LOTE PADRAO                   TELE LEST CLPN *       TLCP4       010VISTA          000000000001770000000018000000000160000000000000000000017400104492000
0202LOTE PADRAO                   CRT CELULAR PNA* EJ    CRTP5       010VISTA          000000000940000000009400000000090000000000000000000009050000001021600
0202LOTE PADRAO                   IPIRANGA PETPN *       PTIP4       010VISTA          000000000014300000000148000000001430000000000000000000146000001953600
0202LOTE PADRAO                   BRASIL T PARPN *       BRTP4       010VISTA          000000000020100000000205000000001900000000000000000000191000106778000
0202LOTE PADRAO                   BRASIL T PARON *       BRTP3       010VISTA          000000000016900000000173000000001600000000000000000000161000010641800
0202LOTE PADRAO                   ACESITA     PN *       ACES4       010VISTA          000000000001000000000010000000000100000000000000000000010000134570000
0202LOTE PADRAO                   PETROBRAS   PN         PETR4       010VISTA          000000000054400000000545000000004970000000000000000000503000000320300
0202LOTE PADRAO                   ELETROBRAS  PNB*       ELET6       010VISTA          000000000037500000000388000000003750000000000000000000380000060929300
0202LOTE PADRAO                   PETROBRAS   ON         PETR3       010VISTA          000000000057000000000570000000005320000000000000000000536000000072500
0202LOTE PADRAO                   COMGAS      PNA*       CGAS5       010VISTA          000000000152500000001579000000015210000000000000000001558000002131800
0202LOTE PADRAO                   SOUZA CRUZ  ON EJ      CRUZ3       010VISTA          000000000010100000000103000000000990000000000000000000100000000024200
0202LOTE PADRAO                   ELETROBRAS  ON *       ELET3       010VISTA          000000000042500000000425000000004050000000000000000000415000019370500
0202LOTE PADRAO                   CELESC      PNB        CLSC6       010VISTA          000000000000600000000006100000000057000000000000000000005700000621800
0202LOTE PADRAO                   BRADESCO    PN * EJ    BBDC4       010VISTA          000000000011500000000117500000001125000000000000000000115000158319000
0202LOTE PADRAO                   CESP        PN *       CESP4       010VISTA          000000000024100000000249000000002350000000000000000000239000007943700
0202LOTE PADRAO                   LIGHT       ON *       LIGH3       010VISTA          000000000208000000002100000000020000000000000000000002025000000446100
0202LOTE PADRAO                   TELESP CL PAPN *       TSPP4       010VISTA          000000000015500000000156000000001510000000000000000000154000170848000
0202LOTE PADRAO                   VALE R DOCE PNA        VALE5       010VISTA          000000000051000000000524000000004980000000000000000000502000000073000
0202LOTE PADRAO                   COPEL       PNB*       CPLE6       010VISTA          000000000018300000000188000000001830000000000000000000188000058246500
0202LOTE PADRAO                   VALE R DOCE ON         VALE3       010VISTA          000000000049000000000490000000004800000000000000000000480000000009800
0202LOTE PADRAO                   ARACRUZ     PNB        ARCZ6       010VISTA          000000000002800000000028000000000280000000000000000000028000000045700
0202LOTE PADRAO                   TELEMIG PARTPN *       TMCP4       010VISTA          000000000005400000000055000000000520000000000000000000054000056634600
0202LOTE PADRAO                   BRASIL TELECPN *       BRTO4       010VISTA          000000000013900000000140000000001290000000000000000000132000073182200
0202LOTE PADRAO                   SABESP      ON *       SBSP3       010VISTA          000000000208900000002090000000019550000000000000000001955000001465400
0202LOTE PADRAO                   BRASKEM     PNA*       BRKM5       010VISTA          000000000660000000006610000000062500000000000000000006250000000099800
0202LOTE PADRAO                   EMBRAER     PN EJ      EMBR4       010VISTA          000000000020100000000206000000001980000000000000000000205000000022400
0202LOTE PADRAO                   TELESP      PN * EJ    TLPP4       010VISTA          000000000029500000000298000000002900000000000000000000295000008744000
0202LOTE PADRAO                   EMBRAER     ON EJ      EMBR3       010VISTA          000000000015500000000159000000001550000000000000000000158000000035600
0202LOTE PADRAO                   AMBEV       PN *       AMBV4       010VISTA          000000000511000000005250000000051100000000000000000005140000001827400
0202LOTE PADRAO                   USIMINAS    PNA        USIM5       010VISTA          000000000010300000000105000000001030000000000000000000103000000133000
0202LOTE PADRAO                   ELETROPAULO PN *       ELPL4       010VISTA          000000000095100000001000000000009510000000000000000000990000001589800
0202LOTE PADRAO                   TELE NORD CLPN *       TNEP4       010VISTA          000000000003300000000033000000000310000000000000000000031000061319000
0202LOTE PADRAO                   CEMIG       PN * EJ    CMIG4       010VISTA          000000000030500000000305000000002880000000000000000000288000037132200
0202LOTE PADRAO                   TELE CL SUL PN * EJ    TCSL4       010VISTA          000000000004000000000040000000000380000000000000000000038000113105000
0202LOTE PADRAO                   CEMIG       ON * EJ    CMIG3       010VISTA          000000000024000000000248000000002380000000000000000000248000004385000
0202LOTE PADRAO                   TELE CL SUL ON * EJ    TCSL3       010VISTA          000000000003300000000033000000000310000000000000000000031000010613900
0202LOTE PADRAO                   ITAUSA      PN         ITSA4       010VISTA          000000000001800000000018000000000172000000000000000000017400000552100
0202LOTE PADRAO                   SID TUBARAO PN *       CSTB4       010VISTA          000000000021000000000211000000002025000000000000000000208000002745000
0202LOTE PADRAO                   V C P       PN *       VCPA4       010VISTA          000000000053000000000540000000005200000000000000000000534000002313500
0202LOTE PADRAO                   BRADESPAR   PN *       BRAP4       010VISTA          000000000001000000000010000000000099000000000000000000009900314590000
0202LOTE PADRAO                   NET         PN         PLIM4       010VISTA          000000000001550000000015000000000149000000000000000000015100000867700
0202LOTE PADRAO                   TELE CTR OESPN * EJ    TCOC4       010VISTA          000000000006700000000070000000000675000000000000000000067000045213100
0202LOTE PADRAO                   GERDAU      PN * EJ    GGBR4       010VISTA          000000000019500000000195000000001840000000000000000000188000005461200
0202LOTE PADRAO                   BRASIL      ON *       BBAS3       010VISTA          000000000007500000000078000000000720000000000000000000074000003360200
