00BDIN9999BOVESPA 99992001020720010207
0101IBOVESPA                      0170030166300170030000000000000000002001020700000020010207016812000000
0202LOTE PADRAO                   EMBRATEL PARPN *       EBTP4       010VISTA          000000000028800000000290000000002810000000000000000000284000050523600
0202LOTE PADRAO                   EMBRATEL PARON *       EBTP3       010VISTA          000000000023500000000236000000002300000000000000000000233000017817500
0202LOTE PADRAO                   TRAN PAULISTPN * EJ    TRPL4       010VISTA          000000000008500000000089000000000850000000000000000000089000037922700
0202LOTE PADRAO                   TELEMAR     PN * EJ    TNLP4       010VISTA          000000000046000000000464000000004520000000000000000000464000133101000
0202LOTE PADRAO                   ITAUBANCO   PN * EJ    ITAU4       010VISTA          000000000180900000001809000000017700000000000000000001780000005092100
0202LOTE PADRAO                   TELEMAR     ON * EJ    TNLP3       010VISTA          000000000037000000000372000000003600000000000000000000367000010331000
0202LOTE PADRAO                   SID NACIONALON *       CSNA3       010VISTA          000000000067700000000680000000006650000000000000000000677000007360600
0202LOTE PADRAO                   TELE LEST CLPN *       TLCP4       010VISTA          000000000001540000000015400000000148000000000000000000015100100900000
0202LOTE PADRAO                   IPIRANGA PETPN *       PTIP4       010VISTA          000000000017100000000171000000001620000000000000000000165000003321400
0202LOTE PADRAO                   BRASIL T PARPN *       BRTP4       010VISTA          000000000024000000000243000000002350000000000000000000239000051770900
0202LOTE PADRAO                   BRASIL T PARON *       BRTP3       010VISTA          000000000020000000000208000000002000000000000000000000204000009065100
0202LOTE PADRAO                   ACESITA     PN *       ACES4       010VISTA          000000000001100000000011000000000110000000000000000000011000175994000
0202LOTE PADRAO                   PETROBRAS   PN         PETR4       010VISTA          000000000054100000000545000000005300000000000000000000541000000091200
0202LOTE PADRAO                   ELETROBRAS  PNB*       ELET6       010VISTA          000000000037500000000381000000003700000000000000000000381000016518900
0202LOTE PADRAO                   PETROBRAS   ON         PETR3       010VISTA          000000000054500000000552000000005410000000000000000000552000000039900
0202LOTE PADRAO                   COMGAS      PNA*       CGAS5       010VISTA          000000000155000000001550000000014700000000000000000001519000012103300
0202LOTE PADRAO                   SOUZA CRUZ  ON EJ      CRUZ3       010VISTA          000000000011900000000119000000001150000000000000000000115000000029900
0202LOTE PADRAO                   CELESC      PNB        CLSC6       010VISTA          000000000000660000000006700000000066000000000000000000006600000147700
0202LOTE PADRAO                   ELETROBRAS  ON *       ELET3       010VISTA          000000000039200000000402000000003920000000000000000000401000013437900
0202LOTE PADRAO                   BRADESCO    PN * EJ    BBDC4       010VISTA          000000000012500000000128000000001230000000000000000000128000001443000
0202LOTE PADRAO                   CESP        PN *       CESP4       010VISTA          000000000024000000000249000000002400000000000000000000243000018393400
0202LOTE PADRAO                   LIGHT       ON *       LIGH3       010VISTA          000000000248000000002500000000024800000000000000000002490000000134700
0202LOTE PADRAO                   TELESP CL PAPN *       TSPP4       010VISTA          000000000019500000000199000000001950000000000000000000197000068048100
0202LOTE PADRAO                   VALE R DOCE PNA        VALE5       010VISTA          000000000049500000000500000000004920000000000000000000495000000016100
0202LOTE PADRAO                   COPEL       PNB*       CPLE6       010VISTA          000000000018900000000189000000001840000000000000000000185000029811100
0202LOTE PADRAO                   VALE R DOCE ON         VALE3       010VISTA          000000000048500000000485000000004800000000000000000000480000000000000
0202LOTE PADRAO                   ARACRUZ     PNB        ARCZ6       010VISTA          000000000002800000000029000000000277000000000000000000028100000128200
0202LOTE PADRAO                   TELEMIG PARTPN *       TMCP4       010VISTA          000000000006300000000064000000000620000000000000000000063000037407600
0202LOTE PADRAO                   BRASIL TELECPN *       BRTO4       010VISTA          000000000016900000000169000000001660000000000000000000169000021387900
0202LOTE PADRAO                   SABESP      ON *       SBSP3       010VISTA          000000000215000000002170000000021000000000000000000002135000001579300
0202LOTE PADRAO                   BRASKEM     PNA*       BRKM5       010VISTA          000000000677000000006770000000065500000000000000000006597500000061100
0202LOTE PADRAO                   EMBRAER     PN EJ      EMBR4       010VISTA          000000000019600000000201000000001960000000000000000000198000000006300
0202LOTE PADRAO                   TELESP      PN * EJ    TLPP4       010VISTA          000000000031800000000318000000003060000000000000000000313000010948200
0202LOTE PADRAO                   EMBRAER     ON EJ      EMBR3       010VISTA          000000000015300000000153000000001500000000000000000000153000000010400
0202LOTE PADRAO                   AMBEV       PN *       AMBV4       010VISTA          000000000542000000005420000000052500000000000000000005400000002435600
0202LOTE PADRAO                   USIMINAS    PNA        USIM5       010VISTA          000000000011400000000114000000001110000000000000000000113000000034700
0202LOTE PADRAO                   ELETROPAULO PN *       ELPL4       010VISTA          000000000105000000001090000000010500000000000000000001080000000695600
0202LOTE PADRAO                   TELE NORD CLPN *       TNEP4       010VISTA          000000000004000000000041000000000390000000000000000000040000111298000
0202LOTE PADRAO                   CEMIG       PN * EJ    CMIG4       010VISTA          000000000033700000000340000000003350000000000000000000340000021511700
0202LOTE PADRAO                   TELE CL SUL PN * EJ    TCSL4       010VISTA          000000000005100000000051000000000490000000000000000000050000042178800
0202LOTE PADRAO                   CEMIG       ON * EJ    CMIG3       010VISTA          000000000030000000000303000000002910000000000000000000303000000648900
0202LOTE PADRAO                   TELE CL SUL ON * EJ    TCSL3       010VISTA          000000000004000000000041000000000400000000000000000000040000010827300
0202LOTE PADRAO                   ITAUSA      PN         ITSA4       010VISTA          000000000002000000000020000000000196000000000000000000020000000331100
0202LOTE PADRAO                   SID TUBARAO PN *       CSTB4       010VISTA          000000000023000000000230000000002250000000000000000000225000001661300
0202LOTE PADRAO                   V C P       PN *       VCPA4       010VISTA          000000000059500000000605000000005940000000000000000000597000002316300
0202LOTE PADRAO                   BRADESPAR   PN *       BRAP4       010VISTA          000000000001100000000011000000000110000000000000000000011000416822000
0202LOTE PADRAO                   NET         PN         PLIM4       010VISTA          000000000002000000000020000000000194000000000000000000019500000642300
0202LOTE PADRAO                   TELE CTR OESPN * EJ    TCOC4       010VISTA          000000000008200000000083000000000800000000000000000000083000022962100
0202LOTE PADRAO                   GERDAU      PN * EJ    GGBR4       010VISTA          000000000020100000000201000000001960000000000000000000198000016364100
0202LOTE PADRAO                   BRASIL      ON *       BBAS3       010VISTA          000000000007200000000077000000000710000000000000000000077000006360300
