00BDIN9999BOVESPA 99992001040620010406
0101IBOVESPA                      0144280143710147020000000000000000002001040600000020010406014485000000
0202LOTE PADRAO                   EMBRATEL PARPN *       EBTP4       010VISTA          000000000020300000000215000000002000000000000000000000211000120673000
0202LOTE PADRAO                   EMBRATEL PARON *       EBTP3       010VISTA          000000000019500000000216000000001950000000000000000000211000083859300
0202LOTE PADRAO                   TRAN PAULISTPN * EJ    TRPL4       010VISTA          000000000007000000000070000000000660000000000000000000066000018075900
0202LOTE PADRAO                   TELEMAR     PN * EJ    TNLP4       010VISTA          000000000035800000000366000000003460000000000000000000351000204181000
0202LOTE PADRAO                   ITAUBANCO   PN * EJ    ITAU4       010VISTA          000000000171500000001730000000016550000000000000000001655000007789400
0202LOTE PADRAO                   TELEMAR     ON * EJ    TNLP3       010VISTA          000000000030600000000316000000003030000000000000000000314000024946200
0202LOTE PADRAO                   SID NACIONALON *       CSNA3       010VISTA          000000000044750000000467500000004475000000000000000000465000009361100
0202LOTE PADRAO                   TELE LEST CLPN *       TLCP4       010VISTA          000000000001500000000015600000000150000000000000000000015500173411000
0202LOTE PADRAO                   IPIRANGA PETPN *       PTIP4       010VISTA          000000000016400000000166000000001630000000000000000000164000012231500
0202LOTE PADRAO                   BRASIL T PARPN *       BRTP4       010VISTA          000000000017900000000181000000001730000000000000000000179000068615600
0202LOTE PADRAO                   BRASIL T PARON *       BRTP3       010VISTA          000000000018300000000188000000001800000000000000000000181000014056900
0202LOTE PADRAO                   ACESITA     PN *       ACES4       010VISTA          000000000000980000000010000000000097000000000000000000009900115510000
0202LOTE PADRAO                   PETROBRAS   PN         PETR4       010VISTA          000000000048700000000507000000004870000000000000000000507000000089100
0202LOTE PADRAO                   ELETROBRAS  PNB*       ELET6       010VISTA          000000000038800000000392000000003620000000000000000000367000053579400
0202LOTE PADRAO                   PETROBRAS   ON         PETR3       010VISTA          000000000053700000000555000000005370000000000000000000552000000036700
0202LOTE PADRAO                   COMGAS      PNA*       CGAS5       010VISTA          000000000135500000001360000000012220000000000000000001349000017349500
0202LOTE PADRAO                   SOUZA CRUZ  ON EJ      CRUZ3       010VISTA          000000000010700000000111000000001070000000000000000000109000000024800
0202LOTE PADRAO                   CELESC      PNB        CLSC6       010VISTA          000000000000570000000005900000000057000000000000000000005900000181500
0202LOTE PADRAO                   ELETROBRAS  ON *       ELET3       010VISTA          000000000040100000000405000000003800000000000000000000382000019476700
0202LOTE PADRAO                   BRADESCO    PN * EJ    BBDC4       010VISTA          000000000011100000000114000000001100000000000000000000114000276539000
0202LOTE PADRAO                   CESP        PN *       CESP4       010VISTA          000000000020500000000205000000001890000000000000000000195000030180800
0202LOTE PADRAO                   LIGHT       ON *       LIGH3       010VISTA          000000000180000000001860000000018000000000000000000001845000000541900
0202LOTE PADRAO                   TELESP CL PAPN *       TSPP4       010VISTA          000000000013900000000141000000001340000000000000000000140000149278000
0202LOTE PADRAO                   VALE R DOCE PNA        VALE5       010VISTA          000000000051500000000522000000005100000000000000000000515000000032300
0202LOTE PADRAO                   COPEL       PNB*       CPLE6       010VISTA          000000000017800000000180000000001760000000000000000000178000014020400
0202LOTE PADRAO                   VALE R DOCE ON         VALE3       010VISTA          000000000048400000000485000000004800000000000000000000480000000001900
0202LOTE PADRAO                   ARACRUZ     PNB        ARCZ6       010VISTA          000000000002940000000029000000000270000000000000000000027000000040600
0202LOTE PADRAO                   TELEMIG PARTPN *       TMCP4       010VISTA          000000000004100000000042000000000380000000000000000000039600116969000
0202LOTE PADRAO                   BRASIL TELECPN *       BRTO4       010VISTA          000000000012000000000126000000001200000000000000000000124000056413300
0202LOTE PADRAO                   SABESP      ON *       SBSP3       010VISTA          000000000178000000001840000000017800000000000000000001815000001873900
0202LOTE PADRAO                   BRASKEM     PNA*       BRKM5       010VISTA          000000000600000000006199000000060000000000000000000006020000000661400
0202LOTE PADRAO                   EMBRAER     PN EJ      EMBR4       010VISTA          000000000020000000000200000000001930000000000000000000198000000014700
0202LOTE PADRAO                   TELESP      PN * EJ    TLPP4       010VISTA          000000000029100000000295000000002830000000000000000000293000007818100
0202LOTE PADRAO                   EMBRAER     ON EJ      EMBR3       010VISTA          000000000016100000000161000000001580000000000000000000160000000018100
0202LOTE PADRAO                   AMBEV       PN *       AMBV4       010VISTA          000000000509000000005090000000048600000000000000000004860000001444100
0202LOTE PADRAO                   USIMINAS    PNA        USIM5       010VISTA          000000000009000000000094000000000900000000000000000000093000000044300
0202LOTE PADRAO                   ELETROPAULO PN *       ELPL4       010VISTA          000000000080900000000830000000008090000000000000000000830000002767800
0202LOTE PADRAO                   TELE NORD CLPN *       TNEP4       010VISTA          000000000002900000000029000000000280000000000000000000028000078138900
0202LOTE PADRAO                   CEMIG       PN * EJ    CMIG4       010VISTA          000000000027500000000278000000002650000000000000000000273000034784500
0202LOTE PADRAO                   TELE CL SUL PN * EJ    TCSL4       010VISTA          000000000004000000000043000000000400000000000000000000042000152269000
0202LOTE PADRAO                   CEMIG       ON * EJ    CMIG3       010VISTA          000000000026600000000268000000002650000000000000000000267500004550700
0202LOTE PADRAO                   TELE CL SUL ON * EJ    TCSL3       010VISTA          000000000003300000000035000000000325000000000000000000033000032637900
0202LOTE PADRAO                   ITAUSA      PN         ITSA4       010VISTA          000000000001790000000018000000000178000000000000000000017800000481800
0202LOTE PADRAO                   SID TUBARAO PN *       CSTB4       010VISTA          000000000021500000000220000000002130000000000000000000216000007572000
0202LOTE PADRAO                   V C P       PN *       VCPA4       010VISTA          000000000054000000000540000000005290000000000000000000535000002614800
0202LOTE PADRAO                   BRADESPAR   PN *       BRAP4       010VISTA          000000000001000000000010000000000100000000000000000000010000236490000
0202LOTE PADRAO                   NET         PN         PLIM4       010VISTA          000000000001240000000012000000000110000000000000000000011000001143000
0202LOTE PADRAO                   TELE CTR OESPN * EJ    TCOC4       010VISTA          000000000005900000000060000000000560000000000000000000057000047347900
0202LOTE PADRAO                   GERDAU      PN * EJ    GGBR4       010VISTA          000000000018800000000193000000001850000000000000000000191000006850100
0202LOTE PADRAO                   BRASIL      ON *       BBAS3       010VISTA          000000000007400000000079000000000740000000000000000000079000005035600
