00BDIN9999BOVESPA 99992001081720010817
0101IBOVESPA                      0135070130100135070000000000000000002001081700000020010817013044000000
0202LOTE PADRAO                   EMBRATEL PARPN *       EBTP4       010VISTA          000000000011200000000115000000001100000000000000000000111000109711000
0202LOTE PADRAO                   EMBRATEL PARON *       EBTP3       010VISTA          000000000012000000000123000000001190000000000000000000120000033778800
0202LOTE PADRAO                   TRAN PAULISTPN * EJ    TRPL4       010VISTA          000000000006500000000069000000000630000000000000000000067500027713700
0202LOTE PADRAO                   TELEMAR     PN * EJ    TNLP4       010VISTA          000000000030000000000303000000002950000000000000000000297500277435000
0202LOTE PADRAO                   ITAUBANCO   PN * EJ    ITAU4       010VISTA          000000000188500000001885000000018160000000000000000001820000005863500
0202LOTE PADRAO                   TELEMAR     ON * EJ    TNLP3       010VISTA          000000000027500000000280000000002710000000000000000000277000018269000
0202LOTE PADRAO                   SID NACIONALON *       CSNA3       010VISTA          000000000036600000000370000000003650000000000000000000366000006492500
0202LOTE PADRAO                   TELE LEST CLPN *       TLCP4       010VISTA          000000000001500000000015000000000130000000000000000000013000122874000
0202LOTE PADRAO                   CRT CELULAR PNA* EJ    CRTP5       010VISTA          000000000920000000009500000000090000000000000000000009101000000814600
0202LOTE PADRAO                   IPIRANGA PETPN *       PTIP4       010VISTA          000000000015500000000155000000001500000000000000000000154000001360400
0202LOTE PADRAO                   BRASIL T PARPN *       BRTP4       010VISTA          000000000016500000000165000000001590000000000000000000160000071418500
0202LOTE PADRAO                   BRASIL T PARON *       BRTP3       010VISTA          000000000015500000000160000000001500000000000000000000152500026107200
0202LOTE PADRAO                   ACESITA     PN *       ACES4       010VISTA          000000000000580000000005900000000055000000000000000000005600087912200
0202LOTE PADRAO                   PETROBRAS   PN         PETR4       010VISTA          000000000053900000000543000000005220000000000000000000526000000113500
0202LOTE PADRAO                   ELETROBRAS  PNB*       ELET6       010VISTA          000000000031800000000320000000003130000000000000000000316000036438400
0202LOTE PADRAO                   PETROBRAS   ON         PETR3       010VISTA          000000000056900000000569000000005380000000000000000000538000000088500
0202LOTE PADRAO                   COMGAS      PNA*       CGAS5       010VISTA          000000000137000000001375000000013000000000000000000001330000011629000
0202LOTE PADRAO                   SOUZA CRUZ  ON EJ      CRUZ3       010VISTA          000000000011300000000113000000001050000000000000000000105000000040100
0202LOTE PADRAO                   ELETROBRAS  ON *       ELET3       010VISTA          000000000036200000000365000000003550000000000000000000360000018691200
0202LOTE PADRAO                   CELESC      PNB        CLSC6       010VISTA          000000000000440000000004500000000042000000000000000000004200000109400
0202LOTE PADRAO                   BRADESCO    PN * EJ    BBDC4       010VISTA          000000000011500000000116000000001130000000000000000000114000129186000
0202LOTE PADRAO                   CESP        PN *       CESP4       010VISTA          000000000013000000000131000000001275000000000000000000130000006721300
0202LOTE PADRAO                   LIGHT       ON *       LIGH3       010VISTA          000000000123200000001250000000012150000000000000000001215000000464300
0202LOTE PADRAO                   TELESP CL PAPN *       TSPP4       010VISTA          000000000014200000000145000000001380000000000000000000140000088795600
0202LOTE PADRAO                   VALE R DOCE PNA        VALE5       010VISTA          000000000051500000000522000000005100000000000000000000513000000031600
0202LOTE PADRAO                   COPEL       PNB*       CPLE6       010VISTA          000000000017200000000175000000001710000000000000000000174000008904700
0202LOTE PADRAO                   VALE R DOCE ON         VALE3       010VISTA          000000000051900000000520000000005180000000000000000000520000000001600
0202LOTE PADRAO                   ARACRUZ     PNB        ARCZ6       010VISTA          000000000004000000000042000000000400000000000000000000041000000028100
0202LOTE PADRAO                   TELEMIG PARTPN *       TMCP4       010VISTA          000000000004000000000040000000000390000000000000000000039000050764100
0202LOTE PADRAO                   BRASIL TELECPN *       BRTO4       010VISTA          000000000011100000000111000000001080000000000000000000108000090745500
0202LOTE PADRAO                   SABESP      ON *       SBSP3       010VISTA          000000000168000000001710000000016700000000000000000001670000001054600
0202LOTE PADRAO                   BRASKEM     PNA*       BRKM5       010VISTA          000000000490000000005000000000047000000000000000000004720000000440900
0202LOTE PADRAO                   EMBRAER     PN EJ      EMBR4       010VISTA          000000000019100000000191000000001810000000000000000000182500000078400
0202LOTE PADRAO                   TELESP      PN * EJ    TLPP4       010VISTA          000000000025800000000258000000002530000000000000000000256000008385200
0202LOTE PADRAO                   EMBRAER     ON EJ      EMBR3       010VISTA          000000000015900000000159000000001490000000000000000000150000000030600
0202LOTE PADRAO                   AMBEV       PN *       AMBV4       010VISTA          000000000491000000005060000000049100000000000000000004980000001809900
0202LOTE PADRAO                   USIMINAS    PNA        USIM5       010VISTA          000000000006100000000062000000000590000000000000000000059000000050900
0202LOTE PADRAO                   ELETROPAULO PN *       ELPL4       010VISTA          000000000068000000000719000000006500000000000000000000670000008207000
0202LOTE PADRAO                   TELE NORD CLPN *       TNEP4       010VISTA          000000000003100000000031000000000290000000000000000000029600082767500
0202LOTE PADRAO                   CEMIG       PN * EJ    CMIG4       010VISTA          000000000028000000000280000000002700000000000000000000273000014511000
0202LOTE PADRAO                   TELE CL SUL PN * EJ    TCSL4       010VISTA          000000000003700000000038000000000360000000000000000000036000072655500
0202LOTE PADRAO                   CEMIG       ON * EJ    CMIG3       010VISTA          000000000027300000000284000000002650000000000000000000273000000593500
0202LOTE PADRAO                   TELE CL SUL ON * EJ    TCSL3       010VISTA          000000000003000000000031000000000290000000000000000000029000047836200
0202LOTE PADRAO                   ITAUSA      PN         ITSA4       010VISTA          000000000002000000000020000000000199000000000000000000019900000353700
0202LOTE PADRAO                   SID TUBARAO PN *       CSTB4       010VISTA          000000000021300000000213000000002100000000000000000000211000008537600
0202LOTE PADRAO                   V C P       PN *       VCPA4       010VISTA          000000000069000000000690000000006500000000000000000000655000001230500
0202LOTE PADRAO                   BRADESPAR   PN *       BRAP4       010VISTA          000000000000770000000007800000000072000000000000000000007300179625000
0202LOTE PADRAO                   NET         PN         PLIM4       010VISTA          000000000000860000000008600000000080000000000000000000008100002410500
0202LOTE PADRAO                   TELE CTR OESPN * EJ    TCOC4       010VISTA          000000000005750000000057500000000550000000000000000000056000041499700
0202LOTE PADRAO                   GERDAU      PN * EJ    GGBR4       010VISTA          000000000016500000000171000000001650000000000000000000168000008045500
0202LOTE PADRAO                   BRASIL      ON *       BBAS3       010VISTA          000000000009500000000096000000000920000000000000000000092500002981800
