00BDIN9999BOVESPA 99992001011520010115
0101IBOVESPA                      0168580168580170380000000000000000002001011500000020010115016963000000
0202LOTE PADRAO                   EMBRATEL PARPN *       EBTP4       010VISTA          000000000033900000000339000000003280000000000000000000328000015594500
0202LOTE PADRAO                   EMBRATEL PARON *       EBTP3       010VISTA          000000000026800000000268000000002610000000000000000000263000006836600
0202LOTE PADRAO                   TRAN PAULISTPN * EJ    TRPL4       010VISTA          000000000008300000000087500000000830000000000000000000084000031830200
0202LOTE PADRAO                   TELEMAR     PN * EJ    TNLP4       010VISTA          000000000046800000000475000000004660000000000000000000471000042036900
0202LOTE PADRAO                   ITAUBANCO   PN * EJ    ITAU4       010VISTA          000000000184000000001880000000018400000000000000000001870000000660700
0202LOTE PADRAO                   TELEMAR     ON * EJ    TNLP3       010VISTA          000000000037700000000377000000003660000000000000000000368000004460100
0202LOTE PADRAO                   SID NACIONALON *       CSNA3       010VISTA          000000000064200000000644000000006380000000000000000000644000005223800
0202LOTE PADRAO                   TELE LEST CLPN *       TLCP4       010VISTA          000000000001400000000014700000000140000000000000000000014000013325600
0202LOTE PADRAO                   CRT CELULAR PNA* EJ    CRTP5       010VISTA          000000000740000000007650000000074000000000000000000007648000000085800
0202LOTE PADRAO                   IPIRANGA PETPN *       PTIP4       010VISTA          000000000017400000000174000000001680000000000000000000168000001690000
0202LOTE PADRAO                   BRASIL T PARPN *       BRTP4       010VISTA          000000000023300000000241000000002330000000000000000000238000043535900
0202LOTE PADRAO                   BRASIL T PARON *       BRTP3       010VISTA          000000000019700000000201000000001970000000000000000000198000020827400
0202LOTE PADRAO                   ACESITA     PN *       ACES4       010VISTA          000000000001100000000011000000000110000000000000000000011000087753500
0202LOTE PADRAO                   PETROBRAS   PN         PETR4       010VISTA          000000000051500000000517000000005100000000000000000000512000000029800
0202LOTE PADRAO                   ELETROBRAS  PNB*       ELET6       010VISTA          000000000036200000000370000000003620000000000000000000370000017465900
0202LOTE PADRAO                   PETROBRAS   ON         PETR3       010VISTA          000000000054100000000542000000005350000000000000000000538000000010400
0202LOTE PADRAO                   COMGAS      PNA*       CGAS5       010VISTA          000000000143000000001430000000013950000000000000000001420000005990600
0202LOTE PADRAO                   SOUZA CRUZ  ON EJ      CRUZ3       010VISTA          000000000011000000000119000000001000000000000000000000104000000087600
0202LOTE PADRAO                   ELETROBRAS  ON *       ELET3       010VISTA          000000000038700000000397000000003830000000000000000000397000011785200
0202LOTE PADRAO                   CELESC      PNB        CLSC6       010VISTA          000000000000660000000006800000000066000000000000000000006600000066100
0202LOTE PADRAO                   BRADESCO    PN * EJ    BBDC4       010VISTA          000000000013500000000135000000001320000000000000000000134000000992800
0202LOTE PADRAO                   CESP        PN *       CESP4       010VISTA          000000000021300000000213000000002100000000000000000000211000004945600
0202LOTE PADRAO                   LIGHT       ON *       LIGH3       010VISTA          000000000243000000002470000000024240000000000000000002440000000192700
0202LOTE PADRAO                   TELESP CL PAPN *       TSPP4       010VISTA          000000000022100000000222000000002160000000000000000000219000024271900
0202LOTE PADRAO                   VALE R DOCE PNA        VALE5       010VISTA          000000000047600000000477000000004700000000000000000000475000000011900
0202LOTE PADRAO                   COPEL       PNB*       CPLE6       010VISTA          000000000017900000000179000000001730000000000000000000174000009190100
0202LOTE PADRAO                   VALE R DOCE ON         VALE3       010VISTA          000000000043500000000440000000004350000000000000000000435000000000000
0202LOTE PADRAO                   ARACRUZ     PNB        ARCZ6       010VISTA          000000000003000000000030000000000270000000000000000000029000000028600
0202LOTE PADRAO                   TELEMIG PARTPN *       TMCP4       010VISTA          000000000005900000000060000000000590000000000000000000060000030864400
0202LOTE PADRAO                   BRASIL TELECPN *       BRTO4       010VISTA          000000000017600000000178000000001710000000000000000000174000056089200
0202LOTE PADRAO                   SABESP      ON *       SBSP3       010VISTA          000000000193500000001935000000019000000000000000000001910000000500000
0202LOTE PADRAO                   BRASKEM     PNA*       BRKM5       010VISTA          000000000620500000006270000000062050000000000000000006250000000296200
0202LOTE PADRAO                   EMBRAER     PN EJ      EMBR4       010VISTA          000000000018000000000183000000001800000000000000000000181000000016600
0202LOTE PADRAO                   TELESP      PN * EJ    TLPP4       010VISTA          000000000027800000000281000000002780000000000000000000281000003780000
0202LOTE PADRAO                   EMBRAER     ON EJ      EMBR3       010VISTA          000000000014500000000148000000001440000000000000000000146000000011600
0202LOTE PADRAO                   AMBEV       PN *       AMBV4       010VISTA          000000000470000000004700000000046200000000000000000004675000000323300
0202LOTE PADRAO                   USIMINAS    PNA        USIM5       010VISTA          000000000010100000000104000000001010000000000000000000103000000017100
0202LOTE PADRAO                   ELETROPAULO PN *       ELPL4       010VISTA          000000000107000000001100000000010700000000000000000001099000000918600
0202LOTE PADRAO                   TELE NORD CLPN *       TNEP4       010VISTA          000000000004400000000044000000000430000000000000000000044000037201100
0202LOTE PADRAO                   CEMIG       PN * EJ    CMIG4       010VISTA          000000000032250000000326000000003200000000000000000000322000014191600
0202LOTE PADRAO                   TELE CL SUL PN * EJ    TCSL4       010VISTA          000000000005400000000055000000000540000000000000000000054000043161500
0202LOTE PADRAO                   CEMIG       ON * EJ    CMIG3       010VISTA          000000000026500000000275000000002650000000000000000000273000003200000
0202LOTE PADRAO                   TELE CL SUL ON * EJ    TCSL3       010VISTA          000000000004500000000047000000000450000000000000000000047100011792600
0202LOTE PADRAO                   ITAUSA      PN         ITSA4       010VISTA          000000000001990000000019900000000197000000000000000000019900000055800
0202LOTE PADRAO                   SID TUBARAO PN *       CSTB4       010VISTA          000000000022500000000231000000002250000000000000000000228000004054100
0202LOTE PADRAO                   V C P       PN *       VCPA4       010VISTA          000000000058500000000590000000005700000000000000000000580000001007500
0202LOTE PADRAO                   BRADESPAR   PN *       BRAP4       010VISTA          000000000001100000000011000000000110000000000000000000011000195929000
0202LOTE PADRAO                   NET         PN         PLIM4       010VISTA          000000000002200000000023000000000220000000000000000000022000000237300
0202LOTE PADRAO                   TELE CTR OESPN * EJ    TCOC4       010VISTA          000000000007700000000081000000000770000000000000000000079000037849200
0202LOTE PADRAO                   GERDAU      PN * EJ    GGBR4       010VISTA          000000000019000000000195000000001900000000000000000000193000002215900
0202LOTE PADRAO                   BRASIL      ON *       BBAS3       010VISTA          000000000007500000000080000000000750000000000000000000080000004931700
