00BDIN9999BOVESPA 99992001120420011204
0101IBOVESPA                      0133740130710135650000000000000000002001120400000020011204013147000000
0202LOTE PADRAO                   EMBRATEL PARPN *       EBTP4       010VISTA          000000000011400000000117500000001110000000000000000000113000290763000
0202LOTE PADRAO                   EMBRATEL PARON *       EBTP3       010VISTA          000000000012900000000131000000001210000000000000000000121000048239900
0202LOTE PADRAO                   TRAN PAULISTPN * EJ    TRPL4       010VISTA          000000000006400000000064000000000600000000000000000000060000017629900
0202LOTE PADRAO                   TELEMAR     PN * EJ    TNLP4       010VISTA          000000000033700000000339000000003260000000000000000000329000321582000
0202LOTE PADRAO                   ITAUBANCO   PN * EJ    ITAU4       010VISTA          000000000181000000001840000000017350000000000000000001740000025116700
0202LOTE PADRAO                   TELEMAR     ON * EJ    TNLP3       010VISTA          000000000029600000000299000000002850000000000000000000285000021414000
0202LOTE PADRAO                   SID NACIONALON *       CSNA3       010VISTA          000000000037000000000371000000003520000000000000000000366000017491900
0202LOTE PADRAO                   TELE LEST CLPN *       TLCP4       010VISTA          000000000000890000000009100000000085000000000000000000008600318993000
0202LOTE PADRAO                   CRT CELULAR PNA* EJ    CRTP5       010VISTA          000000000485000000005000000000047000000000000000000004749000001168900
0202LOTE PADRAO                   IPIRANGA PETPN *       PTIP4       010VISTA          000000000013400000000135000000001290000000000000000000131000005333800
0202LOTE PADRAO                   BRASIL T PARPN *       BRTP4       010VISTA          000000000019300000000195000000001830000000000000000000188000119629000
0202LOTE PADRAO                   BRASIL T PARON *       BRTP3       010VISTA          000000000019000000000191000000001800000000000000000000180000026059200
0202LOTE PADRAO                   ACESITA     PN *       ACES4       010VISTA          000000000000710000000007300000000067000000000000000000006700347716000
0202LOTE PADRAO                   PETROBRAS   PN         PETR4       010VISTA          000000000051300000000518000000005020000000000000000000506000000159400
0202LOTE PADRAO                   ELETROBRAS  PNB*       ELET6       010VISTA          000000000032700000000328000000003060000000000000000000310000058510400
0202LOTE PADRAO                   PETROBRAS   ON         PETR3       010VISTA          000000000052800000000534000000005180000000000000000000528000000077100
0202LOTE PADRAO                   COMGAS      PNA*       CGAS5       010VISTA          000000000092000000000920000000008690000000000000000000875000000957700
0202LOTE PADRAO                   SOUZA CRUZ  ON EJ      CRUZ3       010VISTA          000000000013400000000135000000001310000000000000000000131000000010900
0202LOTE PADRAO                   ELETROBRAS  ON *       ELET3       010VISTA          000000000034500000000345000000003270000000000000000000331000036398300
0202LOTE PADRAO                   CELESC      PNB        CLSC6       010VISTA          000000000000490000000005000000000047000000000000000000004900000280800
0202LOTE PADRAO                   BRADESCO    PN * EJ    BBDC4       010VISTA          000000000011600000000118000000001150000000000000000000116000492177000
0202LOTE PADRAO                   CESP        PN *       CESP4       010VISTA          000000000015300000000158000000001490000000000000000000149000017029400
0202LOTE PADRAO                   LIGHT       ON *       LIGH3       010VISTA          000000000121000000001249000000011500000000000000000001160000002034600
0202LOTE PADRAO                   TELESP CL PAPN *       TSPP4       010VISTA          000000000007900000000079000000000750000000000000000000075000381448000
0202LOTE PADRAO                   VALE R DOCE PNA        VALE5       010VISTA          000000000054200000000550000000005250000000000000000000525000000041200
0202LOTE PADRAO                   COPEL       PNB*       CPLE6       010VISTA          000000000015700000000163000000001540000000000000000000154000082514900
0202LOTE PADRAO                   VALE R DOCE ON         VALE3       010VISTA          000000000050200000000505000000004950000000000000000000500000000005200
0202LOTE PADRAO                   ARACRUZ     PNB        ARCZ6       010VISTA          000000000004710000000047900000000440000000000000000000044000000073800
0202LOTE PADRAO                   TELEMIG PARTPN *       TMCP4       010VISTA          000000000004500000000047000000000440000000000000000000044000147656000
0202LOTE PADRAO                   BRASIL TELECPN *       BRTO4       010VISTA          000000000013900000000140000000001300000000000000000000134000111978000
0202LOTE PADRAO                   SABESP      ON *       SBSP3       010VISTA          000000000135000000001380000000013200000000000000000001330000002590500
0202LOTE PADRAO                   BRASKEM     PNA*       BRKM5       010VISTA          000000000430000000004400000000041000000000000000000004150000000251200
0202LOTE PADRAO                   EMBRAER     PN EJ      EMBR4       010VISTA          000000000012000000000122000000001180000000000000000000119000000124300
0202LOTE PADRAO                   TELESP      PN * EJ    TLPP4       010VISTA          000000000029600000000310000000002950000000000000000000298000006937100
0202LOTE PADRAO                   EMBRAER     ON EJ      EMBR3       010VISTA          000000000010000000000103000000001000000000000000000000101000000059400
0202LOTE PADRAO                   AMBEV       PN *       AMBV4       010VISTA          000000000486000000004950000000048500000000000000000004855000005215300
0202LOTE PADRAO                   USIMINAS    PNA        USIM5       010VISTA          000000000006000000000062500000000580000000000000000000059000000105300
0202LOTE PADRAO                   ELETROPAULO PN *       ELPL4       010VISTA          000000000081500000000815000000007850000000000000000000785000006287000
0202LOTE PADRAO                   TELE NORD CLPN *       TNEP4       010VISTA          000000000003200000000033000000000310000000000000000000032500182649000
0202LOTE PADRAO                   CEMIG       PN * EJ    CMIG4       010VISTA          000000000030800000000310000000003010000000000000000000305000071085000
0202LOTE PADRAO                   TELE CL SUL PN * EJ    TCSL4       010VISTA          000000000003600000000037000000000360000000000000000000036000194220000
0202LOTE PADRAO                   CEMIG       ON * EJ    CMIG3       010VISTA          000000000029000000000298000000002800000000000000000000280000003050000
0202LOTE PADRAO                   TELE CL SUL ON * EJ    TCSL3       010VISTA          000000000003000000000031000000000290000000000000000000029600068055600
0202LOTE PADRAO                   ITAUSA      PN         ITSA4       010VISTA          000000000002100000000022000000000210000000000000000000021000001012000
0202LOTE PADRAO                   V C P       PN *       VCPA4       010VISTA          000000000078700000000800000000007800000000000000000000780000008944600
0202LOTE PADRAO                   SID TUBARAO PN *       CSTB4       010VISTA          000000000021600000000216000000002000000000000000000000201000008391500
0202LOTE PADRAO                   BRADESPAR   PN *       BRAP4       010VISTA          000000000000810000000008600000000081000000000000000000008100442455000
0202LOTE PADRAO                   NET         PN         PLIM4       010VISTA          000000000000800000000008300000000076000000000000000000007600001663400
0202LOTE PADRAO                   TELE CTR OESPN * EJ    TCOC4       010VISTA          000000000005600000000057000000000550000000000000000000056000140518000
0202LOTE PADRAO                   TELEMAR N L PNA* EJ    TMAR5       010VISTA          000000000054800000000556000000005350000000000000000000541000048804200
0202LOTE PADRAO                   GERDAU      PN * EJ    GGBR4       010VISTA          000000000023400000000235000000002150000000000000000000215000030882500
0202LOTE PADRAO                   BRASIL      ON *       BBAS3       010VISTA          000000000009600000000099000000000910000000000000000000095000005680500
