00BDIN9999BOVESPA 99992001060720010607
0101IBOVESPA                      0153190152010155460000000000000000002001060700000020010607015464000000
0202LOTE PADRAO                   EMBRATEL PARPN *       EBTP4       010VISTA          000000000021500000000221000000002110000000000000000000218000106528000
0202LOTE PADRAO                   EMBRATEL PARON *       EBTP3       010VISTA          000000000020600000000221000000002060000000000000000000216000070688100
0202LOTE PADRAO                   TRAN PAULISTPN * EJ    TRPL4       010VISTA          000000000006400000000069000000000640000000000000000000067000012532900
0202LOTE PADRAO                   TELEMAR     PN * EJ    TNLP4       010VISTA          000000000038700000000391000000003820000000000000000000386000124012000
0202LOTE PADRAO                   ITAUBANCO   PN * EJ    ITAU4       010VISTA          000000000199900000002025000000019800000000000000000001999000009129700
0202LOTE PADRAO                   TELEMAR     ON * EJ    TNLP3       010VISTA          000000000033100000000339000000003300000000000000000000335000020822700
0202LOTE PADRAO                   SID NACIONALON *       CSNA3       010VISTA          000000000051500000000517000000005130000000000000000000516000003641700
0202LOTE PADRAO                   TELE LEST CLPN *       TLCP4       010VISTA          000000000001960000000020000000000180000000000000000000019700149007000
0202LOTE PADRAO                   IPIRANGA PETPN *       PTIP4       010VISTA          000000000016000000000165000000001600000000000000000000161000001727200
0202LOTE PADRAO                   BRASIL T PARPN *       BRTP4       010VISTA          000000000020100000000203000000001980000000000000000000201000074823600
0202LOTE PADRAO                   BRASIL T PARON *       BRTP3       010VISTA          000000000019100000000197500000001880000000000000000000197500005115400
0202LOTE PADRAO                   ACESITA     PN *       ACES4       010VISTA          000000000000720000000007300000000071000000000000000000007300137685000
0202LOTE PADRAO                   PETROBRAS   PN         PETR4       010VISTA          000000000059000000000602000000005850000000000000000000585000000103200
0202LOTE PADRAO                   ELETROBRAS  PNB*       ELET6       010VISTA          000000000029800000000322000000002910000000000000000000311000088918400
0202LOTE PADRAO                   PETROBRAS   ON         PETR3       010VISTA          000000000066100000000665000000006450000000000000000000645000000052000
0202LOTE PADRAO                   COMGAS      PNA*       CGAS5       010VISTA          000000000148900000001510000000014700000000000000000001499000002265100
0202LOTE PADRAO                   SOUZA CRUZ  ON EJ      CRUZ3       010VISTA          000000000011500000000119000000001150000000000000000000118000000006800
0202LOTE PADRAO                   CELESC      PNB        CLSC6       010VISTA          000000000000470000000005000000000046000000000000000000004900000299100
0202LOTE PADRAO                   ELETROBRAS  ON *       ELET3       010VISTA          000000000033000000000360000000003300000000000000000000347000050264300
0202LOTE PADRAO                   BRADESCO    PN * EJ    BBDC4       010VISTA          000000000012500000000130000000001240000000000000000000129000392482000
0202LOTE PADRAO                   CESP        PN *       CESP4       010VISTA          000000000015800000000160000000001540000000000000000000158000021650000
0202LOTE PADRAO                   LIGHT       ON *       LIGH3       010VISTA          000000000144000000001450000000014000000000000000000001439000000311600
0202LOTE PADRAO                   TELESP CL PAPN *       TSPP4       010VISTA          000000000016000000000162500000001590000000000000000000159000096050400
0202LOTE PADRAO                   VALE R DOCE PNA        VALE5       010VISTA          000000000056700000000576000000005650000000000000000000575000000038600
0202LOTE PADRAO                   COPEL       PNB*       CPLE6       010VISTA          000000000017100000000176000000001700000000000000000000172000019948900
0202LOTE PADRAO                   VALE R DOCE ON         VALE3       010VISTA          000000000053000000000535000000005290000000000000000000530000000000700
0202LOTE PADRAO                   ARACRUZ     PNB        ARCZ6       010VISTA          000000000004200000000042000000000400000000000000000000041000000020500
0202LOTE PADRAO                   TELEMIG PARTPN *       TMCP4       010VISTA          000000000005500000000055000000000550000000000000000000055000133042000
0202LOTE PADRAO                   BRASIL TELECPN *       BRTO4       010VISTA          000000000013500000000140000000001350000000000000000000136000112222000
0202LOTE PADRAO                   SABESP      ON *       SBSP3       010VISTA          000000000173000000001780000000017290000000000000000001779000002716500
0202LOTE PADRAO                   BRASKEM     PNA*       BRKM5       010VISTA          000000000500800000005299000000049910000000000000000005199000000760800
0202LOTE PADRAO                   EMBRAER     PN EJ      EMBR4       010VISTA          000000000023800000000238000000002230000000000000000000233000000010400
0202LOTE PADRAO                   TELESP      PN * EJ    TLPP4       010VISTA          000000000029500000000296000000002910000000000000000000296000010487900
0202LOTE PADRAO                   EMBRAER     ON EJ      EMBR3       010VISTA          000000000018500000000186000000001810000000000000000000183000000024100
0202LOTE PADRAO                   AMBEV       PN *       AMBV4       010VISTA          000000000525000000005430000000052500000000000000000005250000001965000
0202LOTE PADRAO                   USIMINAS    PNA        USIM5       010VISTA          000000000006500000000067000000000640000000000000000000067000000107400
0202LOTE PADRAO                   ELETROPAULO PN *       ELPL4       010VISTA          000000000065000000000654000000006470000000000000000000650000003992800
0202LOTE PADRAO                   TELE NORD CLPN *       TNEP4       010VISTA          000000000004300000000045000000000420000000000000000000045000264229000
0202LOTE PADRAO                   CEMIG       PN * EJ    CMIG4       010VISTA          000000000025500000000271000000002530000000000000000000270000059083600
0202LOTE PADRAO                   TELE CL SUL PN * EJ    TCSL4       010VISTA          000000000005000000000052000000000500000000000000000000051000099579100
0202LOTE PADRAO                   CEMIG       ON * EJ    CMIG3       010VISTA          000000000025300000000261000000002500000000000000000000257000001904400
0202LOTE PADRAO                   TELE CL SUL ON * EJ    TCSL3       010VISTA          000000000004200000000045000000000420000000000000000000044000031525100
0202LOTE PADRAO                   ITAUSA      PN         ITSA4       010VISTA          000000000002000000000021000000000200000000000000000000021000000318600
0202LOTE PADRAO                   SID TUBARAO PN *       CSTB4       010VISTA          000000000023900000000239000000002330000000000000000000236000006038500
0202LOTE PADRAO                   V C P       PN *       VCPA4       010VISTA          000000000069000000000710000000006900000000000000000000710000003230000
0202LOTE PADRAO                   BRADESPAR   PN *       BRAP4       010VISTA          000000000000850000000008900000000084000000000000000000008700127698000
0202LOTE PADRAO                   NET         PN         PLIM4       010VISTA          000000000000910000000009800000000089000000000000000000009700000907900
0202LOTE PADRAO                   TELE CTR OESPN * EJ    TCOC4       010VISTA          000000000007000000000072000000000690000000000000000000070000027439500
0202LOTE PADRAO                   GERDAU      PN * EJ    GGBR4       010VISTA          000000000017100000000173000000001700000000000000000000173000018967600
0202LOTE PADRAO                   BRASIL      ON *       BBAS3       010VISTA          000000000008400000000087500000000830000000000000000000085000005140700
