00BDIN9999BOVESPA 99992001092120010921
0101IBOVESPA                      0104930098900104930000000000000000002001092100000020010921010419000000
0202LOTE PADRAO                   EMBRATEL PARPN *       EBTP4       010VISTA          000000000007400000000077000000000730000000000000000000075000146932000
0202LOTE PADRAO                   EMBRATEL PARON *       EBTP3       010VISTA          000000000008200000000089000000000800000000000000000000081000039600800
0202LOTE PADRAO                   TRAN PAULISTPN * EJ    TRPL4       010VISTA          000000000004500000000045000000000420000000000000000000044000021000000
0202LOTE PADRAO                   TELEMAR     PN * EJ    TNLP4       010VISTA          000000000022000000000241000000002130000000000000000000241000298551000
0202LOTE PADRAO                   ITAUBANCO   PN * EJ    ITAU4       010VISTA          000000000156900000001580000000015150000000000000000001565000006667200
0202LOTE PADRAO                   TELEMAR     ON * EJ    TNLP3       010VISTA          000000000021000000000235000000002030000000000000000000235000030604200
0202LOTE PADRAO                   SID NACIONALON *       CSNA3       010VISTA          000000000029600000000296000000002800000000000000000000287000015732700
0202LOTE PADRAO                   TELE LEST CLPN *       TLCP4       010VISTA          000000000000610000000006200000000057000000000000000000006100309023000
0202LOTE PADRAO                   CRT CELULAR PNA* EJ    CRTP5       010VISTA          000000000320000000003249000000029990000000000000000003214000000953900
0202LOTE PADRAO                   IPIRANGA PETPN *       PTIP4       010VISTA          000000000010000000000105000000001000000000000000000000105000000914000
0202LOTE PADRAO                   BRASIL T PARPN *       BRTP4       010VISTA          000000000012000000000133000000001150000000000000000000131000096799400
0202LOTE PADRAO                   BRASIL T PARON *       BRTP3       010VISTA          000000000011100000000123000000001100000000000000000000120000013724000
0202LOTE PADRAO                   ACESITA     PN *       ACES4       010VISTA          000000000000410000000004200000000039000000000000000000004100174281000
0202LOTE PADRAO                   PETROBRAS   PN         PETR4       010VISTA          000000000050000000000534000000005000000000000000000000531000000202200
0202LOTE PADRAO                   ELETROBRAS  PNB*       ELET6       010VISTA          000000000028600000000293000000002760000000000000000000288000058812600
0202LOTE PADRAO                   PETROBRAS   ON         PETR3       010VISTA          000000000054000000000548000000004900000000000000000000548000000028600
0202LOTE PADRAO                   COMGAS      PNA*       CGAS5       010VISTA          000000000082000000000840000000007800000000000000000000810000000793000
0202LOTE PADRAO                   SOUZA CRUZ  ON EJ      CRUZ3       010VISTA          000000000010600000000115000000001060000000000000000000114000000033800
0202LOTE PADRAO                   ELETROBRAS  ON *       ELET3       010VISTA          000000000030500000000325000000003050000000000000000000311000019434100
0202LOTE PADRAO                   CELESC      PNB        CLSC6       010VISTA          000000000000340000000003600000000034000000000000000000003600000167900
0202LOTE PADRAO                   BRADESCO    PN * EJ    BBDC4       010VISTA          000000000009500000000096000000000920000000000000000000094000202126000
0202LOTE PADRAO                   CESP        PN *       CESP4       010VISTA          000000000008300000000083000000000770000000000000000000079000017803200
0202LOTE PADRAO                   LIGHT       ON *       LIGH3       010VISTA          000000000081000000000810000000007150000000000000000000730000001688600
0202LOTE PADRAO                   TELESP CL PAPN *       TSPP4       010VISTA          000000000005500000000057000000000530000000000000000000057000324318000
0202LOTE PADRAO                   VALE R DOCE PNA        VALE5       010VISTA          000000000050000000000524000000004990000000000000000000524000000080800
0202LOTE PADRAO                   COPEL       PNB*       CPLE6       010VISTA          000000000014400000000144000000001350000000000000000000140000034172300
0202LOTE PADRAO                   VALE R DOCE ON         VALE3       010VISTA          000000000051500000000515000000004950000000000000000000512000000001900
0202LOTE PADRAO                   ARACRUZ     PNB        ARCZ6       010VISTA          000000000003750000000042000000000360000000000000000000042000000091900
0202LOTE PADRAO                   TELEMIG PARTPN *       TMCP4       010VISTA          000000000002900000000032700000000280000000000000000000031000139138000
0202LOTE PADRAO                   BRASIL TELECPN *       BRTO4       010VISTA          000000000008300000000095000000000800000000000000000000091000084526200
0202LOTE PADRAO                   SABESP      ON *       SBSP3       010VISTA          000000000116000000001160000000010600000000000000000001095000001124100
0202LOTE PADRAO                   BRASKEM     PNA*       BRKM5       010VISTA          000000000306100000003460000000030610000000000000000003290000000219900
0202LOTE PADRAO                   EMBRAER     PN EJ      EMBR4       010VISTA          000000000007900000000090000000000750000000000000000000087500000160200
0202LOTE PADRAO                   TELESP      PN * EJ    TLPP4       010VISTA          000000000021100000000225000000002100000000000000000000225000009986100
0202LOTE PADRAO                   EMBRAER     ON EJ      EMBR3       010VISTA          000000000007300000000077100000000700000000000000000000073000000081400
0202LOTE PADRAO                   AMBEV       PN *       AMBV4       010VISTA          000000000421000000004350000000041000000000000000000004300000002238100
0202LOTE PADRAO                   USIMINAS    PNA        USIM5       010VISTA          000000000003980000000040000000000370000000000000000000038000000065700
0202LOTE PADRAO                   ELETROPAULO PN *       ELPL4       010VISTA          000000000060000000000620000000005800000000000000000000591000003781700
0202LOTE PADRAO                   TELE NORD CLPN *       TNEP4       010VISTA          000000000002200000000026000000000220000000000000000000026000087883700
0202LOTE PADRAO                   CEMIG       PN * EJ    CMIG4       010VISTA          000000000023100000000240000000002280000000000000000000238000042722500
0202LOTE PADRAO                   TELE CL SUL PN * EJ    TCSL4       010VISTA          000000000002800000000030000000000269000000000000000000029000107141000
0202LOTE PADRAO                   CEMIG       ON * EJ    CMIG3       010VISTA          000000000021700000000240000000002170000000000000000000240000000800000
0202LOTE PADRAO                   TELE CL SUL ON * EJ    TCSL3       010VISTA          000000000002200000000025400000000220000000000000000000025400050259800
0202LOTE PADRAO                   ITAUSA      PN         ITSA4       010VISTA          000000000001720000000017200000000160000000000000000000017100000254400
0202LOTE PADRAO                   SID TUBARAO PN *       CSTB4       010VISTA          000000000015800000000158000000001450000000000000000000150000013465400
0202LOTE PADRAO                   V C P       PN *       VCPA4       010VISTA          000000000058600000000675000000005860000000000000000000675000009997700
0202LOTE PADRAO                   BRADESPAR   PN *       BRAP4       010VISTA          000000000000490000000004900000000047000000000000000000004700339166000
0202LOTE PADRAO                   NET         PN         PLIM4       010VISTA          000000000000600000000006100000000056000000000000000000005600001562900
0202LOTE PADRAO                   TELE CTR OESPN * EJ    TCOC4       010VISTA          000000000003600000000040000000000352000000000000000000039000134967000
0202LOTE PADRAO                   GERDAU      PN * EJ    GGBR4       010VISTA          000000000013500000000136000000001270000000000000000000134000021474400
0202LOTE PADRAO                   BRASIL      ON *       BBAS3       010VISTA          000000000007400000000077000000000710000000000000000000074000006723500
