00BDIN9999BOVESPA 99992001040920010409
0101IBOVESPA                      0144890144460147190000000000000000002001040900000020010409014719000000
0202LOTE PADRAO                   EMBRATEL PARPN *       EBTP4       010VISTA          000000000021300000000218000000002100000000000000000000218000056814200
0202LOTE PADRAO                   EMBRATEL PARON *       EBTP3       010VISTA          000000000021100000000225000000002110000000000000000000221000042796200
0202LOTE PADRAO                   TRAN PAULISTPN * EJ    TRPL4       010VISTA          000000000006700000000069000000000650000000000000000000068000025679800
0202LOTE PADRAO                   TELEMAR     PN * EJ    TNLP4       010VISTA          000000000035600000000361000000003430000000000000000000361000172281000
0202LOTE PADRAO                   ITAUBANCO   PN * EJ    ITAU4       010VISTA          000000000168000000001685000000016000000000000000000001630000004128600
0202LOTE PADRAO                   TELEMAR     ON * EJ    TNLP3       010VISTA          000000000031000000000339000000003100000000000000000000339000039118400
0202LOTE PADRAO                   SID NACIONALON *       CSNA3       010VISTA          000000000046700000000490000000004670000000000000000000489000007054600
0202LOTE PADRAO                   TELE LEST CLPN *       TLCP4       010VISTA          000000000001500000000018000000000153000000000000000000018100750870000
0202LOTE PADRAO                   IPIRANGA PETPN *       PTIP4       010VISTA          000000000016300000000163000000001600000000000000000000160000001981900
0202LOTE PADRAO                   BRASIL T PARPN *       BRTP4       010VISTA          000000000018000000000182500000001780000000000000000000182000038106300
0202LOTE PADRAO                   BRASIL T PARON *       BRTP3       010VISTA          000000000018300000000191000000001780000000000000000000191000016104100
0202LOTE PADRAO                   ACESITA     PN *       ACES4       010VISTA          000000000000990000000010000000000095000000000000000000009600079584300
0202LOTE PADRAO                   PETROBRAS   PN         PETR4       010VISTA          000000000050900000000520000000005070000000000000000000511000000060800
0202LOTE PADRAO                   ELETROBRAS  PNB*       ELET6       010VISTA          000000000036200000000384000000003620000000000000000000384000018051000
0202LOTE PADRAO                   PETROBRAS   ON         PETR3       010VISTA          000000000055500000000561000000005500000000000000000000555000000013400
0202LOTE PADRAO                   COMGAS      PNA*       CGAS5       010VISTA          000000000136400000001400000000013200000000000000000001349000016459000
0202LOTE PADRAO                   SOUZA CRUZ  ON EJ      CRUZ3       010VISTA          000000000010900000000110000000001060000000000000000000108000000006600
0202LOTE PADRAO                   CELESC      PNB        CLSC6       010VISTA          000000000000570000000005900000000057000000000000000000005800000135600
0202LOTE PADRAO                   ELETROBRAS  ON *       ELET3       010VISTA          000000000038200000000397000000003820000000000000000000397000012324700
0202LOTE PADRAO                   BRADESCO    PN * EJ    BBDC4       010VISTA          000000000011500000000116000000001130000000000000000000116000176162000
0202LOTE PADRAO                   CESP        PN *       CESP4       010VISTA          000000000019500000000201000000001930000000000000000000195000008071000
0202LOTE PADRAO                   LIGHT       ON *       LIGH3       010VISTA          000000000184300000001900000000018400000000000000000001899000000783100
0202LOTE PADRAO                   TELESP CL PAPN *       TSPP4       010VISTA          000000000014000000000144000000001390000000000000000000143000121341000
0202LOTE PADRAO                   VALE R DOCE PNA        VALE5       010VISTA          000000000052200000000523000000005170000000000000000000517000000018900
0202LOTE PADRAO                   COPEL       PNB*       CPLE6       010VISTA          000000000018000000000181000000001700000000000000000000173000025056700
0202LOTE PADRAO                   VALE R DOCE ON         VALE3       010VISTA          000000000049000000000490000000004790000000000000000000479000000001000
0202LOTE PADRAO                   ARACRUZ     PNB        ARCZ6       010VISTA          000000000002700000000028000000000271000000000000000000027000000049800
0202LOTE PADRAO                   TELEMIG PARTPN *       TMCP4       010VISTA          000000000004000000000040000000000380000000000000000000040000104218000
0202LOTE PADRAO                   BRASIL TELECPN *       BRTO4       010VISTA          000000000012500000000128000000001210000000000000000000126000029466600
0202LOTE PADRAO                   SABESP      ON *       SBSP3       010VISTA          000000000184500000001845000000018000000000000000000001825000001560800
0202LOTE PADRAO                   BRASKEM     PNA*       BRKM5       010VISTA          000000000602000000006200000000060100000000000000000006020000000265100
0202LOTE PADRAO                   EMBRAER     PN EJ      EMBR4       010VISTA          000000000019800000000202000000001960000000000000000000201000000005100
0202LOTE PADRAO                   TELESP      PN * EJ    TLPP4       010VISTA          000000000029500000000299000000002860000000000000000000298000004319600
0202LOTE PADRAO                   EMBRAER     ON EJ      EMBR3       010VISTA          000000000016100000000165000000001590000000000000000000164000000020200
0202LOTE PADRAO                   AMBEV       PN *       AMBV4       010VISTA          000000000490000000004940000000048800000000000000000004880000001239300
0202LOTE PADRAO                   USIMINAS    PNA        USIM5       010VISTA          000000000009400000000094000000000890000000000000000000093000000040500
0202LOTE PADRAO                   ELETROPAULO PN *       ELPL4       010VISTA          000000000086000000000860000000008240000000000000000000825000002070100
0202LOTE PADRAO                   TELE NORD CLPN *       TNEP4       010VISTA          000000000002800000000029400000000279000000000000000000028000063923400
0202LOTE PADRAO                   CEMIG       PN * EJ    CMIG4       010VISTA          000000000027400000000278000000002680000000000000000000273000018307000
0202LOTE PADRAO                   TELE CL SUL PN * EJ    TCSL4       010VISTA          000000000004250000000043000000000400000000000000000000040000058318500
0202LOTE PADRAO                   CEMIG       ON * EJ    CMIG3       010VISTA          000000000026750000000279000000002675000000000000000000275000007620900
0202LOTE PADRAO                   TELE CL SUL ON * EJ    TCSL3       010VISTA          000000000003300000000036000000000330000000000000000000036000035626700
0202LOTE PADRAO                   ITAUSA      PN         ITSA4       010VISTA          000000000001800000000018100000000174000000000000000000017600000153000
0202LOTE PADRAO                   SID TUBARAO PN *       CSTB4       010VISTA          000000000021600000000220000000002130000000000000000000213000002955000
0202LOTE PADRAO                   V C P       PN *       VCPA4       010VISTA          000000000053500000000535000000005250000000000000000000529000001559600
0202LOTE PADRAO                   BRADESPAR   PN *       BRAP4       010VISTA          000000000001000000000010000000000100000000000000000000010000266050000
0202LOTE PADRAO                   NET         PN         PLIM4       010VISTA          000000000001200000000012000000000110000000000000000000011000000852400
0202LOTE PADRAO                   TELE CTR OESPN * EJ    TCOC4       010VISTA          000000000005700000000057000000000550000000000000000000057000039994500
0202LOTE PADRAO                   GERDAU      PN * EJ    GGBR4       010VISTA          000000000019100000000196000000001900000000000000000000195000010250600
