00BDIN9999BOVESPA 99992001112920011129
0101IBOVESPA                      0130190126220131870000000000000000002001112900000020011129012736000000
0202LOTE PADRAO                   EMBRATEL PARPN *       EBTP4       010VISTA          000000000010600000000108000000000975000000000000000000101000278603000
0202LOTE PADRAO                   EMBRATEL PARON *       EBTP3       010VISTA          000000000011700000000118000000001090000000000000000000112000048060000
0202LOTE PADRAO                   TRAN PAULISTPN * EJ    TRPL4       010VISTA          000000000006100000000061000000000580000000000000000000059000012219000
0202LOTE PADRAO                   TELEMAR     PN * EJ    TNLP4       010VISTA          000000000033000000000335000000003200000000000000000000325000246267000
0202LOTE PADRAO                   ITAUBANCO   PN * EJ    ITAU4       010VISTA          000000000183000000001830000000017000000000000000000001730000020234200
0202LOTE PADRAO                   TELEMAR     ON * EJ    TNLP3       010VISTA          000000000028500000000285000000002750000000000000000000281000026475200
0202LOTE PADRAO                   SID NACIONALON *       CSNA3       010VISTA          000000000036000000000367000000003550000000000000000000355000006306000
0202LOTE PADRAO                   TELE LEST CLPN *       TLCP4       010VISTA          000000000000930000000009500000000088000000000000000000008800150444000
0202LOTE PADRAO                   CRT CELULAR PNA* EJ    CRTP5       010VISTA          000000000495000000004950000000046010000000000000000004800000001171400
0202LOTE PADRAO                   IPIRANGA PETPN *       PTIP4       010VISTA          000000000013300000000134000000001260000000000000000000127000001683800
0202LOTE PADRAO                   BRASIL T PARPN *       BRTP4       010VISTA          000000000017600000000186000000001760000000000000000000181000072539400
0202LOTE PADRAO                   BRASIL T PARON *       BRTP3       010VISTA          000000000018200000000182000000001710000000000000000000173000005354200
0202LOTE PADRAO                   ACESITA     PN *       ACES4       010VISTA          000000000000680000000007000000000066000000000000000000006600172474000
0202LOTE PADRAO                   PETROBRAS   PN         PETR4       010VISTA          000000000048700000000492000000004800000000000000000000484000000123000
0202LOTE PADRAO                   ELETROBRAS  PNB*       ELET6       010VISTA          000000000033200000000337000000003230000000000000000000323000022460300
0202LOTE PADRAO                   PETROBRAS   ON         PETR3       010VISTA          000000000050500000000510000000004975000000000000000000500000000053400
0202LOTE PADRAO                   COMGAS      PNA*       CGAS5       010VISTA          000000000090000000000902000000008600000000000000000000880000000595000
0202LOTE PADRAO                   SOUZA CRUZ  ON EJ      CRUZ3       010VISTA          000000000012800000000130000000001280000000000000000000129000000023300
0202LOTE PADRAO                   ELETROBRAS  ON *       ELET3       010VISTA          000000000034500000000350000000003370000000000000000000340000010107400
0202LOTE PADRAO                   CELESC      PNB        CLSC6       010VISTA          000000000000500000000005100000000048000000000000000000004800000122900
0202LOTE PADRAO                   BRADESCO    PN * EJ    BBDC4       010VISTA          000000000012100000000121000000001140000000000000000000115000236327000
0202LOTE PADRAO                   CESP        PN *       CESP4       010VISTA          000000000014900000000149000000001410000000000000000000143000007684000
0202LOTE PADRAO                   LIGHT       ON *       LIGH3       010VISTA          000000000114900000001170000000011250000000000000000001130000001855000
0202LOTE PADRAO                   TELESP CL PAPN *       TSPP4       010VISTA          000000000007800000000081000000000740000000000000000000075000535960000
0202LOTE PADRAO                   VALE R DOCE PNA        VALE5       010VISTA          000000000050700000000511000000005000000000000000000000507000000059900
0202LOTE PADRAO                   COPEL       PNB*       CPLE6       010VISTA          000000000015800000000159000000001490000000000000000000149000035588800
0202LOTE PADRAO                   VALE R DOCE ON         VALE3       010VISTA          000000000048000000000482000000004700000000000000000000482000000002500
0202LOTE PADRAO                   ARACRUZ     PNB        ARCZ6       010VISTA          000000000004500000000045000000000420000000000000000000042000000032600
0202LOTE PADRAO                   TELEMIG PARTPN *       TMCP4       010VISTA          000000000004250000000044000000000400000000000000000000040000110431000
0202LOTE PADRAO                   BRASIL TELECPN *       BRTO4       010VISTA          000000000013500000000135000000001260000000000000000000127000072449500
0202LOTE PADRAO                   SABESP      ON *       SBSP3       010VISTA          000000000130500000001315000000012910000000000000000001310000000872400
0202LOTE PADRAO                   BRASKEM     PNA*       BRKM5       010VISTA          000000000420000000004225000000040300000000000000000004130000000131400
0202LOTE PADRAO                   EMBRAER     PN EJ      EMBR4       010VISTA          000000000011000000000113000000001100000000000000000000111000000075400
0202LOTE PADRAO                   TELESP      PN * EJ    TLPP4       010VISTA          000000000030000000000310000000002850000000000000000000296000009818800
0202LOTE PADRAO                   EMBRAER     ON EJ      EMBR3       010VISTA          000000000009700000000097000000000940000000000000000000094000000020800
0202LOTE PADRAO                   AMBEV       PN *       AMBV4       010VISTA          000000000490000000004900000000046500000000000000000004800000001351100
0202LOTE PADRAO                   USIMINAS    PNA        USIM5       010VISTA          000000000005600000000056000000000520000000000000000000053000000063800
0202LOTE PADRAO                   ELETROPAULO PN *       ELPL4       010VISTA          000000000080000000000800000000007600000000000000000000760000004716800
0202LOTE PADRAO                   TELE NORD CLPN *       TNEP4       010VISTA          000000000003200000000032000000000300000000000000000000030000112181000
0202LOTE PADRAO                   CEMIG       PN * EJ    CMIG4       010VISTA          000000000031000000000315000000002880000000000000000000305000033176000
0202LOTE PADRAO                   TELE CL SUL PN * EJ    TCSL4       010VISTA          000000000003600000000036000000000330000000000000000000034000081128000
0202LOTE PADRAO                   CEMIG       ON * EJ    CMIG3       010VISTA          000000000027800000000282000000002700000000000000000000276000000373700
0202LOTE PADRAO                   TELE CL SUL ON * EJ    TCSL3       010VISTA          000000000003000000000031000000000280000000000000000000028000047700300
0202LOTE PADRAO                   ITAUSA      PN         ITSA4       010VISTA          000000000002100000000021000000000200000000000000000000020000000408700
0202LOTE PADRAO                   V C P       PN *       VCPA4       010VISTA          000000000075000000000809000000007500000000000000000000780000002593800
0202LOTE PADRAO                   SID TUBARAO PN *       CSTB4       010VISTA          000000000021100000000212000000002010000000000000000000201000002868700
0202LOTE PADRAO                   BRADESPAR   PN *       BRAP4       010VISTA          000000000000770000000007800000000074000000000000000000007400183242000
0202LOTE PADRAO                   NET         PN         PLIM4       010VISTA          000000000000780000000007800000000074000000000000000000007400000763000
0202LOTE PADRAO                   TELE CTR OESPN * EJ    TCOC4       010VISTA          000000000005600000000056000000000520000000000000000000053000095163600
0202LOTE PADRAO                   TELEMAR N L PNA* EJ    TMAR5       010VISTA          000000000054000000000540000000005190000000000000000000522500019282100
0202LOTE PADRAO                   GERDAU      PN * EJ    GGBR4       010VISTA          000000000022100000000221000000002160000000000000000000218000004186700
0202LOTE PADRAO                   BRASIL      ON *       BBAS3       010VISTA          000000000009500000000096000000000900000000000000000000090000007041900
