00BDIN9999BOVESPA 99992001052120010521
0101IBOVESPA                      0148710148070151580000000000000000002001052100000020010521015128000000
0202LOTE PADRAO                   EMBRATEL PARPN *       EBTP4       010VISTA          000000000019800000000214000000001970000000000000000000214000065972600
0202LOTE PADRAO                   EMBRATEL PARON *       EBTP3       010VISTA          000000000018000000000190000000001775000000000000000000190000041758500
0202LOTE PADRAO                   TRAN PAULISTPN * EJ    TRPL4       010VISTA          000000000006100000000062000000000590000000000000000000060000007744900
0202LOTE PADRAO                   TELEMAR     PN * EJ    TNLP4       010VISTA          000000000038250000000392000000003750000000000000000000388000112116000
0202LOTE PADRAO                   ITAUBANCO   PN * EJ    ITAU4       010VISTA          000000000184000000001850000000018100000000000000000001820000003511400
0202LOTE PADRAO                   TELEMAR     ON * EJ    TNLP3       010VISTA          000000000032600000000331000000003180000000000000000000327000006359300
0202LOTE PADRAO                   SID NACIONALON *       CSNA3       010VISTA          000000000049500000000495000000004900000000000000000000492000032923200
0202LOTE PADRAO                   TELE LEST CLPN *       TLCP4       010VISTA          000000000001800000000020000000000180000000000000000000019000340039000
0202LOTE PADRAO                   IPIRANGA PETPN *       PTIP4       010VISTA          000000000016000000000160000000001600000000000000000000160000004678000
0202LOTE PADRAO                   BRASIL T PARPN *       BRTP4       010VISTA          000000000018800000000195000000001870000000000000000000194000068320400
0202LOTE PADRAO                   BRASIL T PARON *       BRTP3       010VISTA          000000000018500000000191000000001850000000000000000000191000007270700
0202LOTE PADRAO                   ACESITA     PN *       ACES4       010VISTA          000000000000710000000007200000000069000000000000000000007000192984000
0202LOTE PADRAO                   PETROBRAS   PN         PETR4       010VISTA          000000000057800000000590000000005750000000000000000000587000000083100
0202LOTE PADRAO                   ELETROBRAS  PNB*       ELET6       010VISTA          000000000029000000000293000000002760000000000000000000284000030757900
0202LOTE PADRAO                   PETROBRAS   ON         PETR3       010VISTA          000000000063800000000645000000006360000000000000000000642000000044300
0202LOTE PADRAO                   COMGAS      PNA*       CGAS5       010VISTA          000000000134000000001420000000013400000000000000000001410000003757900
0202LOTE PADRAO                   SOUZA CRUZ  ON EJ      CRUZ3       010VISTA          000000000011100000000114000000001100000000000000000000113000000008400
0202LOTE PADRAO                   CELESC      PNB        CLSC6       010VISTA          000000000000490000000005000000000049000000000000000000005000000123600
0202LOTE PADRAO                   ELETROBRAS  ON *       ELET3       010VISTA          000000000032000000000330000000003160000000000000000000323000017589700
0202LOTE PADRAO                   BRADESCO    PN * EJ    BBDC4       010VISTA          000000000012000000000120000000001175000000000000000000119000126548000
0202LOTE PADRAO                   CESP        PN *       CESP4       010VISTA          000000000016600000000166000000001610000000000000000000163000010756300
0202LOTE PADRAO                   LIGHT       ON *       LIGH3       010VISTA          000000000133000000001330000000012800000000000000000001284000000281200
0202LOTE PADRAO                   TELESP CL PAPN *       TSPP4       010VISTA          000000000019000000000200000000001650000000000000000000179000630761000
0202LOTE PADRAO                   VALE R DOCE PNA        VALE5       010VISTA          000000000056400000000568000000005600000000000000000000567000000017200
0202LOTE PADRAO                   COPEL       PNB*       CPLE6       010VISTA          000000000017000000000171000000001650000000000000000000170000023184500
0202LOTE PADRAO                   VALE R DOCE ON         VALE3       010VISTA          000000000050200000000504000000005000000000000000000000502000000001100
0202LOTE PADRAO                   ARACRUZ     PNB        ARCZ6       010VISTA          000000000003800000000038000000000370000000000000000000038100000029000
0202LOTE PADRAO                   TELEMIG PARTPN *       TMCP4       010VISTA          000000000004900000000053000000000490000000000000000000052000269465000
0202LOTE PADRAO                   BRASIL TELECPN *       BRTO4       010VISTA          000000000012800000000133000000001280000000000000000000133000048646000
0202LOTE PADRAO                   SABESP      ON *       SBSP3       010VISTA          000000000169900000001700000000016150000000000000000001700000001255700
0202LOTE PADRAO                   BRASKEM     PNA*       BRKM5       010VISTA          000000000538000000005430000000053000000000000000000005430000000068500
0202LOTE PADRAO                   EMBRAER     PN EJ      EMBR4       010VISTA          000000000023300000000250000000002300000000000000000000246000000005300
0202LOTE PADRAO                   TELESP      PN * EJ    TLPP4       010VISTA          000000000030400000000315000000003040000000000000000000315000013063400
0202LOTE PADRAO                   EMBRAER     ON EJ      EMBR3       010VISTA          000000000018750000000193000000001860000000000000000000193000000015800
0202LOTE PADRAO                   AMBEV       PN *       AMBV4       010VISTA          000000000567800000005770000000056780000000000000000005770000000907600
0202LOTE PADRAO                   USIMINAS    PNA        USIM5       010VISTA          000000000006900000000069000000000640000000000000000000065000000077600
0202LOTE PADRAO                   ELETROPAULO PN *       ELPL4       010VISTA          000000000054500000000546000000005150000000000000000000541000004998400
0202LOTE PADRAO                   TELE NORD CLPN *       TNEP4       010VISTA          000000000003800000000040000000000375000000000000000000039600192389000
0202LOTE PADRAO                   CEMIG       PN * EJ    CMIG4       010VISTA          000000000023000000000231000000002260000000000000000000230000048606500
0202LOTE PADRAO                   TELE CL SUL PN * EJ    TCSL4       010VISTA          000000000004900000000050000000000490000000000000000000050000095769100
0202LOTE PADRAO                   CEMIG       ON * EJ    CMIG3       010VISTA          000000000023000000000235000000002250000000000000000000226000001988600
0202LOTE PADRAO                   TELE CL SUL ON * EJ    TCSL3       010VISTA          000000000003700000000041000000000370000000000000000000040000061304200
0202LOTE PADRAO                   ITAUSA      PN         ITSA4       010VISTA          000000000001970000000019700000000180000000000000000000019400000230700
0202LOTE PADRAO                   SID TUBARAO PN *       CSTB4       010VISTA          000000000024300000000246000000002400000000000000000000246000005305000
0202LOTE PADRAO                   V C P       PN *       VCPA4       010VISTA          000000000061400000000620000000006100000000000000000000615000002898100
0202LOTE PADRAO                   BRADESPAR   PN *       BRAP4       010VISTA          000000000000940000000009400000000091000000000000000000009200092993600
0202LOTE PADRAO                   NET         PN         PLIM4       010VISTA          000000000000970000000010000000000097000000000000000000009900000455900
0202LOTE PADRAO                   TELE CTR OESPN * EJ    TCOC4       010VISTA          000000000006600000000075000000000650000000000000000000072000280040000
0202LOTE PADRAO                   GERDAU      PN * EJ    GGBR4       010VISTA          000000000016750000000171000000001575000000000000000000162000014270800
0202LOTE PADRAO                   BRASIL      ON *       BBAS3       010VISTA          000000000008400000000084000000000820000000000000000000082000002293800
