00BDIN9999BOVESPA 99992001112220011122
0101IBOVESPA                      0127940127940130560000000000000000002001112200000020011122013019000000
0202LOTE PADRAO                   EMBRATEL PARPN *       EBTP4       010VISTA          000000000009800000000099000000000960000000000000000000099000034023300
0202LOTE PADRAO                   EMBRATEL PARON *       EBTP3       010VISTA          000000000010500000000107000000001030000000000000000000107000004911800
0202LOTE PADRAO                   TRAN PAULISTPN * EJ    TRPL4       010VISTA          000000000005700000000059000000000570000000000000000000059000008519400
0202LOTE PADRAO                   TELEMAR     PN * EJ    TNLP4       010VISTA          000000000032300000000326000000003190000000000000000000322000142556000
0202LOTE PADRAO                   ITAUBANCO   PN * EJ    ITAU4       010VISTA          000000000185000000001875000000018490000000000000000001865000005228500
0202LOTE PADRAO                   TELEMAR     ON * EJ    TNLP3       010VISTA          000000000027900000000283000000002760000000000000000000278000019257000
0202LOTE PADRAO                   SID NACIONALON *       CSNA3       010VISTA          000000000037200000000372000000003620000000000000000000363000001680400
0202LOTE PADRAO                   TELE LEST CLPN *       TLCP4       010VISTA          000000000000900000000009400000000089000000000000000000009300147965000
0202LOTE PADRAO                   CRT CELULAR PNA* EJ    CRTP5       010VISTA          000000000450000000004640000000045000000000000000000004639000000437000
0202LOTE PADRAO                   IPIRANGA PETPN *       PTIP4       010VISTA          000000000013400000000137000000001340000000000000000000137000000620000
0202LOTE PADRAO                   BRASIL T PARPN *       BRTP4       010VISTA          000000000017800000000179000000001750000000000000000000178000043967000
0202LOTE PADRAO                   BRASIL T PARON *       BRTP3       010VISTA          000000000018000000000180000000001750000000000000000000178000001958800
0202LOTE PADRAO                   ACESITA     PN *       ACES4       010VISTA          000000000000580000000006300000000058000000000000000000006300447933000
0202LOTE PADRAO                   PETROBRAS   PN         PETR4       010VISTA          000000000049800000000508000000004970000000000000000000508000000111700
0202LOTE PADRAO                   ELETROBRAS  PNB*       ELET6       010VISTA          000000000034700000000352500000003470000000000000000000348000023393000
0202LOTE PADRAO                   PETROBRAS   ON         PETR3       010VISTA          000000000050900000000528000000005090000000000000000000525000000021800
0202LOTE PADRAO                   COMGAS      PNA*       CGAS5       010VISTA          000000000088000000000905000000008720000000000000000000890000002259700
0202LOTE PADRAO                   SOUZA CRUZ  ON EJ      CRUZ3       010VISTA          000000000012900000000129000000001290000000000000000000129000000010900
0202LOTE PADRAO                   ELETROBRAS  ON *       ELET3       010VISTA          000000000036000000000363000000003570000000000000000000363000009282800
0202LOTE PADRAO                   CELESC      PNB        CLSC6       010VISTA          000000000000480000000004900000000048000000000000000000004900000242000
0202LOTE PADRAO                   BRADESCO    PN * EJ    BBDC4       010VISTA          000000000012300000000124000000001230000000000000000000124000083491300
0202LOTE PADRAO                   CESP        PN *       CESP4       010VISTA          000000000013400000000142500000001340000000000000000000141000026002500
0202LOTE PADRAO                   LIGHT       ON *       LIGH3       010VISTA          000000000093900000001049000000009390000000000000000001000000001637200
0202LOTE PADRAO                   TELESP CL PAPN *       TSPP4       010VISTA          000000000007200000000075000000000725000000000000000000075000130017000
0202LOTE PADRAO                   VALE R DOCE PNA        VALE5       010VISTA          000000000054500000000555000000005370000000000000000000550000000014200
0202LOTE PADRAO                   COPEL       PNB*       CPLE6       010VISTA          000000000016000000000165000000001590000000000000000000165000049426200
0202LOTE PADRAO                   VALE R DOCE ON         VALE3       010VISTA          000000000052500000000525000000005180000000000000000000520000000000500
0202LOTE PADRAO                   ARACRUZ     PNB        ARCZ6       010VISTA          000000000004600000000046000000000450000000000000000000046000000015300
0202LOTE PADRAO                   TELEMIG PARTPN *       TMCP4       010VISTA          000000000004100000000042000000000410000000000000000000042000030673300
0202LOTE PADRAO                   BRASIL TELECPN *       BRTO4       010VISTA          000000000012900000000131000000001280000000000000000000130000061292700
0202LOTE PADRAO                   SABESP      ON *       SBSP3       010VISTA          000000000131000000001315000000012900000000000000000001310000000315400
0202LOTE PADRAO                   BRASKEM     PNA*       BRKM5       010VISTA          000000000410000000004180000000040900000000000000000004100000000312100
0202LOTE PADRAO                   EMBRAER     PN EJ      EMBR4       010VISTA          000000000011250000000113000000001125000000000000000000113000000022700
0202LOTE PADRAO                   TELESP      PN * EJ    TLPP4       010VISTA          000000000029250000000299000000002925000000000000000000298000004372300
0202LOTE PADRAO                   EMBRAER     ON EJ      EMBR3       010VISTA          000000000009600000000099000000000950000000000000000000099000000015100
0202LOTE PADRAO                   AMBEV       PN *       AMBV4       010VISTA          000000000490000000004920000000049000000000000000000004905000000124900
0202LOTE PADRAO                   USIMINAS    PNA        USIM5       010VISTA          000000000005900000000061000000000590000000000000000000061000000078900
0202LOTE PADRAO                   ELETROPAULO PN *       ELPL4       010VISTA          000000000072800000000760000000007280000000000000000000750000004958200
0202LOTE PADRAO                   TELE NORD CLPN *       TNEP4       010VISTA          000000000003100000000032000000000310000000000000000000032000014241000
0202LOTE PADRAO                   CEMIG       PN * EJ    CMIG4       010VISTA          000000000028700000000293000000002860000000000000000000291000015415900
0202LOTE PADRAO                   TELE CL SUL PN * EJ    TCSL4       010VISTA          000000000003400000000035000000000340000000000000000000035200020746000
0202LOTE PADRAO                   CEMIG       ON * EJ    CMIG3       010VISTA          000000000027000000000275000000002680000000000000000000275000000470200
0202LOTE PADRAO                   TELE CL SUL ON * EJ    TCSL3       010VISTA          000000000002800000000029000000000280000000000000000000029800034095000
0202LOTE PADRAO                   ITAUSA      PN         ITSA4       010VISTA          000000000002100000000021000000000210000000000000000000021000000324400
0202LOTE PADRAO                   V C P       PN *       VCPA4       010VISTA          000000000080000000000800000000007800000000000000000000800000001357400
0202LOTE PADRAO                   SID TUBARAO PN *       CSTB4       010VISTA          000000000019800000000204000000001980000000000000000000201000005057200
0202LOTE PADRAO                   BRADESPAR   PN *       BRAP4       010VISTA          000000000000750000000007600000000073000000000000000000007400096711300
0202LOTE PADRAO                   NET         PN         PLIM4       010VISTA          000000000000770000000007900000000076000000000000000000007600000265400
0202LOTE PADRAO                   TELE CTR OESPN * EJ    TCOC4       010VISTA          000000000005600000000057000000000560000000000000000000057500046743700
0202LOTE PADRAO                   TELEMAR N L PNA* EJ    TMAR5       010VISTA          000000000052300000000527000000005220000000000000000000526000013996200
0202LOTE PADRAO                   GERDAU      PN * EJ    GGBR4       010VISTA          000000000022600000000235000000002260000000000000000000235000012012900
0202LOTE PADRAO                   BRASIL      ON *       BBAS3       010VISTA          000000000009400000000095000000000900000000000000000000091000005810700
