00BDIN9999BOVESPA 99992001111220011112
0101IBOVESPA                      0127290122330127670000000000000000002001111200000020011112012567000000
0202LOTE PADRAO                   EMBRATEL PARPN *       EBTP4       010VISTA          000000000009000000000095000000000890000000000000000000093000184577000
0202LOTE PADRAO                   EMBRATEL PARON *       EBTP3       010VISTA          000000000009800000000102000000000960000000000000000000100000042329300
0202LOTE PADRAO                   TRAN PAULISTPN * EJ    TRPL4       010VISTA          000000000005800000000059000000000540000000000000000000056000008807600
0202LOTE PADRAO                   TELEMAR     PN * EJ    TNLP4       010VISTA          000000000032700000000332500000003110000000000000000000328000299501000
0202LOTE PADRAO                   ITAUBANCO   PN * EJ    ITAU4       010VISTA          000000000182000000001824000000017900000000000000000001795000004789300
0202LOTE PADRAO                   TELEMAR     ON * EJ    TNLP3       010VISTA          000000000029100000000291000000002750000000000000000000290000012695600
0202LOTE PADRAO                   SID NACIONALON *       CSNA3       010VISTA          000000000033500000000335000000003160000000000000000000326000008351300
0202LOTE PADRAO                   TELE LEST CLPN *       TLCP4       010VISTA          000000000000820000000008300000000078000000000000000000008000266318000
0202LOTE PADRAO                   CRT CELULAR PNA* EJ    CRTP5       010VISTA          000000000449000000004500000000042000000000000000000004340000000560500
0202LOTE PADRAO                   IPIRANGA PETPN *       PTIP4       010VISTA          000000000013500000000140000000001320000000000000000000140000005061900
0202LOTE PADRAO                   BRASIL T PARPN *       BRTP4       010VISTA          000000000018600000000190000000001730000000000000000000186000085054600
0202LOTE PADRAO                   BRASIL T PARON *       BRTP3       010VISTA          000000000017500000000190000000001730000000000000000000180000064392600
0202LOTE PADRAO                   ACESITA     PN *       ACES4       010VISTA          000000000000580000000006000000000056000000000000000000005700256284000
0202LOTE PADRAO                   PETROBRAS   PN         PETR4       010VISTA          000000000053700000000537000000005130000000000000000000515000000119400
0202LOTE PADRAO                   ELETROBRAS  PNB*       ELET6       010VISTA          000000000033600000000337000000003200000000000000000000321000043664300
0202LOTE PADRAO                   PETROBRAS   ON         PETR3       010VISTA          000000000056000000000560000000005370000000000000000000538000000024000
0202LOTE PADRAO                   COMGAS      PNA*       CGAS5       010VISTA          000000000088000000000920000000008200000000000000000000875000002272800
0202LOTE PADRAO                   SOUZA CRUZ  ON EJ      CRUZ3       010VISTA          000000000012400000000124000000001190000000000000000000122000000006200
0202LOTE PADRAO                   ELETROBRAS  ON *       ELET3       010VISTA          000000000034800000000357500000003380000000000000000000339000011340500
0202LOTE PADRAO                   CELESC      PNB        CLSC6       010VISTA          000000000000490000000004900000000045000000000000000000004700000191100
0202LOTE PADRAO                   BRADESCO    PN * EJ    BBDC4       010VISTA          000000000011500000000118000000001110000000000000000000116000104313000
0202LOTE PADRAO                   CESP        PN *       CESP4       010VISTA          000000000012500000000125000000001180000000000000000000121000011474400
0202LOTE PADRAO                   LIGHT       ON *       LIGH3       010VISTA          000000000092000000000920000000008500000000000000000000890000000637600
0202LOTE PADRAO                   TELESP CL PAPN *       TSPP4       010VISTA          000000000006600000000067900000000620000000000000000000065000306929000
0202LOTE PADRAO                   VALE R DOCE PNA        VALE5       010VISTA          000000000054600000000546000000005200000000000000000000535000000012600
0202LOTE PADRAO                   COPEL       PNB*       CPLE6       010VISTA          000000000015100000000153000000001400000000000000000000150000037376700
0202LOTE PADRAO                   VALE R DOCE ON         VALE3       010VISTA          000000000050700000000509000000005010000000000000000000509000000000200
0202LOTE PADRAO                   ARACRUZ     PNB        ARCZ6       010VISTA          000000000004500000000046000000000410000000000000000000046000000029500
0202LOTE PADRAO                   TELEMIG PARTPN *       TMCP4       010VISTA          000000000004100000000041000000000380000000000000000000040000082738100
0202LOTE PADRAO                   BRASIL TELECPN *       BRTO4       010VISTA          000000000012700000000135000000001210000000000000000000130000176077000
0202LOTE PADRAO                   SABESP      ON *       SBSP3       010VISTA          000000000120000000001200000000011600000000000000000001171000000541600
0202LOTE PADRAO                   BRASKEM     PNA*       BRKM5       010VISTA          000000000405100000004200000000040100000000000000000004105000000236100
0202LOTE PADRAO                   EMBRAER     PN EJ      EMBR4       010VISTA          000000000010900000000109000000000980000000000000000000104000000123900
0202LOTE PADRAO                   TELESP      PN * EJ    TLPP4       010VISTA          000000000029300000000293000000002750000000000000000000283000016766900
0202LOTE PADRAO                   EMBRAER     ON EJ      EMBR3       010VISTA          000000000009500000000096000000000850000000000000000000090000000079200
0202LOTE PADRAO                   AMBEV       PN *       AMBV4       010VISTA          000000000480000000004800000000045000000000000000000004750000001031600
0202LOTE PADRAO                   USIMINAS    PNA        USIM5       010VISTA          000000000004900000000049000000000460000000000000000000047000000057600
0202LOTE PADRAO                   ELETROPAULO PN *       ELPL4       010VISTA          000000000069800000000707000000006800000000000000000000697000006690200
0202LOTE PADRAO                   TELE NORD CLPN *       TNEP4       010VISTA          000000000003200000000032500000000300000000000000000000031000086003500
0202LOTE PADRAO                   CEMIG       PN * EJ    CMIG4       010VISTA          000000000029100000000291000000002760000000000000000000286000028086500
0202LOTE PADRAO                   TELE CL SUL PN * EJ    TCSL4       010VISTA          000000000003300000000033000000000310000000000000000000033000061712100
0202LOTE PADRAO                   CEMIG       ON * EJ    CMIG3       010VISTA          000000000027300000000273000000002560000000000000000000263000003791000
0202LOTE PADRAO                   TELE CL SUL ON * EJ    TCSL3       010VISTA          000000000002800000000028000000000270000000000000000000028000036382400
0202LOTE PADRAO                   ITAUSA      PN         ITSA4       010VISTA          000000000001980000000019800000000180000000000000000000019700000226300
0202LOTE PADRAO                   V C P       PN *       VCPA4       010VISTA          000000000076500000000770000000007500000000000000000000770000003247100
0202LOTE PADRAO                   SID TUBARAO PN *       CSTB4       010VISTA          000000000018000000000180000000001680000000000000000000171000004782700
0202LOTE PADRAO                   BRADESPAR   PN *       BRAP4       010VISTA          000000000000730000000007400000000069000000000000000000007200235176000
0202LOTE PADRAO                   NET         PN         PLIM4       010VISTA          000000000000790000000007900000000075000000000000000000007600001111200
0202LOTE PADRAO                   TELE CTR OESPN * EJ    TCOC4       010VISTA          000000000005200000000052000000000470000000000000000000051000067931500
0202LOTE PADRAO                   TELEMAR N L PNA* EJ    TMAR5       010VISTA          000000000050600000000508000000004850000000000000000000505000045913400
0202LOTE PADRAO                   GERDAU      PN * EJ    GGBR4       010VISTA          000000000019000000000198000000001830000000000000000000198000005982600
0202LOTE PADRAO                   BRASIL      ON *       BBAS3       010VISTA          000000000008400000000084000000000800000000000000000000081000002848400
