00BDIN9999BOVESPA 99992001072620010726
0101IBOVESPA                      0139630137360139800000000000000000002001072600000020010726013810000000
0202LOTE PADRAO                   EMBRATEL PARPN *       EBTP4       010VISTA          000000000014300000000146000000001390000000000000000000142000109988000
0202LOTE PADRAO                   EMBRATEL PARON *       EBTP3       010VISTA          000000000014400000000151000000001400000000000000000000147500042911100
0202LOTE PADRAO                   TRAN PAULISTPN * EJ    TRPL4       010VISTA          000000000006800000000069000000000670000000000000000000067000020939100
0202LOTE PADRAO                   TELEMAR     PN * EJ    TNLP4       010VISTA          000000000032500000000326000000003160000000000000000000318000160943000
0202LOTE PADRAO                   ITAUBANCO   PN * EJ    ITAU4       010VISTA          000000000187000000001870000000018300000000000000000001850000004714300
0202LOTE PADRAO                   TELEMAR     ON * EJ    TNLP3       010VISTA          000000000028000000000280000000002690000000000000000000273000032830500
0202LOTE PADRAO                   SID NACIONALON *       CSNA3       010VISTA          000000000041700000000417000000004070000000000000000000410000004306300
0202LOTE PADRAO                   TELE LEST CLPN *       TLCP4       010VISTA          000000000001600000000016000000000155000000000000000000015500131912000
0202LOTE PADRAO                   CRT CELULAR PNA* EJ    CRTP5       010VISTA          000000000830000000008500000000083000000000000000000008500000000461400
0202LOTE PADRAO                   IPIRANGA PETPN *       PTIP4       010VISTA          000000000016300000000163000000001600000000000000000000160000003142100
0202LOTE PADRAO                   BRASIL T PARPN *       BRTP4       010VISTA          000000000018300000000183000000001800000000000000000000181000036828200
0202LOTE PADRAO                   BRASIL T PARON *       BRTP3       010VISTA          000000000017600000000176000000001700000000000000000000171000003622700
0202LOTE PADRAO                   ACESITA     PN *       ACES4       010VISTA          000000000000610000000006100000000058000000000000000000005800139566000
0202LOTE PADRAO                   PETROBRAS   PN         PETR4       010VISTA          000000000054600000000547000000005330000000000000000000533000000074100
0202LOTE PADRAO                   ELETROBRAS  PNB*       ELET6       010VISTA          000000000028800000000306000000002830000000000000000000303000075271400
0202LOTE PADRAO                   PETROBRAS   ON         PETR3       010VISTA          000000000058200000000593000000005820000000000000000000583000000055200
0202LOTE PADRAO                   COMGAS      PNA*       CGAS5       010VISTA          000000000135600000001359000000013100000000000000000001330000001170000
0202LOTE PADRAO                   SOUZA CRUZ  ON EJ      CRUZ3       010VISTA          000000000011300000000113000000001110000000000000000000112500000005400
0202LOTE PADRAO                   ELETROBRAS  ON *       ELET3       010VISTA          000000000032700000000356000000003250000000000000000000346000024730400
0202LOTE PADRAO                   CELESC      PNB        CLSC6       010VISTA          000000000000430000000004400000000042000000000000000000004300000084800
0202LOTE PADRAO                   BRADESCO    PN * EJ    BBDC4       010VISTA          000000000011500000000115000000001130000000000000000000114000109311000
0202LOTE PADRAO                   CESP        PN *       CESP4       010VISTA          000000000012600000000133000000001250000000000000000000133000006731100
0202LOTE PADRAO                   LIGHT       ON *       LIGH3       010VISTA          000000000114500000001155000000011300000000000000000001130000000195500
0202LOTE PADRAO                   TELESP CL PAPN *       TSPP4       010VISTA          000000000014100000000143000000001390000000000000000000140000046468500
0202LOTE PADRAO                   VALE R DOCE PNA        VALE5       010VISTA          000000000052500000000527000000005220000000000000000000527000000020100
0202LOTE PADRAO                   COPEL       PNB*       CPLE6       010VISTA          000000000018300000000183000000001730000000000000000000178000041982900
0202LOTE PADRAO                   VALE R DOCE ON         VALE3       010VISTA          000000000052500000000525000000005240000000000000000000525000000001000
0202LOTE PADRAO                   ARACRUZ     PNB        ARCZ6       010VISTA          000000000003800000000039000000000380000000000000000000039000000007100
0202LOTE PADRAO                   TELEMIG PARTPN *       TMCP4       010VISTA          000000000004500000000047000000000450000000000000000000046000055442600
0202LOTE PADRAO                   BRASIL TELECPN *       BRTO4       010VISTA          000000000012750000000127500000001200000000000000000000121000106212000
0202LOTE PADRAO                   SABESP      ON *       SBSP3       010VISTA          000000000164900000001649000000016100000000000000000001625000000719900
0202LOTE PADRAO                   BRASKEM     PNA*       BRKM5       010VISTA          000000000564900000005649000000054000000000000000000005410000000408200
0202LOTE PADRAO                   EMBRAER     PN EJ      EMBR4       010VISTA          000000000022300000000223000000002200000000000000000000220000000024500
0202LOTE PADRAO                   TELESP      PN * EJ    TLPP4       010VISTA          000000000025700000000258000000002520000000000000000000253000005665400
0202LOTE PADRAO                   EMBRAER     ON EJ      EMBR3       010VISTA          000000000017600000000176000000001730000000000000000000175000000026400
0202LOTE PADRAO                   AMBEV       PN *       AMBV4       010VISTA          000000000510000000005100000000050600000000000000000005100000001079300
0202LOTE PADRAO                   USIMINAS    PNA        USIM5       010VISTA          000000000006400000000064000000000600000000000000000000061000000037700
0202LOTE PADRAO                   ELETROPAULO PN *       ELPL4       010VISTA          000000000063000000000645000000006190000000000000000000640000001289200
0202LOTE PADRAO                   TELE NORD CLPN *       TNEP4       010VISTA          000000000003750000000037000000000360000000000000000000036000078649000
0202LOTE PADRAO                   CEMIG       PN * EJ    CMIG4       010VISTA          000000000027000000000281000000002700000000000000000000277000047806500
0202LOTE PADRAO                   TELE CL SUL PN * EJ    TCSL4       010VISTA          000000000004000000000042000000000400000000000000000000041000024387800
0202LOTE PADRAO                   CEMIG       ON * EJ    CMIG3       010VISTA          000000000026100000000268000000002610000000000000000000265000004199900
0202LOTE PADRAO                   TELE CL SUL ON * EJ    TCSL3       010VISTA          000000000003400000000034000000000320000000000000000000032700011194300
0202LOTE PADRAO                   ITAUSA      PN         ITSA4       010VISTA          000000000002000000000020000000000198000000000000000000020000000302700
0202LOTE PADRAO                   SID TUBARAO PN *       CSTB4       010VISTA          000000000019700000000200000000001950000000000000000000200000007695000
0202LOTE PADRAO                   V C P       PN *       VCPA4       010VISTA          000000000062000000000620000000006000000000000000000000600000002254600
0202LOTE PADRAO                   BRADESPAR   PN *       BRAP4       010VISTA          000000000000830000000008300000000080000000000000000000008100144568000
0202LOTE PADRAO                   NET         PN         PLIM4       010VISTA          000000000001000000000010000000000100000000000000000000010000000735500
0202LOTE PADRAO                   TELE CTR OESPN * EJ    TCOC4       010VISTA          000000000006000000000060000000000570000000000000000000059000028732800
0202LOTE PADRAO                   GERDAU      PN * EJ    GGBR4       010VISTA          000000000017300000000176000000001700000000000000000000173000005614500
0202LOTE PADRAO                   BRASIL      ON *       BBAS3       010VISTA          000000000009000000000092000000000890000000000000000000089000003865900
