00BDIN9999BOVESPA 99992001082120010821
0101IBOVESPA                      0131220128860131860000000000000000002001082100000020010821012892000000
0202LOTE PADRAO                   EMBRATEL PARPN *       EBTP4       010VISTA          000000000011300000000113000000001080000000000000000000108000078510000
0202LOTE PADRAO                   EMBRATEL PARON *       EBTP3       010VISTA          000000000012000000000120000000001150000000000000000000115000025074900
0202LOTE PADRAO                   TRAN PAULISTPN * EJ    TRPL4       010VISTA          000000000006800000000068000000000650000000000000000000065000019651000
0202LOTE PADRAO                   TELEMAR     PN * EJ    TNLP4       010VISTA          000000000030600000000308000000002980000000000000000000298000170352000
0202LOTE PADRAO                   ITAUBANCO   PN * EJ    ITAU4       010VISTA          000000000179500000001825000000017860000000000000000001799000009467500
0202LOTE PADRAO                   TELEMAR     ON * EJ    TNLP3       010VISTA          000000000028000000000280000000002700000000000000000000271000021507100
0202LOTE PADRAO                   SID NACIONALON *       CSNA3       010VISTA          000000000037250000000372500000003660000000000000000000367000007877400
0202LOTE PADRAO                   TELE LEST CLPN *       TLCP4       010VISTA          000000000001400000000014000000000130000000000000000000013000146901000
0202LOTE PADRAO                   CRT CELULAR PNA* EJ    CRTP5       010VISTA          000000000935000000009600000000092500000000000000000009400000001365900
0202LOTE PADRAO                   IPIRANGA PETPN *       PTIP4       010VISTA          000000000015100000000151000000001430000000000000000000143000004272200
0202LOTE PADRAO                   BRASIL T PARPN *       BRTP4       010VISTA          000000000016000000000161000000001550000000000000000000159000074000200
0202LOTE PADRAO                   BRASIL T PARON *       BRTP3       010VISTA          000000000016000000000160000000001500000000000000000000150000018504800
0202LOTE PADRAO                   ACESITA     PN *       ACES4       010VISTA          000000000000570000000005700000000054000000000000000000005500182700000
0202LOTE PADRAO                   PETROBRAS   PN         PETR4       010VISTA          000000000052250000000530000000005190000000000000000000522000000091700
0202LOTE PADRAO                   ELETROBRAS  PNB*       ELET6       010VISTA          000000000031100000000313000000003100000000000000000000311000021365000
0202LOTE PADRAO                   PETROBRAS   ON         PETR3       010VISTA          000000000054100000000542000000005360000000000000000000542000000075500
0202LOTE PADRAO                   COMGAS      PNA*       CGAS5       010VISTA          000000000133700000001337000000012700000000000000000001280000004671100
0202LOTE PADRAO                   SOUZA CRUZ  ON EJ      CRUZ3       010VISTA          000000000010900000000109000000001070000000000000000000107000000012600
0202LOTE PADRAO                   ELETROBRAS  ON *       ELET3       010VISTA          000000000035000000000360000000003450000000000000000000353000015945100
0202LOTE PADRAO                   CELESC      PNB        CLSC6       010VISTA          000000000000430000000004300000000040000000000000000000004300000261700
0202LOTE PADRAO                   BRADESCO    PN * EJ    BBDC4       010VISTA          000000000011500000000116000000001140000000000000000000114000133653000
0202LOTE PADRAO                   CESP        PN *       CESP4       010VISTA          000000000013200000000133000000001210000000000000000000124000013822000
0202LOTE PADRAO                   LIGHT       ON *       LIGH3       010VISTA          000000000120000000001200000000011250000000000000000001139000000521000
0202LOTE PADRAO                   TELESP CL PAPN *       TSPP4       010VISTA          000000000014000000000144000000001390000000000000000000142500075413100
0202LOTE PADRAO                   VALE R DOCE PNA        VALE5       010VISTA          000000000052000000000525000000005170000000000000000000522500000032900
0202LOTE PADRAO                   COPEL       PNB*       CPLE6       010VISTA          000000000018000000000186000000001800000000000000000000180000050422700
0202LOTE PADRAO                   VALE R DOCE ON         VALE3       010VISTA          000000000051500000000515000000005120000000000000000000515000000001900
0202LOTE PADRAO                   ARACRUZ     PNB        ARCZ6       010VISTA          000000000004100000000042000000000400000000000000000000041000000068500
0202LOTE PADRAO                   TELEMIG PARTPN *       TMCP4       010VISTA          000000000004000000000040000000000380000000000000000000039000067302900
0202LOTE PADRAO                   BRASIL TELECPN *       BRTO4       010VISTA          000000000010900000000109000000001050000000000000000000108000090850400
0202LOTE PADRAO                   SABESP      ON *       SBSP3       010VISTA          000000000166000000001670000000016500000000000000000001650000002573300
0202LOTE PADRAO                   BRASKEM     PNA*       BRKM5       010VISTA          000000000450000000004530000000042500000000000000000004250000000523900
0202LOTE PADRAO                   EMBRAER     PN EJ      EMBR4       010VISTA          000000000018300000000189000000001820000000000000000000187000000040500
0202LOTE PADRAO                   TELESP      PN * EJ    TLPP4       010VISTA          000000000025300000000253000000002500000000000000000000251000010840000
0202LOTE PADRAO                   EMBRAER     ON EJ      EMBR3       010VISTA          000000000015000000000151000000001480000000000000000000148000000015200
0202LOTE PADRAO                   AMBEV       PN *       AMBV4       010VISTA          000000000489000000005000000000048700000000000000000004900000002310900
0202LOTE PADRAO                   USIMINAS    PNA        USIM5       010VISTA          000000000006000000000060000000000570000000000000000000058000000040900
0202LOTE PADRAO                   ELETROPAULO PN *       ELPL4       010VISTA          000000000070000000000700000000006520000000000000000000667000008306700
0202LOTE PADRAO                   TELE NORD CLPN *       TNEP4       010VISTA          000000000003000000000030000000000280000000000000000000029000073245000
0202LOTE PADRAO                   CEMIG       PN * EJ    CMIG4       010VISTA          000000000027600000000276000000002650000000000000000000265000039219900
0202LOTE PADRAO                   TELE CL SUL PN * EJ    TCSL4       010VISTA          000000000003600000000037100000000350000000000000000000035000072144300
0202LOTE PADRAO                   CEMIG       ON * EJ    CMIG3       010VISTA          000000000026100000000265000000002500000000000000000000263000002708100
0202LOTE PADRAO                   TELE CL SUL ON * EJ    TCSL3       010VISTA          000000000003000000000030000000000290000000000000000000029000033110200
0202LOTE PADRAO                   ITAUSA      PN         ITSA4       010VISTA          000000000001980000000019900000000194000000000000000000019800000274700
0202LOTE PADRAO                   SID TUBARAO PN *       CSTB4       010VISTA          000000000020700000000208000000002000000000000000000000200000009652900
0202LOTE PADRAO                   V C P       PN *       VCPA4       010VISTA          000000000067000000000672000000006700000000000000000000672000001440900
0202LOTE PADRAO                   BRADESPAR   PN *       BRAP4       010VISTA          000000000000730000000007300000000066000000000000000000006700429990000
0202LOTE PADRAO                   NET         PN         PLIM4       010VISTA          000000000000850000000008500000000075000000000000000000007500002139400
0202LOTE PADRAO                   TELE CTR OESPN * EJ    TCOC4       010VISTA          000000000005500000000056000000000540000000000000000000055000051814600
0202LOTE PADRAO                   GERDAU      PN * EJ    GGBR4       010VISTA          000000000016500000000168000000001650000000000000000000165000008057500
0202LOTE PADRAO                   BRASIL      ON *       BBAS3       010VISTA          000000000009300000000094000000000900000000000000000000091000006178600
