00BDIN9999BOVESPA 99992001050720010507
0101IBOVESPA                      0151030148620152220000000000000000002001050700000020010507014875000000
0202LOTE PADRAO                   EMBRATEL PARPN *       EBTP4       010VISTA          000000000020500000000206000000002000000000000000000000200000034102400
0202LOTE PADRAO                   EMBRATEL PARON *       EBTP3       010VISTA          000000000018600000000191000000001860000000000000000000188000021963000
0202LOTE PADRAO                   TRAN PAULISTPN * EJ    TRPL4       010VISTA          000000000007200000000072000000000690000000000000000000069000005012000
0202LOTE PADRAO                   TELEMAR     PN * EJ    TNLP4       010VISTA          000000000039300000000397000000003850000000000000000000385000148490000
0202LOTE PADRAO                   ITAUBANCO   PN * EJ    ITAU4       010VISTA          000000000184200000001845000000018300000000000000000001830000002237700
0202LOTE PADRAO                   TELEMAR     ON * EJ    TNLP3       010VISTA          000000000035100000000351000000003420000000000000000000346000011637100
0202LOTE PADRAO                   SID NACIONALON *       CSNA3       010VISTA          000000000051300000000520000000005130000000000000000000514000005720500
0202LOTE PADRAO                   TELE LEST CLPN *       TLCP4       010VISTA          000000000001600000000017700000000160000000000000000000017200270956000
0202LOTE PADRAO                   IPIRANGA PETPN *       PTIP4       010VISTA          000000000016100000000164000000001610000000000000000000163000000319900
0202LOTE PADRAO                   BRASIL T PARPN *       BRTP4       010VISTA          000000000019600000000196000000001850000000000000000000186000048685000
0202LOTE PADRAO                   BRASIL T PARON *       BRTP3       010VISTA          000000000019000000000193000000001880000000000000000000188000015062700
0202LOTE PADRAO                   ACESITA     PN *       ACES4       010VISTA          000000000000850000000008500000000083000000000000000000008300117592000
0202LOTE PADRAO                   PETROBRAS   PN         PETR4       010VISTA          000000000055200000000560000000005370000000000000000000537000000042600
0202LOTE PADRAO                   ELETROBRAS  PNB*       ELET6       010VISTA          000000000032100000000327000000003150000000000000000000320000023805000
0202LOTE PADRAO                   PETROBRAS   ON         PETR3       010VISTA          000000000060000000000607000000005850000000000000000000588000000018700
0202LOTE PADRAO                   COMGAS      PNA*       CGAS5       010VISTA          000000000136100000001379000000013250000000000000000001379000002299500
0202LOTE PADRAO                   SOUZA CRUZ  ON EJ      CRUZ3       010VISTA          000000000010700000000108000000001060000000000000000000107000000009400
0202LOTE PADRAO                   CELESC      PNB        CLSC6       010VISTA          000000000000500000000005100000000049000000000000000000005000000089700
0202LOTE PADRAO                   ELETROBRAS  ON *       ELET3       010VISTA          000000000035500000000361000000003550000000000000000000357000014223500
0202LOTE PADRAO                   BRADESCO    PN * EJ    BBDC4       010VISTA          000000000012000000000121000000001190000000000000000000121000138169000
0202LOTE PADRAO                   CESP        PN *       CESP4       010VISTA          000000000021600000000221000000002110000000000000000000212500019267400
0202LOTE PADRAO                   LIGHT       ON *       LIGH3       010VISTA          000000000172000000001723000000016110000000000000000001649000000221200
0202LOTE PADRAO                   TELESP CL PAPN *       TSPP4       010VISTA          000000000014400000000149000000001410000000000000000000143000156953000
0202LOTE PADRAO                   VALE R DOCE PNA        VALE5       010VISTA          000000000053000000000533000000005150000000000000000000515000000015500
0202LOTE PADRAO                   COPEL       PNB*       CPLE6       010VISTA          000000000017600000000181000000001760000000000000000000178000017345700
0202LOTE PADRAO                   VALE R DOCE ON         VALE3       010VISTA          000000000049400000000495000000004900000000000000000000490000000001000
0202LOTE PADRAO                   ARACRUZ     PNB        ARCZ6       010VISTA          000000000003250000000032700000000320000000000000000000032500000025600
0202LOTE PADRAO                   TELEMIG PARTPN *       TMCP4       010VISTA          000000000004300000000043000000000420000000000000000000042000098506600
0202LOTE PADRAO                   BRASIL TELECPN *       BRTO4       010VISTA          000000000013900000000139000000001340000000000000000000134000044698700
0202LOTE PADRAO                   SABESP      ON *       SBSP3       010VISTA          000000000175500000001760000000017000000000000000000001700000001372500
0202LOTE PADRAO                   BRASKEM     PNA*       BRKM5       010VISTA          000000000550000000005647000000055000000000000000000005610000000154100
0202LOTE PADRAO                   EMBRAER     PN EJ      EMBR4       010VISTA          000000000022500000000226000000002200000000000000000000221000000040500
0202LOTE PADRAO                   TELESP      PN * EJ    TLPP4       010VISTA          000000000030600000000306000000002980000000000000000000302500007705800
0202LOTE PADRAO                   EMBRAER     ON EJ      EMBR3       010VISTA          000000000018000000000181000000001730000000000000000000174000000014100
0202LOTE PADRAO                   AMBEV       PN *       AMBV4       010VISTA          000000000529900000005400000000052500000000000000000005300000000411600
0202LOTE PADRAO                   USIMINAS    PNA        USIM5       010VISTA          000000000008900000000089000000000820000000000000000000084000000067800
0202LOTE PADRAO                   ELETROPAULO PN *       ELPL4       010VISTA          000000000062800000000630000000005900000000000000000000595000002912700
0202LOTE PADRAO                   TELE NORD CLPN *       TNEP4       010VISTA          000000000003270000000032700000000310000000000000000000032000103244000
0202LOTE PADRAO                   CEMIG       PN * EJ    CMIG4       010VISTA          000000000025600000000261000000002560000000000000000000256000042274100
0202LOTE PADRAO                   TELE CL SUL PN * EJ    TCSL4       010VISTA          000000000004300000000043000000000420000000000000000000042000034838600
0202LOTE PADRAO                   CEMIG       ON * EJ    CMIG3       010VISTA          000000000026000000000260000000002550000000000000000000255000000818000
0202LOTE PADRAO                   TELE CL SUL ON * EJ    TCSL3       010VISTA          000000000003800000000038000000000350000000000000000000035000014489200
0202LOTE PADRAO                   ITAUSA      PN         ITSA4       010VISTA          000000000001960000000019700000000190000000000000000000019500000148500
0202LOTE PADRAO                   SID TUBARAO PN *       CSTB4       010VISTA          000000000021900000000219000000002110000000000000000000216000005213000
0202LOTE PADRAO                   V C P       PN *       VCPA4       010VISTA          000000000060000000000605000000005950000000000000000000598000001060000
0202LOTE PADRAO                   BRADESPAR   PN *       BRAP4       010VISTA          000000000000980000000010000000000097000000000000000000009800185442000
0202LOTE PADRAO                   NET         PN         PLIM4       010VISTA          000000000001260000000012800000000120000000000000000000012400001046700
0202LOTE PADRAO                   TELE CTR OESPN * EJ    TCOC4       010VISTA          000000000006200000000062000000000590000000000000000000061000031107700
0202LOTE PADRAO                   GERDAU      PN * EJ    GGBR4       010VISTA          000000000020000000000201000000001960000000000000000000196000005331300
0202LOTE PADRAO                   BRASIL      ON *       BBAS3       010VISTA          000000000009000000000090000000000880000000000000000000090000006292700
