00BDIN9999BOVESPA 99992001073120010731
0101IBOVESPA                      0137030136390138300000000000000000002001073100000020010731013754000000
0202LOTE PADRAO                   EMBRATEL PARPN *       EBTP4       010VISTA          000000000013400000000135000000001300000000000000000000132000073180400
0202LOTE PADRAO                   EMBRATEL PARON *       EBTP3       010VISTA          000000000014400000000144000000001380000000000000000000140000018088400
0202LOTE PADRAO                   TRAN PAULISTPN * EJ    TRPL4       010VISTA          000000000006500000000066000000000640000000000000000000065400010869000
0202LOTE PADRAO                   TELEMAR     PN * EJ    TNLP4       010VISTA          000000000031500000000318000000003100000000000000000000311000155528000
0202LOTE PADRAO                   ITAUBANCO   PN * EJ    ITAU4       010VISTA          000000000193000000001955000000019200000000000000000001948000005056100
0202LOTE PADRAO                   TELEMAR     ON * EJ    TNLP3       010VISTA          000000000027100000000282500000002710000000000000000000278000023710000
0202LOTE PADRAO                   SID NACIONALON *       CSNA3       010VISTA          000000000040100000000401000000003800000000000000000000390000006145700
0202LOTE PADRAO                   TELE LEST CLPN *       TLCP4       010VISTA          000000000001600000000016000000000150000000000000000000016000057708400
0202LOTE PADRAO                   CRT CELULAR PNA* EJ    CRTP5       010VISTA          000000000919900000009350000000089000000000000000000009070000001758600
0202LOTE PADRAO                   IPIRANGA PETPN *       PTIP4       010VISTA          000000000016000000000163000000001600000000000000000000160000003567000
0202LOTE PADRAO                   BRASIL T PARPN *       BRTP4       010VISTA          000000000018300000000184000000001780000000000000000000179000045439800
0202LOTE PADRAO                   BRASIL T PARON *       BRTP3       010VISTA          000000000017000000000173000000001675000000000000000000171000005954500
0202LOTE PADRAO                   ACESITA     PN *       ACES4       010VISTA          000000000000600000000006000000000058000000000000000000005800131560000
0202LOTE PADRAO                   PETROBRAS   PN         PETR4       010VISTA          000000000054000000000542500000005350000000000000000000542000000066100
0202LOTE PADRAO                   ELETROBRAS  PNB*       ELET6       010VISTA          000000000030000000000309000000002960000000000000000000309000039494700
0202LOTE PADRAO                   PETROBRAS   ON         PETR3       010VISTA          000000000058000000000587000000005800000000000000000000584000000017700
0202LOTE PADRAO                   COMGAS      PNA*       CGAS5       010VISTA          000000000133900000001339000000012700000000000000000001309000001041200
0202LOTE PADRAO                   SOUZA CRUZ  ON EJ      CRUZ3       010VISTA          000000000011100000000113000000001110000000000000000000113000000017600
0202LOTE PADRAO                   ELETROBRAS  ON *       ELET3       010VISTA          000000000034700000000360000000003470000000000000000000360000015220100
0202LOTE PADRAO                   CELESC      PNB        CLSC6       010VISTA          000000000000430000000004400000000042000000000000000000004300000193200
0202LOTE PADRAO                   BRADESCO    PN * EJ    BBDC4       010VISTA          000000000011600000000117500000001150000000000000000000116000083739500
0202LOTE PADRAO                   CESP        PN *       CESP4       010VISTA          000000000013600000000136000000001300000000000000000000133000008301700
0202LOTE PADRAO                   LIGHT       ON *       LIGH3       010VISTA          000000000115900000001159000000011200000000000000000001140000000605600
0202LOTE PADRAO                   TELESP CL PAPN *       TSPP4       010VISTA          000000000014300000000143000000001410000000000000000000143000071895100
0202LOTE PADRAO                   VALE R DOCE PNA        VALE5       010VISTA          000000000052200000000527000000005150000000000000000000527000000015200
0202LOTE PADRAO                   COPEL       PNB*       CPLE6       010VISTA          000000000017600000000178000000001750000000000000000000176000008229700
0202LOTE PADRAO                   VALE R DOCE ON         VALE3       010VISTA          000000000051500000000527000000005150000000000000000000527000000000200
0202LOTE PADRAO                   ARACRUZ     PNB        ARCZ6       010VISTA          000000000003800000000039800000000380000000000000000000039800000012100
0202LOTE PADRAO                   TELEMIG PARTPN *       TMCP4       010VISTA          000000000004600000000046000000000460000000000000000000046000050481800
0202LOTE PADRAO                   BRASIL TELECPN *       BRTO4       010VISTA          000000000012300000000124000000001200000000000000000000121000066964800
0202LOTE PADRAO                   SABESP      ON *       SBSP3       010VISTA          000000000163400000001660000000016340000000000000000001655000002270500
0202LOTE PADRAO                   BRASKEM     PNA*       BRKM5       010VISTA          000000000525000000005360000000052500000000000000000005310000000116200
0202LOTE PADRAO                   EMBRAER     PN EJ      EMBR4       010VISTA          000000000021600000000228000000002150000000000000000000220000000013600
0202LOTE PADRAO                   TELESP      PN * EJ    TLPP4       010VISTA          000000000025100000000251000000002430000000000000000000247000004294200
0202LOTE PADRAO                   EMBRAER     ON EJ      EMBR3       010VISTA          000000000017600000000176000000001730000000000000000000175000000008300
0202LOTE PADRAO                   AMBEV       PN *       AMBV4       010VISTA          000000000504000000005040000000049700000000000000000005000000001363900
0202LOTE PADRAO                   USIMINAS    PNA        USIM5       010VISTA          000000000006200000000063000000000610000000000000000000062000000014900
0202LOTE PADRAO                   ELETROPAULO PN *       ELPL4       010VISTA          000000000060500000000619000000006000000000000000000000615000002542100
0202LOTE PADRAO                   TELE NORD CLPN *       TNEP4       010VISTA          000000000003400000000035400000000340000000000000000000034000093825800
0202LOTE PADRAO                   CEMIG       PN * EJ    CMIG4       010VISTA          000000000026800000000268000000002580000000000000000000263000025861100
0202LOTE PADRAO                   TELE CL SUL PN * EJ    TCSL4       010VISTA          000000000004100000000042000000000410000000000000000000042000035145800
0202LOTE PADRAO                   CEMIG       ON * EJ    CMIG3       010VISTA          000000000025300000000261000000002520000000000000000000261000000530000
0202LOTE PADRAO                   TELE CL SUL ON * EJ    TCSL3       010VISTA          000000000003400000000034000000000330000000000000000000033000029886200
0202LOTE PADRAO                   ITAUSA      PN         ITSA4       010VISTA          000000000002000000000020000000000200000000000000000000020000000073800
0202LOTE PADRAO                   SID TUBARAO PN *       CSTB4       010VISTA          000000000020100000000203000000002010000000000000000000203000002790700
0202LOTE PADRAO                   V C P       PN *       VCPA4       010VISTA          000000000060000000000600000000005850000000000000000000600000000430200
0202LOTE PADRAO                   BRADESPAR   PN *       BRAP4       010VISTA          000000000000800000000008100000000080000000000000000000008100073168900
0202LOTE PADRAO                   NET         PN         PLIM4       010VISTA          000000000001000000000010000000000096000000000000000000009700001794100
0202LOTE PADRAO                   TELE CTR OESPN * EJ    TCOC4       010VISTA          000000000006000000000060000000000590000000000000000000060000042727100
0202LOTE PADRAO                   GERDAU      PN * EJ    GGBR4       010VISTA          000000000016300000000170000000001630000000000000000000169000014194300
0202LOTE PADRAO                   BRASIL      ON *       BBAS3       010VISTA          000000000008700000000088000000000860000000000000000000088000003204200
