00BDIN9999BOVESPA 99992001010220010102
0101IBOVESPA                      0152420151740156210000000000000000002001010200000020010102015425000000
0202LOTE PADRAO                   EMBRATEL PARPN *       EBTP4       010VISTA          000000000029500000000303000000002880000000000000000000288000037224400
0202LOTE PADRAO                   EMBRATEL PARON *       EBTP3       010VISTA          000000000021500000000231000000002150000000000000000000218000011294900
0202LOTE PADRAO                   TRAN PAULISTPN * EJ    TRPL4       010VISTA          000000000006700000000069000000000670000000000000000000067000015612800
0202LOTE PADRAO                   TELEMAR     PN * EJ    TNLP4       010VISTA          000000000043000000000432000000004220000000000000000000426000143630000
0202LOTE PADRAO                   ITAUBANCO   PN * EJ    ITAU4       010VISTA          000000000175500000001799000000017550000000000000000001790000003816500
0202LOTE PADRAO                   TELEMAR     ON * EJ    TNLP3       010VISTA          000000000032000000000327000000003200000000000000000000325000012217100
0202LOTE PADRAO                   SID NACIONALON *       CSNA3       010VISTA          000000000059700000000630000000005970000000000000000000605000003186700
0202LOTE PADRAO                   TELE LEST CLPN *       TLCP4       010VISTA          000000000001300000000013000000000130000000000000000000013000109873000
0202LOTE PADRAO                   CRT CELULAR PNA* EJ    CRTP5       010VISTA          000000000600000000006340000000060000000000000000000006250000000166300
0202LOTE PADRAO                   IPIRANGA PETPN *       PTIP4       010VISTA          000000000016100000000166000000001600000000000000000000163000002820000
0202LOTE PADRAO                   BRASIL T PARPN *       BRTP4       010VISTA          000000000022000000000226000000002200000000000000000000223000040834100
0202LOTE PADRAO                   BRASIL T PARON *       BRTP3       010VISTA          000000000017300000000179000000001700000000000000000000177500017764900
0202LOTE PADRAO                   ACESITA     PN *       ACES4       010VISTA          000000000001000000000010000000000100000000000000000000010000269602000
0202LOTE PADRAO                   PETROBRAS   PN         PETR4       010VISTA          000000000045700000000477000000004570000000000000000000470000000101200
0202LOTE PADRAO                   ELETROBRAS  PNB*       ELET6       010VISTA          000000000034600000000348000000003270000000000000000000332000054375800
0202LOTE PADRAO                   PETROBRAS   ON         PETR3       010VISTA          000000000047000000000503000000004700000000000000000000496000000026500
0202LOTE PADRAO                   COMGAS      PNA*       CGAS5       010VISTA          000000000116700000001220000000011670000000000000000001184000004255000
0202LOTE PADRAO                   ELETROBRAS  ON *       ELET3       010VISTA          000000000034000000000340000000003300000000000000000000335000023533500
0202LOTE PADRAO                   CELESC      PNB        CLSC6       010VISTA          000000000000580000000005900000000057000000000000000000005700000433300
0202LOTE PADRAO                   BRADESCO    PN * EJ    BBDC4       010VISTA          000000000013800000000140000000001340000000000000000000135000002468700
0202LOTE PADRAO                   CESP        PN *       CESP4       010VISTA          000000000018200000000196000000001820000000000000000000189000021749600
0202LOTE PADRAO                   LIGHT       ON *       LIGH3       010VISTA          000000000221000000002210000000020700000000000000000002080000001225400
0202LOTE PADRAO                   TELESP CL PAPN *       TSPP4       010VISTA          000000000020100000000206000000001950000000000000000000195000025611200
0202LOTE PADRAO                   VALE R DOCE PNA        VALE5       010VISTA          000000000045000000000450000000004400000000000000000000447000000006900
0202LOTE PADRAO                   COPEL       PNB*       CPLE6       010VISTA          000000000015600000000161000000001530000000000000000000153000017688800
0202LOTE PADRAO                   VALE R DOCE ON         VALE3       010VISTA          000000000043200000000432000000004320000000000000000000432000000000200
0202LOTE PADRAO                   ARACRUZ     PNB        ARCZ6       010VISTA          000000000002800000000028000000000279000000000000000000028000000094300
0202LOTE PADRAO                   TELEMIG PARTPN *       TMCP4       010VISTA          000000000005700000000060000000000560000000000000000000059000055930000
0202LOTE PADRAO                   BRASIL TELECPN *       BRTO4       010VISTA          000000000016300000000165000000001590000000000000000000160000043931500
0202LOTE PADRAO                   SABESP      ON *       SBSP3       010VISTA          000000000173400000001750000000017000000000000000000001720000000884200
0202LOTE PADRAO                   BRASKEM     PNA*       BRKM5       010VISTA          000000000590000000006150000000059000000000000000000006060000000075200
0202LOTE PADRAO                   EMBRAER     PN EJ      EMBR4       010VISTA          000000000018100000000194000000001750000000000000000000191000000032200
0202LOTE PADRAO                   TELESP      PN * EJ    TLPP4       010VISTA          000000000026700000000267000000002550000000000000000000260000012975400
0202LOTE PADRAO                   EMBRAER     ON EJ      EMBR3       010VISTA          000000000012000000000130000000001200000000000000000000130000000092900
0202LOTE PADRAO                   AMBEV       PN *       AMBV4       010VISTA          000000000470000000004900000000047000000000000000000004780000000833200
0202LOTE PADRAO                   USIMINAS    PNA        USIM5       010VISTA          000000000008600000000090000000000860000000000000000000089000000015800
0202LOTE PADRAO                   ELETROPAULO PN *       ELPL4       010VISTA          000000000088000000000900000000008700000000000000000000900000000749500
0202LOTE PADRAO                   TELE NORD CLPN *       TNEP4       010VISTA          000000000004000000000042000000000400000000000000000000040000054351300
0202LOTE PADRAO                   CEMIG       PN * EJ    CMIG4       010VISTA          000000000027000000000284000000002700000000000000000000280000022133700
0202LOTE PADRAO                   TELE CL SUL PN * EJ    TCSL4       010VISTA          000000000004900000000051000000000490000000000000000000050000095907600
0202LOTE PADRAO                   CEMIG       ON * EJ    CMIG3       010VISTA          000000000022700000000227000000002250000000000000000000225000000428700
0202LOTE PADRAO                   TELE CL SUL ON * EJ    TCSL3       010VISTA          000000000004000000000040000000000380000000000000000000038000016931600
0202LOTE PADRAO                   ITAUSA      PN         ITSA4       010VISTA          000000000001800000000019000000000180000000000000000000018000000349300
0202LOTE PADRAO                   SID TUBARAO PN *       CSTB4       010VISTA          000000000020300000000218000000002030000000000000000000207500002306300
0202LOTE PADRAO                   V C P       PN *       VCPA4       010VISTA          000000000053200000000550000000005250000000000000000000525000004495900
0202LOTE PADRAO                   BRADESPAR   PN *       BRAP4       010VISTA          000000000001100000000012000000000110000000000000000000011000570842000
0202LOTE PADRAO                   NET         PN         PLIM4       010VISTA          000000000002100000000021000000000200000000000000000000020000001217100
0202LOTE PADRAO                   TELE CTR OESPN * EJ    TCOC4       010VISTA          000000000006700000000067000000000640000000000000000000064000090808700
0202LOTE PADRAO                   GERDAU      PN * EJ    GGBR4       010VISTA          000000000017500000000176000000001650000000000000000000168000014378200
0202LOTE PADRAO                   BRASIL      ON *       BBAS3       010VISTA          000000000005800000000064000000000580000000000000000000063000005832200
