00BDIN9999BOVESPA 99992001042720010427
0101IBOVESPA                      0147520147520151350000000000000000002001042700000020010427014928000000
0202LOTE PADRAO                   EMBRATEL PARPN *       EBTP4       010VISTA          000000000020300000000211000000002030000000000000000000206000123170000
0202LOTE PADRAO                   EMBRATEL PARON *       EBTP3       010VISTA          000000000018500000000195000000001850000000000000000000186000047233700
0202LOTE PADRAO                   TRAN PAULISTPN * EJ    TRPL4       010VISTA          000000000007250000000075000000000700000000000000000000072000016391000
0202LOTE PADRAO                   TELEMAR     PN * EJ    TNLP4       010VISTA          000000000037700000000387000000003730000000000000000000380000280270000
0202LOTE PADRAO                   ITAUBANCO   PN * EJ    ITAU4       010VISTA          000000000165100000001760000000016510000000000000000001740000015220100
0202LOTE PADRAO                   TELEMAR     ON * EJ    TNLP3       010VISTA          000000000034000000000345000000003270000000000000000000345000028071800
0202LOTE PADRAO                   SID NACIONALON *       CSNA3       010VISTA          000000000050000000000506000000004960000000000000000000500000022814800
0202LOTE PADRAO                   TELE LEST CLPN *       TLCP4       010VISTA          000000000001690000000017200000000160000000000000000000016000240562000
0202LOTE PADRAO                   IPIRANGA PETPN *       PTIP4       010VISTA          000000000016900000000169000000001600000000000000000000160000000466800
0202LOTE PADRAO                   BRASIL T PARPN *       BRTP4       010VISTA          000000000020000000000201000000001940000000000000000000199000056478400
0202LOTE PADRAO                   BRASIL T PARON *       BRTP3       010VISTA          000000000020000000000203000000001960000000000000000000200000049118200
0202LOTE PADRAO                   ACESITA     PN *       ACES4       010VISTA          000000000000860000000008900000000085000000000000000000008500102995000
0202LOTE PADRAO                   PETROBRAS   PN         PETR4       010VISTA          000000000054500000000545000000005330000000000000000000534000000098200
0202LOTE PADRAO                   ELETROBRAS  PNB*       ELET6       010VISTA          000000000033500000000343000000003270000000000000000000331000046360100
0202LOTE PADRAO                   PETROBRAS   ON         PETR3       010VISTA          000000000060500000000607000000005880000000000000000000588000000038500
0202LOTE PADRAO                   COMGAS      PNA*       CGAS5       010VISTA          000000000133000000001350000000012400000000000000000001270000005187400
0202LOTE PADRAO                   SOUZA CRUZ  ON EJ      CRUZ3       010VISTA          000000000010900000000109000000001050000000000000000000107500000012400
0202LOTE PADRAO                   CELESC      PNB        CLSC6       010VISTA          000000000000520000000005400000000050000000000000000000005000000247900
0202LOTE PADRAO                   ELETROBRAS  ON *       ELET3       010VISTA          000000000037900000000383000000003630000000000000000000367000032049300
0202LOTE PADRAO                   BRADESCO    PN * EJ    BBDC4       010VISTA          000000000012000000000124000000001170000000000000000000123000352181000
0202LOTE PADRAO                   CESP        PN *       CESP4       010VISTA          000000000018500000000188000000001780000000000000000000179000018742300
0202LOTE PADRAO                   LIGHT       ON *       LIGH3       010VISTA          000000000157000000001600000000015700000000000000000001575000000607500
0202LOTE PADRAO                   TELESP CL PAPN *       TSPP4       010VISTA          000000000014400000000151000000001425000000000000000000150000263887000
0202LOTE PADRAO                   VALE R DOCE PNA        VALE5       010VISTA          000000000051800000000524000000005100000000000000000000511000000028500
0202LOTE PADRAO                   COPEL       PNB*       CPLE6       010VISTA          000000000016800000000171000000001670000000000000000000167000050452100
0202LOTE PADRAO                   VALE R DOCE ON         VALE3       010VISTA          000000000049000000000490000000004850000000000000000000485000000000700
0202LOTE PADRAO                   ARACRUZ     PNB        ARCZ6       010VISTA          000000000003100000000033000000000310000000000000000000033000000208000
0202LOTE PADRAO                   TELEMIG PARTPN *       TMCP4       010VISTA          000000000004300000000044000000000420000000000000000000043000083667000
0202LOTE PADRAO                   BRASIL TELECPN *       BRTO4       010VISTA          000000000013500000000139000000001340000000000000000000138000097105900
0202LOTE PADRAO                   SABESP      ON *       SBSP3       010VISTA          000000000183000000001860000000018300000000000000000001840000001943200
0202LOTE PADRAO                   BRASKEM     PNA*       BRKM5       010VISTA          000000000576000000006000000000057600000000000000000005969000000205600
0202LOTE PADRAO                   EMBRAER     PN EJ      EMBR4       010VISTA          000000000025300000000258000000002410000000000000000000243000000011100
0202LOTE PADRAO                   TELESP      PN * EJ    TLPP4       010VISTA          000000000030300000000306000000002960000000000000000000299000009461800
0202LOTE PADRAO                   EMBRAER     ON EJ      EMBR3       010VISTA          000000000019800000000201000000001900000000000000000000195000000014800
0202LOTE PADRAO                   AMBEV       PN *       AMBV4       010VISTA          000000000530000000005450000000052600000000000000000005400000001312400
0202LOTE PADRAO                   USIMINAS    PNA        USIM5       010VISTA          000000000008900000000089000000000860000000000000000000088000000035400
0202LOTE PADRAO                   ELETROPAULO PN *       ELPL4       010VISTA          000000000070000000000725000000006700000000000000000000670000002943100
0202LOTE PADRAO                   TELE NORD CLPN *       TNEP4       010VISTA          000000000003250000000033000000000310000000000000000000031000060024300
0202LOTE PADRAO                   CEMIG       PN * EJ    CMIG4       010VISTA          000000000026600000000270000000002600000000000000000000260000062677000
0202LOTE PADRAO                   TELE CL SUL PN * EJ    TCSL4       010VISTA          000000000004400000000044000000000420000000000000000000042000090707800
0202LOTE PADRAO                   CEMIG       ON * EJ    CMIG3       010VISTA          000000000026400000000265000000002550000000000000000000264000002207000
0202LOTE PADRAO                   TELE CL SUL ON * EJ    TCSL3       010VISTA          000000000003700000000038000000000370000000000000000000037500039393400
0202LOTE PADRAO                   ITAUSA      PN         ITSA4       010VISTA          000000000001800000000019000000000180000000000000000000019000000246800
0202LOTE PADRAO                   SID TUBARAO PN *       CSTB4       010VISTA          000000000021800000000226000000002110000000000000000000211000003810300
0202LOTE PADRAO                   V C P       PN *       VCPA4       010VISTA          000000000058000000000599000000005800000000000000000000597000003082200
0202LOTE PADRAO                   BRADESPAR   PN *       BRAP4       010VISTA          000000000000910000000009500000000091000000000000000000009200279238000
0202LOTE PADRAO                   NET         PN         PLIM4       010VISTA          000000000001100000000011000000000110000000000000000000011000001157400
0202LOTE PADRAO                   TELE CTR OESPN * EJ    TCOC4       010VISTA          000000000006100000000062000000000600000000000000000000061000063361600
0202LOTE PADRAO                   GERDAU      PN * EJ    GGBR4       010VISTA          000000000019100000000200000000001910000000000000000000198000020854000
0202LOTE PADRAO                   BRASIL      ON *       BBAS3       010VISTA          000000000008900000000093000000000880000000000000000000090000011423600
