00BDIN9999BOVESPA 99992001101820011018
0101IBOVESPA                      0112600109480112630000000000000000002001101800000020011018010995000000
0202LOTE PADRAO                   EMBRATEL PARPN *       EBTP4       010VISTA          000000000007700000000078000000000720000000000000000000072000110941000
0202LOTE PADRAO                   EMBRATEL PARON *       EBTP3       010VISTA          000000000008300000000084000000000790000000000000000000080000035577100
0202LOTE PADRAO                   TRAN PAULISTPN * EJ    TRPL4       010VISTA          000000000005000000000052000000000490000000000000000000049000022101200
0202LOTE PADRAO                   TELEMAR     PN * EJ    TNLP4       010VISTA          000000000026500000000266000000002575000000000000000000259000148969000
0202LOTE PADRAO                   ITAUBANCO   PN * EJ    ITAU4       010VISTA          000000000170900000001733000000016900000000000000000001720000008409500
0202LOTE PADRAO                   TELEMAR     ON * EJ    TNLP3       010VISTA          000000000024100000000241000000002280000000000000000000229000009036700
0202LOTE PADRAO                   SID NACIONALON *       CSNA3       010VISTA          000000000027800000000280000000002660000000000000000000268000005635700
0202LOTE PADRAO                   TELE LEST CLPN *       TLCP4       010VISTA          000000000000740000000007600000000071000000000000000000007100365290000
0202LOTE PADRAO                   CRT CELULAR PNA* EJ    CRTP5       010VISTA          000000000365000000003650000000035000000000000000000003579000000329800
0202LOTE PADRAO                   IPIRANGA PETPN *       PTIP4       010VISTA          000000000010800000000115000000001070000000000000000000110000001716100
0202LOTE PADRAO                   BRASIL T PARPN *       BRTP4       010VISTA          000000000014800000000153000000001470000000000000000000149000033784600
0202LOTE PADRAO                   BRASIL T PARON *       BRTP3       010VISTA          000000000015100000000151000000001430000000000000000000143000008596800
0202LOTE PADRAO                   ACESITA     PN *       ACES4       010VISTA          000000000000470000000004700000000044000000000000000000004400121000000
0202LOTE PADRAO                   PETROBRAS   PN         PETR4       010VISTA          000000000053400000000535000000005170000000000000000000523000000112900
0202LOTE PADRAO                   ELETROBRAS  PNB*       ELET6       010VISTA          000000000031800000000318000000003060000000000000000000312000023604200
0202LOTE PADRAO                   PETROBRAS   ON         PETR3       010VISTA          000000000055800000000558000000005370000000000000000000540000000034600
0202LOTE PADRAO                   COMGAS      PNA*       CGAS5       010VISTA          000000000082000000000827000000008150000000000000000000815000000654400
0202LOTE PADRAO                   SOUZA CRUZ  ON EJ      CRUZ3       010VISTA          000000000012700000000128000000001250000000000000000000128000000009200
0202LOTE PADRAO                   ELETROBRAS  ON *       ELET3       010VISTA          000000000034500000000345000000003300000000000000000000336000014983100
0202LOTE PADRAO                   CELESC      PNB        CLSC6       010VISTA          000000000000360000000003600000000034000000000000000000003500000253500
0202LOTE PADRAO                   BRADESCO    PN * EJ    BBDC4       010VISTA          000000000010500000000105000000001025000000000000000000104000101031000
0202LOTE PADRAO                   CESP        PN *       CESP4       010VISTA          000000000010000000000110000000000960000000000000000000108000022588200
0202LOTE PADRAO                   LIGHT       ON *       LIGH3       010VISTA          000000000078700000000787000000007750000000000000000000775000000259200
0202LOTE PADRAO                   TELESP CL PAPN *       TSPP4       010VISTA          000000000005700000000057500000000550000000000000000000055000121847000
0202LOTE PADRAO                   VALE R DOCE PNA        VALE5       010VISTA          000000000055900000000562500000005530000000000000000000556000000035700
0202LOTE PADRAO                   COPEL       PNB*       CPLE6       010VISTA          000000000015000000000151000000001450000000000000000000148000039053600
0202LOTE PADRAO                   VALE R DOCE ON         VALE3       010VISTA          000000000053500000000540000000005350000000000000000000540000000000200
0202LOTE PADRAO                   ARACRUZ     PNB        ARCZ6       010VISTA          000000000004600000000046000000000450000000000000000000045000000039700
0202LOTE PADRAO                   TELEMIG PARTPN *       TMCP4       010VISTA          000000000003100000000032000000000310000000000000000000031000063189800
0202LOTE PADRAO                   BRASIL TELECPN *       BRTO4       010VISTA          000000000010300000000105000000001010000000000000000000103000049989000
0202LOTE PADRAO                   SABESP      ON *       SBSP3       010VISTA          000000000118000000001180000000011400000000000000000001145000000678400
0202LOTE PADRAO                   BRASKEM     PNA*       BRKM5       010VISTA          000000000360600000003749000000036000000000000000000003690000000203400
0202LOTE PADRAO                   EMBRAER     PN EJ      EMBR4       010VISTA          000000000010000000000105000000000990000000000000000000104000000073500
0202LOTE PADRAO                   TELESP      PN * EJ    TLPP4       010VISTA          000000000024700000000247000000002400000000000000000000242000007085800
0202LOTE PADRAO                   EMBRAER     ON EJ      EMBR3       010VISTA          000000000008500000000087000000000840000000000000000000086000000018100
0202LOTE PADRAO                   AMBEV       PN *       AMBV4       010VISTA          000000000439100000004391000000043000000000000000000004300000000422400
0202LOTE PADRAO                   USIMINAS    PNA        USIM5       010VISTA          000000000004000000000040000000000380000000000000000000038000000076700
0202LOTE PADRAO                   ELETROPAULO PN *       ELPL4       010VISTA          000000000061800000000621000000006110000000000000000000617000005356600
0202LOTE PADRAO                   TELE NORD CLPN *       TNEP4       010VISTA          000000000002300000000024000000000220000000000000000000023000107010000
0202LOTE PADRAO                   CEMIG       PN * EJ    CMIG4       010VISTA          000000000026300000000263000000002580000000000000000000260000035804400
0202LOTE PADRAO                   TELE CL SUL PN * EJ    TCSL4       010VISTA          000000000002800000000028000000000275000000000000000000027000087243500
0202LOTE PADRAO                   CEMIG       ON * EJ    CMIG3       010VISTA          000000000026000000000261000000002560000000000000000000256000001001100
0202LOTE PADRAO                   TELE CL SUL ON * EJ    TCSL3       010VISTA          000000000002400000000024000000000220000000000000000000022000029825400
0202LOTE PADRAO                   ITAUSA      PN         ITSA4       010VISTA          000000000001800000000018000000000180000000000000000000018000000131200
0202LOTE PADRAO                   SID TUBARAO PN *       CSTB4       010VISTA          000000000015900000000160000000001540000000000000000000158000003201600
0202LOTE PADRAO                   V C P       PN *       VCPA4       010VISTA          000000000078400000000784000000007570000000000000000000757000006537600
0202LOTE PADRAO                   BRADESPAR   PN *       BRAP4       010VISTA          000000000000590000000005900000000056000000000000000000005600187345000
0202LOTE PADRAO                   NET         PN         PLIM4       010VISTA          000000000000650000000006500000000062000000000000000000006200000827200
0202LOTE PADRAO                   TELE CTR OESPN * EJ    TCOC4       010VISTA          000000000005000000000050000000000450000000000000000000046000121125000
0202LOTE PADRAO                   GERDAU      PN * EJ    GGBR4       010VISTA          000000000016600000000168000000001630000000000000000000164000015683400
0202LOTE PADRAO                   BRASIL      ON *       BBAS3       010VISTA          000000000007400000000076000000000720000000000000000000072000004506100
