00BDIN9999BOVESPA 99992001112620011126
0101IBOVESPA                      0134430134430137600000000000000000002001112600000020011126013760000000
0202LOTE PADRAO                   EMBRATEL PARPN *       EBTP4       010VISTA          000000000010500000000111000000001050000000000000000000111000166063000
0202LOTE PADRAO                   EMBRATEL PARON *       EBTP3       010VISTA          000000000011400000000120000000001140000000000000000000120000035909000
0202LOTE PADRAO                   TRAN PAULISTPN * EJ    TRPL4       010VISTA          000000000006300000000066000000000630000000000000000000065000062486600
0202LOTE PADRAO                   TELEMAR     PN * EJ    TNLP4       010VISTA          000000000033700000000353000000003370000000000000000000353000304631000
0202LOTE PADRAO                   ITAUBANCO   PN * EJ    ITAU4       010VISTA          000000000189000000001896000000018700000000000000000001890000015333700
0202LOTE PADRAO                   TELEMAR     ON * EJ    TNLP3       010VISTA          000000000029800000000310000000002980000000000000000000310000025677300
0202LOTE PADRAO                   SID NACIONALON *       CSNA3       010VISTA          000000000038000000000385000000003800000000000000000000381000018206400
0202LOTE PADRAO                   TELE LEST CLPN *       TLCP4       010VISTA          000000000000990000000010000000000098000000000000000000009800280586000
0202LOTE PADRAO                   CRT CELULAR PNA* EJ    CRTP5       010VISTA          000000000485000000005100000000048500000000000000000005060000001406600
0202LOTE PADRAO                   IPIRANGA PETPN *       PTIP4       010VISTA          000000000014300000000144000000001410000000000000000000143000001830700
0202LOTE PADRAO                   BRASIL T PARPN *       BRTP4       010VISTA          000000000019300000000200000000001910000000000000000000200000101738000
0202LOTE PADRAO                   BRASIL T PARON *       BRTP3       010VISTA          000000000019400000000196000000001900000000000000000000195000045691700
0202LOTE PADRAO                   ACESITA     PN *       ACES4       010VISTA          000000000000690000000007400000000068000000000000000000007400448242000
0202LOTE PADRAO                   PETROBRAS   PN         PETR4       010VISTA          000000000049100000000499000000004910000000000000000000492000000131800
0202LOTE PADRAO                   ELETROBRAS  PNB*       ELET6       010VISTA          000000000036100000000372000000003430000000000000000000343000057301600
0202LOTE PADRAO                   PETROBRAS   ON         PETR3       010VISTA          000000000051700000000517000000005080000000000000000000508000000038400
0202LOTE PADRAO                   COMGAS      PNA*       CGAS5       010VISTA          000000000095000000000960000000009270000000000000000000932000002209800
0202LOTE PADRAO                   SOUZA CRUZ  ON EJ      CRUZ3       010VISTA          000000000013300000000134000000001300000000000000000000132000000029200
0202LOTE PADRAO                   ELETROBRAS  ON *       ELET3       010VISTA          000000000038000000000382000000003570000000000000000000357000017413400
0202LOTE PADRAO                   CELESC      PNB        CLSC6       010VISTA          000000000000520000000005400000000052000000000000000000005300000613200
0202LOTE PADRAO                   BRADESCO    PN * EJ    BBDC4       010VISTA          000000000012700000000128000000001240000000000000000000128000159420000
0202LOTE PADRAO                   CESP        PN *       CESP4       010VISTA          000000000015300000000155000000001470000000000000000000154000026416500
0202LOTE PADRAO                   LIGHT       ON *       LIGH3       010VISTA          000000000108000000001180000000010800000000000000000001140000002429700
0202LOTE PADRAO                   TELESP CL PAPN *       TSPP4       010VISTA          000000000007700000000079600000000770000000000000000000079000301083000
0202LOTE PADRAO                   VALE R DOCE PNA        VALE5       010VISTA          000000000052000000000520000000005130000000000000000000513000000033300
0202LOTE PADRAO                   COPEL       PNB*       CPLE6       010VISTA          000000000016900000000171000000001680000000000000000000170000022477000
0202LOTE PADRAO                   VALE R DOCE ON         VALE3       010VISTA          000000000050500000000509000000004950000000000000000000495000000000100
0202LOTE PADRAO                   ARACRUZ     PNB        ARCZ6       010VISTA          000000000004500000000047000000000450000000000000000000046000000058700
0202LOTE PADRAO                   TELEMIG PARTPN *       TMCP4       010VISTA          000000000004500000000047000000000450000000000000000000047000128327000
0202LOTE PADRAO                   BRASIL TELECPN *       BRTO4       010VISTA          000000000014000000000146000000001400000000000000000000145000214356000
0202LOTE PADRAO                   SABESP      ON *       SBSP3       010VISTA          000000000137500000001440000000013500000000000000000001375000006073900
0202LOTE PADRAO                   BRASKEM     PNA*       BRKM5       010VISTA          000000000434000000004550000000043000000000000000000004439000000481400
0202LOTE PADRAO                   EMBRAER     PN EJ      EMBR4       010VISTA          000000000011800000000120000000001160000000000000000000117000000041900
0202LOTE PADRAO                   TELESP      PN * EJ    TLPP4       010VISTA          000000000031500000000318000000003110000000000000000000318000007953100
0202LOTE PADRAO                   EMBRAER     ON EJ      EMBR3       010VISTA          000000000010000000000103000000001000000000000000000000103000000036000
0202LOTE PADRAO                   AMBEV       PN *       AMBV4       010VISTA          000000000505000000005220000000050490000000000000000005200000003697600
0202LOTE PADRAO                   USIMINAS    PNA        USIM5       010VISTA          000000000006500000000067000000000600000000000000000000061000000107600
0202LOTE PADRAO                   ELETROPAULO PN *       ELPL4       010VISTA          000000000077500000000810000000007750000000000000000000800000005403200
0202LOTE PADRAO                   TELE NORD CLPN *       TNEP4       010VISTA          000000000003300000000036000000000330000000000000000000035000187836000
0202LOTE PADRAO                   CEMIG       PN * EJ    CMIG4       010VISTA          000000000030500000000319000000003030000000000000000000318000040052300
0202LOTE PADRAO                   TELE CL SUL PN * EJ    TCSL4       010VISTA          000000000003730000000039000000000373000000000000000000039000182105000
0202LOTE PADRAO                   CEMIG       ON * EJ    CMIG3       010VISTA          000000000029500000000299000000002950000000000000000000298000000155800
0202LOTE PADRAO                   TELE CL SUL ON * EJ    TCSL3       010VISTA          000000000003100000000032000000000310000000000000000000032000042974200
0202LOTE PADRAO                   ITAUSA      PN         ITSA4       010VISTA          000000000002200000000022700000000220000000000000000000022500000652000
0202LOTE PADRAO                   V C P       PN *       VCPA4       010VISTA          000000000081900000000850000000008190000000000000000000832000001553100
0202LOTE PADRAO                   SID TUBARAO PN *       CSTB4       010VISTA          000000000022000000000221000000002150000000000000000000215000006607700
0202LOTE PADRAO                   BRADESPAR   PN *       BRAP4       010VISTA          000000000000790000000008200000000079000000000000000000008000234274000
0202LOTE PADRAO                   NET         PN         PLIM4       010VISTA          000000000000800000000008200000000078000000000000000000008000000908800
0202LOTE PADRAO                   TELE CTR OESPN * EJ    TCOC4       010VISTA          000000000005900000000059000000000560000000000000000000058000103801000
0202LOTE PADRAO                   TELEMAR N L PNA* EJ    TMAR5       010VISTA          000000000055000000000554000000005420000000000000000000554000040027400
0202LOTE PADRAO                   GERDAU      PN * EJ    GGBR4       010VISTA          000000000023800000000238000000002310000000000000000000238000014696400
0202LOTE PADRAO                   BRASIL      ON *       BBAS3       010VISTA          000000000009500000000098000000000950000000000000000000096000008828900
