00BDIN9999BOVESPA 99992001071020010710
0101IBOVESPA                      0139300135640140600000000000000000002001071000000020010710013570000000
0202LOTE PADRAO                   EMBRATEL PARPN *       EBTP4       010VISTA          000000000015800000000158000000001500000000000000000000150000080319600
0202LOTE PADRAO                   EMBRATEL PARON *       EBTP3       010VISTA          000000000015500000000166000000001530000000000000000000153000030206900
0202LOTE PADRAO                   TRAN PAULISTPN * EJ    TRPL4       010VISTA          000000000006200000000062000000000575000000000000000000057000008965900
0202LOTE PADRAO                   TELEMAR     PN * EJ    TNLP4       010VISTA          000000000033500000000335000000003180000000000000000000318000163690000
0202LOTE PADRAO                   ITAUBANCO   PN * EJ    ITAU4       010VISTA          000000000183000000001850000000017830000000000000000001783000006405600
0202LOTE PADRAO                   TELEMAR     ON * EJ    TNLP3       010VISTA          000000000027800000000280000000002660000000000000000000266000010733400
0202LOTE PADRAO                   SID NACIONALON *       CSNA3       010VISTA          000000000041000000000410000000003850000000000000000000385000003828500
0202LOTE PADRAO                   TELE LEST CLPN *       TLCP4       010VISTA          000000000001740000000017900000000160000000000000000000017200037628900
0202LOTE PADRAO                   CRT CELULAR PNA* EJ    CRTP5       010VISTA          000000000985000000009850000000092100000000000000000009600000000387400
0202LOTE PADRAO                   IPIRANGA PETPN *       PTIP4       010VISTA          000000000016800000000168000000001600000000000000000000160000002459600
0202LOTE PADRAO                   BRASIL T PARPN *       BRTP4       010VISTA          000000000018000000000181000000001710000000000000000000173000094449400
0202LOTE PADRAO                   BRASIL T PARON *       BRTP3       010VISTA          000000000017200000000172000000001620000000000000000000163000020819800
0202LOTE PADRAO                   ACESITA     PN *       ACES4       010VISTA          000000000000640000000006500000000060000000000000000000006000111712000
0202LOTE PADRAO                   PETROBRAS   PN         PETR4       010VISTA          000000000052700000000538000000005270000000000000000000535000000121000
0202LOTE PADRAO                   ELETROBRAS  PNB*       ELET6       010VISTA          000000000027300000000273000000002560000000000000000000256000035182500
0202LOTE PADRAO                   PETROBRAS   ON         PETR3       010VISTA          000000000058500000000590000000005800000000000000000000586000000013700
0202LOTE PADRAO                   COMGAS      PNA*       CGAS5       010VISTA          000000000141500000001415000000013400000000000000000001360000000821000
0202LOTE PADRAO                   SOUZA CRUZ  ON EJ      CRUZ3       010VISTA          000000000011600000000116000000001100000000000000000000111000000013400
0202LOTE PADRAO                   ELETROBRAS  ON *       ELET3       010VISTA          000000000028100000000295000000002810000000000000000000285000034751000
0202LOTE PADRAO                   CELESC      PNB        CLSC6       010VISTA          000000000000430000000004400000000039000000000000000000004200000175600
0202LOTE PADRAO                   BRADESCO    PN * EJ    BBDC4       010VISTA          000000000011400000000115000000001090000000000000000000111000122618000
0202LOTE PADRAO                   CESP        PN *       CESP4       010VISTA          000000000013600000000136000000001280000000000000000000128000005874000
0202LOTE PADRAO                   LIGHT       ON *       LIGH3       010VISTA          000000000131000000001310000000012300000000000000000001230000000233600
0202LOTE PADRAO                   TELESP CL PAPN *       TSPP4       010VISTA          000000000014700000000148000000001420000000000000000000142000160172000
0202LOTE PADRAO                   VALE R DOCE PNA        VALE5       010VISTA          000000000053800000000545000000005370000000000000000000537000000022000
0202LOTE PADRAO                   COPEL       PNB*       CPLE6       010VISTA          000000000018500000000188000000001820000000000000000000183000023196100
0202LOTE PADRAO                   VALE R DOCE ON         VALE3       010VISTA          000000000054000000000540000000005300000000000000000000540000000001200
0202LOTE PADRAO                   ARACRUZ     PNB        ARCZ6       010VISTA          000000000004100000000043000000000400000000000000000000040000000029000
0202LOTE PADRAO                   TELEMIG PARTPN *       TMCP4       010VISTA          000000000004400000000044000000000420000000000000000000042000052974300
0202LOTE PADRAO                   BRASIL TELECPN *       BRTO4       010VISTA          000000000012500000000126000000001190000000000000000000120000066916300
0202LOTE PADRAO                   SABESP      ON *       SBSP3       010VISTA          000000000150000000001500000000014440000000000000000001455000001350400
0202LOTE PADRAO                   BRASKEM     PNA*       BRKM5       010VISTA          000000000568000000005700000000055500000000000000000005650000000083700
0202LOTE PADRAO                   EMBRAER     PN EJ      EMBR4       010VISTA          000000000022900000000230000000002160000000000000000000229000000014500
0202LOTE PADRAO                   TELESP      PN * EJ    TLPP4       010VISTA          000000000025500000000258000000002460000000000000000000250000004330300
0202LOTE PADRAO                   EMBRAER     ON EJ      EMBR3       010VISTA          000000000017300000000173000000001660000000000000000000171000000019800
0202LOTE PADRAO                   AMBEV       PN *       AMBV4       010VISTA          000000000499000000005000000000048450000000000000000004849000001968500
0202LOTE PADRAO                   USIMINAS    PNA        USIM5       010VISTA          000000000006400000000064000000000600000000000000000000060000000057600
0202LOTE PADRAO                   ELETROPAULO PN *       ELPL4       010VISTA          000000000062000000000660000000005950000000000000000000595000001823100
0202LOTE PADRAO                   TELE NORD CLPN *       TNEP4       010VISTA          000000000003800000000038000000000360000000000000000000037000053836500
0202LOTE PADRAO                   CEMIG       PN * EJ    CMIG4       010VISTA          000000000025800000000263000000002580000000000000000000258000053534700
0202LOTE PADRAO                   TELE CL SUL PN * EJ    TCSL4       010VISTA          000000000004500000000045000000000430000000000000000000043000074504100
0202LOTE PADRAO                   CEMIG       ON * EJ    CMIG3       010VISTA          000000000026000000000260000000002400000000000000000000240000001292700
0202LOTE PADRAO                   TELE CL SUL ON * EJ    TCSL3       010VISTA          000000000003700000000037000000000356000000000000000000036000036684800
0202LOTE PADRAO                   ITAUSA      PN         ITSA4       010VISTA          000000000002000000000020000000000194000000000000000000019400000244100
0202LOTE PADRAO                   SID TUBARAO PN *       CSTB4       010VISTA          000000000020900000000210000000002000000000000000000000207000011397200
0202LOTE PADRAO                   V C P       PN *       VCPA4       010VISTA          000000000065200000000653000000006330000000000000000000633000001927700
0202LOTE PADRAO                   BRADESPAR   PN *       BRAP4       010VISTA          000000000000830000000008300000000078000000000000000000007800170890000
0202LOTE PADRAO                   NET         PN         PLIM4       010VISTA          000000000001000000000010000000000096000000000000000000009700001409500
0202LOTE PADRAO                   TELE CTR OESPN * EJ    TCOC4       010VISTA          000000000006600000000066000000000600000000000000000000061000055950700
0202LOTE PADRAO                   GERDAU      PN * EJ    GGBR4       010VISTA          000000000015900000000160000000001440000000000000000000146000021735600
0202LOTE PADRAO                   BRASIL      ON *       BBAS3       010VISTA          000000000009000000000090000000000880000000000000000000089000006821200
