00BDIN9999BOVESPA 99992001010420010104
0101IBOVESPA                      0165970165870169330000000000000000002001010400000020010104016675000000
0202LOTE PADRAO                   EMBRATEL PARPN *       EBTP4       010VISTA          000000000032300000000338000000003220000000000000000000330000154853000
0202LOTE PADRAO                   EMBRATEL PARON *       EBTP3       010VISTA          000000000024600000000263000000002450000000000000000000247000020756300
0202LOTE PADRAO                   TRAN PAULISTPN * EJ    TRPL4       010VISTA          000000000007300000000077000000000720000000000000000000074000019360500
0202LOTE PADRAO                   TELEMAR     PN * EJ    TNLP4       010VISTA          000000000045000000000467000000004490000000000000000000460000308457000
0202LOTE PADRAO                   ITAUBANCO   PN * EJ    ITAU4       010VISTA          000000000186900000001900000000018690000000000000000001890000006860700
0202LOTE PADRAO                   TELEMAR     ON * EJ    TNLP3       010VISTA          000000000035000000000357000000003480000000000000000000355000029162900
0202LOTE PADRAO                   SID NACIONALON *       CSNA3       010VISTA          000000000063200000000655000000006310000000000000000000635000018220600
0202LOTE PADRAO                   TELE LEST CLPN *       TLCP4       010VISTA          000000000001400000000015300000000140000000000000000000014700134468000
0202LOTE PADRAO                   CRT CELULAR PNA* EJ    CRTP5       010VISTA          000000000659900000006990000000065990000000000000000006710000000955900
0202LOTE PADRAO                   IPIRANGA PETPN *       PTIP4       010VISTA          000000000017100000000178000000001690000000000000000000169000003916900
0202LOTE PADRAO                   BRASIL T PARPN *       BRTP4       010VISTA          000000000023800000000244000000002360000000000000000000243000105522000
0202LOTE PADRAO                   BRASIL T PARON *       BRTP3       010VISTA          000000000019100000000200000000001910000000000000000000192000034406000
0202LOTE PADRAO                   ACESITA     PN *       ACES4       010VISTA          000000000001100000000011000000000110000000000000000000011000299758000
0202LOTE PADRAO                   PETROBRAS   PN         PETR4       010VISTA          000000000049700000000501000000004950000000000000000000500000000144200
0202LOTE PADRAO                   ELETROBRAS  PNB*       ELET6       010VISTA          000000000036200000000365000000003480000000000000000000348000048025100
0202LOTE PADRAO                   PETROBRAS   ON         PETR3       010VISTA          000000000052700000000535000000005260000000000000000000530000000037500
0202LOTE PADRAO                   COMGAS      PNA*       CGAS5       010VISTA          000000000125000000001250000000012100000000000000000001215000002208000
0202LOTE PADRAO                   SOUZA CRUZ  ON EJ      CRUZ3       010VISTA          000000000009100000000095000000000900000000000000000000093000000057100
0202LOTE PADRAO                   ELETROBRAS  ON *       ELET3       010VISTA          000000000036500000000374000000003570000000000000000000357000021050800
0202LOTE PADRAO                   CELESC      PNB        CLSC6       010VISTA          000000000000640000000006500000000060000000000000000000006100000292500
0202LOTE PADRAO                   BRADESCO    PN * EJ    BBDC4       010VISTA          000000000013800000000141000000001370000000000000000000140000003667900
0202LOTE PADRAO                   CESP        PN *       CESP4       010VISTA          000000000021000000000213000000002030000000000000000000208000026459000
0202LOTE PADRAO                   LIGHT       ON *       LIGH3       010VISTA          000000000229000000002295000000022100000000000000000002210000000870900
0202LOTE PADRAO                   TELESP CL PAPN *       TSPP4       010VISTA          000000000023100000000243000000002250000000000000000000227000117016000
0202LOTE PADRAO                   VALE R DOCE PNA        VALE5       010VISTA          000000000048000000000482000000004720000000000000000000479000000039200
0202LOTE PADRAO                   COPEL       PNB*       CPLE6       010VISTA          000000000016600000000171000000001610000000000000000000164000017704000
0202LOTE PADRAO                   VALE R DOCE ON         VALE3       010VISTA          000000000046000000000460000000004400000000000000000000445000000001600
0202LOTE PADRAO                   ARACRUZ     PNB        ARCZ6       010VISTA          000000000002800000000031000000000280000000000000000000030000000268100
0202LOTE PADRAO                   TELEMIG PARTPN *       TMCP4       010VISTA          000000000006250000000063000000000590000000000000000000060000046076900
0202LOTE PADRAO                   BRASIL TELECPN *       BRTO4       010VISTA          000000000017250000000179000000001700000000000000000000173000067541500
0202LOTE PADRAO                   SABESP      ON *       SBSP3       010VISTA          000000000190000000001957000000019000000000000000000001900000003020400
0202LOTE PADRAO                   BRASKEM     PNA*       BRKM5       010VISTA          000000000640000000006500000000063000000000000000000006300000000389000
0202LOTE PADRAO                   EMBRAER     PN EJ      EMBR4       010VISTA          000000000020500000000215000000001850000000000000000000188000000046400
0202LOTE PADRAO                   TELESP      PN * EJ    TLPP4       010VISTA          000000000028500000000290000000002750000000000000000000281000006873900
0202LOTE PADRAO                   EMBRAER     ON EJ      EMBR3       010VISTA          000000000015000000000160000000001410000000000000000000144000000086600
0202LOTE PADRAO                   AMBEV       PN *       AMBV4       010VISTA          000000000479000000004899000000046800000000000000000004700000001433800
0202LOTE PADRAO                   USIMINAS    PNA        USIM5       010VISTA          000000000009800000000105000000000980000000000000000000101000000054700
0202LOTE PADRAO                   ELETROPAULO PN *       ELPL4       010VISTA          000000000095900000001000000000009550000000000000000000955000004273100
0202LOTE PADRAO                   TELE NORD CLPN *       TNEP4       010VISTA          000000000004200000000044000000000410000000000000000000042000053627200
0202LOTE PADRAO                   CEMIG       PN * EJ    CMIG4       010VISTA          000000000030400000000320000000003030000000000000000000308000056856100
0202LOTE PADRAO                   TELE CL SUL PN * EJ    TCSL4       010VISTA          000000000005400000000057000000000530000000000000000000054000110941000
0202LOTE PADRAO                   CEMIG       ON * EJ    CMIG3       010VISTA          000000000025500000000259000000002350000000000000000000248000000472000
0202LOTE PADRAO                   TELE CL SUL ON * EJ    TCSL3       010VISTA          000000000004300000000046000000000420000000000000000000045000051562800
0202LOTE PADRAO                   ITAUSA      PN         ITSA4       010VISTA          000000000001990000000020000000000196000000000000000000020000000239100
0202LOTE PADRAO                   SID TUBARAO PN *       CSTB4       010VISTA          000000000022500000000233000000002250000000000000000000230000006432600
0202LOTE PADRAO                   V C P       PN *       VCPA4       010VISTA          000000000056500000000576000000005600000000000000000000573000011567000
0202LOTE PADRAO                   BRADESPAR   PN *       BRAP4       010VISTA          000000000001200000000012500000000120000000000000000000012000904458000
0202LOTE PADRAO                   NET         PN         PLIM4       010VISTA          000000000002200000000023000000000220000000000000000000023000001440200
0202LOTE PADRAO                   TELE CTR OESPN * EJ    TCOC4       010VISTA          000000000006900000000072000000000690000000000000000000071000095258600
0202LOTE PADRAO                   GERDAU      PN * EJ    GGBR4       010VISTA          000000000018500000000199000000001810000000000000000000188000031268300
0202LOTE PADRAO                   BRASIL      ON *       BBAS3       010VISTA          000000000006500000000070000000000650000000000000000000066000005661800
