00BDIN9999BOVESPA 99992001030820010308
0101IBOVESPA                      0164010160960165310000000000000000002001030800000020010308016227000000
0202LOTE PADRAO                   EMBRATEL PARPN *       EBTP4       010VISTA          000000000026600000000271000000002610000000000000000000266000116722000
0202LOTE PADRAO                   EMBRATEL PARON *       EBTP3       010VISTA          000000000021500000000215000000002080000000000000000000210000064253500
0202LOTE PADRAO                   TRAN PAULISTPN * EJ    TRPL4       010VISTA          000000000009000000000091000000000860000000000000000000087000009450100
0202LOTE PADRAO                   TELEMAR     PN * EJ    TNLP4       010VISTA          000000000044500000000448000000004270000000000000000000431000144410000
0202LOTE PADRAO                   ITAUBANCO   PN * EJ    ITAU4       010VISTA          000000000184000000001870000000018100000000000000000001840000007232700
0202LOTE PADRAO                   TELEMAR     ON * EJ    TNLP3       010VISTA          000000000033700000000342000000003210000000000000000000333000005900300
0202LOTE PADRAO                   SID NACIONALON *       CSNA3       010VISTA          000000000071700000000717000000007020000000000000000000710000022791100
0202LOTE PADRAO                   TELE LEST CLPN *       TLCP4       010VISTA          000000000001790000000018000000000170000000000000000000017500148149000
0202LOTE PADRAO                   CRT CELULAR PNA* EJ    CRTP5       010VISTA          000000000957000000009600000000094000000000000000000009600000001922600
0202LOTE PADRAO                   IPIRANGA PETPN *       PTIP4       010VISTA          000000000015100000000155000000001430000000000000000000144000003656500
0202LOTE PADRAO                   BRASIL T PARPN *       BRTP4       010VISTA          000000000022500000000226000000002100000000000000000000216000063079600
0202LOTE PADRAO                   BRASIL T PARON *       BRTP3       010VISTA          000000000019800000000198000000001850000000000000000000190000008860700
0202LOTE PADRAO                   ACESITA     PN *       ACES4       010VISTA          000000000001100000000011000000000100000000000000000000010000128314000
0202LOTE PADRAO                   PETROBRAS   PN         PETR4       010VISTA          000000000057200000000577000000005650000000000000000000572000000099400
0202LOTE PADRAO                   ELETROBRAS  PNB*       ELET6       010VISTA          000000000038100000000400000000003800000000000000000000397000090744100
0202LOTE PADRAO                   PETROBRAS   ON         PETR3       010VISTA          000000000059100000000600000000005900000000000000000000593000000049100
0202LOTE PADRAO                   COMGAS      PNA*       CGAS5       010VISTA          000000000153000000001530000000013800000000000000000001450000001817000
0202LOTE PADRAO                   SOUZA CRUZ  ON EJ      CRUZ3       010VISTA          000000000013100000000136000000001240000000000000000000127000000026400
0202LOTE PADRAO                   ELETROBRAS  ON *       ELET3       010VISTA          000000000039500000000422000000003900000000000000000000417000083691000
0202LOTE PADRAO                   CELESC      PNB        CLSC6       010VISTA          000000000000640000000006600000000062000000000000000000006300000142900
0202LOTE PADRAO                   BRADESCO    PN * EJ    BBDC4       010VISTA          000000000012250000000125000000001210000000000000000000121000200788000
0202LOTE PADRAO                   CESP        PN *       CESP4       010VISTA          000000000026300000000263000000002450000000000000000000250000010096600
0202LOTE PADRAO                   LIGHT       ON *       LIGH3       010VISTA          000000000221800000002270000000021500000000000000000002180000000476800
0202LOTE PADRAO                   TELESP CL PAPN *       TSPP4       010VISTA          000000000017400000000175000000001630000000000000000000164000426538000
0202LOTE PADRAO                   VALE R DOCE PNA        VALE5       010VISTA          000000000051700000000522000000005130000000000000000000513000000036500
0202LOTE PADRAO                   COPEL       PNB*       CPLE6       010VISTA          000000000018600000000190000000001810000000000000000000181000011152600
0202LOTE PADRAO                   VALE R DOCE ON         VALE3       010VISTA          000000000050000000000500000000004700000000000000000000470000000001400
0202LOTE PADRAO                   ARACRUZ     PNB        ARCZ6       010VISTA          000000000002700000000029800000000270000000000000000000029000000274000
0202LOTE PADRAO                   TELEMIG PARTPN *       TMCP4       010VISTA          000000000006400000000065000000000610000000000000000000062000037699500
0202LOTE PADRAO                   BRASIL TELECPN *       BRTO4       010VISTA          000000000016300000000163000000001500000000000000000000154000022400200
0202LOTE PADRAO                   SABESP      ON *       SBSP3       010VISTA          000000000217500000002190000000021000000000000000000002130000001766900
0202LOTE PADRAO                   BRASKEM     PNA*       BRKM5       010VISTA          000000000650000000006700000000063500000000000000000006350000000112400
0202LOTE PADRAO                   EMBRAER     PN EJ      EMBR4       010VISTA          000000000020300000000210000000002020000000000000000000210000000051100
0202LOTE PADRAO                   TELESP      PN * EJ    TLPP4       010VISTA          000000000031100000000311000000003000000000000000000000308000008131500
0202LOTE PADRAO                   EMBRAER     ON EJ      EMBR3       010VISTA          000000000016000000000162500000001575000000000000000000160000000064700
0202LOTE PADRAO                   AMBEV       PN *       AMBV4       010VISTA          000000000519800000005400000000050500000000000000000005130000003338100
0202LOTE PADRAO                   USIMINAS    PNA        USIM5       010VISTA          000000000011200000000114000000001100000000000000000000111000000035800
0202LOTE PADRAO                   ELETROPAULO PN *       ELPL4       010VISTA          000000000102000000001020000000009600000000000000000000974000001771700
0202LOTE PADRAO                   TELE NORD CLPN *       TNEP4       010VISTA          000000000003700000000037000000000340000000000000000000034800045699100
0202LOTE PADRAO                   CEMIG       PN * EJ    CMIG4       010VISTA          000000000030800000000318000000003080000000000000000000310000040967800
0202LOTE PADRAO                   TELE CL SUL PN * EJ    TCSL4       010VISTA          000000000004600000000046000000000425000000000000000000042000088366300
0202LOTE PADRAO                   CEMIG       ON * EJ    CMIG3       010VISTA          000000000025000000000265000000002470000000000000000000249000005613800
0202LOTE PADRAO                   TELE CL SUL ON * EJ    TCSL3       010VISTA          000000000003700000000037100000000340000000000000000000034000022013400
0202LOTE PADRAO                   ITAUSA      PN         ITSA4       010VISTA          000000000001960000000019700000000190000000000000000000019000000271100
0202LOTE PADRAO                   SID TUBARAO PN *       CSTB4       010VISTA          000000000021600000000217000000001960000000000000000000208000004189000
0202LOTE PADRAO                   V C P       PN *       VCPA4       010VISTA          000000000057200000000580000000005720000000000000000000580000002030100
0202LOTE PADRAO                   BRADESPAR   PN *       BRAP4       010VISTA          000000000001000000000010000000000100000000000000000000010000219245000
0202LOTE PADRAO                   NET         PN         PLIM4       010VISTA          000000000001710000000017300000000160000000000000000000016000001127200
0202LOTE PADRAO                   TELE CTR OESPN * EJ    TCOC4       010VISTA          000000000007800000000079000000000750000000000000000000077500023185500
0202LOTE PADRAO                   GERDAU      PN * EJ    GGBR4       010VISTA          000000000019800000000201000000001910000000000000000000196000017612700
0202LOTE PADRAO                   BRASIL      ON *       BBAS3       010VISTA          000000000008000000000080000000000750000000000000000000079000005944100
