00BDIN9999BOVESPA 99992001101020011010
0101IBOVESPA                      0102840102550104620000000000000000002001101000000020011010010462000000
0202LOTE PADRAO                   TELESP      PN * EJ    TLPP4       010VISTA          000000000022200000000231000000002225000000000000000000230000018291100
0202LOTE PADRAO                   EMBRATEL PARPN *       EBTP4       010VISTA          000000000006700000000070000000000660000000000000000000070000097973700
0202LOTE PADRAO                   TRAN PAULISTPN * EJ    TRPL4       010VISTA          000000000004100000000041000000000400000000000000000000041000002870000
0202LOTE PADRAO                   EMBRATEL PARON *       EBTP3       010VISTA          000000000007400000000078000000000730000000000000000000077016220000000
0202LOTE PADRAO                   TELEMAR     PN * EJ    TNLP4       010VISTA          000000000023100000000241000000002310000000000000000000239000243300000
0202LOTE PADRAO                   TELEMAR     ON * EJ    TNLP3       010VISTA          000000000021600000000218000000002150000000000000000000218000013726400
0202LOTE PADRAO                   ITAUBANCO   PN * EJ    ITAU4       010VISTA          000000000158500000001585000000015710000000000000000001580000007969000
0202LOTE PADRAO                   AMBEV       PN *       AMBV4       010VISTA          000000000415000000004330000000041300000000000000000004260000001552800
0202LOTE PADRAO                   ELETROPAULO PN *       ELPL4       010VISTA          000000000055000000000570000000005450000000000000000000560000002920200
0202LOTE PADRAO                   SID NACIONALON *       CSNA3       010VISTA          000000000025600000000260000000002560000000000000000000258000017660000
0202LOTE PADRAO                   TELE NORD CLPN *       TNEP4       010VISTA          000000000002300000000024000000000230000000000000000000023000078429300
0202LOTE PADRAO                   TELE LEST CLPN *       TLCP4       010VISTA          000000000000650000000006600000000064000000000000000000006600077809100
0202LOTE PADRAO                   TELE CL SUL PN * EJ    TCSL4       010VISTA          000000000002600000000027100000000260000000000000000000026900079191300
0202LOTE PADRAO                   CEMIG       PN * EJ    CMIG4       010VISTA          000000000025300000000253000000002430000000000000000000250000017867900
0202LOTE PADRAO                   TELE CL SUL ON * EJ    TCSL3       010VISTA          000000000002300000000023000000000230000000000000000000023000009373400
0202LOTE PADRAO                   CEMIG       ON * EJ    CMIG3       010VISTA          000000000024500000000247000000002380000000000000000000241000002774500
0202LOTE PADRAO                   CRT CELULAR PNA* EJ    CRTP5       010VISTA          000000000340000000003520000000033790000000000000000003500000001257300
0202LOTE PADRAO                   IPIRANGA PETPN *       PTIP4       010VISTA          000000000011000000000110000000001080000000000000000000109000001245000
0202LOTE PADRAO                   BRASIL T PARPN *       BRTP4       010VISTA          000000000014300000000144000000001410000000000000000000143000102759000
0202LOTE PADRAO                   BRASIL T PARON *       BRTP3       010VISTA          000000000013900000000140000000001360000000000000000000139000035825300
0202LOTE PADRAO                   ACESITA     PN *       ACES4       010VISTA          000000000000420000000004300000000041000000000000000000004300118862000
0202LOTE PADRAO                   ELETROBRAS  PNB*       ELET6       010VISTA          000000000027500000000280000000002750000000000000000000278000021387400
0202LOTE PADRAO                   COMGAS      PNA*       CGAS5       010VISTA          000000000072500000000750000000007250000000000000000000730000010549000
0202LOTE PADRAO                   ELETROBRAS  ON *       ELET3       010VISTA          000000000030800000000311000000003050000000000000000000310000016369500
0202LOTE PADRAO                   V C P       PN *       VCPA4       010VISTA          000000000071000000000720000000007000000000000000000000710000002510400
0202LOTE PADRAO                   SID TUBARAO PN *       CSTB4       010VISTA          000000000013800000000146000000001380000000000000000000146000011364200
0202LOTE PADRAO                   TELESP CL PAPN *       TSPP4       010VISTA          000000000005300000000056000000000530000000000000000000056000089595100
0202LOTE PADRAO                   CESP        PN *       CESP4       010VISTA          000000000008000000000082500000000790000000000000000000080000009030000
0202LOTE PADRAO                   BRADESPAR   PN *       BRAP4       010VISTA          000000000000500000000005100000000049000000000000000000005000101516000
0202LOTE PADRAO                   BRADESCO    PN * EJ    BBDC4       010VISTA          000000000009750000000098000000000950000000000000000000097500301273000
0202LOTE PADRAO                   LIGHT       ON *       LIGH3       010VISTA          000000000072400000000739000000007240000000000000000000730000000480000
0202LOTE PADRAO                   TELE CTR OESPN * EJ    TCOC4       010VISTA          000000000004540000000047000000000454000000000000000000047000037706200
0202LOTE PADRAO                   COPEL       PNB*       CPLE6       010VISTA          000000000013800000000141000000001350000000000000000000139000020244500
0202LOTE PADRAO                   TELEMIG PARTPN *       TMCP4       010VISTA          000000000003000000000031000000000300000000000000000000031000022797500
0202LOTE PADRAO                   BRASIL TELECPN *       BRTO4       010VISTA          000000000009800000000099000000000970000000000000000000098000239202000
0202LOTE PADRAO                   SABESP      ON *       SBSP3       010VISTA          000000000102500000001070000000010200000000000000000001065000000491200
0202LOTE PADRAO                   GERDAU      PN * EJ    GGBR4       010VISTA          000000000014250000000147000000001400000000000000000000146000006900500
0202LOTE PADRAO                   BRASKEM     PNA*       BRKM5       010VISTA          000000000345000000003490000000033400000000000000000003450000000159400
0202LOTE PADRAO                   BRASIL      ON *       BBAS3       010VISTA          000000000006600000000068000000000660000000000000000000068000001365400
