00BDIN9999BOVESPA 99992001062720010627
0101IBOVESPA                      0144770142650146300000000000000000002001062700000020010627014308000000
0202LOTE PADRAO                   EMBRATEL PARPN *       EBTP4       010VISTA          000000000017800000000180000000001710000000000000000000173000070809300
0202LOTE PADRAO                   EMBRATEL PARON *       EBTP3       010VISTA          000000000017600000000181000000001730000000000000000000174000039268700
0202LOTE PADRAO                   TRAN PAULISTPN * EJ    TRPL4       010VISTA          000000000006400000000066000000000630000000000000000000063000004941500
0202LOTE PADRAO                   TELEMAR     PN * EJ    TNLP4       010VISTA          000000000035700000000360000000003430000000000000000000345000194640000
0202LOTE PADRAO                   ITAUBANCO   PN * EJ    ITAU4       010VISTA          000000000192000000001930000000018900000000000000000001895000006267300
0202LOTE PADRAO                   TELEMAR     ON * EJ    TNLP3       010VISTA          000000000030500000000306000000002960000000000000000000296000009250200
0202LOTE PADRAO                   SID NACIONALON *       CSNA3       010VISTA          000000000044500000000451000000004300000000000000000000430000010211000
0202LOTE PADRAO                   TELE LEST CLPN *       TLCP4       010VISTA          000000000001800000000018000000000180000000000000000000018000047447900
0202LOTE PADRAO                   CRT CELULAR PNA* EJ    CRTP5       010VISTA          000000000950000000009600000000090500000000000000000009399000000524500
0202LOTE PADRAO                   IPIRANGA PETPN *       PTIP4       010VISTA          000000000016800000000175000000001680000000000000000000173000002247900
0202LOTE PADRAO                   BRASIL T PARPN *       BRTP4       010VISTA          000000000019100000000193000000001860000000000000000000188000074572500
0202LOTE PADRAO                   BRASIL T PARON *       BRTP3       010VISTA          000000000018600000000187000000001780000000000000000000182000008428700
0202LOTE PADRAO                   ACESITA     PN *       ACES4       010VISTA          000000000000700000000007100000000068000000000000000000006800133802000
0202LOTE PADRAO                   PETROBRAS   PN         PETR4       010VISTA          000000000055400000000562000000005350000000000000000000536000000066800
0202LOTE PADRAO                   ELETROBRAS  PNB*       ELET6       010VISTA          000000000028300000000283000000002680000000000000000000268000043599800
0202LOTE PADRAO                   PETROBRAS   ON         PETR3       010VISTA          000000000062000000000638000000005950000000000000000000600000000025600
0202LOTE PADRAO                   COMGAS      PNA*       CGAS5       010VISTA          000000000151500000001538000000014650000000000000000001465000002985000
0202LOTE PADRAO                   SOUZA CRUZ  ON EJ      CRUZ3       010VISTA          000000000011600000000118000000001150000000000000000000118000000005500
0202LOTE PADRAO                   ELETROBRAS  ON *       ELET3       010VISTA          000000000031000000000310000000002920000000000000000000293000023039400
0202LOTE PADRAO                   CELESC      PNB        CLSC6       010VISTA          000000000000460000000004600000000045000000000000000000004600000115600
0202LOTE PADRAO                   BRADESCO    PN * EJ    BBDC4       010VISTA          000000000011900000000120000000001190000000000000000000119000102190000
0202LOTE PADRAO                   CESP        PN *       CESP4       010VISTA          000000000014000000000140000000001370000000000000000000139000007566500
0202LOTE PADRAO                   LIGHT       ON *       LIGH3       010VISTA          000000000143000000001460000000014300000000000000000001430000000194800
0202LOTE PADRAO                   TELESP CL PAPN *       TSPP4       010VISTA          000000000014100000000141000000001380000000000000000000138000075799500
0202LOTE PADRAO                   VALE R DOCE PNA        VALE5       010VISTA          000000000052000000000523000000005160000000000000000000516000000014400
0202LOTE PADRAO                   COPEL       PNB*       CPLE6       010VISTA          000000000016900000000173000000001680000000000000000000168000009407700
0202LOTE PADRAO                   VALE R DOCE ON         VALE3       010VISTA          000000000050000000000520000000005000000000000000000000509000000002300
0202LOTE PADRAO                   ARACRUZ     PNB        ARCZ6       010VISTA          000000000003900000000041000000000390000000000000000000040000000022300
0202LOTE PADRAO                   TELEMIG PARTPN *       TMCP4       010VISTA          000000000004700000000047000000000450000000000000000000045000043385400
0202LOTE PADRAO                   BRASIL TELECPN *       BRTO4       010VISTA          000000000013600000000139000000001330000000000000000000133000048769800
0202LOTE PADRAO                   SABESP      ON *       SBSP3       010VISTA          000000000171000000001749000000016500000000000000000001675000000379000
0202LOTE PADRAO                   BRASKEM     PNA*       BRKM5       010VISTA          000000000529700000005305000000052000000000000000000005210000000106100
0202LOTE PADRAO                   EMBRAER     PN EJ      EMBR4       010VISTA          000000000022300000000228000000002175000000000000000000217500000028900
0202LOTE PADRAO                   TELESP      PN * EJ    TLPP4       010VISTA          000000000026000000000266000000002600000000000000000000263000007572800
0202LOTE PADRAO                   EMBRAER     ON EJ      EMBR3       010VISTA          000000000017600000000177000000001700000000000000000000170000000017300
0202LOTE PADRAO                   AMBEV       PN *       AMBV4       010VISTA          000000000502000000005180000000050200000000000000000005180000002068600
0202LOTE PADRAO                   USIMINAS    PNA        USIM5       010VISTA          000000000006500000000067500000000640000000000000000000065000000022700
0202LOTE PADRAO                   ELETROPAULO PN *       ELPL4       010VISTA          000000000062500000000659000000006200000000000000000000632000003463300
0202LOTE PADRAO                   TELE NORD CLPN *       TNEP4       010VISTA          000000000003750000000038000000000360000000000000000000036000202499000
0202LOTE PADRAO                   CEMIG       PN * EJ    CMIG4       010VISTA          000000000026600000000271000000002600000000000000000000261000011224100
0202LOTE PADRAO                   TELE CL SUL PN * EJ    TCSL4       010VISTA          000000000004600000000047000000000450000000000000000000045000056147300
0202LOTE PADRAO                   CEMIG       ON * EJ    CMIG3       010VISTA          000000000025400000000254000000002460000000000000000000251000000243800
0202LOTE PADRAO                   TELE CL SUL ON * EJ    TCSL3       010VISTA          000000000004100000000041000000000380000000000000000000038000010779900
0202LOTE PADRAO                   ITAUSA      PN         ITSA4       010VISTA          000000000002000000000020000000000200000000000000000000020000000348800
0202LOTE PADRAO                   SID TUBARAO PN *       CSTB4       010VISTA          000000000021900000000219000000002000000000000000000000210000009217300
0202LOTE PADRAO                   V C P       PN *       VCPA4       010VISTA          000000000068000000000684000000006700000000000000000000670000000543200
0202LOTE PADRAO                   BRADESPAR   PN *       BRAP4       010VISTA          000000000000870000000009000000000087000000000000000000008900171199000
0202LOTE PADRAO                   NET         PN         PLIM4       010VISTA          000000000001000000000011000000000100000000000000000000011000003155700
0202LOTE PADRAO                   TELE CTR OESPN * EJ    TCOC4       010VISTA          000000000006700000000068000000000660000000000000000000067500078795500
0202LOTE PADRAO                   GERDAU      PN * EJ    GGBR4       010VISTA          000000000017000000000173000000001660000000000000000000166000006409700
0202LOTE PADRAO                   BRASIL      ON *       BBAS3       010VISTA          000000000009750000000101000000000960000000000000000000099000013374900
