00BDIN9999BOVESPA 99992001060120010601
0101IBOVESPA                      0146540144090147920000000000000000002001060100000020010601014792000000
0202LOTE PADRAO                   EMBRATEL PARPN *       EBTP4       010VISTA          000000000020100000000203000000001950000000000000000000203000065772600
0202LOTE PADRAO                   EMBRATEL PARON *       EBTP3       010VISTA          000000000018800000000192000000001850000000000000000000192000024285000
0202LOTE PADRAO                   TRAN PAULISTPN * EJ    TRPL4       010VISTA          000000000005700000000065000000000570000000000000000000065000014699000
0202LOTE PADRAO                   TELEMAR     PN * EJ    TNLP4       010VISTA          000000000037100000000371000000003600000000000000000000370000159629000
0202LOTE PADRAO                   ITAUBANCO   PN * EJ    ITAU4       010VISTA          000000000191000000001910000000018650000000000000000001900000005843200
0202LOTE PADRAO                   TELEMAR     ON * EJ    TNLP3       010VISTA          000000000031800000000320000000003050000000000000000000318000017033600
0202LOTE PADRAO                   SID NACIONALON *       CSNA3       010VISTA          000000000047500000000496000000004700000000000000000000496000005811800
0202LOTE PADRAO                   TELE LEST CLPN *       TLCP4       010VISTA          000000000001970000000021000000000196000000000000000000020000134658000
0202LOTE PADRAO                   IPIRANGA PETPN *       PTIP4       010VISTA          000000000016000000000161000000001600000000000000000000161000001733000
0202LOTE PADRAO                   BRASIL T PARPN *       BRTP4       010VISTA          000000000019200000000192000000001830000000000000000000190000064505200
0202LOTE PADRAO                   BRASIL T PARON *       BRTP3       010VISTA          000000000018800000000188000000001750000000000000000000182000014987700
0202LOTE PADRAO                   ACESITA     PN *       ACES4       010VISTA          000000000000680000000006800000000064000000000000000000006600408637000
0202LOTE PADRAO                   PETROBRAS   PN         PETR4       010VISTA          000000000059700000000602000000005900000000000000000000602500000071700
0202LOTE PADRAO                   ELETROBRAS  PNB*       ELET6       010VISTA          000000000025800000000263000000002510000000000000000000260000104772000
0202LOTE PADRAO                   PETROBRAS   ON         PETR3       010VISTA          000000000066900000000680000000006640000000000000000000670000000029700
0202LOTE PADRAO                   COMGAS      PNA*       CGAS5       010VISTA          000000000161900000001619000000015700000000000000000001575000002438700
0202LOTE PADRAO                   SOUZA CRUZ  ON EJ      CRUZ3       010VISTA          000000000011800000000118000000001160000000000000000000116000000005300
0202LOTE PADRAO                   CELESC      PNB        CLSC6       010VISTA          000000000000440000000004500000000043000000000000000000004500000119000
0202LOTE PADRAO                   ELETROBRAS  ON *       ELET3       010VISTA          000000000029500000000301000000002930000000000000000000300000036026400
0202LOTE PADRAO                   BRADESCO    PN * EJ    BBDC4       010VISTA          000000000011900000000120000000001180000000000000000000120000264215000
0202LOTE PADRAO                   CESP        PN *       CESP4       010VISTA          000000000014700000000147000000001400000000000000000000143000011600100
0202LOTE PADRAO                   LIGHT       ON *       LIGH3       010VISTA          000000000136000000001390000000013300000000000000000001370000000312000
0202LOTE PADRAO                   TELESP CL PAPN *       TSPP4       010VISTA          000000000016400000000167500000001630000000000000000000166000123778000
0202LOTE PADRAO                   VALE R DOCE PNA        VALE5       010VISTA          000000000057000000000571000000005670000000000000000000570000000035200
0202LOTE PADRAO                   COPEL       PNB*       CPLE6       010VISTA          000000000015500000000163000000001550000000000000000000161000026125600
0202LOTE PADRAO                   VALE R DOCE ON         VALE3       010VISTA          000000000051500000000520000000005150000000000000000000520000000001000
0202LOTE PADRAO                   ARACRUZ     PNB        ARCZ6       010VISTA          000000000004000000000041000000000400000000000000000000041000000113800
0202LOTE PADRAO                   TELEMIG PARTPN *       TMCP4       010VISTA          000000000004900000000051000000000490000000000000000000051000082209900
0202LOTE PADRAO                   BRASIL TELECPN *       BRTO4       010VISTA          000000000012750000000130000000001230000000000000000000130000061136400
0202LOTE PADRAO                   SABESP      ON *       SBSP3       010VISTA          000000000165000000001695000000016100000000000000000001670000002079000
0202LOTE PADRAO                   BRASKEM     PNA*       BRKM5       010VISTA          000000000520000000005201000000050800000000000000000005160000000155000
0202LOTE PADRAO                   EMBRAER     PN EJ      EMBR4       010VISTA          000000000024600000000248000000002410000000000000000000246000000008300
0202LOTE PADRAO                   TELESP      PN * EJ    TLPP4       010VISTA          000000000029100000000298000000002910000000000000000000298000003544600
0202LOTE PADRAO                   EMBRAER     ON EJ      EMBR3       010VISTA          000000000019000000000191000000001860000000000000000000189000000019600
0202LOTE PADRAO                   AMBEV       PN *       AMBV4       010VISTA          000000000538200000005479000000052000000000000000000005400000001418500
0202LOTE PADRAO                   USIMINAS    PNA        USIM5       010VISTA          000000000006500000000065000000000620000000000000000000065000000037100
0202LOTE PADRAO                   ELETROPAULO PN *       ELPL4       010VISTA          000000000065000000000650000000006260000000000000000000636000003021000
0202LOTE PADRAO                   TELE NORD CLPN *       TNEP4       010VISTA          000000000004000000000040000000000390000000000000000000039800127776000
0202LOTE PADRAO                   CEMIG       PN * EJ    CMIG4       010VISTA          000000000023200000000235000000002200000000000000000000234000026871700
0202LOTE PADRAO                   TELE CL SUL PN * EJ    TCSL4       010VISTA          000000000004800000000048000000000460000000000000000000047000082695700
0202LOTE PADRAO                   CEMIG       ON * EJ    CMIG3       010VISTA          000000000022800000000235000000002210000000000000000000234000001288100
0202LOTE PADRAO                   TELE CL SUL ON * EJ    TCSL3       010VISTA          000000000004000000000040000000000380000000000000000000039400016241200
0202LOTE PADRAO                   ITAUSA      PN         ITSA4       010VISTA          000000000002000000000020000000000199000000000000000000020000000377700
0202LOTE PADRAO                   SID TUBARAO PN *       CSTB4       010VISTA          000000000025600000000256000000002410000000000000000000248000002821300
0202LOTE PADRAO                   V C P       PN *       VCPA4       010VISTA          000000000061000000000650000000006000000000000000000000650000008762900
0202LOTE PADRAO                   BRADESPAR   PN *       BRAP4       010VISTA          000000000000820000000008400000000081000000000000000000008300094218300
0202LOTE PADRAO                   NET         PN         PLIM4       010VISTA          000000000000820000000008800000000080000000000000000000008700000948700
0202LOTE PADRAO                   TELE CTR OESPN * EJ    TCOC4       010VISTA          000000000006700000000069000000000650000000000000000000068000090299400
0202LOTE PADRAO                   GERDAU      PN * EJ    GGBR4       010VISTA          000000000015800000000161000000001570000000000000000000159000007238100
0202LOTE PADRAO                   BRASIL      ON *       BBAS3       010VISTA          000000000007900000000079000000000770000000000000000000077500003145600
