00BDIN9999BOVESPA 99992001102320011023
0101IBOVESPA                      0116990115840118030000000000000000002001102300000020011023011613000000
0202LOTE PADRAO                   EMBRATEL PARPN *       EBTP4       010VISTA          000000000008100000000082000000000740000000000000000000075000156695000
0202LOTE PADRAO                   EMBRATEL PARON *       EBTP3       010VISTA          000000000008800000000089000000000810000000000000000000081000025268000
0202LOTE PADRAO                   TRAN PAULISTPN * EJ    TRPL4       010VISTA          000000000005800000000061000000000550000000000000000000056000048930800
0202LOTE PADRAO                   TELEMAR     PN * EJ    TNLP4       010VISTA          000000000028000000000285000000002760000000000000000000277000262121000
0202LOTE PADRAO                   ITAUBANCO   PN * EJ    ITAU4       010VISTA          000000000176000000001805000000017600000000000000000001797500008130300
0202LOTE PADRAO                   TELEMAR     ON * EJ    TNLP3       010VISTA          000000000025200000000254000000002480000000000000000000249000031153200
0202LOTE PADRAO                   SID NACIONALON *       CSNA3       010VISTA          000000000028000000000283000000002750000000000000000000278000011913900
0202LOTE PADRAO                   TELE LEST CLPN *       TLCP4       010VISTA          000000000000770000000007700000000073000000000000000000007500146485000
0202LOTE PADRAO                   CRT CELULAR PNA* EJ    CRTP5       010VISTA          000000000362000000003620000000035890000000000000000003599000001165100
0202LOTE PADRAO                   IPIRANGA PETPN *       PTIP4       010VISTA          000000000011500000000118000000001150000000000000000000116000001354400
0202LOTE PADRAO                   BRASIL T PARPN *       BRTP4       010VISTA          000000000016000000000163000000001530000000000000000000160000100880000
0202LOTE PADRAO                   BRASIL T PARON *       BRTP3       010VISTA          000000000015500000000159000000001520000000000000000000154000015384100
0202LOTE PADRAO                   ACESITA     PN *       ACES4       010VISTA          000000000000490000000005100000000049000000000000000000004900198406000
0202LOTE PADRAO                   PETROBRAS   PN         PETR4       010VISTA          000000000053800000000539000000005320000000000000000000536000000114700
0202LOTE PADRAO                   ELETROBRAS  PNB*       ELET6       010VISTA          000000000033200000000340000000003260000000000000000000326000020474000
0202LOTE PADRAO                   PETROBRAS   ON         PETR3       010VISTA          000000000055000000000553000000005450000000000000000000548000000031100
0202LOTE PADRAO                   COMGAS      PNA*       CGAS5       010VISTA          000000000087000000000880000000008500000000000000000000861000000764000
0202LOTE PADRAO                   SOUZA CRUZ  ON EJ      CRUZ3       010VISTA          000000000013500000000135000000001330000000000000000000135000000010400
0202LOTE PADRAO                   ELETROBRAS  ON *       ELET3       010VISTA          000000000036000000000365000000003560000000000000000000357000008350000
0202LOTE PADRAO                   CELESC      PNB        CLSC6       010VISTA          000000000000480000000004900000000045000000000000000000004600001255400
0202LOTE PADRAO                   BRADESCO    PN * EJ    BBDC4       010VISTA          000000000010900000000112500000001090000000000000000000110000107317000
0202LOTE PADRAO                   CESP        PN *       CESP4       010VISTA          000000000014000000000144000000001180000000000000000000118000043227800
0202LOTE PADRAO                   LIGHT       ON *       LIGH3       010VISTA          000000000083000000000900000000008300000000000000000000847000000748200
0202LOTE PADRAO                   TELESP CL PAPN *       TSPP4       010VISTA          000000000005790000000057900000000550000000000000000000055000247507000
0202LOTE PADRAO                   VALE R DOCE PNA        VALE5       010VISTA          000000000055500000000555000000005450000000000000000000552000000134800
0202LOTE PADRAO                   COPEL       PNB*       CPLE6       010VISTA          000000000015900000000164000000001580000000000000000000163000048534000
0202LOTE PADRAO                   VALE R DOCE ON         VALE3       010VISTA          000000000053500000000535000000005350000000000000000000535000000000000
0202LOTE PADRAO                   ARACRUZ     PNB        ARCZ6       010VISTA          000000000004700000000047000000000430000000000000000000043000000018600
0202LOTE PADRAO                   TELEMIG PARTPN *       TMCP4       010VISTA          000000000003400000000035000000000330000000000000000000034000265872000
0202LOTE PADRAO                   BRASIL TELECPN *       BRTO4       010VISTA          000000000010700000000111000000001070000000000000000000110000195757000
0202LOTE PADRAO                   SABESP      ON *       SBSP3       010VISTA          000000000120000000001200000000011620000000000000000001162000000360300
0202LOTE PADRAO                   BRASKEM     PNA*       BRKM5       010VISTA          000000000425000000004300000000040010000000000000000004100000000157600
0202LOTE PADRAO                   EMBRAER     PN EJ      EMBR4       010VISTA          000000000011900000000120000000001160000000000000000000116000000087700
0202LOTE PADRAO                   TELESP      PN * EJ    TLPP4       010VISTA          000000000025750000000261000000002530000000000000000000261000014091700
0202LOTE PADRAO                   EMBRAER     ON EJ      EMBR3       010VISTA          000000000010000000000100000000000970000000000000000000097000000030100
0202LOTE PADRAO                   AMBEV       PN *       AMBV4       010VISTA          000000000432000000004370000000043000000000000000000004310000001518300
0202LOTE PADRAO                   USIMINAS    PNA        USIM5       010VISTA          000000000004100000000041000000000400000000000000000000040000000111300
0202LOTE PADRAO                   ELETROPAULO PN *       ELPL4       010VISTA          000000000064000000000640000000006300000000000000000000634000003700300
0202LOTE PADRAO                   TELE NORD CLPN *       TNEP4       010VISTA          000000000002500000000027300000000252000000000000000000026000165682000
0202LOTE PADRAO                   CEMIG       PN * EJ    CMIG4       010VISTA          000000000027300000000273000000002660000000000000000000269000020471400
0202LOTE PADRAO                   TELE CL SUL PN * EJ    TCSL4       010VISTA          000000000002980000000030000000000294000000000000000000029000064708700
0202LOTE PADRAO                   CEMIG       ON * EJ    CMIG3       010VISTA          000000000026800000000268000000002600000000000000000000261000000318400
0202LOTE PADRAO                   TELE CL SUL ON * EJ    TCSL3       010VISTA          000000000002560000000026000000000250000000000000000000025000045840600
0202LOTE PADRAO                   ITAUSA      PN         ITSA4       010VISTA          000000000001800000000019600000000180000000000000000000019500000202400
0202LOTE PADRAO                   SID TUBARAO PN *       CSTB4       010VISTA          000000000017300000000178000000001700000000000000000000171000008420400
0202LOTE PADRAO                   V C P       PN *       VCPA4       010VISTA          000000000076500000000767000000007600000000000000000000760000006010400
0202LOTE PADRAO                   BRADESPAR   PN *       BRAP4       010VISTA          000000000000630000000006400000000061000000000000000000006200183888000
0202LOTE PADRAO                   NET         PN         PLIM4       010VISTA          000000000000660000000006800000000065000000000000000000006700000778400
0202LOTE PADRAO                   TELE CTR OESPN * EJ    TCOC4       010VISTA          000000000005000000000054000000000500000000000000000000053000143145000
0202LOTE PADRAO                   GERDAU      PN * EJ    GGBR4       010VISTA          000000000018300000000187500000001810000000000000000000182000025663700
0202LOTE PADRAO                   BRASIL      ON *       BBAS3       010VISTA          000000000007600000000079000000000760000000000000000000077100005297700
