00BDIN9999BOVESPA 99992001121020011210
0101IBOVESPA                      0132990131930134460000000000000000002001121000000020011210013446000000
0202LOTE PADRAO                   EMBRATEL PARPN *       EBTP4       010VISTA          000000000009500000000095000000000910000000000000000000095000173292000
0202LOTE PADRAO                   EMBRATEL PARON *       EBTP3       010VISTA          000000000010400000000105000000001010000000000000000000105000060385800
0202LOTE PADRAO                   TRAN PAULISTPN * EJ    TRPL4       010VISTA          000000000006300000000063000000000600000000000000000000062000014575300
0202LOTE PADRAO                   TELEMAR     PN * EJ    TNLP4       010VISTA          000000000034200000000345000000003350000000000000000000344000247172000
0202LOTE PADRAO                   ITAUBANCO   PN * EJ    ITAU4       010VISTA          000000000172900000001775000000017210000000000000000001730000013820400
0202LOTE PADRAO                   TELEMAR     ON * EJ    TNLP3       010VISTA          000000000030500000000309000000002860000000000000000000302500010543200
0202LOTE PADRAO                   SID NACIONALON *       CSNA3       010VISTA          000000000037800000000394000000003780000000000000000000394000006459500
0202LOTE PADRAO                   TELE LEST CLPN *       TLCP4       010VISTA          000000000000900000000009200000000089000000000000000000009200100919000
0202LOTE PADRAO                   CRT CELULAR PNA* EJ    CRTP5       010VISTA          000000000475500000004800000000047000000000000000000004750000001240900
0202LOTE PADRAO                   IPIRANGA PETPN *       PTIP4       010VISTA          000000000013300000000138000000001325000000000000000000138000005222000
0202LOTE PADRAO                   BRASIL T PARPN *       BRTP4       010VISTA          000000000019300000000201000000001930000000000000000000196000075040500
0202LOTE PADRAO                   BRASIL T PARON *       BRTP3       010VISTA          000000000018500000000195000000001830000000000000000000192000010748700
0202LOTE PADRAO                   ACESITA     PN *       ACES4       010VISTA          000000000000710000000007200000000069000000000000000000007200149145000
0202LOTE PADRAO                   PETROBRAS   PN         PETR4       010VISTA          000000000049100000000492000000004850000000000000000000490000000098600
0202LOTE PADRAO                   ELETROBRAS  PNB*       ELET6       010VISTA          000000000032700000000327000000003160000000000000000000320000033199600
0202LOTE PADRAO                   PETROBRAS   ON         PETR3       010VISTA          000000000050500000000506000000004980000000000000000000502000000033000
0202LOTE PADRAO                   COMGAS      PNA*       CGAS5       010VISTA          000000000089000000000905000000008800000000000000000000905000000756300
0202LOTE PADRAO                   SOUZA CRUZ  ON EJ      CRUZ3       010VISTA          000000000013800000000140000000001380000000000000000000139000000014600
0202LOTE PADRAO                   ELETROBRAS  ON *       ELET3       010VISTA          000000000034000000000350000000003400000000000000000000344000008193400
0202LOTE PADRAO                   CELESC      PNB        CLSC6       010VISTA          000000000000460000000004800000000046000000000000000000004700000199800
0202LOTE PADRAO                   BRADESCO    PN * EJ    BBDC4       010VISTA          000000000011900000000120000000001190000000000000000000119000205406000
0202LOTE PADRAO                   CESP        PN *       CESP4       010VISTA          000000000015100000000163000000001510000000000000000000162000009912800
0202LOTE PADRAO                   LIGHT       ON *       LIGH3       010VISTA          000000000123000000001245000000012000000000000000000001200000000503900
0202LOTE PADRAO                   TELESP CL PAPN *       TSPP4       010VISTA          000000000007700000000080000000000770000000000000000000079000163617000
0202LOTE PADRAO                   VALE R DOCE PNA        VALE5       010VISTA          000000000052600000000527000000005200000000000000000000525000000062100
0202LOTE PADRAO                   COPEL       PNB*       CPLE6       010VISTA          000000000016500000000166000000001600000000000000000000166000022428400
0202LOTE PADRAO                   VALE R DOCE ON         VALE3       010VISTA          000000000049500000000497000000004950000000000000000000495000000000600
0202LOTE PADRAO                   ARACRUZ     PNB        ARCZ6       010VISTA          000000000004700000000047000000000440000000000000000000045000000021200
0202LOTE PADRAO                   TELEMIG PARTPN *       TMCP4       010VISTA          000000000004400000000045000000000420000000000000000000044000094431300
0202LOTE PADRAO                   BRASIL TELECPN *       BRTO4       010VISTA          000000000013600000000139000000001350000000000000000000137000125107000
0202LOTE PADRAO                   SABESP      ON *       SBSP3       010VISTA          000000000130900000001310000000012990000000000000000001309000001238600
0202LOTE PADRAO                   BRASKEM     PNA*       BRKM5       010VISTA          000000000420000000004298000000041000000000000000000004190000000171400
0202LOTE PADRAO                   EMBRAER     PN EJ      EMBR4       010VISTA          000000000012250000000124000000001170000000000000000000119000000048800
0202LOTE PADRAO                   TELESP      PN * EJ    TLPP4       010VISTA          000000000029900000000310000000002960000000000000000000309000008154800
0202LOTE PADRAO                   EMBRAER     ON EJ      EMBR3       010VISTA          000000000010400000000106000000001010000000000000000000104000000058900
0202LOTE PADRAO                   AMBEV       PN *       AMBV4       010VISTA          000000000495000000005030000000049500000000000000000004970000002782600
0202LOTE PADRAO                   USIMINAS    PNA        USIM5       010VISTA          000000000006000000000061000000000590000000000000000000061000000048000
0202LOTE PADRAO                   ELETROPAULO PN *       ELPL4       010VISTA          000000000079900000000804000000007800000000000000000000800000002593800
0202LOTE PADRAO                   TELE NORD CLPN *       TNEP4       010VISTA          000000000003200000000034000000000310000000000000000000033000097654400
0202LOTE PADRAO                   CEMIG       PN * EJ    CMIG4       010VISTA          000000000033300000000343000000003330000000000000000000343000039710100
0202LOTE PADRAO                   TELE CL SUL PN * EJ    TCSL4       010VISTA          000000000003700000000039000000000377000000000000000000039000070551900
0202LOTE PADRAO                   CEMIG       ON * EJ    CMIG3       010VISTA          000000000030000000000307500000003000000000000000000000306000002323000
0202LOTE PADRAO                   TELE CL SUL ON * EJ    TCSL3       010VISTA          000000000003000000000031000000000300000000000000000000031000021978200
0202LOTE PADRAO                   ITAUSA      PN         ITSA4       010VISTA          000000000002100000000021000000000200000000000000000000021000000201300
0202LOTE PADRAO                   V C P       PN *       VCPA4       010VISTA          000000000082100000000825000000008100000000000000000000819000001867500
0202LOTE PADRAO                   SID TUBARAO PN *       CSTB4       010VISTA          000000000021500000000229000000002150000000000000000000228000008750400
0202LOTE PADRAO                   BRADESPAR   PN *       BRAP4       010VISTA          000000000000820000000008600000000082000000000000000000008600212352000
0202LOTE PADRAO                   NET         PN         PLIM4       010VISTA          000000000000780000000008300000000077000000000000000000008300000766100
0202LOTE PADRAO                   TELE CTR OESPN * EJ    TCOC4       010VISTA          000000000005400000000054000000000520000000000000000000052000169338000
0202LOTE PADRAO                   TELEMAR N L PNA* EJ    TMAR5       010VISTA          000000000057600000000596000000005760000000000000000000594000058170200
0202LOTE PADRAO                   GERDAU      PN * EJ    GGBR4       010VISTA          000000000022100000000225000000002180000000000000000000221000009475300
0202LOTE PADRAO                   BRASIL      ON *       BBAS3       010VISTA          000000000009700000000098000000000950000000000000000000098000005193900
