00BDIN9999BOVESPA 99992001111420011114
0101IBOVESPA                      0129280127460130770000000000000000002001111400000020011114012826000000
0202LOTE PADRAO                   EMBRATEL PARPN *       EBTP4       010VISTA          000000000010000000000103000000000975000000000000000000098000185210000
0202LOTE PADRAO                   EMBRATEL PARON *       EBTP3       010VISTA          000000000010600000000112500000001030000000000000000000105000012821000
0202LOTE PADRAO                   TRAN PAULISTPN * EJ    TRPL4       010VISTA          000000000005700000000058000000000560000000000000000000058000014930600
0202LOTE PADRAO                   TELEMAR     PN * EJ    TNLP4       010VISTA          000000000033500000000339000000003230000000000000000000331000204076000
0202LOTE PADRAO                   ITAUBANCO   PN * EJ    ITAU4       010VISTA          000000000182000000001848000000018100000000000000000001835000009839100
0202LOTE PADRAO                   TELEMAR     ON * EJ    TNLP3       010VISTA          000000000029300000000300000000002850000000000000000000287000014838200
0202LOTE PADRAO                   SID NACIONALON *       CSNA3       010VISTA          000000000033700000000350000000003360000000000000000000337000011677600
0202LOTE PADRAO                   TELE LEST CLPN *       TLCP4       010VISTA          000000000000860000000008900000000085000000000000000000008500298525000
0202LOTE PADRAO                   CRT CELULAR PNA* EJ    CRTP5       010VISTA          000000000452000000004650000000045000000000000000000004500000000353700
0202LOTE PADRAO                   IPIRANGA PETPN *       PTIP4       010VISTA          000000000014300000000143000000001375000000000000000000140000001190000
0202LOTE PADRAO                   BRASIL T PARPN *       BRTP4       010VISTA          000000000019000000000194000000001880000000000000000000191000120448000
0202LOTE PADRAO                   BRASIL T PARON *       BRTP3       010VISTA          000000000018600000000186000000001800000000000000000000180000011720100
0202LOTE PADRAO                   ACESITA     PN *       ACES4       010VISTA          000000000000600000000006100000000058000000000000000000005900177500000
0202LOTE PADRAO                   PETROBRAS   PN         PETR4       010VISTA          000000000049900000000508000000004930000000000000000000494000000229100
0202LOTE PADRAO                   ELETROBRAS  PNB*       ELET6       010VISTA          000000000033800000000347000000003380000000000000000000340000043944200
0202LOTE PADRAO                   PETROBRAS   ON         PETR3       010VISTA          000000000054000000000540000000005120000000000000000000515000000080500
0202LOTE PADRAO                   COMGAS      PNA*       CGAS5       010VISTA          000000000088600000000886000000008340000000000000000000859000000823000
0202LOTE PADRAO                   SOUZA CRUZ  ON EJ      CRUZ3       010VISTA          000000000012600000000127500000001230000000000000000000125000000011200
0202LOTE PADRAO                   ELETROBRAS  ON *       ELET3       010VISTA          000000000036000000000368000000003570000000000000000000360000016358700
0202LOTE PADRAO                   CELESC      PNB        CLSC6       010VISTA          000000000000490000000004900000000046000000000000000000004800000149600
0202LOTE PADRAO                   BRADESCO    PN * EJ    BBDC4       010VISTA          000000000011900000000121000000001180000000000000000000119000142806000
0202LOTE PADRAO                   CESP        PN *       CESP4       010VISTA          000000000012500000000131000000001190000000000000000000125000003840900
0202LOTE PADRAO                   LIGHT       ON *       LIGH3       010VISTA          000000000093000000000930000000008900000000000000000000900000000364400
0202LOTE PADRAO                   TELESP CL PAPN *       TSPP4       010VISTA          000000000007000000000073000000000700000000000000000000072000627266000
0202LOTE PADRAO                   VALE R DOCE PNA        VALE5       010VISTA          000000000053300000000533000000005210000000000000000000527000000046000
0202LOTE PADRAO                   COPEL       PNB*       CPLE6       010VISTA          000000000015500000000160000000001540000000000000000000159000053694200
0202LOTE PADRAO                   VALE R DOCE ON         VALE3       010VISTA          000000000051400000000516000000005000000000000000000000510000000000300
0202LOTE PADRAO                   ARACRUZ     PNB        ARCZ6       010VISTA          000000000004500000000045000000000440000000000000000000045000000034200
0202LOTE PADRAO                   TELEMIG PARTPN *       TMCP4       010VISTA          000000000004300000000043000000000400000000000000000000041000099764600
0202LOTE PADRAO                   BRASIL TELECPN *       BRTO4       010VISTA          000000000013800000000141000000001380000000000000000000139000293177000
0202LOTE PADRAO                   SABESP      ON *       SBSP3       010VISTA          000000000124000000001240000000011970000000000000000001239000000964400
0202LOTE PADRAO                   BRASKEM     PNA*       BRKM5       010VISTA          000000000396000000004130000000039000000000000000000003920000000137300
0202LOTE PADRAO                   EMBRAER     PN EJ      EMBR4       010VISTA          000000000011000000000113000000001040000000000000000000106000000042100
0202LOTE PADRAO                   TELESP      PN * EJ    TLPP4       010VISTA          000000000029000000000293000000002830000000000000000000290000012680800
0202LOTE PADRAO                   EMBRAER     ON EJ      EMBR3       010VISTA          000000000009300000000095000000000900000000000000000000091000000046000
0202LOTE PADRAO                   AMBEV       PN *       AMBV4       010VISTA          000000000490000000004900000000047500000000000000000004780000001144200
0202LOTE PADRAO                   USIMINAS    PNA        USIM5       010VISTA          000000000004800000000050000000000470000000000000000000049000000081300
0202LOTE PADRAO                   ELETROPAULO PN *       ELPL4       010VISTA          000000000074000000000740000000007200000000000000000000725000012387100
0202LOTE PADRAO                   TELE NORD CLPN *       TNEP4       010VISTA          000000000003250000000033000000000320000000000000000000032000053658900
0202LOTE PADRAO                   CEMIG       PN * EJ    CMIG4       010VISTA          000000000029500000000298000000002950000000000000000000298000040908600
0202LOTE PADRAO                   TELE CL SUL PN * EJ    TCSL4       010VISTA          000000000003500000000036000000000350000000000000000000035000088687400
0202LOTE PADRAO                   CEMIG       ON * EJ    CMIG3       010VISTA          000000000027600000000284000000002700000000000000000000270000004220000
0202LOTE PADRAO                   TELE CL SUL ON * EJ    TCSL3       010VISTA          000000000003000000000030000000000290000000000000000000030000019213600
0202LOTE PADRAO                   ITAUSA      PN         ITSA4       010VISTA          000000000002000000000020000000000196000000000000000000020000000310100
0202LOTE PADRAO                   V C P       PN *       VCPA4       010VISTA          000000000081800000000830000000008130000000000000000000829000003615100
0202LOTE PADRAO                   SID TUBARAO PN *       CSTB4       010VISTA          000000000017400000000176000000001680000000000000000000168000005092400
0202LOTE PADRAO                   BRADESPAR   PN *       BRAP4       010VISTA          000000000000750000000007600000000072000000000000000000007300099742200
0202LOTE PADRAO                   NET         PN         PLIM4       010VISTA          000000000000800000000008200000000076000000000000000000007700000588400
0202LOTE PADRAO                   TELE CTR OESPN * EJ    TCOC4       010VISTA          000000000005500000000056000000000550000000000000000000055000122503000
0202LOTE PADRAO                   TELEMAR N L PNA* EJ    TMAR5       010VISTA          000000000051300000000521000000005090000000000000000000515000050768200
0202LOTE PADRAO                   GERDAU      PN * EJ    GGBR4       010VISTA          000000000020600000000210000000002050000000000000000000208000009765400
0202LOTE PADRAO                   BRASIL      ON *       BBAS3       010VISTA          000000000008500000000085000000000830000000000000000000083000002401300
