00BDIN9999BOVESPA 99992001112720011127
0101IBOVESPA                      0137710134900137910000000000000000002001112700000020011127013603000000
0202LOTE PADRAO                   EMBRATEL PARPN *       EBTP4       010VISTA          000000000011100000000115000000001080000000000000000000113000186769000
0202LOTE PADRAO                   EMBRATEL PARON *       EBTP3       010VISTA          000000000012200000000123000000001160000000000000000000120000026969300
0202LOTE PADRAO                   TRAN PAULISTPN * EJ    TRPL4       010VISTA          000000000006400000000065000000000620000000000000000000064000024964300
0202LOTE PADRAO                   TELEMAR     PN * EJ    TNLP4       010VISTA          000000000035400000000355000000003430000000000000000000347000237693000
0202LOTE PADRAO                   ITAUBANCO   PN * EJ    ITAU4       010VISTA          000000000189000000001890000000018610000000000000000001870000019502000
0202LOTE PADRAO                   TELEMAR     ON * EJ    TNLP3       010VISTA          000000000030000000000308000000002960000000000000000000300000022308800
0202LOTE PADRAO                   SID NACIONALON *       CSNA3       010VISTA          000000000038100000000381000000003700000000000000000000380000008048300
0202LOTE PADRAO                   TELE LEST CLPN *       TLCP4       010VISTA          000000000001000000000010000000000095000000000000000000009600169994000
0202LOTE PADRAO                   CRT CELULAR PNA* EJ    CRTP5       010VISTA          000000000496000000005030000000049600000000000000000004999000002295500
0202LOTE PADRAO                   IPIRANGA PETPN *       PTIP4       010VISTA          000000000014300000000143000000001350000000000000000000140000001478400
0202LOTE PADRAO                   BRASIL T PARPN *       BRTP4       010VISTA          000000000020000000000200000000001910000000000000000000196000131748000
0202LOTE PADRAO                   BRASIL T PARON *       BRTP3       010VISTA          000000000019000000000191000000001860000000000000000000189000010070600
0202LOTE PADRAO                   ACESITA     PN *       ACES4       010VISTA          000000000000740000000007400000000069000000000000000000006900246411000
0202LOTE PADRAO                   PETROBRAS   PN         PETR4       010VISTA          000000000050000000000500000000004870000000000000000000493000000114600
0202LOTE PADRAO                   ELETROBRAS  PNB*       ELET6       010VISTA          000000000034600000000352000000003390000000000000000000340000054341100
0202LOTE PADRAO                   PETROBRAS   ON         PETR3       010VISTA          000000000051100000000516000000005050000000000000000000510000000065500
0202LOTE PADRAO                   COMGAS      PNA*       CGAS5       010VISTA          000000000093500000000935000000009020000000000000000000912000000950000
0202LOTE PADRAO                   SOUZA CRUZ  ON EJ      CRUZ3       010VISTA          000000000013100000000132000000001275000000000000000000130000000015800
0202LOTE PADRAO                   ELETROBRAS  ON *       ELET3       010VISTA          000000000035600000000365000000003490000000000000000000349000015696600
0202LOTE PADRAO                   CELESC      PNB        CLSC6       010VISTA          000000000000530000000005300000000051000000000000000000005200000140400
0202LOTE PADRAO                   BRADESCO    PN * EJ    BBDC4       010VISTA          000000000012800000000128000000001240000000000000000000126000143115000
0202LOTE PADRAO                   CESP        PN *       CESP4       010VISTA          000000000015000000000151000000001480000000000000000000151000007702600
0202LOTE PADRAO                   LIGHT       ON *       LIGH3       010VISTA          000000000115000000001160000000011290000000000000000001149000001466400
0202LOTE PADRAO                   TELESP CL PAPN *       TSPP4       010VISTA          000000000007800000000084000000000771000000000000000000083000574123000
0202LOTE PADRAO                   VALE R DOCE PNA        VALE5       010VISTA          000000000049800000000515000000004970000000000000000000500000000044200
0202LOTE PADRAO                   COPEL       PNB*       CPLE6       010VISTA          000000000016800000000173000000001680000000000000000000171000020913400
0202LOTE PADRAO                   VALE R DOCE ON         VALE3       010VISTA          000000000049300000000494000000004850000000000000000000485000000001200
0202LOTE PADRAO                   ARACRUZ     PNB        ARCZ6       010VISTA          000000000004500000000047000000000440000000000000000000045000000030000
0202LOTE PADRAO                   TELEMIG PARTPN *       TMCP4       010VISTA          000000000004600000000047000000000460000000000000000000046000148893000
0202LOTE PADRAO                   BRASIL TELECPN *       BRTO4       010VISTA          000000000014600000000146000000001390000000000000000000140000129904000
0202LOTE PADRAO                   SABESP      ON *       SBSP3       010VISTA          000000000135000000001410000000013350000000000000000001362500001510100
0202LOTE PADRAO                   BRASKEM     PNA*       BRKM5       010VISTA          000000000441000000004410000000043400000000000000000004340000000233400
0202LOTE PADRAO                   EMBRAER     PN EJ      EMBR4       010VISTA          000000000011800000000118000000001110000000000000000000114000000051100
0202LOTE PADRAO                   TELESP      PN * EJ    TLPP4       010VISTA          000000000031500000000315000000003100000000000000000000314000005883900
0202LOTE PADRAO                   EMBRAER     ON EJ      EMBR3       010VISTA          000000000010400000000104000000000990000000000000000000100000000016800
0202LOTE PADRAO                   AMBEV       PN *       AMBV4       010VISTA          000000000520000000005290000000051000000000000000000005210000002206600
0202LOTE PADRAO                   USIMINAS    PNA        USIM5       010VISTA          000000000006100000000062000000000580000000000000000000059000000101800
0202LOTE PADRAO                   ELETROPAULO PN *       ELPL4       010VISTA          000000000081000000000838000000007900000000000000000000838000015494100
0202LOTE PADRAO                   TELE NORD CLPN *       TNEP4       010VISTA          000000000003500000000035000000000330000000000000000000034000105509000
0202LOTE PADRAO                   CEMIG       PN * EJ    CMIG4       010VISTA          000000000031900000000322000000003100000000000000000000322000053119600
0202LOTE PADRAO                   TELE CL SUL PN * EJ    TCSL4       010VISTA          000000000003800000000038000000000373000000000000000000037000115004000
0202LOTE PADRAO                   CEMIG       ON * EJ    CMIG3       010VISTA          000000000031000000000310000000002820000000000000000000295000000716300
0202LOTE PADRAO                   TELE CL SUL ON * EJ    TCSL3       010VISTA          000000000003100000000032000000000300000000000000000000032000022930800
0202LOTE PADRAO                   ITAUSA      PN         ITSA4       010VISTA          000000000002250000000022500000000210000000000000000000022000000872400
0202LOTE PADRAO                   V C P       PN *       VCPA4       010VISTA          000000000083900000000840000000008000000000000000000000805000004434500
0202LOTE PADRAO                   SID TUBARAO PN *       CSTB4       010VISTA          000000000021500000000215000000002080000000000000000000215000006818400
0202LOTE PADRAO                   BRADESPAR   PN *       BRAP4       010VISTA          000000000000810000000008100000000077000000000000000000007800158192000
0202LOTE PADRAO                   NET         PN         PLIM4       010VISTA          000000000000800000000008100000000078000000000000000000007900000665500
0202LOTE PADRAO                   TELE CTR OESPN * EJ    TCOC4       010VISTA          000000000005800000000059000000000560000000000000000000057100080393600
0202LOTE PADRAO                   TELEMAR N L PNA* EJ    TMAR5       010VISTA          000000000055400000000556000000005470000000000000000000552000047951800
0202LOTE PADRAO                   GERDAU      PN * EJ    GGBR4       010VISTA          000000000023700000000238000000002250000000000000000000226000035472200
0202LOTE PADRAO                   BRASIL      ON *       BBAS3       010VISTA          000000000009800000000098000000000930000000000000000000097000006629900
