00BDIN9999BOVESPA 99992001112820011128
0101IBOVESPA                      0135530129130135530000000000000000002001112800000020011128013019000000
0202LOTE PADRAO                   EMBRATEL PARPN *       EBTP4       010VISTA          000000000011000000000114000000001040000000000000000000105000259102000
0202LOTE PADRAO                   EMBRATEL PARON *       EBTP3       010VISTA          000000000012000000000121000000001130000000000000000000116000055156000
0202LOTE PADRAO                   TRAN PAULISTPN * EJ    TRPL4       010VISTA          000000000006400000000064000000000600000000000000000000061000016780700
0202LOTE PADRAO                   TELEMAR     PN * EJ    TNLP4       010VISTA          000000000034100000000342000000003290000000000000000000330000270248000
0202LOTE PADRAO                   ITAUBANCO   PN * EJ    ITAU4       010VISTA          000000000186100000001870000000018000000000000000000001805000016170700
0202LOTE PADRAO                   TELEMAR     ON * EJ    TNLP3       010VISTA          000000000028100000000295000000002800000000000000000000283000011824900
0202LOTE PADRAO                   SID NACIONALON *       CSNA3       010VISTA          000000000037900000000379000000003520000000000000000000357000015476700
0202LOTE PADRAO                   TELE LEST CLPN *       TLCP4       010VISTA          000000000000960000000009800000000091000000000000000000009200147055000
0202LOTE PADRAO                   CRT CELULAR PNA* EJ    CRTP5       010VISTA          000000000499000000004990000000048200000000000000000004929000000930400
0202LOTE PADRAO                   IPIRANGA PETPN *       PTIP4       010VISTA          000000000013600000000136000000001310000000000000000000131000001075600
0202LOTE PADRAO                   BRASIL T PARPN *       BRTP4       010VISTA          000000000019300000000193000000001800000000000000000000184000049321100
0202LOTE PADRAO                   BRASIL T PARON *       BRTP3       010VISTA          000000000018500000000189000000001760000000000000000000181000009346000
0202LOTE PADRAO                   ACESITA     PN *       ACES4       010VISTA          000000000000690000000007100000000066000000000000000000006800409149000
0202LOTE PADRAO                   PETROBRAS   PN         PETR4       010VISTA          000000000049000000000491000000004810000000000000000000483000000179400
0202LOTE PADRAO                   ELETROBRAS  PNB*       ELET6       010VISTA          000000000034000000000340000000003270000000000000000000328000047314600
0202LOTE PADRAO                   PETROBRAS   ON         PETR3       010VISTA          000000000050700000000507000000004960000000000000000000499000000061800
0202LOTE PADRAO                   COMGAS      PNA*       CGAS5       010VISTA          000000000089500000000902000000008750000000000000000000880000000791000
0202LOTE PADRAO                   SOUZA CRUZ  ON EJ      CRUZ3       010VISTA          000000000013000000000130000000001250000000000000000000128000000047200
0202LOTE PADRAO                   ELETROBRAS  ON *       ELET3       010VISTA          000000000035000000000350000000003400000000000000000000340000029865900
0202LOTE PADRAO                   CELESC      PNB        CLSC6       010VISTA          000000000000510000000005200000000049000000000000000000005000000431500
0202LOTE PADRAO                   BRADESCO    PN * EJ    BBDC4       010VISTA          000000000012500000000125000000001180000000000000000000120000235213000
0202LOTE PADRAO                   CESP        PN *       CESP4       010VISTA          000000000015100000000151000000001450000000000000000000149000020825600
0202LOTE PADRAO                   LIGHT       ON *       LIGH3       010VISTA          000000000115000000001159000000011190000000000000000001148000001033100
0202LOTE PADRAO                   TELESP CL PAPN *       TSPP4       010VISTA          000000000008100000000085000000000780000000000000000000078000577063000
0202LOTE PADRAO                   VALE R DOCE PNA        VALE5       010VISTA          000000000050000000000507000000004960000000000000000000500000000040400
0202LOTE PADRAO                   COPEL       PNB*       CPLE6       010VISTA          000000000016800000000171000000001575000000000000000000157500054170800
0202LOTE PADRAO                   VALE R DOCE ON         VALE3       010VISTA          000000000048000000000488000000004800000000000000000000482000000036700
0202LOTE PADRAO                   ARACRUZ     PNB        ARCZ6       010VISTA          000000000004500000000045000000000420000000000000000000044000000019700
0202LOTE PADRAO                   TELEMIG PARTPN *       TMCP4       010VISTA          000000000004600000000046000000000390000000000000000000043000084538400
0202LOTE PADRAO                   BRASIL TELECPN *       BRTO4       010VISTA          000000000013800000000139000000001300000000000000000000131000061970800
0202LOTE PADRAO                   SABESP      ON *       SBSP3       010VISTA          000000000134000000001360000000013100000000000000000001316000000887700
0202LOTE PADRAO                   BRASKEM     PNA*       BRKM5       010VISTA          000000000434000000004400000000041710000000000000000004182000000264900
0202LOTE PADRAO                   EMBRAER     PN EJ      EMBR4       010VISTA          000000000011400000000114000000001080000000000000000000110000000014000
0202LOTE PADRAO                   TELESP      PN * EJ    TLPP4       010VISTA          000000000031300000000313000000003000000000000000000000306000012557300
0202LOTE PADRAO                   EMBRAER     ON EJ      EMBR3       010VISTA          000000000009900000000099000000000910000000000000000000096000000023000
0202LOTE PADRAO                   AMBEV       PN *       AMBV4       010VISTA          000000000510000000005100000000048100000000000000000004870000004659900
0202LOTE PADRAO                   USIMINAS    PNA        USIM5       010VISTA          000000000005800000000058000000000550000000000000000000056000000103500
0202LOTE PADRAO                   ELETROPAULO PN *       ELPL4       010VISTA          000000000083500000000835000000007800000000000000000000797000007860400
0202LOTE PADRAO                   TELE NORD CLPN *       TNEP4       010VISTA          000000000003300000000033000000000310000000000000000000031000126442000
0202LOTE PADRAO                   CEMIG       PN * EJ    CMIG4       010VISTA          000000000031800000000320000000003040000000000000000000310000033348300
0202LOTE PADRAO                   TELE CL SUL PN * EJ    TCSL4       010VISTA          000000000003730000000037900000000340000000000000000000035000085935700
0202LOTE PADRAO                   CEMIG       ON * EJ    CMIG3       010VISTA          000000000028000000000299000000002670000000000000000000270000000240700
0202LOTE PADRAO                   TELE CL SUL ON * EJ    TCSL3       010VISTA          000000000003100000000031000000000280000000000000000000030000044026600
0202LOTE PADRAO                   ITAUSA      PN         ITSA4       010VISTA          000000000002100000000022000000000210000000000000000000021000000844400
0202LOTE PADRAO                   V C P       PN *       VCPA4       010VISTA          000000000080100000000818000000007800000000000000000000785000003977400
0202LOTE PADRAO                   SID TUBARAO PN *       CSTB4       010VISTA          000000000021400000000215000000002010000000000000000000210000005110100
0202LOTE PADRAO                   BRADESPAR   PN *       BRAP4       010VISTA          000000000000780000000007900000000071000000000000000000007600244961000
0202LOTE PADRAO                   NET         PN         PLIM4       010VISTA          000000000000780000000008000000000076000000000000000000007600000780600
0202LOTE PADRAO                   TELE CTR OESPN * EJ    TCOC4       010VISTA          000000000005700000000057500000000540000000000000000000055000074458800
0202LOTE PADRAO                   TELEMAR N L PNA* EJ    TMAR5       010VISTA          000000000054600000000546000000005350000000000000000000536000027714200
0202LOTE PADRAO                   GERDAU      PN * EJ    GGBR4       010VISTA          000000000023000000000230000000002200000000000000000000221000035713700
0202LOTE PADRAO                   BRASIL      ON *       BBAS3       010VISTA          000000000009600000000098000000000900000000000000000000095000011853100
