00BDIN9999BOVESPA 99992001020620010206
0101IBOVESPA                      0167340167340170170000000000000000002001020600000020010206017007000000
0202LOTE PADRAO                   EMBRATEL PARPN *       EBTP4       010VISTA          000000000029100000000298000000002860000000000000000000289000053772000
0202LOTE PADRAO                   EMBRATEL PARON *       EBTP3       010VISTA          000000000024300000000245000000002350000000000000000000240000025320700
0202LOTE PADRAO                   TRAN PAULISTPN * EJ    TRPL4       010VISTA          000000000008200000000088000000000820000000000000000000085000066517100
0202LOTE PADRAO                   TELEMAR     PN * EJ    TNLP4       010VISTA          000000000046500000000472000000004620000000000000000000467000115440000
0202LOTE PADRAO                   ITAUBANCO   PN * EJ    ITAU4       010VISTA          000000000181000000001815000000018000000000000000000001815000002989700
0202LOTE PADRAO                   TELEMAR     ON * EJ    TNLP3       010VISTA          000000000037200000000380000000003670000000000000000000377000008746300
0202LOTE PADRAO                   SID NACIONALON *       CSNA3       010VISTA          000000000068000000000687000000006740000000000000000000687000010548300
0202LOTE PADRAO                   TELE LEST CLPN *       TLCP4       010VISTA          000000000001550000000015000000000152000000000000000000015000082137500
0202LOTE PADRAO                   IPIRANGA PETPN *       PTIP4       010VISTA          000000000016600000000169000000001640000000000000000000169000001295100
0202LOTE PADRAO                   BRASIL T PARPN *       BRTP4       010VISTA          000000000023800000000250000000002360000000000000000000245000080070400
0202LOTE PADRAO                   BRASIL T PARON *       BRTP3       010VISTA          000000000020000000000210000000002000000000000000000000210000009131900
0202LOTE PADRAO                   ACESITA     PN *       ACES4       010VISTA          000000000001100000000011000000000110000000000000000000011000071979400
0202LOTE PADRAO                   PETROBRAS   PN         PETR4       010VISTA          000000000054200000000550000000005360000000000000000000542000000079800
0202LOTE PADRAO                   ELETROBRAS  PNB*       ELET6       010VISTA          000000000038000000000382000000003750000000000000000000380000019947300
0202LOTE PADRAO                   PETROBRAS   ON         PETR3       010VISTA          000000000054700000000562000000005460000000000000000000555000000031100
0202LOTE PADRAO                   COMGAS      PNA*       CGAS5       010VISTA          000000000159000000001597000000014900000000000000000001520000015857000
0202LOTE PADRAO                   SOUZA CRUZ  ON EJ      CRUZ3       010VISTA          000000000011750000000120000000001175000000000000000000119000000016000
0202LOTE PADRAO                   CELESC      PNB        CLSC6       010VISTA          000000000000670000000006800000000066000000000000000000006700000058100
0202LOTE PADRAO                   ELETROBRAS  ON *       ELET3       010VISTA          000000000041000000000410000000003950000000000000000000400000019329900
0202LOTE PADRAO                   BRADESCO    PN * EJ    BBDC4       010VISTA          000000000012700000000130000000001240000000000000000000125000001829300
0202LOTE PADRAO                   CESP        PN *       CESP4       010VISTA          000000000023500000000241000000002330000000000000000000241000015669200
0202LOTE PADRAO                   LIGHT       ON *       LIGH3       010VISTA          000000000253000000002540000000024800000000000000000002530000000311700
0202LOTE PADRAO                   TELESP CL PAPN *       TSPP4       010VISTA          000000000020100000000203000000002000000000000000000000201000097814500
0202LOTE PADRAO                   VALE R DOCE PNA        VALE5       010VISTA          000000000049700000000505000000004930000000000000000000502000000038000
0202LOTE PADRAO                   COPEL       PNB*       CPLE6       010VISTA          000000000018600000000190000000001800000000000000000000190000011735200
0202LOTE PADRAO                   VALE R DOCE ON         VALE3       010VISTA          000000000048700000000490000000004870000000000000000000487000000000200
0202LOTE PADRAO                   ARACRUZ     PNB        ARCZ6       010VISTA          000000000002700000000028000000000270000000000000000000028000000203400
0202LOTE PADRAO                   TELEMIG PARTPN *       TMCP4       010VISTA          000000000006000000000064000000000600000000000000000000064000106501000
0202LOTE PADRAO                   BRASIL TELECPN *       BRTO4       010VISTA          000000000017000000000176000000001700000000000000000000171000070429300
0202LOTE PADRAO                   SABESP      ON *       SBSP3       010VISTA          000000000217000000002170000000021250000000000000000002170000001712300
0202LOTE PADRAO                   BRASKEM     PNA*       BRKM5       010VISTA          000000000653800000006750000000065380000000000000000006750000000090900
0202LOTE PADRAO                   EMBRAER     PN EJ      EMBR4       010VISTA          000000000020000000000201000000001930000000000000000000200000000012900
0202LOTE PADRAO                   TELESP      PN * EJ    TLPP4       010VISTA          000000000031600000000316000000003080000000000000000000313000009000400
0202LOTE PADRAO                   EMBRAER     ON EJ      EMBR3       010VISTA          000000000015300000000155000000001530000000000000000000155000000008800
0202LOTE PADRAO                   AMBEV       PN *       AMBV4       010VISTA          000000000550000000005599000000053950000000000000000005449000000847400
0202LOTE PADRAO                   USIMINAS    PNA        USIM5       010VISTA          000000000011100000000115000000001100000000000000000000115000000056800
0202LOTE PADRAO                   ELETROPAULO PN *       ELPL4       010VISTA          000000000108000000001100000000010800000000000000000001089000000709400
0202LOTE PADRAO                   TELE NORD CLPN *       TNEP4       010VISTA          000000000003900000000040000000000380000000000000000000040000077300200
0202LOTE PADRAO                   CEMIG       PN * EJ    CMIG4       010VISTA          000000000034250000000347000000003375000000000000000000342000029415700
0202LOTE PADRAO                   TELE CL SUL PN * EJ    TCSL4       010VISTA          000000000004900000000052000000000490000000000000000000052000061261800
0202LOTE PADRAO                   CEMIG       ON * EJ    CMIG3       010VISTA          000000000030600000000306000000003000000000000000000000303000000790000
0202LOTE PADRAO                   TELE CL SUL ON * EJ    TCSL3       010VISTA          000000000004000000000042000000000400000000000000000000042000005087700
0202LOTE PADRAO                   ITAUSA      PN         ITSA4       010VISTA          000000000002000000000020000000000199000000000000000000020000000107400
0202LOTE PADRAO                   SID TUBARAO PN *       CSTB4       010VISTA          000000000022600000000233000000002260000000000000000000233000001665000
0202LOTE PADRAO                   V C P       PN *       VCPA4       010VISTA          000000000061000000000610000000005950000000000000000000600000000520300
0202LOTE PADRAO                   BRADESPAR   PN *       BRAP4       010VISTA          000000000001100000000011000000000110000000000000000000011000122053000
0202LOTE PADRAO                   NET         PN         PLIM4       010VISTA          000000000002000000000020000000000196000000000000000000020000000772400
0202LOTE PADRAO                   TELE CTR OESPN * EJ    TCOC4       010VISTA          000000000008000000000083000000000800000000000000000000083000053710500
0202LOTE PADRAO                   GERDAU      PN * EJ    GGBR4       010VISTA          000000000020000000000201000000001960000000000000000000201000025618500
0202LOTE PADRAO                   BRASIL      ON *       BBAS3       010VISTA          000000000007200000000075000000000720000000000000000000072000006165800
