00BDIN9999BOVESPA 99992001121720011217
0101IBOVESPA                      0129650129120130630000000000000000002001121700000020011217012912000000
0202LOTE PADRAO                   EMBRATEL PARPN *       EBTP4       010VISTA          000000000009500000000096000000000925000000000000000000092000074689500
0202LOTE PADRAO                   EMBRATEL PARON *       EBTP3       010VISTA          000000000010750000000108000000001050000000000000000000107000007202000
0202LOTE PADRAO                   TRAN PAULISTPN * EJ    TRPL4       010VISTA          000000000006300000000063000000000620000000000000000000062000006742000
0202LOTE PADRAO                   TELEMAR     PN * EJ    TNLP4       010VISTA          000000000033300000000338000000003310000000000000000000334000292898000
0202LOTE PADRAO                   ITAUBANCO   PN * EJ    ITAU4       010VISTA          000000000175000000001755000000017310000000000000000001740000011295000
0202LOTE PADRAO                   TELEMAR     ON * EJ    TNLP3       010VISTA          000000000028500000000290000000002810000000000000000000288000012672200
0202LOTE PADRAO                   SID NACIONALON *       CSNA3       010VISTA          000000000037000000000370000000003520000000000000000000353000009854700
0202LOTE PADRAO                   TELE LEST CLPN *       TLCP4       010VISTA          000000000000910000000009100000000089000000000000000000008900070437500
0202LOTE PADRAO                   CRT CELULAR PNA* EJ    CRTP5       010VISTA          000000000465000000004680000000045500000000000000000004550000001330800
0202LOTE PADRAO                   IPIRANGA PETPN *       PTIP4       010VISTA          000000000012600000000127000000001250000000000000000000125000001847700
0202LOTE PADRAO                   BRASIL T PARPN *       BRTP4       010VISTA          000000000018600000000186000000001810000000000000000000181000029143200
0202LOTE PADRAO                   BRASIL T PARON *       BRTP3       010VISTA          000000000018100000000183000000001780000000000000000000178000009273300
0202LOTE PADRAO                   ACESITA     PN *       ACES4       010VISTA          000000000000720000000007200000000069000000000000000000006900087443600
0202LOTE PADRAO                   PETROBRAS   PN         PETR4       010VISTA          000000000047700000000482000000004690000000000000000000471000000123200
0202LOTE PADRAO                   ELETROBRAS  PNB*       ELET6       010VISTA          000000000029000000000295000000002820000000000000000000282000030384300
0202LOTE PADRAO                   PETROBRAS   ON         PETR3       010VISTA          000000000049000000000491000000004820000000000000000000483000000015800
0202LOTE PADRAO                   COMGAS      PNA*       CGAS5       010VISTA          000000000090000000000909000000008900000000000000000000890000000229200
0202LOTE PADRAO                   SOUZA CRUZ  ON EJ      CRUZ3       010VISTA          000000000014000000000140000000001390000000000000000000139000000020200
0202LOTE PADRAO                   ELETROBRAS  ON *       ELET3       010VISTA          000000000030100000000306000000002950000000000000000000298000014753800
0202LOTE PADRAO                   CELESC      PNB        CLSC6       010VISTA          000000000000460000000004600000000043000000000000000000004400000198600
0202LOTE PADRAO                   BRADESCO    PN * EJ    BBDC4       010VISTA          000000000011400000000114000000001120000000000000000000113000236597000
0202LOTE PADRAO                   CESP        PN *       CESP4       010VISTA          000000000016100000000165000000001590000000000000000000159000005477000
0202LOTE PADRAO                   LIGHT       ON *       LIGH3       010VISTA          000000000115700000001160000000011400000000000000000001140000000567700
0202LOTE PADRAO                   TELESP CL PAPN *       TSPP4       010VISTA          000000000007800000000079000000000770000000000000000000077000282079000
0202LOTE PADRAO                   VALE R DOCE PNA        VALE5       010VISTA          000000000051800000000522000000005170000000000000000000521000000018100
0202LOTE PADRAO                   COPEL       PNB*       CPLE6       010VISTA          000000000015800000000161000000001540000000000000000000160000017489900
0202LOTE PADRAO                   VALE R DOCE ON         VALE3       010VISTA          000000000049900000000499000000004950000000000000000000495000000010500
0202LOTE PADRAO                   ARACRUZ     PNB        ARCZ6       010VISTA          000000000004250000000045000000000425000000000000000000044000000034800
0202LOTE PADRAO                   TELEMIG PARTPN *       TMCP4       010VISTA          000000000004000000000040000000000390000000000000000000039000085561900
0202LOTE PADRAO                   BRASIL TELECPN *       BRTO4       010VISTA          000000000012800000000130000000001260000000000000000000126000058728300
0202LOTE PADRAO                   SABESP      ON *       SBSP3       010VISTA          000000000132000000001340000000013000000000000000000001302000002418800
0202LOTE PADRAO                   BRASKEM     PNA*       BRKM5       010VISTA          000000000430000000004300000000042300000000000000000004300000000181700
0202LOTE PADRAO                   EMBRAER     PN EJ      EMBR4       010VISTA          000000000012750000000128000000001240000000000000000000125000000036100
0202LOTE PADRAO                   TELESP      PN * EJ    TLPP4       010VISTA          000000000030200000000313000000003010000000000000000000313000003603400
0202LOTE PADRAO                   EMBRAER     ON EJ      EMBR3       010VISTA          000000000011000000000113000000001100000000000000000000112000000016100
0202LOTE PADRAO                   AMBEV       PN *       AMBV4       010VISTA          000000000475000000004780000000047300000000000000000004730000001554000
0202LOTE PADRAO                   USIMINAS    PNA        USIM5       010VISTA          000000000006100000000062500000000600000000000000000000060000000015800
0202LOTE PADRAO                   ELETROPAULO PN *       ELPL4       010VISTA          000000000079500000000796000000007800000000000000000000780000002036000
0202LOTE PADRAO                   TELE NORD CLPN *       TNEP4       010VISTA          000000000003200000000032000000000310000000000000000000031000034130100
0202LOTE PADRAO                   CEMIG       PN * EJ    CMIG4       010VISTA          000000000032000000000322000000003130000000000000000000320000028372000
0202LOTE PADRAO                   TELE CL SUL PN * EJ    TCSL4       010VISTA          000000000003750000000037500000000360000000000000000000036000033098400
0202LOTE PADRAO                   CEMIG       ON * EJ    CMIG3       010VISTA          000000000028000000000281000000002740000000000000000000280000000523300
0202LOTE PADRAO                   TELE CL SUL ON * EJ    TCSL3       010VISTA          000000000003100000000031000000000300000000000000000000030000019835700
0202LOTE PADRAO                   ITAUSA      PN         ITSA4       010VISTA          000000000002100000000021000000000210000000000000000000021000000264800
0202LOTE PADRAO                   V C P       PN *       VCPA4       010VISTA          000000000081000000000810000000007770000000000000000000777000001201200
0202LOTE PADRAO                   SID TUBARAO PN *       CSTB4       010VISTA          000000000021000000000210000000002080000000000000000000208000004480000
0202LOTE PADRAO                   BRADESPAR   PN *       BRAP4       010VISTA          000000000000850000000008600000000083000000000000000000008300101058000
0202LOTE PADRAO                   NET         PN         PLIM4       010VISTA          000000000000800000000008000000000077000000000000000000007800001938300
0202LOTE PADRAO                   TELE CTR OESPN * EJ    TCOC4       010VISTA          000000000005300000000053000000000520000000000000000000052000048262800
0202LOTE PADRAO                   TELEMAR N L PNA* EJ    TMAR5       010VISTA          000000000055100000000553000000005470000000000000000000549000041582800
0202LOTE PADRAO                   GERDAU      PN * EJ    GGBR4       010VISTA          000000000022000000000225000000002200000000000000000000222000013032300
0202LOTE PADRAO                   BRASIL      ON *       BBAS3       010VISTA          000000000010100000000105000000001000000000000000000000101000015635600
