00BDIN9999BOVESPA 99992001012420010124
0101IBOVESPA                      0178490176980180220000000000000000002001012400000020010124017772000000
0202LOTE PADRAO                   EMBRATEL PARPN *       EBTP4       010VISTA          000000000033200000000347000000003180000000000000000000321000153917000
0202LOTE PADRAO                   EMBRATEL PARON *       EBTP3       010VISTA          000000000027100000000276000000002550000000000000000000259000054524500
0202LOTE PADRAO                   TRAN PAULISTPN * EJ    TRPL4       010VISTA          000000000008400000000084000000000800000000000000000000081000014276900
0202LOTE PADRAO                   TELEMAR     PN * EJ    TNLP4       010VISTA          000000000049800000000504000000004910000000000000000000496000118765000
0202LOTE PADRAO                   ITAUBANCO   PN * EJ    ITAU4       010VISTA          000000000195000000001950000000018680000000000000000001868000005984500
0202LOTE PADRAO                   TELEMAR     ON * EJ    TNLP3       010VISTA          000000000040000000000402000000003900000000000000000000398000012936000
0202LOTE PADRAO                   SID NACIONALON *       CSNA3       010VISTA          000000000069750000000702000000006970000000000000000000701000019389200
0202LOTE PADRAO                   TELE LEST CLPN *       TLCP4       010VISTA          000000000001490000000016000000000148000000000000000000016000563372000
0202LOTE PADRAO                   CRT CELULAR PNA* EJ    CRTP5       010VISTA          000000000755000000008700000000074500000000000000000008300000002220400
0202LOTE PADRAO                   IPIRANGA PETPN *       PTIP4       010VISTA          000000000018100000000181000000001750000000000000000000175000000717700
0202LOTE PADRAO                   BRASIL T PARPN *       BRTP4       010VISTA          000000000024600000000256000000002460000000000000000000252000171993000
0202LOTE PADRAO                   BRASIL T PARON *       BRTP3       010VISTA          000000000020300000000211000000002030000000000000000000210000027747300
0202LOTE PADRAO                   ACESITA     PN *       ACES4       010VISTA          000000000001250000000012600000000120000000000000000000012000440945000
0202LOTE PADRAO                   PETROBRAS   PN         PETR4       010VISTA          000000000055800000000562000000005500000000000000000000551000000122100
0202LOTE PADRAO                   ELETROBRAS  PNB*       ELET6       010VISTA          000000000041200000000422000000004000000000000000000000403000059112500
0202LOTE PADRAO                   PETROBRAS   ON         PETR3       010VISTA          000000000057000000000572000000005550000000000000000000557000000067600
0202LOTE PADRAO                   COMGAS      PNA*       CGAS5       010VISTA          000000000144900000001500000000014400000000000000000001500000013978900
0202LOTE PADRAO                   SOUZA CRUZ  ON EJ      CRUZ3       010VISTA          000000000010500000000105000000001050000000000000000000105000000017700
0202LOTE PADRAO                   ELETROBRAS  ON *       ELET3       010VISTA          000000000043200000000435000000004200000000000000000000420000016314800
0202LOTE PADRAO                   CELESC      PNB        CLSC6       010VISTA          000000000000700000000007200000000069000000000000000000006900000184400
0202LOTE PADRAO                   BRADESCO    PN * EJ    BBDC4       010VISTA          000000000013600000000137000000001330000000000000000000134000002159400
0202LOTE PADRAO                   CESP        PN *       CESP4       010VISTA          000000000023600000000238000000002280000000000000000000230000023560800
0202LOTE PADRAO                   LIGHT       ON *       LIGH3       010VISTA          000000000270000000002750000000025600000000000000000002639000000283300
0202LOTE PADRAO                   TELESP CL PAPN *       TSPP4       010VISTA          000000000021600000000235000000002130000000000000000000229000505877000
0202LOTE PADRAO                   VALE R DOCE PNA        VALE5       010VISTA          000000000049500000000503000000004940000000000000000000502000000046300
0202LOTE PADRAO                   COPEL       PNB*       CPLE6       010VISTA          000000000019600000000201000000001930000000000000000000195000046864500
0202LOTE PADRAO                   VALE R DOCE ON         VALE3       010VISTA          000000000046000000000490000000004600000000000000000000489000000010700
0202LOTE PADRAO                   ARACRUZ     PNB        ARCZ6       010VISTA          000000000002980000000030000000000290000000000000000000029400000071800
0202LOTE PADRAO                   TELEMIG PARTPN *       TMCP4       010VISTA          000000000006700000000068000000000620000000000000000000067000192566000
0202LOTE PADRAO                   BRASIL TELECPN *       BRTO4       010VISTA          000000000017900000000185000000001790000000000000000000183000084497400
0202LOTE PADRAO                   SABESP      ON *       SBSP3       010VISTA          000000000225000000002280000000021800000000000000000002200000002652500
0202LOTE PADRAO                   BRASKEM     PNA*       BRKM5       010VISTA          000000000705000000007070000000069600000000000000000007060000000248300
0202LOTE PADRAO                   EMBRAER     PN EJ      EMBR4       010VISTA          000000000020100000000211000000001980000000000000000000210000000055100
0202LOTE PADRAO                   TELESP      PN * EJ    TLPP4       010VISTA          000000000028600000000303000000002810000000000000000000303000023457100
0202LOTE PADRAO                   EMBRAER     ON EJ      EMBR3       010VISTA          000000000016000000000163000000001580000000000000000000159000000042300
0202LOTE PADRAO                   AMBEV       PN *       AMBV4       010VISTA          000000000510000000005180000000050100000000000000000005040000000638400
0202LOTE PADRAO                   USIMINAS    PNA        USIM5       010VISTA          000000000011000000000114000000001100000000000000000000114000000041500
0202LOTE PADRAO                   ELETROPAULO PN *       ELPL4       010VISTA          000000000120000000001200000000011500000000000000000001160000001801000
0202LOTE PADRAO                   TELE NORD CLPN *       TNEP4       010VISTA          000000000004540000000046000000000440000000000000000000045000090903500
0202LOTE PADRAO                   CEMIG       PN * EJ    CMIG4       010VISTA          000000000034900000000352000000003410000000000000000000351000047265100
0202LOTE PADRAO                   TELE CL SUL PN * EJ    TCSL4       010VISTA          000000000005500000000057000000000550000000000000000000057500184178000
0202LOTE PADRAO                   CEMIG       ON * EJ    CMIG3       010VISTA          000000000031500000000315000000002980000000000000000000300000000922200
0202LOTE PADRAO                   TELE CL SUL ON * EJ    TCSL3       010VISTA          000000000004500000000045000000000440000000000000000000044000027524800
0202LOTE PADRAO                   ITAUSA      PN         ITSA4       010VISTA          000000000002100000000021000000000200000000000000000000020000000503700
0202LOTE PADRAO                   SID TUBARAO PN *       CSTB4       010VISTA          000000000025100000000251000000002450000000000000000000246000014927000
0202LOTE PADRAO                   V C P       PN *       VCPA4       010VISTA          000000000062800000000640000000006280000000000000000000636000006515000
0202LOTE PADRAO                   BRADESPAR   PN *       BRAP4       010VISTA          000000000001260000000012700000000120000000000000000000012000164996000
0202LOTE PADRAO                   NET         PN         PLIM4       010VISTA          000000000002300000000023000000000220000000000000000000023000000691700
0202LOTE PADRAO                   TELE CTR OESPN * EJ    TCOC4       010VISTA          000000000008800000000088000000000800000000000000000000081000205433000
0202LOTE PADRAO                   GERDAU      PN * EJ    GGBR4       010VISTA          000000000021900000000226000000002175000000000000000000226000032697400
0202LOTE PADRAO                   BRASIL      ON *       BBAS3       010VISTA          000000000008300000000084000000000800000000000000000000081000004968200
