00BDIN9999BOVESPA 99992001050220010502
0101IBOVESPA                      0148770146360149200000000000000000002001050200000020010502014897000000
0202LOTE PADRAO                   EMBRATEL PARPN *       EBTP4       010VISTA          000000000019600000000205000000001960000000000000000000204000105781000
0202LOTE PADRAO                   EMBRATEL PARON *       EBTP3       010VISTA          000000000018800000000190000000001810000000000000000000183000024565600
0202LOTE PADRAO                   TRAN PAULISTPN * EJ    TRPL4       010VISTA          000000000007100000000072000000000690000000000000000000069600020710900
0202LOTE PADRAO                   TELEMAR     PN * EJ    TNLP4       010VISTA          000000000038000000000383000000003720000000000000000000383000160391000
0202LOTE PADRAO                   ITAUBANCO   PN * EJ    ITAU4       010VISTA          000000000177000000001770000000017000000000000000000001746000013704800
0202LOTE PADRAO                   TELEMAR     ON * EJ    TNLP3       010VISTA          000000000034000000000340000000003250000000000000000000340000037073900
0202LOTE PADRAO                   SID NACIONALON *       CSNA3       010VISTA          000000000051700000000522000000005110000000000000000000517000010582400
0202LOTE PADRAO                   TELE LEST CLPN *       TLCP4       010VISTA          000000000001600000000016000000000151000000000000000000015600199517000
0202LOTE PADRAO                   IPIRANGA PETPN *       PTIP4       010VISTA          000000000016000000000163000000001580000000000000000000163000005655500
0202LOTE PADRAO                   BRASIL T PARPN *       BRTP4       010VISTA          000000000019800000000198000000001860000000000000000000191000043048800
0202LOTE PADRAO                   BRASIL T PARON *       BRTP3       010VISTA          000000000018800000000190000000001810000000000000000000187000023938200
0202LOTE PADRAO                   ACESITA     PN *       ACES4       010VISTA          000000000000880000000008800000000082000000000000000000008300263073000
0202LOTE PADRAO                   PETROBRAS   PN         PETR4       010VISTA          000000000053300000000539000000005250000000000000000000539000000124100
0202LOTE PADRAO                   ELETROBRAS  PNB*       ELET6       010VISTA          000000000034000000000340000000003270000000000000000000333000026777900
0202LOTE PADRAO                   PETROBRAS   ON         PETR3       010VISTA          000000000058800000000598000000005810000000000000000000595000000073400
0202LOTE PADRAO                   COMGAS      PNA*       CGAS5       010VISTA          000000000133000000001379000000012400000000000000000001310000006112000
0202LOTE PADRAO                   SOUZA CRUZ  ON EJ      CRUZ3       010VISTA          000000000010500000000105000000001030000000000000000000105000000024700
0202LOTE PADRAO                   CELESC      PNB        CLSC6       010VISTA          000000000000500000000005000000000047000000000000000000004700000635600
0202LOTE PADRAO                   ELETROBRAS  ON *       ELET3       010VISTA          000000000037400000000374000000003600000000000000000000368000034451600
0202LOTE PADRAO                   BRADESCO    PN * EJ    BBDC4       010VISTA          000000000012300000000125000000001200000000000000000000120000225087000
0202LOTE PADRAO                   CESP        PN *       CESP4       010VISTA          000000000017500000000181000000001700000000000000000000180000039720700
0202LOTE PADRAO                   LIGHT       ON *       LIGH3       010VISTA          000000000150000000001564000000014500000000000000000001564000000953700
0202LOTE PADRAO                   TELESP CL PAPN *       TSPP4       010VISTA          000000000014900000000149000000001410000000000000000000148000208605000
0202LOTE PADRAO                   VALE R DOCE PNA        VALE5       010VISTA          000000000051000000000532000000005100000000000000000000531000000057800
0202LOTE PADRAO                   COPEL       PNB*       CPLE6       010VISTA          000000000016900000000175000000001680000000000000000000168000057469400
0202LOTE PADRAO                   VALE R DOCE ON         VALE3       010VISTA          000000000048500000000485000000004850000000000000000000485000000007800
0202LOTE PADRAO                   ARACRUZ     PNB        ARCZ6       010VISTA          000000000003200000000032700000000320000000000000000000032700000057500
0202LOTE PADRAO                   TELEMIG PARTPN *       TMCP4       010VISTA          000000000004100000000042000000000400000000000000000000041000182124000
0202LOTE PADRAO                   BRASIL TELECPN *       BRTO4       010VISTA          000000000013800000000138000000001300000000000000000000134000081624100
0202LOTE PADRAO                   SABESP      ON *       SBSP3       010VISTA          000000000181000000001810000000017400000000000000000001745000003677200
0202LOTE PADRAO                   BRASKEM     PNA*       BRKM5       010VISTA          000000000588900000005889000000057010000000000000000005750000000155900
0202LOTE PADRAO                   EMBRAER     PN EJ      EMBR4       010VISTA          000000000023900000000256000000002390000000000000000000254000000026200
0202LOTE PADRAO                   TELESP      PN * EJ    TLPP4       010VISTA          000000000029500000000304000000002910000000000000000000303000020815400
0202LOTE PADRAO                   EMBRAER     ON EJ      EMBR3       010VISTA          000000000019100000000198000000001900000000000000000000196000000030900
0202LOTE PADRAO                   AMBEV       PN *       AMBV4       010VISTA          000000000538000000005380000000052490000000000000000005250000002724900
0202LOTE PADRAO                   USIMINAS    PNA        USIM5       010VISTA          000000000008500000000088000000000850000000000000000000085000000032700
0202LOTE PADRAO                   ELETROPAULO PN *       ELPL4       010VISTA          000000000067000000000680000000006500000000000000000000670000005733400
0202LOTE PADRAO                   TELE NORD CLPN *       TNEP4       010VISTA          000000000003100000000031000000000300000000000000000000031000052454100
0202LOTE PADRAO                   CEMIG       PN * EJ    CMIG4       010VISTA          000000000025100000000254000000002490000000000000000000253000036211500
0202LOTE PADRAO                   TELE CL SUL PN * EJ    TCSL4       010VISTA          000000000004300000000044000000000420000000000000000000042000069736500
0202LOTE PADRAO                   CEMIG       ON * EJ    CMIG3       010VISTA          000000000025000000000250000000002480000000000000000000250000000717600
0202LOTE PADRAO                   TELE CL SUL ON * EJ    TCSL3       010VISTA          000000000003600000000036000000000340000000000000000000035000028144100
0202LOTE PADRAO                   ITAUSA      PN         ITSA4       010VISTA          000000000001800000000018000000000180000000000000000000018000000442900
0202LOTE PADRAO                   SID TUBARAO PN *       CSTB4       010VISTA          000000000021000000000215000000002080000000000000000000215000020319900
0202LOTE PADRAO                   V C P       PN *       VCPA4       010VISTA          000000000061300000000613000000005900000000000000000000600000002278500
0202LOTE PADRAO                   BRADESPAR   PN *       BRAP4       010VISTA          000000000000920000000009300000000091000000000000000000009100252086000
0202LOTE PADRAO                   NET         PN         PLIM4       010VISTA          000000000001200000000012600000000120000000000000000000012600001102700
0202LOTE PADRAO                   TELE CTR OESPN * EJ    TCOC4       010VISTA          000000000006200000000063000000000590000000000000000000059000048179700
0202LOTE PADRAO                   GERDAU      PN * EJ    GGBR4       010VISTA          000000000020000000000201000000001960000000000000000000200000033179400
0202LOTE PADRAO                   BRASIL      ON *       BBAS3       010VISTA          000000000008600000000087000000000840000000000000000000084000007563800
