00BDIN9999BOVESPA 99992001112020011120
0101IBOVESPA                      0129920126190129980000000000000000002001112000000020011120012638000000
0202LOTE PADRAO                   EMBRATEL PARPN *       EBTP4       010VISTA          000000000010100000000103000000000980000000000000000000098000099914800
0202LOTE PADRAO                   EMBRATEL PARON *       EBTP3       010VISTA          000000000011000000000110000000001030000000000000000000104000034932200
0202LOTE PADRAO                   TRAN PAULISTPN * EJ    TRPL4       010VISTA          000000000005750000000057000000000560000000000000000000057000005510700
0202LOTE PADRAO                   TELEMAR     PN * EJ    TNLP4       010VISTA          000000000033600000000336000000003200000000000000000000321000255124000
0202LOTE PADRAO                   ITAUBANCO   PN * EJ    ITAU4       010VISTA          000000000186100000001865000000018400000000000000000001840000022850500
0202LOTE PADRAO                   TELEMAR     ON * EJ    TNLP3       010VISTA          000000000028300000000285000000002750000000000000000000275000020086300
0202LOTE PADRAO                   SID NACIONALON *       CSNA3       010VISTA          000000000037800000000385000000003700000000000000000000377000018905400
0202LOTE PADRAO                   TELE LEST CLPN *       TLCP4       010VISTA          000000000000900000000009000000000087000000000000000000008700175098000
0202LOTE PADRAO                   CRT CELULAR PNA* EJ    CRTP5       010VISTA          000000000447000000004550000000044000000000000000000004430000001397500
0202LOTE PADRAO                   IPIRANGA PETPN *       PTIP4       010VISTA          000000000013900000000139000000001300000000000000000000131000003785600
0202LOTE PADRAO                   BRASIL T PARPN *       BRTP4       010VISTA          000000000019000000000190000000001760000000000000000000176000111630000
0202LOTE PADRAO                   BRASIL T PARON *       BRTP3       010VISTA          000000000017800000000178000000001680000000000000000000171000014159400
0202LOTE PADRAO                   ACESITA     PN *       ACES4       010VISTA          000000000000580000000005900000000056000000000000000000005600095934100
0202LOTE PADRAO                   PETROBRAS   PN         PETR4       010VISTA          000000000047100000000483000000004700000000000000000000477000000144900
0202LOTE PADRAO                   ELETROBRAS  PNB*       ELET6       010VISTA          000000000034600000000347500000003350000000000000000000338000024225000
0202LOTE PADRAO                   PETROBRAS   ON         PETR3       010VISTA          000000000049200000000497000000004830000000000000000000491000000036300
0202LOTE PADRAO                   COMGAS      PNA*       CGAS5       010VISTA          000000000087200000000900000000008500000000000000000000865000001125000
0202LOTE PADRAO                   SOUZA CRUZ  ON EJ      CRUZ3       010VISTA          000000000012600000000130000000001260000000000000000000127000000016400
0202LOTE PADRAO                   ELETROBRAS  ON *       ELET3       010VISTA          000000000036200000000363000000003510000000000000000000356000035904400
0202LOTE PADRAO                   CELESC      PNB        CLSC6       010VISTA          000000000000470000000004700000000044000000000000000000004500000153200
0202LOTE PADRAO                   BRADESCO    PN * EJ    BBDC4       010VISTA          000000000012500000000125000000001230000000000000000000123000185130000
0202LOTE PADRAO                   CESP        PN *       CESP4       010VISTA          000000000012100000000123000000001200000000000000000000120000012136100
0202LOTE PADRAO                   LIGHT       ON *       LIGH3       010VISTA          000000000093000000000934000000008700000000000000000000899000000712000
0202LOTE PADRAO                   TELESP CL PAPN *       TSPP4       010VISTA          000000000007300000000073000000000720000000000000000000072000284243000
0202LOTE PADRAO                   VALE R DOCE PNA        VALE5       010VISTA          000000000056000000000568000000005470000000000000000000550000000025000
0202LOTE PADRAO                   COPEL       PNB*       CPLE6       010VISTA          000000000015500000000155000000001540000000000000000000155000044312400
0202LOTE PADRAO                   VALE R DOCE ON         VALE3       010VISTA          000000000052500000000525000000005200000000000000000000520000000000200
0202LOTE PADRAO                   ARACRUZ     PNB        ARCZ6       010VISTA          000000000004500000000046000000000450000000000000000000045000000066000
0202LOTE PADRAO                   TELEMIG PARTPN *       TMCP4       010VISTA          000000000004250000000043000000000400000000000000000000040000074836600
0202LOTE PADRAO                   BRASIL TELECPN *       BRTO4       010VISTA          000000000013900000000139000000001280000000000000000000129000197747000
0202LOTE PADRAO                   SABESP      ON *       SBSP3       010VISTA          000000000133000000001330000000012950000000000000000001295000000977700
0202LOTE PADRAO                   BRASKEM     PNA*       BRKM5       010VISTA          000000000391000000004099000000038400000000000000000003870000000257600
0202LOTE PADRAO                   EMBRAER     PN EJ      EMBR4       010VISTA          000000000010600000000111000000001050000000000000000000110000000080800
0202LOTE PADRAO                   TELESP      PN * EJ    TLPP4       010VISTA          000000000029000000000294000000002900000000000000000000291000010551200
0202LOTE PADRAO                   EMBRAER     ON EJ      EMBR3       010VISTA          000000000008900000000093000000000890000000000000000000092000000039600
0202LOTE PADRAO                   AMBEV       PN *       AMBV4       010VISTA          000000000495000000005020000000049000000000000000000004930000002053100
0202LOTE PADRAO                   USIMINAS    PNA        USIM5       010VISTA          000000000005800000000059000000000560000000000000000000057500000128000
0202LOTE PADRAO                   ELETROPAULO PN *       ELPL4       010VISTA          000000000073000000000730000000007000000000000000000000705000005764800
0202LOTE PADRAO                   TELE NORD CLPN *       TNEP4       010VISTA          000000000003200000000033000000000310000000000000000000031000097293500
0202LOTE PADRAO                   CEMIG       PN * EJ    CMIG4       010VISTA          000000000029300000000298000000002830000000000000000000287000039062800
0202LOTE PADRAO                   TELE CL SUL PN * EJ    TCSL4       010VISTA          000000000003500000000036000000000340000000000000000000034000063323800
0202LOTE PADRAO                   CEMIG       ON * EJ    CMIG3       010VISTA          000000000028600000000286000000002660000000000000000000266000005446000
0202LOTE PADRAO                   TELE CL SUL ON * EJ    TCSL3       010VISTA          000000000002900000000029000000000280000000000000000000028000113810000
0202LOTE PADRAO                   ITAUSA      PN         ITSA4       010VISTA          000000000002000000000021000000000200000000000000000000021000000937600
0202LOTE PADRAO                   V C P       PN *       VCPA4       010VISTA          000000000083700000000840000000008100000000000000000000820000002181500
0202LOTE PADRAO                   SID TUBARAO PN *       CSTB4       010VISTA          000000000019000000000195000000001875000000000000000000193000007580000
0202LOTE PADRAO                   BRADESPAR   PN *       BRAP4       010VISTA          000000000000750000000007500000000072000000000000000000007200151355000
0202LOTE PADRAO                   NET         PN         PLIM4       010VISTA          000000000000780000000007800000000073000000000000000000007300000430600
0202LOTE PADRAO                   TELE CTR OESPN * EJ    TCOC4       010VISTA          000000000005600000000057000000000540000000000000000000054000034157600
0202LOTE PADRAO                   TELEMAR N L PNA* EJ    TMAR5       010VISTA          000000000053100000000532500000005200000000000000000000528000044154200
0202LOTE PADRAO                   GERDAU      PN * EJ    GGBR4       010VISTA          000000000022800000000228000000002200000000000000000000222000025962500
0202LOTE PADRAO                   BRASIL      ON *       BBAS3       010VISTA          000000000008900000000089000000000850000000000000000000086000004802400
