00BDIN9999BOVESPA 99992001092820010928
0101IBOVESPA                      0104120104120107140000000000000000002001092800000020010928010636000000
0202LOTE PADRAO                   EMBRATEL PARPN *       EBTP4       010VISTA          000000000007300000000075000000000720000000000000000000074000151750000
0202LOTE PADRAO                   EMBRATEL PARON *       EBTP3       010VISTA          000000000008000000000083000000000770000000000000000000077000019358800
0202LOTE PADRAO                   TRAN PAULISTPN * EJ    TRPL4       010VISTA          000000000004700000000047000000000450000000000000000000045000008485000
0202LOTE PADRAO                   TELEMAR     PN * EJ    TNLP4       010VISTA          000000000024000000000244000000002380000000000000000000242000433344000
0202LOTE PADRAO                   ITAUBANCO   PN * EJ    ITAU4       010VISTA          000000000165000000001700000000016500000000000000000001700000017240800
0202LOTE PADRAO                   TELEMAR     ON * EJ    TNLP3       010VISTA          000000000022300000000224000000002150000000000000000000218000027140800
0202LOTE PADRAO                   SID NACIONALON *       CSNA3       010VISTA          000000000029000000000290000000002650000000000000000000270000020572800
0202LOTE PADRAO                   TELE LEST CLPN *       TLCP4       010VISTA          000000000000670000000006800000000063000000000000000000006500120963000
0202LOTE PADRAO                   CRT CELULAR PNA* EJ    CRTP5       010VISTA          000000000325000000003500000000032200000000000000000003460000001176800
0202LOTE PADRAO                   IPIRANGA PETPN *       PTIP4       010VISTA          000000000011300000000119000000001100000000000000000000119000002111500
0202LOTE PADRAO                   BRASIL T PARPN *       BRTP4       010VISTA          000000000013500000000148000000001350000000000000000000146000156870000
0202LOTE PADRAO                   BRASIL T PARON *       BRTP3       010VISTA          000000000012600000000140000000001260000000000000000000140000011705600
0202LOTE PADRAO                   ACESITA     PN *       ACES4       010VISTA          000000000000450000000004600000000043000000000000000000004300120539000
0202LOTE PADRAO                   PETROBRAS   PN         PETR4       010VISTA          000000000051300000000517000000005070000000000000000000512000000109900
0202LOTE PADRAO                   ELETROBRAS  PNB*       ELET6       010VISTA          000000000030000000000315000000002930000000000000000000293000029250900
0202LOTE PADRAO                   PETROBRAS   ON         PETR3       010VISTA          000000000052000000000530000000005160000000000000000000528000000032900
0202LOTE PADRAO                   COMGAS      PNA*       CGAS5       010VISTA          000000000080000000000830000000007550000000000000000000787000000902200
0202LOTE PADRAO                   SOUZA CRUZ  ON EJ      CRUZ3       010VISTA          000000000011900000000119000000001110000000000000000000111000000035700
0202LOTE PADRAO                   ELETROBRAS  ON *       ELET3       010VISTA          000000000032500000000336000000003160000000000000000000320000046295000
0202LOTE PADRAO                   CELESC      PNB        CLSC6       010VISTA          000000000000370000000003900000000036000000000000000000003700000113600
0202LOTE PADRAO                   BRADESCO    PN * EJ    BBDC4       010VISTA          000000000010000000000106000000001000000000000000000000106000230153000
0202LOTE PADRAO                   CESP        PN *       CESP4       010VISTA          000000000008000000000084000000000790000000000000000000080000016308300
0202LOTE PADRAO                   LIGHT       ON *       LIGH3       010VISTA          000000000084000000000850000000008100000000000000000000815000000587400
0202LOTE PADRAO                   TELESP CL PAPN *       TSPP4       010VISTA          000000000005500000000057000000000550000000000000000000057100189684000
0202LOTE PADRAO                   VALE R DOCE PNA        VALE5       010VISTA          000000000052200000000530000000005220000000000000000000527000000065900
0202LOTE PADRAO                   COPEL       PNB*       CPLE6       010VISTA          000000000014800000000159000000001470000000000000000000155000043037000
0202LOTE PADRAO                   VALE R DOCE ON         VALE3       010VISTA          000000000051700000000517000000005050000000000000000000505000000020600
0202LOTE PADRAO                   ARACRUZ     PNB        ARCZ6       010VISTA          000000000004000000000040000000000394000000000000000000039800000048600
0202LOTE PADRAO                   TELEMIG PARTPN *       TMCP4       010VISTA          000000000003000000000031000000000298000000000000000000030000154728000
0202LOTE PADRAO                   BRASIL TELECPN *       BRTO4       010VISTA          000000000009000000000099000000000900000000000000000000098000133677000
0202LOTE PADRAO                   SABESP      ON *       SBSP3       010VISTA          000000000115000000001150000000010700000000000000000001090000000893300
0202LOTE PADRAO                   BRASKEM     PNA*       BRKM5       010VISTA          000000000350000000003550000000034000000000000000000003450000000090600
0202LOTE PADRAO                   EMBRAER     PN EJ      EMBR4       010VISTA          000000000008600000000092000000000810000000000000000000084000000230500
0202LOTE PADRAO                   TELESP      PN * EJ    TLPP4       010VISTA          000000000021500000000220000000002150000000000000000000218000003603800
0202LOTE PADRAO                   EMBRAER     ON EJ      EMBR3       010VISTA          000000000007790000000080000000000730000000000000000000074000000034200
0202LOTE PADRAO                   AMBEV       PN *       AMBV4       010VISTA          000000000419000000004300000000041490000000000000000004280000004398800
0202LOTE PADRAO                   USIMINAS    PNA        USIM5       010VISTA          000000000004000000000040000000000380000000000000000000039000000076300
0202LOTE PADRAO                   ELETROPAULO PN *       ELPL4       010VISTA          000000000058000000000600000000005800000000000000000000585000005031100
0202LOTE PADRAO                   TELE NORD CLPN *       TNEP4       010VISTA          000000000002300000000024800000000230000000000000000000023000126968000
0202LOTE PADRAO                   CEMIG       PN * EJ    CMIG4       010VISTA          000000000025900000000259000000002510000000000000000000256000028698000
0202LOTE PADRAO                   TELE CL SUL PN * EJ    TCSL4       010VISTA          000000000002700000000028000000000270000000000000000000027000086262500
0202LOTE PADRAO                   CEMIG       ON * EJ    CMIG3       010VISTA          000000000024500000000255000000002410000000000000000000248000004418000
0202LOTE PADRAO                   TELE CL SUL ON * EJ    TCSL3       010VISTA          000000000002300000000025000000000220000000000000000000023000042343300
0202LOTE PADRAO                   ITAUSA      PN         ITSA4       010VISTA          000000000001760000000018000000000176000000000000000000017900001150200
0202LOTE PADRAO                   SID TUBARAO PN *       CSTB4       010VISTA          000000000016000000000165000000001500000000000000000000158000004049400
0202LOTE PADRAO                   V C P       PN *       VCPA4       010VISTA          000000000070000000000705000000006970000000000000000000697000006738100
0202LOTE PADRAO                   BRADESPAR   PN *       BRAP4       010VISTA          000000000000520000000005200000000050000000000000000000005200185689000
0202LOTE PADRAO                   NET         PN         PLIM4       010VISTA          000000000000690000000007000000000065000000000000000000006600001370800
0202LOTE PADRAO                   TELE CTR OESPN * EJ    TCOC4       010VISTA          000000000004000000000044000000000400000000000000000000043000098945300
0202LOTE PADRAO                   GERDAU      PN * EJ    GGBR4       010VISTA          000000000013900000000140000000001350000000000000000000135000020366800
0202LOTE PADRAO                   BRASIL      ON *       BBAS3       010VISTA          000000000007400000000074000000000710000000000000000000073000002299300
