00BDIN9999BOVESPA 99992001110620011106
0101IBOVESPA                      0121540121390124810000000000000000002001110600000020011106012416000000
0202LOTE PADRAO                   EMBRATEL PARPN *       EBTP4       010VISTA          000000000009000000000096000000000900000000000000000000094000245940000
0202LOTE PADRAO                   EMBRATEL PARON *       EBTP3       010VISTA          000000000009800000000102500000000950000000000000000000098000064219200
0202LOTE PADRAO                   TRAN PAULISTPN * EJ    TRPL4       010VISTA          000000000005900000000060000000000580000000000000000000058000009976900
0202LOTE PADRAO                   TELEMAR     PN * EJ    TNLP4       010VISTA          000000000030100000000316000000003000000000000000000000315000491326000
0202LOTE PADRAO                   ITAUBANCO   PN * EJ    ITAU4       010VISTA          000000000178500000001860000000017850000000000000000001855000017509300
0202LOTE PADRAO                   TELEMAR     ON * EJ    TNLP3       010VISTA          000000000027500000000281000000002680000000000000000000280000030017500
0202LOTE PADRAO                   SID NACIONALON *       CSNA3       010VISTA          000000000029800000000310000000002980000000000000000000310000010921000
0202LOTE PADRAO                   TELE LEST CLPN *       TLCP4       010VISTA          000000000000780000000008000000000076000000000000000000007600365681000
0202LOTE PADRAO                   CRT CELULAR PNA* EJ    CRTP5       010VISTA          000000000400000000004150000000040000000000000000000004070000003127400
0202LOTE PADRAO                   IPIRANGA PETPN *       PTIP4       010VISTA          000000000011600000000122500000001160000000000000000000120000015278000
0202LOTE PADRAO                   BRASIL T PARPN *       BRTP4       010VISTA          000000000016800000000186000000001680000000000000000000182500267479000
0202LOTE PADRAO                   BRASIL T PARON *       BRTP3       010VISTA          000000000016500000000171000000001630000000000000000000171000015449000
0202LOTE PADRAO                   ACESITA     PN *       ACES4       010VISTA          000000000000540000000005600000000054000000000000000000005500159770000
0202LOTE PADRAO                   PETROBRAS   PN         PETR4       010VISTA          000000000051000000000517000000004940000000000000000000494000000221000
0202LOTE PADRAO                   ELETROBRAS  PNB*       ELET6       010VISTA          000000000035200000000360000000003500000000000000000000354000025967800
0202LOTE PADRAO                   PETROBRAS   ON         PETR3       010VISTA          000000000053000000000537000000005170000000000000000000517000000042900
0202LOTE PADRAO                   COMGAS      PNA*       CGAS5       010VISTA          000000000082000000000830000000008020000000000000000000802000001854600
0202LOTE PADRAO                   SOUZA CRUZ  ON EJ      CRUZ3       010VISTA          000000000012400000000124000000001160000000000000000000117000000054700
0202LOTE PADRAO                   ELETROBRAS  ON *       ELET3       010VISTA          000000000037700000000387000000003750000000000000000000380000034386700
0202LOTE PADRAO                   CELESC      PNB        CLSC6       010VISTA          000000000000450000000004900000000045000000000000000000004900000233300
0202LOTE PADRAO                   BRADESCO    PN * EJ    BBDC4       010VISTA          000000000011300000000115000000001100000000000000000000114000257094000
0202LOTE PADRAO                   CESP        PN *       CESP4       010VISTA          000000000013400000000137500000001300000000000000000000131000015334100
0202LOTE PADRAO                   LIGHT       ON *       LIGH3       010VISTA          000000000097000000000995000000009390000000000000000000950000001410300
0202LOTE PADRAO                   TELESP CL PAPN *       TSPP4       010VISTA          000000000005800000000060000000000579000000000000000000059000621600000
0202LOTE PADRAO                   VALE R DOCE PNA        VALE5       010VISTA          000000000058200000000587000000005600000000000000000000562000000042500
0202LOTE PADRAO                   COPEL       PNB*       CPLE6       010VISTA          000000000013900000000143000000001350000000000000000000141000052389900
0202LOTE PADRAO                   VALE R DOCE ON         VALE3       010VISTA          000000000053500000000535000000005170000000000000000000517000000001300
0202LOTE PADRAO                   ARACRUZ     PNB        ARCZ6       010VISTA          000000000004700000000048000000000460000000000000000000046000000019300
0202LOTE PADRAO                   TELEMIG PARTPN *       TMCP4       010VISTA          000000000003600000000039800000000360000000000000000000037000198941000
0202LOTE PADRAO                   BRASIL TELECPN *       BRTO4       010VISTA          000000000011400000000125000000001140000000000000000000125000369662000
0202LOTE PADRAO                   SABESP      ON *       SBSP3       010VISTA          000000000117500000001240000000011700000000000000000001230000002794100
0202LOTE PADRAO                   BRASKEM     PNA*       BRKM5       010VISTA          000000000405000000004130000000040300000000000000000004030000000103700
0202LOTE PADRAO                   EMBRAER     PN EJ      EMBR4       010VISTA          000000000012400000000124000000001130000000000000000000114000000161700
0202LOTE PADRAO                   TELESP      PN * EJ    TLPP4       010VISTA          000000000027600000000286000000002750000000000000000000285000024852700
0202LOTE PADRAO                   EMBRAER     ON EJ      EMBR3       010VISTA          000000000010250000000104000000000980000000000000000000099000000029200
0202LOTE PADRAO                   AMBEV       PN *       AMBV4       010VISTA          000000000471000000005000000000047100000000000000000005000000003389300
0202LOTE PADRAO                   USIMINAS    PNA        USIM5       010VISTA          000000000004100000000044000000000400000000000000000000044000000183000
0202LOTE PADRAO                   ELETROPAULO PN *       ELPL4       010VISTA          000000000066000000000689000000006500000000000000000000680000004997400
0202LOTE PADRAO                   TELE NORD CLPN *       TNEP4       010VISTA          000000000002900000000031000000000280000000000000000000030000176817000
0202LOTE PADRAO                   CEMIG       PN * EJ    CMIG4       010VISTA          000000000028700000000295000000002810000000000000000000290000076257300
0202LOTE PADRAO                   TELE CL SUL PN * EJ    TCSL4       010VISTA          000000000003200000000035000000000320000000000000000000034000129245000
0202LOTE PADRAO                   CEMIG       ON * EJ    CMIG3       010VISTA          000000000027100000000278000000002710000000000000000000278000004011800
0202LOTE PADRAO                   TELE CL SUL ON * EJ    TCSL3       010VISTA          000000000002710000000028000000000270000000000000000000028000040710300
0202LOTE PADRAO                   ITAUSA      PN         ITSA4       010VISTA          000000000001970000000019700000000194000000000000000000019600000719100
0202LOTE PADRAO                   SID TUBARAO PN *       CSTB4       010VISTA          000000000016800000000173000000001680000000000000000000170000005877900
0202LOTE PADRAO                   V C P       PN *       VCPA4       010VISTA          000000000081200000000815000000008100000000000000000000810000001736900
0202LOTE PADRAO                   BRADESPAR   PN *       BRAP4       010VISTA          000000000000700000000007800000000070000000000000000000007500175678000
0202LOTE PADRAO                   NET         PN         PLIM4       010VISTA          000000000000700000000007400000000070000000000000000000007300000605400
0202LOTE PADRAO                   TELE CTR OESPN * EJ    TCOC4       010VISTA          000000000004900000000051000000000490000000000000000000050000133206000
0202LOTE PADRAO                   GERDAU      PN * EJ    GGBR4       010VISTA          000000000019500000000196000000001900000000000000000000191000011157300
0202LOTE PADRAO                   BRASIL      ON *       BBAS3       010VISTA          000000000008100000000082000000000800000000000000000000081000002990600
