00BDIN9999BOVESPA 99992001041020010410
0101IBOVESPA                      0147250147250150970000000000000000002001041000000020010410015048000000
0202LOTE PADRAO                   EMBRATEL PARPN *       EBTP4       010VISTA          000000000022000000000231000000002180000000000000000000225000092506600
0202LOTE PADRAO                   EMBRATEL PARON *       EBTP3       010VISTA          000000000022600000000231000000002210000000000000000000221000051516600
0202LOTE PADRAO                   TRAN PAULISTPN * EJ    TRPL4       010VISTA          000000000007100000000073000000000700000000000000000000072000012991800
0202LOTE PADRAO                   TELEMAR     PN * EJ    TNLP4       010VISTA          000000000036400000000376000000003620000000000000000000371000330822000
0202LOTE PADRAO                   ITAUBANCO   PN * EJ    ITAU4       010VISTA          000000000167000000001745000000016500000000000000000001695000003595300
0202LOTE PADRAO                   TELEMAR     ON * EJ    TNLP3       010VISTA          000000000034200000000357000000003420000000000000000000351000090095700
0202LOTE PADRAO                   SID NACIONALON *       CSNA3       010VISTA          000000000048300000000509000000004830000000000000000000509000007191400
0202LOTE PADRAO                   TELE LEST CLPN *       TLCP4       010VISTA          000000000001800000000018000000000170000000000000000000017400322002000
0202LOTE PADRAO                   IPIRANGA PETPN *       PTIP4       010VISTA          000000000016500000000165000000001600000000000000000000164000002000000
0202LOTE PADRAO                   BRASIL T PARPN *       BRTP4       010VISTA          000000000018200000000190000000001820000000000000000000190000045215100
0202LOTE PADRAO                   BRASIL T PARON *       BRTP3       010VISTA          000000000019000000000198000000001900000000000000000000193000020477400
0202LOTE PADRAO                   ACESITA     PN *       ACES4       010VISTA          000000000000990000000010000000000098000000000000000000010000129128000
0202LOTE PADRAO                   PETROBRAS   PN         PETR4       010VISTA          000000000051100000000522000000005080000000000000000000514000000085100
0202LOTE PADRAO                   ELETROBRAS  PNB*       ELET6       010VISTA          000000000038700000000391000000003770000000000000000000382500024128400
0202LOTE PADRAO                   PETROBRAS   ON         PETR3       010VISTA          000000000055700000000565000000005540000000000000000000556000000029400
0202LOTE PADRAO                   COMGAS      PNA*       CGAS5       010VISTA          000000000135000000001420000000013200000000000000000001420000009359600
0202LOTE PADRAO                   SOUZA CRUZ  ON EJ      CRUZ3       010VISTA          000000000010700000000109000000001060000000000000000000108000000018200
0202LOTE PADRAO                   CELESC      PNB        CLSC6       010VISTA          000000000000580000000006000000000058000000000000000000006000000081600
0202LOTE PADRAO                   ELETROBRAS  ON *       ELET3       010VISTA          000000000040400000000406000000003970000000000000000000397000019296600
0202LOTE PADRAO                   BRADESCO    PN * EJ    BBDC4       010VISTA          000000000011600000000119000000001160000000000000000000119000139991000
0202LOTE PADRAO                   CESP        PN *       CESP4       010VISTA          000000000019500000000201000000001950000000000000000000198000007090800
0202LOTE PADRAO                   LIGHT       ON *       LIGH3       010VISTA          000000000190000000001979000000019000000000000000000001950000000114100
0202LOTE PADRAO                   TELESP CL PAPN *       TSPP4       010VISTA          000000000014500000000150000000001430000000000000000000148000179193000
0202LOTE PADRAO                   VALE R DOCE PNA        VALE5       010VISTA          000000000052000000000523000000005170000000000000000000518000000020000
0202LOTE PADRAO                   COPEL       PNB*       CPLE6       010VISTA          000000000017600000000183000000001750000000000000000000183000026501000
0202LOTE PADRAO                   VALE R DOCE ON         VALE3       010VISTA          000000000048100000000482000000004790000000000000000000479000000004400
0202LOTE PADRAO                   ARACRUZ     PNB        ARCZ6       010VISTA          000000000002800000000028000000000270000000000000000000028000000023000
0202LOTE PADRAO                   TELEMIG PARTPN *       TMCP4       010VISTA          000000000004000000000044000000000400000000000000000000044000195515000
0202LOTE PADRAO                   BRASIL TELECPN *       BRTO4       010VISTA          000000000012900000000135000000001280000000000000000000134000057771600
0202LOTE PADRAO                   SABESP      ON *       SBSP3       010VISTA          000000000184000000001910000000018200000000000000000001910000004243400
0202LOTE PADRAO                   BRASKEM     PNA*       BRKM5       010VISTA          000000000609000000006090000000059500000000000000000006000000000178600
0202LOTE PADRAO                   EMBRAER     PN EJ      EMBR4       010VISTA          000000000020300000000211000000002010000000000000000000208000000014500
0202LOTE PADRAO                   TELESP      PN * EJ    TLPP4       010VISTA          000000000029300000000301000000002930000000000000000000300000012322900
0202LOTE PADRAO                   EMBRAER     ON EJ      EMBR3       010VISTA          000000000016500000000168000000001640000000000000000000168000000032100
0202LOTE PADRAO                   AMBEV       PN *       AMBV4       010VISTA          000000000490000000005090000000048930000000000000000005050000000618500
0202LOTE PADRAO                   USIMINAS    PNA        USIM5       010VISTA          000000000009400000000094000000000920000000000000000000092500000025200
0202LOTE PADRAO                   ELETROPAULO PN *       ELPL4       010VISTA          000000000083000000000870000000008250000000000000000000866000001095600
0202LOTE PADRAO                   TELE NORD CLPN *       TNEP4       010VISTA          000000000002900000000030000000000280000000000000000000029000204270000
0202LOTE PADRAO                   CEMIG       PN * EJ    CMIG4       010VISTA          000000000027900000000279000000002710000000000000000000274000051553900
0202LOTE PADRAO                   TELE CL SUL PN * EJ    TCSL4       010VISTA          000000000004200000000042500000000410000000000000000000042000098667000
0202LOTE PADRAO                   CEMIG       ON * EJ    CMIG3       010VISTA          000000000027600000000278000000002680000000000000000000270000007911100
0202LOTE PADRAO                   TELE CL SUL ON * EJ    TCSL3       010VISTA          000000000003600000000038000000000360000000000000000000038000064951400
0202LOTE PADRAO                   ITAUSA      PN         ITSA4       010VISTA          000000000001760000000018100000000176000000000000000000018000000332700
0202LOTE PADRAO                   SID TUBARAO PN *       CSTB4       010VISTA          000000000021900000000220000000002050000000000000000000219000008829000
0202LOTE PADRAO                   V C P       PN *       VCPA4       010VISTA          000000000053000000000537000000005270000000000000000000537000002971500
0202LOTE PADRAO                   BRADESPAR   PN *       BRAP4       010VISTA          000000000001000000000010000000000100000000000000000000010000175824000
0202LOTE PADRAO                   NET         PN         PLIM4       010VISTA          000000000001100000000012500000000110000000000000000000012400000727400
0202LOTE PADRAO                   TELE CTR OESPN * EJ    TCOC4       010VISTA          000000000005700000000062000000000570000000000000000000060000120996000
0202LOTE PADRAO                   GERDAU      PN * EJ    GGBR4       010VISTA          000000000019500000000196000000001930000000000000000000196000008819500
0202LOTE PADRAO                   BRASIL      ON *       BBAS3       010VISTA          000000000008300000000085000000000810000000000000000000084000016077300
