00BDIN9999BOVESPA 99992001010520010105
0101IBOVESPA                      0166790163800168880000000000000000002001010500000020010105016410000000
0202LOTE PADRAO                   EMBRATEL PARPN *       EBTP4       010VISTA          000000000032700000000333000000003175000000000000000000320000066401500
0202LOTE PADRAO                   EMBRATEL PARON *       EBTP3       010VISTA          000000000024200000000260000000002410000000000000000000244000019283200
0202LOTE PADRAO                   TRAN PAULISTPN * EJ    TRPL4       010VISTA          000000000007100000000075000000000710000000000000000000072000013933500
0202LOTE PADRAO                   TELEMAR     PN * EJ    TNLP4       010VISTA          000000000045700000000471000000004520000000000000000000452000172243000
0202LOTE PADRAO                   ITAUBANCO   PN * EJ    ITAU4       010VISTA          000000000184000000001950000000018400000000000000000001899000006758800
0202LOTE PADRAO                   TELEMAR     ON * EJ    TNLP3       010VISTA          000000000036000000000360000000003470000000000000000000351000007327600
0202LOTE PADRAO                   SID NACIONALON *       CSNA3       010VISTA          000000000063200000000640000000006250000000000000000000635000017035000
0202LOTE PADRAO                   TELE LEST CLPN *       TLCP4       010VISTA          000000000001470000000015000000000140000000000000000000014000099890800
0202LOTE PADRAO                   CRT CELULAR PNA* EJ    CRTP5       010VISTA          000000000675000000006950000000065000000000000000000006800000000641900
0202LOTE PADRAO                   IPIRANGA PETPN *       PTIP4       010VISTA          000000000016800000000173000000001660000000000000000000169000001159100
0202LOTE PADRAO                   BRASIL T PARPN *       BRTP4       010VISTA          000000000024100000000243000000002330000000000000000000235000082174300
0202LOTE PADRAO                   BRASIL T PARON *       BRTP3       010VISTA          000000000019100000000198000000001900000000000000000000191000022742400
0202LOTE PADRAO                   ACESITA     PN *       ACES4       010VISTA          000000000001100000000011000000000110000000000000000000011000217022000
0202LOTE PADRAO                   PETROBRAS   PN         PETR4       010VISTA          000000000050000000000511000000004920000000000000000000495000000129300
0202LOTE PADRAO                   ELETROBRAS  PNB*       ELET6       010VISTA          000000000035000000000356000000003350000000000000000000336000032799500
0202LOTE PADRAO                   PETROBRAS   ON         PETR3       010VISTA          000000000053200000000538000000005220000000000000000000522000000025800
0202LOTE PADRAO                   COMGAS      PNA*       CGAS5       010VISTA          000000000124000000001290000000012390000000000000000001280000005809900
0202LOTE PADRAO                   SOUZA CRUZ  ON EJ      CRUZ3       010VISTA          000000000009400000000094000000000925000000000000000000094000000007700
0202LOTE PADRAO                   ELETROBRAS  ON *       ELET3       010VISTA          000000000036200000000367000000003430000000000000000000343000017903200
0202LOTE PADRAO                   CELESC      PNB        CLSC6       010VISTA          000000000000620000000006300000000060000000000000000000006100000158800
0202LOTE PADRAO                   BRADESCO    PN * EJ    BBDC4       010VISTA          000000000013800000000140000000001330000000000000000000139000004196000
0202LOTE PADRAO                   CESP        PN *       CESP4       010VISTA          000000000021000000000211000000002050000000000000000000210000011806300
0202LOTE PADRAO                   LIGHT       ON *       LIGH3       010VISTA          000000000225000000002340000000022500000000000000000002310000000519500
0202LOTE PADRAO                   TELESP CL PAPN *       TSPP4       010VISTA          000000000022500000000233000000002250000000000000000000228000063934400
0202LOTE PADRAO                   VALE R DOCE PNA        VALE5       010VISTA          000000000047100000000480000000004650000000000000000000465000000017800
0202LOTE PADRAO                   COPEL       PNB*       CPLE6       010VISTA          000000000016800000000169000000001630000000000000000000165000016584100
0202LOTE PADRAO                   VALE R DOCE ON         VALE3       010VISTA          000000000044000000000440000000004400000000000000000000440000000000400
0202LOTE PADRAO                   ARACRUZ     PNB        ARCZ6       010VISTA          000000000003000000000031000000000298000000000000000000030000000194600
0202LOTE PADRAO                   TELEMIG PARTPN *       TMCP4       010VISTA          000000000005900000000060000000000570000000000000000000057000058063600
0202LOTE PADRAO                   BRASIL TELECPN *       BRTO4       010VISTA          000000000017500000000178000000001710000000000000000000175000061905200
0202LOTE PADRAO                   SABESP      ON *       SBSP3       010VISTA          000000000191800000001918000000018600000000000000000001890000001545000
0202LOTE PADRAO                   BRASKEM     PNA*       BRKM5       010VISTA          000000000631000000006510000000062990000000000000000006300000000589900
0202LOTE PADRAO                   EMBRAER     PN EJ      EMBR4       010VISTA          000000000019400000000195000000001860000000000000000000193000000038700
0202LOTE PADRAO                   TELESP      PN * EJ    TLPP4       010VISTA          000000000028100000000285000000002670000000000000000000267000013841000
0202LOTE PADRAO                   EMBRAER     ON EJ      EMBR3       010VISTA          000000000014800000000155000000001380000000000000000000144000000057900
0202LOTE PADRAO                   AMBEV       PN *       AMBV4       010VISTA          000000000475000000004780000000045000000000000000000004580000001269400
0202LOTE PADRAO                   USIMINAS    PNA        USIM5       010VISTA          000000000010250000000105000000000960000000000000000000099000000023600
0202LOTE PADRAO                   ELETROPAULO PN *       ELPL4       010VISTA          000000000091000000000990000000009100000000000000000000969000001349400
0202LOTE PADRAO                   TELE NORD CLPN *       TNEP4       010VISTA          000000000004300000000044000000000420000000000000000000042000042141600
0202LOTE PADRAO                   CEMIG       PN * EJ    CMIG4       010VISTA          000000000030800000000316000000003000000000000000000000305000034209700
0202LOTE PADRAO                   TELE CL SUL PN * EJ    TCSL4       010VISTA          000000000005300000000055000000000520000000000000000000053000042730800
0202LOTE PADRAO                   CEMIG       ON * EJ    CMIG3       010VISTA          000000000024900000000255000000002360000000000000000000236000001224800
0202LOTE PADRAO                   TELE CL SUL ON * EJ    TCSL3       010VISTA          000000000004400000000046000000000430000000000000000000044000010280800
0202LOTE PADRAO                   ITAUSA      PN         ITSA4       010VISTA          000000000001960000000020000000000195000000000000000000019700000334100
0202LOTE PADRAO                   SID TUBARAO PN *       CSTB4       010VISTA          000000000023000000000233000000002260000000000000000000226000004799600
0202LOTE PADRAO                   V C P       PN *       VCPA4       010VISTA          000000000057300000000582000000005660000000000000000000570000004190500
0202LOTE PADRAO                   BRADESPAR   PN *       BRAP4       010VISTA          000000000001200000000012000000000110000000000000000000012000334856000
0202LOTE PADRAO                   NET         PN         PLIM4       010VISTA          000000000002300000000023000000000210000000000000000000022000001441300
0202LOTE PADRAO                   TELE CTR OESPN * EJ    TCOC4       010VISTA          000000000007000000000072000000000700000000000000000000070000058020700
0202LOTE PADRAO                   GERDAU      PN * EJ    GGBR4       010VISTA          000000000019100000000198000000001890000000000000000000189000013913600
0202LOTE PADRAO                   BRASIL      ON *       BBAS3       010VISTA          000000000006700000000069000000000660000000000000000000067100008304300
