00BDIN9999BOVESPA 99992001122120011221
0101IBOVESPA                      0129350129350133850000000000000000002001122100000020011221013369000000
0202LOTE PADRAO                   EMBRATEL PARPN *       EBTP4       010VISTA          000000000009100000000094000000000910000000000000000000094000097678700
0202LOTE PADRAO                   EMBRATEL PARON *       EBTP3       010VISTA          000000000010250000000106000000001010000000000000000000106000055714600
0202LOTE PADRAO                   TRAN PAULISTPN * EJ    TRPL4       010VISTA          000000000006000000000064000000000600000000000000000000063000007201000
0202LOTE PADRAO                   TELEMAR     PN * EJ    TNLP4       010VISTA          000000000034500000000356000000003400000000000000000000356000162502000
0202LOTE PADRAO                   ITAUBANCO   PN * EJ    ITAU4       010VISTA          000000000173000000001739000000016790000000000000000001715000017840100
0202LOTE PADRAO                   TELEMAR     ON * EJ    TNLP3       010VISTA          000000000029300000000305000000002930000000000000000000300000011546100
0202LOTE PADRAO                   SID NACIONALON *       CSNA3       010VISTA          000000000035700000000365000000003570000000000000000000365000009350100
0202LOTE PADRAO                   TELE LEST CLPN *       TLCP4       010VISTA          000000000000870000000009000000000087000000000000000000009000112232000
0202LOTE PADRAO                   CRT CELULAR PNA* EJ    CRTP5       010VISTA          000000000465000000004740000000046250000000000000000004740000001143900
0202LOTE PADRAO                   IPIRANGA PETPN *       PTIP4       010VISTA          000000000012100000000128000000001210000000000000000000128000000526800
0202LOTE PADRAO                   BRASIL T PARPN *       BRTP4       010VISTA          000000000018500000000193000000001830000000000000000000193000064916500
0202LOTE PADRAO                   BRASIL T PARON *       BRTP3       010VISTA          000000000018200000000190000000001810000000000000000000190000026482200
0202LOTE PADRAO                   ACESITA     PN *       ACES4       010VISTA          000000000000690000000007200000000068000000000000000000007200226548000
0202LOTE PADRAO                   PETROBRAS   PN         PETR4       010VISTA          000000000048700000000487000000004770000000000000000000482000000077100
0202LOTE PADRAO                   ELETROBRAS  PNB*       ELET6       010VISTA          000000000028200000000303000000002820000000000000000000303000081386600
0202LOTE PADRAO                   PETROBRAS   ON         PETR3       010VISTA          000000000049600000000504000000004950000000000000000000498000000053900
0202LOTE PADRAO                   COMGAS      PNA*       CGAS5       010VISTA          000000000089000000000890000000008690000000000000000000880000001762400
0202LOTE PADRAO                   SOUZA CRUZ  ON EJ      CRUZ3       010VISTA          000000000013900000000140000000001350000000000000000000135000000037600
0202LOTE PADRAO                   ELETROBRAS  ON *       ELET3       010VISTA          000000000029100000000309000000002910000000000000000000308000011023000
0202LOTE PADRAO                   CELESC      PNB        CLSC6       010VISTA          000000000000450000000004500000000043000000000000000000004500000129300
0202LOTE PADRAO                   BRADESCO    PN * EJ    BBDC4       010VISTA          000000000011400000000118000000001140000000000000000000117500157297000
0202LOTE PADRAO                   CESP        PN *       CESP4       010VISTA          000000000015800000000161000000001540000000000000000000158000009048800
0202LOTE PADRAO                   LIGHT       ON *       LIGH3       010VISTA          000000000114000000001170000000011350000000000000000001170000000502600
0202LOTE PADRAO                   TELESP CL PAPN *       TSPP4       010VISTA          000000000008100000000081000000000800000000000000000000081000266873000
0202LOTE PADRAO                   VALE R DOCE PNA        VALE5       010VISTA          000000000053800000000540000000005250000000000000000000538000000030500
0202LOTE PADRAO                   COPEL       PNB*       CPLE6       010VISTA          000000000016600000000169000000001650000000000000000000168000008971000
0202LOTE PADRAO                   VALE R DOCE ON         VALE3       010VISTA          000000000050400000000527000000005040000000000000000000527000000002000
0202LOTE PADRAO                   ARACRUZ     PNB        ARCZ6       010VISTA          000000000004250000000043000000000410000000000000000000042000000026700
0202LOTE PADRAO                   TELEMIG PARTPN *       TMCP4       010VISTA          000000000003900000000040000000000381000000000000000000039000147866000
0202LOTE PADRAO                   BRASIL TELECPN *       BRTO4       010VISTA          000000000012600000000134000000001260000000000000000000134000057943600
0202LOTE PADRAO                   SABESP      ON *       SBSP3       010VISTA          000000000133000000001374000000013150000000000000000001369000002810100
0202LOTE PADRAO                   BRASKEM     PNA*       BRKM5       010VISTA          000000000450000000004690000000044000000000000000000004520000000219000
0202LOTE PADRAO                   EMBRAER     PN EJ      EMBR4       010VISTA          000000000012300000000126000000001200000000000000000000125000000106500
0202LOTE PADRAO                   TELESP      PN * EJ    TLPP4       010VISTA          000000000030800000000315000000003050000000000000000000310000010287300
0202LOTE PADRAO                   EMBRAER     ON EJ      EMBR3       010VISTA          000000000011400000000116000000001090000000000000000000115000000023200
0202LOTE PADRAO                   AMBEV       PN *       AMBV4       010VISTA          000000000476000000004950000000047600000000000000000004900000001906400
0202LOTE PADRAO                   USIMINAS    PNA        USIM5       010VISTA          000000000006000000000063000000000600000000000000000000061000000039400
0202LOTE PADRAO                   ELETROPAULO PN *       ELPL4       010VISTA          000000000078500000000792000000007800000000000000000000780000003149000
0202LOTE PADRAO                   TELE NORD CLPN *       TNEP4       010VISTA          000000000003100000000032000000000310000000000000000000031000057584400
0202LOTE PADRAO                   CEMIG       PN * EJ    CMIG4       010VISTA          000000000033500000000341000000003350000000000000000000340000031465600
0202LOTE PADRAO                   TELE CL SUL PN * EJ    TCSL4       010VISTA          000000000003500000000037300000000350000000000000000000036900066661900
0202LOTE PADRAO                   CEMIG       ON * EJ    CMIG3       010VISTA          000000000029500000000305000000002950000000000000000000303000000712200
0202LOTE PADRAO                   TELE CL SUL ON * EJ    TCSL3       010VISTA          000000000003000000000030000000000300000000000000000000030000022028900
0202LOTE PADRAO                   ITAUSA      PN         ITSA4       010VISTA          000000000002100000000021000000000210000000000000000000021000000395300
0202LOTE PADRAO                   V C P       PN *       VCPA4       010VISTA          000000000076300000000795000000007550000000000000000000795000001007000
0202LOTE PADRAO                   SID TUBARAO PN *       CSTB4       010VISTA          000000000021600000000229000000002160000000000000000000229000005230400
0202LOTE PADRAO                   BRADESPAR   PN *       BRAP4       010VISTA          000000000000830000000008700000000082000000000000000000008700312876000
0202LOTE PADRAO                   NET         PN         PLIM4       010VISTA          000000000000790000000008200000000079000000000000000000008200000518400
0202LOTE PADRAO                   TELE CTR OESPN * EJ    TCOC4       010VISTA          000000000005200000000053000000000500000000000000000000052000092652500
0202LOTE PADRAO                   TELEMAR N L PNA* EJ    TMAR5       010VISTA          000000000058500000000585000000005720000000000000000000577000022861600
0202LOTE PADRAO                   GERDAU      PN * EJ    GGBR4       010VISTA          000000000021800000000225000000002160000000000000000000221000015315300
0202LOTE PADRAO                   BRASIL      ON *       BBAS3       010VISTA          000000000010000000000104000000001000000000000000000000104000005410800
