00BDIN9999BOVESPA 99992001121320011213
0101IBOVESPA                      0135770131440135800000000000000000002001121300000020011213013148000000
0202LOTE PADRAO                   EMBRATEL PARPN *       EBTP4       010VISTA          000000000009900000000099000000000950000000000000000000095000118539000
0202LOTE PADRAO                   EMBRATEL PARON *       EBTP3       010VISTA          000000000011100000000114000000001090000000000000000000110000018534600
0202LOTE PADRAO                   TRAN PAULISTPN * EJ    TRPL4       010VISTA          000000000006600000000066000000000630000000000000000000063000015882500
0202LOTE PADRAO                   TELEMAR     PN * EJ    TNLP4       010VISTA          000000000034700000000347000000003390000000000000000000341000200385000
0202LOTE PADRAO                   ITAUBANCO   PN * EJ    ITAU4       010VISTA          000000000174500000001760000000017450000000000000000001745000008763800
0202LOTE PADRAO                   TELEMAR     ON * EJ    TNLP3       010VISTA          000000000029500000000296000000002850000000000000000000294000015904400
0202LOTE PADRAO                   SID NACIONALON *       CSNA3       010VISTA          000000000038600000000386000000003700000000000000000000372000010097300
0202LOTE PADRAO                   TELE LEST CLPN *       TLCP4       010VISTA          000000000000940000000009400000000091000000000000000000009100123514000
0202LOTE PADRAO                   CRT CELULAR PNA* EJ    CRTP5       010VISTA          000000000483900000004839000000046380000000000000000004779000000501200
0202LOTE PADRAO                   IPIRANGA PETPN *       PTIP4       010VISTA          000000000013500000000135000000001300000000000000000000130000000875300
0202LOTE PADRAO                   BRASIL T PARPN *       BRTP4       010VISTA          000000000019300000000193000000001875000000000000000000187500051045500
0202LOTE PADRAO                   BRASIL T PARON *       BRTP3       010VISTA          000000000018300000000190000000001800000000000000000000182000010635200
0202LOTE PADRAO                   ACESITA     PN *       ACES4       010VISTA          000000000000760000000007700000000072000000000000000000007200147922000
0202LOTE PADRAO                   PETROBRAS   PN         PETR4       010VISTA          000000000048300000000485000000004730000000000000000000473000000086800
0202LOTE PADRAO                   ELETROBRAS  PNB*       ELET6       010VISTA          000000000032200000000322000000003010000000000000000000301000044341200
0202LOTE PADRAO                   PETROBRAS   ON         PETR3       010VISTA          000000000049700000000497000000004850000000000000000000486000000021400
0202LOTE PADRAO                   COMGAS      PNA*       CGAS5       010VISTA          000000000093900000000940000000008900000000000000000000910000000681200
0202LOTE PADRAO                   SOUZA CRUZ  ON EJ      CRUZ3       010VISTA          000000000014000000000142500000001400000000000000000000140000000018200
0202LOTE PADRAO                   ELETROBRAS  ON *       ELET3       010VISTA          000000000033000000000331000000003100000000000000000000311000031557700
0202LOTE PADRAO                   CELESC      PNB        CLSC6       010VISTA          000000000000490000000004900000000047000000000000000000004700000268200
0202LOTE PADRAO                   BRADESCO    PN * EJ    BBDC4       010VISTA          000000000011800000000118000000001140000000000000000000114000137218000
0202LOTE PADRAO                   CESP        PN *       CESP4       010VISTA          000000000017500000000179000000001730000000000000000000173000012089500
0202LOTE PADRAO                   LIGHT       ON *       LIGH3       010VISTA          000000000120000000001200000000011700000000000000000001170000000922400
0202LOTE PADRAO                   TELESP CL PAPN *       TSPP4       010VISTA          000000000007900000000081000000000780000000000000000000078000321278000
0202LOTE PADRAO                   VALE R DOCE PNA        VALE5       010VISTA          000000000051800000000524000000005175000000000000000000520000000031600
0202LOTE PADRAO                   COPEL       PNB*       CPLE6       010VISTA          000000000016300000000165000000001550000000000000000000156000039875400
0202LOTE PADRAO                   VALE R DOCE ON         VALE3       010VISTA          000000000049000000000490000000004800000000000000000000487000000008600
0202LOTE PADRAO                   ARACRUZ     PNB        ARCZ6       010VISTA          000000000004500000000045000000000410000000000000000000042000000075400
0202LOTE PADRAO                   TELEMIG PARTPN *       TMCP4       010VISTA          000000000004300000000043000000000400000000000000000000040000100183000
0202LOTE PADRAO                   BRASIL TELECPN *       BRTO4       010VISTA          000000000013250000000134000000001290000000000000000000130000082370200
0202LOTE PADRAO                   SABESP      ON *       SBSP3       010VISTA          000000000130500000001350000000012990000000000000000001320000004440700
0202LOTE PADRAO                   BRASKEM     PNA*       BRKM5       010VISTA          000000000436100000004420000000043000000000000000000004315000000226900
0202LOTE PADRAO                   EMBRAER     PN EJ      EMBR4       010VISTA          000000000012250000000123000000001200000000000000000000121000000084500
0202LOTE PADRAO                   TELESP      PN * EJ    TLPP4       010VISTA          000000000031800000000318000000003010000000000000000000303000003905000
0202LOTE PADRAO                   EMBRAER     ON EJ      EMBR3       010VISTA          000000000010900000000109000000001040000000000000000000106000000023200
0202LOTE PADRAO                   AMBEV       PN *       AMBV4       010VISTA          000000000494800000004948000000048000000000000000000004801000001808400
0202LOTE PADRAO                   USIMINAS    PNA        USIM5       010VISTA          000000000006300000000064000000000600000000000000000000062000000047300
0202LOTE PADRAO                   ELETROPAULO PN *       ELPL4       010VISTA          000000000080000000000810000000007820000000000000000000802000001893400
0202LOTE PADRAO                   TELE NORD CLPN *       TNEP4       010VISTA          000000000003500000000035000000000340000000000000000000034000052715200
0202LOTE PADRAO                   CEMIG       PN * EJ    CMIG4       010VISTA          000000000033400000000336000000003180000000000000000000319000070253100
0202LOTE PADRAO                   TELE CL SUL PN * EJ    TCSL4       010VISTA          000000000004000000000040000000000370000000000000000000037000036776300
0202LOTE PADRAO                   CEMIG       ON * EJ    CMIG3       010VISTA          000000000029000000000310000000002900000000000000000000295000001284300
0202LOTE PADRAO                   TELE CL SUL ON * EJ    TCSL3       010VISTA          000000000003200000000033000000000310000000000000000000031000021603100
0202LOTE PADRAO                   ITAUSA      PN         ITSA4       010VISTA          000000000002200000000022000000000210000000000000000000021000000109700
0202LOTE PADRAO                   V C P       PN *       VCPA4       010VISTA          000000000081500000000830000000008150000000000000000000825000006142900
0202LOTE PADRAO                   SID TUBARAO PN *       CSTB4       010VISTA          000000000022600000000226000000002160000000000000000000216000005983500
0202LOTE PADRAO                   BRADESPAR   PN *       BRAP4       010VISTA          000000000000890000000008900000000085000000000000000000008500176366000
0202LOTE PADRAO                   NET         PN         PLIM4       010VISTA          000000000000860000000008700000000079000000000000000000007900001622600
0202LOTE PADRAO                   TELE CTR OESPN * EJ    TCOC4       010VISTA          000000000005500000000055400000000520000000000000000000052000129724000
0202LOTE PADRAO                   TELEMAR N L PNA* EJ    TMAR5       010VISTA          000000000057800000000578000000005620000000000000000000562000034217400
0202LOTE PADRAO                   GERDAU      PN * EJ    GGBR4       010VISTA          000000000023000000000231000000002230000000000000000000223000017723700
0202LOTE PADRAO                   BRASIL      ON *       BBAS3       010VISTA          000000000010100000000101000000000990000000000000000000099000005389400
