00BDIN9999BOVESPA 99992001061320010613
0101IBOVESPA                      0151750151750156000000000000000000002001061300000020010613015403000000
0202LOTE PADRAO                   EMBRATEL PARPN *       EBTP4       010VISTA          000000000021900000000221000000002130000000000000000000213000081844900
0202LOTE PADRAO                   EMBRATEL PARON *       EBTP3       010VISTA          000000000021800000000225000000002160000000000000000000218000052811700
0202LOTE PADRAO                   TRAN PAULISTPN * EJ    TRPL4       010VISTA          000000000006500000000070000000000650000000000000000000069000026350500
0202LOTE PADRAO                   TELEMAR     PN * EJ    TNLP4       010VISTA          000000000038000000000385000000003770000000000000000000377000206130000
0202LOTE PADRAO                   ITAUBANCO   PN * EJ    ITAU4       010VISTA          000000000195000000001985000000019350000000000000000001944000007597800
0202LOTE PADRAO                   TELEMAR     ON * EJ    TNLP3       010VISTA          000000000033000000000331000000003200000000000000000000325000019167500
0202LOTE PADRAO                   SID NACIONALON *       CSNA3       010VISTA          000000000042600000000452000000004260000000000000000000449000017814400
0202LOTE PADRAO                   TELE LEST CLPN *       TLCP4       010VISTA          000000000001900000000019400000000180000000000000000000018000173284000
0202LOTE PADRAO                   IPIRANGA PETPN *       PTIP4       010VISTA          000000000016400000000168000000001600000000000000000000168000003064000
0202LOTE PADRAO                   BRASIL T PARPN *       BRTP4       010VISTA          000000000019800000000208000000001980000000000000000000205000189644000
0202LOTE PADRAO                   BRASIL T PARON *       BRTP3       010VISTA          000000000019200000000201000000001910000000000000000000201000026310700
0202LOTE PADRAO                   ACESITA     PN *       ACES4       010VISTA          000000000000720000000007500000000071000000000000000000007500243938000
0202LOTE PADRAO                   PETROBRAS   PN         PETR4       010VISTA          000000000057700000000601000000005720000000000000000000582000000122300
0202LOTE PADRAO                   ELETROBRAS  PNB*       ELET6       010VISTA          000000000028750000000306000000002875000000000000000000290000093993100
0202LOTE PADRAO                   PETROBRAS   ON         PETR3       010VISTA          000000000064200000000670000000006300000000000000000000650000000053300
0202LOTE PADRAO                   COMGAS      PNA*       CGAS5       010VISTA          000000000152800000001544000000015000000000000000000001520000000828000
0202LOTE PADRAO                   SOUZA CRUZ  ON EJ      CRUZ3       010VISTA          000000000011700000000119000000001160000000000000000000119000000015800
0202LOTE PADRAO                   CELESC      PNB        CLSC6       010VISTA          000000000000480000000005000000000047000000000000000000004900000410500
0202LOTE PADRAO                   ELETROBRAS  ON *       ELET3       010VISTA          000000000032600000000337000000003240000000000000000000324000051410200
0202LOTE PADRAO                   BRADESCO    PN * EJ    BBDC4       010VISTA          000000000012900000000131000000001260000000000000000000126000172234000
0202LOTE PADRAO                   CESP        PN *       CESP4       010VISTA          000000000015000000000155000000001460000000000000000000152000018872700
0202LOTE PADRAO                   LIGHT       ON *       LIGH3       010VISTA          000000000142000000001469000000013700000000000000000001468000000700300
0202LOTE PADRAO                   TELESP CL PAPN *       TSPP4       010VISTA          000000000015100000000154000000001500000000000000000000153000146612000
0202LOTE PADRAO                   VALE R DOCE PNA        VALE5       010VISTA          000000000056000000000572000000005550000000000000000000563000000046500
0202LOTE PADRAO                   COPEL       PNB*       CPLE6       010VISTA          000000000017800000000180000000001680000000000000000000175000034920800
0202LOTE PADRAO                   VALE R DOCE ON         VALE3       010VISTA          000000000053000000000540000000005300000000000000000000537000000001300
0202LOTE PADRAO                   ARACRUZ     PNB        ARCZ6       010VISTA          000000000004200000000045000000000420000000000000000000044000000083300
0202LOTE PADRAO                   TELEMIG PARTPN *       TMCP4       010VISTA          000000000005200000000055000000000520000000000000000000055000088161100
0202LOTE PADRAO                   BRASIL TELECPN *       BRTO4       010VISTA          000000000013250000000147000000001325000000000000000000144000286066000
0202LOTE PADRAO                   SABESP      ON *       SBSP3       010VISTA          000000000171000000001800000000017100000000000000000001750000001441400
0202LOTE PADRAO                   BRASKEM     PNA*       BRKM5       010VISTA          000000000540000000005500000000053750000000000000000005447000000211400
0202LOTE PADRAO                   EMBRAER     PN EJ      EMBR4       010VISTA          000000000024100000000246000000002380000000000000000000245000000101000
0202LOTE PADRAO                   TELESP      PN * EJ    TLPP4       010VISTA          000000000029000000000296000000002860000000000000000000289000011867400
0202LOTE PADRAO                   EMBRAER     ON EJ      EMBR3       010VISTA          000000000018800000000193000000001860000000000000000000192500000057900
0202LOTE PADRAO                   AMBEV       PN *       AMBV4       010VISTA          000000000510000000005230000000051000000000000000000005150000002095000
0202LOTE PADRAO                   USIMINAS    PNA        USIM5       010VISTA          000000000006800000000069000000000671000000000000000000067900000066700
0202LOTE PADRAO                   ELETROPAULO PN *       ELPL4       010VISTA          000000000065000000000650000000006300000000000000000000647000002507000
0202LOTE PADRAO                   TELE NORD CLPN *       TNEP4       010VISTA          000000000004600000000047000000000460000000000000000000047000192570000
0202LOTE PADRAO                   CEMIG       PN * EJ    CMIG4       010VISTA          000000000025500000000270000000002490000000000000000000249000051243900
0202LOTE PADRAO                   TELE CL SUL PN * EJ    TCSL4       010VISTA          000000000005200000000054000000000520000000000000000000054000257221000
0202LOTE PADRAO                   CEMIG       ON * EJ    CMIG3       010VISTA          000000000024500000000257500000002450000000000000000000245000001811200
0202LOTE PADRAO                   TELE CL SUL ON * EJ    TCSL3       010VISTA          000000000004500000000047000000000450000000000000000000047000045970100
0202LOTE PADRAO                   ITAUSA      PN         ITSA4       010VISTA          000000000002000000000021000000000200000000000000000000021000000467400
0202LOTE PADRAO                   SID TUBARAO PN *       CSTB4       010VISTA          000000000023800000000255000000002300000000000000000000250000009505000
0202LOTE PADRAO                   V C P       PN *       VCPA4       010VISTA          000000000075500000000765000000007550000000000000000000765000002750100
0202LOTE PADRAO                   BRADESPAR   PN *       BRAP4       010VISTA          000000000000870000000009200000000086000000000000000000009100485685000
0202LOTE PADRAO                   NET         PN         PLIM4       010VISTA          000000000000980000000010000000000095000000000000000000009900002193600
0202LOTE PADRAO                   TELE CTR OESPN * EJ    TCOC4       010VISTA          000000000006800000000070000000000680000000000000000000069000075317300
0202LOTE PADRAO                   GERDAU      PN * EJ    GGBR4       010VISTA          000000000017100000000178000000001710000000000000000000176000016901500
0202LOTE PADRAO                   BRASIL      ON *       BBAS3       010VISTA          000000000008250000000084000000000820000000000000000000084000005545000
