00BDIN9999BOVESPA 99992001090320010903
0101IBOVESPA                      0128490126960128630000000000000000002001090300000020010903012800000000
0202LOTE PADRAO                   EMBRATEL PARPN *       EBTP4       010VISTA          000000000010800000000113000000001075000000000000000000112500081024700
0202LOTE PADRAO                   EMBRATEL PARON *       EBTP3       010VISTA          000000000011600000000120000000001150000000000000000000118000033740800
0202LOTE PADRAO                   TRAN PAULISTPN * EJ    TRPL4       010VISTA          000000000006400000000065000000000640000000000000000000065000016529900
0202LOTE PADRAO                   TELEMAR     PN * EJ    TNLP4       010VISTA          000000000027800000000278000000002730000000000000000000277500090390900
0202LOTE PADRAO                   ITAUBANCO   PN * EJ    ITAU4       010VISTA          000000000173900000001755000000017190000000000000000001719000003297900
0202LOTE PADRAO                   TELEMAR     ON * EJ    TNLP3       010VISTA          000000000026000000000260000000002500000000000000000000251000007930900
0202LOTE PADRAO                   SID NACIONALON *       CSNA3       010VISTA          000000000035100000000351000000003480000000000000000000349000003150800
0202LOTE PADRAO                   TELE LEST CLPN *       TLCP4       010VISTA          000000000001300000000013000000000127000000000000000000012800051649300
0202LOTE PADRAO                   CRT CELULAR PNA* EJ    CRTP5       010VISTA          000000000920000000009200000000087000000000000000000009140000000068700
0202LOTE PADRAO                   IPIRANGA PETPN *       PTIP4       010VISTA          000000000013500000000135000000001290000000000000000000129000001535300
0202LOTE PADRAO                   BRASIL T PARPN *       BRTP4       010VISTA          000000000014900000000150000000001440000000000000000000144000031379100
0202LOTE PADRAO                   BRASIL T PARON *       BRTP3       010VISTA          000000000013600000000136000000001300000000000000000000131000012069800
0202LOTE PADRAO                   ACESITA     PN *       ACES4       010VISTA          000000000000530000000005400000000051000000000000000000005400182612000
0202LOTE PADRAO                   PETROBRAS   PN         PETR4       010VISTA          000000000054700000000548000000005410000000000000000000547000000046300
0202LOTE PADRAO                   ELETROBRAS  PNB*       ELET6       010VISTA          000000000032400000000324000000003100000000000000000000311000010403000
0202LOTE PADRAO                   PETROBRAS   ON         PETR3       010VISTA          000000000057500000000575000000005650000000000000000000572000000013300
0202LOTE PADRAO                   COMGAS      PNA*       CGAS5       010VISTA          000000000130000000001300000000012900000000000000000001295000002778900
0202LOTE PADRAO                   SOUZA CRUZ  ON EJ      CRUZ3       010VISTA          000000000011300000000113000000001110000000000000000000111000000003200
0202LOTE PADRAO                   ELETROBRAS  ON *       ELET3       010VISTA          000000000036500000000365000000003470000000000000000000348000003492700
0202LOTE PADRAO                   CELESC      PNB        CLSC6       010VISTA          000000000000420000000004300000000040000000000000000000004200000169900
0202LOTE PADRAO                   BRADESCO    PN * EJ    BBDC4       010VISTA          000000000011500000000115000000001140000000000000000000114000060723100
0202LOTE PADRAO                   CESP        PN *       CESP4       010VISTA          000000000011800000000126000000001180000000000000000000126000008508900
0202LOTE PADRAO                   LIGHT       ON *       LIGH3       010VISTA          000000000115000000001150000000011310000000000000000001145000000463100
0202LOTE PADRAO                   TELESP CL PAPN *       TSPP4       010VISTA          000000000013400000000134000000001280000000000000000000130000022625700
0202LOTE PADRAO                   VALE R DOCE PNA        VALE5       010VISTA          000000000051200000000512000000004950000000000000000000497000000033000
0202LOTE PADRAO                   COPEL       PNB*       CPLE6       010VISTA          000000000018500000000185000000001800000000000000000000183000012191200
0202LOTE PADRAO                   VALE R DOCE ON         VALE3       010VISTA          000000000051000000000510000000005030000000000000000000505000000002900
0202LOTE PADRAO                   ARACRUZ     PNB        ARCZ6       010VISTA          000000000004300000000043000000000400000000000000000000041000000087600
0202LOTE PADRAO                   TELEMIG PARTPN *       TMCP4       010VISTA          000000000003400000000036000000000340000000000000000000036000064558600
0202LOTE PADRAO                   BRASIL TELECPN *       BRTO4       010VISTA          000000000010000000000100000000000990000000000000000000100000042280000
0202LOTE PADRAO                   SABESP      ON *       SBSP3       010VISTA          000000000164000000001655000000016250000000000000000001640000000805600
0202LOTE PADRAO                   BRASKEM     PNA*       BRKM5       010VISTA          000000000417000000004350000000041700000000000000000004300000000097400
0202LOTE PADRAO                   EMBRAER     PN EJ      EMBR4       010VISTA          000000000016800000000168000000001630000000000000000000164000000014800
0202LOTE PADRAO                   TELESP      PN * EJ    TLPP4       010VISTA          000000000025400000000256000000002525000000000000000000255000010592800
0202LOTE PADRAO                   EMBRAER     ON EJ      EMBR3       010VISTA          000000000013600000000140000000001310000000000000000000140000000018200
0202LOTE PADRAO                   AMBEV       PN *       AMBV4       010VISTA          000000000480000000004850000000047400000000000000000004800000000149900
0202LOTE PADRAO                   USIMINAS    PNA        USIM5       010VISTA          000000000005700000000058000000000560000000000000000000058000000046800
0202LOTE PADRAO                   ELETROPAULO PN *       ELPL4       010VISTA          000000000069000000000705000000006900000000000000000000705000001072800
0202LOTE PADRAO                   TELE NORD CLPN *       TNEP4       010VISTA          000000000002900000000029000000000280000000000000000000028000071892000
0202LOTE PADRAO                   CEMIG       PN * EJ    CMIG4       010VISTA          000000000027400000000276000000002680000000000000000000271000020688800
0202LOTE PADRAO                   TELE CL SUL PN * EJ    TCSL4       010VISTA          000000000003200000000033000000000320000000000000000000033000034408300
0202LOTE PADRAO                   CEMIG       ON * EJ    CMIG3       010VISTA          000000000027400000000274000000002680000000000000000000273000001940000
0202LOTE PADRAO                   TELE CL SUL ON * EJ    TCSL3       010VISTA          000000000002700000000028000000000270000000000000000000028000064884700
0202LOTE PADRAO                   ITAUSA      PN         ITSA4       010VISTA          000000000001900000000019000000000180000000000000000000019000000249600
0202LOTE PADRAO                   SID TUBARAO PN *       CSTB4       010VISTA          000000000020300000000203000000001930000000000000000000195000008884700
0202LOTE PADRAO                   V C P       PN *       VCPA4       010VISTA          000000000073000000000730000000007050000000000000000000714000001235200
0202LOTE PADRAO                   BRADESPAR   PN *       BRAP4       010VISTA          000000000000650000000006500000000061000000000000000000006200171136000
0202LOTE PADRAO                   NET         PN         PLIM4       010VISTA          000000000000880000000009000000000085000000000000000000009000000351700
0202LOTE PADRAO                   TELE CTR OESPN * EJ    TCOC4       010VISTA          000000000005100000000051000000000500000000000000000000050000009061900
0202LOTE PADRAO                   GERDAU      PN * EJ    GGBR4       010VISTA          000000000016500000000165000000001600000000000000000000161000003126100
0202LOTE PADRAO                   BRASIL      ON *       BBAS3       010VISTA          000000000008900000000090000000000890000000000000000000090000007535500
