00BDIN9999BOVESPA 99992001040420010404
0101IBOVESPA                      0137400137400141350000000000000000002001040400000020010404013855000000
0202LOTE PADRAO                   EMBRATEL PARPN *       EBTP4       010VISTA          000000000019100000000195000000001850000000000000000000191000129868000
0202LOTE PADRAO                   EMBRATEL PARON *       EBTP3       010VISTA          000000000017800000000189000000001730000000000000000000189000048679700
0202LOTE PADRAO                   TRAN PAULISTPN * EJ    TRPL4       010VISTA          000000000007300000000074000000000670000000000000000000068000010518300
0202LOTE PADRAO                   TELEMAR     PN * EJ    TNLP4       010VISTA          000000000032500000000337000000003250000000000000000000331000270608000
0202LOTE PADRAO                   ITAUBANCO   PN * EJ    ITAU4       010VISTA          000000000158000000001645000000015800000000000000000001644000008650700
0202LOTE PADRAO                   TELEMAR     ON * EJ    TNLP3       010VISTA          000000000029000000000296000000002850000000000000000000290000040816900
0202LOTE PADRAO                   SID NACIONALON *       CSNA3       010VISTA          000000000045200000000456000000004400000000000000000000446000019139200
0202LOTE PADRAO                   TELE LEST CLPN *       TLCP4       010VISTA          000000000001400000000015500000000130000000000000000000014900073411300
0202LOTE PADRAO                   IPIRANGA PETPN *       PTIP4       010VISTA          000000000016500000000165000000001600000000000000000000163000002028700
0202LOTE PADRAO                   BRASIL T PARPN *       BRTP4       010VISTA          000000000017200000000176000000001660000000000000000000171000087207700
0202LOTE PADRAO                   BRASIL T PARON *       BRTP3       010VISTA          000000000018100000000183000000001700000000000000000000170000020568100
0202LOTE PADRAO                   ACESITA     PN *       ACES4       010VISTA          000000000000940000000009600000000092000000000000000000009400114213000
0202LOTE PADRAO                   PETROBRAS   PN         PETR4       010VISTA          000000000045200000000467000000004520000000000000000000462000000099700
0202LOTE PADRAO                   ELETROBRAS  PNB*       ELET6       010VISTA          000000000037500000000387000000003750000000000000000000380000045024300
0202LOTE PADRAO                   PETROBRAS   ON         PETR3       010VISTA          000000000050000000000513000000004980000000000000000000506000000061200
0202LOTE PADRAO                   COMGAS      PNA*       CGAS5       010VISTA          000000000169900000001699000000016350000000000000000001635000001850100
0202LOTE PADRAO                   SOUZA CRUZ  ON EJ      CRUZ3       010VISTA          000000000011400000000114000000001075000000000000000000107500000006300
0202LOTE PADRAO                   CELESC      PNB        CLSC6       010VISTA          000000000000570000000005800000000055000000000000000000005500000157200
0202LOTE PADRAO                   ELETROBRAS  ON *       ELET3       010VISTA          000000000040000000000411000000003950000000000000000000400000022481500
0202LOTE PADRAO                   BRADESCO    PN * EJ    BBDC4       010VISTA          000000000010500000000107000000001040000000000000000000105000217149000
0202LOTE PADRAO                   CESP        PN *       CESP4       010VISTA          000000000022200000000223000000002060000000000000000000206000008427400
0202LOTE PADRAO                   LIGHT       ON *       LIGH3       010VISTA          000000000173000000001780000000017300000000000000000001766000000373400
0202LOTE PADRAO                   TELESP CL PAPN *       TSPP4       010VISTA          000000000012900000000129000000001240000000000000000000126000204298000
0202LOTE PADRAO                   VALE R DOCE PNA        VALE5       010VISTA          000000000052500000000525000000005070000000000000000000507000000027400
0202LOTE PADRAO                   COPEL       PNB*       CPLE6       010VISTA          000000000017000000000175000000001650000000000000000000166000025926800
0202LOTE PADRAO                   VALE R DOCE ON         VALE3       010VISTA          000000000047000000000472000000004700000000000000000000470000000009800
0202LOTE PADRAO                   ARACRUZ     PNB        ARCZ6       010VISTA          000000000002800000000028000000000277000000000000000000027700000032200
0202LOTE PADRAO                   TELEMIG PARTPN *       TMCP4       010VISTA          000000000004100000000043000000000380000000000000000000039000137297000
0202LOTE PADRAO                   BRASIL TELECPN *       BRTO4       010VISTA          000000000012000000000121000000001130000000000000000000115000142884000
0202LOTE PADRAO                   SABESP      ON *       SBSP3       010VISTA          000000000179000000001792500000017450000000000000000001745000001926500
0202LOTE PADRAO                   BRASKEM     PNA*       BRKM5       010VISTA          000000000614900000006150000000060000000000000000000006039000000032000
0202LOTE PADRAO                   EMBRAER     PN EJ      EMBR4       010VISTA          000000000021000000000210000000001950000000000000000000197000000018700
0202LOTE PADRAO                   TELESP      PN * EJ    TLPP4       010VISTA          000000000027100000000285000000002710000000000000000000280000009378000
0202LOTE PADRAO                   EMBRAER     ON EJ      EMBR3       010VISTA          000000000016100000000162500000001550000000000000000000157500000021600
0202LOTE PADRAO                   AMBEV       PN *       AMBV4       010VISTA          000000000505000000005050000000048700000000000000000005000000000676900
0202LOTE PADRAO                   USIMINAS    PNA        USIM5       010VISTA          000000000008600000000087500000000830000000000000000000085000000012100
0202LOTE PADRAO                   ELETROPAULO PN *       ELPL4       010VISTA          000000000080000000000810000000007870000000000000000000792000002241800
0202LOTE PADRAO                   TELE NORD CLPN *       TNEP4       010VISTA          000000000002800000000028000000000260000000000000000000027500161755000
0202LOTE PADRAO                   CEMIG       PN * EJ    CMIG4       010VISTA          000000000026000000000262000000002530000000000000000000256000028064000
0202LOTE PADRAO                   TELE CL SUL PN * EJ    TCSL4       010VISTA          000000000003960000000041000000000370000000000000000000040000156846000
0202LOTE PADRAO                   CEMIG       ON * EJ    CMIG3       010VISTA          000000000025300000000253000000002460000000000000000000246000000596700
0202LOTE PADRAO                   TELE CL SUL ON * EJ    TCSL3       010VISTA          000000000003000000000033000000000300000000000000000000032500070157100
0202LOTE PADRAO                   ITAUSA      PN         ITSA4       010VISTA          000000000001700000000017100000000160000000000000000000017000000353500
0202LOTE PADRAO                   SID TUBARAO PN *       CSTB4       010VISTA          000000000020500000000214000000002050000000000000000000211000009720000
0202LOTE PADRAO                   V C P       PN *       VCPA4       010VISTA          000000000051900000000520000000005070000000000000000000520000000388100
0202LOTE PADRAO                   BRADESPAR   PN *       BRAP4       010VISTA          000000000001000000000010000000000098000000000000000000009900282187000
0202LOTE PADRAO                   NET         PN         PLIM4       010VISTA          000000000001280000000013000000000110000000000000000000012000001575500
0202LOTE PADRAO                   TELE CTR OESPN * EJ    TCOC4       010VISTA          000000000005500000000059000000000550000000000000000000057000056660000
0202LOTE PADRAO                   GERDAU      PN * EJ    GGBR4       010VISTA          000000000018000000000182500000001750000000000000000000180000013651800
0202LOTE PADRAO                   BRASIL      ON *       BBAS3       010VISTA          000000000007200000000074000000000700000000000000000000073000003762700
