00BDIN9999BOVESPA 99992001051720010517
0101IBOVESPA                      0147270147250150950000000000000000002001051700000020010517014794000000
0202LOTE PADRAO                   EMBRATEL PARPN *       EBTP4       010VISTA          000000000019300000000198000000001900000000000000000000193000054176800
0202LOTE PADRAO                   EMBRATEL PARON *       EBTP3       010VISTA          000000000018100000000186000000001780000000000000000000180000017447300
0202LOTE PADRAO                   TRAN PAULISTPN * EJ    TRPL4       010VISTA          000000000006100000000063000000000600000000000000000000061000006361700
0202LOTE PADRAO                   TELEMAR     PN * EJ    TNLP4       010VISTA          000000000038200000000390000000003780000000000000000000380000179135000
0202LOTE PADRAO                   ITAUBANCO   PN * EJ    ITAU4       010VISTA          000000000187800000001960000000018700000000000000000001929000016163500
0202LOTE PADRAO                   TELEMAR     ON * EJ    TNLP3       010VISTA          000000000033000000000333000000003270000000000000000000328000025010900
0202LOTE PADRAO                   SID NACIONALON *       CSNA3       010VISTA          000000000048500000000487000000004810000000000000000000485000004863300
0202LOTE PADRAO                   TELE LEST CLPN *       TLCP4       010VISTA          000000000001800000000018000000000179000000000000000000018000085470900
0202LOTE PADRAO                   IPIRANGA PETPN *       PTIP4       010VISTA          000000000016000000000161000000001600000000000000000000160000002456000
0202LOTE PADRAO                   BRASIL T PARPN *       BRTP4       010VISTA          000000000018500000000187000000001780000000000000000000187000082655200
0202LOTE PADRAO                   BRASIL T PARON *       BRTP3       010VISTA          000000000018200000000183000000001810000000000000000000182500007647200
0202LOTE PADRAO                   ACESITA     PN *       ACES4       010VISTA          000000000000770000000007800000000074000000000000000000007400116965000
0202LOTE PADRAO                   PETROBRAS   PN         PETR4       010VISTA          000000000056500000000581000000005650000000000000000000568000000064800
0202LOTE PADRAO                   ELETROBRAS  PNB*       ELET6       010VISTA          000000000030600000000311000000002980000000000000000000300000075647100
0202LOTE PADRAO                   PETROBRAS   ON         PETR3       010VISTA          000000000061500000000630000000006150000000000000000000623000000026100
0202LOTE PADRAO                   COMGAS      PNA*       CGAS5       010VISTA          000000000130000000001300000000012600000000000000000001286000001531200
0202LOTE PADRAO                   SOUZA CRUZ  ON EJ      CRUZ3       010VISTA          000000000011000000000110000000001090000000000000000000110000000013100
0202LOTE PADRAO                   CELESC      PNB        CLSC6       010VISTA          000000000000500000000005200000000049000000000000000000004900000390500
0202LOTE PADRAO                   ELETROBRAS  ON *       ELET3       010VISTA          000000000033800000000352000000003380000000000000000000342000022717800
0202LOTE PADRAO                   BRADESCO    PN * EJ    BBDC4       010VISTA          000000000011800000000125000000001180000000000000000000119000256554000
0202LOTE PADRAO                   CESP        PN *       CESP4       010VISTA          000000000017300000000177000000001720000000000000000000176000016922000
0202LOTE PADRAO                   LIGHT       ON *       LIGH3       010VISTA          000000000141500000001415000000013700000000000000000001380000000494400
0202LOTE PADRAO                   TELESP CL PAPN *       TSPP4       010VISTA          000000000014800000000158000000001480000000000000000000158000270780000
0202LOTE PADRAO                   VALE R DOCE PNA        VALE5       010VISTA          000000000055700000000570000000005570000000000000000000565000000025300
0202LOTE PADRAO                   COPEL       PNB*       CPLE6       010VISTA          000000000016100000000165000000001600000000000000000000162500026647800
0202LOTE PADRAO                   VALE R DOCE ON         VALE3       010VISTA          000000000051000000000510000000005020000000000000000000505000000002000
0202LOTE PADRAO                   ARACRUZ     PNB        ARCZ6       010VISTA          000000000003700000000038000000000370000000000000000000037000000055600
0202LOTE PADRAO                   TELEMIG PARTPN *       TMCP4       010VISTA          000000000004750000000049000000000470000000000000000000047000144182000
0202LOTE PADRAO                   BRASIL TELECPN *       BRTO4       010VISTA          000000000013000000000134000000001260000000000000000000129000052075600
0202LOTE PADRAO                   SABESP      ON *       SBSP3       010VISTA          000000000157600000001675000000015760000000000000000001675000002444800
0202LOTE PADRAO                   BRASKEM     PNA*       BRKM5       010VISTA          000000000524000000005240000000050000000000000000000005090000000286600
0202LOTE PADRAO                   EMBRAER     PN EJ      EMBR4       010VISTA          000000000024750000000247500000002360000000000000000000241000000006900
0202LOTE PADRAO                   TELESP      PN * EJ    TLPP4       010VISTA          000000000030500000000310000000003030000000000000000000308000009713000
0202LOTE PADRAO                   EMBRAER     ON EJ      EMBR3       010VISTA          000000000019000000000193000000001860000000000000000000188000000012700
0202LOTE PADRAO                   AMBEV       PN *       AMBV4       010VISTA          000000000540000000005550000000054000000000000000000005550000001576800
0202LOTE PADRAO                   USIMINAS    PNA        USIM5       010VISTA          000000000007000000000072500000000696000000000000000000071000000071400
0202LOTE PADRAO                   ELETROPAULO PN *       ELPL4       010VISTA          000000000056500000000570000000005550000000000000000000562000002859000
0202LOTE PADRAO                   TELE NORD CLPN *       TNEP4       010VISTA          000000000003400000000036000000000340000000000000000000035000059017600
0202LOTE PADRAO                   CEMIG       PN * EJ    CMIG4       010VISTA          000000000023800000000238000000002310000000000000000000233000064360300
0202LOTE PADRAO                   TELE CL SUL PN * EJ    TCSL4       010VISTA          000000000004800000000048000000000450000000000000000000046000078675900
0202LOTE PADRAO                   CEMIG       ON * EJ    CMIG3       010VISTA          000000000024500000000247000000002370000000000000000000240000002174600
0202LOTE PADRAO                   TELE CL SUL ON * EJ    TCSL3       010VISTA          000000000003800000000040000000000375000000000000000000037000034604400
0202LOTE PADRAO                   ITAUSA      PN         ITSA4       010VISTA          000000000001940000000020000000000194000000000000000000019900000600500
0202LOTE PADRAO                   SID TUBARAO PN *       CSTB4       010VISTA          000000000023700000000239000000002360000000000000000000238000007625000
0202LOTE PADRAO                   V C P       PN *       VCPA4       010VISTA          000000000061700000000620000000005960000000000000000000600000001476400
0202LOTE PADRAO                   BRADESPAR   PN *       BRAP4       010VISTA          000000000000930000000009700000000092000000000000000000009400124724000
0202LOTE PADRAO                   NET         PN         PLIM4       010VISTA          000000000001000000000010000000000100000000000000000000010000000579900
0202LOTE PADRAO                   TELE CTR OESPN * EJ    TCOC4       010VISTA          000000000006400000000067000000000620000000000000000000066000144875000
0202LOTE PADRAO                   GERDAU      PN * EJ    GGBR4       010VISTA          000000000017500000000175000000001700000000000000000000172000029627100
0202LOTE PADRAO                   BRASIL      ON *       BBAS3       010VISTA          000000000008500000000085000000000810000000000000000000082000004637300
