00BDIN9999BOVESPA 99992001053120010531
0101IBOVESPA                      0145140145080147240000000000000000002001053100000020010531014650000000
0202LOTE PADRAO                   EMBRATEL PARPN *       EBTP4       010VISTA          000000000019600000000201000000001960000000000000000000198000076405800
0202LOTE PADRAO                   EMBRATEL PARON *       EBTP3       010VISTA          000000000018800000000196000000001880000000000000000000188000033586200
0202LOTE PADRAO                   TRAN PAULISTPN * EJ    TRPL4       010VISTA          000000000005600000000058000000000560000000000000000000056000012860000
0202LOTE PADRAO                   TELEMAR     PN * EJ    TNLP4       010VISTA          000000000037000000000375000000003660000000000000000000370000151038000
0202LOTE PADRAO                   ITAUBANCO   PN * EJ    ITAU4       010VISTA          000000000194500000001950000000019100000000000000000001910000006897200
0202LOTE PADRAO                   TELEMAR     ON * EJ    TNLP3       010VISTA          000000000032500000000331000000003200000000000000000000320000018745100
0202LOTE PADRAO                   SID NACIONALON *       CSNA3       010VISTA          000000000047700000000482000000004750000000000000000000481000008458500
0202LOTE PADRAO                   TELE LEST CLPN *       TLCP4       010VISTA          000000000001970000000019900000000195000000000000000000019900059577900
0202LOTE PADRAO                   IPIRANGA PETPN *       PTIP4       010VISTA          000000000016000000000161000000001600000000000000000000160000002010600
0202LOTE PADRAO                   BRASIL T PARPN *       BRTP4       010VISTA          000000000018500000000191000000001830000000000000000000188000138989000
0202LOTE PADRAO                   BRASIL T PARON *       BRTP3       010VISTA          000000000018000000000184000000001780000000000000000000182000011581900
0202LOTE PADRAO                   ACESITA     PN *       ACES4       010VISTA          000000000000690000000007000000000067000000000000000000006800142629000
0202LOTE PADRAO                   PETROBRAS   PN         PETR4       010VISTA          000000000058500000000598000000005800000000000000000000597000000081900
0202LOTE PADRAO                   ELETROBRAS  PNB*       ELET6       010VISTA          000000000025000000000258000000002500000000000000000000255000103770000
0202LOTE PADRAO                   PETROBRAS   ON         PETR3       010VISTA          000000000065000000000672000000006500000000000000000000670000000033800
0202LOTE PADRAO                   COMGAS      PNA*       CGAS5       010VISTA          000000000154500000001625000000015450000000000000000001589000004217000
0202LOTE PADRAO                   SOUZA CRUZ  ON EJ      CRUZ3       010VISTA          000000000011700000000119000000001160000000000000000000118000000020400
0202LOTE PADRAO                   CELESC      PNB        CLSC6       010VISTA          000000000000430000000004500000000043000000000000000000004400000258400
0202LOTE PADRAO                   ELETROBRAS  ON *       ELET3       010VISTA          000000000029800000000305000000002960000000000000000000301000041291800
0202LOTE PADRAO                   BRADESCO    PN * EJ    BBDC4       010VISTA          000000000012000000000120000000001190000000000000000000119000129475000
0202LOTE PADRAO                   CESP        PN *       CESP4       010VISTA          000000000015300000000153000000001430000000000000000000145000012305200
0202LOTE PADRAO                   LIGHT       ON *       LIGH3       010VISTA          000000000139000000001429000000013700000000000000000001379000000155700
0202LOTE PADRAO                   TELESP CL PAPN *       TSPP4       010VISTA          000000000016700000000167000000001610000000000000000000164000116329000
0202LOTE PADRAO                   VALE R DOCE PNA        VALE5       010VISTA          000000000056200000000575000000005620000000000000000000570000000038400
0202LOTE PADRAO                   COPEL       PNB*       CPLE6       010VISTA          000000000015500000000165000000001550000000000000000000160000033636800
0202LOTE PADRAO                   VALE R DOCE ON         VALE3       010VISTA          000000000051900000000520000000005170000000000000000000517500000002700
0202LOTE PADRAO                   ARACRUZ     PNB        ARCZ6       010VISTA          000000000003900000000041000000000390000000000000000000040000000086400
0202LOTE PADRAO                   TELEMIG PARTPN *       TMCP4       010VISTA          000000000005100000000051000000000500000000000000000000050000047973600
0202LOTE PADRAO                   BRASIL TELECPN *       BRTO4       010VISTA          000000000012500000000129000000001240000000000000000000127500107119000
0202LOTE PADRAO                   SABESP      ON *       SBSP3       010VISTA          000000000165000000001660000000016100000000000000000001659000001633000
0202LOTE PADRAO                   BRASKEM     PNA*       BRKM5       010VISTA          000000000525000000005250000000051800000000000000000005180000000134800
0202LOTE PADRAO                   EMBRAER     PN EJ      EMBR4       010VISTA          000000000024100000000246000000002410000000000000000000246000000027900
0202LOTE PADRAO                   TELESP      PN * EJ    TLPP4       010VISTA          000000000029500000000299000000002940000000000000000000298000002786100
0202LOTE PADRAO                   EMBRAER     ON EJ      EMBR3       010VISTA          000000000018700000000190000000001830000000000000000000190000000017700
0202LOTE PADRAO                   AMBEV       PN *       AMBV4       010VISTA          000000000525000000005350000000050500000000000000000005349000003435500
0202LOTE PADRAO                   USIMINAS    PNA        USIM5       010VISTA          000000000006200000000065000000000620000000000000000000065000000058900
0202LOTE PADRAO                   ELETROPAULO PN *       ELPL4       010VISTA          000000000065500000000655000000006400000000000000000000647000011276900
0202LOTE PADRAO                   TELE NORD CLPN *       TNEP4       010VISTA          000000000004000000000040000000000380000000000000000000040000257526000
0202LOTE PADRAO                   CEMIG       PN * EJ    CMIG4       010VISTA          000000000022800000000233000000002240000000000000000000230000054943300
0202LOTE PADRAO                   TELE CL SUL PN * EJ    TCSL4       010VISTA          000000000004800000000048000000000470000000000000000000048000185302000
0202LOTE PADRAO                   CEMIG       ON * EJ    CMIG3       010VISTA          000000000023500000000240000000002300000000000000000000231000005845400
0202LOTE PADRAO                   TELE CL SUL ON * EJ    TCSL3       010VISTA          000000000004200000000042000000000400000000000000000000040000019867400
0202LOTE PADRAO                   ITAUSA      PN         ITSA4       010VISTA          000000000002000000000020000000000200000000000000000000020000000199900
0202LOTE PADRAO                   SID TUBARAO PN *       CSTB4       010VISTA          000000000025400000000255000000002510000000000000000000255000003843000
0202LOTE PADRAO                   V C P       PN *       VCPA4       010VISTA          000000000060900000000610000000006070000000000000000000610000003171800
0202LOTE PADRAO                   BRADESPAR   PN *       BRAP4       010VISTA          000000000000860000000008600000000082000000000000000000008200097315600
0202LOTE PADRAO                   NET         PN         PLIM4       010VISTA          000000000000840000000008500000000081000000000000000000008200001126500
0202LOTE PADRAO                   TELE CTR OESPN * EJ    TCOC4       010VISTA          000000000006800000000068000000000670000000000000000000067000050087400
0202LOTE PADRAO                   GERDAU      PN * EJ    GGBR4       010VISTA          000000000016000000000162500000001575000000000000000000158000005916100
0202LOTE PADRAO                   BRASIL      ON *       BBAS3       010VISTA          000000000008000000000080000000000780000000000000000000078000008185800
