00BDIN9999BOVESPA 99992001012920010129
0101IBOVESPA                      0179060177040180230000000000000000002001012900000020010129017883000000
0202LOTE PADRAO                   EMBRATEL PARPN *       EBTP4       010VISTA          000000000032000000000333000000003180000000000000000000327000089778000
0202LOTE PADRAO                   EMBRATEL PARON *       EBTP3       010VISTA          000000000026600000000271000000002630000000000000000000269000017720300
0202LOTE PADRAO                   TRAN PAULISTPN * EJ    TRPL4       010VISTA          000000000008400000000085000000000825000000000000000000083000006487600
0202LOTE PADRAO                   TELEMAR     PN * EJ    TNLP4       010VISTA          000000000048900000000493000000004800000000000000000000486000121828000
0202LOTE PADRAO                   ITAUBANCO   PN * EJ    ITAU4       010VISTA          000000000193000000001930000000018850000000000000000001890000006467200
0202LOTE PADRAO                   TELEMAR     ON * EJ    TNLP3       010VISTA          000000000040000000000402000000003910000000000000000000396000005614500
0202LOTE PADRAO                   SID NACIONALON *       CSNA3       010VISTA          000000000072500000000727000000007170000000000000000000723000015797900
0202LOTE PADRAO                   TELE LEST CLPN *       TLCP4       010VISTA          000000000001780000000018000000000173000000000000000000017500266344000
0202LOTE PADRAO                   CRT CELULAR PNA* EJ    CRTP5       010VISTA          000000000828000000008280000000079000000000000000000008039000000069900
0202LOTE PADRAO                   IPIRANGA PETPN *       PTIP4       010VISTA          000000000018100000000181000000001760000000000000000000180000000614600
0202LOTE PADRAO                   BRASIL T PARPN *       BRTP4       010VISTA          000000000025800000000261000000002530000000000000000000260000115900000
0202LOTE PADRAO                   BRASIL T PARON *       BRTP3       010VISTA          000000000022100000000224000000002100000000000000000000218000004220700
0202LOTE PADRAO                   ACESITA     PN *       ACES4       010VISTA          000000000001200000000012400000000110000000000000000000011000192217000
0202LOTE PADRAO                   PETROBRAS   PN         PETR4       010VISTA          000000000055500000000555000000005360000000000000000000543000000083100
0202LOTE PADRAO                   ELETROBRAS  PNB*       ELET6       010VISTA          000000000041700000000418000000004130000000000000000000415000036397300
0202LOTE PADRAO                   PETROBRAS   ON         PETR3       010VISTA          000000000055000000000550000000005400000000000000000000548000000031400
0202LOTE PADRAO                   COMGAS      PNA*       CGAS5       010VISTA          000000000149900000001520000000014550000000000000000001480000005017300
0202LOTE PADRAO                   SOUZA CRUZ  ON EJ      CRUZ3       010VISTA          000000000010900000000112500000001070000000000000000000111000000018500
0202LOTE PADRAO                   ELETROBRAS  ON *       ELET3       010VISTA          000000000043000000000437000000004300000000000000000000430000031117300
0202LOTE PADRAO                   CELESC      PNB        CLSC6       010VISTA          000000000000690000000007000000000068000000000000000000007000000345200
0202LOTE PADRAO                   BRADESCO    PN * EJ    BBDC4       010VISTA          000000000013400000000135000000001330000000000000000000133000001867700
0202LOTE PADRAO                   CESP        PN *       CESP4       010VISTA          000000000024100000000241000000002350000000000000000000235000013237800
0202LOTE PADRAO                   LIGHT       ON *       LIGH3       010VISTA          000000000255000000002620000000025490000000000000000002549000000316300
0202LOTE PADRAO                   TELESP CL PAPN *       TSPP4       010VISTA          000000000022900000000230000000002240000000000000000000228000106717000
0202LOTE PADRAO                   VALE R DOCE PNA        VALE5       010VISTA          000000000051300000000534000000005120000000000000000000527000000040100
0202LOTE PADRAO                   COPEL       PNB*       CPLE6       010VISTA          000000000020000000000201000000001960000000000000000000197500013801600
0202LOTE PADRAO                   VALE R DOCE ON         VALE3       010VISTA          000000000049100000000505000000004910000000000000000000505000000000600
0202LOTE PADRAO                   ARACRUZ     PNB        ARCZ6       010VISTA          000000000002900000000029400000000280000000000000000000029000000028400
0202LOTE PADRAO                   TELEMIG PARTPN *       TMCP4       010VISTA          000000000007100000000071000000000680000000000000000000069000058571200
0202LOTE PADRAO                   BRASIL TELECPN *       BRTO4       010VISTA          000000000018800000000193000000001830000000000000000000191000085592700
0202LOTE PADRAO                   SABESP      ON *       SBSP3       010VISTA          000000000225000000002265000000021900000000000000000002190000001341700
0202LOTE PADRAO                   BRASKEM     PNA*       BRKM5       010VISTA          000000000695000000006950000000066990000000000000000006800000000094200
0202LOTE PADRAO                   EMBRAER     PN EJ      EMBR4       010VISTA          000000000019700000000208000000001970000000000000000000203000000019100
0202LOTE PADRAO                   TELESP      PN * EJ    TLPP4       010VISTA          000000000032100000000324000000003150000000000000000000321000013464100
0202LOTE PADRAO                   EMBRAER     ON EJ      EMBR3       010VISTA          000000000015800000000161000000001570000000000000000000160000000075000
0202LOTE PADRAO                   AMBEV       PN *       AMBV4       010VISTA          000000000509000000005285000000050500000000000000000005285000002253400
0202LOTE PADRAO                   USIMINAS    PNA        USIM5       010VISTA          000000000011800000000118000000001130000000000000000000114000000038700
0202LOTE PADRAO                   ELETROPAULO PN *       ELPL4       010VISTA          000000000114500000001150000000011350000000000000000001150000001928500
0202LOTE PADRAO                   TELE NORD CLPN *       TNEP4       010VISTA          000000000004500000000045000000000430000000000000000000043000068841500
0202LOTE PADRAO                   CEMIG       PN * EJ    CMIG4       010VISTA          000000000035200000000367000000003510000000000000000000366000047953100
0202LOTE PADRAO                   TELE CL SUL PN * EJ    TCSL4       010VISTA          000000000005900000000059000000000570000000000000000000058000049580700
0202LOTE PADRAO                   CEMIG       ON * EJ    CMIG3       010VISTA          000000000031800000000318000000003150000000000000000000318000003817000
0202LOTE PADRAO                   TELE CL SUL ON * EJ    TCSL3       010VISTA          000000000004500000000047000000000450000000000000000000045000031351800
0202LOTE PADRAO                   ITAUSA      PN         ITSA4       010VISTA          000000000002000000000020000000000200000000000000000000020000000392500
0202LOTE PADRAO                   SID TUBARAO PN *       CSTB4       010VISTA          000000000024300000000245000000002350000000000000000000240000008791700
0202LOTE PADRAO                   V C P       PN *       VCPA4       010VISTA          000000000063000000000650000000006300000000000000000000640000004946400
0202LOTE PADRAO                   BRADESPAR   PN *       BRAP4       010VISTA          000000000001200000000012600000000120000000000000000000012000119207000
0202LOTE PADRAO                   NET         PN         PLIM4       010VISTA          000000000002300000000023000000000220000000000000000000022500001035900
0202LOTE PADRAO                   TELE CTR OESPN * EJ    TCOC4       010VISTA          000000000008600000000088000000000850000000000000000000085000102775000
0202LOTE PADRAO                   GERDAU      PN * EJ    GGBR4       010VISTA          000000000023300000000234000000002260000000000000000000228000028346800
0202LOTE PADRAO                   BRASIL      ON *       BBAS3       010VISTA          000000000008100000000085000000000800000000000000000000083000010424400
