00BDIN9999BOVESPA 99992001030620010306
0101IBOVESPA                      0165730162790168130000000000000000002001030600000020010306016324000000
0202LOTE PADRAO                   EMBRATEL PARPN *       EBTP4       010VISTA          000000000026900000000274000000002660000000000000000000266000059300200
0202LOTE PADRAO                   EMBRATEL PARON *       EBTP3       010VISTA          000000000022000000000228000000002130000000000000000000215000044693400
0202LOTE PADRAO                   TRAN PAULISTPN * EJ    TRPL4       010VISTA          000000000009300000000093000000000860000000000000000000086000014691100
0202LOTE PADRAO                   TELEMAR     PN * EJ    TNLP4       010VISTA          000000000045600000000460000000004420000000000000000000443000146953000
0202LOTE PADRAO                   ITAUBANCO   PN * EJ    ITAU4       010VISTA          000000000180000000001861000000017900000000000000000001820000006016900
0202LOTE PADRAO                   TELEMAR     ON * EJ    TNLP3       010VISTA          000000000035300000000366000000003350000000000000000000335000007012100
0202LOTE PADRAO                   SID NACIONALON *       CSNA3       010VISTA          000000000073600000000749000000007100000000000000000000710000010244600
0202LOTE PADRAO                   TELE LEST CLPN *       TLCP4       010VISTA          000000000001730000000017400000000160000000000000000000017100111576000
0202LOTE PADRAO                   CRT CELULAR PNA* EJ    CRTP5       010VISTA          000000000937000000009588000000093700000000000000000009550000003001000
0202LOTE PADRAO                   IPIRANGA PETPN *       PTIP4       010VISTA          000000000015000000000150000000001470000000000000000000147000001876300
0202LOTE PADRAO                   BRASIL T PARPN *       BRTP4       010VISTA          000000000023000000000234000000002260000000000000000000228000056305300
0202LOTE PADRAO                   BRASIL T PARON *       BRTP3       010VISTA          000000000019900000000206000000001900000000000000000000193000008703500
0202LOTE PADRAO                   ACESITA     PN *       ACES4       010VISTA          000000000001100000000011000000000100000000000000000000010000136214000
0202LOTE PADRAO                   PETROBRAS   PN         PETR4       010VISTA          000000000056800000000576000000005600000000000000000000569000000082100
0202LOTE PADRAO                   ELETROBRAS  PNB*       ELET6       010VISTA          000000000038000000000391000000003700000000000000000000373000045700800
0202LOTE PADRAO                   PETROBRAS   ON         PETR3       010VISTA          000000000059000000000592000000005820000000000000000000587000000028900
0202LOTE PADRAO                   COMGAS      PNA*       CGAS5       010VISTA          000000000158000000001590000000015100000000000000000001510000003351800
0202LOTE PADRAO                   SOUZA CRUZ  ON EJ      CRUZ3       010VISTA          000000000013000000000133000000001270000000000000000000127000000041300
0202LOTE PADRAO                   ELETROBRAS  ON *       ELET3       010VISTA          000000000040100000000412000000003900000000000000000000390000017667800
0202LOTE PADRAO                   CELESC      PNB        CLSC6       010VISTA          000000000000660000000006700000000063000000000000000000006300000073000
0202LOTE PADRAO                   BRADESCO    PN * EJ    BBDC4       010VISTA          000000000012000000000121000000001150000000000000000000116000138177000
0202LOTE PADRAO                   CESP        PN *       CESP4       010VISTA          000000000025900000000266000000002550000000000000000000255000011428000
0202LOTE PADRAO                   LIGHT       ON *       LIGH3       010VISTA          000000000231000000002315000000021800000000000000000002210000000457200
0202LOTE PADRAO                   TELESP CL PAPN *       TSPP4       010VISTA          000000000018800000000190000000001790000000000000000000180000074913700
0202LOTE PADRAO                   VALE R DOCE PNA        VALE5       010VISTA          000000000051300000000520000000005050000000000000000000507000000031600
0202LOTE PADRAO                   COPEL       PNB*       CPLE6       010VISTA          000000000019200000000195000000001810000000000000000000183000058304800
0202LOTE PADRAO                   VALE R DOCE ON         VALE3       010VISTA          000000000050000000000502000000004950000000000000000000500000000001600
0202LOTE PADRAO                   ARACRUZ     PNB        ARCZ6       010VISTA          000000000002700000000027000000000269000000000000000000027000000049000
0202LOTE PADRAO                   TELEMIG PARTPN *       TMCP4       010VISTA          000000000006400000000065000000000630000000000000000000064000126579000
0202LOTE PADRAO                   BRASIL TELECPN *       BRTO4       010VISTA          000000000016000000000164000000001590000000000000000000160000082395900
0202LOTE PADRAO                   SABESP      ON *       SBSP3       010VISTA          000000000220000000002240000000021500000000000000000002150000001224300
0202LOTE PADRAO                   BRASKEM     PNA*       BRKM5       010VISTA          000000000670000000007000000000065000000000000000000006500000000347500
0202LOTE PADRAO                   EMBRAER     PN EJ      EMBR4       010VISTA          000000000019300000000195000000001900000000000000000000191000000008900
0202LOTE PADRAO                   TELESP      PN * EJ    TLPP4       010VISTA          000000000031200000000313000000003050000000000000000000310000010874800
0202LOTE PADRAO                   EMBRAER     ON EJ      EMBR3       010VISTA          000000000015800000000159000000001540000000000000000000156000000017300
0202LOTE PADRAO                   AMBEV       PN *       AMBV4       010VISTA          000000000510000000005100000000049500000000000000000004970000001623800
0202LOTE PADRAO                   USIMINAS    PNA        USIM5       010VISTA          000000000011100000000113000000001070000000000000000000109000000054600
0202LOTE PADRAO                   ELETROPAULO PN *       ELPL4       010VISTA          000000000110800000001108000000010180000000000000000001027000002437200
0202LOTE PADRAO                   TELE NORD CLPN *       TNEP4       010VISTA          000000000003600000000037900000000350000000000000000000035000048039000
0202LOTE PADRAO                   CEMIG       PN * EJ    CMIG4       010VISTA          000000000032100000000327000000003150000000000000000000316000053730200
0202LOTE PADRAO                   TELE CL SUL PN * EJ    TCSL4       010VISTA          000000000004600000000047000000000450000000000000000000046000119499000
0202LOTE PADRAO                   CEMIG       ON * EJ    CMIG3       010VISTA          000000000027000000000270000000002560000000000000000000257000010154500
0202LOTE PADRAO                   TELE CL SUL ON * EJ    TCSL3       010VISTA          000000000003700000000038000000000350000000000000000000037000017519400
0202LOTE PADRAO                   ITAUSA      PN         ITSA4       010VISTA          000000000001940000000019800000000190000000000000000000019000000174500
0202LOTE PADRAO                   SID TUBARAO PN *       CSTB4       010VISTA          000000000021800000000225000000002130000000000000000000214000005877700
0202LOTE PADRAO                   V C P       PN *       VCPA4       010VISTA          000000000057000000000573000000005670000000000000000000567000001555800
0202LOTE PADRAO                   BRADESPAR   PN *       BRAP4       010VISTA          000000000001000000000011000000000100000000000000000000010000320446000
0202LOTE PADRAO                   NET         PN         PLIM4       010VISTA          000000000001800000000018100000000170000000000000000000017100000921000
0202LOTE PADRAO                   TELE CTR OESPN * EJ    TCOC4       010VISTA          000000000007900000000080000000000770000000000000000000078000047388700
0202LOTE PADRAO                   GERDAU      PN * EJ    GGBR4       010VISTA          000000000019300000000196000000001930000000000000000000193000013902600
0202LOTE PADRAO                   BRASIL      ON *       BBAS3       010VISTA          000000000007900000000080000000000780000000000000000000079000008871600
