00BDIN9999BOVESPA 99992001091720010917
0101IBOVESPA                      0100320100320105770000000000000000002001091700000020010917010550000000
0202LOTE PADRAO                   EMBRATEL PARPN *       EBTP4       010VISTA          000000000007600000000083000000000750000000000000000000079000137954000
0202LOTE PADRAO                   EMBRATEL PARON *       EBTP3       010VISTA          000000000008000000000085000000000790000000000000000000081000025090800
0202LOTE PADRAO                   TRAN PAULISTPN * EJ    TRPL4       010VISTA          000000000004500000000045000000000425000000000000000000042000025806100
0202LOTE PADRAO                   TELEMAR     PN * EJ    TNLP4       010VISTA          000000000021800000000231000000002160000000000000000000230000266058000
0202LOTE PADRAO                   ITAUBANCO   PN * EJ    ITAU4       010VISTA          000000000148000000001550000000014500000000000000000001535000006865400
0202LOTE PADRAO                   TELEMAR     ON * EJ    TNLP3       010VISTA          000000000020000000000213000000001980000000000000000000213000016166500
0202LOTE PADRAO                   SID NACIONALON *       CSNA3       010VISTA          000000000030000000000330000000003000000000000000000000330000005219900
0202LOTE PADRAO                   TELE LEST CLPN *       TLCP4       010VISTA          000000000000630000000006600000000054000000000000000000005500359727000
0202LOTE PADRAO                   CRT CELULAR PNA* EJ    CRTP5       010VISTA          000000000300000000003050000000027500000000000000000002944000003492800
0202LOTE PADRAO                   IPIRANGA PETPN *       PTIP4       010VISTA          000000000010300000000105000000001010000000000000000000103000000763700
0202LOTE PADRAO                   BRASIL T PARPN *       BRTP4       010VISTA          000000000011100000000125000000001100000000000000000000125000078047400
0202LOTE PADRAO                   BRASIL T PARON *       BRTP3       010VISTA          000000000010100000000115000000001010000000000000000000110000012079400
0202LOTE PADRAO                   ACESITA     PN *       ACES4       010VISTA          000000000000410000000004400000000039000000000000000000004000161086000
0202LOTE PADRAO                   PETROBRAS   PN         PETR4       010VISTA          000000000050800000000552000000005080000000000000000000552000000112000
0202LOTE PADRAO                   ELETROBRAS  PNB*       ELET6       010VISTA          000000000029000000000298000000002750000000000000000000288000058540700
0202LOTE PADRAO                   PETROBRAS   ON         PETR3       010VISTA          000000000052500000000577000000005250000000000000000000577000000078900
0202LOTE PADRAO                   COMGAS      PNA*       CGAS5       010VISTA          000000000088000000000920000000008600000000000000000000880000000850300
0202LOTE PADRAO                   SOUZA CRUZ  ON EJ      CRUZ3       010VISTA          000000000010800000000111000000001060000000000000000000109000000028800
0202LOTE PADRAO                   ELETROBRAS  ON *       ELET3       010VISTA          000000000031500000000333000000003150000000000000000000324000029796800
0202LOTE PADRAO                   CELESC      PNB        CLSC6       010VISTA          000000000000360000000003700000000033000000000000000000003600000221300
0202LOTE PADRAO                   BRADESCO    PN * EJ    BBDC4       010VISTA          000000000009600000000098000000000930000000000000000000096000161026000
0202LOTE PADRAO                   CESP        PN *       CESP4       010VISTA          000000000009100000000091000000000830000000000000000000088000012676900
0202LOTE PADRAO                   LIGHT       ON *       LIGH3       010VISTA          000000000090000000000930000000009000000000000000000000924000000602200
0202LOTE PADRAO                   TELESP CL PAPN *       TSPP4       010VISTA          000000000006000000000062000000000580000000000000000000059000402691000
0202LOTE PADRAO                   VALE R DOCE PNA        VALE5       010VISTA          000000000047900000000510000000004750000000000000000000503000000037100
0202LOTE PADRAO                   COPEL       PNB*       CPLE6       010VISTA          000000000014300000000161000000001430000000000000000000155000045803400
0202LOTE PADRAO                   VALE R DOCE ON         VALE3       010VISTA          000000000047100000000500000000004710000000000000000000500000000001200
0202LOTE PADRAO                   ARACRUZ     PNB        ARCZ6       010VISTA          000000000003800000000043000000000380000000000000000000042000000040100
0202LOTE PADRAO                   TELEMIG PARTPN *       TMCP4       010VISTA          000000000002600000000028000000000260000000000000000000027700078062000
0202LOTE PADRAO                   BRASIL TELECPN *       BRTO4       010VISTA          000000000007700000000085000000000770000000000000000000084000083151900
0202LOTE PADRAO                   SABESP      ON *       SBSP3       010VISTA          000000000127400000001325000000012500000000000000000001280000000710800
0202LOTE PADRAO                   BRASKEM     PNA*       BRKM5       010VISTA          000000000357000000003989000000035700000000000000000003750000000200700
0202LOTE PADRAO                   EMBRAER     PN EJ      EMBR4       010VISTA          000000000011000000000110000000000810000000000000000000107000000325800
0202LOTE PADRAO                   TELESP      PN * EJ    TLPP4       010VISTA          000000000020000000000208000000001930000000000000000000208000008088100
0202LOTE PADRAO                   EMBRAER     ON EJ      EMBR3       010VISTA          000000000009100000000093000000000750000000000000000000088000000060900
0202LOTE PADRAO                   AMBEV       PN *       AMBV4       010VISTA          000000000425000000004740000000042500000000000000000004600000001258400
0202LOTE PADRAO                   USIMINAS    PNA        USIM5       010VISTA          000000000004900000000049000000000440000000000000000000045000000072700
0202LOTE PADRAO                   ELETROPAULO PN *       ELPL4       010VISTA          000000000066500000000720000000006650000000000000000000700000003173600
0202LOTE PADRAO                   TELE NORD CLPN *       TNEP4       010VISTA          000000000002100000000023000000000210000000000000000000023000109571000
0202LOTE PADRAO                   CEMIG       PN * EJ    CMIG4       010VISTA          000000000024800000000256000000002400000000000000000000246000033496000
0202LOTE PADRAO                   TELE CL SUL PN * EJ    TCSL4       010VISTA          000000000002480000000027000000000240000000000000000000027100097762500
0202LOTE PADRAO                   CEMIG       ON * EJ    CMIG3       010VISTA          000000000024300000000243000000002300000000000000000000235000000554000
0202LOTE PADRAO                   TELE CL SUL ON * EJ    TCSL3       010VISTA          000000000002000000000022000000000200000000000000000000022000045003000
0202LOTE PADRAO                   ITAUSA      PN         ITSA4       010VISTA          000000000001600000000017800000000160000000000000000000017400000317000
0202LOTE PADRAO                   SID TUBARAO PN *       CSTB4       010VISTA          000000000017900000000185000000001700000000000000000000185000005510000
0202LOTE PADRAO                   V C P       PN *       VCPA4       010VISTA          000000000061900000000650000000006000000000000000000000640000001163500
0202LOTE PADRAO                   BRADESPAR   PN *       BRAP4       010VISTA          000000000000500000000005200000000047000000000000000000004800322231000
0202LOTE PADRAO                   NET         PN         PLIM4       010VISTA          000000000000680000000007000000000062000000000000000000006500001660400
0202LOTE PADRAO                   TELE CTR OESPN * EJ    TCOC4       010VISTA          000000000003200000000040000000000320000000000000000000039000204983000
0202LOTE PADRAO                   GERDAU      PN * EJ    GGBR4       010VISTA          000000000013800000000145000000001350000000000000000000135000065699900
0202LOTE PADRAO                   BRASIL      ON *       BBAS3       010VISTA          000000000007500000000077000000000710000000000000000000074000006202100
