00BDIN9999BOVESPA 99992001042320010423
0101IBOVESPA                      0137340133250138930000000000000000002001042300000020010423013893000000
0202LOTE PADRAO                   EMBRATEL PARPN *       EBTP4       010VISTA          000000000021000000000215000000002025000000000000000000215000093471200
0202LOTE PADRAO                   EMBRATEL PARON *       EBTP3       010VISTA          000000000019000000000195000000001810000000000000000000194000025200700
0202LOTE PADRAO                   TRAN PAULISTPN * EJ    TRPL4       010VISTA          000000000007400000000074000000000675000000000000000000070000012530800
0202LOTE PADRAO                   TELEMAR     PN * EJ    TNLP4       010VISTA          000000000031900000000328000000003100000000000000000000326000237508000
0202LOTE PADRAO                   ITAUBANCO   PN * EJ    ITAU4       010VISTA          000000000156500000001585000000015350000000000000000001560000010310400
0202LOTE PADRAO                   TELEMAR     ON * EJ    TNLP3       010VISTA          000000000028600000000298000000002760000000000000000000293000017268600
0202LOTE PADRAO                   SID NACIONALON *       CSNA3       010VISTA          000000000046000000000510000000004500000000000000000000510000002962900
0202LOTE PADRAO                   TELE LEST CLPN *       TLCP4       010VISTA          000000000001510000000015500000000140000000000000000000015500076445800
0202LOTE PADRAO                   IPIRANGA PETPN *       PTIP4       010VISTA          000000000015000000000164000000001500000000000000000000164000001326000
0202LOTE PADRAO                   BRASIL T PARPN *       BRTP4       010VISTA          000000000016100000000168000000001580000000000000000000168000077867800
0202LOTE PADRAO                   BRASIL T PARON *       BRTP3       010VISTA          000000000016800000000175000000001650000000000000000000175000012952600
0202LOTE PADRAO                   ACESITA     PN *       ACES4       010VISTA          000000000000870000000008700000000082000000000000000000008700135559000
0202LOTE PADRAO                   PETROBRAS   PN         PETR4       010VISTA          000000000049000000000507000000004750000000000000000000504000000088700
0202LOTE PADRAO                   ELETROBRAS  PNB*       ELET6       010VISTA          000000000030100000000301000000002860000000000000000000299000032662600
0202LOTE PADRAO                   PETROBRAS   ON         PETR3       010VISTA          000000000051700000000553000000005170000000000000000000553000000040100
0202LOTE PADRAO                   COMGAS      PNA*       CGAS5       010VISTA          000000000124000000001298000000011700000000000000000001190000003898400
0202LOTE PADRAO                   SOUZA CRUZ  ON EJ      CRUZ3       010VISTA          000000000010500000000110000000001010000000000000000000110000000008100
0202LOTE PADRAO                   CELESC      PNB        CLSC6       010VISTA          000000000000500000000005200000000048000000000000000000005200000218300
0202LOTE PADRAO                   ELETROBRAS  ON *       ELET3       010VISTA          000000000033250000000332000000003150000000000000000000331000013080100
0202LOTE PADRAO                   BRADESCO    PN * EJ    BBDC4       010VISTA          000000000010600000000108000000001050000000000000000000106000159606000
0202LOTE PADRAO                   CESP        PN *       CESP4       010VISTA          000000000018000000000180000000001650000000000000000000171000014419300
0202LOTE PADRAO                   LIGHT       ON *       LIGH3       010VISTA          000000000155900000001680000000015590000000000000000001560000000892900
0202LOTE PADRAO                   TELESP CL PAPN *       TSPP4       010VISTA          000000000013000000000132500000001200000000000000000000132500134807000
0202LOTE PADRAO                   VALE R DOCE PNA        VALE5       010VISTA          000000000050400000000527000000005020000000000000000000526000000036700
0202LOTE PADRAO                   COPEL       PNB*       CPLE6       010VISTA          000000000016000000000160000000001460000000000000000000155000015989000
0202LOTE PADRAO                   VALE R DOCE ON         VALE3       010VISTA          000000000047900000000485000000004790000000000000000000485000000000100
0202LOTE PADRAO                   ARACRUZ     PNB        ARCZ6       010VISTA          000000000002940000000031000000000294000000000000000000031000000219700
0202LOTE PADRAO                   TELEMIG PARTPN *       TMCP4       010VISTA          000000000003700000000039400000000370000000000000000000038000086810600
0202LOTE PADRAO                   BRASIL TELECPN *       BRTO4       010VISTA          000000000011700000000120000000001110000000000000000000120000044485300
0202LOTE PADRAO                   SABESP      ON *       SBSP3       010VISTA          000000000172000000001799000000017200000000000000000001760000001956900
0202LOTE PADRAO                   BRASKEM     PNA*       BRKM5       010VISTA          000000000552000000005600000000053000000000000000000005600000000092000
0202LOTE PADRAO                   EMBRAER     PN EJ      EMBR4       010VISTA          000000000022000000000229000000002110000000000000000000228000000019000
0202LOTE PADRAO                   TELESP      PN * EJ    TLPP4       010VISTA          000000000027100000000285000000002660000000000000000000284000004692600
0202LOTE PADRAO                   EMBRAER     ON EJ      EMBR3       010VISTA          000000000016800000000173000000001670000000000000000000173000000034600
0202LOTE PADRAO                   AMBEV       PN *       AMBV4       010VISTA          000000000475000000004985000000046000000000000000000004800000001726300
0202LOTE PADRAO                   USIMINAS    PNA        USIM5       010VISTA          000000000008600000000086000000000810000000000000000000084000000068500
0202LOTE PADRAO                   ELETROPAULO PN *       ELPL4       010VISTA          000000000068200000000682000000006100000000000000000000630000002294600
0202LOTE PADRAO                   TELE NORD CLPN *       TNEP4       010VISTA          000000000002800000000028000000000270000000000000000000028000067979800
0202LOTE PADRAO                   CEMIG       PN * EJ    CMIG4       010VISTA          000000000026000000000260000000002475000000000000000000258000033870700
0202LOTE PADRAO                   TELE CL SUL PN * EJ    TCSL4       010VISTA          000000000004000000000040000000000381000000000000000000038000073459800
0202LOTE PADRAO                   CEMIG       ON * EJ    CMIG3       010VISTA          000000000024100000000250000000002360000000000000000000250000005571000
0202LOTE PADRAO                   TELE CL SUL ON * EJ    TCSL3       010VISTA          000000000003480000000035000000000330000000000000000000034000028099800
0202LOTE PADRAO                   ITAUSA      PN         ITSA4       010VISTA          000000000001720000000017700000000160000000000000000000017700000482900
0202LOTE PADRAO                   SID TUBARAO PN *       CSTB4       010VISTA          000000000021200000000215000000002030000000000000000000211000005238700
0202LOTE PADRAO                   V C P       PN *       VCPA4       010VISTA          000000000054000000000570000000005400000000000000000000570000002414900
0202LOTE PADRAO                   BRADESPAR   PN *       BRAP4       010VISTA          000000000000930000000009300000000088000000000000000000009000282709000
0202LOTE PADRAO                   NET         PN         PLIM4       010VISTA          000000000001200000000012000000000110000000000000000000011000001101100
0202LOTE PADRAO                   TELE CTR OESPN * EJ    TCOC4       010VISTA          000000000005200000000052000000000490000000000000000000051000071733700
0202LOTE PADRAO                   GERDAU      PN * EJ    GGBR4       010VISTA          000000000017800000000182000000001720000000000000000000181000005166800
0202LOTE PADRAO                   BRASIL      ON *       BBAS3       010VISTA          000000000008100000000088000000000770000000000000000000086000007723100
