00BDIN9999BOVESPA 99992001111920011119
0101IBOVESPA                      0129060129020131370000000000000000002001111900000020011119012987000000
0202LOTE PADRAO                   EMBRATEL PARPN *       EBTP4       010VISTA          000000000010200000000103000000001000000000000000000000101000117354000
0202LOTE PADRAO                   EMBRATEL PARON *       EBTP3       010VISTA          000000000010900000000111000000001090000000000000000000110000031356400
0202LOTE PADRAO                   TRAN PAULISTPN * EJ    TRPL4       010VISTA          000000000005900000000059000000000560000000000000000000057100022144400
0202LOTE PADRAO                   TELEMAR     PN * EJ    TNLP4       010VISTA          000000000034000000000344000000003320000000000000000000336000278712000
0202LOTE PADRAO                   ITAUBANCO   PN * EJ    ITAU4       010VISTA          000000000184500000001864000000018400000000000000000001861000011087400
0202LOTE PADRAO                   TELEMAR     ON * EJ    TNLP3       010VISTA          000000000029100000000296000000002860000000000000000000290000049546900
0202LOTE PADRAO                   SID NACIONALON *       CSNA3       010VISTA          000000000035500000000380000000003550000000000000000000378000025408400
0202LOTE PADRAO                   TELE LEST CLPN *       TLCP4       010VISTA          000000000000880000000009100000000088000000000000000000009000213925000
0202LOTE PADRAO                   CRT CELULAR PNA* EJ    CRTP5       010VISTA          000000000459900000004615000000042510000000000000000004470000000533500
0202LOTE PADRAO                   IPIRANGA PETPN *       PTIP4       010VISTA          000000000013500000000143000000001350000000000000000000138000000817000
0202LOTE PADRAO                   BRASIL T PARPN *       BRTP4       010VISTA          000000000020500000000205000000001890000000000000000000190000125836000
0202LOTE PADRAO                   BRASIL T PARON *       BRTP3       010VISTA          000000000018400000000186000000001800000000000000000000180000017799800
0202LOTE PADRAO                   ACESITA     PN *       ACES4       010VISTA          000000000000580000000005900000000057000000000000000000005800255484000
0202LOTE PADRAO                   PETROBRAS   PN         PETR4       010VISTA          000000000046100000000477000000004600000000000000000000467000000200400
0202LOTE PADRAO                   ELETROBRAS  PNB*       ELET6       010VISTA          000000000034800000000355000000003430000000000000000000346000021566500
0202LOTE PADRAO                   PETROBRAS   ON         PETR3       010VISTA          000000000047500000000493000000004730000000000000000000479000000055300
0202LOTE PADRAO                   COMGAS      PNA*       CGAS5       010VISTA          000000000086900000000890000000008650000000000000000000870000000714300
0202LOTE PADRAO                   SOUZA CRUZ  ON EJ      CRUZ3       010VISTA          000000000012500000000130000000001250000000000000000000129000000026000
0202LOTE PADRAO                   ELETROBRAS  ON *       ELET3       010VISTA          000000000036500000000370000000003600000000000000000000363000025152000
0202LOTE PADRAO                   CELESC      PNB        CLSC6       010VISTA          000000000000480000000004800000000046000000000000000000004700000195500
0202LOTE PADRAO                   BRADESCO    PN * EJ    BBDC4       010VISTA          000000000012100000000125000000001200000000000000000000125000202046000
0202LOTE PADRAO                   CESP        PN *       CESP4       010VISTA          000000000012300000000126000000001200000000000000000000122500014481200
0202LOTE PADRAO                   LIGHT       ON *       LIGH3       010VISTA          000000000092500000000929000000009100000000000000000000929000001093900
0202LOTE PADRAO                   TELESP CL PAPN *       TSPP4       010VISTA          000000000007600000000077000000000720000000000000000000073000409517000
0202LOTE PADRAO                   VALE R DOCE PNA        VALE5       010VISTA          000000000056600000000570000000005550000000000000000000566000000042500
0202LOTE PADRAO                   COPEL       PNB*       CPLE6       010VISTA          000000000015500000000156000000001530000000000000000000155000036652700
0202LOTE PADRAO                   VALE R DOCE ON         VALE3       010VISTA          000000000051000000000530000000005000000000000000000000525000000002100
0202LOTE PADRAO                   ARACRUZ     PNB        ARCZ6       010VISTA          000000000004400000000048000000000440000000000000000000045000000072200
0202LOTE PADRAO                   TELEMIG PARTPN *       TMCP4       010VISTA          000000000004300000000044000000000410000000000000000000042000087856000
0202LOTE PADRAO                   BRASIL TELECPN *       BRTO4       010VISTA          000000000014200000000143000000001370000000000000000000139000256718000
0202LOTE PADRAO                   SABESP      ON *       SBSP3       010VISTA          000000000133000000001360000000013000000000000000000001339000002233800
0202LOTE PADRAO                   BRASKEM     PNA*       BRKM5       010VISTA          000000000405000000004050000000039000000000000000000004000000000437500
0202LOTE PADRAO                   EMBRAER     PN EJ      EMBR4       010VISTA          000000000010400000000106000000001030000000000000000000104000000044100
0202LOTE PADRAO                   TELESP      PN * EJ    TLPP4       010VISTA          000000000027500000000295000000002750000000000000000000295000010725900
0202LOTE PADRAO                   EMBRAER     ON EJ      EMBR3       010VISTA          000000000008900000000090000000000880000000000000000000088000000020300
0202LOTE PADRAO                   AMBEV       PN *       AMBV4       010VISTA          000000000495000000004989000000049400000000000000000004945000002233000
0202LOTE PADRAO                   USIMINAS    PNA        USIM5       010VISTA          000000000005400000000059000000000540000000000000000000058000000238600
0202LOTE PADRAO                   ELETROPAULO PN *       ELPL4       010VISTA          000000000077000000000770000000007200000000000000000000720000004257600
0202LOTE PADRAO                   TELE NORD CLPN *       TNEP4       010VISTA          000000000003300000000034000000000320000000000000000000032000092777100
0202LOTE PADRAO                   CEMIG       PN * EJ    CMIG4       010VISTA          000000000030000000000301000000002960000000000000000000300000059637900
0202LOTE PADRAO                   TELE CL SUL PN * EJ    TCSL4       010VISTA          000000000003600000000037000000000352000000000000000000035000094617600
0202LOTE PADRAO                   CEMIG       ON * EJ    CMIG3       010VISTA          000000000028300000000289000000002800000000000000000000286000002314000
0202LOTE PADRAO                   TELE CL SUL ON * EJ    TCSL3       010VISTA          000000000002980000000031000000000290000000000000000000029800066388900
0202LOTE PADRAO                   ITAUSA      PN         ITSA4       010VISTA          000000000002000000000021000000000200000000000000000000021000000537200
0202LOTE PADRAO                   V C P       PN *       VCPA4       010VISTA          000000000083000000000840000000008250000000000000000000830000004634200
0202LOTE PADRAO                   SID TUBARAO PN *       CSTB4       010VISTA          000000000017800000000188000000001780000000000000000000187000010703500
0202LOTE PADRAO                   BRADESPAR   PN *       BRAP4       010VISTA          000000000000740000000007700000000073000000000000000000007600127962000
0202LOTE PADRAO                   NET         PN         PLIM4       010VISTA          000000000000810000000008200000000077000000000000000000007700000632200
0202LOTE PADRAO                   TELE CTR OESPN * EJ    TCOC4       010VISTA          000000000005600000000057000000000550000000000000000000056000098956800
0202LOTE PADRAO                   TELEMAR N L PNA* EJ    TMAR5       010VISTA          000000000051800000000537500000005180000000000000000000535000089163500
0202LOTE PADRAO                   GERDAU      PN * EJ    GGBR4       010VISTA          000000000021800000000228000000002180000000000000000000226000023725700
0202LOTE PADRAO                   BRASIL      ON *       BBAS3       010VISTA          000000000008300000000088000000000830000000000000000000088000008376000
