00BDIN9999BOVESPA 99992001051820010518
0101IBOVESPA                      0148480148000150120000000000000000002001051800000020010518014884000000
0202LOTE PADRAO                   EMBRATEL PARPN *       EBTP4       010VISTA          000000000019500000000203000000001950000000000000000000200000070180000
0202LOTE PADRAO                   EMBRATEL PARON *       EBTP3       010VISTA          000000000018100000000186000000001780000000000000000000179000040172600
0202LOTE PADRAO                   TRAN PAULISTPN * EJ    TRPL4       010VISTA          000000000006200000000064000000000620000000000000000000062000009442300
0202LOTE PADRAO                   TELEMAR     PN * EJ    TNLP4       010VISTA          000000000038200000000388000000003820000000000000000000385000143328000
0202LOTE PADRAO                   ITAUBANCO   PN * EJ    ITAU4       010VISTA          000000000193000000001930000000018300000000000000000001830000004698300
0202LOTE PADRAO                   TELEMAR     ON * EJ    TNLP3       010VISTA          000000000033200000000334000000003260000000000000000000326000018634100
0202LOTE PADRAO                   SID NACIONALON *       CSNA3       010VISTA          000000000048200000000495000000004810000000000000000000494000005967100
0202LOTE PADRAO                   TELE LEST CLPN *       TLCP4       010VISTA          000000000001800000000018000000000178000000000000000000018000069199200
0202LOTE PADRAO                   IPIRANGA PETPN *       PTIP4       010VISTA          000000000016000000000161000000001600000000000000000000160000003320000
0202LOTE PADRAO                   BRASIL T PARPN *       BRTP4       010VISTA          000000000018700000000191000000001860000000000000000000190000083824200
0202LOTE PADRAO                   BRASIL T PARON *       BRTP3       010VISTA          000000000018700000000189000000001810000000000000000000184000006161700
0202LOTE PADRAO                   ACESITA     PN *       ACES4       010VISTA          000000000000760000000007700000000071000000000000000000007300141236000
0202LOTE PADRAO                   PETROBRAS   PN         PETR4       010VISTA          000000000057000000000583000000005700000000000000000000579000000095900
0202LOTE PADRAO                   ELETROBRAS  PNB*       ELET6       010VISTA          000000000030400000000309000000002900000000000000000000293000036415900
0202LOTE PADRAO                   PETROBRAS   ON         PETR3       010VISTA          000000000063000000000642000000006300000000000000000000638000000026800
0202LOTE PADRAO                   COMGAS      PNA*       CGAS5       010VISTA          000000000132900000001360000000013000000000000000000001345000001594300
0202LOTE PADRAO                   SOUZA CRUZ  ON EJ      CRUZ3       010VISTA          000000000011000000000111000000001100000000000000000000111000000014000
0202LOTE PADRAO                   CELESC      PNB        CLSC6       010VISTA          000000000000500000000005100000000049000000000000000000005000000204000
0202LOTE PADRAO                   ELETROBRAS  ON *       ELET3       010VISTA          000000000034500000000345000000003300000000000000000000335000025934500
0202LOTE PADRAO                   BRADESCO    PN * EJ    BBDC4       010VISTA          000000000012100000000121000000001180000000000000000000119000174744000
0202LOTE PADRAO                   CESP        PN *       CESP4       010VISTA          000000000017500000000175000000001660000000000000000000168000012290900
0202LOTE PADRAO                   LIGHT       ON *       LIGH3       010VISTA          000000000143900000001440000000013150000000000000000001340000000195900
0202LOTE PADRAO                   TELESP CL PAPN *       TSPP4       010VISTA          000000000015900000000159000000001510000000000000000000157000238158000
0202LOTE PADRAO                   VALE R DOCE PNA        VALE5       010VISTA          000000000056600000000570000000005620000000000000000000565000000034200
0202LOTE PADRAO                   COPEL       PNB*       CPLE6       010VISTA          000000000016300000000171000000001625000000000000000000171000071081400
0202LOTE PADRAO                   VALE R DOCE ON         VALE3       010VISTA          000000000050500000000505000000005020000000000000000000502000000002500
0202LOTE PADRAO                   ARACRUZ     PNB        ARCZ6       010VISTA          000000000003700000000038000000000375000000000000000000038000000028400
0202LOTE PADRAO                   TELEMIG PARTPN *       TMCP4       010VISTA          000000000004700000000050000000000475000000000000000000048000131548000
0202LOTE PADRAO                   BRASIL TELECPN *       BRTO4       010VISTA          000000000013100000000131000000001260000000000000000000130000078345100
0202LOTE PADRAO                   SABESP      ON *       SBSP3       010VISTA          000000000169000000001745000000016900000000000000000001700000001559300
0202LOTE PADRAO                   BRASKEM     PNA*       BRKM5       010VISTA          000000000524000000005350000000051000000000000000000005310000000152800
0202LOTE PADRAO                   EMBRAER     PN EJ      EMBR4       010VISTA          000000000024500000000245000000002300000000000000000000235000000008400
0202LOTE PADRAO                   TELESP      PN * EJ    TLPP4       010VISTA          000000000031100000000311000000003000000000000000000000307000010047700
0202LOTE PADRAO                   EMBRAER     ON EJ      EMBR3       010VISTA          000000000018900000000190000000001860000000000000000000187000000021800
0202LOTE PADRAO                   AMBEV       PN *       AMBV4       010VISTA          000000000568900000005699000000055990000000000000000005678000003133400
0202LOTE PADRAO                   USIMINAS    PNA        USIM5       010VISTA          000000000007200000000072500000000680000000000000000000069000000058100
0202LOTE PADRAO                   ELETROPAULO PN *       ELPL4       010VISTA          000000000056900000000580000000005420000000000000000000548000010311500
0202LOTE PADRAO                   TELE NORD CLPN *       TNEP4       010VISTA          000000000003540000000037700000000340000000000000000000037000356049000
0202LOTE PADRAO                   CEMIG       PN * EJ    CMIG4       010VISTA          000000000023300000000235000000002260000000000000000000230000145391000
0202LOTE PADRAO                   TELE CL SUL PN * EJ    TCSL4       010VISTA          000000000004600000000050000000000460000000000000000000048000108978000
0202LOTE PADRAO                   CEMIG       ON * EJ    CMIG3       010VISTA          000000000024400000000245000000002300000000000000000000233000002266100
0202LOTE PADRAO                   TELE CL SUL ON * EJ    TCSL3       010VISTA          000000000003600000000040000000000360000000000000000000039400063221300
0202LOTE PADRAO                   ITAUSA      PN         ITSA4       010VISTA          000000000001990000000020000000000195000000000000000000019700000462600
0202LOTE PADRAO                   SID TUBARAO PN *       CSTB4       010VISTA          000000000024000000000248000000002400000000000000000000245000009000900
0202LOTE PADRAO                   V C P       PN *       VCPA4       010VISTA          000000000062900000000629000000005800000000000000000000614000001831600
0202LOTE PADRAO                   BRADESPAR   PN *       BRAP4       010VISTA          000000000000950000000009700000000093000000000000000000009400174316000
0202LOTE PADRAO                   NET         PN         PLIM4       010VISTA          000000000001000000000010000000000099000000000000000000010000000597500
0202LOTE PADRAO                   TELE CTR OESPN * EJ    TCOC4       010VISTA          000000000006700000000067000000000654000000000000000000067000104896000
0202LOTE PADRAO                   GERDAU      PN * EJ    GGBR4       010VISTA          000000000017500000000176000000001650000000000000000000167000035171600
0202LOTE PADRAO                   BRASIL      ON *       BBAS3       010VISTA          000000000008400000000084000000000820000000000000000000083000004979300
