00BDIN9999BOVESPA 99992001052220010522
0101IBOVESPA                      0151420147940151970000000000000000002001052200000020010522014829000000
0202LOTE PADRAO                   EMBRATEL PARPN *       EBTP4       010VISTA          000000000021300000000218000000001960000000000000000000198000068228300
0202LOTE PADRAO                   EMBRATEL PARON *       EBTP3       010VISTA          000000000019000000000194000000001780000000000000000000178000038201200
0202LOTE PADRAO                   TRAN PAULISTPN * EJ    TRPL4       010VISTA          000000000006200000000062000000000600000000000000000000060000006866000
0202LOTE PADRAO                   TELEMAR     PN * EJ    TNLP4       010VISTA          000000000039000000000396000000003810000000000000000000382000245954000
0202LOTE PADRAO                   ITAUBANCO   PN * EJ    ITAU4       010VISTA          000000000182000000001830000000018150000000000000000001815000006764600
0202LOTE PADRAO                   TELEMAR     ON * EJ    TNLP3       010VISTA          000000000032700000000336000000003210000000000000000000324000029848800
0202LOTE PADRAO                   SID NACIONALON *       CSNA3       010VISTA          000000000049000000000490000000004830000000000000000000484000002515400
0202LOTE PADRAO                   TELE LEST CLPN *       TLCP4       010VISTA          000000000001900000000019700000000180000000000000000000018000155187000
0202LOTE PADRAO                   IPIRANGA PETPN *       PTIP4       010VISTA          000000000016100000000161000000001600000000000000000000160000005680600
0202LOTE PADRAO                   BRASIL T PARPN *       BRTP4       010VISTA          000000000019500000000196000000001840000000000000000000188000040915000
0202LOTE PADRAO                   BRASIL T PARON *       BRTP3       010VISTA          000000000019100000000198000000001800000000000000000000189000011505500
0202LOTE PADRAO                   ACESITA     PN *       ACES4       010VISTA          000000000000720000000007500000000071000000000000000000007300237695000
0202LOTE PADRAO                   PETROBRAS   PN         PETR4       010VISTA          000000000058800000000600000000005830000000000000000000595000000114900
0202LOTE PADRAO                   ELETROBRAS  PNB*       ELET6       010VISTA          000000000028300000000286000000002780000000000000000000278000031070200
0202LOTE PADRAO                   PETROBRAS   ON         PETR3       010VISTA          000000000064200000000655000000006420000000000000000000647000000034200
0202LOTE PADRAO                   COMGAS      PNA*       CGAS5       010VISTA          000000000142000000001490000000014000000000000000000001400000003231400
0202LOTE PADRAO                   SOUZA CRUZ  ON EJ      CRUZ3       010VISTA          000000000011300000000116000000001130000000000000000000115000000044500
0202LOTE PADRAO                   CELESC      PNB        CLSC6       010VISTA          000000000000500000000005000000000048000000000000000000004900000216700
0202LOTE PADRAO                   ELETROBRAS  ON *       ELET3       010VISTA          000000000031600000000330000000003160000000000000000000316000018526000
0202LOTE PADRAO                   BRADESCO    PN * EJ    BBDC4       010VISTA          000000000011900000000120000000001170000000000000000000117000104233000
0202LOTE PADRAO                   CESP        PN *       CESP4       010VISTA          000000000016200000000165000000001560000000000000000000158000009126700
0202LOTE PADRAO                   LIGHT       ON *       LIGH3       010VISTA          000000000130000000001340000000012990000000000000000001315000000595200
0202LOTE PADRAO                   TELESP CL PAPN *       TSPP4       010VISTA          000000000017200000000173000000001650000000000000000000165000331354000
0202LOTE PADRAO                   VALE R DOCE PNA        VALE5       010VISTA          000000000056700000000577000000005670000000000000000000576000000033600
0202LOTE PADRAO                   COPEL       PNB*       CPLE6       010VISTA          000000000017100000000171000000001660000000000000000000167500035204500
0202LOTE PADRAO                   VALE R DOCE ON         VALE3       010VISTA          000000000050300000000510000000005030000000000000000000508000000005200
0202LOTE PADRAO                   ARACRUZ     PNB        ARCZ6       010VISTA          000000000003700000000038000000000370000000000000000000037000000034800
0202LOTE PADRAO                   TELEMIG PARTPN *       TMCP4       010VISTA          000000000005300000000054000000000520000000000000000000053000158178000
0202LOTE PADRAO                   BRASIL TELECPN *       BRTO4       010VISTA          000000000013400000000134000000001280000000000000000000129000077097400
0202LOTE PADRAO                   SABESP      ON *       SBSP3       010VISTA          000000000168000000001700000000016500000000000000000001650000001192700
0202LOTE PADRAO                   BRASKEM     PNA*       BRKM5       010VISTA          000000000543000000005450000000052000000000000000000005200000000071300
0202LOTE PADRAO                   EMBRAER     PN EJ      EMBR4       010VISTA          000000000024500000000247000000002430000000000000000000245000000004500
0202LOTE PADRAO                   TELESP      PN * EJ    TLPP4       010VISTA          000000000032000000000320000000003075000000000000000000310000025145900
0202LOTE PADRAO                   EMBRAER     ON EJ      EMBR3       010VISTA          000000000019400000000194000000001890000000000000000000191000000010300
0202LOTE PADRAO                   AMBEV       PN *       AMBV4       010VISTA          000000000577000000005990000000056510000000000000000005810000001296100
0202LOTE PADRAO                   USIMINAS    PNA        USIM5       010VISTA          000000000006600000000067900000000654000000000000000000065400000076400
0202LOTE PADRAO                   ELETROPAULO PN *       ELPL4       010VISTA          000000000054200000000599000000005420000000000000000000575000009817500
0202LOTE PADRAO                   TELE NORD CLPN *       TNEP4       010VISTA          000000000003980000000040000000000380000000000000000000038000367575000
0202LOTE PADRAO                   CEMIG       PN * EJ    CMIG4       010VISTA          000000000023100000000235000000002280000000000000000000229000066562400
0202LOTE PADRAO                   TELE CL SUL PN * EJ    TCSL4       010VISTA          000000000005000000000051000000000470000000000000000000047000085824700
0202LOTE PADRAO                   CEMIG       ON * EJ    CMIG3       010VISTA          000000000023100000000233000000002310000000000000000000231000000860000
0202LOTE PADRAO                   TELE CL SUL ON * EJ    TCSL3       010VISTA          000000000004000000000042500000000400000000000000000000040000089561600
0202LOTE PADRAO                   ITAUSA      PN         ITSA4       010VISTA          000000000001900000000020000000000190000000000000000000019700000523800
0202LOTE PADRAO                   SID TUBARAO PN *       CSTB4       010VISTA          000000000024600000000248000000002330000000000000000000242000005882600
0202LOTE PADRAO                   V C P       PN *       VCPA4       010VISTA          000000000061100000000611000000006060000000000000000000610000000905000
0202LOTE PADRAO                   BRADESPAR   PN *       BRAP4       010VISTA          000000000000920000000009200000000088000000000000000000009000212892000
0202LOTE PADRAO                   NET         PN         PLIM4       010VISTA          000000000001000000000010000000000090000000000000000000009200000799600
0202LOTE PADRAO                   TELE CTR OESPN * EJ    TCOC4       010VISTA          000000000007300000000074000000000700000000000000000000070000141493000
0202LOTE PADRAO                   GERDAU      PN * EJ    GGBR4       010VISTA          000000000016500000000165000000001600000000000000000000160000008086500
0202LOTE PADRAO                   BRASIL      ON *       BBAS3       010VISTA          000000000008300000000083000000000800000000000000000000080000001860600
