00BDIN9999BOVESPA 99992001080320010803
0101IBOVESPA                      0138400137330139020000000000000000002001080300000020010803013838000000
0202LOTE PADRAO                   EMBRATEL PARPN *       EBTP4       010VISTA          000000000013500000000137500000001300000000000000000000130000056395100
0202LOTE PADRAO                   EMBRATEL PARON *       EBTP3       010VISTA          000000000014300000000144000000001360000000000000000000140000009384000
0202LOTE PADRAO                   TRAN PAULISTPN * EJ    TRPL4       010VISTA          000000000006200000000063000000000610000000000000000000062500004240000
0202LOTE PADRAO                   TELEMAR     PN * EJ    TNLP4       010VISTA          000000000031750000000322000000003150000000000000000000319000151927000
0202LOTE PADRAO                   ITAUBANCO   PN * EJ    ITAU4       010VISTA          000000000185000000001875000000018400000000000000000001855000004880800
0202LOTE PADRAO                   TELEMAR     ON * EJ    TNLP3       010VISTA          000000000028000000000285000000002780000000000000000000282000014701200
0202LOTE PADRAO                   SID NACIONALON *       CSNA3       010VISTA          000000000040300000000405000000003990000000000000000000402000002711200
0202LOTE PADRAO                   TELE LEST CLPN *       TLCP4       010VISTA          000000000001600000000016000000000150000000000000000000015300160266000
0202LOTE PADRAO                   CRT CELULAR PNA* EJ    CRTP5       010VISTA          000000000950000000009550000000095000000000000000000009530000001449800
0202LOTE PADRAO                   IPIRANGA PETPN *       PTIP4       010VISTA          000000000015900000000160000000001540000000000000000000160000000773000
0202LOTE PADRAO                   BRASIL T PARPN *       BRTP4       010VISTA          000000000018600000000186000000001810000000000000000000181000023884100
0202LOTE PADRAO                   BRASIL T PARON *       BRTP3       010VISTA          000000000018000000000180000000001730000000000000000000175000002488400
0202LOTE PADRAO                   ACESITA     PN *       ACES4       010VISTA          000000000000580000000005800000000056000000000000000000005600109493000
0202LOTE PADRAO                   PETROBRAS   PN         PETR4       010VISTA          000000000052500000000529000000005200000000000000000000529000000067400
0202LOTE PADRAO                   ELETROBRAS  PNB*       ELET6       010VISTA          000000000031100000000318000000003100000000000000000000312000028741300
0202LOTE PADRAO                   PETROBRAS   ON         PETR3       010VISTA          000000000057200000000580000000005680000000000000000000580000000020500
0202LOTE PADRAO                   COMGAS      PNA*       CGAS5       010VISTA          000000000133000000001355000000013000000000000000000001330000001480500
0202LOTE PADRAO                   SOUZA CRUZ  ON EJ      CRUZ3       010VISTA          000000000010600000000106000000001050000000000000000000105000000010900
0202LOTE PADRAO                   ELETROBRAS  ON *       ELET3       010VISTA          000000000035600000000360000000003500000000000000000000355000017247900
0202LOTE PADRAO                   CELESC      PNB        CLSC6       010VISTA          000000000000430000000004400000000043000000000000000000004400000085800
0202LOTE PADRAO                   BRADESCO    PN * EJ    BBDC4       010VISTA          000000000011600000000117000000001160000000000000000000117500087046400
0202LOTE PADRAO                   CESP        PN *       CESP4       010VISTA          000000000012700000000130000000001250000000000000000000129000005464000
0202LOTE PADRAO                   LIGHT       ON *       LIGH3       010VISTA          000000000116900000001169000000011300000000000000000001144000000119900
0202LOTE PADRAO                   TELESP CL PAPN *       TSPP4       010VISTA          000000000014900000000150000000001460000000000000000000149000038763300
0202LOTE PADRAO                   VALE R DOCE PNA        VALE5       010VISTA          000000000052000000000525000000005200000000000000000000524000000024400
0202LOTE PADRAO                   COPEL       PNB*       CPLE6       010VISTA          000000000017800000000180000000001760000000000000000000179000026121100
0202LOTE PADRAO                   VALE R DOCE ON         VALE3       010VISTA          000000000052000000000523000000005200000000000000000000522000000002100
0202LOTE PADRAO                   ARACRUZ     PNB        ARCZ6       010VISTA          000000000004000000000040000000000380000000000000000000039800000022200
0202LOTE PADRAO                   TELEMIG PARTPN *       TMCP4       010VISTA          000000000004500000000045000000000430000000000000000000043000025332100
0202LOTE PADRAO                   BRASIL TELECPN *       BRTO4       010VISTA          000000000012600000000127500000001230000000000000000000125000023249200
0202LOTE PADRAO                   SABESP      ON *       SBSP3       010VISTA          000000000166000000001660000000016350000000000000000001640000000512900
0202LOTE PADRAO                   BRASKEM     PNA*       BRKM5       010VISTA          000000000534800000005348000000051800000000000000000005250000000334400
0202LOTE PADRAO                   EMBRAER     PN EJ      EMBR4       010VISTA          000000000022300000000226000000002200000000000000000000226000000008100
0202LOTE PADRAO                   TELESP      PN * EJ    TLPP4       010VISTA          000000000024700000000251000000002470000000000000000000251000005565700
0202LOTE PADRAO                   EMBRAER     ON EJ      EMBR3       010VISTA          000000000017600000000176000000001700000000000000000000175000000002800
0202LOTE PADRAO                   AMBEV       PN *       AMBV4       010VISTA          000000000508000000005099000000050000000000000000000005099000000632100
0202LOTE PADRAO                   USIMINAS    PNA        USIM5       010VISTA          000000000006200000000064000000000620000000000000000000063000000015100
0202LOTE PADRAO                   ELETROPAULO PN *       ELPL4       010VISTA          000000000064000000000640000000006220000000000000000000634000001239600
0202LOTE PADRAO                   TELE NORD CLPN *       TNEP4       010VISTA          000000000003200000000033000000000310000000000000000000032500059772300
0202LOTE PADRAO                   CEMIG       PN * EJ    CMIG4       010VISTA          000000000026600000000269000000002630000000000000000000263000017367600
0202LOTE PADRAO                   TELE CL SUL PN * EJ    TCSL4       010VISTA          000000000004100000000041000000000380000000000000000000039600035426300
0202LOTE PADRAO                   CEMIG       ON * EJ    CMIG3       010VISTA          000000000026900000000269000000002640000000000000000000264000000307000
0202LOTE PADRAO                   TELE CL SUL ON * EJ    TCSL3       010VISTA          000000000003400000000035000000000330000000000000000000033000013917500
0202LOTE PADRAO                   ITAUSA      PN         ITSA4       010VISTA          000000000002000000000020000000000199000000000000000000020000000103300
0202LOTE PADRAO                   SID TUBARAO PN *       CSTB4       010VISTA          000000000020000000000200000000001950000000000000000000200000012694900
0202LOTE PADRAO                   V C P       PN *       VCPA4       010VISTA          000000000062500000000627000000006200000000000000000000627000000648200
0202LOTE PADRAO                   BRADESPAR   PN *       BRAP4       010VISTA          000000000000790000000008000000000078000000000000000000007900084292500
0202LOTE PADRAO                   NET         PN         PLIM4       010VISTA          000000000001000000000010000000000100000000000000000000010000001785700
0202LOTE PADRAO                   TELE CTR OESPN * EJ    TCOC4       010VISTA          000000000006000000000060000000000580000000000000000000060000024394500
0202LOTE PADRAO                   GERDAU      PN * EJ    GGBR4       010VISTA          000000000017300000000175000000001690000000000000000000173000006256900
0202LOTE PADRAO                   BRASIL      ON *       BBAS3       010VISTA          000000000009100000000094000000000900000000000000000000094000018105100
