00BDIN9999BOVESPA 99992001110820011108
0101IBOVESPA                      0126330124730128920000000000000000002001110800000020011108012554000000
0202LOTE PADRAO                   EMBRATEL PARPN *       EBTP4       010VISTA          000000000009400000000098000000000920000000000000000000093000153739000
0202LOTE PADRAO                   EMBRATEL PARON *       EBTP3       010VISTA          000000000010300000000103000000000980000000000000000000100000018786900
0202LOTE PADRAO                   TRAN PAULISTPN * EJ    TRPL4       010VISTA          000000000005900000000059000000000560000000000000000000056000012702000
0202LOTE PADRAO                   TELEMAR     PN * EJ    TNLP4       010VISTA          000000000032900000000337000000003200000000000000000000325000400327000
0202LOTE PADRAO                   ITAUBANCO   PN * EJ    ITAU4       010VISTA          000000000183000000001860000000017600000000000000000001780000012919000
0202LOTE PADRAO                   TELEMAR     ON * EJ    TNLP3       010VISTA          000000000029000000000295000000002810000000000000000000288000007368800
0202LOTE PADRAO                   SID NACIONALON *       CSNA3       010VISTA          000000000033000000000331000000003150000000000000000000320000039911000
0202LOTE PADRAO                   TELE LEST CLPN *       TLCP4       010VISTA          000000000000820000000008600000000081000000000000000000008200337874000
0202LOTE PADRAO                   CRT CELULAR PNA* EJ    CRTP5       010VISTA          000000000437000000004550000000043700000000000000000004449000001790600
0202LOTE PADRAO                   IPIRANGA PETPN *       PTIP4       010VISTA          000000000013250000000139000000001300000000000000000000139000001249500
0202LOTE PADRAO                   BRASIL T PARPN *       BRTP4       010VISTA          000000000018600000000188000000001780000000000000000000181000127204000
0202LOTE PADRAO                   BRASIL T PARON *       BRTP3       010VISTA          000000000017600000000176000000001680000000000000000000168000006043100
0202LOTE PADRAO                   ACESITA     PN *       ACES4       010VISTA          000000000000570000000005800000000056000000000000000000005700116327000
0202LOTE PADRAO                   PETROBRAS   PN         PETR4       010VISTA          000000000050600000000527000000005050000000000000000000516000000176100
0202LOTE PADRAO                   ELETROBRAS  PNB*       ELET6       010VISTA          000000000033500000000342500000003350000000000000000000337000021212000
0202LOTE PADRAO                   PETROBRAS   ON         PETR3       010VISTA          000000000053200000000542000000005300000000000000000000532000000044000
0202LOTE PADRAO                   COMGAS      PNA*       CGAS5       010VISTA          000000000081500000000860000000008150000000000000000000847000002312500
0202LOTE PADRAO                   SOUZA CRUZ  ON EJ      CRUZ3       010VISTA          000000000011800000000119000000001150000000000000000000119000000036400
0202LOTE PADRAO                   ELETROBRAS  ON *       ELET3       010VISTA          000000000036500000000370000000003600000000000000000000360000030952500
0202LOTE PADRAO                   CELESC      PNB        CLSC6       010VISTA          000000000000480000000005000000000047000000000000000000004700000173200
0202LOTE PADRAO                   BRADESCO    PN * EJ    BBDC4       010VISTA          000000000011700000000118000000001150000000000000000000115000223961000
0202LOTE PADRAO                   CESP        PN *       CESP4       010VISTA          000000000013000000000130000000001260000000000000000000128000006034800
0202LOTE PADRAO                   LIGHT       ON *       LIGH3       010VISTA          000000000098500000000985000000009020000000000000000000925000000301600
0202LOTE PADRAO                   TELESP CL PAPN *       TSPP4       010VISTA          000000000006600000000068000000000640000000000000000000065000542584000
0202LOTE PADRAO                   VALE R DOCE PNA        VALE5       010VISTA          000000000055500000000555000000005420000000000000000000545000000026900
0202LOTE PADRAO                   COPEL       PNB*       CPLE6       010VISTA          000000000014800000000155000000001480000000000000000000153000038589900
0202LOTE PADRAO                   VALE R DOCE ON         VALE3       010VISTA          000000000050600000000510000000005010000000000000000000510000000006400
0202LOTE PADRAO                   ARACRUZ     PNB        ARCZ6       010VISTA          000000000004500000000045000000000440000000000000000000045400000033000
0202LOTE PADRAO                   TELEMIG PARTPN *       TMCP4       010VISTA          000000000004000000000042000000000390000000000000000000040000107176000
0202LOTE PADRAO                   BRASIL TELECPN *       BRTO4       010VISTA          000000000012800000000129000000001200000000000000000000123000179226000
0202LOTE PADRAO                   SABESP      ON *       SBSP3       010VISTA          000000000130000000001310000000012100000000000000000001210000001306600
0202LOTE PADRAO                   BRASKEM     PNA*       BRKM5       010VISTA          000000000415000000004200000000040800000000000000000004080000000105700
0202LOTE PADRAO                   EMBRAER     PN EJ      EMBR4       010VISTA          000000000011500000000115000000001090000000000000000000110000000069500
0202LOTE PADRAO                   TELESP      PN * EJ    TLPP4       010VISTA          000000000029900000000304000000002930000000000000000000300000006243800
0202LOTE PADRAO                   EMBRAER     ON EJ      EMBR3       010VISTA          000000000009800000000098000000000920000000000000000000093000000024000
0202LOTE PADRAO                   AMBEV       PN *       AMBV4       010VISTA          000000000509000000005090000000046200000000000000000004700000001646200
0202LOTE PADRAO                   USIMINAS    PNA        USIM5       010VISTA          000000000004790000000049000000000475000000000000000000047000000090600
0202LOTE PADRAO                   ELETROPAULO PN *       ELPL4       010VISTA          000000000068000000000690000000006650000000000000000000667000003303700
0202LOTE PADRAO                   TELE NORD CLPN *       TNEP4       010VISTA          000000000003300000000034000000000320000000000000000000032000158391000
0202LOTE PADRAO                   CEMIG       PN * EJ    CMIG4       010VISTA          000000000029000000000293000000002830000000000000000000285000022426700
0202LOTE PADRAO                   TELE CL SUL PN * EJ    TCSL4       010VISTA          000000000003600000000037000000000330000000000000000000034000149082000
0202LOTE PADRAO                   CEMIG       ON * EJ    CMIG3       010VISTA          000000000027800000000278000000002680000000000000000000274000000792600
0202LOTE PADRAO                   TELE CL SUL ON * EJ    TCSL3       010VISTA          000000000002800000000030000000000280000000000000000000028000054648200
0202LOTE PADRAO                   ITAUSA      PN         ITSA4       010VISTA          000000000001960000000020000000000195000000000000000000019500000385600
0202LOTE PADRAO                   SID TUBARAO PN *       CSTB4       010VISTA          000000000017600000000176000000001730000000000000000000176000003490700
0202LOTE PADRAO                   V C P       PN *       VCPA4       010VISTA          000000000078000000000780000000007600000000000000000000766000000967600
0202LOTE PADRAO                   BRADESPAR   PN *       BRAP4       010VISTA          000000000000740000000007500000000071000000000000000000007100158801000
0202LOTE PADRAO                   NET         PN         PLIM4       010VISTA          000000000000760000000007800000000074000000000000000000007600000546500
0202LOTE PADRAO                   TELE CTR OESPN * EJ    TCOC4       010VISTA          000000000005400000000055000000000520000000000000000000053000115840000
0202LOTE PADRAO                   GERDAU      PN * EJ    GGBR4       010VISTA          000000000019100000000194000000001900000000000000000000193000021582200
0202LOTE PADRAO                   BRASIL      ON *       BBAS3       010VISTA          000000000008300000000085000000000800000000000000000000083000002353000
