00BDIN9999BOVESPA 99992001051520010515
0101IBOVESPA                      0141410141100143140000000000000000002001051500000020010515014226000000
0202LOTE PADRAO                   EMBRATEL PARPN *       EBTP4       010VISTA          000000000018600000000191000000001860000000000000000000188000052870400
0202LOTE PADRAO                   EMBRATEL PARON *       EBTP3       010VISTA          000000000017500000000181000000001710000000000000000000180000056198600
0202LOTE PADRAO                   TRAN PAULISTPN * EJ    TRPL4       010VISTA          000000000005750000000057000000000540000000000000000000057000030517000
0202LOTE PADRAO                   TELEMAR     PN * EJ    TNLP4       010VISTA          000000000035700000000372000000003570000000000000000000368000165901000
0202LOTE PADRAO                   ITAUBANCO   PN * EJ    ITAU4       010VISTA          000000000172000000001770000000017090000000000000000001735000005449400
0202LOTE PADRAO                   TELEMAR     ON * EJ    TNLP3       010VISTA          000000000030800000000322000000003080000000000000000000321000034609700
0202LOTE PADRAO                   SID NACIONALON *       CSNA3       010VISTA          000000000046100000000470000000004610000000000000000000469000004625700
0202LOTE PADRAO                   TELE LEST CLPN *       TLCP4       010VISTA          000000000001700000000018000000000170000000000000000000018100232758000
0202LOTE PADRAO                   IPIRANGA PETPN *       PTIP4       010VISTA          000000000016000000000162500000001600000000000000000000160000001917300
0202LOTE PADRAO                   BRASIL T PARPN *       BRTP4       010VISTA          000000000018000000000183000000001750000000000000000000183000121469000
0202LOTE PADRAO                   BRASIL T PARON *       BRTP3       010VISTA          000000000017800000000180000000001750000000000000000000178000037276600
0202LOTE PADRAO                   ACESITA     PN *       ACES4       010VISTA          000000000000710000000007300000000068000000000000000000006800240129000
0202LOTE PADRAO                   PETROBRAS   PN         PETR4       010VISTA          000000000055900000000565000000005550000000000000000000556000000077100
0202LOTE PADRAO                   ELETROBRAS  PNB*       ELET6       010VISTA          000000000028000000000286000000002780000000000000000000281000031717400
0202LOTE PADRAO                   PETROBRAS   ON         PETR3       010VISTA          000000000061200000000617000000006000000000000000000000600000000016100
0202LOTE PADRAO                   COMGAS      PNA*       CGAS5       010VISTA          000000000130000000001364000000012400000000000000000001255000000596100
0202LOTE PADRAO                   SOUZA CRUZ  ON EJ      CRUZ3       010VISTA          000000000010500000000110000000001050000000000000000000109000000021300
0202LOTE PADRAO                   CELESC      PNB        CLSC6       010VISTA          000000000000480000000004800000000047000000000000000000004800000163800
0202LOTE PADRAO                   ELETROBRAS  ON *       ELET3       010VISTA          000000000031500000000330000000003150000000000000000000322000028597900
0202LOTE PADRAO                   BRADESCO    PN * EJ    BBDC4       010VISTA          000000000011100000000114000000001110000000000000000000112000087841300
0202LOTE PADRAO                   CESP        PN *       CESP4       010VISTA          000000000016300000000166000000001520000000000000000000155000071127500
0202LOTE PADRAO                   LIGHT       ON *       LIGH3       010VISTA          000000000140000000001439000000013100000000000000000001380000000342800
0202LOTE PADRAO                   TELESP CL PAPN *       TSPP4       010VISTA          000000000013500000000140000000001350000000000000000000140000128129000
0202LOTE PADRAO                   VALE R DOCE PNA        VALE5       010VISTA          000000000055000000000567000000005500000000000000000000565000000035300
0202LOTE PADRAO                   COPEL       PNB*       CPLE6       010VISTA          000000000015900000000165000000001560000000000000000000156000027168800
0202LOTE PADRAO                   VALE R DOCE ON         VALE3       010VISTA          000000000050500000000510000000005000000000000000000000510000000002700
0202LOTE PADRAO                   ARACRUZ     PNB        ARCZ6       010VISTA          000000000003790000000038000000000379000000000000000000038000000056600
0202LOTE PADRAO                   TELEMIG PARTPN *       TMCP4       010VISTA          000000000004250000000045000000000420000000000000000000044000115370000
0202LOTE PADRAO                   BRASIL TELECPN *       BRTO4       010VISTA          000000000012500000000127500000001230000000000000000000127500071252800
0202LOTE PADRAO                   SABESP      ON *       SBSP3       010VISTA          000000000155000000001550000000015030000000000000000001510000001148000
0202LOTE PADRAO                   BRASKEM     PNA*       BRKM5       010VISTA          000000000549900000005499000000052500000000000000000005320000000066700
0202LOTE PADRAO                   EMBRAER     PN EJ      EMBR4       010VISTA          000000000024800000000251000000002470000000000000000000250000000028400
0202LOTE PADRAO                   TELESP      PN * EJ    TLPP4       010VISTA          000000000028000000000293000000002800000000000000000000292000006781400
0202LOTE PADRAO                   EMBRAER     ON EJ      EMBR3       010VISTA          000000000018800000000192000000001860000000000000000000191000000032800
0202LOTE PADRAO                   AMBEV       PN *       AMBV4       010VISTA          000000000570000000005710000000055000000000000000000005500000003603900
0202LOTE PADRAO                   USIMINAS    PNA        USIM5       010VISTA          000000000006500000000067500000000650000000000000000000065000000059800
0202LOTE PADRAO                   ELETROPAULO PN *       ELPL4       010VISTA          000000000054000000000549000000005200000000000000000000530000006582900
0202LOTE PADRAO                   TELE NORD CLPN *       TNEP4       010VISTA          000000000002900000000033000000000290000000000000000000033000399198000
0202LOTE PADRAO                   CEMIG       PN * EJ    CMIG4       010VISTA          000000000023100000000233000000002250000000000000000000227000052459700
0202LOTE PADRAO                   TELE CL SUL PN * EJ    TCSL4       010VISTA          000000000004100000000045000000000410000000000000000000045000173755000
0202LOTE PADRAO                   CEMIG       ON * EJ    CMIG3       010VISTA          000000000023300000000235000000002310000000000000000000231000001501500
0202LOTE PADRAO                   TELE CL SUL ON * EJ    TCSL3       010VISTA          000000000003500000000038100000000350000000000000000000036000067317400
0202LOTE PADRAO                   ITAUSA      PN         ITSA4       010VISTA          000000000001800000000019000000000180000000000000000000018000000384400
0202LOTE PADRAO                   SID TUBARAO PN *       CSTB4       010VISTA          000000000023000000000236000000002280000000000000000000234000003760400
0202LOTE PADRAO                   V C P       PN *       VCPA4       010VISTA          000000000063500000000635000000006150000000000000000000615000008336000
0202LOTE PADRAO                   BRADESPAR   PN *       BRAP4       010VISTA          000000000000910000000009300000000089000000000000000000009000146362000
0202LOTE PADRAO                   NET         PN         PLIM4       010VISTA          000000000001000000000010000000000096000000000000000000009600001070800
0202LOTE PADRAO                   TELE CTR OESPN * EJ    TCOC4       010VISTA          000000000005700000000062000000000570000000000000000000060000077534800
0202LOTE PADRAO                   GERDAU      PN * EJ    GGBR4       010VISTA          000000000016200000000162000000001560000000000000000000156000024684400
0202LOTE PADRAO                   BRASIL      ON *       BBAS3       010VISTA          000000000008400000000084000000000810000000000000000000082000002767000
