00BDIN9999BOVESPA 99992001012620010126
0101IBOVESPA                      0177760175910179330000000000000000002001012600000020010126017889000000
0202LOTE PADRAO                   EMBRATEL PARPN *       EBTP4       010VISTA          000000000031800000000325000000003160000000000000000000320000073095600
0202LOTE PADRAO                   EMBRATEL PARON *       EBTP3       010VISTA          000000000026000000000270000000002580000000000000000000268000040829400
0202LOTE PADRAO                   TRAN PAULISTPN * EJ    TRPL4       010VISTA          000000000008100000000085000000000800000000000000000000084000010424800
0202LOTE PADRAO                   TELEMAR     PN * EJ    TNLP4       010VISTA          000000000049000000000491000000004720000000000000000000486000178018000
0202LOTE PADRAO                   ITAUBANCO   PN * EJ    ITAU4       010VISTA          000000000187000000001940000000018690000000000000000001920000008701800
0202LOTE PADRAO                   TELEMAR     ON * EJ    TNLP3       010VISTA          000000000039500000000401000000003860000000000000000000396000019554400
0202LOTE PADRAO                   SID NACIONALON *       CSNA3       010VISTA          000000000070200000000727000000006970000000000000000000722000024495500
0202LOTE PADRAO                   TELE LEST CLPN *       TLCP4       010VISTA          000000000001600000000017900000000160000000000000000000017400510925000
0202LOTE PADRAO                   CRT CELULAR PNA* EJ    CRTP5       010VISTA          000000000820000000008280000000081000000000000000000008100000000713600
0202LOTE PADRAO                   IPIRANGA PETPN *       PTIP4       010VISTA          000000000017300000000183000000001730000000000000000000180000001733700
0202LOTE PADRAO                   BRASIL T PARPN *       BRTP4       010VISTA          000000000025100000000258000000002500000000000000000000258000120442000
0202LOTE PADRAO                   BRASIL T PARON *       BRTP3       010VISTA          000000000020500000000219000000002050000000000000000000219000011622600
0202LOTE PADRAO                   ACESITA     PN *       ACES4       010VISTA          000000000001200000000012500000000110000000000000000000012400135826000
0202LOTE PADRAO                   PETROBRAS   PN         PETR4       010VISTA          000000000055000000000550000000005370000000000000000000543000000081600
0202LOTE PADRAO                   ELETROBRAS  PNB*       ELET6       010VISTA          000000000040000000000420000000003970000000000000000000420000034456400
0202LOTE PADRAO                   PETROBRAS   ON         PETR3       010VISTA          000000000054500000000555000000005420000000000000000000547000000048400
0202LOTE PADRAO                   COMGAS      PNA*       CGAS5       010VISTA          000000000151500000001530000000014790000000000000000001494000002017400
0202LOTE PADRAO                   SOUZA CRUZ  ON EJ      CRUZ3       010VISTA          000000000010400000000111000000001040000000000000000000109000000015600
0202LOTE PADRAO                   ELETROBRAS  ON *       ELET3       010VISTA          000000000041000000000450000000004100000000000000000000430000021835100
0202LOTE PADRAO                   CELESC      PNB        CLSC6       010VISTA          000000000000700000000007000000000067000000000000000000006800000597400
0202LOTE PADRAO                   BRADESCO    PN * EJ    BBDC4       010VISTA          000000000013400000000135000000001330000000000000000000134000002292900
0202LOTE PADRAO                   CESP        PN *       CESP4       010VISTA          000000000022900000000241000000002290000000000000000000241000015539100
0202LOTE PADRAO                   LIGHT       ON *       LIGH3       010VISTA          000000000258000000002650000000025800000000000000000002600000000407200
0202LOTE PADRAO                   TELESP CL PAPN *       TSPP4       010VISTA          000000000022600000000230000000002250000000000000000000226000255531000
0202LOTE PADRAO                   VALE R DOCE PNA        VALE5       010VISTA          000000000050200000000518000000005020000000000000000000518000000059600
0202LOTE PADRAO                   COPEL       PNB*       CPLE6       010VISTA          000000000019700000000198000000001910000000000000000000198000032033900
0202LOTE PADRAO                   VALE R DOCE ON         VALE3       010VISTA          000000000049000000000491000000004900000000000000000000490000000000300
0202LOTE PADRAO                   ARACRUZ     PNB        ARCZ6       010VISTA          000000000002800000000029000000000280000000000000000000029000000116000
0202LOTE PADRAO                   TELEMIG PARTPN *       TMCP4       010VISTA          000000000006900000000071000000000670000000000000000000070000130494000
0202LOTE PADRAO                   BRASIL TELECPN *       BRTO4       010VISTA          000000000018000000000190000000001800000000000000000000190000045010700
0202LOTE PADRAO                   SABESP      ON *       SBSP3       010VISTA          000000000219500000002269000000021950000000000000000002250000001476400
0202LOTE PADRAO                   BRASKEM     PNA*       BRKM5       010VISTA          000000000720000000007300000000069200000000000000000007000000000210100
0202LOTE PADRAO                   EMBRAER     PN EJ      EMBR4       010VISTA          000000000020600000000206000000001930000000000000000000197000000024200
0202LOTE PADRAO                   TELESP      PN * EJ    TLPP4       010VISTA          000000000030400000000322000000002975000000000000000000320000020239100
0202LOTE PADRAO                   EMBRAER     ON EJ      EMBR3       010VISTA          000000000016000000000160000000001500000000000000000000156000000032600
0202LOTE PADRAO                   AMBEV       PN *       AMBV4       010VISTA          000000000504000000005100000000049900000000000000000005090000002507400
0202LOTE PADRAO                   USIMINAS    PNA        USIM5       010VISTA          000000000011400000000115000000001130000000000000000000115000000076600
0202LOTE PADRAO                   ELETROPAULO PN *       ELPL4       010VISTA          000000000116000000001160000000011450000000000000000001145000003702500
0202LOTE PADRAO                   TELE NORD CLPN *       TNEP4       010VISTA          000000000004400000000044000000000420000000000000000000043000101771000
0202LOTE PADRAO                   CEMIG       PN * EJ    CMIG4       010VISTA          000000000035000000000358000000003450000000000000000000358000053791700
0202LOTE PADRAO                   TELE CL SUL PN * EJ    TCSL4       010VISTA          000000000005700000000058000000000550000000000000000000058000103187000
0202LOTE PADRAO                   CEMIG       ON * EJ    CMIG3       010VISTA          000000000028500000000316000000002850000000000000000000316000006410800
0202LOTE PADRAO                   TELE CL SUL ON * EJ    TCSL3       010VISTA          000000000004400000000046000000000440000000000000000000044000020528500
0202LOTE PADRAO                   ITAUSA      PN         ITSA4       010VISTA          000000000002000000000020000000000200000000000000000000020000000298000
0202LOTE PADRAO                   SID TUBARAO PN *       CSTB4       010VISTA          000000000024500000000250000000002450000000000000000000245000006022900
0202LOTE PADRAO                   V C P       PN *       VCPA4       010VISTA          000000000063000000000649000000006300000000000000000000649000009248600
0202LOTE PADRAO                   BRADESPAR   PN *       BRAP4       010VISTA          000000000001200000000012600000000120000000000000000000012600195461000
0202LOTE PADRAO                   NET         PN         PLIM4       010VISTA          000000000002300000000023000000000220000000000000000000022000000855900
0202LOTE PADRAO                   TELE CTR OESPN * EJ    TCOC4       010VISTA          000000000008200000000087500000000810000000000000000000085000099401500
0202LOTE PADRAO                   GERDAU      PN * EJ    GGBR4       010VISTA          000000000022800000000233000000002220000000000000000000233000039012800
0202LOTE PADRAO                   BRASIL      ON *       BBAS3       010VISTA          000000000008000000000084000000000800000000000000000000081000005821100
