00BDIN9999BOVESPA 99992001101720011017
0101IBOVESPA                      0112870111660114850000000000000000002001101700000020011017011271000000
0202LOTE PADRAO                   EMBRATEL PARPN *       EBTP4       010VISTA          000000000008000000000081000000000760000000000000000000079000175663000
0202LOTE PADRAO                   EMBRATEL PARON *       EBTP3       010VISTA          000000000008300000000086000000000800000000000000000000083000048920400
0202LOTE PADRAO                   TRAN PAULISTPN * EJ    TRPL4       010VISTA          000000000004900000000051000000000490000000000000000000050000034809000
0202LOTE PADRAO                   TELEMAR     PN * EJ    TNLP4       010VISTA          000000000027100000000274000000002650000000000000000000266000377819000
0202LOTE PADRAO                   ITAUBANCO   PN * EJ    ITAU4       010VISTA          000000000169400000001720000000016900000000000000000001715000008543300
0202LOTE PADRAO                   TELEMAR     ON * EJ    TNLP3       010VISTA          000000000024500000000245000000002320000000000000000000240000028714800
0202LOTE PADRAO                   SID NACIONALON *       CSNA3       010VISTA          000000000029000000000293000000002750000000000000000000276000037219400
0202LOTE PADRAO                   TELE LEST CLPN *       TLCP4       010VISTA          000000000000740000000007900000000071000000000000000000007400327290000
0202LOTE PADRAO                   CRT CELULAR PNA* EJ    CRTP5       010VISTA          000000000374900000003750000000036100000000000000000003625000001147000
0202LOTE PADRAO                   IPIRANGA PETPN *       PTIP4       010VISTA          000000000011500000000117500000001030000000000000000000109000003451400
0202LOTE PADRAO                   BRASIL T PARPN *       BRTP4       010VISTA          000000000015300000000155000000001500000000000000000000154000109876000
0202LOTE PADRAO                   BRASIL T PARON *       BRTP3       010VISTA          000000000014800000000151000000001450000000000000000000150000019968800
0202LOTE PADRAO                   ACESITA     PN *       ACES4       010VISTA          000000000000470000000004900000000045000000000000000000004700395471000
0202LOTE PADRAO                   PETROBRAS   PN         PETR4       010VISTA          000000000054500000000550000000005375000000000000000000537500000138200
0202LOTE PADRAO                   ELETROBRAS  PNB*       ELET6       010VISTA          000000000032000000000326000000003130000000000000000000320000062803900
0202LOTE PADRAO                   PETROBRAS   ON         PETR3       010VISTA          000000000056000000000567000000005510000000000000000000559000000034400
0202LOTE PADRAO                   COMGAS      PNA*       CGAS5       010VISTA          000000000082700000000827000000008000000000000000000000820000003995300
0202LOTE PADRAO                   SOUZA CRUZ  ON EJ      CRUZ3       010VISTA          000000000012400000000128000000001240000000000000000000127000000031000
0202LOTE PADRAO                   ELETROBRAS  ON *       ELET3       010VISTA          000000000034200000000352000000003400000000000000000000345000021872000
0202LOTE PADRAO                   CELESC      PNB        CLSC6       010VISTA          000000000000380000000003900000000035000000000000000000003500000296100
0202LOTE PADRAO                   BRADESCO    PN * EJ    BBDC4       010VISTA          000000000010500000000107500000001030000000000000000000105000177793000
0202LOTE PADRAO                   CESP        PN *       CESP4       010VISTA          000000000009500000000101000000000950000000000000000000100000021634900
0202LOTE PADRAO                   LIGHT       ON *       LIGH3       010VISTA          000000000080200000000834000000007600000000000000000000780000001019700
0202LOTE PADRAO                   TELESP CL PAPN *       TSPP4       010VISTA          000000000005900000000060000000000571000000000000000000057000305051000
0202LOTE PADRAO                   VALE R DOCE PNA        VALE5       010VISTA          000000000054900000000563000000005490000000000000000000558000000035500
0202LOTE PADRAO                   COPEL       PNB*       CPLE6       010VISTA          000000000015800000000160000000001460000000000000000000149000038898400
0202LOTE PADRAO                   VALE R DOCE ON         VALE3       010VISTA          000000000052500000000535000000005250000000000000000000535000000002900
0202LOTE PADRAO                   ARACRUZ     PNB        ARCZ6       010VISTA          000000000004500000000045000000000440000000000000000000045000000070800
0202LOTE PADRAO                   TELEMIG PARTPN *       TMCP4       010VISTA          000000000003200000000033000000000310000000000000000000032000106692000
0202LOTE PADRAO                   BRASIL TELECPN *       BRTO4       010VISTA          000000000010700000000109000000001040000000000000000000105000408908000
0202LOTE PADRAO                   SABESP      ON *       SBSP3       010VISTA          000000000118000000001200000000011000000000000000000001170000002253000
0202LOTE PADRAO                   BRASKEM     PNA*       BRKM5       010VISTA          000000000370000000003710000000036000000000000000000003650000000286700
0202LOTE PADRAO                   EMBRAER     PN EJ      EMBR4       010VISTA          000000000010100000000103000000000990000000000000000000100000000069700
0202LOTE PADRAO                   TELESP      PN * EJ    TLPP4       010VISTA          000000000024600000000251000000002440000000000000000000247000013062200
0202LOTE PADRAO                   EMBRAER     ON EJ      EMBR3       010VISTA          000000000008500000000087000000000840000000000000000000086000000047600
0202LOTE PADRAO                   AMBEV       PN *       AMBV4       010VISTA          000000000438000000004420000000043000000000000000000004348000002076500
0202LOTE PADRAO                   USIMINAS    PNA        USIM5       010VISTA          000000000004100000000042000000000400000000000000000000040000000136300
0202LOTE PADRAO                   ELETROPAULO PN *       ELPL4       010VISTA          000000000062000000000630000000006100000000000000000000618000008376000
0202LOTE PADRAO                   TELE NORD CLPN *       TNEP4       010VISTA          000000000002400000000024000000000230000000000000000000023000157519000
0202LOTE PADRAO                   CEMIG       PN * EJ    CMIG4       010VISTA          000000000026500000000268000000002610000000000000000000263000033554300
0202LOTE PADRAO                   TELE CL SUL PN * EJ    TCSL4       010VISTA          000000000002750000000028000000000275000000000000000000028100168734000
0202LOTE PADRAO                   CEMIG       ON * EJ    CMIG3       010VISTA          000000000025200000000261000000002460000000000000000000255000002418000
0202LOTE PADRAO                   TELE CL SUL ON * EJ    TCSL3       010VISTA          000000000002400000000025000000000230000000000000000000023000029157400
0202LOTE PADRAO                   ITAUSA      PN         ITSA4       010VISTA          000000000001800000000018000000000181000000000000000000018000000255200
0202LOTE PADRAO                   SID TUBARAO PN *       CSTB4       010VISTA          000000000016500000000165000000001500000000000000000000160000013130600
0202LOTE PADRAO                   V C P       PN *       VCPA4       010VISTA          000000000074500000000784000000007450000000000000000000784000003489200
0202LOTE PADRAO                   BRADESPAR   PN *       BRAP4       010VISTA          000000000000600000000006200000000058000000000000000000005800431081000
0202LOTE PADRAO                   NET         PN         PLIM4       010VISTA          000000000000670000000006800000000064000000000000000000006500002289700
0202LOTE PADRAO                   TELE CTR OESPN * EJ    TCOC4       010VISTA          000000000005100000000052000000000496000000000000000000049000121620000
0202LOTE PADRAO                   GERDAU      PN * EJ    GGBR4       010VISTA          000000000016300000000170000000001590000000000000000000166000027090700
0202LOTE PADRAO                   BRASIL      ON *       BBAS3       010VISTA          000000000007900000000079000000000730000000000000000000074000008342000
