00BDIN9999BOVESPA 99992001011220010112
0101IBOVESPA                      0170340168210172120000000000000000002001011200000020010112016850000000
0202LOTE PADRAO                   EMBRATEL PARPN *       EBTP4       010VISTA          000000000033800000000342000000003270000000000000000000329000057087800
0202LOTE PADRAO                   EMBRATEL PARON *       EBTP3       010VISTA          000000000027500000000278000000002650000000000000000000267000031023000
0202LOTE PADRAO                   TRAN PAULISTPN * EJ    TRPL4       010VISTA          000000000008300000000084000000000810000000000000000000083000037455100
0202LOTE PADRAO                   TELEMAR     PN * EJ    TNLP4       010VISTA          000000000048300000000492000000004650000000000000000000467000232250000
0202LOTE PADRAO                   ITAUBANCO   PN * EJ    ITAU4       010VISTA          000000000189000000001890000000018400000000000000000001860000004126500
0202LOTE PADRAO                   TELEMAR     ON * EJ    TNLP3       010VISTA          000000000037200000000377000000003680000000000000000000371000015026400
0202LOTE PADRAO                   SID NACIONALON *       CSNA3       010VISTA          000000000064200000000646000000006300000000000000000000640000006632400
0202LOTE PADRAO                   TELE LEST CLPN *       TLCP4       010VISTA          000000000001400000000014700000000140000000000000000000014000038829600
0202LOTE PADRAO                   CRT CELULAR PNA* EJ    CRTP5       010VISTA          000000000740000000007700000000072000000000000000000007650000000788700
0202LOTE PADRAO                   IPIRANGA PETPN *       PTIP4       010VISTA          000000000016800000000170000000001660000000000000000000167500007198700
0202LOTE PADRAO                   BRASIL T PARPN *       BRTP4       010VISTA          000000000024100000000246000000002320000000000000000000233000144787000
0202LOTE PADRAO                   BRASIL T PARON *       BRTP3       010VISTA          000000000020300000000206000000001930000000000000000000200000041308400
0202LOTE PADRAO                   ACESITA     PN *       ACES4       010VISTA          000000000001100000000011000000000110000000000000000000011000202956000
0202LOTE PADRAO                   PETROBRAS   PN         PETR4       010VISTA          000000000051000000000517000000005080000000000000000000512000000121300
0202LOTE PADRAO                   ELETROBRAS  PNB*       ELET6       010VISTA          000000000036500000000371000000003600000000000000000000365000032225400
0202LOTE PADRAO                   PETROBRAS   ON         PETR3       010VISTA          000000000053000000000545000000005300000000000000000000540000000052100
0202LOTE PADRAO                   COMGAS      PNA*       CGAS5       010VISTA          000000000136000000001435000000013600000000000000000001419000016612200
0202LOTE PADRAO                   SOUZA CRUZ  ON EJ      CRUZ3       010VISTA          000000000009300000000115000000000930000000000000000000110000000189900
0202LOTE PADRAO                   ELETROBRAS  ON *       ELET3       010VISTA          000000000038500000000392000000003800000000000000000000387000034415400
0202LOTE PADRAO                   CELESC      PNB        CLSC6       010VISTA          000000000000670000000006900000000066000000000000000000006600000455800
0202LOTE PADRAO                   BRADESCO    PN * EJ    BBDC4       010VISTA          000000000013600000000137000000001310000000000000000000132500002054300
0202LOTE PADRAO                   CESP        PN *       CESP4       010VISTA          000000000021600000000218000000002110000000000000000000213000005318200
0202LOTE PADRAO                   LIGHT       ON *       LIGH3       010VISTA          000000000242500000002480000000024200000000000000000002425000000686400
0202LOTE PADRAO                   TELESP CL PAPN *       TSPP4       010VISTA          000000000022250000000226000000002110000000000000000000218000092798300
0202LOTE PADRAO                   VALE R DOCE PNA        VALE5       010VISTA          000000000047700000000478000000004680000000000000000000475000000030800
0202LOTE PADRAO                   COPEL       PNB*       CPLE6       010VISTA          000000000017900000000181000000001760000000000000000000176000040255100
0202LOTE PADRAO                   VALE R DOCE ON         VALE3       010VISTA          000000000044500000000445000000004300000000000000000000430000000000200
0202LOTE PADRAO                   ARACRUZ     PNB        ARCZ6       010VISTA          000000000003200000000032000000000290000000000000000000029000000073200
0202LOTE PADRAO                   TELEMIG PARTPN *       TMCP4       010VISTA          000000000006100000000062000000000580000000000000000000058000067396000
0202LOTE PADRAO                   BRASIL TELECPN *       BRTO4       010VISTA          000000000017800000000185000000001750000000000000000000176000106628000
0202LOTE PADRAO                   SABESP      ON *       SBSP3       010VISTA          000000000193500000001950000000019200000000000000000001935000001445100
0202LOTE PADRAO                   BRASKEM     PNA*       BRKM5       010VISTA          000000000620000000006300000000062000000000000000000006200000000489700
0202LOTE PADRAO                   EMBRAER     PN EJ      EMBR4       010VISTA          000000000019000000000193000000001700000000000000000000178000000080000
0202LOTE PADRAO                   TELESP      PN * EJ    TLPP4       010VISTA          000000000027100000000278000000002710000000000000000000278000006620100
0202LOTE PADRAO                   EMBRAER     ON EJ      EMBR3       010VISTA          000000000014600000000150000000001390000000000000000000145000000132400
0202LOTE PADRAO                   AMBEV       PN *       AMBV4       010VISTA          000000000470100000004701000000046050000000000000000004680000001017200
0202LOTE PADRAO                   USIMINAS    PNA        USIM5       010VISTA          000000000010100000000103000000001010000000000000000000101000000011400
0202LOTE PADRAO                   ELETROPAULO PN *       ELPL4       010VISTA          000000000110000000001110000000010450000000000000000001069000003303400
0202LOTE PADRAO                   TELE NORD CLPN *       TNEP4       010VISTA          000000000004500000000045000000000430000000000000000000043000052743200
0202LOTE PADRAO                   CEMIG       PN * EJ    CMIG4       010VISTA          000000000032700000000328000000003180000000000000000000321000027098400
0202LOTE PADRAO                   TELE CL SUL PN * EJ    TCSL4       010VISTA          000000000005500000000055000000000525000000000000000000052500046271900
0202LOTE PADRAO                   CEMIG       ON * EJ    CMIG3       010VISTA          000000000027200000000275000000002650000000000000000000270000004658100
0202LOTE PADRAO                   TELE CL SUL ON * EJ    TCSL3       010VISTA          000000000004800000000049000000000460000000000000000000046000018421300
0202LOTE PADRAO                   ITAUSA      PN         ITSA4       010VISTA          000000000002000000000020000000000195000000000000000000019700000208800
0202LOTE PADRAO                   SID TUBARAO PN *       CSTB4       010VISTA          000000000022500000000226000000002240000000000000000000226000004115000
0202LOTE PADRAO                   V C P       PN *       VCPA4       010VISTA          000000000061000000000610000000005850000000000000000000590000004610500
0202LOTE PADRAO                   BRADESPAR   PN *       BRAP4       010VISTA          000000000001100000000012000000000110000000000000000000011000439654000
0202LOTE PADRAO                   NET         PN         PLIM4       010VISTA          000000000002300000000023000000000227000000000000000000022700000612800
0202LOTE PADRAO                   TELE CTR OESPN * EJ    TCOC4       010VISTA          000000000007750000000079000000000770000000000000000000077100037696600
0202LOTE PADRAO                   GERDAU      PN * EJ    GGBR4       010VISTA          000000000019900000000200000000001880000000000000000000191000009093100
0202LOTE PADRAO                   BRASIL      ON *       BBAS3       010VISTA          000000000007800000000078000000000750000000000000000000077000004664500
