00BDIN9999BOVESPA 99992001022820010228
0101IBOVESPA                      0161580158910162740000000000000000002001022800000020010228015891000000
0202LOTE PADRAO                   EMBRATEL PARPN *       EBTP4       010VISTA          000000000024600000000254000000002410000000000000000000246000048838000
0202LOTE PADRAO                   EMBRATEL PARON *       EBTP3       010VISTA          000000000020000000000206000000001940000000000000000000198000016310600
0202LOTE PADRAO                   TRAN PAULISTPN * EJ    TRPL4       010VISTA          000000000009100000000091000000000880000000000000000000090000009710000
0202LOTE PADRAO                   TELEMAR     PN * EJ    TNLP4       010VISTA          000000000044300000000448000000004330000000000000000000442000060419100
0202LOTE PADRAO                   ITAUBANCO   PN * EJ    ITAU4       010VISTA          000000000177500000001775000000017000000000000000000001705000006412400
0202LOTE PADRAO                   TELEMAR     ON * EJ    TNLP3       010VISTA          000000000032300000000333000000003210000000000000000000321000006906900
0202LOTE PADRAO                   SID NACIONALON *       CSNA3       010VISTA          000000000072250000000722000000006850000000000000000000695000042413800
0202LOTE PADRAO                   TELE LEST CLPN *       TLCP4       010VISTA          000000000001700000000017300000000160000000000000000000016900472206000
0202LOTE PADRAO                   IPIRANGA PETPN *       PTIP4       010VISTA          000000000014300000000145000000001430000000000000000000143000002415600
0202LOTE PADRAO                   BRASIL T PARPN *       BRTP4       010VISTA          000000000021000000000211000000002060000000000000000000210000049399500
0202LOTE PADRAO                   BRASIL T PARON *       BRTP3       010VISTA          000000000017600000000176000000001700000000000000000000170000012081400
0202LOTE PADRAO                   ACESITA     PN *       ACES4       010VISTA          000000000001000000000010000000000100000000000000000000010000111442000
0202LOTE PADRAO                   PETROBRAS   PN         PETR4       010VISTA          000000000058000000000580000000005470000000000000000000549000000080700
0202LOTE PADRAO                   ELETROBRAS  PNB*       ELET6       010VISTA          000000000035600000000367000000003560000000000000000000365000020834900
0202LOTE PADRAO                   PETROBRAS   ON         PETR3       010VISTA          000000000059700000000597000000005700000000000000000000575000000030100
0202LOTE PADRAO                   COMGAS      PNA*       CGAS5       010VISTA          000000000159400000001595000000015850000000000000000001593000001996000
0202LOTE PADRAO                   SOUZA CRUZ  ON EJ      CRUZ3       010VISTA          000000000012100000000122500000001190000000000000000000119000000012300
0202LOTE PADRAO                   CELESC      PNB        CLSC6       010VISTA          000000000000640000000006400000000060000000000000000000006000000164100
0202LOTE PADRAO                   ELETROBRAS  ON *       ELET3       010VISTA          000000000037200000000400000000003720000000000000000000400000021968700
0202LOTE PADRAO                   BRADESCO    PN * EJ    BBDC4       010VISTA          000000000011800000000118000000001140000000000000000000115000128135000
0202LOTE PADRAO                   CESP        PN *       CESP4       010VISTA          000000000024000000000240000000002280000000000000000000228000010106700
0202LOTE PADRAO                   LIGHT       ON *       LIGH3       010VISTA          000000000225000000002250000000021500000000000000000002150000000336800
0202LOTE PADRAO                   TELESP CL PAPN *       TSPP4       010VISTA          000000000019000000000190000000001850000000000000000000187500065551700
0202LOTE PADRAO                   VALE R DOCE PNA        VALE5       010VISTA          000000000051300000000526000000005100000000000000000000526000000028200
0202LOTE PADRAO                   COPEL       PNB*       CPLE6       010VISTA          000000000018600000000188000000001850000000000000000000188000020837600
0202LOTE PADRAO                   VALE R DOCE ON         VALE3       010VISTA          000000000049900000000499000000004900000000000000000000490000000000400
0202LOTE PADRAO                   ARACRUZ     PNB        ARCZ6       010VISTA          000000000002700000000027700000000270000000000000000000027000000047400
0202LOTE PADRAO                   TELEMIG PARTPN *       TMCP4       010VISTA          000000000005700000000060000000000570000000000000000000059000055230400
0202LOTE PADRAO                   BRASIL TELECPN *       BRTO4       010VISTA          000000000015000000000150000000001450000000000000000000146000017990600
0202LOTE PADRAO                   SABESP      ON *       SBSP3       010VISTA          000000000227000000002320000000022500000000000000000002320000001004000
0202LOTE PADRAO                   BRASKEM     PNA*       BRKM5       010VISTA          000000000632000000006321000000062500000000000000000006250000000064100
0202LOTE PADRAO                   EMBRAER     PN EJ      EMBR4       010VISTA          000000000019200000000193000000001900000000000000000000190000000022600
0202LOTE PADRAO                   TELESP      PN * EJ    TLPP4       010VISTA          000000000029500000000303000000002910000000000000000000303000003161100
0202LOTE PADRAO                   EMBRAER     ON EJ      EMBR3       010VISTA          000000000015200000000158000000001520000000000000000000155000000014100
0202LOTE PADRAO                   AMBEV       PN *       AMBV4       010VISTA          000000000515000000005150000000049800000000000000000005000000000552700
0202LOTE PADRAO                   USIMINAS    PNA        USIM5       010VISTA          000000000011000000000110000000001040000000000000000000104000000022300
0202LOTE PADRAO                   ELETROPAULO PN *       ELPL4       010VISTA          000000000108000000001095000000010700000000000000000001084000000906400
0202LOTE PADRAO                   TELE NORD CLPN *       TNEP4       010VISTA          000000000003300000000033000000000320000000000000000000033000028612200
0202LOTE PADRAO                   CEMIG       PN * EJ    CMIG4       010VISTA          000000000031800000000318000000003000000000000000000000306000026544900
0202LOTE PADRAO                   TELE CL SUL PN * EJ    TCSL4       010VISTA          000000000004200000000044000000000410000000000000000000041000083506800
0202LOTE PADRAO                   CEMIG       ON * EJ    CMIG3       010VISTA          000000000026800000000268000000002600000000000000000000266000000184900
0202LOTE PADRAO                   TELE CL SUL ON * EJ    TCSL3       010VISTA          000000000003300000000034800000000320000000000000000000032000012449200
0202LOTE PADRAO                   ITAUSA      PN         ITSA4       010VISTA          000000000001940000000019400000000180000000000000000000018000000547300
0202LOTE PADRAO                   SID TUBARAO PN *       CSTB4       010VISTA          000000000022200000000222000000002100000000000000000000211000004162800
0202LOTE PADRAO                   V C P       PN *       VCPA4       010VISTA          000000000055000000000566000000005500000000000000000000564000000905300
0202LOTE PADRAO                   BRADESPAR   PN *       BRAP4       010VISTA          000000000001100000000011000000000100000000000000000000010000262711000
0202LOTE PADRAO                   NET         PN         PLIM4       010VISTA          000000000001800000000018000000000173000000000000000000017300000538700
0202LOTE PADRAO                   TELE CTR OESPN * EJ    TCOC4       010VISTA          000000000008000000000080000000000740000000000000000000074000141036000
0202LOTE PADRAO                   GERDAU      PN * EJ    GGBR4       010VISTA          000000000019100000000193000000001880000000000000000000190000014373900
0202LOTE PADRAO                   BRASIL      ON *       BBAS3       010VISTA          000000000007200000000074000000000710000000000000000000072000003699400
