00BDIN9999BOVESPA 99992001122720011227
0101IBOVESPA                      0133710133690138230000000000000000002001122700000020011227013756000000
0202LOTE PADRAO                   EMBRATEL PARPN *       EBTP4       010VISTA          000000000009500000000099000000000950000000000000000000098000140534000
0202LOTE PADRAO                   EMBRATEL PARON *       EBTP3       010VISTA          000000000010900000000112500000001080000000000000000000110000047512200
0202LOTE PADRAO                   TRAN PAULISTPN * EJ    TRPL4       010VISTA          000000000006500000000065000000000630000000000000000000065000024603600
0202LOTE PADRAO                   TELEMAR     PN * EJ    TNLP4       010VISTA          000000000035800000000372000000003580000000000000000000369000202621000
0202LOTE PADRAO                   ITAUBANCO   PN * EJ    ITAU4       010VISTA          000000000174500000001784000000017150000000000000000001759000007855500
0202LOTE PADRAO                   TELEMAR     ON * EJ    TNLP3       010VISTA          000000000030600000000315000000003050000000000000000000315000041790000
0202LOTE PADRAO                   SID NACIONALON *       CSNA3       010VISTA          000000000036800000000371000000003580000000000000000000370000008542000
0202LOTE PADRAO                   TELE LEST CLPN *       TLCP4       010VISTA          000000000000920000000009700000000092000000000000000000009700248727000
0202LOTE PADRAO                   CRT CELULAR PNA* EJ    CRTP5       010VISTA          000000000490600000005080000000049060000000000000000005010000000985600
0202LOTE PADRAO                   IPIRANGA PETPN *       PTIP4       010VISTA          000000000013000000000130000000001260000000000000000000129000002610000
0202LOTE PADRAO                   BRASIL T PARPN *       BRTP4       010VISTA          000000000019100000000193000000001910000000000000000000191000060214300
0202LOTE PADRAO                   BRASIL T PARON *       BRTP3       010VISTA          000000000018900000000191000000001870000000000000000000190000028475500
0202LOTE PADRAO                   ACESITA     PN *       ACES4       010VISTA          000000000000710000000007400000000070000000000000000000007400316133000
0202LOTE PADRAO                   PETROBRAS   PN         PETR4       010VISTA          000000000050600000000508000000005000000000000000000000507000000103900
0202LOTE PADRAO                   ELETROBRAS  PNB*       ELET6       010VISTA          000000000031300000000320000000003090000000000000000000315000072035600
0202LOTE PADRAO                   PETROBRAS   ON         PETR3       010VISTA          000000000050600000000528000000005060000000000000000000518000000039700
0202LOTE PADRAO                   COMGAS      PNA*       CGAS5       010VISTA          000000000087900000000915000000008650000000000000000000905000003996000
0202LOTE PADRAO                   SOUZA CRUZ  ON EJ      CRUZ3       010VISTA          000000000013800000000140000000001380000000000000000000140000000025200
0202LOTE PADRAO                   ELETROBRAS  ON *       ELET3       010VISTA          000000000031900000000327000000003190000000000000000000324000035253100
0202LOTE PADRAO                   CELESC      PNB        CLSC6       010VISTA          000000000000460000000004700000000045000000000000000000004700000300800
0202LOTE PADRAO                   BRADESCO    PN * EJ    BBDC4       010VISTA          000000000011800000000121000000001180000000000000000000121000178208000
0202LOTE PADRAO                   CESP        PN *       CESP4       010VISTA          000000000016000000000165000000001600000000000000000000163000016143100
0202LOTE PADRAO                   LIGHT       ON *       LIGH3       010VISTA          000000000119200000001280000000011920000000000000000001255000002821300
0202LOTE PADRAO                   TELESP CL PAPN *       TSPP4       010VISTA          000000000008400000000087000000000840000000000000000000087000360067000
0202LOTE PADRAO                   VALE R DOCE PNA        VALE5       010VISTA          000000000053500000000540000000005320000000000000000000535000000057600
0202LOTE PADRAO                   COPEL       PNB*       CPLE6       010VISTA          000000000016800000000170000000001650000000000000000000168000030357900
0202LOTE PADRAO                   VALE R DOCE ON         VALE3       010VISTA          000000000052600000000533000000005260000000000000000000532000000002000
0202LOTE PADRAO                   ARACRUZ     PNB        ARCZ6       010VISTA          000000000004000000000043000000000400000000000000000000042000000034700
0202LOTE PADRAO                   TELEMIG PARTPN *       TMCP4       010VISTA          000000000004000000000042000000000400000000000000000000042000092252500
0202LOTE PADRAO                   BRASIL TELECPN *       BRTO4       010VISTA          000000000013500000000139000000001350000000000000000000137000093353400
0202LOTE PADRAO                   SABESP      ON *       SBSP3       010VISTA          000000000135000000001370000000013380000000000000000001345000003139300
0202LOTE PADRAO                   BRASKEM     PNA*       BRKM5       010VISTA          000000000451000000004700000000044800000000000000000004600000000350600
0202LOTE PADRAO                   EMBRAER     PN EJ      EMBR4       010VISTA          000000000012500000000128000000001250000000000000000000126000000107600
0202LOTE PADRAO                   TELESP      PN * EJ    TLPP4       010VISTA          000000000031000000000330000000003100000000000000000000327000009437900
0202LOTE PADRAO                   EMBRAER     ON EJ      EMBR3       010VISTA          000000000011600000000120000000001160000000000000000000120000000032500
0202LOTE PADRAO                   AMBEV       PN *       AMBV4       010VISTA          000000000484000000004900000000048400000000000000000004900000002862900
0202LOTE PADRAO                   USIMINAS    PNA        USIM5       010VISTA          000000000006250000000065400000000625000000000000000000065000000062600
0202LOTE PADRAO                   ELETROPAULO PN *       ELPL4       010VISTA          000000000080000000000800000000007700000000000000000000797000006149100
0202LOTE PADRAO                   TELE NORD CLPN *       TNEP4       010VISTA          000000000003200000000033000000000320000000000000000000033000091785800
0202LOTE PADRAO                   CEMIG       PN * EJ    CMIG4       010VISTA          000000000033300000000340000000003300000000000000000000336000037683500
0202LOTE PADRAO                   TELE CL SUL PN * EJ    TCSL4       010VISTA          000000000003700000000039000000000375000000000000000000038100086809600
0202LOTE PADRAO                   CEMIG       ON * EJ    CMIG3       010VISTA          000000000030500000000313000000003040000000000000000000313000004690500
0202LOTE PADRAO                   TELE CL SUL ON * EJ    TCSL3       010VISTA          000000000003100000000032000000000310000000000000000000032000062100600
0202LOTE PADRAO                   ITAUSA      PN         ITSA4       010VISTA          000000000002100000000021000000000210000000000000000000021000000445100
0202LOTE PADRAO                   V C P       PN *       VCPA4       010VISTA          000000000080800000000809000000008050000000000000000000807000001256000
0202LOTE PADRAO                   SID TUBARAO PN *       CSTB4       010VISTA          000000000023500000000240000000002330000000000000000000237000007460400
0202LOTE PADRAO                   BRADESPAR   PN *       BRAP4       010VISTA          000000000000850000000008600000000084000000000000000000008600449792000
0202LOTE PADRAO                   NET         PN         PLIM4       010VISTA          000000000000800000000008700000000080000000000000000000008300001337700
0202LOTE PADRAO                   TELE CTR OESPN * EJ    TCOC4       010VISTA          000000000005400000000055000000000540000000000000000000054000150682000
0202LOTE PADRAO                   TELEMAR N L PNA* EJ    TMAR5       010VISTA          000000000058500000000601000000005850000000000000000000591000027732500
0202LOTE PADRAO                   GERDAU      PN * EJ    GGBR4       010VISTA          000000000022300000000226000000002180000000000000000000220000011600500
0202LOTE PADRAO                   BRASIL      ON *       BBAS3       010VISTA          000000000010800000000108000000001070000000000000000000107000006043900
