00BDIN9999BOVESPA 99992001101120011011
0101IBOVESPA                      0104620104610107900000000000000000002001101100000020011011010785000000
0202LOTE PADRAO                   EMBRATEL PARPN *       EBTP4       010VISTA          000000000007000000000077000000000690000000000000000000076000109580000
0202LOTE PADRAO                   EMBRATEL PARON *       EBTP3       010VISTA          000000000007700000000081000000000750000000000000000000080018140000000
0202LOTE PADRAO                   TRAN PAULISTPN * EJ    TRPL4       010VISTA          000000000004100000000043000000000410000000000000000000043000014420000
0202LOTE PADRAO                   TELEMAR     PN * EJ    TNLP4       010VISTA          000000000024000000000249000000002390000000000000000000249000360832000
0202LOTE PADRAO                   ITAUBANCO   PN * EJ    ITAU4       010VISTA          000000000159900000001670000000015990000000000000000001665000004519700
0202LOTE PADRAO                   TELEMAR     ON * EJ    TNLP3       010VISTA          000000000022000000000228000000002200000000000000000000226000019865600
0202LOTE PADRAO                   SID NACIONALON *       CSNA3       010VISTA          000000000026000000000270000000002600000000000000000000268000018251600
0202LOTE PADRAO                   TELE LEST CLPN *       TLCP4       010VISTA          000000000000660000000007000000000066000000000000000000006700225834000
0202LOTE PADRAO                   CRT CELULAR PNA* EJ    CRTP5       010VISTA          000000000364900000003650000000035500000000000000000003640000000603400
0202LOTE PADRAO                   IPIRANGA PETPN *       PTIP4       010VISTA          000000000010900000000109000000001060000000000000000000106000003482700
0202LOTE PADRAO                   BRASIL T PARPN *       BRTP4       010VISTA          000000000014600000000149000000001440000000000000000000148000088273900
0202LOTE PADRAO                   BRASIL T PARON *       BRTP3       010VISTA          000000000014000000000143000000001360000000000000000000139000012697000
0202LOTE PADRAO                   ACESITA     PN *       ACES4       010VISTA          000000000000430000000004400000000041000000000000000000004300068630000
0202LOTE PADRAO                   PETROBRAS   PN         PETR4       010VISTA          000000000052500000000535000000005250000000000000000000535000000094800
0202LOTE PADRAO                   ELETROBRAS  PNB*       ELET6       010VISTA          000000000028000000000295000000002800000000000000000000294000037659700
0202LOTE PADRAO                   PETROBRAS   ON         PETR3       010VISTA          000000000055000000000560000000005470000000000000000000552000000036300
0202LOTE PADRAO                   COMGAS      PNA*       CGAS5       010VISTA          000000000074000000000770000000007300000000000000000000750000000547300
0202LOTE PADRAO                   SOUZA CRUZ  ON EJ      CRUZ3       010VISTA          000000000012000000000120000000001160000000000000000000120000000009900
0202LOTE PADRAO                   ELETROBRAS  ON *       ELET3       010VISTA          000000000031300000000335000000003130000000000000000000335000033613900
0202LOTE PADRAO                   CELESC      PNB        CLSC6       010VISTA          000000000000340000000003500000000033000000000000000000003500000079500
0202LOTE PADRAO                   BRADESCO    PN * EJ    BBDC4       010VISTA          000000000010000000000104000000000980000000000000000000103000261882000
0202LOTE PADRAO                   CESP        PN *       CESP4       010VISTA          000000000008000000000083000000000800000000000000000000081000009161100
0202LOTE PADRAO                   LIGHT       ON *       LIGH3       010VISTA          000000000074000000000750000000007300000000000000000000737000001437400
0202LOTE PADRAO                   TELESP CL PAPN *       TSPP4       010VISTA          000000000005600000000057500000000550000000000000000000056000132444000
0202LOTE PADRAO                   VALE R DOCE PNA        VALE5       010VISTA          000000000054500000000550000000005350000000000000000000537000000030500
0202LOTE PADRAO                   COPEL       PNB*       CPLE6       010VISTA          000000000014000000000145000000001380000000000000000000143000023638200
0202LOTE PADRAO                   VALE R DOCE ON         VALE3       010VISTA          000000000051800000000522000000005170000000000000000000518000000005100
0202LOTE PADRAO                   ARACRUZ     PNB        ARCZ6       010VISTA          000000000004500000000048000000000440000000000000000000046000000114700
0202LOTE PADRAO                   TELEMIG PARTPN *       TMCP4       010VISTA          000000000003200000000033000000000310000000000000000000033000072278900
0202LOTE PADRAO                   BRASIL TELECPN *       BRTO4       010VISTA          000000000009900000000101000000000990000000000000000000100000058656700
0202LOTE PADRAO                   SABESP      ON *       SBSP3       010VISTA          000000000108900000001109000000010700000000000000000001090000001233100
0202LOTE PADRAO                   BRASKEM     PNA*       BRKM5       010VISTA          000000000350000000003600000000035000000000000000000003560000000406000
0202LOTE PADRAO                   EMBRAER     PN EJ      EMBR4       010VISTA          000000000009000000000100000000000900000000000000000000099000000066300
0202LOTE PADRAO                   TELESP      PN * EJ    TLPP4       010VISTA          000000000022600000000236000000002260000000000000000000233000010580200
0202LOTE PADRAO                   EMBRAER     ON EJ      EMBR3       010VISTA          000000000007500000000079000000000750000000000000000000079000000030200
0202LOTE PADRAO                   AMBEV       PN *       AMBV4       010VISTA          000000000426000000004380000000042500000000000000000004350000001190800
0202LOTE PADRAO                   USIMINAS    PNA        USIM5       010VISTA          000000000003700000000038000000000370000000000000000000038000000140100
0202LOTE PADRAO                   ELETROPAULO PN *       ELPL4       010VISTA          000000000057700000000595000000005760000000000000000000576000001346100
0202LOTE PADRAO                   TELE NORD CLPN *       TNEP4       010VISTA          000000000002400000000025000000000230000000000000000000024000047975000
0202LOTE PADRAO                   CEMIG       PN * EJ    CMIG4       010VISTA          000000000025500000000256000000002500000000000000000000251000049592400
0202LOTE PADRAO                   TELE CL SUL PN * EJ    TCSL4       010VISTA          000000000002730000000027500000000260000000000000000000026000068965100
0202LOTE PADRAO                   CEMIG       ON * EJ    CMIG3       010VISTA          000000000024800000000248000000002400000000000000000000246000000470600
0202LOTE PADRAO                   TELE CL SUL ON * EJ    TCSL3       010VISTA          000000000002300000000024000000000230000000000000000000024000004659800
0202LOTE PADRAO                   ITAUSA      PN         ITSA4       010VISTA          000000000001740000000018100000000174000000000000000000018000000528900
0202LOTE PADRAO                   SID TUBARAO PN *       CSTB4       010VISTA          000000000014600000000149000000001450000000000000000000146000004696900
0202LOTE PADRAO                   V C P       PN *       VCPA4       010VISTA          000000000072000000000720000000007000000000000000000000719000010667300
0202LOTE PADRAO                   BRADESPAR   PN *       BRAP4       010VISTA          000000000000510000000005200000000051000000000000000000005200244547000
0202LOTE PADRAO                   NET         PN         PLIM4       010VISTA          000000000000620000000006300000000059000000000000000000006100001244100
0202LOTE PADRAO                   TELE CTR OESPN * EJ    TCOC4       010VISTA          000000000004700000000049000000000470000000000000000000049000054804800
0202LOTE PADRAO                   GERDAU      PN * EJ    GGBR4       010VISTA          000000000014800000000150000000001475000000000000000000150000087828600
0202LOTE PADRAO                   BRASIL      ON *       BBAS3       010VISTA          000000000006900000000070000000000670000000000000000000070000003210200
