00BDIN9999BOVESPA 99992001050420010504
0101IBOVESPA                      0151420150410153040000000000000000002001050400000020010504015093000000
0202LOTE PADRAO                   EMBRATEL PARPN *       EBTP4       010VISTA          000000000020400000000208000000002020000000000000000000203000043288600
0202LOTE PADRAO                   EMBRATEL PARON *       EBTP3       010VISTA          000000000018600000000191000000001800000000000000000000186000022530100
0202LOTE PADRAO                   TRAN PAULISTPN * EJ    TRPL4       010VISTA          000000000007300000000074000000000710000000000000000000072000015270000
0202LOTE PADRAO                   TELEMAR     PN * EJ    TNLP4       010VISTA          000000000038700000000400000000003860000000000000000000393000159840000
0202LOTE PADRAO                   ITAUBANCO   PN * EJ    ITAU4       010VISTA          000000000183500000001870000000017900000000000000000001840000007619600
0202LOTE PADRAO                   TELEMAR     ON * EJ    TNLP3       010VISTA          000000000034700000000353000000003470000000000000000000351000021997700
0202LOTE PADRAO                   SID NACIONALON *       CSNA3       010VISTA          000000000051200000000517000000005120000000000000000000515000008630000
0202LOTE PADRAO                   TELE LEST CLPN *       TLCP4       010VISTA          000000000001600000000017000000000160000000000000000000016000083053800
0202LOTE PADRAO                   IPIRANGA PETPN *       PTIP4       010VISTA          000000000016300000000166000000001610000000000000000000166000004380800
0202LOTE PADRAO                   BRASIL T PARPN *       BRTP4       010VISTA          000000000019500000000198000000001910000000000000000000193000031235300
0202LOTE PADRAO                   BRASIL T PARON *       BRTP3       010VISTA          000000000019000000000198000000001900000000000000000000192000007262600
0202LOTE PADRAO                   ACESITA     PN *       ACES4       010VISTA          000000000000850000000008600000000083000000000000000000008300323394000
0202LOTE PADRAO                   PETROBRAS   PN         PETR4       010VISTA          000000000055400000000562000000005490000000000000000000555000000101100
0202LOTE PADRAO                   ELETROBRAS  PNB*       ELET6       010VISTA          000000000033000000000330000000003210000000000000000000321000032513800
0202LOTE PADRAO                   PETROBRAS   ON         PETR3       010VISTA          000000000059100000000617000000005910000000000000000000607000000053100
0202LOTE PADRAO                   COMGAS      PNA*       CGAS5       010VISTA          000000000130100000001378000000012950000000000000000001361000015924700
0202LOTE PADRAO                   SOUZA CRUZ  ON EJ      CRUZ3       010VISTA          000000000010200000000108000000001020000000000000000000106000000023500
0202LOTE PADRAO                   CELESC      PNB        CLSC6       010VISTA          000000000000490000000005100000000049000000000000000000005000000298400
0202LOTE PADRAO                   ELETROBRAS  ON *       ELET3       010VISTA          000000000036300000000365000000003570000000000000000000357000030929300
0202LOTE PADRAO                   BRADESCO    PN * EJ    BBDC4       010VISTA          000000000012100000000122000000001190000000000000000000119000134536000
0202LOTE PADRAO                   CESP        PN *       CESP4       010VISTA          000000000020000000000209000000002000000000000000000000207500044645500
0202LOTE PADRAO                   LIGHT       ON *       LIGH3       010VISTA          000000000164400000001769000000016410000000000000000001710000000245800
0202LOTE PADRAO                   TELESP CL PAPN *       TSPP4       010VISTA          000000000014800000000152000000001460000000000000000000147000073406400
0202LOTE PADRAO                   VALE R DOCE PNA        VALE5       010VISTA          000000000053000000000532000000005300000000000000000000531000000007600
0202LOTE PADRAO                   COPEL       PNB*       CPLE6       010VISTA          000000000017500000000178000000001730000000000000000000178000018960000
0202LOTE PADRAO                   VALE R DOCE ON         VALE3       010VISTA          000000000048500000000490000000004850000000000000000000490000000001900
0202LOTE PADRAO                   ARACRUZ     PNB        ARCZ6       010VISTA          000000000003200000000033000000000327000000000000000000032700000028200
0202LOTE PADRAO                   TELEMIG PARTPN *       TMCP4       010VISTA          000000000004100000000043000000000410000000000000000000042000133538000
0202LOTE PADRAO                   BRASIL TELECPN *       BRTO4       010VISTA          000000000013900000000140000000001375000000000000000000137500051168000
0202LOTE PADRAO                   SABESP      ON *       SBSP3       010VISTA          000000000174000000001754000000017400000000000000000001740000001904400
0202LOTE PADRAO                   BRASKEM     PNA*       BRKM5       010VISTA          000000000551100000005588000000053500000000000000000005588000000331200
0202LOTE PADRAO                   EMBRAER     PN EJ      EMBR4       010VISTA          000000000023500000000235000000002200000000000000000000223000000041100
0202LOTE PADRAO                   TELESP      PN * EJ    TLPP4       010VISTA          000000000030800000000311000000003030000000000000000000309000007171800
0202LOTE PADRAO                   EMBRAER     ON EJ      EMBR3       010VISTA          000000000018500000000185000000001720000000000000000000176000000053200
0202LOTE PADRAO                   AMBEV       PN *       AMBV4       010VISTA          000000000510000000005369000000051000000000000000000005200000000847900
0202LOTE PADRAO                   USIMINAS    PNA        USIM5       010VISTA          000000000008900000000089000000000870000000000000000000088000000040500
0202LOTE PADRAO                   ELETROPAULO PN *       ELPL4       010VISTA          000000000068700000000687000000006230000000000000000000623000002451000
0202LOTE PADRAO                   TELE NORD CLPN *       TNEP4       010VISTA          000000000003200000000032000000000320000000000000000000032000033680500
0202LOTE PADRAO                   CEMIG       PN * EJ    CMIG4       010VISTA          000000000025300000000261000000002500000000000000000000256000039944000
0202LOTE PADRAO                   TELE CL SUL PN * EJ    TCSL4       010VISTA          000000000004250000000043000000000425000000000000000000042000029571100
0202LOTE PADRAO                   CEMIG       ON * EJ    CMIG3       010VISTA          000000000024800000000268000000002480000000000000000000258000006894400
0202LOTE PADRAO                   TELE CL SUL ON * EJ    TCSL3       010VISTA          000000000003520000000038000000000352000000000000000000037500049790400
0202LOTE PADRAO                   ITAUSA      PN         ITSA4       010VISTA          000000000001940000000019900000000190000000000000000000019700000321700
0202LOTE PADRAO                   SID TUBARAO PN *       CSTB4       010VISTA          000000000021500000000220000000002150000000000000000000216000008050000
0202LOTE PADRAO                   V C P       PN *       VCPA4       010VISTA          000000000060000000000600000000005800000000000000000000598000000931000
0202LOTE PADRAO                   BRADESPAR   PN *       BRAP4       010VISTA          000000000000960000000010000000000095000000000000000000009800329028000
0202LOTE PADRAO                   NET         PN         PLIM4       010VISTA          000000000001250000000013000000000124000000000000000000012500000705400
0202LOTE PADRAO                   TELE CTR OESPN * EJ    TCOC4       010VISTA          000000000006000000000061000000000600000000000000000000060000046012300
0202LOTE PADRAO                   GERDAU      PN * EJ    GGBR4       010VISTA          000000000019800000000204000000001960000000000000000000200000005773700
0202LOTE PADRAO                   BRASIL      ON *       BBAS3       010VISTA          000000000008900000000092500000000890000000000000000000090000006042000
