00BDIN9999BOVESPA 99992001081020010810
0101IBOVESPA                      0138360137380139200000000000000000002001081000000020010810013915000000
0202LOTE PADRAO                   EMBRATEL PARPN *       EBTP4       010VISTA          000000000012300000000123000000001190000000000000000000119000067788400
0202LOTE PADRAO                   EMBRATEL PARON *       EBTP3       010VISTA          000000000012800000000128000000001210000000000000000000121000045242900
0202LOTE PADRAO                   TRAN PAULISTPN * EJ    TRPL4       010VISTA          000000000006400000000066000000000620000000000000000000065000009383000
0202LOTE PADRAO                   TELEMAR     PN * EJ    TNLP4       010VISTA          000000000031800000000320000000003140000000000000000000317000189552000
0202LOTE PADRAO                   ITAUBANCO   PN * EJ    ITAU4       010VISTA          000000000198000000001980000000019350000000000000000001950000004424700
0202LOTE PADRAO                   TELEMAR     ON * EJ    TNLP3       010VISTA          000000000029000000000293000000002800000000000000000000280000036334200
0202LOTE PADRAO                   SID NACIONALON *       CSNA3       010VISTA          000000000038200000000385000000003775000000000000000000385000004907500
0202LOTE PADRAO                   TELE LEST CLPN *       TLCP4       010VISTA          000000000001500000000016000000000150000000000000000000016000059708900
0202LOTE PADRAO                   CRT CELULAR PNA* EJ    CRTP5       010VISTA          000000000934500000009345000000091000000000000000000009325000000094600
0202LOTE PADRAO                   IPIRANGA PETPN *       PTIP4       010VISTA          000000000015500000000159000000001520000000000000000000158000000346000
0202LOTE PADRAO                   BRASIL T PARPN *       BRTP4       010VISTA          000000000017800000000178000000001710000000000000000000173000089335100
0202LOTE PADRAO                   BRASIL T PARON *       BRTP3       010VISTA          000000000017100000000171000000001660000000000000000000170000014680000
0202LOTE PADRAO                   ACESITA     PN *       ACES4       010VISTA          000000000000570000000005800000000056000000000000000000005800091707800
0202LOTE PADRAO                   PETROBRAS   PN         PETR4       010VISTA          000000000053400000000534000000005280000000000000000000533000000075500
0202LOTE PADRAO                   ELETROBRAS  PNB*       ELET6       010VISTA          000000000030500000000316000000002980000000000000000000315000026423800
0202LOTE PADRAO                   PETROBRAS   ON         PETR3       010VISTA          000000000057000000000571000000005650000000000000000000570000000020000
0202LOTE PADRAO                   COMGAS      PNA*       CGAS5       010VISTA          000000000133000000001335000000013100000000000000000001325000000182000
0202LOTE PADRAO                   SOUZA CRUZ  ON EJ      CRUZ3       010VISTA          000000000010700000000109000000001070000000000000000000109000000003500
0202LOTE PADRAO                   ELETROBRAS  ON *       ELET3       010VISTA          000000000034300000000362000000003370000000000000000000362000020366700
0202LOTE PADRAO                   CELESC      PNB        CLSC6       010VISTA          000000000000470000000004700000000046000000000000000000004700000284000
0202LOTE PADRAO                   BRADESCO    PN * EJ    BBDC4       010VISTA          000000000012300000000124000000001225000000000000000000124000080574500
0202LOTE PADRAO                   CESP        PN *       CESP4       010VISTA          000000000013500000000136000000001330000000000000000000135000014836300
0202LOTE PADRAO                   LIGHT       ON *       LIGH3       010VISTA          000000000124000000001307500000012350000000000000000001307500000706200
0202LOTE PADRAO                   TELESP CL PAPN *       TSPP4       010VISTA          000000000014200000000145000000001350000000000000000000145000086207600
0202LOTE PADRAO                   VALE R DOCE PNA        VALE5       010VISTA          000000000051200000000526000000005120000000000000000000526000000028000
0202LOTE PADRAO                   COPEL       PNB*       CPLE6       010VISTA          000000000018000000000181000000001780000000000000000000178000023443800
0202LOTE PADRAO                   VALE R DOCE ON         VALE3       010VISTA          000000000052000000000530000000005200000000000000000000530000000001000
0202LOTE PADRAO                   ARACRUZ     PNB        ARCZ6       010VISTA          000000000003960000000040000000000390000000000000000000039000000015000
0202LOTE PADRAO                   TELEMIG PARTPN *       TMCP4       010VISTA          000000000004100000000042000000000400000000000000000000040000044061600
0202LOTE PADRAO                   BRASIL TELECPN *       BRTO4       010VISTA          000000000012000000000120000000001150000000000000000000117000194156000
0202LOTE PADRAO                   SABESP      ON *       SBSP3       010VISTA          000000000170000000001770000000017000000000000000000001768000000633000
0202LOTE PADRAO                   BRASKEM     PNA*       BRKM5       010VISTA          000000000505100000005051000000050000000000000000000005030000000118000
0202LOTE PADRAO                   EMBRAER     PN EJ      EMBR4       010VISTA          000000000022300000000225000000002210000000000000000000223000000017400
0202LOTE PADRAO                   TELESP      PN * EJ    TLPP4       010VISTA          000000000024500000000246000000002430000000000000000000246000008413600
0202LOTE PADRAO                   EMBRAER     ON EJ      EMBR3       010VISTA          000000000017800000000179000000001760000000000000000000178000000014900
0202LOTE PADRAO                   AMBEV       PN *       AMBV4       010VISTA          000000000525000000005290000000051890000000000000000005250000001053300
0202LOTE PADRAO                   USIMINAS    PNA        USIM5       010VISTA          000000000006400000000064000000000620000000000000000000063000000011900
0202LOTE PADRAO                   ELETROPAULO PN *       ELPL4       010VISTA          000000000070000000000729000000006800000000000000000000725000001565100
0202LOTE PADRAO                   TELE NORD CLPN *       TNEP4       010VISTA          000000000003400000000035000000000330000000000000000000033000054550000
0202LOTE PADRAO                   CEMIG       PN * EJ    CMIG4       010VISTA          000000000027800000000280000000002730000000000000000000280000020924600
0202LOTE PADRAO                   TELE CL SUL PN * EJ    TCSL4       010VISTA          000000000004000000000040000000000380000000000000000000039000079281100
0202LOTE PADRAO                   CEMIG       ON * EJ    CMIG3       010VISTA          000000000026900000000269000000002630000000000000000000264000000315000
0202LOTE PADRAO                   TELE CL SUL ON * EJ    TCSL3       010VISTA          000000000003400000000034000000000330000000000000000000034000025484600
0202LOTE PADRAO                   ITAUSA      PN         ITSA4       010VISTA          000000000002000000000021000000000200000000000000000000020000000254500
0202LOTE PADRAO                   SID TUBARAO PN *       CSTB4       010VISTA          000000000021100000000218000000002100000000000000000000218000003205100
0202LOTE PADRAO                   V C P       PN *       VCPA4       010VISTA          000000000067500000000689000000006720000000000000000000687000002836800
0202LOTE PADRAO                   BRADESPAR   PN *       BRAP4       010VISTA          000000000000780000000008000000000078000000000000000000008000198277000
0202LOTE PADRAO                   NET         PN         PLIM4       010VISTA          000000000001000000000011000000000100000000000000000000011000000813500
0202LOTE PADRAO                   TELE CTR OESPN * EJ    TCOC4       010VISTA          000000000006000000000060000000000590000000000000000000060000034228500
0202LOTE PADRAO                   GERDAU      PN * EJ    GGBR4       010VISTA          000000000017100000000171000000001690000000000000000000170000004114600
0202LOTE PADRAO                   BRASIL      ON *       BBAS3       010VISTA          000000000009800000000099000000000960000000000000000000098000019262200
