00BDIN9999BOVESPA 99992001020120010201
0101IBOVESPA                      0176700169770176730000000000000000002001020100000020010201017039000000
0202LOTE PADRAO                   EMBRATEL PARPN *       EBTP4       010VISTA          000000000032900000000329000000003100000000000000000000310000080039700
0202LOTE PADRAO                   EMBRATEL PARON *       EBTP3       010VISTA          000000000026300000000263000000002510000000000000000000253000023420400
0202LOTE PADRAO                   TRAN PAULISTPN * EJ    TRPL4       010VISTA          000000000008000000000081000000000770000000000000000000079000018379100
0202LOTE PADRAO                   TELEMAR     PN * EJ    TNLP4       010VISTA          000000000048800000000488000000004680000000000000000000471000216096000
0202LOTE PADRAO                   ITAUBANCO   PN * EJ    ITAU4       010VISTA          000000000188600000001886000000018200000000000000000001830000004872500
0202LOTE PADRAO                   TELEMAR     ON * EJ    TNLP3       010VISTA          000000000039300000000393000000003700000000000000000000372000023015300
0202LOTE PADRAO                   SID NACIONALON *       CSNA3       010VISTA          000000000072500000000732000000006950000000000000000000705000010561200
0202LOTE PADRAO                   TELE LEST CLPN *       TLCP4       010VISTA          000000000001700000000017000000000151000000000000000000015400248879000
0202LOTE PADRAO                   CRT CELULAR PNA* EJ    CRTP5       010VISTA          000000000751000000007800000000075100000000000000000007700000000561100
0202LOTE PADRAO                   IPIRANGA PETPN *       PTIP4       010VISTA          000000000017000000000170000000001630000000000000000000164000006010300
0202LOTE PADRAO                   BRASIL T PARPN *       BRTP4       010VISTA          000000000025000000000253000000002380000000000000000000241000166444000
0202LOTE PADRAO                   BRASIL T PARON *       BRTP3       010VISTA          000000000021300000000215000000002060000000000000000000208000042641000
0202LOTE PADRAO                   ACESITA     PN *       ACES4       010VISTA          000000000001100000000011000000000110000000000000000000011000453703000
0202LOTE PADRAO                   PETROBRAS   PN         PETR4       010VISTA          000000000054500000000547000000005330000000000000000000537000000136700
0202LOTE PADRAO                   ELETROBRAS  PNB*       ELET6       010VISTA          000000000040000000000400000000003770000000000000000000377000040307300
0202LOTE PADRAO                   PETROBRAS   ON         PETR3       010VISTA          000000000054800000000550000000005450000000000000000000547000000042100
0202LOTE PADRAO                   COMGAS      PNA*       CGAS5       010VISTA          000000000151000000001590000000014950000000000000000001530000004225900
0202LOTE PADRAO                   SOUZA CRUZ  ON EJ      CRUZ3       010VISTA          000000000012000000000120000000001150000000000000000000118000000024200
0202LOTE PADRAO                   ELETROBRAS  ON *       ELET3       010VISTA          000000000041500000000415000000003970000000000000000000397000040471000
0202LOTE PADRAO                   CELESC      PNB        CLSC6       010VISTA          000000000000670000000006700000000063000000000000000000006600000448600
0202LOTE PADRAO                   BRADESCO    PN * EJ    BBDC4       010VISTA          000000000013600000000136000000001290000000000000000000130000003384700
0202LOTE PADRAO                   CESP        PN *       CESP4       010VISTA          000000000022500000000228000000002250000000000000000000226000023510000
0202LOTE PADRAO                   LIGHT       ON *       LIGH3       010VISTA          000000000252000000002535000000024500000000000000000002450000001293300
0202LOTE PADRAO                   TELESP CL PAPN *       TSPP4       010VISTA          000000000021500000000216000000002020000000000000000000205000151847000
0202LOTE PADRAO                   VALE R DOCE PNA        VALE5       010VISTA          000000000051000000000527000000005010000000000000000000505000000051100
0202LOTE PADRAO                   COPEL       PNB*       CPLE6       010VISTA          000000000019500000000196000000001850000000000000000000191000080271200
0202LOTE PADRAO                   VALE R DOCE ON         VALE3       010VISTA          000000000050400000000504000000005000000000000000000000500000000000500
0202LOTE PADRAO                   ARACRUZ     PNB        ARCZ6       010VISTA          000000000002800000000028000000000279000000000000000000028000000147800
0202LOTE PADRAO                   TELEMIG PARTPN *       TMCP4       010VISTA          000000000006500000000065000000000600000000000000000000062000079892400
0202LOTE PADRAO                   BRASIL TELECPN *       BRTO4       010VISTA          000000000018500000000185000000001730000000000000000000177500071531600
0202LOTE PADRAO                   SABESP      ON *       SBSP3       010VISTA          000000000215000000002190000000021500000000000000000002155000002167700
0202LOTE PADRAO                   BRASKEM     PNA*       BRKM5       010VISTA          000000000671000000006750000000065000000000000000000006550000000130000
0202LOTE PADRAO                   EMBRAER     PN EJ      EMBR4       010VISTA          000000000020600000000207000000002000000000000000000000201000000053000
0202LOTE PADRAO                   TELESP      PN * EJ    TLPP4       010VISTA          000000000031800000000321000000003110000000000000000000317000012246300
0202LOTE PADRAO                   EMBRAER     ON EJ      EMBR3       010VISTA          000000000015900000000160000000001540000000000000000000154000000065500
0202LOTE PADRAO                   AMBEV       PN *       AMBV4       010VISTA          000000000550000000005600000000054500000000000000000005580000001956900
0202LOTE PADRAO                   USIMINAS    PNA        USIM5       010VISTA          000000000011500000000117000000001150000000000000000000115000000146000
0202LOTE PADRAO                   ELETROPAULO PN *       ELPL4       010VISTA          000000000111000000001150000000010800000000000000000001150000002249100
0202LOTE PADRAO                   TELE NORD CLPN *       TNEP4       010VISTA          000000000004100000000041000000000380000000000000000000039000109594000
0202LOTE PADRAO                   CEMIG       PN * EJ    CMIG4       010VISTA          000000000034700000000356000000003380000000000000000000340000071743800
0202LOTE PADRAO                   TELE CL SUL PN * EJ    TCSL4       010VISTA          000000000005300000000054000000000490000000000000000000050000141579000
0202LOTE PADRAO                   CEMIG       ON * EJ    CMIG3       010VISTA          000000000031000000000310000000003000000000000000000000303000001414600
0202LOTE PADRAO                   TELE CL SUL ON * EJ    TCSL3       010VISTA          000000000004200000000042000000000380000000000000000000040000034891500
0202LOTE PADRAO                   ITAUSA      PN         ITSA4       010VISTA          000000000002000000000020000000000200000000000000000000020000000258900
0202LOTE PADRAO                   SID TUBARAO PN *       CSTB4       010VISTA          000000000023700000000237000000002210000000000000000000231000006657700
0202LOTE PADRAO                   V C P       PN *       VCPA4       010VISTA          000000000062000000000620000000006000000000000000000000610000006443800
0202LOTE PADRAO                   BRADESPAR   PN *       BRAP4       010VISTA          000000000001100000000012000000000110000000000000000000011000441112000
0202LOTE PADRAO                   NET         PN         PLIM4       010VISTA          000000000002100000000021000000000200000000000000000000020000001593300
0202LOTE PADRAO                   TELE CTR OESPN * EJ    TCOC4       010VISTA          000000000008200000000084000000000780000000000000000000079000105218000
0202LOTE PADRAO                   BRASIL      ON *       BBAS3       010VISTA          000000000007700000000079000000000720000000000000000000074000007872400
