00BDIN9999BOVESPA 99992001052420010524
0101IBOVESPA                      0146940144310148340000000000000000002001052400000020010524014523000000
0202LOTE PADRAO                   EMBRATEL PARPN *       EBTP4       010VISTA          000000000019600000000198000000001860000000000000000000190000087390700
0202LOTE PADRAO                   EMBRATEL PARON *       EBTP3       010VISTA          000000000017800000000178000000001710000000000000000000176000030926600
0202LOTE PADRAO                   TRAN PAULISTPN * EJ    TRPL4       010VISTA          000000000005800000000058000000000560000000000000000000057000009588000
0202LOTE PADRAO                   TELEMAR     PN * EJ    TNLP4       010VISTA          000000000038000000000385000000003700000000000000000000372000229736000
0202LOTE PADRAO                   ITAUBANCO   PN * EJ    ITAU4       010VISTA          000000000189900000001915000000018500000000000000000001880000008606500
0202LOTE PADRAO                   TELEMAR     ON * EJ    TNLP3       010VISTA          000000000032300000000325000000003130000000000000000000323000035143700
0202LOTE PADRAO                   SID NACIONALON *       CSNA3       010VISTA          000000000047000000000478000000004670000000000000000000477500007607200
0202LOTE PADRAO                   TELE LEST CLPN *       TLCP4       010VISTA          000000000001800000000019500000000180000000000000000000019000181202000
0202LOTE PADRAO                   IPIRANGA PETPN *       PTIP4       010VISTA          000000000016000000000160000000001590000000000000000000159000001300000
0202LOTE PADRAO                   BRASIL T PARPN *       BRTP4       010VISTA          000000000018400000000184000000001760000000000000000000178000058436000
0202LOTE PADRAO                   BRASIL T PARON *       BRTP3       010VISTA          000000000018000000000180000000001730000000000000000000173000009097000
0202LOTE PADRAO                   ACESITA     PN *       ACES4       010VISTA          000000000000710000000007100000000068000000000000000000006800108944000
0202LOTE PADRAO                   PETROBRAS   PN         PETR4       010VISTA          000000000059700000000605000000005770000000000000000000590000000073200
0202LOTE PADRAO                   ELETROBRAS  PNB*       ELET6       010VISTA          000000000027300000000275000000002560000000000000000000259000048015600
0202LOTE PADRAO                   PETROBRAS   ON         PETR3       010VISTA          000000000065500000000655000000006390000000000000000000647000000068700
0202LOTE PADRAO                   COMGAS      PNA*       CGAS5       010VISTA          000000000145000000001535000000014350000000000000000001500000006768000
0202LOTE PADRAO                   SOUZA CRUZ  ON EJ      CRUZ3       010VISTA          000000000011300000000118000000001110000000000000000000118000000017000
0202LOTE PADRAO                   CELESC      PNB        CLSC6       010VISTA          000000000000480000000004900000000045000000000000000000004600000226300
0202LOTE PADRAO                   ELETROBRAS  ON *       ELET3       010VISTA          000000000031000000000310000000002910000000000000000000295000022018000
0202LOTE PADRAO                   BRADESCO    PN * EJ    BBDC4       010VISTA          000000000012100000000121000000001180000000000000000000120000168365000
0202LOTE PADRAO                   CESP        PN *       CESP4       010VISTA          000000000015400000000154000000001410000000000000000000148000022324000
0202LOTE PADRAO                   LIGHT       ON *       LIGH3       010VISTA          000000000127000000001340000000012500000000000000000001339000001231100
0202LOTE PADRAO                   TELESP CL PAPN *       TSPP4       010VISTA          000000000016750000000169000000001660000000000000000000166000354376000
0202LOTE PADRAO                   VALE R DOCE PNA        VALE5       010VISTA          000000000056600000000581000000005660000000000000000000575000000044900
0202LOTE PADRAO                   COPEL       PNB*       CPLE6       010VISTA          000000000017000000000171000000001680000000000000000000169000022365800
0202LOTE PADRAO                   VALE R DOCE ON         VALE3       010VISTA          000000000050500000000520000000005050000000000000000000520000000001100
0202LOTE PADRAO                   ARACRUZ     PNB        ARCZ6       010VISTA          000000000003800000000039000000000380000000000000000000038000000082500
0202LOTE PADRAO                   TELEMIG PARTPN *       TMCP4       010VISTA          000000000005200000000054000000000500000000000000000000050000087975100
0202LOTE PADRAO                   BRASIL TELECPN *       BRTO4       010VISTA          000000000012600000000126000000001210000000000000000000121000051487500
0202LOTE PADRAO                   SABESP      ON *       SBSP3       010VISTA          000000000166000000001660000000015900000000000000000001620000001213700
0202LOTE PADRAO                   BRASKEM     PNA*       BRKM5       010VISTA          000000000521000000005230000000051600000000000000000005220000000133600
0202LOTE PADRAO                   EMBRAER     PN EJ      EMBR4       010VISTA          000000000024400000000248000000002360000000000000000000245000000013600
0202LOTE PADRAO                   TELESP      PN * EJ    TLPP4       010VISTA          000000000030500000000305000000002960000000000000000000305000012315000
0202LOTE PADRAO                   EMBRAER     ON EJ      EMBR3       010VISTA          000000000019300000000193000000001880000000000000000000190000000014300
0202LOTE PADRAO                   AMBEV       PN *       AMBV4       010VISTA          000000000578000000005780000000054900000000000000000005535000002531000
0202LOTE PADRAO                   USIMINAS    PNA        USIM5       010VISTA          000000000006300000000064000000000590000000000000000000061000000156000
0202LOTE PADRAO                   ELETROPAULO PN *       ELPL4       010VISTA          000000000062000000000620000000006030000000000000000000619000012497300
0202LOTE PADRAO                   TELE NORD CLPN *       TNEP4       010VISTA          000000000003900000000041000000000380000000000000000000041000435971000
0202LOTE PADRAO                   CEMIG       PN * EJ    CMIG4       010VISTA          000000000022800000000230000000002210000000000000000000223000059262700
0202LOTE PADRAO                   TELE CL SUL PN * EJ    TCSL4       010VISTA          000000000004700000000048000000000450000000000000000000048000199342000
0202LOTE PADRAO                   CEMIG       ON * EJ    CMIG3       010VISTA          000000000023400000000234000000002250000000000000000000232000000644800
0202LOTE PADRAO                   TELE CL SUL ON * EJ    TCSL3       010VISTA          000000000004000000000042000000000390000000000000000000041000160490000
0202LOTE PADRAO                   ITAUSA      PN         ITSA4       010VISTA          000000000002000000000020000000000200000000000000000000020000000651400
0202LOTE PADRAO                   SID TUBARAO PN *       CSTB4       010VISTA          000000000024900000000251000000002430000000000000000000250000012330000
0202LOTE PADRAO                   V C P       PN *       VCPA4       010VISTA          000000000060000000000615000000006000000000000000000000610000001728800
0202LOTE PADRAO                   BRADESPAR   PN *       BRAP4       010VISTA          000000000000870000000008800000000081000000000000000000008100362960000
0202LOTE PADRAO                   NET         PN         PLIM4       010VISTA          000000000000870000000009000000000081000000000000000000008200000872600
0202LOTE PADRAO                   TELE CTR OESPN * EJ    TCOC4       010VISTA          000000000007000000000070000000000670000000000000000000069000063610300
0202LOTE PADRAO                   GERDAU      PN * EJ    GGBR4       010VISTA          000000000016000000000162500000001540000000000000000000156000015040200
0202LOTE PADRAO                   BRASIL      ON *       BBAS3       010VISTA          000000000008000000000083000000000790000000000000000000079000002153300
