00BDIN9999BOVESPA 99992001042420010424
0101IBOVESPA                      0138940138940142070000000000000000002001042400000020010424014068000000
0202LOTE PADRAO                   EMBRATEL PARPN *       EBTP4       010VISTA          000000000021800000000218000000002100000000000000000000211000059451700
0202LOTE PADRAO                   EMBRATEL PARON *       EBTP3       010VISTA          000000000019600000000200000000001910000000000000000000192500034704000
0202LOTE PADRAO                   TRAN PAULISTPN * EJ    TRPL4       010VISTA          000000000007100000000075000000000710000000000000000000072000011385500
0202LOTE PADRAO                   TELEMAR     PN * EJ    TNLP4       010VISTA          000000000032800000000341000000003280000000000000000000338000204121000
0202LOTE PADRAO                   ITAUBANCO   PN * EJ    ITAU4       010VISTA          000000000159000000001615000000015500000000000000000001610000010518300
0202LOTE PADRAO                   TELEMAR     ON * EJ    TNLP3       010VISTA          000000000029900000000307000000002960000000000000000000304000018824100
0202LOTE PADRAO                   SID NACIONALON *       CSNA3       010VISTA          000000000050000000000520000000004970000000000000000000500000007390200
0202LOTE PADRAO                   TELE LEST CLPN *       TLCP4       010VISTA          000000000001540000000015000000000151000000000000000000015600064437500
0202LOTE PADRAO                   IPIRANGA PETPN *       PTIP4       010VISTA          000000000016300000000163000000001600000000000000000000160000001090000
0202LOTE PADRAO                   BRASIL T PARPN *       BRTP4       010VISTA          000000000017100000000180000000001710000000000000000000178000061838000
0202LOTE PADRAO                   BRASIL T PARON *       BRTP3       010VISTA          000000000017500000000183000000001710000000000000000000180000015594800
0202LOTE PADRAO                   ACESITA     PN *       ACES4       010VISTA          000000000000890000000009000000000085000000000000000000008500100062000
0202LOTE PADRAO                   PETROBRAS   PN         PETR4       010VISTA          000000000050800000000521000000005020000000000000000000518000000103100
0202LOTE PADRAO                   ELETROBRAS  PNB*       ELET6       010VISTA          000000000030700000000317500000003010000000000000000000311000045542700
0202LOTE PADRAO                   PETROBRAS   ON         PETR3       010VISTA          000000000055700000000577000000005520000000000000000000575000000042900
0202LOTE PADRAO                   COMGAS      PNA*       CGAS5       010VISTA          000000000124900000001249000000011520000000000000000001152000002241500
0202LOTE PADRAO                   SOUZA CRUZ  ON EJ      CRUZ3       010VISTA          000000000011000000000110000000001050000000000000000000105000000021800
0202LOTE PADRAO                   CELESC      PNB        CLSC6       010VISTA          000000000000530000000005300000000050000000000000000000005000000105100
0202LOTE PADRAO                   ELETROBRAS  ON *       ELET3       010VISTA          000000000033500000000350000000003350000000000000000000350000020560200
0202LOTE PADRAO                   BRADESCO    PN * EJ    BBDC4       010VISTA          000000000010750000000110000000001060000000000000000000108000111910000
0202LOTE PADRAO                   CESP        PN *       CESP4       010VISTA          000000000017200000000178000000001700000000000000000000173000015612700
0202LOTE PADRAO                   LIGHT       ON *       LIGH3       010VISTA          000000000158000000001590000000015490000000000000000001550000001023500
0202LOTE PADRAO                   TELESP CL PAPN *       TSPP4       010VISTA          000000000013300000000136000000001300000000000000000000134000065796600
0202LOTE PADRAO                   VALE R DOCE PNA        VALE5       010VISTA          000000000052700000000527000000005160000000000000000000517000000023400
0202LOTE PADRAO                   COPEL       PNB*       CPLE6       010VISTA          000000000015600000000160000000001550000000000000000000155000011536000
0202LOTE PADRAO                   VALE R DOCE ON         VALE3       010VISTA          000000000048500000000485000000004840000000000000000000484000000000300
0202LOTE PADRAO                   ARACRUZ     PNB        ARCZ6       010VISTA          000000000003100000000031000000000300000000000000000000030000000114000
0202LOTE PADRAO                   TELEMIG PARTPN *       TMCP4       010VISTA          000000000003800000000040000000000380000000000000000000040000069727900
0202LOTE PADRAO                   BRASIL TELECPN *       BRTO4       010VISTA          000000000012000000000125000000001160000000000000000000123000061599500
0202LOTE PADRAO                   SABESP      ON *       SBSP3       010VISTA          000000000176000000001819000000017600000000000000000001780000000672900
0202LOTE PADRAO                   BRASKEM     PNA*       BRKM5       010VISTA          000000000569900000005699000000055100000000000000000005510000000169300
0202LOTE PADRAO                   EMBRAER     PN EJ      EMBR4       010VISTA          000000000022800000000233000000002260000000000000000000232500000008000
0202LOTE PADRAO                   TELESP      PN * EJ    TLPP4       010VISTA          000000000029500000000295000000002800000000000000000000288000008455700
0202LOTE PADRAO                   EMBRAER     ON EJ      EMBR3       010VISTA          000000000017300000000178000000001730000000000000000000176000000017700
0202LOTE PADRAO                   AMBEV       PN *       AMBV4       010VISTA          000000000480000000004991000000047000000000000000000004731000001113500
0202LOTE PADRAO                   USIMINAS    PNA        USIM5       010VISTA          000000000008500000000086000000000820000000000000000000083000000051000
0202LOTE PADRAO                   ELETROPAULO PN *       ELPL4       010VISTA          000000000064900000000649000000006020000000000000000000610000001672900
0202LOTE PADRAO                   TELE NORD CLPN *       TNEP4       010VISTA          000000000002800000000029800000000280000000000000000000029000051228800
0202LOTE PADRAO                   CEMIG       PN * EJ    CMIG4       010VISTA          000000000026000000000261000000002530000000000000000000255000038186200
0202LOTE PADRAO                   TELE CL SUL PN * EJ    TCSL4       010VISTA          000000000003900000000040000000000390000000000000000000039000057341000
0202LOTE PADRAO                   CEMIG       ON * EJ    CMIG3       010VISTA          000000000025000000000264000000002450000000000000000000251000001970300
0202LOTE PADRAO                   TELE CL SUL ON * EJ    TCSL3       010VISTA          000000000003500000000036000000000340000000000000000000034000015679600
0202LOTE PADRAO                   ITAUSA      PN         ITSA4       010VISTA          000000000001800000000018000000000174000000000000000000017500000203200
0202LOTE PADRAO                   SID TUBARAO PN *       CSTB4       010VISTA          000000000021300000000219000000002100000000000000000000210000003621700
0202LOTE PADRAO                   V C P       PN *       VCPA4       010VISTA          000000000057000000000570000000005400000000000000000000557000000831800
0202LOTE PADRAO                   BRADESPAR   PN *       BRAP4       010VISTA          000000000000920000000009200000000088000000000000000000009100297141000
0202LOTE PADRAO                   NET         PN         PLIM4       010VISTA          000000000001100000000011000000000110000000000000000000011000001309800
0202LOTE PADRAO                   TELE CTR OESPN * EJ    TCOC4       010VISTA          000000000005200000000054000000000520000000000000000000052000063990200
0202LOTE PADRAO                   GERDAU      PN * EJ    GGBR4       010VISTA          000000000018000000000186000000001800000000000000000000183000025890800
0202LOTE PADRAO                   BRASIL      ON *       BBAS3       010VISTA          000000000008900000000090000000000810000000000000000000083000003374200
