00BDIN9999BOVESPA 99992001090420010904
0101IBOVESPA                      0128120127670129470000000000000000002001090400000020010904012767000000
0202LOTE PADRAO                   EMBRATEL PARPN *       EBTP4       010VISTA          000000000011300000000114000000001050000000000000000000105000136574000
0202LOTE PADRAO                   EMBRATEL PARON *       EBTP3       010VISTA          000000000012000000000121000000001120000000000000000000112000028019500
0202LOTE PADRAO                   TRAN PAULISTPN * EJ    TRPL4       010VISTA          000000000006500000000067000000000650000000000000000000066000018758300
0202LOTE PADRAO                   TELEMAR     PN * EJ    TNLP4       010VISTA          000000000027800000000282000000002760000000000000000000277000158043000
0202LOTE PADRAO                   ITAUBANCO   PN * EJ    ITAU4       010VISTA          000000000173900000001755000000017250000000000000000001730000004115600
0202LOTE PADRAO                   TELEMAR     ON * EJ    TNLP3       010VISTA          000000000025100000000261000000002510000000000000000000258000015800500
0202LOTE PADRAO                   SID NACIONALON *       CSNA3       010VISTA          000000000035100000000360000000003510000000000000000000352000003727000
0202LOTE PADRAO                   TELE LEST CLPN *       TLCP4       010VISTA          000000000001300000000013000000000120000000000000000000012000056511800
0202LOTE PADRAO                   CRT CELULAR PNA* EJ    CRTP5       010VISTA          000000000914000000009140000000089100000000000000000009000000000404300
0202LOTE PADRAO                   IPIRANGA PETPN *       PTIP4       010VISTA          000000000013000000000132000000001290000000000000000000129000000500000
0202LOTE PADRAO                   BRASIL T PARPN *       BRTP4       010VISTA          000000000014500000000146000000001400000000000000000000141000065691000
0202LOTE PADRAO                   BRASIL T PARON *       BRTP3       010VISTA          000000000013000000000133000000001290000000000000000000129000006356500
0202LOTE PADRAO                   ACESITA     PN *       ACES4       010VISTA          000000000000540000000005500000000053000000000000000000005400132274000
0202LOTE PADRAO                   PETROBRAS   PN         PETR4       010VISTA          000000000054700000000567000000005460000000000000000000567000000072600
0202LOTE PADRAO                   ELETROBRAS  PNB*       ELET6       010VISTA          000000000031600000000320000000003150000000000000000000316000021716500
0202LOTE PADRAO                   PETROBRAS   ON         PETR3       010VISTA          000000000057200000000593000000005710000000000000000000591000000053400
0202LOTE PADRAO                   COMGAS      PNA*       CGAS5       010VISTA          000000000127000000001298000000012700000000000000000001280000001013000
0202LOTE PADRAO                   SOUZA CRUZ  ON EJ      CRUZ3       010VISTA          000000000011400000000115000000001130000000000000000000115000000016700
0202LOTE PADRAO                   ELETROBRAS  ON *       ELET3       010VISTA          000000000035500000000362000000003460000000000000000000346000011433000
0202LOTE PADRAO                   CELESC      PNB        CLSC6       010VISTA          000000000000430000000004300000000041000000000000000000004100000431900
0202LOTE PADRAO                   BRADESCO    PN * EJ    BBDC4       010VISTA          000000000011500000000117000000001150000000000000000000115000102476000
0202LOTE PADRAO                   CESP        PN *       CESP4       010VISTA          000000000012700000000130000000001260000000000000000000129000018508700
0202LOTE PADRAO                   LIGHT       ON *       LIGH3       010VISTA          000000000115000000001219000000011500000000000000000001180000000477700
0202LOTE PADRAO                   TELESP CL PAPN *       TSPP4       010VISTA          000000000013400000000134000000001180000000000000000000118000190874000
0202LOTE PADRAO                   VALE R DOCE PNA        VALE5       010VISTA          000000000050000000000508000000005000000000000000000000507500000060300
0202LOTE PADRAO                   COPEL       PNB*       CPLE6       010VISTA          000000000018300000000186000000001810000000000000000000185000016913100
0202LOTE PADRAO                   VALE R DOCE ON         VALE3       010VISTA          000000000051000000000511000000005070000000000000000000510000000046300
0202LOTE PADRAO                   ARACRUZ     PNB        ARCZ6       010VISTA          000000000004200000000045000000000420000000000000000000044000000060000
0202LOTE PADRAO                   TELEMIG PARTPN *       TMCP4       010VISTA          000000000003500000000036000000000350000000000000000000035000112898000
0202LOTE PADRAO                   BRASIL TELECPN *       BRTO4       010VISTA          000000000010200000000102000000000980000000000000000000099000085422600
0202LOTE PADRAO                   SABESP      ON *       SBSP3       010VISTA          000000000165000000001650000000016210000000000000000001630000000719000
0202LOTE PADRAO                   BRASKEM     PNA*       BRKM5       010VISTA          000000000427000000004540000000042360000000000000000004430000000602100
0202LOTE PADRAO                   EMBRAER     PN EJ      EMBR4       010VISTA          000000000016500000000168000000001650000000000000000000165000000015700
0202LOTE PADRAO                   TELESP      PN * EJ    TLPP4       010VISTA          000000000025700000000258000000002550000000000000000000255000021800100
0202LOTE PADRAO                   EMBRAER     ON EJ      EMBR3       010VISTA          000000000013900000000139000000001360000000000000000000136000000013200
0202LOTE PADRAO                   AMBEV       PN *       AMBV4       010VISTA          000000000480000000004880000000048000000000000000000004850000000656600
0202LOTE PADRAO                   USIMINAS    PNA        USIM5       010VISTA          000000000005800000000059000000000580000000000000000000058000000051300
0202LOTE PADRAO                   ELETROPAULO PN *       ELPL4       010VISTA          000000000070500000000735000000007040000000000000000000725000002985300
0202LOTE PADRAO                   TELE NORD CLPN *       TNEP4       010VISTA          000000000002900000000029800000000280000000000000000000028000073867900
0202LOTE PADRAO                   CEMIG       PN * EJ    CMIG4       010VISTA          000000000027000000000274000000002650000000000000000000270000043127300
0202LOTE PADRAO                   TELE CL SUL PN * EJ    TCSL4       010VISTA          000000000003300000000033000000000310000000000000000000032000040306300
0202LOTE PADRAO                   CEMIG       ON * EJ    CMIG3       010VISTA          000000000027000000000270000000002550000000000000000000265000002200000
0202LOTE PADRAO                   TELE CL SUL ON * EJ    TCSL3       010VISTA          000000000002900000000029000000000277000000000000000000027000022014800
0202LOTE PADRAO                   ITAUSA      PN         ITSA4       010VISTA          000000000001940000000019500000000190000000000000000000019400000287700
0202LOTE PADRAO                   SID TUBARAO PN *       CSTB4       010VISTA          000000000019600000000198000000001900000000000000000000195000012858600
0202LOTE PADRAO                   V C P       PN *       VCPA4       010VISTA          000000000071900000000740000000007150000000000000000000725000003510000
0202LOTE PADRAO                   BRADESPAR   PN *       BRAP4       010VISTA          000000000000630000000006400000000062000000000000000000006200220616000
0202LOTE PADRAO                   NET         PN         PLIM4       010VISTA          000000000000900000000009500000000090000000000000000000009100001466200
0202LOTE PADRAO                   TELE CTR OESPN * EJ    TCOC4       010VISTA          000000000005000000000052000000000500000000000000000000050000069502700
0202LOTE PADRAO                   GERDAU      PN * EJ    GGBR4       010VISTA          000000000016300000000163000000001600000000000000000000160000016380600
0202LOTE PADRAO                   BRASIL      ON *       BBAS3       010VISTA          000000000009100000000092000000000900000000000000000000090000013601000
