00BDIN9999BOVESPA 99992001121920011219
0101IBOVESPA                      0134050132840135080000000000000000002001121900000020011219013290000000
0202LOTE PADRAO                   EMBRATEL PARPN *       EBTP4       010VISTA          000000000009700000000099000000000950000000000000000000095000156317000
0202LOTE PADRAO                   EMBRATEL PARON *       EBTP3       010VISTA          000000000011100000000114000000001070000000000000000000108000033199800
0202LOTE PADRAO                   TRAN PAULISTPN * EJ    TRPL4       010VISTA          000000000006400000000064000000000610000000000000000000061000018762800
0202LOTE PADRAO                   TELEMAR     PN * EJ    TNLP4       010VISTA          000000000035000000000362000000003500000000000000000000357000295130000
0202LOTE PADRAO                   ITAUBANCO   PN * EJ    ITAU4       010VISTA          000000000176900000001783000000017400000000000000000001740000013378000
0202LOTE PADRAO                   TELEMAR     ON * EJ    TNLP3       010VISTA          000000000030300000000310000000003030000000000000000000304000017523200
0202LOTE PADRAO                   SID NACIONALON *       CSNA3       010VISTA          000000000036600000000367000000003600000000000000000000360000005611000
0202LOTE PADRAO                   TELE LEST CLPN *       TLCP4       010VISTA          000000000000890000000009100000000087000000000000000000008700204128000
0202LOTE PADRAO                   CRT CELULAR PNA* EJ    CRTP5       010VISTA          000000000474000000004740000000046300000000000000000004700000002138600
0202LOTE PADRAO                   IPIRANGA PETPN *       PTIP4       010VISTA          000000000013000000000130000000001250000000000000000000125000002624600
0202LOTE PADRAO                   BRASIL T PARPN *       BRTP4       010VISTA          000000000018800000000191000000001850000000000000000000190000070376500
0202LOTE PADRAO                   BRASIL T PARON *       BRTP3       010VISTA          000000000018800000000188000000001850000000000000000000188000010994000
0202LOTE PADRAO                   ACESITA     PN *       ACES4       010VISTA          000000000000730000000007500000000071000000000000000000007100250590000
0202LOTE PADRAO                   PETROBRAS   PN         PETR4       010VISTA          000000000048200000000494000000004730000000000000000000490000000115100
0202LOTE PADRAO                   ELETROBRAS  PNB*       ELET6       010VISTA          000000000029300000000293000000002790000000000000000000283000109456000
0202LOTE PADRAO                   PETROBRAS   ON         PETR3       010VISTA          000000000049500000000512500000004880000000000000000000507000000127900
0202LOTE PADRAO                   COMGAS      PNA*       CGAS5       010VISTA          000000000093900000000940000000009000000000000000000000910000001267700
0202LOTE PADRAO                   SOUZA CRUZ  ON EJ      CRUZ3       010VISTA          000000000013900000000140000000001350000000000000000000136000000023600
0202LOTE PADRAO                   ELETROBRAS  ON *       ELET3       010VISTA          000000000030100000000308000000002910000000000000000000292000038771000
0202LOTE PADRAO                   CELESC      PNB        CLSC6       010VISTA          000000000000460000000004700000000045000000000000000000004500000457400
0202LOTE PADRAO                   BRADESCO    PN * EJ    BBDC4       010VISTA          000000000011600000000119000000001140000000000000000000115000156090000
0202LOTE PADRAO                   CESP        PN *       CESP4       010VISTA          000000000017400000000176000000001660000000000000000000166000013238300
0202LOTE PADRAO                   LIGHT       ON *       LIGH3       010VISTA          000000000119500000001210000000011500000000000000000001150000000468900
0202LOTE PADRAO                   TELESP CL PAPN *       TSPP4       010VISTA          000000000008000000000081000000000796000000000000000000081000323936000
0202LOTE PADRAO                   VALE R DOCE PNA        VALE5       010VISTA          000000000053500000000538000000005270000000000000000000531000000062700
0202LOTE PADRAO                   COPEL       PNB*       CPLE6       010VISTA          000000000016800000000171000000001630000000000000000000166000031360900
0202LOTE PADRAO                   VALE R DOCE ON         VALE3       010VISTA          000000000051800000000518000000005100000000000000000000512000000004400
0202LOTE PADRAO                   ARACRUZ     PNB        ARCZ6       010VISTA          000000000004400000000044000000000400000000000000000000042500000068200
0202LOTE PADRAO                   TELEMIG PARTPN *       TMCP4       010VISTA          000000000004000000000041000000000394000000000000000000040000195505000
0202LOTE PADRAO                   BRASIL TELECPN *       BRTO4       010VISTA          000000000013300000000134000000001310000000000000000000131000139444000
0202LOTE PADRAO                   SABESP      ON *       SBSP3       010VISTA          000000000133500000001369000000013350000000000000000001350000003198200
0202LOTE PADRAO                   BRASKEM     PNA*       BRKM5       010VISTA          000000000446000000004599000000044200000000000000000004550000000568800
0202LOTE PADRAO                   EMBRAER     PN EJ      EMBR4       010VISTA          000000000012600000000126000000001230000000000000000000125000000069100
0202LOTE PADRAO                   TELESP      PN * EJ    TLPP4       010VISTA          000000000031100000000316000000003010000000000000000000307000019821000
0202LOTE PADRAO                   EMBRAER     ON EJ      EMBR3       010VISTA          000000000011500000000115000000001130000000000000000000113000000031100
0202LOTE PADRAO                   AMBEV       PN *       AMBV4       010VISTA          000000000476900000004769000000046700000000000000000004670000003122300
0202LOTE PADRAO                   USIMINAS    PNA        USIM5       010VISTA          000000000006250000000062000000000600000000000000000000061000000085500
0202LOTE PADRAO                   ELETROPAULO PN *       ELPL4       010VISTA          000000000078000000000805000000007600000000000000000000768000003544500
0202LOTE PADRAO                   TELE NORD CLPN *       TNEP4       010VISTA          000000000003200000000033000000000320000000000000000000032500106970000
0202LOTE PADRAO                   CEMIG       PN * EJ    CMIG4       010VISTA          000000000033700000000342000000003320000000000000000000336000057124000
0202LOTE PADRAO                   TELE CL SUL PN * EJ    TCSL4       010VISTA          000000000003700000000037500000000360000000000000000000036000106347000
0202LOTE PADRAO                   CEMIG       ON * EJ    CMIG3       010VISTA          000000000030500000000305000000002900000000000000000000290000002460000
0202LOTE PADRAO                   TELE CL SUL ON * EJ    TCSL3       010VISTA          000000000003200000000032000000000300000000000000000000031000020363600
0202LOTE PADRAO                   ITAUSA      PN         ITSA4       010VISTA          000000000002100000000022000000000210000000000000000000021000000726100
0202LOTE PADRAO                   V C P       PN *       VCPA4       010VISTA          000000000077800000000778000000007500000000000000000000760000004068400
0202LOTE PADRAO                   SID TUBARAO PN *       CSTB4       010VISTA          000000000022000000000228000000002200000000000000000000223000006671000
0202LOTE PADRAO                   BRADESPAR   PN *       BRAP4       010VISTA          000000000000870000000008900000000084000000000000000000008400270618000
0202LOTE PADRAO                   NET         PN         PLIM4       010VISTA          000000000000810000000008300000000079000000000000000000007900000696800
0202LOTE PADRAO                   TELE CTR OESPN * EJ    TCOC4       010VISTA          000000000005300000000054000000000520000000000000000000053000150814000
0202LOTE PADRAO                   TELEMAR N L PNA* EJ    TMAR5       010VISTA          000000000057100000000583000000005710000000000000000000576000039888600
0202LOTE PADRAO                   GERDAU      PN * EJ    GGBR4       010VISTA          000000000023000000000231000000002200000000000000000000220000012543000
0202LOTE PADRAO                   BRASIL      ON *       BBAS3       010VISTA          000000000010600000000109000000001050000000000000000000105000005157700
