00BDIN9999BOVESPA 99992001011720010117
0101IBOVESPA                      0167480167450172550000000000000000002001011700000020010117017191000000
0202LOTE PADRAO                   EMBRATEL PARPN *       EBTP4       010VISTA          000000000032000000000332000000003200000000000000000000329000093789100
0202LOTE PADRAO                   EMBRATEL PARON *       EBTP3       010VISTA          000000000025300000000265000000002530000000000000000000263000030322100
0202LOTE PADRAO                   TRAN PAULISTPN * EJ    TRPL4       010VISTA          000000000008500000000085000000000800000000000000000000081000018837700
0202LOTE PADRAO                   TELEMAR     PN * EJ    TNLP4       010VISTA          000000000046700000000482000000004650000000000000000000478000213081000
0202LOTE PADRAO                   ITAUBANCO   PN * EJ    ITAU4       010VISTA          000000000191900000001920000000018750000000000000000001905000004393000
0202LOTE PADRAO                   TELEMAR     ON * EJ    TNLP3       010VISTA          000000000037000000000390000000003680000000000000000000380000017186800
0202LOTE PADRAO                   SID NACIONALON *       CSNA3       010VISTA          000000000065000000000655000000006500000000000000000000655000018470100
0202LOTE PADRAO                   TELE LEST CLPN *       TLCP4       010VISTA          000000000001400000000014800000000130000000000000000000014700095237900
0202LOTE PADRAO                   CRT CELULAR PNA* EJ    CRTP5       010VISTA          000000000750000000007550000000073000000000000000000007500000000161200
0202LOTE PADRAO                   IPIRANGA PETPN *       PTIP4       010VISTA          000000000017000000000172500000001680000000000000000000172500004124000
0202LOTE PADRAO                   BRASIL T PARPN *       BRTP4       010VISTA          000000000022800000000233000000002250000000000000000000233000088524600
0202LOTE PADRAO                   BRASIL T PARON *       BRTP3       010VISTA          000000000019500000000198000000001910000000000000000000193000029669500
0202LOTE PADRAO                   ACESITA     PN *       ACES4       010VISTA          000000000001100000000011000000000110000000000000000000011000307914000
0202LOTE PADRAO                   PETROBRAS   PN         PETR4       010VISTA          000000000052900000000547000000005290000000000000000000533000000234900
0202LOTE PADRAO                   ELETROBRAS  PNB*       ELET6       010VISTA          000000000036500000000379000000003620000000000000000000377000061869400
0202LOTE PADRAO                   PETROBRAS   ON         PETR3       010VISTA          000000000056700000000592000000005660000000000000000000573000000101500
0202LOTE PADRAO                   COMGAS      PNA*       CGAS5       010VISTA          000000000141900000001419000000013400000000000000000001359000003978600
0202LOTE PADRAO                   SOUZA CRUZ  ON EJ      CRUZ3       010VISTA          000000000010500000000105000000001020000000000000000000102000000028700
0202LOTE PADRAO                   ELETROBRAS  ON *       ELET3       010VISTA          000000000038700000000403000000003870000000000000000000397000028240500
0202LOTE PADRAO                   CELESC      PNB        CLSC6       010VISTA          000000000000660000000006900000000065000000000000000000006800000276200
0202LOTE PADRAO                   BRADESCO    PN * EJ    BBDC4       010VISTA          000000000013400000000136000000001340000000000000000000135000002048300
0202LOTE PADRAO                   CESP        PN *       CESP4       010VISTA          000000000020750000000216000000002075000000000000000000215000010331800
0202LOTE PADRAO                   LIGHT       ON *       LIGH3       010VISTA          000000000243100000002480000000024300000000000000000002474000001447800
0202LOTE PADRAO                   TELESP CL PAPN *       TSPP4       010VISTA          000000000020800000000220000000002060000000000000000000211000093293800
0202LOTE PADRAO                   VALE R DOCE PNA        VALE5       010VISTA          000000000047500000000485000000004725000000000000000000477000000030800
0202LOTE PADRAO                   COPEL       PNB*       CPLE6       010VISTA          000000000017700000000184000000001770000000000000000000183000019150700
0202LOTE PADRAO                   VALE R DOCE ON         VALE3       010VISTA          000000000043000000000448000000004300000000000000000000440000000000900
0202LOTE PADRAO                   ARACRUZ     PNB        ARCZ6       010VISTA          000000000002900000000030000000000290000000000000000000029800000123700
0202LOTE PADRAO                   TELEMIG PARTPN *       TMCP4       010VISTA          000000000005790000000060000000000571000000000000000000059000170884000
0202LOTE PADRAO                   BRASIL TELECPN *       BRTO4       010VISTA          000000000017300000000173000000001660000000000000000000170000081821300
0202LOTE PADRAO                   SABESP      ON *       SBSP3       010VISTA          000000000190000000001930000000018990000000000000000001925000001283400
0202LOTE PADRAO                   BRASKEM     PNA*       BRKM5       010VISTA          000000000646000000006890000000064600000000000000000006800000000539100
0202LOTE PADRAO                   EMBRAER     PN EJ      EMBR4       010VISTA          000000000018100000000188000000001810000000000000000000186000000023700
0202LOTE PADRAO                   TELESP      PN * EJ    TLPP4       010VISTA          000000000027700000000280000000002750000000000000000000278000012007600
0202LOTE PADRAO                   EMBRAER     ON EJ      EMBR3       010VISTA          000000000014600000000153000000001460000000000000000000152000000040000
0202LOTE PADRAO                   AMBEV       PN *       AMBV4       010VISTA          000000000472000000004900000000047200000000000000000004840000001107200
0202LOTE PADRAO                   USIMINAS    PNA        USIM5       010VISTA          000000000010500000000109000000001040000000000000000000107500000039300
0202LOTE PADRAO                   ELETROPAULO PN *       ELPL4       010VISTA          000000000108000000001100000000010800000000000000000001090000001748900
0202LOTE PADRAO                   TELE NORD CLPN *       TNEP4       010VISTA          000000000004200000000043000000000420000000000000000000043000068594500
0202LOTE PADRAO                   CEMIG       PN * EJ    CMIG4       010VISTA          000000000032300000000337000000003200000000000000000000333000058292000
0202LOTE PADRAO                   TELE CL SUL PN * EJ    TCSL4       010VISTA          000000000005300000000053000000000510000000000000000000051000120290000
0202LOTE PADRAO                   CEMIG       ON * EJ    CMIG3       010VISTA          000000000027600000000286000000002760000000000000000000286000003841100
0202LOTE PADRAO                   TELE CL SUL ON * EJ    TCSL3       010VISTA          000000000004500000000047000000000450000000000000000000045000023425000
0202LOTE PADRAO                   ITAUSA      PN         ITSA4       010VISTA          000000000002000000000020000000000198000000000000000000020000000190700
0202LOTE PADRAO                   SID TUBARAO PN *       CSTB4       010VISTA          000000000023000000000234000000002300000000000000000000233000004090300
0202LOTE PADRAO                   V C P       PN *       VCPA4       010VISTA          000000000057700000000589000000005750000000000000000000580000005602200
0202LOTE PADRAO                   BRADESPAR   PN *       BRAP4       010VISTA          000000000001100000000012000000000110000000000000000000012000479476000
0202LOTE PADRAO                   NET         PN         PLIM4       010VISTA          000000000002200000000023000000000227000000000000000000023000000813200
0202LOTE PADRAO                   TELE CTR OESPN * EJ    TCOC4       010VISTA          000000000007700000000081000000000770000000000000000000081000078259900
0202LOTE PADRAO                   GERDAU      PN * EJ    GGBR4       010VISTA          000000000019300000000195000000001900000000000000000000192000024885300
0202LOTE PADRAO                   BRASIL      ON *       BBAS3       010VISTA          000000000008000000000081000000000800000000000000000000080000011489300
