00BDIN9999BOVESPA 99992001010320010103
0101IBOVESPA                      0154250152510165990000000000000000002001010300000020010103016599000000
0202LOTE PADRAO                   EMBRATEL PARPN *       EBTP4       010VISTA          000000000028900000000322000000002850000000000000000000322000096175900
0202LOTE PADRAO                   EMBRATEL PARON *       EBTP3       010VISTA          000000000021600000000250000000002150000000000000000000249000025291000
0202LOTE PADRAO                   TRAN PAULISTPN * EJ    TRPL4       010VISTA          000000000006790000000073000000000650000000000000000000073000031300700
0202LOTE PADRAO                   TELEMAR     PN * EJ    TNLP4       010VISTA          000000000042300000000450000000004180000000000000000000447000270202000
0202LOTE PADRAO                   ITAUBANCO   PN * EJ    ITAU4       010VISTA          000000000179000000001900000000017800000000000000000001860000005559000
0202LOTE PADRAO                   TELEMAR     ON * EJ    TNLP3       010VISTA          000000000034800000000350000000003180000000000000000000348000021661900
0202LOTE PADRAO                   SID NACIONALON *       CSNA3       010VISTA          000000000062900000000645000000006000000000000000000000635000057182300
0202LOTE PADRAO                   TELE LEST CLPN *       TLCP4       010VISTA          000000000001300000000014000000000130000000000000000000014000201668000
0202LOTE PADRAO                   CRT CELULAR PNA* EJ    CRTP5       010VISTA          000000000620000000006700000000062000000000000000000006500000001368500
0202LOTE PADRAO                   IPIRANGA PETPN *       PTIP4       010VISTA          000000000016200000000171000000001610000000000000000000171000011958000
0202LOTE PADRAO                   BRASIL T PARPN *       BRTP4       010VISTA          000000000022000000000239000000002100000000000000000000238000103982000
0202LOTE PADRAO                   BRASIL T PARON *       BRTP3       010VISTA          000000000018800000000192000000001750000000000000000000192500026541400
0202LOTE PADRAO                   ACESITA     PN *       ACES4       010VISTA          000000000001000000000011000000000100000000000000000000011000374252000
0202LOTE PADRAO                   PETROBRAS   PN         PETR4       010VISTA          000000000047100000000497000000004660000000000000000000496000000189000
0202LOTE PADRAO                   ELETROBRAS  PNB*       ELET6       010VISTA          000000000032600000000362000000003260000000000000000000362000056655500
0202LOTE PADRAO                   PETROBRAS   ON         PETR3       010VISTA          000000000049500000000530000000004950000000000000000000530000000039500
0202LOTE PADRAO                   COMGAS      PNA*       CGAS5       010VISTA          000000000124000000001270000000011900000000000000000001230000008106000
0202LOTE PADRAO                   SOUZA CRUZ  ON EJ      CRUZ3       010VISTA          000000000008300000000094000000000825000000000000000000094000000037600
0202LOTE PADRAO                   ELETROBRAS  ON *       ELET3       010VISTA          000000000032600000000370000000003260000000000000000000369000028459600
0202LOTE PADRAO                   CELESC      PNB        CLSC6       010VISTA          000000000000570000000006400000000057000000000000000000006400000382900
0202LOTE PADRAO                   BRADESCO    PN * EJ    BBDC4       010VISTA          000000000013500000000140000000001300000000000000000000139000003896900
0202LOTE PADRAO                   CESP        PN *       CESP4       010VISTA          000000000019000000000213000000001860000000000000000000209000029100900
0202LOTE PADRAO                   LIGHT       ON *       LIGH3       010VISTA          000000000211000000002300000000021000000000000000000002294000002197800
0202LOTE PADRAO                   TELESP CL PAPN *       TSPP4       010VISTA          000000000019800000000230000000001910000000000000000000230000100212000
0202LOTE PADRAO                   VALE R DOCE PNA        VALE5       010VISTA          000000000047600000000485000000004420000000000000000000479000000076200
0202LOTE PADRAO                   COPEL       PNB*       CPLE6       010VISTA          000000000015500000000168000000001510000000000000000000167000039049800
0202LOTE PADRAO                   VALE R DOCE ON         VALE3       010VISTA          000000000043000000000460000000004270000000000000000000460000000002900
0202LOTE PADRAO                   ARACRUZ     PNB        ARCZ6       010VISTA          000000000002700000000029000000000270000000000000000000029400000128800
0202LOTE PADRAO                   TELEMIG PARTPN *       TMCP4       010VISTA          000000000005600000000062000000000560000000000000000000062000041843800
0202LOTE PADRAO                   BRASIL TELECPN *       BRTO4       010VISTA          000000000016000000000173000000001600000000000000000000173000111870000
0202LOTE PADRAO                   SABESP      ON *       SBSP3       010VISTA          000000000172500000001959000000017200000000000000000001948000005691400
0202LOTE PADRAO                   BRASKEM     PNA*       BRKM5       010VISTA          000000000605000000006300000000060000000000000000000006299000000259400
0202LOTE PADRAO                   EMBRAER     PN EJ      EMBR4       010VISTA          000000000019100000000205000000001900000000000000000000202000000062000
0202LOTE PADRAO                   TELESP      PN * EJ    TLPP4       010VISTA          000000000027500000000285000000002560000000000000000000285000010594900
0202LOTE PADRAO                   EMBRAER     ON EJ      EMBR3       010VISTA          000000000012900000000151000000001275000000000000000000150000000141200
0202LOTE PADRAO                   AMBEV       PN *       AMBV4       010VISTA          000000000478000000004900000000047310000000000000000004750000002410400
0202LOTE PADRAO                   USIMINAS    PNA        USIM5       010VISTA          000000000008900000000105000000000890000000000000000000101000000044700
0202LOTE PADRAO                   ELETROPAULO PN *       ELPL4       010VISTA          000000000089900000000970000000008900000000000000000000959000002575100
0202LOTE PADRAO                   TELE NORD CLPN *       TNEP4       010VISTA          000000000004000000000043000000000390000000000000000000042500095939900
0202LOTE PADRAO                   CEMIG       PN * EJ    CMIG4       010VISTA          000000000027500000000306000000002740000000000000000000305000055049900
0202LOTE PADRAO                   TELE CL SUL PN * EJ    TCSL4       010VISTA          000000000004900000000054000000000470000000000000000000054000159131000
0202LOTE PADRAO                   CEMIG       ON * EJ    CMIG3       010VISTA          000000000022300000000258000000002230000000000000000000255000001830000
0202LOTE PADRAO                   TELE CL SUL ON * EJ    TCSL3       010VISTA          000000000003700000000044000000000370000000000000000000044000039270300
0202LOTE PADRAO                   ITAUSA      PN         ITSA4       010VISTA          000000000001800000000020000000000180000000000000000000020000000602700
0202LOTE PADRAO                   SID TUBARAO PN *       CSTB4       010VISTA          000000000020800000000225000000002080000000000000000000222000006623700
0202LOTE PADRAO                   V C P       PN *       VCPA4       010VISTA          000000000052700000000550000000005170000000000000000000550000007377900
0202LOTE PADRAO                   BRADESPAR   PN *       BRAP4       010VISTA          000000000001100000000012500000000110000000000000000000012401124770000
0202LOTE PADRAO                   NET         PN         PLIM4       010VISTA          000000000002000000000023000000000200000000000000000000022000002174500
0202LOTE PADRAO                   TELE CTR OESPN * EJ    TCOC4       010VISTA          000000000006500000000069000000000640000000000000000000069000078661700
0202LOTE PADRAO                   GERDAU      PN * EJ    GGBR4       010VISTA          000000000016800000000185000000001650000000000000000000181000022175200
0202LOTE PADRAO                   BRASIL      ON *       BBAS3       010VISTA          000000000006200000000068000000000625000000000000000000067900013849300
