00BDIN9999BOVESPA 99992001092720010927
0101IBOVESPA                      0099960097050104620000000000000000002001092700000020010927010405000000
0202LOTE PADRAO                   EMBRATEL PARPN *       EBTP4       010VISTA          000000000007100000000073000000000660000000000000000000071000237638000
0202LOTE PADRAO                   EMBRATEL PARON *       EBTP3       010VISTA          000000000007800000000080000000000720000000000000000000078000039273000
0202LOTE PADRAO                   TRAN PAULISTPN * EJ    TRPL4       010VISTA          000000000004500000000047000000000430000000000000000000045000022020000
0202LOTE PADRAO                   TELEMAR     PN * EJ    TNLP4       010VISTA          000000000021900000000239000000002160000000000000000000236000286480000
0202LOTE PADRAO                   ITAUBANCO   PN * EJ    ITAU4       010VISTA          000000000162900000001645000000015550000000000000000001645000013454100
0202LOTE PADRAO                   TELEMAR     ON * EJ    TNLP3       010VISTA          000000000020900000000220000000002000000000000000000000218000010221300
0202LOTE PADRAO                   SID NACIONALON *       CSNA3       010VISTA          000000000027300000000285000000002680000000000000000000279000008336500
0202LOTE PADRAO                   TELE LEST CLPN *       TLCP4       010VISTA          000000000000590000000006500000000057000000000000000000006500235540000
0202LOTE PADRAO                   CRT CELULAR PNA* EJ    CRTP5       010VISTA          000000000325000000003250000000031000000000000000000003249000001943800
0202LOTE PADRAO                   IPIRANGA PETPN *       PTIP4       010VISTA          000000000010100000000110000000001010000000000000000000110000002079000
0202LOTE PADRAO                   BRASIL T PARPN *       BRTP4       010VISTA          000000000012300000000138000000001180000000000000000000135000090426700
0202LOTE PADRAO                   BRASIL T PARON *       BRTP3       010VISTA          000000000011500000000135000000001130000000000000000000127000013940700
0202LOTE PADRAO                   ACESITA     PN *       ACES4       010VISTA          000000000000420000000004500000000040000000000000000000004500124696000
0202LOTE PADRAO                   PETROBRAS   PN         PETR4       010VISTA          000000000048700000000510000000004820000000000000000000503000000098800
0202LOTE PADRAO                   ELETROBRAS  PNB*       ELET6       010VISTA          000000000028400000000305000000002810000000000000000000295000031266000
0202LOTE PADRAO                   PETROBRAS   ON         PETR3       010VISTA          000000000049500000000513000000004920000000000000000000512000000044500
0202LOTE PADRAO                   COMGAS      PNA*       CGAS5       010VISTA          000000000079000000000799000000007700000000000000000000790000000652000
0202LOTE PADRAO                   SOUZA CRUZ  ON EJ      CRUZ3       010VISTA          000000000011200000000118000000001110000000000000000000117500000012700
0202LOTE PADRAO                   ELETROBRAS  ON *       ELET3       010VISTA          000000000031500000000327000000003100000000000000000000320000019144600
0202LOTE PADRAO                   CELESC      PNB        CLSC6       010VISTA          000000000000340000000003800000000033000000000000000000003800000176600
0202LOTE PADRAO                   BRADESCO    PN * EJ    BBDC4       010VISTA          000000000009500000000100000000000940000000000000000000099000213988000
0202LOTE PADRAO                   CESP        PN *       CESP4       010VISTA          000000000007500000000080000000000710000000000000000000080000021073100
0202LOTE PADRAO                   LIGHT       ON *       LIGH3       010VISTA          000000000070000000000840000000007000000000000000000000840000000459000
0202LOTE PADRAO                   TELESP CL PAPN *       TSPP4       010VISTA          000000000005200000000055000000000500000000000000000000054000189771000
0202LOTE PADRAO                   VALE R DOCE PNA        VALE5       010VISTA          000000000052600000000537000000005200000000000000000000530000000039800
0202LOTE PADRAO                   COPEL       PNB*       CPLE6       010VISTA          000000000014000000000145000000001330000000000000000000145000056000000
0202LOTE PADRAO                   VALE R DOCE ON         VALE3       010VISTA          000000000051500000000520000000005150000000000000000000520000000006900
0202LOTE PADRAO                   ARACRUZ     PNB        ARCZ6       010VISTA          000000000004000000000040000000000380000000000000000000040000000020400
0202LOTE PADRAO                   TELEMIG PARTPN *       TMCP4       010VISTA          000000000002800000000029000000000275000000000000000000029000154609000
0202LOTE PADRAO                   BRASIL TELECPN *       BRTO4       010VISTA          000000000008300000000091000000000800000000000000000000090000067787100
0202LOTE PADRAO                   SABESP      ON *       SBSP3       010VISTA          000000000105200000001150000000009800000000000000000001150000001965800
0202LOTE PADRAO                   BRASKEM     PNA*       BRKM5       010VISTA          000000000335000000003650000000032500000000000000000003450000000210000
0202LOTE PADRAO                   EMBRAER     PN EJ      EMBR4       010VISTA          000000000008600000000088000000000810000000000000000000085000000063000
0202LOTE PADRAO                   TELESP      PN * EJ    TLPP4       010VISTA          000000000021400000000218000000002060000000000000000000213000010729800
0202LOTE PADRAO                   EMBRAER     ON EJ      EMBR3       010VISTA          000000000007300000000077000000000700000000000000000000076000000024000
0202LOTE PADRAO                   AMBEV       PN *       AMBV4       010VISTA          000000000390000000004100000000036000000000000000000004060000004490000
0202LOTE PADRAO                   USIMINAS    PNA        USIM5       010VISTA          000000000003800000000039000000000370000000000000000000039000000039200
0202LOTE PADRAO                   ELETROPAULO PN *       ELPL4       010VISTA          000000000056000000000570000000005300000000000000000000570000004757700
0202LOTE PADRAO                   TELE NORD CLPN *       TNEP4       010VISTA          000000000002200000000023000000000220000000000000000000023000111094000
0202LOTE PADRAO                   CEMIG       PN * EJ    CMIG4       010VISTA          000000000024000000000256000000002360000000000000000000255000048674200
0202LOTE PADRAO                   TELE CL SUL PN * EJ    TCSL4       010VISTA          000000000002600000000027500000000250000000000000000000027100087343700
0202LOTE PADRAO                   CEMIG       ON * EJ    CMIG3       010VISTA          000000000021800000000241000000002180000000000000000000235000002290100
0202LOTE PADRAO                   TELE CL SUL ON * EJ    TCSL3       010VISTA          000000000002200000000024000000000225000000000000000000023000038290200
0202LOTE PADRAO                   ITAUSA      PN         ITSA4       010VISTA          000000000001760000000017600000000169000000000000000000017300000665900
0202LOTE PADRAO                   SID TUBARAO PN *       CSTB4       010VISTA          000000000015300000000160000000001480000000000000000000160000003116700
0202LOTE PADRAO                   V C P       PN *       VCPA4       010VISTA          000000000070000000000710000000007000000000000000000000704000006015700
0202LOTE PADRAO                   BRADESPAR   PN *       BRAP4       010VISTA          000000000000480000000005100000000047000000000000000000005100185539000
0202LOTE PADRAO                   NET         PN         PLIM4       010VISTA          000000000000590000000006800000000057000000000000000000006800001660200
0202LOTE PADRAO                   TELE CTR OESPN * EJ    TCOC4       010VISTA          000000000003900000000042500000000380000000000000000000040000098482600
0202LOTE PADRAO                   GERDAU      PN * EJ    GGBR4       010VISTA          000000000013000000000140000000001260000000000000000000135000010538000
0202LOTE PADRAO                   BRASIL      ON *       BBAS3       010VISTA          000000000007300000000073000000000670000000000000000000073000004128300
