00BDIN9999BOVESPA 99992001103020011030
0101IBOVESPA                      0113340110240113960000000000000000002001103000000020011030011024000000
0202LOTE PADRAO                   EMBRATEL PARPN *       EBTP4       010VISTA          000000000007300000000074000000000710000000000000000000071000068545300
0202LOTE PADRAO                   EMBRATEL PARON *       EBTP3       010VISTA          000000000007800000000080000000000760000000000000000000076000028157600
0202LOTE PADRAO                   TRAN PAULISTPN * EJ    TRPL4       010VISTA          000000000005200000000054000000000510000000000000000000052000009072200
0202LOTE PADRAO                   TELEMAR     PN * EJ    TNLP4       010VISTA          000000000027300000000281000000002690000000000000000000269000336968000
0202LOTE PADRAO                   ITAUBANCO   PN * EJ    ITAU4       010VISTA          000000000170000000001730000000016500000000000000000001670000008382100
0202LOTE PADRAO                   TELEMAR     ON * EJ    TNLP3       010VISTA          000000000024100000000244000000002370000000000000000000237000012051800
0202LOTE PADRAO                   SID NACIONALON *       CSNA3       010VISTA          000000000028500000000285000000002730000000000000000000276000004719000
0202LOTE PADRAO                   TELE LEST CLPN *       TLCP4       010VISTA          000000000000740000000007400000000072000000000000000000007200120796000
0202LOTE PADRAO                   CRT CELULAR PNA* EJ    CRTP5       010VISTA          000000000370000000003710000000035500000000000000000003600000000577400
0202LOTE PADRAO                   IPIRANGA PETPN *       PTIP4       010VISTA          000000000011500000000115000000001100000000000000000000112000000790000
0202LOTE PADRAO                   BRASIL T PARPN *       BRTP4       010VISTA          000000000015000000000150000000001440000000000000000000145000066563000
0202LOTE PADRAO                   BRASIL T PARON *       BRTP3       010VISTA          000000000014600000000146000000001400000000000000000000140000020898100
0202LOTE PADRAO                   ACESITA     PN *       ACES4       010VISTA          000000000000480000000004800000000046000000000000000000004700061956600
0202LOTE PADRAO                   PETROBRAS   PN         PETR4       010VISTA          000000000051600000000518000000005070000000000000000000508000000063700
0202LOTE PADRAO                   ELETROBRAS  PNB*       ELET6       010VISTA          000000000032600000000330000000003110000000000000000000314000038495900
0202LOTE PADRAO                   PETROBRAS   ON         PETR3       010VISTA          000000000053000000000530000000005170000000000000000000517000000026700
0202LOTE PADRAO                   COMGAS      PNA*       CGAS5       010VISTA          000000000079000000000799000000007700000000000000000000799000001290100
0202LOTE PADRAO                   SOUZA CRUZ  ON EJ      CRUZ3       010VISTA          000000000012300000000123000000001170000000000000000000121000000010600
0202LOTE PADRAO                   ELETROBRAS  ON *       ELET3       010VISTA          000000000035500000000355000000003370000000000000000000339000007495800
0202LOTE PADRAO                   CELESC      PNB        CLSC6       010VISTA          000000000000440000000004400000000042000000000000000000004300000404800
0202LOTE PADRAO                   BRADESCO    PN * EJ    BBDC4       010VISTA          000000000010000000000104000000000990000000000000000000099000224066000
0202LOTE PADRAO                   CESP        PN *       CESP4       010VISTA          000000000013000000000131000000001250000000000000000000126000009176200
0202LOTE PADRAO                   LIGHT       ON *       LIGH3       010VISTA          000000000089000000000900000000008800000000000000000000897000000279400
0202LOTE PADRAO                   TELESP CL PAPN *       TSPP4       010VISTA          000000000005700000000057000000000540000000000000000000054000265324000
0202LOTE PADRAO                   VALE R DOCE PNA        VALE5       010VISTA          000000000055100000000553000000005480000000000000000000552000000028200
0202LOTE PADRAO                   COPEL       PNB*       CPLE6       010VISTA          000000000014100000000144000000001350000000000000000000137000109998000
0202LOTE PADRAO                   VALE R DOCE ON         VALE3       010VISTA          000000000052000000000520000000005150000000000000000000519000000001300
0202LOTE PADRAO                   ARACRUZ     PNB        ARCZ6       010VISTA          000000000004600000000047000000000460000000000000000000047000000014700
0202LOTE PADRAO                   TELEMIG PARTPN *       TMCP4       010VISTA          000000000003300000000033000000000300000000000000000000031000172160000
0202LOTE PADRAO                   BRASIL TELECPN *       BRTO4       010VISTA          000000000010400000000104000000001000000000000000000000100000111762000
0202LOTE PADRAO                   SABESP      ON *       SBSP3       010VISTA          000000000111800000001149000000011180000000000000000001120000000824300
0202LOTE PADRAO                   BRASKEM     PNA*       BRKM5       010VISTA          000000000392000000003990000000037200000000000000000003750000000075200
0202LOTE PADRAO                   EMBRAER     PN EJ      EMBR4       010VISTA          000000000011900000000120000000001130000000000000000000114000000050500
0202LOTE PADRAO                   TELESP      PN * EJ    TLPP4       010VISTA          000000000025100000000251000000002460000000000000000000247000003835800
0202LOTE PADRAO                   EMBRAER     ON EJ      EMBR3       010VISTA          000000000009800000000098000000000940000000000000000000095000000017200
0202LOTE PADRAO                   AMBEV       PN *       AMBV4       010VISTA          000000000449900000004499000000043650000000000000000004365000004766700
0202LOTE PADRAO                   USIMINAS    PNA        USIM5       010VISTA          000000000003980000000040000000000370000000000000000000039000000054000
0202LOTE PADRAO                   ELETROPAULO PN *       ELPL4       010VISTA          000000000062100000000650000000006160000000000000000000618000001789600
0202LOTE PADRAO                   TELE NORD CLPN *       TNEP4       010VISTA          000000000002690000000026900000000250000000000000000000025000044970200
0202LOTE PADRAO                   CEMIG       PN * EJ    CMIG4       010VISTA          000000000026250000000268000000002550000000000000000000263000026104100
0202LOTE PADRAO                   TELE CL SUL PN * EJ    TCSL4       010VISTA          000000000002900000000029000000000269000000000000000000027100089667200
0202LOTE PADRAO                   CEMIG       ON * EJ    CMIG3       010VISTA          000000000025300000000261000000002480000000000000000000248000002802200
0202LOTE PADRAO                   TELE CL SUL ON * EJ    TCSL3       010VISTA          000000000002400000000024800000000220000000000000000000022000050343900
0202LOTE PADRAO                   ITAUSA      PN         ITSA4       010VISTA          000000000001800000000018000000000180000000000000000000018000000175600
0202LOTE PADRAO                   SID TUBARAO PN *       CSTB4       010VISTA          000000000016700000000167000000001580000000000000000000158000007770000
0202LOTE PADRAO                   V C P       PN *       VCPA4       010VISTA          000000000077700000000780000000007650000000000000000000765000000253900
0202LOTE PADRAO                   BRADESPAR   PN *       BRAP4       010VISTA          000000000000620000000006300000000060000000000000000000006000302219000
0202LOTE PADRAO                   NET         PN         PLIM4       010VISTA          000000000000630000000006600000000062000000000000000000006200000624500
0202LOTE PADRAO                   TELE CTR OESPN * EJ    TCOC4       010VISTA          000000000004500000000046000000000430000000000000000000044000059954800
0202LOTE PADRAO                   GERDAU      PN * EJ    GGBR4       010VISTA          000000000018200000000182500000001760000000000000000000176000008830700
0202LOTE PADRAO                   BRASIL      ON *       BBAS3       010VISTA          000000000007500000000075000000000720000000000000000000072000003705400
