00BDIN9999BOVESPA 99992001100920011009
0101IBOVESPA                      0101090101030103230000000000000000002001100900000020011009010284000000
0202LOTE PADRAO                   EMBRATEL PARPN *       EBTP4       010VISTA          000000000006500000000069000000000640000000000000000000067000091523900
0202LOTE PADRAO                   EMBRATEL PARON *       EBTP3       010VISTA          000000000007200000000077000000000700000000000000000000076000024917500
0202LOTE PADRAO                   TRAN PAULISTPN * EJ    TRPL4       010VISTA          000000000004000000000041000000000400000000000000000000041000017370200
0202LOTE PADRAO                   TELEMAR     PN * EJ    TNLP4       010VISTA          000000000022600000000236000000002250000000000000000000233000215371000
0202LOTE PADRAO                   ITAUBANCO   PN * EJ    ITAU4       010VISTA          000000000157700000001585000000015550000000000000000001585000008223700
0202LOTE PADRAO                   TELEMAR     ON * EJ    TNLP3       010VISTA          000000000021000000000216000000002050000000000000000000216000011891000
0202LOTE PADRAO                   SID NACIONALON *       CSNA3       010VISTA          000000000025300000000260000000002530000000000000000000258000005855000
0202LOTE PADRAO                   TELE LEST CLPN *       TLCP4       010VISTA          000000000000650000000006600000000064000000000000000000006500079736500
0202LOTE PADRAO                   CRT CELULAR PNA* EJ    CRTP5       010VISTA          000000000339000000003410000000033500000000000000000003409000000496300
0202LOTE PADRAO                   IPIRANGA PETPN *       PTIP4       010VISTA          000000000010900000000114000000001090000000000000000000114000000414000
0202LOTE PADRAO                   BRASIL T PARPN *       BRTP4       010VISTA          000000000014300000000147500000001400000000000000000000144000053662700
0202LOTE PADRAO                   BRASIL T PARON *       BRTP3       010VISTA          000000000013500000000140000000001340000000000000000000140000010313700
0202LOTE PADRAO                   ACESITA     PN *       ACES4       010VISTA          000000000000410000000004200000000041000000000000000000004200112083000
0202LOTE PADRAO                   PETROBRAS   PN         PETR4       010VISTA          000000000050500000000511000000005000000000000000000000508000000073500
0202LOTE PADRAO                   ELETROBRAS  PNB*       ELET6       010VISTA          000000000027100000000281000000002710000000000000000000278000033815600
0202LOTE PADRAO                   PETROBRAS   ON         PETR3       010VISTA          000000000051800000000527000000005180000000000000000000525000000035600
0202LOTE PADRAO                   COMGAS      PNA*       CGAS5       010VISTA          000000000072900000000740000000007100000000000000000000730000005605000
0202LOTE PADRAO                   SOUZA CRUZ  ON EJ      CRUZ3       010VISTA          000000000011700000000118000000001160000000000000000000116000000018800
0202LOTE PADRAO                   ELETROBRAS  ON *       ELET3       010VISTA          000000000030000000000313000000003000000000000000000000311000021798200
0202LOTE PADRAO                   CELESC      PNB        CLSC6       010VISTA          000000000000350000000003500000000034000000000000000000003400000127600
0202LOTE PADRAO                   BRADESCO    PN * EJ    BBDC4       010VISTA          000000000009700000000098000000000960000000000000000000097500201142000
0202LOTE PADRAO                   CESP        PN *       CESP4       010VISTA          000000000008000000000080000000000780000000000000000000080000008310700
0202LOTE PADRAO                   LIGHT       ON *       LIGH3       010VISTA          000000000075200000000752000000007210000000000000000000725000000182100
0202LOTE PADRAO                   TELESP CL PAPN *       TSPP4       010VISTA          000000000005200000000053000000000510000000000000000000053000117650000
0202LOTE PADRAO                   VALE R DOCE PNA        VALE5       010VISTA          000000000053800000000538000000005260000000000000000000535000000027400
0202LOTE PADRAO                   COPEL       PNB*       CPLE6       010VISTA          000000000013600000000138000000001350000000000000000000138000017140100
0202LOTE PADRAO                   VALE R DOCE ON         VALE3       010VISTA          000000000051700000000521000000005130000000000000000000515000000007100
0202LOTE PADRAO                   ARACRUZ     PNB        ARCZ6       010VISTA          000000000004300000000043000000000430000000000000000000043000000023000
0202LOTE PADRAO                   TELEMIG PARTPN *       TMCP4       010VISTA          000000000003000000000031000000000300000000000000000000030000027355600
0202LOTE PADRAO                   BRASIL TELECPN *       BRTO4       010VISTA          000000000010000000000100000000000980000000000000000000099000067776900
0202LOTE PADRAO                   SABESP      ON *       SBSP3       010VISTA          000000000101900000001040000000010140000000000000000001025000000248000
0202LOTE PADRAO                   BRASKEM     PNA*       BRKM5       010VISTA          000000000337200000003500000000033710000000000000000003470000000266400
0202LOTE PADRAO                   EMBRAER     PN EJ      EMBR4       010VISTA          000000000008500000000086000000000840000000000000000000086000000098000
0202LOTE PADRAO                   TELESP      PN * EJ    TLPP4       010VISTA          000000000022000000000223000000002200000000000000000000222000013041600
0202LOTE PADRAO                   EMBRAER     ON EJ      EMBR3       010VISTA          000000000007200000000072500000000700000000000000000000072000000040900
0202LOTE PADRAO                   AMBEV       PN *       AMBV4       010VISTA          000000000400000000004100000000039100000000000000000004060000001520100
0202LOTE PADRAO                   USIMINAS    PNA        USIM5       010VISTA          000000000003600000000037500000000360000000000000000000036000000048500
0202LOTE PADRAO                   ELETROPAULO PN *       ELPL4       010VISTA          000000000054500000000553000000005330000000000000000000550000004284900
0202LOTE PADRAO                   TELE NORD CLPN *       TNEP4       010VISTA          000000000002200000000023000000000220000000000000000000023000044539200
0202LOTE PADRAO                   CEMIG       PN * EJ    CMIG4       010VISTA          000000000023600000000253000000002360000000000000000000253000046751700
0202LOTE PADRAO                   TELE CL SUL PN * EJ    TCSL4       010VISTA          000000000002710000000027100000000260000000000000000000026000087165200
0202LOTE PADRAO                   CEMIG       ON * EJ    CMIG3       010VISTA          000000000023000000000246000000002260000000000000000000245000001872400
0202LOTE PADRAO                   TELE CL SUL ON * EJ    TCSL3       010VISTA          000000000002300000000023000000000220000000000000000000023000008614200
0202LOTE PADRAO                   ITAUSA      PN         ITSA4       010VISTA          000000000001700000000017400000000170000000000000000000017300000227300
0202LOTE PADRAO                   SID TUBARAO PN *       CSTB4       010VISTA          000000000013750000000141000000001350000000000000000000140000003729800
0202LOTE PADRAO                   V C P       PN *       VCPA4       010VISTA          000000000072000000000720000000007200000000000000000000720000000577900
0202LOTE PADRAO                   BRADESPAR   PN *       BRAP4       010VISTA          000000000000500000000005000000000049000000000000000000005000265848000
0202LOTE PADRAO                   NET         PN         PLIM4       010VISTA          000000000000590000000006200000000058000000000000000000006100001219600
0202LOTE PADRAO                   TELE CTR OESPN * EJ    TCOC4       010VISTA          000000000004300000000045000000000425000000000000000000044000054452600
0202LOTE PADRAO                   GERDAU      PN * EJ    GGBR4       010VISTA          000000000014000000000142500000001380000000000000000000142500005351600
0202LOTE PADRAO                   BRASIL      ON *       BBAS3       010VISTA          000000000006500000000070000000000650000000000000000000065000010961700
