00BDIN9999BOVESPA 99992001062520010625
0101IBOVESPA                      0146820144790148710000000000000000002001062500000020010625014540000000
0202LOTE PADRAO                   EMBRATEL PARPN *       EBTP4       010VISTA          000000000018300000000187000000001760000000000000000000176000126569000
0202LOTE PADRAO                   EMBRATEL PARON *       EBTP3       010VISTA          000000000018800000000188000000001780000000000000000000181000047751400
0202LOTE PADRAO                   TRAN PAULISTPN * EJ    TRPL4       010VISTA          000000000006750000000068000000000640000000000000000000064000008570500
0202LOTE PADRAO                   TELEMAR     PN * EJ    TNLP4       010VISTA          000000000036300000000375000000003600000000000000000000361000131978000
0202LOTE PADRAO                   ITAUBANCO   PN * EJ    ITAU4       010VISTA          000000000198100000002000000000019600000000000000000001995000007228900
0202LOTE PADRAO                   TELEMAR     ON * EJ    TNLP3       010VISTA          000000000031000000000313000000003050000000000000000000311000021077800
0202LOTE PADRAO                   SID NACIONALON *       CSNA3       010VISTA          000000000045700000000457000000004450000000000000000000450000009810400
0202LOTE PADRAO                   TELE LEST CLPN *       TLCP4       010VISTA          000000000002000000000020000000000180000000000000000000018000124585000
0202LOTE PADRAO                   CRT CELULAR PNA* EJ    CRTP5       010VISTA          000000000972000000009900000000094000000000000000000009500000002215900
0202LOTE PADRAO                   IPIRANGA PETPN *       PTIP4       010VISTA          000000000016900000000170000000001600000000000000000000160000000448000
0202LOTE PADRAO                   BRASIL T PARPN *       BRTP4       010VISTA          000000000019500000000195000000001900000000000000000000193000063946100
0202LOTE PADRAO                   BRASIL T PARON *       BRTP3       010VISTA          000000000019000000000191000000001850000000000000000000188000004111100
0202LOTE PADRAO                   ACESITA     PN *       ACES4       010VISTA          000000000000730000000007300000000070000000000000000000007000094363100
0202LOTE PADRAO                   PETROBRAS   PN         PETR4       010VISTA          000000000058000000000584000000005550000000000000000000558000000072700
0202LOTE PADRAO                   ELETROBRAS  PNB*       ELET6       010VISTA          000000000029000000000290000000002760000000000000000000276000022258400
0202LOTE PADRAO                   PETROBRAS   ON         PETR3       010VISTA          000000000063500000000635000000006170000000000000000000617000000012400
0202LOTE PADRAO                   COMGAS      PNA*       CGAS5       010VISTA          000000000152900000001550000000015150000000000000000001520000005506000
0202LOTE PADRAO                   SOUZA CRUZ  ON EJ      CRUZ3       010VISTA          000000000011800000000118000000001150000000000000000000117000000003900
0202LOTE PADRAO                   ELETROBRAS  ON *       ELET3       010VISTA          000000000031100000000311000000003030000000000000000000303000033366300
0202LOTE PADRAO                   CELESC      PNB        CLSC6       010VISTA          000000000000470000000004700000000045000000000000000000004600000128100
0202LOTE PADRAO                   BRADESCO    PN * EJ    BBDC4       010VISTA          000000000012200000000123000000001200000000000000000000121000117269000
0202LOTE PADRAO                   CESP        PN *       CESP4       010VISTA          000000000014900000000149000000001390000000000000000000143000009609500
0202LOTE PADRAO                   LIGHT       ON *       LIGH3       010VISTA          000000000144500000001494000000014400000000000000000001440000000258000
0202LOTE PADRAO                   TELESP CL PAPN *       TSPP4       010VISTA          000000000013800000000141000000001380000000000000000000140000094004100
0202LOTE PADRAO                   VALE R DOCE PNA        VALE5       010VISTA          000000000054000000000540000000005160000000000000000000527000000024000
0202LOTE PADRAO                   COPEL       PNB*       CPLE6       010VISTA          000000000016900000000173000000001650000000000000000000168000017276700
0202LOTE PADRAO                   VALE R DOCE ON         VALE3       010VISTA          000000000052000000000520000000005100000000000000000000513000000001900
0202LOTE PADRAO                   ARACRUZ     PNB        ARCZ6       010VISTA          000000000003900000000039000000000380000000000000000000038000000042600
0202LOTE PADRAO                   TELEMIG PARTPN *       TMCP4       010VISTA          000000000004700000000048000000000470000000000000000000047000035783400
0202LOTE PADRAO                   BRASIL TELECPN *       BRTO4       010VISTA          000000000014200000000142000000001340000000000000000000137000057937400
0202LOTE PADRAO                   SABESP      ON *       SBSP3       010VISTA          000000000177000000001770000000017100000000000000000001710000000608000
0202LOTE PADRAO                   BRASKEM     PNA*       BRKM5       010VISTA          000000000531400000005314000000051300000000000000000005170000000241300
0202LOTE PADRAO                   EMBRAER     PN EJ      EMBR4       010VISTA          000000000023000000000230000000002200000000000000000000222000000057500
0202LOTE PADRAO                   TELESP      PN * EJ    TLPP4       010VISTA          000000000027400000000275000000002680000000000000000000270000003793300
0202LOTE PADRAO                   EMBRAER     ON EJ      EMBR3       010VISTA          000000000018300000000183000000001740000000000000000000174000000035400
0202LOTE PADRAO                   AMBEV       PN *       AMBV4       010VISTA          000000000480000000005045000000048000000000000000000005033000004969800
0202LOTE PADRAO                   USIMINAS    PNA        USIM5       010VISTA          000000000006800000000068000000000671000000000000000000068000000049900
0202LOTE PADRAO                   ELETROPAULO PN *       ELPL4       010VISTA          000000000064800000000649000000006330000000000000000000639000004523400
0202LOTE PADRAO                   TELE NORD CLPN *       TNEP4       010VISTA          000000000004100000000041000000000380000000000000000000038000177352000
0202LOTE PADRAO                   CEMIG       PN * EJ    CMIG4       010VISTA          000000000026300000000265000000002560000000000000000000265000014990500
0202LOTE PADRAO                   TELE CL SUL PN * EJ    TCSL4       010VISTA          000000000005100000000051000000000475000000000000000000047500083173500
0202LOTE PADRAO                   CEMIG       ON * EJ    CMIG3       010VISTA          000000000025800000000258000000002500000000000000000000253000000313000
0202LOTE PADRAO                   TELE CL SUL ON * EJ    TCSL3       010VISTA          000000000004100000000043000000000400000000000000000000040000020325100
0202LOTE PADRAO                   ITAUSA      PN         ITSA4       010VISTA          000000000002000000000020000000000200000000000000000000020000000229000
0202LOTE PADRAO                   SID TUBARAO PN *       CSTB4       010VISTA          000000000023000000000230000000002200000000000000000000221000004734600
0202LOTE PADRAO                   V C P       PN *       VCPA4       010VISTA          000000000065200000000664000000006520000000000000000000660000000555300
0202LOTE PADRAO                   BRADESPAR   PN *       BRAP4       010VISTA          000000000000860000000008900000000083000000000000000000008400231796000
0202LOTE PADRAO                   NET         PN         PLIM4       010VISTA          000000000000940000000010000000000094000000000000000000009900002176000
0202LOTE PADRAO                   TELE CTR OESPN * EJ    TCOC4       010VISTA          000000000006600000000066000000000650000000000000000000066000075499200
0202LOTE PADRAO                   GERDAU      PN * EJ    GGBR4       010VISTA          000000000018000000000183000000001725000000000000000000173000014304100
0202LOTE PADRAO                   BRASIL      ON *       BBAS3       010VISTA          000000000010100000000104000000000960000000000000000000096000033109800
