00BDIN9999BOVESPA 99992001070520010705
0101IBOVESPA                      0140840139430142810000000000000000002001070500000020010705014048000000
0202LOTE PADRAO                   EMBRATEL PARPN *       EBTP4       010VISTA          000000000016900000000171000000001660000000000000000000168000074748100
0202LOTE PADRAO                   EMBRATEL PARON *       EBTP3       010VISTA          000000000017300000000178000000001710000000000000000000175000026917200
0202LOTE PADRAO                   TRAN PAULISTPN * EJ    TRPL4       010VISTA          000000000006500000000066000000000610000000000000000000062000026769200
0202LOTE PADRAO                   TELEMAR     PN * EJ    TNLP4       010VISTA          000000000034000000000342000000003320000000000000000000336000213350000
0202LOTE PADRAO                   ITAUBANCO   PN * EJ    ITAU4       010VISTA          000000000190000000001910000000018100000000000000000001810000009081400
0202LOTE PADRAO                   TELEMAR     ON * EJ    TNLP3       010VISTA          000000000029000000000290000000002810000000000000000000281000007833400
0202LOTE PADRAO                   SID NACIONALON *       CSNA3       010VISTA          000000000041500000000427000000004000000000000000000000410000007332300
0202LOTE PADRAO                   TELE LEST CLPN *       TLCP4       010VISTA          000000000001800000000018000000000172000000000000000000017800087504500
0202LOTE PADRAO                   CRT CELULAR PNA* EJ    CRTP5       010VISTA          000000000999000000009999000000096200000000000000000009650000000833200
0202LOTE PADRAO                   IPIRANGA PETPN *       PTIP4       010VISTA          000000000016700000000168000000001600000000000000000000168000001959900
0202LOTE PADRAO                   BRASIL T PARPN *       BRTP4       010VISTA          000000000018800000000190000000001850000000000000000000187000119054000
0202LOTE PADRAO                   BRASIL T PARON *       BRTP3       010VISTA          000000000018000000000180000000001750000000000000000000175000019030800
0202LOTE PADRAO                   ACESITA     PN *       ACES4       010VISTA          000000000000670000000006800000000065000000000000000000006500111902000
0202LOTE PADRAO                   PETROBRAS   PN         PETR4       010VISTA          000000000052200000000528000000005100000000000000000000520000000153900
0202LOTE PADRAO                   ELETROBRAS  PNB*       ELET6       010VISTA          000000000025500000000266000000002510000000000000000000266000063155400
0202LOTE PADRAO                   PETROBRAS   ON         PETR3       010VISTA          000000000057000000000577000000005620000000000000000000570000000039500
0202LOTE PADRAO                   COMGAS      PNA*       CGAS5       010VISTA          000000000140900000001409000000013550000000000000000001370000001092000
0202LOTE PADRAO                   SOUZA CRUZ  ON EJ      CRUZ3       010VISTA          000000000011250000000115000000001125000000000000000000115000000027600
0202LOTE PADRAO                   ELETROBRAS  ON *       ELET3       010VISTA          000000000027800000000285000000002780000000000000000000283000026018000
0202LOTE PADRAO                   CELESC      PNB        CLSC6       010VISTA          000000000000430000000004300000000041000000000000000000004300000151200
0202LOTE PADRAO                   BRADESCO    PN * EJ    BBDC4       010VISTA          000000000011800000000119000000001150000000000000000000115000168502000
0202LOTE PADRAO                   CESP        PN *       CESP4       010VISTA          000000000014000000000140000000001350000000000000000000137500015483200
0202LOTE PADRAO                   LIGHT       ON *       LIGH3       010VISTA          000000000136000000001370000000013200000000000000000001370000000325000
0202LOTE PADRAO                   TELESP CL PAPN *       TSPP4       010VISTA          000000000014800000000149000000001470000000000000000000148000166993000
0202LOTE PADRAO                   VALE R DOCE PNA        VALE5       010VISTA          000000000052200000000530000000005150000000000000000000530000000042800
0202LOTE PADRAO                   COPEL       PNB*       CPLE6       010VISTA          000000000018400000000195000000001750000000000000000000188000131094000
0202LOTE PADRAO                   VALE R DOCE ON         VALE3       010VISTA          000000000052000000000530000000005200000000000000000000530000000004400
0202LOTE PADRAO                   ARACRUZ     PNB        ARCZ6       010VISTA          000000000004000000000042000000000400000000000000000000042000000058400
0202LOTE PADRAO                   TELEMIG PARTPN *       TMCP4       010VISTA          000000000004500000000046000000000450000000000000000000045000063611200
0202LOTE PADRAO                   BRASIL TELECPN *       BRTO4       010VISTA          000000000013000000000130000000001260000000000000000000127500065994200
0202LOTE PADRAO                   SABESP      ON *       SBSP3       010VISTA          000000000158900000001589000000014800000000000000000001498000002791200
0202LOTE PADRAO                   BRASKEM     PNA*       BRKM5       010VISTA          000000000590000000005980000000054100000000000000000005690000000368400
0202LOTE PADRAO                   EMBRAER     PN EJ      EMBR4       010VISTA          000000000022700000000231000000002270000000000000000000229000000029100
0202LOTE PADRAO                   TELESP      PN * EJ    TLPP4       010VISTA          000000000026300000000263000000002560000000000000000000260000009834500
0202LOTE PADRAO                   EMBRAER     ON EJ      EMBR3       010VISTA          000000000017600000000178000000001680000000000000000000170000000051100
0202LOTE PADRAO                   AMBEV       PN *       AMBV4       010VISTA          000000000520000000005250000000050500000000000000000005151000001157400
0202LOTE PADRAO                   USIMINAS    PNA        USIM5       010VISTA          000000000006400000000065000000000630000000000000000000063000000035700
0202LOTE PADRAO                   ELETROPAULO PN *       ELPL4       010VISTA          000000000072900000000745000000006450000000000000000000650000014834400
0202LOTE PADRAO                   TELE NORD CLPN *       TNEP4       010VISTA          000000000003700000000039000000000373000000000000000000037700318287000
0202LOTE PADRAO                   CEMIG       PN * EJ    CMIG4       010VISTA          000000000024500000000246000000002410000000000000000000245000045569200
0202LOTE PADRAO                   TELE CL SUL PN * EJ    TCSL4       010VISTA          000000000004400000000046000000000440000000000000000000046000094428300
0202LOTE PADRAO                   CEMIG       ON * EJ    CMIG3       010VISTA          000000000023300000000234000000002280000000000000000000231000002105800
0202LOTE PADRAO                   TELE CL SUL ON * EJ    TCSL3       010VISTA          000000000003700000000038000000000360000000000000000000037500039459200
0202LOTE PADRAO                   ITAUSA      PN         ITSA4       010VISTA          000000000002000000000020000000000195000000000000000000019500000527700
0202LOTE PADRAO                   SID TUBARAO PN *       CSTB4       010VISTA          000000000020800000000213000000002010000000000000000000213000008367700
0202LOTE PADRAO                   V C P       PN *       VCPA4       010VISTA          000000000069000000000700000000006250000000000000000000670000005328000
0202LOTE PADRAO                   BRADESPAR   PN *       BRAP4       010VISTA          000000000000820000000008200000000079000000000000000000007900260553000
0202LOTE PADRAO                   NET         PN         PLIM4       010VISTA          000000000001100000000011000000000100000000000000000000010000001980300
0202LOTE PADRAO                   TELE CTR OESPN * EJ    TCOC4       010VISTA          000000000006700000000068000000000650000000000000000000067000071809600
0202LOTE PADRAO                   GERDAU      PN * EJ    GGBR4       010VISTA          000000000016600000000166000000001550000000000000000000159000009372300
0202LOTE PADRAO                   BRASIL      ON *       BBAS3       010VISTA          000000000009250000000095000000000900000000000000000000092000005733400
