00BDIN9999BOVESPA 99992001061520010615
0101IBOVESPA                      0153860149640153860000000000000000002001061500000020010615014985000000
0202LOTE PADRAO                   EMBRATEL PARPN *       EBTP4       010VISTA          000000000021100000000211000000002030000000000000000000203000046514600
0202LOTE PADRAO                   EMBRATEL PARON *       EBTP3       010VISTA          000000000021900000000219000000002080000000000000000000208000011802500
0202LOTE PADRAO                   TRAN PAULISTPN * EJ    TRPL4       010VISTA          000000000006700000000068000000000660000000000000000000066000005223100
0202LOTE PADRAO                   TELEMAR     PN * EJ    TNLP4       010VISTA          000000000037600000000376000000003680000000000000000000369000181136000
0202LOTE PADRAO                   ITAUBANCO   PN * EJ    ITAU4       010VISTA          000000000195200000001952000000019000000000000000000001901000003061400
0202LOTE PADRAO                   TELEMAR     ON * EJ    TNLP3       010VISTA          000000000032250000000327000000003150000000000000000000315000007389500
0202LOTE PADRAO                   SID NACIONALON *       CSNA3       010VISTA          000000000045000000000450000000004350000000000000000000440000011408000
0202LOTE PADRAO                   TELE LEST CLPN *       TLCP4       010VISTA          000000000001800000000018000000000180000000000000000000018000035277000
0202LOTE PADRAO                   IPIRANGA PETPN *       PTIP4       010VISTA          000000000016700000000168000000001600000000000000000000160000000990000
0202LOTE PADRAO                   BRASIL T PARPN *       BRTP4       010VISTA          000000000020300000000203000000001930000000000000000000196000062859600
0202LOTE PADRAO                   BRASIL T PARON *       BRTP3       010VISTA          000000000019800000000198000000001880000000000000000000188000012600900
0202LOTE PADRAO                   ACESITA     PN *       ACES4       010VISTA          000000000000730000000007400000000071000000000000000000007100054206300
0202LOTE PADRAO                   PETROBRAS   PN         PETR4       010VISTA          000000000058500000000587000000005620000000000000000000567000000056900
0202LOTE PADRAO                   ELETROBRAS  PNB*       ELET6       010VISTA          000000000029000000000301000000002900000000000000000000292000030790500
0202LOTE PADRAO                   PETROBRAS   ON         PETR3       010VISTA          000000000065500000000655000000006370000000000000000000637000000009400
0202LOTE PADRAO                   COMGAS      PNA*       CGAS5       010VISTA          000000000153000000001530000000014900000000000000000001499000000829000
0202LOTE PADRAO                   SOUZA CRUZ  ON EJ      CRUZ3       010VISTA          000000000011800000000118000000001150000000000000000000115000000019600
0202LOTE PADRAO                   CELESC      PNB        CLSC6       010VISTA          000000000000490000000004900000000045000000000000000000004700000332400
0202LOTE PADRAO                   ELETROBRAS  ON *       ELET3       010VISTA          000000000030300000000336000000003030000000000000000000327000019565000
0202LOTE PADRAO                   BRADESCO    PN * EJ    BBDC4       010VISTA          000000000012600000000126000000001230000000000000000000124000074778600
0202LOTE PADRAO                   CESP        PN *       CESP4       010VISTA          000000000015000000000150000000001450000000000000000000148000012168900
0202LOTE PADRAO                   LIGHT       ON *       LIGH3       010VISTA          000000000145000000001450000000013600000000000000000001360000000275000
0202LOTE PADRAO                   TELESP CL PAPN *       TSPP4       010VISTA          000000000015100000000151000000001450000000000000000000150000054401100
0202LOTE PADRAO                   VALE R DOCE PNA        VALE5       010VISTA          000000000056300000000567000000005550000000000000000000556000000027200
0202LOTE PADRAO                   COPEL       PNB*       CPLE6       010VISTA          000000000017100000000173000000001700000000000000000000171000005871200
0202LOTE PADRAO                   VALE R DOCE ON         VALE3       010VISTA          000000000053000000000530000000005300000000000000000000530000000000500
0202LOTE PADRAO                   ARACRUZ     PNB        ARCZ6       010VISTA          000000000004400000000044000000000420000000000000000000043000000018400
0202LOTE PADRAO                   TELEMIG PARTPN *       TMCP4       010VISTA          000000000005400000000054000000000525000000000000000000052000027965300
0202LOTE PADRAO                   BRASIL TELECPN *       BRTO4       010VISTA          000000000014000000000150000000001390000000000000000000144000139577000
0202LOTE PADRAO                   SABESP      ON *       SBSP3       010VISTA          000000000178000000001780000000016700000000000000000001700000000441000
0202LOTE PADRAO                   BRASKEM     PNA*       BRKM5       010VISTA          000000000539000000005445000000052600000000000000000005260000000059600
0202LOTE PADRAO                   EMBRAER     PN EJ      EMBR4       010VISTA          000000000024300000000249000000002420000000000000000000248000000014700
0202LOTE PADRAO                   TELESP      PN * EJ    TLPP4       010VISTA          000000000029000000000290000000002800000000000000000000283000003251200
0202LOTE PADRAO                   EMBRAER     ON EJ      EMBR3       010VISTA          000000000019250000000196000000001910000000000000000000194000000021700
0202LOTE PADRAO                   AMBEV       PN *       AMBV4       010VISTA          000000000503000000005079000000049500000000000000000004950000002288300
0202LOTE PADRAO                   USIMINAS    PNA        USIM5       010VISTA          000000000006900000000069000000000640000000000000000000065000000031100
0202LOTE PADRAO                   ELETROPAULO PN *       ELPL4       010VISTA          000000000065500000000659000000006200000000000000000000637000000415900
0202LOTE PADRAO                   TELE NORD CLPN *       TNEP4       010VISTA          000000000004700000000047000000000450000000000000000000045000083104300
0202LOTE PADRAO                   CEMIG       PN * EJ    CMIG4       010VISTA          000000000025100000000253000000002480000000000000000000250000033955000
0202LOTE PADRAO                   TELE CL SUL PN * EJ    TCSL4       010VISTA          000000000005300000000053000000000520000000000000000000052000052111100
0202LOTE PADRAO                   CEMIG       ON * EJ    CMIG3       010VISTA          000000000024250000000242500000002410000000000000000000241000000040000
0202LOTE PADRAO                   TELE CL SUL ON * EJ    TCSL3       010VISTA          000000000004600000000046000000000450000000000000000000045000011499600
0202LOTE PADRAO                   ITAUSA      PN         ITSA4       010VISTA          000000000002100000000021000000000200000000000000000000020000000183700
0202LOTE PADRAO                   SID TUBARAO PN *       CSTB4       010VISTA          000000000024600000000250000000002350000000000000000000235000001842000
0202LOTE PADRAO                   V C P       PN *       VCPA4       010VISTA          000000000076000000000765000000007550000000000000000000760000001950600
0202LOTE PADRAO                   BRADESPAR   PN *       BRAP4       010VISTA          000000000000900000000009200000000088000000000000000000008800149894000
0202LOTE PADRAO                   NET         PN         PLIM4       010VISTA          000000000000970000000009700000000092000000000000000000009200000915700
0202LOTE PADRAO                   TELE CTR OESPN * EJ    TCOC4       010VISTA          000000000006900000000069000000000654000000000000000000065400034582100
0202LOTE PADRAO                   GERDAU      PN * EJ    GGBR4       010VISTA          000000000017700000000178000000001700000000000000000000173000004234600
0202LOTE PADRAO                   BRASIL      ON *       BBAS3       010VISTA          000000000008200000000084000000000820000000000000000000083000002230300
