00BDIN9999BOVESPA 99992001100120011001
0101IBOVESPA                      0106330103540106330000000000000000002001100100000020011001010501000000
0202LOTE PADRAO                   EMBRATEL PARPN *       EBTP4       010VISTA          000000000007300000000074000000000720000000000000000000072000079685300
0202LOTE PADRAO                   EMBRATEL PARON *       EBTP3       010VISTA          000000000007600000000079000000000760000000000000000000079000015887400
0202LOTE PADRAO                   TRAN PAULISTPN * EJ    TRPL4       010VISTA          000000000004500000000045000000000420000000000000000000042000011192100
0202LOTE PADRAO                   TELEMAR     PN * EJ    TNLP4       010VISTA          000000000023800000000249000000002330000000000000000000247000266012000
0202LOTE PADRAO                   ITAUBANCO   PN * EJ    ITAU4       010VISTA          000000000169900000001699000000016400000000000000000001640000007504200
0202LOTE PADRAO                   TELEMAR     ON * EJ    TNLP3       010VISTA          000000000021100000000225000000002100000000000000000000225000018728800
0202LOTE PADRAO                   SID NACIONALON *       CSNA3       010VISTA          000000000028000000000280000000002660000000000000000000266000007830900
0202LOTE PADRAO                   TELE LEST CLPN *       TLCP4       010VISTA          000000000000650000000006500000000061000000000000000000006100105266000
0202LOTE PADRAO                   CRT CELULAR PNA* EJ    CRTP5       010VISTA          000000000330000000003400000000032500000000000000000003350000000475000
0202LOTE PADRAO                   IPIRANGA PETPN *       PTIP4       010VISTA          000000000011100000000115000000001110000000000000000000115000000160000
0202LOTE PADRAO                   BRASIL T PARPN *       BRTP4       010VISTA          000000000014500000000154000000001430000000000000000000154000133776000
0202LOTE PADRAO                   BRASIL T PARON *       BRTP3       010VISTA          000000000013500000000151000000001350000000000000000000151000007946900
0202LOTE PADRAO                   ACESITA     PN *       ACES4       010VISTA          000000000000440000000004400000000041000000000000000000004200061689200
0202LOTE PADRAO                   PETROBRAS   PN         PETR4       010VISTA          000000000051100000000511000000004920000000000000000000494000000073500
0202LOTE PADRAO                   ELETROBRAS  PNB*       ELET6       010VISTA          000000000028100000000295000000002810000000000000000000284000014442700
0202LOTE PADRAO                   PETROBRAS   ON         PETR3       010VISTA          000000000052700000000527000000005050000000000000000000510000000010100
0202LOTE PADRAO                   COMGAS      PNA*       CGAS5       010VISTA          000000000080000000000800000000007600000000000000000000772000000671000
0202LOTE PADRAO                   SOUZA CRUZ  ON EJ      CRUZ3       010VISTA          000000000011000000000110000000001090000000000000000000110000000015100
0202LOTE PADRAO                   ELETROBRAS  ON *       ELET3       010VISTA          000000000031500000000316000000003060000000000000000000306000007346200
0202LOTE PADRAO                   CELESC      PNB        CLSC6       010VISTA          000000000000360000000003600000000035000000000000000000003600000114600
0202LOTE PADRAO                   BRADESCO    PN * EJ    BBDC4       010VISTA          000000000010300000000107000000001030000000000000000000105000105710000
0202LOTE PADRAO                   CESP        PN *       CESP4       010VISTA          000000000007900000000080000000000750000000000000000000075000010600000
0202LOTE PADRAO                   LIGHT       ON *       LIGH3       010VISTA          000000000080000000000815000000007550000000000000000000770000000128300
0202LOTE PADRAO                   TELESP CL PAPN *       TSPP4       010VISTA          000000000005500000000057000000000540000000000000000000055400101272000
0202LOTE PADRAO                   VALE R DOCE PNA        VALE5       010VISTA          000000000053800000000538000000005220000000000000000000527000000079000
0202LOTE PADRAO                   COPEL       PNB*       CPLE6       010VISTA          000000000015100000000152500000001410000000000000000000145000021592100
0202LOTE PADRAO                   VALE R DOCE ON         VALE3       010VISTA          000000000050600000000510000000005060000000000000000000510000000000900
0202LOTE PADRAO                   ARACRUZ     PNB        ARCZ6       010VISTA          000000000003980000000040000000000390000000000000000000039000000031400
0202LOTE PADRAO                   TELEMIG PARTPN *       TMCP4       010VISTA          000000000003000000000030000000000280000000000000000000029000055902000
0202LOTE PADRAO                   BRASIL TELECPN *       BRTO4       010VISTA          000000000009500000000104000000000930000000000000000000103000150154000
0202LOTE PADRAO                   SABESP      ON *       SBSP3       010VISTA          000000000107000000001100000000010500000000000000000001068000000307200
0202LOTE PADRAO                   BRASKEM     PNA*       BRKM5       010VISTA          000000000330000000003478000000033000000000000000000003410000002188200
0202LOTE PADRAO                   EMBRAER     PN EJ      EMBR4       010VISTA          000000000007800000000080000000000750000000000000000000076000000127900
0202LOTE PADRAO                   TELESP      PN * EJ    TLPP4       010VISTA          000000000021800000000220000000002130000000000000000000218000002741800
0202LOTE PADRAO                   EMBRAER     ON EJ      EMBR3       010VISTA          000000000006900000000070000000000650000000000000000000067000000029500
0202LOTE PADRAO                   AMBEV       PN *       AMBV4       010VISTA          000000000428000000004360000000040700000000000000000004350000003348600
0202LOTE PADRAO                   USIMINAS    PNA        USIM5       010VISTA          000000000003960000000039000000000370000000000000000000039000000023700
0202LOTE PADRAO                   ELETROPAULO PN *       ELPL4       010VISTA          000000000059500000000600000000005650000000000000000000571000002073900
0202LOTE PADRAO                   TELE NORD CLPN *       TNEP4       010VISTA          000000000002300000000023000000000220000000000000000000022000056455000
0202LOTE PADRAO                   CEMIG       PN * EJ    CMIG4       010VISTA          000000000025300000000253000000002430000000000000000000246000023130800
0202LOTE PADRAO                   TELE CL SUL PN * EJ    TCSL4       010VISTA          000000000002700000000027000000000260000000000000000000026000042622900
0202LOTE PADRAO                   CEMIG       ON * EJ    CMIG3       010VISTA          000000000023800000000243000000002380000000000000000000240000001465300
0202LOTE PADRAO                   TELE CL SUL ON * EJ    TCSL3       010VISTA          000000000002300000000023000000000230000000000000000000023000016820100
0202LOTE PADRAO                   ITAUSA      PN         ITSA4       010VISTA          000000000001780000000018000000000177000000000000000000018000000214000
0202LOTE PADRAO                   SID TUBARAO PN *       CSTB4       010VISTA          000000000015200000000155000000001520000000000000000000154000001048000
0202LOTE PADRAO                   V C P       PN *       VCPA4       010VISTA          000000000069700000000715000000006970000000000000000000700000003233300
0202LOTE PADRAO                   BRADESPAR   PN *       BRAP4       010VISTA          000000000000510000000005200000000050000000000000000000005100110132000
0202LOTE PADRAO                   NET         PN         PLIM4       010VISTA          000000000000650000000006500000000061000000000000000000006200000662600
0202LOTE PADRAO                   TELE CTR OESPN * EJ    TCOC4       010VISTA          000000000004400000000045000000000420000000000000000000044000066048200
0202LOTE PADRAO                   GERDAU      PN * EJ    GGBR4       010VISTA          000000000013800000000138000000001340000000000000000000135000008871400
0202LOTE PADRAO                   BRASIL      ON *       BBAS3       010VISTA          000000000007000000000072000000000700000000000000000000070000002021200
