00BDIN9999BOVESPA 99992001050920010509
0101IBOVESPA                      0147170145760148670000000000000000002001050900000020010509014779000000
0202LOTE PADRAO                   EMBRATEL PARPN *       EBTP4       010VISTA          000000000019300000000195000000001900000000000000000000194000070276200
0202LOTE PADRAO                   EMBRATEL PARON *       EBTP3       010VISTA          000000000017800000000183000000001760000000000000000000180000024493800
0202LOTE PADRAO                   TRAN PAULISTPN * EJ    TRPL4       010VISTA          000000000007000000000070000000000679000000000000000000067000018580000
0202LOTE PADRAO                   TELEMAR     PN * EJ    TNLP4       010VISTA          000000000037700000000386000000003750000000000000000000382000165696000
0202LOTE PADRAO                   ITAUBANCO   PN * EJ    ITAU4       010VISTA          000000000178000000001810000000017400000000000000000001810000005964400
0202LOTE PADRAO                   TELEMAR     ON * EJ    TNLP3       010VISTA          000000000033000000000343000000003270000000000000000000339000017679400
0202LOTE PADRAO                   SID NACIONALON *       CSNA3       010VISTA          000000000050300000000506000000004870000000000000000000500000011295600
0202LOTE PADRAO                   TELE LEST CLPN *       TLCP4       010VISTA          000000000001750000000018000000000175000000000000000000017700186048000
0202LOTE PADRAO                   IPIRANGA PETPN *       PTIP4       010VISTA          000000000016300000000163000000001600000000000000000000160000001782400
0202LOTE PADRAO                   BRASIL T PARPN *       BRTP4       010VISTA          000000000018600000000186000000001800000000000000000000181000091384200
0202LOTE PADRAO                   BRASIL T PARON *       BRTP3       010VISTA          000000000018500000000188000000001830000000000000000000185000026030600
0202LOTE PADRAO                   ACESITA     PN *       ACES4       010VISTA          000000000000800000000008100000000078000000000000000000007800288570000
0202LOTE PADRAO                   PETROBRAS   PN         PETR4       010VISTA          000000000054300000000558000000005320000000000000000000556000000128900
0202LOTE PADRAO                   ELETROBRAS  PNB*       ELET6       010VISTA          000000000031900000000319000000003030000000000000000000307000062836800
0202LOTE PADRAO                   PETROBRAS   ON         PETR3       010VISTA          000000000057800000000602000000005780000000000000000000602000000032300
0202LOTE PADRAO                   COMGAS      PNA*       CGAS5       010VISTA          000000000137000000001377000000013200000000000000000001369000001937000
0202LOTE PADRAO                   SOUZA CRUZ  ON EJ      CRUZ3       010VISTA          000000000010500000000108000000001040000000000000000000106000000024900
0202LOTE PADRAO                   CELESC      PNB        CLSC6       010VISTA          000000000000480000000004900000000047000000000000000000004800000437500
0202LOTE PADRAO                   ELETROBRAS  ON *       ELET3       010VISTA          000000000035900000000360000000003450000000000000000000346000073839700
0202LOTE PADRAO                   BRADESCO    PN * EJ    BBDC4       010VISTA          000000000011600000000120000000001130000000000000000000120000160011000
0202LOTE PADRAO                   CESP        PN *       CESP4       010VISTA          000000000019900000000208000000001910000000000000000000205000023222400
0202LOTE PADRAO                   LIGHT       ON *       LIGH3       010VISTA          000000000158000000001580000000015400000000000000000001569000000337800
0202LOTE PADRAO                   TELESP CL PAPN *       TSPP4       010VISTA          000000000014900000000151000000001450000000000000000000145000170399000
0202LOTE PADRAO                   VALE R DOCE PNA        VALE5       010VISTA          000000000052200000000552000000005180000000000000000000548000000075200
0202LOTE PADRAO                   COPEL       PNB*       CPLE6       010VISTA          000000000017500000000178000000001680000000000000000000170000033007800
0202LOTE PADRAO                   VALE R DOCE ON         VALE3       010VISTA          000000000049000000000505000000004900000000000000000000505000000001500
0202LOTE PADRAO                   ARACRUZ     PNB        ARCZ6       010VISTA          000000000003400000000038000000000340000000000000000000038000000234100
0202LOTE PADRAO                   TELEMIG PARTPN *       TMCP4       010VISTA          000000000004300000000046000000000420000000000000000000044000221904000
0202LOTE PADRAO                   BRASIL TELECPN *       BRTO4       010VISTA          000000000013100000000133000000001290000000000000000000130000079132900
0202LOTE PADRAO                   SABESP      ON *       SBSP3       010VISTA          000000000167500000001698000000016650000000000000000001680000001629900
0202LOTE PADRAO                   BRASKEM     PNA*       BRKM5       010VISTA          000000000545000000005450000000053500000000000000000005350000000361800
0202LOTE PADRAO                   EMBRAER     PN EJ      EMBR4       010VISTA          000000000022000000000230000000002200000000000000000000226000000034400
0202LOTE PADRAO                   TELESP      PN * EJ    TLPP4       010VISTA          000000000029800000000298000000002930000000000000000000296000008172800
0202LOTE PADRAO                   EMBRAER     ON EJ      EMBR3       010VISTA          000000000017800000000190000000001760000000000000000000187000000053100
0202LOTE PADRAO                   AMBEV       PN *       AMBV4       010VISTA          000000000529900000005300000000051700000000000000000005300000001319100
0202LOTE PADRAO                   USIMINAS    PNA        USIM5       010VISTA          000000000008100000000082500000000780000000000000000000078000000118800
0202LOTE PADRAO                   ELETROPAULO PN *       ELPL4       010VISTA          000000000060200000000602000000005770000000000000000000580000002272600
0202LOTE PADRAO                   TELE NORD CLPN *       TNEP4       010VISTA          000000000003200000000032000000000300000000000000000000031000076088200
0202LOTE PADRAO                   CEMIG       PN * EJ    CMIG4       010VISTA          000000000024750000000250000000002440000000000000000000249000050012100
0202LOTE PADRAO                   TELE CL SUL PN * EJ    TCSL4       010VISTA          000000000004200000000042000000000410000000000000000000041000127908000
0202LOTE PADRAO                   CEMIG       ON * EJ    CMIG3       010VISTA          000000000025300000000258000000002520000000000000000000257500002771400
0202LOTE PADRAO                   TELE CL SUL ON * EJ    TCSL3       010VISTA          000000000003560000000036000000000350000000000000000000035000023503600
0202LOTE PADRAO                   ITAUSA      PN         ITSA4       010VISTA          000000000001900000000019500000000180000000000000000000019000000266200
0202LOTE PADRAO                   SID TUBARAO PN *       CSTB4       010VISTA          000000000022700000000240000000002260000000000000000000230000011037600
0202LOTE PADRAO                   V C P       PN *       VCPA4       010VISTA          000000000060400000000630000000006000000000000000000000630000012507200
0202LOTE PADRAO                   BRADESPAR   PN *       BRAP4       010VISTA          000000000000940000000009500000000092000000000000000000009300167669000
0202LOTE PADRAO                   NET         PN         PLIM4       010VISTA          000000000001100000000011000000000110000000000000000000011000000838800
0202LOTE PADRAO                   TELE CTR OESPN * EJ    TCOC4       010VISTA          000000000006000000000060000000000580000000000000000000060000038952100
0202LOTE PADRAO                   GERDAU      PN * EJ    GGBR4       010VISTA          000000000019700000000197000000001910000000000000000000194000010712500
0202LOTE PADRAO                   BRASIL      ON *       BBAS3       010VISTA          000000000009000000000090000000000880000000000000000000090000004013700
