00BDIN9999BOVESPA 99992001070220010702
0101IBOVESPA                      0145790144830146590000000000000000002001070200000020010702014555000000
0202LOTE PADRAO                   EMBRATEL PARPN *       EBTP4       010VISTA          000000000017500000000178000000001700000000000000000000171000045996000
0202LOTE PADRAO                   EMBRATEL PARON *       EBTP3       010VISTA          000000000017800000000178000000001730000000000000000000173000022108500
0202LOTE PADRAO                   TRAN PAULISTPN * EJ    TRPL4       010VISTA          000000000006800000000068000000000650000000000000000000065000011960000
0202LOTE PADRAO                   TELEMAR     PN * EJ    TNLP4       010VISTA          000000000035000000000353000000003480000000000000000000350000137012000
0202LOTE PADRAO                   ITAUBANCO   PN * EJ    ITAU4       010VISTA          000000000202000000002025000000019700000000000000000001985000005946200
0202LOTE PADRAO                   TELEMAR     ON * EJ    TNLP3       010VISTA          000000000030600000000306000000003000000000000000000000306000008440900
0202LOTE PADRAO                   SID NACIONALON *       CSNA3       010VISTA          000000000042500000000435000000004200000000000000000000430000005678000
0202LOTE PADRAO                   TELE LEST CLPN *       TLCP4       010VISTA          000000000001800000000018000000000181000000000000000000018000087916300
0202LOTE PADRAO                   IPIRANGA PETPN *       PTIP4       010VISTA          000000000017300000000175000000001700000000000000000000170000002092100
0202LOTE PADRAO                   BRASIL T PARPN *       BRTP4       010VISTA          000000000019000000000200000000001900000000000000000000195000074758900
0202LOTE PADRAO                   BRASIL T PARON *       BRTP3       010VISTA          000000000018750000000190000000001850000000000000000000185000009485100
0202LOTE PADRAO                   ACESITA     PN *       ACES4       010VISTA          000000000000690000000006900000000067000000000000000000006700098421200
0202LOTE PADRAO                   PETROBRAS   PN         PETR4       010VISTA          000000000054000000000540000000005250000000000000000000526000000073000
0202LOTE PADRAO                   ELETROBRAS  PNB*       ELET6       010VISTA          000000000027100000000271000000002660000000000000000000270000033059500
0202LOTE PADRAO                   PETROBRAS   ON         PETR3       010VISTA          000000000059500000000595000000005820000000000000000000582000000028100
0202LOTE PADRAO                   COMGAS      PNA*       CGAS5       010VISTA          000000000144900000001485000000014250000000000000000001480000001107000
0202LOTE PADRAO                   SOUZA CRUZ  ON EJ      CRUZ3       010VISTA          000000000011600000000118000000001150000000000000000000116000000017200
0202LOTE PADRAO                   CELESC      PNB        CLSC6       010VISTA          000000000000450000000004600000000044000000000000000000004500000163500
0202LOTE PADRAO                   ELETROBRAS  ON *       ELET3       010VISTA          000000000029500000000298000000002910000000000000000000294000015328200
0202LOTE PADRAO                   BRADESCO    PN * EJ    BBDC4       010VISTA          000000000012000000000124000000001200000000000000000000123000159208000
0202LOTE PADRAO                   CESP        PN *       CESP4       010VISTA          000000000014500000000145000000001380000000000000000000139000015362400
0202LOTE PADRAO                   LIGHT       ON *       LIGH3       010VISTA          000000000142000000001420000000013600000000000000000001381000001390000
0202LOTE PADRAO                   TELESP CL PAPN *       TSPP4       010VISTA          000000000014000000000148000000001400000000000000000000145000092465000
0202LOTE PADRAO                   VALE R DOCE PNA        VALE5       010VISTA          000000000052000000000542000000005200000000000000000000540000000031200
0202LOTE PADRAO                   COPEL       PNB*       CPLE6       010VISTA          000000000017600000000183000000001730000000000000000000181000039721400
0202LOTE PADRAO                   VALE R DOCE ON         VALE3       010VISTA          000000000054000000000550000000005400000000000000000000542000000005200
0202LOTE PADRAO                   ARACRUZ     PNB        ARCZ6       010VISTA          000000000004200000000043000000000410000000000000000000042000000053400
0202LOTE PADRAO                   TELEMIG PARTPN *       TMCP4       010VISTA          000000000004800000000049000000000460000000000000000000046000106267000
0202LOTE PADRAO                   BRASIL TELECPN *       BRTO4       010VISTA          000000000013400000000140000000001330000000000000000000135000064833500
0202LOTE PADRAO                   SABESP      ON *       SBSP3       010VISTA          000000000166000000001660000000016200000000000000000001620000000569600
0202LOTE PADRAO                   BRASKEM     PNA*       BRKM5       010VISTA          000000000565500000006000000000055500000000000000000006000000000328700
0202LOTE PADRAO                   EMBRAER     PN EJ      EMBR4       010VISTA          000000000022600000000230000000002260000000000000000000228000000025400
0202LOTE PADRAO                   TELESP      PN * EJ    TLPP4       010VISTA          000000000025800000000270000000002580000000000000000000263000004149000
0202LOTE PADRAO                   EMBRAER     ON EJ      EMBR3       010VISTA          000000000017900000000179000000001740000000000000000000174000000032600
0202LOTE PADRAO                   AMBEV       PN *       AMBV4       010VISTA          000000000538000000005499000000053000000000000000000005350000002134200
0202LOTE PADRAO                   USIMINAS    PNA        USIM5       010VISTA          000000000006500000000066000000000630000000000000000000064000000021500
0202LOTE PADRAO                   ELETROPAULO PN *       ELPL4       010VISTA          000000000072400000000780000000007000000000000000000000735000003114300
0202LOTE PADRAO                   TELE NORD CLPN *       TNEP4       010VISTA          000000000003750000000037000000000375000000000000000000037000107687000
0202LOTE PADRAO                   CEMIG       PN * EJ    CMIG4       010VISTA          000000000027300000000273000000002610000000000000000000262000023908800
0202LOTE PADRAO                   TELE CL SUL PN * EJ    TCSL4       010VISTA          000000000004600000000046000000000440000000000000000000045000067749000
0202LOTE PADRAO                   CEMIG       ON * EJ    CMIG3       010VISTA          000000000026300000000273000000002510000000000000000000251000000937400
0202LOTE PADRAO                   TELE CL SUL ON * EJ    TCSL3       010VISTA          000000000003800000000038000000000370000000000000000000037000014116600
0202LOTE PADRAO                   ITAUSA      PN         ITSA4       010VISTA          000000000002000000000021000000000200000000000000000000020000000105200
0202LOTE PADRAO                   SID TUBARAO PN *       CSTB4       010VISTA          000000000021500000000218000000002100000000000000000000218000003169900
0202LOTE PADRAO                   V C P       PN *       VCPA4       010VISTA          000000000069000000000715000000006850000000000000000000704000008551200
0202LOTE PADRAO                   BRADESPAR   PN *       BRAP4       010VISTA          000000000000880000000008900000000085000000000000000000008600082022200
0202LOTE PADRAO                   NET         PN         PLIM4       010VISTA          000000000001000000000011000000000100000000000000000000011000001491800
0202LOTE PADRAO                   TELE CTR OESPN * EJ    TCOC4       010VISTA          000000000006500000000068000000000650000000000000000000068000040012600
0202LOTE PADRAO                   GERDAU      PN * EJ    GGBR4       010VISTA          000000000017600000000176000000001700000000000000000000171000005881700
0202LOTE PADRAO                   BRASIL      ON *       BBAS3       010VISTA          000000000009500000000099000000000940000000000000000000097500005575700
