00BDIN9999BOVESPA 99992001070420010704
0101IBOVESPA                      0143520139800143950000000000000000002001070400000020010704014056000000
0202LOTE PADRAO                   EMBRATEL PARPN *       EBTP4       010VISTA          000000000016900000000171000000001660000000000000000000168000044708100
0202LOTE PADRAO                   EMBRATEL PARON *       EBTP3       010VISTA          000000000017600000000178000000001710000000000000000000172000038663200
0202LOTE PADRAO                   TRAN PAULISTPN * EJ    TRPL4       010VISTA          000000000006600000000066000000000630000000000000000000064000012720000
0202LOTE PADRAO                   TELEMAR     PN * EJ    TNLP4       010VISTA          000000000034400000000347000000003320000000000000000000336000143963000
0202LOTE PADRAO                   ITAUBANCO   PN * EJ    ITAU4       010VISTA          000000000192500000001945000000018700000000000000000001874000004604600
0202LOTE PADRAO                   TELEMAR     ON * EJ    TNLP3       010VISTA          000000000028600000000296000000002850000000000000000000285000009146900
0202LOTE PADRAO                   SID NACIONALON *       CSNA3       010VISTA          000000000041800000000418000000004100000000000000000000415000007723900
0202LOTE PADRAO                   TELE LEST CLPN *       TLCP4       010VISTA          000000000001800000000018000000000176000000000000000000018000071423900
0202LOTE PADRAO                   CRT CELULAR PNA* EJ    CRTP5       010VISTA          000000000950000000009999000000095000000000000000000009999000000106500
0202LOTE PADRAO                   IPIRANGA PETPN *       PTIP4       010VISTA          000000000016700000000167000000001600000000000000000000167000000326600
0202LOTE PADRAO                   BRASIL T PARPN *       BRTP4       010VISTA          000000000019100000000191000000001850000000000000000000187000053342100
0202LOTE PADRAO                   BRASIL T PARON *       BRTP3       010VISTA          000000000018000000000181000000001760000000000000000000180000013872900
0202LOTE PADRAO                   ACESITA     PN *       ACES4       010VISTA          000000000000670000000006800000000066000000000000000000006700078342900
0202LOTE PADRAO                   PETROBRAS   PN         PETR4       010VISTA          000000000051500000000525000000005110000000000000000000512000000101200
0202LOTE PADRAO                   ELETROBRAS  PNB*       ELET6       010VISTA          000000000026100000000262000000002500000000000000000000252000054699600
0202LOTE PADRAO                   PETROBRAS   ON         PETR3       010VISTA          000000000057100000000577000000005620000000000000000000562000000019200
0202LOTE PADRAO                   COMGAS      PNA*       CGAS5       010VISTA          000000000146000000001460000000013500000000000000000001370000002125000
0202LOTE PADRAO                   SOUZA CRUZ  ON EJ      CRUZ3       010VISTA          000000000011300000000115000000001110000000000000000000111000000006400
0202LOTE PADRAO                   ELETROBRAS  ON *       ELET3       010VISTA          000000000028500000000286000000002730000000000000000000275000010339000
0202LOTE PADRAO                   CELESC      PNB        CLSC6       010VISTA          000000000000450000000004500000000043000000000000000000004300000467800
0202LOTE PADRAO                   BRADESCO    PN * EJ    BBDC4       010VISTA          000000000011900000000120000000001160000000000000000000117000136762000
0202LOTE PADRAO                   CESP        PN *       CESP4       010VISTA          000000000014300000000143000000001350000000000000000000139000022711300
0202LOTE PADRAO                   LIGHT       ON *       LIGH3       010VISTA          000000000141800000001418000000013500000000000000000001360000000977900
0202LOTE PADRAO                   TELESP CL PAPN *       TSPP4       010VISTA          000000000014600000000148000000001450000000000000000000146000126384000
0202LOTE PADRAO                   VALE R DOCE PNA        VALE5       010VISTA          000000000052300000000530000000005220000000000000000000522000000025300
0202LOTE PADRAO                   COPEL       PNB*       CPLE6       010VISTA          000000000018500000000185000000001760000000000000000000176000024067400
0202LOTE PADRAO                   VALE R DOCE ON         VALE3       010VISTA          000000000051700000000530000000005170000000000000000000525000000006400
0202LOTE PADRAO                   ARACRUZ     PNB        ARCZ6       010VISTA          000000000004000000000040000000000380000000000000000000040000000005000
0202LOTE PADRAO                   TELEMIG PARTPN *       TMCP4       010VISTA          000000000004500000000045000000000420000000000000000000045000031287000
0202LOTE PADRAO                   BRASIL TELECPN *       BRTO4       010VISTA          000000000013500000000135000000001280000000000000000000129000050513000
0202LOTE PADRAO                   SABESP      ON *       SBSP3       010VISTA          000000000154000000001570000000015400000000000000000001545000001316000
0202LOTE PADRAO                   BRASKEM     PNA*       BRKM5       010VISTA          000000000599300000006069000000057000000000000000000005700000000274000
0202LOTE PADRAO                   EMBRAER     PN EJ      EMBR4       010VISTA          000000000022600000000228000000002240000000000000000000225000000011200
0202LOTE PADRAO                   TELESP      PN * EJ    TLPP4       010VISTA          000000000025600000000262500000002550000000000000000000260000006098200
0202LOTE PADRAO                   EMBRAER     ON EJ      EMBR3       010VISTA          000000000017100000000173000000001700000000000000000000171000000013100
0202LOTE PADRAO                   AMBEV       PN *       AMBV4       010VISTA          000000000515000000005200000000051000000000000000000005151000000168600
0202LOTE PADRAO                   USIMINAS    PNA        USIM5       010VISTA          000000000006500000000065000000000620000000000000000000063000000033200
0202LOTE PADRAO                   ELETROPAULO PN *       ELPL4       010VISTA          000000000074900000000750000000006900000000000000000000705000001191200
0202LOTE PADRAO                   TELE NORD CLPN *       TNEP4       010VISTA          000000000003700000000038000000000360000000000000000000036000057562600
0202LOTE PADRAO                   CEMIG       PN * EJ    CMIG4       010VISTA          000000000025300000000256000000002380000000000000000000241000035728600
0202LOTE PADRAO                   TELE CL SUL PN * EJ    TCSL4       010VISTA          000000000004400000000044000000000420000000000000000000042000021706700
0202LOTE PADRAO                   CEMIG       ON * EJ    CMIG3       010VISTA          000000000024600000000246000000002330000000000000000000233000000903300
0202LOTE PADRAO                   TELE CL SUL ON * EJ    TCSL3       010VISTA          000000000003700000000037000000000356000000000000000000036000011654200
0202LOTE PADRAO                   ITAUSA      PN         ITSA4       010VISTA          000000000002000000000020000000000200000000000000000000020000000300100
0202LOTE PADRAO                   SID TUBARAO PN *       CSTB4       010VISTA          000000000022000000000220000000002080000000000000000000211000010719200
0202LOTE PADRAO                   V C P       PN *       VCPA4       010VISTA          000000000065600000000690000000006400000000000000000000690000000519100
0202LOTE PADRAO                   BRADESPAR   PN *       BRAP4       010VISTA          000000000000840000000008400000000079000000000000000000008000558784000
0202LOTE PADRAO                   NET         PN         PLIM4       010VISTA          000000000001100000000011000000000110000000000000000000011000001670800
0202LOTE PADRAO                   TELE CTR OESPN * EJ    TCOC4       010VISTA          000000000006750000000067500000000650000000000000000000067000078552700
0202LOTE PADRAO                   GERDAU      PN * EJ    GGBR4       010VISTA          000000000017100000000171000000001650000000000000000000166000005381300
0202LOTE PADRAO                   BRASIL      ON *       BBAS3       010VISTA          000000000009500000000096000000000910000000000000000000092000003935700
