00BDIN9999BOVESPA 99992001070620010706
0101IBOVESPA                      0140300137880140620000000000000000002001070600000020010706013907000000
0202LOTE PADRAO                   EMBRATEL PARPN *       EBTP4       010VISTA          000000000016600000000167500000001560000000000000000000160000117292000
0202LOTE PADRAO                   EMBRATEL PARON *       EBTP3       010VISTA          000000000017100000000173000000001625000000000000000000166000037589500
0202LOTE PADRAO                   TRAN PAULISTPN * EJ    TRPL4       010VISTA          000000000006000000000062000000000590000000000000000000060000014140200
0202LOTE PADRAO                   TELEMAR     PN * EJ    TNLP4       010VISTA          000000000033100000000334000000003260000000000000000000330000253846000
0202LOTE PADRAO                   ITAUBANCO   PN * EJ    ITAU4       010VISTA          000000000184500000001845000000018100000000000000000001825000008491900
0202LOTE PADRAO                   TELEMAR     ON * EJ    TNLP3       010VISTA          000000000027800000000281000000002700000000000000000000280000014897200
0202LOTE PADRAO                   SID NACIONALON *       CSNA3       010VISTA          000000000041000000000415000000003970000000000000000000410000003610800
0202LOTE PADRAO                   TELE LEST CLPN *       TLCP4       010VISTA          000000000001800000000018000000000160000000000000000000017500192541000
0202LOTE PADRAO                   CRT CELULAR PNA* EJ    CRTP5       010VISTA          000000000965000000009849000000095990000000000000000009700000000409700
0202LOTE PADRAO                   IPIRANGA PETPN *       PTIP4       010VISTA          000000000016800000000168000000001600000000000000000000160000000443900
0202LOTE PADRAO                   BRASIL T PARPN *       BRTP4       010VISTA          000000000018800000000188000000001750000000000000000000180000159502000
0202LOTE PADRAO                   BRASIL T PARON *       BRTP3       010VISTA          000000000017600000000176000000001710000000000000000000172000012235900
0202LOTE PADRAO                   ACESITA     PN *       ACES4       010VISTA          000000000000650000000006500000000063000000000000000000006400179142000
0202LOTE PADRAO                   PETROBRAS   PN         PETR4       010VISTA          000000000052000000000530000000005160000000000000000000522000000080600
0202LOTE PADRAO                   ELETROBRAS  PNB*       ELET6       010VISTA          000000000026250000000273000000002600000000000000000000271000035376900
0202LOTE PADRAO                   PETROBRAS   ON         PETR3       010VISTA          000000000057000000000585000000005650000000000000000000581000000059900
0202LOTE PADRAO                   COMGAS      PNA*       CGAS5       010VISTA          000000000135000000001430000000013200000000000000000001398000001127600
0202LOTE PADRAO                   SOUZA CRUZ  ON EJ      CRUZ3       010VISTA          000000000011500000000115000000001140000000000000000000115000000014900
0202LOTE PADRAO                   ELETROBRAS  ON *       ELET3       010VISTA          000000000028000000000301000000002800000000000000000000290000013356800
0202LOTE PADRAO                   CELESC      PNB        CLSC6       010VISTA          000000000000420000000004300000000041000000000000000000004300000163200
0202LOTE PADRAO                   BRADESCO    PN * EJ    BBDC4       010VISTA          000000000011600000000116000000001130000000000000000000113000113076000
0202LOTE PADRAO                   CESP        PN *       CESP4       010VISTA          000000000013600000000136000000001330000000000000000000135000009504000
0202LOTE PADRAO                   LIGHT       ON *       LIGH3       010VISTA          000000000146000000001500000000013000000000000000000001300000001737500
0202LOTE PADRAO                   TELESP CL PAPN *       TSPP4       010VISTA          000000000014750000000149000000001430000000000000000000143000114294000
0202LOTE PADRAO                   VALE R DOCE PNA        VALE5       010VISTA          000000000053000000000550000000005200000000000000000000538000000026700
0202LOTE PADRAO                   COPEL       PNB*       CPLE6       010VISTA          000000000018800000000191000000001800000000000000000000185000074078100
0202LOTE PADRAO                   VALE R DOCE ON         VALE3       010VISTA          000000000052800000000539000000005280000000000000000000539000000000500
0202LOTE PADRAO                   ARACRUZ     PNB        ARCZ6       010VISTA          000000000004200000000042000000000400000000000000000000040000000020900
0202LOTE PADRAO                   TELEMIG PARTPN *       TMCP4       010VISTA          000000000004600000000046000000000420000000000000000000042000075861800
0202LOTE PADRAO                   BRASIL TELECPN *       BRTO4       010VISTA          000000000012800000000128000000001200000000000000000000124000123338000
0202LOTE PADRAO                   SABESP      ON *       SBSP3       010VISTA          000000000149000000001499000000014510000000000000000001494000002180300
0202LOTE PADRAO                   BRASKEM     PNA*       BRKM5       010VISTA          000000000568000000005800000000056800000000000000000005730000000085500
0202LOTE PADRAO                   EMBRAER     PN EJ      EMBR4       010VISTA          000000000022800000000233000000002280000000000000000000230000000019500
0202LOTE PADRAO                   TELESP      PN * EJ    TLPP4       010VISTA          000000000026100000000261000000002530000000000000000000261000004763600
0202LOTE PADRAO                   EMBRAER     ON EJ      EMBR3       010VISTA          000000000017200000000175000000001690000000000000000000174000000029700
0202LOTE PADRAO                   AMBEV       PN *       AMBV4       010VISTA          000000000515900000005160000000049900000000000000000004990000000715900
0202LOTE PADRAO                   USIMINAS    PNA        USIM5       010VISTA          000000000006400000000064000000000620000000000000000000063000000030500
0202LOTE PADRAO                   ELETROPAULO PN *       ELPL4       010VISTA          000000000066000000000660000000006090000000000000000000619000018123800
0202LOTE PADRAO                   TELE NORD CLPN *       TNEP4       010VISTA          000000000003700000000039000000000370000000000000000000037000169819000
0202LOTE PADRAO                   CEMIG       PN * EJ    CMIG4       010VISTA          000000000024300000000259000000002380000000000000000000258000040699100
0202LOTE PADRAO                   TELE CL SUL PN * EJ    TCSL4       010VISTA          000000000004500000000046000000000440000000000000000000044000069275400
0202LOTE PADRAO                   CEMIG       ON * EJ    CMIG3       010VISTA          000000000022800000000245000000002250000000000000000000243000003785000
0202LOTE PADRAO                   TELE CL SUL ON * EJ    TCSL3       010VISTA          000000000003750000000038000000000360000000000000000000036000018165400
0202LOTE PADRAO                   ITAUSA      PN         ITSA4       010VISTA          000000000001950000000019900000000195000000000000000000019900000203800
0202LOTE PADRAO                   SID TUBARAO PN *       CSTB4       010VISTA          000000000021300000000213000000002090000000000000000000210000006970000
0202LOTE PADRAO                   V C P       PN *       VCPA4       010VISTA          000000000066400000000700000000006450000000000000000000652000001016700
0202LOTE PADRAO                   BRADESPAR   PN *       BRAP4       010VISTA          000000000000790000000008200000000079000000000000000000008200213186000
0202LOTE PADRAO                   NET         PN         PLIM4       010VISTA          000000000001000000000010000000000099000000000000000000010000001467300
0202LOTE PADRAO                   TELE CTR OESPN * EJ    TCOC4       010VISTA          000000000006700000000067000000000650000000000000000000065000051268500
0202LOTE PADRAO                   GERDAU      PN * EJ    GGBR4       010VISTA          000000000015800000000159000000001550000000000000000000158000012126200
0202LOTE PADRAO                   BRASIL      ON *       BBAS3       010VISTA          000000000009100000000092000000000890000000000000000000090000003159600
