00BDIN9999BOVESPA 99992001110920011109
0101IBOVESPA                      0125420124120127780000000000000000002001110900000020011109012731000000
0202LOTE PADRAO                   EMBRATEL PARPN *       EBTP4       010VISTA          000000000009100000000093000000000900000000000000000000092500162772000
0202LOTE PADRAO                   EMBRATEL PARON *       EBTP3       010VISTA          000000000009800000000098000000000950000000000000000000098000044319700
0202LOTE PADRAO                   TRAN PAULISTPN * EJ    TRPL4       010VISTA          000000000005700000000058000000000560000000000000000000057000008354400
0202LOTE PADRAO                   TELEMAR     PN * EJ    TNLP4       010VISTA          000000000032300000000332000000003180000000000000000000327000328097000
0202LOTE PADRAO                   ITAUBANCO   PN * EJ    ITAU4       010VISTA          000000000180500000001830000000017650000000000000000001830000008866900
0202LOTE PADRAO                   TELEMAR     ON * EJ    TNLP3       010VISTA          000000000028600000000294000000002830000000000000000000290000015477800
0202LOTE PADRAO                   SID NACIONALON *       CSNA3       010VISTA          000000000031500000000332000000003140000000000000000000331000010922800
0202LOTE PADRAO                   TELE LEST CLPN *       TLCP4       010VISTA          000000000000820000000008300000000080000000000000000000008100302560000
0202LOTE PADRAO                   CRT CELULAR PNA* EJ    CRTP5       010VISTA          000000000440000000004400000000042100000000000000000004400000001696700
0202LOTE PADRAO                   IPIRANGA PETPN *       PTIP4       010VISTA          000000000014000000000140000000001350000000000000000000140000002110900
0202LOTE PADRAO                   BRASIL T PARPN *       BRTP4       010VISTA          000000000018300000000186000000001730000000000000000000185000102312000
0202LOTE PADRAO                   BRASIL T PARON *       BRTP3       010VISTA          000000000016800000000180000000001660000000000000000000179000006170700
0202LOTE PADRAO                   ACESITA     PN *       ACES4       010VISTA          000000000000560000000005900000000056000000000000000000005900087954200
0202LOTE PADRAO                   PETROBRAS   PN         PETR4       010VISTA          000000000052200000000543000000005200000000000000000000540000000173100
0202LOTE PADRAO                   ELETROBRAS  PNB*       ELET6       010VISTA          000000000033500000000342500000003300000000000000000000336000030633700
0202LOTE PADRAO                   PETROBRAS   ON         PETR3       010VISTA          000000000054000000000565000000005370000000000000000000560000000028800
0202LOTE PADRAO                   COMGAS      PNA*       CGAS5       010VISTA          000000000084500000000900000000008450000000000000000000880000001949300
0202LOTE PADRAO                   SOUZA CRUZ  ON EJ      CRUZ3       010VISTA          000000000011900000000124000000001180000000000000000000124000000021000
0202LOTE PADRAO                   ELETROBRAS  ON *       ELET3       010VISTA          000000000035600000000367000000003450000000000000000000348000034292800
0202LOTE PADRAO                   CELESC      PNB        CLSC6       010VISTA          000000000000480000000004900000000047000000000000000000004900000072800
0202LOTE PADRAO                   BRADESCO    PN * EJ    BBDC4       010VISTA          000000000011500000000118000000001130000000000000000000115000242243000
0202LOTE PADRAO                   CESP        PN *       CESP4       010VISTA          000000000012500000000128000000001240000000000000000000125000008015300
0202LOTE PADRAO                   LIGHT       ON *       LIGH3       010VISTA          000000000092500000000930000000009200000000000000000000920000000781200
0202LOTE PADRAO                   TELESP CL PAPN *       TSPP4       010VISTA          000000000006200000000067000000000620000000000000000000067000408909000
0202LOTE PADRAO                   VALE R DOCE PNA        VALE5       010VISTA          000000000054500000000547000000005450000000000000000000546000000059500
0202LOTE PADRAO                   COPEL       PNB*       CPLE6       010VISTA          000000000015000000000155000000001500000000000000000000151000031842300
0202LOTE PADRAO                   VALE R DOCE ON         VALE3       010VISTA          000000000050200000000510000000005020000000000000000000507000000004400
0202LOTE PADRAO                   ARACRUZ     PNB        ARCZ6       010VISTA          000000000004500000000046000000000440000000000000000000045000000012200
0202LOTE PADRAO                   TELEMIG PARTPN *       TMCP4       010VISTA          000000000004000000000041000000000380000000000000000000040000104861000
0202LOTE PADRAO                   BRASIL TELECPN *       BRTO4       010VISTA          000000000012100000000128000000001200000000000000000000126000246983000
0202LOTE PADRAO                   SABESP      ON *       SBSP3       010VISTA          000000000124100000001241000000011900000000000000000001205000001544200
0202LOTE PADRAO                   BRASKEM     PNA*       BRKM5       010VISTA          000000000388000000004198000000038800000000000000000004100000000343200
0202LOTE PADRAO                   EMBRAER     PN EJ      EMBR4       010VISTA          000000000011000000000111000000001075000000000000000000108000000047200
0202LOTE PADRAO                   TELESP      PN * EJ    TLPP4       010VISTA          000000000030000000000300000000002910000000000000000000292500010543600
0202LOTE PADRAO                   EMBRAER     ON EJ      EMBR3       010VISTA          000000000009300000000093000000000925000000000000000000093000000027400
0202LOTE PADRAO                   AMBEV       PN *       AMBV4       010VISTA          000000000469900000004810000000045000000000000000000004700000003947000
0202LOTE PADRAO                   USIMINAS    PNA        USIM5       010VISTA          000000000004750000000050000000000470000000000000000000049000000061900
0202LOTE PADRAO                   ELETROPAULO PN *       ELPL4       010VISTA          000000000066700000000695000000006670000000000000000000692000005670800
0202LOTE PADRAO                   TELE NORD CLPN *       TNEP4       010VISTA          000000000003200000000032000000000310000000000000000000032000136406000
0202LOTE PADRAO                   CEMIG       PN * EJ    CMIG4       010VISTA          000000000028300000000295000000002820000000000000000000291000046740300
0202LOTE PADRAO                   TELE CL SUL PN * EJ    TCSL4       010VISTA          000000000003500000000035000000000325000000000000000000033000189405000
0202LOTE PADRAO                   CEMIG       ON * EJ    CMIG3       010VISTA          000000000027300000000276000000002700000000000000000000275000001351500
0202LOTE PADRAO                   TELE CL SUL ON * EJ    TCSL3       010VISTA          000000000002900000000029000000000270000000000000000000028000039620800
0202LOTE PADRAO                   ITAUSA      PN         ITSA4       010VISTA          000000000001940000000020000000000194000000000000000000020000000356900
0202LOTE PADRAO                   SID TUBARAO PN *       CSTB4       010VISTA          000000000017600000000181000000001730000000000000000000181000002569600
0202LOTE PADRAO                   V C P       PN *       VCPA4       010VISTA          000000000077000000000770000000007570000000000000000000765000001980000
0202LOTE PADRAO                   BRADESPAR   PN *       BRAP4       010VISTA          000000000000720000000007400000000070000000000000000000007300186162000
0202LOTE PADRAO                   NET         PN         PLIM4       010VISTA          000000000000760000000007900000000074000000000000000000007900000586100
0202LOTE PADRAO                   TELE CTR OESPN * EJ    TCOC4       010VISTA          000000000005300000000053000000000510000000000000000000052500104753000
0202LOTE PADRAO                   GERDAU      PN * EJ    GGBR4       010VISTA          000000000019100000000196000000001910000000000000000000194000016245700
0202LOTE PADRAO                   BRASIL      ON *       BBAS3       010VISTA          000000000008400000000084000000000800000000000000000000084000004927000
