00BDIN9999BOVESPA 99992001010920010109
0101IBOVESPA                      0165660165660170960000000000000000002001010900000020010109016976000000
0202LOTE PADRAO                   EMBRATEL PARPN *       EBTP4       010VISTA          000000000032600000000338000000003240000000000000000000332000122613000
0202LOTE PADRAO                   EMBRATEL PARON *       EBTP3       010VISTA          000000000025000000000265000000002500000000000000000000253000036409600
0202LOTE PADRAO                   TRAN PAULISTPN * EJ    TRPL4       010VISTA          000000000007300000000077000000000730000000000000000000075000041384000
0202LOTE PADRAO                   TELEMAR     PN * EJ    TNLP4       010VISTA          000000000046500000000477000000004620000000000000000000470000237927000
0202LOTE PADRAO                   ITAUBANCO   PN * EJ    ITAU4       010VISTA          000000000188000000001920000000018600000000000000000001868000010029100
0202LOTE PADRAO                   TELEMAR     ON * EJ    TNLP3       010VISTA          000000000035500000000369000000003550000000000000000000369000031046300
0202LOTE PADRAO                   SID NACIONALON *       CSNA3       010VISTA          000000000064000000000647000000006400000000000000000000647500012445500
0202LOTE PADRAO                   TELE LEST CLPN *       TLCP4       010VISTA          000000000001400000000015200000000140000000000000000000015000125059000
0202LOTE PADRAO                   CRT CELULAR PNA* EJ    CRTP5       010VISTA          000000000700000000007500000000070000000000000000000007400000000906100
0202LOTE PADRAO                   IPIRANGA PETPN *       PTIP4       010VISTA          000000000017000000000175000000001690000000000000000000173000011247000
0202LOTE PADRAO                   BRASIL T PARPN *       BRTP4       010VISTA          000000000023600000000245000000002310000000000000000000243000175291000
0202LOTE PADRAO                   BRASIL T PARON *       BRTP3       010VISTA          000000000019000000000200000000001900000000000000000000196000037843800
0202LOTE PADRAO                   ACESITA     PN *       ACES4       010VISTA          000000000001100000000011000000000110000000000000000000011000316587000
0202LOTE PADRAO                   PETROBRAS   PN         PETR4       010VISTA          000000000050000000000507000000004960000000000000000000504000000136000
0202LOTE PADRAO                   ELETROBRAS  PNB*       ELET6       010VISTA          000000000035300000000360000000003480000000000000000000358000076707700
0202LOTE PADRAO                   PETROBRAS   ON         PETR3       010VISTA          000000000052500000000535000000005250000000000000000000532000000027900
0202LOTE PADRAO                   COMGAS      PNA*       CGAS5       010VISTA          000000000129900000001320000000012860000000000000000001300000005671500
0202LOTE PADRAO                   SOUZA CRUZ  ON EJ      CRUZ3       010VISTA          000000000009400000000096000000000930000000000000000000094000000009800
0202LOTE PADRAO                   ELETROBRAS  ON *       ELET3       010VISTA          000000000037000000000377000000003600000000000000000000377000031913900
0202LOTE PADRAO                   CELESC      PNB        CLSC6       010VISTA          000000000000620000000006400000000062000000000000000000006300000321700
0202LOTE PADRAO                   BRADESCO    PN * EJ    BBDC4       010VISTA          000000000013800000000140000000001380000000000000000000139000002280800
0202LOTE PADRAO                   CESP        PN *       CESP4       010VISTA          000000000021100000000216000000002100000000000000000000213000015770300
0202LOTE PADRAO                   LIGHT       ON *       LIGH3       010VISTA          000000000236000000002469000000023600000000000000000002450000000697500
0202LOTE PADRAO                   TELESP CL PAPN *       TSPP4       010VISTA          000000000023300000000235000000002280000000000000000000230000151498000
0202LOTE PADRAO                   VALE R DOCE PNA        VALE5       010VISTA          000000000047800000000479000000004700000000000000000000479000000037000
0202LOTE PADRAO                   COPEL       PNB*       CPLE6       010VISTA          000000000017100000000183000000001710000000000000000000179000083937400
0202LOTE PADRAO                   VALE R DOCE ON         VALE3       010VISTA          000000000044000000000440000000004380000000000000000000440000000000100
0202LOTE PADRAO                   ARACRUZ     PNB        ARCZ6       010VISTA          000000000003100000000032000000000310000000000000000000032000000249800
0202LOTE PADRAO                   TELEMIG PARTPN *       TMCP4       010VISTA          000000000005700000000059000000000570000000000000000000058000254572000
0202LOTE PADRAO                   BRASIL TELECPN *       BRTO4       010VISTA          000000000017600000000178000000001730000000000000000000177000104526000
0202LOTE PADRAO                   SABESP      ON *       SBSP3       010VISTA          000000000190000000001945000000019000000000000000000001900000002915800
0202LOTE PADRAO                   BRASKEM     PNA*       BRKM5       010VISTA          000000000634000000006600000000062990000000000000000006350000000377900
0202LOTE PADRAO                   EMBRAER     PN EJ      EMBR4       010VISTA          000000000020000000000202500000001960000000000000000000200000000063400
0202LOTE PADRAO                   TELESP      PN * EJ    TLPP4       010VISTA          000000000027500000000278000000002700000000000000000000274000018279600
0202LOTE PADRAO                   EMBRAER     ON EJ      EMBR3       010VISTA          000000000014600000000159000000001460000000000000000000158000000135000
0202LOTE PADRAO                   AMBEV       PN *       AMBV4       010VISTA          000000000476900000004769000000046000000000000000000004675000002292600
0202LOTE PADRAO                   USIMINAS    PNA        USIM5       010VISTA          000000000009900000000101000000000990000000000000000000101000000053700
0202LOTE PADRAO                   ELETROPAULO PN *       ELPL4       010VISTA          000000000100000000001010000000009890000000000000000001005000014279400
0202LOTE PADRAO                   TELE NORD CLPN *       TNEP4       010VISTA          000000000004400000000046000000000440000000000000000000045000116582000
0202LOTE PADRAO                   CEMIG       PN * EJ    CMIG4       010VISTA          000000000031100000000322500000003110000000000000000000322500102439000
0202LOTE PADRAO                   TELE CL SUL PN * EJ    TCSL4       010VISTA          000000000005500000000057000000000540000000000000000000054000095321800
0202LOTE PADRAO                   CEMIG       ON * EJ    CMIG3       010VISTA          000000000025500000000256000000002510000000000000000000253000003713200
0202LOTE PADRAO                   TELE CL SUL ON * EJ    TCSL3       010VISTA          000000000004600000000049000000000450000000000000000000049000045573900
0202LOTE PADRAO                   ITAUSA      PN         ITSA4       010VISTA          000000000002000000000020000000000199000000000000000000020000000502300
0202LOTE PADRAO                   SID TUBARAO PN *       CSTB4       010VISTA          000000000023000000000235000000002300000000000000000000230000005990000
0202LOTE PADRAO                   V C P       PN *       VCPA4       010VISTA          000000000057500000000600000000005750000000000000000000600000011436600
0202LOTE PADRAO                   BRADESPAR   PN *       BRAP4       010VISTA          000000000001100000000012400000000110000000000000000000012000581011000
0202LOTE PADRAO                   NET         PN         PLIM4       010VISTA          000000000002200000000023000000000220000000000000000000023000001866800
0202LOTE PADRAO                   TELE CTR OESPN * EJ    TCOC4       010VISTA          000000000007300000000077000000000730000000000000000000077000141108000
0202LOTE PADRAO                   GERDAU      PN * EJ    GGBR4       010VISTA          000000000019600000000198000000001940000000000000000000195000026915600
0202LOTE PADRAO                   BRASIL      ON *       BBAS3       010VISTA          000000000007100000000077000000000710000000000000000000075000011559700
