00BDIN9999BOVESPA 99992001121120011211
0101IBOVESPA                      0134550133370135950000000000000000002001121100000020011211013348000000
0202LOTE PADRAO                   EMBRATEL PARPN *       EBTP4       010VISTA          000000000009600000000097000000000930000000000000000000094000202879000
0202LOTE PADRAO                   EMBRATEL PARON *       EBTP3       010VISTA          000000000010500000000107000000001040000000000000000000105000046556900
0202LOTE PADRAO                   TRAN PAULISTPN * EJ    TRPL4       010VISTA          000000000006200000000064000000000620000000000000000000063000016709700
0202LOTE PADRAO                   TELEMAR     PN * EJ    TNLP4       010VISTA          000000000034500000000350000000003430000000000000000000344000211373000
0202LOTE PADRAO                   ITAUBANCO   PN * EJ    ITAU4       010VISTA          000000000177500000001775000000017500000000000000000001765000016388000
0202LOTE PADRAO                   TELEMAR     ON * EJ    TNLP3       010VISTA          000000000030300000000303000000002930000000000000000000295000012626900
0202LOTE PADRAO                   SID NACIONALON *       CSNA3       010VISTA          000000000039000000000397000000003830000000000000000000385000014284500
0202LOTE PADRAO                   TELE LEST CLPN *       TLCP4       010VISTA          000000000000920000000009300000000090000000000000000000009100290710000
0202LOTE PADRAO                   CRT CELULAR PNA* EJ    CRTP5       010VISTA          000000000484900000004849000000047300000000000000000004750000000504900
0202LOTE PADRAO                   IPIRANGA PETPN *       PTIP4       010VISTA          000000000013600000000139000000001320000000000000000000132000004360900
0202LOTE PADRAO                   BRASIL T PARPN *       BRTP4       010VISTA          000000000019600000000198000000001880000000000000000000196000079492700
0202LOTE PADRAO                   BRASIL T PARON *       BRTP3       010VISTA          000000000019300000000193000000001830000000000000000000187000006620000
0202LOTE PADRAO                   ACESITA     PN *       ACES4       010VISTA          000000000000720000000007300000000070000000000000000000007100205000000
0202LOTE PADRAO                   PETROBRAS   PN         PETR4       010VISTA          000000000049300000000497000000004850000000000000000000486000000112100
0202LOTE PADRAO                   ELETROBRAS  PNB*       ELET6       010VISTA          000000000032200000000323000000003140000000000000000000315000027349400
0202LOTE PADRAO                   PETROBRAS   ON         PETR3       010VISTA          000000000050200000000511000000004950000000000000000000500000000053800
0202LOTE PADRAO                   COMGAS      PNA*       CGAS5       010VISTA          000000000090500000000937500000009050000000000000000000937500001826000
0202LOTE PADRAO                   SOUZA CRUZ  ON EJ      CRUZ3       010VISTA          000000000013900000000141000000001390000000000000000000140000000014800
0202LOTE PADRAO                   ELETROBRAS  ON *       ELET3       010VISTA          000000000034700000000347000000003325000000000000000000332500013365400
0202LOTE PADRAO                   CELESC      PNB        CLSC6       010VISTA          000000000000470000000004900000000047000000000000000000004800000126900
0202LOTE PADRAO                   BRADESCO    PN * EJ    BBDC4       010VISTA          000000000011900000000120000000001180000000000000000000118000306634000
0202LOTE PADRAO                   CESP        PN *       CESP4       010VISTA          000000000016100000000171000000001610000000000000000000164000019181500
0202LOTE PADRAO                   LIGHT       ON *       LIGH3       010VISTA          000000000123000000001230000000011500000000000000000001199000000862200
0202LOTE PADRAO                   TELESP CL PAPN *       TSPP4       010VISTA          000000000007900000000080000000000780000000000000000000078000158424000
0202LOTE PADRAO                   VALE R DOCE PNA        VALE5       010VISTA          000000000052700000000529000000005250000000000000000000528000000030100
0202LOTE PADRAO                   COPEL       PNB*       CPLE6       010VISTA          000000000016900000000172000000001670000000000000000000167000044233100
0202LOTE PADRAO                   VALE R DOCE ON         VALE3       010VISTA          000000000049700000000500000000004920000000000000000000496000000002100
0202LOTE PADRAO                   ARACRUZ     PNB        ARCZ6       010VISTA          000000000004600000000046000000000430000000000000000000043000000017000
0202LOTE PADRAO                   TELEMIG PARTPN *       TMCP4       010VISTA          000000000004400000000045000000000420000000000000000000043000124526000
0202LOTE PADRAO                   BRASIL TELECPN *       BRTO4       010VISTA          000000000013700000000139000000001330000000000000000000133000144997000
0202LOTE PADRAO                   SABESP      ON *       SBSP3       010VISTA          000000000130500000001313000000012950000000000000000001313000002623100
0202LOTE PADRAO                   BRASKEM     PNA*       BRKM5       010VISTA          000000000424900000004290000000042000000000000000000004220000000297600
0202LOTE PADRAO                   EMBRAER     PN EJ      EMBR4       010VISTA          000000000012000000000122500000001190000000000000000000119000000057000
0202LOTE PADRAO                   TELESP      PN * EJ    TLPP4       010VISTA          000000000031300000000314000000003040000000000000000000311000005064700
0202LOTE PADRAO                   EMBRAER     ON EJ      EMBR3       010VISTA          000000000010500000000106000000001040000000000000000000104000000020800
0202LOTE PADRAO                   AMBEV       PN *       AMBV4       010VISTA          000000000497000000005100000000049400000000000000000004940000002313400
0202LOTE PADRAO                   USIMINAS    PNA        USIM5       010VISTA          000000000006000000000062000000000600000000000000000000060000000036600
0202LOTE PADRAO                   ELETROPAULO PN *       ELPL4       010VISTA          000000000081000000000815000000007750000000000000000000775000001910400
0202LOTE PADRAO                   TELE NORD CLPN *       TNEP4       010VISTA          000000000003300000000034000000000320000000000000000000033000077621100
0202LOTE PADRAO                   CEMIG       PN * EJ    CMIG4       010VISTA          000000000034200000000355000000003420000000000000000000346000056481600
0202LOTE PADRAO                   TELE CL SUL PN * EJ    TCSL4       010VISTA          000000000003900000000040000000000380000000000000000000038000070953700
0202LOTE PADRAO                   CEMIG       ON * EJ    CMIG3       010VISTA          000000000030600000000310000000003050000000000000000000310000003844900
0202LOTE PADRAO                   TELE CL SUL ON * EJ    TCSL3       010VISTA          000000000003200000000032500000000310000000000000000000031000033084700
0202LOTE PADRAO                   ITAUSA      PN         ITSA4       010VISTA          000000000002100000000021000000000200000000000000000000021000000629600
0202LOTE PADRAO                   V C P       PN *       VCPA4       010VISTA          000000000081900000000832000000008010000000000000000000801000000687300
0202LOTE PADRAO                   SID TUBARAO PN *       CSTB4       010VISTA          000000000022750000000238000000002270000000000000000000230000003809600
0202LOTE PADRAO                   BRADESPAR   PN *       BRAP4       010VISTA          000000000000860000000008700000000083000000000000000000008400321403000
0202LOTE PADRAO                   NET         PN         PLIM4       010VISTA          000000000000820000000008500000000081000000000000000000008100001138500
0202LOTE PADRAO                   TELE CTR OESPN * EJ    TCOC4       010VISTA          000000000005400000000054000000000530000000000000000000053000142925000
0202LOTE PADRAO                   TELEMAR N L PNA* EJ    TMAR5       010VISTA          000000000059600000000597000000005770000000000000000000582000053467700
0202LOTE PADRAO                   GERDAU      PN * EJ    GGBR4       010VISTA          000000000022000000000225000000002175000000000000000000217500008089500
0202LOTE PADRAO                   BRASIL      ON *       BBAS3       010VISTA          000000000009800000000099000000000950000000000000000000099000005720700
