00BDIN9999BOVESPA 99992001110720011107
0101IBOVESPA                      0124050123310129820000000000000000002001110700000020011107012616000000
0202LOTE PADRAO                   EMBRATEL PARPN *       EBTP4       010VISTA          000000000009400000000101000000000900000000000000000000094000191329000
0202LOTE PADRAO                   EMBRATEL PARON *       EBTP3       010VISTA          000000000009700000000105000000000970000000000000000000099000031795000
0202LOTE PADRAO                   TRAN PAULISTPN * EJ    TRPL4       010VISTA          000000000005800000000060000000000580000000000000000000059000016392000
0202LOTE PADRAO                   TELEMAR     PN * EJ    TNLP4       010VISTA          000000000031900000000345000000003150000000000000000000328000639382000
0202LOTE PADRAO                   ITAUBANCO   PN * EJ    ITAU4       010VISTA          000000000182000000001878000000018200000000000000000001830000011015300
0202LOTE PADRAO                   TELEMAR     ON * EJ    TNLP3       010VISTA          000000000029000000000301000000002780000000000000000000288000037315100
0202LOTE PADRAO                   SID NACIONALON *       CSNA3       010VISTA          000000000030300000000340000000003030000000000000000000325000015763400
0202LOTE PADRAO                   TELE LEST CLPN *       TLCP4       010VISTA          000000000000770000000008400000000076000000000000000000008100931221000
0202LOTE PADRAO                   CRT CELULAR PNA* EJ    CRTP5       010VISTA          000000000410000000004450000000040700000000000000000004298000002627400
0202LOTE PADRAO                   IPIRANGA PETPN *       PTIP4       010VISTA          000000000012000000000133000000001200000000000000000000130000005007600
0202LOTE PADRAO                   BRASIL T PARPN *       BRTP4       010VISTA          000000000018250000000195000000001810000000000000000000183000144407000
0202LOTE PADRAO                   BRASIL T PARON *       BRTP3       010VISTA          000000000017100000000183000000001710000000000000000000176000004354100
0202LOTE PADRAO                   ACESITA     PN *       ACES4       010VISTA          000000000000550000000005700000000055000000000000000000005700138172000
0202LOTE PADRAO                   PETROBRAS   PN         PETR4       010VISTA          000000000049500000000502000000004920000000000000000000500000000179400
0202LOTE PADRAO                   ELETROBRAS  PNB*       ELET6       010VISTA          000000000035200000000352000000003400000000000000000000340000031207800
0202LOTE PADRAO                   PETROBRAS   ON         PETR3       010VISTA          000000000052000000000525000000005150000000000000000000522000000038700
0202LOTE PADRAO                   COMGAS      PNA*       CGAS5       010VISTA          000000000081000000000834000000008000000000000000000000815000001181500
0202LOTE PADRAO                   SOUZA CRUZ  ON EJ      CRUZ3       010VISTA          000000000011900000000121000000001180000000000000000000118000000031500
0202LOTE PADRAO                   ELETROBRAS  ON *       ELET3       010VISTA          000000000037500000000377000000003670000000000000000000367000022415200
0202LOTE PADRAO                   CELESC      PNB        CLSC6       010VISTA          000000000000480000000004900000000047000000000000000000004900000276200
0202LOTE PADRAO                   BRADESCO    PN * EJ    BBDC4       010VISTA          000000000011400000000118000000001110000000000000000000117500182623000
0202LOTE PADRAO                   CESP        PN *       CESP4       010VISTA          000000000013100000000133000000001260000000000000000000129000020380700
0202LOTE PADRAO                   LIGHT       ON *       LIGH3       010VISTA          000000000095000000000975000000009400000000000000000000945000000560300
0202LOTE PADRAO                   TELESP CL PAPN *       TSPP4       010VISTA          000000000006000000000067000000000600000000000000000000064000766560000
0202LOTE PADRAO                   VALE R DOCE PNA        VALE5       010VISTA          000000000056200000000562000000005500000000000000000000551000000055300
0202LOTE PADRAO                   COPEL       PNB*       CPLE6       010VISTA          000000000013600000000150000000001350000000000000000000145000108134000
0202LOTE PADRAO                   VALE R DOCE ON         VALE3       010VISTA          000000000051800000000518000000005100000000000000000000511000000000800
0202LOTE PADRAO                   ARACRUZ     PNB        ARCZ6       010VISTA          000000000004600000000047000000000450000000000000000000045000000036600
0202LOTE PADRAO                   TELEMIG PARTPN *       TMCP4       010VISTA          000000000003700000000041000000000360000000000000000000040000171828000
0202LOTE PADRAO                   BRASIL TELECPN *       BRTO4       010VISTA          000000000012500000000131000000001225000000000000000000126000236696000
0202LOTE PADRAO                   SABESP      ON *       SBSP3       010VISTA          000000000123500000001300000000012290000000000000000001270000001937200
0202LOTE PADRAO                   BRASKEM     PNA*       BRKM5       010VISTA          000000000400500000004200000000040050000000000000000004110000000077700
0202LOTE PADRAO                   EMBRAER     PN EJ      EMBR4       010VISTA          000000000011500000000117000000001110000000000000000000113000000098700
0202LOTE PADRAO                   TELESP      PN * EJ    TLPP4       010VISTA          000000000028500000000303000000002850000000000000000000300000022460600
0202LOTE PADRAO                   EMBRAER     ON EJ      EMBR3       010VISTA          000000000010000000000100000000000950000000000000000000096000000058100
0202LOTE PADRAO                   AMBEV       PN *       AMBV4       010VISTA          000000000495000000005199000000049200000000000000000005090000003035900
0202LOTE PADRAO                   USIMINAS    PNA        USIM5       010VISTA          000000000004300000000048000000000430000000000000000000047000000152800
0202LOTE PADRAO                   ELETROPAULO PN *       ELPL4       010VISTA          000000000067900000000699000000006700000000000000000000675000003348600
0202LOTE PADRAO                   TELE NORD CLPN *       TNEP4       010VISTA          000000000003000000000033000000000300000000000000000000032700161816000
0202LOTE PADRAO                   CEMIG       PN * EJ    CMIG4       010VISTA          000000000028800000000296000000002860000000000000000000290000046478200
0202LOTE PADRAO                   TELE CL SUL PN * EJ    TCSL4       010VISTA          000000000003300000000037000000000330000000000000000000035000121201000
0202LOTE PADRAO                   CEMIG       ON * EJ    CMIG3       010VISTA          000000000028000000000280000000002710000000000000000000271000001851800
0202LOTE PADRAO                   TELE CL SUL ON * EJ    TCSL3       010VISTA          000000000002800000000031000000000270000000000000000000028000101158000
0202LOTE PADRAO                   ITAUSA      PN         ITSA4       010VISTA          000000000001950000000020000000000195000000000000000000019600000816900
0202LOTE PADRAO                   SID TUBARAO PN *       CSTB4       010VISTA          000000000017000000000178000000001700000000000000000000175000006445900
0202LOTE PADRAO                   V C P       PN *       VCPA4       010VISTA          000000000081000000000810000000007700000000000000000000770000000963900
0202LOTE PADRAO                   BRADESPAR   PN *       BRAP4       010VISTA          000000000000750000000007700000000073000000000000000000007300230014000
0202LOTE PADRAO                   NET         PN         PLIM4       010VISTA          000000000000720000000007900000000071000000000000000000007400000947700
0202LOTE PADRAO                   TELE CTR OESPN * EJ    TCOC4       010VISTA          000000000005000000000055000000000490000000000000000000052000155573000
0202LOTE PADRAO                   GERDAU      PN * EJ    GGBR4       010VISTA          000000000019100000000197000000001900000000000000000000191000009242300
0202LOTE PADRAO                   BRASIL      ON *       BBAS3       010VISTA          000000000008200000000084000000000810000000000000000000081000010535600
