00BDIN9999BOVESPA 99992001011120010111
0101IBOVESPA                      0169080167970170450000000000000000002001011100000020010111017024000000
0202LOTE PADRAO                   EMBRATEL PARPN *       EBTP4       010VISTA          000000000033100000000338000000003280000000000000000000336000082804900
0202LOTE PADRAO                   EMBRATEL PARON *       EBTP3       010VISTA          000000000026300000000273000000002550000000000000000000273000040532600
0202LOTE PADRAO                   TRAN PAULISTPN * EJ    TRPL4       010VISTA          000000000007800000000082000000000750000000000000000000080000074378900
0202LOTE PADRAO                   TELEMAR     PN * EJ    TNLP4       010VISTA          000000000047200000000485000000004670000000000000000000482000193906000
0202LOTE PADRAO                   ITAUBANCO   PN * EJ    ITAU4       010VISTA          000000000189800000001900000000018500000000000000000001890000005103200
0202LOTE PADRAO                   TELEMAR     ON * EJ    TNLP3       010VISTA          000000000036100000000372000000003590000000000000000000372000025063200
0202LOTE PADRAO                   SID NACIONALON *       CSNA3       010VISTA          000000000064400000000647000000006400000000000000000000642000011847900
0202LOTE PADRAO                   TELE LEST CLPN *       TLCP4       010VISTA          000000000001470000000014700000000140000000000000000000014000083652500
0202LOTE PADRAO                   CRT CELULAR PNA* EJ    CRTP5       010VISTA          000000000740000000007400000000072000000000000000000007400000000313400
0202LOTE PADRAO                   IPIRANGA PETPN *       PTIP4       010VISTA          000000000016900000000169000000001660000000000000000000168000008277300
0202LOTE PADRAO                   BRASIL T PARPN *       BRTP4       010VISTA          000000000023600000000241000000002330000000000000000000241000075004300
0202LOTE PADRAO                   BRASIL T PARON *       BRTP3       010VISTA          000000000019600000000202000000001950000000000000000000202000046493700
0202LOTE PADRAO                   ACESITA     PN *       ACES4       010VISTA          000000000001100000000011000000000110000000000000000000011000210212000
0202LOTE PADRAO                   PETROBRAS   PN         PETR4       010VISTA          000000000050100000000510000000005000000000000000000000507000000107900
0202LOTE PADRAO                   ELETROBRAS  PNB*       ELET6       010VISTA          000000000035250000000366000000003520000000000000000000363000041288600
0202LOTE PADRAO                   PETROBRAS   ON         PETR3       010VISTA          000000000052200000000535000000005220000000000000000000525000000029600
0202LOTE PADRAO                   COMGAS      PNA*       CGAS5       010VISTA          000000000132000000001349000000012850000000000000000001349000001445000
0202LOTE PADRAO                   SOUZA CRUZ  ON EJ      CRUZ3       010VISTA          000000000009000000000095000000000900000000000000000000094000000004000
0202LOTE PADRAO                   ELETROBRAS  ON *       ELET3       010VISTA          000000000037200000000383000000003680000000000000000000380000027366300
0202LOTE PADRAO                   CELESC      PNB        CLSC6       010VISTA          000000000000650000000006700000000063000000000000000000006600000768400
0202LOTE PADRAO                   BRADESCO    PN * EJ    BBDC4       010VISTA          000000000013750000000137500000001340000000000000000000136000001379700
0202LOTE PADRAO                   CESP        PN *       CESP4       010VISTA          000000000022000000000221000000002110000000000000000000213000017905000
0202LOTE PADRAO                   LIGHT       ON *       LIGH3       010VISTA          000000000240900000002485000000023000000000000000000002455000000454500
0202LOTE PADRAO                   TELESP CL PAPN *       TSPP4       010VISTA          000000000022600000000229000000002180000000000000000000219000066857300
0202LOTE PADRAO                   VALE R DOCE PNA        VALE5       010VISTA          000000000047900000000479000000004670000000000000000000475000000052500
0202LOTE PADRAO                   COPEL       PNB*       CPLE6       010VISTA          000000000017500000000178000000001725000000000000000000178000044432000
0202LOTE PADRAO                   VALE R DOCE ON         VALE3       010VISTA          000000000044000000000440000000004320000000000000000000432500000000400
0202LOTE PADRAO                   ARACRUZ     PNB        ARCZ6       010VISTA          000000000003200000000032000000000310000000000000000000032000000066400
0202LOTE PADRAO                   TELEMIG PARTPN *       TMCP4       010VISTA          000000000005800000000060000000000570000000000000000000059000064005900
0202LOTE PADRAO                   BRASIL TELECPN *       BRTO4       010VISTA          000000000017500000000177000000001700000000000000000000177000061795200
0202LOTE PADRAO                   SABESP      ON *       SBSP3       010VISTA          000000000195900000001959000000019000000000000000000001943000001461800
0202LOTE PADRAO                   BRASKEM     PNA*       BRKM5       010VISTA          000000000654900000006549000000061900000000000000000006200000000113600
0202LOTE PADRAO                   EMBRAER     PN EJ      EMBR4       010VISTA          000000000020100000000201000000001810000000000000000000190000000063900
0202LOTE PADRAO                   TELESP      PN * EJ    TLPP4       010VISTA          000000000026500000000272500000002630000000000000000000271000013865700
0202LOTE PADRAO                   EMBRAER     ON EJ      EMBR3       010VISTA          000000000015100000000153000000001410000000000000000000145000000096200
0202LOTE PADRAO                   AMBEV       PN *       AMBV4       010VISTA          000000000474900000004750000000046000000000000000000004699000001375700
0202LOTE PADRAO                   USIMINAS    PNA        USIM5       010VISTA          000000000010200000000105000000001000000000000000000000100000000026200
0202LOTE PADRAO                   ELETROPAULO PN *       ELPL4       010VISTA          000000000101000000001090000000010100000000000000000001090000009402700
0202LOTE PADRAO                   TELE NORD CLPN *       TNEP4       010VISTA          000000000004300000000045400000000430000000000000000000044000044771400
0202LOTE PADRAO                   CEMIG       PN * EJ    CMIG4       010VISTA          000000000032100000000327000000003160000000000000000000327000027681200
0202LOTE PADRAO                   TELE CL SUL PN * EJ    TCSL4       010VISTA          000000000005400000000055000000000525000000000000000000054000073409000
0202LOTE PADRAO                   CEMIG       ON * EJ    CMIG3       010VISTA          000000000027500000000275000000002660000000000000000000270000001567800
0202LOTE PADRAO                   TELE CL SUL ON * EJ    TCSL3       010VISTA          000000000004700000000048000000000450000000000000000000048000013447600
0202LOTE PADRAO                   ITAUSA      PN         ITSA4       010VISTA          000000000001980000000020000000000198000000000000000000020000000248600
0202LOTE PADRAO                   SID TUBARAO PN *       CSTB4       010VISTA          000000000022600000000227500000002230000000000000000000223000016231000
0202LOTE PADRAO                   V C P       PN *       VCPA4       010VISTA          000000000059500000000605000000005800000000000000000000605000006672700
0202LOTE PADRAO                   BRADESPAR   PN *       BRAP4       010VISTA          000000000001200000000012000000000110000000000000000000011000259766000
0202LOTE PADRAO                   NET         PN         PLIM4       010VISTA          000000000002270000000023000000000227000000000000000000023000000965000
0202LOTE PADRAO                   TELE CTR OESPN * EJ    TCOC4       010VISTA          000000000007500000000079000000000750000000000000000000076000047095700
0202LOTE PADRAO                   GERDAU      PN * EJ    GGBR4       010VISTA          000000000019500000000197000000001920000000000000000000193000042482800
0202LOTE PADRAO                   BRASIL      ON *       BBAS3       010VISTA          000000000008000000000081000000000750000000000000000000077100005571600
