00BDIN9999BOVESPA 99992001092520010925
0101IBOVESPA                      0105390101950105960000000000000000002001092500000020010925010229000000
0202LOTE PADRAO                   EMBRATEL PARPN *       EBTP4       010VISTA          000000000008000000000080000000000740000000000000000000074000220738000
0202LOTE PADRAO                   EMBRATEL PARON *       EBTP3       010VISTA          000000000009000000000090000000000790000000000000000000081000010195700
0202LOTE PADRAO                   TRAN PAULISTPN * EJ    TRPL4       010VISTA          000000000004900000000049000000000450000000000000000000049000010066200
0202LOTE PADRAO                   TELEMAR     PN * EJ    TNLP4       010VISTA          000000000023800000000240000000002260000000000000000000227500330394000
0202LOTE PADRAO                   ITAUBANCO   PN * EJ    ITAU4       010VISTA          000000000164100000001645000000016000000000000000000001630000007303000
0202LOTE PADRAO                   TELEMAR     ON * EJ    TNLP3       010VISTA          000000000021800000000221000000002120000000000000000000215000015902200
0202LOTE PADRAO                   SID NACIONALON *       CSNA3       010VISTA          000000000029000000000296000000002850000000000000000000285000010777300
0202LOTE PADRAO                   TELE LEST CLPN *       TLCP4       010VISTA          000000000000630000000006600000000061000000000000000000006200211725000
0202LOTE PADRAO                   CRT CELULAR PNA* EJ    CRTP5       010VISTA          000000000330000000003300000000031200000000000000000003235000001023900
0202LOTE PADRAO                   IPIRANGA PETPN *       PTIP4       010VISTA          000000000010800000000108000000001000000000000000000000100000001850000
0202LOTE PADRAO                   BRASIL T PARPN *       BRTP4       010VISTA          000000000014300000000143000000001310000000000000000000133000091100400
0202LOTE PADRAO                   BRASIL T PARON *       BRTP3       010VISTA          000000000012900000000129000000001210000000000000000000121000003915200
0202LOTE PADRAO                   ACESITA     PN *       ACES4       010VISTA          000000000000430000000004400000000041000000000000000000004200074193000
0202LOTE PADRAO                   PETROBRAS   PN         PETR4       010VISTA          000000000051000000000511000000004830000000000000000000492000000241700
0202LOTE PADRAO                   ELETROBRAS  PNB*       ELET6       010VISTA          000000000029900000000305000000002800000000000000000000290000030510800
0202LOTE PADRAO                   PETROBRAS   ON         PETR3       010VISTA          000000000051500000000520000000005000000000000000000000505000000059100
0202LOTE PADRAO                   COMGAS      PNA*       CGAS5       010VISTA          000000000083000000000839000000008100000000000000000000810000000893300
0202LOTE PADRAO                   SOUZA CRUZ  ON EJ      CRUZ3       010VISTA          000000000011300000000114000000001110000000000000000000112000000012900
0202LOTE PADRAO                   ELETROBRAS  ON *       ELET3       010VISTA          000000000033000000000331000000003160000000000000000000325000021498900
0202LOTE PADRAO                   CELESC      PNB        CLSC6       010VISTA          000000000000360000000003600000000034000000000000000000003500000086700
0202LOTE PADRAO                   BRADESCO    PN * EJ    BBDC4       010VISTA          000000000009900000000100000000000950000000000000000000095000145895000
0202LOTE PADRAO                   CESP        PN *       CESP4       010VISTA          000000000008000000000080000000000760000000000000000000079000011550000
0202LOTE PADRAO                   LIGHT       ON *       LIGH3       010VISTA          000000000076200000000762000000007370000000000000000000737000000599300
0202LOTE PADRAO                   TELESP CL PAPN *       TSPP4       010VISTA          000000000005800000000058000000000540000000000000000000054000168914000
0202LOTE PADRAO                   VALE R DOCE PNA        VALE5       010VISTA          000000000052600000000530000000005220000000000000000000530000000055100
0202LOTE PADRAO                   COPEL       PNB*       CPLE6       010VISTA          000000000014300000000146000000001430000000000000000000145000029851700
0202LOTE PADRAO                   VALE R DOCE ON         VALE3       010VISTA          000000000051900000000520000000005150000000000000000000518000000004800
0202LOTE PADRAO                   ARACRUZ     PNB        ARCZ6       010VISTA          000000000004000000000040000000000380000000000000000000039000000031500
0202LOTE PADRAO                   TELEMIG PARTPN *       TMCP4       010VISTA          000000000003200000000033000000000310000000000000000000031000055054600
0202LOTE PADRAO                   BRASIL TELECPN *       BRTO4       010VISTA          000000000009400000000095000000000860000000000000000000088000084138800
0202LOTE PADRAO                   SABESP      ON *       SBSP3       010VISTA          000000000117000000001170000000011100000000000000000001110000000401000
0202LOTE PADRAO                   BRASKEM     PNA*       BRKM5       010VISTA          000000000340000000003500000000034000000000000000000003400000000208000
0202LOTE PADRAO                   EMBRAER     PN EJ      EMBR4       010VISTA          000000000009000000000091000000000850000000000000000000088000000083400
0202LOTE PADRAO                   TELESP      PN * EJ    TLPP4       010VISTA          000000000022300000000223000000002160000000000000000000216000005067500
0202LOTE PADRAO                   EMBRAER     ON EJ      EMBR3       010VISTA          000000000007700000000077000000000750000000000000000000076000000028800
0202LOTE PADRAO                   AMBEV       PN *       AMBV4       010VISTA          000000000417000000004250000000041100000000000000000004150000001276600
0202LOTE PADRAO                   USIMINAS    PNA        USIM5       010VISTA          000000000004000000000040000000000379000000000000000000038000000062900
0202LOTE PADRAO                   ELETROPAULO PN *       ELPL4       010VISTA          000000000060700000000630000000006020000000000000000000604000000654300
0202LOTE PADRAO                   TELE NORD CLPN *       TNEP4       010VISTA          000000000002770000000027700000000240000000000000000000024000069214500
0202LOTE PADRAO                   CEMIG       PN * EJ    CMIG4       010VISTA          000000000024500000000248000000002350000000000000000000238000026473800
0202LOTE PADRAO                   TELE CL SUL PN * EJ    TCSL4       010VISTA          000000000003000000000031000000000277000000000000000000027000102603000
0202LOTE PADRAO                   CEMIG       ON * EJ    CMIG3       010VISTA          000000000024100000000241000000002250000000000000000000225000000211800
0202LOTE PADRAO                   TELE CL SUL ON * EJ    TCSL3       010VISTA          000000000002500000000025000000000230000000000000000000024000017606800
0202LOTE PADRAO                   ITAUSA      PN         ITSA4       010VISTA          000000000001750000000018000000000175000000000000000000018000000425200
0202LOTE PADRAO                   SID TUBARAO PN *       CSTB4       010VISTA          000000000015500000000155000000001490000000000000000000154000004513800
0202LOTE PADRAO                   V C P       PN *       VCPA4       010VISTA          000000000071000000000729000000007100000000000000000000717000006499500
0202LOTE PADRAO                   BRADESPAR   PN *       BRAP4       010VISTA          000000000000500000000005000000000048000000000000000000005000179989000
0202LOTE PADRAO                   NET         PN         PLIM4       010VISTA          000000000000580000000006200000000058000000000000000000005900001826400
0202LOTE PADRAO                   TELE CTR OESPN * EJ    TCOC4       010VISTA          000000000004200000000042000000000380000000000000000000040000174510000
0202LOTE PADRAO                   GERDAU      PN * EJ    GGBR4       010VISTA          000000000013800000000139000000001340000000000000000000135000012788100
0202LOTE PADRAO                   BRASIL      ON *       BBAS3       010VISTA          000000000007400000000075000000000720000000000000000000075000001182800
