00BDIN9999BOVESPA 99992001061120010611
0101IBOVESPA                      0152910151590153970000000000000000002001061100000020010611015224000000
0202LOTE PADRAO                   EMBRATEL PARPN *       EBTP4       010VISTA          000000000021300000000219000000002130000000000000000000217000046186800
0202LOTE PADRAO                   EMBRATEL PARON *       EBTP3       010VISTA          000000000021000000000221000000002100000000000000000000218000028634700
0202LOTE PADRAO                   TRAN PAULISTPN * EJ    TRPL4       010VISTA          000000000006600000000069000000000654000000000000000000065400026198800
0202LOTE PADRAO                   TELEMAR     PN * EJ    TNLP4       010VISTA          000000000038700000000390000000003810000000000000000000382500101498000
0202LOTE PADRAO                   ITAUBANCO   PN * EJ    ITAU4       010VISTA          000000000191000000001940000000019010000000000000000001905000007025300
0202LOTE PADRAO                   TELEMAR     ON * EJ    TNLP3       010VISTA          000000000033000000000337500000003270000000000000000000331000007886700
0202LOTE PADRAO                   SID NACIONALON *       CSNA3       010VISTA          000000000043500000000440000000004180000000000000000000419000021013900
0202LOTE PADRAO                   TELE LEST CLPN *       TLCP4       010VISTA          000000000001900000000019500000000180000000000000000000019400053216900
0202LOTE PADRAO                   IPIRANGA PETPN *       PTIP4       010VISTA          000000000015500000000165000000001550000000000000000000161000005990000
0202LOTE PADRAO                   BRASIL T PARPN *       BRTP4       010VISTA          000000000020100000000209000000002010000000000000000000205000062994600
0202LOTE PADRAO                   BRASIL T PARON *       BRTP3       010VISTA          000000000018800000000198000000001880000000000000000000192500008278800
0202LOTE PADRAO                   ACESITA     PN *       ACES4       010VISTA          000000000000710000000007300000000070000000000000000000007200103203000
0202LOTE PADRAO                   PETROBRAS   PN         PETR4       010VISTA          000000000057600000000587000000005760000000000000000000585000000045100
0202LOTE PADRAO                   ELETROBRAS  PNB*       ELET6       010VISTA          000000000030100000000303000000002910000000000000000000295000027072400
0202LOTE PADRAO                   PETROBRAS   ON         PETR3       010VISTA          000000000064000000000644000000006350000000000000000000642000000016000
0202LOTE PADRAO                   COMGAS      PNA*       CGAS5       010VISTA          000000000151900000001519000000014850000000000000000001514000000656100
0202LOTE PADRAO                   SOUZA CRUZ  ON EJ      CRUZ3       010VISTA          000000000011500000000119000000001150000000000000000000118000000011700
0202LOTE PADRAO                   CELESC      PNB        CLSC6       010VISTA          000000000000480000000004900000000047000000000000000000004800000145800
0202LOTE PADRAO                   ELETROBRAS  ON *       ELET3       010VISTA          000000000033200000000341000000003250000000000000000000330000019276600
0202LOTE PADRAO                   BRADESCO    PN * EJ    BBDC4       010VISTA          000000000012500000000128000000001240000000000000000000125000086137000
0202LOTE PADRAO                   CESP        PN *       CESP4       010VISTA          000000000015900000000163000000001500000000000000000000151000018352500
0202LOTE PADRAO                   LIGHT       ON *       LIGH3       010VISTA          000000000145000000001450000000013700000000000000000001370000000062700
0202LOTE PADRAO                   TELESP CL PAPN *       TSPP4       010VISTA          000000000015700000000158000000001540000000000000000000154000054149900
0202LOTE PADRAO                   VALE R DOCE PNA        VALE5       010VISTA          000000000056800000000568000000005630000000000000000000567000000021200
0202LOTE PADRAO                   COPEL       PNB*       CPLE6       010VISTA          000000000018000000000182000000001780000000000000000000179000011572900
0202LOTE PADRAO                   VALE R DOCE ON         VALE3       010VISTA          000000000053000000000532000000005300000000000000000000530000000001100
0202LOTE PADRAO                   ARACRUZ     PNB        ARCZ6       010VISTA          000000000004200000000042000000000420000000000000000000042500000077000
0202LOTE PADRAO                   TELEMIG PARTPN *       TMCP4       010VISTA          000000000005500000000055000000000530000000000000000000053000052236900
0202LOTE PADRAO                   BRASIL TELECPN *       BRTO4       010VISTA          000000000013600000000140000000001330000000000000000000135000058457000
0202LOTE PADRAO                   SABESP      ON *       SBSP3       010VISTA          000000000177000000001789000000017000000000000000000001725000000603100
0202LOTE PADRAO                   BRASKEM     PNA*       BRKM5       010VISTA          000000000540000000005590000000053950000000000000000005470000000139000
0202LOTE PADRAO                   EMBRAER     PN EJ      EMBR4       010VISTA          000000000022700000000243000000002200000000000000000000224000000071800
0202LOTE PADRAO                   TELESP      PN * EJ    TLPP4       010VISTA          000000000029100000000299000000002910000000000000000000295000008715600
0202LOTE PADRAO                   EMBRAER     ON EJ      EMBR3       010VISTA          000000000018000000000181000000001750000000000000000000176000000036700
0202LOTE PADRAO                   AMBEV       PN *       AMBV4       010VISTA          000000000511000000005240000000051100000000000000000005200000012474100
0202LOTE PADRAO                   USIMINAS    PNA        USIM5       010VISTA          000000000006900000000069000000000675000000000000000000068000000031000
0202LOTE PADRAO                   ELETROPAULO PN *       ELPL4       010VISTA          000000000065200000000690000000006300000000000000000000639000001589000
0202LOTE PADRAO                   TELE NORD CLPN *       TNEP4       010VISTA          000000000004500000000047000000000440000000000000000000046000276620000
0202LOTE PADRAO                   CEMIG       PN * EJ    CMIG4       010VISTA          000000000027000000000270000000002575000000000000000000258000045004900
0202LOTE PADRAO                   TELE CL SUL PN * EJ    TCSL4       010VISTA          000000000005100000000052000000000510000000000000000000052000109158000
0202LOTE PADRAO                   CEMIG       ON * EJ    CMIG3       010VISTA          000000000025000000000255000000002460000000000000000000249000000313300
0202LOTE PADRAO                   TELE CL SUL ON * EJ    TCSL3       010VISTA          000000000004400000000046000000000430000000000000000000045000043807900
0202LOTE PADRAO                   ITAUSA      PN         ITSA4       010VISTA          000000000002000000000020000000000200000000000000000000020000000684200
0202LOTE PADRAO                   SID TUBARAO PN *       CSTB4       010VISTA          000000000023400000000239000000002340000000000000000000238000013325300
0202LOTE PADRAO                   V C P       PN *       VCPA4       010VISTA          000000000072000000000745000000007200000000000000000000745000005959100
0202LOTE PADRAO                   BRADESPAR   PN *       BRAP4       010VISTA          000000000000870000000008800000000086000000000000000000008600096019500
0202LOTE PADRAO                   NET         PN         PLIM4       010VISTA          000000000000920000000009600000000090000000000000000000009300000937900
0202LOTE PADRAO                   TELE CTR OESPN * EJ    TCOC4       010VISTA          000000000006900000000070000000000670000000000000000000067000045959300
0202LOTE PADRAO                   GERDAU      PN * EJ    GGBR4       010VISTA          000000000017900000000179000000001710000000000000000000173000011729000
0202LOTE PADRAO                   BRASIL      ON *       BBAS3       010VISTA          000000000008300000000084000000000810000000000000000000082500002085100
