00BDIN9999BOVESPA 99992001071920010719
0101IBOVESPA                      0137950136410139530000000000000000002001071900000020010719013762000000
0202LOTE PADRAO                   EMBRATEL PARPN *       EBTP4       010VISTA          000000000014300000000144000000001375000000000000000000140000068037400
0202LOTE PADRAO                   EMBRATEL PARON *       EBTP3       010VISTA          000000000014500000000145000000001380000000000000000000139000036579000
0202LOTE PADRAO                   TRAN PAULISTPN * EJ    TRPL4       010VISTA          000000000006200000000062000000000600000000000000000000061000003261900
0202LOTE PADRAO                   TELEMAR     PN * EJ    TNLP4       010VISTA          000000000034000000000340000000003280000000000000000000331000109460000
0202LOTE PADRAO                   ITAUBANCO   PN * EJ    ITAU4       010VISTA          000000000185000000001880000000018400000000000000000001880000003880100
0202LOTE PADRAO                   TELEMAR     ON * EJ    TNLP3       010VISTA          000000000027500000000278000000002700000000000000000000276000004657000
0202LOTE PADRAO                   SID NACIONALON *       CSNA3       010VISTA          000000000040000000000425000000004000000000000000000000425000018764000
0202LOTE PADRAO                   TELE LEST CLPN *       TLCP4       010VISTA          000000000001710000000017500000000160000000000000000000016000045290500
0202LOTE PADRAO                   CRT CELULAR PNA* EJ    CRTP5       010VISTA          000000000840000000008400000000083000000000000000000008300000000194900
0202LOTE PADRAO                   IPIRANGA PETPN *       PTIP4       010VISTA          000000000016500000000165000000001600000000000000000000163000001943600
0202LOTE PADRAO                   BRASIL T PARPN *       BRTP4       010VISTA          000000000018300000000186000000001780000000000000000000178000042537000
0202LOTE PADRAO                   BRASIL T PARON *       BRTP3       010VISTA          000000000017000000000173000000001680000000000000000000171000004840000
0202LOTE PADRAO                   ACESITA     PN *       ACES4       010VISTA          000000000000630000000006300000000059000000000000000000006000204428000
0202LOTE PADRAO                   PETROBRAS   PN         PETR4       010VISTA          000000000052000000000525000000005000000000000000000000508000000332100
0202LOTE PADRAO                   ELETROBRAS  PNB*       ELET6       010VISTA          000000000028600000000290000000002780000000000000000000283000049895600
0202LOTE PADRAO                   PETROBRAS   ON         PETR3       010VISTA          000000000054200000000565000000005420000000000000000000550000000016300
0202LOTE PADRAO                   COMGAS      PNA*       CGAS5       010VISTA          000000000133500000001359000000012500000000000000000001300000000841000
0202LOTE PADRAO                   SOUZA CRUZ  ON EJ      CRUZ3       010VISTA          000000000011100000000113000000001100000000000000000000112500000002000
0202LOTE PADRAO                   ELETROBRAS  ON *       ELET3       010VISTA          000000000033500000000335000000003210000000000000000000321000059056300
0202LOTE PADRAO                   CELESC      PNB        CLSC6       010VISTA          000000000000430000000004400000000042000000000000000000004400000068400
0202LOTE PADRAO                   BRADESCO    PN * EJ    BBDC4       010VISTA          000000000011500000000115000000001110000000000000000000115000113613000
0202LOTE PADRAO                   CESP        PN *       CESP4       010VISTA          000000000013500000000135000000001290000000000000000000133000004195200
0202LOTE PADRAO                   LIGHT       ON *       LIGH3       010VISTA          000000000118100000001181000000011230000000000000000001145000000196000
0202LOTE PADRAO                   TELESP CL PAPN *       TSPP4       010VISTA          000000000014100000000143000000001400000000000000000000142000113226000
0202LOTE PADRAO                   VALE R DOCE PNA        VALE5       010VISTA          000000000051000000000524000000005050000000000000000000517000000048500
0202LOTE PADRAO                   COPEL       PNB*       CPLE6       010VISTA          000000000017800000000178000000001710000000000000000000173000017391400
0202LOTE PADRAO                   VALE R DOCE ON         VALE3       010VISTA          000000000051500000000515000000005060000000000000000000506000000003200
0202LOTE PADRAO                   ARACRUZ     PNB        ARCZ6       010VISTA          000000000004000000000040000000000390000000000000000000040000000011000
0202LOTE PADRAO                   TELEMIG PARTPN *       TMCP4       010VISTA          000000000004400000000045000000000440000000000000000000045000041056600
0202LOTE PADRAO                   BRASIL TELECPN *       BRTO4       010VISTA          000000000012800000000128000000001220000000000000000000123000046721100
0202LOTE PADRAO                   SABESP      ON *       SBSP3       010VISTA          000000000149100000001550000000014910000000000000000001520000000567200
0202LOTE PADRAO                   BRASKEM     PNA*       BRKM5       010VISTA          000000000549000000005490000000053600000000000000000005420000000022500
0202LOTE PADRAO                   EMBRAER     PN EJ      EMBR4       010VISTA          000000000023000000000233000000002300000000000000000000233000000009700
0202LOTE PADRAO                   TELESP      PN * EJ    TLPP4       010VISTA          000000000024500000000248000000002430000000000000000000247000002886800
0202LOTE PADRAO                   EMBRAER     ON EJ      EMBR3       010VISTA          000000000017400000000178000000001730000000000000000000176000000010400
0202LOTE PADRAO                   AMBEV       PN *       AMBV4       010VISTA          000000000507000000005085000000050400000000000000000005085000000630800
0202LOTE PADRAO                   USIMINAS    PNA        USIM5       010VISTA          000000000006400000000064000000000620000000000000000000063000000047600
0202LOTE PADRAO                   ELETROPAULO PN *       ELPL4       010VISTA          000000000064700000000659000000006270000000000000000000633000001222000
0202LOTE PADRAO                   TELE NORD CLPN *       TNEP4       010VISTA          000000000003700000000037000000000360000000000000000000036000059232700
0202LOTE PADRAO                   CEMIG       PN * EJ    CMIG4       010VISTA          000000000027300000000274000000002630000000000000000000268000018527400
0202LOTE PADRAO                   TELE CL SUL PN * EJ    TCSL4       010VISTA          000000000004500000000045000000000420000000000000000000043000030981100
0202LOTE PADRAO                   CEMIG       ON * EJ    CMIG3       010VISTA          000000000026750000000267500000002450000000000000000000245000000430000
0202LOTE PADRAO                   TELE CL SUL ON * EJ    TCSL3       010VISTA          000000000003500000000035000000000330000000000000000000033000017990700
0202LOTE PADRAO                   ITAUSA      PN         ITSA4       010VISTA          000000000002000000000020000000000200000000000000000000020000000197000
0202LOTE PADRAO                   SID TUBARAO PN *       CSTB4       010VISTA          000000000020800000000208000000002030000000000000000000203000003290000
0202LOTE PADRAO                   V C P       PN *       VCPA4       010VISTA          000000000061000000000610000000005950000000000000000000600000000775500
0202LOTE PADRAO                   BRADESPAR   PN *       BRAP4       010VISTA          000000000000830000000008300000000080000000000000000000008200064147700
0202LOTE PADRAO                   NET         PN         PLIM4       010VISTA          000000000001100000000011000000000100000000000000000000010000000969500
0202LOTE PADRAO                   TELE CTR OESPN * EJ    TCOC4       010VISTA          000000000006000000000060000000000590000000000000000000059000032102200
0202LOTE PADRAO                   GERDAU      PN * EJ    GGBR4       010VISTA          000000000016000000000164000000001575000000000000000000163000005322700
0202LOTE PADRAO                   BRASIL      ON *       BBAS3       010VISTA          000000000009100000000093000000000870000000000000000000088000000927600
