00BDIN9999BOVESPA 99992001090620010906
0101IBOVESPA                      0125940122510125990000000000000000002001090600000020010906012255000000
0202LOTE PADRAO                   EMBRATEL PARPN *       EBTP4       010VISTA          000000000010200000000103000000000990000000000000000000100000074821800
0202LOTE PADRAO                   EMBRATEL PARON *       EBTP3       010VISTA          000000000010500000000105000000001010000000000000000000103000027847900
0202LOTE PADRAO                   TRAN PAULISTPN * EJ    TRPL4       010VISTA          000000000006750000000068000000000640000000000000000000064000006565100
0202LOTE PADRAO                   TELEMAR     PN * EJ    TNLP4       010VISTA          000000000027400000000275000000002630000000000000000000266000123317000
0202LOTE PADRAO                   ITAUBANCO   PN * EJ    ITAU4       010VISTA          000000000173000000001730000000017100000000000000000001710000002801700
0202LOTE PADRAO                   TELEMAR     ON * EJ    TNLP3       010VISTA          000000000025600000000256000000002380000000000000000000244000006067200
0202LOTE PADRAO                   SID NACIONALON *       CSNA3       010VISTA          000000000036600000000368000000003550000000000000000000355000004496600
0202LOTE PADRAO                   TELE LEST CLPN *       TLCP4       010VISTA          000000000001100000000011000000000100000000000000000000010000146156000
0202LOTE PADRAO                   CRT CELULAR PNA* EJ    CRTP5       010VISTA          000000000835000000008350000000075400000000000000000007540000001034300
0202LOTE PADRAO                   IPIRANGA PETPN *       PTIP4       010VISTA          000000000012500000000125000000001200000000000000000000121000000360900
0202LOTE PADRAO                   BRASIL T PARPN *       BRTP4       010VISTA          000000000014000000000140000000001330000000000000000000133000055806100
0202LOTE PADRAO                   BRASIL T PARON *       BRTP3       010VISTA          000000000012900000000129000000001180000000000000000000121000004597200
0202LOTE PADRAO                   ACESITA     PN *       ACES4       010VISTA          000000000000530000000005300000000052000000000000000000005200039155700
0202LOTE PADRAO                   PETROBRAS   PN         PETR4       010VISTA          000000000057700000000577000000005550000000000000000000558000000050600
0202LOTE PADRAO                   ELETROBRAS  PNB*       ELET6       010VISTA          000000000032300000000337000000003230000000000000000000330000024502900
0202LOTE PADRAO                   PETROBRAS   ON         PETR3       010VISTA          000000000060500000000605000000005700000000000000000000576000000025700
0202LOTE PADRAO                   COMGAS      PNA*       CGAS5       010VISTA          000000000126000000001260000000012250000000000000000001225000002088800
0202LOTE PADRAO                   SOUZA CRUZ  ON EJ      CRUZ3       010VISTA          000000000012000000000120000000001180000000000000000000119000000006200
0202LOTE PADRAO                   ELETROBRAS  ON *       ELET3       010VISTA          000000000036500000000377000000003650000000000000000000377000015412500
0202LOTE PADRAO                   CELESC      PNB        CLSC6       010VISTA          000000000000420000000004200000000040000000000000000000004100000167100
0202LOTE PADRAO                   BRADESCO    PN * EJ    BBDC4       010VISTA          000000000011600000000116000000001110000000000000000000111000049872400
0202LOTE PADRAO                   CESP        PN *       CESP4       010VISTA          000000000012800000000130000000001260000000000000000000128000003944000
0202LOTE PADRAO                   LIGHT       ON *       LIGH3       010VISTA          000000000121900000001250000000012000000000000000000001244000000326100
0202LOTE PADRAO                   TELESP CL PAPN *       TSPP4       010VISTA          000000000008400000000085000000000780000000000000000000078000638055000
0202LOTE PADRAO                   VALE R DOCE PNA        VALE5       010VISTA          000000000051300000000514000000005080000000000000000000512000000030600
0202LOTE PADRAO                   COPEL       PNB*       CPLE6       010VISTA          000000000018800000000188000000001750000000000000000000175000026925400
0202LOTE PADRAO                   VALE R DOCE ON         VALE3       010VISTA          000000000052200000000525000000005110000000000000000000512000000001800
0202LOTE PADRAO                   ARACRUZ     PNB        ARCZ6       010VISTA          000000000004400000000044000000000440000000000000000000044000000042600
0202LOTE PADRAO                   TELEMIG PARTPN *       TMCP4       010VISTA          000000000003200000000033000000000310000000000000000000033000045653200
0202LOTE PADRAO                   BRASIL TELECPN *       BRTO4       010VISTA          000000000009500000000095000000000910000000000000000000093000039809700
0202LOTE PADRAO                   SABESP      ON *       SBSP3       010VISTA          000000000166000000001660000000016200000000000000000001620000001453400
0202LOTE PADRAO                   BRASKEM     PNA*       BRKM5       010VISTA          000000000425000000004300000000041000000000000000000004200000000087400
0202LOTE PADRAO                   EMBRAER     PN EJ      EMBR4       010VISTA          000000000016600000000177000000001660000000000000000000171000000021600
0202LOTE PADRAO                   TELESP      PN * EJ    TLPP4       010VISTA          000000000025300000000253000000002400000000000000000000241000014258700
0202LOTE PADRAO                   EMBRAER     ON EJ      EMBR3       010VISTA          000000000013400000000143000000001340000000000000000000139000000005400
0202LOTE PADRAO                   AMBEV       PN *       AMBV4       010VISTA          000000000493000000004960000000048000000000000000000004805000000905300
0202LOTE PADRAO                   USIMINAS    PNA        USIM5       010VISTA          000000000005800000000059000000000570000000000000000000058000000020000
0202LOTE PADRAO                   ELETROPAULO PN *       ELPL4       010VISTA          000000000073500000000750000000007100000000000000000000710000001099400
0202LOTE PADRAO                   TELE NORD CLPN *       TNEP4       010VISTA          000000000002800000000028000000000275000000000000000000027500040634300
0202LOTE PADRAO                   CEMIG       PN * EJ    CMIG4       010VISTA          000000000028600000000299000000002800000000000000000000285000030601100
0202LOTE PADRAO                   TELE CL SUL PN * EJ    TCSL4       010VISTA          000000000003000000000030000000000280000000000000000000028000078402300
0202LOTE PADRAO                   CEMIG       ON * EJ    CMIG3       010VISTA          000000000027000000000285000000002700000000000000000000281000004946000
0202LOTE PADRAO                   TELE CL SUL ON * EJ    TCSL3       010VISTA          000000000002690000000026900000000250000000000000000000025000026633100
0202LOTE PADRAO                   ITAUSA      PN         ITSA4       010VISTA          000000000001940000000019400000000180000000000000000000018000000375600
0202LOTE PADRAO                   SID TUBARAO PN *       CSTB4       010VISTA          000000000019800000000198000000001940000000000000000000198000003982500
0202LOTE PADRAO                   V C P       PN *       VCPA4       010VISTA          000000000074000000000740000000007000000000000000000000705000002336800
0202LOTE PADRAO                   BRADESPAR   PN *       BRAP4       010VISTA          000000000000640000000006600000000064000000000000000000006400124830000
0202LOTE PADRAO                   NET         PN         PLIM4       010VISTA          000000000000890000000008900000000086000000000000000000008600000383400
0202LOTE PADRAO                   TELE CTR OESPN * EJ    TCOC4       010VISTA          000000000004800000000049000000000440000000000000000000045000060028200
0202LOTE PADRAO                   GERDAU      PN * EJ    GGBR4       010VISTA          000000000016100000000164000000001590000000000000000000160000007624700
0202LOTE PADRAO                   BRASIL      ON *       BBAS3       010VISTA          000000000009400000000095000000000920000000000000000000092000006583800
