00BDIN9999BOVESPA 99992001102520011025
0101IBOVESPA                      0114590113070117830000000000000000002001102500000020011025011724000000
0202LOTE PADRAO                   EMBRATEL PARPN *       EBTP4       010VISTA          000000000007500000000080000000000730000000000000000000079000107383000
0202LOTE PADRAO                   EMBRATEL PARON *       EBTP3       010VISTA          000000000008100000000088000000000800000000000000000000087500024360900
0202LOTE PADRAO                   TRAN PAULISTPN * EJ    TRPL4       010VISTA          000000000005400000000056000000000520000000000000000000055000010962000
0202LOTE PADRAO                   TELEMAR     PN * EJ    TNLP4       010VISTA          000000000026600000000284000000002660000000000000000000281000439143000
0202LOTE PADRAO                   ITAUBANCO   PN * EJ    ITAU4       010VISTA          000000000176000000001790000000017250000000000000000001780000003415900
0202LOTE PADRAO                   TELEMAR     ON * EJ    TNLP3       010VISTA          000000000024500000000260000000002410000000000000000000256000026962900
0202LOTE PADRAO                   SID NACIONALON *       CSNA3       010VISTA          000000000028500000000290000000002760000000000000000000283000011386000
0202LOTE PADRAO                   TELE LEST CLPN *       TLCP4       010VISTA          000000000000730000000007500000000072000000000000000000007500098913200
0202LOTE PADRAO                   CRT CELULAR PNA* EJ    CRTP5       010VISTA          000000000359500000003800000000035300000000000000000003750000001927400
0202LOTE PADRAO                   IPIRANGA PETPN *       PTIP4       010VISTA          000000000011750000000117500000001170000000000000000000117500001090100
0202LOTE PADRAO                   BRASIL T PARPN *       BRTP4       010VISTA          000000000015500000000161000000001530000000000000000000160000046876700
0202LOTE PADRAO                   BRASIL T PARON *       BRTP3       010VISTA          000000000015100000000155000000001500000000000000000000152000009812400
0202LOTE PADRAO                   ACESITA     PN *       ACES4       010VISTA          000000000000490000000005200000000049000000000000000000005200250369000
0202LOTE PADRAO                   PETROBRAS   PN         PETR4       010VISTA          000000000052800000000532000000005170000000000000000000527000000082100
0202LOTE PADRAO                   ELETROBRAS  PNB*       ELET6       010VISTA          000000000031100000000323000000003060000000000000000000323000026767500
0202LOTE PADRAO                   PETROBRAS   ON         PETR3       010VISTA          000000000054000000000545000000005320000000000000000000545000000025600
0202LOTE PADRAO                   COMGAS      PNA*       CGAS5       010VISTA          000000000082500000000845000000008250000000000000000000840000000736500
0202LOTE PADRAO                   SOUZA CRUZ  ON EJ      CRUZ3       010VISTA          000000000013000000000132500000001290000000000000000000131000000014500
0202LOTE PADRAO                   ELETROBRAS  ON *       ELET3       010VISTA          000000000034500000000365000000003370000000000000000000359000006945000
0202LOTE PADRAO                   CELESC      PNB        CLSC6       010VISTA          000000000000430000000004600000000042000000000000000000004500000330900
0202LOTE PADRAO                   BRADESCO    PN * EJ    BBDC4       010VISTA          000000000010750000000112000000001075000000000000000000110000081446100
0202LOTE PADRAO                   CESP        PN *       CESP4       010VISTA          000000000011700000000130000000001170000000000000000000128000014757300
0202LOTE PADRAO                   LIGHT       ON *       LIGH3       010VISTA          000000000083000000000894000000008300000000000000000000880000000519100
0202LOTE PADRAO                   TELESP CL PAPN *       TSPP4       010VISTA          000000000005900000000061000000000580000000000000000000059000555624000
0202LOTE PADRAO                   VALE R DOCE PNA        VALE5       010VISTA          000000000055700000000559000000005500000000000000000000552000000013100
0202LOTE PADRAO                   COPEL       PNB*       CPLE6       010VISTA          000000000016100000000163000000001550000000000000000000156000188204000
0202LOTE PADRAO                   VALE R DOCE ON         VALE3       010VISTA          000000000053000000000530000000005300000000000000000000530000000002000
0202LOTE PADRAO                   ARACRUZ     PNB        ARCZ6       010VISTA          000000000004500000000047900000000450000000000000000000047100000073300
0202LOTE PADRAO                   TELEMIG PARTPN *       TMCP4       010VISTA          000000000003300000000036000000000330000000000000000000036000179833000
0202LOTE PADRAO                   BRASIL TELECPN *       BRTO4       010VISTA          000000000010600000000110000000001050000000000000000000110000047576600
0202LOTE PADRAO                   SABESP      ON *       SBSP3       010VISTA          000000000112000000001130000000011000000000000000000001130000001115900
0202LOTE PADRAO                   BRASKEM     PNA*       BRKM5       010VISTA          000000000391100000004099000000039000000000000000000004083000000119300
0202LOTE PADRAO                   EMBRAER     PN EJ      EMBR4       010VISTA          000000000011800000000119000000001150000000000000000000117000000031300
0202LOTE PADRAO                   TELESP      PN * EJ    TLPP4       010VISTA          000000000026100000000264000000002580000000000000000000261000009267500
0202LOTE PADRAO                   EMBRAER     ON EJ      EMBR3       010VISTA          000000000009800000000098000000000950000000000000000000096000000017500
0202LOTE PADRAO                   AMBEV       PN *       AMBV4       010VISTA          000000000430000000004370000000042900000000000000000004325000001971900
0202LOTE PADRAO                   USIMINAS    PNA        USIM5       010VISTA          000000000004000000000041000000000400000000000000000000041000000040200
0202LOTE PADRAO                   ELETROPAULO PN *       ELPL4       010VISTA          000000000063200000000670000000006000000000000000000000657000003404200
0202LOTE PADRAO                   TELE NORD CLPN *       TNEP4       010VISTA          000000000002600000000027700000000250000000000000000000027000089749100
0202LOTE PADRAO                   CEMIG       PN * EJ    CMIG4       010VISTA          000000000026100000000269000000002610000000000000000000268000019367400
0202LOTE PADRAO                   TELE CL SUL PN * EJ    TCSL4       010VISTA          000000000002900000000030000000000280000000000000000000030000075458600
0202LOTE PADRAO                   CEMIG       ON * EJ    CMIG3       010VISTA          000000000025300000000268000000002530000000000000000000268000000515100
0202LOTE PADRAO                   TELE CL SUL ON * EJ    TCSL3       010VISTA          000000000002500000000026000000000248000000000000000000025000020151700
0202LOTE PADRAO                   ITAUSA      PN         ITSA4       010VISTA          000000000001800000000019500000000180000000000000000000019000000163300
0202LOTE PADRAO                   SID TUBARAO PN *       CSTB4       010VISTA          000000000016800000000183000000001650000000000000000000179000003876300
0202LOTE PADRAO                   V C P       PN *       VCPA4       010VISTA          000000000078400000000790000000007700000000000000000000789000003410500
0202LOTE PADRAO                   BRADESPAR   PN *       BRAP4       010VISTA          000000000000600000000006500000000060000000000000000000006500232223000
0202LOTE PADRAO                   NET         PN         PLIM4       010VISTA          000000000000670000000007100000000066000000000000000000007000000930400
0202LOTE PADRAO                   TELE CTR OESPN * EJ    TCOC4       010VISTA          000000000004800000000049000000000460000000000000000000049000196936000
0202LOTE PADRAO                   GERDAU      PN * EJ    GGBR4       010VISTA          000000000018000000000185000000001740000000000000000000185000007720300
0202LOTE PADRAO                   BRASIL      ON *       BBAS3       010VISTA          000000000007500000000079000000000720000000000000000000078000005399200
