00BDIN9999BOVESPA 99992001092620010926
0101IBOVESPA                      0102270098930102740000000000000000002001092600000020010926010006000000
0202LOTE PADRAO                   EMBRATEL PARPN *       EBTP4       010VISTA          000000000007500000000075000000000700000000000000000000071000084673500
0202LOTE PADRAO                   EMBRATEL PARON *       EBTP3       010VISTA          000000000008100000000081000000000750000000000000000000075000021071500
0202LOTE PADRAO                   TRAN PAULISTPN * EJ    TRPL4       010VISTA          000000000004900000000049000000000450000000000000000000047000025911000
0202LOTE PADRAO                   TELEMAR     PN * EJ    TNLP4       010VISTA          000000000022800000000228000000002200000000000000000000221000281687000
0202LOTE PADRAO                   ITAUBANCO   PN * EJ    ITAU4       010VISTA          000000000163000000001644000000015800000000000000000001615000010872600
0202LOTE PADRAO                   TELEMAR     ON * EJ    TNLP3       010VISTA          000000000021300000000213000000002010000000000000000000209000015607500
0202LOTE PADRAO                   SID NACIONALON *       CSNA3       010VISTA          000000000028500000000285000000002750000000000000000000275000004722000
0202LOTE PADRAO                   TELE LEST CLPN *       TLCP4       010VISTA          000000000000620000000006200000000059000000000000000000005900194137000
0202LOTE PADRAO                   CRT CELULAR PNA* EJ    CRTP5       010VISTA          000000000315000000003290000000031100000000000000000003250000000659700
0202LOTE PADRAO                   IPIRANGA PETPN *       PTIP4       010VISTA          000000000010100000000105000000001010000000000000000000102000001220000
0202LOTE PADRAO                   BRASIL T PARPN *       BRTP4       010VISTA          000000000013300000000133000000001220000000000000000000126000046158900
0202LOTE PADRAO                   BRASIL T PARON *       BRTP3       010VISTA          000000000012100000000125000000001130000000000000000000121000016337800
0202LOTE PADRAO                   ACESITA     PN *       ACES4       010VISTA          000000000000430000000004300000000041000000000000000000004200084318000
0202LOTE PADRAO                   PETROBRAS   PN         PETR4       010VISTA          000000000049600000000497000000004830000000000000000000487000000130800
0202LOTE PADRAO                   ELETROBRAS  PNB*       ELET6       010VISTA          000000000028800000000290000000002800000000000000000000289000029399100
0202LOTE PADRAO                   PETROBRAS   ON         PETR3       010VISTA          000000000050200000000507000000004930000000000000000000497500000028500
0202LOTE PADRAO                   COMGAS      PNA*       CGAS5       010VISTA          000000000082000000000830000000007900000000000000000000800000000736500
0202LOTE PADRAO                   SOUZA CRUZ  ON EJ      CRUZ3       010VISTA          000000000011250000000113000000001110000000000000000000112000000018600
0202LOTE PADRAO                   ELETROBRAS  ON *       ELET3       010VISTA          000000000031500000000321000000003150000000000000000000320000013658900
0202LOTE PADRAO                   CELESC      PNB        CLSC6       010VISTA          000000000000350000000003500000000033000000000000000000003500000819100
0202LOTE PADRAO                   BRADESCO    PN * EJ    BBDC4       010VISTA          000000000009800000000098000000000940000000000000000000095000149556000
0202LOTE PADRAO                   CESP        PN *       CESP4       010VISTA          000000000008000000000080000000000750000000000000000000076000019341100
0202LOTE PADRAO                   LIGHT       ON *       LIGH3       010VISTA          000000000074900000000749000000007000000000000000000000720000000814300
0202LOTE PADRAO                   TELESP CL PAPN *       TSPP4       010VISTA          000000000005500000000055000000000510000000000000000000052000176942000
0202LOTE PADRAO                   VALE R DOCE PNA        VALE5       010VISTA          000000000052200000000527000000005220000000000000000000527000000081100
0202LOTE PADRAO                   COPEL       PNB*       CPLE6       010VISTA          000000000014500000000146000000001430000000000000000000143000026471400
0202LOTE PADRAO                   VALE R DOCE ON         VALE3       010VISTA          000000000051300000000518000000005130000000000000000000518000000001100
0202LOTE PADRAO                   ARACRUZ     PNB        ARCZ6       010VISTA          000000000003800000000040000000000380000000000000000000039000000022500
0202LOTE PADRAO                   TELEMIG PARTPN *       TMCP4       010VISTA          000000000003100000000031000000000280000000000000000000028000044270600
0202LOTE PADRAO                   BRASIL TELECPN *       BRTO4       010VISTA          000000000008600000000086000000000810000000000000000000085000061309600
0202LOTE PADRAO                   SABESP      ON *       SBSP3       010VISTA          000000000113000000001130000000010300000000000000000001045000001001400
0202LOTE PADRAO                   BRASKEM     PNA*       BRKM5       010VISTA          000000000340000000003530000000032000000000000000000003450000000398300
0202LOTE PADRAO                   EMBRAER     PN EJ      EMBR4       010VISTA          000000000008800000000089000000000810000000000000000000086000000127200
0202LOTE PADRAO                   TELESP      PN * EJ    TLPP4       010VISTA          000000000021600000000216000000002060000000000000000000214000007180700
0202LOTE PADRAO                   EMBRAER     ON EJ      EMBR3       010VISTA          000000000007700000000077000000000740000000000000000000075000000012800
0202LOTE PADRAO                   AMBEV       PN *       AMBV4       010VISTA          000000000415000000004150000000038500000000000000000003861000003432500
0202LOTE PADRAO                   USIMINAS    PNA        USIM5       010VISTA          000000000003800000000039000000000370000000000000000000038000000073300
0202LOTE PADRAO                   ELETROPAULO PN *       ELPL4       010VISTA          000000000058000000000601000000005500000000000000000000559000002019300
0202LOTE PADRAO                   TELE NORD CLPN *       TNEP4       010VISTA          000000000002500000000025000000000220000000000000000000022000049069100
0202LOTE PADRAO                   CEMIG       PN * EJ    CMIG4       010VISTA          000000000023600000000241000000002360000000000000000000240000035016200
0202LOTE PADRAO                   TELE CL SUL PN * EJ    TCSL4       010VISTA          000000000002800000000028000000000260000000000000000000026000040119000
0202LOTE PADRAO                   CEMIG       ON * EJ    CMIG3       010VISTA          000000000022500000000233000000002200000000000000000000220000000382000
0202LOTE PADRAO                   TELE CL SUL ON * EJ    TCSL3       010VISTA          000000000002300000000023000000000220000000000000000000023000033304400
0202LOTE PADRAO                   ITAUSA      PN         ITSA4       010VISTA          000000000001790000000017900000000175000000000000000000017500000155500
0202LOTE PADRAO                   SID TUBARAO PN *       CSTB4       010VISTA          000000000015300000000154000000001500000000000000000000154000002510000
0202LOTE PADRAO                   V C P       PN *       VCPA4       010VISTA          000000000071500000000715000000007000000000000000000000705000000653800
0202LOTE PADRAO                   BRADESPAR   PN *       BRAP4       010VISTA          000000000000500000000005100000000047000000000000000000004800183744000
0202LOTE PADRAO                   NET         PN         PLIM4       010VISTA          000000000000600000000006200000000058000000000000000000005900000604300
0202LOTE PADRAO                   TELE CTR OESPN * EJ    TCOC4       010VISTA          000000000004000000000041000000000380000000000000000000040000071911000
0202LOTE PADRAO                   GERDAU      PN * EJ    GGBR4       010VISTA          000000000013500000000135000000001300000000000000000000130000006309900
0202LOTE PADRAO                   BRASIL      ON *       BBAS3       010VISTA          000000000007400000000074000000000700000000000000000000074000002614500
