00BDIN9999BOVESPA 99992001120720011207
0101IBOVESPA                      0135650132330136620000000000000000002001120700000020011207013299000000
0202LOTE PADRAO                   EMBRATEL PARPN *       EBTP4       010VISTA          000000000009800000000098000000000940000000000000000000094000191076000
0202LOTE PADRAO                   EMBRATEL PARON *       EBTP3       010VISTA          000000000010700000000109000000001025000000000000000000103000027192200
0202LOTE PADRAO                   TRAN PAULISTPN * EJ    TRPL4       010VISTA          000000000006200000000064000000000600000000000000000000062000017488200
0202LOTE PADRAO                   TELEMAR     PN * EJ    TNLP4       010VISTA          000000000034900000000353000000003400000000000000000000342000233856000
0202LOTE PADRAO                   ITAUBANCO   PN * EJ    ITAU4       010VISTA          000000000177000000001795000000017600000000000000000001765000009605000
0202LOTE PADRAO                   TELEMAR     ON * EJ    TNLP3       010VISTA          000000000029600000000306000000002900000000000000000000300000007470800
0202LOTE PADRAO                   SID NACIONALON *       CSNA3       010VISTA          000000000038000000000383000000003600000000000000000000375000009749800
0202LOTE PADRAO                   TELE LEST CLPN *       TLCP4       010VISTA          000000000000910000000009300000000089000000000000000000009000085207000
0202LOTE PADRAO                   CRT CELULAR PNA* EJ    CRTP5       010VISTA          000000000479000000004900000000047300000000000000000004750000000393400
0202LOTE PADRAO                   IPIRANGA PETPN *       PTIP4       010VISTA          000000000014000000000143000000001320000000000000000000132000002597000
0202LOTE PADRAO                   BRASIL T PARPN *       BRTP4       010VISTA          000000000019900000000203000000001880000000000000000000194000050937700
0202LOTE PADRAO                   BRASIL T PARON *       BRTP3       010VISTA          000000000020000000000200000000001830000000000000000000185000004834900
0202LOTE PADRAO                   ACESITA     PN *       ACES4       010VISTA          000000000000720000000007300000000069000000000000000000006900158983000
0202LOTE PADRAO                   PETROBRAS   PN         PETR4       010VISTA          000000000050800000000508000000004920000000000000000000496000000061500
0202LOTE PADRAO                   ELETROBRAS  PNB*       ELET6       010VISTA          000000000032900000000335000000003200000000000000000000322000024844700
0202LOTE PADRAO                   PETROBRAS   ON         PETR3       010VISTA          000000000052500000000525000000005050000000000000000000507000000058200
0202LOTE PADRAO                   COMGAS      PNA*       CGAS5       010VISTA          000000000090000000000900000000008600000000000000000000880000001948300
0202LOTE PADRAO                   SOUZA CRUZ  ON EJ      CRUZ3       010VISTA          000000000013800000000140000000001350000000000000000000136000000008100
0202LOTE PADRAO                   ELETROBRAS  ON *       ELET3       010VISTA          000000000034700000000350000000003400000000000000000000340000006226900
0202LOTE PADRAO                   CELESC      PNB        CLSC6       010VISTA          000000000000490000000004900000000047000000000000000000004800000079100
0202LOTE PADRAO                   BRADESCO    PN * EJ    BBDC4       010VISTA          000000000012100000000123000000001200000000000000000000121000179646000
0202LOTE PADRAO                   CESP        PN *       CESP4       010VISTA          000000000015600000000160000000001500000000000000000000151000009768900
0202LOTE PADRAO                   LIGHT       ON *       LIGH3       010VISTA          000000000128000000001280000000012000000000000000000001230000000231600
0202LOTE PADRAO                   TELESP CL PAPN *       TSPP4       010VISTA          000000000007900000000080000000000775000000000000000000077000181461000
0202LOTE PADRAO                   VALE R DOCE PNA        VALE5       010VISTA          000000000053000000000530000000005210000000000000000000526000000014800
0202LOTE PADRAO                   COPEL       PNB*       CPLE6       010VISTA          000000000016500000000165000000001620000000000000000000164000030616400
0202LOTE PADRAO                   VALE R DOCE ON         VALE3       010VISTA          000000000049500000000500000000004900000000000000000000490000000001700
0202LOTE PADRAO                   ARACRUZ     PNB        ARCZ6       010VISTA          000000000004700000000047000000000450000000000000000000046000000048900
0202LOTE PADRAO                   TELEMIG PARTPN *       TMCP4       010VISTA          000000000004750000000047000000000440000000000000000000044000097531900
0202LOTE PADRAO                   BRASIL TELECPN *       BRTO4       010VISTA          000000000013800000000140000000001330000000000000000000136000095849700
0202LOTE PADRAO                   SABESP      ON *       SBSP3       010VISTA          000000000133000000001330000000012900000000000000000001295000002275000
0202LOTE PADRAO                   BRASKEM     PNA*       BRKM5       010VISTA          000000000419000000004250000000041000000000000000000004100000000072600
0202LOTE PADRAO                   EMBRAER     PN EJ      EMBR4       010VISTA          000000000012500000000127500000001200000000000000000000120000000025600
0202LOTE PADRAO                   TELESP      PN * EJ    TLPP4       010VISTA          000000000031300000000315000000002950000000000000000000301000004212300
0202LOTE PADRAO                   EMBRAER     ON EJ      EMBR3       010VISTA          000000000010600000000108000000001040000000000000000000104000000022800
0202LOTE PADRAO                   AMBEV       PN *       AMBV4       010VISTA          000000000496100000004997000000049000000000000000000004985000001379300
0202LOTE PADRAO                   USIMINAS    PNA        USIM5       010VISTA          000000000006100000000062000000000600000000000000000000060000000045700
0202LOTE PADRAO                   ELETROPAULO PN *       ELPL4       010VISTA          000000000081500000000815000000007720000000000000000000772000001692400
0202LOTE PADRAO                   TELE NORD CLPN *       TNEP4       010VISTA          000000000003300000000034000000000320000000000000000000032000090653600
0202LOTE PADRAO                   CEMIG       PN * EJ    CMIG4       010VISTA          000000000034000000000342000000003320000000000000000000337000039360600
0202LOTE PADRAO                   TELE CL SUL PN * EJ    TCSL4       010VISTA          000000000003900000000039400000000373000000000000000000037300051988200
0202LOTE PADRAO                   CEMIG       ON * EJ    CMIG3       010VISTA          000000000030500000000308000000003000000000000000000000300000002532800
0202LOTE PADRAO                   TELE CL SUL ON * EJ    TCSL3       010VISTA          000000000003100000000032000000000300000000000000000000030000025170100
0202LOTE PADRAO                   ITAUSA      PN         ITSA4       010VISTA          000000000002100000000021000000000210000000000000000000021000000243400
0202LOTE PADRAO                   V C P       PN *       VCPA4       010VISTA          000000000082200000000822000000007900000000000000000000805000000461700
0202LOTE PADRAO                   SID TUBARAO PN *       CSTB4       010VISTA          000000000021300000000218000000002080000000000000000000218000004399100
0202LOTE PADRAO                   BRADESPAR   PN *       BRAP4       010VISTA          000000000000850000000008600000000082000000000000000000008200127429000
0202LOTE PADRAO                   NET         PN         PLIM4       010VISTA          000000000000800000000008100000000077000000000000000000007700000415200
0202LOTE PADRAO                   TELE CTR OESPN * EJ    TCOC4       010VISTA          000000000005500000000056000000000525000000000000000000052000331951000
0202LOTE PADRAO                   TELEMAR N L PNA* EJ    TMAR5       010VISTA          000000000058000000000590000000005720000000000000000000578000059735300
0202LOTE PADRAO                   GERDAU      PN * EJ    GGBR4       010VISTA          000000000022600000000227500000002150000000000000000000223000006915900
0202LOTE PADRAO                   BRASIL      ON *       BBAS3       010VISTA          000000000009800000000099000000000950000000000000000000097000005316600
