00BDIN9999BOVESPA 99992001060820010608
0101IBOVESPA                      0154690153550156440000000000000000002001060800000020010608015366000000
0202LOTE PADRAO                   EMBRATEL PARPN *       EBTP4       010VISTA          000000000021600000000223000000002130000000000000000000216000100130000
0202LOTE PADRAO                   EMBRATEL PARON *       EBTP3       010VISTA          000000000021500000000223000000002150000000000000000000221000053205400
0202LOTE PADRAO                   TRAN PAULISTPN * EJ    TRPL4       010VISTA          000000000006700000000069000000000670000000000000000000067000017457100
0202LOTE PADRAO                   TELEMAR     PN * EJ    TNLP4       010VISTA          000000000038700000000393000000003850000000000000000000387500160199000
0202LOTE PADRAO                   ITAUBANCO   PN * EJ    ITAU4       010VISTA          000000000200000000002005000000019250000000000000000001925000010630700
0202LOTE PADRAO                   TELEMAR     ON * EJ    TNLP3       010VISTA          000000000033700000000341000000003300000000000000000000337000017827500
0202LOTE PADRAO                   SID NACIONALON *       CSNA3       010VISTA          000000000051900000000532000000005190000000000000000000532000009184100
0202LOTE PADRAO                   TELE LEST CLPN *       TLCP4       010VISTA          000000000002000000000020000000000190000000000000000000019500046403600
0202LOTE PADRAO                   IPIRANGA PETPN *       PTIP4       010VISTA          000000000016500000000165000000001610000000000000000000162000001567300
0202LOTE PADRAO                   BRASIL T PARPN *       BRTP4       010VISTA          000000000020100000000208000000002010000000000000000000206000101114000
0202LOTE PADRAO                   BRASIL T PARON *       BRTP3       010VISTA          000000000019800000000201000000001960000000000000000000196000009505100
0202LOTE PADRAO                   ACESITA     PN *       ACES4       010VISTA          000000000000730000000007400000000072000000000000000000007200121189000
0202LOTE PADRAO                   PETROBRAS   PN         PETR4       010VISTA          000000000059200000000595000000005720000000000000000000577000000053800
0202LOTE PADRAO                   ELETROBRAS  PNB*       ELET6       010VISTA          000000000032100000000321000000003040000000000000000000304000056445900
0202LOTE PADRAO                   PETROBRAS   ON         PETR3       010VISTA          000000000065200000000652000000006320000000000000000000635000000018100
0202LOTE PADRAO                   COMGAS      PNA*       CGAS5       010VISTA          000000000149900000001510000000014610000000000000000001506000002268200
0202LOTE PADRAO                   SOUZA CRUZ  ON EJ      CRUZ3       010VISTA          000000000011900000000119000000001170000000000000000000118000000005800
0202LOTE PADRAO                   CELESC      PNB        CLSC6       010VISTA          000000000000490000000005000000000049000000000000000000004900000066800
0202LOTE PADRAO                   ELETROBRAS  ON *       ELET3       010VISTA          000000000035100000000357000000003370000000000000000000337000026329700
0202LOTE PADRAO                   BRADESCO    PN * EJ    BBDC4       010VISTA          000000000012900000000130000000001260000000000000000000126000144512000
0202LOTE PADRAO                   CESP        PN *       CESP4       010VISTA          000000000016000000000163000000001590000000000000000000159000010943200
0202LOTE PADRAO                   LIGHT       ON *       LIGH3       010VISTA          000000000148000000001500000000014500000000000000000001450000000408400
0202LOTE PADRAO                   TELESP CL PAPN *       TSPP4       010VISTA          000000000015900000000160000000001560000000000000000000158000056897600
0202LOTE PADRAO                   VALE R DOCE PNA        VALE5       010VISTA          000000000057500000000576000000005670000000000000000000568000000027900
0202LOTE PADRAO                   COPEL       PNB*       CPLE6       010VISTA          000000000017750000000185000000001700000000000000000000181000037483100
0202LOTE PADRAO                   VALE R DOCE ON         VALE3       010VISTA          000000000052800000000530000000005270000000000000000000530000000001600
0202LOTE PADRAO                   ARACRUZ     PNB        ARCZ6       010VISTA          000000000004200000000042000000000410000000000000000000042000000051000
0202LOTE PADRAO                   TELEMIG PARTPN *       TMCP4       010VISTA          000000000005500000000056000000000540000000000000000000055000091984300
0202LOTE PADRAO                   BRASIL TELECPN *       BRTO4       010VISTA          000000000013900000000141000000001360000000000000000000140000107647000
0202LOTE PADRAO                   SABESP      ON *       SBSP3       010VISTA          000000000178000000001804000000017700000000000000000001775000001896000
0202LOTE PADRAO                   BRASKEM     PNA*       BRKM5       010VISTA          000000000525000000005470000000051990000000000000000005470000000338000
0202LOTE PADRAO                   EMBRAER     PN EJ      EMBR4       010VISTA          000000000023300000000233000000002260000000000000000000226000000024600
0202LOTE PADRAO                   TELESP      PN * EJ    TLPP4       010VISTA          000000000030000000000301000000002930000000000000000000298000005557100
0202LOTE PADRAO                   EMBRAER     ON EJ      EMBR3       010VISTA          000000000018300000000186000000001780000000000000000000181000000021600
0202LOTE PADRAO                   AMBEV       PN *       AMBV4       010VISTA          000000000530000000005350000000051000000000000000000005150000003792400
0202LOTE PADRAO                   USIMINAS    PNA        USIM5       010VISTA          000000000006700000000070000000000670000000000000000000069000000155500
0202LOTE PADRAO                   ELETROPAULO PN *       ELPL4       010VISTA          000000000065000000000699000000006500000000000000000000674000003250800
0202LOTE PADRAO                   TELE NORD CLPN *       TNEP4       010VISTA          000000000004600000000047000000000450000000000000000000045000235304000
0202LOTE PADRAO                   CEMIG       PN * EJ    CMIG4       010VISTA          000000000027000000000276000000002700000000000000000000270000077946100
0202LOTE PADRAO                   TELE CL SUL PN * EJ    TCSL4       010VISTA          000000000005200000000052000000000510000000000000000000051000127615000
0202LOTE PADRAO                   CEMIG       ON * EJ    CMIG3       010VISTA          000000000026000000000263000000002560000000000000000000256000001672100
0202LOTE PADRAO                   TELE CL SUL ON * EJ    TCSL3       010VISTA          000000000004400000000045000000000430000000000000000000044000015134200
0202LOTE PADRAO                   ITAUSA      PN         ITSA4       010VISTA          000000000002100000000021000000000200000000000000000000020000000215400
0202LOTE PADRAO                   SID TUBARAO PN *       CSTB4       010VISTA          000000000023500000000238000000002330000000000000000000238000014941900
0202LOTE PADRAO                   V C P       PN *       VCPA4       010VISTA          000000000070700000000715000000007020000000000000000000710000004306400
0202LOTE PADRAO                   BRADESPAR   PN *       BRAP4       010VISTA          000000000000880000000008900000000087000000000000000000008700228476000
0202LOTE PADRAO                   NET         PN         PLIM4       010VISTA          000000000000960000000009800000000091000000000000000000009100000776000
0202LOTE PADRAO                   TELE CTR OESPN * EJ    TCOC4       010VISTA          000000000007100000000072500000000700000000000000000000070000062819800
0202LOTE PADRAO                   GERDAU      PN * EJ    GGBR4       010VISTA          000000000017300000000180000000001730000000000000000000180000015463300
0202LOTE PADRAO                   BRASIL      ON *       BBAS3       010VISTA          000000000008500000000087500000000820000000000000000000083000003710500
