00BDIN9999BOVESPA 99992001121220011212
0101IBOVESPA                      0133500132970135760000000000000000002001121200000020011212013563000000
0202LOTE PADRAO                   EMBRATEL PARPN *       EBTP4       010VISTA          000000000009500000000099000000000940000000000000000000099000319136000
0202LOTE PADRAO                   EMBRATEL PARON *       EBTP3       010VISTA          000000000010600000000113000000001060000000000000000000112500064547400
0202LOTE PADRAO                   TRAN PAULISTPN * EJ    TRPL4       010VISTA          000000000006300000000067000000000620000000000000000000067000045250000
0202LOTE PADRAO                   TELEMAR     PN * EJ    TNLP4       010VISTA          000000000034500000000347000000003400000000000000000000346000316641000
0202LOTE PADRAO                   ITAUBANCO   PN * EJ    ITAU4       010VISTA          000000000176900000001775000000017500000000000000000001760000012321300
0202LOTE PADRAO                   TELEMAR     ON * EJ    TNLP3       010VISTA          000000000029500000000301000000002910000000000000000000301000023759700
0202LOTE PADRAO                   SID NACIONALON *       CSNA3       010VISTA          000000000038900000000393000000003820000000000000000000386000015252300
0202LOTE PADRAO                   TELE LEST CLPN *       TLCP4       010VISTA          000000000000920000000009400000000090000000000000000000009400273399000
0202LOTE PADRAO                   CRT CELULAR PNA* EJ    CRTP5       010VISTA          000000000479900000004899000000047500000000000000000004800000001663200
0202LOTE PADRAO                   IPIRANGA PETPN *       PTIP4       010VISTA          000000000013500000000141000000001350000000000000000000140000007014000
0202LOTE PADRAO                   BRASIL T PARPN *       BRTP4       010VISTA          000000000019500000000195000000001890000000000000000000195000132675000
0202LOTE PADRAO                   BRASIL T PARON *       BRTP3       010VISTA          000000000019400000000196000000001870000000000000000000192000018434600
0202LOTE PADRAO                   ACESITA     PN *       ACES4       010VISTA          000000000000710000000007800000000071000000000000000000007800609446000
0202LOTE PADRAO                   PETROBRAS   PN         PETR4       010VISTA          000000000048400000000490000000004800000000000000000000482000000151800
0202LOTE PADRAO                   ELETROBRAS  PNB*       ELET6       010VISTA          000000000031300000000321000000003110000000000000000000321000058944100
0202LOTE PADRAO                   PETROBRAS   ON         PETR3       010VISTA          000000000049800000000502000000004900000000000000000000497000000037300
0202LOTE PADRAO                   COMGAS      PNA*       CGAS5       010VISTA          000000000093200000000959000000009300000000000000000000940000004682300
0202LOTE PADRAO                   SOUZA CRUZ  ON EJ      CRUZ3       010VISTA          000000000014000000000141000000001400000000000000000000141000000022800
0202LOTE PADRAO                   ELETROBRAS  ON *       ELET3       010VISTA          000000000032700000000340000000003250000000000000000000331000035872400
0202LOTE PADRAO                   CELESC      PNB        CLSC6       010VISTA          000000000000480000000005000000000047000000000000000000004900000782300
0202LOTE PADRAO                   BRADESCO    PN * EJ    BBDC4       010VISTA          000000000011900000000119000000001160000000000000000000117500356054000
0202LOTE PADRAO                   CESP        PN *       CESP4       010VISTA          000000000016750000000179000000001660000000000000000000176000033806100
0202LOTE PADRAO                   LIGHT       ON *       LIGH3       010VISTA          000000000120000000001220000000011750000000000000000001185000000989000
0202LOTE PADRAO                   TELESP CL PAPN *       TSPP4       010VISTA          000000000007900000000080000000000770000000000000000000079000284405000
0202LOTE PADRAO                   VALE R DOCE PNA        VALE5       010VISTA          000000000052200000000530000000005200000000000000000000523000000039100
0202LOTE PADRAO                   COPEL       PNB*       CPLE6       010VISTA          000000000016900000000170000000001610000000000000000000165000059622400
0202LOTE PADRAO                   VALE R DOCE ON         VALE3       010VISTA          000000000049700000000500000000004950000000000000000000495000000002900
0202LOTE PADRAO                   ARACRUZ     PNB        ARCZ6       010VISTA          000000000004500000000045000000000430000000000000000000044000000074800
0202LOTE PADRAO                   TELEMIG PARTPN *       TMCP4       010VISTA          000000000004400000000044000000000410000000000000000000042000176731000
0202LOTE PADRAO                   BRASIL TELECPN *       BRTO4       010VISTA          000000000013300000000135000000001300000000000000000000132500249830000
0202LOTE PADRAO                   SABESP      ON *       SBSP3       010VISTA          000000000133500000001340000000013000000000000000000001305000003419800
0202LOTE PADRAO                   BRASKEM     PNA*       BRKM5       010VISTA          000000000430000000004550000000042250000000000000000004360000000407600
0202LOTE PADRAO                   EMBRAER     PN EJ      EMBR4       010VISTA          000000000012000000000122500000001190000000000000000000121000000103600
0202LOTE PADRAO                   TELESP      PN * EJ    TLPP4       010VISTA          000000000031100000000315000000003080000000000000000000315000013401600
0202LOTE PADRAO                   EMBRAER     ON EJ      EMBR3       010VISTA          000000000010300000000109000000001030000000000000000000109000000043500
0202LOTE PADRAO                   AMBEV       PN *       AMBV4       010VISTA          000000000496000000005000000000049000000000000000000004946000001948000
0202LOTE PADRAO                   USIMINAS    PNA        USIM5       010VISTA          000000000006000000000065000000000600000000000000000000064000000100700
0202LOTE PADRAO                   ELETROPAULO PN *       ELPL4       010VISTA          000000000078000000000809000000007690000000000000000000800000007604400
0202LOTE PADRAO                   TELE NORD CLPN *       TNEP4       010VISTA          000000000003300000000035000000000330000000000000000000035200195450000
0202LOTE PADRAO                   CEMIG       PN * EJ    CMIG4       010VISTA          000000000033700000000349000000003350000000000000000000336000071400900
0202LOTE PADRAO                   TELE CL SUL PN * EJ    TCSL4       010VISTA          000000000003800000000040000000000380000000000000000000040000142279000
0202LOTE PADRAO                   CEMIG       ON * EJ    CMIG3       010VISTA          000000000031000000000310000000003030000000000000000000310000002572100
0202LOTE PADRAO                   TELE CL SUL ON * EJ    TCSL3       010VISTA          000000000003200000000034000000000300000000000000000000034000074855700
0202LOTE PADRAO                   ITAUSA      PN         ITSA4       010VISTA          000000000002100000000022000000000210000000000000000000022000000594900
0202LOTE PADRAO                   V C P       PN *       VCPA4       010VISTA          000000000083400000000840000000008190000000000000000000827000002307400
0202LOTE PADRAO                   SID TUBARAO PN *       CSTB4       010VISTA          000000000022700000000227000000002250000000000000000000226000014106000
0202LOTE PADRAO                   BRADESPAR   PN *       BRAP4       010VISTA          000000000000840000000009000000000083000000000000000000008900640824000
0202LOTE PADRAO                   NET         PN         PLIM4       010VISTA          000000000000810000000008700000000081000000000000000000008500003622500
0202LOTE PADRAO                   TELE CTR OESPN * EJ    TCOC4       010VISTA          000000000005400000000055000000000530000000000000000000054000159750000
0202LOTE PADRAO                   TELEMAR N L PNA* EJ    TMAR5       010VISTA          000000000058100000000589000000005650000000000000000000580000024734900
0202LOTE PADRAO                   GERDAU      PN * EJ    GGBR4       010VISTA          000000000022100000000234000000002190000000000000000000231000028454200
0202LOTE PADRAO                   BRASIL      ON *       BBAS3       010VISTA          000000000009800000000103000000000980000000000000000000101000021480800
