00BDIN9999BOVESPA 99992001041620010416
0101IBOVESPA                      0149740143850149760000000000000000002001041600000020010416014445000000
0202LOTE PADRAO                   EMBRATEL PARPN *       EBTP4       010VISTA          000000000022300000000223000000002125000000000000000000214000037814600
0202LOTE PADRAO                   EMBRATEL PARON *       EBTP3       010VISTA          000000000021000000000210000000002010000000000000000000204000019162300
0202LOTE PADRAO                   TRAN PAULISTPN * EJ    TRPL4       010VISTA          000000000007400000000074000000000696000000000000000000069000012280000
0202LOTE PADRAO                   TELEMAR     PN * EJ    TNLP4       010VISTA          000000000036400000000364000000003560000000000000000000357000234423000
0202LOTE PADRAO                   ITAUBANCO   PN * EJ    ITAU4       010VISTA          000000000173800000001738000000017000000000000000000001710000000921400
0202LOTE PADRAO                   TELEMAR     ON * EJ    TNLP3       010VISTA          000000000034500000000355000000003300000000000000000000337000005623300
0202LOTE PADRAO                   SID NACIONALON *       CSNA3       010VISTA          000000000049600000000510000000004750000000000000000000480000004096700
0202LOTE PADRAO                   TELE LEST CLPN *       TLCP4       010VISTA          000000000001690000000017100000000160000000000000000000016000101979000
0202LOTE PADRAO                   IPIRANGA PETPN *       PTIP4       010VISTA          000000000016100000000161000000001600000000000000000000160000001280000
0202LOTE PADRAO                   BRASIL T PARPN *       BRTP4       010VISTA          000000000019000000000191000000001830000000000000000000186000081045700
0202LOTE PADRAO                   BRASIL T PARON *       BRTP3       010VISTA          000000000018000000000180000000001730000000000000000000174000009462600
0202LOTE PADRAO                   ACESITA     PN *       ACES4       010VISTA          000000000000960000000009700000000092000000000000000000009200187588000
0202LOTE PADRAO                   PETROBRAS   PN         PETR4       010VISTA          000000000050000000000500000000004800000000000000000000485000000093100
0202LOTE PADRAO                   ELETROBRAS  PNB*       ELET6       010VISTA          000000000035400000000354000000003350000000000000000000340000043224200
0202LOTE PADRAO                   PETROBRAS   ON         PETR3       010VISTA          000000000052000000000527000000005100000000000000000000526000000014000
0202LOTE PADRAO                   COMGAS      PNA*       CGAS5       010VISTA          000000000151900000001519000000014200000000000000000001450000001760000
0202LOTE PADRAO                   SOUZA CRUZ  ON EJ      CRUZ3       010VISTA          000000000010800000000109000000001060000000000000000000108000000009000
0202LOTE PADRAO                   CELESC      PNB        CLSC6       010VISTA          000000000000570000000005800000000055000000000000000000005600000113000
0202LOTE PADRAO                   ELETROBRAS  ON *       ELET3       010VISTA          000000000037500000000378000000003700000000000000000000370000023788200
0202LOTE PADRAO                   BRADESCO    PN * EJ    BBDC4       010VISTA          000000000011900000000119000000001150000000000000000000115000140701000
0202LOTE PADRAO                   CESP        PN *       CESP4       010VISTA          000000000019250000000194000000001880000000000000000000191000008698500
0202LOTE PADRAO                   LIGHT       ON *       LIGH3       010VISTA          000000000175000000001799000000017500000000000000000001760000000347700
0202LOTE PADRAO                   TELESP CL PAPN *       TSPP4       010VISTA          000000000014800000000150000000001410000000000000000000143000142444000
0202LOTE PADRAO                   VALE R DOCE PNA        VALE5       010VISTA          000000000050200000000509000000005010000000000000000000505000000026700
0202LOTE PADRAO                   COPEL       PNB*       CPLE6       010VISTA          000000000017600000000176000000001720000000000000000000173000022427000
0202LOTE PADRAO                   VALE R DOCE ON         VALE3       010VISTA          000000000048000000000480000000004770000000000000000000480000000000100
0202LOTE PADRAO                   ARACRUZ     PNB        ARCZ6       010VISTA          000000000002700000000028000000000270000000000000000000027000000020900
0202LOTE PADRAO                   TELEMIG PARTPN *       TMCP4       010VISTA          000000000004500000000045000000000420000000000000000000042000070178200
0202LOTE PADRAO                   BRASIL TELECPN *       BRTO4       010VISTA          000000000013700000000137000000001275000000000000000000129000019606800
0202LOTE PADRAO                   SABESP      ON *       SBSP3       010VISTA          000000000193000000001930000000018500000000000000000001890000002510000
0202LOTE PADRAO                   BRASKEM     PNA*       BRKM5       010VISTA          000000000585000000005850000000056000000000000000000005650000000391400
0202LOTE PADRAO                   EMBRAER     PN EJ      EMBR4       010VISTA          000000000021300000000225000000002130000000000000000000223000000025100
0202LOTE PADRAO                   TELESP      PN * EJ    TLPP4       010VISTA          000000000029000000000293000000002860000000000000000000291000004712900
0202LOTE PADRAO                   EMBRAER     ON EJ      EMBR3       010VISTA          000000000017400000000179000000001710000000000000000000174000000047800
0202LOTE PADRAO                   AMBEV       PN *       AMBV4       010VISTA          000000000501500000005015000000048500000000000000000004890000000652600
0202LOTE PADRAO                   USIMINAS    PNA        USIM5       010VISTA          000000000009000000000090000000000860000000000000000000087500000028000
0202LOTE PADRAO                   ELETROPAULO PN *       ELPL4       010VISTA          000000000081500000000825000000007790000000000000000000779000000364900
0202LOTE PADRAO                   TELE NORD CLPN *       TNEP4       010VISTA          000000000003000000000031000000000290000000000000000000029000052144100
0202LOTE PADRAO                   CEMIG       PN * EJ    CMIG4       010VISTA          000000000025800000000270000000002560000000000000000000258000046488600
0202LOTE PADRAO                   TELE CL SUL PN * EJ    TCSL4       010VISTA          000000000004200000000043000000000420000000000000000000042500061359700
0202LOTE PADRAO                   CEMIG       ON * EJ    CMIG3       010VISTA          000000000025000000000260000000002500000000000000000000256000000924400
0202LOTE PADRAO                   TELE CL SUL ON * EJ    TCSL3       010VISTA          000000000003900000000042000000000380000000000000000000041000070067300
0202LOTE PADRAO                   ITAUSA      PN         ITSA4       010VISTA          000000000001810000000018000000000181000000000000000000018000000169200
0202LOTE PADRAO                   SID TUBARAO PN *       CSTB4       010VISTA          000000000021000000000217000000002060000000000000000000215000008303000
0202LOTE PADRAO                   V C P       PN *       VCPA4       010VISTA          000000000056000000000560000000005300000000000000000000553000002062200
0202LOTE PADRAO                   BRADESPAR   PN *       BRAP4       010VISTA          000000000001000000000010000000000098000000000000000000009800190830000
0202LOTE PADRAO                   NET         PN         PLIM4       010VISTA          000000000001280000000012800000000110000000000000000000012000000881400
0202LOTE PADRAO                   TELE CTR OESPN * EJ    TCOC4       010VISTA          000000000005900000000059000000000560000000000000000000056000053521500
0202LOTE PADRAO                   GERDAU      PN * EJ    GGBR4       010VISTA          000000000018600000000188000000001810000000000000000000187500014641400
0202LOTE PADRAO                   BRASIL      ON *       BBAS3       010VISTA          000000000009400000000094000000000880000000000000000000088000006836900
