00BDIN9999BOVESPA 99992001041220010412
0101IBOVESPA                      0148110144900149690000000000000000002001041200000020010412014969000000
0202LOTE PADRAO                   EMBRATEL PARPN *       EBTP4       010VISTA          000000000021500000000226000000002080000000000000000000226000061459600
0202LOTE PADRAO                   EMBRATEL PARON *       EBTP3       010VISTA          000000000021100000000213000000002050000000000000000000211000018310700
0202LOTE PADRAO                   TRAN PAULISTPN * EJ    TRPL4       010VISTA          000000000007200000000072000000000690000000000000000000072000012292900
0202LOTE PADRAO                   TELEMAR     PN * EJ    TNLP4       010VISTA          000000000036500000000375000000003570000000000000000000371000154727000
0202LOTE PADRAO                   ITAUBANCO   PN * EJ    ITAU4       010VISTA          000000000172900000001756000000016900000000000000000001750000004551200
0202LOTE PADRAO                   TELEMAR     ON * EJ    TNLP3       010VISTA          000000000035000000000357000000003400000000000000000000357000012350700
0202LOTE PADRAO                   SID NACIONALON *       CSNA3       010VISTA          000000000049700000000505000000004920000000000000000000500000003475700
0202LOTE PADRAO                   TELE LEST CLPN *       TLCP4       010VISTA          000000000001750000000017500000000160000000000000000000017100117365000
0202LOTE PADRAO                   IPIRANGA PETPN *       PTIP4       010VISTA          000000000016000000000163000000001600000000000000000000160000001400000
0202LOTE PADRAO                   BRASIL T PARPN *       BRTP4       010VISTA          000000000018500000000193000000001830000000000000000000193000059123600
0202LOTE PADRAO                   BRASIL T PARON *       BRTP3       010VISTA          000000000018400000000184000000001760000000000000000000183000020278200
0202LOTE PADRAO                   ACESITA     PN *       ACES4       010VISTA          000000000000980000000010000000000095000000000000000000009800080610000
0202LOTE PADRAO                   PETROBRAS   PN         PETR4       010VISTA          000000000049400000000497000000004820000000000000000000495000000144800
0202LOTE PADRAO                   ELETROBRAS  PNB*       ELET6       010VISTA          000000000034800000000358000000003380000000000000000000357000056319100
0202LOTE PADRAO                   PETROBRAS   ON         PETR3       010VISTA          000000000053200000000540000000005150000000000000000000530000000038700
0202LOTE PADRAO                   COMGAS      PNA*       CGAS5       010VISTA          000000000150000000001519000000014830000000000000000001519000008248300
0202LOTE PADRAO                   SOUZA CRUZ  ON EJ      CRUZ3       010VISTA          000000000010400000000110000000001040000000000000000000109000000007000
0202LOTE PADRAO                   CELESC      PNB        CLSC6       010VISTA          000000000000570000000005800000000056000000000000000000005700000095100
0202LOTE PADRAO                   ELETROBRAS  ON *       ELET3       010VISTA          000000000036000000000381000000003600000000000000000000380000045820100
0202LOTE PADRAO                   BRADESCO    PN * EJ    BBDC4       010VISTA          000000000011900000000121000000001150000000000000000000121000100567000
0202LOTE PADRAO                   CESP        PN *       CESP4       010VISTA          000000000019400000000198000000001900000000000000000000195000005725800
0202LOTE PADRAO                   LIGHT       ON *       LIGH3       010VISTA          000000000183000000001830000000017900000000000000000001810000000747900
0202LOTE PADRAO                   TELESP CL PAPN *       TSPP4       010VISTA          000000000014400000000154000000001400000000000000000000154000162408000
0202LOTE PADRAO                   VALE R DOCE PNA        VALE5       010VISTA          000000000050700000000507000000004900000000000000000000502500000049800
0202LOTE PADRAO                   COPEL       PNB*       CPLE6       010VISTA          000000000017500000000179000000001730000000000000000000178000052810200
0202LOTE PADRAO                   VALE R DOCE ON         VALE3       010VISTA          000000000047900000000480000000004720000000000000000000480000000001200
0202LOTE PADRAO                   ARACRUZ     PNB        ARCZ6       010VISTA          000000000002800000000028000000000277000000000000000000027000000076300
0202LOTE PADRAO                   TELEMIG PARTPN *       TMCP4       010VISTA          000000000004500000000045000000000430000000000000000000045000078492300
0202LOTE PADRAO                   BRASIL TELECPN *       BRTO4       010VISTA          000000000013000000000136000000001300000000000000000000136000029193400
0202LOTE PADRAO                   SABESP      ON *       SBSP3       010VISTA          000000000191500000001959000000018800000000000000000001944000001217000
0202LOTE PADRAO                   BRASKEM     PNA*       BRKM5       010VISTA          000000000620000000006200000000058000000000000000000005900000000134700
0202LOTE PADRAO                   EMBRAER     PN EJ      EMBR4       010VISTA          000000000021300000000216000000002100000000000000000000216000000019100
0202LOTE PADRAO                   TELESP      PN * EJ    TLPP4       010VISTA          000000000029500000000303000000002900000000000000000000303000008289900
0202LOTE PADRAO                   EMBRAER     ON EJ      EMBR3       010VISTA          000000000017400000000174000000001700000000000000000000174000000097600
0202LOTE PADRAO                   AMBEV       PN *       AMBV4       010VISTA          000000000495000000005080000000049500000000000000000005010000000681200
0202LOTE PADRAO                   USIMINAS    PNA        USIM5       010VISTA          000000000009100000000091000000000900000000000000000000090000000036400
0202LOTE PADRAO                   ELETROPAULO PN *       ELPL4       010VISTA          000000000083500000000835000000008150000000000000000000819000005051500
0202LOTE PADRAO                   TELE NORD CLPN *       TNEP4       010VISTA          000000000003000000000031000000000290000000000000000000031000094684200
0202LOTE PADRAO                   CEMIG       PN * EJ    CMIG4       010VISTA          000000000027800000000278000000002600000000000000000000273000044028200
0202LOTE PADRAO                   TELE CL SUL PN * EJ    TCSL4       010VISTA          000000000004100000000044000000000400000000000000000000043000091856700
0202LOTE PADRAO                   CEMIG       ON * EJ    CMIG3       010VISTA          000000000025500000000271000000002550000000000000000000271000000860000
0202LOTE PADRAO                   TELE CL SUL ON * EJ    TCSL3       010VISTA          000000000003700000000039000000000375000000000000000000039000022107200
0202LOTE PADRAO                   ITAUSA      PN         ITSA4       010VISTA          000000000001810000000018000000000178000000000000000000018000000145200
0202LOTE PADRAO                   SID TUBARAO PN *       CSTB4       010VISTA          000000000021600000000220000000002060000000000000000000220000004120000
0202LOTE PADRAO                   V C P       PN *       VCPA4       010VISTA          000000000053000000000560000000005250000000000000000000560000002418800
0202LOTE PADRAO                   BRADESPAR   PN *       BRAP4       010VISTA          000000000001000000000010000000000099000000000000000000010000147615000
0202LOTE PADRAO                   NET         PN         PLIM4       010VISTA          000000000001260000000013000000000120000000000000000000013000000548800
0202LOTE PADRAO                   TELE CTR OESPN * EJ    TCOC4       010VISTA          000000000006000000000060000000000570000000000000000000060000051383600
0202LOTE PADRAO                   GERDAU      PN * EJ    GGBR4       010VISTA          000000000018700000000188000000001860000000000000000000187000006249800
0202LOTE PADRAO                   BRASIL      ON *       BBAS3       010VISTA          000000000009300000000096000000000890000000000000000000095000007402400
