00BDIN9999BOVESPA 99992001011620010116
0101IBOVESPA                      0169730166620170350000000000000000002001011600000020010116016721000000
0202LOTE PADRAO                   EMBRATEL PARPN *       EBTP4       010VISTA          000000000033100000000331000000003110000000000000000000313000059563600
0202LOTE PADRAO                   EMBRATEL PARON *       EBTP3       010VISTA          000000000026300000000265000000002530000000000000000000253000016141500
0202LOTE PADRAO                   TRAN PAULISTPN * EJ    TRPL4       010VISTA          000000000008500000000085000000000810000000000000000000081000017155200
0202LOTE PADRAO                   TELEMAR     PN * EJ    TNLP4       010VISTA          000000000047000000000472000000004580000000000000000000459000135038000
0202LOTE PADRAO                   ITAUBANCO   PN * EJ    ITAU4       010VISTA          000000000188000000001900000000018700000000000000000001890000002170800
0202LOTE PADRAO                   TELEMAR     ON * EJ    TNLP3       010VISTA          000000000037250000000372500000003610000000000000000000366000017329900
0202LOTE PADRAO                   SID NACIONALON *       CSNA3       010VISTA          000000000064500000000648000000006420000000000000000000646000009802400
0202LOTE PADRAO                   TELE LEST CLPN *       TLCP4       010VISTA          000000000001400000000014000000000130000000000000000000013000027433900
0202LOTE PADRAO                   CRT CELULAR PNA* EJ    CRTP5       010VISTA          000000000740000000007500000000073000000000000000000007449000000245700
0202LOTE PADRAO                   IPIRANGA PETPN *       PTIP4       010VISTA          000000000016900000000170000000001680000000000000000000168000001794000
0202LOTE PADRAO                   BRASIL T PARPN *       BRTP4       010VISTA          000000000024000000000242000000002200000000000000000000226000172237000
0202LOTE PADRAO                   BRASIL T PARON *       BRTP3       010VISTA          000000000019800000000200000000001910000000000000000000191000075077500
0202LOTE PADRAO                   ACESITA     PN *       ACES4       010VISTA          000000000001100000000011000000000110000000000000000000011000200339000
0202LOTE PADRAO                   PETROBRAS   PN         PETR4       010VISTA          000000000051200000000527000000005120000000000000000000524000000152000
0202LOTE PADRAO                   ELETROBRAS  PNB*       ELET6       010VISTA          000000000037000000000370000000003580000000000000000000360000046362400
0202LOTE PADRAO                   PETROBRAS   ON         PETR3       010VISTA          000000000053800000000562000000005350000000000000000000562000000095900
0202LOTE PADRAO                   COMGAS      PNA*       CGAS5       010VISTA          000000000143000000001440000000013900000000000000000001399000005185800
0202LOTE PADRAO                   SOUZA CRUZ  ON EJ      CRUZ3       010VISTA          000000000010400000000108000000001025000000000000000000103000000050400
0202LOTE PADRAO                   ELETROBRAS  ON *       ELET3       010VISTA          000000000039700000000397000000003850000000000000000000387000037867100
0202LOTE PADRAO                   CELESC      PNB        CLSC6       010VISTA          000000000000660000000006700000000064000000000000000000006400000219000
0202LOTE PADRAO                   BRADESCO    PN * EJ    BBDC4       010VISTA          000000000013400000000135000000001310000000000000000000134000001926300
0202LOTE PADRAO                   CESP        PN *       CESP4       010VISTA          000000000021100000000211000000002030000000000000000000206000015811300
0202LOTE PADRAO                   LIGHT       ON *       LIGH3       010VISTA          000000000248900000002489000000024300000000000000000002431000000059000
0202LOTE PADRAO                   TELESP CL PAPN *       TSPP4       010VISTA          000000000022000000000221000000002000000000000000000000208000085635200
0202LOTE PADRAO                   VALE R DOCE PNA        VALE5       010VISTA          000000000047500000000477000000004700000000000000000000472000000020600
0202LOTE PADRAO                   COPEL       PNB*       CPLE6       010VISTA          000000000017400000000176000000001730000000000000000000176000008021600
0202LOTE PADRAO                   VALE R DOCE ON         VALE3       010VISTA          000000000043000000000430000000004300000000000000000000430000000000000
0202LOTE PADRAO                   ARACRUZ     PNB        ARCZ6       010VISTA          000000000003000000000031000000000296000000000000000000029600000159500
0202LOTE PADRAO                   TELEMIG PARTPN *       TMCP4       010VISTA          000000000006000000000062500000000550000000000000000000057000283321000
0202LOTE PADRAO                   BRASIL TELECPN *       BRTO4       010VISTA          000000000017300000000173000000001675000000000000000000168000064848200
0202LOTE PADRAO                   SABESP      ON *       SBSP3       010VISTA          000000000190000000001910000000018800000000000000000001880000001033200
0202LOTE PADRAO                   BRASKEM     PNA*       BRKM5       010VISTA          000000000630000000006460000000063000000000000000000006442500000152800
0202LOTE PADRAO                   EMBRAER     PN EJ      EMBR4       010VISTA          000000000018500000000185000000001780000000000000000000181000000016400
0202LOTE PADRAO                   TELESP      PN * EJ    TLPP4       010VISTA          000000000028100000000281000000002710000000000000000000276000003628800
0202LOTE PADRAO                   EMBRAER     ON EJ      EMBR3       010VISTA          000000000014900000000149000000001440000000000000000000146000000026100
0202LOTE PADRAO                   AMBEV       PN *       AMBV4       010VISTA          000000000468000000004720000000046350000000000000000004720000000636600
0202LOTE PADRAO                   USIMINAS    PNA        USIM5       010VISTA          000000000010300000000105000000001020000000000000000000105000000011500
0202LOTE PADRAO                   ELETROPAULO PN *       ELPL4       010VISTA          000000000105000000001080000000010500000000000000000001080000002224400
0202LOTE PADRAO                   TELE NORD CLPN *       TNEP4       010VISTA          000000000004400000000044000000000420000000000000000000042500077460600
0202LOTE PADRAO                   CEMIG       PN * EJ    CMIG4       010VISTA          000000000032100000000323000000003180000000000000000000322000054288200
0202LOTE PADRAO                   TELE CL SUL PN * EJ    TCSL4       010VISTA          000000000005500000000055000000000510000000000000000000051000090531300
0202LOTE PADRAO                   CEMIG       ON * EJ    CMIG3       010VISTA          000000000027400000000276000000002700000000000000000000276000006851200
0202LOTE PADRAO                   TELE CL SUL ON * EJ    TCSL3       010VISTA          000000000004700000000047000000000450000000000000000000045000013627800
0202LOTE PADRAO                   ITAUSA      PN         ITSA4       010VISTA          000000000001990000000020000000000198000000000000000000020000000136300
0202LOTE PADRAO                   SID TUBARAO PN *       CSTB4       010VISTA          000000000023000000000230000000002260000000000000000000227000004141900
0202LOTE PADRAO                   V C P       PN *       VCPA4       010VISTA          000000000057000000000577000000005670000000000000000000575000003323000
0202LOTE PADRAO                   BRADESPAR   PN *       BRAP4       010VISTA          000000000001100000000011000000000110000000000000000000011000277356000
0202LOTE PADRAO                   NET         PN         PLIM4       010VISTA          000000000002300000000023000000000220000000000000000000022000000591800
0202LOTE PADRAO                   TELE CTR OESPN * EJ    TCOC4       010VISTA          000000000007900000000081000000000775000000000000000000077500051971300
0202LOTE PADRAO                   GERDAU      PN * EJ    GGBR4       010VISTA          000000000019500000000195000000001910000000000000000000192500012621100
0202LOTE PADRAO                   BRASIL      ON *       BBAS3       010VISTA          000000000008000000000083000000000800000000000000000000080000021613100
