00BDIN9999BOVESPA 99992001020220010202
0101IBOVESPA                      0170270167810172060000000000000000002001020200000020010202016915000000
0202LOTE PADRAO                   EMBRATEL PARPN *       EBTP4       010VISTA          000000000030100000000315000000002960000000000000000000301000055142500
0202LOTE PADRAO                   EMBRATEL PARON *       EBTP3       010VISTA          000000000025300000000256000000002430000000000000000000250000009782900
0202LOTE PADRAO                   TRAN PAULISTPN * EJ    TRPL4       010VISTA          000000000007800000000081000000000780000000000000000000081000013581500
0202LOTE PADRAO                   TELEMAR     PN * EJ    TNLP4       010VISTA          000000000047000000000473000000004610000000000000000000465000167068000
0202LOTE PADRAO                   ITAUBANCO   PN * EJ    ITAU4       010VISTA          000000000183000000001840000000018050000000000000000001840000002806000
0202LOTE PADRAO                   TELEMAR     ON * EJ    TNLP3       010VISTA          000000000037500000000378000000003700000000000000000000372000008617000
0202LOTE PADRAO                   SID NACIONALON *       CSNA3       010VISTA          000000000070500000000710000000006850000000000000000000695000012632800
0202LOTE PADRAO                   TELE LEST CLPN *       TLCP4       010VISTA          000000000001530000000016000000000149000000000000000000015500141054000
0202LOTE PADRAO                   IPIRANGA PETPN *       PTIP4       010VISTA          000000000016200000000170000000001620000000000000000000165000002596500
0202LOTE PADRAO                   BRASIL T PARPN *       BRTP4       010VISTA          000000000024100000000244000000002330000000000000000000238000049925900
0202LOTE PADRAO                   BRASIL T PARON *       BRTP3       010VISTA          000000000020800000000210000000001980000000000000000000198000016472500
0202LOTE PADRAO                   ACESITA     PN *       ACES4       010VISTA          000000000001100000000011000000000110000000000000000000011000363725000
0202LOTE PADRAO                   PETROBRAS   PN         PETR4       010VISTA          000000000053200000000543000000005320000000000000000000537000000054900
0202LOTE PADRAO                   ELETROBRAS  PNB*       ELET6       010VISTA          000000000037700000000386000000003680000000000000000000372500026347300
0202LOTE PADRAO                   PETROBRAS   ON         PETR3       010VISTA          000000000054500000000548000000005430000000000000000000546000000028200
0202LOTE PADRAO                   COMGAS      PNA*       CGAS5       010VISTA          000000000158500000001599000000015250000000000000000001575000004851300
0202LOTE PADRAO                   SOUZA CRUZ  ON EJ      CRUZ3       010VISTA          000000000011500000000120000000001130000000000000000000117500000012300
0202LOTE PADRAO                   CELESC      PNB        CLSC6       010VISTA          000000000000670000000006700000000066000000000000000000006700000280200
0202LOTE PADRAO                   ELETROBRAS  ON *       ELET3       010VISTA          000000000039700000000407000000003950000000000000000000397000029687800
0202LOTE PADRAO                   BRADESCO    PN * EJ    BBDC4       010VISTA          000000000013000000000131000000001250000000000000000000126000002624000
0202LOTE PADRAO                   CESP        PN *       CESP4       010VISTA          000000000022800000000235000000002260000000000000000000235000008209500
0202LOTE PADRAO                   LIGHT       ON *       LIGH3       010VISTA          000000000245000000002560000000024500000000000000000002530000000353900
0202LOTE PADRAO                   TELESP CL PAPN *       TSPP4       010VISTA          000000000020300000000209000000001960000000000000000000200000146471000
0202LOTE PADRAO                   VALE R DOCE PNA        VALE5       010VISTA          000000000050500000000518000000005010000000000000000000508000000038500
0202LOTE PADRAO                   COPEL       PNB*       CPLE6       010VISTA          000000000019100000000191000000001880000000000000000000191000031132800
0202LOTE PADRAO                   VALE R DOCE ON         VALE3       010VISTA          000000000049500000000505000000004900000000000000000000495000000001500
0202LOTE PADRAO                   ARACRUZ     PNB        ARCZ6       010VISTA          000000000002800000000028000000000275000000000000000000027500000046000
0202LOTE PADRAO                   TELEMIG PARTPN *       TMCP4       010VISTA          000000000006100000000063000000000600000000000000000000061000046895600
0202LOTE PADRAO                   BRASIL TELECPN *       BRTO4       010VISTA          000000000018000000000180000000001700000000000000000000171000019748900
0202LOTE PADRAO                   SABESP      ON *       SBSP3       010VISTA          000000000213000000002180000000021300000000000000000002175000001969700
0202LOTE PADRAO                   BRASKEM     PNA*       BRKM5       010VISTA          000000000660000000006750000000065600000000000000000006700000000068500
0202LOTE PADRAO                   EMBRAER     PN EJ      EMBR4       010VISTA          000000000020200000000208000000002000000000000000000000200000000011200
0202LOTE PADRAO                   TELESP      PN * EJ    TLPP4       010VISTA          000000000031500000000319000000002900000000000000000000309000011008200
0202LOTE PADRAO                   EMBRAER     ON EJ      EMBR3       010VISTA          000000000015600000000156000000001530000000000000000000155000000022300
0202LOTE PADRAO                   AMBEV       PN *       AMBV4       010VISTA          000000000558000000005600000000052000000000000000000005330000001369600
0202LOTE PADRAO                   USIMINAS    PNA        USIM5       010VISTA          000000000011500000000115000000001110000000000000000000111000000098500
0202LOTE PADRAO                   ELETROPAULO PN *       ELPL4       010VISTA          000000000111000000001150000000011100000000000000000001142000001148700
0202LOTE PADRAO                   TELE NORD CLPN *       TNEP4       010VISTA          000000000003900000000040000000000380000000000000000000038000069812500
0202LOTE PADRAO                   CEMIG       PN * EJ    CMIG4       010VISTA          000000000034500000000346000000003350000000000000000000343000044903000
0202LOTE PADRAO                   TELE CL SUL PN * EJ    TCSL4       010VISTA          000000000005000000000051000000000490000000000000000000050000070832300
0202LOTE PADRAO                   CEMIG       ON * EJ    CMIG3       010VISTA          000000000030900000000309000000002980000000000000000000306000006810000
0202LOTE PADRAO                   TELE CL SUL ON * EJ    TCSL3       010VISTA          000000000004000000000041000000000390000000000000000000039800008880900
0202LOTE PADRAO                   ITAUSA      PN         ITSA4       010VISTA          000000000002000000000020000000000200000000000000000000020000000420400
0202LOTE PADRAO                   SID TUBARAO PN *       CSTB4       010VISTA          000000000022500000000231000000002250000000000000000000228000002261800
0202LOTE PADRAO                   V C P       PN *       VCPA4       010VISTA          000000000060000000000612000000005970000000000000000000598000004590200
0202LOTE PADRAO                   BRADESPAR   PN *       BRAP4       010VISTA          000000000001100000000011000000000110000000000000000000011000137879000
0202LOTE PADRAO                   NET         PN         PLIM4       010VISTA          000000000002000000000020000000000200000000000000000000020000000684500
0202LOTE PADRAO                   TELE CTR OESPN * EJ    TCOC4       010VISTA          000000000007900000000083000000000780000000000000000000080000175048000
0202LOTE PADRAO                   BRASIL      ON *       BBAS3       010VISTA          000000000007700000000077000000000740000000000000000000075000002668000
