00BDIN9999BOVESPA 99992001013120010131
0101IBOVESPA                      0177250176370179210000000000000000002001013100000020010131017673000000
0202LOTE PADRAO                   EMBRATEL PARPN *       EBTP4       010VISTA          000000000033100000000332000000003270000000000000000000331000051620800
0202LOTE PADRAO                   EMBRATEL PARON *       EBTP3       010VISTA          000000000026800000000271000000002625000000000000000000266000026513200
0202LOTE PADRAO                   TRAN PAULISTPN * EJ    TRPL4       010VISTA          000000000008300000000084000000000800000000000000000000080000016495000
0202LOTE PADRAO                   TELEMAR     PN * EJ    TNLP4       010VISTA          000000000049500000000498000000004880000000000000000000490000121425000
0202LOTE PADRAO                   ITAUBANCO   PN * EJ    ITAU4       010VISTA          000000000187000000001875000000018400000000000000000001865000008850500
0202LOTE PADRAO                   TELEMAR     ON * EJ    TNLP3       010VISTA          000000000039700000000400000000003950000000000000000000400000013493100
0202LOTE PADRAO                   SID NACIONALON *       CSNA3       010VISTA          000000000073900000000740000000007240000000000000000000740000005619300
0202LOTE PADRAO                   TELE LEST CLPN *       TLCP4       010VISTA          000000000001740000000017700000000160000000000000000000016000110200000
0202LOTE PADRAO                   CRT CELULAR PNA* EJ    CRTP5       010VISTA          000000000774900000007900000000076000000000000000000007900000000456200
0202LOTE PADRAO                   IPIRANGA PETPN *       PTIP4       010VISTA          000000000017500000000178000000001700000000000000000000170000003384000
0202LOTE PADRAO                   BRASIL T PARPN *       BRTP4       010VISTA          000000000025800000000258000000002500000000000000000000253000073881200
0202LOTE PADRAO                   BRASIL T PARON *       BRTP3       010VISTA          000000000021800000000223000000002110000000000000000000218000057786200
0202LOTE PADRAO                   ACESITA     PN *       ACES4       010VISTA          000000000001100000000012000000000110000000000000000000011000296627000
0202LOTE PADRAO                   PETROBRAS   PN         PETR4       010VISTA          000000000054400000000553000000005420000000000000000000545000000108300
0202LOTE PADRAO                   ELETROBRAS  PNB*       ELET6       010VISTA          000000000040000000000408000000004000000000000000000000400000024449300
0202LOTE PADRAO                   PETROBRAS   ON         PETR3       010VISTA          000000000055500000000557000000005470000000000000000000547000000030500
0202LOTE PADRAO                   COMGAS      PNA*       CGAS5       010VISTA          000000000150000000001560000000014750000000000000000001538000004224800
0202LOTE PADRAO                   SOUZA CRUZ  ON EJ      CRUZ3       010VISTA          000000000012000000000123000000001180000000000000000000119000000063300
0202LOTE PADRAO                   ELETROBRAS  ON *       ELET3       010VISTA          000000000042200000000430000000004170000000000000000000417000025174900
0202LOTE PADRAO                   CELESC      PNB        CLSC6       010VISTA          000000000000690000000006900000000067000000000000000000006700000177200
0202LOTE PADRAO                   BRADESCO    PN * EJ    BBDC4       010VISTA          000000000013400000000137000000001340000000000000000000135000003409000
0202LOTE PADRAO                   CESP        PN *       CESP4       010VISTA          000000000023600000000238000000002250000000000000000000225000024577300
0202LOTE PADRAO                   LIGHT       ON *       LIGH3       010VISTA          000000000261000000002620000000025600000000000000000002560000000617800
0202LOTE PADRAO                   TELESP CL PAPN *       TSPP4       010VISTA          000000000022000000000222000000002150000000000000000000215000104647000
0202LOTE PADRAO                   VALE R DOCE PNA        VALE5       010VISTA          000000000051800000000532000000005160000000000000000000527000000062200
0202LOTE PADRAO                   COPEL       PNB*       CPLE6       010VISTA          000000000019600000000201000000001960000000000000000000196000018841800
0202LOTE PADRAO                   VALE R DOCE ON         VALE3       010VISTA          000000000049800000000510000000004980000000000000000000510000000001700
0202LOTE PADRAO                   ARACRUZ     PNB        ARCZ6       010VISTA          000000000002900000000029000000000280000000000000000000028000000129600
0202LOTE PADRAO                   TELEMIG PARTPN *       TMCP4       010VISTA          000000000006900000000069000000000640000000000000000000064000068065000
0202LOTE PADRAO                   BRASIL TELECPN *       BRTO4       010VISTA          000000000018600000000192500000001840000000000000000000184000103012000
0202LOTE PADRAO                   SABESP      ON *       SBSP3       010VISTA          000000000216000000002240000000021600000000000000000002210000003355800
0202LOTE PADRAO                   BRASKEM     PNA*       BRKM5       010VISTA          000000000676000000006760000000067000000000000000000006750000000240000
0202LOTE PADRAO                   EMBRAER     PN EJ      EMBR4       010VISTA          000000000020400000000208000000002025000000000000000000206000000022500
0202LOTE PADRAO                   TELESP      PN * EJ    TLPP4       010VISTA          000000000032500000000325000000003180000000000000000000319000019286500
0202LOTE PADRAO                   EMBRAER     ON EJ      EMBR3       010VISTA          000000000016300000000163000000001575000000000000000000159000000034700
0202LOTE PADRAO                   AMBEV       PN *       AMBV4       010VISTA          000000000559900000005620000000055000000000000000000005587000002507600
0202LOTE PADRAO                   USIMINAS    PNA        USIM5       010VISTA          000000000011400000000120000000001140000000000000000000119000000068000
0202LOTE PADRAO                   ELETROPAULO PN *       ELPL4       010VISTA          000000000115000000001169000000011300000000000000000001140000003880400
0202LOTE PADRAO                   TELE NORD CLPN *       TNEP4       010VISTA          000000000004300000000043000000000400000000000000000000041000054488000
0202LOTE PADRAO                   CEMIG       PN * EJ    CMIG4       010VISTA          000000000035500000000362000000003500000000000000000000357000038668000
0202LOTE PADRAO                   TELE CL SUL PN * EJ    TCSL4       010VISTA          000000000005750000000057500000000530000000000000000000053000064080700
0202LOTE PADRAO                   CEMIG       ON * EJ    CMIG3       010VISTA          000000000031100000000320000000003080000000000000000000316000002060800
0202LOTE PADRAO                   TELE CL SUL ON * EJ    TCSL3       010VISTA          000000000004600000000046000000000420000000000000000000042000012428000
0202LOTE PADRAO                   ITAUSA      PN         ITSA4       010VISTA          000000000002000000000020000000000200000000000000000000020000000480900
0202LOTE PADRAO                   SID TUBARAO PN *       CSTB4       010VISTA          000000000024000000000240000000002300000000000000000000234000011397500
0202LOTE PADRAO                   V C P       PN *       VCPA4       010VISTA          000000000063900000000639000000006180000000000000000000622000004729200
0202LOTE PADRAO                   BRADESPAR   PN *       BRAP4       010VISTA          000000000001200000000012000000000110000000000000000000011000312434000
0202LOTE PADRAO                   NET         PN         PLIM4       010VISTA          000000000002200000000022000000000210000000000000000000021000001343400
0202LOTE PADRAO                   TELE CTR OESPN * EJ    TCOC4       010VISTA          000000000008400000000085000000000830000000000000000000083000032610500
0202LOTE PADRAO                   GERDAU      PN * EJ    GGBR4       010VISTA          000000000022000000000220000000002030000000000000000000213000018387500
0202LOTE PADRAO                   BRASIL      ON *       BBAS3       010VISTA          000000000008100000000082000000000790000000000000000000079000006732800
