00BDIN9999BOVESPA 99992001110120011101
0101IBOVESPA                      0113620111770114980000000000000000002001110100000020011101011388000000
0202LOTE PADRAO                   EMBRATEL PARPN *       EBTP4       010VISTA          000000000007400000000080000000000730000000000000000000078000077045600
0202LOTE PADRAO                   EMBRATEL PARON *       EBTP3       010VISTA          000000000008400000000086000000000810000000000000000000086000012079100
0202LOTE PADRAO                   TRAN PAULISTPN * EJ    TRPL4       010VISTA          000000000005500000000057000000000550000000000000000000057000006832200
0202LOTE PADRAO                   TELEMAR     PN * EJ    TNLP4       010VISTA          000000000027000000000275000000002660000000000000000000268000256371000
0202LOTE PADRAO                   ITAUBANCO   PN * EJ    ITAU4       010VISTA          000000000171500000001750000000017000000000000000000001735000006905700
0202LOTE PADRAO                   TELEMAR     ON * EJ    TNLP3       010VISTA          000000000024800000000248000000002410000000000000000000247000049559400
0202LOTE PADRAO                   SID NACIONALON *       CSNA3       010VISTA          000000000028300000000285000000002760000000000000000000276000002867500
0202LOTE PADRAO                   TELE LEST CLPN *       TLCP4       010VISTA          000000000000740000000007400000000071000000000000000000007200067174300
0202LOTE PADRAO                   CRT CELULAR PNA* EJ    CRTP5       010VISTA          000000000366300000003770000000036500000000000000000003760000001196800
0202LOTE PADRAO                   IPIRANGA PETPN *       PTIP4       010VISTA          000000000011500000000119000000001130000000000000000000113000001540400
0202LOTE PADRAO                   BRASIL T PARPN *       BRTP4       010VISTA          000000000014800000000155000000001450000000000000000000154000060221900
0202LOTE PADRAO                   BRASIL T PARON *       BRTP3       010VISTA          000000000014500000000154000000001440000000000000000000151000008413100
0202LOTE PADRAO                   ACESITA     PN *       ACES4       010VISTA          000000000000480000000005000000000048000000000000000000005000113088000
0202LOTE PADRAO                   PETROBRAS   PN         PETR4       010VISTA          000000000051800000000518000000005020000000000000000000508000000113300
0202LOTE PADRAO                   ELETROBRAS  PNB*       ELET6       010VISTA          000000000033000000000332000000003200000000000000000000325000027022200
0202LOTE PADRAO                   PETROBRAS   ON         PETR3       010VISTA          000000000053400000000537000000005250000000000000000000532000000052000
0202LOTE PADRAO                   COMGAS      PNA*       CGAS5       010VISTA          000000000080000000000800000000007850000000000000000000792000000672400
0202LOTE PADRAO                   SOUZA CRUZ  ON EJ      CRUZ3       010VISTA          000000000012300000000125000000001200000000000000000000121000000023800
0202LOTE PADRAO                   ELETROBRAS  ON *       ELET3       010VISTA          000000000034800000000355000000003420000000000000000000346000008506100
0202LOTE PADRAO                   CELESC      PNB        CLSC6       010VISTA          000000000000430000000004500000000042000000000000000000004500000116400
0202LOTE PADRAO                   BRADESCO    PN * EJ    BBDC4       010VISTA          000000000010200000000106000000001010000000000000000000104000124728000
0202LOTE PADRAO                   CESP        PN *       CESP4       010VISTA          000000000013300000000134000000001300000000000000000000130000008191300
0202LOTE PADRAO                   LIGHT       ON *       LIGH3       010VISTA          000000000091000000000930000000008950000000000000000000915000000186400
0202LOTE PADRAO                   TELESP CL PAPN *       TSPP4       010VISTA          000000000005400000000054000000000530000000000000000000054000137795000
0202LOTE PADRAO                   VALE R DOCE PNA        VALE5       010VISTA          000000000056300000000570000000005600000000000000000000570000000025600
0202LOTE PADRAO                   COPEL       PNB*       CPLE6       010VISTA          000000000013100000000133000000001275000000000000000000129000072338900
0202LOTE PADRAO                   VALE R DOCE ON         VALE3       010VISTA          000000000052900000000530000000005240000000000000000000530000000005400
0202LOTE PADRAO                   ARACRUZ     PNB        ARCZ6       010VISTA          000000000004750000000050000000000460000000000000000000046000000011400
0202LOTE PADRAO                   TELEMIG PARTPN *       TMCP4       010VISTA          000000000003200000000033000000000320000000000000000000032000067861300
0202LOTE PADRAO                   BRASIL TELECPN *       BRTO4       010VISTA          000000000010300000000106000000001025000000000000000000105000079783200
0202LOTE PADRAO                   SABESP      ON *       SBSP3       010VISTA          000000000112000000001145000000010900000000000000000001110000000467100
0202LOTE PADRAO                   BRASKEM     PNA*       BRKM5       010VISTA          000000000385500000004030000000038100000000000000000003830000000167300
0202LOTE PADRAO                   EMBRAER     PN EJ      EMBR4       010VISTA          000000000011700000000121000000001150000000000000000000120000000020200
0202LOTE PADRAO                   TELESP      PN * EJ    TLPP4       010VISTA          000000000025500000000260000000002550000000000000000000258000024736200
0202LOTE PADRAO                   EMBRAER     ON EJ      EMBR3       010VISTA          000000000009800000000100000000000950000000000000000000099000000021700
0202LOTE PADRAO                   AMBEV       PN *       AMBV4       010VISTA          000000000440000000004524000000043490000000000000000004523000003546700
0202LOTE PADRAO                   USIMINAS    PNA        USIM5       010VISTA          000000000003900000000039400000000380000000000000000000039000000042100
0202LOTE PADRAO                   ELETROPAULO PN *       ELPL4       010VISTA          000000000065000000000650000000006250000000000000000000641000002076200
0202LOTE PADRAO                   TELE NORD CLPN *       TNEP4       010VISTA          000000000002600000000027000000000260000000000000000000027000043444100
0202LOTE PADRAO                   CEMIG       PN * EJ    CMIG4       010VISTA          000000000026500000000271000000002650000000000000000000271000031744600
0202LOTE PADRAO                   TELE CL SUL PN * EJ    TCSL4       010VISTA          000000000002800000000030000000000281000000000000000000030000038397100
0202LOTE PADRAO                   CEMIG       ON * EJ    CMIG3       010VISTA          000000000025500000000266000000002550000000000000000000260000003495800
0202LOTE PADRAO                   TELE CL SUL ON * EJ    TCSL3       010VISTA          000000000002400000000025000000000230000000000000000000024000031526500
0202LOTE PADRAO                   ITAUSA      PN         ITSA4       010VISTA          000000000001800000000019000000000180000000000000000000018000000278500
0202LOTE PADRAO                   SID TUBARAO PN *       CSTB4       010VISTA          000000000015400000000157000000001530000000000000000000153000003006600
0202LOTE PADRAO                   V C P       PN *       VCPA4       010VISTA          000000000080000000000800000000007800000000000000000000780000000471300
0202LOTE PADRAO                   BRADESPAR   PN *       BRAP4       010VISTA          000000000000650000000006700000000063000000000000000000006700183630000
0202LOTE PADRAO                   NET         PN         PLIM4       010VISTA          000000000000660000000006800000000064000000000000000000006600000688800
0202LOTE PADRAO                   TELE CTR OESPN * EJ    TCOC4       010VISTA          000000000004600000000047500000000450000000000000000000047000039833900
0202LOTE PADRAO                   GERDAU      PN * EJ    GGBR4       010VISTA          000000000018500000000185000000001810000000000000000000181000012601800
0202LOTE PADRAO                   BRASIL      ON *       BBAS3       010VISTA          000000000007700000000079000000000750000000000000000000077000002172400
