00BDIN9999BOVESPA 99992001031420010314
0101IBOVESPA                      0155830150700155830000000000000000002001031400000020010314015245000000
0202LOTE PADRAO                   EMBRATEL PARPN *       EBTP4       010VISTA          000000000024700000000251000000002380000000000000000000250000109784000
0202LOTE PADRAO                   EMBRATEL PARON *       EBTP3       010VISTA          000000000019600000000198000000001900000000000000000000198000039126700
0202LOTE PADRAO                   TRAN PAULISTPN * EJ    TRPL4       010VISTA          000000000008600000000086000000000800000000000000000000082000016162700
0202LOTE PADRAO                   TELEMAR     PN * EJ    TNLP4       010VISTA          000000000040200000000402000000003910000000000000000000396000203666000
0202LOTE PADRAO                   ITAUBANCO   PN * EJ    ITAU4       010VISTA          000000000170000000001700000000016300000000000000000001660000006241300
0202LOTE PADRAO                   TELEMAR     ON * EJ    TNLP3       010VISTA          000000000030000000000303000000002960000000000000000000298000020647100
0202LOTE PADRAO                   SID NACIONALON *       CSNA3       010VISTA          000000000048000000000480000000004600000000000000000000470000018684700
0202LOTE PADRAO                   TELE LEST CLPN *       TLCP4       010VISTA          000000000001690000000017500000000160000000000000000000017300098475300
0202LOTE PADRAO                   CRT CELULAR PNA* EJ    CRTP5       010VISTA          000000000910000000009200000000089000000000000000000009100000000953100
0202LOTE PADRAO                   IPIRANGA PETPN *       PTIP4       010VISTA          000000000014000000000144000000001400000000000000000000141000002070000
0202LOTE PADRAO                   BRASIL T PARPN *       BRTP4       010VISTA          000000000019400000000196000000001860000000000000000000193000078345000
0202LOTE PADRAO                   BRASIL T PARON *       BRTP3       010VISTA          000000000016750000000170000000001600000000000000000000169000010109100
0202LOTE PADRAO                   ACESITA     PN *       ACES4       010VISTA          000000000001000000000010000000000100000000000000000000010000251596000
0202LOTE PADRAO                   PETROBRAS   PN         PETR4       010VISTA          000000000054800000000551000000005320000000000000000000540000000102400
0202LOTE PADRAO                   ELETROBRAS  PNB*       ELET6       010VISTA          000000000037500000000397000000003710000000000000000000375000033013200
0202LOTE PADRAO                   PETROBRAS   ON         PETR3       010VISTA          000000000056200000000580000000005610000000000000000000562000000084100
0202LOTE PADRAO                   COMGAS      PNA*       CGAS5       010VISTA          000000000153900000001549000000014800000000000000000001510000007093500
0202LOTE PADRAO                   SOUZA CRUZ  ON EJ      CRUZ3       010VISTA          000000000010250000000104000000000980000000000000000000101000000030800
0202LOTE PADRAO                   ELETROBRAS  ON *       ELET3       010VISTA          000000000041000000000415000000004050000000000000000000408000016436500
0202LOTE PADRAO                   CELESC      PNB        CLSC6       010VISTA          000000000000610000000006100000000058000000000000000000005900000810300
0202LOTE PADRAO                   BRADESCO    PN * EJ    BBDC4       010VISTA          000000000011300000000115000000001100000000000000000000114000106684000
0202LOTE PADRAO                   CESP        PN *       CESP4       010VISTA          000000000024200000000242000000002330000000000000000000239000015399500
0202LOTE PADRAO                   LIGHT       ON *       LIGH3       010VISTA          000000000208000000002099000000020250000000000000000002040000000665600
0202LOTE PADRAO                   TELESP CL PAPN *       TSPP4       010VISTA          000000000015600000000156000000001500000000000000000000152000216352000
0202LOTE PADRAO                   VALE R DOCE PNA        VALE5       010VISTA          000000000049000000000510000000004830000000000000000000506000000042700
0202LOTE PADRAO                   COPEL       PNB*       CPLE6       010VISTA          000000000018500000000185000000001730000000000000000000180000043980300
0202LOTE PADRAO                   VALE R DOCE ON         VALE3       010VISTA          000000000048000000000490000000004800000000000000000000490000000001300
0202LOTE PADRAO                   ARACRUZ     PNB        ARCZ6       010VISTA          000000000002700000000028000000000270000000000000000000028000000095200
0202LOTE PADRAO                   TELEMIG PARTPN *       TMCP4       010VISTA          000000000005790000000058000000000520000000000000000000054000119477000
0202LOTE PADRAO                   BRASIL TELECPN *       BRTO4       010VISTA          000000000013700000000139000000001310000000000000000000134000094536900
0202LOTE PADRAO                   SABESP      ON *       SBSP3       010VISTA          000000000206000000002060000000020000000000000000000002060000000968800
0202LOTE PADRAO                   BRASKEM     PNA*       BRKM5       010VISTA          000000000632000000006600000000063100000000000000000006600000000097700
0202LOTE PADRAO                   EMBRAER     PN EJ      EMBR4       010VISTA          000000000019000000000201000000001900000000000000000000201000000019400
0202LOTE PADRAO                   TELESP      PN * EJ    TLPP4       010VISTA          000000000029200000000294000000002900000000000000000000293000007406900
0202LOTE PADRAO                   EMBRAER     ON EJ      EMBR3       010VISTA          000000000015400000000155000000001510000000000000000000155000000016400
0202LOTE PADRAO                   AMBEV       PN *       AMBV4       010VISTA          000000000505000000005110000000049500000000000000000005110000001678800
0202LOTE PADRAO                   USIMINAS    PNA        USIM5       010VISTA          000000000011000000000110000000001010000000000000000000101000000041700
0202LOTE PADRAO                   ELETROPAULO PN *       ELPL4       010VISTA          000000000092000000000975000000009200000000000000000000970000000984800
0202LOTE PADRAO                   TELE NORD CLPN *       TNEP4       010VISTA          000000000003270000000033000000000310000000000000000000032000076320000
0202LOTE PADRAO                   CEMIG       PN * EJ    CMIG4       010VISTA          000000000029300000000301000000002900000000000000000000293000056235000
0202LOTE PADRAO                   TELE CL SUL PN * EJ    TCSL4       010VISTA          000000000004000000000040000000000390000000000000000000039000127562000
0202LOTE PADRAO                   CEMIG       ON * EJ    CMIG3       010VISTA          000000000024700000000247000000002380000000000000000000239000010305700
0202LOTE PADRAO                   TELE CL SUL ON * EJ    TCSL3       010VISTA          000000000003300000000033000000000320000000000000000000032000011541000
0202LOTE PADRAO                   ITAUSA      PN         ITSA4       010VISTA          000000000001770000000017700000000173000000000000000000017700000288000
0202LOTE PADRAO                   SID TUBARAO PN *       CSTB4       010VISTA          000000000020800000000211000000002080000000000000000000208000010430000
0202LOTE PADRAO                   V C P       PN *       VCPA4       010VISTA          000000000054500000000545000000005300000000000000000000530000000933700
0202LOTE PADRAO                   BRADESPAR   PN *       BRAP4       010VISTA          000000000001000000000010000000000100000000000000000000010000287476000
0202LOTE PADRAO                   NET         PN         PLIM4       010VISTA          000000000001550000000015000000000151000000000000000000015300000872900
0202LOTE PADRAO                   TELE CTR OESPN * EJ    TCOC4       010VISTA          000000000007000000000070000000000650000000000000000000065000077913100
0202LOTE PADRAO                   GERDAU      PN * EJ    GGBR4       010VISTA          000000000019000000000190000000001810000000000000000000186000006991900
0202LOTE PADRAO                   BRASIL      ON *       BBAS3       010VISTA          000000000007400000000075000000000720000000000000000000074000004161000
