00BDIN9999BOVESPA 99992001053020010530
0101IBOVESPA                      0144590143470145790000000000000000002001053000000020010530014489000000
0202LOTE PADRAO                   EMBRATEL PARPN *       EBTP4       010VISTA          000000000019600000000198000000001910000000000000000000193000048384700
0202LOTE PADRAO                   EMBRATEL PARON *       EBTP3       010VISTA          000000000019000000000193000000001860000000000000000000189000027481400
0202LOTE PADRAO                   TRAN PAULISTPN * EJ    TRPL4       010VISTA          000000000005540000000056000000000540000000000000000000055000029324300
0202LOTE PADRAO                   TELEMAR     PN * EJ    TNLP4       010VISTA          000000000037250000000372500000003650000000000000000000368000143608000
0202LOTE PADRAO                   ITAUBANCO   PN * EJ    ITAU4       010VISTA          000000000194000000001975000000019300000000000000000001945000014404300
0202LOTE PADRAO                   TELEMAR     ON * EJ    TNLP3       010VISTA          000000000032500000000332000000003200000000000000000000323000006891400
0202LOTE PADRAO                   SID NACIONALON *       CSNA3       010VISTA          000000000047500000000482000000004720000000000000000000478000008073300
0202LOTE PADRAO                   TELE LEST CLPN *       TLCP4       010VISTA          000000000001980000000019900000000194000000000000000000019700167431000
0202LOTE PADRAO                   IPIRANGA PETPN *       PTIP4       010VISTA          000000000016000000000161000000001600000000000000000000160000002884000
0202LOTE PADRAO                   BRASIL T PARPN *       BRTP4       010VISTA          000000000017800000000185000000001760000000000000000000181000072322900
0202LOTE PADRAO                   BRASIL T PARON *       BRTP3       010VISTA          000000000017200000000181000000001720000000000000000000178000010763500
0202LOTE PADRAO                   ACESITA     PN *       ACES4       010VISTA          000000000000660000000006800000000065000000000000000000006700328690000
0202LOTE PADRAO                   PETROBRAS   PN         PETR4       010VISTA          000000000057700000000584000000005700000000000000000000582000000056100
0202LOTE PADRAO                   ELETROBRAS  PNB*       ELET6       010VISTA          000000000024600000000255000000002450000000000000000000248000126047000
0202LOTE PADRAO                   PETROBRAS   ON         PETR3       010VISTA          000000000064000000000650000000006400000000000000000000646000000063600
0202LOTE PADRAO                   COMGAS      PNA*       CGAS5       010VISTA          000000000157500000001575000000015100000000000000000001544000012850100
0202LOTE PADRAO                   SOUZA CRUZ  ON EJ      CRUZ3       010VISTA          000000000011500000000116000000001140000000000000000000116000000005200
0202LOTE PADRAO                   CELESC      PNB        CLSC6       010VISTA          000000000000440000000004400000000043000000000000000000004300000270900
0202LOTE PADRAO                   ELETROBRAS  ON *       ELET3       010VISTA          000000000027500000000290000000002750000000000000000000288000035126600
0202LOTE PADRAO                   BRADESCO    PN * EJ    BBDC4       010VISTA          000000000011800000000121000000001180000000000000000000119000186757000
0202LOTE PADRAO                   CESP        PN *       CESP4       010VISTA          000000000014600000000153000000001450000000000000000000148000019227300
0202LOTE PADRAO                   LIGHT       ON *       LIGH3       010VISTA          000000000138900000001389000000013050000000000000000001369000000156000
0202LOTE PADRAO                   TELESP CL PAPN *       TSPP4       010VISTA          000000000016800000000168000000001660000000000000000000166000072074100
0202LOTE PADRAO                   VALE R DOCE PNA        VALE5       010VISTA          000000000057200000000576000000005620000000000000000000562000000023800
0202LOTE PADRAO                   COPEL       PNB*       CPLE6       010VISTA          000000000015500000000165000000001550000000000000000000158000037972800
0202LOTE PADRAO                   VALE R DOCE ON         VALE3       010VISTA          000000000051600000000520000000005120000000000000000000520000000003000
0202LOTE PADRAO                   ARACRUZ     PNB        ARCZ6       010VISTA          000000000003900000000040000000000390000000000000000000039600000109700
0202LOTE PADRAO                   TELEMIG PARTPN *       TMCP4       010VISTA          000000000005200000000052000000000500000000000000000000050000077300200
0202LOTE PADRAO                   BRASIL TELECPN *       BRTO4       010VISTA          000000000011900000000126000000001180000000000000000000124000086233900
0202LOTE PADRAO                   SABESP      ON *       SBSP3       010VISTA          000000000161000000001642000000016000000000000000000001609000000731500
0202LOTE PADRAO                   BRASKEM     PNA*       BRKM5       010VISTA          000000000516000000005169000000051000000000000000000005120000000075800
0202LOTE PADRAO                   EMBRAER     PN EJ      EMBR4       010VISTA          000000000024300000000244000000002410000000000000000000243000000011300
0202LOTE PADRAO                   TELESP      PN * EJ    TLPP4       010VISTA          000000000029600000000298000000002910000000000000000000298000006105300
0202LOTE PADRAO                   EMBRAER     ON EJ      EMBR3       010VISTA          000000000019000000000190000000001810000000000000000000183000000015500
0202LOTE PADRAO                   AMBEV       PN *       AMBV4       010VISTA          000000000530000000005335000000052000000000000000000005240000003089700
0202LOTE PADRAO                   USIMINAS    PNA        USIM5       010VISTA          000000000005900000000064000000000590000000000000000000064000000122800
0202LOTE PADRAO                   ELETROPAULO PN *       ELPL4       010VISTA          000000000065500000000660000000006450000000000000000000649000006519600
0202LOTE PADRAO                   TELE NORD CLPN *       TNEP4       010VISTA          000000000004000000000040000000000380000000000000000000039600103055000
0202LOTE PADRAO                   CEMIG       PN * EJ    CMIG4       010VISTA          000000000022000000000228000000002200000000000000000000223000040740100
0202LOTE PADRAO                   TELE CL SUL PN * EJ    TCSL4       010VISTA          000000000004700000000049000000000470000000000000000000047000070474500
0202LOTE PADRAO                   CEMIG       ON * EJ    CMIG3       010VISTA          000000000023000000000233000000002220000000000000000000231000001000000
0202LOTE PADRAO                   TELE CL SUL ON * EJ    TCSL3       010VISTA          000000000004000000000041000000000400000000000000000000040000051159400
0202LOTE PADRAO                   ITAUSA      PN         ITSA4       010VISTA          000000000002000000000020000000000200000000000000000000020000000316200
0202LOTE PADRAO                   SID TUBARAO PN *       CSTB4       010VISTA          000000000025000000000254000000002430000000000000000000253000005587800
0202LOTE PADRAO                   V C P       PN *       VCPA4       010VISTA          000000000060000000000610000000006000000000000000000000606000004225700
0202LOTE PADRAO                   BRADESPAR   PN *       BRAP4       010VISTA          000000000000820000000008500000000082000000000000000000008500185864000
0202LOTE PADRAO                   NET         PN         PLIM4       010VISTA          000000000000830000000008600000000080000000000000000000008300001306500
0202LOTE PADRAO                   TELE CTR OESPN * EJ    TCOC4       010VISTA          000000000006700000000068000000000650000000000000000000067000047803600
0202LOTE PADRAO                   GERDAU      PN * EJ    GGBR4       010VISTA          000000000015600000000161000000001550000000000000000000160000011968400
0202LOTE PADRAO                   BRASIL      ON *       BBAS3       010VISTA          000000000007800000000079000000000770000000000000000000079000003821200
