00BDIN9999BOVESPA 99992001042520010425
0101IBOVESPA                      0140620137850142230000000000000000002001042500000020010425014163000000
0202LOTE PADRAO                   EMBRATEL PARPN *       EBTP4       010VISTA          000000000020000000000200000000001900000000000000000000190000228461000
0202LOTE PADRAO                   EMBRATEL PARON *       EBTP3       010VISTA          000000000017800000000188000000001740000000000000000000174000071995300
0202LOTE PADRAO                   TRAN PAULISTPN * EJ    TRPL4       010VISTA          000000000007100000000072000000000680000000000000000000069000019646600
0202LOTE PADRAO                   TELEMAR     PN * EJ    TNLP4       010VISTA          000000000033000000000354000000003270000000000000000000352000248725000
0202LOTE PADRAO                   ITAUBANCO   PN * EJ    ITAU4       010VISTA          000000000157000000001600000000015700000000000000000001595000003553700
0202LOTE PADRAO                   TELEMAR     ON * EJ    TNLP3       010VISTA          000000000030000000000315000000002960000000000000000000315000033605700
0202LOTE PADRAO                   SID NACIONALON *       CSNA3       010VISTA          000000000049000000000495000000004860000000000000000000488000016492800
0202LOTE PADRAO                   TELE LEST CLPN *       TLCP4       010VISTA          000000000001560000000015000000000151000000000000000000015000174170000
0202LOTE PADRAO                   IPIRANGA PETPN *       PTIP4       010VISTA          000000000015500000000160000000001550000000000000000000160000001208100
0202LOTE PADRAO                   BRASIL T PARPN *       BRTP4       010VISTA          000000000017600000000186000000001710000000000000000000184000081608700
0202LOTE PADRAO                   BRASIL T PARON *       BRTP3       010VISTA          000000000017500000000186000000001750000000000000000000185000019690200
0202LOTE PADRAO                   ACESITA     PN *       ACES4       010VISTA          000000000000860000000008700000000080000000000000000000008100302000000
0202LOTE PADRAO                   PETROBRAS   PN         PETR4       010VISTA          000000000051300000000535000000005100000000000000000000530000000195100
0202LOTE PADRAO                   ELETROBRAS  PNB*       ELET6       010VISTA          000000000030600000000321000000003000000000000000000000317000037214300
0202LOTE PADRAO                   PETROBRAS   ON         PETR3       010VISTA          000000000056000000000595000000005600000000000000000000590000000077600
0202LOTE PADRAO                   COMGAS      PNA*       CGAS5       010VISTA          000000000118600000001225000000011400000000000000000001219000004261700
0202LOTE PADRAO                   SOUZA CRUZ  ON EJ      CRUZ3       010VISTA          000000000010600000000108000000001030000000000000000000106000000019500
0202LOTE PADRAO                   CELESC      PNB        CLSC6       010VISTA          000000000000500000000005000000000048000000000000000000004800000336500
0202LOTE PADRAO                   ELETROBRAS  ON *       ELET3       010VISTA          000000000035000000000365000000003310000000000000000000358000015502900
0202LOTE PADRAO                   BRADESCO    PN * EJ    BBDC4       010VISTA          000000000010600000000111000000001050000000000000000000111000121542000
0202LOTE PADRAO                   CESP        PN *       CESP4       010VISTA          000000000016750000000180000000001650000000000000000000176000023135300
0202LOTE PADRAO                   LIGHT       ON *       LIGH3       010VISTA          000000000151000000001565000000015000000000000000000001510000000574000
0202LOTE PADRAO                   TELESP CL PAPN *       TSPP4       010VISTA          000000000013300000000137500000001280000000000000000000135000089564900
0202LOTE PADRAO                   VALE R DOCE PNA        VALE5       010VISTA          000000000050000000000522000000005000000000000000000000513000000017600
0202LOTE PADRAO                   COPEL       PNB*       CPLE6       010VISTA          000000000015300000000160000000001530000000000000000000157500037838000
0202LOTE PADRAO                   VALE R DOCE ON         VALE3       010VISTA          000000000048400000000485000000004820000000000000000000483000000000200
0202LOTE PADRAO                   ARACRUZ     PNB        ARCZ6       010VISTA          000000000003000000000031000000000298000000000000000000031000000109900
0202LOTE PADRAO                   TELEMIG PARTPN *       TMCP4       010VISTA          000000000003940000000042000000000380000000000000000000041000176036000
0202LOTE PADRAO                   BRASIL TELECPN *       BRTO4       010VISTA          000000000011700000000126000000001160000000000000000000125000092247700
0202LOTE PADRAO                   SABESP      ON *       SBSP3       010VISTA          000000000178000000001800000000017550000000000000000001755000002159300
0202LOTE PADRAO                   BRASKEM     PNA*       BRKM5       010VISTA          000000000550000000005500000000053000000000000000000005400000000696000
0202LOTE PADRAO                   EMBRAER     PN EJ      EMBR4       010VISTA          000000000023100000000239000000002310000000000000000000239000000016700
0202LOTE PADRAO                   TELESP      PN * EJ    TLPP4       010VISTA          000000000029600000000296000000002810000000000000000000291000009468100
0202LOTE PADRAO                   EMBRAER     ON EJ      EMBR3       010VISTA          000000000017600000000182000000001750000000000000000000182500000045400
0202LOTE PADRAO                   AMBEV       PN *       AMBV4       010VISTA          000000000473500000004985000000047350000000000000000004985000000813100
0202LOTE PADRAO                   USIMINAS    PNA        USIM5       010VISTA          000000000008300000000085000000000810000000000000000000084000000048700
0202LOTE PADRAO                   ELETROPAULO PN *       ELPL4       010VISTA          000000000060500000000610000000005810000000000000000000610000002511900
0202LOTE PADRAO                   TELE NORD CLPN *       TNEP4       010VISTA          000000000003000000000030000000000280000000000000000000030000158929000
0202LOTE PADRAO                   CEMIG       PN * EJ    CMIG4       010VISTA          000000000025300000000260000000002530000000000000000000256000066310400
0202LOTE PADRAO                   TELE CL SUL PN * EJ    TCSL4       010VISTA          000000000003800000000041000000000380000000000000000000040000087285000
0202LOTE PADRAO                   CEMIG       ON * EJ    CMIG3       010VISTA          000000000024900000000257000000002480000000000000000000251000001537900
0202LOTE PADRAO                   TELE CL SUL ON * EJ    TCSL3       010VISTA          000000000003300000000035000000000330000000000000000000034000019608100
0202LOTE PADRAO                   ITAUSA      PN         ITSA4       010VISTA          000000000001750000000017700000000175000000000000000000017600000328800
0202LOTE PADRAO                   SID TUBARAO PN *       CSTB4       010VISTA          000000000021100000000211000000002050000000000000000000208000007191400
0202LOTE PADRAO                   V C P       PN *       VCPA4       010VISTA          000000000055700000000574000000005570000000000000000000574000001361000
0202LOTE PADRAO                   BRADESPAR   PN *       BRAP4       010VISTA          000000000000900000000009000000000087000000000000000000008700339958000
0202LOTE PADRAO                   NET         PN         PLIM4       010VISTA          000000000001000000000011000000000100000000000000000000010000001080000
0202LOTE PADRAO                   TELE CTR OESPN * EJ    TCOC4       010VISTA          000000000005100000000055000000000500000000000000000000055000100448000
0202LOTE PADRAO                   GERDAU      PN * EJ    GGBR4       010VISTA          000000000018300000000186000000001830000000000000000000185000003938500
0202LOTE PADRAO                   BRASIL      ON *       BBAS3       010VISTA          000000000008400000000090000000000830000000000000000000088000011806200
