00BDIN9999BOVESPA 99992001100420011004
0101IBOVESPA                      0102410100260103290000000000000000002001100400000020011004010062000000
0202LOTE PADRAO                   EMBRATEL PARPN *       EBTP4       010VISTA          000000000007200000000073000000000660000000000000000000066000131612000
0202LOTE PADRAO                   EMBRATEL PARON *       EBTP3       010VISTA          000000000007600000000079000000000710000000000000000000072000035139300
0202LOTE PADRAO                   TRAN PAULISTPN * EJ    TRPL4       010VISTA          000000000004100000000041000000000380000000000000000000039000013122100
0202LOTE PADRAO                   TELEMAR     PN * EJ    TNLP4       010VISTA          000000000023500000000239000000002230000000000000000000226000344853000
0202LOTE PADRAO                   ITAUBANCO   PN * EJ    ITAU4       010VISTA          000000000158000000001600000000015750000000000000000001588000009489700
0202LOTE PADRAO                   TELEMAR     ON * EJ    TNLP3       010VISTA          000000000020500000000213000000002000000000000000000000200000009144100
0202LOTE PADRAO                   SID NACIONALON *       CSNA3       010VISTA          000000000025300000000268000000002530000000000000000000268000012943500
0202LOTE PADRAO                   TELE LEST CLPN *       TLCP4       010VISTA          000000000000620000000006300000000061000000000000000000006100096714700
0202LOTE PADRAO                   CRT CELULAR PNA* EJ    CRTP5       010VISTA          000000000328000000003410000000032800000000000000000003320000000999400
0202LOTE PADRAO                   IPIRANGA PETPN *       PTIP4       010VISTA          000000000011100000000111000000001075000000000000000000107500000840000
0202LOTE PADRAO                   BRASIL T PARPN *       BRTP4       010VISTA          000000000014800000000148000000001390000000000000000000140000088503600
0202LOTE PADRAO                   BRASIL T PARON *       BRTP3       010VISTA          000000000014000000000140000000001290000000000000000000129000020061200
0202LOTE PADRAO                   ACESITA     PN *       ACES4       010VISTA          000000000000410000000004200000000040000000000000000000004000202507000
0202LOTE PADRAO                   PETROBRAS   PN         PETR4       010VISTA          000000000049600000000507000000004960000000000000000000502000000119600
0202LOTE PADRAO                   ELETROBRAS  PNB*       ELET6       010VISTA          000000000026100000000266000000002550000000000000000000259000045656900
0202LOTE PADRAO                   PETROBRAS   ON         PETR3       010VISTA          000000000051200000000525000000005120000000000000000000520000000053400
0202LOTE PADRAO                   COMGAS      PNA*       CGAS5       010VISTA          000000000076000000000770000000007300000000000000000000740000001585100
0202LOTE PADRAO                   SOUZA CRUZ  ON EJ      CRUZ3       010VISTA          000000000010700000000110000000001060000000000000000000110000000016100
0202LOTE PADRAO                   ELETROBRAS  ON *       ELET3       010VISTA          000000000028100000000285000000002700000000000000000000283000018096700
0202LOTE PADRAO                   CELESC      PNB        CLSC6       010VISTA          000000000000340000000003600000000034000000000000000000003600000155300
0202LOTE PADRAO                   BRADESCO    PN * EJ    BBDC4       010VISTA          000000000010400000000105000000001010000000000000000000101000112146000
0202LOTE PADRAO                   CESP        PN *       CESP4       010VISTA          000000000007100000000075000000000700000000000000000000074000010855000
0202LOTE PADRAO                   LIGHT       ON *       LIGH3       010VISTA          000000000072000000000725000000007170000000000000000000720000002021400
0202LOTE PADRAO                   TELESP CL PAPN *       TSPP4       010VISTA          000000000005400000000055000000000500000000000000000000052000163052000
0202LOTE PADRAO                   VALE R DOCE PNA        VALE5       010VISTA          000000000053000000000532000000005130000000000000000000517000000048600
0202LOTE PADRAO                   COPEL       PNB*       CPLE6       010VISTA          000000000014100000000145000000001410000000000000000000143000085247100
0202LOTE PADRAO                   VALE R DOCE ON         VALE3       010VISTA          000000000051300000000515000000005080000000000000000000508000000009200
0202LOTE PADRAO                   ARACRUZ     PNB        ARCZ6       010VISTA          000000000003800000000044000000000380000000000000000000042000000056100
0202LOTE PADRAO                   TELEMIG PARTPN *       TMCP4       010VISTA          000000000002800000000030000000000280000000000000000000030000064684500
0202LOTE PADRAO                   BRASIL TELECPN *       BRTO4       010VISTA          000000000010100000000101000000000950000000000000000000096000080247100
0202LOTE PADRAO                   SABESP      ON *       SBSP3       010VISTA          000000000098100000000995000000009690000000000000000000980000001516500
0202LOTE PADRAO                   BRASKEM     PNA*       BRKM5       010VISTA          000000000332000000003370000000033200000000000000000003345000000178900
0202LOTE PADRAO                   EMBRAER     PN EJ      EMBR4       010VISTA          000000000008100000000091000000000810000000000000000000086000000196100
0202LOTE PADRAO                   TELESP      PN * EJ    TLPP4       010VISTA          000000000021800000000220000000002150000000000000000000215000014322900
0202LOTE PADRAO                   EMBRAER     ON EJ      EMBR3       010VISTA          000000000007100000000075000000000710000000000000000000071000000055700
0202LOTE PADRAO                   AMBEV       PN *       AMBV4       010VISTA          000000000410000000004200000000041000000000000000000004110000002886100
0202LOTE PADRAO                   USIMINAS    PNA        USIM5       010VISTA          000000000003800000000039400000000370000000000000000000038000000055000
0202LOTE PADRAO                   ELETROPAULO PN *       ELPL4       010VISTA          000000000056300000000580000000005500000000000000000000550000004424600
0202LOTE PADRAO                   TELE NORD CLPN *       TNEP4       010VISTA          000000000002300000000023000000000220000000000000000000023000080158100
0202LOTE PADRAO                   CEMIG       PN * EJ    CMIG4       010VISTA          000000000023750000000238000000002300000000000000000000238000046413100
0202LOTE PADRAO                   TELE CL SUL PN * EJ    TCSL4       010VISTA          000000000002700000000027000000000260000000000000000000026000047881400
0202LOTE PADRAO                   CEMIG       ON * EJ    CMIG3       010VISTA          000000000023100000000232000000002200000000000000000000226000000572700
0202LOTE PADRAO                   TELE CL SUL ON * EJ    TCSL3       010VISTA          000000000002200000000023000000000220000000000000000000022000024111200
0202LOTE PADRAO                   ITAUSA      PN         ITSA4       010VISTA          000000000001720000000017400000000171000000000000000000017100000486000
0202LOTE PADRAO                   SID TUBARAO PN *       CSTB4       010VISTA          000000000013600000000136000000001330000000000000000000135000005042400
0202LOTE PADRAO                   V C P       PN *       VCPA4       010VISTA          000000000068100000000681000000006650000000000000000000670000001821100
0202LOTE PADRAO                   BRADESPAR   PN *       BRAP4       010VISTA          000000000000490000000005000000000048000000000000000000004800112236000
0202LOTE PADRAO                   NET         PN         PLIM4       010VISTA          000000000000580000000006100000000056000000000000000000005700002048300
0202LOTE PADRAO                   TELE CTR OESPN * EJ    TCOC4       010VISTA          000000000004500000000045000000000440000000000000000000045000087114600
0202LOTE PADRAO                   GERDAU      PN * EJ    GGBR4       010VISTA          000000000013800000000141000000001350000000000000000000138000010484200
0202LOTE PADRAO                   BRASIL      ON *       BBAS3       010VISTA          000000000007000000000071000000000680000000000000000000070000006158000
