00BDIN9999BOVESPA 99992001031920010319
0101IBOVESPA                      0152490148020153780000000000000000002001031900000020010319014836000000
0202LOTE PADRAO                   EMBRATEL PARPN *       EBTP4       010VISTA          000000000025800000000258000000002480000000000000000000250000048176500
0202LOTE PADRAO                   EMBRATEL PARON *       EBTP3       010VISTA          000000000020200000000203000000001950000000000000000000198000014368200
0202LOTE PADRAO                   TRAN PAULISTPN * EJ    TRPL4       010VISTA          000000000008250000000084000000000770000000000000000000079000012119900
0202LOTE PADRAO                   TELEMAR     PN * EJ    TNLP4       010VISTA          000000000040300000000405000000003810000000000000000000381000213161000
0202LOTE PADRAO                   ITAUBANCO   PN * EJ    ITAU4       010VISTA          000000000161000000001615000000015400000000000000000001580000014419900
0202LOTE PADRAO                   TELEMAR     ON * EJ    TNLP3       010VISTA          000000000030000000000301000000002860000000000000000000290000008658300
0202LOTE PADRAO                   SID NACIONALON *       CSNA3       010VISTA          000000000047200000000472000000004500000000000000000000462000010736400
0202LOTE PADRAO                   TELE LEST CLPN *       TLCP4       010VISTA          000000000001700000000017200000000160000000000000000000016000060904700
0202LOTE PADRAO                   CRT CELULAR PNA* EJ    CRTP5       010VISTA          000000000925000000009350000000090100000000000000000009120000000348300
0202LOTE PADRAO                   IPIRANGA PETPN *       PTIP4       010VISTA          000000000015500000000155000000001500000000000000000000152000002256200
0202LOTE PADRAO                   BRASIL T PARPN *       BRTP4       010VISTA          000000000019800000000198000000001850000000000000000000185000082713900
0202LOTE PADRAO                   BRASIL T PARON *       BRTP3       010VISTA          000000000016300000000165000000001550000000000000000000155000005579200
0202LOTE PADRAO                   ACESITA     PN *       ACES4       010VISTA          000000000001000000000010000000000100000000000000000000010000054178900
0202LOTE PADRAO                   PETROBRAS   PN         PETR4       010VISTA          000000000051600000000517000000005000000000000000000000510000000097800
0202LOTE PADRAO                   ELETROBRAS  PNB*       ELET6       010VISTA          000000000038700000000388000000003700000000000000000000372000031308400
0202LOTE PADRAO                   PETROBRAS   ON         PETR3       010VISTA          000000000055200000000557000000005420000000000000000000545000000043300
0202LOTE PADRAO                   COMGAS      PNA*       CGAS5       010VISTA          000000000169900000001699000000015800000000000000000001620000001078700
0202LOTE PADRAO                   SOUZA CRUZ  ON EJ      CRUZ3       010VISTA          000000000010100000000101000000000990000000000000000000100000000013600
0202LOTE PADRAO                   ELETROBRAS  ON *       ELET3       010VISTA          000000000043250000000432500000003900000000000000000000400000011214500
0202LOTE PADRAO                   CELESC      PNB        CLSC6       010VISTA          000000000000610000000006100000000058000000000000000000005800000277500
0202LOTE PADRAO                   BRADESCO    PN * EJ    BBDC4       010VISTA          000000000011300000000113000000001060000000000000000000106000211982000
0202LOTE PADRAO                   CESP        PN *       CESP4       010VISTA          000000000024600000000246000000002325000000000000000000233000005162600
0202LOTE PADRAO                   LIGHT       ON *       LIGH3       010VISTA          000000000208000000002080000000020300000000000000000002040000000144200
0202LOTE PADRAO                   TELESP CL PAPN *       TSPP4       010VISTA          000000000015600000000156000000001475000000000000000000148000100081000
0202LOTE PADRAO                   VALE R DOCE PNA        VALE5       010VISTA          000000000049800000000500000000004900000000000000000000495000000023100
0202LOTE PADRAO                   COPEL       PNB*       CPLE6       010VISTA          000000000018400000000184000000001780000000000000000000179000007883200
0202LOTE PADRAO                   VALE R DOCE ON         VALE3       010VISTA          000000000049000000000494000000004700000000000000000000470000000001300
0202LOTE PADRAO                   ARACRUZ     PNB        ARCZ6       010VISTA          000000000002700000000028000000000270000000000000000000027000000027800
0202LOTE PADRAO                   TELEMIG PARTPN *       TMCP4       010VISTA          000000000005500000000055000000000500000000000000000000050000086945600
0202LOTE PADRAO                   BRASIL TELECPN *       BRTO4       010VISTA          000000000013750000000137000000001290000000000000000000129000035088000
0202LOTE PADRAO                   SABESP      ON *       SBSP3       010VISTA          000000000200000000002000000000019000000000000000000001925000000467300
0202LOTE PADRAO                   BRASKEM     PNA*       BRKM5       010VISTA          000000000632000000006350000000062100000000000000000006300000000033700
0202LOTE PADRAO                   EMBRAER     PN EJ      EMBR4       010VISTA          000000000020900000000209000000002000000000000000000000206000000021900
0202LOTE PADRAO                   TELESP      PN * EJ    TLPP4       010VISTA          000000000029300000000295000000002860000000000000000000290000007511600
0202LOTE PADRAO                   EMBRAER     ON EJ      EMBR3       010VISTA          000000000015900000000159000000001530000000000000000000158000000014600
0202LOTE PADRAO                   AMBEV       PN *       AMBV4       010VISTA          000000000525100000005300000000050700000000000000000005105000000858800
0202LOTE PADRAO                   USIMINAS    PNA        USIM5       010VISTA          000000000010250000000102500000000980000000000000000000100000000016500
0202LOTE PADRAO                   ELETROPAULO PN *       ELPL4       010VISTA          000000000098900000000989000000009000000000000000000000970000001449200
0202LOTE PADRAO                   TELE NORD CLPN *       TNEP4       010VISTA          000000000003270000000032700000000300000000000000000000030000054134200
0202LOTE PADRAO                   CEMIG       PN * EJ    CMIG4       010VISTA          000000000029700000000298000000002780000000000000000000280000027119500
0202LOTE PADRAO                   TELE CL SUL PN * EJ    TCSL4       010VISTA          000000000003980000000040000000000360000000000000000000037000143263000
0202LOTE PADRAO                   CEMIG       ON * EJ    CMIG3       010VISTA          000000000024300000000245000000002220000000000000000000238000002481500
0202LOTE PADRAO                   TELE CL SUL ON * EJ    TCSL3       010VISTA          000000000003200000000032000000000300000000000000000000030000011163900
0202LOTE PADRAO                   ITAUSA      PN         ITSA4       010VISTA          000000000001770000000017700000000160000000000000000000016900000316400
0202LOTE PADRAO                   SID TUBARAO PN *       CSTB4       010VISTA          000000000020800000000210000000002010000000000000000000210000004812700
0202LOTE PADRAO                   V C P       PN *       VCPA4       010VISTA          000000000052500000000540000000005250000000000000000000540000001559200
0202LOTE PADRAO                   BRADESPAR   PN *       BRAP4       010VISTA          000000000001000000000010000000000099000000000000000000010000160597000
0202LOTE PADRAO                   NET         PN         PLIM4       010VISTA          000000000001500000000016000000000152000000000000000000015400000666800
0202LOTE PADRAO                   TELE CTR OESPN * EJ    TCOC4       010VISTA          000000000006700000000067000000000630000000000000000000065000061494700
0202LOTE PADRAO                   GERDAU      PN * EJ    GGBR4       010VISTA          000000000019200000000192000000001830000000000000000000183000005763800
0202LOTE PADRAO                   BRASIL      ON *       BBAS3       010VISTA          000000000007300000000075000000000725000000000000000000075000000773000
