00BDIN9999BOVESPA 99992001042020010420
0101IBOVESPA                      0144080136180144080000000000000000002001042000000020010420013696000000
0202LOTE PADRAO                   EMBRATEL PARPN *       EBTP4       010VISTA          000000000021300000000215000000002060000000000000000000208000078010300
0202LOTE PADRAO                   EMBRATEL PARON *       EBTP3       010VISTA          000000000020100000000201000000001860000000000000000000190000037432200
0202LOTE PADRAO                   TRAN PAULISTPN * EJ    TRPL4       010VISTA          000000000007500000000075000000000700000000000000000000070000016181000
0202LOTE PADRAO                   TELEMAR     PN * EJ    TNLP4       010VISTA          000000000033900000000342000000003200000000000000000000322000526005000
0202LOTE PADRAO                   ITAUBANCO   PN * EJ    ITAU4       010VISTA          000000000167900000001679000000015200000000000000000001560000026423300
0202LOTE PADRAO                   TELEMAR     ON * EJ    TNLP3       010VISTA          000000000031100000000311000000002880000000000000000000288000050241000
0202LOTE PADRAO                   SID NACIONALON *       CSNA3       010VISTA          000000000046500000000469000000004600000000000000000000462000010758000
0202LOTE PADRAO                   TELE LEST CLPN *       TLCP4       010VISTA          000000000001600000000016000000000150000000000000000000015000079727400
0202LOTE PADRAO                   IPIRANGA PETPN *       PTIP4       010VISTA          000000000015500000000155000000001550000000000000000000155000001460000
0202LOTE PADRAO                   BRASIL T PARPN *       BRTP4       010VISTA          000000000017300000000173000000001610000000000000000000163000125341000
0202LOTE PADRAO                   BRASIL T PARON *       BRTP3       010VISTA          000000000016900000000179000000001690000000000000000000172000029051500
0202LOTE PADRAO                   ACESITA     PN *       ACES4       010VISTA          000000000000880000000008800000000085000000000000000000008600181952000
0202LOTE PADRAO                   PETROBRAS   PN         PETR4       010VISTA          000000000048600000000491000000004750000000000000000000482000000108600
0202LOTE PADRAO                   ELETROBRAS  PNB*       ELET6       010VISTA          000000000032200000000322000000002950000000000000000000303000074768400
0202LOTE PADRAO                   PETROBRAS   ON         PETR3       010VISTA          000000000052600000000535000000005200000000000000000000525000000043500
0202LOTE PADRAO                   COMGAS      PNA*       CGAS5       010VISTA          000000000141800000001418000000011900000000000000000001265000004129200
0202LOTE PADRAO                   SOUZA CRUZ  ON EJ      CRUZ3       010VISTA          000000000011000000000110000000001060000000000000000000106000000027400
0202LOTE PADRAO                   CELESC      PNB        CLSC6       010VISTA          000000000000520000000005200000000050000000000000000000005100000434500
0202LOTE PADRAO                   ELETROBRAS  ON *       ELET3       010VISTA          000000000034000000000342000000003300000000000000000000332500031825600
0202LOTE PADRAO                   BRADESCO    PN * EJ    BBDC4       010VISTA          000000000010700000000114000000001050000000000000000000105000412670000
0202LOTE PADRAO                   CESP        PN *       CESP4       010VISTA          000000000019300000000193000000001760000000000000000000177000019386100
0202LOTE PADRAO                   LIGHT       ON *       LIGH3       010VISTA          000000000163000000001650000000015600000000000000000001575000000741600
0202LOTE PADRAO                   TELESP CL PAPN *       TSPP4       010VISTA          000000000013400000000134000000001260000000000000000000128000107724000
0202LOTE PADRAO                   VALE R DOCE PNA        VALE5       010VISTA          000000000049500000000513000000004910000000000000000000510000000069400
0202LOTE PADRAO                   COPEL       PNB*       CPLE6       010VISTA          000000000016000000000160000000001450000000000000000000155000051302400
0202LOTE PADRAO                   VALE R DOCE ON         VALE3       010VISTA          000000000048000000000480000000004700000000000000000000479000000000100
0202LOTE PADRAO                   ARACRUZ     PNB        ARCZ6       010VISTA          000000000002800000000031000000000277000000000000000000030000000538900
0202LOTE PADRAO                   TELEMIG PARTPN *       TMCP4       010VISTA          000000000004100000000041000000000375000000000000000000038000183319000
0202LOTE PADRAO                   BRASIL TELECPN *       BRTO4       010VISTA          000000000012300000000123000000001150000000000000000000118000033219500
0202LOTE PADRAO                   SABESP      ON *       SBSP3       010VISTA          000000000184500000001845000000017600000000000000000001800000002525800
0202LOTE PADRAO                   BRASKEM     PNA*       BRKM5       010VISTA          000000000568000000005700000000055100000000000000000005600000000110200
0202LOTE PADRAO                   EMBRAER     PN EJ      EMBR4       010VISTA          000000000021500000000225000000002140000000000000000000223000000022800
0202LOTE PADRAO                   TELESP      PN * EJ    TLPP4       010VISTA          000000000028300000000288000000002750000000000000000000281000004891100
0202LOTE PADRAO                   EMBRAER     ON EJ      EMBR3       010VISTA          000000000017000000000173000000001680000000000000000000170000000032500
0202LOTE PADRAO                   AMBEV       PN *       AMBV4       010VISTA          000000000498000000004980000000046630000000000000000004750000002428400
0202LOTE PADRAO                   USIMINAS    PNA        USIM5       010VISTA          000000000008900000000089000000000850000000000000000000085000000051700
0202LOTE PADRAO                   ELETROPAULO PN *       ELPL4       010VISTA          000000000073000000000730000000006700000000000000000000670000001315600
0202LOTE PADRAO                   TELE NORD CLPN *       TNEP4       010VISTA          000000000003000000000030000000000280000000000000000000028000064973500
0202LOTE PADRAO                   CEMIG       PN * EJ    CMIG4       010VISTA          000000000026500000000265000000002550000000000000000000256000051701200
0202LOTE PADRAO                   TELE CL SUL PN * EJ    TCSL4       010VISTA          000000000004300000000043000000000400000000000000000000040000107887000
0202LOTE PADRAO                   CEMIG       ON * EJ    CMIG3       010VISTA          000000000025000000000251000000002430000000000000000000251000003422000
0202LOTE PADRAO                   TELE CL SUL ON * EJ    TCSL3       010VISTA          000000000003810000000038100000000352000000000000000000035200038979700
0202LOTE PADRAO                   ITAUSA      PN         ITSA4       010VISTA          000000000001800000000018000000000169000000000000000000017000001114900
0202LOTE PADRAO                   SID TUBARAO PN *       CSTB4       010VISTA          000000000020500000000220000000002050000000000000000000215000007321000
0202LOTE PADRAO                   V C P       PN *       VCPA4       010VISTA          000000000054000000000560000000005400000000000000000000555000010011000
0202LOTE PADRAO                   BRADESPAR   PN *       BRAP4       010VISTA          000000000000960000000009600000000090000000000000000000009200405847000
0202LOTE PADRAO                   NET         PN         PLIM4       010VISTA          000000000001200000000012400000000110000000000000000000012000001406100
0202LOTE PADRAO                   TELE CTR OESPN * EJ    TCOC4       010VISTA          000000000005500000000055000000000510000000000000000000053000170161000
0202LOTE PADRAO                   GERDAU      PN * EJ    GGBR4       010VISTA          000000000019000000000190000000001830000000000000000000183000006170900
0202LOTE PADRAO                   BRASIL      ON *       BBAS3       010VISTA          000000000008300000000085000000000800000000000000000000080000008353300
