00BDIN9999BOVESPA 99992001040320010403
0101IBOVESPA                      0139880136640140010000000000000000002001040300000020010403013737000000
0202LOTE PADRAO                   EMBRATEL PARPN *       EBTP4       010VISTA          000000000019000000000192000000001850000000000000000000190000084721000
0202LOTE PADRAO                   EMBRATEL PARON *       EBTP3       010VISTA          000000000017800000000178000000001710000000000000000000173000050489800
0202LOTE PADRAO                   TRAN PAULISTPN * EJ    TRPL4       010VISTA          000000000007100000000072500000000680000000000000000000071000012732000
0202LOTE PADRAO                   TELEMAR     PN * EJ    TNLP4       010VISTA          000000000033300000000335000000003210000000000000000000322000304712000
0202LOTE PADRAO                   ITAUBANCO   PN * EJ    ITAU4       010VISTA          000000000160000000001600000000015200000000000000000001560000007743100
0202LOTE PADRAO                   TELEMAR     ON * EJ    TNLP3       010VISTA          000000000029300000000293000000002720000000000000000000283000020056200
0202LOTE PADRAO                   SID NACIONALON *       CSNA3       010VISTA          000000000045500000000455000000004500000000000000000000452000008936200
0202LOTE PADRAO                   TELE LEST CLPN *       TLCP4       010VISTA          000000000001470000000014900000000140000000000000000000014000021524500
0202LOTE PADRAO                   IPIRANGA PETPN *       PTIP4       010VISTA          000000000016000000000164000000001580000000000000000000159000004812000
0202LOTE PADRAO                   BRASIL T PARPN *       BRTP4       010VISTA          000000000016500000000170000000001600000000000000000000168000032556800
0202LOTE PADRAO                   BRASIL T PARON *       BRTP3       010VISTA          000000000017100000000178000000001700000000000000000000178000013576900
0202LOTE PADRAO                   ACESITA     PN *       ACES4       010VISTA          000000000000930000000009400000000091000000000000000000009200057010000
0202LOTE PADRAO                   PETROBRAS   PN         PETR4       010VISTA          000000000045100000000452000000004460000000000000000000449000000065700
0202LOTE PADRAO                   ELETROBRAS  PNB*       ELET6       010VISTA          000000000038000000000381000000003700000000000000000000372000024596800
0202LOTE PADRAO                   PETROBRAS   ON         PETR3       010VISTA          000000000049200000000497000000004920000000000000000000495000000021100
0202LOTE PADRAO                   COMGAS      PNA*       CGAS5       010VISTA          000000000167000000001670000000016000000000000000000001660000003725100
0202LOTE PADRAO                   SOUZA CRUZ  ON EJ      CRUZ3       010VISTA          000000000010700000000110000000001060000000000000000000109000000008300
0202LOTE PADRAO                   CELESC      PNB        CLSC6       010VISTA          000000000000570000000005800000000055000000000000000000005600000114300
0202LOTE PADRAO                   ELETROBRAS  ON *       ELET3       010VISTA          000000000041600000000416000000003950000000000000000000398000014842600
0202LOTE PADRAO                   BRADESCO    PN * EJ    BBDC4       010VISTA          000000000010400000000108000000001040000000000000000000105000225948000
0202LOTE PADRAO                   CESP        PN *       CESP4       010VISTA          000000000021800000000221000000002100000000000000000000217000010273300
0202LOTE PADRAO                   LIGHT       ON *       LIGH3       010VISTA          000000000185000000001850000000017000000000000000000001710000001132400
0202LOTE PADRAO                   TELESP CL PAPN *       TSPP4       010VISTA          000000000012300000000124000000001200000000000000000000124000171657000
0202LOTE PADRAO                   VALE R DOCE PNA        VALE5       010VISTA          000000000052100000000523000000005160000000000000000000516000000037100
0202LOTE PADRAO                   COPEL       PNB*       CPLE6       010VISTA          000000000017000000000177000000001650000000000000000000168000031044800
0202LOTE PADRAO                   VALE R DOCE ON         VALE3       010VISTA          000000000048500000000485000000004650000000000000000000465000000000800
0202LOTE PADRAO                   ARACRUZ     PNB        ARCZ6       010VISTA          000000000002800000000028000000000280000000000000000000028000000118500
0202LOTE PADRAO                   TELEMIG PARTPN *       TMCP4       010VISTA          000000000004200000000042000000000380000000000000000000040000138588000
0202LOTE PADRAO                   BRASIL TELECPN *       BRTO4       010VISTA          000000000011800000000118000000001100000000000000000000115000059512200
0202LOTE PADRAO                   SABESP      ON *       SBSP3       010VISTA          000000000180000000001800000000017730000000000000000001773000001359800
0202LOTE PADRAO                   BRASKEM     PNA*       BRKM5       010VISTA          000000000595000000006090000000059500000000000000000005950000000194900
0202LOTE PADRAO                   EMBRAER     PN EJ      EMBR4       010VISTA          000000000021100000000211000000002075000000000000000000208000000010600
0202LOTE PADRAO                   TELESP      PN * EJ    TLPP4       010VISTA          000000000027600000000276000000002725000000000000000000275000009220800
0202LOTE PADRAO                   EMBRAER     ON EJ      EMBR3       010VISTA          000000000016000000000161000000001590000000000000000000160000000023800
0202LOTE PADRAO                   AMBEV       PN *       AMBV4       010VISTA          000000000500000000005080000000048000000000000000000004950000000843200
0202LOTE PADRAO                   USIMINAS    PNA        USIM5       010VISTA          000000000008400000000089000000000810000000000000000000082000000032700
0202LOTE PADRAO                   ELETROPAULO PN *       ELPL4       010VISTA          000000000079700000000797000000007770000000000000000000787500001568300
0202LOTE PADRAO                   TELE NORD CLPN *       TNEP4       010VISTA          000000000002800000000028000000000270000000000000000000027000038609500
0202LOTE PADRAO                   CEMIG       PN * EJ    CMIG4       010VISTA          000000000025100000000258000000002510000000000000000000254000029214000
0202LOTE PADRAO                   TELE CL SUL PN * EJ    TCSL4       010VISTA          000000000003940000000039400000000370000000000000000000039400078734000
0202LOTE PADRAO                   CEMIG       ON * EJ    CMIG3       010VISTA          000000000024000000000248000000002380000000000000000000248000000210000
0202LOTE PADRAO                   TELE CL SUL ON * EJ    TCSL3       010VISTA          000000000003000000000030000000000300000000000000000000030000031776700
0202LOTE PADRAO                   ITAUSA      PN         ITSA4       010VISTA          000000000001700000000017000000000160000000000000000000016000000224500
0202LOTE PADRAO                   SID TUBARAO PN *       CSTB4       010VISTA          000000000020000000000207500000001990000000000000000000203000003636200
0202LOTE PADRAO                   V C P       PN *       VCPA4       010VISTA          000000000053000000000535000000005070000000000000000000510000002742400
0202LOTE PADRAO                   BRADESPAR   PN *       BRAP4       010VISTA          000000000000990000000009900000000096000000000000000000009900125297000
0202LOTE PADRAO                   NET         PN         PLIM4       010VISTA          000000000001300000000013000000000124000000000000000000012600001221900
0202LOTE PADRAO                   TELE CTR OESPN * EJ    TCOC4       010VISTA          000000000005500000000055000000000540000000000000000000055000040487000
0202LOTE PADRAO                   GERDAU      PN * EJ    GGBR4       010VISTA          000000000018500000000185000000001770000000000000000000177500004212100
0202LOTE PADRAO                   BRASIL      ON *       BBAS3       010VISTA          000000000006800000000072000000000675000000000000000000070000002973500
