00BDIN9999BOVESPA 99992001031620010316
0101IBOVESPA                      0150760150470153560000000000000000002001031600000020010316015237000000
0202LOTE PADRAO                   EMBRATEL PARPN *       EBTP4       010VISTA          000000000025300000000259000000002530000000000000000000256000077556000
0202LOTE PADRAO                   EMBRATEL PARON *       EBTP3       010VISTA          000000000019800000000203000000001980000000000000000000200000045821000
0202LOTE PADRAO                   TRAN PAULISTPN * EJ    TRPL4       010VISTA          000000000008100000000085000000000810000000000000000000083000005273400
0202LOTE PADRAO                   TELEMAR     PN * EJ    TNLP4       010VISTA          000000000039100000000403000000003910000000000000000000398000137684000
0202LOTE PADRAO                   ITAUBANCO   PN * EJ    ITAU4       010VISTA          000000000161500000001640000000015990000000000000000001599000011603800
0202LOTE PADRAO                   TELEMAR     ON * EJ    TNLP3       010VISTA          000000000029500000000303000000002950000000000000000000299000040310600
0202LOTE PADRAO                   SID NACIONALON *       CSNA3       010VISTA          000000000047800000000478000000004700000000000000000000472000007515200
0202LOTE PADRAO                   TELE LEST CLPN *       TLCP4       010VISTA          000000000001800000000018000000000171000000000000000000017400031645100
0202LOTE PADRAO                   CRT CELULAR PNA* EJ    CRTP5       010VISTA          000000000929900000009300000000089100000000000000000009279000000442700
0202LOTE PADRAO                   IPIRANGA PETPN *       PTIP4       010VISTA          000000000014600000000150000000001460000000000000000000150000004080000
0202LOTE PADRAO                   BRASIL T PARPN *       BRTP4       010VISTA          000000000019100000000199000000001880000000000000000000193000047632300
0202LOTE PADRAO                   BRASIL T PARON *       BRTP3       010VISTA          000000000016500000000167000000001610000000000000000000163000010615200
0202LOTE PADRAO                   ACESITA     PN *       ACES4       010VISTA          000000000001000000000010000000000100000000000000000000010000062220000
0202LOTE PADRAO                   PETROBRAS   PN         PETR4       010VISTA          000000000049900000000522000000004920000000000000000000510000000193900
0202LOTE PADRAO                   ELETROBRAS  PNB*       ELET6       010VISTA          000000000038500000000389000000003780000000000000000000387000029753700
0202LOTE PADRAO                   PETROBRAS   ON         PETR3       010VISTA          000000000053000000000569000000005200000000000000000000552000000063500
0202LOTE PADRAO                   COMGAS      PNA*       CGAS5       010VISTA          000000000155900000001720000000015590000000000000000001680000018058200
0202LOTE PADRAO                   SOUZA CRUZ  ON EJ      CRUZ3       010VISTA          000000000010000000000101000000000990000000000000000000100000000009000
0202LOTE PADRAO                   ELETROBRAS  ON *       ELET3       010VISTA          000000000041000000000425000000004100000000000000000000417000011976800
0202LOTE PADRAO                   CELESC      PNB        CLSC6       010VISTA          000000000000580000000006100000000058000000000000000000006000000257200
0202LOTE PADRAO                   BRADESCO    PN * EJ    BBDC4       010VISTA          000000000011400000000116000000001090000000000000000000111000274876000
0202LOTE PADRAO                   CESP        PN *       CESP4       010VISTA          000000000024100000000251000000002380000000000000000000245000006766400
0202LOTE PADRAO                   LIGHT       ON *       LIGH3       010VISTA          000000000204000000002080000000020000000000000000000002050000000261800
0202LOTE PADRAO                   TELESP CL PAPN *       TSPP4       010VISTA          000000000015300000000157000000001530000000000000000000155000082930700
0202LOTE PADRAO                   VALE R DOCE PNA        VALE5       010VISTA          000000000051000000000512000000004980000000000000000000498000000025300
0202LOTE PADRAO                   COPEL       PNB*       CPLE6       010VISTA          000000000019600000000196000000001810000000000000000000184000025913500
0202LOTE PADRAO                   VALE R DOCE ON         VALE3       010VISTA          000000000048000000000480000000004720000000000000000000480000000023700
0202LOTE PADRAO                   ARACRUZ     PNB        ARCZ6       010VISTA          000000000002800000000028000000000270000000000000000000028000000035000
0202LOTE PADRAO                   TELEMIG PARTPN *       TMCP4       010VISTA          000000000005500000000056000000000540000000000000000000054000041926900
0202LOTE PADRAO                   BRASIL TELECPN *       BRTO4       010VISTA          000000000013400000000140000000001310000000000000000000134000041873800
0202LOTE PADRAO                   SABESP      ON *       SBSP3       010VISTA          000000000200000000002000000000019500000000000000000001955000001582700
0202LOTE PADRAO                   BRASKEM     PNA*       BRKM5       010VISTA          000000000630000000006320000000063000000000000000000006300000000083500
0202LOTE PADRAO                   EMBRAER     PN EJ      EMBR4       010VISTA          000000000020600000000206000000001950000000000000000000205000000008500
0202LOTE PADRAO                   TELESP      PN * EJ    TLPP4       010VISTA          000000000029900000000299000000002920000000000000000000296000005908300
0202LOTE PADRAO                   EMBRAER     ON EJ      EMBR3       010VISTA          000000000015800000000158000000001550000000000000000000158000000014700
0202LOTE PADRAO                   AMBEV       PN *       AMBV4       010VISTA          000000000514000000005300000000051000000000000000000005285000001052800
0202LOTE PADRAO                   USIMINAS    PNA        USIM5       010VISTA          000000000010500000000105000000000990000000000000000000100000000050700
0202LOTE PADRAO                   ELETROPAULO PN *       ELPL4       010VISTA          000000000099000000000990000000009500000000000000000000990000001491600
0202LOTE PADRAO                   TELE NORD CLPN *       TNEP4       010VISTA          000000000003200000000032700000000310000000000000000000032000052286700
0202LOTE PADRAO                   CEMIG       PN * EJ    CMIG4       010VISTA          000000000029500000000300000000002860000000000000000000295000022397000
0202LOTE PADRAO                   TELE CL SUL PN * EJ    TCSL4       010VISTA          000000000003800000000040000000000380000000000000000000040000074908100
0202LOTE PADRAO                   CEMIG       ON * EJ    CMIG3       010VISTA          000000000024800000000248000000002380000000000000000000243000000900000
0202LOTE PADRAO                   TELE CL SUL ON * EJ    TCSL3       010VISTA          000000000003100000000032000000000310000000000000000000032000009001100
0202LOTE PADRAO                   ITAUSA      PN         ITSA4       010VISTA          000000000001780000000017800000000172000000000000000000017300000681000
0202LOTE PADRAO                   SID TUBARAO PN *       CSTB4       010VISTA          000000000021200000000213000000002080000000000000000000208000005689600
0202LOTE PADRAO                   V C P       PN *       VCPA4       010VISTA          000000000053200000000535000000005250000000000000000000531000001194300
0202LOTE PADRAO                   BRADESPAR   PN *       BRAP4       010VISTA          000000000001000000000010000000000100000000000000000000010000147025000
0202LOTE PADRAO                   NET         PN         PLIM4       010VISTA          000000000001530000000016000000000151000000000000000000015000001662100
0202LOTE PADRAO                   TELE CTR OESPN * EJ    TCOC4       010VISTA          000000000006900000000069000000000650000000000000000000067100048096200
0202LOTE PADRAO                   GERDAU      PN * EJ    GGBR4       010VISTA          000000000018800000000188000000001830000000000000000000186000009582400
0202LOTE PADRAO                   BRASIL      ON *       BBAS3       010VISTA          000000000007400000000075000000000730000000000000000000074000002720600
