00BDIN9999BOVESPA 99992001052520010525
0101IBOVESPA                      0145230141790145890000000000000000002001052500000020010525014310000000
0202LOTE PADRAO                   EMBRATEL PARPN *       EBTP4       010VISTA          000000000019100000000196000000001850000000000000000000195000117173000
0202LOTE PADRAO                   EMBRATEL PARON *       EBTP3       010VISTA          000000000018300000000191000000001780000000000000000000191000120759000
0202LOTE PADRAO                   TRAN PAULISTPN * EJ    TRPL4       010VISTA          000000000005800000000058000000000525000000000000000000052000014422200
0202LOTE PADRAO                   TELEMAR     PN * EJ    TNLP4       010VISTA          000000000037200000000373000000003610000000000000000000365000155243000
0202LOTE PADRAO                   ITAUBANCO   PN * EJ    ITAU4       010VISTA          000000000186000000001919000000018600000000000000000001905000010255200
0202LOTE PADRAO                   TELEMAR     ON * EJ    TNLP3       010VISTA          000000000032000000000322000000003160000000000000000000318000019000500
0202LOTE PADRAO                   SID NACIONALON *       CSNA3       010VISTA          000000000047750000000477000000004680000000000000000000472000019805600
0202LOTE PADRAO                   TELE LEST CLPN *       TLCP4       010VISTA          000000000001800000000019800000000180000000000000000000019500259158000
0202LOTE PADRAO                   IPIRANGA PETPN *       PTIP4       010VISTA          000000000016400000000164000000001590000000000000000000161000001391600
0202LOTE PADRAO                   BRASIL T PARPN *       BRTP4       010VISTA          000000000017800000000181000000001710000000000000000000171000057634000
0202LOTE PADRAO                   BRASIL T PARON *       BRTP3       010VISTA          000000000017800000000178000000001710000000000000000000173000024871300
0202LOTE PADRAO                   ACESITA     PN *       ACES4       010VISTA          000000000000690000000006900000000067000000000000000000006800117909000
0202LOTE PADRAO                   PETROBRAS   PN         PETR4       010VISTA          000000000059000000000592000000005720000000000000000000578000000044800
0202LOTE PADRAO                   ELETROBRAS  PNB*       ELET6       010VISTA          000000000025900000000260000000002480000000000000000000251000037978300
0202LOTE PADRAO                   PETROBRAS   ON         PETR3       010VISTA          000000000064900000000650000000006300000000000000000000631000000021600
0202LOTE PADRAO                   COMGAS      PNA*       CGAS5       010VISTA          000000000152000000001548000000014800000000000000000001518000006591200
0202LOTE PADRAO                   SOUZA CRUZ  ON EJ      CRUZ3       010VISTA          000000000011500000000117000000001150000000000000000000115000000008400
0202LOTE PADRAO                   CELESC      PNB        CLSC6       010VISTA          000000000000450000000004600000000043000000000000000000004400000187800
0202LOTE PADRAO                   ELETROBRAS  ON *       ELET3       010VISTA          000000000029300000000295000000002800000000000000000000283000025790700
0202LOTE PADRAO                   BRADESCO    PN * EJ    BBDC4       010VISTA          000000000011900000000120000000001180000000000000000000120000082899400
0202LOTE PADRAO                   CESP        PN *       CESP4       010VISTA          000000000014750000000148000000001350000000000000000000138000021832800
0202LOTE PADRAO                   LIGHT       ON *       LIGH3       010VISTA          000000000138400000001385000000013100000000000000000001340000000225300
0202LOTE PADRAO                   TELESP CL PAPN *       TSPP4       010VISTA          000000000016700000000170000000001670000000000000000000168000242925000
0202LOTE PADRAO                   VALE R DOCE PNA        VALE5       010VISTA          000000000057300000000586000000005710000000000000000000578000000030700
0202LOTE PADRAO                   COPEL       PNB*       CPLE6       010VISTA          000000000016900000000170000000001600000000000000000000160000015722000
0202LOTE PADRAO                   VALE R DOCE ON         VALE3       010VISTA          000000000052000000000520000000005150000000000000000000515000000000600
0202LOTE PADRAO                   ARACRUZ     PNB        ARCZ6       010VISTA          000000000003800000000038000000000370000000000000000000038000000043700
0202LOTE PADRAO                   TELEMIG PARTPN *       TMCP4       010VISTA          000000000005100000000051000000000490000000000000000000049000067554400
0202LOTE PADRAO                   BRASIL TELECPN *       BRTO4       010VISTA          000000000012000000000124000000001190000000000000000000120000096075300
0202LOTE PADRAO                   SABESP      ON *       SBSP3       010VISTA          000000000162000000001630000000015900000000000000000001619000000664600
0202LOTE PADRAO                   BRASKEM     PNA*       BRKM5       010VISTA          000000000520000000005200000000050700000000000000000005070000000115400
0202LOTE PADRAO                   EMBRAER     PN EJ      EMBR4       010VISTA          000000000024750000000249000000002360000000000000000000245000000014900
0202LOTE PADRAO                   TELESP      PN * EJ    TLPP4       010VISTA          000000000029900000000311000000002980000000000000000000305000005359400
0202LOTE PADRAO                   EMBRAER     ON EJ      EMBR3       010VISTA          000000000019300000000195000000001860000000000000000000189000000012900
0202LOTE PADRAO                   AMBEV       PN *       AMBV4       010VISTA          000000000554900000005550000000053050000000000000000005340000001983800
0202LOTE PADRAO                   USIMINAS    PNA        USIM5       010VISTA          000000000006200000000062000000000580000000000000000000059000000047900
0202LOTE PADRAO                   ELETROPAULO PN *       ELPL4       010VISTA          000000000061900000000625000000006075000000000000000000625000007022100
0202LOTE PADRAO                   TELE NORD CLPN *       TNEP4       010VISTA          000000000004100000000043000000000394000000000000000000040000385527000
0202LOTE PADRAO                   CEMIG       PN * EJ    CMIG4       010VISTA          000000000022000000000220000000002130000000000000000000213000057345100
0202LOTE PADRAO                   TELE CL SUL PN * EJ    TCSL4       010VISTA          000000000004800000000049000000000450000000000000000000045000113984000
0202LOTE PADRAO                   CEMIG       ON * EJ    CMIG3       010VISTA          000000000022300000000223000000002150000000000000000000220000004192000
0202LOTE PADRAO                   TELE CL SUL ON * EJ    TCSL3       010VISTA          000000000004100000000042000000000400000000000000000000040000043593800
0202LOTE PADRAO                   ITAUSA      PN         ITSA4       010VISTA          000000000002000000000020000000000200000000000000000000020000000559000
0202LOTE PADRAO                   SID TUBARAO PN *       CSTB4       010VISTA          000000000024100000000255000000002410000000000000000000253000007291000
0202LOTE PADRAO                   V C P       PN *       VCPA4       010VISTA          000000000061000000000612000000005700000000000000000000600000002253600
0202LOTE PADRAO                   BRADESPAR   PN *       BRAP4       010VISTA          000000000000820000000008200000000078000000000000000000008000342743000
0202LOTE PADRAO                   NET         PN         PLIM4       010VISTA          000000000000820000000008300000000076000000000000000000007700000999900
0202LOTE PADRAO                   TELE CTR OESPN * EJ    TCOC4       010VISTA          000000000006900000000070000000000660000000000000000000066000024238400
0202LOTE PADRAO                   GERDAU      PN * EJ    GGBR4       010VISTA          000000000015900000000159000000001500000000000000000000153000003514300
0202LOTE PADRAO                   BRASIL      ON *       BBAS3       010VISTA          000000000008000000000080000000000770000000000000000000079000002630400
