00BDIN9999BOVESPA 99992001021620010216
0101IBOVESPA                      0169340161000169500000000000000000002001021600000020010216016259000000
0202LOTE PADRAO                   EMBRATEL PARPN *       EBTP4       010VISTA          000000000026600000000266000000002480000000000000000000250000100068000
0202LOTE PADRAO                   EMBRATEL PARON *       EBTP3       010VISTA          000000000022600000000226000000002050000000000000000000210000018975200
0202LOTE PADRAO                   TRAN PAULISTPN * EJ    TRPL4       010VISTA          000000000009500000000095000000000850000000000000000000089000027335000
0202LOTE PADRAO                   TELEMAR     PN * EJ    TNLP4       010VISTA          000000000046300000000466000000004400000000000000000000452000283500000
0202LOTE PADRAO                   ITAUBANCO   PN * EJ    ITAU4       010VISTA          000000000186000000001860000000017390000000000000000001760000005021800
0202LOTE PADRAO                   TELEMAR     ON * EJ    TNLP3       010VISTA          000000000036600000000366000000003450000000000000000000360000018759700
0202LOTE PADRAO                   SID NACIONALON *       CSNA3       010VISTA          000000000066200000000665000000006520000000000000000000662000005191700
0202LOTE PADRAO                   TELE LEST CLPN *       TLCP4       010VISTA          000000000001550000000015500000000140000000000000000000014800116171000
0202LOTE PADRAO                   IPIRANGA PETPN *       PTIP4       010VISTA          000000000016300000000163000000001580000000000000000000158000002422300
0202LOTE PADRAO                   BRASIL T PARPN *       BRTP4       010VISTA          000000000021600000000216000000002030000000000000000000209000089129700
0202LOTE PADRAO                   BRASIL T PARON *       BRTP3       010VISTA          000000000019500000000195000000001810000000000000000000189000030907500
0202LOTE PADRAO                   ACESITA     PN *       ACES4       010VISTA          000000000001100000000011000000000100000000000000000000010000556723000
0202LOTE PADRAO                   PETROBRAS   PN         PETR4       010VISTA          000000000057700000000581000000005550000000000000000000564000000151600
0202LOTE PADRAO                   ELETROBRAS  PNB*       ELET6       010VISTA          000000000040300000000404000000003800000000000000000000380000029109300
0202LOTE PADRAO                   PETROBRAS   ON         PETR3       010VISTA          000000000059000000000590000000005720000000000000000000580000000024800
0202LOTE PADRAO                   COMGAS      PNA*       CGAS5       010VISTA          000000000156000000001615000000015600000000000000000001588000007290400
0202LOTE PADRAO                   SOUZA CRUZ  ON EJ      CRUZ3       010VISTA          000000000011500000000116000000001130000000000000000000116000000025300
0202LOTE PADRAO                   CELESC      PNB        CLSC6       010VISTA          000000000000670000000006700000000062000000000000000000006300000383400
0202LOTE PADRAO                   ELETROBRAS  ON *       ELET3       010VISTA          000000000044000000000440000000003970000000000000000000397000034771600
0202LOTE PADRAO                   BRADESCO    PN * EJ    BBDC4       010VISTA          000000000012300000000124000000001180000000000000000000119000105855000
0202LOTE PADRAO                   CESP        PN *       CESP4       010VISTA          000000000025500000000266000000002400000000000000000000245000019719400
0202LOTE PADRAO                   LIGHT       ON *       LIGH3       010VISTA          000000000245000000002450000000022400000000000000000002250000000531100
0202LOTE PADRAO                   TELESP CL PAPN *       TSPP4       010VISTA          000000000020300000000205000000001950000000000000000000196000130419000
0202LOTE PADRAO                   VALE R DOCE PNA        VALE5       010VISTA          000000000049500000000495000000004700000000000000000000480000000043900
0202LOTE PADRAO                   COPEL       PNB*       CPLE6       010VISTA          000000000019800000000198000000001900000000000000000000193000025571000
0202LOTE PADRAO                   VALE R DOCE ON         VALE3       010VISTA          000000000048400000000485000000004840000000000000000000485000000001000
0202LOTE PADRAO                   ARACRUZ     PNB        ARCZ6       010VISTA          000000000002700000000027000000000260000000000000000000026000000054400
0202LOTE PADRAO                   TELEMIG PARTPN *       TMCP4       010VISTA          000000000006100000000062000000000590000000000000000000059600040765900
0202LOTE PADRAO                   BRASIL TELECPN *       BRTO4       010VISTA          000000000015400000000156000000001460000000000000000000148000055685500
0202LOTE PADRAO                   SABESP      ON *       SBSP3       010VISTA          000000000217500000002175000000021100000000000000000002130000004255100
0202LOTE PADRAO                   BRASKEM     PNA*       BRKM5       010VISTA          000000000655000000006550000000063000000000000000000006350000000128200
0202LOTE PADRAO                   EMBRAER     PN EJ      EMBR4       010VISTA          000000000018500000000185000000001780000000000000000000181000000021800
0202LOTE PADRAO                   TELESP      PN * EJ    TLPP4       010VISTA          000000000030000000000300000000002880000000000000000000293000011044300
0202LOTE PADRAO                   EMBRAER     ON EJ      EMBR3       010VISTA          000000000015500000000158000000001500000000000000000000153000000021300
0202LOTE PADRAO                   AMBEV       PN *       AMBV4       010VISTA          000000000494000000005090000000049000000000000000000004990000007941900
0202LOTE PADRAO                   USIMINAS    PNA        USIM5       010VISTA          000000000011300000000113000000001050000000000000000000111000000035700
0202LOTE PADRAO                   ELETROPAULO PN *       ELPL4       010VISTA          000000000112000000001120000000010400000000000000000001100000001158000
0202LOTE PADRAO                   TELE NORD CLPN *       TNEP4       010VISTA          000000000003700000000037000000000350000000000000000000035000083062900
0202LOTE PADRAO                   CEMIG       PN * EJ    CMIG4       010VISTA          000000000032500000000348000000003130000000000000000000318000077149500
0202LOTE PADRAO                   TELE CL SUL PN * EJ    TCSL4       010VISTA          000000000004700000000047000000000430000000000000000000044000086597600
0202LOTE PADRAO                   CEMIG       ON * EJ    CMIG3       010VISTA          000000000030100000000301000000002700000000000000000000279000005210700
0202LOTE PADRAO                   TELE CL SUL ON * EJ    TCSL3       010VISTA          000000000003900000000039000000000360000000000000000000036000021883700
0202LOTE PADRAO                   ITAUSA      PN         ITSA4       010VISTA          000000000002000000000020000000000194000000000000000000019600000608900
0202LOTE PADRAO                   SID TUBARAO PN *       CSTB4       010VISTA          000000000023500000000235000000002250000000000000000000225000006679600
0202LOTE PADRAO                   V C P       PN *       VCPA4       010VISTA          000000000056700000000570000000005250000000000000000000555000006495200
0202LOTE PADRAO                   BRADESPAR   PN *       BRAP4       010VISTA          000000000001100000000011000000000110000000000000000000011000296369000
0202LOTE PADRAO                   NET         PN         PLIM4       010VISTA          000000000001970000000019800000000180000000000000000000018000001491600
0202LOTE PADRAO                   TELE CTR OESPN * EJ    TCOC4       010VISTA          000000000007790000000077900000000690000000000000000000070000073555300
0202LOTE PADRAO                   GERDAU      PN * EJ    GGBR4       010VISTA          000000000021000000000210000000001950000000000000000000197000010293400
0202LOTE PADRAO                   BRASIL      ON *       BBAS3       010VISTA          000000000007500000000075000000000700000000000000000000070000006064900
