00BDIN9999BOVESPA 99992001050320010503
0101IBOVESPA                      0149060147620151420000000000000000002001050300000020010503015142000000
0202LOTE PADRAO                   EMBRATEL PARPN *       EBTP4       010VISTA          000000000020500000000208000000002010000000000000000000204000044750700
0202LOTE PADRAO                   EMBRATEL PARON *       EBTP3       010VISTA          000000000018500000000188000000001830000000000000000000186000038318900
0202LOTE PADRAO                   TRAN PAULISTPN * EJ    TRPL4       010VISTA          000000000007000000000073000000000690000000000000000000073000008460000
0202LOTE PADRAO                   TELEMAR     PN * EJ    TNLP4       010VISTA          000000000038400000000393000000003770000000000000000000392000179529000
0202LOTE PADRAO                   ITAUBANCO   PN * EJ    ITAU4       010VISTA          000000000177000000001819000000017400000000000000000001819000010363900
0202LOTE PADRAO                   TELEMAR     ON * EJ    TNLP3       010VISTA          000000000034000000000349000000003330000000000000000000348000017447900
0202LOTE PADRAO                   SID NACIONALON *       CSNA3       010VISTA          000000000051500000000516000000005110000000000000000000512000015532600
0202LOTE PADRAO                   TELE LEST CLPN *       TLCP4       010VISTA          000000000001530000000016000000000152000000000000000000016000129296000
0202LOTE PADRAO                   IPIRANGA PETPN *       PTIP4       010VISTA          000000000016300000000165000000001600000000000000000000164000001582900
0202LOTE PADRAO                   BRASIL T PARPN *       BRTP4       010VISTA          000000000019300000000196000000001900000000000000000000196000086600300
0202LOTE PADRAO                   BRASIL T PARON *       BRTP3       010VISTA          000000000018300000000190000000001830000000000000000000190000028760900
0202LOTE PADRAO                   ACESITA     PN *       ACES4       010VISTA          000000000000850000000008600000000082000000000000000000008500355101000
0202LOTE PADRAO                   PETROBRAS   PN         PETR4       010VISTA          000000000054000000000557000000005350000000000000000000557000000147600
0202LOTE PADRAO                   ELETROBRAS  PNB*       ELET6       010VISTA          000000000033600000000336000000003270000000000000000000331000039012800
0202LOTE PADRAO                   PETROBRAS   ON         PETR3       010VISTA          000000000059700000000608000000005910000000000000000000608000000095100
0202LOTE PADRAO                   COMGAS      PNA*       CGAS5       010VISTA          000000000129900000001319000000012750000000000000000001304000002397000
0202LOTE PADRAO                   SOUZA CRUZ  ON EJ      CRUZ3       010VISTA          000000000010500000000105000000001000000000000000000000102000000042800
0202LOTE PADRAO                   CELESC      PNB        CLSC6       010VISTA          000000000000480000000005000000000047000000000000000000004900000414200
0202LOTE PADRAO                   ELETROBRAS  ON *       ELET3       010VISTA          000000000036500000000366000000003600000000000000000000363000023357400
0202LOTE PADRAO                   BRADESCO    PN * EJ    BBDC4       010VISTA          000000000012000000000121000000001175000000000000000000120000136520000
0202LOTE PADRAO                   CESP        PN *       CESP4       010VISTA          000000000018100000000196000000001770000000000000000000196000035751400
0202LOTE PADRAO                   LIGHT       ON *       LIGH3       010VISTA          000000000153900000001650000000015390000000000000000001650000000435100
0202LOTE PADRAO                   TELESP CL PAPN *       TSPP4       010VISTA          000000000015000000000150000000001460000000000000000000150000093163400
0202LOTE PADRAO                   VALE R DOCE PNA        VALE5       010VISTA          000000000053200000000533000000005200000000000000000000530000000021200
0202LOTE PADRAO                   COPEL       PNB*       CPLE6       010VISTA          000000000016800000000176000000001675000000000000000000175000039894000
0202LOTE PADRAO                   VALE R DOCE ON         VALE3       010VISTA          000000000048500000000490000000004800000000000000000000485000000003600
0202LOTE PADRAO                   ARACRUZ     PNB        ARCZ6       010VISTA          000000000003200000000033000000000325000000000000000000033000000053200
0202LOTE PADRAO                   TELEMIG PARTPN *       TMCP4       010VISTA          000000000004100000000042000000000400000000000000000000042000131931000
0202LOTE PADRAO                   BRASIL TELECPN *       BRTO4       010VISTA          000000000013500000000140000000001330000000000000000000140000063130900
0202LOTE PADRAO                   SABESP      ON *       SBSP3       010VISTA          000000000176000000001760000000017000000000000000000001729000000886000
0202LOTE PADRAO                   BRASKEM     PNA*       BRKM5       010VISTA          000000000572000000005720000000055100000000000000000005510000000101300
0202LOTE PADRAO                   EMBRAER     PN EJ      EMBR4       010VISTA          000000000025600000000256000000002230000000000000000000230000000058600
0202LOTE PADRAO                   TELESP      PN * EJ    TLPP4       010VISTA          000000000030400000000308000000003000000000000000000000308000006389600
0202LOTE PADRAO                   EMBRAER     ON EJ      EMBR3       010VISTA          000000000020000000000200000000001830000000000000000000185000000052600
0202LOTE PADRAO                   AMBEV       PN *       AMBV4       010VISTA          000000000535000000005350000000051000000000000000000005100000001156500
0202LOTE PADRAO                   USIMINAS    PNA        USIM5       010VISTA          000000000008500000000088000000000850000000000000000000088000000030200
0202LOTE PADRAO                   ELETROPAULO PN *       ELPL4       010VISTA          000000000066500000000665000000006400000000000000000000655000001874000
0202LOTE PADRAO                   TELE NORD CLPN *       TNEP4       010VISTA          000000000003100000000032000000000310000000000000000000032000039422100
0202LOTE PADRAO                   CEMIG       PN * EJ    CMIG4       010VISTA          000000000025600000000256000000002500000000000000000000253000035725200
0202LOTE PADRAO                   TELE CL SUL PN * EJ    TCSL4       010VISTA          000000000004200000000042000000000410000000000000000000042000112422000
0202LOTE PADRAO                   CEMIG       ON * EJ    CMIG3       010VISTA          000000000025100000000251000000002480000000000000000000248000003674300
0202LOTE PADRAO                   TELE CL SUL ON * EJ    TCSL3       010VISTA          000000000003500000000037000000000350000000000000000000036000024500000
0202LOTE PADRAO                   ITAUSA      PN         ITSA4       010VISTA          000000000001800000000019400000000180000000000000000000019400000287600
0202LOTE PADRAO                   SID TUBARAO PN *       CSTB4       010VISTA          000000000020900000000219000000002090000000000000000000218000009728000
0202LOTE PADRAO                   V C P       PN *       VCPA4       010VISTA          000000000060000000000600000000005900000000000000000000593000001220000
0202LOTE PADRAO                   BRADESPAR   PN *       BRAP4       010VISTA          000000000000930000000009800000000092000000000000000000009800329582000
0202LOTE PADRAO                   NET         PN         PLIM4       010VISTA          000000000001250000000012800000000120000000000000000000012800000849800
0202LOTE PADRAO                   TELE CTR OESPN * EJ    TCOC4       010VISTA          000000000006000000000062000000000580000000000000000000060000036175300
0202LOTE PADRAO                   GERDAU      PN * EJ    GGBR4       010VISTA          000000000019800000000201000000001980000000000000000000198000017652400
0202LOTE PADRAO                   BRASIL      ON *       BBAS3       010VISTA          000000000008400000000089000000000840000000000000000000089000003932800
