00BDIN9999BOVESPA 99992001102220011022
0101IBOVESPA                      0113430112930117250000000000000000002001102200000020011022011700000000
0202LOTE PADRAO                   EMBRATEL PARPN *       EBTP4       010VISTA          000000000007900000000080000000000750000000000000000000080000077919500
0202LOTE PADRAO                   EMBRATEL PARON *       EBTP3       010VISTA          000000000008800000000089000000000830000000000000000000089000020332900
0202LOTE PADRAO                   TRAN PAULISTPN * EJ    TRPL4       010VISTA          000000000005250000000057000000000510000000000000000000057000018030000
0202LOTE PADRAO                   TELEMAR     PN * EJ    TNLP4       010VISTA          000000000027100000000281000000002660000000000000000000280000242902000
0202LOTE PADRAO                   ITAUBANCO   PN * EJ    ITAU4       010VISTA          000000000173000000001780000000017200000000000000000001760000007077500
0202LOTE PADRAO                   TELEMAR     ON * EJ    TNLP3       010VISTA          000000000025100000000252000000002380000000000000000000252000032554600
0202LOTE PADRAO                   SID NACIONALON *       CSNA3       010VISTA          000000000027000000000283000000002700000000000000000000279000009460800
0202LOTE PADRAO                   TELE LEST CLPN *       TLCP4       010VISTA          000000000000740000000007600000000072000000000000000000007600153672000
0202LOTE PADRAO                   CRT CELULAR PNA* EJ    CRTP5       010VISTA          000000000360000000003630000000035700000000000000000003590000000567900
0202LOTE PADRAO                   IPIRANGA PETPN *       PTIP4       010VISTA          000000000011500000000118000000001150000000000000000000116000001040000
0202LOTE PADRAO                   BRASIL T PARPN *       BRTP4       010VISTA          000000000015100000000159000000001500000000000000000000159000065348400
0202LOTE PADRAO                   BRASIL T PARON *       BRTP3       010VISTA          000000000014800000000154000000001450000000000000000000154000007596100
0202LOTE PADRAO                   ACESITA     PN *       ACES4       010VISTA          000000000000480000000005000000000047000000000000000000004900190942000
0202LOTE PADRAO                   PETROBRAS   PN         PETR4       010VISTA          000000000052200000000535000000005160000000000000000000533000000122500
0202LOTE PADRAO                   ELETROBRAS  PNB*       ELET6       010VISTA          000000000032300000000338000000003200000000000000000000334000036381900
0202LOTE PADRAO                   PETROBRAS   ON         PETR3       010VISTA          000000000054000000000550000000005360000000000000000000548000000022600
0202LOTE PADRAO                   COMGAS      PNA*       CGAS5       010VISTA          000000000083000000000865000000008290000000000000000000865000000926100
0202LOTE PADRAO                   SOUZA CRUZ  ON EJ      CRUZ3       010VISTA          000000000013100000000135000000001300000000000000000000134000000015300
0202LOTE PADRAO                   ELETROBRAS  ON *       ELET3       010VISTA          000000000035000000000365000000003440000000000000000000365000010344100
0202LOTE PADRAO                   CELESC      PNB        CLSC6       010VISTA          000000000000450000000004800000000045000000000000000000004700000653600
0202LOTE PADRAO                   BRADESCO    PN * EJ    BBDC4       010VISTA          000000000010800000000110000000001060000000000000000000109000068355100
0202LOTE PADRAO                   CESP        PN *       CESP4       010VISTA          000000000013200000000149000000001320000000000000000000147000038838500
0202LOTE PADRAO                   LIGHT       ON *       LIGH3       010VISTA          000000000082000000000830000000008050000000000000000000824000000894000
0202LOTE PADRAO                   TELESP CL PAPN *       TSPP4       010VISTA          000000000005750000000058000000000560000000000000000000057000198819000
0202LOTE PADRAO                   VALE R DOCE PNA        VALE5       010VISTA          000000000055000000000557000000005470000000000000000000555000000022800
0202LOTE PADRAO                   COPEL       PNB*       CPLE6       010VISTA          000000000015800000000159000000001530000000000000000000157000025870000
0202LOTE PADRAO                   VALE R DOCE ON         VALE3       010VISTA          000000000053900000000539000000005370000000000000000000537000000000000
0202LOTE PADRAO                   ARACRUZ     PNB        ARCZ6       010VISTA          000000000004400000000045000000000440000000000000000000045000000022800
0202LOTE PADRAO                   TELEMIG PARTPN *       TMCP4       010VISTA          000000000003300000000033000000000320000000000000000000033000055728700
0202LOTE PADRAO                   BRASIL TELECPN *       BRTO4       010VISTA          000000000010500000000109000000001050000000000000000000108000140165000
0202LOTE PADRAO                   SABESP      ON *       SBSP3       010VISTA          000000000118700000001194000000011620000000000000000001185000001074500
0202LOTE PADRAO                   BRASKEM     PNA*       BRKM5       010VISTA          000000000398000000004450000000039800000000000000000004328000000245300
0202LOTE PADRAO                   EMBRAER     PN EJ      EMBR4       010VISTA          000000000011500000000119000000001140000000000000000000118000000184200
0202LOTE PADRAO                   TELESP      PN * EJ    TLPP4       010VISTA          000000000025100000000256000000002500000000000000000000255000009506100
0202LOTE PADRAO                   EMBRAER     ON EJ      EMBR3       010VISTA          000000000009800000000101000000000980000000000000000000100000000048300
0202LOTE PADRAO                   AMBEV       PN *       AMBV4       010VISTA          000000000435000000004350000000042700000000000000000004320000002901200
0202LOTE PADRAO                   USIMINAS    PNA        USIM5       010VISTA          000000000004000000000042500000000400000000000000000000042500000081700
0202LOTE PADRAO                   ELETROPAULO PN *       ELPL4       010VISTA          000000000061000000000649000000006100000000000000000000637000002099800
0202LOTE PADRAO                   TELE NORD CLPN *       TNEP4       010VISTA          000000000002540000000025000000000240000000000000000000025000135508000
0202LOTE PADRAO                   CEMIG       PN * EJ    CMIG4       010VISTA          000000000026600000000275000000002650000000000000000000271000028086100
0202LOTE PADRAO                   TELE CL SUL PN * EJ    TCSL4       010VISTA          000000000002900000000029800000000280000000000000000000029400053894300
0202LOTE PADRAO                   CEMIG       ON * EJ    CMIG3       010VISTA          000000000026100000000270000000002610000000000000000000268000001590000
0202LOTE PADRAO                   TELE CL SUL ON * EJ    TCSL3       010VISTA          000000000002400000000025400000000230000000000000000000025400020620800
0202LOTE PADRAO                   ITAUSA      PN         ITSA4       010VISTA          000000000001800000000019000000000180000000000000000000019000000308100
0202LOTE PADRAO                   SID TUBARAO PN *       CSTB4       010VISTA          000000000016700000000180000000001670000000000000000000173000007163100
0202LOTE PADRAO                   V C P       PN *       VCPA4       010VISTA          000000000075900000000765000000007500000000000000000000762000000787800
0202LOTE PADRAO                   BRADESPAR   PN *       BRAP4       010VISTA          000000000000600000000006300000000060000000000000000000006300251071000
0202LOTE PADRAO                   NET         PN         PLIM4       010VISTA          000000000000650000000006700000000064000000000000000000006600000831700
0202LOTE PADRAO                   TELE CTR OESPN * EJ    TCOC4       010VISTA          000000000004900000000052000000000470000000000000000000050000051340900
0202LOTE PADRAO                   GERDAU      PN * EJ    GGBR4       010VISTA          000000000017750000000183000000001750000000000000000000183000017122300
0202LOTE PADRAO                   BRASIL      ON *       BBAS3       010VISTA          000000000007500000000079000000000730000000000000000000078000006188200
