00BDIN9999BOVESPA 99992001051620010516
0101IBOVESPA                      0142560142560147380000000000000000002001051600000020010516014714000000
0202LOTE PADRAO                   EMBRATEL PARPN *       EBTP4       010VISTA          000000000019000000000193000000001860000000000000000000191000056476300
0202LOTE PADRAO                   EMBRATEL PARON *       EBTP3       010VISTA          000000000018100000000186000000001760000000000000000000181000032066400
0202LOTE PADRAO                   TRAN PAULISTPN * EJ    TRPL4       010VISTA          000000000005700000000061000000000570000000000000000000060000013121100
0202LOTE PADRAO                   TELEMAR     PN * EJ    TNLP4       010VISTA          000000000037100000000387000000003670000000000000000000383000192115000
0202LOTE PADRAO                   ITAUBANCO   PN * EJ    ITAU4       010VISTA          000000000175000000001880000000017500000000000000000001880000012747900
0202LOTE PADRAO                   TELEMAR     ON * EJ    TNLP3       010VISTA          000000000032500000000332000000003180000000000000000000330000016337300
0202LOTE PADRAO                   SID NACIONALON *       CSNA3       010VISTA          000000000047000000000480000000004660000000000000000000480000003491900
0202LOTE PADRAO                   TELE LEST CLPN *       TLCP4       010VISTA          000000000001810000000019000000000181000000000000000000018000585017000
0202LOTE PADRAO                   IPIRANGA PETPN *       PTIP4       010VISTA          000000000016100000000162000000001600000000000000000000162000000681300
0202LOTE PADRAO                   BRASIL T PARPN *       BRTP4       010VISTA          000000000018000000000186000000001800000000000000000000181000070248400
0202LOTE PADRAO                   BRASIL T PARON *       BRTP3       010VISTA          000000000017500000000187000000001750000000000000000000187000004051400
0202LOTE PADRAO                   ACESITA     PN *       ACES4       010VISTA          000000000000690000000007800000000068000000000000000000007700409782000
0202LOTE PADRAO                   PETROBRAS   PN         PETR4       010VISTA          000000000055600000000567000000005520000000000000000000565000000076900
0202LOTE PADRAO                   ELETROBRAS  PNB*       ELET6       010VISTA          000000000029900000000303000000002850000000000000000000302000035292300
0202LOTE PADRAO                   PETROBRAS   ON         PETR3       010VISTA          000000000061000000000620000000006000000000000000000000615000000028600
0202LOTE PADRAO                   COMGAS      PNA*       CGAS5       010VISTA          000000000129900000001299000000012800000000000000000001290000000373500
0202LOTE PADRAO                   SOUZA CRUZ  ON EJ      CRUZ3       010VISTA          000000000010800000000113000000001080000000000000000000113000000017300
0202LOTE PADRAO                   CELESC      PNB        CLSC6       010VISTA          000000000000480000000005000000000048000000000000000000004900000380800
0202LOTE PADRAO                   ELETROBRAS  ON *       ELET3       010VISTA          000000000032000000000340000000003200000000000000000000338000012853700
0202LOTE PADRAO                   BRADESCO    PN * EJ    BBDC4       010VISTA          000000000011300000000120000000001130000000000000000000118000173671000
0202LOTE PADRAO                   CESP        PN *       CESP4       010VISTA          000000000015900000000171000000001590000000000000000000170000056552900
0202LOTE PADRAO                   LIGHT       ON *       LIGH3       010VISTA          000000000139000000001390000000013500000000000000000001368000000841500
0202LOTE PADRAO                   TELESP CL PAPN *       TSPP4       010VISTA          000000000014000000000150000000001400000000000000000000148000171590000
0202LOTE PADRAO                   VALE R DOCE PNA        VALE5       010VISTA          000000000056400000000564000000005570000000000000000000558000000030900
0202LOTE PADRAO                   COPEL       PNB*       CPLE6       010VISTA          000000000015600000000161000000001550000000000000000000160000056221500
0202LOTE PADRAO                   VALE R DOCE ON         VALE3       010VISTA          000000000050900000000510000000004990000000000000000000505000000037800
0202LOTE PADRAO                   ARACRUZ     PNB        ARCZ6       010VISTA          000000000003800000000038000000000370000000000000000000038100000043400
0202LOTE PADRAO                   TELEMIG PARTPN *       TMCP4       010VISTA          000000000004400000000048000000000440000000000000000000047000210422000
0202LOTE PADRAO                   BRASIL TELECPN *       BRTO4       010VISTA          000000000012900000000129000000001250000000000000000000128000072798500
0202LOTE PADRAO                   SABESP      ON *       SBSP3       010VISTA          000000000153000000001580000000015200000000000000000001574000001819800
0202LOTE PADRAO                   BRASKEM     PNA*       BRKM5       010VISTA          000000000549900000005499000000051000000000000000000005200000000177400
0202LOTE PADRAO                   EMBRAER     PN EJ      EMBR4       010VISTA          000000000025100000000251000000002460000000000000000000247500000008000
0202LOTE PADRAO                   TELESP      PN * EJ    TLPP4       010VISTA          000000000029100000000308000000002910000000000000000000308000006477900
0202LOTE PADRAO                   EMBRAER     ON EJ      EMBR3       010VISTA          000000000019100000000194000000001890000000000000000000190000000016500
0202LOTE PADRAO                   AMBEV       PN *       AMBV4       010VISTA          000000000550000000005500000000053300000000000000000005370000002579200
0202LOTE PADRAO                   USIMINAS    PNA        USIM5       010VISTA          000000000006600000000070000000000660000000000000000000069000000092300
0202LOTE PADRAO                   ELETROPAULO PN *       ELPL4       010VISTA          000000000054000000000573000000005320000000000000000000551000024260400
0202LOTE PADRAO                   TELE NORD CLPN *       TNEP4       010VISTA          000000000003200000000036000000000320000000000000000000035000222662000
0202LOTE PADRAO                   CEMIG       PN * EJ    CMIG4       010VISTA          000000000023800000000238000000002260000000000000000000230000072341000
0202LOTE PADRAO                   TELE CL SUL PN * EJ    TCSL4       010VISTA          000000000004400000000049000000000440000000000000000000048000245475000
0202LOTE PADRAO                   CEMIG       ON * EJ    CMIG3       010VISTA          000000000023300000000238000000002310000000000000000000237000002050200
0202LOTE PADRAO                   TELE CL SUL ON * EJ    TCSL3       010VISTA          000000000003790000000040000000000379000000000000000000038000160185000
0202LOTE PADRAO                   ITAUSA      PN         ITSA4       010VISTA          000000000001900000000019800000000180000000000000000000019700000736400
0202LOTE PADRAO                   SID TUBARAO PN *       CSTB4       010VISTA          000000000023400000000238000000002340000000000000000000237000026417300
0202LOTE PADRAO                   V C P       PN *       VCPA4       010VISTA          000000000060000000000619000000006000000000000000000000617000003977400
0202LOTE PADRAO                   BRADESPAR   PN *       BRAP4       010VISTA          000000000000910000000009300000000090000000000000000000009300223435000
0202LOTE PADRAO                   NET         PN         PLIM4       010VISTA          000000000000980000000010000000000097000000000000000000010000000924200
0202LOTE PADRAO                   TELE CTR OESPN * EJ    TCOC4       010VISTA          000000000006200000000065000000000600000000000000000000064000104914000
0202LOTE PADRAO                   GERDAU      PN * EJ    GGBR4       010VISTA          000000000016000000000174000000001600000000000000000000174000014110700
0202LOTE PADRAO                   BRASIL      ON *       BBAS3       010VISTA          000000000008250000000086000000000825000000000000000000085000003112400
