00BDIN9999BOVESPA 99992001021920010219
0101IBOVESPA                      0162630160230163920000000000000000002001021900000020010219016061000000
0202LOTE PADRAO                   EMBRATEL PARPN *       EBTP4       010VISTA          000000000025300000000258000000002480000000000000000000249000038183100
0202LOTE PADRAO                   EMBRATEL PARON *       EBTP3       010VISTA          000000000022000000000220000000002010000000000000000000201000027325900
0202LOTE PADRAO                   TRAN PAULISTPN * EJ    TRPL4       010VISTA          000000000009100000000091000000000890000000000000000000089000020746400
0202LOTE PADRAO                   TELEMAR     PN * EJ    TNLP4       010VISTA          000000000045500000000457000000004470000000000000000000448000100312000
0202LOTE PADRAO                   ITAUBANCO   PN * EJ    ITAU4       010VISTA          000000000180000000001800000000017450000000000000000001760000003910100
0202LOTE PADRAO                   TELEMAR     ON * EJ    TNLP3       010VISTA          000000000035500000000355000000003470000000000000000000347000009675300
0202LOTE PADRAO                   SID NACIONALON *       CSNA3       010VISTA          000000000066500000000679000000006650000000000000000000672000006600000
0202LOTE PADRAO                   TELE LEST CLPN *       TLCP4       010VISTA          000000000001490000000015000000000140000000000000000000014700040291300
0202LOTE PADRAO                   IPIRANGA PETPN *       PTIP4       010VISTA          000000000015900000000159000000001550000000000000000000155000000854300
0202LOTE PADRAO                   BRASIL T PARPN *       BRTP4       010VISTA          000000000021000000000211000000002050000000000000000000206000028481400
0202LOTE PADRAO                   BRASIL T PARON *       BRTP3       010VISTA          000000000018900000000190000000001810000000000000000000188000004478000
0202LOTE PADRAO                   ACESITA     PN *       ACES4       010VISTA          000000000001100000000011000000000110000000000000000000011000340108000
0202LOTE PADRAO                   PETROBRAS   PN         PETR4       010VISTA          000000000056300000000566000000005530000000000000000000556000000104600
0202LOTE PADRAO                   ELETROBRAS  PNB*       ELET6       010VISTA          000000000038200000000390000000003730000000000000000000375000024841200
0202LOTE PADRAO                   PETROBRAS   ON         PETR3       010VISTA          000000000058000000000580000000005620000000000000000000567000000027400
0202LOTE PADRAO                   COMGAS      PNA*       CGAS5       010VISTA          000000000160000000001600000000015400000000000000000001565000007755200
0202LOTE PADRAO                   SOUZA CRUZ  ON EJ      CRUZ3       010VISTA          000000000011600000000116000000001150000000000000000000116000000019200
0202LOTE PADRAO                   CELESC      PNB        CLSC6       010VISTA          000000000000640000000006500000000063000000000000000000006400000112100
0202LOTE PADRAO                   ELETROBRAS  ON *       ELET3       010VISTA          000000000040100000000405000000003880000000000000000000388000014869500
0202LOTE PADRAO                   BRADESCO    PN * EJ    BBDC4       010VISTA          000000000012000000000121000000001150000000000000000000116000142031000
0202LOTE PADRAO                   CESP        PN *       CESP4       010VISTA          000000000024500000000246000000002340000000000000000000236000006948100
0202LOTE PADRAO                   LIGHT       ON *       LIGH3       010VISTA          000000000234000000002370000000022500000000000000000002300000000783200
0202LOTE PADRAO                   TELESP CL PAPN *       TSPP4       010VISTA          000000000019900000000205000000001960000000000000000000196000143427000
0202LOTE PADRAO                   VALE R DOCE PNA        VALE5       010VISTA          000000000047300000000486000000004730000000000000000000477000000162300
0202LOTE PADRAO                   COPEL       PNB*       CPLE6       010VISTA          000000000019250000000195000000001860000000000000000000188000006847900
0202LOTE PADRAO                   VALE R DOCE ON         VALE3       010VISTA          000000000047000000000470000000004700000000000000000000470000000044500
0202LOTE PADRAO                   ARACRUZ     PNB        ARCZ6       010VISTA          000000000002690000000027000000000256000000000000000000026000000031100
0202LOTE PADRAO                   TELEMIG PARTPN *       TMCP4       010VISTA          000000000006200000000062500000000590000000000000000000059600025143800
0202LOTE PADRAO                   BRASIL TELECPN *       BRTO4       010VISTA          000000000015000000000151000000001450000000000000000000151000036050800
0202LOTE PADRAO                   SABESP      ON *       SBSP3       010VISTA          000000000211500000002130000000020650000000000000000002065000000436600
0202LOTE PADRAO                   BRASKEM     PNA*       BRKM5       010VISTA          000000000640000000006400000000063000000000000000000006300000000024800
0202LOTE PADRAO                   EMBRAER     PN EJ      EMBR4       010VISTA          000000000018000000000180000000001760000000000000000000179000000003800
0202LOTE PADRAO                   TELESP      PN * EJ    TLPP4       010VISTA          000000000029800000000300000000002930000000000000000000299000005538600
0202LOTE PADRAO                   EMBRAER     ON EJ      EMBR3       010VISTA          000000000015400000000155000000001510000000000000000000154000000010000
0202LOTE PADRAO                   AMBEV       PN *       AMBV4       010VISTA          000000000503000000005150000000049750000000000000000005050000001283100
0202LOTE PADRAO                   USIMINAS    PNA        USIM5       010VISTA          000000000011100000000112000000001100000000000000000000110000000034400
0202LOTE PADRAO                   ELETROPAULO PN *       ELPL4       010VISTA          000000000108000000001080000000010500000000000000000001065000001043200
0202LOTE PADRAO                   TELE NORD CLPN *       TNEP4       010VISTA          000000000003500000000036000000000340000000000000000000034800038574200
0202LOTE PADRAO                   CEMIG       PN * EJ    CMIG4       010VISTA          000000000032300000000323000000003100000000000000000000310000016873700
0202LOTE PADRAO                   TELE CL SUL PN * EJ    TCSL4       010VISTA          000000000004500000000045000000000430000000000000000000043000040885900
0202LOTE PADRAO                   CEMIG       ON * EJ    CMIG3       010VISTA          000000000028300000000283000000002660000000000000000000266000004090200
0202LOTE PADRAO                   TELE CL SUL ON * EJ    TCSL3       010VISTA          000000000003600000000036000000000350000000000000000000036000008653700
0202LOTE PADRAO                   ITAUSA      PN         ITSA4       010VISTA          000000000001980000000019800000000180000000000000000000018000000082300
0202LOTE PADRAO                   SID TUBARAO PN *       CSTB4       010VISTA          000000000023100000000231000000002200000000000000000000221000001297000
0202LOTE PADRAO                   V C P       PN *       VCPA4       010VISTA          000000000055500000000555000000005400000000000000000000549000005046200
0202LOTE PADRAO                   BRADESPAR   PN *       BRAP4       010VISTA          000000000001100000000011000000000100000000000000000000010000247154000
0202LOTE PADRAO                   NET         PN         PLIM4       010VISTA          000000000001800000000019000000000177000000000000000000018000001309200
0202LOTE PADRAO                   TELE CTR OESPN * EJ    TCOC4       010VISTA          000000000007000000000072000000000690000000000000000000069600019357500
0202LOTE PADRAO                   GERDAU      PN * EJ    GGBR4       010VISTA          000000000019800000000198000000001910000000000000000000193000001823500
0202LOTE PADRAO                   BRASIL      ON *       BBAS3       010VISTA          000000000007000000000071000000000700000000000000000000070000002341300
