00BDIN9999BOVESPA 99992001041720010417
0101IBOVESPA                      0144430142230145550000000000000000002001041700000020010417014337000000
0202LOTE PADRAO                   EMBRATEL PARPN *       EBTP4       010VISTA          000000000020500000000216000000002010000000000000000000203000078582700
0202LOTE PADRAO                   EMBRATEL PARON *       EBTP3       010VISTA          000000000020300000000206000000001980000000000000000000201000029784700
0202LOTE PADRAO                   TRAN PAULISTPN * EJ    TRPL4       010VISTA          000000000007000000000070000000000671000000000000000000070000012944100
0202LOTE PADRAO                   TELEMAR     PN * EJ    TNLP4       010VISTA          000000000035750000000360000000003430000000000000000000348000229783000
0202LOTE PADRAO                   ITAUBANCO   PN * EJ    ITAU4       010VISTA          000000000170500000001720000000016700000000000000000001680000001679600
0202LOTE PADRAO                   TELEMAR     ON * EJ    TNLP3       010VISTA          000000000034300000000343000000003180000000000000000000321000010627400
0202LOTE PADRAO                   SID NACIONALON *       CSNA3       010VISTA          000000000048000000000488000000004750000000000000000000482000009838700
0202LOTE PADRAO                   TELE LEST CLPN *       TLCP4       010VISTA          000000000001600000000017000000000160000000000000000000016900065216200
0202LOTE PADRAO                   IPIRANGA PETPN *       PTIP4       010VISTA          000000000015200000000161000000001520000000000000000000160000001430000
0202LOTE PADRAO                   BRASIL T PARPN *       BRTP4       010VISTA          000000000018600000000188000000001760000000000000000000178000104421000
0202LOTE PADRAO                   BRASIL T PARON *       BRTP3       010VISTA          000000000017500000000178000000001750000000000000000000178000010998000
0202LOTE PADRAO                   ACESITA     PN *       ACES4       010VISTA          000000000000930000000009400000000088000000000000000000008900224887000
0202LOTE PADRAO                   PETROBRAS   PN         PETR4       010VISTA          000000000048600000000495000000004830000000000000000000493000000089000
0202LOTE PADRAO                   ELETROBRAS  PNB*       ELET6       010VISTA          000000000034100000000342000000003300000000000000000000331000030338400
0202LOTE PADRAO                   PETROBRAS   ON         PETR3       010VISTA          000000000052500000000535000000005250000000000000000000533000000021800
0202LOTE PADRAO                   COMGAS      PNA*       CGAS5       010VISTA          000000000147900000001479000000013510000000000000000001425000004407300
0202LOTE PADRAO                   SOUZA CRUZ  ON EJ      CRUZ3       010VISTA          000000000010600000000114000000001060000000000000000000114000000020800
0202LOTE PADRAO                   CELESC      PNB        CLSC6       010VISTA          000000000000560000000005700000000053000000000000000000005400000151100
0202LOTE PADRAO                   ELETROBRAS  ON *       ELET3       010VISTA          000000000036000000000372000000003600000000000000000000365000015163000
0202LOTE PADRAO                   BRADESCO    PN * EJ    BBDC4       010VISTA          000000000011500000000116000000001130000000000000000000113000122185000
0202LOTE PADRAO                   CESP        PN *       CESP4       010VISTA          000000000019500000000200000000001890000000000000000000195000017625900
0202LOTE PADRAO                   LIGHT       ON *       LIGH3       010VISTA          000000000178000000001940000000017300000000000000000001730000000824200
0202LOTE PADRAO                   TELESP CL PAPN *       TSPP4       010VISTA          000000000014100000000144000000001370000000000000000000139000155070000
0202LOTE PADRAO                   VALE R DOCE PNA        VALE5       010VISTA          000000000051300000000522000000005120000000000000000000522000000067900
0202LOTE PADRAO                   COPEL       PNB*       CPLE6       010VISTA          000000000017300000000173000000001630000000000000000000170000031291800
0202LOTE PADRAO                   VALE R DOCE ON         VALE3       010VISTA          000000000048300000000490000000004820000000000000000000482000000000900
0202LOTE PADRAO                   ARACRUZ     PNB        ARCZ6       010VISTA          000000000002750000000027000000000273000000000000000000027700000103900
0202LOTE PADRAO                   TELEMIG PARTPN *       TMCP4       010VISTA          000000000004200000000042000000000390000000000000000000039000205440000
0202LOTE PADRAO                   BRASIL TELECPN *       BRTO4       010VISTA          000000000012700000000129000000001240000000000000000000127000027394100
0202LOTE PADRAO                   SABESP      ON *       SBSP3       010VISTA          000000000188900000001900000000018600000000000000000001878000001186700
0202LOTE PADRAO                   BRASKEM     PNA*       BRKM5       010VISTA          000000000565000000005900000000056500000000000000000005850000000163000
0202LOTE PADRAO                   EMBRAER     PN EJ      EMBR4       010VISTA          000000000022300000000228000000002200000000000000000000228000000024900
0202LOTE PADRAO                   TELESP      PN * EJ    TLPP4       010VISTA          000000000029300000000295000000002820000000000000000000285000004011800
0202LOTE PADRAO                   EMBRAER     ON EJ      EMBR3       010VISTA          000000000017400000000176000000001730000000000000000000175000000050300
0202LOTE PADRAO                   AMBEV       PN *       AMBV4       010VISTA          000000000486000000004900000000048000000000000000000004800000000955300
0202LOTE PADRAO                   USIMINAS    PNA        USIM5       010VISTA          000000000008750000000090000000000875000000000000000000088000000028200
0202LOTE PADRAO                   ELETROPAULO PN *       ELPL4       010VISTA          000000000078000000000800000000007370000000000000000000737000001457200
0202LOTE PADRAO                   TELE NORD CLPN *       TNEP4       010VISTA          000000000002960000000029000000000280000000000000000000029000072106400
0202LOTE PADRAO                   CEMIG       PN * EJ    CMIG4       010VISTA          000000000026000000000265000000002580000000000000000000261000043111000
0202LOTE PADRAO                   TELE CL SUL PN * EJ    TCSL4       010VISTA          000000000004200000000044000000000420000000000000000000043000186617000
0202LOTE PADRAO                   CEMIG       ON * EJ    CMIG3       010VISTA          000000000025500000000268000000002550000000000000000000266000000580100
0202LOTE PADRAO                   TELE CL SUL ON * EJ    TCSL3       010VISTA          000000000004000000000040000000000390000000000000000000039400043622000
0202LOTE PADRAO                   ITAUSA      PN         ITSA4       010VISTA          000000000001800000000018000000000180000000000000000000018000000193600
0202LOTE PADRAO                   SID TUBARAO PN *       CSTB4       010VISTA          000000000021900000000219000000002100000000000000000000213000005542500
0202LOTE PADRAO                   V C P       PN *       VCPA4       010VISTA          000000000055200000000552000000005200000000000000000000535000001086500
0202LOTE PADRAO                   BRADESPAR   PN *       BRAP4       010VISTA          000000000000980000000009900000000097000000000000000000009800195426000
0202LOTE PADRAO                   NET         PN         PLIM4       010VISTA          000000000001100000000012500000000110000000000000000000011000001099800
0202LOTE PADRAO                   TELE CTR OESPN * EJ    TCOC4       010VISTA          000000000005600000000057900000000530000000000000000000054000045583300
0202LOTE PADRAO                   GERDAU      PN * EJ    GGBR4       010VISTA          000000000018100000000185000000001810000000000000000000183000006179200
0202LOTE PADRAO                   BRASIL      ON *       BBAS3       010VISTA          000000000008800000000090000000000860000000000000000000090000008348000
