00BDIN9999BOVESPA 99992001081520010815
0101IBOVESPA                      0138340136150138560000000000000000002001081500000020010815013659000000
0202LOTE PADRAO                   EMBRATEL PARPN *       EBTP4       010VISTA          000000000011800000000118000000001130000000000000000000115000161118000
0202LOTE PADRAO                   EMBRATEL PARON *       EBTP3       010VISTA          000000000012500000000125000000001200000000000000000000124000051885200
0202LOTE PADRAO                   TRAN PAULISTPN * EJ    TRPL4       010VISTA          000000000006500000000069000000000650000000000000000000066000029462000
0202LOTE PADRAO                   TELEMAR     PN * EJ    TNLP4       010VISTA          000000000031500000000318000000003110000000000000000000311000192758000
0202LOTE PADRAO                   ITAUBANCO   PN * EJ    ITAU4       010VISTA          000000000193500000001935000000018900000000000000000001905000006198500
0202LOTE PADRAO                   TELEMAR     ON * EJ    TNLP3       010VISTA          000000000028500000000288000000002780000000000000000000281000020958900
0202LOTE PADRAO                   SID NACIONALON *       CSNA3       010VISTA          000000000038800000000388000000003670000000000000000000381000040294200
0202LOTE PADRAO                   TELE LEST CLPN *       TLCP4       010VISTA          000000000001500000000016000000000150000000000000000000015000182721000
0202LOTE PADRAO                   IPIRANGA PETPN *       PTIP4       010VISTA          000000000015500000000161000000001540000000000000000000160000006020600
0202LOTE PADRAO                   BRASIL T PARPN *       BRTP4       010VISTA          000000000017300000000173000000001660000000000000000000167000091926700
0202LOTE PADRAO                   BRASIL T PARON *       BRTP3       010VISTA          000000000017000000000173000000001650000000000000000000165000026353300
0202LOTE PADRAO                   ACESITA     PN *       ACES4       010VISTA          000000000000570000000006000000000057000000000000000000005900356940000
0202LOTE PADRAO                   PETROBRAS   PN         PETR4       010VISTA          000000000053500000000547000000005350000000000000000000543000000133800
0202LOTE PADRAO                   ELETROBRAS  PNB*       ELET6       010VISTA          000000000033000000000333000000003190000000000000000000320000075595700
0202LOTE PADRAO                   PETROBRAS   ON         PETR3       010VISTA          000000000057700000000583000000005700000000000000000000578000000037700
0202LOTE PADRAO                   COMGAS      PNA*       CGAS5       010VISTA          000000000135000000001369000000013350000000000000000001356000006103000
0202LOTE PADRAO                   SOUZA CRUZ  ON EJ      CRUZ3       010VISTA          000000000011100000000115000000001100000000000000000000111000000025000
0202LOTE PADRAO                   CELESC      PNB        CLSC6       010VISTA          000000000000460000000004700000000045000000000000000000004600000413500
0202LOTE PADRAO                   ELETROBRAS  ON *       ELET3       010VISTA          000000000037200000000377000000003600000000000000000000370000042669400
0202LOTE PADRAO                   BRADESCO    PN * EJ    BBDC4       010VISTA          000000000012100000000123000000001180000000000000000000119000185249000
0202LOTE PADRAO                   CESP        PN *       CESP4       010VISTA          000000000013600000000136000000001290000000000000000000132000019883800
0202LOTE PADRAO                   LIGHT       ON *       LIGH3       010VISTA          000000000130000000001330000000012675000000000000000001305000000923000
0202LOTE PADRAO                   TELESP CL PAPN *       TSPP4       010VISTA          000000000014500000000150000000001400000000000000000000147000131113000
0202LOTE PADRAO                   VALE R DOCE PNA        VALE5       010VISTA          000000000052500000000526000000005180000000000000000000522500000051100
0202LOTE PADRAO                   COPEL       PNB*       CPLE6       010VISTA          000000000018000000000181000000001750000000000000000000176000035472700
0202LOTE PADRAO                   VALE R DOCE ON         VALE3       010VISTA          000000000052800000000530000000005260000000000000000000526000000001300
0202LOTE PADRAO                   ARACRUZ     PNB        ARCZ6       010VISTA          000000000004000000000042000000000400000000000000000000041000000092300
0202LOTE PADRAO                   TELEMIG PARTPN *       TMCP4       010VISTA          000000000004100000000042000000000400000000000000000000040000103983000
0202LOTE PADRAO                   BRASIL TELECPN *       BRTO4       010VISTA          000000000011500000000116000000001120000000000000000000113000086987600
0202LOTE PADRAO                   SABESP      ON *       SBSP3       010VISTA          000000000173500000001770000000017200000000000000000001725000001772500
0202LOTE PADRAO                   BRASKEM     PNA*       BRKM5       010VISTA          000000000521900000005300000000051200000000000000000005200000000290000
0202LOTE PADRAO                   EMBRAER     PN EJ      EMBR4       010VISTA          000000000021600000000216000000001880000000000000000000191000000269000
0202LOTE PADRAO                   TELESP      PN * EJ    TLPP4       010VISTA          000000000026000000000263000000002550000000000000000000263000042165300
0202LOTE PADRAO                   EMBRAER     ON EJ      EMBR3       010VISTA          000000000017100000000171000000001550000000000000000000155000000107700
0202LOTE PADRAO                   AMBEV       PN *       AMBV4       010VISTA          000000000517000000005199000000050500000000000000000005080000001179400
0202LOTE PADRAO                   USIMINAS    PNA        USIM5       010VISTA          000000000006400000000064000000000625000000000000000000063000000038200
0202LOTE PADRAO                   ELETROPAULO PN *       ELPL4       010VISTA          000000000068500000000749000000006850000000000000000000730000010715700
0202LOTE PADRAO                   TELE NORD CLPN *       TNEP4       010VISTA          000000000003100000000032000000000310000000000000000000031000149882000
0202LOTE PADRAO                   CEMIG       PN * EJ    CMIG4       010VISTA          000000000028300000000291000000002780000000000000000000280000060556600
0202LOTE PADRAO                   TELE CL SUL PN * EJ    TCSL4       010VISTA          000000000003900000000040000000000370000000000000000000038000121988000
0202LOTE PADRAO                   CEMIG       ON * EJ    CMIG3       010VISTA          000000000026000000000284000000002600000000000000000000281000010081400
0202LOTE PADRAO                   TELE CL SUL ON * EJ    TCSL3       010VISTA          000000000003400000000034000000000310000000000000000000031000057252500
0202LOTE PADRAO                   ITAUSA      PN         ITSA4       010VISTA          000000000002000000000021000000000200000000000000000000020000000426400
0202LOTE PADRAO                   SID TUBARAO PN *       CSTB4       010VISTA          000000000021000000000217000000002100000000000000000000213000007744600
0202LOTE PADRAO                   V C P       PN *       VCPA4       010VISTA          000000000068000000000720000000006800000000000000000000698000004859300
0202LOTE PADRAO                   BRADESPAR   PN *       BRAP4       010VISTA          000000000000770000000007800000000076000000000000000000007700599104000
0202LOTE PADRAO                   NET         PN         PLIM4       010VISTA          000000000001000000000010000000000094000000000000000000009600004677600
0202LOTE PADRAO                   TELE CTR OESPN * EJ    TCOC4       010VISTA          000000000005900000000060000000000590000000000000000000059000074277700
0202LOTE PADRAO                   GERDAU      PN * EJ    GGBR4       010VISTA          000000000017200000000172000000001660000000000000000000169000011989200
0202LOTE PADRAO                   BRASIL      ON *       BBAS3       010VISTA          000000000009900000000099000000000950000000000000000000098000010922000
