00BDIN9999BOVESPA 99992001091020010910
0101IBOVESPA                      0122380119010122380000000000000000002001091000000020010910011922000000
0202LOTE PADRAO                   EMBRATEL PARPN *       EBTP4       010VISTA          000000000010000000000103000000000960000000000000000000096000067904300
0202LOTE PADRAO                   EMBRATEL PARON *       EBTP3       010VISTA          000000000010000000000106000000001000000000000000000000101000024567500
0202LOTE PADRAO                   TRAN PAULISTPN * EJ    TRPL4       010VISTA          000000000006300000000065000000000550000000000000000000059000013833500
0202LOTE PADRAO                   TELEMAR     PN * EJ    TNLP4       010VISTA          000000000025800000000260000000002490000000000000000000249000336539000
0202LOTE PADRAO                   ITAUBANCO   PN * EJ    ITAU4       010VISTA          000000000169800000001698000000016700000000000000000001670000004498000
0202LOTE PADRAO                   TELEMAR     ON * EJ    TNLP3       010VISTA          000000000023500000000240000000002350000000000000000000235000023444400
0202LOTE PADRAO                   SID NACIONALON *       CSNA3       010VISTA          000000000035700000000360000000003550000000000000000000355000001990500
0202LOTE PADRAO                   TELE LEST CLPN *       TLCP4       010VISTA          000000000001000000000010000000000099000000000000000000010000152437000
0202LOTE PADRAO                   CRT CELULAR PNA* EJ    CRTP5       010VISTA          000000000720000000007400000000069000000000000000000007350000000899100
0202LOTE PADRAO                   IPIRANGA PETPN *       PTIP4       010VISTA          000000000012000000000120000000001100000000000000000000113000001065900
0202LOTE PADRAO                   BRASIL T PARPN *       BRTP4       010VISTA          000000000012800000000133000000001280000000000000000000130000096592200
0202LOTE PADRAO                   BRASIL T PARON *       BRTP3       010VISTA          000000000011900000000120000000001150000000000000000000115000003623900
0202LOTE PADRAO                   ACESITA     PN *       ACES4       010VISTA          000000000000520000000005200000000049000000000000000000005000101717000
0202LOTE PADRAO                   PETROBRAS   PN         PETR4       010VISTA          000000000055000000000557000000005470000000000000000000548000000078100
0202LOTE PADRAO                   ELETROBRAS  PNB*       ELET6       010VISTA          000000000032600000000331000000003220000000000000000000330000017664600
0202LOTE PADRAO                   PETROBRAS   ON         PETR3       010VISTA          000000000057300000000585000000005680000000000000000000570000000031700
0202LOTE PADRAO                   COMGAS      PNA*       CGAS5       010VISTA          000000000124900000001249000000011700000000000000000001180000000724000
0202LOTE PADRAO                   SOUZA CRUZ  ON EJ      CRUZ3       010VISTA          000000000011800000000119000000001160000000000000000000119000000009900
0202LOTE PADRAO                   ELETROBRAS  ON *       ELET3       010VISTA          000000000037000000000383000000003700000000000000000000379000016381300
0202LOTE PADRAO                   CELESC      PNB        CLSC6       010VISTA          000000000000410000000004100000000040000000000000000000004100000073100
0202LOTE PADRAO                   BRADESCO    PN * EJ    BBDC4       010VISTA          000000000011100000000112000000001090000000000000000000110000066430300
0202LOTE PADRAO                   CESP        PN *       CESP4       010VISTA          000000000012500000000130000000001230000000000000000000130000005006900
0202LOTE PADRAO                   LIGHT       ON *       LIGH3       010VISTA          000000000122000000001221000000012200000000000000000001220000000070600
0202LOTE PADRAO                   TELESP CL PAPN *       TSPP4       010VISTA          000000000007100000000072000000000680000000000000000000070000592328000
0202LOTE PADRAO                   VALE R DOCE PNA        VALE5       010VISTA          000000000051000000000516000000005070000000000000000000515000000051700
0202LOTE PADRAO                   COPEL       PNB*       CPLE6       010VISTA          000000000017800000000178000000001660000000000000000000166000030453100
0202LOTE PADRAO                   VALE R DOCE ON         VALE3       010VISTA          000000000051000000000525000000005050000000000000000000525000000002700
0202LOTE PADRAO                   ARACRUZ     PNB        ARCZ6       010VISTA          000000000004400000000044000000000420000000000000000000043000000007500
0202LOTE PADRAO                   TELEMIG PARTPN *       TMCP4       010VISTA          000000000003200000000033000000000320000000000000000000033000037578100
0202LOTE PADRAO                   BRASIL TELECPN *       BRTO4       010VISTA          000000000009100000000091000000000890000000000000000000090000086743200
0202LOTE PADRAO                   SABESP      ON *       SBSP3       010VISTA          000000000155000000001600000000015200000000000000000001530000000681300
0202LOTE PADRAO                   BRASKEM     PNA*       BRKM5       010VISTA          000000000410000000004250000000041000000000000000000004200000000127100
0202LOTE PADRAO                   EMBRAER     PN EJ      EMBR4       010VISTA          000000000016500000000165000000001540000000000000000000154000000034000
0202LOTE PADRAO                   TELESP      PN * EJ    TLPP4       010VISTA          000000000024100000000241000000002300000000000000000000233000006172000
0202LOTE PADRAO                   EMBRAER     ON EJ      EMBR3       010VISTA          000000000013500000000135000000001250000000000000000000125000000016200
0202LOTE PADRAO                   AMBEV       PN *       AMBV4       010VISTA          000000000485000000004850000000046990000000000000000004730000000773500
0202LOTE PADRAO                   USIMINAS    PNA        USIM5       010VISTA          000000000005700000000057900000000560000000000000000000057000000025700
0202LOTE PADRAO                   ELETROPAULO PN *       ELPL4       010VISTA          000000000071900000000749000000007190000000000000000000734000001209000
0202LOTE PADRAO                   TELE NORD CLPN *       TNEP4       010VISTA          000000000002700000000027000000000269000000000000000000027000068446100
0202LOTE PADRAO                   CEMIG       PN * EJ    CMIG4       010VISTA          000000000028500000000285000000002700000000000000000000270000020274700
0202LOTE PADRAO                   TELE CL SUL PN * EJ    TCSL4       010VISTA          000000000002800000000030000000000270000000000000000000030000105008000
0202LOTE PADRAO                   CEMIG       ON * EJ    CMIG3       010VISTA          000000000028000000000280000000002650000000000000000000275000000870400
0202LOTE PADRAO                   TELE CL SUL ON * EJ    TCSL3       010VISTA          000000000002500000000026000000000230000000000000000000025200020896800
0202LOTE PADRAO                   ITAUSA      PN         ITSA4       010VISTA          000000000001800000000018000000000180000000000000000000018000000209300
0202LOTE PADRAO                   SID TUBARAO PN *       CSTB4       010VISTA          000000000019400000000198000000001940000000000000000000197500002681700
0202LOTE PADRAO                   V C P       PN *       VCPA4       010VISTA          000000000071800000000718000000006950000000000000000000700000000650000
0202LOTE PADRAO                   BRADESPAR   PN *       BRAP4       010VISTA          000000000000640000000006500000000060000000000000000000006100161484000
0202LOTE PADRAO                   NET         PN         PLIM4       010VISTA          000000000000840000000008700000000083000000000000000000008400000539800
0202LOTE PADRAO                   TELE CTR OESPN * EJ    TCOC4       010VISTA          000000000004400000000044000000000420000000000000000000043000056462200
0202LOTE PADRAO                   GERDAU      PN * EJ    GGBR4       010VISTA          000000000016000000000160000000001550000000000000000000155000002855700
0202LOTE PADRAO                   BRASIL      ON *       BBAS3       010VISTA          000000000009300000000095000000000910000000000000000000092500004835800
