00BDIN9999BOVESPA 99992001072420010724
0101IBOVESPA                      0140490137250141060000000000000000002001072400000020010724013738000000
0202LOTE PADRAO                   EMBRATEL PARPN *       EBTP4       010VISTA          000000000015100000000154000000001420000000000000000000143000105804000
0202LOTE PADRAO                   EMBRATEL PARON *       EBTP3       010VISTA          000000000015600000000156000000001440000000000000000000144000024088700
0202LOTE PADRAO                   TRAN PAULISTPN * EJ    TRPL4       010VISTA          000000000006200000000066000000000620000000000000000000064000047756400
0202LOTE PADRAO                   TELEMAR     PN * EJ    TNLP4       010VISTA          000000000032750000000332000000003180000000000000000000321000238796000
0202LOTE PADRAO                   ITAUBANCO   PN * EJ    ITAU4       010VISTA          000000000188000000001900000000018700000000000000000001879000004648400
0202LOTE PADRAO                   TELEMAR     ON * EJ    TNLP3       010VISTA          000000000027900000000280000000002660000000000000000000268000018847000
0202LOTE PADRAO                   SID NACIONALON *       CSNA3       010VISTA          000000000043000000000430000000004200000000000000000000420000002498500
0202LOTE PADRAO                   TELE LEST CLPN *       TLCP4       010VISTA          000000000001700000000017000000000160000000000000000000016000056714400
0202LOTE PADRAO                   CRT CELULAR PNA* EJ    CRTP5       010VISTA          000000000830000000008500000000083000000000000000000008450000000272500
0202LOTE PADRAO                   IPIRANGA PETPN *       PTIP4       010VISTA          000000000016400000000166000000001600000000000000000000164000003438000
0202LOTE PADRAO                   BRASIL T PARPN *       BRTP4       010VISTA          000000000018800000000188000000001810000000000000000000181000046050100
0202LOTE PADRAO                   BRASIL T PARON *       BRTP3       010VISTA          000000000017500000000175000000001680000000000000000000173000011825600
0202LOTE PADRAO                   ACESITA     PN *       ACES4       010VISTA          000000000000610000000006300000000060000000000000000000006100168165000
0202LOTE PADRAO                   PETROBRAS   PN         PETR4       010VISTA          000000000054000000000545000000005310000000000000000000535000000112500
0202LOTE PADRAO                   ELETROBRAS  PNB*       ELET6       010VISTA          000000000027300000000281000000002720000000000000000000274000062901100
0202LOTE PADRAO                   PETROBRAS   ON         PETR3       010VISTA          000000000057200000000578000000005670000000000000000000573000000027400
0202LOTE PADRAO                   COMGAS      PNA*       CGAS5       010VISTA          000000000136800000001368000000013290000000000000000001360000001588500
0202LOTE PADRAO                   SOUZA CRUZ  ON EJ      CRUZ3       010VISTA          000000000011300000000114000000001100000000000000000000112500000024700
0202LOTE PADRAO                   ELETROBRAS  ON *       ELET3       010VISTA          000000000032100000000325000000003210000000000000000000323000036929200
0202LOTE PADRAO                   CELESC      PNB        CLSC6       010VISTA          000000000000440000000004500000000043000000000000000000004400000122900
0202LOTE PADRAO                   BRADESCO    PN * EJ    BBDC4       010VISTA          000000000011750000000118000000001140000000000000000000114000110131000
0202LOTE PADRAO                   CESP        PN *       CESP4       010VISTA          000000000013100000000133000000001250000000000000000000128000009938600
0202LOTE PADRAO                   LIGHT       ON *       LIGH3       010VISTA          000000000125000000001250000000011700000000000000000001170000000145100
0202LOTE PADRAO                   TELESP CL PAPN *       TSPP4       010VISTA          000000000014500000000146000000001425000000000000000000143000087464900
0202LOTE PADRAO                   VALE R DOCE PNA        VALE5       010VISTA          000000000052700000000528000000005160000000000000000000518000000025900
0202LOTE PADRAO                   COPEL       PNB*       CPLE6       010VISTA          000000000017000000000180000000001700000000000000000000172000029026300
0202LOTE PADRAO                   VALE R DOCE ON         VALE3       010VISTA          000000000052000000000520000000005070000000000000000000507000000014800
0202LOTE PADRAO                   ARACRUZ     PNB        ARCZ6       010VISTA          000000000003800000000038000000000380000000000000000000038000000012000
0202LOTE PADRAO                   TELEMIG PARTPN *       TMCP4       010VISTA          000000000004500000000046000000000440000000000000000000045000070796000
0202LOTE PADRAO                   BRASIL TELECPN *       BRTO4       010VISTA          000000000013000000000131000000001250000000000000000000125000059860400
0202LOTE PADRAO                   SABESP      ON *       SBSP3       010VISTA          000000000163900000001639000000015910000000000000000001595000001912100
0202LOTE PADRAO                   BRASKEM     PNA*       BRKM5       010VISTA          000000000534000000005450000000052700000000000000000005380000000366000
0202LOTE PADRAO                   EMBRAER     PN EJ      EMBR4       010VISTA          000000000022600000000228000000002260000000000000000000226000000013900
0202LOTE PADRAO                   TELESP      PN * EJ    TLPP4       010VISTA          000000000025800000000258000000002500000000000000000000255000007576100
0202LOTE PADRAO                   EMBRAER     ON EJ      EMBR3       010VISTA          000000000017800000000178000000001760000000000000000000177000000016900
0202LOTE PADRAO                   AMBEV       PN *       AMBV4       010VISTA          000000000502000000005100000000050000000000000000000005000000002148100
0202LOTE PADRAO                   USIMINAS    PNA        USIM5       010VISTA          000000000006400000000065000000000630000000000000000000063000000021700
0202LOTE PADRAO                   ELETROPAULO PN *       ELPL4       010VISTA          000000000067400000000674000000006010000000000000000000624000000461500
0202LOTE PADRAO                   TELE NORD CLPN *       TNEP4       010VISTA          000000000003700000000038100000000360000000000000000000036900085031000
0202LOTE PADRAO                   CEMIG       PN * EJ    CMIG4       010VISTA          000000000027100000000276000000002620000000000000000000262000019617600
0202LOTE PADRAO                   TELE CL SUL PN * EJ    TCSL4       010VISTA          000000000004100000000042000000000400000000000000000000040000041793700
0202LOTE PADRAO                   CEMIG       ON * EJ    CMIG3       010VISTA          000000000026000000000260000000002460000000000000000000250000002275400
0202LOTE PADRAO                   TELE CL SUL ON * EJ    TCSL3       010VISTA          000000000003500000000035400000000320000000000000000000033000027800700
0202LOTE PADRAO                   ITAUSA      PN         ITSA4       010VISTA          000000000002000000000020000000000200000000000000000000020000000096500
0202LOTE PADRAO                   SID TUBARAO PN *       CSTB4       010VISTA          000000000020600000000206000000002000000000000000000000200000006380700
0202LOTE PADRAO                   V C P       PN *       VCPA4       010VISTA          000000000064000000000640000000006100000000000000000000612000002380100
0202LOTE PADRAO                   BRADESPAR   PN *       BRAP4       010VISTA          000000000000830000000008400000000080000000000000000000008000115301000
0202LOTE PADRAO                   NET         PN         PLIM4       010VISTA          000000000001000000000010000000000100000000000000000000010000001403700
0202LOTE PADRAO                   TELE CTR OESPN * EJ    TCOC4       010VISTA          000000000006100000000061000000000590000000000000000000059000056815700
0202LOTE PADRAO                   GERDAU      PN * EJ    GGBR4       010VISTA          000000000017000000000173000000001610000000000000000000167000006971600
0202LOTE PADRAO                   BRASIL      ON *       BBAS3       010VISTA          000000000009400000000095000000000900000000000000000000090000002852800
