00BDIN9999BOVESPA 99992001100220011002
0101IBOVESPA                      0104920102990105560000000000000000002001100200000020011002010351000000
0202LOTE PADRAO                   EMBRATEL PARPN *       EBTP4       010VISTA          000000000007200000000074000000000710000000000000000000072500091425800
0202LOTE PADRAO                   EMBRATEL PARON *       EBTP3       010VISTA          000000000008000000000080000000000779000000000000000000079000025136800
0202LOTE PADRAO                   TRAN PAULISTPN * EJ    TRPL4       010VISTA          000000000004300000000044000000000420000000000000000000042000011250900
0202LOTE PADRAO                   TELEMAR     PN * EJ    TNLP4       010VISTA          000000000024300000000248000000002410000000000000000000247000272670000
0202LOTE PADRAO                   ITAUBANCO   PN * EJ    ITAU4       010VISTA          000000000163600000001640000000015850000000000000000001585000012271000
0202LOTE PADRAO                   TELEMAR     ON * EJ    TNLP3       010VISTA          000000000022600000000226000000002190000000000000000000219000017693700
0202LOTE PADRAO                   SID NACIONALON *       CSNA3       010VISTA          000000000026600000000266000000002630000000000000000000264000008602200
0202LOTE PADRAO                   TELE LEST CLPN *       TLCP4       010VISTA          000000000000610000000006300000000061000000000000000000006200092734600
0202LOTE PADRAO                   CRT CELULAR PNA* EJ    CRTP5       010VISTA          000000000335000000003350000000032100000000000000000003270000000814900
0202LOTE PADRAO                   IPIRANGA PETPN *       PTIP4       010VISTA          000000000011500000000115000000001110000000000000000000113000000510900
0202LOTE PADRAO                   BRASIL T PARPN *       BRTP4       010VISTA          000000000015400000000156000000001460000000000000000000149000110256000
0202LOTE PADRAO                   BRASIL T PARON *       BRTP3       010VISTA          000000000014800000000150000000001410000000000000000000143000035197200
0202LOTE PADRAO                   ACESITA     PN *       ACES4       010VISTA          000000000000420000000004300000000041000000000000000000004100071492900
0202LOTE PADRAO                   PETROBRAS   PN         PETR4       010VISTA          000000000049500000000496000000004860000000000000000000492000000072500
0202LOTE PADRAO                   ELETROBRAS  PNB*       ELET6       010VISTA          000000000028800000000288000000002710000000000000000000276000048333200
0202LOTE PADRAO                   PETROBRAS   ON         PETR3       010VISTA          000000000050200000000510000000005000000000000000000000502000000012100
0202LOTE PADRAO                   COMGAS      PNA*       CGAS5       010VISTA          000000000078700000000787000000007600000000000000000000770000000518500
0202LOTE PADRAO                   SOUZA CRUZ  ON EJ      CRUZ3       010VISTA          000000000010900000000112000000001060000000000000000000108000000025200
0202LOTE PADRAO                   ELETROBRAS  ON *       ELET3       010VISTA          000000000030000000000308000000002900000000000000000000291000023458400
0202LOTE PADRAO                   CELESC      PNB        CLSC6       010VISTA          000000000000360000000003600000000034000000000000000000003600000123600
0202LOTE PADRAO                   BRADESCO    PN * EJ    BBDC4       010VISTA          000000000010600000000106000000001030000000000000000000104000123954000
0202LOTE PADRAO                   CESP        PN *       CESP4       010VISTA          000000000007500000000076000000000720000000000000000000072000018081300
0202LOTE PADRAO                   LIGHT       ON *       LIGH3       010VISTA          000000000076000000000760000000007350000000000000000000740000000884500
0202LOTE PADRAO                   TELESP CL PAPN *       TSPP4       010VISTA          000000000005500000000057000000000540000000000000000000055000140027000
0202LOTE PADRAO                   VALE R DOCE PNA        VALE5       010VISTA          000000000052700000000528000000005230000000000000000000526000000047600
0202LOTE PADRAO                   COPEL       PNB*       CPLE6       010VISTA          000000000014500000000146000000001380000000000000000000140000010462700
0202LOTE PADRAO                   VALE R DOCE ON         VALE3       010VISTA          000000000051000000000516000000005100000000000000000000516000000001600
0202LOTE PADRAO                   ARACRUZ     PNB        ARCZ6       010VISTA          000000000004000000000040000000000390000000000000000000039000000096000
0202LOTE PADRAO                   TELEMIG PARTPN *       TMCP4       010VISTA          000000000002800000000030000000000280000000000000000000029000069449000
0202LOTE PADRAO                   BRASIL TELECPN *       BRTO4       010VISTA          000000000010250000000105000000000990000000000000000000101000070068900
0202LOTE PADRAO                   SABESP      ON *       SBSP3       010VISTA          000000000106000000001080000000010200000000000000000001040000001036600
0202LOTE PADRAO                   BRASKEM     PNA*       BRKM5       010VISTA          000000000335000000003440000000033300000000000000000003381000000153300
0202LOTE PADRAO                   EMBRAER     PN EJ      EMBR4       010VISTA          000000000007600000000081000000000760000000000000000000081000000087400
0202LOTE PADRAO                   TELESP      PN * EJ    TLPP4       010VISTA          000000000022000000000221000000002160000000000000000000219000004439300
0202LOTE PADRAO                   EMBRAER     ON EJ      EMBR3       010VISTA          000000000006750000000072000000000660000000000000000000070000000017700
0202LOTE PADRAO                   AMBEV       PN *       AMBV4       010VISTA          000000000434000000004400000000041700000000000000000004199000003118700
0202LOTE PADRAO                   USIMINAS    PNA        USIM5       010VISTA          000000000003960000000039800000000370000000000000000000038100000036300
0202LOTE PADRAO                   ELETROPAULO PN *       ELPL4       010VISTA          000000000057000000000572000000005400000000000000000000555000004199300
0202LOTE PADRAO                   TELE NORD CLPN *       TNEP4       010VISTA          000000000002300000000023000000000220000000000000000000022000067219500
0202LOTE PADRAO                   CEMIG       PN * EJ    CMIG4       010VISTA          000000000024100000000246000000002400000000000000000000245000019758400
0202LOTE PADRAO                   TELE CL SUL PN * EJ    TCSL4       010VISTA          000000000002700000000027500000000260000000000000000000026000049073600
0202LOTE PADRAO                   CEMIG       ON * EJ    CMIG3       010VISTA          000000000024800000000250000000002350000000000000000000249000002148300
0202LOTE PADRAO                   TELE CL SUL ON * EJ    TCSL3       010VISTA          000000000002300000000023000000000220000000000000000000023000018577800
0202LOTE PADRAO                   ITAUSA      PN         ITSA4       010VISTA          000000000001790000000018000000000174000000000000000000017500000555000
0202LOTE PADRAO                   SID TUBARAO PN *       CSTB4       010VISTA          000000000015100000000151000000001400000000000000000000141000004063500
0202LOTE PADRAO                   V C P       PN *       VCPA4       010VISTA          000000000070000000000710000000006970000000000000000000697000002203900
0202LOTE PADRAO                   BRADESPAR   PN *       BRAP4       010VISTA          000000000000500000000005200000000050000000000000000000005100112437000
0202LOTE PADRAO                   NET         PN         PLIM4       010VISTA          000000000000610000000006200000000059000000000000000000005900001015400
0202LOTE PADRAO                   TELE CTR OESPN * EJ    TCOC4       010VISTA          000000000004500000000045000000000420000000000000000000045000044356300
0202LOTE PADRAO                   GERDAU      PN * EJ    GGBR4       010VISTA          000000000013500000000135000000001300000000000000000000133000004756800
0202LOTE PADRAO                   BRASIL      ON *       BBAS3       010VISTA          000000000007000000000071000000000696000000000000000000070000008655100
