00BDIN9999BOVESPA 99992001080820010808
0101IBOVESPA                      0140360139170141130000000000000000002001080800000020010808013919000000
0202LOTE PADRAO                   EMBRATEL PARPN *       EBTP4       010VISTA          000000000012800000000129000000001210000000000000000000121000119918000
0202LOTE PADRAO                   EMBRATEL PARON *       EBTP3       010VISTA          000000000013800000000138000000001250000000000000000000126000047580600
0202LOTE PADRAO                   TRAN PAULISTPN * EJ    TRPL4       010VISTA          000000000006400000000065000000000640000000000000000000064000008957000
0202LOTE PADRAO                   TELEMAR     PN * EJ    TNLP4       010VISTA          000000000032700000000332000000003240000000000000000000324000208004000
0202LOTE PADRAO                   ITAUBANCO   PN * EJ    ITAU4       010VISTA          000000000195000000001970000000019490000000000000000001970000006666300
0202LOTE PADRAO                   TELEMAR     ON * EJ    TNLP3       010VISTA          000000000029600000000301000000002910000000000000000000298000034696700
0202LOTE PADRAO                   SID NACIONALON *       CSNA3       010VISTA          000000000038500000000395000000003850000000000000000000395000004336000
0202LOTE PADRAO                   TELE LEST CLPN *       TLCP4       010VISTA          000000000001550000000015000000000153000000000000000000015500050640600
0202LOTE PADRAO                   CRT CELULAR PNA* EJ    CRTP5       010VISTA          000000000955000000009550000000092000000000000000000009500000000719400
0202LOTE PADRAO                   IPIRANGA PETPN *       PTIP4       010VISTA          000000000015300000000157500000001530000000000000000000157500001735000
0202LOTE PADRAO                   BRASIL T PARPN *       BRTP4       010VISTA          000000000018800000000188000000001800000000000000000000180000075827500
0202LOTE PADRAO                   BRASIL T PARON *       BRTP3       010VISTA          000000000018500000000186000000001770000000000000000000177000016927400
0202LOTE PADRAO                   ACESITA     PN *       ACES4       010VISTA          000000000000570000000005900000000057000000000000000000005700127430000
0202LOTE PADRAO                   PETROBRAS   PN         PETR4       010VISTA          000000000053200000000536000000005270000000000000000000528000000090700
0202LOTE PADRAO                   ELETROBRAS  PNB*       ELET6       010VISTA          000000000031500000000321000000003130000000000000000000313000018896000
0202LOTE PADRAO                   PETROBRAS   ON         PETR3       010VISTA          000000000057600000000582000000005750000000000000000000575000000033300
0202LOTE PADRAO                   COMGAS      PNA*       CGAS5       010VISTA          000000000135000000001350000000013200000000000000000001330000000748200
0202LOTE PADRAO                   SOUZA CRUZ  ON EJ      CRUZ3       010VISTA          000000000010500000000108000000001040000000000000000000107500000006900
0202LOTE PADRAO                   ELETROBRAS  ON *       ELET3       010VISTA          000000000036000000000363000000003560000000000000000000356000044355500
0202LOTE PADRAO                   CELESC      PNB        CLSC6       010VISTA          000000000000450000000004600000000044000000000000000000004600000213800
0202LOTE PADRAO                   BRADESCO    PN * EJ    BBDC4       010VISTA          000000000012300000000124000000001220000000000000000000123000179593000
0202LOTE PADRAO                   CESP        PN *       CESP4       010VISTA          000000000013250000000132000000001290000000000000000000132500010571000
0202LOTE PADRAO                   LIGHT       ON *       LIGH3       010VISTA          000000000117900000001235000000011790000000000000000001212500001069100
0202LOTE PADRAO                   TELESP CL PAPN *       TSPP4       010VISTA          000000000014600000000148000000001420000000000000000000142000059263300
0202LOTE PADRAO                   VALE R DOCE PNA        VALE5       010VISTA          000000000052200000000525000000005200000000000000000000522000000080300
0202LOTE PADRAO                   COPEL       PNB*       CPLE6       010VISTA          000000000017800000000180000000001760000000000000000000178000049212200
0202LOTE PADRAO                   VALE R DOCE ON         VALE3       010VISTA          000000000052200000000522000000005210000000000000000000522000000011200
0202LOTE PADRAO                   ARACRUZ     PNB        ARCZ6       010VISTA          000000000003900000000040000000000380000000000000000000039000000030300
0202LOTE PADRAO                   TELEMIG PARTPN *       TMCP4       010VISTA          000000000004200000000042000000000410000000000000000000042000042905000
0202LOTE PADRAO                   BRASIL TELECPN *       BRTO4       010VISTA          000000000012700000000127500000001210000000000000000000122500038207600
0202LOTE PADRAO                   SABESP      ON *       SBSP3       010VISTA          000000000168500000001762000000016850000000000000000001730000000622000
0202LOTE PADRAO                   BRASKEM     PNA*       BRKM5       010VISTA          000000000510000000005200000000050700000000000000000005080000000433400
0202LOTE PADRAO                   EMBRAER     PN EJ      EMBR4       010VISTA          000000000022800000000228000000002250000000000000000000227500000018800
0202LOTE PADRAO                   TELESP      PN * EJ    TLPP4       010VISTA          000000000024900000000251000000002480000000000000000000249000007246900
0202LOTE PADRAO                   EMBRAER     ON EJ      EMBR3       010VISTA          000000000017900000000180000000001750000000000000000000178000000013500
0202LOTE PADRAO                   AMBEV       PN *       AMBV4       010VISTA          000000000512000000005189000000050900000000000000000005160000001160700
0202LOTE PADRAO                   USIMINAS    PNA        USIM5       010VISTA          000000000006400000000064000000000630000000000000000000064000000019600
0202LOTE PADRAO                   ELETROPAULO PN *       ELPL4       010VISTA          000000000066900000000730000000006690000000000000000000705000012769200
0202LOTE PADRAO                   TELE NORD CLPN *       TNEP4       010VISTA          000000000003400000000035000000000340000000000000000000034000108219000
0202LOTE PADRAO                   CEMIG       PN * EJ    CMIG4       010VISTA          000000000027800000000282000000002700000000000000000000273000028064700
0202LOTE PADRAO                   TELE CL SUL PN * EJ    TCSL4       010VISTA          000000000004000000000041000000000400000000000000000000040000043752200
0202LOTE PADRAO                   CEMIG       ON * EJ    CMIG3       010VISTA          000000000027000000000270000000002630000000000000000000268000000500000
0202LOTE PADRAO                   TELE CL SUL ON * EJ    TCSL3       010VISTA          000000000003500000000036000000000350000000000000000000035000078259600
0202LOTE PADRAO                   ITAUSA      PN         ITSA4       010VISTA          000000000002000000000021000000000200000000000000000000020000000138400
0202LOTE PADRAO                   SID TUBARAO PN *       CSTB4       010VISTA          000000000020800000000215000000002080000000000000000000210000009340000
0202LOTE PADRAO                   V C P       PN *       VCPA4       010VISTA          000000000064900000000664000000006470000000000000000000650000009711100
0202LOTE PADRAO                   BRADESPAR   PN *       BRAP4       010VISTA          000000000000790000000008100000000079000000000000000000008000093570300
0202LOTE PADRAO                   NET         PN         PLIM4       010VISTA          000000000001100000000011000000000100000000000000000000010000001040100
0202LOTE PADRAO                   TELE CTR OESPN * EJ    TCOC4       010VISTA          000000000006100000000061000000000600000000000000000000060000034065200
0202LOTE PADRAO                   GERDAU      PN * EJ    GGBR4       010VISTA          000000000017250000000173000000001690000000000000000000169000004095200
0202LOTE PADRAO                   BRASIL      ON *       BBAS3       010VISTA          000000000009400000000095000000000925000000000000000000095000012390000
