00BDIN9999BOVESPA 99992001082920010829
0101IBOVESPA                      0130400130120131820000000000000000002001082900000020010829013077000000
0202LOTE PADRAO                   EMBRATEL PARPN *       EBTP4       010VISTA          000000000010600000000109000000001050000000000000000000106000131861000
0202LOTE PADRAO                   EMBRATEL PARON *       EBTP3       010VISTA          000000000011400000000118000000001140000000000000000000116000050497100
0202LOTE PADRAO                   TRAN PAULISTPN * EJ    TRPL4       010VISTA          000000000006400000000067000000000630000000000000000000065000013422000
0202LOTE PADRAO                   TELEMAR     PN * EJ    TNLP4       010VISTA          000000000029100000000296000000002900000000000000000000291000125830000
0202LOTE PADRAO                   ITAUBANCO   PN * EJ    ITAU4       010VISTA          000000000181500000001820000000017900000000000000000001812000004544700
0202LOTE PADRAO                   TELEMAR     ON * EJ    TNLP3       010VISTA          000000000026300000000269000000002630000000000000000000268000019727200
0202LOTE PADRAO                   SID NACIONALON *       CSNA3       010VISTA          000000000035200000000357000000003470000000000000000000357000006773000
0202LOTE PADRAO                   TELE LEST CLPN *       TLCP4       010VISTA          000000000001300000000014000000000130000000000000000000013000092858800
0202LOTE PADRAO                   CRT CELULAR PNA* EJ    CRTP5       010VISTA          000000000948000000009550000000093100000000000000000009500000000335100
0202LOTE PADRAO                   IPIRANGA PETPN *       PTIP4       010VISTA          000000000014500000000145000000001430000000000000000000144000000714300
0202LOTE PADRAO                   BRASIL T PARPN *       BRTP4       010VISTA          000000000014900000000150000000001440000000000000000000144000066126100
0202LOTE PADRAO                   BRASIL T PARON *       BRTP3       010VISTA          000000000014400000000145000000001400000000000000000000140000006349000
0202LOTE PADRAO                   ACESITA     PN *       ACES4       010VISTA          000000000000540000000005500000000053000000000000000000005400116074000
0202LOTE PADRAO                   PETROBRAS   PN         PETR4       010VISTA          000000000056000000000570000000005570000000000000000000558000000045600
0202LOTE PADRAO                   ELETROBRAS  PNB*       ELET6       010VISTA          000000000033400000000336000000003260000000000000000000331000022348500
0202LOTE PADRAO                   PETROBRAS   ON         PETR3       010VISTA          000000000058000000000585000000005780000000000000000000582000000018500
0202LOTE PADRAO                   COMGAS      PNA*       CGAS5       010VISTA          000000000130000000001300000000012700000000000000000001290000001540200
0202LOTE PADRAO                   SOUZA CRUZ  ON EJ      CRUZ3       010VISTA          000000000011400000000114000000001130000000000000000000114000000015300
0202LOTE PADRAO                   ELETROBRAS  ON *       ELET3       010VISTA          000000000036700000000376000000003670000000000000000000370000008781200
0202LOTE PADRAO                   CELESC      PNB        CLSC6       010VISTA          000000000000430000000004400000000043000000000000000000004300000231900
0202LOTE PADRAO                   BRADESCO    PN * EJ    BBDC4       010VISTA          000000000011500000000117500000001140000000000000000000114000063900200
0202LOTE PADRAO                   CESP        PN *       CESP4       010VISTA          000000000012000000000120000000001180000000000000000000118000007297100
0202LOTE PADRAO                   LIGHT       ON *       LIGH3       010VISTA          000000000114500000001159000000011450000000000000000001150000000031100
0202LOTE PADRAO                   TELESP CL PAPN *       TSPP4       010VISTA          000000000013500000000136000000001340000000000000000000136000034434200
0202LOTE PADRAO                   VALE R DOCE PNA        VALE5       010VISTA          000000000052700000000527000000005120000000000000000000518000000031700
0202LOTE PADRAO                   COPEL       PNB*       CPLE6       010VISTA          000000000018100000000182500000001800000000000000000000181000010785000
0202LOTE PADRAO                   VALE R DOCE ON         VALE3       010VISTA          000000000051600000000524000000005150000000000000000000515000000001500
0202LOTE PADRAO                   ARACRUZ     PNB        ARCZ6       010VISTA          000000000004300000000045000000000430000000000000000000045000000086000
0202LOTE PADRAO                   TELEMIG PARTPN *       TMCP4       010VISTA          000000000003700000000037300000000350000000000000000000035000039008300
0202LOTE PADRAO                   BRASIL TELECPN *       BRTO4       010VISTA          000000000010300000000104000000001000000000000000000000100000087827700
0202LOTE PADRAO                   SABESP      ON *       SBSP3       010VISTA          000000000171000000001720000000017100000000000000000001710000000380100
0202LOTE PADRAO                   BRASKEM     PNA*       BRKM5       010VISTA          000000000440000000004425000000043500000000000000000004350000000057500
0202LOTE PADRAO                   EMBRAER     PN EJ      EMBR4       010VISTA          000000000018800000000188000000001780000000000000000000178000000033000
0202LOTE PADRAO                   TELESP      PN * EJ    TLPP4       010VISTA          000000000025600000000259000000002560000000000000000000256000021727600
0202LOTE PADRAO                   EMBRAER     ON EJ      EMBR3       010VISTA          000000000014900000000149000000001440000000000000000000145000000016900
0202LOTE PADRAO                   AMBEV       PN *       AMBV4       010VISTA          000000000492000000004940000000048800000000000000000004880000000839800
0202LOTE PADRAO                   USIMINAS    PNA        USIM5       010VISTA          000000000006000000000060000000000570000000000000000000059000000018500
0202LOTE PADRAO                   ELETROPAULO PN *       ELPL4       010VISTA          000000000069000000000712000000006900000000000000000000700000000732300
0202LOTE PADRAO                   TELE NORD CLPN *       TNEP4       010VISTA          000000000002700000000028000000000270000000000000000000027700143150000
0202LOTE PADRAO                   CEMIG       PN * EJ    CMIG4       010VISTA          000000000026100000000271000000002610000000000000000000268000020198800
0202LOTE PADRAO                   TELE CL SUL PN * EJ    TCSL4       010VISTA          000000000003300000000033000000000320000000000000000000033000080024900
0202LOTE PADRAO                   CEMIG       ON * EJ    CMIG3       010VISTA          000000000026800000000268000000002580000000000000000000263000000944000
0202LOTE PADRAO                   TELE CL SUL ON * EJ    TCSL3       010VISTA          000000000002790000000027900000000271000000000000000000027000042675500
0202LOTE PADRAO                   ITAUSA      PN         ITSA4       010VISTA          000000000001980000000019800000000194000000000000000000019700000128000
0202LOTE PADRAO                   SID TUBARAO PN *       CSTB4       010VISTA          000000000020400000000206000000002000000000000000000000204000006546000
0202LOTE PADRAO                   V C P       PN *       VCPA4       010VISTA          000000000069700000000729000000006970000000000000000000729000003914400
0202LOTE PADRAO                   BRADESPAR   PN *       BRAP4       010VISTA          000000000000680000000006900000000067000000000000000000006800142774000
0202LOTE PADRAO                   NET         PN         PLIM4       010VISTA          000000000000930000000009500000000090000000000000000000009200001285200
0202LOTE PADRAO                   TELE CTR OESPN * EJ    TCOC4       010VISTA          000000000005200000000054000000000520000000000000000000052000042917300
0202LOTE PADRAO                   GERDAU      PN * EJ    GGBR4       010VISTA          000000000016300000000166000000001630000000000000000000166000007990300
0202LOTE PADRAO                   BRASIL      ON *       BBAS3       010VISTA          000000000009100000000094000000000910000000000000000000092500003003500
