00BDIN9999BOVESPA 99992001121420011214
0101IBOVESPA                      0131290128940131540000000000000000002001121400000020011214012959000000
0202LOTE PADRAO                   EMBRATEL PARPN *       EBTP4       010VISTA          000000000009600000000096000000000930000000000000000000095000109966000
0202LOTE PADRAO                   EMBRATEL PARON *       EBTP3       010VISTA          000000000010600000000108000000001050000000000000000000106000015213500
0202LOTE PADRAO                   TRAN PAULISTPN * EJ    TRPL4       010VISTA          000000000006300000000064000000000600000000000000000000063000017303400
0202LOTE PADRAO                   TELEMAR     PN * EJ    TNLP4       010VISTA          000000000033700000000341000000003300000000000000000000332000200452000
0202LOTE PADRAO                   ITAUBANCO   PN * EJ    ITAU4       010VISTA          000000000173700000001750000000017300000000000000000001739000014595800
0202LOTE PADRAO                   TELEMAR     ON * EJ    TNLP3       010VISTA          000000000029100000000292500000002830000000000000000000285000011073100
0202LOTE PADRAO                   SID NACIONALON *       CSNA3       010VISTA          000000000037000000000370000000003580000000000000000000365000006640000
0202LOTE PADRAO                   TELE LEST CLPN *       TLCP4       010VISTA          000000000000910000000009100000000088000000000000000000008900233075000
0202LOTE PADRAO                   CRT CELULAR PNA* EJ    CRTP5       010VISTA          000000000460000000004750000000045700000000000000000004699000000494100
0202LOTE PADRAO                   IPIRANGA PETPN *       PTIP4       010VISTA          000000000013000000000130000000001250000000000000000000126000000909100
0202LOTE PADRAO                   BRASIL T PARPN *       BRTP4       010VISTA          000000000018800000000188000000001810000000000000000000183000030659500
0202LOTE PADRAO                   BRASIL T PARON *       BRTP3       010VISTA          000000000018000000000183000000001760000000000000000000183000006540600
0202LOTE PADRAO                   ACESITA     PN *       ACES4       010VISTA          000000000000710000000007300000000070000000000000000000007100205839000
0202LOTE PADRAO                   PETROBRAS   PN         PETR4       010VISTA          000000000047700000000477000000004700000000000000000000475000000100900
0202LOTE PADRAO                   ELETROBRAS  PNB*       ELET6       010VISTA          000000000029800000000301000000002780000000000000000000288000097476500
0202LOTE PADRAO                   PETROBRAS   ON         PETR3       010VISTA          000000000049000000000490000000004800000000000000000000487000000020400
0202LOTE PADRAO                   COMGAS      PNA*       CGAS5       010VISTA          000000000090000000000930000000008700000000000000000000900000001249600
0202LOTE PADRAO                   SOUZA CRUZ  ON EJ      CRUZ3       010VISTA          000000000014000000000140000000001360000000000000000000140000000005900
0202LOTE PADRAO                   ELETROBRAS  ON *       ELET3       010VISTA          000000000031000000000310000000002910000000000000000000298000038776200
0202LOTE PADRAO                   CELESC      PNB        CLSC6       010VISTA          000000000000470000000004800000000045000000000000000000004600000358200
0202LOTE PADRAO                   BRADESCO    PN * EJ    BBDC4       010VISTA          000000000011400000000114000000001120000000000000000000113000219612000
0202LOTE PADRAO                   CESP        PN *       CESP4       010VISTA          000000000017300000000173000000001590000000000000000000159000019947500
0202LOTE PADRAO                   LIGHT       ON *       LIGH3       010VISTA          000000000116700000001187000000011400000000000000000001155000000241600
0202LOTE PADRAO                   TELESP CL PAPN *       TSPP4       010VISTA          000000000007800000000079000000000770000000000000000000078000204334000
0202LOTE PADRAO                   VALE R DOCE PNA        VALE5       010VISTA          000000000051700000000520000000005140000000000000000000518000000015600
0202LOTE PADRAO                   COPEL       PNB*       CPLE6       010VISTA          000000000015500000000158000000001500000000000000000000156000051494500
0202LOTE PADRAO                   VALE R DOCE ON         VALE3       010VISTA          000000000048700000000496000000004820000000000000000000496000000001100
0202LOTE PADRAO                   ARACRUZ     PNB        ARCZ6       010VISTA          000000000004200000000044000000000410000000000000000000042000000038900
0202LOTE PADRAO                   TELEMIG PARTPN *       TMCP4       010VISTA          000000000004000000000040000000000380000000000000000000039000072721100
0202LOTE PADRAO                   BRASIL TELECPN *       BRTO4       010VISTA          000000000012900000000130000000001260000000000000000000128000072165500
0202LOTE PADRAO                   SABESP      ON *       SBSP3       010VISTA          000000000133000000001330000000012650000000000000000001280000002016200
0202LOTE PADRAO                   BRASKEM     PNA*       BRKM5       010VISTA          000000000430000000004369000000042300000000000000000004260000000216600
0202LOTE PADRAO                   EMBRAER     PN EJ      EMBR4       010VISTA          000000000012300000000130000000001230000000000000000000125000000143000
0202LOTE PADRAO                   TELESP      PN * EJ    TLPP4       010VISTA          000000000029000000000307000000002900000000000000000000306000006089200
0202LOTE PADRAO                   EMBRAER     ON EJ      EMBR3       010VISTA          000000000010800000000113000000001080000000000000000000109000000037600
0202LOTE PADRAO                   AMBEV       PN *       AMBV4       010VISTA          000000000480000000004800000000047400000000000000000004760000007763100
0202LOTE PADRAO                   USIMINAS    PNA        USIM5       010VISTA          000000000006000000000062000000000580000000000000000000061000000048900
0202LOTE PADRAO                   ELETROPAULO PN *       ELPL4       010VISTA          000000000078600000000810000000007600000000000000000000795000001554500
0202LOTE PADRAO                   TELE NORD CLPN *       TNEP4       010VISTA          000000000003400000000034000000000325000000000000000000032000043157200
0202LOTE PADRAO                   CEMIG       PN * EJ    CMIG4       010VISTA          000000000031900000000319000000003050000000000000000000313000036785900
0202LOTE PADRAO                   TELE CL SUL PN * EJ    TCSL4       010VISTA          000000000003700000000037000000000360000000000000000000037000054805900
0202LOTE PADRAO                   CEMIG       ON * EJ    CMIG3       010VISTA          000000000029200000000295000000002800000000000000000000280000001490200
0202LOTE PADRAO                   TELE CL SUL ON * EJ    TCSL3       010VISTA          000000000003100000000031000000000300000000000000000000031000037649700
0202LOTE PADRAO                   ITAUSA      PN         ITSA4       010VISTA          000000000002100000000021000000000210000000000000000000021000000149400
0202LOTE PADRAO                   V C P       PN *       VCPA4       010VISTA          000000000082000000000820000000008100000000000000000000810000001560000
0202LOTE PADRAO                   SID TUBARAO PN *       CSTB4       010VISTA          000000000021600000000216000000002090000000000000000000209000003239300
0202LOTE PADRAO                   BRADESPAR   PN *       BRAP4       010VISTA          000000000000860000000008600000000084000000000000000000008400141961000
0202LOTE PADRAO                   NET         PN         PLIM4       010VISTA          000000000000810000000008100000000077000000000000000000007900002404600
0202LOTE PADRAO                   TELE CTR OESPN * EJ    TCOC4       010VISTA          000000000005200000000052000000000510000000000000000000052000076094000
0202LOTE PADRAO                   TELEMAR N L PNA* EJ    TMAR5       010VISTA          000000000055900000000559000000005470000000000000000000551000017456800
0202LOTE PADRAO                   GERDAU      PN * EJ    GGBR4       010VISTA          000000000022300000000225000000002175000000000000000000218000005871700
0202LOTE PADRAO                   BRASIL      ON *       BBAS3       010VISTA          000000000009900000000101000000000980000000000000000000101000004752400
