00BDIN9999BOVESPA 99992001050820010508
0101IBOVESPA                      0148610146560149580000000000000000002001050800000020010508014747000000
0202LOTE PADRAO                   EMBRATEL PARPN *       EBTP4       010VISTA          000000000020100000000203000000001920000000000000000000193000051269000
0202LOTE PADRAO                   EMBRATEL PARON *       EBTP3       010VISTA          000000000018800000000188000000001780000000000000000000178000038200600
0202LOTE PADRAO                   TRAN PAULISTPN * EJ    TRPL4       010VISTA          000000000007200000000072000000000680000000000000000000070000009894800
0202LOTE PADRAO                   TELEMAR     PN * EJ    TNLP4       010VISTA          000000000038300000000387000000003770000000000000000000383000141919000
0202LOTE PADRAO                   ITAUBANCO   PN * EJ    ITAU4       010VISTA          000000000183000000001840000000017700000000000000000001770000007664900
0202LOTE PADRAO                   TELEMAR     ON * EJ    TNLP3       010VISTA          000000000034200000000342000000003300000000000000000000333000014574600
0202LOTE PADRAO                   SID NACIONALON *       CSNA3       010VISTA          000000000051000000000513000000005020000000000000000000503000004089600
0202LOTE PADRAO                   TELE LEST CLPN *       TLCP4       010VISTA          000000000001710000000017600000000160000000000000000000017500152394000
0202LOTE PADRAO                   IPIRANGA PETPN *       PTIP4       010VISTA          000000000016100000000164000000001600000000000000000000160000003622600
0202LOTE PADRAO                   BRASIL T PARPN *       BRTP4       010VISTA          000000000018600000000188000000001830000000000000000000186000042799200
0202LOTE PADRAO                   BRASIL T PARON *       BRTP3       010VISTA          000000000019300000000193000000001810000000000000000000185000008156700
0202LOTE PADRAO                   ACESITA     PN *       ACES4       010VISTA          000000000000830000000008400000000080000000000000000000008000280703000
0202LOTE PADRAO                   PETROBRAS   PN         PETR4       010VISTA          000000000053700000000543000000005300000000000000000000540000000069900
0202LOTE PADRAO                   ELETROBRAS  PNB*       ELET6       010VISTA          000000000031500000000321000000003130000000000000000000319000036054000
0202LOTE PADRAO                   PETROBRAS   ON         PETR3       010VISTA          000000000058800000000590000000005820000000000000000000587000000033300
0202LOTE PADRAO                   COMGAS      PNA*       CGAS5       010VISTA          000000000137900000001390000000013400000000000000000001370000000868400
0202LOTE PADRAO                   SOUZA CRUZ  ON EJ      CRUZ3       010VISTA          000000000010700000000107000000001025000000000000000000104000000023800
0202LOTE PADRAO                   CELESC      PNB        CLSC6       010VISTA          000000000000500000000005000000000048000000000000000000004900000095800
0202LOTE PADRAO                   ELETROBRAS  ON *       ELET3       010VISTA          000000000035700000000362000000003550000000000000000000360000094032300
0202LOTE PADRAO                   BRADESCO    PN * EJ    BBDC4       010VISTA          000000000011900000000122500000001150000000000000000000115000191337000
0202LOTE PADRAO                   CESP        PN *       CESP4       010VISTA          000000000021300000000218000000001960000000000000000000200000033266400
0202LOTE PADRAO                   LIGHT       ON *       LIGH3       010VISTA          000000000156100000001616000000015610000000000000000001580000000201700
0202LOTE PADRAO                   TELESP CL PAPN *       TSPP4       010VISTA          000000000013900000000152000000001380000000000000000000151000308554000
0202LOTE PADRAO                   VALE R DOCE PNA        VALE5       010VISTA          000000000051900000000521000000005080000000000000000000521000000015100
0202LOTE PADRAO                   COPEL       PNB*       CPLE6       010VISTA          000000000018000000000180000000001700000000000000000000177000026288000
0202LOTE PADRAO                   VALE R DOCE ON         VALE3       010VISTA          000000000049000000000490000000004820000000000000000000482000000000400
0202LOTE PADRAO                   ARACRUZ     PNB        ARCZ6       010VISTA          000000000003200000000035200000000320000000000000000000035200000183600
0202LOTE PADRAO                   TELEMIG PARTPN *       TMCP4       010VISTA          000000000004200000000043000000000410000000000000000000043000107307000
0202LOTE PADRAO                   BRASIL TELECPN *       BRTO4       010VISTA          000000000013700000000137000000001300000000000000000000132000064013200
0202LOTE PADRAO                   SABESP      ON *       SBSP3       010VISTA          000000000172000000001720000000016500000000000000000001675000002158200
0202LOTE PADRAO                   BRASKEM     PNA*       BRKM5       010VISTA          000000000565000000005690000000054000000000000000000005400000000319400
0202LOTE PADRAO                   EMBRAER     PN EJ      EMBR4       010VISTA          000000000022100000000223000000002180000000000000000000220000000032500
0202LOTE PADRAO                   TELESP      PN * EJ    TLPP4       010VISTA          000000000029600000000300000000002910000000000000000000298000005993000
0202LOTE PADRAO                   EMBRAER     ON EJ      EMBR3       010VISTA          000000000017600000000179000000001750000000000000000000179000000020500
0202LOTE PADRAO                   AMBEV       PN *       AMBV4       010VISTA          000000000525000000005350000000052000000000000000000005299000001516000
0202LOTE PADRAO                   USIMINAS    PNA        USIM5       010VISTA          000000000008500000000085000000000800000000000000000000081000000098200
0202LOTE PADRAO                   ELETROPAULO PN *       ELPL4       010VISTA          000000000060000000000610000000005930000000000000000000602000003472000
0202LOTE PADRAO                   TELE NORD CLPN *       TNEP4       010VISTA          000000000003200000000032000000000310000000000000000000032000086524700
0202LOTE PADRAO                   CEMIG       PN * EJ    CMIG4       010VISTA          000000000025600000000260000000002480000000000000000000250000063056300
0202LOTE PADRAO                   TELE CL SUL PN * EJ    TCSL4       010VISTA          000000000004200000000043000000000420000000000000000000042000066363600
0202LOTE PADRAO                   CEMIG       ON * EJ    CMIG3       010VISTA          000000000025900000000259000000002500000000000000000000253000002631000
0202LOTE PADRAO                   TELE CL SUL ON * EJ    TCSL3       010VISTA          000000000003600000000037000000000352000000000000000000035600042080200
0202LOTE PADRAO                   ITAUSA      PN         ITSA4       010VISTA          000000000001950000000019500000000190000000000000000000019000000515700
0202LOTE PADRAO                   SID TUBARAO PN *       CSTB4       010VISTA          000000000021500000000226000000002150000000000000000000226000011112900
0202LOTE PADRAO                   V C P       PN *       VCPA4       010VISTA          000000000059800000000605000000005900000000000000000000604000002405000
0202LOTE PADRAO                   BRADESPAR   PN *       BRAP4       010VISTA          000000000000970000000009800000000094000000000000000000009400135049000
0202LOTE PADRAO                   NET         PN         PLIM4       010VISTA          000000000001240000000012500000000110000000000000000000011000000754700
0202LOTE PADRAO                   TELE CTR OESPN * EJ    TCOC4       010VISTA          000000000006100000000062000000000590000000000000000000060000028692600
0202LOTE PADRAO                   GERDAU      PN * EJ    GGBR4       010VISTA          000000000019800000000201000000001950000000000000000000197000010108200
0202LOTE PADRAO                   BRASIL      ON *       BBAS3       010VISTA          000000000008700000000090000000000870000000000000000000090000002538400
