00BDIN9999BOVESPA 99992001081320010813
0101IBOVESPA                      0139140137160139290000000000000000002001081300000020010813013771000000
0202LOTE PADRAO                   EMBRATEL PARPN *       EBTP4       010VISTA          000000000011900000000120000000001150000000000000000000118000051429800
0202LOTE PADRAO                   EMBRATEL PARON *       EBTP3       010VISTA          000000000012250000000124000000001200000000000000000000121000020256600
0202LOTE PADRAO                   TRAN PAULISTPN * EJ    TRPL4       010VISTA          000000000006500000000066000000000640000000000000000000066000009826600
0202LOTE PADRAO                   TELEMAR     PN * EJ    TNLP4       010VISTA          000000000031700000000318000000003130000000000000000000315000082941300
0202LOTE PADRAO                   ITAUBANCO   PN * EJ    ITAU4       010VISTA          000000000189500000001950000000018900000000000000000001900000004618900
0202LOTE PADRAO                   TELEMAR     ON * EJ    TNLP3       010VISTA          000000000028100000000290000000002810000000000000000000290000005817700
0202LOTE PADRAO                   SID NACIONALON *       CSNA3       010VISTA          000000000038500000000385000000003760000000000000000000381000004187100
0202LOTE PADRAO                   TELE LEST CLPN *       TLCP4       010VISTA          000000000001600000000016000000000156000000000000000000015000068840100
0202LOTE PADRAO                   CRT CELULAR PNA* EJ    CRTP5       010VISTA          000000000930000000009300000000092000000000000000000009210000000175300
0202LOTE PADRAO                   IPIRANGA PETPN *       PTIP4       010VISTA          000000000016100000000161000000001500000000000000000000153000000901900
0202LOTE PADRAO                   BRASIL T PARPN *       BRTP4       010VISTA          000000000017300000000173000000001670000000000000000000171000083217500
0202LOTE PADRAO                   BRASIL T PARON *       BRTP3       010VISTA          000000000016900000000171000000001660000000000000000000171000036131400
0202LOTE PADRAO                   ACESITA     PN *       ACES4       010VISTA          000000000000580000000005800000000055000000000000000000005600171932000
0202LOTE PADRAO                   PETROBRAS   PN         PETR4       010VISTA          000000000053300000000535000000005300000000000000000000531000000067100
0202LOTE PADRAO                   ELETROBRAS  PNB*       ELET6       010VISTA          000000000031500000000320000000003100000000000000000000315000012776300
0202LOTE PADRAO                   PETROBRAS   ON         PETR3       010VISTA          000000000056800000000570000000005660000000000000000000566000000020600
0202LOTE PADRAO                   COMGAS      PNA*       CGAS5       010VISTA          000000000135000000001350000000013000000000000000000001325000001729000
0202LOTE PADRAO                   SOUZA CRUZ  ON EJ      CRUZ3       010VISTA          000000000010900000000113000000001090000000000000000000110000000012200
0202LOTE PADRAO                   ELETROBRAS  ON *       ELET3       010VISTA          000000000036200000000362000000003450000000000000000000354000011481500
0202LOTE PADRAO                   CELESC      PNB        CLSC6       010VISTA          000000000000470000000004800000000046000000000000000000004800000159300
0202LOTE PADRAO                   BRADESCO    PN * EJ    BBDC4       010VISTA          000000000012100000000124000000001200000000000000000000120000147652000
0202LOTE PADRAO                   CESP        PN *       CESP4       010VISTA          000000000013600000000136000000001310000000000000000000135000005853300
0202LOTE PADRAO                   LIGHT       ON *       LIGH3       010VISTA          000000000130000000001300000000012800000000000000000001289000000555100
0202LOTE PADRAO                   TELESP CL PAPN *       TSPP4       010VISTA          000000000014400000000149000000001440000000000000000000147000042258100
0202LOTE PADRAO                   VALE R DOCE PNA        VALE5       010VISTA          000000000052800000000528000000005210000000000000000000523000000028600
0202LOTE PADRAO                   COPEL       PNB*       CPLE6       010VISTA          000000000018000000000180000000001780000000000000000000178000023927800
0202LOTE PADRAO                   VALE R DOCE ON         VALE3       010VISTA          000000000052700000000527000000005250000000000000000000525000000001100
0202LOTE PADRAO                   ARACRUZ     PNB        ARCZ6       010VISTA          000000000003900000000040000000000380000000000000000000039000000034600
0202LOTE PADRAO                   TELEMIG PARTPN *       TMCP4       010VISTA          000000000004100000000041000000000400000000000000000000040000035327600
0202LOTE PADRAO                   BRASIL TELECPN *       BRTO4       010VISTA          000000000011800000000118000000001140000000000000000000114000057108100
0202LOTE PADRAO                   SABESP      ON *       SBSP3       010VISTA          000000000176500000001768000000017350000000000000000001740000000692200
0202LOTE PADRAO                   BRASKEM     PNA*       BRKM5       010VISTA          000000000505000000005140000000050000000000000000000005120000000309400
0202LOTE PADRAO                   EMBRAER     PN EJ      EMBR4       010VISTA          000000000022600000000230000000002250000000000000000000228000000015900
0202LOTE PADRAO                   TELESP      PN * EJ    TLPP4       010VISTA          000000000024500000000248000000002450000000000000000000246000014050700
0202LOTE PADRAO                   EMBRAER     ON EJ      EMBR3       010VISTA          000000000017900000000181000000001780000000000000000000180000000012800
0202LOTE PADRAO                   AMBEV       PN *       AMBV4       010VISTA          000000000524000000005300000000050800000000000000000005085000001444800
0202LOTE PADRAO                   USIMINAS    PNA        USIM5       010VISTA          000000000006400000000064000000000610000000000000000000062000000013000
0202LOTE PADRAO                   ELETROPAULO PN *       ELPL4       010VISTA          000000000070000000000725000000007000000000000000000000722000002663800
0202LOTE PADRAO                   TELE NORD CLPN *       TNEP4       010VISTA          000000000003300000000033000000000320000000000000000000032000040309100
0202LOTE PADRAO                   CEMIG       PN * EJ    CMIG4       010VISTA          000000000028000000000280000000002710000000000000000000275000023594000
0202LOTE PADRAO                   TELE CL SUL PN * EJ    TCSL4       010VISTA          000000000003900000000039600000000380000000000000000000039000045539400
0202LOTE PADRAO                   CEMIG       ON * EJ    CMIG3       010VISTA          000000000026300000000269000000002630000000000000000000269000004620000
0202LOTE PADRAO                   TELE CL SUL ON * EJ    TCSL3       010VISTA          000000000003400000000034000000000330000000000000000000034000019359100
0202LOTE PADRAO                   ITAUSA      PN         ITSA4       010VISTA          000000000002000000000020000000000200000000000000000000020000000209400
0202LOTE PADRAO                   SID TUBARAO PN *       CSTB4       010VISTA          000000000021500000000218000000002100000000000000000000216000004900000
0202LOTE PADRAO                   V C P       PN *       VCPA4       010VISTA          000000000068500000000695000000006850000000000000000000691000001850300
0202LOTE PADRAO                   BRADESPAR   PN *       BRAP4       010VISTA          000000000000800000000008000000000077000000000000000000007800164320000
0202LOTE PADRAO                   NET         PN         PLIM4       010VISTA          000000000001100000000011000000000100000000000000000000010000001482200
0202LOTE PADRAO                   TELE CTR OESPN * EJ    TCOC4       010VISTA          000000000005900000000061000000000590000000000000000000060000066888800
0202LOTE PADRAO                   GERDAU      PN * EJ    GGBR4       010VISTA          000000000017000000000170000000001640000000000000000000167000004349900
0202LOTE PADRAO                   BRASIL      ON *       BBAS3       010VISTA          000000000009900000000099000000000940000000000000000000095000005314300
