00BDIN9999BOVESPA 99992001021420010214
0101IBOVESPA                      0170780168900172860000000000000000002001021400000020010214017120000000
0202LOTE PADRAO                   EMBRATEL PARPN *       EBTP4       010VISTA          000000000028800000000293000000002780000000000000000000279000088117500
0202LOTE PADRAO                   EMBRATEL PARON *       EBTP3       010VISTA          000000000023600000000238000000002300000000000000000000235000019463600
0202LOTE PADRAO                   TRAN PAULISTPN * EJ    TRPL4       010VISTA          000000000009100000000096000000000860000000000000000000095000034143600
0202LOTE PADRAO                   TELEMAR     PN * EJ    TNLP4       010VISTA          000000000046300000000473000000004610000000000000000000470000160214000
0202LOTE PADRAO                   ITAUBANCO   PN * EJ    ITAU4       010VISTA          000000000186000000001880000000018000000000000000000001855000007631300
0202LOTE PADRAO                   TELEMAR     ON * EJ    TNLP3       010VISTA          000000000037200000000395000000003720000000000000000000375000018611500
0202LOTE PADRAO                   SID NACIONALON *       CSNA3       010VISTA          000000000068400000000699000000006720000000000000000000677000008172500
0202LOTE PADRAO                   TELE LEST CLPN *       TLCP4       010VISTA          000000000001500000000016000000000155000000000000000000015600108410000
0202LOTE PADRAO                   IPIRANGA PETPN *       PTIP4       010VISTA          000000000016500000000168000000001630000000000000000000165000004620000
0202LOTE PADRAO                   BRASIL T PARPN *       BRTP4       010VISTA          000000000023000000000230000000002200000000000000000000220000204765000
0202LOTE PADRAO                   BRASIL T PARON *       BRTP3       010VISTA          000000000022000000000220000000002110000000000000000000213000075575300
0202LOTE PADRAO                   ACESITA     PN *       ACES4       010VISTA          000000000001100000000011000000000110000000000000000000011000268158000
0202LOTE PADRAO                   PETROBRAS   PN         PETR4       010VISTA          000000000056600000000582000000005660000000000000000000582000000132900
0202LOTE PADRAO                   ELETROBRAS  PNB*       ELET6       010VISTA          000000000040300000000417500000003990000000000000000000417000034587400
0202LOTE PADRAO                   PETROBRAS   ON         PETR3       010VISTA          000000000058200000000598000000005800000000000000000000591000000069100
0202LOTE PADRAO                   COMGAS      PNA*       CGAS5       010VISTA          000000000150000000001530000000014800000000000000000001530000002592500
0202LOTE PADRAO                   SOUZA CRUZ  ON EJ      CRUZ3       010VISTA          000000000011600000000119000000001140000000000000000000117000000038500
0202LOTE PADRAO                   CELESC      PNB        CLSC6       010VISTA          000000000000660000000007000000000066000000000000000000006800000346800
0202LOTE PADRAO                   ELETROBRAS  ON *       ELET3       010VISTA          000000000042000000000439000000004200000000000000000000439000026684600
0202LOTE PADRAO                   BRADESCO    PN * EJ    BBDC4       010VISTA          000000000012400000000124000000001210000000000000000000122000173586000
0202LOTE PADRAO                   CESP        PN *       CESP4       010VISTA          000000000026100000000268000000002550000000000000000000260000011682400
0202LOTE PADRAO                   LIGHT       ON *       LIGH3       010VISTA          000000000258900000002589000000025010000000000000000002501000000589000
0202LOTE PADRAO                   TELESP CL PAPN *       TSPP4       010VISTA          000000000019800000000204000000001930000000000000000000201000103562000
0202LOTE PADRAO                   VALE R DOCE PNA        VALE5       010VISTA          000000000049700000000508000000004970000000000000000000501000000021100
0202LOTE PADRAO                   COPEL       PNB*       CPLE6       010VISTA          000000000020000000000210000000001980000000000000000000206000024254900
0202LOTE PADRAO                   VALE R DOCE ON         VALE3       010VISTA          000000000049000000000495000000004900000000000000000000490000000000400
0202LOTE PADRAO                   ARACRUZ     PNB        ARCZ6       010VISTA          000000000002800000000028000000000270000000000000000000027700000062600
0202LOTE PADRAO                   TELEMIG PARTPN *       TMCP4       010VISTA          000000000006500000000065000000000620000000000000000000063000058984400
0202LOTE PADRAO                   BRASIL TELECPN *       BRTO4       010VISTA          000000000016000000000161000000001530000000000000000000155000238543000
0202LOTE PADRAO                   SABESP      ON *       SBSP3       010VISTA          000000000215000000002249000000021500000000000000000002190000001261000
0202LOTE PADRAO                   BRASKEM     PNA*       BRKM5       010VISTA          000000000672000000006720000000066000000000000000000006600000000220800
0202LOTE PADRAO                   EMBRAER     PN EJ      EMBR4       010VISTA          000000000018900000000193000000001860000000000000000000188000000009600
0202LOTE PADRAO                   TELESP      PN * EJ    TLPP4       010VISTA          000000000029600000000308000000002900000000000000000000304000006773100
0202LOTE PADRAO                   EMBRAER     ON EJ      EMBR3       010VISTA          000000000015900000000162000000001580000000000000000000160000000026600
0202LOTE PADRAO                   AMBEV       PN *       AMBV4       010VISTA          000000000505000000005100000000050000000000000000000005058000000809100
0202LOTE PADRAO                   USIMINAS    PNA        USIM5       010VISTA          000000000011300000000118000000001130000000000000000000115000000036000
0202LOTE PADRAO                   ELETROPAULO PN *       ELPL4       010VISTA          000000000111800000001145000000011090000000000000000001130000002765900
0202LOTE PADRAO                   TELE NORD CLPN *       TNEP4       010VISTA          000000000003700000000038000000000370000000000000000000038100060281300
0202LOTE PADRAO                   CEMIG       PN * EJ    CMIG4       010VISTA          000000000034200000000352000000003375000000000000000000345000045754500
0202LOTE PADRAO                   TELE CL SUL PN * EJ    TCSL4       010VISTA          000000000004800000000050000000000480000000000000000000049000054909600
0202LOTE PADRAO                   CEMIG       ON * EJ    CMIG3       010VISTA          000000000030600000000316000000003050000000000000000000307000005403800
0202LOTE PADRAO                   TELE CL SUL ON * EJ    TCSL3       010VISTA          000000000004250000000042000000000400000000000000000000040000032650200
0202LOTE PADRAO                   ITAUSA      PN         ITSA4       010VISTA          000000000002000000000020000000000200000000000000000000020000000368400
0202LOTE PADRAO                   SID TUBARAO PN *       CSTB4       010VISTA          000000000023500000000249000000002350000000000000000000241000007284000
0202LOTE PADRAO                   V C P       PN *       VCPA4       010VISTA          000000000060100000000602000000005800000000000000000000580000002350000
0202LOTE PADRAO                   BRADESPAR   PN *       BRAP4       010VISTA          000000000001100000000011000000000110000000000000000000011000294625000
0202LOTE PADRAO                   NET         PN         PLIM4       010VISTA          000000000001980000000020000000000197000000000000000000020000001116800
0202LOTE PADRAO                   TELE CTR OESPN * EJ    TCOC4       010VISTA          000000000008000000000080000000000775000000000000000000079000047683400
0202LOTE PADRAO                   GERDAU      PN * EJ    GGBR4       010VISTA          000000000020000000000210000000002000000000000000000000205000015386500
0202LOTE PADRAO                   BRASIL      ON *       BBAS3       010VISTA          000000000007500000000079000000000740000000000000000000079000003843900
