00BDIN9999BOVESPA 99992001030520010305
0101IBOVESPA                      0166200164710167370000000000000000002001030500000020010305016537000000
0202LOTE PADRAO                   EMBRATEL PARPN *       EBTP4       010VISTA          000000000026600000000275000000002660000000000000000000269000042989700
0202LOTE PADRAO                   EMBRATEL PARON *       EBTP3       010VISTA          000000000022000000000226000000002180000000000000000000223000041008600
0202LOTE PADRAO                   TRAN PAULISTPN * EJ    TRPL4       010VISTA          000000000009300000000095000000000900000000000000000000091000015940800
0202LOTE PADRAO                   TELEMAR     PN * EJ    TNLP4       010VISTA          000000000045900000000459000000004480000000000000000000451000092462800
0202LOTE PADRAO                   ITAUBANCO   PN * EJ    ITAU4       010VISTA          000000000180000000001830000000017700000000000000000001790000007061800
0202LOTE PADRAO                   TELEMAR     ON * EJ    TNLP3       010VISTA          000000000034700000000355000000003420000000000000000000352000006752300
0202LOTE PADRAO                   SID NACIONALON *       CSNA3       010VISTA          000000000072000000000742000000007170000000000000000000735000004420900
0202LOTE PADRAO                   TELE LEST CLPN *       TLCP4       010VISTA          000000000001720000000017200000000160000000000000000000017000041134700
0202LOTE PADRAO                   CRT CELULAR PNA* EJ    CRTP5       010VISTA          000000000949900000009510000000091500000000000000000009350000001294200
0202LOTE PADRAO                   IPIRANGA PETPN *       PTIP4       010VISTA          000000000015000000000151000000001490000000000000000000149000003400000
0202LOTE PADRAO                   BRASIL T PARPN *       BRTP4       010VISTA          000000000022300000000229000000002220000000000000000000229000071005000
0202LOTE PADRAO                   BRASIL T PARON *       BRTP3       010VISTA          000000000019500000000200000000001910000000000000000000198000006268000
0202LOTE PADRAO                   ACESITA     PN *       ACES4       010VISTA          000000000001100000000011000000000110000000000000000000011000044689100
0202LOTE PADRAO                   PETROBRAS   PN         PETR4       010VISTA          000000000056600000000573000000005620000000000000000000568000000064300
0202LOTE PADRAO                   ELETROBRAS  PNB*       ELET6       010VISTA          000000000039900000000399000000003730000000000000000000378000046905600
0202LOTE PADRAO                   PETROBRAS   ON         PETR3       010VISTA          000000000058600000000595000000005820000000000000000000585000000015300
0202LOTE PADRAO                   COMGAS      PNA*       CGAS5       010VISTA          000000000156000000001600000000015600000000000000000001578000003283000
0202LOTE PADRAO                   SOUZA CRUZ  ON EJ      CRUZ3       010VISTA          000000000012500000000130000000001240000000000000000000130000000025800
0202LOTE PADRAO                   ELETROBRAS  ON *       ELET3       010VISTA          000000000041000000000415000000003970000000000000000000399000021146000
0202LOTE PADRAO                   CELESC      PNB        CLSC6       010VISTA          000000000000660000000006700000000065000000000000000000006600000117700
0202LOTE PADRAO                   BRADESCO    PN * EJ    BBDC4       010VISTA          000000000011800000000120000000001180000000000000000000118000130078000
0202LOTE PADRAO                   CESP        PN *       CESP4       010VISTA          000000000025800000000261000000002550000000000000000000255000006119800
0202LOTE PADRAO                   LIGHT       ON *       LIGH3       010VISTA          000000000233000000002330000000022800000000000000000002329000000142900
0202LOTE PADRAO                   TELESP CL PAPN *       TSPP4       010VISTA          000000000019100000000193000000001830000000000000000000185000048351900
0202LOTE PADRAO                   VALE R DOCE PNA        VALE5       010VISTA          000000000052900000000529000000005100000000000000000000512000000022100
0202LOTE PADRAO                   COPEL       PNB*       CPLE6       010VISTA          000000000019100000000191000000001860000000000000000000190000008832200
0202LOTE PADRAO                   VALE R DOCE ON         VALE3       010VISTA          000000000050000000000500000000004990000000000000000000499000000001200
0202LOTE PADRAO                   ARACRUZ     PNB        ARCZ6       010VISTA          000000000002810000000028100000000270000000000000000000027000000015500
0202LOTE PADRAO                   TELEMIG PARTPN *       TMCP4       010VISTA          000000000006100000000063000000000600000000000000000000062000057083700
0202LOTE PADRAO                   BRASIL TELECPN *       BRTO4       010VISTA          000000000015600000000160000000001550000000000000000000159000024577200
0202LOTE PADRAO                   SABESP      ON *       SBSP3       010VISTA          000000000233000000002330000000021800000000000000000002180000000652800
0202LOTE PADRAO                   BRASKEM     PNA*       BRKM5       010VISTA          000000000680000000006800000000065000000000000000000006500000000092000
0202LOTE PADRAO                   EMBRAER     PN EJ      EMBR4       010VISTA          000000000019300000000193000000001850000000000000000000191000000014100
0202LOTE PADRAO                   TELESP      PN * EJ    TLPP4       010VISTA          000000000031100000000315000000003060000000000000000000308000004475500
0202LOTE PADRAO                   EMBRAER     ON EJ      EMBR3       010VISTA          000000000015800000000159000000001550000000000000000000157000000007900
0202LOTE PADRAO                   AMBEV       PN *       AMBV4       010VISTA          000000000520000000005200000000050110000000000000000005011000002125300
0202LOTE PADRAO                   USIMINAS    PNA        USIM5       010VISTA          000000000011100000000111000000001080000000000000000000109000000036100
0202LOTE PADRAO                   ELETROPAULO PN *       ELPL4       010VISTA          000000000108000000001080000000010400000000000000000001050000000606300
0202LOTE PADRAO                   TELE NORD CLPN *       TNEP4       010VISTA          000000000003600000000037000000000350000000000000000000036000071234000
0202LOTE PADRAO                   CEMIG       PN * EJ    CMIG4       010VISTA          000000000031800000000322000000003100000000000000000000320000049449800
0202LOTE PADRAO                   TELE CL SUL PN * EJ    TCSL4       010VISTA          000000000004500000000046000000000450000000000000000000046000071440200
0202LOTE PADRAO                   CEMIG       ON * EJ    CMIG3       010VISTA          000000000027000000000274000000002630000000000000000000263000003380300
0202LOTE PADRAO                   TELE CL SUL ON * EJ    TCSL3       010VISTA          000000000003600000000038000000000350000000000000000000038000026675600
0202LOTE PADRAO                   ITAUSA      PN         ITSA4       010VISTA          000000000001940000000019500000000190000000000000000000019000000108800
0202LOTE PADRAO                   SID TUBARAO PN *       CSTB4       010VISTA          000000000022100000000221000000002160000000000000000000218000004670000
0202LOTE PADRAO                   V C P       PN *       VCPA4       010VISTA          000000000056500000000570000000005600000000000000000000565000001430000
0202LOTE PADRAO                   BRADESPAR   PN *       BRAP4       010VISTA          000000000001100000000011000000000100000000000000000000010000096901300
0202LOTE PADRAO                   NET         PN         PLIM4       010VISTA          000000000001800000000018000000000176000000000000000000017700000493900
0202LOTE PADRAO                   TELE CTR OESPN * EJ    TCOC4       010VISTA          000000000007700000000080000000000750000000000000000000078000037867700
0202LOTE PADRAO                   GERDAU      PN * EJ    GGBR4       010VISTA          000000000019500000000196000000001925000000000000000000193000026373600
0202LOTE PADRAO                   BRASIL      ON *       BBAS3       010VISTA          000000000008100000000081000000000780000000000000000000079000010929300
