00BDIN9999BOVESPA 99992001032720010327
0101IBOVESPA                      0147330145940149510000000000000000002001032700000020010327014835000000
0202LOTE PADRAO                   TELESP      PN * EJ    TLPP4       010VISTA          000000000029000000000290000000002800000000000000000000286000007393300
0202LOTE PADRAO                   EMBRAER     PN EJ      EMBR4       010VISTA          000000000020100000000208000000002010000000000000000000206000000012700
0202LOTE PADRAO                   EMBRATEL PARPN *       EBTP4       010VISTA          000000000022600000000228000000002200000000000000000000221000065127800
0202LOTE PADRAO                   TRAN PAULISTPN * EJ    TRPL4       010VISTA          000000000007700000000077000000000720000000000000000000075400010843600
0202LOTE PADRAO                   EMBRATEL PARON *       EBTP3       010VISTA          000000000019800000000198000000001860000000000000000000190000025672600
0202LOTE PADRAO                   TELEMAR     PN * EJ    TNLP4       010VISTA          000000000037800000000379000000003670000000000000000000368000176450000
0202LOTE PADRAO                   TELEMAR     ON * EJ    TNLP3       010VISTA          000000000029000000000296000000002850000000000000000000292000027748700
0202LOTE PADRAO                   ITAUBANCO   PN * EJ    ITAU4       010VISTA          000000000175000000001750000000017230000000000000000001740000004506800
0202LOTE PADRAO                   AMBEV       PN *       AMBV4       010VISTA          000000000514900000005299000000051000000000000000000005219000002274900
0202LOTE PADRAO                   USIMINAS    PNA        USIM5       010VISTA          000000000009000000000095000000000880000000000000000000089000000119200
0202LOTE PADRAO                   ELETROPAULO PN *       ELPL4       010VISTA          000000000089000000000890000000008600000000000000000000860000002553000
0202LOTE PADRAO                   SID NACIONALON *       CSNA3       010VISTA          000000000045600000000458000000004530000000000000000000458000009135100
0202LOTE PADRAO                   TELE NORD CLPN *       TNEP4       010VISTA          000000000002800000000030000000000280000000000000000000030000173143000
0202LOTE PADRAO                   TELE LEST CLPN *       TLCP4       010VISTA          000000000001530000000016000000000151000000000000000000015000037836200
0202LOTE PADRAO                   TELE CL SUL PN * EJ    TCSL4       010VISTA          000000000004000000000040000000000380000000000000000000038000109528000
0202LOTE PADRAO                   CEMIG       PN * EJ    CMIG4       010VISTA          000000000028300000000283000000002750000000000000000000278000032840300
0202LOTE PADRAO                   TELE CL SUL ON * EJ    TCSL3       010VISTA          000000000003000000000030000000000280000000000000000000029000111705000
0202LOTE PADRAO                   CEMIG       ON * EJ    CMIG3       010VISTA          000000000024800000000248000000002420000000000000000000243000000350000
0202LOTE PADRAO                   CRT CELULAR PNA* EJ    CRTP5       010VISTA          000000000910000000009200000000090400000000000000000009080000000432400
0202LOTE PADRAO                   IPIRANGA PETPN *       PTIP4       010VISTA          000000000017000000000170000000001650000000000000000000165000001066600
0202LOTE PADRAO                   BRASIL T PARPN *       BRTP4       010VISTA          000000000018600000000186000000001800000000000000000000183000100975000
0202LOTE PADRAO                   BRASIL T PARON *       BRTP3       010VISTA          000000000017100000000172000000001660000000000000000000172000023584100
0202LOTE PADRAO                   ACESITA     PN *       ACES4       010VISTA          000000000001000000000010000000000100000000000000000000010000080364900
0202LOTE PADRAO                   PETROBRAS   PN         PETR4       010VISTA          000000000047500000000489000000004700000000000000000000485000000101800
0202LOTE PADRAO                   ELETROBRAS  PNB*       ELET6       010VISTA          000000000037100000000386000000003680000000000000000000382000057935500
0202LOTE PADRAO                   COMGAS      PNA*       CGAS5       010VISTA          000000000170000000001730000000016500000000000000000001730000003787000
0202LOTE PADRAO                   ELETROBRAS  ON *       ELET3       010VISTA          000000000041000000000415000000004050000000000000000000411000035451700
0202LOTE PADRAO                   V C P       PN *       VCPA4       010VISTA          000000000054800000000557000000005480000000000000000000557000002674900
0202LOTE PADRAO                   SID TUBARAO PN *       CSTB4       010VISTA          000000000021000000000215000000002100000000000000000000212500000944800
0202LOTE PADRAO                   TELESP CL PAPN *       TSPP4       010VISTA          000000000013750000000141000000001360000000000000000000139000131269000
0202LOTE PADRAO                   CESP        PN *       CESP4       010VISTA          000000000022900000000231000000002210000000000000000000224000019766600
0202LOTE PADRAO                   BRADESPAR   PN *       BRAP4       010VISTA          000000000001000000000010000000000100000000000000000000010000165626000
0202LOTE PADRAO                   BRADESCO    PN * EJ    BBDC4       010VISTA          000000000011900000000120000000001160000000000000000000118000175004000
0202LOTE PADRAO                   LIGHT       ON *       LIGH3       010VISTA          000000000209000000002090000000020600000000000000000002060000000166400
0202LOTE PADRAO                   NET         PN         PLIM4       010VISTA          000000000001520000000015400000000148000000000000000000015100000707200
0202LOTE PADRAO                   VALE R DOCE PNA        VALE5       010VISTA          000000000051000000000527500000005100000000000000000000527500000039500
0202LOTE PADRAO                   TELE CTR OESPN * EJ    TCOC4       010VISTA          000000000006100000000061000000000571000000000000000000059000167153000
0202LOTE PADRAO                   COPEL       PNB*       CPLE6       010VISTA          000000000018000000000187500000001800000000000000000000186000020246800
0202LOTE PADRAO                   TELEMIG PARTPN *       TMCP4       010VISTA          000000000004400000000047000000000430000000000000000000046000159808000
0202LOTE PADRAO                   BRASIL TELECPN *       BRTO4       010VISTA          000000000013100000000131000000001275000000000000000000128000169987000
0202LOTE PADRAO                   SABESP      ON *       SBSP3       010VISTA          000000000194000000002040000000019390000000000000000002040000000906800
0202LOTE PADRAO                   GERDAU      PN * EJ    GGBR4       010VISTA          000000000019600000000199000000001950000000000000000000199000010758200
0202LOTE PADRAO                   BRASKEM     PNA*       BRKM5       010VISTA          000000000630000000006300000000058600000000000000000005950000000163300
0202LOTE PADRAO                   BRASIL      ON *       BBAS3       010VISTA          000000000007200000000074000000000720000000000000000000072000005760800
