00BDIN9999BOVESPA 99992001081420010814
0101IBOVESPA                      0137700137320138410000000000000000002001081400000020010814013829000000
0202LOTE PADRAO                   EMBRATEL PARPN *       EBTP4       010VISTA          000000000011800000000121000000001150000000000000000000116000119390000
0202LOTE PADRAO                   EMBRATEL PARON *       EBTP3       010VISTA          000000000012000000000125000000001200000000000000000000123000047844100
0202LOTE PADRAO                   TRAN PAULISTPN * EJ    TRPL4       010VISTA          000000000006400000000066000000000640000000000000000000066000005256200
0202LOTE PADRAO                   TELEMAR     PN * EJ    TNLP4       010VISTA          000000000031500000000317000000003120000000000000000000315000168192000
0202LOTE PADRAO                   ITAUBANCO   PN * EJ    ITAU4       010VISTA          000000000192000000001930000000018940000000000000000001910000006188900
0202LOTE PADRAO                   TELEMAR     ON * EJ    TNLP3       010VISTA          000000000028800000000288000000002830000000000000000000286000016090200
0202LOTE PADRAO                   SID NACIONALON *       CSNA3       010VISTA          000000000037200000000383000000003720000000000000000000383000004148200
0202LOTE PADRAO                   TELE LEST CLPN *       TLCP4       010VISTA          000000000001500000000015000000000154000000000000000000015000064945000
0202LOTE PADRAO                   CRT CELULAR PNA* EJ    CRTP5       010VISTA          000000000922000000009450000000092200000000000000000009400000000730000
0202LOTE PADRAO                   IPIRANGA PETPN *       PTIP4       010VISTA          000000000015300000000155000000001510000000000000000000151000000532200
0202LOTE PADRAO                   BRASIL T PARPN *       BRTP4       010VISTA          000000000016800000000174000000001680000000000000000000172000070623100
0202LOTE PADRAO                   BRASIL T PARON *       BRTP3       010VISTA          000000000017000000000171000000001690000000000000000000170000028776100
0202LOTE PADRAO                   ACESITA     PN *       ACES4       010VISTA          000000000000560000000005800000000055000000000000000000005700110286000
0202LOTE PADRAO                   PETROBRAS   PN         PETR4       010VISTA          000000000053000000000540000000005270000000000000000000537000000083000
0202LOTE PADRAO                   ELETROBRAS  PNB*       ELET6       010VISTA          000000000031000000000323000000003100000000000000000000321000049167600
0202LOTE PADRAO                   PETROBRAS   ON         PETR3       010VISTA          000000000056600000000577000000005660000000000000000000576000000027300
0202LOTE PADRAO                   COMGAS      PNA*       CGAS5       010VISTA          000000000134000000001344000000013000000000000000000001335000002017000
0202LOTE PADRAO                   SOUZA CRUZ  ON EJ      CRUZ3       010VISTA          000000000011000000000111000000001100000000000000000000111000000004300
0202LOTE PADRAO                   ELETROBRAS  ON *       ELET3       010VISTA          000000000035000000000363000000003480000000000000000000363000025456900
0202LOTE PADRAO                   CELESC      PNB        CLSC6       010VISTA          000000000000470000000004700000000046000000000000000000004600000178700
0202LOTE PADRAO                   BRADESCO    PN * EJ    BBDC4       010VISTA          000000000012000000000123000000001200000000000000000000122500203920000
0202LOTE PADRAO                   CESP        PN *       CESP4       010VISTA          000000000013200000000136000000001300000000000000000000136000004930000
0202LOTE PADRAO                   LIGHT       ON *       LIGH3       010VISTA          000000000126700000001277000000012600000000000000000001277000000262900
0202LOTE PADRAO                   TELESP CL PAPN *       TSPP4       010VISTA          000000000014700000000151000000001470000000000000000000149000045615900
0202LOTE PADRAO                   VALE R DOCE PNA        VALE5       010VISTA          000000000052500000000527000000005220000000000000000000524000000030000
0202LOTE PADRAO                   COPEL       PNB*       CPLE6       010VISTA          000000000017800000000185000000001775000000000000000000180000037994200
0202LOTE PADRAO                   VALE R DOCE ON         VALE3       010VISTA          000000000052100000000532000000005210000000000000000000530000000002000
0202LOTE PADRAO                   ARACRUZ     PNB        ARCZ6       010VISTA          000000000003900000000040000000000390000000000000000000040000000016500
0202LOTE PADRAO                   TELEMIG PARTPN *       TMCP4       010VISTA          000000000004000000000041000000000400000000000000000000041000026706400
0202LOTE PADRAO                   BRASIL TELECPN *       BRTO4       010VISTA          000000000011500000000117000000001130000000000000000000115000076631500
0202LOTE PADRAO                   SABESP      ON *       SBSP3       010VISTA          000000000174000000001750000000017350000000000000000001735000000901900
0202LOTE PADRAO                   BRASKEM     PNA*       BRKM5       010VISTA          000000000512000000005200000000051100000000000000000005150000000059200
0202LOTE PADRAO                   EMBRAER     PN EJ      EMBR4       010VISTA          000000000022800000000228000000002100000000000000000000213000000067700
0202LOTE PADRAO                   TELESP      PN * EJ    TLPP4       010VISTA          000000000024600000000256000000002460000000000000000000256000023251700
0202LOTE PADRAO                   EMBRAER     ON EJ      EMBR3       010VISTA          000000000018000000000180000000001690000000000000000000170000000031800
0202LOTE PADRAO                   AMBEV       PN *       AMBV4       010VISTA          000000000515000000005200000000050500000000000000000005170000000798000
0202LOTE PADRAO                   USIMINAS    PNA        USIM5       010VISTA          000000000006250000000064000000000620000000000000000000064000000026300
0202LOTE PADRAO                   ELETROPAULO PN *       ELPL4       010VISTA          000000000071900000000720000000007150000000000000000000715000002131700
0202LOTE PADRAO                   TELE NORD CLPN *       TNEP4       010VISTA          000000000003200000000032000000000310000000000000000000032000084365800
0202LOTE PADRAO                   CEMIG       PN * EJ    CMIG4       010VISTA          000000000027300000000281000000002730000000000000000000281000039681000
0202LOTE PADRAO                   TELE CL SUL PN * EJ    TCSL4       010VISTA          000000000003900000000039000000000380000000000000000000039000020904700
0202LOTE PADRAO                   CEMIG       ON * EJ    CMIG3       010VISTA          000000000026500000000275000000002630000000000000000000269000002287700
0202LOTE PADRAO                   TELE CL SUL ON * EJ    TCSL3       010VISTA          000000000003300000000033000000000320000000000000000000033000023291800
0202LOTE PADRAO                   ITAUSA      PN         ITSA4       010VISTA          000000000002000000000021000000000200000000000000000000020000000120900
0202LOTE PADRAO                   SID TUBARAO PN *       CSTB4       010VISTA          000000000021000000000213000000002100000000000000000000213000003855200
0202LOTE PADRAO                   V C P       PN *       VCPA4       010VISTA          000000000068500000000690000000006800000000000000000000690000001988600
0202LOTE PADRAO                   BRADESPAR   PN *       BRAP4       010VISTA          000000000000770000000007700000000075000000000000000000007600271660000
0202LOTE PADRAO                   NET         PN         PLIM4       010VISTA          000000000001000000000010000000000100000000000000000000010000001428300
0202LOTE PADRAO                   TELE CTR OESPN * EJ    TCOC4       010VISTA          000000000006000000000061000000000590000000000000000000059000074499100
0202LOTE PADRAO                   GERDAU      PN * EJ    GGBR4       010VISTA          000000000016900000000170000000001650000000000000000000170000008431000
0202LOTE PADRAO                   BRASIL      ON *       BBAS3       010VISTA          000000000009400000000098000000000930000000000000000000097000004245100
