00BDIN9999BOVESPA 99992001082220010822
0101IBOVESPA                      0129070128530131610000000000000000002001082200000020010822012952000000
0202LOTE PADRAO                   EMBRATEL PARPN *       EBTP4       010VISTA          000000000011100000000112500000001010000000000000000000106000147451000
0202LOTE PADRAO                   EMBRATEL PARON *       EBTP3       010VISTA          000000000011900000000119000000001090000000000000000000113000037692800
0202LOTE PADRAO                   TRAN PAULISTPN * EJ    TRPL4       010VISTA          000000000006800000000068000000000610000000000000000000062500034990900
0202LOTE PADRAO                   TELEMAR     PN * EJ    TNLP4       010VISTA          000000000030400000000305000000002950000000000000000000296000436614000
0202LOTE PADRAO                   ITAUBANCO   PN * EJ    ITAU4       010VISTA          000000000183000000001830000000018000000000000000000001815000010901300
0202LOTE PADRAO                   TELEMAR     ON * EJ    TNLP3       010VISTA          000000000027700000000277000000002660000000000000000000270000014044600
0202LOTE PADRAO                   SID NACIONALON *       CSNA3       010VISTA          000000000037250000000372500000003620000000000000000000366000006318200
0202LOTE PADRAO                   TELE LEST CLPN *       TLCP4       010VISTA          000000000001300000000013000000000120000000000000000000013000355972000
0202LOTE PADRAO                   CRT CELULAR PNA* EJ    CRTP5       010VISTA          000000000945000000009599000000094500000000000000000009500000000154100
0202LOTE PADRAO                   IPIRANGA PETPN *       PTIP4       010VISTA          000000000014900000000149000000001400000000000000000000145000001286000
0202LOTE PADRAO                   BRASIL T PARPN *       BRTP4       010VISTA          000000000016000000000161000000001510000000000000000000153000090737000
0202LOTE PADRAO                   BRASIL T PARON *       BRTP3       010VISTA          000000000015400000000154000000001470000000000000000000147000015994600
0202LOTE PADRAO                   ACESITA     PN *       ACES4       010VISTA          000000000000560000000005600000000054000000000000000000005400230450000
0202LOTE PADRAO                   PETROBRAS   PN         PETR4       010VISTA          000000000052800000000532000000005270000000000000000000532500000109400
0202LOTE PADRAO                   ELETROBRAS  PNB*       ELET6       010VISTA          000000000032000000000326000000003190000000000000000000321000043461400
0202LOTE PADRAO                   PETROBRAS   ON         PETR3       010VISTA          000000000055000000000551000000005460000000000000000000548000000032400
0202LOTE PADRAO                   COMGAS      PNA*       CGAS5       010VISTA          000000000134000000001340000000012700000000000000000001280000004407000
0202LOTE PADRAO                   SOUZA CRUZ  ON EJ      CRUZ3       010VISTA          000000000011000000000110000000001060000000000000000000108000000008300
0202LOTE PADRAO                   ELETROBRAS  ON *       ELET3       010VISTA          000000000036100000000366000000003600000000000000000000360000019744900
0202LOTE PADRAO                   CELESC      PNB        CLSC6       010VISTA          000000000000430000000004300000000041000000000000000000004300000244100
0202LOTE PADRAO                   BRADESCO    PN * EJ    BBDC4       010VISTA          000000000011750000000117000000001150000000000000000000116000145448000
0202LOTE PADRAO                   CESP        PN *       CESP4       010VISTA          000000000012600000000127500000001210000000000000000000121000018351300
0202LOTE PADRAO                   LIGHT       ON *       LIGH3       010VISTA          000000000118000000001180000000011150000000000000000001125000000976200
0202LOTE PADRAO                   TELESP CL PAPN *       TSPP4       010VISTA          000000000014400000000146000000001390000000000000000000140000057645900
0202LOTE PADRAO                   VALE R DOCE PNA        VALE5       010VISTA          000000000052200000000528000000005150000000000000000000517000000037200
0202LOTE PADRAO                   COPEL       PNB*       CPLE6       010VISTA          000000000018300000000184000000001780000000000000000000180000035453800
0202LOTE PADRAO                   VALE R DOCE ON         VALE3       010VISTA          000000000051500000000515000000005120000000000000000000512000000002400
0202LOTE PADRAO                   ARACRUZ     PNB        ARCZ6       010VISTA          000000000004200000000042000000000400000000000000000000042000000024200
0202LOTE PADRAO                   TELEMIG PARTPN *       TMCP4       010VISTA          000000000003980000000040000000000370000000000000000000037000104280000
0202LOTE PADRAO                   BRASIL TELECPN *       BRTO4       010VISTA          000000000011000000000111000000001040000000000000000000104000095909800
0202LOTE PADRAO                   SABESP      ON *       SBSP3       010VISTA          000000000169000000001710000000016650000000000000000001710000000783800
0202LOTE PADRAO                   BRASKEM     PNA*       BRKM5       010VISTA          000000000430000000004450000000042000000000000000000004320000000171700
0202LOTE PADRAO                   EMBRAER     PN EJ      EMBR4       010VISTA          000000000019000000000190000000001860000000000000000000186000000015600
0202LOTE PADRAO                   TELESP      PN * EJ    TLPP4       010VISTA          000000000025500000000257500000002500000000000000000000253000015825400
0202LOTE PADRAO                   EMBRAER     ON EJ      EMBR3       010VISTA          000000000015000000000151000000001470000000000000000000148000000010600
0202LOTE PADRAO                   AMBEV       PN *       AMBV4       010VISTA          000000000500000000005000000000047500000000000000000004950000001545900
0202LOTE PADRAO                   USIMINAS    PNA        USIM5       010VISTA          000000000005900000000062000000000580000000000000000000060000000097900
0202LOTE PADRAO                   ELETROPAULO PN *       ELPL4       010VISTA          000000000068000000000684000000006700000000000000000000680000005503600
0202LOTE PADRAO                   TELE NORD CLPN *       TNEP4       010VISTA          000000000003000000000030000000000280000000000000000000029400159703000
0202LOTE PADRAO                   CEMIG       PN * EJ    CMIG4       010VISTA          000000000026500000000273000000002610000000000000000000270000033650300
0202LOTE PADRAO                   TELE CL SUL PN * EJ    TCSL4       010VISTA          000000000003600000000037000000000340000000000000000000034000115752000
0202LOTE PADRAO                   CEMIG       ON * EJ    CMIG3       010VISTA          000000000026300000000275000000002610000000000000000000270000011128400
0202LOTE PADRAO                   TELE CL SUL ON * EJ    TCSL3       010VISTA          000000000003000000000030000000000280000000000000000000029000042925700
0202LOTE PADRAO                   ITAUSA      PN         ITSA4       010VISTA          000000000002000000000020000000000197000000000000000000020000000285800
0202LOTE PADRAO                   SID TUBARAO PN *       CSTB4       010VISTA          000000000020800000000208000000002000000000000000000000207000006612100
0202LOTE PADRAO                   V C P       PN *       VCPA4       010VISTA          000000000068600000000686000000006750000000000000000000680000000828800
0202LOTE PADRAO                   BRADESPAR   PN *       BRAP4       010VISTA          000000000000700000000007100000000067000000000000000000006900299591000
0202LOTE PADRAO                   NET         PN         PLIM4       010VISTA          000000000000790000000008100000000077000000000000000000008000001693100
0202LOTE PADRAO                   TELE CTR OESPN * EJ    TCOC4       010VISTA          000000000005700000000057000000000500000000000000000000051000112956000
0202LOTE PADRAO                   GERDAU      PN * EJ    GGBR4       010VISTA          000000000016500000000165000000001610000000000000000000162000012071300
0202LOTE PADRAO                   BRASIL      ON *       BBAS3       010VISTA          000000000009100000000095000000000900000000000000000000094000010753700
