00BDIN9999BOVESPA 99992001101620011016
0101IBOVESPA                      0113260111650114750000000000000000002001101600000020011016011258000000
0202LOTE PADRAO                   EMBRATEL PARPN *       EBTP4       010VISTA          000000000008000000000081000000000771000000000000000000079000159931000
0202LOTE PADRAO                   EMBRATEL PARON *       EBTP3       010VISTA          000000000008400000000090000000000830000000000000000000083000042492700
0202LOTE PADRAO                   TRAN PAULISTPN * EJ    TRPL4       010VISTA          000000000004600000000050000000000460000000000000000000049000027096000
0202LOTE PADRAO                   TELEMAR     PN * EJ    TNLP4       010VISTA          000000000026800000000275000000002630000000000000000000270000334296000
0202LOTE PADRAO                   ITAUBANCO   PN * EJ    ITAU4       010VISTA          000000000169000000001720000000016750000000000000000001710000008618200
0202LOTE PADRAO                   TELEMAR     ON * EJ    TNLP3       010VISTA          000000000024400000000245000000002360000000000000000000241000034463500
0202LOTE PADRAO                   SID NACIONALON *       CSNA3       010VISTA          000000000028000000000289000000002800000000000000000000285000028790400
0202LOTE PADRAO                   TELE LEST CLPN *       TLCP4       010VISTA          000000000000700000000007400000000069000000000000000000007200176668000
0202LOTE PADRAO                   CRT CELULAR PNA* EJ    CRTP5       010VISTA          000000000383000000003830000000036000000000000000000003600000000642200
0202LOTE PADRAO                   IPIRANGA PETPN *       PTIP4       010VISTA          000000000011900000000119000000001130000000000000000000113000000826200
0202LOTE PADRAO                   BRASIL T PARPN *       BRTP4       010VISTA          000000000015500000000158000000001480000000000000000000151000093164000
0202LOTE PADRAO                   BRASIL T PARON *       BRTP3       010VISTA          000000000015100000000154000000001450000000000000000000146000006835700
0202LOTE PADRAO                   ACESITA     PN *       ACES4       010VISTA          000000000000470000000004800000000045000000000000000000004600241728000
0202LOTE PADRAO                   PETROBRAS   PN         PETR4       010VISTA          000000000055000000000552000000005400000000000000000000540000000104600
0202LOTE PADRAO                   ELETROBRAS  PNB*       ELET6       010VISTA          000000000031000000000327000000003100000000000000000000313000042797300
0202LOTE PADRAO                   PETROBRAS   ON         PETR3       010VISTA          000000000056700000000575000000005520000000000000000000556000000027600
0202LOTE PADRAO                   COMGAS      PNA*       CGAS5       010VISTA          000000000078000000000822000000007800000000000000000000812000002638300
0202LOTE PADRAO                   SOUZA CRUZ  ON EJ      CRUZ3       010VISTA          000000000012900000000129000000001230000000000000000000126000000006800
0202LOTE PADRAO                   ELETROBRAS  ON *       ELET3       010VISTA          000000000035000000000362000000003370000000000000000000337000018068200
0202LOTE PADRAO                   CELESC      PNB        CLSC6       010VISTA          000000000000370000000003800000000036000000000000000000003700000130000
0202LOTE PADRAO                   BRADESCO    PN * EJ    BBDC4       010VISTA          000000000010600000000106000000001040000000000000000000104000118607000
0202LOTE PADRAO                   CESP        PN *       CESP4       010VISTA          000000000009100000000099000000000890000000000000000000095000016321700
0202LOTE PADRAO                   LIGHT       ON *       LIGH3       010VISTA          000000000080000000000819000000007900000000000000000000797000001891200
0202LOTE PADRAO                   TELESP CL PAPN *       TSPP4       010VISTA          000000000005900000000060000000000575000000000000000000058000341382000
0202LOTE PADRAO                   VALE R DOCE PNA        VALE5       010VISTA          000000000054500000000550000000005420000000000000000000549000000023100
0202LOTE PADRAO                   COPEL       PNB*       CPLE6       010VISTA          000000000015500000000158000000001520000000000000000000155000020642000
0202LOTE PADRAO                   VALE R DOCE ON         VALE3       010VISTA          000000000052500000000525000000005250000000000000000000525000000000200
0202LOTE PADRAO                   ARACRUZ     PNB        ARCZ6       010VISTA          000000000004700000000047000000000440000000000000000000045000000076500
0202LOTE PADRAO                   TELEMIG PARTPN *       TMCP4       010VISTA          000000000003540000000035400000000310000000000000000000031000073184800
0202LOTE PADRAO                   BRASIL TELECPN *       BRTO4       010VISTA          000000000010600000000109000000001040000000000000000000105000073288500
0202LOTE PADRAO                   SABESP      ON *       SBSP3       010VISTA          000000000119000000001190000000011600000000000000000001170000002012500
0202LOTE PADRAO                   BRASKEM     PNA*       BRKM5       010VISTA          000000000360000000003750000000035000000000000000000003560000000249000
0202LOTE PADRAO                   EMBRAER     PN EJ      EMBR4       010VISTA          000000000010000000000103000000000990000000000000000000100000000084100
0202LOTE PADRAO                   TELESP      PN * EJ    TLPP4       010VISTA          000000000024800000000250000000002430000000000000000000246000007641500
0202LOTE PADRAO                   EMBRAER     ON EJ      EMBR3       010VISTA          000000000008300000000088000000000830000000000000000000084000000034200
0202LOTE PADRAO                   AMBEV       PN *       AMBV4       010VISTA          000000000445000000004489000000043200000000000000000004320000000971300
0202LOTE PADRAO                   USIMINAS    PNA        USIM5       010VISTA          000000000004200000000042000000000400000000000000000000041000000147000
0202LOTE PADRAO                   ELETROPAULO PN *       ELPL4       010VISTA          000000000057000000000645000000005700000000000000000000613000010071500
0202LOTE PADRAO                   TELE NORD CLPN *       TNEP4       010VISTA          000000000002500000000025000000000230000000000000000000023000111655000
0202LOTE PADRAO                   CEMIG       PN * EJ    CMIG4       010VISTA          000000000026300000000267500000002610000000000000000000263000036811000
0202LOTE PADRAO                   TELE CL SUL PN * EJ    TCSL4       010VISTA          000000000002710000000028000000000271000000000000000000027300103593000
0202LOTE PADRAO                   CEMIG       ON * EJ    CMIG3       010VISTA          000000000026800000000268000000002540000000000000000000260000000890000
0202LOTE PADRAO                   TELE CL SUL ON * EJ    TCSL3       010VISTA          000000000002400000000024000000000230000000000000000000023000021217200
0202LOTE PADRAO                   ITAUSA      PN         ITSA4       010VISTA          000000000001800000000018000000000180000000000000000000018000000221800
0202LOTE PADRAO                   SID TUBARAO PN *       CSTB4       010VISTA          000000000016500000000168000000001590000000000000000000161000003711400
0202LOTE PADRAO                   V C P       PN *       VCPA4       010VISTA          000000000074700000000750000000007200000000000000000000742000002082800
0202LOTE PADRAO                   BRADESPAR   PN *       BRAP4       010VISTA          000000000000580000000006100000000057000000000000000000006000311145000
0202LOTE PADRAO                   NET         PN         PLIM4       010VISTA          000000000000660000000006800000000065000000000000000000006600000797500
0202LOTE PADRAO                   TELE CTR OESPN * EJ    TCOC4       010VISTA          000000000005200000000052000000000490000000000000000000050000098014400
0202LOTE PADRAO                   GERDAU      PN * EJ    GGBR4       010VISTA          000000000016100000000166000000001590000000000000000000163000010917000
0202LOTE PADRAO                   BRASIL      ON *       BBAS3       010VISTA          000000000007800000000078000000000730000000000000000000075000007081500
