00BDIN9999BOVESPA 99992001061820010618
0101IBOVESPA                      0149820143330149820000000000000000002001061800000020010618014355000000
0202LOTE PADRAO                   EMBRATEL PARPN *       EBTP4       010VISTA          000000000020300000000203000000001890000000000000000000190000066327400
0202LOTE PADRAO                   EMBRATEL PARON *       EBTP3       010VISTA          000000000020300000000213000000001990000000000000000000201000025859400
0202LOTE PADRAO                   TRAN PAULISTPN * EJ    TRPL4       010VISTA          000000000006500000000065000000000620000000000000000000062000010672600
0202LOTE PADRAO                   TELEMAR     PN * EJ    TNLP4       010VISTA          000000000036500000000365000000003520000000000000000000352000396326000
0202LOTE PADRAO                   ITAUBANCO   PN * EJ    ITAU4       010VISTA          000000000189000000001899000000018500000000000000000001869000010068000
0202LOTE PADRAO                   TELEMAR     ON * EJ    TNLP3       010VISTA          000000000031000000000313000000002960000000000000000000300000016374100
0202LOTE PADRAO                   SID NACIONALON *       CSNA3       010VISTA          000000000043500000000440000000004300000000000000000000440000006916800
0202LOTE PADRAO                   TELE LEST CLPN *       TLCP4       010VISTA          000000000001800000000019400000000180000000000000000000019400095277100
0202LOTE PADRAO                   IPIRANGA PETPN *       PTIP4       010VISTA          000000000016000000000160000000001550000000000000000000155000000607000
0202LOTE PADRAO                   BRASIL T PARPN *       BRTP4       010VISTA          000000000019500000000195000000001810000000000000000000183000083702300
0202LOTE PADRAO                   BRASIL T PARON *       BRTP3       010VISTA          000000000018800000000188000000001760000000000000000000176000007457300
0202LOTE PADRAO                   ACESITA     PN *       ACES4       010VISTA          000000000000700000000007100000000067000000000000000000006700120615000
0202LOTE PADRAO                   PETROBRAS   PN         PETR4       010VISTA          000000000056700000000567000000005520000000000000000000563000000092500
0202LOTE PADRAO                   ELETROBRAS  PNB*       ELET6       010VISTA          000000000029000000000290000000002760000000000000000000276000038676600
0202LOTE PADRAO                   PETROBRAS   ON         PETR3       010VISTA          000000000063000000000638000000006300000000000000000000636000000015700
0202LOTE PADRAO                   COMGAS      PNA*       CGAS5       010VISTA          000000000149900000001499000000014500000000000000000001475000000713000
0202LOTE PADRAO                   SOUZA CRUZ  ON EJ      CRUZ3       010VISTA          000000000011500000000118000000001150000000000000000000118000000015700
0202LOTE PADRAO                   CELESC      PNB        CLSC6       010VISTA          000000000000470000000004700000000044000000000000000000004400000284000
0202LOTE PADRAO                   ELETROBRAS  ON *       ELET3       010VISTA          000000000031000000000327000000003060000000000000000000306000018486100
0202LOTE PADRAO                   BRADESCO    PN * EJ    BBDC4       010VISTA          000000000012300000000123000000001180000000000000000000118000147550000
0202LOTE PADRAO                   CESP        PN *       CESP4       010VISTA          000000000014400000000144000000001360000000000000000000140000016812400
0202LOTE PADRAO                   LIGHT       ON *       LIGH3       010VISTA          000000000136000000001363000000013000000000000000000001315000000570500
0202LOTE PADRAO                   TELESP CL PAPN *       TSPP4       010VISTA          000000000014400000000145000000001400000000000000000000141000153924000
0202LOTE PADRAO                   VALE R DOCE PNA        VALE5       010VISTA          000000000055000000000556000000005425000000000000000000546000000029700
0202LOTE PADRAO                   COPEL       PNB*       CPLE6       010VISTA          000000000017000000000170000000001600000000000000000000161000005035300
0202LOTE PADRAO                   VALE R DOCE ON         VALE3       010VISTA          000000000052000000000520000000005150000000000000000000515000000000300
0202LOTE PADRAO                   ARACRUZ     PNB        ARCZ6       010VISTA          000000000004200000000044000000000420000000000000000000043000000043500
0202LOTE PADRAO                   TELEMIG PARTPN *       TMCP4       010VISTA          000000000005200000000052000000000470000000000000000000047000163266000
0202LOTE PADRAO                   BRASIL TELECPN *       BRTO4       010VISTA          000000000014300000000143000000001310000000000000000000132000098150900
0202LOTE PADRAO                   SABESP      ON *       SBSP3       010VISTA          000000000164000000001655000000015800000000000000000001630000000809300
0202LOTE PADRAO                   BRASKEM     PNA*       BRKM5       010VISTA          000000000526000000005260000000050010000000000000000005001000000312600
0202LOTE PADRAO                   EMBRAER     PN EJ      EMBR4       010VISTA          000000000024800000000248000000002430000000000000000000245000000037700
0202LOTE PADRAO                   TELESP      PN * EJ    TLPP4       010VISTA          000000000027800000000278000000002710000000000000000000278000006328500
0202LOTE PADRAO                   EMBRAER     ON EJ      EMBR3       010VISTA          000000000019300000000195000000001900000000000000000000190000000020900
0202LOTE PADRAO                   AMBEV       PN *       AMBV4       010VISTA          000000000495000000004980000000047300000000000000000004760000002795600
0202LOTE PADRAO                   USIMINAS    PNA        USIM5       010VISTA          000000000006400000000064000000000610000000000000000000062000000072600
0202LOTE PADRAO                   ELETROPAULO PN *       ELPL4       010VISTA          000000000062700000000627000000005900000000000000000000615000000610600
0202LOTE PADRAO                   TELE NORD CLPN *       TNEP4       010VISTA          000000000004400000000045000000000420000000000000000000043000188779000
0202LOTE PADRAO                   CEMIG       PN * EJ    CMIG4       010VISTA          000000000024800000000249000000002400000000000000000000241000021425100
0202LOTE PADRAO                   TELE CL SUL PN * EJ    TCSL4       010VISTA          000000000005200000000052000000000480000000000000000000049000126705000
0202LOTE PADRAO                   CEMIG       ON * EJ    CMIG3       010VISTA          000000000023500000000239000000002350000000000000000000235000000760000
0202LOTE PADRAO                   TELE CL SUL ON * EJ    TCSL3       010VISTA          000000000004400000000044000000000420000000000000000000042000019077800
0202LOTE PADRAO                   ITAUSA      PN         ITSA4       010VISTA          000000000002000000000020000000000200000000000000000000020000000233300
0202LOTE PADRAO                   SID TUBARAO PN *       CSTB4       010VISTA          000000000023000000000237000000002260000000000000000000237000004001200
0202LOTE PADRAO                   V C P       PN *       VCPA4       010VISTA          000000000076500000000765000000007300000000000000000000730000001301500
0202LOTE PADRAO                   BRADESPAR   PN *       BRAP4       010VISTA          000000000000870000000008700000000084000000000000000000008500138642000
0202LOTE PADRAO                   NET         PN         PLIM4       010VISTA          000000000000890000000008900000000083000000000000000000008400002592000
0202LOTE PADRAO                   TELE CTR OESPN * EJ    TCOC4       010VISTA          000000000006540000000065400000000610000000000000000000061000065343800
0202LOTE PADRAO                   GERDAU      PN * EJ    GGBR4       010VISTA          000000000017300000000173000000001680000000000000000000170000004845500
0202LOTE PADRAO                   BRASIL      ON *       BBAS3       010VISTA          000000000008200000000082000000000790000000000000000000082000005734300
