00BDIN9999BOVESPA 99992001071220010712
0101IBOVESPA                      0138120136360139870000000000000000002001071200000020010712013916000000
0202LOTE PADRAO                   EMBRATEL PARPN *       EBTP4       010VISTA          000000000014400000000148000000001400000000000000000000146000121771000
0202LOTE PADRAO                   EMBRATEL PARON *       EBTP3       010VISTA          000000000014500000000148000000001400000000000000000000145000060112300
0202LOTE PADRAO                   TRAN PAULISTPN * EJ    TRPL4       010VISTA          000000000006200000000064000000000600000000000000000000062000008407100
0202LOTE PADRAO                   TELEMAR     PN * EJ    TNLP4       010VISTA          000000000032250000000339000000003180000000000000000000335000251273000
0202LOTE PADRAO                   ITAUBANCO   PN * EJ    ITAU4       010VISTA          000000000181000000001930000000017800000000000000000001910000010183600
0202LOTE PADRAO                   TELEMAR     ON * EJ    TNLP3       010VISTA          000000000027000000000283000000002660000000000000000000283000019752400
0202LOTE PADRAO                   SID NACIONALON *       CSNA3       010VISTA          000000000036800000000390000000003670000000000000000000385000014783000
0202LOTE PADRAO                   TELE LEST CLPN *       TLCP4       010VISTA          000000000001790000000017900000000160000000000000000000016000107904000
0202LOTE PADRAO                   CRT CELULAR PNA* EJ    CRTP5       010VISTA          000000000949900000009521000000085000000000000000000008740000000840500
0202LOTE PADRAO                   IPIRANGA PETPN *       PTIP4       010VISTA          000000000016500000000170000000001610000000000000000000161000000579000
0202LOTE PADRAO                   BRASIL T PARPN *       BRTP4       010VISTA          000000000017500000000183000000001660000000000000000000183000083079000
0202LOTE PADRAO                   BRASIL T PARON *       BRTP3       010VISTA          000000000016000000000170000000001600000000000000000000170000013516900
0202LOTE PADRAO                   ACESITA     PN *       ACES4       010VISTA          000000000000660000000006600000000063000000000000000000006300148722000
0202LOTE PADRAO                   PETROBRAS   PN         PETR4       010VISTA          000000000054500000000547000000005370000000000000000000542500000062500
0202LOTE PADRAO                   ELETROBRAS  PNB*       ELET6       010VISTA          000000000025600000000281000000002560000000000000000000280000063644400
0202LOTE PADRAO                   PETROBRAS   ON         PETR3       010VISTA          000000000060500000000605000000005960000000000000000000600000000021600
0202LOTE PADRAO                   COMGAS      PNA*       CGAS5       010VISTA          000000000137000000001385000000013600000000000000000001360000001583400
0202LOTE PADRAO                   SOUZA CRUZ  ON EJ      CRUZ3       010VISTA          000000000011500000000115000000001110000000000000000000111000000011600
0202LOTE PADRAO                   ELETROBRAS  ON *       ELET3       010VISTA          000000000029000000000318000000002900000000000000000000317000014468600
0202LOTE PADRAO                   CELESC      PNB        CLSC6       010VISTA          000000000000440000000004500000000042000000000000000000004400000130900
0202LOTE PADRAO                   BRADESCO    PN * EJ    BBDC4       010VISTA          000000000011300000000114000000001075000000000000000000113000303857000
0202LOTE PADRAO                   CESP        PN *       CESP4       010VISTA          000000000013400000000134000000001300000000000000000000130000008989400
0202LOTE PADRAO                   LIGHT       ON *       LIGH3       010VISTA          000000000122000000001220000000011600000000000000000001184000000995800
0202LOTE PADRAO                   TELESP CL PAPN *       TSPP4       010VISTA          000000000013800000000138000000001270000000000000000000129000235507000
0202LOTE PADRAO                   VALE R DOCE PNA        VALE5       010VISTA          000000000054200000000542000000005210000000000000000000521000000059400
0202LOTE PADRAO                   COPEL       PNB*       CPLE6       010VISTA          000000000017100000000183000000001700000000000000000000181000032290700
0202LOTE PADRAO                   VALE R DOCE ON         VALE3       010VISTA          000000000053000000000535000000005300000000000000000000530000000000400
0202LOTE PADRAO                   ARACRUZ     PNB        ARCZ6       010VISTA          000000000004200000000042000000000420000000000000000000042000000088500
0202LOTE PADRAO                   TELEMIG PARTPN *       TMCP4       010VISTA          000000000004300000000044000000000420000000000000000000044000083775100
0202LOTE PADRAO                   BRASIL TELECPN *       BRTO4       010VISTA          000000000012000000000124000000001190000000000000000000124000062551800
0202LOTE PADRAO                   SABESP      ON *       SBSP3       010VISTA          000000000152000000001520000000014990000000000000000001510000002366100
0202LOTE PADRAO                   BRASKEM     PNA*       BRKM5       010VISTA          000000000570000000005800000000056900000000000000000005750000000060000
0202LOTE PADRAO                   EMBRAER     PN EJ      EMBR4       010VISTA          000000000022800000000228000000002210000000000000000000225000000019300
0202LOTE PADRAO                   TELESP      PN * EJ    TLPP4       010VISTA          000000000025200000000252000000002400000000000000000000251000005647000
0202LOTE PADRAO                   EMBRAER     ON EJ      EMBR3       010VISTA          000000000017100000000174000000001690000000000000000000174000000025000
0202LOTE PADRAO                   AMBEV       PN *       AMBV4       010VISTA          000000000484900000005150000000047000000000000000000005150000001437600
0202LOTE PADRAO                   USIMINAS    PNA        USIM5       010VISTA          000000000006200000000062000000000590000000000000000000059000000054200
0202LOTE PADRAO                   ELETROPAULO PN *       ELPL4       010VISTA          000000000062000000000639000000005850000000000000000000612000004127700
0202LOTE PADRAO                   TELE NORD CLPN *       TNEP4       010VISTA          000000000003750000000037000000000370000000000000000000037000078907900
0202LOTE PADRAO                   CEMIG       PN * EJ    CMIG4       010VISTA          000000000026500000000278000000002600000000000000000000277000082177200
0202LOTE PADRAO                   TELE CL SUL PN * EJ    TCSL4       010VISTA          000000000004400000000045000000000420000000000000000000042000057374100
0202LOTE PADRAO                   CEMIG       ON * EJ    CMIG3       010VISTA          000000000025100000000275000000002510000000000000000000263000002610300
0202LOTE PADRAO                   TELE CL SUL ON * EJ    TCSL3       010VISTA          000000000003500000000036900000000350000000000000000000035000019980800
0202LOTE PADRAO                   ITAUSA      PN         ITSA4       010VISTA          000000000001950000000020000000000190000000000000000000020000000267000
0202LOTE PADRAO                   SID TUBARAO PN *       CSTB4       010VISTA          000000000021000000000221000000002080000000000000000000210000006195600
0202LOTE PADRAO                   V C P       PN *       VCPA4       010VISTA          000000000062500000000625000000006100000000000000000000613000005122300
0202LOTE PADRAO                   BRADESPAR   PN *       BRAP4       010VISTA          000000000000840000000008500000000081000000000000000000008200214153000
0202LOTE PADRAO                   NET         PN         PLIM4       010VISTA          000000000001000000000011000000000100000000000000000000010000002650800
0202LOTE PADRAO                   TELE CTR OESPN * EJ    TCOC4       010VISTA          000000000006100000000061000000000575000000000000000000059000072657900
0202LOTE PADRAO                   GERDAU      PN * EJ    GGBR4       010VISTA          000000000015500000000165000000001550000000000000000000164000013201100
0202LOTE PADRAO                   BRASIL      ON *       BBAS3       010VISTA          000000000009400000000095000000000910000000000000000000095000004387900
