00BDIN9999BOVESPA 99992001032120010321
0101IBOVESPA                      0149140147550151980000000000000000002001032100000020010321014853000000
0202LOTE PADRAO                   EMBRATEL PARPN *       EBTP4       010VISTA          000000000024500000000248000000002330000000000000000000234000056490300
0202LOTE PADRAO                   EMBRATEL PARON *       EBTP3       010VISTA          000000000019300000000196000000001850000000000000000000185000052261500
0202LOTE PADRAO                   TRAN PAULISTPN * EJ    TRPL4       010VISTA          000000000008000000000082500000000780000000000000000000079000007203200
0202LOTE PADRAO                   TELEMAR     PN * EJ    TNLP4       010VISTA          000000000036800000000375000000003570000000000000000000358000203556000
0202LOTE PADRAO                   ITAUBANCO   PN * EJ    ITAU4       010VISTA          000000000169000000001700000000016500000000000000000001680000007906400
0202LOTE PADRAO                   TELEMAR     ON * EJ    TNLP3       010VISTA          000000000028600000000291000000002800000000000000000000281000013534300
0202LOTE PADRAO                   SID NACIONALON *       CSNA3       010VISTA          000000000047900000000479000000004470000000000000000000468000007280800
0202LOTE PADRAO                   TELE LEST CLPN *       TLCP4       010VISTA          000000000001700000000017400000000160000000000000000000016000068265300
0202LOTE PADRAO                   CRT CELULAR PNA* EJ    CRTP5       010VISTA          000000000915000000009150000000088000000000000000000008999000000252300
0202LOTE PADRAO                   IPIRANGA PETPN *       PTIP4       010VISTA          000000000016000000000173000000001600000000000000000000170000008603900
0202LOTE PADRAO                   BRASIL T PARPN *       BRTP4       010VISTA          000000000018600000000191000000001810000000000000000000183000057896600
0202LOTE PADRAO                   BRASIL T PARON *       BRTP3       010VISTA          000000000016500000000170000000001600000000000000000000165000005839500
0202LOTE PADRAO                   ACESITA     PN *       ACES4       010VISTA          000000000001000000000010000000000100000000000000000000010000101420000
0202LOTE PADRAO                   PETROBRAS   PN         PETR4       010VISTA          000000000049700000000515000000004930000000000000000000508000000142700
0202LOTE PADRAO                   ELETROBRAS  PNB*       ELET6       010VISTA          000000000037800000000384000000003700000000000000000000374000031773900
0202LOTE PADRAO                   PETROBRAS   ON         PETR3       010VISTA          000000000053500000000559000000005350000000000000000000547000000089300
0202LOTE PADRAO                   COMGAS      PNA*       CGAS5       010VISTA          000000000162500000001635000000015900000000000000000001615000005365400
0202LOTE PADRAO                   SOUZA CRUZ  ON EJ      CRUZ3       010VISTA          000000000010900000000111000000001060000000000000000000110000000014200
0202LOTE PADRAO                   ELETROBRAS  ON *       ELET3       010VISTA          000000000040000000000422000000004000000000000000000000411000016823600
0202LOTE PADRAO                   CELESC      PNB        CLSC6       010VISTA          000000000000600000000006200000000060000000000000000000006200000160600
0202LOTE PADRAO                   BRADESCO    PN * EJ    BBDC4       010VISTA          000000000010900000000112500000001080000000000000000000112500110576000
0202LOTE PADRAO                   CESP        PN *       CESP4       010VISTA          000000000024300000000246000000002360000000000000000000236000013778900
0202LOTE PADRAO                   LIGHT       ON *       LIGH3       010VISTA          000000000220000000002200000000020700000000000000000002070000000250600
0202LOTE PADRAO                   TELESP CL PAPN *       TSPP4       010VISTA          000000000014600000000151000000001450000000000000000000146000079109800
0202LOTE PADRAO                   VALE R DOCE PNA        VALE5       010VISTA          000000000051750000000527000000005170000000000000000000521000000047900
0202LOTE PADRAO                   COPEL       PNB*       CPLE6       010VISTA          000000000018300000000186000000001800000000000000000000183000025676000
0202LOTE PADRAO                   VALE R DOCE ON         VALE3       010VISTA          000000000050000000000500000000004890000000000000000000490000000001700
0202LOTE PADRAO                   ARACRUZ     PNB        ARCZ6       010VISTA          000000000002800000000028000000000270000000000000000000027000000069000
0202LOTE PADRAO                   TELEMIG PARTPN *       TMCP4       010VISTA          000000000004800000000049000000000454000000000000000000045000149396000
0202LOTE PADRAO                   BRASIL TELECPN *       BRTO4       010VISTA          000000000013000000000133000000001250000000000000000000129000058655700
0202LOTE PADRAO                   SABESP      ON *       SBSP3       010VISTA          000000000200000000002050000000019000000000000000000001955000000581400
0202LOTE PADRAO                   BRASKEM     PNA*       BRKM5       010VISTA          000000000645000000006500000000063000000000000000000006300000000125400
0202LOTE PADRAO                   EMBRAER     PN EJ      EMBR4       010VISTA          000000000020100000000201000000001920000000000000000000193000000021300
0202LOTE PADRAO                   TELESP      PN * EJ    TLPP4       010VISTA          000000000029100000000291000000002830000000000000000000286000006241300
0202LOTE PADRAO                   EMBRAER     ON EJ      EMBR3       010VISTA          000000000015800000000159000000001530000000000000000000155000000081900
0202LOTE PADRAO                   AMBEV       PN *       AMBV4       010VISTA          000000000526900000005270000000051110000000000000000005150000001469700
0202LOTE PADRAO                   USIMINAS    PNA        USIM5       010VISTA          000000000010000000000101000000000980000000000000000000099000000034300
0202LOTE PADRAO                   ELETROPAULO PN *       ELPL4       010VISTA          000000000099000000000990000000009300000000000000000000964000001621400
0202LOTE PADRAO                   TELE NORD CLPN *       TNEP4       010VISTA          000000000003000000000031000000000280000000000000000000028000070524400
0202LOTE PADRAO                   CEMIG       PN * EJ    CMIG4       010VISTA          000000000029400000000294000000002810000000000000000000291000017109700
0202LOTE PADRAO                   TELE CL SUL PN * EJ    TCSL4       010VISTA          000000000003700000000040000000000370000000000000000000037500120186000
0202LOTE PADRAO                   CEMIG       ON * EJ    CMIG3       010VISTA          000000000025600000000258000000002400000000000000000000249000000230000
0202LOTE PADRAO                   TELE CL SUL ON * EJ    TCSL3       010VISTA          000000000003000000000030000000000271000000000000000000028100071529800
0202LOTE PADRAO                   ITAUSA      PN         ITSA4       010VISTA          000000000001740000000017400000000171000000000000000000017300000291800
0202LOTE PADRAO                   SID TUBARAO PN *       CSTB4       010VISTA          000000000021900000000228000000002090000000000000000000215000003246400
0202LOTE PADRAO                   V C P       PN *       VCPA4       010VISTA          000000000056900000000569000000005550000000000000000000558000001602600
0202LOTE PADRAO                   BRADESPAR   PN *       BRAP4       010VISTA          000000000001000000000010000000000100000000000000000000010000290977000
0202LOTE PADRAO                   NET         PN         PLIM4       010VISTA          000000000001600000000016000000000156000000000000000000015000001015300
0202LOTE PADRAO                   TELE CTR OESPN * EJ    TCOC4       010VISTA          000000000006700000000067000000000610000000000000000000062000040324000
0202LOTE PADRAO                   GERDAU      PN * EJ    GGBR4       010VISTA          000000000019100000000196000000001875000000000000000000188000016913100
0202LOTE PADRAO                   BRASIL      ON *       BBAS3       010VISTA          000000000007500000000076000000000700000000000000000000073000002978300
