00BDIN9999BOVESPA 99992001012320010123
0101IBOVESPA                      0173810173760178640000000000000000002001012300000020010123017832000000
0202LOTE PADRAO                   EMBRATEL PARPN *       EBTP4       010VISTA          000000000032600000000335000000003250000000000000000000332000087597400
0202LOTE PADRAO                   EMBRATEL PARON *       EBTP3       010VISTA          000000000027100000000273000000002700000000000000000000270000017662100
0202LOTE PADRAO                   TRAN PAULISTPN * EJ    TRPL4       010VISTA          000000000008000000000082000000000790000000000000000000082500024591300
0202LOTE PADRAO                   TELEMAR     PN * EJ    TNLP4       010VISTA          000000000048000000000498000000004800000000000000000000498000185828000
0202LOTE PADRAO                   ITAUBANCO   PN * EJ    ITAU4       010VISTA          000000000194000000001960000000019220000000000000000001922000007887400
0202LOTE PADRAO                   TELEMAR     ON * EJ    TNLP3       010VISTA          000000000038900000000400000000003870000000000000000000398000012898900
0202LOTE PADRAO                   SID NACIONALON *       CSNA3       010VISTA          000000000068200000000697000000006820000000000000000000697500008808500
0202LOTE PADRAO                   TELE LEST CLPN *       TLCP4       010VISTA          000000000001400000000014900000000140000000000000000000014700201166000
0202LOTE PADRAO                   CRT CELULAR PNA* EJ    CRTP5       010VISTA          000000000743000000007580000000074000000000000000000007500000000640000
0202LOTE PADRAO                   IPIRANGA PETPN *       PTIP4       010VISTA          000000000018000000000181000000001790000000000000000000181000004361500
0202LOTE PADRAO                   BRASIL T PARPN *       BRTP4       010VISTA          000000000023300000000248000000002330000000000000000000246000105953000
0202LOTE PADRAO                   BRASIL T PARON *       BRTP3       010VISTA          000000000019100000000201000000001910000000000000000000201000027312700
0202LOTE PADRAO                   ACESITA     PN *       ACES4       010VISTA          000000000001100000000012500000000110000000000000000000012500787484000
0202LOTE PADRAO                   PETROBRAS   PN         PETR4       010VISTA          000000000055000000000562000000005470000000000000000000558000000139500
0202LOTE PADRAO                   ELETROBRAS  PNB*       ELET6       010VISTA          000000000038700000000416000000003870000000000000000000412000061910900
0202LOTE PADRAO                   PETROBRAS   ON         PETR3       010VISTA          000000000056200000000575000000005620000000000000000000567000000055200
0202LOTE PADRAO                   COMGAS      PNA*       CGAS5       010VISTA          000000000137000000001440000000013700000000000000000001435000006872100
0202LOTE PADRAO                   SOUZA CRUZ  ON EJ      CRUZ3       010VISTA          000000000010500000000105000000001030000000000000000000104000000023000
0202LOTE PADRAO                   ELETROBRAS  ON *       ELET3       010VISTA          000000000041500000000432000000004130000000000000000000430000043925000
0202LOTE PADRAO                   CELESC      PNB        CLSC6       010VISTA          000000000000670000000007100000000066000000000000000000007100000608700
0202LOTE PADRAO                   BRADESCO    PN * EJ    BBDC4       010VISTA          000000000013500000000138000000001350000000000000000000136000001841800
0202LOTE PADRAO                   CESP        PN *       CESP4       010VISTA          000000000023600000000239000000002320000000000000000000236000021657200
0202LOTE PADRAO                   LIGHT       ON *       LIGH3       010VISTA          000000000268000000002750000000026800000000000000000002680000003609200
0202LOTE PADRAO                   TELESP CL PAPN *       TSPP4       010VISTA          000000000021100000000214000000002060000000000000000000213000320136000
0202LOTE PADRAO                   VALE R DOCE PNA        VALE5       010VISTA          000000000049300000000499000000004920000000000000000000495000000033700
0202LOTE PADRAO                   COPEL       PNB*       CPLE6       010VISTA          000000000019100000000198000000001910000000000000000000196000045904100
0202LOTE PADRAO                   VALE R DOCE ON         VALE3       010VISTA          000000000047900000000480000000004770000000000000000000477000000001500
0202LOTE PADRAO                   ARACRUZ     PNB        ARCZ6       010VISTA          000000000002940000000030000000000280000000000000000000029000000107100
0202LOTE PADRAO                   TELEMIG PARTPN *       TMCP4       010VISTA          000000000006300000000065000000000620000000000000000000065000136536000
0202LOTE PADRAO                   BRASIL TELECPN *       BRTO4       010VISTA          000000000017300000000180000000001730000000000000000000180000069149400
0202LOTE PADRAO                   SABESP      ON *       SBSP3       010VISTA          000000000210000000002245000000021000000000000000000002228000004951100
0202LOTE PADRAO                   BRASKEM     PNA*       BRKM5       010VISTA          000000000700000000007100000000070000000000000000000007080000000232600
0202LOTE PADRAO                   EMBRAER     PN EJ      EMBR4       010VISTA          000000000019000000000203000000001900000000000000000000202000000038500
0202LOTE PADRAO                   TELESP      PN * EJ    TLPP4       010VISTA          000000000028000000000284000000002780000000000000000000284000009214500
0202LOTE PADRAO                   EMBRAER     ON EJ      EMBR3       010VISTA          000000000015400000000159000000001540000000000000000000159000000034700
0202LOTE PADRAO                   AMBEV       PN *       AMBV4       010VISTA          000000000525000000005300000000051500000000000000000005199000001833300
0202LOTE PADRAO                   USIMINAS    PNA        USIM5       010VISTA          000000000010900000000112000000001090000000000000000000111000000116400
0202LOTE PADRAO                   ELETROPAULO PN *       ELPL4       010VISTA          000000000116000000001179000000011490000000000000000001170000005364400
0202LOTE PADRAO                   TELE NORD CLPN *       TNEP4       010VISTA          000000000004400000000045400000000440000000000000000000045000103794000
0202LOTE PADRAO                   CEMIG       PN * EJ    CMIG4       010VISTA          000000000034300000000350000000003350000000000000000000348000080788400
0202LOTE PADRAO                   TELE CL SUL PN * EJ    TCSL4       010VISTA          000000000005300000000055000000000530000000000000000000055000143119000
0202LOTE PADRAO                   CEMIG       ON * EJ    CMIG3       010VISTA          000000000029500000000315000000002950000000000000000000310000010180200
0202LOTE PADRAO                   TELE CL SUL ON * EJ    TCSL3       010VISTA          000000000004200000000044000000000420000000000000000000044000042994000
0202LOTE PADRAO                   ITAUSA      PN         ITSA4       010VISTA          000000000002100000000021000000000200000000000000000000021000000334400
0202LOTE PADRAO                   SID TUBARAO PN *       CSTB4       010VISTA          000000000024500000000251000000002400000000000000000000250000005992700
0202LOTE PADRAO                   V C P       PN *       VCPA4       010VISTA          000000000062000000000629000000006100000000000000000000628000004315600
0202LOTE PADRAO                   BRADESPAR   PN *       BRAP4       010VISTA          000000000001200000000012600000000120000000000000000000012600284762000
0202LOTE PADRAO                   NET         PN         PLIM4       010VISTA          000000000002300000000023000000000220000000000000000000023000001013000
0202LOTE PADRAO                   TELE CTR OESPN * EJ    TCOC4       010VISTA          000000000008500000000088000000000850000000000000000000088000059883100
0202LOTE PADRAO                   GERDAU      PN * EJ    GGBR4       010VISTA          000000000021100000000218000000002110000000000000000000218000049106700
0202LOTE PADRAO                   BRASIL      ON *       BBAS3       010VISTA          000000000008000000000084000000000800000000000000000000084000007587800
