00BDIN9999BOVESPA 99992001031320010313
0101IBOVESPA                      0155360154440157680000000000000000002001031300000020010313015584000000
0202LOTE PADRAO                   EMBRATEL PARPN *       EBTP4       010VISTA          000000000025900000000261000000002480000000000000000000248000172039000
0202LOTE PADRAO                   EMBRATEL PARON *       EBTP3       010VISTA          000000000019800000000201000000001960000000000000000000200000036231000
0202LOTE PADRAO                   TRAN PAULISTPN * EJ    TRPL4       010VISTA          000000000008500000000091000000000840000000000000000000085000022433000
0202LOTE PADRAO                   TELEMAR     PN * EJ    TNLP4       010VISTA          000000000041200000000418000000004020000000000000000000409000198750000
0202LOTE PADRAO                   ITAUBANCO   PN * EJ    ITAU4       010VISTA          000000000172000000001750000000016750000000000000000001690000003531400
0202LOTE PADRAO                   TELEMAR     ON * EJ    TNLP3       010VISTA          000000000030900000000313000000003060000000000000000000310000021656800
0202LOTE PADRAO                   SID NACIONALON *       CSNA3       010VISTA          000000000049000000000490000000004800000000000000000000486000031403400
0202LOTE PADRAO                   TELE LEST CLPN *       TLCP4       010VISTA          000000000001740000000017400000000160000000000000000000017200092817200
0202LOTE PADRAO                   CRT CELULAR PNA* EJ    CRTP5       010VISTA          000000000920000000009400000000092000000000000000000009300000000702500
0202LOTE PADRAO                   IPIRANGA PETPN *       PTIP4       010VISTA          000000000014200000000145000000001420000000000000000000145000001166000
0202LOTE PADRAO                   BRASIL T PARPN *       BRTP4       010VISTA          000000000020000000000201000000001930000000000000000000196000080256500
0202LOTE PADRAO                   BRASIL T PARON *       BRTP3       010VISTA          000000000017000000000171000000001660000000000000000000166000020239600
0202LOTE PADRAO                   ACESITA     PN *       ACES4       010VISTA          000000000001000000000010000000000100000000000000000000010000209043000
0202LOTE PADRAO                   PETROBRAS   PN         PETR4       010VISTA          000000000054700000000553000000005450000000000000000000550000000103400
0202LOTE PADRAO                   ELETROBRAS  PNB*       ELET6       010VISTA          000000000039500000000408000000003900000000000000000000396000055629400
0202LOTE PADRAO                   PETROBRAS   ON         PETR3       010VISTA          000000000057600000000580000000005700000000000000000000570000000024800
0202LOTE PADRAO                   COMGAS      PNA*       CGAS5       010VISTA          000000000150000000001549000000014100000000000000000001524000007284100
0202LOTE PADRAO                   SOUZA CRUZ  ON EJ      CRUZ3       010VISTA          000000000011100000000111000000001050000000000000000000105000000014400
0202LOTE PADRAO                   ELETROBRAS  ON *       ELET3       010VISTA          000000000044200000000442000000004270000000000000000000430000041850400
0202LOTE PADRAO                   CELESC      PNB        CLSC6       010VISTA          000000000000620000000006300000000061000000000000000000006100000397900
0202LOTE PADRAO                   BRADESCO    PN * EJ    BBDC4       010VISTA          000000000011800000000118000000001130000000000000000000114000196999000
0202LOTE PADRAO                   CESP        PN *       CESP4       010VISTA          000000000024900000000255000000002400000000000000000000245000006613600
0202LOTE PADRAO                   LIGHT       ON *       LIGH3       010VISTA          000000000219500000002239000000020750000000000000000002125000001241800
0202LOTE PADRAO                   TELESP CL PAPN *       TSPP4       010VISTA          000000000015900000000161000000001560000000000000000000160000147618000
0202LOTE PADRAO                   VALE R DOCE PNA        VALE5       010VISTA          000000000048800000000503000000004800000000000000000000500000000031700
0202LOTE PADRAO                   COPEL       PNB*       CPLE6       010VISTA          000000000017900000000186000000001760000000000000000000185000079259900
0202LOTE PADRAO                   VALE R DOCE ON         VALE3       010VISTA          000000000047500000000480000000004700000000000000000000480000000002500
0202LOTE PADRAO                   ARACRUZ     PNB        ARCZ6       010VISTA          000000000002800000000029400000000280000000000000000000028000000028800
0202LOTE PADRAO                   TELEMIG PARTPN *       TMCP4       010VISTA          000000000006000000000060000000000575000000000000000000057000075810400
0202LOTE PADRAO                   BRASIL TELECPN *       BRTO4       010VISTA          000000000014100000000144000000001350000000000000000000136000079706100
0202LOTE PADRAO                   SABESP      ON *       SBSP3       010VISTA          000000000204000000002090000000020400000000000000000002080000001195100
0202LOTE PADRAO                   BRASKEM     PNA*       BRKM5       010VISTA          000000000625000000006500000000062500000000000000000006500000000143600
0202LOTE PADRAO                   EMBRAER     PN EJ      EMBR4       010VISTA          000000000019900000000199000000001950000000000000000000198000000007900
0202LOTE PADRAO                   TELESP      PN * EJ    TLPP4       010VISTA          000000000029800000000299000000002950000000000000000000298000004027800
0202LOTE PADRAO                   EMBRAER     ON EJ      EMBR3       010VISTA          000000000015500000000156000000001530000000000000000000155000000013400
0202LOTE PADRAO                   AMBEV       PN *       AMBV4       010VISTA          000000000510000000005135000000050000000000000000000005110000003472700
0202LOTE PADRAO                   USIMINAS    PNA        USIM5       010VISTA          000000000011100000000111000000001060000000000000000000106000000021200
0202LOTE PADRAO                   ELETROPAULO PN *       ELPL4       010VISTA          000000000096900000000969000000009400000000000000000000955000004791000
0202LOTE PADRAO                   TELE NORD CLPN *       TNEP4       010VISTA          000000000003300000000033000000000330000000000000000000033000121605000
0202LOTE PADRAO                   CEMIG       PN * EJ    CMIG4       010VISTA          000000000030600000000311000000002980000000000000000000304000048413200
0202LOTE PADRAO                   TELE CL SUL PN * EJ    TCSL4       010VISTA          000000000004200000000042000000000410000000000000000000041000101398000
0202LOTE PADRAO                   CEMIG       ON * EJ    CMIG3       010VISTA          000000000025000000000251000000002350000000000000000000248000000481800
0202LOTE PADRAO                   TELE CL SUL ON * EJ    TCSL3       010VISTA          000000000003400000000034000000000330000000000000000000033000038468800
0202LOTE PADRAO                   ITAUSA      PN         ITSA4       010VISTA          000000000001800000000018000000000178000000000000000000018000000384300
0202LOTE PADRAO                   SID TUBARAO PN *       CSTB4       010VISTA          000000000021000000000218000000002060000000000000000000215000002910900
0202LOTE PADRAO                   V C P       PN *       VCPA4       010VISTA          000000000055600000000570000000005480000000000000000000550000003521400
0202LOTE PADRAO                   BRADESPAR   PN *       BRAP4       010VISTA          000000000001000000000010000000000100000000000000000000010000237950000
0202LOTE PADRAO                   NET         PN         PLIM4       010VISTA          000000000001550000000015000000000153000000000000000000015000000692000
0202LOTE PADRAO                   TELE CTR OESPN * EJ    TCOC4       010VISTA          000000000007200000000072000000000700000000000000000000070000059147300
0202LOTE PADRAO                   GERDAU      PN * EJ    GGBR4       010VISTA          000000000019500000000195000000001880000000000000000000191000010258300
0202LOTE PADRAO                   BRASIL      ON *       BBAS3       010VISTA          000000000007600000000077000000000750000000000000000000077100003998200
