00BDIN9999BOVESPA 99992001071720010717
0101IBOVESPA                      0138130138130142180000000000000000002001071700000020010717014169000000
0202LOTE PADRAO                   EMBRATEL PARPN *       EBTP4       010VISTA          000000000014100000000146000000001380000000000000000000146000113701000
0202LOTE PADRAO                   EMBRATEL PARON *       EBTP3       010VISTA          000000000014800000000152500000001440000000000000000000150000040460000
0202LOTE PADRAO                   TRAN PAULISTPN * EJ    TRPL4       010VISTA          000000000006200000000065000000000620000000000000000000065000015854900
0202LOTE PADRAO                   TELEMAR     PN * EJ    TNLP4       010VISTA          000000000033900000000350000000003350000000000000000000348000200810000
0202LOTE PADRAO                   ITAUBANCO   PN * EJ    ITAU4       010VISTA          000000000190000000001900000000018690000000000000000001880000015294300
0202LOTE PADRAO                   TELEMAR     ON * EJ    TNLP3       010VISTA          000000000029100000000291000000002830000000000000000000289000015351300
0202LOTE PADRAO                   SID NACIONALON *       CSNA3       010VISTA          000000000038600000000399000000003860000000000000000000396000005954900
0202LOTE PADRAO                   TELE LEST CLPN *       TLCP4       010VISTA          000000000001720000000017900000000171000000000000000000017800081220400
0202LOTE PADRAO                   CRT CELULAR PNA* EJ    CRTP5       010VISTA          000000000810000000008900000000081000000000000000000008700000000480100
0202LOTE PADRAO                   IPIRANGA PETPN *       PTIP4       010VISTA          000000000016500000000170000000001650000000000000000000165000002323000
0202LOTE PADRAO                   BRASIL T PARPN *       BRTP4       010VISTA          000000000018500000000190000000001800000000000000000000188000097103900
0202LOTE PADRAO                   BRASIL T PARON *       BRTP3       010VISTA          000000000016800000000178000000001680000000000000000000178000015082500
0202LOTE PADRAO                   ACESITA     PN *       ACES4       010VISTA          000000000000640000000006500000000063000000000000000000006400159296000
0202LOTE PADRAO                   PETROBRAS   PN         PETR4       010VISTA          000000000052300000000530000000005100000000000000000000518000000244200
0202LOTE PADRAO                   ELETROBRAS  PNB*       ELET6       010VISTA          000000000028300000000296000000002780000000000000000000291000060929100
0202LOTE PADRAO                   PETROBRAS   ON         PETR3       010VISTA          000000000057000000000571000000005600000000000000000000566000000046200
0202LOTE PADRAO                   COMGAS      PNA*       CGAS5       010VISTA          000000000137000000001389000000013300000000000000000001380000002732000
0202LOTE PADRAO                   SOUZA CRUZ  ON EJ      CRUZ3       010VISTA          000000000011400000000114000000001100000000000000000000111000000026200
0202LOTE PADRAO                   ELETROBRAS  ON *       ELET3       010VISTA          000000000032000000000339000000003200000000000000000000336000031402900
0202LOTE PADRAO                   CELESC      PNB        CLSC6       010VISTA          000000000000430000000004500000000042000000000000000000004500000193200
0202LOTE PADRAO                   BRADESCO    PN * EJ    BBDC4       010VISTA          000000000011800000000119000000001160000000000000000000116000205444000
0202LOTE PADRAO                   CESP        PN *       CESP4       010VISTA          000000000013300000000137000000001300000000000000000000137000013508600
0202LOTE PADRAO                   LIGHT       ON *       LIGH3       010VISTA          000000000124000000001260000000012300000000000000000001235000000524500
0202LOTE PADRAO                   TELESP CL PAPN *       TSPP4       010VISTA          000000000014000000000141000000001340000000000000000000140000100872000
0202LOTE PADRAO                   VALE R DOCE PNA        VALE5       010VISTA          000000000052500000000525000000005060000000000000000000512000000073000
0202LOTE PADRAO                   COPEL       PNB*       CPLE6       010VISTA          000000000018000000000186000000001760000000000000000000183000034965700
0202LOTE PADRAO                   VALE R DOCE ON         VALE3       010VISTA          000000000051000000000510000000005000000000000000000000510000000003300
0202LOTE PADRAO                   ARACRUZ     PNB        ARCZ6       010VISTA          000000000004200000000042000000000400000000000000000000041000000071500
0202LOTE PADRAO                   TELEMIG PARTPN *       TMCP4       010VISTA          000000000004400000000045000000000430000000000000000000045000099606600
0202LOTE PADRAO                   BRASIL TELECPN *       BRTO4       010VISTA          000000000012600000000130000000001250000000000000000000130000110073000
0202LOTE PADRAO                   SABESP      ON *       SBSP3       010VISTA          000000000150000000001530000000014900000000000000000001519000001776200
0202LOTE PADRAO                   BRASKEM     PNA*       BRKM5       010VISTA          000000000545000000005599000000054500000000000000000005500000000343400
0202LOTE PADRAO                   EMBRAER     PN EJ      EMBR4       010VISTA          000000000022400000000229000000002170000000000000000000226000000023900
0202LOTE PADRAO                   TELESP      PN * EJ    TLPP4       010VISTA          000000000024100000000250000000002410000000000000000000250000010908500
0202LOTE PADRAO                   EMBRAER     ON EJ      EMBR3       010VISTA          000000000017000000000176000000001680000000000000000000176000000015300
0202LOTE PADRAO                   AMBEV       PN *       AMBV4       010VISTA          000000000515000000005150000000049500000000000000000005129000001832300
0202LOTE PADRAO                   USIMINAS    PNA        USIM5       010VISTA          000000000006000000000064000000000600000000000000000000064000000052400
0202LOTE PADRAO                   ELETROPAULO PN *       ELPL4       010VISTA          000000000062800000000689000000006280000000000000000000670000005065100
0202LOTE PADRAO                   TELE NORD CLPN *       TNEP4       010VISTA          000000000003800000000038000000000370000000000000000000038000165955000
0202LOTE PADRAO                   CEMIG       PN * EJ    CMIG4       010VISTA          000000000027000000000281000000002680000000000000000000270000052438300
0202LOTE PADRAO                   TELE CL SUL PN * EJ    TCSL4       010VISTA          000000000004400000000047000000000440000000000000000000047000058037500
0202LOTE PADRAO                   CEMIG       ON * EJ    CMIG3       010VISTA          000000000025500000000272000000002550000000000000000000268000000484000
0202LOTE PADRAO                   TELE CL SUL ON * EJ    TCSL3       010VISTA          000000000003500000000037000000000350000000000000000000036900018300600
0202LOTE PADRAO                   ITAUSA      PN         ITSA4       010VISTA          000000000002000000000020000000000200000000000000000000020000001349200
0202LOTE PADRAO                   SID TUBARAO PN *       CSTB4       010VISTA          000000000021600000000217000000002150000000000000000000216000003280000
0202LOTE PADRAO                   V C P       PN *       VCPA4       010VISTA          000000000063300000000633000000006150000000000000000000630000002034800
0202LOTE PADRAO                   BRADESPAR   PN *       BRAP4       010VISTA          000000000000850000000008600000000082000000000000000000008400238180000
0202LOTE PADRAO                   NET         PN         PLIM4       010VISTA          000000000001100000000012000000000100000000000000000000011000002035200
0202LOTE PADRAO                   TELE CTR OESPN * EJ    TCOC4       010VISTA          000000000006000000000062000000000600000000000000000000062000060609400
0202LOTE PADRAO                   GERDAU      PN * EJ    GGBR4       010VISTA          000000000016100000000167500000001610000000000000000000166000005086000
0202LOTE PADRAO                   BRASIL      ON *       BBAS3       010VISTA          000000000009300000000095000000000910000000000000000000094000004882500
