00BDIN9999BOVESPA 99992001030120010301
0101IBOVESPA                      0158910158750164390000000000000000002001030100000020010301016417000000
0202LOTE PADRAO                   EMBRATEL PARPN *       EBTP4       010VISTA          000000000024800000000266000000002460000000000000000000265000078473800
0202LOTE PADRAO                   EMBRATEL PARON *       EBTP3       010VISTA          000000000019800000000210000000001960000000000000000000210000042671100
0202LOTE PADRAO                   TRAN PAULISTPN * EJ    TRPL4       010VISTA          000000000009000000000091000000000880000000000000000000090000004810000
0202LOTE PADRAO                   TELEMAR     PN * EJ    TNLP4       010VISTA          000000000044500000000460000000004380000000000000000000457000086333400
0202LOTE PADRAO                   ITAUBANCO   PN * EJ    ITAU4       010VISTA          000000000172000000001780000000017150000000000000000001755000009021000
0202LOTE PADRAO                   TELEMAR     ON * EJ    TNLP3       010VISTA          000000000032700000000348000000003270000000000000000000347000007768900
0202LOTE PADRAO                   SID NACIONALON *       CSNA3       010VISTA          000000000070000000000724000000007000000000000000000000715000016892900
0202LOTE PADRAO                   TELE LEST CLPN *       TLCP4       010VISTA          000000000001600000000017300000000160000000000000000000016900099328400
0202LOTE PADRAO                   IPIRANGA PETPN *       PTIP4       010VISTA          000000000014500000000149000000001450000000000000000000145000003016600
0202LOTE PADRAO                   BRASIL T PARPN *       BRTP4       010VISTA          000000000021000000000221000000002100000000000000000000218000046576200
0202LOTE PADRAO                   BRASIL T PARON *       BRTP3       010VISTA          000000000017400000000190000000001740000000000000000000189000010959900
0202LOTE PADRAO                   ACESITA     PN *       ACES4       010VISTA          000000000001000000000011000000000100000000000000000000011000044710900
0202LOTE PADRAO                   PETROBRAS   PN         PETR4       010VISTA          000000000054900000000562000000005440000000000000000000558000000061200
0202LOTE PADRAO                   ELETROBRAS  PNB*       ELET6       010VISTA          000000000036000000000390000000003600000000000000000000390000031614600
0202LOTE PADRAO                   PETROBRAS   ON         PETR3       010VISTA          000000000057500000000582000000005700000000000000000000580000000035500
0202LOTE PADRAO                   COMGAS      PNA*       CGAS5       010VISTA          000000000159500000001595000000015800000000000000000001595000000267300
0202LOTE PADRAO                   SOUZA CRUZ  ON EJ      CRUZ3       010VISTA          000000000012000000000125000000001200000000000000000000123000000021200
0202LOTE PADRAO                   CELESC      PNB        CLSC6       010VISTA          000000000000610000000006700000000061000000000000000000006700000156800
0202LOTE PADRAO                   ELETROBRAS  ON *       ELET3       010VISTA          000000000039000000000412000000003900000000000000000000406000018971700
0202LOTE PADRAO                   BRADESCO    PN * EJ    BBDC4       010VISTA          000000000011500000000117000000001120000000000000000000115000175680000
0202LOTE PADRAO                   CESP        PN *       CESP4       010VISTA          000000000022800000000241000000002280000000000000000000238000003155300
0202LOTE PADRAO                   LIGHT       ON *       LIGH3       010VISTA          000000000220000000002250000000021990000000000000000002240000000287200
0202LOTE PADRAO                   TELESP CL PAPN *       TSPP4       010VISTA          000000000018600000000189000000001830000000000000000000183000119127000
0202LOTE PADRAO                   VALE R DOCE PNA        VALE5       010VISTA          000000000052300000000524000000005170000000000000000000522000000040100
0202LOTE PADRAO                   COPEL       PNB*       CPLE6       010VISTA          000000000018800000000194000000001880000000000000000000194000021091300
0202LOTE PADRAO                   VALE R DOCE ON         VALE3       010VISTA          000000000049000000000500000000004900000000000000000000500000000000800
0202LOTE PADRAO                   ARACRUZ     PNB        ARCZ6       010VISTA          000000000002700000000028000000000270000000000000000000028000000047300
0202LOTE PADRAO                   TELEMIG PARTPN *       TMCP4       010VISTA          000000000005700000000061000000000575000000000000000000061000045233500
0202LOTE PADRAO                   BRASIL TELECPN *       BRTO4       010VISTA          000000000014800000000151000000001460000000000000000000151000034051600
0202LOTE PADRAO                   SABESP      ON *       SBSP3       010VISTA          000000000230000000002385000000023000000000000000000002385000001042500
0202LOTE PADRAO                   BRASKEM     PNA*       BRKM5       010VISTA          000000000625000000006650000000062500000000000000000006450000000374700
0202LOTE PADRAO                   EMBRAER     PN EJ      EMBR4       010VISTA          000000000019300000000195000000001900000000000000000000193000000042500
0202LOTE PADRAO                   TELESP      PN * EJ    TLPP4       010VISTA          000000000030000000000315000000002980000000000000000000315000003934700
0202LOTE PADRAO                   EMBRAER     ON EJ      EMBR3       010VISTA          000000000015500000000159000000001530000000000000000000156000000021200
0202LOTE PADRAO                   AMBEV       PN *       AMBV4       010VISTA          000000000506000000005100000000050100000000000000000005100000001523300
0202LOTE PADRAO                   USIMINAS    PNA        USIM5       010VISTA          000000000010400000000110000000001040000000000000000000110000000044100
0202LOTE PADRAO                   ELETROPAULO PN *       ELPL4       010VISTA          000000000109000000001110000000010900000000000000000001110000002314100
0202LOTE PADRAO                   TELE NORD CLPN *       TNEP4       010VISTA          000000000003200000000034000000000320000000000000000000034000060347500
0202LOTE PADRAO                   CEMIG       PN * EJ    CMIG4       010VISTA          000000000031000000000318000000003080000000000000000000313000028656300
0202LOTE PADRAO                   TELE CL SUL PN * EJ    TCSL4       010VISTA          000000000004200000000042000000000410000000000000000000042000170676000
0202LOTE PADRAO                   CEMIG       ON * EJ    CMIG3       010VISTA          000000000027400000000275000000002700000000000000000000272500000719800
0202LOTE PADRAO                   TELE CL SUL ON * EJ    TCSL3       010VISTA          000000000003300000000033000000000320000000000000000000033000057143900
0202LOTE PADRAO                   ITAUSA      PN         ITSA4       010VISTA          000000000001800000000018000000000180000000000000000000018000000351400
0202LOTE PADRAO                   SID TUBARAO PN *       CSTB4       010VISTA          000000000021100000000220000000002090000000000000000000219000001664200
0202LOTE PADRAO                   V C P       PN *       VCPA4       010VISTA          000000000056400000000570000000005620000000000000000000565000001614600
0202LOTE PADRAO                   BRADESPAR   PN *       BRAP4       010VISTA          000000000001000000000010000000000100000000000000000000010000143722000
0202LOTE PADRAO                   NET         PN         PLIM4       010VISTA          000000000001730000000018000000000172000000000000000000018000000480500
0202LOTE PADRAO                   TELE CTR OESPN * EJ    TCOC4       010VISTA          000000000007500000000077000000000750000000000000000000075000047071700
0202LOTE PADRAO                   GERDAU      PN * EJ    GGBR4       010VISTA          000000000019000000000195000000001900000000000000000000195000010316300
0202LOTE PADRAO                   BRASIL      ON *       BBAS3       010VISTA          000000000007200000000078000000000720000000000000000000076000005110900
