00BDIN9999BOVESPA 99992001090520010905
0101IBOVESPA                      0127670124620127680000000000000000002001090500000020010905012591000000
0202LOTE PADRAO                   EMBRATEL PARPN *       EBTP4       010VISTA          000000000010500000000105000000000990000000000000000000101000121668000
0202LOTE PADRAO                   EMBRATEL PARON *       EBTP3       010VISTA          000000000011200000000112000000001030000000000000000000103000051790600
0202LOTE PADRAO                   TRAN PAULISTPN * EJ    TRPL4       010VISTA          000000000006500000000068000000000640000000000000000000068000018834600
0202LOTE PADRAO                   TELEMAR     PN * EJ    TNLP4       010VISTA          000000000027600000000278000000002710000000000000000000273000192972000
0202LOTE PADRAO                   ITAUBANCO   PN * EJ    ITAU4       010VISTA          000000000173000000001760000000017100000000000000000001730000007089400
0202LOTE PADRAO                   TELEMAR     ON * EJ    TNLP3       010VISTA          000000000025600000000256000000002480000000000000000000256000019611100
0202LOTE PADRAO                   SID NACIONALON *       CSNA3       010VISTA          000000000034800000000367000000003480000000000000000000366000006954600
0202LOTE PADRAO                   TELE LEST CLPN *       TLCP4       010VISTA          000000000001250000000012700000000100000000000000000000011000172215000
0202LOTE PADRAO                   CRT CELULAR PNA* EJ    CRTP5       010VISTA          000000000880000000008800000000083000000000000000000008550000000693900
0202LOTE PADRAO                   IPIRANGA PETPN *       PTIP4       010VISTA          000000000012900000000130000000001200000000000000000000123000000646700
0202LOTE PADRAO                   BRASIL T PARPN *       BRTP4       010VISTA          000000000014000000000143000000001390000000000000000000140000054645100
0202LOTE PADRAO                   BRASIL T PARON *       BRTP3       010VISTA          000000000013000000000131000000001290000000000000000000129000016997700
0202LOTE PADRAO                   ACESITA     PN *       ACES4       010VISTA          000000000000530000000005500000000053000000000000000000005400215996000
0202LOTE PADRAO                   PETROBRAS   PN         PETR4       010VISTA          000000000055500000000583000000005550000000000000000000580000000134100
0202LOTE PADRAO                   ELETROBRAS  PNB*       ELET6       010VISTA          000000000030600000000327000000003060000000000000000000326000031932600
0202LOTE PADRAO                   PETROBRAS   ON         PETR3       010VISTA          000000000056700000000615000000005670000000000000000000605000000018400
0202LOTE PADRAO                   COMGAS      PNA*       CGAS5       010VISTA          000000000127000000001280000000012100000000000000000001240000000392700
0202LOTE PADRAO                   SOUZA CRUZ  ON EJ      CRUZ3       010VISTA          000000000011500000000123000000001140000000000000000000120000000008000
0202LOTE PADRAO                   ELETROBRAS  ON *       ELET3       010VISTA          000000000034500000000368000000003450000000000000000000366000009377500
0202LOTE PADRAO                   CELESC      PNB        CLSC6       010VISTA          000000000000410000000004200000000040000000000000000000004100000154400
0202LOTE PADRAO                   BRADESCO    PN * EJ    BBDC4       010VISTA          000000000011500000000116000000001130000000000000000000114000162654000
0202LOTE PADRAO                   CESP        PN *       CESP4       010VISTA          000000000012500000000130000000001250000000000000000000128000009363000
0202LOTE PADRAO                   LIGHT       ON *       LIGH3       010VISTA          000000000119000000001235000000011870000000000000000001187000000186900
0202LOTE PADRAO                   TELESP CL PAPN *       TSPP4       010VISTA          000000000008900000000089000000000800000000000000000000085001590560000
0202LOTE PADRAO                   VALE R DOCE PNA        VALE5       010VISTA          000000000050500000000515000000005050000000000000000000515000000044900
0202LOTE PADRAO                   COPEL       PNB*       CPLE6       010VISTA          000000000018500000000191000000001840000000000000000000188000034962300
0202LOTE PADRAO                   VALE R DOCE ON         VALE3       010VISTA          000000000051500000000525000000005080000000000000000000523000000001200
0202LOTE PADRAO                   ARACRUZ     PNB        ARCZ6       010VISTA          000000000004400000000045000000000440000000000000000000044000000096600
0202LOTE PADRAO                   TELEMIG PARTPN *       TMCP4       010VISTA          000000000003400000000035000000000320000000000000000000032000082320600
0202LOTE PADRAO                   BRASIL TELECPN *       BRTO4       010VISTA          000000000009900000000099000000000940000000000000000000096000058124000
0202LOTE PADRAO                   SABESP      ON *       SBSP3       010VISTA          000000000163000000001679000000016300000000000000000001655000000382900
0202LOTE PADRAO                   BRASKEM     PNA*       BRKM5       010VISTA          000000000440000000004400000000042600000000000000000004320000000061900
0202LOTE PADRAO                   EMBRAER     PN EJ      EMBR4       010VISTA          000000000016600000000168000000001625000000000000000000165000000027200
0202LOTE PADRAO                   TELESP      PN * EJ    TLPP4       010VISTA          000000000025400000000255000000002400000000000000000000246000009133400
0202LOTE PADRAO                   EMBRAER     ON EJ      EMBR3       010VISTA          000000000013500000000137000000001340000000000000000000134000000030000
0202LOTE PADRAO                   AMBEV       PN *       AMBV4       010VISTA          000000000485000000004990000000048500000000000000000004930000001482600
0202LOTE PADRAO                   USIMINAS    PNA        USIM5       010VISTA          000000000005800000000059000000000570000000000000000000058000000051500
0202LOTE PADRAO                   ELETROPAULO PN *       ELPL4       010VISTA          000000000073000000000737000000007200000000000000000000735000004272800
0202LOTE PADRAO                   TELE NORD CLPN *       TNEP4       010VISTA          000000000002800000000029600000000279000000000000000000027000112112000
0202LOTE PADRAO                   CEMIG       PN * EJ    CMIG4       010VISTA          000000000027000000000288000000002700000000000000000000288000051266800
0202LOTE PADRAO                   TELE CL SUL PN * EJ    TCSL4       010VISTA          000000000003100000000032000000000298000000000000000000030000083328800
0202LOTE PADRAO                   CEMIG       ON * EJ    CMIG3       010VISTA          000000000026900000000280000000002650000000000000000000265000000900500
0202LOTE PADRAO                   TELE CL SUL ON * EJ    TCSL3       010VISTA          000000000002700000000027000000000260000000000000000000026900033396000
0202LOTE PADRAO                   ITAUSA      PN         ITSA4       010VISTA          000000000001940000000019500000000190000000000000000000019500000938200
0202LOTE PADRAO                   SID TUBARAO PN *       CSTB4       010VISTA          000000000019800000000199000000001950000000000000000000195000004345400
0202LOTE PADRAO                   V C P       PN *       VCPA4       010VISTA          000000000072500000000730000000007250000000000000000000730000003029300
0202LOTE PADRAO                   BRADESPAR   PN *       BRAP4       010VISTA          000000000000620000000006600000000061000000000000000000006400334669000
0202LOTE PADRAO                   NET         PN         PLIM4       010VISTA          000000000000910000000009200000000086000000000000000000009000000926500
0202LOTE PADRAO                   TELE CTR OESPN * EJ    TCOC4       010VISTA          000000000005000000000050000000000460000000000000000000047500155935000
0202LOTE PADRAO                   GERDAU      PN * EJ    GGBR4       010VISTA          000000000016300000000165000000001620000000000000000000163000013640000
0202LOTE PADRAO                   BRASIL      ON *       BBAS3       010VISTA          000000000009100000000094000000000900000000000000000000093000007359200
