00BDIN9999BOVESPA 99992001011920010119
0101IBOVESPA                      0175250175120178160000000000000000002001011900000020010119017530000000
0202LOTE PADRAO                   EMBRATEL PARPN *       EBTP4       010VISTA          000000000034100000000346000000003310000000000000000000332000042853000
0202LOTE PADRAO                   EMBRATEL PARON *       EBTP3       010VISTA          000000000027400000000278000000002700000000000000000000270000010980300
0202LOTE PADRAO                   TRAN PAULISTPN * EJ    TRPL4       010VISTA          000000000008300000000083000000000800000000000000000000080000019437600
0202LOTE PADRAO                   TELEMAR     PN * EJ    TNLP4       010VISTA          000000000048700000000495000000004820000000000000000000489000142766000
0202LOTE PADRAO                   ITAUBANCO   PN * EJ    ITAU4       010VISTA          000000000196900000002040000000019600000000000000000002010000009323900
0202LOTE PADRAO                   TELEMAR     ON * EJ    TNLP3       010VISTA          000000000039500000000400000000003860000000000000000000396000008234300
0202LOTE PADRAO                   SID NACIONALON *       CSNA3       010VISTA          000000000067500000000680000000006720000000000000000000680000007362400
0202LOTE PADRAO                   TELE LEST CLPN *       TLCP4       010VISTA          000000000001480000000015200000000140000000000000000000014000052563700
0202LOTE PADRAO                   CRT CELULAR PNA* EJ    CRTP5       010VISTA          000000000764800000007648000000074100000000000000000007595000000428000
0202LOTE PADRAO                   IPIRANGA PETPN *       PTIP4       010VISTA          000000000017300000000181000000001730000000000000000000177000003871000
0202LOTE PADRAO                   BRASIL T PARPN *       BRTP4       010VISTA          000000000023800000000245000000002330000000000000000000235000068033900
0202LOTE PADRAO                   BRASIL T PARON *       BRTP3       010VISTA          000000000020000000000200000000001910000000000000000000194000012349000
0202LOTE PADRAO                   ACESITA     PN *       ACES4       010VISTA          000000000001200000000012500000000110000000000000000000012000898615000
0202LOTE PADRAO                   PETROBRAS   PN         PETR4       010VISTA          000000000054500000000554000000005260000000000000000000552000000188300
0202LOTE PADRAO                   ELETROBRAS  PNB*       ELET6       010VISTA          000000000039500000000395000000003760000000000000000000380000024463600
0202LOTE PADRAO                   PETROBRAS   ON         PETR3       010VISTA          000000000059000000000590000000005720000000000000000000572000000059700
0202LOTE PADRAO                   COMGAS      PNA*       CGAS5       010VISTA          000000000139000000001399000000013600000000000000000001365000000484300
0202LOTE PADRAO                   SOUZA CRUZ  ON EJ      CRUZ3       010VISTA          000000000010500000000105000000001020000000000000000000105000000027000
0202LOTE PADRAO                   ELETROBRAS  ON *       ELET3       010VISTA          000000000041500000000420000000004050000000000000000000407000010790900
0202LOTE PADRAO                   CELESC      PNB        CLSC6       010VISTA          000000000000690000000006900000000067000000000000000000006800000121200
0202LOTE PADRAO                   BRADESCO    PN * EJ    BBDC4       010VISTA          000000000013800000000139000000001370000000000000000000138000001987400
0202LOTE PADRAO                   CESP        PN *       CESP4       010VISTA          000000000022800000000233000000002260000000000000000000229000012134800
0202LOTE PADRAO                   LIGHT       ON *       LIGH3       010VISTA          000000000265000000002690000000026100000000000000000002651000001331400
0202LOTE PADRAO                   TELESP CL PAPN *       TSPP4       010VISTA          000000000021900000000221000000002060000000000000000000206000116970000
0202LOTE PADRAO                   VALE R DOCE PNA        VALE5       010VISTA          000000000049700000000505000000004900000000000000000000492000000032400
0202LOTE PADRAO                   COPEL       PNB*       CPLE6       010VISTA          000000000019300000000194000000001860000000000000000000193000057722900
0202LOTE PADRAO                   VALE R DOCE ON         VALE3       010VISTA          000000000047000000000470000000004620000000000000000000465000000000400
0202LOTE PADRAO                   ARACRUZ     PNB        ARCZ6       010VISTA          000000000003000000000030000000000290000000000000000000029600000043900
0202LOTE PADRAO                   TELEMIG PARTPN *       TMCP4       010VISTA          000000000006300000000065000000000630000000000000000000063000164544000
0202LOTE PADRAO                   BRASIL TELECPN *       BRTO4       010VISTA          000000000017600000000176000000001730000000000000000000173000031698800
0202LOTE PADRAO                   SABESP      ON *       SBSP3       010VISTA          000000000197000000002020000000019700000000000000000002000000003335200
0202LOTE PADRAO                   BRASKEM     PNA*       BRKM5       010VISTA          000000000690000000007000000000068500000000000000000006995000000223600
0202LOTE PADRAO                   EMBRAER     PN EJ      EMBR4       010VISTA          000000000019600000000198000000001930000000000000000000193000000016200
0202LOTE PADRAO                   TELESP      PN * EJ    TLPP4       010VISTA          000000000028300000000287000000002780000000000000000000286000006149500
0202LOTE PADRAO                   EMBRAER     ON EJ      EMBR3       010VISTA          000000000016000000000161000000001560000000000000000000156000000022200
0202LOTE PADRAO                   AMBEV       PN *       AMBV4       010VISTA          000000000506000000005140000000050300000000000000000005120000001473600
0202LOTE PADRAO                   USIMINAS    PNA        USIM5       010VISTA          000000000010700000000111000000001060000000000000000000108000000028800
0202LOTE PADRAO                   ELETROPAULO PN *       ELPL4       010VISTA          000000000120000000001200000000011500000000000000000001170000005958400
0202LOTE PADRAO                   TELE NORD CLPN *       TNEP4       010VISTA          000000000004400000000045000000000420000000000000000000043000224514000
0202LOTE PADRAO                   CEMIG       PN * EJ    CMIG4       010VISTA          000000000034200000000350000000003390000000000000000000340000062372900
0202LOTE PADRAO                   TELE CL SUL PN * EJ    TCSL4       010VISTA          000000000005200000000054000000000520000000000000000000052000078243200
0202LOTE PADRAO                   CEMIG       ON * EJ    CMIG3       010VISTA          000000000030100000000301000000002850000000000000000000298000008474000
0202LOTE PADRAO                   TELE CL SUL ON * EJ    TCSL3       010VISTA          000000000004500000000046000000000430000000000000000000043000020640500
0202LOTE PADRAO                   ITAUSA      PN         ITSA4       010VISTA          000000000002100000000021000000000200000000000000000000021000000403800
0202LOTE PADRAO                   SID TUBARAO PN *       CSTB4       010VISTA          000000000023900000000246000000002380000000000000000000242000007735600
0202LOTE PADRAO                   V C P       PN *       VCPA4       010VISTA          000000000059000000000595000000005820000000000000000000590000005655800
0202LOTE PADRAO                   BRADESPAR   PN *       BRAP4       010VISTA          000000000001250000000012700000000120000000000000000000012000428202000
0202LOTE PADRAO                   NET         PN         PLIM4       010VISTA          000000000002300000000024000000000230000000000000000000023000001723900
0202LOTE PADRAO                   TELE CTR OESPN * EJ    TCOC4       010VISTA          000000000008400000000090000000000840000000000000000000090000092899800
0202LOTE PADRAO                   GERDAU      PN * EJ    GGBR4       010VISTA          000000000020000000000210000000002000000000000000000000206000029597400
0202LOTE PADRAO                   BRASIL      ON *       BBAS3       010VISTA          000000000008400000000084000000000800000000000000000000081000004116500
