00BDIN9999BOVESPA 99992001020920010209
0101IBOVESPA                      0172570170500172700000000000000000002001020900000020010209017138000000
0202LOTE PADRAO                   EMBRATEL PARPN *       EBTP4       010VISTA          000000000029100000000291000000002800000000000000000000282500040024700
0202LOTE PADRAO                   EMBRATEL PARON *       EBTP3       010VISTA          000000000023800000000239000000002330000000000000000000234000008684300
0202LOTE PADRAO                   TRAN PAULISTPN * EJ    TRPL4       010VISTA          000000000009250000000094000000000910000000000000000000091000014509000
0202LOTE PADRAO                   TELEMAR     PN * EJ    TNLP4       010VISTA          000000000048500000000485000000004680000000000000000000469000179552000
0202LOTE PADRAO                   ITAUBANCO   PN * EJ    ITAU4       010VISTA          000000000184000000001840000000018000000000000000000001800000003038700
0202LOTE PADRAO                   TELEMAR     ON * EJ    TNLP3       010VISTA          000000000038600000000391000000003750000000000000000000380000016859400
0202LOTE PADRAO                   SID NACIONALON *       CSNA3       010VISTA          000000000069700000000704000000006790000000000000000000679000003348000
0202LOTE PADRAO                   TELE LEST CLPN *       TLCP4       010VISTA          000000000001560000000015000000000152000000000000000000015400040937300
0202LOTE PADRAO                   IPIRANGA PETPN *       PTIP4       010VISTA          000000000016500000000169000000001650000000000000000000165000001855600
0202LOTE PADRAO                   BRASIL T PARPN *       BRTP4       010VISTA          000000000024600000000250000000002420000000000000000000248000135418000
0202LOTE PADRAO                   BRASIL T PARON *       BRTP3       010VISTA          000000000021900000000230000000002190000000000000000000230000097292200
0202LOTE PADRAO                   ACESITA     PN *       ACES4       010VISTA          000000000001100000000011000000000110000000000000000000011000100846000
0202LOTE PADRAO                   PETROBRAS   PN         PETR4       010VISTA          000000000055700000000562500000005520000000000000000000560000000073700
0202LOTE PADRAO                   ELETROBRAS  PNB*       ELET6       010VISTA          000000000038900000000398000000003830000000000000000000398000014176500
0202LOTE PADRAO                   PETROBRAS   ON         PETR3       010VISTA          000000000056200000000575000000005600000000000000000000568000000036000
0202LOTE PADRAO                   COMGAS      PNA*       CGAS5       010VISTA          000000000151000000001560000000015100000000000000000001530000004690100
0202LOTE PADRAO                   SOUZA CRUZ  ON EJ      CRUZ3       010VISTA          000000000011000000000111000000001100000000000000000000110000000021100
0202LOTE PADRAO                   CELESC      PNB        CLSC6       010VISTA          000000000000680000000006800000000066000000000000000000006600000116400
0202LOTE PADRAO                   ELETROBRAS  ON *       ELET3       010VISTA          000000000041200000000422000000004120000000000000000000416000013735000
0202LOTE PADRAO                   BRADESCO    PN * EJ    BBDC4       010VISTA          000000000012800000000128000000001230000000000000000000125000125940000
0202LOTE PADRAO                   CESP        PN *       CESP4       010VISTA          000000000026000000000266000000002560000000000000000000260000021683900
0202LOTE PADRAO                   LIGHT       ON *       LIGH3       010VISTA          000000000256000000002570000000025020000000000000000002560000000276500
0202LOTE PADRAO                   TELESP CL PAPN *       TSPP4       010VISTA          000000000020100000000201000000001980000000000000000000199000089970500
0202LOTE PADRAO                   VALE R DOCE PNA        VALE5       010VISTA          000000000050900000000509000000005030000000000000000000508000000041500
0202LOTE PADRAO                   COPEL       PNB*       CPLE6       010VISTA          000000000019300000000200000000001910000000000000000000197000030714900
0202LOTE PADRAO                   VALE R DOCE ON         VALE3       010VISTA          000000000048000000000480000000004800000000000000000000480000000000000
0202LOTE PADRAO                   ARACRUZ     PNB        ARCZ6       010VISTA          000000000002800000000028000000000280000000000000000000028000000052000
0202LOTE PADRAO                   TELEMIG PARTPN *       TMCP4       010VISTA          000000000006750000000067500000000640000000000000000000066000194402000
0202LOTE PADRAO                   BRASIL TELECPN *       BRTO4       010VISTA          000000000017100000000178000000001690000000000000000000178000072725000
0202LOTE PADRAO                   SABESP      ON *       SBSP3       010VISTA          000000000220000000002200000000021700000000000000000002172000000593400
0202LOTE PADRAO                   BRASKEM     PNA*       BRKM5       010VISTA          000000000660000000006711000000065900000000000000000006711000000086000
0202LOTE PADRAO                   EMBRAER     PN EJ      EMBR4       010VISTA          000000000020000000000200000000001860000000000000000000187000000031400
0202LOTE PADRAO                   TELESP      PN * EJ    TLPP4       010VISTA          000000000031300000000316000000003100000000000000000000313000003238900
0202LOTE PADRAO                   EMBRAER     ON EJ      EMBR3       010VISTA          000000000015800000000158000000001540000000000000000000158000000060700
0202LOTE PADRAO                   AMBEV       PN *       AMBV4       010VISTA          000000000531000000005310000000052100000000000000000005241000000589700
0202LOTE PADRAO                   USIMINAS    PNA        USIM5       010VISTA          000000000011500000000115000000001110000000000000000000111000000048800
0202LOTE PADRAO                   ELETROPAULO PN *       ELPL4       010VISTA          000000000112000000001131000000011200000000000000000001130000001078800
0202LOTE PADRAO                   TELE NORD CLPN *       TNEP4       010VISTA          000000000004000000000041000000000380000000000000000000039000031051500
0202LOTE PADRAO                   CEMIG       PN * EJ    CMIG4       010VISTA          000000000034600000000347000000003420000000000000000000342000020188100
0202LOTE PADRAO                   TELE CL SUL PN * EJ    TCSL4       010VISTA          000000000005000000000050000000000490000000000000000000049000045020900
0202LOTE PADRAO                   CEMIG       ON * EJ    CMIG3       010VISTA          000000000030500000000308000000003010000000000000000000301000003537800
0202LOTE PADRAO                   TELE CL SUL ON * EJ    TCSL3       010VISTA          000000000004200000000042000000000420000000000000000000042000012542600
0202LOTE PADRAO                   ITAUSA      PN         ITSA4       010VISTA          000000000002000000000020000000000199000000000000000000020000000061800
0202LOTE PADRAO                   SID TUBARAO PN *       CSTB4       010VISTA          000000000023200000000233000000002310000000000000000000233000002252100
0202LOTE PADRAO                   V C P       PN *       VCPA4       010VISTA          000000000061000000000610000000005900000000000000000000590000002765700
0202LOTE PADRAO                   BRADESPAR   PN *       BRAP4       010VISTA          000000000001100000000011000000000110000000000000000000011000062126000
0202LOTE PADRAO                   NET         PN         PLIM4       010VISTA          000000000002000000000020000000000198000000000000000000020000000718700
0202LOTE PADRAO                   TELE CTR OESPN * EJ    TCOC4       010VISTA          000000000008200000000082000000000800000000000000000000080000023070300
0202LOTE PADRAO                   GERDAU      PN * EJ    GGBR4       010VISTA          000000000020300000000204000000002020000000000000000000203000027422900
0202LOTE PADRAO                   BRASIL      ON *       BBAS3       010VISTA          000000000007700000000077000000000750000000000000000000075000004388000
