00BDIN9999BOVESPA 99992001061220010612
0101IBOVESPA                      0152380149560152380000000000000000002001061200000020010612015173000000
0202LOTE PADRAO                   EMBRATEL PARPN *       EBTP4       010VISTA          000000000021600000000221000000002125000000000000000000219000075086500
0202LOTE PADRAO                   EMBRATEL PARON *       EBTP3       010VISTA          000000000022000000000220000000002080000000000000000000218000046751200
0202LOTE PADRAO                   TRAN PAULISTPN * EJ    TRPL4       010VISTA          000000000006500000000068000000000640000000000000000000065000012160300
0202LOTE PADRAO                   TELEMAR     PN * EJ    TNLP4       010VISTA          000000000038000000000382000000003750000000000000000000380000193434000
0202LOTE PADRAO                   ITAUBANCO   PN * EJ    ITAU4       010VISTA          000000000194000000001950000000018950000000000000000001910000007227000
0202LOTE PADRAO                   TELEMAR     ON * EJ    TNLP3       010VISTA          000000000033000000000331000000003250000000000000000000325000009284200
0202LOTE PADRAO                   SID NACIONALON *       CSNA3       010VISTA          000000000042000000000425000000004120000000000000000000425000006404800
0202LOTE PADRAO                   TELE LEST CLPN *       TLCP4       010VISTA          000000000001900000000019000000000180000000000000000000018000095302600
0202LOTE PADRAO                   IPIRANGA PETPN *       PTIP4       010VISTA          000000000016000000000160000000001600000000000000000000160000000210000
0202LOTE PADRAO                   BRASIL T PARPN *       BRTP4       010VISTA          000000000020500000000205000000001960000000000000000000199000072508700
0202LOTE PADRAO                   BRASIL T PARON *       BRTP3       010VISTA          000000000019100000000195000000001860000000000000000000191000006154700
0202LOTE PADRAO                   ACESITA     PN *       ACES4       010VISTA          000000000000710000000007100000000069000000000000000000007100125698000
0202LOTE PADRAO                   PETROBRAS   PN         PETR4       010VISTA          000000000058000000000589000000005680000000000000000000577000000168800
0202LOTE PADRAO                   ELETROBRAS  PNB*       ELET6       010VISTA          000000000029300000000293000000002860000000000000000000286000084368300
0202LOTE PADRAO                   PETROBRAS   ON         PETR3       010VISTA          000000000064200000000645000000006280000000000000000000640000000021000
0202LOTE PADRAO                   COMGAS      PNA*       CGAS5       010VISTA          000000000152000000001544000000014800000000000000000001510000001852400
0202LOTE PADRAO                   SOUZA CRUZ  ON EJ      CRUZ3       010VISTA          000000000011600000000118000000001160000000000000000000118000000003400
0202LOTE PADRAO                   CELESC      PNB        CLSC6       010VISTA          000000000000480000000004800000000046000000000000000000004800000282100
0202LOTE PADRAO                   ELETROBRAS  ON *       ELET3       010VISTA          000000000033000000000330000000003200000000000000000000321000044804600
0202LOTE PADRAO                   BRADESCO    PN * EJ    BBDC4       010VISTA          000000000012400000000129000000001220000000000000000000129000137783000
0202LOTE PADRAO                   CESP        PN *       CESP4       010VISTA          000000000015400000000155000000001440000000000000000000147000026328800
0202LOTE PADRAO                   LIGHT       ON *       LIGH3       010VISTA          000000000141900000001419000000013200000000000000000001370000000236800
0202LOTE PADRAO                   TELESP CL PAPN *       TSPP4       010VISTA          000000000014900000000154000000001480000000000000000000150000113102000
0202LOTE PADRAO                   VALE R DOCE PNA        VALE5       010VISTA          000000000056600000000567500000005550000000000000000000555000000065100
0202LOTE PADRAO                   COPEL       PNB*       CPLE6       010VISTA          000000000017300000000178000000001710000000000000000000173000013256600
0202LOTE PADRAO                   VALE R DOCE ON         VALE3       010VISTA          000000000053000000000530000000005290000000000000000000530000000011100
0202LOTE PADRAO                   ARACRUZ     PNB        ARCZ6       010VISTA          000000000004200000000043000000000420000000000000000000042000000090700
0202LOTE PADRAO                   TELEMIG PARTPN *       TMCP4       010VISTA          000000000005300000000053000000000510000000000000000000052000060895700
0202LOTE PADRAO                   BRASIL TELECPN *       BRTO4       010VISTA          000000000013400000000135000000001300000000000000000000132500064390600
0202LOTE PADRAO                   SABESP      ON *       SBSP3       010VISTA          000000000172000000001720000000016900000000000000000001690000000406200
0202LOTE PADRAO                   BRASKEM     PNA*       BRKM5       010VISTA          000000000546900000005499000000053500000000000000000005400000000167500
0202LOTE PADRAO                   EMBRAER     PN EJ      EMBR4       010VISTA          000000000022500000000237500000002230000000000000000000235000000054900
0202LOTE PADRAO                   TELESP      PN * EJ    TLPP4       010VISTA          000000000029500000000295000000002830000000000000000000290000007336100
0202LOTE PADRAO                   EMBRAER     ON EJ      EMBR3       010VISTA          000000000017800000000186000000001760000000000000000000184000000051400
0202LOTE PADRAO                   AMBEV       PN *       AMBV4       010VISTA          000000000520000000005200000000050800000000000000000005080000005929500
0202LOTE PADRAO                   USIMINAS    PNA        USIM5       010VISTA          000000000006900000000069000000000660000000000000000000067000000031700
0202LOTE PADRAO                   ELETROPAULO PN *       ELPL4       010VISTA          000000000065900000000659000000006200000000000000000000642000000759100
0202LOTE PADRAO                   TELE NORD CLPN *       TNEP4       010VISTA          000000000004600000000047000000000450000000000000000000046000302690000
0202LOTE PADRAO                   CEMIG       PN * EJ    CMIG4       010VISTA          000000000025750000000257500000002480000000000000000000253000036640200
0202LOTE PADRAO                   TELE CL SUL PN * EJ    TCSL4       010VISTA          000000000005200000000052000000000510000000000000000000052000088806200
0202LOTE PADRAO                   CEMIG       ON * EJ    CMIG3       010VISTA          000000000024800000000248000000002410000000000000000000243000001723200
0202LOTE PADRAO                   TELE CL SUL ON * EJ    TCSL3       010VISTA          000000000004600000000046000000000440000000000000000000045400017793900
0202LOTE PADRAO                   ITAUSA      PN         ITSA4       010VISTA          000000000002000000000020000000000200000000000000000000020000000202800
0202LOTE PADRAO                   SID TUBARAO PN *       CSTB4       010VISTA          000000000023500000000238000000002350000000000000000000238000004464600
0202LOTE PADRAO                   V C P       PN *       VCPA4       010VISTA          000000000073900000000755000000007390000000000000000000752000006156200
0202LOTE PADRAO                   BRADESPAR   PN *       BRAP4       010VISTA          000000000000870000000008700000000084000000000000000000008600204233000
0202LOTE PADRAO                   NET         PN         PLIM4       010VISTA          000000000000920000000009900000000092000000000000000000009900001906800
0202LOTE PADRAO                   TELE CTR OESPN * EJ    TCOC4       010VISTA          000000000006700000000069000000000670000000000000000000067000032772600
0202LOTE PADRAO                   GERDAU      PN * EJ    GGBR4       010VISTA          000000000017100000000171000000001680000000000000000000170000009624900
0202LOTE PADRAO                   BRASIL      ON *       BBAS3       010VISTA          000000000008200000000082000000000800000000000000000000081000002029600
