00BDIN9999BOVESPA 99992001022320010223
0101IBOVESPA                      0159200158310162230000000000000000002001022300000020010223016158000000
0202LOTE PADRAO                   EMBRATEL PARPN *       EBTP4       010VISTA          000000000024900000000258000000002480000000000000000000256000054788300
0202LOTE PADRAO                   EMBRATEL PARON *       EBTP3       010VISTA          000000000020500000000209000000002000000000000000000000206000014804300
0202LOTE PADRAO                   TRAN PAULISTPN * EJ    TRPL4       010VISTA          000000000009000000000092000000000870000000000000000000092000011513000
0202LOTE PADRAO                   TELEMAR     PN * EJ    TNLP4       010VISTA          000000000042700000000443000000004230000000000000000000443000087661900
0202LOTE PADRAO                   ITAUBANCO   PN * EJ    ITAU4       010VISTA          000000000174900000001850000000017400000000000000000001780000010850000
0202LOTE PADRAO                   TELEMAR     ON * EJ    TNLP3       010VISTA          000000000032500000000342000000003250000000000000000000332000005233300
0202LOTE PADRAO                   SID NACIONALON *       CSNA3       010VISTA          000000000073500000000735000000007000000000000000000000722000045676500
0202LOTE PADRAO                   TELE LEST CLPN *       TLCP4       010VISTA          000000000001400000000016000000000140000000000000000000015200349100000
0202LOTE PADRAO                   IPIRANGA PETPN *       PTIP4       010VISTA          000000000014600000000150000000001430000000000000000000143000003041000
0202LOTE PADRAO                   BRASIL T PARPN *       BRTP4       010VISTA          000000000021000000000216000000002050000000000000000000213000094684700
0202LOTE PADRAO                   BRASIL T PARON *       BRTP3       010VISTA          000000000017800000000190000000001760000000000000000000178000016511000
0202LOTE PADRAO                   ACESITA     PN *       ACES4       010VISTA          000000000001000000000011000000000100000000000000000000011000084996500
0202LOTE PADRAO                   PETROBRAS   PN         PETR4       010VISTA          000000000055900000000561000000005500000000000000000000557000000070100
0202LOTE PADRAO                   ELETROBRAS  PNB*       ELET6       010VISTA          000000000036700000000370000000003630000000000000000000370000029276100
0202LOTE PADRAO                   PETROBRAS   ON         PETR3       010VISTA          000000000057200000000580000000005600000000000000000000570000000036800
0202LOTE PADRAO                   COMGAS      PNA*       CGAS5       010VISTA          000000000158900000001595000000015800000000000000000001590000003271000
0202LOTE PADRAO                   SOUZA CRUZ  ON EJ      CRUZ3       010VISTA          000000000012300000000126000000001210000000000000000000121000000022300
0202LOTE PADRAO                   CELESC      PNB        CLSC6       010VISTA          000000000000650000000006500000000062000000000000000000006500000068300
0202LOTE PADRAO                   ELETROBRAS  ON *       ELET3       010VISTA          000000000038200000000387000000003820000000000000000000385000013947500
0202LOTE PADRAO                   BRADESCO    PN * EJ    BBDC4       010VISTA          000000000011800000000120000000001160000000000000000000119000109528000
0202LOTE PADRAO                   CESP        PN *       CESP4       010VISTA          000000000022800000000239000000002250000000000000000000239000003475800
0202LOTE PADRAO                   LIGHT       ON *       LIGH3       010VISTA          000000000234000000002340000000022120000000000000000002300000000455100
0202LOTE PADRAO                   TELESP CL PAPN *       TSPP4       010VISTA          000000000018100000000181000000001775000000000000000000181000062464200
0202LOTE PADRAO                   VALE R DOCE PNA        VALE5       010VISTA          000000000050600000000520000000005060000000000000000000520000000038800
0202LOTE PADRAO                   COPEL       PNB*       CPLE6       010VISTA          000000000018800000000188000000001800000000000000000000185000019787800
0202LOTE PADRAO                   VALE R DOCE ON         VALE3       010VISTA          000000000049500000000505000000004950000000000000000000503000000006100
0202LOTE PADRAO                   ARACRUZ     PNB        ARCZ6       010VISTA          000000000002750000000027000000000269000000000000000000027000000054300
0202LOTE PADRAO                   TELEMIG PARTPN *       TMCP4       010VISTA          000000000005600000000057000000000550000000000000000000057000042445600
0202LOTE PADRAO                   BRASIL TELECPN *       BRTO4       010VISTA          000000000014700000000154000000001450000000000000000000151000043863800
0202LOTE PADRAO                   SABESP      ON *       SBSP3       010VISTA          000000000223500000002384000000022350000000000000000002380000002033100
0202LOTE PADRAO                   BRASKEM     PNA*       BRKM5       010VISTA          000000000673000000006730000000063100000000000000000006310000000046700
0202LOTE PADRAO                   EMBRAER     PN EJ      EMBR4       010VISTA          000000000018000000000190000000001775000000000000000000180000000024000
0202LOTE PADRAO                   TELESP      PN * EJ    TLPP4       010VISTA          000000000030000000000308000000002950000000000000000000308000003075300
0202LOTE PADRAO                   EMBRAER     ON EJ      EMBR3       010VISTA          000000000015000000000153000000001480000000000000000000152000000016600
0202LOTE PADRAO                   AMBEV       PN *       AMBV4       010VISTA          000000000510100000005200000000050600000000000000000005150000000840700
0202LOTE PADRAO                   USIMINAS    PNA        USIM5       010VISTA          000000000010600000000111000000001060000000000000000000111000000023600
0202LOTE PADRAO                   ELETROPAULO PN *       ELPL4       010VISTA          000000000106000000001100000000010500000000000000000001100000001288600
0202LOTE PADRAO                   TELE NORD CLPN *       TNEP4       010VISTA          000000000003300000000034000000000330000000000000000000033000067073300
0202LOTE PADRAO                   CEMIG       PN * EJ    CMIG4       010VISTA          000000000031300000000322000000003130000000000000000000322000021662200
0202LOTE PADRAO                   TELE CL SUL PN * EJ    TCSL4       010VISTA          000000000004200000000042000000000410000000000000000000041000101798000
0202LOTE PADRAO                   CEMIG       ON * EJ    CMIG3       010VISTA          000000000026800000000277000000002600000000000000000000277000000523000
0202LOTE PADRAO                   TELE CL SUL ON * EJ    TCSL3       010VISTA          000000000003300000000034000000000330000000000000000000034000018012700
0202LOTE PADRAO                   ITAUSA      PN         ITSA4       010VISTA          000000000001940000000019700000000190000000000000000000019700000166500
0202LOTE PADRAO                   SID TUBARAO PN *       CSTB4       010VISTA          000000000022400000000224000000002140000000000000000000224000003110000
0202LOTE PADRAO                   V C P       PN *       VCPA4       010VISTA          000000000054500000000577000000005450000000000000000000550000001827300
0202LOTE PADRAO                   BRADESPAR   PN *       BRAP4       010VISTA          000000000001000000000011000000000100000000000000000000011000160571000
0202LOTE PADRAO                   NET         PN         PLIM4       010VISTA          000000000001740000000018000000000172000000000000000000018000000701100
0202LOTE PADRAO                   TELE CTR OESPN * EJ    TCOC4       010VISTA          000000000006700000000067500000000650000000000000000000065000044652900
0202LOTE PADRAO                   GERDAU      PN * EJ    GGBR4       010VISTA          000000000018800000000195000000001880000000000000000000193000018948100
0202LOTE PADRAO                   BRASIL      ON *       BBAS3       010VISTA          000000000007500000000075000000000710000000000000000000075000004215500
