00BDIN9999BOVESPA 99992001051020010510
0101IBOVESPA                      0147960147960151170000000000000000002001051000000020010510014993000000
0202LOTE PADRAO                   EMBRATEL PARPN *       EBTP4       010VISTA          000000000019900000000201000000001960000000000000000000198000047569100
0202LOTE PADRAO                   EMBRATEL PARON *       EBTP3       010VISTA          000000000018100000000190000000001810000000000000000000188000041084200
0202LOTE PADRAO                   TRAN PAULISTPN * EJ    TRPL4       010VISTA          000000000006700000000069000000000670000000000000000000067000094961900
0202LOTE PADRAO                   TELEMAR     PN * EJ    TNLP4       010VISTA          000000000037900000000388000000003780000000000000000000378000157642000
0202LOTE PADRAO                   ITAUBANCO   PN * EJ    ITAU4       010VISTA          000000000181000000001830000000018100000000000000000001810000010074000
0202LOTE PADRAO                   TELEMAR     ON * EJ    TNLP3       010VISTA          000000000034700000000347000000003370000000000000000000338000014290900
0202LOTE PADRAO                   SID NACIONALON *       CSNA3       010VISTA          000000000050000000000500000000004870000000000000000000490000005742500
0202LOTE PADRAO                   TELE LEST CLPN *       TLCP4       010VISTA          000000000001800000000018000000000179000000000000000000018000311135000
0202LOTE PADRAO                   IPIRANGA PETPN *       PTIP4       010VISTA          000000000016000000000163000000001600000000000000000000160000003803300
0202LOTE PADRAO                   BRASIL T PARPN *       BRTP4       010VISTA          000000000018600000000194000000001850000000000000000000193000114863000
0202LOTE PADRAO                   BRASIL T PARON *       BRTP3       010VISTA          000000000018500000000198000000001850000000000000000000195000008460800
0202LOTE PADRAO                   ACESITA     PN *       ACES4       010VISTA          000000000000800000000008200000000078000000000000000000008100187852000
0202LOTE PADRAO                   PETROBRAS   PN         PETR4       010VISTA          000000000055600000000574000000005560000000000000000000572000000155900
0202LOTE PADRAO                   ELETROBRAS  PNB*       ELET6       010VISTA          000000000031300000000313000000003000000000000000000000300000050964500
0202LOTE PADRAO                   PETROBRAS   ON         PETR3       010VISTA          000000000060200000000621000000006020000000000000000000617000000037900
0202LOTE PADRAO                   COMGAS      PNA*       CGAS5       010VISTA          000000000137000000001375000000013300000000000000000001355000000848000
0202LOTE PADRAO                   SOUZA CRUZ  ON EJ      CRUZ3       010VISTA          000000000010800000000109000000001070000000000000000000107500000035700
0202LOTE PADRAO                   CELESC      PNB        CLSC6       010VISTA          000000000000490000000004900000000048000000000000000000004800000107600
0202LOTE PADRAO                   ELETROBRAS  ON *       ELET3       010VISTA          000000000034600000000353000000003460000000000000000000347000027550400
0202LOTE PADRAO                   BRADESCO    PN * EJ    BBDC4       010VISTA          000000000012000000000121000000001180000000000000000000118000168467000
0202LOTE PADRAO                   CESP        PN *       CESP4       010VISTA          000000000021500000000217000000002030000000000000000000203000011560000
0202LOTE PADRAO                   LIGHT       ON *       LIGH3       010VISTA          000000000156900000001569000000015000000000000000000001540000000346100
0202LOTE PADRAO                   TELESP CL PAPN *       TSPP4       010VISTA          000000000014800000000150000000001450000000000000000000145000119722000
0202LOTE PADRAO                   VALE R DOCE PNA        VALE5       010VISTA          000000000055000000000572000000005500000000000000000000571000000063600
0202LOTE PADRAO                   COPEL       PNB*       CPLE6       010VISTA          000000000017000000000171000000001600000000000000000000161000068340600
0202LOTE PADRAO                   VALE R DOCE ON         VALE3       010VISTA          000000000051000000000520000000005080000000000000000000515000000003500
0202LOTE PADRAO                   ARACRUZ     PNB        ARCZ6       010VISTA          000000000003700000000039000000000370000000000000000000038000000226500
0202LOTE PADRAO                   TELEMIG PARTPN *       TMCP4       010VISTA          000000000004500000000045000000000440000000000000000000044000092929100
0202LOTE PADRAO                   BRASIL TELECPN *       BRTO4       010VISTA          000000000013400000000135000000001310000000000000000000135000080756300
0202LOTE PADRAO                   SABESP      ON *       SBSP3       010VISTA          000000000170000000001730000000016950000000000000000001718000001201300
0202LOTE PADRAO                   BRASKEM     PNA*       BRKM5       010VISTA          000000000535800000005550000000053580000000000000000005490000000446000
0202LOTE PADRAO                   EMBRAER     PN EJ      EMBR4       010VISTA          000000000022700000000241000000002260000000000000000000237500000019900
0202LOTE PADRAO                   TELESP      PN * EJ    TLPP4       010VISTA          000000000029600000000301000000002960000000000000000000301000004890300
0202LOTE PADRAO                   EMBRAER     ON EJ      EMBR3       010VISTA          000000000019000000000193000000001830000000000000000000191000000044000
0202LOTE PADRAO                   AMBEV       PN *       AMBV4       010VISTA          000000000530000000005600000000053000000000000000000005600000003357700
0202LOTE PADRAO                   USIMINAS    PNA        USIM5       010VISTA          000000000007900000000080000000000750000000000000000000075000000165300
0202LOTE PADRAO                   ELETROPAULO PN *       ELPL4       010VISTA          000000000059500000000610000000005800000000000000000000585000002962900
0202LOTE PADRAO                   TELE NORD CLPN *       TNEP4       010VISTA          000000000003100000000032000000000310000000000000000000031000049609000
0202LOTE PADRAO                   CEMIG       PN * EJ    CMIG4       010VISTA          000000000025200000000253000000002460000000000000000000248000049468700
0202LOTE PADRAO                   TELE CL SUL PN * EJ    TCSL4       010VISTA          000000000004200000000042500000000410000000000000000000041000039622500
0202LOTE PADRAO                   CEMIG       ON * EJ    CMIG3       010VISTA          000000000025700000000258000000002560000000000000000000258000003145400
0202LOTE PADRAO                   TELE CL SUL ON * EJ    TCSL3       010VISTA          000000000003600000000036900000000360000000000000000000036000019671200
0202LOTE PADRAO                   ITAUSA      PN         ITSA4       010VISTA          000000000001900000000019500000000190000000000000000000019400000325000
0202LOTE PADRAO                   SID TUBARAO PN *       CSTB4       010VISTA          000000000023400000000251000000002330000000000000000000248000039859100
0202LOTE PADRAO                   V C P       PN *       VCPA4       010VISTA          000000000063000000000670000000006300000000000000000000649000005097600
0202LOTE PADRAO                   BRADESPAR   PN *       BRAP4       010VISTA          000000000000940000000009700000000093000000000000000000009700187403000
0202LOTE PADRAO                   NET         PN         PLIM4       010VISTA          000000000001100000000011000000000110000000000000000000011000000662300
0202LOTE PADRAO                   TELE CTR OESPN * EJ    TCOC4       010VISTA          000000000006200000000062000000000600000000000000000000061000040071600
0202LOTE PADRAO                   GERDAU      PN * EJ    GGBR4       010VISTA          000000000019400000000195000000001880000000000000000000188000012483800
0202LOTE PADRAO                   BRASIL      ON *       BBAS3       010VISTA          000000000009000000000091000000000890000000000000000000089000006885900
