00BDIN9999BOVESPA 99992001082720010827
0101IBOVESPA                      0130000128490130480000000000000000002001082700000020010827012996000000
0202LOTE PADRAO                   EMBRATEL PARPN *       EBTP4       010VISTA          000000000009600000000105000000000950000000000000000000104000133363000
0202LOTE PADRAO                   EMBRATEL PARON *       EBTP3       010VISTA          000000000010400000000111000000001030000000000000000000109000027329300
0202LOTE PADRAO                   TRAN PAULISTPN * EJ    TRPL4       010VISTA          000000000006500000000066000000000610000000000000000000062000019095200
0202LOTE PADRAO                   TELEMAR     PN * EJ    TNLP4       010VISTA          000000000028600000000293000000002860000000000000000000290000113271000
0202LOTE PADRAO                   ITAUBANCO   PN * EJ    ITAU4       010VISTA          000000000181000000001810000000017800000000000000000001790000001954600
0202LOTE PADRAO                   TELEMAR     ON * EJ    TNLP3       010VISTA          000000000026300000000263000000002550000000000000000000261000006684400
0202LOTE PADRAO                   SID NACIONALON *       CSNA3       010VISTA          000000000035900000000361000000003530000000000000000000353000002712700
0202LOTE PADRAO                   TELE LEST CLPN *       TLCP4       010VISTA          000000000001490000000014900000000130000000000000000000014000045195300
0202LOTE PADRAO                   CRT CELULAR PNA* EJ    CRTP5       010VISTA          000000000950000000009650000000095000000000000000000009550000001534800
0202LOTE PADRAO                   IPIRANGA PETPN *       PTIP4       010VISTA          000000000014500000000145000000001420000000000000000000145000000472700
0202LOTE PADRAO                   BRASIL T PARPN *       BRTP4       010VISTA          000000000015400000000154000000001450000000000000000000149000038579800
0202LOTE PADRAO                   BRASIL T PARON *       BRTP3       010VISTA          000000000014500000000145000000001420000000000000000000145000003400700
0202LOTE PADRAO                   ACESITA     PN *       ACES4       010VISTA          000000000000550000000005500000000053000000000000000000005300083408800
0202LOTE PADRAO                   PETROBRAS   PN         PETR4       010VISTA          000000000055600000000566000000005510000000000000000000560000000081200
0202LOTE PADRAO                   ELETROBRAS  PNB*       ELET6       010VISTA          000000000032100000000321000000003160000000000000000000319000013177500
0202LOTE PADRAO                   PETROBRAS   ON         PETR3       010VISTA          000000000057500000000590000000005700000000000000000000584000000027500
0202LOTE PADRAO                   COMGAS      PNA*       CGAS5       010VISTA          000000000127400000001285000000012500000000000000000001270000001562000
0202LOTE PADRAO                   SOUZA CRUZ  ON EJ      CRUZ3       010VISTA          000000000011000000000111000000001090000000000000000000111000000009800
0202LOTE PADRAO                   ELETROBRAS  ON *       ELET3       010VISTA          000000000036200000000367000000003570000000000000000000365000006615600
0202LOTE PADRAO                   CELESC      PNB        CLSC6       010VISTA          000000000000430000000004300000000041000000000000000000004300000107600
0202LOTE PADRAO                   BRADESCO    PN * EJ    BBDC4       010VISTA          000000000011200000000115000000001110000000000000000000111000090702400
0202LOTE PADRAO                   CESP        PN *       CESP4       010VISTA          000000000012000000000121000000001190000000000000000000121000005020000
0202LOTE PADRAO                   LIGHT       ON *       LIGH3       010VISTA          000000000115000000001150000000011100000000000000000001125000000216100
0202LOTE PADRAO                   TELESP CL PAPN *       TSPP4       010VISTA          000000000013800000000139000000001350000000000000000000135000032403800
0202LOTE PADRAO                   VALE R DOCE PNA        VALE5       010VISTA          000000000052400000000524000000005200000000000000000000522000000004300
0202LOTE PADRAO                   COPEL       PNB*       CPLE6       010VISTA          000000000017750000000181000000001775000000000000000000181000037057800
0202LOTE PADRAO                   VALE R DOCE ON         VALE3       010VISTA          000000000051200000000512000000005120000000000000000000512000000000500
0202LOTE PADRAO                   ARACRUZ     PNB        ARCZ6       010VISTA          000000000004200000000042000000000420000000000000000000042000000038400
0202LOTE PADRAO                   TELEMIG PARTPN *       TMCP4       010VISTA          000000000003700000000038000000000360000000000000000000037000018705600
0202LOTE PADRAO                   BRASIL TELECPN *       BRTO4       010VISTA          000000000010250000000105000000000980000000000000000000102000086575800
0202LOTE PADRAO                   SABESP      ON *       SBSP3       010VISTA          000000000171000000001715000000017000000000000000000001715000000210900
0202LOTE PADRAO                   BRASKEM     PNA*       BRKM5       010VISTA          000000000440000000004461000000043200000000000000000004460000000075100
0202LOTE PADRAO                   EMBRAER     PN EJ      EMBR4       010VISTA          000000000019100000000191000000001870000000000000000000187000000034100
0202LOTE PADRAO                   TELESP      PN * EJ    TLPP4       010VISTA          000000000025300000000256000000002510000000000000000000255000010053800
0202LOTE PADRAO                   EMBRAER     ON EJ      EMBR3       010VISTA          000000000014900000000149000000001450000000000000000000148000000016700
0202LOTE PADRAO                   AMBEV       PN *       AMBV4       010VISTA          000000000495000000004950000000049110000000000000000004911000000358900
0202LOTE PADRAO                   USIMINAS    PNA        USIM5       010VISTA          000000000006000000000060000000000580000000000000000000059000000030300
0202LOTE PADRAO                   ELETROPAULO PN *       ELPL4       010VISTA          000000000072000000000720000000006900000000000000000000707000000609900
0202LOTE PADRAO                   TELE NORD CLPN *       TNEP4       010VISTA          000000000002800000000028000000000277000000000000000000028000031663600
0202LOTE PADRAO                   CEMIG       PN * EJ    CMIG4       010VISTA          000000000025500000000263000000002530000000000000000000255000032199400
0202LOTE PADRAO                   TELE CL SUL PN * EJ    TCSL4       010VISTA          000000000003400000000034000000000320000000000000000000033000050464300
0202LOTE PADRAO                   CEMIG       ON * EJ    CMIG3       010VISTA          000000000025200000000255000000002510000000000000000000255000000250000
0202LOTE PADRAO                   TELE CL SUL ON * EJ    TCSL3       010VISTA          000000000002800000000028000000000273000000000000000000027000042250100
0202LOTE PADRAO                   ITAUSA      PN         ITSA4       010VISTA          000000000001980000000019800000000194000000000000000000019600000115300
0202LOTE PADRAO                   SID TUBARAO PN *       CSTB4       010VISTA          000000000020000000000200000000001970000000000000000000197000005746200
0202LOTE PADRAO                   V C P       PN *       VCPA4       010VISTA          000000000069500000000710000000006830000000000000000000683000000719100
0202LOTE PADRAO                   BRADESPAR   PN *       BRAP4       010VISTA          000000000000680000000006800000000066000000000000000000006800146483000
0202LOTE PADRAO                   NET         PN         PLIM4       010VISTA          000000000000870000000009500000000086000000000000000000009300001194800
0202LOTE PADRAO                   TELE CTR OESPN * EJ    TCOC4       010VISTA          000000000005100000000053000000000510000000000000000000052000019918400
0202LOTE PADRAO                   GERDAU      PN * EJ    GGBR4       010VISTA          000000000016400000000164000000001610000000000000000000163000002642300
0202LOTE PADRAO                   BRASIL      ON *       BBAS3       010VISTA          000000000009100000000092000000000900000000000000000000091000010134600
