00BDIN9999BOVESPA 99992001072320010723
0101IBOVESPA                      0141080140580142390000000000000000002001072300000020010723014068000000
0202LOTE PADRAO                   EMBRATEL PARPN *       EBTP4       010VISTA          000000000015300000000155000000001500000000000000000000154000075491000
0202LOTE PADRAO                   EMBRATEL PARON *       EBTP3       010VISTA          000000000015600000000156000000001520000000000000000000154000027217600
0202LOTE PADRAO                   TRAN PAULISTPN * EJ    TRPL4       010VISTA          000000000006400000000064000000000600000000000000000000062000006967000
0202LOTE PADRAO                   TELEMAR     PN * EJ    TNLP4       010VISTA          000000000033900000000340000000003300000000000000000000330000141982000
0202LOTE PADRAO                   ITAUBANCO   PN * EJ    ITAU4       010VISTA          000000000191000000001920000000018900000000000000000001890000003439800
0202LOTE PADRAO                   TELEMAR     ON * EJ    TNLP3       010VISTA          000000000028600000000290000000002760000000000000000000279000008088000
0202LOTE PADRAO                   SID NACIONALON *       CSNA3       010VISTA          000000000042000000000430000000004200000000000000000000430000016040700
0202LOTE PADRAO                   TELE LEST CLPN *       TLCP4       010VISTA          000000000001710000000017100000000160000000000000000000017000018649200
0202LOTE PADRAO                   CRT CELULAR PNA* EJ    CRTP5       010VISTA          000000000830000000008400000000082000000000000000000008230000000211100
0202LOTE PADRAO                   IPIRANGA PETPN *       PTIP4       010VISTA          000000000016300000000166000000001610000000000000000000164000000268200
0202LOTE PADRAO                   BRASIL T PARPN *       BRTP4       010VISTA          000000000018500000000190000000001850000000000000000000188000049817800
0202LOTE PADRAO                   BRASIL T PARON *       BRTP3       010VISTA          000000000017800000000181000000001730000000000000000000175000012184600
0202LOTE PADRAO                   ACESITA     PN *       ACES4       010VISTA          000000000000630000000006400000000061000000000000000000006200209081000
0202LOTE PADRAO                   PETROBRAS   PN         PETR4       010VISTA          000000000053200000000545000000005300000000000000000000540000000122000
0202LOTE PADRAO                   ELETROBRAS  PNB*       ELET6       010VISTA          000000000028000000000290000000002750000000000000000000275000024820800
0202LOTE PADRAO                   PETROBRAS   ON         PETR3       010VISTA          000000000056800000000581000000005630000000000000000000577000000012300
0202LOTE PADRAO                   COMGAS      PNA*       CGAS5       010VISTA          000000000134000000001345000000013100000000000000000001330000011721200
0202LOTE PADRAO                   SOUZA CRUZ  ON EJ      CRUZ3       010VISTA          000000000011300000000113000000001100000000000000000000111000000012900
0202LOTE PADRAO                   ELETROBRAS  ON *       ELET3       010VISTA          000000000032500000000332000000003200000000000000000000321000009320000
0202LOTE PADRAO                   CELESC      PNB        CLSC6       010VISTA          000000000000440000000004500000000043000000000000000000004500000058500
0202LOTE PADRAO                   BRADESCO    PN * EJ    BBDC4       010VISTA          000000000011800000000120000000001170000000000000000000118000131914000
0202LOTE PADRAO                   CESP        PN *       CESP4       010VISTA          000000000013400000000135000000001310000000000000000000131000004430300
0202LOTE PADRAO                   LIGHT       ON *       LIGH3       010VISTA          000000000123000000001230000000011750000000000000000001230000000332400
0202LOTE PADRAO                   TELESP CL PAPN *       TSPP4       010VISTA          000000000014300000000146000000001430000000000000000000145000041525600
0202LOTE PADRAO                   VALE R DOCE PNA        VALE5       010VISTA          000000000052600000000532000000005260000000000000000000527500000016000
0202LOTE PADRAO                   COPEL       PNB*       CPLE6       010VISTA          000000000017100000000179000000001710000000000000000000176000042894600
0202LOTE PADRAO                   VALE R DOCE ON         VALE3       010VISTA          000000000052500000000525000000005230000000000000000000523000000000200
0202LOTE PADRAO                   ARACRUZ     PNB        ARCZ6       010VISTA          000000000003900000000039000000000381000000000000000000038000000016000
0202LOTE PADRAO                   TELEMIG PARTPN *       TMCP4       010VISTA          000000000004540000000046000000000450000000000000000000045000021071200
0202LOTE PADRAO                   BRASIL TELECPN *       BRTO4       010VISTA          000000000012500000000129000000001250000000000000000000129000053947100
0202LOTE PADRAO                   SABESP      ON *       SBSP3       010VISTA          000000000167000000001685000000016100000000000000000001639000000620400
0202LOTE PADRAO                   BRASKEM     PNA*       BRKM5       010VISTA          000000000540000000005430000000053400000000000000000005340000000154000
0202LOTE PADRAO                   EMBRAER     PN EJ      EMBR4       010VISTA          000000000023100000000231000000002200000000000000000000225000000026300
0202LOTE PADRAO                   TELESP      PN * EJ    TLPP4       010VISTA          000000000025800000000260000000002530000000000000000000258000010612900
0202LOTE PADRAO                   EMBRAER     ON EJ      EMBR3       010VISTA          000000000017800000000180000000001750000000000000000000178000000027000
0202LOTE PADRAO                   AMBEV       PN *       AMBV4       010VISTA          000000000507000000005110000000050200000000000000000005020000000334000
0202LOTE PADRAO                   USIMINAS    PNA        USIM5       010VISTA          000000000006500000000065000000000640000000000000000000065000000025900
0202LOTE PADRAO                   ELETROPAULO PN *       ELPL4       010VISTA          000000000066000000000665000000006400000000000000000000649000000465200
0202LOTE PADRAO                   TELE NORD CLPN *       TNEP4       010VISTA          000000000003800000000038000000000375000000000000000000037500037130000
0202LOTE PADRAO                   CEMIG       PN * EJ    CMIG4       010VISTA          000000000026750000000276000000002675000000000000000000271000026983100
0202LOTE PADRAO                   TELE CL SUL PN * EJ    TCSL4       010VISTA          000000000004200000000043000000000410000000000000000000041000039217500
0202LOTE PADRAO                   CEMIG       ON * EJ    CMIG3       010VISTA          000000000026800000000268000000002600000000000000000000260000000171000
0202LOTE PADRAO                   TELE CL SUL ON * EJ    TCSL3       010VISTA          000000000003500000000036000000000350000000000000000000035000011197500
0202LOTE PADRAO                   ITAUSA      PN         ITSA4       010VISTA          000000000002000000000020000000000200000000000000000000020000000273800
0202LOTE PADRAO                   SID TUBARAO PN *       CSTB4       010VISTA          000000000020600000000208000000002050000000000000000000206000001478000
0202LOTE PADRAO                   V C P       PN *       VCPA4       010VISTA          000000000060000000000628000000005900000000000000000000619000003208100
0202LOTE PADRAO                   BRADESPAR   PN *       BRAP4       010VISTA          000000000000850000000008600000000082000000000000000000008300222264000
0202LOTE PADRAO                   NET         PN         PLIM4       010VISTA          000000000001100000000011000000000100000000000000000000010000001465400
0202LOTE PADRAO                   TELE CTR OESPN * EJ    TCOC4       010VISTA          000000000006100000000062000000000610000000000000000000061000009363400
0202LOTE PADRAO                   GERDAU      PN * EJ    GGBR4       010VISTA          000000000016900000000180000000001690000000000000000000174000009273900
0202LOTE PADRAO                   BRASIL      ON *       BBAS3       010VISTA          000000000009500000000097000000000930000000000000000000093000003421100
