00BDIN9999BOVESPA 99992001040220010402
0101IBOVESPA                      0144410139810144820000000000000000002001040200000020010402013981000000
0202LOTE PADRAO                   EMBRATEL PARPN *       EBTP4       010VISTA          000000000020600000000213000000001900000000000000000000190000093367300
0202LOTE PADRAO                   EMBRATEL PARON *       EBTP3       010VISTA          000000000018800000000188000000001780000000000000000000179000029827900
0202LOTE PADRAO                   TRAN PAULISTPN * EJ    TRPL4       010VISTA          000000000007200000000076000000000720000000000000000000072000006994000
0202LOTE PADRAO                   TELEMAR     PN * EJ    TNLP4       010VISTA          000000000035300000000353000000003360000000000000000000336000136672000
0202LOTE PADRAO                   ITAUBANCO   PN * EJ    ITAU4       010VISTA          000000000167800000001678000000015950000000000000000001596000003767800
0202LOTE PADRAO                   TELEMAR     ON * EJ    TNLP3       010VISTA          000000000030800000000310000000002900000000000000000000290000027453600
0202LOTE PADRAO                   SID NACIONALON *       CSNA3       010VISTA          000000000046800000000468000000004550000000000000000000455000004626100
0202LOTE PADRAO                   TELE LEST CLPN *       TLCP4       010VISTA          000000000001540000000015000000000140000000000000000000015300017948800
0202LOTE PADRAO                   IPIRANGA PETPN *       PTIP4       010VISTA          000000000016600000000168000000001600000000000000000000160000001063200
0202LOTE PADRAO                   BRASIL T PARPN *       BRTP4       010VISTA          000000000017400000000175000000001620000000000000000000170000059332400
0202LOTE PADRAO                   BRASIL T PARON *       BRTP3       010VISTA          000000000017100000000180000000001710000000000000000000176000028724000
0202LOTE PADRAO                   ACESITA     PN *       ACES4       010VISTA          000000000000960000000009700000000092000000000000000000009200062780000
0202LOTE PADRAO                   PETROBRAS   PN         PETR4       010VISTA          000000000047100000000471000000004460000000000000000000449000000097900
0202LOTE PADRAO                   ELETROBRAS  PNB*       ELET6       010VISTA          000000000039900000000399000000003830000000000000000000386000046103600
0202LOTE PADRAO                   PETROBRAS   ON         PETR3       010VISTA          000000000051000000000515000000004920000000000000000000492000000020000
0202LOTE PADRAO                   COMGAS      PNA*       CGAS5       010VISTA          000000000170100000001710000000016500000000000000000001670000004669900
0202LOTE PADRAO                   SOUZA CRUZ  ON EJ      CRUZ3       010VISTA          000000000011000000000110000000001060000000000000000000109000000014600
0202LOTE PADRAO                   CELESC      PNB        CLSC6       010VISTA          000000000000590000000005900000000057000000000000000000005700000056400
0202LOTE PADRAO                   ELETROBRAS  ON *       ELET3       010VISTA          000000000041700000000420000000004050000000000000000000416000041803700
0202LOTE PADRAO                   BRADESCO    PN * EJ    BBDC4       010VISTA          000000000011600000000116000000001090000000000000000000109000165235000
0202LOTE PADRAO                   CESP        PN *       CESP4       010VISTA          000000000022200000000226000000002150000000000000000000221000007762500
0202LOTE PADRAO                   LIGHT       ON *       LIGH3       010VISTA          000000000195000000001950000000018500000000000000000001850000001139700
0202LOTE PADRAO                   TELESP CL PAPN *       TSPP4       010VISTA          000000000012500000000131000000001230000000000000000000124000102742000
0202LOTE PADRAO                   VALE R DOCE PNA        VALE5       010VISTA          000000000052800000000533000000005250000000000000000000525000000048400
0202LOTE PADRAO                   COPEL       PNB*       CPLE6       010VISTA          000000000017500000000178000000001660000000000000000000166000005950500
0202LOTE PADRAO                   VALE R DOCE ON         VALE3       010VISTA          000000000049000000000490000000004850000000000000000000485000000000200
0202LOTE PADRAO                   ARACRUZ     PNB        ARCZ6       010VISTA          000000000002700000000028000000000277000000000000000000028000000138700
0202LOTE PADRAO                   TELEMIG PARTPN *       TMCP4       010VISTA          000000000004400000000044000000000410000000000000000000041000063936500
0202LOTE PADRAO                   BRASIL TELECPN *       BRTO4       010VISTA          000000000012300000000123000000001180000000000000000000118000077705200
0202LOTE PADRAO                   SABESP      ON *       SBSP3       010VISTA          000000000190000000001900000000018000000000000000000001800000001191200
0202LOTE PADRAO                   BRASKEM     PNA*       BRKM5       010VISTA          000000000601000000006100000000060000000000000000000006000000000151600
0202LOTE PADRAO                   EMBRAER     PN EJ      EMBR4       010VISTA          000000000021100000000216000000002110000000000000000000211000000017700
0202LOTE PADRAO                   TELESP      PN * EJ    TLPP4       010VISTA          000000000027800000000281000000002730000000000000000000280000019997200
0202LOTE PADRAO                   EMBRAER     ON EJ      EMBR3       010VISTA          000000000015800000000164000000001580000000000000000000161000000029300
0202LOTE PADRAO                   AMBEV       PN *       AMBV4       010VISTA          000000000501000000005080000000050000000000000000000005000000001367000
0202LOTE PADRAO                   USIMINAS    PNA        USIM5       010VISTA          000000000008900000000089000000000840000000000000000000084000000010600
0202LOTE PADRAO                   ELETROPAULO PN *       ELPL4       010VISTA          000000000081500000000815000000007900000000000000000000805000001988300
0202LOTE PADRAO                   TELE NORD CLPN *       TNEP4       010VISTA          000000000002940000000029800000000280000000000000000000028000035829000
0202LOTE PADRAO                   CEMIG       PN * EJ    CMIG4       010VISTA          000000000027500000000275000000002580000000000000000000258000036018300
0202LOTE PADRAO                   TELE CL SUL PN * EJ    TCSL4       010VISTA          000000000003800000000039000000000380000000000000000000039400106095000
0202LOTE PADRAO                   CEMIG       ON * EJ    CMIG3       010VISTA          000000000025000000000253000000002500000000000000000000253000000120400
0202LOTE PADRAO                   TELE CL SUL ON * EJ    TCSL3       010VISTA          000000000003000000000031000000000300000000000000000000031000130250000
0202LOTE PADRAO                   ITAUSA      PN         ITSA4       010VISTA          000000000001720000000017500000000170000000000000000000017000000382300
0202LOTE PADRAO                   SID TUBARAO PN *       CSTB4       010VISTA          000000000020800000000208000000002000000000000000000000200000000612600
0202LOTE PADRAO                   V C P       PN *       VCPA4       010VISTA          000000000054800000000549000000005400000000000000000000542000000967100
0202LOTE PADRAO                   BRADESPAR   PN *       BRAP4       010VISTA          000000000001000000000010000000000099000000000000000000009900099481100
0202LOTE PADRAO                   NET         PN         PLIM4       010VISTA          000000000001300000000013000000000130000000000000000000013000000673400
0202LOTE PADRAO                   TELE CTR OESPN * EJ    TCOC4       010VISTA          000000000005750000000057000000000560000000000000000000057000048056600
0202LOTE PADRAO                   GERDAU      PN * EJ    GGBR4       010VISTA          000000000018600000000188000000001800000000000000000000180000016923000
0202LOTE PADRAO                   BRASIL      ON *       BBAS3       010VISTA          000000000007400000000074000000000670000000000000000000069000004492700
