00BDIN9999BOVESPA 99992001062120010621
0101IBOVESPA                      0145340145060148410000000000000000002001062100000020010621014823000000
0202LOTE PADRAO                   EMBRATEL PARPN *       EBTP4       010VISTA          000000000018800000000192000000001860000000000000000000189000167556000
0202LOTE PADRAO                   EMBRATEL PARON *       EBTP3       010VISTA          000000000020400000000205000000001930000000000000000000196000029667000
0202LOTE PADRAO                   TRAN PAULISTPN * EJ    TRPL4       010VISTA          000000000006200000000067000000000620000000000000000000065000009000300
0202LOTE PADRAO                   TELEMAR     PN * EJ    TNLP4       010VISTA          000000000036000000000372000000003600000000000000000000372000178767000
0202LOTE PADRAO                   ITAUBANCO   PN * EJ    ITAU4       010VISTA          000000000183500000001965000000018350000000000000000001935000010465800
0202LOTE PADRAO                   TELEMAR     ON * EJ    TNLP3       010VISTA          000000000031000000000319000000003090000000000000000000318000029165400
0202LOTE PADRAO                   SID NACIONALON *       CSNA3       010VISTA          000000000045000000000453000000004470000000000000000000450000015582600
0202LOTE PADRAO                   TELE LEST CLPN *       TLCP4       010VISTA          000000000001900000000019900000000180000000000000000000019600206349000
0202LOTE PADRAO                   IPIRANGA PETPN *       PTIP4       010VISTA          000000000016500000000166000000001630000000000000000000166000002006600
0202LOTE PADRAO                   BRASIL T PARPN *       BRTP4       010VISTA          000000000018600000000196000000001860000000000000000000196000103972000
0202LOTE PADRAO                   BRASIL T PARON *       BRTP3       010VISTA          000000000018000000000193000000001800000000000000000000193000024347700
0202LOTE PADRAO                   ACESITA     PN *       ACES4       010VISTA          000000000000690000000007200000000069000000000000000000007000166644000
0202LOTE PADRAO                   PETROBRAS   PN         PETR4       010VISTA          000000000057500000000590000000005750000000000000000000586000000080700
0202LOTE PADRAO                   ELETROBRAS  PNB*       ELET6       010VISTA          000000000028100000000289000000002810000000000000000000282000043986000
0202LOTE PADRAO                   PETROBRAS   ON         PETR3       010VISTA          000000000066000000000662000000006520000000000000000000660000000025900
0202LOTE PADRAO                   COMGAS      PNA*       CGAS5       010VISTA          000000000146700000001488000000014440000000000000000001460000001466000
0202LOTE PADRAO                   SOUZA CRUZ  ON EJ      CRUZ3       010VISTA          000000000011800000000118000000001150000000000000000000116000000004500
0202LOTE PADRAO                   CELESC      PNB        CLSC6       010VISTA          000000000000450000000004900000000045000000000000000000004900000282600
0202LOTE PADRAO                   ELETROBRAS  ON *       ELET3       010VISTA          000000000031000000000326000000003100000000000000000000310000024535900
0202LOTE PADRAO                   BRADESCO    PN * EJ    BBDC4       010VISTA          000000000011900000000120000000001190000000000000000000120000227821000
0202LOTE PADRAO                   CESP        PN *       CESP4       010VISTA          000000000014000000000145000000001400000000000000000000145000019026800
0202LOTE PADRAO                   LIGHT       ON *       LIGH3       010VISTA          000000000135100000001430000000013510000000000000000001409000000360200
0202LOTE PADRAO                   TELESP CL PAPN *       TSPP4       010VISTA          000000000013900000000142500000001360000000000000000000137000104437000
0202LOTE PADRAO                   VALE R DOCE PNA        VALE5       010VISTA          000000000054500000000552000000005420000000000000000000545000000034800
0202LOTE PADRAO                   COPEL       PNB*       CPLE6       010VISTA          000000000016100000000169000000001580000000000000000000169000035077300
0202LOTE PADRAO                   VALE R DOCE ON         VALE3       010VISTA          000000000051000000000510000000005080000000000000000000508000000000800
0202LOTE PADRAO                   ARACRUZ     PNB        ARCZ6       010VISTA          000000000004000000000041000000000370000000000000000000040000000102500
0202LOTE PADRAO                   TELEMIG PARTPN *       TMCP4       010VISTA          000000000004500000000047000000000450000000000000000000047100268398000
0202LOTE PADRAO                   BRASIL TELECPN *       BRTO4       010VISTA          000000000013900000000144000000001390000000000000000000141000104918000
0202LOTE PADRAO                   SABESP      ON *       SBSP3       010VISTA          000000000165000000001710000000016500000000000000000001675000001258000
0202LOTE PADRAO                   BRASKEM     PNA*       BRKM5       010VISTA          000000000532000000005449000000051500000000000000000005150000000104700
0202LOTE PADRAO                   EMBRAER     PN EJ      EMBR4       010VISTA          000000000024700000000247500000002340000000000000000000235000000073600
0202LOTE PADRAO                   TELESP      PN * EJ    TLPP4       010VISTA          000000000027100000000278000000002700000000000000000000278000010704000
0202LOTE PADRAO                   EMBRAER     ON EJ      EMBR3       010VISTA          000000000019300000000193000000001850000000000000000000185000000041500
0202LOTE PADRAO                   AMBEV       PN *       AMBV4       010VISTA          000000000498000000004985000000048000000000000000000004800000001749100
0202LOTE PADRAO                   USIMINAS    PNA        USIM5       010VISTA          000000000006200000000066000000000620000000000000000000066000000050200
0202LOTE PADRAO                   ELETROPAULO PN *       ELPL4       010VISTA          000000000065000000000670000000006250000000000000000000638000012705400
0202LOTE PADRAO                   TELE NORD CLPN *       TNEP4       010VISTA          000000000003900000000042000000000380000000000000000000042000151812000
0202LOTE PADRAO                   CEMIG       PN * EJ    CMIG4       010VISTA          000000000024800000000266000000002480000000000000000000266000029748600
0202LOTE PADRAO                   TELE CL SUL PN * EJ    TCSL4       010VISTA          000000000004800000000051000000000475000000000000000000051000114058000
0202LOTE PADRAO                   CEMIG       ON * EJ    CMIG3       010VISTA          000000000024100000000251000000002410000000000000000000251000005113700
0202LOTE PADRAO                   TELE CL SUL ON * EJ    TCSL3       010VISTA          000000000004100000000042000000000400000000000000000000042000014120500
0202LOTE PADRAO                   ITAUSA      PN         ITSA4       010VISTA          000000000001980000000020000000000198000000000000000000020000000290000
0202LOTE PADRAO                   SID TUBARAO PN *       CSTB4       010VISTA          000000000023100000000239000000002310000000000000000000236000004830000
0202LOTE PADRAO                   V C P       PN *       VCPA4       010VISTA          000000000068700000000687000000006640000000000000000000665000001431000
0202LOTE PADRAO                   BRADESPAR   PN *       BRAP4       010VISTA          000000000000830000000009100000000083000000000000000000008900132752000
0202LOTE PADRAO                   NET         PN         PLIM4       010VISTA          000000000000830000000009000000000083000000000000000000009000001517000
0202LOTE PADRAO                   TELE CTR OESPN * EJ    TCOC4       010VISTA          000000000005960000000064000000000590000000000000000000064000121381000
0202LOTE PADRAO                   GERDAU      PN * EJ    GGBR4       010VISTA          000000000017100000000179000000001710000000000000000000178000007028100
