00BDIN9999BOVESPA 99992001120620011206
0101IBOVESPA                      0133820132300135750000000000000000002001120600000020011206013539000000
0202LOTE PADRAO                   EMBRATEL PARPN *       EBTP4       010VISTA          000000000009800000000099000000000950000000000000000000096000398518000
0202LOTE PADRAO                   EMBRATEL PARON *       EBTP3       010VISTA          000000000010700000000110000000001040000000000000000000106000050491800
0202LOTE PADRAO                   TRAN PAULISTPN * EJ    TRPL4       010VISTA          000000000006000000000062000000000600000000000000000000062500010489500
0202LOTE PADRAO                   TELEMAR     PN * EJ    TNLP4       010VISTA          000000000033200000000347000000003320000000000000000000346000336780000
0202LOTE PADRAO                   ITAUBANCO   PN * EJ    ITAU4       010VISTA          000000000174900000001770000000017250000000000000000001740000017970200
0202LOTE PADRAO                   TELEMAR     ON * EJ    TNLP3       010VISTA          000000000029500000000303000000002930000000000000000000302000014758300
0202LOTE PADRAO                   SID NACIONALON *       CSNA3       010VISTA          000000000037200000000380000000003720000000000000000000377000010214400
0202LOTE PADRAO                   TELE LEST CLPN *       TLCP4       010VISTA          000000000000890000000009100000000088000000000000000000009000243802000
0202LOTE PADRAO                   CRT CELULAR PNA* EJ    CRTP5       010VISTA          000000000470000000004800000000046600000000000000000004750000000545300
0202LOTE PADRAO                   IPIRANGA PETPN *       PTIP4       010VISTA          000000000013900000000143000000001360000000000000000000139000003120700
0202LOTE PADRAO                   BRASIL T PARPN *       BRTP4       010VISTA          000000000019800000000203000000001930000000000000000000200000075812700
0202LOTE PADRAO                   BRASIL T PARON *       BRTP3       010VISTA          000000000019100000000199000000001900000000000000000000198000027582500
0202LOTE PADRAO                   ACESITA     PN *       ACES4       010VISTA          000000000000690000000007300000000068000000000000000000007300287256000
0202LOTE PADRAO                   PETROBRAS   PN         PETR4       010VISTA          000000000051600000000520000000005040000000000000000000508000000064900
0202LOTE PADRAO                   ELETROBRAS  PNB*       ELET6       010VISTA          000000000031500000000325000000003110000000000000000000324000051369900
0202LOTE PADRAO                   PETROBRAS   ON         PETR3       010VISTA          000000000053500000000537000000005250000000000000000000527000000030900
0202LOTE PADRAO                   COMGAS      PNA*       CGAS5       010VISTA          000000000088500000000905000000008800000000000000000000905000000828700
0202LOTE PADRAO                   SOUZA CRUZ  ON EJ      CRUZ3       010VISTA          000000000013500000000140000000001350000000000000000000138000000024200
0202LOTE PADRAO                   ELETROBRAS  ON *       ELET3       010VISTA          000000000033900000000345000000003320000000000000000000344000015076700
0202LOTE PADRAO                   CELESC      PNB        CLSC6       010VISTA          000000000000480000000004800000000047000000000000000000004800000203500
0202LOTE PADRAO                   BRADESCO    PN * EJ    BBDC4       010VISTA          000000000011700000000124000000001160000000000000000000124000211673000
0202LOTE PADRAO                   CESP        PN *       CESP4       010VISTA          000000000015100000000159000000001500000000000000000000156000007720000
0202LOTE PADRAO                   LIGHT       ON *       LIGH3       010VISTA          000000000122000000001290000000012100000000000000000001280000000602800
0202LOTE PADRAO                   TELESP CL PAPN *       TSPP4       010VISTA          000000000007790000000080000000000770000000000000000000078000271845000
0202LOTE PADRAO                   VALE R DOCE PNA        VALE5       010VISTA          000000000052700000000534000000005250000000000000000000530000000033100
0202LOTE PADRAO                   COPEL       PNB*       CPLE6       010VISTA          000000000016100000000165000000001600000000000000000000164000026811600
0202LOTE PADRAO                   VALE R DOCE ON         VALE3       010VISTA          000000000049500000000497000000004950000000000000000000497000000003800
0202LOTE PADRAO                   ARACRUZ     PNB        ARCZ6       010VISTA          000000000004600000000047000000000450000000000000000000047000000029800
0202LOTE PADRAO                   TELEMIG PARTPN *       TMCP4       010VISTA          000000000004500000000047500000000450000000000000000000046000079195300
0202LOTE PADRAO                   BRASIL TELECPN *       BRTO4       010VISTA          000000000013400000000140000000001340000000000000000000136000189019000
0202LOTE PADRAO                   SABESP      ON *       SBSP3       010VISTA          000000000133600000001336000000013150000000000000000001325000002599200
0202LOTE PADRAO                   BRASKEM     PNA*       BRKM5       010VISTA          000000000408000000004298000000040500000000000000000004190000000169500
0202LOTE PADRAO                   EMBRAER     PN EJ      EMBR4       010VISTA          000000000012400000000126000000001220000000000000000000125000000038000
0202LOTE PADRAO                   TELESP      PN * EJ    TLPP4       010VISTA          000000000030500000000317000000003050000000000000000000309000008066000
0202LOTE PADRAO                   EMBRAER     ON EJ      EMBR3       010VISTA          000000000010500000000107000000001040000000000000000000106000000027900
0202LOTE PADRAO                   AMBEV       PN *       AMBV4       010VISTA          000000000489000000004980000000048900000000000000000004960000001261600
0202LOTE PADRAO                   USIMINAS    PNA        USIM5       010VISTA          000000000006000000000062000000000600000000000000000000062000000060000
0202LOTE PADRAO                   ELETROPAULO PN *       ELPL4       010VISTA          000000000080000000000805000000007825000000000000000000805000002959100
0202LOTE PADRAO                   TELE NORD CLPN *       TNEP4       010VISTA          000000000003200000000035000000000327000000000000000000033000160384000
0202LOTE PADRAO                   CEMIG       PN * EJ    CMIG4       010VISTA          000000000031750000000341000000003160000000000000000000341000052526400
0202LOTE PADRAO                   TELE CL SUL PN * EJ    TCSL4       010VISTA          000000000003600000000039000000000360000000000000000000039000063826300
0202LOTE PADRAO                   CEMIG       ON * EJ    CMIG3       010VISTA          000000000029000000000303000000002890000000000000000000303000003250900
0202LOTE PADRAO                   TELE CL SUL ON * EJ    TCSL3       010VISTA          000000000003000000000031000000000300000000000000000000031000074710500
0202LOTE PADRAO                   ITAUSA      PN         ITSA4       010VISTA          000000000002100000000021000000000200000000000000000000020000000430900
0202LOTE PADRAO                   V C P       PN *       VCPA4       010VISTA          000000000082000000000829000000008100000000000000000000820000000592200
0202LOTE PADRAO                   SID TUBARAO PN *       CSTB4       010VISTA          000000000020500000000213000000002020000000000000000000213000003414000
0202LOTE PADRAO                   BRADESPAR   PN *       BRAP4       010VISTA          000000000000830000000008600000000083000000000000000000008600188690000
0202LOTE PADRAO                   NET         PN         PLIM4       010VISTA          000000000000780000000008100000000077000000000000000000008000000630100
0202LOTE PADRAO                   TELE CTR OESPN * EJ    TCOC4       010VISTA          000000000005500000000055000000000510000000000000000000054000727474000
0202LOTE PADRAO                   TELEMAR N L PNA* EJ    TMAR5       010VISTA          000000000054800000000573000000005470000000000000000000573000044913900
0202LOTE PADRAO                   GERDAU      PN * EJ    GGBR4       010VISTA          000000000022600000000226000000002220000000000000000000224000004612800
0202LOTE PADRAO                   BRASIL      ON *       BBAS3       010VISTA          000000000009600000000099000000000950000000000000000000098000009005300
