00BDIN9999BOVESPA 99992001072520010725
0101IBOVESPA                      0137380136790139560000000000000000002001072500000020010725013956000000
0202LOTE PADRAO                   EMBRATEL PARPN *       EBTP4       010VISTA          000000000014400000000144000000001375000000000000000000142000231842000
0202LOTE PADRAO                   EMBRATEL PARON *       EBTP3       010VISTA          000000000014500000000145000000001400000000000000000000144000033560000
0202LOTE PADRAO                   TRAN PAULISTPN * EJ    TRPL4       010VISTA          000000000006500000000068000000000650000000000000000000067100032947200
0202LOTE PADRAO                   TELEMAR     PN * EJ    TNLP4       010VISTA          000000000032200000000326000000003180000000000000000000325000167292000
0202LOTE PADRAO                   ITAUBANCO   PN * EJ    ITAU4       010VISTA          000000000189900000001899000000018150000000000000000001889000013467600
0202LOTE PADRAO                   TELEMAR     ON * EJ    TNLP3       010VISTA          000000000026800000000278000000002650000000000000000000276000023375600
0202LOTE PADRAO                   SID NACIONALON *       CSNA3       010VISTA          000000000041700000000423000000004170000000000000000000420000002597200
0202LOTE PADRAO                   TELE LEST CLPN *       TLCP4       010VISTA          000000000001600000000016000000000160000000000000000000016000066848200
0202LOTE PADRAO                   CRT CELULAR PNA* EJ    CRTP5       010VISTA          000000000828000000008419000000082000000000000000000008200000000423600
0202LOTE PADRAO                   IPIRANGA PETPN *       PTIP4       010VISTA          000000000016000000000163000000001600000000000000000000162000001650700
0202LOTE PADRAO                   BRASIL T PARPN *       BRTP4       010VISTA          000000000018100000000186000000001800000000000000000000184000056932300
0202LOTE PADRAO                   BRASIL T PARON *       BRTP3       010VISTA          000000000017100000000176000000001710000000000000000000175000009050600
0202LOTE PADRAO                   ACESITA     PN *       ACES4       010VISTA          000000000000610000000006200000000060000000000000000000006000196840000
0202LOTE PADRAO                   PETROBRAS   PN         PETR4       010VISTA          000000000053500000000542000000005350000000000000000000541000000093500
0202LOTE PADRAO                   ELETROBRAS  PNB*       ELET6       010VISTA          000000000027800000000288000000002750000000000000000000288000037716200
0202LOTE PADRAO                   PETROBRAS   ON         PETR3       010VISTA          000000000057300000000583000000005720000000000000000000582000000015000
0202LOTE PADRAO                   COMGAS      PNA*       CGAS5       010VISTA          000000000136400000001364000000013300000000000000000001330000001103700
0202LOTE PADRAO                   SOUZA CRUZ  ON EJ      CRUZ3       010VISTA          000000000011500000000115000000001130000000000000000000113000000006500
0202LOTE PADRAO                   ELETROBRAS  ON *       ELET3       010VISTA          000000000032200000000330000000003220000000000000000000330000032936900
0202LOTE PADRAO                   CELESC      PNB        CLSC6       010VISTA          000000000000440000000004400000000042000000000000000000004300000183100
0202LOTE PADRAO                   BRADESCO    PN * EJ    BBDC4       010VISTA          000000000011500000000115000000001125000000000000000000114000147010000
0202LOTE PADRAO                   CESP        PN *       CESP4       010VISTA          000000000012800000000129000000001270000000000000000000129000007363300
0202LOTE PADRAO                   LIGHT       ON *       LIGH3       010VISTA          000000000116000000001169000000011500000000000000000001155000000716200
0202LOTE PADRAO                   TELESP CL PAPN *       TSPP4       010VISTA          000000000014200000000144000000001400000000000000000000144000046310500
0202LOTE PADRAO                   VALE R DOCE PNA        VALE5       010VISTA          000000000052000000000526000000005170000000000000000000526000000369600
0202LOTE PADRAO                   COPEL       PNB*       CPLE6       010VISTA          000000000017500000000183000000001730000000000000000000179000061237000
0202LOTE PADRAO                   VALE R DOCE ON         VALE3       010VISTA          000000000050700000000525000000005070000000000000000000525000000358400
0202LOTE PADRAO                   ARACRUZ     PNB        ARCZ6       010VISTA          000000000003800000000038000000000360000000000000000000038000000024000
0202LOTE PADRAO                   TELEMIG PARTPN *       TMCP4       010VISTA          000000000004500000000046000000000440000000000000000000046000021767400
0202LOTE PADRAO                   BRASIL TELECPN *       BRTO4       010VISTA          000000000012800000000128000000001250000000000000000000126000059234100
0202LOTE PADRAO                   SABESP      ON *       SBSP3       010VISTA          000000000162000000001650000000015510000000000000000001630000002032700
0202LOTE PADRAO                   BRASKEM     PNA*       BRKM5       010VISTA          000000000545000000005600000000053500000000000000000005470000000265500
0202LOTE PADRAO                   EMBRAER     PN EJ      EMBR4       010VISTA          000000000022400000000225000000002200000000000000000000224000000023100
0202LOTE PADRAO                   TELESP      PN * EJ    TLPP4       010VISTA          000000000025100000000260000000002510000000000000000000260000008650900
0202LOTE PADRAO                   EMBRAER     ON EJ      EMBR3       010VISTA          000000000017600000000177500000001730000000000000000000175000000012500
0202LOTE PADRAO                   AMBEV       PN *       AMBV4       010VISTA          000000000505000000005070000000049800000000000000000005070000000884700
0202LOTE PADRAO                   USIMINAS    PNA        USIM5       010VISTA          000000000006300000000064000000000625000000000000000000064000000014900
0202LOTE PADRAO                   ELETROPAULO PN *       ELPL4       010VISTA          000000000062200000000640000000006200000000000000000000640000002496700
0202LOTE PADRAO                   TELE NORD CLPN *       TNEP4       010VISTA          000000000003700000000037000000000369000000000000000000037500054944100
0202LOTE PADRAO                   CEMIG       PN * EJ    CMIG4       010VISTA          000000000026500000000276000000002600000000000000000000276000029638200
0202LOTE PADRAO                   TELE CL SUL PN * EJ    TCSL4       010VISTA          000000000004100000000041000000000400000000000000000000041000076081600
0202LOTE PADRAO                   CEMIG       ON * EJ    CMIG3       010VISTA          000000000025000000000260000000002490000000000000000000260000000520900
0202LOTE PADRAO                   TELE CL SUL ON * EJ    TCSL3       010VISTA          000000000003400000000034000000000330000000000000000000033000038152100
0202LOTE PADRAO                   ITAUSA      PN         ITSA4       010VISTA          000000000002000000000020000000000198000000000000000000020000000289900
0202LOTE PADRAO                   SID TUBARAO PN *       CSTB4       010VISTA          000000000019800000000200000000001960000000000000000000198000003699200
0202LOTE PADRAO                   V C P       PN *       VCPA4       010VISTA          000000000060900000000637000000006000000000000000000000637000001000000
0202LOTE PADRAO                   BRADESPAR   PN *       BRAP4       010VISTA          000000000000810000000008300000000080000000000000000000008300152388000
0202LOTE PADRAO                   NET         PN         PLIM4       010VISTA          000000000001000000000010000000000100000000000000000000010000000514200
0202LOTE PADRAO                   TELE CTR OESPN * EJ    TCOC4       010VISTA          000000000005900000000060000000000580000000000000000000060000052096700
0202LOTE PADRAO                   GERDAU      PN * EJ    GGBR4       010VISTA          000000000016600000000174000000001660000000000000000000174000002379400
0202LOTE PADRAO                   BRASIL      ON *       BBAS3       010VISTA          000000000009000000000093000000000900000000000000000000092000002891800
