00BDIN9999BOVESPA 99992001083120010831
0101IBOVESPA                      0129060127890129490000000000000000002001083100000020010831012841000000
0202LOTE PADRAO                   EMBRATEL PARPN *       EBTP4       010VISTA          000000000010500000000111000000001050000000000000000000108000269669000
0202LOTE PADRAO                   EMBRATEL PARON *       EBTP3       010VISTA          000000000011200000000119000000001120000000000000000000116000056472200
0202LOTE PADRAO                   TRAN PAULISTPN * EJ    TRPL4       010VISTA          000000000006300000000065000000000620000000000000000000065000028954800
0202LOTE PADRAO                   TELEMAR     PN * EJ    TNLP4       010VISTA          000000000028500000000285000000002780000000000000000000278000172487000
0202LOTE PADRAO                   ITAUBANCO   PN * EJ    ITAU4       010VISTA          000000000177500000001780000000017500000000000000000001755000004332800
0202LOTE PADRAO                   TELEMAR     ON * EJ    TNLP3       010VISTA          000000000025300000000260000000002530000000000000000000260000022896300
0202LOTE PADRAO                   SID NACIONALON *       CSNA3       010VISTA          000000000035700000000357000000003520000000000000000000356000010240500
0202LOTE PADRAO                   TELE LEST CLPN *       TLCP4       010VISTA          000000000001300000000013000000000130000000000000000000013000050534200
0202LOTE PADRAO                   CRT CELULAR PNA* EJ    CRTP5       010VISTA          000000000950000000009500000000092000000000000000000009200000000268400
0202LOTE PADRAO                   IPIRANGA PETPN *       PTIP4       010VISTA          000000000013800000000143000000001310000000000000000000135000001939500
0202LOTE PADRAO                   BRASIL T PARPN *       BRTP4       010VISTA          000000000014800000000151000000001450000000000000000000149000080214000
0202LOTE PADRAO                   BRASIL T PARON *       BRTP3       010VISTA          000000000013600000000141000000001350000000000000000000136000022688100
0202LOTE PADRAO                   ACESITA     PN *       ACES4       010VISTA          000000000000530000000005400000000052000000000000000000005200227883000
0202LOTE PADRAO                   PETROBRAS   PN         PETR4       010VISTA          000000000055300000000553000000005420000000000000000000550000000093600
0202LOTE PADRAO                   ELETROBRAS  PNB*       ELET6       010VISTA          000000000032200000000323000000003180000000000000000000320000031275900
0202LOTE PADRAO                   PETROBRAS   ON         PETR3       010VISTA          000000000057500000000577000000005600000000000000000000576000000031100
0202LOTE PADRAO                   COMGAS      PNA*       CGAS5       010VISTA          000000000129000000001330000000012900000000000000000001300000006438600
0202LOTE PADRAO                   SOUZA CRUZ  ON EJ      CRUZ3       010VISTA          000000000011100000000113000000001110000000000000000000113000000008000
0202LOTE PADRAO                   ELETROBRAS  ON *       ELET3       010VISTA          000000000036500000000365000000003580000000000000000000365000015031000
0202LOTE PADRAO                   CELESC      PNB        CLSC6       010VISTA          000000000000430000000004300000000040000000000000000000004200000189400
0202LOTE PADRAO                   BRADESCO    PN * EJ    BBDC4       010VISTA          000000000011500000000116000000001140000000000000000000115000116428000
0202LOTE PADRAO                   CESP        PN *       CESP4       010VISTA          000000000011900000000120000000001150000000000000000000120000016705200
0202LOTE PADRAO                   LIGHT       ON *       LIGH3       010VISTA          000000000116500000001165000000011300000000000000000001159000000400600
0202LOTE PADRAO                   TELESP CL PAPN *       TSPP4       010VISTA          000000000013300000000134000000001300000000000000000000130000136187000
0202LOTE PADRAO                   VALE R DOCE PNA        VALE5       010VISTA          000000000051500000000515000000005110000000000000000000512000000020100
0202LOTE PADRAO                   COPEL       PNB*       CPLE6       010VISTA          000000000018400000000184000000001810000000000000000000183000014799300
0202LOTE PADRAO                   VALE R DOCE ON         VALE3       010VISTA          000000000051500000000515000000005120000000000000000000512000000008600
0202LOTE PADRAO                   ARACRUZ     PNB        ARCZ6       010VISTA          000000000004500000000045000000000420000000000000000000044000000133000
0202LOTE PADRAO                   TELEMIG PARTPN *       TMCP4       010VISTA          000000000003500000000035000000000340000000000000000000034000070244800
0202LOTE PADRAO                   BRASIL TELECPN *       BRTO4       010VISTA          000000000010000000000103000000000990000000000000000000100000056293900
0202LOTE PADRAO                   SABESP      ON *       SBSP3       010VISTA          000000000173900000001739000000016100000000000000000001675000001414700
0202LOTE PADRAO                   BRASKEM     PNA*       BRKM5       010VISTA          000000000420000000004380000000040200000000000000000004380000000175500
0202LOTE PADRAO                   EMBRAER     PN EJ      EMBR4       010VISTA          000000000017000000000170000000001630000000000000000000166000000073000
0202LOTE PADRAO                   TELESP      PN * EJ    TLPP4       010VISTA          000000000025300000000256000000002530000000000000000000255000022823300
0202LOTE PADRAO                   EMBRAER     ON EJ      EMBR3       010VISTA          000000000013900000000143000000001340000000000000000000135000000035500
0202LOTE PADRAO                   AMBEV       PN *       AMBV4       010VISTA          000000000476000000004850000000047500000000000000000004820000000527900
0202LOTE PADRAO                   USIMINAS    PNA        USIM5       010VISTA          000000000005900000000060000000000570000000000000000000057000000088700
0202LOTE PADRAO                   ELETROPAULO PN *       ELPL4       010VISTA          000000000071000000000735000000006900000000000000000000691000003997300
0202LOTE PADRAO                   TELE NORD CLPN *       TNEP4       010VISTA          000000000002800000000030000000000270000000000000000000029400119381000
0202LOTE PADRAO                   CEMIG       PN * EJ    CMIG4       010VISTA          000000000027100000000276000000002670000000000000000000276000070596800
0202LOTE PADRAO                   TELE CL SUL PN * EJ    TCSL4       010VISTA          000000000003200000000033000000000320000000000000000000032000060443900
0202LOTE PADRAO                   CEMIG       ON * EJ    CMIG3       010VISTA          000000000027300000000273000000002630000000000000000000273000004165800
0202LOTE PADRAO                   TELE CL SUL ON * EJ    TCSL3       010VISTA          000000000002600000000028000000000260000000000000000000028000057519700
0202LOTE PADRAO                   ITAUSA      PN         ITSA4       010VISTA          000000000001970000000019700000000180000000000000000000019400000262800
0202LOTE PADRAO                   SID TUBARAO PN *       CSTB4       010VISTA          000000000020300000000205000000001950000000000000000000200000010745500
0202LOTE PADRAO                   V C P       PN *       VCPA4       010VISTA          000000000072400000000745000000007200000000000000000000745000003338000
0202LOTE PADRAO                   BRADESPAR   PN *       BRAP4       010VISTA          000000000000670000000006800000000063000000000000000000006400417941000
0202LOTE PADRAO                   NET         PN         PLIM4       010VISTA          000000000000890000000009100000000087000000000000000000008700000750100
0202LOTE PADRAO                   TELE CTR OESPN * EJ    TCOC4       010VISTA          000000000005200000000052500000000510000000000000000000052000032670900
0202LOTE PADRAO                   GERDAU      PN * EJ    GGBR4       010VISTA          000000000016600000000166000000001640000000000000000000165000009492100
0202LOTE PADRAO                   BRASIL      ON *       BBAS3       010VISTA          000000000009000000000091000000000890000000000000000000089000003846300
