00BDIN9999BOVESPA 99992001051120010511
0101IBOVESPA                      0150120144100150180000000000000000002001051100000020010511014493000000
0202LOTE PADRAO                   EMBRATEL PARPN *       EBTP4       010VISTA          000000000019800000000198000000001860000000000000000000191000041371900
0202LOTE PADRAO                   EMBRATEL PARON *       EBTP3       010VISTA          000000000018800000000193000000001800000000000000000000180000011973100
0202LOTE PADRAO                   TRAN PAULISTPN * EJ    TRPL4       010VISTA          000000000006800000000068000000000620000000000000000000064000011319400
0202LOTE PADRAO                   TELEMAR     PN * EJ    TNLP4       010VISTA          000000000037700000000377000000003610000000000000000000362000153761000
0202LOTE PADRAO                   ITAUBANCO   PN * EJ    ITAU4       010VISTA          000000000180000000001800000000017450000000000000000001760000003282900
0202LOTE PADRAO                   TELEMAR     ON * EJ    TNLP3       010VISTA          000000000033000000000332000000003160000000000000000000320000014312400
0202LOTE PADRAO                   SID NACIONALON *       CSNA3       010VISTA          000000000048200000000485000000004700000000000000000000470000010397000
0202LOTE PADRAO                   TELE LEST CLPN *       TLCP4       010VISTA          000000000001780000000017900000000171000000000000000000017100218899000
0202LOTE PADRAO                   IPIRANGA PETPN *       PTIP4       010VISTA          000000000016000000000163000000001600000000000000000000160000001610000
0202LOTE PADRAO                   BRASIL T PARPN *       BRTP4       010VISTA          000000000019100000000191000000001830000000000000000000184000050671100
0202LOTE PADRAO                   BRASIL T PARON *       BRTP3       010VISTA          000000000019100000000193000000001830000000000000000000184000021254800
0202LOTE PADRAO                   ACESITA     PN *       ACES4       010VISTA          000000000000810000000008100000000076000000000000000000007600208969000
0202LOTE PADRAO                   PETROBRAS   PN         PETR4       010VISTA          000000000057300000000573000000005550000000000000000000565000000083100
0202LOTE PADRAO                   ELETROBRAS  PNB*       ELET6       010VISTA          000000000030000000000300000000002810000000000000000000283000067055500
0202LOTE PADRAO                   PETROBRAS   ON         PETR3       010VISTA          000000000061800000000620000000006000000000000000000000610000000039700
0202LOTE PADRAO                   COMGAS      PNA*       CGAS5       010VISTA          000000000136700000001367000000012960000000000000000001296000001239400
0202LOTE PADRAO                   SOUZA CRUZ  ON EJ      CRUZ3       010VISTA          000000000010800000000113000000001070000000000000000000108000000066500
0202LOTE PADRAO                   CELESC      PNB        CLSC6       010VISTA          000000000000490000000004900000000047000000000000000000004800000118600
0202LOTE PADRAO                   ELETROBRAS  ON *       ELET3       010VISTA          000000000034000000000345000000003275000000000000000000330000038833900
0202LOTE PADRAO                   BRADESCO    PN * EJ    BBDC4       010VISTA          000000000011900000000119000000001140000000000000000000116000087360600
0202LOTE PADRAO                   CESP        PN *       CESP4       010VISTA          000000000020750000000210000000001910000000000000000000195000023844200
0202LOTE PADRAO                   LIGHT       ON *       LIGH3       010VISTA          000000000150000000001560000000014800000000000000000001490000000674500
0202LOTE PADRAO                   TELESP CL PAPN *       TSPP4       010VISTA          000000000014500000000148000000001400000000000000000000141000126602000
0202LOTE PADRAO                   VALE R DOCE PNA        VALE5       010VISTA          000000000057000000000572000000005530000000000000000000562000000042300
0202LOTE PADRAO                   COPEL       PNB*       CPLE6       010VISTA          000000000016100000000170000000001500000000000000000000159000059966200
0202LOTE PADRAO                   VALE R DOCE ON         VALE3       010VISTA          000000000051500000000517000000004990000000000000000000500000000002300
0202LOTE PADRAO                   ARACRUZ     PNB        ARCZ6       010VISTA          000000000003900000000039800000000380000000000000000000038000000104700
0202LOTE PADRAO                   TELEMIG PARTPN *       TMCP4       010VISTA          000000000004400000000044000000000420000000000000000000042000084829500
0202LOTE PADRAO                   BRASIL TELECPN *       BRTO4       010VISTA          000000000013800000000138000000001260000000000000000000130000050762900
0202LOTE PADRAO                   SABESP      ON *       SBSP3       010VISTA          000000000170300000001718000000016600000000000000000001665000001061200
0202LOTE PADRAO                   BRASKEM     PNA*       BRKM5       010VISTA          000000000549000000005500000000053900000000000000000005390000000329100
0202LOTE PADRAO                   EMBRAER     PN EJ      EMBR4       010VISTA          000000000023750000000245000000002360000000000000000000243000000019000
0202LOTE PADRAO                   TELESP      PN * EJ    TLPP4       010VISTA          000000000029600000000296000000002880000000000000000000290000005098200
0202LOTE PADRAO                   EMBRAER     ON EJ      EMBR3       010VISTA          000000000019100000000194000000001880000000000000000000188000000030100
0202LOTE PADRAO                   AMBEV       PN *       AMBV4       010VISTA          000000000560000000005688000000055500000000000000000005660000002761500
0202LOTE PADRAO                   USIMINAS    PNA        USIM5       010VISTA          000000000007500000000075000000000690000000000000000000070000000130000
0202LOTE PADRAO                   ELETROPAULO PN *       ELPL4       010VISTA          000000000058500000000585000000005320000000000000000000535000007271400
0202LOTE PADRAO                   TELE NORD CLPN *       TNEP4       010VISTA          000000000003100000000031000000000300000000000000000000030000038168100
0202LOTE PADRAO                   CEMIG       PN * EJ    CMIG4       010VISTA          000000000024800000000249000000002360000000000000000000238000051530400
0202LOTE PADRAO                   TELE CL SUL PN * EJ    TCSL4       010VISTA          000000000004000000000041000000000400000000000000000000040000058169300
0202LOTE PADRAO                   CEMIG       ON * EJ    CMIG3       010VISTA          000000000025400000000256000000002450000000000000000000246000001390000
0202LOTE PADRAO                   TELE CL SUL ON * EJ    TCSL3       010VISTA          000000000003500000000036000000000350000000000000000000036000029128200
0202LOTE PADRAO                   ITAUSA      PN         ITSA4       010VISTA          000000000001950000000019500000000180000000000000000000019000000134800
0202LOTE PADRAO                   SID TUBARAO PN *       CSTB4       010VISTA          000000000024500000000245000000002360000000000000000000239000008693000
0202LOTE PADRAO                   V C P       PN *       VCPA4       010VISTA          000000000065000000000650000000006400000000000000000000646000003014000
0202LOTE PADRAO                   BRADESPAR   PN *       BRAP4       010VISTA          000000000000960000000009700000000091000000000000000000009300197476000
0202LOTE PADRAO                   NET         PN         PLIM4       010VISTA          000000000001100000000011000000000100000000000000000000010000001021300
0202LOTE PADRAO                   TELE CTR OESPN * EJ    TCOC4       010VISTA          000000000006000000000062000000000580000000000000000000059000031710400
0202LOTE PADRAO                   GERDAU      PN * EJ    GGBR4       010VISTA          000000000018800000000188000000001710000000000000000000175000024450100
0202LOTE PADRAO                   BRASIL      ON *       BBAS3       010VISTA          000000000008900000000090000000000850000000000000000000085000002455900
