00BDIN9999BOVESPA 99992002091620020916
0101IBOVESPA                      0101710098220101720000000000000000002002091600000020020916009831000000
0202LOTE PADRAO                   EMBRATEL PARPN *       EBTP4       010VISTA          000000000002520000000025400000000230000000000000000000023000217825000
0202LOTE PADRAO                   TRAN PAULISTPN * EJ    TRPL4       010VISTA          000000000005500000000055000000000520000000000000000000052000008335900
0202LOTE PADRAO                   EMBRATEL PARON *       EBTP3       010VISTA          000000000003300000000033000000000300000000000000000000030000022405300
0202LOTE PADRAO                   TELEMAR     PN * EJ    TNLP4       010VISTA          000000000025000000000251000000002440000000000000000000246000145772000
0202LOTE PADRAO                   ITAUBANCO   PN * EJ    ITAU4       010VISTA          000000000140500000001405000000013450000000000000000001345000008309500
0202LOTE PADRAO                   TELEMAR     ON * EJ    TNLP3       010VISTA          000000000018800000000192000000001860000000000000000000186000004411300
0202LOTE PADRAO                   SID NACIONALON *       CSNA3       010VISTA          000000000038300000000384000000003650000000000000000000370000009333900
0202LOTE PADRAO                   TELE LEST CLPN *       TLCP4       010VISTA          000000000000430000000004400000000041000000000000000000004100126528000
0202LOTE PADRAO                   CRT CELULAR PNA* EJ    CRTP5       010VISTA          000000000355900000003630000000035110000000000000000003630000000166700
0202LOTE PADRAO                   IPIRANGA PETPN *       PTIP4       010VISTA          000000000010600000000106000000000960000000000000000000097000002749900
0202LOTE PADRAO                   BRASIL T PARPN *       BRTP4       010VISTA          000000000018200000000186000000001820000000000000000000184000092280300
0202LOTE PADRAO                   BRASIL T PARON *       BRTP3       010VISTA          000000000013000000000141000000001300000000000000000000138000007601000
0202LOTE PADRAO                   KLABIN S/A  PN         KLBN4       010VISTA          000000000000870000000008900000000087000000000000000000008800000048300
0202LOTE PADRAO                   ACESITA     PN *       ACES4       010VISTA          000000000000630000000006400000000060000000000000000000006200139681000
0202LOTE PADRAO                   PETROBRAS   PN         PETR4       010VISTA          000000000047000000000483000000004690000000000000000000472000000086500
0202LOTE PADRAO                   ELETROBRAS  PNB*       ELET6       010VISTA          000000000019800000000199000000001900000000000000000000191000034341700
0202LOTE PADRAO                   PETROBRAS   ON         PETR3       010VISTA          000000000053600000000538000000005250000000000000000000528000000014400
0202LOTE PADRAO                   COMGAS      PNA*       CGAS5       010VISTA          000000000064900000000650000000005950000000000000000000595000001693500
0202LOTE PADRAO                   SOUZA CRUZ  ON EJ      CRUZ3       010VISTA          000000000015000000000151000000001490000000000000000000151000000008100
0202LOTE PADRAO                   ELETROBRAS  ON *       ELET3       010VISTA          000000000020100000000202500000001910000000000000000000191000016406000
0202LOTE PADRAO                   CELESC      PNB        CLSC6       010VISTA          000000000000540000000005500000000053000000000000000000005500000115700
0202LOTE PADRAO                   BRADESCO    PN * EJ    BBDC4       010VISTA          000000000009800000000098000000000940000000000000000000094000315575000
0202LOTE PADRAO                   CESP        PN *       CESP4       010VISTA          000000000007000000000070000000000670000000000000000000067500005901600
0202LOTE PADRAO                   LIGHT       ON *       LIGH3       010VISTA          000000000063000000000640000000005800000000000000000000588000001457200
0202LOTE PADRAO                   TELESP CL PAPN *       TSPP4       010VISTA          000000000003690000000036900000000348000000000000000000035000299118000
0202LOTE PADRAO                   VALE R DOCE PNA        VALE5       010VISTA          000000000073900000000747500000007390000000000000000000744000000021200
0202LOTE PADRAO                   COPEL       PNB*       CPLE6       010VISTA          000000000009750000000097500000000910000000000000000000092500021378300
0202LOTE PADRAO                   VALE R DOCE ON         VALE3       010VISTA          000000000080000000000810000000008000000000000000000000807000000001900
0202LOTE PADRAO                   ARACRUZ     PNB        ARCZ6       010VISTA          000000000005200000000053000000000520000000000000000000052000000083000
0202LOTE PADRAO                   TELEMIG PARTPN *       TMCP4       010VISTA          000000000002800000000029000000000270000000000000000000027000067323900
0202LOTE PADRAO                   BRASIL TELECPN *       BRTO4       010VISTA          000000000012000000000120000000001160000000000000000000116000034640300
0202LOTE PADRAO                   SABESP      ON *       SBSP3       010VISTA          000000000084000000000840000000008160000000000000000000830000002679400
0202LOTE PADRAO                   BRASKEM     PNA*       BRKM5       010VISTA          000000000281000000002810000000027200000000000000000002720000000129400
0202LOTE PADRAO                   EMBRAER     PN EJ      EMBR4       010VISTA          000000000013100000000133000000001300000000000000000000130000000091700
0202LOTE PADRAO                   TELESP      PN * EJ    TLPP4       010VISTA          000000000032600000000332000000003220000000000000000000326000004857400
0202LOTE PADRAO                   EMBRAER     ON EJ      EMBR3       010VISTA          000000000012300000000123000000001190000000000000000000119000000010800
0202LOTE PADRAO                   AMBEV       PN *       AMBV4       010VISTA          000000000432000000004340000000042310000000000000000004295000001476600
0202LOTE PADRAO                   USIMINAS    PNA        USIM5       010VISTA          000000000005500000000055000000000520000000000000000000052000000020100
0202LOTE PADRAO                   ELETROPAULO PN *       ELPL4       010VISTA          000000000031900000000320000000002900000000000000000000296000008073300
0202LOTE PADRAO                   TELE NORD CLPN *       TNEP4       010VISTA          000000000002500000000025000000000240000000000000000000024000064133600
0202LOTE PADRAO                   CEMIG       PN * EJ    CMIG4       010VISTA          000000000025600000000261000000002430000000000000000000243000022701200
0202LOTE PADRAO                   TELE CL SUL PN * EJ    TCSL4       010VISTA          000000000002700000000027900000000260000000000000000000026000117710000
0202LOTE PADRAO                   TRACTEBEL   ON *       TBLE3       010VISTA          000000000003940000000040000000000390000000000000000000039000010437200
0202LOTE PADRAO                   CEMIG       ON * EJ    CMIG3       010VISTA          000000000024100000000241000000002350000000000000000000235000000428100
0202LOTE PADRAO                   TELE CL SUL ON * EJ    TCSL3       010VISTA          000000000002200000000022500000000210000000000000000000021000011702400
0202LOTE PADRAO                   ITAUSA      PN         ITSA4       010VISTA          000000000001710000000017100000000160000000000000000000016000000196800
0202LOTE PADRAO                   V C P       PN *       VCPA4       010VISTA          000000000101000000001019000000010000000000000000000001000000000882500
0202LOTE PADRAO                   SID TUBARAO PN *       CSTB4       010VISTA          000000000025500000000259000000002550000000000000000000258000002730000
0202LOTE PADRAO                   BRADESPAR   PN *       BRAP4       010VISTA          000000000000470000000004700000000046000000000000000000004600112971000
0202LOTE PADRAO                   NET         PN         PLIM4       010VISTA          000000000000420000000004200000000038000000000000000000003800000621800
0202LOTE PADRAO                   TELE CTR OESPN * EJ    TCOC4       010VISTA          000000000003600000000036000000000320000000000000000000033000105810000
0202LOTE PADRAO                   TELEMAR N L PNA* EJ    TMAR5       010VISTA          000000000044500000000445000000004220000000000000000000426000013275700
0202LOTE PADRAO                   GERDAU      PN * EJ    GGBR4       010VISTA          000000000032100000000323000000003150000000000000000000316000010872700
0202LOTE PADRAO                   BRASIL      ON *       BBAS3       010VISTA          000000000010000000000100000000000960000000000000000000096000042649700
