00BDIN9999BOVESPA 99992002112720021127
0101IBOVESPA                      0101420101230102860000000000000000002002112700000020021127010226000000
0202LOTE PADRAO                   EMBRATEL PARPN *       EBTP4       010VISTA          000000000002700000000028000000000271000000000000000000027700426684000
0202LOTE PADRAO                   TRAN PAULISTPN * EJ    TRPL4       010VISTA          000000000005300000000053000000000510000000000000000000052500010661300
0202LOTE PADRAO                   EMBRATEL PARON *       EBTP3       010VISTA          000000000003300000000036000000000330000000000000000000035000038982500
0202LOTE PADRAO                   TELEMAR     PN * EJ    TNLP4       010VISTA          000000000025800000000260000000002560000000000000000000257000096260700
0202LOTE PADRAO                   ITAUBANCO   PN * EJ    ITAU4       010VISTA          000000000149500000001498000000014820000000000000000001495000005144900
0202LOTE PADRAO                   TELEMAR     ON * EJ    TNLP3       010VISTA          000000000018400000000188000000001830000000000000000000186000011328200
0202LOTE PADRAO                   SID NACIONALON *       CSNA3       010VISTA          000000000045200000000465000000004450000000000000000000457000013863300
0202LOTE PADRAO                   TELE LEST CLPN *       TLCP4       010VISTA          000000000000410000000004300000000040000000000000000000004300193064000
0202LOTE PADRAO                   CRT CELULAR PNA* EJ    CRTP5       010VISTA          000000000319000000003190000000030990000000000000000003130000000152400
0202LOTE PADRAO                   IPIRANGA PETPN *       PTIP4       010VISTA          000000000007400000000075000000000710000000000000000000071000003854500
0202LOTE PADRAO                   BRASIL T PARPN *       BRTP4       010VISTA          000000000017900000000179000000001730000000000000000000176000020014000
0202LOTE PADRAO                   BRASIL T PARON *       BRTP3       010VISTA          000000000013100000000135000000001310000000000000000000134000005589000
0202LOTE PADRAO                   KLABIN S/A  PN         KLBN4       010VISTA          000000000001000000000010000000000100000000000000000000010000000015500
0202LOTE PADRAO                   ACESITA     PN *       ACES4       010VISTA          000000000000780000000007900000000076000000000000000000007800065170000
0202LOTE PADRAO                   PETROBRAS   PN         PETR4       010VISTA          000000000043500000000441000000004270000000000000000000431000000075000
0202LOTE PADRAO                   ELETROBRAS  PNB*       ELET6       010VISTA          000000000019300000000194000000001900000000000000000000191000047874600
0202LOTE PADRAO                   PETROBRAS   ON         PETR3       010VISTA          000000000047000000000471000000004650000000000000000000467000000012800
0202LOTE PADRAO                   COMGAS      PNA*       CGAS5       010VISTA          000000000054300000000559000000005380000000000000000000540000001750000
0202LOTE PADRAO                   SOUZA CRUZ  ON EJ      CRUZ3       010VISTA          000000000018300000000183000000001760000000000000000000176000000031500
0202LOTE PADRAO                   ELETROBRAS  ON *       ELET3       010VISTA          000000000019500000000201000000001940000000000000000000200000005115500
0202LOTE PADRAO                   CELESC      PNB        CLSC6       010VISTA          000000000000470000000004700000000046000000000000000000004700000588100
0202LOTE PADRAO                   BRADESCO    PN * EJ    BBDC4       010VISTA          000000000009400000000094000000000930000000000000000000093000105996000
0202LOTE PADRAO                   CESP        PN *       CESP4       010VISTA          000000000006000000000065000000000600000000000000000000064000020818500
0202LOTE PADRAO                   LIGHT       ON *       LIGH3       010VISTA          000000000048700000000508000000004870000000000000000000505000000065100
0202LOTE PADRAO                   TELESP CL PAPN *       TSPP4       010VISTA          000000000003800000000039800000000380000000000000000000038000277293000
0202LOTE PADRAO                   VALE R DOCE PNA        VALE5       010VISTA          000000000088200000000900000000008770000000000000000000900000000019500
0202LOTE PADRAO                   COPEL       PNB*       CPLE6       010VISTA          000000000007300000000076000000000725000000000000000000075000071853900
0202LOTE PADRAO                   VALE R DOCE ON         VALE3       010VISTA          000000000095500000000965000000009450000000000000000000962000000013300
0202LOTE PADRAO                   ARACRUZ     PNB        ARCZ6       010VISTA          000000000005900000000060000000000590000000000000000000059000000044900
0202LOTE PADRAO                   TELEMIG PARTPN *       TMCP4       010VISTA          000000000002800000000029000000000280000000000000000000029000044935100
0202LOTE PADRAO                   BRASIL TELECPN *       BRTO4       010VISTA          000000000011400000000114000000001100000000000000000000111000099945400
0202LOTE PADRAO                   SABESP      ON *       SBSP3       010VISTA          000000000080000000000800000000007850000000000000000000787000005046900
0202LOTE PADRAO                   BRASKEM     PNA*       BRKM5       010VISTA          000000000198000000001981000000019100000000000000000001930000000360600
0202LOTE PADRAO                   EMBRAER     PN EJ      EMBR4       010VISTA          000000000013100000000132500000001290000000000000000000130000000033500
0202LOTE PADRAO                   TELESP      PN * EJ    TLPP4       010VISTA          000000000036700000000368000000003630000000000000000000363000008496400
0202LOTE PADRAO                   EMBRAER     ON EJ      EMBR3       010VISTA          000000000012100000000121000000001180000000000000000000120000000008400
0202LOTE PADRAO                   AMBEV       PN *       AMBV4       010VISTA          000000000542000000005450000000053890000000000000000005425000001323200
0202LOTE PADRAO                   USIMINAS    PNA        USIM5       010VISTA          000000000006200000000062000000000600000000000000000000061000000021300
0202LOTE PADRAO                   ELETROPAULO PN *       ELPL4       010VISTA          000000000023500000000239000000002280000000000000000000229000002193300
0202LOTE PADRAO                   TELE NORD CLPN *       TNEP4       010VISTA          000000000002600000000027000000000260000000000000000000026000012525600
0202LOTE PADRAO                   CEMIG       PN * EJ    CMIG4       010VISTA          000000000023000000000237000000002260000000000000000000237000012277300
0202LOTE PADRAO                   TELE CL SUL PN * EJ    TCSL4       010VISTA          000000000002600000000026000000000250000000000000000000025000135742000
0202LOTE PADRAO                   TRACTEBEL   ON *       TBLE3       010VISTA          000000000003100000000031000000000310000000000000000000031000004697800
0202LOTE PADRAO                   CEMIG       ON * EJ    CMIG3       010VISTA          000000000020300000000210000000002030000000000000000000209000000155800
0202LOTE PADRAO                   TELE CL SUL ON * EJ    TCSL3       010VISTA          000000000001990000000019900000000190000000000000000000019800019515700
0202LOTE PADRAO                   ITAUSA      PN         ITSA4       010VISTA          000000000001770000000018000000000176000000000000000000017900000087800
0202LOTE PADRAO                   V C P       PN *       VCPA4       010VISTA          000000000115000000001159000000011400000000000000000001150000000361300
0202LOTE PADRAO                   SID TUBARAO PN *       CSTB4       010VISTA          000000000033500000000338000000003330000000000000000000338000005545900
0202LOTE PADRAO                   BRADESPAR   PN *       BRAP4       010VISTA          000000000000470000000004800000000046000000000000000000004800173148000
0202LOTE PADRAO                   NET         PN         PLIM4       010VISTA          000000000000370000000004300000000035000000000000000000004100003944200
0202LOTE PADRAO                   TELE CTR OESPN * EJ    TCOC4       010VISTA          000000000004500000000046000000000440000000000000000000045000122748000
0202LOTE PADRAO                   TELEMAR N L PNA* EJ    TMAR5       010VISTA          000000000042500000000425000000004120000000000000000000419000021428400
0202LOTE PADRAO                   GERDAU      PN * EJ    GGBR4       010VISTA          000000000031500000000315000000003110000000000000000000312500007264000
0202LOTE PADRAO                   BRASIL      ON *       BBAS3       010VISTA          000000000010000000000101000000000980000000000000000000098000038029300
