00BDIN9999BOVESPA 99992002042620020426
0101IBOVESPA                      0132730130370133670000000000000000002002042600000020020426013076000000
0202LOTE PADRAO                   EMBRATEL PARPN *       EBTP4       010VISTA          000000000006200000000065000000000600000000000000000000060000233087000
0202LOTE PADRAO                   TRAN PAULISTPN * EJ    TRPL4       010VISTA          000000000006900000000069000000000660000000000000000000067000018748100
0202LOTE PADRAO                   EMBRATEL PARON *       EBTP3       010VISTA          000000000007800000000083000000000754000000000000000000075000046960700
0202LOTE PADRAO                   TELEMAR     PN * EJ    TNLP4       010VISTA          000000000031400000000315000000003030000000000000000000306000186497000
0202LOTE PADRAO                   ITAUBANCO   PN * EJ    ITAU4       010VISTA          000000000185000000001880000000018500000000000000000001850000010096200
0202LOTE PADRAO                   TELEMAR     ON * EJ    TNLP3       010VISTA          000000000027300000000273000000002610000000000000000000266000011410200
0202LOTE PADRAO                   SID NACIONALON *       CSNA3       010VISTA          000000000046000000000461000000004420000000000000000000452000048444500
0202LOTE PADRAO                   TELE LEST CLPN *       TLCP4       010VISTA          000000000000760000000007700000000075000000000000000000007500163410000
0202LOTE PADRAO                   CRT CELULAR PNA* EJ    CRTP5       010VISTA          000000000433000000004330000000040500000000000000000004055000000562300
0202LOTE PADRAO                   IPIRANGA PETPN *       PTIP4       010VISTA          000000000015000000000151000000001490000000000000000000150000006107900
0202LOTE PADRAO                   BRASIL T PARPN *       BRTP4       010VISTA          000000000019100000000191000000001870000000000000000000188000064774200
0202LOTE PADRAO                   BRASIL T PARON *       BRTP3       010VISTA          000000000018000000000182000000001770000000000000000000178000008505500
0202LOTE PADRAO                   KLABIN S/A  PN         KLBN4       010VISTA          000000000001000000000010000000000100000000000000000000010000000025100
0202LOTE PADRAO                   ACESITA     PN *       ACES4       010VISTA          000000000000760000000007900000000075000000000000000000007500417837000
0202LOTE PADRAO                   PETROBRAS   PN         PETR4       010VISTA          000000000055500000000555000000005360000000000000000000541000000166800
0202LOTE PADRAO                   ELETROBRAS  PNB*       ELET6       010VISTA          000000000035000000000350000000003330000000000000000000337000038029400
0202LOTE PADRAO                   PETROBRAS   ON         PETR3       010VISTA          000000000059200000000592000000005750000000000000000000575000000035800
0202LOTE PADRAO                   COMGAS      PNA*       CGAS5       010VISTA          000000000075000000000759000000007450000000000000000000745000001599800
0202LOTE PADRAO                   SOUZA CRUZ  ON EJ      CRUZ3       010VISTA          000000000016800000000168000000001650000000000000000000166000000022600
0202LOTE PADRAO                   ELETROBRAS  ON *       ELET3       010VISTA          000000000036900000000380000000003670000000000000000000371000014450900
0202LOTE PADRAO                   CELESC      PNB        CLSC6       010VISTA          000000000000600000000006100000000057000000000000000000005700000490800
0202LOTE PADRAO                   BRADESCO    PN * EJ    BBDC4       010VISTA          000000000014300000000143000000001400000000000000000000141000176861000
0202LOTE PADRAO                   CESP        PN *       CESP4       010VISTA          000000000012600000000129000000001200000000000000000000120000008123700
0202LOTE PADRAO                   LIGHT       ON *       LIGH3       010VISTA          000000000099000000001015000000009700000000000000000001015000000922700
0202LOTE PADRAO                   TELESP CL PAPN *       TSPP4       010VISTA          000000000005900000000060000000000580000000000000000000058000140506000
0202LOTE PADRAO                   VALE R DOCE PNA        VALE5       010VISTA          000000000063500000000640000000006275000000000000000000633000000038300
0202LOTE PADRAO                   COPEL       PNB*       CPLE6       010VISTA          000000000017600000000176000000001700000000000000000000171000041177500
0202LOTE PADRAO                   VALE R DOCE ON         VALE3       010VISTA          000000000064000000000645000000006370000000000000000000642000000014200
0202LOTE PADRAO                   ARACRUZ     PNB        ARCZ6       010VISTA          000000000005000000000050000000000480000000000000000000049000000139700
0202LOTE PADRAO                   TELEMIG PARTPN *       TMCP4       010VISTA          000000000002900000000029000000000260000000000000000000027000108222000
0202LOTE PADRAO                   BRASIL TELECPN *       BRTO4       010VISTA          000000000012900000000130000000001280000000000000000000129000087188900
0202LOTE PADRAO                   SABESP      ON *       SBSP3       010VISTA          000000000152000000001545000000014800000000000000000001485000002842300
0202LOTE PADRAO                   BRASKEM     PNA*       BRKM5       010VISTA          000000000514000000005260000000051200000000000000000005260000000147700
0202LOTE PADRAO                   EMBRAER     PN EJ      EMBR4       010VISTA          000000000013000000000132500000001300000000000000000000131000000111100
0202LOTE PADRAO                   TELESP      PN * EJ    TLPP4       010VISTA          000000000032300000000325000000003130000000000000000000322000016696900
0202LOTE PADRAO                   EMBRAER     ON EJ      EMBR3       010VISTA          000000000012250000000122000000001210000000000000000000121000000024400
0202LOTE PADRAO                   AMBEV       PN *       AMBV4       010VISTA          000000000481000000004892500000048000000000000000000004830000002367900
0202LOTE PADRAO                   USIMINAS    PNA        USIM5       010VISTA          000000000008000000000080000000000770000000000000000000077000000041800
0202LOTE PADRAO                   ELETROPAULO PN *       ELPL4       010VISTA          000000000064500000000645000000006010000000000000000000609000005679800
0202LOTE PADRAO                   TELE NORD CLPN *       TNEP4       010VISTA          000000000002500000000025000000000230000000000000000000023000150189000
0202LOTE PADRAO                   CEMIG       PN * EJ    CMIG4       010VISTA          000000000037400000000385000000003720000000000000000000374000059213500
0202LOTE PADRAO                   TELE CL SUL PN * EJ    TCSL4       010VISTA          000000000003000000000030000000000280000000000000000000029600120460000
0202LOTE PADRAO                   TRACTEBEL   ON *       TBLE3       010VISTA          000000000004600000000046000000000430000000000000000000045000014594200
0202LOTE PADRAO                   CEMIG       ON * EJ    CMIG3       010VISTA          000000000033100000000337000000003310000000000000000000331000003036200
0202LOTE PADRAO                   TELE CL SUL ON * EJ    TCSL3       010VISTA          000000000002600000000026000000000240000000000000000000024000023701400
0202LOTE PADRAO                   ITAUSA      PN         ITSA4       010VISTA          000000000002400000000024000000000230000000000000000000023000000186200
0202LOTE PADRAO                   V C P       PN *       VCPA4       010VISTA          000000000092000000000939000000009200000000000000000000924000002242200
0202LOTE PADRAO                   SID TUBARAO PN *       CSTB4       010VISTA          000000000027800000000285000000002760000000000000000000280000018025000
0202LOTE PADRAO                   BRADESPAR   PN *       BRAP4       010VISTA          000000000000700000000007100000000066000000000000000000006800189786000
0202LOTE PADRAO                   NET         PN         PLIM4       010VISTA          000000000000320000000003400000000031000000000000000000003200001383100
0202LOTE PADRAO                   TELE CTR OESPN * EJ    TCOC4       010VISTA          000000000004750000000048000000000450000000000000000000045000082670400
0202LOTE PADRAO                   TELEMAR N L PNA* EJ    TMAR5       010VISTA          000000000053200000000532000000005200000000000000000000525000020799100
0202LOTE PADRAO                   GERDAU      PN * EJ    GGBR4       010VISTA          000000000031500000000327000000003150000000000000000000325000016951600
0202LOTE PADRAO                   BRASIL      ON *       BBAS3       010VISTA          000000000013800000000140000000001350000000000000000000136000004926900
