00BDIN9999BOVESPA 99992002110520021105
0101IBOVESPA                      0099040098250100340000000000000000002002110500000020021105009861000000
0202LOTE PADRAO                   EMBRATEL PARPN *       EBTP4       010VISTA          000000000002250000000022000000000220000000000000000000022000192592000
0202LOTE PADRAO                   TRAN PAULISTPN * EJ    TRPL4       010VISTA          000000000005200000000052000000000520000000000000000000052000005115600
0202LOTE PADRAO                   EMBRATEL PARON *       EBTP3       010VISTA          000000000002710000000027300000000260000000000000000000026000029415600
0202LOTE PADRAO                   TELEMAR     PN * EJ    TNLP4       010VISTA          000000000024600000000248000000002430000000000000000000245000313556000
0202LOTE PADRAO                   ITAUBANCO   PN * EJ    ITAU4       010VISTA          000000000151500000001550000000014780000000000000000001499000011703800
0202LOTE PADRAO                   TELEMAR     ON * EJ    TNLP3       010VISTA          000000000017800000000181000000001750000000000000000000180000014498600
0202LOTE PADRAO                   SID NACIONALON *       CSNA3       010VISTA          000000000038200000000388000000003780000000000000000000387000012403200
0202LOTE PADRAO                   TELE LEST CLPN *       TLCP4       010VISTA          000000000000400000000004100000000040000000000000000000004000178234000
0202LOTE PADRAO                   CRT CELULAR PNA* EJ    CRTP5       010VISTA          000000000345000000003450000000033010000000000000000003350000000692100
0202LOTE PADRAO                   IPIRANGA PETPN *       PTIP4       010VISTA          000000000008400000000085000000000830000000000000000000084000002913000
0202LOTE PADRAO                   BRASIL T PARPN *       BRTP4       010VISTA          000000000019300000000194000000001860000000000000000000190000105073000
0202LOTE PADRAO                   BRASIL T PARON *       BRTP3       010VISTA          000000000014400000000145000000001400000000000000000000144000008653600
0202LOTE PADRAO                   KLABIN S/A  PN         KLBN4       010VISTA          000000000000900000000009300000000088000000000000000000009200000038900
0202LOTE PADRAO                   ACESITA     PN *       ACES4       010VISTA          000000000000690000000007200000000069000000000000000000007100122259000
0202LOTE PADRAO                   PETROBRAS   PN         PETR4       010VISTA          000000000043250000000435000000004210000000000000000000422000000075000
0202LOTE PADRAO                   ELETROBRAS  PNB*       ELET6       010VISTA          000000000018700000000191000000001810000000000000000000182500036280900
0202LOTE PADRAO                   PETROBRAS   ON         PETR3       010VISTA          000000000047000000000470000000004560000000000000000000456000000013800
0202LOTE PADRAO                   COMGAS      PNA*       CGAS5       010VISTA          000000000057800000000584000000005700000000000000000000575000000314000
0202LOTE PADRAO                   SOUZA CRUZ  ON EJ      CRUZ3       010VISTA          000000000018600000000191000000001830000000000000000000183000000007300
0202LOTE PADRAO                   ELETROBRAS  ON *       ELET3       010VISTA          000000000020400000000204000000001910000000000000000000193000019085100
0202LOTE PADRAO                   CELESC      PNB        CLSC6       010VISTA          000000000000510000000005200000000050000000000000000000005100000050400
0202LOTE PADRAO                   BRADESCO    PN * EJ    BBDC4       010VISTA          000000000009200000000094000000000900000000000000000000091000139174000
0202LOTE PADRAO                   CESP        PN *       CESP4       010VISTA          000000000006300000000064000000000620000000000000000000062000007016200
0202LOTE PADRAO                   LIGHT       ON *       LIGH3       010VISTA          000000000056300000000563000000005500000000000000000000550000000433200
0202LOTE PADRAO                   TELESP CL PAPN *       TSPP4       010VISTA          000000000003800000000038000000000370000000000000000000038000329572000
0202LOTE PADRAO                   VALE R DOCE PNA        VALE5       010VISTA          000000000091500000000915000000008700000000000000000000870000000010900
0202LOTE PADRAO                   COPEL       PNB*       CPLE6       010VISTA          000000000008100000000081000000000780000000000000000000078000073504400
0202LOTE PADRAO                   VALE R DOCE ON         VALE3       010VISTA          000000000093000000000930000000008900000000000000000000896000000007700
0202LOTE PADRAO                   ARACRUZ     PNB        ARCZ6       010VISTA          000000000005800000000059000000000560000000000000000000056000000095900
0202LOTE PADRAO                   TELEMIG PARTPN *       TMCP4       010VISTA          000000000002800000000029800000000281000000000000000000029000087359200
0202LOTE PADRAO                   BRASIL TELECPN *       BRTO4       010VISTA          000000000012000000000120000000001160000000000000000000119000083263400
0202LOTE PADRAO                   SABESP      ON *       SBSP3       010VISTA          000000000087000000000877000000008540000000000000000000860000001556500
0202LOTE PADRAO                   BRASKEM     PNA*       BRKM5       010VISTA          000000000226000000002360000000022600000000000000000002321000000077500
0202LOTE PADRAO                   EMBRAER     PN EJ      EMBR4       010VISTA          000000000013400000000137500000001330000000000000000000135000000070800
0202LOTE PADRAO                   TELESP      PN * EJ    TLPP4       010VISTA          000000000037800000000378000000003650000000000000000000368000004500400
0202LOTE PADRAO                   EMBRAER     ON EJ      EMBR3       010VISTA          000000000012600000000130000000001230000000000000000000124000000008000
0202LOTE PADRAO                   AMBEV       PN *       AMBV4       010VISTA          000000000508000000005150000000049600000000000000000005120000000916700
0202LOTE PADRAO                   USIMINAS    PNA        USIM5       010VISTA          000000000005300000000054000000000520000000000000000000053000000032200
0202LOTE PADRAO                   ELETROPAULO PN *       ELPL4       010VISTA          000000000025300000000258000000002460000000000000000000252000003289200
0202LOTE PADRAO                   TELE NORD CLPN *       TNEP4       010VISTA          000000000002400000000025000000000248000000000000000000025000112283000
0202LOTE PADRAO                   CEMIG       PN * EJ    CMIG4       010VISTA          000000000024600000000251000000002330000000000000000000233000049799400
0202LOTE PADRAO                   TELE CL SUL PN * EJ    TCSL4       010VISTA          000000000002800000000030000000000280000000000000000000030000143159000
0202LOTE PADRAO                   TRACTEBEL   ON *       TBLE3       010VISTA          000000000003400000000034800000000330000000000000000000034000003565200
0202LOTE PADRAO                   CEMIG       ON * EJ    CMIG3       010VISTA          000000000022800000000228000000002180000000000000000000221000000180000
0202LOTE PADRAO                   TELE CL SUL ON * EJ    TCSL3       010VISTA          000000000002200000000023000000000220000000000000000000022000020249800
0202LOTE PADRAO                   ITAUSA      PN         ITSA4       010VISTA          000000000001750000000017900000000173000000000000000000017300000148400
0202LOTE PADRAO                   V C P       PN *       VCPA4       010VISTA          000000000113500000001145000000011150000000000000000001125000002033600
0202LOTE PADRAO                   SID TUBARAO PN *       CSTB4       010VISTA          000000000036250000000373000000003600000000000000000000368000003687600
0202LOTE PADRAO                   BRADESPAR   PN *       BRAP4       010VISTA          000000000000470000000004800000000046000000000000000000004600110382000
0202LOTE PADRAO                   NET         PN         PLIM4       010VISTA          000000000000280000000002900000000027000000000000000000002800000352700
0202LOTE PADRAO                   TELE CTR OESPN * EJ    TCOC4       010VISTA          000000000003540000000036000000000348000000000000000000035000075364300
0202LOTE PADRAO                   TELEMAR N L PNA* EJ    TMAR5       010VISTA          000000000043200000000433000000004175000000000000000000422000023602900
0202LOTE PADRAO                   GERDAU      PN * EJ    GGBR4       010VISTA          000000000035500000000355000000003490000000000000000000350000011803100
0202LOTE PADRAO                   BRASIL      ON *       BBAS3       010VISTA          000000000010300000000105000000001030000000000000000000104000076057900
