00BDIN9999BOVESPA 99992002072520020725
0101IBOVESPA                      0099470094860099470000000000000000002002072500000020020725009666000000
0202LOTE PADRAO                   EMBRATEL PARPN *       EBTP4       010VISTA          000000000001740000000017900000000160000000000000000000016000387873000
0202LOTE PADRAO                   TRAN PAULISTPN * EJ    TRPL4       010VISTA          000000000005500000000056000000000510000000000000000000056000011796600
0202LOTE PADRAO                   EMBRATEL PARON *       EBTP3       010VISTA          000000000002900000000030000000000270000000000000000000030000037884100
0202LOTE PADRAO                   TELEMAR     PN * EJ    TNLP4       010VISTA          000000000023800000000238000000002230000000000000000000231000367657000
0202LOTE PADRAO                   ITAUBANCO   PN * EJ    ITAU4       010VISTA          000000000146000000001460000000013200000000000000000001320000055808500
0202LOTE PADRAO                   TELEMAR     ON * EJ    TNLP3       010VISTA          000000000017900000000186000000001760000000000000000000183000019714000
0202LOTE PADRAO                   SID NACIONALON *       CSNA3       010VISTA          000000000048000000000480000000004620000000000000000000480000021343100
0202LOTE PADRAO                   TELE LEST CLPN *       TLCP4       010VISTA          000000000000420000000004200000000039000000000000000000004000157468000
0202LOTE PADRAO                   CRT CELULAR PNA* EJ    CRTP5       010VISTA          000000000384000000003900000000037400000000000000000003850000000382900
0202LOTE PADRAO                   IPIRANGA PETPN *       PTIP4       010VISTA          000000000011600000000122500000001150000000000000000000121000005270000
0202LOTE PADRAO                   BRASIL T PARPN *       BRTP4       010VISTA          000000000014900000000149000000001430000000000000000000144000072124500
0202LOTE PADRAO                   BRASIL T PARON *       BRTP3       010VISTA          000000000012500000000127500000001240000000000000000000126000013187600
0202LOTE PADRAO                   KLABIN S/A  PN         KLBN4       010VISTA          000000000000840000000008400000000080000000000000000000008300000025900
0202LOTE PADRAO                   ACESITA     PN *       ACES4       010VISTA          000000000000600000000006100000000058000000000000000000006100114594000
0202LOTE PADRAO                   PETROBRAS   PN         PETR4       010VISTA          000000000041000000000412000000003990000000000000000000406000000170200
0202LOTE PADRAO                   ELETROBRAS  PNB*       ELET6       010VISTA          000000000021600000000218000000002060000000000000000000218000045025200
0202LOTE PADRAO                   PETROBRAS   ON         PETR3       010VISTA          000000000043900000000440000000004270000000000000000000435000000051800
0202LOTE PADRAO                   COMGAS      PNA*       CGAS5       010VISTA          000000000049300000000508000000004670000000000000000000508000000516500
0202LOTE PADRAO                   SOUZA CRUZ  ON EJ      CRUZ3       010VISTA          000000000014900000000150000000001425000000000000000000144000000074300
0202LOTE PADRAO                   ELETROBRAS  ON *       ELET3       010VISTA          000000000023500000000235000000002200000000000000000000226000013454400
0202LOTE PADRAO                   CELESC      PNB        CLSC6       010VISTA          000000000000530000000005400000000051000000000000000000005300000083400
0202LOTE PADRAO                   BRADESCO    PN * EJ    BBDC4       010VISTA          000000000010100000000101000000000930000000000000000000093000447029000
0202LOTE PADRAO                   CESP        PN *       CESP4       010VISTA          000000000007600000000076000000000710000000000000000000074000005154300
0202LOTE PADRAO                   LIGHT       ON *       LIGH3       010VISTA          000000000075000000000779000000007000000000000000000000760000000287100
0202LOTE PADRAO                   TELESP CL PAPN *       TSPP4       010VISTA          000000000003300000000034000000000327000000000000000000033000188199000
0202LOTE PADRAO                   VALE R DOCE PNA        VALE5       010VISTA          000000000069000000000690000000006770000000000000000000677000000032000
0202LOTE PADRAO                   COPEL       PNB*       CPLE6       010VISTA          000000000010500000000106000000001010000000000000000000101000046054400
0202LOTE PADRAO                   VALE R DOCE ON         VALE3       010VISTA          000000000075000000000750000000007430000000000000000000745000000003300
0202LOTE PADRAO                   ARACRUZ     PNB        ARCZ6       010VISTA          000000000005200000000054000000000520000000000000000000053000000036700
0202LOTE PADRAO                   TELEMIG PARTPN *       TMCP4       010VISTA          000000000003000000000031000000000280000000000000000000028000092888900
0202LOTE PADRAO                   BRASIL TELECPN *       BRTO4       010VISTA          000000000010000000000100000000000950000000000000000000100000092278300
0202LOTE PADRAO                   SABESP      ON *       SBSP3       010VISTA          000000000092000000000920000000009100000000000000000000910000002949200
0202LOTE PADRAO                   BRASKEM     PNA*       BRKM5       010VISTA          000000000375000000003800000000036610000000000000000003710000000071000
0202LOTE PADRAO                   EMBRAER     PN EJ      EMBR4       010VISTA          000000000013900000000141000000001360000000000000000000140000000071300
0202LOTE PADRAO                   TELESP      PN * EJ    TLPP4       010VISTA          000000000032700000000327000000003140000000000000000000322000007397200
0202LOTE PADRAO                   EMBRAER     ON EJ      EMBR3       010VISTA          000000000012600000000128000000001220000000000000000000125000000011600
0202LOTE PADRAO                   AMBEV       PN *       AMBV4       010VISTA          000000000433000000004330000000042000000000000000000004250000001450500
0202LOTE PADRAO                   USIMINAS    PNA        USIM5       010VISTA          000000000006000000000061000000000570000000000000000000058000000034300
0202LOTE PADRAO                   ELETROPAULO PN *       ELPL4       010VISTA          000000000035000000000352000000003350000000000000000000338000002630500
0202LOTE PADRAO                   TELE NORD CLPN *       TNEP4       010VISTA          000000000002500000000025000000000230000000000000000000025000090236100
0202LOTE PADRAO                   CEMIG       PN * EJ    CMIG4       010VISTA          000000000027800000000278000000002600000000000000000000267000035414100
0202LOTE PADRAO                   TELE CL SUL PN * EJ    TCSL4       010VISTA          000000000003000000000030000000000270000000000000000000028000068441600
0202LOTE PADRAO                   TRACTEBEL   ON *       TBLE3       010VISTA          000000000004000000000041000000000398000000000000000000041000005569800
0202LOTE PADRAO                   CEMIG       ON * EJ    CMIG3       010VISTA          000000000025900000000270000000002560000000000000000000270000000520200
0202LOTE PADRAO                   TELE CL SUL ON * EJ    TCSL3       010VISTA          000000000002300000000024000000000220000000000000000000023000022330000
0202LOTE PADRAO                   ITAUSA      PN         ITSA4       010VISTA          000000000001760000000017600000000160000000000000000000016000000640500
0202LOTE PADRAO                   V C P       PN *       VCPA4       010VISTA          000000000092500000000959000000009250000000000000000000935000002796900
0202LOTE PADRAO                   SID TUBARAO PN *       CSTB4       010VISTA          000000000026600000000273000000002630000000000000000000268000009870000
0202LOTE PADRAO                   BRADESPAR   PN *       BRAP4       010VISTA          000000000000490000000005000000000048000000000000000000005000172356000
0202LOTE PADRAO                   NET         PN         PLIM4       010VISTA          000000000001100000000011000000000095000000000000000000010000000210800
0202LOTE PADRAO                   TELE CTR OESPN * EJ    TCOC4       010VISTA          000000000003800000000039600000000370000000000000000000038000062074500
0202LOTE PADRAO                   TELEMAR N L PNA* EJ    TMAR5       010VISTA          000000000042000000000420000000003910000000000000000000405000031223500
0202LOTE PADRAO                   GERDAU      PN * EJ    GGBR4       010VISTA          000000000028000000000285000000002700000000000000000000284000016796900
0202LOTE PADRAO                   BRASIL      ON *       BBAS3       010VISTA          000000000009900000000100000000000910000000000000000000093000002924200
