00BDIN9999BOVESPA 99992002020520020205
0101IBOVESPA                      0125570124150127780000000000000000002002020500000020020205012748000000
0202LOTE PADRAO                   EMBRATEL PARPN *       EBTP4       010VISTA          000000000008000000000081000000000760000000000000000000078000361287000
0202LOTE PADRAO                   EMBRATEL PARON *       EBTP3       010VISTA          000000000009800000000101000000000950000000000000000000100000045155400
0202LOTE PADRAO                   TRAN PAULISTPN * EJ    TRPL4       010VISTA          000000000006900000000071000000000670000000000000000000071000021683900
0202LOTE PADRAO                   TELEMAR     PN * EJ    TNLP4       010VISTA          000000000031300000000318000000003030000000000000000000315000228771000
0202LOTE PADRAO                   ITAUBANCO   PN * EJ    ITAU4       010VISTA          000000000170000000001734000000016750000000000000000001734000004464300
0202LOTE PADRAO                   TELEMAR     ON * EJ    TNLP3       010VISTA          000000000026800000000278000000002630000000000000000000276000026249900
0202LOTE PADRAO                   SID NACIONALON *       CSNA3       010VISTA          000000000037500000000387000000003710000000000000000000385000011491000
0202LOTE PADRAO                   TELE LEST CLPN *       TLCP4       010VISTA          000000000000870000000009200000000087000000000000000000009000140839000
0202LOTE PADRAO                   CRT CELULAR PNA* EJ    CRTP5       010VISTA          000000000425000000004250000000041950000000000000000004195000000684400
0202LOTE PADRAO                   IPIRANGA PETPN *       PTIP4       010VISTA          000000000012300000000130000000001230000000000000000000129000004891100
0202LOTE PADRAO                   BRASIL T PARPN *       BRTP4       010VISTA          000000000016600000000169000000001630000000000000000000169000063202600
0202LOTE PADRAO                   BRASIL T PARON *       BRTP3       010VISTA          000000000016100000000171000000001610000000000000000000170000014557900
0202LOTE PADRAO                   KLABIN S/A  PN         KLBN4       010VISTA          000000000001000000000011000000000100000000000000000000011000000046100
0202LOTE PADRAO                   ACESITA     PN *       ACES4       010VISTA          000000000000610000000006400000000060000000000000000000006300172425000
0202LOTE PADRAO                   PETROBRAS   PN         PETR4       010VISTA          000000000047900000000480000000004730000000000000000000478000000080500
0202LOTE PADRAO                   ELETROBRAS  PNB*       ELET6       010VISTA          000000000032800000000342000000003220000000000000000000341000085786700
0202LOTE PADRAO                   PETROBRAS   ON         PETR3       010VISTA          000000000049300000000493000000004870000000000000000000493000000014400
0202LOTE PADRAO                   COMGAS      PNA*       CGAS5       010VISTA          000000000085700000000859000000008200000000000000000000855000000871000
0202LOTE PADRAO                   SOUZA CRUZ  ON EJ      CRUZ3       010VISTA          000000000014100000000143000000001400000000000000000000141000000016400
0202LOTE PADRAO                   ELETROBRAS  ON *       ELET3       010VISTA          000000000038200000000390000000003650000000000000000000387000022558800
0202LOTE PADRAO                   CELESC      PNB        CLSC6       010VISTA          000000000000500000000005000000000047000000000000000000005000000299900
0202LOTE PADRAO                   BRADESCO    PN * EJ    BBDC4       010VISTA          000000000012100000000122500000001190000000000000000000122000065851600
0202LOTE PADRAO                   CESP        PN *       CESP4       010VISTA          000000000014900000000151000000001450000000000000000000151000006046800
0202LOTE PADRAO                   LIGHT       ON *       LIGH3       010VISTA          000000000124000000001260000000012350000000000000000001260000000539700
0202LOTE PADRAO                   TELESP CL PAPN *       TSPP4       010VISTA          000000000007000000000070000000000690000000000000000000070000267352000
0202LOTE PADRAO                   VALE R DOCE PNA        VALE5       010VISTA          000000000055900000000560000000005520000000000000000000557000000031700
0202LOTE PADRAO                   COPEL       PNB*       CPLE6       010VISTA          000000000016750000000168000000001630000000000000000000168000071365700
0202LOTE PADRAO                   VALE R DOCE ON         VALE3       010VISTA          000000000055000000000550000000005450000000000000000000547000000021100
0202LOTE PADRAO                   ARACRUZ     PNB        ARCZ6       010VISTA          000000000004400000000045000000000430000000000000000000043000000079100
0202LOTE PADRAO                   TELEMIG PARTPN *       TMCP4       010VISTA          000000000003300000000036000000000330000000000000000000035000116119000
0202LOTE PADRAO                   BRASIL TELECPN *       BRTO4       010VISTA          000000000011900000000124000000001175000000000000000000124000063784700
0202LOTE PADRAO                   SABESP      ON *       SBSP3       010VISTA          000000000140000000001450000000013760000000000000000001410000001608000
0202LOTE PADRAO                   BRASKEM     PNA*       BRKM5       010VISTA          000000000525000000005449000000052100000000000000000005350000000075500
0202LOTE PADRAO                   EMBRAER     PN EJ      EMBR4       010VISTA          000000000013400000000135000000001325000000000000000000135000000041200
0202LOTE PADRAO                   TELESP      PN * EJ    TLPP4       010VISTA          000000000028100000000290000000002780000000000000000000286000015204200
0202LOTE PADRAO                   EMBRAER     ON EJ      EMBR3       010VISTA          000000000012000000000125000000001200000000000000000000125000000024900
0202LOTE PADRAO                   AMBEV       PN *       AMBV4       010VISTA          000000000453500000004550000000045000000000000000000004540000000917400
0202LOTE PADRAO                   USIMINAS    PNA        USIM5       010VISTA          000000000007000000000071000000000690000000000000000000070000000042300
0202LOTE PADRAO                   ELETROPAULO PN *       ELPL4       010VISTA          000000000072000000000729000000007050000000000000000000725000001567200
0202LOTE PADRAO                   TELE NORD CLPN *       TNEP4       010VISTA          000000000002700000000029000000000270000000000000000000028000096623900
0202LOTE PADRAO                   CEMIG       PN * EJ    CMIG4       010VISTA          000000000033600000000343000000003230000000000000000000343000100840000
0202LOTE PADRAO                   TELE CL SUL PN * EJ    TCSL4       010VISTA          000000000003000000000032000000000300000000000000000000032000072891600
0202LOTE PADRAO                   CEMIG       ON * EJ    CMIG3       010VISTA          000000000029300000000305000000002900000000000000000000303000000885900
0202LOTE PADRAO                   TELE CL SUL ON * EJ    TCSL3       010VISTA          000000000002600000000028000000000260000000000000000000028000015616500
0202LOTE PADRAO                   ITAUSA      PN         ITSA4       010VISTA          000000000002100000000021000000000200000000000000000000021000000213900
0202LOTE PADRAO                   V C P       PN *       VCPA4       010VISTA          000000000079900000000802000000007820000000000000000000792000001276200
0202LOTE PADRAO                   SID TUBARAO PN *       CSTB4       010VISTA          000000000021100000000214000000002080000000000000000000211000006986400
0202LOTE PADRAO                   BRADESPAR   PN *       BRAP4       010VISTA          000000000000700000000007300000000069000000000000000000007300109661000
0202LOTE PADRAO                   NET         PN         PLIM4       010VISTA          000000000000590000000006400000000058000000000000000000006300001555100
0202LOTE PADRAO                   TELE CTR OESPN * EJ    TCOC4       010VISTA          000000000004400000000044000000000420000000000000000000044000164590000
0202LOTE PADRAO                   TELEMAR N L PNA* EJ    TMAR5       010VISTA          000000000052100000000535000000005070000000000000000000532000029723800
0202LOTE PADRAO                   GERDAU      PN * EJ    GGBR4       010VISTA          000000000023500000000240000000002310000000000000000000236000010101400
0202LOTE PADRAO                   BRASIL      ON *       BBAS3       010VISTA          000000000009100000000093000000000900000000000000000000091000005024500
