00BDIN9999BOVESPA 99992002021320020213
0101IBOVESPA                      0125990125040129610000000000000000002002021300000020020213012961000000
0202LOTE PADRAO                   EMBRATEL PARPN *       EBTP4       010VISTA          000000000007700000000081000000000730000000000000000000081000250170000
0202LOTE PADRAO                   EMBRATEL PARON *       EBTP3       010VISTA          000000000009600000000103000000000950000000000000000000103000054693500
0202LOTE PADRAO                   TRAN PAULISTPN * EJ    TRPL4       010VISTA          000000000007000000000071000000000680000000000000000000071000035250000
0202LOTE PADRAO                   TELEMAR     PN * EJ    TNLP4       010VISTA          000000000031400000000323000000003100000000000000000000322000289454000
0202LOTE PADRAO                   ITAUBANCO   PN * EJ    ITAU4       010VISTA          000000000173500000001790000000016800000000000000000001700000010267900
0202LOTE PADRAO                   TELEMAR     ON * EJ    TNLP3       010VISTA          000000000027500000000299000000002700000000000000000000285000026857900
0202LOTE PADRAO                   SID NACIONALON *       CSNA3       010VISTA          000000000037500000000390000000003700000000000000000000390000012034900
0202LOTE PADRAO                   TELE LEST CLPN *       TLCP4       010VISTA          000000000000870000000009000000000083000000000000000000008500422141000
0202LOTE PADRAO                   CRT CELULAR PNA* EJ    CRTP5       010VISTA          000000000430000000004590000000041100000000000000000004590000000755600
0202LOTE PADRAO                   IPIRANGA PETPN *       PTIP4       010VISTA          000000000013100000000131000000001190000000000000000000129000005170000
0202LOTE PADRAO                   BRASIL T PARPN *       BRTP4       010VISTA          000000000016900000000170000000001625000000000000000000168000096870000
0202LOTE PADRAO                   BRASIL T PARON *       BRTP3       010VISTA          000000000016600000000180000000001630000000000000000000180000022069500
0202LOTE PADRAO                   KLABIN S/A  PN         KLBN4       010VISTA          000000000001100000000011000000000110000000000000000000011000000100100
0202LOTE PADRAO                   ACESITA     PN *       ACES4       010VISTA          000000000000650000000006800000000064000000000000000000006700427994000
0202LOTE PADRAO                   PETROBRAS   PN         PETR4       010VISTA          000000000048400000000496000000004840000000000000000000496000000114700
0202LOTE PADRAO                   ELETROBRAS  PNB*       ELET6       010VISTA          000000000034100000000350000000003350000000000000000000350000077990800
0202LOTE PADRAO                   PETROBRAS   ON         PETR3       010VISTA          000000000050200000000510000000004880000000000000000000503000000040300
0202LOTE PADRAO                   COMGAS      PNA*       CGAS5       010VISTA          000000000085000000000900000000008000000000000000000000900000003056000
0202LOTE PADRAO                   SOUZA CRUZ  ON EJ      CRUZ3       010VISTA          000000000014000000000144000000001380000000000000000000141000000026100
0202LOTE PADRAO                   ELETROBRAS  ON *       ELET3       010VISTA          000000000038900000000400000000003750000000000000000000392000020300000
0202LOTE PADRAO                   CELESC      PNB        CLSC6       010VISTA          000000000000500000000005000000000048000000000000000000005000000411200
0202LOTE PADRAO                   BRADESCO    PN * EJ    BBDC4       010VISTA          000000000012250000000124000000001200000000000000000000123000290334000
0202LOTE PADRAO                   CESP        PN *       CESP4       010VISTA          000000000014900000000152000000001400000000000000000000152000020370000
0202LOTE PADRAO                   LIGHT       ON *       LIGH3       010VISTA          000000000122000000001220000000011550000000000000000001180000001332000
0202LOTE PADRAO                   TELESP CL PAPN *       TSPP4       010VISTA          000000000007000000000071000000000660000000000000000000071000249262000
0202LOTE PADRAO                   VALE R DOCE PNA        VALE5       010VISTA          000000000055500000000567000000005260000000000000000000567000000029800
0202LOTE PADRAO                   COPEL       PNB*       CPLE6       010VISTA          000000000017000000000171000000001600000000000000000000168000036011700
0202LOTE PADRAO                   VALE R DOCE ON         VALE3       010VISTA          000000000054600000000554000000005460000000000000000000550000000001200
0202LOTE PADRAO                   ARACRUZ     PNB        ARCZ6       010VISTA          000000000004200000000046000000000420000000000000000000045000000059400
0202LOTE PADRAO                   TELEMIG PARTPN *       TMCP4       010VISTA          000000000003500000000036000000000340000000000000000000035000183087000
0202LOTE PADRAO                   BRASIL TELECPN *       BRTO4       010VISTA          000000000012000000000125000000001180000000000000000000125000099973500
0202LOTE PADRAO                   SABESP      ON *       SBSP3       010VISTA          000000000124000000001255000000012010000000000000000001247000002172000
0202LOTE PADRAO                   BRASKEM     PNA*       BRKM5       010VISTA          000000000505000000005250000000048000000000000000000004920000000365500
0202LOTE PADRAO                   EMBRAER     PN EJ      EMBR4       010VISTA          000000000013500000000137500000001330000000000000000000137500000043900
0202LOTE PADRAO                   TELESP      PN * EJ    TLPP4       010VISTA          000000000029500000000309000000002850000000000000000000298000012163500
0202LOTE PADRAO                   EMBRAER     ON EJ      EMBR3       010VISTA          000000000012400000000128000000001210000000000000000000128000000034500
0202LOTE PADRAO                   AMBEV       PN *       AMBV4       010VISTA          000000000459000000004590000000044500000000000000000004540000002119000
0202LOTE PADRAO                   USIMINAS    PNA        USIM5       010VISTA          000000000007200000000072000000000690000000000000000000072000000061600
0202LOTE PADRAO                   ELETROPAULO PN *       ELPL4       010VISTA          000000000063500000000650000000006200000000000000000000640000008036900
0202LOTE PADRAO                   TELE NORD CLPN *       TNEP4       010VISTA          000000000002800000000028000000000275000000000000000000028000152339000
0202LOTE PADRAO                   CEMIG       PN * EJ    CMIG4       010VISTA          000000000034600000000356000000003420000000000000000000356000083090900
0202LOTE PADRAO                   TELE CL SUL PN * EJ    TCSL4       010VISTA          000000000003100000000032700000000310000000000000000000032500141849000
0202LOTE PADRAO                   CEMIG       ON * EJ    CMIG3       010VISTA          000000000029200000000317000000002750000000000000000000315000003376200
0202LOTE PADRAO                   TELE CL SUL ON * EJ    TCSL3       010VISTA          000000000002700000000028000000000260000000000000000000028000055389000
0202LOTE PADRAO                   ITAUSA      PN         ITSA4       010VISTA          000000000002100000000021000000000210000000000000000000021000000277500
0202LOTE PADRAO                   V C P       PN *       VCPA4       010VISTA          000000000083400000000839000000008000000000000000000000830000003157600
0202LOTE PADRAO                   SID TUBARAO PN *       CSTB4       010VISTA          000000000020500000000205000000001910000000000000000000200000012000000
0202LOTE PADRAO                   BRADESPAR   PN *       BRAP4       010VISTA          000000000000700000000007300000000068000000000000000000007300456546000
0202LOTE PADRAO                   NET         PN         PLIM4       010VISTA          000000000000590000000006100000000057000000000000000000006000002031200
0202LOTE PADRAO                   TELE CTR OESPN * EJ    TCOC4       010VISTA          000000000004500000000046000000000440000000000000000000045000098338500
0202LOTE PADRAO                   TELEMAR N L PNA* EJ    TMAR5       010VISTA          000000000051250000000539000000005125000000000000000000532000022272700
0202LOTE PADRAO                   GERDAU      PN * EJ    GGBR4       010VISTA          000000000024500000000245000000002400000000000000000000245000015721300
0202LOTE PADRAO                   BRASIL      ON *       BBAS3       010VISTA          000000000009900000000103000000000940000000000000000000103000013008700
