00BDIN9999BOVESPA 99992002032020020320
0101IBOVESPA                      0141230138950141580000000000000000002002032000000020020320014090000000
0202LOTE PADRAO                   EMBRATEL PARPN *       EBTP4       010VISTA          000000000008600000000087000000000840000000000000000000086000105319000
0202LOTE PADRAO                   TRAN PAULISTPN * EJ    TRPL4       010VISTA          000000000007600000000079000000000750000000000000000000079000009353400
0202LOTE PADRAO                   EMBRATEL PARON *       EBTP3       010VISTA          000000000010800000000108000000001010000000000000000000105000022201500
0202LOTE PADRAO                   TELEMAR     PN * EJ    TNLP4       010VISTA          000000000032700000000328000000003180000000000000000000326000206462000
0202LOTE PADRAO                   ITAUBANCO   PN * EJ    ITAU4       010VISTA          000000000194000000001950000000019250000000000000000001925000010816400
0202LOTE PADRAO                   TELEMAR     ON * EJ    TNLP3       010VISTA          000000000028500000000299000000002800000000000000000000298000007026600
0202LOTE PADRAO                   SID NACIONALON *       CSNA3       010VISTA          000000000047900000000479000000004700000000000000000000474000008442600
0202LOTE PADRAO                   TELE LEST CLPN *       TLCP4       010VISTA          000000000000890000000009200000000087000000000000000000009200128426000
0202LOTE PADRAO                   CRT CELULAR PNA* EJ    CRTP5       010VISTA          000000000480000000004900000000047000000000000000000004849000000410900
0202LOTE PADRAO                   IPIRANGA PETPN *       PTIP4       010VISTA          000000000014000000000141000000001380000000000000000000139000011869500
0202LOTE PADRAO                   BRASIL T PARPN *       BRTP4       010VISTA          000000000019800000000200000000001930000000000000000000196000029149000
0202LOTE PADRAO                   BRASIL T PARON *       BRTP3       010VISTA          000000000019800000000198000000001925000000000000000000198000004568000
0202LOTE PADRAO                   KLABIN S/A  PN         KLBN4       010VISTA          000000000001270000000013000000000124000000000000000000013000000026900
0202LOTE PADRAO                   ACESITA     PN *       ACES4       010VISTA          000000000000820000000008400000000081000000000000000000008400207562000
0202LOTE PADRAO                   PETROBRAS   PN         PETR4       010VISTA          000000000060300000000604000000005970000000000000000000597000000081700
0202LOTE PADRAO                   ELETROBRAS  PNB*       ELET6       010VISTA          000000000037800000000380000000003730000000000000000000377000044796500
0202LOTE PADRAO                   PETROBRAS   ON         PETR3       010VISTA          000000000063200000000632000000006190000000000000000000622000000033800
0202LOTE PADRAO                   COMGAS      PNA*       CGAS5       010VISTA          000000000092000000000920000000008800000000000000000000890000001360100
0202LOTE PADRAO                   SOUZA CRUZ  ON EJ      CRUZ3       010VISTA          000000000014800000000149000000001475000000000000000000148000000016300
0202LOTE PADRAO                   ELETROBRAS  ON *       ELET3       010VISTA          000000000041500000000422000000004150000000000000000000420000017045300
0202LOTE PADRAO                   CELESC      PNB        CLSC6       010VISTA          000000000000590000000006000000000058000000000000000000006000000131300
0202LOTE PADRAO                   BRADESCO    PN * EJ    BBDC4       010VISTA          000000000014400000000147500000001440000000000000000000146000201757000
0202LOTE PADRAO                   CESP        PN *       CESP4       010VISTA          000000000016800000000174000000001680000000000000000000173000006443900
0202LOTE PADRAO                   LIGHT       ON *       LIGH3       010VISTA          000000000125900000001260000000012350000000000000000001239000000388200
0202LOTE PADRAO                   TELESP CL PAPN *       TSPP4       010VISTA          000000000006200000000062000000000580000000000000000000060000464271000
0202LOTE PADRAO                   VALE R DOCE PNA        VALE5       010VISTA          000000000059000000000607000000005900000000000000000000602000000048700
0202LOTE PADRAO                   COPEL       PNB*       CPLE6       010VISTA          000000000018400000000184000000001760000000000000000000177500070497700
0202LOTE PADRAO                   VALE R DOCE ON         VALE3       010VISTA          000000000059600000000612000000005950000000000000000000609000000024400
0202LOTE PADRAO                   ARACRUZ     PNB        ARCZ6       010VISTA          000000000004700000000047000000000450000000000000000000045000000030400
0202LOTE PADRAO                   TELEMIG PARTPN *       TMCP4       010VISTA          000000000003600000000036000000000352000000000000000000035000068077000
0202LOTE PADRAO                   BRASIL TELECPN *       BRTO4       010VISTA          000000000014250000000142500000001375000000000000000000139000079873100
0202LOTE PADRAO                   SABESP      ON *       SBSP3       010VISTA          000000000141000000001410000000013600000000000000000001386000002879300
0202LOTE PADRAO                   BRASKEM     PNA*       BRKM5       010VISTA          000000000572000000005899000000057000000000000000000005899000000098900
0202LOTE PADRAO                   EMBRAER     PN EJ      EMBR4       010VISTA          000000000013300000000135000000001310000000000000000000134000000060600
0202LOTE PADRAO                   TELESP      PN * EJ    TLPP4       010VISTA          000000000036000000000365000000003600000000000000000000362000014269700
0202LOTE PADRAO                   EMBRAER     ON EJ      EMBR3       010VISTA          000000000012300000000126000000001230000000000000000000126000000022400
0202LOTE PADRAO                   AMBEV       PN *       AMBV4       010VISTA          000000000471000000004710000000045950000000000000000004630000001294000
0202LOTE PADRAO                   USIMINAS    PNA        USIM5       010VISTA          000000000007900000000080000000000780000000000000000000080000000059900
0202LOTE PADRAO                   ELETROPAULO PN *       ELPL4       010VISTA          000000000070900000000745000000007090000000000000000000744000008639700
0202LOTE PADRAO                   TELE NORD CLPN *       TNEP4       010VISTA          000000000003200000000032500000000310000000000000000000032000088137600
0202LOTE PADRAO                   CEMIG       PN * EJ    CMIG4       010VISTA          000000000038500000000385000000003630000000000000000000369000051593600
0202LOTE PADRAO                   TELE CL SUL PN * EJ    TCSL4       010VISTA          000000000003540000000035600000000340000000000000000000034000073822800
0202LOTE PADRAO                   TRACTEBEL   ON *       TBLE3       010VISTA          000000000004100000000042000000000400000000000000000000042000070612100
0202LOTE PADRAO                   CEMIG       ON * EJ    CMIG3       010VISTA          000000000033500000000340000000003300000000000000000000333000000842800
0202LOTE PADRAO                   TELE CL SUL ON * EJ    TCSL3       010VISTA          000000000003000000000030000000000290000000000000000000030000019320000
0202LOTE PADRAO                   ITAUSA      PN         ITSA4       010VISTA          000000000002300000000023000000000230000000000000000000023000000700200
0202LOTE PADRAO                   V C P       PN *       VCPA4       010VISTA          000000000091500000000915000000009050000000000000000000912000001289000
0202LOTE PADRAO                   SID TUBARAO PN *       CSTB4       010VISTA          000000000025800000000260000000002510000000000000000000253000003630000
0202LOTE PADRAO                   BRADESPAR   PN *       BRAP4       010VISTA          000000000000790000000008200000000078000000000000000000008200235195000
0202LOTE PADRAO                   NET         PN         PLIM4       010VISTA          000000000000520000000005300000000049000000000000000000005200003775400
0202LOTE PADRAO                   TELE CTR OESPN * EJ    TCOC4       010VISTA          000000000004900000000050000000000480000000000000000000049000075677100
0202LOTE PADRAO                   TELEMAR N L PNA* EJ    TMAR5       010VISTA          000000000058000000000580000000005625000000000000000000566000011435200
0202LOTE PADRAO                   GERDAU      PN * EJ    GGBR4       010VISTA          000000000028800000000291000000002880000000000000000000290000008967100
0202LOTE PADRAO                   BRASIL      ON *       BBAS3       010VISTA          000000000011900000000125000000001190000000000000000000125000006962000
