00BDIN9999BOVESPA 99992002082320020823
0101IBOVESPA                      0097100095940097610000000000000000002002082300000020020823009676000000
0202LOTE PADRAO                   EMBRATEL PARPN *       EBTP4       010VISTA          000000000001800000000020000000000180000000000000000000020000420048000
0202LOTE PADRAO                   EMBRATEL PARON *       EBTP3       010VISTA          000000000002300000000026000000000230000000000000000000026000090793400
0202LOTE PADRAO                   TRAN PAULISTPN * EJ    TRPL4       010VISTA          000000000005800000000059000000000550000000000000000000057900022381300
0202LOTE PADRAO                   ITAUBANCO   PN * EJ    ITAU4       010VISTA          000000000130000000001310000000012700000000000000000001295000010015200
0202LOTE PADRAO                   TELEMAR     ON * EJ    TNLP3       010VISTA          000000000017600000000183000000001730000000000000000000179000018701700
0202LOTE PADRAO                   SID NACIONALON *       CSNA3       010VISTA          000000000041300000000415000000004070000000000000000000415000004319100
0202LOTE PADRAO                   TELE LEST CLPN *       TLCP4       010VISTA          000000000000410000000004200000000039000000000000000000003900090531100
0202LOTE PADRAO                   CRT CELULAR PNA* EJ    CRTP5       010VISTA          000000000370000000003750000000036500000000000000000003749000000342000
0202LOTE PADRAO                   IPIRANGA PETPN *       PTIP4       010VISTA          000000000011900000000119000000001130000000000000000000115000003907500
0202LOTE PADRAO                   BRASIL T PARPN *       BRTP4       010VISTA          000000000017300000000173000000001650000000000000000000171000201444000
0202LOTE PADRAO                   BRASIL T PARON *       BRTP3       010VISTA          000000000014000000000143000000001270000000000000000000135000019021900
0202LOTE PADRAO                   KLABIN S/A  PN         KLBN4       010VISTA          000000000000880000000008800000000083000000000000000000008400000030000
0202LOTE PADRAO                   ACESITA     PN *       ACES4       010VISTA          000000000000700000000007200000000068000000000000000000006800089725100
0202LOTE PADRAO                   PETROBRAS   PN         PETR4       010VISTA          000000000041300000000418000000004080000000000000000000412000000058000
0202LOTE PADRAO                   ELETROBRAS  PNB*       ELET6       010VISTA          000000000019300000000198000000001910000000000000000000193000045045400
0202LOTE PADRAO                   PETROBRAS   ON         PETR3       010VISTA          000000000045500000000460000000004490000000000000000000451000000021900
0202LOTE PADRAO                   COMGAS      PNA*       CGAS5       010VISTA          000000000048800000000502500000004800000000000000000000484000000751400
0202LOTE PADRAO                   SOUZA CRUZ  ON EJ      CRUZ3       010VISTA          000000000014100000000142000000001360000000000000000000140000000011600
0202LOTE PADRAO                   ELETROBRAS  ON *       ELET3       010VISTA          000000000020600000000209000000002010000000000000000000208000010470000
0202LOTE PADRAO                   CELESC      PNB        CLSC6       010VISTA          000000000000570000000005900000000056000000000000000000005900000182800
0202LOTE PADRAO                   BRADESCO    PN * EJ    BBDC4       010VISTA          000000000009300000000093000000000910000000000000000000092500153545000
0202LOTE PADRAO                   CESP        PN *       CESP4       010VISTA          000000000006700000000069000000000660000000000000000000067000007622500
0202LOTE PADRAO                   LIGHT       ON *       LIGH3       010VISTA          000000000076200000000762000000007250000000000000000000728000000169300
0202LOTE PADRAO                   TELESP CL PAPN *       TSPP4       010VISTA          000000000003600000000036900000000350000000000000000000036000362693000
0202LOTE PADRAO                   VALE R DOCE PNA        VALE5       010VISTA          000000000071500000000720000000007050000000000000000000720000000011700
0202LOTE PADRAO                   COPEL       PNB*       CPLE6       010VISTA          000000000009400000000100000000000940000000000000000000097000031433700
0202LOTE PADRAO                   VALE R DOCE ON         VALE3       010VISTA          000000000078500000000787000000007750000000000000000000778000000002200
0202LOTE PADRAO                   ARACRUZ     PNB        ARCZ6       010VISTA          000000000005500000000056000000000540000000000000000000055000000063000
0202LOTE PADRAO                   TELEMIG PARTPN *       TMCP4       010VISTA          000000000002800000000028000000000275000000000000000000027500236132000
0202LOTE PADRAO                   BRASIL TELECPN *       BRTO4       010VISTA          000000000010900000000109000000001050000000000000000000106000151396000
0202LOTE PADRAO                   SABESP      ON *       SBSP3       010VISTA          000000000080700000000807000000007600000000000000000000780000004391500
0202LOTE PADRAO                   BRASKEM     PNA*       BRKM5       010VISTA          000000000280000000002800000000027000000000000000000002740000000241400
0202LOTE PADRAO                   EMBRAER     PN EJ      EMBR4       010VISTA          000000000014000000000140000000001340000000000000000000136000000065200
0202LOTE PADRAO                   TELESP      PN * EJ    TLPP4       010VISTA          000000000032000000000320000000003150000000000000000000317000007706100
0202LOTE PADRAO                   EMBRAER     ON EJ      EMBR3       010VISTA          000000000012900000000129000000001240000000000000000000127000000015600
0202LOTE PADRAO                   AMBEV       PN *       AMBV4       010VISTA          000000000430000000004350000000042300000000000000000004280000002376100
0202LOTE PADRAO                   USIMINAS    PNA        USIM5       010VISTA          000000000005000000000051000000000490000000000000000000049000000144800
0202LOTE PADRAO                   ELETROPAULO PN *       ELPL4       010VISTA          000000000033200000000365000000003320000000000000000000359000007272300
0202LOTE PADRAO                   TELE NORD CLPN *       TNEP4       010VISTA          000000000002600000000026000000000250000000000000000000025000138411000
0202LOTE PADRAO                   CEMIG       PN * EJ    CMIG4       010VISTA          000000000024800000000254000000002430000000000000000000252000036623600
0202LOTE PADRAO                   TELE CL SUL PN * EJ    TCSL4       010VISTA          000000000002700000000027000000000254000000000000000000025600078119400
0202LOTE PADRAO                   TRACTEBEL   ON *       TBLE3       010VISTA          000000000004000000000041000000000400000000000000000000040000011880100
0202LOTE PADRAO                   CEMIG       ON * EJ    CMIG3       010VISTA          000000000023100000000231000000002230000000000000000000229000001155100
0202LOTE PADRAO                   TELE CL SUL ON * EJ    TCSL3       010VISTA          000000000002100000000021000000000200000000000000000000020000014997100
0202LOTE PADRAO                   ITAUSA      PN         ITSA4       010VISTA          000000000001600000000016000000000160000000000000000000016000000449100
0202LOTE PADRAO                   V C P       PN *       VCPA4       010VISTA          000000000107800000001078000000010200000000000000000001060000001595100
0202LOTE PADRAO                   SID TUBARAO PN *       CSTB4       010VISTA          000000000026100000000261000000002500000000000000000000256000014005200
0202LOTE PADRAO                   BRADESPAR   PN *       BRAP4       010VISTA          000000000000490000000004900000000047000000000000000000004700087978000
0202LOTE PADRAO                   NET         PN         PLIM4       010VISTA          000000000000420000000004200000000038000000000000000000003900001734600
0202LOTE PADRAO                   TELE CTR OESPN * EJ    TCOC4       010VISTA          000000000002800000000030000000000280000000000000000000029000184541000
0202LOTE PADRAO                   TELEMAR N L PNA* EJ    TMAR5       010VISTA          000000000040000000000415000000004000000000000000000000411000022372300
0202LOTE PADRAO                   GERDAU      PN * EJ    GGBR4       010VISTA          000000000032300000000327000000003180000000000000000000327000017719200
0202LOTE PADRAO                   BRASIL      ON *       BBAS3       010VISTA          000000000009900000000101000000000990000000000000000000100000005926000
