00BDIN9999BOVESPA 99992002081420020814
0101IBOVESPA                      0094610090170095870000000000000000002002081400000020020814009343000000
0202LOTE PADRAO                   EMBRATEL PARPN *       EBTP4       010VISTA          000000000001600000000016000000000152000000000000000000015500293432000
0202LOTE PADRAO                   EMBRATEL PARON *       EBTP3       010VISTA          000000000002200000000022000000000190000000000000000000020000045556500
0202LOTE PADRAO                   TRAN PAULISTPN * EJ    TRPL4       010VISTA          000000000005500000000055000000000510000000000000000000053000032934600
0202LOTE PADRAO                   ITAUBANCO   PN * EJ    ITAU4       010VISTA          000000000130000000001300000000011600000000000000000001250000034649400
0202LOTE PADRAO                   TELEMAR     ON * EJ    TNLP3       010VISTA          000000000016600000000178000000001610000000000000000000171000036416800
0202LOTE PADRAO                   SID NACIONALON *       CSNA3       010VISTA          000000000036800000000388000000003500000000000000000000364000032798800
0202LOTE PADRAO                   TELE LEST CLPN *       TLCP4       010VISTA          000000000000400000000004000000000038000000000000000000003800322446000
0202LOTE PADRAO                   CRT CELULAR PNA* EJ    CRTP5       010VISTA          000000000365000000003650000000029000000000000000000003550000000820500
0202LOTE PADRAO                   IPIRANGA PETPN *       PTIP4       010VISTA          000000000012000000000120000000001130000000000000000000113000002308000
0202LOTE PADRAO                   BRASIL T PARPN *       BRTP4       010VISTA          000000000017000000000171000000001600000000000000000000170000080620100
0202LOTE PADRAO                   BRASIL T PARON *       BRTP3       010VISTA          000000000012600000000128000000001160000000000000000000126000024658500
0202LOTE PADRAO                   KLABIN S/A  PN         KLBN4       010VISTA          000000000000900000000009000000000082000000000000000000008300000065100
0202LOTE PADRAO                   ACESITA     PN *       ACES4       010VISTA          000000000000670000000006900000000062000000000000000000006500335178000
0202LOTE PADRAO                   PETROBRAS   PN         PETR4       010VISTA          000000000041200000000416000000003960000000000000000000403000000173900
0202LOTE PADRAO                   ELETROBRAS  PNB*       ELET6       010VISTA          000000000021100000000215000000002010000000000000000000210000096800600
0202LOTE PADRAO                   PETROBRAS   ON         PETR3       010VISTA          000000000046000000000462000000004300000000000000000000443000000050500
0202LOTE PADRAO                   COMGAS      PNA*       CGAS5       010VISTA          000000000047100000000475000000004180000000000000000000438000002039300
0202LOTE PADRAO                   SOUZA CRUZ  ON EJ      CRUZ3       010VISTA          000000000014500000000145000000001380000000000000000000139000000015800
0202LOTE PADRAO                   ELETROBRAS  ON *       ELET3       010VISTA          000000000022500000000226000000002060000000000000000000220000028440100
0202LOTE PADRAO                   CELESC      PNB        CLSC6       010VISTA          000000000000540000000005500000000051000000000000000000005400000359800
0202LOTE PADRAO                   BRADESCO    PN * EJ    BBDC4       010VISTA          000000000008900000000090000000000840000000000000000000089000423099000
0202LOTE PADRAO                   CESP        PN *       CESP4       010VISTA          000000000007200000000072000000000620000000000000000000067100024908400
0202LOTE PADRAO                   LIGHT       ON *       LIGH3       010VISTA          000000000076500000000772000000006520000000000000000000712000000868300
0202LOTE PADRAO                   TELESP CL PAPN *       TSPP4       010VISTA          000000000003520000000035400000000340000000000000000000035000329220000
0202LOTE PADRAO                   VALE R DOCE PNA        VALE5       010VISTA          000000000070000000000710000000006950000000000000000000710000000025100
0202LOTE PADRAO                   COPEL       PNB*       CPLE6       010VISTA          000000000009500000000095000000000900000000000000000000094000094694800
0202LOTE PADRAO                   VALE R DOCE ON         VALE3       010VISTA          000000000077000000000785000000007550000000000000000000780000000009100
0202LOTE PADRAO                   ARACRUZ     PNB        ARCZ6       010VISTA          000000000005600000000056000000000540000000000000000000055000000106900
0202LOTE PADRAO                   TELEMIG PARTPN *       TMCP4       010VISTA          000000000003100000000031000000000281000000000000000000030000206694000
0202LOTE PADRAO                   BRASIL TELECPN *       BRTO4       010VISTA          000000000010900000000109000000001000000000000000000000108000110497000
0202LOTE PADRAO                   SABESP      ON *       SBSP3       010VISTA          000000000085400000000855000000008100000000000000000000830000003453300
0202LOTE PADRAO                   BRASKEM     PNA*       BRKM5       010VISTA          000000000344600000003450000000031200000000000000000003175000000327400
0202LOTE PADRAO                   EMBRAER     PN EJ      EMBR4       010VISTA          000000000013500000000135000000001210000000000000000000125000000113400
0202LOTE PADRAO                   TELESP      PN * EJ    TLPP4       010VISTA          000000000032600000000326000000002910000000000000000000321000021803900
0202LOTE PADRAO                   EMBRAER     ON EJ      EMBR3       010VISTA          000000000012000000000120000000001100000000000000000000111000000046100
0202LOTE PADRAO                   AMBEV       PN *       AMBV4       010VISTA          000000000454200000004670000000044500000000000000000004520000005353500
0202LOTE PADRAO                   USIMINAS    PNA        USIM5       010VISTA          000000000005800000000059000000000520000000000000000000055000000096500
0202LOTE PADRAO                   ELETROPAULO PN *       ELPL4       010VISTA          000000000028100000000281000000002400000000000000000000257500016712600
0202LOTE PADRAO                   TELE NORD CLPN *       TNEP4       010VISTA          000000000002400000000024000000000225000000000000000000023000259822000
0202LOTE PADRAO                   CEMIG       PN * EJ    CMIG4       010VISTA          000000000024700000000248000000002210000000000000000000233000070974300
0202LOTE PADRAO                   TELE CL SUL PN * EJ    TCSL4       010VISTA          000000000002500000000025600000000225000000000000000000024000172030000
0202LOTE PADRAO                   TRACTEBEL   ON *       TBLE3       010VISTA          000000000004250000000042500000000400000000000000000000040000015271000
0202LOTE PADRAO                   CEMIG       ON * EJ    CMIG3       010VISTA          000000000023500000000236000000002100000000000000000000210000002335100
0202LOTE PADRAO                   TELE CL SUL ON * EJ    TCSL3       010VISTA          000000000002100000000021000000000190000000000000000000020000051343300
0202LOTE PADRAO                   ITAUSA      PN         ITSA4       010VISTA          000000000001600000000016000000000148000000000000000000015500000668900
0202LOTE PADRAO                   V C P       PN *       VCPA4       010VISTA          000000000101900000001030000000009800000000000000000001000000004404000
0202LOTE PADRAO                   SID TUBARAO PN *       CSTB4       010VISTA          000000000026500000000265000000002520000000000000000000258000011701700
0202LOTE PADRAO                   BRADESPAR   PN *       BRAP4       010VISTA          000000000000490000000004900000000046000000000000000000004900520672000
0202LOTE PADRAO                   NET         PN         PLIM4       010VISTA          000000000000410000000004200000000036000000000000000000003900000521800
0202LOTE PADRAO                   TELE CTR OESPN * EJ    TCOC4       010VISTA          000000000003300000000033000000000260000000000000000000027700582436000
0202LOTE PADRAO                   TELEMAR N L PNA* EJ    TMAR5       010VISTA          000000000039000000000392500000003700000000000000000000385000046179100
0202LOTE PADRAO                   GERDAU      PN * EJ    GGBR4       010VISTA          000000000030800000000308000000002990000000000000000000303000018433300
0202LOTE PADRAO                   BRASIL      ON *       BBAS3       010VISTA          000000000009000000000090000000000810000000000000000000084000021781700
