00BDIN9999BOVESPA 99992002021920020219
0101IBOVESPA                      0131250129840132450000000000000000002002021900000020020219012992000000
0202LOTE PADRAO                   EMBRATEL PARPN *       EBTP4       010VISTA          000000000008250000000088000000000825000000000000000000084000232762000
0202LOTE PADRAO                   EMBRATEL PARON *       EBTP3       010VISTA          000000000010500000000106000000000990000000000000000000100000027962400
0202LOTE PADRAO                   TRAN PAULISTPN * EJ    TRPL4       010VISTA          000000000007200000000074000000000710000000000000000000073000014939500
0202LOTE PADRAO                   TELEMAR     PN * EJ    TNLP4       010VISTA          000000000032300000000331000000003230000000000000000000326000304787000
0202LOTE PADRAO                   ITAUBANCO   PN * EJ    ITAU4       010VISTA          000000000179800000001829000000017850000000000000000001785000007193400
0202LOTE PADRAO                   TELEMAR     ON * EJ    TNLP3       010VISTA          000000000028300000000290000000002800000000000000000000280000012737200
0202LOTE PADRAO                   SID NACIONALON *       CSNA3       010VISTA          000000000039000000000405000000003900000000000000000000395000022561700
0202LOTE PADRAO                   TELE LEST CLPN *       TLCP4       010VISTA          000000000000830000000008300000000080000000000000000000008000175100000
0202LOTE PADRAO                   CRT CELULAR PNA* EJ    CRTP5       010VISTA          000000000463000000004630000000044800000000000000000004480000000579200
0202LOTE PADRAO                   IPIRANGA PETPN *       PTIP4       010VISTA          000000000012900000000130000000001250000000000000000000125000000984900
0202LOTE PADRAO                   BRASIL T PARPN *       BRTP4       010VISTA          000000000017100000000173000000001680000000000000000000169000063079400
0202LOTE PADRAO                   BRASIL T PARON *       BRTP3       010VISTA          000000000017100000000178000000001660000000000000000000170000007220800
0202LOTE PADRAO                   KLABIN S/A  PN         KLBN4       010VISTA          000000000001100000000011000000000110000000000000000000011000000062800
0202LOTE PADRAO                   ACESITA     PN *       ACES4       010VISTA          000000000000690000000007000000000067000000000000000000006900159182000
0202LOTE PADRAO                   PETROBRAS   PN         PETR4       010VISTA          000000000049700000000505000000004930000000000000000000497000000094900
0202LOTE PADRAO                   ELETROBRAS  PNB*       ELET6       010VISTA          000000000033300000000343000000003260000000000000000000327000061065200
0202LOTE PADRAO                   PETROBRAS   ON         PETR3       010VISTA          000000000051000000000515000000005030000000000000000000510000000039100
0202LOTE PADRAO                   COMGAS      PNA*       CGAS5       010VISTA          000000000089400000000894000000008650000000000000000000865000000404500
0202LOTE PADRAO                   SOUZA CRUZ  ON EJ      CRUZ3       010VISTA          000000000014100000000144000000001400000000000000000000140000000017300
0202LOTE PADRAO                   ELETROBRAS  ON *       ELET3       010VISTA          000000000038200000000392000000003810000000000000000000381000033500500
0202LOTE PADRAO                   CELESC      PNB        CLSC6       010VISTA          000000000000500000000005400000000050000000000000000000005100000526400
0202LOTE PADRAO                   BRADESCO    PN * EJ    BBDC4       010VISTA          000000000012500000000128000000001250000000000000000000125000113552000
0202LOTE PADRAO                   CESP        PN *       CESP4       010VISTA          000000000015000000000151000000001440000000000000000000146000008103500
0202LOTE PADRAO                   LIGHT       ON *       LIGH3       010VISTA          000000000117000000001172000000011550000000000000000001155000001177400
0202LOTE PADRAO                   TELESP CL PAPN *       TSPP4       010VISTA          000000000007250000000072500000000690000000000000000000069600234064000
0202LOTE PADRAO                   VALE R DOCE PNA        VALE5       010VISTA          000000000057000000000585000000005660000000000000000000584000000057500
0202LOTE PADRAO                   COPEL       PNB*       CPLE6       010VISTA          000000000017600000000178000000001710000000000000000000171000055619000
0202LOTE PADRAO                   VALE R DOCE ON         VALE3       010VISTA          000000000056900000000583000000005690000000000000000000583000000022300
0202LOTE PADRAO                   ARACRUZ     PNB        ARCZ6       010VISTA          000000000004700000000047900000000440000000000000000000045000000102800
0202LOTE PADRAO                   TELEMIG PARTPN *       TMCP4       010VISTA          000000000003600000000036000000000350000000000000000000035000147305000
0202LOTE PADRAO                   BRASIL TELECPN *       BRTO4       010VISTA          000000000012500000000129000000001230000000000000000000123000035784400
0202LOTE PADRAO                   SABESP      ON *       SBSP3       010VISTA          000000000127000000001270000000012100000000000000000001210000001485600
0202LOTE PADRAO                   BRASKEM     PNA*       BRKM5       010VISTA          000000000502900000005090000000049000000000000000000004900000000083300
0202LOTE PADRAO                   EMBRAER     PN EJ      EMBR4       010VISTA          000000000015000000000151000000001470000000000000000000148000000063000
0202LOTE PADRAO                   TELESP      PN * EJ    TLPP4       010VISTA          000000000030200000000310000000003025000000000000000000305000005513800
0202LOTE PADRAO                   EMBRAER     ON EJ      EMBR3       010VISTA          000000000013400000000135000000001310000000000000000000131000000014800
0202LOTE PADRAO                   AMBEV       PN *       AMBV4       010VISTA          000000000475000000004750000000046150000000000000000004700000001540700
0202LOTE PADRAO                   USIMINAS    PNA        USIM5       010VISTA          000000000007400000000074000000000710000000000000000000072000000029600
0202LOTE PADRAO                   ELETROPAULO PN *       ELPL4       010VISTA          000000000066200000000675000000006550000000000000000000655000004831500
0202LOTE PADRAO                   TELE NORD CLPN *       TNEP4       010VISTA          000000000002700000000028000000000270000000000000000000027000098464800
0202LOTE PADRAO                   CEMIG       PN * EJ    CMIG4       010VISTA          000000000035000000000355000000003470000000000000000000347000051596300
0202LOTE PADRAO                   TELE CL SUL PN * EJ    TCSL4       010VISTA          000000000003100000000032000000000300000000000000000000030000030956300
0202LOTE PADRAO                   CEMIG       ON * EJ    CMIG3       010VISTA          000000000031800000000318000000003100000000000000000000310000000398800
0202LOTE PADRAO                   TELE CL SUL ON * EJ    TCSL3       010VISTA          000000000002800000000028000000000270000000000000000000027000045648300
0202LOTE PADRAO                   ITAUSA      PN         ITSA4       010VISTA          000000000002100000000022000000000210000000000000000000021000000491300
0202LOTE PADRAO                   V C P       PN *       VCPA4       010VISTA          000000000088500000000885000000008650000000000000000000865000000685800
0202LOTE PADRAO                   SID TUBARAO PN *       CSTB4       010VISTA          000000000021300000000216000000002110000000000000000000212500007432100
0202LOTE PADRAO                   BRADESPAR   PN *       BRAP4       010VISTA          000000000000720000000007300000000070000000000000000000007000142765000
0202LOTE PADRAO                   NET         PN         PLIM4       010VISTA          000000000000610000000006500000000061000000000000000000006300000980000
0202LOTE PADRAO                   TELE CTR OESPN * EJ    TCOC4       010VISTA          000000000004700000000047000000000460000000000000000000046000040387500
0202LOTE PADRAO                   TELEMAR N L PNA* EJ    TMAR5       010VISTA          000000000055000000000560000000005450000000000000000000550000024085000
0202LOTE PADRAO                   GERDAU      PN * EJ    GGBR4       010VISTA          000000000025600000000263000000002550000000000000000000259000010623600
0202LOTE PADRAO                   BRASIL      ON *       BBAS3       010VISTA          000000000010100000000101000000000980000000000000000000098000002749500
