00BDIN9999BOVESPA 99992002072420020724
0101IBOVESPA                      0097390094230099730000000000000000002002072400000020020724009937000000
0202LOTE PADRAO                   EMBRATEL PARPN *       EBTP4       010VISTA          000000000001500000000017400000000140000000000000000000017300601566000
0202LOTE PADRAO                   TRAN PAULISTPN * EJ    TRPL4       010VISTA          000000000004900000000055000000000490000000000000000000055000010729300
0202LOTE PADRAO                   EMBRATEL PARON *       EBTP3       010VISTA          000000000002500000000029800000000230000000000000000000029800043877300
0202LOTE PADRAO                   TELEMAR     PN * EJ    TNLP4       010VISTA          000000000022800000000241000000002240000000000000000000238000456201000
0202LOTE PADRAO                   ITAUBANCO   PN * EJ    ITAU4       010VISTA          000000000149000000001490000000014400000000000000000001460000037684300
0202LOTE PADRAO                   TELEMAR     ON * EJ    TNLP3       010VISTA          000000000018300000000188000000001760000000000000000000188000037485200
0202LOTE PADRAO                   SID NACIONALON *       CSNA3       010VISTA          000000000047000000000474000000004370000000000000000000473000025036400
0202LOTE PADRAO                   TELE LEST CLPN *       TLCP4       010VISTA          000000000000380000000004300000000037000000000000000000004200234381000
0202LOTE PADRAO                   CRT CELULAR PNA* EJ    CRTP5       010VISTA          000000000375000000004090000000035100000000000000000003898000000474900
0202LOTE PADRAO                   IPIRANGA PETPN *       PTIP4       010VISTA          000000000011500000000123000000001150000000000000000000123000000481000
0202LOTE PADRAO                   BRASIL T PARPN *       BRTP4       010VISTA          000000000014400000000152500000001440000000000000000000150000110732000
0202LOTE PADRAO                   BRASIL T PARON *       BRTP3       010VISTA          000000000012700000000130000000001250000000000000000000130000016545200
0202LOTE PADRAO                   KLABIN S/A  PN         KLBN4       010VISTA          000000000000800000000008600000000080000000000000000000008600000014500
0202LOTE PADRAO                   ACESITA     PN *       ACES4       010VISTA          000000000000590000000006100000000058000000000000000000006100223257000
0202LOTE PADRAO                   PETROBRAS   PN         PETR4       010VISTA          000000000039000000000422000000003870000000000000000000419000000204500
0202LOTE PADRAO                   ELETROBRAS  PNB*       ELET6       010VISTA          000000000020500000000221000000001980000000000000000000219000056582900
0202LOTE PADRAO                   PETROBRAS   ON         PETR3       010VISTA          000000000041000000000447000000004050000000000000000000442000000064300
0202LOTE PADRAO                   COMGAS      PNA*       CGAS5       010VISTA          000000000048750000000510000000004650000000000000000000505000000652600
0202LOTE PADRAO                   SOUZA CRUZ  ON EJ      CRUZ3       010VISTA          000000000014600000000151000000001450000000000000000000149000000037600
0202LOTE PADRAO                   ELETROBRAS  ON *       ELET3       010VISTA          000000000021800000000239000000002180000000000000000000235000016637500
0202LOTE PADRAO                   CELESC      PNB        CLSC6       010VISTA          000000000000530000000005400000000052000000000000000000005300000290500
0202LOTE PADRAO                   BRADESCO    PN * EJ    BBDC4       010VISTA          000000000010100000000103000000000980000000000000000000103000452363000
0202LOTE PADRAO                   CESP        PN *       CESP4       010VISTA          000000000007000000000076000000000680000000000000000000076000010638100
0202LOTE PADRAO                   LIGHT       ON *       LIGH3       010VISTA          000000000074000000000800000000007200000000000000000000760000000253600
0202LOTE PADRAO                   TELESP CL PAPN *       TSPP4       010VISTA          000000000003270000000034000000000310000000000000000000033000259752000
0202LOTE PADRAO                   VALE R DOCE PNA        VALE5       010VISTA          000000000067000000000690000000006650000000000000000000690000000038200
0202LOTE PADRAO                   COPEL       PNB*       CPLE6       010VISTA          000000000010100000000108000000001000000000000000000000106000035874600
0202LOTE PADRAO                   VALE R DOCE ON         VALE3       010VISTA          000000000075000000000750000000007450000000000000000000745000000012500
0202LOTE PADRAO                   ARACRUZ     PNB        ARCZ6       010VISTA          000000000005000000000054000000000490000000000000000000053000000035800
0202LOTE PADRAO                   TELEMIG PARTPN *       TMCP4       010VISTA          000000000003000000000031000000000270000000000000000000030000094817700
0202LOTE PADRAO                   BRASIL TELECPN *       BRTO4       010VISTA          000000000009600000000101000000000950000000000000000000101000088348700
0202LOTE PADRAO                   SABESP      ON *       SBSP3       010VISTA          000000000091700000000925000000008900000000000000000000915000002649500
0202LOTE PADRAO                   BRASKEM     PNA*       BRKM5       010VISTA          000000000373500000003850000000037000000000000000000003783000000114000
0202LOTE PADRAO                   EMBRAER     PN EJ      EMBR4       010VISTA          000000000014000000000141000000001300000000000000000000135000000139100
0202LOTE PADRAO                   TELESP      PN * EJ    TLPP4       010VISTA          000000000031300000000327000000003100000000000000000000327000016173700
0202LOTE PADRAO                   EMBRAER     ON EJ      EMBR3       010VISTA          000000000012300000000128000000001200000000000000000000126000000016000
0202LOTE PADRAO                   AMBEV       PN *       AMBV4       010VISTA          000000000420000000004349000000041600000000000000000004330000002284700
0202LOTE PADRAO                   USIMINAS    PNA        USIM5       010VISTA          000000000005600000000060000000000540000000000000000000060000000051600
0202LOTE PADRAO                   ELETROPAULO PN *       ELPL4       010VISTA          000000000034700000000359000000003250000000000000000000358000005690600
0202LOTE PADRAO                   TELE NORD CLPN *       TNEP4       010VISTA          000000000002300000000025000000000230000000000000000000025000081729100
0202LOTE PADRAO                   CEMIG       PN * EJ    CMIG4       010VISTA          000000000027300000000280000000002650000000000000000000276000040001800
0202LOTE PADRAO                   TELE CL SUL PN * EJ    TCSL4       010VISTA          000000000002700000000030000000000270000000000000000000030000060467900
0202LOTE PADRAO                   TRACTEBEL   ON *       TBLE3       010VISTA          000000000004000000000042500000000398000000000000000000042000014055300
0202LOTE PADRAO                   CEMIG       ON * EJ    CMIG3       010VISTA          000000000026400000000274000000002640000000000000000000271000000367700
0202LOTE PADRAO                   TELE CL SUL ON * EJ    TCSL3       010VISTA          000000000002100000000024000000000210000000000000000000024000025643200
0202LOTE PADRAO                   ITAUSA      PN         ITSA4       010VISTA          000000000001750000000017600000000170000000000000000000017600000314500
0202LOTE PADRAO                   V C P       PN *       VCPA4       010VISTA          000000000092000000000943000000009150000000000000000000920000004580100
0202LOTE PADRAO                   SID TUBARAO PN *       CSTB4       010VISTA          000000000026400000000270000000002610000000000000000000270000006361000
0202LOTE PADRAO                   BRADESPAR   PN *       BRAP4       010VISTA          000000000000460000000005000000000045000000000000000000005000255470000
0202LOTE PADRAO                   NET         PN         PLIM4       010VISTA          000000000001100000000012600000000110000000000000000000011000000302900
0202LOTE PADRAO                   TELE CTR OESPN * EJ    TCOC4       010VISTA          000000000003800000000040000000000375000000000000000000039000082589000
0202LOTE PADRAO                   TELEMAR N L PNA* EJ    TMAR5       010VISTA          000000000041300000000426000000004120000000000000000000420000024426100
0202LOTE PADRAO                   GERDAU      PN * EJ    GGBR4       010VISTA          000000000027600000000280000000002650000000000000000000279000009537600
0202LOTE PADRAO                   BRASIL      ON *       BBAS3       010VISTA          000000000009600000000099000000000930000000000000000000099000004975900
