00BDIN9999BOVESPA 99992002012920020129
0101IBOVESPA                      0130100124760131820000000000000000002002012900000020020129012501000000
0202LOTE PADRAO                   EMBRATEL PARPN *       EBTP4       010VISTA          000000000008000000000095000000000800000000000000000000081000218382000
0202LOTE PADRAO                   EMBRATEL PARON *       EBTP3       010VISTA          000000000011000000000111000000000960000000000000000000098000074328100
0202LOTE PADRAO                   TRAN PAULISTPN * EJ    TRPL4       010VISTA          000000000006800000000070000000000670000000000000000000068000031091000
0202LOTE PADRAO                   TELEMAR     PN * EJ    TNLP4       010VISTA          000000000033800000000343000000003180000000000000000000320000365298000
0202LOTE PADRAO                   ITAUBANCO   PN * EJ    ITAU4       010VISTA          000000000175500000001760000000017190000000000000000001719000013996100
0202LOTE PADRAO                   TELEMAR     ON * EJ    TNLP3       010VISTA          000000000029100000000296000000002750000000000000000000280000007373300
0202LOTE PADRAO                   SID NACIONALON *       CSNA3       010VISTA          000000000039500000000395000000003810000000000000000000381000010839500
0202LOTE PADRAO                   TELE LEST CLPN *       TLCP4       010VISTA          000000000000870000000008900000000083000000000000000000008800265878000
0202LOTE PADRAO                   CRT CELULAR PNA* EJ    CRTP5       010VISTA          000000000470000000004800000000044000000000000000000004545000000234600
0202LOTE PADRAO                   IPIRANGA PETPN *       PTIP4       010VISTA          000000000012400000000125000000001200000000000000000000120000002543800
0202LOTE PADRAO                   BRASIL T PARPN *       BRTP4       010VISTA          000000000017600000000179000000001630000000000000000000167500080626000
0202LOTE PADRAO                   BRASIL T PARON *       BRTP3       010VISTA          000000000017100000000176000000001610000000000000000000165000013515700
0202LOTE PADRAO                   KLABIN S/A  PN         KLBN4       010VISTA          000000000001100000000012000000000110000000000000000000011000000043900
0202LOTE PADRAO                   ACESITA     PN *       ACES4       010VISTA          000000000000650000000006700000000061000000000000000000006300195580000
0202LOTE PADRAO                   PETROBRAS   PN         PETR4       010VISTA          000000000048600000000489000000004730000000000000000000477000000084300
0202LOTE PADRAO                   ELETROBRAS  PNB*       ELET6       010VISTA          000000000028500000000291000000002810000000000000000000285000061309600
0202LOTE PADRAO                   PETROBRAS   ON         PETR3       010VISTA          000000000050000000000501000000004860000000000000000000490000000027800
0202LOTE PADRAO                   COMGAS      PNA*       CGAS5       010VISTA          000000000088000000000880000000008200000000000000000000827000000490300
0202LOTE PADRAO                   SOUZA CRUZ  ON EJ      CRUZ3       010VISTA          000000000014750000000147000000001430000000000000000000143000000004200
0202LOTE PADRAO                   ELETROBRAS  ON *       ELET3       010VISTA          000000000032000000000327000000003130000000000000000000314000010680300
0202LOTE PADRAO                   CELESC      PNB        CLSC6       010VISTA          000000000000520000000005200000000049000000000000000000004900000190700
0202LOTE PADRAO                   BRADESCO    PN * EJ    BBDC4       010VISTA          000000000012200000000124000000001190000000000000000000120000139451000
0202LOTE PADRAO                   CESP        PN *       CESP4       010VISTA          000000000014500000000148000000001350000000000000000000141000010379200
0202LOTE PADRAO                   LIGHT       ON *       LIGH3       010VISTA          000000000117000000001200000000011300000000000000000001130000000531100
0202LOTE PADRAO                   TELESP CL PAPN *       TSPP4       010VISTA          000000000007400000000075400000000690000000000000000000070000214826000
0202LOTE PADRAO                   VALE R DOCE PNA        VALE5       010VISTA          000000000055400000000565000000005400000000000000000000543000000060200
0202LOTE PADRAO                   COPEL       PNB*       CPLE6       010VISTA          000000000015900000000160000000001500000000000000000000150000058369800
0202LOTE PADRAO                   VALE R DOCE ON         VALE3       010VISTA          000000000054200000000542000000005370000000000000000000541000000000000
0202LOTE PADRAO                   ARACRUZ     PNB        ARCZ6       010VISTA          000000000004100000000042000000000410000000000000000000041000000034300
0202LOTE PADRAO                   TELEMIG PARTPN *       TMCP4       010VISTA          000000000003800000000039000000000360000000000000000000036000081774800
0202LOTE PADRAO                   BRASIL TELECPN *       BRTO4       010VISTA          000000000012750000000130000000001180000000000000000000119000103989000
0202LOTE PADRAO                   SABESP      ON *       SBSP3       010VISTA          000000000134500000001345000000012300000000000000000001230000003147400
0202LOTE PADRAO                   BRASKEM     PNA*       BRKM5       010VISTA          000000000572000000005850000000052600000000000000000005660000000186900
0202LOTE PADRAO                   EMBRAER     PN EJ      EMBR4       010VISTA          000000000013100000000134000000001280000000000000000000128000000052300
0202LOTE PADRAO                   TELESP      PN * EJ    TLPP4       010VISTA          000000000029600000000303000000002880000000000000000000289000008139000
0202LOTE PADRAO                   EMBRAER     ON EJ      EMBR3       010VISTA          000000000012000000000124000000001180000000000000000000118000000027300
0202LOTE PADRAO                   AMBEV       PN *       AMBV4       010VISTA          000000000482000000004820000000046200000000000000000004620000001913400
0202LOTE PADRAO                   USIMINAS    PNA        USIM5       010VISTA          000000000006960000000072000000000670000000000000000000068000000043600
0202LOTE PADRAO                   ELETROPAULO PN *       ELPL4       010VISTA          000000000079500000000795000000007300000000000000000000750000001821500
0202LOTE PADRAO                   TELE NORD CLPN *       TNEP4       010VISTA          000000000003000000000032000000000280000000000000000000028000122712000
0202LOTE PADRAO                   CEMIG       PN * EJ    CMIG4       010VISTA          000000000033000000000332000000003180000000000000000000318000041597100
0202LOTE PADRAO                   TELE CL SUL PN * EJ    TCSL4       010VISTA          000000000003300000000034000000000310000000000000000000031000116969000
0202LOTE PADRAO                   CEMIG       ON * EJ    CMIG3       010VISTA          000000000029000000000291000000002790000000000000000000279000000714300
0202LOTE PADRAO                   TELE CL SUL ON * EJ    TCSL3       010VISTA          000000000002800000000029400000000260000000000000000000027000033926800
0202LOTE PADRAO                   ITAUSA      PN         ITSA4       010VISTA          000000000002200000000022000000000210000000000000000000021000000876200
0202LOTE PADRAO                   V C P       PN *       VCPA4       010VISTA          000000000079000000000790000000007820000000000000000000782000000965300
0202LOTE PADRAO                   SID TUBARAO PN *       CSTB4       010VISTA          000000000021700000000220000000002160000000000000000000216000003550000
0202LOTE PADRAO                   BRADESPAR   PN *       BRAP4       010VISTA          000000000000760000000007700000000072000000000000000000007300166766000
0202LOTE PADRAO                   NET         PN         PLIM4       010VISTA          000000000000660000000006700000000062000000000000000000006200001877100
0202LOTE PADRAO                   TELE CTR OESPN * EJ    TCOC4       010VISTA          000000000004800000000050000000000460000000000000000000046000083389200
0202LOTE PADRAO                   TELEMAR N L PNA* EJ    TMAR5       010VISTA          000000000056500000000584000000005370000000000000000000537000015602000
0202LOTE PADRAO                   GERDAU      PN * EJ    GGBR4       010VISTA          000000000024600000000250000000002410000000000000000000241000014386900
0202LOTE PADRAO                   BRASIL      ON *       BBAS3       010VISTA          000000000009500000000099000000000900000000000000000000090000007952500
