00BDIN9999BOVESPA 99992002011520020115
0101IBOVESPA                      0131310129370133620000000000000000002002011500000020020115013011000000
0202LOTE PADRAO                   EMBRATEL PARPN *       EBTP4       010VISTA          000000000010300000000106000000001000000000000000000000101000106013000
0202LOTE PADRAO                   EMBRATEL PARON *       EBTP3       010VISTA          000000000011800000000120000000001150000000000000000000116000025624800
0202LOTE PADRAO                   TRAN PAULISTPN * EJ    TRPL4       010VISTA          000000000006500000000069000000000650000000000000000000065000022505600
0202LOTE PADRAO                   TELEMAR     PN * EJ    TNLP4       010VISTA          000000000034500000000347000000003360000000000000000000336000293220000
0202LOTE PADRAO                   ITAUBANCO   PN * EJ    ITAU4       010VISTA          000000000173000000001780000000017200000000000000000001720000007744800
0202LOTE PADRAO                   TELEMAR     ON * EJ    TNLP3       010VISTA          000000000030300000000303000000002900000000000000000000295000013368000
0202LOTE PADRAO                   SID NACIONALON *       CSNA3       010VISTA          000000000043200000000440000000004220000000000000000000430000044378700
0202LOTE PADRAO                   TELE LEST CLPN *       TLCP4       010VISTA          000000000000900000000009300000000089000000000000000000009000104353000
0202LOTE PADRAO                   CRT CELULAR PNA* EJ    CRTP5       010VISTA          000000000510000000005100000000048490000000000000000004860000001303200
0202LOTE PADRAO                   IPIRANGA PETPN *       PTIP4       010VISTA          000000000012700000000134000000001250000000000000000000129000005376100
0202LOTE PADRAO                   BRASIL T PARPN *       BRTP4       010VISTA          000000000018400000000187000000001760000000000000000000178000082059800
0202LOTE PADRAO                   BRASIL T PARON *       BRTP3       010VISTA          000000000018200000000183000000001750000000000000000000176000011787600
0202LOTE PADRAO                   KLABIN S/A  PN         KLBN4       010VISTA          000000000001100000000011000000000110000000000000000000011000000050500
0202LOTE PADRAO                   ACESITA     PN *       ACES4       010VISTA          000000000000690000000007200000000068000000000000000000006900211713000
0202LOTE PADRAO                   PETROBRAS   PN         PETR4       010VISTA          000000000048200000000492000000004780000000000000000000480000000072600
0202LOTE PADRAO                   ELETROBRAS  PNB*       ELET6       010VISTA          000000000026000000000263000000002510000000000000000000253000088478100
0202LOTE PADRAO                   PETROBRAS   ON         PETR3       010VISTA          000000000050100000000501000000004900000000000000000000490000000019100
0202LOTE PADRAO                   COMGAS      PNA*       CGAS5       010VISTA          000000000087500000000899000000008650000000000000000000874000002366400
0202LOTE PADRAO                   SOUZA CRUZ  ON EJ      CRUZ3       010VISTA          000000000014400000000145000000001425000000000000000000143000000005400
0202LOTE PADRAO                   ELETROBRAS  ON *       ELET3       010VISTA          000000000030100000000301000000002860000000000000000000288000042016900
0202LOTE PADRAO                   CELESC      PNB        CLSC6       010VISTA          000000000000470000000004900000000046000000000000000000004800000397800
0202LOTE PADRAO                   BRADESCO    PN * EJ    BBDC4       010VISTA          000000000012300000000124000000001210000000000000000000123000159919000
0202LOTE PADRAO                   CESP        PN *       CESP4       010VISTA          000000000013200000000138000000001320000000000000000000134000016293400
0202LOTE PADRAO                   LIGHT       ON *       LIGH3       010VISTA          000000000123000000001250000000012000000000000000000001200000000762800
0202LOTE PADRAO                   TELESP CL PAPN *       TSPP4       010VISTA          000000000008000000000080000000000770000000000000000000078000215472000
0202LOTE PADRAO                   VALE R DOCE PNA        VALE5       010VISTA          000000000050800000000527000000005080000000000000000000508000000027700
0202LOTE PADRAO                   COPEL       PNB*       CPLE6       010VISTA          000000000015300000000157500000001510000000000000000000154000027975700
0202LOTE PADRAO                   VALE R DOCE ON         VALE3       010VISTA          000000000051500000000515000000005010000000000000000000503000000000600
0202LOTE PADRAO                   ARACRUZ     PNB        ARCZ6       010VISTA          000000000004400000000044000000000400000000000000000000041000000022200
0202LOTE PADRAO                   TELEMIG PARTPN *       TMCP4       010VISTA          000000000004100000000041000000000390000000000000000000040000074712000
0202LOTE PADRAO                   BRASIL TELECPN *       BRTO4       010VISTA          000000000012900000000130000000001230000000000000000000124000095438000
0202LOTE PADRAO                   SABESP      ON *       SBSP3       010VISTA          000000000127500000001280000000012120000000000000000001221000002277200
0202LOTE PADRAO                   BRASKEM     PNA*       BRKM5       010VISTA          000000000535000000005500000000053000000000000000000005330000000169800
0202LOTE PADRAO                   EMBRAER     PN EJ      EMBR4       010VISTA          000000000012800000000129000000001250000000000000000000125000000063100
0202LOTE PADRAO                   TELESP      PN * EJ    TLPP4       010VISTA          000000000030000000000300000000002860000000000000000000290000004392800
0202LOTE PADRAO                   EMBRAER     ON EJ      EMBR3       010VISTA          000000000012500000000125000000001190000000000000000000119000000023200
0202LOTE PADRAO                   AMBEV       PN *       AMBV4       010VISTA          000000000481000000004820000000047000000000000000000004730000001663000
0202LOTE PADRAO                   USIMINAS    PNA        USIM5       010VISTA          000000000006500000000069000000000650000000000000000000069000000035500
0202LOTE PADRAO                   ELETROPAULO PN *       ELPL4       010VISTA          000000000081000000000810000000007760000000000000000000799000001614900
0202LOTE PADRAO                   TELE NORD CLPN *       TNEP4       010VISTA          000000000003100000000031000000000296000000000000000000029000087937900
0202LOTE PADRAO                   CEMIG       PN * EJ    CMIG4       010VISTA          000000000030300000000312500000002960000000000000000000300000045370000
0202LOTE PADRAO                   TELE CL SUL PN * EJ    TCSL4       010VISTA          000000000003400000000035000000000320000000000000000000032500167883000
0202LOTE PADRAO                   CEMIG       ON * EJ    CMIG3       010VISTA          000000000029000000000290000000002750000000000000000000275000002160000
0202LOTE PADRAO                   TELE CL SUL ON * EJ    TCSL3       010VISTA          000000000002900000000030000000000275000000000000000000027000033318100
0202LOTE PADRAO                   ITAUSA      PN         ITSA4       010VISTA          000000000002200000000022000000000210000000000000000000021000000155300
0202LOTE PADRAO                   V C P       PN *       VCPA4       010VISTA          000000000083000000000830000000008200000000000000000000830000004862800
0202LOTE PADRAO                   SID TUBARAO PN *       CSTB4       010VISTA          000000000023000000000239000000002250000000000000000000228000003870000
0202LOTE PADRAO                   BRADESPAR   PN *       BRAP4       010VISTA          000000000000770000000008000000000075000000000000000000007600155449000
0202LOTE PADRAO                   NET         PN         PLIM4       010VISTA          000000000000780000000008000000000072000000000000000000007500000828900
0202LOTE PADRAO                   TELE CTR OESPN * EJ    TCOC4       010VISTA          000000000005000000000050000000000480000000000000000000049000177823000
0202LOTE PADRAO                   TELEMAR N L PNA* EJ    TMAR5       010VISTA          000000000058000000000590000000005600000000000000000000560000035379000
0202LOTE PADRAO                   GERDAU      PN * EJ    GGBR4       010VISTA          000000000026300000000263000000002500000000000000000000251000010201700
0202LOTE PADRAO                   BRASIL      ON *       BBAS3       010VISTA          000000000010000000000104000000001000000000000000000000100000005542200
