00BDIN9999BOVESPA 99992002061020020610
0101IBOVESPA                      0123060123040126000000000000000000002002061000000020020610012600000000
0202LOTE PADRAO                   EMBRATEL PARPN *       EBTP4       010VISTA          000000000004000000000041000000000400000000000000000000041000210963000
0202LOTE PADRAO                   TRAN PAULISTPN * EJ    TRPL4       010VISTA          000000000006400000000066000000000640000000000000000000065400006436000
0202LOTE PADRAO                   EMBRATEL PARON *       EBTP3       010VISTA          000000000005300000000057000000000520000000000000000000053000027644400
0202LOTE PADRAO                   TELEMAR     PN * EJ    TNLP4       010VISTA          000000000031500000000328000000003150000000000000000000327000295911000
0202LOTE PADRAO                   ITAUBANCO   PN * EJ    ITAU4       010VISTA          000000000163000000001710000000016300000000000000000001700000013019400
0202LOTE PADRAO                   TELEMAR     ON * EJ    TNLP3       010VISTA          000000000025750000000269000000002575000000000000000000269000010924700
0202LOTE PADRAO                   SID NACIONALON *       CSNA3       010VISTA          000000000045300000000470000000004530000000000000000000470000019687300
0202LOTE PADRAO                   TELE LEST CLPN *       TLCP4       010VISTA          000000000000700000000007000000000069000000000000000000006900079333900
0202LOTE PADRAO                   CRT CELULAR PNA* EJ    CRTP5       010VISTA          000000000410000000004150000000040000000000000000000004150000000154600
0202LOTE PADRAO                   IPIRANGA PETPN *       PTIP4       010VISTA          000000000013900000000142000000001360000000000000000000136000000474800
0202LOTE PADRAO                   BRASIL T PARPN *       BRTP4       010VISTA          000000000016300000000169000000001630000000000000000000168000042059300
0202LOTE PADRAO                   BRASIL T PARON *       BRTP3       010VISTA          000000000014600000000154000000001460000000000000000000153000011148800
0202LOTE PADRAO                   KLABIN S/A  PN         KLBN4       010VISTA          000000000001000000000010000000000099000000000000000000010000000058200
0202LOTE PADRAO                   ACESITA     PN *       ACES4       010VISTA          000000000000680000000006900000000067000000000000000000006900126815000
0202LOTE PADRAO                   PETROBRAS   PN         PETR4       010VISTA          000000000053200000000540000000005320000000000000000000537000000038900
0202LOTE PADRAO                   ELETROBRAS  PNB*       ELET6       010VISTA          000000000027600000000283000000002730000000000000000000281000037365500
0202LOTE PADRAO                   PETROBRAS   ON         PETR3       010VISTA          000000000057700000000580000000005750000000000000000000578000000032200
0202LOTE PADRAO                   COMGAS      PNA*       CGAS5       010VISTA          000000000068900000000718000000006890000000000000000000699000000121900
0202LOTE PADRAO                   SOUZA CRUZ  ON EJ      CRUZ3       010VISTA          000000000015800000000160000000001550000000000000000000157000000011600
0202LOTE PADRAO                   ELETROBRAS  ON *       ELET3       010VISTA          000000000031100000000318000000003100000000000000000000315000008882000
0202LOTE PADRAO                   CELESC      PNB        CLSC6       010VISTA          000000000000530000000005400000000053000000000000000000005400000176800
0202LOTE PADRAO                   BRADESCO    PN * EJ    BBDC4       010VISTA          000000000012400000000126000000001230000000000000000000125000200567000
0202LOTE PADRAO                   CESP        PN *       CESP4       010VISTA          000000000010000000000101000000000990000000000000000000099000002246300
0202LOTE PADRAO                   LIGHT       ON *       LIGH3       010VISTA          000000000092500000000930000000009200000000000000000000925000000111100
0202LOTE PADRAO                   TELESP CL PAPN *       TSPP4       010VISTA          000000000004960000000050000000000490000000000000000000049000110262000
0202LOTE PADRAO                   VALE R DOCE PNA        VALE5       010VISTA          000000000075400000000754000000007420000000000000000000744000000027000
0202LOTE PADRAO                   COPEL       PNB*       CPLE6       010VISTA          000000000013800000000141000000001350000000000000000000141000025532800
0202LOTE PADRAO                   VALE R DOCE ON         VALE3       010VISTA          000000000077500000000775000000007640000000000000000000765000000006400
0202LOTE PADRAO                   ARACRUZ     PNB        ARCZ6       010VISTA          000000000005500000000056000000000530000000000000000000056000000023200
0202LOTE PADRAO                   TELEMIG PARTPN *       TMCP4       010VISTA          000000000002900000000030000000000290000000000000000000029000059349600
0202LOTE PADRAO                   BRASIL TELECPN *       BRTO4       010VISTA          000000000012000000000120000000001175000000000000000000120000043849600
0202LOTE PADRAO                   SABESP      ON *       SBSP3       010VISTA          000000000110000000001110000000010900000000000000000001105000002506100
0202LOTE PADRAO                   BRASKEM     PNA*       BRKM5       010VISTA          000000000414900000004160000000041300000000000000000004130000000035300
0202LOTE PADRAO                   EMBRAER     PN EJ      EMBR4       010VISTA          000000000014500000000147500000001430000000000000000000147000000142400
0202LOTE PADRAO                   TELESP      PN * EJ    TLPP4       010VISTA          000000000034500000000356000000003400000000000000000000356000019295000
0202LOTE PADRAO                   EMBRAER     ON EJ      EMBR3       010VISTA          000000000013000000000131000000001290000000000000000000129000000009400
0202LOTE PADRAO                   AMBEV       PN *       AMBV4       010VISTA          000000000478000000004815000000047100000000000000000004779000002735800
0202LOTE PADRAO                   USIMINAS    PNA        USIM5       010VISTA          000000000007540000000076000000000730000000000000000000075000000036500
0202LOTE PADRAO                   ELETROPAULO PN *       ELPL4       010VISTA          000000000041200000000420000000003960000000000000000000420000012174500
0202LOTE PADRAO                   TELE NORD CLPN *       TNEP4       010VISTA          000000000002600000000026000000000250000000000000000000025000092759700
0202LOTE PADRAO                   CEMIG       PN * EJ    CMIG4       010VISTA          000000000033000000000332000000003200000000000000000000332000018665700
0202LOTE PADRAO                   TELE CL SUL PN * EJ    TCSL4       010VISTA          000000000003000000000030000000000300000000000000000000030000034593900
0202LOTE PADRAO                   TRACTEBEL   ON *       TBLE3       010VISTA          000000000003900000000041000000000390000000000000000000040000011765200
0202LOTE PADRAO                   CEMIG       ON * EJ    CMIG3       010VISTA          000000000029800000000298000000002950000000000000000000295000000315900
0202LOTE PADRAO                   TELE CL SUL ON * EJ    TCSL3       010VISTA          000000000002600000000026000000000250000000000000000000025200004990600
0202LOTE PADRAO                   ITAUSA      PN         ITSA4       010VISTA          000000000002000000000020000000000198000000000000000000020000000229900
0202LOTE PADRAO                   V C P       PN *       VCPA4       010VISTA          000000000104000000001060000000010350000000000000000001060000003106400
0202LOTE PADRAO                   SID TUBARAO PN *       CSTB4       010VISTA          000000000029100000000291000000002800000000000000000000290000006371100
0202LOTE PADRAO                   BRADESPAR   PN *       BRAP4       010VISTA          000000000000620000000006300000000061000000000000000000006100130278000
0202LOTE PADRAO                   NET         PN         PLIM4       010VISTA          000000000000380000000004000000000037000000000000000000003900001371200
0202LOTE PADRAO                   TELE CTR OESPN * EJ    TCOC4       010VISTA          000000000004200000000042000000000400000000000000000000041000081916600
0202LOTE PADRAO                   TELEMAR N L PNA* EJ    TMAR5       010VISTA          000000000052000000000542000000005200000000000000000000540000019263500
0202LOTE PADRAO                   GERDAU      PN * EJ    GGBR4       010VISTA          000000000031000000000320000000003100000000000000000000311000038566400
0202LOTE PADRAO                   BRASIL      ON *       BBAS3       010VISTA          000000000011800000000123000000001180000000000000000000118000005271100
