00BDIN9999BOVESPA 99992002112620021126
0101IBOVESPA                      0102430100840102830000000000000000002002112600000020021126010132000000
0202LOTE PADRAO                   EMBRATEL PARPN *       EBTP4       010VISTA          000000000002810000000029000000000260000000000000000000026000809526000
0202LOTE PADRAO                   TRAN PAULISTPN * EJ    TRPL4       010VISTA          000000000005200000000052000000000510000000000000000000051000012710000
0202LOTE PADRAO                   EMBRATEL PARON *       EBTP3       010VISTA          000000000003300000000036000000000320000000000000000000032000118797000
0202LOTE PADRAO                   TELEMAR     PN * EJ    TNLP4       010VISTA          000000000025800000000260000000002530000000000000000000256000270497000
0202LOTE PADRAO                   ITAUBANCO   PN * EJ    ITAU4       010VISTA          000000000149750000001500000000014850000000000000000001490000010358500
0202LOTE PADRAO                   TELEMAR     ON * EJ    TNLP3       010VISTA          000000000018600000000188000000001810000000000000000000183000013274700
0202LOTE PADRAO                   SID NACIONALON *       CSNA3       010VISTA          000000000044700000000452000000004450000000000000000000452000048305600
0202LOTE PADRAO                   TELE LEST CLPN *       TLCP4       010VISTA          000000000000430000000004300000000040000000000000000000004000124587000
0202LOTE PADRAO                   CRT CELULAR PNA* EJ    CRTP5       010VISTA          000000000319000000003190000000030500000000000000000003120000000435800
0202LOTE PADRAO                   IPIRANGA PETPN *       PTIP4       010VISTA          000000000007700000000077000000000730000000000000000000074000003375100
0202LOTE PADRAO                   BRASIL T PARPN *       BRTP4       010VISTA          000000000018250000000182500000001750000000000000000000176000036479000
0202LOTE PADRAO                   BRASIL T PARON *       BRTP3       010VISTA          000000000013600000000136000000001340000000000000000000134000004282400
0202LOTE PADRAO                   KLABIN S/A  PN         KLBN4       010VISTA          000000000001000000000010000000000099000000000000000000010000000012000
0202LOTE PADRAO                   ACESITA     PN *       ACES4       010VISTA          000000000000770000000007800000000075000000000000000000007600108810000
0202LOTE PADRAO                   PETROBRAS   PN         PETR4       010VISTA          000000000044500000000446000000004300000000000000000000432000000120200
0202LOTE PADRAO                   ELETROBRAS  PNB*       ELET6       010VISTA          000000000019300000000193000000001880000000000000000000191000048552300
0202LOTE PADRAO                   PETROBRAS   ON         PETR3       010VISTA          000000000047700000000480000000004660000000000000000000467000000041500
0202LOTE PADRAO                   COMGAS      PNA*       CGAS5       010VISTA          000000000055000000000550000000005420000000000000000000543000001675000
0202LOTE PADRAO                   SOUZA CRUZ  ON EJ      CRUZ3       010VISTA          000000000019000000000190000000001800000000000000000000180000000014400
0202LOTE PADRAO                   ELETROBRAS  ON *       ELET3       010VISTA          000000000019700000000198000000001920000000000000000000198000007097500
0202LOTE PADRAO                   CELESC      PNB        CLSC6       010VISTA          000000000000480000000004800000000046000000000000000000004600000138800
0202LOTE PADRAO                   BRADESCO    PN * EJ    BBDC4       010VISTA          000000000009250000000093000000000920000000000000000000093000232486000
0202LOTE PADRAO                   CESP        PN *       CESP4       010VISTA          000000000006000000000060000000000590000000000000000000059000007950000
0202LOTE PADRAO                   LIGHT       ON *       LIGH3       010VISTA          000000000052800000000528000000004810000000000000000000482000000263900
0202LOTE PADRAO                   TELESP CL PAPN *       TSPP4       010VISTA          000000000003900000000039800000000380000000000000000000038000319498000
0202LOTE PADRAO                   VALE R DOCE PNA        VALE5       010VISTA          000000000088700000000900000000008820000000000000000000887000000012200
0202LOTE PADRAO                   COPEL       PNB*       CPLE6       010VISTA          000000000007400000000074000000000710000000000000000000072000095342100
0202LOTE PADRAO                   VALE R DOCE ON         VALE3       010VISTA          000000000095000000000955000000009450000000000000000000955000000015400
0202LOTE PADRAO                   ARACRUZ     PNB        ARCZ6       010VISTA          000000000006000000000060000000000590000000000000000000059000000045000
0202LOTE PADRAO                   TELEMIG PARTPN *       TMCP4       010VISTA          000000000002900000000029000000000280000000000000000000028000091512500
0202LOTE PADRAO                   BRASIL TELECPN *       BRTO4       010VISTA          000000000011300000000114000000001100000000000000000000112000080180800
0202LOTE PADRAO                   SABESP      ON *       SBSP3       010VISTA          000000000080600000000810000000007760000000000000000000785000005630300
0202LOTE PADRAO                   BRASKEM     PNA*       BRKM5       010VISTA          000000000206300000002063000000020000000000000000000002000000000155600
0202LOTE PADRAO                   EMBRAER     PN EJ      EMBR4       010VISTA          000000000012800000000131000000001260000000000000000000130000000084900
0202LOTE PADRAO                   TELESP      PN * EJ    TLPP4       010VISTA          000000000036700000000376000000003670000000000000000000370000007151400
0202LOTE PADRAO                   EMBRAER     ON EJ      EMBR3       010VISTA          000000000011800000000120000000001160000000000000000000120000000010400
0202LOTE PADRAO                   AMBEV       PN *       AMBV4       010VISTA          000000000543000000005500000000054000000000000000000005420000003909400
0202LOTE PADRAO                   USIMINAS    PNA        USIM5       010VISTA          000000000006100000000063000000000600000000000000000000060000000106000
0202LOTE PADRAO                   ELETROPAULO PN *       ELPL4       010VISTA          000000000024500000000245000000002300000000000000000000235000004980300
0202LOTE PADRAO                   TELE NORD CLPN *       TNEP4       010VISTA          000000000002700000000027000000000260000000000000000000026000052606200
0202LOTE PADRAO                   CEMIG       PN * EJ    CMIG4       010VISTA          000000000023000000000231000000002240000000000000000000231000033363100
0202LOTE PADRAO                   TELE CL SUL PN * EJ    TCSL4       010VISTA          000000000002700000000027000000000260000000000000000000026000113865000
0202LOTE PADRAO                   TRACTEBEL   ON *       TBLE3       010VISTA          000000000003250000000032500000000310000000000000000000031000010777300
0202LOTE PADRAO                   CEMIG       ON * EJ    CMIG3       010VISTA          000000000020500000000208000000002010000000000000000000203000000332000
0202LOTE PADRAO                   TELE CL SUL ON * EJ    TCSL3       010VISTA          000000000001990000000020000000000190000000000000000000019600022681400
0202LOTE PADRAO                   ITAUSA      PN         ITSA4       010VISTA          000000000001740000000017700000000174000000000000000000017700000120200
0202LOTE PADRAO                   V C P       PN *       VCPA4       010VISTA          000000000119900000001199000000011400000000000000000001140000000993600
0202LOTE PADRAO                   SID TUBARAO PN *       CSTB4       010VISTA          000000000033600000000338000000003320000000000000000000338000008352500
0202LOTE PADRAO                   BRADESPAR   PN *       BRAP4       010VISTA          000000000000470000000004700000000046000000000000000000004600161989000
0202LOTE PADRAO                   NET         PN         PLIM4       010VISTA          000000000000330000000003600000000032000000000000000000003500001764200
0202LOTE PADRAO                   TELE CTR OESPN * EJ    TCOC4       010VISTA          000000000004400000000045000000000440000000000000000000045000129394000
0202LOTE PADRAO                   TELEMAR N L PNA* EJ    TMAR5       010VISTA          000000000042700000000430000000004150000000000000000000417000012880800
0202LOTE PADRAO                   GERDAU      PN * EJ    GGBR4       010VISTA          000000000031900000000319000000003120000000000000000000315000006986100
0202LOTE PADRAO                   BRASIL      ON *       BBAS3       010VISTA          000000000010000000000100000000000960000000000000000000097000026955700
