00BDIN9999BOVESPA 99992002082220020822
0101IBOVESPA                      0094410094120097030000000000000000002002082200000020020822009703000000
0202LOTE PADRAO                   EMBRATEL PARPN *       EBTP4       010VISTA          000000000001800000000018000000000179000000000000000000018000271534000
0202LOTE PADRAO                   EMBRATEL PARON *       EBTP3       010VISTA          000000000002300000000023000000000220000000000000000000023000075326900
0202LOTE PADRAO                   TRAN PAULISTPN * EJ    TRPL4       010VISTA          000000000005900000000059000000000570000000000000000000059000016213700
0202LOTE PADRAO                   ITAUBANCO   PN * EJ    ITAU4       010VISTA          000000000123000000001290000000012270000000000000000001290000008312300
0202LOTE PADRAO                   TELEMAR     ON * EJ    TNLP3       010VISTA          000000000016800000000177000000001680000000000000000000175000022514100
0202LOTE PADRAO                   SID NACIONALON *       CSNA3       010VISTA          000000000040500000000420000000004020000000000000000000410000019791100
0202LOTE PADRAO                   TELE LEST CLPN *       TLCP4       010VISTA          000000000000400000000004100000000039000000000000000000004100066312700
0202LOTE PADRAO                   CRT CELULAR PNA* EJ    CRTP5       010VISTA          000000000370000000003700000000036000000000000000000003680000000804300
0202LOTE PADRAO                   IPIRANGA PETPN *       PTIP4       010VISTA          000000000011700000000117000000001130000000000000000000116000002720000
0202LOTE PADRAO                   BRASIL T PARPN *       BRTP4       010VISTA          000000000017600000000176000000001710000000000000000000173000131717000
0202LOTE PADRAO                   BRASIL T PARON *       BRTP3       010VISTA          000000000013300000000140000000001300000000000000000000140000024612400
0202LOTE PADRAO                   KLABIN S/A  PN         KLBN4       010VISTA          000000000000920000000009200000000085000000000000000000008800000016300
0202LOTE PADRAO                   ACESITA     PN *       ACES4       010VISTA          000000000000690000000007000000000068000000000000000000007000126530000
0202LOTE PADRAO                   PETROBRAS   PN         PETR4       010VISTA          000000000040100000000413000000003960000000000000000000411000000104100
0202LOTE PADRAO                   ELETROBRAS  PNB*       ELET6       010VISTA          000000000018500000000195000000001850000000000000000000191000049656500
0202LOTE PADRAO                   PETROBRAS   ON         PETR3       010VISTA          000000000044000000000456000000004380000000000000000000452000000050500
0202LOTE PADRAO                   COMGAS      PNA*       CGAS5       010VISTA          000000000049900000000499000000004870000000000000000000490000001114800
0202LOTE PADRAO                   SOUZA CRUZ  ON EJ      CRUZ3       010VISTA          000000000014100000000143000000001380000000000000000000141000000015400
0202LOTE PADRAO                   ELETROBRAS  ON *       ELET3       010VISTA          000000000019400000000208000000001940000000000000000000206000005973300
0202LOTE PADRAO                   CELESC      PNB        CLSC6       010VISTA          000000000000580000000005800000000056000000000000000000005700000154700
0202LOTE PADRAO                   BRADESCO    PN * EJ    BBDC4       010VISTA          000000000009000000000094000000000900000000000000000000094000195976000
0202LOTE PADRAO                   CESP        PN *       CESP4       010VISTA          000000000006800000000070000000000671000000000000000000069000010418000
0202LOTE PADRAO                   LIGHT       ON *       LIGH3       010VISTA          000000000075500000000769000000007100000000000000000000764000000127000
0202LOTE PADRAO                   TELESP CL PAPN *       TSPP4       010VISTA          000000000003600000000036000000000350000000000000000000036000272252000
0202LOTE PADRAO                   VALE R DOCE PNA        VALE5       010VISTA          000000000071900000000721000000007090000000000000000000717000000021000
0202LOTE PADRAO                   COPEL       PNB*       CPLE6       010VISTA          000000000009100000000095000000000900000000000000000000095000039287500
0202LOTE PADRAO                   VALE R DOCE ON         VALE3       010VISTA          000000000078500000000797000000007800000000000000000000780000000007900
0202LOTE PADRAO                   ARACRUZ     PNB        ARCZ6       010VISTA          000000000005300000000055000000000530000000000000000000055000000021800
0202LOTE PADRAO                   TELEMIG PARTPN *       TMCP4       010VISTA          000000000002700000000028000000000273000000000000000000028000205977000
0202LOTE PADRAO                   BRASIL TELECPN *       BRTO4       010VISTA          000000000011000000000110000000001070000000000000000000109000136968000
0202LOTE PADRAO                   SABESP      ON *       SBSP3       010VISTA          000000000077000000000810000000007690000000000000000000799000005859400
0202LOTE PADRAO                   BRASKEM     PNA*       BRKM5       010VISTA          000000000284900000002850000000026990000000000000000002700000000327600
0202LOTE PADRAO                   EMBRAER     PN EJ      EMBR4       010VISTA          000000000013750000000141000000001370000000000000000000140000000085500
0202LOTE PADRAO                   TELESP      PN * EJ    TLPP4       010VISTA          000000000032200000000322000000003140000000000000000000318000010311100
0202LOTE PADRAO                   EMBRAER     ON EJ      EMBR3       010VISTA          000000000012800000000129000000001260000000000000000000129000000010300
0202LOTE PADRAO                   AMBEV       PN *       AMBV4       010VISTA          000000000434000000004340000000043000000000000000000004315000002248100
0202LOTE PADRAO                   USIMINAS    PNA        USIM5       010VISTA          000000000004900000000049600000000480000000000000000000049000000074000
0202LOTE PADRAO                   ELETROPAULO PN *       ELPL4       010VISTA          000000000034200000000361000000003100000000000000000000350000013690000
0202LOTE PADRAO                   TELE NORD CLPN *       TNEP4       010VISTA          000000000002520000000026000000000252000000000000000000026000185256000
0202LOTE PADRAO                   CEMIG       PN * EJ    CMIG4       010VISTA          000000000023000000000248000000002270000000000000000000248000039378800
0202LOTE PADRAO                   TELE CL SUL PN * EJ    TCSL4       010VISTA          000000000002400000000027000000000240000000000000000000027000160864000
0202LOTE PADRAO                   TRACTEBEL   ON *       TBLE3       010VISTA          000000000004000000000040000000000400000000000000000000040000028012000
0202LOTE PADRAO                   CEMIG       ON * EJ    CMIG3       010VISTA          000000000021800000000230000000002160000000000000000000228000002569000
0202LOTE PADRAO                   TELE CL SUL ON * EJ    TCSL3       010VISTA          000000000002000000000021000000000200000000000000000000021000076359800
0202LOTE PADRAO                   ITAUSA      PN         ITSA4       010VISTA          000000000001600000000016000000000160000000000000000000016000000297600
0202LOTE PADRAO                   V C P       PN *       VCPA4       010VISTA          000000000106000000001079000000010500000000000000000001079000002350700
0202LOTE PADRAO                   SID TUBARAO PN *       CSTB4       010VISTA          000000000026000000000260000000002510000000000000000000256000007780000
0202LOTE PADRAO                   BRADESPAR   PN *       BRAP4       010VISTA          000000000000490000000004900000000047000000000000000000004900088902900
0202LOTE PADRAO                   NET         PN         PLIM4       010VISTA          000000000000430000000004300000000039000000000000000000004100000674800
0202LOTE PADRAO                   TELE CTR OESPN * EJ    TCOC4       010VISTA          000000000002600000000028000000000250000000000000000000028000300721000
0202LOTE PADRAO                   TELEMAR N L PNA* EJ    TMAR5       010VISTA          000000000038500000000409000000003850000000000000000000405000032879200
0202LOTE PADRAO                   GERDAU      PN * EJ    GGBR4       010VISTA          000000000032300000000327000000003210000000000000000000327000027204800
0202LOTE PADRAO                   BRASIL      ON *       BBAS3       010VISTA          000000000009900000000100000000000970000000000000000000098000008204100
