00BDIN9999BOVESPA 99992002080220020802
0101IBOVESPA                      0097680097380099430000000000000000002002080200000020020802009852000000
0202LOTE PADRAO                   EMBRATEL PARPN *       EBTP4       010VISTA          000000000001720000000017500000000169000000000000000000017300275015000
0202LOTE PADRAO                   EMBRATEL PARON *       EBTP3       010VISTA          000000000002750000000027900000000260000000000000000000026000015253800
0202LOTE PADRAO                   TRAN PAULISTPN * EJ    TRPL4       010VISTA          000000000005400000000055400000000530000000000000000000055000008033100
0202LOTE PADRAO                   ITAUBANCO   PN * EJ    ITAU4       010VISTA          000000000125900000001338000000012500000000000000000001330000024413100
0202LOTE PADRAO                   TELEMAR     ON * EJ    TNLP3       010VISTA          000000000017500000000186000000001750000000000000000000181000056989900
0202LOTE PADRAO                   SID NACIONALON *       CSNA3       010VISTA          000000000039700000000410000000003875000000000000000000390000021572900
0202LOTE PADRAO                   TELE LEST CLPN *       TLCP4       010VISTA          000000000000410000000004100000000038000000000000000000003900111045000
0202LOTE PADRAO                   CRT CELULAR PNA* EJ    CRTP5       010VISTA          000000000393000000004078000000038100000000000000000004000000000449400
0202LOTE PADRAO                   IPIRANGA PETPN *       PTIP4       010VISTA          000000000012300000000125000000001200000000000000000000124000005760000
0202LOTE PADRAO                   BRASIL T PARPN *       BRTP4       010VISTA          000000000016100000000161000000001550000000000000000000155000069266300
0202LOTE PADRAO                   BRASIL T PARON *       BRTP3       010VISTA          000000000012300000000125000000001200000000000000000000120000032572200
0202LOTE PADRAO                   KLABIN S/A  PN         KLBN4       010VISTA          000000000000880000000009000000000087000000000000000000009000000046400
0202LOTE PADRAO                   ACESITA     PN *       ACES4       010VISTA          000000000000640000000006400000000062000000000000000000006400038729100
0202LOTE PADRAO                   PETROBRAS   PN         PETR4       010VISTA          000000000042200000000436000000004220000000000000000000432000000149100
0202LOTE PADRAO                   ELETROBRAS  PNB*       ELET6       010VISTA          000000000020900000000214000000002080000000000000000000211000095392200
0202LOTE PADRAO                   PETROBRAS   ON         PETR3       010VISTA          000000000045300000000468000000004500000000000000000000468000000051000
0202LOTE PADRAO                   COMGAS      PNA*       CGAS5       010VISTA          000000000047800000000510000000004780000000000000000000500000001326000
0202LOTE PADRAO                   SOUZA CRUZ  ON EJ      CRUZ3       010VISTA          000000000013800000000145000000001380000000000000000000142000000044800
0202LOTE PADRAO                   ELETROBRAS  ON *       ELET3       010VISTA          000000000021900000000225000000002180000000000000000000220000023615700
0202LOTE PADRAO                   CELESC      PNB        CLSC6       010VISTA          000000000000520000000005200000000050000000000000000000005200000256100
0202LOTE PADRAO                   BRADESCO    PN * EJ    BBDC4       010VISTA          000000000009250000000093000000000880000000000000000000091000442291000
0202LOTE PADRAO                   CESP        PN *       CESP4       010VISTA          000000000007250000000074000000000720000000000000000000072000008282500
0202LOTE PADRAO                   LIGHT       ON *       LIGH3       010VISTA          000000000081000000000820000000007900000000000000000000799000000410300
0202LOTE PADRAO                   TELESP CL PAPN *       TSPP4       010VISTA          000000000003400000000034000000000340000000000000000000034000382129000
0202LOTE PADRAO                   VALE R DOCE PNA        VALE5       010VISTA          000000000073000000000730000000006950000000000000000000705000000019000
0202LOTE PADRAO                   COPEL       PNB*       CPLE6       010VISTA          000000000010400000000109000000001025000000000000000000109000029315700
0202LOTE PADRAO                   VALE R DOCE ON         VALE3       010VISTA          000000000078500000000785000000007600000000000000000000760000000018000
0202LOTE PADRAO                   ARACRUZ     PNB        ARCZ6       010VISTA          000000000006100000000061000000000570000000000000000000058000000066700
0202LOTE PADRAO                   TELEMIG PARTPN *       TMCP4       010VISTA          000000000002960000000031000000000290000000000000000000030000100834000
0202LOTE PADRAO                   BRASIL TELECPN *       BRTO4       010VISTA          000000000010800000000108000000001040000000000000000000105000129293000
0202LOTE PADRAO                   SABESP      ON *       SBSP3       010VISTA          000000000085100000000900000000008510000000000000000000890000007757300
0202LOTE PADRAO                   BRASKEM     PNA*       BRKM5       010VISTA          000000000355000000003698000000035500000000000000000003650000000188900
0202LOTE PADRAO                   EMBRAER     PN EJ      EMBR4       010VISTA          000000000014400000000145000000001360000000000000000000139000000088400
0202LOTE PADRAO                   TELESP      PN * EJ    TLPP4       010VISTA          000000000031800000000323000000003100000000000000000000322000017609600
0202LOTE PADRAO                   EMBRAER     ON EJ      EMBR3       010VISTA          000000000013250000000133000000001270000000000000000000128000000013400
0202LOTE PADRAO                   AMBEV       PN *       AMBV4       010VISTA          000000000429800000004298000000041600000000000000000004209000003132600
0202LOTE PADRAO                   USIMINAS    PNA        USIM5       010VISTA          000000000005200000000053000000000510000000000000000000053000000071000
0202LOTE PADRAO                   ELETROPAULO PN *       ELPL4       010VISTA          000000000026600000000273000000002590000000000000000000263000009469700
0202LOTE PADRAO                   TELE NORD CLPN *       TNEP4       010VISTA          000000000002800000000028000000000270000000000000000000027000142131000
0202LOTE PADRAO                   CEMIG       PN * EJ    CMIG4       010VISTA          000000000026100000000268000000002580000000000000000000268000047624800
0202LOTE PADRAO                   TELE CL SUL PN * EJ    TCSL4       010VISTA          000000000002900000000030000000000275000000000000000000027000105186000
0202LOTE PADRAO                   TRACTEBEL   ON *       TBLE3       010VISTA          000000000004300000000044000000000400000000000000000000042000011863000
0202LOTE PADRAO                   CEMIG       ON * EJ    CMIG3       010VISTA          000000000025000000000255000000002500000000000000000000250000000730100
0202LOTE PADRAO                   TELE CL SUL ON * EJ    TCSL3       010VISTA          000000000002520000000025000000000230000000000000000000024000026756600
0202LOTE PADRAO                   ITAUSA      PN         ITSA4       010VISTA          000000000001600000000016900000000160000000000000000000016900000740900
0202LOTE PADRAO                   V C P       PN *       VCPA4       010VISTA          000000000105000000001050000000010150000000000000000001015000001859200
0202LOTE PADRAO                   SID TUBARAO PN *       CSTB4       010VISTA          000000000028000000000280000000002750000000000000000000276000012854800
0202LOTE PADRAO                   BRADESPAR   PN *       BRAP4       010VISTA          000000000000510000000005100000000049000000000000000000005100070199500
0202LOTE PADRAO                   NET         PN         PLIM4       010VISTA          000000000000950000000009500000000083000000000000000000008500000291400
0202LOTE PADRAO                   TELE CTR OESPN * EJ    TCOC4       010VISTA          000000000004000000000040000000000370000000000000000000038000140047000
0202LOTE PADRAO                   TELEMAR N L PNA* EJ    TMAR5       010VISTA          000000000042500000000425000000004050000000000000000000407000053883000
0202LOTE PADRAO                   GERDAU      PN * EJ    GGBR4       010VISTA          000000000028500000000304000000002850000000000000000000300000009544200
0202LOTE PADRAO                   BRASIL      ON *       BBAS3       010VISTA          000000000009100000000094000000000900000000000000000000094000008257200
