00BDIN9999BOVESPA 99992002052320020523
0101IBOVESPA                      0123800122440125610000000000000000002002052300000020020523012556000000
0202LOTE PADRAO                   EMBRATEL PARPN *       EBTP4       010VISTA          000000000004500000000046000000000420000000000000000000044000304630000
0202LOTE PADRAO                   TRAN PAULISTPN * EJ    TRPL4       010VISTA          000000000005700000000061000000000575000000000000000000061000015480500
0202LOTE PADRAO                   EMBRATEL PARON *       EBTP3       010VISTA          000000000006100000000062000000000580000000000000000000060000043583100
0202LOTE PADRAO                   TELEMAR     PN * EJ    TNLP4       010VISTA          000000000029400000000300000000002900000000000000000000298000340970000
0202LOTE PADRAO                   ITAUBANCO   PN * EJ    ITAU4       010VISTA          000000000173800000001779000000017380000000000000000001770000009989100
0202LOTE PADRAO                   TELEMAR     ON * EJ    TNLP3       010VISTA          000000000024500000000255000000002430000000000000000000255000005489200
0202LOTE PADRAO                   SID NACIONALON *       CSNA3       010VISTA          000000000047000000000495000000004700000000000000000000495000030052100
0202LOTE PADRAO                   TELE LEST CLPN *       TLCP4       010VISTA          000000000000640000000006700000000063000000000000000000006500153924000
0202LOTE PADRAO                   CRT CELULAR PNA* EJ    CRTP5       010VISTA          000000000376100000003890000000036500000000000000000003890000000190100
0202LOTE PADRAO                   IPIRANGA PETPN *       PTIP4       010VISTA          000000000013500000000136000000001350000000000000000000136000001332000
0202LOTE PADRAO                   BRASIL T PARPN *       BRTP4       010VISTA          000000000016500000000171000000001650000000000000000000170000052207700
0202LOTE PADRAO                   BRASIL T PARON *       BRTP3       010VISTA          000000000015100000000158000000001510000000000000000000157000007903100
0202LOTE PADRAO                   KLABIN S/A  PN         KLBN4       010VISTA          000000000001000000000010000000000100000000000000000000010000000008900
0202LOTE PADRAO                   ACESITA     PN *       ACES4       010VISTA          000000000000640000000006600000000063000000000000000000006600158174000
0202LOTE PADRAO                   PETROBRAS   PN         PETR4       010VISTA          000000000055100000000562000000005500000000000000000000562000000079200
0202LOTE PADRAO                   ELETROBRAS  PNB*       ELET6       010VISTA          000000000030100000000301000000002900000000000000000000300000031272800
0202LOTE PADRAO                   PETROBRAS   ON         PETR3       010VISTA          000000000059100000000600000000005870000000000000000000597000000070300
0202LOTE PADRAO                   COMGAS      PNA*       CGAS5       010VISTA          000000000072000000000737000000007050000000000000000000735000000533100
0202LOTE PADRAO                   SOUZA CRUZ  ON EJ      CRUZ3       010VISTA          000000000015600000000161000000001550000000000000000000160000000008800
0202LOTE PADRAO                   ELETROBRAS  ON *       ELET3       010VISTA          000000000032500000000335000000003250000000000000000000335000023629300
0202LOTE PADRAO                   CELESC      PNB        CLSC6       010VISTA          000000000000550000000005600000000054000000000000000000005400000107100
0202LOTE PADRAO                   BRADESCO    PN * EJ    BBDC4       010VISTA          000000000012600000000126000000001230000000000000000000126000216075000
0202LOTE PADRAO                   CESP        PN *       CESP4       010VISTA          000000000010300000000105000000001000000000000000000000103000007325800
0202LOTE PADRAO                   LIGHT       ON *       LIGH3       010VISTA          000000000093500000000950000000009300000000000000000000950000000187700
0202LOTE PADRAO                   TELESP CL PAPN *       TSPP4       010VISTA          000000000005500000000055000000000525000000000000000000054000157199000
0202LOTE PADRAO                   VALE R DOCE PNA        VALE5       010VISTA          000000000069900000000712500000006970000000000000000000710000000020800
0202LOTE PADRAO                   COPEL       PNB*       CPLE6       010VISTA          000000000014400000000149000000001400000000000000000000149000019891200
0202LOTE PADRAO                   VALE R DOCE ON         VALE3       010VISTA          000000000070000000000715000000007000000000000000000000712000000025300
0202LOTE PADRAO                   ARACRUZ     PNB        ARCZ6       010VISTA          000000000005500000000057000000000550000000000000000000055000000050500
0202LOTE PADRAO                   TELEMIG PARTPN *       TMCP4       010VISTA          000000000002700000000027000000000270000000000000000000027000052704900
0202LOTE PADRAO                   BRASIL TELECPN *       BRTO4       010VISTA          000000000011600000000120000000001150000000000000000000120000028579900
0202LOTE PADRAO                   SABESP      ON *       SBSP3       010VISTA          000000000112200000001124000000010600000000000000000001115000005097100
0202LOTE PADRAO                   BRASKEM     PNA*       BRKM5       010VISTA          000000000445000000004460000000044000000000000000000004450000000051400
0202LOTE PADRAO                   EMBRAER     PN EJ      EMBR4       010VISTA          000000000013900000000144000000001390000000000000000000143000000047600
0202LOTE PADRAO                   TELESP      PN * EJ    TLPP4       010VISTA          000000000032500000000334000000003150000000000000000000329000009654300
0202LOTE PADRAO                   EMBRAER     ON EJ      EMBR3       010VISTA          000000000012700000000128000000001250000000000000000000128000000006800
0202LOTE PADRAO                   AMBEV       PN *       AMBV4       010VISTA          000000000478800000004793000000047300000000000000000004751000002207900
0202LOTE PADRAO                   USIMINAS    PNA        USIM5       010VISTA          000000000007200000000074000000000710000000000000000000074000000023200
0202LOTE PADRAO                   ELETROPAULO PN *       ELPL4       010VISTA          000000000052000000000526000000004900000000000000000000510000003727200
0202LOTE PADRAO                   TELE NORD CLPN *       TNEP4       010VISTA          000000000002300000000024000000000230000000000000000000024000085828000
0202LOTE PADRAO                   CEMIG       PN * EJ    CMIG4       010VISTA          000000000033500000000336000000003230000000000000000000336000024218900
0202LOTE PADRAO                   TELE CL SUL PN * EJ    TCSL4       010VISTA          000000000003100000000031000000000290000000000000000000030000054358100
0202LOTE PADRAO                   TRACTEBEL   ON *       TBLE3       010VISTA          000000000003900000000039000000000380000000000000000000038000012965900
0202LOTE PADRAO                   CEMIG       ON * EJ    CMIG3       010VISTA          000000000028500000000303000000002850000000000000000000300000000530600
0202LOTE PADRAO                   TELE CL SUL ON * EJ    TCSL3       010VISTA          000000000002520000000026000000000248000000000000000000026000012799300
0202LOTE PADRAO                   ITAUSA      PN         ITSA4       010VISTA          000000000002100000000021000000000200000000000000000000021000000702400
0202LOTE PADRAO                   V C P       PN *       VCPA4       010VISTA          000000000098600000001005000000009400000000000000000001000000002670700
0202LOTE PADRAO                   SID TUBARAO PN *       CSTB4       010VISTA          000000000028300000000293000000002800000000000000000000293000008311000
0202LOTE PADRAO                   BRADESPAR   PN *       BRAP4       010VISTA          000000000000610000000006100000000059000000000000000000006000154242000
0202LOTE PADRAO                   NET         PN         PLIM4       010VISTA          000000000000340000000003500000000033000000000000000000003400000847700
0202LOTE PADRAO                   TELE CTR OESPN * EJ    TCOC4       010VISTA          000000000004200000000044000000000410000000000000000000044000093060700
0202LOTE PADRAO                   TELEMAR N L PNA* EJ    TMAR5       010VISTA          000000000050000000000512000000004950000000000000000000512000018177100
0202LOTE PADRAO                   GERDAU      PN * EJ    GGBR4       010VISTA          000000000031500000000320000000003070000000000000000000314000014736600
0202LOTE PADRAO                   BRASIL      ON *       BBAS3       010VISTA          000000000012000000000123000000001200000000000000000000122000002231400
