00BDIN9999BOVESPA 99992002101720021017
0101IBOVESPA                      0083970083970089200000000000000000002002101700000020021017008902000000
0202LOTE PADRAO                   EMBRATEL PARPN *       EBTP4       010VISTA          000000000002100000000023000000000210000000000000000000022500380849000
0202LOTE PADRAO                   TRAN PAULISTPN * EJ    TRPL4       010VISTA          000000000004700000000050000000000470000000000000000000049000015904900
0202LOTE PADRAO                   EMBRATEL PARON *       EBTP3       010VISTA          000000000002800000000029000000000280000000000000000000028000030041800
0202LOTE PADRAO                   TELEMAR     PN * EJ    TNLP4       010VISTA          000000000020600000000218000000002030000000000000000000216000464755000
0202LOTE PADRAO                   ITAUBANCO   PN * EJ    ITAU4       010VISTA          000000000119000000001270000000011900000000000000000001270000015744100
0202LOTE PADRAO                   TELEMAR     ON * EJ    TNLP3       010VISTA          000000000015600000000163000000001540000000000000000000162000020231500
0202LOTE PADRAO                   SID NACIONALON *       CSNA3       010VISTA          000000000031800000000339000000003120000000000000000000339000011178100
0202LOTE PADRAO                   TELE LEST CLPN *       TLCP4       010VISTA          000000000000360000000003800000000036000000000000000000003600253914000
0202LOTE PADRAO                   CRT CELULAR PNA* EJ    CRTP5       010VISTA          000000000310000000003100000000030050000000000000000003085000000238500
0202LOTE PADRAO                   IPIRANGA PETPN *       PTIP4       010VISTA          000000000007500000000081000000000750000000000000000000078000001350000
0202LOTE PADRAO                   BRASIL T PARPN *       BRTP4       010VISTA          000000000017800000000181000000001760000000000000000000181000089255000
0202LOTE PADRAO                   BRASIL T PARON *       BRTP3       010VISTA          000000000013200000000136000000001310000000000000000000134000008059700
0202LOTE PADRAO                   KLABIN S/A  PN         KLBN4       010VISTA          000000000000870000000008700000000082000000000000000000008400000074900
0202LOTE PADRAO                   ACESITA     PN *       ACES4       010VISTA          000000000000660000000007000000000065000000000000000000006900226682000
0202LOTE PADRAO                   PETROBRAS   PN         PETR4       010VISTA          000000000035800000000382000000003580000000000000000000382000000150800
0202LOTE PADRAO                   ELETROBRAS  PNB*       ELET6       010VISTA          000000000014500000000152500000001450000000000000000000150000088011400
0202LOTE PADRAO                   PETROBRAS   ON         PETR3       010VISTA          000000000039000000000415000000003870000000000000000000415000000071000
0202LOTE PADRAO                   COMGAS      PNA*       CGAS5       010VISTA          000000000060200000000620000000005980000000000000000000619000000486000
0202LOTE PADRAO                   SOUZA CRUZ  ON EJ      CRUZ3       010VISTA          000000000017000000000171000000001680000000000000000000170000000075700
0202LOTE PADRAO                   ELETROBRAS  ON *       ELET3       010VISTA          000000000014900000000155000000001460000000000000000000153000017322100
0202LOTE PADRAO                   CELESC      PNB        CLSC6       010VISTA          000000000000460000000004800000000046000000000000000000004700000230900
0202LOTE PADRAO                   BRADESCO    PN * EJ    BBDC4       010VISTA          000000000007900000000085000000000780000000000000000000084000366441000
0202LOTE PADRAO                   CESP        PN *       CESP4       010VISTA          000000000006200000000064000000000600000000000000000000063000010402500
0202LOTE PADRAO                   LIGHT       ON *       LIGH3       010VISTA          000000000051800000000526000000005140000000000000000000520000000396600
0202LOTE PADRAO                   TELESP CL PAPN *       TSPP4       010VISTA          000000000002700000000029400000000270000000000000000000029000333273000
0202LOTE PADRAO                   VALE R DOCE PNA        VALE5       010VISTA          000000000083300000000845000000008250000000000000000000845000000021000
0202LOTE PADRAO                   COPEL       PNB*       CPLE6       010VISTA          000000000007400000000076000000000720000000000000000000073000084304500
0202LOTE PADRAO                   VALE R DOCE ON         VALE3       010VISTA          000000000086000000000880000000008600000000000000000000880000000014300
0202LOTE PADRAO                   ARACRUZ     PNB        ARCZ6       010VISTA          000000000005800000000060000000000570000000000000000000060000000078100
0202LOTE PADRAO                   TELEMIG PARTPN *       TMCP4       010VISTA          000000000002300000000024000000000230000000000000000000023000267209000
0202LOTE PADRAO                   BRASIL TELECPN *       BRTO4       010VISTA          000000000011400000000115000000001100000000000000000000115000056254900
0202LOTE PADRAO                   SABESP      ON *       SBSP3       010VISTA          000000000078000000000780000000007550000000000000000000764000005435600
0202LOTE PADRAO                   BRASKEM     PNA*       BRKM5       010VISTA          000000000217800000002178000000021390000000000000000002175000000254400
0202LOTE PADRAO                   EMBRAER     PN EJ      EMBR4       010VISTA          000000000013000000000133000000001290000000000000000000131000000181000
0202LOTE PADRAO                   TELESP      PN * EJ    TLPP4       010VISTA          000000000030600000000321000000003050000000000000000000320000013577400
0202LOTE PADRAO                   EMBRAER     ON EJ      EMBR3       010VISTA          000000000011800000000125000000001180000000000000000000125000000015400
0202LOTE PADRAO                   AMBEV       PN *       AMBV4       010VISTA          000000000421000000004500000000042100000000000000000004500000003132400
0202LOTE PADRAO                   USIMINAS    PNA        USIM5       010VISTA          000000000004200000000043000000000400000000000000000000042500000077900
0202LOTE PADRAO                   ELETROPAULO PN *       ELPL4       010VISTA          000000000022500000000234000000002210000000000000000000226000007005600
0202LOTE PADRAO                   TELE NORD CLPN *       TNEP4       010VISTA          000000000002100000000022700000000210000000000000000000022000081728500
0202LOTE PADRAO                   CEMIG       PN * EJ    CMIG4       010VISTA          000000000019600000000212000000001950000000000000000000211000050870100
0202LOTE PADRAO                   TELE CL SUL PN * EJ    TCSL4       010VISTA          000000000002400000000025000000000230000000000000000000025000111405000
0202LOTE PADRAO                   TRACTEBEL   ON *       TBLE3       010VISTA          000000000003800000000040000000000380000000000000000000040000006210000
0202LOTE PADRAO                   CEMIG       ON * EJ    CMIG3       010VISTA          000000000018600000000203000000001860000000000000000000197000000692500
0202LOTE PADRAO                   TELE CL SUL ON * EJ    TCSL3       010VISTA          000000000001900000000020000000000190000000000000000000019500101313000
0202LOTE PADRAO                   ITAUSA      PN         ITSA4       010VISTA          000000000001480000000015200000000148000000000000000000015100001167000
0202LOTE PADRAO                   V C P       PN *       VCPA4       010VISTA          000000000105500000001110000000010550000000000000000001100000007538000
0202LOTE PADRAO                   SID TUBARAO PN *       CSTB4       010VISTA          000000000032700000000339000000003270000000000000000000334000007721800
0202LOTE PADRAO                   BRADESPAR   PN *       BRAP4       010VISTA          000000000000440000000004600000000044000000000000000000004500152002000
0202LOTE PADRAO                   NET         PN         PLIM4       010VISTA          000000000000240000000002800000000023000000000000000000002700001971800
0202LOTE PADRAO                   TELE CTR OESPN * EJ    TCOC4       010VISTA          000000000003100000000034000000000310000000000000000000033000146436000
0202LOTE PADRAO                   TELEMAR N L PNA* EJ    TMAR5       010VISTA          000000000040400000000413000000003960000000000000000000413000016705200
0202LOTE PADRAO                   GERDAU      PN * EJ    GGBR4       010VISTA          000000000027500000000286000000002750000000000000000000280000052942700
0202LOTE PADRAO                   BRASIL      ON *       BBAS3       010VISTA          000000000008300000000090000000000820000000000000000000087000040941000
