00BDIN9999BOVESPA 99992002041820020418
0101IBOVESPA                      0137290134460137290000000000000000002002041800000020020418013573000000
0202LOTE PADRAO                   EMBRATEL PARPN *       EBTP4       010VISTA          000000000007200000000073000000000720000000000000000000072000156257000
0202LOTE PADRAO                   TRAN PAULISTPN * EJ    TRPL4       010VISTA          000000000007200000000072000000000700000000000000000000071000025584600
0202LOTE PADRAO                   EMBRATEL PARON *       EBTP3       010VISTA          000000000008600000000089000000000850000000000000000000089000035095800
0202LOTE PADRAO                   TELEMAR     PN * EJ    TNLP4       010VISTA          000000000031300000000316000000003090000000000000000000315000236409000
0202LOTE PADRAO                   ITAUBANCO   PN * EJ    ITAU4       010VISTA          000000000188000000001900000000018500000000000000000001900000012656500
0202LOTE PADRAO                   TELEMAR     ON * EJ    TNLP3       010VISTA          000000000027300000000276000000002680000000000000000000274000018186400
0202LOTE PADRAO                   SID NACIONALON *       CSNA3       010VISTA          000000000046200000000470000000004620000000000000000000465000020531100
0202LOTE PADRAO                   TELE LEST CLPN *       TLCP4       010VISTA          000000000000730000000007300000000071000000000000000000007300169373000
0202LOTE PADRAO                   CRT CELULAR PNA* EJ    CRTP5       010VISTA          000000000440000000004400000000041990000000000000000004380000000407900
0202LOTE PADRAO                   IPIRANGA PETPN *       PTIP4       010VISTA          000000000015100000000154000000001440000000000000000000154000004239600
0202LOTE PADRAO                   BRASIL T PARPN *       BRTP4       010VISTA          000000000019400000000196000000001910000000000000000000195000090494500
0202LOTE PADRAO                   BRASIL T PARON *       BRTP3       010VISTA          000000000018400000000186000000001810000000000000000000186000025038000
0202LOTE PADRAO                   KLABIN S/A  PN         KLBN4       010VISTA          000000000001100000000011000000000100000000000000000000011000000021700
0202LOTE PADRAO                   ACESITA     PN *       ACES4       010VISTA          000000000000770000000007700000000075000000000000000000007600178471000
0202LOTE PADRAO                   PETROBRAS   PN         PETR4       010VISTA          000000000056500000000567000000005600000000000000000000564000000094300
0202LOTE PADRAO                   ELETROBRAS  PNB*       ELET6       010VISTA          000000000035700000000357000000003450000000000000000000350000050522500
0202LOTE PADRAO                   PETROBRAS   ON         PETR3       010VISTA          000000000059800000000602000000005920000000000000000000595000000029100
0202LOTE PADRAO                   COMGAS      PNA*       CGAS5       010VISTA          000000000076000000000760000000007400000000000000000000750000001287100
0202LOTE PADRAO                   SOUZA CRUZ  ON EJ      CRUZ3       010VISTA          000000000015500000000158000000001550000000000000000000158000000011300
0202LOTE PADRAO                   ELETROBRAS  ON *       ELET3       010VISTA          000000000038800000000392000000003820000000000000000000385000027021300
0202LOTE PADRAO                   CELESC      PNB        CLSC6       010VISTA          000000000000560000000005600000000053000000000000000000005500000241000
0202LOTE PADRAO                   BRADESCO    PN * EJ    BBDC4       010VISTA          000000000014400000000146000000001440000000000000000000145000153335000
0202LOTE PADRAO                   CESP        PN *       CESP4       010VISTA          000000000014100000000141000000001350000000000000000000137500010472500
0202LOTE PADRAO                   LIGHT       ON *       LIGH3       010VISTA          000000000101500000001015000000009800000000000000000000980000000435500
0202LOTE PADRAO                   TELESP CL PAPN *       TSPP4       010VISTA          000000000005900000000061000000000590000000000000000000060000280455000
0202LOTE PADRAO                   VALE R DOCE PNA        VALE5       010VISTA          000000000065000000000653000000006400000000000000000000641000000037000
0202LOTE PADRAO                   COPEL       PNB*       CPLE6       010VISTA          000000000018100000000181000000001780000000000000000000178000024375800
0202LOTE PADRAO                   VALE R DOCE ON         VALE3       010VISTA          000000000065500000000655000000006450000000000000000000647000000022500
0202LOTE PADRAO                   ARACRUZ     PNB        ARCZ6       010VISTA          000000000005000000000050000000000490000000000000000000049000000048100
0202LOTE PADRAO                   TELEMIG PARTPN *       TMCP4       010VISTA          000000000003000000000030000000000298000000000000000000030000126748000
0202LOTE PADRAO                   BRASIL TELECPN *       BRTO4       010VISTA          000000000013500000000136000000001320000000000000000000136000082780700
0202LOTE PADRAO                   SABESP      ON *       SBSP3       010VISTA          000000000143900000001520000000014100000000000000000001510000004580600
0202LOTE PADRAO                   BRASKEM     PNA*       BRKM5       010VISTA          000000000527000000005451000000052500000000000000000005361000000206900
0202LOTE PADRAO                   EMBRAER     PN EJ      EMBR4       010VISTA          000000000012400000000125000000001220000000000000000000123000000099300
0202LOTE PADRAO                   TELESP      PN * EJ    TLPP4       010VISTA          000000000034000000000340000000003350000000000000000000337000006662600
0202LOTE PADRAO                   EMBRAER     ON EJ      EMBR3       010VISTA          000000000011300000000115000000001120000000000000000000114000000023100
0202LOTE PADRAO                   AMBEV       PN *       AMBV4       010VISTA          000000000470000000004885000000047000000000000000000004869000002747300
0202LOTE PADRAO                   USIMINAS    PNA        USIM5       010VISTA          000000000008300000000083000000000810000000000000000000081000000091300
0202LOTE PADRAO                   ELETROPAULO PN *       ELPL4       010VISTA          000000000067000000000678000000006500000000000000000000667000002303200
0202LOTE PADRAO                   TELE NORD CLPN *       TNEP4       010VISTA          000000000002600000000026900000000250000000000000000000026000159720000
0202LOTE PADRAO                   CEMIG       PN * EJ    CMIG4       010VISTA          000000000037200000000376000000003680000000000000000000375000067454700
0202LOTE PADRAO                   TELE CL SUL PN * EJ    TCSL4       010VISTA          000000000003100000000031000000000300000000000000000000030000136366000
0202LOTE PADRAO                   TRACTEBEL   ON *       TBLE3       010VISTA          000000000004700000000047000000000450000000000000000000045000046015200
0202LOTE PADRAO                   CEMIG       ON * EJ    CMIG3       010VISTA          000000000035000000000350000000003350000000000000000000337000000648400
0202LOTE PADRAO                   TELE CL SUL ON * EJ    TCSL3       010VISTA          000000000002700000000028000000000260000000000000000000027000029023600
0202LOTE PADRAO                   ITAUSA      PN         ITSA4       010VISTA          000000000002400000000024800000000230000000000000000000024000000171400
0202LOTE PADRAO                   V C P       PN *       VCPA4       010VISTA          000000000092500000000960000000009250000000000000000000960000001614000
0202LOTE PADRAO                   SID TUBARAO PN *       CSTB4       010VISTA          000000000025300000000258000000002470000000000000000000258000006620000
0202LOTE PADRAO                   BRADESPAR   PN *       BRAP4       010VISTA          000000000000730000000007300000000072000000000000000000007200212648000
0202LOTE PADRAO                   NET         PN         PLIM4       010VISTA          000000000000420000000004200000000039000000000000000000004100002105900
0202LOTE PADRAO                   TELE CTR OESPN * EJ    TCOC4       010VISTA          000000000004960000000050000000000490000000000000000000050000205102000
0202LOTE PADRAO                   TELEMAR N L PNA* EJ    TMAR5       010VISTA          000000000052500000000532000000005160000000000000000000530000022756400
0202LOTE PADRAO                   GERDAU      PN * EJ    GGBR4       010VISTA          000000000032600000000326000000003160000000000000000000322000020213600
0202LOTE PADRAO                   BRASIL      ON *       BBAS3       010VISTA          000000000014500000000145000000001390000000000000000000139000008829000
