00BDIN9999BOVESPA 99992002011120020111
0101IBOVESPA                      0135540135540138350000000000000000002002011100000020020111013587000000
0202LOTE PADRAO                   EMBRATEL PARPN *       EBTP4       010VISTA          000000000010400000000108000000001040000000000000000000105000098667700
0202LOTE PADRAO                   EMBRATEL PARON *       EBTP3       010VISTA          000000000011500000000121000000001150000000000000000000120000016188200
0202LOTE PADRAO                   TRAN PAULISTPN * EJ    TRPL4       010VISTA          000000000006400000000068000000000640000000000000000000067900015987000
0202LOTE PADRAO                   TELEMAR     PN * EJ    TNLP4       010VISTA          000000000035300000000362000000003520000000000000000000355000183012000
0202LOTE PADRAO                   ITAUBANCO   PN * EJ    ITAU4       010VISTA          000000000176000000001780000000017500000000000000000001750000015427700
0202LOTE PADRAO                   TELEMAR     ON * EJ    TNLP3       010VISTA          000000000030100000000318000000003010000000000000000000311000027364300
0202LOTE PADRAO                   SID NACIONALON *       CSNA3       010VISTA          000000000039700000000421000000003970000000000000000000420000019440800
0202LOTE PADRAO                   TELE LEST CLPN *       TLCP4       010VISTA          000000000000930000000009500000000092000000000000000000009300119258000
0202LOTE PADRAO                   CRT CELULAR PNA* EJ    CRTP5       010VISTA          000000000514000000005350000000051000000000000000000005149000000281400
0202LOTE PADRAO                   IPIRANGA PETPN *       PTIP4       010VISTA          000000000013000000000133000000001290000000000000000000130000007320000
0202LOTE PADRAO                   BRASIL T PARPN *       BRTP4       010VISTA          000000000018600000000190000000001840000000000000000000186000085379500
0202LOTE PADRAO                   BRASIL T PARON *       BRTP3       010VISTA          000000000018300000000188000000001800000000000000000000183000022604300
0202LOTE PADRAO                   KLABIN S/A  PN         KLBN4       010VISTA          000000000001100000000012800000000110000000000000000000012500000038000
0202LOTE PADRAO                   ACESITA     PN *       ACES4       010VISTA          000000000000690000000007200000000069000000000000000000007000095985000
0202LOTE PADRAO                   PETROBRAS   PN         PETR4       010VISTA          000000000050900000000515000000005000000000000000000000502000000058800
0202LOTE PADRAO                   ELETROBRAS  PNB*       ELET6       010VISTA          000000000027500000000278000000002710000000000000000000271000064908600
0202LOTE PADRAO                   PETROBRAS   ON         PETR3       010VISTA          000000000052500000000528000000005160000000000000000000516000000017400
0202LOTE PADRAO                   COMGAS      PNA*       CGAS5       010VISTA          000000000089200000000908000000008920000000000000000000900000001409400
0202LOTE PADRAO                   SOUZA CRUZ  ON EJ      CRUZ3       010VISTA          000000000014500000000150000000001400000000000000000000144000000031600
0202LOTE PADRAO                   ELETROBRAS  ON *       ELET3       010VISTA          000000000031100000000318000000003110000000000000000000311000084366500
0202LOTE PADRAO                   CELESC      PNB        CLSC6       010VISTA          000000000000470000000004800000000046000000000000000000004700000113800
0202LOTE PADRAO                   BRADESCO    PN * EJ    BBDC4       010VISTA          000000000011900000000125000000001190000000000000000000123000154725000
0202LOTE PADRAO                   CESP        PN *       CESP4       010VISTA          000000000013800000000139000000001350000000000000000000135000026307300
0202LOTE PADRAO                   LIGHT       ON *       LIGH3       010VISTA          000000000127750000001295000000012700000000000000000001270000000799000
0202LOTE PADRAO                   TELESP CL PAPN *       TSPP4       010VISTA          000000000008000000000083000000000800000000000000000000081000260446000
0202LOTE PADRAO                   VALE R DOCE PNA        VALE5       010VISTA          000000000054500000000549000000005410000000000000000000541000000027600
0202LOTE PADRAO                   COPEL       PNB*       CPLE6       010VISTA          000000000015600000000161000000001560000000000000000000157500079705900
0202LOTE PADRAO                   VALE R DOCE ON         VALE3       010VISTA          000000000054000000000541000000005370000000000000000000537000000002200
0202LOTE PADRAO                   ARACRUZ     PNB        ARCZ6       010VISTA          000000000004500000000047000000000450000000000000000000046000000199200
0202LOTE PADRAO                   TELEMIG PARTPN *       TMCP4       010VISTA          000000000004300000000043000000000420000000000000000000042000055400000
0202LOTE PADRAO                   BRASIL TELECPN *       BRTO4       010VISTA          000000000013100000000135000000001310000000000000000000131000101551000
0202LOTE PADRAO                   SABESP      ON *       SBSP3       010VISTA          000000000130000000001325000000012730000000000000000001289000001367300
0202LOTE PADRAO                   BRASKEM     PNA*       BRKM5       010VISTA          000000000530000000005494000000052300000000000000000005300000000231000
0202LOTE PADRAO                   EMBRAER     PN EJ      EMBR4       010VISTA          000000000013600000000139000000001300000000000000000000131000000062400
0202LOTE PADRAO                   TELESP      PN * EJ    TLPP4       010VISTA          000000000031100000000313000000003080000000000000000000310000009935900
0202LOTE PADRAO                   EMBRAER     ON EJ      EMBR3       010VISTA          000000000012400000000126000000001220000000000000000000123000000024300
0202LOTE PADRAO                   AMBEV       PN *       AMBV4       010VISTA          000000000490000000004999000000048800000000000000000004950000001261300
0202LOTE PADRAO                   USIMINAS    PNA        USIM5       010VISTA          000000000006700000000070000000000670000000000000000000067000000056000
0202LOTE PADRAO                   ELETROPAULO PN *       ELPL4       010VISTA          000000000080900000000830000000007990000000000000000000800000010455000
0202LOTE PADRAO                   TELE NORD CLPN *       TNEP4       010VISTA          000000000003300000000034000000000320000000000000000000032000057734100
0202LOTE PADRAO                   CEMIG       PN * EJ    CMIG4       010VISTA          000000000031500000000322000000003130000000000000000000314000069166000
0202LOTE PADRAO                   TELE CL SUL PN * EJ    TCSL4       010VISTA          000000000003500000000037000000000356000000000000000000035600049465000
0202LOTE PADRAO                   CEMIG       ON * EJ    CMIG3       010VISTA          000000000030000000000310000000002950000000000000000000296000000879000
0202LOTE PADRAO                   TELE CL SUL ON * EJ    TCSL3       010VISTA          000000000002900000000031000000000290000000000000000000031000016436300
0202LOTE PADRAO                   ITAUSA      PN         ITSA4       010VISTA          000000000002100000000022000000000210000000000000000000022000000443000
0202LOTE PADRAO                   V C P       PN *       VCPA4       010VISTA          000000000084500000000849000000008450000000000000000000845000001432100
0202LOTE PADRAO                   SID TUBARAO PN *       CSTB4       010VISTA          000000000023100000000245000000002310000000000000000000238000008940100
0202LOTE PADRAO                   BRADESPAR   PN *       BRAP4       010VISTA          000000000000760000000008000000000075000000000000000000007900286248000
0202LOTE PADRAO                   NET         PN         PLIM4       010VISTA          000000000000800000000008200000000078000000000000000000007900000761300
0202LOTE PADRAO                   TELE CTR OESPN * EJ    TCOC4       010VISTA          000000000005100000000052000000000510000000000000000000052000135628000
0202LOTE PADRAO                   TELEMAR N L PNA* EJ    TMAR5       010VISTA          000000000060100000000610000000005970000000000000000000599000024943200
0202LOTE PADRAO                   GERDAU      PN * EJ    GGBR4       010VISTA          000000000026100000000269000000002610000000000000000000267500024610200
0202LOTE PADRAO                   BRASIL      ON *       BBAS3       010VISTA          000000000010100000000106000000001010000000000000000000103000007830800
