00BDIN9999BOVESPA 99992002111920021119
0101IBOVESPA                      0099710098390100520000000000000000002002111900000020021119009971000000
0202LOTE PADRAO                   EMBRATEL PARPN *       EBTP4       010VISTA          000000000002270000000024800000000227000000000000000000024000666333000
0202LOTE PADRAO                   TRAN PAULISTPN * EJ    TRPL4       010VISTA          000000000005200000000053000000000510000000000000000000053000014033300
0202LOTE PADRAO                   EMBRATEL PARON *       EBTP3       010VISTA          000000000002700000000030000000000270000000000000000000029800066903600
0202LOTE PADRAO                   TELEMAR     PN * EJ    TNLP4       010VISTA          000000000024800000000251000000002440000000000000000000251000313574000
0202LOTE PADRAO                   ITAUBANCO   PN * EJ    ITAU4       010VISTA          000000000149500000001495000000014650000000000000000001470000012153100
0202LOTE PADRAO                   TELEMAR     ON * EJ    TNLP3       010VISTA          000000000018300000000187000000001780000000000000000000186000013443600
0202LOTE PADRAO                   SID NACIONALON *       CSNA3       010VISTA          000000000044500000000460000000004450000000000000000000460000013295400
0202LOTE PADRAO                   TELE LEST CLPN *       TLCP4       010VISTA          000000000000400000000004200000000039000000000000000000004100292239000
0202LOTE PADRAO                   CRT CELULAR PNA* EJ    CRTP5       010VISTA          000000000310000000003130000000030800000000000000000003130000000313400
0202LOTE PADRAO                   IPIRANGA PETPN *       PTIP4       010VISTA          000000000007750000000080000000000775000000000000000000079000002988200
0202LOTE PADRAO                   BRASIL T PARPN *       BRTP4       010VISTA          000000000017250000000172500000001675000000000000000000168000060011100
0202LOTE PADRAO                   BRASIL T PARON *       BRTP3       010VISTA          000000000013100000000135000000001300000000000000000000131000003170600
0202LOTE PADRAO                   KLABIN S/A  PN         KLBN4       010VISTA          000000000000970000000010000000000097000000000000000000010000000050000
0202LOTE PADRAO                   ACESITA     PN *       ACES4       010VISTA          000000000000740000000007800000000074000000000000000000007800127116000
0202LOTE PADRAO                   PETROBRAS   PN         PETR4       010VISTA          000000000044000000000447000000004360000000000000000000437500000121400
0202LOTE PADRAO                   ELETROBRAS  PNB*       ELET6       010VISTA          000000000018500000000190000000001800000000000000000000190000072601100
0202LOTE PADRAO                   PETROBRAS   ON         PETR3       010VISTA          000000000048900000000493000000004800000000000000000000483000000032300
0202LOTE PADRAO                   COMGAS      PNA*       CGAS5       010VISTA          000000000057000000000583000000005600000000000000000000578000000291400
0202LOTE PADRAO                   SOUZA CRUZ  ON EJ      CRUZ3       010VISTA          000000000018800000000188000000001820000000000000000000182000000010500
0202LOTE PADRAO                   ELETROBRAS  ON *       ELET3       010VISTA          000000000019100000000195000000001850000000000000000000193000017320700
0202LOTE PADRAO                   CELESC      PNB        CLSC6       010VISTA          000000000000500000000005000000000048000000000000000000004900000163900
0202LOTE PADRAO                   BRADESCO    PN * EJ    BBDC4       010VISTA          000000000009100000000091000000000890000000000000000000091000149614000
0202LOTE PADRAO                   CESP        PN *       CESP4       010VISTA          000000000006200000000064000000000610000000000000000000064000007886200
0202LOTE PADRAO                   LIGHT       ON *       LIGH3       010VISTA          000000000057900000000579000000005600000000000000000000567000000243800
0202LOTE PADRAO                   TELESP CL PAPN *       TSPP4       010VISTA          000000000003800000000039000000000373000000000000000000037000283391000
0202LOTE PADRAO                   VALE R DOCE PNA        VALE5       010VISTA          000000000092000000000920000000009030000000000000000000903000000010300
0202LOTE PADRAO                   COPEL       PNB*       CPLE6       010VISTA          000000000007600000000080000000000760000000000000000000080000068533900
0202LOTE PADRAO                   VALE R DOCE ON         VALE3       010VISTA          000000000097000000000977000000009450000000000000000000955000000018800
0202LOTE PADRAO                   ARACRUZ     PNB        ARCZ6       010VISTA          000000000005700000000058000000000570000000000000000000057900000069100
0202LOTE PADRAO                   TELEMIG PARTPN *       TMCP4       010VISTA          000000000003000000000030000000000280000000000000000000028000233878000
0202LOTE PADRAO                   BRASIL TELECPN *       BRTO4       010VISTA          000000000011000000000111000000001050000000000000000000109000080128600
0202LOTE PADRAO                   SABESP      ON *       SBSP3       010VISTA          000000000086500000000867000000008250000000000000000000845000005830700
0202LOTE PADRAO                   BRASKEM     PNA*       BRKM5       010VISTA          000000000215000000002150000000021000000000000000000002134000000261400
0202LOTE PADRAO                   EMBRAER     PN EJ      EMBR4       010VISTA          000000000013300000000133000000001240000000000000000000124000000227600
0202LOTE PADRAO                   TELESP      PN * EJ    TLPP4       010VISTA          000000000035900000000372000000003560000000000000000000372000006193700
0202LOTE PADRAO                   EMBRAER     ON EJ      EMBR3       010VISTA          000000000012200000000123000000001150000000000000000000115000000039500
0202LOTE PADRAO                   AMBEV       PN *       AMBV4       010VISTA          000000000530000000005300000000050900000000000000000005120000000929900
0202LOTE PADRAO                   USIMINAS    PNA        USIM5       010VISTA          000000000005400000000055000000000530000000000000000000054000000047700
0202LOTE PADRAO                   ELETROPAULO PN *       ELPL4       010VISTA          000000000025000000000252500000002430000000000000000000251000003099300
0202LOTE PADRAO                   TELE NORD CLPN *       TNEP4       010VISTA          000000000002500000000025000000000240000000000000000000025000056945000
0202LOTE PADRAO                   CEMIG       PN * EJ    CMIG4       010VISTA          000000000024000000000241000000002230000000000000000000226000078149800
0202LOTE PADRAO                   TELE CL SUL PN * EJ    TCSL4       010VISTA          000000000002700000000027000000000260000000000000000000026000069468400
0202LOTE PADRAO                   TRACTEBEL   ON *       TBLE3       010VISTA          000000000003200000000032000000000320000000000000000000032000007984200
0202LOTE PADRAO                   CEMIG       ON * EJ    CMIG3       010VISTA          000000000021500000000215000000002050000000000000000000208000008709500
0202LOTE PADRAO                   TELE CL SUL ON * EJ    TCSL3       010VISTA          000000000002000000000020000000000199000000000000000000020000013422300
0202LOTE PADRAO                   ITAUSA      PN         ITSA4       010VISTA          000000000001780000000017900000000175000000000000000000017500000293600
0202LOTE PADRAO                   V C P       PN *       VCPA4       010VISTA          000000000113000000001135000000011300000000000000000001130000003150600
0202LOTE PADRAO                   SID TUBARAO PN *       CSTB4       010VISTA          000000000033600000000336000000003040000000000000000000323000036542500
0202LOTE PADRAO                   BRADESPAR   PN *       BRAP4       010VISTA          000000000000470000000004800000000046000000000000000000004800116124000
0202LOTE PADRAO                   NET         PN         PLIM4       010VISTA          000000000000320000000003300000000030000000000000000000003100001575000
0202LOTE PADRAO                   TELE CTR OESPN * EJ    TCOC4       010VISTA          000000000003800000000038000000000370000000000000000000038000128748000
0202LOTE PADRAO                   TELEMAR N L PNA* EJ    TMAR5       010VISTA          000000000043000000000430000000004120000000000000000000420000033011400
0202LOTE PADRAO                   GERDAU      PN * EJ    GGBR4       010VISTA          000000000032000000000320000000003160000000000000000000318000025495100
0202LOTE PADRAO                   BRASIL      ON *       BBAS3       010VISTA          000000000010100000000101000000000990000000000000000000099000049657400
