00BDIN9999BOVESPA 99992002012220020122
0101IBOVESPA                      0131770129560133310000000000000000002002012200000020020122013004000000
0202LOTE PADRAO                   EMBRATEL PARPN *       EBTP4       010VISTA          000000000010250000000103000000000975000000000000000000098000138708000
0202LOTE PADRAO                   EMBRATEL PARON *       EBTP3       010VISTA          000000000011300000000121000000001110000000000000000000112500026380700
0202LOTE PADRAO                   TRAN PAULISTPN * EJ    TRPL4       010VISTA          000000000006800000000068000000000650000000000000000000067000016728000
0202LOTE PADRAO                   TELEMAR     PN * EJ    TNLP4       010VISTA          000000000034600000000348000000003330000000000000000000335000168888000
0202LOTE PADRAO                   ITAUBANCO   PN * EJ    ITAU4       010VISTA          000000000176500000001780000000017600000000000000000001779000008011100
0202LOTE PADRAO                   TELEMAR     ON * EJ    TNLP3       010VISTA          000000000030000000000303000000002900000000000000000000291000012328000
0202LOTE PADRAO                   SID NACIONALON *       CSNA3       010VISTA          000000000041700000000421000000004030000000000000000000407000004763000
0202LOTE PADRAO                   TELE LEST CLPN *       TLCP4       010VISTA          000000000000920000000009300000000089000000000000000000008900139307000
0202LOTE PADRAO                   CRT CELULAR PNA* EJ    CRTP5       010VISTA          000000000460000000004600000000044500000000000000000004450000000603300
0202LOTE PADRAO                   IPIRANGA PETPN *       PTIP4       010VISTA          000000000012900000000129000000001240000000000000000000124000002057400
0202LOTE PADRAO                   BRASIL T PARPN *       BRTP4       010VISTA          000000000018300000000186000000001770000000000000000000179000049646500
0202LOTE PADRAO                   BRASIL T PARON *       BRTP3       010VISTA          000000000018300000000183000000001800000000000000000000181000011640000
0202LOTE PADRAO                   KLABIN S/A  PN         KLBN4       010VISTA          000000000001200000000012000000000110000000000000000000011000000038800
0202LOTE PADRAO                   ACESITA     PN *       ACES4       010VISTA          000000000000700000000007000000000068000000000000000000007000171960000
0202LOTE PADRAO                   PETROBRAS   PN         PETR4       010VISTA          000000000048400000000490000000004790000000000000000000480000000057900
0202LOTE PADRAO                   ELETROBRAS  PNB*       ELET6       010VISTA          000000000026400000000271000000002630000000000000000000268000041262000
0202LOTE PADRAO                   PETROBRAS   ON         PETR3       010VISTA          000000000049300000000500000000004900000000000000000000490000000039300
0202LOTE PADRAO                   COMGAS      PNA*       CGAS5       010VISTA          000000000089000000000890000000008500000000000000000000890000001033700
0202LOTE PADRAO                   SOUZA CRUZ  ON EJ      CRUZ3       010VISTA          000000000014500000000146000000001450000000000000000000146000000022900
0202LOTE PADRAO                   ELETROBRAS  ON *       ELET3       010VISTA          000000000030100000000301000000002950000000000000000000300000007345200
0202LOTE PADRAO                   CELESC      PNB        CLSC6       010VISTA          000000000000570000000005800000000053000000000000000000005400000346400
0202LOTE PADRAO                   BRADESCO    PN * EJ    BBDC4       010VISTA          000000000012500000000125000000001230000000000000000000125000083151600
0202LOTE PADRAO                   CESP        PN *       CESP4       010VISTA          000000000014500000000146000000001390000000000000000000142000004859500
0202LOTE PADRAO                   LIGHT       ON *       LIGH3       010VISTA          000000000125000000001250000000011900000000000000000001205000000774400
0202LOTE PADRAO                   TELESP CL PAPN *       TSPP4       010VISTA          000000000007700000000077000000000720000000000000000000073000434337000
0202LOTE PADRAO                   VALE R DOCE PNA        VALE5       010VISTA          000000000051900000000524000000005160000000000000000000523000000040100
0202LOTE PADRAO                   COPEL       PNB*       CPLE6       010VISTA          000000000015900000000160000000001560000000000000000000156000017492500
0202LOTE PADRAO                   VALE R DOCE ON         VALE3       010VISTA          000000000050900000000509000000005000000000000000000000505000000001200
0202LOTE PADRAO                   ARACRUZ     PNB        ARCZ6       010VISTA          000000000004100000000041000000000400000000000000000000041000000012500
0202LOTE PADRAO                   TELEMIG PARTPN *       TMCP4       010VISTA          000000000003800000000039400000000360000000000000000000036000039684700
0202LOTE PADRAO                   BRASIL TELECPN *       BRTO4       010VISTA          000000000013000000000132500000001280000000000000000000128000069249400
0202LOTE PADRAO                   SABESP      ON *       SBSP3       010VISTA          000000000139000000001400000000013400000000000000000001359000001292100
0202LOTE PADRAO                   BRASKEM     PNA*       BRKM5       010VISTA          000000000614000000006140000000059000000000000000000005960000000524000
0202LOTE PADRAO                   EMBRAER     PN EJ      EMBR4       010VISTA          000000000012500000000125000000001230000000000000000000124000000027400
0202LOTE PADRAO                   TELESP      PN * EJ    TLPP4       010VISTA          000000000030300000000303000000002920000000000000000000296000014829700
0202LOTE PADRAO                   EMBRAER     ON EJ      EMBR3       010VISTA          000000000011500000000116000000001140000000000000000000114000000010300
0202LOTE PADRAO                   AMBEV       PN *       AMBV4       010VISTA          000000000485000000004900000000048200000000000000000004860000000778000
0202LOTE PADRAO                   USIMINAS    PNA        USIM5       010VISTA          000000000007000000000070000000000680000000000000000000068000000041800
0202LOTE PADRAO                   ELETROPAULO PN *       ELPL4       010VISTA          000000000079900000000810000000007800000000000000000000790000000923900
0202LOTE PADRAO                   TELE NORD CLPN *       TNEP4       010VISTA          000000000003000000000030000000000296000000000000000000030000091340000
0202LOTE PADRAO                   CEMIG       PN * EJ    CMIG4       010VISTA          000000000034200000000344000000003310000000000000000000335000035904500
0202LOTE PADRAO                   TELE CL SUL PN * EJ    TCSL4       010VISTA          000000000003200000000033000000000310000000000000000000032000049533500
0202LOTE PADRAO                   CEMIG       ON * EJ    CMIG3       010VISTA          000000000030000000000300000000002900000000000000000000291000001220000
0202LOTE PADRAO                   TELE CL SUL ON * EJ    TCSL3       010VISTA          000000000002800000000028000000000270000000000000000000028000024683900
0202LOTE PADRAO                   ITAUSA      PN         ITSA4       010VISTA          000000000002200000000022000000000210000000000000000000021000000310200
0202LOTE PADRAO                   V C P       PN *       VCPA4       010VISTA          000000000078000000000780000000007620000000000000000000762000003607000
0202LOTE PADRAO                   SID TUBARAO PN *       CSTB4       010VISTA          000000000021600000000217000000002130000000000000000000213000008558900
0202LOTE PADRAO                   BRADESPAR   PN *       BRAP4       010VISTA          000000000000780000000007900000000075000000000000000000007500263034000
0202LOTE PADRAO                   NET         PN         PLIM4       010VISTA          000000000000740000000007600000000070000000000000000000007100000571900
0202LOTE PADRAO                   TELE CTR OESPN * EJ    TCOC4       010VISTA          000000000005000000000050000000000470000000000000000000048000110307000
0202LOTE PADRAO                   TELEMAR N L PNA* EJ    TMAR5       010VISTA          000000000056800000000568000000005470000000000000000000548000013272400
0202LOTE PADRAO                   GERDAU      PN * EJ    GGBR4       010VISTA          000000000024300000000245000000002430000000000000000000243000017177200
0202LOTE PADRAO                   BRASIL      ON *       BBAS3       010VISTA          000000000009900000000100000000000960000000000000000000099000001530800
