00BDIN9999BOVESPA 99992002043020020430
0101IBOVESPA                      0130960130650132670000000000000000002002043000000020020430013085000000
0202LOTE PADRAO                   EMBRATEL PARPN *       EBTP4       010VISTA          000000000006200000000064000000000600000000000000000000060000301129000
0202LOTE PADRAO                   TRAN PAULISTPN * EJ    TRPL4       010VISTA          000000000006400000000064000000000620000000000000000000062000026495300
0202LOTE PADRAO                   EMBRATEL PARON *       EBTP3       010VISTA          000000000008000000000085000000000790000000000000000000080000024637200
0202LOTE PADRAO                   TELEMAR     PN * EJ    TNLP4       010VISTA          000000000030100000000306000000002980000000000000000000298000247852000
0202LOTE PADRAO                   ITAUBANCO   PN * EJ    ITAU4       010VISTA          000000000186750000001898000000018650000000000000000001875000006441300
0202LOTE PADRAO                   TELEMAR     ON * EJ    TNLP3       010VISTA          000000000026500000000267000000002560000000000000000000263000018543100
0202LOTE PADRAO                   SID NACIONALON *       CSNA3       010VISTA          000000000045900000000472000000004590000000000000000000467000013972200
0202LOTE PADRAO                   TELE LEST CLPN *       TLCP4       010VISTA          000000000000730000000007700000000073000000000000000000007400121994000
0202LOTE PADRAO                   CRT CELULAR PNA* EJ    CRTP5       010VISTA          000000000430000000004300000000040500000000000000000004150000000556700
0202LOTE PADRAO                   IPIRANGA PETPN *       PTIP4       010VISTA          000000000015400000000154000000001430000000000000000000143000003413200
0202LOTE PADRAO                   BRASIL T PARPN *       BRTP4       010VISTA          000000000018300000000186000000001810000000000000000000183000045595900
0202LOTE PADRAO                   BRASIL T PARON *       BRTP3       010VISTA          000000000017100000000180000000001710000000000000000000173000014317600
0202LOTE PADRAO                   KLABIN S/A  PN         KLBN4       010VISTA          000000000001000000000010000000000099000000000000000000010000000083600
0202LOTE PADRAO                   ACESITA     PN *       ACES4       010VISTA          000000000000770000000007900000000075000000000000000000007500349977000
0202LOTE PADRAO                   PETROBRAS   PN         PETR4       010VISTA          000000000054800000000552000000005460000000000000000000549000000105500
0202LOTE PADRAO                   ELETROBRAS  PNB*       ELET6       010VISTA          000000000032800000000332000000003230000000000000000000327500049983900
0202LOTE PADRAO                   PETROBRAS   ON         PETR3       010VISTA          000000000057900000000585000000005780000000000000000000581000000032000
0202LOTE PADRAO                   COMGAS      PNA*       CGAS5       010VISTA          000000000074900000000749000000007300000000000000000000730000001622400
0202LOTE PADRAO                   SOUZA CRUZ  ON EJ      CRUZ3       010VISTA          000000000016800000000168000000001610000000000000000000162000000015000
0202LOTE PADRAO                   ELETROBRAS  ON *       ELET3       010VISTA          000000000036250000000362500000003510000000000000000000357000029397200
0202LOTE PADRAO                   CELESC      PNB        CLSC6       010VISTA          000000000000600000000006000000000057000000000000000000005700000273000
0202LOTE PADRAO                   BRADESCO    PN * EJ    BBDC4       010VISTA          000000000014000000000141000000001390000000000000000000139000216055000
0202LOTE PADRAO                   CESP        PN *       CESP4       010VISTA          000000000012100000000129000000001210000000000000000000128000010342900
0202LOTE PADRAO                   LIGHT       ON *       LIGH3       010VISTA          000000000099000000001010000000009900000000000000000000990000000236300
0202LOTE PADRAO                   TELESP CL PAPN *       TSPP4       010VISTA          000000000005900000000060000000000580000000000000000000060000391310000
0202LOTE PADRAO                   VALE R DOCE PNA        VALE5       010VISTA          000000000062700000000641000000006270000000000000000000635000000020700
0202LOTE PADRAO                   COPEL       PNB*       CPLE6       010VISTA          000000000017000000000172500000001700000000000000000000170000022059100
0202LOTE PADRAO                   VALE R DOCE ON         VALE3       010VISTA          000000000064200000000645000000006400000000000000000000644000000014900
0202LOTE PADRAO                   ARACRUZ     PNB        ARCZ6       010VISTA          000000000005000000000051000000000500000000000000000000051000000098700
0202LOTE PADRAO                   TELEMIG PARTPN *       TMCP4       010VISTA          000000000002600000000026900000000240000000000000000000025000140592000
0202LOTE PADRAO                   BRASIL TELECPN *       BRTO4       010VISTA          000000000012800000000130000000001250000000000000000000126000080494700
0202LOTE PADRAO                   SABESP      ON *       SBSP3       010VISTA          000000000148000000001480000000014530000000000000000001453000003360500
0202LOTE PADRAO                   BRASKEM     PNA*       BRKM5       010VISTA          000000000517000000005370000000051600000000000000000005240000000351900
0202LOTE PADRAO                   EMBRAER     PN EJ      EMBR4       010VISTA          000000000013100000000137000000001310000000000000000000135000000112900
0202LOTE PADRAO                   TELESP      PN * EJ    TLPP4       010VISTA          000000000032300000000336000000003220000000000000000000323000006702200
0202LOTE PADRAO                   EMBRAER     ON EJ      EMBR3       010VISTA          000000000012300000000124000000001200000000000000000000120000000038700
0202LOTE PADRAO                   AMBEV       PN *       AMBV4       010VISTA          000000000485000000004980000000048400000000000000000004899000003024900
0202LOTE PADRAO                   USIMINAS    PNA        USIM5       010VISTA          000000000007900000000080000000000790000000000000000000080000000078800
0202LOTE PADRAO                   ELETROPAULO PN *       ELPL4       010VISTA          000000000055400000000590000000005540000000000000000000585000005123300
0202LOTE PADRAO                   TELE NORD CLPN *       TNEP4       010VISTA          000000000002300000000024000000000230000000000000000000024000174860000
0202LOTE PADRAO                   CEMIG       PN * EJ    CMIG4       010VISTA          000000000037000000000377000000003700000000000000000000372000039900400
0202LOTE PADRAO                   TELE CL SUL PN * EJ    TCSL4       010VISTA          000000000002900000000031000000000290000000000000000000029000053253500
0202LOTE PADRAO                   TRACTEBEL   ON *       TBLE3       010VISTA          000000000004400000000045000000000440000000000000000000044000018116000
0202LOTE PADRAO                   CEMIG       ON * EJ    CMIG3       010VISTA          000000000033500000000340000000003250000000000000000000325000002651700
0202LOTE PADRAO                   TELE CL SUL ON * EJ    TCSL3       010VISTA          000000000002500000000027000000000250000000000000000000026000023940000
0202LOTE PADRAO                   ITAUSA      PN         ITSA4       010VISTA          000000000002300000000023000000000220000000000000000000023000000319400
0202LOTE PADRAO                   V C P       PN *       VCPA4       010VISTA          000000000091750000000939000000009100000000000000000000917000001382900
0202LOTE PADRAO                   SID TUBARAO PN *       CSTB4       010VISTA          000000000028000000000285000000002660000000000000000000285000017000800
0202LOTE PADRAO                   BRADESPAR   PN *       BRAP4       010VISTA          000000000000680000000006900000000066000000000000000000006800163088000
0202LOTE PADRAO                   NET         PN         PLIM4       010VISTA          000000000000320000000003700000000032000000000000000000003500005438200
0202LOTE PADRAO                   TELE CTR OESPN * EJ    TCOC4       010VISTA          000000000004600000000047000000000460000000000000000000047100129150000
0202LOTE PADRAO                   TELEMAR N L PNA* EJ    TMAR5       010VISTA          000000000054000000000540000000005170000000000000000000518000036668500
0202LOTE PADRAO                   GERDAU      PN * EJ    GGBR4       010VISTA          000000000032000000000322000000003120000000000000000000315000013880100
0202LOTE PADRAO                   BRASIL      ON *       BBAS3       010VISTA          000000000014100000000141000000001310000000000000000000134000007535600
