00BDIN9999BOVESPA 99992002101020021010
0101IBOVESPA                      0087080087070089320000000000000000002002101000000020021010008866000000
0202LOTE PADRAO                   EMBRATEL PARPN *       EBTP4       010VISTA          000000000002200000000022700000000210000000000000000000022000220111000
0202LOTE PADRAO                   TRAN PAULISTPN * EJ    TRPL4       010VISTA          000000000005000000000050000000000500000000000000000000050000009715000
0202LOTE PADRAO                   EMBRATEL PARON *       EBTP3       010VISTA          000000000002940000000029000000000280000000000000000000029000021572200
0202LOTE PADRAO                   TELEMAR     PN * EJ    TNLP4       010VISTA          000000000021300000000218000000002110000000000000000000215000263576000
0202LOTE PADRAO                   ITAUBANCO   PN * EJ    ITAU4       010VISTA          000000000120000000001239000000012000000000000000000001210000010374300
0202LOTE PADRAO                   TELEMAR     ON * EJ    TNLP3       010VISTA          000000000015800000000161000000001575000000000000000000160000012672900
0202LOTE PADRAO                   SID NACIONALON *       CSNA3       010VISTA          000000000030900000000330000000003070000000000000000000324000013264900
0202LOTE PADRAO                   TELE LEST CLPN *       TLCP4       010VISTA          000000000000370000000003900000000036000000000000000000003900063508000
0202LOTE PADRAO                   CRT CELULAR PNA* EJ    CRTP5       010VISTA          000000000315000000003200000000031500000000000000000003190000000114500
0202LOTE PADRAO                   IPIRANGA PETPN *       PTIP4       010VISTA          000000000008600000000089000000000860000000000000000000087000004057300
0202LOTE PADRAO                   BRASIL T PARPN *       BRTP4       010VISTA          000000000017500000000181000000001750000000000000000000180000069733100
0202LOTE PADRAO                   BRASIL T PARON *       BRTP3       010VISTA          000000000012600000000134000000001260000000000000000000132500008019400
0202LOTE PADRAO                   KLABIN S/A  PN         KLBN4       010VISTA          000000000000880000000009200000000088000000000000000000009200000023400
0202LOTE PADRAO                   ACESITA     PN *       ACES4       010VISTA          000000000000620000000006400000000062000000000000000000006300087921300
0202LOTE PADRAO                   PETROBRAS   PN         PETR4       010VISTA          000000000038800000000398000000003800000000000000000000383000000149300
0202LOTE PADRAO                   ELETROBRAS  PNB*       ELET6       010VISTA          000000000015800000000164000000001550000000000000000000160000043403400
0202LOTE PADRAO                   PETROBRAS   ON         PETR3       010VISTA          000000000043000000000440000000004210000000000000000000421000000071800
0202LOTE PADRAO                   COMGAS      PNA*       CGAS5       010VISTA          000000000057900000000580000000005770000000000000000000580000000387000
0202LOTE PADRAO                   SOUZA CRUZ  ON EJ      CRUZ3       010VISTA          000000000017100000000176000000001710000000000000000000176000000014600
0202LOTE PADRAO                   ELETROBRAS  ON *       ELET3       010VISTA          000000000015400000000161000000001540000000000000000000159000028440000
0202LOTE PADRAO                   CELESC      PNB        CLSC6       010VISTA          000000000000510000000005200000000051000000000000000000005100000106400
0202LOTE PADRAO                   BRADESCO    PN * EJ    BBDC4       010VISTA          000000000008000000000083000000000800000000000000000000080000236063000
0202LOTE PADRAO                   CESP        PN *       CESP4       010VISTA          000000000006200000000062000000000620000000000000000000062000001780200
0202LOTE PADRAO                   LIGHT       ON *       LIGH3       010VISTA          000000000055000000000569000000005500000000000000000000569000000089800
0202LOTE PADRAO                   TELESP CL PAPN *       TSPP4       010VISTA          000000000002800000000029000000000277000000000000000000028000248651000
0202LOTE PADRAO                   VALE R DOCE PNA        VALE5       010VISTA          000000000085500000000855000000008475000000000000000000847500000026300
0202LOTE PADRAO                   COPEL       PNB*       CPLE6       010VISTA          000000000008000000000082000000000790000000000000000000079000031826000
0202LOTE PADRAO                   VALE R DOCE ON         VALE3       010VISTA          000000000086500000000879000000008650000000000000000000878000000032600
0202LOTE PADRAO                   ARACRUZ     PNB        ARCZ6       010VISTA          000000000005540000000055000000000540000000000000000000055000000126100
0202LOTE PADRAO                   TELEMIG PARTPN *       TMCP4       010VISTA          000000000002300000000024000000000230000000000000000000024000071122100
0202LOTE PADRAO                   BRASIL TELECPN *       BRTO4       010VISTA          000000000011100000000114000000001100000000000000000000113000047518400
0202LOTE PADRAO                   SABESP      ON *       SBSP3       010VISTA          000000000080000000000817000000008000000000000000000000814000001237900
0202LOTE PADRAO                   BRASKEM     PNA*       BRKM5       010VISTA          000000000242900000002429000000023590000000000000000002359000000169400
0202LOTE PADRAO                   EMBRAER     PN EJ      EMBR4       010VISTA          000000000012600000000132500000001250000000000000000000132000000067500
0202LOTE PADRAO                   TELESP      PN * EJ    TLPP4       010VISTA          000000000030100000000310000000003010000000000000000000310000005017100
0202LOTE PADRAO                   EMBRAER     ON EJ      EMBR3       010VISTA          000000000011800000000123000000001180000000000000000000123000000007000
0202LOTE PADRAO                   AMBEV       PN *       AMBV4       010VISTA          000000000427500000004420000000042750000000000000000004410000002508200
0202LOTE PADRAO                   USIMINAS    PNA        USIM5       010VISTA          000000000004300000000044000000000430000000000000000000043000000053400
0202LOTE PADRAO                   ELETROPAULO PN *       ELPL4       010VISTA          000000000024300000000244000000002325000000000000000000235000002366100
0202LOTE PADRAO                   TELE NORD CLPN *       TNEP4       010VISTA          000000000002100000000022000000000210000000000000000000022000066075700
0202LOTE PADRAO                   CEMIG       PN * EJ    CMIG4       010VISTA          000000000021400000000214000000002060000000000000000000211000047035800
0202LOTE PADRAO                   TELE CL SUL PN * EJ    TCSL4       010VISTA          000000000002300000000023000000000230000000000000000000023000051296300
0202LOTE PADRAO                   TRACTEBEL   ON *       TBLE3       010VISTA          000000000003900000000039000000000380000000000000000000039000066177800
0202LOTE PADRAO                   CEMIG       ON * EJ    CMIG3       010VISTA          000000000020000000000206000000002000000000000000000000202000002781700
0202LOTE PADRAO                   TELE CL SUL ON * EJ    TCSL3       010VISTA          000000000001900000000020000000000190000000000000000000020000005855500
0202LOTE PADRAO                   ITAUSA      PN         ITSA4       010VISTA          000000000001490000000015300000000147000000000000000000015100000318000
0202LOTE PADRAO                   V C P       PN *       VCPA4       010VISTA          000000000108500000001119000000010850000000000000000001090000001560500
0202LOTE PADRAO                   SID TUBARAO PN *       CSTB4       010VISTA          000000000030800000000320000000003080000000000000000000318000011413100
0202LOTE PADRAO                   BRADESPAR   PN *       BRAP4       010VISTA          000000000000440000000004500000000043000000000000000000004500074392300
0202LOTE PADRAO                   NET         PN         PLIM4       010VISTA          000000000000230000000002400000000022000000000000000000002300000403700
0202LOTE PADRAO                   TELE CTR OESPN * EJ    TCOC4       010VISTA          000000000003000000000031000000000298000000000000000000031000099033100
0202LOTE PADRAO                   TELEMAR N L PNA* EJ    TMAR5       010VISTA          000000000040800000000418000000004070000000000000000000413000012043000
0202LOTE PADRAO                   GERDAU      PN * EJ    GGBR4       010VISTA          000000000028600000000295000000002850000000000000000000293000022762200
0202LOTE PADRAO                   BRASIL      ON *       BBAS3       010VISTA          000000000008500000000089000000000830000000000000000000088000017186000
