00BDIN9999BOVESPA 99992002072620020726
0101IBOVESPA                      0096720091550097780000000000000000002002072600000020020726009217000000
0202LOTE PADRAO                   EMBRATEL PARPN *       EBTP4       010VISTA          000000000001700000000017300000000160000000000000000000016000232328000
0202LOTE PADRAO                   TRAN PAULISTPN * EJ    TRPL4       010VISTA          000000000005500000000055000000000500000000000000000000050000007367900
0202LOTE PADRAO                   EMBRATEL PARON *       EBTP3       010VISTA          000000000003000000000031000000000270000000000000000000028000017950000
0202LOTE PADRAO                   TELEMAR     PN * EJ    TNLP4       010VISTA          000000000023300000000236000000002110000000000000000000215000346873000
0202LOTE PADRAO                   ITAUBANCO   PN * EJ    ITAU4       010VISTA          000000000135900000001360000000012500000000000000000001270000053909100
0202LOTE PADRAO                   TELEMAR     ON * EJ    TNLP3       010VISTA          000000000018400000000186000000001660000000000000000000168000009914800
0202LOTE PADRAO                   SID NACIONALON *       CSNA3       010VISTA          000000000048100000000481000000004320000000000000000000448000018653300
0202LOTE PADRAO                   TELE LEST CLPN *       TLCP4       010VISTA          000000000000400000000004100000000038000000000000000000003800143732000
0202LOTE PADRAO                   CRT CELULAR PNA* EJ    CRTP5       010VISTA          000000000385000000003990000000036500000000000000000003800000000887500
0202LOTE PADRAO                   IPIRANGA PETPN *       PTIP4       010VISTA          000000000011500000000119000000001100000000000000000000119000001950200
0202LOTE PADRAO                   BRASIL T PARPN *       BRTP4       010VISTA          000000000014500000000145000000001350000000000000000000135000069651900
0202LOTE PADRAO                   BRASIL T PARON *       BRTP3       010VISTA          000000000012500000000130000000001230000000000000000000124000015679700
0202LOTE PADRAO                   KLABIN S/A  PN         KLBN4       010VISTA          000000000000820000000008500000000081000000000000000000008300000141600
0202LOTE PADRAO                   ACESITA     PN *       ACES4       010VISTA          000000000000610000000006100000000058000000000000000000005800143007000
0202LOTE PADRAO                   PETROBRAS   PN         PETR4       010VISTA          000000000040600000000417000000003880000000000000000000389000000146300
0202LOTE PADRAO                   ELETROBRAS  PNB*       ELET6       010VISTA          000000000021400000000219000000002000000000000000000000203000023691500
0202LOTE PADRAO                   PETROBRAS   ON         PETR3       010VISTA          000000000042500000000445000000004100000000000000000000414000000046800
0202LOTE PADRAO                   COMGAS      PNA*       CGAS5       010VISTA          000000000049500000000495000000004700000000000000000000493000000604400
0202LOTE PADRAO                   SOUZA CRUZ  ON EJ      CRUZ3       010VISTA          000000000014500000000145000000001390000000000000000000139000000025700
0202LOTE PADRAO                   ELETROBRAS  ON *       ELET3       010VISTA          000000000022800000000230000000002000000000000000000000213000012300400
0202LOTE PADRAO                   CELESC      PNB        CLSC6       010VISTA          000000000000530000000005500000000052000000000000000000005400000110400
0202LOTE PADRAO                   BRADESCO    PN * EJ    BBDC4       010VISTA          000000000009500000000096000000000860000000000000000000086000577770000
0202LOTE PADRAO                   CESP        PN *       CESP4       010VISTA          000000000007200000000075000000000700000000000000000000070000006414400
0202LOTE PADRAO                   LIGHT       ON *       LIGH3       010VISTA          000000000077000000000780000000007400000000000000000000740000000130100
0202LOTE PADRAO                   TELESP CL PAPN *       TSPP4       010VISTA          000000000003300000000034000000000320000000000000000000033000184235000
0202LOTE PADRAO                   VALE R DOCE PNA        VALE5       010VISTA          000000000068700000000689000000006550000000000000000000655000000041400
0202LOTE PADRAO                   COPEL       PNB*       CPLE6       010VISTA          000000000010400000000104000000000960000000000000000000098000025582900
0202LOTE PADRAO                   VALE R DOCE ON         VALE3       010VISTA          000000000075000000000750000000007150000000000000000000715000000009700
0202LOTE PADRAO                   ARACRUZ     PNB        ARCZ6       010VISTA          000000000005400000000054000000000520000000000000000000054000000032700
0202LOTE PADRAO                   TELEMIG PARTPN *       TMCP4       010VISTA          000000000003000000000030000000000275000000000000000000027000086529600
0202LOTE PADRAO                   BRASIL TELECPN *       BRTO4       010VISTA          000000000010000000000101000000000940000000000000000000094000098960400
0202LOTE PADRAO                   SABESP      ON *       SBSP3       010VISTA          000000000092000000000920000000008700000000000000000000870000003692900
0202LOTE PADRAO                   BRASKEM     PNA*       BRKM5       010VISTA          000000000377900000003779000000035200000000000000000003520000000073400
0202LOTE PADRAO                   EMBRAER     PN EJ      EMBR4       010VISTA          000000000014100000000143000000001370000000000000000000138000000029000
0202LOTE PADRAO                   TELESP      PN * EJ    TLPP4       010VISTA          000000000032400000000327000000003060000000000000000000310000012062500
0202LOTE PADRAO                   EMBRAER     ON EJ      EMBR3       010VISTA          000000000012900000000129000000001230000000000000000000124000000010500
0202LOTE PADRAO                   AMBEV       PN *       AMBV4       010VISTA          000000000426600000004266000000039700000000000000000004040000002521700
0202LOTE PADRAO                   USIMINAS    PNA        USIM5       010VISTA          000000000005900000000059000000000550000000000000000000056000000088800
0202LOTE PADRAO                   ELETROPAULO PN *       ELPL4       010VISTA          000000000034600000000346000000002810000000000000000000300000006757500
0202LOTE PADRAO                   TELE NORD CLPN *       TNEP4       010VISTA          000000000002500000000025000000000240000000000000000000024000073028000
0202LOTE PADRAO                   CEMIG       PN * EJ    CMIG4       010VISTA          000000000027000000000270000000002500000000000000000000255000050360000
0202LOTE PADRAO                   TELE CL SUL PN * EJ    TCSL4       010VISTA          000000000002800000000029600000000275000000000000000000027000053576300
0202LOTE PADRAO                   TRACTEBEL   ON *       TBLE3       010VISTA          000000000004100000000045000000000400000000000000000000042000018239200
0202LOTE PADRAO                   CEMIG       ON * EJ    CMIG3       010VISTA          000000000026000000000270000000002450000000000000000000253000000603400
0202LOTE PADRAO                   TELE CL SUL ON * EJ    TCSL3       010VISTA          000000000002300000000025000000000220000000000000000000023000031211000
0202LOTE PADRAO                   ITAUSA      PN         ITSA4       010VISTA          000000000001600000000016000000000156000000000000000000015000001206600
0202LOTE PADRAO                   V C P       PN *       VCPA4       010VISTA          000000000095200000000967000000009000000000000000000000920000001587500
0202LOTE PADRAO                   SID TUBARAO PN *       CSTB4       010VISTA          000000000026500000000268000000002560000000000000000000260000012358000
0202LOTE PADRAO                   BRADESPAR   PN *       BRAP4       010VISTA          000000000000490000000005000000000046000000000000000000004700188115000
0202LOTE PADRAO                   NET         PN         PLIM4       010VISTA          000000000001000000000010000000000096000000000000000000009600000418500
0202LOTE PADRAO                   TELE CTR OESPN * EJ    TCOC4       010VISTA          000000000003800000000039400000000370000000000000000000038000084541500
0202LOTE PADRAO                   TELEMAR N L PNA* EJ    TMAR5       010VISTA          000000000040600000000406000000003640000000000000000000375000014824800
0202LOTE PADRAO                   GERDAU      PN * EJ    GGBR4       010VISTA          000000000028500000000285000000002660000000000000000000266000012205100
0202LOTE PADRAO                   BRASIL      ON *       BBAS3       010VISTA          000000000009100000000091000000000860000000000000000000088000006436000
