00BDIN9999BOVESPA 99992002070120020701
0101IBOVESPA                      0111380108530111730000000000000000002002070100000020020701010892000000
0202LOTE PADRAO                   EMBRATEL PARPN *       EBTP4       010VISTA          000000000001540000000018000000000151000000000000000000017901176920000
0202LOTE PADRAO                   TRAN PAULISTPN * EJ    TRPL4       010VISTA          000000000006100000000061000000000590000000000000000000060000011776200
0202LOTE PADRAO                   EMBRATEL PARON *       EBTP3       010VISTA          000000000002980000000032500000000298000000000000000000031000060667500
0202LOTE PADRAO                   TELEMAR     PN * EJ    TNLP4       010VISTA          000000000028300000000283000000002710000000000000000000271000185315000
0202LOTE PADRAO                   ITAUBANCO   PN * EJ    ITAU4       010VISTA          000000000160000000001600000000015600000000000000000001580000004221500
0202LOTE PADRAO                   TELEMAR     ON * EJ    TNLP3       010VISTA          000000000023000000000235000000002230000000000000000000224000007173000
0202LOTE PADRAO                   SID NACIONALON *       CSNA3       010VISTA          000000000045300000000469000000004500000000000000000000458000028000100
0202LOTE PADRAO                   TELE LEST CLPN *       TLCP4       010VISTA          000000000000580000000005900000000056000000000000000000005900104011000
0202LOTE PADRAO                   CRT CELULAR PNA* EJ    CRTP5       010VISTA          000000000402000000004020000000038000000000000000000003970000000289300
0202LOTE PADRAO                   IPIRANGA PETPN *       PTIP4       010VISTA          000000000012300000000123000000001120000000000000000000119000001004000
0202LOTE PADRAO                   BRASIL T PARPN *       BRTP4       010VISTA          000000000015750000000161000000001540000000000000000000154000035153600
0202LOTE PADRAO                   BRASIL T PARON *       BRTP3       010VISTA          000000000014200000000149000000001400000000000000000000143000006988100
0202LOTE PADRAO                   KLABIN S/A  PN         KLBN4       010VISTA          000000000000980000000009800000000088000000000000000000008900000027500
0202LOTE PADRAO                   ACESITA     PN *       ACES4       010VISTA          000000000000610000000006200000000059000000000000000000005900077458000
0202LOTE PADRAO                   PETROBRAS   PN         PETR4       010VISTA          000000000049500000000495000000004770000000000000000000480000000061600
0202LOTE PADRAO                   ELETROBRAS  PNB*       ELET6       010VISTA          000000000026600000000271000000002630000000000000000000270000037702800
0202LOTE PADRAO                   PETROBRAS   ON         PETR3       010VISTA          000000000053500000000535000000005220000000000000000000527500000018600
0202LOTE PADRAO                   COMGAS      PNA*       CGAS5       010VISTA          000000000062200000000622000000005660000000000000000000574000000680500
0202LOTE PADRAO                   SOUZA CRUZ  ON EJ      CRUZ3       010VISTA          000000000014600000000146000000001400000000000000000000140000000013900
0202LOTE PADRAO                   ELETROBRAS  ON *       ELET3       010VISTA          000000000029800000000301000000002930000000000000000000295000008091800
0202LOTE PADRAO                   CELESC      PNB        CLSC6       010VISTA          000000000000600000000006000000000058000000000000000000005800000188600
0202LOTE PADRAO                   BRADESCO    PN * EJ    BBDC4       010VISTA          000000000011000000000111000000001090000000000000000000110000094201600
0202LOTE PADRAO                   CESP        PN *       CESP4       010VISTA          000000000008900000000089000000000850000000000000000000088000011943900
0202LOTE PADRAO                   LIGHT       ON *       LIGH3       010VISTA          000000000086000000000879000000008600000000000000000000860000000254600
0202LOTE PADRAO                   TELESP CL PAPN *       TSPP4       010VISTA          000000000003800000000039000000000371000000000000000000038000434156000
0202LOTE PADRAO                   VALE R DOCE PNA        VALE5       010VISTA          000000000073000000000730000000007100000000000000000000725000000012100
0202LOTE PADRAO                   COPEL       PNB*       CPLE6       010VISTA          000000000011500000000115000000001110000000000000000000113000069927400
0202LOTE PADRAO                   VALE R DOCE ON         VALE3       010VISTA          000000000077300000000787000000007720000000000000000000782000000004600
0202LOTE PADRAO                   ARACRUZ     PNB        ARCZ6       010VISTA          000000000005600000000056000000000550000000000000000000055000000061900
0202LOTE PADRAO                   TELEMIG PARTPN *       TMCP4       010VISTA          000000000002800000000028000000000280000000000000000000028000065093200
0202LOTE PADRAO                   BRASIL TELECPN *       BRTO4       010VISTA          000000000011200000000113000000001060000000000000000000108000052404600
0202LOTE PADRAO                   SABESP      ON *       SBSP3       010VISTA          000000000100400000001009000000009500000000000000000000950000002705500
0202LOTE PADRAO                   BRASKEM     PNA*       BRKM5       010VISTA          000000000398900000003989000000038500000000000000000003890000000079800
0202LOTE PADRAO                   EMBRAER     PN EJ      EMBR4       010VISTA          000000000014900000000152500000001490000000000000000000151000000042600
0202LOTE PADRAO                   TELESP      PN * EJ    TLPP4       010VISTA          000000000034900000000349000000003240000000000000000000325000013863500
0202LOTE PADRAO                   EMBRAER     ON EJ      EMBR3       010VISTA          000000000013700000000139000000001350000000000000000000136000000019400
0202LOTE PADRAO                   AMBEV       PN *       AMBV4       010VISTA          000000000440000000004620000000043140000000000000000004360000004979600
0202LOTE PADRAO                   USIMINAS    PNA        USIM5       010VISTA          000000000006700000000068000000000654000000000000000000065400000042300
0202LOTE PADRAO                   ELETROPAULO PN *       ELPL4       010VISTA          000000000043100000000433000000004100000000000000000000430000002256600
0202LOTE PADRAO                   TELE NORD CLPN *       TNEP4       010VISTA          000000000002600000000026000000000250000000000000000000025000093717300
0202LOTE PADRAO                   CEMIG       PN * EJ    CMIG4       010VISTA          000000000031500000000316000000003120000000000000000000315000017500600
0202LOTE PADRAO                   TELE CL SUL PN * EJ    TCSL4       010VISTA          000000000003100000000031000000000290000000000000000000030000087462000
0202LOTE PADRAO                   TRACTEBEL   ON *       TBLE3       010VISTA          000000000003810000000040000000000370000000000000000000040000016983500
0202LOTE PADRAO                   CEMIG       ON * EJ    CMIG3       010VISTA          000000000028700000000287500000002800000000000000000000285000000576100
0202LOTE PADRAO                   TELE CL SUL ON * EJ    TCSL3       010VISTA          000000000002600000000026000000000230000000000000000000023000049528800
0202LOTE PADRAO                   ITAUSA      PN         ITSA4       010VISTA          000000000001800000000019000000000180000000000000000000018000000241300
0202LOTE PADRAO                   V C P       PN *       VCPA4       010VISTA          000000000106500000001070000000010300000000000000000001040000002180800
0202LOTE PADRAO                   SID TUBARAO PN *       CSTB4       010VISTA          000000000028500000000285000000002730000000000000000000280000003920100
0202LOTE PADRAO                   BRADESPAR   PN *       BRAP4       010VISTA          000000000000550000000005500000000051000000000000000000005100256502000
0202LOTE PADRAO                   NET         PN         PLIM4       010VISTA          000000000001700000000017900000000160000000000000000000017100000170000
0202LOTE PADRAO                   TELE CTR OESPN * EJ    TCOC4       010VISTA          000000000004100000000041000000000380000000000000000000039600078897800
0202LOTE PADRAO                   TELEMAR N L PNA* EJ    TMAR5       010VISTA          000000000051000000000510000000004810000000000000000000485000014795400
0202LOTE PADRAO                   GERDAU      PN * EJ    GGBR4       010VISTA          000000000029000000000298000000002900000000000000000000298000012668500
0202LOTE PADRAO                   BRASIL      ON *       BBAS3       010VISTA          000000000008900000000089000000000850000000000000000000085000006320300
