00BDIN9999BOVESPA 99992002111820021118
0101IBOVESPA                      0099100099100101000000000000000000002002111800000020021118009971000000
0202LOTE PADRAO                   EMBRATEL PARPN *       EBTP4       010VISTA          000000000002100000000023000000000210000000000000000000022000423037000
0202LOTE PADRAO                   TRAN PAULISTPN * EJ    TRPL4       010VISTA          000000000005250000000052500000000510000000000000000000052000009120000
0202LOTE PADRAO                   EMBRATEL PARON *       EBTP3       010VISTA          000000000002600000000028000000000260000000000000000000027500039745500
0202LOTE PADRAO                   TELEMAR     PN * EJ    TNLP4       010VISTA          000000000024600000000250000000002450000000000000000000246000308168000
0202LOTE PADRAO                   ITAUBANCO   PN * EJ    ITAU4       010VISTA          000000000149500000001504000000014850000000000000000001494000011368900
0202LOTE PADRAO                   TELEMAR     ON * EJ    TNLP3       010VISTA          000000000018300000000188000000001800000000000000000000181000011276000
0202LOTE PADRAO                   SID NACIONALON *       CSNA3       010VISTA          000000000044000000000452000000004400000000000000000000450000026875500
0202LOTE PADRAO                   TELE LEST CLPN *       TLCP4       010VISTA          000000000000400000000004100000000039000000000000000000004000201763000
0202LOTE PADRAO                   CRT CELULAR PNA* EJ    CRTP5       010VISTA          000000000316900000003169000000031000000000000000000003130000000415800
0202LOTE PADRAO                   IPIRANGA PETPN *       PTIP4       010VISTA          000000000007700000000078000000000760000000000000000000078000001980000
0202LOTE PADRAO                   BRASIL T PARPN *       BRTP4       010VISTA          000000000017500000000178000000001700000000000000000000170000076273800
0202LOTE PADRAO                   BRASIL T PARON *       BRTP3       010VISTA          000000000013500000000136000000001310000000000000000000131000004089700
0202LOTE PADRAO                   KLABIN S/A  PN         KLBN4       010VISTA          000000000001000000000010000000000100000000000000000000010000000019600
0202LOTE PADRAO                   ACESITA     PN *       ACES4       010VISTA          000000000000750000000008000000000074000000000000000000007400180793000
0202LOTE PADRAO                   PETROBRAS   PN         PETR4       010VISTA          000000000043400000000445000000004340000000000000000000441000000085100
0202LOTE PADRAO                   ELETROBRAS  PNB*       ELET6       010VISTA          000000000018500000000186000000001830000000000000000000184000052174900
0202LOTE PADRAO                   PETROBRAS   ON         PETR3       010VISTA          000000000048500000000491000000004800000000000000000000490000000034400
0202LOTE PADRAO                   COMGAS      PNA*       CGAS5       010VISTA          000000000058800000000588000000005650000000000000000000565000000422000
0202LOTE PADRAO                   SOUZA CRUZ  ON EJ      CRUZ3       010VISTA          000000000019000000000190000000001850000000000000000000185000000011000
0202LOTE PADRAO                   ELETROBRAS  ON *       ELET3       010VISTA          000000000018600000000193000000001860000000000000000000191000017772100
0202LOTE PADRAO                   CELESC      PNB        CLSC6       010VISTA          000000000000500000000005100000000049000000000000000000005000000084600
0202LOTE PADRAO                   BRADESCO    PN * EJ    BBDC4       010VISTA          000000000009100000000093000000000900000000000000000000091000175831000
0202LOTE PADRAO                   CESP        PN *       CESP4       010VISTA          000000000006250000000063000000000620000000000000000000062000009700000
0202LOTE PADRAO                   LIGHT       ON *       LIGH3       010VISTA          000000000058000000000590000000005600000000000000000000579000000339000
0202LOTE PADRAO                   TELESP CL PAPN *       TSPP4       010VISTA          000000000003800000000039000000000380000000000000000000038000380731000
0202LOTE PADRAO                   VALE R DOCE PNA        VALE5       010VISTA          000000000090500000000930000000009040000000000000000000920000000013800
0202LOTE PADRAO                   COPEL       PNB*       CPLE6       010VISTA          000000000007800000000078000000000750000000000000000000076000022894600
0202LOTE PADRAO                   VALE R DOCE ON         VALE3       010VISTA          000000000094000000001000000000009400000000000000000000985000000019900
0202LOTE PADRAO                   ARACRUZ     PNB        ARCZ6       010VISTA          000000000005700000000057000000000560000000000000000000057000000062400
0202LOTE PADRAO                   TELEMIG PARTPN *       TMCP4       010VISTA          000000000003100000000031000000000296000000000000000000030000128582000
0202LOTE PADRAO                   BRASIL TELECPN *       BRTO4       010VISTA          000000000011000000000113000000001100000000000000000000110000077732000
0202LOTE PADRAO                   SABESP      ON *       SBSP3       010VISTA          000000000087000000000870000000008550000000000000000000855000003935500
0202LOTE PADRAO                   BRASKEM     PNA*       BRKM5       010VISTA          000000000225000000002250000000021500000000000000000002150000000184300
0202LOTE PADRAO                   EMBRAER     PN EJ      EMBR4       010VISTA          000000000013500000000136000000001325000000000000000000132500000067100
0202LOTE PADRAO                   TELESP      PN * EJ    TLPP4       010VISTA          000000000036000000000362000000003550000000000000000000362000007546600
0202LOTE PADRAO                   EMBRAER     ON EJ      EMBR3       010VISTA          000000000012700000000128000000001230000000000000000000124000000012900
0202LOTE PADRAO                   AMBEV       PN *       AMBV4       010VISTA          000000000530000000005370000000052900000000000000000005345000000744400
0202LOTE PADRAO                   USIMINAS    PNA        USIM5       010VISTA          000000000005400000000055000000000530000000000000000000054000000065700
0202LOTE PADRAO                   ELETROPAULO PN *       ELPL4       010VISTA          000000000024100000000252500000002410000000000000000000248000001938100
0202LOTE PADRAO                   TELE NORD CLPN *       TNEP4       010VISTA          000000000002600000000026000000000240000000000000000000024000092558700
0202LOTE PADRAO                   CEMIG       PN * EJ    CMIG4       010VISTA          000000000024100000000246000000002320000000000000000000232000024002100
0202LOTE PADRAO                   TELE CL SUL PN * EJ    TCSL4       010VISTA          000000000002700000000028000000000260000000000000000000027000075722300
0202LOTE PADRAO                   TRACTEBEL   ON *       TBLE3       010VISTA          000000000003200000000033000000000310000000000000000000032700003260000
0202LOTE PADRAO                   CEMIG       ON * EJ    CMIG3       010VISTA          000000000021800000000219000000002130000000000000000000213000002129600
0202LOTE PADRAO                   TELE CL SUL ON * EJ    TCSL3       010VISTA          000000000002000000000020000000000200000000000000000000020000019254200
0202LOTE PADRAO                   ITAUSA      PN         ITSA4       010VISTA          000000000001770000000018100000000177000000000000000000017800000205500
0202LOTE PADRAO                   V C P       PN *       VCPA4       010VISTA          000000000114200000001142000000011000000000000000000001130000005307200
0202LOTE PADRAO                   SID TUBARAO PN *       CSTB4       010VISTA          000000000034600000000355000000003300000000000000000000333000004427000
0202LOTE PADRAO                   BRADESPAR   PN *       BRAP4       010VISTA          000000000000480000000004900000000047000000000000000000004700151574000
0202LOTE PADRAO                   NET         PN         PLIM4       010VISTA          000000000000360000000003600000000032000000000000000000003200000804000
0202LOTE PADRAO                   TELE CTR OESPN * EJ    TCOC4       010VISTA          000000000003900000000039000000000370000000000000000000038000138597000
0202LOTE PADRAO                   TELEMAR N L PNA* EJ    TMAR5       010VISTA          000000000042500000000435000000004250000000000000000000427500014141900
0202LOTE PADRAO                   GERDAU      PN * EJ    GGBR4       010VISTA          000000000032500000000325000000003150000000000000000000320000016620500
0202LOTE PADRAO                   BRASIL      ON *       BBAS3       010VISTA          000000000010300000000104000000001000000000000000000000101000052853100
