00BDIN9999BOVESPA 99992002020420020204
0101IBOVESPA                      0126480124160126550000000000000000002002020400000020020204012513000000
0202LOTE PADRAO                   EMBRATEL PARPN *       EBTP4       010VISTA          000000000008400000000084000000000800000000000000000000080000097406100
0202LOTE PADRAO                   EMBRATEL PARON *       EBTP3       010VISTA          000000000010200000000102000000000980000000000000000000098000038887600
0202LOTE PADRAO                   TRAN PAULISTPN * EJ    TRPL4       010VISTA          000000000007000000000070000000000675000000000000000000067000012833100
0202LOTE PADRAO                   TELEMAR     PN * EJ    TNLP4       010VISTA          000000000031100000000313000000003040000000000000000000306000164136000
0202LOTE PADRAO                   ITAUBANCO   PN * EJ    ITAU4       010VISTA          000000000168100000001749000000016590000000000000000001690000006917500
0202LOTE PADRAO                   TELEMAR     ON * EJ    TNLP3       010VISTA          000000000026600000000270000000002600000000000000000000268000010341300
0202LOTE PADRAO                   SID NACIONALON *       CSNA3       010VISTA          000000000037500000000375000000003700000000000000000000373000009057500
0202LOTE PADRAO                   TELE LEST CLPN *       TLCP4       010VISTA          000000000000870000000009000000000085000000000000000000009000094893000
0202LOTE PADRAO                   CRT CELULAR PNA* EJ    CRTP5       010VISTA          000000000442000000004420000000042500000000000000000004290000000490600
0202LOTE PADRAO                   IPIRANGA PETPN *       PTIP4       010VISTA          000000000012100000000122000000001200000000000000000000122000002454000
0202LOTE PADRAO                   BRASIL T PARPN *       BRTP4       010VISTA          000000000016500000000167500000001600000000000000000000166000076969000
0202LOTE PADRAO                   BRASIL T PARON *       BRTP3       010VISTA          000000000016000000000166000000001600000000000000000000163000008623600
0202LOTE PADRAO                   KLABIN S/A  PN         KLBN4       010VISTA          000000000001100000000011000000000100000000000000000000010000000037100
0202LOTE PADRAO                   ACESITA     PN *       ACES4       010VISTA          000000000000630000000006300000000060000000000000000000006100131682000
0202LOTE PADRAO                   PETROBRAS   PN         PETR4       010VISTA          000000000048200000000482000000004750000000000000000000478000000074200
0202LOTE PADRAO                   ELETROBRAS  PNB*       ELET6       010VISTA          000000000032400000000329000000003200000000000000000000327000056855500
0202LOTE PADRAO                   PETROBRAS   ON         PETR3       010VISTA          000000000049000000000499000000004900000000000000000000493000000022200
0202LOTE PADRAO                   COMGAS      PNA*       CGAS5       010VISTA          000000000086500000000865000000008400000000000000000000860000001595800
0202LOTE PADRAO                   SOUZA CRUZ  ON EJ      CRUZ3       010VISTA          000000000014100000000143000000001410000000000000000000141000000009700
0202LOTE PADRAO                   ELETROBRAS  ON *       ELET3       010VISTA          000000000037000000000377000000003670000000000000000000375000015737000
0202LOTE PADRAO                   CELESC      PNB        CLSC6       010VISTA          000000000000480000000004900000000048000000000000000000004900000084400
0202LOTE PADRAO                   BRADESCO    PN * EJ    BBDC4       010VISTA          000000000011800000000120000000001170000000000000000000120000161828000
0202LOTE PADRAO                   CESP        PN *       CESP4       010VISTA          000000000014900000000150000000001440000000000000000000150000006394000
0202LOTE PADRAO                   LIGHT       ON *       LIGH3       010VISTA          000000000124000000001250000000012000000000000000000001250000000678300
0202LOTE PADRAO                   TELESP CL PAPN *       TSPP4       010VISTA          000000000007000000000071000000000690000000000000000000069000144064000
0202LOTE PADRAO                   VALE R DOCE PNA        VALE5       010VISTA          000000000054200000000560000000005420000000000000000000556000000027900
0202LOTE PADRAO                   COPEL       PNB*       CPLE6       010VISTA          000000000017000000000170000000001610000000000000000000168000016734000
0202LOTE PADRAO                   VALE R DOCE ON         VALE3       010VISTA          000000000054000000000545000000005400000000000000000000545000000001500
0202LOTE PADRAO                   ARACRUZ     PNB        ARCZ6       010VISTA          000000000004100000000044000000000410000000000000000000043000000037800
0202LOTE PADRAO                   TELEMIG PARTPN *       TMCP4       010VISTA          000000000003500000000035000000000330000000000000000000033000075962400
0202LOTE PADRAO                   BRASIL TELECPN *       BRTO4       010VISTA          000000000012000000000120000000001175000000000000000000118000078112800
0202LOTE PADRAO                   SABESP      ON *       SBSP3       010VISTA          000000000140000000001400000000013700000000000000000001395000002219800
0202LOTE PADRAO                   BRASKEM     PNA*       BRKM5       010VISTA          000000000559900000005599000000052000000000000000000005249000000240000
0202LOTE PADRAO                   EMBRAER     PN EJ      EMBR4       010VISTA          000000000012900000000134000000001290000000000000000000133000000029700
0202LOTE PADRAO                   TELESP      PN * EJ    TLPP4       010VISTA          000000000028300000000285000000002800000000000000000000283000011281000
0202LOTE PADRAO                   EMBRAER     ON EJ      EMBR3       010VISTA          000000000012000000000120000000001160000000000000000000120000000017100
0202LOTE PADRAO                   AMBEV       PN *       AMBV4       010VISTA          000000000453000000004620000000045000000000000000000004525000001144200
0202LOTE PADRAO                   USIMINAS    PNA        USIM5       010VISTA          000000000007000000000071000000000690000000000000000000071000000032500
0202LOTE PADRAO                   ELETROPAULO PN *       ELPL4       010VISTA          000000000072200000000729000000007040000000000000000000720000002404900
0202LOTE PADRAO                   TELE NORD CLPN *       TNEP4       010VISTA          000000000002770000000028000000000275000000000000000000027000075332300
0202LOTE PADRAO                   CEMIG       PN * EJ    CMIG4       010VISTA          000000000034200000000342000000003310000000000000000000335000039324400
0202LOTE PADRAO                   TELE CL SUL PN * EJ    TCSL4       010VISTA          000000000003000000000031000000000290000000000000000000030000067161500
0202LOTE PADRAO                   CEMIG       ON * EJ    CMIG3       010VISTA          000000000030000000000300000000002850000000000000000000293000000700600
0202LOTE PADRAO                   TELE CL SUL ON * EJ    TCSL3       010VISTA          000000000002600000000027100000000250000000000000000000027100017115200
0202LOTE PADRAO                   ITAUSA      PN         ITSA4       010VISTA          000000000002000000000021000000000200000000000000000000021000000514700
0202LOTE PADRAO                   V C P       PN *       VCPA4       010VISTA          000000000079300000000802000000007900000000000000000000802000002809400
0202LOTE PADRAO                   SID TUBARAO PN *       CSTB4       010VISTA          000000000021300000000215000000002100000000000000000000211000004000900
0202LOTE PADRAO                   BRADESPAR   PN *       BRAP4       010VISTA          000000000000720000000007200000000068000000000000000000006900177393000
0202LOTE PADRAO                   NET         PN         PLIM4       010VISTA          000000000000590000000006000000000058000000000000000000005800000674000
0202LOTE PADRAO                   TELE CTR OESPN * EJ    TCOC4       010VISTA          000000000004400000000044000000000430000000000000000000043000067693100
0202LOTE PADRAO                   TELEMAR N L PNA* EJ    TMAR5       010VISTA          000000000052500000000525000000005170000000000000000000520000011590200
0202LOTE PADRAO                   GERDAU      PN * EJ    GGBR4       010VISTA          000000000023250000000233000000002290000000000000000000233000013384500
0202LOTE PADRAO                   BRASIL      ON *       BBAS3       010VISTA          000000000008900000000091000000000890000000000000000000090000003227400
