00BDIN9999BOVESPA 99992002092320020923
0101IBOVESPA                      0095750091370095750000000000000000002002092300000020020923009264000000
0202LOTE PADRAO                   EMBRATEL PARPN *       EBTP4       010VISTA          000000000002300000000023000000000230000000000000000000023000241566000
0202LOTE PADRAO                   TRAN PAULISTPN * EJ    TRPL4       010VISTA          000000000005100000000052000000000500000000000000000000052000006783500
0202LOTE PADRAO                   EMBRATEL PARON *       EBTP3       010VISTA          000000000002960000000029000000000280000000000000000000029400036433000
0202LOTE PADRAO                   TELEMAR     PN * EJ    TNLP4       010VISTA          000000000023600000000236000000002280000000000000000000231000161553000
0202LOTE PADRAO                   ITAUBANCO   PN * EJ    ITAU4       010VISTA          000000000127500000001300000000012400000000000000000001257000007266600
0202LOTE PADRAO                   TELEMAR     ON * EJ    TNLP3       010VISTA          000000000017500000000175000000001710000000000000000000175000010438100
0202LOTE PADRAO                   SID NACIONALON *       CSNA3       010VISTA          000000000034700000000350000000003200000000000000000000326000016121800
0202LOTE PADRAO                   TELE LEST CLPN *       TLCP4       010VISTA          000000000000400000000004000000000038000000000000000000003900150149000
0202LOTE PADRAO                   CRT CELULAR PNA* EJ    CRTP5       010VISTA          000000000340000000003450000000032600000000000000000003450000000262100
0202LOTE PADRAO                   IPIRANGA PETPN *       PTIP4       010VISTA          000000000009500000000099000000000950000000000000000000099000001200000
0202LOTE PADRAO                   BRASIL T PARPN *       BRTP4       010VISTA          000000000017000000000171000000001675000000000000000000171000067826400
0202LOTE PADRAO                   BRASIL T PARON *       BRTP3       010VISTA          000000000012800000000132000000001250000000000000000000132000002722800
0202LOTE PADRAO                   KLABIN S/A  PN         KLBN4       010VISTA          000000000000910000000009100000000086000000000000000000008900000017200
0202LOTE PADRAO                   ACESITA     PN *       ACES4       010VISTA          000000000000600000000006000000000059000000000000000000006000065498000
0202LOTE PADRAO                   PETROBRAS   PN         PETR4       010VISTA          000000000042800000000428000000004170000000000000000000422000000099600
0202LOTE PADRAO                   ELETROBRAS  PNB*       ELET6       010VISTA          000000000017800000000178000000001725000000000000000000175000039735900
0202LOTE PADRAO                   PETROBRAS   ON         PETR3       010VISTA          000000000048300000000483000000004600000000000000000000472000000048300
0202LOTE PADRAO                   COMGAS      PNA*       CGAS5       010VISTA          000000000057000000000571000000005600000000000000000000570000000241300
0202LOTE PADRAO                   SOUZA CRUZ  ON EJ      CRUZ3       010VISTA          000000000015000000000152000000001450000000000000000000152000000002900
0202LOTE PADRAO                   ELETROBRAS  ON *       ELET3       010VISTA          000000000018000000000181000000001760000000000000000000178000019223600
0202LOTE PADRAO                   CELESC      PNB        CLSC6       010VISTA          000000000000530000000005400000000052000000000000000000005400000213600
0202LOTE PADRAO                   BRADESCO    PN * EJ    BBDC4       010VISTA          000000000008800000000088000000000850000000000000000000087000388999000
0202LOTE PADRAO                   CESP        PN *       CESP4       010VISTA          000000000006600000000066000000000620000000000000000000065400005423100
0202LOTE PADRAO                   LIGHT       ON *       LIGH3       010VISTA          000000000059300000000598000000005860000000000000000000598000001060100
0202LOTE PADRAO                   TELESP CL PAPN *       TSPP4       010VISTA          000000000002800000000028000000000273000000000000000000027900504327000
0202LOTE PADRAO                   VALE R DOCE PNA        VALE5       010VISTA          000000000078100000000810000000007800000000000000000000810000000011000
0202LOTE PADRAO                   COPEL       PNB*       CPLE6       010VISTA          000000000008600000000086000000000820000000000000000000085000020842400
0202LOTE PADRAO                   VALE R DOCE ON         VALE3       010VISTA          000000000085750000000862000000008400000000000000000000862000000019400
0202LOTE PADRAO                   ARACRUZ     PNB        ARCZ6       010VISTA          000000000005200000000055000000000520000000000000000000055000000061000
0202LOTE PADRAO                   TELEMIG PARTPN *       TMCP4       010VISTA          000000000002770000000028000000000270000000000000000000027000098903400
0202LOTE PADRAO                   BRASIL TELECPN *       BRTO4       010VISTA          000000000011000000000110000000001075000000000000000000109000093332400
0202LOTE PADRAO                   SABESP      ON *       SBSP3       010VISTA          000000000081500000000815000000007875000000000000000000800000001934400
0202LOTE PADRAO                   BRASKEM     PNA*       BRKM5       010VISTA          000000000243600000002436000000023500000000000000000002350000000038500
0202LOTE PADRAO                   EMBRAER     PN EJ      EMBR4       010VISTA          000000000012500000000129000000001230000000000000000000129000000039400
0202LOTE PADRAO                   TELESP      PN * EJ    TLPP4       010VISTA          000000000031500000000318000000003070000000000000000000318000006319300
0202LOTE PADRAO                   EMBRAER     ON EJ      EMBR3       010VISTA          000000000011200000000117000000001120000000000000000000117000000017600
0202LOTE PADRAO                   AMBEV       PN *       AMBV4       010VISTA          000000000410000000004239000000041000000000000000000004230000001384000
0202LOTE PADRAO                   USIMINAS    PNA        USIM5       010VISTA          000000000005200000000052000000000490000000000000000000049000000057900
0202LOTE PADRAO                   ELETROPAULO PN *       ELPL4       010VISTA          000000000029000000000290000000002750000000000000000000283000003594800
0202LOTE PADRAO                   TELE NORD CLPN *       TNEP4       010VISTA          000000000002300000000024000000000230000000000000000000023000067131300
0202LOTE PADRAO                   CEMIG       PN * EJ    CMIG4       010VISTA          000000000023600000000240000000002250000000000000000000231000058310400
0202LOTE PADRAO                   TELE CL SUL PN * EJ    TCSL4       010VISTA          000000000002500000000026000000000252000000000000000000025000062539900
0202LOTE PADRAO                   TRACTEBEL   ON *       TBLE3       010VISTA          000000000003800000000039000000000375000000000000000000039000000850000
0202LOTE PADRAO                   CEMIG       ON * EJ    CMIG3       010VISTA          000000000022800000000228000000002180000000000000000000224000000362200
0202LOTE PADRAO                   TELE CL SUL ON * EJ    TCSL3       010VISTA          000000000002000000000021000000000200000000000000000000021000014481100
0202LOTE PADRAO                   ITAUSA      PN         ITSA4       010VISTA          000000000001550000000015500000000152000000000000000000015400000100500
0202LOTE PADRAO                   V C P       PN *       VCPA4       010VISTA          000000000100000000001020000000010000000000000000000001019000000683300
0202LOTE PADRAO                   SID TUBARAO PN *       CSTB4       010VISTA          000000000026000000000264000000002530000000000000000000263000016910000
0202LOTE PADRAO                   BRADESPAR   PN *       BRAP4       010VISTA          000000000000450000000004500000000044000000000000000000004500055639500
0202LOTE PADRAO                   NET         PN         PLIM4       010VISTA          000000000000380000000003800000000035000000000000000000003700000602900
0202LOTE PADRAO                   TELE CTR OESPN * EJ    TCOC4       010VISTA          000000000003200000000032000000000300000000000000000000032000050531800
0202LOTE PADRAO                   TELEMAR N L PNA* EJ    TMAR5       010VISTA          000000000041200000000425000000004100000000000000000000425000014998700
0202LOTE PADRAO                   GERDAU      PN * EJ    GGBR4       010VISTA          000000000030100000000305000000002900000000000000000000302000014002600
0202LOTE PADRAO                   BRASIL      ON *       BBAS3       010VISTA          000000000009300000000093000000000875000000000000000000088000027826600
