00BDIN9999BOVESPA 99992002071720020717
0101IBOVESPA                      0105890105890108140000000000000000002002071700000020020717010755000000
0202LOTE PADRAO                   EMBRATEL PARPN *       EBTP4       010VISTA          000000000001600000000016000000000152000000000000000000015400328971000
0202LOTE PADRAO                   TRAN PAULISTPN * EJ    TRPL4       010VISTA          000000000005700000000058000000000560000000000000000000058000004768000
0202LOTE PADRAO                   EMBRATEL PARON *       EBTP3       010VISTA          000000000002600000000026000000000220000000000000000000022000036718500
0202LOTE PADRAO                   TELEMAR     PN * EJ    TNLP4       010VISTA          000000000027000000000271000000002620000000000000000000268000240627000
0202LOTE PADRAO                   ITAUBANCO   PN * EJ    ITAU4       010VISTA          000000000165000000001650000000016260000000000000000001640000005508100
0202LOTE PADRAO                   TELEMAR     ON * EJ    TNLP3       010VISTA          000000000021100000000213000000002030000000000000000000206000055618900
0202LOTE PADRAO                   SID NACIONALON *       CSNA3       010VISTA          000000000059000000000590000000005150000000000000000000540000186555000
0202LOTE PADRAO                   TELE LEST CLPN *       TLCP4       010VISTA          000000000000520000000005400000000051000000000000000000005200116064000
0202LOTE PADRAO                   CRT CELULAR PNA* EJ    CRTP5       010VISTA          000000000390000000004000000000037900000000000000000004000000000246900
0202LOTE PADRAO                   IPIRANGA PETPN *       PTIP4       010VISTA          000000000013000000000130000000001260000000000000000000130000001223700
0202LOTE PADRAO                   BRASIL T PARPN *       BRTP4       010VISTA          000000000016400000000165000000001610000000000000000000164000061307000
0202LOTE PADRAO                   BRASIL T PARON *       BRTP3       010VISTA          000000000013300000000136000000001330000000000000000000136000034582200
0202LOTE PADRAO                   KLABIN S/A  PN         KLBN4       010VISTA          000000000000850000000008700000000084000000000000000000008700000024800
0202LOTE PADRAO                   ACESITA     PN *       ACES4       010VISTA          000000000000600000000006100000000058000000000000000000006100094558300
0202LOTE PADRAO                   PETROBRAS   PN         PETR4       010VISTA          000000000045300000000461000000004530000000000000000000457000000066200
0202LOTE PADRAO                   ELETROBRAS  PNB*       ELET6       010VISTA          000000000024000000000241000000002320000000000000000000233000054915300
0202LOTE PADRAO                   PETROBRAS   ON         PETR3       010VISTA          000000000049500000000502000000004940000000000000000000500000000077200
0202LOTE PADRAO                   COMGAS      PNA*       CGAS5       010VISTA          000000000057000000000598000000005500000000000000000000598000000509500
0202LOTE PADRAO                   SOUZA CRUZ  ON EJ      CRUZ3       010VISTA          000000000014900000000150000000001480000000000000000000149000000004300
0202LOTE PADRAO                   ELETROBRAS  ON *       ELET3       010VISTA          000000000026500000000266000000002560000000000000000000258000013128700
0202LOTE PADRAO                   CELESC      PNB        CLSC6       010VISTA          000000000000570000000005900000000056000000000000000000005900000326400
0202LOTE PADRAO                   BRADESCO    PN * EJ    BBDC4       010VISTA          000000000011000000000115000000001100000000000000000000115000189192000
0202LOTE PADRAO                   CESP        PN *       CESP4       010VISTA          000000000008000000000081000000000780000000000000000000079000009414300
0202LOTE PADRAO                   LIGHT       ON *       LIGH3       010VISTA          000000000084000000000849000000008250000000000000000000825000000109900
0202LOTE PADRAO                   TELESP CL PAPN *       TSPP4       010VISTA          000000000003500000000035000000000340000000000000000000034000244531000
0202LOTE PADRAO                   VALE R DOCE PNA        VALE5       010VISTA          000000000069900000000700000000006850000000000000000000697000000022300
0202LOTE PADRAO                   COPEL       PNB*       CPLE6       010VISTA          000000000011900000000120000000001160000000000000000000117500058474900
0202LOTE PADRAO                   VALE R DOCE ON         VALE3       010VISTA          000000000078400000000795000000007780000000000000000000782000000001100
0202LOTE PADRAO                   ARACRUZ     PNB        ARCZ6       010VISTA          000000000005300000000055000000000530000000000000000000055000000111700
0202LOTE PADRAO                   TELEMIG PARTPN *       TMCP4       010VISTA          000000000003000000000032000000000300000000000000000000032000126177000
0202LOTE PADRAO                   BRASIL TELECPN *       BRTO4       010VISTA          000000000011300000000114000000001100000000000000000000112500033952500
0202LOTE PADRAO                   SABESP      ON *       SBSP3       010VISTA          000000000095500000000970000000009500000000000000000000961000005205800
0202LOTE PADRAO                   BRASKEM     PNA*       BRKM5       010VISTA          000000000387100000003970000000038700000000000000000003880000000059600
0202LOTE PADRAO                   EMBRAER     PN EJ      EMBR4       010VISTA          000000000014800000000153000000001480000000000000000000152000000094900
0202LOTE PADRAO                   TELESP      PN * EJ    TLPP4       010VISTA          000000000032100000000330000000003130000000000000000000320000010952600
0202LOTE PADRAO                   EMBRAER     ON EJ      EMBR3       010VISTA          000000000013500000000140000000001350000000000000000000140000000008600
0202LOTE PADRAO                   AMBEV       PN *       AMBV4       010VISTA          000000000446000000004520000000044300000000000000000004460000000702100
0202LOTE PADRAO                   USIMINAS    PNA        USIM5       010VISTA          000000000006000000000063000000000600000000000000000000061000000105300
0202LOTE PADRAO                   ELETROPAULO PN *       ELPL4       010VISTA          000000000043000000000449000000004250000000000000000000440000004292100
0202LOTE PADRAO                   TELE NORD CLPN *       TNEP4       010VISTA          000000000002700000000028000000000270000000000000000000027500089899800
0202LOTE PADRAO                   CEMIG       PN * EJ    CMIG4       010VISTA          000000000029800000000303000000002860000000000000000000292500038861600
0202LOTE PADRAO                   TELE CL SUL PN * EJ    TCSL4       010VISTA          000000000003200000000032500000000310000000000000000000031000044756100
0202LOTE PADRAO                   TRACTEBEL   ON *       TBLE3       010VISTA          000000000004000000000040000000000396000000000000000000040000050967900
0202LOTE PADRAO                   CEMIG       ON * EJ    CMIG3       010VISTA          000000000028500000000286000000002780000000000000000000283000010188600
0202LOTE PADRAO                   TELE CL SUL ON * EJ    TCSL3       010VISTA          000000000002500000000025400000000240000000000000000000025400042304100
0202LOTE PADRAO                   ITAUSA      PN         ITSA4       010VISTA          000000000001800000000018000000000180000000000000000000018000000136600
0202LOTE PADRAO                   V C P       PN *       VCPA4       010VISTA          000000000095000000000984000000009450000000000000000000984000004049500
0202LOTE PADRAO                   SID TUBARAO PN *       CSTB4       010VISTA          000000000027500000000283000000002750000000000000000000275000005529800
0202LOTE PADRAO                   BRADESPAR   PN *       BRAP4       010VISTA          000000000000500000000005100000000047000000000000000000004800246303000
0202LOTE PADRAO                   NET         PN         PLIM4       010VISTA          000000000001720000000017400000000160000000000000000000016000000234000
0202LOTE PADRAO                   TELE CTR OESPN * EJ    TCOC4       010VISTA          000000000004000000000041000000000394000000000000000000041000123680000
0202LOTE PADRAO                   TELEMAR N L PNA* EJ    TMAR5       010VISTA          000000000047300000000475000000004650000000000000000000467000017173600
0202LOTE PADRAO                   GERDAU      PN * EJ    GGBR4       010VISTA          000000000029600000000300000000002880000000000000000000295000011633300
0202LOTE PADRAO                   BRASIL      ON *       BBAS3       010VISTA          000000000010800000000110000000001080000000000000000000109000016541500
