00BDIN9999BOVESPA 99992002082020020820
0101IBOVESPA                      0094550092580095520000000000000000002002082000000020020820009263000000
0202LOTE PADRAO                   EMBRATEL PARPN *       EBTP4       010VISTA          000000000001790000000018100000000173000000000000000000017300269941000
0202LOTE PADRAO                   EMBRATEL PARON *       EBTP3       010VISTA          000000000002300000000023000000000227000000000000000000023000016100100
0202LOTE PADRAO                   TRAN PAULISTPN * EJ    TRPL4       010VISTA          000000000005300000000057000000000530000000000000000000056000014135700
0202LOTE PADRAO                   ITAUBANCO   PN * EJ    ITAU4       010VISTA          000000000122500000001270000000012050000000000000000001211000022789600
0202LOTE PADRAO                   TELEMAR     ON * EJ    TNLP3       010VISTA          000000000017200000000173000000001640000000000000000000168000016890600
0202LOTE PADRAO                   SID NACIONALON *       CSNA3       010VISTA          000000000039500000000398000000003900000000000000000000393000002938300
0202LOTE PADRAO                   TELE LEST CLPN *       TLCP4       010VISTA          000000000000400000000004000000000038000000000000000000004000092116500
0202LOTE PADRAO                   CRT CELULAR PNA* EJ    CRTP5       010VISTA          000000000352000000003620000000035200000000000000000003550000000565200
0202LOTE PADRAO                   IPIRANGA PETPN *       PTIP4       010VISTA          000000000011300000000115000000001130000000000000000000115000000210600
0202LOTE PADRAO                   BRASIL T PARPN *       BRTP4       010VISTA          000000000017800000000178000000001680000000000000000000168000077182800
0202LOTE PADRAO                   BRASIL T PARON *       BRTP3       010VISTA          000000000013000000000130000000001240000000000000000000125000025606800
0202LOTE PADRAO                   KLABIN S/A  PN         KLBN4       010VISTA          000000000000900000000009000000000088000000000000000000008800000011600
0202LOTE PADRAO                   ACESITA     PN *       ACES4       010VISTA          000000000000720000000007300000000069000000000000000000007100298224000
0202LOTE PADRAO                   PETROBRAS   PN         PETR4       010VISTA          000000000040500000000405000000003920000000000000000000393000000087300
0202LOTE PADRAO                   ELETROBRAS  PNB*       ELET6       010VISTA          000000000019500000000196000000001820000000000000000000182000093140700
0202LOTE PADRAO                   PETROBRAS   ON         PETR3       010VISTA          000000000044000000000440000000004290000000000000000000430000000021700
0202LOTE PADRAO                   COMGAS      PNA*       CGAS5       010VISTA          000000000047700000000483000000004770000000000000000000480000001457300
0202LOTE PADRAO                   SOUZA CRUZ  ON EJ      CRUZ3       010VISTA          000000000014300000000144000000001425000000000000000000143000000007100
0202LOTE PADRAO                   ELETROBRAS  ON *       ELET3       010VISTA          000000000020000000000205000000001900000000000000000000190000013590000
0202LOTE PADRAO                   CELESC      PNB        CLSC6       010VISTA          000000000000580000000005800000000056000000000000000000005800000240800
0202LOTE PADRAO                   BRADESCO    PN * EJ    BBDC4       010VISTA          000000000009000000000091000000000890000000000000000000089000271250000
0202LOTE PADRAO                   CESP        PN *       CESP4       010VISTA          000000000006750000000069000000000660000000000000000000067000009152100
0202LOTE PADRAO                   LIGHT       ON *       LIGH3       010VISTA          000000000075000000000760000000007150000000000000000000715000000085900
0202LOTE PADRAO                   TELESP CL PAPN *       TSPP4       010VISTA          000000000003600000000036000000000354000000000000000000035000182772000
0202LOTE PADRAO                   VALE R DOCE PNA        VALE5       010VISTA          000000000071200000000712000000007050000000000000000000710000000009200
0202LOTE PADRAO                   COPEL       PNB*       CPLE6       010VISTA          000000000009400000000095000000000880000000000000000000088000035254500
0202LOTE PADRAO                   VALE R DOCE ON         VALE3       010VISTA          000000000078000000000780000000007600000000000000000000760000000000500
0202LOTE PADRAO                   ARACRUZ     PNB        ARCZ6       010VISTA          000000000005300000000053000000000520000000000000000000053000000016400
0202LOTE PADRAO                   TELEMIG PARTPN *       TMCP4       010VISTA          000000000002800000000029000000000260000000000000000000027300135466000
0202LOTE PADRAO                   BRASIL TELECPN *       BRTO4       010VISTA          000000000011300000000113000000001050000000000000000000105000046819300
0202LOTE PADRAO                   SABESP      ON *       SBSP3       010VISTA          000000000080900000000809000000007380000000000000000000745000007350100
0202LOTE PADRAO                   BRASKEM     PNA*       BRKM5       010VISTA          000000000301000000003010000000028800000000000000000002899000000184200
0202LOTE PADRAO                   EMBRAER     PN EJ      EMBR4       010VISTA          000000000013900000000139000000001340000000000000000000135000000021400
0202LOTE PADRAO                   TELESP      PN * EJ    TLPP4       010VISTA          000000000032500000000325000000003150000000000000000000318000004240300
0202LOTE PADRAO                   EMBRAER     ON EJ      EMBR3       010VISTA          000000000012500000000126000000001240000000000000000000125000000027600
0202LOTE PADRAO                   AMBEV       PN *       AMBV4       010VISTA          000000000449900000004499000000043800000000000000000004401000001152100
0202LOTE PADRAO                   USIMINAS    PNA        USIM5       010VISTA          000000000005100000000051000000000480000000000000000000049000000045400
0202LOTE PADRAO                   ELETROPAULO PN *       ELPL4       010VISTA          000000000030500000000310000000002810000000000000000000281000008991400
0202LOTE PADRAO                   TELE NORD CLPN *       TNEP4       010VISTA          000000000002400000000024000000000230000000000000000000023000062001100
0202LOTE PADRAO                   CEMIG       PN * EJ    CMIG4       010VISTA          000000000024000000000248000000002290000000000000000000229000044607600
0202LOTE PADRAO                   TELE CL SUL PN * EJ    TCSL4       010VISTA          000000000002600000000026000000000240000000000000000000024000070638900
0202LOTE PADRAO                   TRACTEBEL   ON *       TBLE3       010VISTA          000000000004200000000042500000000400000000000000000000040000006930000
0202LOTE PADRAO                   CEMIG       ON * EJ    CMIG3       010VISTA          000000000023000000000230000000002160000000000000000000221000000520000
0202LOTE PADRAO                   TELE CL SUL ON * EJ    TCSL3       010VISTA          000000000002100000000021000000000200000000000000000000020000018396100
0202LOTE PADRAO                   ITAUSA      PN         ITSA4       010VISTA          000000000001600000000016000000000155000000000000000000015000000261700
0202LOTE PADRAO                   V C P       PN *       VCPA4       010VISTA          000000000099000000001000000000009775000000000000000000995000001370800
0202LOTE PADRAO                   SID TUBARAO PN *       CSTB4       010VISTA          000000000026600000000266000000002560000000000000000000260000006415000
0202LOTE PADRAO                   BRADESPAR   PN *       BRAP4       010VISTA          000000000000490000000005000000000047000000000000000000004700049196700
0202LOTE PADRAO                   NET         PN         PLIM4       010VISTA          000000000000400000000004200000000039000000000000000000003900000286700
0202LOTE PADRAO                   TELE CTR OESPN * EJ    TCOC4       010VISTA          000000000002600000000026000000000252000000000000000000025000207021000
0202LOTE PADRAO                   TELEMAR N L PNA* EJ    TMAR5       010VISTA          000000000040500000000405000000003850000000000000000000390000012699800
0202LOTE PADRAO                   GERDAU      PN * EJ    GGBR4       010VISTA          000000000032300000000324000000003150000000000000000000317500012406800
0202LOTE PADRAO                   BRASIL      ON *       BBAS3       010VISTA          000000000009800000000099000000000940000000000000000000094000004186700
