00BDIN9999BOVESPA 99992002071020020710
0101IBOVESPA                      0106900105390108510000000000000000002002071000000020020710010556000000
0202LOTE PADRAO                   EMBRATEL PARPN *       EBTP4       010VISTA          000000000001940000000019900000000180000000000000000000019000318059000
0202LOTE PADRAO                   TRAN PAULISTPN * EJ    TRPL4       010VISTA          000000000006000000000061000000000580000000000000000000058000001809600
0202LOTE PADRAO                   EMBRATEL PARON *       EBTP3       010VISTA          000000000002980000000030000000000280000000000000000000029000034356500
0202LOTE PADRAO                   TELEMAR     PN * EJ    TNLP4       010VISTA          000000000027400000000278000000002660000000000000000000268000184276000
0202LOTE PADRAO                   ITAUBANCO   PN * EJ    ITAU4       010VISTA          000000000155000000001580000000015100000000000000000001520000018999500
0202LOTE PADRAO                   TELEMAR     ON * EJ    TNLP3       010VISTA          000000000022250000000223000000002160000000000000000000218000007668500
0202LOTE PADRAO                   SID NACIONALON *       CSNA3       010VISTA          000000000048200000000483000000004580000000000000000000470000017301500
0202LOTE PADRAO                   TELE LEST CLPN *       TLCP4       010VISTA          000000000000560000000005600000000054000000000000000000005400030752700
0202LOTE PADRAO                   CRT CELULAR PNA* EJ    CRTP5       010VISTA          000000000385000000003850000000038000000000000000000003850000000337900
0202LOTE PADRAO                   IPIRANGA PETPN *       PTIP4       010VISTA          000000000011800000000118000000001130000000000000000000116000000581000
0202LOTE PADRAO                   BRASIL T PARPN *       BRTP4       010VISTA          000000000016300000000165000000001590000000000000000000159000084023800
0202LOTE PADRAO                   BRASIL T PARON *       BRTP3       010VISTA          000000000014500000000149000000001400000000000000000000142000008661300
0202LOTE PADRAO                   KLABIN S/A  PN         KLBN4       010VISTA          000000000000880000000008800000000084000000000000000000008500000043900
0202LOTE PADRAO                   ACESITA     PN *       ACES4       010VISTA          000000000000600000000006000000000057000000000000000000005900118040000
0202LOTE PADRAO                   PETROBRAS   PN         PETR4       010VISTA          000000000046100000000467000000004470000000000000000000447000000062900
0202LOTE PADRAO                   ELETROBRAS  PNB*       ELET6       010VISTA          000000000024800000000252000000002360000000000000000000239000040689300
0202LOTE PADRAO                   PETROBRAS   ON         PETR3       010VISTA          000000000050000000000510000000004950000000000000000000497000000018900
0202LOTE PADRAO                   COMGAS      PNA*       CGAS5       010VISTA          000000000059000000000612000000005600000000000000000000592000000457000
0202LOTE PADRAO                   SOUZA CRUZ  ON EJ      CRUZ3       010VISTA          000000000014400000000148000000001430000000000000000000143000000020700
0202LOTE PADRAO                   ELETROBRAS  ON *       ELET3       010VISTA          000000000027500000000275000000002610000000000000000000261000011454900
0202LOTE PADRAO                   CELESC      PNB        CLSC6       010VISTA          000000000000580000000005800000000057000000000000000000005800000182400
0202LOTE PADRAO                   BRADESCO    PN * EJ    BBDC4       010VISTA          000000000010800000000108000000001030000000000000000000104000722258000
0202LOTE PADRAO                   CESP        PN *       CESP4       010VISTA          000000000008100000000081000000000790000000000000000000079000011602800
0202LOTE PADRAO                   LIGHT       ON *       LIGH3       010VISTA          000000000085000000000874000000008450000000000000000000869000000366500
0202LOTE PADRAO                   TELESP CL PAPN *       TSPP4       010VISTA          000000000003500000000036000000000330000000000000000000034000329896000
0202LOTE PADRAO                   VALE R DOCE PNA        VALE5       010VISTA          000000000072500000000725000000006970000000000000000000702000000022600
0202LOTE PADRAO                   COPEL       PNB*       CPLE6       010VISTA          000000000011600000000117500000001130000000000000000000113000045841000
0202LOTE PADRAO                   VALE R DOCE ON         VALE3       010VISTA          000000000077400000000780000000007600000000000000000000760000000013800
0202LOTE PADRAO                   ARACRUZ     PNB        ARCZ6       010VISTA          000000000005400000000054000000000520000000000000000000052000000037700
0202LOTE PADRAO                   TELEMIG PARTPN *       TMCP4       010VISTA          000000000002700000000028100000000275000000000000000000027000061739000
0202LOTE PADRAO                   BRASIL TELECPN *       BRTO4       010VISTA          000000000011100000000113000000001100000000000000000000110000066525900
0202LOTE PADRAO                   SABESP      ON *       SBSP3       010VISTA          000000000095900000000970000000009550000000000000000000965000002803900
0202LOTE PADRAO                   BRASKEM     PNA*       BRKM5       010VISTA          000000000388900000003898000000038100000000000000000003820000000046300
0202LOTE PADRAO                   EMBRAER     PN EJ      EMBR4       010VISTA          000000000015000000000150000000001450000000000000000000145000000088600
0202LOTE PADRAO                   TELESP      PN * EJ    TLPP4       010VISTA          000000000033000000000330000000003220000000000000000000325000008537900
0202LOTE PADRAO                   EMBRAER     ON EJ      EMBR3       010VISTA          000000000014000000000140000000001340000000000000000000136000000020000
0202LOTE PADRAO                   AMBEV       PN *       AMBV4       010VISTA          000000000450000000004615000000045000000000000000000004598000001501500
0202LOTE PADRAO                   USIMINAS    PNA        USIM5       010VISTA          000000000006500000000067000000000620000000000000000000062000000019100
0202LOTE PADRAO                   ELETROPAULO PN *       ELPL4       010VISTA          000000000043900000000447000000004350000000000000000000435000003992300
0202LOTE PADRAO                   TELE NORD CLPN *       TNEP4       010VISTA          000000000002540000000026000000000254000000000000000000026000120676000
0202LOTE PADRAO                   CEMIG       PN * EJ    CMIG4       010VISTA          000000000030600000000308000000002980000000000000000000303000039212000
0202LOTE PADRAO                   TELE CL SUL PN * EJ    TCSL4       010VISTA          000000000003000000000030000000000290000000000000000000029000089516100
0202LOTE PADRAO                   TRACTEBEL   ON *       TBLE3       010VISTA          000000000003900000000040000000000390000000000000000000039000005688400
0202LOTE PADRAO                   CEMIG       ON * EJ    CMIG3       010VISTA          000000000028600000000296000000002800000000000000000000294000000663700
0202LOTE PADRAO                   TELE CL SUL ON * EJ    TCSL3       010VISTA          000000000002500000000025600000000250000000000000000000025200040842100
0202LOTE PADRAO                   ITAUSA      PN         ITSA4       010VISTA          000000000001800000000018000000000178000000000000000000017900000226600
0202LOTE PADRAO                   V C P       PN *       VCPA4       010VISTA          000000000102200000001022000000010050000000000000000001005000000578100
0202LOTE PADRAO                   SID TUBARAO PN *       CSTB4       010VISTA          000000000027000000000270000000002600000000000000000000260000006790300
0202LOTE PADRAO                   BRADESPAR   PN *       BRAP4       010VISTA          000000000000520000000005300000000050000000000000000000005200121654000
0202LOTE PADRAO                   NET         PN         PLIM4       010VISTA          000000000001520000000015000000000149000000000000000000015000000057800
0202LOTE PADRAO                   TELE CTR OESPN * EJ    TCOC4       010VISTA          000000000003600000000037000000000360000000000000000000037000095428400
0202LOTE PADRAO                   TELEMAR N L PNA* EJ    TMAR5       010VISTA          000000000047400000000497000000004700000000000000000000474000013723700
0202LOTE PADRAO                   GERDAU      PN * EJ    GGBR4       010VISTA          000000000031000000000310000000003075000000000000000000308000006266700
0202LOTE PADRAO                   BRASIL      ON *       BBAS3       010VISTA          000000000008500000000088000000000850000000000000000000085000004647900
