00BDIN9999BOVESPA 99992002010820020108
0101IBOVESPA                      0143850140990143850000000000000000002002010800000020020108014168000000
0202LOTE PADRAO                   EMBRATEL PARPN *       EBTP4       010VISTA          000000000011200000000113000000001090000000000000000000109000151296000
0202LOTE PADRAO                   EMBRATEL PARON *       EBTP3       010VISTA          000000000012300000000123000000001160000000000000000000117500033521100
0202LOTE PADRAO                   TRAN PAULISTPN * EJ    TRPL4       010VISTA          000000000006600000000066000000000650000000000000000000065000024437900
0202LOTE PADRAO                   TELEMAR     PN * EJ    TNLP4       010VISTA          000000000038100000000382000000003760000000000000000000377500159064000
0202LOTE PADRAO                   ITAUBANCO   PN * EJ    ITAU4       010VISTA          000000000176000000001810000000017550000000000000000001799000005014200
0202LOTE PADRAO                   TELEMAR     ON * EJ    TNLP3       010VISTA          000000000033100000000332000000003260000000000000000000326000029059600
0202LOTE PADRAO                   SID NACIONALON *       CSNA3       010VISTA          000000000037900000000382000000003710000000000000000000381000010794900
0202LOTE PADRAO                   TELE LEST CLPN *       TLCP4       010VISTA          000000000000980000000009800000000095000000000000000000009600101324000
0202LOTE PADRAO                   CRT CELULAR PNA* EJ    CRTP5       010VISTA          000000000542000000005420000000052500000000000000000005350000001611300
0202LOTE PADRAO                   IPIRANGA PETPN *       PTIP4       010VISTA          000000000012000000000120000000001190000000000000000000120000015221300
0202LOTE PADRAO                   BRASIL T PARPN *       BRTP4       010VISTA          000000000020300000000204000000001980000000000000000000201000067650800
0202LOTE PADRAO                   BRASIL T PARON *       BRTP3       010VISTA          000000000020000000000201000000001950000000000000000000198000008014400
0202LOTE PADRAO                   KLABIN S/A  PN         KLBN4       010VISTA          000000000001200000000012400000000110000000000000000000012000000077100
0202LOTE PADRAO                   ACESITA     PN *       ACES4       010VISTA          000000000000720000000007200000000068000000000000000000006900370325000
0202LOTE PADRAO                   PETROBRAS   PN         PETR4       010VISTA          000000000052200000000523000000005170000000000000000000519000000107600
0202LOTE PADRAO                   ELETROBRAS  PNB*       ELET6       010VISTA          000000000031000000000313000000003060000000000000000000311000051888800
0202LOTE PADRAO                   PETROBRAS   ON         PETR3       010VISTA          000000000053200000000537000000005310000000000000000000533000000013400
0202LOTE PADRAO                   COMGAS      PNA*       CGAS5       010VISTA          000000000092000000000920000000008900000000000000000000892000001217600
0202LOTE PADRAO                   SOUZA CRUZ  ON EJ      CRUZ3       010VISTA          000000000014000000000142000000001400000000000000000000141000000007400
0202LOTE PADRAO                   ELETROBRAS  ON *       ELET3       010VISTA          000000000034200000000352000000003410000000000000000000350000016732000
0202LOTE PADRAO                   CELESC      PNB        CLSC6       010VISTA          000000000000450000000004600000000045000000000000000000004500000114400
0202LOTE PADRAO                   BRADESCO    PN * EJ    BBDC4       010VISTA          000000000012500000000126000000001240000000000000000000126000146182000
0202LOTE PADRAO                   CESP        PN *       CESP4       010VISTA          000000000015400000000155000000001510000000000000000000151000007195100
0202LOTE PADRAO                   LIGHT       ON *       LIGH3       010VISTA          000000000130500000001305000000012750000000000000000001280000000483500
0202LOTE PADRAO                   TELESP CL PAPN *       TSPP4       010VISTA          000000000009200000000092000000000880000000000000000000089000397396000
0202LOTE PADRAO                   VALE R DOCE PNA        VALE5       010VISTA          000000000053400000000545000000005300000000000000000000541000000019700
0202LOTE PADRAO                   COPEL       PNB*       CPLE6       010VISTA          000000000017500000000175000000001720000000000000000000172000021756000
0202LOTE PADRAO                   VALE R DOCE ON         VALE3       010VISTA          000000000052800000000531000000005200000000000000000000530000000001300
0202LOTE PADRAO                   ARACRUZ     PNB        ARCZ6       010VISTA          000000000004400000000044000000000430000000000000000000043000000012700
0202LOTE PADRAO                   TELEMIG PARTPN *       TMCP4       010VISTA          000000000004400000000044000000000420000000000000000000042000078432900
0202LOTE PADRAO                   BRASIL TELECPN *       BRTO4       010VISTA          000000000014200000000142000000001390000000000000000000141000051272000
0202LOTE PADRAO                   SABESP      ON *       SBSP3       010VISTA          000000000135000000001360000000013300000000000000000001330000002356300
0202LOTE PADRAO                   BRASKEM     PNA*       BRKM5       010VISTA          000000000502000000005100000000049600000000000000000005030000000278200
0202LOTE PADRAO                   EMBRAER     PN EJ      EMBR4       010VISTA          000000000013900000000141000000001370000000000000000000139000000040300
0202LOTE PADRAO                   TELESP      PN * EJ    TLPP4       010VISTA          000000000032400000000327000000003200000000000000000000322000021277400
0202LOTE PADRAO                   EMBRAER     ON EJ      EMBR3       010VISTA          000000000013000000000130000000001280000000000000000000128000000025100
0202LOTE PADRAO                   AMBEV       PN *       AMBV4       010VISTA          000000000504000000005040000000049500000000000000000005000000000508600
0202LOTE PADRAO                   USIMINAS    PNA        USIM5       010VISTA          000000000006900000000069000000000680000000000000000000068000000034200
0202LOTE PADRAO                   ELETROPAULO PN *       ELPL4       010VISTA          000000000081000000000810000000007820000000000000000000802000004005400
0202LOTE PADRAO                   TELE NORD CLPN *       TNEP4       010VISTA          000000000003520000000036000000000340000000000000000000034000118023000
0202LOTE PADRAO                   CEMIG       PN * EJ    CMIG4       010VISTA          000000000035200000000352000000003420000000000000000000347500047513100
0202LOTE PADRAO                   TELE CL SUL PN * EJ    TCSL4       010VISTA          000000000003750000000038000000000371000000000000000000037300098450800
0202LOTE PADRAO                   CEMIG       ON * EJ    CMIG3       010VISTA          000000000032000000000325000000003150000000000000000000323000001394900
0202LOTE PADRAO                   TELE CL SUL ON * EJ    TCSL3       010VISTA          000000000003100000000031000000000300000000000000000000031000026801800
0202LOTE PADRAO                   ITAUSA      PN         ITSA4       010VISTA          000000000002200000000022000000000210000000000000000000022000000323700
0202LOTE PADRAO                   V C P       PN *       VCPA4       010VISTA          000000000083000000000830000000008020000000000000000000826000000821600
0202LOTE PADRAO                   SID TUBARAO PN *       CSTB4       010VISTA          000000000023500000000238000000002330000000000000000000236000004970900
0202LOTE PADRAO                   BRADESPAR   PN *       BRAP4       010VISTA          000000000000800000000008100000000079000000000000000000007900118982000
0202LOTE PADRAO                   NET         PN         PLIM4       010VISTA          000000000000830000000008300000000080000000000000000000008000000944400
0202LOTE PADRAO                   TELE CTR OESPN * EJ    TCOC4       010VISTA          000000000005600000000056000000000550000000000000000000056000115137000
0202LOTE PADRAO                   TELEMAR N L PNA* EJ    TMAR5       010VISTA          000000000064400000000645000000006300000000000000000000633000028803500
0202LOTE PADRAO                   GERDAU      PN * EJ    GGBR4       010VISTA          000000000023100000000251000000002310000000000000000000246000010984000
0202LOTE PADRAO                   BRASIL      ON *       BBAS3       010VISTA          000000000010400000000106000000001020000000000000000000104000007261100
