00BDIN9999BOVESPA 99992002072220020722
0101IBOVESPA                      0105680098790105680000000000000000002002072200000020020722009892000000
0202LOTE PADRAO                   EMBRATEL PARPN *       EBTP4       010VISTA          000000000001480000000015200000000130000000000000000000014000548523000
0202LOTE PADRAO                   TRAN PAULISTPN * EJ    TRPL4       010VISTA          000000000005600000000057500000000500000000000000000000051000020222800
0202LOTE PADRAO                   EMBRATEL PARON *       EBTP3       010VISTA          000000000002200000000024000000000210000000000000000000022500076978600
0202LOTE PADRAO                   TELEMAR     PN * EJ    TNLP4       010VISTA          000000000026300000000266000000002430000000000000000000243000221773000
0202LOTE PADRAO                   ITAUBANCO   PN * EJ    ITAU4       010VISTA          000000000166800000001668000000015400000000000000000001540000009753400
0202LOTE PADRAO                   TELEMAR     ON * EJ    TNLP3       010VISTA          000000000020500000000210000000001900000000000000000000191000033684700
0202LOTE PADRAO                   SID NACIONALON *       CSNA3       010VISTA          000000000053000000000552000000005000000000000000000000510000042549700
0202LOTE PADRAO                   TELE LEST CLPN *       TLCP4       010VISTA          000000000000480000000004800000000040000000000000000000004100345285000
0202LOTE PADRAO                   CRT CELULAR PNA* EJ    CRTP5       010VISTA          000000000400000000004000000000035100000000000000000003600000000219800
0202LOTE PADRAO                   IPIRANGA PETPN *       PTIP4       010VISTA          000000000012900000000129000000001130000000000000000000113000001887300
0202LOTE PADRAO                   BRASIL T PARPN *       BRTP4       010VISTA          000000000015900000000161000000001500000000000000000000150000083200900
0202LOTE PADRAO                   BRASIL T PARON *       BRTP3       010VISTA          000000000013750000000137500000001230000000000000000000127000010082900
0202LOTE PADRAO                   KLABIN S/A  PN         KLBN4       010VISTA          000000000000860000000008600000000081000000000000000000008100000023900
0202LOTE PADRAO                   ACESITA     PN *       ACES4       010VISTA          000000000000620000000006400000000059000000000000000000005900190232000
0202LOTE PADRAO                   PETROBRAS   PN         PETR4       010VISTA          000000000042600000000427000000004100000000000000000000410000000232900
0202LOTE PADRAO                   ELETROBRAS  PNB*       ELET6       010VISTA          000000000022800000000231000000002110000000000000000000211000077519400
0202LOTE PADRAO                   PETROBRAS   ON         PETR3       010VISTA          000000000047000000000470000000004300000000000000000000430000000112700
0202LOTE PADRAO                   COMGAS      PNA*       CGAS5       010VISTA          000000000055000000000570000000004800000000000000000000480000000777700
0202LOTE PADRAO                   SOUZA CRUZ  ON EJ      CRUZ3       010VISTA          000000000015800000000161000000001580000000000000000000160000000022200
0202LOTE PADRAO                   ELETROBRAS  ON *       ELET3       010VISTA          000000000024600000000255000000002260000000000000000000233000041715000
0202LOTE PADRAO                   CELESC      PNB        CLSC6       010VISTA          000000000000570000000005800000000053000000000000000000005600000240900
0202LOTE PADRAO                   BRADESCO    PN * EJ    BBDC4       010VISTA          000000000011400000000114000000001090000000000000000000109000128158000
0202LOTE PADRAO                   CESP        PN *       CESP4       010VISTA          000000000008000000000080000000000700000000000000000000074000015886200
0202LOTE PADRAO                   LIGHT       ON *       LIGH3       010VISTA          000000000086400000000864000000007700000000000000000000770000000210100
0202LOTE PADRAO                   TELESP CL PAPN *       TSPP4       010VISTA          000000000003400000000034000000000325000000000000000000032500320718000
0202LOTE PADRAO                   VALE R DOCE PNA        VALE5       010VISTA          000000000070000000000700000000006840000000000000000000684000000025200
0202LOTE PADRAO                   COPEL       PNB*       CPLE6       010VISTA          000000000011500000000115000000001010000000000000000000108000032634800
0202LOTE PADRAO                   VALE R DOCE ON         VALE3       010VISTA          000000000075000000000765000000007500000000000000000000750000000014700
0202LOTE PADRAO                   ARACRUZ     PNB        ARCZ6       010VISTA          000000000005300000000054000000000510000000000000000000052000000131100
0202LOTE PADRAO                   TELEMIG PARTPN *       TMCP4       010VISTA          000000000003100000000031000000000290000000000000000000030000222836000
0202LOTE PADRAO                   BRASIL TELECPN *       BRTO4       010VISTA          000000000011000000000111000000001020000000000000000000104000057537400
0202LOTE PADRAO                   SABESP      ON *       SBSP3       010VISTA          000000000097000000000970000000009050000000000000000000905000002280600
0202LOTE PADRAO                   BRASKEM     PNA*       BRKM5       010VISTA          000000000390100000004049000000038000000000000000000003800000000068800
0202LOTE PADRAO                   EMBRAER     PN EJ      EMBR4       010VISTA          000000000014900000000149000000001410000000000000000000145000000118300
0202LOTE PADRAO                   TELESP      PN * EJ    TLPP4       010VISTA          000000000033600000000339000000003150000000000000000000320000015439400
0202LOTE PADRAO                   EMBRAER     ON EJ      EMBR3       010VISTA          000000000013500000000138000000001290000000000000000000130000000009100
0202LOTE PADRAO                   AMBEV       PN *       AMBV4       010VISTA          000000000445000000004460000000042600000000000000000004307500001511700
0202LOTE PADRAO                   USIMINAS    PNA        USIM5       010VISTA          000000000006300000000064000000000590000000000000000000059000000060400
0202LOTE PADRAO                   ELETROPAULO PN *       ELPL4       010VISTA          000000000041700000000425000000003740000000000000000000382000003670400
0202LOTE PADRAO                   TELE NORD CLPN *       TNEP4       010VISTA          000000000002600000000026900000000240000000000000000000024000163605000
0202LOTE PADRAO                   CEMIG       PN * EJ    CMIG4       010VISTA          000000000029000000000295000000002710000000000000000000273000038486700
0202LOTE PADRAO                   TELE CL SUL PN * EJ    TCSL4       010VISTA          000000000003000000000030000000000280000000000000000000028000076615200
0202LOTE PADRAO                   TRACTEBEL   ON *       TBLE3       010VISTA          000000000004000000000040000000000390000000000000000000040000039163000
0202LOTE PADRAO                   CEMIG       ON * EJ    CMIG3       010VISTA          000000000028800000000288000000002550000000000000000000255000000826500
0202LOTE PADRAO                   TELE CL SUL ON * EJ    TCSL3       010VISTA          000000000002400000000025000000000210000000000000000000022000015334400
0202LOTE PADRAO                   ITAUSA      PN         ITSA4       010VISTA          000000000001800000000019000000000180000000000000000000018000000436500
0202LOTE PADRAO                   V C P       PN *       VCPA4       010VISTA          000000000094900000000969000000009140000000000000000000925000002070100
0202LOTE PADRAO                   SID TUBARAO PN *       CSTB4       010VISTA          000000000028300000000283000000002550000000000000000000260000007120200
0202LOTE PADRAO                   BRADESPAR   PN *       BRAP4       010VISTA          000000000000500000000005000000000046000000000000000000004700249744000
0202LOTE PADRAO                   NET         PN         PLIM4       010VISTA          000000000001530000000015300000000120000000000000000000012000000218600
0202LOTE PADRAO                   TELE CTR OESPN * EJ    TCOC4       010VISTA          000000000004000000000040000000000370000000000000000000037000062379500
0202LOTE PADRAO                   TELEMAR N L PNA* EJ    TMAR5       010VISTA          000000000045000000000454000000004250000000000000000000425000013633900
0202LOTE PADRAO                   GERDAU      PN * EJ    GGBR4       010VISTA          000000000029500000000298000000002760000000000000000000277500019862500
0202LOTE PADRAO                   BRASIL      ON *       BBAS3       010VISTA          000000000010600000000111000000000970000000000000000000098000020902400
