00BDIN9999BOVESPA 99992002061820020618
0101IBOVESPA                      0119420118090121160000000000000000002002061800000020020618011821000000
0202LOTE PADRAO                   EMBRATEL PARPN *       EBTP4       010VISTA          000000000003700000000038000000000370000000000000000000037500178049000
0202LOTE PADRAO                   TRAN PAULISTPN * EJ    TRPL4       010VISTA          000000000006540000000065400000000620000000000000000000062000003564200
0202LOTE PADRAO                   EMBRATEL PARON *       EBTP3       010VISTA          000000000005200000000055000000000500000000000000000000051000018303900
0202LOTE PADRAO                   TELEMAR     PN * EJ    TNLP4       010VISTA          000000000030000000000305000000002980000000000000000000298000145033000
0202LOTE PADRAO                   ITAUBANCO   PN * EJ    ITAU4       010VISTA          000000000158000000001630000000015800000000000000000001614000005927500
0202LOTE PADRAO                   TELEMAR     ON * EJ    TNLP3       010VISTA          000000000025100000000257000000002480000000000000000000250000003602000
0202LOTE PADRAO                   SID NACIONALON *       CSNA3       010VISTA          000000000045500000000460000000004490000000000000000000455000001566800
0202LOTE PADRAO                   TELE LEST CLPN *       TLCP4       010VISTA          000000000000660000000006800000000065000000000000000000006500042470600
0202LOTE PADRAO                   CRT CELULAR PNA* EJ    CRTP5       010VISTA          000000000419000000004190000000040000000000000000000004050000000276700
0202LOTE PADRAO                   IPIRANGA PETPN *       PTIP4       010VISTA          000000000013300000000136000000001310000000000000000000134000003587700
0202LOTE PADRAO                   BRASIL T PARPN *       BRTP4       010VISTA          000000000016000000000162000000001580000000000000000000158000028544600
0202LOTE PADRAO                   BRASIL T PARON *       BRTP3       010VISTA          000000000014400000000151000000001430000000000000000000145000002315000
0202LOTE PADRAO                   KLABIN S/A  PN         KLBN4       010VISTA          000000000001000000000010000000000099000000000000000000010000000008500
0202LOTE PADRAO                   ACESITA     PN *       ACES4       010VISTA          000000000000680000000006800000000066000000000000000000006700152162000
0202LOTE PADRAO                   PETROBRAS   PN         PETR4       010VISTA          000000000049800000000498000000004880000000000000000000492500000106300
0202LOTE PADRAO                   ELETROBRAS  PNB*       ELET6       010VISTA          000000000027000000000271000000002600000000000000000000261000063137700
0202LOTE PADRAO                   PETROBRAS   ON         PETR3       010VISTA          000000000053700000000542000000005350000000000000000000538000000061800
0202LOTE PADRAO                   COMGAS      PNA*       CGAS5       010VISTA          000000000067900000000694000000006600000000000000000000660000000777400
0202LOTE PADRAO                   SOUZA CRUZ  ON EJ      CRUZ3       010VISTA          000000000015400000000154000000001475000000000000000000148000000042300
0202LOTE PADRAO                   ELETROBRAS  ON *       ELET3       010VISTA          000000000031100000000319000000003000000000000000000000305000009620400
0202LOTE PADRAO                   CELESC      PNB        CLSC6       010VISTA          000000000000520000000005300000000051000000000000000000005200000116300
0202LOTE PADRAO                   BRADESCO    PN * EJ    BBDC4       010VISTA          000000000011800000000120000000001180000000000000000000118000085231500
0202LOTE PADRAO                   CESP        PN *       CESP4       010VISTA          000000000010100000000104000000000990000000000000000000099000011690300
0202LOTE PADRAO                   LIGHT       ON *       LIGH3       010VISTA          000000000094900000000959000000009400000000000000000000940000000121000
0202LOTE PADRAO                   TELESP CL PAPN *       TSPP4       010VISTA          000000000004800000000051000000000480000000000000000000050000395312000
0202LOTE PADRAO                   VALE R DOCE PNA        VALE5       010VISTA          000000000070400000000707500000006970000000000000000000700000000025200
0202LOTE PADRAO                   COPEL       PNB*       CPLE6       010VISTA          000000000013800000000139000000001330000000000000000000133000033190100
0202LOTE PADRAO                   VALE R DOCE ON         VALE3       010VISTA          000000000075500000000763000000007520000000000000000000760000000014900
0202LOTE PADRAO                   ARACRUZ     PNB        ARCZ6       010VISTA          000000000005600000000056000000000520000000000000000000054000000072300
0202LOTE PADRAO                   TELEMIG PARTPN *       TMCP4       010VISTA          000000000002800000000029000000000280000000000000000000028000106284000
0202LOTE PADRAO                   BRASIL TELECPN *       BRTO4       010VISTA          000000000011500000000116000000001130000000000000000000114000042223600
0202LOTE PADRAO                   SABESP      ON *       SBSP3       010VISTA          000000000106000000001080000000010400000000000000000001050000002468800
0202LOTE PADRAO                   BRASKEM     PNA*       BRKM5       010VISTA          000000000432500000004389000000040500000000000000000004050000000046000
0202LOTE PADRAO                   EMBRAER     PN EJ      EMBR4       010VISTA          000000000015300000000155000000001500000000000000000000150000000041400
0202LOTE PADRAO                   TELESP      PN * EJ    TLPP4       010VISTA          000000000034800000000355000000003310000000000000000000348000011504200
0202LOTE PADRAO                   EMBRAER     ON EJ      EMBR3       010VISTA          000000000013400000000136000000001310000000000000000000132000000013600
0202LOTE PADRAO                   AMBEV       PN *       AMBV4       010VISTA          000000000445000000004469000000044300000000000000000004430000001120200
0202LOTE PADRAO                   USIMINAS    PNA        USIM5       010VISTA          000000000007500000000077000000000740000000000000000000074000000031200
0202LOTE PADRAO                   ELETROPAULO PN *       ELPL4       010VISTA          000000000047900000000491000000004550000000000000000000475000001122300
0202LOTE PADRAO                   TELE NORD CLPN *       TNEP4       010VISTA          000000000002520000000026000000000252000000000000000000026000160252000
0202LOTE PADRAO                   CEMIG       PN * EJ    CMIG4       010VISTA          000000000032900000000342000000003290000000000000000000337000067292400
0202LOTE PADRAO                   TELE CL SUL PN * EJ    TCSL4       010VISTA          000000000002900000000030000000000290000000000000000000029800037094900
0202LOTE PADRAO                   TRACTEBEL   ON *       TBLE3       010VISTA          000000000003900000000041000000000380000000000000000000040000017567200
0202LOTE PADRAO                   CEMIG       ON * EJ    CMIG3       010VISTA          000000000031500000000315000000003020000000000000000000305000001237400
0202LOTE PADRAO                   TELE CL SUL ON * EJ    TCSL3       010VISTA          000000000002500000000026000000000240000000000000000000025200008255000
0202LOTE PADRAO                   ITAUSA      PN         ITSA4       010VISTA          000000000001900000000019600000000190000000000000000000019000000293800
0202LOTE PADRAO                   V C P       PN *       VCPA4       010VISTA          000000000103400000001034000000009650000000000000000000987000004899000
0202LOTE PADRAO                   SID TUBARAO PN *       CSTB4       010VISTA          000000000028900000000289000000002830000000000000000000283000005800100
0202LOTE PADRAO                   BRADESPAR   PN *       BRAP4       010VISTA          000000000000630000000006300000000057000000000000000000005900279917000
0202LOTE PADRAO                   NET         PN         PLIM4       010VISTA          000000000003200000000033000000000260000000000000000000026000000324900
0202LOTE PADRAO                   TELE CTR OESPN * EJ    TCOC4       010VISTA          000000000003800000000039800000000380000000000000000000039000128586000
0202LOTE PADRAO                   TELEMAR N L PNA* EJ    TMAR5       010VISTA          000000000051500000000520000000005030000000000000000000504000074201200
0202LOTE PADRAO                   GERDAU      PN * EJ    GGBR4       010VISTA          000000000030500000000308000000003050000000000000000000305000013160000
0202LOTE PADRAO                   BRASIL      ON *       BBAS3       010VISTA          000000000011300000000113000000001050000000000000000000105000004709700
