00BDIN9999BOVESPA 99992002080720020807
0101IBOVESPA                      0097660096490107630000000000000000002002080700000020020807009870000000
0202LOTE PADRAO                   EMBRATEL PARPN *       EBTP4       010VISTA          000000000001740000000017600000000169000000000000000000017200242025000
0202LOTE PADRAO                   EMBRATEL PARON *       EBTP3       010VISTA          000000000002600000000026000000000240000000000000000000024000053974400
0202LOTE PADRAO                   TRAN PAULISTPN * EJ    TRPL4       010VISTA          000000000005300000000055000000000520000000000000000000055000011414000
0202LOTE PADRAO                   ITAUBANCO   PN * EJ    ITAU4       010VISTA          000000000138000000001459000000013800000000000000000001450000016700100
0202LOTE PADRAO                   TELEMAR     ON * EJ    TNLP3       010VISTA          000000000017600000000180000000001680000000000000000000176000051698800
0202LOTE PADRAO                   SID NACIONALON *       CSNA3       010VISTA          000000000038500000000387000000003600000000000000000000380000033035200
0202LOTE PADRAO                   TELE LEST CLPN *       TLCP4       010VISTA          000000000000380000000003800000000035000000000000000000003600169872000
0202LOTE PADRAO                   CRT CELULAR PNA* EJ    CRTP5       010VISTA          000000000383500000003900000000038200000000000000000003900000000670500
0202LOTE PADRAO                   IPIRANGA PETPN *       PTIP4       010VISTA          000000000011500000000119000000001140000000000000000000114000003037500
0202LOTE PADRAO                   BRASIL T PARPN *       BRTP4       010VISTA          000000000016000000000163000000001550000000000000000000161000106843000
0202LOTE PADRAO                   BRASIL T PARON *       BRTP3       010VISTA          000000000011800000000119000000001140000000000000000000115000019068500
0202LOTE PADRAO                   KLABIN S/A  PN         KLBN4       010VISTA          000000000000880000000009500000000088000000000000000000009000000050200
0202LOTE PADRAO                   ACESITA     PN *       ACES4       010VISTA          000000000000660000000006900000000066000000000000000000006900166765000
0202LOTE PADRAO                   PETROBRAS   PN         PETR4       010VISTA          000000000041800000000418000000004080000000000000000000413000000122600
0202LOTE PADRAO                   ELETROBRAS  PNB*       ELET6       010VISTA          000000000021500000000218000000002080000000000000000000213000070700100
0202LOTE PADRAO                   PETROBRAS   ON         PETR3       010VISTA          000000000045200000000457000000004400000000000000000000442500000056900
0202LOTE PADRAO                   COMGAS      PNA*       CGAS5       010VISTA          000000000048500000000485000000004750000000000000000000480000000566000
0202LOTE PADRAO                   SOUZA CRUZ  ON EJ      CRUZ3       010VISTA          000000000014000000000140000000001380000000000000000000140000000020200
0202LOTE PADRAO                   ELETROBRAS  ON *       ELET3       010VISTA          000000000023500000000236000000002230000000000000000000231000004055500
0202LOTE PADRAO                   CELESC      PNB        CLSC6       010VISTA          000000000000550000000005700000000054000000000000000000005700000293900
0202LOTE PADRAO                   BRADESCO    PN * EJ    BBDC4       010VISTA          000000000009500000000096000000000940000000000000000000096000344168000
0202LOTE PADRAO                   CESP        PN *       CESP4       010VISTA          000000000007000000000071000000000680000000000000000000071000013908000
0202LOTE PADRAO                   LIGHT       ON *       LIGH3       010VISTA          000000000076000000000790000000007570000000000000000000790000000208400
0202LOTE PADRAO                   TELESP CL PAPN *       TSPP4       010VISTA          000000000003500000000035000000000350000000000000000000035000379285000
0202LOTE PADRAO                   VALE R DOCE PNA        VALE5       010VISTA          000000000070000000000702000000006900000000000000000000700000000030300
0202LOTE PADRAO                   COPEL       PNB*       CPLE6       010VISTA          000000000011000000000113000000001100000000000000000000111000029491000
0202LOTE PADRAO                   VALE R DOCE ON         VALE3       010VISTA          000000000076000000000760000000007500000000000000000000750000000007500
0202LOTE PADRAO                   ARACRUZ     PNB        ARCZ6       010VISTA          000000000005700000000058000000000550000000000000000000055000000065700
0202LOTE PADRAO                   TELEMIG PARTPN *       TMCP4       010VISTA          000000000003000000000031000000000294000000000000000000030000122219000
0202LOTE PADRAO                   BRASIL TELECPN *       BRTO4       010VISTA          000000000010400000000110000000001030000000000000000000107000084213600
0202LOTE PADRAO                   SABESP      ON *       SBSP3       010VISTA          000000000088000000000889000000008700000000000000000000889000002742600
0202LOTE PADRAO                   BRASKEM     PNA*       BRKM5       010VISTA          000000000365000000003650000000035700000000000000000003600000000610000
0202LOTE PADRAO                   EMBRAER     PN EJ      EMBR4       010VISTA          000000000014600000000147000000001400000000000000000000145000000046300
0202LOTE PADRAO                   TELESP      PN * EJ    TLPP4       010VISTA          000000000032100000000332000000003200000000000000000000329000023208000
0202LOTE PADRAO                   EMBRAER     ON EJ      EMBR3       010VISTA          000000000013500000000135000000001300000000000000000000133000000013900
0202LOTE PADRAO                   AMBEV       PN *       AMBV4       010VISTA          000000000415000000004189000000039600000000000000000004080000003815100
0202LOTE PADRAO                   USIMINAS    PNA        USIM5       010VISTA          000000000005500000000057000000000540000000000000000000054000000077700
0202LOTE PADRAO                   ELETROPAULO PN *       ELPL4       010VISTA          000000000028500000000299000000002710000000000000000000291000005212700
0202LOTE PADRAO                   TELE NORD CLPN *       TNEP4       010VISTA          000000000002730000000027500000000260000000000000000000026000134958000
0202LOTE PADRAO                   CEMIG       PN * EJ    CMIG4       010VISTA          000000000026800000000275000000002660000000000000000000274000055728900
0202LOTE PADRAO                   TELE CL SUL PN * EJ    TCSL4       010VISTA          000000000002800000000028000000000275000000000000000000028000121896000
0202LOTE PADRAO                   TRACTEBEL   ON *       TBLE3       010VISTA          000000000004250000000042000000000410000000000000000000041000005580500
0202LOTE PADRAO                   CEMIG       ON * EJ    CMIG3       010VISTA          000000000024100000000243000000002370000000000000000000240000002270300
0202LOTE PADRAO                   TELE CL SUL ON * EJ    TCSL3       010VISTA          000000000002400000000024000000000230000000000000000000024000010389700
0202LOTE PADRAO                   ITAUSA      PN         ITSA4       010VISTA          000000000001700000000017500000000170000000000000000000017500000421400
0202LOTE PADRAO                   V C P       PN *       VCPA4       010VISTA          000000000098000000000998000000009790000000000000000000980000003201700
0202LOTE PADRAO                   SID TUBARAO PN *       CSTB4       010VISTA          000000000027000000000275000000002630000000000000000000270000012728400
0202LOTE PADRAO                   BRADESPAR   PN *       BRAP4       010VISTA          000000000000500000000005100000000048000000000000000000005000151634000
0202LOTE PADRAO                   NET         PN         PLIM4       010VISTA          000000000000610000000006100000000051000000000000000000005600000499100
0202LOTE PADRAO                   TELE CTR OESPN * EJ    TCOC4       010VISTA          000000000003900000000039000000000375000000000000000000038000086026700
0202LOTE PADRAO                   TELEMAR N L PNA* EJ    TMAR5       010VISTA          000000000042700000000429000000004130000000000000000000426000026373600
0202LOTE PADRAO                   GERDAU      PN * EJ    GGBR4       010VISTA          000000000030000000000303000000002860000000000000000000291000022014000
0202LOTE PADRAO                   BRASIL      ON *       BBAS3       010VISTA          000000000009500000000095000000000850000000000000000000090000009763400
