00BDIN9999BOVESPA 99992002060620020606
0101IBOVESPA                      0125910121130125950000000000000000002002060600000020020606012113000000
0202LOTE PADRAO                   EMBRATEL PARPN *       EBTP4       010VISTA          000000000004100000000041000000000375000000000000000000037500206360000
0202LOTE PADRAO                   TRAN PAULISTPN * EJ    TRPL4       010VISTA          000000000006700000000067000000000600000000000000000000061000008129600
0202LOTE PADRAO                   EMBRATEL PARON *       EBTP3       010VISTA          000000000005500000000055000000000500000000000000000000050000014103100
0202LOTE PADRAO                   TELEMAR     PN * EJ    TNLP4       010VISTA          000000000031000000000310000000003030000000000000000000306000241536000
0202LOTE PADRAO                   ITAUBANCO   PN * EJ    ITAU4       010VISTA          000000000172000000001720000000016000000000000000000001600000014887500
0202LOTE PADRAO                   TELEMAR     ON * EJ    TNLP3       010VISTA          000000000026500000000265000000002430000000000000000000248000009624800
0202LOTE PADRAO                   SID NACIONALON *       CSNA3       010VISTA          000000000046500000000465000000004380000000000000000000450000041918900
0202LOTE PADRAO                   TELE LEST CLPN *       TLCP4       010VISTA          000000000000700000000007100000000067000000000000000000006700091126600
0202LOTE PADRAO                   CRT CELULAR PNA* EJ    CRTP5       010VISTA          000000000390000000003900000000037300000000000000000003890000000416500
0202LOTE PADRAO                   IPIRANGA PETPN *       PTIP4       010VISTA          000000000013400000000139000000001330000000000000000000139000000704300
0202LOTE PADRAO                   BRASIL T PARPN *       BRTP4       010VISTA          000000000016500000000165000000001590000000000000000000160000044738700
0202LOTE PADRAO                   BRASIL T PARON *       BRTP3       010VISTA          000000000015300000000153000000001440000000000000000000146000003639300
0202LOTE PADRAO                   KLABIN S/A  PN         KLBN4       010VISTA          000000000001000000000010000000000094000000000000000000009400000078200
0202LOTE PADRAO                   ACESITA     PN *       ACES4       010VISTA          000000000000660000000006700000000065000000000000000000006500148699000
0202LOTE PADRAO                   PETROBRAS   PN         PETR4       010VISTA          000000000053800000000552000000005380000000000000000000542000000054000
0202LOTE PADRAO                   ELETROBRAS  PNB*       ELET6       010VISTA          000000000028100000000281000000002700000000000000000000270000047815000
0202LOTE PADRAO                   PETROBRAS   ON         PETR3       010VISTA          000000000060000000000600000000005800000000000000000000583000000057200
0202LOTE PADRAO                   COMGAS      PNA*       CGAS5       010VISTA          000000000073000000000730000000006700000000000000000000670000000182700
0202LOTE PADRAO                   SOUZA CRUZ  ON EJ      CRUZ3       010VISTA          000000000015900000000161000000001550000000000000000000155000000015900
0202LOTE PADRAO                   ELETROBRAS  ON *       ELET3       010VISTA          000000000031200000000318000000003060000000000000000000306000038486500
0202LOTE PADRAO                   CELESC      PNB        CLSC6       010VISTA          000000000000530000000005400000000051000000000000000000005200000153700
0202LOTE PADRAO                   BRADESCO    PN * EJ    BBDC4       010VISTA          000000000012500000000125000000001200000000000000000000120000266911000
0202LOTE PADRAO                   CESP        PN *       CESP4       010VISTA          000000000010100000000101000000000950000000000000000000095000009921600
0202LOTE PADRAO                   LIGHT       ON *       LIGH3       010VISTA          000000000095500000000955000000009400000000000000000000945000000205600
0202LOTE PADRAO                   TELESP CL PAPN *       TSPP4       010VISTA          000000000005000000000050000000000480000000000000000000048000268361000
0202LOTE PADRAO                   VALE R DOCE PNA        VALE5       010VISTA          000000000076000000000770000000007470000000000000000000749000000035300
0202LOTE PADRAO                   COPEL       PNB*       CPLE6       010VISTA          000000000013900000000139000000001350000000000000000000135000019986700
0202LOTE PADRAO                   VALE R DOCE ON         VALE3       010VISTA          000000000078000000000785000000007675000000000000000000769000000013300
0202LOTE PADRAO                   ARACRUZ     PNB        ARCZ6       010VISTA          000000000005700000000058000000000570000000000000000000057000000044500
0202LOTE PADRAO                   TELEMIG PARTPN *       TMCP4       010VISTA          000000000002900000000029000000000280000000000000000000028000143425000
0202LOTE PADRAO                   BRASIL TELECPN *       BRTO4       010VISTA          000000000012000000000120000000001150000000000000000000117500069631800
0202LOTE PADRAO                   SABESP      ON *       SBSP3       010VISTA          000000000109100000001091000000010400000000000000000001049000013925500
0202LOTE PADRAO                   BRASKEM     PNA*       BRKM5       010VISTA          000000000431000000004310000000041000000000000000000004100000000085100
0202LOTE PADRAO                   EMBRAER     PN EJ      EMBR4       010VISTA          000000000014500000000147000000001425000000000000000000145000000031100
0202LOTE PADRAO                   TELESP      PN * EJ    TLPP4       010VISTA          000000000033300000000344000000003300000000000000000000335000008765600
0202LOTE PADRAO                   EMBRAER     ON EJ      EMBR3       010VISTA          000000000013000000000131000000001250000000000000000000128000000014700
0202LOTE PADRAO                   AMBEV       PN *       AMBV4       010VISTA          000000000482000000004820000000046800000000000000000004710000001702200
0202LOTE PADRAO                   USIMINAS    PNA        USIM5       010VISTA          000000000007300000000073000000000730000000000000000000073000000000000
0202LOTE PADRAO                   ELETROPAULO PN *       ELPL4       010VISTA          000000000047000000000470000000004110000000000000000000415000014700900
0202LOTE PADRAO                   TELE NORD CLPN *       TNEP4       010VISTA          000000000002400000000025000000000240000000000000000000024000096853900
0202LOTE PADRAO                   CEMIG       PN * EJ    CMIG4       010VISTA          000000000032500000000325000000003080000000000000000000318000077436800
0202LOTE PADRAO                   TELE CL SUL PN * EJ    TCSL4       010VISTA          000000000002800000000029000000000281000000000000000000028000033343200
0202LOTE PADRAO                   TRACTEBEL   ON *       TBLE3       010VISTA          000000000003800000000038000000000369000000000000000000037000029195700
0202LOTE PADRAO                   CEMIG       ON * EJ    CMIG3       010VISTA          000000000030100000000301000000002910000000000000000000297000003039800
0202LOTE PADRAO                   TELE CL SUL ON * EJ    TCSL3       010VISTA          000000000002500000000025000000000230000000000000000000023000020204000
0202LOTE PADRAO                   ITAUSA      PN         ITSA4       010VISTA          000000000002000000000020000000000190000000000000000000019000000796300
0202LOTE PADRAO                   V C P       PN *       VCPA4       010VISTA          000000000107000000001074000000010250000000000000000001025000001150400
0202LOTE PADRAO                   SID TUBARAO PN *       CSTB4       010VISTA          000000000028600000000296000000002830000000000000000000291000012772400
0202LOTE PADRAO                   BRADESPAR   PN *       BRAP4       010VISTA          000000000000620000000006200000000060000000000000000000006100136329000
0202LOTE PADRAO                   NET         PN         PLIM4       010VISTA          000000000000370000000003700000000034000000000000000000003500002186900
0202LOTE PADRAO                   TELE CTR OESPN * EJ    TCOC4       010VISTA          000000000004200000000043000000000400000000000000000000040000130552000
0202LOTE PADRAO                   TELEMAR N L PNA* EJ    TMAR5       010VISTA          000000000052500000000525000000005010000000000000000000510000010438700
0202LOTE PADRAO                   GERDAU      PN * EJ    GGBR4       010VISTA          000000000030000000000303000000002900000000000000000000291000021148000
0202LOTE PADRAO                   BRASIL      ON *       BBAS3       010VISTA          000000000012400000000124000000001150000000000000000000116000009225900
