00BDIN9999BOVESPA 99992002011820020118
0101IBOVESPA                      0133400132620134070000000000000000002002011800000020020118013373000000
0202LOTE PADRAO                   EMBRATEL PARPN *       EBTP4       010VISTA          000000000010200000000104000000001020000000000000000000104000086836300
0202LOTE PADRAO                   EMBRATEL PARON *       EBTP3       010VISTA          000000000012000000000123000000001180000000000000000000118000029678400
0202LOTE PADRAO                   TRAN PAULISTPN * EJ    TRPL4       010VISTA          000000000006800000000070000000000680000000000000000000070000015682300
0202LOTE PADRAO                   TELEMAR     PN * EJ    TNLP4       010VISTA          000000000034500000000351000000003430000000000000000000348000104318000
0202LOTE PADRAO                   ITAUBANCO   PN * EJ    ITAU4       010VISTA          000000000179400000001794000000017700000000000000000001780000007228800
0202LOTE PADRAO                   TELEMAR     ON * EJ    TNLP3       010VISTA          000000000031000000000310000000003060000000000000000000310000013934700
0202LOTE PADRAO                   SID NACIONALON *       CSNA3       010VISTA          000000000042200000000429000000004050000000000000000000411000017726200
0202LOTE PADRAO                   TELE LEST CLPN *       TLCP4       010VISTA          000000000000910000000009600000000091000000000000000000009600086176400
0202LOTE PADRAO                   CRT CELULAR PNA* EJ    CRTP5       010VISTA          000000000471000000004740000000046800000000000000000004700000000485700
0202LOTE PADRAO                   IPIRANGA PETPN *       PTIP4       010VISTA          000000000012900000000129000000001250000000000000000000128000002484900
0202LOTE PADRAO                   BRASIL T PARPN *       BRTP4       010VISTA          000000000018400000000188000000001830000000000000000000186000032324200
0202LOTE PADRAO                   BRASIL T PARON *       BRTP3       010VISTA          000000000018600000000188000000001830000000000000000000188000004627700
0202LOTE PADRAO                   KLABIN S/A  PN         KLBN4       010VISTA          000000000001100000000011000000000110000000000000000000011000000008700
0202LOTE PADRAO                   ACESITA     PN *       ACES4       010VISTA          000000000000700000000007100000000068000000000000000000006800139206000
0202LOTE PADRAO                   PETROBRAS   PN         PETR4       010VISTA          000000000049000000000491000000004850000000000000000000489000000024100
0202LOTE PADRAO                   ELETROBRAS  PNB*       ELET6       010VISTA          000000000027100000000275000000002660000000000000000000275000025826400
0202LOTE PADRAO                   PETROBRAS   ON         PETR3       010VISTA          000000000050000000000502000000004950000000000000000000500000000010300
0202LOTE PADRAO                   COMGAS      PNA*       CGAS5       010VISTA          000000000087000000000890000000008700000000000000000000890000000165000
0202LOTE PADRAO                   SOUZA CRUZ  ON EJ      CRUZ3       010VISTA          000000000014500000000146000000001430000000000000000000146000000003500
0202LOTE PADRAO                   ELETROBRAS  ON *       ELET3       010VISTA          000000000030000000000307000000002980000000000000000000305000014269800
0202LOTE PADRAO                   CELESC      PNB        CLSC6       010VISTA          000000000000530000000005700000000052000000000000000000005600000457900
0202LOTE PADRAO                   BRADESCO    PN * EJ    BBDC4       010VISTA          000000000012300000000124000000001220000000000000000000124000136758000
0202LOTE PADRAO                   CESP        PN *       CESP4       010VISTA          000000000014400000000149000000001420000000000000000000149000008125000
0202LOTE PADRAO                   LIGHT       ON *       LIGH3       010VISTA          000000000124000000001289000000012400000000000000000001254000000200000
0202LOTE PADRAO                   TELESP CL PAPN *       TSPP4       010VISTA          000000000007900000000079000000000775000000000000000000077000093302700
0202LOTE PADRAO                   VALE R DOCE PNA        VALE5       010VISTA          000000000052500000000525000000005170000000000000000000522000000019900
0202LOTE PADRAO                   COPEL       PNB*       CPLE6       010VISTA          000000000015900000000163000000001580000000000000000000163000014629700
0202LOTE PADRAO                   VALE R DOCE ON         VALE3       010VISTA          000000000051000000000510000000005070000000000000000000507000000000500
0202LOTE PADRAO                   ARACRUZ     PNB        ARCZ6       010VISTA          000000000004200000000042000000000410000000000000000000042000000011300
0202LOTE PADRAO                   TELEMIG PARTPN *       TMCP4       010VISTA          000000000004000000000040000000000380000000000000000000038000040621600
0202LOTE PADRAO                   BRASIL TELECPN *       BRTO4       010VISTA          000000000012800000000131000000001280000000000000000000131000041184200
0202LOTE PADRAO                   SABESP      ON *       SBSP3       010VISTA          000000000130000000001350000000013000000000000000000001335000004115900
0202LOTE PADRAO                   BRASKEM     PNA*       BRKM5       010VISTA          000000000582000000005990000000057750000000000000000005910000000184600
0202LOTE PADRAO                   EMBRAER     PN EJ      EMBR4       010VISTA          000000000012500000000125000000001240000000000000000000124000000032000
0202LOTE PADRAO                   TELESP      PN * EJ    TLPP4       010VISTA          000000000030000000000310000000002960000000000000000000308000003955600
0202LOTE PADRAO                   EMBRAER     ON EJ      EMBR3       010VISTA          000000000011900000000119000000001160000000000000000000116000000006300
0202LOTE PADRAO                   AMBEV       PN *       AMBV4       010VISTA          000000000482000000004820000000047700000000000000000004800000001159000
0202LOTE PADRAO                   USIMINAS    PNA        USIM5       010VISTA          000000000006900000000069000000000680000000000000000000069000000037800
0202LOTE PADRAO                   ELETROPAULO PN *       ELPL4       010VISTA          000000000080000000000810000000007870000000000000000000800000000701800
0202LOTE PADRAO                   TELE NORD CLPN *       TNEP4       010VISTA          000000000003000000000031000000000300000000000000000000030000050044300
0202LOTE PADRAO                   CEMIG       PN * EJ    CMIG4       010VISTA          000000000032100000000344000000003210000000000000000000344000045974500
0202LOTE PADRAO                   TELE CL SUL PN * EJ    TCSL4       010VISTA          000000000003300000000033000000000320000000000000000000033000047177300
0202LOTE PADRAO                   CEMIG       ON * EJ    CMIG3       010VISTA          000000000028800000000300000000002880000000000000000000300000002344300
0202LOTE PADRAO                   TELE CL SUL ON * EJ    TCSL3       010VISTA          000000000002800000000028000000000281000000000000000000028000007444100
0202LOTE PADRAO                   ITAUSA      PN         ITSA4       010VISTA          000000000002100000000022000000000210000000000000000000022000000178000
0202LOTE PADRAO                   V C P       PN *       VCPA4       010VISTA          000000000082000000000820000000008000000000000000000000800000001643800
0202LOTE PADRAO                   SID TUBARAO PN *       CSTB4       010VISTA          000000000022100000000223000000002190000000000000000000219000001239600
0202LOTE PADRAO                   BRADESPAR   PN *       BRAP4       010VISTA          000000000000800000000008000000000078000000000000000000008000053650500
0202LOTE PADRAO                   NET         PN         PLIM4       010VISTA          000000000000750000000007700000000074000000000000000000007500000295000
0202LOTE PADRAO                   TELE CTR OESPN * EJ    TCOC4       010VISTA          000000000005000000000050000000000490000000000000000000049600088852600
0202LOTE PADRAO                   TELEMAR N L PNA* EJ    TMAR5       010VISTA          000000000057700000000582000000005690000000000000000000577000008538500
0202LOTE PADRAO                   GERDAU      PN * EJ    GGBR4       010VISTA          000000000024500000000247500000002400000000000000000000245000015509400
0202LOTE PADRAO                   BRASIL      ON *       BBAS3       010VISTA          000000000010100000000101000000000990000000000000000000099000002758500
