00BDIN9999BOVESPA 99992002081920020819
0101IBOVESPA                      0095120094040096570000000000000000002002081900000020020819009417000000
0202LOTE PADRAO                   EMBRATEL PARPN *       EBTP4       010VISTA          000000000001750000000018000000000172000000000000000000017800314443000
0202LOTE PADRAO                   EMBRATEL PARON *       EBTP3       010VISTA          000000000002250000000023000000000220000000000000000000022000025709800
0202LOTE PADRAO                   TRAN PAULISTPN * EJ    TRPL4       010VISTA          000000000005500000000055000000000530000000000000000000055000003830000
0202LOTE PADRAO                   ITAUBANCO   PN * EJ    ITAU4       010VISTA          000000000122900000001290000000012225000000000000000001235000012064200
0202LOTE PADRAO                   TELEMAR     ON * EJ    TNLP3       010VISTA          000000000017100000000178000000001710000000000000000000171000008130800
0202LOTE PADRAO                   SID NACIONALON *       CSNA3       010VISTA          000000000038000000000398000000003700000000000000000000393000010604100
0202LOTE PADRAO                   TELE LEST CLPN *       TLCP4       010VISTA          000000000000410000000004100000000039000000000000000000003900108105000
0202LOTE PADRAO                   CRT CELULAR PNA* EJ    CRTP5       010VISTA          000000000370000000003700000000035000000000000000000003520000000139100
0202LOTE PADRAO                   IPIRANGA PETPN *       PTIP4       010VISTA          000000000011600000000116000000001100000000000000000000110000000310000
0202LOTE PADRAO                   BRASIL T PARPN *       BRTP4       010VISTA          000000000017500000000180000000001710000000000000000000173000050038700
0202LOTE PADRAO                   BRASIL T PARON *       BRTP3       010VISTA          000000000013300000000135000000001270000000000000000000128000015378700
0202LOTE PADRAO                   KLABIN S/A  PN         KLBN4       010VISTA          000000000000900000000009400000000090000000000000000000009100000004000
0202LOTE PADRAO                   ACESITA     PN *       ACES4       010VISTA          000000000000720000000007300000000070000000000000000000007000146369000
0202LOTE PADRAO                   PETROBRAS   PN         PETR4       010VISTA          000000000040700000000412000000003960000000000000000000398000000125500
0202LOTE PADRAO                   ELETROBRAS  PNB*       ELET6       010VISTA          000000000020100000000206000000001900000000000000000000191000048254500
0202LOTE PADRAO                   PETROBRAS   ON         PETR3       010VISTA          000000000044700000000452000000004370000000000000000000440000000070600
0202LOTE PADRAO                   COMGAS      PNA*       CGAS5       010VISTA          000000000047000000000489000000004700000000000000000000477000001777100
0202LOTE PADRAO                   SOUZA CRUZ  ON EJ      CRUZ3       010VISTA          000000000014100000000144000000001380000000000000000000142500000010700
0202LOTE PADRAO                   ELETROBRAS  ON *       ELET3       010VISTA          000000000020500000000213000000001960000000000000000000198000017991700
0202LOTE PADRAO                   CELESC      PNB        CLSC6       010VISTA          000000000000570000000005800000000056000000000000000000005700000453700
0202LOTE PADRAO                   BRADESCO    PN * EJ    BBDC4       010VISTA          000000000008600000000090000000000860000000000000000000089000218269000
0202LOTE PADRAO                   CESP        PN *       CESP4       010VISTA          000000000006800000000070000000000660000000000000000000067000005711300
0202LOTE PADRAO                   LIGHT       ON *       LIGH3       010VISTA          000000000076900000000769000000007250000000000000000000725000000294100
0202LOTE PADRAO                   TELESP CL PAPN *       TSPP4       010VISTA          000000000003600000000037300000000356000000000000000000036000761716000
0202LOTE PADRAO                   VALE R DOCE PNA        VALE5       010VISTA          000000000073900000000739000000007120000000000000000000712000000038200
0202LOTE PADRAO                   COPEL       PNB*       CPLE6       010VISTA          000000000009200000000095000000000910000000000000000000094000037892500
0202LOTE PADRAO                   VALE R DOCE ON         VALE3       010VISTA          000000000081500000000815000000007740000000000000000000774000000019400
0202LOTE PADRAO                   ARACRUZ     PNB        ARCZ6       010VISTA          000000000005500000000055000000000530000000000000000000053000000007200
0202LOTE PADRAO                   TELEMIG PARTPN *       TMCP4       010VISTA          000000000002960000000029600000000280000000000000000000028000041686800
0202LOTE PADRAO                   BRASIL TELECPN *       BRTO4       010VISTA          000000000010900000000111000000001080000000000000000000109000079267000
0202LOTE PADRAO                   SABESP      ON *       SBSP3       010VISTA          000000000081000000000819000000007750000000000000000000775000007075300
0202LOTE PADRAO                   BRASKEM     PNA*       BRKM5       010VISTA          000000000316000000003249000000028600000000000000000002950000000356400
0202LOTE PADRAO                   EMBRAER     PN EJ      EMBR4       010VISTA          000000000013400000000137500000001300000000000000000000137000000031700
0202LOTE PADRAO                   TELESP      PN * EJ    TLPP4       010VISTA          000000000032200000000326000000003190000000000000000000320000008234300
0202LOTE PADRAO                   EMBRAER     ON EJ      EMBR3       010VISTA          000000000012500000000126000000001220000000000000000000126000000007400
0202LOTE PADRAO                   AMBEV       PN *       AMBV4       010VISTA          000000000443000000004482000000043700000000000000000004412000000607800
0202LOTE PADRAO                   USIMINAS    PNA        USIM5       010VISTA          000000000005250000000052500000000490000000000000000000050000000143600
0202LOTE PADRAO                   ELETROPAULO PN *       ELPL4       010VISTA          000000000027000000000278000000002650000000000000000000270000002960000
0202LOTE PADRAO                   TELE NORD CLPN *       TNEP4       010VISTA          000000000002500000000025000000000240000000000000000000024000085645100
0202LOTE PADRAO                   CEMIG       PN * EJ    CMIG4       010VISTA          000000000023500000000242000000002330000000000000000000236000052900400
0202LOTE PADRAO                   TELE CL SUL PN * EJ    TCSL4       010VISTA          000000000002600000000026000000000240000000000000000000025000059431000
0202LOTE PADRAO                   TRACTEBEL   ON *       TBLE3       010VISTA          000000000004200000000042000000000400000000000000000000040000007970000
0202LOTE PADRAO                   CEMIG       ON * EJ    CMIG3       010VISTA          000000000022900000000230000000002250000000000000000000225000000353900
0202LOTE PADRAO                   TELE CL SUL ON * EJ    TCSL3       010VISTA          000000000002100000000021000000000210000000000000000000021000005678900
0202LOTE PADRAO                   ITAUSA      PN         ITSA4       010VISTA          000000000001560000000016000000000154000000000000000000015000000400000
0202LOTE PADRAO                   V C P       PN *       VCPA4       010VISTA          000000000100000000001030000000009900000000000000000000990000003068400
0202LOTE PADRAO                   SID TUBARAO PN *       CSTB4       010VISTA          000000000025100000000269000000002510000000000000000000265000005840000
0202LOTE PADRAO                   BRADESPAR   PN *       BRAP4       010VISTA          000000000000480000000004900000000048000000000000000000004800131097000
0202LOTE PADRAO                   NET         PN         PLIM4       010VISTA          000000000000410000000004300000000040000000000000000000004000000292700
0202LOTE PADRAO                   TELE CTR OESPN * EJ    TCOC4       010VISTA          000000000002600000000027000000000250000000000000000000025000303478000
0202LOTE PADRAO                   TELEMAR N L PNA* EJ    TMAR5       010VISTA          000000000039800000000410000000003970000000000000000000400000023288500
0202LOTE PADRAO                   GERDAU      PN * EJ    GGBR4       010VISTA          000000000031500000000322000000003150000000000000000000322000046662400
0202LOTE PADRAO                   BRASIL      ON *       BBAS3       010VISTA          000000000009900000000101000000000975000000000000000000098000008844300
