00BDIN9999BOVESPA 99992002051620020516
0101IBOVESPA                      0123960123960126910000000000000000002002051600000020020516012660000000
0202LOTE PADRAO                   EMBRATEL PARPN *       EBTP4       010VISTA          000000000004000000000042000000000400000000000000000000041000354025000
0202LOTE PADRAO                   TRAN PAULISTPN * EJ    TRPL4       010VISTA          000000000006200000000063000000000600000000000000000000060000013355800
0202LOTE PADRAO                   EMBRATEL PARON *       EBTP3       010VISTA          000000000005500000000059000000000520000000000000000000057000050543200
0202LOTE PADRAO                   TELEMAR     PN * EJ    TNLP4       010VISTA          000000000029800000000303000000002950000000000000000000303000318684000
0202LOTE PADRAO                   ITAUBANCO   PN * EJ    ITAU4       010VISTA          000000000176500000001799000000017650000000000000000001781000009724100
0202LOTE PADRAO                   TELEMAR     ON * EJ    TNLP3       010VISTA          000000000025300000000261000000002530000000000000000000261000010259800
0202LOTE PADRAO                   SID NACIONALON *       CSNA3       010VISTA          000000000047900000000520000000004790000000000000000000498000028311000
0202LOTE PADRAO                   TELE LEST CLPN *       TLCP4       010VISTA          000000000000710000000007100000000069000000000000000000007000052237400
0202LOTE PADRAO                   CRT CELULAR PNA* EJ    CRTP5       010VISTA          000000000420000000004200000000041000000000000000000004160000000707000
0202LOTE PADRAO                   IPIRANGA PETPN *       PTIP4       010VISTA          000000000014000000000144000000001390000000000000000000140000000861200
0202LOTE PADRAO                   BRASIL T PARPN *       BRTP4       010VISTA          000000000017300000000176000000001730000000000000000000176000033690000
0202LOTE PADRAO                   BRASIL T PARON *       BRTP3       010VISTA          000000000016000000000166000000001600000000000000000000165000007619800
0202LOTE PADRAO                   KLABIN S/A  PN         KLBN4       010VISTA          000000000001100000000011000000000110000000000000000000011000000034400
0202LOTE PADRAO                   ACESITA     PN *       ACES4       010VISTA          000000000000690000000007000000000068000000000000000000006800074322200
0202LOTE PADRAO                   PETROBRAS   PN         PETR4       010VISTA          000000000052700000000540000000005240000000000000000000540000000070800
0202LOTE PADRAO                   ELETROBRAS  PNB*       ELET6       010VISTA          000000000030100000000318000000003010000000000000000000313000080857600
0202LOTE PADRAO                   PETROBRAS   ON         PETR3       010VISTA          000000000055700000000567000000005500000000000000000000567000000043900
0202LOTE PADRAO                   COMGAS      PNA*       CGAS5       010VISTA          000000000077700000000779000000007740000000000000000000775000000914100
0202LOTE PADRAO                   SOUZA CRUZ  ON EJ      CRUZ3       010VISTA          000000000016300000000163000000001610000000000000000000161000000007700
0202LOTE PADRAO                   ELETROBRAS  ON *       ELET3       010VISTA          000000000033700000000354000000003370000000000000000000353000042327300
0202LOTE PADRAO                   CELESC      PNB        CLSC6       010VISTA          000000000000550000000005500000000054000000000000000000005400000308300
0202LOTE PADRAO                   BRADESCO    PN * EJ    BBDC4       010VISTA          000000000013100000000135000000001310000000000000000000133000105186000
0202LOTE PADRAO                   CESP        PN *       CESP4       010VISTA          000000000010700000000112500000001050000000000000000000109000010155900
0202LOTE PADRAO                   LIGHT       ON *       LIGH3       010VISTA          000000000096900000001000000000009690000000000000000000970000000144600
0202LOTE PADRAO                   TELESP CL PAPN *       TSPP4       010VISTA          000000000005800000000060000000000580000000000000000000060000303253000
0202LOTE PADRAO                   VALE R DOCE PNA        VALE5       010VISTA          000000000068500000000694000000006800000000000000000000682000000027400
0202LOTE PADRAO                   COPEL       PNB*       CPLE6       010VISTA          000000000014800000000151000000001480000000000000000000151000032031000
0202LOTE PADRAO                   VALE R DOCE ON         VALE3       010VISTA          000000000068700000000690000000006800000000000000000000690000000012300
0202LOTE PADRAO                   ARACRUZ     PNB        ARCZ6       010VISTA          000000000005600000000056000000000540000000000000000000054000000034000
0202LOTE PADRAO                   TELEMIG PARTPN *       TMCP4       010VISTA          000000000002700000000028000000000270000000000000000000028000156397000
0202LOTE PADRAO                   BRASIL TELECPN *       BRTO4       010VISTA          000000000012100000000124000000001210000000000000000000122000102727000
0202LOTE PADRAO                   SABESP      ON *       SBSP3       010VISTA          000000000114900000001170000000011450000000000000000001168000015624900
0202LOTE PADRAO                   BRASKEM     PNA*       BRKM5       010VISTA          000000000485000000004850000000047100000000000000000004750000000045600
0202LOTE PADRAO                   EMBRAER     PN EJ      EMBR4       010VISTA          000000000014400000000144000000001380000000000000000000139000000048300
0202LOTE PADRAO                   TELESP      PN * EJ    TLPP4       010VISTA          000000000034000000000342000000003370000000000000000000342500004606800
0202LOTE PADRAO                   EMBRAER     ON EJ      EMBR3       010VISTA          000000000012800000000128000000001260000000000000000000126000000010200
0202LOTE PADRAO                   AMBEV       PN *       AMBV4       010VISTA          000000000483000000004855000000047300000000000000000004730000002052200
0202LOTE PADRAO                   USIMINAS    PNA        USIM5       010VISTA          000000000007400000000077000000000740000000000000000000075000000039100
0202LOTE PADRAO                   ELETROPAULO PN *       ELPL4       010VISTA          000000000054000000000567000000005400000000000000000000567000001780400
0202LOTE PADRAO                   TELE NORD CLPN *       TNEP4       010VISTA          000000000002400000000025000000000240000000000000000000025000138668000
0202LOTE PADRAO                   CEMIG       PN * EJ    CMIG4       010VISTA          000000000032000000000328000000003200000000000000000000325000036180300
0202LOTE PADRAO                   TELE CL SUL PN * EJ    TCSL4       010VISTA          000000000003000000000030000000000300000000000000000000030000043129400
0202LOTE PADRAO                   TRACTEBEL   ON *       TBLE3       010VISTA          000000000004200000000042000000000400000000000000000000040000005298600
0202LOTE PADRAO                   CEMIG       ON * EJ    CMIG3       010VISTA          000000000031300000000313000000002980000000000000000000306000000371800
0202LOTE PADRAO                   TELE CL SUL ON * EJ    TCSL3       010VISTA          000000000002750000000027500000000260000000000000000000027000020182300
0202LOTE PADRAO                   ITAUSA      PN         ITSA4       010VISTA          000000000002200000000022000000000210000000000000000000022000000090900
0202LOTE PADRAO                   V C P       PN *       VCPA4       010VISTA          000000000097900000000994000000009720000000000000000000985000003627700
0202LOTE PADRAO                   SID TUBARAO PN *       CSTB4       010VISTA          000000000029300000000299000000002930000000000000000000295000019117400
0202LOTE PADRAO                   BRADESPAR   PN *       BRAP4       010VISTA          000000000000640000000006400000000063000000000000000000006300057883800
0202LOTE PADRAO                   NET         PN         PLIM4       010VISTA          000000000000320000000003300000000031000000000000000000003200001059900
0202LOTE PADRAO                   TELE CTR OESPN * EJ    TCOC4       010VISTA          000000000004400000000045000000000430000000000000000000045400150452000
0202LOTE PADRAO                   TELEMAR N L PNA* EJ    TMAR5       010VISTA          000000000051600000000525000000005160000000000000000000525000017012100
0202LOTE PADRAO                   GERDAU      PN * EJ    GGBR4       010VISTA          000000000031900000000334000000003180000000000000000000327000031681600
0202LOTE PADRAO                   BRASIL      ON *       BBAS3       010VISTA          000000000012100000000124000000001210000000000000000000123000005034800
