00BDIN9999BOVESPA 99992002112220021122
0101IBOVESPA                      0102880101240104330000000000000000002002112200000020021122010404000000
0202LOTE PADRAO                   EMBRATEL PARPN *       EBTP4       010VISTA          000000000002600000000032000000000260000000000000000000032000781477000
0202LOTE PADRAO                   TRAN PAULISTPN * EJ    TRPL4       010VISTA          000000000005250000000053000000000510000000000000000000052000009712600
0202LOTE PADRAO                   EMBRATEL PARON *       EBTP3       010VISTA          000000000003100000000040000000000310000000000000000000040000121030000
0202LOTE PADRAO                   TELEMAR     PN * EJ    TNLP4       010VISTA          000000000025900000000262500000002550000000000000000000260000191278000
0202LOTE PADRAO                   ITAUBANCO   PN * EJ    ITAU4       010VISTA          000000000150500000001505000000014760000000000000000001478000008984200
0202LOTE PADRAO                   TELEMAR     ON * EJ    TNLP3       010VISTA          000000000018800000000191000000001850000000000000000000191000016336500
0202LOTE PADRAO                   SID NACIONALON *       CSNA3       010VISTA          000000000045800000000463000000004550000000000000000000460000007839400
0202LOTE PADRAO                   TELE LEST CLPN *       TLCP4       010VISTA          000000000000410000000004300000000040000000000000000000004300309172000
0202LOTE PADRAO                   CRT CELULAR PNA* EJ    CRTP5       010VISTA          000000000311000000003150000000031000000000000000000003144000001442000
0202LOTE PADRAO                   IPIRANGA PETPN *       PTIP4       010VISTA          000000000007700000000077500000000750000000000000000000076000001420000
0202LOTE PADRAO                   BRASIL T PARPN *       BRTP4       010VISTA          000000000018100000000183000000001775000000000000000000182000038078000
0202LOTE PADRAO                   BRASIL T PARON *       BRTP3       010VISTA          000000000013100000000136000000001310000000000000000000136000004449000
0202LOTE PADRAO                   KLABIN S/A  PN         KLBN4       010VISTA          000000000001000000000010000000000097000000000000000000010000000016000
0202LOTE PADRAO                   ACESITA     PN *       ACES4       010VISTA          000000000000800000000008000000000077000000000000000000007900120271000
0202LOTE PADRAO                   PETROBRAS   PN         PETR4       010VISTA          000000000045200000000456000000004470000000000000000000452000000073300
0202LOTE PADRAO                   ELETROBRAS  PNB*       ELET6       010VISTA          000000000019100000000196000000001900000000000000000000196000037999900
0202LOTE PADRAO                   PETROBRAS   ON         PETR3       010VISTA          000000000049700000000498000000004880000000000000000000495000000015000
0202LOTE PADRAO                   COMGAS      PNA*       CGAS5       010VISTA          000000000055500000000565000000005460000000000000000000560000000585000
0202LOTE PADRAO                   SOUZA CRUZ  ON EJ      CRUZ3       010VISTA          000000000018200000000186000000001800000000000000000000184000000007100
0202LOTE PADRAO                   ELETROBRAS  ON *       ELET3       010VISTA          000000000019600000000203000000001950000000000000000000203000010078500
0202LOTE PADRAO                   CELESC      PNB        CLSC6       010VISTA          000000000000480000000004800000000047000000000000000000004800000069600
0202LOTE PADRAO                   BRADESCO    PN * EJ    BBDC4       010VISTA          000000000009300000000093000000000910000000000000000000091000157039000
0202LOTE PADRAO                   CESP        PN *       CESP4       010VISTA          000000000006200000000062000000000600000000000000000000060000009366800
0202LOTE PADRAO                   LIGHT       ON *       LIGH3       010VISTA          000000000055200000000552000000005200000000000000000000530000000350900
0202LOTE PADRAO                   TELESP CL PAPN *       TSPP4       010VISTA          000000000003940000000040000000000380000000000000000000039800459692000
0202LOTE PADRAO                   VALE R DOCE PNA        VALE5       010VISTA          000000000091500000000915000000008880000000000000000000895000000010900
0202LOTE PADRAO                   COPEL       PNB*       CPLE6       010VISTA          000000000007800000000078000000000750000000000000000000077100037073800
0202LOTE PADRAO                   VALE R DOCE ON         VALE3       010VISTA          000000000097000000000970000000009520000000000000000000960000000006300
0202LOTE PADRAO                   ARACRUZ     PNB        ARCZ6       010VISTA          000000000005800000000061000000000580000000000000000000061000000048100
0202LOTE PADRAO                   TELEMIG PARTPN *       TMCP4       010VISTA          000000000002900000000029000000000280000000000000000000029000048885000
0202LOTE PADRAO                   BRASIL TELECPN *       BRTO4       010VISTA          000000000011250000000113000000001100000000000000000000113000070929500
0202LOTE PADRAO                   SABESP      ON *       SBSP3       010VISTA          000000000082200000000822000000008050000000000000000000806000002467100
0202LOTE PADRAO                   BRASKEM     PNA*       BRKM5       010VISTA          000000000213900000002150000000020975000000000000000002100000000671500
0202LOTE PADRAO                   EMBRAER     PN EJ      EMBR4       010VISTA          000000000012700000000129000000001260000000000000000000127000000058100
0202LOTE PADRAO                   TELESP      PN * EJ    TLPP4       010VISTA          000000000037500000000377000000003700000000000000000000377000003146900
0202LOTE PADRAO                   EMBRAER     ON EJ      EMBR3       010VISTA          000000000011600000000119000000001150000000000000000000118000000005700
0202LOTE PADRAO                   AMBEV       PN *       AMBV4       010VISTA          000000000529000000005369000000051500000000000000000005329000001727300
0202LOTE PADRAO                   USIMINAS    PNA        USIM5       010VISTA          000000000005600000000060000000000560000000000000000000059600000104200
0202LOTE PADRAO                   ELETROPAULO PN *       ELPL4       010VISTA          000000000024000000000243000000002360000000000000000000243000002226900
0202LOTE PADRAO                   TELE NORD CLPN *       TNEP4       010VISTA          000000000002600000000027000000000250000000000000000000026000055045500
0202LOTE PADRAO                   CEMIG       PN * EJ    CMIG4       010VISTA          000000000022800000000238000000002260000000000000000000238000018832200
0202LOTE PADRAO                   TELE CL SUL PN * EJ    TCSL4       010VISTA          000000000002690000000027900000000260000000000000000000027900046863500
0202LOTE PADRAO                   TRACTEBEL   ON *       TBLE3       010VISTA          000000000003200000000032500000000310000000000000000000032000004230000
0202LOTE PADRAO                   CEMIG       ON * EJ    CMIG3       010VISTA          000000000021500000000215000000002050000000000000000000209000000663100
0202LOTE PADRAO                   TELE CL SUL ON * EJ    TCSL3       010VISTA          000000000002000000000020000000000198000000000000000000020000017251500
0202LOTE PADRAO                   ITAUSA      PN         ITSA4       010VISTA          000000000001740000000017900000000173000000000000000000017900000180000
0202LOTE PADRAO                   V C P       PN *       VCPA4       010VISTA          000000000114000000001210000000011200000000000000000001200000002761700
0202LOTE PADRAO                   SID TUBARAO PN *       CSTB4       010VISTA          000000000034100000000352000000003320000000000000000000342000008994300
0202LOTE PADRAO                   BRADESPAR   PN *       BRAP4       010VISTA          000000000000480000000004800000000046000000000000000000004700176719000
0202LOTE PADRAO                   NET         PN         PLIM4       010VISTA          000000000000310000000003200000000030000000000000000000003100001504700
0202LOTE PADRAO                   TELE CTR OESPN * EJ    TCOC4       010VISTA          000000000003900000000043000000000390000000000000000000043000270141000
0202LOTE PADRAO                   TELEMAR N L PNA* EJ    TMAR5       010VISTA          000000000042800000000431000000004180000000000000000000430000008246600
0202LOTE PADRAO                   GERDAU      PN * EJ    GGBR4       010VISTA          000000000031800000000320000000003150000000000000000000316000011821000
0202LOTE PADRAO                   BRASIL      ON *       BBAS3       010VISTA          000000000010100000000102000000000990000000000000000000101000032772300
