00BDIN9999BOVESPA 99992002060720020607
0101IBOVESPA                      0120510119550123100000000000000000002002060700000020020607012283000000
0202LOTE PADRAO                   EMBRATEL PARPN *       EBTP4       010VISTA          000000000003600000000039000000000360000000000000000000038000139049000
0202LOTE PADRAO                   TRAN PAULISTPN * EJ    TRPL4       010VISTA          000000000006000000000065000000000600000000000000000000064000016091100
0202LOTE PADRAO                   EMBRATEL PARON *       EBTP3       010VISTA          000000000005000000000052000000000490000000000000000000051000028851900
0202LOTE PADRAO                   TELEMAR     PN * EJ    TNLP4       010VISTA          000000000030100000000316000000003010000000000000000000313000310690000
0202LOTE PADRAO                   ITAUBANCO   PN * EJ    ITAU4       010VISTA          000000000160500000001629000000015850000000000000000001615000009644800
0202LOTE PADRAO                   TELEMAR     ON * EJ    TNLP3       010VISTA          000000000024300000000258000000002430000000000000000000257500018221800
0202LOTE PADRAO                   SID NACIONALON *       CSNA3       010VISTA          000000000044500000000454000000004380000000000000000000453000014134000
0202LOTE PADRAO                   TELE LEST CLPN *       TLCP4       010VISTA          000000000000660000000007000000000066000000000000000000007000099626000
0202LOTE PADRAO                   CRT CELULAR PNA* EJ    CRTP5       010VISTA          000000000370000000004090000000037000000000000000000004080000000435500
0202LOTE PADRAO                   IPIRANGA PETPN *       PTIP4       010VISTA          000000000013600000000140000000001350000000000000000000135000001935500
0202LOTE PADRAO                   BRASIL T PARPN *       BRTP4       010VISTA          000000000015500000000165000000001550000000000000000000163000073089200
0202LOTE PADRAO                   BRASIL T PARON *       BRTP3       010VISTA          000000000014100000000149000000001410000000000000000000146000019525400
0202LOTE PADRAO                   KLABIN S/A  PN         KLBN4       010VISTA          000000000000930000000009900000000093000000000000000000009800000041800
0202LOTE PADRAO                   ACESITA     PN *       ACES4       010VISTA          000000000000650000000006800000000064000000000000000000006800102405000
0202LOTE PADRAO                   PETROBRAS   PN         PETR4       010VISTA          000000000054000000000540000000005300000000000000000000533000000091300
0202LOTE PADRAO                   ELETROBRAS  PNB*       ELET6       010VISTA          000000000026600000000273000000002650000000000000000000271000067517400
0202LOTE PADRAO                   PETROBRAS   ON         PETR3       010VISTA          000000000058000000000595000000005720000000000000000000573000000034200
0202LOTE PADRAO                   COMGAS      PNA*       CGAS5       010VISTA          000000000066800000000690000000006600000000000000000000679000000505800
0202LOTE PADRAO                   SOUZA CRUZ  ON EJ      CRUZ3       010VISTA          000000000015600000000160000000001550000000000000000000158000000017800
0202LOTE PADRAO                   ELETROBRAS  ON *       ELET3       010VISTA          000000000030250000000311000000003010000000000000000000309000007891700
0202LOTE PADRAO                   CELESC      PNB        CLSC6       010VISTA          000000000000500000000005300000000050000000000000000000005300000227800
0202LOTE PADRAO                   BRADESCO    PN * EJ    BBDC4       010VISTA          000000000012000000000122000000001180000000000000000000122000299297000
0202LOTE PADRAO                   CESP        PN *       CESP4       010VISTA          000000000009500000000100000000000950000000000000000000098000004431500
0202LOTE PADRAO                   LIGHT       ON *       LIGH3       010VISTA          000000000090500000000970000000009050000000000000000000925000000154500
0202LOTE PADRAO                   TELESP CL PAPN *       TSPP4       010VISTA          000000000004700000000049000000000460000000000000000000049000199561000
0202LOTE PADRAO                   VALE R DOCE PNA        VALE5       010VISTA          000000000074200000000757000000007400000000000000000000744000000066200
0202LOTE PADRAO                   COPEL       PNB*       CPLE6       010VISTA          000000000013400000000136000000001310000000000000000000134000030844600
0202LOTE PADRAO                   VALE R DOCE ON         VALE3       010VISTA          000000000076700000000775000000007650000000000000000000769000000028900
0202LOTE PADRAO                   ARACRUZ     PNB        ARCZ6       010VISTA          000000000005500000000057000000000550000000000000000000055000000023900
0202LOTE PADRAO                   TELEMIG PARTPN *       TMCP4       010VISTA          000000000002800000000029800000000275000000000000000000029000073303000
0202LOTE PADRAO                   BRASIL TELECPN *       BRTO4       010VISTA          000000000011400000000119000000001140000000000000000000118000070188100
0202LOTE PADRAO                   SABESP      ON *       SBSP3       010VISTA          000000000104900000001109000000010100000000000000000001100000006821000
0202LOTE PADRAO                   BRASKEM     PNA*       BRKM5       010VISTA          000000000410000000004200000000040200000000000000000004020000000082500
0202LOTE PADRAO                   EMBRAER     PN EJ      EMBR4       010VISTA          000000000014100000000146000000001410000000000000000000144000000050000
0202LOTE PADRAO                   TELESP      PN * EJ    TLPP4       010VISTA          000000000032300000000349000000003230000000000000000000345000009784800
0202LOTE PADRAO                   EMBRAER     ON EJ      EMBR3       010VISTA          000000000012500000000130000000001240000000000000000000128000000018000
0202LOTE PADRAO                   AMBEV       PN *       AMBV4       010VISTA          000000000470000000004730000000046650000000000000000004690000002497600
0202LOTE PADRAO                   USIMINAS    PNA        USIM5       010VISTA          000000000007300000000075000000000720000000000000000000074000000056200
0202LOTE PADRAO                   ELETROPAULO PN *       ELPL4       010VISTA          000000000041500000000417000000003900000000000000000000395000014538300
0202LOTE PADRAO                   TELE NORD CLPN *       TNEP4       010VISTA          000000000002400000000026000000000230000000000000000000025000157215000
0202LOTE PADRAO                   CEMIG       PN * EJ    CMIG4       010VISTA          000000000031000000000320000000003100000000000000000000319000049983200
0202LOTE PADRAO                   TELE CL SUL PN * EJ    TCSL4       010VISTA          000000000002800000000030000000000280000000000000000000030000051350000
0202LOTE PADRAO                   TRACTEBEL   ON *       TBLE3       010VISTA          000000000003700000000039000000000360000000000000000000039000027410000
0202LOTE PADRAO                   CEMIG       ON * EJ    CMIG3       010VISTA          000000000028500000000300000000002850000000000000000000293000000379300
0202LOTE PADRAO                   TELE CL SUL ON * EJ    TCSL3       010VISTA          000000000002300000000025000000000230000000000000000000025400036438900
0202LOTE PADRAO                   ITAUSA      PN         ITSA4       010VISTA          000000000001900000000019600000000180000000000000000000019600000577400
0202LOTE PADRAO                   V C P       PN *       VCPA4       010VISTA          000000000103000000001050000000010000000000000000000001030000001354500
0202LOTE PADRAO                   SID TUBARAO PN *       CSTB4       010VISTA          000000000028300000000298000000002830000000000000000000293000017260500
0202LOTE PADRAO                   BRADESPAR   PN *       BRAP4       010VISTA          000000000000590000000006200000000059000000000000000000006200118439000
0202LOTE PADRAO                   NET         PN         PLIM4       010VISTA          000000000000340000000003800000000034000000000000000000003700001704900
0202LOTE PADRAO                   TELE CTR OESPN * EJ    TCOC4       010VISTA          000000000004000000000042000000000390000000000000000000041000138612000
0202LOTE PADRAO                   TELEMAR N L PNA* EJ    TMAR5       010VISTA          000000000050100000000520000000005010000000000000000000518000031836700
0202LOTE PADRAO                   GERDAU      PN * EJ    GGBR4       010VISTA          000000000029000000000306000000002900000000000000000000306000012996300
0202LOTE PADRAO                   BRASIL      ON *       BBAS3       010VISTA          000000000011600000000118000000001150000000000000000000118000011398000
