00BDIN9999BOVESPA 99992002021820020218
0101IBOVESPA                      0132080130270132380000000000000000002002021800000020020218013122000000
0202LOTE PADRAO                   EMBRATEL PARPN *       EBTP4       010VISTA          000000000008300000000084000000000810000000000000000000083000060829200
0202LOTE PADRAO                   EMBRATEL PARON *       EBTP3       010VISTA          000000000010300000000104000000001010000000000000000000104000016892100
0202LOTE PADRAO                   TRAN PAULISTPN * EJ    TRPL4       010VISTA          000000000007250000000072000000000710000000000000000000072000001982300
0202LOTE PADRAO                   TELEMAR     PN * EJ    TNLP4       010VISTA          000000000032500000000327000000003225000000000000000000325000204362000
0202LOTE PADRAO                   ITAUBANCO   PN * EJ    ITAU4       010VISTA          000000000181500000001815000000017780000000000000000001798000005384700
0202LOTE PADRAO                   TELEMAR     ON * EJ    TNLP3       010VISTA          000000000028500000000288000000002830000000000000000000286000004644500
0202LOTE PADRAO                   SID NACIONALON *       CSNA3       010VISTA          000000000041100000000411000000004050000000000000000000408000027563400
0202LOTE PADRAO                   TELE LEST CLPN *       TLCP4       010VISTA          000000000000840000000008500000000082000000000000000000008300089631900
0202LOTE PADRAO                   CRT CELULAR PNA* EJ    CRTP5       010VISTA          000000000450000000004630000000045000000000000000000004630000000204900
0202LOTE PADRAO                   IPIRANGA PETPN *       PTIP4       010VISTA          000000000012900000000130000000001280000000000000000000130000000548400
0202LOTE PADRAO                   BRASIL T PARPN *       BRTP4       010VISTA          000000000017100000000173000000001700000000000000000000173000022751400
0202LOTE PADRAO                   BRASIL T PARON *       BRTP3       010VISTA          000000000017300000000175000000001700000000000000000000175000002342800
0202LOTE PADRAO                   KLABIN S/A  PN         KLBN4       010VISTA          000000000001100000000011000000000110000000000000000000011000000043800
0202LOTE PADRAO                   ACESITA     PN *       ACES4       010VISTA          000000000000690000000006900000000068000000000000000000006800095896400
0202LOTE PADRAO                   PETROBRAS   PN         PETR4       010VISTA          000000000050100000000502000000004920000000000000000000497000000119400
0202LOTE PADRAO                   ELETROBRAS  PNB*       ELET6       010VISTA          000000000034200000000342000000003310000000000000000000333000021395000
0202LOTE PADRAO                   PETROBRAS   ON         PETR3       010VISTA          000000000050700000000508000000005040000000000000000000506000000007800
0202LOTE PADRAO                   COMGAS      PNA*       CGAS5       010VISTA          000000000087500000000880000000008750000000000000000000880000000025000
0202LOTE PADRAO                   SOUZA CRUZ  ON EJ      CRUZ3       010VISTA          000000000014000000000141000000001400000000000000000000141000000003000
0202LOTE PADRAO                   ELETROBRAS  ON *       ELET3       010VISTA          000000000039000000000396000000003820000000000000000000382000011216300
0202LOTE PADRAO                   CELESC      PNB        CLSC6       010VISTA          000000000000500000000005100000000049000000000000000000005100000063300
0202LOTE PADRAO                   BRADESCO    PN * EJ    BBDC4       010VISTA          000000000012600000000126000000001250000000000000000000126000090933000
0202LOTE PADRAO                   CESP        PN *       CESP4       010VISTA          000000000014900000000151000000001480000000000000000000150000001255200
0202LOTE PADRAO                   LIGHT       ON *       LIGH3       010VISTA          000000000119000000001190000000011700000000000000000001170000000195100
0202LOTE PADRAO                   TELESP CL PAPN *       TSPP4       010VISTA          000000000007250000000073000000000710000000000000000000072000126968000
0202LOTE PADRAO                   VALE R DOCE PNA        VALE5       010VISTA          000000000057500000000580000000005620000000000000000000569000000018100
0202LOTE PADRAO                   COPEL       PNB*       CPLE6       010VISTA          000000000017800000000178000000001760000000000000000000178000010705500
0202LOTE PADRAO                   VALE R DOCE ON         VALE3       010VISTA          000000000057400000000575000000005700000000000000000000570000000001500
0202LOTE PADRAO                   ARACRUZ     PNB        ARCZ6       010VISTA          000000000004750000000047500000000450000000000000000000047000000011800
0202LOTE PADRAO                   TELEMIG PARTPN *       TMCP4       010VISTA          000000000003600000000037700000000350000000000000000000037100038915000
0202LOTE PADRAO                   BRASIL TELECPN *       BRTO4       010VISTA          000000000012800000000128000000001240000000000000000000125000029034500
0202LOTE PADRAO                   SABESP      ON *       SBSP3       010VISTA          000000000121000000001229000000012100000000000000000001215000000419200
0202LOTE PADRAO                   BRASKEM     PNA*       BRKM5       010VISTA          000000000510000000005100000000049600000000000000000005030000000149200
0202LOTE PADRAO                   EMBRAER     PN EJ      EMBR4       010VISTA          000000000015100000000153000000001490000000000000000000151000000026700
0202LOTE PADRAO                   TELESP      PN * EJ    TLPP4       010VISTA          000000000030600000000306000000003030000000000000000000305000003100000
0202LOTE PADRAO                   EMBRAER     ON EJ      EMBR3       010VISTA          000000000013400000000135000000001320000000000000000000135000000007700
0202LOTE PADRAO                   AMBEV       PN *       AMBV4       010VISTA          000000000470000000004799000000045800000000000000000004680000000926000
0202LOTE PADRAO                   USIMINAS    PNA        USIM5       010VISTA          000000000007300000000074000000000730000000000000000000073000000003600
0202LOTE PADRAO                   ELETROPAULO PN *       ELPL4       010VISTA          000000000069000000000695000000006700000000000000000000676000006190900
0202LOTE PADRAO                   TELE NORD CLPN *       TNEP4       010VISTA          000000000002800000000028000000000270000000000000000000028000032627100
0202LOTE PADRAO                   CEMIG       PN * EJ    CMIG4       010VISTA          000000000036000000000360000000003460000000000000000000353000015751000
0202LOTE PADRAO                   TELE CL SUL PN * EJ    TCSL4       010VISTA          000000000003200000000032500000000310000000000000000000031000018222600
0202LOTE PADRAO                   CEMIG       ON * EJ    CMIG3       010VISTA          000000000031100000000311000000003100000000000000000000310000000242300
0202LOTE PADRAO                   TELE CL SUL ON * EJ    TCSL3       010VISTA          000000000002700000000028000000000279000000000000000000028100010490200
0202LOTE PADRAO                   ITAUSA      PN         ITSA4       010VISTA          000000000002100000000021000000000210000000000000000000021000000323800
0202LOTE PADRAO                   V C P       PN *       VCPA4       010VISTA          000000000089000000000890000000008850000000000000000000885000000130000
0202LOTE PADRAO                   SID TUBARAO PN *       CSTB4       010VISTA          000000000021500000000216000000002110000000000000000000211000002894000
0202LOTE PADRAO                   BRADESPAR   PN *       BRAP4       010VISTA          000000000000720000000007300000000071000000000000000000007200148204000
0202LOTE PADRAO                   NET         PN         PLIM4       010VISTA          000000000000630000000006400000000061000000000000000000006200000662400
0202LOTE PADRAO                   TELE CTR OESPN * EJ    TCOC4       010VISTA          000000000004700000000047000000000460000000000000000000047000039151100
0202LOTE PADRAO                   TELEMAR N L PNA* EJ    TMAR5       010VISTA          000000000055200000000552000000005370000000000000000000548000004961400
0202LOTE PADRAO                   GERDAU      PN * EJ    GGBR4       010VISTA          000000000025500000000256000000002480000000000000000000256000003384200
0202LOTE PADRAO                   BRASIL      ON *       BBAS3       010VISTA          000000000009900000000100000000000980000000000000000000100000003967200
