00BDIN9999BOVESPA 99992002100420021004
0101IBOVESPA                      0091510090920093190000000000000000002002100400000020021004009260000000
0202LOTE PADRAO                   EMBRATEL PARPN *       EBTP4       010VISTA          000000000002300000000024000000000230000000000000000000024000212592000
0202LOTE PADRAO                   TRAN PAULISTPN * EJ    TRPL4       010VISTA          000000000005000000000051000000000500000000000000000000051000009197500
0202LOTE PADRAO                   EMBRATEL PARON *       EBTP3       010VISTA          000000000003100000000032500000000300000000000000000000032500043083300
0202LOTE PADRAO                   TELEMAR     PN * EJ    TNLP4       010VISTA          000000000022400000000230000000002210000000000000000000230000167553000
0202LOTE PADRAO                   ITAUBANCO   PN * EJ    ITAU4       010VISTA          000000000132000000001342000000013000000000000000000001308000009382600
0202LOTE PADRAO                   TELEMAR     ON * EJ    TNLP3       010VISTA          000000000016800000000172000000001660000000000000000000170000011273400
0202LOTE PADRAO                   SID NACIONALON *       CSNA3       010VISTA          000000000032200000000339000000003220000000000000000000339000027819700
0202LOTE PADRAO                   TELE LEST CLPN *       TLCP4       010VISTA          000000000000370000000003900000000035000000000000000000003900154169000
0202LOTE PADRAO                   CRT CELULAR PNA* EJ    CRTP5       010VISTA          000000000329800000003298000000032000000000000000000003250000000150300
0202LOTE PADRAO                   IPIRANGA PETPN *       PTIP4       010VISTA          000000000009300000000093000000000890000000000000000000090000000850000
0202LOTE PADRAO                   BRASIL T PARPN *       BRTP4       010VISTA          000000000018500000000186000000001760000000000000000000176000059380700
0202LOTE PADRAO                   BRASIL T PARON *       BRTP3       010VISTA          000000000013600000000136000000001330000000000000000000134000006090000
0202LOTE PADRAO                   KLABIN S/A  PN         KLBN4       010VISTA          000000000000880000000009000000000087000000000000000000008700000019200
0202LOTE PADRAO                   ACESITA     PN *       ACES4       010VISTA          000000000000590000000006100000000059000000000000000000006000084644000
0202LOTE PADRAO                   PETROBRAS   PN         PETR4       010VISTA          000000000041000000000413000000004050000000000000000000406000000068400
0202LOTE PADRAO                   ELETROBRAS  PNB*       ELET6       010VISTA          000000000016700000000170000000001630000000000000000000168000049100400
0202LOTE PADRAO                   PETROBRAS   ON         PETR3       010VISTA          000000000045500000000462000000004520000000000000000000455000000024100
0202LOTE PADRAO                   COMGAS      PNA*       CGAS5       010VISTA          000000000057000000000593000000005700000000000000000000589000000267000
0202LOTE PADRAO                   SOUZA CRUZ  ON EJ      CRUZ3       010VISTA          000000000017100000000175000000001700000000000000000000170000000008800
0202LOTE PADRAO                   ELETROBRAS  ON *       ELET3       010VISTA          000000000016300000000167000000001610000000000000000000163000018591500
0202LOTE PADRAO                   CELESC      PNB        CLSC6       010VISTA          000000000000510000000005200000000051000000000000000000005100000102900
0202LOTE PADRAO                   BRADESCO    PN * EJ    BBDC4       010VISTA          000000000008900000000092000000000890000000000000000000089000209498000
0202LOTE PADRAO                   CESP        PN *       CESP4       010VISTA          000000000006000000000063000000000600000000000000000000063000008375400
0202LOTE PADRAO                   LIGHT       ON *       LIGH3       010VISTA          000000000055500000000580000000005550000000000000000000580000000233300
0202LOTE PADRAO                   TELESP CL PAPN *       TSPP4       010VISTA          000000000002960000000030000000000280000000000000000000030000307855000
0202LOTE PADRAO                   VALE R DOCE PNA        VALE5       010VISTA          000000000085000000000850000000008200000000000000000000833000000021900
0202LOTE PADRAO                   COPEL       PNB*       CPLE6       010VISTA          000000000008000000000083000000000800000000000000000000083000103668000
0202LOTE PADRAO                   VALE R DOCE ON         VALE3       010VISTA          000000000085000000000872000000008500000000000000000000852000000011100
0202LOTE PADRAO                   ARACRUZ     PNB        ARCZ6       010VISTA          000000000005400000000056000000000520000000000000000000053000000042700
0202LOTE PADRAO                   TELEMIG PARTPN *       TMCP4       010VISTA          000000000002500000000026000000000240000000000000000000025000130246000
0202LOTE PADRAO                   BRASIL TELECPN *       BRTO4       010VISTA          000000000011600000000119000000001140000000000000000000115000073123000
0202LOTE PADRAO                   SABESP      ON *       SBSP3       010VISTA          000000000081500000000849000000008150000000000000000000835000002342900
0202LOTE PADRAO                   BRASKEM     PNA*       BRKM5       010VISTA          000000000238000000002499000000023600000000000000000002420000000100200
0202LOTE PADRAO                   EMBRAER     PN EJ      EMBR4       010VISTA          000000000013400000000135000000001300000000000000000000134000000072300
0202LOTE PADRAO                   TELESP      PN * EJ    TLPP4       010VISTA          000000000031300000000320000000003100000000000000000000320000008599000
0202LOTE PADRAO                   EMBRAER     ON EJ      EMBR3       010VISTA          000000000012500000000128000000001200000000000000000000126000000007700
0202LOTE PADRAO                   AMBEV       PN *       AMBV4       010VISTA          000000000440000000004420000000043600000000000000000004380000001082000
0202LOTE PADRAO                   USIMINAS    PNA        USIM5       010VISTA          000000000004600000000049000000000460000000000000000000049000000084900
0202LOTE PADRAO                   ELETROPAULO PN *       ELPL4       010VISTA          000000000025200000000260000000002500000000000000000000260000002578900
0202LOTE PADRAO                   TELE NORD CLPN *       TNEP4       010VISTA          000000000002300000000023000000000220000000000000000000023000057576600
0202LOTE PADRAO                   CEMIG       PN * EJ    CMIG4       010VISTA          000000000022750000000233000000002260000000000000000000230000034910900
0202LOTE PADRAO                   TELE CL SUL PN * EJ    TCSL4       010VISTA          000000000002500000000025000000000230000000000000000000025000108566000
0202LOTE PADRAO                   TRACTEBEL   ON *       TBLE3       010VISTA          000000000003900000000040000000000380000000000000000000040000004350000
0202LOTE PADRAO                   CEMIG       ON * EJ    CMIG3       010VISTA          000000000022000000000229000000002130000000000000000000223000000405700
0202LOTE PADRAO                   TELE CL SUL ON * EJ    TCSL3       010VISTA          000000000002000000000021000000000198000000000000000000020000014791900
0202LOTE PADRAO                   ITAUSA      PN         ITSA4       010VISTA          000000000001500000000015000000000155000000000000000000015000000252800
0202LOTE PADRAO                   V C P       PN *       VCPA4       010VISTA          000000000109500000001105000000010700000000000000000001070000001220200
0202LOTE PADRAO                   SID TUBARAO PN *       CSTB4       010VISTA          000000000029800000000305000000002970000000000000000000301000006026100
0202LOTE PADRAO                   BRADESPAR   PN *       BRAP4       010VISTA          000000000000450000000004600000000044000000000000000000004600111309000
0202LOTE PADRAO                   NET         PN         PLIM4       010VISTA          000000000000240000000002600000000022000000000000000000002500001152300
0202LOTE PADRAO                   TELE CTR OESPN * EJ    TCOC4       010VISTA          000000000003000000000031000000000298000000000000000000031000087675900
0202LOTE PADRAO                   TELEMAR N L PNA* EJ    TMAR5       010VISTA          000000000042400000000426000000004200000000000000000000423000008237500
0202LOTE PADRAO                   GERDAU      PN * EJ    GGBR4       010VISTA          000000000029600000000298000000002920000000000000000000296000012687000
0202LOTE PADRAO                   BRASIL      ON *       BBAS3       010VISTA          000000000008800000000090000000000860000000000000000000089000029862200
