00BDIN9999BOVESPA 99992002081220020812
0101IBOVESPA                      0100080096870100090000000000000000002002081200000020020812009724000000
0202LOTE PADRAO                   EMBRATEL PARPN *       EBTP4       010VISTA          000000000001600000000016000000000150000000000000000000016000158276000
0202LOTE PADRAO                   EMBRATEL PARON *       EBTP3       010VISTA          000000000002300000000023000000000210000000000000000000022000012387600
0202LOTE PADRAO                   TRAN PAULISTPN * EJ    TRPL4       010VISTA          000000000005500000000055000000000520000000000000000000052000005232700
0202LOTE PADRAO                   ITAUBANCO   PN * EJ    ITAU4       010VISTA          000000000141000000001410000000012800000000000000000001313000014693400
0202LOTE PADRAO                   TELEMAR     ON * EJ    TNLP3       010VISTA          000000000018000000000180000000001730000000000000000000175000014556000
0202LOTE PADRAO                   SID NACIONALON *       CSNA3       010VISTA          000000000042000000000420000000004050000000000000000000407000005834700
0202LOTE PADRAO                   TELE LEST CLPN *       TLCP4       010VISTA          000000000000400000000004100000000039000000000000000000004100101426000
0202LOTE PADRAO                   CRT CELULAR PNA* EJ    CRTP5       010VISTA          000000000380000000003810000000037000000000000000000003700000000373600
0202LOTE PADRAO                   IPIRANGA PETPN *       PTIP4       010VISTA          000000000011500000000118000000001150000000000000000000116000000320000
0202LOTE PADRAO                   BRASIL T PARPN *       BRTP4       010VISTA          000000000017000000000170000000001630000000000000000000170000077567700
0202LOTE PADRAO                   BRASIL T PARON *       BRTP3       010VISTA          000000000012400000000126000000001210000000000000000000126000006043100
0202LOTE PADRAO                   KLABIN S/A  PN         KLBN4       010VISTA          000000000000980000000009800000000092000000000000000000009200000019800
0202LOTE PADRAO                   ACESITA     PN *       ACES4       010VISTA          000000000000670000000006700000000065000000000000000000006700030501300
0202LOTE PADRAO                   PETROBRAS   PN         PETR4       010VISTA          000000000044900000000449000000004270000000000000000000431000000058100
0202LOTE PADRAO                   ELETROBRAS  PNB*       ELET6       010VISTA          000000000022100000000226000000002180000000000000000000218000066101800
0202LOTE PADRAO                   PETROBRAS   ON         PETR3       010VISTA          000000000050000000000500000000004800000000000000000000485000000023800
0202LOTE PADRAO                   COMGAS      PNA*       CGAS5       010VISTA          000000000049800000000505000000004830000000000000000000483000000410200
0202LOTE PADRAO                   SOUZA CRUZ  ON EJ      CRUZ3       010VISTA          000000000014500000000145000000001430000000000000000000145000000058100
0202LOTE PADRAO                   ELETROBRAS  ON *       ELET3       010VISTA          000000000024000000000241000000002320000000000000000000233000021539500
0202LOTE PADRAO                   CELESC      PNB        CLSC6       010VISTA          000000000000550000000005500000000051000000000000000000005200000224100
0202LOTE PADRAO                   BRADESCO    PN * EJ    BBDC4       010VISTA          000000000009900000000099000000000900000000000000000000092000265982000
0202LOTE PADRAO                   CESP        PN *       CESP4       010VISTA          000000000007700000000077000000000720000000000000000000072000004408700
0202LOTE PADRAO                   LIGHT       ON *       LIGH3       010VISTA          000000000080000000000820000000007900000000000000000000790000000075600
0202LOTE PADRAO                   TELESP CL PAPN *       TSPP4       010VISTA          000000000003520000000035000000000350000000000000000000035000231935000
0202LOTE PADRAO                   VALE R DOCE PNA        VALE5       010VISTA          000000000072000000000720000000007050000000000000000000715000000020100
0202LOTE PADRAO                   COPEL       PNB*       CPLE6       010VISTA          000000000010600000000106000000000980000000000000000000100000049191100
0202LOTE PADRAO                   VALE R DOCE ON         VALE3       010VISTA          000000000076500000000777000000007650000000000000000000777000000024000
0202LOTE PADRAO                   ARACRUZ     PNB        ARCZ6       010VISTA          000000000005400000000057000000000540000000000000000000055000000098200
0202LOTE PADRAO                   TELEMIG PARTPN *       TMCP4       010VISTA          000000000003100000000031000000000300000000000000000000030000054769500
0202LOTE PADRAO                   BRASIL TELECPN *       BRTO4       010VISTA          000000000010600000000110000000001050000000000000000000109000172854000
0202LOTE PADRAO                   SABESP      ON *       SBSP3       010VISTA          000000000086000000000869000000008390000000000000000000839000000661300
0202LOTE PADRAO                   BRASKEM     PNA*       BRKM5       010VISTA          000000000359900000003599000000033700000000000000000003370000000245300
0202LOTE PADRAO                   EMBRAER     PN EJ      EMBR4       010VISTA          000000000014100000000141000000001380000000000000000000140000000028200
0202LOTE PADRAO                   TELESP      PN * EJ    TLPP4       010VISTA          000000000032000000000322000000003160000000000000000000321000005419600
0202LOTE PADRAO                   EMBRAER     ON EJ      EMBR3       010VISTA          000000000012500000000128000000001250000000000000000000128000000007200
0202LOTE PADRAO                   AMBEV       PN *       AMBV4       010VISTA          000000000444000000004520000000043790000000000000000004510000001964000
0202LOTE PADRAO                   USIMINAS    PNA        USIM5       010VISTA          000000000005900000000059000000000550000000000000000000055000000038900
0202LOTE PADRAO                   ELETROPAULO PN *       ELPL4       010VISTA          000000000032500000000325000000002900000000000000000000290000001140300
0202LOTE PADRAO                   TELE NORD CLPN *       TNEP4       010VISTA          000000000002600000000026000000000250000000000000000000026000079717600
0202LOTE PADRAO                   CEMIG       PN * EJ    CMIG4       010VISTA          000000000026500000000270000000002480000000000000000000248000051708100
0202LOTE PADRAO                   TELE CL SUL PN * EJ    TCSL4       010VISTA          000000000002600000000026000000000250000000000000000000025000111532000
0202LOTE PADRAO                   TRACTEBEL   ON *       TBLE3       010VISTA          000000000004000000000041000000000400000000000000000000040000002174400
0202LOTE PADRAO                   CEMIG       ON * EJ    CMIG3       010VISTA          000000000023500000000238000000002330000000000000000000233000000860000
0202LOTE PADRAO                   TELE CL SUL ON * EJ    TCSL3       010VISTA          000000000002200000000023000000000220000000000000000000022500003041900
0202LOTE PADRAO                   ITAUSA      PN         ITSA4       010VISTA          000000000001780000000017800000000160000000000000000000016000000288600
0202LOTE PADRAO                   V C P       PN *       VCPA4       010VISTA          000000000103900000001050000000010000000000000000000001042000004220500
0202LOTE PADRAO                   SID TUBARAO PN *       CSTB4       010VISTA          000000000026000000000268000000002560000000000000000000256000004883700
0202LOTE PADRAO                   BRADESPAR   PN *       BRAP4       010VISTA          000000000000490000000004900000000048000000000000000000004800050720700
0202LOTE PADRAO                   NET         PN         PLIM4       010VISTA          000000000000410000000004200000000038000000000000000000003900000464200
0202LOTE PADRAO                   TELE CTR OESPN * EJ    TCOC4       010VISTA          000000000003700000000037000000000350000000000000000000035600053599700
0202LOTE PADRAO                   TELEMAR N L PNA* EJ    TMAR5       010VISTA          000000000042000000000422000000003970000000000000000000397000026479100
0202LOTE PADRAO                   GERDAU      PN * EJ    GGBR4       010VISTA          000000000029300000000293000000002860000000000000000000290000008821100
0202LOTE PADRAO                   BRASIL      ON *       BBAS3       010VISTA          000000000009300000000093000000000890000000000000000000090000002312300
