00BDIN9999BOVESPA 99992002021420020214
0101IBOVESPA                      0129620129080132450000000000000000002002021400000020020214013245000000
0202LOTE PADRAO                   EMBRATEL PARPN *       EBTP4       010VISTA          000000000008000000000085000000000800000000000000000000084000130073000
0202LOTE PADRAO                   EMBRATEL PARON *       EBTP3       010VISTA          000000000010000000000105000000001000000000000000000000105000021491700
0202LOTE PADRAO                   TRAN PAULISTPN * EJ    TRPL4       010VISTA          000000000007100000000072000000000700000000000000000000072500022869800
0202LOTE PADRAO                   TELEMAR     PN * EJ    TNLP4       010VISTA          000000000032200000000331000000003220000000000000000000329000287520000
0202LOTE PADRAO                   ITAUBANCO   PN * EJ    ITAU4       010VISTA          000000000171500000001775000000017100000000000000000001770000012943200
0202LOTE PADRAO                   TELEMAR     ON * EJ    TNLP3       010VISTA          000000000028500000000293000000002850000000000000000000291000014286900
0202LOTE PADRAO                   SID NACIONALON *       CSNA3       010VISTA          000000000038700000000410000000003870000000000000000000407000013972100
0202LOTE PADRAO                   TELE LEST CLPN *       TLCP4       010VISTA          000000000000860000000008700000000083000000000000000000008500137242000
0202LOTE PADRAO                   CRT CELULAR PNA* EJ    CRTP5       010VISTA          000000000454000000004590000000042800000000000000000004590000000213200
0202LOTE PADRAO                   IPIRANGA PETPN *       PTIP4       010VISTA          000000000012500000000129000000001250000000000000000000129000000984800
0202LOTE PADRAO                   BRASIL T PARPN *       BRTP4       010VISTA          000000000017100000000173000000001680000000000000000000173000062035900
0202LOTE PADRAO                   BRASIL T PARON *       BRTP3       010VISTA          000000000017500000000177000000001700000000000000000000177000005829600
0202LOTE PADRAO                   KLABIN S/A  PN         KLBN4       010VISTA          000000000001100000000011000000000110000000000000000000011000000063400
0202LOTE PADRAO                   ACESITA     PN *       ACES4       010VISTA          000000000000670000000006900000000067000000000000000000006900278155000
0202LOTE PADRAO                   PETROBRAS   PN         PETR4       010VISTA          000000000049500000000501000000004920000000000000000000500000000099100
0202LOTE PADRAO                   ELETROBRAS  PNB*       ELET6       010VISTA          000000000034700000000348000000003420000000000000000000345000046821800
0202LOTE PADRAO                   PETROBRAS   ON         PETR3       010VISTA          000000000050300000000512000000005030000000000000000000510000000019500
0202LOTE PADRAO                   COMGAS      PNA*       CGAS5       010VISTA          000000000088200000000902000000008620000000000000000000902000000672000
0202LOTE PADRAO                   SOUZA CRUZ  ON EJ      CRUZ3       010VISTA          000000000014000000000141000000001400000000000000000000140000000024300
0202LOTE PADRAO                   ELETROBRAS  ON *       ELET3       010VISTA          000000000039000000000398000000003870000000000000000000394000014559100
0202LOTE PADRAO                   CELESC      PNB        CLSC6       010VISTA          000000000000500000000005100000000049000000000000000000005000000139000
0202LOTE PADRAO                   BRADESCO    PN * EJ    BBDC4       010VISTA          000000000012300000000125000000001220000000000000000000125000160199000
0202LOTE PADRAO                   CESP        PN *       CESP4       010VISTA          000000000015000000000151000000001480000000000000000000151000007111300
0202LOTE PADRAO                   LIGHT       ON *       LIGH3       010VISTA          000000000118000000001182500000011550000000000000000001182500001498100
0202LOTE PADRAO                   TELESP CL PAPN *       TSPP4       010VISTA          000000000007100000000073000000000700000000000000000000073000233808000
0202LOTE PADRAO                   VALE R DOCE PNA        VALE5       010VISTA          000000000056500000000580000000005600000000000000000000580000000057300
0202LOTE PADRAO                   COPEL       PNB*       CPLE6       010VISTA          000000000016900000000176000000001675000000000000000000176000019670400
0202LOTE PADRAO                   VALE R DOCE ON         VALE3       010VISTA          000000000055400000000581000000005540000000000000000000577000000004700
0202LOTE PADRAO                   ARACRUZ     PNB        ARCZ6       010VISTA          000000000004500000000047500000000440000000000000000000047500000035300
0202LOTE PADRAO                   TELEMIG PARTPN *       TMCP4       010VISTA          000000000003600000000036000000000350000000000000000000036000155655000
0202LOTE PADRAO                   BRASIL TELECPN *       BRTO4       010VISTA          000000000012500000000130000000001250000000000000000000130000067903800
0202LOTE PADRAO                   SABESP      ON *       SBSP3       010VISTA          000000000124900000001249000000012200000000000000000001223000002352400
0202LOTE PADRAO                   BRASKEM     PNA*       BRKM5       010VISTA          000000000488000000005120000000048800000000000000000005120000000347500
0202LOTE PADRAO                   EMBRAER     PN EJ      EMBR4       010VISTA          000000000013600000000144000000001360000000000000000000144000000056900
0202LOTE PADRAO                   TELESP      PN * EJ    TLPP4       010VISTA          000000000030000000000306000000002950000000000000000000306000013720800
0202LOTE PADRAO                   EMBRAER     ON EJ      EMBR3       010VISTA          000000000012900000000131000000001260000000000000000000130000000025800
0202LOTE PADRAO                   AMBEV       PN *       AMBV4       010VISTA          000000000450000000004585000000045000000000000000000004585000002673100
0202LOTE PADRAO                   USIMINAS    PNA        USIM5       010VISTA          000000000007200000000074000000000710000000000000000000074000000033100
0202LOTE PADRAO                   ELETROPAULO PN *       ELPL4       010VISTA          000000000064000000000655000000006350000000000000000000654000008567900
0202LOTE PADRAO                   TELE NORD CLPN *       TNEP4       010VISTA          000000000002800000000029000000000280000000000000000000029000069269300
0202LOTE PADRAO                   CEMIG       PN * EJ    CMIG4       010VISTA          000000000035300000000375000000003530000000000000000000375000084417800
0202LOTE PADRAO                   TELE CL SUL PN * EJ    TCSL4       010VISTA          000000000003250000000032000000000310000000000000000000032000057704700
0202LOTE PADRAO                   CEMIG       ON * EJ    CMIG3       010VISTA          000000000030000000000325000000003000000000000000000000325000001324600
0202LOTE PADRAO                   TELE CL SUL ON * EJ    TCSL3       010VISTA          000000000002700000000028000000000275000000000000000000028000014560800
0202LOTE PADRAO                   ITAUSA      PN         ITSA4       010VISTA          000000000002100000000021000000000210000000000000000000021000000294200
0202LOTE PADRAO                   V C P       PN *       VCPA4       010VISTA          000000000080200000000876000000008020000000000000000000870000006467000
0202LOTE PADRAO                   SID TUBARAO PN *       CSTB4       010VISTA          000000000020000000000214000000001990000000000000000000211000009092900
0202LOTE PADRAO                   BRADESPAR   PN *       BRAP4       010VISTA          000000000000730000000007400000000071000000000000000000007400159192000
0202LOTE PADRAO                   NET         PN         PLIM4       010VISTA          000000000000590000000006400000000059000000000000000000006400001593500
0202LOTE PADRAO                   TELE CTR OESPN * EJ    TCOC4       010VISTA          000000000004500000000048000000000450000000000000000000047000098942200
0202LOTE PADRAO                   TELEMAR N L PNA* EJ    TMAR5       010VISTA          000000000053900000000559000000005330000000000000000000558000022161700
0202LOTE PADRAO                   GERDAU      PN * EJ    GGBR4       010VISTA          000000000024600000000256000000002450000000000000000000255000023359700
0202LOTE PADRAO                   BRASIL      ON *       BBAS3       010VISTA          000000000010100000000102000000000980000000000000000000101000006233700
