00BDIN9999BOVESPA 99992002061320020613
0101IBOVESPA                      0121330119620123130000000000000000002002061300000020020613011962000000
0202LOTE PADRAO                   EMBRATEL PARPN *       EBTP4       010VISTA          000000000003810000000039400000000360000000000000000000037000248561000
0202LOTE PADRAO                   TRAN PAULISTPN * EJ    TRPL4       010VISTA          000000000006300000000064000000000610000000000000000000061000008409700
0202LOTE PADRAO                   EMBRATEL PARON *       EBTP3       010VISTA          000000000005100000000054000000000500000000000000000000051000018619600
0202LOTE PADRAO                   TELEMAR     PN * EJ    TNLP4       010VISTA          000000000031000000000315000000002980000000000000000000300000261212000
0202LOTE PADRAO                   ITAUBANCO   PN * EJ    ITAU4       010VISTA          000000000165100000001690000000016100000000000000000001610000010268900
0202LOTE PADRAO                   TELEMAR     ON * EJ    TNLP3       010VISTA          000000000025600000000265000000002490000000000000000000249000005962800
0202LOTE PADRAO                   SID NACIONALON *       CSNA3       010VISTA          000000000045000000000452000000004370000000000000000000450000023285000
0202LOTE PADRAO                   TELE LEST CLPN *       TLCP4       010VISTA          000000000000670000000006700000000064000000000000000000006400076298100
0202LOTE PADRAO                   CRT CELULAR PNA* EJ    CRTP5       010VISTA          000000000405000000004200000000040000000000000000000004000000000335100
0202LOTE PADRAO                   IPIRANGA PETPN *       PTIP4       010VISTA          000000000013500000000138000000001350000000000000000000137000000492400
0202LOTE PADRAO                   BRASIL T PARPN *       BRTP4       010VISTA          000000000016500000000165000000001590000000000000000000159000062745800
0202LOTE PADRAO                   BRASIL T PARON *       BRTP3       010VISTA          000000000015000000000150000000001430000000000000000000144000003030500
0202LOTE PADRAO                   KLABIN S/A  PN         KLBN4       010VISTA          000000000001000000000010000000000099000000000000000000009900000054000
0202LOTE PADRAO                   ACESITA     PN *       ACES4       010VISTA          000000000000680000000006900000000067000000000000000000006700100050000
0202LOTE PADRAO                   PETROBRAS   PN         PETR4       010VISTA          000000000053000000000532000000005100000000000000000000511000000091400
0202LOTE PADRAO                   ELETROBRAS  PNB*       ELET6       010VISTA          000000000027600000000276000000002610000000000000000000263000109244000
0202LOTE PADRAO                   PETROBRAS   ON         PETR3       010VISTA          000000000057000000000570000000005500000000000000000000552000000047500
0202LOTE PADRAO                   COMGAS      PNA*       CGAS5       010VISTA          000000000071000000000710000000006700000000000000000000670000000400300
0202LOTE PADRAO                   SOUZA CRUZ  ON EJ      CRUZ3       010VISTA          000000000015800000000159000000001560000000000000000000156000000004300
0202LOTE PADRAO                   ELETROBRAS  ON *       ELET3       010VISTA          000000000031100000000315000000003060000000000000000000310000043576000
0202LOTE PADRAO                   CELESC      PNB        CLSC6       010VISTA          000000000000530000000005400000000050000000000000000000005100000140600
0202LOTE PADRAO                   BRADESCO    PN * EJ    BBDC4       010VISTA          000000000012100000000122000000001180000000000000000000119000187955000
0202LOTE PADRAO                   CESP        PN *       CESP4       010VISTA          000000000010000000000102000000000970000000000000000000097000005509500
0202LOTE PADRAO                   LIGHT       ON *       LIGH3       010VISTA          000000000093000000000970000000009000000000000000000000900000000135300
0202LOTE PADRAO                   TELESP CL PAPN *       TSPP4       010VISTA          000000000004800000000048000000000450000000000000000000045000158240000
0202LOTE PADRAO                   VALE R DOCE PNA        VALE5       010VISTA          000000000073000000000735000000007000000000000000000000712000000057200
0202LOTE PADRAO                   COPEL       PNB*       CPLE6       010VISTA          000000000013600000000137000000001310000000000000000000131000026048100
0202LOTE PADRAO                   VALE R DOCE ON         VALE3       010VISTA          000000000078000000000780000000007400000000000000000000759000000013900
0202LOTE PADRAO                   ARACRUZ     PNB        ARCZ6       010VISTA          000000000005900000000059000000000560000000000000000000057000000058900
0202LOTE PADRAO                   TELEMIG PARTPN *       TMCP4       010VISTA          000000000002800000000029000000000275000000000000000000027000117126000
0202LOTE PADRAO                   BRASIL TELECPN *       BRTO4       010VISTA          000000000011800000000119000000001150000000000000000000115000043922300
0202LOTE PADRAO                   SABESP      ON *       SBSP3       010VISTA          000000000109000000001090000000010210000000000000000001040000006604300
0202LOTE PADRAO                   BRASKEM     PNA*       BRKM5       010VISTA          000000000411900000004290000000041150000000000000000004115000000073000
0202LOTE PADRAO                   EMBRAER     PN EJ      EMBR4       010VISTA          000000000015100000000152000000001490000000000000000000150000000038500
0202LOTE PADRAO                   TELESP      PN * EJ    TLPP4       010VISTA          000000000035000000000360000000003450000000000000000000346000024007200
0202LOTE PADRAO                   EMBRAER     ON EJ      EMBR3       010VISTA          000000000013300000000133000000001300000000000000000000132000000012100
0202LOTE PADRAO                   AMBEV       PN *       AMBV4       010VISTA          000000000462000000004638000000045530000000000000000004555000001295100
0202LOTE PADRAO                   USIMINAS    PNA        USIM5       010VISTA          000000000007600000000076000000000740000000000000000000075000000084500
0202LOTE PADRAO                   ELETROPAULO PN *       ELPL4       010VISTA          000000000046500000000471000000004300000000000000000000451000007569700
0202LOTE PADRAO                   TELE NORD CLPN *       TNEP4       010VISTA          000000000002560000000025000000000240000000000000000000024000100224000
0202LOTE PADRAO                   CEMIG       PN * EJ    CMIG4       010VISTA          000000000032000000000328000000003200000000000000000000322000045308500
0202LOTE PADRAO                   TELE CL SUL PN * EJ    TCSL4       010VISTA          000000000003000000000030000000000280000000000000000000028000089246000
0202LOTE PADRAO                   TRACTEBEL   ON *       TBLE3       010VISTA          000000000004000000000041000000000400000000000000000000040000003910000
0202LOTE PADRAO                   CEMIG       ON * EJ    CMIG3       010VISTA          000000000031600000000318000000003030000000000000000000312000000230600
0202LOTE PADRAO                   TELE CL SUL ON * EJ    TCSL3       010VISTA          000000000002520000000025200000000230000000000000000000023000022187000
0202LOTE PADRAO                   ITAUSA      PN         ITSA4       010VISTA          000000000002000000000020000000000194000000000000000000019600000117600
0202LOTE PADRAO                   V C P       PN *       VCPA4       010VISTA          000000000109000000001090000000010300000000000000000001050000007233500
0202LOTE PADRAO                   SID TUBARAO PN *       CSTB4       010VISTA          000000000028100000000285000000002810000000000000000000281000009980000
0202LOTE PADRAO                   BRADESPAR   PN *       BRAP4       010VISTA          000000000000640000000006500000000062000000000000000000006300069634800
0202LOTE PADRAO                   NET         PN         PLIM4       010VISTA          000000000000380000000003900000000035000000000000000000003600001165500
0202LOTE PADRAO                   TELE CTR OESPN * EJ    TCOC4       010VISTA          000000000004100000000041000000000396000000000000000000040000140394000
0202LOTE PADRAO                   TELEMAR N L PNA* EJ    TMAR5       010VISTA          000000000051000000000529000000005100000000000000000000513000007723700
0202LOTE PADRAO                   GERDAU      PN * EJ    GGBR4       010VISTA          000000000031500000000315000000003080000000000000000000309000013310700
0202LOTE PADRAO                   BRASIL      ON *       BBAS3       010VISTA          000000000011500000000118000000001100000000000000000000110000006635000
