00BDIN9999BOVESPA 99992002090320020903
0101IBOVESPA                      0103650100650103720000000000000000002002090300000020020903010136000000
0202LOTE PADRAO                   EMBRATEL PARPN *       EBTP4       010VISTA          000000000002700000000027000000000256000000000000000000025600680254000
0202LOTE PADRAO                   TRAN PAULISTPN * EJ    TRPL4       010VISTA          000000000005400000000054000000000530000000000000000000053000014022200
0202LOTE PADRAO                   EMBRATEL PARON *       EBTP3       010VISTA          000000000003700000000037000000000320000000000000000000033000117437000
0202LOTE PADRAO                   TELEMAR     PN * EJ    TNLP4       010VISTA          000000000026200000000262000000002530000000000000000000255000173154000
0202LOTE PADRAO                   ITAUBANCO   PN * EJ    ITAU4       010VISTA          000000000146000000001460000000014000000000000000000001445000020821000
0202LOTE PADRAO                   TELEMAR     ON * EJ    TNLP3       010VISTA          000000000019300000000198000000001890000000000000000000197000024176800
0202LOTE PADRAO                   SID NACIONALON *       CSNA3       010VISTA          000000000040600000000406000000003850000000000000000000390000009459900
0202LOTE PADRAO                   TELE LEST CLPN *       TLCP4       010VISTA          000000000000470000000004700000000044000000000000000000004400158478000
0202LOTE PADRAO                   CRT CELULAR PNA* EJ    CRTP5       010VISTA          000000000370000000003700000000035200000000000000000003650000000338600
0202LOTE PADRAO                   IPIRANGA PETPN *       PTIP4       010VISTA          000000000011700000000117000000001110000000000000000000115000001060000
0202LOTE PADRAO                   BRASIL T PARPN *       BRTP4       010VISTA          000000000017600000000176000000001725000000000000000000173000082011400
0202LOTE PADRAO                   BRASIL T PARON *       BRTP3       010VISTA          000000000012800000000135000000001280000000000000000000131000007551700
0202LOTE PADRAO                   KLABIN S/A  PN         KLBN4       010VISTA          000000000000920000000009200000000087000000000000000000008800000047600
0202LOTE PADRAO                   ACESITA     PN *       ACES4       010VISTA          000000000000670000000006800000000065000000000000000000006700131847000
0202LOTE PADRAO                   PETROBRAS   PN         PETR4       010VISTA          000000000043800000000452000000004320000000000000000000447000000156500
0202LOTE PADRAO                   ELETROBRAS  PNB*       ELET6       010VISTA          000000000021500000000215000000002030000000000000000000204000064179000
0202LOTE PADRAO                   PETROBRAS   ON         PETR3       010VISTA          000000000047200000000498000000004720000000000000000000492000000076400
0202LOTE PADRAO                   COMGAS      PNA*       CGAS5       010VISTA          000000000062000000000630000000005950000000000000000000620000000748500
0202LOTE PADRAO                   SOUZA CRUZ  ON EJ      CRUZ3       010VISTA          000000000014800000000151000000001460000000000000000000150000000011700
0202LOTE PADRAO                   ELETROBRAS  ON *       ELET3       010VISTA          000000000021300000000216000000002060000000000000000000208000014736700
0202LOTE PADRAO                   CELESC      PNB        CLSC6       010VISTA          000000000000570000000005800000000055000000000000000000005500000330000
0202LOTE PADRAO                   BRADESCO    PN * EJ    BBDC4       010VISTA          000000000010250000000106000000001000000000000000000000102500462736000
0202LOTE PADRAO                   CESP        PN *       CESP4       010VISTA          000000000007900000000080000000000750000000000000000000075000010620300
0202LOTE PADRAO                   LIGHT       ON *       LIGH3       010VISTA          000000000075400000000754000000007150000000000000000000745000000261300
0202LOTE PADRAO                   TELESP CL PAPN *       TSPP4       010VISTA          000000000003900000000039000000000380000000000000000000038000514078000
0202LOTE PADRAO                   VALE R DOCE PNA        VALE5       010VISTA          000000000068400000000695000000006840000000000000000000695000000020000
0202LOTE PADRAO                   COPEL       PNB*       CPLE6       010VISTA          000000000010500000000105000000001010000000000000000000101000048838400
0202LOTE PADRAO                   VALE R DOCE ON         VALE3       010VISTA          000000000075000000000764000000007500000000000000000000760000000006700
0202LOTE PADRAO                   ARACRUZ     PNB        ARCZ6       010VISTA          000000000005200000000054000000000520000000000000000000054000000060200
0202LOTE PADRAO                   TELEMIG PARTPN *       TMCP4       010VISTA          000000000002800000000028000000000270000000000000000000028100056246800
0202LOTE PADRAO                   BRASIL TELECPN *       BRTO4       010VISTA          000000000011800000000118000000001150000000000000000000116000086197400
0202LOTE PADRAO                   SABESP      ON *       SBSP3       010VISTA          000000000085100000000852000000008100000000000000000000852000003200300
0202LOTE PADRAO                   BRASKEM     PNA*       BRKM5       010VISTA          000000000313500000003135000000028210000000000000000002823000000096300
0202LOTE PADRAO                   EMBRAER     PN EJ      EMBR4       010VISTA          000000000013000000000132500000001280000000000000000000132500000058200
0202LOTE PADRAO                   TELESP      PN * EJ    TLPP4       010VISTA          000000000033500000000337000000003300000000000000000000332000010674400
0202LOTE PADRAO                   EMBRAER     ON EJ      EMBR3       010VISTA          000000000012000000000120000000001150000000000000000000120000000041000
0202LOTE PADRAO                   AMBEV       PN *       AMBV4       010VISTA          000000000426000000004314000000042100000000000000000004274000001720900
0202LOTE PADRAO                   USIMINAS    PNA        USIM5       010VISTA          000000000005750000000058000000000550000000000000000000057900000067000
0202LOTE PADRAO                   ELETROPAULO PN *       ELPL4       010VISTA          000000000037500000000375000000003400000000000000000000345000003020600
0202LOTE PADRAO                   TELE NORD CLPN *       TNEP4       010VISTA          000000000002500000000025400000000240000000000000000000024800113310000
0202LOTE PADRAO                   CEMIG       PN * EJ    CMIG4       010VISTA          000000000027800000000278000000002610000000000000000000264000034002400
0202LOTE PADRAO                   TELE CL SUL PN * EJ    TCSL4       010VISTA          000000000002500000000025000000000250000000000000000000025600077593100
0202LOTE PADRAO                   TRACTEBEL   ON *       TBLE3       010VISTA          000000000003800000000040000000000380000000000000000000039600025283800
0202LOTE PADRAO                   CEMIG       ON * EJ    CMIG3       010VISTA          000000000024800000000250000000002350000000000000000000237000001752000
0202LOTE PADRAO                   TELE CL SUL ON * EJ    TCSL3       010VISTA          000000000002000000000021000000000200000000000000000000021000031546400
0202LOTE PADRAO                   ITAUSA      PN         ITSA4       010VISTA          000000000001740000000017700000000170000000000000000000017700000241500
0202LOTE PADRAO                   V C P       PN *       VCPA4       010VISTA          000000000098700000001009000000009870000000000000000001000000002761000
0202LOTE PADRAO                   SID TUBARAO PN *       CSTB4       010VISTA          000000000025500000000255000000002450000000000000000000247000003447800
0202LOTE PADRAO                   BRADESPAR   PN *       BRAP4       010VISTA          000000000000500000000005000000000048000000000000000000004800204922000
0202LOTE PADRAO                   NET         PN         PLIM4       010VISTA          000000000000540000000005400000000049000000000000000000005000001295400
0202LOTE PADRAO                   TELE CTR OESPN * EJ    TCOC4       010VISTA          000000000003100000000032000000000310000000000000000000032000094532100
0202LOTE PADRAO                   TELEMAR N L PNA* EJ    TMAR5       010VISTA          000000000044500000000469000000004450000000000000000000454000009597700
0202LOTE PADRAO                   GERDAU      PN * EJ    GGBR4       010VISTA          000000000032300000000325000000003160000000000000000000320000012111300
0202LOTE PADRAO                   BRASIL      ON *       BBAS3       010VISTA          000000000010600000000107000000001000000000000000000000105000005077300
