00BDIN9999BOVESPA 99992002052920020529
0101IBOVESPA                      0127280127200130030000000000000000002002052900000020020529012985000000
0202LOTE PADRAO                   EMBRATEL PARPN *       EBTP4       010VISTA          000000000004500000000045000000000440000000000000000000045000305483000
0202LOTE PADRAO                   TRAN PAULISTPN * EJ    TRPL4       010VISTA          000000000006500000000068000000000650000000000000000000068000055960800
0202LOTE PADRAO                   EMBRATEL PARON *       EBTP3       010VISTA          000000000006300000000063000000000600000000000000000000062000024158100
0202LOTE PADRAO                   TELEMAR     PN * EJ    TNLP4       010VISTA          000000000031100000000321000000003110000000000000000000318000438587000
0202LOTE PADRAO                   ITAUBANCO   PN * EJ    ITAU4       010VISTA          000000000174000000001785000000017400000000000000000001776000004675000
0202LOTE PADRAO                   TELEMAR     ON * EJ    TNLP3       010VISTA          000000000026500000000269000000002610000000000000000000269000027437700
0202LOTE PADRAO                   SID NACIONALON *       CSNA3       010VISTA          000000000048200000000487000000004770000000000000000000479000017409300
0202LOTE PADRAO                   TELE LEST CLPN *       TLCP4       010VISTA          000000000000690000000007100000000068000000000000000000007100431454000
0202LOTE PADRAO                   CRT CELULAR PNA* EJ    CRTP5       010VISTA          000000000392000000004100000000039000000000000000000004100000000537600
0202LOTE PADRAO                   IPIRANGA PETPN *       PTIP4       010VISTA          000000000014000000000146000000001400000000000000000000145000005305100
0202LOTE PADRAO                   BRASIL T PARPN *       BRTP4       010VISTA          000000000017300000000176000000001730000000000000000000176000063440900
0202LOTE PADRAO                   BRASIL T PARON *       BRTP3       010VISTA          000000000016300000000163000000001575000000000000000000163000003787000
0202LOTE PADRAO                   KLABIN S/A  PN         KLBN4       010VISTA          000000000001100000000011000000000100000000000000000000010000000011900
0202LOTE PADRAO                   ACESITA     PN *       ACES4       010VISTA          000000000000640000000006700000000064000000000000000000006700170672000
0202LOTE PADRAO                   PETROBRAS   PN         PETR4       010VISTA          000000000055200000000556000000005510000000000000000000553000000049200
0202LOTE PADRAO                   ELETROBRAS  PNB*       ELET6       010VISTA          000000000030100000000303000000002980000000000000000000298000061498200
0202LOTE PADRAO                   PETROBRAS   ON         PETR3       010VISTA          000000000059600000000598000000005920000000000000000000592000000022100
0202LOTE PADRAO                   COMGAS      PNA*       CGAS5       010VISTA          000000000074900000000750000000007150000000000000000000750000000564400
0202LOTE PADRAO                   SOUZA CRUZ  ON EJ      CRUZ3       010VISTA          000000000015500000000155000000001520000000000000000000153000000010800
0202LOTE PADRAO                   ELETROBRAS  ON *       ELET3       010VISTA          000000000033300000000340000000003300000000000000000000332000013205000
0202LOTE PADRAO                   CELESC      PNB        CLSC6       010VISTA          000000000000540000000005700000000054000000000000000000005500000401400
0202LOTE PADRAO                   BRADESCO    PN * EJ    BBDC4       010VISTA          000000000013000000000133000000001300000000000000000000133000187154000
0202LOTE PADRAO                   CESP        PN *       CESP4       010VISTA          000000000010900000000110000000001060000000000000000000107000004087100
0202LOTE PADRAO                   LIGHT       ON *       LIGH3       010VISTA          000000000096300000000990000000009550000000000000000000980000000307000
0202LOTE PADRAO                   TELESP CL PAPN *       TSPP4       010VISTA          000000000005300000000055000000000530000000000000000000055000263654000
0202LOTE PADRAO                   VALE R DOCE PNA        VALE5       010VISTA          000000000071900000000752000000007190000000000000000000742000000030500
0202LOTE PADRAO                   COPEL       PNB*       CPLE6       010VISTA          000000000015500000000156000000001500000000000000000000151000035598400
0202LOTE PADRAO                   VALE R DOCE ON         VALE3       010VISTA          000000000072500000000760000000007250000000000000000000749000000044300
0202LOTE PADRAO                   ARACRUZ     PNB        ARCZ6       010VISTA          000000000005700000000057000000000560000000000000000000057100000023700
0202LOTE PADRAO                   TELEMIG PARTPN *       TMCP4       010VISTA          000000000002980000000031000000000290000000000000000000031000175775000
0202LOTE PADRAO                   BRASIL TELECPN *       BRTO4       010VISTA          000000000012300000000127000000001230000000000000000000126000091358900
0202LOTE PADRAO                   SABESP      ON *       SBSP3       010VISTA          000000000113000000001135000000011210000000000000000001127000003032900
0202LOTE PADRAO                   BRASKEM     PNA*       BRKM5       010VISTA          000000000434000000004400000000042990000000000000000004315000000232700
0202LOTE PADRAO                   EMBRAER     PN EJ      EMBR4       010VISTA          000000000014500000000146000000001440000000000000000000145000000077600
0202LOTE PADRAO                   TELESP      PN * EJ    TLPP4       010VISTA          000000000033100000000345000000003310000000000000000000345000009646700
0202LOTE PADRAO                   EMBRAER     ON EJ      EMBR3       010VISTA          000000000012900000000131000000001290000000000000000000131000000007800
0202LOTE PADRAO                   AMBEV       PN *       AMBV4       010VISTA          000000000482000000004869000000047500000000000000000004790000001937700
0202LOTE PADRAO                   USIMINAS    PNA        USIM5       010VISTA          000000000007500000000080000000000750000000000000000000080000000045900
0202LOTE PADRAO                   ELETROPAULO PN *       ELPL4       010VISTA          000000000051700000000525000000005120000000000000000000525000001167200
0202LOTE PADRAO                   TELE NORD CLPN *       TNEP4       010VISTA          000000000002500000000026000000000256000000000000000000026000144481000
0202LOTE PADRAO                   CEMIG       PN * EJ    CMIG4       010VISTA          000000000034200000000352000000003420000000000000000000345000051948200
0202LOTE PADRAO                   TELE CL SUL PN * EJ    TCSL4       010VISTA          000000000003000000000030000000000300000000000000000000030000059734200
0202LOTE PADRAO                   TRACTEBEL   ON *       TBLE3       010VISTA          000000000004000000000041000000000400000000000000000000040000010380100
0202LOTE PADRAO                   CEMIG       ON * EJ    CMIG3       010VISTA          000000000031600000000316000000003100000000000000000000316000000271700
0202LOTE PADRAO                   TELE CL SUL ON * EJ    TCSL3       010VISTA          000000000002700000000027100000000260000000000000000000027100011031100
0202LOTE PADRAO                   ITAUSA      PN         ITSA4       010VISTA          000000000002000000000021000000000200000000000000000000021000000474900
0202LOTE PADRAO                   V C P       PN *       VCPA4       010VISTA          000000000104000000001040000000010200000000000000000001022000002921800
0202LOTE PADRAO                   SID TUBARAO PN *       CSTB4       010VISTA          000000000029300000000295000000002910000000000000000000293000008827200
0202LOTE PADRAO                   BRADESPAR   PN *       BRAP4       010VISTA          000000000000590000000006300000000059000000000000000000006300388724000
0202LOTE PADRAO                   NET         PN         PLIM4       010VISTA          000000000000370000000004000000000037000000000000000000003900002609600
0202LOTE PADRAO                   TELE CTR OESPN * EJ    TCOC4       010VISTA          000000000004400000000045000000000440000000000000000000044000181386000
0202LOTE PADRAO                   TELEMAR N L PNA* EJ    TMAR5       010VISTA          000000000053000000000540000000005300000000000000000000540000026218800
0202LOTE PADRAO                   GERDAU      PN * EJ    GGBR4       010VISTA          000000000031600000000322000000003160000000000000000000320000016105100
0202LOTE PADRAO                   BRASIL      ON *       BBAS3       010VISTA          000000000012900000000130000000001280000000000000000000130000005269200
