00BDIN9999BOVESPA 99992002120320021203
0101IBOVESPA                      0106720105760106740000000000000000002002120300000020021203010663000000
0202LOTE PADRAO                   EMBRATEL PARPN *       EBTP4       010VISTA          000000000003000000000033000000000300000000000000000000033000794300000
0202LOTE PADRAO                   TRAN PAULISTPN * EJ    TRPL4       010VISTA          000000000005200000000052000000000500000000000000000000052500011612800
0202LOTE PADRAO                   EMBRATEL PARON *       EBTP3       010VISTA          000000000003700000000040000000000369000000000000000000039000069895500
0202LOTE PADRAO                   TELEMAR     PN * EJ    TNLP4       010VISTA          000000000027100000000274000000002710000000000000000000273000221184000
0202LOTE PADRAO                   ITAUBANCO   PN * EJ    ITAU4       010VISTA          000000000155900000001585000000015400000000000000000001540000004582400
0202LOTE PADRAO                   TELEMAR     ON * EJ    TNLP3       010VISTA          000000000019800000000201000000001960000000000000000000200000009461800
0202LOTE PADRAO                   SID NACIONALON *       CSNA3       010VISTA          000000000048000000000488000000004700000000000000000000488000010743300
0202LOTE PADRAO                   TELE LEST CLPN *       TLCP4       010VISTA          000000000000430000000004400000000042000000000000000000004200066423600
0202LOTE PADRAO                   CRT CELULAR PNA* EJ    CRTP5       010VISTA          000000000313900000003140000000030650000000000000000003070000000556000
0202LOTE PADRAO                   IPIRANGA PETPN *       PTIP4       010VISTA          000000000007250000000073000000000720000000000000000000072000002610000
0202LOTE PADRAO                   BRASIL T PARPN *       BRTP4       010VISTA          000000000018500000000187000000001850000000000000000000185000059367600
0202LOTE PADRAO                   BRASIL T PARON *       BRTP3       010VISTA          000000000014000000000142500000001400000000000000000000141000002563300
0202LOTE PADRAO                   KLABIN S/A  PN         KLBN4       010VISTA          000000000000990000000010000000000097000000000000000000010000000008000
0202LOTE PADRAO                   ACESITA     PN *       ACES4       010VISTA          000000000000820000000008300000000082000000000000000000008300154578000
0202LOTE PADRAO                   PETROBRAS   PN         PETR4       010VISTA          000000000044200000000451000000004410000000000000000000450000000060600
0202LOTE PADRAO                   ELETROBRAS  PNB*       ELET6       010VISTA          000000000019500000000198000000001950000000000000000000196000037289700
0202LOTE PADRAO                   PETROBRAS   ON         PETR3       010VISTA          000000000046700000000491000000004650000000000000000000490000000016000
0202LOTE PADRAO                   COMGAS      PNA*       CGAS5       010VISTA          000000000054000000000540000000005220000000000000000000522000000556900
0202LOTE PADRAO                   SOUZA CRUZ  ON EJ      CRUZ3       010VISTA          000000000018100000000183000000001800000000000000000000183000000003500
0202LOTE PADRAO                   ELETROBRAS  ON *       ELET3       010VISTA          000000000020300000000203000000002010000000000000000000203000008468900
0202LOTE PADRAO                   CELESC      PNB        CLSC6       010VISTA          000000000000480000000004900000000047000000000000000000004800000176400
0202LOTE PADRAO                   BRADESCO    PN * EJ    BBDC4       010VISTA          000000000009500000000098000000000950000000000000000000097500213573000
0202LOTE PADRAO                   CESP        PN *       CESP4       010VISTA          000000000006600000000069000000000660000000000000000000067100007556200
0202LOTE PADRAO                   LIGHT       ON *       LIGH3       010VISTA          000000000050000000000500000000004910000000000000000000491000000114600
0202LOTE PADRAO                   TELESP CL PAPN *       TSPP4       010VISTA          000000000003960000000039800000000380000000000000000000039000312065000
0202LOTE PADRAO                   VALE R DOCE PNA        VALE5       010VISTA          000000000094000000000962000000009400000000000000000000955000000011000
0202LOTE PADRAO                   COPEL       PNB*       CPLE6       010VISTA          000000000007500000000076000000000720000000000000000000073000045836500
0202LOTE PADRAO                   VALE R DOCE ON         VALE3       010VISTA          000000000102000000001029000000010140000000000000000001020000000008400
0202LOTE PADRAO                   ARACRUZ     PNB        ARCZ6       010VISTA          000000000005900000000061000000000590000000000000000000061000000048400
0202LOTE PADRAO                   TELEMIG PARTPN *       TMCP4       010VISTA          000000000003000000000030000000000290000000000000000000030000108623000
0202LOTE PADRAO                   BRASIL TELECPN *       BRTO4       010VISTA          000000000011800000000119000000001175000000000000000000119000238922000
0202LOTE PADRAO                   SABESP      ON *       SBSP3       010VISTA          000000000083500000000835000000007970000000000000000000799000004646100
0202LOTE PADRAO                   BRASKEM     PNA*       BRKM5       010VISTA          000000000209000000002130000000020750000000000000000002110000000232100
0202LOTE PADRAO                   EMBRAER     PN EJ      EMBR4       010VISTA          000000000013800000000138000000001340000000000000000000135000000039300
0202LOTE PADRAO                   TELESP      PN * EJ    TLPP4       010VISTA          000000000035900000000365000000003550000000000000000000356000005419200
0202LOTE PADRAO                   EMBRAER     ON EJ      EMBR3       010VISTA          000000000012700000000127000000001225000000000000000000125000000004500
0202LOTE PADRAO                   AMBEV       PN *       AMBV4       010VISTA          000000000545000000005450000000052600000000000000000005279000002074000
0202LOTE PADRAO                   USIMINAS    PNA        USIM5       010VISTA          000000000006000000000062000000000600000000000000000000061000000063700
0202LOTE PADRAO                   ELETROPAULO PN *       ELPL4       010VISTA          000000000024300000000256000000002430000000000000000000250000016475300
0202LOTE PADRAO                   TELE NORD CLPN *       TNEP4       010VISTA          000000000002700000000028000000000270000000000000000000028000054110900
0202LOTE PADRAO                   CEMIG       PN * EJ    CMIG4       010VISTA          000000000023900000000239000000002310000000000000000000235000030958000
0202LOTE PADRAO                   TELE CL SUL PN * EJ    TCSL4       010VISTA          000000000002770000000027700000000270000000000000000000027700061830800
0202LOTE PADRAO                   TRACTEBEL   ON *       TBLE3       010VISTA          000000000003270000000032000000000320000000000000000000032000029507500
0202LOTE PADRAO                   CEMIG       ON * EJ    CMIG3       010VISTA          000000000021100000000214000000002110000000000000000000211000000276200
0202LOTE PADRAO                   TELE CL SUL ON * EJ    TCSL3       010VISTA          000000000002000000000020000000000200000000000000000000020000017958000
0202LOTE PADRAO                   ITAUSA      PN         ITSA4       010VISTA          000000000001810000000018000000000180000000000000000000018100000134900
0202LOTE PADRAO                   V C P       PN *       VCPA4       010VISTA          000000000115000000001185000000011500000000000000000001175000001353500
0202LOTE PADRAO                   SID TUBARAO PN *       CSTB4       010VISTA          000000000036500000000365000000003560000000000000000000357000010815800
0202LOTE PADRAO                   BRADESPAR   PN *       BRAP4       010VISTA          000000000000500000000005000000000048000000000000000000004800161804000
0202LOTE PADRAO                   NET         PN         PLIM4       010VISTA          000000000000360000000003600000000034000000000000000000003500001770900
0202LOTE PADRAO                   TELE CTR OESPN * EJ    TCOC4       010VISTA          000000000004700000000047000000000450000000000000000000046000159187000
0202LOTE PADRAO                   TELEMAR N L PNA* EJ    TMAR5       010VISTA          000000000043800000000442000000004350000000000000000000439000027613800
0202LOTE PADRAO                   GERDAU      PN * EJ    GGBR4       010VISTA          000000000032600000000326000000003230000000000000000000325000010280700
0202LOTE PADRAO                   BRASIL      ON *       BBAS3       010VISTA          000000000009900000000099000000000980000000000000000000099000028144100
