00BDIN9999BOVESPA 99992002053120020531
0101IBOVESPA                      0129920128610130130000000000000000002002053100000020020531012861000000
0202LOTE PADRAO                   EMBRATEL PARPN *       EBTP4       010VISTA          000000000004500000000047000000000440000000000000000000045000114238000
0202LOTE PADRAO                   TRAN PAULISTPN * EJ    TRPL4       010VISTA          000000000006800000000068000000000660000000000000000000066000006327800
0202LOTE PADRAO                   EMBRATEL PARON *       EBTP3       010VISTA          000000000006200000000063000000000620000000000000000000062000010649100
0202LOTE PADRAO                   TELEMAR     PN * EJ    TNLP4       010VISTA          000000000031800000000321000000003160000000000000000000318000103515000
0202LOTE PADRAO                   ITAUBANCO   PN * EJ    ITAU4       010VISTA          000000000177500000001775000000017350000000000000000001735000004956900
0202LOTE PADRAO                   TELEMAR     ON * EJ    TNLP3       010VISTA          000000000026900000000269000000002610000000000000000000261000011226200
0202LOTE PADRAO                   SID NACIONALON *       CSNA3       010VISTA          000000000048600000000487000000004770000000000000000000482000010111500
0202LOTE PADRAO                   TELE LEST CLPN *       TLCP4       010VISTA          000000000000690000000007100000000069000000000000000000007000118113000
0202LOTE PADRAO                   CRT CELULAR PNA* EJ    CRTP5       010VISTA          000000000410000000004200000000039200000000000000000004169000000164700
0202LOTE PADRAO                   IPIRANGA PETPN *       PTIP4       010VISTA          000000000014000000000140000000001400000000000000000000140000003985800
0202LOTE PADRAO                   BRASIL T PARPN *       BRTP4       010VISTA          000000000017300000000176000000001730000000000000000000174000027913200
0202LOTE PADRAO                   BRASIL T PARON *       BRTP3       010VISTA          000000000015000000000163000000001500000000000000000000160000005860200
0202LOTE PADRAO                   KLABIN S/A  PN         KLBN4       010VISTA          000000000001000000000010000000000100000000000000000000010000000003900
0202LOTE PADRAO                   ACESITA     PN *       ACES4       010VISTA          000000000000660000000006700000000065000000000000000000006700050966900
0202LOTE PADRAO                   PETROBRAS   PN         PETR4       010VISTA          000000000055200000000553000000005450000000000000000000545000000059700
0202LOTE PADRAO                   ELETROBRAS  PNB*       ELET6       010VISTA          000000000030100000000301000000002950000000000000000000295000038147100
0202LOTE PADRAO                   PETROBRAS   ON         PETR3       010VISTA          000000000059200000000597000000005830000000000000000000583000000037300
0202LOTE PADRAO                   COMGAS      PNA*       CGAS5       010VISTA          000000000074000000000740000000007100000000000000000000710000000635500
0202LOTE PADRAO                   SOUZA CRUZ  ON EJ      CRUZ3       010VISTA          000000000015250000000152500000001450000000000000000000145000000041800
0202LOTE PADRAO                   ELETROBRAS  ON *       ELET3       010VISTA          000000000033200000000335000000003220000000000000000000322000014126700
0202LOTE PADRAO                   CELESC      PNB        CLSC6       010VISTA          000000000000560000000005600000000055000000000000000000005600000063800
0202LOTE PADRAO                   BRADESCO    PN * EJ    BBDC4       010VISTA          000000000013300000000134000000001310000000000000000000131000176395000
0202LOTE PADRAO                   CESP        PN *       CESP4       010VISTA          000000000010600000000110000000001050000000000000000000106000000780700
0202LOTE PADRAO                   LIGHT       ON *       LIGH3       010VISTA          000000000095000000000979000000009500000000000000000000979000000006000
0202LOTE PADRAO                   TELESP CL PAPN *       TSPP4       010VISTA          000000000005500000000055000000000540000000000000000000054000053158200
0202LOTE PADRAO                   VALE R DOCE PNA        VALE5       010VISTA          000000000074000000000745000000007280000000000000000000745000000033800
0202LOTE PADRAO                   COPEL       PNB*       CPLE6       010VISTA          000000000015100000000151000000001440000000000000000000145000016602300
0202LOTE PADRAO                   VALE R DOCE ON         VALE3       010VISTA          000000000074200000000759000000007400000000000000000000759000000066600
0202LOTE PADRAO                   ARACRUZ     PNB        ARCZ6       010VISTA          000000000005900000000059000000000520000000000000000000052000000082300
0202LOTE PADRAO                   TELEMIG PARTPN *       TMCP4       010VISTA          000000000003100000000031000000000300000000000000000000030000083937300
0202LOTE PADRAO                   BRASIL TELECPN *       BRTO4       010VISTA          000000000012600000000128000000001230000000000000000000128000038866500
0202LOTE PADRAO                   SABESP      ON *       SBSP3       010VISTA          000000000113200000001132000000011270000000000000000001130000001154100
0202LOTE PADRAO                   BRASKEM     PNA*       BRKM5       010VISTA          000000000431000000004439000000043100000000000000000004320000000117700
0202LOTE PADRAO                   EMBRAER     PN EJ      EMBR4       010VISTA          000000000014500000000149000000001450000000000000000000147500000091000
0202LOTE PADRAO                   TELESP      PN * EJ    TLPP4       010VISTA          000000000034500000000350000000003370000000000000000000350000005178500
0202LOTE PADRAO                   EMBRAER     ON EJ      EMBR3       010VISTA          000000000013100000000133000000001300000000000000000000132000000004300
0202LOTE PADRAO                   AMBEV       PN *       AMBV4       010VISTA          000000000480000000004800000000046020000000000000000004690000003327700
0202LOTE PADRAO                   USIMINAS    PNA        USIM5       010VISTA          000000000008000000000080000000000750000000000000000000076000000031200
0202LOTE PADRAO                   ELETROPAULO PN *       ELPL4       010VISTA          000000000052000000000520000000005000000000000000000000503000000494600
0202LOTE PADRAO                   TELE NORD CLPN *       TNEP4       010VISTA          000000000002600000000026000000000250000000000000000000025000037644000
0202LOTE PADRAO                   CEMIG       PN * EJ    CMIG4       010VISTA          000000000034500000000345000000003360000000000000000000338000026453100
0202LOTE PADRAO                   TELE CL SUL PN * EJ    TCSL4       010VISTA          000000000003000000000030000000000300000000000000000000030000033815200
0202LOTE PADRAO                   TRACTEBEL   ON *       TBLE3       010VISTA          000000000004000000000041000000000396000000000000000000039600028279000
0202LOTE PADRAO                   CEMIG       ON * EJ    CMIG3       010VISTA          000000000030300000000317000000003030000000000000000000317000000368700
0202LOTE PADRAO                   TELE CL SUL ON * EJ    TCSL3       010VISTA          000000000002600000000027000000000260000000000000000000026000001987200
0202LOTE PADRAO                   ITAUSA      PN         ITSA4       010VISTA          000000000002100000000021000000000200000000000000000000020000000278800
0202LOTE PADRAO                   V C P       PN *       VCPA4       010VISTA          000000000102500000001043000000010100000000000000000001010000002454700
0202LOTE PADRAO                   SID TUBARAO PN *       CSTB4       010VISTA          000000000029300000000293000000002910000000000000000000291000003191500
0202LOTE PADRAO                   BRADESPAR   PN *       BRAP4       010VISTA          000000000000640000000006400000000062000000000000000000006400050671000
0202LOTE PADRAO                   NET         PN         PLIM4       010VISTA          000000000000390000000004000000000038000000000000000000003900000678000
0202LOTE PADRAO                   TELE CTR OESPN * EJ    TCOC4       010VISTA          000000000004400000000044000000000430000000000000000000043000094583100
0202LOTE PADRAO                   TELEMAR N L PNA* EJ    TMAR5       010VISTA          000000000054000000000545000000005380000000000000000000539000003736800
0202LOTE PADRAO                   GERDAU      PN * EJ    GGBR4       010VISTA          000000000031800000000320000000003080000000000000000000310000006132600
0202LOTE PADRAO                   BRASIL      ON *       BBAS3       010VISTA          000000000012800000000132000000001270000000000000000000130000002014100
