00BDIN9999BOVESPA 99992002051320020513
0101IBOVESPA                      0121470119430122120000000000000000002002051300000020020513012002000000
0202LOTE PADRAO                   EMBRATEL PARPN *       EBTP4       010VISTA          000000000004700000000047000000000450000000000000000000045000151460000
0202LOTE PADRAO                   TRAN PAULISTPN * EJ    TRPL4       010VISTA          000000000006000000000060000000000579000000000000000000058000002661500
0202LOTE PADRAO                   EMBRATEL PARON *       EBTP3       010VISTA          000000000006600000000066000000000620000000000000000000064000021469200
0202LOTE PADRAO                   TELEMAR     PN * EJ    TNLP4       010VISTA          000000000028100000000283000000002780000000000000000000281000142813000
0202LOTE PADRAO                   ITAUBANCO   PN * EJ    ITAU4       010VISTA          000000000175000000001755000000016950000000000000000001696000005733600
0202LOTE PADRAO                   TELEMAR     ON * EJ    TNLP3       010VISTA          000000000024000000000242500000002360000000000000000000241000011235300
0202LOTE PADRAO                   SID NACIONALON *       CSNA3       010VISTA          000000000043900000000442000000004220000000000000000000442000014682700
0202LOTE PADRAO                   TELE LEST CLPN *       TLCP4       010VISTA          000000000000690000000007000000000068000000000000000000006800099615100
0202LOTE PADRAO                   CRT CELULAR PNA* EJ    CRTP5       010VISTA          000000000403000000004030000000038000000000000000000003950000000314600
0202LOTE PADRAO                   IPIRANGA PETPN *       PTIP4       010VISTA          000000000014400000000145000000001390000000000000000000139000000143200
0202LOTE PADRAO                   BRASIL T PARPN *       BRTP4       010VISTA          000000000016600000000166000000001560000000000000000000159000050961800
0202LOTE PADRAO                   BRASIL T PARON *       BRTP3       010VISTA          000000000015100000000153000000001480000000000000000000148000003911400
0202LOTE PADRAO                   KLABIN S/A  PN         KLBN4       010VISTA          000000000001000000000010000000000100000000000000000000010000000009200
0202LOTE PADRAO                   ACESITA     PN *       ACES4       010VISTA          000000000000670000000006800000000065000000000000000000006600033772100
0202LOTE PADRAO                   PETROBRAS   PN         PETR4       010VISTA          000000000052000000000520000000005100000000000000000000516000000079300
0202LOTE PADRAO                   ELETROBRAS  PNB*       ELET6       010VISTA          000000000030300000000303000000002880000000000000000000289000015172000
0202LOTE PADRAO                   PETROBRAS   ON         PETR3       010VISTA          000000000055500000000555000000005360000000000000000000545000000049600
0202LOTE PADRAO                   COMGAS      PNA*       CGAS5       010VISTA          000000000077000000000770000000007500000000000000000000752000000963900
0202LOTE PADRAO                   SOUZA CRUZ  ON EJ      CRUZ3       010VISTA          000000000016100000000163000000001600000000000000000000163000000006300
0202LOTE PADRAO                   ELETROBRAS  ON *       ELET3       010VISTA          000000000032700000000327500000003220000000000000000000325000006115500
0202LOTE PADRAO                   CELESC      PNB        CLSC6       010VISTA          000000000000540000000005500000000054000000000000000000005400000053400
0202LOTE PADRAO                   BRADESCO    PN * EJ    BBDC4       010VISTA          000000000012400000000129000000001210000000000000000000121000087928100
0202LOTE PADRAO                   CESP        PN *       CESP4       010VISTA          000000000010000000000105000000000980000000000000000000099000006231800
0202LOTE PADRAO                   LIGHT       ON *       LIGH3       010VISTA          000000000092000000000930000000009200000000000000000000929000000398100
0202LOTE PADRAO                   TELESP CL PAPN *       TSPP4       010VISTA          000000000005200000000054000000000520000000000000000000053000168462000
0202LOTE PADRAO                   VALE R DOCE PNA        VALE5       010VISTA          000000000068300000000698000000006790000000000000000000697000000005400
0202LOTE PADRAO                   COPEL       PNB*       CPLE6       010VISTA          000000000014500000000146000000001400000000000000000000140000025247300
0202LOTE PADRAO                   VALE R DOCE ON         VALE3       010VISTA          000000000068600000000700000000006800000000000000000000699000000006400
0202LOTE PADRAO                   ARACRUZ     PNB        ARCZ6       010VISTA          000000000005200000000053000000000520000000000000000000053000000040500
0202LOTE PADRAO                   TELEMIG PARTPN *       TMCP4       010VISTA          000000000002600000000026000000000248000000000000000000025400091823300
0202LOTE PADRAO                   BRASIL TELECPN *       BRTO4       010VISTA          000000000012000000000120000000001120000000000000000000114000053730700
0202LOTE PADRAO                   SABESP      ON *       SBSP3       010VISTA          000000000117000000001170000000011300000000000000000001137000004453100
0202LOTE PADRAO                   BRASKEM     PNA*       BRKM5       010VISTA          000000000462000000004690000000046200000000000000000004620000000028800
0202LOTE PADRAO                   EMBRAER     PN EJ      EMBR4       010VISTA          000000000013700000000138000000001360000000000000000000137000000040000
0202LOTE PADRAO                   TELESP      PN * EJ    TLPP4       010VISTA          000000000033000000000330000000003230000000000000000000327000005481100
0202LOTE PADRAO                   EMBRAER     ON EJ      EMBR3       010VISTA          000000000012700000000127000000001200000000000000000000120000000007500
0202LOTE PADRAO                   AMBEV       PN *       AMBV4       010VISTA          000000000482000000004920000000048200000000000000000004880000001935700
0202LOTE PADRAO                   USIMINAS    PNA        USIM5       010VISTA          000000000007200000000074000000000690000000000000000000069000000046700
0202LOTE PADRAO                   ELETROPAULO PN *       ELPL4       010VISTA          000000000052000000000520000000005140000000000000000000514000000811300
0202LOTE PADRAO                   TELE NORD CLPN *       TNEP4       010VISTA          000000000002400000000024000000000230000000000000000000023000094487800
0202LOTE PADRAO                   CEMIG       PN * EJ    CMIG4       010VISTA          000000000033000000000330000000003125000000000000000000313000025107100
0202LOTE PADRAO                   TELE CL SUL PN * EJ    TCSL4       010VISTA          000000000002900000000029000000000280000000000000000000028000032375100
0202LOTE PADRAO                   TRACTEBEL   ON *       TBLE3       010VISTA          000000000004300000000043000000000410000000000000000000041000001703900
0202LOTE PADRAO                   CEMIG       ON * EJ    CMIG3       010VISTA          000000000029700000000308000000002970000000000000000000305000000071200
0202LOTE PADRAO                   TELE CL SUL ON * EJ    TCSL3       010VISTA          000000000002560000000025000000000240000000000000000000025000008771700
0202LOTE PADRAO                   ITAUSA      PN         ITSA4       010VISTA          000000000002100000000021000000000210000000000000000000021000000109300
0202LOTE PADRAO                   V C P       PN *       VCPA4       010VISTA          000000000095000000000973000000009450000000000000000000973000001129800
0202LOTE PADRAO                   SID TUBARAO PN *       CSTB4       010VISTA          000000000027500000000275000000002700000000000000000000271000009329100
0202LOTE PADRAO                   BRADESPAR   PN *       BRAP4       010VISTA          000000000000600000000006100000000059000000000000000000006100080468100
0202LOTE PADRAO                   NET         PN         PLIM4       010VISTA          000000000000300000000003100000000029000000000000000000002900000911200
0202LOTE PADRAO                   TELE CTR OESPN * EJ    TCOC4       010VISTA          000000000004500000000045000000000420000000000000000000043000133570000
0202LOTE PADRAO                   TELEMAR N L PNA* EJ    TMAR5       010VISTA          000000000049700000000497000000004900000000000000000000490000012254300
0202LOTE PADRAO                   GERDAU      PN * EJ    GGBR4       010VISTA          000000000028800000000296000000002880000000000000000000291000012461100
0202LOTE PADRAO                   BRASIL      ON *       BBAS3       010VISTA          000000000012000000000120000000001170000000000000000000119000001712400
