00BDIN9999BOVESPA 99992002042920020429
0101IBOVESPA                      0130760130320131420000000000000000002002042900000020020429013090000000
0202LOTE PADRAO                   EMBRATEL PARPN *       EBTP4       010VISTA          000000000006000000000062000000000596000000000000000000062000093127400
0202LOTE PADRAO                   TRAN PAULISTPN * EJ    TRPL4       010VISTA          000000000006710000000067000000000630000000000000000000064000008307400
0202LOTE PADRAO                   EMBRATEL PARON *       EBTP3       010VISTA          000000000007500000000081000000000750000000000000000000081000010524500
0202LOTE PADRAO                   TELEMAR     PN * EJ    TNLP4       010VISTA          000000000030800000000311000000003000000000000000000000302000192768000
0202LOTE PADRAO                   ITAUBANCO   PN * EJ    ITAU4       010VISTA          000000000187000000001870000000018460000000000000000001867500006584500
0202LOTE PADRAO                   TELEMAR     ON * EJ    TNLP3       010VISTA          000000000026600000000266000000002600000000000000000000266000008290600
0202LOTE PADRAO                   SID NACIONALON *       CSNA3       010VISTA          000000000045000000000457000000004430000000000000000000457000008318900
0202LOTE PADRAO                   TELE LEST CLPN *       TLCP4       010VISTA          000000000000750000000007500000000073000000000000000000007300022666700
0202LOTE PADRAO                   CRT CELULAR PNA* EJ    CRTP5       010VISTA          000000000407000000004249000000040500000000000000000004249000000272300
0202LOTE PADRAO                   IPIRANGA PETPN *       PTIP4       010VISTA          000000000015500000000155000000001490000000000000000000150000002049300
0202LOTE PADRAO                   BRASIL T PARPN *       BRTP4       010VISTA          000000000018600000000188000000001860000000000000000000186000034837200
0202LOTE PADRAO                   BRASIL T PARON *       BRTP3       010VISTA          000000000017600000000178000000001710000000000000000000174000008872700
0202LOTE PADRAO                   KLABIN S/A  PN         KLBN4       010VISTA          000000000001000000000010000000000100000000000000000000010000000033200
0202LOTE PADRAO                   ACESITA     PN *       ACES4       010VISTA          000000000000760000000007700000000075000000000000000000007700125690000
0202LOTE PADRAO                   PETROBRAS   PN         PETR4       010VISTA          000000000054100000000552000000005400000000000000000000550000000078000
0202LOTE PADRAO                   ELETROBRAS  PNB*       ELET6       010VISTA          000000000033700000000337000000003260000000000000000000327500022205500
0202LOTE PADRAO                   PETROBRAS   ON         PETR3       010VISTA          000000000057400000000586000000005740000000000000000000580000000026600
0202LOTE PADRAO                   COMGAS      PNA*       CGAS5       010VISTA          000000000073500000000735000000007300000000000000000000735000000269000
0202LOTE PADRAO                   SOUZA CRUZ  ON EJ      CRUZ3       010VISTA          000000000016700000000168000000001660000000000000000000168000000006400
0202LOTE PADRAO                   ELETROBRAS  ON *       ELET3       010VISTA          000000000037000000000370000000003600000000000000000000360000011770000
0202LOTE PADRAO                   CELESC      PNB        CLSC6       010VISTA          000000000000580000000006000000000056000000000000000000006000000348400
0202LOTE PADRAO                   BRADESCO    PN * EJ    BBDC4       010VISTA          000000000014100000000141000000001400000000000000000000141000070925900
0202LOTE PADRAO                   CESP        PN *       CESP4       010VISTA          000000000012300000000124000000001200000000000000000000121000005285600
0202LOTE PADRAO                   LIGHT       ON *       LIGH3       010VISTA          000000000098500000001000000000009850000000000000000000995000000218600
0202LOTE PADRAO                   TELESP CL PAPN *       TSPP4       010VISTA          000000000005800000000059000000000580000000000000000000058000172308000
0202LOTE PADRAO                   VALE R DOCE PNA        VALE5       010VISTA          000000000063700000000644000000006350000000000000000000635000000014500
0202LOTE PADRAO                   COPEL       PNB*       CPLE6       010VISTA          000000000017100000000173000000001690000000000000000000169000021037100
0202LOTE PADRAO                   VALE R DOCE ON         VALE3       010VISTA          000000000064200000000645000000006420000000000000000000645000000009600
0202LOTE PADRAO                   ARACRUZ     PNB        ARCZ6       010VISTA          000000000005000000000051000000000500000000000000000000050000000046700
0202LOTE PADRAO                   TELEMIG PARTPN *       TMCP4       010VISTA          000000000002750000000027000000000260000000000000000000026000047260500
0202LOTE PADRAO                   BRASIL TELECPN *       BRTO4       010VISTA          000000000012800000000128000000001250000000000000000000128000061842600
0202LOTE PADRAO                   SABESP      ON *       SBSP3       010VISTA          000000000148000000001480000000014450000000000000000001460000001701600
0202LOTE PADRAO                   BRASKEM     PNA*       BRKM5       010VISTA          000000000525900000005260000000051500000000000000000005150000000148000
0202LOTE PADRAO                   EMBRAER     PN EJ      EMBR4       010VISTA          000000000013000000000132500000001300000000000000000000131000000051900
0202LOTE PADRAO                   TELESP      PN * EJ    TLPP4       010VISTA          000000000032000000000328000000003200000000000000000000325000005317400
0202LOTE PADRAO                   EMBRAER     ON EJ      EMBR3       010VISTA          000000000012250000000122500000001190000000000000000000121000000019300
0202LOTE PADRAO                   AMBEV       PN *       AMBV4       010VISTA          000000000487000000004921000000048700000000000000000004870000001022900
0202LOTE PADRAO                   USIMINAS    PNA        USIM5       010VISTA          000000000007800000000079000000000770000000000000000000079000000014500
0202LOTE PADRAO                   ELETROPAULO PN *       ELPL4       010VISTA          000000000062000000000620000000005900000000000000000000590000005626500
0202LOTE PADRAO                   TELE NORD CLPN *       TNEP4       010VISTA          000000000002300000000023000000000230000000000000000000023000045790400
0202LOTE PADRAO                   CEMIG       PN * EJ    CMIG4       010VISTA          000000000037200000000379000000003710000000000000000000372000026694400
0202LOTE PADRAO                   TELE CL SUL PN * EJ    TCSL4       010VISTA          000000000003000000000030000000000290000000000000000000029000023977100
0202LOTE PADRAO                   TRACTEBEL   ON *       TBLE3       010VISTA          000000000004500000000045000000000440000000000000000000045000007387300
0202LOTE PADRAO                   CEMIG       ON * EJ    CMIG3       010VISTA          000000000033200000000335000000003320000000000000000000335000001320900
0202LOTE PADRAO                   TELE CL SUL ON * EJ    TCSL3       010VISTA          000000000002400000000025000000000240000000000000000000025000004422200
0202LOTE PADRAO                   ITAUSA      PN         ITSA4       010VISTA          000000000002300000000023000000000230000000000000000000023000000144500
0202LOTE PADRAO                   V C P       PN *       VCPA4       010VISTA          000000000092000000000920000000009170000000000000000000917000001483500
0202LOTE PADRAO                   SID TUBARAO PN *       CSTB4       010VISTA          000000000027800000000280000000002780000000000000000000280000005955200
0202LOTE PADRAO                   BRADESPAR   PN *       BRAP4       010VISTA          000000000000690000000006900000000067000000000000000000006700051544200
0202LOTE PADRAO                   NET         PN         PLIM4       010VISTA          000000000000320000000003300000000031000000000000000000003200000451500
0202LOTE PADRAO                   TELE CTR OESPN * EJ    TCOC4       010VISTA          000000000004600000000047500000000460000000000000000000046000041516300
0202LOTE PADRAO                   TELEMAR N L PNA* EJ    TMAR5       010VISTA          000000000052600000000535000000005230000000000000000000525000019139500
0202LOTE PADRAO                   GERDAU      PN * EJ    GGBR4       010VISTA          000000000032100000000327000000003200000000000000000000323000027385000
0202LOTE PADRAO                   BRASIL      ON *       BBAS3       010VISTA          000000000013700000000139000000001360000000000000000000136000001680000
