00BDIN9999BOVESPA 99992002111220021112
0101IBOVESPA                      0098640096470098710000000000000000002002111200000020021112009721000000
0202LOTE PADRAO                   EMBRATEL PARPN *       EBTP4       010VISTA          000000000002100000000022000000000200000000000000000000020000259681000
0202LOTE PADRAO                   TRAN PAULISTPN * EJ    TRPL4       010VISTA          000000000005000000000050000000000490000000000000000000049000025193500
0202LOTE PADRAO                   EMBRATEL PARON *       EBTP3       010VISTA          000000000002500000000025000000000240000000000000000000024000030099400
0202LOTE PADRAO                   TELEMAR     PN * EJ    TNLP4       010VISTA          000000000023800000000241000000002350000000000000000000236000273113000
0202LOTE PADRAO                   ITAUBANCO   PN * EJ    ITAU4       010VISTA          000000000150500000001569000000014900000000000000000001525000017247000
0202LOTE PADRAO                   TELEMAR     ON * EJ    TNLP3       010VISTA          000000000017600000000178000000001720000000000000000000174000010589100
0202LOTE PADRAO                   SID NACIONALON *       CSNA3       010VISTA          000000000039400000000396000000003850000000000000000000387000005900700
0202LOTE PADRAO                   TELE LEST CLPN *       TLCP4       010VISTA          000000000000400000000004000000000038000000000000000000003800238316000
0202LOTE PADRAO                   CRT CELULAR PNA* EJ    CRTP5       010VISTA          000000000325000000003250000000031000000000000000000003125000000674300
0202LOTE PADRAO                   IPIRANGA PETPN *       PTIP4       010VISTA          000000000008100000000081000000000780000000000000000000078000002270300
0202LOTE PADRAO                   BRASIL T PARPN *       BRTP4       010VISTA          000000000017500000000175000000001690000000000000000000170000078553300
0202LOTE PADRAO                   BRASIL T PARON *       BRTP3       010VISTA          000000000013100000000133000000001300000000000000000000130000009237600
0202LOTE PADRAO                   KLABIN S/A  PN         KLBN4       010VISTA          000000000000930000000009400000000092000000000000000000009400000034200
0202LOTE PADRAO                   ACESITA     PN *       ACES4       010VISTA          000000000000710000000007200000000070000000000000000000007000120101000
0202LOTE PADRAO                   PETROBRAS   PN         PETR4       010VISTA          000000000043800000000438000000004270000000000000000000431000000081600
0202LOTE PADRAO                   ELETROBRAS  PNB*       ELET6       010VISTA          000000000017000000000170000000001650000000000000000000169000048685300
0202LOTE PADRAO                   PETROBRAS   ON         PETR3       010VISTA          000000000046500000000471000000004610000000000000000000470000000030900
0202LOTE PADRAO                   COMGAS      PNA*       CGAS5       010VISTA          000000000056500000000565000000005400000000000000000000540000000704600
0202LOTE PADRAO                   SOUZA CRUZ  ON EJ      CRUZ3       010VISTA          000000000018600000000186000000001850000000000000000000186000000009500
0202LOTE PADRAO                   ELETROBRAS  ON *       ELET3       010VISTA          000000000017300000000173000000001700000000000000000000171000023002200
0202LOTE PADRAO                   CELESC      PNB        CLSC6       010VISTA          000000000000500000000005000000000049000000000000000000004900001095300
0202LOTE PADRAO                   BRADESCO    PN * EJ    BBDC4       010VISTA          000000000009000000000091000000000890000000000000000000089000226523000
0202LOTE PADRAO                   CESP        PN *       CESP4       010VISTA          000000000006100000000062000000000580000000000000000000058000013409000
0202LOTE PADRAO                   LIGHT       ON *       LIGH3       010VISTA          000000000050000000000520000000004720000000000000000000520000000479800
0202LOTE PADRAO                   TELESP CL PAPN *       TSPP4       010VISTA          000000000003800000000038000000000360000000000000000000037500279132000
0202LOTE PADRAO                   VALE R DOCE PNA        VALE5       010VISTA          000000000088700000000899000000008850000000000000000000895000000009000
0202LOTE PADRAO                   COPEL       PNB*       CPLE6       010VISTA          000000000007600000000077000000000740000000000000000000074000028059500
0202LOTE PADRAO                   VALE R DOCE ON         VALE3       010VISTA          000000000092000000000939000000009200000000000000000000939000000035600
0202LOTE PADRAO                   ARACRUZ     PNB        ARCZ6       010VISTA          000000000005400000000055000000000540000000000000000000054000000038600
0202LOTE PADRAO                   TELEMIG PARTPN *       TMCP4       010VISTA          000000000003000000000030000000000290000000000000000000030000100420000
0202LOTE PADRAO                   BRASIL TELECPN *       BRTO4       010VISTA          000000000011000000000110000000001080000000000000000000109000073154100
0202LOTE PADRAO                   SABESP      ON *       SBSP3       010VISTA          000000000085900000000875000000008240000000000000000000825000001657400
0202LOTE PADRAO                   BRASKEM     PNA*       BRKM5       010VISTA          000000000237000000002426000000022700000000000000000002310000000100100
0202LOTE PADRAO                   EMBRAER     PN EJ      EMBR4       010VISTA          000000000014100000000142500000001380000000000000000000140000000069000
0202LOTE PADRAO                   TELESP      PN * EJ    TLPP4       010VISTA          000000000035500000000366000000003550000000000000000000360000006858700
0202LOTE PADRAO                   EMBRAER     ON EJ      EMBR3       010VISTA          000000000013200000000132000000001260000000000000000000126000000022400
0202LOTE PADRAO                   AMBEV       PN *       AMBV4       010VISTA          000000000521000000005300000000051800000000000000000005200000002187400
0202LOTE PADRAO                   USIMINAS    PNA        USIM5       010VISTA          000000000005200000000053000000000500000000000000000000050000000041500
0202LOTE PADRAO                   ELETROPAULO PN *       ELPL4       010VISTA          000000000023800000000240000000002300000000000000000000231000002731600
0202LOTE PADRAO                   TELE NORD CLPN *       TNEP4       010VISTA          000000000002600000000026000000000248000000000000000000024000083534900
0202LOTE PADRAO                   CEMIG       PN * EJ    CMIG4       010VISTA          000000000023100000000231000000002230000000000000000000230000029195500
0202LOTE PADRAO                   TELE CL SUL PN * EJ    TCSL4       010VISTA          000000000002800000000028000000000260000000000000000000027700117178000
0202LOTE PADRAO                   TRACTEBEL   ON *       TBLE3       010VISTA          000000000003100000000032000000000310000000000000000000032000007064100
0202LOTE PADRAO                   CEMIG       ON * EJ    CMIG3       010VISTA          000000000020700000000211000000002060000000000000000000211000000918100
0202LOTE PADRAO                   TELE CL SUL ON * EJ    TCSL3       010VISTA          000000000002100000000021000000000199000000000000000000020000068035600
0202LOTE PADRAO                   ITAUSA      PN         ITSA4       010VISTA          000000000001800000000018000000000180000000000000000000018100000430600
0202LOTE PADRAO                   V C P       PN *       VCPA4       010VISTA          000000000111500000001115000000010750000000000000000001090000001484500
0202LOTE PADRAO                   SID TUBARAO PN *       CSTB4       010VISTA          000000000036700000000367000000003450000000000000000000350000005081000
0202LOTE PADRAO                   BRADESPAR   PN *       BRAP4       010VISTA          000000000000470000000004900000000045000000000000000000004600392048000
0202LOTE PADRAO                   NET         PN         PLIM4       010VISTA          000000000000310000000004500000000030000000000000000000004000004852700
0202LOTE PADRAO                   TELE CTR OESPN * EJ    TCOC4       010VISTA          000000000003800000000039400000000375000000000000000000039000137481000
0202LOTE PADRAO                   TELEMAR N L PNA* EJ    TMAR5       010VISTA          000000000040900000000409000000004000000000000000000000405000023245500
0202LOTE PADRAO                   GERDAU      PN * EJ    GGBR4       010VISTA          000000000033600000000336000000003200000000000000000000325000018790900
0202LOTE PADRAO                   BRASIL      ON *       BBAS3       010VISTA          000000000010300000000104000000001010000000000000000000102000035005800
