00BDIN9999BOVESPA 99992002022620020226
0101IBOVESPA                      0139750138320140530000000000000000002002022600000020020226013964000000
0202LOTE PADRAO                   EMBRATEL PARPN *       EBTP4       010VISTA          000000000008900000000089000000000860000000000000000000086000093446100
0202LOTE PADRAO                   EMBRATEL PARON *       EBTP3       010VISTA          000000000011100000000111000000001060000000000000000000107000012518000
0202LOTE PADRAO                   TRAN PAULISTPN * EJ    TRPL4       010VISTA          000000000007800000000079000000000750000000000000000000077000040962600
0202LOTE PADRAO                   TELEMAR     PN * EJ    TNLP4       010VISTA          000000000036100000000363000000003570000000000000000000359000257247000
0202LOTE PADRAO                   ITAUBANCO   PN * EJ    ITAU4       010VISTA          000000000201000000002085000000019890000000000000000002070000049609700
0202LOTE PADRAO                   TELEMAR     ON * EJ    TNLP3       010VISTA          000000000031800000000318000000003080000000000000000000314000007737000
0202LOTE PADRAO                   SID NACIONALON *       CSNA3       010VISTA          000000000040500000000415000000004050000000000000000000407000009320100
0202LOTE PADRAO                   TELE LEST CLPN *       TLCP4       010VISTA          000000000000880000000008800000000085000000000000000000008700075746500
0202LOTE PADRAO                   CRT CELULAR PNA* EJ    CRTP5       010VISTA          000000000470000000004700000000044990000000000000000004629000000325800
0202LOTE PADRAO                   IPIRANGA PETPN *       PTIP4       010VISTA          000000000013600000000136000000001300000000000000000000133000001541000
0202LOTE PADRAO                   BRASIL T PARPN *       BRTP4       010VISTA          000000000018600000000189000000001810000000000000000000189000077288300
0202LOTE PADRAO                   BRASIL T PARON *       BRTP3       010VISTA          000000000018700000000190000000001850000000000000000000190000011132300
0202LOTE PADRAO                   KLABIN S/A  PN         KLBN4       010VISTA          000000000001260000000012700000000125000000000000000000012700000067000
0202LOTE PADRAO                   ACESITA     PN *       ACES4       010VISTA          000000000000740000000007500000000072000000000000000000007300120752000
0202LOTE PADRAO                   PETROBRAS   PN         PETR4       010VISTA          000000000053100000000541000000005280000000000000000000537000000146100
0202LOTE PADRAO                   ELETROBRAS  PNB*       ELET6       010VISTA          000000000036500000000367000000003570000000000000000000358000039435000
0202LOTE PADRAO                   PETROBRAS   ON         PETR3       010VISTA          000000000054200000000558000000005420000000000000000000557000000055700
0202LOTE PADRAO                   COMGAS      PNA*       CGAS5       010VISTA          000000000093400000000934000000009010000000000000000000920000005392400
0202LOTE PADRAO                   SOUZA CRUZ  ON EJ      CRUZ3       010VISTA          000000000015000000000150000000001470000000000000000000150000000008700
0202LOTE PADRAO                   ELETROBRAS  ON *       ELET3       010VISTA          000000000042500000000425000000004070000000000000000000411000021921700
0202LOTE PADRAO                   CELESC      PNB        CLSC6       010VISTA          000000000000570000000005800000000056000000000000000000005700000158800
0202LOTE PADRAO                   BRADESCO    PN * EJ    BBDC4       010VISTA          000000000013800000000140000000001350000000000000000000140000197639000
0202LOTE PADRAO                   CESP        PN *       CESP4       010VISTA          000000000016000000000163000000001540000000000000000000155000008643700
0202LOTE PADRAO                   LIGHT       ON *       LIGH3       010VISTA          000000000126900000001270000000012200000000000000000001248000000195800
0202LOTE PADRAO                   TELESP CL PAPN *       TSPP4       010VISTA          000000000007400000000075000000000720000000000000000000073000180361000
0202LOTE PADRAO                   VALE R DOCE PNA        VALE5       010VISTA          000000000060800000000609000000005980000000000000000000605000000075800
0202LOTE PADRAO                   COPEL       PNB*       CPLE6       010VISTA          000000000018200000000183000000001760000000000000000000176000013428100
0202LOTE PADRAO                   VALE R DOCE ON         VALE3       010VISTA          000000000060000000000615000000006000000000000000000000615000000015600
0202LOTE PADRAO                   ARACRUZ     PNB        ARCZ6       010VISTA          000000000004800000000048000000000460000000000000000000047000000023100
0202LOTE PADRAO                   TELEMIG PARTPN *       TMCP4       010VISTA          000000000003500000000036000000000350000000000000000000036000203181000
0202LOTE PADRAO                   BRASIL TELECPN *       BRTO4       010VISTA          000000000013500000000136000000001330000000000000000000135000068364300
0202LOTE PADRAO                   SABESP      ON *       SBSP3       010VISTA          000000000132750000001327500000012600000000000000000001294000001914000
0202LOTE PADRAO                   BRASKEM     PNA*       BRKM5       010VISTA          000000000534900000005349000000051500000000000000000005150000000133500
0202LOTE PADRAO                   EMBRAER     PN EJ      EMBR4       010VISTA          000000000013300000000135000000001280000000000000000000129000000127100
0202LOTE PADRAO                   TELESP      PN * EJ    TLPP4       010VISTA          000000000032000000000320000000003150000000000000000000318000005026000
0202LOTE PADRAO                   EMBRAER     ON EJ      EMBR3       010VISTA          000000000012900000000129000000001225000000000000000000124000000030300
0202LOTE PADRAO                   AMBEV       PN *       AMBV4       010VISTA          000000000452900000004550000000044600000000000000000004489000003565400
0202LOTE PADRAO                   USIMINAS    PNA        USIM5       010VISTA          000000000007900000000080000000000760000000000000000000080000000059200
0202LOTE PADRAO                   ELETROPAULO PN *       ELPL4       010VISTA          000000000067700000000678000000006600000000000000000000670000002633900
0202LOTE PADRAO                   TELE NORD CLPN *       TNEP4       010VISTA          000000000002900000000030000000000298000000000000000000030000086277200
0202LOTE PADRAO                   CEMIG       PN * EJ    CMIG4       010VISTA          000000000037300000000375000000003650000000000000000000375000024386300
0202LOTE PADRAO                   TELE CL SUL PN * EJ    TCSL4       010VISTA          000000000003200000000033000000000310000000000000000000032000080997700
0202LOTE PADRAO                   CEMIG       ON * EJ    CMIG3       010VISTA          000000000035000000000350000000003350000000000000000000342000001835000
0202LOTE PADRAO                   TELE CL SUL ON * EJ    TCSL3       010VISTA          000000000002900000000029000000000280000000000000000000028000015671100
0202LOTE PADRAO                   ITAUSA      PN         ITSA4       010VISTA          000000000002300000000023000000000220000000000000000000023000000569300
0202LOTE PADRAO                   V C P       PN *       VCPA4       010VISTA          000000000092000000000920000000008600000000000000000000874000000891500
0202LOTE PADRAO                   SID TUBARAO PN *       CSTB4       010VISTA          000000000025000000000250000000002350000000000000000000238000006872700
0202LOTE PADRAO                   BRADESPAR   PN *       BRAP4       010VISTA          000000000000790000000008000000000078000000000000000000008000136428000
0202LOTE PADRAO                   NET         PN         PLIM4       010VISTA          000000000000690000000007100000000067000000000000000000007000001946300
0202LOTE PADRAO                   TELE CTR OESPN * EJ    TCOC4       010VISTA          000000000004800000000049000000000460000000000000000000047500092746600
0202LOTE PADRAO                   TELEMAR N L PNA* EJ    TMAR5       010VISTA          000000000060300000000607000000005920000000000000000000603000013196500
0202LOTE PADRAO                   GERDAU      PN * EJ    GGBR4       010VISTA          000000000027900000000283000000002610000000000000000000277000018569200
0202LOTE PADRAO                   BRASIL      ON *       BBAS3       010VISTA          000000000011100000000111000000001050000000000000000000106000019057500
