00BDIN9999BOVESPA 99992002030420020304
0101IBOVESPA                      0143730141000144740000000000000000002002030400000020020304014471000000
0202LOTE PADRAO                   EMBRATEL PARPN *       EBTP4       010VISTA          000000000008900000000090000000000880000000000000000000089000182266000
0202LOTE PADRAO                   EMBRATEL PARON *       EBTP3       010VISTA          000000000010750000000110000000001060000000000000000000110000032467500
0202LOTE PADRAO                   TRAN PAULISTPN * EJ    TRPL4       010VISTA          000000000007600000000079000000000750000000000000000000078000013926700
0202LOTE PADRAO                   TELEMAR     PN * EJ    TNLP4       010VISTA          000000000035500000000365000000003550000000000000000000363000211812000
0202LOTE PADRAO                   ITAUBANCO   PN * EJ    ITAU4       010VISTA          000000000198900000001990000000019500000000000000000001974000009358600
0202LOTE PADRAO                   TELEMAR     ON * EJ    TNLP3       010VISTA          000000000031000000000322000000003080000000000000000000322000014822700
0202LOTE PADRAO                   SID NACIONALON *       CSNA3       010VISTA          000000000042700000000435000000004170000000000000000000435000014726400
0202LOTE PADRAO                   TELE LEST CLPN *       TLCP4       010VISTA          000000000000890000000009200000000086000000000000000000009100184806000
0202LOTE PADRAO                   CRT CELULAR PNA* EJ    CRTP5       010VISTA          000000000480000000004850000000046800000000000000000004790000000858600
0202LOTE PADRAO                   IPIRANGA PETPN *       PTIP4       010VISTA          000000000014100000000146000000001390000000000000000000146000004154800
0202LOTE PADRAO                   BRASIL T PARPN *       BRTP4       010VISTA          000000000019300000000198000000001900000000000000000000198000081919600
0202LOTE PADRAO                   BRASIL T PARON *       BRTP3       010VISTA          000000000019300000000200000000001910000000000000000000200000009044000
0202LOTE PADRAO                   KLABIN S/A  PN         KLBN4       010VISTA          000000000001300000000013000000000127000000000000000000012000000054000
0202LOTE PADRAO                   ACESITA     PN *       ACES4       010VISTA          000000000000720000000007400000000071000000000000000000007400178489000
0202LOTE PADRAO                   PETROBRAS   PN         PETR4       010VISTA          000000000057000000000583000000005670000000000000000000583000000126000
0202LOTE PADRAO                   ELETROBRAS  PNB*       ELET6       010VISTA          000000000035700000000366000000003490000000000000000000364000061580000
0202LOTE PADRAO                   PETROBRAS   ON         PETR3       010VISTA          000000000061000000000610000000005900000000000000000000610000000122000
0202LOTE PADRAO                   COMGAS      PNA*       CGAS5       010VISTA          000000000093200000000932000000008900000000000000000000932000000620000
0202LOTE PADRAO                   SOUZA CRUZ  ON EJ      CRUZ3       010VISTA          000000000015600000000160000000001520000000000000000000160000000034000
0202LOTE PADRAO                   ELETROBRAS  ON *       ELET3       010VISTA          000000000041700000000420000000004000000000000000000000417000019283800
0202LOTE PADRAO                   CELESC      PNB        CLSC6       010VISTA          000000000000580000000006000000000056000000000000000000005900000423000
0202LOTE PADRAO                   BRADESCO    PN * EJ    BBDC4       010VISTA          000000000013800000000138000000001350000000000000000000137000175224000
0202LOTE PADRAO                   CESP        PN *       CESP4       010VISTA          000000000015800000000158000000001540000000000000000000158000008055600
0202LOTE PADRAO                   LIGHT       ON *       LIGH3       010VISTA          000000000125000000001260000000012000000000000000000001230000000298600
0202LOTE PADRAO                   TELESP CL PAPN *       TSPP4       010VISTA          000000000007600000000079000000000760000000000000000000078000253698000
0202LOTE PADRAO                   VALE R DOCE PNA        VALE5       010VISTA          000000000061000000000627000000006080000000000000000000626000000060400
0202LOTE PADRAO                   COPEL       PNB*       CPLE6       010VISTA          000000000018600000000190000000001810000000000000000000190000041283400
0202LOTE PADRAO                   VALE R DOCE ON         VALE3       010VISTA          000000000063700000000649000000006350000000000000000000647000000012700
0202LOTE PADRAO                   ARACRUZ     PNB        ARCZ6       010VISTA          000000000004800000000049000000000480000000000000000000049000000039800
0202LOTE PADRAO                   TELEMIG PARTPN *       TMCP4       010VISTA          000000000003770000000037000000000370000000000000000000037700209337000
0202LOTE PADRAO                   BRASIL TELECPN *       BRTO4       010VISTA          000000000014000000000142000000001380000000000000000000142500067455400
0202LOTE PADRAO                   SABESP      ON *       SBSP3       010VISTA          000000000134400000001389000000013100000000000000000001389000002576900
0202LOTE PADRAO                   BRASKEM     PNA*       BRKM5       010VISTA          000000000545000000005700000000053500000000000000000005700000000166300
0202LOTE PADRAO                   EMBRAER     PN EJ      EMBR4       010VISTA          000000000011800000000120000000001160000000000000000000118000000186100
0202LOTE PADRAO                   TELESP      PN * EJ    TLPP4       010VISTA          000000000033200000000347000000003280000000000000000000340000011806000
0202LOTE PADRAO                   EMBRAER     ON EJ      EMBR3       010VISTA          000000000011000000000113000000001090000000000000000000110000000036800
0202LOTE PADRAO                   AMBEV       PN *       AMBV4       010VISTA          000000000476000000004830000000047000000000000000000004830000001746200
0202LOTE PADRAO                   USIMINAS    PNA        USIM5       010VISTA          000000000007700000000078000000000740000000000000000000077500000139000
0202LOTE PADRAO                   ELETROPAULO PN *       ELPL4       010VISTA          000000000066500000000670000000006570000000000000000000670000008891300
0202LOTE PADRAO                   TELE NORD CLPN *       TNEP4       010VISTA          000000000003100000000032000000000310000000000000000000032000092057300
0202LOTE PADRAO                   CEMIG       PN * EJ    CMIG4       010VISTA          000000000037200000000384000000003670000000000000000000384000050618700
0202LOTE PADRAO                   TELE CL SUL PN * EJ    TCSL4       010VISTA          000000000003300000000033000000000320000000000000000000033000108704000
0202LOTE PADRAO                   CEMIG       ON * EJ    CMIG3       010VISTA          000000000032900000000345000000003280000000000000000000345000001498800
0202LOTE PADRAO                   TELE CL SUL ON * EJ    TCSL3       010VISTA          000000000003000000000031000000000298000000000000000000030000018523300
0202LOTE PADRAO                   ITAUSA      PN         ITSA4       010VISTA          000000000002400000000024000000000230000000000000000000023000000227100
0202LOTE PADRAO                   V C P       PN *       VCPA4       010VISTA          000000000086500000000870000000008300000000000000000000867000003827200
0202LOTE PADRAO                   SID TUBARAO PN *       CSTB4       010VISTA          000000000025100000000256000000002450000000000000000000256000017546500
0202LOTE PADRAO                   BRADESPAR   PN *       BRAP4       010VISTA          000000000000800000000008400000000079000000000000000000008200250684000
0202LOTE PADRAO                   NET         PN         PLIM4       010VISTA          000000000000710000000007500000000070000000000000000000007400001322900
0202LOTE PADRAO                   TELE CTR OESPN * EJ    TCOC4       010VISTA          000000000005100000000054000000000500000000000000000000054000130460000
0202LOTE PADRAO                   TELEMAR N L PNA* EJ    TMAR5       010VISTA          000000000060000000000622500000006000000000000000000000619000018622700
0202LOTE PADRAO                   GERDAU      PN * EJ    GGBR4       010VISTA          000000000026500000000266000000002630000000000000000000265000019643500
0202LOTE PADRAO                   BRASIL      ON *       BBAS3       010VISTA          000000000010600000000110000000001050000000000000000000110000006212100
