00BDIN9999BOVESPA 99992002062020020620
0101IBOVESPA                      0115080108940116030000000000000000002002062000000020020620010909000000
0202LOTE PADRAO                   EMBRATEL PARPN *       EBTP4       010VISTA          000000000003700000000037000000000330000000000000000000034000251800000
0202LOTE PADRAO                   TRAN PAULISTPN * EJ    TRPL4       010VISTA          000000000006200000000062000000000580000000000000000000059000006460600
0202LOTE PADRAO                   EMBRATEL PARON *       EBTP3       010VISTA          000000000004900000000049000000000440000000000000000000044000026309400
0202LOTE PADRAO                   TELEMAR     PN * EJ    TNLP4       010VISTA          000000000029000000000291000000002710000000000000000000273000243081000
0202LOTE PADRAO                   ITAUBANCO   PN * EJ    ITAU4       010VISTA          000000000155000000001560000000014800000000000000000001480000017394000
0202LOTE PADRAO                   TELEMAR     ON * EJ    TNLP3       010VISTA          000000000024000000000240000000002200000000000000000000227000011520000
0202LOTE PADRAO                   SID NACIONALON *       CSNA3       010VISTA          000000000044800000000448000000004070000000000000000000415000034857000
0202LOTE PADRAO                   TELE LEST CLPN *       TLCP4       010VISTA          000000000000650000000006600000000061000000000000000000006100108133000
0202LOTE PADRAO                   CRT CELULAR PNA* EJ    CRTP5       010VISTA          000000000386500000003865000000037000000000000000000003730000000264800
0202LOTE PADRAO                   IPIRANGA PETPN *       PTIP4       010VISTA          000000000013000000000133000000001260000000000000000000129000001678700
0202LOTE PADRAO                   BRASIL T PARPN *       BRTP4       010VISTA          000000000015400000000154000000001430000000000000000000143000029982600
0202LOTE PADRAO                   BRASIL T PARON *       BRTP3       010VISTA          000000000014400000000144000000001300000000000000000000131000006022600
0202LOTE PADRAO                   KLABIN S/A  PN         KLBN4       010VISTA          000000000000970000000009700000000093000000000000000000009400000028400
0202LOTE PADRAO                   ACESITA     PN *       ACES4       010VISTA          000000000000650000000006600000000063000000000000000000006500133880000
0202LOTE PADRAO                   PETROBRAS   PN         PETR4       010VISTA          000000000048800000000488000000004520000000000000000000457000000170900
0202LOTE PADRAO                   ELETROBRAS  PNB*       ELET6       010VISTA          000000000026000000000260000000002400000000000000000000243000073531800
0202LOTE PADRAO                   PETROBRAS   ON         PETR3       010VISTA          000000000053000000000537000000004970000000000000000000500000000070300
0202LOTE PADRAO                   COMGAS      PNA*       CGAS5       010VISTA          000000000065000000000650000000006050000000000000000000605000000564800
0202LOTE PADRAO                   SOUZA CRUZ  ON EJ      CRUZ3       010VISTA          000000000015000000000150000000001360000000000000000000136000000019400
0202LOTE PADRAO                   ELETROBRAS  ON *       ELET3       010VISTA          000000000030000000000300000000002800000000000000000000281000006932700
0202LOTE PADRAO                   CELESC      PNB        CLSC6       010VISTA          000000000000540000000005600000000052000000000000000000005500000911300
0202LOTE PADRAO                   BRADESCO    PN * EJ    BBDC4       010VISTA          000000000011600000000116000000001100000000000000000000110000411875000
0202LOTE PADRAO                   CESP        PN *       CESP4       010VISTA          000000000009800000000099000000000910000000000000000000091000006707000
0202LOTE PADRAO                   LIGHT       ON *       LIGH3       010VISTA          000000000092000000000930000000008900000000000000000000892000000181700
0202LOTE PADRAO                   TELESP CL PAPN *       TSPP4       010VISTA          000000000004800000000048000000000440000000000000000000045000298579000
0202LOTE PADRAO                   VALE R DOCE PNA        VALE5       010VISTA          000000000070900000000709000000006820000000000000000000692000000040000
0202LOTE PADRAO                   COPEL       PNB*       CPLE6       010VISTA          000000000012800000000128000000001225000000000000000000122500049482700
0202LOTE PADRAO                   VALE R DOCE ON         VALE3       010VISTA          000000000075800000000758000000007420000000000000000000754000000008700
0202LOTE PADRAO                   ARACRUZ     PNB        ARCZ6       010VISTA          000000000005300000000053000000000500000000000000000000050000000092700
0202LOTE PADRAO                   TELEMIG PARTPN *       TMCP4       010VISTA          000000000002700000000027000000000269000000000000000000027000150258000
0202LOTE PADRAO                   BRASIL TELECPN *       BRTO4       010VISTA          000000000011100000000111000000001030000000000000000000103000151803000
0202LOTE PADRAO                   SABESP      ON *       SBSP3       010VISTA          000000000106000000001060000000010200000000000000000001020000005499100
0202LOTE PADRAO                   BRASKEM     PNA*       BRKM5       010VISTA          000000000401500000004150000000038710000000000000000003900000000119400
0202LOTE PADRAO                   EMBRAER     PN EJ      EMBR4       010VISTA          000000000015100000000153000000001480000000000000000000149000000050800
0202LOTE PADRAO                   TELESP      PN * EJ    TLPP4       010VISTA          000000000034000000000340000000003160000000000000000000326000008679400
0202LOTE PADRAO                   EMBRAER     ON EJ      EMBR3       010VISTA          000000000013500000000135000000001300000000000000000000130000000025600
0202LOTE PADRAO                   AMBEV       PN *       AMBV4       010VISTA          000000000430000000004300000000039600000000000000000003980000001250300
0202LOTE PADRAO                   USIMINAS    PNA        USIM5       010VISTA          000000000007300000000073000000000670000000000000000000067000000047300
0202LOTE PADRAO                   ELETROPAULO PN *       ELPL4       010VISTA          000000000045000000000450000000004000000000000000000000407000005938200
0202LOTE PADRAO                   TELE NORD CLPN *       TNEP4       010VISTA          000000000002560000000025600000000230000000000000000000023000106712000
0202LOTE PADRAO                   CEMIG       PN * EJ    CMIG4       010VISTA          000000000033700000000337000000003080000000000000000000308000061325400
0202LOTE PADRAO                   TELE CL SUL PN * EJ    TCSL4       010VISTA          000000000002900000000029000000000270000000000000000000028100053440700
0202LOTE PADRAO                   TRACTEBEL   ON *       TBLE3       010VISTA          000000000003900000000039000000000375000000000000000000038000076715200
0202LOTE PADRAO                   CEMIG       ON * EJ    CMIG3       010VISTA          000000000029100000000294000000002860000000000000000000290000001601800
0202LOTE PADRAO                   TELE CL SUL ON * EJ    TCSL3       010VISTA          000000000002300000000024000000000230000000000000000000023000018689300
0202LOTE PADRAO                   ITAUSA      PN         ITSA4       010VISTA          000000000001800000000018000000000176000000000000000000017800000551900
0202LOTE PADRAO                   V C P       PN *       VCPA4       010VISTA          000000000097000000000972000000009100000000000000000000912000005299900
0202LOTE PADRAO                   SID TUBARAO PN *       CSTB4       010VISTA          000000000028000000000280000000002630000000000000000000264000012436200
0202LOTE PADRAO                   BRADESPAR   PN *       BRAP4       010VISTA          000000000000570000000005700000000053000000000000000000005400123171000
0202LOTE PADRAO                   NET         PN         PLIM4       010VISTA          000000000002300000000023000000000210000000000000000000021000000202200
0202LOTE PADRAO                   TELE CTR OESPN * EJ    TCOC4       010VISTA          000000000003900000000039000000000350000000000000000000035000078070100
0202LOTE PADRAO                   TELEMAR N L PNA* EJ    TMAR5       010VISTA          000000000050000000000500000000004620000000000000000000465000014279200
0202LOTE PADRAO                   GERDAU      PN * EJ    GGBR4       010VISTA          000000000030300000000303000000002830000000000000000000283000023072500
0202LOTE PADRAO                   BRASIL      ON *       BBAS3       010VISTA          000000000010250000000102500000000900000000000000000000091000009990600
