00BDIN9999BOVESPA 99992002091220020912
0101IBOVESPA                      0101820100320101880000000000000000002002091200000020020912010173000000
0202LOTE PADRAO                   EMBRATEL PARPN *       EBTP4       010VISTA          000000000002500000000026000000000250000000000000000000026000162291000
0202LOTE PADRAO                   TRAN PAULISTPN * EJ    TRPL4       010VISTA          000000000005400000000055000000000520000000000000000000055000027575700
0202LOTE PADRAO                   EMBRATEL PARON *       EBTP3       010VISTA          000000000003600000000036000000000350000000000000000000035000034448400
0202LOTE PADRAO                   TELEMAR     PN * EJ    TNLP4       010VISTA          000000000025000000000255000000002480000000000000000000253000148236000
0202LOTE PADRAO                   ITAUBANCO   PN * EJ    ITAU4       010VISTA          000000000141900000001428000000014010000000000000000001425000006947500
0202LOTE PADRAO                   TELEMAR     ON * EJ    TNLP3       010VISTA          000000000019300000000198000000001910000000000000000000198000014111000
0202LOTE PADRAO                   SID NACIONALON *       CSNA3       010VISTA          000000000038700000000387000000003750000000000000000000378000008050800
0202LOTE PADRAO                   TELE LEST CLPN *       TLCP4       010VISTA          000000000000430000000004400000000042000000000000000000004400124727000
0202LOTE PADRAO                   CRT CELULAR PNA* EJ    CRTP5       010VISTA          000000000350000000003600000000034500000000000000000003600000000145900
0202LOTE PADRAO                   IPIRANGA PETPN *       PTIP4       010VISTA          000000000010600000000109000000001050000000000000000000108000001281100
0202LOTE PADRAO                   BRASIL T PARPN *       BRTP4       010VISTA          000000000017900000000183000000001780000000000000000000181000025613400
0202LOTE PADRAO                   BRASIL T PARON *       BRTP3       010VISTA          000000000013500000000141000000001350000000000000000000139000003363200
0202LOTE PADRAO                   KLABIN S/A  PN         KLBN4       010VISTA          000000000000860000000009000000000085000000000000000000009000000010700
0202LOTE PADRAO                   ACESITA     PN *       ACES4       010VISTA          000000000000640000000006500000000063000000000000000000006400056960000
0202LOTE PADRAO                   PETROBRAS   PN         PETR4       010VISTA          000000000047000000000477000000004700000000000000000000473000000069900
0202LOTE PADRAO                   ELETROBRAS  PNB*       ELET6       010VISTA          000000000020400000000204000000002000000000000000000000203000027643800
0202LOTE PADRAO                   PETROBRAS   ON         PETR3       010VISTA          000000000052800000000531000000005250000000000000000000525000000029900
0202LOTE PADRAO                   COMGAS      PNA*       CGAS5       010VISTA          000000000059800000000627000000005980000000000000000000627500000270000
0202LOTE PADRAO                   SOUZA CRUZ  ON EJ      CRUZ3       010VISTA          000000000015000000000155000000001480000000000000000000155000000010800
0202LOTE PADRAO                   ELETROBRAS  ON *       ELET3       010VISTA          000000000021300000000213000000002050000000000000000000208000013362900
0202LOTE PADRAO                   CELESC      PNB        CLSC6       010VISTA          000000000000540000000005600000000054000000000000000000005600000095500
0202LOTE PADRAO                   BRADESCO    PN * EJ    BBDC4       010VISTA          000000000009900000000099000000000980000000000000000000099000132060000
0202LOTE PADRAO                   CESP        PN *       CESP4       010VISTA          000000000007000000000070000000000670000000000000000000069000002992100
0202LOTE PADRAO                   LIGHT       ON *       LIGH3       010VISTA          000000000066000000000660000000006400000000000000000000654000000624600
0202LOTE PADRAO                   TELESP CL PAPN *       TSPP4       010VISTA          000000000003500000000036000000000340000000000000000000035600221198000
0202LOTE PADRAO                   VALE R DOCE PNA        VALE5       010VISTA          000000000073900000000739000000007300000000000000000000732000000028400
0202LOTE PADRAO                   COPEL       PNB*       CPLE6       010VISTA          000000000009500000000095000000000930000000000000000000095000039386900
0202LOTE PADRAO                   VALE R DOCE ON         VALE3       010VISTA          000000000079200000000794000000007850000000000000000000790000000002900
0202LOTE PADRAO                   ARACRUZ     PNB        ARCZ6       010VISTA          000000000005400000000054000000000520000000000000000000052000000083400
0202LOTE PADRAO                   TELEMIG PARTPN *       TMCP4       010VISTA          000000000002810000000029600000000279000000000000000000029600121722000
0202LOTE PADRAO                   BRASIL TELECPN *       BRTO4       010VISTA          000000000011500000000120000000001150000000000000000000120000067687500
0202LOTE PADRAO                   SABESP      ON *       SBSP3       010VISTA          000000000084000000000849000000008200000000000000000000849000000928400
0202LOTE PADRAO                   BRASKEM     PNA*       BRKM5       010VISTA          000000000286000000002860000000028000000000000000000002849000000054400
0202LOTE PADRAO                   EMBRAER     PN EJ      EMBR4       010VISTA          000000000013500000000135000000001320000000000000000000134000000031400
0202LOTE PADRAO                   TELESP      PN * EJ    TLPP4       010VISTA          000000000032500000000335000000003250000000000000000000335000003483300
0202LOTE PADRAO                   EMBRAER     ON EJ      EMBR3       010VISTA          000000000012000000000121000000001200000000000000000000121000000006000
0202LOTE PADRAO                   AMBEV       PN *       AMBV4       010VISTA          000000000433700000004380000000043130000000000000000004370000001313400
0202LOTE PADRAO                   USIMINAS    PNA        USIM5       010VISTA          000000000005400000000055000000000520000000000000000000055000000027000
0202LOTE PADRAO                   ELETROPAULO PN *       ELPL4       010VISTA          000000000033000000000330000000003130000000000000000000327500002460600
0202LOTE PADRAO                   TELE NORD CLPN *       TNEP4       010VISTA          000000000002500000000025000000000250000000000000000000025000068801900
0202LOTE PADRAO                   CEMIG       PN * EJ    CMIG4       010VISTA          000000000026600000000266000000002580000000000000000000260000021639800
0202LOTE PADRAO                   TELE CL SUL PN * EJ    TCSL4       010VISTA          000000000002500000000027000000000250000000000000000000026900102581000
0202LOTE PADRAO                   TRACTEBEL   ON *       TBLE3       010VISTA          000000000003900000000040000000000390000000000000000000039400030272500
0202LOTE PADRAO                   CEMIG       ON * EJ    CMIG3       010VISTA          000000000023600000000246000000002350000000000000000000245000000433100
0202LOTE PADRAO                   TELE CL SUL ON * EJ    TCSL3       010VISTA          000000000002000000000022000000000200000000000000000000022000012383600
0202LOTE PADRAO                   ITAUSA      PN         ITSA4       010VISTA          000000000001720000000017300000000170000000000000000000017200000067900
0202LOTE PADRAO                   V C P       PN *       VCPA4       010VISTA          000000000101000000001014000000010000000000000000000001009000001445600
0202LOTE PADRAO                   SID TUBARAO PN *       CSTB4       010VISTA          000000000025100000000260000000002510000000000000000000259000001714700
0202LOTE PADRAO                   BRADESPAR   PN *       BRAP4       010VISTA          000000000000470000000004800000000046000000000000000000004800051975100
0202LOTE PADRAO                   NET         PN         PLIM4       010VISTA          000000000000420000000004200000000040000000000000000000004200000734900
0202LOTE PADRAO                   TELE CTR OESPN * EJ    TCOC4       010VISTA          000000000003400000000036000000000340000000000000000000036000182232000
0202LOTE PADRAO                   TELEMAR N L PNA* EJ    TMAR5       010VISTA          000000000043500000000446000000004350000000000000000000445000006263600
0202LOTE PADRAO                   GERDAU      PN * EJ    GGBR4       010VISTA          000000000032000000000329000000003180000000000000000000320000006898900
0202LOTE PADRAO                   BRASIL      ON *       BBAS3       010VISTA          000000000010500000000105000000001010000000000000000000101000042347300
