00BDIN9999BOVESPA 99992002071620020716
0101IBOVESPA                      0106460105220107430000000000000000002002071600000020020716010578000000
0202LOTE PADRAO                   EMBRATEL PARPN *       EBTP4       010VISTA          000000000001600000000017000000000151000000000000000000015600373185000
0202LOTE PADRAO                   TRAN PAULISTPN * EJ    TRPL4       010VISTA          000000000005800000000058000000000550000000000000000000056000014427300
0202LOTE PADRAO                   EMBRATEL PARON *       EBTP3       010VISTA          000000000002700000000027900000000250000000000000000000025000022057400
0202LOTE PADRAO                   TELEMAR     PN * EJ    TNLP4       010VISTA          000000000026800000000271000000002640000000000000000000265000228892000
0202LOTE PADRAO                   ITAUBANCO   PN * EJ    ITAU4       010VISTA          000000000160000000001620000000015900000000000000000001615000007426800
0202LOTE PADRAO                   TELEMAR     ON * EJ    TNLP3       010VISTA          000000000021000000000216000000002060000000000000000000208000030717000
0202LOTE PADRAO                   SID NACIONALON *       CSNA3       010VISTA          000000000045500000000472000000004550000000000000000000468000014762300
0202LOTE PADRAO                   TELE LEST CLPN *       TLCP4       010VISTA          000000000000550000000005600000000051000000000000000000005100199490000
0202LOTE PADRAO                   CRT CELULAR PNA* EJ    CRTP5       010VISTA          000000000382000000003900000000037900000000000000000003870000000479700
0202LOTE PADRAO                   IPIRANGA PETPN *       PTIP4       010VISTA          000000000012500000000130000000001250000000000000000000130000000883400
0202LOTE PADRAO                   BRASIL T PARPN *       BRTP4       010VISTA          000000000016400000000164000000001560000000000000000000161000068224700
0202LOTE PADRAO                   BRASIL T PARON *       BRTP3       010VISTA          000000000013600000000136000000001310000000000000000000132000022753800
0202LOTE PADRAO                   KLABIN S/A  PN         KLBN4       010VISTA          000000000000840000000008500000000084000000000000000000008400000008800
0202LOTE PADRAO                   ACESITA     PN *       ACES4       010VISTA          000000000000590000000006000000000058000000000000000000005900068214900
0202LOTE PADRAO                   PETROBRAS   PN         PETR4       010VISTA          000000000044700000000450000000004400000000000000000000450000000093100
0202LOTE PADRAO                   ELETROBRAS  PNB*       ELET6       010VISTA          000000000023800000000241000000002330000000000000000000233000026339300
0202LOTE PADRAO                   PETROBRAS   ON         PETR3       010VISTA          000000000048250000000490000000004800000000000000000000490000000025700
0202LOTE PADRAO                   COMGAS      PNA*       CGAS5       010VISTA          000000000058100000000581000000005520000000000000000000570000000468000
0202LOTE PADRAO                   SOUZA CRUZ  ON EJ      CRUZ3       010VISTA          000000000014600000000150000000001450000000000000000000150000000007600
0202LOTE PADRAO                   ELETROBRAS  ON *       ELET3       010VISTA          000000000026500000000266000000002580000000000000000000260000010131800
0202LOTE PADRAO                   CELESC      PNB        CLSC6       010VISTA          000000000000570000000005700000000055000000000000000000005600000373200
0202LOTE PADRAO                   BRADESCO    PN * EJ    BBDC4       010VISTA          000000000010900000000110000000001080000000000000000000109000132844000
0202LOTE PADRAO                   CESP        PN *       CESP4       010VISTA          000000000008300000000083000000000790000000000000000000079000006590200
0202LOTE PADRAO                   LIGHT       ON *       LIGH3       010VISTA          000000000086900000000869000000008400000000000000000000840000000037700
0202LOTE PADRAO                   TELESP CL PAPN *       TSPP4       010VISTA          000000000003480000000035200000000340000000000000000000034000247715000
0202LOTE PADRAO                   VALE R DOCE PNA        VALE5       010VISTA          000000000068500000000695000000006850000000000000000000693000000029500
0202LOTE PADRAO                   COPEL       PNB*       CPLE6       010VISTA          000000000011800000000119000000001150000000000000000000117000058318400
0202LOTE PADRAO                   VALE R DOCE ON         VALE3       010VISTA          000000000077200000000792500000007720000000000000000000782000000013700
0202LOTE PADRAO                   ARACRUZ     PNB        ARCZ6       010VISTA          000000000005250000000053000000000520000000000000000000052500000030100
0202LOTE PADRAO                   TELEMIG PARTPN *       TMCP4       010VISTA          000000000003100000000032500000000290000000000000000000030000244748000
0202LOTE PADRAO                   BRASIL TELECPN *       BRTO4       010VISTA          000000000011100000000112500000001090000000000000000000111000026998100
0202LOTE PADRAO                   SABESP      ON *       SBSP3       010VISTA          000000000096000000000960000000009400000000000000000000940000001284500
0202LOTE PADRAO                   BRASKEM     PNA*       BRKM5       010VISTA          000000000385000000004000000000038000000000000000000003871000000119400
0202LOTE PADRAO                   EMBRAER     PN EJ      EMBR4       010VISTA          000000000014500000000149000000001450000000000000000000146000000097800
0202LOTE PADRAO                   TELESP      PN * EJ    TLPP4       010VISTA          000000000032900000000329000000003160000000000000000000318000007412700
0202LOTE PADRAO                   EMBRAER     ON EJ      EMBR3       010VISTA          000000000013400000000135000000001325000000000000000000133000000007600
0202LOTE PADRAO                   AMBEV       PN *       AMBV4       010VISTA          000000000441000000004466000000044040000000000000000004440000000403300
0202LOTE PADRAO                   USIMINAS    PNA        USIM5       010VISTA          000000000006100000000062000000000590000000000000000000059000000035800
0202LOTE PADRAO                   ELETROPAULO PN *       ELPL4       010VISTA          000000000043000000000435000000004220000000000000000000430000002735600
0202LOTE PADRAO                   TELE NORD CLPN *       TNEP4       010VISTA          000000000002800000000028000000000273000000000000000000027000078600600
0202LOTE PADRAO                   CEMIG       PN * EJ    CMIG4       010VISTA          000000000029600000000301000000002880000000000000000000291000028106800
0202LOTE PADRAO                   TELE CL SUL PN * EJ    TCSL4       010VISTA          000000000003270000000032700000000300000000000000000000031000073122300
0202LOTE PADRAO                   TRACTEBEL   ON *       TBLE3       010VISTA          000000000004000000000040000000000380000000000000000000040000006245000
0202LOTE PADRAO                   CEMIG       ON * EJ    CMIG3       010VISTA          000000000028000000000284000000002780000000000000000000284000000192300
0202LOTE PADRAO                   TELE CL SUL ON * EJ    TCSL3       010VISTA          000000000002600000000026000000000230000000000000000000024000022707900
0202LOTE PADRAO                   ITAUSA      PN         ITSA4       010VISTA          000000000001800000000018000000000180000000000000000000018000000477400
0202LOTE PADRAO                   V C P       PN *       VCPA4       010VISTA          000000000093000000000943000000009200000000000000000000943000001598700
0202LOTE PADRAO                   SID TUBARAO PN *       CSTB4       010VISTA          000000000026500000000275000000002650000000000000000000275000009232100
0202LOTE PADRAO                   BRADESPAR   PN *       BRAP4       010VISTA          000000000000500000000005100000000049000000000000000000004900059839800
0202LOTE PADRAO                   NET         PN         PLIM4       010VISTA          000000000001800000000018000000000160000000000000000000016000000206900
0202LOTE PADRAO                   TELE CTR OESPN * EJ    TCOC4       010VISTA          000000000004200000000042500000000370000000000000000000039600167700000
0202LOTE PADRAO                   TELEMAR N L PNA* EJ    TMAR5       010VISTA          000000000047800000000478000000004650000000000000000000466000007050200
0202LOTE PADRAO                   GERDAU      PN * EJ    GGBR4       010VISTA          000000000028900000000290000000002800000000000000000000288000015074800
0202LOTE PADRAO                   BRASIL      ON *       BBAS3       010VISTA          000000000010500000000108000000001030000000000000000000105000007148900
