00BDIN9999BOVESPA 99992002072920020729
0101IBOVESPA                      0092510092400096730000000000000000002002072900000020020729009240000000
0202LOTE PADRAO                   EMBRATEL PARPN *       EBTP4       010VISTA          000000000001690000000017000000000150000000000000000000015000384657000
0202LOTE PADRAO                   TRAN PAULISTPN * EJ    TRPL4       010VISTA          000000000005100000000056000000000500000000000000000000054000014679600
0202LOTE PADRAO                   EMBRATEL PARON *       EBTP3       010VISTA          000000000003000000000030000000000250000000000000000000025000040053900
0202LOTE PADRAO                   TELEMAR     PN * EJ    TNLP4       010VISTA          000000000022000000000231000000002160000000000000000000218000304778000
0202LOTE PADRAO                   ITAUBANCO   PN * EJ    ITAU4       010VISTA          000000000128500000001315000000012200000000000000000001230000055171900
0202LOTE PADRAO                   TELEMAR     ON * EJ    TNLP3       010VISTA          000000000018000000000183000000001710000000000000000000176000010987000
0202LOTE PADRAO                   SID NACIONALON *       CSNA3       010VISTA          000000000044800000000453000000004250000000000000000000425000022757300
0202LOTE PADRAO                   TELE LEST CLPN *       TLCP4       010VISTA          000000000000390000000004100000000038000000000000000000004000216051000
0202LOTE PADRAO                   CRT CELULAR PNA* EJ    CRTP5       010VISTA          000000000375000000004000000000037000000000000000000003780000000461400
0202LOTE PADRAO                   IPIRANGA PETPN *       PTIP4       010VISTA          000000000011500000000120000000001090000000000000000000109000007040200
0202LOTE PADRAO                   BRASIL T PARPN *       BRTP4       010VISTA          000000000014000000000150000000001370000000000000000000138000104840000
0202LOTE PADRAO                   BRASIL T PARON *       BRTP3       010VISTA          000000000012000000000134000000001200000000000000000000125000012570700
0202LOTE PADRAO                   KLABIN S/A  PN         KLBN4       010VISTA          000000000000810000000008300000000077000000000000000000007700000075600
0202LOTE PADRAO                   ACESITA     PN *       ACES4       010VISTA          000000000000600000000006200000000058000000000000000000006000167807000
0202LOTE PADRAO                   PETROBRAS   PN         PETR4       010VISTA          000000000040000000000402500000003850000000000000000000385000000208100
0202LOTE PADRAO                   ELETROBRAS  PNB*       ELET6       010VISTA          000000000020750000000211000000001980000000000000000000198000057941400
0202LOTE PADRAO                   PETROBRAS   ON         PETR3       010VISTA          000000000042100000000429000000004000000000000000000000400000000059300
0202LOTE PADRAO                   COMGAS      PNA*       CGAS5       010VISTA          000000000047200000000540000000004720000000000000000000495000000746500
0202LOTE PADRAO                   SOUZA CRUZ  ON EJ      CRUZ3       010VISTA          000000000013900000000140000000001380000000000000000000138000000031700
0202LOTE PADRAO                   ELETROBRAS  ON *       ELET3       010VISTA          000000000020400000000220000000002000000000000000000000200000036385200
0202LOTE PADRAO                   CELESC      PNB        CLSC6       010VISTA          000000000000540000000005400000000052000000000000000000005400000185400
0202LOTE PADRAO                   BRADESCO    PN * EJ    BBDC4       010VISTA          000000000008900000000090000000000860000000000000000000088000415652000
0202LOTE PADRAO                   CESP        PN *       CESP4       010VISTA          000000000007200000000077000000000700000000000000000000071000014279300
0202LOTE PADRAO                   LIGHT       ON *       LIGH3       010VISTA          000000000074000000000780000000007400000000000000000000775000000318100
0202LOTE PADRAO                   TELESP CL PAPN *       TSPP4       010VISTA          000000000003200000000035000000000320000000000000000000034000266837000
0202LOTE PADRAO                   VALE R DOCE PNA        VALE5       010VISTA          000000000066000000000689000000006490000000000000000000655000000041700
0202LOTE PADRAO                   COPEL       PNB*       CPLE6       010VISTA          000000000009900000000105000000000960000000000000000000096000035417500
0202LOTE PADRAO                   VALE R DOCE ON         VALE3       010VISTA          000000000072000000000745000000007150000000000000000000715000000003100
0202LOTE PADRAO                   ARACRUZ     PNB        ARCZ6       010VISTA          000000000005400000000058000000000540000000000000000000056000000087100
0202LOTE PADRAO                   TELEMIG PARTPN *       TMCP4       010VISTA          000000000002800000000031000000000281000000000000000000028000112165000
0202LOTE PADRAO                   BRASIL TELECPN *       BRTO4       010VISTA          000000000009600000000104000000000950000000000000000000097500090021600
0202LOTE PADRAO                   SABESP      ON *       SBSP3       010VISTA          000000000088900000000900000000008550000000000000000000857000002053700
0202LOTE PADRAO                   BRASKEM     PNA*       BRKM5       010VISTA          000000000368000000003830000000035500000000000000000003600000000177700
0202LOTE PADRAO                   EMBRAER     PN EJ      EMBR4       010VISTA          000000000013800000000149000000001380000000000000000000145000000166000
0202LOTE PADRAO                   TELESP      PN * EJ    TLPP4       010VISTA          000000000031500000000330000000003100000000000000000000320000019125400
0202LOTE PADRAO                   EMBRAER     ON EJ      EMBR3       010VISTA          000000000012500000000138000000001250000000000000000000134000000017900
0202LOTE PADRAO                   AMBEV       PN *       AMBV4       010VISTA          000000000408000000004123000000039700000000000000000004000000004744100
0202LOTE PADRAO                   USIMINAS    PNA        USIM5       010VISTA          000000000005500000000058000000000530000000000000000000053000000067800
0202LOTE PADRAO                   ELETROPAULO PN *       ELPL4       010VISTA          000000000030000000000315000000002800000000000000000000281000007221900
0202LOTE PADRAO                   TELE NORD CLPN *       TNEP4       010VISTA          000000000002500000000027000000000240000000000000000000025200161408000
0202LOTE PADRAO                   CEMIG       PN * EJ    CMIG4       010VISTA          000000000025300000000260000000002460000000000000000000246000067423600
0202LOTE PADRAO                   TELE CL SUL PN * EJ    TCSL4       010VISTA          000000000002810000000030000000000270000000000000000000029000100119000
0202LOTE PADRAO                   TRACTEBEL   ON *       TBLE3       010VISTA          000000000004100000000045000000000410000000000000000000041000020825100
0202LOTE PADRAO                   CEMIG       ON * EJ    CMIG3       010VISTA          000000000025000000000257000000002450000000000000000000246000001287100
0202LOTE PADRAO                   TELE CL SUL ON * EJ    TCSL3       010VISTA          000000000002270000000025200000000227000000000000000000024000028148500
0202LOTE PADRAO                   ITAUSA      PN         ITSA4       010VISTA          000000000001500000000016000000000155000000000000000000015500000562700
0202LOTE PADRAO                   V C P       PN *       VCPA4       010VISTA          000000000094000000001010000000009350000000000000000000965000004840000
0202LOTE PADRAO                   SID TUBARAO PN *       CSTB4       010VISTA          000000000027200000000273000000002600000000000000000000271000005802400
0202LOTE PADRAO                   BRADESPAR   PN *       BRAP4       010VISTA          000000000000470000000005000000000046000000000000000000004800177844000
0202LOTE PADRAO                   NET         PN         PLIM4       010VISTA          000000000000900000000010000000000087000000000000000000008700000359200
0202LOTE PADRAO                   TELE CTR OESPN * EJ    TCOC4       010VISTA          000000000003700000000038000000000370000000000000000000037000131200000
0202LOTE PADRAO                   TELEMAR N L PNA* EJ    TMAR5       010VISTA          000000000038900000000399000000003740000000000000000000380000022755000
0202LOTE PADRAO                   GERDAU      PN * EJ    GGBR4       010VISTA          000000000027000000000281000000002660000000000000000000268000032687800
0202LOTE PADRAO                   BRASIL      ON *       BBAS3       010VISTA          000000000009000000000094000000000880000000000000000000090000003893700
