00BDIN9999BOVESPA 99992002061720020617
0101IBOVESPA                      0117050117050119550000000000000000002002061700000020020617011937000000
0202LOTE PADRAO                   EMBRATEL PARPN *       EBTP4       010VISTA          000000000003730000000038100000000360000000000000000000037300147196000
0202LOTE PADRAO                   TRAN PAULISTPN * EJ    TRPL4       010VISTA          000000000006200000000064000000000620000000000000000000064000004350000
0202LOTE PADRAO                   EMBRATEL PARON *       EBTP3       010VISTA          000000000005200000000054000000000510000000000000000000053000012995000
0202LOTE PADRAO                   TELEMAR     PN * EJ    TNLP4       010VISTA          000000000030000000000301000000002950000000000000000000299000376039000
0202LOTE PADRAO                   ITAUBANCO   PN * EJ    ITAU4       010VISTA          000000000157800000001585000000015550000000000000000001580000006363200
0202LOTE PADRAO                   TELEMAR     ON * EJ    TNLP3       010VISTA          000000000024300000000251000000002430000000000000000000251000005761800
0202LOTE PADRAO                   SID NACIONALON *       CSNA3       010VISTA          000000000044800000000458000000004450000000000000000000455000005926200
0202LOTE PADRAO                   TELE LEST CLPN *       TLCP4       010VISTA          000000000000640000000006700000000064000000000000000000006600093597300
0202LOTE PADRAO                   CRT CELULAR PNA* EJ    CRTP5       010VISTA          000000000413300000004150000000040000000000000000000004150000000285400
0202LOTE PADRAO                   IPIRANGA PETPN *       PTIP4       010VISTA          000000000013000000000136000000001300000000000000000000133000000631000
0202LOTE PADRAO                   BRASIL T PARPN *       BRTP4       010VISTA          000000000016000000000160000000001570000000000000000000159000046243700
0202LOTE PADRAO                   BRASIL T PARON *       BRTP3       010VISTA          000000000014500000000145000000001430000000000000000000145000004152100
0202LOTE PADRAO                   KLABIN S/A  PN         KLBN4       010VISTA          000000000001000000000010000000000097000000000000000000010000000077400
0202LOTE PADRAO                   ACESITA     PN *       ACES4       010VISTA          000000000000670000000006800000000066000000000000000000006800067614000
0202LOTE PADRAO                   PETROBRAS   PN         PETR4       010VISTA          000000000049900000000502000000004940000000000000000000496000000090300
0202LOTE PADRAO                   ELETROBRAS  PNB*       ELET6       010VISTA          000000000026500000000271000000002630000000000000000000268000041340800
0202LOTE PADRAO                   PETROBRAS   ON         PETR3       010VISTA          000000000054000000000542000000005360000000000000000000537000000056800
0202LOTE PADRAO                   COMGAS      PNA*       CGAS5       010VISTA          000000000065000000000674000000006500000000000000000000670000000442800
0202LOTE PADRAO                   SOUZA CRUZ  ON EJ      CRUZ3       010VISTA          000000000015200000000157000000001520000000000000000000154000000008800
0202LOTE PADRAO                   ELETROBRAS  ON *       ELET3       010VISTA          000000000030500000000311000000003030000000000000000000310000023500400
0202LOTE PADRAO                   CELESC      PNB        CLSC6       010VISTA          000000000000520000000005300000000051000000000000000000005300000088200
0202LOTE PADRAO                   BRADESCO    PN * EJ    BBDC4       010VISTA          000000000011500000000118000000001150000000000000000000117500100497000
0202LOTE PADRAO                   CESP        PN *       CESP4       010VISTA          000000000010000000000101000000000980000000000000000000101000004119900
0202LOTE PADRAO                   LIGHT       ON *       LIGH3       010VISTA          000000000093000000000945000000009200000000000000000000944000000139400
0202LOTE PADRAO                   TELESP CL PAPN *       TSPP4       010VISTA          000000000004500000000048000000000450000000000000000000048000152569000
0202LOTE PADRAO                   VALE R DOCE PNA        VALE5       010VISTA          000000000072000000000720000000007000000000000000000000703000000023200
0202LOTE PADRAO                   COPEL       PNB*       CPLE6       010VISTA          000000000013100000000136000000001310000000000000000000135000023823500
0202LOTE PADRAO                   VALE R DOCE ON         VALE3       010VISTA          000000000076000000000764000000007550000000000000000000755000000014400
0202LOTE PADRAO                   ARACRUZ     PNB        ARCZ6       010VISTA          000000000005600000000056000000000550000000000000000000056000000040800
0202LOTE PADRAO                   TELEMIG PARTPN *       TMCP4       010VISTA          000000000002810000000029400000000281000000000000000000028000052001000
0202LOTE PADRAO                   BRASIL TELECPN *       BRTO4       010VISTA          000000000011500000000115000000001110000000000000000000114000176578000
0202LOTE PADRAO                   SABESP      ON *       SBSP3       010VISTA          000000000104000000001060000000010390000000000000000001050000001952400
0202LOTE PADRAO                   BRASKEM     PNA*       BRKM5       010VISTA          000000000409900000004299000000040980000000000000000004262000000070100
0202LOTE PADRAO                   EMBRAER     PN EJ      EMBR4       010VISTA          000000000015000000000153000000001490000000000000000000153000000046800
0202LOTE PADRAO                   TELESP      PN * EJ    TLPP4       010VISTA          000000000035000000000350000000003420000000000000000000346000003216700
0202LOTE PADRAO                   EMBRAER     ON EJ      EMBR3       010VISTA          000000000013000000000134000000001300000000000000000000134000000008700
0202LOTE PADRAO                   AMBEV       PN *       AMBV4       010VISTA          000000000445000000004471000000044350000000000000000004450000000708800
0202LOTE PADRAO                   USIMINAS    PNA        USIM5       010VISTA          000000000007300000000075000000000730000000000000000000075000000041000
0202LOTE PADRAO                   ELETROPAULO PN *       ELPL4       010VISTA          000000000045200000000479000000004490000000000000000000479000001131000
0202LOTE PADRAO                   TELE NORD CLPN *       TNEP4       010VISTA          000000000002300000000025000000000230000000000000000000025200110901000
0202LOTE PADRAO                   CEMIG       PN * EJ    CMIG4       010VISTA          000000000031900000000330000000003150000000000000000000330000036010000
0202LOTE PADRAO                   TELE CL SUL PN * EJ    TCSL4       010VISTA          000000000002700000000029000000000270000000000000000000029000037536100
0202LOTE PADRAO                   TRACTEBEL   ON *       TBLE3       010VISTA          000000000003900000000040000000000390000000000000000000039000005285800
0202LOTE PADRAO                   CEMIG       ON * EJ    CMIG3       010VISTA          000000000030900000000310000000003060000000000000000000308000000252000
0202LOTE PADRAO                   TELE CL SUL ON * EJ    TCSL3       010VISTA          000000000002400000000025000000000240000000000000000000025000009008100
0202LOTE PADRAO                   ITAUSA      PN         ITSA4       010VISTA          000000000001900000000019000000000180000000000000000000019000000156800
0202LOTE PADRAO                   V C P       PN *       VCPA4       010VISTA          000000000104900000001079000000010300000000000000000001034000002732400
0202LOTE PADRAO                   SID TUBARAO PN *       CSTB4       010VISTA          000000000028400000000285000000002830000000000000000000283000001921400
0202LOTE PADRAO                   BRADESPAR   PN *       BRAP4       010VISTA          000000000000610000000006300000000061000000000000000000006200069041000
0202LOTE PADRAO                   NET         PN         PLIM4       010VISTA          000000000003600000000036000000000320000000000000000000033000000185300
0202LOTE PADRAO                   TELE CTR OESPN * EJ    TCOC4       010VISTA          000000000003800000000039000000000370000000000000000000038000083652600
0202LOTE PADRAO                   TELEMAR N L PNA* EJ    TMAR5       010VISTA          000000000051000000000510000000005000000000000000000000508000012750200
0202LOTE PADRAO                   GERDAU      PN * EJ    GGBR4       010VISTA          000000000030000000000306000000002980000000000000000000306000015037700
0202LOTE PADRAO                   BRASIL      ON *       BBAS3       010VISTA          000000000010800000000114000000001060000000000000000000110000004000800
