00BDIN9999BOVESPA 99992002051420020514
0101IBOVESPA                      0119990119990123270000000000000000002002051400000020020514012204000000
0202LOTE PADRAO                   EMBRATEL PARPN *       EBTP4       010VISTA          000000000004500000000046000000000425000000000000000000042500389015000
0202LOTE PADRAO                   TRAN PAULISTPN * EJ    TRPL4       010VISTA          000000000005960000000063000000000590000000000000000000062000014553600
0202LOTE PADRAO                   EMBRATEL PARON *       EBTP3       010VISTA          000000000006500000000065000000000590000000000000000000059000084619000
0202LOTE PADRAO                   TELEMAR     PN * EJ    TNLP4       010VISTA          000000000028200000000293000000002820000000000000000000290000382314000
0202LOTE PADRAO                   ITAUBANCO   PN * EJ    ITAU4       010VISTA          000000000170000000001720000000016950000000000000000001695000010128400
0202LOTE PADRAO                   TELEMAR     ON * EJ    TNLP3       010VISTA          000000000024300000000253000000002430000000000000000000248000015096100
0202LOTE PADRAO                   SID NACIONALON *       CSNA3       010VISTA          000000000044400000000458000000004430000000000000000000458000026701700
0202LOTE PADRAO                   TELE LEST CLPN *       TLCP4       010VISTA          000000000000700000000007000000000068000000000000000000006900337342000
0202LOTE PADRAO                   CRT CELULAR PNA* EJ    CRTP5       010VISTA          000000000400000000004090000000039500000000000000000004050000001196500
0202LOTE PADRAO                   IPIRANGA PETPN *       PTIP4       010VISTA          000000000014300000000150000000001400000000000000000000140000001047300
0202LOTE PADRAO                   BRASIL T PARPN *       BRTP4       010VISTA          000000000016200000000164000000001600000000000000000000161000055518800
0202LOTE PADRAO                   BRASIL T PARON *       BRTP3       010VISTA          000000000015000000000155000000001480000000000000000000151000006478900
0202LOTE PADRAO                   KLABIN S/A  PN         KLBN4       010VISTA          000000000001000000000010000000000100000000000000000000010000000025500
0202LOTE PADRAO                   ACESITA     PN *       ACES4       010VISTA          000000000000660000000006900000000065000000000000000000006800128299000
0202LOTE PADRAO                   PETROBRAS   PN         PETR4       010VISTA          000000000051700000000528000000005170000000000000000000523000000086500
0202LOTE PADRAO                   ELETROBRAS  PNB*       ELET6       010VISTA          000000000030000000000302500000002880000000000000000000293000054377300
0202LOTE PADRAO                   PETROBRAS   ON         PETR3       010VISTA          000000000055000000000563000000005470000000000000000000550000000044300
0202LOTE PADRAO                   COMGAS      PNA*       CGAS5       010VISTA          000000000075200000000800000000007520000000000000000000774000002114200
0202LOTE PADRAO                   SOUZA CRUZ  ON EJ      CRUZ3       010VISTA          000000000016300000000163000000001610000000000000000000161000000005400
0202LOTE PADRAO                   ELETROBRAS  ON *       ELET3       010VISTA          000000000033000000000345000000003270000000000000000000328000017907300
0202LOTE PADRAO                   CELESC      PNB        CLSC6       010VISTA          000000000000540000000005500000000054000000000000000000005400000102100
0202LOTE PADRAO                   BRADESCO    PN * EJ    BBDC4       010VISTA          000000000012600000000127000000001220000000000000000000125000101844000
0202LOTE PADRAO                   CESP        PN *       CESP4       010VISTA          000000000009900000000105000000000990000000000000000000103000009556700
0202LOTE PADRAO                   LIGHT       ON *       LIGH3       010VISTA          000000000093600000000970000000009360000000000000000000950000000586900
0202LOTE PADRAO                   TELESP CL PAPN *       TSPP4       010VISTA          000000000005300000000055000000000530000000000000000000054000188524000
0202LOTE PADRAO                   VALE R DOCE PNA        VALE5       010VISTA          000000000069900000000700000000006920000000000000000000695000000026000
0202LOTE PADRAO                   COPEL       PNB*       CPLE6       010VISTA          000000000014300000000146000000001425000000000000000000143000034512200
0202LOTE PADRAO                   VALE R DOCE ON         VALE3       010VISTA          000000000069900000000700000000006970000000000000000000699000000010900
0202LOTE PADRAO                   ARACRUZ     PNB        ARCZ6       010VISTA          000000000005300000000055000000000520000000000000000000055000000019500
0202LOTE PADRAO                   TELEMIG PARTPN *       TMCP4       010VISTA          000000000002500000000026000000000256000000000000000000025000282124000
0202LOTE PADRAO                   BRASIL TELECPN *       BRTO4       010VISTA          000000000011600000000119000000001150000000000000000000117500067137800
0202LOTE PADRAO                   SABESP      ON *       SBSP3       010VISTA          000000000114800000001148000000011300000000000000000001130000042090100
0202LOTE PADRAO                   BRASKEM     PNA*       BRKM5       010VISTA          000000000468000000004949000000046800000000000000000004830000000063700
0202LOTE PADRAO                   EMBRAER     PN EJ      EMBR4       010VISTA          000000000013300000000141000000001330000000000000000000141000000114700
0202LOTE PADRAO                   TELESP      PN * EJ    TLPP4       010VISTA          000000000033000000000338000000003290000000000000000000332000014163000
0202LOTE PADRAO                   EMBRAER     ON EJ      EMBR3       010VISTA          000000000012000000000128000000001200000000000000000000127000000018500
0202LOTE PADRAO                   AMBEV       PN *       AMBV4       010VISTA          000000000488700000004954000000048870000000000000000004950000002905600
0202LOTE PADRAO                   USIMINAS    PNA        USIM5       010VISTA          000000000007000000000072500000000700000000000000000000071000000071700
0202LOTE PADRAO                   ELETROPAULO PN *       ELPL4       010VISTA          000000000052000000000550000000005190000000000000000000545000003261800
0202LOTE PADRAO                   TELE NORD CLPN *       TNEP4       010VISTA          000000000002400000000024000000000230000000000000000000023000186352000
0202LOTE PADRAO                   CEMIG       PN * EJ    CMIG4       010VISTA          000000000031300000000320000000003110000000000000000000313000094957200
0202LOTE PADRAO                   TELE CL SUL PN * EJ    TCSL4       010VISTA          000000000002900000000030000000000280000000000000000000029400066805200
0202LOTE PADRAO                   TRACTEBEL   ON *       TBLE3       010VISTA          000000000004250000000043000000000420000000000000000000042000005944900
0202LOTE PADRAO                   CEMIG       ON * EJ    CMIG3       010VISTA          000000000030500000000310000000003030000000000000000000309000001379900
0202LOTE PADRAO                   TELE CL SUL ON * EJ    TCSL3       010VISTA          000000000002500000000026000000000254000000000000000000026000019290900
0202LOTE PADRAO                   ITAUSA      PN         ITSA4       010VISTA          000000000002100000000021000000000210000000000000000000021000000269800
0202LOTE PADRAO                   V C P       PN *       VCPA4       010VISTA          000000000097000000001000000000009600000000000000000001000000002921200
0202LOTE PADRAO                   SID TUBARAO PN *       CSTB4       010VISTA          000000000027500000000280000000002730000000000000000000280000017397200
0202LOTE PADRAO                   BRADESPAR   PN *       BRAP4       010VISTA          000000000000610000000006300000000061000000000000000000006300159750000
0202LOTE PADRAO                   NET         PN         PLIM4       010VISTA          000000000000290000000003300000000029000000000000000000003100002099600
0202LOTE PADRAO                   TELE CTR OESPN * EJ    TCOC4       010VISTA          000000000004300000000044000000000420000000000000000000043000232741000
0202LOTE PADRAO                   TELEMAR N L PNA* EJ    TMAR5       010VISTA          000000000049500000000510000000004950000000000000000000505000021725100
0202LOTE PADRAO                   GERDAU      PN * EJ    GGBR4       010VISTA          000000000029900000000310000000002990000000000000000000306000007229500
0202LOTE PADRAO                   BRASIL      ON *       BBAS3       010VISTA          000000000012000000000124000000001200000000000000000000120000003762700
