00BDIN9999BOVESPA 99992002011620020116
0101IBOVESPA                      0130060129410131860000000000000000002002011600000020020116013084000000
0202LOTE PADRAO                   EMBRATEL PARPN *       EBTP4       010VISTA          000000000010100000000104000000000990000000000000000000100000106077000
0202LOTE PADRAO                   EMBRATEL PARON *       EBTP3       010VISTA          000000000012000000000120000000001140000000000000000000116000013628800
0202LOTE PADRAO                   TRAN PAULISTPN * EJ    TRPL4       010VISTA          000000000006700000000067000000000650000000000000000000066000014601700
0202LOTE PADRAO                   TELEMAR     PN * EJ    TNLP4       010VISTA          000000000033500000000342000000003330000000000000000000341000195952000
0202LOTE PADRAO                   ITAUBANCO   PN * EJ    ITAU4       010VISTA          000000000173300000001750000000017280000000000000000001739000012987400
0202LOTE PADRAO                   TELEMAR     ON * EJ    TNLP3       010VISTA          000000000029000000000301000000002900000000000000000000301000022143800
0202LOTE PADRAO                   SID NACIONALON *       CSNA3       010VISTA          000000000043000000000430000000004050000000000000000000417500009660000
0202LOTE PADRAO                   TELE LEST CLPN *       TLCP4       010VISTA          000000000000900000000009100000000089000000000000000000009000079529300
0202LOTE PADRAO                   CRT CELULAR PNA* EJ    CRTP5       010VISTA          000000000486000000004860000000046000000000000000000004700000001192100
0202LOTE PADRAO                   IPIRANGA PETPN *       PTIP4       010VISTA          000000000013000000000133000000001260000000000000000000128000002670000
0202LOTE PADRAO                   BRASIL T PARPN *       BRTP4       010VISTA          000000000017500000000181000000001750000000000000000000178000084422000
0202LOTE PADRAO                   BRASIL T PARON *       BRTP3       010VISTA          000000000017600000000179000000001730000000000000000000176000022754600
0202LOTE PADRAO                   KLABIN S/A  PN         KLBN4       010VISTA          000000000001100000000011000000000110000000000000000000011000000023100
0202LOTE PADRAO                   ACESITA     PN *       ACES4       010VISTA          000000000000700000000007100000000068000000000000000000007000164883000
0202LOTE PADRAO                   PETROBRAS   PN         PETR4       010VISTA          000000000048000000000485000000004750000000000000000000481000000064700
0202LOTE PADRAO                   ELETROBRAS  PNB*       ELET6       010VISTA          000000000025300000000266000000002510000000000000000000263000100080000
0202LOTE PADRAO                   PETROBRAS   ON         PETR3       010VISTA          000000000049000000000497000000004850000000000000000000492000000023100
0202LOTE PADRAO                   COMGAS      PNA*       CGAS5       010VISTA          000000000086100000000865000000008450000000000000000000860000001128700
0202LOTE PADRAO                   SOUZA CRUZ  ON EJ      CRUZ3       010VISTA          000000000014100000000145000000001390000000000000000000143000000004600
0202LOTE PADRAO                   ELETROBRAS  ON *       ELET3       010VISTA          000000000029500000000300000000002900000000000000000000293000030122000
0202LOTE PADRAO                   CELESC      PNB        CLSC6       010VISTA          000000000000480000000005300000000048000000000000000000005300001376000
0202LOTE PADRAO                   BRADESCO    PN * EJ    BBDC4       010VISTA          000000000012200000000123000000001200000000000000000000122500182392000
0202LOTE PADRAO                   CESP        PN *       CESP4       010VISTA          000000000013500000000141000000001350000000000000000000140000012690800
0202LOTE PADRAO                   LIGHT       ON *       LIGH3       010VISTA          000000000120000000001250000000012000000000000000000001239000000646700
0202LOTE PADRAO                   TELESP CL PAPN *       TSPP4       010VISTA          000000000007700000000080000000000760000000000000000000077000264610000
0202LOTE PADRAO                   VALE R DOCE PNA        VALE5       010VISTA          000000000051100000000520000000005070000000000000000000516000000035900
0202LOTE PADRAO                   COPEL       PNB*       CPLE6       010VISTA          000000000015400000000163000000001540000000000000000000158000035764000
0202LOTE PADRAO                   VALE R DOCE ON         VALE3       010VISTA          000000000050900000000512000000005050000000000000000000505000000004100
0202LOTE PADRAO                   ARACRUZ     PNB        ARCZ6       010VISTA          000000000004100000000042500000000400000000000000000000041000000021200
0202LOTE PADRAO                   TELEMIG PARTPN *       TMCP4       010VISTA          000000000004000000000040000000000394000000000000000000039000065884000
0202LOTE PADRAO                   BRASIL TELECPN *       BRTO4       010VISTA          000000000012500000000128000000001240000000000000000000126000058763300
0202LOTE PADRAO                   SABESP      ON *       SBSP3       010VISTA          000000000122000000001275000000012200000000000000000001264000000896000
0202LOTE PADRAO                   BRASKEM     PNA*       BRKM5       010VISTA          000000000533000000005670000000052300000000000000000005501000000287100
0202LOTE PADRAO                   EMBRAER     PN EJ      EMBR4       010VISTA          000000000012500000000126000000001230000000000000000000125000000026200
0202LOTE PADRAO                   TELESP      PN * EJ    TLPP4       010VISTA          000000000028600000000298000000002860000000000000000000295000008778700
0202LOTE PADRAO                   EMBRAER     ON EJ      EMBR3       010VISTA          000000000012000000000121000000001160000000000000000000121000000014500
0202LOTE PADRAO                   AMBEV       PN *       AMBV4       010VISTA          000000000473500000004829000000047000000000000000000004795000001585300
0202LOTE PADRAO                   USIMINAS    PNA        USIM5       010VISTA          000000000006900000000069000000000675000000000000000000068000000037900
0202LOTE PADRAO                   ELETROPAULO PN *       ELPL4       010VISTA          000000000079000000000819000000007900000000000000000000805000005168900
0202LOTE PADRAO                   TELE NORD CLPN *       TNEP4       010VISTA          000000000003000000000031000000000298000000000000000000029800183813000
0202LOTE PADRAO                   CEMIG       PN * EJ    CMIG4       010VISTA          000000000030000000000325000000003000000000000000000000315000069306200
0202LOTE PADRAO                   TELE CL SUL PN * EJ    TCSL4       010VISTA          000000000003270000000033000000000310000000000000000000032700119147000
0202LOTE PADRAO                   CEMIG       ON * EJ    CMIG3       010VISTA          000000000027000000000295000000002700000000000000000000288000003602300
0202LOTE PADRAO                   TELE CL SUL ON * EJ    TCSL3       010VISTA          000000000002700000000028000000000277000000000000000000027000037858000
0202LOTE PADRAO                   ITAUSA      PN         ITSA4       010VISTA          000000000002100000000021000000000210000000000000000000021000000272400
0202LOTE PADRAO                   V C P       PN *       VCPA4       010VISTA          000000000082000000000830000000008200000000000000000000830000000694700
0202LOTE PADRAO                   SID TUBARAO PN *       CSTB4       010VISTA          000000000022200000000226000000002160000000000000000000219000007110100
0202LOTE PADRAO                   BRADESPAR   PN *       BRAP4       010VISTA          000000000000750000000007800000000075000000000000000000007600139421000
0202LOTE PADRAO                   NET         PN         PLIM4       010VISTA          000000000000760000000007700000000073000000000000000000007500000716400
0202LOTE PADRAO                   TELE CTR OESPN * EJ    TCOC4       010VISTA          000000000004900000000050000000000490000000000000000000049000149480000
0202LOTE PADRAO                   TELEMAR N L PNA* EJ    TMAR5       010VISTA          000000000056000000000565000000005510000000000000000000560000013037100
0202LOTE PADRAO                   GERDAU      PN * EJ    GGBR4       010VISTA          000000000025100000000251000000002330000000000000000000245000010363600
0202LOTE PADRAO                   BRASIL      ON *       BBAS3       010VISTA          000000000010000000000104000000000980000000000000000000103000010657600
