00BDIN9999BOVESPA 99992002092720020927
0101IBOVESPA                      0092000087030092020000000000000000002002092700000020020927008716000000
0202LOTE PADRAO                   EMBRATEL PARPN *       EBTP4       010VISTA          000000000002400000000024000000000220000000000000000000022000289385000
0202LOTE PADRAO                   TRAN PAULISTPN * EJ    TRPL4       010VISTA          000000000005200000000052000000000500000000000000000000051000011813200
0202LOTE PADRAO                   EMBRATEL PARON *       EBTP3       010VISTA          000000000003000000000030000000000280000000000000000000028000011005700
0202LOTE PADRAO                   TELEMAR     PN * EJ    TNLP4       010VISTA          000000000022900000000231000000002160000000000000000000216000299210000
0202LOTE PADRAO                   ITAUBANCO   PN * EJ    ITAU4       010VISTA          000000000117700000001177000000011450000000000000000001169000012381700
0202LOTE PADRAO                   TELEMAR     ON * EJ    TNLP3       010VISTA          000000000017500000000175000000001620000000000000000000166000024367000
0202LOTE PADRAO                   SID NACIONALON *       CSNA3       010VISTA          000000000034800000000348000000003230000000000000000000335000009602000
0202LOTE PADRAO                   TELE LEST CLPN *       TLCP4       010VISTA          000000000000390000000004000000000038000000000000000000003800100250000
0202LOTE PADRAO                   CRT CELULAR PNA* EJ    CRTP5       010VISTA          000000000335000000003350000000032000000000000000000003250000000283500
0202LOTE PADRAO                   IPIRANGA PETPN *       PTIP4       010VISTA          000000000009600000000096000000000850000000000000000000089000003830100
0202LOTE PADRAO                   BRASIL T PARPN *       BRTP4       010VISTA          000000000017600000000176000000001710000000000000000000173000061040400
0202LOTE PADRAO                   BRASIL T PARON *       BRTP3       010VISTA          000000000013300000000134000000001270000000000000000000128000006377400
0202LOTE PADRAO                   KLABIN S/A  PN         KLBN4       010VISTA          000000000000880000000008800000000082000000000000000000008200000033400
0202LOTE PADRAO                   ACESITA     PN *       ACES4       010VISTA          000000000000620000000006200000000059000000000000000000005900066131800
0202LOTE PADRAO                   PETROBRAS   PN         PETR4       010VISTA          000000000037600000000399000000003590000000000000000000359000000367800
0202LOTE PADRAO                   ELETROBRAS  PNB*       ELET6       010VISTA          000000000017000000000170000000001590000000000000000000159000075536700
0202LOTE PADRAO                   PETROBRAS   ON         PETR3       010VISTA          000000000043250000000432500000003870000000000000000000396000000167400
0202LOTE PADRAO                   COMGAS      PNA*       CGAS5       010VISTA          000000000056000000000560000000005410000000000000000000541000001671000
0202LOTE PADRAO                   SOUZA CRUZ  ON EJ      CRUZ3       010VISTA          000000000015500000000161000000001550000000000000000000156000000013500
0202LOTE PADRAO                   ELETROBRAS  ON *       ELET3       010VISTA          000000000017000000000170000000001590000000000000000000161000033254800
0202LOTE PADRAO                   CELESC      PNB        CLSC6       010VISTA          000000000000540000000005500000000052000000000000000000005500000084200
0202LOTE PADRAO                   BRADESCO    PN * EJ    BBDC4       010VISTA          000000000008000000000081000000000780000000000000000000078000389908000
0202LOTE PADRAO                   CESP        PN *       CESP4       010VISTA          000000000006300000000063000000000600000000000000000000060000004910600
0202LOTE PADRAO                   LIGHT       ON *       LIGH3       010VISTA          000000000059500000000610000000005820000000000000000000582000000149300
0202LOTE PADRAO                   TELESP CL PAPN *       TSPP4       010VISTA          000000000002900000000030000000000270000000000000000000027000304604000
0202LOTE PADRAO                   VALE R DOCE PNA        VALE5       010VISTA          000000000084500000000849000000008340000000000000000000840000000029500
0202LOTE PADRAO                   COPEL       PNB*       CPLE6       010VISTA          000000000008000000000082500000000750000000000000000000075000094731000
0202LOTE PADRAO                   VALE R DOCE ON         VALE3       010VISTA          000000000089500000000895000000008770000000000000000000890000000017000
0202LOTE PADRAO                   ARACRUZ     PNB        ARCZ6       010VISTA          000000000005800000000059000000000580000000000000000000058000000203900
0202LOTE PADRAO                   TELEMIG PARTPN *       TMCP4       010VISTA          000000000002800000000028000000000260000000000000000000027000089015000
0202LOTE PADRAO                   BRASIL TELECPN *       BRTO4       010VISTA          000000000011100000000111000000001060000000000000000000109000064447500
0202LOTE PADRAO                   SABESP      ON *       SBSP3       010VISTA          000000000081700000000819000000007300000000000000000000745000003961200
0202LOTE PADRAO                   BRASKEM     PNA*       BRKM5       010VISTA          000000000246000000002499000000023000000000000000000002300000000199700
0202LOTE PADRAO                   EMBRAER     PN EJ      EMBR4       010VISTA          000000000013400000000135000000001310000000000000000000131000000085800
0202LOTE PADRAO                   TELESP      PN * EJ    TLPP4       010VISTA          000000000031500000000315000000003000000000000000000000303000009792300
0202LOTE PADRAO                   EMBRAER     ON EJ      EMBR3       010VISTA          000000000012300000000125000000001210000000000000000000121000000034000
0202LOTE PADRAO                   AMBEV       PN *       AMBV4       010VISTA          000000000440000000004470000000043800000000000000000004380000001926200
0202LOTE PADRAO                   USIMINAS    PNA        USIM5       010VISTA          000000000004800000000048000000000460000000000000000000046000000044800
0202LOTE PADRAO                   ELETROPAULO PN *       ELPL4       010VISTA          000000000026300000000263000000002410000000000000000000243000002447600
0202LOTE PADRAO                   TELE NORD CLPN *       TNEP4       010VISTA          000000000002400000000024800000000240000000000000000000024000038484100
0202LOTE PADRAO                   CEMIG       PN * EJ    CMIG4       010VISTA          000000000022300000000225000000002150000000000000000000217500027468600
0202LOTE PADRAO                   TELE CL SUL PN * EJ    TCSL4       010VISTA          000000000002560000000027100000000250000000000000000000025400041909200
0202LOTE PADRAO                   TRACTEBEL   ON *       TBLE3       010VISTA          000000000003900000000039800000000380000000000000000000039800014711700
0202LOTE PADRAO                   CEMIG       ON * EJ    CMIG3       010VISTA          000000000021100000000211000000002040000000000000000000204000000160000
0202LOTE PADRAO                   TELE CL SUL ON * EJ    TCSL3       010VISTA          000000000002000000000021000000000200000000000000000000020000013068700
0202LOTE PADRAO                   ITAUSA      PN         ITSA4       010VISTA          000000000001500000000015000000000140000000000000000000014000000377600
0202LOTE PADRAO                   V C P       PN *       VCPA4       010VISTA          000000000105000000001070000000010500000000000000000001065000003600700
0202LOTE PADRAO                   SID TUBARAO PN *       CSTB4       010VISTA          000000000029600000000300000000002900000000000000000000295000032440400
0202LOTE PADRAO                   BRADESPAR   PN *       BRAP4       010VISTA          000000000000440000000004400000000043000000000000000000004300084184000
0202LOTE PADRAO                   NET         PN         PLIM4       010VISTA          000000000000290000000002900000000026000000000000000000002700000805600
0202LOTE PADRAO                   TELE CTR OESPN * EJ    TCOC4       010VISTA          000000000003000000000031000000000290000000000000000000030000059639400
0202LOTE PADRAO                   TELEMAR N L PNA* EJ    TMAR5       010VISTA          000000000041000000000410000000003890000000000000000000394000017849800
0202LOTE PADRAO                   GERDAU      PN * EJ    GGBR4       010VISTA          000000000029400000000294000000002680000000000000000000276000034716300
0202LOTE PADRAO                   BRASIL      ON *       BBAS3       010VISTA          000000000009100000000091000000000800000000000000000000080000044310900
