00BDIN9999BOVESPA 99992002041120020411
0101IBOVESPA                      0134190133850135590000000000000000002002041100000020020411013411000000
0202LOTE PADRAO                   EMBRATEL PARPN *       EBTP4       010VISTA          000000000006700000000069000000000670000000000000000000068000117584000
0202LOTE PADRAO                   TRAN PAULISTPN * EJ    TRPL4       010VISTA          000000000007500000000075000000000730000000000000000000073000009502500
0202LOTE PADRAO                   EMBRATEL PARON *       EBTP3       010VISTA          000000000008600000000086000000000840000000000000000000085000014572900
0202LOTE PADRAO                   TELEMAR     PN * EJ    TNLP4       010VISTA          000000000030800000000315000000003060000000000000000000306000223044000
0202LOTE PADRAO                   ITAUBANCO   PN * EJ    ITAU4       010VISTA          000000000198000000001999000000019500000000000000000001970000019348700
0202LOTE PADRAO                   TELEMAR     ON * EJ    TNLP3       010VISTA          000000000026800000000275000000002680000000000000000000271000015348300
0202LOTE PADRAO                   SID NACIONALON *       CSNA3       010VISTA          000000000044600000000457000000004460000000000000000000456000008373600
0202LOTE PADRAO                   TELE LEST CLPN *       TLCP4       010VISTA          000000000000740000000007500000000071000000000000000000007100092536000
0202LOTE PADRAO                   CRT CELULAR PNA* EJ    CRTP5       010VISTA          000000000450000000004510000000043500000000000000000004450000000147300
0202LOTE PADRAO                   IPIRANGA PETPN *       PTIP4       010VISTA          000000000014800000000149000000001460000000000000000000149000005112200
0202LOTE PADRAO                   BRASIL T PARPN *       BRTP4       010VISTA          000000000018000000000183000000001770000000000000000000178000053508200
0202LOTE PADRAO                   BRASIL T PARON *       BRTP3       010VISTA          000000000017500000000178000000001750000000000000000000176000006362900
0202LOTE PADRAO                   KLABIN S/A  PN         KLBN4       010VISTA          000000000001100000000011000000000100000000000000000000010000000010900
0202LOTE PADRAO                   ACESITA     PN *       ACES4       010VISTA          000000000000770000000007700000000076000000000000000000007600061439500
0202LOTE PADRAO                   PETROBRAS   PN         PETR4       010VISTA          000000000056000000000566000000005530000000000000000000557000000073300
0202LOTE PADRAO                   ELETROBRAS  PNB*       ELET6       010VISTA          000000000036300000000373000000003630000000000000000000368000054395300
0202LOTE PADRAO                   PETROBRAS   ON         PETR3       010VISTA          000000000058800000000592000000005820000000000000000000585000000051100
0202LOTE PADRAO                   COMGAS      PNA*       CGAS5       010VISTA          000000000077900000000780000000007650000000000000000000765000000210000
0202LOTE PADRAO                   SOUZA CRUZ  ON EJ      CRUZ3       010VISTA          000000000015500000000155000000001525000000000000000000154000000007200
0202LOTE PADRAO                   ELETROBRAS  ON *       ELET3       010VISTA          000000000041000000000415000000004000000000000000000000402000017901800
0202LOTE PADRAO                   CELESC      PNB        CLSC6       010VISTA          000000000000570000000005800000000055000000000000000000005600000207900
0202LOTE PADRAO                   BRADESCO    PN * EJ    BBDC4       010VISTA          000000000015200000000152000000001490000000000000000000151000220040000
0202LOTE PADRAO                   CESP        PN *       CESP4       010VISTA          000000000014250000000145000000001410000000000000000000142000002260900
0202LOTE PADRAO                   LIGHT       ON *       LIGH3       010VISTA          000000000103500000001080000000010250000000000000000001025000000123200
0202LOTE PADRAO                   TELESP CL PAPN *       TSPP4       010VISTA          000000000005700000000060000000000575000000000000000000058000218752000
0202LOTE PADRAO                   VALE R DOCE PNA        VALE5       010VISTA          000000000062500000000628000000006240000000000000000000624000000017900
0202LOTE PADRAO                   COPEL       PNB*       CPLE6       010VISTA          000000000018700000000188000000001810000000000000000000186000038169500
0202LOTE PADRAO                   VALE R DOCE ON         VALE3       010VISTA          000000000064500000000645000000006400000000000000000000645000000011400
0202LOTE PADRAO                   ARACRUZ     PNB        ARCZ6       010VISTA          000000000004790000000047000000000450000000000000000000045000000044900
0202LOTE PADRAO                   TELEMIG PARTPN *       TMCP4       010VISTA          000000000003100000000031000000000290000000000000000000030000086998700
0202LOTE PADRAO                   BRASIL TELECPN *       BRTO4       010VISTA          000000000013000000000134000000001260000000000000000000128000102510000
0202LOTE PADRAO                   SABESP      ON *       SBSP3       010VISTA          000000000136800000001375000000013600000000000000000001375000001397000
0202LOTE PADRAO                   BRASKEM     PNA*       BRKM5       010VISTA          000000000517000000005200000000051500000000000000000005150000000101900
0202LOTE PADRAO                   EMBRAER     PN EJ      EMBR4       010VISTA          000000000011900000000120000000001170000000000000000000120000000071600
0202LOTE PADRAO                   TELESP      PN * EJ    TLPP4       010VISTA          000000000034500000000349000000003430000000000000000000343000019028400
0202LOTE PADRAO                   EMBRAER     ON EJ      EMBR3       010VISTA          000000000011100000000113000000001110000000000000000000113000000033300
0202LOTE PADRAO                   AMBEV       PN *       AMBV4       010VISTA          000000000460000000004710000000046000000000000000000004680000005761200
0202LOTE PADRAO                   USIMINAS    PNA        USIM5       010VISTA          000000000007500000000079000000000750000000000000000000079000000085700
0202LOTE PADRAO                   ELETROPAULO PN *       ELPL4       010VISTA          000000000067200000000675000000006570000000000000000000664000008553900
0202LOTE PADRAO                   TELE NORD CLPN *       TNEP4       010VISTA          000000000002600000000026000000000250000000000000000000025000273811000
0202LOTE PADRAO                   CEMIG       PN * EJ    CMIG4       010VISTA          000000000036200000000372000000003610000000000000000000363000049648000
0202LOTE PADRAO                   TELE CL SUL PN * EJ    TCSL4       010VISTA          000000000002900000000030000000000290000000000000000000030000056209200
0202LOTE PADRAO                   TRACTEBEL   ON *       TBLE3       010VISTA          000000000004300000000044000000000420000000000000000000044000011097700
0202LOTE PADRAO                   CEMIG       ON * EJ    CMIG3       010VISTA          000000000033100000000345000000003310000000000000000000335000002173600
0202LOTE PADRAO                   TELE CL SUL ON * EJ    TCSL3       010VISTA          000000000002600000000026000000000260000000000000000000026000027187100
0202LOTE PADRAO                   ITAUSA      PN         ITSA4       010VISTA          000000000002520000000025200000000248000000000000000000024000000433100
0202LOTE PADRAO                   V C P       PN *       VCPA4       010VISTA          000000000091000000000915000000008750000000000000000000890000006251500
0202LOTE PADRAO                   SID TUBARAO PN *       CSTB4       010VISTA          000000000025000000000255000000002500000000000000000000250000005702000
0202LOTE PADRAO                   BRADESPAR   PN *       BRAP4       010VISTA          000000000000750000000007700000000074000000000000000000007400051612700
0202LOTE PADRAO                   NET         PN         PLIM4       010VISTA          000000000000500000000005100000000049000000000000000000004900000939300
0202LOTE PADRAO                   TELE CTR OESPN * EJ    TCOC4       010VISTA          000000000004600000000047000000000450000000000000000000046000077151200
0202LOTE PADRAO                   TELEMAR N L PNA* EJ    TMAR5       010VISTA          000000000051900000000528000000005170000000000000000000520000022043800
0202LOTE PADRAO                   GERDAU      PN * EJ    GGBR4       010VISTA          000000000028300000000295000000002830000000000000000000291000011617600
0202LOTE PADRAO                   BRASIL      ON *       BBAS3       010VISTA          000000000013800000000138000000001325000000000000000000132000003516200
