00BDIN9999BOVESPA 99992002011720020117
0101IBOVESPA                      0131090131090133590000000000000000002002011700000020020117013337000000
0202LOTE PADRAO                   EMBRATEL PARPN *       EBTP4       010VISTA          000000000010300000000104000000001010000000000000000000103000116396000
0202LOTE PADRAO                   EMBRATEL PARON *       EBTP3       010VISTA          000000000011800000000123000000001160000000000000000000120000027220500
0202LOTE PADRAO                   TRAN PAULISTPN * EJ    TRPL4       010VISTA          000000000006700000000069000000000670000000000000000000069000013921500
0202LOTE PADRAO                   TELEMAR     PN * EJ    TNLP4       010VISTA          000000000034500000000352000000003430000000000000000000348000186509000
0202LOTE PADRAO                   ITAUBANCO   PN * EJ    ITAU4       010VISTA          000000000175600000001794000000017490000000000000000001794000005435200
0202LOTE PADRAO                   TELEMAR     ON * EJ    TNLP3       010VISTA          000000000030500000000309000000003050000000000000000000309000011785200
0202LOTE PADRAO                   SID NACIONALON *       CSNA3       010VISTA          000000000043000000000430000000004100000000000000000000420000007469200
0202LOTE PADRAO                   TELE LEST CLPN *       TLCP4       010VISTA          000000000000910000000009300000000091000000000000000000009100100948000
0202LOTE PADRAO                   CRT CELULAR PNA* EJ    CRTP5       010VISTA          000000000480000000004850000000046900000000000000000004730000001472700
0202LOTE PADRAO                   IPIRANGA PETPN *       PTIP4       010VISTA          000000000012800000000134000000001275000000000000000000127500003150000
0202LOTE PADRAO                   BRASIL T PARPN *       BRTP4       010VISTA          000000000018000000000186000000001800000000000000000000186000061516300
0202LOTE PADRAO                   BRASIL T PARON *       BRTP3       010VISTA          000000000018000000000191000000001800000000000000000000186000005383500
0202LOTE PADRAO                   KLABIN S/A  PN         KLBN4       010VISTA          000000000001100000000011000000000110000000000000000000011000000015800
0202LOTE PADRAO                   ACESITA     PN *       ACES4       010VISTA          000000000000700000000007200000000070000000000000000000007100101565000
0202LOTE PADRAO                   PETROBRAS   PN         PETR4       010VISTA          000000000048200000000491000000004820000000000000000000487000000062000
0202LOTE PADRAO                   ELETROBRAS  PNB*       ELET6       010VISTA          000000000026700000000271000000002660000000000000000000269000068703200
0202LOTE PADRAO                   PETROBRAS   ON         PETR3       010VISTA          000000000049300000000502000000004910000000000000000000499000000015600
0202LOTE PADRAO                   COMGAS      PNA*       CGAS5       010VISTA          000000000087900000000880000000008650000000000000000000873000000650000
0202LOTE PADRAO                   SOUZA CRUZ  ON EJ      CRUZ3       010VISTA          000000000014400000000146000000001400000000000000000000145000000006800
0202LOTE PADRAO                   ELETROBRAS  ON *       ELET3       010VISTA          000000000029700000000301000000002960000000000000000000299000042489700
0202LOTE PADRAO                   CELESC      PNB        CLSC6       010VISTA          000000000000550000000005500000000053000000000000000000005300000944100
0202LOTE PADRAO                   BRADESCO    PN * EJ    BBDC4       010VISTA          000000000012250000000124000000001220000000000000000000124000100457000
0202LOTE PADRAO                   CESP        PN *       CESP4       010VISTA          000000000014000000000145000000001400000000000000000000144000008430300
0202LOTE PADRAO                   LIGHT       ON *       LIGH3       010VISTA          000000000127000000001299000000012500000000000000000001279000000641100
0202LOTE PADRAO                   TELESP CL PAPN *       TSPP4       010VISTA          000000000007800000000079600000000770000000000000000000078000184323000
0202LOTE PADRAO                   VALE R DOCE PNA        VALE5       010VISTA          000000000052200000000525000000005160000000000000000000525000000036800
0202LOTE PADRAO                   COPEL       PNB*       CPLE6       010VISTA          000000000015500000000159000000001540000000000000000000159000026165000
0202LOTE PADRAO                   VALE R DOCE ON         VALE3       010VISTA          000000000050600000000512000000005060000000000000000000510000000000400
0202LOTE PADRAO                   ARACRUZ     PNB        ARCZ6       010VISTA          000000000004200000000042500000000400000000000000000000042500000016000
0202LOTE PADRAO                   TELEMIG PARTPN *       TMCP4       010VISTA          000000000004000000000040000000000390000000000000000000040000049237700
0202LOTE PADRAO                   BRASIL TELECPN *       BRTO4       010VISTA          000000000012750000000129000000001260000000000000000000128000054155600
0202LOTE PADRAO                   SABESP      ON *       SBSP3       010VISTA          000000000129000000001330000000012600000000000000000001286000001818100
0202LOTE PADRAO                   BRASKEM     PNA*       BRKM5       010VISTA          000000000547000000005820000000054700000000000000000005820000000373500
0202LOTE PADRAO                   EMBRAER     PN EJ      EMBR4       010VISTA          000000000012600000000128000000001240000000000000000000126000000048700
0202LOTE PADRAO                   TELESP      PN * EJ    TLPP4       010VISTA          000000000030100000000305000000002950000000000000000000301000021637200
0202LOTE PADRAO                   EMBRAER     ON EJ      EMBR3       010VISTA          000000000012000000000121000000001170000000000000000000119000000014800
0202LOTE PADRAO                   AMBEV       PN *       AMBV4       010VISTA          000000000482000000004869000000048000000000000000000004859000001244100
0202LOTE PADRAO                   USIMINAS    PNA        USIM5       010VISTA          000000000006900000000070000000000680000000000000000000069600000058700
0202LOTE PADRAO                   ELETROPAULO PN *       ELPL4       010VISTA          000000000081000000000820000000007800000000000000000000800000002649900
0202LOTE PADRAO                   TELE NORD CLPN *       TNEP4       010VISTA          000000000003000000000031000000000300000000000000000000030000079503600
0202LOTE PADRAO                   CEMIG       PN * EJ    CMIG4       010VISTA          000000000032000000000321000000003100000000000000000000321000047521800
0202LOTE PADRAO                   TELE CL SUL PN * EJ    TCSL4       010VISTA          000000000003300000000033000000000330000000000000000000033000058543800
0202LOTE PADRAO                   CEMIG       ON * EJ    CMIG3       010VISTA          000000000029000000000293000000002860000000000000000000288000000510000
0202LOTE PADRAO                   TELE CL SUL ON * EJ    TCSL3       010VISTA          000000000002800000000029000000000281000000000000000000028100024082700
0202LOTE PADRAO                   ITAUSA      PN         ITSA4       010VISTA          000000000002100000000022000000000210000000000000000000022000000115300
0202LOTE PADRAO                   V C P       PN *       VCPA4       010VISTA          000000000083900000000840000000008250000000000000000000825000001627000
0202LOTE PADRAO                   SID TUBARAO PN *       CSTB4       010VISTA          000000000021800000000225000000002180000000000000000000220000003000000
0202LOTE PADRAO                   BRADESPAR   PN *       BRAP4       010VISTA          000000000000780000000007900000000077000000000000000000007900118999000
0202LOTE PADRAO                   NET         PN         PLIM4       010VISTA          000000000000770000000007700000000074000000000000000000007500000368500
0202LOTE PADRAO                   TELE CTR OESPN * EJ    TCOC4       010VISTA          000000000005000000000050000000000470000000000000000000050000176956000
0202LOTE PADRAO                   TELEMAR N L PNA* EJ    TMAR5       010VISTA          000000000056600000000580000000005640000000000000000000577000033856300
0202LOTE PADRAO                   GERDAU      PN * EJ    GGBR4       010VISTA          000000000025000000000250000000002450000000000000000000250000020011100
0202LOTE PADRAO                   BRASIL      ON *       BBAS3       010VISTA          000000000010100000000104000000001000000000000000000000101000005865300
