00BDIN9999BOVESPA 99992002091020020910
0101IBOVESPA                      0099620098410100520000000000000000002002091000000020020910009960000000
0202LOTE PADRAO                   EMBRATEL PARPN *       EBTP4       010VISTA          000000000002600000000027000000000252000000000000000000025000386232000
0202LOTE PADRAO                   TRAN PAULISTPN * EJ    TRPL4       010VISTA          000000000005200000000052000000000510000000000000000000052000010691600
0202LOTE PADRAO                   EMBRATEL PARON *       EBTP3       010VISTA          000000000003300000000034000000000327000000000000000000033000047020200
0202LOTE PADRAO                   TELEMAR     PN * EJ    TNLP4       010VISTA          000000000025300000000255000000002475000000000000000000250000186233000
0202LOTE PADRAO                   ITAUBANCO   PN * EJ    ITAU4       010VISTA          000000000137000000001381000000013600000000000000000001370000010247600
0202LOTE PADRAO                   TELEMAR     ON * EJ    TNLP3       010VISTA          000000000019100000000195000000001880000000000000000000194000022383400
0202LOTE PADRAO                   SID NACIONALON *       CSNA3       010VISTA          000000000039000000000390000000003710000000000000000000382000013394300
0202LOTE PADRAO                   TELE LEST CLPN *       TLCP4       010VISTA          000000000000420000000004300000000041000000000000000000004300216839000
0202LOTE PADRAO                   CRT CELULAR PNA* EJ    CRTP5       010VISTA          000000000350000000003500000000033800000000000000000003490000000322100
0202LOTE PADRAO                   IPIRANGA PETPN *       PTIP4       010VISTA          000000000010900000000109000000001050000000000000000000108000001719000
0202LOTE PADRAO                   BRASIL T PARPN *       BRTP4       010VISTA          000000000017500000000175000000001700000000000000000000173000034453300
0202LOTE PADRAO                   BRASIL T PARON *       BRTP3       010VISTA          000000000013000000000135000000001300000000000000000000135000004391300
0202LOTE PADRAO                   KLABIN S/A  PN         KLBN4       010VISTA          000000000000870000000008800000000085000000000000000000008800000014700
0202LOTE PADRAO                   ACESITA     PN *       ACES4       010VISTA          000000000000650000000006500000000063000000000000000000006300075049200
0202LOTE PADRAO                   PETROBRAS   PN         PETR4       010VISTA          000000000045800000000471000000004570000000000000000000468000000166500
0202LOTE PADRAO                   ELETROBRAS  PNB*       ELET6       010VISTA          000000000019600000000200000000001910000000000000000000198000064553300
0202LOTE PADRAO                   PETROBRAS   ON         PETR3       010VISTA          000000000051000000000526000000005100000000000000000000522000000020700
0202LOTE PADRAO                   COMGAS      PNA*       CGAS5       010VISTA          000000000055500000000599000000005500000000000000000000599000000559500
0202LOTE PADRAO                   SOUZA CRUZ  ON EJ      CRUZ3       010VISTA          000000000014900000000151000000001480000000000000000000151000000028900
0202LOTE PADRAO                   ELETROBRAS  ON *       ELET3       010VISTA          000000000020100000000208000000001980000000000000000000208000018148700
0202LOTE PADRAO                   CELESC      PNB        CLSC6       010VISTA          000000000000540000000005500000000053000000000000000000005500000408400
0202LOTE PADRAO                   BRADESCO    PN * EJ    BBDC4       010VISTA          000000000009500000000096000000000950000000000000000000095000116915000
0202LOTE PADRAO                   CESP        PN *       CESP4       010VISTA          000000000006900000000069000000000670000000000000000000067000010673000
0202LOTE PADRAO                   LIGHT       ON *       LIGH3       010VISTA          000000000069000000000700000000006510000000000000000000659000000223200
0202LOTE PADRAO                   TELESP CL PAPN *       TSPP4       010VISTA          000000000003500000000035000000000330000000000000000000034000449355000
0202LOTE PADRAO                   VALE R DOCE PNA        VALE5       010VISTA          000000000073500000000739000000007270000000000000000000734000000009400
0202LOTE PADRAO                   COPEL       PNB*       CPLE6       010VISTA          000000000009900000000099000000000940000000000000000000095000027318200
0202LOTE PADRAO                   VALE R DOCE ON         VALE3       010VISTA          000000000080400000000807000000007950000000000000000000799000000005100
0202LOTE PADRAO                   ARACRUZ     PNB        ARCZ6       010VISTA          000000000005400000000055000000000530000000000000000000055000000120800
0202LOTE PADRAO                   TELEMIG PARTPN *       TMCP4       010VISTA          000000000002700000000027000000000260000000000000000000026900061817500
0202LOTE PADRAO                   BRASIL TELECPN *       BRTO4       010VISTA          000000000011500000000118000000001130000000000000000000115000047302900
0202LOTE PADRAO                   SABESP      ON *       SBSP3       010VISTA          000000000082500000000835000000008100000000000000000000835000001204100
0202LOTE PADRAO                   BRASKEM     PNA*       BRKM5       010VISTA          000000000282000000002870000000028000000000000000000002819000000046300
0202LOTE PADRAO                   EMBRAER     PN EJ      EMBR4       010VISTA          000000000013100000000133000000001310000000000000000000131000000036100
0202LOTE PADRAO                   TELESP      PN * EJ    TLPP4       010VISTA          000000000032500000000326000000003220000000000000000000325000002927500
0202LOTE PADRAO                   EMBRAER     ON EJ      EMBR3       010VISTA          000000000011800000000121000000001170000000000000000000118000000010800
0202LOTE PADRAO                   AMBEV       PN *       AMBV4       010VISTA          000000000428500000004290000000042500000000000000000004270000000794500
0202LOTE PADRAO                   USIMINAS    PNA        USIM5       010VISTA          000000000005400000000054000000000510000000000000000000052000000019900
0202LOTE PADRAO                   ELETROPAULO PN *       ELPL4       010VISTA          000000000032500000000330000000003000000000000000000000325000003344300
0202LOTE PADRAO                   TELE NORD CLPN *       TNEP4       010VISTA          000000000002500000000025000000000230000000000000000000024000172156000
0202LOTE PADRAO                   CEMIG       PN * EJ    CMIG4       010VISTA          000000000025800000000258000000002450000000000000000000252500023080500
0202LOTE PADRAO                   TELE CL SUL PN * EJ    TCSL4       010VISTA          000000000002500000000025000000000240000000000000000000025200052964700
0202LOTE PADRAO                   TRACTEBEL   ON *       TBLE3       010VISTA          000000000003900000000040000000000390000000000000000000040000105988000
0202LOTE PADRAO                   CEMIG       ON * EJ    CMIG3       010VISTA          000000000023000000000233000000002300000000000000000000233000000200000
0202LOTE PADRAO                   TELE CL SUL ON * EJ    TCSL3       010VISTA          000000000002100000000021000000000200000000000000000000021000008488600
0202LOTE PADRAO                   ITAUSA      PN         ITSA4       010VISTA          000000000001710000000017200000000160000000000000000000017000000198500
0202LOTE PADRAO                   V C P       PN *       VCPA4       010VISTA          000000000102000000001035000000010000000000000000000001035000001303400
0202LOTE PADRAO                   SID TUBARAO PN *       CSTB4       010VISTA          000000000025000000000252500000002460000000000000000000252500004091900
0202LOTE PADRAO                   BRADESPAR   PN *       BRAP4       010VISTA          000000000000470000000004800000000046000000000000000000004600098581900
0202LOTE PADRAO                   NET         PN         PLIM4       010VISTA          000000000000460000000004600000000041000000000000000000004200000873200
0202LOTE PADRAO                   TELE CTR OESPN * EJ    TCOC4       010VISTA          000000000003100000000033000000000310000000000000000000033000223151000
0202LOTE PADRAO                   TELEMAR N L PNA* EJ    TMAR5       010VISTA          000000000044500000000445000000004320000000000000000000441000017040100
0202LOTE PADRAO                   GERDAU      PN * EJ    GGBR4       010VISTA          000000000032200000000323000000003180000000000000000000322500012291000
0202LOTE PADRAO                   BRASIL      ON *       BBAS3       010VISTA          000000000011000000000111000000001050000000000000000000108000036999900
