00BDIN9999BOVESPA 99992002040520020405
0101IBOVESPA                      0133620132330134450000000000000000002002040500000020020405013276000000
0202LOTE PADRAO                   EMBRATEL PARPN *       EBTP4       010VISTA          000000000007100000000072000000000700000000000000000000070000137152000
0202LOTE PADRAO                   TRAN PAULISTPN * EJ    TRPL4       010VISTA          000000000007400000000074000000000720000000000000000000072000008179600
0202LOTE PADRAO                   EMBRATEL PARON *       EBTP3       010VISTA          000000000008800000000089000000000850000000000000000000085000012836300
0202LOTE PADRAO                   TELEMAR     PN * EJ    TNLP4       010VISTA          000000000030200000000305000000002970000000000000000000298000211666000
0202LOTE PADRAO                   ITAUBANCO   PN * EJ    ITAU4       010VISTA          000000000183000000001868000000018300000000000000000001860000010332200
0202LOTE PADRAO                   TELEMAR     ON * EJ    TNLP3       010VISTA          000000000026600000000266000000002580000000000000000000260000005683600
0202LOTE PADRAO                   SID NACIONALON *       CSNA3       010VISTA          000000000044700000000452000000004400000000000000000000450000026052300
0202LOTE PADRAO                   TELE LEST CLPN *       TLCP4       010VISTA          000000000000810000000008200000000078000000000000000000008000068512500
0202LOTE PADRAO                   CRT CELULAR PNA* EJ    CRTP5       010VISTA          000000000463000000004630000000043100000000000000000004460000000441800
0202LOTE PADRAO                   IPIRANGA PETPN *       PTIP4       010VISTA          000000000014700000000148000000001470000000000000000000148000005162600
0202LOTE PADRAO                   BRASIL T PARPN *       BRTP4       010VISTA          000000000018300000000185000000001780000000000000000000180000051390200
0202LOTE PADRAO                   BRASIL T PARON *       BRTP3       010VISTA          000000000018200000000183000000001730000000000000000000175000006059500
0202LOTE PADRAO                   KLABIN S/A  PN         KLBN4       010VISTA          000000000001100000000011000000000100000000000000000000010000000068800
0202LOTE PADRAO                   ACESITA     PN *       ACES4       010VISTA          000000000000750000000007700000000074000000000000000000007400065660000
0202LOTE PADRAO                   PETROBRAS   PN         PETR4       010VISTA          000000000057900000000579000000005670000000000000000000572000000107300
0202LOTE PADRAO                   ELETROBRAS  PNB*       ELET6       010VISTA          000000000035300000000362000000003520000000000000000000355000020162400
0202LOTE PADRAO                   PETROBRAS   ON         PETR3       010VISTA          000000000060500000000611000000006000000000000000000000602000000021900
0202LOTE PADRAO                   COMGAS      PNA*       CGAS5       010VISTA          000000000080000000000814000000007900000000000000000000790000000733000
0202LOTE PADRAO                   SOUZA CRUZ  ON EJ      CRUZ3       010VISTA          000000000015400000000158000000001540000000000000000000158000000012800
0202LOTE PADRAO                   ELETROBRAS  ON *       ELET3       010VISTA          000000000039700000000400000000003930000000000000000000397000009562600
0202LOTE PADRAO                   CELESC      PNB        CLSC6       010VISTA          000000000000570000000005700000000056000000000000000000005700000061400
0202LOTE PADRAO                   BRADESCO    PN * EJ    BBDC4       010VISTA          000000000014500000000145000000001410000000000000000000143000150437000
0202LOTE PADRAO                   CESP        PN *       CESP4       010VISTA          000000000014000000000144000000001390000000000000000000139000004256100
0202LOTE PADRAO                   LIGHT       ON *       LIGH3       010VISTA          000000000098000000001070000000009800000000000000000000990000000737700
0202LOTE PADRAO                   TELESP CL PAPN *       TSPP4       010VISTA          000000000005700000000058000000000560000000000000000000056000153303000
0202LOTE PADRAO                   VALE R DOCE PNA        VALE5       010VISTA          000000000060600000000617000000006060000000000000000000615000000022800
0202LOTE PADRAO                   COPEL       PNB*       CPLE6       010VISTA          000000000017800000000185000000001770000000000000000000181000041989400
0202LOTE PADRAO                   VALE R DOCE ON         VALE3       010VISTA          000000000062000000000635000000006200000000000000000000635000000022500
0202LOTE PADRAO                   ARACRUZ     PNB        ARCZ6       010VISTA          000000000004700000000047500000000470000000000000000000047000000039800
0202LOTE PADRAO                   TELEMIG PARTPN *       TMCP4       010VISTA          000000000003100000000032700000000310000000000000000000031000119199000
0202LOTE PADRAO                   BRASIL TELECPN *       BRTO4       010VISTA          000000000013100000000133000000001280000000000000000000130000053610100
0202LOTE PADRAO                   SABESP      ON *       SBSP3       010VISTA          000000000138000000001395000000013700000000000000000001389000002780200
0202LOTE PADRAO                   BRASKEM     PNA*       BRKM5       010VISTA          000000000526000000005338000000052000000000000000000005280000000087400
0202LOTE PADRAO                   EMBRAER     PN EJ      EMBR4       010VISTA          000000000011600000000117500000001130000000000000000000114000000100800
0202LOTE PADRAO                   TELESP      PN * EJ    TLPP4       010VISTA          000000000034800000000352000000003400000000000000000000340000011484000
0202LOTE PADRAO                   EMBRAER     ON EJ      EMBR3       010VISTA          000000000011400000000114000000001080000000000000000000108000000028400
0202LOTE PADRAO                   AMBEV       PN *       AMBV4       010VISTA          000000000457100000004571000000044910000000000000000004495000002038300
0202LOTE PADRAO                   USIMINAS    PNA        USIM5       010VISTA          000000000007500000000077000000000750000000000000000000075000000020400
0202LOTE PADRAO                   ELETROPAULO PN *       ELPL4       010VISTA          000000000067000000000670000000006400000000000000000000657000004235200
0202LOTE PADRAO                   TELE NORD CLPN *       TNEP4       010VISTA          000000000002700000000027900000000270000000000000000000027000139598000
0202LOTE PADRAO                   CEMIG       PN * EJ    CMIG4       010VISTA          000000000035400000000354000000003410000000000000000000350000042046300
0202LOTE PADRAO                   TELE CL SUL PN * EJ    TCSL4       010VISTA          000000000003000000000031000000000300000000000000000000030000060083600
0202LOTE PADRAO                   TRACTEBEL   ON *       TBLE3       010VISTA          000000000004250000000043000000000420000000000000000000043000026430000
0202LOTE PADRAO                   CEMIG       ON * EJ    CMIG3       010VISTA          000000000031500000000317000000003150000000000000000000316000000464000
0202LOTE PADRAO                   TELE CL SUL ON * EJ    TCSL3       010VISTA          000000000002700000000027500000000260000000000000000000026000005092600
0202LOTE PADRAO                   ITAUSA      PN         ITSA4       010VISTA          000000000002300000000023000000000230000000000000000000023000000150300
0202LOTE PADRAO                   V C P       PN *       VCPA4       010VISTA          000000000089000000000897000000008900000000000000000000897000001812200
0202LOTE PADRAO                   SID TUBARAO PN *       CSTB4       010VISTA          000000000026100000000261000000002560000000000000000000256000006009000
0202LOTE PADRAO                   BRADESPAR   PN *       BRAP4       010VISTA          000000000000750000000007700000000073000000000000000000007700200978000
0202LOTE PADRAO                   NET         PN         PLIM4       010VISTA          000000000000510000000005500000000051000000000000000000005200002275500
0202LOTE PADRAO                   TELE CTR OESPN * EJ    TCOC4       010VISTA          000000000004700000000048000000000470000000000000000000047000096182700
0202LOTE PADRAO                   TELEMAR N L PNA* EJ    TMAR5       010VISTA          000000000052200000000525000000005050000000000000000000508000021102500
0202LOTE PADRAO                   GERDAU      PN * EJ    GGBR4       010VISTA          000000000028300000000287500000002800000000000000000000280000010456800
0202LOTE PADRAO                   BRASIL      ON *       BBAS3       010VISTA          000000000012700000000127000000001240000000000000000000125000003391900
