00BDIN9999BOVESPA 99992002102920021029
0101IBOVESPA                      0095700094390096560000000000000000002002102900000020021029009601000000
0202LOTE PADRAO                   EMBRATEL PARPN *       EBTP4       010VISTA          000000000002100000000022000000000210000000000000000000021000340256000
0202LOTE PADRAO                   TRAN PAULISTPN * EJ    TRPL4       010VISTA          000000000005000000000050000000000480000000000000000000050000012933500
0202LOTE PADRAO                   EMBRATEL PARON *       EBTP3       010VISTA          000000000002700000000028000000000260000000000000000000026000057625500
0202LOTE PADRAO                   TELEMAR     PN * EJ    TNLP4       010VISTA          000000000023100000000236000000002280000000000000000000231000281884000
0202LOTE PADRAO                   ITAUBANCO   PN * EJ    ITAU4       010VISTA          000000000146000000001480000000014400000000000000000001480000013796500
0202LOTE PADRAO                   TELEMAR     ON * EJ    TNLP3       010VISTA          000000000017000000000178000000001660000000000000000000171000018205500
0202LOTE PADRAO                   SID NACIONALON *       CSNA3       010VISTA          000000000038600000000399000000003800000000000000000000380000013103300
0202LOTE PADRAO                   TELE LEST CLPN *       TLCP4       010VISTA          000000000000370000000003900000000037000000000000000000003900131296000
0202LOTE PADRAO                   CRT CELULAR PNA* EJ    CRTP5       010VISTA          000000000294900000003000000000029000000000000000000002970000000773100
0202LOTE PADRAO                   IPIRANGA PETPN *       PTIP4       010VISTA          000000000007900000000080000000000780000000000000000000078000004818200
0202LOTE PADRAO                   BRASIL T PARPN *       BRTP4       010VISTA          000000000019000000000196000000001880000000000000000000192500072379500
0202LOTE PADRAO                   BRASIL T PARON *       BRTP3       010VISTA          000000000014000000000143000000001390000000000000000000142000010113800
0202LOTE PADRAO                   KLABIN S/A  PN         KLBN4       010VISTA          000000000000860000000008600000000081000000000000000000008400000161900
0202LOTE PADRAO                   ACESITA     PN *       ACES4       010VISTA          000000000000670000000007000000000066000000000000000000006800106570000
0202LOTE PADRAO                   PETROBRAS   PN         PETR4       010VISTA          000000000041900000000423000000004120000000000000000000413000000139300
0202LOTE PADRAO                   ELETROBRAS  PNB*       ELET6       010VISTA          000000000017800000000183000000001750000000000000000000182500082301200
0202LOTE PADRAO                   PETROBRAS   ON         PETR3       010VISTA          000000000046000000000472000000004520000000000000000000455000000050000
0202LOTE PADRAO                   COMGAS      PNA*       CGAS5       010VISTA          000000000055700000000580000000005500000000000000000000577000000480000
0202LOTE PADRAO                   SOUZA CRUZ  ON EJ      CRUZ3       010VISTA          000000000018000000000183000000001780000000000000000000181000000018300
0202LOTE PADRAO                   ELETROBRAS  ON *       ELET3       010VISTA          000000000018100000000193000000001810000000000000000000192500023152800
0202LOTE PADRAO                   CELESC      PNB        CLSC6       010VISTA          000000000000490000000005000000000047000000000000000000004800000487100
0202LOTE PADRAO                   BRADESCO    PN * EJ    BBDC4       010VISTA          000000000008900000000090000000000870000000000000000000089000323682000
0202LOTE PADRAO                   CESP        PN *       CESP4       010VISTA          000000000006200000000062500000000600000000000000000000061000007339700
0202LOTE PADRAO                   LIGHT       ON *       LIGH3       010VISTA          000000000051500000000527000000004990000000000000000000527000000240900
0202LOTE PADRAO                   TELESP CL PAPN *       TSPP4       010VISTA          000000000003300000000034000000000320000000000000000000033000424869000
0202LOTE PADRAO                   VALE R DOCE PNA        VALE5       010VISTA          000000000094900000000957000000009450000000000000000000957000000026900
0202LOTE PADRAO                   COPEL       PNB*       CPLE6       010VISTA          000000000008300000000084000000000800000000000000000000080000039982400
0202LOTE PADRAO                   VALE R DOCE ON         VALE3       010VISTA          000000000098500000000985000000009740000000000000000000974000000009000
0202LOTE PADRAO                   ARACRUZ     PNB        ARCZ6       010VISTA          000000000006000000000062000000000590000000000000000000059000000036900
0202LOTE PADRAO                   TELEMIG PARTPN *       TMCP4       010VISTA          000000000002600000000027000000000260000000000000000000027500082730900
0202LOTE PADRAO                   BRASIL TELECPN *       BRTO4       010VISTA          000000000012000000000120000000001180000000000000000000119000060387500
0202LOTE PADRAO                   SABESP      ON *       SBSP3       010VISTA          000000000081700000000830000000007970000000000000000000820000002851000
0202LOTE PADRAO                   BRASKEM     PNA*       BRKM5       010VISTA          000000000208000000002159000000020800000000000000000002110000000156700
0202LOTE PADRAO                   EMBRAER     PN EJ      EMBR4       010VISTA          000000000014400000000144000000001400000000000000000000141000000035400
0202LOTE PADRAO                   TELESP      PN * EJ    TLPP4       010VISTA          000000000036000000000360000000003420000000000000000000345000006256600
0202LOTE PADRAO                   EMBRAER     ON EJ      EMBR3       010VISTA          000000000013500000000135000000001280000000000000000000129000000013200
0202LOTE PADRAO                   AMBEV       PN *       AMBV4       010VISTA          000000000487000000004948000000048700000000000000000004900000002439900
0202LOTE PADRAO                   USIMINAS    PNA        USIM5       010VISTA          000000000005100000000052000000000490000000000000000000051000000089900
0202LOTE PADRAO                   ELETROPAULO PN *       ELPL4       010VISTA          000000000026000000000264000000002450000000000000000000257500009914100
0202LOTE PADRAO                   TELE NORD CLPN *       TNEP4       010VISTA          000000000002200000000023000000000220000000000000000000023000063215100
0202LOTE PADRAO                   CEMIG       PN * EJ    CMIG4       010VISTA          000000000022600000000244000000002200000000000000000000240000062338900
0202LOTE PADRAO                   TELE CL SUL PN * EJ    TCSL4       010VISTA          000000000002700000000027000000000260000000000000000000027000075853200
0202LOTE PADRAO                   TRACTEBEL   ON *       TBLE3       010VISTA          000000000003200000000032000000000310000000000000000000032500012596400
0202LOTE PADRAO                   CEMIG       ON * EJ    CMIG3       010VISTA          000000000020000000000220000000001950000000000000000000219000000684800
0202LOTE PADRAO                   TELE CL SUL ON * EJ    TCSL3       010VISTA          000000000002000000000022000000000200000000000000000000022000017130600
0202LOTE PADRAO                   ITAUSA      PN         ITSA4       010VISTA          000000000001740000000017700000000171000000000000000000017200000425600
0202LOTE PADRAO                   V C P       PN *       VCPA4       010VISTA          000000000113700000001180000000011300000000000000000001147000003701300
0202LOTE PADRAO                   SID TUBARAO PN *       CSTB4       010VISTA          000000000033200000000345000000003310000000000000000000345000018764300
0202LOTE PADRAO                   BRADESPAR   PN *       BRAP4       010VISTA          000000000000450000000004500000000044000000000000000000004500116728000
0202LOTE PADRAO                   NET         PN         PLIM4       010VISTA          000000000000210000000002800000000019000000000000000000002800002639800
0202LOTE PADRAO                   TELE CTR OESPN * EJ    TCOC4       010VISTA          000000000003200000000033000000000320000000000000000000033000063374000
0202LOTE PADRAO                   TELEMAR N L PNA* EJ    TMAR5       010VISTA          000000000041100000000425000000004100000000000000000000415000015917400
0202LOTE PADRAO                   GERDAU      PN * EJ    GGBR4       010VISTA          000000000030600000000318000000003010000000000000000000316000010434400
0202LOTE PADRAO                   BRASIL      ON *       BBAS3       010VISTA          000000000009200000000095000000000910000000000000000000093000039125400
