00BDIN9999BOVESPA 99992002010320020103
0101IBOVESPA                      0141250141210142860000000000000000002002010300000020020103014265000000
0202LOTE PADRAO                   EMBRATEL PARPN *       EBTP4       010VISTA          000000000010200000000105000000001010000000000000000000105000150296000
0202LOTE PADRAO                   EMBRATEL PARON *       EBTP3       010VISTA          000000000011400000000115000000001130000000000000000000115000047335800
0202LOTE PADRAO                   TRAN PAULISTPN * EJ    TRPL4       010VISTA          000000000006700000000070000000000660000000000000000000069000040640100
0202LOTE PADRAO                   TELEMAR     PN * EJ    TNLP4       010VISTA          000000000037400000000382000000003740000000000000000000380000195928000
0202LOTE PADRAO                   ITAUBANCO   PN * EJ    ITAU4       010VISTA          000000000184000000001843000000018050000000000000000001810000010380500
0202LOTE PADRAO                   TELEMAR     ON * EJ    TNLP3       010VISTA          000000000032500000000327000000003180000000000000000000327000029061900
0202LOTE PADRAO                   SID NACIONALON *       CSNA3       010VISTA          000000000037000000000372000000003650000000000000000000368000009145400
0202LOTE PADRAO                   TELE LEST CLPN *       TLCP4       010VISTA          000000000000980000000010000000000098000000000000000000010000220167000
0202LOTE PADRAO                   CRT CELULAR PNA* EJ    CRTP5       010VISTA          000000000525000000005470000000052500000000000000000005420000001429500
0202LOTE PADRAO                   IPIRANGA PETPN *       PTIP4       010VISTA          000000000012400000000125000000001210000000000000000000123000004527000
0202LOTE PADRAO                   BRASIL T PARPN *       BRTP4       010VISTA          000000000019300000000205000000001930000000000000000000205000089420200
0202LOTE PADRAO                   BRASIL T PARON *       BRTP3       010VISTA          000000000019100000000200000000001910000000000000000000199000038664000
0202LOTE PADRAO                   KLABIN S/A  PN         KLBN4       010VISTA          000000000001000000000011000000000100000000000000000000011000000131400
0202LOTE PADRAO                   ACESITA     PN *       ACES4       010VISTA          000000000000720000000007400000000072000000000000000000007200209173000
0202LOTE PADRAO                   PETROBRAS   PN         PETR4       010VISTA          000000000051500000000520000000005130000000000000000000516000000122200
0202LOTE PADRAO                   ELETROBRAS  PNB*       ELET6       010VISTA          000000000030000000000311000000003000000000000000000000308000049336400
0202LOTE PADRAO                   PETROBRAS   ON         PETR3       010VISTA          000000000053100000000540000000005310000000000000000000536000000040600
0202LOTE PADRAO                   COMGAS      PNA*       CGAS5       010VISTA          000000000092500000000945000000009250000000000000000000925000001392900
0202LOTE PADRAO                   SOUZA CRUZ  ON EJ      CRUZ3       010VISTA          000000000014300000000144000000001430000000000000000000143000000007700
0202LOTE PADRAO                   ELETROBRAS  ON *       ELET3       010VISTA          000000000033200000000336000000003300000000000000000000336000028717200
0202LOTE PADRAO                   CELESC      PNB        CLSC6       010VISTA          000000000000470000000004700000000046000000000000000000004700000122500
0202LOTE PADRAO                   BRADESCO    PN * EJ    BBDC4       010VISTA          000000000012400000000126000000001240000000000000000000126000124405000
0202LOTE PADRAO                   CESP        PN *       CESP4       010VISTA          000000000015500000000156000000001530000000000000000000154000014183300
0202LOTE PADRAO                   LIGHT       ON *       LIGH3       010VISTA          000000000128000000001290000000012500000000000000000001275000000563200
0202LOTE PADRAO                   TELESP CL PAPN *       TSPP4       010VISTA          000000000008700000000091000000000870000000000000000000091000369690000
0202LOTE PADRAO                   VALE R DOCE PNA        VALE5       010VISTA          000000000053500000000538000000005310000000000000000000533000000045200
0202LOTE PADRAO                   COPEL       PNB*       CPLE6       010VISTA          000000000017300000000179000000001730000000000000000000179000064109600
0202LOTE PADRAO                   VALE R DOCE ON         VALE3       010VISTA          000000000051600000000517000000005160000000000000000000517000000002700
0202LOTE PADRAO                   ARACRUZ     PNB        ARCZ6       010VISTA          000000000004100000000042500000000410000000000000000000042000000031300
0202LOTE PADRAO                   TELEMIG PARTPN *       TMCP4       010VISTA          000000000004400000000046000000000440000000000000000000046000074191100
0202LOTE PADRAO                   BRASIL TELECPN *       BRTO4       010VISTA          000000000013600000000143000000001360000000000000000000142000076660700
0202LOTE PADRAO                   SABESP      ON *       SBSP3       010VISTA          000000000134000000001370000000013400000000000000000001356000005709800
0202LOTE PADRAO                   BRASKEM     PNA*       BRKM5       010VISTA          000000000478000000004900000000047500000000000000000004840000000150300
0202LOTE PADRAO                   EMBRAER     PN EJ      EMBR4       010VISTA          000000000013000000000138000000001300000000000000000000137000000109600
0202LOTE PADRAO                   TELESP      PN * EJ    TLPP4       010VISTA          000000000031000000000323000000003100000000000000000000320000018560900
0202LOTE PADRAO                   EMBRAER     ON EJ      EMBR3       010VISTA          000000000012400000000130000000001240000000000000000000128000000029800
0202LOTE PADRAO                   AMBEV       PN *       AMBV4       010VISTA          000000000488500000005020000000048850000000000000000005000000005249000
0202LOTE PADRAO                   USIMINAS    PNA        USIM5       010VISTA          000000000006700000000069000000000670000000000000000000069000000064400
0202LOTE PADRAO                   ELETROPAULO PN *       ELPL4       010VISTA          000000000080900000000825000000008000000000000000000000825000003740500
0202LOTE PADRAO                   TELE NORD CLPN *       TNEP4       010VISTA          000000000003300000000036000000000330000000000000000000036000102593000
0202LOTE PADRAO                   CEMIG       PN * EJ    CMIG4       010VISTA          000000000035300000000357000000003480000000000000000000357000051106800
0202LOTE PADRAO                   TELE CL SUL PN * EJ    TCSL4       010VISTA          000000000003700000000038000000000370000000000000000000038000156808000
0202LOTE PADRAO                   CEMIG       ON * EJ    CMIG3       010VISTA          000000000031800000000330000000003160000000000000000000327000003013300
0202LOTE PADRAO                   TELE CL SUL ON * EJ    TCSL3       010VISTA          000000000003100000000032000000000300000000000000000000031000057271500
0202LOTE PADRAO                   ITAUSA      PN         ITSA4       010VISTA          000000000002100000000022000000000210000000000000000000022000000490000
0202LOTE PADRAO                   V C P       PN *       VCPA4       010VISTA          000000000082000000000820000000007950000000000000000000809000000971900
0202LOTE PADRAO                   SID TUBARAO PN *       CSTB4       010VISTA          000000000023300000000235000000002280000000000000000000231000003697000
0202LOTE PADRAO                   BRADESPAR   PN *       BRAP4       010VISTA          000000000000820000000008400000000081000000000000000000008200192357000
0202LOTE PADRAO                   NET         PN         PLIM4       010VISTA          000000000000850000000008500000000081000000000000000000008200001121000
0202LOTE PADRAO                   TELE CTR OESPN * EJ    TCOC4       010VISTA          000000000005500000000056000000000550000000000000000000056000114208000
0202LOTE PADRAO                   TELEMAR N L PNA* EJ    TMAR5       010VISTA          000000000062000000000639000000006200000000000000000000636000026431200
0202LOTE PADRAO                   GERDAU      PN * EJ    GGBR4       010VISTA          000000000022300000000235000000002230000000000000000000235000018642700
0202LOTE PADRAO                   BRASIL      ON *       BBAS3       010VISTA          000000000010800000000110000000001080000000000000000000110000006327300
