00BDIN9999BOVESPA 99992002031920020319
0101IBOVESPA                      0142660140690143300000000000000000002002031900000020020319014118000000
0202LOTE PADRAO                   EMBRATEL PARPN *       EBTP4       010VISTA          000000000008900000000089000000000850000000000000000000086000123604000
0202LOTE PADRAO                   TRAN PAULISTPN * EJ    TRPL4       010VISTA          000000000007800000000078000000000760000000000000000000077000003684000
0202LOTE PADRAO                   EMBRATEL PARON *       EBTP3       010VISTA          000000000010800000000110000000001050000000000000000000105000011248200
0202LOTE PADRAO                   TELEMAR     PN * EJ    TNLP4       010VISTA          000000000033400000000335000000003230000000000000000000326000203965000
0202LOTE PADRAO                   ITAUBANCO   PN * EJ    ITAU4       010VISTA          000000000194000000001950000000019300000000000000000001940000007706700
0202LOTE PADRAO                   TELEMAR     ON * EJ    TNLP3       010VISTA          000000000029800000000298000000002860000000000000000000290000010078300
0202LOTE PADRAO                   SID NACIONALON *       CSNA3       010VISTA          000000000048100000000485000000004770000000000000000000480000009461700
0202LOTE PADRAO                   TELE LEST CLPN *       TLCP4       010VISTA          000000000000910000000009100000000088000000000000000000009000062141600
0202LOTE PADRAO                   CRT CELULAR PNA* EJ    CRTP5       010VISTA          000000000495000000004950000000047900000000000000000004800000000424800
0202LOTE PADRAO                   IPIRANGA PETPN *       PTIP4       010VISTA          000000000014100000000142500000001380000000000000000000140000010557500
0202LOTE PADRAO                   BRASIL T PARPN *       BRTP4       010VISTA          000000000020000000000203000000001960000000000000000000200000032729500
0202LOTE PADRAO                   BRASIL T PARON *       BRTP3       010VISTA          000000000020000000000200000000001930000000000000000000198000009054400
0202LOTE PADRAO                   KLABIN S/A  PN         KLBN4       010VISTA          000000000001200000000012000000000125000000000000000000012600000070300
0202LOTE PADRAO                   ACESITA     PN *       ACES4       010VISTA          000000000000820000000008300000000081000000000000000000008200204175000
0202LOTE PADRAO                   PETROBRAS   PN         PETR4       010VISTA          000000000060300000000605000000005980000000000000000000602000000074600
0202LOTE PADRAO                   ELETROBRAS  PNB*       ELET6       010VISTA          000000000037700000000382000000003730000000000000000000373000034111600
0202LOTE PADRAO                   PETROBRAS   ON         PETR3       010VISTA          000000000063000000000635000000006270000000000000000000631000000034400
0202LOTE PADRAO                   COMGAS      PNA*       CGAS5       010VISTA          000000000091000000000910000000009000000000000000000000903000000235300
0202LOTE PADRAO                   SOUZA CRUZ  ON EJ      CRUZ3       010VISTA          000000000014800000000148000000001475000000000000000000148000000013300
0202LOTE PADRAO                   ELETROBRAS  ON *       ELET3       010VISTA          000000000042100000000423000000004130000000000000000000415000018612500
0202LOTE PADRAO                   CELESC      PNB        CLSC6       010VISTA          000000000000600000000006000000000058000000000000000000005900000135400
0202LOTE PADRAO                   BRADESCO    PN * EJ    BBDC4       010VISTA          000000000014300000000147500000001410000000000000000000145000351352000
0202LOTE PADRAO                   CESP        PN *       CESP4       010VISTA          000000000016800000000168000000001670000000000000000000168000008695400
0202LOTE PADRAO                   LIGHT       ON *       LIGH3       010VISTA          000000000125000000001250000000012200000000000000000001250000000190300
0202LOTE PADRAO                   TELESP CL PAPN *       TSPP4       010VISTA          000000000006300000000064000000000610000000000000000000062000253538000
0202LOTE PADRAO                   VALE R DOCE PNA        VALE5       010VISTA          000000000060000000000607000000005820000000000000000000590000000071100
0202LOTE PADRAO                   COPEL       PNB*       CPLE6       010VISTA          000000000018500000000186000000001810000000000000000000181000026401900
0202LOTE PADRAO                   VALE R DOCE ON         VALE3       010VISTA          000000000061100000000611000000005920000000000000000000596000000013000
0202LOTE PADRAO                   ARACRUZ     PNB        ARCZ6       010VISTA          000000000004700000000047000000000470000000000000000000047000000068700
0202LOTE PADRAO                   TELEMIG PARTPN *       TMCP4       010VISTA          000000000003700000000037000000000350000000000000000000035000103128000
0202LOTE PADRAO                   BRASIL TELECPN *       BRTO4       010VISTA          000000000014300000000144000000001410000000000000000000141000033363700
0202LOTE PADRAO                   SABESP      ON *       SBSP3       010VISTA          000000000140000000001410000000013800000000000000000001410000000646300
0202LOTE PADRAO                   BRASKEM     PNA*       BRKM5       010VISTA          000000000589900000005900000000057200000000000000000005720000000054300
0202LOTE PADRAO                   EMBRAER     PN EJ      EMBR4       010VISTA          000000000013000000000133000000001290000000000000000000132000000072400
0202LOTE PADRAO                   TELESP      PN * EJ    TLPP4       010VISTA          000000000036000000000366000000003570000000000000000000361000005847400
0202LOTE PADRAO                   EMBRAER     ON EJ      EMBR3       010VISTA          000000000012300000000124000000001210000000000000000000123000000005100
0202LOTE PADRAO                   AMBEV       PN *       AMBV4       010VISTA          000000000459900000004750000000045790000000000000000004710000003698600
0202LOTE PADRAO                   USIMINAS    PNA        USIM5       010VISTA          000000000008100000000082000000000790000000000000000000080000000069600
0202LOTE PADRAO                   ELETROPAULO PN *       ELPL4       010VISTA          000000000069900000000707000000006970000000000000000000705000003214200
0202LOTE PADRAO                   TELE NORD CLPN *       TNEP4       010VISTA          000000000003300000000033000000000320000000000000000000032500066282100
0202LOTE PADRAO                   CEMIG       PN * EJ    CMIG4       010VISTA          000000000038700000000387000000003740000000000000000000379000031859100
0202LOTE PADRAO                   TELE CL SUL PN * EJ    TCSL4       010VISTA          000000000003600000000037000000000350000000000000000000035000067932800
0202LOTE PADRAO                   TRACTEBEL   ON *       TBLE3       010VISTA          000000000004000000000041000000000398000000000000000000041000014831300
0202LOTE PADRAO                   CEMIG       ON * EJ    CMIG3       010VISTA          000000000034000000000340000000003310000000000000000000340000000466000
0202LOTE PADRAO                   TELE CL SUL ON * EJ    TCSL3       010VISTA          000000000003100000000031000000000300000000000000000000031000024953500
0202LOTE PADRAO                   ITAUSA      PN         ITSA4       010VISTA          000000000002300000000023000000000230000000000000000000023000000217400
0202LOTE PADRAO                   V C P       PN *       VCPA4       010VISTA          000000000091900000000920000000009100000000000000000000915000000447100
0202LOTE PADRAO                   SID TUBARAO PN *       CSTB4       010VISTA          000000000026100000000263000000002600000000000000000000260000009571000
0202LOTE PADRAO                   BRADESPAR   PN *       BRAP4       010VISTA          000000000000800000000008000000000078000000000000000000007800147217000
0202LOTE PADRAO                   NET         PN         PLIM4       010VISTA          000000000000590000000005900000000053000000000000000000005300003772000
0202LOTE PADRAO                   TELE CTR OESPN * EJ    TCOC4       010VISTA          000000000005000000000051000000000480000000000000000000049600081561000
0202LOTE PADRAO                   TELEMAR N L PNA* EJ    TMAR5       010VISTA          000000000059000000000592000000005730000000000000000000576000008590500
0202LOTE PADRAO                   GERDAU      PN * EJ    GGBR4       010VISTA          000000000028700000000295000000002850000000000000000000288000020879200
0202LOTE PADRAO                   BRASIL      ON *       BBAS3       010VISTA          000000000011900000000119000000001160000000000000000000119000005773200
