00BDIN9999BOVESPA 99992002081320020813
0101IBOVESPA                      0097240094440098420000000000000000002002081300000020020813009444000000
0202LOTE PADRAO                   EMBRATEL PARPN *       EBTP4       010VISTA          000000000001600000000016000000000150000000000000000000016000235322000
0202LOTE PADRAO                   EMBRATEL PARON *       EBTP3       010VISTA          000000000002200000000022500000000210000000000000000000021000053681800
0202LOTE PADRAO                   TRAN PAULISTPN * EJ    TRPL4       010VISTA          000000000005300000000056000000000530000000000000000000053000012623900
0202LOTE PADRAO                   ITAUBANCO   PN * EJ    ITAU4       010VISTA          000000000126000000001293000000012550000000000000000001265000020062700
0202LOTE PADRAO                   TELEMAR     ON * EJ    TNLP3       010VISTA          000000000017300000000180000000001700000000000000000000171000016316600
0202LOTE PADRAO                   SID NACIONALON *       CSNA3       010VISTA          000000000040500000000410000000003800000000000000000000380000019552800
0202LOTE PADRAO                   TELE LEST CLPN *       TLCP4       010VISTA          000000000000400000000004200000000039000000000000000000004000242056000
0202LOTE PADRAO                   CRT CELULAR PNA* EJ    CRTP5       010VISTA          000000000370000000003700000000036000000000000000000003600000000514400
0202LOTE PADRAO                   IPIRANGA PETPN *       PTIP4       010VISTA          000000000011500000000123000000001150000000000000000000120000004245300
0202LOTE PADRAO                   BRASIL T PARPN *       BRTP4       010VISTA          000000000016800000000176000000001650000000000000000000168000099542300
0202LOTE PADRAO                   BRASIL T PARON *       BRTP3       010VISTA          000000000012600000000130000000001220000000000000000000124000011821500
0202LOTE PADRAO                   KLABIN S/A  PN         KLBN4       010VISTA          000000000000920000000009200000000088000000000000000000008800000032400
0202LOTE PADRAO                   ACESITA     PN *       ACES4       010VISTA          000000000000660000000007100000000066000000000000000000006600096393100
0202LOTE PADRAO                   PETROBRAS   PN         PETR4       010VISTA          000000000042800000000428000000004050000000000000000000406000000141300
0202LOTE PADRAO                   ELETROBRAS  PNB*       ELET6       010VISTA          000000000021800000000218000000002080000000000000000000208000044481700
0202LOTE PADRAO                   PETROBRAS   ON         PETR3       010VISTA          000000000048000000000482000000004510000000000000000000451000000052800
0202LOTE PADRAO                   COMGAS      PNA*       CGAS5       010VISTA          000000000048300000000500000000004650000000000000000000465000000914700
0202LOTE PADRAO                   SOUZA CRUZ  ON EJ      CRUZ3       010VISTA          000000000014400000000145000000001400000000000000000000143000000067500
0202LOTE PADRAO                   ELETROBRAS  ON *       ELET3       010VISTA          000000000023000000000233000000002210000000000000000000221000015761700
0202LOTE PADRAO                   CELESC      PNB        CLSC6       010VISTA          000000000000520000000005400000000051000000000000000000005300000550700
0202LOTE PADRAO                   BRADESCO    PN * EJ    BBDC4       010VISTA          000000000009000000000091000000000880000000000000000000088000338350000
0202LOTE PADRAO                   CESP        PN *       CESP4       010VISTA          000000000007200000000074000000000710000000000000000000071000009443800
0202LOTE PADRAO                   LIGHT       ON *       LIGH3       010VISTA          000000000080000000000800000000007600000000000000000000760000000287400
0202LOTE PADRAO                   TELESP CL PAPN *       TSPP4       010VISTA          000000000003540000000035000000000340000000000000000000034000302812000
0202LOTE PADRAO                   VALE R DOCE PNA        VALE5       010VISTA          000000000071900000000725000000007000000000000000000000700000000024900
0202LOTE PADRAO                   COPEL       PNB*       CPLE6       010VISTA          000000000010000000000104000000000930000000000000000000093000191833000
0202LOTE PADRAO                   VALE R DOCE ON         VALE3       010VISTA          000000000077700000000790000000007670000000000000000000770000000018900
0202LOTE PADRAO                   ARACRUZ     PNB        ARCZ6       010VISTA          000000000005600000000057000000000560000000000000000000056000000131500
0202LOTE PADRAO                   TELEMIG PARTPN *       TMCP4       010VISTA          000000000003000000000032000000000300000000000000000000030000118062000
0202LOTE PADRAO                   BRASIL TELECPN *       BRTO4       010VISTA          000000000010800000000110000000001050000000000000000000106000058279500
0202LOTE PADRAO                   SABESP      ON *       SBSP3       010VISTA          000000000084000000000850000000008300000000000000000000845000002429000
0202LOTE PADRAO                   BRASKEM     PNA*       BRKM5       010VISTA          000000000343000000003500000000033200000000000000000003350000000090100
0202LOTE PADRAO                   EMBRAER     PN EJ      EMBR4       010VISTA          000000000014000000000141000000001330000000000000000000133000000068200
0202LOTE PADRAO                   TELESP      PN * EJ    TLPP4       010VISTA          000000000031600000000335000000003160000000000000000000321000008234200
0202LOTE PADRAO                   EMBRAER     ON EJ      EMBR3       010VISTA          000000000012600000000130000000001200000000000000000000120000000026300
0202LOTE PADRAO                   AMBEV       PN *       AMBV4       010VISTA          000000000451000000004570000000044940000000000000000004520000002629600
0202LOTE PADRAO                   USIMINAS    PNA        USIM5       010VISTA          000000000005600000000060000000000560000000000000000000057500000054500
0202LOTE PADRAO                   ELETROPAULO PN *       ELPL4       010VISTA          000000000028900000000298000000002780000000000000000000278000003460300
0202LOTE PADRAO                   TELE NORD CLPN *       TNEP4       010VISTA          000000000002600000000026000000000230000000000000000000023000152717000
0202LOTE PADRAO                   CEMIG       PN * EJ    CMIG4       010VISTA          000000000024800000000256000000002410000000000000000000243000061068400
0202LOTE PADRAO                   TELE CL SUL PN * EJ    TCSL4       010VISTA          000000000002500000000026000000000250000000000000000000025400173711000
0202LOTE PADRAO                   TRACTEBEL   ON *       TBLE3       010VISTA          000000000004100000000043000000000400000000000000000000040000007310400
0202LOTE PADRAO                   CEMIG       ON * EJ    CMIG3       010VISTA          000000000023800000000248000000002280000000000000000000228000001906100
0202LOTE PADRAO                   TELE CL SUL ON * EJ    TCSL3       010VISTA          000000000002200000000022000000000210000000000000000000021000024205300
0202LOTE PADRAO                   ITAUSA      PN         ITSA4       010VISTA          000000000001600000000016000000000150000000000000000000016000000324700
0202LOTE PADRAO                   V C P       PN *       VCPA4       010VISTA          000000000104000000001044000000010000000000000000000001005000003303300
0202LOTE PADRAO                   SID TUBARAO PN *       CSTB4       010VISTA          000000000026000000000270000000002600000000000000000000264000003825800
0202LOTE PADRAO                   BRADESPAR   PN *       BRAP4       010VISTA          000000000000480000000005000000000048000000000000000000004800168983000
0202LOTE PADRAO                   NET         PN         PLIM4       010VISTA          000000000000390000000004200000000038000000000000000000003900000727500
0202LOTE PADRAO                   TELE CTR OESPN * EJ    TCOC4       010VISTA          000000000003500000000035000000000320000000000000000000032000250236000
0202LOTE PADRAO                   TELEMAR N L PNA* EJ    TMAR5       010VISTA          000000000039500000000403000000003890000000000000000000390000015715200
0202LOTE PADRAO                   GERDAU      PN * EJ    GGBR4       010VISTA          000000000029000000000308000000002900000000000000000000304000014967700
0202LOTE PADRAO                   BRASIL      ON *       BBAS3       010VISTA          000000000009000000000094000000000880000000000000000000088000003222400
