00BDIN9999BOVESPA 99992002121720021217
0101IBOVESPA                      0107780105260109480000000000000000002002121700000020021217010833000000
0202LOTE PADRAO                   EMBRATEL PARPN *       EBTP4       010VISTA          000000000003400000000036000000000340000000000000000000034000412522000
0202LOTE PADRAO                   TRAN PAULISTPN * EJ    TRPL4       010VISTA          000000000005400000000056000000000540000000000000000000055400024705000
0202LOTE PADRAO                   EMBRATEL PARON *       EBTP3       010VISTA          000000000004200000000042000000000400000000000000000000040000032165000
0202LOTE PADRAO                   TELEMAR     PN * EJ    TNLP4       010VISTA          000000000027300000000278000000002725000000000000000000275000309671000
0202LOTE PADRAO                   ITAUBANCO   PN * EJ    ITAU4       010VISTA          000000000157500000001600000000015650000000000000000001570000026535900
0202LOTE PADRAO                   TELEMAR     ON * EJ    TNLP3       010VISTA          000000000019300000000201000000001930000000000000000000198000034197100
0202LOTE PADRAO                   SID NACIONALON *       CSNA3       010VISTA          000000000053000000000534000000005100000000000000000000510000017038100
0202LOTE PADRAO                   TELE LEST CLPN *       TLCP4       010VISTA          000000000000460000000004700000000044000000000000000000004400203153000
0202LOTE PADRAO                   CRT CELULAR PNA* EJ    CRTP5       010VISTA          000000000305000000003130000000030200000000000000000003030000001322000
0202LOTE PADRAO                   IPIRANGA PETPN *       PTIP4       010VISTA          000000000007300000000073000000000700000000000000000000070000018155700
0202LOTE PADRAO                   BRASIL T PARPN *       BRTP4       010VISTA          000000000017900000000180000000001780000000000000000000178000088245100
0202LOTE PADRAO                   BRASIL T PARON *       BRTP3       010VISTA          000000000014000000000144000000001380000000000000000000138000010830200
0202LOTE PADRAO                   KLABIN S/A  PN         KLBN4       010VISTA          000000000001000000000010000000000100000000000000000000010000000043600
0202LOTE PADRAO                   ACESITA     PN *       ACES4       010VISTA          000000000000960000000009600000000092000000000000000000009400351357000
0202LOTE PADRAO                   PETROBRAS   PN         PETR4       010VISTA          000000000045300000000459000000004500000000000000000000451000000144400
0202LOTE PADRAO                   ELETROBRAS  PNB*       ELET6       010VISTA          000000000020700000000214000000002060000000000000000000213000069912600
0202LOTE PADRAO                   PETROBRAS   ON         PETR3       010VISTA          000000000050200000000507000000004980000000000000000000498000000023600
0202LOTE PADRAO                   COMGAS      PNA*       CGAS5       010VISTA          000000000050000000000508000000004880000000000000000000488000001192000
0202LOTE PADRAO                   SOUZA CRUZ  ON EJ      CRUZ3       010VISTA          000000000018000000000181000000001760000000000000000000178000000010300
0202LOTE PADRAO                   ELETROBRAS  ON *       ELET3       010VISTA          000000000021100000000220000000002110000000000000000000216000037212100
0202LOTE PADRAO                   CELESC      PNB        CLSC6       010VISTA          000000000000510000000005200000000050000000000000000000005000000151400
0202LOTE PADRAO                   BRADESCO    PN * EJ    BBDC4       010VISTA          000000000009600000000099000000000950000000000000000000098000297331000
0202LOTE PADRAO                   CESP        PN *       CESP4       010VISTA          000000000006900000000069600000000670000000000000000000067000010825000
0202LOTE PADRAO                   LIGHT       ON *       LIGH3       010VISTA          000000000048000000000485000000004600000000000000000000467000000188200
0202LOTE PADRAO                   TELESP CL PAPN *       TSPP4       010VISTA          000000000003800000000039000000000380000000000000000000038000322389000
0202LOTE PADRAO                   VALE R DOCE PNA        VALE5       010VISTA          000000000097500000000985000000009620000000000000000000985000000012100
0202LOTE PADRAO                   COPEL       PNB*       CPLE6       010VISTA          000000000007900000000081000000000790000000000000000000080000056186200
0202LOTE PADRAO                   VALE R DOCE ON         VALE3       010VISTA          000000000103000000001040000000010250000000000000000001030000000021600
0202LOTE PADRAO                   ARACRUZ     PNB        ARCZ6       010VISTA          000000000006300000000063000000000625000000000000000000062000000108800
0202LOTE PADRAO                   TELEMIG PARTPN *       TMCP4       010VISTA          000000000002800000000029400000000280000000000000000000029000106651000
0202LOTE PADRAO                   BRASIL TELECPN *       BRTO4       010VISTA          000000000011400000000116000000001140000000000000000000116000165978000
0202LOTE PADRAO                   SABESP      ON *       SBSP3       010VISTA          000000000080400000000820000000008040000000000000000000814000006627200
0202LOTE PADRAO                   BRASKEM     PNA*       BRKM5       010VISTA          000000000207000000002125000000020600000000000000000002125000000177100
0202LOTE PADRAO                   EMBRAER     PN EJ      EMBR4       010VISTA          000000000013800000000138000000001340000000000000000000138000000073500
0202LOTE PADRAO                   TELESP      PN * EJ    TLPP4       010VISTA          000000000036900000000371000000003630000000000000000000366000010811800
0202LOTE PADRAO                   EMBRAER     ON EJ      EMBR3       010VISTA          000000000012700000000127000000001240000000000000000000125000000020400
0202LOTE PADRAO                   AMBEV       PN *       AMBV4       010VISTA          000000000547000000005540000000054500000000000000000005490000001118500
0202LOTE PADRAO                   USIMINAS    PNA        USIM5       010VISTA          000000000005900000000061000000000590000000000000000000061000000091900
0202LOTE PADRAO                   ELETROPAULO PN *       ELPL4       010VISTA          000000000025700000000260000000002440000000000000000000255000005807200
0202LOTE PADRAO                   TELE NORD CLPN *       TNEP4       010VISTA          000000000002770000000028100000000273000000000000000000027500053076100
0202LOTE PADRAO                   CEMIG       PN * EJ    CMIG4       010VISTA          000000000024100000000252500000002400000000000000000000248000103912000
0202LOTE PADRAO                   TELE CL SUL PN * EJ    TCSL4       010VISTA          000000000002700000000027300000000260000000000000000000027100155262000
0202LOTE PADRAO                   TRACTEBEL   ON *       TBLE3       010VISTA          000000000003690000000036900000000340000000000000000000035000004984400
0202LOTE PADRAO                   CEMIG       ON * EJ    CMIG3       010VISTA          000000000022000000000228000000002200000000000000000000221000000661200
0202LOTE PADRAO                   TELE CL SUL ON * EJ    TCSL3       010VISTA          000000000001960000000019700000000180000000000000000000019000028394800
0202LOTE PADRAO                   ITAUSA      PN         ITSA4       010VISTA          000000000001810000000018000000000179000000000000000000018000000350300
0202LOTE PADRAO                   V C P       PN *       VCPA4       010VISTA          000000000118900000001221000000011500000000000000000001170000001792000
0202LOTE PADRAO                   SID TUBARAO PN *       CSTB4       010VISTA          000000000038900000000397000000003840000000000000000000390000003673700
0202LOTE PADRAO                   BRADESPAR   PN *       BRAP4       010VISTA          000000000000540000000005600000000053000000000000000000005500264079000
0202LOTE PADRAO                   NET         PN         PLIM4       010VISTA          000000000000420000000004400000000039000000000000000000003900001419700
0202LOTE PADRAO                   TELE CTR OESPN * EJ    TCOC4       010VISTA          000000000004700000000047900000000460000000000000000000047900085346900
0202LOTE PADRAO                   TELEMAR N L PNA* EJ    TMAR5       010VISTA          000000000044500000000457000000004450000000000000000000450000040418900
0202LOTE PADRAO                   GERDAU      PN * EJ    GGBR4       010VISTA          000000000033400000000341000000003270000000000000000000340000035919200
0202LOTE PADRAO                   BRASIL      ON *       BBAS3       010VISTA          000000000009400000000096000000000920000000000000000000094000134915000
