00BDIN9999BOVESPA 99992002010220020102
0101IBOVESPA                      0135860135710139020000000000000000002002010200000020020102013872000000
0202LOTE PADRAO                   EMBRATEL PARPN *       EBTP4       010VISTA          000000000009800000000101000000000980000000000000000000100000094067800
0202LOTE PADRAO                   EMBRATEL PARON *       EBTP3       010VISTA          000000000010900000000114000000001090000000000000000000113000027578400
0202LOTE PADRAO                   TRAN PAULISTPN * EJ    TRPL4       010VISTA          000000000006500000000067000000000640000000000000000000066000019911700
0202LOTE PADRAO                   TELEMAR     PN * EJ    TNLP4       010VISTA          000000000037000000000376000000003630000000000000000000371000134931000
0202LOTE PADRAO                   ITAUBANCO   PN * EJ    ITAU4       010VISTA          000000000177000000001845000000017500000000000000000001840000011305400
0202LOTE PADRAO                   TELEMAR     ON * EJ    TNLP3       010VISTA          000000000030500000000316000000003050000000000000000000316000016568100
0202LOTE PADRAO                   SID NACIONALON *       CSNA3       010VISTA          000000000037100000000373000000003650000000000000000000367000013129800
0202LOTE PADRAO                   TELE LEST CLPN *       TLCP4       010VISTA          000000000000970000000009800000000095000000000000000000009700115816000
0202LOTE PADRAO                   CRT CELULAR PNA* EJ    CRTP5       010VISTA          000000000494000000005150000000049400000000000000000005150000001828900
0202LOTE PADRAO                   IPIRANGA PETPN *       PTIP4       010VISTA          000000000012800000000128000000001200000000000000000000123000001559800
0202LOTE PADRAO                   BRASIL T PARPN *       BRTP4       010VISTA          000000000018800000000192500000001880000000000000000000192500054902400
0202LOTE PADRAO                   BRASIL T PARON *       BRTP3       010VISTA          000000000018300000000189000000001830000000000000000000189000032744800
0202LOTE PADRAO                   ACESITA     PN *       ACES4       010VISTA          000000000000710000000007300000000070000000000000000000007200261914000
0202LOTE PADRAO                   PETROBRAS   PN         PETR4       010VISTA          000000000051200000000519000000005110000000000000000000512500000074900
0202LOTE PADRAO                   ELETROBRAS  PNB*       ELET6       010VISTA          000000000028800000000300000000002880000000000000000000297000067744700
0202LOTE PADRAO                   PETROBRAS   ON         PETR3       010VISTA          000000000052300000000535000000005230000000000000000000531000000023300
0202LOTE PADRAO                   COMGAS      PNA*       CGAS5       010VISTA          000000000092000000000920000000009100000000000000000000919000001090500
0202LOTE PADRAO                   SOUZA CRUZ  ON EJ      CRUZ3       010VISTA          000000000014000000000144000000001400000000000000000000142500000030400
0202LOTE PADRAO                   ELETROBRAS  ON *       ELET3       010VISTA          000000000032000000000325000000003150000000000000000000325000022406200
0202LOTE PADRAO                   CELESC      PNB        CLSC6       010VISTA          000000000000460000000004700000000045000000000000000000004600000088700
0202LOTE PADRAO                   BRADESCO    PN * EJ    BBDC4       010VISTA          000000000012400000000125000000001180000000000000000000124000181821000
0202LOTE PADRAO                   CESP        PN *       CESP4       010VISTA          000000000015300000000157500000001460000000000000000000151000022227200
0202LOTE PADRAO                   LIGHT       ON *       LIGH3       010VISTA          000000000126500000001279000000012250000000000000000001279000000337100
0202LOTE PADRAO                   TELESP CL PAPN *       TSPP4       010VISTA          000000000008500000000087000000000850000000000000000000086000222785000
0202LOTE PADRAO                   VALE R DOCE PNA        VALE5       010VISTA          000000000053800000000540000000005270000000000000000000530000000032900
0202LOTE PADRAO                   COPEL       PNB*       CPLE6       010VISTA          000000000017100000000173000000001700000000000000000000173000020905700
0202LOTE PADRAO                   VALE R DOCE ON         VALE3       010VISTA          000000000052700000000527000000005070000000000000000000510000000002100
0202LOTE PADRAO                   ARACRUZ     PNB        ARCZ6       010VISTA          000000000004000000000042500000000400000000000000000000041000000033800
0202LOTE PADRAO                   TELEMIG PARTPN *       TMCP4       010VISTA          000000000004200000000044000000000420000000000000000000044000113992000
0202LOTE PADRAO                   BRASIL TELECPN *       BRTO4       010VISTA          000000000013500000000138000000001350000000000000000000135000063432700
0202LOTE PADRAO                   SABESP      ON *       SBSP3       010VISTA          000000000132000000001339000000013190000000000000000001320000002395500
0202LOTE PADRAO                   BRASKEM     PNA*       BRKM5       010VISTA          000000000461000000004780000000046000000000000000000004770000000103100
0202LOTE PADRAO                   EMBRAER     PN EJ      EMBR4       010VISTA          000000000013000000000130000000001290000000000000000000129000000072300
0202LOTE PADRAO                   TELESP      PN * EJ    TLPP4       010VISTA          000000000030200000000310000000003020000000000000000000306000037361200
0202LOTE PADRAO                   EMBRAER     ON EJ      EMBR3       010VISTA          000000000012000000000124000000001200000000000000000000123000000018000
0202LOTE PADRAO                   AMBEV       PN *       AMBV4       010VISTA          000000000485000000005000000000048100000000000000000004885000001683400
0202LOTE PADRAO                   USIMINAS    PNA        USIM5       010VISTA          000000000006500000000067000000000640000000000000000000067000000038400
0202LOTE PADRAO                   ELETROPAULO PN *       ELPL4       010VISTA          000000000078000000000805000000007800000000000000000000780000001914400
0202LOTE PADRAO                   TELE NORD CLPN *       TNEP4       010VISTA          000000000003300000000033000000000327000000000000000000033000056135800
0202LOTE PADRAO                   CEMIG       PN * EJ    CMIG4       010VISTA          000000000033600000000348000000003360000000000000000000343000029423800
0202LOTE PADRAO                   TELE CL SUL PN * EJ    TCSL4       010VISTA          000000000003600000000037000000000360000000000000000000037000086340500
0202LOTE PADRAO                   CEMIG       ON * EJ    CMIG3       010VISTA          000000000031000000000318000000003080000000000000000000318000001403000
0202LOTE PADRAO                   TELE CL SUL ON * EJ    TCSL3       010VISTA          000000000003100000000031000000000300000000000000000000031000018279200
0202LOTE PADRAO                   ITAUSA      PN         ITSA4       010VISTA          000000000002100000000021000000000210000000000000000000021000000176200
0202LOTE PADRAO                   V C P       PN *       VCPA4       010VISTA          000000000080700000000810000000008075000000000000000000810000000659400
0202LOTE PADRAO                   SID TUBARAO PN *       CSTB4       010VISTA          000000000022300000000232000000002210000000000000000000231000005505500
0202LOTE PADRAO                   BRADESPAR   PN *       BRAP4       010VISTA          000000000000820000000008300000000080000000000000000000008100324480000
0202LOTE PADRAO                   NET         PN         PLIM4       010VISTA          000000000000820000000008500000000082000000000000000000008400000555800
0202LOTE PADRAO                   TELE CTR OESPN * EJ    TCOC4       010VISTA          000000000005400000000054000000000530000000000000000000054000087497200
0202LOTE PADRAO                   TELEMAR N L PNA* EJ    TMAR5       010VISTA          000000000059900000000620000000005990000000000000000000620000029124200
0202LOTE PADRAO                   GERDAU      PN * EJ    GGBR4       010VISTA          000000000021300000000221000000002130000000000000000000220000012949400
0202LOTE PADRAO                   BRASIL      ON *       BBAS3       010VISTA          000000000010500000000108000000001050000000000000000000107000007120600
