00BDIN9999BOVESPA 99992002061920020619
0101IBOVESPA                      0118220114850119010000000000000000002002061900000020020619011493000000
0202LOTE PADRAO                   EMBRATEL PARPN *       EBTP4       010VISTA          000000000003700000000038000000000360000000000000000000036000198364000
0202LOTE PADRAO                   TRAN PAULISTPN * EJ    TRPL4       010VISTA          000000000006200000000064000000000600000000000000000000062000006609500
0202LOTE PADRAO                   EMBRATEL PARON *       EBTP3       010VISTA          000000000005000000000054000000000490000000000000000000049600014862700
0202LOTE PADRAO                   TELEMAR     PN * EJ    TNLP4       010VISTA          000000000030100000000303000000002880000000000000000000288000203801000
0202LOTE PADRAO                   ITAUBANCO   PN * EJ    ITAU4       010VISTA          000000000161000000001616000000015290000000000000000001529000010162000
0202LOTE PADRAO                   TELEMAR     ON * EJ    TNLP3       010VISTA          000000000024200000000253000000002360000000000000000000240000007974400
0202LOTE PADRAO                   SID NACIONALON *       CSNA3       010VISTA          000000000045400000000456000000004450000000000000000000451000023136800
0202LOTE PADRAO                   TELE LEST CLPN *       TLCP4       010VISTA          000000000000660000000006800000000065000000000000000000006500066268400
0202LOTE PADRAO                   CRT CELULAR PNA* EJ    CRTP5       010VISTA          000000000405000000004100000000039000000000000000000003940000000449000
0202LOTE PADRAO                   IPIRANGA PETPN *       PTIP4       010VISTA          000000000013600000000140000000001290000000000000000000130000004124600
0202LOTE PADRAO                   BRASIL T PARPN *       BRTP4       010VISTA          000000000016100000000161000000001530000000000000000000154000058392800
0202LOTE PADRAO                   BRASIL T PARON *       BRTP3       010VISTA          000000000015000000000150000000001430000000000000000000143000004258600
0202LOTE PADRAO                   KLABIN S/A  PN         KLBN4       010VISTA          000000000000960000000010000000000096000000000000000000009700000031600
0202LOTE PADRAO                   ACESITA     PN *       ACES4       010VISTA          000000000000660000000006800000000065000000000000000000006500109005000
0202LOTE PADRAO                   PETROBRAS   PN         PETR4       010VISTA          000000000049000000000492000000004820000000000000000000485000000081500
0202LOTE PADRAO                   ELETROBRAS  PNB*       ELET6       010VISTA          000000000026000000000263000000002530000000000000000000256000087088700
0202LOTE PADRAO                   PETROBRAS   ON         PETR3       010VISTA          000000000053600000000539000000005250000000000000000000525000000061300
0202LOTE PADRAO                   COMGAS      PNA*       CGAS5       010VISTA          000000000067000000000685000000006530000000000000000000653000000761100
0202LOTE PADRAO                   SOUZA CRUZ  ON EJ      CRUZ3       010VISTA          000000000014900000000152000000001490000000000000000000149000000019200
0202LOTE PADRAO                   ELETROBRAS  ON *       ELET3       010VISTA          000000000030000000000308000000002960000000000000000000297000009807100
0202LOTE PADRAO                   CELESC      PNB        CLSC6       010VISTA          000000000000510000000005600000000051000000000000000000005300000830800
0202LOTE PADRAO                   BRADESCO    PN * EJ    BBDC4       010VISTA          000000000011900000000120000000001140000000000000000000114000146699000
0202LOTE PADRAO                   CESP        PN *       CESP4       010VISTA          000000000009800000000105000000000970000000000000000000098000007283100
0202LOTE PADRAO                   LIGHT       ON *       LIGH3       010VISTA          000000000092000000000960000000009200000000000000000000930000000149900
0202LOTE PADRAO                   TELESP CL PAPN *       TSPP4       010VISTA          000000000005000000000052000000000470000000000000000000047000339787000
0202LOTE PADRAO                   VALE R DOCE PNA        VALE5       010VISTA          000000000070500000000710000000006930000000000000000000709000000048400
0202LOTE PADRAO                   COPEL       PNB*       CPLE6       010VISTA          000000000013300000000135000000001250000000000000000000126000095420100
0202LOTE PADRAO                   VALE R DOCE ON         VALE3       010VISTA          000000000076250000000762500000007550000000000000000000762000000013200
0202LOTE PADRAO                   ARACRUZ     PNB        ARCZ6       010VISTA          000000000005400000000054000000000530000000000000000000054000000045800
0202LOTE PADRAO                   TELEMIG PARTPN *       TMCP4       010VISTA          000000000002800000000028000000000275000000000000000000028000073432500
0202LOTE PADRAO                   BRASIL TELECPN *       BRTO4       010VISTA          000000000011500000000115000000001110000000000000000000112500090174500
0202LOTE PADRAO                   SABESP      ON *       SBSP3       010VISTA          000000000105000000001080000000010500000000000000000001057000002953800
0202LOTE PADRAO                   BRASKEM     PNA*       BRKM5       010VISTA          000000000409900000004249000000040200000000000000000004050000000172200
0202LOTE PADRAO                   EMBRAER     PN EJ      EMBR4       010VISTA          000000000015100000000154000000001500000000000000000000150000000031900
0202LOTE PADRAO                   TELESP      PN * EJ    TLPP4       010VISTA          000000000035300000000357000000003400000000000000000000341000007411200
0202LOTE PADRAO                   EMBRAER     ON EJ      EMBR3       010VISTA          000000000013100000000134000000001310000000000000000000134000000020800
0202LOTE PADRAO                   AMBEV       PN *       AMBV4       010VISTA          000000000453100000004531000000042600000000000000000004260000001906100
0202LOTE PADRAO                   USIMINAS    PNA        USIM5       010VISTA          000000000007500000000075000000000730000000000000000000073000000079100
0202LOTE PADRAO                   ELETROPAULO PN *       ELPL4       010VISTA          000000000045500000000492000000004540000000000000000000454000005689100
0202LOTE PADRAO                   TELE NORD CLPN *       TNEP4       010VISTA          000000000002500000000026000000000250000000000000000000025000161733000
0202LOTE PADRAO                   CEMIG       PN * EJ    CMIG4       010VISTA          000000000034300000000343000000003270000000000000000000331000034102900
0202LOTE PADRAO                   TELE CL SUL PN * EJ    TCSL4       010VISTA          000000000002800000000031000000000280000000000000000000029000075852600
0202LOTE PADRAO                   TRACTEBEL   ON *       TBLE3       010VISTA          000000000003900000000040000000000380000000000000000000039600010182200
0202LOTE PADRAO                   CEMIG       ON * EJ    CMIG3       010VISTA          000000000031400000000314000000003050000000000000000000305000000815200
0202LOTE PADRAO                   TELE CL SUL ON * EJ    TCSL3       010VISTA          000000000002300000000026000000000230000000000000000000024000020039500
0202LOTE PADRAO                   ITAUSA      PN         ITSA4       010VISTA          000000000001900000000019600000000180000000000000000000018000000253900
0202LOTE PADRAO                   V C P       PN *       VCPA4       010VISTA          000000000098700000000995000000009650000000000000000000965000001458300
0202LOTE PADRAO                   SID TUBARAO PN *       CSTB4       010VISTA          000000000028700000000294000000002800000000000000000000280000012800000
0202LOTE PADRAO                   BRADESPAR   PN *       BRAP4       010VISTA          000000000000590000000006000000000056000000000000000000005600167336000
0202LOTE PADRAO                   NET         PN         PLIM4       010VISTA          000000000002600000000026000000000227000000000000000000022700000309600
0202LOTE PADRAO                   TELE CTR OESPN * EJ    TCOC4       010VISTA          000000000003900000000040000000000381000000000000000000038000110021000
0202LOTE PADRAO                   TELEMAR N L PNA* EJ    TMAR5       010VISTA          000000000050600000000517000000004900000000000000000000492000008205900
0202LOTE PADRAO                   GERDAU      PN * EJ    GGBR4       010VISTA          000000000030800000000310000000002950000000000000000000296000011732300
0202LOTE PADRAO                   BRASIL      ON *       BBAS3       010VISTA          000000000010800000000108000000000980000000000000000000099000006394200
