00BDIN9999BOVESPA 99992002090220020902
0101IBOVESPA                      0103830103120104770000000000000000002002090200000020020902010378000000
0202LOTE PADRAO                   EMBRATEL PARPN *       EBTP4       010VISTA          000000000002800000000028000000000273000000000000000000028100297766000
0202LOTE PADRAO                   TRAN PAULISTPN * EJ    TRPL4       010VISTA          000000000005500000000056000000000550000000000000000000055000008872000
0202LOTE PADRAO                   EMBRATEL PARON *       EBTP3       010VISTA          000000000003700000000037000000000360000000000000000000037100082138300
0202LOTE PADRAO                   TELEMAR     PN * EJ    TNLP4       010VISTA          000000000026700000000267000000002600000000000000000000263000069534800
0202LOTE PADRAO                   ITAUBANCO   PN * EJ    ITAU4       010VISTA          000000000147000000001474000000014450000000000000000001460000004483500
0202LOTE PADRAO                   TELEMAR     ON * EJ    TNLP3       010VISTA          000000000020500000000205000000001990000000000000000000200000024771500
0202LOTE PADRAO                   SID NACIONALON *       CSNA3       010VISTA          000000000040600000000412000000004050000000000000000000405000002458200
0202LOTE PADRAO                   TELE LEST CLPN *       TLCP4       010VISTA          000000000000460000000004900000000045000000000000000000004700148778000
0202LOTE PADRAO                   CRT CELULAR PNA* EJ    CRTP5       010VISTA          000000000370000000003760000000037000000000000000000003740000000458300
0202LOTE PADRAO                   IPIRANGA PETPN *       PTIP4       010VISTA          000000000012000000000120000000001170000000000000000000119000000418000
0202LOTE PADRAO                   BRASIL T PARPN *       BRTP4       010VISTA          000000000018000000000181000000001750000000000000000000176000034198700
0202LOTE PADRAO                   BRASIL T PARON *       BRTP3       010VISTA          000000000013500000000138000000001310000000000000000000136000013280200
0202LOTE PADRAO                   KLABIN S/A  PN         KLBN4       010VISTA          000000000000940000000009400000000091000000000000000000009200000010800
0202LOTE PADRAO                   ACESITA     PN *       ACES4       010VISTA          000000000000680000000006800000000067000000000000000000006700120629000
0202LOTE PADRAO                   PETROBRAS   PN         PETR4       010VISTA          000000000044000000000442000000004370000000000000000000441000000028100
0202LOTE PADRAO                   ELETROBRAS  PNB*       ELET6       010VISTA          000000000021700000000218000000002150000000000000000000216000022244000
0202LOTE PADRAO                   PETROBRAS   ON         PETR3       010VISTA          000000000048100000000487000000004720000000000000000000482500000007400
0202LOTE PADRAO                   COMGAS      PNA*       CGAS5       010VISTA          000000000064000000000650000000006200000000000000000000625000005999400
0202LOTE PADRAO                   SOUZA CRUZ  ON EJ      CRUZ3       010VISTA          000000000014900000000149000000001480000000000000000000148000000011300
0202LOTE PADRAO                   ELETROBRAS  ON *       ELET3       010VISTA          000000000022000000000223000000002190000000000000000000222000010679300
0202LOTE PADRAO                   CELESC      PNB        CLSC6       010VISTA          000000000000590000000005900000000056000000000000000000005700000208900
0202LOTE PADRAO                   BRADESCO    PN * EJ    BBDC4       010VISTA          000000000010300000000104000000001000000000000000000000104000120042000
0202LOTE PADRAO                   CESP        PN *       CESP4       010VISTA          000000000008000000000080000000000790000000000000000000079000005129600
0202LOTE PADRAO                   LIGHT       ON *       LIGH3       010VISTA          000000000077900000000779000000007540000000000000000000754000000558700
0202LOTE PADRAO                   TELESP CL PAPN *       TSPP4       010VISTA          000000000004000000000041000000000380000000000000000000040000484440000
0202LOTE PADRAO                   VALE R DOCE PNA        VALE5       010VISTA          000000000070000000000700000000006830000000000000000000690000000023800
0202LOTE PADRAO                   COPEL       PNB*       CPLE6       010VISTA          000000000010800000000108000000001050000000000000000000105000019490100
0202LOTE PADRAO                   VALE R DOCE ON         VALE3       010VISTA          000000000075400000000757500000007500000000000000000000750000000000700
0202LOTE PADRAO                   ARACRUZ     PNB        ARCZ6       010VISTA          000000000005200000000053000000000520000000000000000000053000000027600
0202LOTE PADRAO                   TELEMIG PARTPN *       TMCP4       010VISTA          000000000002980000000029800000000280000000000000000000028000059308000
0202LOTE PADRAO                   BRASIL TELECPN *       BRTO4       010VISTA          000000000012300000000124000000001160000000000000000000118000036783400
0202LOTE PADRAO                   SABESP      ON *       SBSP3       010VISTA          000000000086500000000865000000008500000000000000000000854000001856700
0202LOTE PADRAO                   BRASKEM     PNA*       BRKM5       010VISTA          000000000320000000003200000000031350000000000000000003135000000106500
0202LOTE PADRAO                   EMBRAER     PN EJ      EMBR4       010VISTA          000000000013100000000133000000001300000000000000000000130000000018800
0202LOTE PADRAO                   TELESP      PN * EJ    TLPP4       010VISTA          000000000034000000000340000000003300000000000000000000338000007898000
0202LOTE PADRAO                   EMBRAER     ON EJ      EMBR3       010VISTA          000000000012000000000120000000001175000000000000000000117000000010300
0202LOTE PADRAO                   AMBEV       PN *       AMBV4       010VISTA          000000000427000000004285000000042300000000000000000004271000000517000
0202LOTE PADRAO                   USIMINAS    PNA        USIM5       010VISTA          000000000005700000000058000000000575000000000000000000057000000028800
0202LOTE PADRAO                   ELETROPAULO PN *       ELPL4       010VISTA          000000000039000000000390000000003620000000000000000000373000002633700
0202LOTE PADRAO                   TELE NORD CLPN *       TNEP4       010VISTA          000000000002600000000026000000000250000000000000000000025000096536100
0202LOTE PADRAO                   CEMIG       PN * EJ    CMIG4       010VISTA          000000000027800000000280000000002700000000000000000000278000007591500
0202LOTE PADRAO                   TELE CL SUL PN * EJ    TCSL4       010VISTA          000000000002600000000026000000000250000000000000000000026000047983800
0202LOTE PADRAO                   TRACTEBEL   ON *       TBLE3       010VISTA          000000000003960000000039800000000390000000000000000000039400005052900
0202LOTE PADRAO                   CEMIG       ON * EJ    CMIG3       010VISTA          000000000024600000000254000000002430000000000000000000246000000372900
0202LOTE PADRAO                   TELE CL SUL ON * EJ    TCSL3       010VISTA          000000000002200000000022000000000210000000000000000000021000018202200
0202LOTE PADRAO                   ITAUSA      PN         ITSA4       010VISTA          000000000001790000000017900000000174000000000000000000017400000138800
0202LOTE PADRAO                   V C P       PN *       VCPA4       010VISTA          000000000102300000001035000000009850000000000000000000986000000285400
0202LOTE PADRAO                   SID TUBARAO PN *       CSTB4       010VISTA          000000000025500000000260000000002510000000000000000000255000001129900
0202LOTE PADRAO                   BRADESPAR   PN *       BRAP4       010VISTA          000000000000510000000005200000000050000000000000000000005000137359000
0202LOTE PADRAO                   NET         PN         PLIM4       010VISTA          000000000000520000000005600000000051000000000000000000005500001659400
0202LOTE PADRAO                   TELE CTR OESPN * EJ    TCOC4       010VISTA          000000000003200000000033000000000310000000000000000000032700083596700
0202LOTE PADRAO                   TELEMAR N L PNA* EJ    TMAR5       010VISTA          000000000047000000000470000000004620000000000000000000463000006242200
0202LOTE PADRAO                   GERDAU      PN * EJ    GGBR4       010VISTA          000000000032700000000327000000003230000000000000000000325000002041500
0202LOTE PADRAO                   BRASIL      ON *       BBAS3       010VISTA          000000000010800000000108000000001050000000000000000000107000001556100
