00BDIN9999BOVESPA 99992002111120021111
0101IBOVESPA                      0098730098680099770000000000000000002002111100000020021111009886000000
0202LOTE PADRAO                   EMBRATEL PARPN *       EBTP4       010VISTA          000000000002100000000022000000000210000000000000000000022000111735000
0202LOTE PADRAO                   TRAN PAULISTPN * EJ    TRPL4       010VISTA          000000000005000000000051000000000500000000000000000000050000007341600
0202LOTE PADRAO                   EMBRATEL PARON *       EBTP3       010VISTA          000000000002520000000026000000000250000000000000000000025000022827400
0202LOTE PADRAO                   TELEMAR     PN * EJ    TNLP4       010VISTA          000000000024200000000244000000002400000000000000000000241000196055000
0202LOTE PADRAO                   ITAUBANCO   PN * EJ    ITAU4       010VISTA          000000000149500000001525000000014950000000000000000001520000007748000
0202LOTE PADRAO                   TELEMAR     ON * EJ    TNLP3       010VISTA          000000000018300000000183000000001780000000000000000000182000008694500
0202LOTE PADRAO                   SID NACIONALON *       CSNA3       010VISTA          000000000040600000000406000000003950000000000000000000397000008157400
0202LOTE PADRAO                   TELE LEST CLPN *       TLCP4       010VISTA          000000000000410000000004100000000039000000000000000000003900036639800
0202LOTE PADRAO                   CRT CELULAR PNA* EJ    CRTP5       010VISTA          000000000334000000003340000000033000000000000000000003300000000449200
0202LOTE PADRAO                   IPIRANGA PETPN *       PTIP4       010VISTA          000000000008300000000083000000000810000000000000000000081000001106400
0202LOTE PADRAO                   BRASIL T PARPN *       BRTP4       010VISTA          000000000017800000000181000000001750000000000000000000175000066382800
0202LOTE PADRAO                   BRASIL T PARON *       BRTP3       010VISTA          000000000013700000000137000000001330000000000000000000133000017742300
0202LOTE PADRAO                   KLABIN S/A  PN         KLBN4       010VISTA          000000000000940000000009400000000092000000000000000000009400000028800
0202LOTE PADRAO                   ACESITA     PN *       ACES4       010VISTA          000000000000710000000007300000000071000000000000000000007100070926800
0202LOTE PADRAO                   PETROBRAS   PN         PETR4       010VISTA          000000000043800000000442000000004360000000000000000000439000000037100
0202LOTE PADRAO                   ELETROBRAS  PNB*       ELET6       010VISTA          000000000017300000000175000000001700000000000000000000171000023322600
0202LOTE PADRAO                   PETROBRAS   ON         PETR3       010VISTA          000000000047000000000477000000004700000000000000000000476000000012900
0202LOTE PADRAO                   COMGAS      PNA*       CGAS5       010VISTA          000000000058200000000582000000005620000000000000000000575000000870400
0202LOTE PADRAO                   SOUZA CRUZ  ON EJ      CRUZ3       010VISTA          000000000018600000000188000000001850000000000000000000186000000005800
0202LOTE PADRAO                   ELETROBRAS  ON *       ELET3       010VISTA          000000000018000000000180000000001730000000000000000000175000014501700
0202LOTE PADRAO                   CELESC      PNB        CLSC6       010VISTA          000000000000500000000005100000000049000000000000000000005000000035000
0202LOTE PADRAO                   BRADESCO    PN * EJ    BBDC4       010VISTA          000000000009000000000092000000000900000000000000000000091000090640700
0202LOTE PADRAO                   CESP        PN *       CESP4       010VISTA          000000000006200000000063000000000620000000000000000000062000004625800
0202LOTE PADRAO                   LIGHT       ON *       LIGH3       010VISTA          000000000049500000000509000000004900000000000000000000500000000451000
0202LOTE PADRAO                   TELESP CL PAPN *       TSPP4       010VISTA          000000000003960000000040000000000390000000000000000000039000164884000
0202LOTE PADRAO                   VALE R DOCE PNA        VALE5       010VISTA          000000000091000000000910000000008690000000000000000000887000000015300
0202LOTE PADRAO                   COPEL       PNB*       CPLE6       010VISTA          000000000007500000000077000000000740000000000000000000076000048834400
0202LOTE PADRAO                   VALE R DOCE ON         VALE3       010VISTA          000000000093900000000939000000009000000000000000000000933000000011800
0202LOTE PADRAO                   ARACRUZ     PNB        ARCZ6       010VISTA          000000000005500000000055000000000530000000000000000000053000000038800
0202LOTE PADRAO                   TELEMIG PARTPN *       TMCP4       010VISTA          000000000003000000000031000000000300000000000000000000031000079023400
0202LOTE PADRAO                   BRASIL TELECPN *       BRTO4       010VISTA          000000000011000000000113000000001100000000000000000000110000143211000
0202LOTE PADRAO                   SABESP      ON *       SBSP3       010VISTA          000000000087900000000882000000008580000000000000000000859000002454400
0202LOTE PADRAO                   BRASKEM     PNA*       BRKM5       010VISTA          000000000244900000002479000000024300000000000000000002450000000058400
0202LOTE PADRAO                   EMBRAER     PN EJ      EMBR4       010VISTA          000000000014400000000144000000001410000000000000000000142000000013400
0202LOTE PADRAO                   TELESP      PN * EJ    TLPP4       010VISTA          000000000036750000000372000000003650000000000000000000367000004532300
0202LOTE PADRAO                   EMBRAER     ON EJ      EMBR3       010VISTA          000000000013200000000132000000001310000000000000000000132500000003500
0202LOTE PADRAO                   AMBEV       PN *       AMBV4       010VISTA          000000000520000000005299000000052000000000000000000005250000000783000
0202LOTE PADRAO                   USIMINAS    PNA        USIM5       010VISTA          000000000005200000000054000000000520000000000000000000052000000018300
0202LOTE PADRAO                   ELETROPAULO PN *       ELPL4       010VISTA          000000000024700000000247000000002360000000000000000000236000000684400
0202LOTE PADRAO                   TELE NORD CLPN *       TNEP4       010VISTA          000000000002700000000027300000000260000000000000000000026000057862300
0202LOTE PADRAO                   CEMIG       PN * EJ    CMIG4       010VISTA          000000000023500000000239000000002310000000000000000000239000011618000
0202LOTE PADRAO                   TELE CL SUL PN * EJ    TCSL4       010VISTA          000000000002900000000029000000000280000000000000000000028000092808100
0202LOTE PADRAO                   TRACTEBEL   ON *       TBLE3       010VISTA          000000000003300000000033000000000320000000000000000000032000004672500
0202LOTE PADRAO                   CEMIG       ON * EJ    CMIG3       010VISTA          000000000022000000000220000000002160000000000000000000218000000512500
0202LOTE PADRAO                   TELE CL SUL ON * EJ    TCSL3       010VISTA          000000000002200000000022000000000200000000000000000000021000035443000
0202LOTE PADRAO                   ITAUSA      PN         ITSA4       010VISTA          000000000001800000000018000000000181000000000000000000018000000208500
0202LOTE PADRAO                   V C P       PN *       VCPA4       010VISTA          000000000113900000001139000000010600000000000000000001065000001587700
0202LOTE PADRAO                   SID TUBARAO PN *       CSTB4       010VISTA          000000000036500000000365000000003480000000000000000000359000004106100
0202LOTE PADRAO                   BRADESPAR   PN *       BRAP4       010VISTA          000000000000470000000004800000000046000000000000000000004700097557100
0202LOTE PADRAO                   NET         PN         PLIM4       010VISTA          000000000000310000000003300000000031000000000000000000003200000311400
0202LOTE PADRAO                   TELE CTR OESPN * EJ    TCOC4       010VISTA          000000000003700000000038000000000370000000000000000000038000104856000
0202LOTE PADRAO                   TELEMAR N L PNA* EJ    TMAR5       010VISTA          000000000039500000000418000000003950000000000000000000406000031328900
0202LOTE PADRAO                   GERDAU      PN * EJ    GGBR4       010VISTA          000000000033000000000335000000003300000000000000000000335000005499800
0202LOTE PADRAO                   BRASIL      ON *       BBAS3       010VISTA          000000000010300000000105000000001030000000000000000000103000026062100
