00BDIN9999BOVESPA 99992002100920021009
0101IBOVESPA                      0088380086040092910000000000000000002002100900000020021009008715000000
0202LOTE PADRAO                   EMBRATEL PARPN *       EBTP4       010VISTA          000000000002200000000022000000000210000000000000000000022000197184000
0202LOTE PADRAO                   TRAN PAULISTPN * EJ    TRPL4       010VISTA          000000000004800000000050000000000480000000000000000000050000009010400
0202LOTE PADRAO                   EMBRATEL PARON *       EBTP3       010VISTA          000000000002800000000030000000000270000000000000000000028000015701000
0202LOTE PADRAO                   TELEMAR     PN * EJ    TNLP4       010VISTA          000000000021400000000215000000002100000000000000000000211000199952000
0202LOTE PADRAO                   ITAUBANCO   PN * EJ    ITAU4       010VISTA          000000000123500000001235000000011900000000000000000001200000009277400
0202LOTE PADRAO                   TELEMAR     ON * EJ    TNLP3       010VISTA          000000000015800000000158000000001530000000000000000000156000009675300
0202LOTE PADRAO                   SID NACIONALON *       CSNA3       010VISTA          000000000031100000000316000000003050000000000000000000308000012936500
0202LOTE PADRAO                   TELE LEST CLPN *       TLCP4       010VISTA          000000000000370000000003800000000036000000000000000000003600076158100
0202LOTE PADRAO                   CRT CELULAR PNA* EJ    CRTP5       010VISTA          000000000313000000003179000000031200000000000000000003179000000056600
0202LOTE PADRAO                   IPIRANGA PETPN *       PTIP4       010VISTA          000000000008900000000089000000000830000000000000000000083000001792000
0202LOTE PADRAO                   BRASIL T PARPN *       BRTP4       010VISTA          000000000016800000000177000000001670000000000000000000174000058122100
0202LOTE PADRAO                   BRASIL T PARON *       BRTP3       010VISTA          000000000012500000000131000000001250000000000000000000126000006906000
0202LOTE PADRAO                   KLABIN S/A  PN         KLBN4       010VISTA          000000000000870000000009000000000087000000000000000000009000000025600
0202LOTE PADRAO                   ACESITA     PN *       ACES4       010VISTA          000000000000600000000006300000000059000000000000000000006200096200100
0202LOTE PADRAO                   PETROBRAS   PN         PETR4       010VISTA          000000000038750000000392000000003800000000000000000000392000000111000
0202LOTE PADRAO                   ELETROBRAS  PNB*       ELET6       010VISTA          000000000015500000000158000000001530000000000000000000156000062788400
0202LOTE PADRAO                   PETROBRAS   ON         PETR3       010VISTA          000000000043000000000432000000004180000000000000000000432000000023900
0202LOTE PADRAO                   COMGAS      PNA*       CGAS5       010VISTA          000000000056100000000580000000005610000000000000000000579000000080000
0202LOTE PADRAO                   SOUZA CRUZ  ON EJ      CRUZ3       010VISTA          000000000016800000000176000000001680000000000000000000170000000018900
0202LOTE PADRAO                   ELETROBRAS  ON *       ELET3       010VISTA          000000000015400000000156000000001510000000000000000000152000016674400
0202LOTE PADRAO                   CELESC      PNB        CLSC6       010VISTA          000000000000500000000005100000000050000000000000000000005100000088800
0202LOTE PADRAO                   BRADESCO    PN * EJ    BBDC4       010VISTA          000000000008000000000080000000000770000000000000000000080000390989000
0202LOTE PADRAO                   CESP        PN *       CESP4       010VISTA          000000000006200000000063000000000600000000000000000000062000005067400
0202LOTE PADRAO                   LIGHT       ON *       LIGH3       010VISTA          000000000056000000000560000000005410000000000000000000550000000066200
0202LOTE PADRAO                   TELESP CL PAPN *       TSPP4       010VISTA          000000000002800000000028000000000275000000000000000000028100172027000
0202LOTE PADRAO                   VALE R DOCE PNA        VALE5       010VISTA          000000000083500000000854000000008320000000000000000000854000000023200
0202LOTE PADRAO                   COPEL       PNB*       CPLE6       010VISTA          000000000008000000000082500000000780000000000000000000080000017761600
0202LOTE PADRAO                   VALE R DOCE ON         VALE3       010VISTA          000000000086300000000870000000008620000000000000000000869000000010900
0202LOTE PADRAO                   ARACRUZ     PNB        ARCZ6       010VISTA          000000000005400000000055000000000540000000000000000000054000000080700
0202LOTE PADRAO                   TELEMIG PARTPN *       TMCP4       010VISTA          000000000002300000000023000000000230000000000000000000023000046821400
0202LOTE PADRAO                   BRASIL TELECPN *       BRTO4       010VISTA          000000000011000000000111000000001060000000000000000000110000032704300
0202LOTE PADRAO                   SABESP      ON *       SBSP3       010VISTA          000000000081000000000819000000007870000000000000000000800000000859400
0202LOTE PADRAO                   BRASKEM     PNA*       BRKM5       010VISTA          000000000226000000002460000000022600000000000000000002360000000068000
0202LOTE PADRAO                   EMBRAER     PN EJ      EMBR4       010VISTA          000000000013100000000132500000001240000000000000000000124000000148200
0202LOTE PADRAO                   TELESP      PN * EJ    TLPP4       010VISTA          000000000030000000000306000000003000000000000000000000301000009270400
0202LOTE PADRAO                   EMBRAER     ON EJ      EMBR3       010VISTA          000000000012000000000122500000001170000000000000000000117000000019000
0202LOTE PADRAO                   AMBEV       PN *       AMBV4       010VISTA          000000000430000000004350000000042510000000000000000004289000000693500
0202LOTE PADRAO                   USIMINAS    PNA        USIM5       010VISTA          000000000004400000000044000000000420000000000000000000043000000059400
0202LOTE PADRAO                   ELETROPAULO PN *       ELPL4       010VISTA          000000000024100000000244000000002310000000000000000000235000001317300
0202LOTE PADRAO                   TELE NORD CLPN *       TNEP4       010VISTA          000000000002200000000022000000000210000000000000000000021000035413000
0202LOTE PADRAO                   CEMIG       PN * EJ    CMIG4       010VISTA          000000000021100000000211000000002010000000000000000000206000056645200
0202LOTE PADRAO                   TELE CL SUL PN * EJ    TCSL4       010VISTA          000000000002300000000023000000000220000000000000000000022000028320200
0202LOTE PADRAO                   TRACTEBEL   ON *       TBLE3       010VISTA          000000000003700000000039800000000370000000000000000000038000003068300
0202LOTE PADRAO                   CEMIG       ON * EJ    CMIG3       010VISTA          000000000019500000000202000000001950000000000000000000201000002947400
0202LOTE PADRAO                   TELE CL SUL ON * EJ    TCSL3       010VISTA          000000000002000000000020000000000180000000000000000000019000007545700
0202LOTE PADRAO                   ITAUSA      PN         ITSA4       010VISTA          000000000001470000000015100000000140000000000000000000014000000542300
0202LOTE PADRAO                   V C P       PN *       VCPA4       010VISTA          000000000106500000001099000000010650000000000000000001075000000775300
0202LOTE PADRAO                   SID TUBARAO PN *       CSTB4       010VISTA          000000000031000000000316000000003060000000000000000000312000003422100
0202LOTE PADRAO                   BRADESPAR   PN *       BRAP4       010VISTA          000000000000440000000004400000000043000000000000000000004400066721900
0202LOTE PADRAO                   NET         PN         PLIM4       010VISTA          000000000000220000000002300000000022000000000000000000002300000287100
0202LOTE PADRAO                   TELE CTR OESPN * EJ    TCOC4       010VISTA          000000000002800000000030000000000270000000000000000000030000103157000
0202LOTE PADRAO                   TELEMAR N L PNA* EJ    TMAR5       010VISTA          000000000040000000000409000000003910000000000000000000407000008825700
0202LOTE PADRAO                   GERDAU      PN * EJ    GGBR4       010VISTA          000000000028100000000290000000002750000000000000000000286000011833600
0202LOTE PADRAO                   BRASIL      ON *       BBAS3       010VISTA          000000000008500000000085000000000820000000000000000000085000016435500
