00BDIN9999BOVESPA 99992002102320021023
0101IBOVESPA                      0093420092630098400000000000000000002002102300000020021023009840000000
0202LOTE PADRAO                   EMBRATEL PARPN *       EBTP4       010VISTA          000000000002270000000024000000000225000000000000000000024000828826000
0202LOTE PADRAO                   TRAN PAULISTPN * EJ    TRPL4       010VISTA          000000000005200000000053000000000510000000000000000000053000017637700
0202LOTE PADRAO                   EMBRATEL PARON *       EBTP3       010VISTA          000000000002900000000030000000000280000000000000000000030000087857200
0202LOTE PADRAO                   TELEMAR     PN * EJ    TNLP4       010VISTA          000000000022800000000245000000002260000000000000000000245000640806000
0202LOTE PADRAO                   ITAUBANCO   PN * EJ    ITAU4       010VISTA          000000000131000000001395000000012590000000000000000001395000024212500
0202LOTE PADRAO                   TELEMAR     ON * EJ    TNLP3       010VISTA          000000000016500000000185000000001650000000000000000000185000018799400
0202LOTE PADRAO                   SID NACIONALON *       CSNA3       010VISTA          000000000037600000000405000000003760000000000000000000405000028023200
0202LOTE PADRAO                   TELE LEST CLPN *       TLCP4       010VISTA          000000000000390000000004100000000038000000000000000000004000842096000
0202LOTE PADRAO                   CRT CELULAR PNA* EJ    CRTP5       010VISTA          000000000310000000003190000000030100000000000000000003190000000442000
0202LOTE PADRAO                   IPIRANGA PETPN *       PTIP4       010VISTA          000000000007700000000079000000000760000000000000000000079000006749800
0202LOTE PADRAO                   BRASIL T PARPN *       BRTP4       010VISTA          000000000017800000000191000000001780000000000000000000191000225626000
0202LOTE PADRAO                   BRASIL T PARON *       BRTP3       010VISTA          000000000013100000000137000000001310000000000000000000137000018173100
0202LOTE PADRAO                   KLABIN S/A  PN         KLBN4       010VISTA          000000000000870000000009000000000086000000000000000000009000000065100
0202LOTE PADRAO                   ACESITA     PN *       ACES4       010VISTA          000000000000700000000007200000000068000000000000000000007200216692000
0202LOTE PADRAO                   PETROBRAS   PN         PETR4       010VISTA          000000000039900000000422000000003900000000000000000000422000000181200
0202LOTE PADRAO                   ELETROBRAS  PNB*       ELET6       010VISTA          000000000017800000000185000000001680000000000000000000185000085442600
0202LOTE PADRAO                   PETROBRAS   ON         PETR3       010VISTA          000000000043100000000462000000004310000000000000000000462000000051400
0202LOTE PADRAO                   COMGAS      PNA*       CGAS5       010VISTA          000000000060900000000609000000005700000000000000000000590000001427800
0202LOTE PADRAO                   SOUZA CRUZ  ON EJ      CRUZ3       010VISTA          000000000017600000000187000000001760000000000000000000187000000022900
0202LOTE PADRAO                   ELETROBRAS  ON *       ELET3       010VISTA          000000000018000000000192000000001780000000000000000000192000028347400
0202LOTE PADRAO                   CELESC      PNB        CLSC6       010VISTA          000000000000520000000005300000000051000000000000000000005200000350900
0202LOTE PADRAO                   BRADESCO    PN * EJ    BBDC4       010VISTA          000000000008600000000091000000000850000000000000000000091000459185000
0202LOTE PADRAO                   CESP        PN *       CESP4       010VISTA          000000000006300000000065400000000610000000000000000000064000014368000
0202LOTE PADRAO                   LIGHT       ON *       LIGH3       010VISTA          000000000054000000000570000000005220000000000000000000568000000692100
0202LOTE PADRAO                   TELESP CL PAPN *       TSPP4       010VISTA          000000000003400000000035000000000320000000000000000000034000605066000
0202LOTE PADRAO                   VALE R DOCE PNA        VALE5       010VISTA          000000000088000000000905000000008770000000000000000000900000000039500
0202LOTE PADRAO                   COPEL       PNB*       CPLE6       010VISTA          000000000007900000000082000000000780000000000000000000082000083790000
0202LOTE PADRAO                   VALE R DOCE ON         VALE3       010VISTA          000000000090700000000938000000009070000000000000000000938000000023200
0202LOTE PADRAO                   ARACRUZ     PNB        ARCZ6       010VISTA          000000000006000000000062000000000600000000000000000000062000000038600
0202LOTE PADRAO                   TELEMIG PARTPN *       TMCP4       010VISTA          000000000002600000000027500000000250000000000000000000027500135803000
0202LOTE PADRAO                   BRASIL TELECPN *       BRTO4       010VISTA          000000000011500000000123000000001140000000000000000000123000222387000
0202LOTE PADRAO                   SABESP      ON *       SBSP3       010VISTA          000000000080000000000807000000007820000000000000000000800000005916600
0202LOTE PADRAO                   BRASKEM     PNA*       BRKM5       010VISTA          000000000221000000002220000000020500000000000000000002180000000430900
0202LOTE PADRAO                   EMBRAER     PN EJ      EMBR4       010VISTA          000000000014300000000150000000001420000000000000000000150000000190400
0202LOTE PADRAO                   TELESP      PN * EJ    TLPP4       010VISTA          000000000034100000000357000000003400000000000000000000357000007750300
0202LOTE PADRAO                   EMBRAER     ON EJ      EMBR3       010VISTA          000000000013300000000138000000001310000000000000000000138000000025900
0202LOTE PADRAO                   AMBEV       PN *       AMBV4       010VISTA          000000000442000000004700000000044125000000000000000004640000004185300
0202LOTE PADRAO                   USIMINAS    PNA        USIM5       010VISTA          000000000004750000000050000000000470000000000000000000050000000132700
0202LOTE PADRAO                   ELETROPAULO PN *       ELPL4       010VISTA          000000000025300000000268000000002530000000000000000000267000010292800
0202LOTE PADRAO                   TELE NORD CLPN *       TNEP4       010VISTA          000000000002300000000024000000000230000000000000000000024000120796000
0202LOTE PADRAO                   CEMIG       PN * EJ    CMIG4       010VISTA          000000000021800000000240000000002180000000000000000000240000071863800
0202LOTE PADRAO                   TELE CL SUL PN * EJ    TCSL4       010VISTA          000000000002700000000030000000000270000000000000000000030000107081000
0202LOTE PADRAO                   TRACTEBEL   ON *       TBLE3       010VISTA          000000000003800000000038000000000360000000000000000000037500013356900
0202LOTE PADRAO                   CEMIG       ON * EJ    CMIG3       010VISTA          000000000020500000000209000000002010000000000000000000209000006420000
0202LOTE PADRAO                   TELE CL SUL ON * EJ    TCSL3       010VISTA          000000000002100000000022500000000210000000000000000000022500032244400
0202LOTE PADRAO                   ITAUSA      PN         ITSA4       010VISTA          000000000001500000000016000000000155000000000000000000016000000412800
0202LOTE PADRAO                   V C P       PN *       VCPA4       010VISTA          000000000113000000001149000000011200000000000000000001149000001511500
0202LOTE PADRAO                   SID TUBARAO PN *       CSTB4       010VISTA          000000000033800000000352000000003250000000000000000000352000008369900
0202LOTE PADRAO                   BRADESPAR   PN *       BRAP4       010VISTA          000000000000450000000004900000000045000000000000000000004900501680000
0202LOTE PADRAO                   NET         PN         PLIM4       010VISTA          000000000000310000000003100000000028000000000000000000003000001368200
0202LOTE PADRAO                   TELE CTR OESPN * EJ    TCOC4       010VISTA          000000000003300000000034000000000320000000000000000000034000174338000
0202LOTE PADRAO                   TELEMAR N L PNA* EJ    TMAR5       010VISTA          000000000040000000000428000000004000000000000000000000428000031132500
0202LOTE PADRAO                   GERDAU      PN * EJ    GGBR4       010VISTA          000000000029300000000305000000002930000000000000000000305000029031500
0202LOTE PADRAO                   BRASIL      ON *       BBAS3       010VISTA          000000000009000000000091000000000880000000000000000000091000068500900
