00BDIN9999BOVESPA 99992002081520020815
0101IBOVESPA                      0093730091610094730000000000000000002002081500000020020815009183000000
0202LOTE PADRAO                   EMBRATEL PARPN *       EBTP4       010VISTA          000000000001600000000016000000000150000000000000000000016000183955000
0202LOTE PADRAO                   EMBRATEL PARON *       EBTP3       010VISTA          000000000002000000000020000000000180000000000000000000018000077630400
0202LOTE PADRAO                   TRAN PAULISTPN * EJ    TRPL4       010VISTA          000000000005400000000054000000000500000000000000000000051000011946300
0202LOTE PADRAO                   ITAUBANCO   PN * EJ    ITAU4       010VISTA          000000000129000000001290000000011900000000000000000001200000021661600
0202LOTE PADRAO                   TELEMAR     ON * EJ    TNLP3       010VISTA          000000000017100000000173000000001650000000000000000000170000010066800
0202LOTE PADRAO                   SID NACIONALON *       CSNA3       010VISTA          000000000036700000000371000000003470000000000000000000350000025550100
0202LOTE PADRAO                   TELE LEST CLPN *       TLCP4       010VISTA          000000000000390000000003900000000038000000000000000000003800037964800
0202LOTE PADRAO                   CRT CELULAR PNA* EJ    CRTP5       010VISTA          000000000355100000003600000000035000000000000000000003560000000311000
0202LOTE PADRAO                   IPIRANGA PETPN *       PTIP4       010VISTA          000000000011500000000115000000001110000000000000000000111000002266500
0202LOTE PADRAO                   BRASIL T PARPN *       BRTP4       010VISTA          000000000017100000000172500000001680000000000000000000170000095032800
0202LOTE PADRAO                   BRASIL T PARON *       BRTP3       010VISTA          000000000012400000000129000000001240000000000000000000126000007392300
0202LOTE PADRAO                   KLABIN S/A  PN         KLBN4       010VISTA          000000000000840000000008600000000083000000000000000000008600000022400
0202LOTE PADRAO                   ACESITA     PN *       ACES4       010VISTA          000000000000650000000006700000000065000000000000000000006700181056000
0202LOTE PADRAO                   PETROBRAS   PN         PETR4       010VISTA          000000000041200000000412000000004000000000000000000000408000000067800
0202LOTE PADRAO                   ELETROBRAS  PNB*       ELET6       010VISTA          000000000021000000000213000000001975000000000000000000199000036664900
0202LOTE PADRAO                   PETROBRAS   ON         PETR3       010VISTA          000000000044700000000457000000004400000000000000000000452000000018700
0202LOTE PADRAO                   COMGAS      PNA*       CGAS5       010VISTA          000000000045100000000451000000004300000000000000000000430000000474200
0202LOTE PADRAO                   SOUZA CRUZ  ON EJ      CRUZ3       010VISTA          000000000014100000000141000000001380000000000000000000138000000025300
0202LOTE PADRAO                   ELETROBRAS  ON *       ELET3       010VISTA          000000000021800000000218000000002030000000000000000000203000010259200
0202LOTE PADRAO                   CELESC      PNB        CLSC6       010VISTA          000000000000540000000005500000000053000000000000000000005500000165500
0202LOTE PADRAO                   BRADESCO    PN * EJ    BBDC4       010VISTA          000000000009000000000091000000000840000000000000000000084000303000000
0202LOTE PADRAO                   CESP        PN *       CESP4       010VISTA          000000000007000000000070000000000630000000000000000000063000006295700
0202LOTE PADRAO                   LIGHT       ON *       LIGH3       010VISTA          000000000071900000000720000000007000000000000000000000710000000078400
0202LOTE PADRAO                   TELESP CL PAPN *       TSPP4       010VISTA          000000000003500000000035000000000350000000000000000000035000176950000
0202LOTE PADRAO                   VALE R DOCE PNA        VALE5       010VISTA          000000000070000000000714000000007000000000000000000000710000000005600
0202LOTE PADRAO                   COPEL       PNB*       CPLE6       010VISTA          000000000009600000000096000000000900000000000000000000091000038901300
0202LOTE PADRAO                   VALE R DOCE ON         VALE3       010VISTA          000000000078000000000790000000007700000000000000000000770000000007100
0202LOTE PADRAO                   ARACRUZ     PNB        ARCZ6       010VISTA          000000000005500000000057100000000550000000000000000000055000000031400
0202LOTE PADRAO                   TELEMIG PARTPN *       TMCP4       010VISTA          000000000003000000000030000000000290000000000000000000029600064092800
0202LOTE PADRAO                   BRASIL TELECPN *       BRTO4       010VISTA          000000000010800000000110000000001040000000000000000000106000063766000
0202LOTE PADRAO                   SABESP      ON *       SBSP3       010VISTA          000000000085000000000860000000008050000000000000000000809000002294400
0202LOTE PADRAO                   BRASKEM     PNA*       BRKM5       010VISTA          000000000316500000003165000000030500000000000000000003100000000342800
0202LOTE PADRAO                   EMBRAER     PN EJ      EMBR4       010VISTA          000000000012600000000126000000001200000000000000000000125000000055900
0202LOTE PADRAO                   TELESP      PN * EJ    TLPP4       010VISTA          000000000031800000000318000000003080000000000000000000313000013156600
0202LOTE PADRAO                   EMBRAER     ON EJ      EMBR3       010VISTA          000000000011400000000115000000001100000000000000000000112000000013100
0202LOTE PADRAO                   AMBEV       PN *       AMBV4       010VISTA          000000000445000000004465000000043150000000000000000004320000001602400
0202LOTE PADRAO                   USIMINAS    PNA        USIM5       010VISTA          000000000005500000000056000000000510000000000000000000051000000076000
0202LOTE PADRAO                   ELETROPAULO PN *       ELPL4       010VISTA          000000000026900000000269000000002410000000000000000000245000015370300
0202LOTE PADRAO                   TELE NORD CLPN *       TNEP4       010VISTA          000000000002400000000024000000000230000000000000000000023000062634900
0202LOTE PADRAO                   CEMIG       PN * EJ    CMIG4       010VISTA          000000000024000000000240000000002230000000000000000000223000050664300
0202LOTE PADRAO                   TELE CL SUL PN * EJ    TCSL4       010VISTA          000000000002500000000025400000000230000000000000000000024000044355700
0202LOTE PADRAO                   TRACTEBEL   ON *       TBLE3       010VISTA          000000000004000000000042000000000400000000000000000000040000008754100
0202LOTE PADRAO                   CEMIG       ON * EJ    CMIG3       010VISTA          000000000022000000000220000000002100000000000000000000211000002325200
0202LOTE PADRAO                   TELE CL SUL ON * EJ    TCSL3       010VISTA          000000000002000000000020000000000200000000000000000000020000007043900
0202LOTE PADRAO                   ITAUSA      PN         ITSA4       010VISTA          000000000001500000000016000000000147000000000000000000014700000732500
0202LOTE PADRAO                   V C P       PN *       VCPA4       010VISTA          000000000099900000001024000000009800000000000000000000990000003997000
0202LOTE PADRAO                   SID TUBARAO PN *       CSTB4       010VISTA          000000000025500000000258000000002500000000000000000000250000007141300
0202LOTE PADRAO                   BRADESPAR   PN *       BRAP4       010VISTA          000000000000480000000004900000000046000000000000000000004700072464400
0202LOTE PADRAO                   NET         PN         PLIM4       010VISTA          000000000000400000000004100000000037000000000000000000003700000193200
0202LOTE PADRAO                   TELE CTR OESPN * EJ    TCOC4       010VISTA          000000000002810000000028000000000220000000000000000000023000375039000
0202LOTE PADRAO                   TELEMAR N L PNA* EJ    TMAR5       010VISTA          000000000038700000000400000000003750000000000000000000375000030183300
0202LOTE PADRAO                   GERDAU      PN * EJ    GGBR4       010VISTA          000000000030600000000317000000003060000000000000000000310000043751400
0202LOTE PADRAO                   BRASIL      ON *       BBAS3       010VISTA          000000000008600000000093000000000860000000000000000000091000007857000
