00BDIN9999BOVESPA 99992002080520020805
0101IBOVESPA                      0098480094520098480000000000000000002002080500000020020805009470000000
0202LOTE PADRAO                   EMBRATEL PARPN *       EBTP4       010VISTA          000000000001720000000017300000000160000000000000000000016000180727000
0202LOTE PADRAO                   EMBRATEL PARON *       EBTP3       010VISTA          000000000002600000000026000000000240000000000000000000024000027746900
0202LOTE PADRAO                   TRAN PAULISTPN * EJ    TRPL4       010VISTA          000000000005200000000053000000000520000000000000000000052500003049000
0202LOTE PADRAO                   ITAUBANCO   PN * EJ    ITAU4       010VISTA          000000000133000000001371000000013050000000000000000001339000020538800
0202LOTE PADRAO                   TELEMAR     ON * EJ    TNLP3       010VISTA          000000000018300000000183000000001630000000000000000000163000031720800
0202LOTE PADRAO                   SID NACIONALON *       CSNA3       010VISTA          000000000039300000000393000000003570000000000000000000357000019110700
0202LOTE PADRAO                   TELE LEST CLPN *       TLCP4       010VISTA          000000000000390000000003900000000036000000000000000000003600162119000
0202LOTE PADRAO                   CRT CELULAR PNA* EJ    CRTP5       010VISTA          000000000391000000003910000000038500000000000000000003850000000094400
0202LOTE PADRAO                   IPIRANGA PETPN *       PTIP4       010VISTA          000000000012300000000125000000001130000000000000000000113001010050000
0202LOTE PADRAO                   BRASIL T PARPN *       BRTP4       010VISTA          000000000015500000000155000000001480000000000000000000149000070733900
0202LOTE PADRAO                   BRASIL T PARON *       BRTP3       010VISTA          000000000011500000000118000000001100000000000000000000110000015045800
0202LOTE PADRAO                   KLABIN S/A  PN         KLBN4       010VISTA          000000000000860000000008900000000085000000000000000000008600000010500
0202LOTE PADRAO                   ACESITA     PN *       ACES4       010VISTA          000000000000630000000006400000000063000000000000000000006300064162400
0202LOTE PADRAO                   PETROBRAS   PN         PETR4       010VISTA          000000000043200000000432000000004080000000000000000000412000000112400
0202LOTE PADRAO                   ELETROBRAS  PNB*       ELET6       010VISTA          000000000021100000000211000000002060000000000000000000206000023217500
0202LOTE PADRAO                   PETROBRAS   ON         PETR3       010VISTA          000000000046300000000463000000004520000000000000000000460000000053300
0202LOTE PADRAO                   COMGAS      PNA*       CGAS5       010VISTA          000000000048500000000500000000004850000000000000000000499000000606800
0202LOTE PADRAO                   SOUZA CRUZ  ON EJ      CRUZ3       010VISTA          000000000014400000000144000000001400000000000000000000144000000018100
0202LOTE PADRAO                   ELETROBRAS  ON *       ELET3       010VISTA          000000000022200000000225000000002180000000000000000000220000016294400
0202LOTE PADRAO                   CELESC      PNB        CLSC6       010VISTA          000000000000510000000005200000000050000000000000000000005200000120700
0202LOTE PADRAO                   BRADESCO    PN * EJ    BBDC4       010VISTA          000000000009000000000092000000000890000000000000000000091000294859000
0202LOTE PADRAO                   CESP        PN *       CESP4       010VISTA          000000000007200000000072000000000700000000000000000000070000005563700
0202LOTE PADRAO                   LIGHT       ON *       LIGH3       010VISTA          000000000079000000000790000000007600000000000000000000760000000138900
0202LOTE PADRAO                   TELESP CL PAPN *       TSPP4       010VISTA          000000000003400000000034000000000330000000000000000000034000205337000
0202LOTE PADRAO                   VALE R DOCE PNA        VALE5       010VISTA          000000000070500000000705000000006810000000000000000000695000000023100
0202LOTE PADRAO                   COPEL       PNB*       CPLE6       010VISTA          000000000010750000000107500000001030000000000000000000104000019502700
0202LOTE PADRAO                   VALE R DOCE ON         VALE3       010VISTA          000000000076000000000770000000007550000000000000000000765000000011200
0202LOTE PADRAO                   ARACRUZ     PNB        ARCZ6       010VISTA          000000000005700000000059000000000570000000000000000000059000000124000
0202LOTE PADRAO                   TELEMIG PARTPN *       TMCP4       010VISTA          000000000003000000000031000000000281000000000000000000028100064261000
0202LOTE PADRAO                   BRASIL TELECPN *       BRTO4       010VISTA          000000000010500000000105000000001000000000000000000000101000042046900
0202LOTE PADRAO                   SABESP      ON *       SBSP3       010VISTA          000000000089000000000895000000008500000000000000000000850000000792100
0202LOTE PADRAO                   BRASKEM     PNA*       BRKM5       010VISTA          000000000364900000003649000000035600000000000000000003579000000092700
0202LOTE PADRAO                   EMBRAER     PN EJ      EMBR4       010VISTA          000000000014000000000141000000001360000000000000000000141000000052000
0202LOTE PADRAO                   TELESP      PN * EJ    TLPP4       010VISTA          000000000031500000000317000000003110000000000000000000313000003842200
0202LOTE PADRAO                   EMBRAER     ON EJ      EMBR3       010VISTA          000000000013300000000133000000001260000000000000000000128000000007300
0202LOTE PADRAO                   AMBEV       PN *       AMBV4       010VISTA          000000000429900000004299000000041000000000000000000004160000001638300
0202LOTE PADRAO                   USIMINAS    PNA        USIM5       010VISTA          000000000005300000000054000000000510000000000000000000052000000035100
0202LOTE PADRAO                   ELETROPAULO PN *       ELPL4       010VISTA          000000000026300000000263000000002410000000000000000000250000004073300
0202LOTE PADRAO                   TELE NORD CLPN *       TNEP4       010VISTA          000000000002700000000028000000000260000000000000000000026000086467300
0202LOTE PADRAO                   CEMIG       PN * EJ    CMIG4       010VISTA          000000000026600000000266000000002490000000000000000000264000022393100
0202LOTE PADRAO                   TELE CL SUL PN * EJ    TCSL4       010VISTA          000000000002700000000027000000000250000000000000000000025000098970100
0202LOTE PADRAO                   TRACTEBEL   ON *       TBLE3       010VISTA          000000000004250000000043000000000400000000000000000000040000014544300
0202LOTE PADRAO                   CEMIG       ON * EJ    CMIG3       010VISTA          000000000024500000000250000000002430000000000000000000243000000662700
0202LOTE PADRAO                   TELE CL SUL ON * EJ    TCSL3       010VISTA          000000000002300000000023000000000220000000000000000000022000006254900
0202LOTE PADRAO                   ITAUSA      PN         ITSA4       010VISTA          000000000001710000000017100000000160000000000000000000016000000167500
0202LOTE PADRAO                   V C P       PN *       VCPA4       010VISTA          000000000101500000001025000000009700000000000000000000970000002794900
0202LOTE PADRAO                   SID TUBARAO PN *       CSTB4       010VISTA          000000000026600000000270000000002650000000000000000000266000006224400
0202LOTE PADRAO                   BRADESPAR   PN *       BRAP4       010VISTA          000000000000500000000005100000000048000000000000000000004800109528000
0202LOTE PADRAO                   NET         PN         PLIM4       010VISTA          000000000000870000000008700000000070000000000000000000007000000429400
0202LOTE PADRAO                   TELE CTR OESPN * EJ    TCOC4       010VISTA          000000000003700000000038000000000360000000000000000000036000069520200
0202LOTE PADRAO                   TELEMAR N L PNA* EJ    TMAR5       010VISTA          000000000041000000000410000000003900000000000000000000390000011137800
0202LOTE PADRAO                   GERDAU      PN * EJ    GGBR4       010VISTA          000000000030300000000303000000002950000000000000000000298000010753400
0202LOTE PADRAO                   BRASIL      ON *       BBAS3       010VISTA          000000000009500000000095000000000900000000000000000000090000009411900
