00BDIN9999BOVESPA 99992002091120020911
0101IBOVESPA                      0099670099670102480000000000000000002002091100000020020911010182000000
0202LOTE PADRAO                   EMBRATEL PARPN *       EBTP4       010VISTA          000000000002500000000026000000000254000000000000000000026000377695000
0202LOTE PADRAO                   TRAN PAULISTPN * EJ    TRPL4       010VISTA          000000000005300000000054000000000520000000000000000000053000013466200
0202LOTE PADRAO                   EMBRATEL PARON *       EBTP3       010VISTA          000000000003300000000037000000000330000000000000000000037000109814000
0202LOTE PADRAO                   TELEMAR     PN * EJ    TNLP4       010VISTA          000000000025100000000258000000002510000000000000000000255000167873000
0202LOTE PADRAO                   ITAUBANCO   PN * EJ    ITAU4       010VISTA          000000000138800000001435000000013800000000000000000001429000010057300
0202LOTE PADRAO                   TELEMAR     ON * EJ    TNLP3       010VISTA          000000000019500000000199000000001950000000000000000000198000013709900
0202LOTE PADRAO                   SID NACIONALON *       CSNA3       010VISTA          000000000038400000000395000000003840000000000000000000390000005762900
0202LOTE PADRAO                   TELE LEST CLPN *       TLCP4       010VISTA          000000000000430000000004300000000042000000000000000000004300087617600
0202LOTE PADRAO                   CRT CELULAR PNA* EJ    CRTP5       010VISTA          000000000360000000003639000000035900000000000000000003600000000279700
0202LOTE PADRAO                   IPIRANGA PETPN *       PTIP4       010VISTA          000000000011100000000111000000001080000000000000000000108000000113000
0202LOTE PADRAO                   BRASIL T PARPN *       BRTP4       010VISTA          000000000018000000000181000000001730000000000000000000181000030737600
0202LOTE PADRAO                   BRASIL T PARON *       BRTP3       010VISTA          000000000013600000000140000000001360000000000000000000139000002227500
0202LOTE PADRAO                   KLABIN S/A  PN         KLBN4       010VISTA          000000000000890000000009000000000089000000000000000000009000000034700
0202LOTE PADRAO                   ACESITA     PN *       ACES4       010VISTA          000000000000640000000006600000000064000000000000000000006400097428100
0202LOTE PADRAO                   PETROBRAS   PN         PETR4       010VISTA          000000000047000000000477500000004660000000000000000000474000000072000
0202LOTE PADRAO                   ELETROBRAS  PNB*       ELET6       010VISTA          000000000019900000000206000000001980000000000000000000206000051442200
0202LOTE PADRAO                   PETROBRAS   ON         PETR3       010VISTA          000000000052000000000531000000005200000000000000000000530000000020700
0202LOTE PADRAO                   COMGAS      PNA*       CGAS5       010VISTA          000000000059900000000620000000005990000000000000000000616000000168900
0202LOTE PADRAO                   SOUZA CRUZ  ON EJ      CRUZ3       010VISTA          000000000015100000000151000000001500000000000000000000151000000021800
0202LOTE PADRAO                   ELETROBRAS  ON *       ELET3       010VISTA          000000000021000000000216000000002100000000000000000000216000059987600
0202LOTE PADRAO                   CELESC      PNB        CLSC6       010VISTA          000000000000540000000005600000000054000000000000000000005400000135000
0202LOTE PADRAO                   BRADESCO    PN * EJ    BBDC4       010VISTA          000000000009500000000100000000000950000000000000000000099000238310000
0202LOTE PADRAO                   CESP        PN *       CESP4       010VISTA          000000000006900000000069000000000675000000000000000000069000004352200
0202LOTE PADRAO                   LIGHT       ON *       LIGH3       010VISTA          000000000065900000000679000000006560000000000000000000662000000857200
0202LOTE PADRAO                   TELESP CL PAPN *       TSPP4       010VISTA          000000000003480000000036000000000340000000000000000000035000424936000
0202LOTE PADRAO                   VALE R DOCE PNA        VALE5       010VISTA          000000000073750000000738000000007300000000000000000000738000000004100
0202LOTE PADRAO                   COPEL       PNB*       CPLE6       010VISTA          000000000009600000000098000000000950000000000000000000095000078150400
0202LOTE PADRAO                   VALE R DOCE ON         VALE3       010VISTA          000000000079900000000802500000007970000000000000000000797000000001000
0202LOTE PADRAO                   ARACRUZ     PNB        ARCZ6       010VISTA          000000000005500000000055000000000540000000000000000000054000000031700
0202LOTE PADRAO                   TELEMIG PARTPN *       TMCP4       010VISTA          000000000002750000000028000000000275000000000000000000028000088985300
0202LOTE PADRAO                   BRASIL TELECPN *       BRTO4       010VISTA          000000000011700000000120000000001160000000000000000000118000046693900
0202LOTE PADRAO                   SABESP      ON *       SBSP3       010VISTA          000000000084000000000859000000008370000000000000000000840000004921700
0202LOTE PADRAO                   BRASKEM     PNA*       BRKM5       010VISTA          000000000288000000002900000000028800000000000000000002880000000067900
0202LOTE PADRAO                   EMBRAER     PN EJ      EMBR4       010VISTA          000000000013300000000133000000001310000000000000000000132500000030400
0202LOTE PADRAO                   TELESP      PN * EJ    TLPP4       010VISTA          000000000032700000000337000000003270000000000000000000333000007288400
0202LOTE PADRAO                   EMBRAER     ON EJ      EMBR3       010VISTA          000000000012000000000120000000001180000000000000000000118000000005400
0202LOTE PADRAO                   AMBEV       PN *       AMBV4       010VISTA          000000000425000000004395000000042500000000000000000004360000001071900
0202LOTE PADRAO                   USIMINAS    PNA        USIM5       010VISTA          000000000005300000000055000000000530000000000000000000054000000018000
0202LOTE PADRAO                   ELETROPAULO PN *       ELPL4       010VISTA          000000000032700000000340000000003270000000000000000000337000001568600
0202LOTE PADRAO                   TELE NORD CLPN *       TNEP4       010VISTA          000000000002400000000025600000000240000000000000000000025000070749700
0202LOTE PADRAO                   CEMIG       PN * EJ    CMIG4       010VISTA          000000000025300000000268000000002530000000000000000000265000025608400
0202LOTE PADRAO                   TELE CL SUL PN * EJ    TCSL4       010VISTA          000000000002500000000026000000000250000000000000000000025000062130200
0202LOTE PADRAO                   TRACTEBEL   ON *       TBLE3       010VISTA          000000000004000000000040000000000398000000000000000000039800002867400
0202LOTE PADRAO                   CEMIG       ON * EJ    CMIG3       010VISTA          000000000023900000000245000000002380000000000000000000241000000169200
0202LOTE PADRAO                   TELE CL SUL ON * EJ    TCSL3       010VISTA          000000000002100000000022000000000210000000000000000000021000040946500
0202LOTE PADRAO                   ITAUSA      PN         ITSA4       010VISTA          000000000001720000000017500000000171000000000000000000017300000158600
0202LOTE PADRAO                   V C P       PN *       VCPA4       010VISTA          000000000103500000001035000000010100000000000000000001015000000491100
0202LOTE PADRAO                   SID TUBARAO PN *       CSTB4       010VISTA          000000000025750000000258000000002550000000000000000000258000008646200
0202LOTE PADRAO                   BRADESPAR   PN *       BRAP4       010VISTA          000000000000470000000004800000000046000000000000000000004700028782400
0202LOTE PADRAO                   NET         PN         PLIM4       010VISTA          000000000000420000000004400000000041000000000000000000004100000458300
0202LOTE PADRAO                   TELE CTR OESPN * EJ    TCOC4       010VISTA          000000000003300000000035000000000330000000000000000000035000366079000
0202LOTE PADRAO                   TELEMAR N L PNA* EJ    TMAR5       010VISTA          000000000044500000000454000000004420000000000000000000449000014997600
0202LOTE PADRAO                   GERDAU      PN * EJ    GGBR4       010VISTA          000000000032800000000328000000003225000000000000000000328000002377300
0202LOTE PADRAO                   BRASIL      ON *       BBAS3       010VISTA          000000000011000000000110000000001040000000000000000000104000032596500
