00BDIN9999BOVESPA 99992002112520021125
0101IBOVESPA                      0104070102340104470000000000000000002002112500000020021125010246000000
0202LOTE PADRAO                   EMBRATEL PARPN *       EBTP4       010VISTA          000000000003000000000030000000000275000000000000000000028000901213000
0202LOTE PADRAO                   TRAN PAULISTPN * EJ    TRPL4       010VISTA          000000000005200000000053000000000520000000000000000000052500009291900
0202LOTE PADRAO                   EMBRATEL PARON *       EBTP3       010VISTA          000000000003700000000037000000000320000000000000000000035000098480600
0202LOTE PADRAO                   TELEMAR     PN * EJ    TNLP4       010VISTA          000000000025900000000263000000002580000000000000000000259000223868000
0202LOTE PADRAO                   ITAUBANCO   PN * EJ    ITAU4       010VISTA          000000000148500000001495000000014780000000000000000001489000007577900
0202LOTE PADRAO                   TELEMAR     ON * EJ    TNLP3       010VISTA          000000000019100000000194000000001860000000000000000000188000019781800
0202LOTE PADRAO                   SID NACIONALON *       CSNA3       010VISTA          000000000046000000000460000000004420000000000000000000445000048005000
0202LOTE PADRAO                   TELE LEST CLPN *       TLCP4       010VISTA          000000000000430000000004400000000041000000000000000000004200195443000
0202LOTE PADRAO                   CRT CELULAR PNA* EJ    CRTP5       010VISTA          000000000315000000003200000000031400000000000000000003180000000518100
0202LOTE PADRAO                   IPIRANGA PETPN *       PTIP4       010VISTA          000000000007750000000077500000000750000000000000000000077000002070000
0202LOTE PADRAO                   BRASIL T PARPN *       BRTP4       010VISTA          000000000018000000000184000000001800000000000000000000181000048499000
0202LOTE PADRAO                   BRASIL T PARON *       BRTP3       010VISTA          000000000014100000000141000000001350000000000000000000136000004301000
0202LOTE PADRAO                   KLABIN S/A  PN         KLBN4       010VISTA          000000000001000000000010000000000100000000000000000000010000000026000
0202LOTE PADRAO                   ACESITA     PN *       ACES4       010VISTA          000000000000780000000007900000000076000000000000000000007700159716000
0202LOTE PADRAO                   PETROBRAS   PN         PETR4       010VISTA          000000000045250000000462000000004390000000000000000000441000000076100
0202LOTE PADRAO                   ELETROBRAS  PNB*       ELET6       010VISTA          000000000019600000000196000000001910000000000000000000191000029710600
0202LOTE PADRAO                   PETROBRAS   ON         PETR3       010VISTA          000000000049400000000500000000004770000000000000000000477000000038900
0202LOTE PADRAO                   COMGAS      PNA*       CGAS5       010VISTA          000000000055500000000561000000005470000000000000000000550000001016000
0202LOTE PADRAO                   SOUZA CRUZ  ON EJ      CRUZ3       010VISTA          000000000018600000000190000000001860000000000000000000190000000007300
0202LOTE PADRAO                   ELETROBRAS  ON *       ELET3       010VISTA          000000000020200000000203000000001980000000000000000000200000027674200
0202LOTE PADRAO                   CELESC      PNB        CLSC6       010VISTA          000000000000480000000004800000000046000000000000000000004700000140000
0202LOTE PADRAO                   BRADESCO    PN * EJ    BBDC4       010VISTA          000000000009200000000094000000000910000000000000000000092000153910000
0202LOTE PADRAO                   CESP        PN *       CESP4       010VISTA          000000000006250000000062500000000600000000000000000000060000007897600
0202LOTE PADRAO                   LIGHT       ON *       LIGH3       010VISTA          000000000054800000000570000000005010000000000000000000505000000215300
0202LOTE PADRAO                   TELESP CL PAPN *       TSPP4       010VISTA          000000000003960000000040000000000390000000000000000000039000450060000
0202LOTE PADRAO                   VALE R DOCE PNA        VALE5       010VISTA          000000000089500000000895000000008800000000000000000000885000000024000
0202LOTE PADRAO                   COPEL       PNB*       CPLE6       010VISTA          000000000007600000000077500000000730000000000000000000074000073585000
0202LOTE PADRAO                   VALE R DOCE ON         VALE3       010VISTA          000000000096200000000962000000009420000000000000000000950000000009600
0202LOTE PADRAO                   ARACRUZ     PNB        ARCZ6       010VISTA          000000000006100000000061000000000596000000000000000000060000000026100
0202LOTE PADRAO                   TELEMIG PARTPN *       TMCP4       010VISTA          000000000002900000000030000000000280000000000000000000029000073491200
0202LOTE PADRAO                   BRASIL TELECPN *       BRTO4       010VISTA          000000000011100000000115000000001110000000000000000000114000042273800
0202LOTE PADRAO                   SABESP      ON *       SBSP3       010VISTA          000000000081200000000819000000007900000000000000000000790000011069800
0202LOTE PADRAO                   BRASKEM     PNA*       BRKM5       010VISTA          000000000217000000002170000000020600000000000000000002063000000190300
0202LOTE PADRAO                   EMBRAER     PN EJ      EMBR4       010VISTA          000000000012900000000129000000001250000000000000000000126000000054700
0202LOTE PADRAO                   TELESP      PN * EJ    TLPP4       010VISTA          000000000037300000000378000000003700000000000000000000376000008653400
0202LOTE PADRAO                   EMBRAER     ON EJ      EMBR3       010VISTA          000000000011800000000120000000001160000000000000000000118000000019500
0202LOTE PADRAO                   AMBEV       PN *       AMBV4       010VISTA          000000000533000000005500000000053000000000000000000005500000002980600
0202LOTE PADRAO                   USIMINAS    PNA        USIM5       010VISTA          000000000005900000000062000000000590000000000000000000060000000118000
0202LOTE PADRAO                   ELETROPAULO PN *       ELPL4       010VISTA          000000000024500000000258000000002410000000000000000000242000003083600
0202LOTE PADRAO                   TELE NORD CLPN *       TNEP4       010VISTA          000000000002710000000028000000000271000000000000000000027000094163900
0202LOTE PADRAO                   CEMIG       PN * EJ    CMIG4       010VISTA          000000000023500000000241000000002270000000000000000000227000019578200
0202LOTE PADRAO                   TELE CL SUL PN * EJ    TCSL4       010VISTA          000000000002700000000027000000000271000000000000000000027500084313600
0202LOTE PADRAO                   TRACTEBEL   ON *       TBLE3       010VISTA          000000000003300000000033000000000310000000000000000000032500012121300
0202LOTE PADRAO                   CEMIG       ON * EJ    CMIG3       010VISTA          000000000021000000000216000000002080000000000000000000210000000470000
0202LOTE PADRAO                   TELE CL SUL ON * EJ    TCSL3       010VISTA          000000000002000000000020000000000196000000000000000000019800012543500
0202LOTE PADRAO                   ITAUSA      PN         ITSA4       010VISTA          000000000001770000000018000000000175000000000000000000017500000194300
0202LOTE PADRAO                   V C P       PN *       VCPA4       010VISTA          000000000120000000001200000000011600000000000000000001162000000865200
0202LOTE PADRAO                   SID TUBARAO PN *       CSTB4       010VISTA          000000000034900000000353000000003300000000000000000000335000005297300
0202LOTE PADRAO                   BRADESPAR   PN *       BRAP4       010VISTA          000000000000470000000004800000000046000000000000000000004600137563000
0202LOTE PADRAO                   NET         PN         PLIM4       010VISTA          000000000000310000000003500000000031000000000000000000003200003029900
0202LOTE PADRAO                   TELE CTR OESPN * EJ    TCOC4       010VISTA          000000000004250000000045000000000410000000000000000000044000133238000
0202LOTE PADRAO                   TELEMAR N L PNA* EJ    TMAR5       010VISTA          000000000042800000000431000000004230000000000000000000425000017855000
0202LOTE PADRAO                   GERDAU      PN * EJ    GGBR4       010VISTA          000000000032000000000320000000003180000000000000000000318000009184000
0202LOTE PADRAO                   BRASIL      ON *       BBAS3       010VISTA          000000000010100000000103000000000990000000000000000000099000016172000
