00BDIN9999BOVESPA 99992002122720021227
0101IBOVESPA                      0113260112070113260000000000000000002002122700000020021227011234000000
0202LOTE PADRAO                   EMBRATEL PARPN *       EBTP4       010VISTA          000000000004000000000040000000000370000000000000000000039000423529000
0202LOTE PADRAO                   TRAN PAULISTPN * EJ    TRPL4       010VISTA          000000000005600000000057000000000560000000000000000000057500006536200
0202LOTE PADRAO                   EMBRATEL PARON *       EBTP3       010VISTA          000000000004300000000044000000000420000000000000000000043000036577000
0202LOTE PADRAO                   TELEMAR     PN * EJ    TNLP4       010VISTA          000000000027600000000278000000002725000000000000000000273000075207500
0202LOTE PADRAO                   ITAUBANCO   PN * EJ    ITAU4       010VISTA          000000000168000000001705000000016800000000000000000001687500001571800
0202LOTE PADRAO                   TELEMAR     ON * EJ    TNLP3       010VISTA          000000000020300000000203000000001980000000000000000000200000002358300
0202LOTE PADRAO                   SID NACIONALON *       CSNA3       010VISTA          000000000049100000000504000000004910000000000000000000500000009149700
0202LOTE PADRAO                   TELE LEST CLPN *       TLCP4       010VISTA          000000000000450000000004500000000044000000000000000000004400044681500
0202LOTE PADRAO                   CRT CELULAR PNA* EJ    CRTP5       010VISTA          000000000310500000003159000000030750000000000000000003149000000116400
0202LOTE PADRAO                   IPIRANGA PETPN *       PTIP4       010VISTA          000000000007500000000076000000000750000000000000000000075000002325000
0202LOTE PADRAO                   BRASIL T PARPN *       BRTP4       010VISTA          000000000018000000000181000000001780000000000000000000179000019653900
0202LOTE PADRAO                   BRASIL T PARON *       BRTP3       010VISTA          000000000013600000000140000000001350000000000000000000136000009308700
0202LOTE PADRAO                   KLABIN S/A  PN         KLBN4       010VISTA          000000000001000000000010000000000100000000000000000000010000000021200
0202LOTE PADRAO                   ACESITA     PN *       ACES4       010VISTA          000000000000990000000009900000000095000000000000000000009500153316000
0202LOTE PADRAO                   PETROBRAS   PN         PETR4       010VISTA          000000000047700000000478000000004660000000000000000000466000000036000
0202LOTE PADRAO                   ELETROBRAS  PNB*       ELET6       010VISTA          000000000023300000000236000000002310000000000000000000234000018865400
0202LOTE PADRAO                   PETROBRAS   ON         PETR3       010VISTA          000000000053500000000537000000005150000000000000000000520000000005000
0202LOTE PADRAO                   COMGAS      PNA*       CGAS5       010VISTA          000000000053000000000530000000005270000000000000000000527500000117800
0202LOTE PADRAO                   SOUZA CRUZ  ON EJ      CRUZ3       010VISTA          000000000017700000000178000000001730000000000000000000174000000004000
0202LOTE PADRAO                   ELETROBRAS  ON *       ELET3       010VISTA          000000000023600000000236000000002330000000000000000000235000005477600
0202LOTE PADRAO                   CELESC      PNB        CLSC6       010VISTA          000000000000540000000005500000000053000000000000000000005500000200500
0202LOTE PADRAO                   BRADESCO    PN * EJ    BBDC4       010VISTA          000000000010500000000109000000001050000000000000000000107500137203000
0202LOTE PADRAO                   CESP        PN *       CESP4       010VISTA          000000000007250000000072500000000700000000000000000000072000001749600
0202LOTE PADRAO                   LIGHT       ON *       LIGH3       010VISTA          000000000048000000000485000000004800000000000000000000480000000083600
0202LOTE PADRAO                   TELESP CL PAPN *       TSPP4       010VISTA          000000000004250000000042000000000410000000000000000000042000143318000
0202LOTE PADRAO                   VALE R DOCE PNA        VALE5       010VISTA          000000000099000000000990000000009770000000000000000000977000000004300
0202LOTE PADRAO                   COPEL       PNB*       CPLE6       010VISTA          000000000009900000000099000000000930000000000000000000096000028126000
0202LOTE PADRAO                   VALE R DOCE ON         VALE3       010VISTA          000000000102200000001030000000010150000000000000000001020000000005200
0202LOTE PADRAO                   ARACRUZ     PNB        ARCZ6       010VISTA          000000000006500000000065000000000650000000000000000000065000000002300
0202LOTE PADRAO                   TELEMIG PARTPN *       TMCP4       010VISTA          000000000003000000000031000000000300000000000000000000030000053547500
0202LOTE PADRAO                   BRASIL TELECPN *       BRTO4       010VISTA          000000000011400000000115000000001130000000000000000000114000010376000
0202LOTE PADRAO                   SABESP      ON *       SBSP3       010VISTA          000000000087000000000888000000008700000000000000000000882000001008500
0202LOTE PADRAO                   BRASKEM     PNA*       BRKM5       010VISTA          000000000221000000002300000000022100000000000000000002280000000130000
0202LOTE PADRAO                   EMBRAER     PN EJ      EMBR4       010VISTA          000000000013800000000139000000001380000000000000000000139000000059800
0202LOTE PADRAO                   TELESP      PN * EJ    TLPP4       010VISTA          000000000032500000000340000000003250000000000000000000330000002645400
0202LOTE PADRAO                   EMBRAER     ON EJ      EMBR3       010VISTA          000000000012500000000125000000001225000000000000000000123000000011800
0202LOTE PADRAO                   AMBEV       PN *       AMBV4       010VISTA          000000000535000000005369000000053000000000000000000005339000000112300
0202LOTE PADRAO                   USIMINAS    PNA        USIM5       010VISTA          000000000006500000000067500000000640000000000000000000066000000037600
0202LOTE PADRAO                   ELETROPAULO PN *       ELPL4       010VISTA          000000000026700000000267000000002600000000000000000000261000006637800
0202LOTE PADRAO                   TELE NORD CLPN *       TNEP4       010VISTA          000000000002770000000027900000000270000000000000000000027300021839500
0202LOTE PADRAO                   CEMIG       PN * EJ    CMIG4       010VISTA          000000000025900000000261000000002530000000000000000000256000017890900
0202LOTE PADRAO                   TELE CL SUL PN * EJ    TCSL4       010VISTA          000000000002730000000027000000000270000000000000000000027000027864400
0202LOTE PADRAO                   TRACTEBEL   ON *       TBLE3       010VISTA          000000000003300000000034000000000320000000000000000000034000006348800
0202LOTE PADRAO                   CEMIG       ON * EJ    CMIG3       010VISTA          000000000023500000000235000000002350000000000000000000235000000030000
0202LOTE PADRAO                   TELE CL SUL ON * EJ    TCSL3       010VISTA          000000000001970000000019700000000190000000000000000000019000012377700
0202LOTE PADRAO                   ITAUSA      PN         ITSA4       010VISTA          000000000001800000000018000000000180000000000000000000018000000068800
0202LOTE PADRAO                   V C P       PN *       VCPA4       010VISTA          000000000118000000001200000000011730000000000000000001173000000371200
0202LOTE PADRAO                   SID TUBARAO PN *       CSTB4       010VISTA          000000000040000000000407000000004000000000000000000000400000002878000
0202LOTE PADRAO                   BRADESPAR   PN *       BRAP4       010VISTA          000000000000550000000005700000000055000000000000000000005600058876400
0202LOTE PADRAO                   NET         PN         PLIM4       010VISTA          000000000000440000000004500000000043000000000000000000004300000423200
0202LOTE PADRAO                   TELE CTR OESPN * EJ    TCOC4       010VISTA          000000000004800000000049000000000480000000000000000000049000043314000
0202LOTE PADRAO                   TELEMAR N L PNA* EJ    TMAR5       010VISTA          000000000043600000000440000000004300000000000000000000436000006172600
0202LOTE PADRAO                   GERDAU      PN * EJ    GGBR4       010VISTA          000000000032800000000333000000003270000000000000000000333000008659300
0202LOTE PADRAO                   BRASIL      ON *       BBAS3       010VISTA          000000000009800000000098000000000960000000000000000000096000018271100
