00BDIN9999BOVESPA 99992002022020020220
0101IBOVESPA                      0130010129190133300000000000000000002002022000000020020220013303000000
0202LOTE PADRAO                   EMBRATEL PARPN *       EBTP4       010VISTA          000000000008500000000087000000000825000000000000000000087000232063000
0202LOTE PADRAO                   EMBRATEL PARON *       EBTP3       010VISTA          000000000010000000000103000000000980000000000000000000103000023463800
0202LOTE PADRAO                   TRAN PAULISTPN * EJ    TRPL4       010VISTA          000000000007200000000077000000000720000000000000000000077000020494900
0202LOTE PADRAO                   TELEMAR     PN * EJ    TNLP4       010VISTA          000000000032600000000340000000003230000000000000000000332000273256000
0202LOTE PADRAO                   ITAUBANCO   PN * EJ    ITAU4       010VISTA          000000000183100000001850000000017900000000000000000001850000008327200
0202LOTE PADRAO                   TELEMAR     ON * EJ    TNLP3       010VISTA          000000000028100000000293000000002800000000000000000000291000017296500
0202LOTE PADRAO                   SID NACIONALON *       CSNA3       010VISTA          000000000039500000000395000000003780000000000000000000385000018518700
0202LOTE PADRAO                   TELE LEST CLPN *       TLCP4       010VISTA          000000000000800000000008500000000078000000000000000000008400244852000
0202LOTE PADRAO                   CRT CELULAR PNA* EJ    CRTP5       010VISTA          000000000440000000004550000000043600000000000000000004540000000775900
0202LOTE PADRAO                   IPIRANGA PETPN *       PTIP4       010VISTA          000000000012500000000130000000001250000000000000000000129000003108000
0202LOTE PADRAO                   BRASIL T PARPN *       BRTP4       010VISTA          000000000016900000000171000000001660000000000000000000170000125194000
0202LOTE PADRAO                   BRASIL T PARON *       BRTP3       010VISTA          000000000017000000000177500000001680000000000000000000173000010108400
0202LOTE PADRAO                   KLABIN S/A  PN         KLBN4       010VISTA          000000000001100000000011000000000110000000000000000000011000000035300
0202LOTE PADRAO                   ACESITA     PN *       ACES4       010VISTA          000000000000680000000007100000000068000000000000000000007100319955000
0202LOTE PADRAO                   PETROBRAS   PN         PETR4       010VISTA          000000000049700000000501000000004930000000000000000000501000000085600
0202LOTE PADRAO                   ELETROBRAS  PNB*       ELET6       010VISTA          000000000032700000000341000000003210000000000000000000339000076335400
0202LOTE PADRAO                   PETROBRAS   ON         PETR3       010VISTA          000000000050700000000512000000005030000000000000000000511000000021100
0202LOTE PADRAO                   COMGAS      PNA*       CGAS5       010VISTA          000000000086500000000899000000008650000000000000000000899000000874500
0202LOTE PADRAO                   SOUZA CRUZ  ON EJ      CRUZ3       010VISTA          000000000014000000000145000000001400000000000000000000143000000013600
0202LOTE PADRAO                   ELETROBRAS  ON *       ELET3       010VISTA          000000000038100000000393000000003750000000000000000000390000033297100
0202LOTE PADRAO                   CELESC      PNB        CLSC6       010VISTA          000000000000520000000005600000000052000000000000000000005600001060000
0202LOTE PADRAO                   BRADESCO    PN * EJ    BBDC4       010VISTA          000000000012600000000129000000001250000000000000000000128000144666000
0202LOTE PADRAO                   CESP        PN *       CESP4       010VISTA          000000000014500000000151000000001440000000000000000000151000007534600
0202LOTE PADRAO                   LIGHT       ON *       LIGH3       010VISTA          000000000115500000001236000000011550000000000000000001229000001271100
0202LOTE PADRAO                   TELESP CL PAPN *       TSPP4       010VISTA          000000000006900000000073000000000690000000000000000000072000275647000
0202LOTE PADRAO                   VALE R DOCE PNA        VALE5       010VISTA          000000000059200000000596000000005820000000000000000000592000000048600
0202LOTE PADRAO                   COPEL       PNB*       CPLE6       010VISTA          000000000017500000000175000000001680000000000000000000174000038281500
0202LOTE PADRAO                   VALE R DOCE ON         VALE3       010VISTA          000000000058500000000597000000005820000000000000000000590000000019700
0202LOTE PADRAO                   ARACRUZ     PNB        ARCZ6       010VISTA          000000000004500000000047000000000440000000000000000000047000000049200
0202LOTE PADRAO                   TELEMIG PARTPN *       TMCP4       010VISTA          000000000003500000000036000000000340000000000000000000035000208859000
0202LOTE PADRAO                   BRASIL TELECPN *       BRTO4       010VISTA          000000000012300000000125000000001210000000000000000000125000067965400
0202LOTE PADRAO                   SABESP      ON *       SBSP3       010VISTA          000000000124500000001245000000012150000000000000000001240000001264400
0202LOTE PADRAO                   BRASKEM     PNA*       BRKM5       010VISTA          000000000492000000005095000000048850000000000000000005037500000155900
0202LOTE PADRAO                   EMBRAER     PN EJ      EMBR4       010VISTA          000000000014900000000150000000001420000000000000000000146000000092600
0202LOTE PADRAO                   TELESP      PN * EJ    TLPP4       010VISTA          000000000030100000000311000000003000000000000000000000311000007319900
0202LOTE PADRAO                   EMBRAER     ON EJ      EMBR3       010VISTA          000000000013250000000134000000001300000000000000000000134000000018000
0202LOTE PADRAO                   AMBEV       PN *       AMBV4       010VISTA          000000000470000000004780000000046700000000000000000004680000002417800
0202LOTE PADRAO                   USIMINAS    PNA        USIM5       010VISTA          000000000007200000000075000000000710000000000000000000075000000050000
0202LOTE PADRAO                   ELETROPAULO PN *       ELPL4       010VISTA          000000000065500000000655000000006230000000000000000000644000003518400
0202LOTE PADRAO                   TELE NORD CLPN *       TNEP4       010VISTA          000000000002800000000029000000000277000000000000000000029000172654000
0202LOTE PADRAO                   CEMIG       PN * EJ    CMIG4       010VISTA          000000000034600000000352000000003420000000000000000000352000041593600
0202LOTE PADRAO                   TELE CL SUL PN * EJ    TCSL4       010VISTA          000000000003100000000032000000000300000000000000000000032000094914500
0202LOTE PADRAO                   CEMIG       ON * EJ    CMIG3       010VISTA          000000000031000000000327000000003100000000000000000000327000001505500
0202LOTE PADRAO                   TELE CL SUL ON * EJ    TCSL3       010VISTA          000000000002750000000028000000000260000000000000000000028000038771100
0202LOTE PADRAO                   ITAUSA      PN         ITSA4       010VISTA          000000000002100000000022000000000210000000000000000000022000000373200
0202LOTE PADRAO                   V C P       PN *       VCPA4       010VISTA          000000000086000000000875000000008600000000000000000000872000001648400
0202LOTE PADRAO                   SID TUBARAO PN *       CSTB4       010VISTA          000000000021250000000216000000002100000000000000000000215000010390000
0202LOTE PADRAO                   BRADESPAR   PN *       BRAP4       010VISTA          000000000000710000000007500000000070000000000000000000007300311092000
0202LOTE PADRAO                   NET         PN         PLIM4       010VISTA          000000000000630000000006700000000062000000000000000000006700001535200
0202LOTE PADRAO                   TELE CTR OESPN * EJ    TCOC4       010VISTA          000000000004500000000047000000000450000000000000000000047000160931000
0202LOTE PADRAO                   TELEMAR N L PNA* EJ    TMAR5       010VISTA          000000000055400000000560000000005450000000000000000000557000015851000
0202LOTE PADRAO                   GERDAU      PN * EJ    GGBR4       010VISTA          000000000025500000000266000000002550000000000000000000266000021288100
0202LOTE PADRAO                   BRASIL      ON *       BBAS3       010VISTA          000000000010000000000103000000000990000000000000000000102000007767300
