00BDIN9999BOVESPA 99992002041620020416
0101IBOVESPA                      0134760134760136930000000000000000002002041600000020020416013623000000
0202LOTE PADRAO                   EMBRATEL PARPN *       EBTP4       010VISTA          000000000006900000000072500000000680000000000000000000071000181828000
0202LOTE PADRAO                   TRAN PAULISTPN * EJ    TRPL4       010VISTA          000000000007300000000074000000000730000000000000000000074000006597900
0202LOTE PADRAO                   EMBRATEL PARON *       EBTP3       010VISTA          000000000008600000000087000000000830000000000000000000086000023066700
0202LOTE PADRAO                   TELEMAR     PN * EJ    TNLP4       010VISTA          000000000031300000000318000000003130000000000000000000315000237786000
0202LOTE PADRAO                   ITAUBANCO   PN * EJ    ITAU4       010VISTA          000000000191000000001910000000018400000000000000000001869000023880100
0202LOTE PADRAO                   TELEMAR     ON * EJ    TNLP3       010VISTA          000000000027400000000278000000002730000000000000000000278000010060300
0202LOTE PADRAO                   SID NACIONALON *       CSNA3       010VISTA          000000000045500000000470000000004550000000000000000000470000007038500
0202LOTE PADRAO                   TELE LEST CLPN *       TLCP4       010VISTA          000000000000730000000007700000000073000000000000000000007700255588000
0202LOTE PADRAO                   CRT CELULAR PNA* EJ    CRTP5       010VISTA          000000000438000000004499000000043000000000000000000004400000000394400
0202LOTE PADRAO                   IPIRANGA PETPN *       PTIP4       010VISTA          000000000014600000000152000000001440000000000000000000152000003205000
0202LOTE PADRAO                   BRASIL T PARPN *       BRTP4       010VISTA          000000000019000000000193000000001900000000000000000000193000089444200
0202LOTE PADRAO                   BRASIL T PARON *       BRTP3       010VISTA          000000000018700000000187000000001850000000000000000000186000018081500
0202LOTE PADRAO                   KLABIN S/A  PN         KLBN4       010VISTA          000000000001100000000011000000000100000000000000000000010000000012800
0202LOTE PADRAO                   ACESITA     PN *       ACES4       010VISTA          000000000000760000000007700000000074000000000000000000007500184166000
0202LOTE PADRAO                   PETROBRAS   PN         PETR4       010VISTA          000000000056200000000563000000005550000000000000000000561000000112200
0202LOTE PADRAO                   ELETROBRAS  PNB*       ELET6       010VISTA          000000000036700000000370000000003620000000000000000000366000044273400
0202LOTE PADRAO                   PETROBRAS   ON         PETR3       010VISTA          000000000059100000000596000000005860000000000000000000592000000061000
0202LOTE PADRAO                   COMGAS      PNA*       CGAS5       010VISTA          000000000075600000000770000000007350000000000000000000755000000598400
0202LOTE PADRAO                   SOUZA CRUZ  ON EJ      CRUZ3       010VISTA          000000000015600000000158000000001540000000000000000000154000000010800
0202LOTE PADRAO                   ELETROBRAS  ON *       ELET3       010VISTA          000000000040500000000412000000003970000000000000000000403000010740900
0202LOTE PADRAO                   CELESC      PNB        CLSC6       010VISTA          000000000000570000000005700000000056000000000000000000005600000065800
0202LOTE PADRAO                   BRADESCO    PN * EJ    BBDC4       010VISTA          000000000014700000000148000000001440000000000000000000145000180962000
0202LOTE PADRAO                   CESP        PN *       CESP4       010VISTA          000000000014100000000144000000001400000000000000000000144000005740600
0202LOTE PADRAO                   LIGHT       ON *       LIGH3       010VISTA          000000000102200000001029000000010210000000000000000001022000000110000
0202LOTE PADRAO                   TELESP CL PAPN *       TSPP4       010VISTA          000000000005900000000060000000000580000000000000000000059000187075000
0202LOTE PADRAO                   VALE R DOCE PNA        VALE5       010VISTA          000000000064500000000654000000006450000000000000000000649000000035500
0202LOTE PADRAO                   COPEL       PNB*       CPLE6       010VISTA          000000000018600000000188000000001810000000000000000000183000022599800
0202LOTE PADRAO                   VALE R DOCE ON         VALE3       010VISTA          000000000065100000000662000000006510000000000000000000659000000042500
0202LOTE PADRAO                   ARACRUZ     PNB        ARCZ6       010VISTA          000000000004800000000050000000000480000000000000000000050000000054600
0202LOTE PADRAO                   TELEMIG PARTPN *       TMCP4       010VISTA          000000000003000000000031000000000300000000000000000000030000090030600
0202LOTE PADRAO                   BRASIL TELECPN *       BRTO4       010VISTA          000000000013400000000136000000001330000000000000000000136000096686900
0202LOTE PADRAO                   SABESP      ON *       SBSP3       010VISTA          000000000136900000001388000000013640000000000000000001381000004333700
0202LOTE PADRAO                   BRASKEM     PNA*       BRKM5       010VISTA          000000000518000000005350000000051800000000000000000005299000000103800
0202LOTE PADRAO                   EMBRAER     PN EJ      EMBR4       010VISTA          000000000012250000000128000000001210000000000000000000126000000230100
0202LOTE PADRAO                   TELESP      PN * EJ    TLPP4       010VISTA          000000000034100000000350000000003400000000000000000000343000009421000
0202LOTE PADRAO                   EMBRAER     ON EJ      EMBR3       010VISTA          000000000011500000000118000000001150000000000000000000116000000049900
0202LOTE PADRAO                   AMBEV       PN *       AMBV4       010VISTA          000000000485000000004900000000048110000000000000000004838000001950300
0202LOTE PADRAO                   USIMINAS    PNA        USIM5       010VISTA          000000000007900000000081000000000780000000000000000000081000000224200
0202LOTE PADRAO                   ELETROPAULO PN *       ELPL4       010VISTA          000000000065900000000684000000006590000000000000000000684000003365700
0202LOTE PADRAO                   TELE NORD CLPN *       TNEP4       010VISTA          000000000002600000000027700000000260000000000000000000026000126008000
0202LOTE PADRAO                   CEMIG       PN * EJ    CMIG4       010VISTA          000000000036900000000376000000003650000000000000000000370000055947400
0202LOTE PADRAO                   TELE CL SUL PN * EJ    TCSL4       010VISTA          000000000003000000000032000000000300000000000000000000031000106133000
0202LOTE PADRAO                   TRACTEBEL   ON *       TBLE3       010VISTA          000000000004600000000049000000000460000000000000000000049000025820600
0202LOTE PADRAO                   CEMIG       ON * EJ    CMIG3       010VISTA          000000000033900000000340000000003390000000000000000000340000000403000
0202LOTE PADRAO                   TELE CL SUL ON * EJ    TCSL3       010VISTA          000000000002600000000027000000000260000000000000000000027300011757200
0202LOTE PADRAO                   ITAUSA      PN         ITSA4       010VISTA          000000000002480000000024800000000230000000000000000000023000000283500
0202LOTE PADRAO                   V C P       PN *       VCPA4       010VISTA          000000000092400000000939000000009110000000000000000000939000000680100
0202LOTE PADRAO                   SID TUBARAO PN *       CSTB4       010VISTA          000000000025300000000258000000002510000000000000000000258000007043500
0202LOTE PADRAO                   BRADESPAR   PN *       BRAP4       010VISTA          000000000000740000000007500000000073000000000000000000007300152198000
0202LOTE PADRAO                   NET         PN         PLIM4       010VISTA          000000000000460000000004800000000043000000000000000000004400001809900
0202LOTE PADRAO                   TELE CTR OESPN * EJ    TCOC4       010VISTA          000000000004790000000048000000000479000000000000000000048000111129000
0202LOTE PADRAO                   TELEMAR N L PNA* EJ    TMAR5       010VISTA          000000000053500000000540000000005220000000000000000000535000020393800
0202LOTE PADRAO                   GERDAU      PN * EJ    GGBR4       010VISTA          000000000030500000000310000000003020000000000000000000310000019801300
0202LOTE PADRAO                   BRASIL      ON *       BBAS3       010VISTA          000000000014500000000146000000001430000000000000000000144000009467100
