00BDIN9999BOVESPA 99992002112020021120
0101IBOVESPA                      0099830099010101120000000000000000002002112000000020021120010088000000
0202LOTE PADRAO                   EMBRATEL PARPN *       EBTP4       010VISTA          000000000002400000000025000000000240000000000000000000025000562249000
0202LOTE PADRAO                   TRAN PAULISTPN * EJ    TRPL4       010VISTA          000000000005300000000054000000000530000000000000000000054000021396300
0202LOTE PADRAO                   EMBRATEL PARON *       EBTP3       010VISTA          000000000003000000000031000000000300000000000000000000031000043666300
0202LOTE PADRAO                   TELEMAR     PN * EJ    TNLP4       010VISTA          000000000025100000000258000000002490000000000000000000258000299415000
0202LOTE PADRAO                   ITAUBANCO   PN * EJ    ITAU4       010VISTA          000000000148000000001499000000014590000000000000000001495000023684000
0202LOTE PADRAO                   TELEMAR     ON * EJ    TNLP3       010VISTA          000000000018600000000191000000001825000000000000000000188000037142800
0202LOTE PADRAO                   SID NACIONALON *       CSNA3       010VISTA          000000000046200000000463000000004460000000000000000000455000008040400
0202LOTE PADRAO                   TELE LEST CLPN *       TLCP4       010VISTA          000000000000410000000004200000000040000000000000000000004100120164000
0202LOTE PADRAO                   CRT CELULAR PNA* EJ    CRTP5       010VISTA          000000000313000000003150000000030500000000000000000003128000000638800
0202LOTE PADRAO                   IPIRANGA PETPN *       PTIP4       010VISTA          000000000007900000000081000000000750000000000000000000077000012364300
0202LOTE PADRAO                   BRASIL T PARPN *       BRTP4       010VISTA          000000000017100000000175000000001690000000000000000000172500119845000
0202LOTE PADRAO                   BRASIL T PARON *       BRTP3       010VISTA          000000000013250000000135000000001300000000000000000000134000008193600
0202LOTE PADRAO                   KLABIN S/A  PN         KLBN4       010VISTA          000000000001000000000010000000000100000000000000000000010000000017200
0202LOTE PADRAO                   ACESITA     PN *       ACES4       010VISTA          000000000000780000000008000000000077000000000000000000007800187380000
0202LOTE PADRAO                   PETROBRAS   PN         PETR4       010VISTA          000000000044000000000448000000004320000000000000000000447000000139200
0202LOTE PADRAO                   ELETROBRAS  PNB*       ELET6       010VISTA          000000000019000000000191000000001860000000000000000000188000076289300
0202LOTE PADRAO                   PETROBRAS   ON         PETR3       010VISTA          000000000048400000000496000000004750000000000000000000492000000023200
0202LOTE PADRAO                   COMGAS      PNA*       CGAS5       010VISTA          000000000056100000000570000000005500000000000000000000551000002760000
0202LOTE PADRAO                   SOUZA CRUZ  ON EJ      CRUZ3       010VISTA          000000000018600000000188000000001830000000000000000000183000000013200
0202LOTE PADRAO                   ELETROBRAS  ON *       ELET3       010VISTA          000000000019000000000200000000001900000000000000000000198000034734900
0202LOTE PADRAO                   CELESC      PNB        CLSC6       010VISTA          000000000000500000000005100000000046000000000000000000004700000677600
0202LOTE PADRAO                   BRADESCO    PN * EJ    BBDC4       010VISTA          000000000009100000000092000000000900000000000000000000092000184778000
0202LOTE PADRAO                   CESP        PN *       CESP4       010VISTA          000000000006400000000065400000000630000000000000000000064000006031400
0202LOTE PADRAO                   LIGHT       ON *       LIGH3       010VISTA          000000000055000000000580000000005500000000000000000000575000000160300
0202LOTE PADRAO                   TELESP CL PAPN *       TSPP4       010VISTA          000000000003800000000038000000000373000000000000000000037900241720000
0202LOTE PADRAO                   VALE R DOCE PNA        VALE5       010VISTA          000000000090000000000900000000008750000000000000000000884000000014300
0202LOTE PADRAO                   COPEL       PNB*       CPLE6       010VISTA          000000000008000000000080000000000770000000000000000000078000032444900
0202LOTE PADRAO                   VALE R DOCE ON         VALE3       010VISTA          000000000095500000000955000000009200000000000000000000927500000017600
0202LOTE PADRAO                   ARACRUZ     PNB        ARCZ6       010VISTA          000000000005700000000059000000000570000000000000000000058000000062700
0202LOTE PADRAO                   TELEMIG PARTPN *       TMCP4       010VISTA          000000000002900000000029000000000281000000000000000000028000310601000
0202LOTE PADRAO                   BRASIL TELECPN *       BRTO4       010VISTA          000000000010900000000110000000001070000000000000000000110000094251600
0202LOTE PADRAO                   SABESP      ON *       SBSP3       010VISTA          000000000085000000000859000000008190000000000000000000824000008617300
0202LOTE PADRAO                   BRASKEM     PNA*       BRKM5       010VISTA          000000000212400000002150000000021200000000000000000002140000000096500
0202LOTE PADRAO                   EMBRAER     PN EJ      EMBR4       010VISTA          000000000012500000000128000000001230000000000000000000124000000132900
0202LOTE PADRAO                   TELESP      PN * EJ    TLPP4       010VISTA          000000000037500000000381000000003700000000000000000000377000024321600
0202LOTE PADRAO                   EMBRAER     ON EJ      EMBR3       010VISTA          000000000011750000000119000000001140000000000000000000114000000033400
0202LOTE PADRAO                   AMBEV       PN *       AMBV4       010VISTA          000000000515000000005170000000050500000000000000000005120000003544600
0202LOTE PADRAO                   USIMINAS    PNA        USIM5       010VISTA          000000000005400000000055400000000540000000000000000000055000000099600
0202LOTE PADRAO                   ELETROPAULO PN *       ELPL4       010VISTA          000000000025100000000251000000002430000000000000000000243000003632600
0202LOTE PADRAO                   TELE NORD CLPN *       TNEP4       010VISTA          000000000002500000000027000000000250000000000000000000027000229306000
0202LOTE PADRAO                   CEMIG       PN * EJ    CMIG4       010VISTA          000000000023000000000231000000002230000000000000000000228000067003200
0202LOTE PADRAO                   TELE CL SUL PN * EJ    TCSL4       010VISTA          000000000002600000000027500000000260000000000000000000027000232758000
0202LOTE PADRAO                   TRACTEBEL   ON *       TBLE3       010VISTA          000000000003250000000032500000000310000000000000000000032000004523500
0202LOTE PADRAO                   CEMIG       ON * EJ    CMIG3       010VISTA          000000000021000000000217000000002080000000000000000000217000002548800
0202LOTE PADRAO                   TELE CL SUL ON * EJ    TCSL3       010VISTA          000000000002000000000020000000000199000000000000000000020000031434800
0202LOTE PADRAO                   ITAUSA      PN         ITSA4       010VISTA          000000000001770000000017700000000172000000000000000000017200000567200
0202LOTE PADRAO                   V C P       PN *       VCPA4       010VISTA          000000000113000000001130000000011100000000000000000001120000008387800
0202LOTE PADRAO                   SID TUBARAO PN *       CSTB4       010VISTA          000000000033000000000332000000003240000000000000000000332000019866200
0202LOTE PADRAO                   BRADESPAR   PN *       BRAP4       010VISTA          000000000000480000000004900000000047000000000000000000004900096825200
0202LOTE PADRAO                   NET         PN         PLIM4       010VISTA          000000000000310000000003400000000030000000000000000000003200001580600
0202LOTE PADRAO                   TELE CTR OESPN * EJ    TCOC4       010VISTA          000000000003800000000038000000000370000000000000000000038000109423000
0202LOTE PADRAO                   TELEMAR N L PNA* EJ    TMAR5       010VISTA          000000000042300000000425000000004160000000000000000000425000028697600
0202LOTE PADRAO                   GERDAU      PN * EJ    GGBR4       010VISTA          000000000031800000000323000000003160000000000000000000320000025922500
0202LOTE PADRAO                   BRASIL      ON *       BBAS3       010VISTA          000000000009900000000099000000000950000000000000000000098000061034100
