00BDIN9999BOVESPA 99992002051020020510
0101IBOVESPA                      0121060119440121800000000000000000002002051000000020020510012130000000
0202LOTE PADRAO                   EMBRATEL PARPN *       EBTP4       010VISTA          000000000004700000000048000000000450000000000000000000047000256348000
0202LOTE PADRAO                   TRAN PAULISTPN * EJ    TRPL4       010VISTA          000000000005500000000060000000000550000000000000000000060000009271300
0202LOTE PADRAO                   EMBRATEL PARON *       EBTP3       010VISTA          000000000006500000000067000000000610000000000000000000065000027948500
0202LOTE PADRAO                   TELEMAR     PN * EJ    TNLP4       010VISTA          000000000028300000000286000000002770000000000000000000280000214449000
0202LOTE PADRAO                   ITAUBANCO   PN * EJ    ITAU4       010VISTA          000000000176000000001770000000017150000000000000000001735000009645000
0202LOTE PADRAO                   TELEMAR     ON * EJ    TNLP3       010VISTA          000000000024000000000248000000002360000000000000000000241000007159200
0202LOTE PADRAO                   SID NACIONALON *       CSNA3       010VISTA          000000000041000000000430000000004050000000000000000000430000012128100
0202LOTE PADRAO                   TELE LEST CLPN *       TLCP4       010VISTA          000000000000680000000007100000000068000000000000000000006800182997000
0202LOTE PADRAO                   CRT CELULAR PNA* EJ    CRTP5       010VISTA          000000000387000000004100000000038700000000000000000004029000000451100
0202LOTE PADRAO                   IPIRANGA PETPN *       PTIP4       010VISTA          000000000013300000000148000000001330000000000000000000145000000680800
0202LOTE PADRAO                   BRASIL T PARPN *       BRTP4       010VISTA          000000000016500000000170000000001630000000000000000000163000045218900
0202LOTE PADRAO                   BRASIL T PARON *       BRTP3       010VISTA          000000000015000000000155000000001500000000000000000000155000005038200
0202LOTE PADRAO                   KLABIN S/A  PN         KLBN4       010VISTA          000000000000920000000010000000000092000000000000000000010000000033800
0202LOTE PADRAO                   ACESITA     PN *       ACES4       010VISTA          000000000000660000000006900000000064000000000000000000006800212240000
0202LOTE PADRAO                   PETROBRAS   PN         PETR4       010VISTA          000000000053700000000537000000005250000000000000000000529000000094700
0202LOTE PADRAO                   ELETROBRAS  PNB*       ELET6       010VISTA          000000000029100000000299000000002880000000000000000000298000044397400
0202LOTE PADRAO                   PETROBRAS   ON         PETR3       010VISTA          000000000055000000000567000000005500000000000000000000555000000061500
0202LOTE PADRAO                   COMGAS      PNA*       CGAS5       010VISTA          000000000073100000000770000000007300000000000000000000752000001398300
0202LOTE PADRAO                   SOUZA CRUZ  ON EJ      CRUZ3       010VISTA          000000000016100000000161000000001600000000000000000000160000000007000
0202LOTE PADRAO                   ELETROBRAS  ON *       ELET3       010VISTA          000000000031000000000329000000003100000000000000000000326000014253100
0202LOTE PADRAO                   CELESC      PNB        CLSC6       010VISTA          000000000000550000000005600000000054000000000000000000005400000286800
0202LOTE PADRAO                   BRADESCO    PN * EJ    BBDC4       010VISTA          000000000012400000000125000000001210000000000000000000123000215900000
0202LOTE PADRAO                   CESP        PN *       CESP4       010VISTA          000000000009400000000099000000000930000000000000000000099000011396700
0202LOTE PADRAO                   LIGHT       ON *       LIGH3       010VISTA          000000000086100000000950000000008610000000000000000000920000000298100
0202LOTE PADRAO                   TELESP CL PAPN *       TSPP4       010VISTA          000000000005250000000053000000000490000000000000000000053000316724000
0202LOTE PADRAO                   VALE R DOCE PNA        VALE5       010VISTA          000000000067800000000685000000006750000000000000000000685000000038900
0202LOTE PADRAO                   COPEL       PNB*       CPLE6       010VISTA          000000000014500000000145000000001410000000000000000000144000026393200
0202LOTE PADRAO                   VALE R DOCE ON         VALE3       010VISTA          000000000067700000000685000000006770000000000000000000685000000042800
0202LOTE PADRAO                   ARACRUZ     PNB        ARCZ6       010VISTA          000000000005100000000052500000000510000000000000000000052000000016600
0202LOTE PADRAO                   TELEMIG PARTPN *       TMCP4       010VISTA          000000000002500000000026000000000252000000000000000000025000248420000
0202LOTE PADRAO                   BRASIL TELECPN *       BRTO4       010VISTA          000000000011500000000120000000001140000000000000000000116000131721000
0202LOTE PADRAO                   SABESP      ON *       SBSP3       010VISTA          000000000113900000001180000000011300000000000000000001150000033460400
0202LOTE PADRAO                   BRASKEM     PNA*       BRKM5       010VISTA          000000000441000000004749000000044100000000000000000004600000000061000
0202LOTE PADRAO                   EMBRAER     PN EJ      EMBR4       010VISTA          000000000013500000000139000000001350000000000000000000138000000050900
0202LOTE PADRAO                   TELESP      PN * EJ    TLPP4       010VISTA          000000000031800000000330000000003150000000000000000000330000014705100
0202LOTE PADRAO                   EMBRAER     ON EJ      EMBR3       010VISTA          000000000012200000000125000000001220000000000000000000125000000012600
0202LOTE PADRAO                   AMBEV       PN *       AMBV4       010VISTA          000000000486000000004920000000048000000000000000000004800000002047700
0202LOTE PADRAO                   USIMINAS    PNA        USIM5       010VISTA          000000000007000000000072000000000690000000000000000000072000000049100
0202LOTE PADRAO                   ELETROPAULO PN *       ELPL4       010VISTA          000000000048600000000529000000004830000000000000000000520000002874000
0202LOTE PADRAO                   TELE NORD CLPN *       TNEP4       010VISTA          000000000002300000000024000000000230000000000000000000024000157891000
0202LOTE PADRAO                   CEMIG       PN * EJ    CMIG4       010VISTA          000000000032100000000328000000003180000000000000000000326000029634000
0202LOTE PADRAO                   TELE CL SUL PN * EJ    TCSL4       010VISTA          000000000002710000000029000000000271000000000000000000028000048587700
0202LOTE PADRAO                   TRACTEBEL   ON *       TBLE3       010VISTA          000000000004000000000042000000000400000000000000000000042500012574000
0202LOTE PADRAO                   CEMIG       ON * EJ    CMIG3       010VISTA          000000000028500000000306000000002850000000000000000000306000001376900
0202LOTE PADRAO                   TELE CL SUL ON * EJ    TCSL3       010VISTA          000000000002200000000025000000000220000000000000000000025000019255900
0202LOTE PADRAO                   ITAUSA      PN         ITSA4       010VISTA          000000000002100000000021000000000210000000000000000000021000000402300
0202LOTE PADRAO                   V C P       PN *       VCPA4       010VISTA          000000000092000000000958000000009200000000000000000000945000002628800
0202LOTE PADRAO                   SID TUBARAO PN *       CSTB4       010VISTA          000000000025600000000279000000002560000000000000000000273000010661700
0202LOTE PADRAO                   BRADESPAR   PN *       BRAP4       010VISTA          000000000000580000000006100000000057000000000000000000006000204907000
0202LOTE PADRAO                   NET         PN         PLIM4       010VISTA          000000000000290000000003000000000028000000000000000000002900002338800
0202LOTE PADRAO                   TELE CTR OESPN * EJ    TCOC4       010VISTA          000000000004600000000047000000000440000000000000000000044000172646000
0202LOTE PADRAO                   TELEMAR N L PNA* EJ    TMAR5       010VISTA          000000000050000000000500000000004930000000000000000000497000031616200
0202LOTE PADRAO                   GERDAU      PN * EJ    GGBR4       010VISTA          000000000027600000000295000000002720000000000000000000286000009003000
0202LOTE PADRAO                   BRASIL      ON *       BBAS3       010VISTA          000000000011700000000122000000001150000000000000000000120000003782100
