00BDIN9999BOVESPA 99992002060520020605
0101IBOVESPA                      0125800125740127070000000000000000002002060500000020020605012590000000
0202LOTE PADRAO                   EMBRATEL PARPN *       EBTP4       010VISTA          000000000004300000000045000000000400000000000000000000040000249998000
0202LOTE PADRAO                   TRAN PAULISTPN * EJ    TRPL4       010VISTA          000000000006400000000067500000000630000000000000000000065000017095600
0202LOTE PADRAO                   EMBRATEL PARON *       EBTP3       010VISTA          000000000005900000000060000000000550000000000000000000055000020347400
0202LOTE PADRAO                   TELEMAR     PN * EJ    TNLP4       010VISTA          000000000030600000000316000000003060000000000000000000315000402538000
0202LOTE PADRAO                   ITAUBANCO   PN * EJ    ITAU4       010VISTA          000000000174000000001740000000017000000000000000000001715000004130400
0202LOTE PADRAO                   TELEMAR     ON * EJ    TNLP3       010VISTA          000000000025600000000263000000002550000000000000000000258000006461200
0202LOTE PADRAO                   SID NACIONALON *       CSNA3       010VISTA          000000000047000000000470000000004575000000000000000000460000008615300
0202LOTE PADRAO                   TELE LEST CLPN *       TLCP4       010VISTA          000000000000700000000007200000000070000000000000000000007100104208000
0202LOTE PADRAO                   CRT CELULAR PNA* EJ    CRTP5       010VISTA          000000000390000000004100000000038700000000000000000003960000000182800
0202LOTE PADRAO                   IPIRANGA PETPN *       PTIP4       010VISTA          000000000013300000000140000000001330000000000000000000139000000249100
0202LOTE PADRAO                   BRASIL T PARPN *       BRTP4       010VISTA          000000000017000000000174000000001660000000000000000000167000072282400
0202LOTE PADRAO                   BRASIL T PARON *       BRTP3       010VISTA          000000000015400000000160000000001520000000000000000000154000007702200
0202LOTE PADRAO                   KLABIN S/A  PN         KLBN4       010VISTA          000000000001000000000010000000000100000000000000000000010000000089300
0202LOTE PADRAO                   ACESITA     PN *       ACES4       010VISTA          000000000000650000000006800000000065000000000000000000006700222409000
0202LOTE PADRAO                   PETROBRAS   PN         PETR4       010VISTA          000000000055600000000557000000005500000000000000000000553000000084700
0202LOTE PADRAO                   ELETROBRAS  PNB*       ELET6       010VISTA          000000000028300000000288000000002810000000000000000000281000050680800
0202LOTE PADRAO                   PETROBRAS   ON         PETR3       010VISTA          000000000060000000000602000000005960000000000000000000598000000024800
0202LOTE PADRAO                   COMGAS      PNA*       CGAS5       010VISTA          000000000070500000000744000000007050000000000000000000730000000198300
0202LOTE PADRAO                   SOUZA CRUZ  ON EJ      CRUZ3       010VISTA          000000000015100000000159000000001510000000000000000000159000000023400
0202LOTE PADRAO                   ELETROBRAS  ON *       ELET3       010VISTA          000000000031900000000320000000003160000000000000000000316000021664900
0202LOTE PADRAO                   CELESC      PNB        CLSC6       010VISTA          000000000000550000000005500000000053000000000000000000005300000150400
0202LOTE PADRAO                   BRADESCO    PN * EJ    BBDC4       010VISTA          000000000012600000000128000000001240000000000000000000125000168273000
0202LOTE PADRAO                   CESP        PN *       CESP4       010VISTA          000000000010100000000105000000001010000000000000000000103000004891400
0202LOTE PADRAO                   LIGHT       ON *       LIGH3       010VISTA          000000000095500000000980000000009550000000000000000000965000000245700
0202LOTE PADRAO                   TELESP CL PAPN *       TSPP4       010VISTA          000000000005100000000052000000000500000000000000000000050000174900000
0202LOTE PADRAO                   VALE R DOCE PNA        VALE5       010VISTA          000000000075800000000762000000007550000000000000000000757000000027800
0202LOTE PADRAO                   COPEL       PNB*       CPLE6       010VISTA          000000000014100000000141000000001390000000000000000000139000033825600
0202LOTE PADRAO                   VALE R DOCE ON         VALE3       010VISTA          000000000077400000000775000000007700000000000000000000775000000011300
0202LOTE PADRAO                   ARACRUZ     PNB        ARCZ6       010VISTA          000000000005500000000057000000000550000000000000000000057500000039600
0202LOTE PADRAO                   TELEMIG PARTPN *       TMCP4       010VISTA          000000000002900000000029000000000290000000000000000000029000112757000
0202LOTE PADRAO                   BRASIL TELECPN *       BRTO4       010VISTA          000000000012400000000124000000001210000000000000000000122500056492000
0202LOTE PADRAO                   SABESP      ON *       SBSP3       010VISTA          000000000112000000001127000000010850000000000000000001090000005453100
0202LOTE PADRAO                   BRASKEM     PNA*       BRKM5       010VISTA          000000000426500000004350000000042650000000000000000004270000000104000
0202LOTE PADRAO                   EMBRAER     PN EJ      EMBR4       010VISTA          000000000014600000000149000000001450000000000000000000147000000058900
0202LOTE PADRAO                   TELESP      PN * EJ    TLPP4       010VISTA          000000000034100000000347000000003400000000000000000000347000007645800
0202LOTE PADRAO                   EMBRAER     ON EJ      EMBR3       010VISTA          000000000013100000000134000000001300000000000000000000132000000013300
0202LOTE PADRAO                   AMBEV       PN *       AMBV4       010VISTA          000000000485000000004850000000047900000000000000000004818000004564600
0202LOTE PADRAO                   USIMINAS    PNA        USIM5       010VISTA          000000000007400000000078000000000740000000000000000000077500000033800
0202LOTE PADRAO                   ELETROPAULO PN *       ELPL4       010VISTA          000000000048500000000495000000004670000000000000000000470000003484700
0202LOTE PADRAO                   TELE NORD CLPN *       TNEP4       010VISTA          000000000002300000000025000000000230000000000000000000025000128641000
0202LOTE PADRAO                   CEMIG       PN * EJ    CMIG4       010VISTA          000000000033100000000334000000003290000000000000000000331000027029700
0202LOTE PADRAO                   TELE CL SUL PN * EJ    TCSL4       010VISTA          000000000002960000000030000000000290000000000000000000029000040296300
0202LOTE PADRAO                   TRACTEBEL   ON *       TBLE3       010VISTA          000000000003940000000039000000000380000000000000000000038000005295300
0202LOTE PADRAO                   CEMIG       ON * EJ    CMIG3       010VISTA          000000000030000000000301000000002980000000000000000000301000000416300
0202LOTE PADRAO                   TELE CL SUL ON * EJ    TCSL3       010VISTA          000000000002500000000025000000000250000000000000000000025000017509900
0202LOTE PADRAO                   ITAUSA      PN         ITSA4       010VISTA          000000000002000000000020000000000200000000000000000000020000000446800
0202LOTE PADRAO                   V C P       PN *       VCPA4       010VISTA          000000000108000000001080000000010650000000000000000001070000003232100
0202LOTE PADRAO                   SID TUBARAO PN *       CSTB4       010VISTA          000000000028600000000296000000002860000000000000000000293000012333000
0202LOTE PADRAO                   BRADESPAR   PN *       BRAP4       010VISTA          000000000000610000000006300000000061000000000000000000006300083635000
0202LOTE PADRAO                   NET         PN         PLIM4       010VISTA          000000000000370000000003900000000037000000000000000000003700001620500
0202LOTE PADRAO                   TELE CTR OESPN * EJ    TCOC4       010VISTA          000000000004300000000045000000000430000000000000000000044000093305600
0202LOTE PADRAO                   TELEMAR N L PNA* EJ    TMAR5       010VISTA          000000000052500000000536000000005250000000000000000000532500012566000
0202LOTE PADRAO                   GERDAU      PN * EJ    GGBR4       010VISTA          000000000030800000000313000000003020000000000000000000302000012320400
0202LOTE PADRAO                   BRASIL      ON *       BBAS3       010VISTA          000000000012500000000126000000001230000000000000000000124000006555300
