00BDIN9999BOVESPA 99992002020620020206
0101IBOVESPA                      0127510126660128830000000000000000002002020600000020020206012751000000
0202LOTE PADRAO                   EMBRATEL PARPN *       EBTP4       010VISTA          000000000008100000000083000000000780000000000000000000078000326610000
0202LOTE PADRAO                   EMBRATEL PARON *       EBTP3       010VISTA          000000000010100000000103000000000975000000000000000000097500030540300
0202LOTE PADRAO                   TRAN PAULISTPN * EJ    TRPL4       010VISTA          000000000007100000000071000000000700000000000000000000070000005151300
0202LOTE PADRAO                   TELEMAR     PN * EJ    TNLP4       010VISTA          000000000031500000000323000000003130000000000000000000315000286247000
0202LOTE PADRAO                   ITAUBANCO   PN * EJ    ITAU4       010VISTA          000000000173600000001770000000017250000000000000000001770000007043200
0202LOTE PADRAO                   TELEMAR     ON * EJ    TNLP3       010VISTA          000000000027600000000283000000002750000000000000000000278000022004800
0202LOTE PADRAO                   SID NACIONALON *       CSNA3       010VISTA          000000000038200000000391000000003810000000000000000000391000017325400
0202LOTE PADRAO                   TELE LEST CLPN *       TLCP4       010VISTA          000000000000900000000009100000000089000000000000000000009100085281400
0202LOTE PADRAO                   CRT CELULAR PNA* EJ    CRTP5       010VISTA          000000000432000000004330000000042500000000000000000004250000000345500
0202LOTE PADRAO                   IPIRANGA PETPN *       PTIP4       010VISTA          000000000012900000000129000000001230000000000000000000128000001630100
0202LOTE PADRAO                   BRASIL T PARPN *       BRTP4       010VISTA          000000000016900000000173000000001620000000000000000000164000108808000
0202LOTE PADRAO                   BRASIL T PARON *       BRTP3       010VISTA          000000000016900000000171000000001630000000000000000000165000007378900
0202LOTE PADRAO                   KLABIN S/A  PN         KLBN4       010VISTA          000000000001100000000011000000000110000000000000000000011000000050000
0202LOTE PADRAO                   ACESITA     PN *       ACES4       010VISTA          000000000000640000000006700000000064000000000000000000006700177106000
0202LOTE PADRAO                   PETROBRAS   PN         PETR4       010VISTA          000000000047900000000487000000004770000000000000000000487000000079200
0202LOTE PADRAO                   ELETROBRAS  PNB*       ELET6       010VISTA          000000000034000000000346000000003370000000000000000000346000058836800
0202LOTE PADRAO                   PETROBRAS   ON         PETR3       010VISTA          000000000049200000000499000000004910000000000000000000497000000022400
0202LOTE PADRAO                   COMGAS      PNA*       CGAS5       010VISTA          000000000086900000000869000000008350000000000000000000845000001047600
0202LOTE PADRAO                   SOUZA CRUZ  ON EJ      CRUZ3       010VISTA          000000000014200000000144000000001410000000000000000000142500000020700
0202LOTE PADRAO                   ELETROBRAS  ON *       ELET3       010VISTA          000000000038700000000390000000003850000000000000000000387000018656800
0202LOTE PADRAO                   CELESC      PNB        CLSC6       010VISTA          000000000000500000000005100000000049000000000000000000005000000172500
0202LOTE PADRAO                   BRADESCO    PN * EJ    BBDC4       010VISTA          000000000012100000000123000000001210000000000000000000123000093397900
0202LOTE PADRAO                   CESP        PN *       CESP4       010VISTA          000000000015100000000153000000001480000000000000000000151000008260000
0202LOTE PADRAO                   LIGHT       ON *       LIGH3       010VISTA          000000000123400000001234000000012000000000000000000001219000000144500
0202LOTE PADRAO                   TELESP CL PAPN *       TSPP4       010VISTA          000000000007000000000071000000000700000000000000000000070000120345000
0202LOTE PADRAO                   VALE R DOCE PNA        VALE5       010VISTA          000000000055700000000559000000005410000000000000000000546000000067100
0202LOTE PADRAO                   COPEL       PNB*       CPLE6       010VISTA          000000000016900000000170000000001660000000000000000000168000055684100
0202LOTE PADRAO                   VALE R DOCE ON         VALE3       010VISTA          000000000054700000000547000000005360000000000000000000537000000006300
0202LOTE PADRAO                   ARACRUZ     PNB        ARCZ6       010VISTA          000000000004300000000044000000000420000000000000000000042000000022100
0202LOTE PADRAO                   TELEMIG PARTPN *       TMCP4       010VISTA          000000000003500000000036000000000340000000000000000000034000061515500
0202LOTE PADRAO                   BRASIL TELECPN *       BRTO4       010VISTA          000000000012400000000125000000001190000000000000000000120000133126000
0202LOTE PADRAO                   SABESP      ON *       SBSP3       010VISTA          000000000141000000001440000000013810000000000000000001386000004357300
0202LOTE PADRAO                   BRASKEM     PNA*       BRKM5       010VISTA          000000000544000000005498000000053600000000000000000005400000000087700
0202LOTE PADRAO                   EMBRAER     PN EJ      EMBR4       010VISTA          000000000013500000000138000000001350000000000000000000135000000032600
0202LOTE PADRAO                   TELESP      PN * EJ    TLPP4       010VISTA          000000000028200000000294000000002820000000000000000000288000008839000
0202LOTE PADRAO                   EMBRAER     ON EJ      EMBR3       010VISTA          000000000012800000000128000000001250000000000000000000125000000011500
0202LOTE PADRAO                   AMBEV       PN *       AMBV4       010VISTA          000000000455000000004590000000045300000000000000000004560000003591400
0202LOTE PADRAO                   USIMINAS    PNA        USIM5       010VISTA          000000000007000000000072000000000700000000000000000000070000000040500
0202LOTE PADRAO                   ELETROPAULO PN *       ELPL4       010VISTA          000000000072500000000725000000006870000000000000000000687000003110400
0202LOTE PADRAO                   TELE NORD CLPN *       TNEP4       010VISTA          000000000002800000000028000000000275000000000000000000027000091836700
0202LOTE PADRAO                   CEMIG       PN * EJ    CMIG4       010VISTA          000000000034500000000350000000003370000000000000000000349000058254100
0202LOTE PADRAO                   TELE CL SUL PN * EJ    TCSL4       010VISTA          000000000003100000000032000000000310000000000000000000031000054369600
0202LOTE PADRAO                   CEMIG       ON * EJ    CMIG3       010VISTA          000000000031800000000318000000003060000000000000000000306000001110000
0202LOTE PADRAO                   TELE CL SUL ON * EJ    TCSL3       010VISTA          000000000002800000000028000000000271000000000000000000027100023818700
0202LOTE PADRAO                   ITAUSA      PN         ITSA4       010VISTA          000000000002100000000021000000000210000000000000000000021000000188300
0202LOTE PADRAO                   V C P       PN *       VCPA4       010VISTA          000000000080500000000835000000008050000000000000000000830000002507400
0202LOTE PADRAO                   SID TUBARAO PN *       CSTB4       010VISTA          000000000020900000000212000000002060000000000000000000206000008030000
0202LOTE PADRAO                   BRADESPAR   PN *       BRAP4       010VISTA          000000000000720000000007400000000071000000000000000000007200135812000
0202LOTE PADRAO                   NET         PN         PLIM4       010VISTA          000000000000630000000006500000000062000000000000000000006200001699300
0202LOTE PADRAO                   TELE CTR OESPN * EJ    TCOC4       010VISTA          000000000004400000000045000000000440000000000000000000044000092487100
0202LOTE PADRAO                   TELEMAR N L PNA* EJ    TMAR5       010VISTA          000000000053500000000537000000005220000000000000000000530000012312500
0202LOTE PADRAO                   GERDAU      PN * EJ    GGBR4       010VISTA          000000000023700000000241000000002360000000000000000000241000015152300
0202LOTE PADRAO                   BRASIL      ON *       BBAS3       010VISTA          000000000009000000000095000000000900000000000000000000093000005236800
