00BDIN9999BOVESPA 99992002103020021030
0101IBOVESPA                      0096020096020100970000000000000000002002103000000020021030010069000000
0202LOTE PADRAO                   EMBRATEL PARPN *       EBTP4       010VISTA          000000000002250000000023000000000220000000000000000000022000349359000
0202LOTE PADRAO                   TRAN PAULISTPN * EJ    TRPL4       010VISTA          000000000005000000000051000000000500000000000000000000050000011468200
0202LOTE PADRAO                   EMBRATEL PARON *       EBTP3       010VISTA          000000000002790000000028000000000273000000000000000000027000092925900
0202LOTE PADRAO                   TELEMAR     PN * EJ    TNLP4       010VISTA          000000000023600000000248000000002360000000000000000000246000294877000
0202LOTE PADRAO                   ITAUBANCO   PN * EJ    ITAU4       010VISTA          000000000148000000001600000000014800000000000000000001555000022212800
0202LOTE PADRAO                   TELEMAR     ON * EJ    TNLP3       010VISTA          000000000017700000000185000000001750000000000000000000182000025990200
0202LOTE PADRAO                   SID NACIONALON *       CSNA3       010VISTA          000000000039000000000392000000003860000000000000000000387500013315100
0202LOTE PADRAO                   TELE LEST CLPN *       TLCP4       010VISTA          000000000000390000000004100000000038000000000000000000004000463132000
0202LOTE PADRAO                   CRT CELULAR PNA* EJ    CRTP5       010VISTA          000000000297100000003100000000029710000000000000000003100000000748200
0202LOTE PADRAO                   IPIRANGA PETPN *       PTIP4       010VISTA          000000000007900000000083000000000790000000000000000000082000002710400
0202LOTE PADRAO                   BRASIL T PARPN *       BRTP4       010VISTA          000000000019500000000203000000001950000000000000000000201000088564900
0202LOTE PADRAO                   BRASIL T PARON *       BRTP3       010VISTA          000000000014300000000150000000001430000000000000000000150000011340400
0202LOTE PADRAO                   KLABIN S/A  PN         KLBN4       010VISTA          000000000000870000000008900000000084000000000000000000008900000060900
0202LOTE PADRAO                   ACESITA     PN *       ACES4       010VISTA          000000000000690000000007200000000069000000000000000000007100122730000
0202LOTE PADRAO                   PETROBRAS   PN         PETR4       010VISTA          000000000042900000000435000000004200000000000000000000435000000169800
0202LOTE PADRAO                   ELETROBRAS  PNB*       ELET6       010VISTA          000000000018500000000193000000001840000000000000000000193000064568900
0202LOTE PADRAO                   PETROBRAS   ON         PETR3       010VISTA          000000000046700000000478000000004620000000000000000000476000000046900
0202LOTE PADRAO                   COMGAS      PNA*       CGAS5       010VISTA          000000000058100000000583000000005760000000000000000000578000001266400
0202LOTE PADRAO                   SOUZA CRUZ  ON EJ      CRUZ3       010VISTA          000000000018300000000185000000001780000000000000000000185000000011600
0202LOTE PADRAO                   ELETROBRAS  ON *       ELET3       010VISTA          000000000019300000000200000000001930000000000000000000200000016704600
0202LOTE PADRAO                   CELESC      PNB        CLSC6       010VISTA          000000000000490000000005000000000048000000000000000000004900000490300
0202LOTE PADRAO                   BRADESCO    PN * EJ    BBDC4       010VISTA          000000000009100000000098000000000910000000000000000000095000475271000
0202LOTE PADRAO                   CESP        PN *       CESP4       010VISTA          000000000006100000000064000000000610000000000000000000064000015513400
0202LOTE PADRAO                   LIGHT       ON *       LIGH3       010VISTA          000000000052700000000543000000005270000000000000000000543000002814500
0202LOTE PADRAO                   TELESP CL PAPN *       TSPP4       010VISTA          000000000003400000000037000000000340000000000000000000036900715021000
0202LOTE PADRAO                   VALE R DOCE PNA        VALE5       010VISTA          000000000095000000000950000000009290000000000000000000935000000025600
0202LOTE PADRAO                   COPEL       PNB*       CPLE6       010VISTA          000000000008300000000085000000000830000000000000000000085000123204000
0202LOTE PADRAO                   VALE R DOCE ON         VALE3       010VISTA          000000000096000000000960000000009500000000000000000000955000000005800
0202LOTE PADRAO                   ARACRUZ     PNB        ARCZ6       010VISTA          000000000006000000000060000000000570000000000000000000058000000096400
0202LOTE PADRAO                   TELEMIG PARTPN *       TMCP4       010VISTA          000000000002790000000029000000000270000000000000000000028000104754000
0202LOTE PADRAO                   BRASIL TELECPN *       BRTO4       010VISTA          000000000012250000000126000000001210000000000000000000125000113058000
0202LOTE PADRAO                   SABESP      ON *       SBSP3       010VISTA          000000000083000000000871000000008300000000000000000000855000008510600
0202LOTE PADRAO                   BRASKEM     PNA*       BRKM5       010VISTA          000000000215000000002310000000021500000000000000000002310000000274400
0202LOTE PADRAO                   EMBRAER     PN EJ      EMBR4       010VISTA          000000000014300000000145000000001430000000000000000000145000000036800
0202LOTE PADRAO                   TELESP      PN * EJ    TLPP4       010VISTA          000000000034500000000364000000003450000000000000000000362000009065700
0202LOTE PADRAO                   EMBRAER     ON EJ      EMBR3       010VISTA          000000000013000000000134000000001300000000000000000000134000000013700
0202LOTE PADRAO                   AMBEV       PN *       AMBV4       010VISTA          000000000495000000005200000000049500000000000000000005179000002627100
0202LOTE PADRAO                   USIMINAS    PNA        USIM5       010VISTA          000000000005200000000055000000000520000000000000000000053000000077200
0202LOTE PADRAO                   ELETROPAULO PN *       ELPL4       010VISTA          000000000025900000000274000000002590000000000000000000271000005522200
0202LOTE PADRAO                   TELE NORD CLPN *       TNEP4       010VISTA          000000000002300000000025200000000230000000000000000000025000111032000
0202LOTE PADRAO                   CEMIG       PN * EJ    CMIG4       010VISTA          000000000024500000000249000000002410000000000000000000245000070029200
0202LOTE PADRAO                   TELE CL SUL PN * EJ    TCSL4       010VISTA          000000000002700000000028000000000270000000000000000000028000151726000
0202LOTE PADRAO                   TRACTEBEL   ON *       TBLE3       010VISTA          000000000003300000000034000000000330000000000000000000034000005348200
0202LOTE PADRAO                   CEMIG       ON * EJ    CMIG3       010VISTA          000000000022000000000224000000002120000000000000000000219000001011300
0202LOTE PADRAO                   TELE CL SUL ON * EJ    TCSL3       010VISTA          000000000002250000000022000000000220000000000000000000022000021928000
0202LOTE PADRAO                   ITAUSA      PN         ITSA4       010VISTA          000000000001750000000018000000000174000000000000000000018000000749200
0202LOTE PADRAO                   V C P       PN *       VCPA4       010VISTA          000000000114000000001180000000011300000000000000000001140000005017600
0202LOTE PADRAO                   SID TUBARAO PN *       CSTB4       010VISTA          000000000035000000000372000000003500000000000000000000370000019208400
0202LOTE PADRAO                   BRADESPAR   PN *       BRAP4       010VISTA          000000000000450000000004800000000045000000000000000000004800242214000
0202LOTE PADRAO                   NET         PN         PLIM4       010VISTA          000000000000280000000002900000000026000000000000000000002800001079800
0202LOTE PADRAO                   TELE CTR OESPN * EJ    TCOC4       010VISTA          000000000003300000000035000000000330000000000000000000035000173245000
0202LOTE PADRAO                   TELEMAR N L PNA* EJ    TMAR5       010VISTA          000000000042100000000438000000004210000000000000000000437000025145900
0202LOTE PADRAO                   GERDAU      PN * EJ    GGBR4       010VISTA          000000000031800000000331000000003180000000000000000000330000027510800
0202LOTE PADRAO                   BRASIL      ON *       BBAS3       010VISTA          000000000009400000000099000000000940000000000000000000099000049380100
