00BDIN9999BOVESPA 99992002121320021213
0101IBOVESPA                      0105980104940106480000000000000000002002121300000020021213010564000000
0202LOTE PADRAO                   EMBRATEL PARPN *       EBTP4       010VISTA          000000000003300000000033000000000320000000000000000000032000299758000
0202LOTE PADRAO                   TRAN PAULISTPN * EJ    TRPL4       010VISTA          000000000005200000000053000000000520000000000000000000052000015178200
0202LOTE PADRAO                   EMBRATEL PARON *       EBTP3       010VISTA          000000000003900000000039000000000370000000000000000000038000029646900
0202LOTE PADRAO                   TELEMAR     PN * EJ    TNLP4       010VISTA          000000000026500000000265000000002600000000000000000000262000297083000
0202LOTE PADRAO                   ITAUBANCO   PN * EJ    ITAU4       010VISTA          000000000158000000001580000000015300000000000000000001540000009354100
0202LOTE PADRAO                   TELEMAR     ON * EJ    TNLP3       010VISTA          000000000019000000000190000000001850000000000000000000187000027114400
0202LOTE PADRAO                   SID NACIONALON *       CSNA3       010VISTA          000000000051100000000515000000005020000000000000000000515000028792700
0202LOTE PADRAO                   TELE LEST CLPN *       TLCP4       010VISTA          000000000000430000000004400000000043000000000000000000004400131511000
0202LOTE PADRAO                   CRT CELULAR PNA* EJ    CRTP5       010VISTA          000000000304000000003040000000030060000000000000000003010000000630400
0202LOTE PADRAO                   IPIRANGA PETPN *       PTIP4       010VISTA          000000000007100000000072000000000700000000000000000000072000001375000
0202LOTE PADRAO                   BRASIL T PARPN *       BRTP4       010VISTA          000000000017300000000177500000001720000000000000000000173000045460900
0202LOTE PADRAO                   BRASIL T PARON *       BRTP3       010VISTA          000000000013600000000137000000001350000000000000000000135000011951100
0202LOTE PADRAO                   KLABIN S/A  PN         KLBN4       010VISTA          000000000000980000000009900000000095000000000000000000009800000010300
0202LOTE PADRAO                   ACESITA     PN *       ACES4       010VISTA          000000000000920000000009500000000091000000000000000000009400152437000
0202LOTE PADRAO                   PETROBRAS   PN         PETR4       010VISTA          000000000045200000000452000000004450000000000000000000451000000085800
0202LOTE PADRAO                   ELETROBRAS  PNB*       ELET6       010VISTA          000000000019500000000198000000001930000000000000000000197000035464100
0202LOTE PADRAO                   PETROBRAS   ON         PETR3       010VISTA          000000000049800000000500000000004930000000000000000000496000000060200
0202LOTE PADRAO                   COMGAS      PNA*       CGAS5       010VISTA          000000000049000000000490000000004830000000000000000000489000001477600
0202LOTE PADRAO                   SOUZA CRUZ  ON EJ      CRUZ3       010VISTA          000000000017600000000178000000001730000000000000000000178000000028200
0202LOTE PADRAO                   ELETROBRAS  ON *       ELET3       010VISTA          000000000020500000000205000000001990000000000000000000202000020411000
0202LOTE PADRAO                   CELESC      PNB        CLSC6       010VISTA          000000000000480000000004900000000048000000000000000000004900000118600
0202LOTE PADRAO                   BRADESCO    PN * EJ    BBDC4       010VISTA          000000000009500000000096000000000940000000000000000000095000177467000
0202LOTE PADRAO                   CESP        PN *       CESP4       010VISTA          000000000006800000000069000000000660000000000000000000067100009772000
0202LOTE PADRAO                   LIGHT       ON *       LIGH3       010VISTA          000000000047500000000475000000004550000000000000000000473000000229100
0202LOTE PADRAO                   TELESP CL PAPN *       TSPP4       010VISTA          000000000003800000000039000000000370000000000000000000038000200556000
0202LOTE PADRAO                   VALE R DOCE PNA        VALE5       010VISTA          000000000100000000001010000000009850000000000000000000985000000018500
0202LOTE PADRAO                   COPEL       PNB*       CPLE6       010VISTA          000000000007700000000079000000000775000000000000000000078000099750500
0202LOTE PADRAO                   VALE R DOCE ON         VALE3       010VISTA          000000000108300000001083000000010500000000000000000001057000000010900
0202LOTE PADRAO                   ARACRUZ     PNB        ARCZ6       010VISTA          000000000006200000000062000000000600000000000000000000062000000126600
0202LOTE PADRAO                   TELEMIG PARTPN *       TMCP4       010VISTA          000000000003000000000030000000000280000000000000000000029000067998600
0202LOTE PADRAO                   BRASIL TELECPN *       BRTO4       010VISTA          000000000011300000000114000000001110000000000000000000112000030435800
0202LOTE PADRAO                   SABESP      ON *       SBSP3       010VISTA          000000000080000000000810000000007900000000000000000000795000005908100
0202LOTE PADRAO                   BRASKEM     PNA*       BRKM5       010VISTA          000000000206000000002070000000020180000000000000000002018000000419600
0202LOTE PADRAO                   EMBRAER     PN EJ      EMBR4       010VISTA          000000000013700000000138000000001350000000000000000000137000000039700
0202LOTE PADRAO                   TELESP      PN * EJ    TLPP4       010VISTA          000000000035800000000367000000003550000000000000000000355000005715800
0202LOTE PADRAO                   EMBRAER     ON EJ      EMBR3       010VISTA          000000000012500000000125000000001230000000000000000000123000000009500
0202LOTE PADRAO                   AMBEV       PN *       AMBV4       010VISTA          000000000546900000005480000000053000000000000000000005445000001150600
0202LOTE PADRAO                   USIMINAS    PNA        USIM5       010VISTA          000000000006100000000061000000000600000000000000000000060000000063300
0202LOTE PADRAO                   ELETROPAULO PN *       ELPL4       010VISTA          000000000022600000000244000000002250000000000000000000241000008020400
0202LOTE PADRAO                   TELE NORD CLPN *       TNEP4       010VISTA          000000000002800000000028000000000260000000000000000000026000232565000
0202LOTE PADRAO                   CEMIG       PN * EJ    CMIG4       010VISTA          000000000023000000000237000000002300000000000000000000235000042841200
0202LOTE PADRAO                   TELE CL SUL PN * EJ    TCSL4       010VISTA          000000000002700000000027000000000260000000000000000000027000087041100
0202LOTE PADRAO                   TRACTEBEL   ON *       TBLE3       010VISTA          000000000003600000000036000000000340000000000000000000035000002391500
0202LOTE PADRAO                   CEMIG       ON * EJ    CMIG3       010VISTA          000000000021000000000216000000002100000000000000000000216000000386700
0202LOTE PADRAO                   TELE CL SUL ON * EJ    TCSL3       010VISTA          000000000001940000000019600000000190000000000000000000019400015275900
0202LOTE PADRAO                   ITAUSA      PN         ITSA4       010VISTA          000000000001810000000018000000000179000000000000000000018100000286100
0202LOTE PADRAO                   V C P       PN *       VCPA4       010VISTA          000000000118000000001180000000011560000000000000000001175000002292600
0202LOTE PADRAO                   SID TUBARAO PN *       CSTB4       010VISTA          000000000037100000000379000000003700000000000000000000371000009492600
0202LOTE PADRAO                   BRADESPAR   PN *       BRAP4       010VISTA          000000000000510000000005500000000051000000000000000000005500953772000
0202LOTE PADRAO                   NET         PN         PLIM4       010VISTA          000000000000390000000004000000000038000000000000000000003900000611800
0202LOTE PADRAO                   TELE CTR OESPN * EJ    TCOC4       010VISTA          000000000004800000000048000000000450000000000000000000047000112777000
0202LOTE PADRAO                   TELEMAR N L PNA* EJ    TMAR5       010VISTA          000000000042000000000426000000004180000000000000000000420000027993900
0202LOTE PADRAO                   GERDAU      PN * EJ    GGBR4       010VISTA          000000000033000000000335000000003250000000000000000000328000022191300
0202LOTE PADRAO                   BRASIL      ON *       BBAS3       010VISTA          000000000009900000000100000000000980000000000000000000099000049981300
