00BDIN9999BOVESPA 99992002020820020208
0101IBOVESPA                      0126840125910126930000000000000000002002020800000020020208012598000000
0202LOTE PADRAO                   EMBRATEL PARPN *       EBTP4       010VISTA          000000000007500000000076000000000750000000000000000000076000119274000
0202LOTE PADRAO                   EMBRATEL PARON *       EBTP3       010VISTA          000000000009900000000101000000000960000000000000000000096000016527900
0202LOTE PADRAO                   TRAN PAULISTPN * EJ    TRPL4       010VISTA          000000000007000000000070000000000690000000000000000000070000005315200
0202LOTE PADRAO                   TELEMAR     PN * EJ    TNLP4       010VISTA          000000000030900000000312500000003070000000000000000000308000147967000
0202LOTE PADRAO                   ITAUBANCO   PN * EJ    ITAU4       010VISTA          000000000176500000001765000000017350000000000000000001735000003480100
0202LOTE PADRAO                   TELEMAR     ON * EJ    TNLP3       010VISTA          000000000027300000000278000000002700000000000000000000274000024026300
0202LOTE PADRAO                   SID NACIONALON *       CSNA3       010VISTA          000000000038700000000387000000003730000000000000000000375000006417200
0202LOTE PADRAO                   TELE LEST CLPN *       TLCP4       010VISTA          000000000000890000000009100000000087000000000000000000008800222401000
0202LOTE PADRAO                   CRT CELULAR PNA* EJ    CRTP5       010VISTA          000000000421000000004299000000041960000000000000000004299000000128900
0202LOTE PADRAO                   IPIRANGA PETPN *       PTIP4       010VISTA          000000000012600000000129000000001250000000000000000000125000001427700
0202LOTE PADRAO                   BRASIL T PARPN *       BRTP4       010VISTA          000000000016800000000169000000001660000000000000000000166000024084700
0202LOTE PADRAO                   BRASIL T PARON *       BRTP3       010VISTA          000000000016800000000170000000001650000000000000000000166000003497100
0202LOTE PADRAO                   KLABIN S/A  PN         KLBN4       010VISTA          000000000001100000000011000000000110000000000000000000011000000013300
0202LOTE PADRAO                   ACESITA     PN *       ACES4       010VISTA          000000000000660000000006600000000065000000000000000000006500074158600
0202LOTE PADRAO                   PETROBRAS   PN         PETR4       010VISTA          000000000048500000000490000000004750000000000000000000475000000037000
0202LOTE PADRAO                   ELETROBRAS  PNB*       ELET6       010VISTA          000000000034000000000341000000003360000000000000000000338000020896300
0202LOTE PADRAO                   PETROBRAS   ON         PETR3       010VISTA          000000000049700000000497000000004870000000000000000000488000000016000
0202LOTE PADRAO                   COMGAS      PNA*       CGAS5       010VISTA          000000000085500000000869000000008500000000000000000000850000000315300
0202LOTE PADRAO                   SOUZA CRUZ  ON EJ      CRUZ3       010VISTA          000000000014300000000143000000001390000000000000000000139000000009000
0202LOTE PADRAO                   ELETROBRAS  ON *       ELET3       010VISTA          000000000038600000000386000000003810000000000000000000381000005686500
0202LOTE PADRAO                   CELESC      PNB        CLSC6       010VISTA          000000000000500000000005000000000048000000000000000000004900000088500
0202LOTE PADRAO                   BRADESCO    PN * EJ    BBDC4       010VISTA          000000000012200000000123000000001225000000000000000000123000078371200
0202LOTE PADRAO                   CESP        PN *       CESP4       010VISTA          000000000015100000000151000000001460000000000000000000149000002964500
0202LOTE PADRAO                   LIGHT       ON *       LIGH3       010VISTA          000000000121000000001210000000012100000000000000000001210000000417700
0202LOTE PADRAO                   TELESP CL PAPN *       TSPP4       010VISTA          000000000007000000000070000000000690000000000000000000070000110984000
0202LOTE PADRAO                   VALE R DOCE PNA        VALE5       010VISTA          000000000055100000000558000000005460000000000000000000555000000015800
0202LOTE PADRAO                   COPEL       PNB*       CPLE6       010VISTA          000000000017000000000173000000001650000000000000000000166000013259900
0202LOTE PADRAO                   VALE R DOCE ON         VALE3       010VISTA          000000000054500000000553000000005450000000000000000000552000000001400
0202LOTE PADRAO                   ARACRUZ     PNB        ARCZ6       010VISTA          000000000004250000000043000000000425000000000000000000042000000010500
0202LOTE PADRAO                   TELEMIG PARTPN *       TMCP4       010VISTA          000000000003400000000035000000000340000000000000000000035000036545600
0202LOTE PADRAO                   BRASIL TELECPN *       BRTO4       010VISTA          000000000012100000000121000000001200000000000000000000120000051572800
0202LOTE PADRAO                   SABESP      ON *       SBSP3       010VISTA          000000000122600000001255000000012260000000000000000001236000005266100
0202LOTE PADRAO                   BRASKEM     PNA*       BRKM5       010VISTA          000000000522500000005300000000050480000000000000000005049000000319400
0202LOTE PADRAO                   EMBRAER     PN EJ      EMBR4       010VISTA          000000000013600000000136000000001340000000000000000000136000000027200
0202LOTE PADRAO                   TELESP      PN * EJ    TLPP4       010VISTA          000000000029300000000295000000002850000000000000000000295000002233700
0202LOTE PADRAO                   EMBRAER     ON EJ      EMBR3       010VISTA          000000000012300000000125000000001210000000000000000000124000000005900
0202LOTE PADRAO                   AMBEV       PN *       AMBV4       010VISTA          000000000459900000004599000000045150000000000000000004540000002378800
0202LOTE PADRAO                   USIMINAS    PNA        USIM5       010VISTA          000000000007200000000072000000000710000000000000000000072000000014100
0202LOTE PADRAO                   ELETROPAULO PN *       ELPL4       010VISTA          000000000066900000000670000000006250000000000000000000635000004592700
0202LOTE PADRAO                   TELE NORD CLPN *       TNEP4       010VISTA          000000000002800000000028000000000281000000000000000000028000055403000
0202LOTE PADRAO                   CEMIG       PN * EJ    CMIG4       010VISTA          000000000034000000000346000000003400000000000000000000346000016729900
0202LOTE PADRAO                   TELE CL SUL PN * EJ    TCSL4       010VISTA          000000000003100000000031000000000310000000000000000000031000029811100
0202LOTE PADRAO                   CEMIG       ON * EJ    CMIG3       010VISTA          000000000030000000000300000000002950000000000000000000299000000270400
0202LOTE PADRAO                   TELE CL SUL ON * EJ    TCSL3       010VISTA          000000000002700000000027700000000270000000000000000000027000006176400
0202LOTE PADRAO                   ITAUSA      PN         ITSA4       010VISTA          000000000002100000000021000000000210000000000000000000021000000095000
0202LOTE PADRAO                   V C P       PN *       VCPA4       010VISTA          000000000083000000000835000000008100000000000000000000810000006217300
0202LOTE PADRAO                   SID TUBARAO PN *       CSTB4       010VISTA          000000000020600000000206000000001975000000000000000000198000012941900
0202LOTE PADRAO                   BRADESPAR   PN *       BRAP4       010VISTA          000000000000700000000007100000000069000000000000000000007000078664700
0202LOTE PADRAO                   NET         PN         PLIM4       010VISTA          000000000000590000000006100000000058000000000000000000005800000863700
0202LOTE PADRAO                   TELE CTR OESPN * EJ    TCOC4       010VISTA          000000000004400000000045000000000440000000000000000000044000079533200
0202LOTE PADRAO                   TELEMAR N L PNA* EJ    TMAR5       010VISTA          000000000052200000000522000000005120000000000000000000512500027446900
0202LOTE PADRAO                   GERDAU      PN * EJ    GGBR4       010VISTA          000000000024100000000245000000002410000000000000000000243000011167000
0202LOTE PADRAO                   BRASIL      ON *       BBAS3       010VISTA          000000000009500000000099000000000950000000000000000000096000005572000
