00BDIN9999BOVESPA 99992002090620020906
0101IBOVESPA                      0097390096430098820000000000000000002002090600000020020906009717000000
0202LOTE PADRAO                   EMBRATEL PARPN *       EBTP4       010VISTA          000000000002300000000024000000000220000000000000000000022000309167000
0202LOTE PADRAO                   TRAN PAULISTPN * EJ    TRPL4       010VISTA          000000000005250000000052000000000510000000000000000000051000010453800
0202LOTE PADRAO                   EMBRATEL PARON *       EBTP3       010VISTA          000000000002800000000031000000000280000000000000000000029600032856000
0202LOTE PADRAO                   TELEMAR     PN * EJ    TNLP4       010VISTA          000000000024600000000250000000002430000000000000000000246000166187000
0202LOTE PADRAO                   ITAUBANCO   PN * EJ    ITAU4       010VISTA          000000000139000000001390000000013350000000000000000001335000010415100
0202LOTE PADRAO                   TELEMAR     ON * EJ    TNLP3       010VISTA          000000000019000000000190000000001810000000000000000000190000017523000
0202LOTE PADRAO                   SID NACIONALON *       CSNA3       010VISTA          000000000038500000000390000000003790000000000000000000381000008158000
0202LOTE PADRAO                   TELE LEST CLPN *       TLCP4       010VISTA          000000000000410000000004200000000040000000000000000000004000172862000
0202LOTE PADRAO                   CRT CELULAR PNA* EJ    CRTP5       010VISTA          000000000356000000003560000000034210000000000000000003500000000528900
0202LOTE PADRAO                   IPIRANGA PETPN *       PTIP4       010VISTA          000000000010600000000106000000001030000000000000000000104000002730900
0202LOTE PADRAO                   BRASIL T PARPN *       BRTP4       010VISTA          000000000016900000000172000000001680000000000000000000168000056215000
0202LOTE PADRAO                   BRASIL T PARON *       BRTP3       010VISTA          000000000013000000000132500000001280000000000000000000130000006666300
0202LOTE PADRAO                   KLABIN S/A  PN         KLBN4       010VISTA          000000000000840000000008700000000083000000000000000000008600000040200
0202LOTE PADRAO                   ACESITA     PN *       ACES4       010VISTA          000000000000650000000006500000000062000000000000000000006300116704000
0202LOTE PADRAO                   PETROBRAS   PN         PETR4       010VISTA          000000000045500000000463000000004520000000000000000000454000000097000
0202LOTE PADRAO                   ELETROBRAS  PNB*       ELET6       010VISTA          000000000019250000000195000000001870000000000000000000188000046539500
0202LOTE PADRAO                   PETROBRAS   ON         PETR3       010VISTA          000000000050400000000512000000005020000000000000000000507000000039100
0202LOTE PADRAO                   COMGAS      PNA*       CGAS5       010VISTA          000000000056000000000579000000005600000000000000000000570000000468500
0202LOTE PADRAO                   SOUZA CRUZ  ON EJ      CRUZ3       010VISTA          000000000014800000000148000000001440000000000000000000144000000010100
0202LOTE PADRAO                   ELETROBRAS  ON *       ELET3       010VISTA          000000000019300000000198000000001900000000000000000000193000008636600
0202LOTE PADRAO                   CELESC      PNB        CLSC6       010VISTA          000000000000550000000005700000000055000000000000000000005600000188100
0202LOTE PADRAO                   BRADESCO    PN * EJ    BBDC4       010VISTA          000000000009600000000098000000000940000000000000000000094000169103000
0202LOTE PADRAO                   CESP        PN *       CESP4       010VISTA          000000000007000000000072000000000680000000000000000000068000012119000
0202LOTE PADRAO                   LIGHT       ON *       LIGH3       010VISTA          000000000069300000000699000000006900000000000000000000690000000402900
0202LOTE PADRAO                   TELESP CL PAPN *       TSPP4       010VISTA          000000000003540000000036000000000340000000000000000000034000459598000
0202LOTE PADRAO                   VALE R DOCE PNA        VALE5       010VISTA          000000000072900000000730000000007050000000000000000000728000000042000
0202LOTE PADRAO                   COPEL       PNB*       CPLE6       010VISTA          000000000009500000000096000000000930000000000000000000096000018300500
0202LOTE PADRAO                   VALE R DOCE ON         VALE3       010VISTA          000000000078500000000800000000007850000000000000000000790000000004600
0202LOTE PADRAO                   ARACRUZ     PNB        ARCZ6       010VISTA          000000000005400000000054000000000540000000000000000000054000000049300
0202LOTE PADRAO                   TELEMIG PARTPN *       TMCP4       010VISTA          000000000002700000000027000000000260000000000000000000026000095704100
0202LOTE PADRAO                   BRASIL TELECPN *       BRTO4       010VISTA          000000000011250000000115000000001100000000000000000000111000048243900
0202LOTE PADRAO                   SABESP      ON *       SBSP3       010VISTA          000000000083000000000835000000007990000000000000000000799000003167300
0202LOTE PADRAO                   BRASKEM     PNA*       BRKM5       010VISTA          000000000280000000002879000000027200000000000000000002720000000093500
0202LOTE PADRAO                   EMBRAER     PN EJ      EMBR4       010VISTA          000000000013100000000133000000001300000000000000000000132000000050400
0202LOTE PADRAO                   TELESP      PN * EJ    TLPP4       010VISTA          000000000032700000000328000000003210000000000000000000325000012981700
0202LOTE PADRAO                   EMBRAER     ON EJ      EMBR3       010VISTA          000000000011800000000120000000001180000000000000000000118000000026700
0202LOTE PADRAO                   AMBEV       PN *       AMBV4       010VISTA          000000000422000000004240000000041880000000000000000004230000000715600
0202LOTE PADRAO                   USIMINAS    PNA        USIM5       010VISTA          000000000005500000000055000000000520000000000000000000053000000043800
0202LOTE PADRAO                   ELETROPAULO PN *       ELPL4       010VISTA          000000000030100000000315000000002910000000000000000000304000005217000
0202LOTE PADRAO                   TELE NORD CLPN *       TNEP4       010VISTA          000000000002500000000025000000000240000000000000000000024000068718900
0202LOTE PADRAO                   CEMIG       PN * EJ    CMIG4       010VISTA          000000000026100000000261000000002430000000000000000000246000025773900
0202LOTE PADRAO                   TELE CL SUL PN * EJ    TCSL4       010VISTA          000000000002600000000026000000000250000000000000000000025000049081600
0202LOTE PADRAO                   TRACTEBEL   ON *       TBLE3       010VISTA          000000000003900000000040000000000380000000000000000000039000047157100
0202LOTE PADRAO                   CEMIG       ON * EJ    CMIG3       010VISTA          000000000023100000000240000000002230000000000000000000235000000672200
0202LOTE PADRAO                   TELE CL SUL ON * EJ    TCSL3       010VISTA          000000000002100000000021000000000200000000000000000000020000015656800
0202LOTE PADRAO                   ITAUSA      PN         ITSA4       010VISTA          000000000001690000000016900000000160000000000000000000016000000248200
0202LOTE PADRAO                   V C P       PN *       VCPA4       010VISTA          000000000102000000001060000000010200000000000000000001060000001238700
0202LOTE PADRAO                   SID TUBARAO PN *       CSTB4       010VISTA          000000000024300000000256000000002360000000000000000000248000005890100
0202LOTE PADRAO                   BRADESPAR   PN *       BRAP4       010VISTA          000000000000480000000004800000000046000000000000000000004600159412000
0202LOTE PADRAO                   NET         PN         PLIM4       010VISTA          000000000000440000000004500000000043000000000000000000004300000457600
0202LOTE PADRAO                   TELE CTR OESPN * EJ    TCOC4       010VISTA          000000000003000000000030000000000280000000000000000000030000129454000
0202LOTE PADRAO                   TELEMAR N L PNA* EJ    TMAR5       010VISTA          000000000043700000000437500000004170000000000000000000437000009965500
0202LOTE PADRAO                   GERDAU      PN * EJ    GGBR4       010VISTA          000000000032200000000328000000003200000000000000000000326000014701100
0202LOTE PADRAO                   BRASIL      ON *       BBAS3       010VISTA          000000000010000000000101000000000950000000000000000000098000011033600
