00BDIN9999BOVESPA 99992002082920020829
0101IBOVESPA                      0103510101750105190000000000000000002002082900000020020829010455000000
0202LOTE PADRAO                   EMBRATEL PARPN *       EBTP4       010VISTA          000000000002810000000030000000000281000000000000000000029800971084000
0202LOTE PADRAO                   EMBRATEL PARON *       EBTP3       010VISTA          000000000003600000000040000000000360000000000000000000039000201402000
0202LOTE PADRAO                   TRAN PAULISTPN * EJ    TRPL4       010VISTA          000000000005600000000059000000000560000000000000000000057900019194900
0202LOTE PADRAO                   ITAUBANCO   PN * EJ    ITAU4       010VISTA          000000000141800000001435000000013400000000000000000001420000029109800
0202LOTE PADRAO                   TELEMAR     ON * EJ    TNLP3       010VISTA          000000000020100000000213000000001910000000000000000000212500033591800
0202LOTE PADRAO                   SID NACIONALON *       CSNA3       010VISTA          000000000041300000000422000000004050000000000000000000407000013118600
0202LOTE PADRAO                   TELE LEST CLPN *       TLCP4       010VISTA          000000000000430000000004800000000042000000000000000000004800646770000
0202LOTE PADRAO                   CRT CELULAR PNA* EJ    CRTP5       010VISTA          000000000384900000003849000000037500000000000000000003830000001377900
0202LOTE PADRAO                   IPIRANGA PETPN *       PTIP4       010VISTA          000000000011300000000116000000001090000000000000000000116000008847700
0202LOTE PADRAO                   BRASIL T PARPN *       BRTP4       010VISTA          000000000018000000000185000000001750000000000000000000182500114733000
0202LOTE PADRAO                   BRASIL T PARON *       BRTP3       010VISTA          000000000014000000000147000000001400000000000000000000143000013473900
0202LOTE PADRAO                   KLABIN S/A  PN         KLBN4       010VISTA          000000000000870000000009500000000087000000000000000000009200000030500
0202LOTE PADRAO                   ACESITA     PN *       ACES4       010VISTA          000000000000690000000006900000000067000000000000000000006700254705000
0202LOTE PADRAO                   PETROBRAS   PN         PETR4       010VISTA          000000000043500000000437500000004250000000000000000000436000000093100
0202LOTE PADRAO                   ELETROBRAS  PNB*       ELET6       010VISTA          000000000021000000000215000000002050000000000000000000213000052036000
0202LOTE PADRAO                   PETROBRAS   ON         PETR3       010VISTA          000000000046700000000480000000004600000000000000000000479000000024100
0202LOTE PADRAO                   COMGAS      PNA*       CGAS5       010VISTA          000000000053200000000610000000005150000000000000000000610000001845200
0202LOTE PADRAO                   SOUZA CRUZ  ON EJ      CRUZ3       010VISTA          000000000014600000000159000000001450000000000000000000156000000030200
0202LOTE PADRAO                   ELETROBRAS  ON *       ELET3       010VISTA          000000000021300000000220000000002110000000000000000000217000041840200
0202LOTE PADRAO                   CELESC      PNB        CLSC6       010VISTA          000000000000580000000006000000000056000000000000000000006000000176900
0202LOTE PADRAO                   BRADESCO    PN * EJ    BBDC4       010VISTA          000000000009800000000100000000000950000000000000000000098000259125000
0202LOTE PADRAO                   CESP        PN *       CESP4       010VISTA          000000000007500000000078000000000720000000000000000000078000014305200
0202LOTE PADRAO                   LIGHT       ON *       LIGH3       010VISTA          000000000076000000000820000000007600000000000000000000820000000622700
0202LOTE PADRAO                   TELESP CL PAPN *       TSPP4       010VISTA          000000000003900000000039000000000380000000000000000000038000601030000
0202LOTE PADRAO                   VALE R DOCE PNA        VALE5       010VISTA          000000000071600000000722000000006950000000000000000000695000000019400
0202LOTE PADRAO                   COPEL       PNB*       CPLE6       010VISTA          000000000009900000000103000000000975000000000000000000102500045711500
0202LOTE PADRAO                   VALE R DOCE ON         VALE3       010VISTA          000000000078700000000787000000007600000000000000000000760000000004500
0202LOTE PADRAO                   ARACRUZ     PNB        ARCZ6       010VISTA          000000000005500000000055000000000540000000000000000000055000000085300
0202LOTE PADRAO                   TELEMIG PARTPN *       TMCP4       010VISTA          000000000003000000000031000000000300000000000000000000030000152400000
0202LOTE PADRAO                   BRASIL TELECPN *       BRTO4       010VISTA          000000000012000000000121000000001160000000000000000000121000130179000
0202LOTE PADRAO                   SABESP      ON *       SBSP3       010VISTA          000000000086000000000874000000008400000000000000000000864000012051600
0202LOTE PADRAO                   BRASKEM     PNA*       BRKM5       010VISTA          000000000285000000003050000000028300000000000000000003010000000406300
0202LOTE PADRAO                   EMBRAER     PN EJ      EMBR4       010VISTA          000000000013700000000137000000001310000000000000000000132500000066000
0202LOTE PADRAO                   TELESP      PN * EJ    TLPP4       010VISTA          000000000033200000000350000000003320000000000000000000341000011993400
0202LOTE PADRAO                   EMBRAER     ON EJ      EMBR3       010VISTA          000000000012400000000124000000001200000000000000000000120000000023800
0202LOTE PADRAO                   AMBEV       PN *       AMBV4       010VISTA          000000000430000000004360000000042550000000000000000004340000002301500
0202LOTE PADRAO                   USIMINAS    PNA        USIM5       010VISTA          000000000005500000000057000000000540000000000000000000056000000074500
0202LOTE PADRAO                   ELETROPAULO PN *       ELPL4       010VISTA          000000000036000000000399000000003490000000000000000000399000006338800
0202LOTE PADRAO                   TELE NORD CLPN *       TNEP4       010VISTA          000000000002600000000027000000000250000000000000000000026900197688000
0202LOTE PADRAO                   CEMIG       PN * EJ    CMIG4       010VISTA          000000000027100000000276000000002610000000000000000000276000032096900
0202LOTE PADRAO                   TELE CL SUL PN * EJ    TCSL4       010VISTA          000000000002600000000027700000000260000000000000000000026000183879000
0202LOTE PADRAO                   TRACTEBEL   ON *       TBLE3       010VISTA          000000000003800000000039800000000380000000000000000000039800018088600
0202LOTE PADRAO                   CEMIG       ON * EJ    CMIG3       010VISTA          000000000023500000000253000000002350000000000000000000253000001766900
0202LOTE PADRAO                   TELE CL SUL ON * EJ    TCSL3       010VISTA          000000000002200000000023000000000220000000000000000000023000038823700
0202LOTE PADRAO                   ITAUSA      PN         ITSA4       010VISTA          000000000001710000000017700000000160000000000000000000017700000259600
0202LOTE PADRAO                   V C P       PN *       VCPA4       010VISTA          000000000103000000001049000000010200000000000000000001020000001865500
0202LOTE PADRAO                   SID TUBARAO PN *       CSTB4       010VISTA          000000000025100000000251000000002460000000000000000000250000005914500
0202LOTE PADRAO                   BRADESPAR   PN *       BRAP4       010VISTA          000000000000480000000005000000000048000000000000000000005000276155000
0202LOTE PADRAO                   NET         PN         PLIM4       010VISTA          000000000000420000000005000000000042000000000000000000004800002995200
0202LOTE PADRAO                   TELE CTR OESPN * EJ    TCOC4       010VISTA          000000000003100000000033000000000300000000000000000000033000217858000
0202LOTE PADRAO                   TELEMAR N L PNA* EJ    TMAR5       010VISTA          000000000046500000000471000000004500000000000000000000471000033486700
0202LOTE PADRAO                   GERDAU      PN * EJ    GGBR4       010VISTA          000000000032100000000337000000003210000000000000000000333000017010600
0202LOTE PADRAO                   BRASIL      ON *       BBAS3       010VISTA          000000000010300000000107000000001010000000000000000000105000010647500
