00BDIN9999BOVESPA 99992002070820020708
0101IBOVESPA                      0105240105060107080000000000000000002002070800000020020708010687000000
0202LOTE PADRAO                   EMBRATEL PARPN *       EBTP4       010VISTA          000000000001800000000019000000000180000000000000000000019000250776000
0202LOTE PADRAO                   TRAN PAULISTPN * EJ    TRPL4       010VISTA          000000000006000000000060000000000580000000000000000000060000000719300
0202LOTE PADRAO                   EMBRATEL PARON *       EBTP3       010VISTA          000000000002980000000030000000000280000000000000000000028000022737900
0202LOTE PADRAO                   TELEMAR     PN * EJ    TNLP4       010VISTA          000000000026300000000272000000002600000000000000000000271000103371000
0202LOTE PADRAO                   ITAUBANCO   PN * EJ    ITAU4       010VISTA          000000000152000000001550000000015150000000000000000001550000007572500
0202LOTE PADRAO                   TELEMAR     ON * EJ    TNLP3       010VISTA          000000000021500000000220000000002130000000000000000000220000008057200
0202LOTE PADRAO                   SID NACIONALON *       CSNA3       010VISTA          000000000047900000000483000000004730000000000000000000479000012088000
0202LOTE PADRAO                   TELE LEST CLPN *       TLCP4       010VISTA          000000000000560000000005700000000055000000000000000000005500028781800
0202LOTE PADRAO                   CRT CELULAR PNA* EJ    CRTP5       010VISTA          000000000388000000003960000000037500000000000000000003850000000373100
0202LOTE PADRAO                   IPIRANGA PETPN *       PTIP4       010VISTA          000000000011800000000118000000001150000000000000000000115000000872600
0202LOTE PADRAO                   BRASIL T PARPN *       BRTP4       010VISTA          000000000015500000000161000000001550000000000000000000160000035266500
0202LOTE PADRAO                   BRASIL T PARON *       BRTP3       010VISTA          000000000014100000000144000000001390000000000000000000143000006682800
0202LOTE PADRAO                   KLABIN S/A  PN         KLBN4       010VISTA          000000000000870000000008800000000086000000000000000000008800000008000
0202LOTE PADRAO                   ACESITA     PN *       ACES4       010VISTA          000000000000600000000006000000000058000000000000000000005900025259300
0202LOTE PADRAO                   PETROBRAS   PN         PETR4       010VISTA          000000000046500000000465000000004550000000000000000000458000000063200
0202LOTE PADRAO                   ELETROBRAS  PNB*       ELET6       010VISTA          000000000024500000000251000000002450000000000000000000248000023131000
0202LOTE PADRAO                   PETROBRAS   ON         PETR3       010VISTA          000000000050500000000505000000004920000000000000000000494000000014900
0202LOTE PADRAO                   COMGAS      PNA*       CGAS5       010VISTA          000000000059500000000595000000005840000000000000000000584000000270000
0202LOTE PADRAO                   SOUZA CRUZ  ON EJ      CRUZ3       010VISTA          000000000014400000000144000000001430000000000000000000143000000011200
0202LOTE PADRAO                   ELETROBRAS  ON *       ELET3       010VISTA          000000000028100000000281000000002700000000000000000000270000003879200
0202LOTE PADRAO                   CELESC      PNB        CLSC6       010VISTA          000000000000570000000005800000000057000000000000000000005800000195600
0202LOTE PADRAO                   BRADESCO    PN * EJ    BBDC4       010VISTA          000000000010600000000107000000001050000000000000000000106000073209700
0202LOTE PADRAO                   CESP        PN *       CESP4       010VISTA          000000000008300000000083000000000810000000000000000000081000004410200
0202LOTE PADRAO                   LIGHT       ON *       LIGH3       010VISTA          000000000085000000000875000000008500000000000000000000857000000358600
0202LOTE PADRAO                   TELESP CL PAPN *       TSPP4       010VISTA          000000000003690000000038000000000360000000000000000000037000143659000
0202LOTE PADRAO                   VALE R DOCE PNA        VALE5       010VISTA          000000000072000000000725000000007110000000000000000000724000000005200
0202LOTE PADRAO                   COPEL       PNB*       CPLE6       010VISTA          000000000011100000000116000000001110000000000000000000115000044689300
0202LOTE PADRAO                   VALE R DOCE ON         VALE3       010VISTA          000000000078400000000785000000007750000000000000000000775000000002800
0202LOTE PADRAO                   ARACRUZ     PNB        ARCZ6       010VISTA          000000000005500000000055000000000540000000000000000000054000000011200
0202LOTE PADRAO                   TELEMIG PARTPN *       TMCP4       010VISTA          000000000002600000000027900000000260000000000000000000027000027061300
0202LOTE PADRAO                   BRASIL TELECPN *       BRTO4       010VISTA          000000000010750000000111000000001060000000000000000000111000039617600
0202LOTE PADRAO                   SABESP      ON *       SBSP3       010VISTA          000000000096000000000967000000009400000000000000000000945000001185000
0202LOTE PADRAO                   BRASKEM     PNA*       BRKM5       010VISTA          000000000389000000003939000000037900000000000000000003790000000027700
0202LOTE PADRAO                   EMBRAER     PN EJ      EMBR4       010VISTA          000000000014900000000151000000001480000000000000000000150000000040100
0202LOTE PADRAO                   TELESP      PN * EJ    TLPP4       010VISTA          000000000032200000000327000000003200000000000000000000326000004488400
0202LOTE PADRAO                   EMBRAER     ON EJ      EMBR3       010VISTA          000000000013800000000139000000001380000000000000000000139000000007500
0202LOTE PADRAO                   AMBEV       PN *       AMBV4       010VISTA          000000000439500000004560000000043950000000000000000004535000001387000
0202LOTE PADRAO                   USIMINAS    PNA        USIM5       010VISTA          000000000006500000000065000000000640000000000000000000064000000011700
0202LOTE PADRAO                   ELETROPAULO PN *       ELPL4       010VISTA          000000000042800000000432000000004220000000000000000000430000000773900
0202LOTE PADRAO                   TELE NORD CLPN *       TNEP4       010VISTA          000000000002500000000025000000000240000000000000000000025200066585900
0202LOTE PADRAO                   CEMIG       PN * EJ    CMIG4       010VISTA          000000000030000000000305000000002950000000000000000000305000017618700
0202LOTE PADRAO                   TELE CL SUL PN * EJ    TCSL4       010VISTA          000000000002980000000030000000000296000000000000000000030000035676500
0202LOTE PADRAO                   TRACTEBEL   ON *       TBLE3       010VISTA          000000000004000000000040000000000390000000000000000000039000003338400
0202LOTE PADRAO                   CEMIG       ON * EJ    CMIG3       010VISTA          000000000028300000000286000000002750000000000000000000285000000240400
0202LOTE PADRAO                   TELE CL SUL ON * EJ    TCSL3       010VISTA          000000000002500000000025000000000240000000000000000000025200001063000
0202LOTE PADRAO                   ITAUSA      PN         ITSA4       010VISTA          000000000001800000000018000000000180000000000000000000018000000074500
0202LOTE PADRAO                   V C P       PN *       VCPA4       010VISTA          000000000106900000001069000000010200000000000000000001020000000272900
0202LOTE PADRAO                   SID TUBARAO PN *       CSTB4       010VISTA          000000000027000000000270000000002680000000000000000000270000001098900
0202LOTE PADRAO                   BRADESPAR   PN *       BRAP4       010VISTA          000000000000510000000005200000000050000000000000000000005200111468000
0202LOTE PADRAO                   NET         PN         PLIM4       010VISTA          000000000001400000000015200000000130000000000000000000015200000084300
0202LOTE PADRAO                   TELE CTR OESPN * EJ    TCOC4       010VISTA          000000000003400000000037100000000340000000000000000000036000079300300
0202LOTE PADRAO                   TELEMAR N L PNA* EJ    TMAR5       010VISTA          000000000046800000000479000000004650000000000000000000473000004432500
0202LOTE PADRAO                   GERDAU      PN * EJ    GGBR4       010VISTA          000000000030400000000311000000003025000000000000000000308000007743200
0202LOTE PADRAO                   BRASIL      ON *       BBAS3       010VISTA          000000000008500000000086000000000850000000000000000000085000003566200
