00BDIN9999BOVESPA 99992002022120020221
0101IBOVESPA                      0133280133280136770000000000000000002002022100000020020221013530000000
0202LOTE PADRAO                   EMBRATEL PARPN *       EBTP4       010VISTA          000000000008800000000090000000000875000000000000000000088000320770000
0202LOTE PADRAO                   EMBRATEL PARON *       EBTP3       010VISTA          000000000010500000000109000000001030000000000000000000108000032663600
0202LOTE PADRAO                   TRAN PAULISTPN * EJ    TRPL4       010VISTA          000000000007800000000078000000000740000000000000000000076000053353900
0202LOTE PADRAO                   TELEMAR     PN * EJ    TNLP4       010VISTA          000000000033800000000346000000003350000000000000000000340000427046000
0202LOTE PADRAO                   ITAUBANCO   PN * EJ    ITAU4       010VISTA          000000000185000000001900000000018500000000000000000001900000019771900
0202LOTE PADRAO                   TELEMAR     ON * EJ    TNLP3       010VISTA          000000000029900000000301000000002950000000000000000000300000022634900
0202LOTE PADRAO                   SID NACIONALON *       CSNA3       010VISTA          000000000038700000000398000000003870000000000000000000387000016661300
0202LOTE PADRAO                   TELE LEST CLPN *       TLCP4       010VISTA          000000000000850000000008700000000083000000000000000000008600233702000
0202LOTE PADRAO                   CRT CELULAR PNA* EJ    CRTP5       010VISTA          000000000454000000004870000000045400000000000000000004740000001345200
0202LOTE PADRAO                   IPIRANGA PETPN *       PTIP4       010VISTA          000000000012900000000131000000001290000000000000000000131000003143200
0202LOTE PADRAO                   BRASIL T PARPN *       BRTP4       010VISTA          000000000017500000000178000000001710000000000000000000175000131794000
0202LOTE PADRAO                   BRASIL T PARON *       BRTP3       010VISTA          000000000017400000000182000000001730000000000000000000180000007589600
0202LOTE PADRAO                   KLABIN S/A  PN         KLBN4       010VISTA          000000000001100000000012000000000110000000000000000000012000000045300
0202LOTE PADRAO                   ACESITA     PN *       ACES4       010VISTA          000000000000710000000007300000000071000000000000000000007200360637000
0202LOTE PADRAO                   PETROBRAS   PN         PETR4       010VISTA          000000000050500000000512000000005040000000000000000000510000000101100
0202LOTE PADRAO                   ELETROBRAS  PNB*       ELET6       010VISTA          000000000034100000000356000000003410000000000000000000347000072877400
0202LOTE PADRAO                   PETROBRAS   ON         PETR3       010VISTA          000000000051500000000527000000005130000000000000000000522000000027700
0202LOTE PADRAO                   COMGAS      PNA*       CGAS5       010VISTA          000000000090000000000920000000009000000000000000000000900000001234000
0202LOTE PADRAO                   SOUZA CRUZ  ON EJ      CRUZ3       010VISTA          000000000014500000000149000000001450000000000000000000147000000010600
0202LOTE PADRAO                   ELETROBRAS  ON *       ELET3       010VISTA          000000000039700000000409000000003970000000000000000000407000036494900
0202LOTE PADRAO                   CELESC      PNB        CLSC6       010VISTA          000000000000560000000005700000000055000000000000000000005500000483900
0202LOTE PADRAO                   BRADESCO    PN * EJ    BBDC4       010VISTA          000000000013000000000130000000001280000000000000000000130000251443000
0202LOTE PADRAO                   CESP        PN *       CESP4       010VISTA          000000000015100000000153000000001500000000000000000000151000010916600
0202LOTE PADRAO                   LIGHT       ON *       LIGH3       010VISTA          000000000124500000001255000000012100000000000000000001215000000640800
0202LOTE PADRAO                   TELESP CL PAPN *       TSPP4       010VISTA          000000000007300000000075400000000730000000000000000000073000369430000
0202LOTE PADRAO                   VALE R DOCE PNA        VALE5       010VISTA          000000000059000000000608000000005900000000000000000000601000000085800
0202LOTE PADRAO                   COPEL       PNB*       CPLE6       010VISTA          000000000017500000000178000000001750000000000000000000177500042598700
0202LOTE PADRAO                   VALE R DOCE ON         VALE3       010VISTA          000000000059600000000613000000005960000000000000000000610000000054500
0202LOTE PADRAO                   ARACRUZ     PNB        ARCZ6       010VISTA          000000000004700000000047000000000450000000000000000000047500000021000
0202LOTE PADRAO                   TELEMIG PARTPN *       TMCP4       010VISTA          000000000003600000000036000000000350000000000000000000035000117889000
0202LOTE PADRAO                   BRASIL TELECPN *       BRTO4       010VISTA          000000000012600000000130000000001260000000000000000000126000097795300
0202LOTE PADRAO                   SABESP      ON *       SBSP3       010VISTA          000000000125400000001269000000012490000000000000000001260000001286100
0202LOTE PADRAO                   BRASKEM     PNA*       BRKM5       010VISTA          000000000509900000005300000000050990000000000000000005150000000238900
0202LOTE PADRAO                   EMBRAER     PN EJ      EMBR4       010VISTA          000000000014900000000149000000001430000000000000000000144000000070000
0202LOTE PADRAO                   TELESP      PN * EJ    TLPP4       010VISTA          000000000031600000000330000000003100000000000000000000316000020065100
0202LOTE PADRAO                   EMBRAER     ON EJ      EMBR3       010VISTA          000000000013500000000135000000001290000000000000000000133000000017100
0202LOTE PADRAO                   AMBEV       PN *       AMBV4       010VISTA          000000000468000000004797000000046790000000000000000004735000004198000
0202LOTE PADRAO                   USIMINAS    PNA        USIM5       010VISTA          000000000007500000000077000000000740000000000000000000075400000149400
0202LOTE PADRAO                   ELETROPAULO PN *       ELPL4       010VISTA          000000000066000000000665000000006280000000000000000000629000013330600
0202LOTE PADRAO                   TELE NORD CLPN *       TNEP4       010VISTA          000000000002900000000030000000000290000000000000000000029000078212000
0202LOTE PADRAO                   CEMIG       PN * EJ    CMIG4       010VISTA          000000000036000000000367000000003520000000000000000000366000087013700
0202LOTE PADRAO                   TELE CL SUL PN * EJ    TCSL4       010VISTA          000000000003200000000032000000000320000000000000000000032000096410100
0202LOTE PADRAO                   CEMIG       ON * EJ    CMIG3       010VISTA          000000000032700000000332000000003270000000000000000000332000002204100
0202LOTE PADRAO                   TELE CL SUL ON * EJ    TCSL3       010VISTA          000000000002800000000028000000000280000000000000000000028000016996000
0202LOTE PADRAO                   ITAUSA      PN         ITSA4       010VISTA          000000000002200000000022700000000220000000000000000000022700000477500
0202LOTE PADRAO                   V C P       PN *       VCPA4       010VISTA          000000000087500000000879000000008750000000000000000000877000001842300
0202LOTE PADRAO                   SID TUBARAO PN *       CSTB4       010VISTA          000000000021600000000226000000002160000000000000000000226000007629000
0202LOTE PADRAO                   BRADESPAR   PN *       BRAP4       010VISTA          000000000000750000000007700000000074000000000000000000007700321824000
0202LOTE PADRAO                   NET         PN         PLIM4       010VISTA          000000000000680000000006900000000066000000000000000000006700000627400
0202LOTE PADRAO                   TELE CTR OESPN * EJ    TCOC4       010VISTA          000000000004800000000048000000000450000000000000000000046000221865000
0202LOTE PADRAO                   TELEMAR N L PNA* EJ    TMAR5       010VISTA          000000000057500000000585000000005600000000000000000000580000048795700
0202LOTE PADRAO                   GERDAU      PN * EJ    GGBR4       010VISTA          000000000026600000000270000000002610000000000000000000263000030943600
0202LOTE PADRAO                   BRASIL      ON *       BBAS3       010VISTA          000000000010300000000105000000001030000000000000000000105000007961100
