00BDIN9999BOVESPA 99992002082120020821
0101IBOVESPA                      0092700092700094950000000000000000002002082100000020020821009438000000
0202LOTE PADRAO                   EMBRATEL PARPN *       EBTP4       010VISTA          000000000001780000000018000000000176000000000000000000018100260907000
0202LOTE PADRAO                   EMBRATEL PARON *       EBTP3       010VISTA          000000000002300000000023000000000220000000000000000000022000042142200
0202LOTE PADRAO                   TRAN PAULISTPN * EJ    TRPL4       010VISTA          000000000005600000000059000000000560000000000000000000059600030584300
0202LOTE PADRAO                   ITAUBANCO   PN * EJ    ITAU4       010VISTA          000000000122100000001259000000012170000000000000000001230000021802500
0202LOTE PADRAO                   TELEMAR     ON * EJ    TNLP3       010VISTA          000000000017000000000173000000001660000000000000000000168000017505400
0202LOTE PADRAO                   SID NACIONALON *       CSNA3       010VISTA          000000000039900000000415000000003950000000000000000000405000010232600
0202LOTE PADRAO                   TELE LEST CLPN *       TLCP4       010VISTA          000000000000400000000004100000000039000000000000000000004000167621000
0202LOTE PADRAO                   CRT CELULAR PNA* EJ    CRTP5       010VISTA          000000000364900000003740000000036490000000000000000003700000000417400
0202LOTE PADRAO                   IPIRANGA PETPN *       PTIP4       010VISTA          000000000011700000000119000000001150000000000000000000115000001646100
0202LOTE PADRAO                   BRASIL T PARPN *       BRTP4       010VISTA          000000000017100000000177000000001710000000000000000000176000117774000
0202LOTE PADRAO                   BRASIL T PARON *       BRTP3       010VISTA          000000000013100000000134000000001280000000000000000000132000005166500
0202LOTE PADRAO                   KLABIN S/A  PN         KLBN4       010VISTA          000000000000920000000009200000000087000000000000000000009100000024200
0202LOTE PADRAO                   ACESITA     PN *       ACES4       010VISTA          000000000000710000000007200000000069000000000000000000006900187606000
0202LOTE PADRAO                   PETROBRAS   PN         PETR4       010VISTA          000000000040000000000406000000003970000000000000000000400000000136100
0202LOTE PADRAO                   ELETROBRAS  PNB*       ELET6       010VISTA          000000000018600000000188000000001810000000000000000000186000074049500
0202LOTE PADRAO                   PETROBRAS   ON         PETR3       010VISTA          000000000043300000000448000000004320000000000000000000442000000124600
0202LOTE PADRAO                   COMGAS      PNA*       CGAS5       010VISTA          000000000048000000000499000000004800000000000000000000491000001956200
0202LOTE PADRAO                   SOUZA CRUZ  ON EJ      CRUZ3       010VISTA          000000000014400000000145000000001400000000000000000000140000000009200
0202LOTE PADRAO                   ELETROBRAS  ON *       ELET3       010VISTA          000000000019500000000197000000001910000000000000000000195000005706800
0202LOTE PADRAO                   CELESC      PNB        CLSC6       010VISTA          000000000000580000000006000000000058000000000000000000005800000367500
0202LOTE PADRAO                   BRADESCO    PN * EJ    BBDC4       010VISTA          000000000009000000000091000000000880000000000000000000090000308451000
0202LOTE PADRAO                   CESP        PN *       CESP4       010VISTA          000000000006700000000069000000000670000000000000000000068000006949900
0202LOTE PADRAO                   LIGHT       ON *       LIGH3       010VISTA          000000000074000000000750000000007020000000000000000000750000000212800
0202LOTE PADRAO                   TELESP CL PAPN *       TSPP4       010VISTA          000000000003600000000036000000000354000000000000000000036000269426000
0202LOTE PADRAO                   VALE R DOCE PNA        VALE5       010VISTA          000000000071000000000739000000007070000000000000000000712000000030500
0202LOTE PADRAO                   COPEL       PNB*       CPLE6       010VISTA          000000000009000000000091000000000880000000000000000000090000063999000
0202LOTE PADRAO                   VALE R DOCE ON         VALE3       010VISTA          000000000078000000000780000000007770000000000000000000779000000013300
0202LOTE PADRAO                   ARACRUZ     PNB        ARCZ6       010VISTA          000000000005300000000054000000000525000000000000000000052000000085600
0202LOTE PADRAO                   TELEMIG PARTPN *       TMCP4       010VISTA          000000000002800000000028000000000270000000000000000000027000110827000
0202LOTE PADRAO                   BRASIL TELECPN *       BRTO4       010VISTA          000000000010800000000110000000001060000000000000000000110000080582100
0202LOTE PADRAO                   SABESP      ON *       SBSP3       010VISTA          000000000077900000000779000000007450000000000000000000769000005209800
0202LOTE PADRAO                   BRASKEM     PNA*       BRKM5       010VISTA          000000000285100000002990000000028300000000000000000002830000000143000
0202LOTE PADRAO                   EMBRAER     PN EJ      EMBR4       010VISTA          000000000013500000000137000000001350000000000000000000136000000079300
0202LOTE PADRAO                   TELESP      PN * EJ    TLPP4       010VISTA          000000000032300000000323000000003200000000000000000000321000010484600
0202LOTE PADRAO                   EMBRAER     ON EJ      EMBR3       010VISTA          000000000012600000000127500000001250000000000000000000127500000013700
0202LOTE PADRAO                   AMBEV       PN *       AMBV4       010VISTA          000000000445000000004470000000043390000000000000000004345000001786700
0202LOTE PADRAO                   USIMINAS    PNA        USIM5       010VISTA          000000000005000000000050000000000480000000000000000000048000000067500
0202LOTE PADRAO                   ELETROPAULO PN *       ELPL4       010VISTA          000000000028700000000341000000002760000000000000000000341000011127800
0202LOTE PADRAO                   TELE NORD CLPN *       TNEP4       010VISTA          000000000002400000000025000000000240000000000000000000025000130904000
0202LOTE PADRAO                   CEMIG       PN * EJ    CMIG4       010VISTA          000000000023200000000233000000002260000000000000000000232000068115700
0202LOTE PADRAO                   TELE CL SUL PN * EJ    TCSL4       010VISTA          000000000002560000000025600000000240000000000000000000024000077202700
0202LOTE PADRAO                   TRACTEBEL   ON *       TBLE3       010VISTA          000000000004200000000042000000000400000000000000000000041000043571800
0202LOTE PADRAO                   CEMIG       ON * EJ    CMIG3       010VISTA          000000000023100000000234000000002180000000000000000000220000001045000
0202LOTE PADRAO                   TELE CL SUL ON * EJ    TCSL3       010VISTA          000000000002100000000021000000000200000000000000000000020000022791400
0202LOTE PADRAO                   ITAUSA      PN         ITSA4       010VISTA          000000000001600000000016000000000150000000000000000000016000000499300
0202LOTE PADRAO                   V C P       PN *       VCPA4       010VISTA          000000000101500000001062000000010140000000000000000001049000005892900
0202LOTE PADRAO                   SID TUBARAO PN *       CSTB4       010VISTA          000000000026900000000269000000002540000000000000000000255000010880900
0202LOTE PADRAO                   BRADESPAR   PN *       BRAP4       010VISTA          000000000000480000000004900000000048000000000000000000004800178147000
0202LOTE PADRAO                   NET         PN         PLIM4       010VISTA          000000000000410000000004300000000041000000000000000000004300000505200
0202LOTE PADRAO                   TELE CTR OESPN * EJ    TCOC4       010VISTA          000000000002500000000026000000000250000000000000000000026000160893000
0202LOTE PADRAO                   TELEMAR N L PNA* EJ    TMAR5       010VISTA          000000000039400000000399000000003850000000000000000000385000059775400
0202LOTE PADRAO                   GERDAU      PN * EJ    GGBR4       010VISTA          000000000032200000000326000000003190000000000000000000321000020451700
0202LOTE PADRAO                   BRASIL      ON *       BBAS3       010VISTA          000000000009700000000100000000000960000000000000000000100000008087500
