00BDIN9999BOVESPA 99992002081620020816
0101IBOVESPA                      0092130092130095390000000000000000002002081600000020020816009526000000
0202LOTE PADRAO                   EMBRATEL PARPN *       EBTP4       010VISTA          000000000001600000000017700000000160000000000000000000017700277463000
0202LOTE PADRAO                   EMBRATEL PARON *       EBTP3       010VISTA          000000000001990000000022500000000199000000000000000000022000063375600
0202LOTE PADRAO                   TRAN PAULISTPN * EJ    TRPL4       010VISTA          000000000005200000000055000000000520000000000000000000055000025542500
0202LOTE PADRAO                   ITAUBANCO   PN * EJ    ITAU4       010VISTA          000000000125000000001250000000012000000000000000000001244000019295500
0202LOTE PADRAO                   TELEMAR     ON * EJ    TNLP3       010VISTA          000000000017000000000177000000001680000000000000000000176000017041600
0202LOTE PADRAO                   SID NACIONALON *       CSNA3       010VISTA          000000000035900000000385000000003590000000000000000000380000009855800
0202LOTE PADRAO                   TELE LEST CLPN *       TLCP4       010VISTA          000000000000390000000004200000000039000000000000000000004200176266000
0202LOTE PADRAO                   CRT CELULAR PNA* EJ    CRTP5       010VISTA          000000000360000000003750000000035500000000000000000003600000000250400
0202LOTE PADRAO                   IPIRANGA PETPN *       PTIP4       010VISTA          000000000011800000000118000000001125000000000000000000114000003520000
0202LOTE PADRAO                   BRASIL T PARPN *       BRTP4       010VISTA          000000000017100000000178000000001700000000000000000000176000084769500
0202LOTE PADRAO                   BRASIL T PARON *       BRTP3       010VISTA          000000000012750000000133000000001250000000000000000000131000011295000
0202LOTE PADRAO                   KLABIN S/A  PN         KLBN4       010VISTA          000000000000880000000009500000000086000000000000000000009000000139800
0202LOTE PADRAO                   ACESITA     PN *       ACES4       010VISTA          000000000000670000000007200000000067000000000000000000007200234741000
0202LOTE PADRAO                   PETROBRAS   PN         PETR4       010VISTA          000000000040500000000415000000003940000000000000000000407500000109200
0202LOTE PADRAO                   ELETROBRAS  PNB*       ELET6       010VISTA          000000000020000000000203000000001980000000000000000000200000070548800
0202LOTE PADRAO                   PETROBRAS   ON         PETR3       010VISTA          000000000043500000000450000000004340000000000000000000449000000029900
0202LOTE PADRAO                   COMGAS      PNA*       CGAS5       010VISTA          000000000044200000000480000000004420000000000000000000470000000891000
0202LOTE PADRAO                   SOUZA CRUZ  ON EJ      CRUZ3       010VISTA          000000000013900000000144000000001380000000000000000000140000000011000
0202LOTE PADRAO                   ELETROBRAS  ON *       ELET3       010VISTA          000000000020600000000208000000002030000000000000000000203000034839900
0202LOTE PADRAO                   CELESC      PNB        CLSC6       010VISTA          000000000000550000000005800000000055000000000000000000005700000216700
0202LOTE PADRAO                   BRADESCO    PN * EJ    BBDC4       010VISTA          000000000008600000000089000000000840000000000000000000088000253584000
0202LOTE PADRAO                   CESP        PN *       CESP4       010VISTA          000000000006400000000071000000000640000000000000000000071000009552000
0202LOTE PADRAO                   LIGHT       ON *       LIGH3       010VISTA          000000000073000000000769000000007300000000000000000000769000000261100
0202LOTE PADRAO                   TELESP CL PAPN *       TSPP4       010VISTA          000000000003500000000037000000000350000000000000000000036000371702000
0202LOTE PADRAO                   VALE R DOCE PNA        VALE5       010VISTA          000000000071900000000740000000007100000000000000000000740000000018100
0202LOTE PADRAO                   COPEL       PNB*       CPLE6       010VISTA          000000000009400000000094000000000900000000000000000000091000081643600
0202LOTE PADRAO                   VALE R DOCE ON         VALE3       010VISTA          000000000077000000000815000000007700000000000000000000805000000008300
0202LOTE PADRAO                   ARACRUZ     PNB        ARCZ6       010VISTA          000000000005500000000056000000000530000000000000000000053000000057000
0202LOTE PADRAO                   TELEMIG PARTPN *       TMCP4       010VISTA          000000000003000000000030000000000290000000000000000000029000131918000
0202LOTE PADRAO                   BRASIL TELECPN *       BRTO4       010VISTA          000000000010900000000111000000001075000000000000000000110000069426800
0202LOTE PADRAO                   SABESP      ON *       SBSP3       010VISTA          000000000084900000000849000000007980000000000000000000805000008105400
0202LOTE PADRAO                   BRASKEM     PNA*       BRKM5       010VISTA          000000000320000000003249000000031510000000000000000003151000000215300
0202LOTE PADRAO                   EMBRAER     PN EJ      EMBR4       010VISTA          000000000012600000000138000000001260000000000000000000133000000069300
0202LOTE PADRAO                   TELESP      PN * EJ    TLPP4       010VISTA          000000000032000000000324000000003130000000000000000000322000007658300
0202LOTE PADRAO                   EMBRAER     ON EJ      EMBR3       010VISTA          000000000011400000000123000000001140000000000000000000122000000033100
0202LOTE PADRAO                   AMBEV       PN *       AMBV4       010VISTA          000000000444000000004540000000043300000000000000000004370000001650000
0202LOTE PADRAO                   USIMINAS    PNA        USIM5       010VISTA          000000000005200000000054000000000520000000000000000000052000000073800
0202LOTE PADRAO                   ELETROPAULO PN *       ELPL4       010VISTA          000000000025500000000270000000002500000000000000000000266000012546700
0202LOTE PADRAO                   TELE NORD CLPN *       TNEP4       010VISTA          000000000002300000000025400000000230000000000000000000025400099158500
0202LOTE PADRAO                   CEMIG       PN * EJ    CMIG4       010VISTA          000000000023500000000235000000002260000000000000000000234000043871200
0202LOTE PADRAO                   TELE CL SUL PN * EJ    TCSL4       010VISTA          000000000002400000000026000000000240000000000000000000026000069933000
0202LOTE PADRAO                   TRACTEBEL   ON *       TBLE3       010VISTA          000000000004100000000043000000000410000000000000000000042000005277300
0202LOTE PADRAO                   CEMIG       ON * EJ    CMIG3       010VISTA          000000000022800000000230000000002180000000000000000000230000000699200
0202LOTE PADRAO                   TELE CL SUL ON * EJ    TCSL3       010VISTA          000000000002000000000022000000000200000000000000000000022000019653300
0202LOTE PADRAO                   ITAUSA      PN         ITSA4       010VISTA          000000000001520000000015600000000149000000000000000000015600000480300
0202LOTE PADRAO                   V C P       PN *       VCPA4       010VISTA          000000000101000000001010000000009900000000000000000001000000001711200
0202LOTE PADRAO                   SID TUBARAO PN *       CSTB4       010VISTA          000000000024500000000265000000002450000000000000000000257500005302700
0202LOTE PADRAO                   BRADESPAR   PN *       BRAP4       010VISTA          000000000000480000000004900000000047000000000000000000004800141921000
0202LOTE PADRAO                   NET         PN         PLIM4       010VISTA          000000000000380000000004100000000037000000000000000000004100000293100
0202LOTE PADRAO                   TELE CTR OESPN * EJ    TCOC4       010VISTA          000000000002400000000026000000000210000000000000000000026000508202000
0202LOTE PADRAO                   TELEMAR N L PNA* EJ    TMAR5       010VISTA          000000000038900000000399000000003810000000000000000000399000024687000
0202LOTE PADRAO                   GERDAU      PN * EJ    GGBR4       010VISTA          000000000031100000000316000000003110000000000000000000316000021602000
0202LOTE PADRAO                   BRASIL      ON *       BBAS3       010VISTA          000000000009300000000100000000000920000000000000000000100000007354300
