00BDIN9999BOVESPA 99992002121220021212
0101IBOVESPA                      0106170105690107430000000000000000002002121200000020021212010587000000
0202LOTE PADRAO                   EMBRATEL PARPN *       EBTP4       010VISTA          000000000003300000000034000000000320000000000000000000032000431699000
0202LOTE PADRAO                   TRAN PAULISTPN * EJ    TRPL4       010VISTA          000000000005200000000053000000000520000000000000000000052000011709900
0202LOTE PADRAO                   EMBRATEL PARON *       EBTP3       010VISTA          000000000004000000000041000000000370000000000000000000037000051840300
0202LOTE PADRAO                   TELEMAR     PN * EJ    TNLP4       010VISTA          000000000026500000000269000000002610000000000000000000263000233696000
0202LOTE PADRAO                   ITAUBANCO   PN * EJ    ITAU4       010VISTA          000000000158500000001592500000015700000000000000000001580000016404100
0202LOTE PADRAO                   TELEMAR     ON * EJ    TNLP3       010VISTA          000000000019000000000193000000001880000000000000000000191000011953600
0202LOTE PADRAO                   SID NACIONALON *       CSNA3       010VISTA          000000000050300000000510000000005030000000000000000000507000009446600
0202LOTE PADRAO                   TELE LEST CLPN *       TLCP4       010VISTA          000000000000430000000004300000000042000000000000000000004200076799000
0202LOTE PADRAO                   CRT CELULAR PNA* EJ    CRTP5       010VISTA          000000000303000000003045000000030150000000000000000003030000000319700
0202LOTE PADRAO                   IPIRANGA PETPN *       PTIP4       010VISTA          000000000007200000000072000000000710000000000000000000072000000937500
0202LOTE PADRAO                   BRASIL T PARPN *       BRTP4       010VISTA          000000000017700000000178000000001720000000000000000000173000079375200
0202LOTE PADRAO                   BRASIL T PARON *       BRTP3       010VISTA          000000000014000000000141000000001350000000000000000000136000015815500
0202LOTE PADRAO                   KLABIN S/A  PN         KLBN4       010VISTA          000000000000980000000009800000000095000000000000000000009700000007000
0202LOTE PADRAO                   ACESITA     PN *       ACES4       010VISTA          000000000000920000000009400000000089000000000000000000009200309441000
0202LOTE PADRAO                   PETROBRAS   PN         PETR4       010VISTA          000000000044600000000455000000004420000000000000000000452000000109300
0202LOTE PADRAO                   ELETROBRAS  PNB*       ELET6       010VISTA          000000000019500000000197500000001920000000000000000000193000043167400
0202LOTE PADRAO                   PETROBRAS   ON         PETR3       010VISTA          000000000049200000000505000000004920000000000000000000499000000031300
0202LOTE PADRAO                   COMGAS      PNA*       CGAS5       010VISTA          000000000050000000000500000000004840000000000000000000486000000957400
0202LOTE PADRAO                   SOUZA CRUZ  ON EJ      CRUZ3       010VISTA          000000000018500000000186000000001660000000000000000000170000000153500
0202LOTE PADRAO                   ELETROBRAS  ON *       ELET3       010VISTA          000000000020300000000205000000001980000000000000000000203000008412700
0202LOTE PADRAO                   CELESC      PNB        CLSC6       010VISTA          000000000000480000000004800000000047000000000000000000004800000086000
0202LOTE PADRAO                   BRADESCO    PN * EJ    BBDC4       010VISTA          000000000009500000000096000000000940000000000000000000095000252142000
0202LOTE PADRAO                   CESP        PN *       CESP4       010VISTA          000000000006700000000068000000000670000000000000000000067000005282500
0202LOTE PADRAO                   LIGHT       ON *       LIGH3       010VISTA          000000000047700000000477000000004660000000000000000000466000000097900
0202LOTE PADRAO                   TELESP CL PAPN *       TSPP4       010VISTA          000000000003800000000039400000000377000000000000000000037700353294000
0202LOTE PADRAO                   VALE R DOCE PNA        VALE5       010VISTA          000000000102100000001034000000010150000000000000000001015000000018400
0202LOTE PADRAO                   COPEL       PNB*       CPLE6       010VISTA          000000000007400000000077000000000740000000000000000000077000073819200
0202LOTE PADRAO                   VALE R DOCE ON         VALE3       010VISTA          000000000109000000001100000000010800000000000000000001087000000008400
0202LOTE PADRAO                   ARACRUZ     PNB        ARCZ6       010VISTA          000000000006200000000063000000000625000000000000000000063000000038100
0202LOTE PADRAO                   TELEMIG PARTPN *       TMCP4       010VISTA          000000000002980000000030000000000290000000000000000000030000055025800
0202LOTE PADRAO                   BRASIL TELECPN *       BRTO4       010VISTA          000000000011400000000115000000001120000000000000000000113000087215000
0202LOTE PADRAO                   SABESP      ON *       SBSP3       010VISTA          000000000077500000000800000000007740000000000000000000797000006718200
0202LOTE PADRAO                   BRASKEM     PNA*       BRKM5       010VISTA          000000000210000000002100000000020600000000000000000002060000000154000
0202LOTE PADRAO                   EMBRAER     PN EJ      EMBR4       010VISTA          000000000013800000000138000000001360000000000000000000138000000067100
0202LOTE PADRAO                   TELESP      PN * EJ    TLPP4       010VISTA          000000000036000000000363000000003560000000000000000000360000010823800
0202LOTE PADRAO                   EMBRAER     ON EJ      EMBR3       010VISTA          000000000012500000000126000000001240000000000000000000125000000014100
0202LOTE PADRAO                   AMBEV       PN *       AMBV4       010VISTA          000000000544900000005489000000054000000000000000000005470000001089400
0202LOTE PADRAO                   USIMINAS    PNA        USIM5       010VISTA          000000000006100000000062000000000590000000000000000000060000000066200
0202LOTE PADRAO                   ELETROPAULO PN *       ELPL4       010VISTA          000000000022800000000233000000002210000000000000000000224000006835900
0202LOTE PADRAO                   TELE NORD CLPN *       TNEP4       010VISTA          000000000002800000000028000000000270000000000000000000028000082621500
0202LOTE PADRAO                   CEMIG       PN * EJ    CMIG4       010VISTA          000000000023300000000233000000002280000000000000000000229000040169500
0202LOTE PADRAO                   TELE CL SUL PN * EJ    TCSL4       010VISTA          000000000002700000000027000000000273000000000000000000027700039475300
0202LOTE PADRAO                   TRACTEBEL   ON *       TBLE3       010VISTA          000000000003500000000037300000000350000000000000000000035000036917800
0202LOTE PADRAO                   CEMIG       ON * EJ    CMIG3       010VISTA          000000000021100000000211000000002080000000000000000000211000002038000
0202LOTE PADRAO                   TELE CL SUL ON * EJ    TCSL3       010VISTA          000000000001970000000019900000000190000000000000000000019000023752900
0202LOTE PADRAO                   ITAUSA      PN         ITSA4       010VISTA          000000000001800000000018000000000180000000000000000000018000000238800
0202LOTE PADRAO                   V C P       PN *       VCPA4       010VISTA          000000000118000000001182000000011700000000000000000001175000000883800
0202LOTE PADRAO                   SID TUBARAO PN *       CSTB4       010VISTA          000000000037000000000377000000003670000000000000000000370000007228600
0202LOTE PADRAO                   BRADESPAR   PN *       BRAP4       010VISTA          000000000000490000000005100000000048000000000000000000005000654155000
0202LOTE PADRAO                   NET         PN         PLIM4       010VISTA          000000000000400000000004100000000038000000000000000000003800000920000
0202LOTE PADRAO                   TELE CTR OESPN * EJ    TCOC4       010VISTA          000000000004600000000048000000000460000000000000000000047900166334000
0202LOTE PADRAO                   TELEMAR N L PNA* EJ    TMAR5       010VISTA          000000000043900000000440000000004150000000000000000000419000057234000
0202LOTE PADRAO                   GERDAU      PN * EJ    GGBR4       010VISTA          000000000032700000000329000000003250000000000000000000328000022174900
0202LOTE PADRAO                   BRASIL      ON *       BBAS3       010VISTA          000000000010000000000100000000000980000000000000000000098000023835800
