00BDIN9999BOVESPA 99992002042220020422
0101IBOVESPA                      0134840130560134850000000000000000002002042200000020020422013224000000
0202LOTE PADRAO                   EMBRATEL PARPN *       EBTP4       010VISTA          000000000007200000000073000000000690000000000000000000070000203886000
0202LOTE PADRAO                   TRAN PAULISTPN * EJ    TRPL4       010VISTA          000000000007250000000072500000000690000000000000000000070000024970900
0202LOTE PADRAO                   EMBRATEL PARON *       EBTP3       010VISTA          000000000009000000000090000000000830000000000000000000083000048945600
0202LOTE PADRAO                   TELEMAR     PN * EJ    TNLP4       010VISTA          000000000030500000000310000000002980000000000000000000301000166290000
0202LOTE PADRAO                   ITAUBANCO   PN * EJ    ITAU4       010VISTA          000000000188300000001894000000018510000000000000000001885000008508700
0202LOTE PADRAO                   TELEMAR     ON * EJ    TNLP3       010VISTA          000000000027100000000271000000002550000000000000000000261000009238800
0202LOTE PADRAO                   SID NACIONALON *       CSNA3       010VISTA          000000000045800000000462000000004570000000000000000000462000009919500
0202LOTE PADRAO                   TELE LEST CLPN *       TLCP4       010VISTA          000000000000720000000007300000000069000000000000000000007200206335000
0202LOTE PADRAO                   CRT CELULAR PNA* EJ    CRTP5       010VISTA          000000000430000000004300000000040100000000000000000004200000000394600
0202LOTE PADRAO                   IPIRANGA PETPN *       PTIP4       010VISTA          000000000014750000000148000000001380000000000000000000148000004474600
0202LOTE PADRAO                   BRASIL T PARPN *       BRTP4       010VISTA          000000000019300000000193000000001830000000000000000000185000068121800
0202LOTE PADRAO                   BRASIL T PARON *       BRTP3       010VISTA          000000000017500000000181000000001730000000000000000000181000008950300
0202LOTE PADRAO                   KLABIN S/A  PN         KLBN4       010VISTA          000000000001000000000010000000000100000000000000000000010000000023800
0202LOTE PADRAO                   ACESITA     PN *       ACES4       010VISTA          000000000000750000000007600000000073000000000000000000007500210820000
0202LOTE PADRAO                   PETROBRAS   PN         PETR4       010VISTA          000000000055800000000560000000005500000000000000000000557000000088300
0202LOTE PADRAO                   ELETROBRAS  PNB*       ELET6       010VISTA          000000000034600000000347000000003350000000000000000000347000038444000
0202LOTE PADRAO                   PETROBRAS   ON         PETR3       010VISTA          000000000059200000000595000000005830000000000000000000591000000048400
0202LOTE PADRAO                   COMGAS      PNA*       CGAS5       010VISTA          000000000074500000000760000000007400000000000000000000750000002242000
0202LOTE PADRAO                   SOUZA CRUZ  ON EJ      CRUZ3       010VISTA          000000000015600000000156000000001520000000000000000000155000000016000
0202LOTE PADRAO                   ELETROBRAS  ON *       ELET3       010VISTA          000000000038000000000381000000003700000000000000000000378000013855300
0202LOTE PADRAO                   CELESC      PNB        CLSC6       010VISTA          000000000000550000000005500000000053000000000000000000005400000173700
0202LOTE PADRAO                   BRADESCO    PN * EJ    BBDC4       010VISTA          000000000014500000000145000000001430000000000000000000145000182155000
0202LOTE PADRAO                   CESP        PN *       CESP4       010VISTA          000000000013600000000136000000001330000000000000000000133000008711700
0202LOTE PADRAO                   LIGHT       ON *       LIGH3       010VISTA          000000000097500000000980000000009600000000000000000000975000000554800
0202LOTE PADRAO                   TELESP CL PAPN *       TSPP4       010VISTA          000000000006000000000060000000000560000000000000000000056000176089000
0202LOTE PADRAO                   VALE R DOCE PNA        VALE5       010VISTA          000000000063000000000654000000006300000000000000000000654000000031200
0202LOTE PADRAO                   COPEL       PNB*       CPLE6       010VISTA          000000000017500000000183000000001730000000000000000000178000029868000
0202LOTE PADRAO                   VALE R DOCE ON         VALE3       010VISTA          000000000064000000000661000000006400000000000000000000660000000041000
0202LOTE PADRAO                   ARACRUZ     PNB        ARCZ6       010VISTA          000000000004900000000049000000000480000000000000000000048000000054900
0202LOTE PADRAO                   TELEMIG PARTPN *       TMCP4       010VISTA          000000000003000000000030000000000270000000000000000000028000076081300
0202LOTE PADRAO                   BRASIL TELECPN *       BRTO4       010VISTA          000000000013300000000133000000001280000000000000000000129000049633800
0202LOTE PADRAO                   SABESP      ON *       SBSP3       010VISTA          000000000152000000001520000000014610000000000000000001490000002042600
0202LOTE PADRAO                   BRASKEM     PNA*       BRKM5       010VISTA          000000000521000000005300000000050600000000000000000005300000000157000
0202LOTE PADRAO                   EMBRAER     PN EJ      EMBR4       010VISTA          000000000012500000000125000000001230000000000000000000124000000073400
0202LOTE PADRAO                   TELESP      PN * EJ    TLPP4       010VISTA          000000000033300000000333000000003200000000000000000000330000006490700
0202LOTE PADRAO                   EMBRAER     ON EJ      EMBR3       010VISTA          000000000011400000000115000000001110000000000000000000113000000016900
0202LOTE PADRAO                   AMBEV       PN *       AMBV4       010VISTA          000000000480000000004845000000047300000000000000000004800000002483000
0202LOTE PADRAO                   USIMINAS    PNA        USIM5       010VISTA          000000000008100000000081000000000790000000000000000000081000000071000
0202LOTE PADRAO                   ELETROPAULO PN *       ELPL4       010VISTA          000000000065100000000651000000006350000000000000000000645000002217500
0202LOTE PADRAO                   TELE NORD CLPN *       TNEP4       010VISTA          000000000002600000000026000000000240000000000000000000024000125567000
0202LOTE PADRAO                   CEMIG       PN * EJ    CMIG4       010VISTA          000000000036600000000375000000003600000000000000000000372000040854400
0202LOTE PADRAO                   TELE CL SUL PN * EJ    TCSL4       010VISTA          000000000003000000000030000000000290000000000000000000030000076768900
0202LOTE PADRAO                   TRACTEBEL   ON *       TBLE3       010VISTA          000000000004400000000045400000000420000000000000000000045400033529200
0202LOTE PADRAO                   CEMIG       ON * EJ    CMIG3       010VISTA          000000000032800000000328000000003270000000000000000000328000000800000
0202LOTE PADRAO                   TELE CL SUL ON * EJ    TCSL3       010VISTA          000000000002730000000027000000000250000000000000000000027000038072300
0202LOTE PADRAO                   ITAUSA      PN         ITSA4       010VISTA          000000000002400000000024000000000230000000000000000000024000000410400
0202LOTE PADRAO                   V C P       PN *       VCPA4       010VISTA          000000000093500000000935000000009190000000000000000000919000003950700
0202LOTE PADRAO                   SID TUBARAO PN *       CSTB4       010VISTA          000000000025100000000264000000002510000000000000000000264000009990700
0202LOTE PADRAO                   BRADESPAR   PN *       BRAP4       010VISTA          000000000000720000000007200000000069000000000000000000006900269168000
0202LOTE PADRAO                   NET         PN         PLIM4       010VISTA          000000000000400000000004000000000037000000000000000000003700001436000
0202LOTE PADRAO                   TELE CTR OESPN * EJ    TCOC4       010VISTA          000000000004900000000049000000000475000000000000000000047000112802000
0202LOTE PADRAO                   TELEMAR N L PNA* EJ    TMAR5       010VISTA          000000000051600000000517000000005100000000000000000000512000016256900
0202LOTE PADRAO                   GERDAU      PN * EJ    GGBR4       010VISTA          000000000032250000000322500000003130000000000000000000315000021110400
0202LOTE PADRAO                   BRASIL      ON *       BBAS3       010VISTA          000000000014000000000140000000001300000000000000000000135000006398000
