00BDIN9999BOVESPA 99992002080920020809
0101IBOVESPA                      0103150099710103150000000000000000002002080900000020020809009986000000
0202LOTE PADRAO                   EMBRATEL PARPN *       EBTP4       010VISTA          000000000001730000000017300000000160000000000000000000016000236775000
0202LOTE PADRAO                   EMBRATEL PARON *       EBTP3       010VISTA          000000000002400000000025000000000225000000000000000000022000037967400
0202LOTE PADRAO                   TRAN PAULISTPN * EJ    TRPL4       010VISTA          000000000005750000000057500000000540000000000000000000054000006442100
0202LOTE PADRAO                   ITAUBANCO   PN * EJ    ITAU4       010VISTA          000000000147600000001495000000013800000000000000000001380000020480900
0202LOTE PADRAO                   TELEMAR     ON * EJ    TNLP3       010VISTA          000000000018000000000184000000001760000000000000000000180000026626600
0202LOTE PADRAO                   SID NACIONALON *       CSNA3       010VISTA          000000000041100000000432000000004050000000000000000000425000030848000
0202LOTE PADRAO                   TELE LEST CLPN *       TLCP4       010VISTA          000000000000400000000004100000000039000000000000000000004000178466000
0202LOTE PADRAO                   CRT CELULAR PNA* EJ    CRTP5       010VISTA          000000000394000000004000000000038000000000000000000003800000000711000
0202LOTE PADRAO                   IPIRANGA PETPN *       PTIP4       010VISTA          000000000012250000000125000000001150000000000000000000115000004833900
0202LOTE PADRAO                   BRASIL T PARPN *       BRTP4       010VISTA          000000000017300000000177500000001700000000000000000000170000134330000
0202LOTE PADRAO                   BRASIL T PARON *       BRTP3       010VISTA          000000000012800000000129000000001220000000000000000000124000023870100
0202LOTE PADRAO                   KLABIN S/A  PN         KLBN4       010VISTA          000000000000950000000010000000000094000000000000000000009800000031000
0202LOTE PADRAO                   ACESITA     PN *       ACES4       010VISTA          000000000000710000000007100000000065000000000000000000006700164565000
0202LOTE PADRAO                   PETROBRAS   PN         PETR4       010VISTA          000000000043700000000462000000004350000000000000000000450000000267100
0202LOTE PADRAO                   ELETROBRAS  PNB*       ELET6       010VISTA          000000000022900000000230000000002210000000000000000000222000047639700
0202LOTE PADRAO                   PETROBRAS   ON         PETR3       010VISTA          000000000049000000000513000000004800000000000000000000504000000109700
0202LOTE PADRAO                   COMGAS      PNA*       CGAS5       010VISTA          000000000050100000000512000000004800000000000000000000490000001377000
0202LOTE PADRAO                   SOUZA CRUZ  ON EJ      CRUZ3       010VISTA          000000000014400000000145000000001430000000000000000000144000000037600
0202LOTE PADRAO                   ELETROBRAS  ON *       ELET3       010VISTA          000000000024100000000245000000002360000000000000000000236000011685300
0202LOTE PADRAO                   CELESC      PNB        CLSC6       010VISTA          000000000000560000000005700000000054000000000000000000005400000145700
0202LOTE PADRAO                   BRADESCO    PN * EJ    BBDC4       010VISTA          000000000010200000000103000000000980000000000000000000098000317708000
0202LOTE PADRAO                   CESP        PN *       CESP4       010VISTA          000000000007700000000079000000000750000000000000000000077000013059700
0202LOTE PADRAO                   LIGHT       ON *       LIGH3       010VISTA          000000000083000000000830000000008000000000000000000000800000000408900
0202LOTE PADRAO                   TELESP CL PAPN *       TSPP4       010VISTA          000000000003560000000035000000000350000000000000000000035400278770000
0202LOTE PADRAO                   VALE R DOCE PNA        VALE5       010VISTA          000000000069000000000729000000006900000000000000000000729000000028200
0202LOTE PADRAO                   COPEL       PNB*       CPLE6       010VISTA          000000000011400000000114000000001060000000000000000000107000059740600
0202LOTE PADRAO                   VALE R DOCE ON         VALE3       010VISTA          000000000074700000000769000000007470000000000000000000767000000009000
0202LOTE PADRAO                   ARACRUZ     PNB        ARCZ6       010VISTA          000000000005400000000055000000000530000000000000000000055000000171800
0202LOTE PADRAO                   TELEMIG PARTPN *       TMCP4       010VISTA          000000000003200000000032500000000300000000000000000000030000104913000
0202LOTE PADRAO                   BRASIL TELECPN *       BRTO4       010VISTA          000000000011300000000115000000001060000000000000000000106000133579000
0202LOTE PADRAO                   SABESP      ON *       SBSP3       010VISTA          000000000091500000000915000000008490000000000000000000849000003530100
0202LOTE PADRAO                   BRASKEM     PNA*       BRKM5       010VISTA          000000000364900000003649000000035000000000000000000003510000000161900
0202LOTE PADRAO                   EMBRAER     PN EJ      EMBR4       010VISTA          000000000014200000000143000000001400000000000000000000141000000089400
0202LOTE PADRAO                   TELESP      PN * EJ    TLPP4       010VISTA          000000000033100000000331000000003200000000000000000000320000010596800
0202LOTE PADRAO                   EMBRAER     ON EJ      EMBR3       010VISTA          000000000013300000000133000000001260000000000000000000128000000019300
0202LOTE PADRAO                   AMBEV       PN *       AMBV4       010VISTA          000000000435000000004450000000042800000000000000000004450000004049300
0202LOTE PADRAO                   USIMINAS    PNA        USIM5       010VISTA          000000000005960000000060000000000579000000000000000000057000000099900
0202LOTE PADRAO                   ELETROPAULO PN *       ELPL4       010VISTA          000000000034200000000342000000003190000000000000000000321000003822900
0202LOTE PADRAO                   TELE NORD CLPN *       TNEP4       010VISTA          000000000002700000000027300000000260000000000000000000026000145830000
0202LOTE PADRAO                   CEMIG       PN * EJ    CMIG4       010VISTA          000000000029000000000297000000002650000000000000000000265000038758500
0202LOTE PADRAO                   TELE CL SUL PN * EJ    TCSL4       010VISTA          000000000002800000000028000000000260000000000000000000026000099515000
0202LOTE PADRAO                   TRACTEBEL   ON *       TBLE3       010VISTA          000000000004000000000042000000000400000000000000000000041000024222500
0202LOTE PADRAO                   CEMIG       ON * EJ    CMIG3       010VISTA          000000000024600000000251000000002400000000000000000000240000001279000
0202LOTE PADRAO                   TELE CL SUL ON * EJ    TCSL3       010VISTA          000000000002300000000023000000000220000000000000000000022000013803500
0202LOTE PADRAO                   ITAUSA      PN         ITSA4       010VISTA          000000000001800000000018000000000173000000000000000000017300000342200
0202LOTE PADRAO                   V C P       PN *       VCPA4       010VISTA          000000000100000000001060000000010000000000000000000001050000003563000
0202LOTE PADRAO                   SID TUBARAO PN *       CSTB4       010VISTA          000000000026000000000266000000002550000000000000000000260000008004200
0202LOTE PADRAO                   BRADESPAR   PN *       BRAP4       010VISTA          000000000000500000000005000000000048000000000000000000004900127812000
0202LOTE PADRAO                   NET         PN         PLIM4       010VISTA          000000000000470000000004800000000038000000000000000000004100000553100
0202LOTE PADRAO                   TELE CTR OESPN * EJ    TCOC4       010VISTA          000000000003800000000038000000000360000000000000000000036000150845000
0202LOTE PADRAO                   TELEMAR N L PNA* EJ    TMAR5       010VISTA          000000000043200000000435000000004220000000000000000000422000017362600
0202LOTE PADRAO                   GERDAU      PN * EJ    GGBR4       010VISTA          000000000029100000000295000000002880000000000000000000290000024744700
0202LOTE PADRAO                   BRASIL      ON *       BBAS3       010VISTA          000000000009600000000096000000000910000000000000000000093000011211000
