00BDIN9999BOVESPA 99992002092520020925
0101IBOVESPA                      0092070092070093570000000000000000002002092500000020020925009228000000
0202LOTE PADRAO                   EMBRATEL PARPN *       EBTP4       010VISTA          000000000002300000000024000000000220000000000000000000024000366506000
0202LOTE PADRAO                   TRAN PAULISTPN * EJ    TRPL4       010VISTA          000000000005300000000054000000000530000000000000000000053000010894100
0202LOTE PADRAO                   EMBRATEL PARON *       EBTP3       010VISTA          000000000002900000000031000000000280000000000000000000031000035445700
0202LOTE PADRAO                   TELEMAR     PN * EJ    TNLP4       010VISTA          000000000023600000000240000000002330000000000000000000234000241021000
0202LOTE PADRAO                   ITAUBANCO   PN * EJ    ITAU4       010VISTA          000000000125500000001260000000012100000000000000000001212000018382800
0202LOTE PADRAO                   TELEMAR     ON * EJ    TNLP3       010VISTA          000000000017700000000182500000001760000000000000000000180000009774900
0202LOTE PADRAO                   SID NACIONALON *       CSNA3       010VISTA          000000000034000000000355000000003400000000000000000000352000027565800
0202LOTE PADRAO                   TELE LEST CLPN *       TLCP4       010VISTA          000000000000400000000004200000000038000000000000000000004000197396000
0202LOTE PADRAO                   CRT CELULAR PNA* EJ    CRTP5       010VISTA          000000000340000000003450000000033600000000000000000003399000000218300
0202LOTE PADRAO                   IPIRANGA PETPN *       PTIP4       010VISTA          000000000009500000000100000000000950000000000000000000099000000994000
0202LOTE PADRAO                   BRASIL T PARPN *       BRTP4       010VISTA          000000000017500000000179000000001740000000000000000000174000063200700
0202LOTE PADRAO                   BRASIL T PARON *       BRTP3       010VISTA          000000000013100000000135000000001300000000000000000000132000005259200
0202LOTE PADRAO                   KLABIN S/A  PN         KLBN4       010VISTA          000000000000870000000008900000000083000000000000000000008700000027300
0202LOTE PADRAO                   ACESITA     PN *       ACES4       010VISTA          000000000000610000000006400000000060000000000000000000006000179564000
0202LOTE PADRAO                   PETROBRAS   PN         PETR4       010VISTA          000000000041700000000421000000003950000000000000000000398000000185300
0202LOTE PADRAO                   ELETROBRAS  PNB*       ELET6       010VISTA          000000000017000000000175000000001690000000000000000000171000086565800
0202LOTE PADRAO                   PETROBRAS   ON         PETR3       010VISTA          000000000046200000000465000000004320000000000000000000438000000043800
0202LOTE PADRAO                   COMGAS      PNA*       CGAS5       010VISTA          000000000057000000000570000000005620000000000000000000567000000685000
0202LOTE PADRAO                   SOUZA CRUZ  ON EJ      CRUZ3       010VISTA          000000000015750000000162000000001575000000000000000000158000000022300
0202LOTE PADRAO                   ELETROBRAS  ON *       ELET3       010VISTA          000000000017400000000177000000001710000000000000000000172500027210100
0202LOTE PADRAO                   CELESC      PNB        CLSC6       010VISTA          000000000000570000000005700000000055000000000000000000005600000184500
0202LOTE PADRAO                   BRADESCO    PN * EJ    BBDC4       010VISTA          000000000008600000000087000000000830000000000000000000083000316583000
0202LOTE PADRAO                   CESP        PN *       CESP4       010VISTA          000000000006500000000065000000000640000000000000000000064000010943400
0202LOTE PADRAO                   LIGHT       ON *       LIGH3       010VISTA          000000000061300000000632000000006130000000000000000000629000000484200
0202LOTE PADRAO                   TELESP CL PAPN *       TSPP4       010VISTA          000000000002600000000028000000000260000000000000000000028000471207000
0202LOTE PADRAO                   VALE R DOCE PNA        VALE5       010VISTA          000000000083800000000850000000008200000000000000000000827000000023900
0202LOTE PADRAO                   COPEL       PNB*       CPLE6       010VISTA          000000000008400000000085000000000825000000000000000000082500023657100
0202LOTE PADRAO                   VALE R DOCE ON         VALE3       010VISTA          000000000088700000000910000000008800000000000000000000880000000017800
0202LOTE PADRAO                   ARACRUZ     PNB        ARCZ6       010VISTA          000000000005700000000058000000000560000000000000000000056000000112600
0202LOTE PADRAO                   TELEMIG PARTPN *       TMCP4       010VISTA          000000000002810000000029000000000279000000000000000000028000048943400
0202LOTE PADRAO                   BRASIL TELECPN *       BRTO4       010VISTA          000000000010900000000111000000001080000000000000000000110000071527000
0202LOTE PADRAO                   SABESP      ON *       SBSP3       010VISTA          000000000079900000000818000000007990000000000000000000818000007958500
0202LOTE PADRAO                   BRASKEM     PNA*       BRKM5       010VISTA          000000000243000000002700000000024300000000000000000002570000000107400
0202LOTE PADRAO                   EMBRAER     PN EJ      EMBR4       010VISTA          000000000013100000000134000000001300000000000000000000132500000062700
0202LOTE PADRAO                   TELESP      PN * EJ    TLPP4       010VISTA          000000000031900000000322000000003150000000000000000000320000005783500
0202LOTE PADRAO                   EMBRAER     ON EJ      EMBR3       010VISTA          000000000012000000000124000000001200000000000000000000123000000013000
0202LOTE PADRAO                   AMBEV       PN *       AMBV4       010VISTA          000000000426900000004360000000042600000000000000000004300000001363000
0202LOTE PADRAO                   USIMINAS    PNA        USIM5       010VISTA          000000000005000000000050000000000490000000000000000000049000000048200
0202LOTE PADRAO                   ELETROPAULO PN *       ELPL4       010VISTA          000000000026900000000275000000002660000000000000000000268000003281700
0202LOTE PADRAO                   TELE NORD CLPN *       TNEP4       010VISTA          000000000002400000000025200000000240000000000000000000024000094613700
0202LOTE PADRAO                   CEMIG       PN * EJ    CMIG4       010VISTA          000000000023000000000230000000002200000000000000000000224000124761000
0202LOTE PADRAO                   TELE CL SUL PN * EJ    TCSL4       010VISTA          000000000002710000000027000000000260000000000000000000027000071514100
0202LOTE PADRAO                   TRACTEBEL   ON *       TBLE3       010VISTA          000000000003900000000040000000000394000000000000000000040000008307000
0202LOTE PADRAO                   CEMIG       ON * EJ    CMIG3       010VISTA          000000000022000000000220000000002130000000000000000000217000000842000
0202LOTE PADRAO                   TELE CL SUL ON * EJ    TCSL3       010VISTA          000000000002200000000022000000000210000000000000000000021000030365900
0202LOTE PADRAO                   ITAUSA      PN         ITSA4       010VISTA          000000000001550000000015500000000152000000000000000000015200000273600
0202LOTE PADRAO                   V C P       PN *       VCPA4       010VISTA          000000000105000000001079000000010475000000000000000001060000004123200
0202LOTE PADRAO                   SID TUBARAO PN *       CSTB4       010VISTA          000000000028000000000290000000002780000000000000000000290000008052000
0202LOTE PADRAO                   BRADESPAR   PN *       BRAP4       010VISTA          000000000000450000000004500000000043000000000000000000004400189648000
0202LOTE PADRAO                   NET         PN         PLIM4       010VISTA          000000000000340000000003500000000034000000000000000000003400000787100
0202LOTE PADRAO                   TELE CTR OESPN * EJ    TCOC4       010VISTA          000000000003100000000031000000000300000000000000000000030000149162000
0202LOTE PADRAO                   TELEMAR N L PNA* EJ    TMAR5       010VISTA          000000000042000000000436000000004200000000000000000000420000017106800
0202LOTE PADRAO                   GERDAU      PN * EJ    GGBR4       010VISTA          000000000030000000000300000000002860000000000000000000286000049936300
0202LOTE PADRAO                   BRASIL      ON *       BBAS3       010VISTA          000000000008900000000094000000000875000000000000000000092000025385900
