00BDIN9999BOVESPA 99992002022220020222
0101IBOVESPA                      0135350135130136410000000000000000002002022200000020020222013563000000
0202LOTE PADRAO                   EMBRATEL PARPN *       EBTP4       010VISTA          000000000008800000000089000000000860000000000000000000087000142971000
0202LOTE PADRAO                   EMBRATEL PARON *       EBTP3       010VISTA          000000000010900000000109000000001030000000000000000000105000011206900
0202LOTE PADRAO                   TRAN PAULISTPN * EJ    TRPL4       010VISTA          000000000007400000000077000000000740000000000000000000077000016314900
0202LOTE PADRAO                   TELEMAR     PN * EJ    TNLP4       010VISTA          000000000033900000000347500000003380000000000000000000346000284968000
0202LOTE PADRAO                   ITAUBANCO   PN * EJ    ITAU4       010VISTA          000000000194000000001946000000018850000000000000000001940000022996100
0202LOTE PADRAO                   TELEMAR     ON * EJ    TNLP3       010VISTA          000000000030100000000310000000003010000000000000000000305000012104100
0202LOTE PADRAO                   SID NACIONALON *       CSNA3       010VISTA          000000000039400000000394000000003730000000000000000000390000031710500
0202LOTE PADRAO                   TELE LEST CLPN *       TLCP4       010VISTA          000000000000850000000008600000000082000000000000000000008200092210800
0202LOTE PADRAO                   CRT CELULAR PNA* EJ    CRTP5       010VISTA          000000000470000000004730000000045600000000000000000004628000000567300
0202LOTE PADRAO                   IPIRANGA PETPN *       PTIP4       010VISTA          000000000013000000000135000000001300000000000000000000133000001821800
0202LOTE PADRAO                   BRASIL T PARPN *       BRTP4       010VISTA          000000000017500000000179000000001750000000000000000000178000088589400
0202LOTE PADRAO                   BRASIL T PARON *       BRTP3       010VISTA          000000000017800000000180000000001750000000000000000000178000019356700
0202LOTE PADRAO                   KLABIN S/A  PN         KLBN4       010VISTA          000000000001100000000012000000000110000000000000000000011000000012600
0202LOTE PADRAO                   ACESITA     PN *       ACES4       010VISTA          000000000000720000000007200000000070000000000000000000007100093709700
0202LOTE PADRAO                   PETROBRAS   PN         PETR4       010VISTA          000000000050800000000522000000005070000000000000000000518000000170900
0202LOTE PADRAO                   ELETROBRAS  PNB*       ELET6       010VISTA          000000000035400000000357000000003470000000000000000000355000032720100
0202LOTE PADRAO                   PETROBRAS   ON         PETR3       010VISTA          000000000052100000000543000000005200000000000000000000535000000053300
0202LOTE PADRAO                   COMGAS      PNA*       CGAS5       010VISTA          000000000090000000000905000000008820000000000000000000882000000273800
0202LOTE PADRAO                   SOUZA CRUZ  ON EJ      CRUZ3       010VISTA          000000000014750000000149000000001460000000000000000000148000000004500
0202LOTE PADRAO                   ELETROBRAS  ON *       ELET3       010VISTA          000000000041500000000415000000004050000000000000000000412000011588300
0202LOTE PADRAO                   CELESC      PNB        CLSC6       010VISTA          000000000000550000000005600000000055000000000000000000005500000329800
0202LOTE PADRAO                   BRADESCO    PN * EJ    BBDC4       010VISTA          000000000013000000000132000000001290000000000000000000131000125406000
0202LOTE PADRAO                   CESP        PN *       CESP4       010VISTA          000000000015300000000158000000001530000000000000000000154000014418200
0202LOTE PADRAO                   LIGHT       ON *       LIGH3       010VISTA          000000000121500000001240000000011800000000000000000001200000000203600
0202LOTE PADRAO                   TELESP CL PAPN *       TSPP4       010VISTA          000000000007300000000074000000000720000000000000000000072000200029000
0202LOTE PADRAO                   VALE R DOCE PNA        VALE5       010VISTA          000000000059900000000605000000005980000000000000000000602000000053600
0202LOTE PADRAO                   COPEL       PNB*       CPLE6       010VISTA          000000000017800000000180000000001760000000000000000000178000008450500
0202LOTE PADRAO                   VALE R DOCE ON         VALE3       010VISTA          000000000061100000000612000000006050000000000000000000610000000009800
0202LOTE PADRAO                   ARACRUZ     PNB        ARCZ6       010VISTA          000000000004700000000047000000000470000000000000000000047500000014300
0202LOTE PADRAO                   TELEMIG PARTPN *       TMCP4       010VISTA          000000000003600000000036000000000348000000000000000000034000133469000
0202LOTE PADRAO                   BRASIL TELECPN *       BRTO4       010VISTA          000000000012600000000131000000001260000000000000000000129000051328000
0202LOTE PADRAO                   SABESP      ON *       SBSP3       010VISTA          000000000126000000001299000000012590000000000000000001270000002041900
0202LOTE PADRAO                   BRASKEM     PNA*       BRKM5       010VISTA          000000000520000000005233000000051500000000000000000005150000000057800
0202LOTE PADRAO                   EMBRAER     PN EJ      EMBR4       010VISTA          000000000014400000000145000000001400000000000000000000140000000048600
0202LOTE PADRAO                   TELESP      PN * EJ    TLPP4       010VISTA          000000000031800000000329000000003125000000000000000000316000007059700
0202LOTE PADRAO                   EMBRAER     ON EJ      EMBR3       010VISTA          000000000013400000000134000000001300000000000000000000130000000015200
0202LOTE PADRAO                   AMBEV       PN *       AMBV4       010VISTA          000000000479000000004790000000045900000000000000000004610000001489300
0202LOTE PADRAO                   USIMINAS    PNA        USIM5       010VISTA          000000000007600000000077000000000750000000000000000000076000000121000
0202LOTE PADRAO                   ELETROPAULO PN *       ELPL4       010VISTA          000000000063300000000649000000006330000000000000000000637000005963500
0202LOTE PADRAO                   TELE NORD CLPN *       TNEP4       010VISTA          000000000002900000000029000000000280000000000000000000028000055251100
0202LOTE PADRAO                   CEMIG       PN * EJ    CMIG4       010VISTA          000000000036600000000368000000003560000000000000000000365000023904400
0202LOTE PADRAO                   TELE CL SUL PN * EJ    TCSL4       010VISTA          000000000003270000000032700000000310000000000000000000031000060954000
0202LOTE PADRAO                   CEMIG       ON * EJ    CMIG3       010VISTA          000000000033100000000332000000003310000000000000000000332000002484600
0202LOTE PADRAO                   TELE CL SUL ON * EJ    TCSL3       010VISTA          000000000002800000000028000000000275000000000000000000027000015650500
0202LOTE PADRAO                   ITAUSA      PN         ITSA4       010VISTA          000000000002250000000023000000000220000000000000000000022000000273900
0202LOTE PADRAO                   V C P       PN *       VCPA4       010VISTA          000000000088000000000880000000008700000000000000000000875000000884200
0202LOTE PADRAO                   SID TUBARAO PN *       CSTB4       010VISTA          000000000022600000000241000000002260000000000000000000239000009602900
0202LOTE PADRAO                   BRADESPAR   PN *       BRAP4       010VISTA          000000000000760000000008000000000076000000000000000000007700340732000
0202LOTE PADRAO                   NET         PN         PLIM4       010VISTA          000000000000670000000006700000000064000000000000000000006400000797700
0202LOTE PADRAO                   TELE CTR OESPN * EJ    TCOC4       010VISTA          000000000004600000000046000000000450000000000000000000045000108583000
0202LOTE PADRAO                   TELEMAR N L PNA* EJ    TMAR5       010VISTA          000000000058000000000595000000005770000000000000000000580000014740900
0202LOTE PADRAO                   GERDAU      PN * EJ    GGBR4       010VISTA          000000000026400000000271000000002630000000000000000000270000038484900
0202LOTE PADRAO                   BRASIL      ON *       BBAS3       010VISTA          000000000010400000000107000000001040000000000000000000105000005899900
