00BDIN9999BOVESPA 99992002031420020314
0101IBOVESPA                      0142400140250143370000000000000000002002031400000020020314014117000000
0202LOTE PADRAO                   EMBRATEL PARPN *       EBTP4       010VISTA          000000000009300000000094000000000890000000000000000000090000123928000
0202LOTE PADRAO                   TRAN PAULISTPN * EJ    TRPL4       010VISTA          000000000007700000000078000000000750000000000000000000077000009714600
0202LOTE PADRAO                   EMBRATEL PARON *       EBTP3       010VISTA          000000000011100000000114000000001100000000000000000000110000010187000
0202LOTE PADRAO                   TELEMAR     PN * EJ    TNLP4       010VISTA          000000000033250000000333000000003160000000000000000000321000397810000
0202LOTE PADRAO                   ITAUBANCO   PN * EJ    ITAU4       010VISTA          000000000192400000001935000000019100000000000000000001920000008673100
0202LOTE PADRAO                   TELEMAR     ON * EJ    TNLP3       010VISTA          000000000030100000000301000000002830000000000000000000288000019056900
0202LOTE PADRAO                   SID NACIONALON *       CSNA3       010VISTA          000000000048700000000499000000004870000000000000000000490000018206900
0202LOTE PADRAO                   TELE LEST CLPN *       TLCP4       010VISTA          000000000000910000000009200000000089000000000000000000008900076581500
0202LOTE PADRAO                   CRT CELULAR PNA* EJ    CRTP5       010VISTA          000000000507000000005100000000049000000000000000000005040000001550300
0202LOTE PADRAO                   IPIRANGA PETPN *       PTIP4       010VISTA          000000000014600000000146000000001410000000000000000000141000002597900
0202LOTE PADRAO                   BRASIL T PARPN *       BRTP4       010VISTA          000000000020000000000201000000001940000000000000000000195000072052600
0202LOTE PADRAO                   BRASIL T PARON *       BRTP3       010VISTA          000000000020300000000203000000001960000000000000000000199000008853000
0202LOTE PADRAO                   KLABIN S/A  PN         KLBN4       010VISTA          000000000001300000000013000000000127000000000000000000012800000009000
0202LOTE PADRAO                   ACESITA     PN *       ACES4       010VISTA          000000000000760000000007800000000076000000000000000000007700128549000
0202LOTE PADRAO                   PETROBRAS   PN         PETR4       010VISTA          000000000058100000000587000000005780000000000000000000587000000106400
0202LOTE PADRAO                   ELETROBRAS  PNB*       ELET6       010VISTA          000000000037750000000383000000003760000000000000000000378000012821700
0202LOTE PADRAO                   PETROBRAS   ON         PETR3       010VISTA          000000000060500000000612000000006000000000000000000000612000000055800
0202LOTE PADRAO                   COMGAS      PNA*       CGAS5       010VISTA          000000000091000000000910000000008900000000000000000000900000000467000
0202LOTE PADRAO                   SOUZA CRUZ  ON EJ      CRUZ3       010VISTA          000000000014900000000149000000001480000000000000000000148000000027600
0202LOTE PADRAO                   ELETROBRAS  ON *       ELET3       010VISTA          000000000044100000000441000000004270000000000000000000429000013440200
0202LOTE PADRAO                   CELESC      PNB        CLSC6       010VISTA          000000000000600000000006100000000059000000000000000000006000000322200
0202LOTE PADRAO                   BRADESCO    PN * EJ    BBDC4       010VISTA          000000000013800000000139000000001360000000000000000000138000076261500
0202LOTE PADRAO                   CESP        PN *       CESP4       010VISTA          000000000016500000000166000000001610000000000000000000161000005964600
0202LOTE PADRAO                   LIGHT       ON *       LIGH3       010VISTA          000000000123800000001259000000012275000000000000000001238000000687400
0202LOTE PADRAO                   TELESP CL PAPN *       TSPP4       010VISTA          000000000006400000000065000000000630000000000000000000063000209021000
0202LOTE PADRAO                   VALE R DOCE PNA        VALE5       010VISTA          000000000061700000000619000000005950000000000000000000602000000080300
0202LOTE PADRAO                   COPEL       PNB*       CPLE6       010VISTA          000000000019100000000191000000001850000000000000000000186000035752600
0202LOTE PADRAO                   VALE R DOCE ON         VALE3       010VISTA          000000000061000000000618000000006100000000000000000000610000000007000
0202LOTE PADRAO                   ARACRUZ     PNB        ARCZ6       010VISTA          000000000004900000000050000000000480000000000000000000048000000029000
0202LOTE PADRAO                   TELEMIG PARTPN *       TMCP4       010VISTA          000000000003700000000038000000000370000000000000000000037500143912000
0202LOTE PADRAO                   BRASIL TELECPN *       BRTO4       010VISTA          000000000014000000000142000000001375000000000000000000140000123322000
0202LOTE PADRAO                   SABESP      ON *       SBSP3       010VISTA          000000000137400000001374000000013500000000000000000001350000001152300
0202LOTE PADRAO                   BRASKEM     PNA*       BRKM5       010VISTA          000000000570000000005840000000057000000000000000000005710000000206400
0202LOTE PADRAO                   EMBRAER     PN EJ      EMBR4       010VISTA          000000000012800000000129000000001250000000000000000000126000000050300
0202LOTE PADRAO                   TELESP      PN * EJ    TLPP4       010VISTA          000000000035700000000357000000003460000000000000000000350000006766200
0202LOTE PADRAO                   EMBRAER     ON EJ      EMBR3       010VISTA          000000000012100000000121000000001190000000000000000000119000000007900
0202LOTE PADRAO                   AMBEV       PN *       AMBV4       010VISTA          000000000453500000004590000000044490000000000000000004470000003987200
0202LOTE PADRAO                   USIMINAS    PNA        USIM5       010VISTA          000000000007700000000078000000000760000000000000000000078000000086900
0202LOTE PADRAO                   ELETROPAULO PN *       ELPL4       010VISTA          000000000071000000000710000000006850000000000000000000702000004406800
0202LOTE PADRAO                   TELE NORD CLPN *       TNEP4       010VISTA          000000000003540000000035000000000320000000000000000000033000172153000
0202LOTE PADRAO                   CEMIG       PN * EJ    CMIG4       010VISTA          000000000038500000000389000000003820000000000000000000388000051752500
0202LOTE PADRAO                   TELE CL SUL PN * EJ    TCSL4       010VISTA          000000000003700000000037300000000350000000000000000000036000114186000
0202LOTE PADRAO                   TRACTEBEL   ON *       TBLE3       010VISTA          000000000004000000000040000000000400000000000000000000040000008515800
0202LOTE PADRAO                   CEMIG       ON * EJ    CMIG3       010VISTA          000000000035000000000350000000003360000000000000000000350000001350100
0202LOTE PADRAO                   TELE CL SUL ON * EJ    TCSL3       010VISTA          000000000003200000000032000000000300000000000000000000031000012980700
0202LOTE PADRAO                   ITAUSA      PN         ITSA4       010VISTA          000000000002400000000024000000000230000000000000000000023000000157000
0202LOTE PADRAO                   V C P       PN *       VCPA4       010VISTA          000000000090000000000910000000008950000000000000000000905000003023600
0202LOTE PADRAO                   SID TUBARAO PN *       CSTB4       010VISTA          000000000026600000000280000000002660000000000000000000270000012770300
0202LOTE PADRAO                   BRADESPAR   PN *       BRAP4       010VISTA          000000000000790000000008000000000078000000000000000000008000107292000
0202LOTE PADRAO                   NET         PN         PLIM4       010VISTA          000000000000650000000006600000000063000000000000000000006400001685500
0202LOTE PADRAO                   TELE CTR OESPN * EJ    TCOC4       010VISTA          000000000005200000000052000000000510000000000000000000052000078157300
0202LOTE PADRAO                   TELEMAR N L PNA* EJ    TMAR5       010VISTA          000000000060500000000605000000005660000000000000000000571000028404600
0202LOTE PADRAO                   GERDAU      PN * EJ    GGBR4       010VISTA          000000000028000000000282000000002760000000000000000000280000027729300
0202LOTE PADRAO                   BRASIL      ON *       BBAS3       010VISTA          000000000011600000000118000000001160000000000000000000117000003356400
