00BDIN9999BOVESPA 99992002072320020723
0101IBOVESPA                      0099000096030100820000000000000000002002072300000020020723009746000000
0202LOTE PADRAO                   EMBRATEL PARPN *       EBTP4       010VISTA          000000000001470000000015000000000140000000000000000000015300382025000
0202LOTE PADRAO                   TRAN PAULISTPN * EJ    TRPL4       010VISTA          000000000005200000000052000000000490000000000000000000052000007445900
0202LOTE PADRAO                   EMBRATEL PARON *       EBTP3       010VISTA          000000000002300000000025000000000230000000000000000000025000019231800
0202LOTE PADRAO                   TELEMAR     PN * EJ    TNLP4       010VISTA          000000000024500000000246000000002300000000000000000000236000279511000
0202LOTE PADRAO                   ITAUBANCO   PN * EJ    ITAU4       010VISTA          000000000154000000001559000000014800000000000000000001499000017997300
0202LOTE PADRAO                   TELEMAR     ON * EJ    TNLP3       010VISTA          000000000019100000000191000000001800000000000000000000183000027419800
0202LOTE PADRAO                   SID NACIONALON *       CSNA3       010VISTA          000000000051700000000517000000004700000000000000000000483000027351700
0202LOTE PADRAO                   TELE LEST CLPN *       TLCP4       010VISTA          000000000000420000000004200000000037000000000000000000003900221145000
0202LOTE PADRAO                   CRT CELULAR PNA* EJ    CRTP5       010VISTA          000000000360000000003899000000035100000000000000000003850000000213300
0202LOTE PADRAO                   IPIRANGA PETPN *       PTIP4       010VISTA          000000000011400000000118000000001090000000000000000000118000007094800
0202LOTE PADRAO                   BRASIL T PARPN *       BRTP4       010VISTA          000000000015000000000155000000001460000000000000000000148000093250000
0202LOTE PADRAO                   BRASIL T PARON *       BRTP3       010VISTA          000000000012100000000130000000001200000000000000000000129000018168800
0202LOTE PADRAO                   KLABIN S/A  PN         KLBN4       010VISTA          000000000000830000000008500000000079000000000000000000008500000051700
0202LOTE PADRAO                   ACESITA     PN *       ACES4       010VISTA          000000000000590000000006100000000058000000000000000000006100102873000
0202LOTE PADRAO                   PETROBRAS   PN         PETR4       010VISTA          000000000042000000000421000000003980000000000000000000400000000144400
0202LOTE PADRAO                   ELETROBRAS  PNB*       ELET6       010VISTA          000000000021900000000219000000002030000000000000000000208000054119300
0202LOTE PADRAO                   PETROBRAS   ON         PETR3       010VISTA          000000000042200000000442000000004200000000000000000000420000000051500
0202LOTE PADRAO                   COMGAS      PNA*       CGAS5       010VISTA          000000000049600000000515000000004700000000000000000000490000001965400
0202LOTE PADRAO                   SOUZA CRUZ  ON EJ      CRUZ3       010VISTA          000000000015000000000150000000001475000000000000000000149000000028200
0202LOTE PADRAO                   ELETROBRAS  ON *       ELET3       010VISTA          000000000023500000000235000000002230000000000000000000226000032296800
0202LOTE PADRAO                   CELESC      PNB        CLSC6       010VISTA          000000000000550000000005600000000053000000000000000000005300000391500
0202LOTE PADRAO                   BRADESCO    PN * EJ    BBDC4       010VISTA          000000000011000000000110000000001030000000000000000000103000203500000
0202LOTE PADRAO                   CESP        PN *       CESP4       010VISTA          000000000007400000000074000000000700000000000000000000071000007965400
0202LOTE PADRAO                   LIGHT       ON *       LIGH3       010VISTA          000000000078200000000790000000007300000000000000000000749000000698900
0202LOTE PADRAO                   TELESP CL PAPN *       TSPP4       010VISTA          000000000003250000000033000000000320000000000000000000033000233550000
0202LOTE PADRAO                   VALE R DOCE PNA        VALE5       010VISTA          000000000068400000000689000000006700000000000000000000685000000028100
0202LOTE PADRAO                   COPEL       PNB*       CPLE6       010VISTA          000000000010900000000110000000001010000000000000000000103000047374800
0202LOTE PADRAO                   VALE R DOCE ON         VALE3       010VISTA          000000000075000000000760000000007500000000000000000000752000000024100
0202LOTE PADRAO                   ARACRUZ     PNB        ARCZ6       010VISTA          000000000005250000000052000000000500000000000000000000050000000060100
0202LOTE PADRAO                   TELEMIG PARTPN *       TMCP4       010VISTA          000000000003000000000030000000000280000000000000000000030000127456000
0202LOTE PADRAO                   BRASIL TELECPN *       BRTO4       010VISTA          000000000010400000000104000000000980000000000000000000099000114537000
0202LOTE PADRAO                   SABESP      ON *       SBSP3       010VISTA          000000000093700000000945000000009200000000000000000000928000006753400
0202LOTE PADRAO                   BRASKEM     PNA*       BRKM5       010VISTA          000000000380000000003990000000036800000000000000000003850000000072900
0202LOTE PADRAO                   EMBRAER     PN EJ      EMBR4       010VISTA          000000000014900000000149000000001390000000000000000000140000000048400
0202LOTE PADRAO                   TELESP      PN * EJ    TLPP4       010VISTA          000000000032900000000329000000003100000000000000000000315000022697200
0202LOTE PADRAO                   EMBRAER     ON EJ      EMBR3       010VISTA          000000000013100000000132000000001230000000000000000000126000000026600
0202LOTE PADRAO                   AMBEV       PN *       AMBV4       010VISTA          000000000434900000004349000000041700000000000000000004230000002100800
0202LOTE PADRAO                   USIMINAS    PNA        USIM5       010VISTA          000000000006000000000060000000000560000000000000000000057900000033500
0202LOTE PADRAO                   ELETROPAULO PN *       ELPL4       010VISTA          000000000038600000000390000000003350000000000000000000347000003215900
0202LOTE PADRAO                   TELE NORD CLPN *       TNEP4       010VISTA          000000000002400000000025000000000230000000000000000000024000105379000
0202LOTE PADRAO                   CEMIG       PN * EJ    CMIG4       010VISTA          000000000027800000000278000000002680000000000000000000273000039026900
0202LOTE PADRAO                   TELE CL SUL PN * EJ    TCSL4       010VISTA          000000000002800000000030000000000277000000000000000000028000069456600
0202LOTE PADRAO                   TRACTEBEL   ON *       TBLE3       010VISTA          000000000004000000000040000000000390000000000000000000040000043880000
0202LOTE PADRAO                   CEMIG       ON * EJ    CMIG3       010VISTA          000000000026600000000270000000002550000000000000000000267000002211700
0202LOTE PADRAO                   TELE CL SUL ON * EJ    TCSL3       010VISTA          000000000002200000000022000000000200000000000000000000022000026406800
0202LOTE PADRAO                   ITAUSA      PN         ITSA4       010VISTA          000000000001800000000018000000000175000000000000000000017500000546900
0202LOTE PADRAO                   V C P       PN *       VCPA4       010VISTA          000000000094000000000943000000009200000000000000000000920000001505300
0202LOTE PADRAO                   SID TUBARAO PN *       CSTB4       010VISTA          000000000025900000000270000000002475000000000000000000268000009820000
0202LOTE PADRAO                   BRADESPAR   PN *       BRAP4       010VISTA          000000000000470000000004800000000046000000000000000000004700118415000
0202LOTE PADRAO                   NET         PN         PLIM4       010VISTA          000000000001250000000013000000000110000000000000000000012600000216600
0202LOTE PADRAO                   TELE CTR OESPN * EJ    TCOC4       010VISTA          000000000003800000000039600000000370000000000000000000039000101810000
0202LOTE PADRAO                   TELEMAR N L PNA* EJ    TMAR5       010VISTA          000000000042600000000427000000004130000000000000000000422000058978600
0202LOTE PADRAO                   GERDAU      PN * EJ    GGBR4       010VISTA          000000000028100000000283000000002760000000000000000000278000015033700
0202LOTE PADRAO                   BRASIL      ON *       BBAS3       010VISTA          000000000010000000000100000000000900000000000000000000096000004367900
