00BDIN9999BOVESPA 99992002090920020909
0101IBOVESPA                      0097250097160099550000000000000000002002090900000020020909009954000000
0202LOTE PADRAO                   EMBRATEL PARPN *       EBTP4       010VISTA          000000000002200000000026000000000220000000000000000000026000394205000
0202LOTE PADRAO                   TRAN PAULISTPN * EJ    TRPL4       010VISTA          000000000005200000000052000000000510000000000000000000052000003033200
0202LOTE PADRAO                   EMBRATEL PARON *       EBTP3       010VISTA          000000000002900000000032000000000290000000000000000000032000030274200
0202LOTE PADRAO                   TELEMAR     PN * EJ    TNLP4       010VISTA          000000000024800000000253000000002440000000000000000000251000185005000
0202LOTE PADRAO                   ITAUBANCO   PN * EJ    ITAU4       010VISTA          000000000135000000001360000000013350000000000000000001355000008361900
0202LOTE PADRAO                   TELEMAR     ON * EJ    TNLP3       010VISTA          000000000019000000000196000000001880000000000000000000194000008900000
0202LOTE PADRAO                   SID NACIONALON *       CSNA3       010VISTA          000000000039000000000390000000003800000000000000000000385000007540900
0202LOTE PADRAO                   TELE LEST CLPN *       TLCP4       010VISTA          000000000000410000000004300000000041000000000000000000004200063395400
0202LOTE PADRAO                   CRT CELULAR PNA* EJ    CRTP5       010VISTA          000000000350000000003550000000034300000000000000000003490000000946900
0202LOTE PADRAO                   IPIRANGA PETPN *       PTIP4       010VISTA          000000000010600000000107500000001060000000000000000000106000001380000
0202LOTE PADRAO                   BRASIL T PARPN *       BRTP4       010VISTA          000000000017000000000176000000001675000000000000000000175000039165100
0202LOTE PADRAO                   BRASIL T PARON *       BRTP3       010VISTA          000000000013000000000137000000001290000000000000000000135000009717100
0202LOTE PADRAO                   KLABIN S/A  PN         KLBN4       010VISTA          000000000000860000000008800000000086000000000000000000008700000002000
0202LOTE PADRAO                   ACESITA     PN *       ACES4       010VISTA          000000000000630000000006500000000063000000000000000000006500049057900
0202LOTE PADRAO                   PETROBRAS   PN         PETR4       010VISTA          000000000045700000000460000000004500000000000000000000457000000069400
0202LOTE PADRAO                   ELETROBRAS  PNB*       ELET6       010VISTA          000000000018800000000195000000001880000000000000000000195000070339900
0202LOTE PADRAO                   PETROBRAS   ON         PETR3       010VISTA          000000000050800000000512000000005020000000000000000000512000000042400
0202LOTE PADRAO                   COMGAS      PNA*       CGAS5       010VISTA          000000000058000000000580000000005560000000000000000000568000000263300
0202LOTE PADRAO                   SOUZA CRUZ  ON EJ      CRUZ3       010VISTA          000000000014500000000149000000001450000000000000000000149000000005700
0202LOTE PADRAO                   ELETROBRAS  ON *       ELET3       010VISTA          000000000019500000000201000000001910000000000000000000201000017427700
0202LOTE PADRAO                   CELESC      PNB        CLSC6       010VISTA          000000000000550000000005500000000053000000000000000000005400000146300
0202LOTE PADRAO                   BRADESCO    PN * EJ    BBDC4       010VISTA          000000000009500000000095000000000940000000000000000000095000231001000
0202LOTE PADRAO                   CESP        PN *       CESP4       010VISTA          000000000006900000000071000000000680000000000000000000069000007044600
0202LOTE PADRAO                   LIGHT       ON *       LIGH3       010VISTA          000000000070000000000700000000006900000000000000000000690000000164000
0202LOTE PADRAO                   TELESP CL PAPN *       TSPP4       010VISTA          000000000003400000000035400000000330000000000000000000034000679354000
0202LOTE PADRAO                   VALE R DOCE PNA        VALE5       010VISTA          000000000072800000000739000000007270000000000000000000735000000035900
0202LOTE PADRAO                   COPEL       PNB*       CPLE6       010VISTA          000000000009500000000099000000000950000000000000000000098000069836700
0202LOTE PADRAO                   VALE R DOCE ON         VALE3       010VISTA          000000000080000000000809000000008000000000000000000000800000000034900
0202LOTE PADRAO                   ARACRUZ     PNB        ARCZ6       010VISTA          000000000005400000000054000000000530000000000000000000053000000040400
0202LOTE PADRAO                   TELEMIG PARTPN *       TMCP4       010VISTA          000000000002600000000027000000000260000000000000000000027100255801000
0202LOTE PADRAO                   BRASIL TELECPN *       BRTO4       010VISTA          000000000011100000000121000000001100000000000000000000118000022978600
0202LOTE PADRAO                   SABESP      ON *       SBSP3       010VISTA          000000000081000000000835000000007960000000000000000000822000001676600
0202LOTE PADRAO                   BRASKEM     PNA*       BRKM5       010VISTA          000000000277900000002811000000027790000000000000000002810000000020800
0202LOTE PADRAO                   EMBRAER     PN EJ      EMBR4       010VISTA          000000000013200000000135000000001300000000000000000000133000000037400
0202LOTE PADRAO                   TELESP      PN * EJ    TLPP4       010VISTA          000000000032500000000328000000003230000000000000000000326000005514500
0202LOTE PADRAO                   EMBRAER     ON EJ      EMBR3       010VISTA          000000000011800000000121000000001160000000000000000000121000000009100
0202LOTE PADRAO                   AMBEV       PN *       AMBV4       010VISTA          000000000422500000004289000000041800000000000000000004280000000499200
0202LOTE PADRAO                   USIMINAS    PNA        USIM5       010VISTA          000000000005300000000054000000000525000000000000000000053000000043400
0202LOTE PADRAO                   ELETROPAULO PN *       ELPL4       010VISTA          000000000030400000000325000000003040000000000000000000325000001155300
0202LOTE PADRAO                   TELE NORD CLPN *       TNEP4       010VISTA          000000000002500000000025400000000240000000000000000000025400069603900
0202LOTE PADRAO                   CEMIG       PN * EJ    CMIG4       010VISTA          000000000024600000000255000000002430000000000000000000252000019356800
0202LOTE PADRAO                   TELE CL SUL PN * EJ    TCSL4       010VISTA          000000000002540000000026000000000250000000000000000000025000106450000
0202LOTE PADRAO                   TRACTEBEL   ON *       TBLE3       010VISTA          000000000003900000000040000000000390000000000000000000040000007300000
0202LOTE PADRAO                   CEMIG       ON * EJ    CMIG3       010VISTA          000000000023300000000233000000002310000000000000000000231000000073100
0202LOTE PADRAO                   TELE CL SUL ON * EJ    TCSL3       010VISTA          000000000002000000000021000000000200000000000000000000021000007770400
0202LOTE PADRAO                   ITAUSA      PN         ITSA4       010VISTA          000000000001600000000017000000000160000000000000000000016900000139000
0202LOTE PADRAO                   V C P       PN *       VCPA4       010VISTA          000000000106000000001064000000010240000000000000000001035000001613300
0202LOTE PADRAO                   SID TUBARAO PN *       CSTB4       010VISTA          000000000024800000000253000000002480000000000000000000253000002018700
0202LOTE PADRAO                   BRADESPAR   PN *       BRAP4       010VISTA          000000000000470000000004800000000046000000000000000000004700276432000
0202LOTE PADRAO                   NET         PN         PLIM4       010VISTA          000000000000430000000004700000000043000000000000000000004600000484200
0202LOTE PADRAO                   TELE CTR OESPN * EJ    TCOC4       010VISTA          000000000003000000000031000000000290000000000000000000031000096858000
0202LOTE PADRAO                   TELEMAR N L PNA* EJ    TMAR5       010VISTA          000000000043000000000442000000004300000000000000000000440000014302600
0202LOTE PADRAO                   GERDAU      PN * EJ    GGBR4       010VISTA          000000000032000000000328000000003200000000000000000000325000010706200
0202LOTE PADRAO                   BRASIL      ON *       BBAS3       010VISTA          000000000009800000000110000000000980000000000000000000108000039001500
