00BDIN9999BOVESPA 99992002122620021226
0101IBOVESPA                      0114750113010114750000000000000000002002122600000020021226011318000000
0202LOTE PADRAO                   EMBRATEL PARPN *       EBTP4       010VISTA          000000000004400000000044000000000400000000000000000000040000350777000
0202LOTE PADRAO                   TRAN PAULISTPN * EJ    TRPL4       010VISTA          000000000005900000000060000000000590000000000000000000060000011210600
0202LOTE PADRAO                   EMBRATEL PARON *       EBTP3       010VISTA          000000000004700000000047000000000430000000000000000000043000057971600
0202LOTE PADRAO                   TELEMAR     PN * EJ    TNLP4       010VISTA          000000000027800000000279000000002760000000000000000000277500089484900
0202LOTE PADRAO                   ITAUBANCO   PN * EJ    ITAU4       010VISTA          000000000170000000001700000000016700000000000000000001680000002538100
0202LOTE PADRAO                   TELEMAR     ON * EJ    TNLP3       010VISTA          000000000020300000000203000000002010000000000000000000203000014447900
0202LOTE PADRAO                   SID NACIONALON *       CSNA3       010VISTA          000000000048500000000497000000004800000000000000000000497000004300100
0202LOTE PADRAO                   TELE LEST CLPN *       TLCP4       010VISTA          000000000000450000000004600000000044000000000000000000004500033874500
0202LOTE PADRAO                   CRT CELULAR PNA* EJ    CRTP5       010VISTA          000000000323000000003230000000030800000000000000000003150000000850300
0202LOTE PADRAO                   IPIRANGA PETPN *       PTIP4       010VISTA          000000000007400000000075000000000740000000000000000000075000001470700
0202LOTE PADRAO                   BRASIL T PARPN *       BRTP4       010VISTA          000000000018600000000186000000001780000000000000000000180000043083800
0202LOTE PADRAO                   BRASIL T PARON *       BRTP3       010VISTA          000000000013800000000140000000001370000000000000000000138000002096800
0202LOTE PADRAO                   KLABIN S/A  PN         KLBN4       010VISTA          000000000001000000000010000000000100000000000000000000010000000021500
0202LOTE PADRAO                   ACESITA     PN *       ACES4       010VISTA          000000000000990000000010000000000098000000000000000000009900159515000
0202LOTE PADRAO                   PETROBRAS   PN         PETR4       010VISTA          000000000048700000000487000000004770000000000000000000479000000039700
0202LOTE PADRAO                   ELETROBRAS  PNB*       ELET6       010VISTA          000000000023700000000240000000002310000000000000000000233000025684600
0202LOTE PADRAO                   PETROBRAS   ON         PETR3       010VISTA          000000000054300000000543000000005330000000000000000000535000000006100
0202LOTE PADRAO                   COMGAS      PNA*       CGAS5       010VISTA          000000000053700000000537000000005210000000000000000000525000000252500
0202LOTE PADRAO                   SOUZA CRUZ  ON EJ      CRUZ3       010VISTA          000000000017900000000179000000001740000000000000000000175000000004700
0202LOTE PADRAO                   ELETROBRAS  ON *       ELET3       010VISTA          000000000024100000000242500000002320000000000000000000236000016074700
0202LOTE PADRAO                   CELESC      PNB        CLSC6       010VISTA          000000000000530000000005400000000053000000000000000000005400000101700
0202LOTE PADRAO                   BRADESCO    PN * EJ    BBDC4       010VISTA          000000000010600000000108000000001050000000000000000000105000097825900
0202LOTE PADRAO                   CESP        PN *       CESP4       010VISTA          000000000007200000000073000000000700000000000000000000072500002638600
0202LOTE PADRAO                   LIGHT       ON *       LIGH3       010VISTA          000000000045500000000474000000004550000000000000000000474000000292100
0202LOTE PADRAO                   TELESP CL PAPN *       TSPP4       010VISTA          000000000004300000000044000000000410000000000000000000042500144940000
0202LOTE PADRAO                   VALE R DOCE PNA        VALE5       010VISTA          000000000096500000000990000000009650000000000000000000990000000003600
0202LOTE PADRAO                   COPEL       PNB*       CPLE6       010VISTA          000000000009900000000099000000000970000000000000000000099000030894100
0202LOTE PADRAO                   VALE R DOCE ON         VALE3       010VISTA          000000000100100000001020000000010000000000000000000001020000000006600
0202LOTE PADRAO                   ARACRUZ     PNB        ARCZ6       010VISTA          000000000006300000000065000000000630000000000000000000065000000009900
0202LOTE PADRAO                   TELEMIG PARTPN *       TMCP4       010VISTA          000000000003000000000030000000000290000000000000000000030000039210800
0202LOTE PADRAO                   BRASIL TELECPN *       BRTO4       010VISTA          000000000011600000000116000000001130000000000000000000114000026366700
0202LOTE PADRAO                   SABESP      ON *       SBSP3       010VISTA          000000000087400000000889000000008720000000000000000000877000001683000
0202LOTE PADRAO                   BRASKEM     PNA*       BRKM5       010VISTA          000000000234000000002340000000022500000000000000000002299000000028200
0202LOTE PADRAO                   EMBRAER     PN EJ      EMBR4       010VISTA          000000000013600000000138000000001310000000000000000000138000000034700
0202LOTE PADRAO                   TELESP      PN * EJ    TLPP4       010VISTA          000000000034000000000340000000003250000000000000000000330000006888300
0202LOTE PADRAO                   EMBRAER     ON EJ      EMBR3       010VISTA          000000000012400000000125000000001200000000000000000000123000000004100
0202LOTE PADRAO                   AMBEV       PN *       AMBV4       010VISTA          000000000536000000005400000000053300000000000000000005380000000238900
0202LOTE PADRAO                   USIMINAS    PNA        USIM5       010VISTA          000000000006500000000066000000000640000000000000000000065000000036000
0202LOTE PADRAO                   ELETROPAULO PN *       ELPL4       010VISTA          000000000027000000000270000000002630000000000000000000267000002019600
0202LOTE PADRAO                   TELE NORD CLPN *       TNEP4       010VISTA          000000000002700000000027900000000271000000000000000000027700020687200
0202LOTE PADRAO                   CEMIG       PN * EJ    CMIG4       010VISTA          000000000026800000000268000000002540000000000000000000259000026258100
0202LOTE PADRAO                   TELE CL SUL PN * EJ    TCSL4       010VISTA          000000000002750000000027000000000270000000000000000000027500032161900
0202LOTE PADRAO                   TRACTEBEL   ON *       TBLE3       010VISTA          000000000003540000000035000000000330000000000000000000033000010151700
0202LOTE PADRAO                   CEMIG       ON * EJ    CMIG3       010VISTA          000000000022800000000235000000002280000000000000000000235000000054300
0202LOTE PADRAO                   TELE CL SUL ON * EJ    TCSL3       010VISTA          000000000001990000000019900000000195000000000000000000019500004766900
0202LOTE PADRAO                   ITAUSA      PN         ITSA4       010VISTA          000000000001800000000018000000000180000000000000000000018000000093400
0202LOTE PADRAO                   V C P       PN *       VCPA4       010VISTA          000000000118000000001200000000011790000000000000000001200000000224900
0202LOTE PADRAO                   SID TUBARAO PN *       CSTB4       010VISTA          000000000039000000000403000000003900000000000000000000400000016923900
0202LOTE PADRAO                   BRADESPAR   PN *       BRAP4       010VISTA          000000000000550000000005600000000055000000000000000000005500066275400
0202LOTE PADRAO                   NET         PN         PLIM4       010VISTA          000000000000440000000004400000000043000000000000000000004400000255800
0202LOTE PADRAO                   TELE CTR OESPN * EJ    TCOC4       010VISTA          000000000004800000000049000000000470000000000000000000049000063737200
0202LOTE PADRAO                   TELEMAR N L PNA* EJ    TMAR5       010VISTA          000000000044100000000443000000004350000000000000000000436000007648500
0202LOTE PADRAO                   GERDAU      PN * EJ    GGBR4       010VISTA          000000000033000000000330000000003260000000000000000000328000009050800
0202LOTE PADRAO                   BRASIL      ON *       BBAS3       010VISTA          000000000009900000000099000000000970000000000000000000097000014705300
