00BDIN9999BOVESPA 99992002062620020626
0101IBOVESPA                      0106760104300106940000000000000000002002062600000020020626010691000000
0202LOTE PADRAO                   EMBRATEL PARPN *       EBTP4       010VISTA          000000000002100000000023000000000200000000000000000000021000802054000
0202LOTE PADRAO                   TRAN PAULISTPN * EJ    TRPL4       010VISTA          000000000005700000000060000000000570000000000000000000060000010442200
0202LOTE PADRAO                   EMBRATEL PARON *       EBTP3       010VISTA          000000000002980000000032000000000280000000000000000000031000122012000
0202LOTE PADRAO                   TELEMAR     PN * EJ    TNLP4       010VISTA          000000000026000000000266000000002580000000000000000000265000165710000
0202LOTE PADRAO                   ITAUBANCO   PN * EJ    ITAU4       010VISTA          000000000155000000001565000000015300000000000000000001558000010470100
0202LOTE PADRAO                   TELEMAR     ON * EJ    TNLP3       010VISTA          000000000021800000000225000000002100000000000000000000223000016399200
0202LOTE PADRAO                   SID NACIONALON *       CSNA3       010VISTA          000000000039700000000414000000003970000000000000000000410000021564100
0202LOTE PADRAO                   TELE LEST CLPN *       TLCP4       010VISTA          000000000000580000000005900000000056000000000000000000005600129346000
0202LOTE PADRAO                   CRT CELULAR PNA* EJ    CRTP5       010VISTA          000000000376000000003760000000034000000000000000000003720000000155400
0202LOTE PADRAO                   IPIRANGA PETPN *       PTIP4       010VISTA          000000000011500000000121000000001150000000000000000000121000001929700
0202LOTE PADRAO                   BRASIL T PARPN *       BRTP4       010VISTA          000000000014000000000144000000001350000000000000000000139000098437200
0202LOTE PADRAO                   BRASIL T PARON *       BRTP3       010VISTA          000000000013500000000139000000001290000000000000000000139000011130800
0202LOTE PADRAO                   KLABIN S/A  PN         KLBN4       010VISTA          000000000000900000000009100000000088000000000000000000008800000015000
0202LOTE PADRAO                   ACESITA     PN *       ACES4       010VISTA          000000000000590000000006000000000058000000000000000000006000083073000
0202LOTE PADRAO                   PETROBRAS   PN         PETR4       010VISTA          000000000046700000000488000000004550000000000000000000486000000119800
0202LOTE PADRAO                   ELETROBRAS  PNB*       ELET6       010VISTA          000000000022900000000243000000002275000000000000000000243000044579600
0202LOTE PADRAO                   PETROBRAS   ON         PETR3       010VISTA          000000000051200000000542000000005100000000000000000000542000000061200
0202LOTE PADRAO                   COMGAS      PNA*       CGAS5       010VISTA          000000000058000000000580000000005500000000000000000000570000000348000
0202LOTE PADRAO                   SOUZA CRUZ  ON EJ      CRUZ3       010VISTA          000000000013300000000138000000001330000000000000000000138000000013800
0202LOTE PADRAO                   ELETROBRAS  ON *       ELET3       010VISTA          000000000026100000000270000000002540000000000000000000268000004633200
0202LOTE PADRAO                   CELESC      PNB        CLSC6       010VISTA          000000000000580000000006100000000057000000000000000000006000000599500
0202LOTE PADRAO                   BRADESCO    PN * EJ    BBDC4       010VISTA          000000000010800000000109000000001060000000000000000000109000100103000
0202LOTE PADRAO                   CESP        PN *       CESP4       010VISTA          000000000008300000000088000000000830000000000000000000086000007103600
0202LOTE PADRAO                   LIGHT       ON *       LIGH3       010VISTA          000000000083000000000855000000008300000000000000000000855000000099000
0202LOTE PADRAO                   TELESP CL PAPN *       TSPP4       010VISTA          000000000004000000000043000000000390000000000000000000043000163239000
0202LOTE PADRAO                   VALE R DOCE PNA        VALE5       010VISTA          000000000066200000000679000000006550000000000000000000677000000018200
0202LOTE PADRAO                   COPEL       PNB*       CPLE6       010VISTA          000000000011200000000113000000001075000000000000000000110000068331200
0202LOTE PADRAO                   VALE R DOCE ON         VALE3       010VISTA          000000000072900000000737000000007260000000000000000000726000000005500
0202LOTE PADRAO                   ARACRUZ     PNB        ARCZ6       010VISTA          000000000005600000000056000000000550000000000000000000055000000007400
0202LOTE PADRAO                   TELEMIG PARTPN *       TMCP4       010VISTA          000000000002600000000027000000000260000000000000000000026900088277400
0202LOTE PADRAO                   BRASIL TELECPN *       BRTO4       010VISTA          000000000010250000000103000000000980000000000000000000102500076417500
0202LOTE PADRAO                   SABESP      ON *       SBSP3       010VISTA          000000000097700000001000000000009770000000000000000000990000003385400
0202LOTE PADRAO                   BRASKEM     PNA*       BRKM5       010VISTA          000000000399900000004000000000038000000000000000000003815000000090700
0202LOTE PADRAO                   EMBRAER     PN EJ      EMBR4       010VISTA          000000000013900000000141000000001370000000000000000000138000000063300
0202LOTE PADRAO                   TELESP      PN * EJ    TLPP4       010VISTA          000000000030900000000319000000003090000000000000000000318000004142700
0202LOTE PADRAO                   EMBRAER     ON EJ      EMBR3       010VISTA          000000000012400000000125000000001210000000000000000000123000000025100
0202LOTE PADRAO                   AMBEV       PN *       AMBV4       010VISTA          000000000430000000004420000000043000000000000000000004380000001589900
0202LOTE PADRAO                   USIMINAS    PNA        USIM5       010VISTA          000000000006200000000065000000000620000000000000000000063000000020200
0202LOTE PADRAO                   ELETROPAULO PN *       ELPL4       010VISTA          000000000037100000000380000000003610000000000000000000380000004803700
0202LOTE PADRAO                   TELE NORD CLPN *       TNEP4       010VISTA          000000000002300000000024000000000230000000000000000000024000107943000
0202LOTE PADRAO                   CEMIG       PN * EJ    CMIG4       010VISTA          000000000029800000000310000000002980000000000000000000310000016601900
0202LOTE PADRAO                   TELE CL SUL PN * EJ    TCSL4       010VISTA          000000000002600000000028000000000260000000000000000000027000049596400
0202LOTE PADRAO                   TRACTEBEL   ON *       TBLE3       010VISTA          000000000003700000000039400000000370000000000000000000038000010113800
0202LOTE PADRAO                   CEMIG       ON * EJ    CMIG3       010VISTA          000000000027000000000288000000002700000000000000000000288000000330200
0202LOTE PADRAO                   TELE CL SUL ON * EJ    TCSL3       010VISTA          000000000002300000000024000000000230000000000000000000024000007913100
0202LOTE PADRAO                   ITAUSA      PN         ITSA4       010VISTA          000000000001800000000018000000000180000000000000000000018000000222800
0202LOTE PADRAO                   V C P       PN *       VCPA4       010VISTA          000000000099400000001030000000009940000000000000000001020000002552500
0202LOTE PADRAO                   SID TUBARAO PN *       CSTB4       010VISTA          000000000025000000000254000000002480000000000000000000253000006564000
0202LOTE PADRAO                   BRADESPAR   PN *       BRAP4       010VISTA          000000000000510000000005200000000050000000000000000000005200283777000
0202LOTE PADRAO                   NET         PN         PLIM4       010VISTA          000000000001800000000019500000000178000000000000000000019000000216700
0202LOTE PADRAO                   TELE CTR OESPN * EJ    TCOC4       010VISTA          000000000003700000000037500000000350000000000000000000037500187805000
0202LOTE PADRAO                   TELEMAR N L PNA* EJ    TMAR5       010VISTA          000000000047000000000471000000004580000000000000000000468000017004100
0202LOTE PADRAO                   GERDAU      PN * EJ    GGBR4       010VISTA          000000000027600000000285000000002760000000000000000000277500006239300
0202LOTE PADRAO                   BRASIL      ON *       BBAS3       010VISTA          000000000008800000000091000000000860000000000000000000088000001842000
