00BDIN9999BOVESPA 99992002041220020412
0101IBOVESPA                      0134180134180137640000000000000000002002041200000020020412013751000000
0202LOTE PADRAO                   EMBRATEL PARPN *       EBTP4       010VISTA          000000000006900000000073000000000680000000000000000000073000308717000
0202LOTE PADRAO                   TRAN PAULISTPN * EJ    TRPL4       010VISTA          000000000007500000000077000000000740000000000000000000077500012217400
0202LOTE PADRAO                   EMBRATEL PARON *       EBTP3       010VISTA          000000000008800000000092500000000870000000000000000000091000015680200
0202LOTE PADRAO                   TELEMAR     PN * EJ    TNLP4       010VISTA          000000000031000000000319000000003090000000000000000000319000229655000
0202LOTE PADRAO                   ITAUBANCO   PN * EJ    ITAU4       010VISTA          000000000196500000001979000000019480000000000000000001948000005761300
0202LOTE PADRAO                   TELEMAR     ON * EJ    TNLP3       010VISTA          000000000027100000000280000000002710000000000000000000280000011206000
0202LOTE PADRAO                   SID NACIONALON *       CSNA3       010VISTA          000000000045700000000474000000004570000000000000000000472000008368800
0202LOTE PADRAO                   TELE LEST CLPN *       TLCP4       010VISTA          000000000000720000000007400000000071000000000000000000007300262090000
0202LOTE PADRAO                   CRT CELULAR PNA* EJ    CRTP5       010VISTA          000000000445000000004570000000044000000000000000000004550000000350900
0202LOTE PADRAO                   IPIRANGA PETPN *       PTIP4       010VISTA          000000000014500000000150000000001450000000000000000000150000002556100
0202LOTE PADRAO                   BRASIL T PARPN *       BRTP4       010VISTA          000000000018000000000187000000001800000000000000000000186000056790700
0202LOTE PADRAO                   BRASIL T PARON *       BRTP3       010VISTA          000000000017600000000184000000001760000000000000000000182000007959800
0202LOTE PADRAO                   KLABIN S/A  PN         KLBN4       010VISTA          000000000001100000000011000000000100000000000000000000011000000006800
0202LOTE PADRAO                   ACESITA     PN *       ACES4       010VISTA          000000000000770000000008000000000076000000000000000000007800201134000
0202LOTE PADRAO                   PETROBRAS   PN         PETR4       010VISTA          000000000055600000000557000000005470000000000000000000552000000102900
0202LOTE PADRAO                   ELETROBRAS  PNB*       ELET6       010VISTA          000000000037200000000379000000003720000000000000000000376000044018100
0202LOTE PADRAO                   PETROBRAS   ON         PETR3       010VISTA          000000000058000000000590000000005730000000000000000000577000000045800
0202LOTE PADRAO                   COMGAS      PNA*       CGAS5       010VISTA          000000000076500000000800000000007650000000000000000000790000000995500
0202LOTE PADRAO                   SOUZA CRUZ  ON EJ      CRUZ3       010VISTA          000000000015400000000159000000001540000000000000000000159000000018100
0202LOTE PADRAO                   ELETROBRAS  ON *       ELET3       010VISTA          000000000041500000000415000000004100000000000000000000412000014160100
0202LOTE PADRAO                   CELESC      PNB        CLSC6       010VISTA          000000000000560000000005900000000056000000000000000000005900000197300
0202LOTE PADRAO                   BRADESCO    PN * EJ    BBDC4       010VISTA          000000000015200000000153000000001500000000000000000000150000141191000
0202LOTE PADRAO                   CESP        PN *       CESP4       010VISTA          000000000014500000000149000000001450000000000000000000148000004379000
0202LOTE PADRAO                   LIGHT       ON *       LIGH3       010VISTA          000000000103500000001100000000010350000000000000000001060000000522800
0202LOTE PADRAO                   TELESP CL PAPN *       TSPP4       010VISTA          000000000005900000000061000000000590000000000000000000060000181120000
0202LOTE PADRAO                   VALE R DOCE PNA        VALE5       010VISTA          000000000062000000000634000000006200000000000000000000634000000014300
0202LOTE PADRAO                   COPEL       PNB*       CPLE6       010VISTA          000000000018900000000189000000001860000000000000000000188000014464600
0202LOTE PADRAO                   VALE R DOCE ON         VALE3       010VISTA          000000000064500000000649000000006450000000000000000000649000000008100
0202LOTE PADRAO                   ARACRUZ     PNB        ARCZ6       010VISTA          000000000004500000000047500000000450000000000000000000047500000048800
0202LOTE PADRAO                   TELEMIG PARTPN *       TMCP4       010VISTA          000000000003000000000032000000000300000000000000000000031000065600200
0202LOTE PADRAO                   BRASIL TELECPN *       BRTO4       010VISTA          000000000012900000000133000000001290000000000000000000133000095742200
0202LOTE PADRAO                   SABESP      ON *       SBSP3       010VISTA          000000000137500000001385000000013650000000000000000001370000002063800
0202LOTE PADRAO                   BRASKEM     PNA*       BRKM5       010VISTA          000000000518900000005230000000051800000000000000000005195000000256200
0202LOTE PADRAO                   EMBRAER     PN EJ      EMBR4       010VISTA          000000000012000000000123000000001200000000000000000000121000000053300
0202LOTE PADRAO                   TELESP      PN * EJ    TLPP4       010VISTA          000000000033300000000355000000003330000000000000000000353000004860800
0202LOTE PADRAO                   EMBRAER     ON EJ      EMBR3       010VISTA          000000000011400000000116000000001140000000000000000000115000000026200
0202LOTE PADRAO                   AMBEV       PN *       AMBV4       010VISTA          000000000468000000004880000000046800000000000000000004880000005364700
0202LOTE PADRAO                   USIMINAS    PNA        USIM5       010VISTA          000000000007800000000080000000000780000000000000000000080000000114900
0202LOTE PADRAO                   ELETROPAULO PN *       ELPL4       010VISTA          000000000067500000000689000000006690000000000000000000689000002642900
0202LOTE PADRAO                   TELE NORD CLPN *       TNEP4       010VISTA          000000000002600000000027700000000260000000000000000000027500151765000
0202LOTE PADRAO                   CEMIG       PN * EJ    CMIG4       010VISTA          000000000036800000000372000000003630000000000000000000370000050090700
0202LOTE PADRAO                   TELE CL SUL PN * EJ    TCSL4       010VISTA          000000000003100000000031000000000300000000000000000000031000062872300
0202LOTE PADRAO                   TRACTEBEL   ON *       TBLE3       010VISTA          000000000004400000000047000000000440000000000000000000046000017596300
0202LOTE PADRAO                   CEMIG       ON * EJ    CMIG3       010VISTA          000000000034100000000343000000003370000000000000000000343000000130000
0202LOTE PADRAO                   TELE CL SUL ON * EJ    TCSL3       010VISTA          000000000002700000000027000000000270000000000000000000027500017530500
0202LOTE PADRAO                   ITAUSA      PN         ITSA4       010VISTA          000000000002400000000025200000000248000000000000000000025000000162200
0202LOTE PADRAO                   V C P       PN *       VCPA4       010VISTA          000000000090900000000925000000009060000000000000000000924000000285100
0202LOTE PADRAO                   SID TUBARAO PN *       CSTB4       010VISTA          000000000025900000000259000000002530000000000000000000256000007379900
0202LOTE PADRAO                   BRADESPAR   PN *       BRAP4       010VISTA          000000000000750000000007800000000075000000000000000000007800151854000
0202LOTE PADRAO                   NET         PN         PLIM4       010VISTA          000000000000500000000005100000000049000000000000000000005000000803400
0202LOTE PADRAO                   TELE CTR OESPN * EJ    TCOC4       010VISTA          000000000004600000000049000000000460000000000000000000048000090767200
0202LOTE PADRAO                   TELEMAR N L PNA* EJ    TMAR5       010VISTA          000000000052800000000539000000005250000000000000000000534000014893000
0202LOTE PADRAO                   GERDAU      PN * EJ    GGBR4       010VISTA          000000000029100000000298000000002910000000000000000000298000016102800
0202LOTE PADRAO                   BRASIL      ON *       BBAS3       010VISTA          000000000014400000000153000000001410000000000000000000149000027939900
