00BDIN9999BOVESPA 99992002051720020517
0101IBOVESPA                      0126650125630127390000000000000000002002051700000020020517012699000000
0202LOTE PADRAO                   EMBRATEL PARPN *       EBTP4       010VISTA          000000000004200000000044000000000410000000000000000000042000183134000
0202LOTE PADRAO                   TRAN PAULISTPN * EJ    TRPL4       010VISTA          000000000006100000000061000000000590000000000000000000059000018629900
0202LOTE PADRAO                   EMBRATEL PARON *       EBTP3       010VISTA          000000000005700000000059000000000570000000000000000000058000028656700
0202LOTE PADRAO                   TELEMAR     PN * EJ    TNLP4       010VISTA          000000000030100000000303000000003000000000000000000000302000257330000
0202LOTE PADRAO                   ITAUBANCO   PN * EJ    ITAU4       010VISTA          000000000179000000001799000000017700000000000000000001790000006197500
0202LOTE PADRAO                   TELEMAR     ON * EJ    TNLP3       010VISTA          000000000026100000000261000000002530000000000000000000260000005902700
0202LOTE PADRAO                   SID NACIONALON *       CSNA3       010VISTA          000000000049000000000496000000004860000000000000000000492000019480000
0202LOTE PADRAO                   TELE LEST CLPN *       TLCP4       010VISTA          000000000000700000000007100000000069000000000000000000006900042812700
0202LOTE PADRAO                   CRT CELULAR PNA* EJ    CRTP5       010VISTA          000000000415000000004150000000040000000000000000000004100000000363400
0202LOTE PADRAO                   IPIRANGA PETPN *       PTIP4       010VISTA          000000000014000000000144000000001400000000000000000000141000002080300
0202LOTE PADRAO                   BRASIL T PARPN *       BRTP4       010VISTA          000000000017500000000177000000001730000000000000000000176000041562200
0202LOTE PADRAO                   BRASIL T PARON *       BRTP3       010VISTA          000000000016500000000166000000001610000000000000000000166000004650100
0202LOTE PADRAO                   KLABIN S/A  PN         KLBN4       010VISTA          000000000001100000000011000000000110000000000000000000011000000028600
0202LOTE PADRAO                   ACESITA     PN *       ACES4       010VISTA          000000000000690000000006900000000065000000000000000000006600161352000
0202LOTE PADRAO                   PETROBRAS   PN         PETR4       010VISTA          000000000053500000000541000000005330000000000000000000541000000084500
0202LOTE PADRAO                   ELETROBRAS  PNB*       ELET6       010VISTA          000000000031300000000316000000003110000000000000000000315000025368500
0202LOTE PADRAO                   PETROBRAS   ON         PETR3       010VISTA          000000000056700000000571000000005610000000000000000000568000000026100
0202LOTE PADRAO                   COMGAS      PNA*       CGAS5       010VISTA          000000000077000000000775000000007600000000000000000000762000000916000
0202LOTE PADRAO                   SOUZA CRUZ  ON EJ      CRUZ3       010VISTA          000000000016200000000163000000001610000000000000000000163000000005600
0202LOTE PADRAO                   ELETROBRAS  ON *       ELET3       010VISTA          000000000035300000000357000000003510000000000000000000357000020077800
0202LOTE PADRAO                   CELESC      PNB        CLSC6       010VISTA          000000000000550000000005500000000053000000000000000000005400000224300
0202LOTE PADRAO                   BRADESCO    PN * EJ    BBDC4       010VISTA          000000000013400000000134000000001310000000000000000000132500064817300
0202LOTE PADRAO                   CESP        PN *       CESP4       010VISTA          000000000011000000000116000000001090000000000000000000113000011034700
0202LOTE PADRAO                   LIGHT       ON *       LIGH3       010VISTA          000000000094100000000980000000009410000000000000000000961000000557600
0202LOTE PADRAO                   TELESP CL PAPN *       TSPP4       010VISTA          000000000006000000000060000000000580000000000000000000060000130510000
0202LOTE PADRAO                   VALE R DOCE PNA        VALE5       010VISTA          000000000068300000000685000000006800000000000000000000685000000016400
0202LOTE PADRAO                   COPEL       PNB*       CPLE6       010VISTA          000000000015100000000151000000001410000000000000000000148000043556300
0202LOTE PADRAO                   VALE R DOCE ON         VALE3       010VISTA          000000000068000000000688000000006780000000000000000000688000000016200
0202LOTE PADRAO                   ARACRUZ     PNB        ARCZ6       010VISTA          000000000005400000000055000000000540000000000000000000054000000014300
0202LOTE PADRAO                   TELEMIG PARTPN *       TMCP4       010VISTA          000000000002800000000029000000000279000000000000000000028000199149000
0202LOTE PADRAO                   BRASIL TELECPN *       BRTO4       010VISTA          000000000012100000000124000000001180000000000000000000123000049550900
0202LOTE PADRAO                   SABESP      ON *       SBSP3       010VISTA          000000000118000000001182000000011600000000000000000001170000004529900
0202LOTE PADRAO                   BRASKEM     PNA*       BRKM5       010VISTA          000000000472000000004720000000046000000000000000000004600000000082000
0202LOTE PADRAO                   EMBRAER     PN EJ      EMBR4       010VISTA          000000000013900000000141000000001390000000000000000000140000000058100
0202LOTE PADRAO                   TELESP      PN * EJ    TLPP4       010VISTA          000000000034250000000342500000003370000000000000000000340000005898300
0202LOTE PADRAO                   EMBRAER     ON EJ      EMBR3       010VISTA          000000000012600000000129000000001250000000000000000000128000000006000
0202LOTE PADRAO                   AMBEV       PN *       AMBV4       010VISTA          000000000473900000004800000000047300000000000000000004760000001726700
0202LOTE PADRAO                   USIMINAS    PNA        USIM5       010VISTA          000000000007600000000076000000000740000000000000000000075000000016600
0202LOTE PADRAO                   ELETROPAULO PN *       ELPL4       010VISTA          000000000056750000000567000000005500000000000000000000560000001232000
0202LOTE PADRAO                   TELE NORD CLPN *       TNEP4       010VISTA          000000000002540000000025400000000248000000000000000000025000100086000
0202LOTE PADRAO                   CEMIG       PN * EJ    CMIG4       010VISTA          000000000032800000000337000000003180000000000000000000322500046809400
0202LOTE PADRAO                   TELE CL SUL PN * EJ    TCSL4       010VISTA          000000000003000000000030000000000290000000000000000000030000066181000
0202LOTE PADRAO                   TRACTEBEL   ON *       TBLE3       010VISTA          000000000004100000000041000000000400000000000000000000040000039132600
0202LOTE PADRAO                   CEMIG       ON * EJ    CMIG3       010VISTA          000000000030500000000308000000003010000000000000000000302000000605000
0202LOTE PADRAO                   TELE CL SUL ON * EJ    TCSL3       010VISTA          000000000002690000000027000000000260000000000000000000027000005473100
0202LOTE PADRAO                   ITAUSA      PN         ITSA4       010VISTA          000000000002200000000022000000000210000000000000000000022000000148300
0202LOTE PADRAO                   V C P       PN *       VCPA4       010VISTA          000000000098000000000994000000009760000000000000000000982500000411600
0202LOTE PADRAO                   SID TUBARAO PN *       CSTB4       010VISTA          000000000029500000000295000000002830000000000000000000287500001209300
0202LOTE PADRAO                   BRADESPAR   PN *       BRAP4       010VISTA          000000000000640000000006400000000062000000000000000000006200131571000
0202LOTE PADRAO                   NET         PN         PLIM4       010VISTA          000000000000320000000003400000000032000000000000000000003400001793500
0202LOTE PADRAO                   TELE CTR OESPN * EJ    TCOC4       010VISTA          000000000004500000000046000000000440000000000000000000046000117268000
0202LOTE PADRAO                   TELEMAR N L PNA* EJ    TMAR5       010VISTA          000000000052300000000530000000005170000000000000000000520000010637600
0202LOTE PADRAO                   GERDAU      PN * EJ    GGBR4       010VISTA          000000000032750000000336000000003275000000000000000000333000021629500
0202LOTE PADRAO                   BRASIL      ON *       BBAS3       010VISTA          000000000012200000000126000000001210000000000000000000125000004038200
