00BDIN9999BOVESPA 99992002070420020704
0101IBOVESPA                      010661010594010721000000000000000000200207040000002002070401065598006400
0202LOTE PADRAO                   EMBRATEL PARPN *       EBTP4       010VISTA          000000000001800000000019000000000180000000000000000000018000401069000
0202LOTE PADRAO                   TRAN PAULISTPN * EJ    TRPL4       010VISTA          000000000006200000000062000000000610000000000000000000061000008371700
0202LOTE PADRAO                   EMBRATEL PARON *       EBTP3       010VISTA          000000000003000000000031000000000290000000000000000000029000022296400
0202LOTE PADRAO                   TELEMAR     PN * EJ    TNLP4       010VISTA          000000000026300000000267000000002600000000000000000000263000231077000
0202LOTE PADRAO                   ITAUBANCO   PN * EJ    ITAU4       010VISTA          000000000157000000001580000000015540000000000000000001570000001989700
0202LOTE PADRAO                   TELEMAR     ON * EJ    TNLP3       010VISTA          000000000021200000000218000000002110000000000000000000215000005644500
0202LOTE PADRAO                   SID NACIONALON *       CSNA3       010VISTA          000000000047900000000500000000004790000000000000000000497000022693900
0202LOTE PADRAO                   TELE LEST CLPN *       TLCP4       010VISTA          000000000000560000000005700000000053000000000000000000005400064386100
0202LOTE PADRAO                   CRT CELULAR PNA* EJ    CRTP5       010VISTA          000000000399000000003999000000038900000000000000000003890000000171400
0202LOTE PADRAO                   IPIRANGA PETPN *       PTIP4       010VISTA          000000000012000000000122000000001190000000000000000000120000000425200
0202LOTE PADRAO                   BRASIL T PARPN *       BRTP4       010VISTA          000000000015000000000155000000001500000000000000000000154000019043900
0202LOTE PADRAO                   BRASIL T PARON *       BRTP3       010VISTA          000000000013900000000140000000001360000000000000000000136000001482500
0202LOTE PADRAO                   KLABIN S/A  PN         KLBN4       010VISTA          000000000000890000000008900000000086000000000000000000008700000032500
0202LOTE PADRAO                   ACESITA     PN *       ACES4       010VISTA          000000000000600000000006100000000059000000000000000000005900077530100
0202LOTE PADRAO                   PETROBRAS   PN         PETR4       010VISTA          000000000047000000000470000000004630000000000000000000469000000030200
0202LOTE PADRAO                   ELETROBRAS  PNB*       ELET6       010VISTA          000000000025300000000255000000002500000000000000000000250000010601600
0202LOTE PADRAO                   PETROBRAS   ON         PETR3       010VISTA          000000000051000000000515000000005070000000000000000000510000000029600
0202LOTE PADRAO                   COMGAS      PNA*       CGAS5       010VISTA          000000000059900000000600000000005900000000000000000000590000000267000
0202LOTE PADRAO                   SOUZA CRUZ  ON EJ      CRUZ3       010VISTA          000000000014300000000143000000001430000000000000000000143000000000600
0202LOTE PADRAO                   ELETROBRAS  ON *       ELET3       010VISTA          000000000027800000000283000000002780000000000000000000278000003647500
0202LOTE PADRAO                   CELESC      PNB        CLSC6       010VISTA          000000000000570000000005700000000056000000000000000000005700000185500
0202LOTE PADRAO                   BRADESCO    PN * EJ    BBDC4       010VISTA          000000000010700000000108000000001070000000000000000000108000063707500
0202LOTE PADRAO                   CESP        PN *       CESP4       010VISTA          000000000008400000000084000000000810000000000000000000082500005154100
0202LOTE PADRAO                   LIGHT       ON *       LIGH3       010VISTA          000000000085000000000869000000008500000000000000000000850000000158300
0202LOTE PADRAO                   TELESP CL PAPN *       TSPP4       010VISTA          000000000003800000000038000000000360000000000000000000037300147946000
0202LOTE PADRAO                   VALE R DOCE PNA        VALE5       010VISTA          000000000073000000000730000000007220000000000000000000722000000003800
0202LOTE PADRAO                   COPEL       PNB*       CPLE6       010VISTA          000000000011100000000111000000001090000000000000000000110000019867800
0202LOTE PADRAO                   VALE R DOCE ON         VALE3       010VISTA          000000000078500000000785000000007750000000000000000000782000000001000
0202LOTE PADRAO                   ARACRUZ     PNB        ARCZ6       010VISTA          000000000005400000000055000000000540000000000000000000054000000008000
0202LOTE PADRAO                   TELEMIG PARTPN *       TMCP4       010VISTA          000000000002700000000027700000000250000000000000000000026000085657500
0202LOTE PADRAO                   BRASIL TELECPN *       BRTO4       010VISTA          000000000010800000000109000000001050000000000000000000108000036233100
0202LOTE PADRAO                   SABESP      ON *       SBSP3       010VISTA          000000000098600000000986000000009550000000000000000000965000001299200
0202LOTE PADRAO                   BRASKEM     PNA*       BRKM5       010VISTA          000000000393900000003939000000038500000000000000000003870000000045000
0202LOTE PADRAO                   EMBRAER     PN EJ      EMBR4       010VISTA          000000000014800000000149000000001450000000000000000000149000000012400
0202LOTE PADRAO                   TELESP      PN * EJ    TLPP4       010VISTA          000000000031500000000323000000003130000000000000000000320000002746400
0202LOTE PADRAO                   EMBRAER     ON EJ      EMBR3       010VISTA          000000000013500000000138000000001340000000000000000000135000000014600
0202LOTE PADRAO                   AMBEV       PN *       AMBV4       010VISTA          000000000438000000004420000000043700000000000000000004390000000758700
0202LOTE PADRAO                   USIMINAS    PNA        USIM5       010VISTA          000000000006500000000067500000000650000000000000000000066000000008700
0202LOTE PADRAO                   ELETROPAULO PN *       ELPL4       010VISTA          000000000042700000000432000000004170000000000000000000429000000463100
0202LOTE PADRAO                   TELE NORD CLPN *       TNEP4       010VISTA          000000000002560000000025000000000252000000000000000000025200084093100
0202LOTE PADRAO                   CEMIG       PN * EJ    CMIG4       010VISTA          000000000031600000000316000000003050000000000000000000306000013139800
0202LOTE PADRAO                   TELE CL SUL PN * EJ    TCSL4       010VISTA          000000000003100000000031000000000290000000000000000000029000037790200
0202LOTE PADRAO                   TRACTEBEL   ON *       TBLE3       010VISTA          000000000003900000000040000000000390000000000000000000040000004870500
0202LOTE PADRAO                   CEMIG       ON * EJ    CMIG3       010VISTA          000000000028000000000283000000002760000000000000000000283000000731600
0202LOTE PADRAO                   TELE CL SUL ON * EJ    TCSL3       010VISTA          000000000002400000000025400000000240000000000000000000024000005313200
0202LOTE PADRAO                   ITAUSA      PN         ITSA4       010VISTA          000000000001800000000018000000000180000000000000000000018000000199600
0202LOTE PADRAO                   V C P       PN *       VCPA4       010VISTA          000000000104000000001070000000010400000000000000000001070000000961700
0202LOTE PADRAO                   SID TUBARAO PN *       CSTB4       010VISTA          000000000027900000000279000000002700000000000000000000271000013345200
0202LOTE PADRAO                   BRADESPAR   PN *       BRAP4       010VISTA          000000000000510000000005300000000050000000000000000000005200093545000
0202LOTE PADRAO                   NET         PN         PLIM4       010VISTA          000000000001600000000016000000000154000000000000000000015000000064500
0202LOTE PADRAO                   TELE CTR OESPN * EJ    TCOC4       010VISTA          000000000003790000000037900000000350000000000000000000035000102244000
0202LOTE PADRAO                   TELEMAR N L PNA* EJ    TMAR5       010VISTA          000000000047000000000475000000004620000000000000000000475000012806500
0202LOTE PADRAO                   GERDAU      PN * EJ    GGBR4       010VISTA          000000000030000000000307000000002960000000000000000000304000005074600
0202LOTE PADRAO                   BRASIL      ON *       BBAS3       010VISTA          000000000008500000000086000000000850000000000000000000085000002856100
