00BDIN9999BOVESPA 99992002050620020506
0101IBOVESPA                      0125940122720125950000000000000000002002050600000020020506012430000000
0202LOTE PADRAO                   EMBRATEL PARPN *       EBTP4       010VISTA          000000000005600000000056000000000550000000000000000000055000105842000
0202LOTE PADRAO                   TRAN PAULISTPN * EJ    TRPL4       010VISTA          000000000005800000000059000000000560000000000000000000059000008737900
0202LOTE PADRAO                   EMBRATEL PARON *       EBTP3       010VISTA          000000000007200000000074000000000700000000000000000000073000014427300
0202LOTE PADRAO                   TELEMAR     PN * EJ    TNLP4       010VISTA          000000000028600000000290000000002860000000000000000000288000202124000
0202LOTE PADRAO                   ITAUBANCO   PN * EJ    ITAU4       010VISTA          000000000180400000001804000000017490000000000000000001790000016168000
0202LOTE PADRAO                   TELEMAR     ON * EJ    TNLP3       010VISTA          000000000024600000000250000000002430000000000000000000250000014938400
0202LOTE PADRAO                   SID NACIONALON *       CSNA3       010VISTA          000000000044400000000444000000004200000000000000000000423000052824400
0202LOTE PADRAO                   TELE LEST CLPN *       TLCP4       010VISTA          000000000000750000000007900000000074000000000000000000007900138369000
0202LOTE PADRAO                   CRT CELULAR PNA* EJ    CRTP5       010VISTA          000000000385000000004100000000038000000000000000000004100000000353200
0202LOTE PADRAO                   IPIRANGA PETPN *       PTIP4       010VISTA          000000000013750000000140000000001360000000000000000000138000003479800
0202LOTE PADRAO                   BRASIL T PARPN *       BRTP4       010VISTA          000000000017000000000172000000001670000000000000000000168000067408800
0202LOTE PADRAO                   BRASIL T PARON *       BRTP3       010VISTA          000000000016000000000162000000001540000000000000000000162000006210500
0202LOTE PADRAO                   KLABIN S/A  PN         KLBN4       010VISTA          000000000000980000000010000000000096000000000000000000010000000013500
0202LOTE PADRAO                   ACESITA     PN *       ACES4       010VISTA          000000000000720000000007200000000069000000000000000000006900139761000
0202LOTE PADRAO                   PETROBRAS   PN         PETR4       010VISTA          000000000053600000000537000000005270000000000000000000531000000066200
0202LOTE PADRAO                   ELETROBRAS  PNB*       ELET6       010VISTA          000000000031300000000313000000003080000000000000000000311000056797700
0202LOTE PADRAO                   PETROBRAS   ON         PETR3       010VISTA          000000000056500000000570000000005600000000000000000000560000000048100
0202LOTE PADRAO                   COMGAS      PNA*       CGAS5       010VISTA          000000000071000000000722000000007040000000000000000000720000000599600
0202LOTE PADRAO                   SOUZA CRUZ  ON EJ      CRUZ3       010VISTA          000000000016500000000166000000001610000000000000000000166000000007800
0202LOTE PADRAO                   ELETROBRAS  ON *       ELET3       010VISTA          000000000035000000000350000000003350000000000000000000340000031684800
0202LOTE PADRAO                   CELESC      PNB        CLSC6       010VISTA          000000000000560000000005600000000053000000000000000000005400000145000
0202LOTE PADRAO                   BRADESCO    PN * EJ    BBDC4       010VISTA          000000000012800000000128000000001250000000000000000000127000200451000
0202LOTE PADRAO                   CESP        PN *       CESP4       010VISTA          000000000011200000000112000000001050000000000000000000109000008578000
0202LOTE PADRAO                   LIGHT       ON *       LIGH3       010VISTA          000000000091000000000939000000009000000000000000000000915000000223000
0202LOTE PADRAO                   TELESP CL PAPN *       TSPP4       010VISTA          000000000005600000000056000000000530000000000000000000055000138258000
0202LOTE PADRAO                   VALE R DOCE PNA        VALE5       010VISTA          000000000065500000000672000000006500000000000000000000662000000014600
0202LOTE PADRAO                   COPEL       PNB*       CPLE6       010VISTA          000000000015300000000153000000001460000000000000000000147000022206900
0202LOTE PADRAO                   VALE R DOCE ON         VALE3       010VISTA          000000000066000000000672000000006550000000000000000000664000000008000
0202LOTE PADRAO                   ARACRUZ     PNB        ARCZ6       010VISTA          000000000005200000000053000000000510000000000000000000052000000031300
0202LOTE PADRAO                   TELEMIG PARTPN *       TMCP4       010VISTA          000000000002300000000024000000000230000000000000000000024000078970800
0202LOTE PADRAO                   BRASIL TELECPN *       BRTO4       010VISTA          000000000011800000000118000000001150000000000000000000116000051923200
0202LOTE PADRAO                   SABESP      ON *       SBSP3       010VISTA          000000000134400000001344000000012800000000000000000001280000002917700
0202LOTE PADRAO                   BRASKEM     PNA*       BRKM5       010VISTA          000000000491000000004974000000048500000000000000000004900000000086600
0202LOTE PADRAO                   EMBRAER     PN EJ      EMBR4       010VISTA          000000000013700000000141000000001370000000000000000000141000000115800
0202LOTE PADRAO                   TELESP      PN * EJ    TLPP4       010VISTA          000000000031400000000314000000003030000000000000000000314000003831700
0202LOTE PADRAO                   EMBRAER     ON EJ      EMBR3       010VISTA          000000000012300000000127000000001220000000000000000000127000000027200
0202LOTE PADRAO                   AMBEV       PN *       AMBV4       010VISTA          000000000494000000004950000000048810000000000000000004900000001846300
0202LOTE PADRAO                   USIMINAS    PNA        USIM5       010VISTA          000000000007750000000077500000000750000000000000000000077500000058200
0202LOTE PADRAO                   ELETROPAULO PN *       ELPL4       010VISTA          000000000053000000000535000000005110000000000000000000524000006857300
0202LOTE PADRAO                   TELE NORD CLPN *       TNEP4       010VISTA          000000000002250000000023000000000220000000000000000000023000068448700
0202LOTE PADRAO                   CEMIG       PN * EJ    CMIG4       010VISTA          000000000032800000000342000000003280000000000000000000339000054964000
0202LOTE PADRAO                   TELE CL SUL PN * EJ    TCSL4       010VISTA          000000000002700000000028000000000260000000000000000000028000078781700
0202LOTE PADRAO                   TRACTEBEL   ON *       TBLE3       010VISTA          000000000004250000000042000000000400000000000000000000040000019795600
0202LOTE PADRAO                   CEMIG       ON * EJ    CMIG3       010VISTA          000000000029100000000301000000002880000000000000000000301000000266500
0202LOTE PADRAO                   TELE CL SUL ON * EJ    TCSL3       010VISTA          000000000002200000000024000000000220000000000000000000024000025937600
0202LOTE PADRAO                   ITAUSA      PN         ITSA4       010VISTA          000000000002270000000022700000000220000000000000000000022000000161700
0202LOTE PADRAO                   V C P       PN *       VCPA4       010VISTA          000000000093000000000939000000009210000000000000000000921000001123500
0202LOTE PADRAO                   SID TUBARAO PN *       CSTB4       010VISTA          000000000027000000000280000000002600000000000000000000280000008976800
0202LOTE PADRAO                   BRADESPAR   PN *       BRAP4       010VISTA          000000000000620000000006400000000062000000000000000000006400130258000
0202LOTE PADRAO                   NET         PN         PLIM4       010VISTA          000000000000300000000003100000000029000000000000000000002900001955000
0202LOTE PADRAO                   TELE CTR OESPN * EJ    TCOC4       010VISTA          000000000004500000000045000000000440000000000000000000045400039759400
0202LOTE PADRAO                   TELEMAR N L PNA* EJ    TMAR5       010VISTA          000000000049600000000508000000004880000000000000000000497000014993000
0202LOTE PADRAO                   GERDAU      PN * EJ    GGBR4       010VISTA          000000000029400000000294000000002800000000000000000000285000010922700
0202LOTE PADRAO                   BRASIL      ON *       BBAS3       010VISTA          000000000012400000000125000000001225000000000000000000125000001507600
