00BDIN9999BOVESPA 99992002021520020215
0101IBOVESPA                      0132220131690133000000000000000000002002021500000020020215013300000000
0202LOTE PADRAO                   EMBRATEL PARPN *       EBTP4       010VISTA          000000000008300000000085000000000810000000000000000000081000093465900
0202LOTE PADRAO                   EMBRATEL PARON *       EBTP3       010VISTA          000000000010500000000106000000001010000000000000000000104000023991000
0202LOTE PADRAO                   TRAN PAULISTPN * EJ    TRPL4       010VISTA          000000000007200000000073000000000710000000000000000000072000010833000
0202LOTE PADRAO                   TELEMAR     PN * EJ    TNLP4       010VISTA          000000000032800000000337000000003250000000000000000000327000276878000
0202LOTE PADRAO                   ITAUBANCO   PN * EJ    ITAU4       010VISTA          000000000177000000001820000000017600000000000000000001820000008487000
0202LOTE PADRAO                   TELEMAR     ON * EJ    TNLP3       010VISTA          000000000029100000000295000000002880000000000000000000290000027859700
0202LOTE PADRAO                   SID NACIONALON *       CSNA3       010VISTA          000000000041000000000419000000004070000000000000000000412000004555700
0202LOTE PADRAO                   TELE LEST CLPN *       TLCP4       010VISTA          000000000000850000000008700000000083000000000000000000008300099083000
0202LOTE PADRAO                   CRT CELULAR PNA* EJ    CRTP5       010VISTA          000000000455000000004700000000045100000000000000000004560000000220200
0202LOTE PADRAO                   IPIRANGA PETPN *       PTIP4       010VISTA          000000000012900000000129000000001280000000000000000000129000001157900
0202LOTE PADRAO                   BRASIL T PARPN *       BRTP4       010VISTA          000000000017300000000176000000001710000000000000000000174000053268100
0202LOTE PADRAO                   BRASIL T PARON *       BRTP3       010VISTA          000000000017800000000178000000001750000000000000000000175000002209700
0202LOTE PADRAO                   KLABIN S/A  PN         KLBN4       010VISTA          000000000001100000000011000000000110000000000000000000011000000014200
0202LOTE PADRAO                   ACESITA     PN *       ACES4       010VISTA          000000000000690000000006900000000068000000000000000000006900058489000
0202LOTE PADRAO                   PETROBRAS   PN         PETR4       010VISTA          000000000050000000000503000000004980000000000000000000503000000078000
0202LOTE PADRAO                   ELETROBRAS  PNB*       ELET6       010VISTA          000000000034500000000348000000003420000000000000000000342000026816300
0202LOTE PADRAO                   PETROBRAS   ON         PETR3       010VISTA          000000000051000000000515000000005100000000000000000000513000000019600
0202LOTE PADRAO                   COMGAS      PNA*       CGAS5       010VISTA          000000000089000000000900000000008820000000000000000000882000000112200
0202LOTE PADRAO                   SOUZA CRUZ  ON EJ      CRUZ3       010VISTA          000000000014000000000143000000001400000000000000000000140000000012900
0202LOTE PADRAO                   ELETROBRAS  ON *       ELET3       010VISTA          000000000039700000000399000000003900000000000000000000396000018664000
0202LOTE PADRAO                   CELESC      PNB        CLSC6       010VISTA          000000000000500000000005100000000049000000000000000000005000000135500
0202LOTE PADRAO                   BRADESCO    PN * EJ    BBDC4       010VISTA          000000000012500000000129000000001240000000000000000000128000213624000
0202LOTE PADRAO                   CESP        PN *       CESP4       010VISTA          000000000015000000000151000000001490000000000000000000151000001628800
0202LOTE PADRAO                   LIGHT       ON *       LIGH3       010VISTA          000000000117900000001180000000011700000000000000000001175000000156800
0202LOTE PADRAO                   TELESP CL PAPN *       TSPP4       010VISTA          000000000007200000000074000000000725000000000000000000072000194215000
0202LOTE PADRAO                   VALE R DOCE PNA        VALE5       010VISTA          000000000058000000000580000000005700000000000000000000577000000038800
0202LOTE PADRAO                   COPEL       PNB*       CPLE6       010VISTA          000000000017100000000181000000001710000000000000000000181000061235200
0202LOTE PADRAO                   VALE R DOCE ON         VALE3       010VISTA          000000000057000000000578000000005700000000000000000000577000000009200
0202LOTE PADRAO                   ARACRUZ     PNB        ARCZ6       010VISTA          000000000004600000000048000000000460000000000000000000047000000086500
0202LOTE PADRAO                   TELEMIG PARTPN *       TMCP4       010VISTA          000000000003600000000037000000000360000000000000000000036000073146900
0202LOTE PADRAO                   BRASIL TELECPN *       BRTO4       010VISTA          000000000012900000000130000000001280000000000000000000128000051960700
0202LOTE PADRAO                   SABESP      ON *       SBSP3       010VISTA          000000000123500000001235000000012070000000000000000001220000000699400
0202LOTE PADRAO                   BRASKEM     PNA*       BRKM5       010VISTA          000000000505000000005219000000050500000000000000000005100000000113200
0202LOTE PADRAO                   EMBRAER     PN EJ      EMBR4       010VISTA          000000000014300000000153000000001430000000000000000000151000000103200
0202LOTE PADRAO                   TELESP      PN * EJ    TLPP4       010VISTA          000000000030600000000310000000003060000000000000000000306000005612500
0202LOTE PADRAO                   EMBRAER     ON EJ      EMBR3       010VISTA          000000000013200000000135000000001290000000000000000000134000000047900
0202LOTE PADRAO                   AMBEV       PN *       AMBV4       010VISTA          000000000458500000004675000000045700000000000000000004675000008366800
0202LOTE PADRAO                   USIMINAS    PNA        USIM5       010VISTA          000000000007300000000075000000000720000000000000000000074000000016700
0202LOTE PADRAO                   ELETROPAULO PN *       ELPL4       010VISTA          000000000066000000000700000000006600000000000000000000694000017019100
0202LOTE PADRAO                   TELE NORD CLPN *       TNEP4       010VISTA          000000000002900000000029400000000280000000000000000000028000079382600
0202LOTE PADRAO                   CEMIG       PN * EJ    CMIG4       010VISTA          000000000036800000000370000000003560000000000000000000361000067886900
0202LOTE PADRAO                   TELE CL SUL PN * EJ    TCSL4       010VISTA          000000000003200000000032000000000310000000000000000000031000042617900
0202LOTE PADRAO                   CEMIG       ON * EJ    CMIG3       010VISTA          000000000032500000000325000000003140000000000000000000314000001458500
0202LOTE PADRAO                   TELE CL SUL ON * EJ    TCSL3       010VISTA          000000000002800000000028000000000281000000000000000000028000014617000
0202LOTE PADRAO                   ITAUSA      PN         ITSA4       010VISTA          000000000002100000000021000000000210000000000000000000021000000627200
0202LOTE PADRAO                   V C P       PN *       VCPA4       010VISTA          000000000087000000000895000000008700000000000000000000890000003851900
0202LOTE PADRAO                   SID TUBARAO PN *       CSTB4       010VISTA          000000000021100000000215000000002110000000000000000000213000003760100
0202LOTE PADRAO                   BRADESPAR   PN *       BRAP4       010VISTA          000000000000730000000007500000000072000000000000000000007200182259000
0202LOTE PADRAO                   NET         PN         PLIM4       010VISTA          000000000000630000000006400000000062000000000000000000006400000670600
0202LOTE PADRAO                   TELE CTR OESPN * EJ    TCOC4       010VISTA          000000000004750000000047000000000460000000000000000000047100075147400
0202LOTE PADRAO                   TELEMAR N L PNA* EJ    TMAR5       010VISTA          000000000055000000000565000000005430000000000000000000552000026033500
0202LOTE PADRAO                   GERDAU      PN * EJ    GGBR4       010VISTA          000000000025500000000259000000002510000000000000000000259000006286600
0202LOTE PADRAO                   BRASIL      ON *       BBAS3       010VISTA          000000000010000000000100000000000990000000000000000000099000002377300
