00BDIN9999BOVESPA 99992002100720021007
0101IBOVESPA                      0092680088410092880000000000000000002002100700000020021007008863000000
0202LOTE PADRAO                   EMBRATEL PARPN *       EBTP4       010VISTA          000000000002400000000024000000000220000000000000000000023000218135000
0202LOTE PADRAO                   TRAN PAULISTPN * EJ    TRPL4       010VISTA          000000000005000000000051000000000490000000000000000000049600003710000
0202LOTE PADRAO                   EMBRATEL PARON *       EBTP3       010VISTA          000000000003100000000031000000000290000000000000000000029000021657000
0202LOTE PADRAO                   TELEMAR     PN * EJ    TNLP4       010VISTA          000000000023100000000232500000002180000000000000000000218000159655000
0202LOTE PADRAO                   ITAUBANCO   PN * EJ    ITAU4       010VISTA          000000000132500000001325000000012540000000000000000001280000007879200
0202LOTE PADRAO                   TELEMAR     ON * EJ    TNLP3       010VISTA          000000000016500000000166000000001610000000000000000000161000006113100
0202LOTE PADRAO                   SID NACIONALON *       CSNA3       010VISTA          000000000034400000000344000000003250000000000000000000325000002985200
0202LOTE PADRAO                   TELE LEST CLPN *       TLCP4       010VISTA          000000000000380000000003800000000036000000000000000000003700083637500
0202LOTE PADRAO                   CRT CELULAR PNA* EJ    CRTP5       010VISTA          000000000319000000003210000000031200000000000000000003180000000063000
0202LOTE PADRAO                   IPIRANGA PETPN *       PTIP4       010VISTA          000000000009000000000093000000000860000000000000000000086000001010000
0202LOTE PADRAO                   BRASIL T PARPN *       BRTP4       010VISTA          000000000017500000000176000000001680000000000000000000170000047325600
0202LOTE PADRAO                   BRASIL T PARON *       BRTP3       010VISTA          000000000013400000000134000000001280000000000000000000128000003975100
0202LOTE PADRAO                   KLABIN S/A  PN         KLBN4       010VISTA          000000000000860000000008700000000085000000000000000000008500000004000
0202LOTE PADRAO                   ACESITA     PN *       ACES4       010VISTA          000000000000600000000006000000000059000000000000000000005900032500000
0202LOTE PADRAO                   PETROBRAS   PN         PETR4       010VISTA          000000000041000000000413000000003880000000000000000000390000000091500
0202LOTE PADRAO                   ELETROBRAS  PNB*       ELET6       010VISTA          000000000016800000000168000000001580000000000000000000158000031611300
0202LOTE PADRAO                   PETROBRAS   ON         PETR3       010VISTA          000000000044500000000460000000004310000000000000000000432000000016200
0202LOTE PADRAO                   COMGAS      PNA*       CGAS5       010VISTA          000000000056100000000570000000005600000000000000000000560000000079000
0202LOTE PADRAO                   SOUZA CRUZ  ON EJ      CRUZ3       010VISTA          000000000017100000000171000000001680000000000000000000170000000004600
0202LOTE PADRAO                   ELETROBRAS  ON *       ELET3       010VISTA          000000000016100000000163000000001550000000000000000000155000007897900
0202LOTE PADRAO                   CELESC      PNB        CLSC6       010VISTA          000000000000510000000005200000000050000000000000000000005200000075900
0202LOTE PADRAO                   BRADESCO    PN * EJ    BBDC4       010VISTA          000000000008900000000089000000000840000000000000000000085000138119000
0202LOTE PADRAO                   CESP        PN *       CESP4       010VISTA          000000000006400000000064000000000610000000000000000000061000003440000
0202LOTE PADRAO                   LIGHT       ON *       LIGH3       010VISTA          000000000058000000000580000000005500000000000000000000550000000213000
0202LOTE PADRAO                   TELESP CL PAPN *       TSPP4       010VISTA          000000000003000000000030000000000279000000000000000000027000251351000
0202LOTE PADRAO                   VALE R DOCE PNA        VALE5       010VISTA          000000000083000000000839000000008200000000000000000000834000000017900
0202LOTE PADRAO                   COPEL       PNB*       CPLE6       010VISTA          000000000008400000000084000000000800000000000000000000080000030187100
0202LOTE PADRAO                   VALE R DOCE ON         VALE3       010VISTA          000000000084900000000862000000008490000000000000000000862000000014300
0202LOTE PADRAO                   ARACRUZ     PNB        ARCZ6       010VISTA          000000000005400000000054000000000530000000000000000000054000000023200
0202LOTE PADRAO                   TELEMIG PARTPN *       TMCP4       010VISTA          000000000002500000000025000000000230000000000000000000023000065143100
0202LOTE PADRAO                   BRASIL TELECPN *       BRTO4       010VISTA          000000000011500000000115000000001090000000000000000000109000039560900
0202LOTE PADRAO                   SABESP      ON *       SBSP3       010VISTA          000000000083400000000850000000007950000000000000000000800000001776500
0202LOTE PADRAO                   BRASKEM     PNA*       BRKM5       010VISTA          000000000242000000002440000000023500000000000000000002400000000028000
0202LOTE PADRAO                   EMBRAER     PN EJ      EMBR4       010VISTA          000000000013500000000135000000001300000000000000000000131000000022300
0202LOTE PADRAO                   TELESP      PN * EJ    TLPP4       010VISTA          000000000031300000000313000000003060000000000000000000309000006130400
0202LOTE PADRAO                   EMBRAER     ON EJ      EMBR3       010VISTA          000000000012500000000125000000001210000000000000000000121000000011500
0202LOTE PADRAO                   AMBEV       PN *       AMBV4       010VISTA          000000000438000000004398000000043250000000000000000004325000001289600
0202LOTE PADRAO                   USIMINAS    PNA        USIM5       010VISTA          000000000004800000000048000000000450000000000000000000045000000022800
0202LOTE PADRAO                   ELETROPAULO PN *       ELPL4       010VISTA          000000000027200000000272000000002360000000000000000000238000002091000
0202LOTE PADRAO                   TELE NORD CLPN *       TNEP4       010VISTA          000000000002270000000022000000000220000000000000000000022000033169100
0202LOTE PADRAO                   CEMIG       PN * EJ    CMIG4       010VISTA          000000000023750000000237000000002150000000000000000000217500024927300
0202LOTE PADRAO                   TELE CL SUL PN * EJ    TCSL4       010VISTA          000000000002400000000024000000000220000000000000000000023000044227100
0202LOTE PADRAO                   TRACTEBEL   ON *       TBLE3       010VISTA          000000000003900000000039000000000380000000000000000000038000001270000
0202LOTE PADRAO                   CEMIG       ON * EJ    CMIG3       010VISTA          000000000021400000000214000000002050000000000000000000205000000430300
0202LOTE PADRAO                   TELE CL SUL ON * EJ    TCSL3       010VISTA          000000000002000000000020000000000195000000000000000000019700010536500
0202LOTE PADRAO                   ITAUSA      PN         ITSA4       010VISTA          000000000001500000000015000000000150000000000000000000015100000182500
0202LOTE PADRAO                   V C P       PN *       VCPA4       010VISTA          000000000105000000001080000000010500000000000000000001070000000916700
0202LOTE PADRAO                   SID TUBARAO PN *       CSTB4       010VISTA          000000000029800000000304000000002960000000000000000000298000002080000
0202LOTE PADRAO                   BRADESPAR   PN *       BRAP4       010VISTA          000000000000450000000004600000000044000000000000000000004400052975000
0202LOTE PADRAO                   NET         PN         PLIM4       010VISTA          000000000000250000000002500000000023000000000000000000002400000178500
0202LOTE PADRAO                   TELE CTR OESPN * EJ    TCOC4       010VISTA          000000000003000000000030000000000280000000000000000000028000097412400
0202LOTE PADRAO                   TELEMAR N L PNA* EJ    TMAR5       010VISTA          000000000042000000000420000000004000000000000000000000407000006244500
0202LOTE PADRAO                   GERDAU      PN * EJ    GGBR4       010VISTA          000000000029500000000295000000002800000000000000000000283000015780700
0202LOTE PADRAO                   BRASIL      ON *       BBAS3       010VISTA          000000000008900000000089000000000850000000000000000000085000014544700
