00BDIN9999BOVESPA 99992002071220020712
0101IBOVESPA                      0108110102130109680000000000000000002002071200000020020712010967000000
0202LOTE PADRAO                   EMBRATEL PARPN *       EBTP4       010VISTA          000000000001960000000019800000000190000000000000000000019000273839000
0202LOTE PADRAO                   TRAN PAULISTPN * EJ    TRPL4       010VISTA          000000000005960000000060000000000580000000000000000000060000005916200
0202LOTE PADRAO                   EMBRATEL PARON *       EBTP3       010VISTA          000000000003200000000032000000000300000000000000000000030000034756100
0202LOTE PADRAO                   TELEMAR     PN * EJ    TNLP4       010VISTA          000000000027300000000280000000002710000000000000000000278000172857000
0202LOTE PADRAO                   ITAUBANCO   PN * EJ    ITAU4       010VISTA          000000000155000000001625000000015500000000000000000001620000026868300
0202LOTE PADRAO                   TELEMAR     ON * EJ    TNLP3       010VISTA          000000000022500000000230000000002230000000000000000000229000008853000
0202LOTE PADRAO                   SID NACIONALON *       CSNA3       010VISTA          000000000045700000000462000000004280000000000000000000448000031735300
0202LOTE PADRAO                   TELE LEST CLPN *       TLCP4       010VISTA          000000000000570000000006000000000056000000000000000000006000201960000
0202LOTE PADRAO                   CRT CELULAR PNA* EJ    CRTP5       010VISTA          000000000395000000003980000000038600000000000000000003980000000465800
0202LOTE PADRAO                   IPIRANGA PETPN *       PTIP4       010VISTA          000000000012000000000126000000001200000000000000000000126000002470300
0202LOTE PADRAO                   BRASIL T PARPN *       BRTP4       010VISTA          000000000016300000000171000000001600000000000000000000169000136330000
0202LOTE PADRAO                   BRASIL T PARON *       BRTP3       010VISTA          000000000014200000000146000000001400000000000000000000146000012318200
0202LOTE PADRAO                   KLABIN S/A  PN         KLBN4       010VISTA          000000000000860000000008700000000083000000000000000000008700000071100
0202LOTE PADRAO                   ACESITA     PN *       ACES4       010VISTA          000000000000620000000006200000000059000000000000000000006000091000000
0202LOTE PADRAO                   PETROBRAS   PN         PETR4       010VISTA          000000000045100000000461000000004450000000000000000000453000000066200
0202LOTE PADRAO                   ELETROBRAS  PNB*       ELET6       010VISTA          000000000024700000000250000000002400000000000000000000248000036551100
0202LOTE PADRAO                   PETROBRAS   ON         PETR3       010VISTA          000000000049100000000496000000004860000000000000000000490000000054900
0202LOTE PADRAO                   COMGAS      PNA*       CGAS5       010VISTA          000000000058000000000600000000005670000000000000000000600000000491000
0202LOTE PADRAO                   SOUZA CRUZ  ON EJ      CRUZ3       010VISTA          000000000014800000000150000000001470000000000000000000150000000007000
0202LOTE PADRAO                   ELETROBRAS  ON *       ELET3       010VISTA          000000000027100000000280000000002660000000000000000000278000012945700
0202LOTE PADRAO                   CELESC      PNB        CLSC6       010VISTA          000000000000590000000006000000000057000000000000000000006000000074200
0202LOTE PADRAO                   BRADESCO    PN * EJ    BBDC4       010VISTA          000000000010500000000112500000001050000000000000000000112500380355000
0202LOTE PADRAO                   CESP        PN *       CESP4       010VISTA          000000000008300000000084000000000800000000000000000000083000027667300
0202LOTE PADRAO                   LIGHT       ON *       LIGH3       010VISTA          000000000085100000000878000000008500000000000000000000858000000183800
0202LOTE PADRAO                   TELESP CL PAPN *       TSPP4       010VISTA          000000000003300000000036000000000330000000000000000000035000579144000
0202LOTE PADRAO                   VALE R DOCE PNA        VALE5       010VISTA          000000000069000000000690000000006720000000000000000000677000000025900
0202LOTE PADRAO                   COPEL       PNB*       CPLE6       010VISTA          000000000012000000000120000000001175000000000000000000119000039303500
0202LOTE PADRAO                   VALE R DOCE ON         VALE3       010VISTA          000000000075500000000765000000007520000000000000000000760000000017300
0202LOTE PADRAO                   ARACRUZ     PNB        ARCZ6       010VISTA          000000000005000000000054000000000500000000000000000000051000000086000
0202LOTE PADRAO                   TELEMIG PARTPN *       TMCP4       010VISTA          000000000003000000000033000000000300000000000000000000033000139356000
0202LOTE PADRAO                   BRASIL TELECPN *       BRTO4       010VISTA          000000000011400000000115000000001110000000000000000000115000089384400
0202LOTE PADRAO                   SABESP      ON *       SBSP3       010VISTA          000000000102000000001020000000009900000000000000000000995000002108100
0202LOTE PADRAO                   BRASKEM     PNA*       BRKM5       010VISTA          000000000391000000003958000000038500000000000000000003871000000054200
0202LOTE PADRAO                   EMBRAER     PN EJ      EMBR4       010VISTA          000000000014700000000148000000001430000000000000000000145000000039600
0202LOTE PADRAO                   TELESP      PN * EJ    TLPP4       010VISTA          000000000033750000000337500000003250000000000000000000330000014241100
0202LOTE PADRAO                   EMBRAER     ON EJ      EMBR3       010VISTA          000000000013400000000139000000001310000000000000000000131000000025600
0202LOTE PADRAO                   AMBEV       PN *       AMBV4       010VISTA          000000000444000000004500000000044310000000000000000004460000001283300
0202LOTE PADRAO                   USIMINAS    PNA        USIM5       010VISTA          000000000006200000000063000000000610000000000000000000062000000060000
0202LOTE PADRAO                   ELETROPAULO PN *       ELPL4       010VISTA          000000000045000000000450000000004350000000000000000000450000008487300
0202LOTE PADRAO                   TELE NORD CLPN *       TNEP4       010VISTA          000000000002800000000030000000000281000000000000000000030000186355000
0202LOTE PADRAO                   CEMIG       PN * EJ    CMIG4       010VISTA          000000000031500000000316000000002980000000000000000000308000026141500
0202LOTE PADRAO                   TELE CL SUL PN * EJ    TCSL4       010VISTA          000000000003200000000033000000000310000000000000000000033000092273300
0202LOTE PADRAO                   TRACTEBEL   ON *       TBLE3       010VISTA          000000000003900000000040000000000380000000000000000000040000096117400
0202LOTE PADRAO                   CEMIG       ON * EJ    CMIG3       010VISTA          000000000028500000000291000000002850000000000000000000285000000515200
0202LOTE PADRAO                   TELE CL SUL ON * EJ    TCSL3       010VISTA          000000000002600000000027300000000250000000000000000000027300031191800
0202LOTE PADRAO                   ITAUSA      PN         ITSA4       010VISTA          000000000001810000000018000000000180000000000000000000018000000639600
0202LOTE PADRAO                   V C P       PN *       VCPA4       010VISTA          000000000097000000000980000000009400000000000000000000965000004874800
0202LOTE PADRAO                   SID TUBARAO PN *       CSTB4       010VISTA          000000000026600000000268000000002630000000000000000000265000003465100
0202LOTE PADRAO                   BRADESPAR   PN *       BRAP4       010VISTA          000000000000520000000005200000000050000000000000000000005100249031000
0202LOTE PADRAO                   NET         PN         PLIM4       010VISTA          000000000001600000000018000000000155000000000000000000017800000199800
0202LOTE PADRAO                   TELE CTR OESPN * EJ    TCOC4       010VISTA          000000000003900000000042000000000390000000000000000000042000153516000
0202LOTE PADRAO                   TELEMAR N L PNA* EJ    TMAR5       010VISTA          000000000049400000000500000000004800000000000000000000500000014773200
0202LOTE PADRAO                   GERDAU      PN * EJ    GGBR4       010VISTA          000000000030500000000305000000002930000000000000000000293000018531700
0202LOTE PADRAO                   BRASIL      ON *       BBAS3       010VISTA          000000000009400000000098000000000940000000000000000000097000008369500
