00BDIN9999BOVESPA 99992002102520021025
0101IBOVESPA                      0098070096980105980000000000000000002002102500000020021025010015000000
0202LOTE PADRAO                   EMBRATEL PARPN *       EBTP4       010VISTA          000000000002300000000024000000000230000000000000000000023000294552000
0202LOTE PADRAO                   TRAN PAULISTPN * EJ    TRPL4       010VISTA          000000000005100000000053000000000500000000000000000000052000008411700
0202LOTE PADRAO                   EMBRATEL PARON *       EBTP3       010VISTA          000000000002940000000030000000000280000000000000000000030000054935900
0202LOTE PADRAO                   TELEMAR     PN * EJ    TNLP4       010VISTA          000000000024500000000251000000002430000000000000000000248000274840000
0202LOTE PADRAO                   ITAUBANCO   PN * EJ    ITAU4       010VISTA          000000000142600000001520000000014260000000000000000001495000029646500
0202LOTE PADRAO                   TELEMAR     ON * EJ    TNLP3       010VISTA          000000000017800000000188000000001780000000000000000000183000019071600
0202LOTE PADRAO                   SID NACIONALON *       CSNA3       010VISTA          000000000040700000000407000000003920000000000000000000392000015262500
0202LOTE PADRAO                   TELE LEST CLPN *       TLCP4       010VISTA          000000000000400000000004100000000039000000000000000000003900184248000
0202LOTE PADRAO                   CRT CELULAR PNA* EJ    CRTP5       010VISTA          000000000309000000003128000000029700000000000000000003128000001221600
0202LOTE PADRAO                   IPIRANGA PETPN *       PTIP4       010VISTA          000000000007900000000081000000000780000000000000000000080000026531900
0202LOTE PADRAO                   BRASIL T PARPN *       BRTP4       010VISTA          000000000019500000000201000000001890000000000000000000199000065355700
0202LOTE PADRAO                   BRASIL T PARON *       BRTP3       010VISTA          000000000013800000000147000000001380000000000000000000144000004401200
0202LOTE PADRAO                   KLABIN S/A  PN         KLBN4       010VISTA          000000000000870000000008900000000085000000000000000000008900000115300
0202LOTE PADRAO                   ACESITA     PN *       ACES4       010VISTA          000000000000710000000007300000000068000000000000000000006900191680000
0202LOTE PADRAO                   PETROBRAS   PN         PETR4       010VISTA          000000000042800000000443000000004210000000000000000000434000000125200
0202LOTE PADRAO                   ELETROBRAS  PNB*       ELET6       010VISTA          000000000017400000000187000000001740000000000000000000185000077276500
0202LOTE PADRAO                   PETROBRAS   ON         PETR3       010VISTA          000000000048000000000487000000004600000000000000000000477000000037600
0202LOTE PADRAO                   COMGAS      PNA*       CGAS5       010VISTA          000000000057600000000590000000005750000000000000000000582000001177200
0202LOTE PADRAO                   SOUZA CRUZ  ON EJ      CRUZ3       010VISTA          000000000018100000000193000000001800000000000000000000191000000009400
0202LOTE PADRAO                   ELETROBRAS  ON *       ELET3       010VISTA          000000000018500000000196000000001800000000000000000000189000049527800
0202LOTE PADRAO                   CELESC      PNB        CLSC6       010VISTA          000000000000510000000005300000000050000000000000000000005200000449200
0202LOTE PADRAO                   BRADESCO    PN * EJ    BBDC4       010VISTA          000000000009200000000095000000000900000000000000000000094000463119000
0202LOTE PADRAO                   CESP        PN *       CESP4       010VISTA          000000000006500000000067000000000630000000000000000000065000008108500
0202LOTE PADRAO                   LIGHT       ON *       LIGH3       010VISTA          000000000053600000000540000000005270000000000000000000540000004927900
0202LOTE PADRAO                   TELESP CL PAPN *       TSPP4       010VISTA          000000000003400000000036000000000340000000000000000000036000516462000
0202LOTE PADRAO                   VALE R DOCE PNA        VALE5       010VISTA          000000000091500000000929000000009150000000000000000000925000000020100
0202LOTE PADRAO                   COPEL       PNB*       CPLE6       010VISTA          000000000008200000000088000000000810000000000000000000087500045225700
0202LOTE PADRAO                   VALE R DOCE ON         VALE3       010VISTA          000000000094700000000961000000009470000000000000000000960000000027600
0202LOTE PADRAO                   ARACRUZ     PNB        ARCZ6       010VISTA          000000000006200000000065000000000610000000000000000000062000000046000
0202LOTE PADRAO                   TELEMIG PARTPN *       TMCP4       010VISTA          000000000002600000000027700000000260000000000000000000027000066203500
0202LOTE PADRAO                   BRASIL TELECPN *       BRTO4       010VISTA          000000000012500000000126000000001200000000000000000000125000089385500
0202LOTE PADRAO                   SABESP      ON *       SBSP3       010VISTA          000000000081200000000850000000008020000000000000000000836000006653200
0202LOTE PADRAO                   BRASKEM     PNA*       BRKM5       010VISTA          000000000220000000002239000000021200000000000000000002200000000173600
0202LOTE PADRAO                   EMBRAER     PN EJ      EMBR4       010VISTA          000000000014100000000145000000001400000000000000000000145000000060400
0202LOTE PADRAO                   TELESP      PN * EJ    TLPP4       010VISTA          000000000035000000000362000000003470000000000000000000356000009867500
0202LOTE PADRAO                   EMBRAER     ON EJ      EMBR3       010VISTA          000000000013600000000139000000001310000000000000000000139000000023500
0202LOTE PADRAO                   AMBEV       PN *       AMBV4       010VISTA          000000000490000000005090000000048000000000000000000005089000002298700
0202LOTE PADRAO                   USIMINAS    PNA        USIM5       010VISTA          000000000005000000000054000000000500000000000000000000053000000157200
0202LOTE PADRAO                   ELETROPAULO PN *       ELPL4       010VISTA          000000000027300000000297000000002700000000000000000000296000005892800
0202LOTE PADRAO                   TELE NORD CLPN *       TNEP4       010VISTA          000000000002400000000025000000000230000000000000000000024000066706300
0202LOTE PADRAO                   CEMIG       PN * EJ    CMIG4       010VISTA          000000000023100000000240000000002300000000000000000000240000042495900
0202LOTE PADRAO                   TELE CL SUL PN * EJ    TCSL4       010VISTA          000000000002810000000029000000000277000000000000000000028000087404400
0202LOTE PADRAO                   TRACTEBEL   ON *       TBLE3       010VISTA          000000000003300000000035000000000320000000000000000000035000023662500
0202LOTE PADRAO                   CEMIG       ON * EJ    CMIG3       010VISTA          000000000021100000000225000000002110000000000000000000219000000823600
0202LOTE PADRAO                   TELE CL SUL ON * EJ    TCSL3       010VISTA          000000000002100000000022000000000210000000000000000000022000043797900
0202LOTE PADRAO                   ITAUSA      PN         ITSA4       010VISTA          000000000001720000000018000000000169000000000000000000018000000406600
0202LOTE PADRAO                   V C P       PN *       VCPA4       010VISTA          000000000114000000001219000000011390000000000000000001180000002596100
0202LOTE PADRAO                   SID TUBARAO PN *       CSTB4       010VISTA          000000000034000000000345000000003400000000000000000000342000006649700
0202LOTE PADRAO                   BRADESPAR   PN *       BRAP4       010VISTA          000000000000470000000004800000000046000000000000000000004800133147000
0202LOTE PADRAO                   NET         PN         PLIM4       010VISTA          000000000000300000000003000000000026000000000000000000002700001759800
0202LOTE PADRAO                   TELE CTR OESPN * EJ    TCOC4       010VISTA          000000000003300000000034000000000327000000000000000000034000130930000
0202LOTE PADRAO                   TELEMAR N L PNA* EJ    TMAR5       010VISTA          000000000043500000000448000000004210000000000000000000447000023853600
0202LOTE PADRAO                   GERDAU      PN * EJ    GGBR4       010VISTA          000000000030800000000313000000002980000000000000000000313000012060700
0202LOTE PADRAO                   BRASIL      ON *       BBAS3       010VISTA          000000000009400000000099000000000930000000000000000000098000044444000
