00BDIN9999BOVESPA 99992002040820020408
0101IBOVESPA                      0132480131140132480000000000000000002002040800000020020408013160000000
0202LOTE PADRAO                   EMBRATEL PARPN *       EBTP4       010VISTA          000000000006800000000070000000000680000000000000000000068000123055000
0202LOTE PADRAO                   TRAN PAULISTPN * EJ    TRPL4       010VISTA          000000000007300000000073000000000710000000000000000000071000002777600
0202LOTE PADRAO                   EMBRATEL PARON *       EBTP3       010VISTA          000000000008400000000084000000000810000000000000000000083000002510500
0202LOTE PADRAO                   TELEMAR     PN * EJ    TNLP4       010VISTA          000000000029300000000295000000002910000000000000000000293000174599000
0202LOTE PADRAO                   ITAUBANCO   PN * EJ    ITAU4       010VISTA          000000000185000000001865000000018500000000000000000001861000003198600
0202LOTE PADRAO                   TELEMAR     ON * EJ    TNLP3       010VISTA          000000000026300000000263000000002530000000000000000000256000005624700
0202LOTE PADRAO                   SID NACIONALON *       CSNA3       010VISTA          000000000044700000000450000000004400000000000000000000450000004069200
0202LOTE PADRAO                   TELE LEST CLPN *       TLCP4       010VISTA          000000000000780000000007900000000076000000000000000000007800055158700
0202LOTE PADRAO                   CRT CELULAR PNA* EJ    CRTP5       010VISTA          000000000442000000004480000000043000000000000000000004480000000373500
0202LOTE PADRAO                   IPIRANGA PETPN *       PTIP4       010VISTA          000000000014800000000148000000001440000000000000000000144000000170100
0202LOTE PADRAO                   BRASIL T PARPN *       BRTP4       010VISTA          000000000017700000000180000000001750000000000000000000176000032078800
0202LOTE PADRAO                   BRASIL T PARON *       BRTP3       010VISTA          000000000017500000000176000000001710000000000000000000176000001302200
0202LOTE PADRAO                   KLABIN S/A  PN         KLBN4       010VISTA          000000000001000000000011000000000100000000000000000000011000000003500
0202LOTE PADRAO                   ACESITA     PN *       ACES4       010VISTA          000000000000730000000007400000000072000000000000000000007400078061100
0202LOTE PADRAO                   PETROBRAS   PN         PETR4       010VISTA          000000000057600000000582000000005750000000000000000000577000000051000
0202LOTE PADRAO                   ELETROBRAS  PNB*       ELET6       010VISTA          000000000035000000000355000000003470000000000000000000353000013535200
0202LOTE PADRAO                   PETROBRAS   ON         PETR3       010VISTA          000000000060800000000613000000006050000000000000000000607000000013300
0202LOTE PADRAO                   COMGAS      PNA*       CGAS5       010VISTA          000000000078000000000780000000007690000000000000000000769000000365700
0202LOTE PADRAO                   SOUZA CRUZ  ON EJ      CRUZ3       010VISTA          000000000015500000000158000000001550000000000000000000156000000021400
0202LOTE PADRAO                   ELETROBRAS  ON *       ELET3       010VISTA          000000000038500000000398000000003850000000000000000000396000002199300
0202LOTE PADRAO                   CELESC      PNB        CLSC6       010VISTA          000000000000560000000005600000000055000000000000000000005600000033000
0202LOTE PADRAO                   BRADESCO    PN * EJ    BBDC4       010VISTA          000000000014100000000144000000001410000000000000000000144000046512800
0202LOTE PADRAO                   CESP        PN *       CESP4       010VISTA          000000000013500000000139000000001350000000000000000000138000001328600
0202LOTE PADRAO                   LIGHT       ON *       LIGH3       010VISTA          000000000098100000000999000000009720000000000000000000972000000519000
0202LOTE PADRAO                   TELESP CL PAPN *       TSPP4       010VISTA          000000000005500000000056000000000540000000000000000000055000068226800
0202LOTE PADRAO                   VALE R DOCE PNA        VALE5       010VISTA          000000000061600000000617000000006070000000000000000000617000000010000
0202LOTE PADRAO                   COPEL       PNB*       CPLE6       010VISTA          000000000017500000000180000000001750000000000000000000179000017199200
0202LOTE PADRAO                   VALE R DOCE ON         VALE3       010VISTA          000000000062100000000634000000006200000000000000000000634000000034500
0202LOTE PADRAO                   ARACRUZ     PNB        ARCZ6       010VISTA          000000000004700000000047000000000470000000000000000000047000000021100
0202LOTE PADRAO                   TELEMIG PARTPN *       TMCP4       010VISTA          000000000003100000000031000000000300000000000000000000030000044255500
0202LOTE PADRAO                   BRASIL TELECPN *       BRTO4       010VISTA          000000000012500000000129000000001250000000000000000000128000021486900
0202LOTE PADRAO                   SABESP      ON *       SBSP3       010VISTA          000000000138000000001380000000013600000000000000000001365000000675900
0202LOTE PADRAO                   BRASKEM     PNA*       BRKM5       010VISTA          000000000525000000005250000000051900000000000000000005190000000073200
0202LOTE PADRAO                   EMBRAER     PN EJ      EMBR4       010VISTA          000000000011400000000114000000001100000000000000000000111000000059800
0202LOTE PADRAO                   TELESP      PN * EJ    TLPP4       010VISTA          000000000034000000000340000000003310000000000000000000337000003123200
0202LOTE PADRAO                   EMBRAER     ON EJ      EMBR3       010VISTA          000000000011000000000110000000001050000000000000000000106000000010600
0202LOTE PADRAO                   AMBEV       PN *       AMBV4       010VISTA          000000000458300000004583000000044600000000000000000004460000000792300
0202LOTE PADRAO                   USIMINAS    PNA        USIM5       010VISTA          000000000007400000000074000000000720000000000000000000074000000027000
0202LOTE PADRAO                   ELETROPAULO PN *       ELPL4       010VISTA          000000000066100000000661000000006350000000000000000000636000001845400
0202LOTE PADRAO                   TELE NORD CLPN *       TNEP4       010VISTA          000000000002700000000027000000000250000000000000000000025000078788400
0202LOTE PADRAO                   CEMIG       PN * EJ    CMIG4       010VISTA          000000000034200000000350000000003420000000000000000000347000015984000
0202LOTE PADRAO                   TELE CL SUL PN * EJ    TCSL4       010VISTA          000000000003000000000030000000000290000000000000000000029600034978500
0202LOTE PADRAO                   TRACTEBEL   ON *       TBLE3       010VISTA          000000000004200000000043000000000410000000000000000000042000002180000
0202LOTE PADRAO                   CEMIG       ON * EJ    CMIG3       010VISTA          000000000030800000000308000000003080000000000000000000308000000210600
0202LOTE PADRAO                   TELE CL SUL ON * EJ    TCSL3       010VISTA          000000000002500000000026000000000256000000000000000000025000001561000
0202LOTE PADRAO                   ITAUSA      PN         ITSA4       010VISTA          000000000002300000000023000000000230000000000000000000023000000092200
0202LOTE PADRAO                   V C P       PN *       VCPA4       010VISTA          000000000087000000000900000000008700000000000000000000895000000973200
0202LOTE PADRAO                   SID TUBARAO PN *       CSTB4       010VISTA          000000000025000000000254000000002500000000000000000000253000001971200
0202LOTE PADRAO                   BRADESPAR   PN *       BRAP4       010VISTA          000000000000750000000007600000000074000000000000000000007500091475000
0202LOTE PADRAO                   NET         PN         PLIM4       010VISTA          000000000000520000000005300000000051000000000000000000005100000682900
0202LOTE PADRAO                   TELE CTR OESPN * EJ    TCOC4       010VISTA          000000000004600000000047000000000450000000000000000000045000057389200
0202LOTE PADRAO                   TELEMAR N L PNA* EJ    TMAR5       010VISTA          000000000050800000000508000000004960000000000000000000498000031604100
0202LOTE PADRAO                   GERDAU      PN * EJ    GGBR4       010VISTA          000000000028100000000281000000002730000000000000000000278000002637600
0202LOTE PADRAO                   BRASIL      ON *       BBAS3       010VISTA          000000000012300000000129000000001220000000000000000000129000004289800
