00BDIN9999BOVESPA 99992002112820021128
0101IBOVESPA                      0102220101870102920000000000000000002002112800000020021128010239000000
0202LOTE PADRAO                   EMBRATEL PARPN *       EBTP4       010VISTA          000000000002800000000028000000000270000000000000000000028000191728000
0202LOTE PADRAO                   TRAN PAULISTPN * EJ    TRPL4       010VISTA          000000000005200000000053000000000510000000000000000000052000007408700
0202LOTE PADRAO                   EMBRATEL PARON *       EBTP3       010VISTA          000000000003500000000036000000000350000000000000000000035200014737600
0202LOTE PADRAO                   TELEMAR     PN * EJ    TNLP4       010VISTA          000000000025600000000258000000002550000000000000000000257500054851300
0202LOTE PADRAO                   ITAUBANCO   PN * EJ    ITAU4       010VISTA          000000000149000000001490000000014650000000000000000001470000001093800
0202LOTE PADRAO                   TELEMAR     ON * EJ    TNLP3       010VISTA          000000000018600000000188000000001850000000000000000000188000009341900
0202LOTE PADRAO                   SID NACIONALON *       CSNA3       010VISTA          000000000044600000000466000000004460000000000000000000462000007017700
0202LOTE PADRAO                   TELE LEST CLPN *       TLCP4       010VISTA          000000000000430000000004300000000042000000000000000000004300013317300
0202LOTE PADRAO                   CRT CELULAR PNA* EJ    CRTP5       010VISTA          000000000314000000003140000000030700000000000000000003100000000478600
0202LOTE PADRAO                   IPIRANGA PETPN *       PTIP4       010VISTA          000000000007200000000074000000000720000000000000000000072000001094400
0202LOTE PADRAO                   BRASIL T PARPN *       BRTP4       010VISTA          000000000017600000000178000000001730000000000000000000173000013800800
0202LOTE PADRAO                   BRASIL T PARON *       BRTP3       010VISTA          000000000013100000000136000000001310000000000000000000134000002469500
0202LOTE PADRAO                   KLABIN S/A  PN         KLBN4       010VISTA          000000000001000000000010000000000099000000000000000000010000000013000
0202LOTE PADRAO                   ACESITA     PN *       ACES4       010VISTA          000000000000780000000007900000000077000000000000000000007700056042700
0202LOTE PADRAO                   PETROBRAS   PN         PETR4       010VISTA          000000000043100000000432000000004270000000000000000000430000000023500
0202LOTE PADRAO                   ELETROBRAS  PNB*       ELET6       010VISTA          000000000019100000000193000000001890000000000000000000192500016296200
0202LOTE PADRAO                   PETROBRAS   ON         PETR3       010VISTA          000000000046600000000467000000004630000000000000000000463000000003200
0202LOTE PADRAO                   COMGAS      PNA*       CGAS5       010VISTA          000000000054000000000540000000005300000000000000000000530000000523500
0202LOTE PADRAO                   SOUZA CRUZ  ON EJ      CRUZ3       010VISTA          000000000017600000000180000000001740000000000000000000178000000007100
0202LOTE PADRAO                   ELETROBRAS  ON *       ELET3       010VISTA          000000000019500000000200000000001950000000000000000000198000004071200
0202LOTE PADRAO                   CELESC      PNB        CLSC6       010VISTA          000000000000470000000004700000000046000000000000000000004700000143200
0202LOTE PADRAO                   BRADESCO    PN * EJ    BBDC4       010VISTA          000000000009300000000093000000000920000000000000000000093000050908700
0202LOTE PADRAO                   CESP        PN *       CESP4       010VISTA          000000000006400000000071000000000640000000000000000000070000051965600
0202LOTE PADRAO                   LIGHT       ON *       LIGH3       010VISTA          000000000051000000000520000000005100000000000000000000512000000196700
0202LOTE PADRAO                   TELESP CL PAPN *       TSPP4       010VISTA          000000000003800000000039000000000380000000000000000000038000103204000
0202LOTE PADRAO                   VALE R DOCE PNA        VALE5       010VISTA          000000000088700000000900000000008870000000000000000000900000000001500
0202LOTE PADRAO                   COPEL       PNB*       CPLE6       010VISTA          000000000007600000000077500000000750000000000000000000077000103278000
0202LOTE PADRAO                   VALE R DOCE ON         VALE3       010VISTA          000000000096200000000962000000009550000000000000000000962000000006400
0202LOTE PADRAO                   ARACRUZ     PNB        ARCZ6       010VISTA          000000000005800000000059000000000570000000000000000000057000000001700
0202LOTE PADRAO                   TELEMIG PARTPN *       TMCP4       010VISTA          000000000002960000000029600000000280000000000000000000028000020222100
0202LOTE PADRAO                   BRASIL TELECPN *       BRTO4       010VISTA          000000000011100000000112500000001100000000000000000000111000019459500
0202LOTE PADRAO                   SABESP      ON *       SBSP3       010VISTA          000000000078900000000833000000007890000000000000000000820000005169700
0202LOTE PADRAO                   BRASKEM     PNA*       BRKM5       010VISTA          000000000192000000001930000000019110000000000000000001920000000185900
0202LOTE PADRAO                   EMBRAER     PN EJ      EMBR4       010VISTA          000000000013000000000134000000001300000000000000000000132000000019400
0202LOTE PADRAO                   TELESP      PN * EJ    TLPP4       010VISTA          000000000036300000000370000000003540000000000000000000370000002145200
0202LOTE PADRAO                   EMBRAER     ON EJ      EMBR3       010VISTA          000000000011900000000124000000001190000000000000000000120000000006100
0202LOTE PADRAO                   AMBEV       PN *       AMBV4       010VISTA          000000000538900000005425000000053600000000000000000005398000000216400
0202LOTE PADRAO                   USIMINAS    PNA        USIM5       010VISTA          000000000006100000000061000000000590000000000000000000060000000021100
0202LOTE PADRAO                   ELETROPAULO PN *       ELPL4       010VISTA          000000000023300000000235000000002280000000000000000000232000003740500
0202LOTE PADRAO                   TELE NORD CLPN *       TNEP4       010VISTA          000000000002600000000027000000000260000000000000000000026000015546200
0202LOTE PADRAO                   CEMIG       PN * EJ    CMIG4       010VISTA          000000000023100000000235000000002310000000000000000000235000007785200
0202LOTE PADRAO                   TELE CL SUL PN * EJ    TCSL4       010VISTA          000000000002600000000026000000000260000000000000000000026000008985100
0202LOTE PADRAO                   TRACTEBEL   ON *       TBLE3       010VISTA          000000000003100000000032000000000310000000000000000000032000002319400
0202LOTE PADRAO                   CEMIG       ON * EJ    CMIG3       010VISTA          000000000020600000000211000000002060000000000000000000211000000306700
0202LOTE PADRAO                   TELE CL SUL ON * EJ    TCSL3       010VISTA          000000000001980000000020000000000197000000000000000000020000002352300
0202LOTE PADRAO                   ITAUSA      PN         ITSA4       010VISTA          000000000001770000000017800000000176000000000000000000017700000068000
0202LOTE PADRAO                   V C P       PN *       VCPA4       010VISTA          000000000110000000001148000000011000000000000000000001145000000090900
0202LOTE PADRAO                   SID TUBARAO PN *       CSTB4       010VISTA          000000000033800000000341000000003370000000000000000000341000001072200
0202LOTE PADRAO                   BRADESPAR   PN *       BRAP4       010VISTA          000000000000470000000004900000000047000000000000000000004900209443000
0202LOTE PADRAO                   NET         PN         PLIM4       010VISTA          000000000000410000000004400000000040000000000000000000004000001507300
0202LOTE PADRAO                   TELE CTR OESPN * EJ    TCOC4       010VISTA          000000000004500000000047000000000454000000000000000000047000090337000
0202LOTE PADRAO                   TELEMAR N L PNA* EJ    TMAR5       010VISTA          000000000042000000000420000000004140000000000000000000420000005990000
0202LOTE PADRAO                   GERDAU      PN * EJ    GGBR4       010VISTA          000000000031300000000316000000003100000000000000000000316000003327900
0202LOTE PADRAO                   BRASIL      ON *       BBAS3       010VISTA          000000000009900000000099000000000980000000000000000000098000017049600
