00BDIN9999BOVESPA 99992002101120021011
0101IBOVESPA                      0088640088320090420000000000000000002002101100000020021011008855000000
0202LOTE PADRAO                   EMBRATEL PARPN *       EBTP4       010VISTA          000000000002200000000023000000000220000000000000000000023000222296000
0202LOTE PADRAO                   TRAN PAULISTPN * EJ    TRPL4       010VISTA          000000000005000000000051000000000500000000000000000000050000012916300
0202LOTE PADRAO                   EMBRATEL PARON *       EBTP3       010VISTA          000000000002900000000030000000000290000000000000000000029000028780800
0202LOTE PADRAO                   TELEMAR     PN * EJ    TNLP4       010VISTA          000000000021800000000220000000002130000000000000000000216000199433000
0202LOTE PADRAO                   ITAUBANCO   PN * EJ    ITAU4       010VISTA          000000000122000000001264000000012090000000000000000001215000013854600
0202LOTE PADRAO                   TELEMAR     ON * EJ    TNLP3       010VISTA          000000000016900000000169000000001600000000000000000000161000011836700
0202LOTE PADRAO                   SID NACIONALON *       CSNA3       010VISTA          000000000033500000000335000000003250000000000000000000328000006832300
0202LOTE PADRAO                   TELE LEST CLPN *       TLCP4       010VISTA          000000000000390000000004000000000038000000000000000000003900111332000
0202LOTE PADRAO                   CRT CELULAR PNA* EJ    CRTP5       010VISTA          000000000324900000003255000000032200000000000000000003230000000277600
0202LOTE PADRAO                   IPIRANGA PETPN *       PTIP4       010VISTA          000000000008900000000090000000000870000000000000000000090000005123800
0202LOTE PADRAO                   BRASIL T PARPN *       BRTP4       010VISTA          000000000017800000000184000000001760000000000000000000177500044717500
0202LOTE PADRAO                   BRASIL T PARON *       BRTP3       010VISTA          000000000013900000000139000000001320000000000000000000132500004919400
0202LOTE PADRAO                   KLABIN S/A  PN         KLBN4       010VISTA          000000000000910000000009200000000091000000000000000000009100000014500
0202LOTE PADRAO                   ACESITA     PN *       ACES4       010VISTA          000000000000640000000006400000000061000000000000000000006400109700000
0202LOTE PADRAO                   PETROBRAS   PN         PETR4       010VISTA          000000000038900000000392000000003700000000000000000000370000000147800
0202LOTE PADRAO                   ELETROBRAS  PNB*       ELET6       010VISTA          000000000016300000000166000000001590000000000000000000160000041782100
0202LOTE PADRAO                   PETROBRAS   ON         PETR3       010VISTA          000000000042200000000440000000004070000000000000000000408000000067000
0202LOTE PADRAO                   COMGAS      PNA*       CGAS5       010VISTA          000000000059000000000625000000005900000000000000000000614000000586000
0202LOTE PADRAO                   SOUZA CRUZ  ON EJ      CRUZ3       010VISTA          000000000017750000000180000000001760000000000000000000178000000009700
0202LOTE PADRAO                   ELETROBRAS  ON *       ELET3       010VISTA          000000000016600000000166000000001590000000000000000000161000020304400
0202LOTE PADRAO                   CELESC      PNB        CLSC6       010VISTA          000000000000520000000005200000000049000000000000000000005000000144400
0202LOTE PADRAO                   BRADESCO    PN * EJ    BBDC4       010VISTA          000000000008100000000082000000000790000000000000000000080000235902000
0202LOTE PADRAO                   CESP        PN *       CESP4       010VISTA          000000000006200000000064000000000620000000000000000000064000008507900
0202LOTE PADRAO                   LIGHT       ON *       LIGH3       010VISTA          000000000056900000000577000000005650000000000000000000565000000276000
0202LOTE PADRAO                   TELESP CL PAPN *       TSPP4       010VISTA          000000000002900000000029000000000280000000000000000000028000249058000
0202LOTE PADRAO                   VALE R DOCE PNA        VALE5       010VISTA          000000000085000000000852500000008100000000000000000000835000000013600
0202LOTE PADRAO                   COPEL       PNB*       CPLE6       010VISTA          000000000008100000000081000000000780000000000000000000078000029620800
0202LOTE PADRAO                   VALE R DOCE ON         VALE3       010VISTA          000000000087700000000885000000008600000000000000000000860000000008800
0202LOTE PADRAO                   ARACRUZ     PNB        ARCZ6       010VISTA          000000000005600000000057000000000530000000000000000000055000000093300
0202LOTE PADRAO                   TELEMIG PARTPN *       TMCP4       010VISTA          000000000002400000000025000000000240000000000000000000024000079784400
0202LOTE PADRAO                   BRASIL TELECPN *       BRTO4       010VISTA          000000000011500000000115000000001100000000000000000000111000115580000
0202LOTE PADRAO                   SABESP      ON *       SBSP3       010VISTA          000000000082500000000825000000008050000000000000000000815000000922300
0202LOTE PADRAO                   BRASKEM     PNA*       BRKM5       010VISTA          000000000243000000002430000000021000000000000000000002250000000400500
0202LOTE PADRAO                   EMBRAER     PN EJ      EMBR4       010VISTA          000000000013400000000134000000001290000000000000000000130000000038800
0202LOTE PADRAO                   TELESP      PN * EJ    TLPP4       010VISTA          000000000031100000000315000000003050000000000000000000306000003268400
0202LOTE PADRAO                   EMBRAER     ON EJ      EMBR3       010VISTA          000000000012400000000125000000001210000000000000000000121000000007500
0202LOTE PADRAO                   AMBEV       PN *       AMBV4       010VISTA          000000000447000000004535000000044480000000000000000004500000001500600
0202LOTE PADRAO                   USIMINAS    PNA        USIM5       010VISTA          000000000004400000000044000000000420000000000000000000044000000067600
0202LOTE PADRAO                   ELETROPAULO PN *       ELPL4       010VISTA          000000000024400000000244000000002330000000000000000000235000003396400
0202LOTE PADRAO                   TELE NORD CLPN *       TNEP4       010VISTA          000000000002250000000023000000000225000000000000000000022000060207000
0202LOTE PADRAO                   CEMIG       PN * EJ    CMIG4       010VISTA          000000000021400000000218000000002060000000000000000000215000031048300
0202LOTE PADRAO                   TELE CL SUL PN * EJ    TCSL4       010VISTA          000000000002400000000025000000000230000000000000000000024000075409400
0202LOTE PADRAO                   TRACTEBEL   ON *       TBLE3       010VISTA          000000000003900000000040000000000390000000000000000000039000024398400
0202LOTE PADRAO                   CEMIG       ON * EJ    CMIG3       010VISTA          000000000020300000000208000000002000000000000000000000204000000998100
0202LOTE PADRAO                   TELE CL SUL ON * EJ    TCSL3       010VISTA          000000000002000000000020000000000200000000000000000000020000020081800
0202LOTE PADRAO                   ITAUSA      PN         ITSA4       010VISTA          000000000001510000000015400000000150000000000000000000015200000325200
0202LOTE PADRAO                   V C P       PN *       VCPA4       010VISTA          000000000111900000001119000000010570000000000000000001069000000803400
0202LOTE PADRAO                   SID TUBARAO PN *       CSTB4       010VISTA          000000000032000000000329000000003175000000000000000000318000003082500
0202LOTE PADRAO                   BRADESPAR   PN *       BRAP4       010VISTA          000000000000440000000004600000000044000000000000000000004500082772400
0202LOTE PADRAO                   NET         PN         PLIM4       010VISTA          000000000000230000000002400000000022000000000000000000002400000443900
0202LOTE PADRAO                   TELE CTR OESPN * EJ    TCOC4       010VISTA          000000000003100000000033000000000310000000000000000000032000151874000
0202LOTE PADRAO                   TELEMAR N L PNA* EJ    TMAR5       010VISTA          000000000042000000000423000000004070000000000000000000410000015414900
0202LOTE PADRAO                   GERDAU      PN * EJ    GGBR4       010VISTA          000000000030000000000300000000002910000000000000000000293000008618700
0202LOTE PADRAO                   BRASIL      ON *       BBAS3       010VISTA          000000000008900000000093000000000890000000000000000000090000035191100
