00BDIN9999BOVESPA 99992002052220020522
0101IBOVESPA                      0126970123520128450000000000000000002002052200000020020522012368000000
0202LOTE PADRAO                   EMBRATEL PARPN *       EBTP4       010VISTA          000000000004700000000050000000000440000000000000000000044000760390000
0202LOTE PADRAO                   TRAN PAULISTPN * EJ    TRPL4       010VISTA          000000000006000000000060000000000570000000000000000000058000012932200
0202LOTE PADRAO                   EMBRATEL PARON *       EBTP3       010VISTA          000000000006500000000070000000000600000000000000000000060000090719900
0202LOTE PADRAO                   TELEMAR     PN * EJ    TNLP4       010VISTA          000000000030000000000307500000002910000000000000000000293000360646000
0202LOTE PADRAO                   ITAUBANCO   PN * EJ    ITAU4       010VISTA          000000000178000000001793000000017600000000000000000001760000008640100
0202LOTE PADRAO                   TELEMAR     ON * EJ    TNLP3       010VISTA          000000000025600000000260000000002420000000000000000000249000022517800
0202LOTE PADRAO                   SID NACIONALON *       CSNA3       010VISTA          000000000048900000000495000000004730000000000000000000477000016968900
0202LOTE PADRAO                   TELE LEST CLPN *       TLCP4       010VISTA          000000000000680000000006800000000064000000000000000000006400162402000
0202LOTE PADRAO                   CRT CELULAR PNA* EJ    CRTP5       010VISTA          000000000399000000003990000000038000000000000000000003850000000415400
0202LOTE PADRAO                   IPIRANGA PETPN *       PTIP4       010VISTA          000000000013800000000139000000001340000000000000000000136000001686900
0202LOTE PADRAO                   BRASIL T PARPN *       BRTP4       010VISTA          000000000016900000000177000000001660000000000000000000168000044443800
0202LOTE PADRAO                   BRASIL T PARON *       BRTP3       010VISTA          000000000016000000000162000000001510000000000000000000153000014205500
0202LOTE PADRAO                   KLABIN S/A  PN         KLBN4       010VISTA          000000000001000000000011000000000100000000000000000000011000000030400
0202LOTE PADRAO                   ACESITA     PN *       ACES4       010VISTA          000000000000670000000006700000000062000000000000000000006300345641000
0202LOTE PADRAO                   PETROBRAS   PN         PETR4       010VISTA          000000000055300000000558000000005510000000000000000000552000000091100
0202LOTE PADRAO                   ELETROBRAS  PNB*       ELET6       010VISTA          000000000030700000000308000000002880000000000000000000288000050110200
0202LOTE PADRAO                   PETROBRAS   ON         PETR3       010VISTA          000000000058500000000596000000005820000000000000000000590000000055600
0202LOTE PADRAO                   COMGAS      PNA*       CGAS5       010VISTA          000000000073500000000739000000007020000000000000000000720000002288900
0202LOTE PADRAO                   SOUZA CRUZ  ON EJ      CRUZ3       010VISTA          000000000016100000000161000000001550000000000000000000156000000014100
0202LOTE PADRAO                   ELETROBRAS  ON *       ELET3       010VISTA          000000000035000000000351000000003280000000000000000000328000024628800
0202LOTE PADRAO                   CELESC      PNB        CLSC6       010VISTA          000000000000540000000005600000000053000000000000000000005500000569900
0202LOTE PADRAO                   BRADESCO    PN * EJ    BBDC4       010VISTA          000000000012800000000130000000001250000000000000000000125000112292000
0202LOTE PADRAO                   CESP        PN *       CESP4       010VISTA          000000000011250000000112500000001030000000000000000000103000013128000
0202LOTE PADRAO                   LIGHT       ON *       LIGH3       010VISTA          000000000096900000000969000000009350000000000000000000935000000505500
0202LOTE PADRAO                   TELESP CL PAPN *       TSPP4       010VISTA          000000000005700000000058000000000530000000000000000000054000226799000
0202LOTE PADRAO                   VALE R DOCE PNA        VALE5       010VISTA          000000000069700000000705000000006930000000000000000000701000000047900
0202LOTE PADRAO                   COPEL       PNB*       CPLE6       010VISTA          000000000014800000000149000000001430000000000000000000145000025312300
0202LOTE PADRAO                   VALE R DOCE ON         VALE3       010VISTA          000000000069700000000707000000006970000000000000000000705000000026000
0202LOTE PADRAO                   ARACRUZ     PNB        ARCZ6       010VISTA          000000000005500000000056000000000550000000000000000000056000000020000
0202LOTE PADRAO                   TELEMIG PARTPN *       TMCP4       010VISTA          000000000002800000000028000000000270000000000000000000027000159130000
0202LOTE PADRAO                   BRASIL TELECPN *       BRTO4       010VISTA          000000000011900000000123000000001180000000000000000000118000125387000
0202LOTE PADRAO                   SABESP      ON *       SBSP3       010VISTA          000000000116500000001167000000011170000000000000000001117000007022900
0202LOTE PADRAO                   BRASKEM     PNA*       BRKM5       010VISTA          000000000459000000004709000000044500000000000000000004455000000242500
0202LOTE PADRAO                   EMBRAER     PN EJ      EMBR4       010VISTA          000000000014300000000144000000001410000000000000000000143000000068500
0202LOTE PADRAO                   TELESP      PN * EJ    TLPP4       010VISTA          000000000033600000000337500000003230000000000000000000325000011542000
0202LOTE PADRAO                   EMBRAER     ON EJ      EMBR3       010VISTA          000000000012900000000129000000001250000000000000000000127000000015100
0202LOTE PADRAO                   AMBEV       PN *       AMBV4       010VISTA          000000000473000000004780000000047300000000000000000004764000001142400
0202LOTE PADRAO                   USIMINAS    PNA        USIM5       010VISTA          000000000007600000000076000000000710000000000000000000071000000041600
0202LOTE PADRAO                   ELETROPAULO PN *       ELPL4       010VISTA          000000000054200000000542000000005100000000000000000000510000003578200
0202LOTE PADRAO                   TELE NORD CLPN *       TNEP4       010VISTA          000000000002500000000026000000000230000000000000000000023000146610000
0202LOTE PADRAO                   CEMIG       PN * EJ    CMIG4       010VISTA          000000000033100000000336000000003230000000000000000000330000028225800
0202LOTE PADRAO                   TELE CL SUL PN * EJ    TCSL4       010VISTA          000000000003100000000031000000000290000000000000000000030000138365000
0202LOTE PADRAO                   TRACTEBEL   ON *       TBLE3       010VISTA          000000000004100000000041000000000390000000000000000000039000020580000
0202LOTE PADRAO                   CEMIG       ON * EJ    CMIG3       010VISTA          000000000031000000000310000000002960000000000000000000298000001437600
0202LOTE PADRAO                   TELE CL SUL ON * EJ    TCSL3       010VISTA          000000000002690000000027500000000240000000000000000000025000049731800
0202LOTE PADRAO                   ITAUSA      PN         ITSA4       010VISTA          000000000002100000000021000000000210000000000000000000021000000453200
0202LOTE PADRAO                   V C P       PN *       VCPA4       010VISTA          000000000097500000000990000000009720000000000000000000986000002824100
0202LOTE PADRAO                   SID TUBARAO PN *       CSTB4       010VISTA          000000000028900000000290000000002830000000000000000000289000006355400
0202LOTE PADRAO                   BRADESPAR   PN *       BRAP4       010VISTA          000000000000620000000006300000000060000000000000000000006100187235000
0202LOTE PADRAO                   NET         PN         PLIM4       010VISTA          000000000000350000000003600000000033000000000000000000003300002110600
0202LOTE PADRAO                   TELE CTR OESPN * EJ    TCOC4       010VISTA          000000000004500000000045000000000420000000000000000000042000156978000
0202LOTE PADRAO                   TELEMAR N L PNA* EJ    TMAR5       010VISTA          000000000051600000000522000000004970000000000000000000497000016299000
0202LOTE PADRAO                   GERDAU      PN * EJ    GGBR4       010VISTA          000000000032000000000320000000003150000000000000000000317000014602700
0202LOTE PADRAO                   BRASIL      ON *       BBAS3       010VISTA          000000000012500000000127000000001200000000000000000000120000005728600
