00BDIN9999BOVESPA 99992002121620021216
0101IBOVESPA                      0106200106110107980000000000000000002002121600000020021216010771000000
0202LOTE PADRAO                   EMBRATEL PARPN *       EBTP4       010VISTA          000000000003200000000035000000000320000000000000000000034000401320000
0202LOTE PADRAO                   TRAN PAULISTPN * EJ    TRPL4       010VISTA          000000000005300000000054000000000520000000000000000000054000017893500
0202LOTE PADRAO                   EMBRATEL PARON *       EBTP3       010VISTA          000000000003900000000041000000000390000000000000000000040000078243300
0202LOTE PADRAO                   TELEMAR     PN * EJ    TNLP4       010VISTA          000000000026600000000273000000002660000000000000000000273000414593000
0202LOTE PADRAO                   ITAUBANCO   PN * EJ    ITAU4       010VISTA          000000000154000000001590000000015340000000000000000001560000020563500
0202LOTE PADRAO                   TELEMAR     ON * EJ    TNLP3       010VISTA          000000000019250000000195000000001900000000000000000000195000017390000
0202LOTE PADRAO                   SID NACIONALON *       CSNA3       010VISTA          000000000052500000000527000000005150000000000000000000525000008278100
0202LOTE PADRAO                   TELE LEST CLPN *       TLCP4       010VISTA          000000000000440000000004700000000043000000000000000000004700441040000
0202LOTE PADRAO                   CRT CELULAR PNA* EJ    CRTP5       010VISTA          000000000305000000003080000000030200000000000000000003040000001057300
0202LOTE PADRAO                   IPIRANGA PETPN *       PTIP4       010VISTA          000000000007200000000073000000000720000000000000000000073000001672200
0202LOTE PADRAO                   BRASIL T PARPN *       BRTP4       010VISTA          000000000017750000000179000000001760000000000000000000177500042908000
0202LOTE PADRAO                   BRASIL T PARON *       BRTP3       010VISTA          000000000014200000000142000000001390000000000000000000140000006436300
0202LOTE PADRAO                   KLABIN S/A  PN         KLBN4       010VISTA          000000000000980000000010000000000097000000000000000000010000000034700
0202LOTE PADRAO                   ACESITA     PN *       ACES4       010VISTA          000000000000950000000009800000000094000000000000000000009500317607000
0202LOTE PADRAO                   PETROBRAS   PN         PETR4       010VISTA          000000000045300000000455000000004480000000000000000000450000000167700
0202LOTE PADRAO                   ELETROBRAS  PNB*       ELET6       010VISTA          000000000019800000000206000000001980000000000000000000206000057118500
0202LOTE PADRAO                   PETROBRAS   ON         PETR3       010VISTA          000000000050000000000505000000004930000000000000000000500000000017500
0202LOTE PADRAO                   COMGAS      PNA*       CGAS5       010VISTA          000000000050000000000500000000004950000000000000000000497000001291000
0202LOTE PADRAO                   SOUZA CRUZ  ON EJ      CRUZ3       010VISTA          000000000018000000000181000000001780000000000000000000178000000019600
0202LOTE PADRAO                   ELETROBRAS  ON *       ELET3       010VISTA          000000000020200000000216000000002020000000000000000000212000024148600
0202LOTE PADRAO                   CELESC      PNB        CLSC6       010VISTA          000000000000490000000005100000000049000000000000000000005100000303200
0202LOTE PADRAO                   BRADESCO    PN * EJ    BBDC4       010VISTA          000000000009500000000097000000000950000000000000000000096000211507000
0202LOTE PADRAO                   CESP        PN *       CESP4       010VISTA          000000000006800000000069000000000670000000000000000000069000009450500
0202LOTE PADRAO                   LIGHT       ON *       LIGH3       010VISTA          000000000048000000000480000000004570000000000000000000478000000296100
0202LOTE PADRAO                   TELESP CL PAPN *       TSPP4       010VISTA          000000000003800000000039400000000380000000000000000000038000408374000
0202LOTE PADRAO                   VALE R DOCE PNA        VALE5       010VISTA          000000000098000000000984000000009620000000000000000000975000000014100
0202LOTE PADRAO                   COPEL       PNB*       CPLE6       010VISTA          000000000007900000000080000000000780000000000000000000079000083542000
0202LOTE PADRAO                   VALE R DOCE ON         VALE3       010VISTA          000000000105000000001085000000010240000000000000000001034000000004200
0202LOTE PADRAO                   ARACRUZ     PNB        ARCZ6       010VISTA          000000000006300000000063000000000600000000000000000000063000000021200
0202LOTE PADRAO                   TELEMIG PARTPN *       TMCP4       010VISTA          000000000002900000000029000000000280000000000000000000028000104801000
0202LOTE PADRAO                   BRASIL TELECPN *       BRTO4       010VISTA          000000000011400000000116000000001140000000000000000000114000104060000
0202LOTE PADRAO                   SABESP      ON *       SBSP3       010VISTA          000000000081300000000813000000007970000000000000000000797000003546100
0202LOTE PADRAO                   BRASKEM     PNA*       BRKM5       010VISTA          000000000207000000002070000000020400000000000000000002040000000293600
0202LOTE PADRAO                   EMBRAER     PN EJ      EMBR4       010VISTA          000000000013700000000139000000001360000000000000000000137000000054400
0202LOTE PADRAO                   TELESP      PN * EJ    TLPP4       010VISTA          000000000036500000000369000000003580000000000000000000367000005998300
0202LOTE PADRAO                   EMBRAER     ON EJ      EMBR3       010VISTA          000000000012600000000127500000001250000000000000000000126000000011200
0202LOTE PADRAO                   AMBEV       PN *       AMBV4       010VISTA          000000000555000000005550000000053100000000000000000005400000001067100
0202LOTE PADRAO                   USIMINAS    PNA        USIM5       010VISTA          000000000006100000000062000000000580000000000000000000058000000099800
0202LOTE PADRAO                   ELETROPAULO PN *       ELPL4       010VISTA          000000000024400000000259000000002410000000000000000000257500007922300
0202LOTE PADRAO                   TELE NORD CLPN *       TNEP4       010VISTA          000000000002770000000028100000000270000000000000000000027500080477200
0202LOTE PADRAO                   CEMIG       PN * EJ    CMIG4       010VISTA          000000000023700000000244000000002360000000000000000000241000071103800
0202LOTE PADRAO                   TELE CL SUL PN * EJ    TCSL4       010VISTA          000000000002710000000027700000000260000000000000000000026000102801000
0202LOTE PADRAO                   TRACTEBEL   ON *       TBLE3       010VISTA          000000000003600000000036000000000352000000000000000000036000040517600
0202LOTE PADRAO                   CEMIG       ON * EJ    CMIG3       010VISTA          000000000021600000000220000000002160000000000000000000219000000930400
0202LOTE PADRAO                   TELE CL SUL ON * EJ    TCSL3       010VISTA          000000000001960000000019900000000194000000000000000000019500020505800
0202LOTE PADRAO                   ITAUSA      PN         ITSA4       010VISTA          000000000001800000000018000000000180000000000000000000018100000304600
0202LOTE PADRAO                   V C P       PN *       VCPA4       010VISTA          000000000118000000001189000000011500000000000000000001189000001828900
0202LOTE PADRAO                   SID TUBARAO PN *       CSTB4       010VISTA          000000000037100000000383000000003710000000000000000000378000011018400
0202LOTE PADRAO                   BRADESPAR   PN *       BRAP4       010VISTA          000000000000570000000005700000000053000000000000000000005300905537000
0202LOTE PADRAO                   NET         PN         PLIM4       010VISTA          000000000000400000000004200000000039000000000000000000004200002376900
0202LOTE PADRAO                   TELE CTR OESPN * EJ    TCOC4       010VISTA          000000000004750000000047500000000450000000000000000000047000236679000
0202LOTE PADRAO                   TELEMAR N L PNA* EJ    TMAR5       010VISTA          000000000042750000000448000000004275000000000000000000442000040629700
0202LOTE PADRAO                   GERDAU      PN * EJ    GGBR4       010VISTA          000000000033000000000337000000003270000000000000000000332000014988900
0202LOTE PADRAO                   BRASIL      ON *       BBAS3       010VISTA          000000000010000000000100000000000980000000000000000000099000066833700
