00BDIN9999BOVESPA 99992002040420020404
0101IBOVESPA                      0130900130410133700000000000000000002002040400000020020404013360000000
0202LOTE PADRAO                   EMBRATEL PARPN *       EBTP4       010VISTA          000000000007000000000072000000000700000000000000000000071000180499000
0202LOTE PADRAO                   TRAN PAULISTPN * EJ    TRPL4       010VISTA          000000000007200000000074000000000720000000000000000000074000005330500
0202LOTE PADRAO                   EMBRATEL PARON *       EBTP3       010VISTA          000000000008750000000089000000000820000000000000000000087000019372800
0202LOTE PADRAO                   TELEMAR     PN * EJ    TNLP4       010VISTA          000000000029600000000301000000002920000000000000000000301000267140000
0202LOTE PADRAO                   ITAUBANCO   PN * EJ    ITAU4       010VISTA          000000000182000000001830000000018000000000000000000001830000021672000
0202LOTE PADRAO                   TELEMAR     ON * EJ    TNLP3       010VISTA          000000000025900000000263000000002560000000000000000000263000013554900
0202LOTE PADRAO                   SID NACIONALON *       CSNA3       010VISTA          000000000042300000000447000000004230000000000000000000447000014802500
0202LOTE PADRAO                   TELE LEST CLPN *       TLCP4       010VISTA          000000000000770000000008100000000076000000000000000000008100060690600
0202LOTE PADRAO                   CRT CELULAR PNA* EJ    CRTP5       010VISTA          000000000443800000004600000000043700000000000000000004600000000229000
0202LOTE PADRAO                   IPIRANGA PETPN *       PTIP4       010VISTA          000000000013750000000149000000001375000000000000000000148000001557900
0202LOTE PADRAO                   BRASIL T PARPN *       BRTP4       010VISTA          000000000017500000000182500000001740000000000000000000182500053806000
0202LOTE PADRAO                   BRASIL T PARON *       BRTP3       010VISTA          000000000017100000000182000000001710000000000000000000182000004680900
0202LOTE PADRAO                   KLABIN S/A  PN         KLBN4       010VISTA          000000000001100000000011000000000110000000000000000000011000000024500
0202LOTE PADRAO                   ACESITA     PN *       ACES4       010VISTA          000000000000740000000007600000000074000000000000000000007500048599900
0202LOTE PADRAO                   PETROBRAS   PN         PETR4       010VISTA          000000000057400000000587000000005740000000000000000000580000000084800
0202LOTE PADRAO                   ELETROBRAS  PNB*       ELET6       010VISTA          000000000034100000000356000000003410000000000000000000355000020039000
0202LOTE PADRAO                   PETROBRAS   ON         PETR3       010VISTA          000000000060800000000620000000006070000000000000000000610000000025800
0202LOTE PADRAO                   COMGAS      PNA*       CGAS5       010VISTA          000000000079000000000800000000007700000000000000000000799000001002000
0202LOTE PADRAO                   SOUZA CRUZ  ON EJ      CRUZ3       010VISTA          000000000015300000000153000000001510000000000000000000153000000007400
0202LOTE PADRAO                   ELETROBRAS  ON *       ELET3       010VISTA          000000000038300000000399000000003830000000000000000000396000009587200
0202LOTE PADRAO                   CELESC      PNB        CLSC6       010VISTA          000000000000550000000005700000000055000000000000000000005700000090300
0202LOTE PADRAO                   BRADESCO    PN * EJ    BBDC4       010VISTA          000000000014100000000145000000001400000000000000000000145000192492000
0202LOTE PADRAO                   CESP        PN *       CESP4       010VISTA          000000000013800000000139000000001310000000000000000000139000009704000
0202LOTE PADRAO                   LIGHT       ON *       LIGH3       010VISTA          000000000098000000001010000000009600000000000000000000980000001888000
0202LOTE PADRAO                   TELESP CL PAPN *       TSPP4       010VISTA          000000000005400000000057000000000540000000000000000000057000099464800
0202LOTE PADRAO                   VALE R DOCE PNA        VALE5       010VISTA          000000000059700000000615000000005970000000000000000000605000000025000
0202LOTE PADRAO                   COPEL       PNB*       CPLE6       010VISTA          000000000017200000000180000000001720000000000000000000179000013372600
0202LOTE PADRAO                   VALE R DOCE ON         VALE3       010VISTA          000000000061200000000625000000006120000000000000000000625000000018300
0202LOTE PADRAO                   ARACRUZ     PNB        ARCZ6       010VISTA          000000000004600000000047000000000460000000000000000000047000000040900
0202LOTE PADRAO                   TELEMIG PARTPN *       TMCP4       010VISTA          000000000003100000000032000000000310000000000000000000031000051356000
0202LOTE PADRAO                   BRASIL TELECPN *       BRTO4       010VISTA          000000000012500000000133000000001250000000000000000000131000052477200
0202LOTE PADRAO                   SABESP      ON *       SBSP3       010VISTA          000000000131000000001371000000013100000000000000000001360000003210100
0202LOTE PADRAO                   BRASKEM     PNA*       BRKM5       010VISTA          000000000515500000005260000000051550000000000000000005260000000102100
0202LOTE PADRAO                   EMBRAER     PN EJ      EMBR4       010VISTA          000000000011800000000119000000001140000000000000000000115000000099300
0202LOTE PADRAO                   TELESP      PN * EJ    TLPP4       010VISTA          000000000033500000000348000000003310000000000000000000348000004470700
0202LOTE PADRAO                   EMBRAER     ON EJ      EMBR3       010VISTA          000000000011000000000112000000001080000000000000000000110000000013400
0202LOTE PADRAO                   AMBEV       PN *       AMBV4       010VISTA          000000000447100000004539000000044700000000000000000004520000000978100
0202LOTE PADRAO                   USIMINAS    PNA        USIM5       010VISTA          000000000007300000000075000000000730000000000000000000075000000017700
0202LOTE PADRAO                   ELETROPAULO PN *       ELPL4       010VISTA          000000000064600000000670000000006460000000000000000000665000001580200
0202LOTE PADRAO                   TELE NORD CLPN *       TNEP4       010VISTA          000000000002600000000027000000000250000000000000000000027000290428000
0202LOTE PADRAO                   CEMIG       PN * EJ    CMIG4       010VISTA          000000000033800000000357000000003370000000000000000000357000034941700
0202LOTE PADRAO                   TELE CL SUL PN * EJ    TCSL4       010VISTA          000000000003000000000031000000000300000000000000000000030000072389900
0202LOTE PADRAO                   TRACTEBEL   ON *       TBLE3       010VISTA          000000000004000000000042000000000400000000000000000000042000013843300
0202LOTE PADRAO                   CEMIG       ON * EJ    CMIG3       010VISTA          000000000031300000000327500000003130000000000000000000318000000853800
0202LOTE PADRAO                   TELE CL SUL ON * EJ    TCSL3       010VISTA          000000000002600000000027300000000250000000000000000000027000016890700
0202LOTE PADRAO                   ITAUSA      PN         ITSA4       010VISTA          000000000002300000000023000000000230000000000000000000023000000407300
0202LOTE PADRAO                   V C P       PN *       VCPA4       010VISTA          000000000089600000000897000000008900000000000000000000890000000489400
0202LOTE PADRAO                   SID TUBARAO PN *       CSTB4       010VISTA          000000000025300000000263000000002480000000000000000000260000004962000
0202LOTE PADRAO                   BRADESPAR   PN *       BRAP4       010VISTA          000000000000730000000007500000000072000000000000000000007500105990000
0202LOTE PADRAO                   NET         PN         PLIM4       010VISTA          000000000000490000000005200000000049000000000000000000005100001268200
0202LOTE PADRAO                   TELE CTR OESPN * EJ    TCOC4       010VISTA          000000000004600000000047500000000460000000000000000000047500080442500
0202LOTE PADRAO                   TELEMAR N L PNA* EJ    TMAR5       010VISTA          000000000051700000000524000000005120000000000000000000524000014109100
0202LOTE PADRAO                   GERDAU      PN * EJ    GGBR4       010VISTA          000000000026900000000289000000002690000000000000000000283000008508800
0202LOTE PADRAO                   BRASIL      ON *       BBAS3       010VISTA          000000000011900000000128000000001175000000000000000000126000005431500
