00BDIN9999BOVESPA 99992002080820020808
0101IBOVESPA                      0099110099110104200000000000000000002002080800000020020808010316000000
0202LOTE PADRAO                   EMBRATEL PARPN *       EBTP4       010VISTA          000000000001790000000018000000000175000000000000000000017600394372000
0202LOTE PADRAO                   EMBRATEL PARON *       EBTP3       010VISTA          000000000002700000000027000000000240000000000000000000024000035632500
0202LOTE PADRAO                   TRAN PAULISTPN * EJ    TRPL4       010VISTA          000000000005750000000058000000000571000000000000000000057900016344700
0202LOTE PADRAO                   ITAUBANCO   PN * EJ    ITAU4       010VISTA          000000000154000000001582000000014900000000000000000001490000034306500
0202LOTE PADRAO                   TELEMAR     ON * EJ    TNLP3       010VISTA          000000000019000000000195000000001850000000000000000000186000049386800
0202LOTE PADRAO                   SID NACIONALON *       CSNA3       010VISTA          000000000040000000000419000000003950000000000000000000415000055537600
0202LOTE PADRAO                   TELE LEST CLPN *       TLCP4       010VISTA          000000000000380000000004200000000038000000000000000000004000832133000
0202LOTE PADRAO                   CRT CELULAR PNA* EJ    CRTP5       010VISTA          000000000401100000004100000000038500000000000000000003970000000507300
0202LOTE PADRAO                   IPIRANGA PETPN *       PTIP4       010VISTA          000000000012000000000122000000001180000000000000000000122500001978300
0202LOTE PADRAO                   BRASIL T PARPN *       BRTP4       010VISTA          000000000016800000000180000000001680000000000000000000176000294900000
0202LOTE PADRAO                   BRASIL T PARON *       BRTP3       010VISTA          000000000012500000000133000000001240000000000000000000129000028910200
0202LOTE PADRAO                   KLABIN S/A  PN         KLBN4       010VISTA          000000000000970000000009800000000094000000000000000000009600000046300
0202LOTE PADRAO                   ACESITA     PN *       ACES4       010VISTA          000000000000690000000007300000000069000000000000000000007100163537000
0202LOTE PADRAO                   PETROBRAS   PN         PETR4       010VISTA          000000000043500000000446000000004270000000000000000000441000000190500
0202LOTE PADRAO                   ELETROBRAS  PNB*       ELET6       010VISTA          000000000022800000000238000000002260000000000000000000235000135680000
0202LOTE PADRAO                   PETROBRAS   ON         PETR3       010VISTA          000000000048100000000498000000004550000000000000000000487000000089400
0202LOTE PADRAO                   COMGAS      PNA*       CGAS5       010VISTA          000000000050100000000515000000004930000000000000000000507000003155500
0202LOTE PADRAO                   SOUZA CRUZ  ON EJ      CRUZ3       010VISTA          000000000014600000000146000000001410000000000000000000144000000043100
0202LOTE PADRAO                   ELETROBRAS  ON *       ELET3       010VISTA          000000000025000000000253000000002400000000000000000000248000009768700
0202LOTE PADRAO                   CELESC      PNB        CLSC6       010VISTA          000000000000580000000005900000000056000000000000000000005800000659700
0202LOTE PADRAO                   BRADESCO    PN * EJ    BBDC4       010VISTA          000000000010300000000106000000001030000000000000000000104000727223000
0202LOTE PADRAO                   CESP        PN *       CESP4       010VISTA          000000000007600000000079000000000760000000000000000000079000024016000
0202LOTE PADRAO                   LIGHT       ON *       LIGH3       010VISTA          000000000082000000000870000000008200000000000000000000830000000811700
0202LOTE PADRAO                   TELESP CL PAPN *       TSPP4       010VISTA          000000000003600000000036000000000350000000000000000000035000976437000
0202LOTE PADRAO                   VALE R DOCE PNA        VALE5       010VISTA          000000000070500000000709000000006800000000000000000000690000000048900
0202LOTE PADRAO                   COPEL       PNB*       CPLE6       010VISTA          000000000011700000000119000000001130000000000000000000113000080085000
0202LOTE PADRAO                   VALE R DOCE ON         VALE3       010VISTA          000000000076000000000760000000007300000000000000000000747000000024200
0202LOTE PADRAO                   ARACRUZ     PNB        ARCZ6       010VISTA          000000000005790000000057900000000520000000000000000000054000000086800
0202LOTE PADRAO                   TELEMIG PARTPN *       TMCP4       010VISTA          000000000003200000000033000000000320000000000000000000033000297866000
0202LOTE PADRAO                   BRASIL TELECPN *       BRTO4       010VISTA          000000000011300000000116000000001110000000000000000000115000192498000
0202LOTE PADRAO                   SABESP      ON *       SBSP3       010VISTA          000000000095000000000970000000009100000000000000000000912000009578100
0202LOTE PADRAO                   BRASKEM     PNA*       BRKM5       010VISTA          000000000379700000003797000000036200000000000000000003650000000297400
0202LOTE PADRAO                   EMBRAER     PN EJ      EMBR4       010VISTA          000000000014600000000146000000001390000000000000000000141000000101000
0202LOTE PADRAO                   TELESP      PN * EJ    TLPP4       010VISTA          000000000033500000000350000000003310000000000000000000331000013353400
0202LOTE PADRAO                   EMBRAER     ON EJ      EMBR3       010VISTA          000000000013600000000136000000001290000000000000000000131000000015100
0202LOTE PADRAO                   AMBEV       PN *       AMBV4       010VISTA          000000000420000000004360000000041530000000000000000004349000006876400
0202LOTE PADRAO                   USIMINAS    PNA        USIM5       010VISTA          000000000005800000000060000000000580000000000000000000060000000185300
0202LOTE PADRAO                   ELETROPAULO PN *       ELPL4       010VISTA          000000000031800000000345000000003140000000000000000000342000011571900
0202LOTE PADRAO                   TELE NORD CLPN *       TNEP4       010VISTA          000000000002750000000027000000000271000000000000000000027500155349000
0202LOTE PADRAO                   CEMIG       PN * EJ    CMIG4       010VISTA          000000000028600000000296000000002860000000000000000000295000091214300
0202LOTE PADRAO                   TELE CL SUL PN * EJ    TCSL4       010VISTA          000000000002900000000030000000000280000000000000000000028000146953000
0202LOTE PADRAO                   TRACTEBEL   ON *       TBLE3       010VISTA          000000000004400000000044000000000410000000000000000000042000007287600
0202LOTE PADRAO                   CEMIG       ON * EJ    CMIG3       010VISTA          000000000025100000000257500000002480000000000000000000253000001946000
0202LOTE PADRAO                   TELE CL SUL ON * EJ    TCSL3       010VISTA          000000000002500000000025000000000240000000000000000000024000011788000
0202LOTE PADRAO                   ITAUSA      PN         ITSA4       010VISTA          000000000001800000000018000000000180000000000000000000018000000732700
0202LOTE PADRAO                   V C P       PN *       VCPA4       010VISTA          000000000098000000001020000000009690000000000000000001000000008940100
0202LOTE PADRAO                   SID TUBARAO PN *       CSTB4       010VISTA          000000000028500000000285000000002600000000000000000000260000012931400
0202LOTE PADRAO                   BRADESPAR   PN *       BRAP4       010VISTA          000000000000510000000005200000000050000000000000000000005000197907000
0202LOTE PADRAO                   NET         PN         PLIM4       010VISTA          000000000000640000000006400000000043000000000000000000004500000882700
0202LOTE PADRAO                   TELE CTR OESPN * EJ    TCOC4       010VISTA          000000000003960000000040000000000380000000000000000000038000173315000
0202LOTE PADRAO                   TELEMAR N L PNA* EJ    TMAR5       010VISTA          000000000044100000000460000000004380000000000000000000446000028097600
0202LOTE PADRAO                   GERDAU      PN * EJ    GGBR4       010VISTA          000000000030000000000301000000002900000000000000000000290000030684800
0202LOTE PADRAO                   BRASIL      ON *       BBAS3       010VISTA          000000000009700000000098000000000960000000000000000000096000006059200
