00BDIN9999BOVESPA 99992002030120020301
0101IBOVESPA                      0140470139780143550000000000000000002002030100000020020301014343000000
0202LOTE PADRAO                   EMBRATEL PARPN *       EBTP4       010VISTA          000000000008800000000091000000000870000000000000000000090000148342000
0202LOTE PADRAO                   EMBRATEL PARON *       EBTP3       010VISTA          000000000010700000000111000000001050000000000000000000111000028581000
0202LOTE PADRAO                   TRAN PAULISTPN * EJ    TRPL4       010VISTA          000000000007600000000079000000000760000000000000000000079000016972900
0202LOTE PADRAO                   TELEMAR     PN * EJ    TNLP4       010VISTA          000000000035800000000363000000003530000000000000000000363000295520000
0202LOTE PADRAO                   ITAUBANCO   PN * EJ    ITAU4       010VISTA          000000000201000000002020000000019540000000000000000002000000012421000
0202LOTE PADRAO                   TELEMAR     ON * EJ    TNLP3       010VISTA          000000000030800000000315000000003080000000000000000000313000015571500
0202LOTE PADRAO                   SID NACIONALON *       CSNA3       010VISTA          000000000043000000000440000000004260000000000000000000430000024206400
0202LOTE PADRAO                   TELE LEST CLPN *       TLCP4       010VISTA          000000000000850000000009000000000085000000000000000000009000124648000
0202LOTE PADRAO                   CRT CELULAR PNA* EJ    CRTP5       010VISTA          000000000463000000004800000000046300000000000000000004800000000449900
0202LOTE PADRAO                   IPIRANGA PETPN *       PTIP4       010VISTA          000000000013500000000148000000001350000000000000000000148000004656400
0202LOTE PADRAO                   BRASIL T PARPN *       BRTP4       010VISTA          000000000019000000000196000000001880000000000000000000196000081214600
0202LOTE PADRAO                   BRASIL T PARON *       BRTP3       010VISTA          000000000018800000000196000000001860000000000000000000196000011013500
0202LOTE PADRAO                   KLABIN S/A  PN         KLBN4       010VISTA          000000000001250000000013000000000125000000000000000000013000000146800
0202LOTE PADRAO                   ACESITA     PN *       ACES4       010VISTA          000000000000730000000007400000000072000000000000000000007400170615000
0202LOTE PADRAO                   PETROBRAS   PN         PETR4       010VISTA          000000000056300000000580000000005630000000000000000000578000000155600
0202LOTE PADRAO                   ELETROBRAS  PNB*       ELET6       010VISTA          000000000036500000000365000000003520000000000000000000362000024487000
0202LOTE PADRAO                   PETROBRAS   ON         PETR3       010VISTA          000000000058200000000605000000005820000000000000000000602000000093300
0202LOTE PADRAO                   COMGAS      PNA*       CGAS5       010VISTA          000000000091900000000930000000009040000000000000000000930000001104100
0202LOTE PADRAO                   SOUZA CRUZ  ON EJ      CRUZ3       010VISTA          000000000015500000000158000000001540000000000000000000157000000022100
0202LOTE PADRAO                   ELETROBRAS  ON *       ELET3       010VISTA          000000000042000000000420000000004120000000000000000000417000009067800
0202LOTE PADRAO                   CELESC      PNB        CLSC6       010VISTA          000000000000580000000005800000000057000000000000000000005800000155000
0202LOTE PADRAO                   BRADESCO    PN * EJ    BBDC4       010VISTA          000000000013800000000139000000001360000000000000000000139000211386000
0202LOTE PADRAO                   CESP        PN *       CESP4       010VISTA          000000000015500000000159000000001550000000000000000000157000008148000
0202LOTE PADRAO                   LIGHT       ON *       LIGH3       010VISTA          000000000122600000001250000000012250000000000000000001249000000687000
0202LOTE PADRAO                   TELESP CL PAPN *       TSPP4       010VISTA          000000000007500000000077900000000740000000000000000000077000289730000
0202LOTE PADRAO                   VALE R DOCE PNA        VALE5       010VISTA          000000000060750000000616000000006000000000000000000000616000000050600
0202LOTE PADRAO                   COPEL       PNB*       CPLE6       010VISTA          000000000018250000000188000000001825000000000000000000188000035086300
0202LOTE PADRAO                   VALE R DOCE ON         VALE3       010VISTA          000000000062500000000640000000006250000000000000000000637000000018500
0202LOTE PADRAO                   ARACRUZ     PNB        ARCZ6       010VISTA          000000000004900000000050000000000470000000000000000000050000000075700
0202LOTE PADRAO                   TELEMIG PARTPN *       TMCP4       010VISTA          000000000003700000000038000000000360000000000000000000037000222640000
0202LOTE PADRAO                   BRASIL TELECPN *       BRTO4       010VISTA          000000000013800000000141000000001360000000000000000000141000056696900
0202LOTE PADRAO                   SABESP      ON *       SBSP3       010VISTA          000000000131400000001358000000013140000000000000000001358000001076500
0202LOTE PADRAO                   BRASKEM     PNA*       BRKM5       010VISTA          000000000526000000005650000000052600000000000000000005500000000228500
0202LOTE PADRAO                   EMBRAER     PN EJ      EMBR4       010VISTA          000000000013000000000135000000001280000000000000000000135000000264900
0202LOTE PADRAO                   TELESP      PN * EJ    TLPP4       010VISTA          000000000032800000000345000000003280000000000000000000345000006879600
0202LOTE PADRAO                   EMBRAER     ON EJ      EMBR3       010VISTA          000000000012500000000130000000001230000000000000000000130000000039000
0202LOTE PADRAO                   AMBEV       PN *       AMBV4       010VISTA          000000000478500000004785000000047200000000000000000004780000002307200
0202LOTE PADRAO                   USIMINAS    PNA        USIM5       010VISTA          000000000007960000000080000000000754000000000000000000080000000182600
0202LOTE PADRAO                   ELETROPAULO PN *       ELPL4       010VISTA          000000000066500000000677000000006550000000000000000000670000003545400
0202LOTE PADRAO                   TELE NORD CLPN *       TNEP4       010VISTA          000000000003000000000031000000000300000000000000000000031000157260000
0202LOTE PADRAO                   CEMIG       PN * EJ    CMIG4       010VISTA          000000000036500000000389000000003630000000000000000000377000051726500
0202LOTE PADRAO                   TELE CL SUL PN * EJ    TCSL4       010VISTA          000000000003200000000034000000000327000000000000000000033000128308000
0202LOTE PADRAO                   CEMIG       ON * EJ    CMIG3       010VISTA          000000000033700000000345000000003375000000000000000000345000000593700
0202LOTE PADRAO                   TELE CL SUL ON * EJ    TCSL3       010VISTA          000000000002980000000031000000000298000000000000000000031000018503600
0202LOTE PADRAO                   ITAUSA      PN         ITSA4       010VISTA          000000000002400000000024000000000230000000000000000000024000000170900
0202LOTE PADRAO                   V C P       PN *       VCPA4       010VISTA          000000000088000000000880000000008650000000000000000000865000001621300
0202LOTE PADRAO                   SID TUBARAO PN *       CSTB4       010VISTA          000000000023300000000255000000002330000000000000000000255000013599100
0202LOTE PADRAO                   BRADESPAR   PN *       BRAP4       010VISTA          000000000000800000000008100000000078000000000000000000008100337410000
0202LOTE PADRAO                   NET         PN         PLIM4       010VISTA          000000000000700000000007200000000068000000000000000000007200001552900
0202LOTE PADRAO                   TELE CTR OESPN * EJ    TCOC4       010VISTA          000000000004900000000052000000000490000000000000000000052000219383000
0202LOTE PADRAO                   TELEMAR N L PNA* EJ    TMAR5       010VISTA          000000000061000000000615000000005970000000000000000000615000010832900
0202LOTE PADRAO                   GERDAU      PN * EJ    GGBR4       010VISTA          000000000026500000000266000000002630000000000000000000265000015621600
0202LOTE PADRAO                   BRASIL      ON *       BBAS3       010VISTA          000000000010300000000109000000001030000000000000000000108000004701600
