00BDIN9999BOVESPA 99992002020720020207
0101IBOVESPA                      0127520126840127740000000000000000002002020700000020020207012684000000
0202LOTE PADRAO                   EMBRATEL PARPN *       EBTP4       010VISTA          000000000007800000000080000000000750000000000000000000075000362446000
0202LOTE PADRAO                   EMBRATEL PARON *       EBTP3       010VISTA          000000000009800000000100000000000970000000000000000000099000029439100
0202LOTE PADRAO                   TRAN PAULISTPN * EJ    TRPL4       010VISTA          000000000007000000000071000000000700000000000000000000070000003890000
0202LOTE PADRAO                   TELEMAR     PN * EJ    TNLP4       010VISTA          000000000031300000000317500000003125000000000000000000312500224757000
0202LOTE PADRAO                   ITAUBANCO   PN * EJ    ITAU4       010VISTA          000000000177000000001795000000017650000000000000000001770000009928200
0202LOTE PADRAO                   TELEMAR     ON * EJ    TNLP3       010VISTA          000000000027800000000280000000002740000000000000000000274000016041000
0202LOTE PADRAO                   SID NACIONALON *       CSNA3       010VISTA          000000000039800000000398000000003800000000000000000000382000015658900
0202LOTE PADRAO                   TELE LEST CLPN *       TLCP4       010VISTA          000000000000900000000009100000000090000000000000000000009000046952200
0202LOTE PADRAO                   CRT CELULAR PNA* EJ    CRTP5       010VISTA          000000000427000000004300000000042500000000000000000004250000000213200
0202LOTE PADRAO                   IPIRANGA PETPN *       PTIP4       010VISTA          000000000012300000000127000000001230000000000000000000126000002968000
0202LOTE PADRAO                   BRASIL T PARPN *       BRTP4       010VISTA          000000000016500000000168000000001625000000000000000000168000046120600
0202LOTE PADRAO                   BRASIL T PARON *       BRTP3       010VISTA          000000000016500000000168000000001650000000000000000000168000004791400
0202LOTE PADRAO                   KLABIN S/A  PN         KLBN4       010VISTA          000000000001100000000011000000000110000000000000000000011000000033100
0202LOTE PADRAO                   ACESITA     PN *       ACES4       010VISTA          000000000000660000000006800000000065000000000000000000006500161120000
0202LOTE PADRAO                   PETROBRAS   PN         PETR4       010VISTA          000000000048500000000487000000004810000000000000000000482000000059200
0202LOTE PADRAO                   ELETROBRAS  PNB*       ELET6       010VISTA          000000000034200000000343000000003370000000000000000000340000045699200
0202LOTE PADRAO                   PETROBRAS   ON         PETR3       010VISTA          000000000049500000000497000000004920000000000000000000494000000012300
0202LOTE PADRAO                   COMGAS      PNA*       CGAS5       010VISTA          000000000084000000000865000000008400000000000000000000865000000734500
0202LOTE PADRAO                   SOUZA CRUZ  ON EJ      CRUZ3       010VISTA          000000000014300000000143000000001400000000000000000000143000000006000
0202LOTE PADRAO                   ELETROBRAS  ON *       ELET3       010VISTA          000000000038700000000387000000003750000000000000000000386000020306200
0202LOTE PADRAO                   CELESC      PNB        CLSC6       010VISTA          000000000000510000000005100000000049000000000000000000005000000038800
0202LOTE PADRAO                   BRADESCO    PN * EJ    BBDC4       010VISTA          000000000012300000000123000000001220000000000000000000123000118210000
0202LOTE PADRAO                   CESP        PN *       CESP4       010VISTA          000000000015100000000151000000001480000000000000000000151000002260000
0202LOTE PADRAO                   LIGHT       ON *       LIGH3       010VISTA          000000000122000000001240000000012200000000000000000001240000000087200
0202LOTE PADRAO                   TELESP CL PAPN *       TSPP4       010VISTA          000000000007100000000071000000000700000000000000000000070000071600200
0202LOTE PADRAO                   VALE R DOCE PNA        VALE5       010VISTA          000000000054700000000552000000005350000000000000000000551000000040200
0202LOTE PADRAO                   COPEL       PNB*       CPLE6       010VISTA          000000000016800000000171000000001680000000000000000000170000021494900
0202LOTE PADRAO                   VALE R DOCE ON         VALE3       010VISTA          000000000054000000000547000000005350000000000000000000546000000007100
0202LOTE PADRAO                   ARACRUZ     PNB        ARCZ6       010VISTA          000000000004300000000043000000000420000000000000000000042500000017700
0202LOTE PADRAO                   TELEMIG PARTPN *       TMCP4       010VISTA          000000000003500000000035000000000340000000000000000000034000108270000
0202LOTE PADRAO                   BRASIL TELECPN *       BRTO4       010VISTA          000000000012100000000123000000001200000000000000000000121000059877700
0202LOTE PADRAO                   SABESP      ON *       SBSP3       010VISTA          000000000140000000001405000000013850000000000000000001400000001694000
0202LOTE PADRAO                   BRASKEM     PNA*       BRKM5       010VISTA          000000000539000000005390000000052000000000000000000005220000000027000
0202LOTE PADRAO                   EMBRAER     PN EJ      EMBR4       010VISTA          000000000013500000000138000000001310000000000000000000136000000036200
0202LOTE PADRAO                   TELESP      PN * EJ    TLPP4       010VISTA          000000000028800000000296000000002860000000000000000000293000007617600
0202LOTE PADRAO                   EMBRAER     ON EJ      EMBR3       010VISTA          000000000012700000000127000000001220000000000000000000123000000015700
0202LOTE PADRAO                   AMBEV       PN *       AMBV4       010VISTA          000000000457000000004650000000045700000000000000000004590000001100100
0202LOTE PADRAO                   USIMINAS    PNA        USIM5       010VISTA          000000000007100000000072000000000700000000000000000000072000000026900
0202LOTE PADRAO                   ELETROPAULO PN *       ELPL4       010VISTA          000000000071000000000718000000006670000000000000000000670000003629100
0202LOTE PADRAO                   TELE NORD CLPN *       TNEP4       010VISTA          000000000002700000000028000000000270000000000000000000028000091294100
0202LOTE PADRAO                   CEMIG       PN * EJ    CMIG4       010VISTA          000000000035000000000350000000003390000000000000000000340000024791800
0202LOTE PADRAO                   TELE CL SUL PN * EJ    TCSL4       010VISTA          000000000003100000000032000000000310000000000000000000031000049145100
0202LOTE PADRAO                   CEMIG       ON * EJ    CMIG3       010VISTA          000000000029600000000300000000002960000000000000000000300000000990000
0202LOTE PADRAO                   TELE CL SUL ON * EJ    TCSL3       010VISTA          000000000002770000000027900000000270000000000000000000027000013801900
0202LOTE PADRAO                   ITAUSA      PN         ITSA4       010VISTA          000000000002100000000021000000000210000000000000000000021000000525700
0202LOTE PADRAO                   V C P       PN *       VCPA4       010VISTA          000000000083000000000835000000008250000000000000000000831000002308200
0202LOTE PADRAO                   SID TUBARAO PN *       CSTB4       010VISTA          000000000021000000000210000000002030000000000000000000203000005870000
0202LOTE PADRAO                   BRADESPAR   PN *       BRAP4       010VISTA          000000000000720000000007200000000070000000000000000000007000065010600
0202LOTE PADRAO                   NET         PN         PLIM4       010VISTA          000000000000620000000006300000000059000000000000000000005900000775500
0202LOTE PADRAO                   TELE CTR OESPN * EJ    TCOC4       010VISTA          000000000004400000000045000000000440000000000000000000044000044747400
0202LOTE PADRAO                   TELEMAR N L PNA* EJ    TMAR5       010VISTA          000000000053000000000530000000005100000000000000000000522000004554600
0202LOTE PADRAO                   GERDAU      PN * EJ    GGBR4       010VISTA          000000000024000000000241000000002400000000000000000000241000007248800
0202LOTE PADRAO                   BRASIL      ON *       BBAS3       010VISTA          000000000009300000000096000000000930000000000000000000095000003153500
