00BDIN9999BOVESPA 99992002120620021206
0101IBOVESPA                      0104140104120105750000000000000000002002120600000020021206010569000000
0202LOTE PADRAO                   EMBRATEL PARPN *       EBTP4       010VISTA          000000000003300000000035600000000330000000000000000000035000498909000
0202LOTE PADRAO                   TRAN PAULISTPN * EJ    TRPL4       010VISTA          000000000005000000000051000000000500000000000000000000051000005310000
0202LOTE PADRAO                   EMBRATEL PARON *       EBTP3       010VISTA          000000000003900000000041000000000390000000000000000000041000036412200
0202LOTE PADRAO                   TELEMAR     PN * EJ    TNLP4       010VISTA          000000000026600000000267000000002630000000000000000000265000195136000
0202LOTE PADRAO                   ITAUBANCO   PN * EJ    ITAU4       010VISTA          000000000151000000001530000000015000000000000000000001530000002958000
0202LOTE PADRAO                   TELEMAR     ON * EJ    TNLP3       010VISTA          000000000019500000000195000000001910000000000000000000191000003734100
0202LOTE PADRAO                   SID NACIONALON *       CSNA3       010VISTA          000000000049700000000505000000004950000000000000000000504000003567500
0202LOTE PADRAO                   TELE LEST CLPN *       TLCP4       010VISTA          000000000000420000000004400000000042000000000000000000004400092732800
0202LOTE PADRAO                   CRT CELULAR PNA* EJ    CRTP5       010VISTA          000000000304000000003045000000030000000000000000000003043000000339700
0202LOTE PADRAO                   IPIRANGA PETPN *       PTIP4       010VISTA          000000000007100000000071000000000700000000000000000000070000002290000
0202LOTE PADRAO                   BRASIL T PARPN *       BRTP4       010VISTA          000000000017300000000178000000001730000000000000000000177000035302500
0202LOTE PADRAO                   BRASIL T PARON *       BRTP3       010VISTA          000000000014100000000141000000001380000000000000000000139000002679500
0202LOTE PADRAO                   KLABIN S/A  PN         KLBN4       010VISTA          000000000000940000000009500000000093000000000000000000009500000036200
0202LOTE PADRAO                   ACESITA     PN *       ACES4       010VISTA          000000000000830000000008800000000083000000000000000000008700197281000
0202LOTE PADRAO                   PETROBRAS   PN         PETR4       010VISTA          000000000044300000000448000000004420000000000000000000444000000054600
0202LOTE PADRAO                   ELETROBRAS  PNB*       ELET6       010VISTA          000000000019100000000193000000001910000000000000000000193000031123000
0202LOTE PADRAO                   PETROBRAS   ON         PETR3       010VISTA          000000000048300000000495000000004810000000000000000000487000000034600
0202LOTE PADRAO                   COMGAS      PNA*       CGAS5       010VISTA          000000000049800000000500000000004950000000000000000000500000000717400
0202LOTE PADRAO                   SOUZA CRUZ  ON EJ      CRUZ3       010VISTA          000000000017800000000183000000001780000000000000000000182500000004900
0202LOTE PADRAO                   ELETROBRAS  ON *       ELET3       010VISTA          000000000020000000000203000000002000000000000000000000201000028642000
0202LOTE PADRAO                   CELESC      PNB        CLSC6       010VISTA          000000000000470000000004700000000046000000000000000000004700000021700
0202LOTE PADRAO                   BRADESCO    PN * EJ    BBDC4       010VISTA          000000000009400000000095000000000940000000000000000000095000183314000
0202LOTE PADRAO                   CESP        PN *       CESP4       010VISTA          000000000006600000000068000000000660000000000000000000067000005107500
0202LOTE PADRAO                   LIGHT       ON *       LIGH3       010VISTA          000000000046000000000484000000004600000000000000000000480000000063000
0202LOTE PADRAO                   TELESP CL PAPN *       TSPP4       010VISTA          000000000003750000000038000000000375000000000000000000038000153025000
0202LOTE PADRAO                   VALE R DOCE PNA        VALE5       010VISTA          000000000096500000000979000000009580000000000000000000978000000026800
0202LOTE PADRAO                   COPEL       PNB*       CPLE6       010VISTA          000000000007400000000075000000000740000000000000000000075000029405200
0202LOTE PADRAO                   VALE R DOCE ON         VALE3       010VISTA          000000000103300000001058000000010300000000000000000001042000000013200
0202LOTE PADRAO                   ARACRUZ     PNB        ARCZ6       010VISTA          000000000006300000000064000000000625000000000000000000064000000048800
0202LOTE PADRAO                   TELEMIG PARTPN *       TMCP4       010VISTA          000000000002900000000029000000000280000000000000000000029600038431100
0202LOTE PADRAO                   BRASIL TELECPN *       BRTO4       010VISTA          000000000011300000000115000000001130000000000000000000115000082993200
0202LOTE PADRAO                   SABESP      ON *       SBSP3       010VISTA          000000000078000000000797000000007700000000000000000000790000001410700
0202LOTE PADRAO                   BRASKEM     PNA*       BRKM5       010VISTA          000000000205000000002078000000020500000000000000000002060000000018100
0202LOTE PADRAO                   EMBRAER     PN EJ      EMBR4       010VISTA          000000000013900000000139000000001375000000000000000000139000000080200
0202LOTE PADRAO                   TELESP      PN * EJ    TLPP4       010VISTA          000000000035000000000358000000003500000000000000000000357000010392700
0202LOTE PADRAO                   EMBRAER     ON EJ      EMBR3       010VISTA          000000000012800000000128000000001250000000000000000000126000000005600
0202LOTE PADRAO                   AMBEV       PN *       AMBV4       010VISTA          000000000527000000005301000000052200000000000000000005301000000924500
0202LOTE PADRAO                   USIMINAS    PNA        USIM5       010VISTA          000000000005900000000060000000000590000000000000000000060000000016600
0202LOTE PADRAO                   ELETROPAULO PN *       ELPL4       010VISTA          000000000024600000000255000000002400000000000000000000251000011107700
0202LOTE PADRAO                   TELE NORD CLPN *       TNEP4       010VISTA          000000000002700000000028000000000273000000000000000000028000039044200
0202LOTE PADRAO                   CEMIG       PN * EJ    CMIG4       010VISTA          000000000022500000000233000000002225000000000000000000233000031361300
0202LOTE PADRAO                   TELE CL SUL PN * EJ    TCSL4       010VISTA          000000000002700000000027500000000269000000000000000000027000066444300
0202LOTE PADRAO                   TRACTEBEL   ON *       TBLE3       010VISTA          000000000003200000000032000000000310000000000000000000031000002075100
0202LOTE PADRAO                   CEMIG       ON * EJ    CMIG3       010VISTA          000000000020000000000210000000002000000000000000000000210000000531300
0202LOTE PADRAO                   TELE CL SUL ON * EJ    TCSL3       010VISTA          000000000001950000000020000000000190000000000000000000019400044982600
0202LOTE PADRAO                   ITAUSA      PN         ITSA4       010VISTA          000000000001750000000017800000000175000000000000000000017800000168500
0202LOTE PADRAO                   V C P       PN *       VCPA4       010VISTA          000000000117500000001197000000011750000000000000000001192000001465100
0202LOTE PADRAO                   SID TUBARAO PN *       CSTB4       010VISTA          000000000034700000000353000000003450000000000000000000348000003420600
0202LOTE PADRAO                   BRADESPAR   PN *       BRAP4       010VISTA          000000000000460000000004700000000045000000000000000000004700142878000
0202LOTE PADRAO                   NET         PN         PLIM4       010VISTA          000000000000360000000004000000000036000000000000000000004000001328700
0202LOTE PADRAO                   TELE CTR OESPN * EJ    TCOC4       010VISTA          000000000004500000000045000000000440000000000000000000044000035320500
0202LOTE PADRAO                   TELEMAR N L PNA* EJ    TMAR5       010VISTA          000000000042600000000430000000004210000000000000000000423000005424500
0202LOTE PADRAO                   GERDAU      PN * EJ    GGBR4       010VISTA          000000000031900000000319000000003130000000000000000000315000010834700
0202LOTE PADRAO                   BRASIL      ON *       BBAS3       010VISTA          000000000009500000000097000000000950000000000000000000097000010790600
