00BDIN9999BOVESPA 99992002051520020515
0101IBOVESPA                      0122070121140124680000000000000000002002051500000020020515012350000000
0202LOTE PADRAO                   EMBRATEL PARPN *       EBTP4       010VISTA          000000000004200000000042000000000380000000000000000000040000581725000
0202LOTE PADRAO                   TRAN PAULISTPN * EJ    TRPL4       010VISTA          000000000006100000000064000000000600000000000000000000060000016173200
0202LOTE PADRAO                   EMBRATEL PARON *       EBTP3       010VISTA          000000000005700000000058000000000540000000000000000000054000081403600
0202LOTE PADRAO                   TELEMAR     PN * EJ    TNLP4       010VISTA          000000000029000000000299000000002880000000000000000000294000364141000
0202LOTE PADRAO                   ITAUBANCO   PN * EJ    ITAU4       010VISTA          000000000170000000001772000000016900000000000000000001765000012453400
0202LOTE PADRAO                   TELEMAR     ON * EJ    TNLP3       010VISTA          000000000024800000000253000000002460000000000000000000253000025039300
0202LOTE PADRAO                   SID NACIONALON *       CSNA3       010VISTA          000000000045800000000479000000004550000000000000000000479000095241100
0202LOTE PADRAO                   TELE LEST CLPN *       TLCP4       010VISTA          000000000000690000000007100000000068000000000000000000007100144972000
0202LOTE PADRAO                   CRT CELULAR PNA* EJ    CRTP5       010VISTA          000000000400000000004200000000040000000000000000000004120000000382400
0202LOTE PADRAO                   IPIRANGA PETPN *       PTIP4       010VISTA          000000000014700000000149000000001390000000000000000000139000002425700
0202LOTE PADRAO                   BRASIL T PARPN *       BRTP4       010VISTA          000000000017250000000173000000001610000000000000000000170000083001500
0202LOTE PADRAO                   BRASIL T PARON *       BRTP3       010VISTA          000000000015100000000159000000001500000000000000000000156000018442200
0202LOTE PADRAO                   KLABIN S/A  PN         KLBN4       010VISTA          000000000001000000000011000000000100000000000000000000011000000078300
0202LOTE PADRAO                   ACESITA     PN *       ACES4       010VISTA          000000000000680000000007000000000067000000000000000000006800062241200
0202LOTE PADRAO                   PETROBRAS   PN         PETR4       010VISTA          000000000052000000000525000000005170000000000000000000520000000109200
0202LOTE PADRAO                   ELETROBRAS  PNB*       ELET6       010VISTA          000000000029000000000301000000002890000000000000000000298000079185600
0202LOTE PADRAO                   PETROBRAS   ON         PETR3       010VISTA          000000000054800000000551000000005430000000000000000000546000000034500
0202LOTE PADRAO                   COMGAS      PNA*       CGAS5       010VISTA          000000000077400000000780000000007690000000000000000000780000001916300
0202LOTE PADRAO                   SOUZA CRUZ  ON EJ      CRUZ3       010VISTA          000000000016100000000164000000001610000000000000000000163000000011500
0202LOTE PADRAO                   ELETROBRAS  ON *       ELET3       010VISTA          000000000032800000000339000000003260000000000000000000335000031751200
0202LOTE PADRAO                   CELESC      PNB        CLSC6       010VISTA          000000000000550000000005500000000054000000000000000000005400000159700
0202LOTE PADRAO                   BRADESCO    PN * EJ    BBDC4       010VISTA          000000000012500000000131000000001240000000000000000000130000126793000
0202LOTE PADRAO                   CESP        PN *       CESP4       010VISTA          000000000010400000000108000000001000000000000000000000103000006605600
0202LOTE PADRAO                   LIGHT       ON *       LIGH3       010VISTA          000000000095000000000969000000009500000000000000000000965000000380800
0202LOTE PADRAO                   TELESP CL PAPN *       TSPP4       010VISTA          000000000005400000000059000000000530000000000000000000057000339054000
0202LOTE PADRAO                   VALE R DOCE PNA        VALE5       010VISTA          000000000069000000000699000000006830000000000000000000687000000038600
0202LOTE PADRAO                   COPEL       PNB*       CPLE6       010VISTA          000000000014500000000148000000001430000000000000000000144000064547600
0202LOTE PADRAO                   VALE R DOCE ON         VALE3       010VISTA          000000000069900000000699000000006860000000000000000000695000000020900
0202LOTE PADRAO                   ARACRUZ     PNB        ARCZ6       010VISTA          000000000005250000000055000000000525000000000000000000055000000044900
0202LOTE PADRAO                   TELEMIG PARTPN *       TMCP4       010VISTA          000000000002500000000027000000000250000000000000000000027000113065000
0202LOTE PADRAO                   BRASIL TELECPN *       BRTO4       010VISTA          000000000011500000000120000000001150000000000000000000119000087446200
0202LOTE PADRAO                   SABESP      ON *       SBSP3       010VISTA          000000000113300000001142000000011200000000000000000001136000009214700
0202LOTE PADRAO                   BRASKEM     PNA*       BRKM5       010VISTA          000000000485000000004939000000048200000000000000000004820000000102000
0202LOTE PADRAO                   EMBRAER     PN EJ      EMBR4       010VISTA          000000000014000000000146000000001400000000000000000000142500000105200
0202LOTE PADRAO                   TELESP      PN * EJ    TLPP4       010VISTA          000000000032700000000337000000003270000000000000000000335000013537000
0202LOTE PADRAO                   EMBRAER     ON EJ      EMBR3       010VISTA          000000000012700000000132000000001260000000000000000000126000000045300
0202LOTE PADRAO                   AMBEV       PN *       AMBV4       010VISTA          000000000499700000004997000000048000000000000000000004840000003607400
0202LOTE PADRAO                   USIMINAS    PNA        USIM5       010VISTA          000000000007100000000075000000000690000000000000000000073000000028800
0202LOTE PADRAO                   ELETROPAULO PN *       ELPL4       010VISTA          000000000054500000000555000000005390000000000000000000539000001353900
0202LOTE PADRAO                   TELE NORD CLPN *       TNEP4       010VISTA          000000000002300000000024000000000230000000000000000000024000164789000
0202LOTE PADRAO                   CEMIG       PN * EJ    CMIG4       010VISTA          000000000031700000000320000000003060000000000000000000316000049248800
0202LOTE PADRAO                   TELE CL SUL PN * EJ    TCSL4       010VISTA          000000000002900000000030000000000290000000000000000000030000069169300
0202LOTE PADRAO                   TRACTEBEL   ON *       TBLE3       010VISTA          000000000004200000000042000000000400000000000000000000040000033839700
0202LOTE PADRAO                   CEMIG       ON * EJ    CMIG3       010VISTA          000000000030500000000320000000003050000000000000000000313000001448300
0202LOTE PADRAO                   TELE CL SUL ON * EJ    TCSL3       010VISTA          000000000002600000000027300000000260000000000000000000027300030789400
0202LOTE PADRAO                   ITAUSA      PN         ITSA4       010VISTA          000000000002100000000022000000000210000000000000000000021000000521100
0202LOTE PADRAO                   V C P       PN *       VCPA4       010VISTA          000000000098000000000990000000009600000000000000000000965000004299700
0202LOTE PADRAO                   SID TUBARAO PN *       CSTB4       010VISTA          000000000028000000000296000000002790000000000000000000293000019933500
0202LOTE PADRAO                   BRADESPAR   PN *       BRAP4       010VISTA          000000000000630000000006400000000062000000000000000000006300102477000
0202LOTE PADRAO                   NET         PN         PLIM4       010VISTA          000000000000310000000003200000000030000000000000000000003100000961000
0202LOTE PADRAO                   TELE CTR OESPN * EJ    TCOC4       010VISTA          000000000004200000000043000000000420000000000000000000043000131726000
0202LOTE PADRAO                   TELEMAR N L PNA* EJ    TMAR5       010VISTA          000000000050500000000515000000005040000000000000000000512000028547000
0202LOTE PADRAO                   GERDAU      PN * EJ    GGBR4       010VISTA          000000000030600000000319000000003030000000000000000000316000030517200
0202LOTE PADRAO                   BRASIL      ON *       BBAS3       010VISTA          000000000012000000000123000000001190000000000000000000120000003890300
