00BDIN9999BOVESPA 99992002052020020520
0101IBOVESPA                      0127000126060127700000000000000000002002052000000020020520012668000000
0202LOTE PADRAO                   EMBRATEL PARPN *       EBTP4       010VISTA          000000000004300000000045400000000430000000000000000000045000234301000
0202LOTE PADRAO                   TRAN PAULISTPN * EJ    TRPL4       010VISTA          000000000005900000000060000000000590000000000000000000060000004609600
0202LOTE PADRAO                   EMBRATEL PARON *       EBTP3       010VISTA          000000000006000000000062500000000600000000000000000000061000045005800
0202LOTE PADRAO                   TELEMAR     PN * EJ    TNLP4       010VISTA          000000000030600000000306000000002980000000000000000000300000139238000
0202LOTE PADRAO                   ITAUBANCO   PN * EJ    ITAU4       010VISTA          000000000179000000001790000000017500000000000000000001750000002529000
0202LOTE PADRAO                   TELEMAR     ON * EJ    TNLP3       010VISTA          000000000025500000000260000000002530000000000000000000260000006461700
0202LOTE PADRAO                   SID NACIONALON *       CSNA3       010VISTA          000000000049250000000493000000004850000000000000000000487000010412800
0202LOTE PADRAO                   TELE LEST CLPN *       TLCP4       010VISTA          000000000000700000000007000000000068000000000000000000006900060789200
0202LOTE PADRAO                   CRT CELULAR PNA* EJ    CRTP5       010VISTA          000000000404900000004059000000039000000000000000000004059000000110300
0202LOTE PADRAO                   IPIRANGA PETPN *       PTIP4       010VISTA          000000000014000000000140000000001380000000000000000000138000000130000
0202LOTE PADRAO                   BRASIL T PARPN *       BRTP4       010VISTA          000000000017600000000176000000001730000000000000000000175000025052200
0202LOTE PADRAO                   BRASIL T PARON *       BRTP3       010VISTA          000000000016500000000165000000001610000000000000000000161000003536500
0202LOTE PADRAO                   KLABIN S/A  PN         KLBN4       010VISTA          000000000001100000000011000000000100000000000000000000010000000011300
0202LOTE PADRAO                   ACESITA     PN *       ACES4       010VISTA          000000000000680000000006800000000065000000000000000000006500131765000
0202LOTE PADRAO                   PETROBRAS   PN         PETR4       010VISTA          000000000054000000000550000000005400000000000000000000550000000061700
0202LOTE PADRAO                   ELETROBRAS  PNB*       ELET6       010VISTA          000000000031300000000315000000003050000000000000000000308000043846000
0202LOTE PADRAO                   PETROBRAS   ON         PETR3       010VISTA          000000000057100000000580000000005710000000000000000000578000000030300
0202LOTE PADRAO                   COMGAS      PNA*       CGAS5       010VISTA          000000000076000000000770000000007400000000000000000000745000000781100
0202LOTE PADRAO                   SOUZA CRUZ  ON EJ      CRUZ3       010VISTA          000000000016300000000163000000001600000000000000000000160000000003600
0202LOTE PADRAO                   ELETROBRAS  ON *       ELET3       010VISTA          000000000035900000000359000000003470000000000000000000350000006064200
0202LOTE PADRAO                   CELESC      PNB        CLSC6       010VISTA          000000000000540000000005500000000053000000000000000000005300000108000
0202LOTE PADRAO                   BRADESCO    PN * EJ    BBDC4       010VISTA          000000000013100000000133000000001290000000000000000000129000069130000
0202LOTE PADRAO                   CESP        PN *       CESP4       010VISTA          000000000011400000000115000000001110000000000000000000111000004778100
0202LOTE PADRAO                   LIGHT       ON *       LIGH3       010VISTA          000000000095100000000960000000009450000000000000000000945000000187000
0202LOTE PADRAO                   TELESP CL PAPN *       TSPP4       010VISTA          000000000006000000000060000000000575000000000000000000058000116230000
0202LOTE PADRAO                   VALE R DOCE PNA        VALE5       010VISTA          000000000068000000000685000000006720000000000000000000685000000014400
0202LOTE PADRAO                   COPEL       PNB*       CPLE6       010VISTA          000000000014800000000148000000001450000000000000000000145000034194400
0202LOTE PADRAO                   VALE R DOCE ON         VALE3       010VISTA          000000000067000000000687000000006700000000000000000000687000000009600
0202LOTE PADRAO                   ARACRUZ     PNB        ARCZ6       010VISTA          000000000005400000000054000000000530000000000000000000053000000019800
0202LOTE PADRAO                   TELEMIG PARTPN *       TMCP4       010VISTA          000000000002900000000029000000000280000000000000000000028000057714700
0202LOTE PADRAO                   BRASIL TELECPN *       BRTO4       010VISTA          000000000012100000000121000000001190000000000000000000121000038388900
0202LOTE PADRAO                   SABESP      ON *       SBSP3       010VISTA          000000000117400000001185000000011500000000000000000001157000003865600
0202LOTE PADRAO                   BRASKEM     PNA*       BRKM5       010VISTA          000000000460000000004640000000045700000000000000000004570000000041300
0202LOTE PADRAO                   EMBRAER     PN EJ      EMBR4       010VISTA          000000000014000000000144000000001390000000000000000000144000000059900
0202LOTE PADRAO                   TELESP      PN * EJ    TLPP4       010VISTA          000000000033700000000337000000003300000000000000000000337000006029800
0202LOTE PADRAO                   EMBRAER     ON EJ      EMBR3       010VISTA          000000000012800000000129000000001280000000000000000000129000000006200
0202LOTE PADRAO                   AMBEV       PN *       AMBV4       010VISTA          000000000474900000004770000000047200000000000000000004751000000812900
0202LOTE PADRAO                   USIMINAS    PNA        USIM5       010VISTA          000000000007600000000076000000000740000000000000000000075000000015600
0202LOTE PADRAO                   ELETROPAULO PN *       ELPL4       010VISTA          000000000054500000000550000000005200000000000000000000545000002927400
0202LOTE PADRAO                   TELE NORD CLPN *       TNEP4       010VISTA          000000000002500000000025400000000248000000000000000000025400051695200
0202LOTE PADRAO                   CEMIG       PN * EJ    CMIG4       010VISTA          000000000032700000000327000000003220000000000000000000327000037014200
0202LOTE PADRAO                   TELE CL SUL PN * EJ    TCSL4       010VISTA          000000000003000000000030000000000290000000000000000000030000050883500
0202LOTE PADRAO                   TRACTEBEL   ON *       TBLE3       010VISTA          000000000004000000000040000000000400000000000000000000040000004331100
0202LOTE PADRAO                   CEMIG       ON * EJ    CMIG3       010VISTA          000000000030300000000312000000003030000000000000000000312000000220100
0202LOTE PADRAO                   TELE CL SUL ON * EJ    TCSL3       010VISTA          000000000002600000000027000000000260000000000000000000026000007710500
0202LOTE PADRAO                   ITAUSA      PN         ITSA4       010VISTA          000000000002200000000022000000000210000000000000000000021000000309600
0202LOTE PADRAO                   V C P       PN *       VCPA4       010VISTA          000000000098250000000982500000009500000000000000000000960000004285200
0202LOTE PADRAO                   SID TUBARAO PN *       CSTB4       010VISTA          000000000028400000000285000000002750000000000000000000275000034119600
0202LOTE PADRAO                   BRADESPAR   PN *       BRAP4       010VISTA          000000000000630000000006300000000062000000000000000000006200047516500
0202LOTE PADRAO                   NET         PN         PLIM4       010VISTA          000000000000340000000003600000000033000000000000000000003400001303700
0202LOTE PADRAO                   TELE CTR OESPN * EJ    TCOC4       010VISTA          000000000004600000000046000000000450000000000000000000046000065864800
0202LOTE PADRAO                   TELEMAR N L PNA* EJ    TMAR5       010VISTA          000000000052800000000528000000005110000000000000000000512500010489200
0202LOTE PADRAO                   GERDAU      PN * EJ    GGBR4       010VISTA          000000000033000000000338000000003270000000000000000000332000026485700
0202LOTE PADRAO                   BRASIL      ON *       BBAS3       010VISTA          000000000012600000000128000000001250000000000000000000125000004191400
