00BDIN9999BOVESPA 99992002102820021028
0101IBOVESPA                      0100220095730100920000000000000000002002102800000020021028009574000000
0202LOTE PADRAO                   EMBRATEL PARPN *       EBTP4       010VISTA          000000000002300000000024000000000210000000000000000000021000463086000
0202LOTE PADRAO                   TRAN PAULISTPN * EJ    TRPL4       010VISTA          000000000005300000000053000000000490000000000000000000049000016670800
0202LOTE PADRAO                   EMBRATEL PARON *       EBTP3       010VISTA          000000000003000000000030000000000271000000000000000000027100059962000
0202LOTE PADRAO                   TELEMAR     PN * EJ    TNLP4       010VISTA          000000000025000000000251000000002310000000000000000000231000341024000
0202LOTE PADRAO                   ITAUBANCO   PN * EJ    ITAU4       010VISTA          000000000148000000001546000000014650000000000000000001465000024567600
0202LOTE PADRAO                   TELEMAR     ON * EJ    TNLP3       010VISTA          000000000018100000000185000000001680000000000000000000168000012195700
0202LOTE PADRAO                   SID NACIONALON *       CSNA3       010VISTA          000000000039300000000400000000003800000000000000000000390000012090300
0202LOTE PADRAO                   TELE LEST CLPN *       TLCP4       010VISTA          000000000000400000000004000000000037000000000000000000003700360357000
0202LOTE PADRAO                   CRT CELULAR PNA* EJ    CRTP5       010VISTA          000000000310000000003130000000028500000000000000000002990000000863500
0202LOTE PADRAO                   IPIRANGA PETPN *       PTIP4       010VISTA          000000000008100000000082000000000790000000000000000000079000017440000
0202LOTE PADRAO                   BRASIL T PARPN *       BRTP4       010VISTA          000000000019800000000201000000001960000000000000000000196000045265500
0202LOTE PADRAO                   BRASIL T PARON *       BRTP3       010VISTA          000000000014400000000146000000001410000000000000000000141000016831500
0202LOTE PADRAO                   KLABIN S/A  PN         KLBN4       010VISTA          000000000000870000000009100000000083000000000000000000008500000040300
0202LOTE PADRAO                   ACESITA     PN *       ACES4       010VISTA          000000000000690000000007100000000066000000000000000000006700165031000
0202LOTE PADRAO                   PETROBRAS   PN         PETR4       010VISTA          000000000043400000000437000000004180000000000000000000420000000121500
0202LOTE PADRAO                   ELETROBRAS  PNB*       ELET6       010VISTA          000000000018500000000188000000001780000000000000000000178000068152900
0202LOTE PADRAO                   PETROBRAS   ON         PETR3       010VISTA          000000000047500000000485000000004650000000000000000000467000000065000
0202LOTE PADRAO                   COMGAS      PNA*       CGAS5       010VISTA          000000000057700000000580000000005570000000000000000000557000001504000
0202LOTE PADRAO                   SOUZA CRUZ  ON EJ      CRUZ3       010VISTA          000000000019100000000191000000001800000000000000000000180000000020400
0202LOTE PADRAO                   ELETROBRAS  ON *       ELET3       010VISTA          000000000019000000000191000000001840000000000000000000186000041580900
0202LOTE PADRAO                   CELESC      PNB        CLSC6       010VISTA          000000000000520000000005200000000049000000000000000000004900000250200
0202LOTE PADRAO                   BRADESCO    PN * EJ    BBDC4       010VISTA          000000000009500000000095000000000900000000000000000000090000328695000
0202LOTE PADRAO                   CESP        PN *       CESP4       010VISTA          000000000006700000000067500000000600000000000000000000060000016666600
0202LOTE PADRAO                   LIGHT       ON *       LIGH3       010VISTA          000000000054000000000547000000005120000000000000000000515000001189800
0202LOTE PADRAO                   TELESP CL PAPN *       TSPP4       010VISTA          000000000003600000000036000000000330000000000000000000033000528292000
0202LOTE PADRAO                   VALE R DOCE PNA        VALE5       010VISTA          000000000093000000000950000000009200000000000000000000949000000017600
0202LOTE PADRAO                   COPEL       PNB*       CPLE6       010VISTA          000000000008900000000090000000000830000000000000000000083000067548200
0202LOTE PADRAO                   VALE R DOCE ON         VALE3       010VISTA          000000000096000000000977000000009600000000000000000000977000000010800
0202LOTE PADRAO                   ARACRUZ     PNB        ARCZ6       010VISTA          000000000006200000000062000000000600000000000000000000060000000072600
0202LOTE PADRAO                   TELEMIG PARTPN *       TMCP4       010VISTA          000000000002750000000028000000000250000000000000000000027500156237000
0202LOTE PADRAO                   BRASIL TELECPN *       BRTO4       010VISTA          000000000012400000000125000000001200000000000000000000120000070936700
0202LOTE PADRAO                   SABESP      ON *       SBSP3       010VISTA          000000000084900000000849000000008120000000000000000000822000004710300
0202LOTE PADRAO                   BRASKEM     PNA*       BRKM5       010VISTA          000000000221000000002230000000020800000000000000000002080000000248300
0202LOTE PADRAO                   EMBRAER     PN EJ      EMBR4       010VISTA          000000000014600000000146000000001400000000000000000000140000000057300
0202LOTE PADRAO                   TELESP      PN * EJ    TLPP4       010VISTA          000000000035500000000361000000003420000000000000000000347500008855100
0202LOTE PADRAO                   EMBRAER     ON EJ      EMBR3       010VISTA          000000000013900000000139000000001310000000000000000000131000000024300
0202LOTE PADRAO                   AMBEV       PN *       AMBV4       010VISTA          000000000504400000005100000000049000000000000000000004950000001925900
0202LOTE PADRAO                   USIMINAS    PNA        USIM5       010VISTA          000000000005300000000056000000000510000000000000000000051000000081900
0202LOTE PADRAO                   ELETROPAULO PN *       ELPL4       010VISTA          000000000028600000000297000000002600000000000000000000260000007004000
0202LOTE PADRAO                   TELE NORD CLPN *       TNEP4       010VISTA          000000000002400000000024000000000230000000000000000000023000105970000
0202LOTE PADRAO                   CEMIG       PN * EJ    CMIG4       010VISTA          000000000024100000000246000000002250000000000000000000225000040792600
0202LOTE PADRAO                   TELE CL SUL PN * EJ    TCSL4       010VISTA          000000000002800000000029000000000270000000000000000000027500105782000
0202LOTE PADRAO                   TRACTEBEL   ON *       TBLE3       010VISTA          000000000003400000000034800000000325000000000000000000033000009980100
0202LOTE PADRAO                   CEMIG       ON * EJ    CMIG3       010VISTA          000000000022000000000220000000002000000000000000000000201000001251600
0202LOTE PADRAO                   TELE CL SUL ON * EJ    TCSL3       010VISTA          000000000002300000000023000000000210000000000000000000021000038620200
0202LOTE PADRAO                   ITAUSA      PN         ITSA4       010VISTA          000000000001800000000018000000000176000000000000000000017600000610800
0202LOTE PADRAO                   V C P       PN *       VCPA4       010VISTA          000000000118000000001180000000011300000000000000000001135000002064800
0202LOTE PADRAO                   SID TUBARAO PN *       CSTB4       010VISTA          000000000033900000000342000000003320000000000000000000335000004502800
0202LOTE PADRAO                   BRADESPAR   PN *       BRAP4       010VISTA          000000000000470000000004800000000045000000000000000000004600408149000
0202LOTE PADRAO                   NET         PN         PLIM4       010VISTA          000000000000260000000002700000000022000000000000000000002300002606200
0202LOTE PADRAO                   TELE CTR OESPN * EJ    TCOC4       010VISTA          000000000003400000000034000000000320000000000000000000032000094248100
0202LOTE PADRAO                   TELEMAR N L PNA* EJ    TMAR5       010VISTA          000000000045000000000451000000004150000000000000000000418000009657900
0202LOTE PADRAO                   GERDAU      PN * EJ    GGBR4       010VISTA          000000000031300000000319000000003000000000000000000000308000010936200
0202LOTE PADRAO                   BRASIL      ON *       BBAS3       010VISTA          000000000009800000000099000000000910000000000000000000092000052381000
