00BDIN9999BOVESPA 99992002080120020801
0101IBOVESPA                      0097820095370098640000000000000000002002080100000020020801009760000000
0202LOTE PADRAO                   EMBRATEL PARPN *       EBTP4       010VISTA          000000000001600000000017200000000160000000000000000000016000398275000
0202LOTE PADRAO                   TRAN PAULISTPN * EJ    TRPL4       010VISTA          000000000005200000000054000000000510000000000000000000054000014522900
0202LOTE PADRAO                   EMBRATEL PARON *       EBTP3       010VISTA          000000000002600000000027000000000250000000000000000000026000056300500
0202LOTE PADRAO                   TELEMAR     PN * EJ    TNLP4       010VISTA          000000000024000000000244000000002290000000000000000000243000363854000
0202LOTE PADRAO                   ITAUBANCO   PN * EJ    ITAU4       010VISTA          000000000123700000001242000000011800000000000000000001230000023576200
0202LOTE PADRAO                   TELEMAR     ON * EJ    TNLP3       010VISTA          000000000018500000000188000000001760000000000000000000183000016267500
0202LOTE PADRAO                   SID NACIONALON *       CSNA3       010VISTA          000000000044100000000441000000003950000000000000000000397000014346100
0202LOTE PADRAO                   TELE LEST CLPN *       TLCP4       010VISTA          000000000000410000000004200000000039000000000000000000004100211069000
0202LOTE PADRAO                   CRT CELULAR PNA* EJ    CRTP5       010VISTA          000000000390000000004040000000039000000000000000000004010000000651700
0202LOTE PADRAO                   IPIRANGA PETPN *       PTIP4       010VISTA          000000000011700000000125000000001170000000000000000000119000010403100
0202LOTE PADRAO                   BRASIL T PARPN *       BRTP4       010VISTA          000000000016000000000166000000001510000000000000000000160000124375000
0202LOTE PADRAO                   BRASIL T PARON *       BRTP3       010VISTA          000000000012750000000127000000001180000000000000000000123000043874500
0202LOTE PADRAO                   KLABIN S/A  PN         KLBN4       010VISTA          000000000000910000000009100000000087000000000000000000008700000035200
0202LOTE PADRAO                   ACESITA     PN *       ACES4       010VISTA          000000000000630000000006400000000061000000000000000000006200079865100
0202LOTE PADRAO                   PETROBRAS   PN         PETR4       010VISTA          000000000041300000000420000000003970000000000000000000418000000169300
0202LOTE PADRAO                   ELETROBRAS  PNB*       ELET6       010VISTA          000000000020800000000212000000002050000000000000000000206000121060000
0202LOTE PADRAO                   PETROBRAS   ON         PETR3       010VISTA          000000000045000000000456000000004370000000000000000000450000000041400
0202LOTE PADRAO                   COMGAS      PNA*       CGAS5       010VISTA          000000000052000000000520000000004810000000000000000000498000015391000
0202LOTE PADRAO                   SOUZA CRUZ  ON EJ      CRUZ3       010VISTA          000000000013900000000139000000001350000000000000000000135000000051400
0202LOTE PADRAO                   ELETROBRAS  ON *       ELET3       010VISTA          000000000021600000000221000000002110000000000000000000213000042376800
0202LOTE PADRAO                   CELESC      PNB        CLSC6       010VISTA          000000000000530000000005300000000051000000000000000000005200000547600
0202LOTE PADRAO                   BRADESCO    PN * EJ    BBDC4       010VISTA          000000000008700000000088000000000830000000000000000000087000425460000
0202LOTE PADRAO                   CESP        PN *       CESP4       010VISTA          000000000007500000000075000000000720000000000000000000072000008989100
0202LOTE PADRAO                   LIGHT       ON *       LIGH3       010VISTA          000000000079000000000825000000007900000000000000000000809000000428300
0202LOTE PADRAO                   TELESP CL PAPN *       TSPP4       010VISTA          000000000003480000000034800000000340000000000000000000034000313577000
0202LOTE PADRAO                   VALE R DOCE PNA        VALE5       010VISTA          000000000076500000000765000000007220000000000000000000737000000056100
0202LOTE PADRAO                   COPEL       PNB*       CPLE6       010VISTA          000000000010500000000106000000001000000000000000000000104000095532700
0202LOTE PADRAO                   VALE R DOCE ON         VALE3       010VISTA          000000000083000000000830000000007850000000000000000000785000000040600
0202LOTE PADRAO                   ARACRUZ     PNB        ARCZ6       010VISTA          000000000006200000000065000000000600000000000000000000060000000111100
0202LOTE PADRAO                   TELEMIG PARTPN *       TMCP4       010VISTA          000000000003000000000031000000000294000000000000000000029400142691000
0202LOTE PADRAO                   BRASIL TELECPN *       BRTO4       010VISTA          000000000010750000000109000000001025000000000000000000105000152988000
0202LOTE PADRAO                   SABESP      ON *       SBSP3       010VISTA          000000000081000000000845000000008050000000000000000000845000010084200
0202LOTE PADRAO                   BRASKEM     PNA*       BRKM5       010VISTA          000000000370000000003700000000035490000000000000000003550000000198300
0202LOTE PADRAO                   EMBRAER     PN EJ      EMBR4       010VISTA          000000000014900000000149000000001400000000000000000000144000000188300
0202LOTE PADRAO                   TELESP      PN * EJ    TLPP4       010VISTA          000000000031900000000327000000003150000000000000000000322000012014000
0202LOTE PADRAO                   EMBRAER     ON EJ      EMBR3       010VISTA          000000000013700000000137000000001300000000000000000000131000000018400
0202LOTE PADRAO                   AMBEV       PN *       AMBV4       010VISTA          000000000422000000004300000000041500000000000000000004180000004699700
0202LOTE PADRAO                   USIMINAS    PNA        USIM5       010VISTA          000000000005250000000053000000000500000000000000000000051000000063500
0202LOTE PADRAO                   ELETROPAULO PN *       ELPL4       010VISTA          000000000026500000000274000000002580000000000000000000260000007588600
0202LOTE PADRAO                   TELE NORD CLPN *       TNEP4       010VISTA          000000000002700000000030000000000270000000000000000000028000130631000
0202LOTE PADRAO                   CEMIG       PN * EJ    CMIG4       010VISTA          000000000026300000000266000000002550000000000000000000255000080087800
0202LOTE PADRAO                   TELE CL SUL PN * EJ    TCSL4       010VISTA          000000000003000000000030000000000280000000000000000000028000174141000
0202LOTE PADRAO                   TRACTEBEL   ON *       TBLE3       010VISTA          000000000004200000000045000000000420000000000000000000042000013232000
0202LOTE PADRAO                   CEMIG       ON * EJ    CMIG3       010VISTA          000000000024600000000257500000002460000000000000000000248000000399500
0202LOTE PADRAO                   TELE CL SUL ON * EJ    TCSL3       010VISTA          000000000002500000000026000000000248000000000000000000024800016939300
0202LOTE PADRAO                   ITAUSA      PN         ITSA4       010VISTA          000000000001600000000016000000000153000000000000000000015000000467900
0202LOTE PADRAO                   V C P       PN *       VCPA4       010VISTA          000000000103000000001070000000010300000000000000000001050000006375500
0202LOTE PADRAO                   SID TUBARAO PN *       CSTB4       010VISTA          000000000027600000000285000000002750000000000000000000285000015231100
0202LOTE PADRAO                   BRADESPAR   PN *       BRAP4       010VISTA          000000000000500000000005100000000049000000000000000000005000126391000
0202LOTE PADRAO                   NET         PN         PLIM4       010VISTA          000000000000790000000010000000000079000000000000000000009600000672200
0202LOTE PADRAO                   TELE CTR OESPN * EJ    TCOC4       010VISTA          000000000003900000000040000000000380000000000000000000038000139527000
0202LOTE PADRAO                   TELEMAR N L PNA* EJ    TMAR5       010VISTA          000000000040700000000412000000003920000000000000000000405000038556500
0202LOTE PADRAO                   GERDAU      PN * EJ    GGBR4       010VISTA          000000000029500000000295000000002750000000000000000000285000080174800
0202LOTE PADRAO                   BRASIL      ON *       BBAS3       010VISTA          000000000009200000000093000000000880000000000000000000089000011525400
