00BDIN9999BOVESPA 99992002042420020424
0101IBOVESPA                      0131820131760133940000000000000000002002042400000020020424013381000000
0202LOTE PADRAO                   EMBRATEL PARPN *       EBTP4       010VISTA          000000000006300000000063000000000570000000000000000000059000349932000
0202LOTE PADRAO                   TRAN PAULISTPN * EJ    TRPL4       010VISTA          000000000007000000000071000000000700000000000000000000070000020603000
0202LOTE PADRAO                   EMBRATEL PARON *       EBTP3       010VISTA          000000000007800000000078000000000700000000000000000000072000051267800
0202LOTE PADRAO                   TELEMAR     PN * EJ    TNLP4       010VISTA          000000000030600000000319000000003060000000000000000000319000214182000
0202LOTE PADRAO                   ITAUBANCO   PN * EJ    ITAU4       010VISTA          000000000188000000001893000000018750000000000000000001875000004010800
0202LOTE PADRAO                   TELEMAR     ON * EJ    TNLP3       010VISTA          000000000027100000000278000000002680000000000000000000278000011495700
0202LOTE PADRAO                   SID NACIONALON *       CSNA3       010VISTA          000000000046700000000475000000004630000000000000000000475000019935700
0202LOTE PADRAO                   TELE LEST CLPN *       TLCP4       010VISTA          000000000000740000000007600000000073000000000000000000007600151934000
0202LOTE PADRAO                   CRT CELULAR PNA* EJ    CRTP5       010VISTA          000000000428000000004349000000042000000000000000000004200000000461800
0202LOTE PADRAO                   IPIRANGA PETPN *       PTIP4       010VISTA          000000000014500000000154000000001450000000000000000000154000001336200
0202LOTE PADRAO                   BRASIL T PARPN *       BRTP4       010VISTA          000000000019000000000191000000001860000000000000000000191000051725100
0202LOTE PADRAO                   BRASIL T PARON *       BRTP3       010VISTA          000000000018000000000184000000001800000000000000000000182000006789900
0202LOTE PADRAO                   KLABIN S/A  PN         KLBN4       010VISTA          000000000001000000000010000000000100000000000000000000010000000017100
0202LOTE PADRAO                   ACESITA     PN *       ACES4       010VISTA          000000000000760000000007600000000074000000000000000000007500101832000
0202LOTE PADRAO                   PETROBRAS   PN         PETR4       010VISTA          000000000056300000000565000000005560000000000000000000562000000054900
0202LOTE PADRAO                   ELETROBRAS  PNB*       ELET6       010VISTA          000000000034200000000354000000003420000000000000000000349000035093300
0202LOTE PADRAO                   PETROBRAS   ON         PETR3       010VISTA          000000000059600000000603000000005950000000000000000000598000000046800
0202LOTE PADRAO                   COMGAS      PNA*       CGAS5       010VISTA          000000000075500000000762000000007500000000000000000000762000000261200
0202LOTE PADRAO                   SOUZA CRUZ  ON EJ      CRUZ3       010VISTA          000000000015800000000161000000001580000000000000000000160000000014900
0202LOTE PADRAO                   ELETROBRAS  ON *       ELET3       010VISTA          000000000037800000000390000000003780000000000000000000385000008471300
0202LOTE PADRAO                   CELESC      PNB        CLSC6       010VISTA          000000000000550000000005500000000053000000000000000000005400000135500
0202LOTE PADRAO                   BRADESCO    PN * EJ    BBDC4       010VISTA          000000000014400000000146000000001440000000000000000000146000081553200
0202LOTE PADRAO                   CESP        PN *       CESP4       010VISTA          000000000013250000000132500000001270000000000000000000128000020840700
0202LOTE PADRAO                   LIGHT       ON *       LIGH3       010VISTA          000000000097000000000990000000009700000000000000000000985000000351700
0202LOTE PADRAO                   TELESP CL PAPN *       TSPP4       010VISTA          000000000005800000000060000000000580000000000000000000059000126519000
0202LOTE PADRAO                   VALE R DOCE PNA        VALE5       010VISTA          000000000066100000000661000000006520000000000000000000652000000024500
0202LOTE PADRAO                   COPEL       PNB*       CPLE6       010VISTA          000000000017600000000178000000001750000000000000000000178000010631800
0202LOTE PADRAO                   VALE R DOCE ON         VALE3       010VISTA          000000000066200000000667000000006600000000000000000000660000000030200
0202LOTE PADRAO                   ARACRUZ     PNB        ARCZ6       010VISTA          000000000005000000000051000000000490000000000000000000051000000103200
0202LOTE PADRAO                   TELEMIG PARTPN *       TMCP4       010VISTA          000000000002900000000030000000000290000000000000000000030000063213400
0202LOTE PADRAO                   BRASIL TELECPN *       BRTO4       010VISTA          000000000012800000000134000000001280000000000000000000131000059068800
0202LOTE PADRAO                   SABESP      ON *       SBSP3       010VISTA          000000000151000000001510000000014850000000000000000001494000001716700
0202LOTE PADRAO                   BRASKEM     PNA*       BRKM5       010VISTA          000000000529400000005309000000051700000000000000000005238000000091500
0202LOTE PADRAO                   EMBRAER     PN EJ      EMBR4       010VISTA          000000000012800000000132000000001280000000000000000000131000000195000
0202LOTE PADRAO                   TELESP      PN * EJ    TLPP4       010VISTA          000000000033400000000335000000003250000000000000000000328000013654600
0202LOTE PADRAO                   EMBRAER     ON EJ      EMBR3       010VISTA          000000000011500000000120000000001150000000000000000000120000000041000
0202LOTE PADRAO                   AMBEV       PN *       AMBV4       010VISTA          000000000480000000004920000000048000000000000000000004810000001315300
0202LOTE PADRAO                   USIMINAS    PNA        USIM5       010VISTA          000000000008100000000083000000000810000000000000000000081000000034800
0202LOTE PADRAO                   ELETROPAULO PN *       ELPL4       010VISTA          000000000063800000000654000000006350000000000000000000654000002540400
0202LOTE PADRAO                   TELE NORD CLPN *       TNEP4       010VISTA          000000000002520000000025600000000240000000000000000000025200145872000
0202LOTE PADRAO                   CEMIG       PN * EJ    CMIG4       010VISTA          000000000037200000000372000000003630000000000000000000371000028145200
0202LOTE PADRAO                   TELE CL SUL PN * EJ    TCSL4       010VISTA          000000000003100000000031000000000300000000000000000000031000058153200
0202LOTE PADRAO                   TRACTEBEL   ON *       TBLE3       010VISTA          000000000004500000000046000000000450000000000000000000045000022369800
0202LOTE PADRAO                   CEMIG       ON * EJ    CMIG3       010VISTA          000000000033900000000339000000003300000000000000000000330000000176200
0202LOTE PADRAO                   TELE CL SUL ON * EJ    TCSL3       010VISTA          000000000002700000000027000000000260000000000000000000026000016705900
0202LOTE PADRAO                   ITAUSA      PN         ITSA4       010VISTA          000000000002300000000023000000000230000000000000000000023000000171500
0202LOTE PADRAO                   V C P       PN *       VCPA4       010VISTA          000000000092500000000945000000009250000000000000000000940000005786200
0202LOTE PADRAO                   SID TUBARAO PN *       CSTB4       010VISTA          000000000026800000000279000000002670000000000000000000277000015672900
0202LOTE PADRAO                   BRADESPAR   PN *       BRAP4       010VISTA          000000000000710000000007200000000070000000000000000000007000062386800
0202LOTE PADRAO                   NET         PN         PLIM4       010VISTA          000000000000350000000003600000000034000000000000000000003500000932000
0202LOTE PADRAO                   TELE CTR OESPN * EJ    TCOC4       010VISTA          000000000004700000000048000000000475000000000000000000048000094476800
0202LOTE PADRAO                   TELEMAR N L PNA* EJ    TMAR5       010VISTA          000000000053000000000538000000005230000000000000000000537000047370100
0202LOTE PADRAO                   GERDAU      PN * EJ    GGBR4       010VISTA          000000000030700000000316000000003040000000000000000000316000036347000
0202LOTE PADRAO                   BRASIL      ON *       BBAS3       010VISTA          000000000013600000000144000000001360000000000000000000141000015608700
