00BDIN9999BOVESPA 99992002041520020415
0101IBOVESPA                      0137720134380138220000000000000000002002041500000020020415013472000000
0202LOTE PADRAO                   EMBRATEL PARPN *       EBTP4       010VISTA          000000000007300000000073000000000680000000000000000000069000151573000
0202LOTE PADRAO                   TRAN PAULISTPN * EJ    TRPL4       010VISTA          000000000007600000000076000000000725000000000000000000072500021127800
0202LOTE PADRAO                   EMBRATEL PARON *       EBTP3       010VISTA          000000000008600000000088000000000840000000000000000000084000042554700
0202LOTE PADRAO                   TELEMAR     PN * EJ    TNLP4       010VISTA          000000000031600000000322500000003100000000000000000000313000457640000
0202LOTE PADRAO                   ITAUBANCO   PN * EJ    ITAU4       010VISTA          000000000191300000001950000000018900000000000000000001890000013420200
0202LOTE PADRAO                   TELEMAR     ON * EJ    TNLP3       010VISTA          000000000028000000000280000000002700000000000000000000275000014367400
0202LOTE PADRAO                   SID NACIONALON *       CSNA3       010VISTA          000000000046500000000465000000004450000000000000000000455000009521600
0202LOTE PADRAO                   TELE LEST CLPN *       TLCP4       010VISTA          000000000000730000000007500000000070000000000000000000007100252634000
0202LOTE PADRAO                   CRT CELULAR PNA* EJ    CRTP5       010VISTA          000000000445000000004450000000042190000000000000000004350000000544300
0202LOTE PADRAO                   IPIRANGA PETPN *       PTIP4       010VISTA          000000000014500000000148000000001410000000000000000000148000005674500
0202LOTE PADRAO                   BRASIL T PARPN *       BRTP4       010VISTA          000000000018600000000190000000001820000000000000000000188000146343000
0202LOTE PADRAO                   BRASIL T PARON *       BRTP3       010VISTA          000000000017600000000185000000001720000000000000000000182000012993100
0202LOTE PADRAO                   KLABIN S/A  PN         KLBN4       010VISTA          000000000001100000000011000000000100000000000000000000010000000031400
0202LOTE PADRAO                   ACESITA     PN *       ACES4       010VISTA          000000000000770000000007900000000075000000000000000000007500218037000
0202LOTE PADRAO                   PETROBRAS   PN         PETR4       010VISTA          000000000056000000000563000000005550000000000000000000557000000203400
0202LOTE PADRAO                   ELETROBRAS  PNB*       ELET6       010VISTA          000000000037250000000374000000003620000000000000000000366000033919800
0202LOTE PADRAO                   PETROBRAS   ON         PETR3       010VISTA          000000000058200000000592000000005820000000000000000000587000000050600
0202LOTE PADRAO                   COMGAS      PNA*       CGAS5       010VISTA          000000000077500000000775000000007490000000000000000000750000001419000
0202LOTE PADRAO                   SOUZA CRUZ  ON EJ      CRUZ3       010VISTA          000000000015500000000159000000001540000000000000000000155000000017200
0202LOTE PADRAO                   ELETROBRAS  ON *       ELET3       010VISTA          000000000041000000000414000000004000000000000000000000401000013275500
0202LOTE PADRAO                   CELESC      PNB        CLSC6       010VISTA          000000000000580000000005800000000055000000000000000000005600000207700
0202LOTE PADRAO                   BRADESCO    PN * EJ    BBDC4       010VISTA          000000000015100000000151000000001450000000000000000000147500255458000
0202LOTE PADRAO                   CESP        PN *       CESP4       010VISTA          000000000015000000000154000000001380000000000000000000140000015026000
0202LOTE PADRAO                   LIGHT       ON *       LIGH3       010VISTA          000000000106000000001060000000010100000000000000000001015000000371100
0202LOTE PADRAO                   TELESP CL PAPN *       TSPP4       010VISTA          000000000006000000000061000000000580000000000000000000058000222278000
0202LOTE PADRAO                   VALE R DOCE PNA        VALE5       010VISTA          000000000063700000000644000000006370000000000000000000640000000033800
0202LOTE PADRAO                   COPEL       PNB*       CPLE6       010VISTA          000000000018500000000186000000001800000000000000000000182000055492900
0202LOTE PADRAO                   VALE R DOCE ON         VALE3       010VISTA          000000000064900000000655000000006490000000000000000000650000000032200
0202LOTE PADRAO                   ARACRUZ     PNB        ARCZ6       010VISTA          000000000004700000000048000000000471000000000000000000048000000073900
0202LOTE PADRAO                   TELEMIG PARTPN *       TMCP4       010VISTA          000000000003100000000031000000000298000000000000000000030000157101000
0202LOTE PADRAO                   BRASIL TELECPN *       BRTO4       010VISTA          000000000013300000000134000000001280000000000000000000133000103899000
0202LOTE PADRAO                   SABESP      ON *       SBSP3       010VISTA          000000000137000000001370000000013200000000000000000001365000002109800
0202LOTE PADRAO                   BRASKEM     PNA*       BRKM5       010VISTA          000000000519500000005195000000050510000000000000000005100000000454400
0202LOTE PADRAO                   EMBRAER     PN EJ      EMBR4       010VISTA          000000000012000000000124000000001200000000000000000000122500000132200
0202LOTE PADRAO                   TELESP      PN * EJ    TLPP4       010VISTA          000000000034600000000346000000003360000000000000000000340000006998700
0202LOTE PADRAO                   EMBRAER     ON EJ      EMBR3       010VISTA          000000000011500000000116000000001130000000000000000000114000000044000
0202LOTE PADRAO                   AMBEV       PN *       AMBV4       010VISTA          000000000485000000004930000000048500000000000000000004855000006089500
0202LOTE PADRAO                   USIMINAS    PNA        USIM5       010VISTA          000000000008000000000081000000000790000000000000000000079000000111800
0202LOTE PADRAO                   ELETROPAULO PN *       ELPL4       010VISTA          000000000068500000000685000000006500000000000000000000655000004432900
0202LOTE PADRAO                   TELE NORD CLPN *       TNEP4       010VISTA          000000000002770000000027900000000260000000000000000000026000174894000
0202LOTE PADRAO                   CEMIG       PN * EJ    CMIG4       010VISTA          000000000036800000000372000000003610000000000000000000369000053135300
0202LOTE PADRAO                   TELE CL SUL PN * EJ    TCSL4       010VISTA          000000000003100000000031000000000298000000000000000000030000096018900
0202LOTE PADRAO                   TRACTEBEL   ON *       TBLE3       010VISTA          000000000004400000000047500000000420000000000000000000046000020227000
0202LOTE PADRAO                   CEMIG       ON * EJ    CMIG3       010VISTA          000000000033800000000338000000003300000000000000000000332000000870000
0202LOTE PADRAO                   TELE CL SUL ON * EJ    TCSL3       010VISTA          000000000002600000000027000000000250000000000000000000026000038069000
0202LOTE PADRAO                   ITAUSA      PN         ITSA4       010VISTA          000000000002520000000025200000000240000000000000000000024000000185600
0202LOTE PADRAO                   V C P       PN *       VCPA4       010VISTA          000000000090600000000930000000009060000000000000000000906000001837900
0202LOTE PADRAO                   SID TUBARAO PN *       CSTB4       010VISTA          000000000025000000000251000000002500000000000000000000251000005820500
0202LOTE PADRAO                   BRADESPAR   PN *       BRAP4       010VISTA          000000000000770000000007700000000073000000000000000000007400197079000
0202LOTE PADRAO                   NET         PN         PLIM4       010VISTA          000000000000500000000005100000000046000000000000000000004600002455000
0202LOTE PADRAO                   TELE CTR OESPN * EJ    TCOC4       010VISTA          000000000004800000000048000000000460000000000000000000046000079676700
0202LOTE PADRAO                   TELEMAR N L PNA* EJ    TMAR5       010VISTA          000000000053400000000537000000005250000000000000000000532000021573700
0202LOTE PADRAO                   GERDAU      PN * EJ    GGBR4       010VISTA          000000000029800000000305000000002960000000000000000000303000030271400
0202LOTE PADRAO                   BRASIL      ON *       BBAS3       010VISTA          000000000015250000000152500000001430000000000000000000143000022867400
