00BDIN9999BOVESPA 99992002071920020719
0101IBOVESPA                      0108130105450108130000000000000000002002071900000020020719010583000000
0202LOTE PADRAO                   EMBRATEL PARPN *       EBTP4       010VISTA          000000000001530000000016000000000148000000000000000000015000290340000
0202LOTE PADRAO                   TRAN PAULISTPN * EJ    TRPL4       010VISTA          000000000005800000000058000000000550000000000000000000055000008105500
0202LOTE PADRAO                   EMBRATEL PARON *       EBTP3       010VISTA          000000000002200000000023000000000210000000000000000000022000080253100
0202LOTE PADRAO                   TELEMAR     PN * EJ    TNLP4       010VISTA          000000000026800000000271000000002630000000000000000000265000126824000
0202LOTE PADRAO                   ITAUBANCO   PN * EJ    ITAU4       010VISTA          000000000168000000001700000000016600000000000000000001670000007316600
0202LOTE PADRAO                   TELEMAR     ON * EJ    TNLP3       010VISTA          000000000021000000000211000000002060000000000000000000206000020132000
0202LOTE PADRAO                   SID NACIONALON *       CSNA3       010VISTA          000000000055000000000556000000005270000000000000000000530000041322500
0202LOTE PADRAO                   TELE LEST CLPN *       TLCP4       010VISTA          000000000000520000000005300000000047000000000000000000004800197147000
0202LOTE PADRAO                   CRT CELULAR PNA* EJ    CRTP5       010VISTA          000000000400000000004049000000038600000000000000000003920000000132500
0202LOTE PADRAO                   IPIRANGA PETPN *       PTIP4       010VISTA          000000000013000000000130000000001250000000000000000000129000000359600
0202LOTE PADRAO                   BRASIL T PARPN *       BRTP4       010VISTA          000000000016600000000168000000001600000000000000000000161000034890300
0202LOTE PADRAO                   BRASIL T PARON *       BRTP3       010VISTA          000000000013800000000138000000001350000000000000000000136000007044300
0202LOTE PADRAO                   KLABIN S/A  PN         KLBN4       010VISTA          000000000000870000000008900000000086000000000000000000008600000062200
0202LOTE PADRAO                   ACESITA     PN *       ACES4       010VISTA          000000000000610000000006400000000061000000000000000000006300229319000
0202LOTE PADRAO                   PETROBRAS   PN         PETR4       010VISTA          000000000044700000000447000000004370000000000000000000440000000059100
0202LOTE PADRAO                   ELETROBRAS  PNB*       ELET6       010VISTA          000000000023500000000235000000002260000000000000000000228000051792600
0202LOTE PADRAO                   PETROBRAS   ON         PETR3       010VISTA          000000000048100000000483000000004710000000000000000000472000000016600
0202LOTE PADRAO                   COMGAS      PNA*       CGAS5       010VISTA          000000000058000000000580000000005420000000000000000000557000000263000
0202LOTE PADRAO                   SOUZA CRUZ  ON EJ      CRUZ3       010VISTA          000000000015000000000163000000001500000000000000000000159000000054600
0202LOTE PADRAO                   ELETROBRAS  ON *       ELET3       010VISTA          000000000025600000000260000000002480000000000000000000248000022000600
0202LOTE PADRAO                   CELESC      PNB        CLSC6       010VISTA          000000000000580000000005900000000057000000000000000000005700000043000
0202LOTE PADRAO                   BRADESCO    PN * EJ    BBDC4       010VISTA          000000000011400000000115000000001130000000000000000000114000116238000
0202LOTE PADRAO                   CESP        PN *       CESP4       010VISTA          000000000007900000000081000000000780000000000000000000079000004819000
0202LOTE PADRAO                   LIGHT       ON *       LIGH3       010VISTA          000000000087900000000879000000008340000000000000000000834000000140000
0202LOTE PADRAO                   TELESP CL PAPN *       TSPP4       010VISTA          000000000003400000000035000000000340000000000000000000034000319704000
0202LOTE PADRAO                   VALE R DOCE PNA        VALE5       010VISTA          000000000068800000000705000000006850000000000000000000705000000044700
0202LOTE PADRAO                   COPEL       PNB*       CPLE6       010VISTA          000000000011900000000119000000001150000000000000000000115000030185000
0202LOTE PADRAO                   VALE R DOCE ON         VALE3       010VISTA          000000000076000000000765000000007600000000000000000000762000000007800
0202LOTE PADRAO                   ARACRUZ     PNB        ARCZ6       010VISTA          000000000005400000000054000000000510000000000000000000054000000050300
0202LOTE PADRAO                   TELEMIG PARTPN *       TMCP4       010VISTA          000000000003100000000033000000000310000000000000000000031000106091000
0202LOTE PADRAO                   BRASIL TELECPN *       BRTO4       010VISTA          000000000011300000000115000000001110000000000000000000111000046292100
0202LOTE PADRAO                   SABESP      ON *       SBSP3       010VISTA          000000000101500000001015000000009700000000000000000000970000000513800
0202LOTE PADRAO                   BRASKEM     PNA*       BRKM5       010VISTA          000000000398900000004120000000039400000000000000000004070000000060700
0202LOTE PADRAO                   EMBRAER     PN EJ      EMBR4       010VISTA          000000000015000000000150000000001460000000000000000000148000000050000
0202LOTE PADRAO                   TELESP      PN * EJ    TLPP4       010VISTA          000000000034000000000340000000003310000000000000000000336000016897000
0202LOTE PADRAO                   EMBRAER     ON EJ      EMBR3       010VISTA          000000000013900000000140000000001350000000000000000000135000000003900
0202LOTE PADRAO                   AMBEV       PN *       AMBV4       010VISTA          000000000450000000004500000000043990000000000000000004440000000816300
0202LOTE PADRAO                   USIMINAS    PNA        USIM5       010VISTA          000000000006400000000065000000000620000000000000000000063000000061000
0202LOTE PADRAO                   ELETROPAULO PN *       ELPL4       010VISTA          000000000043000000000444000000004170000000000000000000425000002552600
0202LOTE PADRAO                   TELE NORD CLPN *       TNEP4       010VISTA          000000000002730000000027900000000270000000000000000000027000055141000
0202LOTE PADRAO                   CEMIG       PN * EJ    CMIG4       010VISTA          000000000029900000000299000000002880000000000000000000288000032300700
0202LOTE PADRAO                   TELE CL SUL PN * EJ    TCSL4       010VISTA          000000000003100000000031000000000300000000000000000000030000050100300
0202LOTE PADRAO                   TRACTEBEL   ON *       TBLE3       010VISTA          000000000004000000000040000000000400000000000000000000040000017350500
0202LOTE PADRAO                   CEMIG       ON * EJ    CMIG3       010VISTA          000000000028750000000287500000002780000000000000000000280000001726000
0202LOTE PADRAO                   TELE CL SUL ON * EJ    TCSL3       010VISTA          000000000002500000000025000000000240000000000000000000024000006294800
0202LOTE PADRAO                   ITAUSA      PN         ITSA4       010VISTA          000000000001900000000019400000000180000000000000000000019000000243000
0202LOTE PADRAO                   V C P       PN *       VCPA4       010VISTA          000000000096500000000970000000009300000000000000000000931000003202800
0202LOTE PADRAO                   SID TUBARAO PN *       CSTB4       010VISTA          000000000027900000000283000000002750000000000000000000276000010936600
0202LOTE PADRAO                   BRADESPAR   PN *       BRAP4       010VISTA          000000000000500000000005100000000049000000000000000000005000081317400
0202LOTE PADRAO                   NET         PN         PLIM4       010VISTA          000000000001600000000016000000000152000000000000000000015400000057000
0202LOTE PADRAO                   TELE CTR OESPN * EJ    TCOC4       010VISTA          000000000004000000000042000000000400000000000000000000040000074471900
0202LOTE PADRAO                   TELEMAR N L PNA* EJ    TMAR5       010VISTA          000000000045250000000468000000004525000000000000000000452500015431000
0202LOTE PADRAO                   GERDAU      PN * EJ    GGBR4       010VISTA          000000000030200000000306000000002980000000000000000000298000026490500
0202LOTE PADRAO                   BRASIL      ON *       BBAS3       010VISTA          000000000010900000000109000000001060000000000000000000106000014762600
