00BDIN9999BOVESPA 99992002022520020225
0101IBOVESPA                      0135670135670140050000000000000000002002022500000020020225013978000000
0202LOTE PADRAO                   EMBRATEL PARPN *       EBTP4       010VISTA          000000000008800000000090000000000880000000000000000000088000169446000
0202LOTE PADRAO                   EMBRATEL PARON *       EBTP3       010VISTA          000000000010900000000110000000001080000000000000000000110000018524200
0202LOTE PADRAO                   TRAN PAULISTPN * EJ    TRPL4       010VISTA          000000000007750000000078000000000760000000000000000000078000015912200
0202LOTE PADRAO                   TELEMAR     PN * EJ    TNLP4       010VISTA          000000000035000000000362500000003480000000000000000000362000287766000
0202LOTE PADRAO                   ITAUBANCO   PN * EJ    ITAU4       010VISTA          000000000193900000002021000000019390000000000000000002010000027578300
0202LOTE PADRAO                   TELEMAR     ON * EJ    TNLP3       010VISTA          000000000031000000000315000000003100000000000000000000313000009712700
0202LOTE PADRAO                   SID NACIONALON *       CSNA3       010VISTA          000000000040000000000410000000004000000000000000000000405000010200700
0202LOTE PADRAO                   TELE LEST CLPN *       TLCP4       010VISTA          000000000000830000000008800000000083000000000000000000008700163936000
0202LOTE PADRAO                   CRT CELULAR PNA* EJ    CRTP5       010VISTA          000000000472900000004729000000045800000000000000000004650000000941000
0202LOTE PADRAO                   IPIRANGA PETPN *       PTIP4       010VISTA          000000000013500000000136000000001330000000000000000000135000006464000
0202LOTE PADRAO                   BRASIL T PARPN *       BRTP4       010VISTA          000000000018500000000188000000001800000000000000000000185000083908100
0202LOTE PADRAO                   BRASIL T PARON *       BRTP3       010VISTA          000000000018600000000189000000001830000000000000000000186000005927600
0202LOTE PADRAO                   KLABIN S/A  PN         KLBN4       010VISTA          000000000001100000000012700000000110000000000000000000012700000122000
0202LOTE PADRAO                   ACESITA     PN *       ACES4       010VISTA          000000000000720000000007500000000072000000000000000000007400268752000
0202LOTE PADRAO                   PETROBRAS   PN         PETR4       010VISTA          000000000052400000000532000000005210000000000000000000530000000111600
0202LOTE PADRAO                   ELETROBRAS  PNB*       ELET6       010VISTA          000000000035700000000371000000003570000000000000000000367000040565400
0202LOTE PADRAO                   PETROBRAS   ON         PETR3       010VISTA          000000000054000000000548000000005380000000000000000000548000000031400
0202LOTE PADRAO                   COMGAS      PNA*       CGAS5       010VISTA          000000000090400000000930000000009040000000000000000000917000000916800
0202LOTE PADRAO                   SOUZA CRUZ  ON EJ      CRUZ3       010VISTA          000000000014600000000150000000001460000000000000000000150000000013900
0202LOTE PADRAO                   ELETROBRAS  ON *       ELET3       010VISTA          000000000042000000000429000000004170000000000000000000422000011409100
0202LOTE PADRAO                   CELESC      PNB        CLSC6       010VISTA          000000000000570000000005800000000056000000000000000000005700000336000
0202LOTE PADRAO                   BRADESCO    PN * EJ    BBDC4       010VISTA          000000000013300000000139000000001320000000000000000000139000201140000
0202LOTE PADRAO                   CESP        PN *       CESP4       010VISTA          000000000015400000000161000000001540000000000000000000159000009234300
0202LOTE PADRAO                   LIGHT       ON *       LIGH3       010VISTA          000000000123900000001280000000012390000000000000000001265000000785300
0202LOTE PADRAO                   TELESP CL PAPN *       TSPP4       010VISTA          000000000007300000000075000000000730000000000000000000074000260008000
0202LOTE PADRAO                   VALE R DOCE PNA        VALE5       010VISTA          000000000060700000000607000000005980000000000000000000600000000047900
0202LOTE PADRAO                   COPEL       PNB*       CPLE6       010VISTA          000000000018000000000183000000001800000000000000000000180000027708600
0202LOTE PADRAO                   VALE R DOCE ON         VALE3       010VISTA          000000000061500000000615000000006050000000000000000000605000000005600
0202LOTE PADRAO                   ARACRUZ     PNB        ARCZ6       010VISTA          000000000004700000000048000000000470000000000000000000047500000030700
0202LOTE PADRAO                   TELEMIG PARTPN *       TMCP4       010VISTA          000000000003500000000036000000000350000000000000000000035000170703000
0202LOTE PADRAO                   BRASIL TELECPN *       BRTO4       010VISTA          000000000013100000000135000000001310000000000000000000134000087808500
0202LOTE PADRAO                   SABESP      ON *       SBSP3       010VISTA          000000000130000000001318000000013000000000000000000001306000002915500
0202LOTE PADRAO                   BRASKEM     PNA*       BRKM5       010VISTA          000000000528900000005360000000052490000000000000000005290000000144000
0202LOTE PADRAO                   EMBRAER     PN EJ      EMBR4       010VISTA          000000000014100000000141000000001310000000000000000000131000000325400
0202LOTE PADRAO                   TELESP      PN * EJ    TLPP4       010VISTA          000000000032000000000322000000003160000000000000000000320000017086900
0202LOTE PADRAO                   EMBRAER     ON EJ      EMBR3       010VISTA          000000000013100000000132000000001240000000000000000000125000000056400
0202LOTE PADRAO                   AMBEV       PN *       AMBV4       010VISTA          000000000465600000004699000000044000000000000000000004482000003237400
0202LOTE PADRAO                   USIMINAS    PNA        USIM5       010VISTA          000000000007700000000079600000000770000000000000000000078000000048500
0202LOTE PADRAO                   ELETROPAULO PN *       ELPL4       010VISTA          000000000065900000000680000000006440000000000000000000677000006186000
0202LOTE PADRAO                   TELE NORD CLPN *       TNEP4       010VISTA          000000000002800000000030000000000280000000000000000000030000175300000
0202LOTE PADRAO                   CEMIG       PN * EJ    CMIG4       010VISTA          000000000036700000000375000000003650000000000000000000375000026923200
0202LOTE PADRAO                   TELE CL SUL PN * EJ    TCSL4       010VISTA          000000000003200000000032000000000320000000000000000000032000090505800
0202LOTE PADRAO                   CEMIG       ON * EJ    CMIG3       010VISTA          000000000033500000000345000000003350000000000000000000344000001949400
0202LOTE PADRAO                   TELE CL SUL ON * EJ    TCSL3       010VISTA          000000000002800000000029000000000280000000000000000000029400018563800
0202LOTE PADRAO                   ITAUSA      PN         ITSA4       010VISTA          000000000002200000000023000000000220000000000000000000023000000779900
0202LOTE PADRAO                   V C P       PN *       VCPA4       010VISTA          000000000088000000000885000000008790000000000000000000879000002437700
0202LOTE PADRAO                   SID TUBARAO PN *       CSTB4       010VISTA          000000000024000000000251000000002400000000000000000000250000012797600
0202LOTE PADRAO                   BRADESPAR   PN *       BRAP4       010VISTA          000000000000790000000008000000000078000000000000000000007900314288000
0202LOTE PADRAO                   NET         PN         PLIM4       010VISTA          000000000000660000000006900000000065000000000000000000006900001366400
0202LOTE PADRAO                   TELE CTR OESPN * EJ    TCOC4       010VISTA          000000000004600000000047900000000450000000000000000000047500158634000
0202LOTE PADRAO                   TELEMAR N L PNA* EJ    TMAR5       010VISTA          000000000059000000000603000000005900000000000000000000602000034298500
0202LOTE PADRAO                   GERDAU      PN * EJ    GGBR4       010VISTA          000000000027000000000281000000002700000000000000000000278000028617500
0202LOTE PADRAO                   BRASIL      ON *       BBAS3       010VISTA          000000000010800000000111000000001075000000000000000000111000007285600
