00BDIN9999BOVESPA 99992002031820020318
0101IBOVESPA                      0143660142170144950000000000000000002002031800000020020318014245000000
0202LOTE PADRAO                   EMBRATEL PARPN *       EBTP4       010VISTA          000000000009100000000091000000000880000000000000000000088000128426000
0202LOTE PADRAO                   TRAN PAULISTPN * EJ    TRPL4       010VISTA          000000000007800000000078000000000775000000000000000000078000005527600
0202LOTE PADRAO                   EMBRATEL PARON *       EBTP3       010VISTA          000000000011400000000114000000001080000000000000000000109000017553500
0202LOTE PADRAO                   TELEMAR     PN * EJ    TNLP4       010VISTA          000000000033200000000337500000003300000000000000000000332000123014000
0202LOTE PADRAO                   ITAUBANCO   PN * EJ    ITAU4       010VISTA          000000000195000000001950000000019160000000000000000001935000008052000
0202LOTE PADRAO                   TELEMAR     ON * EJ    TNLP3       010VISTA          000000000029800000000300000000002920000000000000000000298000006358600
0202LOTE PADRAO                   SID NACIONALON *       CSNA3       010VISTA          000000000049100000000493000000004810000000000000000000481000003263500
0202LOTE PADRAO                   TELE LEST CLPN *       TLCP4       010VISTA          000000000000930000000009400000000089000000000000000000009100056676100
0202LOTE PADRAO                   CRT CELULAR PNA* EJ    CRTP5       010VISTA          000000000515000000005150000000048500000000000000000004940000000175200
0202LOTE PADRAO                   IPIRANGA PETPN *       PTIP4       010VISTA          000000000014500000000145000000001400000000000000000000140000001620500
0202LOTE PADRAO                   BRASIL T PARPN *       BRTP4       010VISTA          000000000020000000000203000000001990000000000000000000200000049750700
0202LOTE PADRAO                   BRASIL T PARON *       BRTP3       010VISTA          000000000020500000000205000000002000000000000000000000200000003221100
0202LOTE PADRAO                   KLABIN S/A  PN         KLBN4       010VISTA          000000000001300000000013000000000127000000000000000000012800000017700
0202LOTE PADRAO                   ACESITA     PN *       ACES4       010VISTA          000000000000810000000008300000000080000000000000000000008300353727000
0202LOTE PADRAO                   PETROBRAS   PN         PETR4       010VISTA          000000000060400000000607000000006000000000000000000000602000000089700
0202LOTE PADRAO                   ELETROBRAS  PNB*       ELET6       010VISTA          000000000039000000000390000000003740000000000000000000375000037146300
0202LOTE PADRAO                   PETROBRAS   ON         PETR3       010VISTA          000000000063100000000640000000006280000000000000000000630000000028600
0202LOTE PADRAO                   COMGAS      PNA*       CGAS5       010VISTA          000000000092200000000935000000008950000000000000000000910000000890000
0202LOTE PADRAO                   SOUZA CRUZ  ON EJ      CRUZ3       010VISTA          000000000014800000000150000000001480000000000000000000148000000007600
0202LOTE PADRAO                   ELETROBRAS  ON *       ELET3       010VISTA          000000000043500000000435000000004210000000000000000000421000015742300
0202LOTE PADRAO                   CELESC      PNB        CLSC6       010VISTA          000000000000600000000006100000000058000000000000000000006000000078400
0202LOTE PADRAO                   BRADESCO    PN * EJ    BBDC4       010VISTA          000000000014000000000144000000001390000000000000000000143000128419000
0202LOTE PADRAO                   CESP        PN *       CESP4       010VISTA          000000000017000000000173000000001680000000000000000000168000008204200
0202LOTE PADRAO                   LIGHT       ON *       LIGH3       010VISTA          000000000127800000001278000000012350000000000000000001235000000415000
0202LOTE PADRAO                   TELESP CL PAPN *       TSPP4       010VISTA          000000000006400000000065000000000630000000000000000000063000095574400
0202LOTE PADRAO                   VALE R DOCE PNA        VALE5       010VISTA          000000000061900000000619000000006000000000000000000000600000000055300
0202LOTE PADRAO                   COPEL       PNB*       CPLE6       010VISTA          000000000018600000000193000000001820000000000000000000183000046790400
0202LOTE PADRAO                   VALE R DOCE ON         VALE3       010VISTA          000000000061500000000618000000006120000000000000000000612000000021400
0202LOTE PADRAO                   ARACRUZ     PNB        ARCZ6       010VISTA          000000000005100000000051000000000470000000000000000000047000000022500
0202LOTE PADRAO                   TELEMIG PARTPN *       TMCP4       010VISTA          000000000003800000000038000000000360000000000000000000036000079398300
0202LOTE PADRAO                   BRASIL TELECPN *       BRTO4       010VISTA          000000000014400000000148000000001425000000000000000000143000057814900
0202LOTE PADRAO                   SABESP      ON *       SBSP3       010VISTA          000000000139000000001415000000013900000000000000000001400000001565400
0202LOTE PADRAO                   BRASKEM     PNA*       BRKM5       010VISTA          000000000597900000005979000000058990000000000000000005900000000073300
0202LOTE PADRAO                   EMBRAER     PN EJ      EMBR4       010VISTA          000000000012800000000131000000001280000000000000000000130000000083400
0202LOTE PADRAO                   TELESP      PN * EJ    TLPP4       010VISTA          000000000036500000000372000000003550000000000000000000360000008676100
0202LOTE PADRAO                   EMBRAER     ON EJ      EMBR3       010VISTA          000000000012200000000124000000001220000000000000000000123000000011300
0202LOTE PADRAO                   AMBEV       PN *       AMBV4       010VISTA          000000000453000000004630000000045050000000000000000004560000004712400
0202LOTE PADRAO                   USIMINAS    PNA        USIM5       010VISTA          000000000008000000000081000000000800000000000000000000081000000146200
0202LOTE PADRAO                   ELETROPAULO PN *       ELPL4       010VISTA          000000000071000000000715000000006800000000000000000000690000003415100
0202LOTE PADRAO                   TELE NORD CLPN *       TNEP4       010VISTA          000000000003400000000034000000000320000000000000000000032000061256100
0202LOTE PADRAO                   CEMIG       PN * EJ    CMIG4       010VISTA          000000000039700000000397000000003810000000000000000000382500032215100
0202LOTE PADRAO                   TELE CL SUL PN * EJ    TCSL4       010VISTA          000000000003600000000036000000000350000000000000000000036000042065400
0202LOTE PADRAO                   TRACTEBEL   ON *       TBLE3       010VISTA          000000000004100000000041000000000400000000000000000000040000017380200
0202LOTE PADRAO                   CEMIG       ON * EJ    CMIG3       010VISTA          000000000036000000000360000000003400000000000000000000340000000296100
0202LOTE PADRAO                   TELE CL SUL ON * EJ    TCSL3       010VISTA          000000000003200000000032000000000310000000000000000000031000006742200
0202LOTE PADRAO                   ITAUSA      PN         ITSA4       010VISTA          000000000002400000000024000000000230000000000000000000023000000277800
0202LOTE PADRAO                   V C P       PN *       VCPA4       010VISTA          000000000093000000000930000000009100000000000000000000910000001839300
0202LOTE PADRAO                   SID TUBARAO PN *       CSTB4       010VISTA          000000000027300000000273000000002580000000000000000000261000006864500
0202LOTE PADRAO                   BRADESPAR   PN *       BRAP4       010VISTA          000000000000820000000008200000000079000000000000000000007900071273000
0202LOTE PADRAO                   NET         PN         PLIM4       010VISTA          000000000000640000000006400000000058000000000000000000005800002000600
0202LOTE PADRAO                   TELE CTR OESPN * EJ    TCOC4       010VISTA          000000000005200000000052000000000500000000000000000000050000055554500
0202LOTE PADRAO                   TELEMAR N L PNA* EJ    TMAR5       010VISTA          000000000059600000000596000000005870000000000000000000590000012631100
0202LOTE PADRAO                   GERDAU      PN * EJ    GGBR4       010VISTA          000000000028600000000288000000002810000000000000000000288000018257100
0202LOTE PADRAO                   BRASIL      ON *       BBAS3       010VISTA          000000000011900000000119000000001160000000000000000000119000005754100
