00BDIN9999BOVESPA 99992002082820020828
0101IBOVESPA                      0103830102310104360000000000000000002002082800000020020828010380000000
0202LOTE PADRAO                   EMBRATEL PARPN *       EBTP4       010VISTA          000000000002600000000029000000000254000000000000000000029000891025000
0202LOTE PADRAO                   EMBRATEL PARON *       EBTP3       010VISTA          000000000003200000000037500000000310000000000000000000037500091723600
0202LOTE PADRAO                   TRAN PAULISTPN * EJ    TRPL4       010VISTA          000000000005800000000059000000000560000000000000000000058000016744400
0202LOTE PADRAO                   ITAUBANCO   PN * EJ    ITAU4       010VISTA          000000000144500000001460000000014050000000000000000001405000016408100
0202LOTE PADRAO                   TELEMAR     ON * EJ    TNLP3       010VISTA          000000000020000000000205000000001930000000000000000000204000046222100
0202LOTE PADRAO                   SID NACIONALON *       CSNA3       010VISTA          000000000042500000000425000000004120000000000000000000412000004276100
0202LOTE PADRAO                   TELE LEST CLPN *       TLCP4       010VISTA          000000000000430000000004400000000042000000000000000000004400217009000
0202LOTE PADRAO                   CRT CELULAR PNA* EJ    CRTP5       010VISTA          000000000390000000003900000000037500000000000000000003829000000870300
0202LOTE PADRAO                   IPIRANGA PETPN *       PTIP4       010VISTA          000000000011600000000116000000001120000000000000000000112000001361000
0202LOTE PADRAO                   BRASIL T PARPN *       BRTP4       010VISTA          000000000018800000000188000000001800000000000000000000181000107411000
0202LOTE PADRAO                   BRASIL T PARON *       BRTP3       010VISTA          000000000015000000000150000000001430000000000000000000143000007250000
0202LOTE PADRAO                   KLABIN S/A  PN         KLBN4       010VISTA          000000000000910000000009300000000089000000000000000000009300000029800
0202LOTE PADRAO                   ACESITA     PN *       ACES4       010VISTA          000000000000710000000007100000000068000000000000000000006900195621000
0202LOTE PADRAO                   PETROBRAS   PN         PETR4       010VISTA          000000000044000000000442000000004320000000000000000000437500000091300
0202LOTE PADRAO                   ELETROBRAS  PNB*       ELET6       010VISTA          000000000021500000000216000000002090000000000000000000211000058379200
0202LOTE PADRAO                   PETROBRAS   ON         PETR3       010VISTA          000000000048000000000482000000004710000000000000000000474000000034700
0202LOTE PADRAO                   COMGAS      PNA*       CGAS5       010VISTA          000000000052000000000535000000005130000000000000000000532000000909800
0202LOTE PADRAO                   SOUZA CRUZ  ON EJ      CRUZ3       010VISTA          000000000014300000000150000000001430000000000000000000148000000019700
0202LOTE PADRAO                   ELETROBRAS  ON *       ELET3       010VISTA          000000000022400000000224000000002175000000000000000000217500022286200
0202LOTE PADRAO                   CELESC      PNB        CLSC6       010VISTA          000000000000570000000005800000000056000000000000000000005800000577500
0202LOTE PADRAO                   BRADESCO    PN * EJ    BBDC4       010VISTA          000000000010000000000101000000000980000000000000000000098000186154000
0202LOTE PADRAO                   CESP        PN *       CESP4       010VISTA          000000000007400000000077000000000720000000000000000000077000010059200
0202LOTE PADRAO                   LIGHT       ON *       LIGH3       010VISTA          000000000076400000000790000000007630000000000000000000790000000602000
0202LOTE PADRAO                   TELESP CL PAPN *       TSPP4       010VISTA          000000000003700000000039000000000360000000000000000000039000925536000
0202LOTE PADRAO                   VALE R DOCE PNA        VALE5       010VISTA          000000000072500000000730000000007150000000000000000000722000000019100
0202LOTE PADRAO                   COPEL       PNB*       CPLE6       010VISTA          000000000010100000000101000000000980000000000000000000099000046324500
0202LOTE PADRAO                   VALE R DOCE ON         VALE3       010VISTA          000000000079000000000794000000007870000000000000000000787000000007600
0202LOTE PADRAO                   ARACRUZ     PNB        ARCZ6       010VISTA          000000000005790000000057900000000540000000000000000000056000000119300
0202LOTE PADRAO                   TELEMIG PARTPN *       TMCP4       010VISTA          000000000003000000000031000000000294000000000000000000030000132347000
0202LOTE PADRAO                   BRASIL TELECPN *       BRTO4       010VISTA          000000000012300000000128000000001180000000000000000000120000115908000
0202LOTE PADRAO                   SABESP      ON *       SBSP3       010VISTA          000000000084000000000877000000008390000000000000000000864000004936800
0202LOTE PADRAO                   BRASKEM     PNA*       BRKM5       010VISTA          000000000298000000002980000000028800000000000000000002950000000088200
0202LOTE PADRAO                   EMBRAER     PN EJ      EMBR4       010VISTA          000000000014000000000141000000001350000000000000000000137500000074400
0202LOTE PADRAO                   TELESP      PN * EJ    TLPP4       010VISTA          000000000033600000000347000000003300000000000000000000344000014026000
0202LOTE PADRAO                   EMBRAER     ON EJ      EMBR3       010VISTA          000000000012900000000129000000001240000000000000000000125000000018000
0202LOTE PADRAO                   AMBEV       PN *       AMBV4       010VISTA          000000000452900000004530000000042520000000000000000004420000001966100
0202LOTE PADRAO                   USIMINAS    PNA        USIM5       010VISTA          000000000005400000000056000000000530000000000000000000055000000059900
0202LOTE PADRAO                   ELETROPAULO PN *       ELPL4       010VISTA          000000000036500000000372000000003550000000000000000000362000004171100
0202LOTE PADRAO                   TELE NORD CLPN *       TNEP4       010VISTA          000000000002700000000027000000000260000000000000000000026000117376000
0202LOTE PADRAO                   CEMIG       PN * EJ    CMIG4       010VISTA          000000000027200000000275000000002660000000000000000000273000027136900
0202LOTE PADRAO                   TELE CL SUL PN * EJ    TCSL4       010VISTA          000000000002700000000027500000000260000000000000000000026000076997100
0202LOTE PADRAO                   TRACTEBEL   ON *       TBLE3       010VISTA          000000000004000000000040000000000380000000000000000000039000018271200
0202LOTE PADRAO                   CEMIG       ON * EJ    CMIG3       010VISTA          000000000024500000000248000000002430000000000000000000247000000354100
0202LOTE PADRAO                   TELE CL SUL ON * EJ    TCSL3       010VISTA          000000000002300000000023000000000220000000000000000000023000018057100
0202LOTE PADRAO                   ITAUSA      PN         ITSA4       010VISTA          000000000001750000000017600000000171000000000000000000017100000345500
0202LOTE PADRAO                   V C P       PN *       VCPA4       010VISTA          000000000104500000001045000000010250000000000000000001025000001251000
0202LOTE PADRAO                   SID TUBARAO PN *       CSTB4       010VISTA          000000000025300000000256000000002500000000000000000000251000003708000
0202LOTE PADRAO                   BRADESPAR   PN *       BRAP4       010VISTA          000000000000490000000005000000000048000000000000000000004900192001000
0202LOTE PADRAO                   NET         PN         PLIM4       010VISTA          000000000000400000000004200000000038000000000000000000004200001993700
0202LOTE PADRAO                   TELE CTR OESPN * EJ    TCOC4       010VISTA          000000000003000000000032000000000290000000000000000000031000159666000
0202LOTE PADRAO                   TELEMAR N L PNA* EJ    TMAR5       010VISTA          000000000046500000000465000000004550000000000000000000463000025545100
0202LOTE PADRAO                   GERDAU      PN * EJ    GGBR4       010VISTA          000000000032700000000329000000003210000000000000000000328000014657400
0202LOTE PADRAO                   BRASIL      ON *       BBAS3       010VISTA          000000000011200000000112000000001000000000000000000000104000006809600
