00BDIN9999BOVESPA 99992002050320020503
0101IBOVESPA                      0125570124310126790000000000000000002002050300000020020503012610000000
0202LOTE PADRAO                   EMBRATEL PARPN *       EBTP4       010VISTA          000000000005800000000058000000000560000000000000000000057500142739000
0202LOTE PADRAO                   TRAN PAULISTPN * EJ    TRPL4       010VISTA          000000000006000000000060000000000570000000000000000000058000010693700
0202LOTE PADRAO                   EMBRATEL PARON *       EBTP3       010VISTA          000000000007400000000075000000000730000000000000000000074000009763700
0202LOTE PADRAO                   TELEMAR     PN * EJ    TNLP4       010VISTA          000000000029000000000294000000002850000000000000000000291000307042000
0202LOTE PADRAO                   ITAUBANCO   PN * EJ    ITAU4       010VISTA          000000000178500000001835000000017800000000000000000001810000005938000
0202LOTE PADRAO                   TELEMAR     ON * EJ    TNLP3       010VISTA          000000000025500000000255000000002450000000000000000000253000014137600
0202LOTE PADRAO                   SID NACIONALON *       CSNA3       010VISTA          000000000045000000000450000000004370000000000000000000444000017717800
0202LOTE PADRAO                   TELE LEST CLPN *       TLCP4       010VISTA          000000000000720000000007700000000071000000000000000000007700157673000
0202LOTE PADRAO                   CRT CELULAR PNA* EJ    CRTP5       010VISTA          000000000391000000003950000000038500000000000000000003950000000559100
0202LOTE PADRAO                   IPIRANGA PETPN *       PTIP4       010VISTA          000000000013750000000141000000001360000000000000000000137500000711300
0202LOTE PADRAO                   BRASIL T PARPN *       BRTP4       010VISTA          000000000017500000000176000000001730000000000000000000174000046558500
0202LOTE PADRAO                   BRASIL T PARON *       BRTP3       010VISTA          000000000016250000000163000000001590000000000000000000163000005626800
0202LOTE PADRAO                   KLABIN S/A  PN         KLBN4       010VISTA          000000000001000000000010000000000095000000000000000000009500000032000
0202LOTE PADRAO                   ACESITA     PN *       ACES4       010VISTA          000000000000720000000007400000000071000000000000000000007300132250000
0202LOTE PADRAO                   PETROBRAS   PN         PETR4       010VISTA          000000000054000000000541000000005260000000000000000000541000000112700
0202LOTE PADRAO                   ELETROBRAS  PNB*       ELET6       010VISTA          000000000032000000000320000000003080000000000000000000315000043242300
0202LOTE PADRAO                   PETROBRAS   ON         PETR3       010VISTA          000000000056600000000572000000005570000000000000000000570000000037800
0202LOTE PADRAO                   COMGAS      PNA*       CGAS5       010VISTA          000000000071000000000729000000007100000000000000000000729000002569100
0202LOTE PADRAO                   SOUZA CRUZ  ON EJ      CRUZ3       010VISTA          000000000016300000000166000000001630000000000000000000165000000014700
0202LOTE PADRAO                   ELETROBRAS  ON *       ELET3       010VISTA          000000000035100000000351000000003410000000000000000000345000022229000
0202LOTE PADRAO                   CELESC      PNB        CLSC6       010VISTA          000000000000560000000005600000000054000000000000000000005500000246100
0202LOTE PADRAO                   BRADESCO    PN * EJ    BBDC4       010VISTA          000000000013300000000135000000001280000000000000000000130000258260000
0202LOTE PADRAO                   CESP        PN *       CESP4       010VISTA          000000000012000000000121000000001120000000000000000000112000011944900
0202LOTE PADRAO                   LIGHT       ON *       LIGH3       010VISTA          000000000091000000000949000000009000000000000000000000920000000329800
0202LOTE PADRAO                   TELESP CL PAPN *       TSPP4       010VISTA          000000000005700000000057000000000550000000000000000000056000123202000
0202LOTE PADRAO                   VALE R DOCE PNA        VALE5       010VISTA          000000000062700000000657000000006250000000000000000000650000000023100
0202LOTE PADRAO                   COPEL       PNB*       CPLE6       010VISTA          000000000015500000000158000000001490000000000000000000153000083810500
0202LOTE PADRAO                   VALE R DOCE ON         VALE3       010VISTA          000000000064500000000657000000006450000000000000000000655000000012300
0202LOTE PADRAO                   ARACRUZ     PNB        ARCZ6       010VISTA          000000000005000000000052000000000500000000000000000000052000000060100
0202LOTE PADRAO                   TELEMIG PARTPN *       TMCP4       010VISTA          000000000002300000000024000000000230000000000000000000024000138273000
0202LOTE PADRAO                   BRASIL TELECPN *       BRTO4       010VISTA          000000000012250000000123000000001180000000000000000000120000089092000
0202LOTE PADRAO                   SABESP      ON *       SBSP3       010VISTA          000000000139900000001400000000013400000000000000000001344000003253600
0202LOTE PADRAO                   BRASKEM     PNA*       BRKM5       010VISTA          000000000500000000005100000000049000000000000000000005000000000162200
0202LOTE PADRAO                   EMBRAER     PN EJ      EMBR4       010VISTA          000000000013500000000140000000001350000000000000000000139000000125300
0202LOTE PADRAO                   TELESP      PN * EJ    TLPP4       010VISTA          000000000031500000000320000000003080000000000000000000315000011325600
0202LOTE PADRAO                   EMBRAER     ON EJ      EMBR3       010VISTA          000000000012000000000124000000001200000000000000000000123000000031100
0202LOTE PADRAO                   AMBEV       PN *       AMBV4       010VISTA          000000000495000000004950000000048210000000000000000004900000001333200
0202LOTE PADRAO                   USIMINAS    PNA        USIM5       010VISTA          000000000007900000000080000000000779000000000000000000078000000096100
0202LOTE PADRAO                   ELETROPAULO PN *       ELPL4       010VISTA          000000000054200000000542000000005270000000000000000000533000006752700
0202LOTE PADRAO                   TELE NORD CLPN *       TNEP4       010VISTA          000000000002300000000023000000000210000000000000000000022500145819000
0202LOTE PADRAO                   CEMIG       PN * EJ    CMIG4       010VISTA          000000000034800000000352000000003400000000000000000000349000025289600
0202LOTE PADRAO                   TELE CL SUL PN * EJ    TCSL4       010VISTA          000000000002700000000027000000000260000000000000000000027100044525000
0202LOTE PADRAO                   TRACTEBEL   ON *       TBLE3       010VISTA          000000000004100000000042000000000410000000000000000000042500022410800
0202LOTE PADRAO                   CEMIG       ON * EJ    CMIG3       010VISTA          000000000030400000000304000000003000000000000000000000300000009216700
0202LOTE PADRAO                   TELE CL SUL ON * EJ    TCSL3       010VISTA          000000000002300000000024000000000220000000000000000000023000059228200
0202LOTE PADRAO                   ITAUSA      PN         ITSA4       010VISTA          000000000002200000000022000000000220000000000000000000022700001103300
0202LOTE PADRAO                   V C P       PN *       VCPA4       010VISTA          000000000092100000000940000000009100000000000000000000930000001861700
0202LOTE PADRAO                   SID TUBARAO PN *       CSTB4       010VISTA          000000000027500000000283000000002730000000000000000000276000013555100
0202LOTE PADRAO                   BRADESPAR   PN *       BRAP4       010VISTA          000000000000620000000006400000000059000000000000000000006400340557000
0202LOTE PADRAO                   NET         PN         PLIM4       010VISTA          000000000000300000000003300000000029000000000000000000003100004035600
0202LOTE PADRAO                   TELE CTR OESPN * EJ    TCOC4       010VISTA          000000000004500000000046000000000450000000000000000000045000071694100
0202LOTE PADRAO                   TELEMAR N L PNA* EJ    TMAR5       010VISTA          000000000050700000000511000000004960000000000000000000500000039966900
0202LOTE PADRAO                   GERDAU      PN * EJ    GGBR4       010VISTA          000000000031100000000311000000002900000000000000000000294000019353000
0202LOTE PADRAO                   BRASIL      ON *       BBAS3       010VISTA          000000000012900000000133000000001250000000000000000000128000004964500
