00BDIN9999BOVESPA 99992002050220020502
0101IBOVESPA                      0130880125100130900000000000000000002002050200000020020502012538000000
0202LOTE PADRAO                   EMBRATEL PARPN *       EBTP4       010VISTA          000000000006100000000061000000000560000000000000000000057000234448000
0202LOTE PADRAO                   TRAN PAULISTPN * EJ    TRPL4       010VISTA          000000000006200000000062000000000570000000000000000000058000025672100
0202LOTE PADRAO                   EMBRATEL PARON *       EBTP3       010VISTA          000000000008000000000080000000000720000000000000000000075000033177400
0202LOTE PADRAO                   TELEMAR     PN * EJ    TNLP4       010VISTA          000000000029900000000299000000002875000000000000000000288000332933000
0202LOTE PADRAO                   ITAUBANCO   PN * EJ    ITAU4       010VISTA          000000000187300000001873000000018300000000000000000001833000014868600
0202LOTE PADRAO                   TELEMAR     ON * EJ    TNLP3       010VISTA          000000000024800000000261000000002460000000000000000000252000012283400
0202LOTE PADRAO                   SID NACIONALON *       CSNA3       010VISTA          000000000045400000000454000000004410000000000000000000447000014547100
0202LOTE PADRAO                   TELE LEST CLPN *       TLCP4       010VISTA          000000000000750000000007500000000071000000000000000000007200154662000
0202LOTE PADRAO                   CRT CELULAR PNA* EJ    CRTP5       010VISTA          000000000413000000004130000000037300000000000000000003900000000547600
0202LOTE PADRAO                   IPIRANGA PETPN *       PTIP4       010VISTA          000000000015000000000150000000001360000000000000000000140000003401800
0202LOTE PADRAO                   BRASIL T PARPN *       BRTP4       010VISTA          000000000018300000000183000000001750000000000000000000175000051496200
0202LOTE PADRAO                   BRASIL T PARON *       BRTP3       010VISTA          000000000017300000000173000000001600000000000000000000161000011688400
0202LOTE PADRAO                   KLABIN S/A  PN         KLBN4       010VISTA          000000000001000000000010000000000098000000000000000000010000000049500
0202LOTE PADRAO                   ACESITA     PN *       ACES4       010VISTA          000000000000760000000007700000000071000000000000000000007100333855000
0202LOTE PADRAO                   PETROBRAS   PN         PETR4       010VISTA          000000000054700000000550000000005280000000000000000000531000000121700
0202LOTE PADRAO                   ELETROBRAS  PNB*       ELET6       010VISTA          000000000032700000000330000000003150000000000000000000315000077226300
0202LOTE PADRAO                   PETROBRAS   ON         PETR3       010VISTA          000000000057400000000580000000005630000000000000000000565000000071400
0202LOTE PADRAO                   COMGAS      PNA*       CGAS5       010VISTA          000000000073000000000744000000007000000000000000000000710000001700700
0202LOTE PADRAO                   SOUZA CRUZ  ON EJ      CRUZ3       010VISTA          000000000016200000000168000000001610000000000000000000163000000028400
0202LOTE PADRAO                   ELETROBRAS  ON *       ELET3       010VISTA          000000000035000000000357000000003420000000000000000000347000020627200
0202LOTE PADRAO                   CELESC      PNB        CLSC6       010VISTA          000000000000580000000005800000000054000000000000000000005500000275100
0202LOTE PADRAO                   BRADESCO    PN * EJ    BBDC4       010VISTA          000000000013400000000139000000001320000000000000000000133000216091000
0202LOTE PADRAO                   CESP        PN *       CESP4       010VISTA          000000000012600000000126000000001190000000000000000000119000007575800
0202LOTE PADRAO                   LIGHT       ON *       LIGH3       010VISTA          000000000099000000000990000000008900000000000000000000890000000395500
0202LOTE PADRAO                   TELESP CL PAPN *       TSPP4       010VISTA          000000000005900000000059000000000550000000000000000000055000263029000
0202LOTE PADRAO                   VALE R DOCE PNA        VALE5       010VISTA          000000000064100000000650000000006350000000000000000000635000000043000
0202LOTE PADRAO                   COPEL       PNB*       CPLE6       010VISTA          000000000016600000000168000000001520000000000000000000152000089630800
0202LOTE PADRAO                   VALE R DOCE ON         VALE3       010VISTA          000000000065000000000655000000006440000000000000000000645000000009700
0202LOTE PADRAO                   ARACRUZ     PNB        ARCZ6       010VISTA          000000000004700000000052000000000470000000000000000000051000000047500
0202LOTE PADRAO                   TELEMIG PARTPN *       TMCP4       010VISTA          000000000002540000000025000000000230000000000000000000023000149723000
0202LOTE PADRAO                   BRASIL TELECPN *       BRTO4       010VISTA          000000000012600000000127500000001210000000000000000000121000049704500
0202LOTE PADRAO                   SABESP      ON *       SBSP3       010VISTA          000000000145000000001450000000013700000000000000000001370000003346300
0202LOTE PADRAO                   BRASKEM     PNA*       BRKM5       010VISTA          000000000515000000005190000000048900000000000000000004890000000159900
0202LOTE PADRAO                   EMBRAER     PN EJ      EMBR4       010VISTA          000000000013400000000137000000001320000000000000000000135000000120700
0202LOTE PADRAO                   TELESP      PN * EJ    TLPP4       010VISTA          000000000032100000000326000000003100000000000000000000315000006587300
0202LOTE PADRAO                   EMBRAER     ON EJ      EMBR3       010VISTA          000000000012300000000124000000001200000000000000000000120000000032300
0202LOTE PADRAO                   AMBEV       PN *       AMBV4       010VISTA          000000000490000000005021000000049000000000000000000004930000003314100
0202LOTE PADRAO                   USIMINAS    PNA        USIM5       010VISTA          000000000008000000000080000000000770000000000000000000080000000260200
0202LOTE PADRAO                   ELETROPAULO PN *       ELPL4       010VISTA          000000000058500000000590000000005300000000000000000000530000012749600
0202LOTE PADRAO                   TELE NORD CLPN *       TNEP4       010VISTA          000000000002400000000024000000000220000000000000000000022000137086000
0202LOTE PADRAO                   CEMIG       PN * EJ    CMIG4       010VISTA          000000000034100000000357000000003410000000000000000000350000042277600
0202LOTE PADRAO                   TELE CL SUL PN * EJ    TCSL4       010VISTA          000000000002900000000029000000000271000000000000000000027000075404600
0202LOTE PADRAO                   TRACTEBEL   ON *       TBLE3       010VISTA          000000000004400000000045000000000410000000000000000000041000022820600
0202LOTE PADRAO                   CEMIG       ON * EJ    CMIG3       010VISTA          000000000031100000000324000000003010000000000000000000301000000845200
0202LOTE PADRAO                   TELE CL SUL ON * EJ    TCSL3       010VISTA          000000000002560000000026000000000230000000000000000000023000027740600
0202LOTE PADRAO                   ITAUSA      PN         ITSA4       010VISTA          000000000002300000000023000000000220000000000000000000022700000715300
0202LOTE PADRAO                   V C P       PN *       VCPA4       010VISTA          000000000091000000000930000000009100000000000000000000925000001410700
0202LOTE PADRAO                   SID TUBARAO PN *       CSTB4       010VISTA          000000000027500000000283000000002750000000000000000000275000017909200
0202LOTE PADRAO                   BRADESPAR   PN *       BRAP4       010VISTA          000000000000670000000006800000000061000000000000000000006100323055000
0202LOTE PADRAO                   NET         PN         PLIM4       010VISTA          000000000000360000000003600000000029000000000000000000003000003189400
0202LOTE PADRAO                   TELE CTR OESPN * EJ    TCOC4       010VISTA          000000000004710000000047100000000450000000000000000000045000078637700
0202LOTE PADRAO                   TELEMAR N L PNA* EJ    TMAR5       010VISTA          000000000052000000000520000000004950000000000000000000505000023876500
0202LOTE PADRAO                   GERDAU      PN * EJ    GGBR4       010VISTA          000000000031100000000314000000003050000000000000000000305000013475700
0202LOTE PADRAO                   BRASIL      ON *       BBAS3       010VISTA          000000000013600000000139000000001250000000000000000000126000007021500
