00BDIN9999BOVESPA 99992002040320020403
0101IBOVESPA                      0132800130610133450000000000000000002002040300000020020403013085000000
0202LOTE PADRAO                   EMBRATEL PARPN *       EBTP4       010VISTA          000000000007500000000075000000000720000000000000000000072000142216000
0202LOTE PADRAO                   TRAN PAULISTPN * EJ    TRPL4       010VISTA          000000000007200000000073000000000710000000000000000000072000012573000
0202LOTE PADRAO                   EMBRATEL PARON *       EBTP3       010VISTA          000000000008800000000090000000000840000000000000000000085000039679900
0202LOTE PADRAO                   TELEMAR     PN * EJ    TNLP4       010VISTA          000000000030100000000305000000002970000000000000000000298000198271000
0202LOTE PADRAO                   ITAUBANCO   PN * EJ    ITAU4       010VISTA          000000000187000000001879000000018050000000000000000001805000016000800
0202LOTE PADRAO                   TELEMAR     ON * EJ    TNLP3       010VISTA          000000000026600000000269000000002600000000000000000000260000015948400
0202LOTE PADRAO                   SID NACIONALON *       CSNA3       010VISTA          000000000043200000000432000000004200000000000000000000424000010773000
0202LOTE PADRAO                   TELE LEST CLPN *       TLCP4       010VISTA          000000000000820000000008300000000077000000000000000000007700089034400
0202LOTE PADRAO                   CRT CELULAR PNA* EJ    CRTP5       010VISTA          000000000450000000004500000000044000000000000000000004450000000272300
0202LOTE PADRAO                   IPIRANGA PETPN *       PTIP4       010VISTA          000000000014200000000144000000001375000000000000000000137500001074900
0202LOTE PADRAO                   BRASIL T PARPN *       BRTP4       010VISTA          000000000017700000000178000000001720000000000000000000175000109338000
0202LOTE PADRAO                   BRASIL T PARON *       BRTP3       010VISTA          000000000017300000000175000000001680000000000000000000171000013328600
0202LOTE PADRAO                   KLABIN S/A  PN         KLBN4       010VISTA          000000000001100000000012000000000110000000000000000000011000000056800
0202LOTE PADRAO                   ACESITA     PN *       ACES4       010VISTA          000000000000740000000007700000000072000000000000000000007300142497000
0202LOTE PADRAO                   PETROBRAS   PN         PETR4       010VISTA          000000000058000000000581000000005650000000000000000000577000000132900
0202LOTE PADRAO                   ELETROBRAS  PNB*       ELET6       010VISTA          000000000035000000000350000000003420000000000000000000342000041339900
0202LOTE PADRAO                   PETROBRAS   ON         PETR3       010VISTA          000000000061000000000615000000006020000000000000000000608000000041500
0202LOTE PADRAO                   COMGAS      PNA*       CGAS5       010VISTA          000000000079800000000800000000007770000000000000000000799000001284400
0202LOTE PADRAO                   SOUZA CRUZ  ON EJ      CRUZ3       010VISTA          000000000015000000000154000000001480000000000000000000153000000013600
0202LOTE PADRAO                   ELETROBRAS  ON *       ELET3       010VISTA          000000000039300000000393000000003850000000000000000000385000023456100
0202LOTE PADRAO                   CELESC      PNB        CLSC6       010VISTA          000000000000560000000005700000000055000000000000000000005500000150300
0202LOTE PADRAO                   BRADESCO    PN * EJ    BBDC4       010VISTA          000000000014400000000144000000001410000000000000000000141000256904000
0202LOTE PADRAO                   CESP        PN *       CESP4       010VISTA          000000000014500000000146000000001380000000000000000000138000009136400
0202LOTE PADRAO                   LIGHT       ON *       LIGH3       010VISTA          000000000102500000001025000000009800000000000000000000985000002495800
0202LOTE PADRAO                   TELESP CL PAPN *       TSPP4       010VISTA          000000000005700000000057000000000540000000000000000000054000312648000
0202LOTE PADRAO                   VALE R DOCE PNA        VALE5       010VISTA          000000000061200000000612000000005910000000000000000000597000000022600
0202LOTE PADRAO                   COPEL       PNB*       CPLE6       010VISTA          000000000017600000000180000000001700000000000000000000173000042036100
0202LOTE PADRAO                   VALE R DOCE ON         VALE3       010VISTA          000000000062000000000625000000006070000000000000000000615000000023900
0202LOTE PADRAO                   ARACRUZ     PNB        ARCZ6       010VISTA          000000000004710000000047500000000450000000000000000000046000000143800
0202LOTE PADRAO                   TELEMIG PARTPN *       TMCP4       010VISTA          000000000003250000000032000000000310000000000000000000031000077670400
0202LOTE PADRAO                   BRASIL TELECPN *       BRTO4       010VISTA          000000000012700000000129000000001250000000000000000000126000086856800
0202LOTE PADRAO                   SABESP      ON *       SBSP3       010VISTA          000000000131000000001329000000012950000000000000000001310000003685000
0202LOTE PADRAO                   BRASKEM     PNA*       BRKM5       010VISTA          000000000530000000005389000000051200000000000000000005155000000158300
0202LOTE PADRAO                   EMBRAER     PN EJ      EMBR4       010VISTA          000000000012000000000120000000001180000000000000000000118000000062800
0202LOTE PADRAO                   TELESP      PN * EJ    TLPP4       010VISTA          000000000035100000000351000000003320000000000000000000337000008270700
0202LOTE PADRAO                   EMBRAER     ON EJ      EMBR3       010VISTA          000000000011000000000111000000001090000000000000000000110000000026900
0202LOTE PADRAO                   AMBEV       PN *       AMBV4       010VISTA          000000000453000000004530000000044540000000000000000004500000002760700
0202LOTE PADRAO                   USIMINAS    PNA        USIM5       010VISTA          000000000007400000000074000000000725000000000000000000074000000065100
0202LOTE PADRAO                   ELETROPAULO PN *       ELPL4       010VISTA          000000000068700000000687000000006350000000000000000000647000004055200
0202LOTE PADRAO                   TELE NORD CLPN *       TNEP4       010VISTA          000000000002750000000027900000000260000000000000000000026000124107000
0202LOTE PADRAO                   CEMIG       PN * EJ    CMIG4       010VISTA          000000000035200000000352000000003370000000000000000000340000032366100
0202LOTE PADRAO                   TELE CL SUL PN * EJ    TCSL4       010VISTA          000000000003000000000030000000000300000000000000000000030000069765500
0202LOTE PADRAO                   TRACTEBEL   ON *       TBLE3       010VISTA          000000000004300000000043000000000400000000000000000000040000023857200
0202LOTE PADRAO                   CEMIG       ON * EJ    CMIG3       010VISTA          000000000032500000000328000000003160000000000000000000316000000916500
0202LOTE PADRAO                   TELE CL SUL ON * EJ    TCSL3       010VISTA          000000000002600000000027000000000256000000000000000000026000014844600
0202LOTE PADRAO                   ITAUSA      PN         ITSA4       010VISTA          000000000002300000000023000000000230000000000000000000023000000412100
0202LOTE PADRAO                   V C P       PN *       VCPA4       010VISTA          000000000088900000000900000000008890000000000000000000897000004172600
0202LOTE PADRAO                   SID TUBARAO PN *       CSTB4       010VISTA          000000000025500000000256000000002510000000000000000000256000010618500
0202LOTE PADRAO                   BRADESPAR   PN *       BRAP4       010VISTA          000000000000740000000007500000000073000000000000000000007300159597000
0202LOTE PADRAO                   NET         PN         PLIM4       010VISTA          000000000000510000000005200000000048000000000000000000004800001039000
0202LOTE PADRAO                   TELE CTR OESPN * EJ    TCOC4       010VISTA          000000000004700000000047000000000460000000000000000000046000102543000
0202LOTE PADRAO                   TELEMAR N L PNA* EJ    TMAR5       010VISTA          000000000052800000000528000000005100000000000000000000519000029285000
0202LOTE PADRAO                   GERDAU      PN * EJ    GGBR4       010VISTA          000000000027500000000275000000002660000000000000000000270000023432600
0202LOTE PADRAO                   BRASIL      ON *       BBAS3       010VISTA          000000000011900000000120000000001180000000000000000000119000004004300
