00BDIN9999BOVESPA 99992002031120020311
0101IBOVESPA                      0139590135930140320000000000000000002002031100000020020311013696000000
0202LOTE PADRAO                   EMBRATEL PARPN *       EBTP4       010VISTA          000000000009100000000093000000000890000000000000000000089000113972000
0202LOTE PADRAO                   TRAN PAULISTPN * EJ    TRPL4       010VISTA          000000000007600000000077000000000730000000000000000000074000010659800
0202LOTE PADRAO                   EMBRATEL PARON *       EBTP3       010VISTA          000000000010800000000109000000001030000000000000000000105000018517000
0202LOTE PADRAO                   TELEMAR     PN * EJ    TNLP4       010VISTA          000000000032400000000327000000003190000000000000000000319000166229000
0202LOTE PADRAO                   ITAUBANCO   PN * EJ    ITAU4       010VISTA          000000000190000000001900000000018690000000000000000001875000005965100
0202LOTE PADRAO                   TELEMAR     ON * EJ    TNLP3       010VISTA          000000000028200000000287500000002800000000000000000000281000025661900
0202LOTE PADRAO                   SID NACIONALON *       CSNA3       010VISTA          000000000044200000000450000000004360000000000000000000447000012507600
0202LOTE PADRAO                   TELE LEST CLPN *       TLCP4       010VISTA          000000000000890000000009100000000085000000000000000000008500079930800
0202LOTE PADRAO                   CRT CELULAR PNA* EJ    CRTP5       010VISTA          000000000477000000004776000000046000000000000000000004700000000363800
0202LOTE PADRAO                   IPIRANGA PETPN *       PTIP4       010VISTA          000000000014500000000145000000001400000000000000000000140000002661000
0202LOTE PADRAO                   BRASIL T PARPN *       BRTP4       010VISTA          000000000019600000000198000000001910000000000000000000193000081679500
0202LOTE PADRAO                   BRASIL T PARON *       BRTP3       010VISTA          000000000019500000000198000000001910000000000000000000192000007055200
0202LOTE PADRAO                   KLABIN S/A  PN         KLBN4       010VISTA          000000000001260000000012700000000120000000000000000000012000000054300
0202LOTE PADRAO                   ACESITA     PN *       ACES4       010VISTA          000000000000730000000007400000000072000000000000000000007300302814000
0202LOTE PADRAO                   PETROBRAS   PN         PETR4       010VISTA          000000000056600000000573000000005630000000000000000000571000000086600
0202LOTE PADRAO                   ELETROBRAS  PNB*       ELET6       010VISTA          000000000037700000000381000000003670000000000000000000370000034389600
0202LOTE PADRAO                   PETROBRAS   ON         PETR3       010VISTA          000000000058500000000597000000005850000000000000000000591000000019200
0202LOTE PADRAO                   COMGAS      PNA*       CGAS5       010VISTA          000000000089500000000895000000008650000000000000000000865000000487200
0202LOTE PADRAO                   SOUZA CRUZ  ON EJ      CRUZ3       010VISTA          000000000014500000000145000000001420000000000000000000143000000007200
0202LOTE PADRAO                   ELETROBRAS  ON *       ELET3       010VISTA          000000000042300000000423000000004070000000000000000000410000005332500
0202LOTE PADRAO                   CELESC      PNB        CLSC6       010VISTA          000000000000600000000006000000000058000000000000000000005800000189300
0202LOTE PADRAO                   BRADESCO    PN * EJ    BBDC4       010VISTA          000000000013400000000135000000001300000000000000000000130000098753800
0202LOTE PADRAO                   CESP        PN *       CESP4       010VISTA          000000000015500000000155000000001500000000000000000000154000007364200
0202LOTE PADRAO                   LIGHT       ON *       LIGH3       010VISTA          000000000120000000001200000000011700000000000000000001171000000173900
0202LOTE PADRAO                   TELESP CL PAPN *       TSPP4       010VISTA          000000000006250000000063000000000610000000000000000000061000515501000
0202LOTE PADRAO                   VALE R DOCE PNA        VALE5       010VISTA          000000000058700000000588000000005800000000000000000000585000000017600
0202LOTE PADRAO                   COPEL       PNB*       CPLE6       010VISTA          000000000018800000000190000000001830000000000000000000183000028876300
0202LOTE PADRAO                   VALE R DOCE ON         VALE3       010VISTA          000000000060500000000615000000005890000000000000000000593000000001800
0202LOTE PADRAO                   ARACRUZ     PNB        ARCZ6       010VISTA          000000000004700000000048000000000475000000000000000000047500000076700
0202LOTE PADRAO                   TELEMIG PARTPN *       TMCP4       010VISTA          000000000003700000000037000000000350000000000000000000036000085643400
0202LOTE PADRAO                   BRASIL TELECPN *       BRTO4       010VISTA          000000000013800000000139000000001350000000000000000000136000088413400
0202LOTE PADRAO                   SABESP      ON *       SBSP3       010VISTA          000000000137800000001380000000013200000000000000000001320000001133200
0202LOTE PADRAO                   BRASKEM     PNA*       BRKM5       010VISTA          000000000545000000005450000000053500000000000000000005380000000085000
0202LOTE PADRAO                   EMBRAER     PN EJ      EMBR4       010VISTA          000000000012400000000126000000001230000000000000000000124000000064600
0202LOTE PADRAO                   TELESP      PN * EJ    TLPP4       010VISTA          000000000034400000000350000000003300000000000000000000340000004103700
0202LOTE PADRAO                   EMBRAER     ON EJ      EMBR3       010VISTA          000000000011600000000118000000001140000000000000000000114000000009100
0202LOTE PADRAO                   AMBEV       PN *       AMBV4       010VISTA          000000000446000000004490000000043510000000000000000004371000007766200
0202LOTE PADRAO                   USIMINAS    PNA        USIM5       010VISTA          000000000007400000000075000000000720000000000000000000072000000036400
0202LOTE PADRAO                   ELETROPAULO PN *       ELPL4       010VISTA          000000000069000000000695000000006840000000000000000000693000003777200
0202LOTE PADRAO                   TELE NORD CLPN *       TNEP4       010VISTA          000000000003300000000033000000000325000000000000000000032500131712000
0202LOTE PADRAO                   CEMIG       PN * EJ    CMIG4       010VISTA          000000000038900000000389000000003720000000000000000000374000040660500
0202LOTE PADRAO                   TELE CL SUL PN * EJ    TCSL4       010VISTA          000000000003300000000034000000000320000000000000000000032000061895300
0202LOTE PADRAO                   TRACTEBEL   ON *       TBLE3       010VISTA          000000000003980000000040000000000380000000000000000000038000017723000
0202LOTE PADRAO                   CEMIG       ON * EJ    CMIG3       010VISTA          000000000034000000000345000000003250000000000000000000326000002016000
0202LOTE PADRAO                   TELE CL SUL ON * EJ    TCSL3       010VISTA          000000000003100000000031000000000290000000000000000000029000025840000
0202LOTE PADRAO                   ITAUSA      PN         ITSA4       010VISTA          000000000002200000000022000000000220000000000000000000022000000141100
0202LOTE PADRAO                   V C P       PN *       VCPA4       010VISTA          000000000087900000000879000000008650000000000000000000865000002768700
0202LOTE PADRAO                   SID TUBARAO PN *       CSTB4       010VISTA          000000000024900000000249000000002450000000000000000000246000008310000
0202LOTE PADRAO                   BRADESPAR   PN *       BRAP4       010VISTA          000000000000790000000008100000000078000000000000000000007800281865000
0202LOTE PADRAO                   NET         PN         PLIM4       010VISTA          000000000000720000000007400000000067000000000000000000006700001628200
0202LOTE PADRAO                   TELE CTR OESPN * EJ    TCOC4       010VISTA          000000000005100000000051000000000480000000000000000000048000073180900
0202LOTE PADRAO                   TELEMAR N L PNA* EJ    TMAR5       010VISTA          000000000056000000000574000000005600000000000000000000562000014622400
0202LOTE PADRAO                   GERDAU      PN * EJ    GGBR4       010VISTA          000000000027600000000280000000002630000000000000000000267500018119400
0202LOTE PADRAO                   BRASIL      ON *       BBAS3       010VISTA          000000000011400000000114000000001100000000000000000000110000003161500
