00BDIN9999BOVESPA 99992002013120020131
0101IBOVESPA                      0125630125610128120000000000000000002002013100000020020131012721000000
0202LOTE PADRAO                   EMBRATEL PARPN *       EBTP4       010VISTA          000000000008600000000088000000000840000000000000000000085000118961000
0202LOTE PADRAO                   EMBRATEL PARON *       EBTP3       010VISTA          000000000010100000000105000000001000000000000000000000100000023666000
0202LOTE PADRAO                   TRAN PAULISTPN * EJ    TRPL4       010VISTA          000000000007000000000072000000000700000000000000000000070000011901000
0202LOTE PADRAO                   TELEMAR     PN * EJ    TNLP4       010VISTA          000000000032300000000326000000003150000000000000000000319000306581000
0202LOTE PADRAO                   ITAUBANCO   PN * EJ    ITAU4       010VISTA          000000000169000000001775000000016800000000000000000001694000011044800
0202LOTE PADRAO                   TELEMAR     ON * EJ    TNLP3       010VISTA          000000000028100000000281000000002700000000000000000000280000004582100
0202LOTE PADRAO                   SID NACIONALON *       CSNA3       010VISTA          000000000038500000000390000000003710000000000000000000372000009812100
0202LOTE PADRAO                   TELE LEST CLPN *       TLCP4       010VISTA          000000000000880000000009000000000087000000000000000000008800074376000
0202LOTE PADRAO                   CRT CELULAR PNA* EJ    CRTP5       010VISTA          000000000453000000004650000000044100000000000000000004500000000210200
0202LOTE PADRAO                   IPIRANGA PETPN *       PTIP4       010VISTA          000000000012500000000125000000001200000000000000000000121000002152200
0202LOTE PADRAO                   BRASIL T PARPN *       BRTP4       010VISTA          000000000016500000000171000000001650000000000000000000169000055233100
0202LOTE PADRAO                   BRASIL T PARON *       BRTP3       010VISTA          000000000016300000000166000000001630000000000000000000165000010171300
0202LOTE PADRAO                   KLABIN S/A  PN         KLBN4       010VISTA          000000000001100000000011000000000110000000000000000000011000000253100
0202LOTE PADRAO                   ACESITA     PN *       ACES4       010VISTA          000000000000630000000006400000000062000000000000000000006200067970300
0202LOTE PADRAO                   PETROBRAS   PN         PETR4       010VISTA          000000000048000000000485000000004720000000000000000000481000000127200
0202LOTE PADRAO                   ELETROBRAS  PNB*       ELET6       010VISTA          000000000031000000000323000000003000000000000000000000323000306874000
0202LOTE PADRAO                   PETROBRAS   ON         PETR3       010VISTA          000000000049900000000499000000004850000000000000000000495000000036400
0202LOTE PADRAO                   COMGAS      PNA*       CGAS5       010VISTA          000000000084000000000850000000008270000000000000000000850000001025000
0202LOTE PADRAO                   SOUZA CRUZ  ON EJ      CRUZ3       010VISTA          000000000014800000000148000000001450000000000000000000148000000014600
0202LOTE PADRAO                   ELETROBRAS  ON *       ELET3       010VISTA          000000000036000000000361000000003450000000000000000000361000057336200
0202LOTE PADRAO                   CELESC      PNB        CLSC6       010VISTA          000000000000510000000005200000000050000000000000000000005000000391600
0202LOTE PADRAO                   BRADESCO    PN * EJ    BBDC4       010VISTA          000000000012200000000122000000001200000000000000000000120000085840400
0202LOTE PADRAO                   CESP        PN *       CESP4       010VISTA          000000000015100000000151000000001450000000000000000000150000022521600
0202LOTE PADRAO                   LIGHT       ON *       LIGH3       010VISTA          000000000121000000001260000000011800000000000000000001230000000381100
0202LOTE PADRAO                   TELESP CL PAPN *       TSPP4       010VISTA          000000000007200000000075000000000725000000000000000000072000217309000
0202LOTE PADRAO                   VALE R DOCE PNA        VALE5       010VISTA          000000000054000000000540000000005250000000000000000000535000000035500
0202LOTE PADRAO                   COPEL       PNB*       CPLE6       010VISTA          000000000016500000000171000000001650000000000000000000170000141195000
0202LOTE PADRAO                   VALE R DOCE ON         VALE3       010VISTA          000000000052000000000527000000005190000000000000000000522000000007600
0202LOTE PADRAO                   ARACRUZ     PNB        ARCZ6       010VISTA          000000000004200000000043000000000410000000000000000000042000000039600
0202LOTE PADRAO                   TELEMIG PARTPN *       TMCP4       010VISTA          000000000003730000000037300000000350000000000000000000036000041256100
0202LOTE PADRAO                   BRASIL TELECPN *       BRTO4       010VISTA          000000000012000000000123000000001190000000000000000000120000141770000
0202LOTE PADRAO                   SABESP      ON *       SBSP3       010VISTA          000000000137000000001389000000013300000000000000000001360000003887100
0202LOTE PADRAO                   BRASKEM     PNA*       BRKM5       010VISTA          000000000575000000005820000000055500000000000000000005570000000102300
0202LOTE PADRAO                   EMBRAER     PN EJ      EMBR4       010VISTA          000000000013000000000134000000001300000000000000000000133000000050900
0202LOTE PADRAO                   TELESP      PN * EJ    TLPP4       010VISTA          000000000029000000000295000000002860000000000000000000290000019616800
0202LOTE PADRAO                   EMBRAER     ON EJ      EMBR3       010VISTA          000000000011500000000121000000001150000000000000000000120000000025500
0202LOTE PADRAO                   AMBEV       PN *       AMBV4       010VISTA          000000000464000000004700000000045700000000000000000004625000001919100
0202LOTE PADRAO                   USIMINAS    PNA        USIM5       010VISTA          000000000007000000000072000000000700000000000000000000071000000041000
0202LOTE PADRAO                   ELETROPAULO PN *       ELPL4       010VISTA          000000000075500000000760000000006950000000000000000000695000008208800
0202LOTE PADRAO                   TELE NORD CLPN *       TNEP4       010VISTA          000000000003000000000030000000000280000000000000000000028000069038000
0202LOTE PADRAO                   CEMIG       PN * EJ    CMIG4       010VISTA          000000000035000000000360000000003410000000000000000000349000111471000
0202LOTE PADRAO                   TELE CL SUL PN * EJ    TCSL4       010VISTA          000000000003200000000032500000000300000000000000000000030000179776000
0202LOTE PADRAO                   CEMIG       ON * EJ    CMIG3       010VISTA          000000000030000000000305000000002900000000000000000000303000002553000
0202LOTE PADRAO                   TELE CL SUL ON * EJ    TCSL3       010VISTA          000000000002790000000028000000000260000000000000000000026000015473500
0202LOTE PADRAO                   ITAUSA      PN         ITSA4       010VISTA          000000000002100000000021000000000210000000000000000000021000000267400
0202LOTE PADRAO                   V C P       PN *       VCPA4       010VISTA          000000000076500000000784000000007650000000000000000000773000000867100
0202LOTE PADRAO                   SID TUBARAO PN *       CSTB4       010VISTA          000000000022000000000221000000002160000000000000000000216000005417500
0202LOTE PADRAO                   BRADESPAR   PN *       BRAP4       010VISTA          000000000000740000000007400000000071000000000000000000007200137546000
0202LOTE PADRAO                   NET         PN         PLIM4       010VISTA          000000000000640000000006400000000060000000000000000000006000001037600
0202LOTE PADRAO                   TELE CTR OESPN * EJ    TCOC4       010VISTA          000000000004700000000047000000000440000000000000000000045000189901000
0202LOTE PADRAO                   TELEMAR N L PNA* EJ    TMAR5       010VISTA          000000000054000000000549000000005300000000000000000000532000012999000
0202LOTE PADRAO                   GERDAU      PN * EJ    GGBR4       010VISTA          000000000024100000000241000000002300000000000000000000232000021333900
0202LOTE PADRAO                   BRASIL      ON *       BBAS3       010VISTA          000000000009500000000095000000000880000000000000000000090000003564400
