00BDIN9999BOVESPA 99992002010720020107
0101IBOVESPA                      0143270142730144130000000000000000002002010700000020020107014379000000
0202LOTE PADRAO                   EMBRATEL PARPN *       EBTP4       010VISTA          000000000010600000000113000000001060000000000000000000111000203015000
0202LOTE PADRAO                   EMBRATEL PARON *       EBTP3       010VISTA          000000000011900000000123000000001190000000000000000000121000029249500
0202LOTE PADRAO                   TRAN PAULISTPN * EJ    TRPL4       010VISTA          000000000006700000000069000000000650000000000000000000067000020778100
0202LOTE PADRAO                   TELEMAR     PN * EJ    TNLP4       010VISTA          000000000038200000000385000000003780000000000000000000384000157763000
0202LOTE PADRAO                   ITAUBANCO   PN * EJ    ITAU4       010VISTA          000000000178500000001785000000017600000000000000000001770000005570500
0202LOTE PADRAO                   TELEMAR     ON * EJ    TNLP3       010VISTA          000000000033200000000334000000003300000000000000000000331000014808600
0202LOTE PADRAO                   SID NACIONALON *       CSNA3       010VISTA          000000000038000000000388000000003670000000000000000000381000011029600
0202LOTE PADRAO                   TELE LEST CLPN *       TLCP4       010VISTA          000000000001000000000010000000000097000000000000000000009900180565000
0202LOTE PADRAO                   CRT CELULAR PNA* EJ    CRTP5       010VISTA          000000000564000000005640000000054000000000000000000005489000000668900
0202LOTE PADRAO                   IPIRANGA PETPN *       PTIP4       010VISTA          000000000012300000000123000000001200000000000000000000120000004325200
0202LOTE PADRAO                   BRASIL T PARPN *       BRTP4       010VISTA          000000000020800000000213000000002030000000000000000000208000052414400
0202LOTE PADRAO                   BRASIL T PARON *       BRTP3       010VISTA          000000000020800000000208000000002010000000000000000000203000016469500
0202LOTE PADRAO                   KLABIN S/A  PN         KLBN4       010VISTA          000000000001100000000012400000000110000000000000000000012400000062900
0202LOTE PADRAO                   ACESITA     PN *       ACES4       010VISTA          000000000000730000000007300000000070000000000000000000007200302540000
0202LOTE PADRAO                   PETROBRAS   PN         PETR4       010VISTA          000000000051100000000527000000005100000000000000000000523000000126600
0202LOTE PADRAO                   ELETROBRAS  PNB*       ELET6       010VISTA          000000000030800000000311000000003070000000000000000000311000048808000
0202LOTE PADRAO                   PETROBRAS   ON         PETR3       010VISTA          000000000052800000000543000000005280000000000000000000537000000021000
0202LOTE PADRAO                   COMGAS      PNA*       CGAS5       010VISTA          000000000091500000000930000000009030000000000000000000920000000755000
0202LOTE PADRAO                   SOUZA CRUZ  ON EJ      CRUZ3       010VISTA          000000000014000000000142000000001390000000000000000000140000000020100
0202LOTE PADRAO                   ELETROBRAS  ON *       ELET3       010VISTA          000000000034500000000347000000003400000000000000000000347000023854100
0202LOTE PADRAO                   CELESC      PNB        CLSC6       010VISTA          000000000000460000000004600000000045000000000000000000004500000098400
0202LOTE PADRAO                   BRADESCO    PN * EJ    BBDC4       010VISTA          000000000012500000000126000000001230000000000000000000126000128899000
0202LOTE PADRAO                   CESP        PN *       CESP4       010VISTA          000000000015400000000155000000001520000000000000000000154000010141500
0202LOTE PADRAO                   LIGHT       ON *       LIGH3       010VISTA          000000000131000000001310000000012850000000000000000001305000000276400
0202LOTE PADRAO                   TELESP CL PAPN *       TSPP4       010VISTA          000000000009200000000094000000000910000000000000000000092000292945000
0202LOTE PADRAO                   VALE R DOCE PNA        VALE5       010VISTA          000000000053300000000539000000005320000000000000000000537000000017600
0202LOTE PADRAO                   COPEL       PNB*       CPLE6       010VISTA          000000000017800000000178000000001700000000000000000000173000026020600
0202LOTE PADRAO                   VALE R DOCE ON         VALE3       010VISTA          000000000052800000000530000000005270000000000000000000528000000001500
0202LOTE PADRAO                   ARACRUZ     PNB        ARCZ6       010VISTA          000000000004400000000045000000000430000000000000000000044000000031000
0202LOTE PADRAO                   TELEMIG PARTPN *       TMCP4       010VISTA          000000000004500000000045000000000430000000000000000000044000060060100
0202LOTE PADRAO                   BRASIL TELECPN *       BRTO4       010VISTA          000000000014500000000145000000001430000000000000000000144000076630000
0202LOTE PADRAO                   SABESP      ON *       SBSP3       010VISTA          000000000137500000001399000000013650000000000000000001369000001519500
0202LOTE PADRAO                   BRASKEM     PNA*       BRKM5       010VISTA          000000000490000000005110000000048700000000000000000005040000000126100
0202LOTE PADRAO                   EMBRAER     PN EJ      EMBR4       010VISTA          000000000013900000000141000000001380000000000000000000138000000030900
0202LOTE PADRAO                   TELESP      PN * EJ    TLPP4       010VISTA          000000000032100000000326000000003210000000000000000000324000043002300
0202LOTE PADRAO                   EMBRAER     ON EJ      EMBR3       010VISTA          000000000013300000000133000000001280000000000000000000130000000022200
0202LOTE PADRAO                   AMBEV       PN *       AMBV4       010VISTA          000000000496000000005050000000049550000000000000000004999000001837100
0202LOTE PADRAO                   USIMINAS    PNA        USIM5       010VISTA          000000000006900000000070000000000690000000000000000000069000000036600
0202LOTE PADRAO                   ELETROPAULO PN *       ELPL4       010VISTA          000000000081000000000817500000007950000000000000000000799000004956800
0202LOTE PADRAO                   TELE NORD CLPN *       TNEP4       010VISTA          000000000003600000000036900000000340000000000000000000035000062651700
0202LOTE PADRAO                   CEMIG       PN * EJ    CMIG4       010VISTA          000000000035300000000353000000003500000000000000000000352000032096800
0202LOTE PADRAO                   TELE CL SUL PN * EJ    TCSL4       010VISTA          000000000003800000000038000000000373000000000000000000037000045555700
0202LOTE PADRAO                   CEMIG       ON * EJ    CMIG3       010VISTA          000000000032000000000326000000003200000000000000000000325000002018500
0202LOTE PADRAO                   TELE CL SUL ON * EJ    TCSL3       010VISTA          000000000003200000000032000000000310000000000000000000031000011254700
0202LOTE PADRAO                   ITAUSA      PN         ITSA4       010VISTA          000000000002200000000022000000000210000000000000000000022000000137000
0202LOTE PADRAO                   V C P       PN *       VCPA4       010VISTA          000000000079200000000830000000007920000000000000000000830000000970600
0202LOTE PADRAO                   SID TUBARAO PN *       CSTB4       010VISTA          000000000022800000000235000000002280000000000000000000235000003907500
0202LOTE PADRAO                   BRADESPAR   PN *       BRAP4       010VISTA          000000000000830000000008300000000080000000000000000000008000355417000
0202LOTE PADRAO                   NET         PN         PLIM4       010VISTA          000000000000810000000008400000000080000000000000000000008400000724000
0202LOTE PADRAO                   TELE CTR OESPN * EJ    TCOC4       010VISTA          000000000005800000000058000000000550000000000000000000056000092795400
0202LOTE PADRAO                   TELEMAR N L PNA* EJ    TMAR5       010VISTA          000000000063800000000647000000006320000000000000000000647000023976100
0202LOTE PADRAO                   GERDAU      PN * EJ    GGBR4       010VISTA          000000000023900000000243000000002380000000000000000000243000023781700
0202LOTE PADRAO                   BRASIL      ON *       BBAS3       010VISTA          000000000010600000000106000000001030000000000000000000104000006288800
