00BDIN9999BOVESPA 99992002062720020627
0101IBOVESPA                      0106900106900110130000000000000000002002062700000020020627011013000000
0202LOTE PADRAO                   EMBRATEL PARPN *       EBTP4       010VISTA          000000000002200000000023000000000180000000000000000000018000925115000
0202LOTE PADRAO                   TRAN PAULISTPN * EJ    TRPL4       010VISTA          000000000006000000000060000000000600000000000000000000060000011026800
0202LOTE PADRAO                   EMBRATEL PARON *       EBTP3       010VISTA          000000000003200000000033000000000300000000000000000000030000096753800
0202LOTE PADRAO                   TELEMAR     PN * EJ    TNLP4       010VISTA          000000000027500000000279000000002660000000000000000000278000241125000
0202LOTE PADRAO                   ITAUBANCO   PN * EJ    ITAU4       010VISTA          000000000156500000001587000000015650000000000000000001577000009684500
0202LOTE PADRAO                   TELEMAR     ON * EJ    TNLP3       010VISTA          000000000022500000000233000000002250000000000000000000233000012280300
0202LOTE PADRAO                   SID NACIONALON *       CSNA3       010VISTA          000000000042900000000440000000004150000000000000000000440000037370400
0202LOTE PADRAO                   TELE LEST CLPN *       TLCP4       010VISTA          000000000000570000000005900000000056000000000000000000005700092422400
0202LOTE PADRAO                   CRT CELULAR PNA* EJ    CRTP5       010VISTA          000000000375000000003839000000036000000000000000000003839000000751400
0202LOTE PADRAO                   IPIRANGA PETPN *       PTIP4       010VISTA          000000000012100000000122500000001170000000000000000000122500001070200
0202LOTE PADRAO                   BRASIL T PARPN *       BRTP4       010VISTA          000000000014200000000150000000001410000000000000000000150000046999700
0202LOTE PADRAO                   BRASIL T PARON *       BRTP3       010VISTA          000000000013400000000148000000001340000000000000000000148000003302800
0202LOTE PADRAO                   KLABIN S/A  PN         KLBN4       010VISTA          000000000000890000000009300000000089000000000000000000009300000022700
0202LOTE PADRAO                   ACESITA     PN *       ACES4       010VISTA          000000000000610000000006100000000059000000000000000000005900060212200
0202LOTE PADRAO                   PETROBRAS   PN         PETR4       010VISTA          000000000048500000000497000000004850000000000000000000495000000124500
0202LOTE PADRAO                   ELETROBRAS  PNB*       ELET6       010VISTA          000000000024600000000259000000002400000000000000000000256000068245900
0202LOTE PADRAO                   PETROBRAS   ON         PETR3       010VISTA          000000000054500000000547000000005330000000000000000000538000000032100
0202LOTE PADRAO                   COMGAS      PNA*       CGAS5       010VISTA          000000000056000000000600000000005600000000000000000000600000000372000
0202LOTE PADRAO                   SOUZA CRUZ  ON EJ      CRUZ3       010VISTA          000000000013800000000148000000001380000000000000000000145000000030000
0202LOTE PADRAO                   ELETROBRAS  ON *       ELET3       010VISTA          000000000027000000000290000000002700000000000000000000283000035116900
0202LOTE PADRAO                   CELESC      PNB        CLSC6       010VISTA          000000000000620000000006400000000061000000000000000000006200000530000
0202LOTE PADRAO                   BRADESCO    PN * EJ    BBDC4       010VISTA          000000000011000000000111000000001100000000000000000000111000099087400
0202LOTE PADRAO                   CESP        PN *       CESP4       010VISTA          000000000008800000000090000000000860000000000000000000090000005972400
0202LOTE PADRAO                   LIGHT       ON *       LIGH3       010VISTA          000000000085200000000870000000008520000000000000000000860000000279500
0202LOTE PADRAO                   TELESP CL PAPN *       TSPP4       010VISTA          000000000004400000000044000000000420000000000000000000043000166633000
0202LOTE PADRAO                   VALE R DOCE PNA        VALE5       010VISTA          000000000067700000000730000000006740000000000000000000725000000018100
0202LOTE PADRAO                   COPEL       PNB*       CPLE6       010VISTA          000000000011100000000113000000001090000000000000000000113000108779000
0202LOTE PADRAO                   VALE R DOCE ON         VALE3       010VISTA          000000000072900000000790000000007290000000000000000000765000000008500
0202LOTE PADRAO                   ARACRUZ     PNB        ARCZ6       010VISTA          000000000005500000000057000000000550000000000000000000055000000046400
0202LOTE PADRAO                   TELEMIG PARTPN *       TMCP4       010VISTA          000000000002770000000027700000000270000000000000000000027000053805900
0202LOTE PADRAO                   BRASIL TELECPN *       BRTO4       010VISTA          000000000010500000000108000000001000000000000000000000108000044114800
0202LOTE PADRAO                   SABESP      ON *       SBSP3       010VISTA          000000000099900000001000000000009750000000000000000000995000005321500
0202LOTE PADRAO                   BRASKEM     PNA*       BRKM5       010VISTA          000000000385000000004000000000038500000000000000000003960000000221300
0202LOTE PADRAO                   EMBRAER     PN EJ      EMBR4       010VISTA          000000000014000000000147000000001390000000000000000000147000000063700
0202LOTE PADRAO                   TELESP      PN * EJ    TLPP4       010VISTA          000000000032000000000335000000003160000000000000000000334000014085400
0202LOTE PADRAO                   EMBRAER     ON EJ      EMBR3       010VISTA          000000000012500000000134000000001230000000000000000000134000000052300
0202LOTE PADRAO                   AMBEV       PN *       AMBV4       010VISTA          000000000441500000004430000000043300000000000000000004330000001065500
0202LOTE PADRAO                   USIMINAS    PNA        USIM5       010VISTA          000000000006500000000065000000000640000000000000000000065000000081400
0202LOTE PADRAO                   ELETROPAULO PN *       ELPL4       010VISTA          000000000038200000000405000000003820000000000000000000405000003196000
0202LOTE PADRAO                   TELE NORD CLPN *       TNEP4       010VISTA          000000000002400000000025200000000240000000000000000000025200068993400
0202LOTE PADRAO                   CEMIG       PN * EJ    CMIG4       010VISTA          000000000031500000000318000000003075000000000000000000316000033082000
0202LOTE PADRAO                   TELE CL SUL PN * EJ    TCSL4       010VISTA          000000000002800000000029000000000280000000000000000000029400203688000
0202LOTE PADRAO                   TRACTEBEL   ON *       TBLE3       010VISTA          000000000003800000000038000000000375000000000000000000038000037668200
0202LOTE PADRAO                   CEMIG       ON * EJ    CMIG3       010VISTA          000000000028000000000289000000002800000000000000000000289000000203600
0202LOTE PADRAO                   TELE CL SUL ON * EJ    TCSL3       010VISTA          000000000002400000000025000000000240000000000000000000025000038457300
0202LOTE PADRAO                   ITAUSA      PN         ITSA4       010VISTA          000000000001800000000018000000000180000000000000000000018000000272600
0202LOTE PADRAO                   V C P       PN *       VCPA4       010VISTA          000000000101000000001049000000010100000000000000000001015000003078000
0202LOTE PADRAO                   SID TUBARAO PN *       CSTB4       010VISTA          000000000025300000000271000000002530000000000000000000270000010853700
0202LOTE PADRAO                   BRADESPAR   PN *       BRAP4       010VISTA          000000000000520000000005300000000051000000000000000000005300213756000
0202LOTE PADRAO                   NET         PN         PLIM4       010VISTA          000000000002000000000020000000000190000000000000000000020000000071200
0202LOTE PADRAO                   TELE CTR OESPN * EJ    TCOC4       010VISTA          000000000003800000000038000000000375000000000000000000038000051013700
0202LOTE PADRAO                   TELEMAR N L PNA* EJ    TMAR5       010VISTA          000000000048000000000488000000004680000000000000000000488000007763300
0202LOTE PADRAO                   GERDAU      PN * EJ    GGBR4       010VISTA          000000000028000000000285000000002760000000000000000000283000009430400
0202LOTE PADRAO                   BRASIL      ON *       BBAS3       010VISTA          000000000008900000000091000000000875000000000000000000088000006401700
