00BDIN9999BOVESPA 99992002110820021108
0101IBOVESPA                      0098590098570100300000000000000000002002110800000020021108009860000000
0202LOTE PADRAO                   EMBRATEL PARPN *       EBTP4       010VISTA          000000000002100000000021000000000200000000000000000000021000153032000
0202LOTE PADRAO                   TRAN PAULISTPN * EJ    TRPL4       010VISTA          000000000005100000000051000000000500000000000000000000050000007843700
0202LOTE PADRAO                   EMBRATEL PARON *       EBTP3       010VISTA          000000000002400000000025200000000240000000000000000000024000030679800
0202LOTE PADRAO                   TELEMAR     PN * EJ    TNLP4       010VISTA          000000000024500000000246000000002410000000000000000000242000262190000
0202LOTE PADRAO                   ITAUBANCO   PN * EJ    ITAU4       010VISTA          000000000149000000001509000000014850000000000000000001494000009109500
0202LOTE PADRAO                   TELEMAR     ON * EJ    TNLP3       010VISTA          000000000017900000000182000000001760000000000000000000179000008048600
0202LOTE PADRAO                   SID NACIONALON *       CSNA3       010VISTA          000000000040300000000417000000003850000000000000000000406000019391700
0202LOTE PADRAO                   TELE LEST CLPN *       TLCP4       010VISTA          000000000000400000000004100000000039000000000000000000004000140801000
0202LOTE PADRAO                   CRT CELULAR PNA* EJ    CRTP5       010VISTA          000000000335000000003350000000032800000000000000000003340000001074400
0202LOTE PADRAO                   IPIRANGA PETPN *       PTIP4       010VISTA          000000000008300000000083000000000810000000000000000000081000004253500
0202LOTE PADRAO                   BRASIL T PARPN *       BRTP4       010VISTA          000000000018500000000191000000001750000000000000000000175000156390000
0202LOTE PADRAO                   BRASIL T PARON *       BRTP3       010VISTA          000000000014500000000145000000001350000000000000000000135000011357700
0202LOTE PADRAO                   KLABIN S/A  PN         KLBN4       010VISTA          000000000000940000000009500000000091000000000000000000009400000026100
0202LOTE PADRAO                   ACESITA     PN *       ACES4       010VISTA          000000000000710000000007200000000071000000000000000000007100041063000
0202LOTE PADRAO                   PETROBRAS   PN         PETR4       010VISTA          000000000043700000000442000000004310000000000000000000436000000083300
0202LOTE PADRAO                   ELETROBRAS  PNB*       ELET6       010VISTA          000000000017200000000176000000001700000000000000000000171000043904900
0202LOTE PADRAO                   PETROBRAS   ON         PETR3       010VISTA          000000000048300000000485000000004650000000000000000000465000000010300
0202LOTE PADRAO                   COMGAS      PNA*       CGAS5       010VISTA          000000000056000000000577000000005590000000000000000000574000001214000
0202LOTE PADRAO                   SOUZA CRUZ  ON EJ      CRUZ3       010VISTA          000000000018800000000188000000001850000000000000000000185000000006000
0202LOTE PADRAO                   ELETROBRAS  ON *       ELET3       010VISTA          000000000018000000000183000000001760000000000000000000178000013520500
0202LOTE PADRAO                   CELESC      PNB        CLSC6       010VISTA          000000000000510000000005100000000050000000000000000000005100000033400
0202LOTE PADRAO                   BRADESCO    PN * EJ    BBDC4       010VISTA          000000000009100000000092000000000900000000000000000000090000167913000
0202LOTE PADRAO                   CESP        PN *       CESP4       010VISTA          000000000006200000000063000000000610000000000000000000062000007111800
0202LOTE PADRAO                   LIGHT       ON *       LIGH3       010VISTA          000000000050900000000509000000004850000000000000000000487000000265600
0202LOTE PADRAO                   TELESP CL PAPN *       TSPP4       010VISTA          000000000003960000000040000000000390000000000000000000039600259567000
0202LOTE PADRAO                   VALE R DOCE PNA        VALE5       010VISTA          000000000091500000000920000000009040000000000000000000910000000008900
0202LOTE PADRAO                   COPEL       PNB*       CPLE6       010VISTA          000000000007500000000077000000000740000000000000000000075000082932100
0202LOTE PADRAO                   VALE R DOCE ON         VALE3       010VISTA          000000000094000000000950000000009350000000000000000000945000000004900
0202LOTE PADRAO                   ARACRUZ     PNB        ARCZ6       010VISTA          000000000005800000000058000000000550000000000000000000055000000079600
0202LOTE PADRAO                   TELEMIG PARTPN *       TMCP4       010VISTA          000000000002900000000030000000000280000000000000000000030000100173000
0202LOTE PADRAO                   BRASIL TELECPN *       BRTO4       010VISTA          000000000012000000000120000000001090000000000000000000110000207462000
0202LOTE PADRAO                   SABESP      ON *       SBSP3       010VISTA          000000000084200000000865000000008420000000000000000000860000003533400
0202LOTE PADRAO                   BRASKEM     PNA*       BRKM5       010VISTA          000000000235000000002457500000023475000000000000000002390000000084600
0202LOTE PADRAO                   EMBRAER     PN EJ      EMBR4       010VISTA          000000000014100000000147000000001410000000000000000000144000000062700
0202LOTE PADRAO                   TELESP      PN * EJ    TLPP4       010VISTA          000000000037000000000372000000003600000000000000000000367500007627200
0202LOTE PADRAO                   EMBRAER     ON EJ      EMBR3       010VISTA          000000000013000000000135000000001300000000000000000000132500000010700
0202LOTE PADRAO                   AMBEV       PN *       AMBV4       010VISTA          000000000529900000005299000000051060000000000000000005106000001234900
0202LOTE PADRAO                   USIMINAS    PNA        USIM5       010VISTA          000000000005400000000054000000000520000000000000000000052000000025500
0202LOTE PADRAO                   ELETROPAULO PN *       ELPL4       010VISTA          000000000024900000000249000000002400000000000000000000242000002381100
0202LOTE PADRAO                   TELE NORD CLPN *       TNEP4       010VISTA          000000000002600000000027100000000260000000000000000000027000065931900
0202LOTE PADRAO                   CEMIG       PN * EJ    CMIG4       010VISTA          000000000023500000000236000000002310000000000000000000233000023485200
0202LOTE PADRAO                   TELE CL SUL PN * EJ    TCSL4       010VISTA          000000000003000000000030000000000290000000000000000000029000143880000
0202LOTE PADRAO                   TRACTEBEL   ON *       TBLE3       010VISTA          000000000003300000000033000000000320000000000000000000032000004490900
0202LOTE PADRAO                   CEMIG       ON * EJ    CMIG3       010VISTA          000000000022900000000229000000002160000000000000000000218000000726200
0202LOTE PADRAO                   TELE CL SUL ON * EJ    TCSL3       010VISTA          000000000002200000000022000000000220000000000000000000022000023948000
0202LOTE PADRAO                   ITAUSA      PN         ITSA4       010VISTA          000000000001780000000018000000000178000000000000000000018000000492200
0202LOTE PADRAO                   V C P       PN *       VCPA4       010VISTA          000000000114000000001140000000010950000000000000000001115000002610100
0202LOTE PADRAO                   SID TUBARAO PN *       CSTB4       010VISTA          000000000036500000000374000000003580000000000000000000365000014043500
0202LOTE PADRAO                   BRADESPAR   PN *       BRAP4       010VISTA          000000000000460000000004800000000046000000000000000000004700181722000
0202LOTE PADRAO                   NET         PN         PLIM4       010VISTA          000000000000340000000003500000000030000000000000000000003000001899600
0202LOTE PADRAO                   TELE CTR OESPN * EJ    TCOC4       010VISTA          000000000003700000000038000000000373000000000000000000037700128986000
0202LOTE PADRAO                   TELEMAR N L PNA* EJ    TMAR5       010VISTA          000000000041000000000435000000004080000000000000000000411000058065200
0202LOTE PADRAO                   GERDAU      PN * EJ    GGBR4       010VISTA          000000000033600000000336000000003220000000000000000000332000008322900
0202LOTE PADRAO                   BRASIL      ON *       BBAS3       010VISTA          000000000010300000000104000000001030000000000000000000103000026390100
