00BDIN9999BOVESPA 99992002013020020130
0101IBOVESPA                      0125120123010126270000000000000000002002013000000020020130012532000000
0202LOTE PADRAO                   EMBRATEL PARPN *       EBTP4       010VISTA          000000000008300000000085000000000780000000000000000000084000279014000
0202LOTE PADRAO                   EMBRATEL PARON *       EBTP3       010VISTA          000000000009800000000103000000000950000000000000000000100000038550100
0202LOTE PADRAO                   TRAN PAULISTPN * EJ    TRPL4       010VISTA          000000000006900000000070000000000690000000000000000000069000023125900
0202LOTE PADRAO                   TELEMAR     PN * EJ    TNLP4       010VISTA          000000000031800000000322000000003060000000000000000000317000355984000
0202LOTE PADRAO                   ITAUBANCO   PN * EJ    ITAU4       010VISTA          000000000172100000001750000000016900000000000000000001709000022249300
0202LOTE PADRAO                   TELEMAR     ON * EJ    TNLP3       010VISTA          000000000027800000000285000000002660000000000000000000276000012411600
0202LOTE PADRAO                   SID NACIONALON *       CSNA3       010VISTA          000000000038000000000385000000003660000000000000000000374000010211200
0202LOTE PADRAO                   TELE LEST CLPN *       TLCP4       010VISTA          000000000000860000000008800000000086000000000000000000008700189807000
0202LOTE PADRAO                   CRT CELULAR PNA* EJ    CRTP5       010VISTA          000000000454000000004545000000044500000000000000000004530000000221800
0202LOTE PADRAO                   IPIRANGA PETPN *       PTIP4       010VISTA          000000000012000000000125000000001200000000000000000000123000001840000
0202LOTE PADRAO                   BRASIL T PARPN *       BRTP4       010VISTA          000000000016600000000170000000001600000000000000000000165000073412900
0202LOTE PADRAO                   BRASIL T PARON *       BRTP3       010VISTA          000000000016300000000166000000001610000000000000000000161000008539600
0202LOTE PADRAO                   KLABIN S/A  PN         KLBN4       010VISTA          000000000001100000000011000000000110000000000000000000011000000042400
0202LOTE PADRAO                   ACESITA     PN *       ACES4       010VISTA          000000000000630000000006500000000060000000000000000000006100150524000
0202LOTE PADRAO                   PETROBRAS   PN         PETR4       010VISTA          000000000047700000000480000000004720000000000000000000476000000065200
0202LOTE PADRAO                   ELETROBRAS  PNB*       ELET6       010VISTA          000000000029100000000291000000002810000000000000000000290000050467200
0202LOTE PADRAO                   PETROBRAS   ON         PETR3       010VISTA          000000000048500000000494000000004820000000000000000000494000000024300
0202LOTE PADRAO                   COMGAS      PNA*       CGAS5       010VISTA          000000000084000000000840000000008000000000000000000000820000006539100
0202LOTE PADRAO                   SOUZA CRUZ  ON EJ      CRUZ3       010VISTA          000000000014300000000147000000001410000000000000000000147500000014100
0202LOTE PADRAO                   ELETROBRAS  ON *       ELET3       010VISTA          000000000031000000000327000000003100000000000000000000323000009510900
0202LOTE PADRAO                   CELESC      PNB        CLSC6       010VISTA          000000000000500000000005000000000047000000000000000000005000000349000
0202LOTE PADRAO                   BRADESCO    PN * EJ    BBDC4       010VISTA          000000000012000000000120000000001180000000000000000000119000158730000
0202LOTE PADRAO                   CESP        PN *       CESP4       010VISTA          000000000014000000000145000000001350000000000000000000141000011385200
0202LOTE PADRAO                   LIGHT       ON *       LIGH3       010VISTA          000000000114000000001199000000011300000000000000000001170000000360700
0202LOTE PADRAO                   TELESP CL PAPN *       TSPP4       010VISTA          000000000007000000000072000000000679000000000000000000072000299392000
0202LOTE PADRAO                   VALE R DOCE PNA        VALE5       010VISTA          000000000054300000000543000000005220000000000000000000523000000083400
0202LOTE PADRAO                   COPEL       PNB*       CPLE6       010VISTA          000000000015000000000159000000001500000000000000000000159000044085000
0202LOTE PADRAO                   VALE R DOCE ON         VALE3       010VISTA          000000000054000000000540000000005180000000000000000000520000000005900
0202LOTE PADRAO                   ARACRUZ     PNB        ARCZ6       010VISTA          000000000004100000000043000000000410000000000000000000042000000038200
0202LOTE PADRAO                   TELEMIG PARTPN *       TMCP4       010VISTA          000000000003600000000036900000000350000000000000000000035600085300300
0202LOTE PADRAO                   BRASIL TELECPN *       BRTO4       010VISTA          000000000011500000000123000000001140000000000000000000118000095191800
0202LOTE PADRAO                   SABESP      ON *       SBSP3       010VISTA          000000000125000000001290000000012250000000000000000001280000001028000
0202LOTE PADRAO                   BRASKEM     PNA*       BRKM5       010VISTA          000000000550000000005840000000055000000000000000000005720000000075000
0202LOTE PADRAO                   EMBRAER     PN EJ      EMBR4       010VISTA          000000000012800000000130000000001270000000000000000000129000000050100
0202LOTE PADRAO                   TELESP      PN * EJ    TLPP4       010VISTA          000000000028900000000291000000002850000000000000000000286000013151400
0202LOTE PADRAO                   EMBRAER     ON EJ      EMBR3       010VISTA          000000000011800000000120000000001150000000000000000000119000000028000
0202LOTE PADRAO                   AMBEV       PN *       AMBV4       010VISTA          000000000468000000004690000000046300000000000000000004650000001847700
0202LOTE PADRAO                   USIMINAS    PNA        USIM5       010VISTA          000000000006700000000070000000000670000000000000000000070000000048500
0202LOTE PADRAO                   ELETROPAULO PN *       ELPL4       010VISTA          000000000075200000000769000000007300000000000000000000741000001937600
0202LOTE PADRAO                   TELE NORD CLPN *       TNEP4       010VISTA          000000000002800000000030000000000270000000000000000000028000172272000
0202LOTE PADRAO                   CEMIG       PN * EJ    CMIG4       010VISTA          000000000031800000000333000000003180000000000000000000330000068501200
0202LOTE PADRAO                   TELE CL SUL PN * EJ    TCSL4       010VISTA          000000000003100000000032000000000310000000000000000000031000093217100
0202LOTE PADRAO                   CEMIG       ON * EJ    CMIG3       010VISTA          000000000027900000000291000000002700000000000000000000285000001340000
0202LOTE PADRAO                   TELE CL SUL ON * EJ    TCSL3       010VISTA          000000000002700000000027000000000260000000000000000000027000060218300
0202LOTE PADRAO                   ITAUSA      PN         ITSA4       010VISTA          000000000002100000000021000000000210000000000000000000021000000808600
0202LOTE PADRAO                   V C P       PN *       VCPA4       010VISTA          000000000077500000000785000000007500000000000000000000765000002953400
0202LOTE PADRAO                   SID TUBARAO PN *       CSTB4       010VISTA          000000000021300000000221000000002130000000000000000000215000004560000
0202LOTE PADRAO                   BRADESPAR   PN *       BRAP4       010VISTA          000000000000730000000007500000000072000000000000000000007200145248000
0202LOTE PADRAO                   NET         PN         PLIM4       010VISTA          000000000000620000000006400000000061000000000000000000006200001135200
0202LOTE PADRAO                   TELE CTR OESPN * EJ    TCOC4       010VISTA          000000000004600000000047500000000450000000000000000000046000146115000
0202LOTE PADRAO                   TELEMAR N L PNA* EJ    TMAR5       010VISTA          000000000054500000000545000000005200000000000000000000528000028863500
0202LOTE PADRAO                   GERDAU      PN * EJ    GGBR4       010VISTA          000000000024000000000241000000002325000000000000000000233000024447700
0202LOTE PADRAO                   BRASIL      ON *       BBAS3       010VISTA          000000000009100000000093000000000880000000000000000000090000008448700
