00BDIN9999BOVESPA 99992002100120021001
0101IBOVESPA                      0086420086370090210000000000000000002002100100000020021001008998000000
0202LOTE PADRAO                   EMBRATEL PARPN *       EBTP4       010VISTA          000000000002300000000024000000000230000000000000000000023000171575000
0202LOTE PADRAO                   TRAN PAULISTPN * EJ    TRPL4       010VISTA          000000000005000000000050000000000490000000000000000000050000016900400
0202LOTE PADRAO                   EMBRATEL PARON *       EBTP3       010VISTA          000000000003000000000032000000000300000000000000000000032000012197500
0202LOTE PADRAO                   TELEMAR     PN * EJ    TNLP4       010VISTA          000000000021700000000223000000002130000000000000000000220000275340000
0202LOTE PADRAO                   ITAUBANCO   PN * EJ    ITAU4       010VISTA          000000000123200000001260000000011920000000000000000001260000022401400
0202LOTE PADRAO                   TELEMAR     ON * EJ    TNLP3       010VISTA          000000000016300000000166000000001590000000000000000000166000033837300
0202LOTE PADRAO                   SID NACIONALON *       CSNA3       010VISTA          000000000031800000000318000000003060000000000000000000313000017110000
0202LOTE PADRAO                   TELE LEST CLPN *       TLCP4       010VISTA          000000000000380000000003800000000036000000000000000000003700192143000
0202LOTE PADRAO                   CRT CELULAR PNA* EJ    CRTP5       010VISTA          000000000315000000003240000000031200000000000000000003240000000236800
0202LOTE PADRAO                   IPIRANGA PETPN *       PTIP4       010VISTA          000000000008600000000089000000000850000000000000000000089000006799100
0202LOTE PADRAO                   BRASIL T PARPN *       BRTP4       010VISTA          000000000016750000000186000000001675000000000000000000180000045523700
0202LOTE PADRAO                   BRASIL T PARON *       BRTP3       010VISTA          000000000012600000000136000000001250000000000000000000136000014706300
0202LOTE PADRAO                   KLABIN S/A  PN         KLBN4       010VISTA          000000000000850000000008900000000084000000000000000000008900000123800
0202LOTE PADRAO                   ACESITA     PN *       ACES4       010VISTA          000000000000570000000006000000000057000000000000000000006000105244000
0202LOTE PADRAO                   PETROBRAS   PN         PETR4       010VISTA          000000000037500000000406000000003710000000000000000000396000000185000
0202LOTE PADRAO                   ELETROBRAS  PNB*       ELET6       010VISTA          000000000015100000000161000000001510000000000000000000159000055916300
0202LOTE PADRAO                   PETROBRAS   ON         PETR3       010VISTA          000000000041000000000452500000004070000000000000000000442000000065700
0202LOTE PADRAO                   COMGAS      PNA*       CGAS5       010VISTA          000000000054400000000570000000005400000000000000000000570000000796000
0202LOTE PADRAO                   SOUZA CRUZ  ON EJ      CRUZ3       010VISTA          000000000015700000000161000000001570000000000000000000161000000028100
0202LOTE PADRAO                   ELETROBRAS  ON *       ELET3       010VISTA          000000000015400000000159000000001540000000000000000000157500036800000
0202LOTE PADRAO                   CELESC      PNB        CLSC6       010VISTA          000000000000520000000005300000000050000000000000000000005300000641300
0202LOTE PADRAO                   BRADESCO    PN * EJ    BBDC4       010VISTA          000000000008000000000085000000000800000000000000000000085000272878000
0202LOTE PADRAO                   CESP        PN *       CESP4       010VISTA          000000000006100000000061000000000570000000000000000000061000009032200
0202LOTE PADRAO                   LIGHT       ON *       LIGH3       010VISTA          000000000057200000000590000000005720000000000000000000581000000457300
0202LOTE PADRAO                   TELESP CL PAPN *       TSPP4       010VISTA          000000000002800000000030000000000271000000000000000000029000415707000
0202LOTE PADRAO                   VALE R DOCE PNA        VALE5       010VISTA          000000000081500000000822000000007900000000000000000000799000000014200
0202LOTE PADRAO                   COPEL       PNB*       CPLE6       010VISTA          000000000007250000000075000000000720000000000000000000075000040810200
0202LOTE PADRAO                   VALE R DOCE ON         VALE3       010VISTA          000000000086500000000865000000008300000000000000000000842000000025000
0202LOTE PADRAO                   ARACRUZ     PNB        ARCZ6       010VISTA          000000000005500000000055400000000520000000000000000000052000000053400
0202LOTE PADRAO                   TELEMIG PARTPN *       TMCP4       010VISTA          000000000002600000000026000000000252000000000000000000026000106058000
0202LOTE PADRAO                   BRASIL TELECPN *       BRTO4       010VISTA          000000000011000000000115000000001070000000000000000000115000053741000
0202LOTE PADRAO                   SABESP      ON *       SBSP3       010VISTA          000000000078500000000825000000007850000000000000000000815000001994500
0202LOTE PADRAO                   BRASKEM     PNA*       BRKM5       010VISTA          000000000238000000002410000000023000000000000000000002360000000108100
0202LOTE PADRAO                   EMBRAER     PN EJ      EMBR4       010VISTA          000000000013000000000131000000001280000000000000000000131000000077500
0202LOTE PADRAO                   TELESP      PN * EJ    TLPP4       010VISTA          000000000031300000000313000000003000000000000000000000306000008329500
0202LOTE PADRAO                   EMBRAER     ON EJ      EMBR3       010VISTA          000000000011900000000123000000001160000000000000000000121000000011900
0202LOTE PADRAO                   AMBEV       PN *       AMBV4       010VISTA          000000000418000000004320000000041500000000000000000004320000002045000
0202LOTE PADRAO                   USIMINAS    PNA        USIM5       010VISTA          000000000004500000000046000000000440000000000000000000046000000052100
0202LOTE PADRAO                   ELETROPAULO PN *       ELPL4       010VISTA          000000000023600000000249000000002280000000000000000000245000006667600
0202LOTE PADRAO                   TELE NORD CLPN *       TNEP4       010VISTA          000000000002300000000023000000000230000000000000000000023000067042200
0202LOTE PADRAO                   CEMIG       PN * EJ    CMIG4       010VISTA          000000000021000000000222000000002060000000000000000000220000039821000
0202LOTE PADRAO                   TELE CL SUL PN * EJ    TCSL4       010VISTA          000000000002500000000025000000000240000000000000000000024000129644000
0202LOTE PADRAO                   TRACTEBEL   ON *       TBLE3       010VISTA          000000000003800000000039000000000380000000000000000000038000015806000
0202LOTE PADRAO                   CEMIG       ON * EJ    CMIG3       010VISTA          000000000019500000000207000000001950000000000000000000200000001102000
0202LOTE PADRAO                   TELE CL SUL ON * EJ    TCSL3       010VISTA          000000000002000000000020000000000195000000000000000000020000026698300
0202LOTE PADRAO                   ITAUSA      PN         ITSA4       010VISTA          000000000001470000000015500000000140000000000000000000015400000239200
0202LOTE PADRAO                   V C P       PN *       VCPA4       010VISTA          000000000104500000001069000000010450000000000000000001063000001770700
0202LOTE PADRAO                   SID TUBARAO PN *       CSTB4       010VISTA          000000000028100000000296000000002810000000000000000000296000010416600
0202LOTE PADRAO                   BRADESPAR   PN *       BRAP4       010VISTA          000000000000440000000004500000000042000000000000000000004500164756000
0202LOTE PADRAO                   NET         PN         PLIM4       010VISTA          000000000000260000000002700000000024000000000000000000002600000840100
0202LOTE PADRAO                   TELE CTR OESPN * EJ    TCOC4       010VISTA          000000000002900000000030000000000280000000000000000000030000071229200
0202LOTE PADRAO                   TELEMAR N L PNA* EJ    TMAR5       010VISTA          000000000039500000000415000000003900000000000000000000415000019895500
0202LOTE PADRAO                   GERDAU      PN * EJ    GGBR4       010VISTA          000000000026600000000280000000002560000000000000000000278000023954400
0202LOTE PADRAO                   BRASIL      ON *       BBAS3       010VISTA          000000000008300000000084000000000800000000000000000000084000035574800
