00BDIN9999BOVESPA 99992002092420020924
0101IBOVESPA                      0092450090690093410000000000000000002002092400000020020924009148000000
0202LOTE PADRAO                   EMBRATEL PARPN *       EBTP4       010VISTA          000000000002300000000023000000000220000000000000000000022700299846000
0202LOTE PADRAO                   TRAN PAULISTPN * EJ    TRPL4       010VISTA          000000000005200000000054000000000510000000000000000000053000016357100
0202LOTE PADRAO                   EMBRATEL PARON *       EBTP3       010VISTA          000000000002900000000030000000000270000000000000000000028000025418000
0202LOTE PADRAO                   TELEMAR     PN * EJ    TNLP4       010VISTA          000000000023000000000241000000002260000000000000000000233000327744000
0202LOTE PADRAO                   ITAUBANCO   PN * EJ    ITAU4       010VISTA          000000000123500000001247000000012250000000000000000001230000027062600
0202LOTE PADRAO                   TELEMAR     ON * EJ    TNLP3       010VISTA          000000000017250000000185000000001710000000000000000000178000008115800
0202LOTE PADRAO                   SID NACIONALON *       CSNA3       010VISTA          000000000032600000000353000000003250000000000000000000340000010787100
0202LOTE PADRAO                   TELE LEST CLPN *       TLCP4       010VISTA          000000000000380000000004000000000038000000000000000000003900085396000
0202LOTE PADRAO                   CRT CELULAR PNA* EJ    CRTP5       010VISTA          000000000334000000003410000000033300000000000000000003410000000181100
0202LOTE PADRAO                   IPIRANGA PETPN *       PTIP4       010VISTA          000000000009500000000099000000000930000000000000000000093000003389800
0202LOTE PADRAO                   BRASIL T PARPN *       BRTP4       010VISTA          000000000016800000000178000000001680000000000000000000172500057897300
0202LOTE PADRAO                   BRASIL T PARON *       BRTP3       010VISTA          000000000013000000000133000000001260000000000000000000131000003564600
0202LOTE PADRAO                   KLABIN S/A  PN         KLBN4       010VISTA          000000000000900000000009000000000083000000000000000000008600000034900
0202LOTE PADRAO                   ACESITA     PN *       ACES4       010VISTA          000000000000600000000006100000000059000000000000000000006100054114000
0202LOTE PADRAO                   PETROBRAS   PN         PETR4       010VISTA          000000000041700000000420000000004030000000000000000000412500000150500
0202LOTE PADRAO                   ELETROBRAS  PNB*       ELET6       010VISTA          000000000017500000000175000000001660000000000000000000168000078985300
0202LOTE PADRAO                   PETROBRAS   ON         PETR3       010VISTA          000000000047000000000470000000004460000000000000000000454000000040900
0202LOTE PADRAO                   COMGAS      PNA*       CGAS5       010VISTA          000000000057000000000570000000005600000000000000000000570000000331100
0202LOTE PADRAO                   SOUZA CRUZ  ON EJ      CRUZ3       010VISTA          000000000015250000000160000000001525000000000000000000157000000024900
0202LOTE PADRAO                   ELETROBRAS  ON *       ELET3       010VISTA          000000000017600000000176000000001680000000000000000000168000059388400
0202LOTE PADRAO                   CELESC      PNB        CLSC6       010VISTA          000000000000530000000005700000000053000000000000000000005600001161500
0202LOTE PADRAO                   BRADESCO    PN * EJ    BBDC4       010VISTA          000000000008600000000086000000000850000000000000000000085000284710000
0202LOTE PADRAO                   CESP        PN *       CESP4       010VISTA          000000000006500000000065000000000630000000000000000000063000009850700
0202LOTE PADRAO                   LIGHT       ON *       LIGH3       010VISTA          000000000060400000000610000000005900000000000000000000610000000959300
0202LOTE PADRAO                   TELESP CL PAPN *       TSPP4       010VISTA          000000000002700000000027700000000256000000000000000000026000732375000
0202LOTE PADRAO                   VALE R DOCE PNA        VALE5       010VISTA          000000000080900000000848000000008050000000000000000000840000000022900
0202LOTE PADRAO                   COPEL       PNB*       CPLE6       010VISTA          000000000008500000000085000000000825000000000000000000082500056889200
0202LOTE PADRAO                   VALE R DOCE ON         VALE3       010VISTA          000000000086200000000909000000008620000000000000000000895000000046200
0202LOTE PADRAO                   ARACRUZ     PNB        ARCZ6       010VISTA          000000000005500000000058000000000530000000000000000000058000000319900
0202LOTE PADRAO                   TELEMIG PARTPN *       TMCP4       010VISTA          000000000002790000000029000000000270000000000000000000027500091056400
0202LOTE PADRAO                   BRASIL TELECPN *       BRTO4       010VISTA          000000000010900000000110000000001060000000000000000000109000047609200
0202LOTE PADRAO                   SABESP      ON *       SBSP3       010VISTA          000000000079500000000810000000007900000000000000000000795000002979100
0202LOTE PADRAO                   BRASKEM     PNA*       BRKM5       010VISTA          000000000240000000002439000000023500000000000000000002350000000067600
0202LOTE PADRAO                   EMBRAER     PN EJ      EMBR4       010VISTA          000000000013000000000134000000001290000000000000000000130000000149800
0202LOTE PADRAO                   TELESP      PN * EJ    TLPP4       010VISTA          000000000031500000000318000000003130000000000000000000318000009488700
0202LOTE PADRAO                   EMBRAER     ON EJ      EMBR3       010VISTA          000000000011700000000122000000001170000000000000000000120000000022300
0202LOTE PADRAO                   AMBEV       PN *       AMBV4       010VISTA          000000000419000000004390000000041600000000000000000004210000003448500
0202LOTE PADRAO                   USIMINAS    PNA        USIM5       010VISTA          000000000004900000000050000000000480000000000000000000048000000043000
0202LOTE PADRAO                   ELETROPAULO PN *       ELPL4       010VISTA          000000000027800000000281000000002510000000000000000000259000003497100
0202LOTE PADRAO                   TELE NORD CLPN *       TNEP4       010VISTA          000000000002300000000024000000000230000000000000000000023000072914400
0202LOTE PADRAO                   CEMIG       PN * EJ    CMIG4       010VISTA          000000000022900000000232000000002250000000000000000000225000075534400
0202LOTE PADRAO                   TELE CL SUL PN * EJ    TCSL4       010VISTA          000000000002560000000027300000000254000000000000000000026000084812700
0202LOTE PADRAO                   TRACTEBEL   ON *       TBLE3       010VISTA          000000000003800000000040000000000380000000000000000000039000003285600
0202LOTE PADRAO                   CEMIG       ON * EJ    CMIG3       010VISTA          000000000022100000000221000000002130000000000000000000217000000417000
0202LOTE PADRAO                   TELE CL SUL ON * EJ    TCSL3       010VISTA          000000000002000000000021000000000200000000000000000000021000009311400
0202LOTE PADRAO                   ITAUSA      PN         ITSA4       010VISTA          000000000001530000000015400000000150000000000000000000015100000335400
0202LOTE PADRAO                   V C P       PN *       VCPA4       010VISTA          000000000101700000001069000000010170000000000000000001060000003203800
0202LOTE PADRAO                   SID TUBARAO PN *       CSTB4       010VISTA          000000000026100000000285000000002610000000000000000000279000009740500
0202LOTE PADRAO                   BRADESPAR   PN *       BRAP4       010VISTA          000000000000440000000004600000000044000000000000000000004400066764400
0202LOTE PADRAO                   NET         PN         PLIM4       010VISTA          000000000000360000000003600000000033000000000000000000003400000870400
0202LOTE PADRAO                   TELE CTR OESPN * EJ    TCOC4       010VISTA          000000000003100000000032000000000290000000000000000000031000089618600
0202LOTE PADRAO                   TELEMAR N L PNA* EJ    TMAR5       010VISTA          000000000041700000000425000000004110000000000000000000420000014297300
0202LOTE PADRAO                   GERDAU      PN * EJ    GGBR4       010VISTA          000000000030000000000303000000002960000000000000000000296000033032300
0202LOTE PADRAO                   BRASIL      ON *       BBAS3       010VISTA          000000000008700000000089000000000850000000000000000000087000035314900
