00BDIN9999BOVESPA 99992002121920021219
0101IBOVESPA                      0109870109840112220000000000000000002002121900000020021219011208000000
0202LOTE PADRAO                   EMBRATEL PARPN *       EBTP4       010VISTA          000000000003700000000037000000000360000000000000000000037700383978000
0202LOTE PADRAO                   TRAN PAULISTPN * EJ    TRPL4       010VISTA          000000000005750000000057000000000570000000000000000000057500010922100
0202LOTE PADRAO                   EMBRATEL PARON *       EBTP3       010VISTA          000000000004200000000043000000000410000000000000000000043000041694600
0202LOTE PADRAO                   TELEMAR     PN * EJ    TNLP4       010VISTA          000000000027400000000279000000002730000000000000000000275000487464000
0202LOTE PADRAO                   ITAUBANCO   PN * EJ    ITAU4       010VISTA          000000000164500000001670000000015750000000000000000001670000025008000
0202LOTE PADRAO                   TELEMAR     ON * EJ    TNLP3       010VISTA          000000000020500000000206000000001980000000000000000000200000017092800
0202LOTE PADRAO                   SID NACIONALON *       CSNA3       010VISTA          000000000052500000000525000000004875000000000000000000498000037374200
0202LOTE PADRAO                   TELE LEST CLPN *       TLCP4       010VISTA          000000000000460000000004600000000043000000000000000000004400276430000
0202LOTE PADRAO                   CRT CELULAR PNA* EJ    CRTP5       010VISTA          000000000319000000003190000000030800000000000000000003090000002003700
0202LOTE PADRAO                   IPIRANGA PETPN *       PTIP4       010VISTA          000000000007300000000073000000000720000000000000000000072000006370000
0202LOTE PADRAO                   BRASIL T PARPN *       BRTP4       010VISTA          000000000018300000000183000000001800000000000000000000183000072048600
0202LOTE PADRAO                   BRASIL T PARON *       BRTP3       010VISTA          000000000016400000000164000000001440000000000000000000145000006202800
0202LOTE PADRAO                   KLABIN S/A  PN         KLBN4       010VISTA          000000000001000000000010000000000100000000000000000000010000000078900
0202LOTE PADRAO                   ACESITA     PN *       ACES4       010VISTA          000000000000960000000009600000000094000000000000000000009400231818000
0202LOTE PADRAO                   PETROBRAS   PN         PETR4       010VISTA          000000000045200000000473000000004450000000000000000000472000000220400
0202LOTE PADRAO                   ELETROBRAS  PNB*       ELET6       010VISTA          000000000022500000000240000000002240000000000000000000240000109877000
0202LOTE PADRAO                   PETROBRAS   ON         PETR3       010VISTA          000000000050100000000527000000005000000000000000000000526000000078800
0202LOTE PADRAO                   COMGAS      PNA*       CGAS5       010VISTA          000000000051400000000539000000005100000000000000000000539000003320300
0202LOTE PADRAO                   SOUZA CRUZ  ON EJ      CRUZ3       010VISTA          000000000018000000000180000000001780000000000000000000178000000015400
0202LOTE PADRAO                   ELETROBRAS  ON *       ELET3       010VISTA          000000000023300000000245000000002320000000000000000000243000047678700
0202LOTE PADRAO                   CELESC      PNB        CLSC6       010VISTA          000000000000520000000005200000000050000000000000000000005200000091900
0202LOTE PADRAO                   BRADESCO    PN * EJ    BBDC4       010VISTA          000000000010200000000107500000001000000000000000000000106000446660000
0202LOTE PADRAO                   CESP        PN *       CESP4       010VISTA          000000000007200000000074000000000700000000000000000000071000024944400
0202LOTE PADRAO                   LIGHT       ON *       LIGH3       010VISTA          000000000048300000000483000000004720000000000000000000475000000239800
0202LOTE PADRAO                   TELESP CL PAPN *       TSPP4       010VISTA          000000000004200000000044000000000410000000000000000000044001191130000
0202LOTE PADRAO                   VALE R DOCE PNA        VALE5       010VISTA          000000000095400000000967000000009500000000000000000000954000000030400
0202LOTE PADRAO                   COPEL       PNB*       CPLE6       010VISTA          000000000008600000000091000000000840000000000000000000091000165664000
0202LOTE PADRAO                   VALE R DOCE ON         VALE3       010VISTA          000000000101000000001012500000009950000000000000000001000000000005600
0202LOTE PADRAO                   ARACRUZ     PNB        ARCZ6       010VISTA          000000000006400000000065000000000630000000000000000000063000000079300
0202LOTE PADRAO                   TELEMIG PARTPN *       TMCP4       010VISTA          000000000002900000000030000000000280000000000000000000030000148074000
0202LOTE PADRAO                   BRASIL TELECPN *       BRTO4       010VISTA          000000000012000000000120000000001160000000000000000000117000334127000
0202LOTE PADRAO                   SABESP      ON *       SBSP3       010VISTA          000000000083900000000857000000008320000000000000000000855000007725600
0202LOTE PADRAO                   BRASKEM     PNA*       BRKM5       010VISTA          000000000219900000002229000000021500000000000000000002200000000364400
0202LOTE PADRAO                   EMBRAER     PN EJ      EMBR4       010VISTA          000000000013600000000137000000001350000000000000000000137000000305800
0202LOTE PADRAO                   TELESP      PN * EJ    TLPP4       010VISTA          000000000037100000000377000000003550000000000000000000357000012520200
0202LOTE PADRAO                   EMBRAER     ON EJ      EMBR3       010VISTA          000000000012400000000125000000001210000000000000000000122500000026400
0202LOTE PADRAO                   AMBEV       PN *       AMBV4       010VISTA          000000000547900000005479000000051900000000000000000005255000002201100
0202LOTE PADRAO                   USIMINAS    PNA        USIM5       010VISTA          000000000006000000000061000000000580000000000000000000060000000093800
0202LOTE PADRAO                   ELETROPAULO PN *       ELPL4       010VISTA          000000000025500000000266000000002530000000000000000000256000021539000
0202LOTE PADRAO                   TELE NORD CLPN *       TNEP4       010VISTA          000000000002700000000028000000000270000000000000000000027300122086000
0202LOTE PADRAO                   CEMIG       PN * EJ    CMIG4       010VISTA          000000000025000000000255000000002475000000000000000000255000163616000
0202LOTE PADRAO                   TELE CL SUL PN * EJ    TCSL4       010VISTA          000000000002770000000027700000000260000000000000000000027000121848000
0202LOTE PADRAO                   TRACTEBEL   ON *       TBLE3       010VISTA          000000000003800000000038000000000350000000000000000000036000030834600
0202LOTE PADRAO                   CEMIG       ON * EJ    CMIG3       010VISTA          000000000024600000000246000000002250000000000000000000228000000370000
0202LOTE PADRAO                   TELE CL SUL ON * EJ    TCSL3       010VISTA          000000000002000000000020000000000190000000000000000000019400022975800
0202LOTE PADRAO                   ITAUSA      PN         ITSA4       010VISTA          000000000001800000000018000000000181000000000000000000018000000284500
0202LOTE PADRAO                   V C P       PN *       VCPA4       010VISTA          000000000120900000001209000000011850000000000000000001190000001995900
0202LOTE PADRAO                   SID TUBARAO PN *       CSTB4       010VISTA          000000000040000000000400000000003810000000000000000000381000009579700
0202LOTE PADRAO                   BRADESPAR   PN *       BRAP4       010VISTA          000000000000580000000005900000000057000000000000000000005700397872000
0202LOTE PADRAO                   NET         PN         PLIM4       010VISTA          000000000000420000000004300000000040000000000000000000004100000716300
0202LOTE PADRAO                   TELE CTR OESPN * EJ    TCOC4       010VISTA          000000000004900000000049000000000460000000000000000000047000410076000
0202LOTE PADRAO                   TELEMAR N L PNA* EJ    TMAR5       010VISTA          000000000045700000000465000000004460000000000000000000457000035832000
0202LOTE PADRAO                   GERDAU      PN * EJ    GGBR4       010VISTA          000000000034000000000341000000003300000000000000000000335000043071800
0202LOTE PADRAO                   BRASIL      ON *       BBAS3       010VISTA          000000000009800000000099000000000980000000000000000000098000029255400
