00BDIN9999BOVESPA 99992002111320021113
0101IBOVESPA                      0097210095690098130000000000000000002002111300000020021113009764000000
0202LOTE PADRAO                   EMBRATEL PARPN *       EBTP4       010VISTA          000000000002000000000021000000000200000000000000000000021000189744000
0202LOTE PADRAO                   TRAN PAULISTPN * EJ    TRPL4       010VISTA          000000000005000000000050000000000480000000000000000000050000014341400
0202LOTE PADRAO                   EMBRATEL PARON *       EBTP3       010VISTA          000000000002500000000026000000000240000000000000000000025400035220700
0202LOTE PADRAO                   TELEMAR     PN * EJ    TNLP4       010VISTA          000000000023600000000241000000002330000000000000000000238000257076000
0202LOTE PADRAO                   ITAUBANCO   PN * EJ    ITAU4       010VISTA          000000000152500000001525000000014800000000000000000001495000011324300
0202LOTE PADRAO                   TELEMAR     ON * EJ    TNLP3       010VISTA          000000000017200000000177500000001710000000000000000000176000005368700
0202LOTE PADRAO                   SID NACIONALON *       CSNA3       010VISTA          000000000037000000000412500000003650000000000000000000407500066067200
0202LOTE PADRAO                   TELE LEST CLPN *       TLCP4       010VISTA          000000000000390000000004000000000038000000000000000000004000115224000
0202LOTE PADRAO                   CRT CELULAR PNA* EJ    CRTP5       010VISTA          000000000313000000003150000000030900000000000000000003100000000198400
0202LOTE PADRAO                   IPIRANGA PETPN *       PTIP4       010VISTA          000000000007800000000080000000000770000000000000000000080000001164600
0202LOTE PADRAO                   BRASIL T PARPN *       BRTP4       010VISTA          000000000017000000000176000000001680000000000000000000170000091475500
0202LOTE PADRAO                   BRASIL T PARON *       BRTP3       010VISTA          000000000013000000000135000000001290000000000000000000134000005291700
0202LOTE PADRAO                   KLABIN S/A  PN         KLBN4       010VISTA          000000000000920000000009800000000092000000000000000000009800000032900
0202LOTE PADRAO                   ACESITA     PN *       ACES4       010VISTA          000000000000710000000007200000000070000000000000000000007100048592900
0202LOTE PADRAO                   PETROBRAS   PN         PETR4       010VISTA          000000000042100000000426000000004160000000000000000000423000000041900
0202LOTE PADRAO                   ELETROBRAS  PNB*       ELET6       010VISTA          000000000016800000000178000000001675000000000000000000176000041111800
0202LOTE PADRAO                   PETROBRAS   ON         PETR3       010VISTA          000000000046100000000466000000004550000000000000000000464000000048200
0202LOTE PADRAO                   COMGAS      PNA*       CGAS5       010VISTA          000000000054500000000572000000005450000000000000000000550000000661000
0202LOTE PADRAO                   SOUZA CRUZ  ON EJ      CRUZ3       010VISTA          000000000018600000000188000000001860000000000000000000186000000003500
0202LOTE PADRAO                   ELETROBRAS  ON *       ELET3       010VISTA          000000000017100000000181000000001700000000000000000000178000015839000
0202LOTE PADRAO                   CELESC      PNB        CLSC6       010VISTA          000000000000490000000005000000000049000000000000000000005000000217800
0202LOTE PADRAO                   BRADESCO    PN * EJ    BBDC4       010VISTA          000000000008900000000090000000000880000000000000000000090000211283000
0202LOTE PADRAO                   CESP        PN *       CESP4       010VISTA          000000000005800000000062000000000580000000000000000000061000006798500
0202LOTE PADRAO                   LIGHT       ON *       LIGH3       010VISTA          000000000052000000000550000000005100000000000000000000550000000514200
0202LOTE PADRAO                   TELESP CL PAPN *       TSPP4       010VISTA          000000000003700000000037700000000360000000000000000000036900636743000
0202LOTE PADRAO                   VALE R DOCE PNA        VALE5       010VISTA          000000000089700000000900000000008870000000000000000000897000000021000
0202LOTE PADRAO                   COPEL       PNB*       CPLE6       010VISTA          000000000007400000000076000000000725000000000000000000075000020822100
0202LOTE PADRAO                   VALE R DOCE ON         VALE3       010VISTA          000000000093500000000940000000009270000000000000000000940000000006700
0202LOTE PADRAO                   ARACRUZ     PNB        ARCZ6       010VISTA          000000000005500000000057000000000550000000000000000000055000000084200
0202LOTE PADRAO                   TELEMIG PARTPN *       TMCP4       010VISTA          000000000002900000000031000000000290000000000000000000031000111442000
0202LOTE PADRAO                   BRASIL TELECPN *       BRTO4       010VISTA          000000000010900000000110000000001080000000000000000000110000047911700
0202LOTE PADRAO                   SABESP      ON *       SBSP3       010VISTA          000000000083900000000850000000008250000000000000000000841000000720800
0202LOTE PADRAO                   BRASKEM     PNA*       BRKM5       010VISTA          000000000234900000002400000000023490000000000000000002350000000039700
0202LOTE PADRAO                   EMBRAER     PN EJ      EMBR4       010VISTA          000000000014100000000143000000001380000000000000000000139000000059700
0202LOTE PADRAO                   TELESP      PN * EJ    TLPP4       010VISTA          000000000036000000000361000000003500000000000000000000358000004079400
0202LOTE PADRAO                   EMBRAER     ON EJ      EMBR3       010VISTA          000000000012750000000130000000001270000000000000000000127000000006400
0202LOTE PADRAO                   AMBEV       PN *       AMBV4       010VISTA          000000000520000000005300000000051620000000000000000005190000000746900
0202LOTE PADRAO                   USIMINAS    PNA        USIM5       010VISTA          000000000005100000000052000000000490000000000000000000051000000041800
0202LOTE PADRAO                   ELETROPAULO PN *       ELPL4       010VISTA          000000000023800000000240000000002350000000000000000000235000002092500
0202LOTE PADRAO                   TELE NORD CLPN *       TNEP4       010VISTA          000000000002400000000025600000000240000000000000000000025000041115600
0202LOTE PADRAO                   CEMIG       PN * EJ    CMIG4       010VISTA          000000000023100000000235000000002260000000000000000000235000045532300
0202LOTE PADRAO                   TELE CL SUL PN * EJ    TCSL4       010VISTA          000000000002770000000027000000000260000000000000000000026000091258000
0202LOTE PADRAO                   TRACTEBEL   ON *       TBLE3       010VISTA          000000000003100000000033000000000310000000000000000000033000004957600
0202LOTE PADRAO                   CEMIG       ON * EJ    CMIG3       010VISTA          000000000021000000000216000000002100000000000000000000210000000170000
0202LOTE PADRAO                   TELE CL SUL ON * EJ    TCSL3       010VISTA          000000000002000000000020000000000194000000000000000000019500057640800
0202LOTE PADRAO                   ITAUSA      PN         ITSA4       010VISTA          000000000001800000000018000000000174000000000000000000017400000451400
0202LOTE PADRAO                   V C P       PN *       VCPA4       010VISTA          000000000111000000001120000000010950000000000000000001115000000707200
0202LOTE PADRAO                   SID TUBARAO PN *       CSTB4       010VISTA          000000000035000000000350000000003410000000000000000000345000015419200
0202LOTE PADRAO                   BRADESPAR   PN *       BRAP4       010VISTA          000000000000470000000004800000000046000000000000000000004800129146000
0202LOTE PADRAO                   NET         PN         PLIM4       010VISTA          000000000000400000000004200000000033000000000000000000003700003063700
0202LOTE PADRAO                   TELE CTR OESPN * EJ    TCOC4       010VISTA          000000000003800000000040000000000380000000000000000000038000259325000
0202LOTE PADRAO                   TELEMAR N L PNA* EJ    TMAR5       010VISTA          000000000040900000000420000000004020000000000000000000417000033189500
0202LOTE PADRAO                   GERDAU      PN * EJ    GGBR4       010VISTA          000000000032200000000326000000003160000000000000000000320000016178200
0202LOTE PADRAO                   BRASIL      ON *       BBAS3       010VISTA          000000000010300000000103000000000980000000000000000000099000036308400
