00BDIN9999BOVESPA 99992002123020021230
0101IBOVESPA                      0112350112120113250000000000000000002002123000000020021230011268000000
0202LOTE PADRAO                   EMBRATEL PARPN *       EBTP4       010VISTA          000000000003900000000040000000000370000000000000000000037000372094000
0202LOTE PADRAO                   TRAN PAULISTPN * EJ    TRPL4       010VISTA          000000000005700000000059000000000560000000000000000000056000011293400
0202LOTE PADRAO                   EMBRATEL PARON *       EBTP3       010VISTA          000000000004300000000044000000000400000000000000000000041000060542100
0202LOTE PADRAO                   TELEMAR     PN * EJ    TNLP4       010VISTA          000000000027300000000276000000002700000000000000000000273000047657600
0202LOTE PADRAO                   ITAUBANCO   PN * EJ    ITAU4       010VISTA          000000000168750000001723000000016875000000000000000001715000003400700
0202LOTE PADRAO                   TELEMAR     ON * EJ    TNLP3       010VISTA          000000000020100000000201000000001960000000000000000000200000007851100
0202LOTE PADRAO                   SID NACIONALON *       CSNA3       010VISTA          000000000050000000000518000000005000000000000000000000511000005032600
0202LOTE PADRAO                   TELE LEST CLPN *       TLCP4       010VISTA          000000000000440000000004600000000044000000000000000000004400251324000
0202LOTE PADRAO                   CRT CELULAR PNA* EJ    CRTP5       010VISTA          000000000314900000003160000000030300000000000000000003068000000246700
0202LOTE PADRAO                   IPIRANGA PETPN *       PTIP4       010VISTA          000000000007700000000080000000000770000000000000000000078000007456700
0202LOTE PADRAO                   BRASIL T PARPN *       BRTP4       010VISTA          000000000018100000000183000000001810000000000000000000181000007230800
0202LOTE PADRAO                   BRASIL T PARON *       BRTP3       010VISTA          000000000013600000000139000000001360000000000000000000138000009157300
0202LOTE PADRAO                   KLABIN S/A  PN         KLBN4       010VISTA          000000000001000000000010000000000099000000000000000000010000000014100
0202LOTE PADRAO                   ACESITA     PN *       ACES4       010VISTA          000000000000950000000009600000000091000000000000000000009200213865000
0202LOTE PADRAO                   PETROBRAS   PN         PETR4       010VISTA          000000000046700000000474000000004630000000000000000000463000000027200
0202LOTE PADRAO                   ELETROBRAS  PNB*       ELET6       010VISTA          000000000023500000000235000000002310000000000000000000234000023831900
0202LOTE PADRAO                   PETROBRAS   ON         PETR3       010VISTA          000000000052000000000527000000005170000000000000000000527000000005000
0202LOTE PADRAO                   COMGAS      PNA*       CGAS5       010VISTA          000000000053000000000541000000005300000000000000000000531000000286100
0202LOTE PADRAO                   SOUZA CRUZ  ON EJ      CRUZ3       010VISTA          000000000017400000000181000000001740000000000000000000178000000008900
0202LOTE PADRAO                   ELETROBRAS  ON *       ELET3       010VISTA          000000000023500000000236000000002310000000000000000000236000008239900
0202LOTE PADRAO                   CELESC      PNB        CLSC6       010VISTA          000000000000550000000005500000000052000000000000000000005400000648200
0202LOTE PADRAO                   BRADESCO    PN * EJ    BBDC4       010VISTA          000000000010800000000111000000001080000000000000000000110000260267000
0202LOTE PADRAO                   CESP        PN *       CESP4       010VISTA          000000000007200000000074000000000700000000000000000000071000003936100
0202LOTE PADRAO                   LIGHT       ON *       LIGH3       010VISTA          000000000047500000000475000000004650000000000000000000468000000218400
0202LOTE PADRAO                   TELESP CL PAPN *       TSPP4       010VISTA          000000000004200000000043000000000410000000000000000000042500169471000
0202LOTE PADRAO                   VALE R DOCE PNA        VALE5       010VISTA          000000000097700000000980000000009570000000000000000000976000000011100
0202LOTE PADRAO                   COPEL       PNB*       CPLE6       010VISTA          000000000009600000000100000000000960000000000000000000100000030622100
0202LOTE PADRAO                   VALE R DOCE ON         VALE3       010VISTA          000000000102500000001040000000010150000000000000000001029000000012500
0202LOTE PADRAO                   ARACRUZ     PNB        ARCZ6       010VISTA          000000000006500000000067000000000640000000000000000000067000000018300
0202LOTE PADRAO                   TELEMIG PARTPN *       TMCP4       010VISTA          000000000003000000000030000000000296000000000000000000029800024782600
0202LOTE PADRAO                   BRASIL TELECPN *       BRTO4       010VISTA          000000000011400000000119000000001140000000000000000000117000013418300
0202LOTE PADRAO                   SABESP      ON *       SBSP3       010VISTA          000000000088200000000925000000008820000000000000000000920000003396300
0202LOTE PADRAO                   BRASKEM     PNA*       BRKM5       010VISTA          000000000223100000002250000000021700000000000000000002200000000179100
0202LOTE PADRAO                   EMBRAER     PN EJ      EMBR4       010VISTA          000000000013900000000141000000001380000000000000000000140000000027900
0202LOTE PADRAO                   TELESP      PN * EJ    TLPP4       010VISTA          000000000033000000000342000000003300000000000000000000342000002093600
0202LOTE PADRAO                   EMBRAER     ON EJ      EMBR3       010VISTA          000000000012300000000130000000001225000000000000000000128000000015500
0202LOTE PADRAO                   AMBEV       PN *       AMBV4       010VISTA          000000000533900000005400000000053390000000000000000005400000000672600
0202LOTE PADRAO                   USIMINAS    PNA        USIM5       010VISTA          000000000006600000000066000000000650000000000000000000065000000029300
0202LOTE PADRAO                   ELETROPAULO PN *       ELPL4       010VISTA          000000000026100000000275000000002600000000000000000000260000012000900
0202LOTE PADRAO                   TELE NORD CLPN *       TNEP4       010VISTA          000000000002730000000027000000000270000000000000000000027100049219100
0202LOTE PADRAO                   CEMIG       PN * EJ    CMIG4       010VISTA          000000000025500000000264000000002550000000000000000000264000021211500
0202LOTE PADRAO                   TELE CL SUL PN * EJ    TCSL4       010VISTA          000000000002700000000027900000000270000000000000000000027000035179900
0202LOTE PADRAO                   TRACTEBEL   ON *       TBLE3       010VISTA          000000000003500000000035000000000350000000000000000000035000005758600
0202LOTE PADRAO                   CEMIG       ON * EJ    CMIG3       010VISTA          000000000022800000000235000000002260000000000000000000235000000501800
0202LOTE PADRAO                   TELE CL SUL ON * EJ    TCSL3       010VISTA          000000000001950000000019800000000190000000000000000000019600011333900
0202LOTE PADRAO                   ITAUSA      PN         ITSA4       010VISTA          000000000001800000000018000000000180000000000000000000018000000121200
0202LOTE PADRAO                   V C P       PN *       VCPA4       010VISTA          000000000118000000001200000000011800000000000000000001200000000698400
0202LOTE PADRAO                   SID TUBARAO PN *       CSTB4       010VISTA          000000000040000000000400000000003970000000000000000000400000002196300
0202LOTE PADRAO                   BRADESPAR   PN *       BRAP4       010VISTA          000000000000560000000006000000000055000000000000000000005800553540000
0202LOTE PADRAO                   NET         PN         PLIM4       010VISTA          000000000000430000000004500000000041000000000000000000004200000672400
0202LOTE PADRAO                   TELE CTR OESPN * EJ    TCOC4       010VISTA          000000000004900000000049000000000460000000000000000000047000116448000
0202LOTE PADRAO                   TELEMAR N L PNA* EJ    TMAR5       010VISTA          000000000043700000000450000000004370000000000000000000450000007339100
0202LOTE PADRAO                   GERDAU      PN * EJ    GGBR4       010VISTA          000000000033700000000345000000003370000000000000000000345000010984600
0202LOTE PADRAO                   BRASIL      ON *       BBAS3       010VISTA          000000000009800000000099000000000960000000000000000000098000031472600
