00BDIN9999BOVESPA 99992002101520021015
0101IBOVESPA                      0084520084460086220000000000000000002002101500000020021015008507000000
0202LOTE PADRAO                   EMBRATEL PARPN *       EBTP4       010VISTA          000000000002200000000022700000000220000000000000000000022500117282000
0202LOTE PADRAO                   TRAN PAULISTPN * EJ    TRPL4       010VISTA          000000000004900000000049000000000460000000000000000000049000013076400
0202LOTE PADRAO                   EMBRATEL PARON *       EBTP3       010VISTA          000000000002800000000029600000000280000000000000000000028000010271400
0202LOTE PADRAO                   TELEMAR     PN * EJ    TNLP4       010VISTA          000000000020500000000208000000002025000000000000000000203000251644000
0202LOTE PADRAO                   ITAUBANCO   PN * EJ    ITAU4       010VISTA          000000000120000000001225000000011500000000000000000001168000037187300
0202LOTE PADRAO                   TELEMAR     ON * EJ    TNLP3       010VISTA          000000000015500000000155000000001500000000000000000000155000002221000
0202LOTE PADRAO                   SID NACIONALON *       CSNA3       010VISTA          000000000031300000000321000000003110000000000000000000311000005917200
0202LOTE PADRAO                   TELE LEST CLPN *       TLCP4       010VISTA          000000000000370000000003800000000037000000000000000000003700070716900
0202LOTE PADRAO                   CRT CELULAR PNA* EJ    CRTP5       010VISTA          000000000316000000003160000000030600000000000000000003160000000241000
0202LOTE PADRAO                   IPIRANGA PETPN *       PTIP4       010VISTA          000000000008000000000080000000000750000000000000000000076000005671100
0202LOTE PADRAO                   BRASIL T PARPN *       BRTP4       010VISTA          000000000017000000000176000000001700000000000000000000174000051722000
0202LOTE PADRAO                   BRASIL T PARON *       BRTP3       010VISTA          000000000012600000000130000000001260000000000000000000130000001419200
0202LOTE PADRAO                   KLABIN S/A  PN         KLBN4       010VISTA          000000000000900000000009000000000088000000000000000000009000000004200
0202LOTE PADRAO                   ACESITA     PN *       ACES4       010VISTA          000000000000640000000006400000000063000000000000000000006400060989900
0202LOTE PADRAO                   PETROBRAS   PN         PETR4       010VISTA          000000000035300000000364000000003510000000000000000000351000000096200
0202LOTE PADRAO                   ELETROBRAS  PNB*       ELET6       010VISTA          000000000015100000000153000000001450000000000000000000146000065190600
0202LOTE PADRAO                   PETROBRAS   ON         PETR3       010VISTA          000000000039200000000395000000003800000000000000000000380000000128400
0202LOTE PADRAO                   COMGAS      PNA*       CGAS5       010VISTA          000000000059500000000617000000005950000000000000000000613000000224000
0202LOTE PADRAO                   SOUZA CRUZ  ON EJ      CRUZ3       010VISTA          000000000017100000000175000000001700000000000000000000170000000008000
0202LOTE PADRAO                   ELETROBRAS  ON *       ELET3       010VISTA          000000000015500000000155000000001490000000000000000000150000007683400
0202LOTE PADRAO                   CELESC      PNB        CLSC6       010VISTA          000000000000500000000005000000000048000000000000000000004800000133900
0202LOTE PADRAO                   BRADESCO    PN * EJ    BBDC4       010VISTA          000000000007800000000078000000000750000000000000000000077000269939000
0202LOTE PADRAO                   CESP        PN *       CESP4       010VISTA          000000000006200000000062000000000600000000000000000000062000003368200
0202LOTE PADRAO                   LIGHT       ON *       LIGH3       010VISTA          000000000054000000000540000000005100000000000000000000539000000388100
0202LOTE PADRAO                   TELESP CL PAPN *       TSPP4       010VISTA          000000000002700000000027000000000260000000000000000000027100269192000
0202LOTE PADRAO                   VALE R DOCE PNA        VALE5       010VISTA          000000000082000000000835000000008200000000000000000000825000000008700
0202LOTE PADRAO                   COPEL       PNB*       CPLE6       010VISTA          000000000007500000000076000000000740000000000000000000075000031968600
0202LOTE PADRAO                   VALE R DOCE ON         VALE3       010VISTA          000000000085000000000860000000008500000000000000000000852000000010200
0202LOTE PADRAO                   ARACRUZ     PNB        ARCZ6       010VISTA          000000000005500000000055000000000550000000000000000000055000000034200
0202LOTE PADRAO                   TELEMIG PARTPN *       TMCP4       010VISTA          000000000002300000000025000000000230000000000000000000025000093478000
0202LOTE PADRAO                   BRASIL TELECPN *       BRTO4       010VISTA          000000000010600000000109000000001060000000000000000000109000059439600
0202LOTE PADRAO                   SABESP      ON *       SBSP3       010VISTA          000000000078000000000782000000007700000000000000000000770000000976200
0202LOTE PADRAO                   BRASKEM     PNA*       BRKM5       010VISTA          000000000220000000002249000000021820000000000000000002182000000073200
0202LOTE PADRAO                   EMBRAER     PN EJ      EMBR4       010VISTA          000000000013000000000130000000001290000000000000000000130000000015100
0202LOTE PADRAO                   TELESP      PN * EJ    TLPP4       010VISTA          000000000030500000000306000000003010000000000000000000303000015584500
0202LOTE PADRAO                   EMBRAER     ON EJ      EMBR3       010VISTA          000000000012000000000121000000001200000000000000000000120000000003300
0202LOTE PADRAO                   AMBEV       PN *       AMBV4       010VISTA          000000000438000000004449000000043000000000000000000004332000002142800
0202LOTE PADRAO                   USIMINAS    PNA        USIM5       010VISTA          000000000004250000000042000000000410000000000000000000042000000035100
0202LOTE PADRAO                   ELETROPAULO PN *       ELPL4       010VISTA          000000000023400000000235000000002280000000000000000000234000001181300
0202LOTE PADRAO                   TELE NORD CLPN *       TNEP4       010VISTA          000000000002100000000022000000000210000000000000000000022000062512200
0202LOTE PADRAO                   CEMIG       PN * EJ    CMIG4       010VISTA          000000000021000000000213000000001960000000000000000000201000045658100
0202LOTE PADRAO                   TELE CL SUL PN * EJ    TCSL4       010VISTA          000000000002300000000024000000000230000000000000000000024000088825300
0202LOTE PADRAO                   TRACTEBEL   ON *       TBLE3       010VISTA          000000000003700000000038000000000370000000000000000000038000005588500
0202LOTE PADRAO                   CEMIG       ON * EJ    CMIG3       010VISTA          000000000020000000000200000000001900000000000000000000193000000332000
0202LOTE PADRAO                   TELE CL SUL ON * EJ    TCSL3       010VISTA          000000000001950000000020000000000195000000000000000000020000007529100
0202LOTE PADRAO                   ITAUSA      PN         ITSA4       010VISTA          000000000001500000000015000000000140000000000000000000014700000208000
0202LOTE PADRAO                   V C P       PN *       VCPA4       010VISTA          000000000102000000001045000000010200000000000000000001044000000645900
0202LOTE PADRAO                   SID TUBARAO PN *       CSTB4       010VISTA          000000000031800000000325000000003130000000000000000000324000009736400
0202LOTE PADRAO                   BRADESPAR   PN *       BRAP4       010VISTA          000000000000440000000004500000000044000000000000000000004500111735000
0202LOTE PADRAO                   NET         PN         PLIM4       010VISTA          000000000000230000000002300000000022000000000000000000002300000221800
0202LOTE PADRAO                   TELE CTR OESPN * EJ    TCOC4       010VISTA          000000000003000000000031000000000300000000000000000000031000086765900
0202LOTE PADRAO                   TELEMAR N L PNA* EJ    TMAR5       010VISTA          000000000040000000000400000000003920000000000000000000396000027136800
0202LOTE PADRAO                   GERDAU      PN * EJ    GGBR4       010VISTA          000000000028600000000286000000002700000000000000000000274000076254000
0202LOTE PADRAO                   BRASIL      ON *       BBAS3       010VISTA          000000000008700000000089000000000840000000000000000000085000025460100
