00BDIN9999BOVESPA 99992002041720020417
0101IBOVESPA                      0136330136330138720000000000000000002002041700000020020417013732000000
0202LOTE PADRAO                   EMBRATEL PARPN *       EBTP4       010VISTA          000000000007200000000075000000000720000000000000000000074000326086000
0202LOTE PADRAO                   TRAN PAULISTPN * EJ    TRPL4       010VISTA          000000000007400000000074000000000720000000000000000000073000041340800
0202LOTE PADRAO                   EMBRATEL PARON *       EBTP3       010VISTA          000000000008700000000093000000000860000000000000000000090000065700600
0202LOTE PADRAO                   TELEMAR     PN * EJ    TNLP4       010VISTA          000000000031500000000320000000003150000000000000000000316000207461000
0202LOTE PADRAO                   ITAUBANCO   PN * EJ    ITAU4       010VISTA          000000000189500000001900000000018700000000000000000001880000009355300
0202LOTE PADRAO                   TELEMAR     ON * EJ    TNLP3       010VISTA          000000000027800000000281000000002730000000000000000000275000016468000
0202LOTE PADRAO                   SID NACIONALON *       CSNA3       010VISTA          000000000047000000000478000000004650000000000000000000476000016718800
0202LOTE PADRAO                   TELE LEST CLPN *       TLCP4       010VISTA          000000000000760000000007700000000073000000000000000000007400220519000
0202LOTE PADRAO                   CRT CELULAR PNA* EJ    CRTP5       010VISTA          000000000448000000004530000000043800000000000000000004480000001433700
0202LOTE PADRAO                   IPIRANGA PETPN *       PTIP4       010VISTA          000000000015000000000155000000001500000000000000000000153000007152800
0202LOTE PADRAO                   BRASIL T PARPN *       BRTP4       010VISTA          000000000019300000000198000000001930000000000000000000195000116299000
0202LOTE PADRAO                   BRASIL T PARON *       BRTP3       010VISTA          000000000018600000000188000000001860000000000000000000186000047812600
0202LOTE PADRAO                   KLABIN S/A  PN         KLBN4       010VISTA          000000000001100000000011000000000110000000000000000000011000000114600
0202LOTE PADRAO                   ACESITA     PN *       ACES4       010VISTA          000000000000760000000007800000000075000000000000000000007600383402000
0202LOTE PADRAO                   PETROBRAS   PN         PETR4       010VISTA          000000000056100000000571000000005610000000000000000000568000000142700
0202LOTE PADRAO                   ELETROBRAS  PNB*       ELET6       010VISTA          000000000035800000000369000000003580000000000000000000358000074056300
0202LOTE PADRAO                   PETROBRAS   ON         PETR3       010VISTA          000000000059200000000608000000005920000000000000000000600000000041700
0202LOTE PADRAO                   COMGAS      PNA*       CGAS5       010VISTA          000000000075500000000782000000007550000000000000000000770000002648900
0202LOTE PADRAO                   SOUZA CRUZ  ON EJ      CRUZ3       010VISTA          000000000015400000000159000000001540000000000000000000159000000031400
0202LOTE PADRAO                   ELETROBRAS  ON *       ELET3       010VISTA          000000000040100000000405000000003870000000000000000000392000024649000
0202LOTE PADRAO                   CELESC      PNB        CLSC6       010VISTA          000000000000570000000005700000000055000000000000000000005600000401300
0202LOTE PADRAO                   BRADESCO    PN * EJ    BBDC4       010VISTA          000000000014600000000148000000001450000000000000000000146000267995000
0202LOTE PADRAO                   CESP        PN *       CESP4       010VISTA          000000000014400000000145000000001400000000000000000000142500016182800
0202LOTE PADRAO                   LIGHT       ON *       LIGH3       010VISTA          000000000102200000001064000000010150000000000000000001015000000998300
0202LOTE PADRAO                   TELESP CL PAPN *       TSPP4       010VISTA          000000000006000000000061000000000590000000000000000000060000312188000
0202LOTE PADRAO                   VALE R DOCE PNA        VALE5       010VISTA          000000000065000000000657000000006500000000000000000000657000000052300
0202LOTE PADRAO                   COPEL       PNB*       CPLE6       010VISTA          000000000018250000000186000000001810000000000000000000181000046944500
0202LOTE PADRAO                   VALE R DOCE ON         VALE3       010VISTA          000000000066000000000665000000006550000000000000000000665000000038200
0202LOTE PADRAO                   ARACRUZ     PNB        ARCZ6       010VISTA          000000000005100000000051000000000500000000000000000000050000000096000
0202LOTE PADRAO                   TELEMIG PARTPN *       TMCP4       010VISTA          000000000003000000000031000000000300000000000000000000030000139251000
0202LOTE PADRAO                   BRASIL TELECPN *       BRTO4       010VISTA          000000000013600000000138000000001350000000000000000000136000104339000
0202LOTE PADRAO                   SABESP      ON *       SBSP3       010VISTA          000000000138800000001443000000013880000000000000000001440000006435700
0202LOTE PADRAO                   BRASKEM     PNA*       BRKM5       010VISTA          000000000534900000005594000000053000000000000000000005540000000452000
0202LOTE PADRAO                   EMBRAER     PN EJ      EMBR4       010VISTA          000000000012600000000127500000001240000000000000000000125000000148100
0202LOTE PADRAO                   TELESP      PN * EJ    TLPP4       010VISTA          000000000034300000000352000000003400000000000000000000345000010869400
0202LOTE PADRAO                   EMBRAER     ON EJ      EMBR3       010VISTA          000000000011600000000117000000001130000000000000000000114000000033900
0202LOTE PADRAO                   AMBEV       PN *       AMBV4       010VISTA          000000000485500000004869000000047500000000000000000004835000003646900
0202LOTE PADRAO                   USIMINAS    PNA        USIM5       010VISTA          000000000008000000000083000000000800000000000000000000083000000496100
0202LOTE PADRAO                   ELETROPAULO PN *       ELPL4       010VISTA          000000000067000000000694000000006700000000000000000000685000004451700
0202LOTE PADRAO                   TELE NORD CLPN *       TNEP4       010VISTA          000000000002700000000027300000000260000000000000000000026000242359000
0202LOTE PADRAO                   CEMIG       PN * EJ    CMIG4       010VISTA          000000000037500000000380000000003750000000000000000000380000098739900
0202LOTE PADRAO                   TELE CL SUL PN * EJ    TCSL4       010VISTA          000000000003100000000032000000000300000000000000000000031000146658000
0202LOTE PADRAO                   TRACTEBEL   ON *       TBLE3       010VISTA          000000000004800000000049000000000480000000000000000000049000027104200
0202LOTE PADRAO                   CEMIG       ON * EJ    CMIG3       010VISTA          000000000034500000000352000000003450000000000000000000350000004170100
0202LOTE PADRAO                   TELE CL SUL ON * EJ    TCSL3       010VISTA          000000000002700000000027000000000270000000000000000000027700038797600
0202LOTE PADRAO                   ITAUSA      PN         ITSA4       010VISTA          000000000002400000000024000000000240000000000000000000024000000555900
0202LOTE PADRAO                   V C P       PN *       VCPA4       010VISTA          000000000093500000000978000000009250000000000000000000972000005763500
0202LOTE PADRAO                   SID TUBARAO PN *       CSTB4       010VISTA          000000000025700000000259000000002530000000000000000000256000010331100
0202LOTE PADRAO                   BRADESPAR   PN *       BRAP4       010VISTA          000000000000740000000007600000000073000000000000000000007300291533000
0202LOTE PADRAO                   NET         PN         PLIM4       010VISTA          000000000000450000000004600000000043000000000000000000004300003388300
0202LOTE PADRAO                   TELE CTR OESPN * EJ    TCOC4       010VISTA          000000000004800000000050000000000480000000000000000000050000240802000
0202LOTE PADRAO                   TELEMAR N L PNA* EJ    TMAR5       010VISTA          000000000053500000000542000000005320000000000000000000535000044545100
0202LOTE PADRAO                   GERDAU      PN * EJ    GGBR4       010VISTA          000000000030600000000327000000003050000000000000000000326000035348300
0202LOTE PADRAO                   BRASIL      ON *       BBAS3       010VISTA          000000000014400000000148000000001400000000000000000000143000015066900
