00BDIN9999BOVESPA 99992002101420021014
0101IBOVESPA                      0088530084300088530000000000000000002002101400000020021014008451000000
0202LOTE PADRAO                   EMBRATEL PARPN *       EBTP4       010VISTA          000000000002200000000023000000000210000000000000000000022000156305000
0202LOTE PADRAO                   TRAN PAULISTPN * EJ    TRPL4       010VISTA          000000000005100000000051000000000470000000000000000000047000007007300
0202LOTE PADRAO                   EMBRATEL PARON *       EBTP3       010VISTA          000000000002900000000030000000000279000000000000000000027000021482700
0202LOTE PADRAO                   TELEMAR     PN * EJ    TNLP4       010VISTA          000000000021200000000212000000002010000000000000000000203000260549000
0202LOTE PADRAO                   ITAUBANCO   PN * EJ    ITAU4       010VISTA          000000000121800000001218000000011750000000000000000001200000011707900
0202LOTE PADRAO                   TELEMAR     ON * EJ    TNLP3       010VISTA          000000000015900000000160000000001500000000000000000000151000003453300
0202LOTE PADRAO                   SID NACIONALON *       CSNA3       010VISTA          000000000032200000000323000000003060000000000000000000313000006805300
0202LOTE PADRAO                   TELE LEST CLPN *       TLCP4       010VISTA          000000000000390000000003900000000036000000000000000000003700121273000
0202LOTE PADRAO                   CRT CELULAR PNA* EJ    CRTP5       010VISTA          000000000322900000003230000000030600000000000000000003160000000137500
0202LOTE PADRAO                   IPIRANGA PETPN *       PTIP4       010VISTA          000000000008900000000089000000000800000000000000000000080000004232900
0202LOTE PADRAO                   BRASIL T PARPN *       BRTP4       010VISTA          000000000017600000000176000000001700000000000000000000170000066651700
0202LOTE PADRAO                   BRASIL T PARON *       BRTP3       010VISTA          000000000013000000000130000000001250000000000000000000126000007774100
0202LOTE PADRAO                   KLABIN S/A  PN         KLBN4       010VISTA          000000000000900000000009000000000085000000000000000000008800000011800
0202LOTE PADRAO                   ACESITA     PN *       ACES4       010VISTA          000000000000640000000006400000000062000000000000000000006300086455400
0202LOTE PADRAO                   PETROBRAS   PN         PETR4       010VISTA          000000000035800000000364000000003510000000000000000000351000000169800
0202LOTE PADRAO                   ELETROBRAS  PNB*       ELET6       010VISTA          000000000015800000000158000000001500000000000000000000150000058337700
0202LOTE PADRAO                   PETROBRAS   ON         PETR3       010VISTA          000000000039700000000402000000003790000000000000000000379000000059800
0202LOTE PADRAO                   COMGAS      PNA*       CGAS5       010VISTA          000000000060000000000600000000005650000000000000000000595000000138200
0202LOTE PADRAO                   SOUZA CRUZ  ON EJ      CRUZ3       010VISTA          000000000017500000000178000000001670000000000000000000167000000010500
0202LOTE PADRAO                   ELETROBRAS  ON *       ELET3       010VISTA          000000000016100000000161000000001500000000000000000000153000021350900
0202LOTE PADRAO                   CELESC      PNB        CLSC6       010VISTA          000000000000500000000005000000000048000000000000000000005000000175400
0202LOTE PADRAO                   BRADESCO    PN * EJ    BBDC4       010VISTA          000000000008000000000080000000000760000000000000000000076000299386000
0202LOTE PADRAO                   CESP        PN *       CESP4       010VISTA          000000000006400000000064000000000610000000000000000000061000004111500
0202LOTE PADRAO                   LIGHT       ON *       LIGH3       010VISTA          000000000056500000000565000000005140000000000000000000540000000187700
0202LOTE PADRAO                   TELESP CL PAPN *       TSPP4       010VISTA          000000000002800000000028000000000260000000000000000000026000233643000
0202LOTE PADRAO                   VALE R DOCE PNA        VALE5       010VISTA          000000000083500000000835000000008100000000000000000000820000000009400
0202LOTE PADRAO                   COPEL       PNB*       CPLE6       010VISTA          000000000007900000000079000000000710000000000000000000074000045933000
0202LOTE PADRAO                   VALE R DOCE ON         VALE3       010VISTA          000000000086000000000860000000008350000000000000000000850000000005300
0202LOTE PADRAO                   ARACRUZ     PNB        ARCZ6       010VISTA          000000000005500000000056000000000540000000000000000000055000000051800
0202LOTE PADRAO                   TELEMIG PARTPN *       TMCP4       010VISTA          000000000002400000000024000000000230000000000000000000023000067694800
0202LOTE PADRAO                   BRASIL TELECPN *       BRTO4       010VISTA          000000000011000000000110000000001050000000000000000000105000039025900
0202LOTE PADRAO                   SABESP      ON *       SBSP3       010VISTA          000000000082000000000820000000007700000000000000000000774000003846200
0202LOTE PADRAO                   BRASKEM     PNA*       BRKM5       010VISTA          000000000220000000002225000000021500000000000000000002150000000053300
0202LOTE PADRAO                   EMBRAER     PN EJ      EMBR4       010VISTA          000000000012900000000133000000001275000000000000000000129000000038800
0202LOTE PADRAO                   TELESP      PN * EJ    TLPP4       010VISTA          000000000030500000000306000000003010000000000000000000305000009241900
0202LOTE PADRAO                   EMBRAER     ON EJ      EMBR3       010VISTA          000000000012300000000123000000001150000000000000000000120000000002200
0202LOTE PADRAO                   AMBEV       PN *       AMBV4       010VISTA          000000000450000000004500000000043000000000000000000004350000001583300
0202LOTE PADRAO                   USIMINAS    PNA        USIM5       010VISTA          000000000004400000000044000000000410000000000000000000041000000027100
0202LOTE PADRAO                   ELETROPAULO PN *       ELPL4       010VISTA          000000000023500000000236000000002220000000000000000000225000001816600
0202LOTE PADRAO                   TELE NORD CLPN *       TNEP4       010VISTA          000000000002200000000022000000000210000000000000000000021000059967500
0202LOTE PADRAO                   CEMIG       PN * EJ    CMIG4       010VISTA          000000000021000000000213000000002000000000000000000000206000030585000
0202LOTE PADRAO                   TELE CL SUL PN * EJ    TCSL4       010VISTA          000000000002400000000024000000000220000000000000000000023000034713300
0202LOTE PADRAO                   TRACTEBEL   ON *       TBLE3       010VISTA          000000000003900000000039000000000379000000000000000000037000009276100
0202LOTE PADRAO                   CEMIG       ON * EJ    CMIG3       010VISTA          000000000019600000000198000000001910000000000000000000198000000503400
0202LOTE PADRAO                   TELE CL SUL ON * EJ    TCSL3       010VISTA          000000000002000000000020000000000190000000000000000000019500011494000
0202LOTE PADRAO                   ITAUSA      PN         ITSA4       010VISTA          000000000001500000000015000000000147000000000000000000014900000424600
0202LOTE PADRAO                   V C P       PN *       VCPA4       010VISTA          000000000106000000001060000000009850000000000000000001010000010093100
0202LOTE PADRAO                   SID TUBARAO PN *       CSTB4       010VISTA          000000000031800000000318000000003080000000000000000000318000011257700
0202LOTE PADRAO                   BRADESPAR   PN *       BRAP4       010VISTA          000000000000450000000004500000000044000000000000000000004500062844600
0202LOTE PADRAO                   NET         PN         PLIM4       010VISTA          000000000000240000000002400000000022000000000000000000002200000371400
0202LOTE PADRAO                   TELE CTR OESPN * EJ    TCOC4       010VISTA          000000000003100000000031000000000300000000000000000000030000122168000
0202LOTE PADRAO                   TELEMAR N L PNA* EJ    TMAR5       010VISTA          000000000040500000000405000000003870000000000000000000393000016335500
0202LOTE PADRAO                   GERDAU      PN * EJ    GGBR4       010VISTA          000000000029300000000293000000002780000000000000000000285000014325900
0202LOTE PADRAO                   BRASIL      ON *       BBAS3       010VISTA          000000000009000000000090000000000860000000000000000000086000018088300
