00BDIN9999BOVESPA 99992002071120020711
0101IBOVESPA                      0105450104670108100000000000000000002002071100000020020711010806000000
0202LOTE PADRAO                   EMBRATEL PARPN *       EBTP4       010VISTA          000000000001800000000019600000000180000000000000000000019500375650000
0202LOTE PADRAO                   TRAN PAULISTPN * EJ    TRPL4       010VISTA          000000000005800000000060000000000580000000000000000000060000015877500
0202LOTE PADRAO                   EMBRATEL PARON *       EBTP3       010VISTA          000000000002900000000031000000000280000000000000000000031000053418000
0202LOTE PADRAO                   TELEMAR     PN * EJ    TNLP4       010VISTA          000000000026600000000277000000002630000000000000000000276000285577000
0202LOTE PADRAO                   ITAUBANCO   PN * EJ    ITAU4       010VISTA          000000000153900000001555000000015000000000000000000001535000017882000
0202LOTE PADRAO                   TELEMAR     ON * EJ    TNLP3       010VISTA          000000000021900000000228000000002180000000000000000000228000011628200
0202LOTE PADRAO                   SID NACIONALON *       CSNA3       010VISTA          000000000046500000000465000000004470000000000000000000457000020031200
0202LOTE PADRAO                   TELE LEST CLPN *       TLCP4       010VISTA          000000000000540000000005900000000054000000000000000000005700136849000
0202LOTE PADRAO                   CRT CELULAR PNA* EJ    CRTP5       010VISTA          000000000388800000004000000000038800000000000000000003990000000376100
0202LOTE PADRAO                   IPIRANGA PETPN *       PTIP4       010VISTA          000000000011600000000123000000001160000000000000000000121000003191600
0202LOTE PADRAO                   BRASIL T PARPN *       BRTP4       010VISTA          000000000016000000000163000000001580000000000000000000162000056949100
0202LOTE PADRAO                   BRASIL T PARON *       BRTP3       010VISTA          000000000014300000000149000000001420000000000000000000145000006105500
0202LOTE PADRAO                   KLABIN S/A  PN         KLBN4       010VISTA          000000000000850000000008900000000084000000000000000000008700000021800
0202LOTE PADRAO                   ACESITA     PN *       ACES4       010VISTA          000000000000590000000006300000000058000000000000000000006200121509000
0202LOTE PADRAO                   PETROBRAS   PN         PETR4       010VISTA          000000000044600000000452000000004420000000000000000000450000000099900
0202LOTE PADRAO                   ELETROBRAS  PNB*       ELET6       010VISTA          000000000023900000000246000000002350000000000000000000246000058148500
0202LOTE PADRAO                   PETROBRAS   ON         PETR3       010VISTA          000000000049300000000495000000004860000000000000000000487000000026700
0202LOTE PADRAO                   COMGAS      PNA*       CGAS5       010VISTA          000000000059000000000600000000005800000000000000000000600000000504500
0202LOTE PADRAO                   SOUZA CRUZ  ON EJ      CRUZ3       010VISTA          000000000014500000000149000000001440000000000000000000148000000008800
0202LOTE PADRAO                   ELETROBRAS  ON *       ELET3       010VISTA          000000000026000000000275000000002600000000000000000000275000011219300
0202LOTE PADRAO                   CELESC      PNB        CLSC6       010VISTA          000000000000580000000006000000000058000000000000000000006000000339500
0202LOTE PADRAO                   BRADESCO    PN * EJ    BBDC4       010VISTA          000000000010400000000106000000001030000000000000000000105000241811000
0202LOTE PADRAO                   CESP        PN *       CESP4       010VISTA          000000000008100000000083000000000800000000000000000000082000009225300
0202LOTE PADRAO                   LIGHT       ON *       LIGH3       010VISTA          000000000086900000000879000000008650000000000000000000879000000269900
0202LOTE PADRAO                   TELESP CL PAPN *       TSPP4       010VISTA          000000000003400000000035000000000330000000000000000000034000622883000
0202LOTE PADRAO                   VALE R DOCE PNA        VALE5       010VISTA          000000000070200000000704000000006800000000000000000000687000000019100
0202LOTE PADRAO                   COPEL       PNB*       CPLE6       010VISTA          000000000011300000000120000000001120000000000000000000120000057620700
0202LOTE PADRAO                   VALE R DOCE ON         VALE3       010VISTA          000000000075900000000760000000007490000000000000000000750000000007800
0202LOTE PADRAO                   ARACRUZ     PNB        ARCZ6       010VISTA          000000000005200000000052000000000496000000000000000000050000000259700
0202LOTE PADRAO                   TELEMIG PARTPN *       TMCP4       010VISTA          000000000002770000000031000000000270000000000000000000031000236211000
0202LOTE PADRAO                   BRASIL TELECPN *       BRTO4       010VISTA          000000000011100000000114000000001090000000000000000000113000109337000
0202LOTE PADRAO                   SABESP      ON *       SBSP3       010VISTA          000000000099500000001005000000009670000000000000000001005000002167000
0202LOTE PADRAO                   BRASKEM     PNA*       BRKM5       010VISTA          000000000380000000003979000000037900000000000000000003979000000126300
0202LOTE PADRAO                   EMBRAER     PN EJ      EMBR4       010VISTA          000000000014900000000149000000001440000000000000000000147000000076100
0202LOTE PADRAO                   TELESP      PN * EJ    TLPP4       010VISTA          000000000032500000000337500000003200000000000000000000337500012701000
0202LOTE PADRAO                   EMBRAER     ON EJ      EMBR3       010VISTA          000000000013600000000139000000001350000000000000000000139000000014800
0202LOTE PADRAO                   AMBEV       PN *       AMBV4       010VISTA          000000000460000000004600000000044510000000000000000004451000001411600
0202LOTE PADRAO                   USIMINAS    PNA        USIM5       010VISTA          000000000006200000000063000000000610000000000000000000062000000072700
0202LOTE PADRAO                   ELETROPAULO PN *       ELPL4       010VISTA          000000000043900000000468000000004325000000000000000000445000003987200
0202LOTE PADRAO                   TELE NORD CLPN *       TNEP4       010VISTA          000000000002600000000028000000000250000000000000000000028000221367000
0202LOTE PADRAO                   CEMIG       PN * EJ    CMIG4       010VISTA          000000000030300000000311000000002980000000000000000000308000031862300
0202LOTE PADRAO                   TELE CL SUL PN * EJ    TCSL4       010VISTA          000000000002980000000032000000000290000000000000000000032000110660000
0202LOTE PADRAO                   TRACTEBEL   ON *       TBLE3       010VISTA          000000000003980000000040000000000390000000000000000000040000008353000
0202LOTE PADRAO                   CEMIG       ON * EJ    CMIG3       010VISTA          000000000029500000000303000000002910000000000000000000300000000428700
0202LOTE PADRAO                   TELE CL SUL ON * EJ    TCSL3       010VISTA          000000000002500000000027000000000250000000000000000000027000034212500
0202LOTE PADRAO                   ITAUSA      PN         ITSA4       010VISTA          000000000001800000000018100000000176000000000000000000018000000303000
0202LOTE PADRAO                   V C P       PN *       VCPA4       010VISTA          000000000101500000001015000000009600000000000000000000970000006781900
0202LOTE PADRAO                   SID TUBARAO PN *       CSTB4       010VISTA          000000000026300000000275000000002630000000000000000000270000010911000
0202LOTE PADRAO                   BRADESPAR   PN *       BRAP4       010VISTA          000000000000510000000005200000000050000000000000000000005200199219000
0202LOTE PADRAO                   NET         PN         PLIM4       010VISTA          000000000001480000000016000000000148000000000000000000016000000115200
0202LOTE PADRAO                   TELE CTR OESPN * EJ    TCOC4       010VISTA          000000000003700000000039800000000370000000000000000000039000187854000
0202LOTE PADRAO                   TELEMAR N L PNA* EJ    TMAR5       010VISTA          000000000047700000000493000000004720000000000000000000490000011238000
0202LOTE PADRAO                   GERDAU      PN * EJ    GGBR4       010VISTA          000000000031000000000310000000002950000000000000000000305000012665300
0202LOTE PADRAO                   BRASIL      ON *       BBAS3       010VISTA          000000000008600000000094000000000860000000000000000000094000010858800
