00BDIN9999BOVESPA 99992002030820020308
0101IBOVESPA                      0137830137670139620000000000000000002002030800000020020308013962000000
0202LOTE PADRAO                   EMBRATEL PARPN *       EBTP4       010VISTA          000000000008800000000091000000000870000000000000000000091000250693000
0202LOTE PADRAO                   EMBRATEL PARON *       EBTP3       010VISTA          000000000009800000000108000000000980000000000000000000107000013597800
0202LOTE PADRAO                   TRAN PAULISTPN * EJ    TRPL4       010VISTA          000000000007500000000076000000000730000000000000000000076000014451600
0202LOTE PADRAO                   TELEMAR     PN * EJ    TNLP4       010VISTA          000000000032200000000323000000003150000000000000000000323000234597000
0202LOTE PADRAO                   ITAUBANCO   PN * EJ    ITAU4       010VISTA          000000000189900000001905000000018800000000000000000001900000004523500
0202LOTE PADRAO                   TELEMAR     ON * EJ    TNLP3       010VISTA          000000000027200000000280000000002700000000000000000000277500021323400
0202LOTE PADRAO                   SID NACIONALON *       CSNA3       010VISTA          000000000042000000000450000000004200000000000000000000438000010034600
0202LOTE PADRAO                   TELE LEST CLPN *       TLCP4       010VISTA          000000000000860000000009000000000086000000000000000000009000111833000
0202LOTE PADRAO                   CRT CELULAR PNA* EJ    CRTP5       010VISTA          000000000480000000004988000000047000000000000000000004770000000456900
0202LOTE PADRAO                   IPIRANGA PETPN *       PTIP4       010VISTA          000000000014600000000146000000001440000000000000000000145000000700000
0202LOTE PADRAO                   BRASIL T PARPN *       BRTP4       010VISTA          000000000019100000000197000000001910000000000000000000195000086487600
0202LOTE PADRAO                   BRASIL T PARON *       BRTP3       010VISTA          000000000019100000000196000000001900000000000000000000194000008446500
0202LOTE PADRAO                   KLABIN S/A  PN         KLBN4       010VISTA          000000000001270000000012700000000124000000000000000000012600000087100
0202LOTE PADRAO                   ACESITA     PN *       ACES4       010VISTA          000000000000720000000007400000000071000000000000000000007400074054000
0202LOTE PADRAO                   PETROBRAS   PN         PETR4       010VISTA          000000000056500000000567000000005570000000000000000000562000000075700
0202LOTE PADRAO                   ELETROBRAS  PNB*       ELET6       010VISTA          000000000036800000000377000000003680000000000000000000377000035347100
0202LOTE PADRAO                   PETROBRAS   ON         PETR3       010VISTA          000000000059700000000597000000005820000000000000000000585000000025400
0202LOTE PADRAO                   COMGAS      PNA*       CGAS5       010VISTA          000000000088400000000895000000008800000000000000000000895000000529000
0202LOTE PADRAO                   SOUZA CRUZ  ON EJ      CRUZ3       010VISTA          000000000014500000000145000000001440000000000000000000144000000005500
0202LOTE PADRAO                   ELETROBRAS  ON *       ELET3       010VISTA          000000000041400000000426000000004140000000000000000000423000016531700
0202LOTE PADRAO                   CELESC      PNB        CLSC6       010VISTA          000000000000590000000006000000000058000000000000000000006000000124000
0202LOTE PADRAO                   BRADESCO    PN * EJ    BBDC4       010VISTA          000000000013500000000136000000001340000000000000000000134000103906000
0202LOTE PADRAO                   CESP        PN *       CESP4       010VISTA          000000000015000000000155000000001500000000000000000000155000004333600
0202LOTE PADRAO                   LIGHT       ON *       LIGH3       010VISTA          000000000120000000001220000000011800000000000000000001190000000443600
0202LOTE PADRAO                   TELESP CL PAPN *       TSPP4       010VISTA          000000000006600000000068000000000660000000000000000000066000568054000
0202LOTE PADRAO                   VALE R DOCE PNA        VALE5       010VISTA          000000000060000000000600000000005870000000000000000000587000000074600
0202LOTE PADRAO                   COPEL       PNB*       CPLE6       010VISTA          000000000018750000000190000000001860000000000000000000186000008589900
0202LOTE PADRAO                   VALE R DOCE ON         VALE3       010VISTA          000000000059000000000609000000005900000000000000000000609000000015400
0202LOTE PADRAO                   ARACRUZ     PNB        ARCZ6       010VISTA          000000000004700000000048000000000470000000000000000000048000000011900
0202LOTE PADRAO                   TELEMIG PARTPN *       TMCP4       010VISTA          000000000003770000000038000000000375000000000000000000037000086596400
0202LOTE PADRAO                   BRASIL TELECPN *       BRTO4       010VISTA          000000000013500000000139000000001300000000000000000000139000072161300
0202LOTE PADRAO                   SABESP      ON *       SBSP3       010VISTA          000000000137500000001380000000013650000000000000000001380000002092300
0202LOTE PADRAO                   BRASKEM     PNA*       BRKM5       010VISTA          000000000550000000005550000000054500000000000000000005451000000041500
0202LOTE PADRAO                   EMBRAER     PN EJ      EMBR4       010VISTA          000000000012500000000126000000001240000000000000000000124000000055600
0202LOTE PADRAO                   TELESP      PN * EJ    TLPP4       010VISTA          000000000033500000000347000000003350000000000000000000345000016954300
0202LOTE PADRAO                   EMBRAER     ON EJ      EMBR3       010VISTA          000000000011500000000117000000001150000000000000000000117000000011200
0202LOTE PADRAO                   AMBEV       PN *       AMBV4       010VISTA          000000000441000000004530000000044100000000000000000004450000001768800
0202LOTE PADRAO                   USIMINAS    PNA        USIM5       010VISTA          000000000007200000000075000000000720000000000000000000075000000054500
0202LOTE PADRAO                   ELETROPAULO PN *       ELPL4       010VISTA          000000000066900000000690000000006670000000000000000000690000006369800
0202LOTE PADRAO                   TELE NORD CLPN *       TNEP4       010VISTA          000000000003200000000033000000000320000000000000000000033000160166000
0202LOTE PADRAO                   CEMIG       PN * EJ    CMIG4       010VISTA          000000000038500000000389000000003810000000000000000000385000043230200
0202LOTE PADRAO                   TELE CL SUL PN * EJ    TCSL4       010VISTA          000000000003400000000034000000000330000000000000000000034000176312000
0202LOTE PADRAO                   CEMIG       ON * EJ    CMIG3       010VISTA          000000000034000000000345000000003350000000000000000000340000000700000
0202LOTE PADRAO                   TELE CL SUL ON * EJ    TCSL3       010VISTA          000000000003100000000031000000000300000000000000000000031000012384100
0202LOTE PADRAO                   ITAUSA      PN         ITSA4       010VISTA          000000000002270000000022000000000225000000000000000000022700000086400
0202LOTE PADRAO                   V C P       PN *       VCPA4       010VISTA          000000000086700000000880000000008670000000000000000000880000000380300
0202LOTE PADRAO                   SID TUBARAO PN *       CSTB4       010VISTA          000000000024100000000248000000002410000000000000000000242000006972600
0202LOTE PADRAO                   BRADESPAR   PN *       BRAP4       010VISTA          000000000000780000000008100000000078000000000000000000007900091134500
0202LOTE PADRAO                   NET         PN         PLIM4       010VISTA          000000000000710000000007200000000070000000000000000000007200000836900
0202LOTE PADRAO                   TELE CTR OESPN * EJ    TCOC4       010VISTA          000000000005000000000050000000000490000000000000000000050000113962000
0202LOTE PADRAO                   TELEMAR N L PNA* EJ    TMAR5       010VISTA          000000000055700000000559000000005500000000000000000000559000014989000
0202LOTE PADRAO                   GERDAU      PN * EJ    GGBR4       010VISTA          000000000026500000000277000000002650000000000000000000276000014026200
0202LOTE PADRAO                   BRASIL      ON *       BBAS3       010VISTA          000000000011000000000113000000001100000000000000000000113000003703800
