00BDIN9999BOVESPA 99992002090420020904
0101IBOVESPA                      0101670099210101740000000000000000002002090400000020020904009997000000
0202LOTE PADRAO                   EMBRATEL PARPN *       EBTP4       010VISTA          000000000002500000000025000000000220000000000000000000023000711239000
0202LOTE PADRAO                   TRAN PAULISTPN * EJ    TRPL4       010VISTA          000000000005300000000054000000000520000000000000000000052000015604600
0202LOTE PADRAO                   EMBRATEL PARON *       EBTP3       010VISTA          000000000003200000000032000000000290000000000000000000029800070703300
0202LOTE PADRAO                   TELEMAR     PN * EJ    TNLP4       010VISTA          000000000025600000000262000000002500000000000000000000253000158038000
0202LOTE PADRAO                   ITAUBANCO   PN * EJ    ITAU4       010VISTA          000000000143900000001440000000014010000000000000000001428000017289500
0202LOTE PADRAO                   TELEMAR     ON * EJ    TNLP3       010VISTA          000000000019500000000198000000001880000000000000000000198000029849900
0202LOTE PADRAO                   SID NACIONALON *       CSNA3       010VISTA          000000000039000000000390000000003800000000000000000000387000011954800
0202LOTE PADRAO                   TELE LEST CLPN *       TLCP4       010VISTA          000000000000440000000004500000000043000000000000000000004300119991000
0202LOTE PADRAO                   CRT CELULAR PNA* EJ    CRTP5       010VISTA          000000000360000000003648000000035100000000000000000003590000000237400
0202LOTE PADRAO                   IPIRANGA PETPN *       PTIP4       010VISTA          000000000011700000000117000000001100000000000000000000111000007832700
0202LOTE PADRAO                   BRASIL T PARPN *       BRTP4       010VISTA          000000000017300000000176000000001680000000000000000000173000049092000
0202LOTE PADRAO                   BRASIL T PARON *       BRTP3       010VISTA          000000000013300000000134000000001260000000000000000000132000020758300
0202LOTE PADRAO                   KLABIN S/A  PN         KLBN4       010VISTA          000000000000870000000008900000000086000000000000000000008900000016000
0202LOTE PADRAO                   ACESITA     PN *       ACES4       010VISTA          000000000000670000000006700000000065000000000000000000006500091568100
0202LOTE PADRAO                   PETROBRAS   PN         PETR4       010VISTA          000000000044300000000456000000004400000000000000000000452000000191200
0202LOTE PADRAO                   ELETROBRAS  PNB*       ELET6       010VISTA          000000000020100000000201000000001960000000000000000000197000076356400
0202LOTE PADRAO                   PETROBRAS   ON         PETR3       010VISTA          000000000049000000000506000000004900000000000000000000506000000083000
0202LOTE PADRAO                   COMGAS      PNA*       CGAS5       010VISTA          000000000059000000000609000000005850000000000000000000596000000476100
0202LOTE PADRAO                   SOUZA CRUZ  ON EJ      CRUZ3       010VISTA          000000000014800000000151000000001480000000000000000000149000000009400
0202LOTE PADRAO                   ELETROBRAS  ON *       ELET3       010VISTA          000000000020500000000205000000001980000000000000000000200000022103800
0202LOTE PADRAO                   CELESC      PNB        CLSC6       010VISTA          000000000000550000000005600000000054000000000000000000005600000865900
0202LOTE PADRAO                   BRADESCO    PN * EJ    BBDC4       010VISTA          000000000010100000000102500000000990000000000000000000099000284174000
0202LOTE PADRAO                   CESP        PN *       CESP4       010VISTA          000000000007400000000074000000000710000000000000000000073000009105200
0202LOTE PADRAO                   LIGHT       ON *       LIGH3       010VISTA          000000000072000000000735000000007150000000000000000000729000000158100
0202LOTE PADRAO                   TELESP CL PAPN *       TSPP4       010VISTA          000000000003800000000038000000000369000000000000000000037300344691000
0202LOTE PADRAO                   VALE R DOCE PNA        VALE5       010VISTA          000000000069800000000700000000006920000000000000000000700000000027300
0202LOTE PADRAO                   COPEL       PNB*       CPLE6       010VISTA          000000000010200000000102000000000980000000000000000000099000030039600
0202LOTE PADRAO                   VALE R DOCE ON         VALE3       010VISTA          000000000076700000000770000000007600000000000000000000769000000001300
0202LOTE PADRAO                   ARACRUZ     PNB        ARCZ6       010VISTA          000000000005400000000054000000000530000000000000000000054000000050600
0202LOTE PADRAO                   TELEMIG PARTPN *       TMCP4       010VISTA          000000000002800000000028000000000277000000000000000000028000055262800
0202LOTE PADRAO                   BRASIL TELECPN *       BRTO4       010VISTA          000000000011500000000116000000001130000000000000000000116000048258700
0202LOTE PADRAO                   SABESP      ON *       SBSP3       010VISTA          000000000085000000000850000000008200000000000000000000844000003448100
0202LOTE PADRAO                   BRASKEM     PNA*       BRKM5       010VISTA          000000000286500000002865000000027450000000000000000002785000000185800
0202LOTE PADRAO                   EMBRAER     PN EJ      EMBR4       010VISTA          000000000013250000000132500000001300000000000000000000132500000024300
0202LOTE PADRAO                   TELESP      PN * EJ    TLPP4       010VISTA          000000000032500000000330000000003250000000000000000000328000003811000
0202LOTE PADRAO                   EMBRAER     ON EJ      EMBR3       010VISTA          000000000012000000000120000000001180000000000000000000119000000019300
0202LOTE PADRAO                   AMBEV       PN *       AMBV4       010VISTA          000000000426000000004330000000042600000000000000000004329000001911100
0202LOTE PADRAO                   USIMINAS    PNA        USIM5       010VISTA          000000000005700000000058000000000560000000000000000000057000000063800
0202LOTE PADRAO                   ELETROPAULO PN *       ELPL4       010VISTA          000000000034500000000345000000003240000000000000000000327000002315900
0202LOTE PADRAO                   TELE NORD CLPN *       TNEP4       010VISTA          000000000002400000000025000000000240000000000000000000025000087055700
0202LOTE PADRAO                   CEMIG       PN * EJ    CMIG4       010VISTA          000000000027000000000270000000002510000000000000000000258000053134700
0202LOTE PADRAO                   TELE CL SUL PN * EJ    TCSL4       010VISTA          000000000002500000000026000000000250000000000000000000026000068420200
0202LOTE PADRAO                   TRACTEBEL   ON *       TBLE3       010VISTA          000000000003800000000040000000000380000000000000000000039000006036100
0202LOTE PADRAO                   CEMIG       ON * EJ    CMIG3       010VISTA          000000000023000000000235000000002300000000000000000000233000000493600
0202LOTE PADRAO                   TELE CL SUL ON * EJ    TCSL3       010VISTA          000000000002000000000021000000000200000000000000000000021000017125900
0202LOTE PADRAO                   ITAUSA      PN         ITSA4       010VISTA          000000000001740000000017600000000173000000000000000000017400000196700
0202LOTE PADRAO                   V C P       PN *       VCPA4       010VISTA          000000000100000000001059000000010000000000000000000001059000010692000
0202LOTE PADRAO                   SID TUBARAO PN *       CSTB4       010VISTA          000000000024700000000247000000002410000000000000000000243000003299800
0202LOTE PADRAO                   BRADESPAR   PN *       BRAP4       010VISTA          000000000000480000000004800000000047000000000000000000004700095681500
0202LOTE PADRAO                   NET         PN         PLIM4       010VISTA          000000000000490000000004900000000044000000000000000000004400001362200
0202LOTE PADRAO                   TELE CTR OESPN * EJ    TCOC4       010VISTA          000000000003200000000032000000000300000000000000000000031000067845100
0202LOTE PADRAO                   TELEMAR N L PNA* EJ    TMAR5       010VISTA          000000000045000000000450000000004450000000000000000000448000030946900
0202LOTE PADRAO                   GERDAU      PN * EJ    GGBR4       010VISTA          000000000032000000000327000000003160000000000000000000325000029311200
0202LOTE PADRAO                   BRASIL      ON *       BBAS3       010VISTA          000000000010500000000105000000001010000000000000000000101000009043800
