00BDIN9999BOVESPA 99992002103120021031
0101IBOVESPA                      0100990097330102410000000000000000002002103100000020021031010168000000
0202LOTE PADRAO                   EMBRATEL PARPN *       EBTP4       010VISTA          000000000002300000000023000000000220000000000000000000022000307820000
0202LOTE PADRAO                   TRAN PAULISTPN * EJ    TRPL4       010VISTA          000000000005000000000051000000000500000000000000000000051000024050000
0202LOTE PADRAO                   EMBRATEL PARON *       EBTP3       010VISTA          000000000002800000000028000000000270000000000000000000027000046174000
0202LOTE PADRAO                   TELEMAR     PN * EJ    TNLP4       010VISTA          000000000025000000000255000000002480000000000000000000251000404635000
0202LOTE PADRAO                   ITAUBANCO   PN * EJ    ITAU4       010VISTA          000000000157500000001610000000015500000000000000000001610000022550000
0202LOTE PADRAO                   TELEMAR     ON * EJ    TNLP3       010VISTA          000000000018200000000186000000001820000000000000000000186000015631600
0202LOTE PADRAO                   SID NACIONALON *       CSNA3       010VISTA          000000000039000000000391000000003700000000000000000000376000016900900
0202LOTE PADRAO                   TELE LEST CLPN *       TLCP4       010VISTA          000000000000410000000004100000000038000000000000000000004000827694000
0202LOTE PADRAO                   CRT CELULAR PNA* EJ    CRTP5       010VISTA          000000000315000000003300000000031300000000000000000003280000003398200
0202LOTE PADRAO                   IPIRANGA PETPN *       PTIP4       010VISTA          000000000008200000000085000000000820000000000000000000084000005490700
0202LOTE PADRAO                   BRASIL T PARPN *       BRTP4       010VISTA          000000000020100000000209000000002010000000000000000000206000081121700
0202LOTE PADRAO                   BRASIL T PARON *       BRTP3       010VISTA          000000000014900000000155000000001490000000000000000000154000010140700
0202LOTE PADRAO                   KLABIN S/A  PN         KLBN4       010VISTA          000000000000880000000008900000000085000000000000000000008900000063300
0202LOTE PADRAO                   ACESITA     PN *       ACES4       010VISTA          000000000000710000000007200000000069000000000000000000007100117214000
0202LOTE PADRAO                   PETROBRAS   PN         PETR4       010VISTA          000000000043700000000444000000004310000000000000000000442000000114000
0202LOTE PADRAO                   ELETROBRAS  PNB*       ELET6       010VISTA          000000000019300000000196000000001900000000000000000000191000075827200
0202LOTE PADRAO                   PETROBRAS   ON         PETR3       010VISTA          000000000047800000000487000000004750000000000000000000486000000037600
0202LOTE PADRAO                   COMGAS      PNA*       CGAS5       010VISTA          000000000058200000000582000000005670000000000000000000570000000832400
0202LOTE PADRAO                   SOUZA CRUZ  ON EJ      CRUZ3       010VISTA          000000000018600000000186000000001830000000000000000000185000000010200
0202LOTE PADRAO                   ELETROBRAS  ON *       ELET3       010VISTA          000000000020000000000205000000001980000000000000000000202000017642600
0202LOTE PADRAO                   CELESC      PNB        CLSC6       010VISTA          000000000000490000000005200000000049000000000000000000005200000506900
0202LOTE PADRAO                   BRADESCO    PN * EJ    BBDC4       010VISTA          000000000009600000000098000000000940000000000000000000096000718264000
0202LOTE PADRAO                   CESP        PN *       CESP4       010VISTA          000000000006400000000066000000000630000000000000000000065000009050000
0202LOTE PADRAO                   LIGHT       ON *       LIGH3       010VISTA          000000000054500000000560000000005430000000000000000000558000000866600
0202LOTE PADRAO                   TELESP CL PAPN *       TSPP4       010VISTA          000000000003700000000038000000000370000000000000000000037000747749000
0202LOTE PADRAO                   VALE R DOCE PNA        VALE5       010VISTA          000000000093000000000930000000009000000000000000000000930000000028400
0202LOTE PADRAO                   COPEL       PNB*       CPLE6       010VISTA          000000000008500000000087500000000840000000000000000000084000073604700
0202LOTE PADRAO                   VALE R DOCE ON         VALE3       010VISTA          000000000095500000000960000000009270000000000000000000960000000011900
0202LOTE PADRAO                   ARACRUZ     PNB        ARCZ6       010VISTA          000000000005700000000058000000000575000000000000000000058000000058000
0202LOTE PADRAO                   TELEMIG PARTPN *       TMCP4       010VISTA          000000000002900000000030000000000280000000000000000000029000131078000
0202LOTE PADRAO                   BRASIL TELECPN *       BRTO4       010VISTA          000000000012500000000129000000001240000000000000000000126000119740000
0202LOTE PADRAO                   SABESP      ON *       SBSP3       010VISTA          000000000086500000000882000000008550000000000000000000877000007914100
0202LOTE PADRAO                   BRASKEM     PNA*       BRKM5       010VISTA          000000000220000000002310000000022000000000000000000002220000000145200
0202LOTE PADRAO                   EMBRAER     PN EJ      EMBR4       010VISTA          000000000014500000000145000000001425000000000000000000143000000028500
0202LOTE PADRAO                   TELESP      PN * EJ    TLPP4       010VISTA          000000000036300000000372000000003620000000000000000000372000005259700
0202LOTE PADRAO                   EMBRAER     ON EJ      EMBR3       010VISTA          000000000013000000000133000000001300000000000000000000133000000009100
0202LOTE PADRAO                   AMBEV       PN *       AMBV4       010VISTA          000000000520000000005450000000050900000000000000000005330000004762600
0202LOTE PADRAO                   USIMINAS    PNA        USIM5       010VISTA          000000000005400000000054000000000530000000000000000000053000000061500
0202LOTE PADRAO                   ELETROPAULO PN *       ELPL4       010VISTA          000000000027600000000276000000002550000000000000000000255000005976400
0202LOTE PADRAO                   TELE NORD CLPN *       TNEP4       010VISTA          000000000002500000000026000000000250000000000000000000025000143662000
0202LOTE PADRAO                   CEMIG       PN * EJ    CMIG4       010VISTA          000000000024600000000249000000002430000000000000000000246000041097200
0202LOTE PADRAO                   TELE CL SUL PN * EJ    TCSL4       010VISTA          000000000002800000000029000000000270000000000000000000028000077286200
0202LOTE PADRAO                   TRACTEBEL   ON *       TBLE3       010VISTA          000000000003400000000035200000000330000000000000000000035000020303700
0202LOTE PADRAO                   CEMIG       ON * EJ    CMIG3       010VISTA          000000000021800000000224000000002160000000000000000000223000002027000
0202LOTE PADRAO                   TELE CL SUL ON * EJ    TCSL3       010VISTA          000000000002270000000023000000000220000000000000000000023000046658900
0202LOTE PADRAO                   ITAUSA      PN         ITSA4       010VISTA          000000000001800000000018000000000180000000000000000000018000000454400
0202LOTE PADRAO                   V C P       PN *       VCPA4       010VISTA          000000000116000000001160000000011100000000000000000001137000002952300
0202LOTE PADRAO                   SID TUBARAO PN *       CSTB4       010VISTA          000000000036700000000373000000003520000000000000000000364000012458300
0202LOTE PADRAO                   BRADESPAR   PN *       BRAP4       010VISTA          000000000000480000000004900000000047000000000000000000004800178502000
0202LOTE PADRAO                   NET         PN         PLIM4       010VISTA          000000000000270000000002800000000026000000000000000000002600000492700
0202LOTE PADRAO                   TELE CTR OESPN * EJ    TCOC4       010VISTA          000000000003500000000035000000000340000000000000000000035000078738200
0202LOTE PADRAO                   TELEMAR N L PNA* EJ    TMAR5       010VISTA          000000000044300000000449000000004360000000000000000000446000058531200
0202LOTE PADRAO                   GERDAU      PN * EJ    GGBR4       010VISTA          000000000033100000000339000000003250000000000000000000339000028795100
0202LOTE PADRAO                   BRASIL      ON *       BBAS3       010VISTA          000000000010000000000100000000000970000000000000000000097000041113700
