00BDIN9999BOVESPA 99992002061120020611
0101IBOVESPA                      0126090121700126860000000000000000002002061100000020020611012210000000
0202LOTE PADRAO                   EMBRATEL PARPN *       EBTP4       010VISTA          000000000004100000000041000000000381000000000000000000038000208878000
0202LOTE PADRAO                   TRAN PAULISTPN * EJ    TRPL4       010VISTA          000000000006500000000065000000000610000000000000000000061000016277500
0202LOTE PADRAO                   EMBRATEL PARON *       EBTP3       010VISTA          000000000005400000000054000000000470000000000000000000047000036544600
0202LOTE PADRAO                   TELEMAR     PN * EJ    TNLP4       010VISTA          000000000033000000000332000000003080000000000000000000311000331843000
0202LOTE PADRAO                   ITAUBANCO   PN * EJ    ITAU4       010VISTA          000000000169000000001691000000016700000000000000000001675000011894800
0202LOTE PADRAO                   TELEMAR     ON * EJ    TNLP3       010VISTA          000000000027000000000271000000002510000000000000000000257500012033700
0202LOTE PADRAO                   SID NACIONALON *       CSNA3       010VISTA          000000000047100000000475000000004500000000000000000000452000023795300
0202LOTE PADRAO                   TELE LEST CLPN *       TLCP4       010VISTA          000000000000690000000006900000000065000000000000000000006500156330000
0202LOTE PADRAO                   CRT CELULAR PNA* EJ    CRTP5       010VISTA          000000000410000000004170000000040000000000000000000004100000001111600
0202LOTE PADRAO                   IPIRANGA PETPN *       PTIP4       010VISTA          000000000013400000000134000000001290000000000000000000130000002771500
0202LOTE PADRAO                   BRASIL T PARPN *       BRTP4       010VISTA          000000000016800000000168000000001630000000000000000000163000045767100
0202LOTE PADRAO                   BRASIL T PARON *       BRTP3       010VISTA          000000000014800000000150000000001450000000000000000000149000006269700
0202LOTE PADRAO                   KLABIN S/A  PN         KLBN4       010VISTA          000000000001000000000010000000000095000000000000000000009700000033800
0202LOTE PADRAO                   ACESITA     PN *       ACES4       010VISTA          000000000000680000000006900000000066000000000000000000006700142394000
0202LOTE PADRAO                   PETROBRAS   PN         PETR4       010VISTA          000000000053800000000540000000005220000000000000000000530000000068600
0202LOTE PADRAO                   ELETROBRAS  PNB*       ELET6       010VISTA          000000000028300000000283000000002710000000000000000000271000030896400
0202LOTE PADRAO                   PETROBRAS   ON         PETR3       010VISTA          000000000057900000000579000000005620000000000000000000570000000032600
0202LOTE PADRAO                   COMGAS      PNA*       CGAS5       010VISTA          000000000068000000000680000000006400000000000000000000657000000861800
0202LOTE PADRAO                   SOUZA CRUZ  ON EJ      CRUZ3       010VISTA          000000000015800000000158000000001550000000000000000000158000000012300
0202LOTE PADRAO                   ELETROBRAS  ON *       ELET3       010VISTA          000000000031500000000321000000003100000000000000000000310000023413200
0202LOTE PADRAO                   CELESC      PNB        CLSC6       010VISTA          000000000000530000000005300000000051000000000000000000005100000273400
0202LOTE PADRAO                   BRADESCO    PN * EJ    BBDC4       010VISTA          000000000012500000000125000000001220000000000000000000122000172913000
0202LOTE PADRAO                   CESP        PN *       CESP4       010VISTA          000000000009900000000101000000000950000000000000000000096000008628600
0202LOTE PADRAO                   LIGHT       ON *       LIGH3       010VISTA          000000000093000000000930000000008100000000000000000000855000000421900
0202LOTE PADRAO                   TELESP CL PAPN *       TSPP4       010VISTA          000000000005000000000050000000000470000000000000000000047000312221000
0202LOTE PADRAO                   VALE R DOCE PNA        VALE5       010VISTA          000000000074500000000752000000007100000000000000000000740000000096000
0202LOTE PADRAO                   COPEL       PNB*       CPLE6       010VISTA          000000000014300000000143000000001360000000000000000000136000048393700
0202LOTE PADRAO                   VALE R DOCE ON         VALE3       010VISTA          000000000076500000000777500000007550000000000000000000774000000047400
0202LOTE PADRAO                   ARACRUZ     PNB        ARCZ6       010VISTA          000000000005700000000057000000000560000000000000000000057000000026200
0202LOTE PADRAO                   TELEMIG PARTPN *       TMCP4       010VISTA          000000000003000000000030000000000280000000000000000000028000134610000
0202LOTE PADRAO                   BRASIL TELECPN *       BRTO4       010VISTA          000000000012000000000120000000001150000000000000000000118000039461700
0202LOTE PADRAO                   SABESP      ON *       SBSP3       010VISTA          000000000112000000001120000000010500000000000000000001053000001201000
0202LOTE PADRAO                   BRASKEM     PNA*       BRKM5       010VISTA          000000000425300000004253000000038600000000000000000003901000000280400
0202LOTE PADRAO                   EMBRAER     PN EJ      EMBR4       010VISTA          000000000014750000000150000000001475000000000000000000148000000069400
0202LOTE PADRAO                   TELESP      PN * EJ    TLPP4       010VISTA          000000000035200000000354000000003450000000000000000000350000026944400
0202LOTE PADRAO                   EMBRAER     ON EJ      EMBR3       010VISTA          000000000013000000000132000000001290000000000000000000130000000031900
0202LOTE PADRAO                   AMBEV       PN *       AMBV4       010VISTA          000000000477900000004779000000047200000000000000000004720000001518900
0202LOTE PADRAO                   USIMINAS    PNA        USIM5       010VISTA          000000000007500000000075000000000730000000000000000000074000000031200
0202LOTE PADRAO                   ELETROPAULO PN *       ELPL4       010VISTA          000000000042000000000470000000004200000000000000000000457000016355700
0202LOTE PADRAO                   TELE NORD CLPN *       TNEP4       010VISTA          000000000002500000000025000000000240000000000000000000025000126066000
0202LOTE PADRAO                   CEMIG       PN * EJ    CMIG4       010VISTA          000000000033500000000337000000003150000000000000000000321000032982600
0202LOTE PADRAO                   TELE CL SUL PN * EJ    TCSL4       010VISTA          000000000003000000000030000000000290000000000000000000029000067307100
0202LOTE PADRAO                   TRACTEBEL   ON *       TBLE3       010VISTA          000000000004000000000040000000000390000000000000000000039000018980000
0202LOTE PADRAO                   CEMIG       ON * EJ    CMIG3       010VISTA          000000000029500000000305000000002760000000000000000000305000003787600
0202LOTE PADRAO                   TELE CL SUL ON * EJ    TCSL3       010VISTA          000000000002520000000025200000000230000000000000000000024000024274300
0202LOTE PADRAO                   ITAUSA      PN         ITSA4       010VISTA          000000000002000000000020000000000197000000000000000000019900000314900
0202LOTE PADRAO                   V C P       PN *       VCPA4       010VISTA          000000000106000000001110000000010600000000000000000001100000004320700
0202LOTE PADRAO                   SID TUBARAO PN *       CSTB4       010VISTA          000000000028800000000290000000002760000000000000000000280000010180000
0202LOTE PADRAO                   BRADESPAR   PN *       BRAP4       010VISTA          000000000000620000000006200000000060000000000000000000006100262525000
0202LOTE PADRAO                   NET         PN         PLIM4       010VISTA          000000000000400000000004000000000036000000000000000000003600003158000
0202LOTE PADRAO                   TELE CTR OESPN * EJ    TCOC4       010VISTA          000000000004200000000042000000000400000000000000000000040000071014400
0202LOTE PADRAO                   TELEMAR N L PNA* EJ    TMAR5       010VISTA          000000000055000000000550000000005010000000000000000000518000012814000
0202LOTE PADRAO                   GERDAU      PN * EJ    GGBR4       010VISTA          000000000031800000000318000000003080000000000000000000313000012084600
0202LOTE PADRAO                   BRASIL      ON *       BBAS3       010VISTA          000000000011900000000119000000001110000000000000000000114000006629400
