00BDIN9999BOVESPA 99992002102420021024
0101IBOVESPA                      0098320097630101070000000000000000002002102400000020021024009799000000
0202LOTE PADRAO                   EMBRATEL PARPN *       EBTP4       010VISTA          000000000002400000000025000000000230000000000000000000023000606379000
0202LOTE PADRAO                   TRAN PAULISTPN * EJ    TRPL4       010VISTA          000000000005300000000053000000000500000000000000000000051000016077200
0202LOTE PADRAO                   EMBRATEL PARON *       EBTP3       010VISTA          000000000003000000000031000000000280000000000000000000029000070475900
0202LOTE PADRAO                   TELEMAR     PN * EJ    TNLP4       010VISTA          000000000024500000000257500000002410000000000000000000245000596723000
0202LOTE PADRAO                   ITAUBANCO   PN * EJ    ITAU4       010VISTA          000000000139500000001495000000013800000000000000000001440000037648700
0202LOTE PADRAO                   TELEMAR     ON * EJ    TNLP3       010VISTA          000000000018300000000189000000001760000000000000000000183000024882100
0202LOTE PADRAO                   SID NACIONALON *       CSNA3       010VISTA          000000000040600000000418000000003950000000000000000000407000016586100
0202LOTE PADRAO                   TELE LEST CLPN *       TLCP4       010VISTA          000000000000410000000004300000000039000000000000000000004001024930000
0202LOTE PADRAO                   CRT CELULAR PNA* EJ    CRTP5       010VISTA          000000000317000000003270000000030900000000000000000003135000001030700
0202LOTE PADRAO                   IPIRANGA PETPN *       PTIP4       010VISTA          000000000007900000000079000000000775000000000000000000079000029723000
0202LOTE PADRAO                   BRASIL T PARPN *       BRTP4       010VISTA          000000000019000000000203000000001880000000000000000000196000186196000
0202LOTE PADRAO                   BRASIL T PARON *       BRTP3       010VISTA          000000000014400000000146000000001350000000000000000000143000018299800
0202LOTE PADRAO                   KLABIN S/A  PN         KLBN4       010VISTA          000000000000900000000009000000000086000000000000000000008800000061400
0202LOTE PADRAO                   ACESITA     PN *       ACES4       010VISTA          000000000000720000000007500000000071000000000000000000007100281562000
0202LOTE PADRAO                   PETROBRAS   PN         PETR4       010VISTA          000000000042250000000447000000004150000000000000000000430000000245300
0202LOTE PADRAO                   ELETROBRAS  PNB*       ELET6       010VISTA          000000000018300000000190000000001710000000000000000000173000094006900
0202LOTE PADRAO                   PETROBRAS   ON         PETR3       010VISTA          000000000046200000000498000000004520000000000000000000475000000076300
0202LOTE PADRAO                   COMGAS      PNA*       CGAS5       010VISTA          000000000059300000000620000000005750000000000000000000590000001014900
0202LOTE PADRAO                   SOUZA CRUZ  ON EJ      CRUZ3       010VISTA          000000000018800000000190000000001800000000000000000000180000000012800
0202LOTE PADRAO                   ELETROBRAS  ON *       ELET3       010VISTA          000000000019500000000195000000001710000000000000000000178000027814900
0202LOTE PADRAO                   CELESC      PNB        CLSC6       010VISTA          000000000000530000000005300000000050000000000000000000005100000156100
0202LOTE PADRAO                   BRADESCO    PN * EJ    BBDC4       010VISTA          000000000009000000000097500000000900000000000000000000092001052360000
0202LOTE PADRAO                   CESP        PN *       CESP4       010VISTA          000000000006500000000067000000000630000000000000000000063000016238200
0202LOTE PADRAO                   LIGHT       ON *       LIGH3       010VISTA          000000000056800000000568000000005360000000000000000000547000001752700
0202LOTE PADRAO                   TELESP CL PAPN *       TSPP4       010VISTA          000000000003400000000035000000000330000000000000000000033000676257000
0202LOTE PADRAO                   VALE R DOCE PNA        VALE5       010VISTA          000000000089800000000924000000008900000000000000000000915000000042000
0202LOTE PADRAO                   COPEL       PNB*       CPLE6       010VISTA          000000000008100000000087500000000810000000000000000000081000067936800
0202LOTE PADRAO                   VALE R DOCE ON         VALE3       010VISTA          000000000093000000000954000000009300000000000000000000945000000031000
0202LOTE PADRAO                   ARACRUZ     PNB        ARCZ6       010VISTA          000000000006300000000064000000000620000000000000000000063000000160900
0202LOTE PADRAO                   TELEMIG PARTPN *       TMCP4       010VISTA          000000000002700000000028000000000260000000000000000000027100176681000
0202LOTE PADRAO                   BRASIL TELECPN *       BRTO4       010VISTA          000000000012300000000126000000001200000000000000000000125000118731000
0202LOTE PADRAO                   SABESP      ON *       SBSP3       010VISTA          000000000080500000000830000000008050000000000000000000812000007738600
0202LOTE PADRAO                   BRASKEM     PNA*       BRKM5       010VISTA          000000000222000000002220000000021200000000000000000002140000000498400
0202LOTE PADRAO                   EMBRAER     PN EJ      EMBR4       010VISTA          000000000014900000000150000000001400000000000000000000141000000097700
0202LOTE PADRAO                   TELESP      PN * EJ    TLPP4       010VISTA          000000000035750000000367000000003430000000000000000000356000008032100
0202LOTE PADRAO                   EMBRAER     ON EJ      EMBR3       010VISTA          000000000013800000000139000000001300000000000000000000135000000028300
0202LOTE PADRAO                   AMBEV       PN *       AMBV4       010VISTA          000000000481000000005152000000046700000000000000000004900000008365100
0202LOTE PADRAO                   USIMINAS    PNA        USIM5       010VISTA          000000000005000000000052000000000480000000000000000000049000000111700
0202LOTE PADRAO                   ELETROPAULO PN *       ELPL4       010VISTA          000000000026900000000299000000002675000000000000000000278000008119900
0202LOTE PADRAO                   TELE NORD CLPN *       TNEP4       010VISTA          000000000002400000000025200000000230000000000000000000024000170476000
0202LOTE PADRAO                   CEMIG       PN * EJ    CMIG4       010VISTA          000000000023900000000242000000002310000000000000000000231000062529500
0202LOTE PADRAO                   TELE CL SUL PN * EJ    TCSL4       010VISTA          000000000003000000000030000000000271000000000000000000027000163820000
0202LOTE PADRAO                   TRACTEBEL   ON *       TBLE3       010VISTA          000000000003700000000037000000000325000000000000000000032000034125600
0202LOTE PADRAO                   CEMIG       ON * EJ    CMIG3       010VISTA          000000000021300000000220000000002050000000000000000000219000000838900
0202LOTE PADRAO                   TELE CL SUL ON * EJ    TCSL3       010VISTA          000000000002250000000022000000000210000000000000000000021000068508000
0202LOTE PADRAO                   ITAUSA      PN         ITSA4       010VISTA          000000000001600000000017600000000160000000000000000000017300000761200
0202LOTE PADRAO                   V C P       PN *       VCPA4       010VISTA          000000000114800000001150000000011200000000000000000001145000005423500
0202LOTE PADRAO                   SID TUBARAO PN *       CSTB4       010VISTA          000000000035200000000357000000003380000000000000000000347000013058500
0202LOTE PADRAO                   BRADESPAR   PN *       BRAP4       010VISTA          000000000000480000000004900000000046000000000000000000004600236794000
0202LOTE PADRAO                   NET         PN         PLIM4       010VISTA          000000000000300000000003100000000029000000000000000000002900000966400
0202LOTE PADRAO                   TELE CTR OESPN * EJ    TCOC4       010VISTA          000000000003300000000034000000000330000000000000000000033000189608000
0202LOTE PADRAO                   TELEMAR N L PNA* EJ    TMAR5       010VISTA          000000000043600000000455000000004200000000000000000000439000033454000
0202LOTE PADRAO                   GERDAU      PN * EJ    GGBR4       010VISTA          000000000030600000000309000000002910000000000000000000300000029839200
0202LOTE PADRAO                   BRASIL      ON *       BBAS3       010VISTA          000000000009250000000098000000000910000000000000000000093000089785200
