00BDIN9999BOVESPA 99992002101620021016
0101IBOVESPA                      0085100082250085130000000000000000002002101600000020021016008371000000
0202LOTE PADRAO                   EMBRATEL PARPN *       EBTP4       010VISTA          000000000002250000000022500000000210000000000000000000021000256925000
0202LOTE PADRAO                   TRAN PAULISTPN * EJ    TRPL4       010VISTA          000000000004900000000049000000000460000000000000000000047000014083500
0202LOTE PADRAO                   EMBRATEL PARON *       EBTP3       010VISTA          000000000002800000000028000000000260000000000000000000027000037399300
0202LOTE PADRAO                   TELEMAR     PN * EJ    TNLP4       010VISTA          000000000020250000000203000000001960000000000000000000201000315392000
0202LOTE PADRAO                   ITAUBANCO   PN * EJ    ITAU4       010VISTA          000000000116900000001170000000011500000000000000000001170000017359900
0202LOTE PADRAO                   TELEMAR     ON * EJ    TNLP3       010VISTA          000000000015000000000154000000001460000000000000000000154000018945600
0202LOTE PADRAO                   SID NACIONALON *       CSNA3       010VISTA          000000000031200000000312000000003000000000000000000000303000040692000
0202LOTE PADRAO                   TELE LEST CLPN *       TLCP4       010VISTA          000000000000370000000003800000000034000000000000000000003500227517000
0202LOTE PADRAO                   CRT CELULAR PNA* EJ    CRTP5       010VISTA          000000000311000000003110000000029120000000000000000003000000000559100
0202LOTE PADRAO                   IPIRANGA PETPN *       PTIP4       010VISTA          000000000007700000000077000000000710000000000000000000072500004495200
0202LOTE PADRAO                   BRASIL T PARPN *       BRTP4       010VISTA          000000000017300000000174000000001680000000000000000000173000063594600
0202LOTE PADRAO                   BRASIL T PARON *       BRTP3       010VISTA          000000000012600000000129000000001210000000000000000000129000008239300
0202LOTE PADRAO                   KLABIN S/A  PN         KLBN4       010VISTA          000000000000870000000008800000000082000000000000000000008200000020700
0202LOTE PADRAO                   ACESITA     PN *       ACES4       010VISTA          000000000000630000000006500000000061000000000000000000006500225450000
0202LOTE PADRAO                   PETROBRAS   PN         PETR4       010VISTA          000000000035400000000355000000003470000000000000000000352000000144300
0202LOTE PADRAO                   ELETROBRAS  PNB*       ELET6       010VISTA          000000000014800000000148000000001400000000000000000000143000078188600
0202LOTE PADRAO                   PETROBRAS   ON         PETR3       010VISTA          000000000038250000000382500000003720000000000000000000378000000106200
0202LOTE PADRAO                   COMGAS      PNA*       CGAS5       010VISTA          000000000061500000000617000000005700000000000000000000575000000478100
0202LOTE PADRAO                   SOUZA CRUZ  ON EJ      CRUZ3       010VISTA          000000000017000000000171000000001680000000000000000000169000000025100
0202LOTE PADRAO                   ELETROBRAS  ON *       ELET3       010VISTA          000000000014800000000148000000001410000000000000000000141000022561500
0202LOTE PADRAO                   CELESC      PNB        CLSC6       010VISTA          000000000000480000000004800000000044000000000000000000004600000249300
0202LOTE PADRAO                   BRADESCO    PN * EJ    BBDC4       010VISTA          000000000007750000000077000000000750000000000000000000077000257887000
0202LOTE PADRAO                   CESP        PN *       CESP4       010VISTA          000000000006200000000062000000000580000000000000000000060000004290100
0202LOTE PADRAO                   LIGHT       ON *       LIGH3       010VISTA          000000000051600000000518000000004850000000000000000000516000000245300
0202LOTE PADRAO                   TELESP CL PAPN *       TSPP4       010VISTA          000000000002600000000027300000000260000000000000000000027000312496000
0202LOTE PADRAO                   VALE R DOCE PNA        VALE5       010VISTA          000000000082700000000842000000008100000000000000000000825000000034100
0202LOTE PADRAO                   COPEL       PNB*       CPLE6       010VISTA          000000000007500000000075000000000700000000000000000000072000025167500
0202LOTE PADRAO                   VALE R DOCE ON         VALE3       010VISTA          000000000085300000000865000000008400000000000000000000865000000006300
0202LOTE PADRAO                   ARACRUZ     PNB        ARCZ6       010VISTA          000000000005500000000058000000000550000000000000000000058000000195400
0202LOTE PADRAO                   TELEMIG PARTPN *       TMCP4       010VISTA          000000000002400000000025000000000220000000000000000000023000153869000
0202LOTE PADRAO                   BRASIL TELECPN *       BRTO4       010VISTA          000000000010900000000109000000001050000000000000000000109000054199100
0202LOTE PADRAO                   SABESP      ON *       SBSP3       010VISTA          000000000077000000000770000000007350000000000000000000740000003980700
0202LOTE PADRAO                   BRASKEM     PNA*       BRKM5       010VISTA          000000000215000000002190000000020300000000000000000002075000000587500
0202LOTE PADRAO                   EMBRAER     PN EJ      EMBR4       010VISTA          000000000012900000000130000000001250000000000000000000130000000057700
0202LOTE PADRAO                   TELESP      PN * EJ    TLPP4       010VISTA          000000000030000000000301000000002950000000000000000000301000009096800
0202LOTE PADRAO                   EMBRAER     ON EJ      EMBR3       010VISTA          000000000011900000000120000000001150000000000000000000118000000015400
0202LOTE PADRAO                   AMBEV       PN *       AMBV4       010VISTA          000000000434300000004343000000041600000000000000000004205000001916700
0202LOTE PADRAO                   USIMINAS    PNA        USIM5       010VISTA          000000000004200000000042000000000400000000000000000000040000000074200
0202LOTE PADRAO                   ELETROPAULO PN *       ELPL4       010VISTA          000000000023500000000235000000002130000000000000000000216000008381400
0202LOTE PADRAO                   TELE NORD CLPN *       TNEP4       010VISTA          000000000002100000000021000000000200000000000000000000021000054304800
0202LOTE PADRAO                   CEMIG       PN * EJ    CMIG4       010VISTA          000000000020000000000202000000001880000000000000000000193000052190300
0202LOTE PADRAO                   TELE CL SUL PN * EJ    TCSL4       010VISTA          000000000002300000000024000000000220000000000000000000023000052346000
0202LOTE PADRAO                   TRACTEBEL   ON *       TBLE3       010VISTA          000000000003700000000038000000000370000000000000000000037000009146400
0202LOTE PADRAO                   CEMIG       ON * EJ    CMIG3       010VISTA          000000000019000000000190000000001750000000000000000000178000001568400
0202LOTE PADRAO                   TELE CL SUL ON * EJ    TCSL3       010VISTA          000000000001950000000019700000000180000000000000000000018000018999100
0202LOTE PADRAO                   ITAUSA      PN         ITSA4       010VISTA          000000000001470000000014700000000140000000000000000000014000000416400
0202LOTE PADRAO                   V C P       PN *       VCPA4       010VISTA          000000000104000000001055000000010200000000000000000001055000002809900
0202LOTE PADRAO                   SID TUBARAO PN *       CSTB4       010VISTA          000000000032200000000325000000003130000000000000000000324000014435000
0202LOTE PADRAO                   BRADESPAR   PN *       BRAP4       010VISTA          000000000000450000000004500000000043000000000000000000004300180478000
0202LOTE PADRAO                   NET         PN         PLIM4       010VISTA          000000000000230000000002400000000022000000000000000000002400001127700
0202LOTE PADRAO                   TELE CTR OESPN * EJ    TCOC4       010VISTA          000000000003100000000031000000000290000000000000000000031000143226000
0202LOTE PADRAO                   TELEMAR N L PNA* EJ    TMAR5       010VISTA          000000000039900000000399000000003800000000000000000000390000018023400
0202LOTE PADRAO                   GERDAU      PN * EJ    GGBR4       010VISTA          000000000028000000000281000000002700000000000000000000271000042726700
0202LOTE PADRAO                   BRASIL      ON *       BBAS3       010VISTA          000000000008500000000085000000000800000000000000000000080000049560500
