00BDIN9999BOVESPA 99992002010920020109
0101IBOVESPA                      0141570139190141900000000000000000002002010900000020020109014021000000
0202LOTE PADRAO                   EMBRATEL PARPN *       EBTP4       010VISTA          000000000010900000000109000000001060000000000000000000108000154658000
0202LOTE PADRAO                   EMBRATEL PARON *       EBTP3       010VISTA          000000000011900000000119000000001100000000000000000000119000022791300
0202LOTE PADRAO                   TRAN PAULISTPN * EJ    TRPL4       010VISTA          000000000006500000000066000000000640000000000000000000066000026225400
0202LOTE PADRAO                   TELEMAR     PN * EJ    TNLP4       010VISTA          000000000037700000000378000000003670000000000000000000370000169529000
0202LOTE PADRAO                   ITAUBANCO   PN * EJ    ITAU4       010VISTA          000000000180000000001800000000017700000000000000000001790000009690900
0202LOTE PADRAO                   TELEMAR     ON * EJ    TNLP3       010VISTA          000000000032600000000326000000003160000000000000000000323000008051600
0202LOTE PADRAO                   SID NACIONALON *       CSNA3       010VISTA          000000000038000000000386000000003760000000000000000000386000015283600
0202LOTE PADRAO                   TELE LEST CLPN *       TLCP4       010VISTA          000000000000960000000009700000000093000000000000000000009600127276000
0202LOTE PADRAO                   CRT CELULAR PNA* EJ    CRTP5       010VISTA          000000000548000000005480000000052000000000000000000005350000000979100
0202LOTE PADRAO                   IPIRANGA PETPN *       PTIP4       010VISTA          000000000012200000000131000000001225000000000000000000131000042033000
0202LOTE PADRAO                   BRASIL T PARPN *       BRTP4       010VISTA          000000000020300000000203000000001920000000000000000000195000092390800
0202LOTE PADRAO                   BRASIL T PARON *       BRTP3       010VISTA          000000000019400000000197000000001910000000000000000000197000010264600
0202LOTE PADRAO                   KLABIN S/A  PN         KLBN4       010VISTA          000000000001100000000012000000000110000000000000000000011000000042200
0202LOTE PADRAO                   ACESITA     PN *       ACES4       010VISTA          000000000000700000000007000000000068000000000000000000006900181076000
0202LOTE PADRAO                   PETROBRAS   PN         PETR4       010VISTA          000000000051700000000520000000005070000000000000000000512000000074900
0202LOTE PADRAO                   ELETROBRAS  PNB*       ELET6       010VISTA          000000000031100000000311000000002980000000000000000000300000075258300
0202LOTE PADRAO                   PETROBRAS   ON         PETR3       010VISTA          000000000052800000000532000000005230000000000000000000528000000021400
0202LOTE PADRAO                   COMGAS      PNA*       CGAS5       010VISTA          000000000089000000000890000000008720000000000000000000880000001249300
0202LOTE PADRAO                   SOUZA CRUZ  ON EJ      CRUZ3       010VISTA          000000000014200000000145000000001410000000000000000000144000000079500
0202LOTE PADRAO                   ELETROBRAS  ON *       ELET3       010VISTA          000000000034900000000349000000003350000000000000000000338000045672600
0202LOTE PADRAO                   CELESC      PNB        CLSC6       010VISTA          000000000000460000000004800000000046000000000000000000004700000377700
0202LOTE PADRAO                   BRADESCO    PN * EJ    BBDC4       010VISTA          000000000012600000000126000000001225000000000000000000124000222193000
0202LOTE PADRAO                   CESP        PN *       CESP4       010VISTA          000000000015100000000152000000001490000000000000000000151000007562600
0202LOTE PADRAO                   LIGHT       ON *       LIGH3       010VISTA          000000000127000000001320000000012650000000000000000001296000000798300
0202LOTE PADRAO                   TELESP CL PAPN *       TSPP4       010VISTA          000000000008900000000089000000000850000000000000000000085000433036000
0202LOTE PADRAO                   VALE R DOCE PNA        VALE5       010VISTA          000000000054000000000546000000005360000000000000000000542000000023700
0202LOTE PADRAO                   COPEL       PNB*       CPLE6       010VISTA          000000000017100000000171000000001630000000000000000000166000042881600
0202LOTE PADRAO                   VALE R DOCE ON         VALE3       010VISTA          000000000052700000000530000000005270000000000000000000530000000000700
0202LOTE PADRAO                   ARACRUZ     PNB        ARCZ6       010VISTA          000000000004300000000044000000000430000000000000000000044000000022200
0202LOTE PADRAO                   TELEMIG PARTPN *       TMCP4       010VISTA          000000000004200000000044000000000425000000000000000000043000104495000
0202LOTE PADRAO                   BRASIL TELECPN *       BRTO4       010VISTA          000000000014200000000142000000001350000000000000000000136000051457600
0202LOTE PADRAO                   SABESP      ON *       SBSP3       010VISTA          000000000133500000001350000000013240000000000000000001330000002025200
0202LOTE PADRAO                   BRASKEM     PNA*       BRKM5       010VISTA          000000000501100000005179000000050110000000000000000005150000000457100
0202LOTE PADRAO                   EMBRAER     PN EJ      EMBR4       010VISTA          000000000013900000000142000000001380000000000000000000139000000048900
0202LOTE PADRAO                   TELESP      PN * EJ    TLPP4       010VISTA          000000000032200000000322500000003130000000000000000000315000030543000
0202LOTE PADRAO                   EMBRAER     ON EJ      EMBR3       010VISTA          000000000012900000000130000000001270000000000000000000129000000024400
0202LOTE PADRAO                   AMBEV       PN *       AMBV4       010VISTA          000000000499000000005020000000049500000000000000000004950000001388000
0202LOTE PADRAO                   USIMINAS    PNA        USIM5       010VISTA          000000000006800000000069000000000670000000000000000000068000000050900
0202LOTE PADRAO                   ELETROPAULO PN *       ELPL4       010VISTA          000000000081000000000824000000008000000000000000000000820000009474300
0202LOTE PADRAO                   TELE NORD CLPN *       TNEP4       010VISTA          000000000003400000000034800000000330000000000000000000034000065424500
0202LOTE PADRAO                   CEMIG       PN * EJ    CMIG4       010VISTA          000000000034500000000347000000003350000000000000000000340000043121500
0202LOTE PADRAO                   TELE CL SUL PN * EJ    TCSL4       010VISTA          000000000003730000000037500000000360000000000000000000037000076952400
0202LOTE PADRAO                   CEMIG       ON * EJ    CMIG3       010VISTA          000000000031500000000320000000003100000000000000000000316000002424400
0202LOTE PADRAO                   TELE CL SUL ON * EJ    TCSL3       010VISTA          000000000003100000000031000000000300000000000000000000030000023860400
0202LOTE PADRAO                   ITAUSA      PN         ITSA4       010VISTA          000000000002200000000022000000000210000000000000000000022500000231700
0202LOTE PADRAO                   V C P       PN *       VCPA4       010VISTA          000000000082000000000830000000008200000000000000000000827000001466500
0202LOTE PADRAO                   SID TUBARAO PN *       CSTB4       010VISTA          000000000023500000000241000000002350000000000000000000240000017417700
0202LOTE PADRAO                   BRADESPAR   PN *       BRAP4       010VISTA          000000000000790000000008000000000078000000000000000000007800242435000
0202LOTE PADRAO                   NET         PN         PLIM4       010VISTA          000000000000810000000008300000000079000000000000000000008200000932800
0202LOTE PADRAO                   TELE CTR OESPN * EJ    TCOC4       010VISTA          000000000005600000000056000000000530000000000000000000056000111907000
0202LOTE PADRAO                   TELEMAR N L PNA* EJ    TMAR5       010VISTA          000000000063700000000637000000006210000000000000000000625000018140200
0202LOTE PADRAO                   GERDAU      PN * EJ    GGBR4       010VISTA          000000000024600000000265000000002460000000000000000000264000043383500
0202LOTE PADRAO                   BRASIL      ON *       BBAS3       010VISTA          000000000010300000000107000000001030000000000000000000106000006183900
