00BDIN9999BOVESPA 99992002030620020306
0101IBOVESPA                      0140070136830140070000000000000000002002030600000020020306013839000000
0202LOTE PADRAO                   EMBRATEL PARPN *       EBTP4       010VISTA          000000000008800000000088000000000840000000000000000000085000147891000
0202LOTE PADRAO                   EMBRATEL PARON *       EBTP3       010VISTA          000000000010500000000106000000001000000000000000000000100000023446500
0202LOTE PADRAO                   TRAN PAULISTPN * EJ    TRPL4       010VISTA          000000000007500000000077000000000740000000000000000000077500021913000
0202LOTE PADRAO                   TELEMAR     PN * EJ    TNLP4       010VISTA          000000000032700000000330000000003200000000000000000000320000663178000
0202LOTE PADRAO                   ITAUBANCO   PN * EJ    ITAU4       010VISTA          000000000186500000001895000000018400000000000000000001880000020702200
0202LOTE PADRAO                   TELEMAR     ON * EJ    TNLP3       010VISTA          000000000029600000000296000000002760000000000000000000276000048783700
0202LOTE PADRAO                   SID NACIONALON *       CSNA3       010VISTA          000000000041500000000420000000003870000000000000000000412000011697200
0202LOTE PADRAO                   TELE LEST CLPN *       TLCP4       010VISTA          000000000000870000000009000000000086000000000000000000009000155588000
0202LOTE PADRAO                   CRT CELULAR PNA* EJ    CRTP5       010VISTA          000000000470000000004900000000046000000000000000000004840000000884900
0202LOTE PADRAO                   IPIRANGA PETPN *       PTIP4       010VISTA          000000000014100000000143000000001400000000000000000000142000005981200
0202LOTE PADRAO                   BRASIL T PARPN *       BRTP4       010VISTA          000000000019000000000194000000001820000000000000000000188000147120000
0202LOTE PADRAO                   BRASIL T PARON *       BRTP3       010VISTA          000000000019300000000193000000001880000000000000000000190000010180200
0202LOTE PADRAO                   KLABIN S/A  PN         KLBN4       010VISTA          000000000001270000000012800000000126000000000000000000012700000020100
0202LOTE PADRAO                   ACESITA     PN *       ACES4       010VISTA          000000000000710000000007200000000070000000000000000000007100336351000
0202LOTE PADRAO                   PETROBRAS   PN         PETR4       010VISTA          000000000056800000000568000000005520000000000000000000562000000146800
0202LOTE PADRAO                   ELETROBRAS  PNB*       ELET6       010VISTA          000000000035500000000360000000003500000000000000000000360000034609600
0202LOTE PADRAO                   PETROBRAS   ON         PETR3       010VISTA          000000000059700000000597000000005800000000000000000000590000000062900
0202LOTE PADRAO                   COMGAS      PNA*       CGAS5       010VISTA          000000000089000000000919000000008870000000000000000000900000001477000
0202LOTE PADRAO                   SOUZA CRUZ  ON EJ      CRUZ3       010VISTA          000000000014400000000145000000001430000000000000000000145000000018100
0202LOTE PADRAO                   ELETROBRAS  ON *       ELET3       010VISTA          000000000039700000000409000000003900000000000000000000409000021455500
0202LOTE PADRAO                   CELESC      PNB        CLSC6       010VISTA          000000000000580000000005900000000057000000000000000000005900000450700
0202LOTE PADRAO                   BRADESCO    PN * EJ    BBDC4       010VISTA          000000000013100000000135000000001300000000000000000000135000230189000
0202LOTE PADRAO                   CESP        PN *       CESP4       010VISTA          000000000015400000000157000000001530000000000000000000155000009873800
0202LOTE PADRAO                   LIGHT       ON *       LIGH3       010VISTA          000000000121000000001215000000011850000000000000000001210000000450000
0202LOTE PADRAO                   TELESP CL PAPN *       TSPP4       010VISTA          000000000007600000000076000000000740000000000000000000074000378282000
0202LOTE PADRAO                   VALE R DOCE PNA        VALE5       010VISTA          000000000063700000000637000000006270000000000000000000627000000110700
0202LOTE PADRAO                   COPEL       PNB*       CPLE6       010VISTA          000000000018300000000188000000001810000000000000000000188000040883200
0202LOTE PADRAO                   VALE R DOCE ON         VALE3       010VISTA          000000000065000000000650000000006420000000000000000000645000000008400
0202LOTE PADRAO                   ARACRUZ     PNB        ARCZ6       010VISTA          000000000004600000000048000000000460000000000000000000047000000049000
0202LOTE PADRAO                   TELEMIG PARTPN *       TMCP4       010VISTA          000000000003700000000038000000000360000000000000000000037900145719000
0202LOTE PADRAO                   BRASIL TELECPN *       BRTO4       010VISTA          000000000013400000000136000000001325000000000000000000132500165813000
0202LOTE PADRAO                   SABESP      ON *       SBSP3       010VISTA          000000000136400000001375000000012800000000000000000001325000005050300
0202LOTE PADRAO                   BRASKEM     PNA*       BRKM5       010VISTA          000000000551100000005550000000054200000000000000000005530000000194900
0202LOTE PADRAO                   EMBRAER     PN EJ      EMBR4       010VISTA          000000000011900000000128000000001180000000000000000000125000000209300
0202LOTE PADRAO                   TELESP      PN * EJ    TLPP4       010VISTA          000000000033600000000336000000003260000000000000000000332000019760000
0202LOTE PADRAO                   EMBRAER     ON EJ      EMBR3       010VISTA          000000000011300000000119000000001100000000000000000000119000000034600
0202LOTE PADRAO                   AMBEV       PN *       AMBV4       010VISTA          000000000451900000004529000000043500000000000000000004455000004930400
0202LOTE PADRAO                   USIMINAS    PNA        USIM5       010VISTA          000000000007300000000073000000000690000000000000000000071000000142300
0202LOTE PADRAO                   ELETROPAULO PN *       ELPL4       010VISTA          000000000066800000000689000000006550000000000000000000686000005381600
0202LOTE PADRAO                   TELE NORD CLPN *       TNEP4       010VISTA          000000000003000000000032000000000300000000000000000000032000144326000
0202LOTE PADRAO                   CEMIG       PN * EJ    CMIG4       010VISTA          000000000037400000000383000000003660000000000000000000383000036334100
0202LOTE PADRAO                   TELE CL SUL PN * EJ    TCSL4       010VISTA          000000000003300000000033000000000325000000000000000000033000099422900
0202LOTE PADRAO                   CEMIG       ON * EJ    CMIG3       010VISTA          000000000033700000000340000000003200000000000000000000337000002855000
0202LOTE PADRAO                   TELE CL SUL ON * EJ    TCSL3       010VISTA          000000000003000000000031000000000290000000000000000000031000013740900
0202LOTE PADRAO                   ITAUSA      PN         ITSA4       010VISTA          000000000002200000000022000000000220000000000000000000022000000784200
0202LOTE PADRAO                   V C P       PN *       VCPA4       010VISTA          000000000086700000000885000000008600000000000000000000880000003679900
0202LOTE PADRAO                   SID TUBARAO PN *       CSTB4       010VISTA          000000000025100000000251000000002450000000000000000000248000006520000
0202LOTE PADRAO                   BRADESPAR   PN *       BRAP4       010VISTA          000000000000790000000008000000000078000000000000000000007900139556000
0202LOTE PADRAO                   NET         PN         PLIM4       010VISTA          000000000000700000000007100000000067000000000000000000006700001253800
0202LOTE PADRAO                   TELE CTR OESPN * EJ    TCOC4       010VISTA          000000000005100000000052000000000500000000000000000000050000244320000
0202LOTE PADRAO                   TELEMAR N L PNA* EJ    TMAR5       010VISTA          000000000057500000000575000000005420000000000000000000553000035697000
0202LOTE PADRAO                   GERDAU      PN * EJ    GGBR4       010VISTA          000000000026600000000272000000002550000000000000000000272000013178900
0202LOTE PADRAO                   BRASIL      ON *       BBAS3       010VISTA          000000000010600000000111000000001060000000000000000000110000006181800
