00BDIN9999BOVESPA 99992002121120021211
0101IBOVESPA                      0103400103400106520000000000000000002002121100000020021211010614000000
0202LOTE PADRAO                   EMBRATEL PARPN *       EBTP4       010VISTA          000000000003300000000034000000000300000000000000000000033001030180000
0202LOTE PADRAO                   TRAN PAULISTPN * EJ    TRPL4       010VISTA          000000000005100000000053000000000510000000000000000000053000013415800
0202LOTE PADRAO                   EMBRATEL PARON *       EBTP3       010VISTA          000000000004000000000042000000000369000000000000000000039000140001000
0202LOTE PADRAO                   TELEMAR     PN * EJ    TNLP4       010VISTA          000000000026300000000266000000002590000000000000000000265000488264000
0202LOTE PADRAO                   ITAUBANCO   PN * EJ    ITAU4       010VISTA          000000000154800000001590000000015200000000000000000001590000006615100
0202LOTE PADRAO                   TELEMAR     ON * EJ    TNLP3       010VISTA          000000000018800000000192000000001880000000000000000000190000020705400
0202LOTE PADRAO                   SID NACIONALON *       CSNA3       010VISTA          000000000050400000000505000000004980000000000000000000503000019469300
0202LOTE PADRAO                   TELE LEST CLPN *       TLCP4       010VISTA          000000000000420000000004400000000042000000000000000000004400279689000
0202LOTE PADRAO                   CRT CELULAR PNA* EJ    CRTP5       010VISTA          000000000303000000003050000000030200000000000000000003030000001091700
0202LOTE PADRAO                   IPIRANGA PETPN *       PTIP4       010VISTA          000000000007100000000072000000000700000000000000000000072000002640000
0202LOTE PADRAO                   BRASIL T PARPN *       BRTP4       010VISTA          000000000017200000000179000000001720000000000000000000175000051904600
0202LOTE PADRAO                   BRASIL T PARON *       BRTP3       010VISTA          000000000013800000000140000000001375000000000000000000140000010155600
0202LOTE PADRAO                   KLABIN S/A  PN         KLBN4       010VISTA          000000000000960000000010000000000096000000000000000000009800000029700
0202LOTE PADRAO                   ACESITA     PN *       ACES4       010VISTA          000000000000860000000009200000000086000000000000000000009200313779000
0202LOTE PADRAO                   PETROBRAS   PN         PETR4       010VISTA          000000000043700000000448000000004370000000000000000000442000000076800
0202LOTE PADRAO                   ELETROBRAS  PNB*       ELET6       010VISTA          000000000018800000000194000000001860000000000000000000194000066111800
0202LOTE PADRAO                   PETROBRAS   ON         PETR3       010VISTA          000000000048000000000494000000004800000000000000000000492000000026600
0202LOTE PADRAO                   COMGAS      PNA*       CGAS5       010VISTA          000000000048000000000494000000004800000000000000000000490000000848500
0202LOTE PADRAO                   SOUZA CRUZ  ON EJ      CRUZ3       010VISTA          000000000018300000000188000000001810000000000000000000183000000010300
0202LOTE PADRAO                   ELETROBRAS  ON *       ELET3       010VISTA          000000000019500000000205000000001950000000000000000000198000020664500
0202LOTE PADRAO                   CELESC      PNB        CLSC6       010VISTA          000000000000470000000004800000000046000000000000000000004800000282700
0202LOTE PADRAO                   BRADESCO    PN * EJ    BBDC4       010VISTA          000000000009100000000095000000000910000000000000000000095000562240000
0202LOTE PADRAO                   CESP        PN *       CESP4       010VISTA          000000000006600000000068000000000650000000000000000000068000012943900
0202LOTE PADRAO                   LIGHT       ON *       LIGH3       010VISTA          000000000048000000000480000000004670000000000000000000477000000313000
0202LOTE PADRAO                   TELESP CL PAPN *       TSPP4       010VISTA          000000000003600000000038000000000360000000000000000000037000378601000
0202LOTE PADRAO                   VALE R DOCE PNA        VALE5       010VISTA          000000000103800000001038000000010100000000000000000001022000000027200
0202LOTE PADRAO                   COPEL       PNB*       CPLE6       010VISTA          000000000007300000000075000000000730000000000000000000074000037598400
0202LOTE PADRAO                   VALE R DOCE ON         VALE3       010VISTA          000000000107500000001116000000010720000000000000000001090000000017800
0202LOTE PADRAO                   ARACRUZ     PNB        ARCZ6       010VISTA          000000000006400000000064000000000625000000000000000000062000000053100
0202LOTE PADRAO                   TELEMIG PARTPN *       TMCP4       010VISTA          000000000002800000000029000000000280000000000000000000029000140216000
0202LOTE PADRAO                   BRASIL TELECPN *       BRTO4       010VISTA          000000000011100000000114000000001110000000000000000000114000120442000
0202LOTE PADRAO                   SABESP      ON *       SBSP3       010VISTA          000000000077500000000778000000007650000000000000000000767000013859000
0202LOTE PADRAO                   BRASKEM     PNA*       BRKM5       010VISTA          000000000204900000002149000000020490000000000000000002080000000332000
0202LOTE PADRAO                   EMBRAER     PN EJ      EMBR4       010VISTA          000000000013800000000139000000001380000000000000000000138000000070500
0202LOTE PADRAO                   TELESP      PN * EJ    TLPP4       010VISTA          000000000035700000000370000000003550000000000000000000357500008954900
0202LOTE PADRAO                   EMBRAER     ON EJ      EMBR3       010VISTA          000000000012600000000126000000001250000000000000000000125000000014400
0202LOTE PADRAO                   AMBEV       PN *       AMBV4       010VISTA          000000000531000000005489000000053100000000000000000005391000001909200
0202LOTE PADRAO                   USIMINAS    PNA        USIM5       010VISTA          000000000005900000000061000000000580000000000000000000060000000071900
0202LOTE PADRAO                   ELETROPAULO PN *       ELPL4       010VISTA          000000000022200000000230000000002200000000000000000000226000013625600
0202LOTE PADRAO                   TELE NORD CLPN *       TNEP4       010VISTA          000000000002800000000029000000000280000000000000000000028000114897000
0202LOTE PADRAO                   CEMIG       PN * EJ    CMIG4       010VISTA          000000000023100000000234000000002280000000000000000000231000039626500
0202LOTE PADRAO                   TELE CL SUL PN * EJ    TCSL4       010VISTA          000000000002700000000028100000000270000000000000000000027500076632100
0202LOTE PADRAO                   TRACTEBEL   ON *       TBLE3       010VISTA          000000000003300000000035400000000330000000000000000000035400011745300
0202LOTE PADRAO                   CEMIG       ON * EJ    CMIG3       010VISTA          000000000021100000000215000000002100000000000000000000210000000811700
0202LOTE PADRAO                   TELE CL SUL ON * EJ    TCSL3       010VISTA          000000000001900000000019900000000190000000000000000000019500020735400
0202LOTE PADRAO                   ITAUSA      PN         ITSA4       010VISTA          000000000001740000000018000000000174000000000000000000018000000415200
0202LOTE PADRAO                   V C P       PN *       VCPA4       010VISTA          000000000119900000001199000000011750000000000000000001175000001599600
0202LOTE PADRAO                   SID TUBARAO PN *       CSTB4       010VISTA          000000000036200000000371000000003620000000000000000000371000012020400
0202LOTE PADRAO                   BRADESPAR   PN *       BRAP4       010VISTA          000000000000470000000005000000000047000000000000000000004900268856000
0202LOTE PADRAO                   NET         PN         PLIM4       010VISTA          000000000000380000000004000000000037000000000000000000004000000951500
0202LOTE PADRAO                   TELE CTR OESPN * EJ    TCOC4       010VISTA          000000000004500000000047000000000440000000000000000000046000141256000
0202LOTE PADRAO                   TELEMAR N L PNA* EJ    TMAR5       010VISTA          000000000042000000000437000000004200000000000000000000437000024371500
0202LOTE PADRAO                   GERDAU      PN * EJ    GGBR4       010VISTA          000000000031800000000327000000003180000000000000000000327000037001700
0202LOTE PADRAO                   BRASIL      ON *       BBAS3       010VISTA          000000000009500000000100000000000950000000000000000000100000031380800
