00BDIN9999BOVESPA 99992002120520021205
0101IBOVESPA                      0106450103460106510000000000000000002002120500000020021205010413000000
0202LOTE PADRAO                   EMBRATEL PARPN *       EBTP4       010VISTA          000000000003400000000034800000000330000000000000000000033000627649000
0202LOTE PADRAO                   TRAN PAULISTPN * EJ    TRPL4       010VISTA          000000000005100000000052000000000500000000000000000000050000011926800
0202LOTE PADRAO                   EMBRATEL PARON *       EBTP3       010VISTA          000000000004000000000040000000000390000000000000000000039000047393300
0202LOTE PADRAO                   TELEMAR     PN * EJ    TNLP4       010VISTA          000000000027200000000272000000002630000000000000000000264000251528000
0202LOTE PADRAO                   ITAUBANCO   PN * EJ    ITAU4       010VISTA          000000000151000000001531000000014900000000000000000001497000007683300
0202LOTE PADRAO                   TELEMAR     ON * EJ    TNLP3       010VISTA          000000000019500000000195000000001880000000000000000000191000010547900
0202LOTE PADRAO                   SID NACIONALON *       CSNA3       010VISTA          000000000049500000000503000000004800000000000000000000502000021385000
0202LOTE PADRAO                   TELE LEST CLPN *       TLCP4       010VISTA          000000000000430000000004300000000041000000000000000000004200138568000
0202LOTE PADRAO                   CRT CELULAR PNA* EJ    CRTP5       010VISTA          000000000301000000003025000000030000000000000000000003018000000372800
0202LOTE PADRAO                   IPIRANGA PETPN *       PTIP4       010VISTA          000000000007300000000073000000000700000000000000000000070000001995600
0202LOTE PADRAO                   BRASIL T PARPN *       BRTP4       010VISTA          000000000018600000000186000000001710000000000000000000173000081515200
0202LOTE PADRAO                   BRASIL T PARON *       BRTP3       010VISTA          000000000013800000000145000000001360000000000000000000141000013768700
0202LOTE PADRAO                   KLABIN S/A  PN         KLBN4       010VISTA          000000000000970000000009700000000094000000000000000000009400000018700
0202LOTE PADRAO                   ACESITA     PN *       ACES4       010VISTA          000000000000830000000008400000000082000000000000000000008300136495000
0202LOTE PADRAO                   PETROBRAS   PN         PETR4       010VISTA          000000000045000000000450000000004400000000000000000000445000000073300
0202LOTE PADRAO                   ELETROBRAS  PNB*       ELET6       010VISTA          000000000019300000000193000000001890000000000000000000191000047101800
0202LOTE PADRAO                   PETROBRAS   ON         PETR3       010VISTA          000000000048800000000488000000004800000000000000000000485000000020400
0202LOTE PADRAO                   COMGAS      PNA*       CGAS5       010VISTA          000000000051200000000515000000004800000000000000000000485000001868100
0202LOTE PADRAO                   SOUZA CRUZ  ON EJ      CRUZ3       010VISTA          000000000018100000000183000000001790000000000000000000179000000065200
0202LOTE PADRAO                   ELETROBRAS  ON *       ELET3       010VISTA          000000000019600000000203000000001960000000000000000000202500021971400
0202LOTE PADRAO                   CELESC      PNB        CLSC6       010VISTA          000000000000470000000004700000000046000000000000000000004700000193100
0202LOTE PADRAO                   BRADESCO    PN * EJ    BBDC4       010VISTA          000000000009500000000095000000000940000000000000000000094000146188000
0202LOTE PADRAO                   CESP        PN *       CESP4       010VISTA          000000000006700000000067000000000660000000000000000000066000006418200
0202LOTE PADRAO                   LIGHT       ON *       LIGH3       010VISTA          000000000047600000000480000000004500000000000000000000460000000971600
0202LOTE PADRAO                   TELESP CL PAPN *       TSPP4       010VISTA          000000000003800000000038000000000360000000000000000000037000371832000
0202LOTE PADRAO                   VALE R DOCE PNA        VALE5       010VISTA          000000000096100000000972000000009610000000000000000000965000000012000
0202LOTE PADRAO                   COPEL       PNB*       CPLE6       010VISTA          000000000007300000000075000000000720000000000000000000073000026189200
0202LOTE PADRAO                   VALE R DOCE ON         VALE3       010VISTA          000000000100400000001030000000010040000000000000000001029000000008900
0202LOTE PADRAO                   ARACRUZ     PNB        ARCZ6       010VISTA          000000000006100000000064000000000610000000000000000000064000000081600
0202LOTE PADRAO                   TELEMIG PARTPN *       TMCP4       010VISTA          000000000002900000000029600000000280000000000000000000028000111484000
0202LOTE PADRAO                   BRASIL TELECPN *       BRTO4       010VISTA          000000000011800000000118000000001110000000000000000000112000099407300
0202LOTE PADRAO                   SABESP      ON *       SBSP3       010VISTA          000000000080400000000804000000007750000000000000000000776000003622900
0202LOTE PADRAO                   BRASKEM     PNA*       BRKM5       010VISTA          000000000202000000002060000000020050000000000000000002020000000079000
0202LOTE PADRAO                   EMBRAER     PN EJ      EMBR4       010VISTA          000000000013800000000139000000001350000000000000000000139000000235800
0202LOTE PADRAO                   TELESP      PN * EJ    TLPP4       010VISTA          000000000034600000000357000000003450000000000000000000350000005998200
0202LOTE PADRAO                   EMBRAER     ON EJ      EMBR3       010VISTA          000000000012500000000128000000001240000000000000000000126000000023400
0202LOTE PADRAO                   AMBEV       PN *       AMBV4       010VISTA          000000000523000000005280000000052300000000000000000005280000001399900
0202LOTE PADRAO                   USIMINAS    PNA        USIM5       010VISTA          000000000006200000000062000000000580000000000000000000058000000085800
0202LOTE PADRAO                   ELETROPAULO PN *       ELPL4       010VISTA          000000000026300000000263000000002450000000000000000000246000008088700
0202LOTE PADRAO                   TELE NORD CLPN *       TNEP4       010VISTA          000000000002770000000027000000000273000000000000000000027000151932000
0202LOTE PADRAO                   CEMIG       PN * EJ    CMIG4       010VISTA          000000000022600000000227500000002210000000000000000000221000051658500
0202LOTE PADRAO                   TELE CL SUL PN * EJ    TCSL4       010VISTA          000000000002600000000027000000000260000000000000000000027000075286600
0202LOTE PADRAO                   TRACTEBEL   ON *       TBLE3       010VISTA          000000000003100000000032000000000310000000000000000000031000007619500
0202LOTE PADRAO                   CEMIG       ON * EJ    CMIG3       010VISTA          000000000020500000000210000000002000000000000000000000200000000426100
0202LOTE PADRAO                   TELE CL SUL ON * EJ    TCSL3       010VISTA          000000000001990000000020000000000190000000000000000000019000028438400
0202LOTE PADRAO                   ITAUSA      PN         ITSA4       010VISTA          000000000001790000000017900000000173000000000000000000017400000300400
0202LOTE PADRAO                   V C P       PN *       VCPA4       010VISTA          000000000116000000001200000000011600000000000000000001199000001014200
0202LOTE PADRAO                   SID TUBARAO PN *       CSTB4       010VISTA          000000000035000000000350000000003425000000000000000000347000006660500
0202LOTE PADRAO                   BRADESPAR   PN *       BRAP4       010VISTA          000000000000480000000004800000000045000000000000000000004600265220000
0202LOTE PADRAO                   NET         PN         PLIM4       010VISTA          000000000000380000000003800000000034000000000000000000003600001448900
0202LOTE PADRAO                   TELE CTR OESPN * EJ    TCOC4       010VISTA          000000000004600000000046000000000440000000000000000000044000081371700
0202LOTE PADRAO                   TELEMAR N L PNA* EJ    TMAR5       010VISTA          000000000043500000000435000000004190000000000000000000422000007970500
0202LOTE PADRAO                   GERDAU      PN * EJ    GGBR4       010VISTA          000000000031600000000317000000003110000000000000000000317000008320600
0202LOTE PADRAO                   BRASIL      ON *       BBAS3       010VISTA          000000000009600000000097000000000950000000000000000000095000022190300
