00BDIN9999BOVESPA 99992002110120021101
0101IBOVESPA                      0101720100430102660000000000000000002002110100000020021101010140000000
0202LOTE PADRAO                   EMBRATEL PARPN *       EBTP4       010VISTA          000000000002200000000023000000000220000000000000000000022000196931000
0202LOTE PADRAO                   TRAN PAULISTPN * EJ    TRPL4       010VISTA          000000000005100000000054000000000510000000000000000000054000044225900
0202LOTE PADRAO                   EMBRATEL PARON *       EBTP3       010VISTA          000000000002710000000028000000000260000000000000000000027500045636200
0202LOTE PADRAO                   TELEMAR     PN * EJ    TNLP4       010VISTA          000000000024800000000254000000002460000000000000000000248000234106000
0202LOTE PADRAO                   ITAUBANCO   PN * EJ    ITAU4       010VISTA          000000000160000000001600000000015700000000000000000001575000021202900
0202LOTE PADRAO                   TELEMAR     ON * EJ    TNLP3       010VISTA          000000000018100000000191000000001810000000000000000000183000040001400
0202LOTE PADRAO                   SID NACIONALON *       CSNA3       010VISTA          000000000037600000000377000000003650000000000000000000375000048763000
0202LOTE PADRAO                   TELE LEST CLPN *       TLCP4       010VISTA          000000000000400000000004100000000039000000000000000000004000306108000
0202LOTE PADRAO                   CRT CELULAR PNA* EJ    CRTP5       010VISTA          000000000320000000003400000000032000000000000000000003400000001353900
0202LOTE PADRAO                   IPIRANGA PETPN *       PTIP4       010VISTA          000000000008400000000085000000000810000000000000000000084000003082200
0202LOTE PADRAO                   BRASIL T PARPN *       BRTP4       010VISTA          000000000020500000000209000000002010000000000000000000202000073153200
0202LOTE PADRAO                   BRASIL T PARON *       BRTP3       010VISTA          000000000015400000000155000000001500000000000000000000151000007236000
0202LOTE PADRAO                   KLABIN S/A  PN         KLBN4       010VISTA          000000000000880000000009200000000088000000000000000000009200000060100
0202LOTE PADRAO                   ACESITA     PN *       ACES4       010VISTA          000000000000700000000007200000000069000000000000000000007200078181800
0202LOTE PADRAO                   PETROBRAS   PN         PETR4       010VISTA          000000000044300000000454000000004350000000000000000000441000000130700
0202LOTE PADRAO                   ELETROBRAS  PNB*       ELET6       010VISTA          000000000019000000000193000000001880000000000000000000191000065490200
0202LOTE PADRAO                   PETROBRAS   ON         PETR3       010VISTA          000000000048000000000499000000004770000000000000000000478000000068800
0202LOTE PADRAO                   COMGAS      PNA*       CGAS5       010VISTA          000000000057500000000578000000005600000000000000000000570000000654200
0202LOTE PADRAO                   SOUZA CRUZ  ON EJ      CRUZ3       010VISTA          000000000018400000000186000000001810000000000000000000184000000021500
0202LOTE PADRAO                   ELETROBRAS  ON *       ELET3       010VISTA          000000000020200000000204000000001980000000000000000000204000026178100
0202LOTE PADRAO                   CELESC      PNB        CLSC6       010VISTA          000000000000510000000005200000000050000000000000000000005100000203100
0202LOTE PADRAO                   BRADESCO    PN * EJ    BBDC4       010VISTA          000000000009500000000096000000000940000000000000000000095000278010000
0202LOTE PADRAO                   CESP        PN *       CESP4       010VISTA          000000000006500000000066000000000640000000000000000000065000003920000
0202LOTE PADRAO                   LIGHT       ON *       LIGH3       010VISTA          000000000055800000000572000000005580000000000000000000570000000372300
0202LOTE PADRAO                   TELESP CL PAPN *       TSPP4       010VISTA          000000000003770000000039000000000360000000000000000000039000724712000
0202LOTE PADRAO                   VALE R DOCE PNA        VALE5       010VISTA          000000000092500000000930000000009200000000000000000000924000000030700
0202LOTE PADRAO                   COPEL       PNB*       CPLE6       010VISTA          000000000008400000000085000000000820000000000000000000083000058247600
0202LOTE PADRAO                   VALE R DOCE ON         VALE3       010VISTA          000000000094000000000948000000009340000000000000000000939000000020400
0202LOTE PADRAO                   ARACRUZ     PNB        ARCZ6       010VISTA          000000000005800000000058000000000570000000000000000000057500000081200
0202LOTE PADRAO                   TELEMIG PARTPN *       TMCP4       010VISTA          000000000002900000000031000000000290000000000000000000029000125562000
0202LOTE PADRAO                   BRASIL TELECPN *       BRTO4       010VISTA          000000000012500000000128000000001240000000000000000000124000189909000
0202LOTE PADRAO                   SABESP      ON *       SBSP3       010VISTA          000000000087500000000890000000008600000000000000000000860000006848700
0202LOTE PADRAO                   BRASKEM     PNA*       BRKM5       010VISTA          000000000230000000002320000000022500000000000000000002320000000150500
0202LOTE PADRAO                   EMBRAER     PN EJ      EMBR4       010VISTA          000000000014300000000144000000001380000000000000000000139000000069100
0202LOTE PADRAO                   TELESP      PN * EJ    TLPP4       010VISTA          000000000037200000000382000000003670000000000000000000373000011314500
0202LOTE PADRAO                   EMBRAER     ON EJ      EMBR3       010VISTA          000000000013300000000133000000001280000000000000000000129000000011300
0202LOTE PADRAO                   AMBEV       PN *       AMBV4       010VISTA          000000000529000000005389000000052200000000000000000005360000003130300
0202LOTE PADRAO                   USIMINAS    PNA        USIM5       010VISTA          000000000005300000000054000000000520000000000000000000054000000064200
0202LOTE PADRAO                   ELETROPAULO PN *       ELPL4       010VISTA          000000000025600000000270000000002500000000000000000000257000007177900
0202LOTE PADRAO                   TELE NORD CLPN *       TNEP4       010VISTA          000000000002500000000025600000000240000000000000000000024800050592400
0202LOTE PADRAO                   CEMIG       PN * EJ    CMIG4       010VISTA          000000000024500000000249000000002400000000000000000000249000039667600
0202LOTE PADRAO                   TELE CL SUL PN * EJ    TCSL4       010VISTA          000000000002700000000029000000000270000000000000000000028000083370200
0202LOTE PADRAO                   TRACTEBEL   ON *       TBLE3       010VISTA          000000000003500000000035000000000340000000000000000000034000031996000
0202LOTE PADRAO                   CEMIG       ON * EJ    CMIG3       010VISTA          000000000022300000000225000000002160000000000000000000225000000657100
0202LOTE PADRAO                   TELE CL SUL ON * EJ    TCSL3       010VISTA          000000000002300000000023000000000225000000000000000000022500030476000
0202LOTE PADRAO                   ITAUSA      PN         ITSA4       010VISTA          000000000001800000000018000000000180000000000000000000018000000325200
0202LOTE PADRAO                   V C P       PN *       VCPA4       010VISTA          000000000113700000001149000000011090000000000000000001109000004253100
0202LOTE PADRAO                   SID TUBARAO PN *       CSTB4       010VISTA          000000000036400000000364000000003560000000000000000000360000002927100
0202LOTE PADRAO                   BRADESPAR   PN *       BRAP4       010VISTA          000000000000470000000004800000000046000000000000000000004800099247400
0202LOTE PADRAO                   NET         PN         PLIM4       010VISTA          000000000000260000000002800000000025000000000000000000002800001023700
0202LOTE PADRAO                   TELE CTR OESPN * EJ    TCOC4       010VISTA          000000000003500000000036900000000350000000000000000000036000125950000
0202LOTE PADRAO                   TELEMAR N L PNA* EJ    TMAR5       010VISTA          000000000044200000000450000000004360000000000000000000439000034368600
0202LOTE PADRAO                   GERDAU      PN * EJ    GGBR4       010VISTA          000000000032600000000348000000003260000000000000000000346000025220200
0202LOTE PADRAO                   BRASIL      ON *       BBAS3       010VISTA          000000000009800000000101000000000960000000000000000000100000050967500
