00BDIN9999BOVESPA 99992002041920020419
0101IBOVESPA                      0135680134480136310000000000000000002002041900000020020419013478000000
0202LOTE PADRAO                   EMBRATEL PARPN *       EBTP4       010VISTA          000000000007300000000076000000000730000000000000000000075000158976000
0202LOTE PADRAO                   TRAN PAULISTPN * EJ    TRPL4       010VISTA          000000000007200000000073000000000710000000000000000000072000013617400
0202LOTE PADRAO                   EMBRATEL PARON *       EBTP3       010VISTA          000000000008900000000090000000000880000000000000000000090000027768400
0202LOTE PADRAO                   TELEMAR     PN * EJ    TNLP4       010VISTA          000000000031600000000316000000003110000000000000000000311000074553300
0202LOTE PADRAO                   ITAUBANCO   PN * EJ    ITAU4       010VISTA          000000000189000000001890000000018710000000000000000001882000006758600
0202LOTE PADRAO                   TELEMAR     ON * EJ    TNLP3       010VISTA          000000000027700000000277000000002680000000000000000000273000007132800
0202LOTE PADRAO                   SID NACIONALON *       CSNA3       010VISTA          000000000046200000000463000000004580000000000000000000463000012321800
0202LOTE PADRAO                   TELE LEST CLPN *       TLCP4       010VISTA          000000000000730000000007400000000072000000000000000000007400138522000
0202LOTE PADRAO                   CRT CELULAR PNA* EJ    CRTP5       010VISTA          000000000430000000004300000000042450000000000000000004300000000254200
0202LOTE PADRAO                   IPIRANGA PETPN *       PTIP4       010VISTA          000000000015100000000151000000001490000000000000000000149000002140000
0202LOTE PADRAO                   BRASIL T PARPN *       BRTP4       010VISTA          000000000019500000000195000000001920000000000000000000193000057288700
0202LOTE PADRAO                   BRASIL T PARON *       BRTP3       010VISTA          000000000018600000000186000000001830000000000000000000183000007742100
0202LOTE PADRAO                   KLABIN S/A  PN         KLBN4       010VISTA          000000000001100000000011000000000100000000000000000000011000000017400
0202LOTE PADRAO                   ACESITA     PN *       ACES4       010VISTA          000000000000760000000007700000000075000000000000000000007500155660000
0202LOTE PADRAO                   PETROBRAS   PN         PETR4       010VISTA          000000000056600000000566000000005580000000000000000000559000000046500
0202LOTE PADRAO                   ELETROBRAS  PNB*       ELET6       010VISTA          000000000034800000000353000000003450000000000000000000350000021386100
0202LOTE PADRAO                   PETROBRAS   ON         PETR3       010VISTA          000000000059500000000598000000005920000000000000000000592000000014400
0202LOTE PADRAO                   COMGAS      PNA*       CGAS5       010VISTA          000000000075000000000752000000007400000000000000000000740000000715600
0202LOTE PADRAO                   SOUZA CRUZ  ON EJ      CRUZ3       010VISTA          000000000015500000000158000000001550000000000000000000156000000009200
0202LOTE PADRAO                   ELETROBRAS  ON *       ELET3       010VISTA          000000000038600000000410000000003760000000000000000000384000005135600
0202LOTE PADRAO                   CELESC      PNB        CLSC6       010VISTA          000000000000550000000005500000000054000000000000000000005500000140800
0202LOTE PADRAO                   BRADESCO    PN * EJ    BBDC4       010VISTA          000000000014500000000146000000001440000000000000000000144000109036000
0202LOTE PADRAO                   CESP        PN *       CESP4       010VISTA          000000000013700000000139000000001360000000000000000000137000010490000
0202LOTE PADRAO                   LIGHT       ON *       LIGH3       010VISTA          000000000099000000001007000000009700000000000000000000980000000322700
0202LOTE PADRAO                   TELESP CL PAPN *       TSPP4       010VISTA          000000000006000000000061000000000590000000000000000000059000085304100
0202LOTE PADRAO                   VALE R DOCE PNA        VALE5       010VISTA          000000000064200000000642000000006300000000000000000000630000000015100
0202LOTE PADRAO                   COPEL       PNB*       CPLE6       010VISTA          000000000018600000000186000000001760000000000000000000176000018376000
0202LOTE PADRAO                   VALE R DOCE ON         VALE3       010VISTA          000000000064500000000645000000006400000000000000000000641000000008500
0202LOTE PADRAO                   ARACRUZ     PNB        ARCZ6       010VISTA          000000000004900000000050000000000480000000000000000000049000000038500
0202LOTE PADRAO                   TELEMIG PARTPN *       TMCP4       010VISTA          000000000003000000000030000000000290000000000000000000029000063626700
0202LOTE PADRAO                   BRASIL TELECPN *       BRTO4       010VISTA          000000000013800000000138000000001330000000000000000000135000070785300
0202LOTE PADRAO                   SABESP      ON *       SBSP3       010VISTA          000000000153000000001565000000015050000000000000000001520000005383400
0202LOTE PADRAO                   BRASKEM     PNA*       BRKM5       010VISTA          000000000540000000005400000000052000000000000000000005250000000118700
0202LOTE PADRAO                   EMBRAER     PN EJ      EMBR4       010VISTA          000000000012400000000126000000001240000000000000000000125000000079400
0202LOTE PADRAO                   TELESP      PN * EJ    TLPP4       010VISTA          000000000033700000000340000000003350000000000000000000335000006719200
0202LOTE PADRAO                   EMBRAER     ON EJ      EMBR3       010VISTA          000000000011500000000118000000001140000000000000000000115000000027100
0202LOTE PADRAO                   AMBEV       PN *       AMBV4       010VISTA          000000000490000000004900000000047640000000000000000004764000000669900
0202LOTE PADRAO                   USIMINAS    PNA        USIM5       010VISTA          000000000008100000000082000000000800000000000000000000081000000074900
0202LOTE PADRAO                   ELETROPAULO PN *       ELPL4       010VISTA          000000000065700000000670000000006550000000000000000000667000001474500
0202LOTE PADRAO                   TELE NORD CLPN *       TNEP4       010VISTA          000000000002700000000027000000000260000000000000000000026000065554600
0202LOTE PADRAO                   CEMIG       PN * EJ    CMIG4       010VISTA          000000000038000000000380000000003700000000000000000000372000045788900
0202LOTE PADRAO                   TELE CL SUL PN * EJ    TCSL4       010VISTA          000000000003100000000031000000000300000000000000000000030000049568400
0202LOTE PADRAO                   TRACTEBEL   ON *       TBLE3       010VISTA          000000000004600000000046000000000440000000000000000000044000016289900
0202LOTE PADRAO                   CEMIG       ON * EJ    CMIG3       010VISTA          000000000033700000000337000000003360000000000000000000336000000530000
0202LOTE PADRAO                   TELE CL SUL ON * EJ    TCSL3       010VISTA          000000000002770000000028000000000270000000000000000000028100033635700
0202LOTE PADRAO                   ITAUSA      PN         ITSA4       010VISTA          000000000002400000000024000000000240000000000000000000024000000249300
0202LOTE PADRAO                   V C P       PN *       VCPA4       010VISTA          000000000095000000000980000000009300000000000000000000945000001367400
0202LOTE PADRAO                   SID TUBARAO PN *       CSTB4       010VISTA          000000000025500000000259000000002500000000000000000000259000003307000
0202LOTE PADRAO                   BRADESPAR   PN *       BRAP4       010VISTA          000000000000720000000007300000000071000000000000000000007200169334000
0202LOTE PADRAO                   NET         PN         PLIM4       010VISTA          000000000000400000000004200000000039000000000000000000003900000902900
0202LOTE PADRAO                   TELE CTR OESPN * EJ    TCOC4       010VISTA          000000000005000000000050000000000496000000000000000000050000049612200
0202LOTE PADRAO                   TELEMAR N L PNA* EJ    TMAR5       010VISTA          000000000054000000000540000000005250000000000000000000528000020294200
0202LOTE PADRAO                   GERDAU      PN * EJ    GGBR4       010VISTA          000000000032200000000322000000003190000000000000000000322500016426000
0202LOTE PADRAO                   BRASIL      ON *       BBAS3       010VISTA          000000000014300000000144000000001350000000000000000000137000009593000
