00BDIN9999BOVESPA 99992002012320020123
0101IBOVESPA                      0130250129820132850000000000000000002002012300000020020123013232000000
0202LOTE PADRAO                   EMBRATEL PARPN *       EBTP4       010VISTA          000000000009900000000100000000000960000000000000000000098000164744000
0202LOTE PADRAO                   EMBRATEL PARON *       EBTP3       010VISTA          000000000011500000000115000000001100000000000000000000112000027088700
0202LOTE PADRAO                   TRAN PAULISTPN * EJ    TRPL4       010VISTA          000000000006900000000070000000000670000000000000000000070000029486800
0202LOTE PADRAO                   TELEMAR     PN * EJ    TNLP4       010VISTA          000000000033800000000346000000003300000000000000000000345000265122000
0202LOTE PADRAO                   ITAUBANCO   PN * EJ    ITAU4       010VISTA          000000000178000000001800000000017500000000000000000001800000003583800
0202LOTE PADRAO                   TELEMAR     ON * EJ    TNLP3       010VISTA          000000000029200000000297000000002880000000000000000000295000021330200
0202LOTE PADRAO                   SID NACIONALON *       CSNA3       010VISTA          000000000040500000000411000000003960000000000000000000405000008464300
0202LOTE PADRAO                   TELE LEST CLPN *       TLCP4       010VISTA          000000000000900000000009100000000089000000000000000000009000134038000
0202LOTE PADRAO                   CRT CELULAR PNA* EJ    CRTP5       010VISTA          000000000460000000004700000000045000000000000000000004650000000355800
0202LOTE PADRAO                   IPIRANGA PETPN *       PTIP4       010VISTA          000000000012500000000126000000001230000000000000000000125000001790000
0202LOTE PADRAO                   BRASIL T PARPN *       BRTP4       010VISTA          000000000018000000000182500000001780000000000000000000181000053461800
0202LOTE PADRAO                   BRASIL T PARON *       BRTP3       010VISTA          000000000018200000000183000000001800000000000000000000182000005107800
0202LOTE PADRAO                   KLABIN S/A  PN         KLBN4       010VISTA          000000000001100000000011000000000110000000000000000000011000000010100
0202LOTE PADRAO                   ACESITA     PN *       ACES4       010VISTA          000000000000700000000007100000000069000000000000000000007000102911000
0202LOTE PADRAO                   PETROBRAS   PN         PETR4       010VISTA          000000000048500000000485000000004770000000000000000000477000000053700
0202LOTE PADRAO                   ELETROBRAS  PNB*       ELET6       010VISTA          000000000027300000000280000000002660000000000000000000278000036828700
0202LOTE PADRAO                   PETROBRAS   ON         PETR3       010VISTA          000000000049000000000492000000004870000000000000000000487000000014300
0202LOTE PADRAO                   COMGAS      PNA*       CGAS5       010VISTA          000000000089000000000945000000008890000000000000000000920000000855100
0202LOTE PADRAO                   SOUZA CRUZ  ON EJ      CRUZ3       010VISTA          000000000014500000000148000000001450000000000000000000147500000014000
0202LOTE PADRAO                   ELETROBRAS  ON *       ELET3       010VISTA          000000000030000000000315000000002950000000000000000000311000019195900
0202LOTE PADRAO                   CELESC      PNB        CLSC6       010VISTA          000000000000550000000005600000000053000000000000000000005400000154900
0202LOTE PADRAO                   BRADESCO    PN * EJ    BBDC4       010VISTA          000000000012400000000126000000001230000000000000000000125000099211200
0202LOTE PADRAO                   CESP        PN *       CESP4       010VISTA          000000000014250000000148000000001400000000000000000000148000007554200
0202LOTE PADRAO                   LIGHT       ON *       LIGH3       010VISTA          000000000119200000001260000000011800000000000000000001210000000492400
0202LOTE PADRAO                   TELESP CL PAPN *       TSPP4       010VISTA          000000000007500000000077100000000740000000000000000000076000299262000
0202LOTE PADRAO                   VALE R DOCE PNA        VALE5       010VISTA          000000000052500000000537000000005240000000000000000000537000000033700
0202LOTE PADRAO                   COPEL       PNB*       CPLE6       010VISTA          000000000015600000000166000000001560000000000000000000165000034775000
0202LOTE PADRAO                   VALE R DOCE ON         VALE3       010VISTA          000000000051000000000520000000005100000000000000000000520000000004400
0202LOTE PADRAO                   ARACRUZ     PNB        ARCZ6       010VISTA          000000000004200000000042000000000400000000000000000000040000000062500
0202LOTE PADRAO                   TELEMIG PARTPN *       TMCP4       010VISTA          000000000003700000000038000000000360000000000000000000038000055644200
0202LOTE PADRAO                   BRASIL TELECPN *       BRTO4       010VISTA          000000000013000000000131000000001280000000000000000000130000125958000
0202LOTE PADRAO                   SABESP      ON *       SBSP3       010VISTA          000000000137000000001390000000013490000000000000000001370000001008300
0202LOTE PADRAO                   BRASKEM     PNA*       BRKM5       010VISTA          000000000596000000006080000000058500000000000000000006000000000257800
0202LOTE PADRAO                   EMBRAER     PN EJ      EMBR4       010VISTA          000000000012400000000125000000001240000000000000000000124000000045000
0202LOTE PADRAO                   TELESP      PN * EJ    TLPP4       010VISTA          000000000029600000000308000000002960000000000000000000305000008556100
0202LOTE PADRAO                   EMBRAER     ON EJ      EMBR3       010VISTA          000000000011500000000119000000001150000000000000000000117000000020700
0202LOTE PADRAO                   AMBEV       PN *       AMBV4       010VISTA          000000000485000000004900000000048500000000000000000004870000002574700
0202LOTE PADRAO                   USIMINAS    PNA        USIM5       010VISTA          000000000006900000000072000000000680000000000000000000072500000087700
0202LOTE PADRAO                   ELETROPAULO PN *       ELPL4       010VISTA          000000000079000000000810000000007900000000000000000000810000005679100
0202LOTE PADRAO                   TELE NORD CLPN *       TNEP4       010VISTA          000000000003000000000032000000000300000000000000000000032000064450800
0202LOTE PADRAO                   CEMIG       PN * EJ    CMIG4       010VISTA          000000000033700000000342000000003310000000000000000000342000048355500
0202LOTE PADRAO                   TELE CL SUL PN * EJ    TCSL4       010VISTA          000000000003200000000033000000000310000000000000000000033000081175200
0202LOTE PADRAO                   CEMIG       ON * EJ    CMIG3       010VISTA          000000000030000000000301000000002950000000000000000000301000001720000
0202LOTE PADRAO                   TELE CL SUL ON * EJ    TCSL3       010VISTA          000000000002700000000029800000000270000000000000000000029000020686800
0202LOTE PADRAO                   ITAUSA      PN         ITSA4       010VISTA          000000000002100000000022000000000210000000000000000000022000000162600
0202LOTE PADRAO                   V C P       PN *       VCPA4       010VISTA          000000000076200000000779000000007500000000000000000000779000002181500
0202LOTE PADRAO                   SID TUBARAO PN *       CSTB4       010VISTA          000000000021600000000225000000002160000000000000000000225000003543200
0202LOTE PADRAO                   BRADESPAR   PN *       BRAP4       010VISTA          000000000000760000000007900000000075000000000000000000007800118104000
0202LOTE PADRAO                   NET         PN         PLIM4       010VISTA          000000000000720000000007300000000069000000000000000000007000002014200
0202LOTE PADRAO                   TELE CTR OESPN * EJ    TCOC4       010VISTA          000000000004900000000050000000000480000000000000000000049000075050100
0202LOTE PADRAO                   TELEMAR N L PNA* EJ    TMAR5       010VISTA          000000000055900000000572000000005450000000000000000000572500019038100
0202LOTE PADRAO                   GERDAU      PN * EJ    GGBR4       010VISTA          000000000024600000000246000000002380000000000000000000240000021006800
0202LOTE PADRAO                   BRASIL      ON *       BBAS3       010VISTA          000000000010000000000100000000000975000000000000000000099000004720700
