00BDIN9999BOVESPA 99992002032520020325
0101IBOVESPA                      0133590131830134300000000000000000002002032500000020020325013278000000
0202LOTE PADRAO                   EMBRATEL PARPN *       EBTP4       010VISTA          000000000007800000000079000000000750000000000000000000077000160710000
0202LOTE PADRAO                   TRAN PAULISTPN * EJ    TRPL4       010VISTA          000000000007400000000075000000000700000000000000000000071000011698900
0202LOTE PADRAO                   EMBRATEL PARON *       EBTP3       010VISTA          000000000009300000000098000000000910000000000000000000092500042931000
0202LOTE PADRAO                   TELEMAR     PN * EJ    TNLP4       010VISTA          000000000030600000000306000000002940000000000000000000297000210370000
0202LOTE PADRAO                   ITAUBANCO   PN * EJ    ITAU4       010VISTA          000000000187400000001887000000018500000000000000000001860000007321000
0202LOTE PADRAO                   TELEMAR     ON * EJ    TNLP3       010VISTA          000000000027100000000271000000002600000000000000000000261000020564800
0202LOTE PADRAO                   SID NACIONALON *       CSNA3       010VISTA          000000000043900000000448000000004320000000000000000000436000013876400
0202LOTE PADRAO                   TELE LEST CLPN *       TLCP4       010VISTA          000000000000850000000008600000000082000000000000000000008300096504500
0202LOTE PADRAO                   CRT CELULAR PNA* EJ    CRTP5       010VISTA          000000000480000000004850000000045000000000000000000004600000000237300
0202LOTE PADRAO                   IPIRANGA PETPN *       PTIP4       010VISTA          000000000013300000000136000000001330000000000000000000135000001217200
0202LOTE PADRAO                   BRASIL T PARPN *       BRTP4       010VISTA          000000000018500000000188000000001850000000000000000000188000073640700
0202LOTE PADRAO                   BRASIL T PARON *       BRTP3       010VISTA          000000000018000000000183000000001800000000000000000000181000007486900
0202LOTE PADRAO                   KLABIN S/A  PN         KLBN4       010VISTA          000000000001100000000012000000000110000000000000000000011000000017400
0202LOTE PADRAO                   ACESITA     PN *       ACES4       010VISTA          000000000000790000000008000000000076000000000000000000007600164140000
0202LOTE PADRAO                   PETROBRAS   PN         PETR4       010VISTA          000000000056700000000568000000005550000000000000000000567000000083300
0202LOTE PADRAO                   ELETROBRAS  PNB*       ELET6       010VISTA          000000000035000000000350000000003400000000000000000000347000020945400
0202LOTE PADRAO                   PETROBRAS   ON         PETR3       010VISTA          000000000058600000000599000000005780000000000000000000592000000031100
0202LOTE PADRAO                   COMGAS      PNA*       CGAS5       010VISTA          000000000083000000000845000000008000000000000000000000803000001125600
0202LOTE PADRAO                   SOUZA CRUZ  ON EJ      CRUZ3       010VISTA          000000000014400000000148000000001440000000000000000000147500000010800
0202LOTE PADRAO                   ELETROBRAS  ON *       ELET3       010VISTA          000000000038500000000393000000003830000000000000000000389000005601800
0202LOTE PADRAO                   CELESC      PNB        CLSC6       010VISTA          000000000000560000000005700000000055000000000000000000005500000192500
0202LOTE PADRAO                   BRADESCO    PN * EJ    BBDC4       010VISTA          000000000014100000000141000000001380000000000000000000139000208315000
0202LOTE PADRAO                   CESP        PN *       CESP4       010VISTA          000000000015300000000155000000001430000000000000000000148000014566000
0202LOTE PADRAO                   LIGHT       ON *       LIGH3       010VISTA          000000000113000000001156000000011300000000000000000001150000000989600
0202LOTE PADRAO                   TELESP CL PAPN *       TSPP4       010VISTA          000000000006000000000061000000000590000000000000000000060000195261000
0202LOTE PADRAO                   VALE R DOCE PNA        VALE5       010VISTA          000000000059500000000602000000005910000000000000000000602000000019600
0202LOTE PADRAO                   COPEL       PNB*       CPLE6       010VISTA          000000000017100000000178000000001680000000000000000000168000012800900
0202LOTE PADRAO                   VALE R DOCE ON         VALE3       010VISTA          000000000061500000000620000000006100000000000000000000620000000019600
0202LOTE PADRAO                   ARACRUZ     PNB        ARCZ6       010VISTA          000000000004200000000046000000000420000000000000000000046000000024500
0202LOTE PADRAO                   TELEMIG PARTPN *       TMCP4       010VISTA          000000000003200000000032000000000310000000000000000000031000072638900
0202LOTE PADRAO                   BRASIL TELECPN *       BRTO4       010VISTA          000000000013100000000133000000001280000000000000000000132500059560100
0202LOTE PADRAO                   SABESP      ON *       SBSP3       010VISTA          000000000129500000001300000000012650000000000000000001279000001324300
0202LOTE PADRAO                   BRASKEM     PNA*       BRKM5       010VISTA          000000000535000000005625000000053500000000000000000005400000000140600
0202LOTE PADRAO                   EMBRAER     PN EJ      EMBR4       010VISTA          000000000012400000000124000000001225000000000000000000123000000056900
0202LOTE PADRAO                   TELESP      PN * EJ    TLPP4       010VISTA          000000000033750000000341000000003350000000000000000000338000009148800
0202LOTE PADRAO                   EMBRAER     ON EJ      EMBR3       010VISTA          000000000011800000000119000000001150000000000000000000115000000020000
0202LOTE PADRAO                   AMBEV       PN *       AMBV4       010VISTA          000000000459900000004658000000045600000000000000000004640000003016800
0202LOTE PADRAO                   USIMINAS    PNA        USIM5       010VISTA          000000000007300000000073000000000700000000000000000000071000000056500
0202LOTE PADRAO                   ELETROPAULO PN *       ELPL4       010VISTA          000000000068200000000705000000006820000000000000000000704000001572400
0202LOTE PADRAO                   TELE NORD CLPN *       TNEP4       010VISTA          000000000002940000000030000000000280000000000000000000028000104591000
0202LOTE PADRAO                   CEMIG       PN * EJ    CMIG4       010VISTA          000000000035000000000355000000003400000000000000000000340000037749500
0202LOTE PADRAO                   TELE CL SUL PN * EJ    TCSL4       010VISTA          000000000003200000000032000000000310000000000000000000031000070687200
0202LOTE PADRAO                   TRACTEBEL   ON *       TBLE3       010VISTA          000000000004000000000040000000000400000000000000000000040000005710700
0202LOTE PADRAO                   CEMIG       ON * EJ    CMIG3       010VISTA          000000000030900000000312500000003090000000000000000000310000000775000
0202LOTE PADRAO                   TELE CL SUL ON * EJ    TCSL3       010VISTA          000000000002690000000027000000000260000000000000000000027000021254400
0202LOTE PADRAO                   ITAUSA      PN         ITSA4       010VISTA          000000000002300000000023000000000230000000000000000000023000000152000
0202LOTE PADRAO                   V C P       PN *       VCPA4       010VISTA          000000000086000000000880000000008600000000000000000000865000001282800
0202LOTE PADRAO                   SID TUBARAO PN *       CSTB4       010VISTA          000000000024000000000241000000002310000000000000000000233000006204800
0202LOTE PADRAO                   BRADESPAR   PN *       BRAP4       010VISTA          000000000000750000000007600000000072000000000000000000007400173820000
0202LOTE PADRAO                   NET         PN         PLIM4       010VISTA          000000000000510000000005400000000051000000000000000000005200002094500
0202LOTE PADRAO                   TELE CTR OESPN * EJ    TCOC4       010VISTA          000000000004700000000047000000000440000000000000000000045000083474000
0202LOTE PADRAO                   TELEMAR N L PNA* EJ    TMAR5       010VISTA          000000000053300000000535000000005070000000000000000000510000019226600
0202LOTE PADRAO                   GERDAU      PN * EJ    GGBR4       010VISTA          000000000028500000000286000000002780000000000000000000280000009010000
0202LOTE PADRAO                   BRASIL      ON *       BBAS3       010VISTA          000000000011700000000119000000001150000000000000000000116000008927000
