00BDIN9999BOVESPA 99992002010420020104
0101IBOVESPA                      0142500141030143580000000000000000002002010400000020020104014332000000
0202LOTE PADRAO                   EMBRATEL PARPN *       EBTP4       010VISTA          000000000010400000000108000000001030000000000000000000108000126092000
0202LOTE PADRAO                   EMBRATEL PARON *       EBTP3       010VISTA          000000000011500000000118000000001140000000000000000000118000030626800
0202LOTE PADRAO                   TRAN PAULISTPN * EJ    TRPL4       010VISTA          000000000006800000000070000000000670000000000000000000067000019488200
0202LOTE PADRAO                   TELEMAR     PN * EJ    TNLP4       010VISTA          000000000037800000000384000000003720000000000000000000382000223726000
0202LOTE PADRAO                   ITAUBANCO   PN * EJ    ITAU4       010VISTA          000000000180000000001825000000017800000000000000000001790000006646200
0202LOTE PADRAO                   TELEMAR     ON * EJ    TNLP3       010VISTA          000000000032500000000332500000003250000000000000000000332500025785100
0202LOTE PADRAO                   SID NACIONALON *       CSNA3       010VISTA          000000000036800000000380000000003675000000000000000000380000028862200
0202LOTE PADRAO                   TELE LEST CLPN *       TLCP4       010VISTA          000000000000980000000010000000000098000000000000000000010000173460000
0202LOTE PADRAO                   CRT CELULAR PNA* EJ    CRTP5       010VISTA          000000000535000000005640000000053000000000000000000005640000001471900
0202LOTE PADRAO                   IPIRANGA PETPN *       PTIP4       010VISTA          000000000012400000000124000000001200000000000000000000121000003833500
0202LOTE PADRAO                   BRASIL T PARPN *       BRTP4       010VISTA          000000000020000000000213000000002000000000000000000000208000062116800
0202LOTE PADRAO                   BRASIL T PARON *       BRTP3       010VISTA          000000000019800000000210000000001960000000000000000000209000020829300
0202LOTE PADRAO                   KLABIN S/A  PN         KLBN4       010VISTA          000000000001100000000011000000000100000000000000000000011000000118100
0202LOTE PADRAO                   ACESITA     PN *       ACES4       010VISTA          000000000000720000000007300000000071000000000000000000007300129221000
0202LOTE PADRAO                   PETROBRAS   PN         PETR4       010VISTA          000000000051600000000516000000005060000000000000000000512000000067100
0202LOTE PADRAO                   ELETROBRAS  PNB*       ELET6       010VISTA          000000000030800000000313000000003050000000000000000000309000055735700
0202LOTE PADRAO                   PETROBRAS   ON         PETR3       010VISTA          000000000052900000000535000000005220000000000000000000527000000029800
0202LOTE PADRAO                   COMGAS      PNA*       CGAS5       010VISTA          000000000092500000000925000000009070000000000000000000915000000474300
0202LOTE PADRAO                   SOUZA CRUZ  ON EJ      CRUZ3       010VISTA          000000000014300000000144000000001390000000000000000000140000000018700
0202LOTE PADRAO                   ELETROBRAS  ON *       ELET3       010VISTA          000000000033400000000343000000003340000000000000000000342000046028800
0202LOTE PADRAO                   CELESC      PNB        CLSC6       010VISTA          000000000000460000000004700000000045000000000000000000004700000253700
0202LOTE PADRAO                   BRADESCO    PN * EJ    BBDC4       010VISTA          000000000012600000000126000000001230000000000000000000125000113519000
0202LOTE PADRAO                   CESP        PN *       CESP4       010VISTA          000000000015400000000155000000001510000000000000000000155000009230800
0202LOTE PADRAO                   LIGHT       ON *       LIGH3       010VISTA          000000000127000000001350000000012450000000000000000001320000000392400
0202LOTE PADRAO                   TELESP CL PAPN *       TSPP4       010VISTA          000000000009000000000093000000000890000000000000000000092000319046000
0202LOTE PADRAO                   VALE R DOCE PNA        VALE5       010VISTA          000000000053500000000535000000005280000000000000000000533000000026900
0202LOTE PADRAO                   COPEL       PNB*       CPLE6       010VISTA          000000000017600000000181000000001700000000000000000000176000050403500
0202LOTE PADRAO                   VALE R DOCE ON         VALE3       010VISTA          000000000051500000000530000000005150000000000000000000528000000002300
0202LOTE PADRAO                   ARACRUZ     PNB        ARCZ6       010VISTA          000000000004200000000044000000000410000000000000000000044000000023000
0202LOTE PADRAO                   TELEMIG PARTPN *       TMCP4       010VISTA          000000000004500000000046000000000450000000000000000000045000083313200
0202LOTE PADRAO                   BRASIL TELECPN *       BRTO4       010VISTA          000000000014200000000146000000001400000000000000000000145000101493000
0202LOTE PADRAO                   SABESP      ON *       SBSP3       010VISTA          000000000135000000001390000000013500000000000000000001380000003669000
0202LOTE PADRAO                   BRASKEM     PNA*       BRKM5       010VISTA          000000000484000000005090000000047200000000000000000005000000000226200
0202LOTE PADRAO                   EMBRAER     PN EJ      EMBR4       010VISTA          000000000013750000000143000000001350000000000000000000139000000102000
0202LOTE PADRAO                   TELESP      PN * EJ    TLPP4       010VISTA          000000000032000000000322000000003180000000000000000000321000046514500
0202LOTE PADRAO                   EMBRAER     ON EJ      EMBR3       010VISTA          000000000012700000000133000000001270000000000000000000133000000033800
0202LOTE PADRAO                   AMBEV       PN *       AMBV4       010VISTA          000000000495000000005040000000049480000000000000000004999000001436500
0202LOTE PADRAO                   USIMINAS    PNA        USIM5       010VISTA          000000000006900000000069000000000680000000000000000000069000000032800
0202LOTE PADRAO                   ELETROPAULO PN *       ELPL4       010VISTA          000000000080700000000830000000008070000000000000000000819000001592000
0202LOTE PADRAO                   TELE NORD CLPN *       TNEP4       010VISTA          000000000003600000000036900000000354000000000000000000036000102964000
0202LOTE PADRAO                   CEMIG       PN * EJ    CMIG4       010VISTA          000000000035200000000356000000003500000000000000000000354000026505100
0202LOTE PADRAO                   TELE CL SUL PN * EJ    TCSL4       010VISTA          000000000003800000000038000000000370000000000000000000038000090113900
0202LOTE PADRAO                   CEMIG       ON * EJ    CMIG3       010VISTA          000000000032000000000325000000003160000000000000000000320000001781500
0202LOTE PADRAO                   TELE CL SUL ON * EJ    TCSL3       010VISTA          000000000003100000000032000000000300000000000000000000032000045822500
0202LOTE PADRAO                   ITAUSA      PN         ITSA4       010VISTA          000000000002200000000022000000000220000000000000000000022000000265300
0202LOTE PADRAO                   V C P       PN *       VCPA4       010VISTA          000000000080200000000802000000007900000000000000000000792000005404900
0202LOTE PADRAO                   SID TUBARAO PN *       CSTB4       010VISTA          000000000023100000000231000000002230000000000000000000228000004586400
0202LOTE PADRAO                   BRADESPAR   PN *       BRAP4       010VISTA          000000000000820000000008300000000081000000000000000000008300194127000
0202LOTE PADRAO                   NET         PN         PLIM4       010VISTA          000000000000810000000008200000000079000000000000000000008100000862800
0202LOTE PADRAO                   TELE CTR OESPN * EJ    TCOC4       010VISTA          000000000005500000000057000000000550000000000000000000057900160041000
0202LOTE PADRAO                   TELEMAR N L PNA* EJ    TMAR5       010VISTA          000000000063000000000640000000006290000000000000000000640000018831100
0202LOTE PADRAO                   GERDAU      PN * EJ    GGBR4       010VISTA          000000000023500000000241000000002350000000000000000000239000013171900
0202LOTE PADRAO                   BRASIL      ON *       BBAS3       010VISTA          000000000010900000000110000000001050000000000000000000108000003050900
