00BDIN9999BOVESPA 99992002082720020827
0101IBOVESPA                      0101180101180103890000000000000000002002082700000020020827010372000000
0202LOTE PADRAO                   EMBRATEL PARPN *       EBTP4       010VISTA          000000000002500000000027000000000250000000000000000000026000708922000
0202LOTE PADRAO                   EMBRATEL PARON *       EBTP3       010VISTA          000000000003250000000033000000000320000000000000000000032700153664000
0202LOTE PADRAO                   TRAN PAULISTPN * EJ    TRPL4       010VISTA          000000000005800000000058000000000550000000000000000000057000022396400
0202LOTE PADRAO                   ITAUBANCO   PN * EJ    ITAU4       010VISTA          000000000141000000001463000000014050000000000000000001441000042299600
0202LOTE PADRAO                   TELEMAR     ON * EJ    TNLP3       010VISTA          000000000019100000000202000000001900000000000000000000201000041465200
0202LOTE PADRAO                   SID NACIONALON *       CSNA3       010VISTA          000000000043000000000430000000004150000000000000000000424000010333000
0202LOTE PADRAO                   TELE LEST CLPN *       TLCP4       010VISTA          000000000000420000000004300000000041000000000000000000004300158241000
0202LOTE PADRAO                   CRT CELULAR PNA* EJ    CRTP5       010VISTA          000000000386000000003900000000037200000000000000000003850000002822100
0202LOTE PADRAO                   IPIRANGA PETPN *       PTIP4       010VISTA          000000000011500000000119000000001140000000000000000000114000004476200
0202LOTE PADRAO                   BRASIL T PARPN *       BRTP4       010VISTA          000000000018400000000188000000001810000000000000000000188000113050000
0202LOTE PADRAO                   BRASIL T PARON *       BRTP3       010VISTA          000000000015500000000155000000001400000000000000000000150000008390400
0202LOTE PADRAO                   KLABIN S/A  PN         KLBN4       010VISTA          000000000000900000000009100000000088000000000000000000009100000046900
0202LOTE PADRAO                   ACESITA     PN *       ACES4       010VISTA          000000000000710000000007300000000070000000000000000000007000191481000
0202LOTE PADRAO                   PETROBRAS   PN         PETR4       010VISTA          000000000043000000000441000000004300000000000000000000438000000136300
0202LOTE PADRAO                   ELETROBRAS  PNB*       ELET6       010VISTA          000000000021300000000216000000002110000000000000000000215000068617700
0202LOTE PADRAO                   PETROBRAS   ON         PETR3       010VISTA          000000000046500000000485000000004650000000000000000000481000000042600
0202LOTE PADRAO                   COMGAS      PNA*       CGAS5       010VISTA          000000000052100000000523000000005030000000000000000000517000000989100
0202LOTE PADRAO                   SOUZA CRUZ  ON EJ      CRUZ3       010VISTA          000000000014200000000144000000001410000000000000000000142000000024500
0202LOTE PADRAO                   ELETROBRAS  ON *       ELET3       010VISTA          000000000021800000000228000000002180000000000000000000226000016763100
0202LOTE PADRAO                   CELESC      PNB        CLSC6       010VISTA          000000000000600000000006000000000056000000000000000000005700000445600
0202LOTE PADRAO                   BRADESCO    PN * EJ    BBDC4       010VISTA          000000000009700000000101000000000960000000000000000000100000517025000
0202LOTE PADRAO                   CESP        PN *       CESP4       010VISTA          000000000007200000000074000000000700000000000000000000074000012606000
0202LOTE PADRAO                   LIGHT       ON *       LIGH3       010VISTA          000000000075200000000765000000007250000000000000000000764000000749400
0202LOTE PADRAO                   TELESP CL PAPN *       TSPP4       010VISTA          000000000003600000000037000000000360000000000000000000037000714414000
0202LOTE PADRAO                   VALE R DOCE PNA        VALE5       010VISTA          000000000071400000000725000000007120000000000000000000725000000014400
0202LOTE PADRAO                   COPEL       PNB*       CPLE6       010VISTA          000000000010000000000103000000000980000000000000000000100000099554900
0202LOTE PADRAO                   VALE R DOCE ON         VALE3       010VISTA          000000000077700000000796000000007770000000000000000000789000000005500
0202LOTE PADRAO                   ARACRUZ     PNB        ARCZ6       010VISTA          000000000005700000000057000000000550000000000000000000057000000077200
0202LOTE PADRAO                   TELEMIG PARTPN *       TMCP4       010VISTA          000000000003000000000031000000000290000000000000000000029800185425000
0202LOTE PADRAO                   BRASIL TELECPN *       BRTO4       010VISTA          000000000011500000000121000000001130000000000000000000121000200837000
0202LOTE PADRAO                   SABESP      ON *       SBSP3       010VISTA          000000000082500000000860000000008240000000000000000000840000007611800
0202LOTE PADRAO                   BRASKEM     PNA*       BRKM5       010VISTA          000000000295000000002980000000028500000000000000000002978000000205300
0202LOTE PADRAO                   EMBRAER     PN EJ      EMBR4       010VISTA          000000000013900000000140000000001380000000000000000000139000000075900
0202LOTE PADRAO                   TELESP      PN * EJ    TLPP4       010VISTA          000000000032700000000345000000003230000000000000000000345000027792000
0202LOTE PADRAO                   EMBRAER     ON EJ      EMBR3       010VISTA          000000000013000000000130000000001280000000000000000000128000000023200
0202LOTE PADRAO                   AMBEV       PN *       AMBV4       010VISTA          000000000447600000004565000000044540000000000000000004530000001593200
0202LOTE PADRAO                   USIMINAS    PNA        USIM5       010VISTA          000000000005500000000058000000000540000000000000000000055000000179500
0202LOTE PADRAO                   ELETROPAULO PN *       ELPL4       010VISTA          000000000036100000000381000000003600000000000000000000362000006059200
0202LOTE PADRAO                   TELE NORD CLPN *       TNEP4       010VISTA          000000000002700000000027700000000260000000000000000000026000214593000
0202LOTE PADRAO                   CEMIG       PN * EJ    CMIG4       010VISTA          000000000026600000000272000000002650000000000000000000272000070599000
0202LOTE PADRAO                   TELE CL SUL PN * EJ    TCSL4       010VISTA          000000000002700000000027500000000260000000000000000000027300141981000
0202LOTE PADRAO                   TRACTEBEL   ON *       TBLE3       010VISTA          000000000004000000000041000000000390000000000000000000039800008472400
0202LOTE PADRAO                   CEMIG       ON * EJ    CMIG3       010VISTA          000000000025300000000253000000002400000000000000000000244000000362500
0202LOTE PADRAO                   TELE CL SUL ON * EJ    TCSL3       010VISTA          000000000002250000000023000000000210000000000000000000022000012530100
0202LOTE PADRAO                   ITAUSA      PN         ITSA4       010VISTA          000000000001710000000017600000000171000000000000000000017500000764000
0202LOTE PADRAO                   V C P       PN *       VCPA4       010VISTA          000000000107000000001070000000010300000000000000000001040000001165000
0202LOTE PADRAO                   SID TUBARAO PN *       CSTB4       010VISTA          000000000026400000000264000000002520000000000000000000252000006335700
0202LOTE PADRAO                   BRADESPAR   PN *       BRAP4       010VISTA          000000000000490000000005000000000048000000000000000000004900211216000
0202LOTE PADRAO                   NET         PN         PLIM4       010VISTA          000000000000410000000004100000000038000000000000000000003900000856000
0202LOTE PADRAO                   TELE CTR OESPN * EJ    TCOC4       010VISTA          000000000003000000000030000000000290000000000000000000030000206594000
0202LOTE PADRAO                   TELEMAR N L PNA* EJ    TMAR5       010VISTA          000000000044500000000465000000004450000000000000000000462000067484400
0202LOTE PADRAO                   GERDAU      PN * EJ    GGBR4       010VISTA          000000000032600000000328000000003180000000000000000000328000015564600
0202LOTE PADRAO                   BRASIL      ON *       BBAS3       010VISTA          000000000010900000000113000000001090000000000000000000111000006954400
