00BDIN9999BOVESPA 99992002100220021002
0101IBOVESPA                      0090110088110091320000000000000000002002100200000020021002008820000000
0202LOTE PADRAO                   EMBRATEL PARPN *       EBTP4       010VISTA          000000000002400000000024000000000220000000000000000000022000205778000
0202LOTE PADRAO                   TRAN PAULISTPN * EJ    TRPL4       010VISTA          000000000005000000000051000000000500000000000000000000050000010168400
0202LOTE PADRAO                   EMBRATEL PARON *       EBTP3       010VISTA          000000000003100000000031000000000280000000000000000000028000019685400
0202LOTE PADRAO                   TELEMAR     PN * EJ    TNLP4       010VISTA          000000000022250000000224000000002150000000000000000000216000225121000
0202LOTE PADRAO                   ITAUBANCO   PN * EJ    ITAU4       010VISTA          000000000130500000001315000000012500000000000000000001265000026217000
0202LOTE PADRAO                   TELEMAR     ON * EJ    TNLP3       010VISTA          000000000016800000000168000000001590000000000000000000160000021711500
0202LOTE PADRAO                   SID NACIONALON *       CSNA3       010VISTA          000000000031300000000316000000002950000000000000000000296000016396900
0202LOTE PADRAO                   TELE LEST CLPN *       TLCP4       010VISTA          000000000000370000000003800000000036000000000000000000003600123601000
0202LOTE PADRAO                   CRT CELULAR PNA* EJ    CRTP5       010VISTA          000000000325000000003250000000031000000000000000000003200000000168100
0202LOTE PADRAO                   IPIRANGA PETPN *       PTIP4       010VISTA          000000000009000000000090000000000850000000000000000000085000001723500
0202LOTE PADRAO                   BRASIL T PARPN *       BRTP4       010VISTA          000000000018000000000181000000001700000000000000000000170000071542100
0202LOTE PADRAO                   BRASIL T PARON *       BRTP3       010VISTA          000000000013000000000138000000001290000000000000000000129000011722900
0202LOTE PADRAO                   KLABIN S/A  PN         KLBN4       010VISTA          000000000000890000000009000000000087000000000000000000008700000104000
0202LOTE PADRAO                   ACESITA     PN *       ACES4       010VISTA          000000000000600000000006100000000058000000000000000000005800102735000
0202LOTE PADRAO                   PETROBRAS   PN         PETR4       010VISTA          000000000040100000000408000000003900000000000000000000396000000137100
0202LOTE PADRAO                   ELETROBRAS  PNB*       ELET6       010VISTA          000000000016100000000165000000001590000000000000000000160000115812000
0202LOTE PADRAO                   PETROBRAS   ON         PETR3       010VISTA          000000000045000000000452500000004350000000000000000000436000000033000
0202LOTE PADRAO                   COMGAS      PNA*       CGAS5       010VISTA          000000000055300000000575000000005500000000000000000000560000000854100
0202LOTE PADRAO                   SOUZA CRUZ  ON EJ      CRUZ3       010VISTA          000000000016100000000165000000001610000000000000000000165000000008500
0202LOTE PADRAO                   ELETROBRAS  ON *       ELET3       010VISTA          000000000015900000000166000000001560000000000000000000156000039298500
0202LOTE PADRAO                   CELESC      PNB        CLSC6       010VISTA          000000000000530000000005300000000050000000000000000000005200000242000
0202LOTE PADRAO                   BRADESCO    PN * EJ    BBDC4       010VISTA          000000000008600000000088000000000850000000000000000000086000445940000
0202LOTE PADRAO                   CESP        PN *       CESP4       010VISTA          000000000006200000000062500000000580000000000000000000058000010512700
0202LOTE PADRAO                   LIGHT       ON *       LIGH3       010VISTA          000000000058000000000580000000005300000000000000000000539000000808200
0202LOTE PADRAO                   TELESP CL PAPN *       TSPP4       010VISTA          000000000002900000000030000000000270000000000000000000027000799982000
0202LOTE PADRAO                   VALE R DOCE PNA        VALE5       010VISTA          000000000080000000000815000000007950000000000000000000815000000020300
0202LOTE PADRAO                   COPEL       PNB*       CPLE6       010VISTA          000000000007500000000081000000000750000000000000000000075000051436300
0202LOTE PADRAO                   VALE R DOCE ON         VALE3       010VISTA          000000000083500000000849000000008340000000000000000000847000000050500
0202LOTE PADRAO                   ARACRUZ     PNB        ARCZ6       010VISTA          000000000005300000000053000000000520000000000000000000052000000035100
0202LOTE PADRAO                   TELEMIG PARTPN *       TMCP4       010VISTA          000000000002600000000026000000000240000000000000000000025000140399000
0202LOTE PADRAO                   BRASIL TELECPN *       BRTO4       010VISTA          000000000011600000000116000000001100000000000000000000111000076478200
0202LOTE PADRAO                   SABESP      ON *       SBSP3       010VISTA          000000000082000000000829000000007640000000000000000000775000003767500
0202LOTE PADRAO                   BRASKEM     PNA*       BRKM5       010VISTA          000000000237900000002450000000021800000000000000000002190000000156500
0202LOTE PADRAO                   EMBRAER     PN EJ      EMBR4       010VISTA          000000000013100000000135000000001300000000000000000000132000000058500
0202LOTE PADRAO                   TELESP      PN * EJ    TLPP4       010VISTA          000000000030600000000318000000003010000000000000000000306000015421900
0202LOTE PADRAO                   EMBRAER     ON EJ      EMBR3       010VISTA          000000000012200000000125000000001190000000000000000000122000000007800
0202LOTE PADRAO                   AMBEV       PN *       AMBV4       010VISTA          000000000431000000004351000000042550000000000000000004266000002529300
0202LOTE PADRAO                   USIMINAS    PNA        USIM5       010VISTA          000000000004800000000048000000000440000000000000000000045000000098200
0202LOTE PADRAO                   ELETROPAULO PN *       ELPL4       010VISTA          000000000024900000000260000000002250000000000000000000236000005854700
0202LOTE PADRAO                   TELE NORD CLPN *       TNEP4       010VISTA          000000000002300000000024000000000210000000000000000000022000110414000
0202LOTE PADRAO                   CEMIG       PN * EJ    CMIG4       010VISTA          000000000022000000000230000000002170000000000000000000221000044133300
0202LOTE PADRAO                   TELE CL SUL PN * EJ    TCSL4       010VISTA          000000000002400000000024000000000220000000000000000000022000106152000
0202LOTE PADRAO                   TRACTEBEL   ON *       TBLE3       010VISTA          000000000003800000000039600000000380000000000000000000038000006613700
0202LOTE PADRAO                   CEMIG       ON * EJ    CMIG3       010VISTA          000000000020100000000212000000002010000000000000000000203000000815000
0202LOTE PADRAO                   TELE CL SUL ON * EJ    TCSL3       010VISTA          000000000002000000000020000000000180000000000000000000018000024450000
0202LOTE PADRAO                   ITAUSA      PN         ITSA4       010VISTA          000000000001560000000015000000000151000000000000000000015100000436500
0202LOTE PADRAO                   V C P       PN *       VCPA4       010VISTA          000000000106000000001064000000010540000000000000000001060000002277600
0202LOTE PADRAO                   SID TUBARAO PN *       CSTB4       010VISTA          000000000029600000000296000000002900000000000000000000295000013598600
0202LOTE PADRAO                   BRADESPAR   PN *       BRAP4       010VISTA          000000000000450000000004500000000044000000000000000000004400118395000
0202LOTE PADRAO                   NET         PN         PLIM4       010VISTA          000000000000260000000002700000000023000000000000000000002400000781800
0202LOTE PADRAO                   TELE CTR OESPN * EJ    TCOC4       010VISTA          000000000003000000000030000000000270000000000000000000028000120015000
0202LOTE PADRAO                   TELEMAR N L PNA* EJ    TMAR5       010VISTA          000000000042100000000422500000004050000000000000000000407000032565300
0202LOTE PADRAO                   GERDAU      PN * EJ    GGBR4       010VISTA          000000000028250000000288000000002780000000000000000000280000029053900
0202LOTE PADRAO                   BRASIL      ON *       BBAS3       010VISTA          000000000008500000000087000000000840000000000000000000084000032903900
