00BDIN9999BOVESPA 99992002091820020918
0101IBOVESPA                      0096260093990096380000000000000000002002091800000020020918009505000000
0202LOTE PADRAO                   EMBRATEL PARPN *       EBTP4       010VISTA          000000000002270000000022000000000220000000000000000000022000266007000
0202LOTE PADRAO                   TRAN PAULISTPN * EJ    TRPL4       010VISTA          000000000005100000000052000000000500000000000000000000051000021062700
0202LOTE PADRAO                   EMBRATEL PARON *       EBTP3       010VISTA          000000000002900000000030000000000280000000000000000000030000030488700
0202LOTE PADRAO                   TELEMAR     PN * EJ    TNLP4       010VISTA          000000000023800000000241000000002340000000000000000000236000252761000
0202LOTE PADRAO                   ITAUBANCO   PN * EJ    ITAU4       010VISTA          000000000127200000001306000000012610000000000000000001272000014759600
0202LOTE PADRAO                   TELEMAR     ON * EJ    TNLP3       010VISTA          000000000018100000000181000000001750000000000000000000178000010210500
0202LOTE PADRAO                   SID NACIONALON *       CSNA3       010VISTA          000000000036500000000365000000003480000000000000000000353000011165700
0202LOTE PADRAO                   TELE LEST CLPN *       TLCP4       010VISTA          000000000000400000000004100000000039000000000000000000004000097947900
0202LOTE PADRAO                   CRT CELULAR PNA* EJ    CRTP5       010VISTA          000000000353000000003560000000033600000000000000000003560000000130500
0202LOTE PADRAO                   IPIRANGA PETPN *       PTIP4       010VISTA          000000000009900000000103000000000970000000000000000000103000002020400
0202LOTE PADRAO                   BRASIL T PARPN *       BRTP4       010VISTA          000000000018000000000181000000001725000000000000000000174000062592100
0202LOTE PADRAO                   BRASIL T PARON *       BRTP3       010VISTA          000000000013000000000134000000001300000000000000000000133000003941200
0202LOTE PADRAO                   KLABIN S/A  PN         KLBN4       010VISTA          000000000000870000000009000000000087000000000000000000009000000019800
0202LOTE PADRAO                   ACESITA     PN *       ACES4       010VISTA          000000000000590000000006200000000059000000000000000000006200076386100
0202LOTE PADRAO                   PETROBRAS   PN         PETR4       010VISTA          000000000044800000000448000000004360000000000000000000445000000110500
0202LOTE PADRAO                   ELETROBRAS  PNB*       ELET6       010VISTA          000000000018800000000188000000001840000000000000000000187000071976900
0202LOTE PADRAO                   PETROBRAS   ON         PETR3       010VISTA          000000000050100000000501000000004870000000000000000000497000000037000
0202LOTE PADRAO                   COMGAS      PNA*       CGAS5       010VISTA          000000000058000000000580000000005600000000000000000000580000000268300
0202LOTE PADRAO                   SOUZA CRUZ  ON EJ      CRUZ3       010VISTA          000000000015100000000151000000001480000000000000000000149000000022400
0202LOTE PADRAO                   ELETROBRAS  ON *       ELET3       010VISTA          000000000019000000000191000000001860000000000000000000189000017796800
0202LOTE PADRAO                   CELESC      PNB        CLSC6       010VISTA          000000000000530000000005400000000052000000000000000000005300000285300
0202LOTE PADRAO                   BRADESCO    PN * EJ    BBDC4       010VISTA          000000000009250000000092000000000880000000000000000000089000374295000
0202LOTE PADRAO                   CESP        PN *       CESP4       010VISTA          000000000006500000000069000000000650000000000000000000069000018593700
0202LOTE PADRAO                   LIGHT       ON *       LIGH3       010VISTA          000000000058200000000594000000005710000000000000000000584000000133000
0202LOTE PADRAO                   TELESP CL PAPN *       TSPP4       010VISTA          000000000003400000000034000000000310000000000000000000031000813496000
0202LOTE PADRAO                   VALE R DOCE PNA        VALE5       010VISTA          000000000074500000000774000000007440000000000000000000774000000036000
0202LOTE PADRAO                   COPEL       PNB*       CPLE6       010VISTA          000000000009000000000090000000000880000000000000000000089000027653200
0202LOTE PADRAO                   VALE R DOCE ON         VALE3       010VISTA          000000000080900000000827000000008090000000000000000000825000000004800
0202LOTE PADRAO                   ARACRUZ     PNB        ARCZ6       010VISTA          000000000005200000000054000000000520000000000000000000054000000121400
0202LOTE PADRAO                   TELEMIG PARTPN *       TMCP4       010VISTA          000000000002600000000027900000000260000000000000000000027500076281100
0202LOTE PADRAO                   BRASIL TELECPN *       BRTO4       010VISTA          000000000011500000000115000000001100000000000000000000111000037791800
0202LOTE PADRAO                   SABESP      ON *       SBSP3       010VISTA          000000000085000000000850000000008300000000000000000000842000004624300
0202LOTE PADRAO                   BRASKEM     PNA*       BRKM5       010VISTA          000000000261300000002680000000025560000000000000000002556000000083600
0202LOTE PADRAO                   EMBRAER     PN EJ      EMBR4       010VISTA          000000000012900000000129000000001240000000000000000000125000000101700
0202LOTE PADRAO                   TELESP      PN * EJ    TLPP4       010VISTA          000000000033200000000332000000003140000000000000000000319000003575400
0202LOTE PADRAO                   EMBRAER     ON EJ      EMBR3       010VISTA          000000000011600000000118000000001150000000000000000000115000000006100
0202LOTE PADRAO                   AMBEV       PN *       AMBV4       010VISTA          000000000426900000004270000000041000000000000000000004173000001845200
0202LOTE PADRAO                   USIMINAS    PNA        USIM5       010VISTA          000000000005400000000055000000000520000000000000000000054000000044800
0202LOTE PADRAO                   ELETROPAULO PN *       ELPL4       010VISTA          000000000030000000000307000000002910000000000000000000307000001839700
0202LOTE PADRAO                   TELE NORD CLPN *       TNEP4       010VISTA          000000000002300000000024000000000230000000000000000000023000056182700
0202LOTE PADRAO                   CEMIG       PN * EJ    CMIG4       010VISTA          000000000023600000000243000000002280000000000000000000236000031957000
0202LOTE PADRAO                   TELE CL SUL PN * EJ    TCSL4       010VISTA          000000000002600000000026000000000254000000000000000000025000057027100
0202LOTE PADRAO                   TRACTEBEL   ON *       TBLE3       010VISTA          000000000003800000000039800000000380000000000000000000038000002212700
0202LOTE PADRAO                   CEMIG       ON * EJ    CMIG3       010VISTA          000000000022400000000228000000002160000000000000000000228000000265500
0202LOTE PADRAO                   TELE CL SUL ON * EJ    TCSL3       010VISTA          000000000002100000000021000000000200000000000000000000021000017376100
0202LOTE PADRAO                   ITAUSA      PN         ITSA4       010VISTA          000000000001600000000016000000000150000000000000000000015000000348500
0202LOTE PADRAO                   V C P       PN *       VCPA4       010VISTA          000000000098000000001019000000009800000000000000000001019000002165900
0202LOTE PADRAO                   SID TUBARAO PN *       CSTB4       010VISTA          000000000026000000000263000000002600000000000000000000261000026192100
0202LOTE PADRAO                   BRADESPAR   PN *       BRAP4       010VISTA          000000000000450000000004600000000044000000000000000000004600207348000
0202LOTE PADRAO                   NET         PN         PLIM4       010VISTA          000000000000380000000003900000000038000000000000000000003800000382200
0202LOTE PADRAO                   TELE CTR OESPN * EJ    TCOC4       010VISTA          000000000003300000000033000000000320000000000000000000033000113432000
0202LOTE PADRAO                   TELEMAR N L PNA* EJ    TMAR5       010VISTA          000000000041100000000419000000004110000000000000000000417000014947800
0202LOTE PADRAO                   GERDAU      PN * EJ    GGBR4       010VISTA          000000000031100000000316000000003060000000000000000000315000019300800
0202LOTE PADRAO                   BRASIL      ON *       BBAS3       010VISTA          000000000009400000000095000000000920000000000000000000094000027996100
