00BDIN9999BOVESPA 99992002122020021220
0101IBOVESPA                      0112750112620116060000000000000000002002122000000020021220011490000000
0202LOTE PADRAO                   EMBRATEL PARPN *       EBTP4       010VISTA          000000000003800000000041000000000380000000000000000000040000535300000
0202LOTE PADRAO                   TRAN PAULISTPN * EJ    TRPL4       010VISTA          000000000005750000000060000000000575000000000000000000060000025866000
0202LOTE PADRAO                   EMBRATEL PARON *       EBTP3       010VISTA          000000000004400000000045000000000430000000000000000000045000093586900
0202LOTE PADRAO                   TELEMAR     PN * EJ    TNLP4       010VISTA          000000000027800000000283000000002780000000000000000000281000427640000
0202LOTE PADRAO                   ITAUBANCO   PN * EJ    ITAU4       010VISTA          000000000170500000001735000000017000000000000000000001721000022962700
0202LOTE PADRAO                   TELEMAR     ON * EJ    TNLP3       010VISTA          000000000020600000000206000000002000000000000000000000203000015621200
0202LOTE PADRAO                   SID NACIONALON *       CSNA3       010VISTA          000000000050600000000513000000004960000000000000000000500000017464300
0202LOTE PADRAO                   TELE LEST CLPN *       TLCP4       010VISTA          000000000000440000000004600000000044000000000000000000004600247087000
0202LOTE PADRAO                   CRT CELULAR PNA* EJ    CRTP5       010VISTA          000000000320000000003239000000031100000000000000000003180000003506300
0202LOTE PADRAO                   IPIRANGA PETPN *       PTIP4       010VISTA          000000000007300000000077500000000730000000000000000000073000010202600
0202LOTE PADRAO                   BRASIL T PARPN *       BRTP4       010VISTA          000000000018600000000193000000001860000000000000000000192500104042000
0202LOTE PADRAO                   BRASIL T PARON *       BRTP3       010VISTA          000000000014900000000150000000001450000000000000000000145000008260800
0202LOTE PADRAO                   KLABIN S/A  PN         KLBN4       010VISTA          000000000001000000000010000000000100000000000000000000010000000020700
0202LOTE PADRAO                   ACESITA     PN *       ACES4       010VISTA          000000000000960000000009700000000093000000000000000000009400304080000
0202LOTE PADRAO                   PETROBRAS   PN         PETR4       010VISTA          000000000047800000000497000000004780000000000000000000487000000298000
0202LOTE PADRAO                   ELETROBRAS  PNB*       ELET6       010VISTA          000000000024000000000255000000002400000000000000000000243000104020000
0202LOTE PADRAO                   PETROBRAS   ON         PETR3       010VISTA          000000000052800000000557000000005280000000000000000000552000000044900
0202LOTE PADRAO                   COMGAS      PNA*       CGAS5       010VISTA          000000000054100000000562000000005400000000000000000000551000003381500
0202LOTE PADRAO                   SOUZA CRUZ  ON EJ      CRUZ3       010VISTA          000000000018100000000181000000001790000000000000000000179000000011800
0202LOTE PADRAO                   ELETROBRAS  ON *       ELET3       010VISTA          000000000024800000000265000000002460000000000000000000246000018769200
0202LOTE PADRAO                   CELESC      PNB        CLSC6       010VISTA          000000000000520000000005500000000052000000000000000000005300000597000
0202LOTE PADRAO                   BRADESCO    PN * EJ    BBDC4       010VISTA          000000000010800000000112000000001080000000000000000000109000469398000
0202LOTE PADRAO                   CESP        PN *       CESP4       010VISTA          000000000007200000000077000000000720000000000000000000074000019088400
0202LOTE PADRAO                   LIGHT       ON *       LIGH3       010VISTA          000000000047900000000486000000004660000000000000000000475000001305600
0202LOTE PADRAO                   TELESP CL PAPN *       TSPP4       010VISTA          000000000004500000000047000000000430000000000000000000043000694343000
0202LOTE PADRAO                   VALE R DOCE PNA        VALE5       010VISTA          000000000098900000000989000000009300000000000000000000947000000021200
0202LOTE PADRAO                   COPEL       PNB*       CPLE6       010VISTA          000000000009300000000105000000000930000000000000000000104000296556000
0202LOTE PADRAO                   VALE R DOCE ON         VALE3       010VISTA          000000000100000000001000000000009810000000000000000000995000000005900
0202LOTE PADRAO                   ARACRUZ     PNB        ARCZ6       010VISTA          000000000006500000000065000000000620000000000000000000064000000078700
0202LOTE PADRAO                   TELEMIG PARTPN *       TMCP4       010VISTA          000000000003000000000031000000000290000000000000000000030000194771000
0202LOTE PADRAO                   BRASIL TELECPN *       BRTO4       010VISTA          000000000011900000000120000000001180000000000000000000120000104112000
0202LOTE PADRAO                   SABESP      ON *       SBSP3       010VISTA          000000000086600000000899000000008660000000000000000000882000007852800
0202LOTE PADRAO                   BRASKEM     PNA*       BRKM5       010VISTA          000000000223000000002448000000022300000000000000000002370000000557100
0202LOTE PADRAO                   EMBRAER     PN EJ      EMBR4       010VISTA          000000000013800000000138000000001360000000000000000000137000000058200
0202LOTE PADRAO                   TELESP      PN * EJ    TLPP4       010VISTA          000000000036000000000364000000003500000000000000000000352000019712400
0202LOTE PADRAO                   EMBRAER     ON EJ      EMBR3       010VISTA          000000000012500000000125000000001230000000000000000000123000000009400
0202LOTE PADRAO                   AMBEV       PN *       AMBV4       010VISTA          000000000533000000005390000000052600000000000000000005371000003169100
0202LOTE PADRAO                   USIMINAS    PNA        USIM5       010VISTA          000000000006100000000063000000000610000000000000000000062000000121600
0202LOTE PADRAO                   ELETROPAULO PN *       ELPL4       010VISTA          000000000026100000000278000000002610000000000000000000264000013880100
0202LOTE PADRAO                   TELE NORD CLPN *       TNEP4       010VISTA          000000000002790000000028000000000270000000000000000000027300098141200
0202LOTE PADRAO                   CEMIG       PN * EJ    CMIG4       010VISTA          000000000026100000000275000000002610000000000000000000275000079253900
0202LOTE PADRAO                   TELE CL SUL PN * EJ    TCSL4       010VISTA          000000000002700000000027000000000270000000000000000000027000118161000
0202LOTE PADRAO                   TRACTEBEL   ON *       TBLE3       010VISTA          000000000003690000000036900000000350000000000000000000035000012720500
0202LOTE PADRAO                   CEMIG       ON * EJ    CMIG3       010VISTA          000000000024400000000249000000002350000000000000000000235000001323700
0202LOTE PADRAO                   TELE CL SUL ON * EJ    TCSL3       010VISTA          000000000001980000000020000000000196000000000000000000019900027121000
0202LOTE PADRAO                   ITAUSA      PN         ITSA4       010VISTA          000000000001800000000019000000000180000000000000000000019000000546800
0202LOTE PADRAO                   V C P       PN *       VCPA4       010VISTA          000000000121000000001210000000011600000000000000000001180000001947500
0202LOTE PADRAO                   SID TUBARAO PN *       CSTB4       010VISTA          000000000039000000000390000000003575000000000000000000367000007406900
0202LOTE PADRAO                   BRADESPAR   PN *       BRAP4       010VISTA          000000000000580000000005900000000057000000000000000000005800366894000
0202LOTE PADRAO                   NET         PN         PLIM4       010VISTA          000000000000420000000004300000000041000000000000000000004200000971700
0202LOTE PADRAO                   TELE CTR OESPN * EJ    TCOC4       010VISTA          000000000004800000000048000000000460000000000000000000047900112119000
0202LOTE PADRAO                   TELEMAR N L PNA* EJ    TMAR5       010VISTA          000000000046200000000463000000004460000000000000000000450000040935100
0202LOTE PADRAO                   GERDAU      PN * EJ    GGBR4       010VISTA          000000000034200000000342000000003330000000000000000000335000027513200
0202LOTE PADRAO                   BRASIL      ON *       BBAS3       010VISTA          000000000009900000000102000000000990000000000000000000100000065863600
