00BDIN9999BOVESPA 99992002032120020321
0101IBOVESPA                      0140860136620140860000000000000000002002032100000020020321013717000000
0202LOTE PADRAO                   EMBRATEL PARPN *       EBTP4       010VISTA          000000000008500000000086000000000820000000000000000000082000157075000
0202LOTE PADRAO                   TRAN PAULISTPN * EJ    TRPL4       010VISTA          000000000007710000000077000000000760000000000000000000077000011293300
0202LOTE PADRAO                   EMBRATEL PARON *       EBTP3       010VISTA          000000000010500000000105000000001010000000000000000000104000017208400
0202LOTE PADRAO                   TELEMAR     PN * EJ    TNLP4       010VISTA          000000000032100000000322000000003110000000000000000000314000330131000
0202LOTE PADRAO                   ITAUBANCO   PN * EJ    ITAU4       010VISTA          000000000192500000001925000000018500000000000000000001850000012086900
0202LOTE PADRAO                   TELEMAR     ON * EJ    TNLP3       010VISTA          000000000028600000000290000000002800000000000000000000281000020972100
0202LOTE PADRAO                   SID NACIONALON *       CSNA3       010VISTA          000000000047200000000472000000004500000000000000000000460000010983300
0202LOTE PADRAO                   TELE LEST CLPN *       TLCP4       010VISTA          000000000000890000000009000000000087000000000000000000009000081285800
0202LOTE PADRAO                   CRT CELULAR PNA* EJ    CRTP5       010VISTA          000000000470000000004700000000046500000000000000000004681000000249900
0202LOTE PADRAO                   IPIRANGA PETPN *       PTIP4       010VISTA          000000000013700000000140000000001370000000000000000000139000003250000
0202LOTE PADRAO                   BRASIL T PARPN *       BRTP4       010VISTA          000000000019000000000195000000001900000000000000000000191000039735500
0202LOTE PADRAO                   BRASIL T PARON *       BRTP3       010VISTA          000000000019100000000194000000001880000000000000000000190000014134600
0202LOTE PADRAO                   KLABIN S/A  PN         KLBN4       010VISTA          000000000001250000000012500000000120000000000000000000012400000020800
0202LOTE PADRAO                   ACESITA     PN *       ACES4       010VISTA          000000000000830000000008300000000081000000000000000000008200158569000
0202LOTE PADRAO                   PETROBRAS   PN         PETR4       010VISTA          000000000059000000000597000000005860000000000000000000587000000086400
0202LOTE PADRAO                   ELETROBRAS  PNB*       ELET6       010VISTA          000000000037600000000376000000003660000000000000000000367000028881500
0202LOTE PADRAO                   PETROBRAS   ON         PETR3       010VISTA          000000000062000000000622000000006120000000000000000000613000000031400
0202LOTE PADRAO                   COMGAS      PNA*       CGAS5       010VISTA          000000000088000000000880000000008610000000000000000000874000000609000
0202LOTE PADRAO                   SOUZA CRUZ  ON EJ      CRUZ3       010VISTA          000000000014500000000150000000001450000000000000000000148000000020400
0202LOTE PADRAO                   ELETROBRAS  ON *       ELET3       010VISTA          000000000041700000000418000000004060000000000000000000408000015400000
0202LOTE PADRAO                   CELESC      PNB        CLSC6       010VISTA          000000000000580000000005900000000057000000000000000000005800000144600
0202LOTE PADRAO                   BRADESCO    PN * EJ    BBDC4       010VISTA          000000000014500000000145000000001430000000000000000000145000128642000
0202LOTE PADRAO                   CESP        PN *       CESP4       010VISTA          000000000016800000000170000000001650000000000000000000165000005240000
0202LOTE PADRAO                   LIGHT       ON *       LIGH3       010VISTA          000000000123800000001238000000011850000000000000000001190000000619900
0202LOTE PADRAO                   TELESP CL PAPN *       TSPP4       010VISTA          000000000005900000000060000000000590000000000000000000059000174466000
0202LOTE PADRAO                   VALE R DOCE PNA        VALE5       010VISTA          000000000060000000000620000000006000000000000000000000613000000089100
0202LOTE PADRAO                   COPEL       PNB*       CPLE6       010VISTA          000000000017750000000177500000001700000000000000000000173000063619200
0202LOTE PADRAO                   VALE R DOCE ON         VALE3       010VISTA          000000000059000000000630000000005900000000000000000000629000000168700
0202LOTE PADRAO                   ARACRUZ     PNB        ARCZ6       010VISTA          000000000004500000000045000000000440000000000000000000045000000029900
0202LOTE PADRAO                   TELEMIG PARTPN *       TMCP4       010VISTA          000000000003500000000035000000000330000000000000000000034000059704200
0202LOTE PADRAO                   BRASIL TELECPN *       BRTO4       010VISTA          000000000013600000000138000000001340000000000000000000136000048732300
0202LOTE PADRAO                   SABESP      ON *       SBSP3       010VISTA          000000000136000000001376000000013450000000000000000001345000001231800
0202LOTE PADRAO                   BRASKEM     PNA*       BRKM5       010VISTA          000000000571000000005850000000056600000000000000000005690000000095800
0202LOTE PADRAO                   EMBRAER     PN EJ      EMBR4       010VISTA          000000000013100000000131000000001260000000000000000000126000000059800
0202LOTE PADRAO                   TELESP      PN * EJ    TLPP4       010VISTA          000000000035200000000356000000003480000000000000000000350000015056100
0202LOTE PADRAO                   EMBRAER     ON EJ      EMBR3       010VISTA          000000000012200000000123000000001190000000000000000000120000000011500
0202LOTE PADRAO                   AMBEV       PN *       AMBV4       010VISTA          000000000463000000004630000000045500000000000000000004600000001377900
0202LOTE PADRAO                   USIMINAS    PNA        USIM5       010VISTA          000000000007900000000079000000000750000000000000000000076000000042700
0202LOTE PADRAO                   ELETROPAULO PN *       ELPL4       010VISTA          000000000073400000000740000000007100000000000000000000730000001868700
0202LOTE PADRAO                   TELE NORD CLPN *       TNEP4       010VISTA          000000000003100000000031000000000300000000000000000000030000107844000
0202LOTE PADRAO                   CEMIG       PN * EJ    CMIG4       010VISTA          000000000036600000000367000000003470000000000000000000357000066916000
0202LOTE PADRAO                   TELE CL SUL PN * EJ    TCSL4       010VISTA          000000000003500000000035000000000325000000000000000000032700080142600
0202LOTE PADRAO                   TRACTEBEL   ON *       TBLE3       010VISTA          000000000004100000000042000000000400000000000000000000042000005870000
0202LOTE PADRAO                   CEMIG       ON * EJ    CMIG3       010VISTA          000000000032100000000325000000003150000000000000000000320000000703500
0202LOTE PADRAO                   TELE CL SUL ON * EJ    TCSL3       010VISTA          000000000003000000000030000000000280000000000000000000028000013670500
0202LOTE PADRAO                   ITAUSA      PN         ITSA4       010VISTA          000000000002300000000023000000000230000000000000000000023000000203400
0202LOTE PADRAO                   V C P       PN *       VCPA4       010VISTA          000000000087000000000907000000008700000000000000000000905000001265300
0202LOTE PADRAO                   SID TUBARAO PN *       CSTB4       010VISTA          000000000025100000000251000000002410000000000000000000241000003760600
0202LOTE PADRAO                   BRADESPAR   PN *       BRAP4       010VISTA          000000000000800000000008100000000077000000000000000000007700185094000
0202LOTE PADRAO                   NET         PN         PLIM4       010VISTA          000000000000510000000005100000000049000000000000000000005100002602700
0202LOTE PADRAO                   TELE CTR OESPN * EJ    TCOC4       010VISTA          000000000004800000000048000000000470000000000000000000047900085285000
0202LOTE PADRAO                   TELEMAR N L PNA* EJ    TMAR5       010VISTA          000000000056400000000564000000005400000000000000000000545000035540500
0202LOTE PADRAO                   GERDAU      PN * EJ    GGBR4       010VISTA          000000000029000000000295000000002860000000000000000000290000027839100
0202LOTE PADRAO                   BRASIL      ON *       BBAS3       010VISTA          000000000012000000000123000000001180000000000000000000119000029965000
