00BDIN9999BOVESPA 99992002062120020621
0101IBOVESPA                      0109170102980110100000000000000000002002062100000020020621010398000000
0202LOTE PADRAO                   EMBRATEL PARPN *       EBTP4       010VISTA          000000000003400000000034000000000290000000000000000000029000251924000
0202LOTE PADRAO                   TRAN PAULISTPN * EJ    TRPL4       010VISTA          000000000005900000000060000000000560000000000000000000056000016172000
0202LOTE PADRAO                   EMBRATEL PARON *       EBTP3       010VISTA          000000000004700000000047000000000400000000000000000000040000030292800
0202LOTE PADRAO                   TELEMAR     PN * EJ    TNLP4       010VISTA          000000000027600000000276000000002530000000000000000000256000229805000
0202LOTE PADRAO                   ITAUBANCO   PN * EJ    ITAU4       010VISTA          000000000151000000001510000000014380000000000000000001460000039327200
0202LOTE PADRAO                   TELEMAR     ON * EJ    TNLP3       010VISTA          000000000022800000000228000000002090000000000000000000216000033142000
0202LOTE PADRAO                   SID NACIONALON *       CSNA3       010VISTA          000000000041700000000422000000003710000000000000000000385000017455500
0202LOTE PADRAO                   TELE LEST CLPN *       TLCP4       010VISTA          000000000000620000000006400000000057000000000000000000006000090589300
0202LOTE PADRAO                   CRT CELULAR PNA* EJ    CRTP5       010VISTA          000000000373000000003790000000036000000000000000000003700000001304100
0202LOTE PADRAO                   IPIRANGA PETPN *       PTIP4       010VISTA          000000000012500000000130000000001200000000000000000000120000000691200
0202LOTE PADRAO                   BRASIL T PARPN *       BRTP4       010VISTA          000000000014500000000145000000001380000000000000000000139000059879000
0202LOTE PADRAO                   BRASIL T PARON *       BRTP3       010VISTA          000000000012500000000131000000001250000000000000000000129000013662900
0202LOTE PADRAO                   KLABIN S/A  PN         KLBN4       010VISTA          000000000000960000000009900000000089000000000000000000009000000033700
0202LOTE PADRAO                   ACESITA     PN *       ACES4       010VISTA          000000000000640000000006400000000060000000000000000000006300119219000
0202LOTE PADRAO                   PETROBRAS   PN         PETR4       010VISTA          000000000046000000000464000000004070000000000000000000422000000248100
0202LOTE PADRAO                   ELETROBRAS  PNB*       ELET6       010VISTA          000000000024600000000248000000002310000000000000000000231000056024800
0202LOTE PADRAO                   PETROBRAS   ON         PETR3       010VISTA          000000000052000000000520000000004480000000000000000000462500000088400
0202LOTE PADRAO                   COMGAS      PNA*       CGAS5       010VISTA          000000000060000000000605000000005600000000000000000000571000000875700
0202LOTE PADRAO                   SOUZA CRUZ  ON EJ      CRUZ3       010VISTA          000000000013900000000140000000001300000000000000000000134000000045100
0202LOTE PADRAO                   ELETROBRAS  ON *       ELET3       010VISTA          000000000028100000000281000000002660000000000000000000266000014947000
0202LOTE PADRAO                   CELESC      PNB        CLSC6       010VISTA          000000000000560000000005700000000052000000000000000000005600000786600
0202LOTE PADRAO                   BRADESCO    PN * EJ    BBDC4       010VISTA          000000000011000000000111000000001050000000000000000000106000716274000
0202LOTE PADRAO                   CESP        PN *       CESP4       010VISTA          000000000009100000000091000000000840000000000000000000084000007488200
0202LOTE PADRAO                   LIGHT       ON *       LIGH3       010VISTA          000000000089000000000900000000008700000000000000000000889000000445400
0202LOTE PADRAO                   TELESP CL PAPN *       TSPP4       010VISTA          000000000004500000000045000000000430000000000000000000043000175633000
0202LOTE PADRAO                   VALE R DOCE PNA        VALE5       010VISTA          000000000069200000000697500000006800000000000000000000690000000045700
0202LOTE PADRAO                   COPEL       PNB*       CPLE6       010VISTA          000000000012300000000124000000001110000000000000000000114000062166400
0202LOTE PADRAO                   VALE R DOCE ON         VALE3       010VISTA          000000000075400000000761000000007420000000000000000000745000000010600
0202LOTE PADRAO                   ARACRUZ     PNB        ARCZ6       010VISTA          000000000005000000000053000000000490000000000000000000053000000141100
0202LOTE PADRAO                   TELEMIG PARTPN *       TMCP4       010VISTA          000000000002730000000027000000000260000000000000000000026000162466000
0202LOTE PADRAO                   BRASIL TELECPN *       BRTO4       010VISTA          000000000010400000000105000000000980000000000000000000100000079224600
0202LOTE PADRAO                   SABESP      ON *       SBSP3       010VISTA          000000000102000000001030000000009400000000000000000000965000005916500
0202LOTE PADRAO                   BRASKEM     PNA*       BRKM5       010VISTA          000000000390000000004000000000037500000000000000000003750000000075100
0202LOTE PADRAO                   EMBRAER     PN EJ      EMBR4       010VISTA          000000000015000000000150000000001380000000000000000000138000000099000
0202LOTE PADRAO                   TELESP      PN * EJ    TLPP4       010VISTA          000000000032700000000327000000003030000000000000000000320000020571600
0202LOTE PADRAO                   EMBRAER     ON EJ      EMBR3       010VISTA          000000000013000000000130000000001260000000000000000000126000000023800
0202LOTE PADRAO                   AMBEV       PN *       AMBV4       010VISTA          000000000400000000004060000000039000000000000000000004030000005324400
0202LOTE PADRAO                   USIMINAS    PNA        USIM5       010VISTA          000000000007000000000070000000000600000000000000000000060000000047700
0202LOTE PADRAO                   ELETROPAULO PN *       ELPL4       010VISTA          000000000042000000000420000000003570000000000000000000365000011724100
0202LOTE PADRAO                   TELE NORD CLPN *       TNEP4       010VISTA          000000000002300000000024000000000220000000000000000000023000075387900
0202LOTE PADRAO                   CEMIG       PN * EJ    CMIG4       010VISTA          000000000032000000000320000000002810000000000000000000305000078551000
0202LOTE PADRAO                   TELE CL SUL PN * EJ    TCSL4       010VISTA          000000000002800000000028000000000260000000000000000000026000047101000
0202LOTE PADRAO                   TRACTEBEL   ON *       TBLE3       010VISTA          000000000003800000000038000000000375000000000000000000037000045870000
0202LOTE PADRAO                   CEMIG       ON * EJ    CMIG3       010VISTA          000000000028500000000285000000002710000000000000000000271000008169300
0202LOTE PADRAO                   TELE CL SUL ON * EJ    TCSL3       010VISTA          000000000002300000000023000000000210000000000000000000022000027303500
0202LOTE PADRAO                   ITAUSA      PN         ITSA4       010VISTA          000000000001800000000018000000000160000000000000000000017100000622000
0202LOTE PADRAO                   V C P       PN *       VCPA4       010VISTA          000000000091700000000940000000009000000000000000000000937000002379500
0202LOTE PADRAO                   SID TUBARAO PN *       CSTB4       010VISTA          000000000026300000000275000000002390000000000000000000256000007289600
0202LOTE PADRAO                   BRADESPAR   PN *       BRAP4       010VISTA          000000000000540000000005600000000054000000000000000000005500093587600
0202LOTE PADRAO                   NET         PN         PLIM4       010VISTA          000000000002100000000021000000000180000000000000000000021000000207700
0202LOTE PADRAO                   TELE CTR OESPN * EJ    TCOC4       010VISTA          000000000003750000000037500000000330000000000000000000036000075446300
0202LOTE PADRAO                   TELEMAR N L PNA* EJ    TMAR5       010VISTA          000000000046000000000460000000004220000000000000000000439000037977000
0202LOTE PADRAO                   GERDAU      PN * EJ    GGBR4       010VISTA          000000000029000000000290000000002710000000000000000000273000035263000
0202LOTE PADRAO                   BRASIL      ON *       BBAS3       010VISTA          000000000009100000000094000000000870000000000000000000087000007779000
