00BDIN9999BOVESPA 99992002073020020730
0101IBOVESPA                      0092470091880096130000000000000000002002073000000020020730009342000000
0202LOTE PADRAO                   EMBRATEL PARPN *       EBTP4       010VISTA          000000000001540000000016000000000153000000000000000000016000414785000
0202LOTE PADRAO                   TRAN PAULISTPN * EJ    TRPL4       010VISTA          000000000005200000000055000000000510000000000000000000052000017201300
0202LOTE PADRAO                   EMBRATEL PARON *       EBTP3       010VISTA          000000000002600000000029800000000260000000000000000000026000036962800
0202LOTE PADRAO                   TELEMAR     PN * EJ    TNLP4       010VISTA          000000000021900000000230000000002160000000000000000000223000358490000
0202LOTE PADRAO                   ITAUBANCO   PN * EJ    ITAU4       010VISTA          000000000124000000001240000000011000000000000000000001170000059281800
0202LOTE PADRAO                   TELEMAR     ON * EJ    TNLP3       010VISTA          000000000017800000000183000000001750000000000000000000175000026157600
0202LOTE PADRAO                   SID NACIONALON *       CSNA3       010VISTA          000000000042500000000429000000003850000000000000000000390000025202500
0202LOTE PADRAO                   TELE LEST CLPN *       TLCP4       010VISTA          000000000000400000000004200000000038000000000000000000004100329769000
0202LOTE PADRAO                   CRT CELULAR PNA* EJ    CRTP5       010VISTA          000000000378000000004000000000037800000000000000000003900000000362300
0202LOTE PADRAO                   IPIRANGA PETPN *       PTIP4       010VISTA          000000000011000000000110000000001050000000000000000000105000008287700
0202LOTE PADRAO                   BRASIL T PARPN *       BRTP4       010VISTA          000000000014000000000149000000001400000000000000000000144000100016000
0202LOTE PADRAO                   BRASIL T PARON *       BRTP3       010VISTA          000000000012500000000138000000001200000000000000000000120000017721000
0202LOTE PADRAO                   KLABIN S/A  PN         KLBN4       010VISTA          000000000000800000000008500000000078000000000000000000008300000063100
0202LOTE PADRAO                   ACESITA     PN *       ACES4       010VISTA          000000000000600000000006200000000060000000000000000000006100153643000
0202LOTE PADRAO                   PETROBRAS   PN         PETR4       010VISTA          000000000038700000000398000000003790000000000000000000391000000231400
0202LOTE PADRAO                   ELETROBRAS  PNB*       ELET6       010VISTA          000000000020000000000203000000001950000000000000000000198000109642000
0202LOTE PADRAO                   PETROBRAS   ON         PETR3       010VISTA          000000000040900000000422000000004050000000000000000000421000000092000
0202LOTE PADRAO                   COMGAS      PNA*       CGAS5       010VISTA          000000000051000000000510000000004800000000000000000000506000001203800
0202LOTE PADRAO                   SOUZA CRUZ  ON EJ      CRUZ3       010VISTA          000000000014000000000140000000001310000000000000000000131000000035800
0202LOTE PADRAO                   ELETROBRAS  ON *       ELET3       010VISTA          000000000020100000000208000000001990000000000000000000208000035695100
0202LOTE PADRAO                   CELESC      PNB        CLSC6       010VISTA          000000000000540000000005500000000053000000000000000000005400000239700
0202LOTE PADRAO                   BRADESCO    PN * EJ    BBDC4       010VISTA          000000000008800000000089000000000780000000000000000000085001207580000
0202LOTE PADRAO                   CESP        PN *       CESP4       010VISTA          000000000007250000000077000000000720000000000000000000072000013094900
0202LOTE PADRAO                   LIGHT       ON *       LIGH3       010VISTA          000000000078000000000830000000007800000000000000000000820000000407600
0202LOTE PADRAO                   TELESP CL PAPN *       TSPP4       010VISTA          000000000003400000000035000000000330000000000000000000033000386629000
0202LOTE PADRAO                   VALE R DOCE PNA        VALE5       010VISTA          000000000068200000000709000000006600000000000000000000709000000074800
0202LOTE PADRAO                   COPEL       PNB*       CPLE6       010VISTA          000000000009800000000101000000000960000000000000000000098000097000000
0202LOTE PADRAO                   VALE R DOCE ON         VALE3       010VISTA          000000000072500000000780000000007250000000000000000000775000000039600
0202LOTE PADRAO                   ARACRUZ     PNB        ARCZ6       010VISTA          000000000005700000000060000000000575000000000000000000057000000050000
0202LOTE PADRAO                   TELEMIG PARTPN *       TMCP4       010VISTA          000000000002900000000031000000000290000000000000000000029800134016000
0202LOTE PADRAO                   BRASIL TELECPN *       BRTO4       010VISTA          000000000009750000000101000000000950000000000000000000098000132352000
0202LOTE PADRAO                   SABESP      ON *       SBSP3       010VISTA          000000000086000000000879000000007800000000000000000000792500005120300
0202LOTE PADRAO                   BRASKEM     PNA*       BRKM5       010VISTA          000000000365000000003798000000035000000000000000000003500000000264900
0202LOTE PADRAO                   EMBRAER     PN EJ      EMBR4       010VISTA          000000000014500000000150000000001440000000000000000000145000000084400
0202LOTE PADRAO                   TELESP      PN * EJ    TLPP4       010VISTA          000000000032000000000325000000003060000000000000000000311000009342500
0202LOTE PADRAO                   EMBRAER     ON EJ      EMBR3       010VISTA          000000000013600000000140000000001325000000000000000000135000000023400
0202LOTE PADRAO                   AMBEV       PN *       AMBV4       010VISTA          000000000404000000004040000000038100000000000000000003910000004724100
0202LOTE PADRAO                   USIMINAS    PNA        USIM5       010VISTA          000000000005500000000055000000000500000000000000000000050000000078500
0202LOTE PADRAO                   ELETROPAULO PN *       ELPL4       010VISTA          000000000028300000000306000000002750000000000000000000275000004217300
0202LOTE PADRAO                   TELE NORD CLPN *       TNEP4       010VISTA          000000000002500000000028000000000250000000000000000000026000162135000
0202LOTE PADRAO                   CEMIG       PN * EJ    CMIG4       010VISTA          000000000025000000000259000000002450000000000000000000259000071154500
0202LOTE PADRAO                   TELE CL SUL PN * EJ    TCSL4       010VISTA          000000000002900000000031000000000290000000000000000000029400109327000
0202LOTE PADRAO                   TRACTEBEL   ON *       TBLE3       010VISTA          000000000004250000000045000000000410000000000000000000041000012281600
0202LOTE PADRAO                   CEMIG       ON * EJ    CMIG3       010VISTA          000000000025000000000255000000002400000000000000000000246000003560900
0202LOTE PADRAO                   TELE CL SUL ON * EJ    TCSL3       010VISTA          000000000002400000000026000000000240000000000000000000025000025470400
0202LOTE PADRAO                   ITAUSA      PN         ITSA4       010VISTA          000000000001500000000015000000000140000000000000000000015000001311500
0202LOTE PADRAO                   V C P       PN *       VCPA4       010VISTA          000000000096500000001049000000009650000000000000000000980000001986000
0202LOTE PADRAO                   SID TUBARAO PN *       CSTB4       010VISTA          000000000027000000000280000000002700000000000000000000270000025285800
0202LOTE PADRAO                   BRADESPAR   PN *       BRAP4       010VISTA          000000000000480000000005000000000048000000000000000000004800291563000
0202LOTE PADRAO                   NET         PN         PLIM4       010VISTA          000000000000900000000009200000000084000000000000000000008900000273000
0202LOTE PADRAO                   TELE CTR OESPN * EJ    TCOC4       010VISTA          000000000003700000000039000000000371000000000000000000037000106509000
0202LOTE PADRAO                   TELEMAR N L PNA* EJ    TMAR5       010VISTA          000000000038000000000405000000003800000000000000000000380000022691500
0202LOTE PADRAO                   GERDAU      PN * EJ    GGBR4       010VISTA          000000000027400000000284000000002690000000000000000000280000032333000
0202LOTE PADRAO                   BRASIL      ON *       BBAS3       010VISTA          000000000009000000000096000000000840000000000000000000086000006635200
