00BDIN9999BOVESPA 99992002062520020625
0101IBOVESPA                      0107730105970109730000000000000000002002062500000020020625010706000000
0202LOTE PADRAO                   EMBRATEL PARPN *       EBTP4       010VISTA          000000000003250000000032000000000280000000000000000000028000295350000
0202LOTE PADRAO                   TRAN PAULISTPN * EJ    TRPL4       010VISTA          000000000005700000000059000000000560000000000000000000058000026139000
0202LOTE PADRAO                   EMBRATEL PARON *       EBTP3       010VISTA          000000000004250000000042000000000360000000000000000000037000082082900
0202LOTE PADRAO                   TELEMAR     PN * EJ    TNLP4       010VISTA          000000000027100000000278000000002630000000000000000000270000330667000
0202LOTE PADRAO                   ITAUBANCO   PN * EJ    ITAU4       010VISTA          000000000153000000001580000000015150000000000000000001575000038903800
0202LOTE PADRAO                   TELEMAR     ON * EJ    TNLP3       010VISTA          000000000022800000000230000000002130000000000000000000226000016319400
0202LOTE PADRAO                   SID NACIONALON *       CSNA3       010VISTA          000000000039800000000405000000003825000000000000000000405000012034300
0202LOTE PADRAO                   TELE LEST CLPN *       TLCP4       010VISTA          000000000000630000000006400000000058000000000000000000005900235890000
0202LOTE PADRAO                   CRT CELULAR PNA* EJ    CRTP5       010VISTA          000000000370000000003850000000036900000000000000000003690000000599000
0202LOTE PADRAO                   IPIRANGA PETPN *       PTIP4       010VISTA          000000000011900000000120000000001130000000000000000000117000002602200
0202LOTE PADRAO                   BRASIL T PARPN *       BRTP4       010VISTA          000000000014600000000153000000001460000000000000000000147500055799700
0202LOTE PADRAO                   BRASIL T PARON *       BRTP3       010VISTA          000000000013500000000140000000001310000000000000000000139000008139700
0202LOTE PADRAO                   KLABIN S/A  PN         KLBN4       010VISTA          000000000000940000000009600000000090000000000000000000009000000020300
0202LOTE PADRAO                   ACESITA     PN *       ACES4       010VISTA          000000000000630000000006300000000059000000000000000000006000197007000
0202LOTE PADRAO                   PETROBRAS   PN         PETR4       010VISTA          000000000044400000000462000000004410000000000000000000457000000178800
0202LOTE PADRAO                   ELETROBRAS  PNB*       ELET6       010VISTA          000000000023800000000243000000002300000000000000000000236000076978300
0202LOTE PADRAO                   PETROBRAS   ON         PETR3       010VISTA          000000000048500000000520000000004850000000000000000000520000000061200
0202LOTE PADRAO                   COMGAS      PNA*       CGAS5       010VISTA          000000000059200000000600000000005420000000000000000000570000000785400
0202LOTE PADRAO                   SOUZA CRUZ  ON EJ      CRUZ3       010VISTA          000000000013400000000135000000001300000000000000000000132500000023800
0202LOTE PADRAO                   ELETROBRAS  ON *       ELET3       010VISTA          000000000025800000000270000000002560000000000000000000261000041150700
0202LOTE PADRAO                   CELESC      PNB        CLSC6       010VISTA          000000000000570000000005900000000056000000000000000000005900000511000
0202LOTE PADRAO                   BRADESCO    PN * EJ    BBDC4       010VISTA          000000000011000000000113000000001080000000000000000000109000212132000
0202LOTE PADRAO                   CESP        PN *       CESP4       010VISTA          000000000009000000000091000000000850000000000000000000085000008983300
0202LOTE PADRAO                   LIGHT       ON *       LIGH3       010VISTA          000000000087100000000871000000008020000000000000000000840000000458200
0202LOTE PADRAO                   TELESP CL PAPN *       TSPP4       010VISTA          000000000004500000000045000000000420000000000000000000042000281554000
0202LOTE PADRAO                   VALE R DOCE PNA        VALE5       010VISTA          000000000065900000000670000000006590000000000000000000665000000053700
0202LOTE PADRAO                   COPEL       PNB*       CPLE6       010VISTA          000000000011900000000120000000001120000000000000000000113000045003100
0202LOTE PADRAO                   VALE R DOCE ON         VALE3       010VISTA          000000000071000000000734000000007100000000000000000000729000000037900
0202LOTE PADRAO                   ARACRUZ     PNB        ARCZ6       010VISTA          000000000005100000000058000000000510000000000000000000057500000092100
0202LOTE PADRAO                   TELEMIG PARTPN *       TMCP4       010VISTA          000000000002800000000028000000000260000000000000000000026900183714000
0202LOTE PADRAO                   BRASIL TELECPN *       BRTO4       010VISTA          000000000010300000000106000000001010000000000000000000104000097786500
0202LOTE PADRAO                   SABESP      ON *       SBSP3       010VISTA          000000000099000000001010000000009740000000000000000000980000001666900
0202LOTE PADRAO                   BRASKEM     PNA*       BRKM5       010VISTA          000000000380100000003900000000036600000000000000000003815000000066600
0202LOTE PADRAO                   EMBRAER     PN EJ      EMBR4       010VISTA          000000000013500000000139000000001310000000000000000000134000000068400
0202LOTE PADRAO                   TELESP      PN * EJ    TLPP4       010VISTA          000000000032600000000334000000003160000000000000000000318000021100000
0202LOTE PADRAO                   EMBRAER     ON EJ      EMBR3       010VISTA          000000000012500000000130000000001210000000000000000000122000000023100
0202LOTE PADRAO                   AMBEV       PN *       AMBV4       010VISTA          000000000417700000004450000000041770000000000000000004400000004541600
0202LOTE PADRAO                   USIMINAS    PNA        USIM5       010VISTA          000000000006400000000064000000000620000000000000000000063000000057300
0202LOTE PADRAO                   ELETROPAULO PN *       ELPL4       010VISTA          000000000037000000000382000000003700000000000000000000382000014375300
0202LOTE PADRAO                   TELE NORD CLPN *       TNEP4       010VISTA          000000000002400000000025000000000230000000000000000000024000188837000
0202LOTE PADRAO                   CEMIG       PN * EJ    CMIG4       010VISTA          000000000031000000000316000000003010000000000000000000305000049870700
0202LOTE PADRAO                   TELE CL SUL PN * EJ    TCSL4       010VISTA          000000000002800000000029000000000270000000000000000000027500140235000
0202LOTE PADRAO                   TRACTEBEL   ON *       TBLE3       010VISTA          000000000003800000000039400000000375000000000000000000038000030509000
0202LOTE PADRAO                   CEMIG       ON * EJ    CMIG3       010VISTA          000000000028200000000286000000002800000000000000000000286000000957200
0202LOTE PADRAO                   TELE CL SUL ON * EJ    TCSL3       010VISTA          000000000002400000000024000000000220000000000000000000024000043307500
0202LOTE PADRAO                   ITAUSA      PN         ITSA4       010VISTA          000000000001770000000018000000000174000000000000000000018000000685100
0202LOTE PADRAO                   V C P       PN *       VCPA4       010VISTA          000000000088500000000985000000008850000000000000000000980000002492500
0202LOTE PADRAO                   SID TUBARAO PN *       CSTB4       010VISTA          000000000025700000000263000000002500000000000000000000254000007655200
0202LOTE PADRAO                   BRADESPAR   PN *       BRAP4       010VISTA          000000000000550000000005600000000052000000000000000000005200235695000
0202LOTE PADRAO                   NET         PN         PLIM4       010VISTA          000000000002200000000022000000000190000000000000000000019000000216400
0202LOTE PADRAO                   TELE CTR OESPN * EJ    TCOC4       010VISTA          000000000004000000000040000000000377000000000000000000038000105167000
0202LOTE PADRAO                   TELEMAR N L PNA* EJ    TMAR5       010VISTA          000000000045900000000480000000004590000000000000000000480000022161900
0202LOTE PADRAO                   GERDAU      PN * EJ    GGBR4       010VISTA          000000000027600000000285000000002760000000000000000000280000016557700
0202LOTE PADRAO                   BRASIL      ON *       BBAS3       010VISTA          000000000009300000000095000000000880000000000000000000090000005880600
