00BDIN9999BOVESPA 99992002093020020930
0101IBOVESPA                      0087180083520087200000000000000000002002093000000020020930008623000000
0202LOTE PADRAO                   EMBRATEL PARPN *       EBTP4       010VISTA          000000000002200000000023000000000200000000000000000000023000227546000
0202LOTE PADRAO                   TRAN PAULISTPN * EJ    TRPL4       010VISTA          000000000005000000000050000000000490000000000000000000049000007934700
0202LOTE PADRAO                   EMBRATEL PARON *       EBTP3       010VISTA          000000000002700000000030000000000260000000000000000000030000010835200
0202LOTE PADRAO                   TELEMAR     PN * EJ    TNLP4       010VISTA          000000000021500000000215000000002070000000000000000000213000262796000
0202LOTE PADRAO                   ITAUBANCO   PN * EJ    ITAU4       010VISTA          000000000117200000001185000000011300000000000000000001184000011447100
0202LOTE PADRAO                   TELEMAR     ON * EJ    TNLP3       010VISTA          000000000016800000000168000000001500000000000000000000159000008544000
0202LOTE PADRAO                   SID NACIONALON *       CSNA3       010VISTA          000000000034000000000340000000003000000000000000000000306000024760700
0202LOTE PADRAO                   TELE LEST CLPN *       TLCP4       010VISTA          000000000000380000000003800000000036000000000000000000003700080165000
0202LOTE PADRAO                   CRT CELULAR PNA* EJ    CRTP5       010VISTA          000000000320000000003230000000030000000000000000000003230000000082500
0202LOTE PADRAO                   IPIRANGA PETPN *       PTIP4       010VISTA          000000000008500000000089000000000820000000000000000000089000001332700
0202LOTE PADRAO                   BRASIL T PARPN *       BRTP4       010VISTA          000000000017100000000171000000001630000000000000000000168000088832900
0202LOTE PADRAO                   BRASIL T PARON *       BRTP3       010VISTA          000000000012500000000128000000001210000000000000000000127000014878100
0202LOTE PADRAO                   KLABIN S/A  PN         KLBN4       010VISTA          000000000000830000000008600000000080000000000000000000008500000047700
0202LOTE PADRAO                   ACESITA     PN *       ACES4       010VISTA          000000000000590000000005900000000056000000000000000000005600134576000
0202LOTE PADRAO                   PETROBRAS   PN         PETR4       010VISTA          000000000036000000000382000000003430000000000000000000368000000185900
0202LOTE PADRAO                   ELETROBRAS  PNB*       ELET6       010VISTA          000000000015800000000158000000001490000000000000000000150000045884200
0202LOTE PADRAO                   PETROBRAS   ON         PETR3       010VISTA          000000000040000000000423000000003700000000000000000000402000000082100
0202LOTE PADRAO                   COMGAS      PNA*       CGAS5       010VISTA          000000000054100000000549000000005000000000000000000000544000000365200
0202LOTE PADRAO                   SOUZA CRUZ  ON EJ      CRUZ3       010VISTA          000000000016000000000160000000001560000000000000000000157500000009700
0202LOTE PADRAO                   ELETROBRAS  ON *       ELET3       010VISTA          000000000015900000000159000000001490000000000000000000149000038773900
0202LOTE PADRAO                   CELESC      PNB        CLSC6       010VISTA          000000000000530000000005300000000051000000000000000000005100000297800
0202LOTE PADRAO                   BRADESCO    PN * EJ    BBDC4       010VISTA          000000000007800000000080000000000750000000000000000000080000263597000
0202LOTE PADRAO                   CESP        PN *       CESP4       010VISTA          000000000006000000000060000000000590000000000000000000060000005798500
0202LOTE PADRAO                   LIGHT       ON *       LIGH3       010VISTA          000000000058200000000588000000005500000000000000000000569000000068800
0202LOTE PADRAO                   TELESP CL PAPN *       TSPP4       010VISTA          000000000002690000000027000000000250000000000000000000027000253562000
0202LOTE PADRAO                   VALE R DOCE PNA        VALE5       010VISTA          000000000083500000000840000000008090000000000000000000829000000018000
0202LOTE PADRAO                   COPEL       PNB*       CPLE6       010VISTA          000000000007600000000076000000000700000000000000000000071000064599100
0202LOTE PADRAO                   VALE R DOCE ON         VALE3       010VISTA          000000000088000000000880000000008420000000000000000000866000000015000
0202LOTE PADRAO                   ARACRUZ     PNB        ARCZ6       010VISTA          000000000005790000000057000000000540000000000000000000056000000054000
0202LOTE PADRAO                   TELEMIG PARTPN *       TMCP4       010VISTA          000000000002600000000026000000000252000000000000000000025000087012800
0202LOTE PADRAO                   BRASIL TELECPN *       BRTO4       010VISTA          000000000010750000000108000000001040000000000000000000108000052007700
0202LOTE PADRAO                   SABESP      ON *       SBSP3       010VISTA          000000000075000000000780000000007120000000000000000000779000004918400
0202LOTE PADRAO                   BRASKEM     PNA*       BRKM5       010VISTA          000000000230000000002390000000022750000000000000000002349000000092000
0202LOTE PADRAO                   EMBRAER     PN EJ      EMBR4       010VISTA          000000000013100000000131000000001260000000000000000000130000000047100
0202LOTE PADRAO                   TELESP      PN * EJ    TLPP4       010VISTA          000000000030000000000310000000002875000000000000000000301000003199700
0202LOTE PADRAO                   EMBRAER     ON EJ      EMBR3       010VISTA          000000000012300000000123000000001150000000000000000000117500000009200
0202LOTE PADRAO                   AMBEV       PN *       AMBV4       010VISTA          000000000438000000004380000000041400000000000000000004195000002857200
0202LOTE PADRAO                   USIMINAS    PNA        USIM5       010VISTA          000000000004500000000045000000000430000000000000000000044000000071200
0202LOTE PADRAO                   ELETROPAULO PN *       ELPL4       010VISTA          000000000024300000000243000000002100000000000000000000229000005504100
0202LOTE PADRAO                   TELE NORD CLPN *       TNEP4       010VISTA          000000000002300000000024000000000220000000000000000000023000060458400
0202LOTE PADRAO                   CEMIG       PN * EJ    CMIG4       010VISTA          000000000021500000000217000000001990000000000000000000207000096898800
0202LOTE PADRAO                   TELE CL SUL PN * EJ    TCSL4       010VISTA          000000000002500000000025200000000240000000000000000000024000048473800
0202LOTE PADRAO                   TRACTEBEL   ON *       TBLE3       010VISTA          000000000003800000000039400000000380000000000000000000038000034770200
0202LOTE PADRAO                   CEMIG       ON * EJ    CMIG3       010VISTA          000000000020400000000204000000001860000000000000000000195000000525200
0202LOTE PADRAO                   TELE CL SUL ON * EJ    TCSL3       010VISTA          000000000002000000000020000000000190000000000000000000019600014562000
0202LOTE PADRAO                   ITAUSA      PN         ITSA4       010VISTA          000000000001400000000014000000000130000000000000000000014000000544400
0202LOTE PADRAO                   V C P       PN *       VCPA4       010VISTA          000000000105000000001070000000010440000000000000000001070000006317900
0202LOTE PADRAO                   SID TUBARAO PN *       CSTB4       010VISTA          000000000029500000000298000000002810000000000000000000289000014039200
0202LOTE PADRAO                   BRADESPAR   PN *       BRAP4       010VISTA          000000000000430000000004400000000042000000000000000000004400079426900
0202LOTE PADRAO                   NET         PN         PLIM4       010VISTA          000000000000260000000002600000000023000000000000000000002600000987700
0202LOTE PADRAO                   TELE CTR OESPN * EJ    TCOC4       010VISTA          000000000002900000000029000000000271000000000000000000028000072256100
0202LOTE PADRAO                   TELEMAR N L PNA* EJ    TMAR5       010VISTA          000000000038900000000400000000003800000000000000000000390000014988600
0202LOTE PADRAO                   GERDAU      PN * EJ    GGBR4       010VISTA          000000000027800000000278000000002560000000000000000000256000049157200
0202LOTE PADRAO                   BRASIL      ON *       BBAS3       010VISTA          000000000008000000000081000000000760000000000000000000080000038692500
