00BDIN9999BOVESPA 99992002042520020425
0101IBOVESPA                      0133840131130133840000000000000000002002042500000020020425013273000000
0202LOTE PADRAO                   EMBRATEL PARPN *       EBTP4       010VISTA          000000000005900000000064000000000570000000000000000000061000402811000
0202LOTE PADRAO                   TRAN PAULISTPN * EJ    TRPL4       010VISTA          000000000007000000000070000000000680000000000000000000068000018667400
0202LOTE PADRAO                   EMBRATEL PARON *       EBTP3       010VISTA          000000000007200000000079000000000700000000000000000000078000062961900
0202LOTE PADRAO                   TELEMAR     PN * EJ    TNLP4       010VISTA          000000000031500000000325000000003130000000000000000000318000193014000
0202LOTE PADRAO                   ITAUBANCO   PN * EJ    ITAU4       010VISTA          000000000187000000001870000000018450000000000000000001850000006131400
0202LOTE PADRAO                   TELEMAR     ON * EJ    TNLP3       010VISTA          000000000027400000000283000000002710000000000000000000279000009209300
0202LOTE PADRAO                   SID NACIONALON *       CSNA3       010VISTA          000000000047000000000470000000004580000000000000000000460000011235800
0202LOTE PADRAO                   TELE LEST CLPN *       TLCP4       010VISTA          000000000000750000000007700000000074000000000000000000007600214014000
0202LOTE PADRAO                   CRT CELULAR PNA* EJ    CRTP5       010VISTA          000000000415000000004250000000041000000000000000000004250000000519200
0202LOTE PADRAO                   IPIRANGA PETPN *       PTIP4       010VISTA          000000000015000000000155000000001480000000000000000000155000002860900
0202LOTE PADRAO                   BRASIL T PARPN *       BRTP4       010VISTA          000000000019100000000191000000001870000000000000000000190000035812300
0202LOTE PADRAO                   BRASIL T PARON *       BRTP3       010VISTA          000000000018000000000185000000001780000000000000000000185000007246700
0202LOTE PADRAO                   KLABIN S/A  PN         KLBN4       010VISTA          000000000001000000000010000000000100000000000000000000010000000034400
0202LOTE PADRAO                   ACESITA     PN *       ACES4       010VISTA          000000000000750000000007600000000074000000000000000000007500142209000
0202LOTE PADRAO                   PETROBRAS   PN         PETR4       010VISTA          000000000056000000000560000000005470000000000000000000553000000087400
0202LOTE PADRAO                   ELETROBRAS  PNB*       ELET6       010VISTA          000000000035000000000350000000003400000000000000000000345000028188200
0202LOTE PADRAO                   PETROBRAS   ON         PETR3       010VISTA          000000000059500000000597000000005820000000000000000000587500000037500
0202LOTE PADRAO                   COMGAS      PNA*       CGAS5       010VISTA          000000000075100000000765000000007450000000000000000000750000000732400
0202LOTE PADRAO                   SOUZA CRUZ  ON EJ      CRUZ3       010VISTA          000000000015900000000168000000001590000000000000000000168000000020900
0202LOTE PADRAO                   ELETROBRAS  ON *       ELET3       010VISTA          000000000038700000000387000000003750000000000000000000378000015989300
0202LOTE PADRAO                   CELESC      PNB        CLSC6       010VISTA          000000000000550000000006200000000053000000000000000000005900001346300
0202LOTE PADRAO                   BRADESCO    PN * EJ    BBDC4       010VISTA          000000000014100000000146000000001400000000000000000000140000164164000
0202LOTE PADRAO                   CESP        PN *       CESP4       010VISTA          000000000012800000000128000000001230000000000000000000126000018054600
0202LOTE PADRAO                   LIGHT       ON *       LIGH3       010VISTA          000000000095200000000967000000009500000000000000000000965000000339800
0202LOTE PADRAO                   TELESP CL PAPN *       TSPP4       010VISTA          000000000005900000000060000000000570000000000000000000059000139263000
0202LOTE PADRAO                   VALE R DOCE PNA        VALE5       010VISTA          000000000065250000000652500000006330000000000000000000636000000020500
0202LOTE PADRAO                   COPEL       PNB*       CPLE6       010VISTA          000000000017600000000176000000001730000000000000000000176000036509200
0202LOTE PADRAO                   VALE R DOCE ON         VALE3       010VISTA          000000000066000000000660000000006420000000000000000000645000000012500
0202LOTE PADRAO                   ARACRUZ     PNB        ARCZ6       010VISTA          000000000005000000000051000000000490000000000000000000050000000189500
0202LOTE PADRAO                   TELEMIG PARTPN *       TMCP4       010VISTA          000000000002960000000029000000000280000000000000000000028000071702100
0202LOTE PADRAO                   BRASIL TELECPN *       BRTO4       010VISTA          000000000012800000000131000000001250000000000000000000129000067447200
0202LOTE PADRAO                   SABESP      ON *       SBSP3       010VISTA          000000000151000000001528000000014860000000000000000001510000007025400
0202LOTE PADRAO                   BRASKEM     PNA*       BRKM5       010VISTA          000000000523000000005281000000051700000000000000000005200000000195900
0202LOTE PADRAO                   EMBRAER     PN EJ      EMBR4       010VISTA          000000000013000000000132500000001280000000000000000000132500000140500
0202LOTE PADRAO                   TELESP      PN * EJ    TLPP4       010VISTA          000000000032700000000330000000003220000000000000000000322000020333900
0202LOTE PADRAO                   EMBRAER     ON EJ      EMBR3       010VISTA          000000000011900000000122500000001170000000000000000000122500000025700
0202LOTE PADRAO                   AMBEV       PN *       AMBV4       010VISTA          000000000485000000004900000000047790000000000000000004840000002032300
0202LOTE PADRAO                   USIMINAS    PNA        USIM5       010VISTA          000000000008000000000080000000000790000000000000000000080000000042200
0202LOTE PADRAO                   ELETROPAULO PN *       ELPL4       010VISTA          000000000065000000000650000000006310000000000000000000639000003087800
0202LOTE PADRAO                   TELE NORD CLPN *       TNEP4       010VISTA          000000000002480000000024000000000240000000000000000000024800087113700
0202LOTE PADRAO                   CEMIG       PN * EJ    CMIG4       010VISTA          000000000037000000000385000000003610000000000000000000381000090457800
0202LOTE PADRAO                   TELE CL SUL PN * EJ    TCSL4       010VISTA          000000000003000000000031000000000290000000000000000000031000067334800
0202LOTE PADRAO                   TRACTEBEL   ON *       TBLE3       010VISTA          000000000004500000000046000000000440000000000000000000046000012744700
0202LOTE PADRAO                   CEMIG       ON * EJ    CMIG3       010VISTA          000000000032600000000342000000003220000000000000000000342000000567900
0202LOTE PADRAO                   TELE CL SUL ON * EJ    TCSL3       010VISTA          000000000002600000000026000000000250000000000000000000026000029831200
0202LOTE PADRAO                   ITAUSA      PN         ITSA4       010VISTA          000000000002300000000023000000000230000000000000000000023000000189000
0202LOTE PADRAO                   V C P       PN *       VCPA4       010VISTA          000000000091000000000929000000009050000000000000000000928000002066400
0202LOTE PADRAO                   SID TUBARAO PN *       CSTB4       010VISTA          000000000027300000000278000000002700000000000000000000278000014824000
0202LOTE PADRAO                   BRADESPAR   PN *       BRAP4       010VISTA          000000000000700000000007000000000068000000000000000000007000221974000
0202LOTE PADRAO                   NET         PN         PLIM4       010VISTA          000000000000340000000003500000000031000000000000000000003200001967400
0202LOTE PADRAO                   TELE CTR OESPN * EJ    TCOC4       010VISTA          000000000004750000000048000000000460000000000000000000047000095503900
0202LOTE PADRAO                   TELEMAR N L PNA* EJ    TMAR5       010VISTA          000000000053100000000542000000005280000000000000000000531000019932900
0202LOTE PADRAO                   GERDAU      PN * EJ    GGBR4       010VISTA          000000000031000000000320000000003060000000000000000000320000007506100
0202LOTE PADRAO                   BRASIL      ON *       BBAS3       010VISTA          000000000014000000000142000000001370000000000000000000138000010612500
