00BDIN9999BOVESPA 99992002073120020731
0101IBOVESPA                      0093460093440098960000000000000000002002073100000020020731009763000000
0202LOTE PADRAO                   EMBRATEL PARPN *       EBTP4       010VISTA          000000000001600000000016000000000150000000000000000000015000321744000
0202LOTE PADRAO                   TRAN PAULISTPN * EJ    TRPL4       010VISTA          000000000005400000000054000000000520000000000000000000052000015022500
0202LOTE PADRAO                   EMBRATEL PARON *       EBTP3       010VISTA          000000000002600000000027900000000260000000000000000000026000017132600
0202LOTE PADRAO                   TELEMAR     PN * EJ    TNLP4       010VISTA          000000000022600000000245000000002260000000000000000000238000345720000
0202LOTE PADRAO                   ITAUBANCO   PN * EJ    ITAU4       010VISTA          000000000118100000001249000000011810000000000000000001225000031537500
0202LOTE PADRAO                   TELEMAR     ON * EJ    TNLP3       010VISTA          000000000018500000000186000000001760000000000000000000185000034086000
0202LOTE PADRAO                   SID NACIONALON *       CSNA3       010VISTA          000000000040100000000439000000004010000000000000000000425000014051800
0202LOTE PADRAO                   TELE LEST CLPN *       TLCP4       010VISTA          000000000000410000000004200000000039000000000000000000004000204127000
0202LOTE PADRAO                   CRT CELULAR PNA* EJ    CRTP5       010VISTA          000000000395000000004060000000038500000000000000000004010000000274400
0202LOTE PADRAO                   IPIRANGA PETPN *       PTIP4       010VISTA          000000000010900000000115000000001090000000000000000000114000005553500
0202LOTE PADRAO                   BRASIL T PARPN *       BRTP4       010VISTA          000000000014500000000166000000001450000000000000000000163000107976000
0202LOTE PADRAO                   BRASIL T PARON *       BRTP3       010VISTA          000000000012600000000129000000001230000000000000000000126000019941000
0202LOTE PADRAO                   KLABIN S/A  PN         KLBN4       010VISTA          000000000000850000000009300000000085000000000000000000009000000107100
0202LOTE PADRAO                   ACESITA     PN *       ACES4       010VISTA          000000000000610000000006300000000061000000000000000000006200176082000
0202LOTE PADRAO                   PETROBRAS   PN         PETR4       010VISTA          000000000039900000000417000000003980000000000000000000409000000318200
0202LOTE PADRAO                   ELETROBRAS  PNB*       ELET6       010VISTA          000000000020300000000214000000002030000000000000000000206000078624100
0202LOTE PADRAO                   PETROBRAS   ON         PETR3       010VISTA          000000000043000000000457000000004300000000000000000000450000000046000
0202LOTE PADRAO                   COMGAS      PNA*       CGAS5       010VISTA          000000000050000000000515000000004990000000000000000000510000001009200
0202LOTE PADRAO                   SOUZA CRUZ  ON EJ      CRUZ3       010VISTA          000000000013500000000140000000001350000000000000000000136000000054900
0202LOTE PADRAO                   ELETROBRAS  ON *       ELET3       010VISTA          000000000020800000000223000000002080000000000000000000215000013438300
0202LOTE PADRAO                   CELESC      PNB        CLSC6       010VISTA          000000000000540000000005500000000052000000000000000000005300000279300
0202LOTE PADRAO                   BRADESCO    PN * EJ    BBDC4       010VISTA          000000000008600000000089000000000850000000000000000000086000543694000
0202LOTE PADRAO                   CESP        PN *       CESP4       010VISTA          000000000007400000000076000000000720000000000000000000075000015224700
0202LOTE PADRAO                   LIGHT       ON *       LIGH3       010VISTA          000000000079000000000830000000007900000000000000000000792000000216500
0202LOTE PADRAO                   TELESP CL PAPN *       TSPP4       010VISTA          000000000003300000000034000000000330000000000000000000034800192228000
0202LOTE PADRAO                   VALE R DOCE PNA        VALE5       010VISTA          000000000070900000000795000000007090000000000000000000760000000062800
0202LOTE PADRAO                   COPEL       PNB*       CPLE6       010VISTA          000000000009800000000109000000000980000000000000000000105000040505800
0202LOTE PADRAO                   VALE R DOCE ON         VALE3       010VISTA          000000000078500000000890000000007850000000000000000000830000000045500
0202LOTE PADRAO                   ARACRUZ     PNB        ARCZ6       010VISTA          000000000005900000000063000000000590000000000000000000063000000167200
0202LOTE PADRAO                   TELEMIG PARTPN *       TMCP4       010VISTA          000000000003000000000032500000000300000000000000000000031000108194000
0202LOTE PADRAO                   BRASIL TELECPN *       BRTO4       010VISTA          000000000009900000000110000000000990000000000000000000109000116974000
0202LOTE PADRAO                   SABESP      ON *       SBSP3       010VISTA          000000000080000000000827000000007950000000000000000000795000007991100
0202LOTE PADRAO                   BRASKEM     PNA*       BRKM5       010VISTA          000000000375000000003779000000036000000000000000000003600000000267100
0202LOTE PADRAO                   EMBRAER     PN EJ      EMBR4       010VISTA          000000000014500000000150000000001450000000000000000000147000000201400
0202LOTE PADRAO                   TELESP      PN * EJ    TLPP4       010VISTA          000000000032400000000325000000003110000000000000000000319000015316700
0202LOTE PADRAO                   EMBRAER     ON EJ      EMBR3       010VISTA          000000000013500000000140000000001350000000000000000000136000000026900
0202LOTE PADRAO                   AMBEV       PN *       AMBV4       010VISTA          000000000400000000004298000000039300000000000000000004220000005913600
0202LOTE PADRAO                   USIMINAS    PNA        USIM5       010VISTA          000000000005200000000053000000000510000000000000000000051000000171000
0202LOTE PADRAO                   ELETROPAULO PN *       ELPL4       010VISTA          000000000028900000000290000000002580000000000000000000262000008097800
0202LOTE PADRAO                   TELE NORD CLPN *       TNEP4       010VISTA          000000000002700000000028000000000269000000000000000000027000127266000
0202LOTE PADRAO                   CEMIG       PN * EJ    CMIG4       010VISTA          000000000026500000000269000000002580000000000000000000265000053537200
0202LOTE PADRAO                   TELE CL SUL PN * EJ    TCSL4       010VISTA          000000000003000000000031000000000294000000000000000000030000093024100
0202LOTE PADRAO                   TRACTEBEL   ON *       TBLE3       010VISTA          000000000004300000000044000000000420000000000000000000043000020945600
0202LOTE PADRAO                   CEMIG       ON * EJ    CMIG3       010VISTA          000000000025000000000261000000002500000000000000000000258000000380000
0202LOTE PADRAO                   TELE CL SUL ON * EJ    TCSL3       010VISTA          000000000002500000000026000000000250000000000000000000026000019115400
0202LOTE PADRAO                   ITAUSA      PN         ITSA4       010VISTA          000000000001530000000015000000000151000000000000000000015600000484600
0202LOTE PADRAO                   V C P       PN *       VCPA4       010VISTA          000000000101000000001090000000010100000000000000000001040000004554300
0202LOTE PADRAO                   SID TUBARAO PN *       CSTB4       010VISTA          000000000027000000000285000000002680000000000000000000285000028677100
0202LOTE PADRAO                   BRADESPAR   PN *       BRAP4       010VISTA          000000000000490000000005100000000049000000000000000000004900155790000
0202LOTE PADRAO                   NET         PN         PLIM4       010VISTA          000000000000900000000009000000000076000000000000000000007800000478800
0202LOTE PADRAO                   TELE CTR OESPN * EJ    TCOC4       010VISTA          000000000003800000000039800000000379000000000000000000039400142932000
0202LOTE PADRAO                   TELEMAR N L PNA* EJ    TMAR5       010VISTA          000000000039500000000412000000003950000000000000000000407000034713100
0202LOTE PADRAO                   GERDAU      PN * EJ    GGBR4       010VISTA          000000000028500000000297500000002830000000000000000000291000027983400
0202LOTE PADRAO                   BRASIL      ON *       BBAS3       010VISTA          000000000008700000000089000000000850000000000000000000086000005388700
