00BDIN9999BOVESPA 99992002111420021114
0101IBOVESPA                      0097620097380099040000000000000000002002111400000020021114009884000000
0202LOTE PADRAO                   EMBRATEL PARPN *       EBTP4       010VISTA          000000000002100000000021000000000200000000000000000000021000136966000
0202LOTE PADRAO                   TRAN PAULISTPN * EJ    TRPL4       010VISTA          000000000005000000000052000000000500000000000000000000052000010320500
0202LOTE PADRAO                   EMBRATEL PARON *       EBTP3       010VISTA          000000000002540000000026000000000254000000000000000000025000018381700
0202LOTE PADRAO                   TELEMAR     PN * EJ    TNLP4       010VISTA          000000000023800000000243000000002360000000000000000000243000226729000
0202LOTE PADRAO                   ITAUBANCO   PN * EJ    ITAU4       010VISTA          000000000149500000001500000000014600000000000000000001460000005846300
0202LOTE PADRAO                   TELEMAR     ON * EJ    TNLP3       010VISTA          000000000017500000000180000000001750000000000000000000180000005338500
0202LOTE PADRAO                   SID NACIONALON *       CSNA3       010VISTA          000000000040800000000446000000004080000000000000000000442000048634100
0202LOTE PADRAO                   TELE LEST CLPN *       TLCP4       010VISTA          000000000000400000000004000000000039000000000000000000004000070839900
0202LOTE PADRAO                   CRT CELULAR PNA* EJ    CRTP5       010VISTA          000000000312000000003120000000030200000000000000000003071000000850000
0202LOTE PADRAO                   IPIRANGA PETPN *       PTIP4       010VISTA          000000000007710000000079000000000750000000000000000000076000002376500
0202LOTE PADRAO                   BRASIL T PARPN *       BRTP4       010VISTA          000000000017000000000173000000001680000000000000000000172000048503800
0202LOTE PADRAO                   BRASIL T PARON *       BRTP3       010VISTA          000000000013100000000134000000001300000000000000000000130000003400700
0202LOTE PADRAO                   KLABIN S/A  PN         KLBN4       010VISTA          000000000000990000000010000000000097000000000000000000009900000041000
0202LOTE PADRAO                   ACESITA     PN *       ACES4       010VISTA          000000000000720000000007400000000071000000000000000000007400133354000
0202LOTE PADRAO                   PETROBRAS   PN         PETR4       010VISTA          000000000042500000000434000000004210000000000000000000434000000040800
0202LOTE PADRAO                   ELETROBRAS  PNB*       ELET6       010VISTA          000000000018200000000186000000001800000000000000000000181000064171400
0202LOTE PADRAO                   PETROBRAS   ON         PETR3       010VISTA          000000000046400000000475000000004620000000000000000000475000000016000
0202LOTE PADRAO                   COMGAS      PNA*       CGAS5       010VISTA          000000000055000000000575000000005500000000000000000000575000000371700
0202LOTE PADRAO                   SOUZA CRUZ  ON EJ      CRUZ3       010VISTA          000000000018600000000190000000001860000000000000000000189000000007500
0202LOTE PADRAO                   ELETROBRAS  ON *       ELET3       010VISTA          000000000018600000000187000000001820000000000000000000182000014568700
0202LOTE PADRAO                   CELESC      PNB        CLSC6       010VISTA          000000000000500000000005100000000049000000000000000000005000000099700
0202LOTE PADRAO                   BRADESCO    PN * EJ    BBDC4       010VISTA          000000000008900000000091000000000890000000000000000000090000159323000
0202LOTE PADRAO                   CESP        PN *       CESP4       010VISTA          000000000006100000000062000000000610000000000000000000062000008606000
0202LOTE PADRAO                   LIGHT       ON *       LIGH3       010VISTA          000000000053800000000570000000005260000000000000000000570000000567100
0202LOTE PADRAO                   TELESP CL PAPN *       TSPP4       010VISTA          000000000003600000000038100000000360000000000000000000038100227136000
0202LOTE PADRAO                   VALE R DOCE PNA        VALE5       010VISTA          000000000087200000000914000000008700000000000000000000892000000031300
0202LOTE PADRAO                   COPEL       PNB*       CPLE6       010VISTA          000000000007500000000077000000000740000000000000000000076000019245800
0202LOTE PADRAO                   VALE R DOCE ON         VALE3       010VISTA          000000000091000000000960000000009100000000000000000000950000000014300
0202LOTE PADRAO                   ARACRUZ     PNB        ARCZ6       010VISTA          000000000005500000000058000000000550000000000000000000057500000076100
0202LOTE PADRAO                   TELEMIG PARTPN *       TMCP4       010VISTA          000000000003000000000031000000000290000000000000000000030000102238000
0202LOTE PADRAO                   BRASIL TELECPN *       BRTO4       010VISTA          000000000011000000000111000000001080000000000000000000110000071806900
0202LOTE PADRAO                   SABESP      ON *       SBSP3       010VISTA          000000000083700000000860000000008350000000000000000000856000005007700
0202LOTE PADRAO                   BRASKEM     PNA*       BRKM5       010VISTA          000000000225100000002251000000021700000000000000000002192000000292700
0202LOTE PADRAO                   EMBRAER     PN EJ      EMBR4       010VISTA          000000000014300000000143000000001350000000000000000000135000000122000
0202LOTE PADRAO                   TELESP      PN * EJ    TLPP4       010VISTA          000000000035200000000362000000003510000000000000000000351000009852800
0202LOTE PADRAO                   EMBRAER     ON EJ      EMBR3       010VISTA          000000000012750000000130000000001250000000000000000000126000000032200
0202LOTE PADRAO                   AMBEV       PN *       AMBV4       010VISTA          000000000525000000005250000000051000000000000000000005250000001444100
0202LOTE PADRAO                   USIMINAS    PNA        USIM5       010VISTA          000000000005200000000054000000000500000000000000000000054000000040700
0202LOTE PADRAO                   ELETROPAULO PN *       ELPL4       010VISTA          000000000023500000000245000000002310000000000000000000244000001518000
0202LOTE PADRAO                   TELE NORD CLPN *       TNEP4       010VISTA          000000000002500000000026000000000250000000000000000000026000063025500
0202LOTE PADRAO                   CEMIG       PN * EJ    CMIG4       010VISTA          000000000023500000000241000000002330000000000000000000241000036492000
0202LOTE PADRAO                   TELE CL SUL PN * EJ    TCSL4       010VISTA          000000000002600000000026900000000260000000000000000000026000129236000
0202LOTE PADRAO                   TRACTEBEL   ON *       TBLE3       010VISTA          000000000003250000000033000000000310000000000000000000032000004060500
0202LOTE PADRAO                   CEMIG       ON * EJ    CMIG3       010VISTA          000000000021000000000216000000002060000000000000000000216000001223900
0202LOTE PADRAO                   TELE CL SUL ON * EJ    TCSL3       010VISTA          000000000001960000000020000000000196000000000000000000020000008611400
0202LOTE PADRAO                   ITAUSA      PN         ITSA4       010VISTA          000000000001750000000017900000000174000000000000000000017500000225300
0202LOTE PADRAO                   V C P       PN *       VCPA4       010VISTA          000000000110000000001149000000011000000000000000000001115000001829600
0202LOTE PADRAO                   SID TUBARAO PN *       CSTB4       010VISTA          000000000034700000000347000000003370000000000000000000339000015159900
0202LOTE PADRAO                   BRADESPAR   PN *       BRAP4       010VISTA          000000000000480000000004800000000047000000000000000000004800072388200
0202LOTE PADRAO                   NET         PN         PLIM4       010VISTA          000000000000370000000003700000000034000000000000000000003500000681100
0202LOTE PADRAO                   TELE CTR OESPN * EJ    TCOC4       010VISTA          000000000003800000000038000000000379000000000000000000038000086513600
0202LOTE PADRAO                   TELEMAR N L PNA* EJ    TMAR5       010VISTA          000000000041900000000422000000004110000000000000000000422000018867500
0202LOTE PADRAO                   GERDAU      PN * EJ    GGBR4       010VISTA          000000000033000000000330000000003110000000000000000000314000017112500
0202LOTE PADRAO                   BRASIL      ON *       BBAS3       010VISTA          000000000009900000000102000000000980000000000000000000101000045465000
