00BDIN9999BOVESPA 99992002052120020521
0101IBOVESPA                      0126740126270127740000000000000000002002052100000020020521012701000000
0202LOTE PADRAO                   EMBRATEL PARPN *       EBTP4       010VISTA          000000000004500000000048000000000450000000000000000000046000316501000
0202LOTE PADRAO                   TRAN PAULISTPN * EJ    TRPL4       010VISTA          000000000006000000000060000000000590000000000000000000059000006244200
0202LOTE PADRAO                   EMBRATEL PARON *       EBTP3       010VISTA          000000000006200000000066000000000620000000000000000000065000055606100
0202LOTE PADRAO                   TELEMAR     PN * EJ    TNLP4       010VISTA          000000000030100000000303000000002990000000000000000000301000160752000
0202LOTE PADRAO                   ITAUBANCO   PN * EJ    ITAU4       010VISTA          000000000178000000001788000000017750000000000000000001780000007476500
0202LOTE PADRAO                   TELEMAR     ON * EJ    TNLP3       010VISTA          000000000025700000000257000000002530000000000000000000256000014282400
0202LOTE PADRAO                   SID NACIONALON *       CSNA3       010VISTA          000000000049000000000490000000004870000000000000000000490000018921400
0202LOTE PADRAO                   TELE LEST CLPN *       TLCP4       010VISTA          000000000000680000000006800000000066000000000000000000006700098988300
0202LOTE PADRAO                   CRT CELULAR PNA* EJ    CRTP5       010VISTA          000000000395000000004000000000039500000000000000000004000000000095800
0202LOTE PADRAO                   IPIRANGA PETPN *       PTIP4       010VISTA          000000000013800000000141000000001380000000000000000000139000001013700
0202LOTE PADRAO                   BRASIL T PARPN *       BRTP4       010VISTA          000000000017500000000176000000001680000000000000000000170000041943200
0202LOTE PADRAO                   BRASIL T PARON *       BRTP3       010VISTA          000000000016600000000166000000001590000000000000000000160000009157400
0202LOTE PADRAO                   KLABIN S/A  PN         KLBN4       010VISTA          000000000001100000000011000000000100000000000000000000010000000014500
0202LOTE PADRAO                   ACESITA     PN *       ACES4       010VISTA          000000000000670000000006700000000066000000000000000000006600064509000
0202LOTE PADRAO                   PETROBRAS   PN         PETR4       010VISTA          000000000055200000000553000000005500000000000000000000553000000061600
0202LOTE PADRAO                   ELETROBRAS  PNB*       ELET6       010VISTA          000000000031300000000313000000003000000000000000000000306000070140300
0202LOTE PADRAO                   PETROBRAS   ON         PETR3       010VISTA          000000000057900000000587000000005790000000000000000000585000000033600
0202LOTE PADRAO                   COMGAS      PNA*       CGAS5       010VISTA          000000000074100000000741000000007300000000000000000000733000000122000
0202LOTE PADRAO                   SOUZA CRUZ  ON EJ      CRUZ3       010VISTA          000000000016300000000163000000001610000000000000000000162000000014500
0202LOTE PADRAO                   ELETROBRAS  ON *       ELET3       010VISTA          000000000035000000000350000000003420000000000000000000346000007878600
0202LOTE PADRAO                   CELESC      PNB        CLSC6       010VISTA          000000000000540000000005400000000053000000000000000000005400000089600
0202LOTE PADRAO                   BRADESCO    PN * EJ    BBDC4       010VISTA          000000000013000000000130000000001275000000000000000000128000129721000
0202LOTE PADRAO                   CESP        PN *       CESP4       010VISTA          000000000011300000000113000000001090000000000000000000111000009722000
0202LOTE PADRAO                   LIGHT       ON *       LIGH3       010VISTA          000000000094500000000960000000009450000000000000000000955000000443300
0202LOTE PADRAO                   TELESP CL PAPN *       TSPP4       010VISTA          000000000005800000000058000000000560000000000000000000057500136155000
0202LOTE PADRAO                   VALE R DOCE PNA        VALE5       010VISTA          000000000068700000000697000000006820000000000000000000695000000017500
0202LOTE PADRAO                   COPEL       PNB*       CPLE6       010VISTA          000000000014750000000149000000001460000000000000000000149000012428200
0202LOTE PADRAO                   VALE R DOCE ON         VALE3       010VISTA          000000000068700000000697000000006870000000000000000000697000000005300
0202LOTE PADRAO                   ARACRUZ     PNB        ARCZ6       010VISTA          000000000005400000000056000000000540000000000000000000055000000043100
0202LOTE PADRAO                   TELEMIG PARTPN *       TMCP4       010VISTA          000000000002800000000029000000000280000000000000000000028000139798000
0202LOTE PADRAO                   BRASIL TELECPN *       BRTO4       010VISTA          000000000012100000000122000000001180000000000000000000119000059058400
0202LOTE PADRAO                   SABESP      ON *       SBSP3       010VISTA          000000000116300000001169000000011450000000000000000001145000006074000
0202LOTE PADRAO                   BRASKEM     PNA*       BRKM5       010VISTA          000000000459900000004599000000045100000000000000000004531000000075000
0202LOTE PADRAO                   EMBRAER     PN EJ      EMBR4       010VISTA          000000000014400000000145000000001425000000000000000000142500000034900
0202LOTE PADRAO                   TELESP      PN * EJ    TLPP4       010VISTA          000000000033600000000337000000003280000000000000000000337000007361600
0202LOTE PADRAO                   EMBRAER     ON EJ      EMBR3       010VISTA          000000000012900000000130000000001280000000000000000000129000000010900
0202LOTE PADRAO                   AMBEV       PN *       AMBV4       010VISTA          000000000474900000004750000000047100000000000000000004730000001274400
0202LOTE PADRAO                   USIMINAS    PNA        USIM5       010VISTA          000000000007500000000076000000000750000000000000000000075000000012400
0202LOTE PADRAO                   ELETROPAULO PN *       ELPL4       010VISTA          000000000054500000000546000000005350000000000000000000542000002038000
0202LOTE PADRAO                   TELE NORD CLPN *       TNEP4       010VISTA          000000000002500000000025000000000250000000000000000000025600118860000
0202LOTE PADRAO                   CEMIG       PN * EJ    CMIG4       010VISTA          000000000032600000000337000000003250000000000000000000331000033501300
0202LOTE PADRAO                   TELE CL SUL PN * EJ    TCSL4       010VISTA          000000000003000000000031000000000300000000000000000000031000041414900
0202LOTE PADRAO                   TRACTEBEL   ON *       TBLE3       010VISTA          000000000003900000000041000000000398000000000000000000041000002636900
0202LOTE PADRAO                   CEMIG       ON * EJ    CMIG3       010VISTA          000000000031500000000316000000003100000000000000000000310000000330300
0202LOTE PADRAO                   TELE CL SUL ON * EJ    TCSL3       010VISTA          000000000002750000000027900000000260000000000000000000026000018493700
0202LOTE PADRAO                   ITAUSA      PN         ITSA4       010VISTA          000000000002100000000021000000000210000000000000000000021000000356800
0202LOTE PADRAO                   V C P       PN *       VCPA4       010VISTA          000000000096000000000975000000009590000000000000000000965000001394300
0202LOTE PADRAO                   SID TUBARAO PN *       CSTB4       010VISTA          000000000027500000000290000000002730000000000000000000290000028656700
0202LOTE PADRAO                   BRADESPAR   PN *       BRAP4       010VISTA          000000000000620000000006300000000061000000000000000000006300061380700
0202LOTE PADRAO                   NET         PN         PLIM4       010VISTA          000000000000340000000003500000000033000000000000000000003500000899500
0202LOTE PADRAO                   TELE CTR OESPN * EJ    TCOC4       010VISTA          000000000004500000000046000000000440000000000000000000045000078003500
0202LOTE PADRAO                   TELEMAR N L PNA* EJ    TMAR5       010VISTA          000000000051300000000516000000005120000000000000000000514000012859800
0202LOTE PADRAO                   GERDAU      PN * EJ    GGBR4       010VISTA          000000000033300000000333000000003150000000000000000000316000013624300
0202LOTE PADRAO                   BRASIL      ON *       BBAS3       010VISTA          000000000012500000000127500000001250000000000000000000125000003710100
