00BDIN9999BOVESPA 99992002102220021022
0101IBOVESPA                      0090990089820093310000000000000000002002102200000020021022009331000000
0202LOTE PADRAO                   EMBRATEL PARPN *       EBTP4       010VISTA          000000000002200000000023000000000225000000000000000000022000201647000
0202LOTE PADRAO                   TRAN PAULISTPN * EJ    TRPL4       010VISTA          000000000005100000000052000000000500000000000000000000052000010450000
0202LOTE PADRAO                   EMBRATEL PARON *       EBTP3       010VISTA          000000000002980000000030000000000290000000000000000000030000017747200
0202LOTE PADRAO                   TELEMAR     PN * EJ    TNLP4       010VISTA          000000000021800000000228000000002160000000000000000000228000399963000
0202LOTE PADRAO                   ITAUBANCO   PN * EJ    ITAU4       010VISTA          000000000123000000001275000000012200000000000000000001275000021388500
0202LOTE PADRAO                   TELEMAR     ON * EJ    TNLP3       010VISTA          000000000015800000000164000000001580000000000000000000163000025688200
0202LOTE PADRAO                   SID NACIONALON *       CSNA3       010VISTA          000000000035200000000377000000003430000000000000000000377000038471000
0202LOTE PADRAO                   TELE LEST CLPN *       TLCP4       010VISTA          000000000000360000000004000000000035000000000000000000003900814753000
0202LOTE PADRAO                   CRT CELULAR PNA* EJ    CRTP5       010VISTA          000000000301800000003100000000030000000000000000000003068000000327900
0202LOTE PADRAO                   IPIRANGA PETPN *       PTIP4       010VISTA          000000000007750000000078000000000750000000000000000000077100003072400
0202LOTE PADRAO                   BRASIL T PARPN *       BRTP4       010VISTA          000000000017700000000181000000001760000000000000000000178000101135000
0202LOTE PADRAO                   BRASIL T PARON *       BRTP3       010VISTA          000000000012900000000131000000001290000000000000000000130000015320200
0202LOTE PADRAO                   KLABIN S/A  PN         KLBN4       010VISTA          000000000000860000000008800000000086000000000000000000008700000043500
0202LOTE PADRAO                   ACESITA     PN *       ACES4       010VISTA          000000000000690000000007100000000067000000000000000000007000185220000
0202LOTE PADRAO                   PETROBRAS   PN         PETR4       010VISTA          000000000038500000000398000000003810000000000000000000398000000111700
0202LOTE PADRAO                   ELETROBRAS  PNB*       ELET6       010VISTA          000000000015900000000173000000001590000000000000000000171000117844000
0202LOTE PADRAO                   PETROBRAS   ON         PETR3       010VISTA          000000000041000000000431000000004100000000000000000000431000000045600
0202LOTE PADRAO                   COMGAS      PNA*       CGAS5       010VISTA          000000000060000000000615000000005960000000000000000000597000000485200
0202LOTE PADRAO                   SOUZA CRUZ  ON EJ      CRUZ3       010VISTA          000000000017300000000179000000001730000000000000000000179000000017300
0202LOTE PADRAO                   ELETROBRAS  ON *       ELET3       010VISTA          000000000016000000000180000000001600000000000000000000180000037740700
0202LOTE PADRAO                   CELESC      PNB        CLSC6       010VISTA          000000000000490000000005200000000049000000000000000000005200000357300
0202LOTE PADRAO                   BRADESCO    PN * EJ    BBDC4       010VISTA          000000000008300000000086000000000820000000000000000000086000242981000
0202LOTE PADRAO                   CESP        PN *       CESP4       010VISTA          000000000006100000000064000000000610000000000000000000062500008940000
0202LOTE PADRAO                   LIGHT       ON *       LIGH3       010VISTA          000000000053300000000536000000005280000000000000000000530000000505200
0202LOTE PADRAO                   TELESP CL PAPN *       TSPP4       010VISTA          000000000003200000000034000000000320000000000000000000034000569878000
0202LOTE PADRAO                   VALE R DOCE PNA        VALE5       010VISTA          000000000085200000000894000000008520000000000000000000885000000026000
0202LOTE PADRAO                   COPEL       PNB*       CPLE6       010VISTA          000000000007500000000079600000000750000000000000000000077500079306600
0202LOTE PADRAO                   VALE R DOCE ON         VALE3       010VISTA          000000000091500000000930000000009140000000000000000000920000000016200
0202LOTE PADRAO                   ARACRUZ     PNB        ARCZ6       010VISTA          000000000006100000000062000000000600000000000000000000060000000051700
0202LOTE PADRAO                   TELEMIG PARTPN *       TMCP4       010VISTA          000000000002480000000026000000000240000000000000000000026000134546000
0202LOTE PADRAO                   BRASIL TELECPN *       BRTO4       010VISTA          000000000011000000000115000000001100000000000000000000115000165113000
0202LOTE PADRAO                   SABESP      ON *       SBSP3       010VISTA          000000000077900000000785000000007690000000000000000000785000004802000
0202LOTE PADRAO                   BRASKEM     PNA*       BRKM5       010VISTA          000000000215000000002279000000021500000000000000000002200000000169400
0202LOTE PADRAO                   EMBRAER     PN EJ      EMBR4       010VISTA          000000000014000000000143000000001390000000000000000000143000000121300
0202LOTE PADRAO                   TELESP      PN * EJ    TLPP4       010VISTA          000000000032300000000342000000003230000000000000000000342000018315700
0202LOTE PADRAO                   EMBRAER     ON EJ      EMBR3       010VISTA          000000000012800000000134000000001280000000000000000000133000000020500
0202LOTE PADRAO                   AMBEV       PN *       AMBV4       010VISTA          000000000441000000004420000000043830000000000000000004412000001712700
0202LOTE PADRAO                   USIMINAS    PNA        USIM5       010VISTA          000000000004400000000047000000000430000000000000000000047500000106000
0202LOTE PADRAO                   ELETROPAULO PN *       ELPL4       010VISTA          000000000025000000000259000000002460000000000000000000253000004147200
0202LOTE PADRAO                   TELE NORD CLPN *       TNEP4       010VISTA          000000000002200000000023000000000220000000000000000000023000129210000
0202LOTE PADRAO                   CEMIG       PN * EJ    CMIG4       010VISTA          000000000021300000000222000000002130000000000000000000218000062505400
0202LOTE PADRAO                   TELE CL SUL PN * EJ    TCSL4       010VISTA          000000000002500000000028000000000250000000000000000000028000085925900
0202LOTE PADRAO                   TRACTEBEL   ON *       TBLE3       010VISTA          000000000003800000000038000000000380000000000000000000038000029922000
0202LOTE PADRAO                   CEMIG       ON * EJ    CMIG3       010VISTA          000000000019800000000211000000001980000000000000000000205000000271100
0202LOTE PADRAO                   TELE CL SUL ON * EJ    TCSL3       010VISTA          000000000001900000000022000000000190000000000000000000021000046884800
0202LOTE PADRAO                   ITAUSA      PN         ITSA4       010VISTA          000000000001510000000015000000000149000000000000000000015000000226900
0202LOTE PADRAO                   V C P       PN *       VCPA4       010VISTA          000000000106500000001139000000010650000000000000000001130000003322500
0202LOTE PADRAO                   SID TUBARAO PN *       CSTB4       010VISTA          000000000034200000000350000000003420000000000000000000345000004381400
0202LOTE PADRAO                   BRADESPAR   PN *       BRAP4       010VISTA          000000000000440000000004500000000043000000000000000000004500193146000
0202LOTE PADRAO                   NET         PN         PLIM4       010VISTA          000000000000280000000003100000000027000000000000000000003100000858300
0202LOTE PADRAO                   TELE CTR OESPN * EJ    TCOC4       010VISTA          000000000003300000000033000000000320000000000000000000033000150429000
0202LOTE PADRAO                   TELEMAR N L PNA* EJ    TMAR5       010VISTA          000000000038500000000405000000003810000000000000000000395000055700500
0202LOTE PADRAO                   GERDAU      PN * EJ    GGBR4       010VISTA          000000000027800000000294000000002730000000000000000000293000024659600
0202LOTE PADRAO                   BRASIL      ON *       BBAS3       010VISTA          000000000008900000000089000000000850000000000000000000089000022696900
