00BDIN9999BOVESPA 99992002102120021021
0101IBOVESPA                      0090220089790091610000000000000000002002102100000020021021009128000000
0202LOTE PADRAO                   EMBRATEL PARPN *       EBTP4       010VISTA          000000000002300000000023000000000220000000000000000000023000147657000
0202LOTE PADRAO                   TRAN PAULISTPN * EJ    TRPL4       010VISTA          000000000005200000000052000000000500000000000000000000050000007193100
0202LOTE PADRAO                   EMBRATEL PARON *       EBTP3       010VISTA          000000000003000000000030000000000290000000000000000000029000007351800
0202LOTE PADRAO                   TELEMAR     PN * EJ    TNLP4       010VISTA          000000000021750000000223000000002160000000000000000000221000597020000
0202LOTE PADRAO                   ITAUBANCO   PN * EJ    ITAU4       010VISTA          000000000124000000001240000000012150000000000000000001235000006084700
0202LOTE PADRAO                   TELEMAR     ON * EJ    TNLP3       010VISTA          000000000016300000000163000000001600000000000000000000162500018971100
0202LOTE PADRAO                   SID NACIONALON *       CSNA3       010VISTA          000000000034800000000352000000003380000000000000000000352000021996900
0202LOTE PADRAO                   TELE LEST CLPN *       TLCP4       010VISTA          000000000000370000000003700000000036000000000000000000003600110238000
0202LOTE PADRAO                   CRT CELULAR PNA* EJ    CRTP5       010VISTA          000000000315000000003150000000030180000000000000000003060000000193100
0202LOTE PADRAO                   IPIRANGA PETPN *       PTIP4       010VISTA          000000000007900000000079000000000775000000000000000000078000007909800
0202LOTE PADRAO                   BRASIL T PARPN *       BRTP4       010VISTA          000000000017800000000181000000001770000000000000000000180000038497300
0202LOTE PADRAO                   BRASIL T PARON *       BRTP3       010VISTA          000000000013800000000138000000001300000000000000000000134000002898300
0202LOTE PADRAO                   KLABIN S/A  PN         KLBN4       010VISTA          000000000000870000000008700000000085000000000000000000008600000004000
0202LOTE PADRAO                   ACESITA     PN *       ACES4       010VISTA          000000000000700000000007200000000069000000000000000000006900051104500
0202LOTE PADRAO                   PETROBRAS   PN         PETR4       010VISTA          000000000039000000000393000000003780000000000000000000392500000138300
0202LOTE PADRAO                   ELETROBRAS  PNB*       ELET6       010VISTA          000000000016000000000165000000001590000000000000000000163000030303100
0202LOTE PADRAO                   PETROBRAS   ON         PETR3       010VISTA          000000000042200000000431000000004160000000000000000000428000000024000
0202LOTE PADRAO                   COMGAS      PNA*       CGAS5       010VISTA          000000000061700000000617000000006000000000000000000000615000000327000
0202LOTE PADRAO                   SOUZA CRUZ  ON EJ      CRUZ3       010VISTA          000000000017300000000175000000001730000000000000000000173000000008200
0202LOTE PADRAO                   ELETROBRAS  ON *       ELET3       010VISTA          000000000016000000000168000000001600000000000000000000167000015010400
0202LOTE PADRAO                   CELESC      PNB        CLSC6       010VISTA          000000000000490000000005000000000049000000000000000000005000000301000
0202LOTE PADRAO                   BRADESCO    PN * EJ    BBDC4       010VISTA          000000000008300000000084000000000810000000000000000000084000178694000
0202LOTE PADRAO                   CESP        PN *       CESP4       010VISTA          000000000006300000000063000000000625000000000000000000062500001733100
0202LOTE PADRAO                   LIGHT       ON *       LIGH3       010VISTA          000000000055000000000550000000005150000000000000000000549000000773000
0202LOTE PADRAO                   TELESP CL PAPN *       TSPP4       010VISTA          000000000003000000000032000000000300000000000000000000032000481894000
0202LOTE PADRAO                   VALE R DOCE PNA        VALE5       010VISTA          000000000086750000000877000000008580000000000000000000872000000014500
0202LOTE PADRAO                   COPEL       PNB*       CPLE6       010VISTA          000000000007500000000076000000000750000000000000000000076000029364600
0202LOTE PADRAO                   VALE R DOCE ON         VALE3       010VISTA          000000000089000000000910000000008900000000000000000000910000000018900
0202LOTE PADRAO                   ARACRUZ     PNB        ARCZ6       010VISTA          000000000005900000000062000000000590000000000000000000062000000055900
0202LOTE PADRAO                   TELEMIG PARTPN *       TMCP4       010VISTA          000000000002400000000025000000000230000000000000000000025400081328600
0202LOTE PADRAO                   BRASIL TELECPN *       BRTO4       010VISTA          000000000011300000000116000000001110000000000000000000115000043753800
0202LOTE PADRAO                   SABESP      ON *       SBSP3       010VISTA          000000000077700000000789000000007750000000000000000000779000001890500
0202LOTE PADRAO                   BRASKEM     PNA*       BRKM5       010VISTA          000000000223000000002300000000022000000000000000000002250000000041000
0202LOTE PADRAO                   EMBRAER     PN EJ      EMBR4       010VISTA          000000000013600000000141000000001350000000000000000000141000000048900
0202LOTE PADRAO                   TELESP      PN * EJ    TLPP4       010VISTA          000000000032500000000335000000003250000000000000000000333000007992800
0202LOTE PADRAO                   EMBRAER     ON EJ      EMBR3       010VISTA          000000000012750000000131000000001270000000000000000000130000000004900
0202LOTE PADRAO                   AMBEV       PN *       AMBV4       010VISTA          000000000448000000004480000000044100000000000000000004410000001147200
0202LOTE PADRAO                   USIMINAS    PNA        USIM5       010VISTA          000000000004200000000045000000000420000000000000000000044000000053700
0202LOTE PADRAO                   ELETROPAULO PN *       ELPL4       010VISTA          000000000024100000000260000000002410000000000000000000257000002625600
0202LOTE PADRAO                   TELE NORD CLPN *       TNEP4       010VISTA          000000000002270000000022000000000220000000000000000000022000031278300
0202LOTE PADRAO                   CEMIG       PN * EJ    CMIG4       010VISTA          000000000021300000000222000000002080000000000000000000218000023092300
0202LOTE PADRAO                   TELE CL SUL PN * EJ    TCSL4       010VISTA          000000000002600000000027000000000250000000000000000000026000040960000
0202LOTE PADRAO                   TRACTEBEL   ON *       TBLE3       010VISTA          000000000004000000000040000000000380000000000000000000038000008260000
0202LOTE PADRAO                   CEMIG       ON * EJ    CMIG3       010VISTA          000000000020600000000206000000001950000000000000000000204000000550100
0202LOTE PADRAO                   TELE CL SUL ON * EJ    TCSL3       010VISTA          000000000002000000000020000000000197000000000000000000019700013716800
0202LOTE PADRAO                   ITAUSA      PN         ITSA4       010VISTA          000000000001520000000015300000000149000000000000000000015200000234700
0202LOTE PADRAO                   V C P       PN *       VCPA4       010VISTA          000000000106900000001087000000010650000000000000000001087000003140500
0202LOTE PADRAO                   SID TUBARAO PN *       CSTB4       010VISTA          000000000034800000000365000000003400000000000000000000352000000782000
0202LOTE PADRAO                   BRADESPAR   PN *       BRAP4       010VISTA          000000000000450000000004500000000044000000000000000000004400037593900
0202LOTE PADRAO                   NET         PN         PLIM4       010VISTA          000000000000280000000003000000000027000000000000000000002800000600900
0202LOTE PADRAO                   TELE CTR OESPN * EJ    TCOC4       010VISTA          000000000003300000000034000000000330000000000000000000033000457468000
0202LOTE PADRAO                   TELEMAR N L PNA* EJ    TMAR5       010VISTA          000000000039100000000405000000003850000000000000000000386000057222900
0202LOTE PADRAO                   GERDAU      PN * EJ    GGBR4       010VISTA          000000000027600000000281000000002730000000000000000000278000025915500
0202LOTE PADRAO                   BRASIL      ON *       BBAS3       010VISTA          000000000008900000000090000000000870000000000000000000088000013946000
