00BDIN9999BOVESPA 99992002022820020228
0101IBOVESPA                      0142160140330142210000000000000000002002022800000020020228014033000000
0202LOTE PADRAO                   EMBRATEL PARPN *       EBTP4       010VISTA          000000000008900000000090000000000875000000000000000000087500132127000
0202LOTE PADRAO                   EMBRATEL PARON *       EBTP3       010VISTA          000000000010900000000109000000001030000000000000000000105000019222100
0202LOTE PADRAO                   TRAN PAULISTPN * EJ    TRPL4       010VISTA          000000000007700000000077000000000740000000000000000000075000013267900
0202LOTE PADRAO                   TELEMAR     PN * EJ    TNLP4       010VISTA          000000000036500000000367000000003560000000000000000000357500272689000
0202LOTE PADRAO                   ITAUBANCO   PN * EJ    ITAU4       010VISTA          000000000204500000002045000000020000000000000000000002000000026864700
0202LOTE PADRAO                   TELEMAR     ON * EJ    TNLP3       010VISTA          000000000031800000000318000000003080000000000000000000308000013726100
0202LOTE PADRAO                   SID NACIONALON *       CSNA3       010VISTA          000000000042000000000439000000004170000000000000000000439000026174100
0202LOTE PADRAO                   TELE LEST CLPN *       TLCP4       010VISTA          000000000000870000000008700000000084000000000000000000008400084200100
0202LOTE PADRAO                   CRT CELULAR PNA* EJ    CRTP5       010VISTA          000000000460000000004660000000045300000000000000000004600000000147000
0202LOTE PADRAO                   IPIRANGA PETPN *       PTIP4       010VISTA          000000000013500000000141000000001350000000000000000000135000012083500
0202LOTE PADRAO                   BRASIL T PARPN *       BRTP4       010VISTA          000000000019000000000193000000001880000000000000000000189000096037600
0202LOTE PADRAO                   BRASIL T PARON *       BRTP3       010VISTA          000000000019300000000193000000001850000000000000000000185000013736100
0202LOTE PADRAO                   KLABIN S/A  PN         KLBN4       010VISTA          000000000001280000000012000000000124000000000000000000012500000023500
0202LOTE PADRAO                   ACESITA     PN *       ACES4       010VISTA          000000000000740000000007500000000072000000000000000000007200106811000
0202LOTE PADRAO                   PETROBRAS   PN         PETR4       010VISTA          000000000055500000000570000000005470000000000000000000561000000177300
0202LOTE PADRAO                   ELETROBRAS  PNB*       ELET6       010VISTA          000000000036100000000365000000003580000000000000000000361000038876400
0202LOTE PADRAO                   PETROBRAS   ON         PETR3       010VISTA          000000000057000000000585000000005670000000000000000000582000000104500
0202LOTE PADRAO                   COMGAS      PNA*       CGAS5       010VISTA          000000000091500000000920000000009000000000000000000000900000000432500
0202LOTE PADRAO                   SOUZA CRUZ  ON EJ      CRUZ3       010VISTA          000000000015000000000156000000001500000000000000000000155000000060400
0202LOTE PADRAO                   ELETROBRAS  ON *       ELET3       010VISTA          000000000041200000000420000000004080000000000000000000420000016753100
0202LOTE PADRAO                   CELESC      PNB        CLSC6       010VISTA          000000000000580000000005800000000056000000000000000000005700000291600
0202LOTE PADRAO                   BRADESCO    PN * EJ    BBDC4       010VISTA          000000000014000000000140000000001380000000000000000000138000193255000
0202LOTE PADRAO                   CESP        PN *       CESP4       010VISTA          000000000016000000000160000000001540000000000000000000155000006145100
0202LOTE PADRAO                   LIGHT       ON *       LIGH3       010VISTA          000000000125500000001255000000012220000000000000000001226000000071400
0202LOTE PADRAO                   TELESP CL PAPN *       TSPP4       010VISTA          000000000007500000000077000000000740000000000000000000075000299973000
0202LOTE PADRAO                   VALE R DOCE PNA        VALE5       010VISTA          000000000060100000000605000000005980000000000000000000600000000062700
0202LOTE PADRAO                   COPEL       PNB*       CPLE6       010VISTA          000000000018250000000185000000001800000000000000000000180000050830500
0202LOTE PADRAO                   VALE R DOCE ON         VALE3       010VISTA          000000000061700000000625000000006150000000000000000000623000000028900
0202LOTE PADRAO                   ARACRUZ     PNB        ARCZ6       010VISTA          000000000005000000000050000000000490000000000000000000049000000090800
0202LOTE PADRAO                   TELEMIG PARTPN *       TMCP4       010VISTA          000000000003700000000037000000000360000000000000000000036000183619000
0202LOTE PADRAO                   BRASIL TELECPN *       BRTO4       010VISTA          000000000013900000000139000000001350000000000000000000138000054361500
0202LOTE PADRAO                   SABESP      ON *       SBSP3       010VISTA          000000000133000000001331000000013150000000000000000001315000001845400
0202LOTE PADRAO                   BRASKEM     PNA*       BRKM5       010VISTA          000000000520100000005260000000051600000000000000000005260000000251400
0202LOTE PADRAO                   EMBRAER     PN EJ      EMBR4       010VISTA          000000000013100000000131000000001290000000000000000000129000000180000
0202LOTE PADRAO                   TELESP      PN * EJ    TLPP4       010VISTA          000000000032700000000330000000003250000000000000000000328000003824100
0202LOTE PADRAO                   EMBRAER     ON EJ      EMBR3       010VISTA          000000000012800000000128000000001240000000000000000000124000000022400
0202LOTE PADRAO                   AMBEV       PN *       AMBV4       010VISTA          000000000464000000004830000000046300000000000000000004790000006346500
0202LOTE PADRAO                   USIMINAS    PNA        USIM5       010VISTA          000000000008250000000082500000000790000000000000000000080000000096800
0202LOTE PADRAO                   ELETROPAULO PN *       ELPL4       010VISTA          000000000068500000000685000000006650000000000000000000667000003656600
0202LOTE PADRAO                   TELE NORD CLPN *       TNEP4       010VISTA          000000000003000000000031000000000300000000000000000000030000092137600
0202LOTE PADRAO                   CEMIG       PN * EJ    CMIG4       010VISTA          000000000037800000000379000000003650000000000000000000366000054124500
0202LOTE PADRAO                   TELE CL SUL PN * EJ    TCSL4       010VISTA          000000000003300000000033000000000320000000000000000000032500102862000
0202LOTE PADRAO                   CEMIG       ON * EJ    CMIG3       010VISTA          000000000034200000000342000000003360000000000000000000337000002431500
0202LOTE PADRAO                   TELE CL SUL ON * EJ    TCSL3       010VISTA          000000000003000000000030000000000280000000000000000000029400012070700
0202LOTE PADRAO                   ITAUSA      PN         ITSA4       010VISTA          000000000002400000000024000000000230000000000000000000024000000303800
0202LOTE PADRAO                   V C P       PN *       VCPA4       010VISTA          000000000088400000000890000000008750000000000000000000875000003538800
0202LOTE PADRAO                   SID TUBARAO PN *       CSTB4       010VISTA          000000000024400000000244000000002330000000000000000000233000008455000
0202LOTE PADRAO                   BRADESPAR   PN *       BRAP4       010VISTA          000000000000810000000008200000000079000000000000000000008000277197000
0202LOTE PADRAO                   NET         PN         PLIM4       010VISTA          000000000000720000000007300000000069000000000000000000006900001003600
0202LOTE PADRAO                   TELE CTR OESPN * EJ    TCOC4       010VISTA          000000000004800000000049000000000470000000000000000000048000162082000
0202LOTE PADRAO                   TELEMAR N L PNA* EJ    TMAR5       010VISTA          000000000060500000000612000000006020000000000000000000608000022671300
0202LOTE PADRAO                   GERDAU      PN * EJ    GGBR4       010VISTA          000000000027100000000271000000002610000000000000000000261000034110200
0202LOTE PADRAO                   BRASIL      ON *       BBAS3       010VISTA          000000000010500000000105000000001030000000000000000000104000004276700
