00BDIN9999BOVESPA 99992002022720020227
0101IBOVESPA                      0139780139780142510000000000000000002002022700000020020227014212000000
0202LOTE PADRAO                   EMBRATEL PARPN *       EBTP4       010VISTA          000000000008800000000089000000000870000000000000000000089000139737000
0202LOTE PADRAO                   EMBRATEL PARON *       EBTP3       010VISTA          000000000010900000000109000000001050000000000000000000109000027059700
0202LOTE PADRAO                   TRAN PAULISTPN * EJ    TRPL4       010VISTA          000000000007700000000078000000000750000000000000000000076000021289800
0202LOTE PADRAO                   TELEMAR     PN * EJ    TNLP4       010VISTA          000000000036000000000370000000003600000000000000000000367000277627000
0202LOTE PADRAO                   ITAUBANCO   PN * EJ    ITAU4       010VISTA          000000000206000000002100000000020190000000000000000002045000024196100
0202LOTE PADRAO                   TELEMAR     ON * EJ    TNLP3       010VISTA          000000000031900000000321000000003130000000000000000000320000019542500
0202LOTE PADRAO                   SID NACIONALON *       CSNA3       010VISTA          000000000041100000000420000000004110000000000000000000417000022484800
0202LOTE PADRAO                   TELE LEST CLPN *       TLCP4       010VISTA          000000000000870000000008800000000085000000000000000000008700118046000
0202LOTE PADRAO                   CRT CELULAR PNA* EJ    CRTP5       010VISTA          000000000465000000004700000000045100000000000000000004630000000725500
0202LOTE PADRAO                   IPIRANGA PETPN *       PTIP4       010VISTA          000000000013300000000135000000001310000000000000000000135000005685100
0202LOTE PADRAO                   BRASIL T PARPN *       BRTP4       010VISTA          000000000018900000000193000000001880000000000000000000193000077926300
0202LOTE PADRAO                   BRASIL T PARON *       BRTP3       010VISTA          000000000019100000000195000000001910000000000000000000193000011201600
0202LOTE PADRAO                   KLABIN S/A  PN         KLBN4       010VISTA          000000000001280000000012800000000126000000000000000000012700000036600
0202LOTE PADRAO                   ACESITA     PN *       ACES4       010VISTA          000000000000730000000007500000000072000000000000000000007500169614000
0202LOTE PADRAO                   PETROBRAS   PN         PETR4       010VISTA          000000000053900000000553000000005390000000000000000000553000000153900
0202LOTE PADRAO                   ELETROBRAS  PNB*       ELET6       010VISTA          000000000035800000000367000000003510000000000000000000360000036996000
0202LOTE PADRAO                   PETROBRAS   ON         PETR3       010VISTA          000000000055700000000573000000005570000000000000000000572000000058500
0202LOTE PADRAO                   COMGAS      PNA*       CGAS5       010VISTA          000000000092000000000930000000009050000000000000000000910000001328000
0202LOTE PADRAO                   SOUZA CRUZ  ON EJ      CRUZ3       010VISTA          000000000015000000000151000000001480000000000000000000151000000014800
0202LOTE PADRAO                   ELETROBRAS  ON *       ELET3       010VISTA          000000000041200000000423000000004020000000000000000000413000018436900
0202LOTE PADRAO                   CELESC      PNB        CLSC6       010VISTA          000000000000570000000005800000000056000000000000000000005800000204100
0202LOTE PADRAO                   BRADESCO    PN * EJ    BBDC4       010VISTA          000000000013900000000140000000001380000000000000000000140000142540000
0202LOTE PADRAO                   CESP        PN *       CESP4       010VISTA          000000000015800000000161000000001560000000000000000000159000010170000
0202LOTE PADRAO                   LIGHT       ON *       LIGH3       010VISTA          000000000126000000001260000000012400000000000000000001250000001242000
0202LOTE PADRAO                   TELESP CL PAPN *       TSPP4       010VISTA          000000000007400000000075000000000730000000000000000000075000191214000
0202LOTE PADRAO                   VALE R DOCE PNA        VALE5       010VISTA          000000000060200000000614000000005970000000000000000000600000000069700
0202LOTE PADRAO                   COPEL       PNB*       CPLE6       010VISTA          000000000017800000000186000000001780000000000000000000183000055640800
0202LOTE PADRAO                   VALE R DOCE ON         VALE3       010VISTA          000000000061500000000620000000006120000000000000000000617000000007100
0202LOTE PADRAO                   ARACRUZ     PNB        ARCZ6       010VISTA          000000000004790000000051000000000471000000000000000000050000000035600
0202LOTE PADRAO                   TELEMIG PARTPN *       TMCP4       010VISTA          000000000003690000000038000000000369000000000000000000037000284357000
0202LOTE PADRAO                   BRASIL TELECPN *       BRTO4       010VISTA          000000000013700000000140000000001370000000000000000000140000079246800
0202LOTE PADRAO                   SABESP      ON *       SBSP3       010VISTA          000000000129000000001329000000012900000000000000000001326000002499800
0202LOTE PADRAO                   BRASKEM     PNA*       BRKM5       010VISTA          000000000520000000005300000000051500000000000000000005201000000144400
0202LOTE PADRAO                   EMBRAER     PN EJ      EMBR4       010VISTA          000000000013000000000131000000001290000000000000000000130000000162400
0202LOTE PADRAO                   TELESP      PN * EJ    TLPP4       010VISTA          000000000032800000000334000000003200000000000000000000328000012584300
0202LOTE PADRAO                   EMBRAER     ON EJ      EMBR3       010VISTA          000000000012400000000126000000001240000000000000000000126000000029600
0202LOTE PADRAO                   AMBEV       PN *       AMBV4       010VISTA          000000000450000000004685000000045000000000000000000004678000002255600
0202LOTE PADRAO                   USIMINAS    PNA        USIM5       010VISTA          000000000008000000000083000000000800000000000000000000082000000111200
0202LOTE PADRAO                   ELETROPAULO PN *       ELPL4       010VISTA          000000000067500000000685000000006700000000000000000000677000004117900
0202LOTE PADRAO                   TELE NORD CLPN *       TNEP4       010VISTA          000000000003000000000031000000000300000000000000000000030000110245000
0202LOTE PADRAO                   CEMIG       PN * EJ    CMIG4       010VISTA          000000000037500000000378000000003700000000000000000000378000027081000
0202LOTE PADRAO                   TELE CL SUL PN * EJ    TCSL4       010VISTA          000000000003200000000033000000000310000000000000000000033000155370000
0202LOTE PADRAO                   CEMIG       ON * EJ    CMIG3       010VISTA          000000000034000000000348000000003400000000000000000000345000001034100
0202LOTE PADRAO                   TELE CL SUL ON * EJ    TCSL3       010VISTA          000000000002800000000030000000000280000000000000000000030000021874200
0202LOTE PADRAO                   ITAUSA      PN         ITSA4       010VISTA          000000000002300000000024000000000230000000000000000000024000000669700
0202LOTE PADRAO                   V C P       PN *       VCPA4       010VISTA          000000000087400000000887000000008700000000000000000000884000008169300
0202LOTE PADRAO                   SID TUBARAO PN *       CSTB4       010VISTA          000000000023800000000246000000002350000000000000000000242500012562500
0202LOTE PADRAO                   BRADESPAR   PN *       BRAP4       010VISTA          000000000000800000000008100000000079000000000000000000008000176379000
0202LOTE PADRAO                   NET         PN         PLIM4       010VISTA          000000000000700000000007300000000068000000000000000000007200001426300
0202LOTE PADRAO                   TELE CTR OESPN * EJ    TCOC4       010VISTA          000000000004700000000049000000000470000000000000000000048000107458000
0202LOTE PADRAO                   TELEMAR N L PNA* EJ    TMAR5       010VISTA          000000000060500000000615000000006010000000000000000000608000025619300
0202LOTE PADRAO                   GERDAU      PN * EJ    GGBR4       010VISTA          000000000027800000000278000000002650000000000000000000275000007909400
0202LOTE PADRAO                   BRASIL      ON *       BBAS3       010VISTA          000000000010500000000108000000001030000000000000000000106000010498300
