00BDIN9999BOVESPA 99992002070320020703
0101IBOVESPA                      010854010520010868000000000000000000200207030000002002070301063698006400
0202LOTE PADRAO                   EMBRATEL PARPN *       EBTP4       010VISTA          000000000001800000000018000000000175000000000000000000017800481167000
0202LOTE PADRAO                   TRAN PAULISTPN * EJ    TRPL4       010VISTA          000000000006000000000062000000000590000000000000000000061000006951100
0202LOTE PADRAO                   EMBRATEL PARON *       EBTP3       010VISTA          000000000003000000000030000000000280000000000000000000029000054257100
0202LOTE PADRAO                   TELEMAR     PN * EJ    TNLP4       010VISTA          000000000026500000000270000000002600000000000000000000264000238108000
0202LOTE PADRAO                   ITAUBANCO   PN * EJ    ITAU4       010VISTA          000000000161000000001610000000015500000000000000000001560000008821200
0202LOTE PADRAO                   TELEMAR     ON * EJ    TNLP3       010VISTA          000000000021400000000220000000002080000000000000000000213000018891900
0202LOTE PADRAO                   SID NACIONALON *       CSNA3       010VISTA          000000000049000000000492000000004660000000000000000000477000026207000
0202LOTE PADRAO                   TELE LEST CLPN *       TLCP4       010VISTA          000000000000570000000005800000000055000000000000000000005600064487300
0202LOTE PADRAO                   CRT CELULAR PNA* EJ    CRTP5       010VISTA          000000000380000000003850000000037400000000000000000003840000000231200
0202LOTE PADRAO                   IPIRANGA PETPN *       PTIP4       010VISTA          000000000011600000000121000000001140000000000000000000121000000398100
0202LOTE PADRAO                   BRASIL T PARPN *       BRTP4       010VISTA          000000000015000000000156000000001490000000000000000000154000070644400
0202LOTE PADRAO                   BRASIL T PARON *       BRTP3       010VISTA          000000000013500000000143000000001340000000000000000000139000009273600
0202LOTE PADRAO                   KLABIN S/A  PN         KLBN4       010VISTA          000000000000890000000009200000000085000000000000000000008800000090900
0202LOTE PADRAO                   ACESITA     PN *       ACES4       010VISTA          000000000000610000000006100000000059000000000000000000006000192426000
0202LOTE PADRAO                   PETROBRAS   PN         PETR4       010VISTA          000000000047300000000485000000004620000000000000000000468000000091400
0202LOTE PADRAO                   ELETROBRAS  PNB*       ELET6       010VISTA          000000000026300000000263000000002480000000000000000000251000056094000
0202LOTE PADRAO                   PETROBRAS   ON         PETR3       010VISTA          000000000052600000000526000000005060000000000000000000512000000033400
0202LOTE PADRAO                   COMGAS      PNA*       CGAS5       010VISTA          000000000060000000000600000000005700000000000000000000594000000589000
0202LOTE PADRAO                   SOUZA CRUZ  ON EJ      CRUZ3       010VISTA          000000000014000000000143000000001400000000000000000000142000000016600
0202LOTE PADRAO                   ELETROBRAS  ON *       ELET3       010VISTA          000000000029100000000291000000002730000000000000000000278000014135400
0202LOTE PADRAO                   CELESC      PNB        CLSC6       010VISTA          000000000000580000000005900000000056000000000000000000005600000245000
0202LOTE PADRAO                   BRADESCO    PN * EJ    BBDC4       010VISTA          000000000010800000000110000000001050000000000000000000106000214899000
0202LOTE PADRAO                   CESP        PN *       CESP4       010VISTA          000000000008600000000086000000000830000000000000000000083000009687100
0202LOTE PADRAO                   LIGHT       ON *       LIGH3       010VISTA          000000000085000000000879000000008400000000000000000000840000000303000
0202LOTE PADRAO                   TELESP CL PAPN *       TSPP4       010VISTA          000000000003800000000039000000000377000000000000000000038000204014000
0202LOTE PADRAO                   VALE R DOCE PNA        VALE5       010VISTA          000000000072200000000732000000007000000000000000000000725000000044100
0202LOTE PADRAO                   COPEL       PNB*       CPLE6       010VISTA          000000000011000000000111000000001060000000000000000000109000054137500
0202LOTE PADRAO                   VALE R DOCE ON         VALE3       010VISTA          000000000078000000000787000000007750000000000000000000785000000010800
0202LOTE PADRAO                   ARACRUZ     PNB        ARCZ6       010VISTA          000000000005500000000055000000000530000000000000000000054000000114200
0202LOTE PADRAO                   TELEMIG PARTPN *       TMCP4       010VISTA          000000000002700000000028000000000273000000000000000000027000054332600
0202LOTE PADRAO                   BRASIL TELECPN *       BRTO4       010VISTA          000000000010300000000108000000001030000000000000000000107500060250600
0202LOTE PADRAO                   SABESP      ON *       SBSP3       010VISTA          000000000097000000000970000000009500000000000000000000950000003940900
0202LOTE PADRAO                   BRASKEM     PNA*       BRKM5       010VISTA          000000000387000000003998000000037500000000000000000003820000000119000
0202LOTE PADRAO                   EMBRAER     PN EJ      EMBR4       010VISTA          000000000014900000000150000000001430000000000000000000147500000045800
0202LOTE PADRAO                   TELESP      PN * EJ    TLPP4       010VISTA          000000000032000000000320000000003070000000000000000000314000010568400
0202LOTE PADRAO                   EMBRAER     ON EJ      EMBR3       010VISTA          000000000013400000000136000000001320000000000000000000134000000021600
0202LOTE PADRAO                   AMBEV       PN *       AMBV4       010VISTA          000000000440000000004449000000043700000000000000000004380000001816100
0202LOTE PADRAO                   USIMINAS    PNA        USIM5       010VISTA          000000000006700000000067900000000650000000000000000000065000000049500
0202LOTE PADRAO                   ELETROPAULO PN *       ELPL4       010VISTA          000000000042200000000427000000004060000000000000000000427000004413600
0202LOTE PADRAO                   TELE NORD CLPN *       TNEP4       010VISTA          000000000002600000000026000000000250000000000000000000025600087443600
0202LOTE PADRAO                   CEMIG       PN * EJ    CMIG4       010VISTA          000000000030100000000313000000002960000000000000000000309000026824300
0202LOTE PADRAO                   TELE CL SUL PN * EJ    TCSL4       010VISTA          000000000003100000000031000000000294000000000000000000030000056199400
0202LOTE PADRAO                   TRACTEBEL   ON *       TBLE3       010VISTA          000000000003800000000040000000000380000000000000000000039000010870000
0202LOTE PADRAO                   CEMIG       ON * EJ    CMIG3       010VISTA          000000000028000000000288000000002750000000000000000000278000000694800
0202LOTE PADRAO                   TELE CL SUL ON * EJ    TCSL3       010VISTA          000000000002480000000025000000000230000000000000000000024000009646200
0202LOTE PADRAO                   ITAUSA      PN         ITSA4       010VISTA          000000000001800000000018000000000180000000000000000000018000000278800
0202LOTE PADRAO                   V C P       PN *       VCPA4       010VISTA          000000000104000000001055000000010250000000000000000001039000001509200
0202LOTE PADRAO                   SID TUBARAO PN *       CSTB4       010VISTA          000000000028100000000283000000002700000000000000000000271000008376500
0202LOTE PADRAO                   BRADESPAR   PN *       BRAP4       010VISTA          000000000000530000000005400000000050000000000000000000005000312235000
0202LOTE PADRAO                   NET         PN         PLIM4       010VISTA          000000000001720000000017300000000151000000000000000000015400000190000
0202LOTE PADRAO                   TELE CTR OESPN * EJ    TCOC4       010VISTA          000000000003800000000039000000000369000000000000000000036900134527000
0202LOTE PADRAO                   TELEMAR N L PNA* EJ    TMAR5       010VISTA          000000000047500000000475000000004620000000000000000000466000019259800
0202LOTE PADRAO                   GERDAU      PN * EJ    GGBR4       010VISTA          000000000030000000000308000000002950000000000000000000298000009008800
0202LOTE PADRAO                   BRASIL      ON *       BBAS3       010VISTA          000000000008500000000087500000000840000000000000000000085000008392200
