00BDIN9999BOVESPA 99992002100320021003
0101IBOVESPA                      0088520088070091700000000000000000002002100300000020021003009140000000
0202LOTE PADRAO                   EMBRATEL PARPN *       EBTP4       010VISTA          000000000002300000000023000000000220000000000000000000023000139747000
0202LOTE PADRAO                   TRAN PAULISTPN * EJ    TRPL4       010VISTA          000000000005000000000051000000000500000000000000000000051000016646400
0202LOTE PADRAO                   EMBRATEL PARON *       EBTP3       010VISTA          000000000002900000000030000000000280000000000000000000030000031812100
0202LOTE PADRAO                   TELEMAR     PN * EJ    TNLP4       010VISTA          000000000021800000000226000000002140000000000000000000224000212999000
0202LOTE PADRAO                   ITAUBANCO   PN * EJ    ITAU4       010VISTA          000000000127500000001325000000012750000000000000000001324000020702100
0202LOTE PADRAO                   TELEMAR     ON * EJ    TNLP3       010VISTA          000000000016100000000168000000001600000000000000000000166000012733700
0202LOTE PADRAO                   SID NACIONALON *       CSNA3       010VISTA          000000000030000000000318000000002910000000000000000000318000018274000
0202LOTE PADRAO                   TELE LEST CLPN *       TLCP4       010VISTA          000000000000370000000003700000000035000000000000000000003700039279500
0202LOTE PADRAO                   CRT CELULAR PNA* EJ    CRTP5       010VISTA          000000000320000000003250000000031800000000000000000003240000000498400
0202LOTE PADRAO                   IPIRANGA PETPN *       PTIP4       010VISTA          000000000008600000000088000000000850000000000000000000088000000453800
0202LOTE PADRAO                   BRASIL T PARPN *       BRTP4       010VISTA          000000000017100000000183000000001710000000000000000000182000041102500
0202LOTE PADRAO                   BRASIL T PARON *       BRTP3       010VISTA          000000000013000000000135000000001300000000000000000000135000007204600
0202LOTE PADRAO                   KLABIN S/A  PN         KLBN4       010VISTA          000000000000840000000008900000000084000000000000000000008600000009400
0202LOTE PADRAO                   ACESITA     PN *       ACES4       010VISTA          000000000000600000000006000000000058000000000000000000005800101151000
0202LOTE PADRAO                   PETROBRAS   PN         PETR4       010VISTA          000000000039750000000413000000003920000000000000000000406000000091700
0202LOTE PADRAO                   ELETROBRAS  PNB*       ELET6       010VISTA          000000000016300000000167000000001590000000000000000000166000031462900
0202LOTE PADRAO                   PETROBRAS   ON         PETR3       010VISTA          000000000043700000000462000000004320000000000000000000455000000026600
0202LOTE PADRAO                   COMGAS      PNA*       CGAS5       010VISTA          000000000056000000000580000000005600000000000000000000560000000283600
0202LOTE PADRAO                   SOUZA CRUZ  ON EJ      CRUZ3       010VISTA          000000000016500000000173000000001620000000000000000000171000000031100
0202LOTE PADRAO                   ELETROBRAS  ON *       ELET3       010VISTA          000000000016000000000168000000001580000000000000000000163000020060500
0202LOTE PADRAO                   CELESC      PNB        CLSC6       010VISTA          000000000000520000000005300000000050000000000000000000005100000195500
0202LOTE PADRAO                   BRADESCO    PN * EJ    BBDC4       010VISTA          000000000008600000000090000000000850000000000000000000090000356315000
0202LOTE PADRAO                   CESP        PN *       CESP4       010VISTA          000000000005900000000060000000000570000000000000000000060000006278100
0202LOTE PADRAO                   LIGHT       ON *       LIGH3       010VISTA          000000000056000000000560000000005460000000000000000000547000000063200
0202LOTE PADRAO                   TELESP CL PAPN *       TSPP4       010VISTA          000000000002800000000029800000000277000000000000000000029800321126000
0202LOTE PADRAO                   VALE R DOCE PNA        VALE5       010VISTA          000000000081500000000844000000008150000000000000000000844000000015300
0202LOTE PADRAO                   COPEL       PNB*       CPLE6       010VISTA          000000000007600000000080000000000750000000000000000000079000023009100
0202LOTE PADRAO                   VALE R DOCE ON         VALE3       010VISTA          000000000086000000000870000000008480000000000000000000870000000034900
0202LOTE PADRAO                   ARACRUZ     PNB        ARCZ6       010VISTA          000000000005300000000054000000000530000000000000000000053000000034200
0202LOTE PADRAO                   TELEMIG PARTPN *       TMCP4       010VISTA          000000000002500000000026000000000250000000000000000000025600095954700
0202LOTE PADRAO                   BRASIL TELECPN *       BRTO4       010VISTA          000000000011100000000117000000001100000000000000000000117000091750900
0202LOTE PADRAO                   SABESP      ON *       SBSP3       010VISTA          000000000078600000000812000000007720000000000000000000809000002538300
0202LOTE PADRAO                   BRASKEM     PNA*       BRKM5       010VISTA          000000000219000000002330000000021900000000000000000002300000000075500
0202LOTE PADRAO                   EMBRAER     PN EJ      EMBR4       010VISTA          000000000013300000000135000000001330000000000000000000134000000124000
0202LOTE PADRAO                   TELESP      PN * EJ    TLPP4       010VISTA          000000000030400000000310000000003030000000000000000000310000016056500
0202LOTE PADRAO                   EMBRAER     ON EJ      EMBR3       010VISTA          000000000012500000000125000000001230000000000000000000124000000006800
0202LOTE PADRAO                   AMBEV       PN *       AMBV4       010VISTA          000000000430000000004400000000042700000000000000000004390000003620000
0202LOTE PADRAO                   USIMINAS    PNA        USIM5       010VISTA          000000000004500000000046000000000440000000000000000000046000000069100
0202LOTE PADRAO                   ELETROPAULO PN *       ELPL4       010VISTA          000000000024900000000249000000002410000000000000000000249000001651200
0202LOTE PADRAO                   TELE NORD CLPN *       TNEP4       010VISTA          000000000002200000000023000000000220000000000000000000022000068878500
0202LOTE PADRAO                   CEMIG       PN * EJ    CMIG4       010VISTA          000000000022600000000226000000002180000000000000000000225000044444800
0202LOTE PADRAO                   TELE CL SUL PN * EJ    TCSL4       010VISTA          000000000002300000000024000000000230000000000000000000024000044932000
0202LOTE PADRAO                   TRACTEBEL   ON *       TBLE3       010VISTA          000000000003800000000039600000000380000000000000000000038000002638400
0202LOTE PADRAO                   CEMIG       ON * EJ    CMIG3       010VISTA          000000000020300000000210000000002030000000000000000000206000000227700
0202LOTE PADRAO                   TELE CL SUL ON * EJ    TCSL3       010VISTA          000000000001900000000020000000000190000000000000000000020000008953800
0202LOTE PADRAO                   ITAUSA      PN         ITSA4       010VISTA          000000000001520000000015000000000151000000000000000000015000000470700
0202LOTE PADRAO                   V C P       PN *       VCPA4       010VISTA          000000000105500000001097000000010550000000000000000001090000005878400
0202LOTE PADRAO                   SID TUBARAO PN *       CSTB4       010VISTA          000000000029500000000298000000002930000000000000000000295000005547300
0202LOTE PADRAO                   BRADESPAR   PN *       BRAP4       010VISTA          000000000000440000000004500000000043000000000000000000004500065779900
0202LOTE PADRAO                   NET         PN         PLIM4       010VISTA          000000000000240000000002500000000023000000000000000000002400000489800
0202LOTE PADRAO                   TELE CTR OESPN * EJ    TCOC4       010VISTA          000000000002800000000030000000000270000000000000000000030000090038300
0202LOTE PADRAO                   TELEMAR N L PNA* EJ    TMAR5       010VISTA          000000000041300000000424000000004050000000000000000000420000008473000
0202LOTE PADRAO                   GERDAU      PN * EJ    GGBR4       010VISTA          000000000028100000000295000000002810000000000000000000291000019684600
0202LOTE PADRAO                   BRASIL      ON *       BBAS3       010VISTA          000000000008500000000087000000000830000000000000000000086000014358300
