00BDIN9999BOVESPA 99992002040220020402
0101IBOVESPA                      0134820132450135350000000000000000002002040200000020020402013245000000
0202LOTE PADRAO                   EMBRATEL PARPN *       EBTP4       010VISTA          000000000007750000000078000000000740000000000000000000074000074519400
0202LOTE PADRAO                   TRAN PAULISTPN * EJ    TRPL4       010VISTA          000000000007400000000074000000000725000000000000000000072000006219400
0202LOTE PADRAO                   EMBRATEL PARON *       EBTP3       010VISTA          000000000009000000000090000000000890000000000000000000089000012807500
0202LOTE PADRAO                   TELEMAR     PN * EJ    TNLP4       010VISTA          000000000030000000000311000000002960000000000000000000300000391918000
0202LOTE PADRAO                   ITAUBANCO   PN * EJ    ITAU4       010VISTA          000000000188000000001907500000018610000000000000000001865000013264400
0202LOTE PADRAO                   TELEMAR     ON * EJ    TNLP3       010VISTA          000000000026500000000276000000002630000000000000000000265000012934300
0202LOTE PADRAO                   SID NACIONALON *       CSNA3       010VISTA          000000000043000000000432000000004270000000000000000000432000007403900
0202LOTE PADRAO                   TELE LEST CLPN *       TLCP4       010VISTA          000000000000810000000008200000000080000000000000000000008000140434000
0202LOTE PADRAO                   CRT CELULAR PNA* EJ    CRTP5       010VISTA          000000000442000000004500000000044100000000000000000004500000000744100
0202LOTE PADRAO                   IPIRANGA PETPN *       PTIP4       010VISTA          000000000013900000000143000000001390000000000000000000142000001451200
0202LOTE PADRAO                   BRASIL T PARPN *       BRTP4       010VISTA          000000000018000000000183000000001740000000000000000000174000090693700
0202LOTE PADRAO                   BRASIL T PARON *       BRTP3       010VISTA          000000000017500000000178000000001710000000000000000000173000009438100
0202LOTE PADRAO                   KLABIN S/A  PN         KLBN4       010VISTA          000000000001100000000011000000000110000000000000000000011000000009300
0202LOTE PADRAO                   ACESITA     PN *       ACES4       010VISTA          000000000000750000000007600000000074000000000000000000007500185649000
0202LOTE PADRAO                   PETROBRAS   PN         PETR4       010VISTA          000000000059500000000595000000005820000000000000000000582000000110000
0202LOTE PADRAO                   ELETROBRAS  PNB*       ELET6       010VISTA          000000000035300000000355000000003460000000000000000000346000043938200
0202LOTE PADRAO                   PETROBRAS   ON         PETR3       010VISTA          000000000063000000000630000000006170000000000000000000617000000030000
0202LOTE PADRAO                   COMGAS      PNA*       CGAS5       010VISTA          000000000080000000000800000000007800000000000000000000785000001319200
0202LOTE PADRAO                   SOUZA CRUZ  ON EJ      CRUZ3       010VISTA          000000000015000000000151000000001480000000000000000000148000000025600
0202LOTE PADRAO                   ELETROBRAS  ON *       ELET3       010VISTA          000000000039000000000402000000003880000000000000000000388000006837300
0202LOTE PADRAO                   CELESC      PNB        CLSC6       010VISTA          000000000000560000000005700000000055000000000000000000005500000150100
0202LOTE PADRAO                   BRADESCO    PN * EJ    BBDC4       010VISTA          000000000014500000000146000000001410000000000000000000141000242311000
0202LOTE PADRAO                   CESP        PN *       CESP4       010VISTA          000000000014500000000148000000001410000000000000000000141000005560100
0202LOTE PADRAO                   LIGHT       ON *       LIGH3       010VISTA          000000000102500000001050000000010250000000000000000001025000000654000
0202LOTE PADRAO                   TELESP CL PAPN *       TSPP4       010VISTA          000000000005700000000058000000000560000000000000000000056000212563000
0202LOTE PADRAO                   VALE R DOCE PNA        VALE5       010VISTA          000000000061600000000617500000006100000000000000000000612000000028200
0202LOTE PADRAO                   COPEL       PNB*       CPLE6       010VISTA          000000000017800000000182000000001760000000000000000000176000032105200
0202LOTE PADRAO                   VALE R DOCE ON         VALE3       010VISTA          000000000062600000000629000000006210000000000000000000622000000043200
0202LOTE PADRAO                   ARACRUZ     PNB        ARCZ6       010VISTA          000000000004800000000048000000000471000000000000000000047100000056000
0202LOTE PADRAO                   TELEMIG PARTPN *       TMCP4       010VISTA          000000000003200000000032000000000310000000000000000000032000063116800
0202LOTE PADRAO                   BRASIL TELECPN *       BRTO4       010VISTA          000000000013000000000130000000001260000000000000000000128000057539900
0202LOTE PADRAO                   SABESP      ON *       SBSP3       010VISTA          000000000128100000001294000000012710000000000000000001271000001818100
0202LOTE PADRAO                   BRASKEM     PNA*       BRKM5       010VISTA          000000000526000000005345000000051700000000000000000005200000000155500
0202LOTE PADRAO                   EMBRAER     PN EJ      EMBR4       010VISTA          000000000011900000000120000000001180000000000000000000118000000129800
0202LOTE PADRAO                   TELESP      PN * EJ    TLPP4       010VISTA          000000000035000000000352500000003420000000000000000000346000010715600
0202LOTE PADRAO                   EMBRAER     ON EJ      EMBR3       010VISTA          000000000011000000000111000000001090000000000000000000109000000012500
0202LOTE PADRAO                   AMBEV       PN *       AMBV4       010VISTA          000000000469800000004698000000045300000000000000000004530000001676100
0202LOTE PADRAO                   USIMINAS    PNA        USIM5       010VISTA          000000000007500000000076000000000740000000000000000000075000000042000
0202LOTE PADRAO                   ELETROPAULO PN *       ELPL4       010VISTA          000000000071700000000717000000006650000000000000000000667000002734000
0202LOTE PADRAO                   TELE NORD CLPN *       TNEP4       010VISTA          000000000002700000000027000000000269000000000000000000027000118134000
0202LOTE PADRAO                   CEMIG       PN * EJ    CMIG4       010VISTA          000000000035800000000362000000003510000000000000000000352000032691500
0202LOTE PADRAO                   TELE CL SUL PN * EJ    TCSL4       010VISTA          000000000003000000000031000000000290000000000000000000029800114003000
0202LOTE PADRAO                   TRACTEBEL   ON *       TBLE3       010VISTA          000000000004500000000045000000000420000000000000000000042000024985400
0202LOTE PADRAO                   CEMIG       ON * EJ    CMIG3       010VISTA          000000000031300000000323000000003130000000000000000000318000000233900
0202LOTE PADRAO                   TELE CL SUL ON * EJ    TCSL3       010VISTA          000000000002700000000027000000000260000000000000000000026000022220900
0202LOTE PADRAO                   ITAUSA      PN         ITSA4       010VISTA          000000000002300000000023000000000230000000000000000000023000000388500
0202LOTE PADRAO                   V C P       PN *       VCPA4       010VISTA          000000000088900000000889000000008650000000000000000000885000003361600
0202LOTE PADRAO                   SID TUBARAO PN *       CSTB4       010VISTA          000000000025300000000256000000002500000000000000000000250000006729300
0202LOTE PADRAO                   BRADESPAR   PN *       BRAP4       010VISTA          000000000000760000000007700000000073000000000000000000007300107226000
0202LOTE PADRAO                   NET         PN         PLIM4       010VISTA          000000000000510000000005200000000050000000000000000000005000001507000
0202LOTE PADRAO                   TELE CTR OESPN * EJ    TCOC4       010VISTA          000000000004600000000047000000000460000000000000000000047000082485400
0202LOTE PADRAO                   TELEMAR N L PNA* EJ    TMAR5       010VISTA          000000000052400000000530000000005160000000000000000000521000052244500
0202LOTE PADRAO                   GERDAU      PN * EJ    GGBR4       010VISTA          000000000028100000000281000000002730000000000000000000273000009163000
0202LOTE PADRAO                   BRASIL      ON *       BBAS3       010VISTA          000000000012000000000121000000001175000000000000000000117500003071500
