00BDIN9999BOVESPA 99992002011020020110
0101IBOVESPA                      0140100135110140100000000000000000002002011000000020020110013570000000
0202LOTE PADRAO                   EMBRATEL PARPN *       EBTP4       010VISTA          000000000010600000000106000000001030000000000000000000105000137573000
0202LOTE PADRAO                   EMBRATEL PARON *       EBTP3       010VISTA          000000000011400000000116000000001130000000000000000000115000014708400
0202LOTE PADRAO                   TRAN PAULISTPN * EJ    TRPL4       010VISTA          000000000006500000000065000000000630000000000000000000065000015402900
0202LOTE PADRAO                   TELEMAR     PN * EJ    TNLP4       010VISTA          000000000036700000000367000000003500000000000000000000356000329048000
0202LOTE PADRAO                   ITAUBANCO   PN * EJ    ITAU4       010VISTA          000000000178000000001780000000017500000000000000000001750000007169500
0202LOTE PADRAO                   TELEMAR     ON * EJ    TNLP3       010VISTA          000000000031600000000318000000003050000000000000000000306000013628100
0202LOTE PADRAO                   SID NACIONALON *       CSNA3       010VISTA          000000000038000000000408000000003800000000000000000000403000033879000
0202LOTE PADRAO                   TELE LEST CLPN *       TLCP4       010VISTA          000000000000960000000009600000000092000000000000000000009200166307000
0202LOTE PADRAO                   CRT CELULAR PNA* EJ    CRTP5       010VISTA          000000000525000000005250000000050000000000000000000005149000001103600
0202LOTE PADRAO                   IPIRANGA PETPN *       PTIP4       010VISTA          000000000013100000000135000000001260000000000000000000130000018683100
0202LOTE PADRAO                   BRASIL T PARPN *       BRTP4       010VISTA          000000000019300000000193000000001830000000000000000000184000105621000
0202LOTE PADRAO                   BRASIL T PARON *       BRTP3       010VISTA          000000000019100000000193000000001800000000000000000000180000011978800
0202LOTE PADRAO                   KLABIN S/A  PN         KLBN4       010VISTA          000000000001100000000012000000000110000000000000000000012000000038400
0202LOTE PADRAO                   ACESITA     PN *       ACES4       010VISTA          000000000000690000000006900000000067000000000000000000006900167574000
0202LOTE PADRAO                   PETROBRAS   PN         PETR4       010VISTA          000000000050700000000512500000005050000000000000000000509000000089900
0202LOTE PADRAO                   ELETROBRAS  PNB*       ELET6       010VISTA          000000000029800000000298000000002710000000000000000000273000237733000
0202LOTE PADRAO                   PETROBRAS   ON         PETR3       010VISTA          000000000052500000000528000000005210000000000000000000527000000015800
0202LOTE PADRAO                   COMGAS      PNA*       CGAS5       010VISTA          000000000088000000000895000000008710000000000000000000894000000438400
0202LOTE PADRAO                   SOUZA CRUZ  ON EJ      CRUZ3       010VISTA          000000000014400000000145000000001430000000000000000000145000000024400
0202LOTE PADRAO                   ELETROBRAS  ON *       ELET3       010VISTA          000000000032500000000325000000003100000000000000000000311000164798000
0202LOTE PADRAO                   CELESC      PNB        CLSC6       010VISTA          000000000000470000000004800000000046000000000000000000004700000292300
0202LOTE PADRAO                   BRADESCO    PN * EJ    BBDC4       010VISTA          000000000012300000000124000000001200000000000000000000120000107612000
0202LOTE PADRAO                   CESP        PN *       CESP4       010VISTA          000000000015100000000151000000001350000000000000000000135000035677900
0202LOTE PADRAO                   LIGHT       ON *       LIGH3       010VISTA          000000000128000000001320000000012750000000000000000001275000000825300
0202LOTE PADRAO                   TELESP CL PAPN *       TSPP4       010VISTA          000000000008500000000085000000000800000000000000000000080000465629000
0202LOTE PADRAO                   VALE R DOCE PNA        VALE5       010VISTA          000000000054000000000545000000005400000000000000000000545000000042100
0202LOTE PADRAO                   COPEL       PNB*       CPLE6       010VISTA          000000000016600000000166000000001520000000000000000000155000151356000
0202LOTE PADRAO                   VALE R DOCE ON         VALE3       010VISTA          000000000053000000000540000000005300000000000000000000540000000001500
0202LOTE PADRAO                   ARACRUZ     PNB        ARCZ6       010VISTA          000000000004400000000045000000000440000000000000000000045000000070300
0202LOTE PADRAO                   TELEMIG PARTPN *       TMCP4       010VISTA          000000000004300000000043000000000420000000000000000000042000072631200
0202LOTE PADRAO                   BRASIL TELECPN *       BRTO4       010VISTA          000000000013500000000136000000001300000000000000000000131000069521000
0202LOTE PADRAO                   SABESP      ON *       SBSP3       010VISTA          000000000133000000001330000000013000000000000000000001300000001305500
0202LOTE PADRAO                   BRASKEM     PNA*       BRKM5       010VISTA          000000000508000000005300000000050800000000000000000005300000000149000
0202LOTE PADRAO                   EMBRAER     PN EJ      EMBR4       010VISTA          000000000013900000000143000000001350000000000000000000135000000036800
0202LOTE PADRAO                   TELESP      PN * EJ    TLPP4       010VISTA          000000000031100000000311000000003000000000000000000000311000004593500
0202LOTE PADRAO                   EMBRAER     ON EJ      EMBR3       010VISTA          000000000012800000000129000000001240000000000000000000124000000019200
0202LOTE PADRAO                   AMBEV       PN *       AMBV4       010VISTA          000000000494000000004940000000048800000000000000000004919000001090900
0202LOTE PADRAO                   USIMINAS    PNA        USIM5       010VISTA          000000000006700000000068000000000670000000000000000000067500000042800
0202LOTE PADRAO                   ELETROPAULO PN *       ELPL4       010VISTA          000000000081000000000820000000008050000000000000000000809000006850900
0202LOTE PADRAO                   TELE NORD CLPN *       TNEP4       010VISTA          000000000003400000000035000000000320000000000000000000033000048003700
0202LOTE PADRAO                   CEMIG       PN * EJ    CMIG4       010VISTA          000000000033400000000334000000003150000000000000000000315000125848000
0202LOTE PADRAO                   TELE CL SUL PN * EJ    TCSL4       010VISTA          000000000003600000000037000000000350000000000000000000035000047523300
0202LOTE PADRAO                   CEMIG       ON * EJ    CMIG3       010VISTA          000000000030500000000305000000003000000000000000000000300000002850000
0202LOTE PADRAO                   TELE CL SUL ON * EJ    TCSL3       010VISTA          000000000003000000000031000000000300000000000000000000030000021484000
0202LOTE PADRAO                   ITAUSA      PN         ITSA4       010VISTA          000000000002200000000022500000000210000000000000000000021000000381900
0202LOTE PADRAO                   V C P       PN *       VCPA4       010VISTA          000000000082000000000850000000008200000000000000000000845000001323000
0202LOTE PADRAO                   SID TUBARAO PN *       CSTB4       010VISTA          000000000022600000000236000000002260000000000000000000231000001241500
0202LOTE PADRAO                   BRADESPAR   PN *       BRAP4       010VISTA          000000000000790000000007900000000075000000000000000000007600190087000
0202LOTE PADRAO                   NET         PN         PLIM4       010VISTA          000000000000810000000008100000000079000000000000000000008000000774500
0202LOTE PADRAO                   TELE CTR OESPN * EJ    TCOC4       010VISTA          000000000005500000000055000000000510000000000000000000052000172009000
0202LOTE PADRAO                   TELEMAR N L PNA* EJ    TMAR5       010VISTA          000000000062100000000621000000005900000000000000000000601000021676200
0202LOTE PADRAO                   GERDAU      PN * EJ    GGBR4       010VISTA          000000000026300000000263000000002600000000000000000000261000023609000
0202LOTE PADRAO                   BRASIL      ON *       BBAS3       010VISTA          000000000010400000000105000000001010000000000000000000101000004556900
