00BDIN9999BOVESPA 99992002090520020905
0101IBOVESPA                      0099930097090099930000000000000000002002090500000020020905009723000000
0202LOTE PADRAO                   EMBRATEL PARPN *       EBTP4       010VISTA          000000000002250000000024000000000220000000000000000000022000486246000
0202LOTE PADRAO                   TRAN PAULISTPN * EJ    TRPL4       010VISTA          000000000005200000000053000000000510000000000000000000052000020947800
0202LOTE PADRAO                   EMBRATEL PARON *       EBTP3       010VISTA          000000000002900000000030000000000270000000000000000000028000058784200
0202LOTE PADRAO                   TELEMAR     PN * EJ    TNLP4       010VISTA          000000000025000000000251000000002430000000000000000000244000206483000
0202LOTE PADRAO                   ITAUBANCO   PN * EJ    ITAU4       010VISTA          000000000140000000001400000000013690000000000000000001370000013868300
0202LOTE PADRAO                   TELEMAR     ON * EJ    TNLP3       010VISTA          000000000019000000000192000000001850000000000000000000186000013004100
0202LOTE PADRAO                   SID NACIONALON *       CSNA3       010VISTA          000000000038700000000388000000003810000000000000000000387000011929500
0202LOTE PADRAO                   TELE LEST CLPN *       TLCP4       010VISTA          000000000000430000000004300000000040000000000000000000004000244470000
0202LOTE PADRAO                   CRT CELULAR PNA* EJ    CRTP5       010VISTA          000000000346000000003649000000034600000000000000000003550000000913900
0202LOTE PADRAO                   IPIRANGA PETPN *       PTIP4       010VISTA          000000000011100000000111000000001040000000000000000000104000004232000
0202LOTE PADRAO                   BRASIL T PARPN *       BRTP4       010VISTA          000000000016900000000173000000001680000000000000000000168000066397400
0202LOTE PADRAO                   BRASIL T PARON *       BRTP3       010VISTA          000000000013250000000132500000001260000000000000000000129000005960900
0202LOTE PADRAO                   KLABIN S/A  PN         KLBN4       010VISTA          000000000000860000000008900000000085000000000000000000008700000021500
0202LOTE PADRAO                   ACESITA     PN *       ACES4       010VISTA          000000000000640000000006500000000063000000000000000000006500167742000
0202LOTE PADRAO                   PETROBRAS   PN         PETR4       010VISTA          000000000044500000000459000000004430000000000000000000450000000079000
0202LOTE PADRAO                   ELETROBRAS  PNB*       ELET6       010VISTA          000000000019750000000197500000001880000000000000000000190000056563100
0202LOTE PADRAO                   PETROBRAS   ON         PETR3       010VISTA          000000000049500000000511000000004950000000000000000000502000000043800
0202LOTE PADRAO                   COMGAS      PNA*       CGAS5       010VISTA          000000000058000000000587500000005600000000000000000000575000000726800
0202LOTE PADRAO                   SOUZA CRUZ  ON EJ      CRUZ3       010VISTA          000000000014900000000149000000001480000000000000000000148000000010600
0202LOTE PADRAO                   ELETROBRAS  ON *       ELET3       010VISTA          000000000019500000000200000000001910000000000000000000193000018206800
0202LOTE PADRAO                   CELESC      PNB        CLSC6       010VISTA          000000000000540000000005600000000053000000000000000000005600000083100
0202LOTE PADRAO                   BRADESCO    PN * EJ    BBDC4       010VISTA          000000000009800000000098000000000950000000000000000000095000240905000
0202LOTE PADRAO                   CESP        PN *       CESP4       010VISTA          000000000007300000000076000000000700000000000000000000070000016643300
0202LOTE PADRAO                   LIGHT       ON *       LIGH3       010VISTA          000000000071500000000719000000006900000000000000000000692000000188700
0202LOTE PADRAO                   TELESP CL PAPN *       TSPP4       010VISTA          000000000003600000000037000000000340000000000000000000034000405220000
0202LOTE PADRAO                   VALE R DOCE PNA        VALE5       010VISTA          000000000070000000000713000000006920000000000000000000712000000015400
0202LOTE PADRAO                   COPEL       PNB*       CPLE6       010VISTA          000000000009900000000099000000000940000000000000000000095000035203100
0202LOTE PADRAO                   VALE R DOCE ON         VALE3       010VISTA          000000000076500000000792000000007650000000000000000000785000000006300
0202LOTE PADRAO                   ARACRUZ     PNB        ARCZ6       010VISTA          000000000005400000000054000000000530000000000000000000054000000049700
0202LOTE PADRAO                   TELEMIG PARTPN *       TMCP4       010VISTA          000000000002790000000027900000000260000000000000000000026000133440000
0202LOTE PADRAO                   BRASIL TELECPN *       BRTO4       010VISTA          000000000011500000000115000000001130000000000000000000113000068576600
0202LOTE PADRAO                   SABESP      ON *       SBSP3       010VISTA          000000000083900000000839000000008150000000000000000000820000004187900
0202LOTE PADRAO                   BRASKEM     PNA*       BRKM5       010VISTA          000000000278500000002855000000027000000000000000000002760000000308900
0202LOTE PADRAO                   EMBRAER     PN EJ      EMBR4       010VISTA          000000000013000000000134000000001290000000000000000000132500000083800
0202LOTE PADRAO                   TELESP      PN * EJ    TLPP4       010VISTA          000000000032100000000330000000003180000000000000000000327000010298600
0202LOTE PADRAO                   EMBRAER     ON EJ      EMBR3       010VISTA          000000000012000000000120000000001150000000000000000000118000000035500
0202LOTE PADRAO                   AMBEV       PN *       AMBV4       010VISTA          000000000420000000004270000000041880000000000000000004220000000977900
0202LOTE PADRAO                   USIMINAS    PNA        USIM5       010VISTA          000000000005700000000057100000000540000000000000000000054000000094000
0202LOTE PADRAO                   ELETROPAULO PN *       ELPL4       010VISTA          000000000032700000000327000000003010000000000000000000301000002726300
0202LOTE PADRAO                   TELE NORD CLPN *       TNEP4       010VISTA          000000000002500000000026000000000240000000000000000000025000138800000
0202LOTE PADRAO                   CEMIG       PN * EJ    CMIG4       010VISTA          000000000025800000000258000000002430000000000000000000255000041914100
0202LOTE PADRAO                   TELE CL SUL PN * EJ    TCSL4       010VISTA          000000000002500000000026000000000250000000000000000000025000151840000
0202LOTE PADRAO                   TRACTEBEL   ON *       TBLE3       010VISTA          000000000003800000000040000000000380000000000000000000039400066426200
0202LOTE PADRAO                   CEMIG       ON * EJ    CMIG3       010VISTA          000000000023000000000234000000002260000000000000000000231000000311700
0202LOTE PADRAO                   TELE CL SUL ON * EJ    TCSL3       010VISTA          000000000002000000000021000000000200000000000000000000020000018124600
0202LOTE PADRAO                   ITAUSA      PN         ITSA4       010VISTA          000000000001740000000017400000000160000000000000000000016000000289000
0202LOTE PADRAO                   V C P       PN *       VCPA4       010VISTA          000000000102500000001050000000010150000000000000000001050000002127300
0202LOTE PADRAO                   SID TUBARAO PN *       CSTB4       010VISTA          000000000024000000000248000000002360000000000000000000248000002776500
0202LOTE PADRAO                   BRADESPAR   PN *       BRAP4       010VISTA          000000000000480000000004800000000047000000000000000000004700135939000
0202LOTE PADRAO                   NET         PN         PLIM4       010VISTA          000000000000420000000004600000000041000000000000000000004400001441600
0202LOTE PADRAO                   TELE CTR OESPN * EJ    TCOC4       010VISTA          000000000003100000000031000000000280000000000000000000029000159534000
0202LOTE PADRAO                   TELEMAR N L PNA* EJ    TMAR5       010VISTA          000000000043900000000443000000004300000000000000000000431000010356600
0202LOTE PADRAO                   GERDAU      PN * EJ    GGBR4       010VISTA          000000000031800000000327000000003180000000000000000000327000011033900
0202LOTE PADRAO                   BRASIL      ON *       BBAS3       010VISTA          000000000010100000000101000000000960000000000000000000098000003665400
