00BDIN9999BOVESPA 99992002110620021106
0101IBOVESPA                      0098570095830098610000000000000000002002110600000020021106009703000000
0202LOTE PADRAO                   EMBRATEL PARPN *       EBTP4       010VISTA          000000000002200000000022000000000210000000000000000000021000299744000
0202LOTE PADRAO                   TRAN PAULISTPN * EJ    TRPL4       010VISTA          000000000005200000000052000000000500000000000000000000050000022953500
0202LOTE PADRAO                   EMBRATEL PARON *       EBTP3       010VISTA          000000000002600000000026000000000230000000000000000000024000038408900
0202LOTE PADRAO                   TELEMAR     PN * EJ    TNLP4       010VISTA          000000000024100000000244000000002360000000000000000000238000312404000
0202LOTE PADRAO                   ITAUBANCO   PN * EJ    ITAU4       010VISTA          000000000149000000001490000000014200000000000000000001430000027948200
0202LOTE PADRAO                   TELEMAR     ON * EJ    TNLP3       010VISTA          000000000017500000000178000000001730000000000000000000174000009091700
0202LOTE PADRAO                   SID NACIONALON *       CSNA3       010VISTA          000000000038200000000387000000003750000000000000000000387000005240400
0202LOTE PADRAO                   TELE LEST CLPN *       TLCP4       010VISTA          000000000000400000000004100000000038000000000000000000003900287919000
0202LOTE PADRAO                   CRT CELULAR PNA* EJ    CRTP5       010VISTA          000000000330000000003300000000032100000000000000000003240000000621300
0202LOTE PADRAO                   IPIRANGA PETPN *       PTIP4       010VISTA          000000000008300000000083000000000800000000000000000000080000002524000
0202LOTE PADRAO                   BRASIL T PARPN *       BRTP4       010VISTA          000000000019100000000193000000001850000000000000000000186000073476300
0202LOTE PADRAO                   BRASIL T PARON *       BRTP3       010VISTA          000000000014000000000147500000001400000000000000000000140000009408900
0202LOTE PADRAO                   KLABIN S/A  PN         KLBN4       010VISTA          000000000000900000000009200000000089000000000000000000009100000024400
0202LOTE PADRAO                   ACESITA     PN *       ACES4       010VISTA          000000000000700000000007100000000068000000000000000000006900100920000
0202LOTE PADRAO                   PETROBRAS   PN         PETR4       010VISTA          000000000041700000000424000000004060000000000000000000416000000089200
0202LOTE PADRAO                   ELETROBRAS  PNB*       ELET6       010VISTA          000000000018100000000181000000001730000000000000000000174000071578700
0202LOTE PADRAO                   PETROBRAS   ON         PETR3       010VISTA          000000000045000000000458000000004450000000000000000000450000000031000
0202LOTE PADRAO                   COMGAS      PNA*       CGAS5       010VISTA          000000000056500000000565000000005400000000000000000000540000001111700
0202LOTE PADRAO                   SOUZA CRUZ  ON EJ      CRUZ3       010VISTA          000000000018200000000183000000001800000000000000000000181000000007100
0202LOTE PADRAO                   ELETROBRAS  ON *       ELET3       010VISTA          000000000019400000000194000000001830000000000000000000185000011647500
0202LOTE PADRAO                   CELESC      PNB        CLSC6       010VISTA          000000000000510000000005100000000049000000000000000000005100000420400
0202LOTE PADRAO                   BRADESCO    PN * EJ    BBDC4       010VISTA          000000000009000000000091000000000890000000000000000000090000391678000
0202LOTE PADRAO                   CESP        PN *       CESP4       010VISTA          000000000006200000000062000000000600000000000000000000060000006924600
0202LOTE PADRAO                   LIGHT       ON *       LIGH3       010VISTA          000000000035000000000500000000003500000000000000000000480000003917400
0202LOTE PADRAO                   TELESP CL PAPN *       TSPP4       010VISTA          000000000003810000000038000000000360000000000000000000038000427483000
0202LOTE PADRAO                   VALE R DOCE PNA        VALE5       010VISTA          000000000086500000000908000000008650000000000000000000905000000017500
0202LOTE PADRAO                   COPEL       PNB*       CPLE6       010VISTA          000000000007800000000078000000000750000000000000000000077000078678800
0202LOTE PADRAO                   VALE R DOCE ON         VALE3       010VISTA          000000000090500000000939000000009000000000000000000000939000000017500
0202LOTE PADRAO                   ARACRUZ     PNB        ARCZ6       010VISTA          000000000005600000000058000000000560000000000000000000057900000036800
0202LOTE PADRAO                   TELEMIG PARTPN *       TMCP4       010VISTA          000000000002980000000029800000000280000000000000000000029000054475900
0202LOTE PADRAO                   BRASIL TELECPN *       BRTO4       010VISTA          000000000011900000000120000000001150000000000000000000118000124690000
0202LOTE PADRAO                   SABESP      ON *       SBSP3       010VISTA          000000000085500000000855000000008200000000000000000000820000001527100
0202LOTE PADRAO                   BRASKEM     PNA*       BRKM5       010VISTA          000000000226250000002310000000022000000000000000000002202000000116100
0202LOTE PADRAO                   EMBRAER     PN EJ      EMBR4       010VISTA          000000000013600000000139000000001350000000000000000000139000000044200
0202LOTE PADRAO                   TELESP      PN * EJ    TLPP4       010VISTA          000000000036200000000362000000003550000000000000000000360000006326800
0202LOTE PADRAO                   EMBRAER     ON EJ      EMBR3       010VISTA          000000000012500000000131000000001240000000000000000000128000000019900
0202LOTE PADRAO                   AMBEV       PN *       AMBV4       010VISTA          000000000509400000005100000000050175000000000000000005050000000809700
0202LOTE PADRAO                   USIMINAS    PNA        USIM5       010VISTA          000000000005200000000053000000000510000000000000000000052000000052400
0202LOTE PADRAO                   ELETROPAULO PN *       ELPL4       010VISTA          000000000025200000000252000000002350000000000000000000236000004872200
0202LOTE PADRAO                   TELE NORD CLPN *       TNEP4       010VISTA          000000000002500000000026000000000250000000000000000000025000134466000
0202LOTE PADRAO                   CEMIG       PN * EJ    CMIG4       010VISTA          000000000023100000000231000000002225000000000000000000230000026441700
0202LOTE PADRAO                   TELE CL SUL PN * EJ    TCSL4       010VISTA          000000000002900000000030000000000280000000000000000000030000201722000
0202LOTE PADRAO                   TRACTEBEL   ON *       TBLE3       010VISTA          000000000003400000000034000000000327000000000000000000033000006075100
0202LOTE PADRAO                   CEMIG       ON * EJ    CMIG3       010VISTA          000000000021600000000216000000002080000000000000000000210000000404200
0202LOTE PADRAO                   TELE CL SUL ON * EJ    TCSL3       010VISTA          000000000002200000000023000000000220000000000000000000022000042312500
0202LOTE PADRAO                   ITAUSA      PN         ITSA4       010VISTA          000000000001720000000017400000000169000000000000000000017400000282400
0202LOTE PADRAO                   V C P       PN *       VCPA4       010VISTA          000000000111900000001130000000011100000000000000000001122500003439600
0202LOTE PADRAO                   SID TUBARAO PN *       CSTB4       010VISTA          000000000036700000000380000000003620000000000000000000372000006573100
0202LOTE PADRAO                   BRADESPAR   PN *       BRAP4       010VISTA          000000000000460000000004700000000045000000000000000000004600121363000
0202LOTE PADRAO                   NET         PN         PLIM4       010VISTA          000000000000280000000002900000000026000000000000000000002600000523600
0202LOTE PADRAO                   TELE CTR OESPN * EJ    TCOC4       010VISTA          000000000003500000000035600000000340000000000000000000035000109412000
0202LOTE PADRAO                   TELEMAR N L PNA* EJ    TMAR5       010VISTA          000000000040900000000416000000004050000000000000000000415000009374600
0202LOTE PADRAO                   GERDAU      PN * EJ    GGBR4       010VISTA          000000000034600000000347000000003370000000000000000000341000023662400
0202LOTE PADRAO                   BRASIL      ON *       BBAS3       010VISTA          000000000010300000000104000000001000000000000000000000100000048161700
