00BDIN9999BOVESPA 99992002092620020926
0101IBOVESPA                      0092510091700093860000000000000000002002092600000020020926009199000000
0202LOTE PADRAO                   EMBRATEL PARPN *       EBTP4       010VISTA          000000000002400000000025000000000230000000000000000000024000163251000
0202LOTE PADRAO                   TRAN PAULISTPN * EJ    TRPL4       010VISTA          000000000005400000000054000000000520000000000000000000052000002819300
0202LOTE PADRAO                   EMBRATEL PARON *       EBTP3       010VISTA          000000000003100000000032700000000300000000000000000000031000017717200
0202LOTE PADRAO                   TELEMAR     PN * EJ    TNLP4       010VISTA          000000000023500000000238000000002310000000000000000000233000138164000
0202LOTE PADRAO                   ITAUBANCO   PN * EJ    ITAU4       010VISTA          000000000123000000001230000000011800000000000000000001180000012841300
0202LOTE PADRAO                   TELEMAR     ON * EJ    TNLP3       010VISTA          000000000018200000000182000000001760000000000000000000178000006219400
0202LOTE PADRAO                   SID NACIONALON *       CSNA3       010VISTA          000000000035800000000365000000003520000000000000000000352000007484500
0202LOTE PADRAO                   TELE LEST CLPN *       TLCP4       010VISTA          000000000000410000000004100000000040000000000000000000004000051296000
0202LOTE PADRAO                   CRT CELULAR PNA* EJ    CRTP5       010VISTA          000000000341500000003415000000033400000000000000000003400000000117300
0202LOTE PADRAO                   IPIRANGA PETPN *       PTIP4       010VISTA          000000000010000000000100000000000980000000000000000000098000000300500
0202LOTE PADRAO                   BRASIL T PARPN *       BRTP4       010VISTA          000000000017750000000179000000001760000000000000000000176000050483800
0202LOTE PADRAO                   BRASIL T PARON *       BRTP3       010VISTA          000000000013200000000135000000001310000000000000000000134000002870400
0202LOTE PADRAO                   KLABIN S/A  PN         KLBN4       010VISTA          000000000000890000000009000000000088000000000000000000009000000049700
0202LOTE PADRAO                   ACESITA     PN *       ACES4       010VISTA          000000000000610000000006200000000061000000000000000000006200043350000
0202LOTE PADRAO                   PETROBRAS   PN         PETR4       010VISTA          000000000040250000000412000000003920000000000000000000397000000133400
0202LOTE PADRAO                   ELETROBRAS  PNB*       ELET6       010VISTA          000000000017250000000173000000001680000000000000000000169000044309100
0202LOTE PADRAO                   PETROBRAS   ON         PETR3       010VISTA          000000000045000000000450000000004270000000000000000000433000000074500
0202LOTE PADRAO                   COMGAS      PNA*       CGAS5       010VISTA          000000000056100000000570000000005600000000000000000000560000000179000
0202LOTE PADRAO                   SOUZA CRUZ  ON EJ      CRUZ3       010VISTA          000000000015750000000158000000001550000000000000000000158000000011100
0202LOTE PADRAO                   ELETROBRAS  ON *       ELET3       010VISTA          000000000017300000000175000000001680000000000000000000170000015208000
0202LOTE PADRAO                   CELESC      PNB        CLSC6       010VISTA          000000000000560000000005600000000053000000000000000000005500000164300
0202LOTE PADRAO                   BRADESCO    PN * EJ    BBDC4       010VISTA          000000000008200000000085000000000810000000000000000000082500214793000
0202LOTE PADRAO                   CESP        PN *       CESP4       010VISTA          000000000006500000000065000000000630000000000000000000063000003418300
0202LOTE PADRAO                   LIGHT       ON *       LIGH3       010VISTA          000000000061500000000620000000006100000000000000000000620000000291500
0202LOTE PADRAO                   TELESP CL PAPN *       TSPP4       010VISTA          000000000002800000000030000000000280000000000000000000029000510956000
0202LOTE PADRAO                   VALE R DOCE PNA        VALE5       010VISTA          000000000083000000000849000000008300000000000000000000842000000033000
0202LOTE PADRAO                   COPEL       PNB*       CPLE6       010VISTA          000000000008400000000084000000000800000000000000000000080000014010500
0202LOTE PADRAO                   VALE R DOCE ON         VALE3       010VISTA          000000000089500000000900000000008900000000000000000000895000000032600
0202LOTE PADRAO                   ARACRUZ     PNB        ARCZ6       010VISTA          000000000005700000000058000000000570000000000000000000057000000147000
0202LOTE PADRAO                   TELEMIG PARTPN *       TMCP4       010VISTA          000000000002940000000029000000000280000000000000000000028000048624200
0202LOTE PADRAO                   BRASIL TELECPN *       BRTO4       010VISTA          000000000011000000000114000000001100000000000000000000113000071072600
0202LOTE PADRAO                   SABESP      ON *       SBSP3       010VISTA          000000000081900000000825000000008100000000000000000000819000001046400
0202LOTE PADRAO                   BRASKEM     PNA*       BRKM5       010VISTA          000000000250000000002500000000024500000000000000000002500000000061100
0202LOTE PADRAO                   EMBRAER     PN EJ      EMBR4       010VISTA          000000000013100000000136000000001310000000000000000000135000000063500
0202LOTE PADRAO                   TELESP      PN * EJ    TLPP4       010VISTA          000000000032000000000321000000003150000000000000000000317000004200000
0202LOTE PADRAO                   EMBRAER     ON EJ      EMBR3       010VISTA          000000000012400000000125000000001230000000000000000000124000000021400
0202LOTE PADRAO                   AMBEV       PN *       AMBV4       010VISTA          000000000435900000004430000000043300000000000000000004360000001976900
0202LOTE PADRAO                   USIMINAS    PNA        USIM5       010VISTA          000000000005000000000050000000000470000000000000000000048000000050000
0202LOTE PADRAO                   ELETROPAULO PN *       ELPL4       010VISTA          000000000027400000000274000000002630000000000000000000263000004627400
0202LOTE PADRAO                   TELE NORD CLPN *       TNEP4       010VISTA          000000000002500000000025000000000240000000000000000000024000065054900
0202LOTE PADRAO                   CEMIG       PN * EJ    CMIG4       010VISTA          000000000022800000000228000000002160000000000000000000223000037543900
0202LOTE PADRAO                   TELE CL SUL PN * EJ    TCSL4       010VISTA          000000000002700000000027500000000260000000000000000000026000030296400
0202LOTE PADRAO                   TRACTEBEL   ON *       TBLE3       010VISTA          000000000004000000000040000000000390000000000000000000039000032990500
0202LOTE PADRAO                   CEMIG       ON * EJ    CMIG3       010VISTA          000000000021700000000217000000002100000000000000000000211000000293400
0202LOTE PADRAO                   TELE CL SUL ON * EJ    TCSL3       010VISTA          000000000002200000000022000000000200000000000000000000020000016745900
0202LOTE PADRAO                   ITAUSA      PN         ITSA4       010VISTA          000000000001530000000015400000000149000000000000000000014900000334000
0202LOTE PADRAO                   V C P       PN *       VCPA4       010VISTA          000000000106000000001065000000010500000000000000000001050000000895100
0202LOTE PADRAO                   SID TUBARAO PN *       CSTB4       010VISTA          000000000029000000000299000000002880000000000000000000296000015906300
0202LOTE PADRAO                   BRADESPAR   PN *       BRAP4       010VISTA          000000000000450000000004500000000043000000000000000000004400132712000
0202LOTE PADRAO                   NET         PN         PLIM4       010VISTA          000000000000340000000003400000000029000000000000000000003000000863700
0202LOTE PADRAO                   TELE CTR OESPN * EJ    TCOC4       010VISTA          000000000003100000000032000000000300000000000000000000030000058826800
0202LOTE PADRAO                   TELEMAR N L PNA* EJ    TMAR5       010VISTA          000000000042500000000425000000004150000000000000000000417500010604200
0202LOTE PADRAO                   GERDAU      PN * EJ    GGBR4       010VISTA          000000000028800000000296000000002880000000000000000000291000014490300
0202LOTE PADRAO                   BRASIL      ON *       BBAS3       010VISTA          000000000009250000000093000000000890000000000000000000089000021966300
