00BDIN9999BOVESPA 99992002060320020603
0101IBOVESPA                      0128590126410129190000000000000000002002060300000020020603012659000000
0202LOTE PADRAO                   EMBRATEL PARPN *       EBTP4       010VISTA          000000000004600000000046000000000440000000000000000000045000074316900
0202LOTE PADRAO                   TRAN PAULISTPN * EJ    TRPL4       010VISTA          000000000006800000000068000000000640000000000000000000065000007903800
0202LOTE PADRAO                   EMBRATEL PARON *       EBTP3       010VISTA          000000000006200000000062000000000590000000000000000000060000005578000
0202LOTE PADRAO                   TELEMAR     PN * EJ    TNLP4       010VISTA          000000000031600000000321000000003090000000000000000000311000181208000
0202LOTE PADRAO                   ITAUBANCO   PN * EJ    ITAU4       010VISTA          000000000173600000001779000000017360000000000000000001750000009041700
0202LOTE PADRAO                   TELEMAR     ON * EJ    TNLP3       010VISTA          000000000026500000000265000000002550000000000000000000260000006718800
0202LOTE PADRAO                   SID NACIONALON *       CSNA3       010VISTA          000000000048500000000485000000004670000000000000000000472000006050500
0202LOTE PADRAO                   TELE LEST CLPN *       TLCP4       010VISTA          000000000000700000000007100000000069000000000000000000007100131771000
0202LOTE PADRAO                   CRT CELULAR PNA* EJ    CRTP5       010VISTA          000000000410000000004100000000039600000000000000000003960000000331000
0202LOTE PADRAO                   IPIRANGA PETPN *       PTIP4       010VISTA          000000000014000000000140000000001360000000000000000000136000000366000
0202LOTE PADRAO                   BRASIL T PARPN *       BRTP4       010VISTA          000000000017300000000175000000001680000000000000000000170000021082600
0202LOTE PADRAO                   BRASIL T PARON *       BRTP3       010VISTA          000000000016000000000161000000001590000000000000000000161000005439500
0202LOTE PADRAO                   KLABIN S/A  PN         KLBN4       010VISTA          000000000001000000000010000000000100000000000000000000010000000060800
0202LOTE PADRAO                   ACESITA     PN *       ACES4       010VISTA          000000000000650000000006600000000064000000000000000000006500034282200
0202LOTE PADRAO                   PETROBRAS   PN         PETR4       010VISTA          000000000055000000000550000000005430000000000000000000545000000040000
0202LOTE PADRAO                   ELETROBRAS  PNB*       ELET6       010VISTA          000000000029500000000295000000002900000000000000000000290000024391100
0202LOTE PADRAO                   PETROBRAS   ON         PETR3       010VISTA          000000000058300000000593000000005830000000000000000000590000000023600
0202LOTE PADRAO                   COMGAS      PNA*       CGAS5       010VISTA          000000000071000000000710000000007070000000000000000000707500000094000
0202LOTE PADRAO                   SOUZA CRUZ  ON EJ      CRUZ3       010VISTA          000000000014500000000145000000001430000000000000000000145000000038900
0202LOTE PADRAO                   ELETROBRAS  ON *       ELET3       010VISTA          000000000032500000000325000000003200000000000000000000320000010681000
0202LOTE PADRAO                   CELESC      PNB        CLSC6       010VISTA          000000000000560000000005600000000054000000000000000000005500000058700
0202LOTE PADRAO                   BRADESCO    PN * EJ    BBDC4       010VISTA          000000000013100000000132000000001300000000000000000000130000132262000
0202LOTE PADRAO                   CESP        PN *       CESP4       010VISTA          000000000010800000000108000000001040000000000000000000104000004982900
0202LOTE PADRAO                   LIGHT       ON *       LIGH3       010VISTA          000000000096000000000985000000009600000000000000000000965000000074000
0202LOTE PADRAO                   TELESP CL PAPN *       TSPP4       010VISTA          000000000005400000000054000000000530000000000000000000053000084843200
0202LOTE PADRAO                   VALE R DOCE PNA        VALE5       010VISTA          000000000074500000000755000000007440000000000000000000745000000010900
0202LOTE PADRAO                   COPEL       PNB*       CPLE6       010VISTA          000000000014600000000146000000001400000000000000000000140000039853000
0202LOTE PADRAO                   VALE R DOCE ON         VALE3       010VISTA          000000000075900000000770000000007590000000000000000000759000000011800
0202LOTE PADRAO                   ARACRUZ     PNB        ARCZ6       010VISTA          000000000005400000000057000000000540000000000000000000055000000109000
0202LOTE PADRAO                   TELEMIG PARTPN *       TMCP4       010VISTA          000000000003000000000030000000000290000000000000000000029000054667200
0202LOTE PADRAO                   BRASIL TELECPN *       BRTO4       010VISTA          000000000012800000000128000000001200000000000000000000123000021702500
0202LOTE PADRAO                   SABESP      ON *       SBSP3       010VISTA          000000000114000000001140000000011090000000000000000001112000001513000
0202LOTE PADRAO                   BRASKEM     PNA*       BRKM5       010VISTA          000000000435000000004400000000043200000000000000000004350000000064200
0202LOTE PADRAO                   EMBRAER     PN EJ      EMBR4       010VISTA          000000000014750000000150000000001475000000000000000000149000000064300
0202LOTE PADRAO                   TELESP      PN * EJ    TLPP4       010VISTA          000000000034800000000348000000003400000000000000000000345000003179200
0202LOTE PADRAO                   EMBRAER     ON EJ      EMBR3       010VISTA          000000000013300000000133000000001300000000000000000000133000000007900
0202LOTE PADRAO                   AMBEV       PN *       AMBV4       010VISTA          000000000471600000004790000000047100000000000000000004760000002718600
0202LOTE PADRAO                   USIMINAS    PNA        USIM5       010VISTA          000000000007600000000076000000000730000000000000000000074000000022300
0202LOTE PADRAO                   ELETROPAULO PN *       ELPL4       010VISTA          000000000050300000000505000000004800000000000000000000480000001232900
0202LOTE PADRAO                   TELE NORD CLPN *       TNEP4       010VISTA          000000000002600000000026000000000240000000000000000000024000102086000
0202LOTE PADRAO                   CEMIG       PN * EJ    CMIG4       010VISTA          000000000034200000000342000000003310000000000000000000332000013702800
0202LOTE PADRAO                   TELE CL SUL PN * EJ    TCSL4       010VISTA          000000000003000000000030000000000300000000000000000000030000051220000
0202LOTE PADRAO                   TRACTEBEL   ON *       TBLE3       010VISTA          000000000004000000000040000000000380000000000000000000039000009649100
0202LOTE PADRAO                   CEMIG       ON * EJ    CMIG3       010VISTA          000000000031000000000310000000003020000000000000000000310000000463800
0202LOTE PADRAO                   TELE CL SUL ON * EJ    TCSL3       010VISTA          000000000002600000000026000000000256000000000000000000025000008109200
0202LOTE PADRAO                   ITAUSA      PN         ITSA4       010VISTA          000000000002100000000021000000000200000000000000000000020000000177200
0202LOTE PADRAO                   V C P       PN *       VCPA4       010VISTA          000000000104000000001059000000010400000000000000000001052000001821000
0202LOTE PADRAO                   SID TUBARAO PN *       CSTB4       010VISTA          000000000028300000000291000000002770000000000000000000290000003203000
0202LOTE PADRAO                   BRADESPAR   PN *       BRAP4       010VISTA          000000000000630000000006400000000062000000000000000000006300063323600
0202LOTE PADRAO                   NET         PN         PLIM4       010VISTA          000000000000390000000004000000000036000000000000000000003700001756100
0202LOTE PADRAO                   TELE CTR OESPN * EJ    TCOC4       010VISTA          000000000004300000000043000000000430000000000000000000043000047472000
0202LOTE PADRAO                   TELEMAR N L PNA* EJ    TMAR5       010VISTA          000000000054100000000541000000005270000000000000000000527000005796400
0202LOTE PADRAO                   GERDAU      PN * EJ    GGBR4       010VISTA          000000000029900000000310000000002960000000000000000000300000015347700
0202LOTE PADRAO                   BRASIL      ON *       BBAS3       010VISTA          000000000013000000000130000000001250000000000000000000125000003219000
