00BDIN9999BOVESPA 99992002062420020624
0101IBOVESPA                      0104380102470108140000000000000000002002062400000020020624010759000000
0202LOTE PADRAO                   EMBRATEL PARPN *       EBTP4       010VISTA          000000000003000000000032000000000290000000000000000000031000237609000
0202LOTE PADRAO                   TRAN PAULISTPN * EJ    TRPL4       010VISTA          000000000005700000000059000000000560000000000000000000057000011232900
0202LOTE PADRAO                   EMBRATEL PARON *       EBTP3       010VISTA          000000000004000000000042500000000390000000000000000000041000058945900
0202LOTE PADRAO                   TELEMAR     PN * EJ    TNLP4       010VISTA          000000000026000000000273000000002560000000000000000000271000326875000
0202LOTE PADRAO                   ITAUBANCO   PN * EJ    ITAU4       010VISTA          000000000147000000001510000000014650000000000000000001505000018792600
0202LOTE PADRAO                   TELEMAR     ON * EJ    TNLP3       010VISTA          000000000021500000000228000000002150000000000000000000228000006642900
0202LOTE PADRAO                   SID NACIONALON *       CSNA3       010VISTA          000000000039100000000397000000003750000000000000000000395000013447100
0202LOTE PADRAO                   TELE LEST CLPN *       TLCP4       010VISTA          000000000000610000000006400000000060000000000000000000006400083383100
0202LOTE PADRAO                   CRT CELULAR PNA* EJ    CRTP5       010VISTA          000000000371000000003850000000036000000000000000000003850000002110100
0202LOTE PADRAO                   IPIRANGA PETPN *       PTIP4       010VISTA          000000000012100000000124000000001190000000000000000000119000002182900
0202LOTE PADRAO                   BRASIL T PARPN *       BRTP4       010VISTA          000000000014100000000149000000001380000000000000000000147000065862900
0202LOTE PADRAO                   BRASIL T PARON *       BRTP3       010VISTA          000000000012900000000138000000001280000000000000000000136000006968700
0202LOTE PADRAO                   KLABIN S/A  PN         KLBN4       010VISTA          000000000000900000000010000000000090000000000000000000009300000170400
0202LOTE PADRAO                   ACESITA     PN *       ACES4       010VISTA          000000000000630000000006400000000060000000000000000000006300187964000
0202LOTE PADRAO                   PETROBRAS   PN         PETR4       010VISTA          000000000043500000000445000000004160000000000000000000438000000201100
0202LOTE PADRAO                   ELETROBRAS  PNB*       ELET6       010VISTA          000000000023600000000243000000002230000000000000000000233000104906000
0202LOTE PADRAO                   PETROBRAS   ON         PETR3       010VISTA          000000000047000000000485000000004580000000000000000000480000000038600
0202LOTE PADRAO                   COMGAS      PNA*       CGAS5       010VISTA          000000000057100000000610000000005710000000000000000000591000000416000
0202LOTE PADRAO                   SOUZA CRUZ  ON EJ      CRUZ3       010VISTA          000000000013500000000138000000001310000000000000000000131000000039600
0202LOTE PADRAO                   ELETROBRAS  ON *       ELET3       010VISTA          000000000026600000000271000000002550000000000000000000261000084290500
0202LOTE PADRAO                   CELESC      PNB        CLSC6       010VISTA          000000000000570000000005800000000055000000000000000000005600000285700
0202LOTE PADRAO                   BRADESCO    PN * EJ    BBDC4       010VISTA          000000000010800000000109000000001040000000000000000000107500231842000
0202LOTE PADRAO                   CESP        PN *       CESP4       010VISTA          000000000008500000000090000000000850000000000000000000088000012640400
0202LOTE PADRAO                   LIGHT       ON *       LIGH3       010VISTA          000000000088000000000899000000008800000000000000000000880000000190100
0202LOTE PADRAO                   TELESP CL PAPN *       TSPP4       010VISTA          000000000004400000000045000000000410000000000000000000045000217949000
0202LOTE PADRAO                   VALE R DOCE PNA        VALE5       010VISTA          000000000069500000000695000000006550000000000000000000657000000028700
0202LOTE PADRAO                   COPEL       PNB*       CPLE6       010VISTA          000000000011600000000119000000001110000000000000000000116000039981500
0202LOTE PADRAO                   VALE R DOCE ON         VALE3       010VISTA          000000000074000000000740000000007090000000000000000000710000000010300
0202LOTE PADRAO                   ARACRUZ     PNB        ARCZ6       010VISTA          000000000005300000000054000000000525000000000000000000054000000044200
0202LOTE PADRAO                   TELEMIG PARTPN *       TMCP4       010VISTA          000000000002750000000028000000000250000000000000000000028000080653400
0202LOTE PADRAO                   BRASIL TELECPN *       BRTO4       010VISTA          000000000010100000000105000000000990000000000000000000103000239687000
0202LOTE PADRAO                   SABESP      ON *       SBSP3       010VISTA          000000000098000000001000000000009800000000000000000000987000002049000
0202LOTE PADRAO                   BRASKEM     PNA*       BRKM5       010VISTA          000000000389900000003900000000038300000000000000000003840000000030800
0202LOTE PADRAO                   EMBRAER     PN EJ      EMBR4       010VISTA          000000000013900000000139000000001280000000000000000000134000000127700
0202LOTE PADRAO                   TELESP      PN * EJ    TLPP4       010VISTA          000000000032500000000330000000003080000000000000000000330000029092700
0202LOTE PADRAO                   EMBRAER     ON EJ      EMBR3       010VISTA          000000000012500000000128000000001175000000000000000000125000000054500
0202LOTE PADRAO                   AMBEV       PN *       AMBV4       010VISTA          000000000410000000004221000000040800000000000000000004220000005839200
0202LOTE PADRAO                   USIMINAS    PNA        USIM5       010VISTA          000000000006300000000065000000000620000000000000000000063000000074700
0202LOTE PADRAO                   ELETROPAULO PN *       ELPL4       010VISTA          000000000037500000000377000000003675000000000000000000370000013005700
0202LOTE PADRAO                   TELE NORD CLPN *       TNEP4       010VISTA          000000000002300000000025000000000225000000000000000000025000096690000
0202LOTE PADRAO                   CEMIG       PN * EJ    CMIG4       010VISTA          000000000031000000000318000000002900000000000000000000308000064110000
0202LOTE PADRAO                   TELE CL SUL PN * EJ    TCSL4       010VISTA          000000000002730000000029000000000254000000000000000000029000076211300
0202LOTE PADRAO                   TRACTEBEL   ON *       TBLE3       010VISTA          000000000003700000000038000000000370000000000000000000038000035788100
0202LOTE PADRAO                   CEMIG       ON * EJ    CMIG3       010VISTA          000000000028000000000288000000002800000000000000000000285000000500300
0202LOTE PADRAO                   TELE CL SUL ON * EJ    TCSL3       010VISTA          000000000002200000000025000000000210000000000000000000024000025296500
0202LOTE PADRAO                   ITAUSA      PN         ITSA4       010VISTA          000000000001760000000017600000000170000000000000000000017400000625900
0202LOTE PADRAO                   V C P       PN *       VCPA4       010VISTA          000000000094000000000959000000009300000000000000000000930000001914400
0202LOTE PADRAO                   SID TUBARAO PN *       CSTB4       010VISTA          000000000025000000000270000000002500000000000000000000258000002725300
0202LOTE PADRAO                   BRADESPAR   PN *       BRAP4       010VISTA          000000000000560000000005700000000054000000000000000000005500211806000
0202LOTE PADRAO                   NET         PN         PLIM4       010VISTA          000000000002100000000022000000000200000000000000000000022000000102500
0202LOTE PADRAO                   TELE CTR OESPN * EJ    TCOC4       010VISTA          000000000003600000000040000000000340000000000000000000040000110043000
0202LOTE PADRAO                   TELEMAR N L PNA* EJ    TMAR5       010VISTA          000000000043800000000463000000004380000000000000000000463000025771300
0202LOTE PADRAO                   GERDAU      PN * EJ    GGBR4       010VISTA          000000000027600000000285000000002700000000000000000000275000019158000
0202LOTE PADRAO                   BRASIL      ON *       BBAS3       010VISTA          000000000009000000000093000000000850000000000000000000091000003040600
