00BDIN9999BOVESPA 99992002012120020121
0101IBOVESPA                      0133670131340133670000000000000000002002012100000020020121013155000000
0202LOTE PADRAO                   EMBRATEL PARPN *       EBTP4       010VISTA          000000000010200000000102000000001000000000000000000000101000013449700
0202LOTE PADRAO                   EMBRATEL PARON *       EBTP3       010VISTA          000000000011600000000118000000001160000000000000000000117500015093200
0202LOTE PADRAO                   TRAN PAULISTPN * EJ    TRPL4       010VISTA          000000000007000000000070000000000670000000000000000000067000008841500
0202LOTE PADRAO                   TELEMAR     PN * EJ    TNLP4       010VISTA          000000000034700000000347000000003420000000000000000000342000046388800
0202LOTE PADRAO                   ITAUBANCO   PN * EJ    ITAU4       010VISTA          000000000176000000001775000000017600000000000000000001760000001385700
0202LOTE PADRAO                   TELEMAR     ON * EJ    TNLP3       010VISTA          000000000029800000000300000000002970000000000000000000299000002450700
0202LOTE PADRAO                   SID NACIONALON *       CSNA3       010VISTA          000000000041100000000417000000004110000000000000000000417000000677500
0202LOTE PADRAO                   TELE LEST CLPN *       TLCP4       010VISTA          000000000000960000000009600000000090000000000000000000009100060997900
0202LOTE PADRAO                   CRT CELULAR PNA* EJ    CRTP5       010VISTA          000000000466000000004700000000046000000000000000000004600000000145200
0202LOTE PADRAO                   IPIRANGA PETPN *       PTIP4       010VISTA          000000000012800000000128000000001250000000000000000000125000000200000
0202LOTE PADRAO                   BRASIL T PARPN *       BRTP4       010VISTA          000000000018300000000183000000001810000000000000000000182000007707500
0202LOTE PADRAO                   BRASIL T PARON *       BRTP3       010VISTA          000000000018500000000185000000001780000000000000000000181000001183900
0202LOTE PADRAO                   KLABIN S/A  PN         KLBN4       010VISTA          000000000001100000000011000000000110000000000000000000011000000005800
0202LOTE PADRAO                   ACESITA     PN *       ACES4       010VISTA          000000000000690000000006900000000068000000000000000000006900026460700
0202LOTE PADRAO                   PETROBRAS   PN         PETR4       010VISTA          000000000048750000000487500000004810000000000000000000482000000015700
0202LOTE PADRAO                   ELETROBRAS  PNB*       ELET6       010VISTA          000000000027500000000275000000002650000000000000000000266000022943800
0202LOTE PADRAO                   PETROBRAS   ON         PETR3       010VISTA          000000000049500000000496000000004910000000000000000000491000000008600
0202LOTE PADRAO                   COMGAS      PNA*       CGAS5       010VISTA          000000000088200000000892000000008700000000000000000000892000000190600
0202LOTE PADRAO                   SOUZA CRUZ  ON EJ      CRUZ3       010VISTA          000000000014400000000145000000001430000000000000000000145000000001100
0202LOTE PADRAO                   ELETROBRAS  ON *       ELET3       010VISTA          000000000030300000000303000000002950000000000000000000298000005497500
0202LOTE PADRAO                   CELESC      PNB        CLSC6       010VISTA          000000000000560000000005700000000055000000000000000000005600000377100
0202LOTE PADRAO                   BRADESCO    PN * EJ    BBDC4       010VISTA          000000000012300000000125000000001220000000000000000000124000032583300
0202LOTE PADRAO                   CESP        PN *       CESP4       010VISTA          000000000014600000000146000000001430000000000000000000145000002825800
0202LOTE PADRAO                   LIGHT       ON *       LIGH3       010VISTA          000000000126000000001260000000012100000000000000000001230000000311800
0202LOTE PADRAO                   TELESP CL PAPN *       TSPP4       010VISTA          000000000007700000000077000000000760000000000000000000076000070438500
0202LOTE PADRAO                   VALE R DOCE PNA        VALE5       010VISTA          000000000051700000000522000000005080000000000000000000510000000004800
0202LOTE PADRAO                   COPEL       PNB*       CPLE6       010VISTA          000000000015900000000160000000001560000000000000000000158000010575800
0202LOTE PADRAO                   VALE R DOCE ON         VALE3       010VISTA          000000000050600000000506000000005000000000000000000000500000000000800
0202LOTE PADRAO                   ARACRUZ     PNB        ARCZ6       010VISTA          000000000004000000000042000000000400000000000000000000042000000007800
0202LOTE PADRAO                   TELEMIG PARTPN *       TMCP4       010VISTA          000000000003900000000039000000000370000000000000000000038100021815400
0202LOTE PADRAO                   BRASIL TELECPN *       BRTO4       010VISTA          000000000013000000000130000000001290000000000000000000129000029196300
0202LOTE PADRAO                   SABESP      ON *       SBSP3       010VISTA          000000000135000000001379000000013500000000000000000001364000001234600
0202LOTE PADRAO                   BRASKEM     PNA*       BRKM5       010VISTA          000000000582000000006150000000058200000000000000000006060000000349600
0202LOTE PADRAO                   EMBRAER     PN EJ      EMBR4       010VISTA          000000000012500000000125000000001220000000000000000000124000000008800
0202LOTE PADRAO                   TELESP      PN * EJ    TLPP4       010VISTA          000000000030200000000304000000002950000000000000000000303000002899500
0202LOTE PADRAO                   EMBRAER     ON EJ      EMBR3       010VISTA          000000000011600000000116000000001110000000000000000000114000000006500
0202LOTE PADRAO                   AMBEV       PN *       AMBV4       010VISTA          000000000480000000004920000000048000000000000000000004830000000385400
0202LOTE PADRAO                   USIMINAS    PNA        USIM5       010VISTA          000000000006900000000069000000000680000000000000000000068000000015200
0202LOTE PADRAO                   ELETROPAULO PN *       ELPL4       010VISTA          000000000078250000000784000000007700000000000000000000784000000357000
0202LOTE PADRAO                   TELE NORD CLPN *       TNEP4       010VISTA          000000000003000000000030000000000290000000000000000000029000024355700
0202LOTE PADRAO                   CEMIG       PN * EJ    CMIG4       010VISTA          000000000034000000000346000000003320000000000000000000338000030727900
0202LOTE PADRAO                   TELE CL SUL PN * EJ    TCSL4       010VISTA          000000000003300000000033000000000320000000000000000000032500017849900
0202LOTE PADRAO                   CEMIG       ON * EJ    CMIG3       010VISTA          000000000029300000000300000000002910000000000000000000299000001164300
0202LOTE PADRAO                   TELE CL SUL ON * EJ    TCSL3       010VISTA          000000000002700000000028000000000270000000000000000000028000003050800
0202LOTE PADRAO                   ITAUSA      PN         ITSA4       010VISTA          000000000002200000000022000000000210000000000000000000021000000103600
0202LOTE PADRAO                   V C P       PN *       VCPA4       010VISTA          000000000080000000000800000000007650000000000000000000780000001653500
0202LOTE PADRAO                   SID TUBARAO PN *       CSTB4       010VISTA          000000000022000000000220000000002160000000000000000000218000001980000
0202LOTE PADRAO                   BRADESPAR   PN *       BRAP4       010VISTA          000000000000790000000008000000000077000000000000000000007800034195700
0202LOTE PADRAO                   NET         PN         PLIM4       010VISTA          000000000000760000000007600000000072000000000000000000007300003173900
0202LOTE PADRAO                   TELE CTR OESPN * EJ    TCOC4       010VISTA          000000000004960000000050000000000490000000000000000000050000042320800
0202LOTE PADRAO                   TELEMAR N L PNA* EJ    TMAR5       010VISTA          000000000057000000000570000000005550000000000000000000563000005133300
0202LOTE PADRAO                   GERDAU      PN * EJ    GGBR4       010VISTA          000000000024100000000241000000002380000000000000000000240000002755600
0202LOTE PADRAO                   BRASIL      ON *       BBAS3       010VISTA          000000000010000000000100000000000950000000000000000000096000002266400
