00BDIN9999BOVESPA 99992002011420020114
0101IBOVESPA                      0135940130680136010000000000000000002002011400000020020114013122000000
0202LOTE PADRAO                   EMBRATEL PARPN *       EBTP4       010VISTA          000000000010500000000108000000001000000000000000000000101000087297400
0202LOTE PADRAO                   EMBRATEL PARON *       EBTP3       010VISTA          000000000011600000000117000000001120000000000000000000115000013738200
0202LOTE PADRAO                   TRAN PAULISTPN * EJ    TRPL4       010VISTA          000000000006600000000066000000000650000000000000000000065000008280300
0202LOTE PADRAO                   TELEMAR     PN * EJ    TNLP4       010VISTA          000000000035500000000355000000003390000000000000000000342000211186000
0202LOTE PADRAO                   ITAUBANCO   PN * EJ    ITAU4       010VISTA          000000000177000000001770000000017200000000000000000001729000010292600
0202LOTE PADRAO                   TELEMAR     ON * EJ    TNLP3       010VISTA          000000000030500000000305000000002900000000000000000000302000011108500
0202LOTE PADRAO                   SID NACIONALON *       CSNA3       010VISTA          000000000041800000000440000000004070000000000000000000432000015956700
0202LOTE PADRAO                   TELE LEST CLPN *       TLCP4       010VISTA          000000000000920000000009300000000089000000000000000000008900117145000
0202LOTE PADRAO                   CRT CELULAR PNA* EJ    CRTP5       010VISTA          000000000500000000005000000000048500000000000000000004901000000970200
0202LOTE PADRAO                   IPIRANGA PETPN *       PTIP4       010VISTA          000000000012800000000129000000001250000000000000000000125000001992600
0202LOTE PADRAO                   BRASIL T PARPN *       BRTP4       010VISTA          000000000018100000000183000000001775000000000000000000183000049326800
0202LOTE PADRAO                   BRASIL T PARON *       BRTP3       010VISTA          000000000018100000000183000000001760000000000000000000180000004765200
0202LOTE PADRAO                   KLABIN S/A  PN         KLBN4       010VISTA          000000000001100000000012000000000110000000000000000000011000000032500
0202LOTE PADRAO                   ACESITA     PN *       ACES4       010VISTA          000000000000700000000007000000000067000000000000000000006800117413000
0202LOTE PADRAO                   PETROBRAS   PN         PETR4       010VISTA          000000000050300000000503000000004790000000000000000000483000000067200
0202LOTE PADRAO                   ELETROBRAS  PNB*       ELET6       010VISTA          000000000027200000000273000000002530000000000000000000255000077091300
0202LOTE PADRAO                   PETROBRAS   ON         PETR3       010VISTA          000000000051000000000510000000004910000000000000000000495000000037300
0202LOTE PADRAO                   COMGAS      PNA*       CGAS5       010VISTA          000000000089300000000893000000008610000000000000000000865000000996000
0202LOTE PADRAO                   SOUZA CRUZ  ON EJ      CRUZ3       010VISTA          000000000014250000000142500000001390000000000000000000140000000003800
0202LOTE PADRAO                   ELETROBRAS  ON *       ELET3       010VISTA          000000000030500000000305000000002930000000000000000000295000021363300
0202LOTE PADRAO                   CELESC      PNB        CLSC6       010VISTA          000000000000470000000004800000000045000000000000000000004700000272800
0202LOTE PADRAO                   BRADESCO    PN * EJ    BBDC4       010VISTA          000000000012400000000124000000001200000000000000000000123000194180000
0202LOTE PADRAO                   CESP        PN *       CESP4       010VISTA          000000000013500000000135000000001240000000000000000000130000019270700
0202LOTE PADRAO                   LIGHT       ON *       LIGH3       010VISTA          000000000126000000001260000000012000000000000000000001200000000288100
0202LOTE PADRAO                   TELESP CL PAPN *       TSPP4       010VISTA          000000000008100000000081000000000770000000000000000000078000221906000
0202LOTE PADRAO                   VALE R DOCE PNA        VALE5       010VISTA          000000000053300000000535000000005200000000000000000000520000000031500
0202LOTE PADRAO                   COPEL       PNB*       CPLE6       010VISTA          000000000015750000000157500000001490000000000000000000153000019880000
0202LOTE PADRAO                   VALE R DOCE ON         VALE3       010VISTA          000000000053700000000537000000005150000000000000000000515000000000300
0202LOTE PADRAO                   ARACRUZ     PNB        ARCZ6       010VISTA          000000000004600000000046000000000430000000000000000000043000000055800
0202LOTE PADRAO                   TELEMIG PARTPN *       TMCP4       010VISTA          000000000004200000000042000000000400000000000000000000040000040157700
0202LOTE PADRAO                   BRASIL TELECPN *       BRTO4       010VISTA          000000000013100000000131000000001250000000000000000000127500103018000
0202LOTE PADRAO                   SABESP      ON *       SBSP3       010VISTA          000000000128900000001289000000012300000000000000000001240000000534600
0202LOTE PADRAO                   BRASKEM     PNA*       BRKM5       010VISTA          000000000515000000005300000000051500000000000000000005300000000147200
0202LOTE PADRAO                   EMBRAER     PN EJ      EMBR4       010VISTA          000000000013300000000133000000001230000000000000000000125000000047900
0202LOTE PADRAO                   TELESP      PN * EJ    TLPP4       010VISTA          000000000030500000000305000000002910000000000000000000296000006889300
0202LOTE PADRAO                   EMBRAER     ON EJ      EMBR3       010VISTA          000000000012100000000121000000001150000000000000000000120000000017300
0202LOTE PADRAO                   AMBEV       PN *       AMBV4       010VISTA          000000000494000000004949000000048100000000000000000004810000001202800
0202LOTE PADRAO                   USIMINAS    PNA        USIM5       010VISTA          000000000006700000000067500000000630000000000000000000065000000046100
0202LOTE PADRAO                   ELETROPAULO PN *       ELPL4       010VISTA          000000000078000000000780000000007650000000000000000000779000002123300
0202LOTE PADRAO                   TELE NORD CLPN *       TNEP4       010VISTA          000000000003250000000032500000000300000000000000000000030000085728200
0202LOTE PADRAO                   CEMIG       PN * EJ    CMIG4       010VISTA          000000000031600000000316000000002980000000000000000000303000025355700
0202LOTE PADRAO                   TELE CL SUL PN * EJ    TCSL4       010VISTA          000000000003500000000035000000000330000000000000000000033000058803300
0202LOTE PADRAO                   CEMIG       ON * EJ    CMIG3       010VISTA          000000000029500000000295000000002830000000000000000000283000001057000
0202LOTE PADRAO                   TELE CL SUL ON * EJ    TCSL3       010VISTA          000000000003000000000030000000000280000000000000000000029000023885300
0202LOTE PADRAO                   ITAUSA      PN         ITSA4       010VISTA          000000000002200000000022000000000210000000000000000000021000000317900
0202LOTE PADRAO                   V C P       PN *       VCPA4       010VISTA          000000000084000000000840000000008300000000000000000000830000002831800
0202LOTE PADRAO                   SID TUBARAO PN *       CSTB4       010VISTA          000000000023000000000236000000002280000000000000000000228000005860000
0202LOTE PADRAO                   BRADESPAR   PN *       BRAP4       010VISTA          000000000000790000000007900000000076000000000000000000007600132777000
0202LOTE PADRAO                   NET         PN         PLIM4       010VISTA          000000000000790000000008000000000076000000000000000000007700000528400
0202LOTE PADRAO                   TELE CTR OESPN * EJ    TCOC4       010VISTA          000000000005200000000052000000000500000000000000000000050000059508100
0202LOTE PADRAO                   TELEMAR N L PNA* EJ    TMAR5       010VISTA          000000000060400000000604000000005710000000000000000000572000017007600
0202LOTE PADRAO                   GERDAU      PN * EJ    GGBR4       010VISTA          000000000026300000000273000000002630000000000000000000263000030837900
0202LOTE PADRAO                   BRASIL      ON *       BBAS3       010VISTA          000000000010250000000102500000000980000000000000000000102000006850000
