00BDIN9999BOVESPA 99992002082620020826
0101IBOVESPA                      0096900096890101000000000000000000002002082600000020020826010098000000
0202LOTE PADRAO                   EMBRATEL PARPN *       EBTP4       010VISTA          000000000002000000000024000000000200000000000000000000024000514189000
0202LOTE PADRAO                   EMBRATEL PARON *       EBTP3       010VISTA          000000000002600000000030000000000260000000000000000000030000123283000
0202LOTE PADRAO                   TRAN PAULISTPN * EJ    TRPL4       010VISTA          000000000005900000000059000000000570000000000000000000057000016376000
0202LOTE PADRAO                   ITAUBANCO   PN * EJ    ITAU4       010VISTA          000000000130000000001380000000013000000000000000000001378000010576700
0202LOTE PADRAO                   TELEMAR     ON * EJ    TNLP3       010VISTA          000000000018750000000190000000001810000000000000000000190000038313000
0202LOTE PADRAO                   SID NACIONALON *       CSNA3       010VISTA          000000000042000000000435000000004200000000000000000000421000009417400
0202LOTE PADRAO                   TELE LEST CLPN *       TLCP4       010VISTA          000000000000400000000004300000000040000000000000000000004100186457000
0202LOTE PADRAO                   CRT CELULAR PNA* EJ    CRTP5       010VISTA          000000000380000000003830000000037000000000000000000003800000000605600
0202LOTE PADRAO                   IPIRANGA PETPN *       PTIP4       010VISTA          000000000011600000000118000000001150000000000000000000115000001121700
0202LOTE PADRAO                   BRASIL T PARPN *       BRTP4       010VISTA          000000000017100000000186000000001710000000000000000000183000097710100
0202LOTE PADRAO                   BRASIL T PARON *       BRTP3       010VISTA          000000000014000000000150000000001380000000000000000000150000008499200
0202LOTE PADRAO                   KLABIN S/A  PN         KLBN4       010VISTA          000000000000860000000008800000000086000000000000000000008800000228200
0202LOTE PADRAO                   ACESITA     PN *       ACES4       010VISTA          000000000000690000000007200000000069000000000000000000007100108690000
0202LOTE PADRAO                   PETROBRAS   PN         PETR4       010VISTA          000000000041500000000428000000004150000000000000000000427000000087100
0202LOTE PADRAO                   ELETROBRAS  PNB*       ELET6       010VISTA          000000000019750000000208000000001975000000000000000000208000050139200
0202LOTE PADRAO                   PETROBRAS   ON         PETR3       010VISTA          000000000045100000000465000000004510000000000000000000458000000051800
0202LOTE PADRAO                   COMGAS      PNA*       CGAS5       010VISTA          000000000050000000000515000000005000000000000000000000514000000878000
0202LOTE PADRAO                   SOUZA CRUZ  ON EJ      CRUZ3       010VISTA          000000000014100000000142500000001390000000000000000000140000000019800
0202LOTE PADRAO                   ELETROBRAS  ON *       ELET3       010VISTA          000000000021300000000218000000002110000000000000000000218000015848700
0202LOTE PADRAO                   CELESC      PNB        CLSC6       010VISTA          000000000000580000000006000000000058000000000000000000006000000263200
0202LOTE PADRAO                   BRADESCO    PN * EJ    BBDC4       010VISTA          000000000009300000000096000000000930000000000000000000096000288858000
0202LOTE PADRAO                   CESP        PN *       CESP4       010VISTA          000000000006900000000072000000000670000000000000000000071000008152300
0202LOTE PADRAO                   LIGHT       ON *       LIGH3       010VISTA          000000000075900000000769000000007500000000000000000000750000000208500
0202LOTE PADRAO                   TELESP CL PAPN *       TSPP4       010VISTA          000000000003600000000036000000000350000000000000000000036000410035000
0202LOTE PADRAO                   VALE R DOCE PNA        VALE5       010VISTA          000000000071500000000717000000007100000000000000000000715000000015500
0202LOTE PADRAO                   COPEL       PNB*       CPLE6       010VISTA          000000000009800000000101000000000980000000000000000000100000055421600
0202LOTE PADRAO                   VALE R DOCE ON         VALE3       010VISTA          000000000077700000000782500000007750000000000000000000777000000005700
0202LOTE PADRAO                   ARACRUZ     PNB        ARCZ6       010VISTA          000000000005500000000056000000000550000000000000000000055000000058200
0202LOTE PADRAO                   TELEMIG PARTPN *       TMCP4       010VISTA          000000000002810000000028000000000281000000000000000000028000171332000
0202LOTE PADRAO                   BRASIL TELECPN *       BRTO4       010VISTA          000000000010800000000113000000001080000000000000000000112500071263000
0202LOTE PADRAO                   SABESP      ON *       SBSP3       010VISTA          000000000079000000000810000000007850000000000000000000807000007108600
0202LOTE PADRAO                   BRASKEM     PNA*       BRKM5       010VISTA          000000000273000000002969000000027300000000000000000002830000000477200
0202LOTE PADRAO                   EMBRAER     PN EJ      EMBR4       010VISTA          000000000013600000000138000000001350000000000000000000136000000047500
0202LOTE PADRAO                   TELESP      PN * EJ    TLPP4       010VISTA          000000000032000000000327000000003175000000000000000000322000020332900
0202LOTE PADRAO                   EMBRAER     ON EJ      EMBR3       010VISTA          000000000012500000000129000000001250000000000000000000128000000016300
0202LOTE PADRAO                   AMBEV       PN *       AMBV4       010VISTA          000000000428000000004476000000042800000000000000000004476000000802100
0202LOTE PADRAO                   USIMINAS    PNA        USIM5       010VISTA          000000000005000000000054000000000500000000000000000000054000000100100
0202LOTE PADRAO                   ELETROPAULO PN *       ELPL4       010VISTA          000000000034900000000364000000003450000000000000000000357000004717900
0202LOTE PADRAO                   TELE NORD CLPN *       TNEP4       010VISTA          000000000002500000000027000000000250000000000000000000027000203431000
0202LOTE PADRAO                   CEMIG       PN * EJ    CMIG4       010VISTA          000000000025500000000263000000002550000000000000000000263000027056000
0202LOTE PADRAO                   TELE CL SUL PN * EJ    TCSL4       010VISTA          000000000002600000000027000000000250000000000000000000026000110813000
0202LOTE PADRAO                   TRACTEBEL   ON *       TBLE3       010VISTA          000000000004100000000042000000000400000000000000000000040000005672200
0202LOTE PADRAO                   CEMIG       ON * EJ    CMIG3       010VISTA          000000000023400000000243000000002340000000000000000000241000000370300
0202LOTE PADRAO                   TELE CL SUL ON * EJ    TCSL3       010VISTA          000000000002100000000022000000000210000000000000000000022000018443600
0202LOTE PADRAO                   ITAUSA      PN         ITSA4       010VISTA          000000000001600000000016900000000160000000000000000000016000000349200
0202LOTE PADRAO                   V C P       PN *       VCPA4       010VISTA          000000000107800000001078000000010500000000000000000001060000001361200
0202LOTE PADRAO                   SID TUBARAO PN *       CSTB4       010VISTA          000000000026500000000270000000002590000000000000000000259000002935700
0202LOTE PADRAO                   BRADESPAR   PN *       BRAP4       010VISTA          000000000000480000000005000000000048000000000000000000005000207768000
0202LOTE PADRAO                   NET         PN         PLIM4       010VISTA          000000000000390000000004000000000039000000000000000000004000000410900
0202LOTE PADRAO                   TELE CTR OESPN * EJ    TCOC4       010VISTA          000000000002900000000029000000000280000000000000000000029400153485000
0202LOTE PADRAO                   TELEMAR N L PNA* EJ    TMAR5       010VISTA          000000000041700000000445000000004170000000000000000000443000029580600
0202LOTE PADRAO                   GERDAU      PN * EJ    GGBR4       010VISTA          000000000032500000000327000000003180000000000000000000320000009073100
0202LOTE PADRAO                   BRASIL      ON *       BBAS3       010VISTA          000000000010000000000109000000001000000000000000000000109000007196600
