00BDIN9999BOVESPA 99992002100820021008
0101IBOVESPA                      0088700086910089090000000000000000002002100800000020021008008847000000
0202LOTE PADRAO                   EMBRATEL PARPN *       EBTP4       010VISTA          000000000002300000000023000000000220000000000000000000022000260382000
0202LOTE PADRAO                   TRAN PAULISTPN * EJ    TRPL4       010VISTA          000000000004960000000050000000000480000000000000000000049000010050300
0202LOTE PADRAO                   EMBRATEL PARON *       EBTP3       010VISTA          000000000003000000000031000000000280000000000000000000029400058490200
0202LOTE PADRAO                   TELEMAR     PN * EJ    TNLP4       010VISTA          000000000022000000000221000000002150000000000000000000217000226248000
0202LOTE PADRAO                   ITAUBANCO   PN * EJ    ITAU4       010VISTA          000000000129000000001290000000012240000000000000000001245000011225900
0202LOTE PADRAO                   TELEMAR     ON * EJ    TNLP3       010VISTA          000000000016100000000162000000001560000000000000000000159000017722900
0202LOTE PADRAO                   SID NACIONALON *       CSNA3       010VISTA          000000000032500000000331000000003080000000000000000000311000017652300
0202LOTE PADRAO                   TELE LEST CLPN *       TLCP4       010VISTA          000000000000360000000003900000000036000000000000000000003700175003000
0202LOTE PADRAO                   CRT CELULAR PNA* EJ    CRTP5       010VISTA          000000000312000000003200000000031000000000000000000003190000000108300
0202LOTE PADRAO                   IPIRANGA PETPN *       PTIP4       010VISTA          000000000008500000000090000000000850000000000000000000089000003805200
0202LOTE PADRAO                   BRASIL T PARPN *       BRTP4       010VISTA          000000000017000000000174000000001675000000000000000000173000076801900
0202LOTE PADRAO                   BRASIL T PARON *       BRTP3       010VISTA          000000000012900000000133000000001200000000000000000000129000008302200
0202LOTE PADRAO                   KLABIN S/A  PN         KLBN4       010VISTA          000000000000850000000009200000000085000000000000000000009200000007800
0202LOTE PADRAO                   ACESITA     PN *       ACES4       010VISTA          000000000000590000000006200000000058000000000000000000006100059070900
0202LOTE PADRAO                   PETROBRAS   PN         PETR4       010VISTA          000000000039100000000395000000003750000000000000000000395000000142100
0202LOTE PADRAO                   ELETROBRAS  PNB*       ELET6       010VISTA          000000000015900000000159000000001530000000000000000000158000053824700
0202LOTE PADRAO                   PETROBRAS   ON         PETR3       010VISTA          000000000042300000000440000000004170000000000000000000436000000040800
0202LOTE PADRAO                   COMGAS      PNA*       CGAS5       010VISTA          000000000054000000000590000000005400000000000000000000590000000436300
0202LOTE PADRAO                   SOUZA CRUZ  ON EJ      CRUZ3       010VISTA          000000000016800000000172500000001680000000000000000000171000000007700
0202LOTE PADRAO                   ELETROBRAS  ON *       ELET3       010VISTA          000000000015500000000159000000001500000000000000000000158000018409600
0202LOTE PADRAO                   CELESC      PNB        CLSC6       010VISTA          000000000000510000000005200000000050000000000000000000005100000075300
0202LOTE PADRAO                   BRADESCO    PN * EJ    BBDC4       010VISTA          000000000008500000000085000000000810000000000000000000081000298622000
0202LOTE PADRAO                   CESP        PN *       CESP4       010VISTA          000000000006100000000064000000000600000000000000000000062000004282300
0202LOTE PADRAO                   LIGHT       ON *       LIGH3       010VISTA          000000000055000000000580000000005400000000000000000000570000000246200
0202LOTE PADRAO                   TELESP CL PAPN *       TSPP4       010VISTA          000000000002800000000028000000000270000000000000000000028000353684000
0202LOTE PADRAO                   VALE R DOCE PNA        VALE5       010VISTA          000000000082000000000840000000008120000000000000000000835000000016800
0202LOTE PADRAO                   COPEL       PNB*       CPLE6       010VISTA          000000000008000000000083000000000800000000000000000000081000055978200
0202LOTE PADRAO                   VALE R DOCE ON         VALE3       010VISTA          000000000085000000000860000000008400000000000000000000860000000011200
0202LOTE PADRAO                   ARACRUZ     PNB        ARCZ6       010VISTA          000000000005300000000054000000000520000000000000000000053000000086500
0202LOTE PADRAO                   TELEMIG PARTPN *       TMCP4       010VISTA          000000000002400000000024000000000230000000000000000000023000119366000
0202LOTE PADRAO                   BRASIL TELECPN *       BRTO4       010VISTA          000000000010900000000110000000001070000000000000000000110000142756000
0202LOTE PADRAO                   SABESP      ON *       SBSP3       010VISTA          000000000081900000000829000000007900000000000000000000810000001854600
0202LOTE PADRAO                   BRASKEM     PNA*       BRKM5       010VISTA          000000000228500000002449000000022850000000000000000002350000000641100
0202LOTE PADRAO                   EMBRAER     PN EJ      EMBR4       010VISTA          000000000013100000000131000000001290000000000000000000131000000047200
0202LOTE PADRAO                   TELESP      PN * EJ    TLPP4       010VISTA          000000000031000000000310000000003010000000000000000000307000004396400
0202LOTE PADRAO                   EMBRAER     ON EJ      EMBR3       010VISTA          000000000012100000000124000000001190000000000000000000122000000022900
0202LOTE PADRAO                   AMBEV       PN *       AMBV4       010VISTA          000000000430000000004391000000042100000000000000000004360000002089400
0202LOTE PADRAO                   USIMINAS    PNA        USIM5       010VISTA          000000000004600000000046000000000440000000000000000000044000000101300
0202LOTE PADRAO                   ELETROPAULO PN *       ELPL4       010VISTA          000000000024000000000248000000002330000000000000000000242000002332800
0202LOTE PADRAO                   TELE NORD CLPN *       TNEP4       010VISTA          000000000002200000000022000000000210000000000000000000022000072979700
0202LOTE PADRAO                   CEMIG       PN * EJ    CMIG4       010VISTA          000000000022400000000224000000002080000000000000000000214000042913800
0202LOTE PADRAO                   TELE CL SUL PN * EJ    TCSL4       010VISTA          000000000002300000000023000000000220000000000000000000023000046338800
0202LOTE PADRAO                   TRACTEBEL   ON *       TBLE3       010VISTA          000000000003800000000039800000000380000000000000000000038000008385000
0202LOTE PADRAO                   CEMIG       ON * EJ    CMIG3       010VISTA          000000000020600000000212000000001980000000000000000000203000000574600
0202LOTE PADRAO                   TELE CL SUL ON * EJ    TCSL3       010VISTA          000000000001900000000020000000000190000000000000000000019900006874600
0202LOTE PADRAO                   ITAUSA      PN         ITSA4       010VISTA          000000000001530000000015300000000147000000000000000000015100000200400
0202LOTE PADRAO                   V C P       PN *       VCPA4       010VISTA          000000000103000000001080000000010300000000000000000001065000002439500
0202LOTE PADRAO                   SID TUBARAO PN *       CSTB4       010VISTA          000000000029000000000319000000002900000000000000000000311000010732400
0202LOTE PADRAO                   BRADESPAR   PN *       BRAP4       010VISTA          000000000000440000000004500000000043000000000000000000004400095028600
0202LOTE PADRAO                   NET         PN         PLIM4       010VISTA          000000000000240000000002400000000022000000000000000000002300000506600
0202LOTE PADRAO                   TELE CTR OESPN * EJ    TCOC4       010VISTA          000000000002900000000029000000000270000000000000000000028000171607000
0202LOTE PADRAO                   TELEMAR N L PNA* EJ    TMAR5       010VISTA          000000000040000000000424000000004000000000000000000000408000010725000
0202LOTE PADRAO                   GERDAU      PN * EJ    GGBR4       010VISTA          000000000028500000000288000000002800000000000000000000286000030233600
0202LOTE PADRAO                   BRASIL      ON *       BBAS3       010VISTA          000000000008600000000087000000000820000000000000000000085000016258200
