00BDIN9999BOVESPA 99992002092020020920
0101IBOVESPA                      0093750093750096380000000000000000002002092000000020020920009585000000
0202LOTE PADRAO                   EMBRATEL PARPN *       EBTP4       010VISTA          000000000002300000000025000000000230000000000000000000024000320236000
0202LOTE PADRAO                   TRAN PAULISTPN * EJ    TRPL4       010VISTA          000000000005200000000053000000000520000000000000000000052000003326300
0202LOTE PADRAO                   EMBRATEL PARON *       EBTP3       010VISTA          000000000003000000000031000000000300000000000000000000030000039597000
0202LOTE PADRAO                   TELEMAR     PN * EJ    TNLP4       010VISTA          000000000023800000000243000000002360000000000000000000243000261665000
0202LOTE PADRAO                   ITAUBANCO   PN * EJ    ITAU4       010VISTA          000000000129900000001338000000012720000000000000000001330000011538700
0202LOTE PADRAO                   TELEMAR     ON * EJ    TNLP3       010VISTA          000000000018000000000185000000001800000000000000000000183000015589600
0202LOTE PADRAO                   SID NACIONALON *       CSNA3       010VISTA          000000000036800000000368000000003290000000000000000000350000028178000
0202LOTE PADRAO                   TELE LEST CLPN *       TLCP4       010VISTA          000000000000400000000004100000000040000000000000000000004000073028700
0202LOTE PADRAO                   CRT CELULAR PNA* EJ    CRTP5       010VISTA          000000000348000000003500000000034410000000000000000003480000000179900
0202LOTE PADRAO                   IPIRANGA PETPN *       PTIP4       010VISTA          000000000010100000000101000000000980000000000000000000098000001563000
0202LOTE PADRAO                   BRASIL T PARPN *       BRTP4       010VISTA          000000000017700000000180000000001760000000000000000000176000030126400
0202LOTE PADRAO                   BRASIL T PARON *       BRTP3       010VISTA          000000000013100000000133000000001290000000000000000000133000021315500
0202LOTE PADRAO                   KLABIN S/A  PN         KLBN4       010VISTA          000000000000920000000009400000000091000000000000000000009300000010200
0202LOTE PADRAO                   ACESITA     PN *       ACES4       010VISTA          000000000000610000000006300000000061000000000000000000006100078790000
0202LOTE PADRAO                   PETROBRAS   PN         PETR4       010VISTA          000000000042800000000442000000004180000000000000000000437000000194800
0202LOTE PADRAO                   ELETROBRAS  PNB*       ELET6       010VISTA          000000000018600000000188000000001810000000000000000000182500075128100
0202LOTE PADRAO                   PETROBRAS   ON         PETR3       010VISTA          000000000048100000000495000000004680000000000000000000484000000042900
0202LOTE PADRAO                   COMGAS      PNA*       CGAS5       010VISTA          000000000058000000000598000000005800000000000000000000598000000187200
0202LOTE PADRAO                   SOUZA CRUZ  ON EJ      CRUZ3       010VISTA          000000000015200000000152000000001500000000000000000000150000000008100
0202LOTE PADRAO                   ELETROBRAS  ON *       ELET3       010VISTA          000000000019000000000192500000001860000000000000000000188000016820800
0202LOTE PADRAO                   CELESC      PNB        CLSC6       010VISTA          000000000000530000000005500000000052000000000000000000005500000414500
0202LOTE PADRAO                   BRADESCO    PN * EJ    BBDC4       010VISTA          000000000009000000000092500000000900000000000000000000091000348513000
0202LOTE PADRAO                   CESP        PN *       CESP4       010VISTA          000000000006500000000068000000000650000000000000000000068000006215400
0202LOTE PADRAO                   LIGHT       ON *       LIGH3       010VISTA          000000000059900000000610000000005950000000000000000000610000000183100
0202LOTE PADRAO                   TELESP CL PAPN *       TSPP4       010VISTA          000000000003000000000031000000000298000000000000000000030000332321000
0202LOTE PADRAO                   VALE R DOCE PNA        VALE5       010VISTA          000000000078000000000783000000007720000000000000000000780000000058600
0202LOTE PADRAO                   COPEL       PNB*       CPLE6       010VISTA          000000000008900000000089000000000870000000000000000000089000015097700
0202LOTE PADRAO                   VALE R DOCE ON         VALE3       010VISTA          000000000082900000000837000000008250000000000000000000825000000024900
0202LOTE PADRAO                   ARACRUZ     PNB        ARCZ6       010VISTA          000000000005300000000054000000000525000000000000000000053000000141400
0202LOTE PADRAO                   TELEMIG PARTPN *       TMCP4       010VISTA          000000000002750000000028000000000275000000000000000000028000057635400
0202LOTE PADRAO                   BRASIL TELECPN *       BRTO4       010VISTA          000000000011300000000114000000001110000000000000000000112500049832400
0202LOTE PADRAO                   SABESP      ON *       SBSP3       010VISTA          000000000083000000000840000000008200000000000000000000829000005234100
0202LOTE PADRAO                   BRASKEM     PNA*       BRKM5       010VISTA          000000000245000000002620000000024300000000000000000002430000000082000
0202LOTE PADRAO                   EMBRAER     PN EJ      EMBR4       010VISTA          000000000012300000000129000000001230000000000000000000129000000054500
0202LOTE PADRAO                   TELESP      PN * EJ    TLPP4       010VISTA          000000000032000000000325000000003180000000000000000000323000015461400
0202LOTE PADRAO                   EMBRAER     ON EJ      EMBR3       010VISTA          000000000011300000000119000000001130000000000000000000119000000010200
0202LOTE PADRAO                   AMBEV       PN *       AMBV4       010VISTA          000000000410000000004245000000041000000000000000000004245000001803400
0202LOTE PADRAO                   USIMINAS    PNA        USIM5       010VISTA          000000000005200000000054000000000520000000000000000000053000000039700
0202LOTE PADRAO                   ELETROPAULO PN *       ELPL4       010VISTA          000000000030300000000304000000002970000000000000000000299000002790400
0202LOTE PADRAO                   TELE NORD CLPN *       TNEP4       010VISTA          000000000002300000000024000000000230000000000000000000023000045108300
0202LOTE PADRAO                   CEMIG       PN * EJ    CMIG4       010VISTA          000000000024500000000251000000002410000000000000000000251000033195000
0202LOTE PADRAO                   TELE CL SUL PN * EJ    TCSL4       010VISTA          000000000002600000000026000000000250000000000000000000026000097782300
0202LOTE PADRAO                   TRACTEBEL   ON *       TBLE3       010VISTA          000000000004000000000040000000000394000000000000000000039400008516300
0202LOTE PADRAO                   CEMIG       ON * EJ    CMIG3       010VISTA          000000000023500000000239000000002340000000000000000000239000000290000
0202LOTE PADRAO                   TELE CL SUL ON * EJ    TCSL3       010VISTA          000000000002100000000021000000000200000000000000000000021000007249700
0202LOTE PADRAO                   ITAUSA      PN         ITSA4       010VISTA          000000000001600000000016000000000150000000000000000000015000000175800
0202LOTE PADRAO                   V C P       PN *       VCPA4       010VISTA          000000000101900000001024000000010100000000000000000001017000003335000
0202LOTE PADRAO                   SID TUBARAO PN *       CSTB4       010VISTA          000000000026000000000268000000002600000000000000000000265000003980600
0202LOTE PADRAO                   BRADESPAR   PN *       BRAP4       010VISTA          000000000000450000000004600000000044000000000000000000004600055997600
0202LOTE PADRAO                   NET         PN         PLIM4       010VISTA          000000000000370000000004000000000037000000000000000000003900000529400
0202LOTE PADRAO                   TELE CTR OESPN * EJ    TCOC4       010VISTA          000000000003200000000033000000000320000000000000000000032000048610000
0202LOTE PADRAO                   TELEMAR N L PNA* EJ    TMAR5       010VISTA          000000000042000000000430000000004200000000000000000000423000007096500
0202LOTE PADRAO                   GERDAU      PN * EJ    GGBR4       010VISTA          000000000031100000000314000000003075000000000000000000307500014634900
0202LOTE PADRAO                   BRASIL      ON *       BBAS3       010VISTA          000000000009300000000094000000000910000000000000000000091000017836100
