00BDIN9999BOVESPA 99992002012420020124
0101IBOVESPA                      0132390131470133090000000000000000002002012400000020020124013162000000
0202LOTE PADRAO                   EMBRATEL PARPN *       EBTP4       010VISTA          000000000009800000000100000000000930000000000000000000095000091838100
0202LOTE PADRAO                   EMBRATEL PARON *       EBTP3       010VISTA          000000000011400000000114000000001110000000000000000000111000020238700
0202LOTE PADRAO                   TRAN PAULISTPN * EJ    TRPL4       010VISTA          000000000007000000000071000000000690000000000000000000071000010880200
0202LOTE PADRAO                   TELEMAR     PN * EJ    TNLP4       010VISTA          000000000034000000000349000000003400000000000000000000343000139199000
0202LOTE PADRAO                   ITAUBANCO   PN * EJ    ITAU4       010VISTA          000000000179900000001799000000017600000000000000000001760000003429100
0202LOTE PADRAO                   TELEMAR     ON * EJ    TNLP3       010VISTA          000000000031000000000310000000002960000000000000000000300000005261300
0202LOTE PADRAO                   SID NACIONALON *       CSNA3       010VISTA          000000000040500000000407000000004000000000000000000000400000003872700
0202LOTE PADRAO                   TELE LEST CLPN *       TLCP4       010VISTA          000000000000910000000009100000000088000000000000000000008900067804800
0202LOTE PADRAO                   CRT CELULAR PNA* EJ    CRTP5       010VISTA          000000000470000000004780000000047000000000000000000004720000000322100
0202LOTE PADRAO                   IPIRANGA PETPN *       PTIP4       010VISTA          000000000012700000000127000000001240000000000000000000124000000659600
0202LOTE PADRAO                   BRASIL T PARPN *       BRTP4       010VISTA          000000000018100000000181000000001760000000000000000000176000090209300
0202LOTE PADRAO                   BRASIL T PARON *       BRTP3       010VISTA          000000000018100000000181000000001750000000000000000000176000011153900
0202LOTE PADRAO                   KLABIN S/A  PN         KLBN4       010VISTA          000000000001100000000012500000000110000000000000000000011000000064500
0202LOTE PADRAO                   ACESITA     PN *       ACES4       010VISTA          000000000000700000000007100000000068000000000000000000006800040892900
0202LOTE PADRAO                   PETROBRAS   PN         PETR4       010VISTA          000000000048000000000485000000004670000000000000000000469000000123400
0202LOTE PADRAO                   ELETROBRAS  PNB*       ELET6       010VISTA          000000000027800000000291000000002780000000000000000000290000080868100
0202LOTE PADRAO                   PETROBRAS   ON         PETR3       010VISTA          000000000048800000000489000000004800000000000000000000483000000048300
0202LOTE PADRAO                   COMGAS      PNA*       CGAS5       010VISTA          000000000092900000000929000000009100000000000000000000910000000836300
0202LOTE PADRAO                   SOUZA CRUZ  ON EJ      CRUZ3       010VISTA          000000000014750000000147000000001460000000000000000000147000000003400
0202LOTE PADRAO                   ELETROBRAS  ON *       ELET3       010VISTA          000000000031500000000323000000003150000000000000000000319000019362800
0202LOTE PADRAO                   CELESC      PNB        CLSC6       010VISTA          000000000000540000000005400000000052000000000000000000005400000086800
0202LOTE PADRAO                   BRADESCO    PN * EJ    BBDC4       010VISTA          000000000012500000000125000000001230000000000000000000123000057662700
0202LOTE PADRAO                   CESP        PN *       CESP4       010VISTA          000000000014800000000154000000001480000000000000000000152000024643100
0202LOTE PADRAO                   LIGHT       ON *       LIGH3       010VISTA          000000000123000000001230000000012000000000000000000001200000000665200
0202LOTE PADRAO                   TELESP CL PAPN *       TSPP4       010VISTA          000000000007710000000077000000000750000000000000000000075000106073000
0202LOTE PADRAO                   VALE R DOCE PNA        VALE5       010VISTA          000000000053400000000552000000005340000000000000000000551000000051000
0202LOTE PADRAO                   COPEL       PNB*       CPLE6       010VISTA          000000000016600000000170000000001650000000000000000000165000028150200
0202LOTE PADRAO                   VALE R DOCE ON         VALE3       010VISTA          000000000052000000000535000000005150000000000000000000535000000002400
0202LOTE PADRAO                   ARACRUZ     PNB        ARCZ6       010VISTA          000000000004100000000041000000000400000000000000000000040000000006900
0202LOTE PADRAO                   TELEMIG PARTPN *       TMCP4       010VISTA          000000000003800000000040000000000380000000000000000000039000062867400
0202LOTE PADRAO                   BRASIL TELECPN *       BRTO4       010VISTA          000000000013000000000130000000001280000000000000000000129000076561100
0202LOTE PADRAO                   SABESP      ON *       SBSP3       010VISTA          000000000137000000001375000000013480000000000000000001348000000548400
0202LOTE PADRAO                   BRASKEM     PNA*       BRKM5       010VISTA          000000000588000000005960000000058800000000000000000005910000000168400
0202LOTE PADRAO                   EMBRAER     PN EJ      EMBR4       010VISTA          000000000012500000000127500000001250000000000000000000126000000031900
0202LOTE PADRAO                   TELESP      PN * EJ    TLPP4       010VISTA          000000000029600000000310000000002960000000000000000000308000009507900
0202LOTE PADRAO                   EMBRAER     ON EJ      EMBR3       010VISTA          000000000011700000000118000000001170000000000000000000117000000007100
0202LOTE PADRAO                   AMBEV       PN *       AMBV4       010VISTA          000000000487000000004890000000047000000000000000000004700000001302600
0202LOTE PADRAO                   USIMINAS    PNA        USIM5       010VISTA          000000000007200000000072000000000700000000000000000000070000000028400
0202LOTE PADRAO                   ELETROPAULO PN *       ELPL4       010VISTA          000000000080000000000810000000007910000000000000000000797000003739700
0202LOTE PADRAO                   TELE NORD CLPN *       TNEP4       010VISTA          000000000003200000000032000000000310000000000000000000031000049565200
0202LOTE PADRAO                   CEMIG       PN * EJ    CMIG4       010VISTA          000000000034000000000347000000003400000000000000000000340000069352200
0202LOTE PADRAO                   TELE CL SUL PN * EJ    TCSL4       010VISTA          000000000003200000000035000000000320000000000000000000034000076377900
0202LOTE PADRAO                   CEMIG       ON * EJ    CMIG3       010VISTA          000000000030000000000305000000003000000000000000000000305000001498400
0202LOTE PADRAO                   TELE CL SUL ON * EJ    TCSL3       010VISTA          000000000002900000000030000000000290000000000000000000029000019612300
0202LOTE PADRAO                   ITAUSA      PN         ITSA4       010VISTA          000000000002200000000022000000000220000000000000000000022000000177000
0202LOTE PADRAO                   V C P       PN *       VCPA4       010VISTA          000000000078500000000785000000007790000000000000000000779000000263200
0202LOTE PADRAO                   SID TUBARAO PN *       CSTB4       010VISTA          000000000022700000000230000000002260000000000000000000226000004788000
0202LOTE PADRAO                   BRADESPAR   PN *       BRAP4       010VISTA          000000000000780000000007800000000077000000000000000000007700054844600
0202LOTE PADRAO                   NET         PN         PLIM4       010VISTA          000000000000710000000007200000000067000000000000000000006800000999300
0202LOTE PADRAO                   TELE CTR OESPN * EJ    TCOC4       010VISTA          000000000004900000000050000000000490000000000000000000050000051468000
0202LOTE PADRAO                   TELEMAR N L PNA* EJ    TMAR5       010VISTA          000000000057000000000587000000005700000000000000000000587000018505400
0202LOTE PADRAO                   GERDAU      PN * EJ    GGBR4       010VISTA          000000000024300000000245000000002380000000000000000000238000003998400
0202LOTE PADRAO                   BRASIL      ON *       BBAS3       010VISTA          000000000010100000000101000000000980000000000000000000098000001322100
