00BDIN9999BOVESPA 99992002121820021218
0101IBOVESPA                      0108330107230110070000000000000000002002121800000020021218010985000000
0202LOTE PADRAO                   EMBRATEL PARPN *       EBTP4       010VISTA          000000000003560000000036900000000350000000000000000000036000510232000
0202LOTE PADRAO                   TRAN PAULISTPN * EJ    TRPL4       010VISTA          000000000005500000000057000000000540000000000000000000056000033309200
0202LOTE PADRAO                   EMBRATEL PARON *       EBTP3       010VISTA          000000000004100000000042500000000400000000000000000000042000068225200
0202LOTE PADRAO                   TELEMAR     PN * EJ    TNLP4       010VISTA          000000000027500000000275000000002680000000000000000000272000447425000
0202LOTE PADRAO                   ITAUBANCO   PN * EJ    ITAU4       010VISTA          000000000159300000001601000000015590000000000000000001600000013522400
0202LOTE PADRAO                   TELEMAR     ON * EJ    TNLP3       010VISTA          000000000020100000000203000000001950000000000000000000201000035066100
0202LOTE PADRAO                   SID NACIONALON *       CSNA3       010VISTA          000000000051700000000517000000004980000000000000000000502000028104200
0202LOTE PADRAO                   TELE LEST CLPN *       TLCP4       010VISTA          000000000000450000000004600000000044000000000000000000004600260887000
0202LOTE PADRAO                   CRT CELULAR PNA* EJ    CRTP5       010VISTA          000000000309000000003139000000030300000000000000000003081000001611100
0202LOTE PADRAO                   IPIRANGA PETPN *       PTIP4       010VISTA          000000000007100000000073000000000700000000000000000000072000003700100
0202LOTE PADRAO                   BRASIL T PARPN *       BRTP4       010VISTA          000000000018000000000183000000001760000000000000000000181000125769000
0202LOTE PADRAO                   BRASIL T PARON *       BRTP3       010VISTA          000000000014300000000145000000001380000000000000000000145000015718700
0202LOTE PADRAO                   KLABIN S/A  PN         KLBN4       010VISTA          000000000001000000000010000000000100000000000000000000010000000045000
0202LOTE PADRAO                   ACESITA     PN *       ACES4       010VISTA          000000000000950000000009600000000092000000000000000000009500301831000
0202LOTE PADRAO                   PETROBRAS   PN         PETR4       010VISTA          000000000045500000000455000000004450000000000000000000451000000155200
0202LOTE PADRAO                   ELETROBRAS  PNB*       ELET6       010VISTA          000000000021600000000225000000002130000000000000000000224000087993400
0202LOTE PADRAO                   PETROBRAS   ON         PETR3       010VISTA          000000000050700000000507000000004910000000000000000000500000000035600
0202LOTE PADRAO                   COMGAS      PNA*       CGAS5       010VISTA          000000000049800000000512000000004870000000000000000000510000002559000
0202LOTE PADRAO                   SOUZA CRUZ  ON EJ      CRUZ3       010VISTA          000000000018000000000180000000001780000000000000000000178000000012600
0202LOTE PADRAO                   ELETROBRAS  ON *       ELET3       010VISTA          000000000022000000000235000000002180000000000000000000233000041166000
0202LOTE PADRAO                   CELESC      PNB        CLSC6       010VISTA          000000000000510000000005200000000049000000000000000000005200000281100
0202LOTE PADRAO                   BRADESCO    PN * EJ    BBDC4       010VISTA          000000000009800000000101000000000980000000000000000000101000354999000
0202LOTE PADRAO                   CESP        PN *       CESP4       010VISTA          000000000006800000000072000000000660000000000000000000072000028981900
0202LOTE PADRAO                   LIGHT       ON *       LIGH3       010VISTA          000000000047900000000483000000004680000000000000000000483000000405000
0202LOTE PADRAO                   TELESP CL PAPN *       TSPP4       010VISTA          000000000003900000000041000000000380000000000000000000041000656251000
0202LOTE PADRAO                   VALE R DOCE PNA        VALE5       010VISTA          000000000098000000000980000000009550000000000000000000957500000030200
0202LOTE PADRAO                   COPEL       PNB*       CPLE6       010VISTA          000000000008000000000086000000000800000000000000000000085000129102000
0202LOTE PADRAO                   VALE R DOCE ON         VALE3       010VISTA          000000000103000000001035000000010100000000000000000001010000000008000
0202LOTE PADRAO                   ARACRUZ     PNB        ARCZ6       010VISTA          000000000006300000000064000000000620000000000000000000064000000138800
0202LOTE PADRAO                   TELEMIG PARTPN *       TMCP4       010VISTA          000000000002800000000029400000000280000000000000000000029000169354000
0202LOTE PADRAO                   BRASIL TELECPN *       BRTO4       010VISTA          000000000011600000000120000000001130000000000000000000118000115881000
0202LOTE PADRAO                   SABESP      ON *       SBSP3       010VISTA          000000000082000000000839000000008150000000000000000000835000008098100
0202LOTE PADRAO                   BRASKEM     PNA*       BRKM5       010VISTA          000000000212500000002198000000021000000000000000000002169000000381800
0202LOTE PADRAO                   EMBRAER     PN EJ      EMBR4       010VISTA          000000000013800000000138000000001350000000000000000000135000000081500
0202LOTE PADRAO                   TELESP      PN * EJ    TLPP4       010VISTA          000000000036800000000369000000003590000000000000000000362500023378100
0202LOTE PADRAO                   EMBRAER     ON EJ      EMBR3       010VISTA          000000000012600000000126000000001210000000000000000000121000000044200
0202LOTE PADRAO                   AMBEV       PN *       AMBV4       010VISTA          000000000551400000005514000000053500000000000000000005398000002249800
0202LOTE PADRAO                   USIMINAS    PNA        USIM5       010VISTA          000000000006000000000061000000000590000000000000000000060000000113700
0202LOTE PADRAO                   ELETROPAULO PN *       ELPL4       010VISTA          000000000025600000000256000000002380000000000000000000253000019433700
0202LOTE PADRAO                   TELE NORD CLPN *       TNEP4       010VISTA          000000000002700000000027000000000260000000000000000000027700077293800
0202LOTE PADRAO                   CEMIG       PN * EJ    CMIG4       010VISTA          000000000024800000000251000000002460000000000000000000249000058184700
0202LOTE PADRAO                   TELE CL SUL PN * EJ    TCSL4       010VISTA          000000000002700000000027500000000260000000000000000000027500135648000
0202LOTE PADRAO                   TRACTEBEL   ON *       TBLE3       010VISTA          000000000003500000000037500000000350000000000000000000037300111145000
0202LOTE PADRAO                   CEMIG       ON * EJ    CMIG3       010VISTA          000000000022800000000236000000002210000000000000000000236000001087100
0202LOTE PADRAO                   TELE CL SUL ON * EJ    TCSL3       010VISTA          000000000001940000000020000000000190000000000000000000020000041717400
0202LOTE PADRAO                   ITAUSA      PN         ITSA4       010VISTA          000000000001810000000018000000000177000000000000000000018000000402300
0202LOTE PADRAO                   V C P       PN *       VCPA4       010VISTA          000000000118500000001200000000011500000000000000000001190000001856200
0202LOTE PADRAO                   SID TUBARAO PN *       CSTB4       010VISTA          000000000039800000000400000000003850000000000000000000398000006981600
0202LOTE PADRAO                   BRADESPAR   PN *       BRAP4       010VISTA          000000000000550000000005800000000054000000000000000000005800722886000
0202LOTE PADRAO                   NET         PN         PLIM4       010VISTA          000000000000410000000004300000000039000000000000000000004200001434600
0202LOTE PADRAO                   TELE CTR OESPN * EJ    TCOC4       010VISTA          000000000004700000000048000000000470000000000000000000048000270390000
0202LOTE PADRAO                   TELEMAR N L PNA* EJ    TMAR5       010VISTA          000000000045400000000460000000004420000000000000000000457500044156600
0202LOTE PADRAO                   GERDAU      PN * EJ    GGBR4       010VISTA          000000000034100000000342000000003340000000000000000000337000032301900
0202LOTE PADRAO                   BRASIL      ON *       BBAS3       010VISTA          000000000009500000000100000000000940000000000000000000098000099778900
