00BDIN9999BOVESPA 99992002032820020328
0101IBOVESPA                      0134280132260134980000000000000000002002032800000020020328013255000000
0202LOTE PADRAO                   EMBRATEL PARPN *       EBTP4       010VISTA          000000000007500000000077900000000740000000000000000000077900147792000
0202LOTE PADRAO                   TRAN PAULISTPN * EJ    TRPL4       010VISTA          000000000007600000000076000000000720000000000000000000072000008875000
0202LOTE PADRAO                   EMBRATEL PARON *       EBTP3       010VISTA          000000000009400000000094000000000900000000000000000000093000038832000
0202LOTE PADRAO                   TELEMAR     PN * EJ    TNLP4       010VISTA          000000000029800000000301000000002910000000000000000000292000174422000
0202LOTE PADRAO                   ITAUBANCO   PN * EJ    ITAU4       010VISTA          000000000188500000001885000000018430000000000000000001855000004758700
0202LOTE PADRAO                   TELEMAR     ON * EJ    TNLP3       010VISTA          000000000026300000000263000000002560000000000000000000258000017010300
0202LOTE PADRAO                   SID NACIONALON *       CSNA3       010VISTA          000000000043900000000439000000004110000000000000000000418000008962400
0202LOTE PADRAO                   TELE LEST CLPN *       TLCP4       010VISTA          000000000000840000000008400000000082000000000000000000008200077116500
0202LOTE PADRAO                   CRT CELULAR PNA* EJ    CRTP5       010VISTA          000000000479000000004800000000045110000000000000000004550000000501400
0202LOTE PADRAO                   IPIRANGA PETPN *       PTIP4       010VISTA          000000000014200000000144000000001350000000000000000000141000001882100
0202LOTE PADRAO                   BRASIL T PARPN *       BRTP4       010VISTA          000000000018800000000188000000001830000000000000000000183000034915700
0202LOTE PADRAO                   BRASIL T PARON *       BRTP3       010VISTA          000000000018300000000183000000001780000000000000000000178000022400700
0202LOTE PADRAO                   KLABIN S/A  PN         KLBN4       010VISTA          000000000001100000000011000000000110000000000000000000011000000014000
0202LOTE PADRAO                   ACESITA     PN *       ACES4       010VISTA          000000000000780000000007800000000075000000000000000000007600133806000
0202LOTE PADRAO                   PETROBRAS   PN         PETR4       010VISTA          000000000058600000000586000000005750000000000000000000577500000058900
0202LOTE PADRAO                   ELETROBRAS  PNB*       ELET6       010VISTA          000000000035500000000356000000003425000000000000000000342500033231600
0202LOTE PADRAO                   PETROBRAS   ON         PETR3       010VISTA          000000000061600000000621000000006100000000000000000000612000000030300
0202LOTE PADRAO                   COMGAS      PNA*       CGAS5       010VISTA          000000000082500000000839000000008100000000000000000000810000000674000
0202LOTE PADRAO                   SOUZA CRUZ  ON EJ      CRUZ3       010VISTA          000000000015100000000153000000001480000000000000000000150000000004300
0202LOTE PADRAO                   ELETROBRAS  ON *       ELET3       010VISTA          000000000038500000000391000000003820000000000000000000387000014903500
0202LOTE PADRAO                   CELESC      PNB        CLSC6       010VISTA          000000000000580000000005800000000055000000000000000000005500000165400
0202LOTE PADRAO                   BRADESCO    PN * EJ    BBDC4       010VISTA          000000000014000000000141000000001390000000000000000000140000117288000
0202LOTE PADRAO                   CESP        PN *       CESP4       010VISTA          000000000014500000000149000000001450000000000000000000146000009730000
0202LOTE PADRAO                   LIGHT       ON *       LIGH3       010VISTA          000000000104000000001099000000010400000000000000000001089000000375000
0202LOTE PADRAO                   TELESP CL PAPN *       TSPP4       010VISTA          000000000005900000000059000000000570000000000000000000057000179170000
0202LOTE PADRAO                   VALE R DOCE PNA        VALE5       010VISTA          000000000061600000000620000000006050000000000000000000610000000027400
0202LOTE PADRAO                   COPEL       PNB*       CPLE6       010VISTA          000000000017300000000176000000001720000000000000000000172000021827900
0202LOTE PADRAO                   VALE R DOCE ON         VALE3       010VISTA          000000000063500000000636000000006200000000000000000000635000000021900
0202LOTE PADRAO                   ARACRUZ     PNB        ARCZ6       010VISTA          000000000004600000000048000000000460000000000000000000047000000039300
0202LOTE PADRAO                   TELEMIG PARTPN *       TMCP4       010VISTA          000000000003200000000033000000000320000000000000000000032500129559000
0202LOTE PADRAO                   BRASIL TELECPN *       BRTO4       010VISTA          000000000013500000000135000000001300000000000000000000131000039148600
0202LOTE PADRAO                   SABESP      ON *       SBSP3       010VISTA          000000000128900000001299000000012700000000000000000001280000002097000
0202LOTE PADRAO                   BRASKEM     PNA*       BRKM5       010VISTA          000000000540000000005450000000051800000000000000000005220000000447600
0202LOTE PADRAO                   EMBRAER     PN EJ      EMBR4       010VISTA          000000000011750000000119000000001100000000000000000000116000000196100
0202LOTE PADRAO                   TELESP      PN * EJ    TLPP4       010VISTA          000000000035500000000355000000003450000000000000000000347000006991100
0202LOTE PADRAO                   EMBRAER     ON EJ      EMBR3       010VISTA          000000000011200000000115000000001090000000000000000000110000000023100
0202LOTE PADRAO                   AMBEV       PN *       AMBV4       010VISTA          000000000452500000004550000000045200000000000000000004549000001359500
0202LOTE PADRAO                   USIMINAS    PNA        USIM5       010VISTA          000000000007500000000075400000000720000000000000000000075000000031300
0202LOTE PADRAO                   ELETROPAULO PN *       ELPL4       010VISTA          000000000074900000000757000000007100000000000000000000740000008707700
0202LOTE PADRAO                   TELE NORD CLPN *       TNEP4       010VISTA          000000000002700000000028000000000270000000000000000000027000128256000
0202LOTE PADRAO                   CEMIG       PN * EJ    CMIG4       010VISTA          000000000034700000000370000000003430000000000000000000346000042886700
0202LOTE PADRAO                   TELE CL SUL PN * EJ    TCSL4       010VISTA          000000000003000000000031000000000300000000000000000000030000067719800
0202LOTE PADRAO                   TRACTEBEL   ON *       TBLE3       010VISTA          000000000004100000000043000000000410000000000000000000043000017145100
0202LOTE PADRAO                   CEMIG       ON * EJ    CMIG3       010VISTA          000000000032700000000327000000003110000000000000000000321000000623900
0202LOTE PADRAO                   TELE CL SUL ON * EJ    TCSL3       010VISTA          000000000002810000000028100000000260000000000000000000026000013351000
0202LOTE PADRAO                   ITAUSA      PN         ITSA4       010VISTA          000000000002300000000024000000000230000000000000000000023000000255200
0202LOTE PADRAO                   V C P       PN *       VCPA4       010VISTA          000000000087000000000875000000008610000000000000000000861000001848600
0202LOTE PADRAO                   SID TUBARAO PN *       CSTB4       010VISTA          000000000025000000000265000000002480000000000000000000248000004407500
0202LOTE PADRAO                   BRADESPAR   PN *       BRAP4       010VISTA          000000000000780000000007800000000074000000000000000000007500098311400
0202LOTE PADRAO                   NET         PN         PLIM4       010VISTA          000000000000520000000005200000000050000000000000000000005000001134900
0202LOTE PADRAO                   TELE CTR OESPN * EJ    TCOC4       010VISTA          000000000004600000000047500000000450000000000000000000045000112561000
0202LOTE PADRAO                   TELEMAR N L PNA* EJ    TMAR5       010VISTA          000000000052200000000522000000005000000000000000000000510000019777400
0202LOTE PADRAO                   GERDAU      PN * EJ    GGBR4       010VISTA          000000000028000000000281000000002780000000000000000000281000019683500
0202LOTE PADRAO                   BRASIL      ON *       BBAS3       010VISTA          000000000011800000000120000000001150000000000000000000115000008051500
