00BDIN9999BOVESPA 99992002050920020509
0101IBOVESPA                      0126020120770126030000000000000000002002050900000020020509012102000000
0202LOTE PADRAO                   EMBRATEL PARPN *       EBTP4       010VISTA          000000000005200000000052000000000471000000000000000000047000279945000
0202LOTE PADRAO                   TRAN PAULISTPN * EJ    TRPL4       010VISTA          000000000006000000000060000000000550000000000000000000055000008735700
0202LOTE PADRAO                   EMBRATEL PARON *       EBTP3       010VISTA          000000000007100000000072000000000630000000000000000000063000045712100
0202LOTE PADRAO                   TELEMAR     PN * EJ    TNLP4       010VISTA          000000000029200000000292000000002810000000000000000000283000261031000
0202LOTE PADRAO                   ITAUBANCO   PN * EJ    ITAU4       010VISTA          000000000179000000001840000000017500000000000000000001750000013962500
0202LOTE PADRAO                   TELEMAR     ON * EJ    TNLP3       010VISTA          000000000024600000000248000000002400000000000000000000242000019526200
0202LOTE PADRAO                   SID NACIONALON *       CSNA3       010VISTA          000000000042700000000427000000004000000000000000000000413000018061800
0202LOTE PADRAO                   TELE LEST CLPN *       TLCP4       010VISTA          000000000000750000000007500000000067000000000000000000006700380261000
0202LOTE PADRAO                   CRT CELULAR PNA* EJ    CRTP5       010VISTA          000000000410000000004100000000038600000000000000000003869000000761000
0202LOTE PADRAO                   IPIRANGA PETPN *       PTIP4       010VISTA          000000000013800000000138000000001330000000000000000000133000003171500
0202LOTE PADRAO                   BRASIL T PARPN *       BRTP4       010VISTA          000000000017000000000172500000001660000000000000000000167500097550200
0202LOTE PADRAO                   BRASIL T PARON *       BRTP3       010VISTA          000000000016300000000163000000001540000000000000000000154000004661900
0202LOTE PADRAO                   KLABIN S/A  PN         KLBN4       010VISTA          000000000000980000000009800000000093000000000000000000009300000014200
0202LOTE PADRAO                   ACESITA     PN *       ACES4       010VISTA          000000000000690000000007000000000064000000000000000000006600165598000
0202LOTE PADRAO                   PETROBRAS   PN         PETR4       010VISTA          000000000054000000000542000000005310000000000000000000536000000063600
0202LOTE PADRAO                   ELETROBRAS  PNB*       ELET6       010VISTA          000000000031000000000310000000002900000000000000000000290000046955500
0202LOTE PADRAO                   PETROBRAS   ON         PETR3       010VISTA          000000000057200000000574000000005610000000000000000000563000000050200
0202LOTE PADRAO                   COMGAS      PNA*       CGAS5       010VISTA          000000000076000000000760000000007300000000000000000000731000001215500
0202LOTE PADRAO                   SOUZA CRUZ  ON EJ      CRUZ3       010VISTA          000000000016500000000165000000001600000000000000000000161000000017600
0202LOTE PADRAO                   ELETROBRAS  ON *       ELET3       010VISTA          000000000033000000000330000000003100000000000000000000318000022924700
0202LOTE PADRAO                   CELESC      PNB        CLSC6       010VISTA          000000000000550000000005500000000054000000000000000000005500000237400
0202LOTE PADRAO                   BRADESCO    PN * EJ    BBDC4       010VISTA          000000000013000000000130000000001240000000000000000000125000103575000
0202LOTE PADRAO                   CESP        PN *       CESP4       010VISTA          000000000010200000000102000000000930000000000000000000093000010992300
0202LOTE PADRAO                   LIGHT       ON *       LIGH3       010VISTA          000000000097000000000970000000008700000000000000000000905000000464300
0202LOTE PADRAO                   TELESP CL PAPN *       TSPP4       010VISTA          000000000005400000000054000000000520000000000000000000052500182298000
0202LOTE PADRAO                   VALE R DOCE PNA        VALE5       010VISTA          000000000067000000000680000000006690000000000000000000679000000028600
0202LOTE PADRAO                   COPEL       PNB*       CPLE6       010VISTA          000000000014900000000149000000001450000000000000000000145000025095900
0202LOTE PADRAO                   VALE R DOCE ON         VALE3       010VISTA          000000000067600000000682000000006760000000000000000000679000000009300
0202LOTE PADRAO                   ARACRUZ     PNB        ARCZ6       010VISTA          000000000005200000000052000000000520000000000000000000052000000033700
0202LOTE PADRAO                   TELEMIG PARTPN *       TMCP4       010VISTA          000000000002600000000026900000000260000000000000000000026000136544000
0202LOTE PADRAO                   BRASIL TELECPN *       BRTO4       010VISTA          000000000012000000000120000000001160000000000000000000118000106386000
0202LOTE PADRAO                   SABESP      ON *       SBSP3       010VISTA          000000000127500000001275000000012200000000000000000001234000004825900
0202LOTE PADRAO                   BRASKEM     PNA*       BRKM5       010VISTA          000000000472000000004720000000045000000000000000000004500000000089100
0202LOTE PADRAO                   EMBRAER     PN EJ      EMBR4       010VISTA          000000000013900000000140000000001360000000000000000000138000000095100
0202LOTE PADRAO                   TELESP      PN * EJ    TLPP4       010VISTA          000000000032500000000325000000003180000000000000000000320000007558400
0202LOTE PADRAO                   EMBRAER     ON EJ      EMBR3       010VISTA          000000000012500000000125000000001220000000000000000000123000000031400
0202LOTE PADRAO                   AMBEV       PN *       AMBV4       010VISTA          000000000497000000005000000000048500000000000000000004880000005642400
0202LOTE PADRAO                   USIMINAS    PNA        USIM5       010VISTA          000000000007400000000074000000000700000000000000000000070000000071100
0202LOTE PADRAO                   ELETROPAULO PN *       ELPL4       010VISTA          000000000051000000000510000000004750000000000000000000475000003641700
0202LOTE PADRAO                   TELE NORD CLPN *       TNEP4       010VISTA          000000000002400000000024800000000230000000000000000000024000295494000
0202LOTE PADRAO                   CEMIG       PN * EJ    CMIG4       010VISTA          000000000032200000000350000000003200000000000000000000320000034764600
0202LOTE PADRAO                   TELE CL SUL PN * EJ    TCSL4       010VISTA          000000000002700000000029000000000270000000000000000000027000056917400
0202LOTE PADRAO                   TRACTEBEL   ON *       TBLE3       010VISTA          000000000004100000000041000000000400000000000000000000040000015843300
0202LOTE PADRAO                   CEMIG       ON * EJ    CMIG3       010VISTA          000000000029500000000298000000002900000000000000000000290000001620800
0202LOTE PADRAO                   TELE CL SUL ON * EJ    TCSL3       010VISTA          000000000002400000000024000000000230000000000000000000023000019458900
0202LOTE PADRAO                   ITAUSA      PN         ITSA4       010VISTA          000000000002200000000022000000000210000000000000000000021000000392300
0202LOTE PADRAO                   V C P       PN *       VCPA4       010VISTA          000000000094000000000965000000009400000000000000000000942000002032100
0202LOTE PADRAO                   SID TUBARAO PN *       CSTB4       010VISTA          000000000026300000000266000000002500000000000000000000266000005194000
0202LOTE PADRAO                   BRADESPAR   PN *       BRAP4       010VISTA          000000000000610000000006100000000057000000000000000000005800228973000
0202LOTE PADRAO                   NET         PN         PLIM4       010VISTA          000000000000300000000003000000000028000000000000000000002900001584800
0202LOTE PADRAO                   TELE CTR OESPN * EJ    TCOC4       010VISTA          000000000004600000000046000000000450000000000000000000046000107889000
0202LOTE PADRAO                   TELEMAR N L PNA* EJ    TMAR5       010VISTA          000000000049600000000512000000004960000000000000000000502000017603000
0202LOTE PADRAO                   GERDAU      PN * EJ    GGBR4       010VISTA          000000000029100000000295000000002750000000000000000000276000014330000
0202LOTE PADRAO                   BRASIL      ON *       BBAS3       010VISTA          000000000012100000000122000000001170000000000000000000117000005281900
