00BDIN9999BOVESPA 99992002101820021018
0101IBOVESPA                      0089020088730090810000000000000000002002101800000020021018009022000000
0202LOTE PADRAO                   EMBRATEL PARPN *       EBTP4       010VISTA          000000000002200000000023000000000220000000000000000000023000314496000
0202LOTE PADRAO                   TRAN PAULISTPN * EJ    TRPL4       010VISTA          000000000004900000000051000000000490000000000000000000051000009919000
0202LOTE PADRAO                   EMBRATEL PARON *       EBTP3       010VISTA          000000000002800000000030000000000280000000000000000000029000023598300
0202LOTE PADRAO                   TELEMAR     PN * EJ    TNLP4       010VISTA          000000000021500000000219000000002130000000000000000000218000335310000
0202LOTE PADRAO                   ITAUBANCO   PN * EJ    ITAU4       010VISTA          000000000127900000001280000000012240000000000000000001242000011660800
0202LOTE PADRAO                   TELEMAR     ON * EJ    TNLP3       010VISTA          000000000016300000000163000000001550000000000000000000161000021387500
0202LOTE PADRAO                   SID NACIONALON *       CSNA3       010VISTA          000000000034000000000343000000003340000000000000000000341000026789700
0202LOTE PADRAO                   TELE LEST CLPN *       TLCP4       010VISTA          000000000000370000000003700000000036000000000000000000003700212208000
0202LOTE PADRAO                   CRT CELULAR PNA* EJ    CRTP5       010VISTA          000000000315000000003150000000029500000000000000000003080000000182700
0202LOTE PADRAO                   IPIRANGA PETPN *       PTIP4       010VISTA          000000000007900000000080000000000750000000000000000000079000004981300
0202LOTE PADRAO                   BRASIL T PARPN *       BRTP4       010VISTA          000000000018100000000185000000001780000000000000000000178000073524800
0202LOTE PADRAO                   BRASIL T PARON *       BRTP3       010VISTA          000000000013600000000138000000001310000000000000000000131000011382900
0202LOTE PADRAO                   KLABIN S/A  PN         KLBN4       010VISTA          000000000000850000000008800000000084000000000000000000008600000012300
0202LOTE PADRAO                   ACESITA     PN *       ACES4       010VISTA          000000000000680000000007100000000068000000000000000000007000140087000
0202LOTE PADRAO                   PETROBRAS   PN         PETR4       010VISTA          000000000038250000000393000000003770000000000000000000390000000100000
0202LOTE PADRAO                   ELETROBRAS  PNB*       ELET6       010VISTA          000000000015000000000161000000001490000000000000000000160000088928500
0202LOTE PADRAO                   PETROBRAS   ON         PETR3       010VISTA          000000000041700000000427000000004140000000000000000000422000000036300
0202LOTE PADRAO                   COMGAS      PNA*       CGAS5       010VISTA          000000000061900000000619000000005970000000000000000000603000000205600
0202LOTE PADRAO                   SOUZA CRUZ  ON EJ      CRUZ3       010VISTA          000000000016800000000173000000001680000000000000000000173000000074800
0202LOTE PADRAO                   ELETROBRAS  ON *       ELET3       010VISTA          000000000015000000000163000000001500000000000000000000161000031096600
0202LOTE PADRAO                   CELESC      PNB        CLSC6       010VISTA          000000000000470000000005000000000046000000000000000000005000000807600
0202LOTE PADRAO                   BRADESCO    PN * EJ    BBDC4       010VISTA          000000000008400000000085000000000825000000000000000000083000333556000
0202LOTE PADRAO                   CESP        PN *       CESP4       010VISTA          000000000006400000000064000000000610000000000000000000062000003464800
0202LOTE PADRAO                   LIGHT       ON *       LIGH3       010VISTA          000000000052500000000545000000005130000000000000000000526000002153600
0202LOTE PADRAO                   TELESP CL PAPN *       TSPP4       010VISTA          000000000002900000000031000000000294000000000000000000030000645580000
0202LOTE PADRAO                   VALE R DOCE PNA        VALE5       010VISTA          000000000083900000000865000000008350000000000000000000857000000010000
0202LOTE PADRAO                   COPEL       PNB*       CPLE6       010VISTA          000000000007400000000076000000000720000000000000000000075000042254500
0202LOTE PADRAO                   VALE R DOCE ON         VALE3       010VISTA          000000000088000000000899000000008700000000000000000000890000000025000
0202LOTE PADRAO                   ARACRUZ     PNB        ARCZ6       010VISTA          000000000005900000000060000000000580000000000000000000060000000063300
0202LOTE PADRAO                   TELEMIG PARTPN *       TMCP4       010VISTA          000000000002300000000025000000000230000000000000000000024000143444000
0202LOTE PADRAO                   BRASIL TELECPN *       BRTO4       010VISTA          000000000011400000000118000000001130000000000000000000114000050547600
0202LOTE PADRAO                   SABESP      ON *       SBSP3       010VISTA          000000000077000000000777000000007670000000000000000000772000002109400
0202LOTE PADRAO                   BRASKEM     PNA*       BRKM5       010VISTA          000000000217600000002239000000021700000000000000000002239000000104500
0202LOTE PADRAO                   EMBRAER     PN EJ      EMBR4       010VISTA          000000000013300000000137000000001300000000000000000000136000000088000
0202LOTE PADRAO                   TELESP      PN * EJ    TLPP4       010VISTA          000000000031600000000324000000003160000000000000000000323000007800300
0202LOTE PADRAO                   EMBRAER     ON EJ      EMBR3       010VISTA          000000000012400000000127500000001210000000000000000000127500000016500
0202LOTE PADRAO                   AMBEV       PN *       AMBV4       010VISTA          000000000449900000004550000000044800000000000000000004480000002886800
0202LOTE PADRAO                   USIMINAS    PNA        USIM5       010VISTA          000000000004200000000043000000000420000000000000000000042000000071100
0202LOTE PADRAO                   ELETROPAULO PN *       ELPL4       010VISTA          000000000023000000000250000000002300000000000000000000241000004674200
0202LOTE PADRAO                   TELE NORD CLPN *       TNEP4       010VISTA          000000000002250000000023000000000220000000000000000000022000047338700
0202LOTE PADRAO                   CEMIG       PN * EJ    CMIG4       010VISTA          000000000021500000000217000000002100000000000000000000215000033035200
0202LOTE PADRAO                   TELE CL SUL PN * EJ    TCSL4       010VISTA          000000000002500000000026000000000250000000000000000000026000082233100
0202LOTE PADRAO                   TRACTEBEL   ON *       TBLE3       010VISTA          000000000004000000000040000000000380000000000000000000039400009065900
0202LOTE PADRAO                   CEMIG       ON * EJ    CMIG3       010VISTA          000000000020000000000203000000001980000000000000000000198000007845500
0202LOTE PADRAO                   TELE CL SUL ON * EJ    TCSL3       010VISTA          000000000002000000000020000000000195000000000000000000019900010383900
0202LOTE PADRAO                   ITAUSA      PN         ITSA4       010VISTA          000000000001510000000015400000000150000000000000000000015300000487900
0202LOTE PADRAO                   V C P       PN *       VCPA4       010VISTA          000000000110000000001100000000010620000000000000000001069000008215500
0202LOTE PADRAO                   SID TUBARAO PN *       CSTB4       010VISTA          000000000033900000000348000000003390000000000000000000340000005258500
0202LOTE PADRAO                   BRADESPAR   PN *       BRAP4       010VISTA          000000000000450000000004600000000044000000000000000000004500055941100
0202LOTE PADRAO                   NET         PN         PLIM4       010VISTA          000000000000270000000002900000000026000000000000000000002800000887700
0202LOTE PADRAO                   TELE CTR OESPN * EJ    TCOC4       010VISTA          000000000003300000000034000000000320000000000000000000033000060654100
0202LOTE PADRAO                   TELEMAR N L PNA* EJ    TMAR5       010VISTA          000000000041200000000414000000003980000000000000000000400000017667500
0202LOTE PADRAO                   GERDAU      PN * EJ    GGBR4       010VISTA          000000000028100000000283000000002760000000000000000000276000035495800
0202LOTE PADRAO                   BRASIL      ON *       BBAS3       010VISTA          000000000008900000000090000000000860000000000000000000089000024883000
