00BDIN9999BOVESPA 99992002032220020322
0101IBOVESPA                      0137230132830137260000000000000000002002032200000020020322013312000000
0202LOTE PADRAO                   EMBRATEL PARPN *       EBTP4       010VISTA          000000000008200000000082000000000770000000000000000000077000252534000
0202LOTE PADRAO                   TRAN PAULISTPN * EJ    TRPL4       010VISTA          000000000007600000000077000000000740000000000000000000074000034549700
0202LOTE PADRAO                   EMBRATEL PARON *       EBTP3       010VISTA          000000000010100000000102000000000950000000000000000000096000058426300
0202LOTE PADRAO                   TELEMAR     PN * EJ    TNLP4       010VISTA          000000000031300000000313000000003010000000000000000000305000322971000
0202LOTE PADRAO                   ITAUBANCO   PN * EJ    ITAU4       010VISTA          000000000185100000001870000000018450000000000000000001856000009388200
0202LOTE PADRAO                   TELEMAR     ON * EJ    TNLP3       010VISTA          000000000026800000000281000000002650000000000000000000270000021361800
0202LOTE PADRAO                   SID NACIONALON *       CSNA3       010VISTA          000000000045500000000455000000004340000000000000000000444000016787000
0202LOTE PADRAO                   TELE LEST CLPN *       TLCP4       010VISTA          000000000000890000000008900000000085000000000000000000008500216228000
0202LOTE PADRAO                   CRT CELULAR PNA* EJ    CRTP5       010VISTA          000000000450000000004680000000045000000000000000000004630000000794400
0202LOTE PADRAO                   IPIRANGA PETPN *       PTIP4       010VISTA          000000000013500000000138000000001350000000000000000000136000004111200
0202LOTE PADRAO                   BRASIL T PARPN *       BRTP4       010VISTA          000000000019000000000190000000001830000000000000000000186000075752200
0202LOTE PADRAO                   BRASIL T PARON *       BRTP3       010VISTA          000000000018500000000187500000001760000000000000000000180000018378000
0202LOTE PADRAO                   KLABIN S/A  PN         KLBN4       010VISTA          000000000001250000000012600000000110000000000000000000012000000111900
0202LOTE PADRAO                   ACESITA     PN *       ACES4       010VISTA          000000000000810000000008200000000080000000000000000000008000409492000
0202LOTE PADRAO                   PETROBRAS   PN         PETR4       010VISTA          000000000058000000000592000000005800000000000000000000583000000096400
0202LOTE PADRAO                   ELETROBRAS  PNB*       ELET6       010VISTA          000000000036600000000366000000003370000000000000000000343000101415000
0202LOTE PADRAO                   PETROBRAS   ON         PETR3       010VISTA          000000000061100000000617000000006020000000000000000000608000000033000
0202LOTE PADRAO                   COMGAS      PNA*       CGAS5       010VISTA          000000000086000000000865000000008000000000000000000000822000002334000
0202LOTE PADRAO                   SOUZA CRUZ  ON EJ      CRUZ3       010VISTA          000000000014800000000148000000001430000000000000000000145000000029700
0202LOTE PADRAO                   ELETROBRAS  ON *       ELET3       010VISTA          000000000040000000000405000000003850000000000000000000391000025294800
0202LOTE PADRAO                   CELESC      PNB        CLSC6       010VISTA          000000000000570000000005800000000055000000000000000000005500000386200
0202LOTE PADRAO                   BRADESCO    PN * EJ    BBDC4       010VISTA          000000000014400000000144000000001410000000000000000000141000268500000
0202LOTE PADRAO                   CESP        PN *       CESP4       010VISTA          000000000016300000000163000000001510000000000000000000153000018082700
0202LOTE PADRAO                   LIGHT       ON *       LIGH3       010VISTA          000000000119000000001190000000011270000000000000000001127000001685000
0202LOTE PADRAO                   TELESP CL PAPN *       TSPP4       010VISTA          000000000005900000000062500000000580000000000000000000059000343834000
0202LOTE PADRAO                   VALE R DOCE PNA        VALE5       010VISTA          000000000060200000000616000000005950000000000000000000597000000029600
0202LOTE PADRAO                   COPEL       PNB*       CPLE6       010VISTA          000000000017000000000173000000001680000000000000000000171000034512000
0202LOTE PADRAO                   VALE R DOCE ON         VALE3       010VISTA          000000000064000000000640000000006090000000000000000000618000000098100
0202LOTE PADRAO                   ARACRUZ     PNB        ARCZ6       010VISTA          000000000004500000000045000000000430000000000000000000043000000065400
0202LOTE PADRAO                   TELEMIG PARTPN *       TMCP4       010VISTA          000000000003400000000034000000000310000000000000000000032000143558000
0202LOTE PADRAO                   BRASIL TELECPN *       BRTO4       010VISTA          000000000013600000000136000000001300000000000000000000132000091412800
0202LOTE PADRAO                   SABESP      ON *       SBSP3       010VISTA          000000000134000000001345000000012900000000000000000001295000002738000
0202LOTE PADRAO                   BRASKEM     PNA*       BRKM5       010VISTA          000000000551000000005620000000053100000000000000000005320000000215800
0202LOTE PADRAO                   EMBRAER     PN EJ      EMBR4       010VISTA          000000000012800000000128000000001230000000000000000000123000000059700
0202LOTE PADRAO                   TELESP      PN * EJ    TLPP4       010VISTA          000000000034000000000343000000003310000000000000000000337000012459800
0202LOTE PADRAO                   EMBRAER     ON EJ      EMBR3       010VISTA          000000000011900000000120000000001170000000000000000000117000000043300
0202LOTE PADRAO                   AMBEV       PN *       AMBV4       010VISTA          000000000460250000004602500000045120000000000000000004565000001569600
0202LOTE PADRAO                   USIMINAS    PNA        USIM5       010VISTA          000000000007700000000077000000000710000000000000000000072000000103600
0202LOTE PADRAO                   ELETROPAULO PN *       ELPL4       010VISTA          000000000071500000000715000000006810000000000000000000700000003680700
0202LOTE PADRAO                   TELE NORD CLPN *       TNEP4       010VISTA          000000000003000000000030000000000280000000000000000000029000207102000
0202LOTE PADRAO                   CEMIG       PN * EJ    CMIG4       010VISTA          000000000034200000000357000000003400000000000000000000340000053686700
0202LOTE PADRAO                   TELE CL SUL PN * EJ    TCSL4       010VISTA          000000000003250000000032000000000310000000000000000000031000129444000
0202LOTE PADRAO                   TRACTEBEL   ON *       TBLE3       010VISTA          000000000004000000000041000000000400000000000000000000040000032505000
0202LOTE PADRAO                   CEMIG       ON * EJ    CMIG3       010VISTA          000000000031500000000320000000002950000000000000000000308000001987000
0202LOTE PADRAO                   TELE CL SUL ON * EJ    TCSL3       010VISTA          000000000002800000000028000000000260000000000000000000026000046195100
0202LOTE PADRAO                   ITAUSA      PN         ITSA4       010VISTA          000000000002300000000023000000000220000000000000000000023000000311400
0202LOTE PADRAO                   V C P       PN *       VCPA4       010VISTA          000000000086000000000890000000008500000000000000000000877000002393900
0202LOTE PADRAO                   SID TUBARAO PN *       CSTB4       010VISTA          000000000024100000000241000000002310000000000000000000236000012065200
0202LOTE PADRAO                   BRADESPAR   PN *       BRAP4       010VISTA          000000000000780000000007800000000074000000000000000000007400361738000
0202LOTE PADRAO                   NET         PN         PLIM4       010VISTA          000000000000510000000005400000000050000000000000000000005000003204000
0202LOTE PADRAO                   TELE CTR OESPN * EJ    TCOC4       010VISTA          000000000004700000000047000000000440000000000000000000045000191108000
0202LOTE PADRAO                   TELEMAR N L PNA* EJ    TMAR5       010VISTA          000000000054500000000545000000005280000000000000000000534000023231700
0202LOTE PADRAO                   GERDAU      PN * EJ    GGBR4       010VISTA          000000000028100000000290000000002710000000000000000000286000020202200
0202LOTE PADRAO                   BRASIL      ON *       BBAS3       010VISTA          000000000011600000000120000000001160000000000000000000117000011125400
