00BDIN9999BOVESPA 99992002061420020614
0101IBOVESPA                      0119850116010119850000000000000000002002061400000020020614011699000000
0202LOTE PADRAO                   EMBRATEL PARPN *       EBTP4       010VISTA          000000000003770000000037700000000360000000000000000000036000139862000
0202LOTE PADRAO                   TRAN PAULISTPN * EJ    TRPL4       010VISTA          000000000006100000000062500000000600000000000000000000061000009191800
0202LOTE PADRAO                   EMBRATEL PARON *       EBTP3       010VISTA          000000000005000000000052000000000470000000000000000000052000012958100
0202LOTE PADRAO                   TELEMAR     PN * EJ    TNLP4       010VISTA          000000000030000000000300000000002900000000000000000000295000261014000
0202LOTE PADRAO                   ITAUBANCO   PN * EJ    ITAU4       010VISTA          000000000162000000001620000000015390000000000000000001540000026624700
0202LOTE PADRAO                   TELEMAR     ON * EJ    TNLP3       010VISTA          000000000024800000000248000000002360000000000000000000243000006892800
0202LOTE PADRAO                   SID NACIONALON *       CSNA3       010VISTA          000000000044000000000440000000004325000000000000000000436000028325700
0202LOTE PADRAO                   TELE LEST CLPN *       TLCP4       010VISTA          000000000000640000000006400000000062000000000000000000006400049155400
0202LOTE PADRAO                   CRT CELULAR PNA* EJ    CRTP5       010VISTA          000000000395000000004000000000038600000000000000000003940000000323100
0202LOTE PADRAO                   IPIRANGA PETPN *       PTIP4       010VISTA          000000000013500000000135000000001300000000000000000000133000000440000
0202LOTE PADRAO                   BRASIL T PARPN *       BRTP4       010VISTA          000000000015900000000159000000001550000000000000000000156000047168700
0202LOTE PADRAO                   BRASIL T PARON *       BRTP3       010VISTA          000000000013500000000144000000001350000000000000000000143000002231700
0202LOTE PADRAO                   KLABIN S/A  PN         KLBN4       010VISTA          000000000000970000000010000000000095000000000000000000009900000022500
0202LOTE PADRAO                   ACESITA     PN *       ACES4       010VISTA          000000000000670000000006800000000065000000000000000000006700063102800
0202LOTE PADRAO                   PETROBRAS   PN         PETR4       010VISTA          000000000052300000000523000000004860000000000000000000493000000158300
0202LOTE PADRAO                   ELETROBRAS  PNB*       ELET6       010VISTA          000000000026300000000263000000002510000000000000000000260000080964500
0202LOTE PADRAO                   PETROBRAS   ON         PETR3       010VISTA          000000000055100000000551000000005320000000000000000000536000000059500
0202LOTE PADRAO                   COMGAS      PNA*       CGAS5       010VISTA          000000000069000000000690000000006490000000000000000000650000000993500
0202LOTE PADRAO                   SOUZA CRUZ  ON EJ      CRUZ3       010VISTA          000000000015500000000155000000001520000000000000000000153000000029100
0202LOTE PADRAO                   ELETROBRAS  ON *       ELET3       010VISTA          000000000030000000000308000000003000000000000000000000300000013353700
0202LOTE PADRAO                   CELESC      PNB        CLSC6       010VISTA          000000000000510000000005200000000049000000000000000000005200000086000
0202LOTE PADRAO                   BRADESCO    PN * EJ    BBDC4       010VISTA          000000000011900000000119000000001130000000000000000000115000229342000
0202LOTE PADRAO                   CESP        PN *       CESP4       010VISTA          000000000009600000000096000000000940000000000000000000095000004362500
0202LOTE PADRAO                   LIGHT       ON *       LIGH3       010VISTA          000000000090000000000925000000008610000000000000000000890000000153400
0202LOTE PADRAO                   TELESP CL PAPN *       TSPP4       010VISTA          000000000004500000000045000000000440000000000000000000045000102127000
0202LOTE PADRAO                   VALE R DOCE PNA        VALE5       010VISTA          000000000071200000000722000000007040000000000000000000704000000040300
0202LOTE PADRAO                   COPEL       PNB*       CPLE6       010VISTA          000000000013300000000133000000001280000000000000000000130000028654400
0202LOTE PADRAO                   VALE R DOCE ON         VALE3       010VISTA          000000000075000000000767000000007500000000000000000000760000000036500
0202LOTE PADRAO                   ARACRUZ     PNB        ARCZ6       010VISTA          000000000005700000000057500000000550000000000000000000057000000038100
0202LOTE PADRAO                   TELEMIG PARTPN *       TMCP4       010VISTA          000000000002770000000028000000000260000000000000000000028100079672500
0202LOTE PADRAO                   BRASIL TELECPN *       BRTO4       010VISTA          000000000011250000000112500000001090000000000000000000111000075586600
0202LOTE PADRAO                   SABESP      ON *       SBSP3       010VISTA          000000000104500000001059000000010100000000000000000001035000002130700
0202LOTE PADRAO                   BRASKEM     PNA*       BRKM5       010VISTA          000000000410000000004100000000040000000000000000000004015000000093600
0202LOTE PADRAO                   EMBRAER     PN EJ      EMBR4       010VISTA          000000000015000000000150000000001460000000000000000000149000000042200
0202LOTE PADRAO                   TELESP      PN * EJ    TLPP4       010VISTA          000000000034000000000344000000003320000000000000000000340000009439500
0202LOTE PADRAO                   EMBRAER     ON EJ      EMBR3       010VISTA          000000000012900000000131000000001280000000000000000000130000000016700
0202LOTE PADRAO                   AMBEV       PN *       AMBV4       010VISTA          000000000455000000004550000000044500000000000000000004460000003083200
0202LOTE PADRAO                   USIMINAS    PNA        USIM5       010VISTA          000000000007400000000074000000000720000000000000000000073000000083300
0202LOTE PADRAO                   ELETROPAULO PN *       ELPL4       010VISTA          000000000044000000000452000000004220000000000000000000452000001726400
0202LOTE PADRAO                   TELE NORD CLPN *       TNEP4       010VISTA          000000000002400000000024000000000230000000000000000000023000087375400
0202LOTE PADRAO                   CEMIG       PN * EJ    CMIG4       010VISTA          000000000031800000000318000000003100000000000000000000318000013244200
0202LOTE PADRAO                   TELE CL SUL PN * EJ    TCSL4       010VISTA          000000000002800000000028000000000275000000000000000000027000059032200
0202LOTE PADRAO                   TRACTEBEL   ON *       TBLE3       010VISTA          000000000003800000000040000000000380000000000000000000040000016053000
0202LOTE PADRAO                   CEMIG       ON * EJ    CMIG3       010VISTA          000000000030000000000300000000002980000000000000000000298000000840200
0202LOTE PADRAO                   TELE CL SUL ON * EJ    TCSL3       010VISTA          000000000002300000000023000000000230000000000000000000023000008945400
0202LOTE PADRAO                   ITAUSA      PN         ITSA4       010VISTA          000000000001960000000019600000000180000000000000000000018000000531200
0202LOTE PADRAO                   V C P       PN *       VCPA4       010VISTA          000000000103000000001035000000010200000000000000000001034000001767000
0202LOTE PADRAO                   SID TUBARAO PN *       CSTB4       010VISTA          000000000027100000000285000000002710000000000000000000285000007313200
0202LOTE PADRAO                   BRADESPAR   PN *       BRAP4       010VISTA          000000000000620000000006300000000061000000000000000000006100096469000
0202LOTE PADRAO                   NET         PN         PLIM4       010VISTA          000000000000360000000003700000000034000000000000000000003500001250500
0202LOTE PADRAO                   TELE CTR OESPN * EJ    TCOC4       010VISTA          000000000003900000000039000000000370000000000000000000037000210764000
0202LOTE PADRAO                   TELEMAR N L PNA* EJ    TMAR5       010VISTA          000000000050000000000505000000004900000000000000000000502000017543300
0202LOTE PADRAO                   GERDAU      PN * EJ    GGBR4       010VISTA          000000000031000000000310000000002960000000000000000000298000021131500
0202LOTE PADRAO                   BRASIL      ON *       BBAS3       010VISTA          000000000011000000000110000000001060000000000000000000108000006609000
