00BDIN9999BOVESPA 99992002062820020628
0101IBOVESPA                      0110180110180112710000000000000000002002062800000020020628011139000000
0202LOTE PADRAO                   EMBRATEL PARPN *       EBTP4       010VISTA          000000000001950000000020000000000140000000000000000000014002324790000
0202LOTE PADRAO                   TRAN PAULISTPN * EJ    TRPL4       010VISTA          000000000006000000000063000000000600000000000000000000062000008115000
0202LOTE PADRAO                   EMBRATEL PARON *       EBTP3       010VISTA          000000000003200000000034000000000270000000000000000000027000083849100
0202LOTE PADRAO                   TELEMAR     PN * EJ    TNLP4       010VISTA          000000000027900000000286000000002750000000000000000000283000186811000
0202LOTE PADRAO                   ITAUBANCO   PN * EJ    ITAU4       010VISTA          000000000158000000001600000000015750000000000000000001600000006220300
0202LOTE PADRAO                   TELEMAR     ON * EJ    TNLP3       010VISTA          000000000023000000000238000000002300000000000000000000235000012472600
0202LOTE PADRAO                   SID NACIONALON *       CSNA3       010VISTA          000000000044500000000451000000004350000000000000000000449000028785100
0202LOTE PADRAO                   TELE LEST CLPN *       TLCP4       010VISTA          000000000000580000000005900000000058000000000000000000005900142664000
0202LOTE PADRAO                   CRT CELULAR PNA* EJ    CRTP5       010VISTA          000000000384000000004099000000038400000000000000000004089000000361300
0202LOTE PADRAO                   IPIRANGA PETPN *       PTIP4       010VISTA          000000000012500000000125000000001230000000000000000000124000002894400
0202LOTE PADRAO                   BRASIL T PARPN *       BRTP4       010VISTA          000000000015750000000161000000001480000000000000000000158000106166000
0202LOTE PADRAO                   BRASIL T PARON *       BRTP3       010VISTA          000000000014800000000155000000001480000000000000000000149000005812300
0202LOTE PADRAO                   KLABIN S/A  PN         KLBN4       010VISTA          000000000000950000000009800000000095000000000000000000009600000020800
0202LOTE PADRAO                   ACESITA     PN *       ACES4       010VISTA          000000000000600000000006300000000060000000000000000000006300067535700
0202LOTE PADRAO                   PETROBRAS   PN         PETR4       010VISTA          000000000048700000000498000000004850000000000000000000491000000075500
0202LOTE PADRAO                   ELETROBRAS  PNB*       ELET6       010VISTA          000000000025800000000268000000002560000000000000000000268000089562700
0202LOTE PADRAO                   PETROBRAS   ON         PETR3       010VISTA          000000000054000000000543000000005250000000000000000000530000000027400
0202LOTE PADRAO                   COMGAS      PNA*       CGAS5       010VISTA          000000000060000000000627000000006000000000000000000000620000000651600
0202LOTE PADRAO                   SOUZA CRUZ  ON EJ      CRUZ3       010VISTA          000000000014200000000148000000001400000000000000000000146000000010900
0202LOTE PADRAO                   ELETROBRAS  ON *       ELET3       010VISTA          000000000028800000000298000000002860000000000000000000293000008486200
0202LOTE PADRAO                   CELESC      PNB        CLSC6       010VISTA          000000000000630000000006300000000060000000000000000000006100000323600
0202LOTE PADRAO                   BRADESCO    PN * EJ    BBDC4       010VISTA          000000000011100000000114000000001100000000000000000000110000115454000
0202LOTE PADRAO                   CESP        PN *       CESP4       010VISTA          000000000009200000000092000000000890000000000000000000089000013936000
0202LOTE PADRAO                   LIGHT       ON *       LIGH3       010VISTA          000000000087800000000884000000008660000000000000000000866000001279900
0202LOTE PADRAO                   TELESP CL PAPN *       TSPP4       010VISTA          000000000004300000000044000000000425000000000000000000044000249262000
0202LOTE PADRAO                   VALE R DOCE PNA        VALE5       010VISTA          000000000072500000000735000000007250000000000000000000730000000024600
0202LOTE PADRAO                   COPEL       PNB*       CPLE6       010VISTA          000000000011400000000116000000001120000000000000000000115000105690000
0202LOTE PADRAO                   VALE R DOCE ON         VALE3       010VISTA          000000000077000000000795000000007700000000000000000000777000000012600
0202LOTE PADRAO                   ARACRUZ     PNB        ARCZ6       010VISTA          000000000005600000000057000000000550000000000000000000056000000028500
0202LOTE PADRAO                   TELEMIG PARTPN *       TMCP4       010VISTA          000000000002700000000029400000000270000000000000000000028000110045000
0202LOTE PADRAO                   BRASIL TELECPN *       BRTO4       010VISTA          000000000010800000000113000000001070000000000000000000113000094021000
0202LOTE PADRAO                   SABESP      ON *       SBSP3       010VISTA          000000000098700000001000000000009800000000000000000000998000002115200
0202LOTE PADRAO                   BRASKEM     PNA*       BRKM5       010VISTA          000000000409900000004200000000039000000000000000000003900000000089600
0202LOTE PADRAO                   EMBRAER     PN EJ      EMBR4       010VISTA          000000000014700000000150000000001470000000000000000000150000000110500
0202LOTE PADRAO                   TELESP      PN * EJ    TLPP4       010VISTA          000000000033400000000348000000003320000000000000000000346000014038800
0202LOTE PADRAO                   EMBRAER     ON EJ      EMBR3       010VISTA          000000000013400000000138000000001340000000000000000000138000000029800
0202LOTE PADRAO                   AMBEV       PN *       AMBV4       010VISTA          000000000435000000004428000000043500000000000000000004375000001093200
0202LOTE PADRAO                   USIMINAS    PNA        USIM5       010VISTA          000000000006700000000069000000000660000000000000000000068000000036100
0202LOTE PADRAO                   ELETROPAULO PN *       ELPL4       010VISTA          000000000040600000000445000000004060000000000000000000439000005626100
0202LOTE PADRAO                   TELE NORD CLPN *       TNEP4       010VISTA          000000000002500000000027000000000250000000000000000000026000110601000
0202LOTE PADRAO                   CEMIG       PN * EJ    CMIG4       010VISTA          000000000031600000000321000000003140000000000000000000320000036303500
0202LOTE PADRAO                   TELE CL SUL PN * EJ    TCSL4       010VISTA          000000000003000000000031000000000290000000000000000000031000171980000
0202LOTE PADRAO                   TRACTEBEL   ON *       TBLE3       010VISTA          000000000003900000000041000000000380000000000000000000039000010976400
0202LOTE PADRAO                   CEMIG       ON * EJ    CMIG3       010VISTA          000000000029500000000298000000002900000000000000000000297000000659300
0202LOTE PADRAO                   TELE CL SUL ON * EJ    TCSL3       010VISTA          000000000002500000000026000000000250000000000000000000026000044372400
0202LOTE PADRAO                   ITAUSA      PN         ITSA4       010VISTA          000000000001800000000019000000000180000000000000000000018000000225100
0202LOTE PADRAO                   V C P       PN *       VCPA4       010VISTA          000000000102000000001049000000010200000000000000000001035000001721000
0202LOTE PADRAO                   SID TUBARAO PN *       CSTB4       010VISTA          000000000027000000000290000000002700000000000000000000289000016864000
0202LOTE PADRAO                   BRADESPAR   PN *       BRAP4       010VISTA          000000000000540000000005500000000053000000000000000000005500149670000
0202LOTE PADRAO                   NET         PN         PLIM4       010VISTA          000000000002000000000021000000000160000000000000000000016000000287900
0202LOTE PADRAO                   TELE CTR OESPN * EJ    TCOC4       010VISTA          000000000003900000000041000000000390000000000000000000041000222693000
0202LOTE PADRAO                   TELEMAR N L PNA* EJ    TMAR5       010VISTA          000000000049500000000500000000004900000000000000000000500000018602100
0202LOTE PADRAO                   GERDAU      PN * EJ    GGBR4       010VISTA          000000000028800000000296000000002880000000000000000000293000006161100
0202LOTE PADRAO                   BRASIL      ON *       BBAS3       010VISTA          000000000009300000000093000000000880000000000000000000089000004299900
