00BDIN9999BOVESPA 99992002071820020718
0101IBOVESPA                      0107550107100109150000000000000000002002071800000020020718010813000000
0202LOTE PADRAO                   EMBRATEL PARPN *       EBTP4       010VISTA          000000000001550000000015000000000152000000000000000000015400156603000
0202LOTE PADRAO                   TRAN PAULISTPN * EJ    TRPL4       010VISTA          000000000005800000000059000000000570000000000000000000058000003127900
0202LOTE PADRAO                   EMBRATEL PARON *       EBTP3       010VISTA          000000000002300000000023000000000220000000000000000000022000019997700
0202LOTE PADRAO                   TELEMAR     PN * EJ    TNLP4       010VISTA          000000000026900000000274000000002650000000000000000000270000162794000
0202LOTE PADRAO                   ITAUBANCO   PN * EJ    ITAU4       010VISTA          000000000164500000001690000000016450000000000000000001685000008257000
0202LOTE PADRAO                   TELEMAR     ON * EJ    TNLP3       010VISTA          000000000021250000000213000000002050000000000000000000210000023458900
0202LOTE PADRAO                   SID NACIONALON *       CSNA3       010VISTA          000000000053500000000575000000005350000000000000000000558000092731400
0202LOTE PADRAO                   TELE LEST CLPN *       TLCP4       010VISTA          000000000000510000000005400000000051000000000000000000005200081146300
0202LOTE PADRAO                   CRT CELULAR PNA* EJ    CRTP5       010VISTA          000000000400000000004099000000038900000000000000000004065000000145300
0202LOTE PADRAO                   IPIRANGA PETPN *       PTIP4       010VISTA          000000000013100000000131000000001280000000000000000000129000000410000
0202LOTE PADRAO                   BRASIL T PARPN *       BRTP4       010VISTA          000000000016500000000169000000001630000000000000000000167000038249300
0202LOTE PADRAO                   BRASIL T PARON *       BRTP3       010VISTA          000000000013500000000140000000001330000000000000000000139000011963400
0202LOTE PADRAO                   KLABIN S/A  PN         KLBN4       010VISTA          000000000000860000000008900000000085000000000000000000008600000100900
0202LOTE PADRAO                   ACESITA     PN *       ACES4       010VISTA          000000000000610000000006200000000060000000000000000000006000070140900
0202LOTE PADRAO                   PETROBRAS   PN         PETR4       010VISTA          000000000046000000000463000000004470000000000000000000447000000078500
0202LOTE PADRAO                   ELETROBRAS  PNB*       ELET6       010VISTA          000000000023600000000240000000002330000000000000000000236000024281800
0202LOTE PADRAO                   PETROBRAS   ON         PETR3       010VISTA          000000000050100000000501000000004860000000000000000000486000000048000
0202LOTE PADRAO                   COMGAS      PNA*       CGAS5       010VISTA          000000000059800000000598000000005700000000000000000000590000003256600
0202LOTE PADRAO                   SOUZA CRUZ  ON EJ      CRUZ3       010VISTA          000000000014900000000150000000001480000000000000000000150000000025300
0202LOTE PADRAO                   ELETROBRAS  ON *       ELET3       010VISTA          000000000025600000000265000000002560000000000000000000259000007280900
0202LOTE PADRAO                   CELESC      PNB        CLSC6       010VISTA          000000000000590000000005900000000058000000000000000000005900000060100
0202LOTE PADRAO                   BRADESCO    PN * EJ    BBDC4       010VISTA          000000000011500000000116000000001140000000000000000000115000137434000
0202LOTE PADRAO                   CESP        PN *       CESP4       010VISTA          000000000008000000000082000000000790000000000000000000080000010017000
0202LOTE PADRAO                   LIGHT       ON *       LIGH3       010VISTA          000000000085900000000880000000008530000000000000000000860000000425700
0202LOTE PADRAO                   TELESP CL PAPN *       TSPP4       010VISTA          000000000003400000000035000000000320000000000000000000034000146509000
0202LOTE PADRAO                   VALE R DOCE PNA        VALE5       010VISTA          000000000070000000000700000000006850000000000000000000687000000017600
0202LOTE PADRAO                   COPEL       PNB*       CPLE6       010VISTA          000000000011700000000120000000001160000000000000000000119000027161700
0202LOTE PADRAO                   VALE R DOCE ON         VALE3       010VISTA          000000000078000000000780000000007600000000000000000000760000000001400
0202LOTE PADRAO                   ARACRUZ     PNB        ARCZ6       010VISTA          000000000005500000000057000000000530000000000000000000054000000084100
0202LOTE PADRAO                   TELEMIG PARTPN *       TMCP4       010VISTA          000000000003100000000032000000000310000000000000000000032000100368000
0202LOTE PADRAO                   BRASIL TELECPN *       BRTO4       010VISTA          000000000011250000000115000000001110000000000000000000115000027050300
0202LOTE PADRAO                   SABESP      ON *       SBSP3       010VISTA          000000000097700000001015000000009650000000000000000001015000003780600
0202LOTE PADRAO                   BRASKEM     PNA*       BRKM5       010VISTA          000000000398900000004020000000039500000000000000000003999000000038700
0202LOTE PADRAO                   EMBRAER     PN EJ      EMBR4       010VISTA          000000000015100000000151000000001500000000000000000000151000000030700
0202LOTE PADRAO                   TELESP      PN * EJ    TLPP4       010VISTA          000000000032200000000338000000003200000000000000000000338000007718400
0202LOTE PADRAO                   EMBRAER     ON EJ      EMBR3       010VISTA          000000000014000000000140000000001380000000000000000000139000000003600
0202LOTE PADRAO                   AMBEV       PN *       AMBV4       010VISTA          000000000445000000004535000000044500000000000000000004500000000534100
0202LOTE PADRAO                   USIMINAS    PNA        USIM5       010VISTA          000000000006100000000064000000000600000000000000000000064000000071900
0202LOTE PADRAO                   ELETROPAULO PN *       ELPL4       010VISTA          000000000044000000000443000000004350000000000000000000442000001867000
0202LOTE PADRAO                   TELE NORD CLPN *       TNEP4       010VISTA          000000000002750000000028000000000270000000000000000000027000088674800
0202LOTE PADRAO                   CEMIG       PN * EJ    CMIG4       010VISTA          000000000029300000000300000000002910000000000000000000297500017083000
0202LOTE PADRAO                   TELE CL SUL PN * EJ    TCSL4       010VISTA          000000000003200000000032500000000310000000000000000000031000054951400
0202LOTE PADRAO                   TRACTEBEL   ON *       TBLE3       010VISTA          000000000004000000000041000000000400000000000000000000040000010475700
0202LOTE PADRAO                   CEMIG       ON * EJ    CMIG3       010VISTA          000000000028900000000294000000002850000000000000000000286000000740000
0202LOTE PADRAO                   TELE CL SUL ON * EJ    TCSL3       010VISTA          000000000002500000000025000000000240000000000000000000025200011039600
0202LOTE PADRAO                   ITAUSA      PN         ITSA4       010VISTA          000000000001800000000019400000000180000000000000000000019000000350000
0202LOTE PADRAO                   V C P       PN *       VCPA4       010VISTA          000000000099900000000999000000009640000000000000000000970000004404000
0202LOTE PADRAO                   SID TUBARAO PN *       CSTB4       010VISTA          000000000027800000000282000000002730000000000000000000281000007861600
0202LOTE PADRAO                   BRADESPAR   PN *       BRAP4       010VISTA          000000000000490000000005100000000048000000000000000000005100140775000
0202LOTE PADRAO                   NET         PN         PLIM4       010VISTA          000000000001600000000016000000000153000000000000000000016000000110400
0202LOTE PADRAO                   TELE CTR OESPN * EJ    TCOC4       010VISTA          000000000004100000000042000000000400000000000000000000041000066309700
0202LOTE PADRAO                   TELEMAR N L PNA* EJ    TMAR5       010VISTA          000000000046500000000470000000004630000000000000000000467000016099400
0202LOTE PADRAO                   GERDAU      PN * EJ    GGBR4       010VISTA          000000000029900000000304000000002980000000000000000000303000014632400
0202LOTE PADRAO                   BRASIL      ON *       BBAS3       010VISTA          000000000011000000000113000000001060000000000000000000109000011829400
