00BDIN9999BOVESPA 99992002030720020307
0101IBOVESPA                      0138360136400140110000000000000000002002030700000020020307013726000000
0202LOTE PADRAO                   EMBRATEL PARPN *       EBTP4       010VISTA          000000000008600000000089000000000850000000000000000000087500142656000
0202LOTE PADRAO                   EMBRATEL PARON *       EBTP3       010VISTA          000000000010250000000105000000000980000000000000000000098000022512700
0202LOTE PADRAO                   TRAN PAULISTPN * EJ    TRPL4       010VISTA          000000000007790000000077900000000730000000000000000000074000016875000
0202LOTE PADRAO                   TELEMAR     PN * EJ    TNLP4       010VISTA          000000000032200000000327000000003090000000000000000000313000410871000
0202LOTE PADRAO                   ITAUBANCO   PN * EJ    ITAU4       010VISTA          000000000189500000001915000000018850000000000000000001890000008461700
0202LOTE PADRAO                   TELEMAR     ON * EJ    TNLP3       010VISTA          000000000028000000000281000000002650000000000000000000269000027581900
0202LOTE PADRAO                   SID NACIONALON *       CSNA3       010VISTA          000000000041200000000420000000004020000000000000000000420000014447700
0202LOTE PADRAO                   TELE LEST CLPN *       TLCP4       010VISTA          000000000000890000000009100000000085000000000000000000008600142967000
0202LOTE PADRAO                   CRT CELULAR PNA* EJ    CRTP5       010VISTA          000000000489000000005000000000046500000000000000000004700000000385600
0202LOTE PADRAO                   IPIRANGA PETPN *       PTIP4       010VISTA          000000000014000000000143000000001400000000000000000000140000003033300
0202LOTE PADRAO                   BRASIL T PARPN *       BRTP4       010VISTA          000000000019100000000192000000001840000000000000000000192000105992000
0202LOTE PADRAO                   BRASIL T PARON *       BRTP3       010VISTA          000000000019000000000191000000001830000000000000000000188000009791000
0202LOTE PADRAO                   KLABIN S/A  PN         KLBN4       010VISTA          000000000001270000000013000000000126000000000000000000012700000106200
0202LOTE PADRAO                   ACESITA     PN *       ACES4       010VISTA          000000000000710000000007300000000070000000000000000000007100255790000
0202LOTE PADRAO                   PETROBRAS   PN         PETR4       010VISTA          000000000056200000000573000000005600000000000000000000565000000114000
0202LOTE PADRAO                   ELETROBRAS  PNB*       ELET6       010VISTA          000000000036000000000372000000003560000000000000000000363000039545600
0202LOTE PADRAO                   PETROBRAS   ON         PETR3       010VISTA          000000000058900000000602000000005890000000000000000000593000000036100
0202LOTE PADRAO                   COMGAS      PNA*       CGAS5       010VISTA          000000000089900000000899000000008550000000000000000000860000000786000
0202LOTE PADRAO                   SOUZA CRUZ  ON EJ      CRUZ3       010VISTA          000000000014300000000149000000001420000000000000000000144000000011100
0202LOTE PADRAO                   ELETROBRAS  ON *       ELET3       010VISTA          000000000041200000000415000000004000000000000000000000414000008042800
0202LOTE PADRAO                   CELESC      PNB        CLSC6       010VISTA          000000000000600000000006100000000058000000000000000000005900000263500
0202LOTE PADRAO                   BRADESCO    PN * EJ    BBDC4       010VISTA          000000000013500000000138000000001340000000000000000000134000162627000
0202LOTE PADRAO                   CESP        PN *       CESP4       010VISTA          000000000015500000000156000000001470000000000000000000150000008200100
0202LOTE PADRAO                   LIGHT       ON *       LIGH3       010VISTA          000000000121000000001220000000011500000000000000000001190000000331200
0202LOTE PADRAO                   TELESP CL PAPN *       TSPP4       010VISTA          000000000007500000000075000000000696000000000000000000069600583703000
0202LOTE PADRAO                   VALE R DOCE PNA        VALE5       010VISTA          000000000059700000000635000000005950000000000000000000600000000054300
0202LOTE PADRAO                   COPEL       PNB*       CPLE6       010VISTA          000000000019000000000191000000001830000000000000000000187500049799100
0202LOTE PADRAO                   VALE R DOCE ON         VALE3       010VISTA          000000000064200000000642000000006130000000000000000000613000000001300
0202LOTE PADRAO                   ARACRUZ     PNB        ARCZ6       010VISTA          000000000004700000000048000000000470000000000000000000047500000018600
0202LOTE PADRAO                   TELEMIG PARTPN *       TMCP4       010VISTA          000000000003810000000038000000000360000000000000000000037700110117000
0202LOTE PADRAO                   BRASIL TELECPN *       BRTO4       010VISTA          000000000013300000000138000000001300000000000000000000134000085338300
0202LOTE PADRAO                   SABESP      ON *       SBSP3       010VISTA          000000000131000000001380000000012900000000000000000001331000002158500
0202LOTE PADRAO                   BRASKEM     PNA*       BRKM5       010VISTA          000000000554000000005600000000053000000000000000000005405000000083500
0202LOTE PADRAO                   EMBRAER     PN EJ      EMBR4       010VISTA          000000000012500000000128000000001230000000000000000000124000000084100
0202LOTE PADRAO                   TELESP      PN * EJ    TLPP4       010VISTA          000000000033200000000350000000003260000000000000000000337000006340900
0202LOTE PADRAO                   EMBRAER     ON EJ      EMBR3       010VISTA          000000000011800000000119000000001140000000000000000000114000000024800
0202LOTE PADRAO                   AMBEV       PN *       AMBV4       010VISTA          000000000450000000004520000000043600000000000000000004393000002902600
0202LOTE PADRAO                   USIMINAS    PNA        USIM5       010VISTA          000000000007200000000072500000000710000000000000000000071000000071100
0202LOTE PADRAO                   ELETROPAULO PN *       ELPL4       010VISTA          000000000067600000000700000000006450000000000000000000667500005998800
0202LOTE PADRAO                   TELE NORD CLPN *       TNEP4       010VISTA          000000000003200000000033000000000320000000000000000000032000206211000
0202LOTE PADRAO                   CEMIG       PN * EJ    CMIG4       010VISTA          000000000038000000000387000000003770000000000000000000383000033662600
0202LOTE PADRAO                   TELE CL SUL PN * EJ    TCSL4       010VISTA          000000000003300000000034000000000330000000000000000000033000155893000
0202LOTE PADRAO                   CEMIG       ON * EJ    CMIG3       010VISTA          000000000033700000000337000000003300000000000000000000330000002101100
0202LOTE PADRAO                   TELE CL SUL ON * EJ    TCSL3       010VISTA          000000000003100000000031000000000296000000000000000000030000020645500
0202LOTE PADRAO                   ITAUSA      PN         ITSA4       010VISTA          000000000002200000000023000000000220000000000000000000022500000252500
0202LOTE PADRAO                   V C P       PN *       VCPA4       010VISTA          000000000088000000000880000000008550000000000000000000867000000761000
0202LOTE PADRAO                   SID TUBARAO PN *       CSTB4       010VISTA          000000000025000000000251000000002400000000000000000000241000015698000
0202LOTE PADRAO                   BRADESPAR   PN *       BRAP4       010VISTA          000000000000790000000008000000000077000000000000000000007700244741000
0202LOTE PADRAO                   NET         PN         PLIM4       010VISTA          000000000000690000000007100000000067000000000000000000006900001260900
0202LOTE PADRAO                   TELE CTR OESPN * EJ    TCOC4       010VISTA          000000000005100000000052000000000490000000000000000000050000100982000
0202LOTE PADRAO                   TELEMAR N L PNA* EJ    TMAR5       010VISTA          000000000055500000000560000000005460000000000000000000551000034563500
0202LOTE PADRAO                   GERDAU      PN * EJ    GGBR4       010VISTA          000000000027300000000277500000002600000000000000000000265000018783500
0202LOTE PADRAO                   BRASIL      ON *       BBAS3       010VISTA          000000000011000000000114000000001060000000000000000000110000007503700
