00BDIN9999BOVESPA 99992002061220020612
0101IBOVESPA                      0122210120580124000000000000000000002002061200000020020612012133000000
0202LOTE PADRAO                   EMBRATEL PARPN *       EBTP4       010VISTA          000000000003800000000039000000000360000000000000000000036000302604000
0202LOTE PADRAO                   TRAN PAULISTPN * EJ    TRPL4       010VISTA          000000000006200000000065000000000610000000000000000000063000021384700
0202LOTE PADRAO                   EMBRATEL PARON *       EBTP3       010VISTA          000000000005000000000052000000000480000000000000000000049000025903700
0202LOTE PADRAO                   TELEMAR     PN * EJ    TNLP4       010VISTA          000000000031300000000315000000003010000000000000000000305000405399000
0202LOTE PADRAO                   ITAUBANCO   PN * EJ    ITAU4       010VISTA          000000000167000000001690000000016200000000000000000001629000012517600
0202LOTE PADRAO                   TELEMAR     ON * EJ    TNLP3       010VISTA          000000000025500000000265000000002450000000000000000000253000011458100
0202LOTE PADRAO                   SID NACIONALON *       CSNA3       010VISTA          000000000045300000000460000000004350000000000000000000438000011270300
0202LOTE PADRAO                   TELE LEST CLPN *       TLCP4       010VISTA          000000000000660000000006700000000065000000000000000000006700172927000
0202LOTE PADRAO                   CRT CELULAR PNA* EJ    CRTP5       010VISTA          000000000410000000004179000000039600000000000000000004100000000833800
0202LOTE PADRAO                   IPIRANGA PETPN *       PTIP4       010VISTA          000000000013000000000135000000001300000000000000000000135000002580000
0202LOTE PADRAO                   BRASIL T PARPN *       BRTP4       010VISTA          000000000016300000000168000000001590000000000000000000163000079230500
0202LOTE PADRAO                   BRASIL T PARON *       BRTP3       010VISTA          000000000015000000000151000000001460000000000000000000148000007141900
0202LOTE PADRAO                   KLABIN S/A  PN         KLBN4       010VISTA          000000000000980000000010000000000096000000000000000000010000000026200
0202LOTE PADRAO                   ACESITA     PN *       ACES4       010VISTA          000000000000670000000006900000000066000000000000000000006800201467000
0202LOTE PADRAO                   PETROBRAS   PN         PETR4       010VISTA          000000000053000000000530000000005210000000000000000000521000000073400
0202LOTE PADRAO                   ELETROBRAS  PNB*       ELET6       010VISTA          000000000027800000000280000000002660000000000000000000266000130510000
0202LOTE PADRAO                   PETROBRAS   ON         PETR3       010VISTA          000000000057300000000577000000005660000000000000000000566000000037200
0202LOTE PADRAO                   COMGAS      PNA*       CGAS5       010VISTA          000000000067000000000700000000006700000000000000000000695000000999000
0202LOTE PADRAO                   SOUZA CRUZ  ON EJ      CRUZ3       010VISTA          000000000015800000000159000000001575000000000000000000157500000009500
0202LOTE PADRAO                   ELETROBRAS  ON *       ELET3       010VISTA          000000000031600000000330000000003080000000000000000000308000041960000
0202LOTE PADRAO                   CELESC      PNB        CLSC6       010VISTA          000000000000520000000005200000000050000000000000000000005200000402800
0202LOTE PADRAO                   BRADESCO    PN * EJ    BBDC4       010VISTA          000000000012300000000123000000001190000000000000000000119000203112000
0202LOTE PADRAO                   CESP        PN *       CESP4       010VISTA          000000000009500000000101000000000950000000000000000000096000005573300
0202LOTE PADRAO                   LIGHT       ON *       LIGH3       010VISTA          000000000088200000000930000000008820000000000000000000930000000697800
0202LOTE PADRAO                   TELESP CL PAPN *       TSPP4       010VISTA          000000000004700000000049000000000460000000000000000000047500223746000
0202LOTE PADRAO                   VALE R DOCE PNA        VALE5       010VISTA          000000000075000000000750000000007370000000000000000000740000000018900
0202LOTE PADRAO                   COPEL       PNB*       CPLE6       010VISTA          000000000013600000000139000000001340000000000000000000135000031119600
0202LOTE PADRAO                   VALE R DOCE ON         VALE3       010VISTA          000000000078400000000784000000007680000000000000000000780000000011600
0202LOTE PADRAO                   ARACRUZ     PNB        ARCZ6       010VISTA          000000000005710000000059000000000571000000000000000000059000000052800
0202LOTE PADRAO                   TELEMIG PARTPN *       TMCP4       010VISTA          000000000003000000000030000000000271000000000000000000028000172972000
0202LOTE PADRAO                   BRASIL TELECPN *       BRTO4       010VISTA          000000000012000000000120000000001130000000000000000000116000228999000
0202LOTE PADRAO                   SABESP      ON *       SBSP3       010VISTA          000000000106000000001074000000010150000000000000000001021000003706800
0202LOTE PADRAO                   BRASKEM     PNA*       BRKM5       010VISTA          000000000391000000004298000000039100000000000000000004100000000391700
0202LOTE PADRAO                   EMBRAER     PN EJ      EMBR4       010VISTA          000000000014800000000153000000001480000000000000000000151000000057600
0202LOTE PADRAO                   TELESP      PN * EJ    TLPP4       010VISTA          000000000035000000000355000000003400000000000000000000350000009214100
0202LOTE PADRAO                   EMBRAER     ON EJ      EMBR3       010VISTA          000000000013000000000134000000001300000000000000000000131000000024900
0202LOTE PADRAO                   AMBEV       PN *       AMBV4       010VISTA          000000000474900000004749000000046160000000000000000004626000002345300
0202LOTE PADRAO                   USIMINAS    PNA        USIM5       010VISTA          000000000007500000000076000000000740000000000000000000075000000034600
0202LOTE PADRAO                   ELETROPAULO PN *       ELPL4       010VISTA          000000000045500000000491000000004510000000000000000000470000004126200
0202LOTE PADRAO                   TELE NORD CLPN *       TNEP4       010VISTA          000000000002500000000025000000000240000000000000000000025000118179000
0202LOTE PADRAO                   CEMIG       PN * EJ    CMIG4       010VISTA          000000000032700000000327000000003100000000000000000000316000042431000
0202LOTE PADRAO                   TELE CL SUL PN * EJ    TCSL4       010VISTA          000000000002940000000030000000000280000000000000000000029800076013900
0202LOTE PADRAO                   TRACTEBEL   ON *       TBLE3       010VISTA          000000000004000000000041000000000390000000000000000000040000014300000
0202LOTE PADRAO                   CEMIG       ON * EJ    CMIG3       010VISTA          000000000029500000000318000000002950000000000000000000310000004300100
0202LOTE PADRAO                   TELE CL SUL ON * EJ    TCSL3       010VISTA          000000000002400000000025000000000230000000000000000000024000015783500
0202LOTE PADRAO                   ITAUSA      PN         ITSA4       010VISTA          000000000002000000000020000000000195000000000000000000020000000234200
0202LOTE PADRAO                   V C P       PN *       VCPA4       010VISTA          000000000110000000001110000000010900000000000000000001090000004798400
0202LOTE PADRAO                   SID TUBARAO PN *       CSTB4       010VISTA          000000000028100000000288000000002770000000000000000000281000009610000
0202LOTE PADRAO                   BRADESPAR   PN *       BRAP4       010VISTA          000000000000610000000006500000000060000000000000000000006400454232000
0202LOTE PADRAO                   NET         PN         PLIM4       010VISTA          000000000000360000000003800000000036000000000000000000003700003764800
0202LOTE PADRAO                   TELE CTR OESPN * EJ    TCOC4       010VISTA          000000000004000000000042000000000390000000000000000000040000155796000
0202LOTE PADRAO                   TELEMAR N L PNA* EJ    TMAR5       010VISTA          000000000052000000000521000000005020000000000000000000510000107447000
0202LOTE PADRAO                   GERDAU      PN * EJ    GGBR4       010VISTA          000000000031600000000320000000003110000000000000000000311000015760100
0202LOTE PADRAO                   BRASIL      ON *       BBAS3       010VISTA          000000000011500000000119000000001110000000000000000000113000006219000
