00BDIN9999BOVESPA 99992002083020020830
0101IBOVESPA                      0104650103820106040000000000000000002002083000000020020830010382000000
0202LOTE PADRAO                   EMBRATEL PARPN *       EBTP4       010VISTA          000000000003000000000030000000000270000000000000000000028001012950000
0202LOTE PADRAO                   EMBRATEL PARON *       EBTP3       010VISTA          000000000003900000000039600000000360000000000000000000036900107292000
0202LOTE PADRAO                   TRAN PAULISTPN * EJ    TRPL4       010VISTA          000000000005700000000059000000000540000000000000000000054000038298000
0202LOTE PADRAO                   ITAUBANCO   PN * EJ    ITAU4       010VISTA          000000000142400000001470000000014200000000000000000001470000027110700
0202LOTE PADRAO                   TELEMAR     ON * EJ    TNLP3       010VISTA          000000000020800000000216000000002000000000000000000000203000033332200
0202LOTE PADRAO                   SID NACIONALON *       CSNA3       010VISTA          000000000041300000000417500000003990000000000000000000405000048039000
0202LOTE PADRAO                   TELE LEST CLPN *       TLCP4       010VISTA          000000000000480000000005000000000045000000000000000000004500281575000
0202LOTE PADRAO                   CRT CELULAR PNA* EJ    CRTP5       010VISTA          000000000388000000003960000000036510000000000000000003700000001591000
0202LOTE PADRAO                   IPIRANGA PETPN *       PTIP4       010VISTA          000000000011600000000120000000001150000000000000000000120000008236300
0202LOTE PADRAO                   BRASIL T PARPN *       BRTP4       010VISTA          000000000018400000000186000000001760000000000000000000176000085536700
0202LOTE PADRAO                   BRASIL T PARON *       BRTP3       010VISTA          000000000014600000000148000000001360000000000000000000136000018656700
0202LOTE PADRAO                   KLABIN S/A  PN         KLBN4       010VISTA          000000000000950000000009900000000095000000000000000000009500000060700
0202LOTE PADRAO                   ACESITA     PN *       ACES4       010VISTA          000000000000680000000007100000000068000000000000000000006800323852000
0202LOTE PADRAO                   PETROBRAS   PN         PETR4       010VISTA          000000000043900000000443000000004360000000000000000000440000000136200
0202LOTE PADRAO                   ELETROBRAS  PNB*       ELET6       010VISTA          000000000021500000000218000000002130000000000000000000218000092589000
0202LOTE PADRAO                   PETROBRAS   ON         PETR3       010VISTA          000000000047900000000485000000004750000000000000000000482000000063000
0202LOTE PADRAO                   COMGAS      PNA*       CGAS5       010VISTA          000000000062000000000680000000006100000000000000000000610000005087400
0202LOTE PADRAO                   SOUZA CRUZ  ON EJ      CRUZ3       010VISTA          000000000015500000000156000000001480000000000000000000148000000017100
0202LOTE PADRAO                   ELETROBRAS  ON *       ELET3       010VISTA          000000000021800000000223000000002180000000000000000000223000040399800
0202LOTE PADRAO                   CELESC      PNB        CLSC6       010VISTA          000000000000590000000006100000000058000000000000000000005900000527100
0202LOTE PADRAO                   BRADESCO    PN * EJ    BBDC4       010VISTA          000000000010000000000102000000000990000000000000000000101000467643000
0202LOTE PADRAO                   CESP        PN *       CESP4       010VISTA          000000000007800000000081000000000780000000000000000000081000017260600
0202LOTE PADRAO                   LIGHT       ON *       LIGH3       010VISTA          000000000082900000000830000000007450000000000000000000745000001004100
0202LOTE PADRAO                   TELESP CL PAPN *       TSPP4       010VISTA          000000000003900000000041000000000390000000000000000000040001077040000
0202LOTE PADRAO                   VALE R DOCE PNA        VALE5       010VISTA          000000000069700000000700000000006900000000000000000000690000000035700
0202LOTE PADRAO                   COPEL       PNB*       CPLE6       010VISTA          000000000010300000000107000000001030000000000000000000107000106593000
0202LOTE PADRAO                   VALE R DOCE ON         VALE3       010VISTA          000000000076200000000770000000007450000000000000000000750000000006900
0202LOTE PADRAO                   ARACRUZ     PNB        ARCZ6       010VISTA          000000000005700000000057500000000525000000000000000000052500000108600
0202LOTE PADRAO                   TELEMIG PARTPN *       TMCP4       010VISTA          000000000003000000000031000000000280000000000000000000028000267805000
0202LOTE PADRAO                   BRASIL TELECPN *       BRTO4       010VISTA          000000000012200000000124000000001180000000000000000000118000272427000
0202LOTE PADRAO                   SABESP      ON *       SBSP3       010VISTA          000000000086500000000880000000008490000000000000000000851000022947800
0202LOTE PADRAO                   BRASKEM     PNA*       BRKM5       010VISTA          000000000315000000003198000000030200000000000000000003150000000329900
0202LOTE PADRAO                   EMBRAER     PN EJ      EMBR4       010VISTA          000000000013300000000134000000001300000000000000000000131000000105700
0202LOTE PADRAO                   TELESP      PN * EJ    TLPP4       010VISTA          000000000035000000000355000000003350000000000000000000335000019314800
0202LOTE PADRAO                   EMBRAER     ON EJ      EMBR3       010VISTA          000000000012300000000123000000001180000000000000000000118000000034200
0202LOTE PADRAO                   AMBEV       PN *       AMBV4       010VISTA          000000000436000000004420000000042400000000000000000004260000002492400
0202LOTE PADRAO                   USIMINAS    PNA        USIM5       010VISTA          000000000005700000000058000000000560000000000000000000057500000091500
0202LOTE PADRAO                   ELETROPAULO PN *       ELPL4       010VISTA          000000000040000000000415000000003770000000000000000000385000016639700
0202LOTE PADRAO                   TELE NORD CLPN *       TNEP4       010VISTA          000000000002700000000027000000000250000000000000000000025000294643000
0202LOTE PADRAO                   CEMIG       PN * EJ    CMIG4       010VISTA          000000000027900000000283000000002700000000000000000000278000080968100
0202LOTE PADRAO                   TELE CL SUL PN * EJ    TCSL4       010VISTA          000000000002700000000027000000000256000000000000000000025600174802000
0202LOTE PADRAO                   TRACTEBEL   ON *       TBLE3       010VISTA          000000000004000000000040000000000390000000000000000000039600015428300
0202LOTE PADRAO                   CEMIG       ON * EJ    CMIG3       010VISTA          000000000025400000000265000000002460000000000000000000246000001680200
0202LOTE PADRAO                   TELE CL SUL ON * EJ    TCSL3       010VISTA          000000000002300000000023000000000210000000000000000000021000047721100
0202LOTE PADRAO                   ITAUSA      PN         ITSA4       010VISTA          000000000001750000000017900000000173000000000000000000017900000423300
0202LOTE PADRAO                   V C P       PN *       VCPA4       010VISTA          000000000104900000001070000000009800000000000000000000980000002450600
0202LOTE PADRAO                   SID TUBARAO PN *       CSTB4       010VISTA          000000000025500000000260000000002550000000000000000000260000006488000
0202LOTE PADRAO                   BRADESPAR   PN *       BRAP4       010VISTA          000000000000510000000005200000000050000000000000000000005000339917000
0202LOTE PADRAO                   NET         PN         PLIM4       010VISTA          000000000000490000000005200000000048000000000000000000005200004149300
0202LOTE PADRAO                   TELE CTR OESPN * EJ    TCOC4       010VISTA          000000000003300000000035000000000310000000000000000000032000260152000
0202LOTE PADRAO                   TELEMAR N L PNA* EJ    TMAR5       010VISTA          000000000047600000000476000000004670000000000000000000471000023723700
0202LOTE PADRAO                   GERDAU      PN * EJ    GGBR4       010VISTA          000000000033000000000337000000003250000000000000000000328000024439300
0202LOTE PADRAO                   BRASIL      ON *       BBAS3       010VISTA          000000000010500000000110000000001050000000000000000000108000009466300
