00BDIN9999BOVESPA 99992002112120021121
0101IBOVESPA                      0101050100860103180000000000000000002002112100000020021121010289000000
0202LOTE PADRAO                   EMBRATEL PARPN *       EBTP4       010VISTA          000000000002600000000027000000000260000000000000000000027000677917000
0202LOTE PADRAO                   TRAN PAULISTPN * EJ    TRPL4       010VISTA          000000000005400000000054000000000520000000000000000000053000013466400
0202LOTE PADRAO                   EMBRATEL PARON *       EBTP3       010VISTA          000000000003100000000033000000000310000000000000000000032000036302700
0202LOTE PADRAO                   TELEMAR     PN * EJ    TNLP4       010VISTA          000000000026000000000263000000002550000000000000000000260000405012000
0202LOTE PADRAO                   ITAUBANCO   PN * EJ    ITAU4       010VISTA          000000000149500000001520000000014900000000000000000001503000010173800
0202LOTE PADRAO                   TELEMAR     ON * EJ    TNLP3       010VISTA          000000000018800000000191000000001880000000000000000000190000024219800
0202LOTE PADRAO                   SID NACIONALON *       CSNA3       010VISTA          000000000046000000000475000000004600000000000000000000472000010429800
0202LOTE PADRAO                   TELE LEST CLPN *       TLCP4       010VISTA          000000000000410000000004200000000040000000000000000000004200196172000
0202LOTE PADRAO                   CRT CELULAR PNA* EJ    CRTP5       010VISTA          000000000313000000003199000000031000000000000000000003130000000577300
0202LOTE PADRAO                   IPIRANGA PETPN *       PTIP4       010VISTA          000000000007700000000079000000000760000000000000000000076000005764700
0202LOTE PADRAO                   BRASIL T PARPN *       BRTP4       010VISTA          000000000017500000000183000000001725000000000000000000183000107620000
0202LOTE PADRAO                   BRASIL T PARON *       BRTP3       010VISTA          000000000013300000000139000000001330000000000000000000136000002315100
0202LOTE PADRAO                   KLABIN S/A  PN         KLBN4       010VISTA          000000000001000000000010000000000100000000000000000000010000000023800
0202LOTE PADRAO                   ACESITA     PN *       ACES4       010VISTA          000000000000790000000008100000000078000000000000000000008000154538000
0202LOTE PADRAO                   PETROBRAS   PN         PETR4       010VISTA          000000000045000000000458000000004400000000000000000000458000000127600
0202LOTE PADRAO                   ELETROBRAS  PNB*       ELET6       010VISTA          000000000018800000000195000000001880000000000000000000192000066362500
0202LOTE PADRAO                   PETROBRAS   ON         PETR3       010VISTA          000000000049200000000502000000004900000000000000000000500000000044500
0202LOTE PADRAO                   COMGAS      PNA*       CGAS5       010VISTA          000000000056500000000565000000005530000000000000000000555000000551200
0202LOTE PADRAO                   SOUZA CRUZ  ON EJ      CRUZ3       010VISTA          000000000018400000000185000000001820000000000000000000182500000007600
0202LOTE PADRAO                   ELETROBRAS  ON *       ELET3       010VISTA          000000000019800000000201000000001980000000000000000000198000008968900
0202LOTE PADRAO                   CELESC      PNB        CLSC6       010VISTA          000000000000480000000004900000000047000000000000000000004800000206300
0202LOTE PADRAO                   BRADESCO    PN * EJ    BBDC4       010VISTA          000000000009300000000094000000000920000000000000000000094000174639000
0202LOTE PADRAO                   CESP        PN *       CESP4       010VISTA          000000000006400000000065000000000630000000000000000000063000003880200
0202LOTE PADRAO                   LIGHT       ON *       LIGH3       010VISTA          000000000057000000000570000000005510000000000000000000551000000048000
0202LOTE PADRAO                   TELESP CL PAPN *       TSPP4       010VISTA          000000000003800000000040000000000370000000000000000000039000587963000
0202LOTE PADRAO                   VALE R DOCE PNA        VALE5       010VISTA          000000000088200000000920000000008750000000000000000000915000000010500
0202LOTE PADRAO                   COPEL       PNB*       CPLE6       010VISTA          000000000007800000000081000000000780000000000000000000078000109722000
0202LOTE PADRAO                   VALE R DOCE ON         VALE3       010VISTA          000000000092750000000970000000009210000000000000000000970000000022400
0202LOTE PADRAO                   ARACRUZ     PNB        ARCZ6       010VISTA          000000000005800000000060000000000580000000000000000000059600000054600
0202LOTE PADRAO                   TELEMIG PARTPN *       TMCP4       010VISTA          000000000002900000000030000000000280000000000000000000029000093375600
0202LOTE PADRAO                   BRASIL TELECPN *       BRTO4       010VISTA          000000000011000000000114000000001100000000000000000000114000080721800
0202LOTE PADRAO                   SABESP      ON *       SBSP3       010VISTA          000000000083500000000835000000008150000000000000000000819000009024700
0202LOTE PADRAO                   BRASKEM     PNA*       BRKM5       010VISTA          000000000215000000002150000000021000000000000000000002130000000292400
0202LOTE PADRAO                   EMBRAER     PN EJ      EMBR4       010VISTA          000000000012500000000127000000001250000000000000000000127000000031700
0202LOTE PADRAO                   TELESP      PN * EJ    TLPP4       010VISTA          000000000037700000000380000000003750000000000000000000380000009492700
0202LOTE PADRAO                   EMBRAER     ON EJ      EMBR3       010VISTA          000000000011400000000118000000001140000000000000000000117000000005700
0202LOTE PADRAO                   AMBEV       PN *       AMBV4       010VISTA          000000000508000000005300000000050800000000000000000005295000000743400
0202LOTE PADRAO                   USIMINAS    PNA        USIM5       010VISTA          000000000005500000000057000000000554000000000000000000057000000094900
0202LOTE PADRAO                   ELETROPAULO PN *       ELPL4       010VISTA          000000000024100000000251000000002380000000000000000000243000003814000
0202LOTE PADRAO                   TELE NORD CLPN *       TNEP4       010VISTA          000000000002700000000027700000000260000000000000000000026000059027500
0202LOTE PADRAO                   CEMIG       PN * EJ    CMIG4       010VISTA          000000000023300000000236000000002280000000000000000000228000040707500
0202LOTE PADRAO                   TELE CL SUL PN * EJ    TCSL4       010VISTA          000000000002730000000027000000000270000000000000000000027000054047300
0202LOTE PADRAO                   TRACTEBEL   ON *       TBLE3       010VISTA          000000000003200000000032000000000320000000000000000000032500004790000
0202LOTE PADRAO                   CEMIG       ON * EJ    CMIG3       010VISTA          000000000021700000000217000000002100000000000000000000210000002020300
0202LOTE PADRAO                   TELE CL SUL ON * EJ    TCSL3       010VISTA          000000000002000000000020000000000200000000000000000000020000010798800
0202LOTE PADRAO                   ITAUSA      PN         ITSA4       010VISTA          000000000001750000000017700000000173000000000000000000017400000420000
0202LOTE PADRAO                   V C P       PN *       VCPA4       010VISTA          000000000112000000001145000000011200000000000000000001140000004050000
0202LOTE PADRAO                   SID TUBARAO PN *       CSTB4       010VISTA          000000000034000000000341000000003320000000000000000000340000009956400
0202LOTE PADRAO                   BRADESPAR   PN *       BRAP4       010VISTA          000000000000480000000004800000000047000000000000000000004800052271700
0202LOTE PADRAO                   NET         PN         PLIM4       010VISTA          000000000000330000000003300000000030000000000000000000003100000618200
0202LOTE PADRAO                   TELE CTR OESPN * EJ    TCOC4       010VISTA          000000000003800000000040000000000379000000000000000000040000300304000
0202LOTE PADRAO                   TELEMAR N L PNA* EJ    TMAR5       010VISTA          000000000042800000000433000000004220000000000000000000432000029693800
0202LOTE PADRAO                   GERDAU      PN * EJ    GGBR4       010VISTA          000000000032200000000322500000003175000000000000000000320000020167900
0202LOTE PADRAO                   BRASIL      ON *       BBAS3       010VISTA          000000000009900000000102000000000990000000000000000000101000025616700
