00BDIN9999BOVESPA 99992002041020020410
0101IBOVESPA                      0131830131820134450000000000000000002002041000000020020410013416000000
0202LOTE PADRAO                   EMBRATEL PARPN *       EBTP4       010VISTA          000000000006700000000068000000000650000000000000000000067000152310000
0202LOTE PADRAO                   TRAN PAULISTPN * EJ    TRPL4       010VISTA          000000000007200000000075000000000725000000000000000000075000008692100
0202LOTE PADRAO                   EMBRATEL PARON *       EBTP3       010VISTA          000000000008000000000085000000000800000000000000000000084000013719200
0202LOTE PADRAO                   TELEMAR     PN * EJ    TNLP4       010VISTA          000000000030000000000308000000003000000000000000000000308000212633000
0202LOTE PADRAO                   ITAUBANCO   PN * EJ    ITAU4       010VISTA          000000000191400000001985000000019100000000000000000001985000018972900
0202LOTE PADRAO                   TELEMAR     ON * EJ    TNLP3       010VISTA          000000000027000000000270000000002660000000000000000000268000003603600
0202LOTE PADRAO                   SID NACIONALON *       CSNA3       010VISTA          000000000044100000000448000000004360000000000000000000446000007926500
0202LOTE PADRAO                   TELE LEST CLPN *       TLCP4       010VISTA          000000000000760000000007700000000073000000000000000000007400250407000
0202LOTE PADRAO                   CRT CELULAR PNA* EJ    CRTP5       010VISTA          000000000454000000004580000000044990000000000000000004580000000899500
0202LOTE PADRAO                   IPIRANGA PETPN *       PTIP4       010VISTA          000000000014600000000149000000001460000000000000000000146000009390100
0202LOTE PADRAO                   BRASIL T PARPN *       BRTP4       010VISTA          000000000017700000000183000000001760000000000000000000180000048995300
0202LOTE PADRAO                   BRASIL T PARON *       BRTP3       010VISTA          000000000017600000000178000000001740000000000000000000174000022721500
0202LOTE PADRAO                   KLABIN S/A  PN         KLBN4       010VISTA          000000000001100000000011000000000110000000000000000000011000000056100
0202LOTE PADRAO                   ACESITA     PN *       ACES4       010VISTA          000000000000750000000007800000000075000000000000000000007700090315600
0202LOTE PADRAO                   PETROBRAS   PN         PETR4       010VISTA          000000000056000000000562000000005500000000000000000000560000000072700
0202LOTE PADRAO                   ELETROBRAS  PNB*       ELET6       010VISTA          000000000035000000000367000000003500000000000000000000361000045240800
0202LOTE PADRAO                   PETROBRAS   ON         PETR3       010VISTA          000000000058600000000592000000005840000000000000000000589000000035000
0202LOTE PADRAO                   COMGAS      PNA*       CGAS5       010VISTA          000000000077000000000775000000007690000000000000000000769000000308000
0202LOTE PADRAO                   SOUZA CRUZ  ON EJ      CRUZ3       010VISTA          000000000015500000000155000000001540000000000000000000155000000006700
0202LOTE PADRAO                   ELETROBRAS  ON *       ELET3       010VISTA          000000000039500000000406000000003950000000000000000000401000015866800
0202LOTE PADRAO                   CELESC      PNB        CLSC6       010VISTA          000000000000560000000005800000000056000000000000000000005600000184600
0202LOTE PADRAO                   BRADESCO    PN * EJ    BBDC4       010VISTA          000000000014600000000151000000001450000000000000000000148000254963000
0202LOTE PADRAO                   CESP        PN *       CESP4       010VISTA          000000000013800000000141000000001350000000000000000000141000008561300
0202LOTE PADRAO                   LIGHT       ON *       LIGH3       010VISTA          000000000101000000001040000000009900000000000000000001015000000866400
0202LOTE PADRAO                   TELESP CL PAPN *       TSPP4       010VISTA          000000000005600000000057000000000560000000000000000000057000102134000
0202LOTE PADRAO                   VALE R DOCE PNA        VALE5       010VISTA          000000000061000000000623000000006100000000000000000000623000000013500
0202LOTE PADRAO                   COPEL       PNB*       CPLE6       010VISTA          000000000018200000000190000000001810000000000000000000188000070539800
0202LOTE PADRAO                   VALE R DOCE ON         VALE3       010VISTA          000000000063500000000645000000006300000000000000000000645000000005000
0202LOTE PADRAO                   ARACRUZ     PNB        ARCZ6       010VISTA          000000000004700000000048000000000470000000000000000000047000000039600
0202LOTE PADRAO                   TELEMIG PARTPN *       TMCP4       010VISTA          000000000003100000000031000000000310000000000000000000031000058654000
0202LOTE PADRAO                   BRASIL TELECPN *       BRTO4       010VISTA          000000000012800000000130000000001270000000000000000000130000040126400
0202LOTE PADRAO                   SABESP      ON *       SBSP3       010VISTA          000000000137000000001380000000013600000000000000000001367000001651100
0202LOTE PADRAO                   BRASKEM     PNA*       BRKM5       010VISTA          000000000518000000005289000000051600000000000000000005160000000201700
0202LOTE PADRAO                   EMBRAER     PN EJ      EMBR4       010VISTA          000000000011300000000119000000001110000000000000000000119000000084800
0202LOTE PADRAO                   TELESP      PN * EJ    TLPP4       010VISTA          000000000033700000000350000000003360000000000000000000350000009747100
0202LOTE PADRAO                   EMBRAER     ON EJ      EMBR3       010VISTA          000000000010800000000113000000001080000000000000000000113000000013500
0202LOTE PADRAO                   AMBEV       PN *       AMBV4       010VISTA          000000000450900000004620000000045090000000000000000004605000001585800
0202LOTE PADRAO                   USIMINAS    PNA        USIM5       010VISTA          000000000007600000000077000000000750000000000000000000075000000022700
0202LOTE PADRAO                   ELETROPAULO PN *       ELPL4       010VISTA          000000000063600000000674000000006360000000000000000000670000019785900
0202LOTE PADRAO                   TELE NORD CLPN *       TNEP4       010VISTA          000000000002600000000027300000000260000000000000000000026000357720000
0202LOTE PADRAO                   CEMIG       PN * EJ    CMIG4       010VISTA          000000000035400000000365000000003470000000000000000000365000042525100
0202LOTE PADRAO                   TELE CL SUL PN * EJ    TCSL4       010VISTA          000000000002980000000030000000000290000000000000000000029000038628800
0202LOTE PADRAO                   TRACTEBEL   ON *       TBLE3       010VISTA          000000000004200000000043000000000420000000000000000000043000006618900
0202LOTE PADRAO                   CEMIG       ON * EJ    CMIG3       010VISTA          000000000032200000000336000000003220000000000000000000331000001622200
0202LOTE PADRAO                   TELE CL SUL ON * EJ    TCSL3       010VISTA          000000000002600000000026000000000260000000000000000000026000015509800
0202LOTE PADRAO                   ITAUSA      PN         ITSA4       010VISTA          000000000002400000000025000000000240000000000000000000025000000646100
0202LOTE PADRAO                   V C P       PN *       VCPA4       010VISTA          000000000090200000000905000000009000000000000000000000903000001694100
0202LOTE PADRAO                   SID TUBARAO PN *       CSTB4       010VISTA          000000000025000000000251000000002490000000000000000000250000004370000
0202LOTE PADRAO                   BRADESPAR   PN *       BRAP4       010VISTA          000000000000750000000007700000000075000000000000000000007500118347000
0202LOTE PADRAO                   NET         PN         PLIM4       010VISTA          000000000000500000000005100000000049000000000000000000005000001125300
0202LOTE PADRAO                   TELE CTR OESPN * EJ    TCOC4       010VISTA          000000000004500000000046000000000450000000000000000000046000059680000
0202LOTE PADRAO                   TELEMAR N L PNA* EJ    TMAR5       010VISTA          000000000051000000000522000000005050000000000000000000520000018050500
0202LOTE PADRAO                   GERDAU      PN * EJ    GGBR4       010VISTA          000000000028100000000283000000002810000000000000000000281000007998300
0202LOTE PADRAO                   BRASIL      ON *       BBAS3       010VISTA          000000000013300000000139000000001325000000000000000000137000009111100
