00BDIN9999BOVESPA 99992002060420020604
0101IBOVESPA                      0126370124930126420000000000000000002002060400000020020604012600000000
0202LOTE PADRAO                   EMBRATEL PARPN *       EBTP4       010VISTA          000000000004400000000044000000000430000000000000000000044000098970800
0202LOTE PADRAO                   TRAN PAULISTPN * EJ    TRPL4       010VISTA          000000000006400000000065000000000620000000000000000000062000004678900
0202LOTE PADRAO                   EMBRATEL PARON *       EBTP3       010VISTA          000000000005960000000060000000000570000000000000000000058000008709000
0202LOTE PADRAO                   TELEMAR     PN * EJ    TNLP4       010VISTA          000000000030800000000310000000003040000000000000000000308000182321000
0202LOTE PADRAO                   ITAUBANCO   PN * EJ    ITAU4       010VISTA          000000000175000000001755000000017310000000000000000001740000003459100
0202LOTE PADRAO                   TELEMAR     ON * EJ    TNLP3       010VISTA          000000000025300000000258000000002510000000000000000000253000010230100
0202LOTE PADRAO                   SID NACIONALON *       CSNA3       010VISTA          000000000046700000000475000000004650000000000000000000469000006942200
0202LOTE PADRAO                   TELE LEST CLPN *       TLCP4       010VISTA          000000000000700000000007100000000069000000000000000000007100099220600
0202LOTE PADRAO                   CRT CELULAR PNA* EJ    CRTP5       010VISTA          000000000385000000003989000000038500000000000000000003950000000105900
0202LOTE PADRAO                   IPIRANGA PETPN *       PTIP4       010VISTA          000000000013600000000136000000001330000000000000000000133000001678900
0202LOTE PADRAO                   BRASIL T PARPN *       BRTP4       010VISTA          000000000016800000000170000000001660000000000000000000168000024822100
0202LOTE PADRAO                   BRASIL T PARON *       BRTP3       010VISTA          000000000015300000000163000000001520000000000000000000152000005012400
0202LOTE PADRAO                   KLABIN S/A  PN         KLBN4       010VISTA          000000000001000000000010000000000100000000000000000000010000000004600
0202LOTE PADRAO                   ACESITA     PN *       ACES4       010VISTA          000000000000640000000006600000000064000000000000000000006600064937100
0202LOTE PADRAO                   PETROBRAS   PN         PETR4       010VISTA          000000000054200000000555000000005420000000000000000000555000000042500
0202LOTE PADRAO                   ELETROBRAS  PNB*       ELET6       010VISTA          000000000029000000000290000000002810000000000000000000284000057735200
0202LOTE PADRAO                   PETROBRAS   ON         PETR3       010VISTA          000000000058800000000600000000005870000000000000000000600000000034700
0202LOTE PADRAO                   COMGAS      PNA*       CGAS5       010VISTA          000000000069500000000710000000006950000000000000000000710000000020700
0202LOTE PADRAO                   SOUZA CRUZ  ON EJ      CRUZ3       010VISTA          000000000014500000000151000000001450000000000000000000151000000015800
0202LOTE PADRAO                   ELETROBRAS  ON *       ELET3       010VISTA          000000000031500000000318000000003100000000000000000000315000017047700
0202LOTE PADRAO                   CELESC      PNB        CLSC6       010VISTA          000000000000550000000005500000000054000000000000000000005500000021300
0202LOTE PADRAO                   BRADESCO    PN * EJ    BBDC4       010VISTA          000000000013000000000130000000001280000000000000000000128000120410000
0202LOTE PADRAO                   CESP        PN *       CESP4       010VISTA          000000000010400000000104000000001010000000000000000000103000003150300
0202LOTE PADRAO                   LIGHT       ON *       LIGH3       010VISTA          000000000095500000000979000000009550000000000000000000965000000051100
0202LOTE PADRAO                   TELESP CL PAPN *       TSPP4       010VISTA          000000000005200000000052000000000510000000000000000000052000148991000
0202LOTE PADRAO                   VALE R DOCE PNA        VALE5       010VISTA          000000000074400000000759000000007430000000000000000000759000000016500
0202LOTE PADRAO                   COPEL       PNB*       CPLE6       010VISTA          000000000014500000000145000000001400000000000000000000141000046220000
0202LOTE PADRAO                   VALE R DOCE ON         VALE3       010VISTA          000000000076000000000777000000007590000000000000000000777000000012700
0202LOTE PADRAO                   ARACRUZ     PNB        ARCZ6       010VISTA          000000000005500000000056000000000550000000000000000000056000000033200
0202LOTE PADRAO                   TELEMIG PARTPN *       TMCP4       010VISTA          000000000002940000000029000000000280000000000000000000029000058549200
0202LOTE PADRAO                   BRASIL TELECPN *       BRTO4       010VISTA          000000000012200000000124000000001200000000000000000000122000045559600
0202LOTE PADRAO                   SABESP      ON *       SBSP3       010VISTA          000000000110700000001107000000010900000000000000000001100000001394700
0202LOTE PADRAO                   BRASKEM     PNA*       BRKM5       010VISTA          000000000431000000004445000000042700000000000000000004270000000098500
0202LOTE PADRAO                   EMBRAER     PN EJ      EMBR4       010VISTA          000000000014900000000149000000001450000000000000000000146000000027900
0202LOTE PADRAO                   TELESP      PN * EJ    TLPP4       010VISTA          000000000033800000000343000000003370000000000000000000341000006923400
0202LOTE PADRAO                   EMBRAER     ON EJ      EMBR3       010VISTA          000000000013300000000133000000001310000000000000000000132500000012800
0202LOTE PADRAO                   AMBEV       PN *       AMBV4       010VISTA          000000000474000000004821000000047400000000000000000004820000001687900
0202LOTE PADRAO                   USIMINAS    PNA        USIM5       010VISTA          000000000007400000000074000000000720000000000000000000074000000018900
0202LOTE PADRAO                   ELETROPAULO PN *       ELPL4       010VISTA          000000000048300000000490000000004800000000000000000000487000001018700
0202LOTE PADRAO                   TELE NORD CLPN *       TNEP4       010VISTA          000000000002400000000025000000000230000000000000000000023000131237000
0202LOTE PADRAO                   CEMIG       PN * EJ    CMIG4       010VISTA          000000000033000000000335000000003280000000000000000000335000014520500
0202LOTE PADRAO                   TELE CL SUL PN * EJ    TCSL4       010VISTA          000000000003000000000030000000000290000000000000000000029000033861000
0202LOTE PADRAO                   TRACTEBEL   ON *       TBLE3       010VISTA          000000000003900000000040000000000380000000000000000000038000008261400
0202LOTE PADRAO                   CEMIG       ON * EJ    CMIG3       010VISTA          000000000030000000000305000000003000000000000000000000305000000070700
0202LOTE PADRAO                   TELE CL SUL ON * EJ    TCSL3       010VISTA          000000000002500000000026000000000250000000000000000000025000002398400
0202LOTE PADRAO                   ITAUSA      PN         ITSA4       010VISTA          000000000002000000000020000000000200000000000000000000020000000217700
0202LOTE PADRAO                   V C P       PN *       VCPA4       010VISTA          000000000103000000001080000000010300000000000000000001080000002025700
0202LOTE PADRAO                   SID TUBARAO PN *       CSTB4       010VISTA          000000000029300000000295000000002810000000000000000000290000003328400
0202LOTE PADRAO                   BRADESPAR   PN *       BRAP4       010VISTA          000000000000620000000006300000000061000000000000000000006100242678000
0202LOTE PADRAO                   NET         PN         PLIM4       010VISTA          000000000000360000000003900000000035000000000000000000003700001962700
0202LOTE PADRAO                   TELE CTR OESPN * EJ    TCOC4       010VISTA          000000000004300000000043000000000430000000000000000000043000048000000
0202LOTE PADRAO                   TELEMAR N L PNA* EJ    TMAR5       010VISTA          000000000052000000000525000000005200000000000000000000522000013721100
0202LOTE PADRAO                   GERDAU      PN * EJ    GGBR4       010VISTA          000000000029600000000310000000002960000000000000000000308000007968400
0202LOTE PADRAO                   BRASIL      ON *       BBAS3       010VISTA          000000000012600000000128000000001230000000000000000000128000003902900
