00BDIN9999BOVESPA 99992002070520020705
0101IBOVESPA                      0106630104250106680000000000000000002002070500000020020705010524000000
0202LOTE PADRAO                   EMBRATEL PARPN *       EBTP4       010VISTA          000000000001800000000019000000000179000000000000000000018000412814000
0202LOTE PADRAO                   TRAN PAULISTPN * EJ    TRPL4       010VISTA          000000000005900000000059000000000580000000000000000000059000005238400
0202LOTE PADRAO                   EMBRATEL PARON *       EBTP3       010VISTA          000000000002900000000030000000000280000000000000000000029000019405000
0202LOTE PADRAO                   TELEMAR     PN * EJ    TNLP4       010VISTA          000000000026100000000265000000002580000000000000000000263000214159000
0202LOTE PADRAO                   ITAUBANCO   PN * EJ    ITAU4       010VISTA          000000000156000000001560000000014950000000000000000001515000010557000
0202LOTE PADRAO                   TELEMAR     ON * EJ    TNLP3       010VISTA          000000000021000000000215000000002070000000000000000000215000018916200
0202LOTE PADRAO                   SID NACIONALON *       CSNA3       010VISTA          000000000049700000000497000000004750000000000000000000477000010735100
0202LOTE PADRAO                   TELE LEST CLPN *       TLCP4       010VISTA          000000000000550000000005800000000052000000000000000000005800132576000
0202LOTE PADRAO                   CRT CELULAR PNA* EJ    CRTP5       010VISTA          000000000390000000003900000000037600000000000000000003850000000122600
0202LOTE PADRAO                   IPIRANGA PETPN *       PTIP4       010VISTA          000000000011900000000122000000001140000000000000000000115000000604400
0202LOTE PADRAO                   BRASIL T PARPN *       BRTP4       010VISTA          000000000015100000000158000000001460000000000000000000153000047699600
0202LOTE PADRAO                   BRASIL T PARON *       BRTP3       010VISTA          000000000013600000000140000000001330000000000000000000138000004201600
0202LOTE PADRAO                   KLABIN S/A  PN         KLBN4       010VISTA          000000000000880000000008800000000085000000000000000000008600000024100
0202LOTE PADRAO                   ACESITA     PN *       ACES4       010VISTA          000000000000600000000006000000000058000000000000000000005900121230000
0202LOTE PADRAO                   PETROBRAS   PN         PETR4       010VISTA          000000000046500000000465000000004570000000000000000000464000000039000
0202LOTE PADRAO                   ELETROBRAS  PNB*       ELET6       010VISTA          000000000025000000000250000000002450000000000000000000245000024079900
0202LOTE PADRAO                   PETROBRAS   ON         PETR3       010VISTA          000000000050700000000507000000004970000000000000000000501000000014300
0202LOTE PADRAO                   COMGAS      PNA*       CGAS5       010VISTA          000000000059000000000610000000005650000000000000000000580000000449000
0202LOTE PADRAO                   SOUZA CRUZ  ON EJ      CRUZ3       010VISTA          000000000014100000000141000000001400000000000000000000141000000008800
0202LOTE PADRAO                   ELETROBRAS  ON *       ELET3       010VISTA          000000000027800000000280000000002700000000000000000000271000006040300
0202LOTE PADRAO                   CELESC      PNB        CLSC6       010VISTA          000000000000570000000005800000000056000000000000000000005800000076300
0202LOTE PADRAO                   BRADESCO    PN * EJ    BBDC4       010VISTA          000000000010800000000108000000001050000000000000000000105000093599600
0202LOTE PADRAO                   CESP        PN *       CESP4       010VISTA          000000000008400000000084000000000810000000000000000000082000004830800
0202LOTE PADRAO                   LIGHT       ON *       LIGH3       010VISTA          000000000085000000000875000000008500000000000000000000850000000181100
0202LOTE PADRAO                   TELESP CL PAPN *       TSPP4       010VISTA          000000000003700000000038000000000360000000000000000000036900176972000
0202LOTE PADRAO                   VALE R DOCE PNA        VALE5       010VISTA          000000000072200000000729000000007070000000000000000000720000000011100
0202LOTE PADRAO                   COPEL       PNB*       CPLE6       010VISTA          000000000011000000000114000000001080000000000000000000111000066535900
0202LOTE PADRAO                   VALE R DOCE ON         VALE3       010VISTA          000000000078500000000785000000007850000000000000000000785000000001800
0202LOTE PADRAO                   ARACRUZ     PNB        ARCZ6       010VISTA          000000000005400000000055000000000530000000000000000000054000000037300
0202LOTE PADRAO                   TELEMIG PARTPN *       TMCP4       010VISTA          000000000002700000000027000000000250000000000000000000026000052852900
0202LOTE PADRAO                   BRASIL TELECPN *       BRTO4       010VISTA          000000000010500000000109000000001030000000000000000000106000067110700
0202LOTE PADRAO                   SABESP      ON *       SBSP3       010VISTA          000000000097000000000970000000009420000000000000000000944000000858500
0202LOTE PADRAO                   BRASKEM     PNA*       BRKM5       010VISTA          000000000397900000003979000000038000000000000000000003800000000092300
0202LOTE PADRAO                   EMBRAER     PN EJ      EMBR4       010VISTA          000000000014900000000150000000001450000000000000000000148000000023300
0202LOTE PADRAO                   TELESP      PN * EJ    TLPP4       010VISTA          000000000032200000000323000000003150000000000000000000320000007006000
0202LOTE PADRAO                   EMBRAER     ON EJ      EMBR3       010VISTA          000000000013500000000138000000001350000000000000000000137500000020600
0202LOTE PADRAO                   AMBEV       PN *       AMBV4       010VISTA          000000000439000000004440000000043400000000000000000004350000000963800
0202LOTE PADRAO                   USIMINAS    PNA        USIM5       010VISTA          000000000006500000000067500000000630000000000000000000064000000029100
0202LOTE PADRAO                   ELETROPAULO PN *       ELPL4       010VISTA          000000000042900000000432000000004200000000000000000000430000000659100
0202LOTE PADRAO                   TELE NORD CLPN *       TNEP4       010VISTA          000000000002500000000025600000000240000000000000000000024000051073200
0202LOTE PADRAO                   CEMIG       PN * EJ    CMIG4       010VISTA          000000000030300000000303000000002920000000000000000000298000021056400
0202LOTE PADRAO                   TELE CL SUL PN * EJ    TCSL4       010VISTA          000000000002980000000029000000000280000000000000000000029600059723400
0202LOTE PADRAO                   TRACTEBEL   ON *       TBLE3       010VISTA          000000000003800000000040000000000380000000000000000000039000011740000
0202LOTE PADRAO                   CEMIG       ON * EJ    CMIG3       010VISTA          000000000028000000000282000000002730000000000000000000281000001493300
0202LOTE PADRAO                   TELE CL SUL ON * EJ    TCSL3       010VISTA          000000000002400000000024000000000230000000000000000000024000008251000
0202LOTE PADRAO                   ITAUSA      PN         ITSA4       010VISTA          000000000001800000000018000000000180000000000000000000018000000124400
0202LOTE PADRAO                   V C P       PN *       VCPA4       010VISTA          000000000107000000001070000000010300000000000000000001040000000983700
0202LOTE PADRAO                   SID TUBARAO PN *       CSTB4       010VISTA          000000000027100000000271000000002660000000000000000000268000005993900
0202LOTE PADRAO                   BRADESPAR   PN *       BRAP4       010VISTA          000000000000520000000005200000000050000000000000000000005100201417000
0202LOTE PADRAO                   NET         PN         PLIM4       010VISTA          000000000001560000000015600000000140000000000000000000014000000171000
0202LOTE PADRAO                   TELE CTR OESPN * EJ    TCOC4       010VISTA          000000000003600000000036000000000330000000000000000000034000122935000
0202LOTE PADRAO                   TELEMAR N L PNA* EJ    TMAR5       010VISTA          000000000047000000000470000000004600000000000000000000468000022528600
0202LOTE PADRAO                   GERDAU      PN * EJ    GGBR4       010VISTA          000000000030100000000313000000002980000000000000000000298000011460300
0202LOTE PADRAO                   BRASIL      ON *       BBAS3       010VISTA          000000000008600000000086000000000850000000000000000000085000003787800
