00BDIN9999BOVESPA 99992002091320020913
0101IBOVESPA                      0101560100860102190000000000000000002002091300000020020913010181000000
0202LOTE PADRAO                   EMBRATEL PARPN *       EBTP4       010VISTA          000000000002500000000026000000000252000000000000000000025000162304000
0202LOTE PADRAO                   TRAN PAULISTPN * EJ    TRPL4       010VISTA          000000000005400000000055000000000540000000000000000000055000017466100
0202LOTE PADRAO                   EMBRATEL PARON *       EBTP3       010VISTA          000000000003500000000035000000000330000000000000000000033000015086100
0202LOTE PADRAO                   TELEMAR     PN * EJ    TNLP4       010VISTA          000000000025100000000253000000002500000000000000000000251000092433900
0202LOTE PADRAO                   ITAUBANCO   PN * EJ    ITAU4       010VISTA          000000000141500000001429000000014080000000000000000001415000004859900
0202LOTE PADRAO                   TELEMAR     ON * EJ    TNLP3       010VISTA          000000000019400000000198000000001930000000000000000000196000013160000
0202LOTE PADRAO                   SID NACIONALON *       CSNA3       010VISTA          000000000037600000000388000000003750000000000000000000385000006662800
0202LOTE PADRAO                   TELE LEST CLPN *       TLCP4       010VISTA          000000000000430000000004400000000042000000000000000000004400083745700
0202LOTE PADRAO                   CRT CELULAR PNA* EJ    CRTP5       010VISTA          000000000358000000003670000000035500000000000000000003670000000292000
0202LOTE PADRAO                   IPIRANGA PETPN *       PTIP4       010VISTA          000000000010800000000108000000001030000000000000000000103000000987500
0202LOTE PADRAO                   BRASIL T PARPN *       BRTP4       010VISTA          000000000018100000000189000000001750000000000000000000185000081819900
0202LOTE PADRAO                   BRASIL T PARON *       BRTP3       010VISTA          000000000013700000000143000000001350000000000000000000139000005601300
0202LOTE PADRAO                   KLABIN S/A  PN         KLBN4       010VISTA          000000000000900000000009100000000089000000000000000000009000000002600
0202LOTE PADRAO                   ACESITA     PN *       ACES4       010VISTA          000000000000640000000006400000000063000000000000000000006300146363000
0202LOTE PADRAO                   PETROBRAS   PN         PETR4       010VISTA          000000000047300000000483000000004680000000000000000000481000000074300
0202LOTE PADRAO                   ELETROBRAS  PNB*       ELET6       010VISTA          000000000020100000000203000000001980000000000000000000202000028559800
0202LOTE PADRAO                   PETROBRAS   ON         PETR3       010VISTA          000000000052500000000539000000005250000000000000000000536000000029000
0202LOTE PADRAO                   COMGAS      PNA*       CGAS5       010VISTA          000000000062700000000648000000006270000000000000000000642000000127000
0202LOTE PADRAO                   SOUZA CRUZ  ON EJ      CRUZ3       010VISTA          000000000015300000000155000000001510000000000000000000151000000008400
0202LOTE PADRAO                   ELETROBRAS  ON *       ELET3       010VISTA          000000000020600000000206000000002010000000000000000000204000013914200
0202LOTE PADRAO                   CELESC      PNB        CLSC6       010VISTA          000000000000550000000005600000000054000000000000000000005600000051900
0202LOTE PADRAO                   BRADESCO    PN * EJ    BBDC4       010VISTA          000000000009800000000099000000000975000000000000000000098000121528000
0202LOTE PADRAO                   CESP        PN *       CESP4       010VISTA          000000000006800000000070000000000680000000000000000000070000005693600
0202LOTE PADRAO                   LIGHT       ON *       LIGH3       010VISTA          000000000065000000000652000000006300000000000000000000642000000369600
0202LOTE PADRAO                   TELESP CL PAPN *       TSPP4       010VISTA          000000000003500000000037100000000350000000000000000000036900715825000
0202LOTE PADRAO                   VALE R DOCE PNA        VALE5       010VISTA          000000000073000000000740000000007300000000000000000000740000000016600
0202LOTE PADRAO                   COPEL       PNB*       CPLE6       010VISTA          000000000009500000000098000000000940000000000000000000097500014595400
0202LOTE PADRAO                   VALE R DOCE ON         VALE3       010VISTA          000000000079000000000800000000007900000000000000000000800000000002100
0202LOTE PADRAO                   ARACRUZ     PNB        ARCZ6       010VISTA          000000000005200000000053000000000520000000000000000000052000000017200
0202LOTE PADRAO                   TELEMIG PARTPN *       TMCP4       010VISTA          000000000002900000000029000000000280000000000000000000028000030040400
0202LOTE PADRAO                   BRASIL TELECPN *       BRTO4       010VISTA          000000000011800000000122500000001175000000000000000000120000041756800
0202LOTE PADRAO                   SABESP      ON *       SBSP3       010VISTA          000000000084200000000850000000008340000000000000000000850000001248500
0202LOTE PADRAO                   BRASKEM     PNA*       BRKM5       010VISTA          000000000288900000002890000000028100000000000000000002810000000026700
0202LOTE PADRAO                   EMBRAER     PN EJ      EMBR4       010VISTA          000000000013400000000134000000001310000000000000000000131000000007800
0202LOTE PADRAO                   TELESP      PN * EJ    TLPP4       010VISTA          000000000033100000000332000000003310000000000000000000332000002240700
0202LOTE PADRAO                   EMBRAER     ON EJ      EMBR3       010VISTA          000000000011900000000120000000001190000000000000000000120000000003100
0202LOTE PADRAO                   AMBEV       PN *       AMBV4       010VISTA          000000000436100000004389000000043200000000000000000004320000000688000
0202LOTE PADRAO                   USIMINAS    PNA        USIM5       010VISTA          000000000005400000000055000000000530000000000000000000055000000026700
0202LOTE PADRAO                   ELETROPAULO PN *       ELPL4       010VISTA          000000000031700000000320000000003100000000000000000000315000002755800
0202LOTE PADRAO                   TELE NORD CLPN *       TNEP4       010VISTA          000000000002560000000025000000000250000000000000000000025000091271400
0202LOTE PADRAO                   CEMIG       PN * EJ    CMIG4       010VISTA          000000000026000000000260000000002520000000000000000000258000016138200
0202LOTE PADRAO                   TELE CL SUL PN * EJ    TCSL4       010VISTA          000000000002600000000027000000000260000000000000000000027000090218400
0202LOTE PADRAO                   TRACTEBEL   ON *       TBLE3       010VISTA          000000000003900000000040000000000390000000000000000000040000052513200
0202LOTE PADRAO                   CEMIG       ON * EJ    CMIG3       010VISTA          000000000024500000000250000000002450000000000000000000249000000096000
0202LOTE PADRAO                   TELE CL SUL ON * EJ    TCSL3       010VISTA          000000000002100000000022000000000210000000000000000000022000012353500
0202LOTE PADRAO                   ITAUSA      PN         ITSA4       010VISTA          000000000001720000000017300000000171000000000000000000017200000187100
0202LOTE PADRAO                   V C P       PN *       VCPA4       010VISTA          000000000101000000001010000000010000000000000000000001005000003059600
0202LOTE PADRAO                   SID TUBARAO PN *       CSTB4       010VISTA          000000000025800000000261000000002560000000000000000000260000002145200
0202LOTE PADRAO                   BRADESPAR   PN *       BRAP4       010VISTA          000000000000470000000004700000000046000000000000000000004700073635100
0202LOTE PADRAO                   NET         PN         PLIM4       010VISTA          000000000000420000000004300000000041000000000000000000004200000418300
0202LOTE PADRAO                   TELE CTR OESPN * EJ    TCOC4       010VISTA          000000000003600000000036000000000350000000000000000000036000137828000
0202LOTE PADRAO                   TELEMAR N L PNA* EJ    TMAR5       010VISTA          000000000044300000000448000000004400000000000000000000448000008350400
0202LOTE PADRAO                   GERDAU      PN * EJ    GGBR4       010VISTA          000000000031800000000323000000003180000000000000000000320000004119300
0202LOTE PADRAO                   BRASIL      ON *       BBAS3       010VISTA          000000000010100000000102000000000990000000000000000000100000028894400
