00BDIN9999BOVESPA 99992002091920020919
0101IBOVESPA                      0095120093530096260000000000000000002002091900000020020919009372000000
0202LOTE PADRAO                   EMBRATEL PARPN *       EBTP4       010VISTA          000000000002250000000023000000000220000000000000000000022000272926000
0202LOTE PADRAO                   TRAN PAULISTPN * EJ    TRPL4       010VISTA          000000000005200000000052000000000510000000000000000000052000002867000
0202LOTE PADRAO                   EMBRATEL PARON *       EBTP3       010VISTA          000000000003000000000031000000000280000000000000000000029000046569300
0202LOTE PADRAO                   TELEMAR     PN * EJ    TNLP4       010VISTA          000000000023400000000241000000002330000000000000000000234000359451000
0202LOTE PADRAO                   ITAUBANCO   PN * EJ    ITAU4       010VISTA          000000000127400000001310000000012700000000000000000001286000014057700
0202LOTE PADRAO                   TELEMAR     ON * EJ    TNLP3       010VISTA          000000000018100000000183000000001780000000000000000000180000019140200
0202LOTE PADRAO                   SID NACIONALON *       CSNA3       010VISTA          000000000035750000000367000000003550000000000000000000367000019076500
0202LOTE PADRAO                   TELE LEST CLPN *       TLCP4       010VISTA          000000000000400000000004100000000039000000000000000000003900083140300
0202LOTE PADRAO                   CRT CELULAR PNA* EJ    CRTP5       010VISTA          000000000351600000003516000000034000000000000000000003480000000279400
0202LOTE PADRAO                   IPIRANGA PETPN *       PTIP4       010VISTA          000000000010000000000101000000000990000000000000000000100000002190500
0202LOTE PADRAO                   BRASIL T PARPN *       BRTP4       010VISTA          000000000017600000000177000000001740000000000000000000176000072497400
0202LOTE PADRAO                   BRASIL T PARON *       BRTP3       010VISTA          000000000013300000000133000000001300000000000000000000131000003559900
0202LOTE PADRAO                   KLABIN S/A  PN         KLBN4       010VISTA          000000000000900000000009200000000088000000000000000000009200000040500
0202LOTE PADRAO                   ACESITA     PN *       ACES4       010VISTA          000000000000610000000006300000000060000000000000000000006000138121000
0202LOTE PADRAO                   PETROBRAS   PN         PETR4       010VISTA          000000000044500000000455000000004240000000000000000000426000000238800
0202LOTE PADRAO                   ELETROBRAS  PNB*       ELET6       010VISTA          000000000018700000000190000000001830000000000000000000183000057374600
0202LOTE PADRAO                   PETROBRAS   ON         PETR3       010VISTA          000000000050000000000500000000004740000000000000000000474000000047800
0202LOTE PADRAO                   COMGAS      PNA*       CGAS5       010VISTA          000000000057900000000585000000005610000000000000000000570000000365000
0202LOTE PADRAO                   SOUZA CRUZ  ON EJ      CRUZ3       010VISTA          000000000014900000000152000000001490000000000000000000152000000006400
0202LOTE PADRAO                   ELETROBRAS  ON *       ELET3       010VISTA          000000000019100000000191000000001860000000000000000000188000038213000
0202LOTE PADRAO                   CELESC      PNB        CLSC6       010VISTA          000000000000540000000005400000000052000000000000000000005300000206400
0202LOTE PADRAO                   BRADESCO    PN * EJ    BBDC4       010VISTA          000000000008900000000091000000000890000000000000000000089000305130000
0202LOTE PADRAO                   CESP        PN *       CESP4       010VISTA          000000000006900000000069000000000650000000000000000000065000013825800
0202LOTE PADRAO                   LIGHT       ON *       LIGH3       010VISTA          000000000059000000000600000000005900000000000000000000596000000564300
0202LOTE PADRAO                   TELESP CL PAPN *       TSPP4       010VISTA          000000000003100000000032000000000298000000000000000000030000442103000
0202LOTE PADRAO                   VALE R DOCE PNA        VALE5       010VISTA          000000000076500000000784000000007650000000000000000000784000000126900
0202LOTE PADRAO                   COPEL       PNB*       CPLE6       010VISTA          000000000009000000000090000000000860000000000000000000086000025394700
0202LOTE PADRAO                   VALE R DOCE ON         VALE3       010VISTA          000000000082500000000832000000008250000000000000000000829000000009000
0202LOTE PADRAO                   ARACRUZ     PNB        ARCZ6       010VISTA          000000000005400000000054000000000530000000000000000000053000000048800
0202LOTE PADRAO                   TELEMIG PARTPN *       TMCP4       010VISTA          000000000002750000000027000000000260000000000000000000027000058889800
0202LOTE PADRAO                   BRASIL TELECPN *       BRTO4       010VISTA          000000000011250000000114000000001100000000000000000000111000086534100
0202LOTE PADRAO                   SABESP      ON *       SBSP3       010VISTA          000000000084200000000859000000008010000000000000000000814000004062900
0202LOTE PADRAO                   BRASKEM     PNA*       BRKM5       010VISTA          000000000256000000002600000000024060000000000000000002420000000117500
0202LOTE PADRAO                   EMBRAER     PN EJ      EMBR4       010VISTA          000000000012600000000126000000001210000000000000000000123000000183500
0202LOTE PADRAO                   TELESP      PN * EJ    TLPP4       010VISTA          000000000032000000000320000000003150000000000000000000315000005268900
0202LOTE PADRAO                   EMBRAER     ON EJ      EMBR3       010VISTA          000000000011800000000121000000001100000000000000000000113000000019700
0202LOTE PADRAO                   AMBEV       PN *       AMBV4       010VISTA          000000000415500000004155000000040500000000000000000004070000001880200
0202LOTE PADRAO                   USIMINAS    PNA        USIM5       010VISTA          000000000005400000000055000000000525000000000000000000052500000042200
0202LOTE PADRAO                   ELETROPAULO PN *       ELPL4       010VISTA          000000000030500000000313000000002960000000000000000000305000001490000
0202LOTE PADRAO                   TELE NORD CLPN *       TNEP4       010VISTA          000000000002300000000024000000000230000000000000000000023000067313000
0202LOTE PADRAO                   CEMIG       PN * EJ    CMIG4       010VISTA          000000000023900000000246000000002330000000000000000000240000035903100
0202LOTE PADRAO                   TELE CL SUL PN * EJ    TCSL4       010VISTA          000000000002520000000026000000000252000000000000000000025600064550800
0202LOTE PADRAO                   TRACTEBEL   ON *       TBLE3       010VISTA          000000000003900000000040000000000380000000000000000000038000008990000
0202LOTE PADRAO                   CEMIG       ON * EJ    CMIG3       010VISTA          000000000022900000000229000000002230000000000000000000229000000297900
0202LOTE PADRAO                   TELE CL SUL ON * EJ    TCSL3       010VISTA          000000000002100000000021000000000200000000000000000000020000005338300
0202LOTE PADRAO                   ITAUSA      PN         ITSA4       010VISTA          000000000001600000000016000000000150000000000000000000015000000365300
0202LOTE PADRAO                   V C P       PN *       VCPA4       010VISTA          000000000102000000001020000000009990000000000000000001019000003998100
0202LOTE PADRAO                   SID TUBARAO PN *       CSTB4       010VISTA          000000000026300000000263000000002570000000000000000000260000011822200
0202LOTE PADRAO                   BRADESPAR   PN *       BRAP4       010VISTA          000000000000460000000004600000000044000000000000000000004400096908200
0202LOTE PADRAO                   NET         PN         PLIM4       010VISTA          000000000000390000000003900000000035000000000000000000003700000714500
0202LOTE PADRAO                   TELE CTR OESPN * EJ    TCOC4       010VISTA          000000000003300000000033000000000320000000000000000000032000071495000
0202LOTE PADRAO                   TELEMAR N L PNA* EJ    TMAR5       010VISTA          000000000042300000000423000000004170000000000000000000417000014679600
0202LOTE PADRAO                   GERDAU      PN * EJ    GGBR4       010VISTA          000000000031800000000318000000003080000000000000000000310000010386600
0202LOTE PADRAO                   BRASIL      ON *       BBAS3       010VISTA          000000000009400000000096000000000925000000000000000000092500018177900
