00BDIN9999BOVESPA 99992002052820020528
0101IBOVESPA                      0127030127030128610000000000000000002002052800000020020528012728000000
0202LOTE PADRAO                   EMBRATEL PARPN *       EBTP4       010VISTA          000000000004600000000047000000000440000000000000000000044000215272000
0202LOTE PADRAO                   TRAN PAULISTPN * EJ    TRPL4       010VISTA          000000000006200000000065000000000620000000000000000000064000026819800
0202LOTE PADRAO                   EMBRATEL PARON *       EBTP3       010VISTA          000000000006500000000065000000000600000000000000000000060000021240800
0202LOTE PADRAO                   TELEMAR     PN * EJ    TNLP4       010VISTA          000000000030600000000313000000003060000000000000000000311000435887000
0202LOTE PADRAO                   ITAUBANCO   PN * EJ    ITAU4       010VISTA          000000000176000000001775000000017310000000000000000001731000007727600
0202LOTE PADRAO                   TELEMAR     ON * EJ    TNLP3       010VISTA          000000000025800000000266000000002580000000000000000000264000018658200
0202LOTE PADRAO                   SID NACIONALON *       CSNA3       010VISTA          000000000050200000000503000000004730000000000000000000482000038767100
0202LOTE PADRAO                   TELE LEST CLPN *       TLCP4       010VISTA          000000000000670000000007000000000067000000000000000000006800204420000
0202LOTE PADRAO                   CRT CELULAR PNA* EJ    CRTP5       010VISTA          000000000390000000003930000000038900000000000000000003920000000486700
0202LOTE PADRAO                   IPIRANGA PETPN *       PTIP4       010VISTA          000000000013800000000138000000001360000000000000000000138000002045300
0202LOTE PADRAO                   BRASIL T PARPN *       BRTP4       010VISTA          000000000017300000000173000000001710000000000000000000171000047163800
0202LOTE PADRAO                   BRASIL T PARON *       BRTP3       010VISTA          000000000016300000000163000000001600000000000000000000160000009485900
0202LOTE PADRAO                   KLABIN S/A  PN         KLBN4       010VISTA          000000000001000000000011000000000100000000000000000000011000000007400
0202LOTE PADRAO                   ACESITA     PN *       ACES4       010VISTA          000000000000660000000006600000000063000000000000000000006400196109000
0202LOTE PADRAO                   PETROBRAS   PN         PETR4       010VISTA          000000000056250000000562000000005550000000000000000000557000000089600
0202LOTE PADRAO                   ELETROBRAS  PNB*       ELET6       010VISTA          000000000030400000000305000000002960000000000000000000298000033082900
0202LOTE PADRAO                   PETROBRAS   ON         PETR3       010VISTA          000000000059900000000602000000005960000000000000000000597000000054200
0202LOTE PADRAO                   COMGAS      PNA*       CGAS5       010VISTA          000000000075500000000755000000007250000000000000000000730000000240300
0202LOTE PADRAO                   SOUZA CRUZ  ON EJ      CRUZ3       010VISTA          000000000015900000000159000000001510000000000000000000151000000008000
0202LOTE PADRAO                   ELETROBRAS  ON *       ELET3       010VISTA          000000000033500000000337000000003270000000000000000000328000007978800
0202LOTE PADRAO                   CELESC      PNB        CLSC6       010VISTA          000000000000540000000005400000000053000000000000000000005400000132000
0202LOTE PADRAO                   BRADESCO    PN * EJ    BBDC4       010VISTA          000000000013000000000130000000001300000000000000000000130000115567000
0202LOTE PADRAO                   CESP        PN *       CESP4       010VISTA          000000000011000000000110000000001050000000000000000000108000003088300
0202LOTE PADRAO                   LIGHT       ON *       LIGH3       010VISTA          000000000096000000000970000000009400000000000000000000940000000490500
0202LOTE PADRAO                   TELESP CL PAPN *       TSPP4       010VISTA          000000000005400000000055000000000530000000000000000000054000223253000
0202LOTE PADRAO                   VALE R DOCE PNA        VALE5       010VISTA          000000000070500000000719000000007050000000000000000000717500000018000
0202LOTE PADRAO                   COPEL       PNB*       CPLE6       010VISTA          000000000015400000000155000000001510000000000000000000151000024315700
0202LOTE PADRAO                   VALE R DOCE ON         VALE3       010VISTA          000000000071700000000725000000007160000000000000000000725000000021800
0202LOTE PADRAO                   ARACRUZ     PNB        ARCZ6       010VISTA          000000000005600000000057000000000560000000000000000000056000000041300
0202LOTE PADRAO                   TELEMIG PARTPN *       TMCP4       010VISTA          000000000002940000000030000000000290000000000000000000029600243582000
0202LOTE PADRAO                   BRASIL TELECPN *       BRTO4       010VISTA          000000000012100000000123000000001210000000000000000000123000059333700
0202LOTE PADRAO                   SABESP      ON *       SBSP3       010VISTA          000000000113500000001135000000011100000000000000000001120000002212900
0202LOTE PADRAO                   BRASKEM     PNA*       BRKM5       010VISTA          000000000445000000004450000000043100000000000000000004310000000095800
0202LOTE PADRAO                   EMBRAER     PN EJ      EMBR4       010VISTA          000000000014400000000144000000001430000000000000000000144000000052600
0202LOTE PADRAO                   TELESP      PN * EJ    TLPP4       010VISTA          000000000033200000000334000000003300000000000000000000332000013299600
0202LOTE PADRAO                   EMBRAER     ON EJ      EMBR3       010VISTA          000000000012800000000131000000001280000000000000000000129000000012000
0202LOTE PADRAO                   AMBEV       PN *       AMBV4       010VISTA          000000000480000000004860000000047880000000000000000004800000002173600
0202LOTE PADRAO                   USIMINAS    PNA        USIM5       010VISTA          000000000007400000000077000000000740000000000000000000075000000037300
0202LOTE PADRAO                   ELETROPAULO PN *       ELPL4       010VISTA          000000000052000000000520000000005060000000000000000000511000002644900
0202LOTE PADRAO                   TELE NORD CLPN *       TNEP4       010VISTA          000000000002500000000025000000000250000000000000000000025000131203000
0202LOTE PADRAO                   CEMIG       PN * EJ    CMIG4       010VISTA          000000000034600000000350000000003410000000000000000000342000027958900
0202LOTE PADRAO                   TELE CL SUL PN * EJ    TCSL4       010VISTA          000000000003000000000031000000000298000000000000000000030000072256400
0202LOTE PADRAO                   TRACTEBEL   ON *       TBLE3       010VISTA          000000000004000000000040000000000400000000000000000000040000004411500
0202LOTE PADRAO                   CEMIG       ON * EJ    CMIG3       010VISTA          000000000031000000000310000000003040000000000000000000304000000106400
0202LOTE PADRAO                   TELE CL SUL ON * EJ    TCSL3       010VISTA          000000000002700000000027500000000250000000000000000000026000035952300
0202LOTE PADRAO                   ITAUSA      PN         ITSA4       010VISTA          000000000002100000000021000000000200000000000000000000020000000417500
0202LOTE PADRAO                   V C P       PN *       VCPA4       010VISTA          000000000102000000001040000000010200000000000000000001040000004207500
0202LOTE PADRAO                   SID TUBARAO PN *       CSTB4       010VISTA          000000000029100000000295000000002910000000000000000000293000013034900
0202LOTE PADRAO                   BRADESPAR   PN *       BRAP4       010VISTA          000000000000620000000006200000000059000000000000000000005900171997000
0202LOTE PADRAO                   NET         PN         PLIM4       010VISTA          000000000000350000000003700000000035000000000000000000003600001062000
0202LOTE PADRAO                   TELE CTR OESPN * EJ    TCOC4       010VISTA          000000000004500000000045000000000430000000000000000000044000153068000
0202LOTE PADRAO                   TELEMAR N L PNA* EJ    TMAR5       010VISTA          000000000052000000000536000000005200000000000000000000530000030198200
0202LOTE PADRAO                   GERDAU      PN * EJ    GGBR4       010VISTA          000000000031800000000318000000003160000000000000000000316000015119400
0202LOTE PADRAO                   BRASIL      ON *       BBAS3       010VISTA          000000000012500000000129000000001250000000000000000000129000007719100
