00BDIN9999BOVESPA 99992002031520020315
0101IBOVESPA                      0141200140890143700000000000000000002002031500000020020315014365000000
0202LOTE PADRAO                   EMBRATEL PARPN *       EBTP4       010VISTA          000000000009000000000092500000000900000000000000000000090000174753000
0202LOTE PADRAO                   TRAN PAULISTPN * EJ    TRPL4       010VISTA          000000000007500000000078000000000750000000000000000000078000012720800
0202LOTE PADRAO                   EMBRATEL PARON *       EBTP3       010VISTA          000000000011000000000113000000001100000000000000000000112500022228500
0202LOTE PADRAO                   TELEMAR     PN * EJ    TNLP4       010VISTA          000000000032000000000332500000003180000000000000000000332500236952000
0202LOTE PADRAO                   ITAUBANCO   PN * EJ    ITAU4       010VISTA          000000000189900000001935000000018940000000000000000001929000005717300
0202LOTE PADRAO                   TELEMAR     ON * EJ    TNLP3       010VISTA          000000000028800000000299000000002860000000000000000000296000015074600
0202LOTE PADRAO                   SID NACIONALON *       CSNA3       010VISTA          000000000049100000000491000000004870000000000000000000490000010951700
0202LOTE PADRAO                   TELE LEST CLPN *       TLCP4       010VISTA          000000000000900000000009300000000089000000000000000000009300130363000
0202LOTE PADRAO                   CRT CELULAR PNA* EJ    CRTP5       010VISTA          000000000504000000005200000000050000000000000000000005000000000603700
0202LOTE PADRAO                   IPIRANGA PETPN *       PTIP4       010VISTA          000000000014100000000145000000001410000000000000000000144000002811200
0202LOTE PADRAO                   BRASIL T PARPN *       BRTP4       010VISTA          000000000019500000000201000000001930000000000000000000201000072673500
0202LOTE PADRAO                   BRASIL T PARON *       BRTP3       010VISTA          000000000019600000000199000000001910000000000000000000198000009870400
0202LOTE PADRAO                   KLABIN S/A  PN         KLBN4       010VISTA          000000000001270000000013000000000127000000000000000000013000000058200
0202LOTE PADRAO                   ACESITA     PN *       ACES4       010VISTA          000000000000770000000008000000000077000000000000000000008000431355000
0202LOTE PADRAO                   PETROBRAS   PN         PETR4       010VISTA          000000000058750000000603000000005875000000000000000000600000000176600
0202LOTE PADRAO                   ELETROBRAS  PNB*       ELET6       010VISTA          000000000037800000000392000000003760000000000000000000392000035508100
0202LOTE PADRAO                   PETROBRAS   ON         PETR3       010VISTA          000000000061100000000635000000006110000000000000000000630000000110900
0202LOTE PADRAO                   COMGAS      PNA*       CGAS5       010VISTA          000000000090000000000920000000009000000000000000000000919000000994400
0202LOTE PADRAO                   SOUZA CRUZ  ON EJ      CRUZ3       010VISTA          000000000014800000000148000000001480000000000000000000148000000013000
0202LOTE PADRAO                   ELETROBRAS  ON *       ELET3       010VISTA          000000000043000000000435000000004270000000000000000000432000016885200
0202LOTE PADRAO                   CELESC      PNB        CLSC6       010VISTA          000000000000600000000006000000000058000000000000000000006000000340000
0202LOTE PADRAO                   BRADESCO    PN * EJ    BBDC4       010VISTA          000000000013800000000140000000001380000000000000000000140000155364000
0202LOTE PADRAO                   CESP        PN *       CESP4       010VISTA          000000000016100000000170000000001610000000000000000000170000014414000
0202LOTE PADRAO                   LIGHT       ON *       LIGH3       010VISTA          000000000125000000001278000000012490000000000000000001278000000672500
0202LOTE PADRAO                   TELESP CL PAPN *       TSPP4       010VISTA          000000000006300000000065000000000620000000000000000000064000221284000
0202LOTE PADRAO                   VALE R DOCE PNA        VALE5       010VISTA          000000000060500000000609000000006010000000000000000000601000000033500
0202LOTE PADRAO                   COPEL       PNB*       CPLE6       010VISTA          000000000018600000000187000000001840000000000000000000186000039511200
0202LOTE PADRAO                   VALE R DOCE ON         VALE3       010VISTA          000000000061000000000615000000006070000000000000000000610000000011200
0202LOTE PADRAO                   ARACRUZ     PNB        ARCZ6       010VISTA          000000000004800000000050000000000480000000000000000000049000000032500
0202LOTE PADRAO                   TELEMIG PARTPN *       TMCP4       010VISTA          000000000003790000000038000000000375000000000000000000038000116934000
0202LOTE PADRAO                   BRASIL TELECPN *       BRTO4       010VISTA          000000000014100000000144000000001390000000000000000000144000105822000
0202LOTE PADRAO                   SABESP      ON *       SBSP3       010VISTA          000000000137600000001398000000013420000000000000000001389000001347400
0202LOTE PADRAO                   BRASKEM     PNA*       BRKM5       010VISTA          000000000575000000005980000000057500000000000000000005780000000211200
0202LOTE PADRAO                   EMBRAER     PN EJ      EMBR4       010VISTA          000000000012750000000128000000001260000000000000000000127000000058300
0202LOTE PADRAO                   TELESP      PN * EJ    TLPP4       010VISTA          000000000034500000000367000000003430000000000000000000364000010154000
0202LOTE PADRAO                   EMBRAER     ON EJ      EMBR3       010VISTA          000000000011900000000121000000001190000000000000000000121000000016400
0202LOTE PADRAO                   AMBEV       PN *       AMBV4       010VISTA          000000000450900000004560000000044700000000000000000004549000002284000
0202LOTE PADRAO                   USIMINAS    PNA        USIM5       010VISTA          000000000007800000000080000000000780000000000000000000079000000096000
0202LOTE PADRAO                   ELETROPAULO PN *       ELPL4       010VISTA          000000000070500000000705000000006970000000000000000000703000003077600
0202LOTE PADRAO                   TELE NORD CLPN *       TNEP4       010VISTA          000000000003300000000033000000000320000000000000000000033000140942000
0202LOTE PADRAO                   CEMIG       PN * EJ    CMIG4       010VISTA          000000000039000000000395000000003850000000000000000000393000035463700
0202LOTE PADRAO                   TELE CL SUL PN * EJ    TCSL4       010VISTA          000000000003600000000037000000000350000000000000000000035000080055300
0202LOTE PADRAO                   TRACTEBEL   ON *       TBLE3       010VISTA          000000000004000000000040000000000390000000000000000000040000020344000
0202LOTE PADRAO                   CEMIG       ON * EJ    CMIG3       010VISTA          000000000034900000000359000000003490000000000000000000358000001114800
0202LOTE PADRAO                   TELE CL SUL ON * EJ    TCSL3       010VISTA          000000000003100000000032000000000310000000000000000000031000030243800
0202LOTE PADRAO                   ITAUSA      PN         ITSA4       010VISTA          000000000002300000000023000000000230000000000000000000023000000262800
0202LOTE PADRAO                   V C P       PN *       VCPA4       010VISTA          000000000091000000000915000000009000000000000000000000915000004649800
0202LOTE PADRAO                   SID TUBARAO PN *       CSTB4       010VISTA          000000000027000000000271000000002550000000000000000000268000005127400
0202LOTE PADRAO                   BRADESPAR   PN *       BRAP4       010VISTA          000000000000800000000008200000000079000000000000000000008200266526000
0202LOTE PADRAO                   NET         PN         PLIM4       010VISTA          000000000000650000000006500000000061000000000000000000006300002463300
0202LOTE PADRAO                   TELE CTR OESPN * EJ    TCOC4       010VISTA          000000000005200000000052000000000500000000000000000000051000121237000
0202LOTE PADRAO                   TELEMAR N L PNA* EJ    TMAR5       010VISTA          000000000057500000000600000000005700000000000000000000592000036621600
0202LOTE PADRAO                   GERDAU      PN * EJ    GGBR4       010VISTA          000000000027800000000286000000002780000000000000000000283000015907000
0202LOTE PADRAO                   BRASIL      ON *       BBAS3       010VISTA          000000000011600000000119000000001140000000000000000000119000010105300
