00BDIN9999BOVESPA 99992002112920021129
0101IBOVESPA                      0102500102500105190000000000000000002002112900000020021129010509000000
0202LOTE PADRAO                   EMBRATEL PARPN *       EBTP4       010VISTA          000000000002800000000029000000000280000000000000000000029000255534000
0202LOTE PADRAO                   TRAN PAULISTPN * EJ    TRPL4       010VISTA          000000000005250000000052000000000520000000000000000000052000015371600
0202LOTE PADRAO                   EMBRATEL PARON *       EBTP3       010VISTA          000000000003600000000036000000000350000000000000000000035000042942100
0202LOTE PADRAO                   TELEMAR     PN * EJ    TNLP4       010VISTA          000000000025800000000268000000002580000000000000000000268000210924000
0202LOTE PADRAO                   ITAUBANCO   PN * EJ    ITAU4       010VISTA          000000000149000000001525000000014900000000000000000001525000006517200
0202LOTE PADRAO                   TELEMAR     ON * EJ    TNLP3       010VISTA          000000000019100000000199000000001910000000000000000000199000012841100
0202LOTE PADRAO                   SID NACIONALON *       CSNA3       010VISTA          000000000046600000000486000000004660000000000000000000483000028629900
0202LOTE PADRAO                   TELE LEST CLPN *       TLCP4       010VISTA          000000000000430000000004300000000041000000000000000000004200048611700
0202LOTE PADRAO                   CRT CELULAR PNA* EJ    CRTP5       010VISTA          000000000312000000003140000000031100000000000000000003139000000294900
0202LOTE PADRAO                   IPIRANGA PETPN *       PTIP4       010VISTA          000000000007200000000074000000000700000000000000000000070000008863100
0202LOTE PADRAO                   BRASIL T PARPN *       BRTP4       010VISTA          000000000017600000000185000000001760000000000000000000184000040443700
0202LOTE PADRAO                   BRASIL T PARON *       BRTP3       010VISTA          000000000013600000000145000000001350000000000000000000145000003436200
0202LOTE PADRAO                   KLABIN S/A  PN         KLBN4       010VISTA          000000000001000000000010000000000100000000000000000000010000000010100
0202LOTE PADRAO                   ACESITA     PN *       ACES4       010VISTA          000000000000780000000008200000000078000000000000000000008100315061000
0202LOTE PADRAO                   PETROBRAS   PN         PETR4       010VISTA          000000000043100000000444000000004310000000000000000000444000000060900
0202LOTE PADRAO                   ELETROBRAS  PNB*       ELET6       010VISTA          000000000019300000000195000000001900000000000000000000193000029877900
0202LOTE PADRAO                   PETROBRAS   ON         PETR3       010VISTA          000000000046700000000480000000004670000000000000000000480000000019500
0202LOTE PADRAO                   COMGAS      PNA*       CGAS5       010VISTA          000000000054000000000548000000005350000000000000000000548000000414200
0202LOTE PADRAO                   SOUZA CRUZ  ON EJ      CRUZ3       010VISTA          000000000017800000000183000000001780000000000000000000183000000023500
0202LOTE PADRAO                   ELETROBRAS  ON *       ELET3       010VISTA          000000000020000000000200000000001950000000000000000000199000006013400
0202LOTE PADRAO                   CELESC      PNB        CLSC6       010VISTA          000000000000480000000004800000000047000000000000000000004800000139500
0202LOTE PADRAO                   BRADESCO    PN * EJ    BBDC4       010VISTA          000000000009300000000095000000000930000000000000000000095000178970000
0202LOTE PADRAO                   CESP        PN *       CESP4       010VISTA          000000000007100000000073000000000690000000000000000000069000033062500
0202LOTE PADRAO                   LIGHT       ON *       LIGH3       010VISTA          000000000051200000000519000000004920000000000000000000508000000155000
0202LOTE PADRAO                   TELESP CL PAPN *       TSPP4       010VISTA          000000000003800000000039600000000380000000000000000000038000291371000
0202LOTE PADRAO                   VALE R DOCE PNA        VALE5       010VISTA          000000000089000000000930000000008900000000000000000000929000000014300
0202LOTE PADRAO                   COPEL       PNB*       CPLE6       010VISTA          000000000007700000000079000000000770000000000000000000077900058705300
0202LOTE PADRAO                   VALE R DOCE ON         VALE3       010VISTA          000000000099700000001002000000009600000000000000000001000000000042200
0202LOTE PADRAO                   ARACRUZ     PNB        ARCZ6       010VISTA          000000000005900000000062000000000590000000000000000000061000000068500
0202LOTE PADRAO                   TELEMIG PARTPN *       TMCP4       010VISTA          000000000002900000000029000000000290000000000000000000029000061402700
0202LOTE PADRAO                   BRASIL TELECPN *       BRTO4       010VISTA          000000000011100000000115000000001110000000000000000000115000087194200
0202LOTE PADRAO                   SABESP      ON *       SBSP3       010VISTA          000000000082000000000835000000008175000000000000000000830000005536300
0202LOTE PADRAO                   BRASKEM     PNA*       BRKM5       010VISTA          000000000193000000001995000000019100000000000000000001960000000185100
0202LOTE PADRAO                   EMBRAER     PN EJ      EMBR4       010VISTA          000000000013300000000135000000001330000000000000000000135000000037400
0202LOTE PADRAO                   TELESP      PN * EJ    TLPP4       010VISTA          000000000036700000000379000000003650000000000000000000365000003721700
0202LOTE PADRAO                   EMBRAER     ON EJ      EMBR3       010VISTA          000000000012300000000124000000001220000000000000000000124000000012500
0202LOTE PADRAO                   AMBEV       PN *       AMBV4       010VISTA          000000000535000000005600000000053500000000000000000005500000001427400
0202LOTE PADRAO                   USIMINAS    PNA        USIM5       010VISTA          000000000006000000000061000000000600000000000000000000061000000054100
0202LOTE PADRAO                   ELETROPAULO PN *       ELPL4       010VISTA          000000000023300000000243000000002300000000000000000000232000006046600
0202LOTE PADRAO                   TELE NORD CLPN *       TNEP4       010VISTA          000000000002700000000027500000000260000000000000000000027500021037400
0202LOTE PADRAO                   CEMIG       PN * EJ    CMIG4       010VISTA          000000000023300000000240000000002330000000000000000000240000022206800
0202LOTE PADRAO                   TELE CL SUL PN * EJ    TCSL4       010VISTA          000000000002600000000027000000000260000000000000000000027000094079700
0202LOTE PADRAO                   TRACTEBEL   ON *       TBLE3       010VISTA          000000000003200000000033000000000320000000000000000000033000012229200
0202LOTE PADRAO                   CEMIG       ON * EJ    CMIG3       010VISTA          000000000021100000000217500000002100000000000000000000216000000901000
0202LOTE PADRAO                   TELE CL SUL ON * EJ    TCSL3       010VISTA          000000000002000000000020000000000200000000000000000000020000023169700
0202LOTE PADRAO                   ITAUSA      PN         ITSA4       010VISTA          000000000001770000000017900000000177000000000000000000017800000187900
0202LOTE PADRAO                   V C P       PN *       VCPA4       010VISTA          000000000114000000001200000000011400000000000000000001190000001553700
0202LOTE PADRAO                   SID TUBARAO PN *       CSTB4       010VISTA          000000000034100000000357000000003400000000000000000000355000017405300
0202LOTE PADRAO                   BRADESPAR   PN *       BRAP4       010VISTA          000000000000490000000005200000000048000000000000000000005000345944000
0202LOTE PADRAO                   NET         PN         PLIM4       010VISTA          000000000000410000000004300000000038000000000000000000003800001240900
0202LOTE PADRAO                   TELE CTR OESPN * EJ    TCOC4       010VISTA          000000000004700000000048000000000470000000000000000000047000086194500
0202LOTE PADRAO                   TELEMAR N L PNA* EJ    TMAR5       010VISTA          000000000042400000000435000000004220000000000000000000432000010736000
0202LOTE PADRAO                   GERDAU      PN * EJ    GGBR4       010VISTA          000000000031800000000328000000003180000000000000000000328000023240600
0202LOTE PADRAO                   BRASIL      ON *       BBAS3       010VISTA          000000000010000000000101000000000990000000000000000000100000024210000
