00BDIN9999BOVESPA 99992002040120020401
0101IBOVESPA                      0132560130680134990000000000000000002002040100000020020401013467000000
0202LOTE PADRAO                   EMBRATEL PARPN *       EBTP4       010VISTA          000000000007700000000078000000000750000000000000000000078000097905900
0202LOTE PADRAO                   TRAN PAULISTPN * EJ    TRPL4       010VISTA          000000000007200000000075000000000710000000000000000000074000017190000
0202LOTE PADRAO                   EMBRATEL PARON *       EBTP3       010VISTA          000000000009200000000092000000000890000000000000000000090000032914400
0202LOTE PADRAO                   TELEMAR     PN * EJ    TNLP4       010VISTA          000000000029100000000303000000002820000000000000000000301000338116000
0202LOTE PADRAO                   ITAUBANCO   PN * EJ    ITAU4       010VISTA          000000000185000000001900000000018500000000000000000001900000004373200
0202LOTE PADRAO                   TELEMAR     ON * EJ    TNLP3       010VISTA          000000000025500000000271000000002510000000000000000000271000008846500
0202LOTE PADRAO                   SID NACIONALON *       CSNA3       010VISTA          000000000041000000000434000000004100000000000000000000432000024668300
0202LOTE PADRAO                   TELE LEST CLPN *       TLCP4       010VISTA          000000000000830000000008400000000081000000000000000000008400086774400
0202LOTE PADRAO                   CRT CELULAR PNA* EJ    CRTP5       010VISTA          000000000455000000004550000000043600000000000000000004436000001245400
0202LOTE PADRAO                   IPIRANGA PETPN *       PTIP4       010VISTA          000000000014000000000143000000001360000000000000000000142000004979700
0202LOTE PADRAO                   BRASIL T PARPN *       BRTP4       010VISTA          000000000018100000000184000000001780000000000000000000180000136470000
0202LOTE PADRAO                   BRASIL T PARON *       BRTP3       010VISTA          000000000017200000000177000000001720000000000000000000174000013213300
0202LOTE PADRAO                   KLABIN S/A  PN         KLBN4       010VISTA          000000000001100000000011000000000100000000000000000000011000000023200
0202LOTE PADRAO                   ACESITA     PN *       ACES4       010VISTA          000000000000760000000007600000000072000000000000000000007500143099000
0202LOTE PADRAO                   PETROBRAS   PN         PETR4       010VISTA          000000000059200000000595000000005810000000000000000000590000000112700
0202LOTE PADRAO                   ELETROBRAS  PNB*       ELET6       010VISTA          000000000034250000000353000000003380000000000000000000352000034758000
0202LOTE PADRAO                   PETROBRAS   ON         PETR3       010VISTA          000000000061500000000633000000006150000000000000000000623000000038600
0202LOTE PADRAO                   COMGAS      PNA*       CGAS5       010VISTA          000000000081000000000817000000007800000000000000000000804000001751100
0202LOTE PADRAO                   SOUZA CRUZ  ON EJ      CRUZ3       010VISTA          000000000014900000000151000000001460000000000000000000151000000008600
0202LOTE PADRAO                   ELETROBRAS  ON *       ELET3       010VISTA          000000000037700000000397000000003770000000000000000000393000006744600
0202LOTE PADRAO                   CELESC      PNB        CLSC6       010VISTA          000000000000550000000005700000000055000000000000000000005600000175200
0202LOTE PADRAO                   BRADESCO    PN * EJ    BBDC4       010VISTA          000000000014000000000145000000001390000000000000000000145000107737000
0202LOTE PADRAO                   CESP        PN *       CESP4       010VISTA          000000000014600000000148000000001380000000000000000000145000010079500
0202LOTE PADRAO                   LIGHT       ON *       LIGH3       010VISTA          000000000105000000001055000000010100000000000000000001030000001303600
0202LOTE PADRAO                   TELESP CL PAPN *       TSPP4       010VISTA          000000000005700000000059000000000550000000000000000000058000209140000
0202LOTE PADRAO                   VALE R DOCE PNA        VALE5       010VISTA          000000000060200000000619000000006020000000000000000000615000000032900
0202LOTE PADRAO                   COPEL       PNB*       CPLE6       010VISTA          000000000017300000000181000000001680000000000000000000178000028797900
0202LOTE PADRAO                   VALE R DOCE ON         VALE3       010VISTA          000000000063000000000637000000006270000000000000000000628000000020600
0202LOTE PADRAO                   ARACRUZ     PNB        ARCZ6       010VISTA          000000000004600000000049000000000460000000000000000000048000000155000
0202LOTE PADRAO                   TELEMIG PARTPN *       TMCP4       010VISTA          000000000003250000000032700000000310000000000000000000032000070159100
0202LOTE PADRAO                   BRASIL TELECPN *       BRTO4       010VISTA          000000000013000000000130000000001280000000000000000000129000086004400
0202LOTE PADRAO                   SABESP      ON *       SBSP3       010VISTA          000000000125000000001285000000012500000000000000000001283000001057500
0202LOTE PADRAO                   BRASKEM     PNA*       BRKM5       010VISTA          000000000520000000005270000000051200000000000000000005190000000129300
0202LOTE PADRAO                   EMBRAER     PN EJ      EMBR4       010VISTA          000000000011800000000120000000001150000000000000000000119000000108600
0202LOTE PADRAO                   TELESP      PN * EJ    TLPP4       010VISTA          000000000034300000000355000000003410000000000000000000355000020975200
0202LOTE PADRAO                   EMBRAER     ON EJ      EMBR3       010VISTA          000000000011000000000112500000001100000000000000000000110000000012600
0202LOTE PADRAO                   AMBEV       PN *       AMBV4       010VISTA          000000000454300000004728000000044980000000000000000004659000001961000
0202LOTE PADRAO                   USIMINAS    PNA        USIM5       010VISTA          000000000007500000000075000000000730000000000000000000075000000117300
0202LOTE PADRAO                   ELETROPAULO PN *       ELPL4       010VISTA          000000000073900000000739000000007000000000000000000000700000006883300
0202LOTE PADRAO                   TELE NORD CLPN *       TNEP4       010VISTA          000000000002700000000027000000000260000000000000000000026900120114000
0202LOTE PADRAO                   CEMIG       PN * EJ    CMIG4       010VISTA          000000000034200000000358000000003400000000000000000000358000072362800
0202LOTE PADRAO                   TELE CL SUL PN * EJ    TCSL4       010VISTA          000000000003000000000031000000000296000000000000000000030000041473000
0202LOTE PADRAO                   TRACTEBEL   ON *       TBLE3       010VISTA          000000000004300000000046000000000420000000000000000000044000012200000
0202LOTE PADRAO                   CEMIG       ON * EJ    CMIG3       010VISTA          000000000032200000000323000000003010000000000000000000318000000456100
0202LOTE PADRAO                   TELE CL SUL ON * EJ    TCSL3       010VISTA          000000000002600000000027000000000250000000000000000000027000019868000
0202LOTE PADRAO                   ITAUSA      PN         ITSA4       010VISTA          000000000002300000000023000000000230000000000000000000023000000156200
0202LOTE PADRAO                   V C P       PN *       VCPA4       010VISTA          000000000086100000000896000000008610000000000000000000895000002554600
0202LOTE PADRAO                   SID TUBARAO PN *       CSTB4       010VISTA          000000000024400000000254000000002440000000000000000000253000018241500
0202LOTE PADRAO                   BRADESPAR   PN *       BRAP4       010VISTA          000000000000750000000007700000000073000000000000000000007700122845000
0202LOTE PADRAO                   NET         PN         PLIM4       010VISTA          000000000000510000000005100000000049000000000000000000005100001206200
0202LOTE PADRAO                   TELE CTR OESPN * EJ    TCOC4       010VISTA          000000000004600000000046000000000450000000000000000000046000050915800
0202LOTE PADRAO                   TELEMAR N L PNA* EJ    TMAR5       010VISTA          000000000050500000000520000000004920000000000000000000517000013091000
0202LOTE PADRAO                   GERDAU      PN * EJ    GGBR4       010VISTA          000000000027800000000284000000002730000000000000000000281000008026700
0202LOTE PADRAO                   BRASIL      ON *       BBAS3       010VISTA          000000000011600000000119000000001160000000000000000000118000007269600
