00BDIN9999BOVESPA 99992002031220020312
0101IBOVESPA                      0137170137100142130000000000000000002002031200000020020312014181000000
0202LOTE PADRAO                   EMBRATEL PARPN *       EBTP4       010VISTA          000000000008700000000090000000000840000000000000000000090000324850000
0202LOTE PADRAO                   TRAN PAULISTPN * EJ    TRPL4       010VISTA          000000000007400000000077900000000730000000000000000000077900026522100
0202LOTE PADRAO                   EMBRATEL PARON *       EBTP3       010VISTA          000000000010700000000110000000001010000000000000000000108000044532300
0202LOTE PADRAO                   TELEMAR     PN * EJ    TNLP4       010VISTA          000000000032100000000335000000003210000000000000000000331000334952000
0202LOTE PADRAO                   ITAUBANCO   PN * EJ    ITAU4       010VISTA          000000000187500000001920000000018750000000000000000001900000011392300
0202LOTE PADRAO                   TELEMAR     ON * EJ    TNLP3       010VISTA          000000000028000000000298000000002800000000000000000000294000012931600
0202LOTE PADRAO                   SID NACIONALON *       CSNA3       010VISTA          000000000044700000000472500000004470000000000000000000470000022421700
0202LOTE PADRAO                   TELE LEST CLPN *       TLCP4       010VISTA          000000000000860000000009000000000085000000000000000000009000216140000
0202LOTE PADRAO                   CRT CELULAR PNA* EJ    CRTP5       010VISTA          000000000470000000005100000000047000000000000000000005080000000767200
0202LOTE PADRAO                   IPIRANGA PETPN *       PTIP4       010VISTA          000000000014300000000147000000001420000000000000000000145000007643200
0202LOTE PADRAO                   BRASIL T PARPN *       BRTP4       010VISTA          000000000019900000000203000000001930000000000000000000203000088911000
0202LOTE PADRAO                   BRASIL T PARON *       BRTP3       010VISTA          000000000019300000000204000000001930000000000000000000203000030993500
0202LOTE PADRAO                   KLABIN S/A  PN         KLBN4       010VISTA          000000000001240000000012700000000120000000000000000000012700000083400
0202LOTE PADRAO                   ACESITA     PN *       ACES4       010VISTA          000000000000730000000007600000000073000000000000000000007500351831000
0202LOTE PADRAO                   PETROBRAS   PN         PETR4       010VISTA          000000000057000000000583000000005700000000000000000000576000000186600
0202LOTE PADRAO                   ELETROBRAS  PNB*       ELET6       010VISTA          000000000038250000000387000000003720000000000000000000385000048317400
0202LOTE PADRAO                   PETROBRAS   ON         PETR3       010VISTA          000000000058500000000604000000005850000000000000000000596000000080200
0202LOTE PADRAO                   COMGAS      PNA*       CGAS5       010VISTA          000000000087000000000920000000008700000000000000000000909000001780800
0202LOTE PADRAO                   SOUZA CRUZ  ON EJ      CRUZ3       010VISTA          000000000014500000000145000000001430000000000000000000143000000023600
0202LOTE PADRAO                   ELETROBRAS  ON *       ELET3       010VISTA          000000000042700000000430000000004170000000000000000000428000016095300
0202LOTE PADRAO                   CELESC      PNB        CLSC6       010VISTA          000000000000590000000006100000000059000000000000000000006000000503900
0202LOTE PADRAO                   BRADESCO    PN * EJ    BBDC4       010VISTA          000000000013400000000135000000001310000000000000000000134000200169000
0202LOTE PADRAO                   CESP        PN *       CESP4       010VISTA          000000000015500000000165000000001550000000000000000000163000022045400
0202LOTE PADRAO                   LIGHT       ON *       LIGH3       010VISTA          000000000117100000001220000000011710000000000000000001205000001196400
0202LOTE PADRAO                   TELESP CL PAPN *       TSPP4       010VISTA          000000000006250000000065000000000610000000000000000000064000347926000
0202LOTE PADRAO                   VALE R DOCE PNA        VALE5       010VISTA          000000000061500000000618000000005850000000000000000000612000000058400
0202LOTE PADRAO                   COPEL       PNB*       CPLE6       010VISTA          000000000018300000000190000000001830000000000000000000190000033913700
0202LOTE PADRAO                   VALE R DOCE ON         VALE3       010VISTA          000000000059300000000627000000005930000000000000000000620000000008900
0202LOTE PADRAO                   ARACRUZ     PNB        ARCZ6       010VISTA          000000000004750000000049000000000470000000000000000000048000000043400
0202LOTE PADRAO                   TELEMIG PARTPN *       TMCP4       010VISTA          000000000003600000000037000000000360000000000000000000037000142989000
0202LOTE PADRAO                   BRASIL TELECPN *       BRTO4       010VISTA          000000000013600000000144000000001360000000000000000000144000109599000
0202LOTE PADRAO                   SABESP      ON *       SBSP3       010VISTA          000000000132000000001380000000013200000000000000000001350000002204300
0202LOTE PADRAO                   BRASKEM     PNA*       BRKM5       010VISTA          000000000538000000005697500000053800000000000000000005620000000270400
0202LOTE PADRAO                   EMBRAER     PN EJ      EMBR4       010VISTA          000000000012300000000125000000001210000000000000000000124000000087600
0202LOTE PADRAO                   TELESP      PN * EJ    TLPP4       010VISTA          000000000034000000000350000000003350000000000000000000348000018071500
0202LOTE PADRAO                   EMBRAER     ON EJ      EMBR3       010VISTA          000000000011400000000119000000001140000000000000000000118000000037000
0202LOTE PADRAO                   AMBEV       PN *       AMBV4       010VISTA          000000000440000000004570000000043010000000000000000004540000004155800
0202LOTE PADRAO                   USIMINAS    PNA        USIM5       010VISTA          000000000007100000000076000000000710000000000000000000075000000073800
0202LOTE PADRAO                   ELETROPAULO PN *       ELPL4       010VISTA          000000000069500000000710000000006700000000000000000000709000006324200
0202LOTE PADRAO                   TELE NORD CLPN *       TNEP4       010VISTA          000000000003200000000034000000000320000000000000000000034000135279000
0202LOTE PADRAO                   CEMIG       PN * EJ    CMIG4       010VISTA          000000000037500000000379000000003730000000000000000000378000047513000
0202LOTE PADRAO                   TELE CL SUL PN * EJ    TCSL4       010VISTA          000000000003300000000035000000000330000000000000000000035000140398000
0202LOTE PADRAO                   TRACTEBEL   ON *       TBLE3       010VISTA          000000000003900000000039000000000390000000000000000000039000017433000
0202LOTE PADRAO                   CEMIG       ON * EJ    CMIG3       010VISTA          000000000033500000000347000000003350000000000000000000344000001743600
0202LOTE PADRAO                   TELE CL SUL ON * EJ    TCSL3       010VISTA          000000000003000000000031000000000290000000000000000000031000042393600
0202LOTE PADRAO                   ITAUSA      PN         ITSA4       010VISTA          000000000002200000000023000000000227000000000000000000023000000295200
0202LOTE PADRAO                   V C P       PN *       VCPA4       010VISTA          000000000087000000000885000000008690000000000000000000880000002936900
0202LOTE PADRAO                   SID TUBARAO PN *       CSTB4       010VISTA          000000000024800000000253000000002480000000000000000000250000013736600
0202LOTE PADRAO                   BRADESPAR   PN *       BRAP4       010VISTA          000000000000780000000008200000000078000000000000000000008000325072000
0202LOTE PADRAO                   NET         PN         PLIM4       010VISTA          000000000000680000000007300000000068000000000000000000007100003298800
0202LOTE PADRAO                   TELE CTR OESPN * EJ    TCOC4       010VISTA          000000000004800000000051000000000480000000000000000000051000125673000
0202LOTE PADRAO                   TELEMAR N L PNA* EJ    TMAR5       010VISTA          000000000056500000000585000000005650000000000000000000582000015857100
0202LOTE PADRAO                   GERDAU      PN * EJ    GGBR4       010VISTA          000000000026750000000275000000002660000000000000000000273000029014300
0202LOTE PADRAO                   BRASIL      ON *       BBAS3       010VISTA          000000000011400000000116000000001125000000000000000000116000008170800
