00BDIN9999BOVESPA 99992002052420020524
0101IBOVESPA                      0125440124450126890000000000000000002002052400000020020524012574000000
0202LOTE PADRAO                   EMBRATEL PARPN *       EBTP4       010VISTA          000000000004500000000045000000000430000000000000000000045400088285500
0202LOTE PADRAO                   TRAN PAULISTPN * EJ    TRPL4       010VISTA          000000000006100000000062000000000600000000000000000000061000005336200
0202LOTE PADRAO                   EMBRATEL PARON *       EBTP3       010VISTA          000000000006000000000062000000000600000000000000000000062000008048600
0202LOTE PADRAO                   TELEMAR     PN * EJ    TNLP4       010VISTA          000000000029800000000303000000002960000000000000000000299000162831000
0202LOTE PADRAO                   ITAUBANCO   PN * EJ    ITAU4       010VISTA          000000000177000000001781000000017560000000000000000001770000003785100
0202LOTE PADRAO                   TELEMAR     ON * EJ    TNLP3       010VISTA          000000000025600000000258000000002480000000000000000000258000006244200
0202LOTE PADRAO                   SID NACIONALON *       CSNA3       010VISTA          000000000049500000000504000000004820000000000000000000504000022184400
0202LOTE PADRAO                   TELE LEST CLPN *       TLCP4       010VISTA          000000000000640000000006500000000062000000000000000000006300171764000
0202LOTE PADRAO                   CRT CELULAR PNA* EJ    CRTP5       010VISTA          000000000390000000003900000000037600000000000000000003900000000624400
0202LOTE PADRAO                   IPIRANGA PETPN *       PTIP4       010VISTA          000000000013500000000138000000001350000000000000000000136000000639000
0202LOTE PADRAO                   BRASIL T PARPN *       BRTP4       010VISTA          000000000016600000000173000000001660000000000000000000169000031160100
0202LOTE PADRAO                   BRASIL T PARON *       BRTP3       010VISTA          000000000015600000000160000000001550000000000000000000159000006110900
0202LOTE PADRAO                   KLABIN S/A  PN         KLBN4       010VISTA          000000000001000000000010000000000100000000000000000000010000000010000
0202LOTE PADRAO                   ACESITA     PN *       ACES4       010VISTA          000000000000650000000006600000000064000000000000000000006600060580000
0202LOTE PADRAO                   PETROBRAS   PN         PETR4       010VISTA          000000000056100000000567000000005550000000000000000000561000000079900
0202LOTE PADRAO                   ELETROBRAS  PNB*       ELET6       010VISTA          000000000030000000000308000000002980000000000000000000303000041997400
0202LOTE PADRAO                   PETROBRAS   ON         PETR3       010VISTA          000000000059700000000610000000005970000000000000000000600000000059300
0202LOTE PADRAO                   COMGAS      PNA*       CGAS5       010VISTA          000000000075700000000757000000007170000000000000000000727000000566000
0202LOTE PADRAO                   SOUZA CRUZ  ON EJ      CRUZ3       010VISTA          000000000016000000000160000000001560000000000000000000158000000004800
0202LOTE PADRAO                   ELETROBRAS  ON *       ELET3       010VISTA          000000000034000000000343000000003320000000000000000000333000024758000
0202LOTE PADRAO                   CELESC      PNB        CLSC6       010VISTA          000000000000550000000005500000000053000000000000000000005400000265000
0202LOTE PADRAO                   BRADESCO    PN * EJ    BBDC4       010VISTA          000000000012700000000128000000001260000000000000000000128000086269200
0202LOTE PADRAO                   CESP        PN *       CESP4       010VISTA          000000000010400000000105000000001010000000000000000000105000002879500
0202LOTE PADRAO                   LIGHT       ON *       LIGH3       010VISTA          000000000095700000000960000000009500000000000000000000950000000213200
0202LOTE PADRAO                   TELESP CL PAPN *       TSPP4       010VISTA          000000000005400000000056000000000510000000000000000000052500274212000
0202LOTE PADRAO                   VALE R DOCE PNA        VALE5       010VISTA          000000000070000000000715000000007000000000000000000000709000000020700
0202LOTE PADRAO                   COPEL       PNB*       CPLE6       010VISTA          000000000015000000000154000000001500000000000000000000150000041310700
0202LOTE PADRAO                   VALE R DOCE ON         VALE3       010VISTA          000000000071000000000712000000007100000000000000000000712000000022000
0202LOTE PADRAO                   ARACRUZ     PNB        ARCZ6       010VISTA          000000000005600000000057000000000550000000000000000000056000000053200
0202LOTE PADRAO                   TELEMIG PARTPN *       TMCP4       010VISTA          000000000002700000000028000000000275000000000000000000028100094450500
0202LOTE PADRAO                   BRASIL TELECPN *       BRTO4       010VISTA          000000000012000000000121000000001190000000000000000000120000032201000
0202LOTE PADRAO                   SABESP      ON *       SBSP3       010VISTA          000000000112000000001125000000011040000000000000000001119000001152400
0202LOTE PADRAO                   BRASKEM     PNA*       BRKM5       010VISTA          000000000442000000004470000000044000000000000000000004410000000156300
0202LOTE PADRAO                   EMBRAER     PN EJ      EMBR4       010VISTA          000000000014300000000144000000001420000000000000000000143000000026300
0202LOTE PADRAO                   TELESP      PN * EJ    TLPP4       010VISTA          000000000032200000000331000000003220000000000000000000327000006845400
0202LOTE PADRAO                   EMBRAER     ON EJ      EMBR3       010VISTA          000000000012800000000130000000001260000000000000000000129000000008800
0202LOTE PADRAO                   AMBEV       PN *       AMBV4       010VISTA          000000000478000000004820000000047600000000000000000004820000001352400
0202LOTE PADRAO                   USIMINAS    PNA        USIM5       010VISTA          000000000007400000000074000000000725000000000000000000073000000009700
0202LOTE PADRAO                   ELETROPAULO PN *       ELPL4       010VISTA          000000000052000000000525000000005110000000000000000000517000002030000
0202LOTE PADRAO                   TELE NORD CLPN *       TNEP4       010VISTA          000000000002400000000025000000000240000000000000000000024000072496800
0202LOTE PADRAO                   CEMIG       PN * EJ    CMIG4       010VISTA          000000000033500000000342000000003300000000000000000000336000038637700
0202LOTE PADRAO                   TELE CL SUL PN * EJ    TCSL4       010VISTA          000000000003000000000030000000000290000000000000000000029000119124000
0202LOTE PADRAO                   TRACTEBEL   ON *       TBLE3       010VISTA          000000000003800000000039000000000380000000000000000000039000008486600
0202LOTE PADRAO                   CEMIG       ON * EJ    CMIG3       010VISTA          000000000029800000000305000000002930000000000000000000298000000253400
0202LOTE PADRAO                   TELE CL SUL ON * EJ    TCSL3       010VISTA          000000000002600000000026000000000260000000000000000000026000008221800
0202LOTE PADRAO                   ITAUSA      PN         ITSA4       010VISTA          000000000002100000000021000000000200000000000000000000021000000099200
0202LOTE PADRAO                   V C P       PN *       VCPA4       010VISTA          000000000100000000001039000000010000000000000000000001039000003161500
0202LOTE PADRAO                   SID TUBARAO PN *       CSTB4       010VISTA          000000000029000000000293000000002830000000000000000000290000005157400
0202LOTE PADRAO                   BRADESPAR   PN *       BRAP4       010VISTA          000000000000600000000006100000000059000000000000000000006100082974200
0202LOTE PADRAO                   NET         PN         PLIM4       010VISTA          000000000000340000000003500000000033000000000000000000003400000607800
0202LOTE PADRAO                   TELE CTR OESPN * EJ    TCOC4       010VISTA          000000000004300000000044000000000430000000000000000000044000068129900
0202LOTE PADRAO                   TELEMAR N L PNA* EJ    TMAR5       010VISTA          000000000051500000000517000000005075000000000000000000510000010782400
0202LOTE PADRAO                   GERDAU      PN * EJ    GGBR4       010VISTA          000000000031100000000318000000003110000000000000000000317000023444100
0202LOTE PADRAO                   BRASIL      ON *       BBAS3       010VISTA          000000000012500000000125000000001200000000000000000000125000003284800
