00BDIN9999BOVESPA 99992002030520020305
0101IBOVESPA                      0144550140110144820000000000000000002002030500000020020305014011000000
0202LOTE PADRAO                   EMBRATEL PARPN *       EBTP4       010VISTA          000000000009000000000090000000000880000000000000000000088000111731000
0202LOTE PADRAO                   EMBRATEL PARON *       EBTP3       010VISTA          000000000010750000000111000000001050000000000000000000105000014845000
0202LOTE PADRAO                   TRAN PAULISTPN * EJ    TRPL4       010VISTA          000000000007700000000078000000000760000000000000000000076000014736900
0202LOTE PADRAO                   TELEMAR     PN * EJ    TNLP4       010VISTA          000000000036200000000365000000003390000000000000000000339000464027000
0202LOTE PADRAO                   ITAUBANCO   PN * EJ    ITAU4       010VISTA          000000000195900000001965000000018600000000000000000001870000019877100
0202LOTE PADRAO                   TELEMAR     ON * EJ    TNLP3       010VISTA          000000000031100000000320000000003000000000000000000000300000009922500
0202LOTE PADRAO                   SID NACIONALON *       CSNA3       010VISTA          000000000042500000000430000000004150000000000000000000415000007851100
0202LOTE PADRAO                   TELE LEST CLPN *       TLCP4       010VISTA          000000000000910000000009100000000087000000000000000000008700137508000
0202LOTE PADRAO                   CRT CELULAR PNA* EJ    CRTP5       010VISTA          000000000480000000004880000000047500000000000000000004780000000519000
0202LOTE PADRAO                   IPIRANGA PETPN *       PTIP4       010VISTA          000000000014500000000145000000001400000000000000000000140000003292700
0202LOTE PADRAO                   BRASIL T PARPN *       BRTP4       010VISTA          000000000019800000000198000000001900000000000000000000190000066107900
0202LOTE PADRAO                   BRASIL T PARON *       BRTP3       010VISTA          000000000020000000000200000000001910000000000000000000193000006323700
0202LOTE PADRAO                   KLABIN S/A  PN         KLBN4       010VISTA          000000000001200000000012000000000127000000000000000000012700000029700
0202LOTE PADRAO                   ACESITA     PN *       ACES4       010VISTA          000000000000730000000007400000000071000000000000000000007100108122000
0202LOTE PADRAO                   PETROBRAS   PN         PETR4       010VISTA          000000000058000000000587000000005680000000000000000000570000000148800
0202LOTE PADRAO                   ELETROBRAS  PNB*       ELET6       010VISTA          000000000036200000000365000000003550000000000000000000355000039949300
0202LOTE PADRAO                   PETROBRAS   ON         PETR3       010VISTA          000000000061000000000613000000005970000000000000000000597000000060800
0202LOTE PADRAO                   COMGAS      PNA*       CGAS5       010VISTA          000000000092900000000929000000009000000000000000000000900000000845100
0202LOTE PADRAO                   SOUZA CRUZ  ON EJ      CRUZ3       010VISTA          000000000016000000000160000000001530000000000000000000154000000019900
0202LOTE PADRAO                   ELETROBRAS  ON *       ELET3       010VISTA          000000000041400000000415000000004020000000000000000000402000023685400
0202LOTE PADRAO                   CELESC      PNB        CLSC6       010VISTA          000000000000590000000006100000000058000000000000000000005900000263900
0202LOTE PADRAO                   BRADESCO    PN * EJ    BBDC4       010VISTA          000000000013700000000138000000001325000000000000000000134000201907000
0202LOTE PADRAO                   CESP        PN *       CESP4       010VISTA          000000000015750000000158000000001540000000000000000000155000005416300
0202LOTE PADRAO                   LIGHT       ON *       LIGH3       010VISTA          000000000123000000001247000000012100000000000000000001210000000336500
0202LOTE PADRAO                   TELESP CL PAPN *       TSPP4       010VISTA          000000000007800000000079000000000760000000000000000000076000259324000
0202LOTE PADRAO                   VALE R DOCE PNA        VALE5       010VISTA          000000000063100000000650000000006200000000000000000000642000000144200
0202LOTE PADRAO                   COPEL       PNB*       CPLE6       010VISTA          000000000018800000000188000000001830000000000000000000184000026664000
0202LOTE PADRAO                   VALE R DOCE ON         VALE3       010VISTA          000000000064700000000660000000006450000000000000000000657000000036400
0202LOTE PADRAO                   ARACRUZ     PNB        ARCZ6       010VISTA          000000000004800000000048000000000460000000000000000000046000000031600
0202LOTE PADRAO                   TELEMIG PARTPN *       TMCP4       010VISTA          000000000003770000000038000000000370000000000000000000037000108816000
0202LOTE PADRAO                   BRASIL TELECPN *       BRTO4       010VISTA          000000000014100000000142500000001360000000000000000000136000070787200
0202LOTE PADRAO                   SABESP      ON *       SBSP3       010VISTA          000000000138500000001399000000013600000000000000000001369000003710000
0202LOTE PADRAO                   BRASKEM     PNA*       BRKM5       010VISTA          000000000555000000005800000000055500000000000000000005550000000184100
0202LOTE PADRAO                   EMBRAER     PN EJ      EMBR4       010VISTA          000000000011800000000121000000001170000000000000000000120000000073600
0202LOTE PADRAO                   TELESP      PN * EJ    TLPP4       010VISTA          000000000034000000000347000000003360000000000000000000340000016715400
0202LOTE PADRAO                   EMBRAER     ON EJ      EMBR3       010VISTA          000000000011000000000114000000001100000000000000000000113000000017900
0202LOTE PADRAO                   AMBEV       PN *       AMBV4       010VISTA          000000000483000000004830000000044500000000000000000004500000017092700
0202LOTE PADRAO                   USIMINAS    PNA        USIM5       010VISTA          000000000007500000000076000000000740000000000000000000075000000071900
0202LOTE PADRAO                   ELETROPAULO PN *       ELPL4       010VISTA          000000000067000000000677000000006700000000000000000000671000001814100
0202LOTE PADRAO                   TELE NORD CLPN *       TNEP4       010VISTA          000000000003200000000032000000000300000000000000000000030000106901000
0202LOTE PADRAO                   CEMIG       PN * EJ    CMIG4       010VISTA          000000000038200000000383000000003740000000000000000000378000030822000
0202LOTE PADRAO                   TELE CL SUL PN * EJ    TCSL4       010VISTA          000000000003300000000034000000000330000000000000000000033000098591800
0202LOTE PADRAO                   CEMIG       ON * EJ    CMIG3       010VISTA          000000000034400000000344000000003350000000000000000000337000000580500
0202LOTE PADRAO                   TELE CL SUL ON * EJ    TCSL3       010VISTA          000000000003000000000031000000000300000000000000000000030000026435700
0202LOTE PADRAO                   ITAUSA      PN         ITSA4       010VISTA          000000000002300000000024000000000225000000000000000000022000000570000
0202LOTE PADRAO                   V C P       PN *       VCPA4       010VISTA          000000000086000000000867000000008400000000000000000000867000000750100
0202LOTE PADRAO                   SID TUBARAO PN *       CSTB4       010VISTA          000000000025300000000256000000002510000000000000000000252000006744800
0202LOTE PADRAO                   BRADESPAR   PN *       BRAP4       010VISTA          000000000000820000000008300000000080000000000000000000008000269086000
0202LOTE PADRAO                   NET         PN         PLIM4       010VISTA          000000000000730000000007500000000070000000000000000000007000001846200
0202LOTE PADRAO                   TELE CTR OESPN * EJ    TCOC4       010VISTA          000000000005300000000054000000000510000000000000000000052000056913500
0202LOTE PADRAO                   TELEMAR N L PNA* EJ    TMAR5       010VISTA          000000000062000000000620000000005820000000000000000000582000014266200
0202LOTE PADRAO                   GERDAU      PN * EJ    GGBR4       010VISTA          000000000026600000000266000000002630000000000000000000265000016553200
0202LOTE PADRAO                   BRASIL      ON *       BBAS3       010VISTA          000000000011000000000112000000001080000000000000000000108000006652400
