00BDIN9999BOVESPA 99992002012820020128
0101IBOVESPA                      0131610129900132150000000000000000002002012800000020020128013002000000
0202LOTE PADRAO                   EMBRATEL PARPN *       EBTP4       010VISTA          000000000009600000000097500000000910000000000000000000091000077883000
0202LOTE PADRAO                   EMBRATEL PARON *       EBTP3       010VISTA          000000000011000000000110000000001080000000000000000000108000016720500
0202LOTE PADRAO                   TRAN PAULISTPN * EJ    TRPL4       010VISTA          000000000006900000000070000000000670000000000000000000067000007558500
0202LOTE PADRAO                   TELEMAR     PN * EJ    TNLP4       010VISTA          000000000034200000000346000000003360000000000000000000337000204490000
0202LOTE PADRAO                   ITAUBANCO   PN * EJ    ITAU4       010VISTA          000000000177000000001775000000017500000000000000000001750000007340900
0202LOTE PADRAO                   TELEMAR     ON * EJ    TNLP3       010VISTA          000000000030000000000300000000002900000000000000000000291000010984000
0202LOTE PADRAO                   SID NACIONALON *       CSNA3       010VISTA          000000000040000000000404000000003920000000000000000000393000007255800
0202LOTE PADRAO                   TELE LEST CLPN *       TLCP4       010VISTA          000000000000880000000009000000000086000000000000000000008700149026000
0202LOTE PADRAO                   CRT CELULAR PNA* EJ    CRTP5       010VISTA          000000000472000000004750000000047000000000000000000004700000000310500
0202LOTE PADRAO                   IPIRANGA PETPN *       PTIP4       010VISTA          000000000012100000000125000000001210000000000000000000122000001206200
0202LOTE PADRAO                   BRASIL T PARPN *       BRTP4       010VISTA          000000000017600000000178000000001730000000000000000000174000069992300
0202LOTE PADRAO                   BRASIL T PARON *       BRTP3       010VISTA          000000000017600000000178000000001700000000000000000000175000003508800
0202LOTE PADRAO                   KLABIN S/A  PN         KLBN4       010VISTA          000000000001100000000012000000000110000000000000000000011000000073300
0202LOTE PADRAO                   ACESITA     PN *       ACES4       010VISTA          000000000000680000000006900000000064000000000000000000006400152602000
0202LOTE PADRAO                   PETROBRAS   PN         PETR4       010VISTA          000000000048500000000485000000004830000000000000000000485000000105800
0202LOTE PADRAO                   ELETROBRAS  PNB*       ELET6       010VISTA          000000000029000000000293000000002860000000000000000000287000049946300
0202LOTE PADRAO                   PETROBRAS   ON         PETR3       010VISTA          000000000049000000000502000000004880000000000000000000501000000048100
0202LOTE PADRAO                   COMGAS      PNA*       CGAS5       010VISTA          000000000091000000000910000000008600000000000000000000865000000434500
0202LOTE PADRAO                   SOUZA CRUZ  ON EJ      CRUZ3       010VISTA          000000000014750000000147500000001440000000000000000000145000000007200
0202LOTE PADRAO                   ELETROBRAS  ON *       ELET3       010VISTA          000000000031800000000326000000003160000000000000000000322000013427200
0202LOTE PADRAO                   CELESC      PNB        CLSC6       010VISTA          000000000000540000000005400000000050000000000000000000005100000168400
0202LOTE PADRAO                   BRADESCO    PN * EJ    BBDC4       010VISTA          000000000012300000000124000000001220000000000000000000123000127663000
0202LOTE PADRAO                   CESP        PN *       CESP4       010VISTA          000000000015200000000152000000001440000000000000000000146000008917400
0202LOTE PADRAO                   LIGHT       ON *       LIGH3       010VISTA          000000000120000000001200000000011500000000000000000001150000000405600
0202LOTE PADRAO                   TELESP CL PAPN *       TSPP4       010VISTA          000000000007600000000076000000000730000000000000000000073000127583000
0202LOTE PADRAO                   VALE R DOCE PNA        VALE5       010VISTA          000000000054800000000565000000005450000000000000000000565000000036100
0202LOTE PADRAO                   COPEL       PNB*       CPLE6       010VISTA          000000000016000000000163000000001590000000000000000000159000063824500
0202LOTE PADRAO                   ARACRUZ     PNB        ARCZ6       010VISTA          000000000004000000000041000000000400000000000000000000041000000021500
0202LOTE PADRAO                   TELEMIG PARTPN *       TMCP4       010VISTA          000000000003900000000039800000000370000000000000000000038000065738600
0202LOTE PADRAO                   BRASIL TELECPN *       BRTO4       010VISTA          000000000013000000000130000000001260000000000000000000126000067499600
0202LOTE PADRAO                   SABESP      ON *       SBSP3       010VISTA          000000000134800000001348000000012960000000000000000001300000001853000
0202LOTE PADRAO                   BRASKEM     PNA*       BRKM5       010VISTA          000000000576000000005900000000057100000000000000000005710000000197600
0202LOTE PADRAO                   EMBRAER     PN EJ      EMBR4       010VISTA          000000000012600000000131000000001250000000000000000000131000000048800
0202LOTE PADRAO                   TELESP      PN * EJ    TLPP4       010VISTA          000000000030500000000305000000002990000000000000000000299000005526400
0202LOTE PADRAO                   EMBRAER     ON EJ      EMBR3       010VISTA          000000000011800000000120000000001160000000000000000000120000000030600
0202LOTE PADRAO                   AMBEV       PN *       AMBV4       010VISTA          000000000473000000004791000000047100000000000000000004750000001980700
0202LOTE PADRAO                   USIMINAS    PNA        USIM5       010VISTA          000000000007000000000070000000000680000000000000000000069000000057400
0202LOTE PADRAO                   ELETROPAULO PN *       ELPL4       010VISTA          000000000079500000000795000000007590000000000000000000779000002423500
0202LOTE PADRAO                   TELE NORD CLPN *       TNEP4       010VISTA          000000000003100000000031000000000300000000000000000000030000071203000
0202LOTE PADRAO                   CEMIG       PN * EJ    CMIG4       010VISTA          000000000034000000000340000000003270000000000000000000330000047811400
0202LOTE PADRAO                   TELE CL SUL PN * EJ    TCSL4       010VISTA          000000000003400000000034000000000327000000000000000000032000064969800
0202LOTE PADRAO                   CEMIG       ON * EJ    CMIG3       010VISTA          000000000029500000000298000000002900000000000000000000290000001686900
0202LOTE PADRAO                   TELE CL SUL ON * EJ    TCSL3       010VISTA          000000000002800000000029800000000270000000000000000000028100012114400
0202LOTE PADRAO                   ITAUSA      PN         ITSA4       010VISTA          000000000002200000000022000000000210000000000000000000021000000196000
0202LOTE PADRAO                   V C P       PN *       VCPA4       010VISTA          000000000077900000000790000000007790000000000000000000785000000796600
0202LOTE PADRAO                   SID TUBARAO PN *       CSTB4       010VISTA          000000000022600000000226000000002150000000000000000000216000003280000
0202LOTE PADRAO                   BRADESPAR   PN *       BRAP4       010VISTA          000000000000770000000007800000000074000000000000000000007500181576000
0202LOTE PADRAO                   NET         PN         PLIM4       010VISTA          000000000000680000000006900000000064000000000000000000006500000591700
0202LOTE PADRAO                   TELE CTR OESPN * EJ    TCOC4       010VISTA          000000000005000000000050000000000480000000000000000000048000118854000
0202LOTE PADRAO                   TELEMAR N L PNA* EJ    TMAR5       010VISTA          000000000058500000000587000000005670000000000000000000568000023339000
0202LOTE PADRAO                   GERDAU      PN * EJ    GGBR4       010VISTA          000000000024000000000250000000002400000000000000000000249000034096200
0202LOTE PADRAO                   BRASIL      ON *       BBAS3       010VISTA          000000000009900000000099000000000950000000000000000000095000003110900
