00BDIN9999BOVESPA 99992002091720020917
0101IBOVESPA                      0098550096130099430000000000000000002002091700000020020917009650000000
0202LOTE PADRAO                   EMBRATEL PARPN *       EBTP4       010VISTA          000000000002400000000024000000000220000000000000000000022000219716000
0202LOTE PADRAO                   TRAN PAULISTPN * EJ    TRPL4       010VISTA          000000000005400000000054000000000510000000000000000000051000005245700
0202LOTE PADRAO                   EMBRATEL PARON *       EBTP3       010VISTA          000000000003100000000032000000000290000000000000000000030000036852600
0202LOTE PADRAO                   TELEMAR     PN * EJ    TNLP4       010VISTA          000000000025000000000250000000002400000000000000000000243000185756000
0202LOTE PADRAO                   ITAUBANCO   PN * EJ    ITAU4       010VISTA          000000000137000000001370000000013000000000000000000001315000011503000
0202LOTE PADRAO                   TELEMAR     ON * EJ    TNLP3       010VISTA          000000000019000000000193000000001810000000000000000000183000015447000
0202LOTE PADRAO                   SID NACIONALON *       CSNA3       010VISTA          000000000037000000000377000000003670000000000000000000367000005626400
0202LOTE PADRAO                   TELE LEST CLPN *       TLCP4       010VISTA          000000000000420000000004200000000040000000000000000000004000165635000
0202LOTE PADRAO                   CRT CELULAR PNA* EJ    CRTP5       010VISTA          000000000370000000003700000000035500000000000000000003562000000251800
0202LOTE PADRAO                   IPIRANGA PETPN *       PTIP4       010VISTA          000000000010000000000100000000000980000000000000000000099000000820000
0202LOTE PADRAO                   BRASIL T PARPN *       BRTP4       010VISTA          000000000018600000000188000000001810000000000000000000183000052743800
0202LOTE PADRAO                   BRASIL T PARON *       BRTP3       010VISTA          000000000013800000000141000000001340000000000000000000135000008404400
0202LOTE PADRAO                   KLABIN S/A  PN         KLBN4       010VISTA          000000000000900000000009000000000087000000000000000000008800000026100
0202LOTE PADRAO                   ACESITA     PN *       ACES4       010VISTA          000000000000630000000006300000000060000000000000000000006000112647000
0202LOTE PADRAO                   PETROBRAS   PN         PETR4       010VISTA          000000000046300000000465000000004470000000000000000000450000000092600
0202LOTE PADRAO                   ELETROBRAS  PNB*       ELET6       010VISTA          000000000019300000000193000000001860000000000000000000186000048352300
0202LOTE PADRAO                   PETROBRAS   ON         PETR3       010VISTA          000000000052500000000525000000004970000000000000000000497000000022300
0202LOTE PADRAO                   COMGAS      PNA*       CGAS5       010VISTA          000000000061300000000613000000005800000000000000000000589000000498700
0202LOTE PADRAO                   SOUZA CRUZ  ON EJ      CRUZ3       010VISTA          000000000015100000000154000000001480000000000000000000151000000007600
0202LOTE PADRAO                   ELETROBRAS  ON *       ELET3       010VISTA          000000000019300000000197500000001900000000000000000000190000017504000
0202LOTE PADRAO                   CELESC      PNB        CLSC6       010VISTA          000000000000550000000005600000000052000000000000000000005300000244200
0202LOTE PADRAO                   BRADESCO    PN * EJ    BBDC4       010VISTA          000000000009600000000096000000000920000000000000000000092000250951000
0202LOTE PADRAO                   CESP        PN *       CESP4       010VISTA          000000000006800000000070000000000650000000000000000000065000005075200
0202LOTE PADRAO                   LIGHT       ON *       LIGH3       010VISTA          000000000059000000000600000000005800000000000000000000583000000585700
0202LOTE PADRAO                   TELESP CL PAPN *       TSPP4       010VISTA          000000000003500000000035000000000330000000000000000000033000273746000
0202LOTE PADRAO                   VALE R DOCE PNA        VALE5       010VISTA          000000000074500000000750000000007350000000000000000000750000000010600
0202LOTE PADRAO                   COPEL       PNB*       CPLE6       010VISTA          000000000009400000000094000000000900000000000000000000090000065296600
0202LOTE PADRAO                   VALE R DOCE ON         VALE3       010VISTA          000000000080500000000812500000007990000000000000000000799000000004800
0202LOTE PADRAO                   ARACRUZ     PNB        ARCZ6       010VISTA          000000000005500000000055000000000510000000000000000000052000000069500
0202LOTE PADRAO                   TELEMIG PARTPN *       TMCP4       010VISTA          000000000002800000000028000000000270000000000000000000027000043006800
0202LOTE PADRAO                   BRASIL TELECPN *       BRTO4       010VISTA          000000000011750000000118000000001110000000000000000000115000076725700
0202LOTE PADRAO                   SABESP      ON *       SBSP3       010VISTA          000000000084000000000862000000008370000000000000000000854000003716500
0202LOTE PADRAO                   BRASKEM     PNA*       BRKM5       010VISTA          000000000277000000002819000000026670000000000000000002670000000088500
0202LOTE PADRAO                   EMBRAER     PN EJ      EMBR4       010VISTA          000000000013100000000131000000001290000000000000000000130000000037300
0202LOTE PADRAO                   TELESP      PN * EJ    TLPP4       010VISTA          000000000032700000000327000000003160000000000000000000322000007141900
0202LOTE PADRAO                   EMBRAER     ON EJ      EMBR3       010VISTA          000000000012000000000121000000001180000000000000000000120000000034000
0202LOTE PADRAO                   AMBEV       PN *       AMBV4       010VISTA          000000000429500000004320000000042500000000000000000004300000000853200
0202LOTE PADRAO                   USIMINAS    PNA        USIM5       010VISTA          000000000005400000000054000000000530000000000000000000053000000038800
0202LOTE PADRAO                   ELETROPAULO PN *       ELPL4       010VISTA          000000000030500000000305000000002960000000000000000000301000002838200
0202LOTE PADRAO                   TELE NORD CLPN *       TNEP4       010VISTA          000000000002400000000024800000000240000000000000000000024000076084800
0202LOTE PADRAO                   CEMIG       PN * EJ    CMIG4       010VISTA          000000000024700000000248000000002330000000000000000000236000045029000
0202LOTE PADRAO                   TELE CL SUL PN * EJ    TCSL4       010VISTA          000000000002710000000027000000000260000000000000000000026000083652300
0202LOTE PADRAO                   TRACTEBEL   ON *       TBLE3       010VISTA          000000000004000000000040000000000380000000000000000000038000026615100
0202LOTE PADRAO                   CEMIG       ON * EJ    CMIG3       010VISTA          000000000024250000000242500000002240000000000000000000224000004399000
0202LOTE PADRAO                   TELE CL SUL ON * EJ    TCSL3       010VISTA          000000000002200000000022000000000200000000000000000000020000011394200
0202LOTE PADRAO                   ITAUSA      PN         ITSA4       010VISTA          000000000001600000000016000000000160000000000000000000016000000381500
0202LOTE PADRAO                   V C P       PN *       VCPA4       010VISTA          000000000101000000001010000000009800000000000000000000980000004235900
0202LOTE PADRAO                   SID TUBARAO PN *       CSTB4       010VISTA          000000000026000000000263000000002510000000000000000000259000020948700
0202LOTE PADRAO                   BRADESPAR   PN *       BRAP4       010VISTA          000000000000470000000004700000000045000000000000000000004500107833000
0202LOTE PADRAO                   NET         PN         PLIM4       010VISTA          000000000000400000000004000000000038000000000000000000003800000491800
0202LOTE PADRAO                   TELE CTR OESPN * EJ    TCOC4       010VISTA          000000000003300000000035000000000330000000000000000000033000141152000
0202LOTE PADRAO                   TELEMAR N L PNA* EJ    TMAR5       010VISTA          000000000041500000000430000000004150000000000000000000417000019465500
0202LOTE PADRAO                   GERDAU      PN * EJ    GGBR4       010VISTA          000000000032500000000325000000003120000000000000000000317000019740900
0202LOTE PADRAO                   BRASIL      ON *       BBAS3       010VISTA          000000000009800000000098000000000940000000000000000000094000031227700
