00BDIN9999BOVESPA 99992002122320021223
0101IBOVESPA                      0114930113840116480000000000000000002002122300000020021223011470000000
0202LOTE PADRAO                   EMBRATEL PARPN *       EBTP4       010VISTA          000000000004100000000044000000000410000000000000000000044000343668000
0202LOTE PADRAO                   TRAN PAULISTPN * EJ    TRPL4       010VISTA          000000000006000000000060000000000590000000000000000000059000014071300
0202LOTE PADRAO                   EMBRATEL PARON *       EBTP3       010VISTA          000000000004600000000048000000000460000000000000000000047000064153800
0202LOTE PADRAO                   TELEMAR     PN * EJ    TNLP4       010VISTA          000000000028100000000284000000002780000000000000000000280000123273000
0202LOTE PADRAO                   ITAUBANCO   PN * EJ    ITAU4       010VISTA          000000000171900000001750000000017000000000000000000001700000008291600
0202LOTE PADRAO                   TELEMAR     ON * EJ    TNLP3       010VISTA          000000000020300000000206000000002000000000000000000000203000023438500
0202LOTE PADRAO                   SID NACIONALON *       CSNA3       010VISTA          000000000050300000000503000000004825000000000000000000483000011473800
0202LOTE PADRAO                   TELE LEST CLPN *       TLCP4       010VISTA          000000000000460000000004600000000045000000000000000000004500168898000
0202LOTE PADRAO                   CRT CELULAR PNA* EJ    CRTP5       010VISTA          000000000320000000003300000000031100000000000000000003170000000597300
0202LOTE PADRAO                   IPIRANGA PETPN *       PTIP4       010VISTA          000000000007400000000074000000000730000000000000000000074000002772900
0202LOTE PADRAO                   BRASIL T PARPN *       BRTP4       010VISTA          000000000019300000000193000000001860000000000000000000186000057908200
0202LOTE PADRAO                   BRASIL T PARON *       BRTP3       010VISTA          000000000014500000000145000000001390000000000000000000141000016157800
0202LOTE PADRAO                   KLABIN S/A  PN         KLBN4       010VISTA          000000000001000000000010000000000100000000000000000000010000000018100
0202LOTE PADRAO                   ACESITA     PN *       ACES4       010VISTA          000000000000970000000010000000000097000000000000000000009800588310000
0202LOTE PADRAO                   PETROBRAS   PN         PETR4       010VISTA          000000000048700000000501000000004810000000000000000000487000000088800
0202LOTE PADRAO                   ELETROBRAS  PNB*       ELET6       010VISTA          000000000024500000000248000000002380000000000000000000238000047115700
0202LOTE PADRAO                   PETROBRAS   ON         PETR3       010VISTA          000000000055000000000557000000005400000000000000000000542000000019300
0202LOTE PADRAO                   COMGAS      PNA*       CGAS5       010VISTA          000000000055200000000560000000005370000000000000000000537000000821600
0202LOTE PADRAO                   SOUZA CRUZ  ON EJ      CRUZ3       010VISTA          000000000018000000000180000000001730000000000000000000179000000006900
0202LOTE PADRAO                   ELETROBRAS  ON *       ELET3       010VISTA          000000000025000000000250000000002400000000000000000000240000009772200
0202LOTE PADRAO                   CELESC      PNB        CLSC6       010VISTA          000000000000540000000005500000000052000000000000000000005400000121900
0202LOTE PADRAO                   BRADESCO    PN * EJ    BBDC4       010VISTA          000000000010900000000110000000001050000000000000000000106000172050000
0202LOTE PADRAO                   CESP        PN *       CESP4       010VISTA          000000000007400000000075000000000710000000000000000000072000007259200
0202LOTE PADRAO                   LIGHT       ON *       LIGH3       010VISTA          000000000047000000000471000000004550000000000000000000455000000278400
0202LOTE PADRAO                   TELESP CL PAPN *       TSPP4       010VISTA          000000000004400000000045000000000420000000000000000000043000239053000
0202LOTE PADRAO                   VALE R DOCE PNA        VALE5       010VISTA          000000000094000000000974000000009400000000000000000000965000000011800
0202LOTE PADRAO                   COPEL       PNB*       CPLE6       010VISTA          000000000010400000000106000000000960000000000000000000098000052900300
0202LOTE PADRAO                   VALE R DOCE ON         VALE3       010VISTA          000000000098200000001010000000009810000000000000000001001000000005500
0202LOTE PADRAO                   ARACRUZ     PNB        ARCZ6       010VISTA          000000000006300000000065000000000630000000000000000000065000000023100
0202LOTE PADRAO                   TELEMIG PARTPN *       TMCP4       010VISTA          000000000003000000000031000000000290000000000000000000030000102753000
0202LOTE PADRAO                   BRASIL TELECPN *       BRTO4       010VISTA          000000000012100000000121000000001150000000000000000000116000085847700
0202LOTE PADRAO                   SABESP      ON *       SBSP3       010VISTA          000000000088500000000888000000008600000000000000000000872000003304500
0202LOTE PADRAO                   BRASKEM     PNA*       BRKM5       010VISTA          000000000240000000002448000000022100000000000000000002350000000114500
0202LOTE PADRAO                   EMBRAER     PN EJ      EMBR4       010VISTA          000000000013800000000138000000001340000000000000000000136000000043100
0202LOTE PADRAO                   TELESP      PN * EJ    TLPP4       010VISTA          000000000035100000000352000000003370000000000000000000343000010009500
0202LOTE PADRAO                   EMBRAER     ON EJ      EMBR3       010VISTA          000000000012500000000125000000001200000000000000000000123000000008500
0202LOTE PADRAO                   AMBEV       PN *       AMBV4       010VISTA          000000000540000000005460000000053600000000000000000005360000000975100
0202LOTE PADRAO                   USIMINAS    PNA        USIM5       010VISTA          000000000006200000000065000000000620000000000000000000064000000068900
0202LOTE PADRAO                   ELETROPAULO PN *       ELPL4       010VISTA          000000000027200000000272000000002620000000000000000000268000007519500
0202LOTE PADRAO                   TELE NORD CLPN *       TNEP4       010VISTA          000000000002700000000027900000000270000000000000000000027000068500700
0202LOTE PADRAO                   CEMIG       PN * EJ    CMIG4       010VISTA          000000000027300000000276000000002680000000000000000000268000029138800
0202LOTE PADRAO                   TELE CL SUL PN * EJ    TCSL4       010VISTA          000000000002810000000028100000000260000000000000000000027500050275800
0202LOTE PADRAO                   TRACTEBEL   ON *       TBLE3       010VISTA          000000000003600000000036000000000340000000000000000000035400004386300
0202LOTE PADRAO                   CEMIG       ON * EJ    CMIG3       010VISTA          000000000024100000000243000000002350000000000000000000235000000737700
0202LOTE PADRAO                   TELE CL SUL ON * EJ    TCSL3       010VISTA          000000000002000000000020000000000194000000000000000000019400016367400
0202LOTE PADRAO                   ITAUSA      PN         ITSA4       010VISTA          000000000001900000000019000000000180000000000000000000018000000202400
0202LOTE PADRAO                   V C P       PN *       VCPA4       010VISTA          000000000118000000001195000000011660000000000000000001186000000751300
0202LOTE PADRAO                   SID TUBARAO PN *       CSTB4       010VISTA          000000000037700000000390000000003770000000000000000000385000006786400
0202LOTE PADRAO                   BRADESPAR   PN *       BRAP4       010VISTA          000000000000580000000005800000000054000000000000000000005500338834000
0202LOTE PADRAO                   NET         PN         PLIM4       010VISTA          000000000000420000000004400000000042000000000000000000004400000681500
0202LOTE PADRAO                   TELE CTR OESPN * EJ    TCOC4       010VISTA          000000000004800000000049000000000470000000000000000000048000058121500
0202LOTE PADRAO                   TELEMAR N L PNA* EJ    TMAR5       010VISTA          000000000045500000000460000000004390000000000000000000445000040411100
0202LOTE PADRAO                   GERDAU      PN * EJ    GGBR4       010VISTA          000000000033700000000337000000003220000000000000000000326000009740700
0202LOTE PADRAO                   BRASIL      ON *       BBAS3       010VISTA          000000000010100000000101000000000970000000000000000000098000040469800
