00BDIN9999BOVESPA 99992002110420021104
0101IBOVESPA                      0101470099130103780000000000000000002002110400000020021104009913000000
0202LOTE PADRAO                   EMBRATEL PARPN *       EBTP4       010VISTA          000000000002300000000023000000000220000000000000000000022000194564000
0202LOTE PADRAO                   TRAN PAULISTPN * EJ    TRPL4       010VISTA          000000000005400000000055000000000510000000000000000000051000012912000
0202LOTE PADRAO                   EMBRATEL PARON *       EBTP3       010VISTA          000000000002810000000028000000000260000000000000000000026000036061400
0202LOTE PADRAO                   TELEMAR     PN * EJ    TNLP4       010VISTA          000000000025200000000258000000002450000000000000000000245000371610000
0202LOTE PADRAO                   ITAUBANCO   PN * EJ    ITAU4       010VISTA          000000000159500000001605000000014950000000000000000001519000019576600
0202LOTE PADRAO                   TELEMAR     ON * EJ    TNLP3       010VISTA          000000000019000000000190000000001780000000000000000000178000014766600
0202LOTE PADRAO                   SID NACIONALON *       CSNA3       010VISTA          000000000038600000000390000000003740000000000000000000382000010659100
0202LOTE PADRAO                   TELE LEST CLPN *       TLCP4       010VISTA          000000000000410000000004300000000040000000000000000000004000341009000
0202LOTE PADRAO                   CRT CELULAR PNA* EJ    CRTP5       010VISTA          000000000350000000003550000000034100000000000000000003410000000954300
0202LOTE PADRAO                   IPIRANGA PETPN *       PTIP4       010VISTA          000000000008400000000088000000000840000000000000000000084000010521100
0202LOTE PADRAO                   BRASIL T PARPN *       BRTP4       010VISTA          000000000020500000000208000000001910000000000000000000191000103228000
0202LOTE PADRAO                   BRASIL T PARON *       BRTP3       010VISTA          000000000015300000000155000000001430000000000000000000144000008519100
0202LOTE PADRAO                   KLABIN S/A  PN         KLBN4       010VISTA          000000000000910000000009300000000090000000000000000000009100000038700
0202LOTE PADRAO                   ACESITA     PN *       ACES4       010VISTA          000000000000720000000007200000000069000000000000000000006900076668800
0202LOTE PADRAO                   PETROBRAS   PN         PETR4       010VISTA          000000000045000000000455000000004270000000000000000000428000000123300
0202LOTE PADRAO                   ELETROBRAS  PNB*       ELET6       010VISTA          000000000019300000000196000000001850000000000000000000186000058630800
0202LOTE PADRAO                   PETROBRAS   ON         PETR3       010VISTA          000000000048800000000494000000004630000000000000000000465000000040000
0202LOTE PADRAO                   COMGAS      PNA*       CGAS5       010VISTA          000000000058400000000593000000005650000000000000000000565000000754900
0202LOTE PADRAO                   SOUZA CRUZ  ON EJ      CRUZ3       010VISTA          000000000018600000000191000000001840000000000000000000184000000015800
0202LOTE PADRAO                   ELETROBRAS  ON *       ELET3       010VISTA          000000000020600000000208000000001930000000000000000000206000017649600
0202LOTE PADRAO                   CELESC      PNB        CLSC6       010VISTA          000000000000510000000005200000000050000000000000000000005000000115100
0202LOTE PADRAO                   BRADESCO    PN * EJ    BBDC4       010VISTA          000000000009600000000098000000000910000000000000000000092000223466000
0202LOTE PADRAO                   CESP        PN *       CESP4       010VISTA          000000000006600000000066000000000620000000000000000000062000009443000
0202LOTE PADRAO                   LIGHT       ON *       LIGH3       010VISTA          000000000057200000000587000000005630000000000000000000563000000430400
0202LOTE PADRAO                   TELESP CL PAPN *       TSPP4       010VISTA          000000000004000000000040000000000377000000000000000000037700518797000
0202LOTE PADRAO                   VALE R DOCE PNA        VALE5       010VISTA          000000000092400000000927000000009000000000000000000000906000000012000
0202LOTE PADRAO                   COPEL       PNB*       CPLE6       010VISTA          000000000008300000000086000000000800000000000000000000081000118072000
0202LOTE PADRAO                   VALE R DOCE ON         VALE3       010VISTA          000000000093000000000952000000009300000000000000000000940000000012900
0202LOTE PADRAO                   ARACRUZ     PNB        ARCZ6       010VISTA          000000000005750000000059000000000570000000000000000000058000000028600
0202LOTE PADRAO                   TELEMIG PARTPN *       TMCP4       010VISTA          000000000003000000000030000000000280000000000000000000028000062206400
0202LOTE PADRAO                   BRASIL TELECPN *       BRTO4       010VISTA          000000000012500000000128000000001200000000000000000000120000113990000
0202LOTE PADRAO                   SABESP      ON *       SBSP3       010VISTA          000000000089000000000890000000008540000000000000000000865000004721400
0202LOTE PADRAO                   BRASKEM     PNA*       BRKM5       010VISTA          000000000236000000002486000000022500000000000000000002250000000159700
0202LOTE PADRAO                   EMBRAER     PN EJ      EMBR4       010VISTA          000000000014000000000141000000001340000000000000000000134000000062900
0202LOTE PADRAO                   TELESP      PN * EJ    TLPP4       010VISTA          000000000038000000000380000000003700000000000000000000376000007021000
0202LOTE PADRAO                   EMBRAER     ON EJ      EMBR3       010VISTA          000000000013250000000132000000001270000000000000000000127000000012500
0202LOTE PADRAO                   AMBEV       PN *       AMBV4       010VISTA          000000000530000000005325000000050600000000000000000005070000002099200
0202LOTE PADRAO                   USIMINAS    PNA        USIM5       010VISTA          000000000005500000000057000000000520000000000000000000052000000065600
0202LOTE PADRAO                   ELETROPAULO PN *       ELPL4       010VISTA          000000000026600000000270000000002460000000000000000000255000003093200
0202LOTE PADRAO                   TELE NORD CLPN *       TNEP4       010VISTA          000000000002540000000025000000000240000000000000000000024000071963200
0202LOTE PADRAO                   CEMIG       PN * EJ    CMIG4       010VISTA          000000000025100000000255000000002450000000000000000000248000036020100
0202LOTE PADRAO                   TELE CL SUL PN * EJ    TCSL4       010VISTA          000000000002900000000030000000000280000000000000000000028000126654000
0202LOTE PADRAO                   TRACTEBEL   ON *       TBLE3       010VISTA          000000000003480000000035000000000330000000000000000000033000024744100
0202LOTE PADRAO                   CEMIG       ON * EJ    CMIG3       010VISTA          000000000022300000000229000000002210000000000000000000225000000844900
0202LOTE PADRAO                   TELE CL SUL ON * EJ    TCSL3       010VISTA          000000000002300000000023000000000225000000000000000000022500019718700
0202LOTE PADRAO                   ITAUSA      PN         ITSA4       010VISTA          000000000001800000000018000000000175000000000000000000017500000580100
0202LOTE PADRAO                   V C P       PN *       VCPA4       010VISTA          000000000113400000001140000000011340000000000000000001135000003198200
0202LOTE PADRAO                   SID TUBARAO PN *       CSTB4       010VISTA          000000000036300000000369000000003600000000000000000000360000005193800
0202LOTE PADRAO                   BRADESPAR   PN *       BRAP4       010VISTA          000000000000480000000004900000000047000000000000000000004700182081000
0202LOTE PADRAO                   NET         PN         PLIM4       010VISTA          000000000000280000000002900000000027000000000000000000002700001187800
0202LOTE PADRAO                   TELE CTR OESPN * EJ    TCOC4       010VISTA          000000000003600000000037000000000340000000000000000000034000065051900
0202LOTE PADRAO                   TELEMAR N L PNA* EJ    TMAR5       010VISTA          000000000044700000000447000000004200000000000000000000428000037843300
0202LOTE PADRAO                   GERDAU      PN * EJ    GGBR4       010VISTA          000000000034900000000365000000003490000000000000000000352500022670300
0202LOTE PADRAO                   BRASIL      ON *       BBAS3       010VISTA          000000000010400000000105000000001000000000000000000000100000082414600
