00BDIN9999BOVESPA 99992002070220020702
0101IBOVESPA                      010891010711010908000000000000000000200207020000002002070201084698006400
0202LOTE PADRAO                   EMBRATEL PARPN *       EBTP4       010VISTA          000000000001800000000019800000000178000000000000000000018000486404000
0202LOTE PADRAO                   TRAN PAULISTPN * EJ    TRPL4       010VISTA          000000000005900000000062000000000590000000000000000000061000009051500
0202LOTE PADRAO                   EMBRATEL PARON *       EBTP3       010VISTA          000000000003100000000032000000000290000000000000000000029000040505900
0202LOTE PADRAO                   TELEMAR     PN * EJ    TNLP4       010VISTA          000000000027300000000273000000002660000000000000000000267000157162000
0202LOTE PADRAO                   ITAUBANCO   PN * EJ    ITAU4       010VISTA          000000000158000000001610000000015630000000000000000001610000007511600
0202LOTE PADRAO                   TELEMAR     ON * EJ    TNLP3       010VISTA          000000000022000000000220000000002160000000000000000000216000013349900
0202LOTE PADRAO                   SID NACIONALON *       CSNA3       010VISTA          000000000046250000000495000000004560000000000000000000495000018347600
0202LOTE PADRAO                   TELE LEST CLPN *       TLCP4       010VISTA          000000000000570000000005800000000056000000000000000000005700060698500
0202LOTE PADRAO                   CRT CELULAR PNA* EJ    CRTP5       010VISTA          000000000380000000003994000000037600000000000000000003980000000111000
0202LOTE PADRAO                   IPIRANGA PETPN *       PTIP4       010VISTA          000000000011500000000120000000001150000000000000000000119000000896900
0202LOTE PADRAO                   BRASIL T PARPN *       BRTP4       010VISTA          000000000015500000000155000000001480000000000000000000153000066170600
0202LOTE PADRAO                   BRASIL T PARON *       BRTP3       010VISTA          000000000013000000000140000000001300000000000000000000137000004315900
0202LOTE PADRAO                   KLABIN S/A  PN         KLBN4       010VISTA          000000000000890000000009200000000088000000000000000000009200000029100
0202LOTE PADRAO                   ACESITA     PN *       ACES4       010VISTA          000000000000600000000006200000000058000000000000000000006100215617000
0202LOTE PADRAO                   PETROBRAS   PN         PETR4       010VISTA          000000000047700000000480000000004650000000000000000000472000000088600
0202LOTE PADRAO                   ELETROBRAS  PNB*       ELET6       010VISTA          000000000027000000000270000000002630000000000000000000265000042546300
0202LOTE PADRAO                   PETROBRAS   ON         PETR3       010VISTA          000000000052600000000526000000005070000000000000000000516000000026100
0202LOTE PADRAO                   COMGAS      PNA*       CGAS5       010VISTA          000000000057200000000597000000005700000000000000000000597000000367000
0202LOTE PADRAO                   SOUZA CRUZ  ON EJ      CRUZ3       010VISTA          000000000013900000000142000000001380000000000000000000142500000001900
0202LOTE PADRAO                   ELETROBRAS  ON *       ELET3       010VISTA          000000000029600000000299000000002900000000000000000000294000029712200
0202LOTE PADRAO                   CELESC      PNB        CLSC6       010VISTA          000000000000590000000005900000000057000000000000000000005800000157700
0202LOTE PADRAO                   BRADESCO    PN * EJ    BBDC4       010VISTA          000000000011000000000110000000001080000000000000000000108000122105000
0202LOTE PADRAO                   CESP        PN *       CESP4       010VISTA          000000000008500000000087500000000850000000000000000000086000004110000
0202LOTE PADRAO                   LIGHT       ON *       LIGH3       010VISTA          000000000085400000000879000000008200000000000000000000856000000220100
0202LOTE PADRAO                   TELESP CL PAPN *       TSPP4       010VISTA          000000000003790000000039600000000370000000000000000000039000141916000
0202LOTE PADRAO                   VALE R DOCE PNA        VALE5       010VISTA          000000000072000000000722000000007130000000000000000000722000000017200
0202LOTE PADRAO                   COPEL       PNB*       CPLE6       010VISTA          000000000011000000000111000000001090000000000000000000110000065887600
0202LOTE PADRAO                   VALE R DOCE ON         VALE3       010VISTA          000000000078200000000784000000007700000000000000000000781000000006400
0202LOTE PADRAO                   ARACRUZ     PNB        ARCZ6       010VISTA          000000000005600000000057000000000550000000000000000000055000000125900
0202LOTE PADRAO                   TELEMIG PARTPN *       TMCP4       010VISTA          000000000002800000000028000000000270000000000000000000027900039794000
0202LOTE PADRAO                   BRASIL TELECPN *       BRTO4       010VISTA          000000000010500000000106000000001030000000000000000000106000063514400
0202LOTE PADRAO                   SABESP      ON *       SBSP3       010VISTA          000000000096900000000985000000009550000000000000000000975000003381300
0202LOTE PADRAO                   BRASKEM     PNA*       BRKM5       010VISTA          000000000385000000003979000000038500000000000000000003910000000049200
0202LOTE PADRAO                   EMBRAER     PN EJ      EMBR4       010VISTA          000000000015000000000153000000001480000000000000000000150000000079400
0202LOTE PADRAO                   TELESP      PN * EJ    TLPP4       010VISTA          000000000032700000000328000000003140000000000000000000320000021746500
0202LOTE PADRAO                   EMBRAER     ON EJ      EMBR3       010VISTA          000000000013500000000138000000001350000000000000000000136000000013800
0202LOTE PADRAO                   AMBEV       PN *       AMBV4       010VISTA          000000000433500000004441000000043350000000000000000004400000002443900
0202LOTE PADRAO                   USIMINAS    PNA        USIM5       010VISTA          000000000006540000000070000000000640000000000000000000067000000049500
0202LOTE PADRAO                   ELETROPAULO PN *       ELPL4       010VISTA          000000000042500000000432000000004020000000000000000000431000001467000
0202LOTE PADRAO                   TELE NORD CLPN *       TNEP4       010VISTA          000000000002500000000027000000000250000000000000000000026000128790000
0202LOTE PADRAO                   CEMIG       PN * EJ    CMIG4       010VISTA          000000000031200000000318000000003040000000000000000000314000042286300
0202LOTE PADRAO                   TELE CL SUL PN * EJ    TCSL4       010VISTA          000000000002900000000031000000000290000000000000000000031000079838800
0202LOTE PADRAO                   TRACTEBEL   ON *       TBLE3       010VISTA          000000000004000000000040000000000380000000000000000000039800024766700
0202LOTE PADRAO                   CEMIG       ON * EJ    CMIG3       010VISTA          000000000028100000000293000000002800000000000000000000290000000456100
0202LOTE PADRAO                   TELE CL SUL ON * EJ    TCSL3       010VISTA          000000000002300000000025000000000230000000000000000000025000023620800
0202LOTE PADRAO                   ITAUSA      PN         ITSA4       010VISTA          000000000001800000000019000000000180000000000000000000019000000172100
0202LOTE PADRAO                   V C P       PN *       VCPA4       010VISTA          000000000101000000001075000000010100000000000000000001050000003571100
0202LOTE PADRAO                   SID TUBARAO PN *       CSTB4       010VISTA          000000000027700000000283000000002750000000000000000000283000001022800
0202LOTE PADRAO                   BRADESPAR   PN *       BRAP4       010VISTA          000000000000510000000005300000000050000000000000000000005300138631000
0202LOTE PADRAO                   NET         PN         PLIM4       010VISTA          000000000001710000000017600000000160000000000000000000017300000032900
0202LOTE PADRAO                   TELE CTR OESPN * EJ    TCOC4       010VISTA          000000000003900000000039000000000380000000000000000000038000087691800
0202LOTE PADRAO                   TELEMAR N L PNA* EJ    TMAR5       010VISTA          000000000047500000000480000000004660000000000000000000475000017837400
0202LOTE PADRAO                   GERDAU      PN * EJ    GGBR4       010VISTA          000000000029100000000308000000002910000000000000000000306000013244500
0202LOTE PADRAO                   BRASIL      ON *       BBAS3       010VISTA          000000000008600000000086000000000840000000000000000000086000005035700
