00BDIN9999BOVESPA 99992002080620020806
0101IBOVESPA                      0094720094710097950000000000000000002002080600000020020806009755000000
0202LOTE PADRAO                   EMBRATEL PARPN *       EBTP4       010VISTA          000000000001700000000017600000000160000000000000000000017200235234000
0202LOTE PADRAO                   EMBRATEL PARON *       EBTP3       010VISTA          000000000002540000000026000000000240000000000000000000025000029221500
0202LOTE PADRAO                   TRAN PAULISTPN * EJ    TRPL4       010VISTA          000000000005300000000054000000000525000000000000000000052000006476000
0202LOTE PADRAO                   ITAUBANCO   PN * EJ    ITAU4       010VISTA          000000000134000000001385000000013400000000000000000001370000021450100
0202LOTE PADRAO                   TELEMAR     ON * EJ    TNLP3       010VISTA          000000000016600000000176000000001660000000000000000000176000029171800
0202LOTE PADRAO                   SID NACIONALON *       CSNA3       010VISTA          000000000036100000000381000000003580000000000000000000375000013690600
0202LOTE PADRAO                   TELE LEST CLPN *       TLCP4       010VISTA          000000000000370000000003800000000035000000000000000000003700101156000
0202LOTE PADRAO                   CRT CELULAR PNA* EJ    CRTP5       010VISTA          000000000387000000003900000000038100000000000000000003850000000188300
0202LOTE PADRAO                   IPIRANGA PETPN *       PTIP4       010VISTA          000000000011700000000118000000001100000000000000000000114000001451300
0202LOTE PADRAO                   BRASIL T PARPN *       BRTP4       010VISTA          000000000015000000000161000000001500000000000000000000158000048500700
0202LOTE PADRAO                   BRASIL T PARON *       BRTP3       010VISTA          000000000011100000000119000000001100000000000000000000117000008526500
0202LOTE PADRAO                   KLABIN S/A  PN         KLBN4       010VISTA          000000000000880000000008800000000087000000000000000000008700000041100
0202LOTE PADRAO                   ACESITA     PN *       ACES4       010VISTA          000000000000640000000006600000000064000000000000000000006500123258000
0202LOTE PADRAO                   PETROBRAS   PN         PETR4       010VISTA          000000000041000000000416000000004070000000000000000000412000000103600
0202LOTE PADRAO                   ELETROBRAS  PNB*       ELET6       010VISTA          000000000020800000000213000000002070000000000000000000211000049000100
0202LOTE PADRAO                   PETROBRAS   ON         PETR3       010VISTA          000000000045700000000457000000004450000000000000000000451000000027300
0202LOTE PADRAO                   COMGAS      PNA*       CGAS5       010VISTA          000000000049900000000499000000004850000000000000000000485000000479900
0202LOTE PADRAO                   SOUZA CRUZ  ON EJ      CRUZ3       010VISTA          000000000014250000000144000000001390000000000000000000139000000018500
0202LOTE PADRAO                   ELETROBRAS  ON *       ELET3       010VISTA          000000000022300000000233000000002200000000000000000000231000014444900
0202LOTE PADRAO                   CELESC      PNB        CLSC6       010VISTA          000000000000520000000005400000000052000000000000000000005400000174500
0202LOTE PADRAO                   BRADESCO    PN * EJ    BBDC4       010VISTA          000000000009250000000094000000000910000000000000000000093000446028000
0202LOTE PADRAO                   CESP        PN *       CESP4       010VISTA          000000000007100000000071000000000690000000000000000000069000011315200
0202LOTE PADRAO                   LIGHT       ON *       LIGH3       010VISTA          000000000077000000000790000000007600000000000000000000770000000134800
0202LOTE PADRAO                   TELESP CL PAPN *       TSPP4       010VISTA          000000000003300000000035000000000330000000000000000000034000248093000
0202LOTE PADRAO                   VALE R DOCE PNA        VALE5       010VISTA          000000000070000000000705000000006900000000000000000000695000000011800
0202LOTE PADRAO                   COPEL       PNB*       CPLE6       010VISTA          000000000010500000000109000000001040000000000000000000108000017801700
0202LOTE PADRAO                   VALE R DOCE ON         VALE3       010VISTA          000000000076500000000770000000007550000000000000000000755000000017100
0202LOTE PADRAO                   ARACRUZ     PNB        ARCZ6       010VISTA          000000000005900000000060000000000570000000000000000000058000000055600
0202LOTE PADRAO                   TELEMIG PARTPN *       TMCP4       010VISTA          000000000002800000000030000000000280000000000000000000030000113507000
0202LOTE PADRAO                   BRASIL TELECPN *       BRTO4       010VISTA          000000000010300000000108000000001030000000000000000000108000079559200
0202LOTE PADRAO                   SABESP      ON *       SBSP3       010VISTA          000000000086700000000870000000008200000000000000000000860000002231800
0202LOTE PADRAO                   BRASKEM     PNA*       BRKM5       010VISTA          000000000362000000003650000000036000000000000000000003600000000155100
0202LOTE PADRAO                   EMBRAER     PN EJ      EMBR4       010VISTA          000000000014100000000146000000001410000000000000000000145000000063400
0202LOTE PADRAO                   TELESP      PN * EJ    TLPP4       010VISTA          000000000031300000000321000000003130000000000000000000321000006782400
0202LOTE PADRAO                   EMBRAER     ON EJ      EMBR3       010VISTA          000000000012900000000134000000001290000000000000000000134000000017100
0202LOTE PADRAO                   AMBEV       PN *       AMBV4       010VISTA          000000000419900000004239000000040300000000000000000004080000003046300
0202LOTE PADRAO                   USIMINAS    PNA        USIM5       010VISTA          000000000005300000000055000000000520000000000000000000054000000044800
0202LOTE PADRAO                   ELETROPAULO PN *       ELPL4       010VISTA          000000000025000000000285000000002500000000000000000000280000004066900
0202LOTE PADRAO                   TELE NORD CLPN *       TNEP4       010VISTA          000000000002600000000027300000000260000000000000000000026000150918000
0202LOTE PADRAO                   CEMIG       PN * EJ    CMIG4       010VISTA          000000000026300000000265000000002530000000000000000000264000031547700
0202LOTE PADRAO                   TELE CL SUL PN * EJ    TCSL4       010VISTA          000000000002600000000027900000000260000000000000000000027900068297500
0202LOTE PADRAO                   TRACTEBEL   ON *       TBLE3       010VISTA          000000000004100000000043000000000400000000000000000000041000010149000
0202LOTE PADRAO                   CEMIG       ON * EJ    CMIG3       010VISTA          000000000024500000000245000000002350000000000000000000236000010106600
0202LOTE PADRAO                   TELE CL SUL ON * EJ    TCSL3       010VISTA          000000000002300000000024000000000220000000000000000000023000010707700
0202LOTE PADRAO                   ITAUSA      PN         ITSA4       010VISTA          000000000001690000000017200000000160000000000000000000016000000466600
0202LOTE PADRAO                   V C P       PN *       VCPA4       010VISTA          000000000097500000001010000000009700000000000000000000970000003790000
0202LOTE PADRAO                   SID TUBARAO PN *       CSTB4       010VISTA          000000000026700000000267000000002630000000000000000000263000012842500
0202LOTE PADRAO                   BRADESPAR   PN *       BRAP4       010VISTA          000000000000490000000005000000000048000000000000000000005000110396000
0202LOTE PADRAO                   NET         PN         PLIM4       010VISTA          000000000000740000000007400000000055000000000000000000005700000736800
0202LOTE PADRAO                   TELE CTR OESPN * EJ    TCOC4       010VISTA          000000000003790000000038000000000360000000000000000000038000057494700
0202LOTE PADRAO                   TELEMAR N L PNA* EJ    TMAR5       010VISTA          000000000039600000000424000000003950000000000000000000423000009034500
0202LOTE PADRAO                   GERDAU      PN * EJ    GGBR4       010VISTA          000000000029800000000303000000002930000000000000000000300000026546600
0202LOTE PADRAO                   BRASIL      ON *       BBAS3       010VISTA          000000000009300000000093000000000900000000000000000000090000003467500
