00BDIN9999BOVESPA 99992002042320020423
0101IBOVESPA                      0132240130760133020000000000000000002002042300000020020423013188000000
0202LOTE PADRAO                   EMBRATEL PARPN *       EBTP4       010VISTA          000000000006600000000066000000000600000000000000000000061000496171000
0202LOTE PADRAO                   TRAN PAULISTPN * EJ    TRPL4       010VISTA          000000000007100000000071000000000680000000000000000000069000013136100
0202LOTE PADRAO                   EMBRATEL PARON *       EBTP3       010VISTA          000000000007750000000079000000000740000000000000000000074000064080800
0202LOTE PADRAO                   TELEMAR     PN * EJ    TNLP4       010VISTA          000000000030000000000306000000002970000000000000000000305000210726000
0202LOTE PADRAO                   ITAUBANCO   PN * EJ    ITAU4       010VISTA          000000000188200000001900000000018750000000000000000001890000009817200
0202LOTE PADRAO                   TELEMAR     ON * EJ    TNLP3       010VISTA          000000000027000000000270000000002580000000000000000000266000021164700
0202LOTE PADRAO                   SID NACIONALON *       CSNA3       010VISTA          000000000046000000000465000000004570000000000000000000465000008176000
0202LOTE PADRAO                   TELE LEST CLPN *       TLCP4       010VISTA          000000000000710000000007400000000071000000000000000000007400258467000
0202LOTE PADRAO                   CRT CELULAR PNA* EJ    CRTP5       010VISTA          000000000420000000004350000000041900000000000000000004280000000890700
0202LOTE PADRAO                   IPIRANGA PETPN *       PTIP4       010VISTA          000000000014300000000147000000001430000000000000000000145000003240400
0202LOTE PADRAO                   BRASIL T PARPN *       BRTP4       010VISTA          000000000018300000000186000000001780000000000000000000186000074692300
0202LOTE PADRAO                   BRASIL T PARON *       BRTP3       010VISTA          000000000017800000000179000000001730000000000000000000179000011017000
0202LOTE PADRAO                   KLABIN S/A  PN         KLBN4       010VISTA          000000000001000000000011000000000100000000000000000000010000000023600
0202LOTE PADRAO                   ACESITA     PN *       ACES4       010VISTA          000000000000750000000007700000000073000000000000000000007500178466000
0202LOTE PADRAO                   PETROBRAS   PN         PETR4       010VISTA          000000000055200000000564000000005500000000000000000000560000000087700
0202LOTE PADRAO                   ELETROBRAS  PNB*       ELET6       010VISTA          000000000034100000000352000000003380000000000000000000340000029302600
0202LOTE PADRAO                   PETROBRAS   ON         PETR3       010VISTA          000000000058700000000610000000005870000000000000000000597000000031600
0202LOTE PADRAO                   COMGAS      PNA*       CGAS5       010VISTA          000000000075000000000762000000007420000000000000000000747000001050400
0202LOTE PADRAO                   SOUZA CRUZ  ON EJ      CRUZ3       010VISTA          000000000015500000000158000000001550000000000000000000158000000015000
0202LOTE PADRAO                   ELETROBRAS  ON *       ELET3       010VISTA          000000000037800000000385000000003700000000000000000000378000009170500
0202LOTE PADRAO                   CELESC      PNB        CLSC6       010VISTA          000000000000540000000005400000000053000000000000000000005400000170400
0202LOTE PADRAO                   BRADESCO    PN * EJ    BBDC4       010VISTA          000000000014400000000145000000001430000000000000000000144000145345000
0202LOTE PADRAO                   CESP        PN *       CESP4       010VISTA          000000000013300000000135000000001300000000000000000000131000008196800
0202LOTE PADRAO                   LIGHT       ON *       LIGH3       010VISTA          000000000097500000000980000000009700000000000000000000970000000202200
0202LOTE PADRAO                   TELESP CL PAPN *       TSPP4       010VISTA          000000000005600000000058000000000550000000000000000000058000183157000
0202LOTE PADRAO                   VALE R DOCE PNA        VALE5       010VISTA          000000000065500000000662000000006520000000000000000000662000000015100
0202LOTE PADRAO                   COPEL       PNB*       CPLE6       010VISTA          000000000017700000000180000000001730000000000000000000175000030425300
0202LOTE PADRAO                   VALE R DOCE ON         VALE3       010VISTA          000000000066200000000665000000006570000000000000000000665000000010800
0202LOTE PADRAO                   ARACRUZ     PNB        ARCZ6       010VISTA          000000000004900000000050000000000490000000000000000000050000000043800
0202LOTE PADRAO                   TELEMIG PARTPN *       TMCP4       010VISTA          000000000002800000000029800000000281000000000000000000028000079957500
0202LOTE PADRAO                   BRASIL TELECPN *       BRTO4       010VISTA          000000000012900000000131000000001260000000000000000000130000054318500
0202LOTE PADRAO                   SABESP      ON *       SBSP3       010VISTA          000000000150000000001500000000014500000000000000000001480000003376400
0202LOTE PADRAO                   BRASKEM     PNA*       BRKM5       010VISTA          000000000515000000005299000000051200000000000000000005149000000129900
0202LOTE PADRAO                   EMBRAER     PN EJ      EMBR4       010VISTA          000000000012400000000129000000001230000000000000000000128000000164100
0202LOTE PADRAO                   TELESP      PN * EJ    TLPP4       010VISTA          000000000032200000000331000000003220000000000000000000328000008344300
0202LOTE PADRAO                   EMBRAER     ON EJ      EMBR3       010VISTA          000000000011300000000116000000001130000000000000000000115000000023700
0202LOTE PADRAO                   AMBEV       PN *       AMBV4       010VISTA          000000000479100000004860000000047800000000000000000004800000002260300
0202LOTE PADRAO                   USIMINAS    PNA        USIM5       010VISTA          000000000008100000000082000000000800000000000000000000081000000097900
0202LOTE PADRAO                   ELETROPAULO PN *       ELPL4       010VISTA          000000000064500000000649000000006170000000000000000000635000003793400
0202LOTE PADRAO                   TELE NORD CLPN *       TNEP4       010VISTA          000000000002500000000025000000000240000000000000000000025000189456000
0202LOTE PADRAO                   CEMIG       PN * EJ    CMIG4       010VISTA          000000000036600000000373000000003660000000000000000000369000040794000
0202LOTE PADRAO                   TELE CL SUL PN * EJ    TCSL4       010VISTA          000000000003000000000031000000000290000000000000000000030000182587000
0202LOTE PADRAO                   TRACTEBEL   ON *       TBLE3       010VISTA          000000000004500000000045000000000420000000000000000000044000016943000
0202LOTE PADRAO                   CEMIG       ON * EJ    CMIG3       010VISTA          000000000032800000000333000000003250000000000000000000325000000810000
0202LOTE PADRAO                   TELE CL SUL ON * EJ    TCSL3       010VISTA          000000000002700000000027500000000250000000000000000000027000033728000
0202LOTE PADRAO                   ITAUSA      PN         ITSA4       010VISTA          000000000002300000000024000000000230000000000000000000023000000377300
0202LOTE PADRAO                   V C P       PN *       VCPA4       010VISTA          000000000091900000000940000000009190000000000000000000940000001048500
0202LOTE PADRAO                   SID TUBARAO PN *       CSTB4       010VISTA          000000000026000000000266000000002590000000000000000000265000005505900
0202LOTE PADRAO                   BRADESPAR   PN *       BRAP4       010VISTA          000000000000690000000007200000000069000000000000000000007000142419000
0202LOTE PADRAO                   NET         PN         PLIM4       010VISTA          000000000000370000000003700000000033000000000000000000003400002270900
0202LOTE PADRAO                   TELE CTR OESPN * EJ    TCOC4       010VISTA          000000000004700000000049000000000460000000000000000000047500094401200
0202LOTE PADRAO                   TELEMAR N L PNA* EJ    TMAR5       010VISTA          000000000051000000000527000000005050000000000000000000519000018727900
0202LOTE PADRAO                   GERDAU      PN * EJ    GGBR4       010VISTA          000000000031500000000315000000003060000000000000000000308000018793600
0202LOTE PADRAO                   BRASIL      ON *       BBAS3       010VISTA          000000000013500000000141000000001340000000000000000000138000005702700
