00BDIN9999BOVESPA 99992002120920021209
0101IBOVESPA                      0105620103390105620000000000000000002002120900000020021209010339000000
0202LOTE PADRAO                   EMBRATEL PARPN *       EBTP4       010VISTA          000000000003480000000036000000000340000000000000000000035000361207000
0202LOTE PADRAO                   TRAN PAULISTPN * EJ    TRPL4       010VISTA          000000000005100000000051000000000500000000000000000000050000005405300
0202LOTE PADRAO                   EMBRATEL PARON *       EBTP3       010VISTA          000000000004100000000042000000000410000000000000000000042500046779600
0202LOTE PADRAO                   TELEMAR     PN * EJ    TNLP4       010VISTA          000000000026000000000262000000002580000000000000000000260000109247000
0202LOTE PADRAO                   ITAUBANCO   PN * EJ    ITAU4       010VISTA          000000000152000000001520000000014700000000000000000001499000006711600
0202LOTE PADRAO                   TELEMAR     ON * EJ    TNLP3       010VISTA          000000000018500000000188000000001850000000000000000000185000007265500
0202LOTE PADRAO                   SID NACIONALON *       CSNA3       010VISTA          000000000050400000000504000000004960000000000000000000498000008916300
0202LOTE PADRAO                   TELE LEST CLPN *       TLCP4       010VISTA          000000000000430000000004300000000041000000000000000000004200123433000
0202LOTE PADRAO                   CRT CELULAR PNA* EJ    CRTP5       010VISTA          000000000304300000003075000000030100000000000000000003030000000301400
0202LOTE PADRAO                   IPIRANGA PETPN *       PTIP4       010VISTA          000000000007100000000072000000000700000000000000000000070000001150600
0202LOTE PADRAO                   BRASIL T PARPN *       BRTP4       010VISTA          000000000017600000000176000000001700000000000000000000170000022353200
0202LOTE PADRAO                   BRASIL T PARON *       BRTP3       010VISTA          000000000013600000000136000000001330000000000000000000135000013395900
0202LOTE PADRAO                   KLABIN S/A  PN         KLBN4       010VISTA          000000000000950000000009500000000093000000000000000000009400000014300
0202LOTE PADRAO                   ACESITA     PN *       ACES4       010VISTA          000000000000870000000009000000000086000000000000000000008600177456000
0202LOTE PADRAO                   PETROBRAS   PN         PETR4       010VISTA          000000000044200000000442000000004350000000000000000000437000000048900
0202LOTE PADRAO                   ELETROBRAS  PNB*       ELET6       010VISTA          000000000019200000000192000000001850000000000000000000186000040742100
0202LOTE PADRAO                   PETROBRAS   ON         PETR3       010VISTA          000000000048800000000488000000004770000000000000000000484000000036200
0202LOTE PADRAO                   COMGAS      PNA*       CGAS5       010VISTA          000000000049600000000496000000004730000000000000000000476000000687700
0202LOTE PADRAO                   SOUZA CRUZ  ON EJ      CRUZ3       010VISTA          000000000018250000000183000000001800000000000000000000182000000006200
0202LOTE PADRAO                   ELETROBRAS  ON *       ELET3       010VISTA          000000000020000000000200000000001925000000000000000000193000026265900
0202LOTE PADRAO                   CELESC      PNB        CLSC6       010VISTA          000000000000470000000004700000000046000000000000000000004700000494900
0202LOTE PADRAO                   BRADESCO    PN * EJ    BBDC4       010VISTA          000000000009400000000094000000000900000000000000000000090000266406000
0202LOTE PADRAO                   CESP        PN *       CESP4       010VISTA          000000000006700000000067000000000630000000000000000000063000009016300
0202LOTE PADRAO                   LIGHT       ON *       LIGH3       010VISTA          000000000048000000000480000000004490000000000000000000456000000342000
0202LOTE PADRAO                   TELESP CL PAPN *       TSPP4       010VISTA          000000000003700000000037000000000360000000000000000000036000162554000
0202LOTE PADRAO                   VALE R DOCE PNA        VALE5       010VISTA          000000000096000000000999000000009600000000000000000000989000000019500
0202LOTE PADRAO                   COPEL       PNB*       CPLE6       010VISTA          000000000007400000000074000000000740000000000000000000074000013995000
0202LOTE PADRAO                   VALE R DOCE ON         VALE3       010VISTA          000000000104400000001069000000010350000000000000000001043000000020700
0202LOTE PADRAO                   ARACRUZ     PNB        ARCZ6       010VISTA          000000000006400000000065000000000620000000000000000000062000000023800
0202LOTE PADRAO                   TELEMIG PARTPN *       TMCP4       010VISTA          000000000002800000000028000000000280000000000000000000028000050465900
0202LOTE PADRAO                   BRASIL TELECPN *       BRTO4       010VISTA          000000000011300000000114000000001100000000000000000000110000050612800
0202LOTE PADRAO                   SABESP      ON *       SBSP3       010VISTA          000000000078900000000789000000007600000000000000000000760000002981400
0202LOTE PADRAO                   BRASKEM     PNA*       BRKM5       010VISTA          000000000208000000002080000000019700000000000000000001995000000032500
0202LOTE PADRAO                   EMBRAER     PN EJ      EMBR4       010VISTA          000000000013800000000139000000001350000000000000000000135000000049400
0202LOTE PADRAO                   TELESP      PN * EJ    TLPP4       010VISTA          000000000035300000000357000000003525000000000000000000357000005676800
0202LOTE PADRAO                   EMBRAER     ON EJ      EMBR3       010VISTA          000000000012700000000127000000001230000000000000000000123000000014200
0202LOTE PADRAO                   AMBEV       PN *       AMBV4       010VISTA          000000000530100000005314000000052500000000000000000005301000000514200
0202LOTE PADRAO                   USIMINAS    PNA        USIM5       010VISTA          000000000006000000000060000000000570000000000000000000057000000031900
0202LOTE PADRAO                   ELETROPAULO PN *       ELPL4       010VISTA          000000000024500000000250000000002300000000000000000000237000005342900
0202LOTE PADRAO                   TELE NORD CLPN *       TNEP4       010VISTA          000000000002800000000028000000000270000000000000000000027500123107000
0202LOTE PADRAO                   CEMIG       PN * EJ    CMIG4       010VISTA          000000000023100000000231000000002250000000000000000000226000020214900
0202LOTE PADRAO                   TELE CL SUL PN * EJ    TCSL4       010VISTA          000000000002700000000027000000000260000000000000000000026000050296800
0202LOTE PADRAO                   TRACTEBEL   ON *       TBLE3       010VISTA          000000000003100000000032000000000310000000000000000000032000002630000
0202LOTE PADRAO                   CEMIG       ON * EJ    CMIG3       010VISTA          000000000020900000000210000000002000000000000000000000205000000170000
0202LOTE PADRAO                   TELE CL SUL ON * EJ    TCSL3       010VISTA          000000000001950000000019500000000180000000000000000000019000031075600
0202LOTE PADRAO                   ITAUSA      PN         ITSA4       010VISTA          000000000001760000000017700000000173000000000000000000017300000161400
0202LOTE PADRAO                   V C P       PN *       VCPA4       010VISTA          000000000119500000001195000000011700000000000000000001175000000978900
0202LOTE PADRAO                   SID TUBARAO PN *       CSTB4       010VISTA          000000000035000000000353000000003480000000000000000000352000003463200
0202LOTE PADRAO                   BRADESPAR   PN *       BRAP4       010VISTA          000000000000470000000004700000000046000000000000000000004600156856000
0202LOTE PADRAO                   NET         PN         PLIM4       010VISTA          000000000000390000000003900000000037000000000000000000003700000780700
0202LOTE PADRAO                   TELE CTR OESPN * EJ    TCOC4       010VISTA          000000000004400000000044000000000420000000000000000000042000080791300
0202LOTE PADRAO                   TELEMAR N L PNA* EJ    TMAR5       010VISTA          000000000042100000000421000000004110000000000000000000412000008324300
0202LOTE PADRAO                   GERDAU      PN * EJ    GGBR4       010VISTA          000000000031500000000315000000003110000000000000000000313000007968700
0202LOTE PADRAO                   BRASIL      ON *       BBAS3       010VISTA          000000000009700000000097000000000930000000000000000000093000018803400
