00BDIN9999BOVESPA 99992002031320020313
0101IBOVESPA                      0141910141000143520000000000000000002002031300000020020313014244000000
0202LOTE PADRAO                   EMBRATEL PARPN *       EBTP4       010VISTA          000000000009000000000093000000000890000000000000000000093000205678000
0202LOTE PADRAO                   TRAN PAULISTPN * EJ    TRPL4       010VISTA          000000000007750000000078000000000760000000000000000000077000014353800
0202LOTE PADRAO                   EMBRATEL PARON *       EBTP3       010VISTA          000000000011000000000111000000001090000000000000000000111000018348300
0202LOTE PADRAO                   TELEMAR     PN * EJ    TNLP4       010VISTA          000000000033200000000338000000003270000000000000000000331000271784000
0202LOTE PADRAO                   ITAUBANCO   PN * EJ    ITAU4       010VISTA          000000000192000000001940000000018900000000000000000001918000011154500
0202LOTE PADRAO                   TELEMAR     ON * EJ    TNLP3       010VISTA          000000000029800000000301000000002900000000000000000000298000016934200
0202LOTE PADRAO                   SID NACIONALON *       CSNA3       010VISTA          000000000047000000000494000000004670000000000000000000487000058784600
0202LOTE PADRAO                   TELE LEST CLPN *       TLCP4       010VISTA          000000000000890000000009100000000088000000000000000000009000132990000
0202LOTE PADRAO                   CRT CELULAR PNA* EJ    CRTP5       010VISTA          000000000507900000005100000000048600000000000000000005079000001422500
0202LOTE PADRAO                   IPIRANGA PETPN *       PTIP4       010VISTA          000000000014700000000147000000001410000000000000000000144000002182200
0202LOTE PADRAO                   BRASIL T PARPN *       BRTP4       010VISTA          000000000020300000000203000000001970000000000000000000200000084076300
0202LOTE PADRAO                   BRASIL T PARON *       BRTP3       010VISTA          000000000020300000000204000000001950000000000000000000201000008190000
0202LOTE PADRAO                   KLABIN S/A  PN         KLBN4       010VISTA          000000000001270000000013000000000126000000000000000000013000000043500
0202LOTE PADRAO                   ACESITA     PN *       ACES4       010VISTA          000000000000760000000007700000000074000000000000000000007700327548000
0202LOTE PADRAO                   PETROBRAS   PN         PETR4       010VISTA          000000000057800000000582000000005720000000000000000000581000000094300
0202LOTE PADRAO                   ELETROBRAS  PNB*       ELET6       010VISTA          000000000038300000000391000000003760000000000000000000380000032418900
0202LOTE PADRAO                   PETROBRAS   ON         PETR3       010VISTA          000000000060100000000602000000005920000000000000000000600000000044100
0202LOTE PADRAO                   COMGAS      PNA*       CGAS5       010VISTA          000000000092000000000920000000008990000000000000000000900000001550700
0202LOTE PADRAO                   SOUZA CRUZ  ON EJ      CRUZ3       010VISTA          000000000014400000000149000000001440000000000000000000148000000017500
0202LOTE PADRAO                   ELETROBRAS  ON *       ELET3       010VISTA          000000000043300000000437000000004250000000000000000000431000019283400
0202LOTE PADRAO                   CELESC      PNB        CLSC6       010VISTA          000000000000610000000006100000000059000000000000000000006000000099500
0202LOTE PADRAO                   BRADESCO    PN * EJ    BBDC4       010VISTA          000000000013400000000138000000001340000000000000000000138000133716000
0202LOTE PADRAO                   CESP        PN *       CESP4       010VISTA          000000000016200000000166000000001610000000000000000000165000009328900
0202LOTE PADRAO                   LIGHT       ON *       LIGH3       010VISTA          000000000121500000001249000000012100000000000000000001238000001491000
0202LOTE PADRAO                   TELESP CL PAPN *       TSPP4       010VISTA          000000000006500000000065000000000630000000000000000000064000239676000
0202LOTE PADRAO                   VALE R DOCE PNA        VALE5       010VISTA          000000000061300000000623000000006100000000000000000000618000000077500
0202LOTE PADRAO                   COPEL       PNB*       CPLE6       010VISTA          000000000019000000000191000000001880000000000000000000191000030119000
0202LOTE PADRAO                   VALE R DOCE ON         VALE3       010VISTA          000000000062200000000632000000006200000000000000000000625000000007600
0202LOTE PADRAO                   ARACRUZ     PNB        ARCZ6       010VISTA          000000000004900000000050000000000490000000000000000000050000000027400
0202LOTE PADRAO                   TELEMIG PARTPN *       TMCP4       010VISTA          000000000003700000000038000000000370000000000000000000037000145008000
0202LOTE PADRAO                   BRASIL TELECPN *       BRTO4       010VISTA          000000000014300000000144000000001390000000000000000000140000110254000
0202LOTE PADRAO                   SABESP      ON *       SBSP3       010VISTA          000000000136000000001375000000013500000000000000000001370000001466500
0202LOTE PADRAO                   BRASKEM     PNA*       BRKM5       010VISTA          000000000561000000005797000000055600000000000000000005700000000131900
0202LOTE PADRAO                   EMBRAER     PN EJ      EMBR4       010VISTA          000000000012500000000129000000001240000000000000000000128000000113700
0202LOTE PADRAO                   TELESP      PN * EJ    TLPP4       010VISTA          000000000034800000000350000000003450000000000000000000347000009914900
0202LOTE PADRAO                   EMBRAER     ON EJ      EMBR3       010VISTA          000000000011800000000120000000001180000000000000000000120000000020800
0202LOTE PADRAO                   AMBEV       PN *       AMBV4       010VISTA          000000000454000000004644000000044500000000000000000004534000004363000
0202LOTE PADRAO                   USIMINAS    PNA        USIM5       010VISTA          000000000007500000000077500000000750000000000000000000076000000060000
0202LOTE PADRAO                   ELETROPAULO PN *       ELPL4       010VISTA          000000000070900000000717000000006920000000000000000000710000003865900
0202LOTE PADRAO                   TELE NORD CLPN *       TNEP4       010VISTA          000000000003400000000035000000000330000000000000000000034800182238000
0202LOTE PADRAO                   CEMIG       PN * EJ    CMIG4       010VISTA          000000000038200000000385000000003770000000000000000000385000044510600
0202LOTE PADRAO                   TELE CL SUL PN * EJ    TCSL4       010VISTA          000000000003500000000037100000000352000000000000000000036000151809000
0202LOTE PADRAO                   TRACTEBEL   ON *       TBLE3       010VISTA          000000000004000000000040000000000390000000000000000000039000009600200
0202LOTE PADRAO                   CEMIG       ON * EJ    CMIG3       010VISTA          000000000035000000000350000000003420000000000000000000345000000431500
0202LOTE PADRAO                   TELE CL SUL ON * EJ    TCSL3       010VISTA          000000000003100000000032000000000310000000000000000000031000026154800
0202LOTE PADRAO                   ITAUSA      PN         ITSA4       010VISTA          000000000002300000000024000000000230000000000000000000023000000184000
0202LOTE PADRAO                   V C P       PN *       VCPA4       010VISTA          000000000089000000000895000000008870000000000000000000895000005858100
0202LOTE PADRAO                   SID TUBARAO PN *       CSTB4       010VISTA          000000000025000000000263000000002500000000000000000000261000013460000
0202LOTE PADRAO                   BRADESPAR   PN *       BRAP4       010VISTA          000000000000810000000008100000000078000000000000000000007900194940000
0202LOTE PADRAO                   NET         PN         PLIM4       010VISTA          000000000000720000000007200000000064000000000000000000006400003772500
0202LOTE PADRAO                   TELE CTR OESPN * EJ    TCOC4       010VISTA          000000000005200000000052000000000510000000000000000000052000071651900
0202LOTE PADRAO                   TELEMAR N L PNA* EJ    TMAR5       010VISTA          000000000058300000000606000000005820000000000000000000595000035679800
0202LOTE PADRAO                   GERDAU      PN * EJ    GGBR4       010VISTA          000000000027300000000280000000002730000000000000000000280000033817800
0202LOTE PADRAO                   BRASIL      ON *       BBAS3       010VISTA          000000000011500000000118000000001140000000000000000000117500007032500
