00BDIN9999BOVESPA 99992002110720021107
0101IBOVESPA                      0097340096180098930000000000000000002002110700000020021107009799000000
0202LOTE PADRAO                   EMBRATEL PARPN *       EBTP4       010VISTA          000000000002100000000021000000000200000000000000000000020000251872000
0202LOTE PADRAO                   TRAN PAULISTPN * EJ    TRPL4       010VISTA          000000000005000000000051000000000490000000000000000000051000017885900
0202LOTE PADRAO                   EMBRATEL PARON *       EBTP3       010VISTA          000000000002500000000025000000000220000000000000000000023000034930900
0202LOTE PADRAO                   TELEMAR     PN * EJ    TNLP4       010VISTA          000000000024100000000243000000002375000000000000000000238000217203000
0202LOTE PADRAO                   ITAUBANCO   PN * EJ    ITAU4       010VISTA          000000000144000000001494000000014310000000000000000001471000015429000
0202LOTE PADRAO                   TELEMAR     ON * EJ    TNLP3       010VISTA          000000000017500000000178000000001710000000000000000000178000017329300
0202LOTE PADRAO                   SID NACIONALON *       CSNA3       010VISTA          000000000038500000000403000000003850000000000000000000401000022636400
0202LOTE PADRAO                   TELE LEST CLPN *       TLCP4       010VISTA          000000000000400000000004000000000038000000000000000000003900189514000
0202LOTE PADRAO                   CRT CELULAR PNA* EJ    CRTP5       010VISTA          000000000326900000003350000000031990000000000000000003255000000616300
0202LOTE PADRAO                   IPIRANGA PETPN *       PTIP4       010VISTA          000000000008100000000082000000000800000000000000000000081000006949100
0202LOTE PADRAO                   BRASIL T PARPN *       BRTP4       010VISTA          000000000018800000000191000000001830000000000000000000185000089990100
0202LOTE PADRAO                   BRASIL T PARON *       BRTP3       010VISTA          000000000014000000000145000000001400000000000000000000140000005477100
0202LOTE PADRAO                   KLABIN S/A  PN         KLBN4       010VISTA          000000000000890000000009400000000089000000000000000000009400000019000
0202LOTE PADRAO                   ACESITA     PN *       ACES4       010VISTA          000000000000700000000007100000000069000000000000000000007000119941000
0202LOTE PADRAO                   PETROBRAS   PN         PETR4       010VISTA          000000000042200000000431000000004080000000000000000000430000000104200
0202LOTE PADRAO                   ELETROBRAS  PNB*       ELET6       010VISTA          000000000017800000000178000000001660000000000000000000170000081569200
0202LOTE PADRAO                   PETROBRAS   ON         PETR3       010VISTA          000000000045200000000467000000004450000000000000000000462000000017500
0202LOTE PADRAO                   COMGAS      PNA*       CGAS5       010VISTA          000000000055900000000559000000005400000000000000000000557000000568000
0202LOTE PADRAO                   SOUZA CRUZ  ON EJ      CRUZ3       010VISTA          000000000018300000000187500000001810000000000000000000185000000003600
0202LOTE PADRAO                   ELETROBRAS  ON *       ELET3       010VISTA          000000000018600000000186000000001710000000000000000000178000016919700
0202LOTE PADRAO                   CELESC      PNB        CLSC6       010VISTA          000000000000510000000005100000000049000000000000000000005000000053800
0202LOTE PADRAO                   BRADESCO    PN * EJ    BBDC4       010VISTA          000000000009100000000092500000000890000000000000000000090000264982000
0202LOTE PADRAO                   CESP        PN *       CESP4       010VISTA          000000000006100000000062500000000600000000000000000000061000005200100
0202LOTE PADRAO                   LIGHT       ON *       LIGH3       010VISTA          000000000050000000000500000000004650000000000000000000497000000640400
0202LOTE PADRAO                   TELESP CL PAPN *       TSPP4       010VISTA          000000000003700000000039000000000370000000000000000000039000525761000
0202LOTE PADRAO                   VALE R DOCE PNA        VALE5       010VISTA          000000000090000000000927000000008820000000000000000000907000000007100
0202LOTE PADRAO                   COPEL       PNB*       CPLE6       010VISTA          000000000007700000000077000000000740000000000000000000075000060742900
0202LOTE PADRAO                   VALE R DOCE ON         VALE3       010VISTA          000000000092500000000965000000009250000000000000000000945000000005400
0202LOTE PADRAO                   ARACRUZ     PNB        ARCZ6       010VISTA          000000000005700000000057900000000550000000000000000000055000000043000
0202LOTE PADRAO                   TELEMIG PARTPN *       TMCP4       010VISTA          000000000002800000000029000000000281000000000000000000028000079009200
0202LOTE PADRAO                   BRASIL TELECPN *       BRTO4       010VISTA          000000000011900000000119000000001140000000000000000000117000052546600
0202LOTE PADRAO                   SABESP      ON *       SBSP3       010VISTA          000000000083000000000843000000008220000000000000000000842000002783900
0202LOTE PADRAO                   BRASKEM     PNA*       BRKM5       010VISTA          000000000225000000002325000000022500000000000000000002325000000101500
0202LOTE PADRAO                   EMBRAER     PN EJ      EMBR4       010VISTA          000000000013900000000142000000001380000000000000000000142000000055700
0202LOTE PADRAO                   TELESP      PN * EJ    TLPP4       010VISTA          000000000036300000000363000000003500000000000000000000358000010164400
0202LOTE PADRAO                   EMBRAER     ON EJ      EMBR3       010VISTA          000000000012900000000129000000001250000000000000000000129000000010400
0202LOTE PADRAO                   AMBEV       PN *       AMBV4       010VISTA          000000000514500000005171000000050500000000000000000005171000001448500
0202LOTE PADRAO                   USIMINAS    PNA        USIM5       010VISTA          000000000005200000000054000000000520000000000000000000053000000028700
0202LOTE PADRAO                   ELETROPAULO PN *       ELPL4       010VISTA          000000000024400000000244000000002230000000000000000000239000002649800
0202LOTE PADRAO                   TELE NORD CLPN *       TNEP4       010VISTA          000000000002600000000026000000000256000000000000000000025000084863800
0202LOTE PADRAO                   CEMIG       PN * EJ    CMIG4       010VISTA          000000000023400000000235000000002260000000000000000000228000031364200
0202LOTE PADRAO                   TELE CL SUL PN * EJ    TCSL4       010VISTA          000000000002980000000030000000000280000000000000000000030000115235000
0202LOTE PADRAO                   TRACTEBEL   ON *       TBLE3       010VISTA          000000000003300000000033000000000320000000000000000000032000013828100
0202LOTE PADRAO                   CEMIG       ON * EJ    CMIG3       010VISTA          000000000021100000000218000000002080000000000000000000216000000906500
0202LOTE PADRAO                   TELE CL SUL ON * EJ    TCSL3       010VISTA          000000000002300000000023000000000210000000000000000000022000029832600
0202LOTE PADRAO                   ITAUSA      PN         ITSA4       010VISTA          000000000001750000000017800000000173000000000000000000017800000289600
0202LOTE PADRAO                   V C P       PN *       VCPA4       010VISTA          000000000112500000001142000000010800000000000000000001090000003833300
0202LOTE PADRAO                   SID TUBARAO PN *       CSTB4       010VISTA          000000000037200000000373000000003630000000000000000000365000003911100
0202LOTE PADRAO                   BRADESPAR   PN *       BRAP4       010VISTA          000000000000460000000004600000000045000000000000000000004600091381300
0202LOTE PADRAO                   NET         PN         PLIM4       010VISTA          000000000000270000000003200000000027000000000000000000003200001793000
0202LOTE PADRAO                   TELE CTR OESPN * EJ    TCOC4       010VISTA          000000000003560000000037000000000356000000000000000000037000107277000
0202LOTE PADRAO                   TELEMAR N L PNA* EJ    TMAR5       010VISTA          000000000041500000000419000000004000000000000000000000417000010486800
0202LOTE PADRAO                   GERDAU      PN * EJ    GGBR4       010VISTA          000000000034100000000341000000003250000000000000000000330000033531200
0202LOTE PADRAO                   BRASIL      ON *       BBAS3       010VISTA          000000000010300000000103000000001010000000000000000000103000032889400
