00BDIN9999BOVESPA 99992002071520020715
0101IBOVESPA                      0109660104740109690000000000000000002002071500000020020715010633000000
0202LOTE PADRAO                   EMBRATEL PARPN *       EBTP4       010VISTA          000000000001800000000018000000000155000000000000000000016000626984000
0202LOTE PADRAO                   TRAN PAULISTPN * EJ    TRPL4       010VISTA          000000000006000000000060000000000560000000000000000000057000011226400
0202LOTE PADRAO                   EMBRATEL PARON *       EBTP3       010VISTA          000000000003000000000030000000000250000000000000000000027000024999700
0202LOTE PADRAO                   TELEMAR     PN * EJ    TNLP4       010VISTA          000000000027600000000276000000002630000000000000000000268000144481000
0202LOTE PADRAO                   ITAUBANCO   PN * EJ    ITAU4       010VISTA          000000000163000000001630000000015750000000000000000001600000007183000
0202LOTE PADRAO                   TELEMAR     ON * EJ    TNLP3       010VISTA          000000000022300000000225000000002110000000000000000000213000015296300
0202LOTE PADRAO                   SID NACIONALON *       CSNA3       010VISTA          000000000045000000000463000000004400000000000000000000460000020932000
0202LOTE PADRAO                   TELE LEST CLPN *       TLCP4       010VISTA          000000000000590000000006000000000054000000000000000000005500124258000
0202LOTE PADRAO                   CRT CELULAR PNA* EJ    CRTP5       010VISTA          000000000389000000003890000000037900000000000000000003830000000279700
0202LOTE PADRAO                   IPIRANGA PETPN *       PTIP4       010VISTA          000000000012500000000129000000001250000000000000000000129000000901000
0202LOTE PADRAO                   BRASIL T PARPN *       BRTP4       010VISTA          000000000016500000000166000000001590000000000000000000161000054198100
0202LOTE PADRAO                   BRASIL T PARON *       BRTP3       010VISTA          000000000014500000000145000000001340000000000000000000134000010658800
0202LOTE PADRAO                   KLABIN S/A  PN         KLBN4       010VISTA          000000000000870000000008700000000084000000000000000000008500000008200
0202LOTE PADRAO                   ACESITA     PN *       ACES4       010VISTA          000000000000600000000006000000000057000000000000000000005900142179000
0202LOTE PADRAO                   PETROBRAS   PN         PETR4       010VISTA          000000000045500000000455000000004390000000000000000000443000000063600
0202LOTE PADRAO                   ELETROBRAS  PNB*       ELET6       010VISTA          000000000024500000000246000000002330000000000000000000238000047207600
0202LOTE PADRAO                   PETROBRAS   ON         PETR3       010VISTA          000000000048600000000487000000004750000000000000000000481000000028600
0202LOTE PADRAO                   COMGAS      PNA*       CGAS5       010VISTA          000000000059900000000599000000005590000000000000000000569000001152000
0202LOTE PADRAO                   SOUZA CRUZ  ON EJ      CRUZ3       010VISTA          000000000014900000000150000000001450000000000000000000146000000005200
0202LOTE PADRAO                   ELETROBRAS  ON *       ELET3       010VISTA          000000000027000000000273000000002620000000000000000000263000009878000
0202LOTE PADRAO                   CELESC      PNB        CLSC6       010VISTA          000000000000590000000005900000000057000000000000000000005700000183800
0202LOTE PADRAO                   BRADESCO    PN * EJ    BBDC4       010VISTA          000000000011100000000111000000001080000000000000000000109000289660000
0202LOTE PADRAO                   CESP        PN *       CESP4       010VISTA          000000000008500000000085000000000810000000000000000000083000008402400
0202LOTE PADRAO                   LIGHT       ON *       LIGH3       010VISTA          000000000085200000000869000000008400000000000000000000840000000052700
0202LOTE PADRAO                   TELESP CL PAPN *       TSPP4       010VISTA          000000000003500000000035000000000330000000000000000000034000277894000
0202LOTE PADRAO                   VALE R DOCE PNA        VALE5       010VISTA          000000000067700000000689000000006770000000000000000000685000000038100
0202LOTE PADRAO                   COPEL       PNB*       CPLE6       010VISTA          000000000012000000000120000000001150000000000000000000116000024956000
0202LOTE PADRAO                   VALE R DOCE ON         VALE3       010VISTA          000000000076000000000772000000007600000000000000000000770000000014600
0202LOTE PADRAO                   ARACRUZ     PNB        ARCZ6       010VISTA          000000000005100000000052500000000500000000000000000000052500000128300
0202LOTE PADRAO                   TELEMIG PARTPN *       TMCP4       010VISTA          000000000003200000000032000000000300000000000000000000032000126334000
0202LOTE PADRAO                   BRASIL TELECPN *       BRTO4       010VISTA          000000000011500000000115000000001080000000000000000000111000060898600
0202LOTE PADRAO                   SABESP      ON *       SBSP3       010VISTA          000000000099900000000999000000009440000000000000000000949000002246000
0202LOTE PADRAO                   BRASKEM     PNA*       BRKM5       010VISTA          000000000392000000003920000000038000000000000000000003821000000061500
0202LOTE PADRAO                   EMBRAER     PN EJ      EMBR4       010VISTA          000000000014500000000146000000001410000000000000000000145000000057700
0202LOTE PADRAO                   TELESP      PN * EJ    TLPP4       010VISTA          000000000033100000000331000000003130000000000000000000324000004051300
0202LOTE PADRAO                   EMBRAER     ON EJ      EMBR3       010VISTA          000000000013300000000135000000001300000000000000000000134000000015800
0202LOTE PADRAO                   AMBEV       PN *       AMBV4       010VISTA          000000000446000000004500000000043690000000000000000004404000000805100
0202LOTE PADRAO                   USIMINAS    PNA        USIM5       010VISTA          000000000006200000000062000000000600000000000000000000060000000028500
0202LOTE PADRAO                   ELETROPAULO PN *       ELPL4       010VISTA          000000000044000000000445000000004300000000000000000000440000002979400
0202LOTE PADRAO                   TELE NORD CLPN *       TNEP4       010VISTA          000000000002900000000030000000000280000000000000000000028000133791000
0202LOTE PADRAO                   CEMIG       PN * EJ    CMIG4       010VISTA          000000000030100000000301000000002910000000000000000000296000032898300
0202LOTE PADRAO                   TELE CL SUL PN * EJ    TCSL4       010VISTA          000000000003200000000033000000000310000000000000000000032700070905300
0202LOTE PADRAO                   TRACTEBEL   ON *       TBLE3       010VISTA          000000000004000000000040000000000400000000000000000000040000012170000
0202LOTE PADRAO                   CEMIG       ON * EJ    CMIG3       010VISTA          000000000028600000000286000000002780000000000000000000285000000493600
0202LOTE PADRAO                   TELE CL SUL ON * EJ    TCSL3       010VISTA          000000000002700000000027000000000250000000000000000000026000008470200
0202LOTE PADRAO                   ITAUSA      PN         ITSA4       010VISTA          000000000001800000000018000000000180000000000000000000018000000321600
0202LOTE PADRAO                   V C P       PN *       VCPA4       010VISTA          000000000095200000000955000000009300000000000000000000930000000908500
0202LOTE PADRAO                   SID TUBARAO PN *       CSTB4       010VISTA          000000000026500000000269000000002630000000000000000000266000002758700
0202LOTE PADRAO                   BRADESPAR   PN *       BRAP4       010VISTA          000000000000510000000005100000000049000000000000000000005000074748800
0202LOTE PADRAO                   NET         PN         PLIM4       010VISTA          000000000001770000000017800000000160000000000000000000016000000112900
0202LOTE PADRAO                   TELE CTR OESPN * EJ    TCOC4       010VISTA          000000000004000000000041000000000390000000000000000000040000196723000
0202LOTE PADRAO                   TELEMAR N L PNA* EJ    TMAR5       010VISTA          000000000050000000000500000000004700000000000000000000470000012324800
0202LOTE PADRAO                   GERDAU      PN * EJ    GGBR4       010VISTA          000000000030000000000300000000002850000000000000000000286000006756500
0202LOTE PADRAO                   BRASIL      ON *       BBAS3       010VISTA          000000000009800000000104000000000980000000000000000000102500012364900
