00BDIN9999BOVESPA 99992002052720020527
0101IBOVESPA                      0125780125280127080000000000000000002002052700000020020527012698000000
0202LOTE PADRAO                   EMBRATEL PARPN *       EBTP4       010VISTA          000000000004600000000046000000000450000000000000000000046000084398800
0202LOTE PADRAO                   TRAN PAULISTPN * EJ    TRPL4       010VISTA          000000000006100000000064000000000610000000000000000000063000013355600
0202LOTE PADRAO                   EMBRATEL PARON *       EBTP3       010VISTA          000000000006300000000064000000000620000000000000000000063000023102600
0202LOTE PADRAO                   TELEMAR     PN * EJ    TNLP4       010VISTA          000000000030100000000305000000002980000000000000000000305000167813000
0202LOTE PADRAO                   ITAUBANCO   PN * EJ    ITAU4       010VISTA          000000000177000000001779000000017550000000000000000001755000003919600
0202LOTE PADRAO                   TELEMAR     ON * EJ    TNLP3       010VISTA          000000000025800000000261000000002530000000000000000000261000007877200
0202LOTE PADRAO                   SID NACIONALON *       CSNA3       010VISTA          000000000049600000000503000000004960000000000000000000499000018705400
0202LOTE PADRAO                   TELE LEST CLPN *       TLCP4       010VISTA          000000000000640000000006700000000064000000000000000000006600259435000
0202LOTE PADRAO                   CRT CELULAR PNA* EJ    CRTP5       010VISTA          000000000394000000003950000000037600000000000000000003840000000817100
0202LOTE PADRAO                   IPIRANGA PETPN *       PTIP4       010VISTA          000000000013500000000140000000001350000000000000000000136000003308100
0202LOTE PADRAO                   BRASIL T PARPN *       BRTP4       010VISTA          000000000017300000000173000000001660000000000000000000171000015795500
0202LOTE PADRAO                   BRASIL T PARON *       BRTP3       010VISTA          000000000016100000000161000000001530000000000000000000161000002371000
0202LOTE PADRAO                   KLABIN S/A  PN         KLBN4       010VISTA          000000000001000000000011000000000100000000000000000000010000000025900
0202LOTE PADRAO                   ACESITA     PN *       ACES4       010VISTA          000000000000660000000006600000000065000000000000000000006500101011000
0202LOTE PADRAO                   PETROBRAS   PN         PETR4       010VISTA          000000000055100000000558000000005510000000000000000000558000000026700
0202LOTE PADRAO                   ELETROBRAS  PNB*       ELET6       010VISTA          000000000030300000000306000000002960000000000000000000300000045106200
0202LOTE PADRAO                   PETROBRAS   ON         PETR3       010VISTA          000000000059700000000599000000005930000000000000000000599000000020400
0202LOTE PADRAO                   COMGAS      PNA*       CGAS5       010VISTA          000000000073700000000745000000007350000000000000000000735000000274800
0202LOTE PADRAO                   SOUZA CRUZ  ON EJ      CRUZ3       010VISTA          000000000016000000000161000000001560000000000000000000156000000010600
0202LOTE PADRAO                   ELETROBRAS  ON *       ELET3       010VISTA          000000000034000000000340000000003275000000000000000000328000004907200
0202LOTE PADRAO                   CELESC      PNB        CLSC6       010VISTA          000000000000550000000005500000000053000000000000000000005400000160400
0202LOTE PADRAO                   BRADESCO    PN * EJ    BBDC4       010VISTA          000000000012800000000129000000001260000000000000000000129000051793300
0202LOTE PADRAO                   CESP        PN *       CESP4       010VISTA          000000000010700000000110000000001050000000000000000000108000005323800
0202LOTE PADRAO                   LIGHT       ON *       LIGH3       010VISTA          000000000097000000000970000000009500000000000000000000950000000162000
0202LOTE PADRAO                   TELESP CL PAPN *       TSPP4       010VISTA          000000000005300000000053000000000500000000000000000000053000153093000
0202LOTE PADRAO                   VALE R DOCE PNA        VALE5       010VISTA          000000000071500000000717000000007120000000000000000000714000000022400
0202LOTE PADRAO                   COPEL       PNB*       CPLE6       010VISTA          000000000015100000000155000000001510000000000000000000154000032489200
0202LOTE PADRAO                   VALE R DOCE ON         VALE3       010VISTA          000000000071000000000718000000007100000000000000000000715000000018800
0202LOTE PADRAO                   ARACRUZ     PNB        ARCZ6       010VISTA          000000000005800000000058000000000550000000000000000000055000000037500
0202LOTE PADRAO                   TELEMIG PARTPN *       TMCP4       010VISTA          000000000002700000000029000000000270000000000000000000029000166712000
0202LOTE PADRAO                   BRASIL TELECPN *       BRTO4       010VISTA          000000000012000000000122000000001200000000000000000000121000071762100
0202LOTE PADRAO                   SABESP      ON *       SBSP3       010VISTA          000000000112400000001145000000011200000000000000000001129000001303900
0202LOTE PADRAO                   BRASKEM     PNA*       BRKM5       010VISTA          000000000450000000004500000000044100000000000000000004410000000045100
0202LOTE PADRAO                   EMBRAER     PN EJ      EMBR4       010VISTA          000000000014100000000143000000001410000000000000000000141000000051000
0202LOTE PADRAO                   TELESP      PN * EJ    TLPP4       010VISTA          000000000032600000000330000000003230000000000000000000330000006482500
0202LOTE PADRAO                   EMBRAER     ON EJ      EMBR3       010VISTA          000000000012900000000130000000001270000000000000000000128000000011900
0202LOTE PADRAO                   AMBEV       PN *       AMBV4       010VISTA          000000000482000000004860000000047800000000000000000004780000000734400
0202LOTE PADRAO                   USIMINAS    PNA        USIM5       010VISTA          000000000007400000000075000000000700000000000000000000073000000010500
0202LOTE PADRAO                   ELETROPAULO PN *       ELPL4       010VISTA          000000000052000000000520000000005140000000000000000000519000003404600
0202LOTE PADRAO                   TELE NORD CLPN *       TNEP4       010VISTA          000000000002500000000025400000000248000000000000000000025000080216500
0202LOTE PADRAO                   CEMIG       PN * EJ    CMIG4       010VISTA          000000000033600000000346000000003340000000000000000000343000024471300
0202LOTE PADRAO                   TELE CL SUL PN * EJ    TCSL4       010VISTA          000000000003000000000030000000000300000000000000000000030000024255200
0202LOTE PADRAO                   TRACTEBEL   ON *       TBLE3       010VISTA          000000000003900000000040000000000380000000000000000000040000006215000
0202LOTE PADRAO                   CEMIG       ON * EJ    CMIG3       010VISTA          000000000030000000000316000000003000000000000000000000310000003111500
0202LOTE PADRAO                   TELE CL SUL ON * EJ    TCSL3       010VISTA          000000000002600000000027000000000260000000000000000000026000015831200
0202LOTE PADRAO                   ITAUSA      PN         ITSA4       010VISTA          000000000002100000000021000000000200000000000000000000020000000345100
0202LOTE PADRAO                   V C P       PN *       VCPA4       010VISTA          000000000104000000001040000000010200000000000000000001025000000686400
0202LOTE PADRAO                   SID TUBARAO PN *       CSTB4       010VISTA          000000000029200000000292000000002880000000000000000000288000002583600
0202LOTE PADRAO                   BRADESPAR   PN *       BRAP4       010VISTA          000000000000610000000006200000000060000000000000000000006200220167000
0202LOTE PADRAO                   NET         PN         PLIM4       010VISTA          000000000000350000000003600000000033000000000000000000003500000791600
0202LOTE PADRAO                   TELE CTR OESPN * EJ    TCOC4       010VISTA          000000000004400000000045000000000440000000000000000000045400067987300
0202LOTE PADRAO                   TELEMAR N L PNA* EJ    TMAR5       010VISTA          000000000051100000000520000000005100000000000000000000520000029780000
0202LOTE PADRAO                   GERDAU      PN * EJ    GGBR4       010VISTA          000000000031800000000329000000003150000000000000000000316000010320400
0202LOTE PADRAO                   BRASIL      ON *       BBAS3       010VISTA          000000000012500000000125000000001210000000000000000000124000001038000
