00BDIN9999BOVESPA 99992002050820020508
0101IBOVESPA                      0123530123530126640000000000000000002002050800000020020508012617000000
0202LOTE PADRAO                   EMBRATEL PARPN *       EBTP4       010VISTA          000000000005300000000054000000000490000000000000000000053000408398000
0202LOTE PADRAO                   TRAN PAULISTPN * EJ    TRPL4       010VISTA          000000000006100000000061000000000590000000000000000000060000007489500
0202LOTE PADRAO                   EMBRATEL PARON *       EBTP3       010VISTA          000000000007250000000073000000000670000000000000000000071000029744800
0202LOTE PADRAO                   TELEMAR     PN * EJ    TNLP4       010VISTA          000000000028900000000296000000002890000000000000000000294000278011000
0202LOTE PADRAO                   ITAUBANCO   PN * EJ    ITAU4       010VISTA          000000000181000000001850000000018020000000000000000001830000010800800
0202LOTE PADRAO                   TELEMAR     ON * EJ    TNLP3       010VISTA          000000000025000000000253000000002500000000000000000000253000011795200
0202LOTE PADRAO                   SID NACIONALON *       CSNA3       010VISTA          000000000042900000000432000000004230000000000000000000432000042893800
0202LOTE PADRAO                   TELE LEST CLPN *       TLCP4       010VISTA          000000000000770000000007800000000074000000000000000000007500065696300
0202LOTE PADRAO                   CRT CELULAR PNA* EJ    CRTP5       010VISTA          000000000415000000004295000000041500000000000000000004221000001050300
0202LOTE PADRAO                   IPIRANGA PETPN *       PTIP4       010VISTA          000000000013900000000140000000001380000000000000000000140000009499700
0202LOTE PADRAO                   BRASIL T PARPN *       BRTP4       010VISTA          000000000016800000000174000000001680000000000000000000174000043424300
0202LOTE PADRAO                   BRASIL T PARON *       BRTP3       010VISTA          000000000016100000000163000000001590000000000000000000161000009241600
0202LOTE PADRAO                   KLABIN S/A  PN         KLBN4       010VISTA          000000000000990000000010000000000099000000000000000000010000000013700
0202LOTE PADRAO                   ACESITA     PN *       ACES4       010VISTA          000000000000690000000007200000000068000000000000000000007000169768000
0202LOTE PADRAO                   PETROBRAS   PN         PETR4       010VISTA          000000000053000000000546000000005300000000000000000000546000000090400
0202LOTE PADRAO                   ELETROBRAS  PNB*       ELET6       010VISTA          000000000031000000000316000000003080000000000000000000310000046000200
0202LOTE PADRAO                   PETROBRAS   ON         PETR3       010VISTA          000000000056600000000577000000005660000000000000000000576000000031900
0202LOTE PADRAO                   COMGAS      PNA*       CGAS5       010VISTA          000000000076100000000780000000007590000000000000000000771000001992800
0202LOTE PADRAO                   SOUZA CRUZ  ON EJ      CRUZ3       010VISTA          000000000016600000000166000000001630000000000000000000163000000006800
0202LOTE PADRAO                   ELETROBRAS  ON *       ELET3       010VISTA          000000000034000000000340000000003330000000000000000000334000009292600
0202LOTE PADRAO                   CELESC      PNB        CLSC6       010VISTA          000000000000560000000005700000000056000000000000000000005600000388500
0202LOTE PADRAO                   BRADESCO    PN * EJ    BBDC4       010VISTA          000000000013000000000131000000001290000000000000000000130000131770000
0202LOTE PADRAO                   CESP        PN *       CESP4       010VISTA          000000000010500000000105000000000990000000000000000000101000015306200
0202LOTE PADRAO                   LIGHT       ON *       LIGH3       010VISTA          000000000093000000000940000000009300000000000000000000931000000172000
0202LOTE PADRAO                   TELESP CL PAPN *       TSPP4       010VISTA          000000000005400000000055000000000540000000000000000000055000182637000
0202LOTE PADRAO                   VALE R DOCE PNA        VALE5       010VISTA          000000000065700000000672000000006540000000000000000000670000000012500
0202LOTE PADRAO                   COPEL       PNB*       CPLE6       010VISTA          000000000014900000000150000000001450000000000000000000150000050142800
0202LOTE PADRAO                   VALE R DOCE ON         VALE3       010VISTA          000000000066200000000675000000006620000000000000000000675000000019100
0202LOTE PADRAO                   ARACRUZ     PNB        ARCZ6       010VISTA          000000000005100000000052000000000510000000000000000000051000000073000
0202LOTE PADRAO                   TELEMIG PARTPN *       TMCP4       010VISTA          000000000002520000000027300000000252000000000000000000026900217308000
0202LOTE PADRAO                   BRASIL TELECPN *       BRTO4       010VISTA          000000000011900000000122500000001180000000000000000000122500114188000
0202LOTE PADRAO                   SABESP      ON *       SBSP3       010VISTA          000000000126100000001284000000012490000000000000000001268000010370400
0202LOTE PADRAO                   BRASKEM     PNA*       BRKM5       010VISTA          000000000485000000004900000000048000000000000000000004815000000293200
0202LOTE PADRAO                   EMBRAER     PN EJ      EMBR4       010VISTA          000000000014100000000144000000001350000000000000000000141000000145900
0202LOTE PADRAO                   TELESP      PN * EJ    TLPP4       010VISTA          000000000032600000000330000000003230000000000000000000327000007513300
0202LOTE PADRAO                   EMBRAER     ON EJ      EMBR3       010VISTA          000000000012900000000130000000001240000000000000000000127000000032000
0202LOTE PADRAO                   AMBEV       PN *       AMBV4       010VISTA          000000000494000000004999000000049400000000000000000004970000001646100
0202LOTE PADRAO                   USIMINAS    PNA        USIM5       010VISTA          000000000007300000000074000000000720000000000000000000074000000028500
0202LOTE PADRAO                   ELETROPAULO PN *       ELPL4       010VISTA          000000000050500000000518000000005050000000000000000000517000001419900
0202LOTE PADRAO                   TELE NORD CLPN *       TNEP4       010VISTA          000000000002300000000024000000000230000000000000000000024000138594000
0202LOTE PADRAO                   CEMIG       PN * EJ    CMIG4       010VISTA          000000000033400000000350000000003290000000000000000000345000035196900
0202LOTE PADRAO                   TELE CL SUL PN * EJ    TCSL4       010VISTA          000000000002800000000029000000000281000000000000000000028000067828200
0202LOTE PADRAO                   TRACTEBEL   ON *       TBLE3       010VISTA          000000000004000000000042000000000400000000000000000000042000007452800
0202LOTE PADRAO                   CEMIG       ON * EJ    CMIG3       010VISTA          000000000030000000000306000000002960000000000000000000299000000188600
0202LOTE PADRAO                   TELE CL SUL ON * EJ    TCSL3       010VISTA          000000000002300000000025000000000230000000000000000000024000022072500
0202LOTE PADRAO                   ITAUSA      PN         ITSA4       010VISTA          000000000002250000000022000000000220000000000000000000022500000410700
0202LOTE PADRAO                   V C P       PN *       VCPA4       010VISTA          000000000094900000000960000000009450000000000000000000950000001531500
0202LOTE PADRAO                   SID TUBARAO PN *       CSTB4       010VISTA          000000000026500000000271000000002650000000000000000000270000006575500
0202LOTE PADRAO                   BRADESPAR   PN *       BRAP4       010VISTA          000000000000620000000006300000000061000000000000000000006100173794000
0202LOTE PADRAO                   NET         PN         PLIM4       010VISTA          000000000000310000000003200000000030000000000000000000003000001572700
0202LOTE PADRAO                   TELE CTR OESPN * EJ    TCOC4       010VISTA          000000000004500000000047000000000454000000000000000000046000070718700
0202LOTE PADRAO                   TELEMAR N L PNA* EJ    TMAR5       010VISTA          000000000050000000000518000000005000000000000000000000518000018847100
0202LOTE PADRAO                   GERDAU      PN * EJ    GGBR4       010VISTA          000000000029000000000296000000002880000000000000000000295000006067600
0202LOTE PADRAO                   BRASIL      ON *       BBAS3       010VISTA          000000000011900000000123000000001190000000000000000000122000010239500
