00BDIN9999BOVESPA 99992002121020021210
0101IBOVESPA                      0103450103070104970000000000000000002002121000000020021210010331000000
0202LOTE PADRAO                   EMBRATEL PARPN *       EBTP4       010VISTA          000000000003710000000037500000000340000000000000000000034000611226000
0202LOTE PADRAO                   TRAN PAULISTPN * EJ    TRPL4       010VISTA          000000000005100000000051000000000500000000000000000000050000005233200
0202LOTE PADRAO                   EMBRATEL PARON *       EBTP3       010VISTA          000000000004300000000044000000000410000000000000000000041000052836200
0202LOTE PADRAO                   TELEMAR     PN * EJ    TNLP4       010VISTA          000000000026300000000264000000002580000000000000000000258000252446000
0202LOTE PADRAO                   ITAUBANCO   PN * EJ    ITAU4       010VISTA          000000000151000000001529000000015000000000000000000001515000003771600
0202LOTE PADRAO                   TELEMAR     ON * EJ    TNLP3       010VISTA          000000000018600000000188000000001860000000000000000000186000013877700
0202LOTE PADRAO                   SID NACIONALON *       CSNA3       010VISTA          000000000050000000000502000000004950000000000000000000497000017647600
0202LOTE PADRAO                   TELE LEST CLPN *       TLCP4       010VISTA          000000000000420000000004300000000041000000000000000000004100212437000
0202LOTE PADRAO                   CRT CELULAR PNA* EJ    CRTP5       010VISTA          000000000307800000003078000000029700000000000000000002985000002139200
0202LOTE PADRAO                   IPIRANGA PETPN *       PTIP4       010VISTA          000000000007000000000070000000000690000000000000000000069000006234300
0202LOTE PADRAO                   BRASIL T PARPN *       BRTP4       010VISTA          000000000017100000000173000000001700000000000000000000170000032470100
0202LOTE PADRAO                   BRASIL T PARON *       BRTP3       010VISTA          000000000013400000000136000000001340000000000000000000136000013562700
0202LOTE PADRAO                   KLABIN S/A  PN         KLBN4       010VISTA          000000000000950000000009800000000094000000000000000000009500000016900
0202LOTE PADRAO                   ACESITA     PN *       ACES4       010VISTA          000000000000890000000009000000000085000000000000000000008500207764000
0202LOTE PADRAO                   PETROBRAS   PN         PETR4       010VISTA          000000000044000000000445000000004320000000000000000000433000000058000
0202LOTE PADRAO                   ELETROBRAS  PNB*       ELET6       010VISTA          000000000018900000000189000000001830000000000000000000185000032884500
0202LOTE PADRAO                   PETROBRAS   ON         PETR3       010VISTA          000000000048500000000486000000004780000000000000000000478000000023000
0202LOTE PADRAO                   COMGAS      PNA*       CGAS5       010VISTA          000000000048100000000482000000004770000000000000000000480000000376200
0202LOTE PADRAO                   SOUZA CRUZ  ON EJ      CRUZ3       010VISTA          000000000018100000000183000000001800000000000000000000181000000005800
0202LOTE PADRAO                   ELETROBRAS  ON *       ELET3       010VISTA          000000000019600000000196000000001900000000000000000000192500028535700
0202LOTE PADRAO                   CELESC      PNB        CLSC6       010VISTA          000000000000470000000004700000000046000000000000000000004700000029700
0202LOTE PADRAO                   BRADESCO    PN * EJ    BBDC4       010VISTA          000000000009100000000092000000000890000000000000000000090000184576000
0202LOTE PADRAO                   CESP        PN *       CESP4       010VISTA          000000000006500000000065000000000640000000000000000000065000002432000
0202LOTE PADRAO                   LIGHT       ON *       LIGH3       010VISTA          000000000047400000000474000000004600000000000000000000467000000122100
0202LOTE PADRAO                   TELESP CL PAPN *       TSPP4       010VISTA          000000000003700000000037000000000360000000000000000000036000212018000
0202LOTE PADRAO                   VALE R DOCE PNA        VALE5       010VISTA          000000000099500000001010000000009850000000000000000001010000000020300
0202LOTE PADRAO                   COPEL       PNB*       CPLE6       010VISTA          000000000007400000000074000000000720000000000000000000072000030708200
0202LOTE PADRAO                   VALE R DOCE ON         VALE3       010VISTA          000000000104500000001075000000010400000000000000000001075000000011200
0202LOTE PADRAO                   ARACRUZ     PNB        ARCZ6       010VISTA          000000000006200000000064000000000610000000000000000000064000000020000
0202LOTE PADRAO                   TELEMIG PARTPN *       TMCP4       010VISTA          000000000002800000000028000000000281000000000000000000028000046755700
0202LOTE PADRAO                   BRASIL TELECPN *       BRTO4       010VISTA          000000000011100000000112000000001100000000000000000000111000033095600
0202LOTE PADRAO                   SABESP      ON *       SBSP3       010VISTA          000000000077500000000785000000007590000000000000000000759000003662300
0202LOTE PADRAO                   BRASKEM     PNA*       BRKM5       010VISTA          000000000200000000002055000000020000000000000000000002000000000293000
0202LOTE PADRAO                   EMBRAER     PN EJ      EMBR4       010VISTA          000000000013700000000138000000001370000000000000000000138000000072400
0202LOTE PADRAO                   TELESP      PN * EJ    TLPP4       010VISTA          000000000036000000000361000000003580000000000000000000361000007126400
0202LOTE PADRAO                   EMBRAER     ON EJ      EMBR3       010VISTA          000000000012600000000126000000001250000000000000000000125000000004500
0202LOTE PADRAO                   AMBEV       PN *       AMBV4       010VISTA          000000000530000000005365000000053000000000000000000005335000000884600
0202LOTE PADRAO                   USIMINAS    PNA        USIM5       010VISTA          000000000005900000000059000000000580000000000000000000058000000022700
0202LOTE PADRAO                   ELETROPAULO PN *       ELPL4       010VISTA          000000000024000000000240000000002210000000000000000000221000008785000
0202LOTE PADRAO                   TELE NORD CLPN *       TNEP4       010VISTA          000000000002700000000028000000000270000000000000000000028000055809800
0202LOTE PADRAO                   CEMIG       PN * EJ    CMIG4       010VISTA          000000000022800000000233000000002250000000000000000000228000032148500
0202LOTE PADRAO                   TELE CL SUL PN * EJ    TCSL4       010VISTA          000000000002700000000027000000000260000000000000000000027000079997800
0202LOTE PADRAO                   TRACTEBEL   ON *       TBLE3       010VISTA          000000000003250000000032000000000320000000000000000000032000001600000
0202LOTE PADRAO                   CEMIG       ON * EJ    CMIG3       010VISTA          000000000021000000000210000000002060000000000000000000206000000060000
0202LOTE PADRAO                   TELE CL SUL ON * EJ    TCSL3       010VISTA          000000000001900000000019500000000180000000000000000000018000020056600
0202LOTE PADRAO                   ITAUSA      PN         ITSA4       010VISTA          000000000001760000000017600000000173000000000000000000017300000250200
0202LOTE PADRAO                   V C P       PN *       VCPA4       010VISTA          000000000117000000001185000000011650000000000000000001175000001063400
0202LOTE PADRAO                   SID TUBARAO PN *       CSTB4       010VISTA          000000000035900000000361000000003575000000000000000000361000002414000
0202LOTE PADRAO                   BRADESPAR   PN *       BRAP4       010VISTA          000000000000470000000004700000000046000000000000000000004700119278000
0202LOTE PADRAO                   NET         PN         PLIM4       010VISTA          000000000000390000000003900000000036000000000000000000003700000602200
0202LOTE PADRAO                   TELE CTR OESPN * EJ    TCOC4       010VISTA          000000000004300000000043000000000430000000000000000000043000027053900
0202LOTE PADRAO                   TELEMAR N L PNA* EJ    TMAR5       010VISTA          000000000042000000000420000000004110000000000000000000418000013120200
0202LOTE PADRAO                   GERDAU      PN * EJ    GGBR4       010VISTA          000000000031600000000318000000003130000000000000000000318000010604400
0202LOTE PADRAO                   BRASIL      ON *       BBAS3       010VISTA          000000000009400000000096000000000940000000000000000000095000018065800
