00BDIN9999BOVESPA 99992002050720020507
0101IBOVESPA                      0124330122910126310000000000000000002002050700000020020507012342000000
0202LOTE PADRAO                   EMBRATEL PARPN *       EBTP4       010VISTA          000000000005500000000056000000000525000000000000000000052500177017000
0202LOTE PADRAO                   TRAN PAULISTPN * EJ    TRPL4       010VISTA          000000000005900000000061000000000590000000000000000000060000013293600
0202LOTE PADRAO                   EMBRATEL PARON *       EBTP3       010VISTA          000000000007500000000075000000000700000000000000000000070000042168100
0202LOTE PADRAO                   TELEMAR     PN * EJ    TNLP4       010VISTA          000000000029000000000293000000002860000000000000000000287500182096000
0202LOTE PADRAO                   ITAUBANCO   PN * EJ    ITAU4       010VISTA          000000000180000000001820000000017900000000000000000001805000006949800
0202LOTE PADRAO                   TELEMAR     ON * EJ    TNLP3       010VISTA          000000000025000000000251000000002450000000000000000000247500008504100
0202LOTE PADRAO                   SID NACIONALON *       CSNA3       010VISTA          000000000043000000000430000000004110000000000000000000420000077604800
0202LOTE PADRAO                   TELE LEST CLPN *       TLCP4       010VISTA          000000000000790000000008100000000076000000000000000000007600185646000
0202LOTE PADRAO                   CRT CELULAR PNA* EJ    CRTP5       010VISTA          000000000410000000004300000000039800000000000000000004150000000207900
0202LOTE PADRAO                   IPIRANGA PETPN *       PTIP4       010VISTA          000000000014400000000144000000001380000000000000000000138000001309000
0202LOTE PADRAO                   BRASIL T PARPN *       BRTP4       010VISTA          000000000017000000000171000000001630000000000000000000165000057257700
0202LOTE PADRAO                   BRASIL T PARON *       BRTP3       010VISTA          000000000016200000000163000000001600000000000000000000160000011981200
0202LOTE PADRAO                   KLABIN S/A  PN         KLBN4       010VISTA          000000000001000000000010000000000097000000000000000000009900000052000
0202LOTE PADRAO                   ACESITA     PN *       ACES4       010VISTA          000000000000700000000007200000000068000000000000000000006800110118000
0202LOTE PADRAO                   PETROBRAS   PN         PETR4       010VISTA          000000000053000000000542000000005270000000000000000000530000000067800
0202LOTE PADRAO                   ELETROBRAS  PNB*       ELET6       010VISTA          000000000031500000000315000000003060000000000000000000310000050796400
0202LOTE PADRAO                   PETROBRAS   ON         PETR3       010VISTA          000000000056700000000567000000005570000000000000000000561000000057900
0202LOTE PADRAO                   COMGAS      PNA*       CGAS5       010VISTA          000000000073400000000770000000007300000000000000000000740000001501000
0202LOTE PADRAO                   SOUZA CRUZ  ON EJ      CRUZ3       010VISTA          000000000016600000000166000000001620000000000000000000165000000011200
0202LOTE PADRAO                   ELETROBRAS  ON *       ELET3       010VISTA          000000000034000000000340000000003310000000000000000000335000025298000
0202LOTE PADRAO                   CELESC      PNB        CLSC6       010VISTA          000000000000540000000005600000000054000000000000000000005500000321000
0202LOTE PADRAO                   BRADESCO    PN * EJ    BBDC4       010VISTA          000000000012800000000130000000001280000000000000000000130000145358000
0202LOTE PADRAO                   CESP        PN *       CESP4       010VISTA          000000000011000000000111000000001010000000000000000000101000009427100
0202LOTE PADRAO                   LIGHT       ON *       LIGH3       010VISTA          000000000091500000000920000000009020000000000000000000903000000186900
0202LOTE PADRAO                   TELESP CL PAPN *       TSPP4       010VISTA          000000000005500000000056000000000540000000000000000000054000168862000
0202LOTE PADRAO                   VALE R DOCE PNA        VALE5       010VISTA          000000000066500000000667000000006550000000000000000000656000000021600
0202LOTE PADRAO                   COPEL       PNB*       CPLE6       010VISTA          000000000015000000000150000000001440000000000000000000144000056734400
0202LOTE PADRAO                   VALE R DOCE ON         VALE3       010VISTA          000000000066700000000667000000006600000000000000000000662000000033000
0202LOTE PADRAO                   ARACRUZ     PNB        ARCZ6       010VISTA          000000000005250000000052500000000500000000000000000000051000000040800
0202LOTE PADRAO                   TELEMIG PARTPN *       TMCP4       010VISTA          000000000002400000000025000000000240000000000000000000025000157209000
0202LOTE PADRAO                   BRASIL TELECPN *       BRTO4       010VISTA          000000000011800000000119000000001160000000000000000000117000079061500
0202LOTE PADRAO                   SABESP      ON *       SBSP3       010VISTA          000000000129000000001299000000012500000000000000000001259000002816400
0202LOTE PADRAO                   BRASKEM     PNA*       BRKM5       010VISTA          000000000485000000004900000000048000000000000000000004820000000161600
0202LOTE PADRAO                   EMBRAER     PN EJ      EMBR4       010VISTA          000000000014100000000143000000001410000000000000000000142000000064400
0202LOTE PADRAO                   TELESP      PN * EJ    TLPP4       010VISTA          000000000031600000000323000000003000000000000000000000318000012509200
0202LOTE PADRAO                   EMBRAER     ON EJ      EMBR3       010VISTA          000000000012600000000130000000001260000000000000000000129000000030400
0202LOTE PADRAO                   AMBEV       PN *       AMBV4       010VISTA          000000000494900000004949000000049000000000000000000004930000001014200
0202LOTE PADRAO                   USIMINAS    PNA        USIM5       010VISTA          000000000007750000000077000000000720000000000000000000072000000083400
0202LOTE PADRAO                   ELETROPAULO PN *       ELPL4       010VISTA          000000000053000000000539000000005040000000000000000000507000004239100
0202LOTE PADRAO                   TELE NORD CLPN *       TNEP4       010VISTA          000000000002300000000024000000000220000000000000000000023000169088000
0202LOTE PADRAO                   CEMIG       PN * EJ    CMIG4       010VISTA          000000000034200000000343000000003280000000000000000000332000032186400
0202LOTE PADRAO                   TELE CL SUL PN * EJ    TCSL4       010VISTA          000000000002800000000029000000000270000000000000000000027000122974000
0202LOTE PADRAO                   TRACTEBEL   ON *       TBLE3       010VISTA          000000000004100000000041000000000400000000000000000000040000020037900
0202LOTE PADRAO                   CEMIG       ON * EJ    CMIG3       010VISTA          000000000030100000000301000000002950000000000000000000300000000352000
0202LOTE PADRAO                   TELE CL SUL ON * EJ    TCSL3       010VISTA          000000000002400000000024000000000230000000000000000000023000017394800
0202LOTE PADRAO                   ITAUSA      PN         ITSA4       010VISTA          000000000002250000000022700000000220000000000000000000022000000351500
0202LOTE PADRAO                   V C P       PN *       VCPA4       010VISTA          000000000093700000000950000000009340000000000000000000950000003453000
0202LOTE PADRAO                   SID TUBARAO PN *       CSTB4       010VISTA          000000000028000000000280000000002610000000000000000000262500017886800
0202LOTE PADRAO                   BRADESPAR   PN *       BRAP4       010VISTA          000000000000650000000006500000000060000000000000000000006100174171000
0202LOTE PADRAO                   NET         PN         PLIM4       010VISTA          000000000000300000000003100000000029000000000000000000003000001730000
0202LOTE PADRAO                   TELE CTR OESPN * EJ    TCOC4       010VISTA          000000000004500000000045000000000440000000000000000000044000098103700
0202LOTE PADRAO                   TELEMAR N L PNA* EJ    TMAR5       010VISTA          000000000049700000000510000000004950000000000000000000495000032053600
0202LOTE PADRAO                   GERDAU      PN * EJ    GGBR4       010VISTA          000000000028800000000291000000002860000000000000000000286000011295900
0202LOTE PADRAO                   BRASIL      ON *       BBAS3       010VISTA          000000000012600000000129000000001160000000000000000000116000039084900
