00BDIN9999BOVESPA 99992002120220021202
0101IBOVESPA                      0105170105170107350000000000000000002002120200000020021202010674000000
0202LOTE PADRAO                   EMBRATEL PARPN *       EBTP4       010VISTA          000000000003000000000031000000000300000000000000000000031000484856000
0202LOTE PADRAO                   TRAN PAULISTPN * EJ    TRPL4       010VISTA          000000000005250000000052000000000510000000000000000000051000034772200
0202LOTE PADRAO                   EMBRATEL PARON *       EBTP3       010VISTA          000000000003600000000037900000000350000000000000000000037300028385500
0202LOTE PADRAO                   TELEMAR     PN * EJ    TNLP4       010VISTA          000000000027100000000276000000002710000000000000000000275000327794000
0202LOTE PADRAO                   ITAUBANCO   PN * EJ    ITAU4       010VISTA          000000000157500000001590000000015260000000000000000001567000017998500
0202LOTE PADRAO                   TELEMAR     ON * EJ    TNLP3       010VISTA          000000000020000000000203000000002000000000000000000000200000014475900
0202LOTE PADRAO                   SID NACIONALON *       CSNA3       010VISTA          000000000048300000000493000000004800000000000000000000480000028377800
0202LOTE PADRAO                   TELE LEST CLPN *       TLCP4       010VISTA          000000000000430000000004400000000042000000000000000000004300130570000
0202LOTE PADRAO                   CRT CELULAR PNA* EJ    CRTP5       010VISTA          000000000315000000003180000000031250000000000000000003140000000499900
0202LOTE PADRAO                   IPIRANGA PETPN *       PTIP4       010VISTA          000000000007000000000072000000000700000000000000000000072000002763700
0202LOTE PADRAO                   BRASIL T PARPN *       BRTP4       010VISTA          000000000018400000000188000000001830000000000000000000187000064551400
0202LOTE PADRAO                   BRASIL T PARON *       BRTP3       010VISTA          000000000014500000000145000000001380000000000000000000141000003010900
0202LOTE PADRAO                   KLABIN S/A  PN         KLBN4       010VISTA          000000000001000000000010000000000098000000000000000000010000000014600
0202LOTE PADRAO                   ACESITA     PN *       ACES4       010VISTA          000000000000830000000008400000000082000000000000000000008400139902000
0202LOTE PADRAO                   PETROBRAS   PN         PETR4       010VISTA          000000000044500000000452000000004425000000000000000000447000000086200
0202LOTE PADRAO                   ELETROBRAS  PNB*       ELET6       010VISTA          000000000019500000000196000000001930000000000000000000196000046425700
0202LOTE PADRAO                   PETROBRAS   ON         PETR3       010VISTA          000000000049000000000490000000004800000000000000000000488000000024300
0202LOTE PADRAO                   COMGAS      PNA*       CGAS5       010VISTA          000000000055400000000554000000005320000000000000000000532000000731500
0202LOTE PADRAO                   SOUZA CRUZ  ON EJ      CRUZ3       010VISTA          000000000018000000000183000000001800000000000000000000182000000009000
0202LOTE PADRAO                   ELETROBRAS  ON *       ELET3       010VISTA          000000000020500000000205000000002010000000000000000000203000018827000
0202LOTE PADRAO                   CELESC      PNB        CLSC6       010VISTA          000000000000480000000004900000000048000000000000000000004900000157600
0202LOTE PADRAO                   BRADESCO    PN * EJ    BBDC4       010VISTA          000000000009500000000098000000000950000000000000000000097000251904000
0202LOTE PADRAO                   CESP        PN *       CESP4       010VISTA          000000000007000000000070000000000650000000000000000000067000021251600
0202LOTE PADRAO                   LIGHT       ON *       LIGH3       010VISTA          000000000050800000000514000000004920000000000000000000504000000302100
0202LOTE PADRAO                   TELESP CL PAPN *       TSPP4       010VISTA          000000000003900000000040000000000380000000000000000000039800319829000
0202LOTE PADRAO                   VALE R DOCE PNA        VALE5       010VISTA          000000000093200000000942000000009220000000000000000000940000000022600
0202LOTE PADRAO                   COPEL       PNB*       CPLE6       010VISTA          000000000007800000000079000000000740000000000000000000075000062489700
0202LOTE PADRAO                   VALE R DOCE ON         VALE3       010VISTA          000000000099000000001029000000009820000000000000000001015000000018100
0202LOTE PADRAO                   ARACRUZ     PNB        ARCZ6       010VISTA          000000000006100000000061000000000590000000000000000000059000000054100
0202LOTE PADRAO                   TELEMIG PARTPN *       TMCP4       010VISTA          000000000002900000000030000000000296000000000000000000030000061006300
0202LOTE PADRAO                   BRASIL TELECPN *       BRTO4       010VISTA          000000000011500000000119000000001150000000000000000000119000084864400
0202LOTE PADRAO                   SABESP      ON *       SBSP3       010VISTA          000000000083400000000840000000008250000000000000000000825000010035500
0202LOTE PADRAO                   BRASKEM     PNA*       BRKM5       010VISTA          000000000199800000002080000000019980000000000000000002080000000232200
0202LOTE PADRAO                   EMBRAER     PN EJ      EMBR4       010VISTA          000000000013500000000140000000001350000000000000000000138000000098300
0202LOTE PADRAO                   TELESP      PN * EJ    TLPP4       010VISTA          000000000036500000000370000000003600000000000000000000360000008312700
0202LOTE PADRAO                   EMBRAER     ON EJ      EMBR3       010VISTA          000000000012500000000129000000001250000000000000000000127000000023500
0202LOTE PADRAO                   AMBEV       PN *       AMBV4       010VISTA          000000000555000000005550000000054200000000000000000005420000001269300
0202LOTE PADRAO                   USIMINAS    PNA        USIM5       010VISTA          000000000006100000000062000000000610000000000000000000062000000044100
0202LOTE PADRAO                   ELETROPAULO PN *       ELPL4       010VISTA          000000000023900000000247000000002350000000000000000000243000007067500
0202LOTE PADRAO                   TELE NORD CLPN *       TNEP4       010VISTA          000000000002750000000028000000000273000000000000000000027000051022500
0202LOTE PADRAO                   CEMIG       PN * EJ    CMIG4       010VISTA          000000000023900000000245000000002360000000000000000000240000046704800
0202LOTE PADRAO                   TELE CL SUL PN * EJ    TCSL4       010VISTA          000000000002700000000028000000000270000000000000000000027000108502000
0202LOTE PADRAO                   TRACTEBEL   ON *       TBLE3       010VISTA          000000000003300000000033000000000320000000000000000000032000004932300
0202LOTE PADRAO                   CEMIG       ON * EJ    CMIG3       010VISTA          000000000021800000000221000000002120000000000000000000220000001122200
0202LOTE PADRAO                   TELE CL SUL ON * EJ    TCSL3       010VISTA          000000000002000000000021000000000200000000000000000000020000015702600
0202LOTE PADRAO                   ITAUSA      PN         ITSA4       010VISTA          000000000001790000000018000000000179000000000000000000018000000483300
0202LOTE PADRAO                   V C P       PN *       VCPA4       010VISTA          000000000119900000001199000000011600000000000000000001165000000342000
0202LOTE PADRAO                   SID TUBARAO PN *       CSTB4       010VISTA          000000000035500000000365000000003550000000000000000000365000004892100
0202LOTE PADRAO                   BRADESPAR   PN *       BRAP4       010VISTA          000000000000500000000005200000000050000000000000000000005100251290000
0202LOTE PADRAO                   NET         PN         PLIM4       010VISTA          000000000000400000000004100000000036000000000000000000003800001262600
0202LOTE PADRAO                   TELE CTR OESPN * EJ    TCOC4       010VISTA          000000000004750000000049000000000470000000000000000000047000140990000
0202LOTE PADRAO                   TELEMAR N L PNA* EJ    TMAR5       010VISTA          000000000043500000000447000000004350000000000000000000443000032540300
0202LOTE PADRAO                   GERDAU      PN * EJ    GGBR4       010VISTA          000000000032800000000328000000003200000000000000000000326000026336600
0202LOTE PADRAO                   BRASIL      ON *       BBAS3       010VISTA          000000000010100000000101000000000990000000000000000000099000030526900
