00BDIN9999BOVESPA 99992003042420030424
0101IBOVESPA                      0123700121000123830000000000000000002003042400000020030424012120000000
0202LOTE PADRAO                   EMBRATEL PARPN *       EBTP4       010VISTA          000000000004500000000046000000000430000000000000000000043000521587000
0202LOTE PADRAO                   TRAN PAULISTPN * EJ    TRPL4       010VISTA          000000000006400000000065000000000620000000000000000000062500006634900
0202LOTE PADRAO                   EMBRATEL PARON *       EBTP3       010VISTA          000000000005200000000052000000000490000000000000000000049000047728200
0202LOTE PADRAO                   TELEMAR     PN * EJ    TNLP4       010VISTA          000000000030500000000306000000002960000000000000000000296000412436000
0202LOTE PADRAO                   ITAUBANCO   PN * EJ    ITAU4       010VISTA          000000000195000000001968000000019400000000000000000001950000027304400
0202LOTE PADRAO                   TELEMAR     ON * EJ    TNLP3       010VISTA          000000000021800000000218000000002110000000000000000000213000019476400
0202LOTE PADRAO                   SID NACIONALON *       CSNA3       010VISTA          000000000065800000000667000000006540000000000000000000665000048631100
0202LOTE PADRAO                   TELE LEST CLPN *       TLCP4       010VISTA          000000000000450000000004600000000044000000000000000000004400156041000
0202LOTE PADRAO                   CRT CELULAR PNA* EJ    CRTP5       010VISTA          000000000335000000003370000000032800000000000000000003350000000337100
0202LOTE PADRAO                   IPIRANGA PETPN *       PTIP4       010VISTA          000000000008250000000083000000000810000000000000000000081000003926700
0202LOTE PADRAO                   BRASIL T PARPN *       BRTP4       010VISTA          000000000019400000000194000000001910000000000000000000191000038720200
0202LOTE PADRAO                   BRASIL T PARON *       BRTP3       010VISTA          000000000014900000000153000000001450000000000000000000147000007707800
0202LOTE PADRAO                   KLABIN S/A  PN         KLBN4       010VISTA          000000000002000000000020000000000196000000000000000000019800000097300
0202LOTE PADRAO                   ACESITA     PN *       ACES4       010VISTA          000000000001260000000012000000000126000000000000000000012700394407000
0202LOTE PADRAO                   PETROBRAS   PN         PETR4       010VISTA          000000000048400000000490000000004770000000000000000000479000000092500
0202LOTE PADRAO                   ELETROBRAS  PNB*       ELET6       010VISTA          000000000023300000000237000000002310000000000000000000231000033268500
0202LOTE PADRAO                   PETROBRAS   ON         PETR3       010VISTA          000000000052000000000525000000005160000000000000000000522000000028500
0202LOTE PADRAO                   COMGAS      PNA*       CGAS5       010VISTA          000000000053500000000537000000005280000000000000000000528000000458700
0202LOTE PADRAO                   SOUZA CRUZ  ON EJ      CRUZ3       010VISTA          000000000017900000000181000000001775000000000000000000179000000019000
0202LOTE PADRAO                   ELETROBRAS  ON *       ELET3       010VISTA          000000000020800000000213000000002060000000000000000000208000019535200
0202LOTE PADRAO                   CELESC      PNB        CLSC6       010VISTA          000000000000460000000004700000000045000000000000000000004600000220900
0202LOTE PADRAO                   BRADESCO    PN * EJ    BBDC4       010VISTA          000000000012100000000122000000001190000000000000000000121000286424000
0202LOTE PADRAO                   CESP        PN *       CESP4       010VISTA          000000000007700000000080000000000730000000000000000000077000016265400
0202LOTE PADRAO                   LIGHT       ON *       LIGH3       010VISTA          000000000028500000000295000000002800000000000000000000286000001382500
0202LOTE PADRAO                   TELESP CL PAPN *       TSPP4       010VISTA          000000000004600000000047000000000450000000000000000000045000481993000
0202LOTE PADRAO                   VALE R DOCE PNA        VALE5       010VISTA          000000000080700000000807000000007720000000000000000000775000000076200
0202LOTE PADRAO                   COPEL       PNB*       CPLE6       010VISTA          000000000009100000000093000000000890000000000000000000093000115181000
0202LOTE PADRAO                   VALE R DOCE ON         VALE3       010VISTA          000000000083500000000835000000008000000000000000000000809000000004400
0202LOTE PADRAO                   ARACRUZ     PNB        ARCZ6       010VISTA          000000000006500000000066000000000640000000000000000000065000000046600
0202LOTE PADRAO                   TELEMIG PARTPN *       TMCP4       010VISTA          000000000002700000000027000000000260000000000000000000026000046375300
0202LOTE PADRAO                   BRASIL TELECPN *       BRTO4       010VISTA          000000000011900000000119000000001170000000000000000000119000123094000
0202LOTE PADRAO                   SABESP      ON *       SBSP3       010VISTA          000000000096000000000977000000009600000000000000000000974000004687600
0202LOTE PADRAO                   BRASKEM     PNA*       BRKM5       010VISTA          000000000299000000002990000000028710000000000000000002886000000222300
0202LOTE PADRAO                   EMBRAER     PN EJ      EMBR4       010VISTA          000000000010000000000102000000000960000000000000000000099000000111300
0202LOTE PADRAO                   TELESP      PN * EJ    TLPP4       010VISTA          000000000032400000000327000000003180000000000000000000320000011697300
0202LOTE PADRAO                   EMBRAER     ON EJ      EMBR3       010VISTA          000000000008500000000085000000000800000000000000000000082000000020200
0202LOTE PADRAO                   AMBEV       PN *       AMBV4       010VISTA          000000000560300000005680000000056000000000000000000005630000001730500
0202LOTE PADRAO                   USIMINAS    PNA        USIM5       010VISTA          000000000010900000000109000000001050000000000000000000106000000094200
0202LOTE PADRAO                   ELETROPAULO PN *       ELPL4       010VISTA          000000000026900000000285000000002630000000000000000000267500006585600
0202LOTE PADRAO                   TELE NORD CLPN *       TNEP4       010VISTA          000000000002400000000024000000000230000000000000000000023000063007400
0202LOTE PADRAO                   CEMIG       PN * EJ    CMIG4       010VISTA          000000000028300000000291000000002830000000000000000000288000050285900
0202LOTE PADRAO                   TELE CL SUL PN * EJ    TCSL4       010VISTA          000000000002400000000024000000000230000000000000000000023000105851000
0202LOTE PADRAO                   TRACTEBEL   ON *       TBLE3       010VISTA          000000000005200000000052000000000490000000000000000000049000008217600
0202LOTE PADRAO                   CEMIG       ON * EJ    CMIG3       010VISTA          000000000021200000000220000000002120000000000000000000216000004268200
0202LOTE PADRAO                   TELE CL SUL ON * EJ    TCSL3       010VISTA          000000000002300000000023000000000220000000000000000000023000031803600
0202LOTE PADRAO                   ITAUSA      PN         ITSA4       010VISTA          000000000002200000000022000000000220000000000000000000022000000196900
0202LOTE PADRAO                   V C P       PN *       VCPA4       010VISTA          000000000120000000001200000000011600000000000000000001179000001348500
0202LOTE PADRAO                   SID TUBARAO PN *       CSTB4       010VISTA          000000000048700000000487000000004710000000000000000000475000011174600
0202LOTE PADRAO                   BRADESPAR   PN *       BRAP4       010VISTA          000000000000650000000006700000000064000000000000000000006400201838000
0202LOTE PADRAO                   NET         PN         PLIM4       010VISTA          000000000000340000000003500000000033000000000000000000003400000674300
0202LOTE PADRAO                   TELE CTR OESPN * EJ    TCOC4       010VISTA          000000000005600000000057500000000550000000000000000000055000086097800
0202LOTE PADRAO                   TELEMAR N L PNA* EJ    TMAR5       010VISTA          000000000041000000000411000000004010000000000000000000404000013936400
0202LOTE PADRAO                   GERDAU      PN * EJ    GGBR4       010VISTA          000000000032800000000335000000003260000000000000000000332000027006600
0202LOTE PADRAO                   BRASIL      ON *       BBAS3       010VISTA          000000000012600000000127500000001220000000000000000000122000026138600
