00BDIN9999BOVESPA 99992003052320030523
0101IBOVESPA                      0131010130290132460000000000000000002003052300000020030523013143000000
0202LOTE PADRAO                   EMBRATEL PARPN *       EBTP4       010VISTA          000000000004800000000050000000000480000000000000000000050000557356000
0202LOTE PADRAO                   TRAN PAULISTPN * EJ    TRPL4       010VISTA          000000000007100000000075000000000710000000000000000000073000003800800
0202LOTE PADRAO                   EMBRATEL PARON *       EBTP3       010VISTA          000000000005400000000056000000000540000000000000000000056000055047000
0202LOTE PADRAO                   TELEMAR     PN * EJ    TNLP4       010VISTA          000000000034900000000362000000003490000000000000000000356000426508000
0202LOTE PADRAO                   ITAUBANCO   PN * EJ    ITAU4       010VISTA          000000000199600000002056000000019850000000000000000002035000013594300
0202LOTE PADRAO                   TELEMAR     ON * EJ    TNLP3       010VISTA          000000000025300000000261000000002530000000000000000000257500046459100
0202LOTE PADRAO                   SID NACIONALON *       CSNA3       010VISTA          000000000057700000000581000000005620000000000000000000570000014996500
0202LOTE PADRAO                   TELE LEST CLPN *       TLCP4       010VISTA          000000000000430000000004400000000043000000000000000000004400046426400
0202LOTE PADRAO                   CRT CELULAR PNA* EJ    CRTP5       010VISTA          000000000334100000003445000000033410000000000000000003430000000640600
0202LOTE PADRAO                   IPIRANGA PETPN *       PTIP4       010VISTA          000000000008750000000091000000000870000000000000000000089000003958600
0202LOTE PADRAO                   BRASIL T PARPN *       BRTP4       010VISTA          000000000021000000000215000000002100000000000000000000213000039762200
0202LOTE PADRAO                   BRASIL T PARON *       BRTP3       010VISTA          000000000015600000000160000000001560000000000000000000158000004654100
0202LOTE PADRAO                   KLABIN S/A  PN         KLBN4       010VISTA          000000000002500000000027000000000230000000000000000000023000000906600
0202LOTE PADRAO                   ACESITA     PN *       ACES4       010VISTA          000000000001300000000013000000000130000000000000000000013000183368000
0202LOTE PADRAO                   PETROBRAS   PN         PETR4       010VISTA          000000000053200000000538000000005275000000000000000000530000000095900
0202LOTE PADRAO                   ELETROBRAS  PNB*       ELET6       010VISTA          000000000024100000000247000000002410000000000000000000245000021464000
0202LOTE PADRAO                   PETROBRAS   ON         PETR3       010VISTA          000000000057500000000582000000005680000000000000000000575000000034300
0202LOTE PADRAO                   COMGAS      PNA*       CGAS5       010VISTA          000000000056100000000580000000005610000000000000000000580000000418300
0202LOTE PADRAO                   SOUZA CRUZ  ON EJ      CRUZ3       010VISTA          000000000018800000000196000000001880000000000000000000196000000008500
0202LOTE PADRAO                   ELETROBRAS  ON *       ELET3       010VISTA          000000000022300000000228000000002230000000000000000000226000006442000
0202LOTE PADRAO                   CELESC      PNB        CLSC6       010VISTA          000000000000500000000005100000000049000000000000000000005000000051200
0202LOTE PADRAO                   BRADESCO    PN * EJ    BBDC4       010VISTA          000000000011500000000116000000001130000000000000000000113000290800000
0202LOTE PADRAO                   CESP        PN *       CESP4       010VISTA          000000000008400000000087000000000840000000000000000000086000004932000
0202LOTE PADRAO                   LIGHT       ON *       LIGH3       010VISTA          000000000028500000000297000000002850000000000000000000285000000593900
0202LOTE PADRAO                   TELESP CL PAPN *       TSPP4       010VISTA          000000000004500000000046000000000450000000000000000000045000300633000
0202LOTE PADRAO                   VALE R DOCE PNA        VALE5       010VISTA          000000000081500000000818000000008120000000000000000000813000000023000
0202LOTE PADRAO                   COPEL       PNB*       CPLE6       010VISTA          000000000009900000000101000000000990000000000000000000100000043183700
0202LOTE PADRAO                   VALE R DOCE ON         VALE3       010VISTA          000000000086500000000869000000008550000000000000000000869000000007500
0202LOTE PADRAO                   ARACRUZ     PNB        ARCZ6       010VISTA          000000000005500000000055000000000540000000000000000000054000000046300
0202LOTE PADRAO                   TELEMIG PARTPN *       TMCP4       010VISTA          000000000002690000000027500000000260000000000000000000027100054634500
0202LOTE PADRAO                   BRASIL TELECPN *       BRTO4       010VISTA          000000000012500000000127000000001240000000000000000000125000072540900
0202LOTE PADRAO                   SABESP      ON *       SBSP3       010VISTA          000000000103000000001074000000010270000000000000000001061000014494600
0202LOTE PADRAO                   BRASKEM     PNA*       BRKM5       010VISTA          000000000370000000003700000000036000000000000000000003680000000423000
0202LOTE PADRAO                   EMBRAER     PN EJ      EMBR4       010VISTA          000000000010500000000106000000001040000000000000000000105000000049600
0202LOTE PADRAO                   TELESP      PN * EJ    TLPP4       010VISTA          000000000030400000000319000000003040000000000000000000313000022618000
0202LOTE PADRAO                   EMBRAER     ON EJ      EMBR3       010VISTA          000000000008700000000089000000000870000000000000000000087000000008700
0202LOTE PADRAO                   AMBEV       PN *       AMBV4       010VISTA          000000000591000000006090000000059010000000000000000006090000001544900
0202LOTE PADRAO                   USIMINAS    PNA        USIM5       010VISTA          000000000009900000000103000000000990000000000000000000103000000036300
0202LOTE PADRAO                   ELETROPAULO PN *       ELPL4       010VISTA          000000000029000000000294000000002860000000000000000000286000006865700
0202LOTE PADRAO                   TELE NORD CLPN *       TNEP4       010VISTA          000000000002500000000025000000000240000000000000000000025000067866900
0202LOTE PADRAO                   CEMIG       PN * EJ    CMIG4       010VISTA          000000000031250000000314000000003075000000000000000000314000044946100
0202LOTE PADRAO                   TELE CL SUL PN * EJ    TCSL4       010VISTA          000000000002600000000027000000000260000000000000000000026900215911000
0202LOTE PADRAO                   TRACTEBEL   ON *       TBLE3       010VISTA          000000000005000000000051000000000500000000000000000000050000007012600
0202LOTE PADRAO                   CEMIG       ON * EJ    CMIG3       010VISTA          000000000024900000000249000000002460000000000000000000249000000286000
0202LOTE PADRAO                   TELE CL SUL ON * EJ    TCSL3       010VISTA          000000000002300000000024000000000230000000000000000000024000018618100
0202LOTE PADRAO                   ITAUSA      PN         ITSA4       010VISTA          000000000002400000000025200000000240000000000000000000024000000424300
0202LOTE PADRAO                   V C P       PN *       VCPA4       010VISTA          000000000099700000001000000000009600000000000000000000980000003218300
0202LOTE PADRAO                   SID TUBARAO PN *       CSTB4       010VISTA          000000000046000000000461000000004540000000000000000000457000006515000
0202LOTE PADRAO                   BRADESPAR   PN *       BRAP4       010VISTA          000000000000630000000006400000000063000000000000000000006400073282500
0202LOTE PADRAO                   NET         PN         PLIM4       010VISTA          000000000000350000000003600000000035000000000000000000003500000194500
0202LOTE PADRAO                   TELE CTR OESPN * EJ    TCOC4       010VISTA          000000000005400000000056000000000540000000000000000000056000085755000
0202LOTE PADRAO                   TELEMAR N L PNA* EJ    TMAR5       010VISTA          000000000040100000000423000000004010000000000000000000413000074074100
0202LOTE PADRAO                   GERDAU      PN * EJ    GGBR4       010VISTA          000000000029300000000296000000002910000000000000000000291000000023700
0202LOTE PADRAO                   BRASIL      ON *       BBAS3       010VISTA          000000000013800000000141000000001370000000000000000000140000017388300
