00BDIN9999BOVESPA 99992003040220030402
0101IBOVESPA                      0116150116020119980000000000000000002003040200000020030402011872000000
0202LOTE PADRAO                   EMBRATEL PARPN *       EBTP4       010VISTA          000000000003600000000038000000000360000000000000000000037000536744000
0202LOTE PADRAO                   TRAN PAULISTPN * EJ    TRPL4       010VISTA          000000000006000000000061000000000590000000000000000000059000038640400
0202LOTE PADRAO                   EMBRATEL PARON *       EBTP3       010VISTA          000000000004300000000045000000000430000000000000000000044000057706600
0202LOTE PADRAO                   TELEMAR     PN * EJ    TNLP4       010VISTA          000000000029300000000309000000002930000000000000000000300000549757000
0202LOTE PADRAO                   ITAUBANCO   PN * EJ    ITAU4       010VISTA          000000000181100000001848000000018020000000000000000001829000013126100
0202LOTE PADRAO                   TELEMAR     ON * EJ    TNLP3       010VISTA          000000000021100000000220000000002110000000000000000000214000031283700
0202LOTE PADRAO                   SID NACIONALON *       CSNA3       010VISTA          000000000064200000000655000000006030000000000000000000652000066902400
0202LOTE PADRAO                   TELE LEST CLPN *       TLCP4       010VISTA          000000000000440000000004500000000044000000000000000000004400164410000
0202LOTE PADRAO                   CRT CELULAR PNA* EJ    CRTP5       010VISTA          000000000348500000003485000000033500000000000000000003428000000283700
0202LOTE PADRAO                   IPIRANGA PETPN *       PTIP4       010VISTA          000000000007100000000074000000000700000000000000000000072000052151000
0202LOTE PADRAO                   BRASIL T PARPN *       BRTP4       010VISTA          000000000019500000000198000000001930000000000000000000194000138158000
0202LOTE PADRAO                   BRASIL T PARON *       BRTP3       010VISTA          000000000014400000000155000000001440000000000000000000153000008205900
0202LOTE PADRAO                   KLABIN S/A  PN         KLBN4       010VISTA          000000000001960000000019700000000180000000000000000000018000000237700
0202LOTE PADRAO                   ACESITA     PN *       ACES4       010VISTA          000000000001200000000012000000000110000000000000000000011000336467000
0202LOTE PADRAO                   PETROBRAS   PN         PETR4       010VISTA          000000000048000000000487500000004800000000000000000000482000000143700
0202LOTE PADRAO                   ELETROBRAS  PNB*       ELET6       010VISTA          000000000021500000000226000000002150000000000000000000223000079235800
0202LOTE PADRAO                   PETROBRAS   ON         PETR3       010VISTA          000000000052600000000536000000005260000000000000000000532000000052500
0202LOTE PADRAO                   COMGAS      PNA*       CGAS5       010VISTA          000000000052800000000560000000005220000000000000000000550000003222100
0202LOTE PADRAO                   SOUZA CRUZ  ON EJ      CRUZ3       010VISTA          000000000019700000000200000000001970000000000000000000200000000013000
0202LOTE PADRAO                   ELETROBRAS  ON *       ELET3       010VISTA          000000000019500000000203000000001950000000000000000000200000039301600
0202LOTE PADRAO                   CELESC      PNB        CLSC6       010VISTA          000000000000450000000004700000000044000000000000000000004700000906100
0202LOTE PADRAO                   BRADESCO    PN * EJ    BBDC4       010VISTA          000000000011700000000119000000001150000000000000000000116000166383000
0202LOTE PADRAO                   CESP        PN *       CESP4       010VISTA          000000000006000000000063000000000600000000000000000000062000018085000
0202LOTE PADRAO                   LIGHT       ON *       LIGH3       010VISTA          000000000024600000000258000000002460000000000000000000250000001000100
0202LOTE PADRAO                   TELESP CL PAPN *       TSPP4       010VISTA          000000000004600000000047500000000460000000000000000000047000476485000
0202LOTE PADRAO                   VALE R DOCE PNA        VALE5       010VISTA          000000000088100000000882000000008650000000000000000000865000000038800
0202LOTE PADRAO                   COPEL       PNB*       CPLE6       010VISTA          000000000008600000000090000000000860000000000000000000089000130815000
0202LOTE PADRAO                   VALE R DOCE ON         VALE3       010VISTA          000000000091500000000917000000009000000000000000000000905000000008300
0202LOTE PADRAO                   ARACRUZ     PNB        ARCZ6       010VISTA          000000000006700000000067900000000650000000000000000000066000000060700
0202LOTE PADRAO                   TELEMIG PARTPN *       TMCP4       010VISTA          000000000002900000000030000000000280000000000000000000028000144889000
0202LOTE PADRAO                   BRASIL TELECPN *       BRTO4       010VISTA          000000000011300000000116000000001130000000000000000000115000295747000
0202LOTE PADRAO                   SABESP      ON *       SBSP3       010VISTA          000000000085200000000877000000008520000000000000000000875000008529100
0202LOTE PADRAO                   BRASKEM     PNA*       BRKM5       010VISTA          000000000232000000002410000000023200000000000000000002330000000511700
0202LOTE PADRAO                   EMBRAER     PN EJ      EMBR4       010VISTA          000000000010200000000106000000001020000000000000000000104000000233800
0202LOTE PADRAO                   TELESP      PN * EJ    TLPP4       010VISTA          000000000032700000000327000000003160000000000000000000319000014425400
0202LOTE PADRAO                   EMBRAER     ON EJ      EMBR3       010VISTA          000000000008900000000093000000000880000000000000000000089000000030500
0202LOTE PADRAO                   AMBEV       PN *       AMBV4       010VISTA          000000000579900000005896000000057300000000000000000005840000003046100
0202LOTE PADRAO                   USIMINAS    PNA        USIM5       010VISTA          000000000009200000000094000000000920000000000000000000093000000104900
0202LOTE PADRAO                   ELETROPAULO PN *       ELPL4       010VISTA          000000000023100000000253000000002300000000000000000000246000016071000
0202LOTE PADRAO                   TELE NORD CLPN *       TNEP4       010VISTA          000000000002540000000026000000000252000000000000000000025200110863000
0202LOTE PADRAO                   CEMIG       PN * EJ    CMIG4       010VISTA          000000000026700000000280000000002670000000000000000000277000061447600
0202LOTE PADRAO                   TELE CL SUL PN * EJ    TCSL4       010VISTA          000000000002400000000025000000000240000000000000000000024000134067000
0202LOTE PADRAO                   TRACTEBEL   ON *       TBLE3       010VISTA          000000000004400000000045000000000420000000000000000000044000030133500
0202LOTE PADRAO                   CEMIG       ON * EJ    CMIG3       010VISTA          000000000020900000000215000000002010000000000000000000210000002242400
0202LOTE PADRAO                   TELE CL SUL ON * EJ    TCSL3       010VISTA          000000000002600000000026900000000230000000000000000000023000042708000
0202LOTE PADRAO                   ITAUSA      PN         ITSA4       010VISTA          000000000002100000000021000000000200000000000000000000020000000216400
0202LOTE PADRAO                   V C P       PN *       VCPA4       010VISTA          000000000124100000001275000000012220000000000000000001250000002146300
0202LOTE PADRAO                   SID TUBARAO PN *       CSTB4       010VISTA          000000000043900000000439000000004230000000000000000000432000019610500
0202LOTE PADRAO                   BRADESPAR   PN *       BRAP4       010VISTA          000000000000710000000007100000000067000000000000000000006800492489000
0202LOTE PADRAO                   NET         PN         PLIM4       010VISTA          000000000000290000000003200000000029000000000000000000003000002123000
0202LOTE PADRAO                   TELE CTR OESPN * EJ    TCOC4       010VISTA          000000000005600000000059000000000550000000000000000000059000137670000
0202LOTE PADRAO                   TELEMAR N L PNA* EJ    TMAR5       010VISTA          000000000038500000000398000000003820000000000000000000387000032206700
0202LOTE PADRAO                   GERDAU      PN * EJ    GGBR4       010VISTA          000000000030500000000308000000002910000000000000000000293000052901500
0202LOTE PADRAO                   BRASIL      ON *       BBAS3       010VISTA          000000000010750000000110000000001070000000000000000000110000043447000
