00BDIN9999BOVESPA 99992003013020030130
0101IBOVESPA                      0108730107050110010000000000000000002003013000000020030130010751000000
0202LOTE PADRAO                   EMBRATEL PARPN *       EBTP4       010VISTA          000000000003560000000036000000000340000000000000000000035000628058000
0202LOTE PADRAO                   TRAN PAULISTPN * EJ    TRPL4       010VISTA          000000000005300000000054000000000525000000000000000000052500007775300
0202LOTE PADRAO                   EMBRATEL PARON *       EBTP3       010VISTA          000000000004100000000042000000000400000000000000000000041000032606700
0202LOTE PADRAO                   TELEMAR     PN * EJ    TNLP4       010VISTA          000000000026800000000272000000002620000000000000000000265000232509000
0202LOTE PADRAO                   ITAUBANCO   PN * EJ    ITAU4       010VISTA          000000000158000000001590000000015400000000000000000001540000005901400
0202LOTE PADRAO                   TELEMAR     ON * EJ    TNLP3       010VISTA          000000000019300000000196000000001900000000000000000000191000007649500
0202LOTE PADRAO                   SID NACIONALON *       CSNA3       010VISTA          000000000055900000000559000000005350000000000000000000555000003747100
0202LOTE PADRAO                   TELE LEST CLPN *       TLCP4       010VISTA          000000000000440000000004400000000042000000000000000000004200137617000
0202LOTE PADRAO                   CRT CELULAR PNA* EJ    CRTP5       010VISTA          000000000340000000003400000000032200000000000000000003250000000348300
0202LOTE PADRAO                   IPIRANGA PETPN *       PTIP4       010VISTA          000000000007100000000071000000000690000000000000000000069000000953100
0202LOTE PADRAO                   BRASIL T PARPN *       BRTP4       010VISTA          000000000017500000000175000000001700000000000000000000171000087785900
0202LOTE PADRAO                   BRASIL T PARON *       BRTP3       010VISTA          000000000012800000000129000000001275000000000000000000128000005380500
0202LOTE PADRAO                   KLABIN S/A  PN         KLBN4       010VISTA          000000000001000000000010000000000098000000000000000000010000000008900
0202LOTE PADRAO                   ACESITA     PN *       ACES4       010VISTA          000000000000880000000008800000000086000000000000000000008600046383900
0202LOTE PADRAO                   PETROBRAS   PN         PETR4       010VISTA          000000000047500000000476000000004650000000000000000000473000000095200
0202LOTE PADRAO                   ELETROBRAS  PNB*       ELET6       010VISTA          000000000020600000000208000000001980000000000000000000198000034955700
0202LOTE PADRAO                   PETROBRAS   ON         PETR3       010VISTA          000000000052500000000525000000005120000000000000000000517000000033900
0202LOTE PADRAO                   COMGAS      PNA*       CGAS5       010VISTA          000000000049100000000515000000004910000000000000000000491000001131000
0202LOTE PADRAO                   SOUZA CRUZ  ON EJ      CRUZ3       010VISTA          000000000017800000000179000000001775000000000000000000178000000017400
0202LOTE PADRAO                   ELETROBRAS  ON *       ELET3       010VISTA          000000000020000000000201000000001930000000000000000000194000010240900
0202LOTE PADRAO                   CELESC      PNB        CLSC6       010VISTA          000000000000510000000005100000000050000000000000000000005000000118600
0202LOTE PADRAO                   BRADESCO    PN * EJ    BBDC4       010VISTA          000000000010000000000100000000000960000000000000000000096000237733000
0202LOTE PADRAO                   CESP        PN *       CESP4       010VISTA          000000000006700000000069000000000650000000000000000000066000012283900
0202LOTE PADRAO                   LIGHT       ON *       LIGH3       010VISTA          000000000039500000000399000000003860000000000000000000386000000262700
0202LOTE PADRAO                   TELESP CL PAPN *       TSPP4       010VISTA          000000000003800000000039000000000370000000000000000000037500268168000
0202LOTE PADRAO                   VALE R DOCE PNA        VALE5       010VISTA          000000000088000000000895000000008800000000000000000000895000000009000
0202LOTE PADRAO                   COPEL       PNB*       CPLE6       010VISTA          000000000008800000000088000000000830000000000000000000084000021897400
0202LOTE PADRAO                   VALE R DOCE ON         VALE3       010VISTA          000000000091500000000946000000009150000000000000000000944000000014100
0202LOTE PADRAO                   ARACRUZ     PNB        ARCZ6       010VISTA          000000000006800000000068000000000671000000000000000000067000000044300
0202LOTE PADRAO                   TELEMIG PARTPN *       TMCP4       010VISTA          000000000002500000000026000000000254000000000000000000025600229091000
0202LOTE PADRAO                   BRASIL TELECPN *       BRTO4       010VISTA          000000000010800000000108000000001040000000000000000000104000050433200
0202LOTE PADRAO                   SABESP      ON *       SBSP3       010VISTA          000000000086000000000860000000008320000000000000000000835000002701800
0202LOTE PADRAO                   BRASKEM     PNA*       BRKM5       010VISTA          000000000187000000001870000000018250000000000000000001830000000126100
0202LOTE PADRAO                   EMBRAER     PN EJ      EMBR4       010VISTA          000000000012300000000126000000001200000000000000000000125000000068400
0202LOTE PADRAO                   TELESP      PN * EJ    TLPP4       010VISTA          000000000031000000000316000000002980000000000000000000298000019663800
0202LOTE PADRAO                   EMBRAER     ON EJ      EMBR3       010VISTA          000000000011400000000114000000001070000000000000000000112500000010000
0202LOTE PADRAO                   AMBEV       PN *       AMBV4       010VISTA          000000000500000000005030000000049000000000000000000004910000000783500
0202LOTE PADRAO                   USIMINAS    PNA        USIM5       010VISTA          000000000007400000000075000000000720000000000000000000072000000034000
0202LOTE PADRAO                   ELETROPAULO PN *       ELPL4       010VISTA          000000000026000000000270000000002600000000000000000000260000009035100
0202LOTE PADRAO                   TELE NORD CLPN *       TNEP4       010VISTA          000000000002700000000027000000000260000000000000000000027000134340000
0202LOTE PADRAO                   CEMIG       PN * EJ    CMIG4       010VISTA          000000000025500000000256000000002430000000000000000000247500021499300
0202LOTE PADRAO                   TELE CL SUL PN * EJ    TCSL4       010VISTA          000000000002540000000025000000000240000000000000000000025000115113000
0202LOTE PADRAO                   TRACTEBEL   ON *       TBLE3       010VISTA          000000000003540000000035000000000330000000000000000000034000003371400
0202LOTE PADRAO                   CEMIG       ON * EJ    CMIG3       010VISTA          000000000021600000000217000000002110000000000000000000211000000585400
0202LOTE PADRAO                   TELE CL SUL ON * EJ    TCSL3       010VISTA          000000000001800000000018000000000181000000000000000000018000017999400
0202LOTE PADRAO                   ITAUSA      PN         ITSA4       010VISTA          000000000001800000000018000000000178000000000000000000017800000094600
0202LOTE PADRAO                   V C P       PN *       VCPA4       010VISTA          000000000119000000001230000000011900000000000000000001219000000916000
0202LOTE PADRAO                   SID TUBARAO PN *       CSTB4       010VISTA          000000000035300000000360000000003500000000000000000000350000003929000
0202LOTE PADRAO                   BRADESPAR   PN *       BRAP4       010VISTA          000000000000590000000005900000000057000000000000000000005800153894000
0202LOTE PADRAO                   NET         PN         PLIM4       010VISTA          000000000000390000000004000000000036000000000000000000003700000660700
0202LOTE PADRAO                   TELE CTR OESPN * EJ    TCOC4       010VISTA          000000000004700000000048000000000450000000000000000000045000035816700
0202LOTE PADRAO                   TELEMAR N L PNA* EJ    TMAR5       010VISTA          000000000041900000000419000000003970000000000000000000406000007889700
0202LOTE PADRAO                   GERDAU      PN * EJ    GGBR4       010VISTA          000000000030500000000311000000003000000000000000000000308000012736400
0202LOTE PADRAO                   BRASIL      ON *       BBAS3       010VISTA          000000000009900000000100000000000940000000000000000000094000010890000
