00BDIN9999BOVESPA 99992003062520030625
0101IBOVESPA                      0131100130150132860000000000000000002003062500000020030625013026000000
0202LOTE PADRAO                   EMBRATEL PARPN *       EBTP4       010VISTA          000000000005600000000062000000000550000000000000000000060001623640000
0202LOTE PADRAO                   TRAN PAULISTPN * EJ    TRPL4       010VISTA          000000000006800000000069000000000650000000000000000000065400012144500
0202LOTE PADRAO                   EMBRATEL PARON *       EBTP3       010VISTA          000000000005800000000068000000000580000000000000000000064000199818000
0202LOTE PADRAO                   TELEMAR     PN * EJ    TNLP4       010VISTA          000000000033200000000339000000003260000000000000000000327000259730000
0202LOTE PADRAO                   ITAUBANCO   PN * EJ    ITAU4       010VISTA          000000000196500000001970000000019350000000000000000001960000009713100
0202LOTE PADRAO                   TELEMAR     ON * EJ    TNLP3       010VISTA          000000000024500000000246000000002375000000000000000000237000027089200
0202LOTE PADRAO                   SID NACIONALON *       CSNA3       010VISTA          000000000064100000000663000000006380000000000000000000654000022135900
0202LOTE PADRAO                   TELE LEST CLPN *       TLCP4       010VISTA          000000000000440000000004500000000044000000000000000000004400104430000
0202LOTE PADRAO                   CRT CELULAR PNA* EJ    CRTP5       010VISTA          000000000335000000003420000000033500000000000000000003400000002817000
0202LOTE PADRAO                   IPIRANGA PETPN *       PTIP4       010VISTA          000000000009400000000095000000000910000000000000000000092000011051000
0202LOTE PADRAO                   BRASIL T PARPN *       BRTP4       010VISTA          000000000021300000000214000000002100000000000000000000213000034437900
0202LOTE PADRAO                   BRASIL T PARON *       BRTP3       010VISTA          000000000016100000000161000000001580000000000000000000158000005838200
0202LOTE PADRAO                   KLABIN S/A  PN         KLBN4       010VISTA          000000000002800000000029000000000280000000000000000000029000000030300
0202LOTE PADRAO                   ACESITA     PN *       ACES4       010VISTA          000000000001520000000015300000000147000000000000000000014700515182000
0202LOTE PADRAO                   PETROBRAS   PN         PETR4       010VISTA          000000000050500000000513000000005010000000000000000000501000000150900
0202LOTE PADRAO                   ELETROBRAS  PNB*       ELET6       010VISTA          000000000023250000000236000000002270000000000000000000227000038709800
0202LOTE PADRAO                   PETROBRAS   ON         PETR3       010VISTA          000000000055000000000558000000005470000000000000000000552000000065700
0202LOTE PADRAO                   COMGAS      PNA*       CGAS5       010VISTA          000000000069000000000692000000006510000000000000000000655000000885500
0202LOTE PADRAO                   SOUZA CRUZ  ON EJ      CRUZ3       010VISTA          000000000021800000000226000000002180000000000000000000226000000022400
0202LOTE PADRAO                   ELETROBRAS  ON *       ELET3       010VISTA          000000000021100000000215000000002030000000000000000000204000020134600
0202LOTE PADRAO                   CELESC      PNB        CLSC6       010VISTA          000000000000460000000004700000000045000000000000000000004500000230100
0202LOTE PADRAO                   BRADESCO    PN * EJ    BBDC4       010VISTA          000000000011100000000112000000001090000000000000000000109000162318000
0202LOTE PADRAO                   CESP        PN *       CESP4       010VISTA          000000000007400000000074000000000710000000000000000000072000006530400
0202LOTE PADRAO                   LIGHT       ON *       LIGH3       010VISTA          000000000027300000000277000000002710000000000000000000275000001200300
0202LOTE PADRAO                   TELESP CL PAPN *       TSPP4       010VISTA          000000000004500000000045000000000440000000000000000000044000313084000
0202LOTE PADRAO                   VALE R DOCE PNA        VALE5       010VISTA          000000000079500000000799000000007920000000000000000000795000000011300
0202LOTE PADRAO                   COPEL       PNB*       CPLE6       010VISTA          000000000009300000000095000000000900000000000000000000090000053417900
0202LOTE PADRAO                   VALE R DOCE ON         VALE3       010VISTA          000000000085000000000865000000008500000000000000000000865000000006000
0202LOTE PADRAO                   ARACRUZ     PNB        ARCZ6       010VISTA          000000000005750000000059000000000560000000000000000000059000000021800
0202LOTE PADRAO                   TELEMIG PARTPN *       TMCP4       010VISTA          000000000002980000000030000000000290000000000000000000029600100840000
0202LOTE PADRAO                   BRASIL TELECPN *       BRTO4       010VISTA          000000000013000000000130000000001260000000000000000000127000076711700
0202LOTE PADRAO                   SABESP      ON *       SBSP3       010VISTA          000000000109000000001090000000010500000000000000000001050000007295300
0202LOTE PADRAO                   BRASKEM     PNA*       BRKM5       010VISTA          000000000373100000003748000000036600000000000000000003700000000322100
0202LOTE PADRAO                   EMBRAER     PN EJ      EMBR4       010VISTA          000000000013400000000138000000001330000000000000000000137000000106300
0202LOTE PADRAO                   TELESP      PN * EJ    TLPP4       010VISTA          000000000033100000000331000000003220000000000000000000324000014221100
0202LOTE PADRAO                   EMBRAER     ON EJ      EMBR3       010VISTA          000000000010500000000106000000001040000000000000000000105000000016100
0202LOTE PADRAO                   AMBEV       PN *       AMBV4       010VISTA          000000000587000000005990000000058000000000000000000005900000004156500
0202LOTE PADRAO                   USIMINAS    PNA        USIM5       010VISTA          000000000011900000000121000000001175000000000000000000119000000109300
0202LOTE PADRAO                   ELETROPAULO PN *       ELPL4       010VISTA          000000000026000000000263000000002480000000000000000000251000005870200
0202LOTE PADRAO                   TELE NORD CLPN *       TNEP4       010VISTA          000000000002400000000024000000000220000000000000000000023000079307700
0202LOTE PADRAO                   CEMIG       PN * EJ    CMIG4       010VISTA          000000000027500000000281000000002730000000000000000000276000056287500
0202LOTE PADRAO                   TELE CL SUL PN * EJ    TCSL4       010VISTA          000000000002480000000025000000000230000000000000000000024000121314000
0202LOTE PADRAO                   TRACTEBEL   ON *       TBLE3       010VISTA          000000000007100000000071000000000690000000000000000000070000012647100
0202LOTE PADRAO                   CEMIG       ON * EJ    CMIG3       010VISTA          000000000022000000000220000000002150000000000000000000217000000601300
0202LOTE PADRAO                   TELE CL SUL ON * EJ    TCSL3       010VISTA          000000000002200000000022000000000210000000000000000000022500039684700
0202LOTE PADRAO                   ITAUSA      PN         ITSA4       010VISTA          000000000002300000000023000000000230000000000000000000023000000425900
0202LOTE PADRAO                   V C P       PN *       VCPA4       010VISTA          000000000109000000001115000000010800000000000000000001113000002719100
0202LOTE PADRAO                   SID TUBARAO PN *       CSTB4       010VISTA          000000000046800000000494000000004680000000000000000000470000011220200
0202LOTE PADRAO                   BRADESPAR   PN *       BRAP4       010VISTA          000000000000640000000006400000000063000000000000000000006400185281000
0202LOTE PADRAO                   NET         PN         PLIM4       010VISTA          000000000000320000000003300000000030000000000000000000003100000934100
0202LOTE PADRAO                   TELE CTR OESPN * EJ    TCOC4       010VISTA          000000000005400000000055000000000530000000000000000000054000092147300
0202LOTE PADRAO                   TELEMAR N L PNA* EJ    TMAR5       010VISTA          000000000039100000000400000000003850000000000000000000387500034767100
0202LOTE PADRAO                   GERDAU      PN * EJ    GGBR4       010VISTA          000000000032000000000324000000003150000000000000000000321000000029700
0202LOTE PADRAO                   BRASIL      ON *       BBAS3       010VISTA          000000000013400000000136000000001290000000000000000000129000049265500
