00BDIN9999BOVESPA 99992003011420030114
0101IBOVESPA                      0121310120520121750000000000000000002003011400000020030114012175000000
0202LOTE PADRAO                   EMBRATEL PARPN *       EBTP4       010VISTA          000000000004400000000045000000000420000000000000000000045000513328000
0202LOTE PADRAO                   TRAN PAULISTPN * EJ    TRPL4       010VISTA          000000000006000000000060000000000590000000000000000000060000004855000
0202LOTE PADRAO                   EMBRATEL PARON *       EBTP3       010VISTA          000000000004900000000049000000000475000000000000000000049000047987500
0202LOTE PADRAO                   TELEMAR     PN * EJ    TNLP4       010VISTA          000000000029750000000298000000002925000000000000000000295000235639000
0202LOTE PADRAO                   ITAUBANCO   PN * EJ    ITAU4       010VISTA          000000000170400000001705000000016890000000000000000001695000007612500
0202LOTE PADRAO                   TELEMAR     ON * EJ    TNLP3       010VISTA          000000000021800000000218000000002160000000000000000000218000011360500
0202LOTE PADRAO                   SID NACIONALON *       CSNA3       010VISTA          000000000054000000000549000000005250000000000000000000534000016946600
0202LOTE PADRAO                   TELE LEST CLPN *       TLCP4       010VISTA          000000000000530000000005500000000052000000000000000000005400276445000
0202LOTE PADRAO                   CRT CELULAR PNA* EJ    CRTP5       010VISTA          000000000359700000003597000000035140000000000000000003580000000740700
0202LOTE PADRAO                   IPIRANGA PETPN *       PTIP4       010VISTA          000000000008100000000081000000000800000000000000000000081000004705300
0202LOTE PADRAO                   BRASIL T PARPN *       BRTP4       010VISTA          000000000019700000000201000000001960000000000000000000199000048105900
0202LOTE PADRAO                   BRASIL T PARON *       BRTP3       010VISTA          000000000014500000000148000000001450000000000000000000147000008785100
0202LOTE PADRAO                   KLABIN S/A  PN         KLBN4       010VISTA          000000000001100000000011000000000110000000000000000000011000000016100
0202LOTE PADRAO                   ACESITA     PN *       ACES4       010VISTA          000000000000950000000009500000000093000000000000000000009300045754000
0202LOTE PADRAO                   PETROBRAS   PN         PETR4       010VISTA          000000000052500000000528000000005150000000000000000000526000000114500
0202LOTE PADRAO                   ELETROBRAS  PNB*       ELET6       010VISTA          000000000024000000000248000000002350000000000000000000247000072069100
0202LOTE PADRAO                   PETROBRAS   ON         PETR3       010VISTA          000000000057500000000583000000005700000000000000000000582000000044800
0202LOTE PADRAO                   COMGAS      PNA*       CGAS5       010VISTA          000000000054300000000555000000005410000000000000000000553000000843200
0202LOTE PADRAO                   SOUZA CRUZ  ON EJ      CRUZ3       010VISTA          000000000017600000000179000000001760000000000000000000178000000009100
0202LOTE PADRAO                   ELETROBRAS  ON *       ELET3       010VISTA          000000000023800000000243000000002330000000000000000000240000023166400
0202LOTE PADRAO                   CELESC      PNB        CLSC6       010VISTA          000000000000540000000005500000000054000000000000000000005400000082500
0202LOTE PADRAO                   BRADESCO    PN * EJ    BBDC4       010VISTA          000000000011100000000112000000001100000000000000000000111000187552000
0202LOTE PADRAO                   CESP        PN *       CESP4       010VISTA          000000000007900000000081000000000780000000000000000000081000015945900
0202LOTE PADRAO                   LIGHT       ON *       LIGH3       010VISTA          000000000049700000000497000000004770000000000000000000477000000579400
0202LOTE PADRAO                   TELESP CL PAPN *       TSPP4       010VISTA          000000000004800000000048000000000460000000000000000000047000322296000
0202LOTE PADRAO                   VALE R DOCE PNA        VALE5       010VISTA          000000000088200000000884000000008740000000000000000000877000000019500
0202LOTE PADRAO                   COPEL       PNB*       CPLE6       010VISTA          000000000010000000000100000000000970000000000000000000099000019736600
0202LOTE PADRAO                   VALE R DOCE ON         VALE3       010VISTA          000000000092900000000929000000009170000000000000000000926000000007000
0202LOTE PADRAO                   ARACRUZ     PNB        ARCZ6       010VISTA          000000000006500000000065000000000640000000000000000000065000000023600
0202LOTE PADRAO                   TELEMIG PARTPN *       TMCP4       010VISTA          000000000003100000000031000000000310000000000000000000031000071179900
0202LOTE PADRAO                   BRASIL TELECPN *       BRTO4       010VISTA          000000000012100000000124000000001200000000000000000000124000081110500
0202LOTE PADRAO                   SABESP      ON *       SBSP3       010VISTA          000000000098000000001007000000009790000000000000000000999000003356800
0202LOTE PADRAO                   BRASKEM     PNA*       BRKM5       010VISTA          000000000259800000002640000000025800000000000000000002620000000296700
0202LOTE PADRAO                   EMBRAER     PN EJ      EMBR4       010VISTA          000000000012800000000129000000001260000000000000000000126000000058100
0202LOTE PADRAO                   TELESP      PN * EJ    TLPP4       010VISTA          000000000032700000000327000000003250000000000000000000326000005414000
0202LOTE PADRAO                   EMBRAER     ON EJ      EMBR3       010VISTA          000000000011500000000115000000001130000000000000000000114000000022200
0202LOTE PADRAO                   AMBEV       PN *       AMBV4       010VISTA          000000000522000000005290000000051210000000000000000005140000002176700
0202LOTE PADRAO                   USIMINAS    PNA        USIM5       010VISTA          000000000007200000000072000000000700000000000000000000070000000062300
0202LOTE PADRAO                   ELETROPAULO PN *       ELPL4       010VISTA          000000000031800000000332000000003120000000000000000000332000004908800
0202LOTE PADRAO                   TELE NORD CLPN *       TNEP4       010VISTA          000000000002800000000029000000000280000000000000000000029000088748700
0202LOTE PADRAO                   CEMIG       PN * EJ    CMIG4       010VISTA          000000000028400000000288000000002830000000000000000000285000049625500
0202LOTE PADRAO                   TELE CL SUL PN * EJ    TCSL4       010VISTA          000000000002900000000029000000000280000000000000000000029000049504100
0202LOTE PADRAO                   TRACTEBEL   ON *       TBLE3       010VISTA          000000000003600000000036000000000356000000000000000000036000003704700
0202LOTE PADRAO                   CEMIG       ON * EJ    CMIG3       010VISTA          000000000025100000000255000000002500000000000000000000250000000646100
0202LOTE PADRAO                   TELE CL SUL ON * EJ    TCSL3       010VISTA          000000000002000000000021000000000200000000000000000000020000030615200
0202LOTE PADRAO                   ITAUSA      PN         ITSA4       010VISTA          000000000001990000000019900000000196000000000000000000019800000379200
0202LOTE PADRAO                   V C P       PN *       VCPA4       010VISTA          000000000127400000001274000000012500000000000000000001272500002235000
0202LOTE PADRAO                   SID TUBARAO PN *       CSTB4       010VISTA          000000000037800000000382000000003640000000000000000000365000010499000
0202LOTE PADRAO                   BRADESPAR   PN *       BRAP4       010VISTA          000000000000580000000005800000000057000000000000000000005700077939500
0202LOTE PADRAO                   NET         PN         PLIM4       010VISTA          000000000000520000000005200000000049000000000000000000005000000720900
0202LOTE PADRAO                   TELE CTR OESPN * EJ    TCOC4       010VISTA          000000000005200000000052000000000510000000000000000000052000189782000
0202LOTE PADRAO                   TELEMAR N L PNA* EJ    TMAR5       010VISTA          000000000046500000000468000000004520000000000000000000462000034833300
0202LOTE PADRAO                   GERDAU      PN * EJ    GGBR4       010VISTA          000000000031700000000323000000003170000000000000000000321000025892300
0202LOTE PADRAO                   BRASIL      ON *       BBAS3       010VISTA          000000000010500000000106000000001040000000000000000000105000021403000
