00BDIN9999BOVESPA 99992003041720030417
0101IBOVESPA                      0120520120520124320000000000000000002003041700000020030417012395000000
0202LOTE PADRAO                   EMBRATEL PARPN *       EBTP4       010VISTA          000000000004540000000047900000000440000000000000000000047500666771000
0202LOTE PADRAO                   TRAN PAULISTPN * EJ    TRPL4       010VISTA          000000000006500000000066000000000630000000000000000000065000008325400
0202LOTE PADRAO                   EMBRATEL PARON *       EBTP3       010VISTA          000000000005250000000054000000000520000000000000000000054000064925700
0202LOTE PADRAO                   TELEMAR     PN * EJ    TNLP4       010VISTA          000000000030500000000308000000003010000000000000000000307000310574000
0202LOTE PADRAO                   ITAUBANCO   PN * EJ    ITAU4       010VISTA          000000000189500000001900000000018700000000000000000001899000007961500
0202LOTE PADRAO                   TELEMAR     ON * EJ    TNLP3       010VISTA          000000000022000000000223000000002160000000000000000000223000021324600
0202LOTE PADRAO                   SID NACIONALON *       CSNA3       010VISTA          000000000066000000000670000000006520000000000000000000664000022250200
0202LOTE PADRAO                   TELE LEST CLPN *       TLCP4       010VISTA          000000000000440000000004700000000044000000000000000000004600159523000
0202LOTE PADRAO                   CRT CELULAR PNA* EJ    CRTP5       010VISTA          000000000345000000003450000000033300000000000000000003435000000781500
0202LOTE PADRAO                   IPIRANGA PETPN *       PTIP4       010VISTA          000000000007790000000080000000000740000000000000000000078000007150300
0202LOTE PADRAO                   BRASIL T PARPN *       BRTP4       010VISTA          000000000020100000000203000000001980000000000000000000202500066184000
0202LOTE PADRAO                   BRASIL T PARON *       BRTP3       010VISTA          000000000015600000000159000000001520000000000000000000155000003648200
0202LOTE PADRAO                   KLABIN S/A  PN         KLBN4       010VISTA          000000000002000000000020000000000199000000000000000000020000000025800
0202LOTE PADRAO                   ACESITA     PN *       ACES4       010VISTA          000000000001280000000013000000000128000000000000000000013000282123000
0202LOTE PADRAO                   PETROBRAS   PN         PETR4       010VISTA          000000000047000000000477000000004670000000000000000000475000000084400
0202LOTE PADRAO                   ELETROBRAS  PNB*       ELET6       010VISTA          000000000022800000000239000000002280000000000000000000236000041936500
0202LOTE PADRAO                   PETROBRAS   ON         PETR3       010VISTA          000000000050700000000521000000005060000000000000000000517000000035700
0202LOTE PADRAO                   COMGAS      PNA*       CGAS5       010VISTA          000000000053500000000543000000005210000000000000000000538000000953000
0202LOTE PADRAO                   SOUZA CRUZ  ON EJ      CRUZ3       010VISTA          000000000018600000000189000000001830000000000000000000184000000011900
0202LOTE PADRAO                   ELETROBRAS  ON *       ELET3       010VISTA          000000000020900000000216000000002050000000000000000000216000022164300
0202LOTE PADRAO                   CELESC      PNB        CLSC6       010VISTA          000000000000460000000004800000000046000000000000000000004700000347700
0202LOTE PADRAO                   BRADESCO    PN * EJ    BBDC4       010VISTA          000000000011700000000120000000001170000000000000000000119000227483000
0202LOTE PADRAO                   CESP        PN *       CESP4       010VISTA          000000000006500000000070000000000640000000000000000000069000032959600
0202LOTE PADRAO                   LIGHT       ON *       LIGH3       010VISTA          000000000027300000000295000000002660000000000000000000294000003632300
0202LOTE PADRAO                   TELESP CL PAPN *       TSPP4       010VISTA          000000000004250000000045000000000425000000000000000000045000804660000
0202LOTE PADRAO                   VALE R DOCE PNA        VALE5       010VISTA          000000000082600000000827000000008150000000000000000000820000000036500
0202LOTE PADRAO                   COPEL       PNB*       CPLE6       010VISTA          000000000009000000000093000000000900000000000000000000093000041269600
0202LOTE PADRAO                   VALE R DOCE ON         VALE3       010VISTA          000000000085300000000871000000008440000000000000000000853000000008600
0202LOTE PADRAO                   ARACRUZ     PNB        ARCZ6       010VISTA          000000000006750000000068000000000640000000000000000000065000000026600
0202LOTE PADRAO                   TELEMIG PARTPN *       TMCP4       010VISTA          000000000002750000000027000000000270000000000000000000027700094006100
0202LOTE PADRAO                   BRASIL TELECPN *       BRTO4       010VISTA          000000000012000000000123000000001200000000000000000000123000174644000
0202LOTE PADRAO                   SABESP      ON *       SBSP3       010VISTA          000000000096900000000979000000009590000000000000000000970000007598400
0202LOTE PADRAO                   BRASKEM     PNA*       BRKM5       010VISTA          000000000262900000002785000000025550000000000000000002785000000616600
0202LOTE PADRAO                   EMBRAER     PN EJ      EMBR4       010VISTA          000000000010750000000109000000001060000000000000000000107000000076900
0202LOTE PADRAO                   TELESP      PN * EJ    TLPP4       010VISTA          000000000031900000000324000000003130000000000000000000322000010440800
0202LOTE PADRAO                   EMBRAER     ON EJ      EMBR3       010VISTA          000000000008900000000091000000000890000000000000000000090000000012500
0202LOTE PADRAO                   AMBEV       PN *       AMBV4       010VISTA          000000000549900000005499000000054180000000000000000005494000003357700
0202LOTE PADRAO                   USIMINAS    PNA        USIM5       010VISTA          000000000010500000000112500000001030000000000000000000110000000216800
0202LOTE PADRAO                   ELETROPAULO PN *       ELPL4       010VISTA          000000000027000000000300000000002700000000000000000000298000013845700
0202LOTE PADRAO                   TELE NORD CLPN *       TNEP4       010VISTA          000000000002540000000025000000000240000000000000000000025400115964000
0202LOTE PADRAO                   CEMIG       PN * EJ    CMIG4       010VISTA          000000000029000000000298000000002860000000000000000000295000062096400
0202LOTE PADRAO                   TELE CL SUL PN * EJ    TCSL4       010VISTA          000000000002400000000025400000000240000000000000000000025000129444000
0202LOTE PADRAO                   TRACTEBEL   ON *       TBLE3       010VISTA          000000000006100000000067000000000600000000000000000000060000016950300
0202LOTE PADRAO                   CEMIG       ON * EJ    CMIG3       010VISTA          000000000022400000000230000000002200000000000000000000224000000970300
0202LOTE PADRAO                   TELE CL SUL ON * EJ    TCSL3       010VISTA          000000000002300000000024000000000230000000000000000000024000047061300
0202LOTE PADRAO                   ITAUSA      PN         ITSA4       010VISTA          000000000002250000000022000000000220000000000000000000022000000207300
0202LOTE PADRAO                   V C P       PN *       VCPA4       010VISTA          000000000124900000001249000000012170000000000000000001220000001685000
0202LOTE PADRAO                   SID TUBARAO PN *       CSTB4       010VISTA          000000000049000000000508000000004850000000000000000000489000009708200
0202LOTE PADRAO                   BRADESPAR   PN *       BRAP4       010VISTA          000000000000670000000006800000000066000000000000000000006700278454000
0202LOTE PADRAO                   NET         PN         PLIM4       010VISTA          000000000000320000000003400000000032000000000000000000003300000821600
0202LOTE PADRAO                   TELE CTR OESPN * EJ    TCOC4       010VISTA          000000000005300000000055000000000520000000000000000000055400183642000
0202LOTE PADRAO                   TELEMAR N L PNA* EJ    TMAR5       010VISTA          000000000041500000000419000000004150000000000000000000417500023469000
0202LOTE PADRAO                   GERDAU      PN * EJ    GGBR4       010VISTA          000000000033500000000337000000003320000000000000000000334000024784500
0202LOTE PADRAO                   BRASIL      ON *       BBAS3       010VISTA          000000000013100000000135000000001300000000000000000000131000038227200
