00BDIN9999BOVESPA 99992003061220030612
0101IBOVESPA                      0139010137380140070000000000000000002003061200000020030612013983000000
0202LOTE PADRAO                   EMBRATEL PARPN *       EBTP4       010VISTA          000000000007400000000074000000000696000000000000000000070000736337000
0202LOTE PADRAO                   TRAN PAULISTPN * EJ    TRPL4       010VISTA          000000000007000000000071000000000700000000000000000000071000012115600
0202LOTE PADRAO                   EMBRATEL PARON *       EBTP3       010VISTA          000000000008000000000080000000000740000000000000000000075000058670900
0202LOTE PADRAO                   TELEMAR     PN * EJ    TNLP4       010VISTA          000000000035300000000359000000003500000000000000000000359000509932000
0202LOTE PADRAO                   ITAUBANCO   PN * EJ    ITAU4       010VISTA          000000000199500000002000000000019650000000000000000002000000006312300
0202LOTE PADRAO                   TELEMAR     ON * EJ    TNLP3       010VISTA          000000000025700000000260000000002470000000000000000000260000013949700
0202LOTE PADRAO                   SID NACIONALON *       CSNA3       010VISTA          000000000061800000000628000000006060000000000000000000628000022620900
0202LOTE PADRAO                   TELE LEST CLPN *       TLCP4       010VISTA          000000000000470000000004700000000046000000000000000000004600094321900
0202LOTE PADRAO                   CRT CELULAR PNA* EJ    CRTP5       010VISTA          000000000339000000003420000000033000000000000000000003400000000784000
0202LOTE PADRAO                   IPIRANGA PETPN *       PTIP4       010VISTA          000000000009000000000095000000000900000000000000000000095000027320000
0202LOTE PADRAO                   BRASIL T PARPN *       BRTP4       010VISTA          000000000021750000000224000000002175000000000000000000224000043117100
0202LOTE PADRAO                   BRASIL T PARON *       BRTP3       010VISTA          000000000016750000000169000000001630000000000000000000169000004101000
0202LOTE PADRAO                   KLABIN S/A  PN         KLBN4       010VISTA          000000000002810000000028000000000270000000000000000000028000000103800
0202LOTE PADRAO                   ACESITA     PN *       ACES4       010VISTA          000000000001400000000014000000000130000000000000000000014000080977500
0202LOTE PADRAO                   PETROBRAS   PN         PETR4       010VISTA          000000000053600000000543000000005310000000000000000000543000000115700
0202LOTE PADRAO                   ELETROBRAS  PNB*       ELET6       010VISTA          000000000025100000000255000000002470000000000000000000251000050839500
0202LOTE PADRAO                   PETROBRAS   ON         PETR3       010VISTA          000000000057800000000587000000005770000000000000000000587000000031100
0202LOTE PADRAO                   COMGAS      PNA*       CGAS5       010VISTA          000000000064300000000660000000006260000000000000000000660000000817000
0202LOTE PADRAO                   SOUZA CRUZ  ON EJ      CRUZ3       010VISTA          000000000020400000000213000000002040000000000000000000213000000013000
0202LOTE PADRAO                   ELETROBRAS  ON *       ELET3       010VISTA          000000000023000000000235000000002260000000000000000000231000008540800
0202LOTE PADRAO                   CELESC      PNB        CLSC6       010VISTA          000000000000500000000005000000000049000000000000000000004900000253300
0202LOTE PADRAO                   BRADESCO    PN * EJ    BBDC4       010VISTA          000000000011800000000118000000001160000000000000000000116000234704000
0202LOTE PADRAO                   CESP        PN *       CESP4       010VISTA          000000000008500000000085000000000830000000000000000000084000008893300
0202LOTE PADRAO                   LIGHT       ON *       LIGH3       010VISTA          000000000028800000000291000000002830000000000000000000290000000888800
0202LOTE PADRAO                   TELESP CL PAPN *       TSPP4       010VISTA          000000000004700000000047500000000460000000000000000000047000306452000
0202LOTE PADRAO                   VALE R DOCE PNA        VALE5       010VISTA          000000000080900000000809000000007970000000000000000000799000000040800
0202LOTE PADRAO                   COPEL       PNB*       CPLE6       010VISTA          000000000010100000000105000000001000000000000000000000105000063601000
0202LOTE PADRAO                   VALE R DOCE ON         VALE3       010VISTA          000000000085500000000856000000008470000000000000000000847000000012900
0202LOTE PADRAO                   ARACRUZ     PNB        ARCZ6       010VISTA          000000000005700000000057000000000571000000000000000000057900000049400
0202LOTE PADRAO                   TELEMIG PARTPN *       TMCP4       010VISTA          000000000002900000000029000000000280000000000000000000029000049815800
0202LOTE PADRAO                   BRASIL TELECPN *       BRTO4       010VISTA          000000000013500000000138000000001330000000000000000000137500162105000
0202LOTE PADRAO                   SABESP      ON *       SBSP3       010VISTA          000000000114500000001159000000011220000000000000000001159000004143300
0202LOTE PADRAO                   BRASKEM     PNA*       BRKM5       010VISTA          000000000388900000003984000000038210000000000000000003970000000216600
0202LOTE PADRAO                   EMBRAER     PN EJ      EMBR4       010VISTA          000000000014200000000144000000001380000000000000000000141000000200600
0202LOTE PADRAO                   TELESP      PN * EJ    TLPP4       010VISTA          000000000032200000000327000000003180000000000000000000327000008208900
0202LOTE PADRAO                   EMBRAER     ON EJ      EMBR3       010VISTA          000000000011400000000115000000001125000000000000000000114000000031600
0202LOTE PADRAO                   AMBEV       PN *       AMBV4       010VISTA          000000000590000000006040000000058600000000000000000006000000002517900
0202LOTE PADRAO                   USIMINAS    PNA        USIM5       010VISTA          000000000011700000000124000000001170000000000000000000123000000081100
0202LOTE PADRAO                   ELETROPAULO PN *       ELPL4       010VISTA          000000000028000000000285000000002750000000000000000000283000003942600
0202LOTE PADRAO                   TELE NORD CLPN *       TNEP4       010VISTA          000000000002520000000025000000000248000000000000000000025200068160300
0202LOTE PADRAO                   CEMIG       PN * EJ    CMIG4       010VISTA          000000000030000000000306000000002950000000000000000000305000043698800
0202LOTE PADRAO                   TELE CL SUL PN * EJ    TCSL4       010VISTA          000000000002600000000026000000000250000000000000000000026000085711100
0202LOTE PADRAO                   TRACTEBEL   ON *       TBLE3       010VISTA          000000000006100000000064000000000600000000000000000000064000015883400
0202LOTE PADRAO                   CEMIG       ON * EJ    CMIG3       010VISTA          000000000023200000000235000000002310000000000000000000235000000414000
0202LOTE PADRAO                   TELE CL SUL ON * EJ    TCSL3       010VISTA          000000000002270000000022000000000220000000000000000000022000021597900
0202LOTE PADRAO                   ITAUSA      PN         ITSA4       010VISTA          000000000002400000000024000000000240000000000000000000024000000251700
0202LOTE PADRAO                   V C P       PN *       VCPA4       010VISTA          000000000109000000001090000000010700000000000000000001082000002066900
0202LOTE PADRAO                   SID TUBARAO PN *       CSTB4       010VISTA          000000000048500000000504000000004760000000000000000000492000004630000
0202LOTE PADRAO                   BRADESPAR   PN *       BRAP4       010VISTA          000000000000650000000006500000000064000000000000000000006500123085000
0202LOTE PADRAO                   NET         PN         PLIM4       010VISTA          000000000000370000000003700000000035000000000000000000003600000660800
0202LOTE PADRAO                   TELE CTR OESPN * EJ    TCOC4       010VISTA          000000000005700000000057900000000550000000000000000000057000071879000
0202LOTE PADRAO                   TELEMAR N L PNA* EJ    TMAR5       010VISTA          000000000043500000000447000000004270000000000000000000445000015801900
0202LOTE PADRAO                   GERDAU      PN * EJ    GGBR4       010VISTA          000000000031700000000329000000003170000000000000000000329000000045900
0202LOTE PADRAO                   BRASIL      ON *       BBAS3       010VISTA          000000000015600000000156000000001500000000000000000000155000015149000
