00BDIN9999BOVESPA 99992003052720030527
0101IBOVESPA                      0128610128590133210000000000000000002003052700000020030527013246000000
0202LOTE PADRAO                   EMBRATEL PARPN *       EBTP4       010VISTA          000000000005100000000053000000000500000000000000000000052000422338000
0202LOTE PADRAO                   TRAN PAULISTPN * EJ    TRPL4       010VISTA          000000000007100000000073000000000700000000000000000000072000009900100
0202LOTE PADRAO                   EMBRATEL PARON *       EBTP3       010VISTA          000000000005750000000060000000000575000000000000000000059000058351500
0202LOTE PADRAO                   TELEMAR     PN * EJ    TNLP4       010VISTA          000000000034600000000361000000003450000000000000000000360000533902000
0202LOTE PADRAO                   ITAUBANCO   PN * EJ    ITAU4       010VISTA          000000000204000000002060000000019800000000000000000002050000007717100
0202LOTE PADRAO                   TELEMAR     ON * EJ    TNLP3       010VISTA          000000000025100000000260000000002480000000000000000000259000033056100
0202LOTE PADRAO                   SID NACIONALON *       CSNA3       010VISTA          000000000056300000000572000000005500000000000000000000572000025039000
0202LOTE PADRAO                   TELE LEST CLPN *       TLCP4       010VISTA          000000000000430000000004400000000042000000000000000000004400211105000
0202LOTE PADRAO                   CRT CELULAR PNA* EJ    CRTP5       010VISTA          000000000330000000003400000000033000000000000000000003360000000282300
0202LOTE PADRAO                   IPIRANGA PETPN *       PTIP4       010VISTA          000000000008500000000089000000000850000000000000000000086000005998300
0202LOTE PADRAO                   BRASIL T PARPN *       BRTP4       010VISTA          000000000021100000000216000000002050000000000000000000216000043491500
0202LOTE PADRAO                   BRASIL T PARON *       BRTP3       010VISTA          000000000015400000000163000000001540000000000000000000161000007665200
0202LOTE PADRAO                   KLABIN S/A  PN         KLBN4       010VISTA          000000000002300000000023000000000230000000000000000000023000000472900
0202LOTE PADRAO                   ACESITA     PN *       ACES4       010VISTA          000000000001300000000013000000000130000000000000000000013000170354000
0202LOTE PADRAO                   PETROBRAS   PN         PETR4       010VISTA          000000000052200000000533000000005200000000000000000000532000000110600
0202LOTE PADRAO                   ELETROBRAS  PNB*       ELET6       010VISTA          000000000023400000000245000000002340000000000000000000241000046068900
0202LOTE PADRAO                   PETROBRAS   ON         PETR3       010VISTA          000000000056300000000577000000005620000000000000000000576000000031200
0202LOTE PADRAO                   COMGAS      PNA*       CGAS5       010VISTA          000000000055500000000574000000005550000000000000000000557000000550200
0202LOTE PADRAO                   SOUZA CRUZ  ON EJ      CRUZ3       010VISTA          000000000019100000000196000000001880000000000000000000196000000009300
0202LOTE PADRAO                   ELETROBRAS  ON *       ELET3       010VISTA          000000000021400000000226000000002140000000000000000000222000009726600
0202LOTE PADRAO                   CELESC      PNB        CLSC6       010VISTA          000000000000480000000005000000000048000000000000000000004900000091600
0202LOTE PADRAO                   BRADESCO    PN * EJ    BBDC4       010VISTA          000000000011300000000118000000001130000000000000000000117000219150000
0202LOTE PADRAO                   CESP        PN *       CESP4       010VISTA          000000000008200000000083000000000800000000000000000000083000008068600
0202LOTE PADRAO                   LIGHT       ON *       LIGH3       010VISTA          000000000027800000000284000000002710000000000000000000276000001493200
0202LOTE PADRAO                   TELESP CL PAPN *       TSPP4       010VISTA          000000000004300000000046000000000430000000000000000000045000385739000
0202LOTE PADRAO                   VALE R DOCE PNA        VALE5       010VISTA          000000000083000000000843000000008250000000000000000000832000000042300
0202LOTE PADRAO                   COPEL       PNB*       CPLE6       010VISTA          000000000009500000000100000000000950000000000000000000100000030597300
0202LOTE PADRAO                   VALE R DOCE ON         VALE3       010VISTA          000000000088000000000897500000008700000000000000000000890000000023000
0202LOTE PADRAO                   ARACRUZ     PNB        ARCZ6       010VISTA          000000000005700000000058000000000550000000000000000000057900000067000
0202LOTE PADRAO                   TELEMIG PARTPN *       TMCP4       010VISTA          000000000002700000000027500000000260000000000000000000027100040189800
0202LOTE PADRAO                   BRASIL TELECPN *       BRTO4       010VISTA          000000000012400000000127000000001210000000000000000000126000063691600
0202LOTE PADRAO                   SABESP      ON *       SBSP3       010VISTA          000000000103000000001069000000010170000000000000000001059000005267200
0202LOTE PADRAO                   BRASKEM     PNA*       BRKM5       010VISTA          000000000360000000003739000000035500000000000000000003730000000462000
0202LOTE PADRAO                   EMBRAER     PN EJ      EMBR4       010VISTA          000000000010500000000108000000001050000000000000000000105000000037800
0202LOTE PADRAO                   TELESP      PN * EJ    TLPP4       010VISTA          000000000030700000000308000000003030000000000000000000305000029578200
0202LOTE PADRAO                   EMBRAER     ON EJ      EMBR3       010VISTA          000000000008700000000089000000000870000000000000000000088000000007200
0202LOTE PADRAO                   AMBEV       PN *       AMBV4       010VISTA          000000000606000000006170000000059600000000000000000006070000002483300
0202LOTE PADRAO                   USIMINAS    PNA        USIM5       010VISTA          000000000010250000000104000000001000000000000000000000104000000081300
0202LOTE PADRAO                   ELETROPAULO PN *       ELPL4       010VISTA          000000000026600000000268000000002550000000000000000000264000022085500
0202LOTE PADRAO                   TELE NORD CLPN *       TNEP4       010VISTA          000000000002400000000025400000000240000000000000000000025200070554500
0202LOTE PADRAO                   CEMIG       PN * EJ    CMIG4       010VISTA          000000000031000000000310000000002990000000000000000000308000040669900
0202LOTE PADRAO                   TELE CL SUL PN * EJ    TCSL4       010VISTA          000000000002500000000026900000000250000000000000000000026000037103300
0202LOTE PADRAO                   TRACTEBEL   ON *       TBLE3       010VISTA          000000000005000000000052000000000500000000000000000000051000009586800
0202LOTE PADRAO                   CEMIG       ON * EJ    CMIG3       010VISTA          000000000023800000000244000000002380000000000000000000244000000746600
0202LOTE PADRAO                   TELE CL SUL ON * EJ    TCSL3       010VISTA          000000000002300000000024000000000230000000000000000000024000010598100
0202LOTE PADRAO                   ITAUSA      PN         ITSA4       010VISTA          000000000002300000000024000000000230000000000000000000024000000277300
0202LOTE PADRAO                   V C P       PN *       VCPA4       010VISTA          000000000098200000001020000000009820000000000000000001008000003822500
0202LOTE PADRAO                   SID TUBARAO PN *       CSTB4       010VISTA          000000000045000000000457000000004460000000000000000000447000008915000
0202LOTE PADRAO                   BRADESPAR   PN *       BRAP4       010VISTA          000000000000630000000006400000000062000000000000000000006300092295700
0202LOTE PADRAO                   NET         PN         PLIM4       010VISTA          000000000000350000000003600000000034000000000000000000003500000503600
0202LOTE PADRAO                   TELE CTR OESPN * EJ    TCOC4       010VISTA          000000000005200000000057000000000520000000000000000000056000087237800
0202LOTE PADRAO                   TELEMAR N L PNA* EJ    TMAR5       010VISTA          000000000040500000000422000000003900000000000000000000421000097104200
0202LOTE PADRAO                   GERDAU      PN * EJ    GGBR4       010VISTA          000000000029000000000301000000002880000000000000000000296000000023300
0202LOTE PADRAO                   BRASIL      ON *       BBAS3       010VISTA          000000000013800000000140000000001350000000000000000000140000020768700
