00BDIN9999BOVESPA 99992003072420030724
0101IBOVESPA                      0137990137550139470000000000000000002003072400000020030724013761000000
0202LOTE PADRAO                   EMBRATEL PARPN *       EBTP4       010VISTA          000000000006100000000063000000000610000000000000000000061000369174000
0202LOTE PADRAO                   TRAN PAULISTPN * EJ    TRPL4       010VISTA          000000000007600000000076000000000740000000000000000000074000003332900
0202LOTE PADRAO                   EMBRATEL PARON *       EBTP3       010VISTA          000000000006800000000070000000000670000000000000000000067000022206500
0202LOTE PADRAO                   TELEMAR     PN * EJ    TNLP4       010VISTA          000000000033500000000336000000003270000000000000000000327000242437000
0202LOTE PADRAO                   ITAUBANCO   PN * EJ    ITAU4       010VISTA          000000000209000000002103000000020400000000000000000002085000009529100
0202LOTE PADRAO                   TELEMAR     ON * EJ    TNLP3       010VISTA          000000000025000000000250000000002390000000000000000000241000011322300
0202LOTE PADRAO                   SID NACIONALON *       CSNA3       010VISTA          000000000074800000000757000000007370000000000000000000750000014498800
0202LOTE PADRAO                   TELE LEST CLPN *       TLCP4       010VISTA          000000000000430000000004300000000042000000000000000000004200035240600
0202LOTE PADRAO                   CRT CELULAR PNA* EJ    CRTP5       010VISTA          000000000373000000003780000000036900000000000000000003721000000750000
0202LOTE PADRAO                   IPIRANGA PETPN *       PTIP4       010VISTA          000000000010800000000110000000001080000000000000000000110000003658200
0202LOTE PADRAO                   BRASIL T PARPN *       BRTP4       010VISTA          000000000021300000000214000000002100000000000000000000210000036173300
0202LOTE PADRAO                   BRASIL T PARON *       BRTP3       010VISTA          000000000016000000000161000000001580000000000000000000159000006091500
0202LOTE PADRAO                   KLABIN S/A  PN         KLBN4       010VISTA          000000000002800000000028000000000280000000000000000000028000000021000
0202LOTE PADRAO                   ACESITA     PN *       ACES4       010VISTA          000000000001300000000014000000000130000000000000000000013000171611000
0202LOTE PADRAO                   PETROBRAS   PN         PETR4       010VISTA          000000000057250000000578000000005630000000000000000000563000000076900
0202LOTE PADRAO                   ELETROBRAS  PNB*       ELET6       010VISTA          000000000024600000000250000000002430000000000000000000246000060055800
0202LOTE PADRAO                   PETROBRAS   ON         PETR3       010VISTA          000000000061000000000617500000006020000000000000000000602000000020800
0202LOTE PADRAO                   COMGAS      PNA*       CGAS5       010VISTA          000000000072000000000727000000007000000000000000000000700000000881400
0202LOTE PADRAO                   SOUZA CRUZ  ON EJ      CRUZ3       010VISTA          000000000022300000000230000000002230000000000000000000229000000015100
0202LOTE PADRAO                   ELETROBRAS  ON *       ELET3       010VISTA          000000000022100000000225000000002180000000000000000000223000011295700
0202LOTE PADRAO                   CELESC      PNB        CLSC6       010VISTA          000000000000470000000004700000000045000000000000000000004600000123200
0202LOTE PADRAO                   BRADESCO    PN * EJ    BBDC4       010VISTA          000000000011600000000118000000001150000000000000000000118000176631000
0202LOTE PADRAO                   CESP        PN *       CESP4       010VISTA          000000000007500000000075000000000730000000000000000000073000005623200
0202LOTE PADRAO                   LIGHT       ON *       LIGH3       010VISTA          000000000026500000000268000000002580000000000000000000260000000504900
0202LOTE PADRAO                   TELESP CL PAPN *       TSPP4       010VISTA          000000000004700000000047000000000450000000000000000000045000182122000
0202LOTE PADRAO                   VALE R DOCE PNA        VALE5       010VISTA          000000000085900000000875000000008530000000000000000000872000000047000
0202LOTE PADRAO                   COPEL       PNB*       CPLE6       010VISTA          000000000008600000000086000000000840000000000000000000084000113570000
0202LOTE PADRAO                   VALE R DOCE ON         VALE3       010VISTA          000000000091500000000950000000009100000000000000000000947000000011700
0202LOTE PADRAO                   ARACRUZ     PNB        ARCZ6       010VISTA          000000000006800000000068000000000660000000000000000000066000000048900
0202LOTE PADRAO                   TELEMIG PARTPN *       TMCP4       010VISTA          000000000003100000000032000000000300000000000000000000031000084734300
0202LOTE PADRAO                   BRASIL TELECPN *       BRTO4       010VISTA          000000000012800000000128000000001260000000000000000000127000099544700
0202LOTE PADRAO                   SABESP      ON *       SBSP3       010VISTA          000000000115000000001150000000011350000000000000000001150000004433000
0202LOTE PADRAO                   BRASKEM     PNA*       BRKM5       010VISTA          000000000436900000004440000000043600000000000000000004426000000183300
0202LOTE PADRAO                   EMBRAER     PN EJ      EMBR4       010VISTA          000000000013800000000140000000001360000000000000000000138000000016700
0202LOTE PADRAO                   TELESP      PN * EJ    TLPP4       010VISTA          000000000031200000000312000000003080000000000000000000310000012847800
0202LOTE PADRAO                   EMBRAER     ON EJ      EMBR3       010VISTA          000000000011000000000112000000001090000000000000000000109000000011100
0202LOTE PADRAO                   AMBEV       PN *       AMBV4       010VISTA          000000000603000000006030000000059000000000000000000005938000000786800
0202LOTE PADRAO                   USIMINAS    PNA        USIM5       010VISTA          000000000015800000000161000000001550000000000000000000157500000064800
0202LOTE PADRAO                   ELETROPAULO PN *       ELPL4       010VISTA          000000000025300000000258000000002450000000000000000000246000002852400
0202LOTE PADRAO                   TELE NORD CLPN *       TNEP4       010VISTA          000000000002300000000023000000000230000000000000000000023000074769000
0202LOTE PADRAO                   CEMIG       PN * EJ    CMIG4       010VISTA          000000000028100000000286000000002790000000000000000000280000071331100
0202LOTE PADRAO                   TELE CL SUL PN * EJ    TCSL4       010VISTA          000000000002300000000023000000000230000000000000000000023000143610000
0202LOTE PADRAO                   TRACTEBEL   ON *       TBLE3       010VISTA          000000000007800000000078000000000760000000000000000000077000001171800
0202LOTE PADRAO                   CEMIG       ON * EJ    CMIG3       010VISTA          000000000022400000000231000000002210000000000000000000228000000941000
0202LOTE PADRAO                   TELE CL SUL ON * EJ    TCSL3       010VISTA          000000000002100000000022000000000200000000000000000000021000027103500
0202LOTE PADRAO                   ITAUSA      PN         ITSA4       010VISTA          000000000002400000000025000000000240000000000000000000024000000172400
0202LOTE PADRAO                   V C P       PN *       VCPA4       010VISTA          000000000129000000001300000000012880000000000000000001299000003049600
0202LOTE PADRAO                   SID TUBARAO PN *       CSTB4       010VISTA          000000000057000000000572000000005640000000000000000000570000008262000
0202LOTE PADRAO                   BRADESPAR   PN *       BRAP4       010VISTA          000000000000660000000006800000000065000000000000000000006600282380000
0202LOTE PADRAO                   NET         PN         PLIM4       010VISTA          000000000000330000000003300000000031000000000000000000003100000411600
0202LOTE PADRAO                   TELE CTR OESPN * EJ    TCOC4       010VISTA          000000000005710000000057500000000550000000000000000000056000059706100
0202LOTE PADRAO                   TELEMAR N L PNA* EJ    TMAR5       010VISTA          000000000041200000000413000000004080000000000000000000410000016031900
0202LOTE PADRAO                   GERDAU      PN * EJ    GGBR4       010VISTA          000000000034100000000341000000003360000000000000000000340000000015000
0202LOTE PADRAO                   BRASIL      ON *       BBAS3       010VISTA          000000000014250000000144000000001420000000000000000000143000026058200
