00BDIN9999BOVESPA 99992003011320030113
0101IBOVESPA                      0122430120950123500000000000000000002003011300000020030113012110000000
0202LOTE PADRAO                   EMBRATEL PARPN *       EBTP4       010VISTA          000000000004700000000047000000000440000000000000000000044000393710000
0202LOTE PADRAO                   TRAN PAULISTPN * EJ    TRPL4       010VISTA          000000000005900000000061000000000590000000000000000000060000008372200
0202LOTE PADRAO                   EMBRATEL PARON *       EBTP3       010VISTA          000000000005000000000050000000000480000000000000000000048000053529000
0202LOTE PADRAO                   TELEMAR     PN * EJ    TNLP4       010VISTA          000000000029600000000300000000002930000000000000000000296000245072000
0202LOTE PADRAO                   ITAUBANCO   PN * EJ    ITAU4       010VISTA          000000000171000000001729000000017050000000000000000001705000008227900
0202LOTE PADRAO                   TELEMAR     ON * EJ    TNLP3       010VISTA          000000000021600000000218000000002130000000000000000000218000022867300
0202LOTE PADRAO                   SID NACIONALON *       CSNA3       010VISTA          000000000054000000000564000000005340000000000000000000539000022435300
0202LOTE PADRAO                   TELE LEST CLPN *       TLCP4       010VISTA          000000000000520000000005300000000051000000000000000000005300266472000
0202LOTE PADRAO                   CRT CELULAR PNA* EJ    CRTP5       010VISTA          000000000350000000003600000000034700000000000000000003470000000271100
0202LOTE PADRAO                   IPIRANGA PETPN *       PTIP4       010VISTA          000000000008400000000085000000000800000000000000000000080000004080900
0202LOTE PADRAO                   BRASIL T PARPN *       BRTP4       010VISTA          000000000019250000000198000000001925000000000000000000198000048042900
0202LOTE PADRAO                   BRASIL T PARON *       BRTP3       010VISTA          000000000014250000000150000000001425000000000000000000145000007335500
0202LOTE PADRAO                   KLABIN S/A  PN         KLBN4       010VISTA          000000000001100000000011000000000110000000000000000000011000000104000
0202LOTE PADRAO                   ACESITA     PN *       ACES4       010VISTA          000000000000950000000009600000000093000000000000000000009300086818000
0202LOTE PADRAO                   PETROBRAS   PN         PETR4       010VISTA          000000000052700000000531000000005180000000000000000000523000000115400
0202LOTE PADRAO                   ELETROBRAS  PNB*       ELET6       010VISTA          000000000024700000000248000000002370000000000000000000239000078023400
0202LOTE PADRAO                   PETROBRAS   ON         PETR3       010VISTA          000000000057500000000583000000005710000000000000000000577000000019400
0202LOTE PADRAO                   COMGAS      PNA*       CGAS5       010VISTA          000000000056000000000572000000005400000000000000000000542000001142300
0202LOTE PADRAO                   SOUZA CRUZ  ON EJ      CRUZ3       010VISTA          000000000017600000000176000000001750000000000000000000176000000004200
0202LOTE PADRAO                   ELETROBRAS  ON *       ELET3       010VISTA          000000000025000000000251000000002325000000000000000000232500030297200
0202LOTE PADRAO                   CELESC      PNB        CLSC6       010VISTA          000000000000550000000005600000000054000000000000000000005400000413100
0202LOTE PADRAO                   BRADESCO    PN * EJ    BBDC4       010VISTA          000000000011400000000114000000001100000000000000000000111000362216000
0202LOTE PADRAO                   CESP        PN *       CESP4       010VISTA          000000000008200000000082000000000780000000000000000000078000026642500
0202LOTE PADRAO                   LIGHT       ON *       LIGH3       010VISTA          000000000049000000000503000000004900000000000000000000491000000399300
0202LOTE PADRAO                   TELESP CL PAPN *       TSPP4       010VISTA          000000000004700000000049000000000470000000000000000000047000275530000
0202LOTE PADRAO                   VALE R DOCE PNA        VALE5       010VISTA          000000000090000000000913000000008800000000000000000000882000000016100
0202LOTE PADRAO                   COPEL       PNB*       CPLE6       010VISTA          000000000010100000000102500000000980000000000000000000099000040814700
0202LOTE PADRAO                   VALE R DOCE ON         VALE3       010VISTA          000000000092000000000930000000009170000000000000000000922000000004500
0202LOTE PADRAO                   ARACRUZ     PNB        ARCZ6       010VISTA          000000000006200000000065000000000620000000000000000000065000000046600
0202LOTE PADRAO                   TELEMIG PARTPN *       TMCP4       010VISTA          000000000003200000000032000000000310000000000000000000031000041755000
0202LOTE PADRAO                   BRASIL TELECPN *       BRTO4       010VISTA          000000000012100000000122500000001200000000000000000000121000066313400
0202LOTE PADRAO                   SABESP      ON *       SBSP3       010VISTA          000000000100500000001005000000009650000000000000000000969000005065500
0202LOTE PADRAO                   BRASKEM     PNA*       BRKM5       010VISTA          000000000251000000002624000000025000000000000000000002550000000312100
0202LOTE PADRAO                   EMBRAER     PN EJ      EMBR4       010VISTA          000000000013000000000131000000001260000000000000000000127000000078200
0202LOTE PADRAO                   TELESP      PN * EJ    TLPP4       010VISTA          000000000032600000000337000000003200000000000000000000326000027701400
0202LOTE PADRAO                   EMBRAER     ON EJ      EMBR3       010VISTA          000000000012000000000120000000001150000000000000000000115000000022000
0202LOTE PADRAO                   AMBEV       PN *       AMBV4       010VISTA          000000000525100000005300000000051810000000000000000005192000001082900
0202LOTE PADRAO                   USIMINAS    PNA        USIM5       010VISTA          000000000007100000000074000000000710000000000000000000072000000068500
0202LOTE PADRAO                   ELETROPAULO PN *       ELPL4       010VISTA          000000000033200000000340000000003130000000000000000000313000006318000
0202LOTE PADRAO                   TELE NORD CLPN *       TNEP4       010VISTA          000000000002800000000029000000000280000000000000000000028000079227300
0202LOTE PADRAO                   CEMIG       PN * EJ    CMIG4       010VISTA          000000000028000000000286000000002800000000000000000000284000075965300
0202LOTE PADRAO                   TELE CL SUL PN * EJ    TCSL4       010VISTA          000000000002940000000029000000000280000000000000000000029400038440800
0202LOTE PADRAO                   TRACTEBEL   ON *       TBLE3       010VISTA          000000000003600000000036000000000354000000000000000000036000007250000
0202LOTE PADRAO                   CEMIG       ON * EJ    CMIG3       010VISTA          000000000024500000000250000000002450000000000000000000248000001757300
0202LOTE PADRAO                   TELE CL SUL ON * EJ    TCSL3       010VISTA          000000000002100000000021000000000200000000000000000000020000025524900
0202LOTE PADRAO                   ITAUSA      PN         ITSA4       010VISTA          000000000001970000000019900000000197000000000000000000019700000404300
0202LOTE PADRAO                   V C P       PN *       VCPA4       010VISTA          000000000123500000001270000000012300000000000000000001270000002237700
0202LOTE PADRAO                   SID TUBARAO PN *       CSTB4       010VISTA          000000000038100000000384000000003780000000000000000000378000007857300
0202LOTE PADRAO                   BRADESPAR   PN *       BRAP4       010VISTA          000000000000590000000006000000000058000000000000000000005800188161000
0202LOTE PADRAO                   NET         PN         PLIM4       010VISTA          000000000000500000000005300000000050000000000000000000005000000757000
0202LOTE PADRAO                   TELE CTR OESPN * EJ    TCOC4       010VISTA          000000000005250000000053000000000500000000000000000000052000056057200
0202LOTE PADRAO                   TELEMAR N L PNA* EJ    TMAR5       010VISTA          000000000045750000000470000000004520000000000000000000460000022814000
0202LOTE PADRAO                   GERDAU      PN * EJ    GGBR4       010VISTA          000000000032000000000320000000003160000000000000000000316000018065700
0202LOTE PADRAO                   BRASIL      ON *       BBAS3       010VISTA          000000000010800000000108000000001040000000000000000000105000034671800
