00BDIN9999BOVESPA 99992003050720030507
0101IBOVESPA                      0126690126640129810000000000000000002003050700000020030507012956000000
0202LOTE PADRAO                   EMBRATEL PARPN *       EBTP4       010VISTA          000000000004600000000047900000000450000000000000000000047900732199000
0202LOTE PADRAO                   TRAN PAULISTPN * EJ    TRPL4       010VISTA          000000000006400000000067500000000640000000000000000000067100018045100
0202LOTE PADRAO                   EMBRATEL PARON *       EBTP3       010VISTA          000000000005100000000054000000000510000000000000000000054000050639700
0202LOTE PADRAO                   TELEMAR     PN * EJ    TNLP4       010VISTA          000000000031750000000325000000003130000000000000000000323000377946000
0202LOTE PADRAO                   ITAUBANCO   PN * EJ    ITAU4       010VISTA          000000000193000000001989000000019300000000000000000001989000026744500
0202LOTE PADRAO                   TELEMAR     ON * EJ    TNLP3       010VISTA          000000000022800000000236000000002280000000000000000000236000039105900
0202LOTE PADRAO                   SID NACIONALON *       CSNA3       010VISTA          000000000059200000000620000000005920000000000000000000620000045128300
0202LOTE PADRAO                   TELE LEST CLPN *       TLCP4       010VISTA          000000000000450000000004600000000045000000000000000000004500109176000
0202LOTE PADRAO                   CRT CELULAR PNA* EJ    CRTP5       010VISTA          000000000347000000003550000000033500000000000000000003550000002210000
0202LOTE PADRAO                   IPIRANGA PETPN *       PTIP4       010VISTA          000000000009000000000094000000000900000000000000000000093000020413000
0202LOTE PADRAO                   BRASIL T PARPN *       BRTP4       010VISTA          000000000020600000000207500000002030000000000000000000206000124129000
0202LOTE PADRAO                   BRASIL T PARON *       BRTP3       010VISTA          000000000015600000000161000000001550000000000000000000161000019023900
0202LOTE PADRAO                   KLABIN S/A  PN         KLBN4       010VISTA          000000000001970000000021000000000197000000000000000000021000000045000
0202LOTE PADRAO                   ACESITA     PN *       ACES4       010VISTA          000000000001300000000014000000000130000000000000000000014000461747000
0202LOTE PADRAO                   PETROBRAS   PN         PETR4       010VISTA          000000000051200000000523000000005120000000000000000000521000000184800
0202LOTE PADRAO                   ELETROBRAS  PNB*       ELET6       010VISTA          000000000022600000000239000000002250000000000000000000236000133494000
0202LOTE PADRAO                   PETROBRAS   ON         PETR3       010VISTA          000000000056200000000565000000005570000000000000000000562000000051100
0202LOTE PADRAO                   COMGAS      PNA*       CGAS5       010VISTA          000000000055100000000574000000005510000000000000000000570000001379300
0202LOTE PADRAO                   SOUZA CRUZ  ON EJ      CRUZ3       010VISTA          000000000018000000000186000000001780000000000000000000185000000082900
0202LOTE PADRAO                   ELETROBRAS  ON *       ELET3       010VISTA          000000000021250000000226000000002125000000000000000000225000019180000
0202LOTE PADRAO                   CELESC      PNB        CLSC6       010VISTA          000000000000490000000005300000000049000000000000000000005300001651900
0202LOTE PADRAO                   BRADESCO    PN * EJ    BBDC4       010VISTA          000000000012000000000121000000001190000000000000000000120000462979000
0202LOTE PADRAO                   CESP        PN *       CESP4       010VISTA          000000000007700000000080000000000770000000000000000000080000013883600
0202LOTE PADRAO                   LIGHT       ON *       LIGH3       010VISTA          000000000029300000000310000000002930000000000000000000304000000843700
0202LOTE PADRAO                   TELESP CL PAPN *       TSPP4       010VISTA          000000000004500000000047000000000450000000000000000000047000712339000
0202LOTE PADRAO                   VALE R DOCE PNA        VALE5       010VISTA          000000000081300000000816000000007940000000000000000000800000000086500
0202LOTE PADRAO                   COPEL       PNB*       CPLE6       010VISTA          000000000009200000000097000000000910000000000000000000096000084015200
0202LOTE PADRAO                   VALE R DOCE ON         VALE3       010VISTA          000000000085500000000855000000008430000000000000000000843000000011700
0202LOTE PADRAO                   ARACRUZ     PNB        ARCZ6       010VISTA          000000000006100000000061000000000590000000000000000000059000000040700
0202LOTE PADRAO                   TELEMIG PARTPN *       TMCP4       010VISTA          000000000002700000000027900000000260000000000000000000027700156768000
0202LOTE PADRAO                   BRASIL TELECPN *       BRTO4       010VISTA          000000000012600000000129000000001260000000000000000000129000138438000
0202LOTE PADRAO                   SABESP      ON *       SBSP3       010VISTA          000000000100000000001035000000009640000000000000000001035000020599900
0202LOTE PADRAO                   BRASKEM     PNA*       BRKM5       010VISTA          000000000345500000003800000000034550000000000000000003800000000585100
0202LOTE PADRAO                   EMBRAER     PN EJ      EMBR4       010VISTA          000000000010600000000107000000001050000000000000000000105000000063200
0202LOTE PADRAO                   TELESP      PN * EJ    TLPP4       010VISTA          000000000033800000000340000000003360000000000000000000340000011319200
0202LOTE PADRAO                   EMBRAER     ON EJ      EMBR3       010VISTA          000000000008800000000089000000000850000000000000000000085000000026900
0202LOTE PADRAO                   AMBEV       PN *       AMBV4       010VISTA          000000000591000000006090000000059100000000000000000006080000001304800
0202LOTE PADRAO                   USIMINAS    PNA        USIM5       010VISTA          000000000010800000000110000000001050000000000000000000109000000097300
0202LOTE PADRAO                   ELETROPAULO PN *       ELPL4       010VISTA          000000000027300000000283000000002700000000000000000000281000008884800
0202LOTE PADRAO                   TELE NORD CLPN *       TNEP4       010VISTA          000000000002400000000024800000000240000000000000000000024000131883000
0202LOTE PADRAO                   CEMIG       PN * EJ    CMIG4       010VISTA          000000000030100000000316000000003010000000000000000000316000063675600
0202LOTE PADRAO                   TELE CL SUL PN * EJ    TCSL4       010VISTA          000000000002500000000025000000000248000000000000000000025000086132200
0202LOTE PADRAO                   TRACTEBEL   ON *       TBLE3       010VISTA          000000000005200000000054000000000490000000000000000000051000005129100
0202LOTE PADRAO                   CEMIG       ON * EJ    CMIG3       010VISTA          000000000022300000000235000000002230000000000000000000235000003666000
0202LOTE PADRAO                   TELE CL SUL ON * EJ    TCSL3       010VISTA          000000000002200000000023000000000220000000000000000000023000022403600
0202LOTE PADRAO                   ITAUSA      PN         ITSA4       010VISTA          000000000002200000000023000000000220000000000000000000023000000823100
0202LOTE PADRAO                   V C P       PN *       VCPA4       010VISTA          000000000111000000001115000000010900000000000000000001097000004851400
0202LOTE PADRAO                   SID TUBARAO PN *       CSTB4       010VISTA          000000000048300000000497000000004830000000000000000000497000007485800
0202LOTE PADRAO                   BRADESPAR   PN *       BRAP4       010VISTA          000000000000650000000006600000000064000000000000000000006400245554000
0202LOTE PADRAO                   NET         PN         PLIM4       010VISTA          000000000000380000000003900000000037000000000000000000003800001606600
0202LOTE PADRAO                   TELE CTR OESPN * EJ    TCOC4       010VISTA          000000000005400000000057000000000540000000000000000000057000158704000
0202LOTE PADRAO                   TELEMAR N L PNA* EJ    TMAR5       010VISTA          000000000043000000000440000000004250000000000000000000438000037460100
0202LOTE PADRAO                   GERDAU      PN * EJ    GGBR4       010VISTA          000000000028300000000289000000002810000000000000000000289000000039500
0202LOTE PADRAO                   BRASIL      ON *       BBAS3       010VISTA          000000000012700000000132000000001275000000000000000000132000051005000
