00BDIN9999BOVESPA 99992003080720030807
0101IBOVESPA                      0128920128920133500000000000000000002003080700000020030807013328000000
0202LOTE PADRAO                   EMBRATEL PARPN *       EBTP4       010VISTA          000000000005200000000053000000000510000000000000000000053000533235000
0202LOTE PADRAO                   TRAN PAULISTPN * EJ    TRPL4       010VISTA          000000000006900000000072000000000690000000000000000000072000003861700
0202LOTE PADRAO                   EMBRATEL PARON *       EBTP3       010VISTA          000000000005700000000058000000000550000000000000000000058000024493600
0202LOTE PADRAO                   TELEMAR     PN * EJ    TNLP4       010VISTA          000000000031000000000326000000003100000000000000000000322000372427000
0202LOTE PADRAO                   ITAUBANCO   PN * EJ    ITAU4       010VISTA          000000000204000000002108000000020400000000000000000002090000008935200
0202LOTE PADRAO                   TELEMAR     ON * EJ    TNLP3       010VISTA          000000000023000000000238000000002300000000000000000000236000020754000
0202LOTE PADRAO                   SID NACIONALON *       CSNA3       010VISTA          000000000076800000000809000000007680000000000000000000808000018132100
0202LOTE PADRAO                   TELE LEST CLPN *       TLCP4       010VISTA          000000000000400000000004100000000039000000000000000000004100129075000
0202LOTE PADRAO                   CRT CELULAR PNA* EJ    CRTP5       010VISTA          000000000360000000003629000000035900000000000000000003598000000141300
0202LOTE PADRAO                   IPIRANGA PETPN *       PTIP4       010VISTA          000000000010000000000106000000000990000000000000000000105000011136900
0202LOTE PADRAO                   BRASIL T PARPN *       BRTP4       010VISTA          000000000019500000000208000000001950000000000000000000202000080497600
0202LOTE PADRAO                   BRASIL T PARON *       BRTP3       010VISTA          000000000014800000000155000000001480000000000000000000154000007188000
0202LOTE PADRAO                   KLABIN S/A  PN         KLBN4       010VISTA          000000000002750000000028000000000270000000000000000000028000000045800
0202LOTE PADRAO                   ACESITA     PN *       ACES4       010VISTA          000000000001300000000013000000000130000000000000000000013000095391300
0202LOTE PADRAO                   PETROBRAS   PN         PETR4       010VISTA          000000000054700000000563000000005470000000000000000000562500000125900
0202LOTE PADRAO                   ELETROBRAS  PNB*       ELET6       010VISTA          000000000020700000000219000000002060000000000000000000218000062604300
0202LOTE PADRAO                   PETROBRAS   ON         PETR3       010VISTA          000000000058400000000600000000005820000000000000000000600000000039700
0202LOTE PADRAO                   COMGAS      PNA*       CGAS5       010VISTA          000000000073500000000740000000007100000000000000000000715000002011700
0202LOTE PADRAO                   SOUZA CRUZ  ON EJ      CRUZ3       010VISTA          000000000021800000000228000000002180000000000000000000225000000013500
0202LOTE PADRAO                   ELETROBRAS  ON *       ELET3       010VISTA          000000000017800000000189000000001780000000000000000000188000039075100
0202LOTE PADRAO                   CELESC      PNB        CLSC6       010VISTA          000000000000420000000004400000000041000000000000000000004400000246600
0202LOTE PADRAO                   BRADESCO    PN * EJ    BBDC4       010VISTA          000000000011100000000117500000001110000000000000000000116000253962000
0202LOTE PADRAO                   CESP        PN *       CESP4       010VISTA          000000000006300000000064000000000620000000000000000000064000010350000
0202LOTE PADRAO                   LIGHT       ON *       LIGH3       010VISTA          000000000022300000000233000000002230000000000000000000227500000394300
0202LOTE PADRAO                   TELESP CL PAPN *       TSPP4       010VISTA          000000000004100000000042000000000410000000000000000000042000175516000
0202LOTE PADRAO                   VALE R DOCE PNA        VALE5       010VISTA          000000000092000000000920000000008970000000000000000000904000000036400
0202LOTE PADRAO                   COPEL       PNB*       CPLE6       010VISTA          000000000007800000000081000000000780000000000000000000081000048907300
0202LOTE PADRAO                   VALE R DOCE ON         VALE3       010VISTA          000000000100500000001006000000009850000000000000000000985000000011400
0202LOTE PADRAO                   ARACRUZ     PNB        ARCZ6       010VISTA          000000000007100000000072000000000700000000000000000000071000000081200
0202LOTE PADRAO                   TELEMIG PARTPN *       TMCP4       010VISTA          000000000002750000000027000000000271000000000000000000027700125236000
0202LOTE PADRAO                   BRASIL TELECPN *       BRTO4       010VISTA          000000000011750000000123000000001175000000000000000000123000201577000
0202LOTE PADRAO                   SABESP      ON *       SBSP3       010VISTA          000000000102000000001098000000010170000000000000000001075000001840800
0202LOTE PADRAO                   BRASKEM     PNA*       BRKM5       010VISTA          000000000421000000004390000000042100000000000000000004370000000403500
0202LOTE PADRAO                   EMBRAER     PN EJ      EMBR4       010VISTA          000000000013250000000134000000001325000000000000000000133000000032200
0202LOTE PADRAO                   TELESP      PN * EJ    TLPP4       010VISTA          000000000029100000000305000000002900000000000000000000301000012008900
0202LOTE PADRAO                   EMBRAER     ON EJ      EMBR3       010VISTA          000000000010300000000105000000001030000000000000000000104000000010300
0202LOTE PADRAO                   AMBEV       PN *       AMBV4       010VISTA          000000000590000000005944000000058000000000000000000005944000001522500
0202LOTE PADRAO                   USIMINAS    PNA        USIM5       010VISTA          000000000014400000000157000000001440000000000000000000156000000108300
0202LOTE PADRAO                   ELETROPAULO PN *       ELPL4       010VISTA          000000000022000000000221000000002180000000000000000000221000002985000
0202LOTE PADRAO                   TELE NORD CLPN *       TNEP4       010VISTA          000000000002270000000023000000000220000000000000000000023000093524300
0202LOTE PADRAO                   CEMIG       PN * EJ    CMIG4       010VISTA          000000000026000000000265000000002560000000000000000000265000062517700
0202LOTE PADRAO                   TELE CL SUL PN * EJ    TCSL4       010VISTA          000000000002000000000021000000000200000000000000000000021000072123600
0202LOTE PADRAO                   TRACTEBEL   ON *       TBLE3       010VISTA          000000000007000000000071000000000700000000000000000000070000000980000
0202LOTE PADRAO                   CEMIG       ON * EJ    CMIG3       010VISTA          000000000020000000000204000000002000000000000000000000203000000536700
0202LOTE PADRAO                   TELE CL SUL ON * EJ    TCSL3       010VISTA          000000000001800000000019400000000180000000000000000000019000017976000
0202LOTE PADRAO                   ITAUSA      PN         ITSA4       010VISTA          000000000002400000000024000000000240000000000000000000024800000116400
0202LOTE PADRAO                   V C P       PN *       VCPA4       010VISTA          000000000133000000001335000000013190000000000000000001325000006781200
0202LOTE PADRAO                   SID TUBARAO PN *       CSTB4       010VISTA          000000000049000000000494000000004860000000000000000000490000018592900
0202LOTE PADRAO                   BRADESPAR   PN *       BRAP4       010VISTA          000000000000680000000006900000000067000000000000000000006700081572200
0202LOTE PADRAO                   NET         PN         PLIM4       010VISTA          000000000000310000000003200000000031000000000000000000003200000829600
0202LOTE PADRAO                   TELE CTR OESPN * EJ    TCOC4       010VISTA          000000000005000000000052000000000496000000000000000000052000093159600
0202LOTE PADRAO                   TELEMAR N L PNA* EJ    TMAR5       010VISTA          000000000038500000000400000000003850000000000000000000395000020478500
0202LOTE PADRAO                   GERDAU      PN * EJ    GGBR4       010VISTA          000000000033200000000347000000003320000000000000000000343000000026600
0202LOTE PADRAO                   BRASIL      ON *       BBAS3       010VISTA          000000000013800000000143000000001380000000000000000000141000012896800
