00BDIN9999BOVESPA 99992003082220030822
0101IBOVESPA                      0146700145890147650000000000000000002003082200000020030822014613000000
0202LOTE PADRAO                   EMBRATEL PARPN *       EBTP4       010VISTA          000000000006000000000061000000000590000000000000000000059000349200000
0202LOTE PADRAO                   TRAN PAULISTPN * EJ    TRPL4       010VISTA          000000000008600000000087000000000840000000000000000000085000019327000
0202LOTE PADRAO                   EMBRATEL PARON *       EBTP3       010VISTA          000000000006300000000064000000000620000000000000000000062000059846100
0202LOTE PADRAO                   TELEMAR     PN * EJ    TNLP4       010VISTA          000000000036300000000366000000003580000000000000000000359000243121000
0202LOTE PADRAO                   ITAUBANCO   PN * EJ    ITAU4       010VISTA          000000000220000000002203000000021700000000000000000002190000014332200
0202LOTE PADRAO                   TELEMAR     ON * EJ    TNLP3       010VISTA          000000000026500000000266000000002620000000000000000000263000006288300
0202LOTE PADRAO                   SID NACIONALON *       CSNA3       010VISTA          000000000094300000000959000000009350000000000000000000956000020727800
0202LOTE PADRAO                   TELE LEST CLPN *       TLCP4       010VISTA          000000000000450000000004500000000044000000000000000000004500103437000
0202LOTE PADRAO                   CRT CELULAR PNA* EJ    CRTP5       010VISTA          000000000410000000004120000000040100000000000000000004100000002815500
0202LOTE PADRAO                   IPIRANGA PETPN *       PTIP4       010VISTA          000000000010400000000104000000001000000000000000000000103000006581600
0202LOTE PADRAO                   BRASIL T PARPN *       BRTP4       010VISTA          000000000022100000000223000000002160000000000000000000217500046665500
0202LOTE PADRAO                   BRASIL T PARON *       BRTP3       010VISTA          000000000016500000000166000000001625000000000000000000163000006287000
0202LOTE PADRAO                   KLABIN S/A  PN         KLBN4       010VISTA          000000000003200000000032500000000310000000000000000000031000000035900
0202LOTE PADRAO                   ACESITA     PN *       ACES4       010VISTA          000000000001400000000014900000000140000000000000000000014700441265000
0202LOTE PADRAO                   PETROBRAS   PN         PETR4       010VISTA          000000000058100000000586000000005740000000000000000000578000000081700
0202LOTE PADRAO                   ELETROBRAS  PNB*       ELET6       010VISTA          000000000024000000000241000000002360000000000000000000238000032802900
0202LOTE PADRAO                   PETROBRAS   ON         PETR3       010VISTA          000000000062500000000628000000006160000000000000000000623000000023700
0202LOTE PADRAO                   COMGAS      PNA*       CGAS5       010VISTA          000000000079000000000839000000007900000000000000000000839000003711900
0202LOTE PADRAO                   SOUZA CRUZ  ON EJ      CRUZ3       010VISTA          000000000024000000000240000000002360000000000000000000236000000002900
0202LOTE PADRAO                   ELETROBRAS  ON *       ELET3       010VISTA          000000000021700000000218000000002130000000000000000000213000014458800
0202LOTE PADRAO                   CELESC      PNB        CLSC6       010VISTA          000000000000450000000004700000000045000000000000000000004500000352300
0202LOTE PADRAO                   BRADESCO    PN * EJ    BBDC4       010VISTA          000000000012400000000127000000001240000000000000000000125000276703000
0202LOTE PADRAO                   CESP        PN *       CESP4       010VISTA          000000000007100000000072000000000710000000000000000000071000003463100
0202LOTE PADRAO                   LIGHT       ON *       LIGH3       010VISTA          000000000027400000000277000000002700000000000000000000274000000605500
0202LOTE PADRAO                   TELESP CL PAPN *       TSPP4       010VISTA          000000000004750000000049000000000475000000000000000000048000646311000
0202LOTE PADRAO                   VALE R DOCE PNA        VALE5       010VISTA          000000000104000000001040000000010000000000000000000001012000000036600
0202LOTE PADRAO                   COPEL       PNB*       CPLE6       010VISTA          000000000008600000000088000000000825000000000000000000082000180391000
0202LOTE PADRAO                   VALE R DOCE ON         VALE3       010VISTA          000000000113700000001140000000011030000000000000000001107000000025200
0202LOTE PADRAO                   ARACRUZ     PNB        ARCZ6       010VISTA          000000000007700000000079600000000770000000000000000000077000000067000
0202LOTE PADRAO                   TELEMIG PARTPN *       TMCP4       010VISTA          000000000003200000000032500000000310000000000000000000031000082046900
0202LOTE PADRAO                   BRASIL TELECPN *       BRTO4       010VISTA          000000000013100000000132000000001300000000000000000000130000051060700
0202LOTE PADRAO                   SABESP      ON *       SBSP3       010VISTA          000000000111500000001127000000011140000000000000000001125000002019000
0202LOTE PADRAO                   BRASKEM     PNA*       BRKM5       010VISTA          000000000560000000006050000000056000000000000000000005960000002168200
0202LOTE PADRAO                   EMBRAER     PN EJ      EMBR4       010VISTA          000000000013400000000139000000001325000000000000000000137500000076200
0202LOTE PADRAO                   TELESP      PN * EJ    TLPP4       010VISTA          000000000030800000000311000000003040000000000000000000310000009781100
0202LOTE PADRAO                   EMBRAER     ON EJ      EMBR3       010VISTA          000000000010900000000109000000001080000000000000000000108000000016600
0202LOTE PADRAO                   AMBEV       PN *       AMBV4       010VISTA          000000000608000000006190000000060800000000000000000006120000002349800
0202LOTE PADRAO                   USIMINAS    PNA        USIM5       010VISTA          000000000018100000000186000000001760000000000000000000180000000092900
0202LOTE PADRAO                   ELETROPAULO PN *       ELPL4       010VISTA          000000000024900000000256000000002460000000000000000000255000010962000
0202LOTE PADRAO                   TELE NORD CLPN *       TNEP4       010VISTA          000000000002500000000025000000000248000000000000000000025000041996700
0202LOTE PADRAO                   CEMIG       PN * EJ    CMIG4       010VISTA          000000000030000000000301000000002920000000000000000000297000051488200
0202LOTE PADRAO                   TELE CL SUL PN * EJ    TCSL4       010VISTA          000000000002400000000024800000000240000000000000000000024000126333000
0202LOTE PADRAO                   TRACTEBEL   ON *       TBLE3       010VISTA          000000000007500000000077000000000720000000000000000000072500001194600
0202LOTE PADRAO                   CEMIG       ON * EJ    CMIG3       010VISTA          000000000023100000000231000000002280000000000000000000231000000980600
0202LOTE PADRAO                   TELE CL SUL ON * EJ    TCSL3       010VISTA          000000000002100000000021000000000210000000000000000000021000026596700
0202LOTE PADRAO                   ITAUSA      PN         ITSA4       010VISTA          000000000002600000000027000000000260000000000000000000026000000094200
0202LOTE PADRAO                   V C P       PN *       VCPA4       010VISTA          000000000151000000001523000000014750000000000000000001479000003859100
0202LOTE PADRAO                   SID TUBARAO PN *       CSTB4       010VISTA          000000000060000000000625000000006000000000000000000000602000012707000
0202LOTE PADRAO                   BRADESPAR   PN *       BRAP4       010VISTA          000000000000770000000007800000000076000000000000000000007700142184000
0202LOTE PADRAO                   NET         PN         PLIM4       010VISTA          000000000000350000000003500000000034000000000000000000003400000211300
0202LOTE PADRAO                   TELE CTR OESPN * EJ    TCOC4       010VISTA          000000000005900000000062000000000590000000000000000000061000138049000
0202LOTE PADRAO                   TELEMAR N L PNA* EJ    TMAR5       010VISTA          000000000042500000000431000000004250000000000000000000427000024355200
0202LOTE PADRAO                   GERDAU      PN * EJ    GGBR4       010VISTA          000000000040400000000417500000004040000000000000000000417000000036700
0202LOTE PADRAO                   BRASIL      ON *       BBAS3       010VISTA          000000000015400000000157500000001540000000000000000000156000009663900
