00BDIN9999BOVESPA 99992003070420030704
0101IBOVESPA                      0131350130670132920000000000000000002003070400000020030704013281000000
0202LOTE PADRAO                   EMBRATEL PARPN *       EBTP4       010VISTA          000000000005500000000057500000000550000000000000000000057000225427000
0202LOTE PADRAO                   TRAN PAULISTPN * EJ    TRPL4       010VISTA          000000000007000000000074000000000700000000000000000000074000028450100
0202LOTE PADRAO                   EMBRATEL PARON *       EBTP3       010VISTA          000000000006100000000063000000000610000000000000000000063000044247900
0202LOTE PADRAO                   TELEMAR     PN * EJ    TNLP4       010VISTA          000000000032800000000331000000003250000000000000000000330000160853000
0202LOTE PADRAO                   ITAUBANCO   PN * EJ    ITAU4       010VISTA          000000000190000000001925000000018850000000000000000001915000003512400
0202LOTE PADRAO                   TELEMAR     ON * EJ    TNLP3       010VISTA          000000000023600000000240000000002360000000000000000000239000012059800
0202LOTE PADRAO                   SID NACIONALON *       CSNA3       010VISTA          000000000068400000000700000000006840000000000000000000699000003905300
0202LOTE PADRAO                   TELE LEST CLPN *       TLCP4       010VISTA          000000000000440000000004500000000044000000000000000000004500020782800
0202LOTE PADRAO                   CRT CELULAR PNA* EJ    CRTP5       010VISTA          000000000338700000003400000000033500000000000000000003390000000247600
0202LOTE PADRAO                   IPIRANGA PETPN *       PTIP4       010VISTA          000000000009250000000095000000000925000000000000000000095000011444000
0202LOTE PADRAO                   BRASIL T PARPN *       BRTP4       010VISTA          000000000020700000000213000000002070000000000000000000208000006837200
0202LOTE PADRAO                   BRASIL T PARON *       BRTP3       010VISTA          000000000015800000000160000000001550000000000000000000159000008915800
0202LOTE PADRAO                   KLABIN S/A  PN         KLBN4       010VISTA          000000000002800000000028000000000280000000000000000000028000000121700
0202LOTE PADRAO                   ACESITA     PN *       ACES4       010VISTA          000000000001400000000014000000000140000000000000000000014000140197000
0202LOTE PADRAO                   PETROBRAS   PN         PETR4       010VISTA          000000000051700000000529000000005130000000000000000000529000000048500
0202LOTE PADRAO                   ELETROBRAS  PNB*       ELET6       010VISTA          000000000023500000000243000000002340000000000000000000238000031385200
0202LOTE PADRAO                   PETROBRAS   ON         PETR3       010VISTA          000000000056500000000579000000005630000000000000000000579000000014400
0202LOTE PADRAO                   COMGAS      PNA*       CGAS5       010VISTA          000000000065900000000659000000006400000000000000000000642000000597000
0202LOTE PADRAO                   SOUZA CRUZ  ON EJ      CRUZ3       010VISTA          000000000022600000000231000000002250000000000000000000231000000001900
0202LOTE PADRAO                   ELETROBRAS  ON *       ELET3       010VISTA          000000000021000000000211000000002060000000000000000000210000008278400
0202LOTE PADRAO                   CELESC      PNB        CLSC6       010VISTA          000000000000470000000004800000000046000000000000000000004800000341500
0202LOTE PADRAO                   BRADESCO    PN * EJ    BBDC4       010VISTA          000000000010900000000110000000001080000000000000000000110000077479400
0202LOTE PADRAO                   CESP        PN *       CESP4       010VISTA          000000000007200000000074000000000720000000000000000000073000001580000
0202LOTE PADRAO                   LIGHT       ON *       LIGH3       010VISTA          000000000025300000000258000000002530000000000000000000256000000528000
0202LOTE PADRAO                   TELESP CL PAPN *       TSPP4       010VISTA          000000000004500000000047000000000450000000000000000000046000218247000
0202LOTE PADRAO                   VALE R DOCE PNA        VALE5       010VISTA          000000000080900000000818000000008090000000000000000000817000000028300
0202LOTE PADRAO                   COPEL       PNB*       CPLE6       010VISTA          000000000008800000000089000000000880000000000000000000089000016316000
0202LOTE PADRAO                   VALE R DOCE ON         VALE3       010VISTA          000000000087000000000879000000008700000000000000000000879000000002700
0202LOTE PADRAO                   ARACRUZ     PNB        ARCZ6       010VISTA          000000000006000000000062000000000600000000000000000000061000000053900
0202LOTE PADRAO                   TELEMIG PARTPN *       TMCP4       010VISTA          000000000002900000000030000000000294000000000000000000030000035943700
0202LOTE PADRAO                   BRASIL TELECPN *       BRTO4       010VISTA          000000000012500000000128000000001250000000000000000000128000060961800
0202LOTE PADRAO                   SABESP      ON *       SBSP3       010VISTA          000000000110000000001100000000010670000000000000000001074000002725800
0202LOTE PADRAO                   BRASKEM     PNA*       BRKM5       010VISTA          000000000415000000004198000000041000000000000000000004178000000403700
0202LOTE PADRAO                   EMBRAER     PN EJ      EMBR4       010VISTA          000000000013100000000131000000001280000000000000000000129000000051800
0202LOTE PADRAO                   TELESP      PN * EJ    TLPP4       010VISTA          000000000032750000000327500000003160000000000000000000318000009806600
0202LOTE PADRAO                   EMBRAER     ON EJ      EMBR3       010VISTA          000000000010100000000105000000000990000000000000000000104000000024300
0202LOTE PADRAO                   AMBEV       PN *       AMBV4       010VISTA          000000000590000000005990000000058700000000000000000005990000000631500
0202LOTE PADRAO                   USIMINAS    PNA        USIM5       010VISTA          000000000013000000000133000000001300000000000000000000133000000033300
0202LOTE PADRAO                   ELETROPAULO PN *       ELPL4       010VISTA          000000000025000000000256000000002450000000000000000000251000005454300
0202LOTE PADRAO                   TELE NORD CLPN *       TNEP4       010VISTA          000000000002300000000023000000000230000000000000000000023000036696400
0202LOTE PADRAO                   CEMIG       PN * EJ    CMIG4       010VISTA          000000000027200000000281000000002720000000000000000000281000015767000
0202LOTE PADRAO                   TELE CL SUL PN * EJ    TCSL4       010VISTA          000000000002400000000025200000000240000000000000000000025200018906300
0202LOTE PADRAO                   TRACTEBEL   ON *       TBLE3       010VISTA          000000000007200000000074000000000720000000000000000000074000000192000
0202LOTE PADRAO                   CEMIG       ON * EJ    CMIG3       010VISTA          000000000021400000000218000000002130000000000000000000215000000274000
0202LOTE PADRAO                   TELE CL SUL ON * EJ    TCSL3       010VISTA          000000000002100000000021000000000210000000000000000000021000018619200
0202LOTE PADRAO                   ITAUSA      PN         ITSA4       010VISTA          000000000002300000000023000000000220000000000000000000022000000056800
0202LOTE PADRAO                   V C P       PN *       VCPA4       010VISTA          000000000114900000001205000000011450000000000000000001200000006129300
0202LOTE PADRAO                   SID TUBARAO PN *       CSTB4       010VISTA          000000000052000000000527000000005170000000000000000000519000006772600
0202LOTE PADRAO                   BRADESPAR   PN *       BRAP4       010VISTA          000000000000620000000006300000000061000000000000000000006200190638000
0202LOTE PADRAO                   NET         PN         PLIM4       010VISTA          000000000000280000000003000000000028000000000000000000003000000373700
0202LOTE PADRAO                   TELE CTR OESPN * EJ    TCOC4       010VISTA          000000000005500000000057000000000550000000000000000000057000068042100
0202LOTE PADRAO                   TELEMAR N L PNA* EJ    TMAR5       010VISTA          000000000039000000000394000000003850000000000000000000392500010308300
0202LOTE PADRAO                   GERDAU      PN * EJ    GGBR4       010VISTA          000000000032400000000330000000003220000000000000000000330000000007100
0202LOTE PADRAO                   BRASIL      ON *       BBAS3       010VISTA          000000000013300000000139000000001330000000000000000000138000005077500
