00BDIN9999BOVESPA 99992003022420030224
0101IBOVESPA                      0103340102510104540000000000000000002003022400000020030224010254000000
0202LOTE PADRAO                   EMBRATEL PARPN *       EBTP4       010VISTA          000000000003200000000035000000000320000000000000000000034000525395000
0202LOTE PADRAO                   TRAN PAULISTPN * EJ    TRPL4       010VISTA          000000000005200000000054000000000520000000000000000000053000012406800
0202LOTE PADRAO                   EMBRATEL PARON *       EBTP3       010VISTA          000000000003700000000040000000000370000000000000000000040000037496600
0202LOTE PADRAO                   TELEMAR     PN * EJ    TNLP4       010VISTA          000000000024600000000247000000002400000000000000000000241000169758000
0202LOTE PADRAO                   ITAUBANCO   PN * EJ    ITAU4       010VISTA          000000000153900000001540000000014900000000000000000001490000004123700
0202LOTE PADRAO                   TELEMAR     ON * EJ    TNLP3       010VISTA          000000000018100000000181000000001725000000000000000000173000008354800
0202LOTE PADRAO                   SID NACIONALON *       CSNA3       010VISTA          000000000060300000000604000000005690000000000000000000595000041232700
0202LOTE PADRAO                   TELE LEST CLPN *       TLCP4       010VISTA          000000000000390000000003900000000037000000000000000000003800273151000
0202LOTE PADRAO                   CRT CELULAR PNA* EJ    CRTP5       010VISTA          000000000310000000003100000000030080000000000000000003008000000722500
0202LOTE PADRAO                   IPIRANGA PETPN *       PTIP4       010VISTA          000000000006900000000072000000000680000000000000000000070000000410500
0202LOTE PADRAO                   BRASIL T PARPN *       BRTP4       010VISTA          000000000018600000000186000000001830000000000000000000184000089336800
0202LOTE PADRAO                   BRASIL T PARON *       BRTP3       010VISTA          000000000014500000000145000000001360000000000000000000140000006611800
0202LOTE PADRAO                   KLABIN S/A  PN         KLBN4       010VISTA          000000000001400000000014000000000130000000000000000000013000000058200
0202LOTE PADRAO                   ACESITA     PN *       ACES4       010VISTA          000000000001100000000011000000000100000000000000000000010000311297000
0202LOTE PADRAO                   PETROBRAS   PN         PETR4       010VISTA          000000000045300000000453000000004350000000000000000000436000000069500
0202LOTE PADRAO                   ELETROBRAS  PNB*       ELET6       010VISTA          000000000018500000000185000000001750000000000000000000176000057564100
0202LOTE PADRAO                   PETROBRAS   ON         PETR3       010VISTA          000000000050500000000505000000004830000000000000000000485000000020400
0202LOTE PADRAO                   COMGAS      PNA*       CGAS5       010VISTA          000000000046900000000469000000004410000000000000000000446000000151000
0202LOTE PADRAO                   SOUZA CRUZ  ON EJ      CRUZ3       010VISTA          000000000019100000000191000000001900000000000000000000191000000013100
0202LOTE PADRAO                   ELETROBRAS  ON *       ELET3       010VISTA          000000000017100000000171000000001630000000000000000000163000014452000
0202LOTE PADRAO                   CELESC      PNB        CLSC6       010VISTA          000000000000470000000004800000000047000000000000000000004700000071900
0202LOTE PADRAO                   BRADESCO    PN * EJ    BBDC4       010VISTA          000000000009800000000098000000000970000000000000000000097000120170000
0202LOTE PADRAO                   CESP        PN *       CESP4       010VISTA          000000000005900000000059000000000570000000000000000000057900005305100
0202LOTE PADRAO                   LIGHT       ON *       LIGH3       010VISTA          000000000029900000000317000000002950000000000000000000295000000361400
0202LOTE PADRAO                   TELESP CL PAPN *       TSPP4       010VISTA          000000000003400000000034000000000330000000000000000000033000281340000
0202LOTE PADRAO                   VALE R DOCE PNA        VALE5       010VISTA          000000000098000000000994000000009800000000000000000000992000000005100
0202LOTE PADRAO                   COPEL       PNB*       CPLE6       010VISTA          000000000007500000000077000000000750000000000000000000077000121277000
0202LOTE PADRAO                   VALE R DOCE ON         VALE3       010VISTA          000000000102400000001030000000010120000000000000000001020000000005600
0202LOTE PADRAO                   ARACRUZ     PNB        ARCZ6       010VISTA          000000000006900000000069000000000640000000000000000000065000000072200
0202LOTE PADRAO                   TELEMIG PARTPN *       TMCP4       010VISTA          000000000002600000000026000000000240000000000000000000024000073963200
0202LOTE PADRAO                   BRASIL TELECPN *       BRTO4       010VISTA          000000000011000000000111000000001080000000000000000000109000163001000
0202LOTE PADRAO                   SABESP      ON *       SBSP3       010VISTA          000000000081500000000815000000007650000000000000000000770000006639400
0202LOTE PADRAO                   BRASKEM     PNA*       BRKM5       010VISTA          000000000167500000001675000000016000000000000000000001600000000298000
0202LOTE PADRAO                   EMBRAER     PN EJ      EMBR4       010VISTA          000000000009500000000095000000000920000000000000000000092000000042200
0202LOTE PADRAO                   TELESP      PN * EJ    TLPP4       010VISTA          000000000033800000000338000000003320000000000000000000334000008010100
0202LOTE PADRAO                   EMBRAER     ON EJ      EMBR3       010VISTA          000000000008300000000085000000000810000000000000000000081000000007600
0202LOTE PADRAO                   AMBEV       PN *       AMBV4       010VISTA          000000000516000000005160000000050400000000000000000005040000001116500
0202LOTE PADRAO                   USIMINAS    PNA        USIM5       010VISTA          000000000007400000000076000000000740000000000000000000076000000033100
0202LOTE PADRAO                   ELETROPAULO PN *       ELPL4       010VISTA          000000000022000000000224000000002175000000000000000000218000007450200
0202LOTE PADRAO                   TELE NORD CLPN *       TNEP4       010VISTA          000000000002300000000024000000000230000000000000000000023000050958300
0202LOTE PADRAO                   CEMIG       PN * EJ    CMIG4       010VISTA          000000000023600000000236000000002260000000000000000000229000024380600
0202LOTE PADRAO                   TELE CL SUL PN * EJ    TCSL4       010VISTA          000000000002100000000022000000000210000000000000000000022000040564000
0202LOTE PADRAO                   TRACTEBEL   ON *       TBLE3       010VISTA          000000000003000000000030000000000290000000000000000000029000002061400
0202LOTE PADRAO                   CEMIG       ON * EJ    CMIG3       010VISTA          000000000020000000000200000000001900000000000000000000198000000154300
0202LOTE PADRAO                   TELE CL SUL ON * EJ    TCSL3       010VISTA          000000000001600000000016000000000160000000000000000000016000009180300
0202LOTE PADRAO                   ITAUSA      PN         ITSA4       010VISTA          000000000001810000000018000000000178000000000000000000017900000145400
0202LOTE PADRAO                   V C P       PN *       VCPA4       010VISTA          000000000135000000001350000000012700000000000000000001285000002265800
0202LOTE PADRAO                   SID TUBARAO PN *       CSTB4       010VISTA          000000000043000000000435000000004250000000000000000000430000009739800
0202LOTE PADRAO                   BRADESPAR   PN *       BRAP4       010VISTA          000000000000610000000006400000000061000000000000000000006300244415000
0202LOTE PADRAO                   NET         PN         PLIM4       010VISTA          000000000000300000000003100000000029000000000000000000003000000276000
0202LOTE PADRAO                   TELE CTR OESPN * EJ    TCOC4       010VISTA          000000000004100000000042500000000410000000000000000000041000072414600
0202LOTE PADRAO                   TELEMAR N L PNA* EJ    TMAR5       010VISTA          000000000037700000000377000000003670000000000000000000368000030757000
0202LOTE PADRAO                   GERDAU      PN * EJ    GGBR4       010VISTA          000000000032400000000336000000003230000000000000000000335000024249000
0202LOTE PADRAO                   BRASIL      ON *       BBAS3       010VISTA          000000000009500000000096000000000940000000000000000000094000010847200
