00BDIN9999BOVESPA 99992003030620030306
0101IBOVESPA                      0103110103110106260000000000000000002003030600000020030306010615000000
0202LOTE PADRAO                   EMBRATEL PARPN *       EBTP4       010VISTA          000000000003480000000035000000000330000000000000000000034000411909000
0202LOTE PADRAO                   TRAN PAULISTPN * EJ    TRPL4       010VISTA          000000000005600000000057500000000550000000000000000000057000007308400
0202LOTE PADRAO                   EMBRATEL PARON *       EBTP3       010VISTA          000000000004000000000040000000000380000000000000000000040000039885600
0202LOTE PADRAO                   TELEMAR     PN * EJ    TNLP4       010VISTA          000000000024100000000249000000002400000000000000000000246000349376000
0202LOTE PADRAO                   ITAUBANCO   PN * EJ    ITAU4       010VISTA          000000000159000000001670000000015800000000000000000001670000013937700
0202LOTE PADRAO                   TELEMAR     ON * EJ    TNLP3       010VISTA          000000000017400000000181000000001740000000000000000000180000014875500
0202LOTE PADRAO                   SID NACIONALON *       CSNA3       010VISTA          000000000061400000000614000000005850000000000000000000596000018677600
0202LOTE PADRAO                   TELE LEST CLPN *       TLCP4       010VISTA          000000000000400000000004200000000039000000000000000000004100299606000
0202LOTE PADRAO                   CRT CELULAR PNA* EJ    CRTP5       010VISTA          000000000318900000003189000000030600000000000000000003169000000433500
0202LOTE PADRAO                   IPIRANGA PETPN *       PTIP4       010VISTA          000000000007700000000077000000000725000000000000000000076000002176700
0202LOTE PADRAO                   BRASIL T PARPN *       BRTP4       010VISTA          000000000017900000000181000000001730000000000000000000181000062128800
0202LOTE PADRAO                   BRASIL T PARON *       BRTP3       010VISTA          000000000014250000000144000000001400000000000000000000144000042888600
0202LOTE PADRAO                   KLABIN S/A  PN         KLBN4       010VISTA          000000000001520000000017000000000152000000000000000000016000000078500
0202LOTE PADRAO                   ACESITA     PN *       ACES4       010VISTA          000000000001100000000012000000000110000000000000000000012000286913000
0202LOTE PADRAO                   PETROBRAS   PN         PETR4       010VISTA          000000000041800000000429000000004175000000000000000000429000000123500
0202LOTE PADRAO                   ELETROBRAS  PNB*       ELET6       010VISTA          000000000019100000000198000000001860000000000000000000196000062448400
0202LOTE PADRAO                   PETROBRAS   ON         PETR3       010VISTA          000000000046300000000467000000004600000000000000000000467000000025100
0202LOTE PADRAO                   COMGAS      PNA*       CGAS5       010VISTA          000000000045400000000454000000004370000000000000000000451000001545200
0202LOTE PADRAO                   SOUZA CRUZ  ON EJ      CRUZ3       010VISTA          000000000019800000000199000000001980000000000000000000198000000013700
0202LOTE PADRAO                   ELETROBRAS  ON *       ELET3       010VISTA          000000000018000000000185000000001760000000000000000000183000015002300
0202LOTE PADRAO                   CELESC      PNB        CLSC6       010VISTA          000000000000470000000004700000000046000000000000000000004700000130300
0202LOTE PADRAO                   BRADESCO    PN * EJ    BBDC4       010VISTA          000000000010400000000108000000001030000000000000000000108000209893000
0202LOTE PADRAO                   CESP        PN *       CESP4       010VISTA          000000000006100000000064000000000600000000000000000000064000008905000
0202LOTE PADRAO                   LIGHT       ON *       LIGH3       010VISTA          000000000029400000000298000000002900000000000000000000298000000527900
0202LOTE PADRAO                   TELESP CL PAPN *       TSPP4       010VISTA          000000000003400000000036000000000340000000000000000000036000354313000
0202LOTE PADRAO                   VALE R DOCE PNA        VALE5       010VISTA          000000000098500000000986000000009680000000000000000000970000000037800
0202LOTE PADRAO                   COPEL       PNB*       CPLE6       010VISTA          000000000008100000000085000000000800000000000000000000085000036004900
0202LOTE PADRAO                   VALE R DOCE ON         VALE3       010VISTA          000000000104000000001040000000010170000000000000000001019000000005700
0202LOTE PADRAO                   ARACRUZ     PNB        ARCZ6       010VISTA          000000000006790000000068000000000660000000000000000000067000000090100
0202LOTE PADRAO                   TELEMIG PARTPN *       TMCP4       010VISTA          000000000002600000000026000000000254000000000000000000025000061390400
0202LOTE PADRAO                   BRASIL TELECPN *       BRTO4       010VISTA          000000000010600000000113000000001060000000000000000000112000062746000
0202LOTE PADRAO                   SABESP      ON *       SBSP3       010VISTA          000000000076700000000789000000007500000000000000000000789000005333100
0202LOTE PADRAO                   BRASKEM     PNA*       BRKM5       010VISTA          000000000169000000001740000000016300000000000000000001740000000211200
0202LOTE PADRAO                   EMBRAER     PN EJ      EMBR4       010VISTA          000000000009000000000090000000000840000000000000000000087000000122000
0202LOTE PADRAO                   TELESP      PN * EJ    TLPP4       010VISTA          000000000033600000000336000000003270000000000000000000328000016081900
0202LOTE PADRAO                   EMBRAER     ON EJ      EMBR3       010VISTA          000000000007700000000077000000000730000000000000000000074000000027000
0202LOTE PADRAO                   AMBEV       PN *       AMBV4       010VISTA          000000000495900000005000000000049060000000000000000005000000002915700
0202LOTE PADRAO                   USIMINAS    PNA        USIM5       010VISTA          000000000007500000000077000000000750000000000000000000077900000034500
0202LOTE PADRAO                   ELETROPAULO PN *       ELPL4       010VISTA          000000000022900000000242500000002290000000000000000000242500007572300
0202LOTE PADRAO                   TELE NORD CLPN *       TNEP4       010VISTA          000000000002300000000023000000000220000000000000000000023000137498000
0202LOTE PADRAO                   CEMIG       PN * EJ    CMIG4       010VISTA          000000000023000000000236000000002280000000000000000000236000073895100
0202LOTE PADRAO                   TELE CL SUL PN * EJ    TCSL4       010VISTA          000000000002200000000022000000000220000000000000000000022000152014000
0202LOTE PADRAO                   TRACTEBEL   ON *       TBLE3       010VISTA          000000000003100000000032000000000300000000000000000000031000015325400
0202LOTE PADRAO                   CEMIG       ON * EJ    CMIG3       010VISTA          000000000020000000000201000000001930000000000000000000199000001186900
0202LOTE PADRAO                   TELE CL SUL ON * EJ    TCSL3       010VISTA          000000000001600000000017600000000160000000000000000000017200074150200
0202LOTE PADRAO                   ITAUSA      PN         ITSA4       010VISTA          000000000001800000000019500000000180000000000000000000019500000388000
0202LOTE PADRAO                   V C P       PN *       VCPA4       010VISTA          000000000134900000001349000000012800000000000000000001315000003434100
0202LOTE PADRAO                   SID TUBARAO PN *       CSTB4       010VISTA          000000000049500000000495000000004730000000000000000000477000004663400
0202LOTE PADRAO                   BRADESPAR   PN *       BRAP4       010VISTA          000000000000700000000007100000000068000000000000000000007000165827000
0202LOTE PADRAO                   NET         PN         PLIM4       010VISTA          000000000000310000000003100000000028000000000000000000003100000808200
0202LOTE PADRAO                   TELE CTR OESPN * EJ    TCOC4       010VISTA          000000000004300000000046000000000430000000000000000000046000144884000
0202LOTE PADRAO                   TELEMAR N L PNA* EJ    TMAR5       010VISTA          000000000034800000000359000000003470000000000000000000359000038235000
0202LOTE PADRAO                   GERDAU      PN * EJ    GGBR4       010VISTA          000000000033600000000336000000003320000000000000000000335000015338700
0202LOTE PADRAO                   BRASIL      ON *       BBAS3       010VISTA          000000000009800000000101000000000970000000000000000000101000039344000
