00BDIN9999BOVESPA 99992003042320030423
0101IBOVESPA                      0124550123150124550000000000000000002003042300000020030423012394000000
0202LOTE PADRAO                   EMBRATEL PARPN *       EBTP4       010VISTA          000000000004800000000049000000000460000000000000000000046000526522000
0202LOTE PADRAO                   TRAN PAULISTPN * EJ    TRPL4       010VISTA          000000000006500000000067000000000630000000000000000000063000009221500
0202LOTE PADRAO                   EMBRATEL PARON *       EBTP3       010VISTA          000000000005500000000055000000000525000000000000000000052000085846300
0202LOTE PADRAO                   TELEMAR     PN * EJ    TNLP4       010VISTA          000000000030800000000311000000003050000000000000000000307000215656000
0202LOTE PADRAO                   ITAUBANCO   PN * EJ    ITAU4       010VISTA          000000000190000000001988000000019000000000000000000001970000016653000
0202LOTE PADRAO                   TELEMAR     ON * EJ    TNLP3       010VISTA          000000000021900000000222500000002180000000000000000000220000012021800
0202LOTE PADRAO                   SID NACIONALON *       CSNA3       010VISTA          000000000065400000000659000000006450000000000000000000659000058300600
0202LOTE PADRAO                   TELE LEST CLPN *       TLCP4       010VISTA          000000000000460000000004700000000045000000000000000000004600075355400
0202LOTE PADRAO                   CRT CELULAR PNA* EJ    CRTP5       010VISTA          000000000338000000003395000000033200000000000000000003390000000370500
0202LOTE PADRAO                   IPIRANGA PETPN *       PTIP4       010VISTA          000000000008000000000085000000000800000000000000000000085000010086500
0202LOTE PADRAO                   BRASIL T PARPN *       BRTP4       010VISTA          000000000019800000000201000000001970000000000000000000198000013955500
0202LOTE PADRAO                   BRASIL T PARON *       BRTP3       010VISTA          000000000015300000000155000000001520000000000000000000155000003623900
0202LOTE PADRAO                   KLABIN S/A  PN         KLBN4       010VISTA          000000000001990000000020000000000199000000000000000000020000000012800
0202LOTE PADRAO                   ACESITA     PN *       ACES4       010VISTA          000000000001280000000012800000000126000000000000000000012600249306000
0202LOTE PADRAO                   PETROBRAS   PN         PETR4       010VISTA          000000000048000000000487000000004740000000000000000000486000000120500
0202LOTE PADRAO                   ELETROBRAS  PNB*       ELET6       010VISTA          000000000023300000000239000000002310000000000000000000234000042348100
0202LOTE PADRAO                   PETROBRAS   ON         PETR3       010VISTA          000000000052200000000530000000005120000000000000000000530000000032700
0202LOTE PADRAO                   COMGAS      PNA*       CGAS5       010VISTA          000000000054800000000548000000005350000000000000000000539000000460000
0202LOTE PADRAO                   SOUZA CRUZ  ON EJ      CRUZ3       010VISTA          000000000018100000000181000000001780000000000000000000178000000029500
0202LOTE PADRAO                   ELETROBRAS  ON *       ELET3       010VISTA          000000000020800000000215000000002080000000000000000000208000013702400
0202LOTE PADRAO                   CELESC      PNB        CLSC6       010VISTA          000000000000460000000004700000000046000000000000000000004700000109900
0202LOTE PADRAO                   BRADESCO    PN * EJ    BBDC4       010VISTA          000000000012000000000124000000001190000000000000000000121000264387000
0202LOTE PADRAO                   CESP        PN *       CESP4       010VISTA          000000000007300000000081000000000730000000000000000000079000045227500
0202LOTE PADRAO                   LIGHT       ON *       LIGH3       010VISTA          000000000028300000000293000000002780000000000000000000285000001062100
0202LOTE PADRAO                   TELESP CL PAPN *       TSPP4       010VISTA          000000000004500000000047000000000450000000000000000000047000528088000
0202LOTE PADRAO                   VALE R DOCE PNA        VALE5       010VISTA          000000000082200000000822000000008000000000000000000000802000000020100
0202LOTE PADRAO                   COPEL       PNB*       CPLE6       010VISTA          000000000009000000000091000000000880000000000000000000091000082894300
0202LOTE PADRAO                   VALE R DOCE ON         VALE3       010VISTA          000000000084100000000842000000008350000000000000000000835000000003600
0202LOTE PADRAO                   ARACRUZ     PNB        ARCZ6       010VISTA          000000000006500000000065000000000650000000000000000000065000000012300
0202LOTE PADRAO                   TELEMIG PARTPN *       TMCP4       010VISTA          000000000002750000000027700000000270000000000000000000027000045840200
0202LOTE PADRAO                   BRASIL TELECPN *       BRTO4       010VISTA          000000000012100000000121000000001190000000000000000000120000073993900
0202LOTE PADRAO                   SABESP      ON *       SBSP3       010VISTA          000000000095000000000967500000009500000000000000000000967500011872900
0202LOTE PADRAO                   BRASKEM     PNA*       BRKM5       010VISTA          000000000293000000003055000000028400000000000000000002920000000625100
0202LOTE PADRAO                   EMBRAER     PN EJ      EMBR4       010VISTA          000000000010500000000106000000000990000000000000000000100000000167000
0202LOTE PADRAO                   TELESP      PN * EJ    TLPP4       010VISTA          000000000032300000000326000000003220000000000000000000326000031639400
0202LOTE PADRAO                   EMBRAER     ON EJ      EMBR3       010VISTA          000000000008800000000088000000000850000000000000000000085000000035200
0202LOTE PADRAO                   AMBEV       PN *       AMBV4       010VISTA          000000000555000000005680000000055500000000000000000005659000001301300
0202LOTE PADRAO                   USIMINAS    PNA        USIM5       010VISTA          000000000011100000000111000000001080000000000000000000110000000054500
0202LOTE PADRAO                   ELETROPAULO PN *       ELPL4       010VISTA          000000000028600000000291000000002750000000000000000000275000004844300
0202LOTE PADRAO                   TELE NORD CLPN *       TNEP4       010VISTA          000000000002400000000025000000000240000000000000000000024000042176800
0202LOTE PADRAO                   CEMIG       PN * EJ    CMIG4       010VISTA          000000000028400000000290000000002810000000000000000000290000038284100
0202LOTE PADRAO                   TELE CL SUL PN * EJ    TCSL4       010VISTA          000000000002400000000025000000000230000000000000000000024000067816900
0202LOTE PADRAO                   TRACTEBEL   ON *       TBLE3       010VISTA          000000000005700000000058000000000520000000000000000000052000005186200
0202LOTE PADRAO                   CEMIG       ON * EJ    CMIG3       010VISTA          000000000021500000000218000000002120000000000000000000215000002295400
0202LOTE PADRAO                   TELE CL SUL ON * EJ    TCSL3       010VISTA          000000000002300000000023000000000220000000000000000000023000024119800
0202LOTE PADRAO                   ITAUSA      PN         ITSA4       010VISTA          000000000002200000000023000000000220000000000000000000022700000266400
0202LOTE PADRAO                   V C P       PN *       VCPA4       010VISTA          000000000122000000001225000000012000000000000000000001203000002178900
0202LOTE PADRAO                   SID TUBARAO PN *       CSTB4       010VISTA          000000000049500000000495000000004800000000000000000000484000017524800
0202LOTE PADRAO                   BRADESPAR   PN *       BRAP4       010VISTA          000000000000670000000006700000000065000000000000000000006600090063800
0202LOTE PADRAO                   NET         PN         PLIM4       010VISTA          000000000000340000000003500000000033000000000000000000003500000559500
0202LOTE PADRAO                   TELE CTR OESPN * EJ    TCOC4       010VISTA          000000000005400000000057500000000540000000000000000000057500175082000
0202LOTE PADRAO                   TELEMAR N L PNA* EJ    TMAR5       010VISTA          000000000041400000000416000000004100000000000000000000413000014400700
0202LOTE PADRAO                   GERDAU      PN * EJ    GGBR4       010VISTA          000000000033200000000332000000003270000000000000000000328000015574000
0202LOTE PADRAO                   BRASIL      ON *       BBAS3       010VISTA          000000000012700000000128000000001250000000000000000000127000029294000
