00BDIN9999BOVESPA 99992003022820030228
0101IBOVESPA                      0101530101520102810000000000000000002003022800000020030228010281000000
0202LOTE PADRAO                   EMBRATEL PARPN *       EBTP4       010VISTA          000000000003600000000036900000000340000000000000000000034000479569000
0202LOTE PADRAO                   TRAN PAULISTPN * EJ    TRPL4       010VISTA          000000000005400000000055000000000540000000000000000000054000003792400
0202LOTE PADRAO                   EMBRATEL PARON *       EBTP3       010VISTA          000000000004200000000042000000000398000000000000000000040000038420400
0202LOTE PADRAO                   TELEMAR     PN * EJ    TNLP4       010VISTA          000000000023300000000236000000002320000000000000000000236000262966000
0202LOTE PADRAO                   ITAUBANCO   PN * EJ    ITAU4       010VISTA          000000000152900000001570000000015200000000000000000001570000006047500
0202LOTE PADRAO                   TELEMAR     ON * EJ    TNLP3       010VISTA          000000000016900000000170000000001660000000000000000000170000012546800
0202LOTE PADRAO                   SID NACIONALON *       CSNA3       010VISTA          000000000063200000000632000000006120000000000000000000620000025315400
0202LOTE PADRAO                   TELE LEST CLPN *       TLCP4       010VISTA          000000000000380000000003900000000038000000000000000000003800082335200
0202LOTE PADRAO                   CRT CELULAR PNA* EJ    CRTP5       010VISTA          000000000308000000003080000000029490000000000000000003000000000735500
0202LOTE PADRAO                   IPIRANGA PETPN *       PTIP4       010VISTA          000000000007000000000072000000000700000000000000000000072000003105300
0202LOTE PADRAO                   BRASIL T PARPN *       BRTP4       010VISTA          000000000017600000000178000000001730000000000000000000175000033546400
0202LOTE PADRAO                   BRASIL T PARON *       BRTP3       010VISTA          000000000013500000000139000000001350000000000000000000139000008115100
0202LOTE PADRAO                   KLABIN S/A  PN         KLBN4       010VISTA          000000000001300000000014000000000130000000000000000000014000000017600
0202LOTE PADRAO                   ACESITA     PN *       ACES4       010VISTA          000000000001100000000011000000000110000000000000000000011000101384000
0202LOTE PADRAO                   PETROBRAS   PN         PETR4       010VISTA          000000000042000000000427000000004200000000000000000000426000000068600
0202LOTE PADRAO                   ELETROBRAS  PNB*       ELET6       010VISTA          000000000017500000000178000000001740000000000000000000178000022486600
0202LOTE PADRAO                   PETROBRAS   ON         PETR3       010VISTA          000000000047000000000478000000004690000000000000000000478000000025500
0202LOTE PADRAO                   COMGAS      PNA*       CGAS5       010VISTA          000000000043300000000439000000004260000000000000000000436000000388700
0202LOTE PADRAO                   SOUZA CRUZ  ON EJ      CRUZ3       010VISTA          000000000019900000000199000000001975000000000000000000199000000004900
0202LOTE PADRAO                   ELETROBRAS  ON *       ELET3       010VISTA          000000000016300000000168000000001630000000000000000000168000007550800
0202LOTE PADRAO                   CELESC      PNB        CLSC6       010VISTA          000000000000470000000004700000000046000000000000000000004600000153600
0202LOTE PADRAO                   BRADESCO    PN * EJ    BBDC4       010VISTA          000000000009900000000101000000000990000000000000000000101000120840000
0202LOTE PADRAO                   CESP        PN *       CESP4       010VISTA          000000000005900000000060000000000580000000000000000000059000004679700
0202LOTE PADRAO                   LIGHT       ON *       LIGH3       010VISTA          000000000029000000000294000000002890000000000000000000290000000311100
0202LOTE PADRAO                   TELESP CL PAPN *       TSPP4       010VISTA          000000000003400000000035000000000330000000000000000000033000158642000
0202LOTE PADRAO                   VALE R DOCE PNA        VALE5       010VISTA          000000000095700000000980000000009570000000000000000000980000000010600
0202LOTE PADRAO                   COPEL       PNB*       CPLE6       010VISTA          000000000007790000000079000000000775000000000000000000079000035347100
0202LOTE PADRAO                   VALE R DOCE ON         VALE3       010VISTA          000000000101000000001040000000010100000000000000000001040000000006000
0202LOTE PADRAO                   ARACRUZ     PNB        ARCZ6       010VISTA          000000000006800000000070000000000680000000000000000000070000000025700
0202LOTE PADRAO                   TELEMIG PARTPN *       TMCP4       010VISTA          000000000002400000000025000000000240000000000000000000025000077359700
0202LOTE PADRAO                   BRASIL TELECPN *       BRTO4       010VISTA          000000000010400000000106000000001040000000000000000000106000062646400
0202LOTE PADRAO                   SABESP      ON *       SBSP3       010VISTA          000000000075900000000769000000007450000000000000000000768000001757800
0202LOTE PADRAO                   BRASKEM     PNA*       BRKM5       010VISTA          000000000166000000001680000000016500000000000000000001651000000193700
0202LOTE PADRAO                   EMBRAER     PN EJ      EMBR4       010VISTA          000000000008900000000093000000000890000000000000000000091000000190300
0202LOTE PADRAO                   TELESP      PN * EJ    TLPP4       010VISTA          000000000033000000000337000000003260000000000000000000337000007004800
0202LOTE PADRAO                   EMBRAER     ON EJ      EMBR3       010VISTA          000000000007400000000079000000000740000000000000000000077900000029900
0202LOTE PADRAO                   AMBEV       PN *       AMBV4       010VISTA          000000000501900000005020000000049500000000000000000005020000000839600
0202LOTE PADRAO                   USIMINAS    PNA        USIM5       010VISTA          000000000007600000000077000000000750000000000000000000075000000035000
0202LOTE PADRAO                   ELETROPAULO PN *       ELPL4       010VISTA          000000000023000000000238000000002300000000000000000000233000001893600
0202LOTE PADRAO                   TELE NORD CLPN *       TNEP4       010VISTA          000000000002300000000023000000000227000000000000000000022000023902600
0202LOTE PADRAO                   CEMIG       PN * EJ    CMIG4       010VISTA          000000000023100000000231000000002210000000000000000000226000019146100
0202LOTE PADRAO                   TELE CL SUL PN * EJ    TCSL4       010VISTA          000000000002100000000022000000000210000000000000000000021000064240400
0202LOTE PADRAO                   TRACTEBEL   ON *       TBLE3       010VISTA          000000000003100000000032000000000296000000000000000000031000011584900
0202LOTE PADRAO                   CEMIG       ON * EJ    CMIG3       010VISTA          000000000020000000000200000000001890000000000000000000193000001130000
0202LOTE PADRAO                   TELE CL SUL ON * EJ    TCSL3       010VISTA          000000000001600000000016000000000150000000000000000000016000024848200
0202LOTE PADRAO                   ITAUSA      PN         ITSA4       010VISTA          000000000001800000000018000000000180000000000000000000018000000074000
0202LOTE PADRAO                   V C P       PN *       VCPA4       010VISTA          000000000131000000001353000000013100000000000000000001353000001691700
0202LOTE PADRAO                   SID TUBARAO PN *       CSTB4       010VISTA          000000000045900000000479000000004590000000000000000000468000008117300
0202LOTE PADRAO                   BRADESPAR   PN *       BRAP4       010VISTA          000000000000660000000006800000000066000000000000000000006600129540000
0202LOTE PADRAO                   NET         PN         PLIM4       010VISTA          000000000000300000000003100000000029000000000000000000003000000356300
0202LOTE PADRAO                   TELE CTR OESPN * EJ    TCOC4       010VISTA          000000000004300000000043000000000420000000000000000000042000040769200
0202LOTE PADRAO                   TELEMAR N L PNA* EJ    TMAR5       010VISTA          000000000035800000000358000000003330000000000000000000338000040469400
0202LOTE PADRAO                   GERDAU      PN * EJ    GGBR4       010VISTA          000000000033200000000334000000003300000000000000000000332000006962800
0202LOTE PADRAO                   BRASIL      ON *       BBAS3       010VISTA          000000000009500000000096000000000940000000000000000000095000015934200
