00BDIN9999BOVESPA 99992003031320030313
0101IBOVESPA                      0106060105910108400000000000000000002003031300000020030313010783000000
0202LOTE PADRAO                   EMBRATEL PARPN *       EBTP4       010VISTA          000000000003400000000034000000000330000000000000000000034000421048000
0202LOTE PADRAO                   TRAN PAULISTPN * EJ    TRPL4       010VISTA          000000000005600000000057000000000550000000000000000000056000013694300
0202LOTE PADRAO                   EMBRATEL PARON *       EBTP3       010VISTA          000000000003800000000039800000000380000000000000000000039000047077500
0202LOTE PADRAO                   TELEMAR     PN * EJ    TNLP4       010VISTA          000000000025800000000264000000002560000000000000000000261000533213000
0202LOTE PADRAO                   ITAUBANCO   PN * EJ    ITAU4       010VISTA          000000000168300000001725000000016590000000000000000001720000013819600
0202LOTE PADRAO                   TELEMAR     ON * EJ    TNLP3       010VISTA          000000000019000000000191000000001860000000000000000000190000031078400
0202LOTE PADRAO                   SID NACIONALON *       CSNA3       010VISTA          000000000059900000000599000000005760000000000000000000577000038832600
0202LOTE PADRAO                   TELE LEST CLPN *       TLCP4       010VISTA          000000000000400000000004100000000039000000000000000000004000223210000
0202LOTE PADRAO                   CRT CELULAR PNA* EJ    CRTP5       010VISTA          000000000310000000003179000000030700000000000000000003150000000778100
0202LOTE PADRAO                   IPIRANGA PETPN *       PTIP4       010VISTA          000000000007000000000075000000000700000000000000000000070000001227300
0202LOTE PADRAO                   BRASIL T PARPN *       BRTP4       010VISTA          000000000018000000000188000000001800000000000000000000186000062530500
0202LOTE PADRAO                   BRASIL T PARON *       BRTP3       010VISTA          000000000013600000000143000000001350000000000000000000142000008815800
0202LOTE PADRAO                   KLABIN S/A  PN         KLBN4       010VISTA          000000000001500000000015000000000150000000000000000000015000000044200
0202LOTE PADRAO                   ACESITA     PN *       ACES4       010VISTA          000000000001100000000011000000000110000000000000000000011000117099000
0202LOTE PADRAO                   PETROBRAS   PN         PETR4       010VISTA          000000000045900000000466000000004500000000000000000000458000000152500
0202LOTE PADRAO                   ELETROBRAS  PNB*       ELET6       010VISTA          000000000019600000000196000000001900000000000000000000190000074625000
0202LOTE PADRAO                   PETROBRAS   ON         PETR3       010VISTA          000000000050000000000513000000004920000000000000000000507000000046400
0202LOTE PADRAO                   COMGAS      PNA*       CGAS5       010VISTA          000000000044000000000448000000004350000000000000000000445000001283200
0202LOTE PADRAO                   SOUZA CRUZ  ON EJ      CRUZ3       010VISTA          000000000019000000000193000000001790000000000000000000181000000032600
0202LOTE PADRAO                   ELETROBRAS  ON *       ELET3       010VISTA          000000000018600000000186000000001760000000000000000000178000027220600
0202LOTE PADRAO                   CELESC      PNB        CLSC6       010VISTA          000000000000460000000004800000000046000000000000000000004700000193200
0202LOTE PADRAO                   BRADESCO    PN * EJ    BBDC4       010VISTA          000000000010600000000109000000001060000000000000000000109000227112000
0202LOTE PADRAO                   CESP        PN *       CESP4       010VISTA          000000000006200000000065000000000620000000000000000000062000007694000
0202LOTE PADRAO                   LIGHT       ON *       LIGH3       010VISTA          000000000029000000000295000000002800000000000000000000280000000119500
0202LOTE PADRAO                   TELESP CL PAPN *       TSPP4       010VISTA          000000000003600000000039000000000360000000000000000000038000754071000
0202LOTE PADRAO                   VALE R DOCE PNA        VALE5       010VISTA          000000000093600000000937000000009170000000000000000000917000000019200
0202LOTE PADRAO                   COPEL       PNB*       CPLE6       010VISTA          000000000008300000000085000000000820000000000000000000085000031055400
0202LOTE PADRAO                   VALE R DOCE ON         VALE3       010VISTA          000000000099200000000992000000009700000000000000000000970000000005900
0202LOTE PADRAO                   ARACRUZ     PNB        ARCZ6       010VISTA          000000000006700000000067000000000660000000000000000000067500000041800
0202LOTE PADRAO                   TELEMIG PARTPN *       TMCP4       010VISTA          000000000002690000000028000000000260000000000000000000028000145703000
0202LOTE PADRAO                   BRASIL TELECPN *       BRTO4       010VISTA          000000000010900000000112500000001090000000000000000000112000111970000
0202LOTE PADRAO                   SABESP      ON *       SBSP3       010VISTA          000000000079400000000799000000007740000000000000000000780000009518800
0202LOTE PADRAO                   BRASKEM     PNA*       BRKM5       010VISTA          000000000177900000001779000000016800000000000000000001698000000512500
0202LOTE PADRAO                   EMBRAER     PN EJ      EMBR4       010VISTA          000000000008250000000084000000000810000000000000000000083000000068200
0202LOTE PADRAO                   TELESP      PN * EJ    TLPP4       010VISTA          000000000032200000000327000000003100000000000000000000325000017508800
0202LOTE PADRAO                   EMBRAER     ON EJ      EMBR3       010VISTA          000000000007200000000072000000000690000000000000000000070000000019700
0202LOTE PADRAO                   AMBEV       PN *       AMBV4       010VISTA          000000000500000000005160000000049300000000000000000005159000001398600
0202LOTE PADRAO                   USIMINAS    PNA        USIM5       010VISTA          000000000007400000000077000000000740000000000000000000076000000051700
0202LOTE PADRAO                   ELETROPAULO PN *       ELPL4       010VISTA          000000000022800000000231000000002260000000000000000000228000005107000
0202LOTE PADRAO                   TELE NORD CLPN *       TNEP4       010VISTA          000000000002200000000023000000000220000000000000000000023000229453000
0202LOTE PADRAO                   CEMIG       PN * EJ    CMIG4       010VISTA          000000000024600000000249000000002400000000000000000000248000076456300
0202LOTE PADRAO                   TELE CL SUL PN * EJ    TCSL4       010VISTA          000000000002200000000023000000000220000000000000000000023000226761000
0202LOTE PADRAO                   TRACTEBEL   ON *       TBLE3       010VISTA          000000000003250000000033000000000320000000000000000000032000020890000
0202LOTE PADRAO                   CEMIG       ON * EJ    CMIG3       010VISTA          000000000019100000000201000000001910000000000000000000201000000341600
0202LOTE PADRAO                   TELE CL SUL ON * EJ    TCSL3       010VISTA          000000000001790000000018000000000176000000000000000000018000051815700
0202LOTE PADRAO                   ITAUSA      PN         ITSA4       010VISTA          000000000001900000000019600000000180000000000000000000019400000444300
0202LOTE PADRAO                   V C P       PN *       VCPA4       010VISTA          000000000124000000001265000000012400000000000000000001250000001416500
0202LOTE PADRAO                   SID TUBARAO PN *       CSTB4       010VISTA          000000000045200000000460000000004300000000000000000000433000031595600
0202LOTE PADRAO                   BRADESPAR   PN *       BRAP4       010VISTA          000000000000680000000006900000000065000000000000000000006600164757000
0202LOTE PADRAO                   NET         PN         PLIM4       010VISTA          000000000000300000000003200000000030000000000000000000003000001308100
0202LOTE PADRAO                   TELE CTR OESPN * EJ    TCOC4       010VISTA          000000000004500000000049000000000450000000000000000000049000138701000
0202LOTE PADRAO                   TELEMAR N L PNA* EJ    TMAR5       010VISTA          000000000035800000000365000000003560000000000000000000360000036407000
0202LOTE PADRAO                   GERDAU      PN * EJ    GGBR4       010VISTA          000000000031800000000318000000003080000000000000000000316000021648900
0202LOTE PADRAO                   BRASIL      ON *       BBAS3       010VISTA          000000000010000000000104000000001000000000000000000000102000041549600
