00BDIN9999BOVESPA 99992003070120030701
0101IBOVESPA                      0129670128930132910000000000000000002003070100000020030701013291000000
0202LOTE PADRAO                   EMBRATEL PARPN *       EBTP4       010VISTA          000000000005700000000060000000000560000000000000000000059000429224000
0202LOTE PADRAO                   TRAN PAULISTPN * EJ    TRPL4       010VISTA          000000000006600000000066000000000650000000000000000000066000015275700
0202LOTE PADRAO                   EMBRATEL PARON *       EBTP3       010VISTA          000000000006200000000065000000000620000000000000000000065400064364300
0202LOTE PADRAO                   TELEMAR     PN * EJ    TNLP4       010VISTA          000000000033000000000341000000003270000000000000000000340000248159000
0202LOTE PADRAO                   ITAUBANCO   PN * EJ    ITAU4       010VISTA          000000000190000000001940000000018810000000000000000001940000010606300
0202LOTE PADRAO                   TELEMAR     ON * EJ    TNLP3       010VISTA          000000000024100000000248000000002380000000000000000000246000015478100
0202LOTE PADRAO                   SID NACIONALON *       CSNA3       010VISTA          000000000070200000000702000000006860000000000000000000691000011137700
0202LOTE PADRAO                   TELE LEST CLPN *       TLCP4       010VISTA          000000000000440000000004500000000043000000000000000000004500091996300
0202LOTE PADRAO                   CRT CELULAR PNA* EJ    CRTP5       010VISTA          000000000339000000003450000000032600000000000000000003450000000902800
0202LOTE PADRAO                   IPIRANGA PETPN *       PTIP4       010VISTA          000000000009100000000094000000000910000000000000000000093000006802800
0202LOTE PADRAO                   BRASIL T PARPN *       BRTP4       010VISTA          000000000021100000000218000000002100000000000000000000215000025480100
0202LOTE PADRAO                   BRASIL T PARON *       BRTP3       010VISTA          000000000015800000000162000000001560000000000000000000162000015318500
0202LOTE PADRAO                   KLABIN S/A  PN         KLBN4       010VISTA          000000000002900000000030000000000290000000000000000000029000000109400
0202LOTE PADRAO                   ACESITA     PN *       ACES4       010VISTA          000000000001400000000015100000000140000000000000000000014800276673000
0202LOTE PADRAO                   PETROBRAS   PN         PETR4       010VISTA          000000000051100000000516000000005070000000000000000000513000000085300
0202LOTE PADRAO                   ELETROBRAS  PNB*       ELET6       010VISTA          000000000022100000000233000000002180000000000000000000233000048625100
0202LOTE PADRAO                   PETROBRAS   ON         PETR3       010VISTA          000000000055700000000565000000005540000000000000000000565000000021000
0202LOTE PADRAO                   COMGAS      PNA*       CGAS5       010VISTA          000000000063500000000667000000006300000000000000000000654000001646000
0202LOTE PADRAO                   SOUZA CRUZ  ON EJ      CRUZ3       010VISTA          000000000023300000000233000000002270000000000000000000230000000006500
0202LOTE PADRAO                   ELETROBRAS  ON *       ELET3       010VISTA          000000000019700000000209000000001960000000000000000000209000013679100
0202LOTE PADRAO                   CELESC      PNB        CLSC6       010VISTA          000000000000460000000004700000000044000000000000000000004700000152600
0202LOTE PADRAO                   BRADESCO    PN * EJ    BBDC4       010VISTA          000000000010600000000110000000001050000000000000000000110000127987000
0202LOTE PADRAO                   CESP        PN *       CESP4       010VISTA          000000000006900000000072000000000690000000000000000000072000009883900
0202LOTE PADRAO                   LIGHT       ON *       LIGH3       010VISTA          000000000025800000000265000000002500000000000000000000259000001834000
0202LOTE PADRAO                   TELESP CL PAPN *       TSPP4       010VISTA          000000000004400000000046000000000440000000000000000000046000367958000
0202LOTE PADRAO                   VALE R DOCE PNA        VALE5       010VISTA          000000000078400000000790000000007800000000000000000000790000000020400
0202LOTE PADRAO                   COPEL       PNB*       CPLE6       010VISTA          000000000008300000000089000000000820000000000000000000088000116430000
0202LOTE PADRAO                   VALE R DOCE ON         VALE3       010VISTA          000000000084000000000855000000008400000000000000000000855000000007500
0202LOTE PADRAO                   ARACRUZ     PNB        ARCZ6       010VISTA          000000000005900000000060000000000580000000000000000000059600000020800
0202LOTE PADRAO                   TELEMIG PARTPN *       TMCP4       010VISTA          000000000002980000000031000000000290000000000000000000031000083672900
0202LOTE PADRAO                   BRASIL TELECPN *       BRTO4       010VISTA          000000000012800000000130000000001260000000000000000000130000097571200
0202LOTE PADRAO                   SABESP      ON *       SBSP3       010VISTA          000000000104400000001100000000010400000000000000000001100000003384200
0202LOTE PADRAO                   BRASKEM     PNA*       BRKM5       010VISTA          000000000375000000003879000000036700000000000000000003840000000305300
0202LOTE PADRAO                   EMBRAER     PN EJ      EMBR4       010VISTA          000000000013400000000135000000001310000000000000000000135000000038600
0202LOTE PADRAO                   TELESP      PN * EJ    TLPP4       010VISTA          000000000033200000000332000000003270000000000000000000331000015895500
0202LOTE PADRAO                   EMBRAER     ON EJ      EMBR3       010VISTA          000000000010400000000105000000001010000000000000000000104000000035100
0202LOTE PADRAO                   AMBEV       PN *       AMBV4       010VISTA          000000000580000000005910000000057500000000000000000005910000002258700
0202LOTE PADRAO                   USIMINAS    PNA        USIM5       010VISTA          000000000013200000000132000000001250000000000000000000130000000070700
0202LOTE PADRAO                   ELETROPAULO PN *       ELPL4       010VISTA          000000000023800000000260000000002360000000000000000000255000007659900
0202LOTE PADRAO                   TELE NORD CLPN *       TNEP4       010VISTA          000000000002300000000023000000000230000000000000000000023000087497900
0202LOTE PADRAO                   CEMIG       PN * EJ    CMIG4       010VISTA          000000000026300000000275000000002600000000000000000000273000077806300
0202LOTE PADRAO                   TELE CL SUL PN * EJ    TCSL4       010VISTA          000000000002400000000024000000000230000000000000000000024000161895000
0202LOTE PADRAO                   TRACTEBEL   ON *       TBLE3       010VISTA          000000000007000000000074000000000700000000000000000000074000010343000
0202LOTE PADRAO                   CEMIG       ON * EJ    CMIG3       010VISTA          000000000020900000000219000000002080000000000000000000219000001207300
0202LOTE PADRAO                   TELE CL SUL ON * EJ    TCSL3       010VISTA          000000000002100000000022000000000200000000000000000000022000010116000
0202LOTE PADRAO                   ITAUSA      PN         ITSA4       010VISTA          000000000002250000000023000000000220000000000000000000023000000444900
0202LOTE PADRAO                   V C P       PN *       VCPA4       010VISTA          000000000110000000001105000000010900000000000000000001105000001860400
0202LOTE PADRAO                   SID TUBARAO PN *       CSTB4       010VISTA          000000000050000000000533000000005000000000000000000000528000014182300
0202LOTE PADRAO                   BRADESPAR   PN *       BRAP4       010VISTA          000000000000630000000006300000000061000000000000000000006300167366000
0202LOTE PADRAO                   NET         PN         PLIM4       010VISTA          000000000000290000000003000000000028000000000000000000002900000551700
0202LOTE PADRAO                   TELE CTR OESPN * EJ    TCOC4       010VISTA          000000000005400000000056000000000530000000000000000000056000114485000
0202LOTE PADRAO                   TELEMAR N L PNA* EJ    TMAR5       010VISTA          000000000039300000000402000000003870000000000000000000402000018656200
0202LOTE PADRAO                   GERDAU      PN * EJ    GGBR4       010VISTA          000000000033000000000330000000003230000000000000000000328000000023100
0202LOTE PADRAO                   BRASIL      ON *       BBAS3       010VISTA          000000000012900000000135000000001290000000000000000000135000026572500
