00BDIN9999BOVESPA 99992003051420030514
0101IBOVESPA                      0134280133360134830000000000000000002003051400000020030514013459000000
0202LOTE PADRAO                   EMBRATEL PARPN *       EBTP4       010VISTA          000000000004600000000047000000000450000000000000000000047500372526000
0202LOTE PADRAO                   TRAN PAULISTPN * EJ    TRPL4       010VISTA          000000000007600000000076000000000730000000000000000000075000018675800
0202LOTE PADRAO                   EMBRATEL PARON *       EBTP3       010VISTA          000000000005300000000054000000000525000000000000000000054000041666300
0202LOTE PADRAO                   TELEMAR     PN * EJ    TNLP4       010VISTA          000000000034900000000357500000003470000000000000000000356000316130000
0202LOTE PADRAO                   ITAUBANCO   PN * EJ    ITAU4       010VISTA          000000000203500000002065000000020200000000000000000002030000009594700
0202LOTE PADRAO                   TELEMAR     ON * EJ    TNLP3       010VISTA          000000000025300000000260000000002525000000000000000000260000033108400
0202LOTE PADRAO                   SID NACIONALON *       CSNA3       010VISTA          000000000059000000000590000000005760000000000000000000583000021273600
0202LOTE PADRAO                   TELE LEST CLPN *       TLCP4       010VISTA          000000000000450000000004700000000045000000000000000000004600074673800
0202LOTE PADRAO                   CRT CELULAR PNA* EJ    CRTP5       010VISTA          000000000352900000003590000000035200000000000000000003580000000817800
0202LOTE PADRAO                   IPIRANGA PETPN *       PTIP4       010VISTA          000000000009200000000092000000000890000000000000000000090000011524100
0202LOTE PADRAO                   BRASIL T PARPN *       BRTP4       010VISTA          000000000022100000000225000000002160000000000000000000221000055274800
0202LOTE PADRAO                   BRASIL T PARON *       BRTP3       010VISTA          000000000016200000000167000000001610000000000000000000163000016595800
0202LOTE PADRAO                   KLABIN S/A  PN         KLBN4       010VISTA          000000000002000000000020000000000200000000000000000000020000000034300
0202LOTE PADRAO                   ACESITA     PN *       ACES4       010VISTA          000000000001300000000014000000000130000000000000000000014000205780000
0202LOTE PADRAO                   PETROBRAS   PN         PETR4       010VISTA          000000000054800000000548000000005375000000000000000000539000000113900
0202LOTE PADRAO                   ELETROBRAS  PNB*       ELET6       010VISTA          000000000026200000000266000000002600000000000000000000261000051034800
0202LOTE PADRAO                   PETROBRAS   ON         PETR3       010VISTA          000000000058200000000590000000005780000000000000000000587000000028700
0202LOTE PADRAO                   COMGAS      PNA*       CGAS5       010VISTA          000000000058000000000585000000005650000000000000000000580000001905700
0202LOTE PADRAO                   SOUZA CRUZ  ON EJ      CRUZ3       010VISTA          000000000019500000000195000000001880000000000000000000188000000012000
0202LOTE PADRAO                   ELETROBRAS  ON *       ELET3       010VISTA          000000000024500000000250000000002430000000000000000000246000010768200
0202LOTE PADRAO                   CELESC      PNB        CLSC6       010VISTA          000000000000520000000005300000000051000000000000000000005200000194700
0202LOTE PADRAO                   BRADESCO    PN * EJ    BBDC4       010VISTA          000000000011900000000122000000001190000000000000000000121000247105000
0202LOTE PADRAO                   CESP        PN *       CESP4       010VISTA          000000000009000000000090000000000880000000000000000000089000012739200
0202LOTE PADRAO                   LIGHT       ON *       LIGH3       010VISTA          000000000032200000000322000000003100000000000000000000311000001155100
0202LOTE PADRAO                   TELESP CL PAPN *       TSPP4       010VISTA          000000000004800000000048000000000460000000000000000000048000453147000
0202LOTE PADRAO                   VALE R DOCE PNA        VALE5       010VISTA          000000000081500000000820000000007920000000000000000000799000000071300
0202LOTE PADRAO                   COPEL       PNB*       CPLE6       010VISTA          000000000010600000000107000000001030000000000000000000106000081888400
0202LOTE PADRAO                   VALE R DOCE ON         VALE3       010VISTA          000000000084500000000852500000008270000000000000000000829000000008700
0202LOTE PADRAO                   ARACRUZ     PNB        ARCZ6       010VISTA          000000000005400000000055000000000530000000000000000000054000000095200
0202LOTE PADRAO                   TELEMIG PARTPN *       TMCP4       010VISTA          000000000002800000000028000000000280000000000000000000028000045642400
0202LOTE PADRAO                   BRASIL TELECPN *       BRTO4       010VISTA          000000000013400000000135000000001320000000000000000000135000093693900
0202LOTE PADRAO                   SABESP      ON *       SBSP3       010VISTA          000000000107900000001090000000010700000000000000000001080000004123300
0202LOTE PADRAO                   BRASKEM     PNA*       BRKM5       010VISTA          000000000400000000004000000000038050000000000000000003830000000629600
0202LOTE PADRAO                   EMBRAER     PN EJ      EMBR4       010VISTA          000000000011100000000114000000001080000000000000000000108000000191600
0202LOTE PADRAO                   TELESP      PN * EJ    TLPP4       010VISTA          000000000032000000000320000000003110000000000000000000313000026512300
0202LOTE PADRAO                   EMBRAER     ON EJ      EMBR3       010VISTA          000000000009400000000095000000000910000000000000000000092000000037600
0202LOTE PADRAO                   AMBEV       PN *       AMBV4       010VISTA          000000000604500000006099000000059900000000000000000005990000001560600
0202LOTE PADRAO                   USIMINAS    PNA        USIM5       010VISTA          000000000011000000000110000000001050000000000000000000107000000045900
0202LOTE PADRAO                   ELETROPAULO PN *       ELPL4       010VISTA          000000000030600000000318000000003060000000000000000000318000002599900
0202LOTE PADRAO                   TELE NORD CLPN *       TNEP4       010VISTA          000000000002690000000026900000000260000000000000000000026000084128500
0202LOTE PADRAO                   CEMIG       PN * EJ    CMIG4       010VISTA          000000000032100000000322000000003130000000000000000000320000051457600
0202LOTE PADRAO                   TELE CL SUL PN * EJ    TCSL4       010VISTA          000000000002700000000028000000000270000000000000000000028000145556000
0202LOTE PADRAO                   TRACTEBEL   ON *       TBLE3       010VISTA          000000000004800000000050000000000480000000000000000000049000024656200
0202LOTE PADRAO                   CEMIG       ON * EJ    CMIG3       010VISTA          000000000025000000000253000000002460000000000000000000253000000832500
0202LOTE PADRAO                   TELE CL SUL ON * EJ    TCSL3       010VISTA          000000000002500000000025600000000248000000000000000000025000016817700
0202LOTE PADRAO                   ITAUSA      PN         ITSA4       010VISTA          000000000002300000000024000000000230000000000000000000024000000228500
0202LOTE PADRAO                   V C P       PN *       VCPA4       010VISTA          000000000105000000001050000000010260000000000000000001030000005909900
0202LOTE PADRAO                   SID TUBARAO PN *       CSTB4       010VISTA          000000000048000000000482000000004730000000000000000000480000007260200
0202LOTE PADRAO                   BRADESPAR   PN *       BRAP4       010VISTA          000000000000660000000006700000000066000000000000000000006700168968000
0202LOTE PADRAO                   NET         PN         PLIM4       010VISTA          000000000000380000000004000000000038000000000000000000003800001952000
0202LOTE PADRAO                   TELE CTR OESPN * EJ    TCOC4       010VISTA          000000000005750000000059000000000570000000000000000000059000187249000
0202LOTE PADRAO                   TELEMAR N L PNA* EJ    TMAR5       010VISTA          000000000046100000000467000000004530000000000000000000467000030217000
0202LOTE PADRAO                   GERDAU      PN * EJ    GGBR4       010VISTA          000000000031300000000316000000003100000000000000000000316000000028000
0202LOTE PADRAO                   BRASIL      ON *       BBAS3       010VISTA          000000000013750000000139000000001350000000000000000000137000024731100
