00BDIN9999BOVESPA 99992003082120030821
0101IBOVESPA                      0144700143980146870000000000000000002003082100000020030821014670000000
0202LOTE PADRAO                   EMBRATEL PARPN *       EBTP4       010VISTA          000000000006000000000061000000000596000000000000000000060000490943000
0202LOTE PADRAO                   TRAN PAULISTPN * EJ    TRPL4       010VISTA          000000000008300000000086000000000820000000000000000000086000028761000
0202LOTE PADRAO                   EMBRATEL PARON *       EBTP3       010VISTA          000000000006300000000065000000000620000000000000000000063000039226300
0202LOTE PADRAO                   TELEMAR     PN * EJ    TNLP4       010VISTA          000000000035800000000365000000003550000000000000000000363000458059000
0202LOTE PADRAO                   ITAUBANCO   PN * EJ    ITAU4       010VISTA          000000000214900000002220000000021300000000000000000002200000019162600
0202LOTE PADRAO                   TELEMAR     ON * EJ    TNLP3       010VISTA          000000000026100000000266000000002580000000000000000000266000017426900
0202LOTE PADRAO                   SID NACIONALON *       CSNA3       010VISTA          000000000090000000000947000000008800000000000000000000945000029807900
0202LOTE PADRAO                   TELE LEST CLPN *       TLCP4       010VISTA          000000000000450000000004500000000043000000000000000000004400157712000
0202LOTE PADRAO                   CRT CELULAR PNA* EJ    CRTP5       010VISTA          000000000400000000004080000000040000000000000000000004078000000945500
0202LOTE PADRAO                   IPIRANGA PETPN *       PTIP4       010VISTA          000000000010300000000104000000001030000000000000000000103000009552300
0202LOTE PADRAO                   BRASIL T PARPN *       BRTP4       010VISTA          000000000021700000000221000000002110000000000000000000220000102158000
0202LOTE PADRAO                   BRASIL T PARON *       BRTP3       010VISTA          000000000015700000000166000000001570000000000000000000165000014420200
0202LOTE PADRAO                   KLABIN S/A  PN         KLBN4       010VISTA          000000000003200000000032000000000310000000000000000000032000000307200
0202LOTE PADRAO                   ACESITA     PN *       ACES4       010VISTA          000000000001400000000014000000000130000000000000000000014000472382000
0202LOTE PADRAO                   PETROBRAS   PN         PETR4       010VISTA          000000000057700000000585000000005720000000000000000000580000000175500
0202LOTE PADRAO                   ELETROBRAS  PNB*       ELET6       010VISTA          000000000023500000000241000000002340000000000000000000240000078217500
0202LOTE PADRAO                   PETROBRAS   ON         PETR3       010VISTA          000000000062300000000627000000006160000000000000000000623000000044000
0202LOTE PADRAO                   COMGAS      PNA*       CGAS5       010VISTA          000000000078500000000790000000007790000000000000000000790000001678700
0202LOTE PADRAO                   SOUZA CRUZ  ON EJ      CRUZ3       010VISTA          000000000023900000000241000000002370000000000000000000238000000015300
0202LOTE PADRAO                   ELETROBRAS  ON *       ELET3       010VISTA          000000000021300000000216000000002080000000000000000000215000026309000
0202LOTE PADRAO                   CELESC      PNB        CLSC6       010VISTA          000000000000460000000004600000000044000000000000000000004500000327800
0202LOTE PADRAO                   BRADESCO    PN * EJ    BBDC4       010VISTA          000000000012100000000125000000001200000000000000000000124000351245000
0202LOTE PADRAO                   CESP        PN *       CESP4       010VISTA          000000000007300000000073000000000710000000000000000000072000008995300
0202LOTE PADRAO                   LIGHT       ON *       LIGH3       010VISTA          000000000027600000000280000000002710000000000000000000271000000723100
0202LOTE PADRAO                   TELESP CL PAPN *       TSPP4       010VISTA          000000000004500000000047000000000450000000000000000000047000603413000
0202LOTE PADRAO                   VALE R DOCE PNA        VALE5       010VISTA          000000000106750000001071000000010400000000000000000001045000000033600
0202LOTE PADRAO                   COPEL       PNB*       CPLE6       010VISTA          000000000008600000000087500000000850000000000000000000086000335680000
0202LOTE PADRAO                   VALE R DOCE ON         VALE3       010VISTA          000000000116500000001190000000011400000000000000000001140000000017500
0202LOTE PADRAO                   ARACRUZ     PNB        ARCZ6       010VISTA          000000000007700000000079000000000770000000000000000000078000000073000
0202LOTE PADRAO                   TELEMIG PARTPN *       TMCP4       010VISTA          000000000003200000000032500000000310000000000000000000032500111979000
0202LOTE PADRAO                   BRASIL TELECPN *       BRTO4       010VISTA          000000000012800000000131000000001270000000000000000000131000126718000
0202LOTE PADRAO                   SABESP      ON *       SBSP3       010VISTA          000000000112000000001125000000010890000000000000000001118000006110600
0202LOTE PADRAO                   BRASKEM     PNA*       BRKM5       010VISTA          000000000510000000005530000000050500000000000000000005530000000939500
0202LOTE PADRAO                   EMBRAER     PN EJ      EMBR4       010VISTA          000000000013600000000138000000001350000000000000000000136000000088100
0202LOTE PADRAO                   TELESP      PN * EJ    TLPP4       010VISTA          000000000030300000000310000000003010000000000000000000308000020459100
0202LOTE PADRAO                   EMBRAER     ON EJ      EMBR3       010VISTA          000000000010800000000109000000001075000000000000000000108000000019200
0202LOTE PADRAO                   AMBEV       PN *       AMBV4       010VISTA          000000000594000000006110000000059000000000000000000006110000005878500
0202LOTE PADRAO                   USIMINAS    PNA        USIM5       010VISTA          000000000017100000000182000000001710000000000000000000181000000155000
0202LOTE PADRAO                   ELETROPAULO PN *       ELPL4       010VISTA          000000000024500000000258000000002450000000000000000000248000018002300
0202LOTE PADRAO                   TELE NORD CLPN *       TNEP4       010VISTA          000000000002500000000025000000000240000000000000000000025000143716000
0202LOTE PADRAO                   CEMIG       PN * EJ    CMIG4       010VISTA          000000000029000000000301000000002900000000000000000000300000078565300
0202LOTE PADRAO                   TELE CL SUL PN * EJ    TCSL4       010VISTA          000000000002400000000024800000000240000000000000000000024800196455000
0202LOTE PADRAO                   TRACTEBEL   ON *       TBLE3       010VISTA          000000000007500000000075000000000700000000000000000000073000003464600
0202LOTE PADRAO                   CEMIG       ON * EJ    CMIG3       010VISTA          000000000022800000000231000000002180000000000000000000228000001996700
0202LOTE PADRAO                   TELE CL SUL ON * EJ    TCSL3       010VISTA          000000000002100000000021000000000210000000000000000000021000027838800
0202LOTE PADRAO                   ITAUSA      PN         ITSA4       010VISTA          000000000002600000000026000000000260000000000000000000026000000207600
0202LOTE PADRAO                   V C P       PN *       VCPA4       010VISTA          000000000146900000001500000000014590000000000000000001500000006425800
0202LOTE PADRAO                   SID TUBARAO PN *       CSTB4       010VISTA          000000000057000000000615000000005680000000000000000000596000025179200
0202LOTE PADRAO                   BRADESPAR   PN *       BRAP4       010VISTA          000000000000750000000007800000000074000000000000000000007700285006000
0202LOTE PADRAO                   NET         PN         PLIM4       010VISTA          000000000000350000000003600000000034000000000000000000003500000452000
0202LOTE PADRAO                   TELE CTR OESPN * EJ    TCOC4       010VISTA          000000000005700000000060000000000570000000000000000000060000195680000
0202LOTE PADRAO                   TELEMAR N L PNA* EJ    TMAR5       010VISTA          000000000042000000000427000000004150000000000000000000426000018375700
0202LOTE PADRAO                   GERDAU      PN * EJ    GGBR4       010VISTA          000000000039700000000409000000003960000000000000000000405000000031000
0202LOTE PADRAO                   BRASIL      ON *       BBAS3       010VISTA          000000000015600000000157000000001530000000000000000000155000019835200
