00BDIN9999BOVESPA 99992003060620030606
0101IBOVESPA                      0137940137940140710000000000000000002003060600000020030606013923000000
0202LOTE PADRAO                   EMBRATEL PARPN *       EBTP4       010VISTA          000000000006500000000065000000000620000000000000000000063000401170000
0202LOTE PADRAO                   TRAN PAULISTPN * EJ    TRPL4       010VISTA          000000000007400000000074000000000730000000000000000000073000008870100
0202LOTE PADRAO                   EMBRATEL PARON *       EBTP3       010VISTA          000000000007000000000074000000000690000000000000000000070000072849400
0202LOTE PADRAO                   TELEMAR     PN * EJ    TNLP4       010VISTA          000000000036700000000375000000003630000000000000000000363000392647000
0202LOTE PADRAO                   ITAUBANCO   PN * EJ    ITAU4       010VISTA          000000000200000000002020000000019850000000000000000002003000009344200
0202LOTE PADRAO                   TELEMAR     ON * EJ    TNLP3       010VISTA          000000000027000000000270000000002610000000000000000000261000053853900
0202LOTE PADRAO                   SID NACIONALON *       CSNA3       010VISTA          000000000061700000000626000000006050000000000000000000612000014537500
0202LOTE PADRAO                   TELE LEST CLPN *       TLCP4       010VISTA          000000000000460000000004700000000045000000000000000000004700166285000
0202LOTE PADRAO                   CRT CELULAR PNA* EJ    CRTP5       010VISTA          000000000340000000003449000000033500000000000000000003360000001374600
0202LOTE PADRAO                   IPIRANGA PETPN *       PTIP4       010VISTA          000000000008900000000091000000000880000000000000000000088000006687400
0202LOTE PADRAO                   BRASIL T PARPN *       BRTP4       010VISTA          000000000023500000000235000000002280000000000000000000230000058880100
0202LOTE PADRAO                   BRASIL T PARON *       BRTP3       010VISTA          000000000017400000000174000000001700000000000000000000173000012704000
0202LOTE PADRAO                   KLABIN S/A  PN         KLBN4       010VISTA          000000000002600000000027300000000260000000000000000000027100000206000
0202LOTE PADRAO                   ACESITA     PN *       ACES4       010VISTA          000000000001400000000014000000000130000000000000000000014000301815000
0202LOTE PADRAO                   PETROBRAS   PN         PETR4       010VISTA          000000000054250000000550000000005410000000000000000000542000000090300
0202LOTE PADRAO                   ELETROBRAS  PNB*       ELET6       010VISTA          000000000026300000000266000000002575000000000000000000260000066238800
0202LOTE PADRAO                   PETROBRAS   ON         PETR3       010VISTA          000000000059700000000601000000005880000000000000000000592000000045900
0202LOTE PADRAO                   COMGAS      PNA*       CGAS5       010VISTA          000000000071000000000720000000006780000000000000000000700000001841200
0202LOTE PADRAO                   SOUZA CRUZ  ON EJ      CRUZ3       010VISTA          000000000021300000000214000000002080000000000000000000208000000007100
0202LOTE PADRAO                   ELETROBRAS  ON *       ELET3       010VISTA          000000000024100000000244000000002350000000000000000000240000017099800
0202LOTE PADRAO                   CELESC      PNB        CLSC6       010VISTA          000000000000510000000005300000000051000000000000000000005200000137900
0202LOTE PADRAO                   BRADESCO    PN * EJ    BBDC4       010VISTA          000000000011900000000120000000001180000000000000000000118000216529000
0202LOTE PADRAO                   CESP        PN *       CESP4       010VISTA          000000000008700000000088000000000860000000000000000000087000014087200
0202LOTE PADRAO                   LIGHT       ON *       LIGH3       010VISTA          000000000030100000000310000000003010000000000000000000302500001369900
0202LOTE PADRAO                   TELESP CL PAPN *       TSPP4       010VISTA          000000000004700000000047000000000470000000000000000000047900385129000
0202LOTE PADRAO                   VALE R DOCE PNA        VALE5       010VISTA          000000000081200000000830000000008120000000000000000000824000000022600
0202LOTE PADRAO                   COPEL       PNB*       CPLE6       010VISTA          000000000010500000000108000000001050000000000000000000106000110890000
0202LOTE PADRAO                   VALE R DOCE ON         VALE3       010VISTA          000000000087100000000899000000008650000000000000000000888000000007500
0202LOTE PADRAO                   ARACRUZ     PNB        ARCZ6       010VISTA          000000000005900000000060000000000590000000000000000000059000000043200
0202LOTE PADRAO                   TELEMIG PARTPN *       TMCP4       010VISTA          000000000003000000000030000000000280000000000000000000029000072265800
0202LOTE PADRAO                   BRASIL TELECPN *       BRTO4       010VISTA          000000000013800000000139000000001370000000000000000000139000123794000
0202LOTE PADRAO                   SABESP      ON *       SBSP3       010VISTA          000000000114500000001160000000011250000000000000000001145000007237900
0202LOTE PADRAO                   BRASKEM     PNA*       BRKM5       010VISTA          000000000382000000003995000000037610000000000000000003835000000548400
0202LOTE PADRAO                   EMBRAER     PN EJ      EMBR4       010VISTA          000000000011750000000122000000001175000000000000000000122000000223100
0202LOTE PADRAO                   TELESP      PN * EJ    TLPP4       010VISTA          000000000032000000000322000000003150000000000000000000322000013556000
0202LOTE PADRAO                   EMBRAER     ON EJ      EMBR3       010VISTA          000000000009800000000101000000000980000000000000000000101000000026400
0202LOTE PADRAO                   AMBEV       PN *       AMBV4       010VISTA          000000000589100000006019000000058910000000000000000005970000003229400
0202LOTE PADRAO                   USIMINAS    PNA        USIM5       010VISTA          000000000011500000000116000000001130000000000000000000115000000078400
0202LOTE PADRAO                   ELETROPAULO PN *       ELPL4       010VISTA          000000000028700000000293000000002750000000000000000000280000008756000
0202LOTE PADRAO                   TELE NORD CLPN *       TNEP4       010VISTA          000000000002600000000026000000000256000000000000000000026000072533700
0202LOTE PADRAO                   CEMIG       PN * EJ    CMIG4       010VISTA          000000000030800000000311000000003050000000000000000000307500091684600
0202LOTE PADRAO                   TELE CL SUL PN * EJ    TCSL4       010VISTA          000000000002710000000027700000000270000000000000000000027700056191400
0202LOTE PADRAO                   TRACTEBEL   ON *       TBLE3       010VISTA          000000000005800000000061000000000580000000000000000000060000017397500
0202LOTE PADRAO                   CEMIG       ON * EJ    CMIG3       010VISTA          000000000024600000000249000000002380000000000000000000244000000871300
0202LOTE PADRAO                   TELE CL SUL ON * EJ    TCSL3       010VISTA          000000000002300000000023000000000230000000000000000000023000026466600
0202LOTE PADRAO                   ITAUSA      PN         ITSA4       010VISTA          000000000002400000000024000000000240000000000000000000024000000225600
0202LOTE PADRAO                   V C P       PN *       VCPA4       010VISTA          000000000112200000001140000000011220000000000000000001127000001997700
0202LOTE PADRAO                   SID TUBARAO PN *       CSTB4       010VISTA          000000000050300000000511000000004950000000000000000000495000008915400
0202LOTE PADRAO                   BRADESPAR   PN *       BRAP4       010VISTA          000000000000670000000006700000000065000000000000000000006600187041000
0202LOTE PADRAO                   NET         PN         PLIM4       010VISTA          000000000000380000000003800000000036000000000000000000003700000294900
0202LOTE PADRAO                   TELE CTR OESPN * EJ    TCOC4       010VISTA          000000000005700000000057900000000560000000000000000000057900109311000
0202LOTE PADRAO                   TELEMAR N L PNA* EJ    TMAR5       010VISTA          000000000046900000000478000000004680000000000000000000468000030245900
0202LOTE PADRAO                   GERDAU      PN * EJ    GGBR4       010VISTA          000000000030400000000313000000003040000000000000000000313000000031900
0202LOTE PADRAO                   BRASIL      ON *       BBAS3       010VISTA          000000000015500000000158000000001530000000000000000000155000036212200
