00BDIN9999BOVESPA 99992003071120030711
0101IBOVESPA                      0134980132870135220000000000000000002003071100000020030711013321000000
0202LOTE PADRAO                   EMBRATEL PARPN *       EBTP4       010VISTA          000000000005700000000057000000000550000000000000000000055000287921000
0202LOTE PADRAO                   TRAN PAULISTPN * EJ    TRPL4       010VISTA          000000000007300000000074000000000710000000000000000000074000008980100
0202LOTE PADRAO                   EMBRATEL PARON *       EBTP3       010VISTA          000000000006600000000066000000000640000000000000000000064000024805100
0202LOTE PADRAO                   TELEMAR     PN * EJ    TNLP4       010VISTA          000000000032600000000328000000003180000000000000000000318000250516000
0202LOTE PADRAO                   ITAUBANCO   PN * EJ    ITAU4       010VISTA          000000000188500000001900000000018780000000000000000001885000005485700
0202LOTE PADRAO                   TELEMAR     ON * EJ    TNLP3       010VISTA          000000000023300000000237500000002275000000000000000000233000024992300
0202LOTE PADRAO                   SID NACIONALON *       CSNA3       010VISTA          000000000072000000000750000000007200000000000000000000726000020733800
0202LOTE PADRAO                   TELE LEST CLPN *       TLCP4       010VISTA          000000000000430000000004400000000042000000000000000000004300102306000
0202LOTE PADRAO                   CRT CELULAR PNA* EJ    CRTP5       010VISTA          000000000335000000003400000000033500000000000000000003400000000933200
0202LOTE PADRAO                   IPIRANGA PETPN *       PTIP4       010VISTA          000000000010800000000111000000001075000000000000000000110000030547600
0202LOTE PADRAO                   BRASIL T PARPN *       BRTP4       010VISTA          000000000022500000000225000000002130000000000000000000213000022962900
0202LOTE PADRAO                   BRASIL T PARON *       BRTP3       010VISTA          000000000015600000000158000000001550000000000000000000156000003880200
0202LOTE PADRAO                   KLABIN S/A  PN         KLBN4       010VISTA          000000000002800000000028000000000280000000000000000000028000000029000
0202LOTE PADRAO                   ACESITA     PN *       ACES4       010VISTA          000000000001400000000014000000000130000000000000000000013000234720000
0202LOTE PADRAO                   PETROBRAS   PN         PETR4       010VISTA          000000000054700000000552000000005420000000000000000000543000000089400
0202LOTE PADRAO                   ELETROBRAS  PNB*       ELET6       010VISTA          000000000024200000000243000000002350000000000000000000236000052818500
0202LOTE PADRAO                   PETROBRAS   ON         PETR3       010VISTA          000000000059000000000596000000005850000000000000000000588000000038800
0202LOTE PADRAO                   COMGAS      PNA*       CGAS5       010VISTA          000000000063700000000650000000006320000000000000000000633000000575000
0202LOTE PADRAO                   SOUZA CRUZ  ON EJ      CRUZ3       010VISTA          000000000023700000000237000000002280000000000000000000231000000019600
0202LOTE PADRAO                   ELETROBRAS  ON *       ELET3       010VISTA          000000000021100000000212500000002060000000000000000000208000006644200
0202LOTE PADRAO                   CELESC      PNB        CLSC6       010VISTA          000000000000490000000004900000000047000000000000000000004700000094700
0202LOTE PADRAO                   BRADESCO    PN * EJ    BBDC4       010VISTA          000000000011000000000110000000001090000000000000000000110000112993000
0202LOTE PADRAO                   CESP        PN *       CESP4       010VISTA          000000000007300000000075000000000720000000000000000000073000007474300
0202LOTE PADRAO                   LIGHT       ON *       LIGH3       010VISTA          000000000026000000000261000000002550000000000000000000256000000470000
0202LOTE PADRAO                   TELESP CL PAPN *       TSPP4       010VISTA          000000000004600000000046000000000450000000000000000000045000222579000
0202LOTE PADRAO                   VALE R DOCE PNA        VALE5       010VISTA          000000000085600000000862500000008400000000000000000000840000000017200
0202LOTE PADRAO                   COPEL       PNB*       CPLE6       010VISTA          000000000009300000000094000000000890000000000000000000090000041794500
0202LOTE PADRAO                   VALE R DOCE ON         VALE3       010VISTA          000000000092500000000926000000009120000000000000000000912000000006900
0202LOTE PADRAO                   ARACRUZ     PNB        ARCZ6       010VISTA          000000000006200000000063000000000620000000000000000000062000000080900
0202LOTE PADRAO                   TELEMIG PARTPN *       TMCP4       010VISTA          000000000002940000000029000000000280000000000000000000028000097134600
0202LOTE PADRAO                   BRASIL TELECPN *       BRTO4       010VISTA          000000000013000000000130000000001250000000000000000000125000072618600
0202LOTE PADRAO                   SABESP      ON *       SBSP3       010VISTA          000000000103800000001044000000010250000000000000000001040000004269400
0202LOTE PADRAO                   BRASKEM     PNA*       BRKM5       010VISTA          000000000428000000004301000000042300000000000000000004240000000358600
0202LOTE PADRAO                   EMBRAER     PN EJ      EMBR4       010VISTA          000000000014100000000142000000001400000000000000000000141000000042400
0202LOTE PADRAO                   TELESP      PN * EJ    TLPP4       010VISTA          000000000030700000000309000000003030000000000000000000303000018549100
0202LOTE PADRAO                   EMBRAER     ON EJ      EMBR3       010VISTA          000000000011500000000116000000001125000000000000000000114000000019500
0202LOTE PADRAO                   AMBEV       PN *       AMBV4       010VISTA          000000000595000000006000000000059500000000000000000005999000000765100
0202LOTE PADRAO                   USIMINAS    PNA        USIM5       010VISTA          000000000014800000000155000000001480000000000000000000153000000172200
0202LOTE PADRAO                   ELETROPAULO PN *       ELPL4       010VISTA          000000000025200000000256000000002400000000000000000000240000009158800
0202LOTE PADRAO                   TELE NORD CLPN *       TNEP4       010VISTA          000000000002300000000023000000000230000000000000000000023000084321800
0202LOTE PADRAO                   CEMIG       PN * EJ    CMIG4       010VISTA          000000000027800000000280000000002730000000000000000000275000067046000
0202LOTE PADRAO                   TELE CL SUL PN * EJ    TCSL4       010VISTA          000000000002300000000024000000000230000000000000000000023000045662500
0202LOTE PADRAO                   TRACTEBEL   ON *       TBLE3       010VISTA          000000000007500000000077000000000750000000000000000000077000065001500
0202LOTE PADRAO                   CEMIG       ON * EJ    CMIG3       010VISTA          000000000021700000000217000000002130000000000000000000214000000560000
0202LOTE PADRAO                   TELE CL SUL ON * EJ    TCSL3       010VISTA          000000000002000000000020000000000198000000000000000000020000035285200
0202LOTE PADRAO                   ITAUSA      PN         ITSA4       010VISTA          000000000002200000000022000000000227000000000000000000022700000148600
0202LOTE PADRAO                   V C P       PN *       VCPA4       010VISTA          000000000122400000001247000000012200000000000000000001235000002610900
0202LOTE PADRAO                   SID TUBARAO PN *       CSTB4       010VISTA          000000000054500000000575000000005450000000000000000000559000004009400
0202LOTE PADRAO                   BRADESPAR   PN *       BRAP4       010VISTA          000000000000630000000006400000000062000000000000000000006300181350000
0202LOTE PADRAO                   NET         PN         PLIM4       010VISTA          000000000000340000000003700000000033000000000000000000003400001207300
0202LOTE PADRAO                   TELE CTR OESPN * EJ    TCOC4       010VISTA          000000000005500000000056000000000550000000000000000000056000063488200
0202LOTE PADRAO                   TELEMAR N L PNA* EJ    TMAR5       010VISTA          000000000039200000000402000000003920000000000000000000397000053864300
0202LOTE PADRAO                   GERDAU      PN * EJ    GGBR4       010VISTA          000000000034400000000346000000003400000000000000000000344000000012100
0202LOTE PADRAO                   BRASIL      ON *       BBAS3       010VISTA          000000000014100000000142000000001350000000000000000000137500018405700
