00BDIN9999BOVESPA 99992003062620030626
0101IBOVESPA                      0130310130300132370000000000000000002003062600000020030626013112000000
0202LOTE PADRAO                   EMBRATEL PARPN *       EBTP4       010VISTA          000000000006100000000062000000000590000000000000000000059601016970000
0202LOTE PADRAO                   TRAN PAULISTPN * EJ    TRPL4       010VISTA          000000000006500000000067100000000640000000000000000000067100013333900
0202LOTE PADRAO                   EMBRATEL PARON *       EBTP3       010VISTA          000000000006500000000067000000000630000000000000000000065000070877800
0202LOTE PADRAO                   TELEMAR     PN * EJ    TNLP4       010VISTA          000000000032700000000340000000003260000000000000000000332000391349000
0202LOTE PADRAO                   ITAUBANCO   PN * EJ    ITAU4       010VISTA          000000000196500000001970000000019400000000000000000001959000010278800
0202LOTE PADRAO                   TELEMAR     ON * EJ    TNLP3       010VISTA          000000000023600000000241000000002350000000000000000000238000046167400
0202LOTE PADRAO                   SID NACIONALON *       CSNA3       010VISTA          000000000065400000000682000000006500000000000000000000677000016617700
0202LOTE PADRAO                   TELE LEST CLPN *       TLCP4       010VISTA          000000000000440000000004600000000044000000000000000000004500077117800
0202LOTE PADRAO                   CRT CELULAR PNA* EJ    CRTP5       010VISTA          000000000340000000003400000000033550000000000000000003378000000347000
0202LOTE PADRAO                   IPIRANGA PETPN *       PTIP4       010VISTA          000000000009300000000095000000000925000000000000000000092000003211800
0202LOTE PADRAO                   BRASIL T PARPN *       BRTP4       010VISTA          000000000021100000000221000000002110000000000000000000220000091687100
0202LOTE PADRAO                   BRASIL T PARON *       BRTP3       010VISTA          000000000016100000000163000000001580000000000000000000163000006498200
0202LOTE PADRAO                   KLABIN S/A  PN         KLBN4       010VISTA          000000000002900000000029000000000280000000000000000000029000000047500
0202LOTE PADRAO                   ACESITA     PN *       ACES4       010VISTA          000000000001480000000014900000000140000000000000000000014000230788000
0202LOTE PADRAO                   PETROBRAS   PN         PETR4       010VISTA          000000000050100000000505000000004980000000000000000000501000000069000
0202LOTE PADRAO                   ELETROBRAS  PNB*       ELET6       010VISTA          000000000022800000000231000000002250000000000000000000226000044661400
0202LOTE PADRAO                   PETROBRAS   ON         PETR3       010VISTA          000000000055100000000552000000005450000000000000000000547500000040100
0202LOTE PADRAO                   COMGAS      PNA*       CGAS5       010VISTA          000000000065000000000664000000006270000000000000000000627000001109400
0202LOTE PADRAO                   SOUZA CRUZ  ON EJ      CRUZ3       010VISTA          000000000022600000000236000000002230000000000000000000236000000018000
0202LOTE PADRAO                   ELETROBRAS  ON *       ELET3       010VISTA          000000000020600000000206000000002000000000000000000000203000016542400
0202LOTE PADRAO                   CELESC      PNB        CLSC6       010VISTA          000000000000460000000004600000000045000000000000000000004600000080200
0202LOTE PADRAO                   BRADESCO    PN * EJ    BBDC4       010VISTA          000000000010900000000110000000001080000000000000000000109000130044000
0202LOTE PADRAO                   CESP        PN *       CESP4       010VISTA          000000000007200000000073000000000710000000000000000000072000005240800
0202LOTE PADRAO                   LIGHT       ON *       LIGH3       010VISTA          000000000027500000000278000000002710000000000000000000271000000282200
0202LOTE PADRAO                   TELESP CL PAPN *       TSPP4       010VISTA          000000000004400000000045400000000430000000000000000000045000267050000
0202LOTE PADRAO                   VALE R DOCE PNA        VALE5       010VISTA          000000000080400000000807000000007950000000000000000000806000000015100
0202LOTE PADRAO                   COPEL       PNB*       CPLE6       010VISTA          000000000009100000000092000000000880000000000000000000089000052144500
0202LOTE PADRAO                   VALE R DOCE ON         VALE3       010VISTA          000000000086000000000867000000008510000000000000000000862000000005900
0202LOTE PADRAO                   ARACRUZ     PNB        ARCZ6       010VISTA          000000000005900000000061000000000580000000000000000000061000000054900
0202LOTE PADRAO                   TELEMIG PARTPN *       TMCP4       010VISTA          000000000002900000000030000000000290000000000000000000030000080354400
0202LOTE PADRAO                   BRASIL TELECPN *       BRTO4       010VISTA          000000000012600000000131000000001260000000000000000000130000068179000
0202LOTE PADRAO                   SABESP      ON *       SBSP3       010VISTA          000000000105000000001060000000010000000000000000000001015000005646600
0202LOTE PADRAO                   BRASKEM     PNA*       BRKM5       010VISTA          000000000362000000003700000000036200000000000000000003700000000266800
0202LOTE PADRAO                   EMBRAER     PN EJ      EMBR4       010VISTA          000000000013500000000139000000001350000000000000000000138000000068900
0202LOTE PADRAO                   TELESP      PN * EJ    TLPP4       010VISTA          000000000032400000000334000000003240000000000000000000333000008507900
0202LOTE PADRAO                   EMBRAER     ON EJ      EMBR3       010VISTA          000000000010400000000107000000001040000000000000000000107000000026000
0202LOTE PADRAO                   AMBEV       PN *       AMBV4       010VISTA          000000000583000000005910000000058300000000000000000005850000001028200
0202LOTE PADRAO                   USIMINAS    PNA        USIM5       010VISTA          000000000012000000000121000000001190000000000000000000120000000044700
0202LOTE PADRAO                   ELETROPAULO PN *       ELPL4       010VISTA          000000000025800000000258000000002380000000000000000000242000013645500
0202LOTE PADRAO                   TELE NORD CLPN *       TNEP4       010VISTA          000000000002300000000023000000000230000000000000000000023000088909300
0202LOTE PADRAO                   CEMIG       PN * EJ    CMIG4       010VISTA          000000000027600000000276000000002680000000000000000000271000053538800
0202LOTE PADRAO                   TELE CL SUL PN * EJ    TCSL4       010VISTA          000000000002400000000024800000000240000000000000000000024000079634100
0202LOTE PADRAO                   TRACTEBEL   ON *       TBLE3       010VISTA          000000000007200000000072000000000680000000000000000000070000020154200
0202LOTE PADRAO                   CEMIG       ON * EJ    CMIG3       010VISTA          000000000021700000000220000000002120000000000000000000216000000651100
0202LOTE PADRAO                   TELE CL SUL ON * EJ    TCSL3       010VISTA          000000000002200000000022700000000220000000000000000000022000012970200
0202LOTE PADRAO                   ITAUSA      PN         ITSA4       010VISTA          000000000002300000000023000000000220000000000000000000022000000363500
0202LOTE PADRAO                   V C P       PN *       VCPA4       010VISTA          000000000111000000001140000000011050000000000000000001140000001801800
0202LOTE PADRAO                   SID TUBARAO PN *       CSTB4       010VISTA          000000000047000000000475000000004680000000000000000000470000008880700
0202LOTE PADRAO                   BRADESPAR   PN *       BRAP4       010VISTA          000000000000630000000006400000000063000000000000000000006400080976900
0202LOTE PADRAO                   NET         PN         PLIM4       010VISTA          000000000000310000000003100000000030000000000000000000003000000450500
0202LOTE PADRAO                   TELE CTR OESPN * EJ    TCOC4       010VISTA          000000000005400000000055000000000540000000000000000000055000174370000
0202LOTE PADRAO                   TELEMAR N L PNA* EJ    TMAR5       010VISTA          000000000038750000000393000000003820000000000000000000387000031347900
0202LOTE PADRAO                   GERDAU      PN * EJ    GGBR4       010VISTA          000000000032000000000334000000003200000000000000000000326000000055900
0202LOTE PADRAO                   BRASIL      ON *       BBAS3       010VISTA          000000000012900000000134000000001275000000000000000000131000028652700
