00BDIN9999BOVESPA 99992003031120030311
0101IBOVESPA                      0103140101990104080000000000000000002003031100000020030311010340000000
0202LOTE PADRAO                   EMBRATEL PARPN *       EBTP4       010VISTA          000000000003100000000032500000000300000000000000000000032000443862000
0202LOTE PADRAO                   TRAN PAULISTPN * EJ    TRPL4       010VISTA          000000000005300000000054000000000520000000000000000000052000006790600
0202LOTE PADRAO                   EMBRATEL PARON *       EBTP3       010VISTA          000000000003600000000037300000000350000000000000000000036000057278300
0202LOTE PADRAO                   TELEMAR     PN * EJ    TNLP4       010VISTA          000000000024400000000246000000002400000000000000000000243000231847000
0202LOTE PADRAO                   ITAUBANCO   PN * EJ    ITAU4       010VISTA          000000000166000000001685000000016500000000000000000001660000012570300
0202LOTE PADRAO                   TELEMAR     ON * EJ    TNLP3       010VISTA          000000000017800000000180000000001730000000000000000000177500007940200
0202LOTE PADRAO                   SID NACIONALON *       CSNA3       010VISTA          000000000057500000000593000000005700000000000000000000590000007997900
0202LOTE PADRAO                   TELE LEST CLPN *       TLCP4       010VISTA          000000000000390000000004000000000038000000000000000000003900109437000
0202LOTE PADRAO                   CRT CELULAR PNA* EJ    CRTP5       010VISTA          000000000300000000003119000000029490000000000000000003009000000325400
0202LOTE PADRAO                   IPIRANGA PETPN *       PTIP4       010VISTA          000000000007000000000070000000000680000000000000000000068000001430000
0202LOTE PADRAO                   BRASIL T PARPN *       BRTP4       010VISTA          000000000017100000000176000000001710000000000000000000174000022772600
0202LOTE PADRAO                   BRASIL T PARON *       BRTP3       010VISTA          000000000013100000000135000000001290000000000000000000133000004527600
0202LOTE PADRAO                   KLABIN S/A  PN         KLBN4       010VISTA          000000000001540000000015400000000147000000000000000000015000000025600
0202LOTE PADRAO                   ACESITA     PN *       ACES4       010VISTA          000000000001100000000011000000000110000000000000000000011000115460000
0202LOTE PADRAO                   PETROBRAS   PN         PETR4       010VISTA          000000000043600000000460000000004280000000000000000000450000000141600
0202LOTE PADRAO                   ELETROBRAS  PNB*       ELET6       010VISTA          000000000018800000000193000000001810000000000000000000190000067298400
0202LOTE PADRAO                   PETROBRAS   ON         PETR3       010VISTA          000000000047100000000500000000004700000000000000000000492000000020700
0202LOTE PADRAO                   COMGAS      PNA*       CGAS5       010VISTA          000000000041500000000442000000004120000000000000000000425000000442000
0202LOTE PADRAO                   SOUZA CRUZ  ON EJ      CRUZ3       010VISTA          000000000018700000000192000000001870000000000000000000191000000015900
0202LOTE PADRAO                   ELETROBRAS  ON *       ELET3       010VISTA          000000000017300000000181000000001700000000000000000000176000020736100
0202LOTE PADRAO                   CELESC      PNB        CLSC6       010VISTA          000000000000460000000004700000000045000000000000000000004600000363300
0202LOTE PADRAO                   BRADESCO    PN * EJ    BBDC4       010VISTA          000000000010400000000104000000001025000000000000000000102000097702700
0202LOTE PADRAO                   CESP        PN *       CESP4       010VISTA          000000000006000000000062000000000570000000000000000000059000017734800
0202LOTE PADRAO                   LIGHT       ON *       LIGH3       010VISTA          000000000028800000000290000000002780000000000000000000278000000217000
0202LOTE PADRAO                   TELESP CL PAPN *       TSPP4       010VISTA          000000000003500000000036000000000350000000000000000000035200240991000
0202LOTE PADRAO                   VALE R DOCE PNA        VALE5       010VISTA          000000000094200000000945000000009350000000000000000000935000000032000
0202LOTE PADRAO                   COPEL       PNB*       CPLE6       010VISTA          000000000008100000000083000000000800000000000000000000080000014301500
0202LOTE PADRAO                   VALE R DOCE ON         VALE3       010VISTA          000000000097800000000997000000009780000000000000000000990000000005600
0202LOTE PADRAO                   ARACRUZ     PNB        ARCZ6       010VISTA          000000000006500000000067000000000650000000000000000000066000000022200
0202LOTE PADRAO                   TELEMIG PARTPN *       TMCP4       010VISTA          000000000002500000000026000000000250000000000000000000025000049086400
0202LOTE PADRAO                   BRASIL TELECPN *       BRTO4       010VISTA          000000000010600000000106000000001030000000000000000000105000081209400
0202LOTE PADRAO                   SABESP      ON *       SBSP3       010VISTA          000000000077500000000775000000007520000000000000000000770000001503500
0202LOTE PADRAO                   BRASKEM     PNA*       BRKM5       010VISTA          000000000173000000001765000000017150000000000000000001715000001069500
0202LOTE PADRAO                   EMBRAER     PN EJ      EMBR4       010VISTA          000000000008500000000085000000000810000000000000000000082000000053600
0202LOTE PADRAO                   TELESP      PN * EJ    TLPP4       010VISTA          000000000032300000000326000000003220000000000000000000322000012702800
0202LOTE PADRAO                   EMBRAER     ON EJ      EMBR3       010VISTA          000000000007200000000072000000000710000000000000000000071000000008800
0202LOTE PADRAO                   AMBEV       PN *       AMBV4       010VISTA          000000000490000000004960000000048550000000000000000004935000000579000
0202LOTE PADRAO                   USIMINAS    PNA        USIM5       010VISTA          000000000007500000000075000000000725000000000000000000073000000046100
0202LOTE PADRAO                   ELETROPAULO PN *       ELPL4       010VISTA          000000000024000000000240000000002210000000000000000000225000008466800
0202LOTE PADRAO                   TELE NORD CLPN *       TNEP4       010VISTA          000000000002250000000022000000000220000000000000000000022000059712200
0202LOTE PADRAO                   CEMIG       PN * EJ    CMIG4       010VISTA          000000000023800000000241000000002330000000000000000000238000047006900
0202LOTE PADRAO                   TELE CL SUL PN * EJ    TCSL4       010VISTA          000000000002270000000022700000000210000000000000000000021000068836600
0202LOTE PADRAO                   TRACTEBEL   ON *       TBLE3       010VISTA          000000000003000000000030000000000290000000000000000000030000009500000
0202LOTE PADRAO                   CEMIG       ON * EJ    CMIG3       010VISTA          000000000019000000000193000000001870000000000000000000188000000493400
0202LOTE PADRAO                   TELE CL SUL ON * EJ    TCSL3       010VISTA          000000000001700000000017200000000160000000000000000000016000047037800
0202LOTE PADRAO                   ITAUSA      PN         ITSA4       010VISTA          000000000001800000000019400000000180000000000000000000018000000207300
0202LOTE PADRAO                   V C P       PN *       VCPA4       010VISTA          000000000126700000001267000000012400000000000000000001260000002289100
0202LOTE PADRAO                   SID TUBARAO PN *       CSTB4       010VISTA          000000000044600000000452500000004410000000000000000000450000014797800
0202LOTE PADRAO                   BRADESPAR   PN *       BRAP4       010VISTA          000000000000660000000006800000000065000000000000000000006600082785800
0202LOTE PADRAO                   NET         PN         PLIM4       010VISTA          000000000000300000000003000000000028000000000000000000002900000534700
0202LOTE PADRAO                   TELE CTR OESPN * EJ    TCOC4       010VISTA          000000000004500000000045000000000440000000000000000000044000049626300
0202LOTE PADRAO                   TELEMAR N L PNA* EJ    TMAR5       010VISTA          000000000034600000000350000000003400000000000000000000345000008045500
0202LOTE PADRAO                   GERDAU      PN * EJ    GGBR4       010VISTA          000000000031300000000315000000003060000000000000000000306000010270200
0202LOTE PADRAO                   BRASIL      ON *       BBAS3       010VISTA          000000000010000000000100000000000980000000000000000000098000014936100
