00BDIN9999BOVESPA 99992003012920030129
0101IBOVESPA                      0105140104570108630000000000000000002003012900000020030129010863000000
0202LOTE PADRAO                   EMBRATEL PARPN *       EBTP4       010VISTA          000000000003100000000034000000000310000000000000000000034000552791000
0202LOTE PADRAO                   TRAN PAULISTPN * EJ    TRPL4       010VISTA          000000000005100000000053000000000500000000000000000000053000007446500
0202LOTE PADRAO                   EMBRATEL PARON *       EBTP3       010VISTA          000000000003810000000040000000000370000000000000000000040000088598000
0202LOTE PADRAO                   TELEMAR     PN * EJ    TNLP4       010VISTA          000000000026000000000269000000002580000000000000000000269000204607000
0202LOTE PADRAO                   ITAUBANCO   PN * EJ    ITAU4       010VISTA          000000000152000000001569000000014940000000000000000001569000012420400
0202LOTE PADRAO                   TELEMAR     ON * EJ    TNLP3       010VISTA          000000000018700000000196000000001875000000000000000000196000021579300
0202LOTE PADRAO                   SID NACIONALON *       CSNA3       010VISTA          000000000055900000000559000000005400000000000000000000555000009261000
0202LOTE PADRAO                   TELE LEST CLPN *       TLCP4       010VISTA          000000000000420000000004300000000041000000000000000000004200254331000
0202LOTE PADRAO                   CRT CELULAR PNA* EJ    CRTP5       010VISTA          000000000321000000003274000000032100000000000000000003270000000522900
0202LOTE PADRAO                   IPIRANGA PETPN *       PTIP4       010VISTA          000000000007000000000071000000000690000000000000000000071000002196800
0202LOTE PADRAO                   BRASIL T PARPN *       BRTP4       010VISTA          000000000016600000000174000000001660000000000000000000173000073233100
0202LOTE PADRAO                   BRASIL T PARON *       BRTP3       010VISTA          000000000012500000000131000000001250000000000000000000131000007849000
0202LOTE PADRAO                   KLABIN S/A  PN         KLBN4       010VISTA          000000000001000000000010000000000097000000000000000000010000000019100
0202LOTE PADRAO                   ACESITA     PN *       ACES4       010VISTA          000000000000850000000008800000000085000000000000000000008800134302000
0202LOTE PADRAO                   PETROBRAS   PN         PETR4       010VISTA          000000000044750000000470000000004450000000000000000000470000000148000
0202LOTE PADRAO                   ELETROBRAS  PNB*       ELET6       010VISTA          000000000019100000000205000000001900000000000000000000203000068040600
0202LOTE PADRAO                   PETROBRAS   ON         PETR3       010VISTA          000000000050000000000519000000004975000000000000000000518000000047200
0202LOTE PADRAO                   COMGAS      PNA*       CGAS5       010VISTA          000000000050800000000515000000004900000000000000000000515000000432300
0202LOTE PADRAO                   SOUZA CRUZ  ON EJ      CRUZ3       010VISTA          000000000017800000000180000000001775000000000000000000179000000028000
0202LOTE PADRAO                   ELETROBRAS  ON *       ELET3       010VISTA          000000000018000000000196000000001780000000000000000000196000011103700
0202LOTE PADRAO                   CELESC      PNB        CLSC6       010VISTA          000000000000490000000005000000000048000000000000000000005000000244900
0202LOTE PADRAO                   BRADESCO    PN * EJ    BBDC4       010VISTA          000000000009600000000099000000000960000000000000000000099000293125000
0202LOTE PADRAO                   CESP        PN *       CESP4       010VISTA          000000000006100000000066000000000610000000000000000000066000010295000
0202LOTE PADRAO                   LIGHT       ON *       LIGH3       010VISTA          000000000039000000000408000000003810000000000000000000408000000234000
0202LOTE PADRAO                   TELESP CL PAPN *       TSPP4       010VISTA          000000000003600000000038000000000360000000000000000000038000330539000
0202LOTE PADRAO                   VALE R DOCE PNA        VALE5       010VISTA          000000000088200000000899000000008760000000000000000000895000000008000
0202LOTE PADRAO                   COPEL       PNB*       CPLE6       010VISTA          000000000008250000000087000000000820000000000000000000086000046159700
0202LOTE PADRAO                   VALE R DOCE ON         VALE3       010VISTA          000000000093000000000939000000009300000000000000000000936000000009000
0202LOTE PADRAO                   ARACRUZ     PNB        ARCZ6       010VISTA          000000000006750000000069000000000671000000000000000000068000000042900
0202LOTE PADRAO                   TELEMIG PARTPN *       TMCP4       010VISTA          000000000002560000000026000000000250000000000000000000025000454896000
0202LOTE PADRAO                   BRASIL TELECPN *       BRTO4       010VISTA          000000000010400000000107000000001030000000000000000000107000220433000
0202LOTE PADRAO                   SABESP      ON *       SBSP3       010VISTA          000000000085000000000850000000008300000000000000000000845000005755200
0202LOTE PADRAO                   BRASKEM     PNA*       BRKM5       010VISTA          000000000193400000001934000000017800000000000000000001860000000418700
0202LOTE PADRAO                   EMBRAER     PN EJ      EMBR4       010VISTA          000000000012000000000123000000001180000000000000000000122000000214200
0202LOTE PADRAO                   TELESP      PN * EJ    TLPP4       010VISTA          000000000031000000000312500000003060000000000000000000312500005260900
0202LOTE PADRAO                   EMBRAER     ON EJ      EMBR3       010VISTA          000000000010800000000110000000001060000000000000000000110000000017700
0202LOTE PADRAO                   AMBEV       PN *       AMBV4       010VISTA          000000000482000000005010000000048200000000000000000004990000003302700
0202LOTE PADRAO                   USIMINAS    PNA        USIM5       010VISTA          000000000007200000000074000000000700000000000000000000074000000044500
0202LOTE PADRAO                   ELETROPAULO PN *       ELPL4       010VISTA          000000000026250000000265000000002540000000000000000000258000006150300
0202LOTE PADRAO                   TELE NORD CLPN *       TNEP4       010VISTA          000000000002600000000027300000000250000000000000000000027000082032300
0202LOTE PADRAO                   CEMIG       PN * EJ    CMIG4       010VISTA          000000000024750000000253000000002400000000000000000000253000053076900
0202LOTE PADRAO                   TELE CL SUL PN * EJ    TCSL4       010VISTA          000000000002500000000025000000000240000000000000000000024800207585000
0202LOTE PADRAO                   TRACTEBEL   ON *       TBLE3       010VISTA          000000000003200000000035400000000320000000000000000000035400006762000
0202LOTE PADRAO                   CEMIG       ON * EJ    CMIG3       010VISTA          000000000021100000000215000000002050000000000000000000215000000714900
0202LOTE PADRAO                   TELE CL SUL ON * EJ    TCSL3       010VISTA          000000000001760000000018000000000176000000000000000000018100034711800
0202LOTE PADRAO                   ITAUSA      PN         ITSA4       010VISTA          000000000001770000000018000000000175000000000000000000018000000202800
0202LOTE PADRAO                   V C P       PN *       VCPA4       010VISTA          000000000122500000001227500000011950000000000000000001215000001806000
0202LOTE PADRAO                   SID TUBARAO PN *       CSTB4       010VISTA          000000000034500000000357000000003420000000000000000000356000009298600
0202LOTE PADRAO                   BRADESPAR   PN *       BRAP4       010VISTA          000000000000550000000005900000000055000000000000000000005900148328000
0202LOTE PADRAO                   NET         PN         PLIM4       010VISTA          000000000000350000000003900000000034000000000000000000003900001271900
0202LOTE PADRAO                   TELE CTR OESPN * EJ    TCOC4       010VISTA          000000000004500000000047000000000450000000000000000000047500048468400
0202LOTE PADRAO                   TELEMAR N L PNA* EJ    TMAR5       010VISTA          000000000040100000000414000000003975000000000000000000413000012115800
0202LOTE PADRAO                   GERDAU      PN * EJ    GGBR4       010VISTA          000000000029600000000302500000002910000000000000000000302500028063200
0202LOTE PADRAO                   BRASIL      ON *       BBAS3       010VISTA          000000000009200000000098000000000910000000000000000000098000024939900
