00BDIN9999BOVESPA 99992003030520030305
0101IBOVESPA                      0102630101040103180000000000000000002003030500000020030305010306000000
0202LOTE PADRAO                   EMBRATEL PARPN *       EBTP4       010VISTA          000000000003400000000034800000000330000000000000000000034000135365000
0202LOTE PADRAO                   TRAN PAULISTPN * EJ    TRPL4       010VISTA          000000000005250000000057000000000525000000000000000000054000007428400
0202LOTE PADRAO                   EMBRATEL PARON *       EBTP3       010VISTA          000000000004000000000040000000000380000000000000000000039000023194400
0202LOTE PADRAO                   TELEMAR     PN * EJ    TNLP4       010VISTA          000000000023300000000240000000002310000000000000000000238000100744000
0202LOTE PADRAO                   ITAUBANCO   PN * EJ    ITAU4       010VISTA          000000000158400000001585000000015540000000000000000001583000005094400
0202LOTE PADRAO                   TELEMAR     ON * EJ    TNLP3       010VISTA          000000000016800000000174000000001680000000000000000000174000007348700
0202LOTE PADRAO                   SID NACIONALON *       CSNA3       010VISTA          000000000060000000000603000000005900000000000000000000597000013947700
0202LOTE PADRAO                   TELE LEST CLPN *       TLCP4       010VISTA          000000000000380000000004000000000037000000000000000000004000055408600
0202LOTE PADRAO                   CRT CELULAR PNA* EJ    CRTP5       010VISTA          000000000291000000003060000000029100000000000000000003060000000121500
0202LOTE PADRAO                   IPIRANGA PETPN *       PTIP4       010VISTA          000000000007200000000074000000000700000000000000000000073000001583000
0202LOTE PADRAO                   BRASIL T PARPN *       BRTP4       010VISTA          000000000017100000000173000000001710000000000000000000171000031843400
0202LOTE PADRAO                   BRASIL T PARON *       BRTP3       010VISTA          000000000013900000000142000000001380000000000000000000140000004870300
0202LOTE PADRAO                   KLABIN S/A  PN         KLBN4       010VISTA          000000000001400000000015300000000140000000000000000000015200000010500
0202LOTE PADRAO                   ACESITA     PN *       ACES4       010VISTA          000000000001100000000011000000000110000000000000000000011000053976900
0202LOTE PADRAO                   PETROBRAS   PN         PETR4       010VISTA          000000000042000000000422000000004160000000000000000000416000000054700
0202LOTE PADRAO                   ELETROBRAS  PNB*       ELET6       010VISTA          000000000017800000000184000000001750000000000000000000184000037611300
0202LOTE PADRAO                   PETROBRAS   ON         PETR3       010VISTA          000000000046900000000469000000004580000000000000000000460000000022900
0202LOTE PADRAO                   COMGAS      PNA*       CGAS5       010VISTA          000000000043200000000455000000004320000000000000000000446000000288700
0202LOTE PADRAO                   SOUZA CRUZ  ON EJ      CRUZ3       010VISTA          000000000019800000000198000000001950000000000000000000198000000009500
0202LOTE PADRAO                   ELETROBRAS  ON *       ELET3       010VISTA          000000000016900000000174000000001660000000000000000000172000007427500
0202LOTE PADRAO                   CELESC      PNB        CLSC6       010VISTA          000000000000450000000004700000000045000000000000000000004600000462900
0202LOTE PADRAO                   BRADESCO    PN * EJ    BBDC4       010VISTA          000000000010000000000104000000001000000000000000000000103000119874000
0202LOTE PADRAO                   CESP        PN *       CESP4       010VISTA          000000000005900000000062000000000570000000000000000000061000002966600
0202LOTE PADRAO                   LIGHT       ON *       LIGH3       010VISTA          000000000029500000000295000000002900000000000000000000293000000147100
0202LOTE PADRAO                   TELESP CL PAPN *       TSPP4       010VISTA          000000000003400000000034000000000330000000000000000000034000098441600
0202LOTE PADRAO                   VALE R DOCE PNA        VALE5       010VISTA          000000000098000000000987000000009800000000000000000000982000000023400
0202LOTE PADRAO                   COPEL       PNB*       CPLE6       010VISTA          000000000007900000000081000000000790000000000000000000081000028582400
0202LOTE PADRAO                   VALE R DOCE ON         VALE3       010VISTA          000000000104400000001049000000010370000000000000000001040000000005500
0202LOTE PADRAO                   ARACRUZ     PNB        ARCZ6       010VISTA          000000000006600000000067000000000660000000000000000000067000000049000
0202LOTE PADRAO                   TELEMIG PARTPN *       TMCP4       010VISTA          000000000002560000000026000000000252000000000000000000025000031756600
0202LOTE PADRAO                   BRASIL TELECPN *       BRTO4       010VISTA          000000000010600000000107500000001030000000000000000000107000048239300
0202LOTE PADRAO                   SABESP      ON *       SBSP3       010VISTA          000000000076900000000770000000007500000000000000000000750000002239700
0202LOTE PADRAO                   BRASKEM     PNA*       BRKM5       010VISTA          000000000163000000001679000000016300000000000000000001660000000090200
0202LOTE PADRAO                   EMBRAER     PN EJ      EMBR4       010VISTA          000000000009100000000092500000000890000000000000000000089000000053700
0202LOTE PADRAO                   TELESP      PN * EJ    TLPP4       010VISTA          000000000032600000000336000000003260000000000000000000333000001689900
0202LOTE PADRAO                   EMBRAER     ON EJ      EMBR3       010VISTA          000000000007790000000079000000000750000000000000000000077000000007600
0202LOTE PADRAO                   AMBEV       PN *       AMBV4       010VISTA          000000000496000000004960000000048800000000000000000004910000002349300
0202LOTE PADRAO                   USIMINAS    PNA        USIM5       010VISTA          000000000007500000000075000000000740000000000000000000075000000016700
0202LOTE PADRAO                   ELETROPAULO PN *       ELPL4       010VISTA          000000000022900000000235000000002230000000000000000000229000002988700
0202LOTE PADRAO                   TELE NORD CLPN *       TNEP4       010VISTA          000000000002270000000023000000000220000000000000000000023000024955500
0202LOTE PADRAO                   CEMIG       PN * EJ    CMIG4       010VISTA          000000000022600000000228000000002200000000000000000000228000034855500
0202LOTE PADRAO                   TELE CL SUL PN * EJ    TCSL4       010VISTA          000000000002100000000022000000000210000000000000000000022000030775900
0202LOTE PADRAO                   TRACTEBEL   ON *       TBLE3       010VISTA          000000000003000000000032000000000298000000000000000000031000010218400
0202LOTE PADRAO                   CEMIG       ON * EJ    CMIG3       010VISTA          000000000018600000000197000000001860000000000000000000195000000320000
0202LOTE PADRAO                   TELE CL SUL ON * EJ    TCSL3       010VISTA          000000000001500000000016000000000150000000000000000000016000006146600
0202LOTE PADRAO                   ITAUSA      PN         ITSA4       010VISTA          000000000001810000000018000000000181000000000000000000018000000109700
0202LOTE PADRAO                   V C P       PN *       VCPA4       010VISTA          000000000132600000001350000000013090000000000000000001319000000873000
0202LOTE PADRAO                   SID TUBARAO PN *       CSTB4       010VISTA          000000000046500000000490000000004650000000000000000000477000004805200
0202LOTE PADRAO                   BRADESPAR   PN *       BRAP4       010VISTA          000000000000660000000007000000000065000000000000000000007000107064000
0202LOTE PADRAO                   NET         PN         PLIM4       010VISTA          000000000000300000000003100000000029000000000000000000003100000876300
0202LOTE PADRAO                   TELE CTR OESPN * EJ    TCOC4       010VISTA          000000000004200000000043000000000420000000000000000000043000042400400
0202LOTE PADRAO                   TELEMAR N L PNA* EJ    TMAR5       010VISTA          000000000033200000000345000000003320000000000000000000345000010659900
0202LOTE PADRAO                   GERDAU      PN * EJ    GGBR4       010VISTA          000000000033250000000337000000003300000000000000000000337000007142200
0202LOTE PADRAO                   BRASIL      ON *       BBAS3       010VISTA          000000000009500000000098000000000930000000000000000000098000025268100
