00BDIN9999BOVESPA 99992003021120030211
0101IBOVESPA                      0104910104750106500000000000000000002003021100000020030211010509000000
0202LOTE PADRAO                   EMBRATEL PARPN *       EBTP4       010VISTA          000000000003100000000032000000000310000000000000000000031000279444000
0202LOTE PADRAO                   TRAN PAULISTPN * EJ    TRPL4       010VISTA          000000000005100000000053000000000510000000000000000000052000009428200
0202LOTE PADRAO                   EMBRATEL PARON *       EBTP3       010VISTA          000000000003700000000037000000000360000000000000000000036000056778100
0202LOTE PADRAO                   TELEMAR     PN * EJ    TNLP4       010VISTA          000000000025400000000258000000002525000000000000000000254000258319000
0202LOTE PADRAO                   ITAUBANCO   PN * EJ    ITAU4       010VISTA          000000000157000000001600000000015700000000000000000001580000007045500
0202LOTE PADRAO                   TELEMAR     ON * EJ    TNLP3       010VISTA          000000000018900000000189000000001810000000000000000000183000014217200
0202LOTE PADRAO                   SID NACIONALON *       CSNA3       010VISTA          000000000062200000000660000000006220000000000000000000647000029184500
0202LOTE PADRAO                   TELE LEST CLPN *       TLCP4       010VISTA          000000000000410000000004200000000039000000000000000000004000154077000
0202LOTE PADRAO                   CRT CELULAR PNA* EJ    CRTP5       010VISTA          000000000324000000003350000000031800000000000000000003250000000724400
0202LOTE PADRAO                   IPIRANGA PETPN *       PTIP4       010VISTA          000000000006900000000070000000000670000000000000000000070000001563600
0202LOTE PADRAO                   BRASIL T PARPN *       BRTP4       010VISTA          000000000017300000000176000000001720000000000000000000173000055850300
0202LOTE PADRAO                   BRASIL T PARON *       BRTP3       010VISTA          000000000013000000000133000000001280000000000000000000131000006969500
0202LOTE PADRAO                   KLABIN S/A  PN         KLBN4       010VISTA          000000000001100000000011000000000100000000000000000000010000000020200
0202LOTE PADRAO                   ACESITA     PN *       ACES4       010VISTA          000000000000940000000009800000000094000000000000000000009800348345000
0202LOTE PADRAO                   PETROBRAS   PN         PETR4       010VISTA          000000000047100000000478000000004630000000000000000000463000000092300
0202LOTE PADRAO                   ELETROBRAS  PNB*       ELET6       010VISTA          000000000019800000000198000000001860000000000000000000187500057607500
0202LOTE PADRAO                   PETROBRAS   ON         PETR3       010VISTA          000000000051200000000522000000005070000000000000000000507000000027700
0202LOTE PADRAO                   COMGAS      PNA*       CGAS5       010VISTA          000000000046200000000462000000004360000000000000000000440000000564400
0202LOTE PADRAO                   SOUZA CRUZ  ON EJ      CRUZ3       010VISTA          000000000018100000000182000000001800000000000000000000181000000018200
0202LOTE PADRAO                   ELETROBRAS  ON *       ELET3       010VISTA          000000000018600000000186000000001800000000000000000000183000018351200
0202LOTE PADRAO                   CELESC      PNB        CLSC6       010VISTA          000000000000480000000004900000000047000000000000000000004800000134400
0202LOTE PADRAO                   BRADESCO    PN * EJ    BBDC4       010VISTA          000000000009600000000098000000000960000000000000000000097000194408000
0202LOTE PADRAO                   CESP        PN *       CESP4       010VISTA          000000000006500000000065000000000610000000000000000000064000008991600
0202LOTE PADRAO                   LIGHT       ON *       LIGH3       010VISTA          000000000029000000000301000000002700000000000000000000273000001547600
0202LOTE PADRAO                   TELESP CL PAPN *       TSPP4       010VISTA          000000000003540000000035000000000340000000000000000000034000336068000
0202LOTE PADRAO                   VALE R DOCE PNA        VALE5       010VISTA          000000000097700000001004000000009700000000000000000001000000000015000
0202LOTE PADRAO                   COPEL       PNB*       CPLE6       010VISTA          000000000007700000000079000000000760000000000000000000077500040627600
0202LOTE PADRAO                   VALE R DOCE ON         VALE3       010VISTA          000000000102400000001054000000010050000000000000000001050000000009400
0202LOTE PADRAO                   ARACRUZ     PNB        ARCZ6       010VISTA          000000000007200000000072000000000690000000000000000000069000000034600
0202LOTE PADRAO                   TELEMIG PARTPN *       TMCP4       010VISTA          000000000002500000000025000000000240000000000000000000024800032728700
0202LOTE PADRAO                   BRASIL TELECPN *       BRTO4       010VISTA          000000000010100000000101000000000980000000000000000000099000080330200
0202LOTE PADRAO                   SABESP      ON *       SBSP3       010VISTA          000000000084000000000855000000008380000000000000000000852000003579400
0202LOTE PADRAO                   BRASKEM     PNA*       BRKM5       010VISTA          000000000170000000001735000000016800000000000000000001705000000405100
0202LOTE PADRAO                   EMBRAER     PN EJ      EMBR4       010VISTA          000000000011500000000115000000001100000000000000000000110000000049700
0202LOTE PADRAO                   TELESP      PN * EJ    TLPP4       010VISTA          000000000031300000000324000000003110000000000000000000313000007551600
0202LOTE PADRAO                   EMBRAER     ON EJ      EMBR3       010VISTA          000000000010100000000101000000000970000000000000000000099000000011400
0202LOTE PADRAO                   AMBEV       PN *       AMBV4       010VISTA          000000000480000000004840000000047800000000000000000004800000001403600
0202LOTE PADRAO                   USIMINAS    PNA        USIM5       010VISTA          000000000007200000000076000000000720000000000000000000076000000167000
0202LOTE PADRAO                   ELETROPAULO PN *       ELPL4       010VISTA          000000000023900000000239000000002250000000000000000000226000006028000
0202LOTE PADRAO                   TELE NORD CLPN *       TNEP4       010VISTA          000000000002300000000024000000000230000000000000000000023000023793000
0202LOTE PADRAO                   CEMIG       PN * EJ    CMIG4       010VISTA          000000000026000000000260000000002440000000000000000000246000047529200
0202LOTE PADRAO                   TELE CL SUL PN * EJ    TCSL4       010VISTA          000000000002300000000023000000000220000000000000000000023000050186900
0202LOTE PADRAO                   TRACTEBEL   ON *       TBLE3       010VISTA          000000000003200000000032000000000310000000000000000000031000009208900
0202LOTE PADRAO                   CEMIG       ON * EJ    CMIG3       010VISTA          000000000021000000000210000000002070000000000000000000208000000378400
0202LOTE PADRAO                   TELE CL SUL ON * EJ    TCSL3       010VISTA          000000000001700000000017100000000160000000000000000000016000016027100
0202LOTE PADRAO                   ITAUSA      PN         ITSA4       010VISTA          000000000001900000000019000000000180000000000000000000019000000137200
0202LOTE PADRAO                   V C P       PN *       VCPA4       010VISTA          000000000133000000001330000000012830000000000000000001304000001060400
0202LOTE PADRAO                   SID TUBARAO PN *       CSTB4       010VISTA          000000000040200000000422000000004020000000000000000000418000029516500
0202LOTE PADRAO                   BRADESPAR   PN *       BRAP4       010VISTA          000000000000640000000006700000000064000000000000000000006700176560000
0202LOTE PADRAO                   NET         PN         PLIM4       010VISTA          000000000000320000000003300000000030000000000000000000003100000812200
0202LOTE PADRAO                   TELE CTR OESPN * EJ    TCOC4       010VISTA          000000000004400000000045000000000430000000000000000000043000052181900
0202LOTE PADRAO                   TELEMAR N L PNA* EJ    TMAR5       010VISTA          000000000038000000000383000000003725000000000000000000376000016410200
0202LOTE PADRAO                   GERDAU      PN * EJ    GGBR4       010VISTA          000000000030100000000306000000002980000000000000000000298000018918600
0202LOTE PADRAO                   BRASIL      ON *       BBAS3       010VISTA          000000000009700000000099000000000970000000000000000000098000056568500
