00BDIN9999BOVESPA 99992003080820030808
0101IBOVESPA                      0133330133330135130000000000000000002003080800000020030808013500000000
0202LOTE PADRAO                   EMBRATEL PARPN *       EBTP4       010VISTA          000000000005400000000054000000000530000000000000000000054000271231000
0202LOTE PADRAO                   TRAN PAULISTPN * EJ    TRPL4       010VISTA          000000000007250000000072000000000710000000000000000000072500006630300
0202LOTE PADRAO                   EMBRATEL PARON *       EBTP3       010VISTA          000000000006000000000060000000000570000000000000000000058000022906400
0202LOTE PADRAO                   TELEMAR     PN * EJ    TNLP4       010VISTA          000000000032600000000327000000003210000000000000000000324000239281000
0202LOTE PADRAO                   ITAUBANCO   PN * EJ    ITAU4       010VISTA          000000000214500000002150000000021100000000000000000002149000023798800
0202LOTE PADRAO                   TELEMAR     ON * EJ    TNLP3       010VISTA          000000000023500000000240000000002330000000000000000000240000012666400
0202LOTE PADRAO                   SID NACIONALON *       CSNA3       010VISTA          000000000081000000000812000000007980000000000000000000798000010638300
0202LOTE PADRAO                   TELE LEST CLPN *       TLCP4       010VISTA          000000000000410000000004100000000039000000000000000000004000082037300
0202LOTE PADRAO                   CRT CELULAR PNA* EJ    CRTP5       010VISTA          000000000359000000003600000000034800000000000000000003500000000507200
0202LOTE PADRAO                   IPIRANGA PETPN *       PTIP4       010VISTA          000000000010100000000101000000000940000000000000000000097500009390500
0202LOTE PADRAO                   BRASIL T PARPN *       BRTP4       010VISTA          000000000020500000000205000000002030000000000000000000205000045100200
0202LOTE PADRAO                   BRASIL T PARON *       BRTP3       010VISTA          000000000015300000000155000000001530000000000000000000155000009021200
0202LOTE PADRAO                   KLABIN S/A  PN         KLBN4       010VISTA          000000000002800000000029000000000270000000000000000000028000000054300
0202LOTE PADRAO                   ACESITA     PN *       ACES4       010VISTA          000000000001300000000013000000000130000000000000000000013000464317000
0202LOTE PADRAO                   PETROBRAS   PN         PETR4       010VISTA          000000000056400000000577500000005640000000000000000000577500000085200
0202LOTE PADRAO                   ELETROBRAS  PNB*       ELET6       010VISTA          000000000021900000000230000000002160000000000000000000226000062912200
0202LOTE PADRAO                   PETROBRAS   ON         PETR3       010VISTA          000000000060300000000619000000006030000000000000000000619000000021200
0202LOTE PADRAO                   COMGAS      PNA*       CGAS5       010VISTA          000000000071700000000730000000007170000000000000000000727500002319200
0202LOTE PADRAO                   SOUZA CRUZ  ON EJ      CRUZ3       010VISTA          000000000022600000000227000000002200000000000000000000226000000004800
0202LOTE PADRAO                   ELETROBRAS  ON *       ELET3       010VISTA          000000000018800000000199000000001880000000000000000000197000028317000
0202LOTE PADRAO                   CELESC      PNB        CLSC6       010VISTA          000000000000440000000004400000000042000000000000000000004400000112100
0202LOTE PADRAO                   BRADESCO    PN * EJ    BBDC4       010VISTA          000000000011800000000119000000001180000000000000000000119000230912000
0202LOTE PADRAO                   CESP        PN *       CESP4       010VISTA          000000000006400000000065000000000640000000000000000000065000016510000
0202LOTE PADRAO                   LIGHT       ON *       LIGH3       010VISTA          000000000023100000000236000000002210000000000000000000229000000395300
0202LOTE PADRAO                   TELESP CL PAPN *       TSPP4       010VISTA          000000000004300000000043000000000410000000000000000000041000218784000
0202LOTE PADRAO                   VALE R DOCE PNA        VALE5       010VISTA          000000000090000000000920000000008950000000000000000000919000000024400
0202LOTE PADRAO                   COPEL       PNB*       CPLE6       010VISTA          000000000008200000000086000000000820000000000000000000086000142950000
0202LOTE PADRAO                   VALE R DOCE ON         VALE3       010VISTA          000000000098500000001005000000009820000000000000000001004000000022700
0202LOTE PADRAO                   ARACRUZ     PNB        ARCZ6       010VISTA          000000000007200000000072000000000700000000000000000000072000000048200
0202LOTE PADRAO                   TELEMIG PARTPN *       TMCP4       010VISTA          000000000002810000000028000000000281000000000000000000028000074957000
0202LOTE PADRAO                   BRASIL TELECPN *       BRTO4       010VISTA          000000000012400000000125000000001230000000000000000000124000087113300
0202LOTE PADRAO                   SABESP      ON *       SBSP3       010VISTA          000000000108500000001099000000010400000000000000000001058000009253200
0202LOTE PADRAO                   BRASKEM     PNA*       BRKM5       010VISTA          000000000440000000004410000000043500000000000000000004370000000349800
0202LOTE PADRAO                   EMBRAER     PN EJ      EMBR4       010VISTA          000000000013200000000135000000001320000000000000000000133000000052100
0202LOTE PADRAO                   TELESP      PN * EJ    TLPP4       010VISTA          000000000030900000000309000000002960000000000000000000298000013446300
0202LOTE PADRAO                   EMBRAER     ON EJ      EMBR3       010VISTA          000000000010400000000106000000001030000000000000000000105000000011200
0202LOTE PADRAO                   AMBEV       PN *       AMBV4       010VISTA          000000000590000000005960000000058700000000000000000005950000002240100
0202LOTE PADRAO                   USIMINAS    PNA        USIM5       010VISTA          000000000015800000000161000000001530000000000000000000155000000053900
0202LOTE PADRAO                   ELETROPAULO PN *       ELPL4       010VISTA          000000000022400000000230000000002200000000000000000000223000007079800
0202LOTE PADRAO                   TELE NORD CLPN *       TNEP4       010VISTA          000000000002300000000023000000000220000000000000000000022000059182400
0202LOTE PADRAO                   CEMIG       PN * EJ    CMIG4       010VISTA          000000000026900000000273000000002660000000000000000000271000060296200
0202LOTE PADRAO                   TELE CL SUL PN * EJ    TCSL4       010VISTA          000000000002100000000021000000000210000000000000000000021000111366000
0202LOTE PADRAO                   TRACTEBEL   ON *       TBLE3       010VISTA          000000000007000000000070000000000690000000000000000000070000004560000
0202LOTE PADRAO                   CEMIG       ON * EJ    CMIG3       010VISTA          000000000020600000000206000000002030000000000000000000206000001153900
0202LOTE PADRAO                   TELE CL SUL ON * EJ    TCSL3       010VISTA          000000000001940000000019800000000180000000000000000000019000040715700
0202LOTE PADRAO                   ITAUSA      PN         ITSA4       010VISTA          000000000002400000000025000000000240000000000000000000025000000221000
0202LOTE PADRAO                   V C P       PN *       VCPA4       010VISTA          000000000133000000001330000000013100000000000000000001321000003006100
0202LOTE PADRAO                   SID TUBARAO PN *       CSTB4       010VISTA          000000000049500000000500000000004880000000000000000000499000012991000
0202LOTE PADRAO                   BRADESPAR   PN *       BRAP4       010VISTA          000000000000680000000006900000000067000000000000000000006800096098400
0202LOTE PADRAO                   NET         PN         PLIM4       010VISTA          000000000000320000000003300000000032000000000000000000003300000898300
0202LOTE PADRAO                   TELE CTR OESPN * EJ    TCOC4       010VISTA          000000000005200000000052500000000500000000000000000000051000108352000
0202LOTE PADRAO                   TELEMAR N L PNA* EJ    TMAR5       010VISTA          000000000040000000000400000000003860000000000000000000390000016213400
0202LOTE PADRAO                   GERDAU      PN * EJ    GGBR4       010VISTA          000000000034100000000346000000003410000000000000000000346000000014700
0202LOTE PADRAO                   BRASIL      ON *       BBAS3       010VISTA          000000000014300000000152000000001430000000000000000000150000045398900
