00BDIN9999BOVESPA 99992003072520030725
0101IBOVESPA                      0137610136610138680000000000000000002003072500000020030725013750000000
0202LOTE PADRAO                   EMBRATEL PARPN *       EBTP4       010VISTA          000000000006100000000062000000000610000000000000000000061000298930000
0202LOTE PADRAO                   TRAN PAULISTPN * EJ    TRPL4       010VISTA          000000000007600000000076000000000730000000000000000000074000007049900
0202LOTE PADRAO                   EMBRATEL PARON *       EBTP3       010VISTA          000000000006900000000069000000000670000000000000000000068000033548100
0202LOTE PADRAO                   TELEMAR     PN * EJ    TNLP4       010VISTA          000000000032700000000331000000003260000000000000000000327000207152000
0202LOTE PADRAO                   ITAUBANCO   PN * EJ    ITAU4       010VISTA          000000000208300000002139000000020540000000000000000002139000010446600
0202LOTE PADRAO                   TELEMAR     ON * EJ    TNLP3       010VISTA          000000000024100000000243000000002360000000000000000000239000020689500
0202LOTE PADRAO                   SID NACIONALON *       CSNA3       010VISTA          000000000075500000000765000000007500000000000000000000759000020621200
0202LOTE PADRAO                   TELE LEST CLPN *       TLCP4       010VISTA          000000000000430000000004400000000042000000000000000000004300148552000
0202LOTE PADRAO                   CRT CELULAR PNA* EJ    CRTP5       010VISTA          000000000374000000003740000000036700000000000000000003688000000651400
0202LOTE PADRAO                   IPIRANGA PETPN *       PTIP4       010VISTA          000000000011000000000110000000001070000000000000000000109000002817400
0202LOTE PADRAO                   BRASIL T PARPN *       BRTP4       010VISTA          000000000021100000000213000000002060000000000000000000206000057323900
0202LOTE PADRAO                   BRASIL T PARON *       BRTP3       010VISTA          000000000015700000000165000000001550000000000000000000156000013798200
0202LOTE PADRAO                   KLABIN S/A  PN         KLBN4       010VISTA          000000000002800000000028000000000280000000000000000000028000000034700
0202LOTE PADRAO                   ACESITA     PN *       ACES4       010VISTA          000000000001300000000013000000000130000000000000000000013000096693900
0202LOTE PADRAO                   PETROBRAS   PN         PETR4       010VISTA          000000000056500000000568000000005570000000000000000000560000000077200
0202LOTE PADRAO                   ELETROBRAS  PNB*       ELET6       010VISTA          000000000024600000000248000000002420000000000000000000244000048305400
0202LOTE PADRAO                   PETROBRAS   ON         PETR3       010VISTA          000000000060200000000607000000005950000000000000000000597000000032900
0202LOTE PADRAO                   COMGAS      PNA*       CGAS5       010VISTA          000000000071750000000717500000007000000000000000000000701000000844900
0202LOTE PADRAO                   SOUZA CRUZ  ON EJ      CRUZ3       010VISTA          000000000023000000000234000000002290000000000000000000231000000020000
0202LOTE PADRAO                   ELETROBRAS  ON *       ELET3       010VISTA          000000000022400000000225000000002180000000000000000000218000011314500
0202LOTE PADRAO                   CELESC      PNB        CLSC6       010VISTA          000000000000460000000004600000000045000000000000000000004500000175400
0202LOTE PADRAO                   BRADESCO    PN * EJ    BBDC4       010VISTA          000000000011700000000118000000001150000000000000000000118000151526000
0202LOTE PADRAO                   CESP        PN *       CESP4       010VISTA          000000000007400000000074000000000710000000000000000000072000006145000
0202LOTE PADRAO                   LIGHT       ON *       LIGH3       010VISTA          000000000026800000000268000000002550000000000000000000260000001013300
0202LOTE PADRAO                   TELESP CL PAPN *       TSPP4       010VISTA          000000000004500000000045000000000440000000000000000000044000451249000
0202LOTE PADRAO                   VALE R DOCE PNA        VALE5       010VISTA          000000000087900000000894000000008750000000000000000000892000000042800
0202LOTE PADRAO                   COPEL       PNB*       CPLE6       010VISTA          000000000008500000000085000000000840000000000000000000085000087744700
0202LOTE PADRAO                   VALE R DOCE ON         VALE3       010VISTA          000000000095000000000972000000009500000000000000000000972000000020300
0202LOTE PADRAO                   ARACRUZ     PNB        ARCZ6       010VISTA          000000000006750000000072000000000670000000000000000000071000000119400
0202LOTE PADRAO                   TELEMIG PARTPN *       TMCP4       010VISTA          000000000003100000000032000000000300000000000000000000031000055574900
0202LOTE PADRAO                   BRASIL TELECPN *       BRTO4       010VISTA          000000000012800000000128000000001250000000000000000000125000066179700
0202LOTE PADRAO                   SABESP      ON *       SBSP3       010VISTA          000000000114900000001150000000011000000000000000000001130000003738000
0202LOTE PADRAO                   BRASKEM     PNA*       BRKM5       010VISTA          000000000441000000004490000000043700000000000000000004460000000268200
0202LOTE PADRAO                   EMBRAER     PN EJ      EMBR4       010VISTA          000000000013900000000140000000001370000000000000000000137000000055500
0202LOTE PADRAO                   TELESP      PN * EJ    TLPP4       010VISTA          000000000031100000000311000000003060000000000000000000310000006751900
0202LOTE PADRAO                   EMBRAER     ON EJ      EMBR3       010VISTA          000000000011000000000111000000001080000000000000000000109000000015900
0202LOTE PADRAO                   AMBEV       PN *       AMBV4       010VISTA          000000000598000000005988000000058220000000000000000005949000001550000
0202LOTE PADRAO                   USIMINAS    PNA        USIM5       010VISTA          000000000015900000000160000000001560000000000000000000158000000062700
0202LOTE PADRAO                   ELETROPAULO PN *       ELPL4       010VISTA          000000000024900000000253000000002410000000000000000000241000005523000
0202LOTE PADRAO                   TELE NORD CLPN *       TNEP4       010VISTA          000000000002300000000023000000000230000000000000000000023000113844000
0202LOTE PADRAO                   CEMIG       PN * EJ    CMIG4       010VISTA          000000000028300000000283000000002750000000000000000000280000042642100
0202LOTE PADRAO                   TELE CL SUL PN * EJ    TCSL4       010VISTA          000000000002300000000023000000000230000000000000000000023000058219100
0202LOTE PADRAO                   TRACTEBEL   ON *       TBLE3       010VISTA          000000000007800000000078000000000770000000000000000000077000016445400
0202LOTE PADRAO                   CEMIG       ON * EJ    CMIG3       010VISTA          000000000023000000000230000000002200000000000000000000222000000698400
0202LOTE PADRAO                   TELE CL SUL ON * EJ    TCSL3       010VISTA          000000000002100000000021000000000210000000000000000000021000040443900
0202LOTE PADRAO                   ITAUSA      PN         ITSA4       010VISTA          000000000002400000000025000000000240000000000000000000025200000482400
0202LOTE PADRAO                   V C P       PN *       VCPA4       010VISTA          000000000129900000001339000000012900000000000000000001339000012589700
0202LOTE PADRAO                   SID TUBARAO PN *       CSTB4       010VISTA          000000000057800000000583000000005630000000000000000000583000015636100
0202LOTE PADRAO                   BRADESPAR   PN *       BRAP4       010VISTA          000000000000670000000006800000000066000000000000000000006700256251000
0202LOTE PADRAO                   NET         PN         PLIM4       010VISTA          000000000000320000000003200000000031000000000000000000003100000479000
0202LOTE PADRAO                   TELE CTR OESPN * EJ    TCOC4       010VISTA          000000000005600000000056000000000540000000000000000000055000138619000
0202LOTE PADRAO                   TELEMAR N L PNA* EJ    TMAR5       010VISTA          000000000041000000000415000000003980000000000000000000400000014653600
0202LOTE PADRAO                   GERDAU      PN * EJ    GGBR4       010VISTA          000000000034100000000347000000003370000000000000000000344000000013400
0202LOTE PADRAO                   BRASIL      ON *       BBAS3       010VISTA          000000000014200000000145000000001420000000000000000000145000018166700
