00BDIN9999BOVESPA 99992003082920030829
0101IBOVESPA                      0150650148570151970000000000000000002003082900000020030829015174000000
0202LOTE PADRAO                   EMBRATEL PARPN *       EBTP4       010VISTA          000000000006100000000061000000000600000000000000000000060000274462000
0202LOTE PADRAO                   TRAN PAULISTPN * EJ    TRPL4       010VISTA          000000000008500000000087000000000840000000000000000000086000021054800
0202LOTE PADRAO                   EMBRATEL PARON *       EBTP3       010VISTA          000000000006200000000064000000000620000000000000000000063000044512000
0202LOTE PADRAO                   TELEMAR     PN * EJ    TNLP4       010VISTA          000000000037800000000388000000003770000000000000000000385000344144000
0202LOTE PADRAO                   ITAUBANCO   PN * EJ    ITAU4       010VISTA          000000000224000000002260000000022250000000000000000002245000010737100
0202LOTE PADRAO                   TELEMAR     ON * EJ    TNLP3       010VISTA          000000000027500000000285000000002750000000000000000000283000028287800
0202LOTE PADRAO                   SID NACIONALON *       CSNA3       010VISTA          000000000094000000000999000000009300000000000000000000995000038513200
0202LOTE PADRAO                   TELE LEST CLPN *       TLCP4       010VISTA          000000000000440000000004400000000043000000000000000000004400097643500
0202LOTE PADRAO                   CRT CELULAR PNA* EJ    CRTP5       010VISTA          000000000415000000004370000000041500000000000000000004338000001083200
0202LOTE PADRAO                   IPIRANGA PETPN *       PTIP4       010VISTA          000000000010800000000113000000001060000000000000000000111000010539900
0202LOTE PADRAO                   BRASIL T PARPN *       BRTP4       010VISTA          000000000022400000000225000000002200000000000000000000224000066466300
0202LOTE PADRAO                   BRASIL T PARON *       BRTP3       010VISTA          000000000016000000000168000000001600000000000000000000168000010633600
0202LOTE PADRAO                   KLABIN S/A  PN         KLBN4       010VISTA          000000000003100000000031000000000300000000000000000000031000000098900
0202LOTE PADRAO                   ACESITA     PN *       ACES4       010VISTA          000000000001400000000014000000000140000000000000000000014000416714000
0202LOTE PADRAO                   PETROBRAS   PN         PETR4       010VISTA          000000000058500000000608000000005820000000000000000000607000000133100
0202LOTE PADRAO                   ELETROBRAS  PNB*       ELET6       010VISTA          000000000024300000000249000000002410000000000000000000246000049725800
0202LOTE PADRAO                   PETROBRAS   ON         PETR3       010VISTA          000000000063200000000657000000006320000000000000000000657000000052200
0202LOTE PADRAO                   COMGAS      PNA*       CGAS5       010VISTA          000000000081500000000840000000008100000000000000000000823000002720700
0202LOTE PADRAO                   SOUZA CRUZ  ON EJ      CRUZ3       010VISTA          000000000024000000000240000000002325000000000000000000235000000014400
0202LOTE PADRAO                   ELETROBRAS  ON *       ELET3       010VISTA          000000000021700000000221000000002130000000000000000000220000016786200
0202LOTE PADRAO                   CELESC      PNB        CLSC6       010VISTA          000000000000460000000004700000000045000000000000000000004600000439800
0202LOTE PADRAO                   BRADESCO    PN * EJ    BBDC4       010VISTA          000000000012750000000127000000001250000000000000000000126000157219000
0202LOTE PADRAO                   CESP        PN *       CESP4       010VISTA          000000000008000000000082500000000780000000000000000000078000031781800
0202LOTE PADRAO                   LIGHT       ON *       LIGH3       010VISTA          000000000028500000000296000000002850000000000000000000293000000855600
0202LOTE PADRAO                   TELESP CL PAPN *       TSPP4       010VISTA          000000000004700000000048000000000460000000000000000000047000273136000
0202LOTE PADRAO                   VALE R DOCE PNA        VALE5       010VISTA          000000000101900000001020000000010010000000000000000001015000000017600
0202LOTE PADRAO                   COPEL       PNB*       CPLE6       010VISTA          000000000008200000000084000000000810000000000000000000083000166550000
0202LOTE PADRAO                   VALE R DOCE ON         VALE3       010VISTA          000000000108200000001114000000010820000000000000000001107000000010600
0202LOTE PADRAO                   ARACRUZ     PNB        ARCZ6       010VISTA          000000000007400000000081000000000740000000000000000000080000000097300
0202LOTE PADRAO                   TELEMIG PARTPN *       TMCP4       010VISTA          000000000003200000000033000000000320000000000000000000033000120019000
0202LOTE PADRAO                   BRASIL TELECPN *       BRTO4       010VISTA          000000000013600000000138000000001330000000000000000000136000114738000
0202LOTE PADRAO                   SABESP      ON *       SBSP3       010VISTA          000000000128300000001349000000012500000000000000000001295000010643800
0202LOTE PADRAO                   BRASKEM     PNA*       BRKM5       010VISTA          000000000601000000006250000000059500000000000000000006050000001376300
0202LOTE PADRAO                   EMBRAER     PN EJ      EMBR4       010VISTA          000000000014100000000151000000001410000000000000000000151000000159900
0202LOTE PADRAO                   TELESP      PN * EJ    TLPP4       010VISTA          000000000033000000000337000000003300000000000000000000335000009355000
0202LOTE PADRAO                   EMBRAER     ON EJ      EMBR3       010VISTA          000000000010900000000118000000001090000000000000000000117500000028200
0202LOTE PADRAO                   AMBEV       PN *       AMBV4       010VISTA          000000000625000000006570000000062000000000000000000006550000008065400
0202LOTE PADRAO                   USIMINAS    PNA        USIM5       010VISTA          000000000016600000000171000000001640000000000000000000170000000171200
0202LOTE PADRAO                   ELETROPAULO PN *       ELPL4       010VISTA          000000000028800000000301000000002870000000000000000000295000012033400
0202LOTE PADRAO                   TELE NORD CLPN *       TNEP4       010VISTA          000000000002500000000025000000000240000000000000000000025000131018000
0202LOTE PADRAO                   CEMIG       PN * EJ    CMIG4       010VISTA          000000000031100000000326000000003110000000000000000000323000074827400
0202LOTE PADRAO                   TELE CL SUL PN * EJ    TCSL4       010VISTA          000000000002540000000025600000000240000000000000000000025000120283000
0202LOTE PADRAO                   TRACTEBEL   ON *       TBLE3       010VISTA          000000000007500000000077000000000740000000000000000000077000008958200
0202LOTE PADRAO                   CEMIG       ON * EJ    CMIG3       010VISTA          000000000023500000000245000000002350000000000000000000245000002014700
0202LOTE PADRAO                   TELE CL SUL ON * EJ    TCSL3       010VISTA          000000000002100000000022700000000210000000000000000000021000052012900
0202LOTE PADRAO                   ITAUSA      PN         ITSA4       010VISTA          000000000002800000000028000000000270000000000000000000028000000380600
0202LOTE PADRAO                   V C P       PN *       VCPA4       010VISTA          000000000145000000001555000000014500000000000000000001550000002143400
0202LOTE PADRAO                   SID TUBARAO PN *       CSTB4       010VISTA          000000000060100000000601000000005900000000000000000000593000013094300
0202LOTE PADRAO                   BRADESPAR   PN *       BRAP4       010VISTA          000000000000780000000007800000000075000000000000000000007600184565000
0202LOTE PADRAO                   NET         PN         PLIM4       010VISTA          000000000000380000000003800000000036000000000000000000003600000640400
0202LOTE PADRAO                   TELE CTR OESPN * EJ    TCOC4       010VISTA          000000000005900000000060000000000580000000000000000000060000060632500
0202LOTE PADRAO                   TELEMAR N L PNA* EJ    TMAR5       010VISTA          000000000043900000000455000000004350000000000000000000449000024471700
0202LOTE PADRAO                   GERDAU      PN * EJ    GGBR4       010VISTA          000000000042750000000443000000004150000000000000000000443000000021700
0202LOTE PADRAO                   BRASIL      ON *       BBAS3       010VISTA          000000000015400000000159000000001510000000000000000000154000035955700
