00BDIN9999BOVESPA 99992003040920030409
0101IBOVESPA                      0117840117540119040000000000000000002003040900000020030409011759000000
0202LOTE PADRAO                   EMBRATEL PARPN *       EBTP4       010VISTA          000000000003800000000039000000000370000000000000000000037000328015000
0202LOTE PADRAO                   TRAN PAULISTPN * EJ    TRPL4       010VISTA          000000000006000000000063000000000600000000000000000000062000021193000
0202LOTE PADRAO                   EMBRATEL PARON *       EBTP3       010VISTA          000000000004700000000047000000000440000000000000000000044000036872800
0202LOTE PADRAO                   TELEMAR     PN * EJ    TNLP4       010VISTA          000000000029000000000297500000002900000000000000000000293000383261000
0202LOTE PADRAO                   ITAUBANCO   PN * EJ    ITAU4       010VISTA          000000000190000000001920000000018830000000000000000001883000012105700
0202LOTE PADRAO                   TELEMAR     ON * EJ    TNLP3       010VISTA          000000000020600000000212000000002060000000000000000000208000041482400
0202LOTE PADRAO                   SID NACIONALON *       CSNA3       010VISTA          000000000062400000000659000000006240000000000000000000650000031652900
0202LOTE PADRAO                   TELE LEST CLPN *       TLCP4       010VISTA          000000000000460000000004600000000044000000000000000000004400054102400
0202LOTE PADRAO                   CRT CELULAR PNA* EJ    CRTP5       010VISTA          000000000320000000003290000000031800000000000000000003224000004641900
0202LOTE PADRAO                   IPIRANGA PETPN *       PTIP4       010VISTA          000000000007400000000075000000000725000000000000000000074000007241200
0202LOTE PADRAO                   BRASIL T PARPN *       BRTP4       010VISTA          000000000019500000000196000000001930000000000000000000193000075032100
0202LOTE PADRAO                   BRASIL T PARON *       BRTP3       010VISTA          000000000014400000000151000000001440000000000000000000150000013289100
0202LOTE PADRAO                   KLABIN S/A  PN         KLBN4       010VISTA          000000000001800000000019400000000180000000000000000000018000000055800
0202LOTE PADRAO                   ACESITA     PN *       ACES4       010VISTA          000000000001100000000012000000000110000000000000000000011000192324000
0202LOTE PADRAO                   PETROBRAS   PN         PETR4       010VISTA          000000000046100000000465000000004550000000000000000000461000000098200
0202LOTE PADRAO                   ELETROBRAS  PNB*       ELET6       010VISTA          000000000023250000000235000000002230000000000000000000226000069955600
0202LOTE PADRAO                   PETROBRAS   ON         PETR3       010VISTA          000000000050300000000507000000004950000000000000000000503000000061400
0202LOTE PADRAO                   COMGAS      PNA*       CGAS5       010VISTA          000000000052100000000530000000005200000000000000000000520000000480000
0202LOTE PADRAO                   SOUZA CRUZ  ON EJ      CRUZ3       010VISTA          000000000018800000000191000000001860000000000000000000186000000006100
0202LOTE PADRAO                   ELETROBRAS  ON *       ELET3       010VISTA          000000000021800000000218000000002030000000000000000000206000027874800
0202LOTE PADRAO                   CELESC      PNB        CLSC6       010VISTA          000000000000450000000004600000000045000000000000000000004500000288100
0202LOTE PADRAO                   BRADESCO    PN * EJ    BBDC4       010VISTA          000000000012100000000122000000001180000000000000000000118000139370000
0202LOTE PADRAO                   CESP        PN *       CESP4       010VISTA          000000000006250000000065000000000625000000000000000000062500005644000
0202LOTE PADRAO                   LIGHT       ON *       LIGH3       010VISTA          000000000029900000000300000000002700000000000000000000270000001333300
0202LOTE PADRAO                   TELESP CL PAPN *       TSPP4       010VISTA          000000000004500000000046000000000440000000000000000000045000407343000
0202LOTE PADRAO                   VALE R DOCE PNA        VALE5       010VISTA          000000000086000000000865000000008520000000000000000000864000000027200
0202LOTE PADRAO                   COPEL       PNB*       CPLE6       010VISTA          000000000008700000000087000000000840000000000000000000084000099422100
0202LOTE PADRAO                   VALE R DOCE ON         VALE3       010VISTA          000000000087700000000900000000008770000000000000000000900000000009700
0202LOTE PADRAO                   ARACRUZ     PNB        ARCZ6       010VISTA          000000000006300000000065400000000630000000000000000000065000000028700
0202LOTE PADRAO                   TELEMIG PARTPN *       TMCP4       010VISTA          000000000002790000000027000000000269000000000000000000026900068364600
0202LOTE PADRAO                   BRASIL TELECPN *       BRTO4       010VISTA          000000000011500000000117000000001140000000000000000000115000131288000
0202LOTE PADRAO                   SABESP      ON *       SBSP3       010VISTA          000000000094400000000960000000009440000000000000000000952000013219800
0202LOTE PADRAO                   BRASKEM     PNA*       BRKM5       010VISTA          000000000231000000002370000000022200000000000000000002360000000280900
0202LOTE PADRAO                   EMBRAER     PN EJ      EMBR4       010VISTA          000000000010100000000106000000001010000000000000000000106000000119400
0202LOTE PADRAO                   TELESP      PN * EJ    TLPP4       010VISTA          000000000030200000000321000000003020000000000000000000321000010397900
0202LOTE PADRAO                   EMBRAER     ON EJ      EMBR3       010VISTA          000000000008500000000091000000000850000000000000000000091000000034700
0202LOTE PADRAO                   AMBEV       PN *       AMBV4       010VISTA          000000000550000000005600000000055000000000000000000005580000001606900
0202LOTE PADRAO                   USIMINAS    PNA        USIM5       010VISTA          000000000009500000000098000000000890000000000000000000089000000168400
0202LOTE PADRAO                   ELETROPAULO PN *       ELPL4       010VISTA          000000000024900000000250000000002310000000000000000000234000011448400
0202LOTE PADRAO                   TELE NORD CLPN *       TNEP4       010VISTA          000000000002300000000023000000000220000000000000000000022000080795200
0202LOTE PADRAO                   CEMIG       PN * EJ    CMIG4       010VISTA          000000000027100000000276000000002680000000000000000000276000076171600
0202LOTE PADRAO                   TELE CL SUL PN * EJ    TCSL4       010VISTA          000000000002300000000023000000000220000000000000000000022000096334000
0202LOTE PADRAO                   TRACTEBEL   ON *       TBLE3       010VISTA          000000000004300000000045000000000420000000000000000000043000013440000
0202LOTE PADRAO                   CEMIG       ON * EJ    CMIG3       010VISTA          000000000021000000000216000000002100000000000000000000212000001060500
0202LOTE PADRAO                   TELE CL SUL ON * EJ    TCSL3       010VISTA          000000000002300000000025000000000230000000000000000000025000030211200
0202LOTE PADRAO                   ITAUSA      PN         ITSA4       010VISTA          000000000002100000000022000000000210000000000000000000022000000604100
0202LOTE PADRAO                   V C P       PN *       VCPA4       010VISTA          000000000120000000001200000000011825000000000000000001199000001079100
0202LOTE PADRAO                   SID TUBARAO PN *       CSTB4       010VISTA          000000000043000000000448000000004300000000000000000000448000010374900
0202LOTE PADRAO                   BRADESPAR   PN *       BRAP4       010VISTA          000000000000650000000006600000000064000000000000000000006400145372000
0202LOTE PADRAO                   NET         PN         PLIM4       010VISTA          000000000000310000000003200000000030000000000000000000003000001051200
0202LOTE PADRAO                   TELE CTR OESPN * EJ    TCOC4       010VISTA          000000000005600000000057000000000550000000000000000000056000151643000
0202LOTE PADRAO                   TELEMAR N L PNA* EJ    TMAR5       010VISTA          000000000040200000000417000000004020000000000000000000410000053500000
0202LOTE PADRAO                   GERDAU      PN * EJ    GGBR4       010VISTA          000000000031500000000320000000003100000000000000000000310000025334500
0202LOTE PADRAO                   BRASIL      ON *       BBAS3       010VISTA          000000000011800000000121000000001180000000000000000000119000048424100
