00BDIN9999BOVESPA 99992003072920030729
0101IBOVESPA                      0136520135770137040000000000000000002003072900000020030729013623000000
0202LOTE PADRAO                   EMBRATEL PARPN *       EBTP4       010VISTA          000000000006000000000060000000000579000000000000000000058000284345000
0202LOTE PADRAO                   TRAN PAULISTPN * EJ    TRPL4       010VISTA          000000000007400000000075000000000740000000000000000000075000008766900
0202LOTE PADRAO                   EMBRATEL PARON *       EBTP3       010VISTA          000000000006600000000067000000000650000000000000000000065000026198800
0202LOTE PADRAO                   TELEMAR     PN * EJ    TNLP4       010VISTA          000000000032300000000334000000003220000000000000000000332000262674000
0202LOTE PADRAO                   ITAUBANCO   PN * EJ    ITAU4       010VISTA          000000000213900000002140000000021000000000000000000002105000009397200
0202LOTE PADRAO                   TELEMAR     ON * EJ    TNLP3       010VISTA          000000000023500000000244000000002330000000000000000000244000024899700
0202LOTE PADRAO                   SID NACIONALON *       CSNA3       010VISTA          000000000077000000000787000000007660000000000000000000782000026533300
0202LOTE PADRAO                   TELE LEST CLPN *       TLCP4       010VISTA          000000000000420000000004200000000040000000000000000000004200114700000
0202LOTE PADRAO                   CRT CELULAR PNA* EJ    CRTP5       010VISTA          000000000364900000003700000000035600000000000000000003670000001248800
0202LOTE PADRAO                   IPIRANGA PETPN *       PTIP4       010VISTA          000000000010800000000109000000001070000000000000000000107500004541600
0202LOTE PADRAO                   BRASIL T PARPN *       BRTP4       010VISTA          000000000020000000000201000000001980000000000000000000199000052679400
0202LOTE PADRAO                   BRASIL T PARON *       BRTP3       010VISTA          000000000015100000000151000000001490000000000000000000149000014999900
0202LOTE PADRAO                   KLABIN S/A  PN         KLBN4       010VISTA          000000000002800000000029000000000280000000000000000000028000000156400
0202LOTE PADRAO                   ACESITA     PN *       ACES4       010VISTA          000000000001300000000013000000000130000000000000000000013000089355700
0202LOTE PADRAO                   PETROBRAS   PN         PETR4       010VISTA          000000000056600000000573000000005600000000000000000000567000000095000
0202LOTE PADRAO                   ELETROBRAS  PNB*       ELET6       010VISTA          000000000023800000000238000000002330000000000000000000233000056984500
0202LOTE PADRAO                   PETROBRAS   ON         PETR3       010VISTA          000000000060000000000613000000006000000000000000000000611000000027000
0202LOTE PADRAO                   COMGAS      PNA*       CGAS5       010VISTA          000000000070000000000702000000006950000000000000000000700000001526300
0202LOTE PADRAO                   SOUZA CRUZ  ON EJ      CRUZ3       010VISTA          000000000023100000000231000000002250000000000000000000227500000015000
0202LOTE PADRAO                   ELETROBRAS  ON *       ELET3       010VISTA          000000000021200000000212000000002050000000000000000000205000015907000
0202LOTE PADRAO                   CELESC      PNB        CLSC6       010VISTA          000000000000450000000004500000000043000000000000000000004400000552800
0202LOTE PADRAO                   BRADESCO    PN * EJ    BBDC4       010VISTA          000000000011900000000120000000001180000000000000000000119000197268000
0202LOTE PADRAO                   CESP        PN *       CESP4       010VISTA          000000000007100000000071000000000700000000000000000000070000004192500
0202LOTE PADRAO                   LIGHT       ON *       LIGH3       010VISTA          000000000025500000000255000000002510000000000000000000251000000908100
0202LOTE PADRAO                   TELESP CL PAPN *       TSPP4       010VISTA          000000000004400000000044000000000430000000000000000000043000197620000
0202LOTE PADRAO                   VALE R DOCE PNA        VALE5       010VISTA          000000000089900000000909000000008990000000000000000000905000000038500
0202LOTE PADRAO                   COPEL       PNB*       CPLE6       010VISTA          000000000008400000000084000000000800000000000000000000081000086398300
0202LOTE PADRAO                   VALE R DOCE ON         VALE3       010VISTA          000000000098500000000995000000009820000000000000000000989000000024600
0202LOTE PADRAO                   ARACRUZ     PNB        ARCZ6       010VISTA          000000000007200000000074000000000720000000000000000000073000000059500
0202LOTE PADRAO                   TELEMIG PARTPN *       TMCP4       010VISTA          000000000003000000000031000000000300000000000000000000030000081412400
0202LOTE PADRAO                   BRASIL TELECPN *       BRTO4       010VISTA          000000000012100000000121000000001180000000000000000000119000079609000
0202LOTE PADRAO                   SABESP      ON *       SBSP3       010VISTA          000000000113900000001145000000011120000000000000000001139000004475400
0202LOTE PADRAO                   BRASKEM     PNA*       BRKM5       010VISTA          000000000436100000004394000000043550000000000000000004390000000361900
0202LOTE PADRAO                   EMBRAER     PN EJ      EMBR4       010VISTA          000000000013500000000135000000001300000000000000000000130000000114400
0202LOTE PADRAO                   TELESP      PN * EJ    TLPP4       010VISTA          000000000031000000000316000000003070000000000000000000315000012073100
0202LOTE PADRAO                   EMBRAER     ON EJ      EMBR3       010VISTA          000000000010600000000106000000001030000000000000000000105000000012400
0202LOTE PADRAO                   AMBEV       PN *       AMBV4       010VISTA          000000000593000000005999000000058600000000000000000005860000001427500
0202LOTE PADRAO                   USIMINAS    PNA        USIM5       010VISTA          000000000015600000000158000000001500000000000000000000153000000062900
0202LOTE PADRAO                   ELETROPAULO PN *       ELPL4       010VISTA          000000000024800000000249000000002375000000000000000000238000004183700
0202LOTE PADRAO                   TELE NORD CLPN *       TNEP4       010VISTA          000000000002300000000023000000000230000000000000000000023000111224000
0202LOTE PADRAO                   CEMIG       PN * EJ    CMIG4       010VISTA          000000000027500000000276000000002710000000000000000000271000047068200
0202LOTE PADRAO                   TELE CL SUL PN * EJ    TCSL4       010VISTA          000000000002300000000023000000000220000000000000000000022000112280000
0202LOTE PADRAO                   TRACTEBEL   ON *       TBLE3       010VISTA          000000000006900000000072000000000690000000000000000000069000002897900
0202LOTE PADRAO                   CEMIG       ON * EJ    CMIG3       010VISTA          000000000021500000000216000000002110000000000000000000216000000897600
0202LOTE PADRAO                   TELE CL SUL ON * EJ    TCSL3       010VISTA          000000000002100000000021000000000210000000000000000000021000017320200
0202LOTE PADRAO                   ITAUSA      PN         ITSA4       010VISTA          000000000002500000000025200000000240000000000000000000024000000232000
0202LOTE PADRAO                   V C P       PN *       VCPA4       010VISTA          000000000135000000001390000000013500000000000000000001385000005620400
0202LOTE PADRAO                   SID TUBARAO PN *       CSTB4       010VISTA          000000000057700000000579000000005630000000000000000000570000006443900
0202LOTE PADRAO                   BRADESPAR   PN *       BRAP4       010VISTA          000000000000670000000006800000000066000000000000000000006800317037000
0202LOTE PADRAO                   NET         PN         PLIM4       010VISTA          000000000000320000000003200000000030000000000000000000003100000320700
0202LOTE PADRAO                   TELE CTR OESPN * EJ    TCOC4       010VISTA          000000000005300000000054000000000520000000000000000000054000065207100
0202LOTE PADRAO                   TELEMAR N L PNA* EJ    TMAR5       010VISTA          000000000039700000000399000000003940000000000000000000396000029038500
0202LOTE PADRAO                   GERDAU      PN * EJ    GGBR4       010VISTA          000000000034900000000353000000003420000000000000000000345000000046500
0202LOTE PADRAO                   BRASIL      ON *       BBAS3       010VISTA          000000000014300000000143000000001400000000000000000000140000015605600
