00BDIN9999BOVESPA 99992003060220030602
0101IBOVESPA                      0134410132120135050000000000000000002003060200000020030602013229000000
0202LOTE PADRAO                   EMBRATEL PARPN *       EBTP4       010VISTA          000000000005700000000057000000000540000000000000000000054000367467000
0202LOTE PADRAO                   TRAN PAULISTPN * EJ    TRPL4       010VISTA          000000000007400000000075000000000710000000000000000000074000038861900
0202LOTE PADRAO                   EMBRATEL PARON *       EBTP3       010VISTA          000000000006400000000065400000000625000000000000000000062000043198100
0202LOTE PADRAO                   TELEMAR     PN * EJ    TNLP4       010VISTA          000000000035700000000359000000003400000000000000000000343000415592000
0202LOTE PADRAO                   ITAUBANCO   PN * EJ    ITAU4       010VISTA          000000000200000000002010000000019750000000000000000001990000013169000
0202LOTE PADRAO                   TELEMAR     ON * EJ    TNLP3       010VISTA          000000000025500000000260000000002460000000000000000000246000022898000
0202LOTE PADRAO                   SID NACIONALON *       CSNA3       010VISTA          000000000057100000000571000000005540000000000000000000560000023948400
0202LOTE PADRAO                   TELE LEST CLPN *       TLCP4       010VISTA          000000000000440000000004500000000044000000000000000000004400118714000
0202LOTE PADRAO                   CRT CELULAR PNA* EJ    CRTP5       010VISTA          000000000330000000003330000000032400000000000000000003240000001205500
0202LOTE PADRAO                   IPIRANGA PETPN *       PTIP4       010VISTA          000000000008100000000083000000000800000000000000000000081000011710800
0202LOTE PADRAO                   BRASIL T PARPN *       BRTP4       010VISTA          000000000021750000000223000000002160000000000000000000217000073376400
0202LOTE PADRAO                   BRASIL T PARON *       BRTP3       010VISTA          000000000016300000000168000000001625000000000000000000166000004868000
0202LOTE PADRAO                   KLABIN S/A  PN         KLBN4       010VISTA          000000000002750000000028000000000260000000000000000000027500000492900
0202LOTE PADRAO                   ACESITA     PN *       ACES4       010VISTA          000000000001400000000014000000000140000000000000000000014000144786000
0202LOTE PADRAO                   PETROBRAS   PN         PETR4       010VISTA          000000000052600000000533000000005230000000000000000000524000000093700
0202LOTE PADRAO                   ELETROBRAS  PNB*       ELET6       010VISTA          000000000025100000000256000000002500000000000000000000250000045983700
0202LOTE PADRAO                   PETROBRAS   ON         PETR3       010VISTA          000000000057600000000578000000005670000000000000000000572000000053100
0202LOTE PADRAO                   COMGAS      PNA*       CGAS5       010VISTA          000000000060400000000631000000006000000000000000000000620000003146400
0202LOTE PADRAO                   SOUZA CRUZ  ON EJ      CRUZ3       010VISTA          000000000020300000000209000000001980000000000000000000209000000017300
0202LOTE PADRAO                   ELETROBRAS  ON *       ELET3       010VISTA          000000000023000000000233000000002260000000000000000000229000017132500
0202LOTE PADRAO                   CELESC      PNB        CLSC6       010VISTA          000000000000500000000005100000000049000000000000000000004900000084400
0202LOTE PADRAO                   BRADESCO    PN * EJ    BBDC4       010VISTA          000000000011900000000119000000001160000000000000000000117000338972000
0202LOTE PADRAO                   CESP        PN *       CESP4       010VISTA          000000000008300000000083000000000800000000000000000000080000006982800
0202LOTE PADRAO                   LIGHT       ON *       LIGH3       010VISTA          000000000027600000000281000000002760000000000000000000276000000456500
0202LOTE PADRAO                   TELESP CL PAPN *       TSPP4       010VISTA          000000000004800000000048000000000460000000000000000000046000419342000
0202LOTE PADRAO                   VALE R DOCE PNA        VALE5       010VISTA          000000000083000000000838000000008120000000000000000000812000000040600
0202LOTE PADRAO                   COPEL       PNB*       CPLE6       010VISTA          000000000009800000000100000000000960000000000000000000096000036637800
0202LOTE PADRAO                   VALE R DOCE ON         VALE3       010VISTA          000000000087500000000890000000008690000000000000000000875000000029800
0202LOTE PADRAO                   ARACRUZ     PNB        ARCZ6       010VISTA          000000000005900000000061000000000580000000000000000000060000000086300
0202LOTE PADRAO                   TELEMIG PARTPN *       TMCP4       010VISTA          000000000002800000000028000000000270000000000000000000028000134148000
0202LOTE PADRAO                   BRASIL TELECPN *       BRTO4       010VISTA          000000000012900000000130000000001280000000000000000000128000138994000
0202LOTE PADRAO                   SABESP      ON *       SBSP3       010VISTA          000000000107600000001092000000010730000000000000000001082000001689700
0202LOTE PADRAO                   BRASKEM     PNA*       BRKM5       010VISTA          000000000360500000003605000000034500000000000000000003510000001010400
0202LOTE PADRAO                   EMBRAER     PN EJ      EMBR4       010VISTA          000000000011000000000111000000001080000000000000000000110000000061700
0202LOTE PADRAO                   TELESP      PN * EJ    TLPP4       010VISTA          000000000031700000000322000000003080000000000000000000308000022430800
0202LOTE PADRAO                   EMBRAER     ON EJ      EMBR3       010VISTA          000000000009000000000091000000000890000000000000000000090000000009200
0202LOTE PADRAO                   AMBEV       PN *       AMBV4       010VISTA          000000000591100000005955000000058200000000000000000005820000003128000
0202LOTE PADRAO                   USIMINAS    PNA        USIM5       010VISTA          000000000010900000000110000000001070000000000000000000109000000055600
0202LOTE PADRAO                   ELETROPAULO PN *       ELPL4       010VISTA          000000000025900000000263000000002550000000000000000000260000006557800
0202LOTE PADRAO                   TELE NORD CLPN *       TNEP4       010VISTA          000000000002500000000025400000000240000000000000000000024000061336100
0202LOTE PADRAO                   CEMIG       PN * EJ    CMIG4       010VISTA          000000000030250000000303000000002910000000000000000000293000057293900
0202LOTE PADRAO                   TELE CL SUL PN * EJ    TCSL4       010VISTA          000000000002600000000026000000000250000000000000000000026000033033500
0202LOTE PADRAO                   TRACTEBEL   ON *       TBLE3       010VISTA          000000000005000000000054000000000500000000000000000000054000054406100
0202LOTE PADRAO                   CEMIG       ON * EJ    CMIG3       010VISTA          000000000023400000000236000000002330000000000000000000233000000822400
0202LOTE PADRAO                   TELE CL SUL ON * EJ    TCSL3       010VISTA          000000000002300000000024000000000230000000000000000000023000018501700
0202LOTE PADRAO                   ITAUSA      PN         ITSA4       010VISTA          000000000002400000000025000000000230000000000000000000023000000487600
0202LOTE PADRAO                   V C P       PN *       VCPA4       010VISTA          000000000111700000001139000000011000000000000000000001130000007548300
0202LOTE PADRAO                   SID TUBARAO PN *       CSTB4       010VISTA          000000000046500000000477000000004550000000000000000000477000026908200
0202LOTE PADRAO                   BRADESPAR   PN *       BRAP4       010VISTA          000000000000650000000006600000000065000000000000000000006500138505000
0202LOTE PADRAO                   NET         PN         PLIM4       010VISTA          000000000000360000000003600000000034000000000000000000003500000434400
0202LOTE PADRAO                   TELE CTR OESPN * EJ    TCOC4       010VISTA          000000000005800000000058000000000560000000000000000000057000061362900
0202LOTE PADRAO                   TELEMAR N L PNA* EJ    TMAR5       010VISTA          000000000044100000000441000000004160000000000000000000416000031171200
0202LOTE PADRAO                   GERDAU      PN * EJ    GGBR4       010VISTA          000000000030300000000303000000002925000000000000000000293000000018100
0202LOTE PADRAO                   BRASIL      ON *       BBAS3       010VISTA          000000000015300000000163000000001480000000000000000000158000042510300
