00BDIN9999BOVESPA 99992003063020030630
0101IBOVESPA                      0130270129300130660000000000000000002003063000000020030630012973000000
0202LOTE PADRAO                   EMBRATEL PARPN *       EBTP4       010VISTA          000000000005800000000058000000000570000000000000000000057000211508000
0202LOTE PADRAO                   TRAN PAULISTPN * EJ    TRPL4       010VISTA          000000000006700000000067000000000650000000000000000000066000021548000
0202LOTE PADRAO                   EMBRATEL PARON *       EBTP3       010VISTA          000000000006200000000062000000000600000000000000000000062000029602200
0202LOTE PADRAO                   TELEMAR     PN * EJ    TNLP4       010VISTA          000000000033250000000333000000003280000000000000000000331000169853000
0202LOTE PADRAO                   ITAUBANCO   PN * EJ    ITAU4       010VISTA          000000000192900000001930000000019000000000000000000001905000004929200
0202LOTE PADRAO                   TELEMAR     ON * EJ    TNLP3       010VISTA          000000000023700000000243000000002340000000000000000000241000019757300
0202LOTE PADRAO                   SID NACIONALON *       CSNA3       010VISTA          000000000071300000000713000000006990000000000000000000702000020207800
0202LOTE PADRAO                   TELE LEST CLPN *       TLCP4       010VISTA          000000000000440000000004400000000043000000000000000000004400058960700
0202LOTE PADRAO                   CRT CELULAR PNA* EJ    CRTP5       010VISTA          000000000340000000003409000000033200000000000000000003390000000238300
0202LOTE PADRAO                   IPIRANGA PETPN *       PTIP4       010VISTA          000000000009100000000093000000000910000000000000000000091000009765800
0202LOTE PADRAO                   BRASIL T PARPN *       BRTP4       010VISTA          000000000021400000000220000000002110000000000000000000211000021987500
0202LOTE PADRAO                   BRASIL T PARON *       BRTP3       010VISTA          000000000015900000000159000000001550000000000000000000158000006718900
0202LOTE PADRAO                   KLABIN S/A  PN         KLBN4       010VISTA          000000000002900000000029000000000280000000000000000000029000000129300
0202LOTE PADRAO                   ACESITA     PN *       ACES4       010VISTA          000000000001400000000014700000000140000000000000000000014700105526000
0202LOTE PADRAO                   PETROBRAS   PN         PETR4       010VISTA          000000000050400000000514000000005020000000000000000000508000000115800
0202LOTE PADRAO                   ELETROBRAS  PNB*       ELET6       010VISTA          000000000022400000000228000000002190000000000000000000219000030962900
0202LOTE PADRAO                   PETROBRAS   ON         PETR3       010VISTA          000000000054400000000561000000005440000000000000000000556000000017500
0202LOTE PADRAO                   COMGAS      PNA*       CGAS5       010VISTA          000000000063900000000640000000006220000000000000000000637500000745000
0202LOTE PADRAO                   SOUZA CRUZ  ON EJ      CRUZ3       010VISTA          000000000024400000000244000000002360000000000000000000236000000010200
0202LOTE PADRAO                   ELETROBRAS  ON *       ELET3       010VISTA          000000000019800000000200000000001975000000000000000000197000010634500
0202LOTE PADRAO                   CELESC      PNB        CLSC6       010VISTA          000000000000450000000004600000000044000000000000000000004600000405100
0202LOTE PADRAO                   BRADESCO    PN * EJ    BBDC4       010VISTA          000000000010800000000108000000001060000000000000000000106000148248000
0202LOTE PADRAO                   CESP        PN *       CESP4       010VISTA          000000000007000000000070000000000680000000000000000000069000008205000
0202LOTE PADRAO                   LIGHT       ON *       LIGH3       010VISTA          000000000027000000000270000000002575000000000000000000258000000680400
0202LOTE PADRAO                   TELESP CL PAPN *       TSPP4       010VISTA          000000000004400000000044000000000420000000000000000000044000308012000
0202LOTE PADRAO                   VALE R DOCE PNA        VALE5       010VISTA          000000000079900000000799000000007820000000000000000000782000000009700
0202LOTE PADRAO                   COPEL       PNB*       CPLE6       010VISTA          000000000008600000000086000000000820000000000000000000082000089171100
0202LOTE PADRAO                   VALE R DOCE ON         VALE3       010VISTA          000000000085200000000860000000008400000000000000000000840000000002900
0202LOTE PADRAO                   ARACRUZ     PNB        ARCZ6       010VISTA          000000000006000000000061000000000590000000000000000000059000000039600
0202LOTE PADRAO                   TELEMIG PARTPN *       TMCP4       010VISTA          000000000003000000000030000000000290000000000000000000029800051199700
0202LOTE PADRAO                   BRASIL TELECPN *       BRTO4       010VISTA          000000000013000000000131000000001250000000000000000000128000106643000
0202LOTE PADRAO                   SABESP      ON *       SBSP3       010VISTA          000000000100900000001070000000010000000000000000000001030000004518000
0202LOTE PADRAO                   BRASKEM     PNA*       BRKM5       010VISTA          000000000376000000003829000000036700000000000000000003738000000039200
0202LOTE PADRAO                   EMBRAER     PN EJ      EMBR4       010VISTA          000000000013800000000139000000001340000000000000000000134000000018600
0202LOTE PADRAO                   TELESP      PN * EJ    TLPP4       010VISTA          000000000033000000000331000000003270000000000000000000330000007497800
0202LOTE PADRAO                   EMBRAER     ON EJ      EMBR3       010VISTA          000000000010900000000109000000001040000000000000000000104000000010300
0202LOTE PADRAO                   AMBEV       PN *       AMBV4       010VISTA          000000000590000000005900000000057900000000000000000005800000001145500
0202LOTE PADRAO                   USIMINAS    PNA        USIM5       010VISTA          000000000012750000000131000000001250000000000000000000131000000049500
0202LOTE PADRAO                   ELETROPAULO PN *       ELPL4       010VISTA          000000000023800000000243000000002330000000000000000000240000005837400
0202LOTE PADRAO                   TELE NORD CLPN *       TNEP4       010VISTA          000000000002300000000023000000000220000000000000000000023000032348900
0202LOTE PADRAO                   CEMIG       PN * EJ    CMIG4       010VISTA          000000000026500000000266000000002610000000000000000000263000042456300
0202LOTE PADRAO                   TELE CL SUL PN * EJ    TCSL4       010VISTA          000000000002300000000024000000000230000000000000000000023000094204600
0202LOTE PADRAO                   TRACTEBEL   ON *       TBLE3       010VISTA          000000000007100000000072000000000700000000000000000000072000007176000
0202LOTE PADRAO                   CEMIG       ON * EJ    CMIG3       010VISTA          000000000021000000000215000000002070000000000000000000211000000870400
0202LOTE PADRAO                   TELE CL SUL ON * EJ    TCSL3       010VISTA          000000000002100000000021000000000200000000000000000000021000067062900
0202LOTE PADRAO                   ITAUSA      PN         ITSA4       010VISTA          000000000002300000000023000000000225000000000000000000022500000184500
0202LOTE PADRAO                   V C P       PN *       VCPA4       010VISTA          000000000111000000001119000000010950000000000000000001100000001224400
0202LOTE PADRAO                   SID TUBARAO PN *       CSTB4       010VISTA          000000000049200000000504000000004920000000000000000000498000004304700
0202LOTE PADRAO                   BRADESPAR   PN *       BRAP4       010VISTA          000000000000620000000006300000000062000000000000000000006300041874200
0202LOTE PADRAO                   NET         PN         PLIM4       010VISTA          000000000000290000000002900000000028000000000000000000002900000282700
0202LOTE PADRAO                   TELE CTR OESPN * EJ    TCOC4       010VISTA          000000000005300000000055000000000520000000000000000000054000082884800
0202LOTE PADRAO                   TELEMAR N L PNA* EJ    TMAR5       010VISTA          000000000038700000000393000000003800000000000000000000393000014553500
0202LOTE PADRAO                   GERDAU      PN * EJ    GGBR4       010VISTA          000000000033200000000332000000003260000000000000000000329000000020100
0202LOTE PADRAO                   BRASIL      ON *       BBAS3       010VISTA          000000000013100000000131000000001250000000000000000000130000021423800
