00BDIN9999BOVESPA 99992003081320030813
0101IBOVESPA                      0135970135420138580000000000000000002003081300000020030813013682000000
0202LOTE PADRAO                   EMBRATEL PARPN *       EBTP4       010VISTA          000000000005700000000059000000000560000000000000000000057000770744000
0202LOTE PADRAO                   TRAN PAULISTPN * EJ    TRPL4       010VISTA          000000000007500000000079000000000750000000000000000000079000026480600
0202LOTE PADRAO                   EMBRATEL PARON *       EBTP3       010VISTA          000000000006200000000063000000000600000000000000000000062000064548000
0202LOTE PADRAO                   TELEMAR     PN * EJ    TNLP4       010VISTA          000000000032100000000328000000003200000000000000000000322000420310000
0202LOTE PADRAO                   ITAUBANCO   PN * EJ    ITAU4       010VISTA          000000000208000000002105000000020600000000000000000002070000015344900
0202LOTE PADRAO                   TELEMAR     ON * EJ    TNLP3       010VISTA          000000000023500000000245000000002350000000000000000000237500016628700
0202LOTE PADRAO                   SID NACIONALON *       CSNA3       010VISTA          000000000084500000000879000000008450000000000000000000873000038304200
0202LOTE PADRAO                   TELE LEST CLPN *       TLCP4       010VISTA          000000000000410000000004200000000039000000000000000000004200380973000
0202LOTE PADRAO                   CRT CELULAR PNA* EJ    CRTP5       010VISTA          000000000360000000003689000000036000000000000000000003668000001071300
0202LOTE PADRAO                   IPIRANGA PETPN *       PTIP4       010VISTA          000000000010200000000106000000001010000000000000000000103000017232000
0202LOTE PADRAO                   BRASIL T PARPN *       BRTP4       010VISTA          000000000020500000000206000000002000000000000000000000202500066607200
0202LOTE PADRAO                   BRASIL T PARON *       BRTP3       010VISTA          000000000015500000000159000000001550000000000000000000158000020064700
0202LOTE PADRAO                   KLABIN S/A  PN         KLBN4       010VISTA          000000000002800000000028000000000280000000000000000000028000000142500
0202LOTE PADRAO                   ACESITA     PN *       ACES4       010VISTA          000000000001300000000013000000000130000000000000000000013000293868000
0202LOTE PADRAO                   PETROBRAS   PN         PETR4       010VISTA          000000000058100000000586000000005780000000000000000000582000000130900
0202LOTE PADRAO                   ELETROBRAS  PNB*       ELET6       010VISTA          000000000021500000000219000000002110000000000000000000213000145074000
0202LOTE PADRAO                   PETROBRAS   ON         PETR3       010VISTA          000000000061500000000625000000006150000000000000000000618000000060800
0202LOTE PADRAO                   COMGAS      PNA*       CGAS5       010VISTA          000000000072200000000749000000007000000000000000000000732000005779000
0202LOTE PADRAO                   SOUZA CRUZ  ON EJ      CRUZ3       010VISTA          000000000022500000000236000000002250000000000000000000233000000027700
0202LOTE PADRAO                   ELETROBRAS  ON *       ELET3       010VISTA          000000000019000000000192000000001850000000000000000000188000034133200
0202LOTE PADRAO                   CELESC      PNB        CLSC6       010VISTA          000000000000430000000004400000000042000000000000000000004400000735000
0202LOTE PADRAO                   BRADESCO    PN * EJ    BBDC4       010VISTA          000000000011600000000118000000001150000000000000000000116000218876000
0202LOTE PADRAO                   CESP        PN *       CESP4       010VISTA          000000000006800000000070000000000670000000000000000000069000017797900
0202LOTE PADRAO                   LIGHT       ON *       LIGH3       010VISTA          000000000024000000000249000000002330000000000000000000247500001594600
0202LOTE PADRAO                   TELESP CL PAPN *       TSPP4       010VISTA          000000000004100000000042000000000400000000000000000000041000610014000
0202LOTE PADRAO                   VALE R DOCE PNA        VALE5       010VISTA          000000000097000000000975000000009650000000000000000000966000000034300
0202LOTE PADRAO                   COPEL       PNB*       CPLE6       010VISTA          000000000008400000000085000000000825000000000000000000085000138936000
0202LOTE PADRAO                   VALE R DOCE ON         VALE3       010VISTA          000000000105500000001069000000010500000000000000000001054000000013200
0202LOTE PADRAO                   ARACRUZ     PNB        ARCZ6       010VISTA          000000000007540000000078000000000750000000000000000000077000000113500
0202LOTE PADRAO                   TELEMIG PARTPN *       TMCP4       010VISTA          000000000002800000000030000000000280000000000000000000029800153533000
0202LOTE PADRAO                   BRASIL TELECPN *       BRTO4       010VISTA          000000000012250000000124000000001200000000000000000000121000126574000
0202LOTE PADRAO                   SABESP      ON *       SBSP3       010VISTA          000000000104900000001120000000010490000000000000000001087000008317000
0202LOTE PADRAO                   BRASKEM     PNA*       BRKM5       010VISTA          000000000437000000004490000000043000000000000000000004489000000740100
0202LOTE PADRAO                   EMBRAER     PN EJ      EMBR4       010VISTA          000000000013400000000139000000001340000000000000000000135000000116300
0202LOTE PADRAO                   TELESP      PN * EJ    TLPP4       010VISTA          000000000030000000000300000000002930000000000000000000296000012255700
0202LOTE PADRAO                   EMBRAER     ON EJ      EMBR3       010VISTA          000000000010500000000109000000001050000000000000000000108000000027100
0202LOTE PADRAO                   AMBEV       PN *       AMBV4       010VISTA          000000000586000000005899000000057190000000000000000005780000006337500
0202LOTE PADRAO                   USIMINAS    PNA        USIM5       010VISTA          000000000016600000000176000000001650000000000000000000173000000210500
0202LOTE PADRAO                   ELETROPAULO PN *       ELPL4       010VISTA          000000000022300000000224000000002190000000000000000000223000013082000
0202LOTE PADRAO                   TELE NORD CLPN *       TNEP4       010VISTA          000000000002300000000023000000000220000000000000000000023000135347000
0202LOTE PADRAO                   CEMIG       PN * EJ    CMIG4       010VISTA          000000000027300000000274000000002660000000000000000000270000120790000
0202LOTE PADRAO                   TELE CL SUL PN * EJ    TCSL4       010VISTA          000000000002200000000022000000000220000000000000000000022000163034000
0202LOTE PADRAO                   TRACTEBEL   ON *       TBLE3       010VISTA          000000000007000000000077000000000700000000000000000000077000013731300
0202LOTE PADRAO                   CEMIG       ON * EJ    CMIG3       010VISTA          000000000020300000000221000000002030000000000000000000221000003355000
0202LOTE PADRAO                   TELE CL SUL ON * EJ    TCSL3       010VISTA          000000000001900000000020000000000190000000000000000000020000044230000
0202LOTE PADRAO                   ITAUSA      PN         ITSA4       010VISTA          000000000002520000000025000000000250000000000000000000025000000468800
0202LOTE PADRAO                   V C P       PN *       VCPA4       010VISTA          000000000137500000001429000000013750000000000000000001420000004611000
0202LOTE PADRAO                   SID TUBARAO PN *       CSTB4       010VISTA          000000000054000000000548000000005310000000000000000000532000017877300
0202LOTE PADRAO                   BRADESPAR   PN *       BRAP4       010VISTA          000000000000680000000007100000000068000000000000000000007000274436000
0202LOTE PADRAO                   NET         PN         PLIM4       010VISTA          000000000000320000000003400000000031000000000000000000003400001402900
0202LOTE PADRAO                   TELE CTR OESPN * EJ    TCOC4       010VISTA          000000000005100000000052000000000500000000000000000000051000158340000
0202LOTE PADRAO                   TELEMAR N L PNA* EJ    TMAR5       010VISTA          000000000039500000000398000000003850000000000000000000393000016483700
0202LOTE PADRAO                   GERDAU      PN * EJ    GGBR4       010VISTA          000000000035200000000379000000003520000000000000000000370000000059800
0202LOTE PADRAO                   BRASIL      ON *       BBAS3       010VISTA          000000000014800000000159000000001470000000000000000000156000066147500
