00BDIN9999BOVESPA 99992003052220030522
0101IBOVESPA                      0130310129710131730000000000000000002003052200000020030522013101000000
0202LOTE PADRAO                   EMBRATEL PARPN *       EBTP4       010VISTA          000000000004700000000048000000000470000000000000000000048000570964000
0202LOTE PADRAO                   TRAN PAULISTPN * EJ    TRPL4       010VISTA          000000000007600000000077000000000750000000000000000000077100003952200
0202LOTE PADRAO                   EMBRATEL PARON *       EBTP3       010VISTA          000000000005400000000055000000000520000000000000000000055000044752300
0202LOTE PADRAO                   TELEMAR     PN * EJ    TNLP4       010VISTA          000000000034600000000354000000003450000000000000000000352000367976000
0202LOTE PADRAO                   ITAUBANCO   PN * EJ    ITAU4       010VISTA          000000000201500000002016000000019850000000000000000002010000013288500
0202LOTE PADRAO                   TELEMAR     ON * EJ    TNLP3       010VISTA          000000000025300000000258000000002480000000000000000000256000023803000
0202LOTE PADRAO                   SID NACIONALON *       CSNA3       010VISTA          000000000058100000000586000000005760000000000000000000582000021511400
0202LOTE PADRAO                   TELE LEST CLPN *       TLCP4       010VISTA          000000000000440000000004500000000043000000000000000000004400061488200
0202LOTE PADRAO                   CRT CELULAR PNA* EJ    CRTP5       010VISTA          000000000338000000003399000000033300000000000000000003398000000662300
0202LOTE PADRAO                   IPIRANGA PETPN *       PTIP4       010VISTA          000000000008600000000089000000000850000000000000000000089000006936600
0202LOTE PADRAO                   BRASIL T PARPN *       BRTP4       010VISTA          000000000021300000000216000000002110000000000000000000211000096340300
0202LOTE PADRAO                   BRASIL T PARON *       BRTP3       010VISTA          000000000016100000000161000000001560000000000000000000158000004925300
0202LOTE PADRAO                   KLABIN S/A  PN         KLBN4       010VISTA          000000000002200000000025000000000220000000000000000000025000000157900
0202LOTE PADRAO                   ACESITA     PN *       ACES4       010VISTA          000000000001300000000013000000000130000000000000000000013000250011000
0202LOTE PADRAO                   PETROBRAS   PN         PETR4       010VISTA          000000000053400000000540000000005280000000000000000000537000000128700
0202LOTE PADRAO                   ELETROBRAS  PNB*       ELET6       010VISTA          000000000024100000000245000000002410000000000000000000243000044476100
0202LOTE PADRAO                   PETROBRAS   ON         PETR3       010VISTA          000000000058200000000590000000005700000000000000000000583000000020500
0202LOTE PADRAO                   COMGAS      PNA*       CGAS5       010VISTA          000000000055500000000590000000005550000000000000000000580000000811400
0202LOTE PADRAO                   SOUZA CRUZ  ON EJ      CRUZ3       010VISTA          000000000018500000000193000000001830000000000000000000191000000009600
0202LOTE PADRAO                   ELETROBRAS  ON *       ELET3       010VISTA          000000000022300000000228000000002210000000000000000000226000008511600
0202LOTE PADRAO                   CELESC      PNB        CLSC6       010VISTA          000000000000500000000005100000000049000000000000000000005000000081800
0202LOTE PADRAO                   BRADESCO    PN * EJ    BBDC4       010VISTA          000000000011800000000118000000001150000000000000000000115000255470000
0202LOTE PADRAO                   CESP        PN *       CESP4       010VISTA          000000000008500000000086000000000840000000000000000000084000004532000
0202LOTE PADRAO                   LIGHT       ON *       LIGH3       010VISTA          000000000029600000000296000000002830000000000000000000285000001373100
0202LOTE PADRAO                   TELESP CL PAPN *       TSPP4       010VISTA          000000000004500000000045000000000440000000000000000000045000426892000
0202LOTE PADRAO                   VALE R DOCE PNA        VALE5       010VISTA          000000000081800000000824000000008160000000000000000000819000000017700
0202LOTE PADRAO                   COPEL       PNB*       CPLE6       010VISTA          000000000009900000000103000000000980000000000000000000100000071312400
0202LOTE PADRAO                   VALE R DOCE ON         VALE3       010VISTA          000000000086500000000880000000008640000000000000000000864000000010700
0202LOTE PADRAO                   ARACRUZ     PNB        ARCZ6       010VISTA          000000000005500000000056000000000550000000000000000000055000000048900
0202LOTE PADRAO                   TELEMIG PARTPN *       TMCP4       010VISTA          000000000002750000000027700000000269000000000000000000026900034028700
0202LOTE PADRAO                   BRASIL TELECPN *       BRTO4       010VISTA          000000000012600000000129000000001250000000000000000000126000043186300
0202LOTE PADRAO                   SABESP      ON *       SBSP3       010VISTA          000000000104000000001050000000010300000000000000000001037500004626600
0202LOTE PADRAO                   BRASKEM     PNA*       BRKM5       010VISTA          000000000371200000003749000000036600000000000000000003700000000168500
0202LOTE PADRAO                   EMBRAER     PN EJ      EMBR4       010VISTA          000000000010600000000107000000001050000000000000000000105000000063100
0202LOTE PADRAO                   TELESP      PN * EJ    TLPP4       010VISTA          000000000031000000000310000000003030000000000000000000306000010258300
0202LOTE PADRAO                   EMBRAER     ON EJ      EMBR3       010VISTA          000000000008800000000090000000000870000000000000000000089000000010700
0202LOTE PADRAO                   AMBEV       PN *       AMBV4       010VISTA          000000000600000000006055000000058800000000000000000006050000000799200
0202LOTE PADRAO                   USIMINAS    PNA        USIM5       010VISTA          000000000010200000000102000000000980000000000000000000100000000054100
0202LOTE PADRAO                   ELETROPAULO PN *       ELPL4       010VISTA          000000000030100000000313000000002860000000000000000000291000009985800
0202LOTE PADRAO                   TELE NORD CLPN *       TNEP4       010VISTA          000000000002560000000025000000000250000000000000000000025000065959800
0202LOTE PADRAO                   CEMIG       PN * EJ    CMIG4       010VISTA          000000000031300000000315000000003060000000000000000000313000059613000
0202LOTE PADRAO                   TELE CL SUL PN * EJ    TCSL4       010VISTA          000000000002700000000027300000000260000000000000000000026900099073800
0202LOTE PADRAO                   TRACTEBEL   ON *       TBLE3       010VISTA          000000000004900000000051000000000490000000000000000000050000004187600
0202LOTE PADRAO                   CEMIG       ON * EJ    CMIG3       010VISTA          000000000024700000000249000000002410000000000000000000249000000391300
0202LOTE PADRAO                   TELE CL SUL ON * EJ    TCSL3       010VISTA          000000000002300000000024000000000230000000000000000000023000009750700
0202LOTE PADRAO                   ITAUSA      PN         ITSA4       010VISTA          000000000002300000000024000000000230000000000000000000024000000272800
0202LOTE PADRAO                   V C P       PN *       VCPA4       010VISTA          000000000101000000001019000000009960000000000000000001000000003527200
0202LOTE PADRAO                   SID TUBARAO PN *       CSTB4       010VISTA          000000000045500000000462000000004510000000000000000000458000007534000
0202LOTE PADRAO                   BRADESPAR   PN *       BRAP4       010VISTA          000000000000650000000006500000000063000000000000000000006400105328000
0202LOTE PADRAO                   NET         PN         PLIM4       010VISTA          000000000000350000000003500000000035000000000000000000003500000000000
0202LOTE PADRAO                   TELE CTR OESPN * EJ    TCOC4       010VISTA          000000000005500000000055000000000540000000000000000000055000113282000
0202LOTE PADRAO                   TELEMAR N L PNA* EJ    TMAR5       010VISTA          000000000042000000000420000000003990000000000000000000402500050013800
0202LOTE PADRAO                   GERDAU      PN * EJ    GGBR4       010VISTA          000000000030100000000301000000002930000000000000000000293000000020800
0202LOTE PADRAO                   BRASIL      ON *       BBAS3       010VISTA          000000000013800000000142000000001350000000000000000000138000029170900
