00BDIN9999BOVESPA 99992003022520030225
0101IBOVESPA                      0102310100220102310000000000000000002003022500000020030225010192000000
0202LOTE PADRAO                   EMBRATEL PARPN *       EBTP4       010VISTA          000000000003300000000034000000000325000000000000000000034000575135000
0202LOTE PADRAO                   TRAN PAULISTPN * EJ    TRPL4       010VISTA          000000000005300000000055400000000525000000000000000000055000010933400
0202LOTE PADRAO                   EMBRATEL PARON *       EBTP3       010VISTA          000000000004000000000040000000000380000000000000000000040000044720400
0202LOTE PADRAO                   TELEMAR     PN * EJ    TNLP4       010VISTA          000000000023800000000238000000002310000000000000000000236000544070000
0202LOTE PADRAO                   ITAUBANCO   PN * EJ    ITAU4       010VISTA          000000000149000000001520000000014760000000000000000001520000008551700
0202LOTE PADRAO                   TELEMAR     ON * EJ    TNLP3       010VISTA          000000000017000000000170000000001650000000000000000000168000055611600
0202LOTE PADRAO                   SID NACIONALON *       CSNA3       010VISTA          000000000058600000000600000000005860000000000000000000598000030572400
0202LOTE PADRAO                   TELE LEST CLPN *       TLCP4       010VISTA          000000000000380000000003900000000037000000000000000000003900134979000
0202LOTE PADRAO                   CRT CELULAR PNA* EJ    CRTP5       010VISTA          000000000298000000003030000000029000000000000000000003030000000690400
0202LOTE PADRAO                   IPIRANGA PETPN *       PTIP4       010VISTA          000000000006900000000070000000000670000000000000000000070000001191900
0202LOTE PADRAO                   BRASIL T PARPN *       BRTP4       010VISTA          000000000018300000000185000000001780000000000000000000183000064206600
0202LOTE PADRAO                   BRASIL T PARON *       BRTP3       010VISTA          000000000013300000000140000000001330000000000000000000140000007772000
0202LOTE PADRAO                   KLABIN S/A  PN         KLBN4       010VISTA          000000000001300000000013000000000127000000000000000000013000000067500
0202LOTE PADRAO                   ACESITA     PN *       ACES4       010VISTA          000000000001000000000011000000000100000000000000000000011000413745000
0202LOTE PADRAO                   PETROBRAS   PN         PETR4       010VISTA          000000000043000000000432000000004230000000000000000000426000000135900
0202LOTE PADRAO                   ELETROBRAS  PNB*       ELET6       010VISTA          000000000017300000000179000000001700000000000000000000175000060842400
0202LOTE PADRAO                   PETROBRAS   ON         PETR3       010VISTA          000000000048100000000481000000004700000000000000000000472000000039500
0202LOTE PADRAO                   COMGAS      PNA*       CGAS5       010VISTA          000000000044600000000446000000004360000000000000000000442000000500700
0202LOTE PADRAO                   SOUZA CRUZ  ON EJ      CRUZ3       010VISTA          000000000019000000000191000000001890000000000000000000191000000016300
0202LOTE PADRAO                   ELETROBRAS  ON *       ELET3       010VISTA          000000000016100000000169000000001560000000000000000000163000015589500
0202LOTE PADRAO                   CELESC      PNB        CLSC6       010VISTA          000000000000470000000004800000000046000000000000000000004800000121300
0202LOTE PADRAO                   BRADESCO    PN * EJ    BBDC4       010VISTA          000000000009600000000098000000000950000000000000000000098000144251000
0202LOTE PADRAO                   CESP        PN *       CESP4       010VISTA          000000000005700000000060000000000550000000000000000000060000007932700
0202LOTE PADRAO                   LIGHT       ON *       LIGH3       010VISTA          000000000030000000000300000000002850000000000000000000289000000377600
0202LOTE PADRAO                   TELESP CL PAPN *       TSPP4       010VISTA          000000000003200000000033000000000320000000000000000000033000368707000
0202LOTE PADRAO                   VALE R DOCE PNA        VALE5       010VISTA          000000000099200000000992000000009800000000000000000000992000000013700
0202LOTE PADRAO                   COPEL       PNB*       CPLE6       010VISTA          000000000007700000000078000000000750000000000000000000077500141650000
0202LOTE PADRAO                   VALE R DOCE ON         VALE3       010VISTA          000000000101800000001032000000010030000000000000000001029000000008700
0202LOTE PADRAO                   ARACRUZ     PNB        ARCZ6       010VISTA          000000000006500000000067000000000650000000000000000000066000000026400
0202LOTE PADRAO                   TELEMIG PARTPN *       TMCP4       010VISTA          000000000002400000000025600000000230000000000000000000025000102472000
0202LOTE PADRAO                   BRASIL TELECPN *       BRTO4       010VISTA          000000000010800000000109000000001050000000000000000000108000097095400
0202LOTE PADRAO                   SABESP      ON *       SBSP3       010VISTA          000000000077000000000779000000007500000000000000000000755000006441400
0202LOTE PADRAO                   BRASKEM     PNA*       BRKM5       010VISTA          000000000160000000001690000000016000000000000000000001689000000208000
0202LOTE PADRAO                   EMBRAER     PN EJ      EMBR4       010VISTA          000000000009300000000093000000000850000000000000000000085000000163100
0202LOTE PADRAO                   TELESP      PN * EJ    TLPP4       010VISTA          000000000032600000000329000000003200000000000000000000325000008747000
0202LOTE PADRAO                   EMBRAER     ON EJ      EMBR3       010VISTA          000000000008100000000083000000000750000000000000000000075000000014800
0202LOTE PADRAO                   AMBEV       PN *       AMBV4       010VISTA          000000000504000000005060000000050000000000000000000005010000001927900
0202LOTE PADRAO                   USIMINAS    PNA        USIM5       010VISTA          000000000007600000000077500000000740000000000000000000077500000029700
0202LOTE PADRAO                   ELETROPAULO PN *       ELPL4       010VISTA          000000000021900000000223000000002160000000000000000000223000009235000
0202LOTE PADRAO                   TELE NORD CLPN *       TNEP4       010VISTA          000000000002300000000023000000000230000000000000000000023000060762300
0202LOTE PADRAO                   CEMIG       PN * EJ    CMIG4       010VISTA          000000000022600000000229000000002210000000000000000000227500084581500
0202LOTE PADRAO                   TELE CL SUL PN * EJ    TCSL4       010VISTA          000000000002100000000022000000000210000000000000000000021000211792000
0202LOTE PADRAO                   TRACTEBEL   ON *       TBLE3       010VISTA          000000000002900000000029000000000290000000000000000000029000007925800
0202LOTE PADRAO                   CEMIG       ON * EJ    CMIG3       010VISTA          000000000019000000000197000000001900000000000000000000195000000402500
0202LOTE PADRAO                   TELE CL SUL ON * EJ    TCSL3       010VISTA          000000000001600000000016000000000150000000000000000000016000016271200
0202LOTE PADRAO                   ITAUSA      PN         ITSA4       010VISTA          000000000001790000000018000000000177000000000000000000017900000307100
0202LOTE PADRAO                   V C P       PN *       VCPA4       010VISTA          000000000128000000001329000000012800000000000000000001310000001929000
0202LOTE PADRAO                   SID TUBARAO PN *       CSTB4       010VISTA          000000000042100000000433000000004210000000000000000000432000005919600
0202LOTE PADRAO                   BRADESPAR   PN *       BRAP4       010VISTA          000000000000630000000006600000000062000000000000000000006600228559000
0202LOTE PADRAO                   NET         PN         PLIM4       010VISTA          000000000000290000000003000000000028000000000000000000003000000887500
0202LOTE PADRAO                   TELE CTR OESPN * EJ    TCOC4       010VISTA          000000000004100000000042500000000410000000000000000000042000219111000
0202LOTE PADRAO                   TELEMAR N L PNA* EJ    TMAR5       010VISTA          000000000036000000000365000000003500000000000000000000362000064944500
0202LOTE PADRAO                   GERDAU      PN * EJ    GGBR4       010VISTA          000000000033200000000332000000003220000000000000000000325000011237200
0202LOTE PADRAO                   BRASIL      ON *       BBAS3       010VISTA          000000000009400000000096000000000930000000000000000000095000027468600
