00BDIN9999BOVESPA 99992003080620030806
0101IBOVESPA                      0130600128390131880000000000000000002003080600000020030806012888000000
0202LOTE PADRAO                   EMBRATEL PARPN *       EBTP4       010VISTA          000000000005500000000056000000000510000000000000000000052000375842000
0202LOTE PADRAO                   TRAN PAULISTPN * EJ    TRPL4       010VISTA          000000000007100000000071000000000680000000000000000000070000022443600
0202LOTE PADRAO                   EMBRATEL PARON *       EBTP3       010VISTA          000000000006000000000061000000000550000000000000000000056000058237900
0202LOTE PADRAO                   TELEMAR     PN * EJ    TNLP4       010VISTA          000000000031500000000318000000003060000000000000000000310000257182000
0202LOTE PADRAO                   ITAUBANCO   PN * EJ    ITAU4       010VISTA          000000000209000000002090000000020200000000000000000002040000009562300
0202LOTE PADRAO                   TELEMAR     ON * EJ    TNLP3       010VISTA          000000000022800000000231000000002250000000000000000000228000022151200
0202LOTE PADRAO                   SID NACIONALON *       CSNA3       010VISTA          000000000078200000000789000000007600000000000000000000769000021409200
0202LOTE PADRAO                   TELE LEST CLPN *       TLCP4       010VISTA          000000000000410000000004100000000039000000000000000000004000253347000
0202LOTE PADRAO                   CRT CELULAR PNA* EJ    CRTP5       010VISTA          000000000364100000003641000000035500000000000000000003600000000393400
0202LOTE PADRAO                   IPIRANGA PETPN *       PTIP4       010VISTA          000000000010100000000103000000000990000000000000000000100000008783200
0202LOTE PADRAO                   BRASIL T PARPN *       BRTP4       010VISTA          000000000018800000000195000000001860000000000000000000194000078516700
0202LOTE PADRAO                   BRASIL T PARON *       BRTP3       010VISTA          000000000014200000000146000000001420000000000000000000145000021850400
0202LOTE PADRAO                   KLABIN S/A  PN         KLBN4       010VISTA          000000000002600000000027000000000260000000000000000000027000000028900
0202LOTE PADRAO                   ACESITA     PN *       ACES4       010VISTA          000000000001280000000013000000000128000000000000000000013000195092000
0202LOTE PADRAO                   PETROBRAS   PN         PETR4       010VISTA          000000000055000000000552000000005380000000000000000000545000000083000
0202LOTE PADRAO                   ELETROBRAS  PNB*       ELET6       010VISTA          000000000021900000000219000000002050000000000000000000205000065454700
0202LOTE PADRAO                   PETROBRAS   ON         PETR3       010VISTA          000000000058500000000589000000005760000000000000000000577000000022600
0202LOTE PADRAO                   COMGAS      PNA*       CGAS5       010VISTA          000000000071900000000719000000006920000000000000000000709000002059200
0202LOTE PADRAO                   SOUZA CRUZ  ON EJ      CRUZ3       010VISTA          000000000021900000000219000000002130000000000000000000218000000016700
0202LOTE PADRAO                   ELETROBRAS  ON *       ELET3       010VISTA          000000000018800000000191000000001775000000000000000000177500023670800
0202LOTE PADRAO                   CELESC      PNB        CLSC6       010VISTA          000000000000430000000004300000000041000000000000000000004100000218200
0202LOTE PADRAO                   BRADESCO    PN * EJ    BBDC4       010VISTA          000000000011300000000113000000001100000000000000000000111000209770000
0202LOTE PADRAO                   CESP        PN *       CESP4       010VISTA          000000000006400000000064000000000600000000000000000000061000012716200
0202LOTE PADRAO                   LIGHT       ON *       LIGH3       010VISTA          000000000023100000000231000000002230000000000000000000223000000565500
0202LOTE PADRAO                   TELESP CL PAPN *       TSPP4       010VISTA          000000000004100000000042500000000400000000000000000000041000354508000
0202LOTE PADRAO                   VALE R DOCE PNA        VALE5       010VISTA          000000000093500000000935000000009170000000000000000000920000000037800
0202LOTE PADRAO                   COPEL       PNB*       CPLE6       010VISTA          000000000008000000000081000000000770000000000000000000077900073308100
0202LOTE PADRAO                   VALE R DOCE ON         VALE3       010VISTA          000000000100500000001014000000010000000000000000000001005000000015800
0202LOTE PADRAO                   ARACRUZ     PNB        ARCZ6       010VISTA          000000000007100000000073000000000710000000000000000000072000000088100
0202LOTE PADRAO                   TELEMIG PARTPN *       TMCP4       010VISTA          000000000002800000000028000000000260000000000000000000027000136994000
0202LOTE PADRAO                   BRASIL TELECPN *       BRTO4       010VISTA          000000000011500000000117500000001130000000000000000000117500108540000
0202LOTE PADRAO                   SABESP      ON *       SBSP3       010VISTA          000000000103200000001050000000010050000000000000000001020000005468300
0202LOTE PADRAO                   BRASKEM     PNA*       BRKM5       010VISTA          000000000417500000004270000000041100000000000000000004205000000544200
0202LOTE PADRAO                   EMBRAER     PN EJ      EMBR4       010VISTA          000000000013000000000134000000001290000000000000000000132000000093300
0202LOTE PADRAO                   TELESP      PN * EJ    TLPP4       010VISTA          000000000029100000000291000000002860000000000000000000288000010715400
0202LOTE PADRAO                   EMBRAER     ON EJ      EMBR3       010VISTA          000000000010300000000104000000001000000000000000000000103000000023800
0202LOTE PADRAO                   AMBEV       PN *       AMBV4       010VISTA          000000000582100000005919000000057600000000000000000005919000002562700
0202LOTE PADRAO                   USIMINAS    PNA        USIM5       010VISTA          000000000014500000000148000000001430000000000000000000144000000095900
0202LOTE PADRAO                   ELETROPAULO PN *       ELPL4       010VISTA          000000000022900000000233000000002160000000000000000000216000008470000
0202LOTE PADRAO                   TELE NORD CLPN *       TNEP4       010VISTA          000000000002200000000022000000000220000000000000000000022000123335000
0202LOTE PADRAO                   CEMIG       PN * EJ    CMIG4       010VISTA          000000000026700000000269000000002560000000000000000000256000058855100
0202LOTE PADRAO                   TELE CL SUL PN * EJ    TCSL4       010VISTA          000000000002100000000021000000000200000000000000000000020000117616000
0202LOTE PADRAO                   TRACTEBEL   ON *       TBLE3       010VISTA          000000000007000000000070000000000690000000000000000000070000008543900
0202LOTE PADRAO                   CEMIG       ON * EJ    CMIG3       010VISTA          000000000020000000000203000000001940000000000000000000194000000646800
0202LOTE PADRAO                   TELE CL SUL ON * EJ    TCSL3       010VISTA          000000000001950000000019600000000180000000000000000000018000029722100
0202LOTE PADRAO                   ITAUSA      PN         ITSA4       010VISTA          000000000002400000000025000000000240000000000000000000024000000190700
0202LOTE PADRAO                   V C P       PN *       VCPA4       010VISTA          000000000133800000001338000000013220000000000000000001328000002986600
0202LOTE PADRAO                   SID TUBARAO PN *       CSTB4       010VISTA          000000000050000000000510000000004825000000000000000000482500021196000
0202LOTE PADRAO                   BRADESPAR   PN *       BRAP4       010VISTA          000000000000710000000007100000000067000000000000000000006700239267000
0202LOTE PADRAO                   NET         PN         PLIM4       010VISTA          000000000000300000000003100000000028000000000000000000002800000896400
0202LOTE PADRAO                   TELE CTR OESPN * EJ    TCOC4       010VISTA          000000000005000000000051000000000480000000000000000000049000090575400
0202LOTE PADRAO                   TELEMAR N L PNA* EJ    TMAR5       010VISTA          000000000038000000000385000000003750000000000000000000382000034112200
0202LOTE PADRAO                   GERDAU      PN * EJ    GGBR4       010VISTA          000000000033800000000338000000003300000000000000000000330000000018400
0202LOTE PADRAO                   BRASIL      ON *       BBAS3       010VISTA          000000000013600000000140000000001360000000000000000000139000032077800
