00BDIN9999BOVESPA 99992003010820030108
0101IBOVESPA                      0118750117570119280000000000000000002003010800000020030108011786000000
0202LOTE PADRAO                   EMBRATEL PARPN *       EBTP4       010VISTA          000000000004700000000049000000000450000000000000000000046000461203000
0202LOTE PADRAO                   TRAN PAULISTPN * EJ    TRPL4       010VISTA          000000000006000000000060000000000590000000000000000000059000003179000
0202LOTE PADRAO                   EMBRATEL PARON *       EBTP3       010VISTA          000000000005250000000052000000000500000000000000000000050000030912200
0202LOTE PADRAO                   TELEMAR     PN * EJ    TNLP4       010VISTA          000000000027900000000281000000002750000000000000000000276000186872000
0202LOTE PADRAO                   ITAUBANCO   PN * EJ    ITAU4       010VISTA          000000000172100000001725000000016850000000000000000001690000005136000
0202LOTE PADRAO                   TELEMAR     ON * EJ    TNLP3       010VISTA          000000000020300000000203000000002000000000000000000000200000028860000
0202LOTE PADRAO                   SID NACIONALON *       CSNA3       010VISTA          000000000051000000000527000000005100000000000000000000521000007191300
0202LOTE PADRAO                   TELE LEST CLPN *       TLCP4       010VISTA          000000000000480000000004900000000047000000000000000000004800053744200
0202LOTE PADRAO                   CRT CELULAR PNA* EJ    CRTP5       010VISTA          000000000354000000003540000000034600000000000000000003480000000388900
0202LOTE PADRAO                   IPIRANGA PETPN *       PTIP4       010VISTA          000000000008400000000085000000000840000000000000000000084000001277700
0202LOTE PADRAO                   BRASIL T PARPN *       BRTP4       010VISTA          000000000018300000000190000000001830000000000000000000188000020540100
0202LOTE PADRAO                   BRASIL T PARON *       BRTP3       010VISTA          000000000014900000000149000000001440000000000000000000144000005089500
0202LOTE PADRAO                   KLABIN S/A  PN         KLBN4       010VISTA          000000000001100000000011000000000110000000000000000000011000000009800
0202LOTE PADRAO                   ACESITA     PN *       ACES4       010VISTA          000000000000940000000009400000000092000000000000000000009300114875000
0202LOTE PADRAO                   PETROBRAS   PN         PETR4       010VISTA          000000000048200000000485000000004770000000000000000000482000000056500
0202LOTE PADRAO                   ELETROBRAS  PNB*       ELET6       010VISTA          000000000023000000000231000000002260000000000000000000228000037002000
0202LOTE PADRAO                   PETROBRAS   ON         PETR3       010VISTA          000000000053100000000537000000005300000000000000000000530000000012100
0202LOTE PADRAO                   COMGAS      PNA*       CGAS5       010VISTA          000000000056000000000562000000005510000000000000000000551000000431000
0202LOTE PADRAO                   SOUZA CRUZ  ON EJ      CRUZ3       010VISTA          000000000017600000000176000000001750000000000000000000176000000003600
0202LOTE PADRAO                   ELETROBRAS  ON *       ELET3       010VISTA          000000000023100000000231000000002280000000000000000000231000010168000
0202LOTE PADRAO                   CELESC      PNB        CLSC6       010VISTA          000000000000550000000005600000000054000000000000000000005400000488200
0202LOTE PADRAO                   BRADESCO    PN * EJ    BBDC4       010VISTA          000000000011000000000111000000001090000000000000000000110000129909000
0202LOTE PADRAO                   CESP        PN *       CESP4       010VISTA          000000000008400000000085000000000800000000000000000000081000031306800
0202LOTE PADRAO                   LIGHT       ON *       LIGH3       010VISTA          000000000047500000000488000000004720000000000000000000472000000453500
0202LOTE PADRAO                   TELESP CL PAPN *       TSPP4       010VISTA          000000000004900000000049000000000470000000000000000000047000340912000
0202LOTE PADRAO                   VALE R DOCE PNA        VALE5       010VISTA          000000000091500000000922000000009130000000000000000000922000000019700
0202LOTE PADRAO                   COPEL       PNB*       CPLE6       010VISTA          000000000009500000000095000000000930000000000000000000095000036686700
0202LOTE PADRAO                   VALE R DOCE ON         VALE3       010VISTA          000000000095500000000958000000009500000000000000000000955000000005000
0202LOTE PADRAO                   ARACRUZ     PNB        ARCZ6       010VISTA          000000000006200000000062000000000610000000000000000000061000000018300
0202LOTE PADRAO                   TELEMIG PARTPN *       TMCP4       010VISTA          000000000003100000000031000000000310000000000000000000031000037727300
0202LOTE PADRAO                   BRASIL TELECPN *       BRTO4       010VISTA          000000000012300000000123000000001190000000000000000000120000029124700
0202LOTE PADRAO                   SABESP      ON *       SBSP3       010VISTA          000000000098000000001049000000009750000000000000000001010000012681000
0202LOTE PADRAO                   BRASKEM     PNA*       BRKM5       010VISTA          000000000255000000002550000000025100000000000000000002529000000027700
0202LOTE PADRAO                   EMBRAER     PN EJ      EMBR4       010VISTA          000000000013300000000135000000001310000000000000000000135000000035300
0202LOTE PADRAO                   TELESP      PN * EJ    TLPP4       010VISTA          000000000035100000000351000000003320000000000000000000337500002197400
0202LOTE PADRAO                   EMBRAER     ON EJ      EMBR3       010VISTA          000000000012000000000120000000001190000000000000000000120000000022300
0202LOTE PADRAO                   AMBEV       PN *       AMBV4       010VISTA          000000000521000000005250000000051800000000000000000005240000000480400
0202LOTE PADRAO                   USIMINAS    PNA        USIM5       010VISTA          000000000007200000000072000000000710000000000000000000071000000026600
0202LOTE PADRAO                   ELETROPAULO PN *       ELPL4       010VISTA          000000000030000000000311000000002975000000000000000000311000008338900
0202LOTE PADRAO                   TELE NORD CLPN *       TNEP4       010VISTA          000000000002800000000028000000000270000000000000000000028100046763200
0202LOTE PADRAO                   CEMIG       PN * EJ    CMIG4       010VISTA          000000000025500000000260000000002530000000000000000000255000024405700
0202LOTE PADRAO                   TELE CL SUL PN * EJ    TCSL4       010VISTA          000000000002800000000028000000000270000000000000000000028000030563200
0202LOTE PADRAO                   TRACTEBEL   ON *       TBLE3       010VISTA          000000000003600000000036000000000350000000000000000000036000001020300
0202LOTE PADRAO                   CEMIG       ON * EJ    CMIG3       010VISTA          000000000023200000000233000000002310000000000000000000232500000373000
0202LOTE PADRAO                   TELE CL SUL ON * EJ    TCSL3       010VISTA          000000000002000000000020000000000200000000000000000000020000021798800
0202LOTE PADRAO                   ITAUSA      PN         ITSA4       010VISTA          000000000001950000000019500000000190000000000000000000019000000166800
0202LOTE PADRAO                   V C P       PN *       VCPA4       010VISTA          000000000119000000001190000000011800000000000000000001190000000249500
0202LOTE PADRAO                   SID TUBARAO PN *       CSTB4       010VISTA          000000000039300000000393000000003800000000000000000000382000008644000
0202LOTE PADRAO                   BRADESPAR   PN *       BRAP4       010VISTA          000000000000600000000006000000000058000000000000000000006000235891000
0202LOTE PADRAO                   NET         PN         PLIM4       010VISTA          000000000000460000000004800000000044000000000000000000004700001900100
0202LOTE PADRAO                   TELE CTR OESPN * EJ    TCOC4       010VISTA          000000000005300000000054000000000520000000000000000000053000046279400
0202LOTE PADRAO                   TELEMAR N L PNA* EJ    TMAR5       010VISTA          000000000046300000000468000000004570000000000000000000460000023877000
0202LOTE PADRAO                   GERDAU      PN * EJ    GGBR4       010VISTA          000000000032250000000323000000003210000000000000000000323000023442600
0202LOTE PADRAO                   BRASIL      ON *       BBAS3       010VISTA          000000000009900000000100000000000980000000000000000000100000011314800
