00BDIN9999BOVESPA 99992003052620030526
0101IBOVESPA                      0131490128520132390000000000000000002003052600000020030526012852000000
0202LOTE PADRAO                   EMBRATEL PARPN *       EBTP4       010VISTA          000000000005000000000053000000000500000000000000000000050000488165000
0202LOTE PADRAO                   TRAN PAULISTPN * EJ    TRPL4       010VISTA          000000000007200000000073000000000725000000000000000000072500005171800
0202LOTE PADRAO                   EMBRATEL PARON *       EBTP3       010VISTA          000000000005600000000059000000000560000000000000000000057500057857800
0202LOTE PADRAO                   TELEMAR     PN * EJ    TNLP4       010VISTA          000000000035500000000362000000003460000000000000000000346000235636000
0202LOTE PADRAO                   ITAUBANCO   PN * EJ    ITAU4       010VISTA          000000000203000000002071000000019680000000000000000001968000003861900
0202LOTE PADRAO                   TELEMAR     ON * EJ    TNLP3       010VISTA          000000000025500000000261000000002480000000000000000000251000018878200
0202LOTE PADRAO                   SID NACIONALON *       CSNA3       010VISTA          000000000056500000000570000000005600000000000000000000560000029825700
0202LOTE PADRAO                   TELE LEST CLPN *       TLCP4       010VISTA          000000000000430000000004400000000042000000000000000000004200276722000
0202LOTE PADRAO                   CRT CELULAR PNA* EJ    CRTP5       010VISTA          000000000339000000003390000000033300000000000000000003330000000164700
0202LOTE PADRAO                   IPIRANGA PETPN *       PTIP4       010VISTA          000000000008800000000090000000000860000000000000000000086000004984800
0202LOTE PADRAO                   BRASIL T PARPN *       BRTP4       010VISTA          000000000021200000000213000000002070000000000000000000208000030049500
0202LOTE PADRAO                   BRASIL T PARON *       BRTP3       010VISTA          000000000015500000000156000000001550000000000000000000155000007056300
0202LOTE PADRAO                   KLABIN S/A  PN         KLBN4       010VISTA          000000000002400000000024000000000227000000000000000000023000000096800
0202LOTE PADRAO                   ACESITA     PN *       ACES4       010VISTA          000000000001300000000013000000000130000000000000000000013000058383800
0202LOTE PADRAO                   PETROBRAS   PN         PETR4       010VISTA          000000000053500000000535000000005200000000000000000000520000000055800
0202LOTE PADRAO                   ELETROBRAS  PNB*       ELET6       010VISTA          000000000024200000000246000000002330000000000000000000233000024332300
0202LOTE PADRAO                   PETROBRAS   ON         PETR3       010VISTA          000000000056900000000573000000005600000000000000000000562000000022000
0202LOTE PADRAO                   COMGAS      PNA*       CGAS5       010VISTA          000000000056700000000572000000005600000000000000000000560000000383800
0202LOTE PADRAO                   SOUZA CRUZ  ON EJ      CRUZ3       010VISTA          000000000019100000000196000000001910000000000000000000191000000003700
0202LOTE PADRAO                   ELETROBRAS  ON *       ELET3       010VISTA          000000000022400000000226000000002160000000000000000000216000005105700
0202LOTE PADRAO                   CELESC      PNB        CLSC6       010VISTA          000000000000490000000005000000000048000000000000000000004800000118000
0202LOTE PADRAO                   BRADESCO    PN * EJ    BBDC4       010VISTA          000000000011400000000116000000001120000000000000000000112000134505000
0202LOTE PADRAO                   CESP        PN *       CESP4       010VISTA          000000000008500000000086000000000810000000000000000000081000005471300
0202LOTE PADRAO                   LIGHT       ON *       LIGH3       010VISTA          000000000028600000000289000000002750000000000000000000276000000973000
0202LOTE PADRAO                   TELESP CL PAPN *       TSPP4       010VISTA          000000000004500000000045000000000430000000000000000000043000294828000
0202LOTE PADRAO                   VALE R DOCE PNA        VALE5       010VISTA          000000000081300000000837000000008100000000000000000000829000000026100
0202LOTE PADRAO                   COPEL       PNB*       CPLE6       010VISTA          000000000010000000000100000000000950000000000000000000095000025692500
0202LOTE PADRAO                   VALE R DOCE ON         VALE3       010VISTA          000000000085500000000879000000008550000000000000000000875000000004800
0202LOTE PADRAO                   ARACRUZ     PNB        ARCZ6       010VISTA          000000000005400000000055000000000540000000000000000000055000000040700
0202LOTE PADRAO                   TELEMIG PARTPN *       TMCP4       010VISTA          000000000002700000000027000000000260000000000000000000026000040428500
0202LOTE PADRAO                   BRASIL TELECPN *       BRTO4       010VISTA          000000000012500000000126000000001220000000000000000000124000038122000
0202LOTE PADRAO                   SABESP      ON *       SBSP3       010VISTA          000000000106100000001085000000010300000000000000000001030000001982500
0202LOTE PADRAO                   BRASKEM     PNA*       BRKM5       010VISTA          000000000365000000003700000000036030000000000000000003630000000085600
0202LOTE PADRAO                   EMBRAER     PN EJ      EMBR4       010VISTA          000000000010500000000107500000001040000000000000000000105000000022900
0202LOTE PADRAO                   TELESP      PN * EJ    TLPP4       010VISTA          000000000030500000000314000000003050000000000000000000306000009719400
0202LOTE PADRAO                   EMBRAER     ON EJ      EMBR3       010VISTA          000000000008700000000089000000000870000000000000000000088000000014900
0202LOTE PADRAO                   AMBEV       PN *       AMBV4       010VISTA          000000000605300000006120000000060530000000000000000006100000001210000
0202LOTE PADRAO                   USIMINAS    PNA        USIM5       010VISTA          000000000010300000000104000000001020000000000000000000102000000037700
0202LOTE PADRAO                   ELETROPAULO PN *       ELPL4       010VISTA          000000000028900000000294000000002620000000000000000000262000009527000
0202LOTE PADRAO                   TELE NORD CLPN *       TNEP4       010VISTA          000000000002520000000025000000000240000000000000000000024000036528200
0202LOTE PADRAO                   CEMIG       PN * EJ    CMIG4       010VISTA          000000000030900000000315000000003000000000000000000000300000017586900
0202LOTE PADRAO                   TELE CL SUL PN * EJ    TCSL4       010VISTA          000000000002600000000027000000000250000000000000000000025000059880400
0202LOTE PADRAO                   TRACTEBEL   ON *       TBLE3       010VISTA          000000000005000000000050000000000500000000000000000000050000005540000
0202LOTE PADRAO                   CEMIG       ON * EJ    CMIG3       010VISTA          000000000024000000000241000000002380000000000000000000238000000162200
0202LOTE PADRAO                   TELE CL SUL ON * EJ    TCSL3       010VISTA          000000000002300000000023000000000230000000000000000000023000015898900
0202LOTE PADRAO                   ITAUSA      PN         ITSA4       010VISTA          000000000002400000000025000000000230000000000000000000023000000193100
0202LOTE PADRAO                   V C P       PN *       VCPA4       010VISTA          000000000098900000000990000000009750000000000000000000982500003398000
0202LOTE PADRAO                   SID TUBARAO PN *       CSTB4       010VISTA          000000000045300000000465000000004520000000000000000000453000003797800
0202LOTE PADRAO                   BRADESPAR   PN *       BRAP4       010VISTA          000000000000640000000006400000000062000000000000000000006200199847000
0202LOTE PADRAO                   NET         PN         PLIM4       010VISTA          000000000000360000000003700000000034000000000000000000003400001273400
0202LOTE PADRAO                   TELE CTR OESPN * EJ    TCOC4       010VISTA          000000000005600000000056000000000520000000000000000000052000037240300
0202LOTE PADRAO                   TELEMAR N L PNA* EJ    TMAR5       010VISTA          000000000041100000000419000000004000000000000000000000400000018314800
0202LOTE PADRAO                   GERDAU      PN * EJ    GGBR4       010VISTA          000000000029300000000293000000002880000000000000000000288000000009200
0202LOTE PADRAO                   BRASIL      ON *       BBAS3       010VISTA          000000000013900000000141000000001350000000000000000000136000016490800
