00BDIN9999BOVESPA 99992003032520030325
0101IBOVESPA                      0110470110350112430000000000000000002003032500000020030325011232000000
0202LOTE PADRAO                   EMBRATEL PARPN *       EBTP4       010VISTA          000000000003300000000034000000000330000000000000000000033000278146000
0202LOTE PADRAO                   TRAN PAULISTPN * EJ    TRPL4       010VISTA          000000000005600000000059000000000560000000000000000000058000020098900
0202LOTE PADRAO                   EMBRATEL PARON *       EBTP3       010VISTA          000000000003800000000039000000000380000000000000000000039000030447000
0202LOTE PADRAO                   TELEMAR     PN * EJ    TNLP4       010VISTA          000000000026800000000273000000002660000000000000000000273000223648000
0202LOTE PADRAO                   ITAUBANCO   PN * EJ    ITAU4       010VISTA          000000000180000000001830000000018000000000000000000001819000005995700
0202LOTE PADRAO                   TELEMAR     ON * EJ    TNLP3       010VISTA          000000000019300000000195000000001930000000000000000000195000027600300
0202LOTE PADRAO                   SID NACIONALON *       CSNA3       010VISTA          000000000062500000000650000000006140000000000000000000650000033211900
0202LOTE PADRAO                   TELE LEST CLPN *       TLCP4       010VISTA          000000000000400000000004300000000040000000000000000000004200154474000
0202LOTE PADRAO                   CRT CELULAR PNA* EJ    CRTP5       010VISTA          000000000330000000003300000000032550000000000000000003290000000305600
0202LOTE PADRAO                   IPIRANGA PETPN *       PTIP4       010VISTA          000000000007000000000072000000000700000000000000000000070000003726700
0202LOTE PADRAO                   BRASIL T PARPN *       BRTP4       010VISTA          000000000019250000000196000000001920000000000000000000193000048065200
0202LOTE PADRAO                   BRASIL T PARON *       BRTP3       010VISTA          000000000014400000000147000000001430000000000000000000145000025919300
0202LOTE PADRAO                   KLABIN S/A  PN         KLBN4       010VISTA          000000000001600000000016000000000160000000000000000000016000000022200
0202LOTE PADRAO                   ACESITA     PN *       ACES4       010VISTA          000000000001100000000011000000000110000000000000000000011000139096000
0202LOTE PADRAO                   PETROBRAS   PN         PETR4       010VISTA          000000000046900000000479000000004670000000000000000000478000000065500
0202LOTE PADRAO                   ELETROBRAS  PNB*       ELET6       010VISTA          000000000020000000000208000000002000000000000000000000205000059883500
0202LOTE PADRAO                   PETROBRAS   ON         PETR3       010VISTA          000000000051600000000531000000005160000000000000000000527000000025600
0202LOTE PADRAO                   COMGAS      PNA*       CGAS5       010VISTA          000000000044500000000475000000004450000000000000000000473000010823700
0202LOTE PADRAO                   SOUZA CRUZ  ON EJ      CRUZ3       010VISTA          000000000018500000000187000000001830000000000000000000187000000011600
0202LOTE PADRAO                   ELETROBRAS  ON *       ELET3       010VISTA          000000000017800000000183000000001760000000000000000000181000008549000
0202LOTE PADRAO                   CELESC      PNB        CLSC6       010VISTA          000000000000460000000004600000000044000000000000000000004600000114800
0202LOTE PADRAO                   BRADESCO    PN * EJ    BBDC4       010VISTA          000000000011300000000116000000001130000000000000000000115000108790000
0202LOTE PADRAO                   CESP        PN *       CESP4       010VISTA          000000000005800000000060000000000580000000000000000000059600008339800
0202LOTE PADRAO                   LIGHT       ON *       LIGH3       010VISTA          000000000026400000000269000000002590000000000000000000261000000332700
0202LOTE PADRAO                   TELESP CL PAPN *       TSPP4       010VISTA          000000000004200000000044000000000425000000000000000000044000426859000
0202LOTE PADRAO                   VALE R DOCE PNA        VALE5       010VISTA          000000000088000000000886000000008750000000000000000000875000000014200
0202LOTE PADRAO                   COPEL       PNB*       CPLE6       010VISTA          000000000008200000000084000000000810000000000000000000082000030787400
0202LOTE PADRAO                   VALE R DOCE ON         VALE3       010VISTA          000000000092700000000934000000009250000000000000000000930000000006000
0202LOTE PADRAO                   ARACRUZ     PNB        ARCZ6       010VISTA          000000000006800000000069000000000670000000000000000000067000000011300
0202LOTE PADRAO                   TELEMIG PARTPN *       TMCP4       010VISTA          000000000002770000000028000000000270000000000000000000027000050034800
0202LOTE PADRAO                   BRASIL TELECPN *       BRTO4       010VISTA          000000000011100000000113000000001100000000000000000000113000057559500
0202LOTE PADRAO                   SABESP      ON *       SBSP3       010VISTA          000000000078500000000825000000007850000000000000000000812000006453500
0202LOTE PADRAO                   BRASKEM     PNA*       BRKM5       010VISTA          000000000188900000002002500000018600000000000000000002002500002161600
0202LOTE PADRAO                   EMBRAER     PN EJ      EMBR4       010VISTA          000000000008900000000092000000000870000000000000000000090000000113900
0202LOTE PADRAO                   TELESP      PN * EJ    TLPP4       010VISTA          000000000032000000000320000000003110000000000000000000320000018140300
0202LOTE PADRAO                   EMBRAER     ON EJ      EMBR3       010VISTA          000000000007500000000077000000000750000000000000000000076000000036200
0202LOTE PADRAO                   AMBEV       PN *       AMBV4       010VISTA          000000000549000000005540000000054700000000000000000005530000001349900
0202LOTE PADRAO                   USIMINAS    PNA        USIM5       010VISTA          000000000007700000000078000000000760000000000000000000077000000049000
0202LOTE PADRAO                   ELETROPAULO PN *       ELPL4       010VISTA          000000000022800000000228000000002200000000000000000000223000005776900
0202LOTE PADRAO                   TELE NORD CLPN *       TNEP4       010VISTA          000000000002300000000024000000000230000000000000000000024000082603100
0202LOTE PADRAO                   CEMIG       PN * EJ    CMIG4       010VISTA          000000000025200000000256000000002510000000000000000000256000041549600
0202LOTE PADRAO                   TELE CL SUL PN * EJ    TCSL4       010VISTA          000000000002270000000023000000000227000000000000000000023000098885000
0202LOTE PADRAO                   TRACTEBEL   ON *       TBLE3       010VISTA          000000000003800000000039000000000370000000000000000000039600023658700
0202LOTE PADRAO                   CEMIG       ON * EJ    CMIG3       010VISTA          000000000019700000000203000000001970000000000000000000198000000255600
0202LOTE PADRAO                   TELE CL SUL ON * EJ    TCSL3       010VISTA          000000000001900000000020000000000190000000000000000000020000101858000
0202LOTE PADRAO                   ITAUSA      PN         ITSA4       010VISTA          000000000002100000000021000000000200000000000000000000021000000379600
0202LOTE PADRAO                   V C P       PN *       VCPA4       010VISTA          000000000126900000001270000000012380000000000000000001250000000385100
0202LOTE PADRAO                   SID TUBARAO PN *       CSTB4       010VISTA          000000000042500000000430000000004250000000000000000000425000010771100
0202LOTE PADRAO                   BRADESPAR   PN *       BRAP4       010VISTA          000000000000630000000006400000000062000000000000000000006400126987000
0202LOTE PADRAO                   NET         PN         PLIM4       010VISTA          000000000000290000000002900000000028000000000000000000002900000290300
0202LOTE PADRAO                   TELE CTR OESPN * EJ    TCOC4       010VISTA          000000000005400000000055000000000530000000000000000000054000118838000
0202LOTE PADRAO                   TELEMAR N L PNA* EJ    TMAR5       010VISTA          000000000036500000000372000000003650000000000000000000372000018950200
0202LOTE PADRAO                   GERDAU      PN * EJ    GGBR4       010VISTA          000000000030100000000306000000003010000000000000000000301000027141100
0202LOTE PADRAO                   BRASIL      ON *       BBAS3       010VISTA          000000000010300000000105000000001030000000000000000000104000017015100
