00BDIN9999BOVESPA 99992003070720030707
0101IBOVESPA                      0132740132730134440000000000000000002003070700000020030707013402000000
0202LOTE PADRAO                   EMBRATEL PARPN *       EBTP4       010VISTA          000000000005800000000058000000000560000000000000000000057500334767000
0202LOTE PADRAO                   TRAN PAULISTPN * EJ    TRPL4       010VISTA          000000000007400000000076000000000740000000000000000000074000021629000
0202LOTE PADRAO                   EMBRATEL PARON *       EBTP3       010VISTA          000000000006300000000065000000000630000000000000000000065000066510600
0202LOTE PADRAO                   TELEMAR     PN * EJ    TNLP4       010VISTA          000000000033250000000340000000003300000000000000000000337000296034000
0202LOTE PADRAO                   ITAUBANCO   PN * EJ    ITAU4       010VISTA          000000000190100000001908000000018750000000000000000001890000013889900
0202LOTE PADRAO                   TELEMAR     ON * EJ    TNLP3       010VISTA          000000000024000000000243000000002390000000000000000000241000017498500
0202LOTE PADRAO                   SID NACIONALON *       CSNA3       010VISTA          000000000069900000000710000000006950000000000000000000710000018813000
0202LOTE PADRAO                   TELE LEST CLPN *       TLCP4       010VISTA          000000000000450000000004500000000043000000000000000000004400119600000
0202LOTE PADRAO                   CRT CELULAR PNA* EJ    CRTP5       010VISTA          000000000340000000003430000000033700000000000000000003393000000829000
0202LOTE PADRAO                   IPIRANGA PETPN *       PTIP4       010VISTA          000000000009500000000097500000000950000000000000000000095000030684100
0202LOTE PADRAO                   BRASIL T PARPN *       BRTP4       010VISTA          000000000020900000000219000000002080000000000000000000216000053369200
0202LOTE PADRAO                   BRASIL T PARON *       BRTP3       010VISTA          000000000016000000000161000000001580000000000000000000160000017757500
0202LOTE PADRAO                   KLABIN S/A  PN         KLBN4       010VISTA          000000000002800000000029000000000280000000000000000000028000000019500
0202LOTE PADRAO                   ACESITA     PN *       ACES4       010VISTA          000000000001400000000014000000000140000000000000000000014000319913000
0202LOTE PADRAO                   PETROBRAS   PN         PETR4       010VISTA          000000000053000000000542000000005300000000000000000000542000000175600
0202LOTE PADRAO                   ELETROBRAS  PNB*       ELET6       010VISTA          000000000024000000000244000000002390000000000000000000243000038481500
0202LOTE PADRAO                   PETROBRAS   ON         PETR3       010VISTA          000000000058000000000591000000005800000000000000000000591000000015500
0202LOTE PADRAO                   COMGAS      PNA*       CGAS5       010VISTA          000000000064200000000655000000006200000000000000000000630000000855400
0202LOTE PADRAO                   SOUZA CRUZ  ON EJ      CRUZ3       010VISTA          000000000023100000000238000000002280000000000000000000236000000005400
0202LOTE PADRAO                   ELETROBRAS  ON *       ELET3       010VISTA          000000000020700000000210000000002060000000000000000000207000011393800
0202LOTE PADRAO                   CELESC      PNB        CLSC6       010VISTA          000000000000470000000005000000000046000000000000000000004900000560300
0202LOTE PADRAO                   BRADESCO    PN * EJ    BBDC4       010VISTA          000000000011000000000111000000001080000000000000000000109000172255000
0202LOTE PADRAO                   CESP        PN *       CESP4       010VISTA          000000000007300000000074000000000720000000000000000000074000006122100
0202LOTE PADRAO                   LIGHT       ON *       LIGH3       010VISTA          000000000025900000000259000000002530000000000000000000253000000456000
0202LOTE PADRAO                   TELESP CL PAPN *       TSPP4       010VISTA          000000000004700000000047000000000450000000000000000000045000329232000
0202LOTE PADRAO                   VALE R DOCE PNA        VALE5       010VISTA          000000000081700000000841000000008170000000000000000000838000000054300
0202LOTE PADRAO                   COPEL       PNB*       CPLE6       010VISTA          000000000009000000000091000000000880000000000000000000088000035256800
0202LOTE PADRAO                   VALE R DOCE ON         VALE3       010VISTA          000000000087500000000902000000008750000000000000000000897000000007800
0202LOTE PADRAO                   ARACRUZ     PNB        ARCZ6       010VISTA          000000000006200000000063000000000620000000000000000000063000000095500
0202LOTE PADRAO                   TELEMIG PARTPN *       TMCP4       010VISTA          000000000003000000000030000000000298000000000000000000029800120687000
0202LOTE PADRAO                   BRASIL TELECPN *       BRTO4       010VISTA          000000000012900000000130000000001275000000000000000000129000099575900
0202LOTE PADRAO                   SABESP      ON *       SBSP3       010VISTA          000000000110400000001109000000010500000000000000000001050000005761000
0202LOTE PADRAO                   BRASKEM     PNA*       BRKM5       010VISTA          000000000420000000004360000000042000000000000000000004330000000607300
0202LOTE PADRAO                   EMBRAER     PN EJ      EMBR4       010VISTA          000000000013000000000137500000001290000000000000000000137000000105500
0202LOTE PADRAO                   TELESP      PN * EJ    TLPP4       010VISTA          000000000031800000000322000000003140000000000000000000316000029626800
0202LOTE PADRAO                   EMBRAER     ON EJ      EMBR3       010VISTA          000000000010500000000110000000001050000000000000000000110000000039000
0202LOTE PADRAO                   AMBEV       PN *       AMBV4       010VISTA          000000000595000000006000000000058800000000000000000005979000002661700
0202LOTE PADRAO                   USIMINAS    PNA        USIM5       010VISTA          000000000013300000000141000000001330000000000000000000140000000136900
0202LOTE PADRAO                   ELETROPAULO PN *       ELPL4       010VISTA          000000000025500000000255000000002460000000000000000000246000007416700
0202LOTE PADRAO                   TELE NORD CLPN *       TNEP4       010VISTA          000000000002300000000024000000000230000000000000000000023000056608800
0202LOTE PADRAO                   CEMIG       PN * EJ    CMIG4       010VISTA          000000000028500000000286000000002780000000000000000000280000082171900
0202LOTE PADRAO                   TELE CL SUL PN * EJ    TCSL4       010VISTA          000000000002500000000025400000000240000000000000000000024000099136900
0202LOTE PADRAO                   TRACTEBEL   ON *       TBLE3       010VISTA          000000000007200000000075000000000700000000000000000000075000020600000
0202LOTE PADRAO                   CEMIG       ON * EJ    CMIG3       010VISTA          000000000021600000000218000000002160000000000000000000217000000523800
0202LOTE PADRAO                   TELE CL SUL ON * EJ    TCSL3       010VISTA          000000000002100000000021000000000200000000000000000000020000056834300
0202LOTE PADRAO                   ITAUSA      PN         ITSA4       010VISTA          000000000002200000000022000000000220000000000000000000022000000532500
0202LOTE PADRAO                   V C P       PN *       VCPA4       010VISTA          000000000120300000001225000000012000000000000000000001210000008823000
0202LOTE PADRAO                   SID TUBARAO PN *       CSTB4       010VISTA          000000000052200000000538000000005220000000000000000000534000014098100
0202LOTE PADRAO                   BRADESPAR   PN *       BRAP4       010VISTA          000000000000620000000006300000000061000000000000000000006200129726000
0202LOTE PADRAO                   NET         PN         PLIM4       010VISTA          000000000000300000000003000000000029000000000000000000002900000917300
0202LOTE PADRAO                   TELE CTR OESPN * EJ    TCOC4       010VISTA          000000000005710000000057100000000550000000000000000000056000069203900
0202LOTE PADRAO                   TELEMAR N L PNA* EJ    TMAR5       010VISTA          000000000039100000000396000000003910000000000000000000392000027686200
0202LOTE PADRAO                   GERDAU      PN * EJ    GGBR4       010VISTA          000000000033000000000342000000003260000000000000000000341000000025300
0202LOTE PADRAO                   BRASIL      ON *       BBAS3       010VISTA          000000000013600000000139000000001360000000000000000000136000016605300
