00BDIN9999BOVESPA 99992003020620030206
0101IBOVESPA                      0105870103600105890000000000000000002003020600000020030206010566000000
0202LOTE PADRAO                   EMBRATEL PARPN *       EBTP4       010VISTA          000000000003100000000031000000000300000000000000000000031000398433000
0202LOTE PADRAO                   TRAN PAULISTPN * EJ    TRPL4       010VISTA          000000000005100000000052000000000510000000000000000000051000005010000
0202LOTE PADRAO                   EMBRATEL PARON *       EBTP3       010VISTA          000000000003800000000039000000000377000000000000000000039000031859800
0202LOTE PADRAO                   TELEMAR     PN * EJ    TNLP4       010VISTA          000000000025400000000256000000002500000000000000000000254000253474000
0202LOTE PADRAO                   ITAUBANCO   PN * EJ    ITAU4       010VISTA          000000000156500000001566000000015400000000000000000001565000007146200
0202LOTE PADRAO                   TELEMAR     ON * EJ    TNLP3       010VISTA          000000000018600000000186000000001810000000000000000000185000011826400
0202LOTE PADRAO                   SID NACIONALON *       CSNA3       010VISTA          000000000061500000000622000000005950000000000000000000620000021306300
0202LOTE PADRAO                   TELE LEST CLPN *       TLCP4       010VISTA          000000000000400000000004300000000039000000000000000000004200177553000
0202LOTE PADRAO                   CRT CELULAR PNA* EJ    CRTP5       010VISTA          000000000325000000003305000000031400000000000000000003300000000703000
0202LOTE PADRAO                   IPIRANGA PETPN *       PTIP4       010VISTA          000000000006800000000068000000000670000000000000000000067000002063300
0202LOTE PADRAO                   BRASIL T PARPN *       BRTP4       010VISTA          000000000016600000000171000000001630000000000000000000171000038940100
0202LOTE PADRAO                   BRASIL T PARON *       BRTP3       010VISTA          000000000012600000000128000000001250000000000000000000126000001908900
0202LOTE PADRAO                   KLABIN S/A  PN         KLBN4       010VISTA          000000000001000000000011000000000100000000000000000000011000000008400
0202LOTE PADRAO                   ACESITA     PN *       ACES4       010VISTA          000000000000910000000009300000000090000000000000000000009300064613700
0202LOTE PADRAO                   PETROBRAS   PN         PETR4       010VISTA          000000000046700000000467000000004510000000000000000000454000000098800
0202LOTE PADRAO                   ELETROBRAS  PNB*       ELET6       010VISTA          000000000019400000000200000000001910000000000000000000199000040966400
0202LOTE PADRAO                   PETROBRAS   ON         PETR3       010VISTA          000000000050700000000510000000004960000000000000000000497500000021500
0202LOTE PADRAO                   COMGAS      PNA*       CGAS5       010VISTA          000000000045600000000460000000004550000000000000000000456000000675600
0202LOTE PADRAO                   SOUZA CRUZ  ON EJ      CRUZ3       010VISTA          000000000017800000000178000000001760000000000000000000177500000002700
0202LOTE PADRAO                   ELETROBRAS  ON *       ELET3       010VISTA          000000000018200000000186000000001800000000000000000000185000017865600
0202LOTE PADRAO                   CELESC      PNB        CLSC6       010VISTA          000000000000480000000004900000000047000000000000000000004800000303300
0202LOTE PADRAO                   BRADESCO    PN * EJ    BBDC4       010VISTA          000000000009900000000099000000000970000000000000000000099000161773000
0202LOTE PADRAO                   CESP        PN *       CESP4       010VISTA          000000000006200000000062000000000610000000000000000000062000013183400
0202LOTE PADRAO                   LIGHT       ON *       LIGH3       010VISTA          000000000034500000000345000000003250000000000000000000335000000472200
0202LOTE PADRAO                   TELESP CL PAPN *       TSPP4       010VISTA          000000000003600000000037000000000350000000000000000000036000267240000
0202LOTE PADRAO                   VALE R DOCE PNA        VALE5       010VISTA          000000000098000000000992000000009720000000000000000000991000000016300
0202LOTE PADRAO                   COPEL       PNB*       CPLE6       010VISTA          000000000007800000000080000000000770000000000000000000080000059441900
0202LOTE PADRAO                   VALE R DOCE ON         VALE3       010VISTA          000000000101000000001030000000010100000000000000000001030000000007600
0202LOTE PADRAO                   ARACRUZ     PNB        ARCZ6       010VISTA          000000000007200000000072500000000710000000000000000000071000000027100
0202LOTE PADRAO                   TELEMIG PARTPN *       TMCP4       010VISTA          000000000002500000000025000000000250000000000000000000025000051746100
0202LOTE PADRAO                   BRASIL TELECPN *       BRTO4       010VISTA          000000000010000000000102000000000970000000000000000000101000348007000
0202LOTE PADRAO                   SABESP      ON *       SBSP3       010VISTA          000000000082100000000827000000008190000000000000000000825000001611100
0202LOTE PADRAO                   BRASKEM     PNA*       BRKM5       010VISTA          000000000170000000001700000000016010000000000000000001660000000149400
0202LOTE PADRAO                   EMBRAER     PN EJ      EMBR4       010VISTA          000000000011900000000120000000001180000000000000000000119000000030900
0202LOTE PADRAO                   TELESP      PN * EJ    TLPP4       010VISTA          000000000029500000000304000000002950000000000000000000304000002310700
0202LOTE PADRAO                   EMBRAER     ON EJ      EMBR3       010VISTA          000000000010400000000105000000001030000000000000000000104000000015600
0202LOTE PADRAO                   AMBEV       PN *       AMBV4       010VISTA          000000000495000000004990000000049500000000000000000004965000000999700
0202LOTE PADRAO                   USIMINAS    PNA        USIM5       010VISTA          000000000007100000000072000000000700000000000000000000072000000033000
0202LOTE PADRAO                   ELETROPAULO PN *       ELPL4       010VISTA          000000000025600000000258000000002420000000000000000000245000005889600
0202LOTE PADRAO                   TELE NORD CLPN *       TNEP4       010VISTA          000000000002300000000023000000000227000000000000000000023000041676700
0202LOTE PADRAO                   CEMIG       PN * EJ    CMIG4       010VISTA          000000000024300000000256000000002410000000000000000000256000056443300
0202LOTE PADRAO                   TELE CL SUL PN * EJ    TCSL4       010VISTA          000000000002200000000023000000000220000000000000000000023000062153100
0202LOTE PADRAO                   TRACTEBEL   ON *       TBLE3       010VISTA          000000000003200000000033000000000320000000000000000000032000002292600
0202LOTE PADRAO                   CEMIG       ON * EJ    CMIG3       010VISTA          000000000020600000000216000000002050000000000000000000216000001528700
0202LOTE PADRAO                   TELE CL SUL ON * EJ    TCSL3       010VISTA          000000000001700000000017200000000160000000000000000000017000023793600
0202LOTE PADRAO                   ITAUSA      PN         ITSA4       010VISTA          000000000001800000000018000000000180000000000000000000018000000197100
0202LOTE PADRAO                   V C P       PN *       VCPA4       010VISTA          000000000130800000001350000000012670000000000000000001350000003515500
0202LOTE PADRAO                   SID TUBARAO PN *       CSTB4       010VISTA          000000000036500000000380000000003650000000000000000000380000002723800
0202LOTE PADRAO                   BRADESPAR   PN *       BRAP4       010VISTA          000000000000620000000006400000000061000000000000000000006400207924000
0202LOTE PADRAO                   NET         PN         PLIM4       010VISTA          000000000000320000000003200000000030000000000000000000003100000626400
0202LOTE PADRAO                   TELE CTR OESPN * EJ    TCOC4       010VISTA          000000000004600000000046000000000430000000000000000000046000070672000
0202LOTE PADRAO                   TELEMAR N L PNA* EJ    TMAR5       010VISTA          000000000038300000000383000000003720000000000000000000383000020017000
0202LOTE PADRAO                   GERDAU      PN * EJ    GGBR4       010VISTA          000000000031100000000314000000003010000000000000000000313000009902900
0202LOTE PADRAO                   BRASIL      ON *       BBAS3       010VISTA          000000000009100000000092000000000900000000000000000000091000011087700
