00BDIN9999BOVESPA 99992003010220030102
0101IBOVESPA                      0112910112910116030000000000000000002003010200000020030102011603000000
0202LOTE PADRAO                   EMBRATEL PARPN *       EBTP4       010VISTA          000000000003800000000042000000000380000000000000000000042000345876000
0202LOTE PADRAO                   TRAN PAULISTPN * EJ    TRPL4       010VISTA          000000000005600000000058000000000560000000000000000000058000004137000
0202LOTE PADRAO                   EMBRATEL PARON *       EBTP3       010VISTA          000000000004200000000046000000000420000000000000000000046000039225900
0202LOTE PADRAO                   TELEMAR     PN * EJ    TNLP4       010VISTA          000000000026600000000271000000002630000000000000000000271000126189000
0202LOTE PADRAO                   ITAUBANCO   PN * EJ    ITAU4       010VISTA          000000000170000000001700000000016800000000000000000001680000002776100
0202LOTE PADRAO                   TELEMAR     ON * EJ    TNLP3       010VISTA          000000000019500000000199000000001890000000000000000000194000008547400
0202LOTE PADRAO                   SID NACIONALON *       CSNA3       010VISTA          000000000051000000000520000000005100000000000000000000518000005763700
0202LOTE PADRAO                   TELE LEST CLPN *       TLCP4       010VISTA          000000000000450000000004500000000042000000000000000000004500279412000
0202LOTE PADRAO                   CRT CELULAR PNA* EJ    CRTP5       010VISTA          000000000307000000003240000000030700000000000000000003240000003371500
0202LOTE PADRAO                   IPIRANGA PETPN *       PTIP4       010VISTA          000000000007800000000084000000000780000000000000000000081000008532800
0202LOTE PADRAO                   BRASIL T PARPN *       BRTP4       010VISTA          000000000018500000000185000000001800000000000000000000181000023194700
0202LOTE PADRAO                   BRASIL T PARON *       BRTP3       010VISTA          000000000014000000000141000000001380000000000000000000140000003013600
0202LOTE PADRAO                   KLABIN S/A  PN         KLBN4       010VISTA          000000000001000000000010000000000100000000000000000000010000000021200
0202LOTE PADRAO                   ACESITA     PN *       ACES4       010VISTA          000000000000940000000009500000000092000000000000000000009300106885000
0202LOTE PADRAO                   PETROBRAS   PN         PETR4       010VISTA          000000000046500000000477000000004650000000000000000000471000000030900
0202LOTE PADRAO                   ELETROBRAS  PNB*       ELET6       010VISTA          000000000023400000000238000000002340000000000000000000238000017877400
0202LOTE PADRAO                   PETROBRAS   ON         PETR3       010VISTA          000000000052700000000532000000005250000000000000000000525000000011800
0202LOTE PADRAO                   COMGAS      PNA*       CGAS5       010VISTA          000000000053100000000550000000005310000000000000000000550000000277700
0202LOTE PADRAO                   SOUZA CRUZ  ON EJ      CRUZ3       010VISTA          000000000017800000000180000000001780000000000000000000180000000003700
0202LOTE PADRAO                   ELETROBRAS  ON *       ELET3       010VISTA          000000000023600000000240000000002360000000000000000000240000005335800
0202LOTE PADRAO                   CELESC      PNB        CLSC6       010VISTA          000000000000540000000005500000000054000000000000000000005400000061400
0202LOTE PADRAO                   BRADESCO    PN * EJ    BBDC4       010VISTA          000000000010700000000110000000001050000000000000000000106000078984700
0202LOTE PADRAO                   CESP        PN *       CESP4       010VISTA          000000000007400000000074000000000690000000000000000000069600018347600
0202LOTE PADRAO                   LIGHT       ON *       LIGH3       010VISTA          000000000047500000000507000000004750000000000000000000499000000127500
0202LOTE PADRAO                   TELESP CL PAPN *       TSPP4       010VISTA          000000000004300000000045000000000420000000000000000000045000314606000
0202LOTE PADRAO                   VALE R DOCE PNA        VALE5       010VISTA          000000000095700000000975000000009570000000000000000000970000000011800
0202LOTE PADRAO                   COPEL       PNB*       CPLE6       010VISTA          000000000010000000000100000000000980000000000000000000099000065336100
0202LOTE PADRAO                   VALE R DOCE ON         VALE3       010VISTA          000000000102500000001029000000010200000000000000000001020000000002700
0202LOTE PADRAO                   ARACRUZ     PNB        ARCZ6       010VISTA          000000000006600000000068000000000660000000000000000000068000000010800
0202LOTE PADRAO                   TELEMIG PARTPN *       TMCP4       010VISTA          000000000003000000000030000000000298000000000000000000030000056498500
0202LOTE PADRAO                   BRASIL TELECPN *       BRTO4       010VISTA          000000000011750000000120000000001160000000000000000000117000044662200
0202LOTE PADRAO                   SABESP      ON *       SBSP3       010VISTA          000000000092000000000940000000009200000000000000000000930000001602100
0202LOTE PADRAO                   BRASKEM     PNA*       BRKM5       010VISTA          000000000227900000002399000000022790000000000000000002399000000068200
0202LOTE PADRAO                   EMBRAER     PN EJ      EMBR4       010VISTA          000000000014000000000141000000001380000000000000000000140000000061500
0202LOTE PADRAO                   TELESP      PN * EJ    TLPP4       010VISTA          000000000034200000000349000000003420000000000000000000349000004300400
0202LOTE PADRAO                   EMBRAER     ON EJ      EMBR3       010VISTA          000000000012800000000128000000001240000000000000000000126000000004500
0202LOTE PADRAO                   AMBEV       PN *       AMBV4       010VISTA          000000000540000000005480000000053990000000000000000005453000000987600
0202LOTE PADRAO                   USIMINAS    PNA        USIM5       010VISTA          000000000006500000000070000000000650000000000000000000068000000087900
0202LOTE PADRAO                   ELETROPAULO PN *       ELPL4       010VISTA          000000000026400000000275000000002600000000000000000000275000004301900
0202LOTE PADRAO                   TELE NORD CLPN *       TNEP4       010VISTA          000000000002750000000027700000000270000000000000000000027300025202400
0202LOTE PADRAO                   CEMIG       PN * EJ    CMIG4       010VISTA          000000000026400000000266000000002580000000000000000000266000015175000
0202LOTE PADRAO                   TELE CL SUL PN * EJ    TCSL4       010VISTA          000000000002700000000028100000000270000000000000000000028100041004200
0202LOTE PADRAO                   TRACTEBEL   ON *       TBLE3       010VISTA          000000000003500000000037000000000350000000000000000000036000003622900
0202LOTE PADRAO                   CEMIG       ON * EJ    CMIG3       010VISTA          000000000023500000000236000000002330000000000000000000233000000098000
0202LOTE PADRAO                   TELE CL SUL ON * EJ    TCSL3       010VISTA          000000000001960000000019700000000190000000000000000000019000013873900
0202LOTE PADRAO                   ITAUSA      PN         ITSA4       010VISTA          000000000001800000000018000000000180000000000000000000018000000148700
0202LOTE PADRAO                   V C P       PN *       VCPA4       010VISTA          000000000120000000001250000000012000000000000000000001250000000200100
0202LOTE PADRAO                   SID TUBARAO PN *       CSTB4       010VISTA          000000000040000000000421000000004000000000000000000000420000002307300
0202LOTE PADRAO                   BRADESPAR   PN *       BRAP4       010VISTA          000000000000580000000005900000000057000000000000000000005800157663000
0202LOTE PADRAO                   NET         PN         PLIM4       010VISTA          000000000000430000000004400000000042000000000000000000004400000550300
0202LOTE PADRAO                   TELE CTR OESPN * EJ    TCOC4       010VISTA          000000000004750000000049000000000470000000000000000000049000081384700
0202LOTE PADRAO                   TELEMAR N L PNA* EJ    TMAR5       010VISTA          000000000042400000000437000000004200000000000000000000437000014139900
0202LOTE PADRAO                   GERDAU      PN * EJ    GGBR4       010VISTA          000000000033600000000337000000003270000000000000000000332000005318500
0202LOTE PADRAO                   BRASIL      ON *       BBAS3       010VISTA          000000000009900000000099000000000980000000000000000000098000010863400
