00BDIN9999BOVESPA 99992003010920030109
0101IBOVESPA                      0118140117800119640000000000000000002003010900000020030109011912000000
0202LOTE PADRAO                   EMBRATEL PARPN *       EBTP4       010VISTA          000000000004600000000047000000000440000000000000000000045000542217000
0202LOTE PADRAO                   TRAN PAULISTPN * EJ    TRPL4       010VISTA          000000000005900000000059000000000590000000000000000000059000008262900
0202LOTE PADRAO                   EMBRATEL PARON *       EBTP3       010VISTA          000000000005100000000051000000000480000000000000000000048000055851700
0202LOTE PADRAO                   TELEMAR     PN * EJ    TNLP4       010VISTA          000000000027750000000282000000002770000000000000000000281000237293000
0202LOTE PADRAO                   ITAUBANCO   PN * EJ    ITAU4       010VISTA          000000000169000000001719000000016900000000000000000001705000009032000
0202LOTE PADRAO                   TELEMAR     ON * EJ    TNLP3       010VISTA          000000000020200000000207500000002010000000000000000000207500027318000
0202LOTE PADRAO                   SID NACIONALON *       CSNA3       010VISTA          000000000052800000000547000000005280000000000000000000541000054211000
0202LOTE PADRAO                   TELE LEST CLPN *       TLCP4       010VISTA          000000000000480000000004900000000047000000000000000000004900158275000
0202LOTE PADRAO                   CRT CELULAR PNA* EJ    CRTP5       010VISTA          000000000350000000003690000000035000000000000000000003599000001867100
0202LOTE PADRAO                   IPIRANGA PETPN *       PTIP4       010VISTA          000000000008500000000086000000000840000000000000000000086000003170000
0202LOTE PADRAO                   BRASIL T PARPN *       BRTP4       010VISTA          000000000018900000000189000000001860000000000000000000188000039734700
0202LOTE PADRAO                   BRASIL T PARON *       BRTP3       010VISTA          000000000014700000000147000000001420000000000000000000144000005615000
0202LOTE PADRAO                   KLABIN S/A  PN         KLBN4       010VISTA          000000000001100000000011000000000110000000000000000000011000000067600
0202LOTE PADRAO                   ACESITA     PN *       ACES4       010VISTA          000000000000930000000009400000000092000000000000000000009400084992800
0202LOTE PADRAO                   PETROBRAS   PN         PETR4       010VISTA          000000000048200000000502000000004820000000000000000000501000000171700
0202LOTE PADRAO                   ELETROBRAS  PNB*       ELET6       010VISTA          000000000023000000000233000000002280000000000000000000230000053289000
0202LOTE PADRAO                   PETROBRAS   ON         PETR3       010VISTA          000000000054000000000561000000005380000000000000000000560000000027200
0202LOTE PADRAO                   COMGAS      PNA*       CGAS5       010VISTA          000000000055600000000565000000005530000000000000000000553000001035600
0202LOTE PADRAO                   SOUZA CRUZ  ON EJ      CRUZ3       010VISTA          000000000017600000000180000000001760000000000000000000177000000010700
0202LOTE PADRAO                   ELETROBRAS  ON *       ELET3       010VISTA          000000000023250000000237000000002280000000000000000000231000011379700
0202LOTE PADRAO                   CELESC      PNB        CLSC6       010VISTA          000000000000550000000005500000000053000000000000000000005400000093000
0202LOTE PADRAO                   BRADESCO    PN * EJ    BBDC4       010VISTA          000000000011000000000111000000001090000000000000000000110000153635000
0202LOTE PADRAO                   CESP        PN *       CESP4       010VISTA          000000000008200000000082000000000790000000000000000000080000018370000
0202LOTE PADRAO                   LIGHT       ON *       LIGH3       010VISTA          000000000047500000000483000000004750000000000000000000480000001053100
0202LOTE PADRAO                   TELESP CL PAPN *       TSPP4       010VISTA          000000000004700000000047000000000460000000000000000000046000415311000
0202LOTE PADRAO                   VALE R DOCE PNA        VALE5       010VISTA          000000000092600000000929000000009130000000000000000000925000000010700
0202LOTE PADRAO                   COPEL       PNB*       CPLE6       010VISTA          000000000009600000000099000000000950000000000000000000099000044762500
0202LOTE PADRAO                   VALE R DOCE ON         VALE3       010VISTA          000000000094500000000960000000009420000000000000000000955000000008600
0202LOTE PADRAO                   ARACRUZ     PNB        ARCZ6       010VISTA          000000000006000000000063000000000600000000000000000000063000000084200
0202LOTE PADRAO                   TELEMIG PARTPN *       TMCP4       010VISTA          000000000003100000000032000000000310000000000000000000032000051902500
0202LOTE PADRAO                   BRASIL TELECPN *       BRTO4       010VISTA          000000000012000000000120000000001170000000000000000000117000092064500
0202LOTE PADRAO                   SABESP      ON *       SBSP3       010VISTA          000000000102000000001040000000009900000000000000000001002000010173600
0202LOTE PADRAO                   BRASKEM     PNA*       BRKM5       010VISTA          000000000251600000002630000000025000000000000000000002580000000158500
0202LOTE PADRAO                   EMBRAER     PN EJ      EMBR4       010VISTA          000000000013500000000136000000001310000000000000000000133000000034900
0202LOTE PADRAO                   TELESP      PN * EJ    TLPP4       010VISTA          000000000033700000000350000000003300000000000000000000331000012116900
0202LOTE PADRAO                   EMBRAER     ON EJ      EMBR3       010VISTA          000000000012000000000123000000001190000000000000000000119000000005900
0202LOTE PADRAO                   AMBEV       PN *       AMBV4       010VISTA          000000000529000000005440000000051500000000000000000005440000001318600
0202LOTE PADRAO                   USIMINAS    PNA        USIM5       010VISTA          000000000007200000000072000000000710000000000000000000071000000045300
0202LOTE PADRAO                   ELETROPAULO PN *       ELPL4       010VISTA          000000000031500000000337000000003140000000000000000000333000015392500
0202LOTE PADRAO                   TELE NORD CLPN *       TNEP4       010VISTA          000000000002800000000028000000000270000000000000000000028000061323200
0202LOTE PADRAO                   CEMIG       PN * EJ    CMIG4       010VISTA          000000000025600000000266000000002560000000000000000000263000048390100
0202LOTE PADRAO                   TELE CL SUL PN * EJ    TCSL4       010VISTA          000000000002800000000029000000000280000000000000000000028000040331600
0202LOTE PADRAO                   TRACTEBEL   ON *       TBLE3       010VISTA          000000000003500000000036000000000350000000000000000000036000004950000
0202LOTE PADRAO                   CEMIG       ON * EJ    CMIG3       010VISTA          000000000023300000000241000000002330000000000000000000239000000130000
0202LOTE PADRAO                   TELE CL SUL ON * EJ    TCSL3       010VISTA          000000000002000000000020000000000200000000000000000000020000012458900
0202LOTE PADRAO                   ITAUSA      PN         ITSA4       010VISTA          000000000001900000000019600000000190000000000000000000019600000523700
0202LOTE PADRAO                   V C P       PN *       VCPA4       010VISTA          000000000118200000001217500000011820000000000000000001205000000649900
0202LOTE PADRAO                   SID TUBARAO PN *       CSTB4       010VISTA          000000000037400000000377000000003620000000000000000000373000009962100
0202LOTE PADRAO                   BRADESPAR   PN *       BRAP4       010VISTA          000000000000600000000006000000000058000000000000000000005800159624000
0202LOTE PADRAO                   NET         PN         PLIM4       010VISTA          000000000000470000000004900000000045000000000000000000004600000951900
0202LOTE PADRAO                   TELE CTR OESPN * EJ    TCOC4       010VISTA          000000000005300000000053000000000520000000000000000000052500118709000
0202LOTE PADRAO                   TELEMAR N L PNA* EJ    TMAR5       010VISTA          000000000046400000000464000000004460000000000000000000450000027328900
0202LOTE PADRAO                   GERDAU      PN * EJ    GGBR4       010VISTA          000000000032500000000325000000003210000000000000000000322000020910000
0202LOTE PADRAO                   BRASIL      ON *       BBAS3       010VISTA          000000000009900000000105000000000990000000000000000000103000122723000
