00BDIN9999BOVESPA 99992003071520030715
0101IBOVESPA                      0135930135680137360000000000000000002003071500000020030715013614000000
0202LOTE PADRAO                   EMBRATEL PARPN *       EBTP4       010VISTA          000000000005800000000058000000000570000000000000000000058000211854000
0202LOTE PADRAO                   TRAN PAULISTPN * EJ    TRPL4       010VISTA          000000000007500000000076000000000750000000000000000000076000005296400
0202LOTE PADRAO                   EMBRATEL PARON *       EBTP3       010VISTA          000000000006500000000066000000000650000000000000000000065000019291200
0202LOTE PADRAO                   TELEMAR     PN * EJ    TNLP4       010VISTA          000000000033600000000341000000003350000000000000000000337000287187000
0202LOTE PADRAO                   ITAUBANCO   PN * EJ    ITAU4       010VISTA          000000000190000000001970000000019000000000000000000001960000012604600
0202LOTE PADRAO                   TELEMAR     ON * EJ    TNLP3       010VISTA          000000000024100000000246000000002410000000000000000000246000011183200
0202LOTE PADRAO                   SID NACIONALON *       CSNA3       010VISTA          000000000072000000000725000000007050000000000000000000714000016010400
0202LOTE PADRAO                   TELE LEST CLPN *       TLCP4       010VISTA          000000000000440000000004500000000043000000000000000000004300036813700
0202LOTE PADRAO                   CRT CELULAR PNA* EJ    CRTP5       010VISTA          000000000330000000003480000000033000000000000000000003435000000059100
0202LOTE PADRAO                   IPIRANGA PETPN *       PTIP4       010VISTA          000000000011000000000112000000001050000000000000000000108000016606300
0202LOTE PADRAO                   BRASIL T PARPN *       BRTP4       010VISTA          000000000021400000000218000000002125000000000000000000213000042517200
0202LOTE PADRAO                   BRASIL T PARON *       BRTP3       010VISTA          000000000016000000000164000000001580000000000000000000158000008531900
0202LOTE PADRAO                   KLABIN S/A  PN         KLBN4       010VISTA          000000000002800000000028000000000280000000000000000000028000000095700
0202LOTE PADRAO                   ACESITA     PN *       ACES4       010VISTA          000000000001400000000014000000000130000000000000000000014000329581000
0202LOTE PADRAO                   PETROBRAS   PN         PETR4       010VISTA          000000000055100000000564000000005470000000000000000000562000000122500
0202LOTE PADRAO                   ELETROBRAS  PNB*       ELET6       010VISTA          000000000024100000000244000000002360000000000000000000236000055462500
0202LOTE PADRAO                   PETROBRAS   ON         PETR3       010VISTA          000000000059300000000608000000005920000000000000000000605000000023300
0202LOTE PADRAO                   COMGAS      PNA*       CGAS5       010VISTA          000000000063700000000661000000006370000000000000000000661000001583400
0202LOTE PADRAO                   SOUZA CRUZ  ON EJ      CRUZ3       010VISTA          000000000022800000000231000000002230000000000000000000225000000011600
0202LOTE PADRAO                   ELETROBRAS  ON *       ELET3       010VISTA          000000000021000000000214000000002100000000000000000000213000022195800
0202LOTE PADRAO                   CELESC      PNB        CLSC6       010VISTA          000000000000470000000004800000000045000000000000000000004600000814200
0202LOTE PADRAO                   BRADESCO    PN * EJ    BBDC4       010VISTA          000000000011250000000113000000001110000000000000000000111000162428000
0202LOTE PADRAO                   CESP        PN *       CESP4       010VISTA          000000000007300000000075400000000730000000000000000000075000003254200
0202LOTE PADRAO                   LIGHT       ON *       LIGH3       010VISTA          000000000026700000000268000000002580000000000000000000260000000914900
0202LOTE PADRAO                   TELESP CL PAPN *       TSPP4       010VISTA          000000000004600000000046000000000460000000000000000000046000225977000
0202LOTE PADRAO                   VALE R DOCE PNA        VALE5       010VISTA          000000000083900000000850000000008390000000000000000000845000000016600
0202LOTE PADRAO                   COPEL       PNB*       CPLE6       010VISTA          000000000009000000000091000000000880000000000000000000088000056106700
0202LOTE PADRAO                   VALE R DOCE ON         VALE3       010VISTA          000000000090000000000919000000009000000000000000000000907000000004500
0202LOTE PADRAO                   ARACRUZ     PNB        ARCZ6       010VISTA          000000000006200000000064000000000620000000000000000000063000000076900
0202LOTE PADRAO                   TELEMIG PARTPN *       TMCP4       010VISTA          000000000002900000000029000000000290000000000000000000029000065996300
0202LOTE PADRAO                   BRASIL TELECPN *       BRTO4       010VISTA          000000000012800000000130000000001280000000000000000000129000062318000
0202LOTE PADRAO                   SABESP      ON *       SBSP3       010VISTA          000000000106000000001087000000010600000000000000000001067000002499700
0202LOTE PADRAO                   BRASKEM     PNA*       BRKM5       010VISTA          000000000432000000004460000000043200000000000000000004370000000404000
0202LOTE PADRAO                   EMBRAER     PN EJ      EMBR4       010VISTA          000000000014300000000143000000001360000000000000000000138000000130600
0202LOTE PADRAO                   TELESP      PN * EJ    TLPP4       010VISTA          000000000031300000000318000000003080000000000000000000312000004147000
0202LOTE PADRAO                   EMBRAER     ON EJ      EMBR3       010VISTA          000000000011100000000115000000001110000000000000000000111000000013200
0202LOTE PADRAO                   AMBEV       PN *       AMBV4       010VISTA          000000000601200000006090000000060120000000000000000006040000003122500
0202LOTE PADRAO                   USIMINAS    PNA        USIM5       010VISTA          000000000015700000000161000000001550000000000000000000157000000199100
0202LOTE PADRAO                   ELETROPAULO PN *       ELPL4       010VISTA          000000000024500000000254000000002450000000000000000000247000003416800
0202LOTE PADRAO                   TELE NORD CLPN *       TNEP4       010VISTA          000000000002300000000024000000000230000000000000000000023000089559700
0202LOTE PADRAO                   CEMIG       PN * EJ    CMIG4       010VISTA          000000000027750000000281000000002750000000000000000000276000040806400
0202LOTE PADRAO                   TELE CL SUL PN * EJ    TCSL4       010VISTA          000000000002400000000024000000000230000000000000000000023000084320100
0202LOTE PADRAO                   TRACTEBEL   ON *       TBLE3       010VISTA          000000000007500000000078000000000750000000000000000000078000000385300
0202LOTE PADRAO                   CEMIG       ON * EJ    CMIG3       010VISTA          000000000021100000000215000000002110000000000000000000215000000875600
0202LOTE PADRAO                   TELE CL SUL ON * EJ    TCSL3       010VISTA          000000000002000000000021000000000200000000000000000000020000024763300
0202LOTE PADRAO                   ITAUSA      PN         ITSA4       010VISTA          000000000002300000000023000000000230000000000000000000023000000191300
0202LOTE PADRAO                   V C P       PN *       VCPA4       010VISTA          000000000126000000001265000000012370000000000000000001264000003269900
0202LOTE PADRAO                   SID TUBARAO PN *       CSTB4       010VISTA          000000000054800000000561000000005360000000000000000000540000008031100
0202LOTE PADRAO                   BRADESPAR   PN *       BRAP4       010VISTA          000000000000630000000006500000000063000000000000000000006400188044000
0202LOTE PADRAO                   NET         PN         PLIM4       010VISTA          000000000000340000000003500000000033000000000000000000003300000260100
0202LOTE PADRAO                   TELE CTR OESPN * EJ    TCOC4       010VISTA          000000000005500000000057000000000550000000000000000000056000108860000
0202LOTE PADRAO                   TELEMAR N L PNA* EJ    TMAR5       010VISTA          000000000041500000000432000000004150000000000000000000432000052795900
0202LOTE PADRAO                   GERDAU      PN * EJ    GGBR4       010VISTA          000000000034500000000348000000003350000000000000000000335000000023400
0202LOTE PADRAO                   BRASIL      ON *       BBAS3       010VISTA          000000000013800000000141000000001380000000000000000000140000013538700
