00BDIN9999BOVESPA 99992003072120030721
0101IBOVESPA                      0137940136760138590000000000000000002003072100000020030721013676000000
0202LOTE PADRAO                   EMBRATEL PARPN *       EBTP4       010VISTA          000000000006300000000064000000000610000000000000000000061000409927000
0202LOTE PADRAO                   TRAN PAULISTPN * EJ    TRPL4       010VISTA          000000000007500000000076000000000750000000000000000000075000004968600
0202LOTE PADRAO                   EMBRATEL PARON *       EBTP3       010VISTA          000000000007000000000072000000000680000000000000000000068000021779700
0202LOTE PADRAO                   TELEMAR     PN * EJ    TNLP4       010VISTA          000000000033800000000342000000003350000000000000000000335000379533000
0202LOTE PADRAO                   ITAUBANCO   PN * EJ    ITAU4       010VISTA          000000000195500000001974000000019500000000000000000001974000006188400
0202LOTE PADRAO                   TELEMAR     ON * EJ    TNLP3       010VISTA          000000000025000000000251000000002480000000000000000000248000012167100
0202LOTE PADRAO                   SID NACIONALON *       CSNA3       010VISTA          000000000072200000000747000000007140000000000000000000740000019857100
0202LOTE PADRAO                   TELE LEST CLPN *       TLCP4       010VISTA          000000000000450000000004500000000043000000000000000000004400025786500
0202LOTE PADRAO                   CRT CELULAR PNA* EJ    CRTP5       010VISTA          000000000355000000003609000000035500000000000000000003600000001252000
0202LOTE PADRAO                   IPIRANGA PETPN *       PTIP4       010VISTA          000000000011100000000111000000001060000000000000000000106000006281100
0202LOTE PADRAO                   BRASIL T PARPN *       BRTP4       010VISTA          000000000021500000000215000000002120000000000000000000212000045132700
0202LOTE PADRAO                   BRASIL T PARON *       BRTP3       010VISTA          000000000016200000000163000000001590000000000000000000161000009793300
0202LOTE PADRAO                   KLABIN S/A  PN         KLBN4       010VISTA          000000000002800000000028000000000270000000000000000000028000000064100
0202LOTE PADRAO                   ACESITA     PN *       ACES4       010VISTA          000000000001400000000014000000000130000000000000000000014000081081900
0202LOTE PADRAO                   PETROBRAS   PN         PETR4       010VISTA          000000000057100000000577000000005710000000000000000000572000000127600
0202LOTE PADRAO                   ELETROBRAS  PNB*       ELET6       010VISTA          000000000023800000000241000000002370000000000000000000238000032383700
0202LOTE PADRAO                   PETROBRAS   ON         PETR3       010VISTA          000000000061500000000616000000006070000000000000000000612500000044600
0202LOTE PADRAO                   COMGAS      PNA*       CGAS5       010VISTA          000000000071000000000710000000006900000000000000000000694000001205600
0202LOTE PADRAO                   SOUZA CRUZ  ON EJ      CRUZ3       010VISTA          000000000022500000000227500000002210000000000000000000221000000009100
0202LOTE PADRAO                   ELETROBRAS  ON *       ELET3       010VISTA          000000000022000000000223000000002150000000000000000000220000013325200
0202LOTE PADRAO                   CELESC      PNB        CLSC6       010VISTA          000000000000470000000004700000000046000000000000000000004600000031000
0202LOTE PADRAO                   BRADESCO    PN * EJ    BBDC4       010VISTA          000000000011400000000114000000001110000000000000000000111000145625000
0202LOTE PADRAO                   CESP        PN *       CESP4       010VISTA          000000000007300000000074000000000725000000000000000000072500002454600
0202LOTE PADRAO                   LIGHT       ON *       LIGH3       010VISTA          000000000026300000000265000000002610000000000000000000262000000577500
0202LOTE PADRAO                   TELESP CL PAPN *       TSPP4       010VISTA          000000000004600000000046000000000450000000000000000000045000328368000
0202LOTE PADRAO                   VALE R DOCE PNA        VALE5       010VISTA          000000000084800000000854000000008450000000000000000000850000000013500
0202LOTE PADRAO                   COPEL       PNB*       CPLE6       010VISTA          000000000008700000000088000000000830000000000000000000083000063402100
0202LOTE PADRAO                   VALE R DOCE ON         VALE3       010VISTA          000000000091600000000917000000009100000000000000000000910000000010800
0202LOTE PADRAO                   ARACRUZ     PNB        ARCZ6       010VISTA          000000000006400000000065000000000640000000000000000000065400000028400
0202LOTE PADRAO                   TELEMIG PARTPN *       TMCP4       010VISTA          000000000003000000000030000000000300000000000000000000030000066988000
0202LOTE PADRAO                   BRASIL TELECPN *       BRTO4       010VISTA          000000000013000000000130000000001280000000000000000000128000048902700
0202LOTE PADRAO                   SABESP      ON *       SBSP3       010VISTA          000000000108100000001135000000010810000000000000000001129000005111500
0202LOTE PADRAO                   BRASKEM     PNA*       BRKM5       010VISTA          000000000445000000004450000000042500000000000000000004281000000796600
0202LOTE PADRAO                   EMBRAER     PN EJ      EMBR4       010VISTA          000000000014000000000140000000001360000000000000000000136000000012500
0202LOTE PADRAO                   TELESP      PN * EJ    TLPP4       010VISTA          000000000031600000000316000000003120000000000000000000315000010091300
0202LOTE PADRAO                   EMBRAER     ON EJ      EMBR3       010VISTA          000000000011300000000114000000001100000000000000000000111000000005700
0202LOTE PADRAO                   AMBEV       PN *       AMBV4       010VISTA          000000000590000000006000000000058800000000000000000006000000001709500
0202LOTE PADRAO                   USIMINAS    PNA        USIM5       010VISTA          000000000015600000000163000000001550000000000000000000159000000136600
0202LOTE PADRAO                   ELETROPAULO PN *       ELPL4       010VISTA          000000000025900000000260000000002500000000000000000000250000003084800
0202LOTE PADRAO                   TELE NORD CLPN *       TNEP4       010VISTA          000000000002300000000023000000000230000000000000000000023000085479400
0202LOTE PADRAO                   CEMIG       PN * EJ    CMIG4       010VISTA          000000000027900000000281000000002710000000000000000000272000034184100
0202LOTE PADRAO                   TELE CL SUL PN * EJ    TCSL4       010VISTA          000000000002300000000023000000000230000000000000000000023000062818300
0202LOTE PADRAO                   TRACTEBEL   ON *       TBLE3       010VISTA          000000000007500000000077000000000750000000000000000000077000004924400
0202LOTE PADRAO                   CEMIG       ON * EJ    CMIG3       010VISTA          000000000021800000000219000000002160000000000000000000217000000598300
0202LOTE PADRAO                   TELE CL SUL ON * EJ    TCSL3       010VISTA          000000000002000000000021000000000200000000000000000000020000011557800
0202LOTE PADRAO                   ITAUSA      PN         ITSA4       010VISTA          000000000002300000000024000000000230000000000000000000023000000160200
0202LOTE PADRAO                   V C P       PN *       VCPA4       010VISTA          000000000124000000001265000000012350000000000000000001252000003471300
0202LOTE PADRAO                   SID TUBARAO PN *       CSTB4       010VISTA          000000000054500000000553000000005370000000000000000000547000006494100
0202LOTE PADRAO                   BRADESPAR   PN *       BRAP4       010VISTA          000000000000660000000006600000000065000000000000000000006500272581000
0202LOTE PADRAO                   NET         PN         PLIM4       010VISTA          000000000000350000000003500000000033000000000000000000003300000358800
0202LOTE PADRAO                   TELE CTR OESPN * EJ    TCOC4       010VISTA          000000000005600000000057000000000550000000000000000000055000057375100
0202LOTE PADRAO                   TELEMAR N L PNA* EJ    TMAR5       010VISTA          000000000041400000000415000000004100000000000000000000412500021218600
0202LOTE PADRAO                   GERDAU      PN * EJ    GGBR4       010VISTA          000000000034000000000340000000003325000000000000000000335000000013000
0202LOTE PADRAO                   BRASIL      ON *       BBAS3       010VISTA          000000000014300000000145000000001400000000000000000000140000013984100
