00BDIN9999BOVESPA 99992003060320030603
0101IBOVESPA                      0132310131060133500000000000000000002003060300000020030603013350000000
0202LOTE PADRAO                   EMBRATEL PARPN *       EBTP4       010VISTA          000000000005500000000057500000000530000000000000000000057000345054000
0202LOTE PADRAO                   TRAN PAULISTPN * EJ    TRPL4       010VISTA          000000000007250000000073000000000710000000000000000000071000038279900
0202LOTE PADRAO                   EMBRATEL PARON *       EBTP3       010VISTA          000000000006300000000064000000000590000000000000000000064000061643600
0202LOTE PADRAO                   TELEMAR     PN * EJ    TNLP4       010VISTA          000000000034500000000346000000003350000000000000000000343000381324000
0202LOTE PADRAO                   ITAUBANCO   PN * EJ    ITAU4       010VISTA          000000000198000000001985000000019450000000000000000001985000007072700
0202LOTE PADRAO                   TELEMAR     ON * EJ    TNLP3       010VISTA          000000000024600000000248000000002410000000000000000000248000025567100
0202LOTE PADRAO                   SID NACIONALON *       CSNA3       010VISTA          000000000056300000000570000000005560000000000000000000570000032013900
0202LOTE PADRAO                   TELE LEST CLPN *       TLCP4       010VISTA          000000000000440000000004600000000044000000000000000000004600079039800
0202LOTE PADRAO                   CRT CELULAR PNA* EJ    CRTP5       010VISTA          000000000323100000003270000000031000000000000000000003200000001236700
0202LOTE PADRAO                   IPIRANGA PETPN *       PTIP4       010VISTA          000000000008100000000087000000000810000000000000000000087000004932000
0202LOTE PADRAO                   BRASIL T PARPN *       BRTP4       010VISTA          000000000021500000000217000000002130000000000000000000215000029834600
0202LOTE PADRAO                   BRASIL T PARON *       BRTP3       010VISTA          000000000016300000000166000000001630000000000000000000166000007151200
0202LOTE PADRAO                   KLABIN S/A  PN         KLBN4       010VISTA          000000000002710000000027000000000260000000000000000000026000000129100
0202LOTE PADRAO                   ACESITA     PN *       ACES4       010VISTA          000000000001400000000014000000000140000000000000000000014000368828000
0202LOTE PADRAO                   PETROBRAS   PN         PETR4       010VISTA          000000000052500000000525000000005200000000000000000000523000000079300
0202LOTE PADRAO                   ELETROBRAS  PNB*       ELET6       010VISTA          000000000025300000000253000000002460000000000000000000253000039158500
0202LOTE PADRAO                   PETROBRAS   ON         PETR3       010VISTA          000000000056500000000572000000005650000000000000000000567000000033600
0202LOTE PADRAO                   COMGAS      PNA*       CGAS5       010VISTA          000000000061500000000665000000006150000000000000000000657000002606700
0202LOTE PADRAO                   SOUZA CRUZ  ON EJ      CRUZ3       010VISTA          000000000020600000000211000000002010000000000000000000209000000006400
0202LOTE PADRAO                   ELETROBRAS  ON *       ELET3       010VISTA          000000000022500000000233000000002250000000000000000000233000006872700
0202LOTE PADRAO                   CELESC      PNB        CLSC6       010VISTA          000000000000490000000005000000000048000000000000000000005000000173800
0202LOTE PADRAO                   BRADESCO    PN * EJ    BBDC4       010VISTA          000000000011700000000118000000001160000000000000000000118000181864000
0202LOTE PADRAO                   CESP        PN *       CESP4       010VISTA          000000000008100000000083000000000790000000000000000000082000007074600
0202LOTE PADRAO                   LIGHT       ON *       LIGH3       010VISTA          000000000027750000000280000000002730000000000000000000276000000704600
0202LOTE PADRAO                   TELESP CL PAPN *       TSPP4       010VISTA          000000000004600000000047500000000450000000000000000000047500315030000
0202LOTE PADRAO                   VALE R DOCE PNA        VALE5       010VISTA          000000000081500000000820000000008120000000000000000000815000000017100
0202LOTE PADRAO                   COPEL       PNB*       CPLE6       010VISTA          000000000009600000000097500000000950000000000000000000096000051163700
0202LOTE PADRAO                   VALE R DOCE ON         VALE3       010VISTA          000000000087000000000875000000008640000000000000000000872000000008800
0202LOTE PADRAO                   ARACRUZ     PNB        ARCZ6       010VISTA          000000000006000000000060000000000590000000000000000000059000000041900
0202LOTE PADRAO                   TELEMIG PARTPN *       TMCP4       010VISTA          000000000002800000000028000000000281000000000000000000028000171586000
0202LOTE PADRAO                   BRASIL TELECPN *       BRTO4       010VISTA          000000000012800000000128000000001250000000000000000000128000119585000
0202LOTE PADRAO                   SABESP      ON *       SBSP3       010VISTA          000000000107000000001088000000010590000000000000000001070000002651900
0202LOTE PADRAO                   BRASKEM     PNA*       BRKM5       010VISTA          000000000347000000003630000000034650000000000000000003630000000176100
0202LOTE PADRAO                   EMBRAER     PN EJ      EMBR4       010VISTA          000000000011100000000111000000001080000000000000000000110000000044400
0202LOTE PADRAO                   TELESP      PN * EJ    TLPP4       010VISTA          000000000030700000000311000000003050000000000000000000311000011354900
0202LOTE PADRAO                   EMBRAER     ON EJ      EMBR3       010VISTA          000000000009100000000092000000000890000000000000000000092000000012500
0202LOTE PADRAO                   AMBEV       PN *       AMBV4       010VISTA          000000000580000000005939000000057900000000000000000005870000001274000
0202LOTE PADRAO                   USIMINAS    PNA        USIM5       010VISTA          000000000010800000000109000000001060000000000000000000109000000028500
0202LOTE PADRAO                   ELETROPAULO PN *       ELPL4       010VISTA          000000000026000000000270000000002590000000000000000000268000017523300
0202LOTE PADRAO                   TELE NORD CLPN *       TNEP4       010VISTA          000000000002400000000025200000000240000000000000000000025000038837800
0202LOTE PADRAO                   CEMIG       PN * EJ    CMIG4       010VISTA          000000000029300000000293000000002850000000000000000000293000087138800
0202LOTE PADRAO                   TELE CL SUL PN * EJ    TCSL4       010VISTA          000000000002600000000026000000000250000000000000000000026000032722700
0202LOTE PADRAO                   TRACTEBEL   ON *       TBLE3       010VISTA          000000000005250000000052000000000500000000000000000000052500124550000
0202LOTE PADRAO                   CEMIG       ON * EJ    CMIG3       010VISTA          000000000023100000000233000000002280000000000000000000233000002781300
0202LOTE PADRAO                   TELE CL SUL ON * EJ    TCSL3       010VISTA          000000000002300000000023000000000230000000000000000000023000010978700
0202LOTE PADRAO                   ITAUSA      PN         ITSA4       010VISTA          000000000002300000000024000000000230000000000000000000024000000479400
0202LOTE PADRAO                   V C P       PN *       VCPA4       010VISTA          000000000112000000001145000000011200000000000000000001140000002034100
0202LOTE PADRAO                   SID TUBARAO PN *       CSTB4       010VISTA          000000000047700000000498000000004710000000000000000000494000016855400
0202LOTE PADRAO                   BRADESPAR   PN *       BRAP4       010VISTA          000000000000650000000006700000000065000000000000000000006600216872000
0202LOTE PADRAO                   NET         PN         PLIM4       010VISTA          000000000000350000000003600000000034000000000000000000003600000386800
0202LOTE PADRAO                   TELE CTR OESPN * EJ    TCOC4       010VISTA          000000000005710000000057000000000550000000000000000000057000095120600
0202LOTE PADRAO                   TELEMAR N L PNA* EJ    TMAR5       010VISTA          000000000041800000000429000000004070000000000000000000426000043582500
0202LOTE PADRAO                   GERDAU      PN * EJ    GGBR4       010VISTA          000000000029500000000296000000002900000000000000000000291000000023300
0202LOTE PADRAO                   BRASIL      ON *       BBAS3       010VISTA          000000000016000000000165000000001550000000000000000000165000052365600
