00BDIN9999BOVESPA 99992003060420030604
0101IBOVESPA                      0133860133740137600000000000000000002003060400000020030604013718000000
0202LOTE PADRAO                   EMBRATEL PARPN *       EBTP4       010VISTA          000000000005800000000060000000000580000000000000000000059000620757000
0202LOTE PADRAO                   TRAN PAULISTPN * EJ    TRPL4       010VISTA          000000000007200000000073000000000720000000000000000000073000012580200
0202LOTE PADRAO                   EMBRATEL PARON *       EBTP3       010VISTA          000000000006400000000068000000000640000000000000000000067000194535000
0202LOTE PADRAO                   TELEMAR     PN * EJ    TNLP4       010VISTA          000000000034800000000357000000003430000000000000000000357000403070000
0202LOTE PADRAO                   ITAUBANCO   PN * EJ    ITAU4       010VISTA          000000000198000000002025000000019760000000000000000002005000013449000
0202LOTE PADRAO                   TELEMAR     ON * EJ    TNLP3       010VISTA          000000000024600000000259000000002460000000000000000000255000037176300
0202LOTE PADRAO                   SID NACIONALON *       CSNA3       010VISTA          000000000057300000000596000000005730000000000000000000592000045093700
0202LOTE PADRAO                   TELE LEST CLPN *       TLCP4       010VISTA          000000000000450000000004700000000045000000000000000000004700131173000
0202LOTE PADRAO                   CRT CELULAR PNA* EJ    CRTP5       010VISTA          000000000324000000003330000000032400000000000000000003330000001466900
0202LOTE PADRAO                   IPIRANGA PETPN *       PTIP4       010VISTA          000000000008750000000090000000000875000000000000000000090000037071900
0202LOTE PADRAO                   BRASIL T PARPN *       BRTP4       010VISTA          000000000021500000000226000000002150000000000000000000226000079076300
0202LOTE PADRAO                   BRASIL T PARON *       BRTP3       010VISTA          000000000016600000000172000000001660000000000000000000171000017895000
0202LOTE PADRAO                   KLABIN S/A  PN         KLBN4       010VISTA          000000000002600000000027100000000260000000000000000000026000000163900
0202LOTE PADRAO                   ACESITA     PN *       ACES4       010VISTA          000000000001400000000014000000000140000000000000000000014000105694000
0202LOTE PADRAO                   PETROBRAS   PN         PETR4       010VISTA          000000000053000000000542500000005260000000000000000000540000000122000
0202LOTE PADRAO                   ELETROBRAS  PNB*       ELET6       010VISTA          000000000025400000000267000000002540000000000000000000265000089943700
0202LOTE PADRAO                   PETROBRAS   ON         PETR3       010VISTA          000000000056700000000588000000005670000000000000000000586000000023900
0202LOTE PADRAO                   COMGAS      PNA*       CGAS5       010VISTA          000000000066000000000719000000006600000000000000000000695000004022500
0202LOTE PADRAO                   SOUZA CRUZ  ON EJ      CRUZ3       010VISTA          000000000020900000000213000000002075000000000000000000211000000013200
0202LOTE PADRAO                   ELETROBRAS  ON *       ELET3       010VISTA          000000000023500000000246000000002330000000000000000000243000053210400
0202LOTE PADRAO                   CELESC      PNB        CLSC6       010VISTA          000000000000510000000005200000000050000000000000000000005100000590000
0202LOTE PADRAO                   BRADESCO    PN * EJ    BBDC4       010VISTA          000000000011900000000120000000001190000000000000000000120000282954000
0202LOTE PADRAO                   CESP        PN *       CESP4       010VISTA          000000000008400000000086000000000830000000000000000000086000019914700
0202LOTE PADRAO                   LIGHT       ON *       LIGH3       010VISTA          000000000028500000000291000000002810000000000000000000286000001681000
0202LOTE PADRAO                   TELESP CL PAPN *       TSPP4       010VISTA          000000000004700000000048000000000460000000000000000000047000795079000
0202LOTE PADRAO                   VALE R DOCE PNA        VALE5       010VISTA          000000000081000000000824000000008010000000000000000000816000000029200
0202LOTE PADRAO                   COPEL       PNB*       CPLE6       010VISTA          000000000009800000000102000000000975000000000000000000102000095162800
0202LOTE PADRAO                   VALE R DOCE ON         VALE3       010VISTA          000000000087400000000876000000008630000000000000000000872000000005100
0202LOTE PADRAO                   ARACRUZ     PNB        ARCZ6       010VISTA          000000000005900000000059000000000570000000000000000000059000000084200
0202LOTE PADRAO                   TELEMIG PARTPN *       TMCP4       010VISTA          000000000002800000000029000000000280000000000000000000029400237284000
0202LOTE PADRAO                   BRASIL TELECPN *       BRTO4       010VISTA          000000000012900000000135000000001290000000000000000000134000302777000
0202LOTE PADRAO                   SABESP      ON *       SBSP3       010VISTA          000000000107500000001109000000010700000000000000000001097000007570100
0202LOTE PADRAO                   BRASKEM     PNA*       BRKM5       010VISTA          000000000363000000003810000000036300000000000000000003810000000253100
0202LOTE PADRAO                   EMBRAER     PN EJ      EMBR4       010VISTA          000000000011000000000115000000001090000000000000000000114000000129300
0202LOTE PADRAO                   TELESP      PN * EJ    TLPP4       010VISTA          000000000031100000000318000000003100000000000000000000316000021587800
0202LOTE PADRAO                   EMBRAER     ON EJ      EMBR3       010VISTA          000000000009250000000096000000000910000000000000000000096000000024000
0202LOTE PADRAO                   AMBEV       PN *       AMBV4       010VISTA          000000000580100000006034000000057500000000000000000005990000001632300
0202LOTE PADRAO                   USIMINAS    PNA        USIM5       010VISTA          000000000010900000000114000000001090000000000000000000113000000140200
0202LOTE PADRAO                   ELETROPAULO PN *       ELPL4       010VISTA          000000000027400000000281000000002700000000000000000000277500014192600
0202LOTE PADRAO                   TELE NORD CLPN *       TNEP4       010VISTA          000000000002500000000026000000000250000000000000000000025000109314000
0202LOTE PADRAO                   CEMIG       PN * EJ    CMIG4       010VISTA          000000000029700000000305000000002940000000000000000000303000127608000
0202LOTE PADRAO                   TELE CL SUL PN * EJ    TCSL4       010VISTA          000000000002600000000027900000000260000000000000000000027700110696000
0202LOTE PADRAO                   TRACTEBEL   ON *       TBLE3       010VISTA          000000000005300000000057000000000530000000000000000000056000009771400
0202LOTE PADRAO                   CEMIG       ON * EJ    CMIG3       010VISTA          000000000023900000000246000000002380000000000000000000242500000770000
0202LOTE PADRAO                   TELE CL SUL ON * EJ    TCSL3       010VISTA          000000000002300000000025000000000230000000000000000000024000051228500
0202LOTE PADRAO                   ITAUSA      PN         ITSA4       010VISTA          000000000002400000000024000000000240000000000000000000024000000328200
0202LOTE PADRAO                   V C P       PN *       VCPA4       010VISTA          000000000113400000001134000000011000000000000000000001120000005974000
0202LOTE PADRAO                   SID TUBARAO PN *       CSTB4       010VISTA          000000000049900000000500000000004850000000000000000000493000015289600
0202LOTE PADRAO                   BRADESPAR   PN *       BRAP4       010VISTA          000000000000660000000006700000000066000000000000000000006600147345000
0202LOTE PADRAO                   NET         PN         PLIM4       010VISTA          000000000000360000000003800000000035000000000000000000003700001424100
0202LOTE PADRAO                   TELE CTR OESPN * EJ    TCOC4       010VISTA          000000000005700000000058000000000560000000000000000000057000323378000
0202LOTE PADRAO                   TELEMAR N L PNA* EJ    TMAR5       010VISTA          000000000043000000000457000000004280000000000000000000456000044445400
0202LOTE PADRAO                   GERDAU      PN * EJ    GGBR4       010VISTA          000000000029600000000301000000002910000000000000000000298000000039700
0202LOTE PADRAO                   BRASIL      ON *       BBAS3       010VISTA          000000000016300000000168000000001550000000000000000000155000069171100
