00BDIN9999BOVESPA 99992003082620030826
0101IBOVESPA                      0144750144250149480000000000000000002003082600000020030826014878000000
0202LOTE PADRAO                   EMBRATEL PARPN *       EBTP4       010VISTA          000000000005900000000062500000000580000000000000000000062000428922000
0202LOTE PADRAO                   TRAN PAULISTPN * EJ    TRPL4       010VISTA          000000000008500000000089000000000850000000000000000000089000035573800
0202LOTE PADRAO                   EMBRATEL PARON *       EBTP3       010VISTA          000000000006000000000064000000000600000000000000000000064000074185700
0202LOTE PADRAO                   TELEMAR     PN * EJ    TNLP4       010VISTA          000000000035300000000372500000003510000000000000000000372000459834000
0202LOTE PADRAO                   ITAUBANCO   PN * EJ    ITAU4       010VISTA          000000000216000000002195000000021300000000000000000002185000011929400
0202LOTE PADRAO                   TELEMAR     ON * EJ    TNLP3       010VISTA          000000000025600000000270000000002550000000000000000000270000018715300
0202LOTE PADRAO                   SID NACIONALON *       CSNA3       010VISTA          000000000097500000001009000000009690000000000000000000990000015985200
0202LOTE PADRAO                   TELE LEST CLPN *       TLCP4       010VISTA          000000000000450000000004600000000044000000000000000000004500214932000
0202LOTE PADRAO                   CRT CELULAR PNA* EJ    CRTP5       010VISTA          000000000407000000004400000000040700000000000000000004269000001197000
0202LOTE PADRAO                   IPIRANGA PETPN *       PTIP4       010VISTA          000000000010250000000105000000001010000000000000000000105000012058000
0202LOTE PADRAO                   BRASIL T PARPN *       BRTP4       010VISTA          000000000021800000000223000000002160000000000000000000220000082080600
0202LOTE PADRAO                   BRASIL T PARON *       BRTP3       010VISTA          000000000016200000000168000000001620000000000000000000166000008610200
0202LOTE PADRAO                   KLABIN S/A  PN         KLBN4       010VISTA          000000000003100000000031000000000310000000000000000000031000000070200
0202LOTE PADRAO                   ACESITA     PN *       ACES4       010VISTA          000000000001480000000015400000000148000000000000000000015200636510000
0202LOTE PADRAO                   PETROBRAS   PN         PETR4       010VISTA          000000000057300000000580000000005675000000000000000000577000000117400
0202LOTE PADRAO                   ELETROBRAS  PNB*       ELET6       010VISTA          000000000023300000000243000000002330000000000000000000241000049603400
0202LOTE PADRAO                   PETROBRAS   ON         PETR3       010VISTA          000000000061300000000625000000006120000000000000000000620000000036200
0202LOTE PADRAO                   COMGAS      PNA*       CGAS5       010VISTA          000000000088200000000882000000008520000000000000000000861000003924800
0202LOTE PADRAO                   SOUZA CRUZ  ON EJ      CRUZ3       010VISTA          000000000023600000000241000000002360000000000000000000240000000008100
0202LOTE PADRAO                   ELETROBRAS  ON *       ELET3       010VISTA          000000000021000000000218000000002060000000000000000000216000018821100
0202LOTE PADRAO                   CELESC      PNB        CLSC6       010VISTA          000000000000440000000004700000000044000000000000000000004600000653000
0202LOTE PADRAO                   BRADESCO    PN * EJ    BBDC4       010VISTA          000000000012500000000128000000001225000000000000000000127500186492000
0202LOTE PADRAO                   CESP        PN *       CESP4       010VISTA          000000000007100000000072000000000700000000000000000000072000014030000
0202LOTE PADRAO                   LIGHT       ON *       LIGH3       010VISTA          000000000027250000000293000000002725000000000000000000292000001327400
0202LOTE PADRAO                   TELESP CL PAPN *       TSPP4       010VISTA          000000000004750000000049000000000460000000000000000000049000337643000
0202LOTE PADRAO                   VALE R DOCE PNA        VALE5       010VISTA          000000000100000000001017000000009870000000000000000000992000000033700
0202LOTE PADRAO                   COPEL       PNB*       CPLE6       010VISTA          000000000007900000000082500000000780000000000000000000082000186840000
0202LOTE PADRAO                   VALE R DOCE ON         VALE3       010VISTA          000000000109500000001114000000010840000000000000000001084000000005700
0202LOTE PADRAO                   ARACRUZ     PNB        ARCZ6       010VISTA          000000000007500000000077900000000750000000000000000000076000000032800
0202LOTE PADRAO                   TELEMIG PARTPN *       TMCP4       010VISTA          000000000003100000000033000000000310000000000000000000033000096377800
0202LOTE PADRAO                   BRASIL TELECPN *       BRTO4       010VISTA          000000000012900000000136000000001280000000000000000000134000116634000
0202LOTE PADRAO                   SABESP      ON *       SBSP3       010VISTA          000000000112000000001249000000011200000000000000000001190000017874400
0202LOTE PADRAO                   BRASKEM     PNA*       BRKM5       010VISTA          000000000628000000006320000000060000000000000000000006229000001087500
0202LOTE PADRAO                   EMBRAER     PN EJ      EMBR4       010VISTA          000000000013700000000139000000001370000000000000000000139000000065700
0202LOTE PADRAO                   TELESP      PN * EJ    TLPP4       010VISTA          000000000030800000000322000000003050000000000000000000318000018857200
0202LOTE PADRAO                   EMBRAER     ON EJ      EMBR3       010VISTA          000000000010600000000110000000001060000000000000000000110000000017500
0202LOTE PADRAO                   AMBEV       PN *       AMBV4       010VISTA          000000000605000000006050000000057000000000000000000005974000003296400
0202LOTE PADRAO                   USIMINAS    PNA        USIM5       010VISTA          000000000017800000000183000000001760000000000000000000179000000098300
0202LOTE PADRAO                   ELETROPAULO PN *       ELPL4       010VISTA          000000000024800000000275000000002480000000000000000000272500024484600
0202LOTE PADRAO                   TELE NORD CLPN *       TNEP4       010VISTA          000000000002500000000025000000000248000000000000000000025000142359000
0202LOTE PADRAO                   CEMIG       PN * EJ    CMIG4       010VISTA          000000000029300000000304000000002900000000000000000000303000072014800
0202LOTE PADRAO                   TELE CL SUL PN * EJ    TCSL4       010VISTA          000000000002400000000025000000000240000000000000000000025000131711000
0202LOTE PADRAO                   TRACTEBEL   ON *       TBLE3       010VISTA          000000000007700000000080000000000770000000000000000000079000004677100
0202LOTE PADRAO                   CEMIG       ON * EJ    CMIG3       010VISTA          000000000023300000000236000000002330000000000000000000234000001224400
0202LOTE PADRAO                   TELE CL SUL ON * EJ    TCSL3       010VISTA          000000000002100000000022000000000210000000000000000000022000060350800
0202LOTE PADRAO                   ITAUSA      PN         ITSA4       010VISTA          000000000002600000000027000000000260000000000000000000027100000143000
0202LOTE PADRAO                   V C P       PN *       VCPA4       010VISTA          000000000146000000001510000000014510000000000000000001506000003522600
0202LOTE PADRAO                   SID TUBARAO PN *       CSTB4       010VISTA          000000000063000000000657000000006300000000000000000000640000014418800
0202LOTE PADRAO                   BRADESPAR   PN *       BRAP4       010VISTA          000000000000770000000007900000000076000000000000000000007900097438200
0202LOTE PADRAO                   NET         PN         PLIM4       010VISTA          000000000000340000000003600000000033000000000000000000003600001000000
0202LOTE PADRAO                   TELE CTR OESPN * EJ    TCOC4       010VISTA          000000000005900000000062000000000590000000000000000000060000088689800
0202LOTE PADRAO                   TELEMAR N L PNA* EJ    TMAR5       010VISTA          000000000041200000000432000000004120000000000000000000431000037283500
0202LOTE PADRAO                   GERDAU      PN * EJ    GGBR4       010VISTA          000000000043100000000455000000004290000000000000000000452000000040800
0202LOTE PADRAO                   BRASIL      ON *       BBAS3       010VISTA          000000000015400000000159000000001540000000000000000000156000019165500
