00BDIN9999BOVESPA 99992003042820030428
0101IBOVESPA                      0121280120090124800000000000000000002003042800000020030428012462000000
0202LOTE PADRAO                   EMBRATEL PARPN *       EBTP4       010VISTA          000000000004500000000047900000000440000000000000000000047000386942000
0202LOTE PADRAO                   TRAN PAULISTPN * EJ    TRPL4       010VISTA          000000000006300000000063000000000610000000000000000000062000005793000
0202LOTE PADRAO                   EMBRATEL PARON *       EBTP3       010VISTA          000000000005000000000053000000000500000000000000000000053000027196300
0202LOTE PADRAO                   TELEMAR     PN * EJ    TNLP4       010VISTA          000000000029600000000310000000002950000000000000000000310000475434000
0202LOTE PADRAO                   ITAUBANCO   PN * EJ    ITAU4       010VISTA          000000000192000000001982500000019150000000000000000001982500008198900
0202LOTE PADRAO                   TELEMAR     ON * EJ    TNLP3       010VISTA          000000000021000000000220000000002080000000000000000000216000015989600
0202LOTE PADRAO                   SID NACIONALON *       CSNA3       010VISTA          000000000066500000000679000000006580000000000000000000679000014621800
0202LOTE PADRAO                   TELE LEST CLPN *       TLCP4       010VISTA          000000000000440000000004500000000043000000000000000000004500115956000
0202LOTE PADRAO                   CRT CELULAR PNA* EJ    CRTP5       010VISTA          000000000339000000003500000000033900000000000000000003500000001087300
0202LOTE PADRAO                   IPIRANGA PETPN *       PTIP4       010VISTA          000000000008000000000085000000000800000000000000000000084000006298100
0202LOTE PADRAO                   BRASIL T PARPN *       BRTP4       010VISTA          000000000019300000000200000000001910000000000000000000198000029830300
0202LOTE PADRAO                   BRASIL T PARON *       BRTP3       010VISTA          000000000014600000000160000000001460000000000000000000155000005268400
0202LOTE PADRAO                   KLABIN S/A  PN         KLBN4       010VISTA          000000000002000000000021000000000197000000000000000000021000000030000
0202LOTE PADRAO                   ACESITA     PN *       ACES4       010VISTA          000000000001270000000013000000000127000000000000000000013000284753000
0202LOTE PADRAO                   PETROBRAS   PN         PETR4       010VISTA          000000000047500000000481000000004700000000000000000000478000000055200
0202LOTE PADRAO                   ELETROBRAS  PNB*       ELET6       010VISTA          000000000023400000000248000000002310000000000000000000246000058738900
0202LOTE PADRAO                   PETROBRAS   ON         PETR3       010VISTA          000000000051000000000522000000005100000000000000000000521000000018100
0202LOTE PADRAO                   COMGAS      PNA*       CGAS5       010VISTA          000000000052500000000535000000005050000000000000000000533000001035000
0202LOTE PADRAO                   SOUZA CRUZ  ON EJ      CRUZ3       010VISTA          000000000018100000000181000000001770000000000000000000180000000003500
0202LOTE PADRAO                   ELETROBRAS  ON *       ELET3       010VISTA          000000000020900000000222000000002050000000000000000000221000024874900
0202LOTE PADRAO                   CELESC      PNB        CLSC6       010VISTA          000000000000460000000004700000000045000000000000000000004700000102500
0202LOTE PADRAO                   BRADESCO    PN * EJ    BBDC4       010VISTA          000000000011900000000122000000001160000000000000000000122000164500000
0202LOTE PADRAO                   CESP        PN *       CESP4       010VISTA          000000000007750000000080000000000740000000000000000000079000017840500
0202LOTE PADRAO                   LIGHT       ON *       LIGH3       010VISTA          000000000028100000000288000000002750000000000000000000286000001866700
0202LOTE PADRAO                   TELESP CL PAPN *       TSPP4       010VISTA          000000000004500000000046000000000430000000000000000000045000590136000
0202LOTE PADRAO                   VALE R DOCE PNA        VALE5       010VISTA          000000000078500000000787000000007700000000000000000000782000000029400
0202LOTE PADRAO                   COPEL       PNB*       CPLE6       010VISTA          000000000009300000000095000000000900000000000000000000095000048739400
0202LOTE PADRAO                   VALE R DOCE ON         VALE3       010VISTA          000000000080000000000825000000008000000000000000000000814000000006800
0202LOTE PADRAO                   ARACRUZ     PNB        ARCZ6       010VISTA          000000000006400000000064000000000625000000000000000000062000000029500
0202LOTE PADRAO                   TELEMIG PARTPN *       TMCP4       010VISTA          000000000002600000000027100000000260000000000000000000027000094389800
0202LOTE PADRAO                   BRASIL TELECPN *       BRTO4       010VISTA          000000000012000000000123000000001180000000000000000000123000204326000
0202LOTE PADRAO                   SABESP      ON *       SBSP3       010VISTA          000000000100500000001005000000009800000000000000000000997000005226400
0202LOTE PADRAO                   BRASKEM     PNA*       BRKM5       010VISTA          000000000285000000002950000000028000000000000000000002950000000291000
0202LOTE PADRAO                   EMBRAER     PN EJ      EMBR4       010VISTA          000000000010000000000101000000000980000000000000000000100000000042800
0202LOTE PADRAO                   TELESP      PN * EJ    TLPP4       010VISTA          000000000032000000000326000000003180000000000000000000326000014130300
0202LOTE PADRAO                   EMBRAER     ON EJ      EMBR3       010VISTA          000000000008300000000086000000000825000000000000000000083000000017300
0202LOTE PADRAO                   AMBEV       PN *       AMBV4       010VISTA          000000000565000000005785000000056500000000000000000005779000000908900
0202LOTE PADRAO                   USIMINAS    PNA        USIM5       010VISTA          000000000010500000000110000000001050000000000000000000109000000090500
0202LOTE PADRAO                   ELETROPAULO PN *       ELPL4       010VISTA          000000000027000000000285000000002610000000000000000000282000003862300
0202LOTE PADRAO                   TELE NORD CLPN *       TNEP4       010VISTA          000000000002300000000024000000000230000000000000000000024000094997500
0202LOTE PADRAO                   CEMIG       PN * EJ    CMIG4       010VISTA          000000000029000000000304000000002800000000000000000000304000065544800
0202LOTE PADRAO                   TELE CL SUL PN * EJ    TCSL4       010VISTA          000000000002300000000024000000000230000000000000000000024000158750000
0202LOTE PADRAO                   TRACTEBEL   ON *       TBLE3       010VISTA          000000000004600000000049000000000430000000000000000000045000005461700
0202LOTE PADRAO                   CEMIG       ON * EJ    CMIG3       010VISTA          000000000021500000000224000000002130000000000000000000223000001659400
0202LOTE PADRAO                   TELE CL SUL ON * EJ    TCSL3       010VISTA          000000000002300000000023000000000220000000000000000000023000057996400
0202LOTE PADRAO                   ITAUSA      PN         ITSA4       010VISTA          000000000002100000000023000000000210000000000000000000023000000224800
0202LOTE PADRAO                   V C P       PN *       VCPA4       010VISTA          000000000111100000001129000000011000000000000000000001119000001725400
0202LOTE PADRAO                   SID TUBARAO PN *       CSTB4       010VISTA          000000000046500000000468000000004600000000000000000000467000006682400
0202LOTE PADRAO                   BRADESPAR   PN *       BRAP4       010VISTA          000000000000650000000006600000000064000000000000000000006600113096000
0202LOTE PADRAO                   NET         PN         PLIM4       010VISTA          000000000000340000000003800000000033000000000000000000003700001603500
0202LOTE PADRAO                   TELE CTR OESPN * EJ    TCOC4       010VISTA          000000000005500000000056000000000530000000000000000000056000183524000
0202LOTE PADRAO                   TELEMAR N L PNA* EJ    TMAR5       010VISTA          000000000039700000000417000000003970000000000000000000417000021607300
0202LOTE PADRAO                   GERDAU      PN * EJ    GGBR4       010VISTA          000000000033100000000331000000003270000000000000000000330000030426500
0202LOTE PADRAO                   BRASIL      ON *       BBAS3       010VISTA          000000000012300000000129000000001210000000000000000000128000034092700
