00BDIN9999BOVESPA 99992003071820030718
0101IBOVESPA                      0136220136220138090000000000000000002003071800000020030718013794000000
0202LOTE PADRAO                   EMBRATEL PARPN *       EBTP4       010VISTA          000000000006000000000062000000000600000000000000000000062000625570000
0202LOTE PADRAO                   TRAN PAULISTPN * EJ    TRPL4       010VISTA          000000000007600000000077000000000760000000000000000000077000003871600
0202LOTE PADRAO                   EMBRATEL PARON *       EBTP3       010VISTA          000000000006710000000070000000000671000000000000000000070000042804800
0202LOTE PADRAO                   TELEMAR     PN * EJ    TNLP4       010VISTA          000000000033500000000339000000003330000000000000000000338000300949000
0202LOTE PADRAO                   ITAUBANCO   PN * EJ    ITAU4       010VISTA          000000000196200000001970000000019450000000000000000001960000007460200
0202LOTE PADRAO                   TELEMAR     ON * EJ    TNLP3       010VISTA          000000000024300000000253000000002430000000000000000000253000012467700
0202LOTE PADRAO                   SID NACIONALON *       CSNA3       010VISTA          000000000071900000000722000000007050000000000000000000722000010766000
0202LOTE PADRAO                   TELE LEST CLPN *       TLCP4       010VISTA          000000000000450000000004500000000044000000000000000000004400015394600
0202LOTE PADRAO                   CRT CELULAR PNA* EJ    CRTP5       010VISTA          000000000342000000003600000000034200000000000000000003600000001026000
0202LOTE PADRAO                   IPIRANGA PETPN *       PTIP4       010VISTA          000000000010750000000111000000001075000000000000000000111000009777100
0202LOTE PADRAO                   BRASIL T PARPN *       BRTP4       010VISTA          000000000021250000000215000000002110000000000000000000215000046063800
0202LOTE PADRAO                   BRASIL T PARON *       BRTP3       010VISTA          000000000016000000000163000000001600000000000000000000163000002415000
0202LOTE PADRAO                   KLABIN S/A  PN         KLBN4       010VISTA          000000000002800000000028000000000281000000000000000000028000000029600
0202LOTE PADRAO                   ACESITA     PN *       ACES4       010VISTA          000000000001400000000014000000000140000000000000000000014000155400000
0202LOTE PADRAO                   PETROBRAS   PN         PETR4       010VISTA          000000000056300000000574000000005620000000000000000000572500000140600
0202LOTE PADRAO                   ELETROBRAS  PNB*       ELET6       010VISTA          000000000024000000000242000000002380000000000000000000239000022215400
0202LOTE PADRAO                   PETROBRAS   ON         PETR3       010VISTA          000000000060200000000613000000006020000000000000000000610000000029200
0202LOTE PADRAO                   COMGAS      PNA*       CGAS5       010VISTA          000000000069700000000709000000006900000000000000000000709000004459400
0202LOTE PADRAO                   SOUZA CRUZ  ON EJ      CRUZ3       010VISTA          000000000022600000000228000000002230000000000000000000223000000005500
0202LOTE PADRAO                   ELETROBRAS  ON *       ELET3       010VISTA          000000000022000000000222500000002160000000000000000000221000033898600
0202LOTE PADRAO                   CELESC      PNB        CLSC6       010VISTA          000000000000460000000004700000000046000000000000000000004600000434300
0202LOTE PADRAO                   BRADESCO    PN * EJ    BBDC4       010VISTA          000000000011200000000114000000001120000000000000000000114000123604000
0202LOTE PADRAO                   CESP        PN *       CESP4       010VISTA          000000000007300000000073000000000720000000000000000000072000002075900
0202LOTE PADRAO                   LIGHT       ON *       LIGH3       010VISTA          000000000026300000000268000000002610000000000000000000266000000672100
0202LOTE PADRAO                   TELESP CL PAPN *       TSPP4       010VISTA          000000000004600000000047000000000460000000000000000000046000261501000
0202LOTE PADRAO                   VALE R DOCE PNA        VALE5       010VISTA          000000000085200000000858000000008470000000000000000000850000000024600
0202LOTE PADRAO                   COPEL       PNB*       CPLE6       010VISTA          000000000008800000000088000000000850000000000000000000086000073714100
0202LOTE PADRAO                   VALE R DOCE ON         VALE3       010VISTA          000000000091400000000920000000009100000000000000000000917000000007900
0202LOTE PADRAO                   ARACRUZ     PNB        ARCZ6       010VISTA          000000000006300000000064000000000630000000000000000000064000000019400
0202LOTE PADRAO                   TELEMIG PARTPN *       TMCP4       010VISTA          000000000003000000000030000000000300000000000000000000030000058303900
0202LOTE PADRAO                   BRASIL TELECPN *       BRTO4       010VISTA          000000000013000000000131000000001290000000000000000000131000060766000
0202LOTE PADRAO                   SABESP      ON *       SBSP3       010VISTA          000000000108400000001100000000010550000000000000000001095000002422500
0202LOTE PADRAO                   BRASKEM     PNA*       BRKM5       010VISTA          000000000444500000004469000000044100000000000000000004435000000176000
0202LOTE PADRAO                   EMBRAER     PN EJ      EMBR4       010VISTA          000000000013600000000140000000001360000000000000000000140000000029200
0202LOTE PADRAO                   TELESP      PN * EJ    TLPP4       010VISTA          000000000031000000000316000000003080000000000000000000313000013477800
0202LOTE PADRAO                   EMBRAER     ON EJ      EMBR3       010VISTA          000000000010900000000114000000001090000000000000000000114000000006300
0202LOTE PADRAO                   AMBEV       PN *       AMBV4       010VISTA          000000000587000000005930000000058700000000000000000005900000001001300
0202LOTE PADRAO                   USIMINAS    PNA        USIM5       010VISTA          000000000015250000000156000000001500000000000000000000155000000128400
0202LOTE PADRAO                   ELETROPAULO PN *       ELPL4       010VISTA          000000000025400000000262000000002530000000000000000000258000004965000
0202LOTE PADRAO                   TELE NORD CLPN *       TNEP4       010VISTA          000000000002300000000023000000000230000000000000000000023000099580000
0202LOTE PADRAO                   CEMIG       PN * EJ    CMIG4       010VISTA          000000000027800000000279000000002730000000000000000000278000054718400
0202LOTE PADRAO                   TELE CL SUL PN * EJ    TCSL4       010VISTA          000000000002300000000024000000000230000000000000000000023000070036400
0202LOTE PADRAO                   TRACTEBEL   ON *       TBLE3       010VISTA          000000000007600000000078000000000760000000000000000000077000004900000
0202LOTE PADRAO                   CEMIG       ON * EJ    CMIG3       010VISTA          000000000021600000000218000000002160000000000000000000218000000383200
0202LOTE PADRAO                   TELE CL SUL ON * EJ    TCSL3       010VISTA          000000000002000000000021000000000200000000000000000000020000013632900
0202LOTE PADRAO                   ITAUSA      PN         ITSA4       010VISTA          000000000002300000000024000000000230000000000000000000023000000284900
0202LOTE PADRAO                   V C P       PN *       VCPA4       010VISTA          000000000124000000001240000000012110000000000000000001240000001893000
0202LOTE PADRAO                   SID TUBARAO PN *       CSTB4       010VISTA          000000000054500000000553000000005450000000000000000000545000009079800
0202LOTE PADRAO                   BRADESPAR   PN *       BRAP4       010VISTA          000000000000640000000006600000000064000000000000000000006600211268000
0202LOTE PADRAO                   NET         PN         PLIM4       010VISTA          000000000000350000000003500000000034000000000000000000003400000181900
0202LOTE PADRAO                   TELE CTR OESPN * EJ    TCOC4       010VISTA          000000000005700000000057000000000550000000000000000000056000063802000
0202LOTE PADRAO                   TELEMAR N L PNA* EJ    TMAR5       010VISTA          000000000041300000000415000000004110000000000000000000413000032305600
0202LOTE PADRAO                   GERDAU      PN * EJ    GGBR4       010VISTA          000000000034000000000341000000003360000000000000000000336000000009600
0202LOTE PADRAO                   BRASIL      ON *       BBAS3       010VISTA          000000000014300000000145000000001430000000000000000000144000012697900
