00BDIN9999BOVESPA 99992003051620030516
0101IBOVESPA                      0131430128770132250000000000000000002003051600000020030516013225000000
0202LOTE PADRAO                   EMBRATEL PARPN *       EBTP4       010VISTA          000000000004500000000047000000000440000000000000000000047500393937000
0202LOTE PADRAO                   TRAN PAULISTPN * EJ    TRPL4       010VISTA          000000000007500000000075000000000710000000000000000000075000014423300
0202LOTE PADRAO                   EMBRATEL PARON *       EBTP3       010VISTA          000000000005200000000053000000000500000000000000000000053000042969200
0202LOTE PADRAO                   TELEMAR     PN * EJ    TNLP4       010VISTA          000000000034500000000352000000003380000000000000000000349000511080000
0202LOTE PADRAO                   ITAUBANCO   PN * EJ    ITAU4       010VISTA          000000000200000000002020000000019700000000000000000002020000009043700
0202LOTE PADRAO                   TELEMAR     ON * EJ    TNLP3       010VISTA          000000000024750000000255000000002400000000000000000000253000032468400
0202LOTE PADRAO                   SID NACIONALON *       CSNA3       010VISTA          000000000056700000000567500000005420000000000000000000565000031520500
0202LOTE PADRAO                   TELE LEST CLPN *       TLCP4       010VISTA          000000000000450000000004500000000044000000000000000000004500092828000
0202LOTE PADRAO                   CRT CELULAR PNA* EJ    CRTP5       010VISTA          000000000341500000003550000000033500000000000000000003548000000380400
0202LOTE PADRAO                   IPIRANGA PETPN *       PTIP4       010VISTA          000000000008600000000086000000000820000000000000000000084000015293500
0202LOTE PADRAO                   BRASIL T PARPN *       BRTP4       010VISTA          000000000021600000000221000000002160000000000000000000220000099105400
0202LOTE PADRAO                   BRASIL T PARON *       BRTP3       010VISTA          000000000016100000000166000000001580000000000000000000165000004333200
0202LOTE PADRAO                   KLABIN S/A  PN         KLBN4       010VISTA          000000000001990000000020000000000190000000000000000000020000000077000
0202LOTE PADRAO                   ACESITA     PN *       ACES4       010VISTA          000000000001300000000013000000000130000000000000000000013000188097000
0202LOTE PADRAO                   PETROBRAS   PN         PETR4       010VISTA          000000000055800000000562000000005360000000000000000000542500000219800
0202LOTE PADRAO                   ELETROBRAS  PNB*       ELET6       010VISTA          000000000024600000000246000000002350000000000000000000245000120602000
0202LOTE PADRAO                   PETROBRAS   ON         PETR3       010VISTA          000000000059500000000605000000005770000000000000000000588000000038700
0202LOTE PADRAO                   COMGAS      PNA*       CGAS5       010VISTA          000000000056700000000580000000005500000000000000000000579000000808000
0202LOTE PADRAO                   SOUZA CRUZ  ON EJ      CRUZ3       010VISTA          000000000018600000000188000000001860000000000000000000187500000011500
0202LOTE PADRAO                   ELETROBRAS  ON *       ELET3       010VISTA          000000000023100000000233000000002200000000000000000000229000009721700
0202LOTE PADRAO                   CELESC      PNB        CLSC6       010VISTA          000000000000500000000005100000000048000000000000000000005100000284100
0202LOTE PADRAO                   BRADESCO    PN * EJ    BBDC4       010VISTA          000000000011800000000118000000001150000000000000000000116000288823000
0202LOTE PADRAO                   CESP        PN *       CESP4       010VISTA          000000000008800000000088000000000830000000000000000000088000010081500
0202LOTE PADRAO                   LIGHT       ON *       LIGH3       010VISTA          000000000029100000000305000000002800000000000000000000300000001184600
0202LOTE PADRAO                   TELESP CL PAPN *       TSPP4       010VISTA          000000000004600000000046000000000450000000000000000000045000533570000
0202LOTE PADRAO                   VALE R DOCE PNA        VALE5       010VISTA          000000000080000000000805000000007960000000000000000000797000000039800
0202LOTE PADRAO                   COPEL       PNB*       CPLE6       010VISTA          000000000010200000000103000000000950000000000000000000101000067310300
0202LOTE PADRAO                   VALE R DOCE ON         VALE3       010VISTA          000000000084000000000847000000008320000000000000000000845000000004300
0202LOTE PADRAO                   ARACRUZ     PNB        ARCZ6       010VISTA          000000000005400000000055000000000540000000000000000000055000000067200
0202LOTE PADRAO                   TELEMIG PARTPN *       TMCP4       010VISTA          000000000002750000000028000000000270000000000000000000028000073252300
0202LOTE PADRAO                   BRASIL TELECPN *       BRTO4       010VISTA          000000000013000000000134000000001300000000000000000000133000066416600
0202LOTE PADRAO                   SABESP      ON *       SBSP3       010VISTA          000000000107100000001089000000010550000000000000000001089000005150400
0202LOTE PADRAO                   BRASKEM     PNA*       BRKM5       010VISTA          000000000361500000003749000000035700000000000000000003730000000701400
0202LOTE PADRAO                   EMBRAER     PN EJ      EMBR4       010VISTA          000000000010900000000109000000001060000000000000000000108000000071200
0202LOTE PADRAO                   TELESP      PN * EJ    TLPP4       010VISTA          000000000030500000000327000000003050000000000000000000318000014040100
0202LOTE PADRAO                   EMBRAER     ON EJ      EMBR3       010VISTA          000000000009000000000091000000000860000000000000000000091000000028600
0202LOTE PADRAO                   AMBEV       PN *       AMBV4       010VISTA          000000000600000000006110000000060000000000000000000006070000001494600
0202LOTE PADRAO                   USIMINAS    PNA        USIM5       010VISTA          000000000010400000000104000000000980000000000000000000103000000062600
0202LOTE PADRAO                   ELETROPAULO PN *       ELPL4       010VISTA          000000000029600000000298000000002780000000000000000000298000009108400
0202LOTE PADRAO                   TELE NORD CLPN *       TNEP4       010VISTA          000000000002520000000026000000000240000000000000000000026000137010000
0202LOTE PADRAO                   CEMIG       PN * EJ    CMIG4       010VISTA          000000000030800000000318000000003000000000000000000000318000053568100
0202LOTE PADRAO                   TELE CL SUL PN * EJ    TCSL4       010VISTA          000000000002600000000027000000000250000000000000000000027700119425000
0202LOTE PADRAO                   TRACTEBEL   ON *       TBLE3       010VISTA          000000000004700000000049000000000450000000000000000000047000028152800
0202LOTE PADRAO                   CEMIG       ON * EJ    CMIG3       010VISTA          000000000024000000000250000000002360000000000000000000250000001165000
0202LOTE PADRAO                   TELE CL SUL ON * EJ    TCSL3       010VISTA          000000000002300000000025000000000230000000000000000000024000016646000
0202LOTE PADRAO                   ITAUSA      PN         ITSA4       010VISTA          000000000002300000000024000000000230000000000000000000023000000164900
0202LOTE PADRAO                   V C P       PN *       VCPA4       010VISTA          000000000102000000001027000000009950000000000000000001011000003084200
0202LOTE PADRAO                   SID TUBARAO PN *       CSTB4       010VISTA          000000000046800000000472000000004620000000000000000000472000006651500
0202LOTE PADRAO                   BRADESPAR   PN *       BRAP4       010VISTA          000000000000650000000006600000000064000000000000000000006600366000000
0202LOTE PADRAO                   NET         PN         PLIM4       010VISTA          000000000000370000000003700000000035000000000000000000003600000758300
0202LOTE PADRAO                   TELE CTR OESPN * EJ    TCOC4       010VISTA          000000000005600000000057000000000550000000000000000000057000107662000
0202LOTE PADRAO                   TELEMAR N L PNA* EJ    TMAR5       010VISTA          000000000044700000000454000000004350000000000000000000447000029641800
0202LOTE PADRAO                   GERDAU      PN * EJ    GGBR4       010VISTA          000000000030600000000315000000003000000000000000000000315000000038400
0202LOTE PADRAO                   BRASIL      ON *       BBAS3       010VISTA          000000000013600000000138000000001310000000000000000000138000036845400
