00BDIN9999BOVESPA 99992003021820030218
0101IBOVESPA                      0101920101660104660000000000000000002003021800000020030218010450000000
0202LOTE PADRAO                   EMBRATEL PARPN *       EBTP4       010VISTA          000000000003000000000031000000000298000000000000000000031000345191000
0202LOTE PADRAO                   TRAN PAULISTPN * EJ    TRPL4       010VISTA          000000000005100000000052000000000500000000000000000000050000017532600
0202LOTE PADRAO                   EMBRATEL PARON *       EBTP3       010VISTA          000000000003600000000037500000000360000000000000000000037100045834700
0202LOTE PADRAO                   TELEMAR     PN * EJ    TNLP4       010VISTA          000000000024600000000255000000002450000000000000000000255000238629000
0202LOTE PADRAO                   ITAUBANCO   PN * EJ    ITAU4       010VISTA          000000000153800000001570000000015380000000000000000001568000008949900
0202LOTE PADRAO                   TELEMAR     ON * EJ    TNLP3       010VISTA          000000000017500000000184000000001750000000000000000000184000019676500
0202LOTE PADRAO                   SID NACIONALON *       CSNA3       010VISTA          000000000063400000000646000000006310000000000000000000640000012271000
0202LOTE PADRAO                   TELE LEST CLPN *       TLCP4       010VISTA          000000000000390000000004000000000038000000000000000000003900127914000
0202LOTE PADRAO                   CRT CELULAR PNA* EJ    CRTP5       010VISTA          000000000312000000003185000000031200000000000000000003160000000417600
0202LOTE PADRAO                   IPIRANGA PETPN *       PTIP4       010VISTA          000000000006900000000070000000000696000000000000000000070000002689000
0202LOTE PADRAO                   BRASIL T PARPN *       BRTP4       010VISTA          000000000017100000000183000000001710000000000000000000182500134143000
0202LOTE PADRAO                   BRASIL T PARON *       BRTP3       010VISTA          000000000012900000000138000000001290000000000000000000135000007205000
0202LOTE PADRAO                   KLABIN S/A  PN         KLBN4       010VISTA          000000000001100000000011000000000110000000000000000000011000000064000
0202LOTE PADRAO                   ACESITA     PN *       ACES4       010VISTA          000000000001000000000011000000000100000000000000000000011000558546000
0202LOTE PADRAO                   PETROBRAS   PN         PETR4       010VISTA          000000000045000000000462500000004460000000000000000000459000000195100
0202LOTE PADRAO                   ELETROBRAS  PNB*       ELET6       010VISTA          000000000018500000000190000000001850000000000000000000189000053361500
0202LOTE PADRAO                   PETROBRAS   ON         PETR3       010VISTA          000000000049200000000510000000004860000000000000000000510000000046200
0202LOTE PADRAO                   COMGAS      PNA*       CGAS5       010VISTA          000000000045500000000458000000004510000000000000000000451000001355800
0202LOTE PADRAO                   SOUZA CRUZ  ON EJ      CRUZ3       010VISTA          000000000018500000000185000000001840000000000000000000185000000016200
0202LOTE PADRAO                   ELETROBRAS  ON *       ELET3       010VISTA          000000000018000000000181000000001770000000000000000000179000028123000
0202LOTE PADRAO                   CELESC      PNB        CLSC6       010VISTA          000000000000480000000004800000000047000000000000000000004700000061500
0202LOTE PADRAO                   BRADESCO    PN * EJ    BBDC4       010VISTA          000000000009800000000102000000000980000000000000000000102000223292000
0202LOTE PADRAO                   CESP        PN *       CESP4       010VISTA          000000000006250000000062500000000600000000000000000000062000010220500
0202LOTE PADRAO                   LIGHT       ON *       LIGH3       010VISTA          000000000028250000000299000000002825000000000000000000296000000517700
0202LOTE PADRAO                   TELESP CL PAPN *       TSPP4       010VISTA          000000000003200000000032000000000310000000000000000000032000343679000
0202LOTE PADRAO                   VALE R DOCE PNA        VALE5       010VISTA          000000000097000000000971000000009350000000000000000000954000000024100
0202LOTE PADRAO                   COPEL       PNB*       CPLE6       010VISTA          000000000007400000000077500000000740000000000000000000076000167790000
0202LOTE PADRAO                   VALE R DOCE ON         VALE3       010VISTA          000000000100300000001014000000009800000000000000000001007000000008700
0202LOTE PADRAO                   ARACRUZ     PNB        ARCZ6       010VISTA          000000000006900000000069000000000680000000000000000000068000000081800
0202LOTE PADRAO                   TELEMIG PARTPN *       TMCP4       010VISTA          000000000002400000000025000000000240000000000000000000025000084624800
0202LOTE PADRAO                   BRASIL TELECPN *       BRTO4       010VISTA          000000000009600000000103000000000950000000000000000000103000162742000
0202LOTE PADRAO                   SABESP      ON *       SBSP3       010VISTA          000000000084800000000849000000008290000000000000000000835000003205000
0202LOTE PADRAO                   BRASKEM     PNA*       BRKM5       010VISTA          000000000164800000001700000000016300000000000000000001685000000430500
0202LOTE PADRAO                   EMBRAER     PN EJ      EMBR4       010VISTA          000000000009750000000099000000000950000000000000000000097000000085800
0202LOTE PADRAO                   TELESP      PN * EJ    TLPP4       010VISTA          000000000031500000000318000000003100000000000000000000315000009020800
0202LOTE PADRAO                   EMBRAER     ON EJ      EMBR3       010VISTA          000000000008500000000086000000000840000000000000000000084000000025100
0202LOTE PADRAO                   AMBEV       PN *       AMBV4       010VISTA          000000000487000000005010000000048700000000000000000005000000002329500
0202LOTE PADRAO                   USIMINAS    PNA        USIM5       010VISTA          000000000007300000000075000000000730000000000000000000074000000077500
0202LOTE PADRAO                   ELETROPAULO PN *       ELPL4       010VISTA          000000000022100000000229000000002210000000000000000000227000004782300
0202LOTE PADRAO                   TELE NORD CLPN *       TNEP4       010VISTA          000000000002300000000024000000000230000000000000000000024000154915000
0202LOTE PADRAO                   CEMIG       PN * EJ    CMIG4       010VISTA          000000000023800000000241000000002360000000000000000000240000060557500
0202LOTE PADRAO                   TELE CL SUL PN * EJ    TCSL4       010VISTA          000000000002250000000023000000000225000000000000000000022000221241000
0202LOTE PADRAO                   TRACTEBEL   ON *       TBLE3       010VISTA          000000000003000000000031000000000300000000000000000000030000007334000
0202LOTE PADRAO                   CEMIG       ON * EJ    CMIG3       010VISTA          000000000019500000000209000000001950000000000000000000209000000788100
0202LOTE PADRAO                   TELE CL SUL ON * EJ    TCSL3       010VISTA          000000000001600000000017100000000160000000000000000000016000026715800
0202LOTE PADRAO                   ITAUSA      PN         ITSA4       010VISTA          000000000001800000000018000000000181000000000000000000018000000293100
0202LOTE PADRAO                   V C P       PN *       VCPA4       010VISTA          000000000127000000001299000000012700000000000000000001280000002179600
0202LOTE PADRAO                   SID TUBARAO PN *       CSTB4       010VISTA          000000000043400000000451000000004340000000000000000000442000005413600
0202LOTE PADRAO                   BRADESPAR   PN *       BRAP4       010VISTA          000000000000620000000006300000000062000000000000000000006200057513100
0202LOTE PADRAO                   NET         PN         PLIM4       010VISTA          000000000000290000000003000000000028000000000000000000002900000430900
0202LOTE PADRAO                   TELE CTR OESPN * EJ    TCOC4       010VISTA          000000000003900000000040000000000390000000000000000000040000155068000
0202LOTE PADRAO                   TELEMAR N L PNA* EJ    TMAR5       010VISTA          000000000037000000000377000000003660000000000000000000373000022592800
0202LOTE PADRAO                   GERDAU      PN * EJ    GGBR4       010VISTA          000000000032300000000327000000003120000000000000000000318000022517600
0202LOTE PADRAO                   BRASIL      ON *       BBAS3       010VISTA          000000000009400000000098000000000940000000000000000000096000035057800
