00BDIN9999BOVESPA 99992003062420030624
0101IBOVESPA                      0129930129930132040000000000000000002003062400000020030624013108000000
0202LOTE PADRAO                   EMBRATEL PARPN *       EBTP4       010VISTA          000000000005700000000057000000000550000000000000000000056000309425000
0202LOTE PADRAO                   TRAN PAULISTPN * EJ    TRPL4       010VISTA          000000000006800000000069000000000671000000000000000000067000022431100
0202LOTE PADRAO                   EMBRATEL PARON *       EBTP3       010VISTA          000000000005790000000058000000000570000000000000000000058000046331500
0202LOTE PADRAO                   TELEMAR     PN * EJ    TNLP4       010VISTA          000000000033600000000340000000003330000000000000000000335000301051000
0202LOTE PADRAO                   ITAUBANCO   PN * EJ    ITAU4       010VISTA          000000000196500000001994000000019300000000000000000001945000011888200
0202LOTE PADRAO                   TELEMAR     ON * EJ    TNLP3       010VISTA          000000000024000000000248000000002400000000000000000000247500019356700
0202LOTE PADRAO                   SID NACIONALON *       CSNA3       010VISTA          000000000065900000000669000000006410000000000000000000644000012074600
0202LOTE PADRAO                   TELE LEST CLPN *       TLCP4       010VISTA          000000000000460000000004600000000044000000000000000000004500127869000
0202LOTE PADRAO                   CRT CELULAR PNA* EJ    CRTP5       010VISTA          000000000323900000003390000000032390000000000000000003350000001567800
0202LOTE PADRAO                   IPIRANGA PETPN *       PTIP4       010VISTA          000000000009600000000097500000000910000000000000000000093000018956500
0202LOTE PADRAO                   BRASIL T PARPN *       BRTP4       010VISTA          000000000022000000000220000000002125000000000000000000213000045372200
0202LOTE PADRAO                   BRASIL T PARON *       BRTP3       010VISTA          000000000016200000000166000000001610000000000000000000163000002725600
0202LOTE PADRAO                   KLABIN S/A  PN         KLBN4       010VISTA          000000000002900000000029000000000280000000000000000000028000000190300
0202LOTE PADRAO                   ACESITA     PN *       ACES4       010VISTA          000000000001520000000015400000000151000000000000000000015200152994000
0202LOTE PADRAO                   PETROBRAS   PN         PETR4       010VISTA          000000000050100000000505000000004980000000000000000000505000000129200
0202LOTE PADRAO                   ELETROBRAS  PNB*       ELET6       010VISTA          000000000023200000000238000000002300000000000000000000233000041444400
0202LOTE PADRAO                   PETROBRAS   ON         PETR3       010VISTA          000000000054800000000558000000005420000000000000000000550000000056500
0202LOTE PADRAO                   COMGAS      PNA*       CGAS5       010VISTA          000000000065800000000689000000006510000000000000000000680000001071500
0202LOTE PADRAO                   SOUZA CRUZ  ON EJ      CRUZ3       010VISTA          000000000021600000000218000000002080000000000000000000218000000008300
0202LOTE PADRAO                   ELETROBRAS  ON *       ELET3       010VISTA          000000000021000000000214000000002080000000000000000000211000017440100
0202LOTE PADRAO                   CELESC      PNB        CLSC6       010VISTA          000000000000460000000004700000000046000000000000000000004600000161300
0202LOTE PADRAO                   BRADESCO    PN * EJ    BBDC4       010VISTA          000000000011100000000112500000001100000000000000000000111000246701000
0202LOTE PADRAO                   CESP        PN *       CESP4       010VISTA          000000000007300000000075000000000730000000000000000000074000009727700
0202LOTE PADRAO                   LIGHT       ON *       LIGH3       010VISTA          000000000027200000000278000000002710000000000000000000273000000658000
0202LOTE PADRAO                   TELESP CL PAPN *       TSPP4       010VISTA          000000000004400000000045000000000440000000000000000000045000538801000
0202LOTE PADRAO                   VALE R DOCE PNA        VALE5       010VISTA          000000000079700000000802000000007950000000000000000000799000000030200
0202LOTE PADRAO                   COPEL       PNB*       CPLE6       010VISTA          000000000009300000000096000000000920000000000000000000094000098188100
0202LOTE PADRAO                   VALE R DOCE ON         VALE3       010VISTA          000000000085900000000865000000008520000000000000000000860000000008700
0202LOTE PADRAO                   ARACRUZ     PNB        ARCZ6       010VISTA          000000000005800000000058000000000570000000000000000000058000000033900
0202LOTE PADRAO                   TELEMIG PARTPN *       TMCP4       010VISTA          000000000002800000000029000000000280000000000000000000029000110074000
0202LOTE PADRAO                   BRASIL TELECPN *       BRTO4       010VISTA          000000000013000000000135000000001275000000000000000000129000069804000
0202LOTE PADRAO                   SABESP      ON *       SBSP3       010VISTA          000000000109000000001099000000010700000000000000000001086000001982500
0202LOTE PADRAO                   BRASKEM     PNA*       BRKM5       010VISTA          000000000376900000003800000000037300000000000000000003780000000097700
0202LOTE PADRAO                   EMBRAER     PN EJ      EMBR4       010VISTA          000000000013600000000136000000001320000000000000000000134000000129900
0202LOTE PADRAO                   TELESP      PN * EJ    TLPP4       010VISTA          000000000032100000000327000000003210000000000000000000327000012218700
0202LOTE PADRAO                   EMBRAER     ON EJ      EMBR3       010VISTA          000000000010500000000107500000001050000000000000000000105000000025400
0202LOTE PADRAO                   AMBEV       PN *       AMBV4       010VISTA          000000000590900000005909000000058100000000000000000005899000003130200
0202LOTE PADRAO                   USIMINAS    PNA        USIM5       010VISTA          000000000012000000000120000000001160000000000000000000118000000084300
0202LOTE PADRAO                   ELETROPAULO PN *       ELPL4       010VISTA          000000000026800000000268000000002590000000000000000000260000007213800
0202LOTE PADRAO                   TELE NORD CLPN *       TNEP4       010VISTA          000000000002300000000024000000000230000000000000000000024000101356000
0202LOTE PADRAO                   CEMIG       PN * EJ    CMIG4       010VISTA          000000000027300000000278000000002710000000000000000000275000045265300
0202LOTE PADRAO                   TELE CL SUL PN * EJ    TCSL4       010VISTA          000000000002300000000025000000000230000000000000000000025000129976000
0202LOTE PADRAO                   TRACTEBEL   ON *       TBLE3       010VISTA          000000000007500000000075000000000720000000000000000000073000003428000
0202LOTE PADRAO                   CEMIG       ON * EJ    CMIG3       010VISTA          000000000022600000000230000000002160000000000000000000216000000843800
0202LOTE PADRAO                   TELE CL SUL ON * EJ    TCSL3       010VISTA          000000000002100000000022000000000210000000000000000000022500026099500
0202LOTE PADRAO                   ITAUSA      PN         ITSA4       010VISTA          000000000002300000000023000000000230000000000000000000023000000367500
0202LOTE PADRAO                   V C P       PN *       VCPA4       010VISTA          000000000106500000001100000000010650000000000000000001098000006783400
0202LOTE PADRAO                   SID TUBARAO PN *       CSTB4       010VISTA          000000000047500000000485000000004670000000000000000000468000006593400
0202LOTE PADRAO                   BRADESPAR   PN *       BRAP4       010VISTA          000000000000620000000006400000000062000000000000000000006400221955000
0202LOTE PADRAO                   NET         PN         PLIM4       010VISTA          000000000000320000000003400000000032000000000000000000003200000831100
0202LOTE PADRAO                   TELE CTR OESPN * EJ    TCOC4       010VISTA          000000000005500000000055000000000540000000000000000000054000076811600
0202LOTE PADRAO                   TELEMAR N L PNA* EJ    TMAR5       010VISTA          000000000039000000000393000000003860000000000000000000392000028019500
0202LOTE PADRAO                   GERDAU      PN * EJ    GGBR4       010VISTA          000000000030700000000329000000003060000000000000000000318000000034000
0202LOTE PADRAO                   BRASIL      ON *       BBAS3       010VISTA          000000000013500000000137000000001340000000000000000000134000026350500
