00BDIN9999BOVESPA 99992003081820030818
0101IBOVESPA                      0139000139000141470000000000000000002003081800000020030818014146000000
0202LOTE PADRAO                   EMBRATEL PARPN *       EBTP4       010VISTA          000000000005800000000058000000000570000000000000000000058000365663000
0202LOTE PADRAO                   TRAN PAULISTPN * EJ    TRPL4       010VISTA          000000000008400000000086000000000840000000000000000000085000015933200
0202LOTE PADRAO                   EMBRATEL PARON *       EBTP3       010VISTA          000000000006400000000064000000000600000000000000000000061000048822100
0202LOTE PADRAO                   TELEMAR     PN * EJ    TNLP4       010VISTA          000000000033300000000346000000003330000000000000000000346000629990000
0202LOTE PADRAO                   ITAUBANCO   PN * EJ    ITAU4       010VISTA          000000000212000000002135000000020900000000000000000002100000011296000
0202LOTE PADRAO                   TELEMAR     ON * EJ    TNLP3       010VISTA          000000000024400000000251000000002430000000000000000000250000022609700
0202LOTE PADRAO                   SID NACIONALON *       CSNA3       010VISTA          000000000088200000000894000000008620000000000000000000865000009629300
0202LOTE PADRAO                   TELE LEST CLPN *       TLCP4       010VISTA          000000000000420000000004500000000042000000000000000000004500208846000
0202LOTE PADRAO                   CRT CELULAR PNA* EJ    CRTP5       010VISTA          000000000389800000003900000000038500000000000000000003895000000795100
0202LOTE PADRAO                   IPIRANGA PETPN *       PTIP4       010VISTA          000000000010600000000106000000001020000000000000000000103000009120000
0202LOTE PADRAO                   BRASIL T PARPN *       BRTP4       010VISTA          000000000020500000000209000000002040000000000000000000207500036285400
0202LOTE PADRAO                   BRASIL T PARON *       BRTP3       010VISTA          000000000016800000000168000000001550000000000000000000155000004315700
0202LOTE PADRAO                   KLABIN S/A  PN         KLBN4       010VISTA          000000000002900000000029600000000280000000000000000000029600000052200
0202LOTE PADRAO                   ACESITA     PN *       ACES4       010VISTA          000000000001300000000013000000000130000000000000000000013000198945000
0202LOTE PADRAO                   PETROBRAS   PN         PETR4       010VISTA          000000000058400000000593000000005830000000000000000000589000000199100
0202LOTE PADRAO                   ELETROBRAS  PNB*       ELET6       010VISTA          000000000022500000000233000000002250000000000000000000233000057064800
0202LOTE PADRAO                   PETROBRAS   ON         PETR3       010VISTA          000000000063900000000639000000006200000000000000000000633000000034000
0202LOTE PADRAO                   COMGAS      PNA*       CGAS5       010VISTA          000000000073750000000749000000007375000000000000000000743000000656600
0202LOTE PADRAO                   SOUZA CRUZ  ON EJ      CRUZ3       010VISTA          000000000023900000000239000000002350000000000000000000235000000005500
0202LOTE PADRAO                   ELETROBRAS  ON *       ELET3       010VISTA          000000000019800000000204000000001980000000000000000000203000013981300
0202LOTE PADRAO                   CELESC      PNB        CLSC6       010VISTA          000000000000430000000004400000000043000000000000000000004400000319400
0202LOTE PADRAO                   BRADESCO    PN * EJ    BBDC4       010VISTA          000000000011900000000120000000001180000000000000000000120000177542000
0202LOTE PADRAO                   CESP        PN *       CESP4       010VISTA          000000000007000000000073000000000700000000000000000000072000011621500
0202LOTE PADRAO                   LIGHT       ON *       LIGH3       010VISTA          000000000025000000000264000000002500000000000000000000261000000593000
0202LOTE PADRAO                   TELESP CL PAPN *       TSPP4       010VISTA          000000000004100000000043000000000410000000000000000000043000366248000
0202LOTE PADRAO                   VALE R DOCE PNA        VALE5       010VISTA          000000000102700000001032000000010050000000000000000001029000000024700
0202LOTE PADRAO                   COPEL       PNB*       CPLE6       010VISTA          000000000008700000000089000000000860000000000000000000088000053299100
0202LOTE PADRAO                   VALE R DOCE ON         VALE3       010VISTA          000000000114000000001140000000011000000000000000000001120000000011400
0202LOTE PADRAO                   ARACRUZ     PNB        ARCZ6       010VISTA          000000000007800000000078000000000760000000000000000000077000000116900
0202LOTE PADRAO                   TELEMIG PARTPN *       TMCP4       010VISTA          000000000003000000000031000000000296000000000000000000031000087472700
0202LOTE PADRAO                   BRASIL TELECPN *       BRTO4       010VISTA          000000000012400000000125000000001230000000000000000000124000071135300
0202LOTE PADRAO                   SABESP      ON *       SBSP3       010VISTA          000000000113000000001149000000011000000000000000000001112000003472600
0202LOTE PADRAO                   BRASKEM     PNA*       BRKM5       010VISTA          000000000499500000005020000000049000000000000000000004990000000614000
0202LOTE PADRAO                   EMBRAER     PN EJ      EMBR4       010VISTA          000000000013100000000134000000001280000000000000000000134000000159100
0202LOTE PADRAO                   TELESP      PN * EJ    TLPP4       010VISTA          000000000030000000000305000000002980000000000000000000305000012291500
0202LOTE PADRAO                   EMBRAER     ON EJ      EMBR3       010VISTA          000000000010400000000105000000001030000000000000000000105000000014800
0202LOTE PADRAO                   AMBEV       PN *       AMBV4       010VISTA          000000000593900000005939000000058200000000000000000005920000001350600
0202LOTE PADRAO                   USIMINAS    PNA        USIM5       010VISTA          000000000017000000000170000000001640000000000000000000166000000085200
0202LOTE PADRAO                   ELETROPAULO PN *       ELPL4       010VISTA          000000000022000000000224000000002200000000000000000000223000010273800
0202LOTE PADRAO                   TELE NORD CLPN *       TNEP4       010VISTA          000000000002400000000024000000000240000000000000000000024800102301000
0202LOTE PADRAO                   CEMIG       PN * EJ    CMIG4       010VISTA          000000000027900000000285000000002780000000000000000000285000037143800
0202LOTE PADRAO                   TELE CL SUL PN * EJ    TCSL4       010VISTA          000000000002300000000023000000000230000000000000000000023000103708000
0202LOTE PADRAO                   TRACTEBEL   ON *       TBLE3       010VISTA          000000000007600000000079000000000760000000000000000000079000004180600
0202LOTE PADRAO                   CEMIG       ON * EJ    CMIG3       010VISTA          000000000022500000000225000000002160000000000000000000220000000950700
0202LOTE PADRAO                   TELE CL SUL ON * EJ    TCSL3       010VISTA          000000000002000000000021000000000200000000000000000000021000024343000
0202LOTE PADRAO                   ITAUSA      PN         ITSA4       010VISTA          000000000002500000000026000000000250000000000000000000026000000085700
0202LOTE PADRAO                   V C P       PN *       VCPA4       010VISTA          000000000142900000001449000000014260000000000000000001449000001526800
0202LOTE PADRAO                   SID TUBARAO PN *       CSTB4       010VISTA          000000000055000000000550000000005380000000000000000000538000007087700
0202LOTE PADRAO                   BRADESPAR   PN *       BRAP4       010VISTA          000000000000720000000007500000000071000000000000000000007400252783000
0202LOTE PADRAO                   NET         PN         PLIM4       010VISTA          000000000000330000000003400000000032000000000000000000003400000603700
0202LOTE PADRAO                   TELE CTR OESPN * EJ    TCOC4       010VISTA          000000000005200000000054000000000520000000000000000000054000096113700
0202LOTE PADRAO                   TELEMAR N L PNA* EJ    TMAR5       010VISTA          000000000040800000000415000000004070000000000000000000413000024774800
0202LOTE PADRAO                   GERDAU      PN * EJ    GGBR4       010VISTA          000000000038400000000392000000003810000000000000000000392500000022300
0202LOTE PADRAO                   BRASIL      ON *       BBAS3       010VISTA          000000000015500000000156000000001530000000000000000000155000017321600
