00BDIN9999BOVESPA 99992003073120030731
0101IBOVESPA                      0134750134750136150000000000000000002003073100000020030731013572000000
0202LOTE PADRAO                   EMBRATEL PARPN *       EBTP4       010VISTA          000000000006000000000060000000000590000000000000000000059000193382000
0202LOTE PADRAO                   TRAN PAULISTPN * EJ    TRPL4       010VISTA          000000000007500000000075000000000725000000000000000000073000003699300
0202LOTE PADRAO                   EMBRATEL PARON *       EBTP3       010VISTA          000000000006700000000067000000000640000000000000000000065000045961400
0202LOTE PADRAO                   TELEMAR     PN * EJ    TNLP4       010VISTA          000000000032500000000330000000003240000000000000000000327000209397000
0202LOTE PADRAO                   ITAUBANCO   PN * EJ    ITAU4       010VISTA          000000000207000000002134000000020660000000000000000002130000012570000
0202LOTE PADRAO                   TELEMAR     ON * EJ    TNLP3       010VISTA          000000000023750000000243000000002360000000000000000000243000009933500
0202LOTE PADRAO                   SID NACIONALON *       CSNA3       010VISTA          000000000078000000000810000000007800000000000000000000810000020361500
0202LOTE PADRAO                   TELE LEST CLPN *       TLCP4       010VISTA          000000000000410000000004200000000040000000000000000000004200134703000
0202LOTE PADRAO                   CRT CELULAR PNA* EJ    CRTP5       010VISTA          000000000368500000003700000000036600000000000000000003692000000783100
0202LOTE PADRAO                   IPIRANGA PETPN *       PTIP4       010VISTA          000000000010800000000110000000001075000000000000000000107500004510000
0202LOTE PADRAO                   BRASIL T PARPN *       BRTP4       010VISTA          000000000020000000000202000000001960000000000000000000196000049394300
0202LOTE PADRAO                   BRASIL T PARON *       BRTP3       010VISTA          000000000014900000000150000000001460000000000000000000148000011595600
0202LOTE PADRAO                   KLABIN S/A  PN         KLBN4       010VISTA          000000000002800000000028000000000280000000000000000000028000000037200
0202LOTE PADRAO                   ACESITA     PN *       ACES4       010VISTA          000000000001300000000013000000000130000000000000000000013000100272000
0202LOTE PADRAO                   PETROBRAS   PN         PETR4       010VISTA          000000000056600000000570000000005600000000000000000000565000000108400
0202LOTE PADRAO                   ELETROBRAS  PNB*       ELET6       010VISTA          000000000022600000000229000000002225000000000000000000223000035269300
0202LOTE PADRAO                   PETROBRAS   ON         PETR3       010VISTA          000000000060500000000610000000006000000000000000000000607000000023400
0202LOTE PADRAO                   COMGAS      PNA*       CGAS5       010VISTA          000000000070100000000727500000007000000000000000000000720000002597700
0202LOTE PADRAO                   SOUZA CRUZ  ON EJ      CRUZ3       010VISTA          000000000022500000000226000000002220000000000000000000223000000004700
0202LOTE PADRAO                   ELETROBRAS  ON *       ELET3       010VISTA          000000000020100000000203000000001930000000000000000000195000017247800
0202LOTE PADRAO                   CELESC      PNB        CLSC6       010VISTA          000000000000440000000004400000000043000000000000000000004400000115300
0202LOTE PADRAO                   BRADESCO    PN * EJ    BBDC4       010VISTA          000000000011800000000120000000001170000000000000000000120000237226000
0202LOTE PADRAO                   CESP        PN *       CESP4       010VISTA          000000000006900000000069600000000650000000000000000000066000005393900
0202LOTE PADRAO                   LIGHT       ON *       LIGH3       010VISTA          000000000025800000000258000000002430000000000000000000243000000224300
0202LOTE PADRAO                   TELESP CL PAPN *       TSPP4       010VISTA          000000000004200000000043000000000410000000000000000000041000245664000
0202LOTE PADRAO                   VALE R DOCE PNA        VALE5       010VISTA          000000000092000000000947000000009090000000000000000000942000000041300
0202LOTE PADRAO                   COPEL       PNB*       CPLE6       010VISTA          000000000008100000000081000000000800000000000000000000080000039309300
0202LOTE PADRAO                   VALE R DOCE ON         VALE3       010VISTA          000000000100000000001033000000010000000000000000000001029000000023500
0202LOTE PADRAO                   ARACRUZ     PNB        ARCZ6       010VISTA          000000000007200000000075000000000720000000000000000000073000000082000
0202LOTE PADRAO                   TELEMIG PARTPN *       TMCP4       010VISTA          000000000003000000000030000000000290000000000000000000030000063035300
0202LOTE PADRAO                   BRASIL TELECPN *       BRTO4       010VISTA          000000000012000000000120000000001160000000000000000000116000077682700
0202LOTE PADRAO                   SABESP      ON *       SBSP3       010VISTA          000000000112200000001135000000011200000000000000000001135000005444900
0202LOTE PADRAO                   BRASKEM     PNA*       BRKM5       010VISTA          000000000430600000004370000000042800000000000000000004280000000241200
0202LOTE PADRAO                   EMBRAER     PN EJ      EMBR4       010VISTA          000000000013250000000136000000001320000000000000000000136000000048900
0202LOTE PADRAO                   TELESP      PN * EJ    TLPP4       010VISTA          000000000031300000000313000000003075000000000000000000308000006796200
0202LOTE PADRAO                   EMBRAER     ON EJ      EMBR3       010VISTA          000000000010500000000108000000001050000000000000000000105000000015300
0202LOTE PADRAO                   AMBEV       PN *       AMBV4       010VISTA          000000000600000000006000000000058700000000000000000005930000002814200
0202LOTE PADRAO                   USIMINAS    PNA        USIM5       010VISTA          000000000015300000000155000000001500000000000000000000152000000050100
0202LOTE PADRAO                   ELETROPAULO PN *       ELPL4       010VISTA          000000000023300000000239000000002300000000000000000000233000002402300
0202LOTE PADRAO                   TELE NORD CLPN *       TNEP4       010VISTA          000000000002400000000024000000000230000000000000000000024000099018400
0202LOTE PADRAO                   CEMIG       PN * EJ    CMIG4       010VISTA          000000000027300000000273000000002660000000000000000000271000054543200
0202LOTE PADRAO                   TELE CL SUL PN * EJ    TCSL4       010VISTA          000000000002270000000022000000000220000000000000000000022500113690000
0202LOTE PADRAO                   TRACTEBEL   ON *       TBLE3       010VISTA          000000000006500000000067900000000610000000000000000000065000003654300
0202LOTE PADRAO                   CEMIG       ON * EJ    CMIG3       010VISTA          000000000021100000000211000000002070000000000000000000211000000490600
0202LOTE PADRAO                   TELE CL SUL ON * EJ    TCSL3       010VISTA          000000000002100000000021000000000200000000000000000000021000010375900
0202LOTE PADRAO                   ITAUSA      PN         ITSA4       010VISTA          000000000002400000000025000000000240000000000000000000025000000195300
0202LOTE PADRAO                   V C P       PN *       VCPA4       010VISTA          000000000138000000001380000000013610000000000000000001370000006677300
0202LOTE PADRAO                   SID TUBARAO PN *       CSTB4       010VISTA          000000000056600000000567000000005470000000000000000000547000006596900
0202LOTE PADRAO                   BRADESPAR   PN *       BRAP4       010VISTA          000000000000740000000007500000000071000000000000000000007200507688000
0202LOTE PADRAO                   NET         PN         PLIM4       010VISTA          000000000000320000000003300000000031000000000000000000003200000349000
0202LOTE PADRAO                   TELE CTR OESPN * EJ    TCOC4       010VISTA          000000000005200000000052000000000510000000000000000000051000147508000
0202LOTE PADRAO                   TELEMAR N L PNA* EJ    TMAR5       010VISTA          000000000039500000000399000000003950000000000000000000396000027992300
0202LOTE PADRAO                   GERDAU      PN * EJ    GGBR4       010VISTA          000000000033700000000340000000003320000000000000000000337000000014000
0202LOTE PADRAO                   BRASIL      ON *       BBAS3       010VISTA          000000000014000000000143000000001390000000000000000000141000008614800
