00BDIN9999BOVESPA 99992003012820030128
0101IBOVESPA                      0105340104950106500000000000000000002003012800000020030128010517000000
0202LOTE PADRAO                   EMBRATEL PARPN *       EBTP4       010VISTA          000000000003200000000033000000000310000000000000000000032000946287000
0202LOTE PADRAO                   TRAN PAULISTPN * EJ    TRPL4       010VISTA          000000000005100000000052000000000500000000000000000000050000014767700
0202LOTE PADRAO                   EMBRATEL PARON *       EBTP3       010VISTA          000000000003800000000040000000000375000000000000000000038000083575700
0202LOTE PADRAO                   TELEMAR     PN * EJ    TNLP4       010VISTA          000000000026100000000265000000002600000000000000000000261000215265000
0202LOTE PADRAO                   ITAUBANCO   PN * EJ    ITAU4       010VISTA          000000000151500000001535000000015050000000000000000001520000010469500
0202LOTE PADRAO                   TELEMAR     ON * EJ    TNLP3       010VISTA          000000000018900000000191000000001860000000000000000000189000018633000
0202LOTE PADRAO                   SID NACIONALON *       CSNA3       010VISTA          000000000053000000000555000000005300000000000000000000550000011101900
0202LOTE PADRAO                   TELE LEST CLPN *       TLCP4       010VISTA          000000000000430000000004500000000042000000000000000000004200390348000
0202LOTE PADRAO                   CRT CELULAR PNA* EJ    CRTP5       010VISTA          000000000320000000003240000000031600000000000000000003210000000565200
0202LOTE PADRAO                   IPIRANGA PETPN *       PTIP4       010VISTA          000000000007100000000071000000000700000000000000000000070000002892600
0202LOTE PADRAO                   BRASIL T PARPN *       BRTP4       010VISTA          000000000017100000000171000000001680000000000000000000168000058391800
0202LOTE PADRAO                   BRASIL T PARON *       BRTP3       010VISTA          000000000012700000000130000000001260000000000000000000129000008329500
0202LOTE PADRAO                   KLABIN S/A  PN         KLBN4       010VISTA          000000000000990000000010000000000097000000000000000000010000000021600
0202LOTE PADRAO                   ACESITA     PN *       ACES4       010VISTA          000000000000840000000008700000000083000000000000000000008600127995000
0202LOTE PADRAO                   PETROBRAS   PN         PETR4       010VISTA          000000000045300000000454000000004410000000000000000000446000000156800
0202LOTE PADRAO                   ELETROBRAS  PNB*       ELET6       010VISTA          000000000019900000000205000000001930000000000000000000193000074573600
0202LOTE PADRAO                   PETROBRAS   ON         PETR3       010VISTA          000000000049200000000502000000004910000000000000000000497500000025500
0202LOTE PADRAO                   COMGAS      PNA*       CGAS5       010VISTA          000000000049500000000504000000004950000000000000000000495000001535400
0202LOTE PADRAO                   SOUZA CRUZ  ON EJ      CRUZ3       010VISTA          000000000017500000000178000000001750000000000000000000177000000010300
0202LOTE PADRAO                   ELETROBRAS  ON *       ELET3       010VISTA          000000000018800000000191000000001780000000000000000000181000019709000
0202LOTE PADRAO                   CELESC      PNB        CLSC6       010VISTA          000000000000490000000005000000000049000000000000000000004900000115000
0202LOTE PADRAO                   BRADESCO    PN * EJ    BBDC4       010VISTA          000000000009800000000099000000000970000000000000000000097000320133000
0202LOTE PADRAO                   CESP        PN *       CESP4       010VISTA          000000000006100000000064000000000610000000000000000000062000009969100
0202LOTE PADRAO                   LIGHT       ON *       LIGH3       010VISTA          000000000039000000000400000000003870000000000000000000400000000330100
0202LOTE PADRAO                   TELESP CL PAPN *       TSPP4       010VISTA          000000000003540000000037300000000354000000000000000000037100389525000
0202LOTE PADRAO                   VALE R DOCE PNA        VALE5       010VISTA          000000000088500000000885000000008750000000000000000000880000000016600
0202LOTE PADRAO                   COPEL       PNB*       CPLE6       010VISTA          000000000008400000000084000000000820000000000000000000083000034348700
0202LOTE PADRAO                   VALE R DOCE ON         VALE3       010VISTA          000000000091000000000937000000009100000000000000000000935000000011900
0202LOTE PADRAO                   ARACRUZ     PNB        ARCZ6       010VISTA          000000000006500000000068000000000650000000000000000000068000000037900
0202LOTE PADRAO                   TELEMIG PARTPN *       TMCP4       010VISTA          000000000002690000000027000000000250000000000000000000025000141105000
0202LOTE PADRAO                   BRASIL TELECPN *       BRTO4       010VISTA          000000000010800000000108000000001040000000000000000000105000080660800
0202LOTE PADRAO                   SABESP      ON *       SBSP3       010VISTA          000000000085500000000867000000008500000000000000000000850000003677100
0202LOTE PADRAO                   BRASKEM     PNA*       BRKM5       010VISTA          000000000198600000001990000000018500000000000000000001870000000707500
0202LOTE PADRAO                   EMBRAER     PN EJ      EMBR4       010VISTA          000000000012400000000124000000001190000000000000000000121000000138000
0202LOTE PADRAO                   TELESP      PN * EJ    TLPP4       010VISTA          000000000030600000000313000000003060000000000000000000310000005673900
0202LOTE PADRAO                   EMBRAER     ON EJ      EMBR3       010VISTA          000000000010900000000111000000001070000000000000000000108000000012300
0202LOTE PADRAO                   AMBEV       PN *       AMBV4       010VISTA          000000000471000000004890000000047100000000000000000004820000001871400
0202LOTE PADRAO                   USIMINAS    PNA        USIM5       010VISTA          000000000007000000000074000000000700000000000000000000072000000061600
0202LOTE PADRAO                   ELETROPAULO PN *       ELPL4       010VISTA          000000000026500000000271000000002590000000000000000000261000007384600
0202LOTE PADRAO                   TELE NORD CLPN *       TNEP4       010VISTA          000000000002500000000025000000000248000000000000000000025000104480000
0202LOTE PADRAO                   CEMIG       PN * EJ    CMIG4       010VISTA          000000000025500000000258000000002475000000000000000000249000034665800
0202LOTE PADRAO                   TELE CL SUL PN * EJ    TCSL4       010VISTA          000000000002400000000025000000000240000000000000000000025000123291000
0202LOTE PADRAO                   TRACTEBEL   ON *       TBLE3       010VISTA          000000000003200000000033000000000310000000000000000000032000010447700
0202LOTE PADRAO                   CEMIG       ON * EJ    CMIG3       010VISTA          000000000022100000000223000000002150000000000000000000215000000327400
0202LOTE PADRAO                   TELE CL SUL ON * EJ    TCSL3       010VISTA          000000000001780000000018000000000175000000000000000000017600020336500
0202LOTE PADRAO                   ITAUSA      PN         ITSA4       010VISTA          000000000001800000000018000000000177000000000000000000017700000104700
0202LOTE PADRAO                   V C P       PN *       VCPA4       010VISTA          000000000118200000001230000000011600000000000000000001224000003522500
0202LOTE PADRAO                   SID TUBARAO PN *       CSTB4       010VISTA          000000000033500000000347000000003320000000000000000000343000018801100
0202LOTE PADRAO                   BRADESPAR   PN *       BRAP4       010VISTA          000000000000580000000005900000000055000000000000000000005500123050000
0202LOTE PADRAO                   NET         PN         PLIM4       010VISTA          000000000000370000000003800000000035000000000000000000003600001053800
0202LOTE PADRAO                   TELE CTR OESPN * EJ    TCOC4       010VISTA          000000000004400000000046000000000440000000000000000000046000099798600
0202LOTE PADRAO                   TELEMAR N L PNA* EJ    TMAR5       010VISTA          000000000040100000000407000000003920000000000000000000400000023069700
0202LOTE PADRAO                   GERDAU      PN * EJ    GGBR4       010VISTA          000000000029600000000302000000002940000000000000000000295000014695100
0202LOTE PADRAO                   BRASIL      ON *       BBAS3       010VISTA          000000000009300000000094000000000920000000000000000000093000027390700
