00BDIN9999BOVESPA 99992003032120030321
0101IBOVESPA                      0111760111760114130000000000000000002003032100000020030321011377000000
0202LOTE PADRAO                   EMBRATEL PARPN *       EBTP4       010VISTA          000000000003300000000035000000000330000000000000000000035000361256000
0202LOTE PADRAO                   TRAN PAULISTPN * EJ    TRPL4       010VISTA          000000000005400000000057000000000540000000000000000000055000008379000
0202LOTE PADRAO                   EMBRATEL PARON *       EBTP3       010VISTA          000000000003800000000039800000000370000000000000000000039600029696300
0202LOTE PADRAO                   TELEMAR     PN * EJ    TNLP4       010VISTA          000000000027600000000279000000002750000000000000000000276000325718000
0202LOTE PADRAO                   ITAUBANCO   PN * EJ    ITAU4       010VISTA          000000000179200000001870000000017920000000000000000001870000010731000
0202LOTE PADRAO                   TELEMAR     ON * EJ    TNLP3       010VISTA          000000000019900000000201000000001980000000000000000000198000042899300
0202LOTE PADRAO                   SID NACIONALON *       CSNA3       010VISTA          000000000062200000000650000000006220000000000000000000643000022022800
0202LOTE PADRAO                   TELE LEST CLPN *       TLCP4       010VISTA          000000000000410000000004300000000041000000000000000000004300108334000
0202LOTE PADRAO                   CRT CELULAR PNA* EJ    CRTP5       010VISTA          000000000330000000003390000000032600000000000000000003389000000596600
0202LOTE PADRAO                   IPIRANGA PETPN *       PTIP4       010VISTA          000000000007200000000073000000000700000000000000000000070000000710000
0202LOTE PADRAO                   BRASIL T PARPN *       BRTP4       010VISTA          000000000019600000000196000000001930000000000000000000196000033048900
0202LOTE PADRAO                   BRASIL T PARON *       BRTP3       010VISTA          000000000014500000000145000000001400000000000000000000145000010289700
0202LOTE PADRAO                   KLABIN S/A  PN         KLBN4       010VISTA          000000000001600000000017000000000160000000000000000000016900000034600
0202LOTE PADRAO                   ACESITA     PN *       ACES4       010VISTA          000000000001100000000011000000000110000000000000000000011000233685000
0202LOTE PADRAO                   PETROBRAS   PN         PETR4       010VISTA          000000000048800000000497000000004800000000000000000000482000000106300
0202LOTE PADRAO                   ELETROBRAS  PNB*       ELET6       010VISTA          000000000020200000000208000000002020000000000000000000207000078497400
0202LOTE PADRAO                   PETROBRAS   ON         PETR3       010VISTA          000000000053600000000548000000005300000000000000000000530000000036800
0202LOTE PADRAO                   COMGAS      PNA*       CGAS5       010VISTA          000000000042700000000442000000004270000000000000000000442000000614000
0202LOTE PADRAO                   SOUZA CRUZ  ON EJ      CRUZ3       010VISTA          000000000018500000000187000000001830000000000000000000183000000007600
0202LOTE PADRAO                   ELETROBRAS  ON *       ELET3       010VISTA          000000000018100000000185000000001800000000000000000000181000016670400
0202LOTE PADRAO                   CELESC      PNB        CLSC6       010VISTA          000000000000450000000004600000000044000000000000000000004500000431200
0202LOTE PADRAO                   BRADESCO    PN * EJ    BBDC4       010VISTA          000000000011300000000116000000001130000000000000000000115000175641000
0202LOTE PADRAO                   CESP        PN *       CESP4       010VISTA          000000000005900000000061000000000580000000000000000000060000010175200
0202LOTE PADRAO                   LIGHT       ON *       LIGH3       010VISTA          000000000026000000000273000000002600000000000000000000270000000271000
0202LOTE PADRAO                   TELESP CL PAPN *       TSPP4       010VISTA          000000000004400000000045000000000440000000000000000000045000414101000
0202LOTE PADRAO                   VALE R DOCE PNA        VALE5       010VISTA          000000000090500000000905000000008830000000000000000000887000000021200
0202LOTE PADRAO                   COPEL       PNB*       CPLE6       010VISTA          000000000008300000000085000000000830000000000000000000085000059884300
0202LOTE PADRAO                   VALE R DOCE ON         VALE3       010VISTA          000000000096200000000962000000009350000000000000000000937000000007300
0202LOTE PADRAO                   ARACRUZ     PNB        ARCZ6       010VISTA          000000000007000000000070000000000679000000000000000000068000000008600
0202LOTE PADRAO                   TELEMIG PARTPN *       TMCP4       010VISTA          000000000002750000000028000000000275000000000000000000028100041882900
0202LOTE PADRAO                   BRASIL TELECPN *       BRTO4       010VISTA          000000000011300000000115000000001130000000000000000000114000089878100
0202LOTE PADRAO                   SABESP      ON *       SBSP3       010VISTA          000000000078000000000794000000007800000000000000000000787500011514100
0202LOTE PADRAO                   BRASKEM     PNA*       BRKM5       010VISTA          000000000179000000001900000000017700000000000000000001869000001254100
0202LOTE PADRAO                   EMBRAER     PN EJ      EMBR4       010VISTA          000000000009600000000101000000000960000000000000000000101000000119800
0202LOTE PADRAO                   TELESP      PN * EJ    TLPP4       010VISTA          000000000032600000000327000000003220000000000000000000326000018804400
0202LOTE PADRAO                   EMBRAER     ON EJ      EMBR3       010VISTA          000000000008100000000086000000000810000000000000000000085000000013200
0202LOTE PADRAO                   AMBEV       PN *       AMBV4       010VISTA          000000000549900000005620000000054000000000000000000005620000002419900
0202LOTE PADRAO                   USIMINAS    PNA        USIM5       010VISTA          000000000007750000000079000000000770000000000000000000079000000055100
0202LOTE PADRAO                   ELETROPAULO PN *       ELPL4       010VISTA          000000000023000000000235000000002300000000000000000000235000004548000
0202LOTE PADRAO                   TELE NORD CLPN *       TNEP4       010VISTA          000000000002300000000024000000000230000000000000000000023000078596500
0202LOTE PADRAO                   CEMIG       PN * EJ    CMIG4       010VISTA          000000000025800000000265000000002580000000000000000000265000036926000
0202LOTE PADRAO                   TELE CL SUL PN * EJ    TCSL4       010VISTA          000000000002300000000023000000000230000000000000000000023000125709000
0202LOTE PADRAO                   TRACTEBEL   ON *       TBLE3       010VISTA          000000000003600000000037000000000360000000000000000000037000004613000
0202LOTE PADRAO                   CEMIG       ON * EJ    CMIG3       010VISTA          000000000019500000000211000000001950000000000000000000208000000315100
0202LOTE PADRAO                   TELE CL SUL ON * EJ    TCSL3       010VISTA          000000000001800000000020000000000180000000000000000000019000049715100
0202LOTE PADRAO                   ITAUSA      PN         ITSA4       010VISTA          000000000002000000000021000000000200000000000000000000021000000669300
0202LOTE PADRAO                   V C P       PN *       VCPA4       010VISTA          000000000128500000001285000000012500000000000000000001275000000993000
0202LOTE PADRAO                   SID TUBARAO PN *       CSTB4       010VISTA          000000000043000000000435000000004200000000000000000000427000009966200
0202LOTE PADRAO                   BRADESPAR   PN *       BRAP4       010VISTA          000000000000640000000006500000000063000000000000000000006400123708000
0202LOTE PADRAO                   NET         PN         PLIM4       010VISTA          000000000000290000000003000000000028000000000000000000002900000464600
0202LOTE PADRAO                   TELE CTR OESPN * EJ    TCOC4       010VISTA          000000000005500000000057000000000550000000000000000000057000103795000
0202LOTE PADRAO                   TELEMAR N L PNA* EJ    TMAR5       010VISTA          000000000037100000000375000000003540000000000000000000372000087721500
0202LOTE PADRAO                   GERDAU      PN * EJ    GGBR4       010VISTA          000000000030800000000308000000002975000000000000000000301000056202600
0202LOTE PADRAO                   BRASIL      ON *       BBAS3       010VISTA          000000000010200000000105000000001020000000000000000000104000028966500
