00BDIN9999BOVESPA 99992003032820030328
0101IBOVESPA                      0112730112210114210000000000000000002003032800000020030328011396000000
0202LOTE PADRAO                   EMBRATEL PARPN *       EBTP4       010VISTA          000000000003300000000034000000000330000000000000000000034000256756000
0202LOTE PADRAO                   TRAN PAULISTPN * EJ    TRPL4       010VISTA          000000000005900000000060000000000590000000000000000000060000013187400
0202LOTE PADRAO                   EMBRATEL PARON *       EBTP3       010VISTA          000000000003800000000040000000000381000000000000000000039400047239300
0202LOTE PADRAO                   TELEMAR     PN * EJ    TNLP4       010VISTA          000000000027900000000283000000002780000000000000000000283000215679000
0202LOTE PADRAO                   ITAUBANCO   PN * EJ    ITAU4       010VISTA          000000000185000000001850000000018250000000000000000001830000007664700
0202LOTE PADRAO                   TELEMAR     ON * EJ    TNLP3       010VISTA          000000000019800000000201000000001980000000000000000000200000040413500
0202LOTE PADRAO                   SID NACIONALON *       CSNA3       010VISTA          000000000064900000000671000000006300000000000000000000669000023145300
0202LOTE PADRAO                   TELE LEST CLPN *       TLCP4       010VISTA          000000000000420000000004400000000042000000000000000000004400127815000
0202LOTE PADRAO                   CRT CELULAR PNA* EJ    CRTP5       010VISTA          000000000318000000003348000000031800000000000000000003280000000263300
0202LOTE PADRAO                   IPIRANGA PETPN *       PTIP4       010VISTA          000000000007000000000071000000000700000000000000000000070000002232100
0202LOTE PADRAO                   BRASIL T PARPN *       BRTP4       010VISTA          000000000018800000000189000000001860000000000000000000188000081254600
0202LOTE PADRAO                   BRASIL T PARON *       BRTP3       010VISTA          000000000014300000000148000000001430000000000000000000148000010323700
0202LOTE PADRAO                   KLABIN S/A  PN         KLBN4       010VISTA          000000000001600000000018000000000160000000000000000000018000000199700
0202LOTE PADRAO                   ACESITA     PN *       ACES4       010VISTA          000000000001100000000012000000000110000000000000000000011000329349000
0202LOTE PADRAO                   PETROBRAS   PN         PETR4       010VISTA          000000000046500000000471000000004580000000000000000000465000000076800
0202LOTE PADRAO                   ELETROBRAS  PNB*       ELET6       010VISTA          000000000020400000000208000000002030000000000000000000206000047953500
0202LOTE PADRAO                   PETROBRAS   ON         PETR3       010VISTA          000000000051000000000521000000005030000000000000000000513000000029300
0202LOTE PADRAO                   COMGAS      PNA*       CGAS5       010VISTA          000000000051000000000519000000004970000000000000000000514000001452000
0202LOTE PADRAO                   SOUZA CRUZ  ON EJ      CRUZ3       010VISTA          000000000018900000000192500000001880000000000000000000192000000022500
0202LOTE PADRAO                   ELETROBRAS  ON *       ELET3       010VISTA          000000000017900000000184000000001790000000000000000000184000013097000
0202LOTE PADRAO                   CELESC      PNB        CLSC6       010VISTA          000000000000440000000004500000000043000000000000000000004500000114000
0202LOTE PADRAO                   BRADESCO    PN * EJ    BBDC4       010VISTA          000000000011800000000118000000001160000000000000000000116000096953400
0202LOTE PADRAO                   CESP        PN *       CESP4       010VISTA          000000000005900000000060000000000580000000000000000000060000005059800
0202LOTE PADRAO                   LIGHT       ON *       LIGH3       010VISTA          000000000025000000000254000000002410000000000000000000250000000513000
0202LOTE PADRAO                   TELESP CL PAPN *       TSPP4       010VISTA          000000000004200000000044000000000410000000000000000000044000324271000
0202LOTE PADRAO                   VALE R DOCE PNA        VALE5       010VISTA          000000000089200000000892000000008800000000000000000000882000000014100
0202LOTE PADRAO                   COPEL       PNB*       CPLE6       010VISTA          000000000008300000000083000000000810000000000000000000083000047268900
0202LOTE PADRAO                   VALE R DOCE ON         VALE3       010VISTA          000000000094000000000940000000009200000000000000000000925000000006300
0202LOTE PADRAO                   ARACRUZ     PNB        ARCZ6       010VISTA          000000000006700000000068000000000670000000000000000000068000000018800
0202LOTE PADRAO                   TELEMIG PARTPN *       TMCP4       010VISTA          000000000002810000000029600000000281000000000000000000029000177879000
0202LOTE PADRAO                   BRASIL TELECPN *       BRTO4       010VISTA          000000000010800000000109000000001070000000000000000000108000133980000
0202LOTE PADRAO                   SABESP      ON *       SBSP3       010VISTA          000000000080500000000818000000008050000000000000000000812000004070100
0202LOTE PADRAO                   BRASKEM     PNA*       BRKM5       010VISTA          000000000203000000002070000000020200000000000000000002070000001959000
0202LOTE PADRAO                   EMBRAER     PN EJ      EMBR4       010VISTA          000000000009500000000096000000000930000000000000000000094000000121700
0202LOTE PADRAO                   TELESP      PN * EJ    TLPP4       010VISTA          000000000031600000000318000000003080000000000000000000315000012435500
0202LOTE PADRAO                   EMBRAER     ON EJ      EMBR3       010VISTA          000000000008100000000081000000000790000000000000000000080000000027200
0202LOTE PADRAO                   AMBEV       PN *       AMBV4       010VISTA          000000000550000000005619000000054000000000000000000005611000002021400
0202LOTE PADRAO                   USIMINAS    PNA        USIM5       010VISTA          000000000008300000000089000000000810000000000000000000089000000223500
0202LOTE PADRAO                   ELETROPAULO PN *       ELPL4       010VISTA          000000000022000000000226000000002200000000000000000000222000004877900
0202LOTE PADRAO                   TELE NORD CLPN *       TNEP4       010VISTA          000000000002400000000025000000000240000000000000000000024000066056100
0202LOTE PADRAO                   CEMIG       PN * EJ    CMIG4       010VISTA          000000000024750000000253000000002450000000000000000000248000037279300
0202LOTE PADRAO                   TELE CL SUL PN * EJ    TCSL4       010VISTA          000000000002300000000024000000000230000000000000000000024000060415400
0202LOTE PADRAO                   TRACTEBEL   ON *       TBLE3       010VISTA          000000000004200000000045000000000420000000000000000000043000004304200
0202LOTE PADRAO                   CEMIG       ON * EJ    CMIG3       010VISTA          000000000019400000000201000000001940000000000000000000195000000549000
0202LOTE PADRAO                   TELE CL SUL ON * EJ    TCSL3       010VISTA          000000000002200000000024000000000220000000000000000000023000075671500
0202LOTE PADRAO                   ITAUSA      PN         ITSA4       010VISTA          000000000002100000000021000000000210000000000000000000021000000235300
0202LOTE PADRAO                   V C P       PN *       VCPA4       010VISTA          000000000127000000001299000000012690000000000000000001280000001106000
0202LOTE PADRAO                   SID TUBARAO PN *       CSTB4       010VISTA          000000000043200000000447000000004320000000000000000000444000005477900
0202LOTE PADRAO                   BRADESPAR   PN *       BRAP4       010VISTA          000000000000640000000006500000000063000000000000000000006500064072600
0202LOTE PADRAO                   NET         PN         PLIM4       010VISTA          000000000000280000000002900000000028000000000000000000002900000590500
0202LOTE PADRAO                   TELE CTR OESPN * EJ    TCOC4       010VISTA          000000000005250000000055000000000520000000000000000000055000100746000
0202LOTE PADRAO                   TELEMAR N L PNA* EJ    TMAR5       010VISTA          000000000037900000000382000000003775000000000000000000377500044608500
0202LOTE PADRAO                   GERDAU      PN * EJ    GGBR4       010VISTA          000000000030800000000310000000003050000000000000000000309000014539800
0202LOTE PADRAO                   BRASIL      ON *       BBAS3       010VISTA          000000000010800000000109000000001060000000000000000000107000031662800
