00BDIN9999BOVESPA 99992003061320030613
0101IBOVESPA                      0139800136770140470000000000000000002003061300000020030613013734000000
0202LOTE PADRAO                   EMBRATEL PARPN *       EBTP4       010VISTA          000000000007000000000070000000000590000000000000000000059601353720000
0202LOTE PADRAO                   TRAN PAULISTPN * EJ    TRPL4       010VISTA          000000000007100000000072000000000710000000000000000000071000025145900
0202LOTE PADRAO                   EMBRATEL PARON *       EBTP3       010VISTA          000000000007400000000075000000000620000000000000000000064000141270000
0202LOTE PADRAO                   TELEMAR     PN * EJ    TNLP4       010VISTA          000000000035800000000363000000003530000000000000000000354000293748000
0202LOTE PADRAO                   ITAUBANCO   PN * EJ    ITAU4       010VISTA          000000000197000000002010000000019510000000000000000001974000010192300
0202LOTE PADRAO                   TELEMAR     ON * EJ    TNLP3       010VISTA          000000000026100000000261000000002530000000000000000000256000018733100
0202LOTE PADRAO                   SID NACIONALON *       CSNA3       010VISTA          000000000062500000000650000000006250000000000000000000644000029916100
0202LOTE PADRAO                   TELE LEST CLPN *       TLCP4       010VISTA          000000000000470000000004700000000045000000000000000000004700115770000
0202LOTE PADRAO                   CRT CELULAR PNA* EJ    CRTP5       010VISTA          000000000340000000003420000000033400000000000000000003340000000740500
0202LOTE PADRAO                   IPIRANGA PETPN *       PTIP4       010VISTA          000000000009500000000096000000000910000000000000000000093000012454300
0202LOTE PADRAO                   BRASIL T PARPN *       BRTP4       010VISTA          000000000022500000000225000000002180000000000000000000219000030356700
0202LOTE PADRAO                   BRASIL T PARON *       BRTP3       010VISTA          000000000016800000000170000000001650000000000000000000168000004567200
0202LOTE PADRAO                   KLABIN S/A  PN         KLBN4       010VISTA          000000000002800000000028000000000270000000000000000000028000000224300
0202LOTE PADRAO                   ACESITA     PN *       ACES4       010VISTA          000000000001400000000014000000000140000000000000000000014000073023200
0202LOTE PADRAO                   PETROBRAS   PN         PETR4       010VISTA          000000000054300000000548000000005380000000000000000000541000000103600
0202LOTE PADRAO                   ELETROBRAS  PNB*       ELET6       010VISTA          000000000025300000000256000000002510000000000000000000252500036606800
0202LOTE PADRAO                   PETROBRAS   ON         PETR3       010VISTA          000000000059000000000593000000005800000000000000000000588000000022600
0202LOTE PADRAO                   COMGAS      PNA*       CGAS5       010VISTA          000000000066000000000672000000006550000000000000000000666000000527800
0202LOTE PADRAO                   SOUZA CRUZ  ON EJ      CRUZ3       010VISTA          000000000021300000000216000000002125000000000000000000216000000015900
0202LOTE PADRAO                   ELETROBRAS  ON *       ELET3       010VISTA          000000000023100000000235000000002310000000000000000000232500003896300
0202LOTE PADRAO                   CELESC      PNB        CLSC6       010VISTA          000000000000500000000005000000000048000000000000000000005000000112900
0202LOTE PADRAO                   BRADESCO    PN * EJ    BBDC4       010VISTA          000000000011600000000117000000001150000000000000000000115000177274000
0202LOTE PADRAO                   CESP        PN *       CESP4       010VISTA          000000000008400000000085000000000830000000000000000000083000006305500
0202LOTE PADRAO                   LIGHT       ON *       LIGH3       010VISTA          000000000028600000000293000000002830000000000000000000283000000831400
0202LOTE PADRAO                   TELESP CL PAPN *       TSPP4       010VISTA          000000000004700000000047000000000460000000000000000000046000327368000
0202LOTE PADRAO                   VALE R DOCE PNA        VALE5       010VISTA          000000000080200000000805000000007900000000000000000000792000000027700
0202LOTE PADRAO                   COPEL       PNB*       CPLE6       010VISTA          000000000010500000000105000000001030000000000000000000103000044876100
0202LOTE PADRAO                   VALE R DOCE ON         VALE3       010VISTA          000000000084700000000859000000008350000000000000000000835000000005100
0202LOTE PADRAO                   ARACRUZ     PNB        ARCZ6       010VISTA          000000000005800000000058000000000570000000000000000000057000000024100
0202LOTE PADRAO                   TELEMIG PARTPN *       TMCP4       010VISTA          000000000002900000000030000000000290000000000000000000030000080982500
0202LOTE PADRAO                   BRASIL TELECPN *       BRTO4       010VISTA          000000000013800000000139000000001350000000000000000000135000080092500
0202LOTE PADRAO                   SABESP      ON *       SBSP3       010VISTA          000000000115200000001170000000011470000000000000000001159000003260600
0202LOTE PADRAO                   BRASKEM     PNA*       BRKM5       010VISTA          000000000398400000003988000000038550000000000000000003940000000175000
0202LOTE PADRAO                   EMBRAER     PN EJ      EMBR4       010VISTA          000000000014100000000144000000001410000000000000000000143000000181400
0202LOTE PADRAO                   TELESP      PN * EJ    TLPP4       010VISTA          000000000032700000000327000000003240000000000000000000327000008167500
0202LOTE PADRAO                   EMBRAER     ON EJ      EMBR3       010VISTA          000000000011500000000116000000001130000000000000000000116000000043800
0202LOTE PADRAO                   AMBEV       PN *       AMBV4       010VISTA          000000000600000000006000000000058700000000000000000005890000001862700
0202LOTE PADRAO                   USIMINAS    PNA        USIM5       010VISTA          000000000012300000000126000000001180000000000000000000123000000083400
0202LOTE PADRAO                   ELETROPAULO PN *       ELPL4       010VISTA          000000000028100000000286000000002780000000000000000000284000004515000
0202LOTE PADRAO                   TELE NORD CLPN *       TNEP4       010VISTA          000000000002500000000025000000000240000000000000000000024000047787000
0202LOTE PADRAO                   CEMIG       PN * EJ    CMIG4       010VISTA          000000000030600000000308000000003000000000000000000000303000036325700
0202LOTE PADRAO                   TELE CL SUL PN * EJ    TCSL4       010VISTA          000000000002600000000026000000000256000000000000000000025000056689800
0202LOTE PADRAO                   TRACTEBEL   ON *       TBLE3       010VISTA          000000000006700000000067000000000620000000000000000000062000006712700
0202LOTE PADRAO                   CEMIG       ON * EJ    CMIG3       010VISTA          000000000023700000000238000000002330000000000000000000235000000300000
0202LOTE PADRAO                   TELE CL SUL ON * EJ    TCSL3       010VISTA          000000000002200000000023000000000225000000000000000000022700015436900
0202LOTE PADRAO                   ITAUSA      PN         ITSA4       010VISTA          000000000002400000000024000000000230000000000000000000023000000167800
0202LOTE PADRAO                   V C P       PN *       VCPA4       010VISTA          000000000107500000001084000000010600000000000000000001080000001860400
0202LOTE PADRAO                   SID TUBARAO PN *       CSTB4       010VISTA          000000000050400000000504000000004800000000000000000000497000004972300
0202LOTE PADRAO                   BRADESPAR   PN *       BRAP4       010VISTA          000000000000650000000006500000000064000000000000000000006400061348600
0202LOTE PADRAO                   NET         PN         PLIM4       010VISTA          000000000000360000000003800000000035000000000000000000003600000923300
0202LOTE PADRAO                   TELE CTR OESPN * EJ    TCOC4       010VISTA          000000000005750000000057000000000560000000000000000000057000063782000
0202LOTE PADRAO                   TELEMAR N L PNA* EJ    TMAR5       010VISTA          000000000044500000000446000000004280000000000000000000432000029124900
0202LOTE PADRAO                   GERDAU      PN * EJ    GGBR4       010VISTA          000000000034200000000342000000003330000000000000000000335000000046800
0202LOTE PADRAO                   BRASIL      ON *       BBAS3       010VISTA          000000000015400000000156000000001490000000000000000000150000038121200
