00BDIN9999BOVESPA 99992003040120030401
0101IBOVESPA                      0112830112830116170000000000000000002003040100000020030401011592000000
0202LOTE PADRAO                   EMBRATEL PARPN *       EBTP4       010VISTA          000000000003400000000035000000000340000000000000000000035600325572000
0202LOTE PADRAO                   TRAN PAULISTPN * EJ    TRPL4       010VISTA          000000000006000000000060000000000596000000000000000000059000007366700
0202LOTE PADRAO                   EMBRATEL PARON *       EBTP3       010VISTA          000000000004100000000042000000000410000000000000000000042500042113300
0202LOTE PADRAO                   TELEMAR     PN * EJ    TNLP4       010VISTA          000000000027900000000290000000002780000000000000000000290000320782000
0202LOTE PADRAO                   ITAUBANCO   PN * EJ    ITAU4       010VISTA          000000000185000000001850000000018150000000000000000001815000008486100
0202LOTE PADRAO                   TELEMAR     ON * EJ    TNLP3       010VISTA          000000000020100000000208000000001980000000000000000000208000028201100
0202LOTE PADRAO                   SID NACIONALON *       CSNA3       010VISTA          000000000065300000000653000000006220000000000000000000637000098335700
0202LOTE PADRAO                   TELE LEST CLPN *       TLCP4       010VISTA          000000000000430000000004400000000042000000000000000000004400083561000
0202LOTE PADRAO                   CRT CELULAR PNA* EJ    CRTP5       010VISTA          000000000328000000003350000000032800000000000000000003339000000397400
0202LOTE PADRAO                   IPIRANGA PETPN *       PTIP4       010VISTA          000000000007000000000072500000000700000000000000000000070000003850000
0202LOTE PADRAO                   BRASIL T PARPN *       BRTP4       010VISTA          000000000018800000000193000000001880000000000000000000191000055701300
0202LOTE PADRAO                   BRASIL T PARON *       BRTP3       010VISTA          000000000014600000000151000000001450000000000000000000149000004291600
0202LOTE PADRAO                   KLABIN S/A  PN         KLBN4       010VISTA          000000000001800000000019900000000180000000000000000000019600000249200
0202LOTE PADRAO                   ACESITA     PN *       ACES4       010VISTA          000000000001200000000012400000000110000000000000000000011000447182000
0202LOTE PADRAO                   PETROBRAS   PN         PETR4       010VISTA          000000000046600000000478000000004660000000000000000000476000000148100
0202LOTE PADRAO                   ELETROBRAS  PNB*       ELET6       010VISTA          000000000020300000000214000000002030000000000000000000211000051769100
0202LOTE PADRAO                   PETROBRAS   ON         PETR3       010VISTA          000000000051600000000525000000005120000000000000000000522000000016800
0202LOTE PADRAO                   COMGAS      PNA*       CGAS5       010VISTA          000000000051000000000521000000005010000000000000000000521000000987000
0202LOTE PADRAO                   SOUZA CRUZ  ON EJ      CRUZ3       010VISTA          000000000019300000000197000000001930000000000000000000195000000011200
0202LOTE PADRAO                   ELETROBRAS  ON *       ELET3       010VISTA          000000000018500000000194000000001850000000000000000000188000014965400
0202LOTE PADRAO                   CELESC      PNB        CLSC6       010VISTA          000000000000440000000004500000000043000000000000000000004400000260700
0202LOTE PADRAO                   BRADESCO    PN * EJ    BBDC4       010VISTA          000000000011750000000118000000001150000000000000000000115000096441300
0202LOTE PADRAO                   CESP        PN *       CESP4       010VISTA          000000000006000000000060000000000590000000000000000000060000010608200
0202LOTE PADRAO                   LIGHT       ON *       LIGH3       010VISTA          000000000024300000000246000000002420000000000000000000243000000961500
0202LOTE PADRAO                   TELESP CL PAPN *       TSPP4       010VISTA          000000000004300000000045000000000430000000000000000000045400446751000
0202LOTE PADRAO                   VALE R DOCE PNA        VALE5       010VISTA          000000000087500000000882000000008700000000000000000000878000000026500
0202LOTE PADRAO                   COPEL       PNB*       CPLE6       010VISTA          000000000008300000000086000000000820000000000000000000084000039611900
0202LOTE PADRAO                   VALE R DOCE ON         VALE3       010VISTA          000000000090500000000920000000009025000000000000000000915000000013200
0202LOTE PADRAO                   ARACRUZ     PNB        ARCZ6       010VISTA          000000000006600000000067500000000660000000000000000000066000000034900
0202LOTE PADRAO                   TELEMIG PARTPN *       TMCP4       010VISTA          000000000002800000000029600000000280000000000000000000029000067370300
0202LOTE PADRAO                   BRASIL TELECPN *       BRTO4       010VISTA          000000000010800000000113000000001080000000000000000000112500128480000
0202LOTE PADRAO                   SABESP      ON *       SBSP3       010VISTA          000000000081600000000844000000008100000000000000000000844000006189600
0202LOTE PADRAO                   BRASKEM     PNA*       BRKM5       010VISTA          000000000214000000002300000000021400000000000000000002280000001074100
0202LOTE PADRAO                   EMBRAER     PN EJ      EMBR4       010VISTA          000000000009900000000102000000000990000000000000000000102000000141300
0202LOTE PADRAO                   TELESP      PN * EJ    TLPP4       010VISTA          000000000031100000000316000000003110000000000000000000316000008706900
0202LOTE PADRAO                   EMBRAER     ON EJ      EMBR3       010VISTA          000000000008400000000086000000000840000000000000000000086000000014100
0202LOTE PADRAO                   AMBEV       PN *       AMBV4       010VISTA          000000000562000000005850000000055600000000000000000005730000004584900
0202LOTE PADRAO                   USIMINAS    PNA        USIM5       010VISTA          000000000009250000000093000000000910000000000000000000091000000077100
0202LOTE PADRAO                   ELETROPAULO PN *       ELPL4       010VISTA          000000000022500000000229000000002175000000000000000000229000008324900
0202LOTE PADRAO                   TELE NORD CLPN *       TNEP4       010VISTA          000000000002400000000025400000000240000000000000000000025000090063300
0202LOTE PADRAO                   CEMIG       PN * EJ    CMIG4       010VISTA          000000000025500000000266000000002550000000000000000000265000069419000
0202LOTE PADRAO                   TELE CL SUL PN * EJ    TCSL4       010VISTA          000000000002400000000024000000000230000000000000000000023000094606800
0202LOTE PADRAO                   TRACTEBEL   ON *       TBLE3       010VISTA          000000000004200000000044000000000425000000000000000000044000066730000
0202LOTE PADRAO                   CEMIG       ON * EJ    CMIG3       010VISTA          000000000019200000000206000000001920000000000000000000204000001845500
0202LOTE PADRAO                   TELE CL SUL ON * EJ    TCSL3       010VISTA          000000000002700000000027000000000260000000000000000000026000050234900
0202LOTE PADRAO                   ITAUSA      PN         ITSA4       010VISTA          000000000002000000000021000000000200000000000000000000020000000184400
0202LOTE PADRAO                   V C P       PN *       VCPA4       010VISTA          000000000129900000001299000000012400000000000000000001255000000932000
0202LOTE PADRAO                   SID TUBARAO PN *       CSTB4       010VISTA          000000000043500000000439000000004320000000000000000000437000006193900
0202LOTE PADRAO                   BRADESPAR   PN *       BRAP4       010VISTA          000000000000750000000007600000000069000000000000000000006901043990000
0202LOTE PADRAO                   NET         PN         PLIM4       010VISTA          000000000000280000000002900000000027000000000000000000002800000896500
0202LOTE PADRAO                   TELE CTR OESPN * EJ    TCOC4       010VISTA          000000000005400000000056000000000540000000000000000000056000132350000
0202LOTE PADRAO                   TELEMAR N L PNA* EJ    TMAR5       010VISTA          000000000037200000000380000000003680000000000000000000380000037978500
0202LOTE PADRAO                   GERDAU      PN * EJ    GGBR4       010VISTA          000000000030700000000310000000003000000000000000000000301000030758200
0202LOTE PADRAO                   BRASIL      ON *       BBAS3       010VISTA          000000000010500000000108000000001050000000000000000000106000024177900
