00BDIN9999BOVESPA 99992003082820030828
0101IBOVESPA                      0151510149290152520000000000000000002003082800000020030828015065000000
0202LOTE PADRAO                   EMBRATEL PARPN *       EBTP4       010VISTA          000000000006300000000064000000000610000000000000000000061000413034000
0202LOTE PADRAO                   TRAN PAULISTPN * EJ    TRPL4       010VISTA          000000000008900000000089000000000860000000000000000000086000015473400
0202LOTE PADRAO                   EMBRATEL PARON *       EBTP3       010VISTA          000000000006500000000065000000000630000000000000000000063000034027300
0202LOTE PADRAO                   TELEMAR     PN * EJ    TNLP4       010VISTA          000000000038100000000390000000003760000000000000000000383000471461000
0202LOTE PADRAO                   ITAUBANCO   PN * EJ    ITAU4       010VISTA          000000000228000000002309000000022600000000000000000002280000013679300
0202LOTE PADRAO                   TELEMAR     ON * EJ    TNLP3       010VISTA          000000000028600000000288000000002760000000000000000000278000046809000
0202LOTE PADRAO                   SID NACIONALON *       CSNA3       010VISTA          000000000096500000000965000000009240000000000000000000960000029214400
0202LOTE PADRAO                   TELE LEST CLPN *       TLCP4       010VISTA          000000000000440000000004500000000044000000000000000000004500118402000
0202LOTE PADRAO                   CRT CELULAR PNA* EJ    CRTP5       010VISTA          000000000410000000004340000000041000000000000000000004270000000478000
0202LOTE PADRAO                   IPIRANGA PETPN *       PTIP4       010VISTA          000000000011100000000114000000001080000000000000000000112500014104800
0202LOTE PADRAO                   BRASIL T PARPN *       BRTP4       010VISTA          000000000023000000000231000000002240000000000000000000225000067026400
0202LOTE PADRAO                   BRASIL T PARON *       BRTP3       010VISTA          000000000017100000000174000000001680000000000000000000168000011881300
0202LOTE PADRAO                   KLABIN S/A  PN         KLBN4       010VISTA          000000000003200000000032000000000310000000000000000000031000000131600
0202LOTE PADRAO                   ACESITA     PN *       ACES4       010VISTA          000000000001510000000015100000000140000000000000000000014000292048000
0202LOTE PADRAO                   PETROBRAS   PN         PETR4       010VISTA          000000000059200000000598000000005870000000000000000000592500000103000
0202LOTE PADRAO                   ELETROBRAS  PNB*       ELET6       010VISTA          000000000024500000000250000000002430000000000000000000244000060172900
0202LOTE PADRAO                   PETROBRAS   ON         PETR3       010VISTA          000000000063750000000645000000006320000000000000000000645000000030900
0202LOTE PADRAO                   COMGAS      PNA*       CGAS5       010VISTA          000000000084000000000850000000008200000000000000000000822000001055200
0202LOTE PADRAO                   SOUZA CRUZ  ON EJ      CRUZ3       010VISTA          000000000024000000000245000000002400000000000000000000240000000006400
0202LOTE PADRAO                   ELETROBRAS  ON *       ELET3       010VISTA          000000000022000000000223000000002160000000000000000000221000011310200
0202LOTE PADRAO                   CELESC      PNB        CLSC6       010VISTA          000000000000470000000004700000000045000000000000000000004700000356300
0202LOTE PADRAO                   BRADESCO    PN * EJ    BBDC4       010VISTA          000000000013100000000131000000001280000000000000000000128000255372000
0202LOTE PADRAO                   CESP        PN *       CESP4       010VISTA          000000000008100000000084000000000810000000000000000000081000063346500
0202LOTE PADRAO                   LIGHT       ON *       LIGH3       010VISTA          000000000029000000000295000000002850000000000000000000293000001254200
0202LOTE PADRAO                   TELESP CL PAPN *       TSPP4       010VISTA          000000000004800000000049000000000470000000000000000000047000331153000
0202LOTE PADRAO                   VALE R DOCE PNA        VALE5       010VISTA          000000000100000000001015000000009825000000000000000001009000000022600
0202LOTE PADRAO                   COPEL       PNB*       CPLE6       010VISTA          000000000008400000000085000000000810000000000000000000082000232716000
0202LOTE PADRAO                   VALE R DOCE ON         VALE3       010VISTA          000000000106500000001120000000010650000000000000000001102000000007500
0202LOTE PADRAO                   ARACRUZ     PNB        ARCZ6       010VISTA          000000000007800000000078000000000770000000000000000000077000000046700
0202LOTE PADRAO                   TELEMIG PARTPN *       TMCP4       010VISTA          000000000003400000000034000000000320000000000000000000033000108636000
0202LOTE PADRAO                   BRASIL TELECPN *       BRTO4       010VISTA          000000000014100000000142500000001360000000000000000000138000108743000
0202LOTE PADRAO                   SABESP      ON *       SBSP3       010VISTA          000000000129000000001300000000012650000000000000000001280000015871300
0202LOTE PADRAO                   BRASKEM     PNA*       BRKM5       010VISTA          000000000610000000006130000000060800000000000000000006102000000484100
0202LOTE PADRAO                   EMBRAER     PN EJ      EMBR4       010VISTA          000000000014000000000145000000001390000000000000000000144000000105600
0202LOTE PADRAO                   TELESP      PN * EJ    TLPP4       010VISTA          000000000032600000000339000000003260000000000000000000337000038053100
0202LOTE PADRAO                   EMBRAER     ON EJ      EMBR3       010VISTA          000000000011000000000113000000001080000000000000000000113000000036300
0202LOTE PADRAO                   AMBEV       PN *       AMBV4       010VISTA          000000000620000000006400000000062000000000000000000006310000010244300
0202LOTE PADRAO                   USIMINAS    PNA        USIM5       010VISTA          000000000017500000000175000000001640000000000000000000165000000132500
0202LOTE PADRAO                   ELETROPAULO PN *       ELPL4       010VISTA          000000000028900000000298000000002850000000000000000000294000017287900
0202LOTE PADRAO                   TELE NORD CLPN *       TNEP4       010VISTA          000000000002500000000025600000000250000000000000000000025400084885300
0202LOTE PADRAO                   CEMIG       PN * EJ    CMIG4       010VISTA          000000000030900000000319000000003080000000000000000000316000113215000
0202LOTE PADRAO                   TELE CL SUL PN * EJ    TCSL4       010VISTA          000000000002500000000025000000000252000000000000000000025400082958700
0202LOTE PADRAO                   TRACTEBEL   ON *       TBLE3       010VISTA          000000000007700000000079000000000750000000000000000000079000004070400
0202LOTE PADRAO                   CEMIG       ON * EJ    CMIG3       010VISTA          000000000023600000000241000000002360000000000000000000240000003960100
0202LOTE PADRAO                   TELE CL SUL ON * EJ    TCSL3       010VISTA          000000000002200000000022500000000210000000000000000000022500030358300
0202LOTE PADRAO                   ITAUSA      PN         ITSA4       010VISTA          000000000002750000000029000000000270000000000000000000028000000514900
0202LOTE PADRAO                   V C P       PN *       VCPA4       010VISTA          000000000151000000001510000000014900000000000000000001495000002515800
0202LOTE PADRAO                   SID TUBARAO PN *       CSTB4       010VISTA          000000000063400000000635000000005970000000000000000000597000023251500
0202LOTE PADRAO                   BRADESPAR   PN *       BRAP4       010VISTA          000000000000790000000007900000000077000000000000000000007800140108000
0202LOTE PADRAO                   NET         PN         PLIM4       010VISTA          000000000000360000000003900000000036000000000000000000003800001841000
0202LOTE PADRAO                   TELE CTR OESPN * EJ    TCOC4       010VISTA          000000000006000000000060000000000580000000000000000000059000078655800
0202LOTE PADRAO                   TELEMAR N L PNA* EJ    TMAR5       010VISTA          000000000044400000000451000000004300000000000000000000447000033054200
0202LOTE PADRAO                   GERDAU      PN * EJ    GGBR4       010VISTA          000000000044500000000445000000004250000000000000000000428000000046000
0202LOTE PADRAO                   BRASIL      ON *       BBAS3       010VISTA          000000000015900000000159000000001540000000000000000000154000016079300
