00BDIN9999BOVESPA 99992003051320030513
0101IBOVESPA                      0133220133160135650000000000000000002003051300000020030513013421000000
0202LOTE PADRAO                   EMBRATEL PARPN *       EBTP4       010VISTA          000000000004700000000047500000000460000000000000000000046000390997000
0202LOTE PADRAO                   TRAN PAULISTPN * EJ    TRPL4       010VISTA          000000000007540000000078000000000754000000000000000000077000030696100
0202LOTE PADRAO                   EMBRATEL PARON *       EBTP3       010VISTA          000000000005400000000055000000000530000000000000000000053000020710100
0202LOTE PADRAO                   TELEMAR     PN * EJ    TNLP4       010VISTA          000000000034500000000356000000003410000000000000000000350000485817000
0202LOTE PADRAO                   ITAUBANCO   PN * EJ    ITAU4       010VISTA          000000000202000000002090000000019800000000000000000002040000027096800
0202LOTE PADRAO                   TELEMAR     ON * EJ    TNLP3       010VISTA          000000000025000000000258000000002500000000000000000000256000030553200
0202LOTE PADRAO                   SID NACIONALON *       CSNA3       010VISTA          000000000059500000000600000000005825000000000000000000590000021867100
0202LOTE PADRAO                   TELE LEST CLPN *       TLCP4       010VISTA          000000000000470000000004700000000045000000000000000000004600221170000
0202LOTE PADRAO                   CRT CELULAR PNA* EJ    CRTP5       010VISTA          000000000357000000003606000000035600000000000000000003590000001119200
0202LOTE PADRAO                   IPIRANGA PETPN *       PTIP4       010VISTA          000000000009600000000096000000000920000000000000000000092000013621700
0202LOTE PADRAO                   BRASIL T PARPN *       BRTP4       010VISTA          000000000022000000000225000000002200000000000000000000221000146417000
0202LOTE PADRAO                   BRASIL T PARON *       BRTP3       010VISTA          000000000016800000000169000000001630000000000000000000165000012527000
0202LOTE PADRAO                   KLABIN S/A  PN         KLBN4       010VISTA          000000000002100000000021000000000200000000000000000000020000000062700
0202LOTE PADRAO                   ACESITA     PN *       ACES4       010VISTA          000000000001470000000014900000000130000000000000000000013000655637000
0202LOTE PADRAO                   PETROBRAS   PN         PETR4       010VISTA          000000000053500000000547000000005330000000000000000000543000000157900
0202LOTE PADRAO                   ELETROBRAS  PNB*       ELET6       010VISTA          000000000025600000000267000000002560000000000000000000262000108182000
0202LOTE PADRAO                   PETROBRAS   ON         PETR3       010VISTA          000000000057700000000590000000005770000000000000000000589000000055400
0202LOTE PADRAO                   COMGAS      PNA*       CGAS5       010VISTA          000000000059900000000599000000005750000000000000000000577000001885600
0202LOTE PADRAO                   SOUZA CRUZ  ON EJ      CRUZ3       010VISTA          000000000019800000000201000000001930000000000000000000195000000015000
0202LOTE PADRAO                   ELETROBRAS  ON *       ELET3       010VISTA          000000000024700000000253000000002470000000000000000000248000009877400
0202LOTE PADRAO                   CELESC      PNB        CLSC6       010VISTA          000000000000530000000005400000000051000000000000000000005100000240100
0202LOTE PADRAO                   BRADESCO    PN * EJ    BBDC4       010VISTA          000000000012000000000123000000001190000000000000000000119000671497000
0202LOTE PADRAO                   CESP        PN *       CESP4       010VISTA          000000000009300000000093000000000890000000000000000000090000017979100
0202LOTE PADRAO                   LIGHT       ON *       LIGH3       010VISTA          000000000032900000000340000000003160000000000000000000320000001924000
0202LOTE PADRAO                   TELESP CL PAPN *       TSPP4       010VISTA          000000000004600000000047000000000450000000000000000000047000527252000
0202LOTE PADRAO                   VALE R DOCE PNA        VALE5       010VISTA          000000000080000000000815000000007990000000000000000000807000000041300
0202LOTE PADRAO                   COPEL       PNB*       CPLE6       010VISTA          000000000010600000000109000000001060000000000000000000106000057403900
0202LOTE PADRAO                   VALE R DOCE ON         VALE3       010VISTA          000000000084700000000850000000008400000000000000000000845000000008900
0202LOTE PADRAO                   ARACRUZ     PNB        ARCZ6       010VISTA          000000000005710000000057100000000520000000000000000000053000000305000
0202LOTE PADRAO                   TELEMIG PARTPN *       TMCP4       010VISTA          000000000002800000000028000000000280000000000000000000028000104351000
0202LOTE PADRAO                   BRASIL TELECPN *       BRTO4       010VISTA          000000000013500000000138000000001340000000000000000000134000200366000
0202LOTE PADRAO                   SABESP      ON *       SBSP3       010VISTA          000000000107500000001110000000010740000000000000000001091000011139500
0202LOTE PADRAO                   BRASKEM     PNA*       BRKM5       010VISTA          000000000419000000004255000000040000000000000000000004000000000655800
0202LOTE PADRAO                   EMBRAER     PN EJ      EMBR4       010VISTA          000000000011000000000111000000001060000000000000000000111000000281700
0202LOTE PADRAO                   TELESP      PN * EJ    TLPP4       010VISTA          000000000033000000000334000000003160000000000000000000317000016532700
0202LOTE PADRAO                   EMBRAER     ON EJ      EMBR3       010VISTA          000000000009100000000094000000000910000000000000000000093000000040500
0202LOTE PADRAO                   AMBEV       PN *       AMBV4       010VISTA          000000000609800000006100000000060110000000000000000006070000003700600
0202LOTE PADRAO                   USIMINAS    PNA        USIM5       010VISTA          000000000010750000000111000000001075000000000000000000109000000073200
0202LOTE PADRAO                   ELETROPAULO PN *       ELPL4       010VISTA          000000000032900000000332000000003190000000000000000000319000011012500
0202LOTE PADRAO                   TELE NORD CLPN *       TNEP4       010VISTA          000000000002600000000027000000000260000000000000000000026000203698000
0202LOTE PADRAO                   CEMIG       PN * EJ    CMIG4       010VISTA          000000000032300000000330000000003210000000000000000000324000122316000
0202LOTE PADRAO                   TELE CL SUL PN * EJ    TCSL4       010VISTA          000000000002700000000028100000000271000000000000000000027000233663000
0202LOTE PADRAO                   TRACTEBEL   ON *       TBLE3       010VISTA          000000000004900000000052500000000490000000000000000000049000007702300
0202LOTE PADRAO                   CEMIG       ON * EJ    CMIG3       010VISTA          000000000024800000000253000000002480000000000000000000253000003838000
0202LOTE PADRAO                   TELE CL SUL ON * EJ    TCSL3       010VISTA          000000000002500000000026000000000250000000000000000000025000030391800
0202LOTE PADRAO                   ITAUSA      PN         ITSA4       010VISTA          000000000002400000000024000000000230000000000000000000023000000512900
0202LOTE PADRAO                   V C P       PN *       VCPA4       010VISTA          000000000107000000001070000000010200000000000000000001030000008519800
0202LOTE PADRAO                   SID TUBARAO PN *       CSTB4       010VISTA          000000000049600000000496000000004775000000000000000000482000024149000
0202LOTE PADRAO                   BRADESPAR   PN *       BRAP4       010VISTA          000000000000680000000006800000000066000000000000000000006600185005000
0202LOTE PADRAO                   NET         PN         PLIM4       010VISTA          000000000000390000000004000000000038000000000000000000003800000630700
0202LOTE PADRAO                   TELE CTR OESPN * EJ    TCOC4       010VISTA          000000000005500000000058000000000550000000000000000000058000153752000
0202LOTE PADRAO                   TELEMAR N L PNA* EJ    TMAR5       010VISTA          000000000045200000000463000000004520000000000000000000460000026565800
0202LOTE PADRAO                   GERDAU      PN * EJ    GGBR4       010VISTA          000000000031500000000319000000003125000000000000000000316000000034900
0202LOTE PADRAO                   BRASIL      ON *       BBAS3       010VISTA          000000000014600000000146000000001360000000000000000000137000088146100
