00BDIN9999BOVESPA 99992003081120030811
0101IBOVESPA                      0135000134420135820000000000000000002003081100000020030811013560000000
0202LOTE PADRAO                   EMBRATEL PARPN *       EBTP4       010VISTA          000000000005400000000055000000000530000000000000000000055000148182000
0202LOTE PADRAO                   TRAN PAULISTPN * EJ    TRPL4       010VISTA          000000000007250000000075000000000725000000000000000000075000007415200
0202LOTE PADRAO                   EMBRATEL PARON *       EBTP3       010VISTA          000000000005900000000059000000000580000000000000000000059000016010900
0202LOTE PADRAO                   TELEMAR     PN * EJ    TNLP4       010VISTA          000000000032500000000325000000003190000000000000000000324000203123000
0202LOTE PADRAO                   ITAUBANCO   PN * EJ    ITAU4       010VISTA          000000000212000000002149000000021020000000000000000002108000008094600
0202LOTE PADRAO                   TELEMAR     ON * EJ    TNLP3       010VISTA          000000000023800000000242500000002350000000000000000000242500009923000
0202LOTE PADRAO                   SID NACIONALON *       CSNA3       010VISTA          000000000080000000000835000000007980000000000000000000835000015970900
0202LOTE PADRAO                   TELE LEST CLPN *       TLCP4       010VISTA          000000000000390000000004100000000039000000000000000000004100116843000
0202LOTE PADRAO                   CRT CELULAR PNA* EJ    CRTP5       010VISTA          000000000351000000003570000000035050000000000000000003570000000284600
0202LOTE PADRAO                   IPIRANGA PETPN *       PTIP4       010VISTA          000000000009800000000099000000000975000000000000000000099000004456300
0202LOTE PADRAO                   BRASIL T PARPN *       BRTP4       010VISTA          000000000020600000000206000000002030000000000000000000205000012990000
0202LOTE PADRAO                   BRASIL T PARON *       BRTP3       010VISTA          000000000015500000000158000000001550000000000000000000155000007961000
0202LOTE PADRAO                   KLABIN S/A  PN         KLBN4       010VISTA          000000000002800000000028000000000281000000000000000000028000000084400
0202LOTE PADRAO                   ACESITA     PN *       ACES4       010VISTA          000000000001300000000013000000000130000000000000000000013000221247000
0202LOTE PADRAO                   PETROBRAS   PN         PETR4       010VISTA          000000000057200000000582000000005720000000000000000000580000000079600
0202LOTE PADRAO                   ELETROBRAS  PNB*       ELET6       010VISTA          000000000022900000000229000000002220000000000000000000223000037926200
0202LOTE PADRAO                   PETROBRAS   ON         PETR3       010VISTA          000000000061000000000621000000006100000000000000000000617500000027700
0202LOTE PADRAO                   COMGAS      PNA*       CGAS5       010VISTA          000000000072700000000727000000007270000000000000000000727000000000000
0202LOTE PADRAO                   SOUZA CRUZ  ON EJ      CRUZ3       010VISTA          000000000022600000000231000000002260000000000000000000228000000008200
0202LOTE PADRAO                   ELETROBRAS  ON *       ELET3       010VISTA          000000000020000000000200000000001940000000000000000000195000009424300
0202LOTE PADRAO                   CELESC      PNB        CLSC6       010VISTA          000000000000440000000004500000000042000000000000000000004300000597400
0202LOTE PADRAO                   BRADESCO    PN * EJ    BBDC4       010VISTA          000000000011900000000119000000001170000000000000000000117000127188000
0202LOTE PADRAO                   CESP        PN *       CESP4       010VISTA          000000000006500000000066000000000640000000000000000000065000005654900
0202LOTE PADRAO                   LIGHT       ON *       LIGH3       010VISTA          000000000023000000000236000000002300000000000000000000236000000200500
0202LOTE PADRAO                   TELESP CL PAPN *       TSPP4       010VISTA          000000000004100000000042500000000410000000000000000000041000091172900
0202LOTE PADRAO                   VALE R DOCE PNA        VALE5       010VISTA          000000000092000000000947000000009190000000000000000000942000000022200
0202LOTE PADRAO                   COPEL       PNB*       CPLE6       010VISTA          000000000008600000000087000000000840000000000000000000087000057402700
0202LOTE PADRAO                   VALE R DOCE ON         VALE3       010VISTA          000000000100200000001034000000010020000000000000000001027000000006500
0202LOTE PADRAO                   ARACRUZ     PNB        ARCZ6       010VISTA          000000000007200000000073000000000720000000000000000000072000000012500
0202LOTE PADRAO                   TELEMIG PARTPN *       TMCP4       010VISTA          000000000002800000000028000000000280000000000000000000028000031202200
0202LOTE PADRAO                   BRASIL TELECPN *       BRTO4       010VISTA          000000000012400000000125000000001230000000000000000000124000044880000
0202LOTE PADRAO                   SABESP      ON *       SBSP3       010VISTA          000000000106000000001067000000010430000000000000000001052000002635800
0202LOTE PADRAO                   BRASKEM     PNA*       BRKM5       010VISTA          000000000438000000004410000000043300000000000000000004380000000120000
0202LOTE PADRAO                   EMBRAER     PN EJ      EMBR4       010VISTA          000000000013300000000135000000001330000000000000000000134000000037900
0202LOTE PADRAO                   TELESP      PN * EJ    TLPP4       010VISTA          000000000030300000000303000000002930000000000000000000298000004727600
0202LOTE PADRAO                   EMBRAER     ON EJ      EMBR3       010VISTA          000000000010500000000107000000001050000000000000000000107000000023400
0202LOTE PADRAO                   AMBEV       PN *       AMBV4       010VISTA          000000000595500000005955000000058250000000000000000005850000001565400
0202LOTE PADRAO                   USIMINAS    PNA        USIM5       010VISTA          000000000015500000000160000000001500000000000000000000158000000100800
0202LOTE PADRAO                   ELETROPAULO PN *       ELPL4       010VISTA          000000000022600000000226000000002210000000000000000000225000003925700
0202LOTE PADRAO                   TELE NORD CLPN *       TNEP4       010VISTA          000000000002300000000023000000000220000000000000000000022000059274800
0202LOTE PADRAO                   CEMIG       PN * EJ    CMIG4       010VISTA          000000000027400000000276000000002710000000000000000000274000036554300
0202LOTE PADRAO                   TELE CL SUL PN * EJ    TCSL4       010VISTA          000000000002100000000022000000000210000000000000000000022000061172600
0202LOTE PADRAO                   TRACTEBEL   ON *       TBLE3       010VISTA          000000000007000000000073000000000700000000000000000000073000001930000
0202LOTE PADRAO                   CEMIG       ON * EJ    CMIG3       010VISTA          000000000020600000000210000000002060000000000000000000210000000218900
0202LOTE PADRAO                   TELE CL SUL ON * EJ    TCSL3       010VISTA          000000000001900000000019600000000190000000000000000000019500009494000
0202LOTE PADRAO                   ITAUSA      PN         ITSA4       010VISTA          000000000002540000000025000000000250000000000000000000025400000081900
0202LOTE PADRAO                   V C P       PN *       VCPA4       010VISTA          000000000133000000001338000000013200000000000000000001330000001631700
0202LOTE PADRAO                   SID TUBARAO PN *       CSTB4       010VISTA          000000000050000000000505000000005000000000000000000000500000010435300
0202LOTE PADRAO                   BRADESPAR   PN *       BRAP4       010VISTA          000000000000680000000006800000000066000000000000000000006800121655000
0202LOTE PADRAO                   NET         PN         PLIM4       010VISTA          000000000000330000000003400000000032000000000000000000003300000502900
0202LOTE PADRAO                   TELE CTR OESPN * EJ    TCOC4       010VISTA          000000000005250000000054000000000500000000000000000000052000035079600
0202LOTE PADRAO                   TELEMAR N L PNA* EJ    TMAR5       010VISTA          000000000038800000000392000000003860000000000000000000390000010051000
0202LOTE PADRAO                   GERDAU      PN * EJ    GGBR4       010VISTA          000000000034200000000346000000003420000000000000000000343000000010400
0202LOTE PADRAO                   BRASIL      ON *       BBAS3       010VISTA          000000000015000000000154000000001500000000000000000000152000024231000
