00BDIN9999BOVESPA 99992003080420030804
0101IBOVESPA                      0131280127570131280000000000000000002003080400000020030804012939000000
0202LOTE PADRAO                   EMBRATEL PARPN *       EBTP4       010VISTA          000000000005500000000055000000000500000000000000000000053000464484000
0202LOTE PADRAO                   TRAN PAULISTPN * EJ    TRPL4       010VISTA          000000000007000000000070000000000700000000000000000000070000004503800
0202LOTE PADRAO                   EMBRATEL PARON *       EBTP3       010VISTA          000000000005960000000060000000000550000000000000000000058000047255400
0202LOTE PADRAO                   TELEMAR     PN * EJ    TNLP4       010VISTA          000000000031100000000318000000003040000000000000000000313000336980000
0202LOTE PADRAO                   ITAUBANCO   PN * EJ    ITAU4       010VISTA          000000000205000000002090000000020500000000000000000002065000012229800
0202LOTE PADRAO                   TELEMAR     ON * EJ    TNLP3       010VISTA          000000000023000000000231000000002190000000000000000000228000010984700
0202LOTE PADRAO                   SID NACIONALON *       CSNA3       010VISTA          000000000080000000000800000000007700000000000000000000775000010202000
0202LOTE PADRAO                   TELE LEST CLPN *       TLCP4       010VISTA          000000000000410000000004200000000040000000000000000000004100060348500
0202LOTE PADRAO                   CRT CELULAR PNA* EJ    CRTP5       010VISTA          000000000364800000003650000000035500000000000000000003600000000693000
0202LOTE PADRAO                   IPIRANGA PETPN *       PTIP4       010VISTA          000000000010400000000105000000000980000000000000000000099000010976700
0202LOTE PADRAO                   BRASIL T PARPN *       BRTP4       010VISTA          000000000018700000000187000000001800000000000000000000183000070139200
0202LOTE PADRAO                   BRASIL T PARON *       BRTP3       010VISTA          000000000014000000000141000000001380000000000000000000140000008467100
0202LOTE PADRAO                   KLABIN S/A  PN         KLBN4       010VISTA          000000000002700000000027000000000270000000000000000000027000000069200
0202LOTE PADRAO                   ACESITA     PN *       ACES4       010VISTA          000000000001200000000012000000000125000000000000000000012600359189000
0202LOTE PADRAO                   PETROBRAS   PN         PETR4       010VISTA          000000000053700000000540000000005320000000000000000000536000000113900
0202LOTE PADRAO                   ELETROBRAS  PNB*       ELET6       010VISTA          000000000021600000000218000000002080000000000000000000215000040753800
0202LOTE PADRAO                   PETROBRAS   ON         PETR3       010VISTA          000000000057000000000578000000005700000000000000000000572000000049600
0202LOTE PADRAO                   COMGAS      PNA*       CGAS5       010VISTA          000000000073900000000739000000007050000000000000000000727000001521000
0202LOTE PADRAO                   SOUZA CRUZ  ON EJ      CRUZ3       010VISTA          000000000022300000000225000000002175000000000000000000218000000005900
0202LOTE PADRAO                   ELETROBRAS  ON *       ELET3       010VISTA          000000000018600000000195000000001830000000000000000000186000009652200
0202LOTE PADRAO                   CELESC      PNB        CLSC6       010VISTA          000000000000430000000004400000000042000000000000000000004300000305400
0202LOTE PADRAO                   BRADESCO    PN * EJ    BBDC4       010VISTA          000000000011600000000116000000001110000000000000000000112000225310000
0202LOTE PADRAO                   CESP        PN *       CESP4       010VISTA          000000000006700000000067000000000620000000000000000000064000010418200
0202LOTE PADRAO                   LIGHT       ON *       LIGH3       010VISTA          000000000023500000000235000000002300000000000000000000232500000475800
0202LOTE PADRAO                   TELESP CL PAPN *       TSPP4       010VISTA          000000000004000000000040000000000379000000000000000000039000326977000
0202LOTE PADRAO                   VALE R DOCE PNA        VALE5       010VISTA          000000000095000000000960000000009350000000000000000000939000000045200
0202LOTE PADRAO                   COPEL       PNB*       CPLE6       010VISTA          000000000007700000000078000000000750000000000000000000077000043004200
0202LOTE PADRAO                   VALE R DOCE ON         VALE3       010VISTA          000000000104000000001047000000010300000000000000000001042000000006800
0202LOTE PADRAO                   ARACRUZ     PNB        ARCZ6       010VISTA          000000000007500000000076000000000730000000000000000000075000000043800
0202LOTE PADRAO                   TELEMIG PARTPN *       TMCP4       010VISTA          000000000002900000000029600000000280000000000000000000028000044202300
0202LOTE PADRAO                   BRASIL TELECPN *       BRTO4       010VISTA          000000000011100000000111000000001090000000000000000000111000089889400
0202LOTE PADRAO                   SABESP      ON *       SBSP3       010VISTA          000000000103900000001040000000010000000000000000000001007000004387300
0202LOTE PADRAO                   BRASKEM     PNA*       BRKM5       010VISTA          000000000410000000004100000000039800000000000000000004001000000419700
0202LOTE PADRAO                   EMBRAER     PN EJ      EMBR4       010VISTA          000000000013250000000135000000001290000000000000000000131000000058400
0202LOTE PADRAO                   TELESP      PN * EJ    TLPP4       010VISTA          000000000029500000000295000000002860000000000000000000290000020034100
0202LOTE PADRAO                   EMBRAER     ON EJ      EMBR3       010VISTA          000000000010100000000107000000001010000000000000000000103000000014100
0202LOTE PADRAO                   AMBEV       PN *       AMBV4       010VISTA          000000000571000000005710000000054800000000000000000005630000003319800
0202LOTE PADRAO                   USIMINAS    PNA        USIM5       010VISTA          000000000014600000000146000000001380000000000000000000141000000061900
0202LOTE PADRAO                   ELETROPAULO PN *       ELPL4       010VISTA          000000000022500000000225000000002170000000000000000000223000004926100
0202LOTE PADRAO                   TELE NORD CLPN *       TNEP4       010VISTA          000000000002300000000023000000000220000000000000000000023000100225000
0202LOTE PADRAO                   CEMIG       PN * EJ    CMIG4       010VISTA          000000000026700000000267000000002560000000000000000000260000029717300
0202LOTE PADRAO                   TELE CL SUL PN * EJ    TCSL4       010VISTA          000000000002100000000021000000000210000000000000000000021000076389900
0202LOTE PADRAO                   TRACTEBEL   ON *       TBLE3       010VISTA          000000000005960000000073000000000590000000000000000000073000006202500
0202LOTE PADRAO                   CEMIG       ON * EJ    CMIG3       010VISTA          000000000020800000000208000000002000000000000000000000203000000453600
0202LOTE PADRAO                   TELE CL SUL ON * EJ    TCSL3       010VISTA          000000000001980000000020000000000194000000000000000000019800013340400
0202LOTE PADRAO                   ITAUSA      PN         ITSA4       010VISTA          000000000002400000000024000000000230000000000000000000023000000201800
0202LOTE PADRAO                   V C P       PN *       VCPA4       010VISTA          000000000136400000001389000000013640000000000000000001385000001001100
0202LOTE PADRAO                   SID TUBARAO PN *       CSTB4       010VISTA          000000000054500000000570000000005450000000000000000000550000008624800
0202LOTE PADRAO                   BRADESPAR   PN *       BRAP4       010VISTA          000000000000690000000007100000000069000000000000000000007000149057000
0202LOTE PADRAO                   NET         PN         PLIM4       010VISTA          000000000000310000000003100000000029000000000000000000003100001289900
0202LOTE PADRAO                   TELE CTR OESPN * EJ    TCOC4       010VISTA          000000000005000000000050000000000460000000000000000000049000106790000
0202LOTE PADRAO                   TELEMAR N L PNA* EJ    TMAR5       010VISTA          000000000038500000000385000000003790000000000000000000382500017881900
0202LOTE PADRAO                   GERDAU      PN * EJ    GGBR4       010VISTA          000000000033300000000337000000003270000000000000000000334000000024100
0202LOTE PADRAO                   BRASIL      ON *       BBAS3       010VISTA          000000000013800000000139000000001360000000000000000000139000008159900
