00BDIN9999BOVESPA 99992003021420030214
0101IBOVESPA                      0101030099680101630000000000000000002003021400000020030214010081000000
0202LOTE PADRAO                   EMBRATEL PARPN *       EBTP4       010VISTA          000000000002800000000029000000000281000000000000000000028000302621000
0202LOTE PADRAO                   TRAN PAULISTPN * EJ    TRPL4       010VISTA          000000000005000000000051000000000500000000000000000000050000009530800
0202LOTE PADRAO                   EMBRATEL PARON *       EBTP3       010VISTA          000000000003400000000035000000000330000000000000000000033000034263100
0202LOTE PADRAO                   TELEMAR     PN * EJ    TNLP4       010VISTA          000000000024100000000244000000002380000000000000000000241000253196000
0202LOTE PADRAO                   ITAUBANCO   PN * EJ    ITAU4       010VISTA          000000000155500000001569000000015420000000000000000001550000007584300
0202LOTE PADRAO                   TELEMAR     ON * EJ    TNLP3       010VISTA          000000000017500000000175000000001700000000000000000000174000010795200
0202LOTE PADRAO                   SID NACIONALON *       CSNA3       010VISTA          000000000060600000000606000000005900000000000000000000598000010634800
0202LOTE PADRAO                   TELE LEST CLPN *       TLCP4       010VISTA          000000000000400000000004000000000038000000000000000000003800076506800
0202LOTE PADRAO                   CRT CELULAR PNA* EJ    CRTP5       010VISTA          000000000315000000003150000000030900000000000000000003150000000156500
0202LOTE PADRAO                   IPIRANGA PETPN *       PTIP4       010VISTA          000000000006710000000068000000000671000000000000000000068000000826700
0202LOTE PADRAO                   BRASIL T PARPN *       BRTP4       010VISTA          000000000016500000000166000000001630000000000000000000164000020757200
0202LOTE PADRAO                   BRASIL T PARON *       BRTP3       010VISTA          000000000012400000000125000000001210000000000000000000123000012648100
0202LOTE PADRAO                   KLABIN S/A  PN         KLBN4       010VISTA          000000000001000000000011000000000100000000000000000000011000000015200
0202LOTE PADRAO                   ACESITA     PN *       ACES4       010VISTA          000000000000990000000010000000000098000000000000000000010000314971000
0202LOTE PADRAO                   PETROBRAS   PN         PETR4       010VISTA          000000000046000000000465000000004550000000000000000000458000000048200
0202LOTE PADRAO                   ELETROBRAS  PNB*       ELET6       010VISTA          000000000017800000000182000000001760000000000000000000180000039202100
0202LOTE PADRAO                   PETROBRAS   ON         PETR3       010VISTA          000000000050100000000509000000004970000000000000000000500000000025400
0202LOTE PADRAO                   COMGAS      PNA*       CGAS5       010VISTA          000000000043500000000439000000004350000000000000000000439000000150000
0202LOTE PADRAO                   SOUZA CRUZ  ON EJ      CRUZ3       010VISTA          000000000018500000000185000000001830000000000000000000185000000007100
0202LOTE PADRAO                   ELETROBRAS  ON *       ELET3       010VISTA          000000000016800000000171000000001660000000000000000000167000005449100
0202LOTE PADRAO                   CELESC      PNB        CLSC6       010VISTA          000000000000470000000004700000000046000000000000000000004700000145600
0202LOTE PADRAO                   BRADESCO    PN * EJ    BBDC4       010VISTA          000000000009800000000099000000000970000000000000000000099000106251000
0202LOTE PADRAO                   CESP        PN *       CESP4       010VISTA          000000000006000000000062500000000590000000000000000000061000006590300
0202LOTE PADRAO                   LIGHT       ON *       LIGH3       010VISTA          000000000028200000000282500000002750000000000000000000278000000425400
0202LOTE PADRAO                   TELESP CL PAPN *       TSPP4       010VISTA          000000000003200000000032000000000310000000000000000000031000215787000
0202LOTE PADRAO                   VALE R DOCE PNA        VALE5       010VISTA          000000000096000000000962000000009450000000000000000000951000000012300
0202LOTE PADRAO                   COPEL       PNB*       CPLE6       010VISTA          000000000007600000000076000000000740000000000000000000075000024739600
0202LOTE PADRAO                   VALE R DOCE ON         VALE3       010VISTA          000000000100800000001008000000009700000000000000000000987000000004600
0202LOTE PADRAO                   ARACRUZ     PNB        ARCZ6       010VISTA          000000000007100000000071000000000670000000000000000000068000000013500
0202LOTE PADRAO                   TELEMIG PARTPN *       TMCP4       010VISTA          000000000002300000000024800000000230000000000000000000024000061356100
0202LOTE PADRAO                   BRASIL TELECPN *       BRTO4       010VISTA          000000000009400000000095000000000910000000000000000000093000042777900
0202LOTE PADRAO                   SABESP      ON *       SBSP3       010VISTA          000000000083900000000850000000008250000000000000000000842000001304500
0202LOTE PADRAO                   BRASKEM     PNA*       BRKM5       010VISTA          000000000160000000001630000000015700000000000000000001580000000198700
0202LOTE PADRAO                   EMBRAER     PN EJ      EMBR4       010VISTA          000000000010000000000100000000000920000000000000000000094000000161300
0202LOTE PADRAO                   TELESP      PN * EJ    TLPP4       010VISTA          000000000029600000000304000000002950000000000000000000303000005504300
0202LOTE PADRAO                   EMBRAER     ON EJ      EMBR3       010VISTA          000000000009000000000090000000000800000000000000000000083000000007800
0202LOTE PADRAO                   AMBEV       PN *       AMBV4       010VISTA          000000000482000000004910000000047600000000000000000004870000001139900
0202LOTE PADRAO                   USIMINAS    PNA        USIM5       010VISTA          000000000007200000000072500000000700000000000000000000071000000040400
0202LOTE PADRAO                   ELETROPAULO PN *       ELPL4       010VISTA          000000000021900000000219000000002100000000000000000000219000003907100
0202LOTE PADRAO                   TELE NORD CLPN *       TNEP4       010VISTA          000000000002300000000023000000000230000000000000000000023000023034600
0202LOTE PADRAO                   CEMIG       PN * EJ    CMIG4       010VISTA          000000000023000000000233000000002230000000000000000000233000024551900
0202LOTE PADRAO                   TELE CL SUL PN * EJ    TCSL4       010VISTA          000000000002270000000023000000000220000000000000000000023000037361000
0202LOTE PADRAO                   TRACTEBEL   ON *       TBLE3       010VISTA          000000000003100000000032000000000280000000000000000000030000015305200
0202LOTE PADRAO                   CEMIG       ON * EJ    CMIG3       010VISTA          000000000019600000000196000000001910000000000000000000193000000261100
0202LOTE PADRAO                   TELE CL SUL ON * EJ    TCSL3       010VISTA          000000000001500000000016000000000150000000000000000000016000009128500
0202LOTE PADRAO                   ITAUSA      PN         ITSA4       010VISTA          000000000001810000000018000000000180000000000000000000018000000115300
0202LOTE PADRAO                   V C P       PN *       VCPA4       010VISTA          000000000131000000001310000000012750000000000000000001294000000411200
0202LOTE PADRAO                   SID TUBARAO PN *       CSTB4       010VISTA          000000000042500000000425000000004120000000000000000000420000007058800
0202LOTE PADRAO                   BRADESPAR   PN *       BRAP4       010VISTA          000000000000630000000006300000000061000000000000000000006200119059000
0202LOTE PADRAO                   NET         PN         PLIM4       010VISTA          000000000000270000000002800000000025000000000000000000002700000651100
0202LOTE PADRAO                   TELE CTR OESPN * EJ    TCOC4       010VISTA          000000000004000000000040000000000390000000000000000000039000057100100
0202LOTE PADRAO                   TELEMAR N L PNA* EJ    TMAR5       010VISTA          000000000036200000000363000000003550000000000000000000363000009994800
0202LOTE PADRAO                   GERDAU      PN * EJ    GGBR4       010VISTA          000000000031000000000318000000003000000000000000000000315000006204500
0202LOTE PADRAO                   BRASIL      ON *       BBAS3       010VISTA          000000000009200000000093000000000900000000000000000000093000017256300
