00BDIN9999BOVESPA 99992003030720030307
0101IBOVESPA                      0106080104380108000000000000000000002003030700000020030307010724000000
0202LOTE PADRAO                   EMBRATEL PARPN *       EBTP4       010VISTA          000000000003300000000034000000000330000000000000000000033000497903000
0202LOTE PADRAO                   TRAN PAULISTPN * EJ    TRPL4       010VISTA          000000000005500000000059000000000550000000000000000000058000010638200
0202LOTE PADRAO                   EMBRATEL PARON *       EBTP3       010VISTA          000000000003940000000039800000000380000000000000000000038000049740400
0202LOTE PADRAO                   TELEMAR     PN * EJ    TNLP4       010VISTA          000000000024500000000254000000002430000000000000000000252000398958000
0202LOTE PADRAO                   ITAUBANCO   PN * EJ    ITAU4       010VISTA          000000000164000000001666000000016390000000000000000001659000011435700
0202LOTE PADRAO                   TELEMAR     ON * EJ    TNLP3       010VISTA          000000000017800000000185000000001760000000000000000000184000045965400
0202LOTE PADRAO                   SID NACIONALON *       CSNA3       010VISTA          000000000059100000000594000000005820000000000000000000588000024481100
0202LOTE PADRAO                   TELE LEST CLPN *       TLCP4       010VISTA          000000000000400000000004200000000040000000000000000000004200175317000
0202LOTE PADRAO                   CRT CELULAR PNA* EJ    CRTP5       010VISTA          000000000314400000003170000000031100000000000000000003170000000385900
0202LOTE PADRAO                   IPIRANGA PETPN *       PTIP4       010VISTA          000000000007400000000077500000000730000000000000000000076000003455000
0202LOTE PADRAO                   BRASIL T PARPN *       BRTP4       010VISTA          000000000017900000000185000000001790000000000000000000183000058489600
0202LOTE PADRAO                   BRASIL T PARON *       BRTP3       010VISTA          000000000014400000000146000000001430000000000000000000146000006300900
0202LOTE PADRAO                   KLABIN S/A  PN         KLBN4       010VISTA          000000000001600000000016000000000160000000000000000000016000000038700
0202LOTE PADRAO                   ACESITA     PN *       ACES4       010VISTA          000000000001100000000012000000000110000000000000000000011000168609000
0202LOTE PADRAO                   PETROBRAS   PN         PETR4       010VISTA          000000000042400000000442000000004230000000000000000000441000000093400
0202LOTE PADRAO                   ELETROBRAS  PNB*       ELET6       010VISTA          000000000019000000000207000000001900000000000000000000200000078894000
0202LOTE PADRAO                   PETROBRAS   ON         PETR3       010VISTA          000000000046500000000485000000004650000000000000000000485000000032300
0202LOTE PADRAO                   COMGAS      PNA*       CGAS5       010VISTA          000000000045000000000453000000004450000000000000000000446000000911300
0202LOTE PADRAO                   SOUZA CRUZ  ON EJ      CRUZ3       010VISTA          000000000018600000000190000000001850000000000000000000188000000026700
0202LOTE PADRAO                   ELETROBRAS  ON *       ELET3       010VISTA          000000000018100000000195000000001780000000000000000000188000015941200
0202LOTE PADRAO                   CELESC      PNB        CLSC6       010VISTA          000000000000470000000004800000000046000000000000000000004800000177300
0202LOTE PADRAO                   BRADESCO    PN * EJ    BBDC4       010VISTA          000000000010500000000108000000001030000000000000000000106000349289000
0202LOTE PADRAO                   CESP        PN *       CESP4       010VISTA          000000000006100000000067500000000610000000000000000000064000011404000
0202LOTE PADRAO                   LIGHT       ON *       LIGH3       010VISTA          000000000029800000000314000000002950000000000000000000309000000884600
0202LOTE PADRAO                   TELESP CL PAPN *       TSPP4       010VISTA          000000000003600000000037900000000350000000000000000000037000383055000
0202LOTE PADRAO                   VALE R DOCE PNA        VALE5       010VISTA          000000000097000000000970000000009550000000000000000000960000000017400
0202LOTE PADRAO                   COPEL       PNB*       CPLE6       010VISTA          000000000008300000000088000000000830000000000000000000087000033749700
0202LOTE PADRAO                   VALE R DOCE ON         VALE3       010VISTA          000000000101900000001019000000009950000000000000000000995000000014900
0202LOTE PADRAO                   ARACRUZ     PNB        ARCZ6       010VISTA          000000000006700000000067000000000660000000000000000000067000000042600
0202LOTE PADRAO                   TELEMIG PARTPN *       TMCP4       010VISTA          000000000002500000000026000000000254000000000000000000026000091588300
0202LOTE PADRAO                   BRASIL TELECPN *       BRTO4       010VISTA          000000000011000000000113000000001100000000000000000000113000052954400
0202LOTE PADRAO                   SABESP      ON *       SBSP3       010VISTA          000000000077100000000815000000007710000000000000000000815000006598700
0202LOTE PADRAO                   BRASKEM     PNA*       BRKM5       010VISTA          000000000173900000001847000000017280000000000000000001751000000301200
0202LOTE PADRAO                   EMBRAER     PN EJ      EMBR4       010VISTA          000000000008800000000089000000000870000000000000000000088000000061600
0202LOTE PADRAO                   TELESP      PN * EJ    TLPP4       010VISTA          000000000032300000000333000000003230000000000000000000331000009505300
0202LOTE PADRAO                   EMBRAER     ON EJ      EMBR3       010VISTA          000000000007500000000075000000000740000000000000000000075000000016100
0202LOTE PADRAO                   AMBEV       PN *       AMBV4       010VISTA          000000000498400000004990000000049200000000000000000004935000004183100
0202LOTE PADRAO                   USIMINAS    PNA        USIM5       010VISTA          000000000007700000000079000000000760000000000000000000078000000040900
0202LOTE PADRAO                   ELETROPAULO PN *       ELPL4       010VISTA          000000000024200000000261000000002380000000000000000000258000007784000
0202LOTE PADRAO                   TELE NORD CLPN *       TNEP4       010VISTA          000000000002300000000024000000000220000000000000000000023000131918000
0202LOTE PADRAO                   CEMIG       PN * EJ    CMIG4       010VISTA          000000000024900000000249000000002330000000000000000000246000046235600
0202LOTE PADRAO                   TELE CL SUL PN * EJ    TCSL4       010VISTA          000000000002250000000023000000000220000000000000000000023000141838000
0202LOTE PADRAO                   TRACTEBEL   ON *       TBLE3       010VISTA          000000000003100000000031000000000300000000000000000000031000026726600
0202LOTE PADRAO                   CEMIG       ON * EJ    CMIG3       010VISTA          000000000019900000000208000000001990000000000000000000201000002083200
0202LOTE PADRAO                   TELE CL SUL ON * EJ    TCSL3       010VISTA          000000000001600000000018000000000160000000000000000000018000028571400
0202LOTE PADRAO                   ITAUSA      PN         ITSA4       010VISTA          000000000001900000000019400000000180000000000000000000019000000172300
0202LOTE PADRAO                   V C P       PN *       VCPA4       010VISTA          000000000130000000001320000000012850000000000000000001300000000966600
0202LOTE PADRAO                   SID TUBARAO PN *       CSTB4       010VISTA          000000000047300000000473000000004470000000000000000000455000010433600
0202LOTE PADRAO                   BRADESPAR   PN *       BRAP4       010VISTA          000000000000700000000007100000000068000000000000000000007000122877000
0202LOTE PADRAO                   NET         PN         PLIM4       010VISTA          000000000000290000000003200000000029000000000000000000003100000529400
0202LOTE PADRAO                   TELE CTR OESPN * EJ    TCOC4       010VISTA          000000000004500000000047000000000450000000000000000000047000070382900
0202LOTE PADRAO                   TELEMAR N L PNA* EJ    TMAR5       010VISTA          000000000035250000000368000000003525000000000000000000366000016595800
0202LOTE PADRAO                   GERDAU      PN * EJ    GGBR4       010VISTA          000000000033300000000335000000003275000000000000000000327500013084000
0202LOTE PADRAO                   BRASIL      ON *       BBAS3       010VISTA          000000000010000000000105000000000990000000000000000000103000039725500
