00BDIN9999BOVESPA 99992003041020030410
0101IBOVESPA                      0117840115780118190000000000000000002003041000000020030410011591000000
0202LOTE PADRAO                   EMBRATEL PARPN *       EBTP4       010VISTA          000000000003800000000038000000000360000000000000000000036000312453000
0202LOTE PADRAO                   TRAN PAULISTPN * EJ    TRPL4       010VISTA          000000000006200000000062000000000610000000000000000000062000014787300
0202LOTE PADRAO                   EMBRATEL PARON *       EBTP3       010VISTA          000000000004500000000045000000000440000000000000000000044000074283700
0202LOTE PADRAO                   TELEMAR     PN * EJ    TNLP4       010VISTA          000000000029300000000296000000002840000000000000000000286000349109000
0202LOTE PADRAO                   ITAUBANCO   PN * EJ    ITAU4       010VISTA          000000000188300000001883000000018130000000000000000001830000014524300
0202LOTE PADRAO                   TELEMAR     ON * EJ    TNLP3       010VISTA          000000000020800000000210000000002000000000000000000000203000022735100
0202LOTE PADRAO                   SID NACIONALON *       CSNA3       010VISTA          000000000065000000000672000000006460000000000000000000665000252170000
0202LOTE PADRAO                   TELE LEST CLPN *       TLCP4       010VISTA          000000000000450000000004500000000042000000000000000000004200103847000
0202LOTE PADRAO                   CRT CELULAR PNA* EJ    CRTP5       010VISTA          000000000321200000003300000000032110000000000000000003249000000544400
0202LOTE PADRAO                   IPIRANGA PETPN *       PTIP4       010VISTA          000000000007400000000074000000000720000000000000000000072000008850000
0202LOTE PADRAO                   BRASIL T PARPN *       BRTP4       010VISTA          000000000019300000000195000000001910000000000000000000192000070880000
0202LOTE PADRAO                   BRASIL T PARON *       BRTP3       010VISTA          000000000014800000000150000000001480000000000000000000150000006415200
0202LOTE PADRAO                   KLABIN S/A  PN         KLBN4       010VISTA          000000000001800000000019500000000180000000000000000000019400000067800
0202LOTE PADRAO                   ACESITA     PN *       ACES4       010VISTA          000000000001100000000012000000000110000000000000000000011000150045000
0202LOTE PADRAO                   PETROBRAS   PN         PETR4       010VISTA          000000000046300000000470000000004610000000000000000000462000000136700
0202LOTE PADRAO                   ELETROBRAS  PNB*       ELET6       010VISTA          000000000022500000000232500000002210000000000000000000224000058088000
0202LOTE PADRAO                   PETROBRAS   ON         PETR3       010VISTA          000000000050300000000512000000005010000000000000000000505000000027400
0202LOTE PADRAO                   COMGAS      PNA*       CGAS5       010VISTA          000000000051700000000530000000005050000000000000000000510000000643700
0202LOTE PADRAO                   SOUZA CRUZ  ON EJ      CRUZ3       010VISTA          000000000018800000000188000000001840000000000000000000184000000023700
0202LOTE PADRAO                   ELETROBRAS  ON *       ELET3       010VISTA          000000000020300000000206000000001980000000000000000000200000035603800
0202LOTE PADRAO                   CELESC      PNB        CLSC6       010VISTA          000000000000450000000004600000000044000000000000000000004600000103400
0202LOTE PADRAO                   BRADESCO    PN * EJ    BBDC4       010VISTA          000000000011900000000119000000001130000000000000000000114000160145000
0202LOTE PADRAO                   CESP        PN *       CESP4       010VISTA          000000000006250000000064000000000610000000000000000000061000004726500
0202LOTE PADRAO                   LIGHT       ON *       LIGH3       010VISTA          000000000027500000000280000000002570000000000000000000258000000869400
0202LOTE PADRAO                   TELESP CL PAPN *       TSPP4       010VISTA          000000000004500000000045000000000430000000000000000000043000346990000
0202LOTE PADRAO                   VALE R DOCE PNA        VALE5       010VISTA          000000000086400000000887000000008640000000000000000000880000000020100
0202LOTE PADRAO                   COPEL       PNB*       CPLE6       010VISTA          000000000008400000000087000000000840000000000000000000084000046930200
0202LOTE PADRAO                   VALE R DOCE ON         VALE3       010VISTA          000000000089600000000924000000008960000000000000000000919000000008800
0202LOTE PADRAO                   ARACRUZ     PNB        ARCZ6       010VISTA          000000000006700000000067000000000640000000000000000000066000000093200
0202LOTE PADRAO                   TELEMIG PARTPN *       TMCP4       010VISTA          000000000002700000000027000000000260000000000000000000026000133335000
0202LOTE PADRAO                   BRASIL TELECPN *       BRTO4       010VISTA          000000000011200000000115000000001100000000000000000000111000059411200
0202LOTE PADRAO                   SABESP      ON *       SBSP3       010VISTA          000000000094700000000948000000008900000000000000000000912000011838100
0202LOTE PADRAO                   BRASKEM     PNA*       BRKM5       010VISTA          000000000237000000002400000000023050000000000000000002307000000375600
0202LOTE PADRAO                   EMBRAER     PN EJ      EMBR4       010VISTA          000000000010600000000108000000001030000000000000000000105000000114400
0202LOTE PADRAO                   TELESP      PN * EJ    TLPP4       010VISTA          000000000032000000000320000000003160000000000000000000318000004840800
0202LOTE PADRAO                   EMBRAER     ON EJ      EMBR3       010VISTA          000000000009000000000091000000000880000000000000000000089000000015100
0202LOTE PADRAO                   AMBEV       PN *       AMBV4       010VISTA          000000000558000000005619000000055500000000000000000005580000001321900
0202LOTE PADRAO                   USIMINAS    PNA        USIM5       010VISTA          000000000009100000000093000000000900000000000000000000090000000066000
0202LOTE PADRAO                   ELETROPAULO PN *       ELPL4       010VISTA          000000000023300000000243000000002300000000000000000000236000007275700
0202LOTE PADRAO                   TELE NORD CLPN *       TNEP4       010VISTA          000000000002200000000023000000000220000000000000000000022000095346400
0202LOTE PADRAO                   CEMIG       PN * EJ    CMIG4       010VISTA          000000000027500000000280000000002690000000000000000000272500044031500
0202LOTE PADRAO                   TELE CL SUL PN * EJ    TCSL4       010VISTA          000000000002200000000023000000000227000000000000000000022000092063200
0202LOTE PADRAO                   TRACTEBEL   ON *       TBLE3       010VISTA          000000000004300000000043000000000420000000000000000000043000017404700
0202LOTE PADRAO                   CEMIG       ON * EJ    CMIG3       010VISTA          000000000021100000000214000000002050000000000000000000211000000270000
0202LOTE PADRAO                   TELE CL SUL ON * EJ    TCSL3       010VISTA          000000000002400000000025400000000240000000000000000000025000102453000
0202LOTE PADRAO                   ITAUSA      PN         ITSA4       010VISTA          000000000002100000000021000000000210000000000000000000021000000764600
0202LOTE PADRAO                   V C P       PN *       VCPA4       010VISTA          000000000121000000001214000000011990000000000000000001208000001225800
0202LOTE PADRAO                   SID TUBARAO PN *       CSTB4       010VISTA          000000000044700000000465000000004450000000000000000000462000012250100
0202LOTE PADRAO                   BRADESPAR   PN *       BRAP4       010VISTA          000000000000650000000006600000000064000000000000000000006500150636000
0202LOTE PADRAO                   NET         PN         PLIM4       010VISTA          000000000000310000000003100000000029000000000000000000003000000433800
0202LOTE PADRAO                   TELE CTR OESPN * EJ    TCOC4       010VISTA          000000000005500000000056000000000540000000000000000000054000075565700
0202LOTE PADRAO                   TELEMAR N L PNA* EJ    TMAR5       010VISTA          000000000041000000000412000000003940000000000000000000394000036720300
0202LOTE PADRAO                   GERDAU      PN * EJ    GGBR4       010VISTA          000000000031200000000315000000003030000000000000000000305000010733600
0202LOTE PADRAO                   BRASIL      ON *       BBAS3       010VISTA          000000000011900000000119000000001140000000000000000000114000033137900
