00BDIN9999BOVESPA 99992003060920030609
0101IBOVESPA                      0139260138100139790000000000000000002003060900000020030609013846000000
0202LOTE PADRAO                   EMBRATEL PARPN *       EBTP4       010VISTA          000000000006200000000065000000000620000000000000000000065000408009000
0202LOTE PADRAO                   TRAN PAULISTPN * EJ    TRPL4       010VISTA          000000000007400000000074000000000720000000000000000000072000004807900
0202LOTE PADRAO                   EMBRATEL PARON *       EBTP3       010VISTA          000000000007000000000072000000000700000000000000000000071000095846300
0202LOTE PADRAO                   TELEMAR     PN * EJ    TNLP4       010VISTA          000000000036300000000366000000003580000000000000000000359000299152000
0202LOTE PADRAO                   ITAUBANCO   PN * EJ    ITAU4       010VISTA          000000000198500000002000000000019700000000000000000002000000007537300
0202LOTE PADRAO                   TELEMAR     ON * EJ    TNLP3       010VISTA          000000000026100000000261000000002550000000000000000000258000025215000
0202LOTE PADRAO                   SID NACIONALON *       CSNA3       010VISTA          000000000060900000000627000000006020000000000000000000625000034337600
0202LOTE PADRAO                   TELE LEST CLPN *       TLCP4       010VISTA          000000000000460000000004700000000045000000000000000000004600069779500
0202LOTE PADRAO                   CRT CELULAR PNA* EJ    CRTP5       010VISTA          000000000336000000003390000000033500000000000000000003370000000639700
0202LOTE PADRAO                   IPIRANGA PETPN *       PTIP4       010VISTA          000000000008800000000090000000000880000000000000000000089000003555200
0202LOTE PADRAO                   BRASIL T PARPN *       BRTP4       010VISTA          000000000023000000000230000000002250000000000000000000225000061980500
0202LOTE PADRAO                   BRASIL T PARON *       BRTP3       010VISTA          000000000017250000000172500000001700000000000000000000171000008718800
0202LOTE PADRAO                   KLABIN S/A  PN         KLBN4       010VISTA          000000000002700000000028000000000270000000000000000000027000000238600
0202LOTE PADRAO                   ACESITA     PN *       ACES4       010VISTA          000000000001400000000014000000000140000000000000000000014000100012000
0202LOTE PADRAO                   PETROBRAS   PN         PETR4       010VISTA          000000000054000000000547000000005360000000000000000000538000000060300
0202LOTE PADRAO                   ELETROBRAS  PNB*       ELET6       010VISTA          000000000025750000000261000000002560000000000000000000256000026486000
0202LOTE PADRAO                   PETROBRAS   ON         PETR3       010VISTA          000000000059700000000597000000005800000000000000000000580000000013600
0202LOTE PADRAO                   COMGAS      PNA*       CGAS5       010VISTA          000000000069900000000700000000006870000000000000000000700000000496400
0202LOTE PADRAO                   SOUZA CRUZ  ON EJ      CRUZ3       010VISTA          000000000020800000000211000000002080000000000000000000208000000003300
0202LOTE PADRAO                   ELETROBRAS  ON *       ELET3       010VISTA          000000000024000000000241000000002360000000000000000000236000011462700
0202LOTE PADRAO                   CELESC      PNB        CLSC6       010VISTA          000000000000520000000005200000000051000000000000000000005200000079500
0202LOTE PADRAO                   BRADESCO    PN * EJ    BBDC4       010VISTA          000000000011800000000119000000001170000000000000000000118000132259000
0202LOTE PADRAO                   CESP        PN *       CESP4       010VISTA          000000000008600000000088000000000860000000000000000000087500009920100
0202LOTE PADRAO                   LIGHT       ON *       LIGH3       010VISTA          000000000030400000000304000000002930000000000000000000299000000865900
0202LOTE PADRAO                   TELESP CL PAPN *       TSPP4       010VISTA          000000000004700000000049000000000470000000000000000000047000498119000
0202LOTE PADRAO                   VALE R DOCE PNA        VALE5       010VISTA          000000000082500000000825000000008170000000000000000000817000000011900
0202LOTE PADRAO                   COPEL       PNB*       CPLE6       010VISTA          000000000010500000000106000000001030000000000000000000103000021963800
0202LOTE PADRAO                   VALE R DOCE ON         VALE3       010VISTA          000000000088800000000888000000008650000000000000000000871000000003900
0202LOTE PADRAO                   ARACRUZ     PNB        ARCZ6       010VISTA          000000000006000000000060000000000580000000000000000000058000000041000
0202LOTE PADRAO                   TELEMIG PARTPN *       TMCP4       010VISTA          000000000002900000000029000000000290000000000000000000029000071873000
0202LOTE PADRAO                   BRASIL TELECPN *       BRTO4       010VISTA          000000000013900000000140000000001380000000000000000000140000140608000
0202LOTE PADRAO                   SABESP      ON *       SBSP3       010VISTA          000000000114000000001152000000011350000000000000000001150000004026100
0202LOTE PADRAO                   BRASKEM     PNA*       BRKM5       010VISTA          000000000383500000003835000000037210000000000000000003820000000309300
0202LOTE PADRAO                   EMBRAER     PN EJ      EMBR4       010VISTA          000000000012300000000123000000001180000000000000000000118000000102000
0202LOTE PADRAO                   TELESP      PN * EJ    TLPP4       010VISTA          000000000032200000000325000000003130000000000000000000316000011146900
0202LOTE PADRAO                   EMBRAER     ON EJ      EMBR3       010VISTA          000000000010200000000102000000000990000000000000000000099000000041300
0202LOTE PADRAO                   AMBEV       PN *       AMBV4       010VISTA          000000000590100000006040000000058600000000000000000005902000001170100
0202LOTE PADRAO                   USIMINAS    PNA        USIM5       010VISTA          000000000011300000000116000000001130000000000000000000116000000023500
0202LOTE PADRAO                   ELETROPAULO PN *       ELPL4       010VISTA          000000000027200000000286000000002680000000000000000000286000006600000
0202LOTE PADRAO                   TELE NORD CLPN *       TNEP4       010VISTA          000000000002600000000026000000000250000000000000000000026000065549300
0202LOTE PADRAO                   CEMIG       PN * EJ    CMIG4       010VISTA          000000000030600000000308000000002980000000000000000000302000034930700
0202LOTE PADRAO                   TELE CL SUL PN * EJ    TCSL4       010VISTA          000000000002730000000027000000000260000000000000000000027000026532300
0202LOTE PADRAO                   TRACTEBEL   ON *       TBLE3       010VISTA          000000000006000000000063000000000590000000000000000000062000010719600
0202LOTE PADRAO                   CEMIG       ON * EJ    CMIG3       010VISTA          000000000024300000000243000000002320000000000000000000238000000604000
0202LOTE PADRAO                   TELE CL SUL ON * EJ    TCSL3       010VISTA          000000000002300000000023000000000230000000000000000000023000026113600
0202LOTE PADRAO                   ITAUSA      PN         ITSA4       010VISTA          000000000002400000000025000000000240000000000000000000024000000310700
0202LOTE PADRAO                   V C P       PN *       VCPA4       010VISTA          000000000112000000001134000000011100000000000000000001112000001269900
0202LOTE PADRAO                   SID TUBARAO PN *       CSTB4       010VISTA          000000000050000000000500000000004960000000000000000000497000007260300
0202LOTE PADRAO                   BRADESPAR   PN *       BRAP4       010VISTA          000000000000660000000006700000000065000000000000000000006600084122400
0202LOTE PADRAO                   NET         PN         PLIM4       010VISTA          000000000000370000000003800000000036000000000000000000003800000448900
0202LOTE PADRAO                   TELE CTR OESPN * EJ    TCOC4       010VISTA          000000000005600000000059000000000560000000000000000000057000117802000
0202LOTE PADRAO                   TELEMAR N L PNA* EJ    TMAR5       010VISTA          000000000046000000000470000000004430000000000000000000446000018142300
0202LOTE PADRAO                   GERDAU      PN * EJ    GGBR4       010VISTA          000000000031300000000319000000003100000000000000000000316000000017200
0202LOTE PADRAO                   BRASIL      ON *       BBAS3       010VISTA          000000000015500000000157000000001520000000000000000000157000026606600
