00BDIN9999BOVESPA 99992003052920030529
0101IBOVESPA                      0133030133010135070000000000000000002003052900000020030529013405000000
0202LOTE PADRAO                   EMBRATEL PARPN *       EBTP4       010VISTA          000000000005300000000055000000000520000000000000000000055000593910000
0202LOTE PADRAO                   TRAN PAULISTPN * EJ    TRPL4       010VISTA          000000000007300000000074000000000725000000000000000000074000008785600
0202LOTE PADRAO                   EMBRATEL PARON *       EBTP3       010VISTA          000000000006200000000065000000000620000000000000000000064000062629800
0202LOTE PADRAO                   TELEMAR     PN * EJ    TNLP4       010VISTA          000000000035700000000362500000003520000000000000000000355000491668000
0202LOTE PADRAO                   ITAUBANCO   PN * EJ    ITAU4       010VISTA          000000000204300000002080000000020325000000000000000002060000016053200
0202LOTE PADRAO                   TELEMAR     ON * EJ    TNLP3       010VISTA          000000000025750000000263000000002560000000000000000000259000067825500
0202LOTE PADRAO                   SID NACIONALON *       CSNA3       010VISTA          000000000056300000000577000000005630000000000000000000572000034053700
0202LOTE PADRAO                   TELE LEST CLPN *       TLCP4       010VISTA          000000000000450000000004600000000044000000000000000000004500088456400
0202LOTE PADRAO                   CRT CELULAR PNA* EJ    CRTP5       010VISTA          000000000344500000003445000000033110000000000000000003330000001185400
0202LOTE PADRAO                   IPIRANGA PETPN *       PTIP4       010VISTA          000000000008500000000086000000000810000000000000000000081000010167200
0202LOTE PADRAO                   BRASIL T PARPN *       BRTP4       010VISTA          000000000021900000000220000000002150000000000000000000218000078049000
0202LOTE PADRAO                   BRASIL T PARON *       BRTP3       010VISTA          000000000016300000000165000000001610000000000000000000164000012576500
0202LOTE PADRAO                   KLABIN S/A  PN         KLBN4       010VISTA          000000000002520000000026000000000248000000000000000000026000000257400
0202LOTE PADRAO                   ACESITA     PN *       ACES4       010VISTA          000000000001400000000014000000000140000000000000000000014000161344000
0202LOTE PADRAO                   PETROBRAS   PN         PETR4       010VISTA          000000000053750000000538000000005270000000000000000000527000000154200
0202LOTE PADRAO                   ELETROBRAS  PNB*       ELET6       010VISTA          000000000024500000000256000000002450000000000000000000252000073742200
0202LOTE PADRAO                   PETROBRAS   ON         PETR3       010VISTA          000000000058500000000587000000005700000000000000000000570000000030800
0202LOTE PADRAO                   COMGAS      PNA*       CGAS5       010VISTA          000000000056100000000590000000005610000000000000000000576000000594600
0202LOTE PADRAO                   SOUZA CRUZ  ON EJ      CRUZ3       010VISTA          000000000019600000000200000000001930000000000000000000200000000013400
0202LOTE PADRAO                   ELETROBRAS  ON *       ELET3       010VISTA          000000000022600000000233000000002230000000000000000000231000030056400
0202LOTE PADRAO                   CELESC      PNB        CLSC6       010VISTA          000000000000490000000005000000000048000000000000000000005000000178900
0202LOTE PADRAO                   BRADESCO    PN * EJ    BBDC4       010VISTA          000000000011800000000120000000001175000000000000000000118000294985000
0202LOTE PADRAO                   CESP        PN *       CESP4       010VISTA          000000000008300000000085000000000810000000000000000000084000012386500
0202LOTE PADRAO                   LIGHT       ON *       LIGH3       010VISTA          000000000027500000000291000000002750000000000000000000278000000973700
0202LOTE PADRAO                   TELESP CL PAPN *       TSPP4       010VISTA          000000000004600000000047100000000450000000000000000000046000448350000
0202LOTE PADRAO                   VALE R DOCE PNA        VALE5       010VISTA          000000000084200000000842000000008270000000000000000000829000000039400
0202LOTE PADRAO                   COPEL       PNB*       CPLE6       010VISTA          000000000009700000000101000000000960000000000000000000098000086518700
0202LOTE PADRAO                   VALE R DOCE ON         VALE3       010VISTA          000000000089000000000890000000008700000000000000000000880000000019400
0202LOTE PADRAO                   ARACRUZ     PNB        ARCZ6       010VISTA          000000000005800000000058000000000571000000000000000000057000000078500
0202LOTE PADRAO                   TELEMIG PARTPN *       TMCP4       010VISTA          000000000002750000000028000000000273000000000000000000027500047006400
0202LOTE PADRAO                   BRASIL TELECPN *       BRTO4       010VISTA          000000000012800000000129000000001275000000000000000000129000156491000
0202LOTE PADRAO                   SABESP      ON *       SBSP3       010VISTA          000000000107900000001120000000010470000000000000000001089000004853100
0202LOTE PADRAO                   BRASKEM     PNA*       BRKM5       010VISTA          000000000363000000003730000000036300000000000000000003710000000219700
0202LOTE PADRAO                   EMBRAER     PN EJ      EMBR4       010VISTA          000000000010600000000108000000001050000000000000000000108000000069600
0202LOTE PADRAO                   TELESP      PN * EJ    TLPP4       010VISTA          000000000031100000000313000000003075000000000000000000308000016238700
0202LOTE PADRAO                   EMBRAER     ON EJ      EMBR3       010VISTA          000000000008800000000090000000000860000000000000000000088000000011300
0202LOTE PADRAO                   AMBEV       PN *       AMBV4       010VISTA          000000000616900000006169000000060000000000000000000006000000001498200
0202LOTE PADRAO                   USIMINAS    PNA        USIM5       010VISTA          000000000010500000000109000000001050000000000000000000108000000043000
0202LOTE PADRAO                   ELETROPAULO PN *       ELPL4       010VISTA          000000000026000000000270000000002600000000000000000000263000009229300
0202LOTE PADRAO                   TELE NORD CLPN *       TNEP4       010VISTA          000000000002540000000025000000000250000000000000000000025000071991700
0202LOTE PADRAO                   CEMIG       PN * EJ    CMIG4       010VISTA          000000000030800000000308000000003030000000000000000000306000067175100
0202LOTE PADRAO                   TELE CL SUL PN * EJ    TCSL4       010VISTA          000000000002600000000027000000000250000000000000000000026000132832000
0202LOTE PADRAO                   TRACTEBEL   ON *       TBLE3       010VISTA          000000000005100000000051000000000490000000000000000000051000110938000
0202LOTE PADRAO                   CEMIG       ON * EJ    CMIG3       010VISTA          000000000023600000000247000000002360000000000000000000236000000977600
0202LOTE PADRAO                   TELE CL SUL ON * EJ    TCSL3       010VISTA          000000000002300000000024000000000230000000000000000000023000013701100
0202LOTE PADRAO                   ITAUSA      PN         ITSA4       010VISTA          000000000002400000000025000000000240000000000000000000025200000510000
0202LOTE PADRAO                   V C P       PN *       VCPA4       010VISTA          000000000107000000001100000000010600000000000000000001095000018175900
0202LOTE PADRAO                   SID TUBARAO PN *       CSTB4       010VISTA          000000000045000000000455000000004460000000000000000000447000019582200
0202LOTE PADRAO                   BRADESPAR   PN *       BRAP4       010VISTA          000000000000650000000006600000000064000000000000000000006600195786000
0202LOTE PADRAO                   NET         PN         PLIM4       010VISTA          000000000000350000000003600000000034000000000000000000003500000882000
0202LOTE PADRAO                   TELE CTR OESPN * EJ    TCOC4       010VISTA          000000000005600000000057000000000560000000000000000000057000126668000
0202LOTE PADRAO                   TELEMAR N L PNA* EJ    TMAR5       010VISTA          000000000046000000000465000000004510000000000000000000456000144832000
0202LOTE PADRAO                   GERDAU      PN * EJ    GGBR4       010VISTA          000000000030300000000306000000002990000000000000000000305000000015400
0202LOTE PADRAO                   BRASIL      ON *       BBAS3       010VISTA          000000000014500000000150000000001450000000000000000000149000053258200
