00BDIN9999BOVESPA 99992003010320030103
0101IBOVESPA                      0116320116000117980000000000000000002003010300000020030103011600000000
0202LOTE PADRAO                   EMBRATEL PARPN *       EBTP4       010VISTA          000000000004400000000046000000000440000000000000000000044000366898000
0202LOTE PADRAO                   TRAN PAULISTPN * EJ    TRPL4       010VISTA          000000000005900000000059000000000575000000000000000000057000008894400
0202LOTE PADRAO                   EMBRATEL PARON *       EBTP3       010VISTA          000000000004800000000050000000000470000000000000000000047900044390600
0202LOTE PADRAO                   TELEMAR     PN * EJ    TNLP4       010VISTA          000000000027600000000277500000002730000000000000000000273000128653000
0202LOTE PADRAO                   ITAUBANCO   PN * EJ    ITAU4       010VISTA          000000000168500000001703000000016850000000000000000001700000005234900
0202LOTE PADRAO                   TELEMAR     ON * EJ    TNLP3       010VISTA          000000000019750000000198000000001960000000000000000000198000010784000
0202LOTE PADRAO                   SID NACIONALON *       CSNA3       010VISTA          000000000052200000000527000000005060000000000000000000507000007407000
0202LOTE PADRAO                   TELE LEST CLPN *       TLCP4       010VISTA          000000000000450000000004500000000044000000000000000000004400196331000
0202LOTE PADRAO                   CRT CELULAR PNA* EJ    CRTP5       010VISTA          000000000324000000003400000000032400000000000000000003335000001303800
0202LOTE PADRAO                   IPIRANGA PETPN *       PTIP4       010VISTA          000000000008000000000085000000000800000000000000000000083000006867500
0202LOTE PADRAO                   BRASIL T PARPN *       BRTP4       010VISTA          000000000018300000000186000000001830000000000000000000183000011893100
0202LOTE PADRAO                   BRASIL T PARON *       BRTP3       010VISTA          000000000014000000000141000000001380000000000000000000138000004398400
0202LOTE PADRAO                   KLABIN S/A  PN         KLBN4       010VISTA          000000000001000000000010000000000100000000000000000000010000000038800
0202LOTE PADRAO                   ACESITA     PN *       ACES4       010VISTA          000000000000950000000009500000000093000000000000000000009300081755300
0202LOTE PADRAO                   PETROBRAS   PN         PETR4       010VISTA          000000000047300000000478000000004670000000000000000000468000000035600
0202LOTE PADRAO                   ELETROBRAS  PNB*       ELET6       010VISTA          000000000024000000000241000000002300000000000000000000230000024006200
0202LOTE PADRAO                   PETROBRAS   ON         PETR3       010VISTA          000000000052750000000547000000005200000000000000000000520000000016000
0202LOTE PADRAO                   COMGAS      PNA*       CGAS5       010VISTA          000000000055200000000565000000005510000000000000000000551000000206600
0202LOTE PADRAO                   SOUZA CRUZ  ON EJ      CRUZ3       010VISTA          000000000018000000000181000000001780000000000000000000179000000005000
0202LOTE PADRAO                   ELETROBRAS  ON *       ELET3       010VISTA          000000000024000000000243000000002350000000000000000000235000003670100
0202LOTE PADRAO                   CELESC      PNB        CLSC6       010VISTA          000000000000550000000005600000000055000000000000000000005500000295000
0202LOTE PADRAO                   BRADESCO    PN * EJ    BBDC4       010VISTA          000000000010700000000109000000001075000000000000000000107000108232000
0202LOTE PADRAO                   CESP        PN *       CESP4       010VISTA          000000000007100000000072500000000700000000000000000000071000015024700
0202LOTE PADRAO                   LIGHT       ON *       LIGH3       010VISTA          000000000050500000000505000000004700000000000000000000470000000202000
0202LOTE PADRAO                   TELESP CL PAPN *       TSPP4       010VISTA          000000000004600000000047000000000460000000000000000000046000320629000
0202LOTE PADRAO                   VALE R DOCE PNA        VALE5       010VISTA          000000000097000000000970000000009540000000000000000000957000000011100
0202LOTE PADRAO                   COPEL       PNB*       CPLE6       010VISTA          000000000010000000000101000000000950000000000000000000095000042500300
0202LOTE PADRAO                   VALE R DOCE ON         VALE3       010VISTA          000000000101000000001020000000009850000000000000000000986000000007700
0202LOTE PADRAO                   ARACRUZ     PNB        ARCZ6       010VISTA          000000000006800000000068000000000650000000000000000000067000000031900
0202LOTE PADRAO                   TELEMIG PARTPN *       TMCP4       010VISTA          000000000003000000000031000000000300000000000000000000031000098015500
0202LOTE PADRAO                   BRASIL TELECPN *       BRTO4       010VISTA          000000000011800000000119000000001180000000000000000000118000031191800
0202LOTE PADRAO                   SABESP      ON *       SBSP3       010VISTA          000000000093500000000947000000009300000000000000000000934000002318800
0202LOTE PADRAO                   BRASKEM     PNA*       BRKM5       010VISTA          000000000240000000002450000000023500000000000000000002350000000035600
0202LOTE PADRAO                   EMBRAER     PN EJ      EMBR4       010VISTA          000000000013900000000140000000001350000000000000000000135000000040900
0202LOTE PADRAO                   TELESP      PN * EJ    TLPP4       010VISTA          000000000035600000000356000000003460000000000000000000352000014154100
0202LOTE PADRAO                   EMBRAER     ON EJ      EMBR3       010VISTA          000000000012500000000128000000001200000000000000000000123000000015300
0202LOTE PADRAO                   AMBEV       PN *       AMBV4       010VISTA          000000000546000000005460000000053300000000000000000005420000000758600
0202LOTE PADRAO                   USIMINAS    PNA        USIM5       010VISTA          000000000006900000000070000000000670000000000000000000068000000024600
0202LOTE PADRAO                   ELETROPAULO PN *       ELPL4       010VISTA          000000000027500000000278000000002700000000000000000000273000005237100
0202LOTE PADRAO                   TELE NORD CLPN *       TNEP4       010VISTA          000000000002700000000028000000000270000000000000000000028000081069600
0202LOTE PADRAO                   CEMIG       PN * EJ    CMIG4       010VISTA          000000000026800000000271000000002580000000000000000000258000027528600
0202LOTE PADRAO                   TELE CL SUL PN * EJ    TCSL4       010VISTA          000000000002800000000029000000000280000000000000000000028000093672900
0202LOTE PADRAO                   TRACTEBEL   ON *       TBLE3       010VISTA          000000000003770000000037700000000360000000000000000000036000004050000
0202LOTE PADRAO                   CEMIG       ON * EJ    CMIG3       010VISTA          000000000023600000000236000000002300000000000000000000230000000315500
0202LOTE PADRAO                   TELE CL SUL ON * EJ    TCSL3       010VISTA          000000000001980000000020000000000198000000000000000000020000038089300
0202LOTE PADRAO                   ITAUSA      PN         ITSA4       010VISTA          000000000001800000000019400000000180000000000000000000019000000403900
0202LOTE PADRAO                   V C P       PN *       VCPA4       010VISTA          000000000125200000001252000000012050000000000000000001225000000427000
0202LOTE PADRAO                   SID TUBARAO PN *       CSTB4       010VISTA          000000000042600000000430000000004200000000000000000000420000001761700
0202LOTE PADRAO                   BRADESPAR   PN *       BRAP4       010VISTA          000000000000590000000005900000000057000000000000000000005700047517100
0202LOTE PADRAO                   NET         PN         PLIM4       010VISTA          000000000000440000000004500000000042000000000000000000004200000594800
0202LOTE PADRAO                   TELE CTR OESPN * EJ    TCOC4       010VISTA          000000000004900000000050000000000480000000000000000000048000073804600
0202LOTE PADRAO                   TELEMAR N L PNA* EJ    TMAR5       010VISTA          000000000044000000000447000000004400000000000000000000446000022978700
0202LOTE PADRAO                   GERDAU      PN * EJ    GGBR4       010VISTA          000000000033600000000336000000003230000000000000000000327000010647800
0202LOTE PADRAO                   BRASIL      ON *       BBAS3       010VISTA          000000000009800000000100000000000980000000000000000000098000014454100
