00BDIN9999BOVESPA 99992003051520030515
0101IBOVESPA                      0134650130920134650000000000000000002003051500000020030515013130000000
0202LOTE PADRAO                   EMBRATEL PARPN *       EBTP4       010VISTA          000000000004700000000047500000000454000000000000000000045400339858000
0202LOTE PADRAO                   TRAN PAULISTPN * EJ    TRPL4       010VISTA          000000000007500000000076000000000720000000000000000000074000014308600
0202LOTE PADRAO                   EMBRATEL PARON *       EBTP3       010VISTA          000000000005300000000053000000000520000000000000000000052000023299700
0202LOTE PADRAO                   TELEMAR     PN * EJ    TNLP4       010VISTA          000000000035300000000356000000003430000000000000000000346000467231000
0202LOTE PADRAO                   ITAUBANCO   PN * EJ    ITAU4       010VISTA          000000000202000000002030000000019800000000000000000002009000015918600
0202LOTE PADRAO                   TELEMAR     ON * EJ    TNLP3       010VISTA          000000000025800000000260000000002475000000000000000000248000023214800
0202LOTE PADRAO                   SID NACIONALON *       CSNA3       010VISTA          000000000058000000000580000000005580000000000000000000562000047637000
0202LOTE PADRAO                   TELE LEST CLPN *       TLCP4       010VISTA          000000000000460000000004600000000044000000000000000000004400400484000
0202LOTE PADRAO                   CRT CELULAR PNA* EJ    CRTP5       010VISTA          000000000355000000003550000000034000000000000000000003450000000444300
0202LOTE PADRAO                   IPIRANGA PETPN *       PTIP4       010VISTA          000000000009000000000090000000000850000000000000000000085000012816900
0202LOTE PADRAO                   BRASIL T PARPN *       BRTP4       010VISTA          000000000022100000000221000000002180000000000000000000220000083182200
0202LOTE PADRAO                   BRASIL T PARON *       BRTP3       010VISTA          000000000016000000000164000000001600000000000000000000164000007742500
0202LOTE PADRAO                   KLABIN S/A  PN         KLBN4       010VISTA          000000000002000000000020000000000196000000000000000000020000000025500
0202LOTE PADRAO                   ACESITA     PN *       ACES4       010VISTA          000000000001300000000013000000000130000000000000000000013000180783000
0202LOTE PADRAO                   PETROBRAS   PN         PETR4       010VISTA          000000000054000000000545000000005320000000000000000000545000000134000
0202LOTE PADRAO                   ELETROBRAS  PNB*       ELET6       010VISTA          000000000026000000000261000000002460000000000000000000246000068920900
0202LOTE PADRAO                   PETROBRAS   ON         PETR3       010VISTA          000000000058700000000590000000005770000000000000000000590000000038700
0202LOTE PADRAO                   COMGAS      PNA*       CGAS5       010VISTA          000000000058000000000580000000005700000000000000000000570000001467200
0202LOTE PADRAO                   SOUZA CRUZ  ON EJ      CRUZ3       010VISTA          000000000018800000000188000000001850000000000000000000186000000032200
0202LOTE PADRAO                   ELETROBRAS  ON *       ELET3       010VISTA          000000000024500000000245000000002310000000000000000000231000012372600
0202LOTE PADRAO                   CELESC      PNB        CLSC6       010VISTA          000000000000510000000005100000000049000000000000000000005000000404800
0202LOTE PADRAO                   BRADESCO    PN * EJ    BBDC4       010VISTA          000000000012000000000120000000001170000000000000000000117000315173000
0202LOTE PADRAO                   CESP        PN *       CESP4       010VISTA          000000000008900000000089000000000850000000000000000000085000018587900
0202LOTE PADRAO                   LIGHT       ON *       LIGH3       010VISTA          000000000031000000000315000000002910000000000000000000291000001608000
0202LOTE PADRAO                   TELESP CL PAPN *       TSPP4       010VISTA          000000000004800000000049000000000450000000000000000000045000540267000
0202LOTE PADRAO                   VALE R DOCE PNA        VALE5       010VISTA          000000000081000000000810000000007900000000000000000000800000000070600
0202LOTE PADRAO                   COPEL       PNB*       CPLE6       010VISTA          000000000010500000000105000000001000000000000000000000100000070392200
0202LOTE PADRAO                   VALE R DOCE ON         VALE3       010VISTA          000000000083500000000846000000008200000000000000000000846000000009200
0202LOTE PADRAO                   ARACRUZ     PNB        ARCZ6       010VISTA          000000000005500000000055000000000530000000000000000000054000000059600
0202LOTE PADRAO                   TELEMIG PARTPN *       TMCP4       010VISTA          000000000002800000000028000000000275000000000000000000027000118157000
0202LOTE PADRAO                   BRASIL TELECPN *       BRTO4       010VISTA          000000000013300000000134000000001300000000000000000000132000123622000
0202LOTE PADRAO                   SABESP      ON *       SBSP3       010VISTA          000000000107000000001105000000010670000000000000000001079000010312200
0202LOTE PADRAO                   BRASKEM     PNA*       BRKM5       010VISTA          000000000383000000003830000000035000000000000000000003610000000763300
0202LOTE PADRAO                   EMBRAER     PN EJ      EMBR4       010VISTA          000000000010900000000110000000001070000000000000000000110000000077900
0202LOTE PADRAO                   TELESP      PN * EJ    TLPP4       010VISTA          000000000030900000000318000000003090000000000000000000311000021375000
0202LOTE PADRAO                   EMBRAER     ON EJ      EMBR3       010VISTA          000000000009300000000093000000000880000000000000000000090000000021000
0202LOTE PADRAO                   AMBEV       PN *       AMBV4       010VISTA          000000000599000000006100000000059300000000000000000006100000003921000
0202LOTE PADRAO                   USIMINAS    PNA        USIM5       010VISTA          000000000010700000000107000000001000000000000000000000102000000080600
0202LOTE PADRAO                   ELETROPAULO PN *       ELPL4       010VISTA          000000000031700000000317000000002880000000000000000000293000007270100
0202LOTE PADRAO                   TELE NORD CLPN *       TNEP4       010VISTA          000000000002600000000026000000000250000000000000000000025400094641900
0202LOTE PADRAO                   CEMIG       PN * EJ    CMIG4       010VISTA          000000000031300000000316000000003080000000000000000000309000052565000
0202LOTE PADRAO                   TELE CL SUL PN * EJ    TCSL4       010VISTA          000000000002700000000027000000000260000000000000000000026000136397000
0202LOTE PADRAO                   TRACTEBEL   ON *       TBLE3       010VISTA          000000000004800000000050000000000460000000000000000000048000018644600
0202LOTE PADRAO                   CEMIG       ON * EJ    CMIG3       010VISTA          000000000024800000000248000000002360000000000000000000240000001586700
0202LOTE PADRAO                   TELE CL SUL ON * EJ    TCSL3       010VISTA          000000000002400000000024000000000230000000000000000000023000020113200
0202LOTE PADRAO                   ITAUSA      PN         ITSA4       010VISTA          000000000002400000000024000000000230000000000000000000023000000346500
0202LOTE PADRAO                   V C P       PN *       VCPA4       010VISTA          000000000103900000001039000000010050000000000000000001014000002088200
0202LOTE PADRAO                   SID TUBARAO PN *       CSTB4       010VISTA          000000000047100000000478000000004570000000000000000000473000014833600
0202LOTE PADRAO                   BRADESPAR   PN *       BRAP4       010VISTA          000000000000670000000006700000000064000000000000000000006400378790000
0202LOTE PADRAO                   NET         PN         PLIM4       010VISTA          000000000000390000000003900000000036000000000000000000003600000870700
0202LOTE PADRAO                   TELE CTR OESPN * EJ    TCOC4       010VISTA          000000000005900000000059000000000560000000000000000000057000129293000
0202LOTE PADRAO                   TELEMAR N L PNA* EJ    TMAR5       010VISTA          000000000046800000000468000000004470000000000000000000447000039479700
0202LOTE PADRAO                   GERDAU      PN * EJ    GGBR4       010VISTA          000000000031300000000313000000003050000000000000000000310000000024400
0202LOTE PADRAO                   BRASIL      ON *       BBAS3       010VISTA          000000000013700000000137000000001340000000000000000000134000035158600
