00BDIN9999BOVESPA 99992003011720030117
0101IBOVESPA                      0119520115550119520000000000000000002003011700000020030117011676000000
0202LOTE PADRAO                   EMBRATEL PARPN *       EBTP4       010VISTA          000000000004200000000045000000000420000000000000000000042000387534000
0202LOTE PADRAO                   TRAN PAULISTPN * EJ    TRPL4       010VISTA          000000000005900000000059000000000580000000000000000000058000002608400
0202LOTE PADRAO                   EMBRATEL PARON *       EBTP3       010VISTA          000000000004700000000052500000000470000000000000000000051000034640300
0202LOTE PADRAO                   TELEMAR     PN * EJ    TNLP4       010VISTA          000000000028800000000295000000002830000000000000000000288000230224000
0202LOTE PADRAO                   ITAUBANCO   PN * EJ    ITAU4       010VISTA          000000000171900000001719000000016900000000000000000001695000005093000
0202LOTE PADRAO                   TELEMAR     ON * EJ    TNLP3       010VISTA          000000000021300000000213000000002080000000000000000000211000012298600
0202LOTE PADRAO                   SID NACIONALON *       CSNA3       010VISTA          000000000052000000000527000000005160000000000000000000527000009250000
0202LOTE PADRAO                   TELE LEST CLPN *       TLCP4       010VISTA          000000000000510000000005100000000050000000000000000000005100065860100
0202LOTE PADRAO                   CRT CELULAR PNA* EJ    CRTP5       010VISTA          000000000362000000003620000000035000000000000000000003550000001459700
0202LOTE PADRAO                   IPIRANGA PETPN *       PTIP4       010VISTA          000000000008000000000081000000000800000000000000000000080000000955000
0202LOTE PADRAO                   BRASIL T PARPN *       BRTP4       010VISTA          000000000019300000000193000000001880000000000000000000188000061213100
0202LOTE PADRAO                   BRASIL T PARON *       BRTP3       010VISTA          000000000014500000000145000000001400000000000000000000141000001157000
0202LOTE PADRAO                   KLABIN S/A  PN         KLBN4       010VISTA          000000000001000000000011000000000100000000000000000000011000000006000
0202LOTE PADRAO                   ACESITA     PN *       ACES4       010VISTA          000000000000920000000009300000000091000000000000000000009200089414800
0202LOTE PADRAO                   PETROBRAS   PN         PETR4       010VISTA          000000000052100000000522000000005050000000000000000000506000000163500
0202LOTE PADRAO                   ELETROBRAS  PNB*       ELET6       010VISTA          000000000023600000000236000000002280000000000000000000228000061973100
0202LOTE PADRAO                   PETROBRAS   ON         PETR3       010VISTA          000000000057200000000577000000005510000000000000000000552500000037200
0202LOTE PADRAO                   COMGAS      PNA*       CGAS5       010VISTA          000000000054500000000547000000005410000000000000000000541000000977000
0202LOTE PADRAO                   SOUZA CRUZ  ON EJ      CRUZ3       010VISTA          000000000017600000000180000000001760000000000000000000178000000009900
0202LOTE PADRAO                   ELETROBRAS  ON *       ELET3       010VISTA          000000000022300000000223000000002110000000000000000000216000040978700
0202LOTE PADRAO                   CELESC      PNB        CLSC6       010VISTA          000000000000540000000005500000000053000000000000000000005400000158500
0202LOTE PADRAO                   BRADESCO    PN * EJ    BBDC4       010VISTA          000000000010900000000110000000001080000000000000000000109000151586000
0202LOTE PADRAO                   CESP        PN *       CESP4       010VISTA          000000000007800000000079000000000750000000000000000000077900009480000
0202LOTE PADRAO                   LIGHT       ON *       LIGH3       010VISTA          000000000045100000000460000000004510000000000000000000455000000206600
0202LOTE PADRAO                   TELESP CL PAPN *       TSPP4       010VISTA          000000000003960000000039600000000370000000000000000000037001061470000
0202LOTE PADRAO                   VALE R DOCE PNA        VALE5       010VISTA          000000000088400000000900000000008840000000000000000000887000000011300
0202LOTE PADRAO                   COPEL       PNB*       CPLE6       010VISTA          000000000009400000000094000000000900000000000000000000093000026669000
0202LOTE PADRAO                   VALE R DOCE ON         VALE3       010VISTA          000000000092000000000935000000009200000000000000000000925000000011500
0202LOTE PADRAO                   ARACRUZ     PNB        ARCZ6       010VISTA          000000000006500000000067500000000650000000000000000000067000000059800
0202LOTE PADRAO                   TELEMIG PARTPN *       TMCP4       010VISTA          000000000003100000000031000000000300000000000000000000030000093983200
0202LOTE PADRAO                   BRASIL TELECPN *       BRTO4       010VISTA          000000000011800000000118000000001140000000000000000000115000107005000
0202LOTE PADRAO                   SABESP      ON *       SBSP3       010VISTA          000000000096500000000975000000009400000000000000000000970000002101900
0202LOTE PADRAO                   BRASKEM     PNA*       BRKM5       010VISTA          000000000262000000002620000000024900000000000000000002520000000260200
0202LOTE PADRAO                   EMBRAER     PN EJ      EMBR4       010VISTA          000000000012600000000129000000001250000000000000000000126000000054600
0202LOTE PADRAO                   TELESP      PN * EJ    TLPP4       010VISTA          000000000032500000000330000000003250000000000000000000330000010031800
0202LOTE PADRAO                   EMBRAER     ON EJ      EMBR3       010VISTA          000000000011300000000116000000001125000000000000000000114000000012300
0202LOTE PADRAO                   AMBEV       PN *       AMBV4       010VISTA          000000000505100000005070000000050000000000000000000005018000000894700
0202LOTE PADRAO                   USIMINAS    PNA        USIM5       010VISTA          000000000007000000000071000000000690000000000000000000069000000039200
0202LOTE PADRAO                   ELETROPAULO PN *       ELPL4       010VISTA          000000000033800000000339000000003270000000000000000000336000007673000
0202LOTE PADRAO                   TELE NORD CLPN *       TNEP4       010VISTA          000000000002800000000028000000000270000000000000000000028000131757000
0202LOTE PADRAO                   CEMIG       PN * EJ    CMIG4       010VISTA          000000000027400000000280000000002700000000000000000000276000048058600
0202LOTE PADRAO                   TELE CL SUL PN * EJ    TCSL4       010VISTA          000000000002800000000028000000000279000000000000000000028100048341500
0202LOTE PADRAO                   TRACTEBEL   ON *       TBLE3       010VISTA          000000000003520000000036000000000340000000000000000000034000002481800
0202LOTE PADRAO                   CEMIG       ON * EJ    CMIG3       010VISTA          000000000023500000000242000000002350000000000000000000240000000316400
0202LOTE PADRAO                   TELE CL SUL ON * EJ    TCSL3       010VISTA          000000000002000000000020000000000200000000000000000000020000015357200
0202LOTE PADRAO                   ITAUSA      PN         ITSA4       010VISTA          000000000001900000000019000000000180000000000000000000018000000186000
0202LOTE PADRAO                   V C P       PN *       VCPA4       010VISTA          000000000123700000001278000000012370000000000000000001240000001023900
0202LOTE PADRAO                   SID TUBARAO PN *       CSTB4       010VISTA          000000000036400000000364000000003560000000000000000000356000010930000
0202LOTE PADRAO                   BRADESPAR   PN *       BRAP4       010VISTA          000000000000560000000005900000000056000000000000000000005900247385000
0202LOTE PADRAO                   NET         PN         PLIM4       010VISTA          000000000000480000000004800000000046000000000000000000004600000608700
0202LOTE PADRAO                   TELE CTR OESPN * EJ    TCOC4       010VISTA          000000000004900000000049000000000450000000000000000000046000317790000
0202LOTE PADRAO                   TELEMAR N L PNA* EJ    TMAR5       010VISTA          000000000046000000000460000000004510000000000000000000451000017922300
0202LOTE PADRAO                   GERDAU      PN * EJ    GGBR4       010VISTA          000000000032000000000326000000003160000000000000000000326000009358500
0202LOTE PADRAO                   BRASIL      ON *       BBAS3       010VISTA          000000000010200000000103000000001000000000000000000000101000012538300
