00BDIN9999BOVESPA 99992003012120030121
0101IBOVESPA                      0116100114340116620000000000000000002003012100000020030121011435000000
0202LOTE PADRAO                   EMBRATEL PARPN *       EBTP4       010VISTA          000000000004100000000042500000000398000000000000000000039800287250000
0202LOTE PADRAO                   TRAN PAULISTPN * EJ    TRPL4       010VISTA          000000000005700000000057000000000560000000000000000000056000005230500
0202LOTE PADRAO                   EMBRATEL PARON *       EBTP3       010VISTA          000000000004900000000050000000000460000000000000000000046000021359400
0202LOTE PADRAO                   TELEMAR     PN * EJ    TNLP4       010VISTA          000000000028750000000289000000002810000000000000000000281000260416000
0202LOTE PADRAO                   ITAUBANCO   PN * EJ    ITAU4       010VISTA          000000000164000000001650000000016120000000000000000001613000007842600
0202LOTE PADRAO                   TELEMAR     ON * EJ    TNLP3       010VISTA          000000000020500000000211000000002030000000000000000000205000030560700
0202LOTE PADRAO                   SID NACIONALON *       CSNA3       010VISTA          000000000052500000000558000000005250000000000000000000550000019757400
0202LOTE PADRAO                   TELE LEST CLPN *       TLCP4       010VISTA          000000000000490000000004900000000046000000000000000000004600270311000
0202LOTE PADRAO                   CRT CELULAR PNA* EJ    CRTP5       010VISTA          000000000349000000003507500000034500000000000000000003490000000841300
0202LOTE PADRAO                   IPIRANGA PETPN *       PTIP4       010VISTA          000000000007900000000079000000000760000000000000000000076000001620500
0202LOTE PADRAO                   BRASIL T PARPN *       BRTP4       010VISTA          000000000018750000000188000000001840000000000000000000185000088122700
0202LOTE PADRAO                   BRASIL T PARON *       BRTP3       010VISTA          000000000013600000000139000000001350000000000000000000136000016579900
0202LOTE PADRAO                   KLABIN S/A  PN         KLBN4       010VISTA          000000000001000000000011000000000100000000000000000000010000000015000
0202LOTE PADRAO                   ACESITA     PN *       ACES4       010VISTA          000000000000920000000009300000000091000000000000000000009100112618000
0202LOTE PADRAO                   PETROBRAS   PN         PETR4       010VISTA          000000000050000000000503000000004950000000000000000000498000000131000
0202LOTE PADRAO                   ELETROBRAS  PNB*       ELET6       010VISTA          000000000022600000000228000000002200000000000000000000221000036629800
0202LOTE PADRAO                   PETROBRAS   ON         PETR3       010VISTA          000000000054000000000551000000005400000000000000000000543000000005800
0202LOTE PADRAO                   COMGAS      PNA*       CGAS5       010VISTA          000000000052900000000540000000005250000000000000000000525000001374000
0202LOTE PADRAO                   SOUZA CRUZ  ON EJ      CRUZ3       010VISTA          000000000017600000000178000000001760000000000000000000178000000004600
0202LOTE PADRAO                   ELETROBRAS  ON *       ELET3       010VISTA          000000000021300000000213000000002060000000000000000000206000016747800
0202LOTE PADRAO                   CELESC      PNB        CLSC6       010VISTA          000000000000530000000005400000000052000000000000000000005300000368300
0202LOTE PADRAO                   BRADESCO    PN * EJ    BBDC4       010VISTA          000000000010600000000108000000001040000000000000000000107000258127000
0202LOTE PADRAO                   CESP        PN *       CESP4       010VISTA          000000000007500000000077000000000700000000000000000000071000013684600
0202LOTE PADRAO                   LIGHT       ON *       LIGH3       010VISTA          000000000045100000000451000000004150000000000000000000420000000384600
0202LOTE PADRAO                   TELESP CL PAPN *       TSPP4       010VISTA          000000000003800000000040000000000380000000000000000000039000552783000
0202LOTE PADRAO                   VALE R DOCE PNA        VALE5       010VISTA          000000000089300000000912500000008900000000000000000000907000000017500
0202LOTE PADRAO                   COPEL       PNB*       CPLE6       010VISTA          000000000009100000000093000000000890000000000000000000090000031382800
0202LOTE PADRAO                   VALE R DOCE ON         VALE3       010VISTA          000000000093000000000947000000009150000000000000000000944000000003400
0202LOTE PADRAO                   ARACRUZ     PNB        ARCZ6       010VISTA          000000000006800000000069600000000680000000000000000000069000000114200
0202LOTE PADRAO                   TELEMIG PARTPN *       TMCP4       010VISTA          000000000002900000000029000000000280000000000000000000029000177581000
0202LOTE PADRAO                   BRASIL TELECPN *       BRTO4       010VISTA          000000000011100000000113000000001090000000000000000000109000120772000
0202LOTE PADRAO                   SABESP      ON *       SBSP3       010VISTA          000000000093500000000940000000008950000000000000000000896000003024900
0202LOTE PADRAO                   BRASKEM     PNA*       BRKM5       010VISTA          000000000242000000002480000000022000000000000000000002230000000195800
0202LOTE PADRAO                   EMBRAER     PN EJ      EMBR4       010VISTA          000000000012600000000130000000001250000000000000000000129000000071600
0202LOTE PADRAO                   TELESP      PN * EJ    TLPP4       010VISTA          000000000033000000000335000000003300000000000000000000333000007998300
0202LOTE PADRAO                   EMBRAER     ON EJ      EMBR3       010VISTA          000000000011600000000116000000001140000000000000000000114000000016200
0202LOTE PADRAO                   AMBEV       PN *       AMBV4       010VISTA          000000000506000000005080000000049500000000000000000004970000000853500
0202LOTE PADRAO                   USIMINAS    PNA        USIM5       010VISTA          000000000006800000000070000000000680000000000000000000070000000145700
0202LOTE PADRAO                   ELETROPAULO PN *       ELPL4       010VISTA          000000000032700000000333000000003120000000000000000000312000006074000
0202LOTE PADRAO                   TELE NORD CLPN *       TNEP4       010VISTA          000000000002800000000028000000000279000000000000000000028000043709600
0202LOTE PADRAO                   CEMIG       PN * EJ    CMIG4       010VISTA          000000000027300000000273000000002650000000000000000000270000054468300
0202LOTE PADRAO                   TELE CL SUL PN * EJ    TCSL4       010VISTA          000000000002750000000027000000000270000000000000000000027300104837000
0202LOTE PADRAO                   TRACTEBEL   ON *       TBLE3       010VISTA          000000000003500000000035000000000330000000000000000000033000010714900
0202LOTE PADRAO                   CEMIG       ON * EJ    CMIG3       010VISTA          000000000023000000000233000000002300000000000000000000230000000617500
0202LOTE PADRAO                   TELE CL SUL ON * EJ    TCSL3       010VISTA          000000000002000000000020000000000198000000000000000000020000017907100
0202LOTE PADRAO                   ITAUSA      PN         ITSA4       010VISTA          000000000001800000000018000000000180000000000000000000018000000216200
0202LOTE PADRAO                   V C P       PN *       VCPA4       010VISTA          000000000123000000001265000000012300000000000000000001245000002008500
0202LOTE PADRAO                   SID TUBARAO PN *       CSTB4       010VISTA          000000000035200000000353000000003450000000000000000000347000019973900
0202LOTE PADRAO                   BRADESPAR   PN *       BRAP4       010VISTA          000000000000590000000006000000000058000000000000000000005900124003000
0202LOTE PADRAO                   NET         PN         PLIM4       010VISTA          000000000000450000000004500000000043000000000000000000004300000678700
0202LOTE PADRAO                   TELE CTR OESPN * EJ    TCOC4       010VISTA          000000000004700000000050000000000470000000000000000000047000373778000
0202LOTE PADRAO                   TELEMAR N L PNA* EJ    TMAR5       010VISTA          000000000044000000000446000000004275000000000000000000430000011775000
0202LOTE PADRAO                   GERDAU      PN * EJ    GGBR4       010VISTA          000000000032100000000324000000003180000000000000000000320000009715300
0202LOTE PADRAO                   BRASIL      ON *       BBAS3       010VISTA          000000000010500000000106000000001025000000000000000000102000026040600
