00BDIN9999BOVESPA 99992003031220030312
0101IBOVESPA                      0103430102900105790000000000000000002003031200000020030312010577000000
0202LOTE PADRAO                   EMBRATEL PARPN *       EBTP4       010VISTA          000000000003200000000033000000000310000000000000000000033000244667000
0202LOTE PADRAO                   EMBRATEL PARON *       EBTP3       010VISTA          000000000003600000000038000000000360000000000000000000037000070038400
0202LOTE PADRAO                   TRAN PAULISTPN * EJ    TRPL4       010VISTA          000000000005300000000055000000000520000000000000000000055000009598100
0202LOTE PADRAO                   TELEMAR     PN * EJ    TNLP4       010VISTA          000000000024300000000253000000002410000000000000000000253000272271000
0202LOTE PADRAO                   ITAUBANCO   PN * EJ    ITAU4       010VISTA          000000000165000000001660000000016460000000000000000001660000006215700
0202LOTE PADRAO                   TELEMAR     ON * EJ    TNLP3       010VISTA          000000000017800000000183000000001730000000000000000000183000035723900
0202LOTE PADRAO                   SID NACIONALON *       CSNA3       010VISTA          000000000059000000000598000000005850000000000000000000590000014087200
0202LOTE PADRAO                   TELE LEST CLPN *       TLCP4       010VISTA          000000000000390000000004000000000038000000000000000000003900066897700
0202LOTE PADRAO                   CRT CELULAR PNA* EJ    CRTP5       010VISTA          000000000301000000003050000000029700000000000000000003050000000415800
0202LOTE PADRAO                   IPIRANGA PETPN *       PTIP4       010VISTA          000000000007000000000072000000000700000000000000000000070000001890000
0202LOTE PADRAO                   BRASIL T PARPN *       BRTP4       010VISTA          000000000017400000000177500000001730000000000000000000177500076029600
0202LOTE PADRAO                   BRASIL T PARON *       BRTP3       010VISTA          000000000013000000000135000000001300000000000000000000134000010813200
0202LOTE PADRAO                   ACESITA     PN *       ACES4       010VISTA          000000000001100000000011000000000110000000000000000000011000062740000
0202LOTE PADRAO                   PETROBRAS   PN         PETR4       010VISTA          000000000044700000000463000000004470000000000000000000462000000145300
0202LOTE PADRAO                   ELETROBRAS  PNB*       ELET6       010VISTA          000000000019000000000197000000001860000000000000000000197000036040100
0202LOTE PADRAO                   PETROBRAS   ON         PETR3       010VISTA          000000000049700000000507000000004910000000000000000000507000000028100
0202LOTE PADRAO                   COMGAS      PNA*       CGAS5       010VISTA          000000000044000000000440000000004200000000000000000000432000000357000
0202LOTE PADRAO                   SOUZA CRUZ  ON EJ      CRUZ3       010VISTA          000000000019100000000191000000001880000000000000000000190000000015000
0202LOTE PADRAO                   ELETROBRAS  ON *       ELET3       010VISTA          000000000015000000000150000000001500000000000000000000150000000000000
0202LOTE PADRAO                   CELESC      PNB        CLSC6       010VISTA          000000000000460000000004600000000045000000000000000000004600000034200
0202LOTE PADRAO                   BRADESCO    PN * EJ    BBDC4       010VISTA          000000000010300000000106000000001020000000000000000000106000102070000
0202LOTE PADRAO                   CESP        PN *       CESP4       010VISTA          000000000006000000000062000000000596000000000000000000062000005837300
0202LOTE PADRAO                   LIGHT       ON *       LIGH3       010VISTA          000000000027800000000284000000002750000000000000000000284000000032200
0202LOTE PADRAO                   TELESP CL PAPN *       TSPP4       010VISTA          000000000003540000000037000000000350000000000000000000036000257611000
0202LOTE PADRAO                   VALE R DOCE PNA        VALE5       010VISTA          000000000094500000000945000000009330000000000000000000935000000009100
0202LOTE PADRAO                   COPEL       PNB*       CPLE6       010VISTA          000000000008000000000084000000000790000000000000000000083000006842000
0202LOTE PADRAO                   VALE R DOCE ON         VALE3       010VISTA          000000000099500000001000000000009840000000000000000000984000000006700
0202LOTE PADRAO                   ARACRUZ     PNB        ARCZ6       010VISTA          000000000006600000000066000000000660000000000000000000066000000010500
0202LOTE PADRAO                   TELEMIG PARTPN *       TMCP4       010VISTA          000000000002500000000026000000000250000000000000000000026000042585300
0202LOTE PADRAO                   BRASIL TELECPN *       BRTO4       010VISTA          000000000010500000000109000000001040000000000000000000109000037808800
0202LOTE PADRAO                   SABESP      ON *       SBSP3       010VISTA          000000000075000000000750000000007500000000000000000000750000000000000
0202LOTE PADRAO                   BRASKEM     PNA*       BRKM5       010VISTA          000000000173000000001779000000016510000000000000000001779000000148500
0202LOTE PADRAO                   EMBRAER     PN EJ      EMBR4       010VISTA          000000000008100000000081000000000790000000000000000000081000000074500
0202LOTE PADRAO                   TELESP      PN * EJ    TLPP4       010VISTA          000000000032000000000325000000003200000000000000000000322000002651300
0202LOTE PADRAO                   EMBRAER     ON EJ      EMBR3       010VISTA          000000000007200000000072000000000680000000000000000000070000000014600
0202LOTE PADRAO                   AMBEV       PN *       AMBV4       010VISTA          000000000493500000004969000000048700000000000000000004945000001505100
0202LOTE PADRAO                   USIMINAS    PNA        USIM5       010VISTA          000000000007300000000074000000000720000000000000000000074000000036400
0202LOTE PADRAO                   ELETROPAULO PN *       ELPL4       010VISTA          000000000022800000000228000000002120000000000000000000223000011351000
0202LOTE PADRAO                   CEMIG       PN * EJ    CMIG4       010VISTA          000000000023600000000243000000002310000000000000000000242000056193000
0202LOTE PADRAO                   TELE CL SUL PN * EJ    TCSL4       010VISTA          000000000002200000000022000000000210000000000000000000022000147636000
0202LOTE PADRAO                   TRACTEBEL   ON *       TBLE3       010VISTA          000000000003000000000031000000000300000000000000000000031000006370000
0202LOTE PADRAO                   CEMIG       ON * EJ    CMIG3       010VISTA          000000000018800000000191000000001860000000000000000000190000001014400
0202LOTE PADRAO                   TELE CL SUL ON * EJ    TCSL3       010VISTA          000000000001690000000017700000000160000000000000000000017700019110000
0202LOTE PADRAO                   ITAUSA      PN         ITSA4       010VISTA          000000000001800000000019000000000180000000000000000000018000000039600
0202LOTE PADRAO                   V C P       PN *       VCPA4       010VISTA          000000000126000000001260000000012450000000000000000001250000000904000
0202LOTE PADRAO                   SID TUBARAO PN *       CSTB4       010VISTA          000000000044700000000452000000004450000000000000000000450000005769000
0202LOTE PADRAO                   BRADESPAR   PN *       BRAP4       010VISTA          000000000000660000000006800000000066000000000000000000006700033513000
0202LOTE PADRAO                   NET         PN         PLIM4       010VISTA          000000000000300000000003000000000029000000000000000000002900000109100
0202LOTE PADRAO                   TELE CTR OESPN * EJ    TCOC4       010VISTA          000000000004500000000045000000000440000000000000000000045000071907000
0202LOTE PADRAO                   TELEMAR N L PNA* EJ    TMAR5       010VISTA          000000000033100000000331000000003310000000000000000000331000000000000
0202LOTE PADRAO                   GERDAU      PN * EJ    GGBR4       010VISTA          000000000030600000000315000000003000000000000000000000315000014418600
0202LOTE PADRAO                   BRASIL      ON *       BBAS3       010VISTA          000000000009800000000100000000000980000000000000000000099000006374000
