00BDIN9999BOVESPA 99992003021720030217
0101IBOVESPA                      0100890100890102290000000000000000002003021700000020030217010189000000
0202LOTE PADRAO                   EMBRATEL PARPN *       EBTP4       010VISTA          000000000002980000000029000000000290000000000000000000029000166199000
0202LOTE PADRAO                   TRAN PAULISTPN * EJ    TRPL4       010VISTA          000000000005000000000050000000000500000000000000000000050000017733800
0202LOTE PADRAO                   EMBRATEL PARON *       EBTP3       010VISTA          000000000003500000000035000000000330000000000000000000035000017148500
0202LOTE PADRAO                   TELEMAR     PN * EJ    TNLP4       010VISTA          000000000024400000000246000000002430000000000000000000245000156891000
0202LOTE PADRAO                   ITAUBANCO   PN * EJ    ITAU4       010VISTA          000000000156900000001570000000015360000000000000000001537000001359200
0202LOTE PADRAO                   TELEMAR     ON * EJ    TNLP3       010VISTA          000000000017500000000175000000001720000000000000000000175000029672900
0202LOTE PADRAO                   SID NACIONALON *       CSNA3       010VISTA          000000000060000000000622000000006000000000000000000000620000007327200
0202LOTE PADRAO                   TELE LEST CLPN *       TLCP4       010VISTA          000000000000400000000004000000000038000000000000000000003800087104700
0202LOTE PADRAO                   CRT CELULAR PNA* EJ    CRTP5       010VISTA          000000000310500000003129000000030450000000000000000003098000000445400
0202LOTE PADRAO                   IPIRANGA PETPN *       PTIP4       010VISTA          000000000006800000000068000000000675000000000000000000068000000702500
0202LOTE PADRAO                   BRASIL T PARPN *       BRTP4       010VISTA          000000000016400000000171000000001630000000000000000000171000025361500
0202LOTE PADRAO                   BRASIL T PARON *       BRTP3       010VISTA          000000000012100000000129000000001210000000000000000000129000004999600
0202LOTE PADRAO                   KLABIN S/A  PN         KLBN4       010VISTA          000000000001100000000011000000000110000000000000000000011000000009700
0202LOTE PADRAO                   ACESITA     PN *       ACES4       010VISTA          000000000001000000000010000000000100000000000000000000010000211862000
0202LOTE PADRAO                   PETROBRAS   PN         PETR4       010VISTA          000000000046200000000467000000004600000000000000000000462000000093500
0202LOTE PADRAO                   ELETROBRAS  PNB*       ELET6       010VISTA          000000000018500000000185000000001810000000000000000000184000014351200
0202LOTE PADRAO                   PETROBRAS   ON         PETR3       010VISTA          000000000050600000000506000000005010000000000000000000501000000012600
0202LOTE PADRAO                   COMGAS      PNA*       CGAS5       010VISTA          000000000044000000000449000000004380000000000000000000447000000561000
0202LOTE PADRAO                   SOUZA CRUZ  ON EJ      CRUZ3       010VISTA          000000000018500000000185000000001830000000000000000000183000000003600
0202LOTE PADRAO                   ELETROBRAS  ON *       ELET3       010VISTA          000000000017100000000176000000001710000000000000000000174000016322400
0202LOTE PADRAO                   CELESC      PNB        CLSC6       010VISTA          000000000000470000000004900000000047000000000000000000004700000162700
0202LOTE PADRAO                   BRADESCO    PN * EJ    BBDC4       010VISTA          000000000010000000000100000000000980000000000000000000098000037217400
0202LOTE PADRAO                   CESP        PN *       CESP4       010VISTA          000000000006100000000062000000000600000000000000000000061000002470000
0202LOTE PADRAO                   LIGHT       ON *       LIGH3       010VISTA          000000000028100000000282500000002800000000000000000000282500000240000
0202LOTE PADRAO                   TELESP CL PAPN *       TSPP4       010VISTA          000000000003200000000032700000000310000000000000000000031000157193000
0202LOTE PADRAO                   VALE R DOCE PNA        VALE5       010VISTA          000000000095500000000974000000009500000000000000000000970000000013100
0202LOTE PADRAO                   COPEL       PNB*       CPLE6       010VISTA          000000000007500000000075000000000725000000000000000000073000050792300
0202LOTE PADRAO                   VALE R DOCE ON         VALE3       010VISTA          000000000098200000001013000000009820000000000000000001010000000006000
0202LOTE PADRAO                   ARACRUZ     PNB        ARCZ6       010VISTA          000000000006700000000070000000000679000000000000000000069000000014000
0202LOTE PADRAO                   TELEMIG PARTPN *       TMCP4       010VISTA          000000000002400000000025000000000230000000000000000000023000043465900
0202LOTE PADRAO                   BRASIL TELECPN *       BRTO4       010VISTA          000000000009500000000096000000000925000000000000000000096000045096600
0202LOTE PADRAO                   SABESP      ON *       SBSP3       010VISTA          000000000084500000000850000000008220000000000000000000832000001765700
0202LOTE PADRAO                   BRASKEM     PNA*       BRKM5       010VISTA          000000000162000000001640000000016200000000000000000001637500000044000
0202LOTE PADRAO                   EMBRAER     PN EJ      EMBR4       010VISTA          000000000009700000000098000000000950000000000000000000095000000041900
0202LOTE PADRAO                   TELESP      PN * EJ    TLPP4       010VISTA          000000000030400000000313000000003000000000000000000000310000004180100
0202LOTE PADRAO                   EMBRAER     ON EJ      EMBR3       010VISTA          000000000008500000000085000000000830000000000000000000084000000004100
0202LOTE PADRAO                   AMBEV       PN *       AMBV4       010VISTA          000000000487000000004905000000048200000000000000000004840000001016800
0202LOTE PADRAO                   USIMINAS    PNA        USIM5       010VISTA          000000000007200000000074000000000720000000000000000000073000000034200
0202LOTE PADRAO                   ELETROPAULO PN *       ELPL4       010VISTA          000000000022100000000229000000002160000000000000000000223000002946500
0202LOTE PADRAO                   TELE NORD CLPN *       TNEP4       010VISTA          000000000002300000000023000000000220000000000000000000023000028471300
0202LOTE PADRAO                   CEMIG       PN * EJ    CMIG4       010VISTA          000000000024000000000241000000002330000000000000000000238000023157600
0202LOTE PADRAO                   TELE CL SUL PN * EJ    TCSL4       010VISTA          000000000002300000000023000000000220000000000000000000022500070597900
0202LOTE PADRAO                   TRACTEBEL   ON *       TBLE3       010VISTA          000000000003100000000031000000000290000000000000000000029000005385300
0202LOTE PADRAO                   CEMIG       ON * EJ    CMIG3       010VISTA          000000000020000000000200000000001950000000000000000000195000000471300
0202LOTE PADRAO                   TELE CL SUL ON * EJ    TCSL3       010VISTA          000000000001600000000016000000000160000000000000000000016000013152900
0202LOTE PADRAO                   ITAUSA      PN         ITSA4       010VISTA          000000000001800000000018000000000181000000000000000000018100000105300
0202LOTE PADRAO                   V C P       PN *       VCPA4       010VISTA          000000000129300000001293000000012440000000000000000001270000000381500
0202LOTE PADRAO                   SID TUBARAO PN *       CSTB4       010VISTA          000000000042000000000434000000004200000000000000000000432000003678900
0202LOTE PADRAO                   BRADESPAR   PN *       BRAP4       010VISTA          000000000000630000000006300000000061000000000000000000006100064324300
0202LOTE PADRAO                   NET         PN         PLIM4       010VISTA          000000000000280000000003000000000028000000000000000000002800000729100
0202LOTE PADRAO                   TELE CTR OESPN * EJ    TCOC4       010VISTA          000000000003900000000040000000000380000000000000000000038000038333900
0202LOTE PADRAO                   TELEMAR N L PNA* EJ    TMAR5       010VISTA          000000000037000000000370000000003610000000000000000000365000006668700
0202LOTE PADRAO                   GERDAU      PN * EJ    GGBR4       010VISTA          000000000031800000000324000000003180000000000000000000322000007478500
0202LOTE PADRAO                   BRASIL      ON *       BBAS3       010VISTA          000000000009300000000095000000000930000000000000000000094000012341200
