00BDIN9999BOVESPA 99992003012220030122
0101IBOVESPA                      0114280111320114280000000000000000002003012200000020030122011142000000
0202LOTE PADRAO                   EMBRATEL PARPN *       EBTP4       010VISTA          000000000003800000000039800000000370000000000000000000038000485226000
0202LOTE PADRAO                   TRAN PAULISTPN * EJ    TRPL4       010VISTA          000000000005600000000057500000000550000000000000000000055400019850700
0202LOTE PADRAO                   EMBRATEL PARON *       EBTP3       010VISTA          000000000004600000000046000000000440000000000000000000045000040441000
0202LOTE PADRAO                   TELEMAR     PN * EJ    TNLP4       010VISTA          000000000027800000000278000000002730000000000000000000273000351803000
0202LOTE PADRAO                   ITAUBANCO   PN * EJ    ITAU4       010VISTA          000000000160800000001608000000015400000000000000000001540000015960900
0202LOTE PADRAO                   TELEMAR     ON * EJ    TNLP3       010VISTA          000000000020100000000203000000001980000000000000000000200000006109800
0202LOTE PADRAO                   SID NACIONALON *       CSNA3       010VISTA          000000000053500000000555000000005350000000000000000000547000011754000
0202LOTE PADRAO                   TELE LEST CLPN *       TLCP4       010VISTA          000000000000460000000004800000000045000000000000000000004600176941000
0202LOTE PADRAO                   CRT CELULAR PNA* EJ    CRTP5       010VISTA          000000000346000000003480000000034000000000000000000003420000000789200
0202LOTE PADRAO                   IPIRANGA PETPN *       PTIP4       010VISTA          000000000007500000000075000000000730000000000000000000074000002935700
0202LOTE PADRAO                   BRASIL T PARPN *       BRTP4       010VISTA          000000000018300000000183000000001730000000000000000000173000113952000
0202LOTE PADRAO                   BRASIL T PARON *       BRTP3       010VISTA          000000000013200000000135000000001290000000000000000000130000022907100
0202LOTE PADRAO                   KLABIN S/A  PN         KLBN4       010VISTA          000000000001000000000010000000000100000000000000000000010000000021700
0202LOTE PADRAO                   ACESITA     PN *       ACES4       010VISTA          000000000000910000000009400000000091000000000000000000009200108629000
0202LOTE PADRAO                   PETROBRAS   PN         PETR4       010VISTA          000000000049300000000495000000004725000000000000000000472500000163200
0202LOTE PADRAO                   ELETROBRAS  PNB*       ELET6       010VISTA          000000000021800000000218000000002090000000000000000000209000095641100
0202LOTE PADRAO                   PETROBRAS   ON         PETR3       010VISTA          000000000054000000000540000000005210000000000000000000522000000034000
0202LOTE PADRAO                   COMGAS      PNA*       CGAS5       010VISTA          000000000052200000000534000000005210000000000000000000525000000640200
0202LOTE PADRAO                   SOUZA CRUZ  ON EJ      CRUZ3       010VISTA          000000000017600000000179000000001760000000000000000000177500000012500
0202LOTE PADRAO                   ELETROBRAS  ON *       ELET3       010VISTA          000000000020400000000205000000001990000000000000000000199000018827500
0202LOTE PADRAO                   CELESC      PNB        CLSC6       010VISTA          000000000000520000000005300000000052000000000000000000005300000087200
0202LOTE PADRAO                   BRADESCO    PN * EJ    BBDC4       010VISTA          000000000010500000000105000000001000000000000000000000100000341037000
0202LOTE PADRAO                   CESP        PN *       CESP4       010VISTA          000000000007000000000070000000000680000000000000000000069000020256800
0202LOTE PADRAO                   LIGHT       ON *       LIGH3       010VISTA          000000000040000000000418000000003925000000000000000000410000000702300
0202LOTE PADRAO                   TELESP CL PAPN *       TSPP4       010VISTA          000000000003800000000040000000000380000000000000000000039400584324000
0202LOTE PADRAO                   VALE R DOCE PNA        VALE5       010VISTA          000000000092500000000927000000009170000000000000000000917000000015800
0202LOTE PADRAO                   COPEL       PNB*       CPLE6       010VISTA          000000000009000000000090000000000850000000000000000000090000146891000
0202LOTE PADRAO                   VALE R DOCE ON         VALE3       010VISTA          000000000094700000000965000000009470000000000000000000950000000013400
0202LOTE PADRAO                   ARACRUZ     PNB        ARCZ6       010VISTA          000000000006800000000070000000000670000000000000000000067100000029300
0202LOTE PADRAO                   TELEMIG PARTPN *       TMCP4       010VISTA          000000000002800000000030000000000280000000000000000000029600163107000
0202LOTE PADRAO                   BRASIL TELECPN *       BRTO4       010VISTA          000000000010700000000110000000001050000000000000000000106000117591000
0202LOTE PADRAO                   SABESP      ON *       SBSP3       010VISTA          000000000088900000000910000000008800000000000000000000895000005091600
0202LOTE PADRAO                   BRASKEM     PNA*       BRKM5       010VISTA          000000000221900000002219000000020700000000000000000002120000000273200
0202LOTE PADRAO                   EMBRAER     PN EJ      EMBR4       010VISTA          000000000013000000000132000000001300000000000000000000131000000087300
0202LOTE PADRAO                   TELESP      PN * EJ    TLPP4       010VISTA          000000000032500000000338000000003250000000000000000000335000008399600
0202LOTE PADRAO                   EMBRAER     ON EJ      EMBR3       010VISTA          000000000011700000000118000000001150000000000000000000115000000016900
0202LOTE PADRAO                   AMBEV       PN *       AMBV4       010VISTA          000000000496000000005040000000047600000000000000000004770000001391200
0202LOTE PADRAO                   USIMINAS    PNA        USIM5       010VISTA          000000000007000000000073000000000680000000000000000000072000000097300
0202LOTE PADRAO                   ELETROPAULO PN *       ELPL4       010VISTA          000000000030100000000311000000002950000000000000000000305000006461100
0202LOTE PADRAO                   TELE NORD CLPN *       TNEP4       010VISTA          000000000002700000000028000000000270000000000000000000027100092063300
0202LOTE PADRAO                   CEMIG       PN * EJ    CMIG4       010VISTA          000000000026500000000270000000002560000000000000000000259000078275300
0202LOTE PADRAO                   TELE CL SUL PN * EJ    TCSL4       010VISTA          000000000002700000000027000000000260000000000000000000026000231691000
0202LOTE PADRAO                   TRACTEBEL   ON *       TBLE3       010VISTA          000000000003200000000034000000000320000000000000000000034000003872300
0202LOTE PADRAO                   CEMIG       ON * EJ    CMIG3       010VISTA          000000000022400000000231000000002200000000000000000000220000000598200
0202LOTE PADRAO                   TELE CL SUL ON * EJ    TCSL3       010VISTA          000000000001960000000019900000000190000000000000000000019400027335300
0202LOTE PADRAO                   ITAUSA      PN         ITSA4       010VISTA          000000000001800000000018000000000181000000000000000000018000000581600
0202LOTE PADRAO                   V C P       PN *       VCPA4       010VISTA          000000000121300000001270000000012130000000000000000001247500002964600
0202LOTE PADRAO                   SID TUBARAO PN *       CSTB4       010VISTA          000000000034200000000356000000003420000000000000000000347000004237700
0202LOTE PADRAO                   BRADESPAR   PN *       BRAP4       010VISTA          000000000000590000000006200000000059000000000000000000006000411710000
0202LOTE PADRAO                   NET         PN         PLIM4       010VISTA          000000000000420000000004400000000040000000000000000000004200002524700
0202LOTE PADRAO                   TELE CTR OESPN * EJ    TCOC4       010VISTA          000000000004700000000049000000000475000000000000000000048000390494000
0202LOTE PADRAO                   TELEMAR N L PNA* EJ    TMAR5       010VISTA          000000000042000000000430000000004190000000000000000000426000024998000
0202LOTE PADRAO                   GERDAU      PN * EJ    GGBR4       010VISTA          000000000031900000000330000000003150000000000000000000322500014181600
0202LOTE PADRAO                   BRASIL      ON *       BBAS3       010VISTA          000000000010200000000102000000001000000000000000000000100000042025100
