00BDIN9999BOVESPA 99992003061120030611
0101IBOVESPA                      0138980137210139300000000000000000002003061100000020030611013877000000
0202LOTE PADRAO                   EMBRATEL PARPN *       EBTP4       010VISTA          000000000007300000000073000000000730000000000000000000073000000000000
0202LOTE PADRAO                   TRAN PAULISTPN * EJ    TRPL4       010VISTA          000000000007000000000070000000000700000000000000000000070000000000000
0202LOTE PADRAO                   EMBRATEL PARON *       EBTP3       010VISTA          000000000007700000000079000000000730000000000000000000079000105462000
0202LOTE PADRAO                   TELEMAR     PN * EJ    TNLP4       010VISTA          000000000035500000000356000000003480000000000000000000352000311258000
0202LOTE PADRAO                   ITAUBANCO   PN * EJ    ITAU4       010VISTA          000000000198000000001998000000019650000000000000000001995000009867100
0202LOTE PADRAO                   TELEMAR     ON * EJ    TNLP3       010VISTA          000000000025000000000253000000002480000000000000000000251000018184800
0202LOTE PADRAO                   SID NACIONALON *       CSNA3       010VISTA          000000000060900000000624000000006070000000000000000000610000021630500
0202LOTE PADRAO                   TELE LEST CLPN *       TLCP4       010VISTA          000000000000480000000004800000000046000000000000000000004600104924000
0202LOTE PADRAO                   CRT CELULAR PNA* EJ    CRTP5       010VISTA          000000000332000000003350000000032660000000000000000003320000002939300
0202LOTE PADRAO                   IPIRANGA PETPN *       PTIP4       010VISTA          000000000008900000000090000000000890000000000000000000090000008118000
0202LOTE PADRAO                   BRASIL T PARPN *       BRTP4       010VISTA          000000000021900000000219000000002190000000000000000000219000041315400
0202LOTE PADRAO                   BRASIL T PARON *       BRTP3       010VISTA          000000000016600000000168000000001650000000000000000000166000008024700
0202LOTE PADRAO                   KLABIN S/A  PN         KLBN4       010VISTA          000000000002800000000028000000000270000000000000000000028100000242800
0202LOTE PADRAO                   ACESITA     PN *       ACES4       010VISTA          000000000001400000000014000000000140000000000000000000014000092660700
0202LOTE PADRAO                   PETROBRAS   PN         PETR4       010VISTA          000000000052900000000536000000005220000000000000000000535000000085100
0202LOTE PADRAO                   ELETROBRAS  PNB*       ELET6       010VISTA          000000000025200000000253000000002480000000000000000000251000033793300
0202LOTE PADRAO                   PETROBRAS   ON         PETR3       010VISTA          000000000057000000000581000000005650000000000000000000580000000023200
0202LOTE PADRAO                   COMGAS      PNA*       CGAS5       010VISTA          000000000066000000000679000000006200000000000000000000639000001278000
0202LOTE PADRAO                   SOUZA CRUZ  ON EJ      CRUZ3       010VISTA          000000000020900000000209000000002030000000000000000000204000000003900
0202LOTE PADRAO                   ELETROBRAS  ON *       ELET3       010VISTA          000000000022800000000232000000002280000000000000000000230000009545100
0202LOTE PADRAO                   CELESC      PNB        CLSC6       010VISTA          000000000000510000000005100000000050000000000000000000005000000601400
0202LOTE PADRAO                   BRADESCO    PN * EJ    BBDC4       010VISTA          000000000011750000000118000000001160000000000000000000116000127975000
0202LOTE PADRAO                   CESP        PN *       CESP4       010VISTA          000000000008400000000085000000000820000000000000000000085000011845000
0202LOTE PADRAO                   LIGHT       ON *       LIGH3       010VISTA          000000000028500000000289000000002810000000000000000000286000000502000
0202LOTE PADRAO                   TELESP CL PAPN *       TSPP4       010VISTA          000000000004750000000047000000000460000000000000000000046000412182000
0202LOTE PADRAO                   VALE R DOCE PNA        VALE5       010VISTA          000000000081000000000821000000008050000000000000000000809000000026500
0202LOTE PADRAO                   COPEL       PNB*       CPLE6       010VISTA          000000000010100000000103000000000990000000000000000000101000025196600
0202LOTE PADRAO                   VALE R DOCE ON         VALE3       010VISTA          000000000086200000000874000000008550000000000000000000860000000009100
0202LOTE PADRAO                   ARACRUZ     PNB        ARCZ6       010VISTA          000000000005790000000058000000000570000000000000000000057000000036000
0202LOTE PADRAO                   TELEMIG PARTPN *       TMCP4       010VISTA          000000000002900000000029000000000280000000000000000000028000059844600
0202LOTE PADRAO                   BRASIL TELECPN *       BRTO4       010VISTA          000000000013900000000139000000001340000000000000000000136000151134000
0202LOTE PADRAO                   SABESP      ON *       SBSP3       010VISTA          000000000113500000001145000000011090000000000000000001145000001798700
0202LOTE PADRAO                   BRASKEM     PNA*       BRKM5       010VISTA          000000000380000000003889000000038000000000000000000003889000000192000
0202LOTE PADRAO                   EMBRAER     PN EJ      EMBR4       010VISTA          000000000013900000000147500000001375000000000000000000137500000273900
0202LOTE PADRAO                   TELESP      PN * EJ    TLPP4       010VISTA          000000000031500000000323000000003140000000000000000000323000008432100
0202LOTE PADRAO                   EMBRAER     ON EJ      EMBR3       010VISTA          000000000011500000000116000000001110000000000000000000111000000069000
0202LOTE PADRAO                   AMBEV       PN *       AMBV4       010VISTA          000000000585100000005851000000058510000000000000000005851000000000000
0202LOTE PADRAO                   USIMINAS    PNA        USIM5       010VISTA          000000000011800000000118000000001150000000000000000000117500000042600
0202LOTE PADRAO                   ELETROPAULO PN *       ELPL4       010VISTA          000000000027800000000282000000002760000000000000000000278000007337000
0202LOTE PADRAO                   TELE NORD CLPN *       TNEP4       010VISTA          000000000002500000000025000000000240000000000000000000025000071334100
0202LOTE PADRAO                   CEMIG       PN * EJ    CMIG4       010VISTA          000000000030000000000301000000002930000000000000000000301000052663500
0202LOTE PADRAO                   TELE CL SUL PN * EJ    TCSL4       010VISTA          000000000002600000000026000000000250000000000000000000026000063075800
0202LOTE PADRAO                   TRACTEBEL   ON *       TBLE3       010VISTA          000000000005900000000062000000000590000000000000000000061000008454000
0202LOTE PADRAO                   CEMIG       ON * EJ    CMIG3       010VISTA          000000000023300000000236000000002320000000000000000000235000000440000
0202LOTE PADRAO                   TELE CL SUL ON * EJ    TCSL3       010VISTA          000000000002270000000022000000000220000000000000000000022700020874000
0202LOTE PADRAO                   ITAUSA      PN         ITSA4       010VISTA          000000000002500000000025000000000240000000000000000000024000000317400
0202LOTE PADRAO                   V C P       PN *       VCPA4       010VISTA          000000000110000000001100000000010850000000000000000001085000001437200
0202LOTE PADRAO                   SID TUBARAO PN *       CSTB4       010VISTA          000000000049000000000490000000004800000000000000000000482000005868900
0202LOTE PADRAO                   BRADESPAR   PN *       BRAP4       010VISTA          000000000000640000000006400000000064000000000000000000006400000000000
0202LOTE PADRAO                   NET         PN         PLIM4       010VISTA          000000000000370000000003800000000036000000000000000000003600000383000
0202LOTE PADRAO                   TELE CTR OESPN * EJ    TCOC4       010VISTA          000000000005600000000057500000000560000000000000000000056000066242500
0202LOTE PADRAO                   TELEMAR N L PNA* EJ    TMAR5       010VISTA          000000000043600000000440000000004280000000000000000000437000013196500
0202LOTE PADRAO                   GERDAU      PN * EJ    GGBR4       010VISTA          000000000031500000000319000000003110000000000000000000316000000016500
0202LOTE PADRAO                   BRASIL      ON *       BBAS3       010VISTA          000000000016100000000163000000001550000000000000000000156000050817700
