00BDIN9999BOVESPA 99992003021020030210
0101IBOVESPA                      0103880103100105270000000000000000002003021000000020030210010480000000
0202LOTE PADRAO                   EMBRATEL PARPN *       EBTP4       010VISTA          000000000003000000000031000000000280000000000000000000030000432229000
0202LOTE PADRAO                   TRAN PAULISTPN * EJ    TRPL4       010VISTA          000000000005000000000052000000000500000000000000000000051000005084200
0202LOTE PADRAO                   EMBRATEL PARON *       EBTP3       010VISTA          000000000003700000000038000000000350000000000000000000035600082130200
0202LOTE PADRAO                   TELEMAR     PN * EJ    TNLP4       010VISTA          000000000025000000000255000000002460000000000000000000251000220806000
0202LOTE PADRAO                   ITAUBANCO   PN * EJ    ITAU4       010VISTA          000000000154500000001569000000015375000000000000000001565000011274300
0202LOTE PADRAO                   TELEMAR     ON * EJ    TNLP3       010VISTA          000000000018100000000185000000001780000000000000000000184000012677400
0202LOTE PADRAO                   SID NACIONALON *       CSNA3       010VISTA          000000000060000000000622000000006000000000000000000000621000023798100
0202LOTE PADRAO                   TELE LEST CLPN *       TLCP4       010VISTA          000000000000420000000004200000000040000000000000000000004000069008600
0202LOTE PADRAO                   CRT CELULAR PNA* EJ    CRTP5       010VISTA          000000000323000000003270000000032200000000000000000003240000000670600
0202LOTE PADRAO                   IPIRANGA PETPN *       PTIP4       010VISTA          000000000006700000000070000000000675000000000000000000070000001104800
0202LOTE PADRAO                   BRASIL T PARPN *       BRTP4       010VISTA          000000000017200000000176000000001710000000000000000000172000068432600
0202LOTE PADRAO                   BRASIL T PARON *       BRTP3       010VISTA          000000000012600000000131000000001250000000000000000000131000008397300
0202LOTE PADRAO                   KLABIN S/A  PN         KLBN4       010VISTA          000000000001000000000010000000000100000000000000000000010000000016800
0202LOTE PADRAO                   ACESITA     PN *       ACES4       010VISTA          000000000000920000000009400000000091000000000000000000009300115360000
0202LOTE PADRAO                   PETROBRAS   PN         PETR4       010VISTA          000000000045000000000471000000004470000000000000000000470000000140400
0202LOTE PADRAO                   ELETROBRAS  PNB*       ELET6       010VISTA          000000000019800000000198000000001900000000000000000000193000035160400
0202LOTE PADRAO                   PETROBRAS   ON         PETR3       010VISTA          000000000050700000000515000000004920000000000000000000512000000060800
0202LOTE PADRAO                   COMGAS      PNA*       CGAS5       010VISTA          000000000045100000000462500000004400000000000000000000449000000319500
0202LOTE PADRAO                   SOUZA CRUZ  ON EJ      CRUZ3       010VISTA          000000000017750000000181000000001775000000000000000000181000000017100
0202LOTE PADRAO                   ELETROBRAS  ON *       ELET3       010VISTA          000000000018750000000188000000001800000000000000000000186000013259800
0202LOTE PADRAO                   CELESC      PNB        CLSC6       010VISTA          000000000000480000000004900000000047000000000000000000004800000095200
0202LOTE PADRAO                   BRADESCO    PN * EJ    BBDC4       010VISTA          000000000009750000000098000000000950000000000000000000096000150650000
0202LOTE PADRAO                   CESP        PN *       CESP4       010VISTA          000000000006200000000063000000000610000000000000000000063000007462200
0202LOTE PADRAO                   LIGHT       ON *       LIGH3       010VISTA          000000000030800000000308000000002880000000000000000000290000000755000
0202LOTE PADRAO                   TELESP CL PAPN *       TSPP4       010VISTA          000000000003500000000036000000000330000000000000000000034800342864000
0202LOTE PADRAO                   VALE R DOCE PNA        VALE5       010VISTA          000000000098000000000982000000009670000000000000000000980000000021600
0202LOTE PADRAO                   COPEL       PNB*       CPLE6       010VISTA          000000000007710000000079000000000750000000000000000000076000032278500
0202LOTE PADRAO                   VALE R DOCE ON         VALE3       010VISTA          000000000101000000001021000000010090000000000000000001021000000019200
0202LOTE PADRAO                   ARACRUZ     PNB        ARCZ6       010VISTA          000000000007100000000072000000000696000000000000000000070000000035200
0202LOTE PADRAO                   TELEMIG PARTPN *       TMCP4       010VISTA          000000000002520000000025200000000240000000000000000000025000034478200
0202LOTE PADRAO                   BRASIL TELECPN *       BRTO4       010VISTA          000000000009900000000101000000000980000000000000000000100000054377700
0202LOTE PADRAO                   SABESP      ON *       SBSP3       010VISTA          000000000082400000000839000000008170000000000000000000838000001628700
0202LOTE PADRAO                   BRASKEM     PNA*       BRKM5       010VISTA          000000000167000000001700000000016700000000000000000001699000000226800
0202LOTE PADRAO                   EMBRAER     PN EJ      EMBR4       010VISTA          000000000011300000000115000000001110000000000000000000114000000042000
0202LOTE PADRAO                   TELESP      PN * EJ    TLPP4       010VISTA          000000000031000000000314000000003080000000000000000000310000001973300
0202LOTE PADRAO                   EMBRAER     ON EJ      EMBR3       010VISTA          000000000010100000000101000000000980000000000000000000100000000012200
0202LOTE PADRAO                   AMBEV       PN *       AMBV4       010VISTA          000000000486600000004880000000047900000000000000000004800000002127700
0202LOTE PADRAO                   USIMINAS    PNA        USIM5       010VISTA          000000000007200000000073000000000710000000000000000000072000000085400
0202LOTE PADRAO                   ELETROPAULO PN *       ELPL4       010VISTA          000000000023500000000240000000002230000000000000000000233000008074400
0202LOTE PADRAO                   TELE NORD CLPN *       TNEP4       010VISTA          000000000002300000000023000000000220000000000000000000023000034670400
0202LOTE PADRAO                   CEMIG       PN * EJ    CMIG4       010VISTA          000000000025500000000256000000002460000000000000000000256000031306900
0202LOTE PADRAO                   TELE CL SUL PN * EJ    TCSL4       010VISTA          000000000002300000000023000000000220000000000000000000022000080588200
0202LOTE PADRAO                   TRACTEBEL   ON *       TBLE3       010VISTA          000000000003200000000034000000000310000000000000000000032000013304000
0202LOTE PADRAO                   CEMIG       ON * EJ    CMIG3       010VISTA          000000000020500000000214000000002050000000000000000000213000000324900
0202LOTE PADRAO                   TELE CL SUL ON * EJ    TCSL3       010VISTA          000000000001710000000017100000000160000000000000000000016000013281800
0202LOTE PADRAO                   ITAUSA      PN         ITSA4       010VISTA          000000000001800000000019000000000180000000000000000000019000000438100
0202LOTE PADRAO                   V C P       PN *       VCPA4       010VISTA          000000000132500000001335000000013150000000000000000001330000003545400
0202LOTE PADRAO                   SID TUBARAO PN *       CSTB4       010VISTA          000000000038500000000401000000003850000000000000000000400000018389800
0202LOTE PADRAO                   BRADESPAR   PN *       BRAP4       010VISTA          000000000000630000000006500000000063000000000000000000006400138900000
0202LOTE PADRAO                   NET         PN         PLIM4       010VISTA          000000000000310000000003200000000030000000000000000000003100000507200
0202LOTE PADRAO                   TELE CTR OESPN * EJ    TCOC4       010VISTA          000000000004500000000045000000000430000000000000000000043000103552000
0202LOTE PADRAO                   TELEMAR N L PNA* EJ    TMAR5       010VISTA          000000000038300000000383000000003720000000000000000000376000029518100
0202LOTE PADRAO                   GERDAU      PN * EJ    GGBR4       010VISTA          000000000030600000000306000000002990000000000000000000301000026002100
0202LOTE PADRAO                   BRASIL      ON *       BBAS3       010VISTA          000000000009100000000094000000000910000000000000000000094000011412900
