00BDIN9999BOVESPA 99992003022620030226
0101IBOVESPA                      0101920099770102710000000000000000002003022600000020030226009995000000
0202LOTE PADRAO                   EMBRATEL PARPN *       EBTP4       010VISTA          000000000003400000000036000000000330000000000000000000034000504459000
0202LOTE PADRAO                   TRAN PAULISTPN * EJ    TRPL4       010VISTA          000000000005500000000055000000000520000000000000000000053000008643700
0202LOTE PADRAO                   EMBRATEL PARON *       EBTP3       010VISTA          000000000004000000000041000000000390000000000000000000039000046310200
0202LOTE PADRAO                   TELEMAR     PN * EJ    TNLP4       010VISTA          000000000023300000000237500000002290000000000000000000231000271468000
0202LOTE PADRAO                   ITAUBANCO   PN * EJ    ITAU4       010VISTA          000000000149000000001520000000014900000000000000000001495000005784700
0202LOTE PADRAO                   TELEMAR     ON * EJ    TNLP3       010VISTA          000000000016700000000169000000001640000000000000000000166000015460100
0202LOTE PADRAO                   SID NACIONALON *       CSNA3       010VISTA          000000000060000000000626000000006000000000000000000000620000026714200
0202LOTE PADRAO                   TELE LEST CLPN *       TLCP4       010VISTA          000000000000390000000004000000000037000000000000000000003700136295000
0202LOTE PADRAO                   CRT CELULAR PNA* EJ    CRTP5       010VISTA          000000000302800000003090000000029600000000000000000003000000000451500
0202LOTE PADRAO                   IPIRANGA PETPN *       PTIP4       010VISTA          000000000006900000000069000000000670000000000000000000067000000598200
0202LOTE PADRAO                   BRASIL T PARPN *       BRTP4       010VISTA          000000000018600000000186000000001740000000000000000000174000048302800
0202LOTE PADRAO                   BRASIL T PARON *       BRTP3       010VISTA          000000000014000000000140000000001330000000000000000000133000005218500
0202LOTE PADRAO                   KLABIN S/A  PN         KLBN4       010VISTA          000000000001300000000013000000000130000000000000000000013000000032200
0202LOTE PADRAO                   ACESITA     PN *       ACES4       010VISTA          000000000001100000000011000000000110000000000000000000011000159645000
0202LOTE PADRAO                   PETROBRAS   PN         PETR4       010VISTA          000000000042500000000433000000004150000000000000000000416000000094000
0202LOTE PADRAO                   ELETROBRAS  PNB*       ELET6       010VISTA          000000000017600000000178000000001680000000000000000000168000045345200
0202LOTE PADRAO                   PETROBRAS   ON         PETR3       010VISTA          000000000046300000000478000000004610000000000000000000461000000016700
0202LOTE PADRAO                   COMGAS      PNA*       CGAS5       010VISTA          000000000045500000000455000000004250000000000000000000428000000437500
0202LOTE PADRAO                   SOUZA CRUZ  ON EJ      CRUZ3       010VISTA          000000000019000000000193000000001900000000000000000000193000000012600
0202LOTE PADRAO                   ELETROBRAS  ON *       ELET3       010VISTA          000000000016250000000166000000001580000000000000000000158000015791700
0202LOTE PADRAO                   CELESC      PNB        CLSC6       010VISTA          000000000000480000000004800000000045000000000000000000004600000323100
0202LOTE PADRAO                   BRADESCO    PN * EJ    BBDC4       010VISTA          000000000009750000000100000000000970000000000000000000097000115556000
0202LOTE PADRAO                   CESP        PN *       CESP4       010VISTA          000000000005900000000059000000000560000000000000000000056000005248200
0202LOTE PADRAO                   LIGHT       ON *       LIGH3       010VISTA          000000000029900000000299000000002730000000000000000000275000000264200
0202LOTE PADRAO                   TELESP CL PAPN *       TSPP4       010VISTA          000000000003300000000034000000000325000000000000000000032700247174000
0202LOTE PADRAO                   VALE R DOCE PNA        VALE5       010VISTA          000000000099000000001002000000009900000000000000000001000000000019900
0202LOTE PADRAO                   COPEL       PNB*       CPLE6       010VISTA          000000000007700000000079600000000760000000000000000000076000064100700
0202LOTE PADRAO                   VALE R DOCE ON         VALE3       010VISTA          000000000102800000001043000000010280000000000000000001042000000013600
0202LOTE PADRAO                   ARACRUZ     PNB        ARCZ6       010VISTA          000000000006600000000067000000000660000000000000000000067000000016000
0202LOTE PADRAO                   TELEMIG PARTPN *       TMCP4       010VISTA          000000000002500000000025600000000230000000000000000000024000060501300
0202LOTE PADRAO                   BRASIL TELECPN *       BRTO4       010VISTA          000000000010800000000108000000001030000000000000000000104000106284000
0202LOTE PADRAO                   SABESP      ON *       SBSP3       010VISTA          000000000075800000000770000000007450000000000000000000745000004454400
0202LOTE PADRAO                   BRASKEM     PNA*       BRKM5       010VISTA          000000000166000000001660000000016200000000000000000001640000000131500
0202LOTE PADRAO                   EMBRAER     PN EJ      EMBR4       010VISTA          000000000008750000000087500000000790000000000000000000081000000211200
0202LOTE PADRAO                   TELESP      PN * EJ    TLPP4       010VISTA          000000000032500000000327000000003180000000000000000000323000023523400
0202LOTE PADRAO                   EMBRAER     ON EJ      EMBR3       010VISTA          000000000007500000000075000000000670000000000000000000071000000017100
0202LOTE PADRAO                   AMBEV       PN *       AMBV4       010VISTA          000000000501000000005050000000050000000000000000000005020000002023900
0202LOTE PADRAO                   USIMINAS    PNA        USIM5       010VISTA          000000000007500000000078000000000750000000000000000000076000000090200
0202LOTE PADRAO                   ELETROPAULO PN *       ELPL4       010VISTA          000000000022300000000243000000002230000000000000000000235000008023100
0202LOTE PADRAO                   TELE NORD CLPN *       TNEP4       010VISTA          000000000002300000000023000000000220000000000000000000022500083565800
0202LOTE PADRAO                   CEMIG       PN * EJ    CMIG4       010VISTA          000000000022800000000228000000002160000000000000000000218000045703800
0202LOTE PADRAO                   TELE CL SUL PN * EJ    TCSL4       010VISTA          000000000002100000000021000000000200000000000000000000020000138566000
0202LOTE PADRAO                   TRACTEBEL   ON *       TBLE3       010VISTA          000000000002900000000030000000000280000000000000000000028000021921300
0202LOTE PADRAO                   CEMIG       ON * EJ    CMIG3       010VISTA          000000000018700000000191000000001800000000000000000000182000000165800
0202LOTE PADRAO                   TELE CL SUL ON * EJ    TCSL3       010VISTA          000000000001600000000016000000000155000000000000000000015000026752200
0202LOTE PADRAO                   ITAUSA      PN         ITSA4       010VISTA          000000000001790000000018000000000179000000000000000000018000000963500
0202LOTE PADRAO                   V C P       PN *       VCPA4       010VISTA          000000000131000000001312500000012900000000000000000001300000002111700
0202LOTE PADRAO                   SID TUBARAO PN *       CSTB4       010VISTA          000000000043900000000443000000004380000000000000000000442500008111100
0202LOTE PADRAO                   BRADESPAR   PN *       BRAP4       010VISTA          000000000000650000000006700000000065000000000000000000006600341953000
0202LOTE PADRAO                   NET         PN         PLIM4       010VISTA          000000000000300000000003100000000028000000000000000000002800000328700
0202LOTE PADRAO                   TELE CTR OESPN * EJ    TCOC4       010VISTA          000000000004200000000042000000000410000000000000000000041000066487500
0202LOTE PADRAO                   TELEMAR N L PNA* EJ    TMAR5       010VISTA          000000000036250000000362000000003520000000000000000000352000029360800
0202LOTE PADRAO                   GERDAU      PN * EJ    GGBR4       010VISTA          000000000032700000000328000000003230000000000000000000324000013171700
0202LOTE PADRAO                   BRASIL      ON *       BBAS3       010VISTA          000000000009500000000096000000000930000000000000000000093000016711500
