00BDIN9999BOVESPA 99992003012320030123
0101IBOVESPA                      0111480110270113360000000000000000002003012300000020030123011162000000
0202LOTE PADRAO                   EMBRATEL PARPN *       EBTP4       010VISTA          000000000003980000000040000000000370000000000000000000038000452107000
0202LOTE PADRAO                   TRAN PAULISTPN * EJ    TRPL4       010VISTA          000000000005600000000056000000000540000000000000000000055000007965100
0202LOTE PADRAO                   EMBRATEL PARON *       EBTP3       010VISTA          000000000004600000000047000000000440000000000000000000045000037804400
0202LOTE PADRAO                   TELEMAR     PN * EJ    TNLP4       010VISTA          000000000027500000000278000000002680000000000000000000272000298711000
0202LOTE PADRAO                   ITAUBANCO   PN * EJ    ITAU4       010VISTA          000000000152500000001569000000015160000000000000000001524000020994600
0202LOTE PADRAO                   TELEMAR     ON * EJ    TNLP3       010VISTA          000000000020400000000205000000001930000000000000000000198000015214100
0202LOTE PADRAO                   SID NACIONALON *       CSNA3       010VISTA          000000000055800000000558000000005390000000000000000000542000015508400
0202LOTE PADRAO                   TELE LEST CLPN *       TLCP4       010VISTA          000000000000470000000004700000000045000000000000000000004600136225000
0202LOTE PADRAO                   CRT CELULAR PNA* EJ    CRTP5       010VISTA          000000000345000000003510000000033600000000000000000003500000000594200
0202LOTE PADRAO                   IPIRANGA PETPN *       PTIP4       010VISTA          000000000007700000000077000000000700000000000000000000074000001279000
0202LOTE PADRAO                   BRASIL T PARPN *       BRTP4       010VISTA          000000000017600000000177000000001710000000000000000000174000114449000
0202LOTE PADRAO                   BRASIL T PARON *       BRTP3       010VISTA          000000000013300000000134000000001250000000000000000000131000011515500
0202LOTE PADRAO                   KLABIN S/A  PN         KLBN4       010VISTA          000000000001000000000010000000000100000000000000000000010000000012200
0202LOTE PADRAO                   ACESITA     PN *       ACES4       010VISTA          000000000000930000000009400000000091000000000000000000009400144780000
0202LOTE PADRAO                   PETROBRAS   PN         PETR4       010VISTA          000000000047600000000476000000004660000000000000000000474000000193000
0202LOTE PADRAO                   ELETROBRAS  PNB*       ELET6       010VISTA          000000000021300000000217000000002080000000000000000000213000047065200
0202LOTE PADRAO                   PETROBRAS   ON         PETR3       010VISTA          000000000052500000000525000000005170000000000000000000522000000018900
0202LOTE PADRAO                   COMGAS      PNA*       CGAS5       010VISTA          000000000052500000000530000000005100000000000000000000530000000505300
0202LOTE PADRAO                   SOUZA CRUZ  ON EJ      CRUZ3       010VISTA          000000000017800000000178000000001760000000000000000000178000000006400
0202LOTE PADRAO                   ELETROBRAS  ON *       ELET3       010VISTA          000000000020300000000205000000001960000000000000000000205000009448600
0202LOTE PADRAO                   CELESC      PNB        CLSC6       010VISTA          000000000000530000000005300000000052000000000000000000005300000082700
0202LOTE PADRAO                   BRADESCO    PN * EJ    BBDC4       010VISTA          000000000010100000000102000000000990000000000000000000100000321791000
0202LOTE PADRAO                   CESP        PN *       CESP4       010VISTA          000000000006900000000072500000000671000000000000000000070000017436400
0202LOTE PADRAO                   LIGHT       ON *       LIGH3       010VISTA          000000000041100000000419000000004100000000000000000000419000000599700
0202LOTE PADRAO                   TELESP CL PAPN *       TSPP4       010VISTA          000000000004000000000040000000000380000000000000000000039000489863000
0202LOTE PADRAO                   VALE R DOCE PNA        VALE5       010VISTA          000000000091100000000911000000008840000000000000000000884000000022800
0202LOTE PADRAO                   COPEL       PNB*       CPLE6       010VISTA          000000000009100000000093000000000910000000000000000000092000057932500
0202LOTE PADRAO                   VALE R DOCE ON         VALE3       010VISTA          000000000094500000000945000000009230000000000000000000923000000006800
0202LOTE PADRAO                   ARACRUZ     PNB        ARCZ6       010VISTA          000000000006710000000068000000000650000000000000000000068000000070400
0202LOTE PADRAO                   TELEMIG PARTPN *       TMCP4       010VISTA          000000000002960000000030000000000280000000000000000000028000142270000
0202LOTE PADRAO                   BRASIL TELECPN *       BRTO4       010VISTA          000000000010700000000108000000001050000000000000000000108000054859300
0202LOTE PADRAO                   SABESP      ON *       SBSP3       010VISTA          000000000091000000000925000000008950000000000000000000915000003385900
0202LOTE PADRAO                   BRASKEM     PNA*       BRKM5       010VISTA          000000000216000000002160000000020200000000000000000002100000000161300
0202LOTE PADRAO                   EMBRAER     PN EJ      EMBR4       010VISTA          000000000013000000000131000000001270000000000000000000129000000054900
0202LOTE PADRAO                   TELESP      PN * EJ    TLPP4       010VISTA          000000000033500000000335000000003250000000000000000000330000005524100
0202LOTE PADRAO                   EMBRAER     ON EJ      EMBR3       010VISTA          000000000011500000000116000000001110000000000000000000116000000018100
0202LOTE PADRAO                   AMBEV       PN *       AMBV4       010VISTA          000000000485000000004900000000047000000000000000000004738000001821200
0202LOTE PADRAO                   USIMINAS    PNA        USIM5       010VISTA          000000000007300000000076000000000730000000000000000000076000000090800
0202LOTE PADRAO                   ELETROPAULO PN *       ELPL4       010VISTA          000000000030600000000322500000002860000000000000000000291000005183600
0202LOTE PADRAO                   TELE NORD CLPN *       TNEP4       010VISTA          000000000002730000000027000000000256000000000000000000026000066307600
0202LOTE PADRAO                   CEMIG       PN * EJ    CMIG4       010VISTA          000000000026300000000272500000002600000000000000000000270000060559200
0202LOTE PADRAO                   TELE CL SUL PN * EJ    TCSL4       010VISTA          000000000002600000000026000000000248000000000000000000025000275175000
0202LOTE PADRAO                   TRACTEBEL   ON *       TBLE3       010VISTA          000000000003300000000034000000000330000000000000000000034000008305200
0202LOTE PADRAO                   CEMIG       ON * EJ    CMIG3       010VISTA          000000000022900000000231000000002200000000000000000000230000000604900
0202LOTE PADRAO                   TELE CL SUL ON * EJ    TCSL3       010VISTA          000000000001970000000020000000000180000000000000000000019000023280200
0202LOTE PADRAO                   ITAUSA      PN         ITSA4       010VISTA          000000000001800000000018000000000180000000000000000000018000000375000
0202LOTE PADRAO                   V C P       PN *       VCPA4       010VISTA          000000000124700000001299000000012200000000000000000001255000001143600
0202LOTE PADRAO                   SID TUBARAO PN *       CSTB4       010VISTA          000000000034800000000353000000003470000000000000000000350000008917800
0202LOTE PADRAO                   BRADESPAR   PN *       BRAP4       010VISTA          000000000000610000000006200000000060000000000000000000006100251092000
0202LOTE PADRAO                   NET         PN         PLIM4       010VISTA          000000000000440000000004500000000041000000000000000000004200001222600
0202LOTE PADRAO                   TELE CTR OESPN * EJ    TCOC4       010VISTA          000000000004900000000050000000000480000000000000000000048000201820000
0202LOTE PADRAO                   TELEMAR N L PNA* EJ    TMAR5       010VISTA          000000000043000000000437000000004200000000000000000000431000012175100
0202LOTE PADRAO                   GERDAU      PN * EJ    GGBR4       010VISTA          000000000032600000000326000000003150000000000000000000318000009163800
0202LOTE PADRAO                   BRASIL      ON *       BBAS3       010VISTA          000000000010100000000101000000000970000000000000000000098000023887100
