00BDIN9999BOVESPA 99992003081220030812
0101IBOVESPA                      0135590135530137660000000000000000002003081200000020030812013602000000
0202LOTE PADRAO                   EMBRATEL PARPN *       EBTP4       010VISTA          000000000005540000000057000000000550000000000000000000057100420434000
0202LOTE PADRAO                   TRAN PAULISTPN * EJ    TRPL4       010VISTA          000000000007500000000076000000000750000000000000000000076000019692600
0202LOTE PADRAO                   EMBRATEL PARON *       EBTP3       010VISTA          000000000006000000000062000000000600000000000000000000061000041221100
0202LOTE PADRAO                   TELEMAR     PN * EJ    TNLP4       010VISTA          000000000032500000000335000000003220000000000000000000324000332822000
0202LOTE PADRAO                   ITAUBANCO   PN * EJ    ITAU4       010VISTA          000000000213400000002134000000020740000000000000000002099000006436300
0202LOTE PADRAO                   TELEMAR     ON * EJ    TNLP3       010VISTA          000000000024100000000245000000002380000000000000000000238000006205200
0202LOTE PADRAO                   SID NACIONALON *       CSNA3       010VISTA          000000000083500000000862000000008340000000000000000000845000018118900
0202LOTE PADRAO                   TELE LEST CLPN *       TLCP4       010VISTA          000000000000410000000004100000000040000000000000000000004100056949200
0202LOTE PADRAO                   CRT CELULAR PNA* EJ    CRTP5       010VISTA          000000000360000000003689000000035500000000000000000003620000000258200
0202LOTE PADRAO                   IPIRANGA PETPN *       PTIP4       010VISTA          000000000009800000000104000000000980000000000000000000101000007700000
0202LOTE PADRAO                   BRASIL T PARPN *       BRTP4       010VISTA          000000000020600000000211000000002050000000000000000000205000039249300
0202LOTE PADRAO                   BRASIL T PARON *       BRTP3       010VISTA          000000000015600000000159000000001560000000000000000000158000013577400
0202LOTE PADRAO                   KLABIN S/A  PN         KLBN4       010VISTA          000000000002800000000028000000000281000000000000000000028000000158200
0202LOTE PADRAO                   ACESITA     PN *       ACES4       010VISTA          000000000001300000000013000000000130000000000000000000013000112512000
0202LOTE PADRAO                   PETROBRAS   PN         PETR4       010VISTA          000000000058000000000589000000005770000000000000000000582500000069600
0202LOTE PADRAO                   ELETROBRAS  PNB*       ELET6       010VISTA          000000000022600000000226000000002190000000000000000000220000054191300
0202LOTE PADRAO                   PETROBRAS   ON         PETR3       010VISTA          000000000061600000000628000000006150000000000000000000622500000017200
0202LOTE PADRAO                   COMGAS      PNA*       CGAS5       010VISTA          000000000073500000000735000000007250000000000000000000730000001199000
0202LOTE PADRAO                   SOUZA CRUZ  ON EJ      CRUZ3       010VISTA          000000000022800000000231000000002260000000000000000000226000000007100
0202LOTE PADRAO                   ELETROBRAS  ON *       ELET3       010VISTA          000000000019600000000197000000001910000000000000000000191000005196500
0202LOTE PADRAO                   CELESC      PNB        CLSC6       010VISTA          000000000000430000000004400000000042000000000000000000004300000170800
0202LOTE PADRAO                   BRADESCO    PN * EJ    BBDC4       010VISTA          000000000011750000000119000000001160000000000000000000116000125183000
0202LOTE PADRAO                   CESP        PN *       CESP4       010VISTA          000000000006900000000069000000000675000000000000000000067900018425300
0202LOTE PADRAO                   LIGHT       ON *       LIGH3       010VISTA          000000000024600000000250000000002310000000000000000000231000000215500
0202LOTE PADRAO                   TELESP CL PAPN *       TSPP4       010VISTA          000000000004100000000042000000000400000000000000000000040000273697000
0202LOTE PADRAO                   VALE R DOCE PNA        VALE5       010VISTA          000000000094500000000975000000009450000000000000000000966000000026200
0202LOTE PADRAO                   COPEL       PNB*       CPLE6       010VISTA          000000000008600000000088000000000830000000000000000000083000069560900
0202LOTE PADRAO                   VALE R DOCE ON         VALE3       010VISTA          000000000103000000001061000000010300000000000000000001054000000012900
0202LOTE PADRAO                   ARACRUZ     PNB        ARCZ6       010VISTA          000000000007300000000075000000000730000000000000000000075400000131900
0202LOTE PADRAO                   TELEMIG PARTPN *       TMCP4       010VISTA          000000000002900000000029000000000280000000000000000000028000050458100
0202LOTE PADRAO                   BRASIL TELECPN *       BRTO4       010VISTA          000000000012500000000126000000001230000000000000000000123000038382600
0202LOTE PADRAO                   SABESP      ON *       SBSP3       010VISTA          000000000106000000001077000000010400000000000000000001050000002720400
0202LOTE PADRAO                   BRASKEM     PNA*       BRKM5       010VISTA          000000000439000000004400000000042500000000000000000004379000000335100
0202LOTE PADRAO                   EMBRAER     PN EJ      EMBR4       010VISTA          000000000013400000000138000000001340000000000000000000135000000042800
0202LOTE PADRAO                   TELESP      PN * EJ    TLPP4       010VISTA          000000000030300000000303000000002950000000000000000000297000003847000
0202LOTE PADRAO                   EMBRAER     ON EJ      EMBR3       010VISTA          000000000010800000000108000000001050000000000000000000105000000013000
0202LOTE PADRAO                   AMBEV       PN *       AMBV4       010VISTA          000000000595400000005980000000058300000000000000000005894000002696100
0202LOTE PADRAO                   USIMINAS    PNA        USIM5       010VISTA          000000000016100000000166000000001590000000000000000000166000000107200
0202LOTE PADRAO                   ELETROPAULO PN *       ELPL4       010VISTA          000000000022500000000227000000002210000000000000000000222000003918700
0202LOTE PADRAO                   TELE NORD CLPN *       TNEP4       010VISTA          000000000002300000000023000000000220000000000000000000022000047923500
0202LOTE PADRAO                   CEMIG       PN * EJ    CMIG4       010VISTA          000000000027500000000276000000002680000000000000000000271000047796900
0202LOTE PADRAO                   TELE CL SUL PN * EJ    TCSL4       010VISTA          000000000002200000000022700000000220000000000000000000022000085326600
0202LOTE PADRAO                   TRACTEBEL   ON *       TBLE3       010VISTA          000000000007300000000073000000000700000000000000000000070000001750900
0202LOTE PADRAO                   CEMIG       ON * EJ    CMIG3       010VISTA          000000000020900000000218000000002080000000000000000000211000000338500
0202LOTE PADRAO                   TELE CL SUL ON * EJ    TCSL3       010VISTA          000000000001940000000019900000000190000000000000000000019000009854400
0202LOTE PADRAO                   ITAUSA      PN         ITSA4       010VISTA          000000000002520000000025000000000252000000000000000000025000000285700
0202LOTE PADRAO                   V C P       PN *       VCPA4       010VISTA          000000000134900000001375000000013490000000000000000001375000002363500
0202LOTE PADRAO                   SID TUBARAO PN *       CSTB4       010VISTA          000000000050500000000530000000005050000000000000000000530000011451900
0202LOTE PADRAO                   BRADESPAR   PN *       BRAP4       010VISTA          000000000000670000000006900000000067000000000000000000006800068112600
0202LOTE PADRAO                   NET         PN         PLIM4       010VISTA          000000000000330000000003400000000032000000000000000000003200001044400
0202LOTE PADRAO                   TELE CTR OESPN * EJ    TCOC4       010VISTA          000000000005200000000052000000000500000000000000000000051000093120600
0202LOTE PADRAO                   TELEMAR N L PNA* EJ    TMAR5       010VISTA          000000000039000000000397000000003900000000000000000000392500021240800
0202LOTE PADRAO                   GERDAU      PN * EJ    GGBR4       010VISTA          000000000034500000000352000000003430000000000000000000352000000010900
0202LOTE PADRAO                   BRASIL      ON *       BBAS3       010VISTA          000000000015250000000152000000001470000000000000000000148000015449000
