00BDIN9999BOVESPA 99992003061020030610
0101IBOVESPA                      0138690138080140720000000000000000002003061000000020030610013894000000
0202LOTE PADRAO                   EMBRATEL PARPN *       EBTP4       010VISTA          000000000006500000000070000000000650000000000000000000070000597277000
0202LOTE PADRAO                   TRAN PAULISTPN * EJ    TRPL4       010VISTA          000000000007250000000073000000000720000000000000000000072000009682100
0202LOTE PADRAO                   EMBRATEL PARON *       EBTP3       010VISTA          000000000007200000000076000000000720000000000000000000076000069788600
0202LOTE PADRAO                   TELEMAR     PN * EJ    TNLP4       010VISTA          000000000036500000000365000000003525000000000000000000356000401712000
0202LOTE PADRAO                   ITAUBANCO   PN * EJ    ITAU4       010VISTA          000000000199500000002015000000019800000000000000000001995000010030600
0202LOTE PADRAO                   TELEMAR     ON * EJ    TNLP3       010VISTA          000000000025500000000261000000002500000000000000000000254000012429900
0202LOTE PADRAO                   SID NACIONALON *       CSNA3       010VISTA          000000000062500000000627000000006180000000000000000000620000030670900
0202LOTE PADRAO                   TELE LEST CLPN *       TLCP4       010VISTA          000000000000460000000004900000000046000000000000000000004800503158000
0202LOTE PADRAO                   CRT CELULAR PNA* EJ    CRTP5       010VISTA          000000000337000000003428000000033350000000000000000003355000001020900
0202LOTE PADRAO                   IPIRANGA PETPN *       PTIP4       010VISTA          000000000008900000000090000000000890000000000000000000089000013366200
0202LOTE PADRAO                   BRASIL T PARPN *       BRTP4       010VISTA          000000000022500000000228000000002200000000000000000000223000034336200
0202LOTE PADRAO                   BRASIL T PARON *       BRTP3       010VISTA          000000000016900000000173000000001650000000000000000000169000014715000
0202LOTE PADRAO                   KLABIN S/A  PN         KLBN4       010VISTA          000000000002800000000028000000000275000000000000000000028000000406700
0202LOTE PADRAO                   ACESITA     PN *       ACES4       010VISTA          000000000001400000000014000000000140000000000000000000014000225480000
0202LOTE PADRAO                   PETROBRAS   PN         PETR4       010VISTA          000000000054200000000543000000005260000000000000000000527000000169800
0202LOTE PADRAO                   ELETROBRAS  PNB*       ELET6       010VISTA          000000000025700000000262000000002510000000000000000000252000041839700
0202LOTE PADRAO                   PETROBRAS   ON         PETR3       010VISTA          000000000057600000000592500000005690000000000000000000572000000024400
0202LOTE PADRAO                   COMGAS      PNA*       CGAS5       010VISTA          000000000069500000000700000000006600000000000000000000660000001691400
0202LOTE PADRAO                   SOUZA CRUZ  ON EJ      CRUZ3       010VISTA          000000000020800000000210000000002030000000000000000000205000000011300
0202LOTE PADRAO                   ELETROBRAS  ON *       ELET3       010VISTA          000000000023500000000243000000002310000000000000000000231000006667400
0202LOTE PADRAO                   CELESC      PNB        CLSC6       010VISTA          000000000000510000000005200000000051000000000000000000005100000233700
0202LOTE PADRAO                   BRADESCO    PN * EJ    BBDC4       010VISTA          000000000011800000000119000000001160000000000000000000117500185938000
0202LOTE PADRAO                   CESP        PN *       CESP4       010VISTA          000000000008600000000087000000000830000000000000000000086000009356700
0202LOTE PADRAO                   LIGHT       ON *       LIGH3       010VISTA          000000000030000000000303000000002820000000000000000000285000001367000
0202LOTE PADRAO                   TELESP CL PAPN *       TSPP4       010VISTA          000000000004800000000048000000000470000000000000000000047000428175000
0202LOTE PADRAO                   VALE R DOCE PNA        VALE5       010VISTA          000000000081800000000818000000008090000000000000000000810000000027400
0202LOTE PADRAO                   COPEL       PNB*       CPLE6       010VISTA          000000000010500000000105000000001000000000000000000000100000068702100
0202LOTE PADRAO                   VALE R DOCE ON         VALE3       010VISTA          000000000086700000000877000000008620000000000000000000865000000009300
0202LOTE PADRAO                   ARACRUZ     PNB        ARCZ6       010VISTA          000000000005800000000059000000000579000000000000000000057900000063300
0202LOTE PADRAO                   TELEMIG PARTPN *       TMCP4       010VISTA          000000000002800000000029000000000280000000000000000000029600094185700
0202LOTE PADRAO                   BRASIL TELECPN *       BRTO4       010VISTA          000000000014000000000143000000001360000000000000000000139000156961000
0202LOTE PADRAO                   SABESP      ON *       SBSP3       010VISTA          000000000116000000001167000000011120000000000000000001135000003767500
0202LOTE PADRAO                   BRASKEM     PNA*       BRKM5       010VISTA          000000000372100000003898000000037210000000000000000003898000000432100
0202LOTE PADRAO                   EMBRAER     PN EJ      EMBR4       010VISTA          000000000012000000000138000000001200000000000000000000138000000765900
0202LOTE PADRAO                   TELESP      PN * EJ    TLPP4       010VISTA          000000000031600000000322000000003150000000000000000000318000011467600
0202LOTE PADRAO                   EMBRAER     ON EJ      EMBR3       010VISTA          000000000009900000000112000000000990000000000000000000112000000070300
0202LOTE PADRAO                   AMBEV       PN *       AMBV4       010VISTA          000000000590000000006025000000059000000000000000000005968000002968300
0202LOTE PADRAO                   USIMINAS    PNA        USIM5       010VISTA          000000000011500000000119000000001150000000000000000000118000000062600
0202LOTE PADRAO                   ELETROPAULO PN *       ELPL4       010VISTA          000000000028600000000292500000002750000000000000000000278000008154900
0202LOTE PADRAO                   TELE NORD CLPN *       TNEP4       010VISTA          000000000002500000000026000000000250000000000000000000025400058121900
0202LOTE PADRAO                   CEMIG       PN * EJ    CMIG4       010VISTA          000000000030300000000307000000002980000000000000000000301000048318200
0202LOTE PADRAO                   TELE CL SUL PN * EJ    TCSL4       010VISTA          000000000002700000000027000000000260000000000000000000026000107497000
0202LOTE PADRAO                   TRACTEBEL   ON *       TBLE3       010VISTA          000000000006100000000064000000000600000000000000000000061000012863400
0202LOTE PADRAO                   CEMIG       ON * EJ    CMIG3       010VISTA          000000000023300000000241000000002330000000000000000000235000001375100
0202LOTE PADRAO                   TELE CL SUL ON * EJ    TCSL3       010VISTA          000000000002300000000023000000000220000000000000000000022500039132600
0202LOTE PADRAO                   ITAUSA      PN         ITSA4       010VISTA          000000000002400000000025000000000240000000000000000000024000000291300
0202LOTE PADRAO                   V C P       PN *       VCPA4       010VISTA          000000000110000000001112000000010950000000000000000001100000002864400
0202LOTE PADRAO                   SID TUBARAO PN *       CSTB4       010VISTA          000000000050000000000509000000004900000000000000000000491000012777100
0202LOTE PADRAO                   BRADESPAR   PN *       BRAP4       010VISTA          000000000000660000000006700000000065000000000000000000006500163487000
0202LOTE PADRAO                   NET         PN         PLIM4       010VISTA          000000000000380000000003900000000036000000000000000000003700000891800
0202LOTE PADRAO                   TELE CTR OESPN * EJ    TCOC4       010VISTA          000000000005700000000058000000000560000000000000000000057500105962000
0202LOTE PADRAO                   TELEMAR N L PNA* EJ    TMAR5       010VISTA          000000000045000000000459000000004380000000000000000000442000018129700
0202LOTE PADRAO                   GERDAU      PN * EJ    GGBR4       010VISTA          000000000031600000000320000000003060000000000000000000311000000017900
0202LOTE PADRAO                   BRASIL      ON *       BBAS3       010VISTA          000000000015600000000161000000001560000000000000000000161000053473800
