00BDIN9999BOVESPA 99992003031820030318
0101IBOVESPA                      0108910108910111920000000000000000002003031800000020030318011151000000
0202LOTE PADRAO                   EMBRATEL PARPN *       EBTP4       010VISTA          000000000003300000000034000000000330000000000000000000033000377042000
0202LOTE PADRAO                   TRAN PAULISTPN * EJ    TRPL4       010VISTA          000000000005600000000057000000000550000000000000000000055000007225700
0202LOTE PADRAO                   EMBRATEL PARON *       EBTP3       010VISTA          000000000003900000000039400000000380000000000000000000038000031437300
0202LOTE PADRAO                   TELEMAR     PN * EJ    TNLP4       010VISTA          000000000026500000000273000000002630000000000000000000273000449804000
0202LOTE PADRAO                   ITAUBANCO   PN * EJ    ITAU4       010VISTA          000000000176900000001782000000017200000000000000000001782000008626400
0202LOTE PADRAO                   TELEMAR     ON * EJ    TNLP3       010VISTA          000000000018900000000195000000001890000000000000000000193000045232100
0202LOTE PADRAO                   SID NACIONALON *       CSNA3       010VISTA          000000000059400000000600000000005900000000000000000000598000011969500
0202LOTE PADRAO                   TELE LEST CLPN *       TLCP4       010VISTA          000000000000420000000004300000000041000000000000000000004300134178000
0202LOTE PADRAO                   CRT CELULAR PNA* EJ    CRTP5       010VISTA          000000000320000000003278000000031990000000000000000003270000000516400
0202LOTE PADRAO                   IPIRANGA PETPN *       PTIP4       010VISTA          000000000007400000000075000000000720000000000000000000073000002013300
0202LOTE PADRAO                   BRASIL T PARPN *       BRTP4       010VISTA          000000000019100000000193000000001880000000000000000000193000117352000
0202LOTE PADRAO                   BRASIL T PARON *       BRTP3       010VISTA          000000000014100000000144000000001400000000000000000000143000017575900
0202LOTE PADRAO                   KLABIN S/A  PN         KLBN4       010VISTA          000000000001600000000016000000000160000000000000000000016000000076000
0202LOTE PADRAO                   ACESITA     PN *       ACES4       010VISTA          000000000001100000000011000000000110000000000000000000011000168682000
0202LOTE PADRAO                   PETROBRAS   PN         PETR4       010VISTA          000000000045800000000476000000004550000000000000000000476000000203300
0202LOTE PADRAO                   ELETROBRAS  PNB*       ELET6       010VISTA          000000000020250000000208000000002010000000000000000000203000055981400
0202LOTE PADRAO                   PETROBRAS   ON         PETR3       010VISTA          000000000050500000000527000000005050000000000000000000526000000028100
0202LOTE PADRAO                   COMGAS      PNA*       CGAS5       010VISTA          000000000043300000000440000000004330000000000000000000436000000908000
0202LOTE PADRAO                   SOUZA CRUZ  ON EJ      CRUZ3       010VISTA          000000000018800000000188000000001850000000000000000000186000000019600
0202LOTE PADRAO                   ELETROBRAS  ON *       ELET3       010VISTA          000000000018100000000188000000001810000000000000000000183000015284500
0202LOTE PADRAO                   CELESC      PNB        CLSC6       010VISTA          000000000000460000000004700000000045000000000000000000004600000161000
0202LOTE PADRAO                   BRADESCO    PN * EJ    BBDC4       010VISTA          000000000010900000000114000000001090000000000000000000111000207659000
0202LOTE PADRAO                   CESP        PN *       CESP4       010VISTA          000000000006000000000061000000000590000000000000000000060000004000800
0202LOTE PADRAO                   LIGHT       ON *       LIGH3       010VISTA          000000000028100000000288000000002750000000000000000000277500000148900
0202LOTE PADRAO                   TELESP CL PAPN *       TSPP4       010VISTA          000000000003900000000042500000000390000000000000000000042000947728000
0202LOTE PADRAO                   VALE R DOCE PNA        VALE5       010VISTA          000000000091250000000912500000008950000000000000000000900000000033500
0202LOTE PADRAO                   COPEL       PNB*       CPLE6       010VISTA          000000000008500000000087000000000850000000000000000000085000029748300
0202LOTE PADRAO                   VALE R DOCE ON         VALE3       010VISTA          000000000095200000000962000000009490000000000000000000957000000017000
0202LOTE PADRAO                   ARACRUZ     PNB        ARCZ6       010VISTA          000000000007100000000072000000000690000000000000000000069000000026600
0202LOTE PADRAO                   TELEMIG PARTPN *       TMCP4       010VISTA          000000000002980000000030000000000290000000000000000000029000153138000
0202LOTE PADRAO                   BRASIL TELECPN *       BRTO4       010VISTA          000000000011300000000114000000001110000000000000000000114000088864000
0202LOTE PADRAO                   SABESP      ON *       SBSP3       010VISTA          000000000081000000000825000000007950000000000000000000817000007301100
0202LOTE PADRAO                   BRASKEM     PNA*       BRKM5       010VISTA          000000000169750000001790000000016850000000000000000001790000001281300
0202LOTE PADRAO                   EMBRAER     PN EJ      EMBR4       010VISTA          000000000009000000000094000000000900000000000000000000093000000173900
0202LOTE PADRAO                   TELESP      PN * EJ    TLPP4       010VISTA          000000000032700000000330000000003260000000000000000000327000003995300
0202LOTE PADRAO                   EMBRAER     ON EJ      EMBR3       010VISTA          000000000007500000000079000000000750000000000000000000077000000027600
0202LOTE PADRAO                   AMBEV       PN *       AMBV4       010VISTA          000000000545000000005641000000054200000000000000000005560000003596000
0202LOTE PADRAO                   USIMINAS    PNA        USIM5       010VISTA          000000000007700000000078000000000750000000000000000000076000000092500
0202LOTE PADRAO                   ELETROPAULO PN *       ELPL4       010VISTA          000000000023400000000247000000002340000000000000000000246000006921900
0202LOTE PADRAO                   TELE NORD CLPN *       TNEP4       010VISTA          000000000002300000000023000000000230000000000000000000023000108238000
0202LOTE PADRAO                   CEMIG       PN * EJ    CMIG4       010VISTA          000000000025300000000263000000002500000000000000000000263000051567500
0202LOTE PADRAO                   TELE CL SUL PN * EJ    TCSL4       010VISTA          000000000002300000000023000000000230000000000000000000023000098754100
0202LOTE PADRAO                   TRACTEBEL   ON *       TBLE3       010VISTA          000000000003300000000035000000000330000000000000000000034000030370000
0202LOTE PADRAO                   CEMIG       ON * EJ    CMIG3       010VISTA          000000000020500000000208000000002010000000000000000000206000001350800
0202LOTE PADRAO                   TELE CL SUL ON * EJ    TCSL3       010VISTA          000000000001800000000019500000000180000000000000000000018000020910300
0202LOTE PADRAO                   ITAUSA      PN         ITSA4       010VISTA          000000000001970000000020000000000196000000000000000000020000000958700
0202LOTE PADRAO                   V C P       PN *       VCPA4       010VISTA          000000000131500000001319000000013025000000000000000001315000001198600
0202LOTE PADRAO                   SID TUBARAO PN *       CSTB4       010VISTA          000000000043000000000431000000004150000000000000000000420000014008600
0202LOTE PADRAO                   BRADESPAR   PN *       BRAP4       010VISTA          000000000000660000000006700000000065000000000000000000006500174588000
0202LOTE PADRAO                   NET         PN         PLIM4       010VISTA          000000000000300000000003100000000029000000000000000000002900000687500
0202LOTE PADRAO                   TELE CTR OESPN * EJ    TCOC4       010VISTA          000000000004900000000052000000000490000000000000000000052000173055000
0202LOTE PADRAO                   TELEMAR N L PNA* EJ    TMAR5       010VISTA          000000000036300000000380000000003570000000000000000000372000045712400
0202LOTE PADRAO                   GERDAU      PN * EJ    GGBR4       010VISTA          000000000031700000000320000000003110000000000000000000313000019047400
0202LOTE PADRAO                   BRASIL      ON *       BBAS3       010VISTA          000000000010000000000105000000001000000000000000000000104000054309000
