00BDIN9999BOVESPA 99992003021920030219
0101IBOVESPA                      0104340102060104340000000000000000002003021900000020030219010252000000
0202LOTE PADRAO                   EMBRATEL PARPN *       EBTP4       010VISTA          000000000003100000000031000000000300000000000000000000030000248795000
0202LOTE PADRAO                   TRAN PAULISTPN * EJ    TRPL4       010VISTA          000000000005100000000051000000000500000000000000000000050000001615700
0202LOTE PADRAO                   EMBRATEL PARON *       EBTP3       010VISTA          000000000003600000000036000000000350000000000000000000035000018602300
0202LOTE PADRAO                   TELEMAR     PN * EJ    TNLP4       010VISTA          000000000025100000000255000000002460000000000000000000247000157345000
0202LOTE PADRAO                   ITAUBANCO   PN * EJ    ITAU4       010VISTA          000000000156000000001560000000015000000000000000000001514000009338900
0202LOTE PADRAO                   TELEMAR     ON * EJ    TNLP3       010VISTA          000000000018300000000183000000001760000000000000000000177500021274100
0202LOTE PADRAO                   SID NACIONALON *       CSNA3       010VISTA          000000000064000000000650000000006325000000000000000000640000047388900
0202LOTE PADRAO                   TELE LEST CLPN *       TLCP4       010VISTA          000000000000390000000003900000000038000000000000000000003800057942200
0202LOTE PADRAO                   CRT CELULAR PNA* EJ    CRTP5       010VISTA          000000000316000000003160000000030500000000000000000003085000000384900
0202LOTE PADRAO                   IPIRANGA PETPN *       PTIP4       010VISTA          000000000007000000000070000000000650000000000000000000066000000315600
0202LOTE PADRAO                   BRASIL T PARPN *       BRTP4       010VISTA          000000000018000000000183000000001780000000000000000000182000054919300
0202LOTE PADRAO                   BRASIL T PARON *       BRTP3       010VISTA          000000000013500000000135000000001300000000000000000000134000012735900
0202LOTE PADRAO                   KLABIN S/A  PN         KLBN4       010VISTA          000000000001100000000012000000000110000000000000000000012000000042200
0202LOTE PADRAO                   ACESITA     PN *       ACES4       010VISTA          000000000001100000000011000000000110000000000000000000011000214759000
0202LOTE PADRAO                   PETROBRAS   PN         PETR4       010VISTA          000000000045500000000455000000004480000000000000000000454000000092200
0202LOTE PADRAO                   ELETROBRAS  PNB*       ELET6       010VISTA          000000000019000000000190000000001830000000000000000000183000049312500
0202LOTE PADRAO                   PETROBRAS   ON         PETR3       010VISTA          000000000050000000000505000000004970000000000000000000502000000033100
0202LOTE PADRAO                   COMGAS      PNA*       CGAS5       010VISTA          000000000045700000000457000000004500000000000000000000450000000919700
0202LOTE PADRAO                   SOUZA CRUZ  ON EJ      CRUZ3       010VISTA          000000000018500000000187000000001850000000000000000000187000000005400
0202LOTE PADRAO                   ELETROBRAS  ON *       ELET3       010VISTA          000000000018200000000182000000001750000000000000000000175000021772800
0202LOTE PADRAO                   CELESC      PNB        CLSC6       010VISTA          000000000000470000000004800000000047000000000000000000004700000213700
0202LOTE PADRAO                   BRADESCO    PN * EJ    BBDC4       010VISTA          000000000010100000000101000000000980000000000000000000098000163412000
0202LOTE PADRAO                   CESP        PN *       CESP4       010VISTA          000000000006200000000062000000000600000000000000000000060000003459300
0202LOTE PADRAO                   LIGHT       ON *       LIGH3       010VISTA          000000000029500000000295000000002760000000000000000000280000000156800
0202LOTE PADRAO                   TELESP CL PAPN *       TSPP4       010VISTA          000000000003250000000032500000000310000000000000000000032000301679000
0202LOTE PADRAO                   VALE R DOCE PNA        VALE5       010VISTA          000000000095400000000955000000009350000000000000000000955000000013300
0202LOTE PADRAO                   COPEL       PNB*       CPLE6       010VISTA          000000000007600000000077000000000720000000000000000000073000027880600
0202LOTE PADRAO                   VALE R DOCE ON         VALE3       010VISTA          000000000100700000001007000000009800000000000000000000990000000006700
0202LOTE PADRAO                   ARACRUZ     PNB        ARCZ6       010VISTA          000000000007000000000070000000000680000000000000000000069000000054600
0202LOTE PADRAO                   TELEMIG PARTPN *       TMCP4       010VISTA          000000000002540000000025400000000240000000000000000000024000042242600
0202LOTE PADRAO                   BRASIL TELECPN *       BRTO4       010VISTA          000000000010100000000104000000001010000000000000000000103000086147700
0202LOTE PADRAO                   SABESP      ON *       SBSP3       010VISTA          000000000083500000000835000000007950000000000000000000800000004402600
0202LOTE PADRAO                   BRASKEM     PNA*       BRKM5       010VISTA          000000000168500000001685000000016400000000000000000001669000000097400
0202LOTE PADRAO                   EMBRAER     PN EJ      EMBR4       010VISTA          000000000009600000000097000000000950000000000000000000095000000062800
0202LOTE PADRAO                   TELESP      PN * EJ    TLPP4       010VISTA          000000000031500000000325000000003070000000000000000000325000015999900
0202LOTE PADRAO                   EMBRAER     ON EJ      EMBR3       010VISTA          000000000008500000000085000000000820000000000000000000083000000005800
0202LOTE PADRAO                   AMBEV       PN *       AMBV4       010VISTA          000000000500000000005070000000049400000000000000000005070000001118200
0202LOTE PADRAO                   USIMINAS    PNA        USIM5       010VISTA          000000000007400000000075000000000730000000000000000000074000000040400
0202LOTE PADRAO                   ELETROPAULO PN *       ELPL4       010VISTA          000000000022700000000228000000002150000000000000000000222000005006200
0202LOTE PADRAO                   TELE NORD CLPN *       TNEP4       010VISTA          000000000002400000000024000000000230000000000000000000023000037536300
0202LOTE PADRAO                   CEMIG       PN * EJ    CMIG4       010VISTA          000000000024000000000240000000002320000000000000000000233000031338400
0202LOTE PADRAO                   TELE CL SUL PN * EJ    TCSL4       010VISTA          000000000002200000000022000000000220000000000000000000022500132294000
0202LOTE PADRAO                   TRACTEBEL   ON *       TBLE3       010VISTA          000000000003000000000030000000000290000000000000000000029800038654600
0202LOTE PADRAO                   CEMIG       ON * EJ    CMIG3       010VISTA          000000000020900000000209000000002000000000000000000000200000000112400
0202LOTE PADRAO                   TELE CL SUL ON * EJ    TCSL3       010VISTA          000000000001600000000016000000000160000000000000000000016000015601800
0202LOTE PADRAO                   ITAUSA      PN         ITSA4       010VISTA          000000000001800000000018000000000178000000000000000000017800000263500
0202LOTE PADRAO                   V C P       PN *       VCPA4       010VISTA          000000000126500000001299000000012650000000000000000001285000000517400
0202LOTE PADRAO                   SID TUBARAO PN *       CSTB4       010VISTA          000000000044100000000442000000004250000000000000000000426000012409500
0202LOTE PADRAO                   BRADESPAR   PN *       BRAP4       010VISTA          000000000000620000000006300000000061000000000000000000006100070679100
0202LOTE PADRAO                   NET         PN         PLIM4       010VISTA          000000000000290000000003000000000028000000000000000000002900000411400
0202LOTE PADRAO                   TELE CTR OESPN * EJ    TCOC4       010VISTA          000000000003900000000040000000000380000000000000000000040000163226000
0202LOTE PADRAO                   TELEMAR N L PNA* EJ    TMAR5       010VISTA          000000000037000000000373000000003640000000000000000000365000016773900
0202LOTE PADRAO                   GERDAU      PN * EJ    GGBR4       010VISTA          000000000031600000000323000000003100000000000000000000315000011273100
0202LOTE PADRAO                   BRASIL      ON *       BBAS3       010VISTA          000000000009600000000096000000000930000000000000000000093000016643500
