00BDIN9999BOVESPA 99992003040720030407
0101IBOVESPA                      0121540121200124360000000000000000002003040700000020030407012136000000
0202LOTE PADRAO                   EMBRATEL PARPN *       EBTP4       010VISTA          000000000004000000000041000000000398000000000000000000040000596054000
0202LOTE PADRAO                   TRAN PAULISTPN * EJ    TRPL4       010VISTA          000000000006000000000061000000000590000000000000000000060000016513200
0202LOTE PADRAO                   EMBRATEL PARON *       EBTP3       010VISTA          000000000004700000000048000000000470000000000000000000047000073748000
0202LOTE PADRAO                   TELEMAR     PN * EJ    TNLP4       010VISTA          000000000030800000000313000000003010000000000000000000301000304407000
0202LOTE PADRAO                   ITAUBANCO   PN * EJ    ITAU4       010VISTA          000000000192400000002000000000019230000000000000000001969000025958800
0202LOTE PADRAO                   TELEMAR     ON * EJ    TNLP3       010VISTA          000000000022300000000223000000002160000000000000000000216000055079900
0202LOTE PADRAO                   SID NACIONALON *       CSNA3       010VISTA          000000000063600000000650000000006170000000000000000000620000068549400
0202LOTE PADRAO                   TELE LEST CLPN *       TLCP4       010VISTA          000000000000460000000004700000000045000000000000000000004500174895000
0202LOTE PADRAO                   CRT CELULAR PNA* EJ    CRTP5       010VISTA          000000000335000000003500000000033310000000000000000003380000001116000
0202LOTE PADRAO                   IPIRANGA PETPN *       PTIP4       010VISTA          000000000007900000000080000000000760000000000000000000076000007165000
0202LOTE PADRAO                   BRASIL T PARPN *       BRTP4       010VISTA          000000000020000000000203000000001960000000000000000000198000064737100
0202LOTE PADRAO                   BRASIL T PARON *       BRTP3       010VISTA          000000000015700000000158000000001500000000000000000000151000011546400
0202LOTE PADRAO                   KLABIN S/A  PN         KLBN4       010VISTA          000000000001800000000018000000000175000000000000000000018000000044200
0202LOTE PADRAO                   ACESITA     PN *       ACES4       010VISTA          000000000001200000000012500000000120000000000000000000012000428870000
0202LOTE PADRAO                   PETROBRAS   PN         PETR4       010VISTA          000000000050000000000504000000004780000000000000000000478000000164600
0202LOTE PADRAO                   ELETROBRAS  PNB*       ELET6       010VISTA          000000000025000000000255000000002480000000000000000000248000090838300
0202LOTE PADRAO                   PETROBRAS   ON         PETR3       010VISTA          000000000055000000000552000000005220000000000000000000524000000059500
0202LOTE PADRAO                   COMGAS      PNA*       CGAS5       010VISTA          000000000054900000000551000000005320000000000000000000537000001559700
0202LOTE PADRAO                   SOUZA CRUZ  ON EJ      CRUZ3       010VISTA          000000000020000000000200000000001920000000000000000000192000000040900
0202LOTE PADRAO                   ELETROBRAS  ON *       ELET3       010VISTA          000000000023200000000239000000002320000000000000000000236000033800000
0202LOTE PADRAO                   CELESC      PNB        CLSC6       010VISTA          000000000000490000000005000000000047000000000000000000004700000239500
0202LOTE PADRAO                   BRADESCO    PN * EJ    BBDC4       010VISTA          000000000012000000000124000000001200000000000000000000124000239206000
0202LOTE PADRAO                   CESP        PN *       CESP4       010VISTA          000000000007000000000070000000000640000000000000000000064000015641700
0202LOTE PADRAO                   LIGHT       ON *       LIGH3       010VISTA          000000000031000000000341000000003090000000000000000000326000001752600
0202LOTE PADRAO                   TELESP CL PAPN *       TSPP4       010VISTA          000000000004750000000048000000000450000000000000000000045000387444000
0202LOTE PADRAO                   VALE R DOCE PNA        VALE5       010VISTA          000000000083500000000850000000008130000000000000000000837000000020600
0202LOTE PADRAO                   COPEL       PNB*       CPLE6       010VISTA          000000000009700000000100000000000950000000000000000000096000126920000
0202LOTE PADRAO                   VALE R DOCE ON         VALE3       010VISTA          000000000087000000000890000000008600000000000000000000871000000012600
0202LOTE PADRAO                   ARACRUZ     PNB        ARCZ6       010VISTA          000000000006500000000066000000000640000000000000000000064000000066900
0202LOTE PADRAO                   TELEMIG PARTPN *       TMCP4       010VISTA          000000000002900000000030000000000280000000000000000000028000079895300
0202LOTE PADRAO                   BRASIL TELECPN *       BRTO4       010VISTA          000000000011800000000121000000001180000000000000000000118000128438000
0202LOTE PADRAO                   SABESP      ON *       SBSP3       010VISTA          000000000093500000000962000000009350000000000000000000951000011581300
0202LOTE PADRAO                   BRASKEM     PNA*       BRKM5       010VISTA          000000000239000000002390000000022400000000000000000002310000000549800
0202LOTE PADRAO                   EMBRAER     PN EJ      EMBR4       010VISTA          000000000010900000000112500000001010000000000000000000103000000111000
0202LOTE PADRAO                   TELESP      PN * EJ    TLPP4       010VISTA          000000000030800000000312000000003010000000000000000000308000009445400
0202LOTE PADRAO                   EMBRAER     ON EJ      EMBR3       010VISTA          000000000009400000000095000000000860000000000000000000086000000031400
0202LOTE PADRAO                   AMBEV       PN *       AMBV4       010VISTA          000000000579100000005820000000056400000000000000000005689000007879600
0202LOTE PADRAO                   USIMINAS    PNA        USIM5       010VISTA          000000000009800000000101000000000960000000000000000000097000000055400
0202LOTE PADRAO                   ELETROPAULO PN *       ELPL4       010VISTA          000000000028000000000287500000002700000000000000000000270000007260200
0202LOTE PADRAO                   TELE NORD CLPN *       TNEP4       010VISTA          000000000002400000000026000000000240000000000000000000024000063181800
0202LOTE PADRAO                   CEMIG       PN * EJ    CMIG4       010VISTA          000000000029800000000306000000002860000000000000000000291000070936200
0202LOTE PADRAO                   TELE CL SUL PN * EJ    TCSL4       010VISTA          000000000002500000000025000000000240000000000000000000024000075056400
0202LOTE PADRAO                   TRACTEBEL   ON *       TBLE3       010VISTA          000000000004000000000044000000000400000000000000000000043000032520300
0202LOTE PADRAO                   CEMIG       ON * EJ    CMIG3       010VISTA          000000000023800000000240000000002240000000000000000000224000003068000
0202LOTE PADRAO                   TELE CL SUL ON * EJ    TCSL3       010VISTA          000000000002400000000025000000000240000000000000000000024000023509500
0202LOTE PADRAO                   ITAUSA      PN         ITSA4       010VISTA          000000000002100000000022000000000210000000000000000000022000000650800
0202LOTE PADRAO                   V C P       PN *       VCPA4       010VISTA          000000000120000000001200000000011800000000000000000001200000002301300
0202LOTE PADRAO                   SID TUBARAO PN *       CSTB4       010VISTA          000000000043000000000430000000004220000000000000000000427000009868100
0202LOTE PADRAO                   BRADESPAR   PN *       BRAP4       010VISTA          000000000000680000000006900000000066000000000000000000006600202270000
0202LOTE PADRAO                   NET         PN         PLIM4       010VISTA          000000000000330000000003400000000032000000000000000000003200001251800
0202LOTE PADRAO                   TELE CTR OESPN * EJ    TCOC4       010VISTA          000000000005700000000059000000000570000000000000000000058000144340000
0202LOTE PADRAO                   TELEMAR N L PNA* EJ    TMAR5       010VISTA          000000000041600000000430000000004110000000000000000000413000063750900
0202LOTE PADRAO                   GERDAU      PN * EJ    GGBR4       010VISTA          000000000031600000000320000000003160000000000000000000317000043596100
0202LOTE PADRAO                   BRASIL      ON *       BBAS3       010VISTA          000000000011100000000117000000001110000000000000000000116000050539900
