00BDIN9999BOVESPA 99992003082720030827
0101IBOVESPA                      0148760148760151430000000000000000002003082700000020030827015143000000
0202LOTE PADRAO                   EMBRATEL PARPN *       EBTP4       010VISTA          000000000006200000000063000000000620000000000000000000063000408739000
0202LOTE PADRAO                   TRAN PAULISTPN * EJ    TRPL4       010VISTA          000000000008900000000089000000000880000000000000000000089000016083800
0202LOTE PADRAO                   EMBRATEL PARON *       EBTP3       010VISTA          000000000006400000000065000000000640000000000000000000065400044188100
0202LOTE PADRAO                   TELEMAR     PN * EJ    TNLP4       010VISTA          000000000037100000000382000000003710000000000000000000381000401421000
0202LOTE PADRAO                   ITAUBANCO   PN * EJ    ITAU4       010VISTA          000000000217800000002310000000021500000000000000000002310000015620600
0202LOTE PADRAO                   TELEMAR     ON * EJ    TNLP3       010VISTA          000000000027100000000279000000002710000000000000000000279000020619300
0202LOTE PADRAO                   SID NACIONALON *       CSNA3       010VISTA          000000000100000000001000000000009440000000000000000000960000025260500
0202LOTE PADRAO                   TELE LEST CLPN *       TLCP4       010VISTA          000000000000460000000004600000000043000000000000000000004500196803000
0202LOTE PADRAO                   CRT CELULAR PNA* EJ    CRTP5       010VISTA          000000000427000000004270000000041000000000000000000004232000000361800
0202LOTE PADRAO                   IPIRANGA PETPN *       PTIP4       010VISTA          000000000010500000000110000000001050000000000000000000109000022831600
0202LOTE PADRAO                   BRASIL T PARPN *       BRTP4       010VISTA          000000000022300000000229000000002225000000000000000000228000057531200
0202LOTE PADRAO                   BRASIL T PARON *       BRTP3       010VISTA          000000000016900000000173000000001660000000000000000000172000023568600
0202LOTE PADRAO                   KLABIN S/A  PN         KLBN4       010VISTA          000000000003100000000032000000000310000000000000000000032000000125800
0202LOTE PADRAO                   ACESITA     PN *       ACES4       010VISTA          000000000001530000000015400000000148000000000000000000014900351440000
0202LOTE PADRAO                   PETROBRAS   PN         PETR4       010VISTA          000000000058000000000592500000005770000000000000000000592500000099000
0202LOTE PADRAO                   ELETROBRAS  PNB*       ELET6       010VISTA          000000000024100000000248000000002410000000000000000000245000060188700
0202LOTE PADRAO                   PETROBRAS   ON         PETR3       010VISTA          000000000062500000000637500000006225000000000000000000637500000021700
0202LOTE PADRAO                   COMGAS      PNA*       CGAS5       010VISTA          000000000086400000000864000000008270000000000000000000840000001170000
0202LOTE PADRAO                   SOUZA CRUZ  ON EJ      CRUZ3       010VISTA          000000000024000000000243000000002400000000000000000000243000000014700
0202LOTE PADRAO                   ELETROBRAS  ON *       ELET3       010VISTA          000000000021700000000220000000002160000000000000000000220000012350900
0202LOTE PADRAO                   CELESC      PNB        CLSC6       010VISTA          000000000000470000000004700000000045000000000000000000004600000353700
0202LOTE PADRAO                   BRADESCO    PN * EJ    BBDC4       010VISTA          000000000012700000000131000000001270000000000000000000131000225862000
0202LOTE PADRAO                   CESP        PN *       CESP4       010VISTA          000000000007200000000081000000000720000000000000000000080000066238800
0202LOTE PADRAO                   LIGHT       ON *       LIGH3       010VISTA          000000000029100000000298000000002850000000000000000000285000001671100
0202LOTE PADRAO                   TELESP CL PAPN *       TSPP4       010VISTA          000000000004900000000049000000000470000000000000000000048000296574000
0202LOTE PADRAO                   VALE R DOCE PNA        VALE5       010VISTA          000000000099700000001000000000009840000000000000000001000000000029700
0202LOTE PADRAO                   COPEL       PNB*       CPLE6       010VISTA          000000000008300000000085000000000830000000000000000000085000136930000
0202LOTE PADRAO                   VALE R DOCE ON         VALE3       010VISTA          000000000108400000001090000000010770000000000000000001089000000004200
0202LOTE PADRAO                   ARACRUZ     PNB        ARCZ6       010VISTA          000000000007600000000078000000000760000000000000000000078000000025400
0202LOTE PADRAO                   TELEMIG PARTPN *       TMCP4       010VISTA          000000000003200000000034000000000320000000000000000000034000121362000
0202LOTE PADRAO                   BRASIL TELECPN *       BRTO4       010VISTA          000000000013400000000140000000001340000000000000000000140000228618000
0202LOTE PADRAO                   SABESP      ON *       SBSP3       010VISTA          000000000121000000001265000000011990000000000000000001257000013415400
0202LOTE PADRAO                   BRASKEM     PNA*       BRKM5       010VISTA          000000000623400000006235000000060100000000000000000006150000000648300
0202LOTE PADRAO                   EMBRAER     PN EJ      EMBR4       010VISTA          000000000013800000000143000000001360000000000000000000143000000078600
0202LOTE PADRAO                   TELESP      PN * EJ    TLPP4       010VISTA          000000000032000000000328000000003180000000000000000000327500021906100
0202LOTE PADRAO                   EMBRAER     ON EJ      EMBR3       010VISTA          000000000010900000000110000000001080000000000000000000110000000013600
0202LOTE PADRAO                   AMBEV       PN *       AMBV4       010VISTA          000000000597000000006150000000059300000000000000000006150000014749800
0202LOTE PADRAO                   USIMINAS    PNA        USIM5       010VISTA          000000000017800000000181000000001710000000000000000000173000000071100
0202LOTE PADRAO                   ELETROPAULO PN *       ELPL4       010VISTA          000000000027000000000293000000002700000000000000000000289000025542900
0202LOTE PADRAO                   TELE NORD CLPN *       TNEP4       010VISTA          000000000002500000000025600000000250000000000000000000025400124375000
0202LOTE PADRAO                   CEMIG       PN * EJ    CMIG4       010VISTA          000000000030100000000310000000003010000000000000000000309000071866500
0202LOTE PADRAO                   TELE CL SUL PN * EJ    TCSL4       010VISTA          000000000002500000000025000000000252000000000000000000025000122596000
0202LOTE PADRAO                   TRACTEBEL   ON *       TBLE3       010VISTA          000000000007800000000079000000000770000000000000000000078000002721600
0202LOTE PADRAO                   CEMIG       ON * EJ    CMIG3       010VISTA          000000000023600000000238000000002360000000000000000000236000002575400
0202LOTE PADRAO                   TELE CL SUL ON * EJ    TCSL3       010VISTA          000000000002200000000022500000000220000000000000000000022500024823200
0202LOTE PADRAO                   ITAUSA      PN         ITSA4       010VISTA          000000000002700000000027000000000260000000000000000000027700000213800
0202LOTE PADRAO                   V C P       PN *       VCPA4       010VISTA          000000000151000000001514000000015000000000000000000001514000001334000
0202LOTE PADRAO                   SID TUBARAO PN *       CSTB4       010VISTA          000000000064200000000650000000006170000000000000000000625000016387600
0202LOTE PADRAO                   BRADESPAR   PN *       BRAP4       010VISTA          000000000000790000000008000000000078000000000000000000007800175149000
0202LOTE PADRAO                   NET         PN         PLIM4       010VISTA          000000000000360000000003600000000035000000000000000000003600000293000
0202LOTE PADRAO                   TELE CTR OESPN * EJ    TCOC4       010VISTA          000000000006000000000061000000000590000000000000000000061000140717000
0202LOTE PADRAO                   TELEMAR N L PNA* EJ    TMAR5       010VISTA          000000000043000000000444000000004300000000000000000000443000039438000
0202LOTE PADRAO                   GERDAU      PN * EJ    GGBR4       010VISTA          000000000045200000000460000000004380000000000000000000445000000051900
0202LOTE PADRAO                   BRASIL      ON *       BBAS3       010VISTA          000000000015400000000158000000001540000000000000000000158000022942200
