00BDIN9999BOVESPA 99992003052820030528
0101IBOVESPA                      0132570132570134270000000000000000002003052800000020030528013294000000
0202LOTE PADRAO                   EMBRATEL PARPN *       EBTP4       010VISTA          000000000005300000000054000000000520000000000000000000052000407483000
0202LOTE PADRAO                   TRAN PAULISTPN * EJ    TRPL4       010VISTA          000000000007400000000074000000000720000000000000000000073000005001000
0202LOTE PADRAO                   EMBRATEL PARON *       EBTP3       010VISTA          000000000006100000000063000000000600000000000000000000062000110983000
0202LOTE PADRAO                   TELEMAR     PN * EJ    TNLP4       010VISTA          000000000036200000000367000000003550000000000000000000355000485791000
0202LOTE PADRAO                   ITAUBANCO   PN * EJ    ITAU4       010VISTA          000000000204500000002080000000020400000000000000000002060000008263000
0202LOTE PADRAO                   TELEMAR     ON * EJ    TNLP3       010VISTA          000000000026100000000264000000002550000000000000000000258000028604800
0202LOTE PADRAO                   SID NACIONALON *       CSNA3       010VISTA          000000000058200000000582000000005700000000000000000000572000032713400
0202LOTE PADRAO                   TELE LEST CLPN *       TLCP4       010VISTA          000000000000440000000004500000000044000000000000000000004500055620100
0202LOTE PADRAO                   CRT CELULAR PNA* EJ    CRTP5       010VISTA          000000000340000000003400000000033500000000000000000003375000001509800
0202LOTE PADRAO                   IPIRANGA PETPN *       PTIP4       010VISTA          000000000008600000000087500000000830000000000000000000084000005296400
0202LOTE PADRAO                   BRASIL T PARPN *       BRTP4       010VISTA          000000000021900000000220000000002160000000000000000000220000041825600
0202LOTE PADRAO                   BRASIL T PARON *       BRTP3       010VISTA          000000000016000000000163000000001600000000000000000000163000002269900
0202LOTE PADRAO                   KLABIN S/A  PN         KLBN4       010VISTA          000000000002400000000025000000000230000000000000000000024000000394500
0202LOTE PADRAO                   ACESITA     PN *       ACES4       010VISTA          000000000001300000000014000000000130000000000000000000014000257189000
0202LOTE PADRAO                   PETROBRAS   PN         PETR4       010VISTA          000000000053200000000540000000005320000000000000000000536000000089800
0202LOTE PADRAO                   ELETROBRAS  PNB*       ELET6       010VISTA          000000000024500000000247500000002425000000000000000000243000039565600
0202LOTE PADRAO                   PETROBRAS   ON         PETR3       010VISTA          000000000058000000000583000000005750000000000000000000582000000029800
0202LOTE PADRAO                   COMGAS      PNA*       CGAS5       010VISTA          000000000056100000000580000000005610000000000000000000575000000431000
0202LOTE PADRAO                   SOUZA CRUZ  ON EJ      CRUZ3       010VISTA          000000000019500000000196000000001910000000000000000000196000000015200
0202LOTE PADRAO                   ELETROBRAS  ON *       ELET3       010VISTA          000000000022600000000228000000002230000000000000000000223000019104700
0202LOTE PADRAO                   CELESC      PNB        CLSC6       010VISTA          000000000000500000000005000000000048000000000000000000004900000062100
0202LOTE PADRAO                   BRADESCO    PN * EJ    BBDC4       010VISTA          000000000011700000000119000000001170000000000000000000118000212788000
0202LOTE PADRAO                   CESP        PN *       CESP4       010VISTA          000000000008300000000085000000000810000000000000000000082000006920300
0202LOTE PADRAO                   LIGHT       ON *       LIGH3       010VISTA          000000000028100000000283000000002730000000000000000000273000001432500
0202LOTE PADRAO                   TELESP CL PAPN *       TSPP4       010VISTA          000000000004600000000046000000000450000000000000000000045000433898000
0202LOTE PADRAO                   VALE R DOCE PNA        VALE5       010VISTA          000000000083500000000847000000008350000000000000000000844000000028600
0202LOTE PADRAO                   COPEL       PNB*       CPLE6       010VISTA          000000000010000000000100000000000960000000000000000000097000048587400
0202LOTE PADRAO                   VALE R DOCE ON         VALE3       010VISTA          000000000089000000000899000000008850000000000000000000892000000007400
0202LOTE PADRAO                   ARACRUZ     PNB        ARCZ6       010VISTA          000000000005700000000059000000000570000000000000000000058000000063500
0202LOTE PADRAO                   TELEMIG PARTPN *       TMCP4       010VISTA          000000000002700000000027000000000270000000000000000000027000041689900
0202LOTE PADRAO                   BRASIL TELECPN *       BRTO4       010VISTA          000000000012800000000129000000001260000000000000000000128000096865500
0202LOTE PADRAO                   SABESP      ON *       SBSP3       010VISTA          000000000106500000001069000000010470000000000000000001069000001560300
0202LOTE PADRAO                   BRASKEM     PNA*       BRKM5       010VISTA          000000000373000000003730000000036400000000000000000003680000000216400
0202LOTE PADRAO                   EMBRAER     PN EJ      EMBR4       010VISTA          000000000010600000000107000000001050000000000000000000106000000083300
0202LOTE PADRAO                   TELESP      PN * EJ    TLPP4       010VISTA          000000000030800000000311000000003060000000000000000000308000030916400
0202LOTE PADRAO                   EMBRAER     ON EJ      EMBR3       010VISTA          000000000008900000000089000000000860000000000000000000088000000008900
0202LOTE PADRAO                   AMBEV       PN *       AMBV4       010VISTA          000000000599000000006135000000059900000000000000000006109000001450800
0202LOTE PADRAO                   USIMINAS    PNA        USIM5       010VISTA          000000000010400000000105000000001030000000000000000000105000000050600
0202LOTE PADRAO                   ELETROPAULO PN *       ELPL4       010VISTA          000000000026400000000269000000002570000000000000000000260000014633100
0202LOTE PADRAO                   TELE NORD CLPN *       TNEP4       010VISTA          000000000002540000000025600000000240000000000000000000025200046481500
0202LOTE PADRAO                   CEMIG       PN * EJ    CMIG4       010VISTA          000000000030900000000316000000003040000000000000000000307500030950300
0202LOTE PADRAO                   TELE CL SUL PN * EJ    TCSL4       010VISTA          000000000002690000000027500000000260000000000000000000026000055347100
0202LOTE PADRAO                   TRACTEBEL   ON *       TBLE3       010VISTA          000000000005200000000052000000000500000000000000000000051000011475100
0202LOTE PADRAO                   CEMIG       ON * EJ    CMIG3       010VISTA          000000000024400000000244000000002360000000000000000000236000000672400
0202LOTE PADRAO                   TELE CL SUL ON * EJ    TCSL3       010VISTA          000000000002400000000024000000000230000000000000000000023000006404500
0202LOTE PADRAO                   ITAUSA      PN         ITSA4       010VISTA          000000000002400000000024000000000240000000000000000000024000000821200
0202LOTE PADRAO                   V C P       PN *       VCPA4       010VISTA          000000000101700000001075000000010100000000000000000001069000013024600
0202LOTE PADRAO                   SID TUBARAO PN *       CSTB4       010VISTA          000000000044700000000450000000004430000000000000000000448000009132500
0202LOTE PADRAO                   BRADESPAR   PN *       BRAP4       010VISTA          000000000000640000000006600000000063000000000000000000006400322762000
0202LOTE PADRAO                   NET         PN         PLIM4       010VISTA          000000000000350000000003600000000034000000000000000000003400000508600
0202LOTE PADRAO                   TELE CTR OESPN * EJ    TCOC4       010VISTA          000000000005600000000057000000000550000000000000000000056000110418000
0202LOTE PADRAO                   TELEMAR N L PNA* EJ    TMAR5       010VISTA          000000000042200000000446000000004220000000000000000000442500060227700
0202LOTE PADRAO                   GERDAU      PN * EJ    GGBR4       010VISTA          000000000030000000000303000000002980000000000000000000300000000020900
0202LOTE PADRAO                   BRASIL      ON *       BBAS3       010VISTA          000000000014000000000145000000001400000000000000000000144000047496900
