00BDIN9999BOVESPA 99992003021320030213
0101IBOVESPA                      0105090100910105090000000000000000002003021300000020030213010108000000
0202LOTE PADRAO                   EMBRATEL PARPN *       EBTP4       010VISTA          000000000003000000000030000000000280000000000000000000028000433060000
0202LOTE PADRAO                   TRAN PAULISTPN * EJ    TRPL4       010VISTA          000000000005100000000051000000000500000000000000000000050000007177800
0202LOTE PADRAO                   EMBRATEL PARON *       EBTP3       010VISTA          000000000003560000000036000000000340000000000000000000034000034213000
0202LOTE PADRAO                   TELEMAR     PN * EJ    TNLP4       010VISTA          000000000025000000000251000000002380000000000000000000241000292463000
0202LOTE PADRAO                   ITAUBANCO   PN * EJ    ITAU4       010VISTA          000000000155000000001584000000015500000000000000000001575000010960000
0202LOTE PADRAO                   TELEMAR     ON * EJ    TNLP3       010VISTA          000000000017600000000180000000001710000000000000000000173000012797900
0202LOTE PADRAO                   SID NACIONALON *       CSNA3       010VISTA          000000000063700000000637000000006030000000000000000000606000018118500
0202LOTE PADRAO                   TELE LEST CLPN *       TLCP4       010VISTA          000000000000400000000004100000000039000000000000000000003900164823000
0202LOTE PADRAO                   CRT CELULAR PNA* EJ    CRTP5       010VISTA          000000000322000000003220000000031100000000000000000003200000000493800
0202LOTE PADRAO                   IPIRANGA PETPN *       PTIP4       010VISTA          000000000006700000000069000000000675000000000000000000067500002354700
0202LOTE PADRAO                   BRASIL T PARPN *       BRTP4       010VISTA          000000000017000000000172500000001630000000000000000000165000072131100
0202LOTE PADRAO                   BRASIL T PARON *       BRTP3       010VISTA          000000000012500000000128000000001250000000000000000000125000004600200
0202LOTE PADRAO                   KLABIN S/A  PN         KLBN4       010VISTA          000000000001000000000011000000000100000000000000000000010000000023400
0202LOTE PADRAO                   ACESITA     PN *       ACES4       010VISTA          000000000001000000000010000000000098000000000000000000009800401331000
0202LOTE PADRAO                   PETROBRAS   PN         PETR4       010VISTA          000000000046700000000467000000004580000000000000000000462000000081500
0202LOTE PADRAO                   ELETROBRAS  PNB*       ELET6       010VISTA          000000000018100000000186000000001760000000000000000000178000036370600
0202LOTE PADRAO                   PETROBRAS   ON         PETR3       010VISTA          000000000050500000000510000000005020000000000000000000502000000019100
0202LOTE PADRAO                   COMGAS      PNA*       CGAS5       010VISTA          000000000043100000000440000000004310000000000000000000440000000524000
0202LOTE PADRAO                   SOUZA CRUZ  ON EJ      CRUZ3       010VISTA          000000000018500000000186000000001830000000000000000000185000000017500
0202LOTE PADRAO                   ELETROBRAS  ON *       ELET3       010VISTA          000000000017800000000180000000001680000000000000000000168000011193000
0202LOTE PADRAO                   CELESC      PNB        CLSC6       010VISTA          000000000000470000000004800000000046000000000000000000004800000161300
0202LOTE PADRAO                   BRADESCO    PN * EJ    BBDC4       010VISTA          000000000009700000000099000000000950000000000000000000098000269742000
0202LOTE PADRAO                   CESP        PN *       CESP4       010VISTA          000000000006000000000062000000000590000000000000000000059000007833400
0202LOTE PADRAO                   LIGHT       ON *       LIGH3       010VISTA          000000000028100000000288000000002800000000000000000000281000000590400
0202LOTE PADRAO                   TELESP CL PAPN *       TSPP4       010VISTA          000000000003400000000034000000000320000000000000000000032000332450000
0202LOTE PADRAO                   VALE R DOCE PNA        VALE5       010VISTA          000000000096200000000987000000009600000000000000000000962000000017000
0202LOTE PADRAO                   COPEL       PNB*       CPLE6       010VISTA          000000000007710000000080000000000750000000000000000000076000058314400
0202LOTE PADRAO                   VALE R DOCE ON         VALE3       010VISTA          000000000103500000001035000000010050000000000000000001007500000006800
0202LOTE PADRAO                   ARACRUZ     PNB        ARCZ6       010VISTA          000000000006900000000071000000000690000000000000000000071000000034000
0202LOTE PADRAO                   TELEMIG PARTPN *       TMCP4       010VISTA          000000000002400000000024000000000230000000000000000000023000067627600
0202LOTE PADRAO                   BRASIL TELECPN *       BRTO4       010VISTA          000000000009800000000098000000000925000000000000000000094000070506300
0202LOTE PADRAO                   SABESP      ON *       SBSP3       010VISTA          000000000088700000000887000000008370000000000000000000839000005155600
0202LOTE PADRAO                   BRASKEM     PNA*       BRKM5       010VISTA          000000000167000000001680000000015600000000000000000001600000000356900
0202LOTE PADRAO                   EMBRAER     PN EJ      EMBR4       010VISTA          000000000011250000000112500000000960000000000000000000099000000386400
0202LOTE PADRAO                   TELESP      PN * EJ    TLPP4       010VISTA          000000000030000000000304000000002950000000000000000000298000011785000
0202LOTE PADRAO                   EMBRAER     ON EJ      EMBR3       010VISTA          000000000009400000000094000000000850000000000000000000086000000024200
0202LOTE PADRAO                   AMBEV       PN *       AMBV4       010VISTA          000000000475000000004860000000047500000000000000000004845000001367500
0202LOTE PADRAO                   USIMINAS    PNA        USIM5       010VISTA          000000000007500000000075000000000720000000000000000000072000000075000
0202LOTE PADRAO                   ELETROPAULO PN *       ELPL4       010VISTA          000000000022000000000223000000002180000000000000000000218000006030300
0202LOTE PADRAO                   TELE NORD CLPN *       TNEP4       010VISTA          000000000002300000000023000000000230000000000000000000023000052227400
0202LOTE PADRAO                   CEMIG       PN * EJ    CMIG4       010VISTA          000000000024300000000243000000002280000000000000000000231000041915200
0202LOTE PADRAO                   TELE CL SUL PN * EJ    TCSL4       010VISTA          000000000002300000000023000000000227000000000000000000022000083836900
0202LOTE PADRAO                   TRACTEBEL   ON *       TBLE3       010VISTA          000000000003100000000032000000000300000000000000000000031000017100400
0202LOTE PADRAO                   CEMIG       ON * EJ    CMIG3       010VISTA          000000000020100000000202500000001940000000000000000000194000000571800
0202LOTE PADRAO                   TELE CL SUL ON * EJ    TCSL3       010VISTA          000000000001600000000016000000000150000000000000000000016000014615900
0202LOTE PADRAO                   ITAUSA      PN         ITSA4       010VISTA          000000000001800000000018000000000181000000000000000000018100000188900
0202LOTE PADRAO                   V C P       PN *       VCPA4       010VISTA          000000000132100000001340000000013060000000000000000001320000002187000
0202LOTE PADRAO                   SID TUBARAO PN *       CSTB4       010VISTA          000000000043400000000434000000004250000000000000000000427000004200200
0202LOTE PADRAO                   BRADESPAR   PN *       BRAP4       010VISTA          000000000000670000000006700000000062000000000000000000006300203130000
0202LOTE PADRAO                   NET         PN         PLIM4       010VISTA          000000000000300000000003000000000027000000000000000000002700001102500
0202LOTE PADRAO                   TELE CTR OESPN * EJ    TCOC4       010VISTA          000000000004200000000042000000000390000000000000000000039000098342400
0202LOTE PADRAO                   TELEMAR N L PNA* EJ    TMAR5       010VISTA          000000000037400000000375000000003550000000000000000000362000015615700
0202LOTE PADRAO                   GERDAU      PN * EJ    GGBR4       010VISTA          000000000031300000000323000000003110000000000000000000313000028867200
0202LOTE PADRAO                   BRASIL      ON *       BBAS3       010VISTA          000000000009600000000096000000000920000000000000000000092000029782500
