00BDIN9999BOVESPA 99992003050920030509
0101IBOVESPA                      0129500129500132470000000000000000002003050900000020030509013214000000
0202LOTE PADRAO                   EMBRATEL PARPN *       EBTP4       010VISTA          000000000004800000000048000000000460000000000000000000047000614762000
0202LOTE PADRAO                   TRAN PAULISTPN * EJ    TRPL4       010VISTA          000000000006900000000072000000000690000000000000000000072500017485000
0202LOTE PADRAO                   EMBRATEL PARON *       EBTP3       010VISTA          000000000005500000000055000000000530000000000000000000054000067295100
0202LOTE PADRAO                   TELEMAR     PN * EJ    TNLP4       010VISTA          000000000032800000000343000000003280000000000000000000341000626983000
0202LOTE PADRAO                   ITAUBANCO   PN * EJ    ITAU4       010VISTA          000000000197500000001989000000019500000000000000000001971000017806900
0202LOTE PADRAO                   TELEMAR     ON * EJ    TNLP3       010VISTA          000000000023800000000247000000002380000000000000000000246000040080900
0202LOTE PADRAO                   SID NACIONALON *       CSNA3       010VISTA          000000000062000000000620000000005930000000000000000000608000039043800
0202LOTE PADRAO                   TELE LEST CLPN *       TLCP4       010VISTA          000000000000460000000004700000000045000000000000000000004600099740100
0202LOTE PADRAO                   CRT CELULAR PNA* EJ    CRTP5       010VISTA          000000000360000000003680000000035600000000000000000003625000000743600
0202LOTE PADRAO                   IPIRANGA PETPN *       PTIP4       010VISTA          000000000009800000000099000000000950000000000000000000096000013270300
0202LOTE PADRAO                   BRASIL T PARPN *       BRTP4       010VISTA          000000000020800000000216000000002080000000000000000000213000130979000
0202LOTE PADRAO                   BRASIL T PARON *       BRTP3       010VISTA          000000000016000000000165000000001600000000000000000000163000038068600
0202LOTE PADRAO                   KLABIN S/A  PN         KLBN4       010VISTA          000000000002100000000021000000000210000000000000000000021000000032500
0202LOTE PADRAO                   ACESITA     PN *       ACES4       010VISTA          000000000001470000000015000000000140000000000000000000014000278102000
0202LOTE PADRAO                   PETROBRAS   PN         PETR4       010VISTA          000000000051200000000527000000005110000000000000000000524000000143100
0202LOTE PADRAO                   ELETROBRAS  PNB*       ELET6       010VISTA          000000000024800000000268000000002480000000000000000000263000107780000
0202LOTE PADRAO                   PETROBRAS   ON         PETR3       010VISTA          000000000055900000000570000000005500000000000000000000570000000069000
0202LOTE PADRAO                   COMGAS      PNA*       CGAS5       010VISTA          000000000058800000000602000000005810000000000000000000590000001163500
0202LOTE PADRAO                   SOUZA CRUZ  ON EJ      CRUZ3       010VISTA          000000000019300000000201000000001910000000000000000000198000000057000
0202LOTE PADRAO                   ELETROBRAS  ON *       ELET3       010VISTA          000000000023600000000256000000002360000000000000000000253000030788300
0202LOTE PADRAO                   CELESC      PNB        CLSC6       010VISTA          000000000000550000000005500000000053000000000000000000005400000468900
0202LOTE PADRAO                   BRADESCO    PN * EJ    BBDC4       010VISTA          000000000012000000000120000000001150000000000000000000118000564313000
0202LOTE PADRAO                   CESP        PN *       CESP4       010VISTA          000000000008500000000090000000000850000000000000000000090000030563400
0202LOTE PADRAO                   LIGHT       ON *       LIGH3       010VISTA          000000000032000000000329000000003160000000000000000000325000001541400
0202LOTE PADRAO                   TELESP CL PAPN *       TSPP4       010VISTA          000000000004600000000046000000000450000000000000000000045000517133000
0202LOTE PADRAO                   VALE R DOCE PNA        VALE5       010VISTA          000000000078500000000796000000007850000000000000000000792000000055100
0202LOTE PADRAO                   COPEL       PNB*       CPLE6       010VISTA          000000000010100000000108000000001010000000000000000000106000165644000
0202LOTE PADRAO                   VALE R DOCE ON         VALE3       010VISTA          000000000082500000000841000000008200000000000000000000825000000006800
0202LOTE PADRAO                   ARACRUZ     PNB        ARCZ6       010VISTA          000000000005800000000059000000000560000000000000000000058000000088800
0202LOTE PADRAO                   TELEMIG PARTPN *       TMCP4       010VISTA          000000000002700000000028000000000275000000000000000000027000095558600
0202LOTE PADRAO                   BRASIL TELECPN *       BRTO4       010VISTA          000000000013000000000133000000001300000000000000000000133000097855500
0202LOTE PADRAO                   SABESP      ON *       SBSP3       010VISTA          000000000102500000001099000000010250000000000000000001080000018043600
0202LOTE PADRAO                   BRASKEM     PNA*       BRKM5       010VISTA          000000000389900000004099000000038510000000000000000004090000000989700
0202LOTE PADRAO                   EMBRAER     PN EJ      EMBR4       010VISTA          000000000010500000000105000000001010000000000000000000102000000131000
0202LOTE PADRAO                   TELESP      PN * EJ    TLPP4       010VISTA          000000000034200000000342000000003330000000000000000000337000009120600
0202LOTE PADRAO                   EMBRAER     ON EJ      EMBR3       010VISTA          000000000008500000000085000000000840000000000000000000084000000033900
0202LOTE PADRAO                   AMBEV       PN *       AMBV4       010VISTA          000000000607000000006149000000060310000000000000000006130000003064900
0202LOTE PADRAO                   USIMINAS    PNA        USIM5       010VISTA          000000000010900000000110000000001080000000000000000000110000000053200
0202LOTE PADRAO                   ELETROPAULO PN *       ELPL4       010VISTA          000000000029000000000300000000002830000000000000000000295000009263400
0202LOTE PADRAO                   TELE NORD CLPN *       TNEP4       010VISTA          000000000002400000000025000000000240000000000000000000025000261036000
0202LOTE PADRAO                   CEMIG       PN * EJ    CMIG4       010VISTA          000000000032100000000328000000003180000000000000000000328000083519400
0202LOTE PADRAO                   TELE CL SUL PN * EJ    TCSL4       010VISTA          000000000002520000000026000000000252000000000000000000026000184254000
0202LOTE PADRAO                   TRACTEBEL   ON *       TBLE3       010VISTA          000000000005200000000054000000000510000000000000000000051000031169100
0202LOTE PADRAO                   CEMIG       ON * EJ    CMIG3       010VISTA          000000000024300000000249000000002400000000000000000000245000012644200
0202LOTE PADRAO                   TELE CL SUL ON * EJ    TCSL3       010VISTA          000000000002300000000025000000000230000000000000000000024000036105400
0202LOTE PADRAO                   ITAUSA      PN         ITSA4       010VISTA          000000000002300000000024000000000230000000000000000000023000000736600
0202LOTE PADRAO                   V C P       PN *       VCPA4       010VISTA          000000000108900000001090000000010550000000000000000001060000004845100
0202LOTE PADRAO                   SID TUBARAO PN *       CSTB4       010VISTA          000000000050000000000521000000005000000000000000000000505000018844400
0202LOTE PADRAO                   BRADESPAR   PN *       BRAP4       010VISTA          000000000000660000000006600000000065000000000000000000006500238090000
0202LOTE PADRAO                   NET         PN         PLIM4       010VISTA          000000000000380000000003900000000037000000000000000000003800001763900
0202LOTE PADRAO                   TELE CTR OESPN * EJ    TCOC4       010VISTA          000000000005750000000057500000000540000000000000000000055000183998000
0202LOTE PADRAO                   TELEMAR N L PNA* EJ    TMAR5       010VISTA          000000000044000000000450000000004400000000000000000000445000023268500
0202LOTE PADRAO                   GERDAU      PN * EJ    GGBR4       010VISTA          000000000030000000000310000000003000000000000000000000310000000048900
0202LOTE PADRAO                   BRASIL      ON *       BBAS3       010VISTA          000000000013800000000140000000001370000000000000000000138000040117100
