00BDIN9999BOVESPA 99992003070320030703
0101IBOVESPA                      0133080131340133090000000000000000002003070300000020030703013134000000
0202LOTE PADRAO                   EMBRATEL PARPN *       EBTP4       010VISTA          000000000005800000000058000000000560000000000000000000056000184172000
0202LOTE PADRAO                   TRAN PAULISTPN * EJ    TRPL4       010VISTA          000000000006900000000069000000000680000000000000000000069000006112600
0202LOTE PADRAO                   EMBRATEL PARON *       EBTP3       010VISTA          000000000006400000000064000000000620000000000000000000062000031319200
0202LOTE PADRAO                   TELEMAR     PN * EJ    TNLP4       010VISTA          000000000033500000000337500000003300000000000000000000330000157866000
0202LOTE PADRAO                   ITAUBANCO   PN * EJ    ITAU4       010VISTA          000000000193900000001939000000018990000000000000000001899000008959100
0202LOTE PADRAO                   TELEMAR     ON * EJ    TNLP3       010VISTA          000000000024000000000241000000002360000000000000000000240000015038800
0202LOTE PADRAO                   SID NACIONALON *       CSNA3       010VISTA          000000000069500000000695000000006850000000000000000000685000011598100
0202LOTE PADRAO                   TELE LEST CLPN *       TLCP4       010VISTA          000000000000440000000004500000000043000000000000000000004500177499000
0202LOTE PADRAO                   CRT CELULAR PNA* EJ    CRTP5       010VISTA          000000000334000000003400000000033400000000000000000003388000000530000
0202LOTE PADRAO                   IPIRANGA PETPN *       PTIP4       010VISTA          000000000009500000000095000000000930000000000000000000093000002723000
0202LOTE PADRAO                   BRASIL T PARPN *       BRTP4       010VISTA          000000000021100000000213000000002070000000000000000000208000039412800
0202LOTE PADRAO                   BRASIL T PARON *       BRTP3       010VISTA          000000000016000000000161000000001570000000000000000000158000008879900
0202LOTE PADRAO                   KLABIN S/A  PN         KLBN4       010VISTA          000000000002940000000029400000000280000000000000000000028000000171900
0202LOTE PADRAO                   ACESITA     PN *       ACES4       010VISTA          000000000001400000000014800000000140000000000000000000014000235607000
0202LOTE PADRAO                   PETROBRAS   PN         PETR4       010VISTA          000000000051600000000522000000005130000000000000000000517000000046200
0202LOTE PADRAO                   ELETROBRAS  PNB*       ELET6       010VISTA          000000000023800000000239000000002350000000000000000000235000025699100
0202LOTE PADRAO                   PETROBRAS   ON         PETR3       010VISTA          000000000056000000000568000000005600000000000000000000565000000035800
0202LOTE PADRAO                   COMGAS      PNA*       CGAS5       010VISTA          000000000065000000000650000000006350000000000000000000640000000767400
0202LOTE PADRAO                   SOUZA CRUZ  ON EJ      CRUZ3       010VISTA          000000000022500000000229000000002230000000000000000000225000000004000
0202LOTE PADRAO                   ELETROBRAS  ON *       ELET3       010VISTA          000000000020600000000208000000002050000000000000000000205000006062200
0202LOTE PADRAO                   CELESC      PNB        CLSC6       010VISTA          000000000000460000000004700000000046000000000000000000004700000238000
0202LOTE PADRAO                   BRADESCO    PN * EJ    BBDC4       010VISTA          000000000011100000000111000000001090000000000000000000109000069565700
0202LOTE PADRAO                   CESP        PN *       CESP4       010VISTA          000000000007400000000075000000000710000000000000000000072000005300000
0202LOTE PADRAO                   LIGHT       ON *       LIGH3       010VISTA          000000000027300000000273000000002550000000000000000000258000000547100
0202LOTE PADRAO                   TELESP CL PAPN *       TSPP4       010VISTA          000000000004600000000047100000000454000000000000000000045000263699000
0202LOTE PADRAO                   VALE R DOCE PNA        VALE5       010VISTA          000000000079100000000814000000007910000000000000000000809000000017800
0202LOTE PADRAO                   COPEL       PNB*       CPLE6       010VISTA          000000000009000000000091000000000880000000000000000000088000021115600
0202LOTE PADRAO                   VALE R DOCE ON         VALE3       010VISTA          000000000085500000000875000000008550000000000000000000867000000003300
0202LOTE PADRAO                   ARACRUZ     PNB        ARCZ6       010VISTA          000000000006000000000060000000000600000000000000000000060000000033100
0202LOTE PADRAO                   TELEMIG PARTPN *       TMCP4       010VISTA          000000000003000000000030000000000296000000000000000000029000036619600
0202LOTE PADRAO                   BRASIL TELECPN *       BRTO4       010VISTA          000000000012800000000128000000001250000000000000000000127000072427600
0202LOTE PADRAO                   SABESP      ON *       SBSP3       010VISTA          000000000113000000001130000000011000000000000000000001100000003435700
0202LOTE PADRAO                   BRASKEM     PNA*       BRKM5       010VISTA          000000000399900000004136000000039990000000000000000004100000000801900
0202LOTE PADRAO                   EMBRAER     PN EJ      EMBR4       010VISTA          000000000013400000000136000000001320000000000000000000132000000084600
0202LOTE PADRAO                   TELESP      PN * EJ    TLPP4       010VISTA          000000000032600000000326000000003210000000000000000000322500007523800
0202LOTE PADRAO                   EMBRAER     ON EJ      EMBR3       010VISTA          000000000010600000000106000000001030000000000000000000104000000017200
0202LOTE PADRAO                   AMBEV       PN *       AMBV4       010VISTA          000000000590000000005910000000058500000000000000000005910000001395100
0202LOTE PADRAO                   USIMINAS    PNA        USIM5       010VISTA          000000000012900000000132000000001290000000000000000000130000000047600
0202LOTE PADRAO                   ELETROPAULO PN *       ELPL4       010VISTA          000000000025600000000259000000002490000000000000000000258000005427000
0202LOTE PADRAO                   TELE NORD CLPN *       TNEP4       010VISTA          000000000002300000000023000000000230000000000000000000023000050972400
0202LOTE PADRAO                   CEMIG       PN * EJ    CMIG4       010VISTA          000000000027500000000278000000002725000000000000000000275000046072400
0202LOTE PADRAO                   TELE CL SUL PN * EJ    TCSL4       010VISTA          000000000002480000000024000000000240000000000000000000024000084537500
0202LOTE PADRAO                   TRACTEBEL   ON *       TBLE3       010VISTA          000000000007000000000072000000000700000000000000000000072000002600000
0202LOTE PADRAO                   CEMIG       ON * EJ    CMIG3       010VISTA          000000000021500000000215000000002120000000000000000000214000001082000
0202LOTE PADRAO                   TELE CL SUL ON * EJ    TCSL3       010VISTA          000000000002200000000022000000000210000000000000000000021000016141200
0202LOTE PADRAO                   ITAUSA      PN         ITSA4       010VISTA          000000000002200000000023000000000220000000000000000000023000000197700
0202LOTE PADRAO                   V C P       PN *       VCPA4       010VISTA          000000000112400000001159000000011240000000000000000001145000005365100
0202LOTE PADRAO                   SID TUBARAO PN *       CSTB4       010VISTA          000000000052500000000525000000005160000000000000000000518000006429100
0202LOTE PADRAO                   BRADESPAR   PN *       BRAP4       010VISTA          000000000000610000000006200000000061000000000000000000006100092632800
0202LOTE PADRAO                   NET         PN         PLIM4       010VISTA          000000000000290000000002900000000028000000000000000000002800000233900
0202LOTE PADRAO                   TELE CTR OESPN * EJ    TCOC4       010VISTA          000000000005600000000057000000000550000000000000000000055000061464000
0202LOTE PADRAO                   TELEMAR N L PNA* EJ    TMAR5       010VISTA          000000000039900000000399000000003920000000000000000000394000015454000
0202LOTE PADRAO                   GERDAU      PN * EJ    GGBR4       010VISTA          000000000032000000000325000000003160000000000000000000322500000011400
0202LOTE PADRAO                   BRASIL      ON *       BBAS3       010VISTA          000000000013400000000136000000001340000000000000000000136000017161200
