00BDIN9999BOVESPA 99992003060520030605
0101IBOVESPA                      0136900135880139080000000000000000002003060500000020030605013780000000
0202LOTE PADRAO                   EMBRATEL PARPN *       EBTP4       010VISTA          000000000006000000000062000000000590000000000000000000062000488038000
0202LOTE PADRAO                   TRAN PAULISTPN * EJ    TRPL4       010VISTA          000000000007200000000074000000000720000000000000000000073000020616100
0202LOTE PADRAO                   EMBRATEL PARON *       EBTP3       010VISTA          000000000006700000000070000000000660000000000000000000070000070124600
0202LOTE PADRAO                   TELEMAR     PN * EJ    TNLP4       010VISTA          000000000035500000000367000000003520000000000000000000362000454194000
0202LOTE PADRAO                   ITAUBANCO   PN * EJ    ITAU4       010VISTA          000000000200000000002020000000019800000000000000000001995000005110900
0202LOTE PADRAO                   TELEMAR     ON * EJ    TNLP3       010VISTA          000000000025300000000265000000002530000000000000000000261000020697200
0202LOTE PADRAO                   SID NACIONALON *       CSNA3       010VISTA          000000000059000000000620000000005840000000000000000000619000039808000
0202LOTE PADRAO                   TELE LEST CLPN *       TLCP4       010VISTA          000000000000470000000004700000000045000000000000000000004600161744000
0202LOTE PADRAO                   CRT CELULAR PNA* EJ    CRTP5       010VISTA          000000000334800000003400000000033000000000000000000003330000001421700
0202LOTE PADRAO                   IPIRANGA PETPN *       PTIP4       010VISTA          000000000008900000000091000000000880000000000000000000088000004663600
0202LOTE PADRAO                   BRASIL T PARPN *       BRTP4       010VISTA          000000000022600000000234000000002230000000000000000000227500061393800
0202LOTE PADRAO                   BRASIL T PARON *       BRTP3       010VISTA          000000000017100000000175000000001680000000000000000000171000023024500
0202LOTE PADRAO                   KLABIN S/A  PN         KLBN4       010VISTA          000000000002600000000027100000000250000000000000000000026000000372600
0202LOTE PADRAO                   ACESITA     PN *       ACES4       010VISTA          000000000001400000000014700000000140000000000000000000014000148608000
0202LOTE PADRAO                   PETROBRAS   PN         PETR4       010VISTA          000000000053700000000544000000005370000000000000000000538000000130400
0202LOTE PADRAO                   ELETROBRAS  PNB*       ELET6       010VISTA          000000000026400000000272500000002575000000000000000000257500056555600
0202LOTE PADRAO                   PETROBRAS   ON         PETR3       010VISTA          000000000058000000000591000000005800000000000000000000583000000038200
0202LOTE PADRAO                   COMGAS      PNA*       CGAS5       010VISTA          000000000069000000000709000000006800000000000000000000699000002471200
0202LOTE PADRAO                   SOUZA CRUZ  ON EJ      CRUZ3       010VISTA          000000000020700000000213000000002070000000000000000000213000000012800
0202LOTE PADRAO                   ELETROBRAS  ON *       ELET3       010VISTA          000000000024300000000248000000002360000000000000000000236000013032900
0202LOTE PADRAO                   CELESC      PNB        CLSC6       010VISTA          000000000000510000000005200000000051000000000000000000005100000257500
0202LOTE PADRAO                   BRADESCO    PN * EJ    BBDC4       010VISTA          000000000012000000000120000000001180000000000000000000118000157034000
0202LOTE PADRAO                   CESP        PN *       CESP4       010VISTA          000000000008500000000088000000000850000000000000000000086000011045000
0202LOTE PADRAO                   LIGHT       ON *       LIGH3       010VISTA          000000000028600000000304000000002850000000000000000000298000001967400
0202LOTE PADRAO                   TELESP CL PAPN *       TSPP4       010VISTA          000000000004700000000047900000000460000000000000000000046000548930000
0202LOTE PADRAO                   VALE R DOCE PNA        VALE5       010VISTA          000000000081000000000820000000008100000000000000000000814000000021000
0202LOTE PADRAO                   COPEL       PNB*       CPLE6       010VISTA          000000000010000000000105000000001000000000000000000000104000117202000
0202LOTE PADRAO                   VALE R DOCE ON         VALE3       010VISTA          000000000086300000000875000000008630000000000000000000871000000003000
0202LOTE PADRAO                   ARACRUZ     PNB        ARCZ6       010VISTA          000000000005900000000059000000000580000000000000000000059000000058500
0202LOTE PADRAO                   TELEMIG PARTPN *       TMCP4       010VISTA          000000000002800000000029000000000280000000000000000000029000098660300
0202LOTE PADRAO                   BRASIL TELECPN *       BRTO4       010VISTA          000000000013400000000137000000001330000000000000000000136000239973000
0202LOTE PADRAO                   SABESP      ON *       SBSP3       010VISTA          000000000109700000001139000000010900000000000000000001139000006698500
0202LOTE PADRAO                   BRASKEM     PNA*       BRKM5       010VISTA          000000000381000000003879000000037550000000000000000003760000000679800
0202LOTE PADRAO                   EMBRAER     PN EJ      EMBR4       010VISTA          000000000011400000000118000000001120000000000000000000116000000239000
0202LOTE PADRAO                   TELESP      PN * EJ    TLPP4       010VISTA          000000000031500000000325000000003100000000000000000000315000017072100
0202LOTE PADRAO                   EMBRAER     ON EJ      EMBR3       010VISTA          000000000009400000000099000000000940000000000000000000098000000034200
0202LOTE PADRAO                   AMBEV       PN *       AMBV4       010VISTA          000000000599000000006010000000058600000000000000000005900000001837300
0202LOTE PADRAO                   USIMINAS    PNA        USIM5       010VISTA          000000000011300000000115000000001110000000000000000000114000000081200
0202LOTE PADRAO                   ELETROPAULO PN *       ELPL4       010VISTA          000000000027500000000285000000002700000000000000000000283000013882600
0202LOTE PADRAO                   TELE NORD CLPN *       TNEP4       010VISTA          000000000002500000000026000000000254000000000000000000025600082993200
0202LOTE PADRAO                   CEMIG       PN * EJ    CMIG4       010VISTA          000000000030100000000305000000002990000000000000000000304000072869100
0202LOTE PADRAO                   TELE CL SUL PN * EJ    TCSL4       010VISTA          000000000002750000000027500000000260000000000000000000026000082854100
0202LOTE PADRAO                   TRACTEBEL   ON *       TBLE3       010VISTA          000000000005600000000059000000000550000000000000000000057000022591200
0202LOTE PADRAO                   CEMIG       ON * EJ    CMIG3       010VISTA          000000000023500000000246000000002350000000000000000000244000000420300
0202LOTE PADRAO                   TELE CL SUL ON * EJ    TCSL3       010VISTA          000000000002400000000024000000000230000000000000000000023000057268900
0202LOTE PADRAO                   ITAUSA      PN         ITSA4       010VISTA          000000000002400000000024000000000240000000000000000000024000000167700
0202LOTE PADRAO                   V C P       PN *       VCPA4       010VISTA          000000000110000000001129000000011000000000000000000001115000001933800
0202LOTE PADRAO                   SID TUBARAO PN *       CSTB4       010VISTA          000000000048500000000503000000004850000000000000000000500000009023900
0202LOTE PADRAO                   BRADESPAR   PN *       BRAP4       010VISTA          000000000000660000000006800000000066000000000000000000006700176712000
0202LOTE PADRAO                   NET         PN         PLIM4       010VISTA          000000000000380000000003800000000036000000000000000000003700001601100
0202LOTE PADRAO                   TELE CTR OESPN * EJ    TCOC4       010VISTA          000000000005600000000057500000000550000000000000000000055000211908000
0202LOTE PADRAO                   TELEMAR N L PNA* EJ    TMAR5       010VISTA          000000000044800000000471000000004460000000000000000000468000047137200
0202LOTE PADRAO                   GERDAU      PN * EJ    GGBR4       010VISTA          000000000029800000000306000000002980000000000000000000301000000031200
0202LOTE PADRAO                   BRASIL      ON *       BBAS3       010VISTA          000000000015600000000161000000001510000000000000000000152000052677200
