00BDIN9999BOVESPA 99992003081920030819
0101IBOVESPA                      0141470140910142360000000000000000002003081900000020030819014158000000
0202LOTE PADRAO                   EMBRATEL PARPN *       EBTP4       010VISTA          000000000005800000000058000000000570000000000000000000057000330285000
0202LOTE PADRAO                   TRAN PAULISTPN * EJ    TRPL4       010VISTA          000000000008600000000087500000000830000000000000000000083000023929200
0202LOTE PADRAO                   EMBRATEL PARON *       EBTP3       010VISTA          000000000006100000000062000000000600000000000000000000060000073993100
0202LOTE PADRAO                   TELEMAR     PN * EJ    TNLP4       010VISTA          000000000034600000000353000000003460000000000000000000352500524920000
0202LOTE PADRAO                   ITAUBANCO   PN * EJ    ITAU4       010VISTA          000000000211000000002110000000020900000000000000000002105000018323700
0202LOTE PADRAO                   TELEMAR     ON * EJ    TNLP3       010VISTA          000000000025100000000255000000002500000000000000000000255000020731100
0202LOTE PADRAO                   SID NACIONALON *       CSNA3       010VISTA          000000000088000000000889000000008660000000000000000000867000011111700
0202LOTE PADRAO                   TELE LEST CLPN *       TLCP4       010VISTA          000000000000450000000004500000000044000000000000000000004400150994000
0202LOTE PADRAO                   CRT CELULAR PNA* EJ    CRTP5       010VISTA          000000000389500000004000000000038900000000000000000003995000000388700
0202LOTE PADRAO                   IPIRANGA PETPN *       PTIP4       010VISTA          000000000010200000000104000000001020000000000000000000104000004076200
0202LOTE PADRAO                   BRASIL T PARPN *       BRTP4       010VISTA          000000000021000000000213000000002060000000000000000000208000063393600
0202LOTE PADRAO                   BRASIL T PARON *       BRTP3       010VISTA          000000000016100000000161000000001560000000000000000000159000017314700
0202LOTE PADRAO                   KLABIN S/A  PN         KLBN4       010VISTA          000000000002960000000031000000000296000000000000000000030000000153800
0202LOTE PADRAO                   ACESITA     PN *       ACES4       010VISTA          000000000001300000000013000000000130000000000000000000013000133066000
0202LOTE PADRAO                   PETROBRAS   PN         PETR4       010VISTA          000000000059250000000593000000005720000000000000000000576000000160400
0202LOTE PADRAO                   ELETROBRAS  PNB*       ELET6       010VISTA          000000000023600000000236000000002260000000000000000000230000101846000
0202LOTE PADRAO                   PETROBRAS   ON         PETR3       010VISTA          000000000063500000000635000000006150000000000000000000617500000051400
0202LOTE PADRAO                   COMGAS      PNA*       CGAS5       010VISTA          000000000074200000000759000000007400000000000000000000757000001575700
0202LOTE PADRAO                   SOUZA CRUZ  ON EJ      CRUZ3       010VISTA          000000000023500000000238000000002330000000000000000000236000000004400
0202LOTE PADRAO                   ELETROBRAS  ON *       ELET3       010VISTA          000000000020500000000208000000001980000000000000000000206000041546100
0202LOTE PADRAO                   CELESC      PNB        CLSC6       010VISTA          000000000000440000000004600000000044000000000000000000004500000964400
0202LOTE PADRAO                   BRADESCO    PN * EJ    BBDC4       010VISTA          000000000012000000000120000000001190000000000000000000119000226045000
0202LOTE PADRAO                   CESP        PN *       CESP4       010VISTA          000000000007300000000073000000000710000000000000000000072500010165500
0202LOTE PADRAO                   LIGHT       ON *       LIGH3       010VISTA          000000000026400000000268000000002590000000000000000000268000001188500
0202LOTE PADRAO                   TELESP CL PAPN *       TSPP4       010VISTA          000000000004300000000044000000000420000000000000000000044000286991000
0202LOTE PADRAO                   VALE R DOCE PNA        VALE5       010VISTA          000000000102500000001040000000010100000000000000000001040000000038900
0202LOTE PADRAO                   COPEL       PNB*       CPLE6       010VISTA          000000000009200000000093000000000900000000000000000000090000466303000
0202LOTE PADRAO                   VALE R DOCE ON         VALE3       010VISTA          000000000111700000001135000000011150000000000000000001132000000016500
0202LOTE PADRAO                   ARACRUZ     PNB        ARCZ6       010VISTA          000000000007750000000077000000000770000000000000000000077000000077500
0202LOTE PADRAO                   TELEMIG PARTPN *       TMCP4       010VISTA          000000000003100000000031000000000300000000000000000000030000107936000
0202LOTE PADRAO                   BRASIL TELECPN *       BRTO4       010VISTA          000000000012400000000126000000001240000000000000000000126000089567900
0202LOTE PADRAO                   SABESP      ON *       SBSP3       010VISTA          000000000111200000001129000000010825000000000000000001090000004791200
0202LOTE PADRAO                   BRASKEM     PNA*       BRKM5       010VISTA          000000000503000000005030000000049200000000000000000004960000000183300
0202LOTE PADRAO                   EMBRAER     PN EJ      EMBR4       010VISTA          000000000013400000000135000000001310000000000000000000132000000049900
0202LOTE PADRAO                   TELESP      PN * EJ    TLPP4       010VISTA          000000000030500000000306000000003010000000000000000000302500017562300
0202LOTE PADRAO                   EMBRAER     ON EJ      EMBR3       010VISTA          000000000010500000000107500000001040000000000000000000107500000022300
0202LOTE PADRAO                   AMBEV       PN *       AMBV4       010VISTA          000000000593900000005990000000058600000000000000000005940000000895400
0202LOTE PADRAO                   USIMINAS    PNA        USIM5       010VISTA          000000000016700000000168000000001630000000000000000000168000000098300
0202LOTE PADRAO                   ELETROPAULO PN *       ELPL4       010VISTA          000000000022300000000229000000002230000000000000000000227000012733100
0202LOTE PADRAO                   TELE NORD CLPN *       TNEP4       010VISTA          000000000002400000000024000000000240000000000000000000024000092130600
0202LOTE PADRAO                   CEMIG       PN * EJ    CMIG4       010VISTA          000000000028500000000288000000002830000000000000000000286000060634200
0202LOTE PADRAO                   TELE CL SUL PN * EJ    TCSL4       010VISTA          000000000002300000000023000000000230000000000000000000023000147289000
0202LOTE PADRAO                   TRACTEBEL   ON *       TBLE3       010VISTA          000000000007900000000079000000000780000000000000000000079000002369900
0202LOTE PADRAO                   CEMIG       ON * EJ    CMIG3       010VISTA          000000000022000000000229000000002180000000000000000000223000000949600
0202LOTE PADRAO                   TELE CL SUL ON * EJ    TCSL3       010VISTA          000000000002100000000021000000000200000000000000000000021000026150000
0202LOTE PADRAO                   ITAUSA      PN         ITSA4       010VISTA          000000000002500000000026000000000250000000000000000000025000000266100
0202LOTE PADRAO                   V C P       PN *       VCPA4       010VISTA          000000000144900000001450000000014450000000000000000001449000001112400
0202LOTE PADRAO                   SID TUBARAO PN *       CSTB4       010VISTA          000000000054250000000550000000005425000000000000000000549000006606500
0202LOTE PADRAO                   BRADESPAR   PN *       BRAP4       010VISTA          000000000000740000000007400000000072000000000000000000007300184318000
0202LOTE PADRAO                   NET         PN         PLIM4       010VISTA          000000000000330000000003500000000033000000000000000000003400000612800
0202LOTE PADRAO                   TELE CTR OESPN * EJ    TCOC4       010VISTA          000000000005400000000056000000000540000000000000000000055000091802300
0202LOTE PADRAO                   TELEMAR N L PNA* EJ    TMAR5       010VISTA          000000000041500000000419000000004110000000000000000000417000015063200
0202LOTE PADRAO                   GERDAU      PN * EJ    GGBR4       010VISTA          000000000039200000000396000000003880000000000000000000395000000032600
0202LOTE PADRAO                   BRASIL      ON *       BBAS3       010VISTA          000000000015400000000156000000001530000000000000000000154000023806000
