00BDIN9999BOVESPA 99992003032620030326
0101IBOVESPA                      0112480111860112960000000000000000002003032600000020030326011206000000
0202LOTE PADRAO                   EMBRATEL PARPN *       EBTP4       010VISTA          000000000003400000000034000000000330000000000000000000033000206365000
0202LOTE PADRAO                   TRAN PAULISTPN * EJ    TRPL4       010VISTA          000000000005800000000059000000000580000000000000000000059000021443900
0202LOTE PADRAO                   EMBRATEL PARON *       EBTP3       010VISTA          000000000003960000000039000000000380000000000000000000038000029949300
0202LOTE PADRAO                   TELEMAR     PN * EJ    TNLP4       010VISTA          000000000027200000000275000000002710000000000000000000274000182306000
0202LOTE PADRAO                   ITAUBANCO   PN * EJ    ITAU4       010VISTA          000000000181500000001856000000018025000000000000000001830000005806200
0202LOTE PADRAO                   TELEMAR     ON * EJ    TNLP3       010VISTA          000000000019500000000196000000001950000000000000000000195000025060100
0202LOTE PADRAO                   SID NACIONALON *       CSNA3       010VISTA          000000000065900000000672000000006410000000000000000000649000026178300
0202LOTE PADRAO                   TELE LEST CLPN *       TLCP4       010VISTA          000000000000420000000004200000000041000000000000000000004100208909000
0202LOTE PADRAO                   CRT CELULAR PNA* EJ    CRTP5       010VISTA          000000000338000000003380000000032150000000000000000003220000000665900
0202LOTE PADRAO                   IPIRANGA PETPN *       PTIP4       010VISTA          000000000007000000000070000000000700000000000000000000070000002141000
0202LOTE PADRAO                   BRASIL T PARPN *       BRTP4       010VISTA          000000000019500000000195000000001910000000000000000000191000048949900
0202LOTE PADRAO                   BRASIL T PARON *       BRTP3       010VISTA          000000000014600000000146000000001410000000000000000000145000011545600
0202LOTE PADRAO                   KLABIN S/A  PN         KLBN4       010VISTA          000000000001600000000016000000000160000000000000000000016000000047100
0202LOTE PADRAO                   ACESITA     PN *       ACES4       010VISTA          000000000001100000000011000000000110000000000000000000011000184399000
0202LOTE PADRAO                   PETROBRAS   PN         PETR4       010VISTA          000000000048000000000481000000004725000000000000000000472000000092100
0202LOTE PADRAO                   ELETROBRAS  PNB*       ELET6       010VISTA          000000000020800000000210000000002040000000000000000000204000052515300
0202LOTE PADRAO                   PETROBRAS   ON         PETR3       010VISTA          000000000053000000000530000000005170000000000000000000517000000023900
0202LOTE PADRAO                   COMGAS      PNA*       CGAS5       010VISTA          000000000048500000000510000000004850000000000000000000507000005473000
0202LOTE PADRAO                   SOUZA CRUZ  ON EJ      CRUZ3       010VISTA          000000000018700000000193000000001860000000000000000000193000000019300
0202LOTE PADRAO                   ELETROBRAS  ON *       ELET3       010VISTA          000000000018100000000184000000001800000000000000000000183000006443700
0202LOTE PADRAO                   CELESC      PNB        CLSC6       010VISTA          000000000000450000000004600000000044000000000000000000004600000228100
0202LOTE PADRAO                   BRADESCO    PN * EJ    BBDC4       010VISTA          000000000011500000000119000000001150000000000000000000118000152306000
0202LOTE PADRAO                   CESP        PN *       CESP4       010VISTA          000000000006000000000060000000000580000000000000000000058000005234300
0202LOTE PADRAO                   LIGHT       ON *       LIGH3       010VISTA          000000000026000000000264000000002540000000000000000000255000000713100
0202LOTE PADRAO                   TELESP CL PAPN *       TSPP4       010VISTA          000000000004400000000044000000000420000000000000000000042000521036000
0202LOTE PADRAO                   VALE R DOCE PNA        VALE5       010VISTA          000000000087500000000885000000008750000000000000000000883000000021000
0202LOTE PADRAO                   COPEL       PNB*       CPLE6       010VISTA          000000000008300000000084000000000830000000000000000000083000026861000
0202LOTE PADRAO                   VALE R DOCE ON         VALE3       010VISTA          000000000093000000000930000000009200000000000000000000920000000004300
0202LOTE PADRAO                   ARACRUZ     PNB        ARCZ6       010VISTA          000000000006750000000068000000000650000000000000000000067000000029900
0202LOTE PADRAO                   TELEMIG PARTPN *       TMCP4       010VISTA          000000000002800000000028000000000277000000000000000000028000083353300
0202LOTE PADRAO                   BRASIL TELECPN *       BRTO4       010VISTA          000000000011400000000114000000001100000000000000000000110000237615000
0202LOTE PADRAO                   SABESP      ON *       SBSP3       010VISTA          000000000081500000000815000000008000000000000000000000810000007356300
0202LOTE PADRAO                   BRASKEM     PNA*       BRKM5       010VISTA          000000000200250000002110000000020025000000000000000002070000000738100
0202LOTE PADRAO                   EMBRAER     PN EJ      EMBR4       010VISTA          000000000009100000000093000000000900000000000000000000092500000057000
0202LOTE PADRAO                   TELESP      PN * EJ    TLPP4       010VISTA          000000000031900000000319000000003110000000000000000000312500047102600
0202LOTE PADRAO                   EMBRAER     ON EJ      EMBR3       010VISTA          000000000007600000000077000000000750000000000000000000076000000028400
0202LOTE PADRAO                   AMBEV       PN *       AMBV4       010VISTA          000000000556000000005560000000054550000000000000000005500000001130600
0202LOTE PADRAO                   USIMINAS    PNA        USIM5       010VISTA          000000000007800000000078000000000771000000000000000000078000000038100
0202LOTE PADRAO                   ELETROPAULO PN *       ELPL4       010VISTA          000000000022300000000226000000002160000000000000000000218000005938600
0202LOTE PADRAO                   TELE NORD CLPN *       TNEP4       010VISTA          000000000002400000000024000000000230000000000000000000023000073093000
0202LOTE PADRAO                   CEMIG       PN * EJ    CMIG4       010VISTA          000000000025600000000256000000002490000000000000000000251000030719700
0202LOTE PADRAO                   TELE CL SUL PN * EJ    TCSL4       010VISTA          000000000002300000000023000000000220000000000000000000023000103480000
0202LOTE PADRAO                   TRACTEBEL   ON *       TBLE3       010VISTA          000000000003960000000042000000000396000000000000000000042000117042000
0202LOTE PADRAO                   CEMIG       ON * EJ    CMIG3       010VISTA          000000000020000000000203000000002000000000000000000000201000000350300
0202LOTE PADRAO                   TELE CL SUL ON * EJ    TCSL3       010VISTA          000000000002000000000020000000000199000000000000000000020000069533400
0202LOTE PADRAO                   ITAUSA      PN         ITSA4       010VISTA          000000000002100000000021000000000200000000000000000000021000000253200
0202LOTE PADRAO                   V C P       PN *       VCPA4       010VISTA          000000000125500000001300000000012480000000000000000001298000001354200
0202LOTE PADRAO                   SID TUBARAO PN *       CSTB4       010VISTA          000000000042500000000445000000004250000000000000000000443000007474700
0202LOTE PADRAO                   BRADESPAR   PN *       BRAP4       010VISTA          000000000000640000000006400000000063000000000000000000006300066213000
0202LOTE PADRAO                   NET         PN         PLIM4       010VISTA          000000000000290000000002900000000028000000000000000000002800000617000
0202LOTE PADRAO                   TELE CTR OESPN * EJ    TCOC4       010VISTA          000000000005400000000055400000000530000000000000000000054000050840500
0202LOTE PADRAO                   TELEMAR N L PNA* EJ    TMAR5       010VISTA          000000000037200000000375000000003660000000000000000000370000029443300
0202LOTE PADRAO                   GERDAU      PN * EJ    GGBR4       010VISTA          000000000030500000000311000000003030000000000000000000305000022451800
0202LOTE PADRAO                   BRASIL      ON *       BBAS3       010VISTA          000000000010400000000108000000001040000000000000000000107500061024300
