00BDIN9999BOVESPA 99992003051220030512
0101IBOVESPA                      0132060130960133450000000000000000002003051200000020030512013320000000
0202LOTE PADRAO                   EMBRATEL PARPN *       EBTP4       010VISTA          000000000004600000000047900000000460000000000000000000047100294228000
0202LOTE PADRAO                   TRAN PAULISTPN * EJ    TRPL4       010VISTA          000000000007100000000075000000000710000000000000000000075000011317000
0202LOTE PADRAO                   EMBRATEL PARON *       EBTP3       010VISTA          000000000005300000000055000000000530000000000000000000054000025173000
0202LOTE PADRAO                   TELEMAR     PN * EJ    TNLP4       010VISTA          000000000034000000000346000000003370000000000000000000344000253534000
0202LOTE PADRAO                   ITAUBANCO   PN * EJ    ITAU4       010VISTA          000000000195500000002007500000019430000000000000000002000000015085700
0202LOTE PADRAO                   TELEMAR     ON * EJ    TNLP3       010VISTA          000000000024500000000251000000002420000000000000000000249000034150900
0202LOTE PADRAO                   SID NACIONALON *       CSNA3       010VISTA          000000000060800000000608000000005910000000000000000000595000032489800
0202LOTE PADRAO                   TELE LEST CLPN *       TLCP4       010VISTA          000000000000460000000004700000000045000000000000000000004700131094000
0202LOTE PADRAO                   CRT CELULAR PNA* EJ    CRTP5       010VISTA          000000000358000000003580000000034900000000000000000003570000001343300
0202LOTE PADRAO                   IPIRANGA PETPN *       PTIP4       010VISTA          000000000009500000000096000000000950000000000000000000096000012224000
0202LOTE PADRAO                   BRASIL T PARPN *       BRTP4       010VISTA          000000000021300000000219000000002100000000000000000000218000036680200
0202LOTE PADRAO                   BRASIL T PARON *       BRTP3       010VISTA          000000000016100000000168000000001600000000000000000000166000011116200
0202LOTE PADRAO                   KLABIN S/A  PN         KLBN4       010VISTA          000000000002100000000021000000000210000000000000000000021000000014500
0202LOTE PADRAO                   ACESITA     PN *       ACES4       010VISTA          000000000001470000000015000000000140000000000000000000014700291125000
0202LOTE PADRAO                   PETROBRAS   PN         PETR4       010VISTA          000000000052500000000535000000005220000000000000000000535000000109200
0202LOTE PADRAO                   ELETROBRAS  PNB*       ELET6       010VISTA          000000000026100000000263000000002525000000000000000000253000088304100
0202LOTE PADRAO                   PETROBRAS   ON         PETR3       010VISTA          000000000057000000000579000000005600000000000000000000579000000020800
0202LOTE PADRAO                   COMGAS      PNA*       CGAS5       010VISTA          000000000058500000000595000000005850000000000000000000588000001045000
0202LOTE PADRAO                   SOUZA CRUZ  ON EJ      CRUZ3       010VISTA          000000000019600000000200000000001960000000000000000000199000000004900
0202LOTE PADRAO                   ELETROBRAS  ON *       ELET3       010VISTA          000000000025300000000253000000002400000000000000000000242000011607100
0202LOTE PADRAO                   CELESC      PNB        CLSC6       010VISTA          000000000000530000000005400000000051000000000000000000005200000403500
0202LOTE PADRAO                   BRADESCO    PN * EJ    BBDC4       010VISTA          000000000011800000000121000000001160000000000000000000120000298815000
0202LOTE PADRAO                   CESP        PN *       CESP4       010VISTA          000000000009000000000091000000000880000000000000000000091000018122300
0202LOTE PADRAO                   LIGHT       ON *       LIGH3       010VISTA          000000000032300000000329000000003130000000000000000000326000001150100
0202LOTE PADRAO                   TELESP CL PAPN *       TSPP4       010VISTA          000000000004500000000046000000000450000000000000000000046000304417000
0202LOTE PADRAO                   VALE R DOCE PNA        VALE5       010VISTA          000000000079900000000805000000007950000000000000000000796000000037000
0202LOTE PADRAO                   COPEL       PNB*       CPLE6       010VISTA          000000000010500000000109000000001040000000000000000000106000084901100
0202LOTE PADRAO                   VALE R DOCE ON         VALE3       010VISTA          000000000083000000000849000000008300000000000000000000847000000003000
0202LOTE PADRAO                   ARACRUZ     PNB        ARCZ6       010VISTA          000000000005800000000058000000000550000000000000000000056000000044900
0202LOTE PADRAO                   TELEMIG PARTPN *       TMCP4       010VISTA          000000000002700000000028000000000275000000000000000000028100077024900
0202LOTE PADRAO                   BRASIL TELECPN *       BRTO4       010VISTA          000000000013000000000135000000001300000000000000000000135000069261800
0202LOTE PADRAO                   SABESP      ON *       SBSP3       010VISTA          000000000108000000001080000000010550000000000000000001069000003974200
0202LOTE PADRAO                   BRASKEM     PNA*       BRKM5       010VISTA          000000000409000000004150000000039010000000000000000004150000000805100
0202LOTE PADRAO                   EMBRAER     PN EJ      EMBR4       010VISTA          000000000010750000000108000000001050000000000000000000107000000213400
0202LOTE PADRAO                   TELESP      PN * EJ    TLPP4       010VISTA          000000000033800000000340000000003260000000000000000000326000025085800
0202LOTE PADRAO                   EMBRAER     ON EJ      EMBR3       010VISTA          000000000008400000000089000000000840000000000000000000089000000060200
0202LOTE PADRAO                   AMBEV       PN *       AMBV4       010VISTA          000000000613000000006162000000059700000000000000000006010000003044300
0202LOTE PADRAO                   USIMINAS    PNA        USIM5       010VISTA          000000000011000000000110000000001060000000000000000000108000000030900
0202LOTE PADRAO                   ELETROPAULO PN *       ELPL4       010VISTA          000000000029100000000320000000002880000000000000000000320000007753900
0202LOTE PADRAO                   TELE NORD CLPN *       TNEP4       010VISTA          000000000002520000000026000000000240000000000000000000026000121242000
0202LOTE PADRAO                   CEMIG       PN * EJ    CMIG4       010VISTA          000000000032600000000330000000003220000000000000000000323000038597300
0202LOTE PADRAO                   TELE CL SUL PN * EJ    TCSL4       010VISTA          000000000002500000000027100000000254000000000000000000027000128336000
0202LOTE PADRAO                   TRACTEBEL   ON *       TBLE3       010VISTA          000000000005100000000051000000000500000000000000000000050000056274700
0202LOTE PADRAO                   CEMIG       ON * EJ    CMIG3       010VISTA          000000000024100000000248000000002410000000000000000000248000002606900
0202LOTE PADRAO                   TELE CL SUL ON * EJ    TCSL3       010VISTA          000000000002400000000025000000000240000000000000000000024000028344300
0202LOTE PADRAO                   ITAUSA      PN         ITSA4       010VISTA          000000000002300000000024000000000230000000000000000000024000000406100
0202LOTE PADRAO                   V C P       PN *       VCPA4       010VISTA          000000000106500000001079000000010420000000000000000001067000002279200
0202LOTE PADRAO                   SID TUBARAO PN *       CSTB4       010VISTA          000000000050500000000505000000004820000000000000000000487000023861100
0202LOTE PADRAO                   BRADESPAR   PN *       BRAP4       010VISTA          000000000000650000000006800000000065000000000000000000006700370948000
0202LOTE PADRAO                   NET         PN         PLIM4       010VISTA          000000000000370000000003900000000037000000000000000000003900000813100
0202LOTE PADRAO                   TELE CTR OESPN * EJ    TCOC4       010VISTA          000000000005500000000055000000000540000000000000000000055000088959800
0202LOTE PADRAO                   TELEMAR N L PNA* EJ    TMAR5       010VISTA          000000000044400000000453000000004400000000000000000000452000018451700
0202LOTE PADRAO                   GERDAU      PN * EJ    GGBR4       010VISTA          000000000030800000000315000000003050000000000000000000313000000026000
0202LOTE PADRAO                   BRASIL      ON *       BBAS3       010VISTA          000000000013900000000146000000001380000000000000000000144000038860200
