00BDIN9999BOVESPA 99992003022720030227
0101IBOVESPA                      0100060099980101460000000000000000002003022700000020030227010126000000
0202LOTE PADRAO                   EMBRATEL PARPN *       EBTP4       010VISTA          000000000003500000000035000000000340000000000000000000035600387953000
0202LOTE PADRAO                   TRAN PAULISTPN * EJ    TRPL4       010VISTA          000000000005200000000054000000000520000000000000000000053000002792100
0202LOTE PADRAO                   EMBRATEL PARON *       EBTP3       010VISTA          000000000003900000000041000000000390000000000000000000041000029257600
0202LOTE PADRAO                   TELEMAR     PN * EJ    TNLP4       010VISTA          000000000023100000000233000000002280000000000000000000231000278198000
0202LOTE PADRAO                   ITAUBANCO   PN * EJ    ITAU4       010VISTA          000000000150000000001525000000014810000000000000000001520000007167900
0202LOTE PADRAO                   TELEMAR     ON * EJ    TNLP3       010VISTA          000000000016600000000168000000001630000000000000000000168000010047900
0202LOTE PADRAO                   SID NACIONALON *       CSNA3       010VISTA          000000000062300000000635000000006230000000000000000000632000025610900
0202LOTE PADRAO                   TELE LEST CLPN *       TLCP4       010VISTA          000000000000380000000003900000000037000000000000000000003900071196300
0202LOTE PADRAO                   CRT CELULAR PNA* EJ    CRTP5       010VISTA          000000000300000000003041000000029600000000000000000003041000000233300
0202LOTE PADRAO                   IPIRANGA PETPN *       PTIP4       010VISTA          000000000006700000000070000000000675000000000000000000070000001481000
0202LOTE PADRAO                   BRASIL T PARPN *       BRTP4       010VISTA          000000000017500000000176000000001730000000000000000000175000036902700
0202LOTE PADRAO                   BRASIL T PARON *       BRTP3       010VISTA          000000000013300000000139000000001310000000000000000000138000001855400
0202LOTE PADRAO                   KLABIN S/A  PN         KLBN4       010VISTA          000000000001300000000014000000000130000000000000000000014000000075500
0202LOTE PADRAO                   ACESITA     PN *       ACES4       010VISTA          000000000001100000000011000000000110000000000000000000011000203061000
0202LOTE PADRAO                   PETROBRAS   PN         PETR4       010VISTA          000000000042000000000421000000004090000000000000000000418000000121300
0202LOTE PADRAO                   ELETROBRAS  PNB*       ELET6       010VISTA          000000000017000000000173000000001680000000000000000000173000040087800
0202LOTE PADRAO                   PETROBRAS   ON         PETR3       010VISTA          000000000046300000000466000000004560000000000000000000462000000021800
0202LOTE PADRAO                   COMGAS      PNA*       CGAS5       010VISTA          000000000043200000000432000000004200000000000000000000421000000649000
0202LOTE PADRAO                   SOUZA CRUZ  ON EJ      CRUZ3       010VISTA          000000000019300000000199000000001930000000000000000000199000000014500
0202LOTE PADRAO                   ELETROBRAS  ON *       ELET3       010VISTA          000000000016000000000166000000001600000000000000000000162500006704000
0202LOTE PADRAO                   CELESC      PNB        CLSC6       010VISTA          000000000000460000000004700000000046000000000000000000004700000080400
0202LOTE PADRAO                   BRADESCO    PN * EJ    BBDC4       010VISTA          000000000009700000000099000000000960000000000000000000099000104679000
0202LOTE PADRAO                   CESP        PN *       CESP4       010VISTA          000000000005700000000058000000000560000000000000000000058000009536400
0202LOTE PADRAO                   LIGHT       ON *       LIGH3       010VISTA          000000000027100000000295000000002700000000000000000000290000000213000
0202LOTE PADRAO                   TELESP CL PAPN *       TSPP4       010VISTA          000000000003200000000034000000000327000000000000000000034000285109000
0202LOTE PADRAO                   VALE R DOCE PNA        VALE5       010VISTA          000000000100000000001000000000009570000000000000000000957000000028800
0202LOTE PADRAO                   COPEL       PNB*       CPLE6       010VISTA          000000000007600000000078000000000750000000000000000000077000071251400
0202LOTE PADRAO                   VALE R DOCE ON         VALE3       010VISTA          000000000102000000001020000000010000000000000000000001010000000008300
0202LOTE PADRAO                   ARACRUZ     PNB        ARCZ6       010VISTA          000000000006750000000068000000000675000000000000000000068000000016500
0202LOTE PADRAO                   TELEMIG PARTPN *       TMCP4       010VISTA          000000000002400000000025000000000240000000000000000000024800085908200
0202LOTE PADRAO                   BRASIL TELECPN *       BRTO4       010VISTA          000000000010400000000106000000001030000000000000000000105000053580900
0202LOTE PADRAO                   SABESP      ON *       SBSP3       010VISTA          000000000075000000000760000000007460000000000000000000757000001545800
0202LOTE PADRAO                   BRASKEM     PNA*       BRKM5       010VISTA          000000000165900000001660000000016200000000000000000001650000000039300
0202LOTE PADRAO                   EMBRAER     PN EJ      EMBR4       010VISTA          000000000008100000000086000000000800000000000000000000085000000124500
0202LOTE PADRAO                   TELESP      PN * EJ    TLPP4       010VISTA          000000000032300000000336000000003220000000000000000000336000015528800
0202LOTE PADRAO                   EMBRAER     ON EJ      EMBR3       010VISTA          000000000007250000000074000000000710000000000000000000072000000016000
0202LOTE PADRAO                   AMBEV       PN *       AMBV4       010VISTA          000000000502000000005040000000049600000000000000000005020000001547700
0202LOTE PADRAO                   USIMINAS    PNA        USIM5       010VISTA          000000000007700000000077000000000750000000000000000000075000000063500
0202LOTE PADRAO                   ELETROPAULO PN *       ELPL4       010VISTA          000000000024500000000245000000002350000000000000000000235000004707300
0202LOTE PADRAO                   TELE NORD CLPN *       TNEP4       010VISTA          000000000002300000000023000000000220000000000000000000022000051019100
0202LOTE PADRAO                   CEMIG       PN * EJ    CMIG4       010VISTA          000000000022000000000225000000002130000000000000000000225000039133800
0202LOTE PADRAO                   TELE CL SUL PN * EJ    TCSL4       010VISTA          000000000002000000000021000000000200000000000000000000021000138344000
0202LOTE PADRAO                   TRACTEBEL   ON *       TBLE3       010VISTA          000000000002900000000031000000000280000000000000000000031000017348600
0202LOTE PADRAO                   CEMIG       ON * EJ    CMIG3       010VISTA          000000000018000000000190000000001800000000000000000000190000000710500
0202LOTE PADRAO                   TELE CL SUL ON * EJ    TCSL3       010VISTA          000000000001500000000016000000000155000000000000000000016000030956000
0202LOTE PADRAO                   ITAUSA      PN         ITSA4       010VISTA          000000000001810000000018000000000179000000000000000000017900000110900
0202LOTE PADRAO                   V C P       PN *       VCPA4       010VISTA          000000000128000000001329000000012800000000000000000001329000000843400
0202LOTE PADRAO                   SID TUBARAO PN *       CSTB4       010VISTA          000000000044250000000458000000004425000000000000000000458000005011900
0202LOTE PADRAO                   BRADESPAR   PN *       BRAP4       010VISTA          000000000000660000000006700000000064000000000000000000006500096914200
0202LOTE PADRAO                   NET         PN         PLIM4       010VISTA          000000000000280000000003000000000028000000000000000000002900000964200
0202LOTE PADRAO                   TELE CTR OESPN * EJ    TCOC4       010VISTA          000000000004100000000042000000000410000000000000000000042000031370900
0202LOTE PADRAO                   TELEMAR N L PNA* EJ    TMAR5       010VISTA          000000000035200000000354000000003360000000000000000000342000068400200
0202LOTE PADRAO                   GERDAU      PN * EJ    GGBR4       010VISTA          000000000032500000000331000000003250000000000000000000331000011482400
0202LOTE PADRAO                   BRASIL      ON *       BBAS3       010VISTA          000000000009300000000095000000000930000000000000000000095000011343100
