00BDIN9999BOVESPA 99992003042920030429
0101IBOVESPA                      0124700124700128200000000000000000002003042900000020030429012678000000
0202LOTE PADRAO                   EMBRATEL PARPN *       EBTP4       010VISTA          000000000004800000000049000000000475000000000000000000047000486475000
0202LOTE PADRAO                   TRAN PAULISTPN * EJ    TRPL4       010VISTA          000000000006400000000066000000000630000000000000000000064000017792900
0202LOTE PADRAO                   EMBRATEL PARON *       EBTP3       010VISTA          000000000005400000000055000000000520000000000000000000052000053635400
0202LOTE PADRAO                   TELEMAR     PN * EJ    TNLP4       010VISTA          000000000031300000000324000000003130000000000000000000321000425158000
0202LOTE PADRAO                   ITAUBANCO   PN * EJ    ITAU4       010VISTA          000000000198900000002020000000019890000000000000000001990000014824300
0202LOTE PADRAO                   TELEMAR     ON * EJ    TNLP3       010VISTA          000000000022100000000228000000002210000000000000000000228000028852200
0202LOTE PADRAO                   SID NACIONALON *       CSNA3       010VISTA          000000000068500000000687000000006800000000000000000000684000038129200
0202LOTE PADRAO                   TELE LEST CLPN *       TLCP4       010VISTA          000000000000450000000004600000000044000000000000000000004500223974000
0202LOTE PADRAO                   CRT CELULAR PNA* EJ    CRTP5       010VISTA          000000000352000000003700000000035000000000000000000003620000002758300
0202LOTE PADRAO                   IPIRANGA PETPN *       PTIP4       010VISTA          000000000008500000000088000000000840000000000000000000086000015347500
0202LOTE PADRAO                   BRASIL T PARPN *       BRTP4       010VISTA          000000000020000000000220000000002000000000000000000000205000058398900
0202LOTE PADRAO                   BRASIL T PARON *       BRTP3       010VISTA          000000000016000000000162000000001560000000000000000000161000015427700
0202LOTE PADRAO                   KLABIN S/A  PN         KLBN4       010VISTA          000000000002100000000022500000000200000000000000000000021000000051200
0202LOTE PADRAO                   ACESITA     PN *       ACES4       010VISTA          000000000001300000000013000000000120000000000000000000012000320004000
0202LOTE PADRAO                   PETROBRAS   PN         PETR4       010VISTA          000000000048500000000492000000004820000000000000000000488000000148900
0202LOTE PADRAO                   ELETROBRAS  PNB*       ELET6       010VISTA          000000000024800000000254000000002450000000000000000000246000062646700
0202LOTE PADRAO                   PETROBRAS   ON         PETR3       010VISTA          000000000052200000000536000000005200000000000000000000532000000040000
0202LOTE PADRAO                   COMGAS      PNA*       CGAS5       010VISTA          000000000054200000000547000000005360000000000000000000543000001453000
0202LOTE PADRAO                   SOUZA CRUZ  ON EJ      CRUZ3       010VISTA          000000000018100000000184000000001790000000000000000000181000000024700
0202LOTE PADRAO                   ELETROBRAS  ON *       ELET3       010VISTA          000000000022300000000228000000002150000000000000000000220000013691900
0202LOTE PADRAO                   CELESC      PNB        CLSC6       010VISTA          000000000000470000000004800000000046000000000000000000004600000698700
0202LOTE PADRAO                   BRADESCO    PN * EJ    BBDC4       010VISTA          000000000012300000000125000000001210000000000000000000121000329942000
0202LOTE PADRAO                   CESP        PN *       CESP4       010VISTA          000000000007900000000082000000000790000000000000000000080000021001600
0202LOTE PADRAO                   LIGHT       ON *       LIGH3       010VISTA          000000000028800000000297000000002860000000000000000000290000002188400
0202LOTE PADRAO                   TELESP CL PAPN *       TSPP4       010VISTA          000000000004600000000047000000000460000000000000000000047000534824000
0202LOTE PADRAO                   VALE R DOCE PNA        VALE5       010VISTA          000000000078700000000795000000007780000000000000000000784000000045300
0202LOTE PADRAO                   COPEL       PNB*       CPLE6       010VISTA          000000000009500000000099000000000950000000000000000000096000109674000
0202LOTE PADRAO                   VALE R DOCE ON         VALE3       010VISTA          000000000081000000000830000000008100000000000000000000810000000006900
0202LOTE PADRAO                   ARACRUZ     PNB        ARCZ6       010VISTA          000000000006500000000065000000000610000000000000000000062000000063000
0202LOTE PADRAO                   TELEMIG PARTPN *       TMCP4       010VISTA          000000000002750000000028000000000275000000000000000000027700293663000
0202LOTE PADRAO                   BRASIL TELECPN *       BRTO4       010VISTA          000000000012300000000127000000001230000000000000000000126000202296000
0202LOTE PADRAO                   SABESP      ON *       SBSP3       010VISTA          000000000100000000001017000000010000000000000000000001000000008424400
0202LOTE PADRAO                   BRASKEM     PNA*       BRKM5       010VISTA          000000000299000000003228000000029900000000000000000003128000000507300
0202LOTE PADRAO                   EMBRAER     PN EJ      EMBR4       010VISTA          000000000010000000000103000000000990000000000000000000099000000081100
0202LOTE PADRAO                   TELESP      PN * EJ    TLPP4       010VISTA          000000000032600000000345000000003260000000000000000000345000051336900
0202LOTE PADRAO                   EMBRAER     ON EJ      EMBR3       010VISTA          000000000008500000000085000000000810000000000000000000081000000056800
0202LOTE PADRAO                   AMBEV       PN *       AMBV4       010VISTA          000000000575000000005940000000057500000000000000000005820000002196000
0202LOTE PADRAO                   USIMINAS    PNA        USIM5       010VISTA          000000000010900000000114000000001090000000000000000000110000000066900
0202LOTE PADRAO                   ELETROPAULO PN *       ELPL4       010VISTA          000000000028600000000298000000002860000000000000000000288000009177000
0202LOTE PADRAO                   TELE NORD CLPN *       TNEP4       010VISTA          000000000002400000000024800000000240000000000000000000024000288128000
0202LOTE PADRAO                   CEMIG       PN * EJ    CMIG4       010VISTA          000000000030100000000314000000003010000000000000000000306000088142600
0202LOTE PADRAO                   TELE CL SUL PN * EJ    TCSL4       010VISTA          000000000002400000000025200000000240000000000000000000024000135937000
0202LOTE PADRAO                   TRACTEBEL   ON *       TBLE3       010VISTA          000000000004700000000050000000000470000000000000000000049000008996000
0202LOTE PADRAO                   CEMIG       ON * EJ    CMIG3       010VISTA          000000000022400000000228000000002210000000000000000000225000002062900
0202LOTE PADRAO                   TELE CL SUL ON * EJ    TCSL3       010VISTA          000000000002300000000024000000000230000000000000000000023000051811800
0202LOTE PADRAO                   ITAUSA      PN         ITSA4       010VISTA          000000000002300000000023000000000220000000000000000000022000000295700
0202LOTE PADRAO                   V C P       PN *       VCPA4       010VISTA          000000000112400000001124000000010500000000000000000001105000014231600
0202LOTE PADRAO                   SID TUBARAO PN *       CSTB4       010VISTA          000000000046900000000476000000004620000000000000000000467000008872000
0202LOTE PADRAO                   BRADESPAR   PN *       BRAP4       010VISTA          000000000000660000000006700000000065000000000000000000006500292514000
0202LOTE PADRAO                   NET         PN         PLIM4       010VISTA          000000000000380000000004000000000037000000000000000000003900001942700
0202LOTE PADRAO                   TELE CTR OESPN * EJ    TCOC4       010VISTA          000000000005600000000058000000000560000000000000000000056000147240000
0202LOTE PADRAO                   TELEMAR N L PNA* EJ    TMAR5       010VISTA          000000000041700000000437000000004170000000000000000000436000041626700
0202LOTE PADRAO                   GERDAU      PN * EJ    GGBR4       010VISTA          000000000033300000000356000000003310000000000000000000347000040270600
0202LOTE PADRAO                   BRASIL      ON *       BBAS3       010VISTA          000000000012800000000136000000001280000000000000000000135000071103000
