00BDIN9999BOVESPA 99992003070220030702
0101IBOVESPA                      0132920132400133760000000000000000002003070200000020030702013310000000
0202LOTE PADRAO                   EMBRATEL PARPN *       EBTP4       010VISTA          000000000005900000000060000000000580000000000000000000058000404400000
0202LOTE PADRAO                   TRAN PAULISTPN * EJ    TRPL4       010VISTA          000000000006700000000070000000000660000000000000000000069000012893300
0202LOTE PADRAO                   EMBRATEL PARON *       EBTP3       010VISTA          000000000006540000000066000000000640000000000000000000064000035435500
0202LOTE PADRAO                   TELEMAR     PN * EJ    TNLP4       010VISTA          000000000034100000000347000000003360000000000000000000338000278397000
0202LOTE PADRAO                   ITAUBANCO   PN * EJ    ITAU4       010VISTA          000000000192500000001945000000019150000000000000000001939000011519400
0202LOTE PADRAO                   TELEMAR     ON * EJ    TNLP3       010VISTA          000000000024500000000251000000002440000000000000000000246000014207800
0202LOTE PADRAO                   SID NACIONALON *       CSNA3       010VISTA          000000000068500000000695000000006810000000000000000000692000009826400
0202LOTE PADRAO                   TELE LEST CLPN *       TLCP4       010VISTA          000000000000440000000004500000000044000000000000000000004400012653500
0202LOTE PADRAO                   CRT CELULAR PNA* EJ    CRTP5       010VISTA          000000000332000000003440000000033200000000000000000003400000000634400
0202LOTE PADRAO                   IPIRANGA PETPN *       PTIP4       010VISTA          000000000009300000000096000000000930000000000000000000095000008316000
0202LOTE PADRAO                   BRASIL T PARPN *       BRTP4       010VISTA          000000000021500000000216000000002120000000000000000000213000015072900
0202LOTE PADRAO                   BRASIL T PARON *       BRTP3       010VISTA          000000000016000000000162000000001590000000000000000000162000004449000
0202LOTE PADRAO                   KLABIN S/A  PN         KLBN4       010VISTA          000000000002940000000029000000000290000000000000000000029000000009900
0202LOTE PADRAO                   ACESITA     PN *       ACES4       010VISTA          000000000001490000000015000000000140000000000000000000014000084214600
0202LOTE PADRAO                   PETROBRAS   PN         PETR4       010VISTA          000000000051300000000517000000005070000000000000000000517000000090900
0202LOTE PADRAO                   ELETROBRAS  PNB*       ELET6       010VISTA          000000000023400000000242000000002340000000000000000000241000042264000
0202LOTE PADRAO                   PETROBRAS   ON         PETR3       010VISTA          000000000055800000000568000000005570000000000000000000563000000043900
0202LOTE PADRAO                   COMGAS      PNA*       CGAS5       010VISTA          000000000066000000000660000000006400000000000000000000653000001380600
0202LOTE PADRAO                   SOUZA CRUZ  ON EJ      CRUZ3       010VISTA          000000000022700000000230000000002250000000000000000000226000000004000
0202LOTE PADRAO                   ELETROBRAS  ON *       ELET3       010VISTA          000000000021100000000214000000002100000000000000000000211000004276800
0202LOTE PADRAO                   CELESC      PNB        CLSC6       010VISTA          000000000000470000000004700000000046000000000000000000004700000253900
0202LOTE PADRAO                   BRADESCO    PN * EJ    BBDC4       010VISTA          000000000011000000000111000000001090000000000000000000111000111592000
0202LOTE PADRAO                   CESP        PN *       CESP4       010VISTA          000000000007300000000077000000000730000000000000000000074000013845500
0202LOTE PADRAO                   LIGHT       ON *       LIGH3       010VISTA          000000000025800000000275000000002580000000000000000000268000000438600
0202LOTE PADRAO                   TELESP CL PAPN *       TSPP4       010VISTA          000000000004600000000046000000000450000000000000000000045000225731000
0202LOTE PADRAO                   VALE R DOCE PNA        VALE5       010VISTA          000000000079000000000795000000007870000000000000000000795000000028900
0202LOTE PADRAO                   COPEL       PNB*       CPLE6       010VISTA          000000000009000000000093000000000880000000000000000000090000097970200
0202LOTE PADRAO                   VALE R DOCE ON         VALE3       010VISTA          000000000085000000000860000000008400000000000000000000850000000018900
0202LOTE PADRAO                   ARACRUZ     PNB        ARCZ6       010VISTA          000000000005900000000060000000000590000000000000000000060000000059600
0202LOTE PADRAO                   TELEMIG PARTPN *       TMCP4       010VISTA          000000000003000000000031000000000300000000000000000000030000036516600
0202LOTE PADRAO                   BRASIL TELECPN *       BRTO4       010VISTA          000000000013000000000130000000001270000000000000000000130000058991500
0202LOTE PADRAO                   SABESP      ON *       SBSP3       010VISTA          000000000109800000001140000000010900000000000000000001130000005283200
0202LOTE PADRAO                   BRASKEM     PNA*       BRKM5       010VISTA          000000000389900000003999000000038000000000000000000003960000000447200
0202LOTE PADRAO                   EMBRAER     PN EJ      EMBR4       010VISTA          000000000013600000000136000000001340000000000000000000135000000039000
0202LOTE PADRAO                   TELESP      PN * EJ    TLPP4       010VISTA          000000000032600000000332000000003260000000000000000000327500009419000
0202LOTE PADRAO                   EMBRAER     ON EJ      EMBR3       010VISTA          000000000010300000000107000000001030000000000000000000105000000036500
0202LOTE PADRAO                   AMBEV       PN *       AMBV4       010VISTA          000000000582000000005984000000058200000000000000000005930000001744600
0202LOTE PADRAO                   USIMINAS    PNA        USIM5       010VISTA          000000000013000000000132500000001270000000000000000000131000000040400
0202LOTE PADRAO                   ELETROPAULO PN *       ELPL4       010VISTA          000000000025500000000261000000002550000000000000000000258000005019500
0202LOTE PADRAO                   TELE NORD CLPN *       TNEP4       010VISTA          000000000002300000000023000000000230000000000000000000023000057249700
0202LOTE PADRAO                   CEMIG       PN * EJ    CMIG4       010VISTA          000000000027400000000281000000002730000000000000000000278000050237200
0202LOTE PADRAO                   TELE CL SUL PN * EJ    TCSL4       010VISTA          000000000002400000000025000000000240000000000000000000024800078771900
0202LOTE PADRAO                   TRACTEBEL   ON *       TBLE3       010VISTA          000000000007200000000072000000000720000000000000000000072000000776800
0202LOTE PADRAO                   CEMIG       ON * EJ    CMIG3       010VISTA          000000000021500000000221000000002150000000000000000000218000002151300
0202LOTE PADRAO                   TELE CL SUL ON * EJ    TCSL3       010VISTA          000000000002100000000022000000000210000000000000000000022000009353300
0202LOTE PADRAO                   ITAUSA      PN         ITSA4       010VISTA          000000000002270000000023000000000227000000000000000000023000000147900
0202LOTE PADRAO                   V C P       PN *       VCPA4       010VISTA          000000000110000000001125000000010970000000000000000001125000000983100
0202LOTE PADRAO                   SID TUBARAO PN *       CSTB4       010VISTA          000000000052700000000532000000005250000000000000000000525000009341100
0202LOTE PADRAO                   BRADESPAR   PN *       BRAP4       010VISTA          000000000000620000000006300000000062000000000000000000006200068539200
0202LOTE PADRAO                   NET         PN         PLIM4       010VISTA          000000000000300000000003000000000028000000000000000000002900000438500
0202LOTE PADRAO                   TELE CTR OESPN * EJ    TCOC4       010VISTA          000000000005600000000056000000000550000000000000000000055000072261300
0202LOTE PADRAO                   TELEMAR N L PNA* EJ    TMAR5       010VISTA          000000000040200000000410000000003980000000000000000000402000010498300
0202LOTE PADRAO                   GERDAU      PN * EJ    GGBR4       010VISTA          000000000033000000000330000000003180000000000000000000318000000013200
0202LOTE PADRAO                   BRASIL      ON *       BBAS3       010VISTA          000000000013500000000137000000001340000000000000000000135000020115400
