00BDIN9999BOVESPA 99992003062720030627
0101IBOVESPA                      0131120129760131930000000000000000002003062700000020030627013024000000
0202LOTE PADRAO                   EMBRATEL PARPN *       EBTP4       010VISTA          000000000006000000000060000000000570000000000000000000058000442856000
0202LOTE PADRAO                   TRAN PAULISTPN * EJ    TRPL4       010VISTA          000000000006600000000067900000000650000000000000000000067000016704400
0202LOTE PADRAO                   EMBRATEL PARON *       EBTP3       010VISTA          000000000006500000000065000000000620000000000000000000063000041384100
0202LOTE PADRAO                   TELEMAR     PN * EJ    TNLP4       010VISTA          000000000033900000000339000000003270000000000000000000331000304809000
0202LOTE PADRAO                   ITAUBANCO   PN * EJ    ITAU4       010VISTA          000000000194000000001965000000019150000000000000000001925000005392100
0202LOTE PADRAO                   TELEMAR     ON * EJ    TNLP3       010VISTA          000000000024000000000241000000002360000000000000000000239000020988900
0202LOTE PADRAO                   SID NACIONALON *       CSNA3       010VISTA          000000000067600000000715000000006760000000000000000000704000028070100
0202LOTE PADRAO                   TELE LEST CLPN *       TLCP4       010VISTA          000000000000450000000004500000000043000000000000000000004400120861000
0202LOTE PADRAO                   CRT CELULAR PNA* EJ    CRTP5       010VISTA          000000000331000000003355000000033100000000000000000003355000001218100
0202LOTE PADRAO                   IPIRANGA PETPN *       PTIP4       010VISTA          000000000009100000000094000000000910000000000000000000093000004251600
0202LOTE PADRAO                   BRASIL T PARPN *       BRTP4       010VISTA          000000000022000000000220000000002140000000000000000000214000033499000
0202LOTE PADRAO                   BRASIL T PARON *       BRTP3       010VISTA          000000000016600000000166000000001580000000000000000000159000019937200
0202LOTE PADRAO                   KLABIN S/A  PN         KLBN4       010VISTA          000000000002800000000029000000000280000000000000000000028000000055400
0202LOTE PADRAO                   ACESITA     PN *       ACES4       010VISTA          000000000001400000000014000000000140000000000000000000014000161276000
0202LOTE PADRAO                   PETROBRAS   PN         PETR4       010VISTA          000000000050100000000507000000005010000000000000000000507000000061200
0202LOTE PADRAO                   ELETROBRAS  PNB*       ELET6       010VISTA          000000000022600000000228000000002230000000000000000000225000023905700
0202LOTE PADRAO                   PETROBRAS   ON         PETR3       010VISTA          000000000055000000000555000000005470000000000000000000553000000021500
0202LOTE PADRAO                   COMGAS      PNA*       CGAS5       010VISTA          000000000062600000000643000000006260000000000000000000628000000696400
0202LOTE PADRAO                   SOUZA CRUZ  ON EJ      CRUZ3       010VISTA          000000000023100000000250000000002310000000000000000000246000000028600
0202LOTE PADRAO                   ELETROBRAS  ON *       ELET3       010VISTA          000000000020300000000205000000001980000000000000000000201000007403300
0202LOTE PADRAO                   CELESC      PNB        CLSC6       010VISTA          000000000000460000000004600000000045000000000000000000004600000228100
0202LOTE PADRAO                   BRADESCO    PN * EJ    BBDC4       010VISTA          000000000011000000000111000000001070000000000000000000107000081917500
0202LOTE PADRAO                   CESP        PN *       CESP4       010VISTA          000000000007300000000073000000000700000000000000000000070000007314000
0202LOTE PADRAO                   LIGHT       ON *       LIGH3       010VISTA          000000000027200000000272000000002650000000000000000000265000000447400
0202LOTE PADRAO                   TELESP CL PAPN *       TSPP4       010VISTA          000000000004540000000045400000000440000000000000000000044000184107000
0202LOTE PADRAO                   VALE R DOCE PNA        VALE5       010VISTA          000000000080500000000807500000007940000000000000000000794000000022300
0202LOTE PADRAO                   COPEL       PNB*       CPLE6       010VISTA          000000000009000000000090000000000810000000000000000000086000219912000
0202LOTE PADRAO                   VALE R DOCE ON         VALE3       010VISTA          000000000086300000000865000000008520000000000000000000852000000005500
0202LOTE PADRAO                   ARACRUZ     PNB        ARCZ6       010VISTA          000000000006000000000061000000000600000000000000000000060000000032500
0202LOTE PADRAO                   TELEMIG PARTPN *       TMCP4       010VISTA          000000000003000000000030000000000290000000000000000000030000060936200
0202LOTE PADRAO                   BRASIL TELECPN *       BRTO4       010VISTA          000000000013400000000134000000001275000000000000000000128000081379100
0202LOTE PADRAO                   SABESP      ON *       SBSP3       010VISTA          000000000101500000001029000000010000000000000000000001000000003099300
0202LOTE PADRAO                   BRASKEM     PNA*       BRKM5       010VISTA          000000000369000000003690000000036500000000000000000003690000000049400
0202LOTE PADRAO                   EMBRAER     PN EJ      EMBR4       010VISTA          000000000013500000000139000000001350000000000000000000138000000036200
0202LOTE PADRAO                   TELESP      PN * EJ    TLPP4       010VISTA          000000000033500000000336000000003270000000000000000000332000010694300
0202LOTE PADRAO                   EMBRAER     ON EJ      EMBR3       010VISTA          000000000010800000000109000000001070000000000000000000108000000016000
0202LOTE PADRAO                   AMBEV       PN *       AMBV4       010VISTA          000000000595000000005950000000057650000000000000000005830000000901100
0202LOTE PADRAO                   USIMINAS    PNA        USIM5       010VISTA          000000000012200000000127500000001220000000000000000000127500000066100
0202LOTE PADRAO                   ELETROPAULO PN *       ELPL4       010VISTA          000000000024500000000246000000002330000000000000000000235000007490600
0202LOTE PADRAO                   TELE NORD CLPN *       TNEP4       010VISTA          000000000002300000000023000000000227000000000000000000022700060990100
0202LOTE PADRAO                   CEMIG       PN * EJ    CMIG4       010VISTA          000000000027000000000271000000002650000000000000000000265000040215400
0202LOTE PADRAO                   TELE CL SUL PN * EJ    TCSL4       010VISTA          000000000002400000000024000000000230000000000000000000023000097498800
0202LOTE PADRAO                   TRACTEBEL   ON *       TBLE3       010VISTA          000000000007000000000072000000000700000000000000000000070000001152500
0202LOTE PADRAO                   CEMIG       ON * EJ    CMIG3       010VISTA          000000000021600000000216000000002100000000000000000000211000001128900
0202LOTE PADRAO                   TELE CL SUL ON * EJ    TCSL3       010VISTA          000000000002200000000022000000000210000000000000000000021000026225200
0202LOTE PADRAO                   ITAUSA      PN         ITSA4       010VISTA          000000000002300000000023000000000220000000000000000000022000000442000
0202LOTE PADRAO                   V C P       PN *       VCPA4       010VISTA          000000000114000000001142000000011010000000000000000001110000002348600
0202LOTE PADRAO                   SID TUBARAO PN *       CSTB4       010VISTA          000000000047200000000495000000004725000000000000000000490000009220000
0202LOTE PADRAO                   BRADESPAR   PN *       BRAP4       010VISTA          000000000000640000000006400000000062000000000000000000006200189313000
0202LOTE PADRAO                   NET         PN         PLIM4       010VISTA          000000000000310000000003100000000029000000000000000000002900000456300
0202LOTE PADRAO                   TELE CTR OESPN * EJ    TCOC4       010VISTA          000000000005400000000055000000000530000000000000000000053000065972000
0202LOTE PADRAO                   TELEMAR N L PNA* EJ    TMAR5       010VISTA          000000000039000000000392000000003830000000000000000000386000025014300
0202LOTE PADRAO                   GERDAU      PN * EJ    GGBR4       010VISTA          000000000033000000000333000000003275000000000000000000329000000031900
0202LOTE PADRAO                   BRASIL      ON *       BBAS3       010VISTA          000000000013500000000135000000001280000000000000000000128000020376200
