00BDIN9999BOVESPA 99992003040320030403
0101IBOVESPA                      0118770118760121320000000000000000002003040300000020030403012006000000
0202LOTE PADRAO                   EMBRATEL PARPN *       EBTP4       010VISTA          000000000003800000000039600000000370000000000000000000038100496292000
0202LOTE PADRAO                   TRAN PAULISTPN * EJ    TRPL4       010VISTA          000000000005900000000060000000000590000000000000000000059000015943000
0202LOTE PADRAO                   EMBRATEL PARON *       EBTP3       010VISTA          000000000004500000000047000000000450000000000000000000045000062800900
0202LOTE PADRAO                   TELEMAR     PN * EJ    TNLP4       010VISTA          000000000030000000000304000000002960000000000000000000300000461199000
0202LOTE PADRAO                   ITAUBANCO   PN * EJ    ITAU4       010VISTA          000000000180000000001829000000017700000000000000000001820000018707400
0202LOTE PADRAO                   TELEMAR     ON * EJ    TNLP3       010VISTA          000000000021600000000219000000002120000000000000000000216000048654600
0202LOTE PADRAO                   SID NACIONALON *       CSNA3       010VISTA          000000000064500000000650000000006350000000000000000000650000020971500
0202LOTE PADRAO                   TELE LEST CLPN *       TLCP4       010VISTA          000000000000440000000004600000000044000000000000000000004500095830000
0202LOTE PADRAO                   CRT CELULAR PNA* EJ    CRTP5       010VISTA          000000000345000000003500000000034100000000000000000003460000001708300
0202LOTE PADRAO                   IPIRANGA PETPN *       PTIP4       010VISTA          000000000007400000000077000000000740000000000000000000075000031304400
0202LOTE PADRAO                   BRASIL T PARPN *       BRTP4       010VISTA          000000000019500000000198000000001950000000000000000000198000080448500
0202LOTE PADRAO                   BRASIL T PARON *       BRTP3       010VISTA          000000000015000000000153000000001480000000000000000000153000019827400
0202LOTE PADRAO                   KLABIN S/A  PN         KLBN4       010VISTA          000000000001800000000018000000000170000000000000000000017800000076800
0202LOTE PADRAO                   ACESITA     PN *       ACES4       010VISTA          000000000001100000000012000000000110000000000000000000011000174194000
0202LOTE PADRAO                   PETROBRAS   PN         PETR4       010VISTA          000000000048500000000495000000004830000000000000000000488000000111700
0202LOTE PADRAO                   ELETROBRAS  PNB*       ELET6       010VISTA          000000000022600000000243000000002250000000000000000000240000161651000
0202LOTE PADRAO                   PETROBRAS   ON         PETR3       010VISTA          000000000053500000000546000000005310000000000000000000537000000047000
0202LOTE PADRAO                   COMGAS      PNA*       CGAS5       010VISTA          000000000054300000000555000000005310000000000000000000542500001886500
0202LOTE PADRAO                   SOUZA CRUZ  ON EJ      CRUZ3       010VISTA          000000000019500000000201000000001940000000000000000000198000000005900
0202LOTE PADRAO                   ELETROBRAS  ON *       ELET3       010VISTA          000000000022000000000223000000002000000000000000000000223000051013500
0202LOTE PADRAO                   CELESC      PNB        CLSC6       010VISTA          000000000000470000000005100000000046000000000000000000005000001242000
0202LOTE PADRAO                   BRADESCO    PN * EJ    BBDC4       010VISTA          000000000011600000000117000000001150000000000000000000115000209796000
0202LOTE PADRAO                   CESP        PN *       CESP4       010VISTA          000000000006200000000069000000000620000000000000000000067000042162000
0202LOTE PADRAO                   LIGHT       ON *       LIGH3       010VISTA          000000000025800000000270000000002510000000000000000000265000001526300
0202LOTE PADRAO                   TELESP CL PAPN *       TSPP4       010VISTA          000000000004700000000048000000000460000000000000000000046000552198000
0202LOTE PADRAO                   VALE R DOCE PNA        VALE5       010VISTA          000000000087300000000880000000008490000000000000000000849000000053300
0202LOTE PADRAO                   COPEL       PNB*       CPLE6       010VISTA          000000000009000000000096000000000900000000000000000000094000249637000
0202LOTE PADRAO                   VALE R DOCE ON         VALE3       010VISTA          000000000091000000000911000000008800000000000000000000885000000025100
0202LOTE PADRAO                   ARACRUZ     PNB        ARCZ6       010VISTA          000000000006600000000066000000000660000000000000000000066000000021200
0202LOTE PADRAO                   TELEMIG PARTPN *       TMCP4       010VISTA          000000000002900000000029800000000280000000000000000000029600139394000
0202LOTE PADRAO                   BRASIL TELECPN *       BRTO4       010VISTA          000000000011500000000116000000001130000000000000000000115000083437500
0202LOTE PADRAO                   SABESP      ON *       SBSP3       010VISTA          000000000087900000000932000000008790000000000000000000917000014889500
0202LOTE PADRAO                   BRASKEM     PNA*       BRKM5       010VISTA          000000000237000000002380000000023010000000000000000002362000000537300
0202LOTE PADRAO                   EMBRAER     PN EJ      EMBR4       010VISTA          000000000010600000000110000000001040000000000000000000109000000276400
0202LOTE PADRAO                   TELESP      PN * EJ    TLPP4       010VISTA          000000000032000000000322000000003160000000000000000000322000011084900
0202LOTE PADRAO                   EMBRAER     ON EJ      EMBR3       010VISTA          000000000009100000000094000000000900000000000000000000092500000015000
0202LOTE PADRAO                   AMBEV       PN *       AMBV4       010VISTA          000000000586000000005870000000058000000000000000000005835000001057100
0202LOTE PADRAO                   USIMINAS    PNA        USIM5       010VISTA          000000000009400000000097000000000930000000000000000000094000000107900
0202LOTE PADRAO                   ELETROPAULO PN *       ELPL4       010VISTA          000000000025250000000276000000002480000000000000000000275000014968200
0202LOTE PADRAO                   TELE NORD CLPN *       TNEP4       010VISTA          000000000002540000000026000000000250000000000000000000025000063947900
0202LOTE PADRAO                   CEMIG       PN * EJ    CMIG4       010VISTA          000000000027750000000295000000002775000000000000000000288000195605000
0202LOTE PADRAO                   TELE CL SUL PN * EJ    TCSL4       010VISTA          000000000002480000000025000000000240000000000000000000024800238773000
0202LOTE PADRAO                   TRACTEBEL   ON *       TBLE3       010VISTA          000000000004300000000044000000000425000000000000000000044000051121900
0202LOTE PADRAO                   CEMIG       ON * EJ    CMIG3       010VISTA          000000000021400000000231000000002100000000000000000000223000010415200
0202LOTE PADRAO                   TELE CL SUL ON * EJ    TCSL3       010VISTA          000000000002400000000025400000000230000000000000000000024000165402000
0202LOTE PADRAO                   ITAUSA      PN         ITSA4       010VISTA          000000000002100000000021000000000200000000000000000000020000000265500
0202LOTE PADRAO                   V C P       PN *       VCPA4       010VISTA          000000000123500000001236000000012130000000000000000001227000003585900
0202LOTE PADRAO                   SID TUBARAO PN *       CSTB4       010VISTA          000000000043200000000432000000004150000000000000000000429000012211000
0202LOTE PADRAO                   BRADESPAR   PN *       BRAP4       010VISTA          000000000000690000000007000000000065000000000000000000006600442985000
0202LOTE PADRAO                   NET         PN         PLIM4       010VISTA          000000000000320000000003400000000031000000000000000000003200001242100
0202LOTE PADRAO                   TELE CTR OESPN * EJ    TCOC4       010VISTA          000000000005900000000059000000000580000000000000000000058000160268000
0202LOTE PADRAO                   TELEMAR N L PNA* EJ    TMAR5       010VISTA          000000000038500000000400000000003850000000000000000000400000063904200
0202LOTE PADRAO                   GERDAU      PN * EJ    GGBR4       010VISTA          000000000029900000000303000000002960000000000000000000303000026722000
0202LOTE PADRAO                   BRASIL      ON *       BBAS3       010VISTA          000000000011000000000110000000001080000000000000000000110000031371900
