00BDIN9999BOVESPA 99992003011620030116
0101IBOVESPA                      0119730119210121930000000000000000002003011600000020030116011952000000
0202LOTE PADRAO                   EMBRATEL PARPN *       EBTP4       010VISTA          000000000004400000000045000000000420000000000000000000043000499442000
0202LOTE PADRAO                   TRAN PAULISTPN * EJ    TRPL4       010VISTA          000000000006000000000061000000000590000000000000000000059000020811400
0202LOTE PADRAO                   EMBRATEL PARON *       EBTP3       010VISTA          000000000004900000000052000000000470000000000000000000049000104044000
0202LOTE PADRAO                   TELEMAR     PN * EJ    TNLP4       010VISTA          000000000029200000000296000000002900000000000000000000292000290668000
0202LOTE PADRAO                   ITAUBANCO   PN * EJ    ITAU4       010VISTA          000000000169500000001735000000016950000000000000000001728000009294200
0202LOTE PADRAO                   TELEMAR     ON * EJ    TNLP3       010VISTA          000000000021700000000219000000002130000000000000000000215000010079300
0202LOTE PADRAO                   SID NACIONALON *       CSNA3       010VISTA          000000000054000000000540000000005250000000000000000000530000015099800
0202LOTE PADRAO                   TELE LEST CLPN *       TLCP4       010VISTA          000000000000530000000005500000000051000000000000000000005200297821000
0202LOTE PADRAO                   CRT CELULAR PNA* EJ    CRTP5       010VISTA          000000000370100000003900000000036700000000000000000003680000006246200
0202LOTE PADRAO                   IPIRANGA PETPN *       PTIP4       010VISTA          000000000008100000000085000000000810000000000000000000081000004521500
0202LOTE PADRAO                   BRASIL T PARPN *       BRTP4       010VISTA          000000000019900000000202000000001960000000000000000000196000053206700
0202LOTE PADRAO                   BRASIL T PARON *       BRTP3       010VISTA          000000000014900000000150000000001430000000000000000000147000010632000
0202LOTE PADRAO                   KLABIN S/A  PN         KLBN4       010VISTA          000000000001100000000011000000000110000000000000000000011000000018400
0202LOTE PADRAO                   ACESITA     PN *       ACES4       010VISTA          000000000000940000000009500000000092000000000000000000009200085734600
0202LOTE PADRAO                   PETROBRAS   PN         PETR4       010VISTA          000000000052500000000531000000005220000000000000000000527000000100300
0202LOTE PADRAO                   ELETROBRAS  PNB*       ELET6       010VISTA          000000000024300000000249000000002360000000000000000000238000053961300
0202LOTE PADRAO                   PETROBRAS   ON         PETR3       010VISTA          000000000058500000000589000000005775000000000000000000581000000022900
0202LOTE PADRAO                   COMGAS      PNA*       CGAS5       010VISTA          000000000055300000000565000000005450000000000000000000554000000881800
0202LOTE PADRAO                   SOUZA CRUZ  ON EJ      CRUZ3       010VISTA          000000000017800000000180000000001760000000000000000000177000000013000
0202LOTE PADRAO                   ELETROBRAS  ON *       ELET3       010VISTA          000000000023800000000241000000002250000000000000000000225000032232500
0202LOTE PADRAO                   CELESC      PNB        CLSC6       010VISTA          000000000000530000000005600000000053000000000000000000005400000174400
0202LOTE PADRAO                   BRADESCO    PN * EJ    BBDC4       010VISTA          000000000011000000000111000000001100000000000000000000110000191672000
0202LOTE PADRAO                   CESP        PN *       CESP4       010VISTA          000000000008000000000081000000000770000000000000000000078000011672000
0202LOTE PADRAO                   LIGHT       ON *       LIGH3       010VISTA          000000000047000000000485000000004500000000000000000000453000000837900
0202LOTE PADRAO                   TELESP CL PAPN *       TSPP4       010VISTA          000000000004000000000044000000000380000000000000000000040002138050000
0202LOTE PADRAO                   VALE R DOCE PNA        VALE5       010VISTA          000000000088900000000898000000008840000000000000000000885000000012700
0202LOTE PADRAO                   COPEL       PNB*       CPLE6       010VISTA          000000000009600000000098000000000940000000000000000000094000032475400
0202LOTE PADRAO                   VALE R DOCE ON         VALE3       010VISTA          000000000093000000000934000000009200000000000000000000922000000006700
0202LOTE PADRAO                   ARACRUZ     PNB        ARCZ6       010VISTA          000000000006500000000067500000000650000000000000000000066000000071400
0202LOTE PADRAO                   TELEMIG PARTPN *       TMCP4       010VISTA          000000000003000000000033000000000300000000000000000000031000598527000
0202LOTE PADRAO                   BRASIL TELECPN *       BRTO4       010VISTA          000000000012250000000123000000001190000000000000000000120000071798700
0202LOTE PADRAO                   SABESP      ON *       SBSP3       010VISTA          000000000097000000000995000000009620000000000000000000967000004288300
0202LOTE PADRAO                   BRASKEM     PNA*       BRKM5       010VISTA          000000000267300000002748000000026100000000000000000002650000000303700
0202LOTE PADRAO                   EMBRAER     PN EJ      EMBR4       010VISTA          000000000012700000000129000000001260000000000000000000126000000083600
0202LOTE PADRAO                   TELESP      PN * EJ    TLPP4       010VISTA          000000000032500000000337000000003250000000000000000000330000007705000
0202LOTE PADRAO                   EMBRAER     ON EJ      EMBR3       010VISTA          000000000011300000000116000000001125000000000000000000112500000016300
0202LOTE PADRAO                   AMBEV       PN *       AMBV4       010VISTA          000000000520000000005219000000050500000000000000000005099000001180100
0202LOTE PADRAO                   USIMINAS    PNA        USIM5       010VISTA          000000000007200000000074000000000720000000000000000000072000000072300
0202LOTE PADRAO                   ELETROPAULO PN *       ELPL4       010VISTA          000000000033000000000355000000003250000000000000000000344000007428500
0202LOTE PADRAO                   TELE NORD CLPN *       TNEP4       010VISTA          000000000002800000000030000000000280000000000000000000029000200975000
0202LOTE PADRAO                   CEMIG       PN * EJ    CMIG4       010VISTA          000000000027800000000282000000002730000000000000000000276000038007000
0202LOTE PADRAO                   TELE CL SUL PN * EJ    TCSL4       010VISTA          000000000002800000000030000000000280000000000000000000028000178379000
0202LOTE PADRAO                   TRACTEBEL   ON *       TBLE3       010VISTA          000000000003600000000036000000000350000000000000000000035200020201200
0202LOTE PADRAO                   CEMIG       ON * EJ    CMIG3       010VISTA          000000000024000000000245000000002400000000000000000000240000003072400
0202LOTE PADRAO                   TELE CL SUL ON * EJ    TCSL3       010VISTA          000000000002000000000021000000000200000000000000000000021000041388300
0202LOTE PADRAO                   ITAUSA      PN         ITSA4       010VISTA          000000000001950000000019800000000194000000000000000000019400000198200
0202LOTE PADRAO                   V C P       PN *       VCPA4       010VISTA          000000000128500000001310000000012800000000000000000001284000001155800
0202LOTE PADRAO                   SID TUBARAO PN *       CSTB4       010VISTA          000000000036500000000375000000003560000000000000000000364000003860200
0202LOTE PADRAO                   BRADESPAR   PN *       BRAP4       010VISTA          000000000000580000000005900000000057000000000000000000005700218615000
0202LOTE PADRAO                   NET         PN         PLIM4       010VISTA          000000000000490000000005100000000048000000000000000000004800001012600
0202LOTE PADRAO                   TELE CTR OESPN * EJ    TCOC4       010VISTA          000000000005000000000055000000000450000000000000000000049001714400000
0202LOTE PADRAO                   TELEMAR N L PNA* EJ    TMAR5       010VISTA          000000000045900000000475000000004590000000000000000000467000032504100
0202LOTE PADRAO                   GERDAU      PN * EJ    GGBR4       010VISTA          000000000032500000000327000000003210000000000000000000325000016638300
0202LOTE PADRAO                   BRASIL      ON *       BBAS3       010VISTA          000000000010100000000104000000001010000000000000000000103000024617900
