00BDIN9999BOVESPA 99992003072820030728
0101IBOVESPA                      0137520136050137830000000000000000002003072800000020030728013643000000
0202LOTE PADRAO                   EMBRATEL PARPN *       EBTP4       010VISTA          000000000006100000000062000000000590000000000000000000059600237182000
0202LOTE PADRAO                   TRAN PAULISTPN * EJ    TRPL4       010VISTA          000000000007300000000075000000000730000000000000000000074000004393000
0202LOTE PADRAO                   EMBRATEL PARON *       EBTP3       010VISTA          000000000006700000000067000000000650000000000000000000066000064900700
0202LOTE PADRAO                   TELEMAR     PN * EJ    TNLP4       010VISTA          000000000032700000000329000000003210000000000000000000323000171073000
0202LOTE PADRAO                   ITAUBANCO   PN * EJ    ITAU4       010VISTA          000000000210000000002149000000021000000000000000000002140000011324700
0202LOTE PADRAO                   TELEMAR     ON * EJ    TNLP3       010VISTA          000000000023500000000238000000002350000000000000000000236000014526500
0202LOTE PADRAO                   SID NACIONALON *       CSNA3       010VISTA          000000000076000000000774000000007550000000000000000000770000020556700
0202LOTE PADRAO                   TELE LEST CLPN *       TLCP4       010VISTA          000000000000430000000004300000000041000000000000000000004100317448000
0202LOTE PADRAO                   CRT CELULAR PNA* EJ    CRTP5       010VISTA          000000000364000000003660000000036100000000000000000003630000000416200
0202LOTE PADRAO                   IPIRANGA PETPN *       PTIP4       010VISTA          000000000010800000000110000000001070000000000000000000110000003100000
0202LOTE PADRAO                   BRASIL T PARPN *       BRTP4       010VISTA          000000000020600000000206000000001980000000000000000000199000070222200
0202LOTE PADRAO                   BRASIL T PARON *       BRTP3       010VISTA          000000000015500000000155000000001500000000000000000000151000013241900
0202LOTE PADRAO                   KLABIN S/A  PN         KLBN4       010VISTA          000000000002800000000028000000000281000000000000000000028000000014000
0202LOTE PADRAO                   ACESITA     PN *       ACES4       010VISTA          000000000001300000000013000000000130000000000000000000013000158605000
0202LOTE PADRAO                   PETROBRAS   PN         PETR4       010VISTA          000000000055900000000565000000005550000000000000000000565000000078000
0202LOTE PADRAO                   ELETROBRAS  PNB*       ELET6       010VISTA          000000000024400000000244000000002380000000000000000000238000046959200
0202LOTE PADRAO                   PETROBRAS   ON         PETR3       010VISTA          000000000059800000000602000000005930000000000000000000602000000009500
0202LOTE PADRAO                   COMGAS      PNA*       CGAS5       010VISTA          000000000070000000000702000000007000000000000000000000700000000997000
0202LOTE PADRAO                   SOUZA CRUZ  ON EJ      CRUZ3       010VISTA          000000000023100000000241000000002310000000000000000000241000000023300
0202LOTE PADRAO                   ELETROBRAS  ON *       ELET3       010VISTA          000000000021800000000218000000002110000000000000000000213000006636600
0202LOTE PADRAO                   CELESC      PNB        CLSC6       010VISTA          000000000000460000000004600000000044000000000000000000004400000483100
0202LOTE PADRAO                   BRADESCO    PN * EJ    BBDC4       010VISTA          000000000011800000000120000000001170000000000000000000119000290334000
0202LOTE PADRAO                   CESP        PN *       CESP4       010VISTA          000000000007400000000074000000000700000000000000000000071000003541100
0202LOTE PADRAO                   LIGHT       ON *       LIGH3       010VISTA          000000000025600000000260000000002530000000000000000000256000000668100
0202LOTE PADRAO                   TELESP CL PAPN *       TSPP4       010VISTA          000000000004500000000045000000000430000000000000000000043000229796000
0202LOTE PADRAO                   VALE R DOCE PNA        VALE5       010VISTA          000000000089900000000900000000008950000000000000000000898000000030100
0202LOTE PADRAO                   COPEL       PNB*       CPLE6       010VISTA          000000000008500000000086000000000830000000000000000000083000052547200
0202LOTE PADRAO                   VALE R DOCE ON         VALE3       010VISTA          000000000097200000000990000000009690000000000000000000982000000022300
0202LOTE PADRAO                   ARACRUZ     PNB        ARCZ6       010VISTA          000000000007200000000073000000000710000000000000000000072000000107400
0202LOTE PADRAO                   TELEMIG PARTPN *       TMCP4       010VISTA          000000000003100000000031000000000300000000000000000000030000093108300
0202LOTE PADRAO                   BRASIL TELECPN *       BRTO4       010VISTA          000000000012500000000125000000001200000000000000000000121000056820600
0202LOTE PADRAO                   SABESP      ON *       SBSP3       010VISTA          000000000112000000001135000000011000000000000000000001134000001778800
0202LOTE PADRAO                   BRASKEM     PNA*       BRKM5       010VISTA          000000000446000000004460000000043800000000000000000004380000000340600
0202LOTE PADRAO                   EMBRAER     PN EJ      EMBR4       010VISTA          000000000013700000000139000000001350000000000000000000135000000048400
0202LOTE PADRAO                   TELESP      PN * EJ    TLPP4       010VISTA          000000000031100000000311000000003080000000000000000000310000008019000
0202LOTE PADRAO                   EMBRAER     ON EJ      EMBR3       010VISTA          000000000010900000000109000000001075000000000000000000107500000010700
0202LOTE PADRAO                   AMBEV       PN *       AMBV4       010VISTA          000000000590000000005971000000058900000000000000000005950000000902100
0202LOTE PADRAO                   USIMINAS    PNA        USIM5       010VISTA          000000000015900000000159000000001550000000000000000000156000000031400
0202LOTE PADRAO                   ELETROPAULO PN *       ELPL4       010VISTA          000000000024900000000250000000002380000000000000000000247000002877400
0202LOTE PADRAO                   TELE NORD CLPN *       TNEP4       010VISTA          000000000002300000000023000000000230000000000000000000023000120755000
0202LOTE PADRAO                   CEMIG       PN * EJ    CMIG4       010VISTA          000000000028300000000283000000002725000000000000000000275000041887100
0202LOTE PADRAO                   TELE CL SUL PN * EJ    TCSL4       010VISTA          000000000002300000000023000000000230000000000000000000023000076950000
0202LOTE PADRAO                   TRACTEBEL   ON *       TBLE3       010VISTA          000000000007500000000077000000000725000000000000000000075000004058000
0202LOTE PADRAO                   CEMIG       ON * EJ    CMIG3       010VISTA          000000000022100000000221000000002160000000000000000000218000000400300
0202LOTE PADRAO                   TELE CL SUL ON * EJ    TCSL3       010VISTA          000000000002100000000021000000000210000000000000000000021000016257000
0202LOTE PADRAO                   ITAUSA      PN         ITSA4       010VISTA          000000000002500000000025000000000248000000000000000000025000000336200
0202LOTE PADRAO                   V C P       PN *       VCPA4       010VISTA          000000000133300000001360000000013200000000000000000001350000005829700
0202LOTE PADRAO                   SID TUBARAO PN *       CSTB4       010VISTA          000000000058000000000582000000005700000000000000000000576000005545900
0202LOTE PADRAO                   BRADESPAR   PN *       BRAP4       010VISTA          000000000000680000000006800000000066000000000000000000006700079196300
0202LOTE PADRAO                   NET         PN         PLIM4       010VISTA          000000000000310000000003200000000031000000000000000000003100000296000
0202LOTE PADRAO                   TELE CTR OESPN * EJ    TCOC4       010VISTA          000000000005500000000055000000000530000000000000000000054000058257000
0202LOTE PADRAO                   TELEMAR N L PNA* EJ    TMAR5       010VISTA          000000000039800000000398000000003950000000000000000000396000011119600
0202LOTE PADRAO                   GERDAU      PN * EJ    GGBR4       010VISTA          000000000034300000000349000000003370000000000000000000349000000010400
0202LOTE PADRAO                   BRASIL      ON *       BBAS3       010VISTA          000000000014300000000144000000001420000000000000000000143000008283700
