00BDIN9999BOVESPA 99992003051920030519
0101IBOVESPA                      0131790127320131820000000000000000002003051900000020030519012746000000
0202LOTE PADRAO                   EMBRATEL PARPN *       EBTP4       010VISTA          000000000004600000000047900000000440000000000000000000044000349927000
0202LOTE PADRAO                   TRAN PAULISTPN * EJ    TRPL4       010VISTA          000000000007300000000075000000000730000000000000000000073000009468800
0202LOTE PADRAO                   EMBRATEL PARON *       EBTP3       010VISTA          000000000005200000000053000000000500000000000000000000051000023930700
0202LOTE PADRAO                   TELEMAR     PN * EJ    TNLP4       010VISTA          000000000034500000000348000000003300000000000000000000332000899756000
0202LOTE PADRAO                   ITAUBANCO   PN * EJ    ITAU4       010VISTA          000000000199900000002010000000019600000000000000000001965000006591300
0202LOTE PADRAO                   TELEMAR     ON * EJ    TNLP3       010VISTA          000000000024300000000249000000002380000000000000000000240000028988700
0202LOTE PADRAO                   SID NACIONALON *       CSNA3       010VISTA          000000000055500000000559000000005440000000000000000000559000011227600
0202LOTE PADRAO                   TELE LEST CLPN *       TLCP4       010VISTA          000000000000440000000004500000000043000000000000000000004300157147000
0202LOTE PADRAO                   CRT CELULAR PNA* EJ    CRTP5       010VISTA          000000000345000000003450000000034000000000000000000003410000000328700
0202LOTE PADRAO                   IPIRANGA PETPN *       PTIP4       010VISTA          000000000008300000000085000000000830000000000000000000084000003587000
0202LOTE PADRAO                   BRASIL T PARPN *       BRTP4       010VISTA          000000000021500000000216000000002130000000000000000000213000033192400
0202LOTE PADRAO                   BRASIL T PARON *       BRTP3       010VISTA          000000000016000000000161000000001580000000000000000000159000010235000
0202LOTE PADRAO                   KLABIN S/A  PN         KLBN4       010VISTA          000000000002000000000021000000000200000000000000000000021000000062400
0202LOTE PADRAO                   ACESITA     PN *       ACES4       010VISTA          000000000001300000000013000000000130000000000000000000013000164422000
0202LOTE PADRAO                   PETROBRAS   PN         PETR4       010VISTA          000000000053500000000538000000005250000000000000000000525000000137100
0202LOTE PADRAO                   ELETROBRAS  PNB*       ELET6       010VISTA          000000000023800000000241000000002325000000000000000000232500040425400
0202LOTE PADRAO                   PETROBRAS   ON         PETR3       010VISTA          000000000058400000000584000000005675000000000000000000569000000018200
0202LOTE PADRAO                   COMGAS      PNA*       CGAS5       010VISTA          000000000056500000000572000000005520000000000000000000560000001525600
0202LOTE PADRAO                   SOUZA CRUZ  ON EJ      CRUZ3       010VISTA          000000000018500000000186000000001820000000000000000000182000000009100
0202LOTE PADRAO                   ELETROBRAS  ON *       ELET3       010VISTA          000000000022300000000226000000002160000000000000000000216000010986000
0202LOTE PADRAO                   CELESC      PNB        CLSC6       010VISTA          000000000000500000000005000000000048000000000000000000004900000194200
0202LOTE PADRAO                   BRADESCO    PN * EJ    BBDC4       010VISTA          000000000011500000000115000000001130000000000000000000114000201778000
0202LOTE PADRAO                   CESP        PN *       CESP4       010VISTA          000000000008400000000085000000000810000000000000000000081000005782300
0202LOTE PADRAO                   LIGHT       ON *       LIGH3       010VISTA          000000000030000000000300000000002850000000000000000000285000000412800
0202LOTE PADRAO                   TELESP CL PAPN *       TSPP4       010VISTA          000000000004500000000045000000000420000000000000000000042000533525000
0202LOTE PADRAO                   VALE R DOCE PNA        VALE5       010VISTA          000000000080100000000824000000008010000000000000000000817000000028700
0202LOTE PADRAO                   COPEL       PNB*       CPLE6       010VISTA          000000000009800000000100000000000960000000000000000000097000074614800
0202LOTE PADRAO                   VALE R DOCE ON         VALE3       010VISTA          000000000084500000000872000000008330000000000000000000860000000005500
0202LOTE PADRAO                   ARACRUZ     PNB        ARCZ6       010VISTA          000000000005400000000056000000000540000000000000000000055000000065900
0202LOTE PADRAO                   TELEMIG PARTPN *       TMCP4       010VISTA          000000000002700000000027000000000270000000000000000000027000058956900
0202LOTE PADRAO                   BRASIL TELECPN *       BRTO4       010VISTA          000000000012900000000131000000001260000000000000000000128000043835500
0202LOTE PADRAO                   SABESP      ON *       SBSP3       010VISTA          000000000106700000001070000000010400000000000000000001069000002900500
0202LOTE PADRAO                   BRASKEM     PNA*       BRKM5       010VISTA          000000000370000000003730000000035700000000000000000003620000000205400
0202LOTE PADRAO                   EMBRAER     PN EJ      EMBR4       010VISTA          000000000010800000000108000000001050000000000000000000105000000057400
0202LOTE PADRAO                   TELESP      PN * EJ    TLPP4       010VISTA          000000000031300000000316000000003130000000000000000000316000005498900
0202LOTE PADRAO                   EMBRAER     ON EJ      EMBR3       010VISTA          000000000009000000000090000000000875000000000000000000087000000010700
0202LOTE PADRAO                   AMBEV       PN *       AMBV4       010VISTA          000000000600000000006040000000059000000000000000000005950000001065700
0202LOTE PADRAO                   USIMINAS    PNA        USIM5       010VISTA          000000000010100000000101000000000990000000000000000000100000000036800
0202LOTE PADRAO                   ELETROPAULO PN *       ELPL4       010VISTA          000000000028800000000293000000002850000000000000000000285000005352200
0202LOTE PADRAO                   TELE NORD CLPN *       TNEP4       010VISTA          000000000002500000000025000000000240000000000000000000024000087352500
0202LOTE PADRAO                   CEMIG       PN * EJ    CMIG4       010VISTA          000000000030900000000310000000003010000000000000000000303000038296400
0202LOTE PADRAO                   TELE CL SUL PN * EJ    TCSL4       010VISTA          000000000002700000000027300000000250000000000000000000026000059662100
0202LOTE PADRAO                   TRACTEBEL   ON *       TBLE3       010VISTA          000000000004600000000047500000000450000000000000000000047000010853300
0202LOTE PADRAO                   CEMIG       ON * EJ    CMIG3       010VISTA          000000000023800000000241000000002330000000000000000000233000001121700
0202LOTE PADRAO                   TELE CL SUL ON * EJ    TCSL3       010VISTA          000000000002300000000024800000000230000000000000000000023000012268000
0202LOTE PADRAO                   ITAUSA      PN         ITSA4       010VISTA          000000000002300000000023000000000230000000000000000000023000000185400
0202LOTE PADRAO                   V C P       PN *       VCPA4       010VISTA          000000000100500000001020000000010000000000000000000001010000001594000
0202LOTE PADRAO                   SID TUBARAO PN *       CSTB4       010VISTA          000000000046300000000464000000004470000000000000000000452500013535100
0202LOTE PADRAO                   BRADESPAR   PN *       BRAP4       010VISTA          000000000000650000000006500000000064000000000000000000006400132568000
0202LOTE PADRAO                   NET         PN         PLIM4       010VISTA          000000000000350000000003700000000035000000000000000000003500001288500
0202LOTE PADRAO                   TELE CTR OESPN * EJ    TCOC4       010VISTA          000000000005500000000055000000000520000000000000000000052000075439000
0202LOTE PADRAO                   TELEMAR N L PNA* EJ    TMAR5       010VISTA          000000000044000000000440000000004200000000000000000000422500020404700
0202LOTE PADRAO                   GERDAU      PN * EJ    GGBR4       010VISTA          000000000030800000000314000000003080000000000000000000309000000026600
0202LOTE PADRAO                   BRASIL      ON *       BBAS3       010VISTA          000000000013500000000135000000001330000000000000000000134000019122900
