00BDIN9999BOVESPA 99992003041120030411
0101IBOVESPA                      0116140116080117530000000000000000002003041100000020030411011719000000
0202LOTE PADRAO                   EMBRATEL PARPN *       EBTP4       010VISTA          000000000003700000000037000000000370000000000000000000037700248602000
0202LOTE PADRAO                   TRAN PAULISTPN * EJ    TRPL4       010VISTA          000000000006200000000064000000000620000000000000000000063000013140000
0202LOTE PADRAO                   EMBRATEL PARON *       EBTP3       010VISTA          000000000004500000000045000000000440000000000000000000044000028764000
0202LOTE PADRAO                   TELEMAR     PN * EJ    TNLP4       010VISTA          000000000029000000000294000000002850000000000000000000291000320601000
0202LOTE PADRAO                   ITAUBANCO   PN * EJ    ITAU4       010VISTA          000000000185000000001850000000017950000000000000000001830000011287100
0202LOTE PADRAO                   TELEMAR     ON * EJ    TNLP3       010VISTA          000000000020600000000209000000002010000000000000000000209000010758000
0202LOTE PADRAO                   SID NACIONALON *       CSNA3       010VISTA          000000000067500000000680000000006650000000000000000000674000023133400
0202LOTE PADRAO                   TELE LEST CLPN *       TLCP4       010VISTA          000000000000430000000004400000000042000000000000000000004300115125000
0202LOTE PADRAO                   CRT CELULAR PNA* EJ    CRTP5       010VISTA          000000000333000000003345000000032700000000000000000003320000000351200
0202LOTE PADRAO                   IPIRANGA PETPN *       PTIP4       010VISTA          000000000007540000000075000000000725000000000000000000073000006320000
0202LOTE PADRAO                   BRASIL T PARPN *       BRTP4       010VISTA          000000000019300000000196000000001920000000000000000000194000048457600
0202LOTE PADRAO                   BRASIL T PARON *       BRTP3       010VISTA          000000000015000000000154000000001450000000000000000000154000009818700
0202LOTE PADRAO                   KLABIN S/A  PN         KLBN4       010VISTA          000000000001950000000021000000000195000000000000000000020000000236600
0202LOTE PADRAO                   ACESITA     PN *       ACES4       010VISTA          000000000001200000000012500000000110000000000000000000012400164496000
0202LOTE PADRAO                   PETROBRAS   PN         PETR4       010VISTA          000000000046200000000467000000004590000000000000000000463000000080900
0202LOTE PADRAO                   ELETROBRAS  PNB*       ELET6       010VISTA          000000000022600000000229000000002250000000000000000000228000034099800
0202LOTE PADRAO                   PETROBRAS   ON         PETR3       010VISTA          000000000050500000000510000000005020000000000000000000507000000021200
0202LOTE PADRAO                   COMGAS      PNA*       CGAS5       010VISTA          000000000051300000000540000000005130000000000000000000530000000222000
0202LOTE PADRAO                   SOUZA CRUZ  ON EJ      CRUZ3       010VISTA          000000000018400000000188000000001840000000000000000000186000000009600
0202LOTE PADRAO                   ELETROBRAS  ON *       ELET3       010VISTA          000000000020600000000206000000002010000000000000000000203000011533000
0202LOTE PADRAO                   CELESC      PNB        CLSC6       010VISTA          000000000000460000000004600000000044000000000000000000004600000400800
0202LOTE PADRAO                   BRADESCO    PN * EJ    BBDC4       010VISTA          000000000011500000000115000000001125000000000000000000114000097630100
0202LOTE PADRAO                   CESP        PN *       CESP4       010VISTA          000000000006100000000064000000000610000000000000000000064000005210400
0202LOTE PADRAO                   LIGHT       ON *       LIGH3       010VISTA          000000000027200000000272000000002620000000000000000000266000000514000
0202LOTE PADRAO                   TELESP CL PAPN *       TSPP4       010VISTA          000000000004400000000044000000000410000000000000000000042000440643000
0202LOTE PADRAO                   VALE R DOCE PNA        VALE5       010VISTA          000000000088200000000890000000008590000000000000000000860000000021500
0202LOTE PADRAO                   COPEL       PNB*       CPLE6       010VISTA          000000000008600000000087500000000850000000000000000000086000039712400
0202LOTE PADRAO                   VALE R DOCE ON         VALE3       010VISTA          000000000090900000000920000000008900000000000000000000890000000003800
0202LOTE PADRAO                   ARACRUZ     PNB        ARCZ6       010VISTA          000000000006600000000067000000000650000000000000000000065000000037200
0202LOTE PADRAO                   TELEMIG PARTPN *       TMCP4       010VISTA          000000000002600000000026900000000260000000000000000000026000100167000
0202LOTE PADRAO                   BRASIL TELECPN *       BRTO4       010VISTA          000000000011300000000113000000001110000000000000000000112500100739000
0202LOTE PADRAO                   SABESP      ON *       SBSP3       010VISTA          000000000093100000000931000000009110000000000000000000927000002586000
0202LOTE PADRAO                   BRASKEM     PNA*       BRKM5       010VISTA          000000000239500000002398000000023100000000000000000002320000000035000
0202LOTE PADRAO                   EMBRAER     PN EJ      EMBR4       010VISTA          000000000010600000000108000000001050000000000000000000106000000045500
0202LOTE PADRAO                   TELESP      PN * EJ    TLPP4       010VISTA          000000000032000000000322000000003175000000000000000000320000035925300
0202LOTE PADRAO                   EMBRAER     ON EJ      EMBR3       010VISTA          000000000009100000000091000000000890000000000000000000089000000017400
0202LOTE PADRAO                   AMBEV       PN *       AMBV4       010VISTA          000000000559100000005591000000055300000000000000000005570000002640900
0202LOTE PADRAO                   USIMINAS    PNA        USIM5       010VISTA          000000000009250000000099000000000910000000000000000000099000000224100
0202LOTE PADRAO                   ELETROPAULO PN *       ELPL4       010VISTA          000000000023600000000247000000002360000000000000000000240000004036600
0202LOTE PADRAO                   TELE NORD CLPN *       TNEP4       010VISTA          000000000002300000000023000000000220000000000000000000022700164172000
0202LOTE PADRAO                   CEMIG       PN * EJ    CMIG4       010VISTA          000000000027800000000281000000002710000000000000000000281000042970100
0202LOTE PADRAO                   TELE CL SUL PN * EJ    TCSL4       010VISTA          000000000002300000000023000000000227000000000000000000022000071449800
0202LOTE PADRAO                   TRACTEBEL   ON *       TBLE3       010VISTA          000000000004200000000044000000000420000000000000000000043000002405600
0202LOTE PADRAO                   CEMIG       ON * EJ    CMIG3       010VISTA          000000000021800000000218000000002125000000000000000000218000000585400
0202LOTE PADRAO                   TELE CL SUL ON * EJ    TCSL3       010VISTA          000000000002500000000025000000000240000000000000000000024000033619100
0202LOTE PADRAO                   ITAUSA      PN         ITSA4       010VISTA          000000000002100000000022000000000210000000000000000000021000000184400
0202LOTE PADRAO                   V C P       PN *       VCPA4       010VISTA          000000000120500000001245000000012000000000000000000001235000002074400
0202LOTE PADRAO                   SID TUBARAO PN *       CSTB4       010VISTA          000000000046500000000472000000004620000000000000000000462000008752900
0202LOTE PADRAO                   BRADESPAR   PN *       BRAP4       010VISTA          000000000000650000000006600000000064000000000000000000006500095602600
0202LOTE PADRAO                   NET         PN         PLIM4       010VISTA          000000000000310000000003200000000030000000000000000000003200000284500
0202LOTE PADRAO                   TELE CTR OESPN * EJ    TCOC4       010VISTA          000000000005500000000055000000000520000000000000000000053000071915800
0202LOTE PADRAO                   TELEMAR N L PNA* EJ    TMAR5       010VISTA          000000000040400000000407000000003970000000000000000000402500015553900
0202LOTE PADRAO                   GERDAU      PN * EJ    GGBR4       010VISTA          000000000031500000000315000000003030000000000000000000304000010104700
0202LOTE PADRAO                   BRASIL      ON *       BBAS3       010VISTA          000000000011500000000121000000001140000000000000000000119000031432700
