00BDIN9999BOVESPA 99992003071620030716
0101IBOVESPA                      0136130134350136330000000000000000002003071600000020030716013487000000
0202LOTE PADRAO                   EMBRATEL PARPN *       EBTP4       010VISTA          000000000005790000000057000000000560000000000000000000057000206573000
0202LOTE PADRAO                   TRAN PAULISTPN * EJ    TRPL4       010VISTA          000000000007500000000076000000000750000000000000000000076000005951800
0202LOTE PADRAO                   EMBRATEL PARON *       EBTP3       010VISTA          000000000006500000000065000000000640000000000000000000064000021666800
0202LOTE PADRAO                   TELEMAR     PN * EJ    TNLP4       010VISTA          000000000033700000000338000000003270000000000000000000328000384674000
0202LOTE PADRAO                   ITAUBANCO   PN * EJ    ITAU4       010VISTA          000000000196000000001965000000019350000000000000000001958000005741700
0202LOTE PADRAO                   TELEMAR     ON * EJ    TNLP3       010VISTA          000000000024600000000246000000002380000000000000000000241000040311800
0202LOTE PADRAO                   SID NACIONALON *       CSNA3       010VISTA          000000000071300000000713000000006950000000000000000000701000009670500
0202LOTE PADRAO                   TELE LEST CLPN *       TLCP4       010VISTA          000000000000440000000004400000000043000000000000000000004400032763900
0202LOTE PADRAO                   CRT CELULAR PNA* EJ    CRTP5       010VISTA          000000000340000000003434000000033990000000000000000003430000000547600
0202LOTE PADRAO                   IPIRANGA PETPN *       PTIP4       010VISTA          000000000010800000000110000000001080000000000000000000110000003701800
0202LOTE PADRAO                   BRASIL T PARPN *       BRTP4       010VISTA          000000000021300000000213000000002100000000000000000000211000023130000
0202LOTE PADRAO                   BRASIL T PARON *       BRTP3       010VISTA          000000000015600000000157000000001560000000000000000000157000006173500
0202LOTE PADRAO                   KLABIN S/A  PN         KLBN4       010VISTA          000000000002800000000028000000000270000000000000000000028100000086700
0202LOTE PADRAO                   ACESITA     PN *       ACES4       010VISTA          000000000001400000000014000000000140000000000000000000014000132824000
0202LOTE PADRAO                   PETROBRAS   PN         PETR4       010VISTA          000000000056000000000565000000005530000000000000000000559000000099700
0202LOTE PADRAO                   ELETROBRAS  PNB*       ELET6       010VISTA          000000000023600000000239000000002330000000000000000000235000052951700
0202LOTE PADRAO                   PETROBRAS   ON         PETR3       010VISTA          000000000060200000000608000000005970000000000000000000604000000021800
0202LOTE PADRAO                   COMGAS      PNA*       CGAS5       010VISTA          000000000066900000000685000000006650000000000000000000681000003927400
0202LOTE PADRAO                   SOUZA CRUZ  ON EJ      CRUZ3       010VISTA          000000000022500000000227500000002210000000000000000000222000000012200
0202LOTE PADRAO                   ELETROBRAS  ON *       ELET3       010VISTA          000000000021600000000216000000002100000000000000000000211000020012500
0202LOTE PADRAO                   CELESC      PNB        CLSC6       010VISTA          000000000000470000000004700000000045000000000000000000004600000051300
0202LOTE PADRAO                   BRADESCO    PN * EJ    BBDC4       010VISTA          000000000011100000000112500000001110000000000000000000111000131167000
0202LOTE PADRAO                   CESP        PN *       CESP4       010VISTA          000000000007500000000075400000000720000000000000000000072000002814800
0202LOTE PADRAO                   LIGHT       ON *       LIGH3       010VISTA          000000000025700000000257000000002530000000000000000000255000000521500
0202LOTE PADRAO                   TELESP CL PAPN *       TSPP4       010VISTA          000000000004600000000046000000000450000000000000000000046000190852000
0202LOTE PADRAO                   VALE R DOCE PNA        VALE5       010VISTA          000000000084600000000852000000008400000000000000000000840000000026000
0202LOTE PADRAO                   COPEL       PNB*       CPLE6       010VISTA          000000000009000000000090000000000850000000000000000000086000047073100
0202LOTE PADRAO                   VALE R DOCE ON         VALE3       010VISTA          000000000091900000000919000000009020000000000000000000902000000006200
0202LOTE PADRAO                   ARACRUZ     PNB        ARCZ6       010VISTA          000000000006300000000064000000000620000000000000000000062000000036500
0202LOTE PADRAO                   TELEMIG PARTPN *       TMCP4       010VISTA          000000000002900000000029000000000290000000000000000000029400044451700
0202LOTE PADRAO                   BRASIL TELECPN *       BRTO4       010VISTA          000000000012900000000129000000001260000000000000000000128000048871200
0202LOTE PADRAO                   SABESP      ON *       SBSP3       010VISTA          000000000105700000001077000000010570000000000000000001070000003341400
0202LOTE PADRAO                   BRASKEM     PNA*       BRKM5       010VISTA          000000000436000000004360000000042700000000000000000004300000000212900
0202LOTE PADRAO                   EMBRAER     PN EJ      EMBR4       010VISTA          000000000013800000000140000000001380000000000000000000139000000038600
0202LOTE PADRAO                   TELESP      PN * EJ    TLPP4       010VISTA          000000000031100000000311000000003080000000000000000000309000009685700
0202LOTE PADRAO                   EMBRAER     ON EJ      EMBR3       010VISTA          000000000011100000000112500000001110000000000000000000111000000006600
0202LOTE PADRAO                   AMBEV       PN *       AMBV4       010VISTA          000000000602000000006020000000058800000000000000000005920000000931500
0202LOTE PADRAO                   USIMINAS    PNA        USIM5       010VISTA          000000000015900000000159000000001500000000000000000000151000000105200
0202LOTE PADRAO                   ELETROPAULO PN *       ELPL4       010VISTA          000000000024900000000254000000002430000000000000000000251000003719000
0202LOTE PADRAO                   TELE NORD CLPN *       TNEP4       010VISTA          000000000002300000000023000000000230000000000000000000023000022051300
0202LOTE PADRAO                   CEMIG       PN * EJ    CMIG4       010VISTA          000000000027500000000278000000002710000000000000000000275000057952900
0202LOTE PADRAO                   TELE CL SUL PN * EJ    TCSL4       010VISTA          000000000002300000000024000000000230000000000000000000023000054234800
0202LOTE PADRAO                   TRACTEBEL   ON *       TBLE3       010VISTA          000000000007600000000077000000000750000000000000000000077100000600700
0202LOTE PADRAO                   CEMIG       ON * EJ    CMIG3       010VISTA          000000000021200000000216000000002120000000000000000000214000000666600
0202LOTE PADRAO                   TELE CL SUL ON * EJ    TCSL3       010VISTA          000000000002000000000021000000000200000000000000000000021000032655300
0202LOTE PADRAO                   ITAUSA      PN         ITSA4       010VISTA          000000000002300000000023000000000230000000000000000000023000000054400
0202LOTE PADRAO                   V C P       PN *       VCPA4       010VISTA          000000000126700000001290000000012520000000000000000001252000003640600
0202LOTE PADRAO                   SID TUBARAO PN *       CSTB4       010VISTA          000000000054200000000549000000005370000000000000000000542000005470400
0202LOTE PADRAO                   BRADESPAR   PN *       BRAP4       010VISTA          000000000000640000000006500000000063000000000000000000006300047404300
0202LOTE PADRAO                   NET         PN         PLIM4       010VISTA          000000000000340000000003400000000033000000000000000000003400000208900
0202LOTE PADRAO                   TELE CTR OESPN * EJ    TCOC4       010VISTA          000000000005600000000056000000000550000000000000000000056000043497000
0202LOTE PADRAO                   TELEMAR N L PNA* EJ    TMAR5       010VISTA          000000000043200000000432000000004140000000000000000000417000021230900
0202LOTE PADRAO                   GERDAU      PN * EJ    GGBR4       010VISTA          000000000033900000000343000000003300000000000000000000333000000019700
0202LOTE PADRAO                   BRASIL      ON *       BBAS3       010VISTA          000000000013900000000142000000001380000000000000000000138000010680100
