00BDIN9999BOVESPA 99992003020520030205
0101IBOVESPA                      0105810104970107610000000000000000002003020500000020030205010592000000
0202LOTE PADRAO                   EMBRATEL PARPN *       EBTP4       010VISTA          000000000003100000000033000000000300000000000000000000032000846485000
0202LOTE PADRAO                   TRAN PAULISTPN * EJ    TRPL4       010VISTA          000000000005100000000053000000000510000000000000000000051000014700500
0202LOTE PADRAO                   EMBRATEL PARON *       EBTP3       010VISTA          000000000003800000000041000000000370000000000000000000040000073753900
0202LOTE PADRAO                   TELEMAR     PN * EJ    TNLP4       010VISTA          000000000025800000000262000000002550000000000000000000257000308194000
0202LOTE PADRAO                   ITAUBANCO   PN * EJ    ITAU4       010VISTA          000000000159000000001590000000015800000000000000000001588000007725100
0202LOTE PADRAO                   TELEMAR     ON * EJ    TNLP3       010VISTA          000000000018600000000191000000001810000000000000000000188000011073000
0202LOTE PADRAO                   SID NACIONALON *       CSNA3       010VISTA          000000000058000000000617000000005800000000000000000000613000016472000
0202LOTE PADRAO                   TELE LEST CLPN *       TLCP4       010VISTA          000000000000420000000004200000000040000000000000000000004000220141000
0202LOTE PADRAO                   CRT CELULAR PNA* EJ    CRTP5       010VISTA          000000000328000000003295000000032500000000000000000003270000000467500
0202LOTE PADRAO                   IPIRANGA PETPN *       PTIP4       010VISTA          000000000006900000000070000000000680000000000000000000068000002388200
0202LOTE PADRAO                   BRASIL T PARPN *       BRTP4       010VISTA          000000000017000000000173000000001650000000000000000000168000049106300
0202LOTE PADRAO                   BRASIL T PARON *       BRTP3       010VISTA          000000000012600000000130000000001260000000000000000000130000006971700
0202LOTE PADRAO                   KLABIN S/A  PN         KLBN4       010VISTA          000000000001100000000011000000000100000000000000000000010000000019000
0202LOTE PADRAO                   ACESITA     PN *       ACES4       010VISTA          000000000000910000000009300000000089000000000000000000009100131940000
0202LOTE PADRAO                   PETROBRAS   PN         PETR4       010VISTA          000000000046800000000475000000004620000000000000000000468000000106800
0202LOTE PADRAO                   ELETROBRAS  PNB*       ELET6       010VISTA          000000000019500000000201000000001925000000000000000000196000052020100
0202LOTE PADRAO                   PETROBRAS   ON         PETR3       010VISTA          000000000051000000000522000000005100000000000000000000516000000055900
0202LOTE PADRAO                   COMGAS      PNA*       CGAS5       010VISTA          000000000047800000000478000000004540000000000000000000456000001969000
0202LOTE PADRAO                   SOUZA CRUZ  ON EJ      CRUZ3       010VISTA          000000000017700000000180000000001770000000000000000000180000000031400
0202LOTE PADRAO                   ELETROBRAS  ON *       ELET3       010VISTA          000000000018750000000191000000001850000000000000000000186000010018400
0202LOTE PADRAO                   CELESC      PNB        CLSC6       010VISTA          000000000000480000000005000000000048000000000000000000004900000162000
0202LOTE PADRAO                   BRADESCO    PN * EJ    BBDC4       010VISTA          000000000010000000000100000000000980000000000000000000099000215010000
0202LOTE PADRAO                   CESP        PN *       CESP4       010VISTA          000000000006400000000065000000000620000000000000000000062000009124000
0202LOTE PADRAO                   LIGHT       ON *       LIGH3       010VISTA          000000000036300000000363000000003425000000000000000000345000000450900
0202LOTE PADRAO                   TELESP CL PAPN *       TSPP4       010VISTA          000000000003600000000037300000000350000000000000000000036000345387000
0202LOTE PADRAO                   VALE R DOCE PNA        VALE5       010VISTA          000000000095500000000983000000009550000000000000000000979000000025900
0202LOTE PADRAO                   COPEL       PNB*       CPLE6       010VISTA          000000000008000000000081000000000770000000000000000000078000069903200
0202LOTE PADRAO                   VALE R DOCE ON         VALE3       010VISTA          000000000099200000001020000000009920000000000000000001017000000029900
0202LOTE PADRAO                   ARACRUZ     PNB        ARCZ6       010VISTA          000000000007000000000072000000000696000000000000000000072000000067100
0202LOTE PADRAO                   TELEMIG PARTPN *       TMCP4       010VISTA          000000000002600000000026000000000256000000000000000000025000081170600
0202LOTE PADRAO                   BRASIL TELECPN *       BRTO4       010VISTA          000000000010200000000103000000001000000000000000000000101000117630000
0202LOTE PADRAO                   SABESP      ON *       SBSP3       010VISTA          000000000081900000000842000000008170000000000000000000832000004395100
0202LOTE PADRAO                   BRASKEM     PNA*       BRKM5       010VISTA          000000000170000000001740000000016950000000000000000001700000000216000
0202LOTE PADRAO                   EMBRAER     PN EJ      EMBR4       010VISTA          000000000012000000000121000000001180000000000000000000119000000061600
0202LOTE PADRAO                   TELESP      PN * EJ    TLPP4       010VISTA          000000000029500000000301000000002930000000000000000000299000004926100
0202LOTE PADRAO                   EMBRAER     ON EJ      EMBR3       010VISTA          000000000010500000000106000000001030000000000000000000105000000015000
0202LOTE PADRAO                   AMBEV       PN *       AMBV4       010VISTA          000000000502000000005030000000049700000000000000000005030000001562100
0202LOTE PADRAO                   USIMINAS    PNA        USIM5       010VISTA          000000000007100000000073000000000700000000000000000000071000000039300
0202LOTE PADRAO                   ELETROPAULO PN *       ELPL4       010VISTA          000000000026500000000268000000002530000000000000000000256000005550400
0202LOTE PADRAO                   TELE NORD CLPN *       TNEP4       010VISTA          000000000002400000000024000000000220000000000000000000022000067699100
0202LOTE PADRAO                   CEMIG       PN * EJ    CMIG4       010VISTA          000000000025000000000253000000002460000000000000000000246000046033600
0202LOTE PADRAO                   TELE CL SUL PN * EJ    TCSL4       010VISTA          000000000002300000000023000000000220000000000000000000022500167173000
0202LOTE PADRAO                   TRACTEBEL   ON *       TBLE3       010VISTA          000000000003200000000033000000000320000000000000000000033000010223600
0202LOTE PADRAO                   CEMIG       ON * EJ    CMIG3       010VISTA          000000000021100000000213000000002050000000000000000000210000000681900
0202LOTE PADRAO                   TELE CL SUL ON * EJ    TCSL3       010VISTA          000000000001750000000017500000000160000000000000000000017000016004600
0202LOTE PADRAO                   ITAUSA      PN         ITSA4       010VISTA          000000000001800000000018000000000180000000000000000000018000000471600
0202LOTE PADRAO                   V C P       PN *       VCPA4       010VISTA          000000000126000000001335000000012600000000000000000001320000005391400
0202LOTE PADRAO                   SID TUBARAO PN *       CSTB4       010VISTA          000000000037000000000373000000003670000000000000000000370000009970500
0202LOTE PADRAO                   BRADESPAR   PN *       BRAP4       010VISTA          000000000000610000000006200000000060000000000000000000006200294099000
0202LOTE PADRAO                   NET         PN         PLIM4       010VISTA          000000000000330000000003400000000031000000000000000000003200000885000
0202LOTE PADRAO                   TELE CTR OESPN * EJ    TCOC4       010VISTA          000000000004500000000047000000000440000000000000000000045000121762000
0202LOTE PADRAO                   TELEMAR N L PNA* EJ    TMAR5       010VISTA          000000000038000000000394000000003800000000000000000000383000034045800
0202LOTE PADRAO                   GERDAU      PN * EJ    GGBR4       010VISTA          000000000030500000000315000000003050000000000000000000311000008982500
0202LOTE PADRAO                   BRASIL      ON *       BBAS3       010VISTA          000000000009300000000094000000000910000000000000000000091000025542000
