00BDIN9999BOVESPA 99992003072220030722
0101IBOVESPA                      0136760136710138670000000000000000002003072200000020030722013835000000
0202LOTE PADRAO                   EMBRATEL PARPN *       EBTP4       010VISTA          000000000006100000000063000000000610000000000000000000062000341077000
0202LOTE PADRAO                   TRAN PAULISTPN * EJ    TRPL4       010VISTA          000000000007500000000077000000000750000000000000000000076000003354400
0202LOTE PADRAO                   EMBRATEL PARON *       EBTP3       010VISTA          000000000007000000000070000000000690000000000000000000069000014833600
0202LOTE PADRAO                   TELEMAR     PN * EJ    TNLP4       010VISTA          000000000033700000000343000000003360000000000000000000341000222534000
0202LOTE PADRAO                   ITAUBANCO   PN * EJ    ITAU4       010VISTA          000000000197000000001996000000019600000000000000000001995000006587700
0202LOTE PADRAO                   TELEMAR     ON * EJ    TNLP3       010VISTA          000000000025000000000255000000002480000000000000000000254000010883100
0202LOTE PADRAO                   SID NACIONALON *       CSNA3       010VISTA          000000000074400000000754000000007420000000000000000000750000009575400
0202LOTE PADRAO                   TELE LEST CLPN *       TLCP4       010VISTA          000000000000440000000004400000000042000000000000000000004300187397000
0202LOTE PADRAO                   CRT CELULAR PNA* EJ    CRTP5       010VISTA          000000000360500000003700000000036000000000000000000003690000001471300
0202LOTE PADRAO                   IPIRANGA PETPN *       PTIP4       010VISTA          000000000010800000000110000000001060000000000000000000110000007774100
0202LOTE PADRAO                   BRASIL T PARPN *       BRTP4       010VISTA          000000000021300000000213000000002120000000000000000000213000028921500
0202LOTE PADRAO                   BRASIL T PARON *       BRTP3       010VISTA          000000000016100000000161000000001590000000000000000000161000011455500
0202LOTE PADRAO                   KLABIN S/A  PN         KLBN4       010VISTA          000000000002800000000028000000000280000000000000000000028000000039700
0202LOTE PADRAO                   ACESITA     PN *       ACES4       010VISTA          000000000001400000000014000000000130000000000000000000013000117024000
0202LOTE PADRAO                   PETROBRAS   PN         PETR4       010VISTA          000000000057000000000578000000005700000000000000000000576000000068700
0202LOTE PADRAO                   ELETROBRAS  PNB*       ELET6       010VISTA          000000000023800000000246000000002370000000000000000000246000053307300
0202LOTE PADRAO                   PETROBRAS   ON         PETR3       010VISTA          000000000061000000000618000000006100000000000000000000615000000014000
0202LOTE PADRAO                   COMGAS      PNA*       CGAS5       010VISTA          000000000069000000000720000000006850000000000000000000715000002900000
0202LOTE PADRAO                   SOUZA CRUZ  ON EJ      CRUZ3       010VISTA          000000000022500000000228000000002220000000000000000000222000000006600
0202LOTE PADRAO                   ELETROBRAS  ON *       ELET3       010VISTA          000000000022000000000223000000002190000000000000000000223000022391100
0202LOTE PADRAO                   CELESC      PNB        CLSC6       010VISTA          000000000000470000000004700000000046000000000000000000004700000143300
0202LOTE PADRAO                   BRADESCO    PN * EJ    BBDC4       010VISTA          000000000011200000000113000000001110000000000000000000112000133375000
0202LOTE PADRAO                   CESP        PN *       CESP4       010VISTA          000000000007400000000074000000000720000000000000000000074000002655200
0202LOTE PADRAO                   LIGHT       ON *       LIGH3       010VISTA          000000000026100000000262500000002590000000000000000000261000000323000
0202LOTE PADRAO                   TELESP CL PAPN *       TSPP4       010VISTA          000000000004500000000046000000000450000000000000000000046000275656000
0202LOTE PADRAO                   VALE R DOCE PNA        VALE5       010VISTA          000000000085000000000853000000008450000000000000000000845000000014800
0202LOTE PADRAO                   COPEL       PNB*       CPLE6       010VISTA          000000000008500000000087000000000830000000000000000000086000106890000
0202LOTE PADRAO                   VALE R DOCE ON         VALE3       010VISTA          000000000091300000000916000000009090000000000000000000909000000015000
0202LOTE PADRAO                   ARACRUZ     PNB        ARCZ6       010VISTA          000000000006500000000066000000000650000000000000000000066000000028900
0202LOTE PADRAO                   TELEMIG PARTPN *       TMCP4       010VISTA          000000000003000000000031000000000300000000000000000000031000078780600
0202LOTE PADRAO                   BRASIL TELECPN *       BRTO4       010VISTA          000000000012900000000129000000001280000000000000000000129000069469900
0202LOTE PADRAO                   SABESP      ON *       SBSP3       010VISTA          000000000113000000001163000000011000000000000000000001150000006055900
0202LOTE PADRAO                   BRASKEM     PNA*       BRKM5       010VISTA          000000000430000000004315000000042800000000000000000004310000000596700
0202LOTE PADRAO                   EMBRAER     PN EJ      EMBR4       010VISTA          000000000013750000000139000000001375000000000000000000138000000017100
0202LOTE PADRAO                   TELESP      PN * EJ    TLPP4       010VISTA          000000000031100000000313000000003110000000000000000000312000007134600
0202LOTE PADRAO                   EMBRAER     ON EJ      EMBR3       010VISTA          000000000011000000000111000000001100000000000000000000110000000011000
0202LOTE PADRAO                   AMBEV       PN *       AMBV4       010VISTA          000000000600000000006010000000059600000000000000000006000000000713800
0202LOTE PADRAO                   USIMINAS    PNA        USIM5       010VISTA          000000000015900000000162000000001590000000000000000000160000000081700
0202LOTE PADRAO                   ELETROPAULO PN *       ELPL4       010VISTA          000000000025400000000256000000002500000000000000000000252000003555200
0202LOTE PADRAO                   TELE NORD CLPN *       TNEP4       010VISTA          000000000002300000000023000000000230000000000000000000023000070934000
0202LOTE PADRAO                   CEMIG       PN * EJ    CMIG4       010VISTA          000000000027500000000276000000002710000000000000000000274000046324700
0202LOTE PADRAO                   TELE CL SUL PN * EJ    TCSL4       010VISTA          000000000002300000000023000000000230000000000000000000023000073943100
0202LOTE PADRAO                   TRACTEBEL   ON *       TBLE3       010VISTA          000000000007500000000077100000000750000000000000000000077000005788800
0202LOTE PADRAO                   CEMIG       ON * EJ    CMIG3       010VISTA          000000000021500000000220000000002150000000000000000000220000001219000
0202LOTE PADRAO                   TELE CL SUL ON * EJ    TCSL3       010VISTA          000000000002000000000020000000000200000000000000000000020000009982400
0202LOTE PADRAO                   ITAUSA      PN         ITSA4       010VISTA          000000000002300000000024000000000230000000000000000000024000000138200
0202LOTE PADRAO                   V C P       PN *       VCPA4       010VISTA          000000000126000000001267000000012400000000000000000001267000002996000
0202LOTE PADRAO                   SID TUBARAO PN *       CSTB4       010VISTA          000000000055100000000569000000005500000000000000000000569000011240100
0202LOTE PADRAO                   BRADESPAR   PN *       BRAP4       010VISTA          000000000000650000000006700000000065000000000000000000006600196840000
0202LOTE PADRAO                   NET         PN         PLIM4       010VISTA          000000000000340000000003400000000032000000000000000000003200000643600
0202LOTE PADRAO                   TELE CTR OESPN * EJ    TCOC4       010VISTA          000000000005500000000056000000000550000000000000000000056000054566600
0202LOTE PADRAO                   TELEMAR N L PNA* EJ    TMAR5       010VISTA          000000000041700000000417000000004120000000000000000000412000020352600
0202LOTE PADRAO                   GERDAU      PN * EJ    GGBR4       010VISTA          000000000033800000000338000000003320000000000000000000336000000022600
0202LOTE PADRAO                   BRASIL      ON *       BBAS3       010VISTA          000000000013900000000144000000001390000000000000000000143000015774900
