00BDIN9999BOVESPA 99992003041420030414
0101IBOVESPA                      0117260117190118890000000000000000002003041400000020030414011874000000
0202LOTE PADRAO                   EMBRATEL PARPN *       EBTP4       010VISTA          000000000003800000000040000000000380000000000000000000040000464269000
0202LOTE PADRAO                   TRAN PAULISTPN * EJ    TRPL4       010VISTA          000000000006400000000065400000000620000000000000000000065000007494700
0202LOTE PADRAO                   EMBRATEL PARON *       EBTP3       010VISTA          000000000004600000000047000000000450000000000000000000047000098274300
0202LOTE PADRAO                   TELEMAR     PN * EJ    TNLP4       010VISTA          000000000029100000000298000000002910000000000000000000298000304384000
0202LOTE PADRAO                   ITAUBANCO   PN * EJ    ITAU4       010VISTA          000000000181500000001835000000018000000000000000000001835000004663700
0202LOTE PADRAO                   TELEMAR     ON * EJ    TNLP3       010VISTA          000000000021000000000217500000002080000000000000000000215000009533200
0202LOTE PADRAO                   SID NACIONALON *       CSNA3       010VISTA          000000000067700000000680000000006650000000000000000000677000011418600
0202LOTE PADRAO                   TELE LEST CLPN *       TLCP4       010VISTA          000000000000440000000004400000000042000000000000000000004300069047100
0202LOTE PADRAO                   CRT CELULAR PNA* EJ    CRTP5       010VISTA          000000000332000000003440000000033000000000000000000003440000000970800
0202LOTE PADRAO                   IPIRANGA PETPN *       PTIP4       010VISTA          000000000007200000000075000000000720000000000000000000075000003990900
0202LOTE PADRAO                   BRASIL T PARPN *       BRTP4       010VISTA          000000000019600000000197500000001930000000000000000000196000045078700
0202LOTE PADRAO                   BRASIL T PARON *       BRTP3       010VISTA          000000000015500000000155000000001450000000000000000000151000002784600
0202LOTE PADRAO                   KLABIN S/A  PN         KLBN4       010VISTA          000000000001960000000020000000000196000000000000000000020000000063200
0202LOTE PADRAO                   ACESITA     PN *       ACES4       010VISTA          000000000001250000000013000000000120000000000000000000012000381108000
0202LOTE PADRAO                   PETROBRAS   PN         PETR4       010VISTA          000000000046500000000470000000004620000000000000000000462500000084700
0202LOTE PADRAO                   ELETROBRAS  PNB*       ELET6       010VISTA          000000000023000000000231000000002225000000000000000000226000054080000
0202LOTE PADRAO                   PETROBRAS   ON         PETR3       010VISTA          000000000050600000000507000000005020000000000000000000506000000033900
0202LOTE PADRAO                   COMGAS      PNA*       CGAS5       010VISTA          000000000051600000000540000000005160000000000000000000540000000656200
0202LOTE PADRAO                   SOUZA CRUZ  ON EJ      CRUZ3       010VISTA          000000000018500000000186000000001840000000000000000000184000000006000
0202LOTE PADRAO                   ELETROBRAS  ON *       ELET3       010VISTA          000000000020300000000205000000001970000000000000000000201000017142700
0202LOTE PADRAO                   CELESC      PNB        CLSC6       010VISTA          000000000000460000000004600000000044000000000000000000004600000279400
0202LOTE PADRAO                   BRADESCO    PN * EJ    BBDC4       010VISTA          000000000011400000000115000000001120000000000000000000114000113163000
0202LOTE PADRAO                   CESP        PN *       CESP4       010VISTA          000000000006200000000064000000000620000000000000000000064000004279700
0202LOTE PADRAO                   LIGHT       ON *       LIGH3       010VISTA          000000000026800000000268000000002610000000000000000000267000001515100
0202LOTE PADRAO                   TELESP CL PAPN *       TSPP4       010VISTA          000000000004400000000044000000000420000000000000000000043000266639000
0202LOTE PADRAO                   VALE R DOCE PNA        VALE5       010VISTA          000000000086000000000865000000008540000000000000000000855000000012800
0202LOTE PADRAO                   COPEL       PNB*       CPLE6       010VISTA          000000000008500000000089000000000850000000000000000000089000044903400
0202LOTE PADRAO                   VALE R DOCE ON         VALE3       010VISTA          000000000089000000000895000000008800000000000000000000887000000003700
0202LOTE PADRAO                   ARACRUZ     PNB        ARCZ6       010VISTA          000000000006500000000068000000000650000000000000000000067000000012200
0202LOTE PADRAO                   TELEMIG PARTPN *       TMCP4       010VISTA          000000000002600000000027100000000260000000000000000000026900044070800
0202LOTE PADRAO                   BRASIL TELECPN *       BRTO4       010VISTA          000000000011300000000114000000001110000000000000000000114000068052200
0202LOTE PADRAO                   SABESP      ON *       SBSP3       010VISTA          000000000092700000000927000000009070000000000000000000917000003513100
0202LOTE PADRAO                   BRASKEM     PNA*       BRKM5       010VISTA          000000000235000000002400000000023500000000000000000002400000000138200
0202LOTE PADRAO                   EMBRAER     PN EJ      EMBR4       010VISTA          000000000010900000000109000000001060000000000000000000107500000035200
0202LOTE PADRAO                   TELESP      PN * EJ    TLPP4       010VISTA          000000000032000000000321000000003150000000000000000000320000006718900
0202LOTE PADRAO                   EMBRAER     ON EJ      EMBR3       010VISTA          000000000009100000000091000000000890000000000000000000091000000014700
0202LOTE PADRAO                   AMBEV       PN *       AMBV4       010VISTA          000000000553000000005580000000055300000000000000000005564000001468900
0202LOTE PADRAO                   USIMINAS    PNA        USIM5       010VISTA          000000000010100000000103000000000990000000000000000000102000000100700
0202LOTE PADRAO                   ELETROPAULO PN *       ELPL4       010VISTA          000000000024100000000253000000002360000000000000000000253000005332400
0202LOTE PADRAO                   TELE NORD CLPN *       TNEP4       010VISTA          000000000002200000000023000000000220000000000000000000023000099658200
0202LOTE PADRAO                   CEMIG       PN * EJ    CMIG4       010VISTA          000000000028100000000286000000002800000000000000000000286000047720800
0202LOTE PADRAO                   TELE CL SUL PN * EJ    TCSL4       010VISTA          000000000002200000000024000000000220000000000000000000024000258923000
0202LOTE PADRAO                   TRACTEBEL   ON *       TBLE3       010VISTA          000000000004300000000045000000000430000000000000000000044000004877100
0202LOTE PADRAO                   CEMIG       ON * EJ    CMIG3       010VISTA          000000000021500000000223000000002150000000000000000000223000002201800
0202LOTE PADRAO                   TELE CL SUL ON * EJ    TCSL3       010VISTA          000000000002400000000025000000000240000000000000000000024000007975800
0202LOTE PADRAO                   ITAUSA      PN         ITSA4       010VISTA          000000000002100000000021000000000210000000000000000000021000000218500
0202LOTE PADRAO                   V C P       PN *       VCPA4       010VISTA          000000000124000000001244000000012150000000000000000001224000002692100
0202LOTE PADRAO                   SID TUBARAO PN *       CSTB4       010VISTA          000000000046000000000461000000004510000000000000000000455000005594200
0202LOTE PADRAO                   BRADESPAR   PN *       BRAP4       010VISTA          000000000000650000000006600000000064000000000000000000006500284585000
0202LOTE PADRAO                   NET         PN         PLIM4       010VISTA          000000000000320000000003200000000030000000000000000000003100000435400
0202LOTE PADRAO                   TELE CTR OESPN * EJ    TCOC4       010VISTA          000000000005400000000054000000000525000000000000000000053000086581600
0202LOTE PADRAO                   TELEMAR N L PNA* EJ    TMAR5       010VISTA          000000000040800000000408000000004000000000000000000000405000046435800
0202LOTE PADRAO                   GERDAU      PN * EJ    GGBR4       010VISTA          000000000031000000000318000000003050000000000000000000318000029440700
0202LOTE PADRAO                   BRASIL      ON *       BBAS3       010VISTA          000000000011900000000124000000001180000000000000000000124000048133100
