00BDIN9999BOVESPA 99992003010720030107
0101IBOVESPA                      0120100118420120180000000000000000002003010700000020030107011876000000
0202LOTE PADRAO                   EMBRATEL PARPN *       EBTP4       010VISTA          000000000004800000000050000000000470000000000000000000047000587033000
0202LOTE PADRAO                   TRAN PAULISTPN * EJ    TRPL4       010VISTA          000000000006000000000060000000000596000000000000000000060000016761900
0202LOTE PADRAO                   EMBRATEL PARON *       EBTP3       010VISTA          000000000005200000000054000000000510000000000000000000052000071549800
0202LOTE PADRAO                   TELEMAR     PN * EJ    TNLP4       010VISTA          000000000028000000000281000000002775000000000000000000280000256429000
0202LOTE PADRAO                   ITAUBANCO   PN * EJ    ITAU4       010VISTA          000000000176000000001766000000017200000000000000000001720000015657000
0202LOTE PADRAO                   TELEMAR     ON * EJ    TNLP3       010VISTA          000000000020600000000208000000002030000000000000000000204000026091800
0202LOTE PADRAO                   SID NACIONALON *       CSNA3       010VISTA          000000000051200000000531000000005120000000000000000000515000018777800
0202LOTE PADRAO                   TELE LEST CLPN *       TLCP4       010VISTA          000000000000470000000004900000000047000000000000000000004900262414000
0202LOTE PADRAO                   CRT CELULAR PNA* EJ    CRTP5       010VISTA          000000000360000000003650000000035400000000000000000003540000001816300
0202LOTE PADRAO                   IPIRANGA PETPN *       PTIP4       010VISTA          000000000008500000000085000000000825000000000000000000085000003317600
0202LOTE PADRAO                   BRASIL T PARPN *       BRTP4       010VISTA          000000000019000000000191000000001880000000000000000000190000037608500
0202LOTE PADRAO                   BRASIL T PARON *       BRTP3       010VISTA          000000000014500000000149000000001450000000000000000000149000010102100
0202LOTE PADRAO                   KLABIN S/A  PN         KLBN4       010VISTA          000000000001100000000011000000000100000000000000000000011000000017400
0202LOTE PADRAO                   ACESITA     PN *       ACES4       010VISTA          000000000000950000000009600000000093000000000000000000009500266415000
0202LOTE PADRAO                   PETROBRAS   PN         PETR4       010VISTA          000000000048500000000487000000004750000000000000000000481000000109400
0202LOTE PADRAO                   ELETROBRAS  PNB*       ELET6       010VISTA          000000000023300000000235000000002290000000000000000000229000060838200
0202LOTE PADRAO                   PETROBRAS   ON         PETR3       010VISTA          000000000052800000000540000000005280000000000000000000537000000025700
0202LOTE PADRAO                   COMGAS      PNA*       CGAS5       010VISTA          000000000055800000000562000000005580000000000000000000562000000574300
0202LOTE PADRAO                   SOUZA CRUZ  ON EJ      CRUZ3       010VISTA          000000000018100000000181000000001760000000000000000000178000000003600
0202LOTE PADRAO                   ELETROBRAS  ON *       ELET3       010VISTA          000000000023500000000237000000002300000000000000000000231000006753200
0202LOTE PADRAO                   CELESC      PNB        CLSC6       010VISTA          000000000000560000000005600000000054000000000000000000005500000218200
0202LOTE PADRAO                   BRADESCO    PN * EJ    BBDC4       010VISTA          000000000011000000000112500000001090000000000000000000110000195407000
0202LOTE PADRAO                   CESP        PN *       CESP4       010VISTA          000000000008000000000085000000000790000000000000000000083000053412900
0202LOTE PADRAO                   LIGHT       ON *       LIGH3       010VISTA          000000000047500000000482000000004710000000000000000000475000001056600
0202LOTE PADRAO                   TELESP CL PAPN *       TSPP4       010VISTA          000000000004900000000050000000000480000000000000000000049000564719000
0202LOTE PADRAO                   VALE R DOCE PNA        VALE5       010VISTA          000000000093500000000938000000009110000000000000000000912000000018700
0202LOTE PADRAO                   COPEL       PNB*       CPLE6       010VISTA          000000000009800000000098000000000950000000000000000000096000057363100
0202LOTE PADRAO                   VALE R DOCE ON         VALE3       010VISTA          000000000098000000000980000000009510000000000000000000953000000006400
0202LOTE PADRAO                   ARACRUZ     PNB        ARCZ6       010VISTA          000000000006500000000065000000000620000000000000000000062000000060000
0202LOTE PADRAO                   TELEMIG PARTPN *       TMCP4       010VISTA          000000000003100000000032000000000310000000000000000000031000154205000
0202LOTE PADRAO                   BRASIL TELECPN *       BRTO4       010VISTA          000000000012100000000123000000001200000000000000000000122000049824100
0202LOTE PADRAO                   SABESP      ON *       SBSP3       010VISTA          000000000096500000000990000000009590000000000000000000978000003720000
0202LOTE PADRAO                   BRASKEM     PNA*       BRKM5       010VISTA          000000000249000000002630000000024900000000000000000002600000000156900
0202LOTE PADRAO                   EMBRAER     PN EJ      EMBR4       010VISTA          000000000013400000000134000000001310000000000000000000132500000036600
0202LOTE PADRAO                   TELESP      PN * EJ    TLPP4       010VISTA          000000000035100000000351000000003390000000000000000000347500006998800
0202LOTE PADRAO                   EMBRAER     ON EJ      EMBR3       010VISTA          000000000012300000000123000000001190000000000000000000120000000006400
0202LOTE PADRAO                   AMBEV       PN *       AMBV4       010VISTA          000000000536000000005360000000051900000000000000000005190000001009400
0202LOTE PADRAO                   USIMINAS    PNA        USIM5       010VISTA          000000000007100000000074000000000700000000000000000000072000000041800
0202LOTE PADRAO                   ELETROPAULO PN *       ELPL4       010VISTA          000000000030000000000310000000002850000000000000000000296000015331000
0202LOTE PADRAO                   TELE NORD CLPN *       TNEP4       010VISTA          000000000002800000000029000000000280000000000000000000028000108926000
0202LOTE PADRAO                   CEMIG       PN * EJ    CMIG4       010VISTA          000000000026300000000263000000002530000000000000000000253000041350300
0202LOTE PADRAO                   TELE CL SUL PN * EJ    TCSL4       010VISTA          000000000002800000000029000000000280000000000000000000028000079999100
0202LOTE PADRAO                   TRACTEBEL   ON *       TBLE3       010VISTA          000000000003500000000036000000000350000000000000000000036000006759600
0202LOTE PADRAO                   CEMIG       ON * EJ    CMIG3       010VISTA          000000000023500000000241000000002350000000000000000000238000000124000
0202LOTE PADRAO                   TELE CL SUL ON * EJ    TCSL3       010VISTA          000000000002000000000021000000000200000000000000000000020000020846000
0202LOTE PADRAO                   ITAUSA      PN         ITSA4       010VISTA          000000000001940000000019600000000190000000000000000000019400000444700
0202LOTE PADRAO                   V C P       PN *       VCPA4       010VISTA          000000000123400000001234000000011750000000000000000001180000000935100
0202LOTE PADRAO                   SID TUBARAO PN *       CSTB4       010VISTA          000000000040300000000403000000003850000000000000000000385000005967900
0202LOTE PADRAO                   BRADESPAR   PN *       BRAP4       010VISTA          000000000000580000000006200000000058000000000000000000006000550092000
0202LOTE PADRAO                   NET         PN         PLIM4       010VISTA          000000000000430000000004500000000043000000000000000000004500001229500
0202LOTE PADRAO                   TELE CTR OESPN * EJ    TCOC4       010VISTA          000000000005000000000054000000000500000000000000000000054000199448000
0202LOTE PADRAO                   TELEMAR N L PNA* EJ    TMAR5       010VISTA          000000000046800000000477000000004620000000000000000000462000034493600
0202LOTE PADRAO                   GERDAU      PN * EJ    GGBR4       010VISTA          000000000032700000000327000000003210000000000000000000321000039980300
0202LOTE PADRAO                   BRASIL      ON *       BBAS3       010VISTA          000000000009900000000099000000000980000000000000000000099000028309900
