00BDIN9999BOVESPA 99992003040820030408
0101IBOVESPA                      0121240117320121360000000000000000002003040800000020030408011779000000
0202LOTE PADRAO                   EMBRATEL PARPN *       EBTP4       010VISTA          000000000003900000000040000000000380000000000000000000038000451574000
0202LOTE PADRAO                   TRAN PAULISTPN * EJ    TRPL4       010VISTA          000000000006000000000060000000000590000000000000000000060000031952900
0202LOTE PADRAO                   EMBRATEL PARON *       EBTP3       010VISTA          000000000004700000000047500000000450000000000000000000045000038747000
0202LOTE PADRAO                   TELEMAR     PN * EJ    TNLP4       010VISTA          000000000029800000000301000000002900000000000000000000291000506762000
0202LOTE PADRAO                   ITAUBANCO   PN * EJ    ITAU4       010VISTA          000000000196500000001980000000019050000000000000000001910000014864500
0202LOTE PADRAO                   TELEMAR     ON * EJ    TNLP3       010VISTA          000000000021100000000215000000002060000000000000000000208000047848000
0202LOTE PADRAO                   SID NACIONALON *       CSNA3       010VISTA          000000000062100000000638000000006120000000000000000000635000040252700
0202LOTE PADRAO                   TELE LEST CLPN *       TLCP4       010VISTA          000000000000450000000004600000000044000000000000000000004500404359000
0202LOTE PADRAO                   CRT CELULAR PNA* EJ    CRTP5       010VISTA          000000000340000000003430000000032050000000000000000003230000001494900
0202LOTE PADRAO                   IPIRANGA PETPN *       PTIP4       010VISTA          000000000007700000000077000000000740000000000000000000075000005625300
0202LOTE PADRAO                   BRASIL T PARPN *       BRTP4       010VISTA          000000000019700000000197500000001900000000000000000000196000073531300
0202LOTE PADRAO                   BRASIL T PARON *       BRTP3       010VISTA          000000000015100000000151000000001440000000000000000000147500005611300
0202LOTE PADRAO                   KLABIN S/A  PN         KLBN4       010VISTA          000000000001760000000018000000000175000000000000000000018000000022200
0202LOTE PADRAO                   ACESITA     PN *       ACES4       010VISTA          000000000001240000000012400000000110000000000000000000012000273069000
0202LOTE PADRAO                   PETROBRAS   PN         PETR4       010VISTA          000000000047900000000481000000004570000000000000000000457000000146800
0202LOTE PADRAO                   ELETROBRAS  PNB*       ELET6       010VISTA          000000000024600000000250000000002310000000000000000000232500107105000
0202LOTE PADRAO                   PETROBRAS   ON         PETR3       010VISTA          000000000052400000000524000000004980000000000000000000501000000049000
0202LOTE PADRAO                   COMGAS      PNA*       CGAS5       010VISTA          000000000053200000000537500000005220000000000000000000524000000455700
0202LOTE PADRAO                   SOUZA CRUZ  ON EJ      CRUZ3       010VISTA          000000000019500000000195000000001870000000000000000000188000000007600
0202LOTE PADRAO                   ELETROBRAS  ON *       ELET3       010VISTA          000000000023400000000234000000002150000000000000000000216000020006600
0202LOTE PADRAO                   CELESC      PNB        CLSC6       010VISTA          000000000000480000000004800000000045000000000000000000004600000298200
0202LOTE PADRAO                   BRADESCO    PN * EJ    BBDC4       010VISTA          000000000012250000000123000000001190000000000000000000120000142468000
0202LOTE PADRAO                   CESP        PN *       CESP4       010VISTA          000000000006540000000065400000000620000000000000000000062000016930300
0202LOTE PADRAO                   LIGHT       ON *       LIGH3       010VISTA          000000000032300000000323000000002950000000000000000000295000000783700
0202LOTE PADRAO                   TELESP CL PAPN *       TSPP4       010VISTA          000000000004600000000046000000000440000000000000000000045000444246000
0202LOTE PADRAO                   VALE R DOCE PNA        VALE5       010VISTA          000000000083900000000860000000008390000000000000000000850000000026800
0202LOTE PADRAO                   COPEL       PNB*       CPLE6       010VISTA          000000000009600000000098000000000875000000000000000000087500221610000
0202LOTE PADRAO                   VALE R DOCE ON         VALE3       010VISTA          000000000087100000000891000000008710000000000000000000890000000006700
0202LOTE PADRAO                   ARACRUZ     PNB        ARCZ6       010VISTA          000000000006400000000064000000000630000000000000000000064000000030200
0202LOTE PADRAO                   TELEMIG PARTPN *       TMCP4       010VISTA          000000000002800000000028000000000270000000000000000000027300097439900
0202LOTE PADRAO                   BRASIL TELECPN *       BRTO4       010VISTA          000000000011800000000119000000001140000000000000000000115000062116400
0202LOTE PADRAO                   SABESP      ON *       SBSP3       010VISTA          000000000095900000000959000000009210000000000000000000945000012468100
0202LOTE PADRAO                   BRASKEM     PNA*       BRKM5       010VISTA          000000000229900000002349000000022550000000000000000002310000000199100
0202LOTE PADRAO                   EMBRAER     PN EJ      EMBR4       010VISTA          000000000010400000000104000000000980000000000000000000101000000192000
0202LOTE PADRAO                   TELESP      PN * EJ    TLPP4       010VISTA          000000000030800000000310000000003010000000000000000000309000006464700
0202LOTE PADRAO                   EMBRAER     ON EJ      EMBR3       010VISTA          000000000008800000000088000000000840000000000000000000085000000027500
0202LOTE PADRAO                   AMBEV       PN *       AMBV4       010VISTA          000000000562000000005630000000055000000000000000000005560000001380500
0202LOTE PADRAO                   USIMINAS    PNA        USIM5       010VISTA          000000000009600000000096000000000930000000000000000000095000000142400
0202LOTE PADRAO                   ELETROPAULO PN *       ELPL4       010VISTA          000000000027000000000270000000002460000000000000000000247000013974900
0202LOTE PADRAO                   TELE NORD CLPN *       TNEP4       010VISTA          000000000002400000000024000000000230000000000000000000023000130430000
0202LOTE PADRAO                   CEMIG       PN * EJ    CMIG4       010VISTA          000000000029000000000295000000002680000000000000000000271000145474000
0202LOTE PADRAO                   TELE CL SUL PN * EJ    TCSL4       010VISTA          000000000002400000000024000000000230000000000000000000023000091991300
0202LOTE PADRAO                   TRACTEBEL   ON *       TBLE3       010VISTA          000000000004300000000044000000000425000000000000000000044000013857100
0202LOTE PADRAO                   CEMIG       ON * EJ    CMIG3       010VISTA          000000000022300000000223000000002140000000000000000000218000000494300
0202LOTE PADRAO                   TELE CL SUL ON * EJ    TCSL3       010VISTA          000000000002400000000025000000000240000000000000000000024000022831600
0202LOTE PADRAO                   ITAUSA      PN         ITSA4       010VISTA          000000000002100000000022000000000210000000000000000000022000000406500
0202LOTE PADRAO                   V C P       PN *       VCPA4       010VISTA          000000000119000000001212000000011850000000000000000001195000001480300
0202LOTE PADRAO                   SID TUBARAO PN *       CSTB4       010VISTA          000000000042700000000432000000004230000000000000000000430000002945200
0202LOTE PADRAO                   BRADESPAR   PN *       BRAP4       010VISTA          000000000000660000000006600000000064000000000000000000006400267973000
0202LOTE PADRAO                   NET         PN         PLIM4       010VISTA          000000000000320000000003200000000030000000000000000000003100000542400
0202LOTE PADRAO                   TELE CTR OESPN * EJ    TCOC4       010VISTA          000000000005700000000058000000000550000000000000000000056000108453000
0202LOTE PADRAO                   TELEMAR N L PNA* EJ    TMAR5       010VISTA          000000000041200000000420000000003960000000000000000000403000061718900
0202LOTE PADRAO                   GERDAU      PN * EJ    GGBR4       010VISTA          000000000031600000000318000000003140000000000000000000318000017653400
0202LOTE PADRAO                   BRASIL      ON *       BBAS3       010VISTA          000000000011500000000121000000001140000000000000000000119000053366600
