00BDIN9999BOVESPA 99992003032020030320
0101IBOVESPA                      0109930108580111740000000000000000002003032000000020030320011159000000
0202LOTE PADRAO                   EMBRATEL PARPN *       EBTP4       010VISTA          000000000003100000000032000000000310000000000000000000032000311604000
0202LOTE PADRAO                   TRAN PAULISTPN * EJ    TRPL4       010VISTA          000000000005300000000054000000000520000000000000000000053000012615800
0202LOTE PADRAO                   EMBRATEL PARON *       EBTP3       010VISTA          000000000003600000000037700000000350000000000000000000037100042020700
0202LOTE PADRAO                   TELEMAR     PN * EJ    TNLP4       010VISTA          000000000026600000000275000000002660000000000000000000273000439216000
0202LOTE PADRAO                   ITAUBANCO   PN * EJ    ITAU4       010VISTA          000000000176000000001800000000017600000000000000000001800000009168900
0202LOTE PADRAO                   TELEMAR     ON * EJ    TNLP3       010VISTA          000000000018800000000198000000001870000000000000000000197500048498200
0202LOTE PADRAO                   SID NACIONALON *       CSNA3       010VISTA          000000000060000000000627000000006000000000000000000000621000041847800
0202LOTE PADRAO                   TELE LEST CLPN *       TLCP4       010VISTA          000000000000420000000004200000000040000000000000000000004100122385000
0202LOTE PADRAO                   CRT CELULAR PNA* EJ    CRTP5       010VISTA          000000000316000000003350000000030900000000000000000003350000000345700
0202LOTE PADRAO                   IPIRANGA PETPN *       PTIP4       010VISTA          000000000007000000000070000000000690000000000000000000069000001634000
0202LOTE PADRAO                   BRASIL T PARPN *       BRTP4       010VISTA          000000000019100000000194000000001900000000000000000000194000059096600
0202LOTE PADRAO                   BRASIL T PARON *       BRTP3       010VISTA          000000000014100000000144000000001380000000000000000000144000010204100
0202LOTE PADRAO                   KLABIN S/A  PN         KLBN4       010VISTA          000000000001500000000016000000000153000000000000000000016000000027300
0202LOTE PADRAO                   ACESITA     PN *       ACES4       010VISTA          000000000001000000000011000000000100000000000000000000011000177380000
0202LOTE PADRAO                   PETROBRAS   PN         PETR4       010VISTA          000000000048700000000488000000004670000000000000000000487000000132300
0202LOTE PADRAO                   ELETROBRAS  PNB*       ELET6       010VISTA          000000000019600000000201000000001930000000000000000000199000046108300
0202LOTE PADRAO                   PETROBRAS   ON         PETR3       010VISTA          000000000053000000000542000000005200000000000000000000535000000039100
0202LOTE PADRAO                   COMGAS      PNA*       CGAS5       010VISTA          000000000043400000000434000000004250000000000000000000425000000423000
0202LOTE PADRAO                   SOUZA CRUZ  ON EJ      CRUZ3       010VISTA          000000000018500000000186000000001810000000000000000000183000000006600
0202LOTE PADRAO                   ELETROBRAS  ON *       ELET3       010VISTA          000000000017600000000183000000001750000000000000000000180000018102000
0202LOTE PADRAO                   CELESC      PNB        CLSC6       010VISTA          000000000000440000000004600000000044000000000000000000004500000393200
0202LOTE PADRAO                   BRADESCO    PN * EJ    BBDC4       010VISTA          000000000011000000000113000000001090000000000000000000113000157138000
0202LOTE PADRAO                   CESP        PN *       CESP4       010VISTA          000000000005800000000059000000000571000000000000000000059000006791200
0202LOTE PADRAO                   LIGHT       ON *       LIGH3       010VISTA          000000000026600000000266000000002550000000000000000000260000000527400
0202LOTE PADRAO                   TELESP CL PAPN *       TSPP4       010VISTA          000000000004100000000044000000000410000000000000000000043000622250000
0202LOTE PADRAO                   VALE R DOCE PNA        VALE5       010VISTA          000000000089000000000904000000008900000000000000000000902000000026800
0202LOTE PADRAO                   COPEL       PNB*       CPLE6       010VISTA          000000000008300000000085000000000820000000000000000000083000028612400
0202LOTE PADRAO                   VALE R DOCE ON         VALE3       010VISTA          000000000095000000000962000000009500000000000000000000962000000009500
0202LOTE PADRAO                   ARACRUZ     PNB        ARCZ6       010VISTA          000000000006900000000070000000000680000000000000000000070000000066400
0202LOTE PADRAO                   TELEMIG PARTPN *       TMCP4       010VISTA          000000000002710000000027000000000250000000000000000000027100131843000
0202LOTE PADRAO                   BRASIL TELECPN *       BRTO4       010VISTA          000000000011000000000114000000001090000000000000000000112000088303400
0202LOTE PADRAO                   SABESP      ON *       SBSP3       010VISTA          000000000079000000000790000000007710000000000000000000772000004075900
0202LOTE PADRAO                   BRASKEM     PNA*       BRKM5       010VISTA          000000000173000000001790000000017300000000000000000001770000000118600
0202LOTE PADRAO                   EMBRAER     PN EJ      EMBR4       010VISTA          000000000009100000000095000000000900000000000000000000095000000085300
0202LOTE PADRAO                   TELESP      PN * EJ    TLPP4       010VISTA          000000000032300000000326000000003180000000000000000000326000010182300
0202LOTE PADRAO                   EMBRAER     ON EJ      EMBR3       010VISTA          000000000007960000000082000000000770000000000000000000081000000010500
0202LOTE PADRAO                   AMBEV       PN *       AMBV4       010VISTA          000000000540000000005440000000053390000000000000000005430000003664500
0202LOTE PADRAO                   USIMINAS    PNA        USIM5       010VISTA          000000000007500000000077000000000750000000000000000000077000000082200
0202LOTE PADRAO                   ELETROPAULO PN *       ELPL4       010VISTA          000000000022800000000228000000002210000000000000000000225000005609500
0202LOTE PADRAO                   TELE NORD CLPN *       TNEP4       010VISTA          000000000002200000000023000000000225000000000000000000023000083849700
0202LOTE PADRAO                   CEMIG       PN * EJ    CMIG4       010VISTA          000000000025100000000258000000002460000000000000000000258000044338700
0202LOTE PADRAO                   TELE CL SUL PN * EJ    TCSL4       010VISTA          000000000002250000000023000000000210000000000000000000023000127614000
0202LOTE PADRAO                   TRACTEBEL   ON *       TBLE3       010VISTA          000000000003500000000037000000000348000000000000000000036000023560900
0202LOTE PADRAO                   CEMIG       ON * EJ    CMIG3       010VISTA          000000000019000000000204000000001870000000000000000000203000000480000
0202LOTE PADRAO                   TELE CL SUL ON * EJ    TCSL3       010VISTA          000000000001800000000018000000000180000000000000000000018000020206900
0202LOTE PADRAO                   ITAUSA      PN         ITSA4       010VISTA          000000000002000000000020000000000198000000000000000000020000000988000
0202LOTE PADRAO                   V C P       PN *       VCPA4       010VISTA          000000000128500000001290000000012750000000000000000001284000002129100
0202LOTE PADRAO                   SID TUBARAO PN *       CSTB4       010VISTA          000000000040000000000427000000004000000000000000000000423000019561200
0202LOTE PADRAO                   BRADESPAR   PN *       BRAP4       010VISTA          000000000000630000000006400000000062000000000000000000006400101834000
0202LOTE PADRAO                   NET         PN         PLIM4       010VISTA          000000000000280000000002900000000027000000000000000000002800000509200
0202LOTE PADRAO                   TELE CTR OESPN * EJ    TCOC4       010VISTA          000000000005000000000055000000000500000000000000000000054000164371000
0202LOTE PADRAO                   TELEMAR N L PNA* EJ    TMAR5       010VISTA          000000000036200000000367000000003540000000000000000000361000055691400
0202LOTE PADRAO                   GERDAU      PN * EJ    GGBR4       010VISTA          000000000030500000000308000000003030000000000000000000305000032257300
0202LOTE PADRAO                   BRASIL      ON *       BBAS3       010VISTA          000000000010000000000102000000001000000000000000000000102000022193500
