00BDIN9999BOVESPA 99992003012720030127
0101IBOVESPA                      0107680104620107680000000000000000002003012700000020030127010530000000
0202LOTE PADRAO                   EMBRATEL PARPN *       EBTP4       010VISTA          000000000003500000000035000000000320000000000000000000032000859630000
0202LOTE PADRAO                   TRAN PAULISTPN * EJ    TRPL4       010VISTA          000000000005300000000053000000000510000000000000000000051000014189700
0202LOTE PADRAO                   EMBRATEL PARON *       EBTP3       010VISTA          000000000004100000000042000000000370000000000000000000038000069624000
0202LOTE PADRAO                   TELEMAR     PN * EJ    TNLP4       010VISTA          000000000026000000000263000000002580000000000000000000261000302007000
0202LOTE PADRAO                   ITAUBANCO   PN * EJ    ITAU4       010VISTA          000000000152400000001525000000014940000000000000000001510000012150400
0202LOTE PADRAO                   TELEMAR     ON * EJ    TNLP3       010VISTA          000000000019100000000193000000001830000000000000000000188000026863900
0202LOTE PADRAO                   SID NACIONALON *       CSNA3       010VISTA          000000000053500000000536000000005230000000000000000000533000044490100
0202LOTE PADRAO                   TELE LEST CLPN *       TLCP4       010VISTA          000000000000440000000004500000000042000000000000000000004300145648000
0202LOTE PADRAO                   CRT CELULAR PNA* EJ    CRTP5       010VISTA          000000000334000000003340000000031650000000000000000003199000000783600
0202LOTE PADRAO                   IPIRANGA PETPN *       PTIP4       010VISTA          000000000007000000000074000000000700000000000000000000071000001690300
0202LOTE PADRAO                   BRASIL T PARPN *       BRTP4       010VISTA          000000000016600000000170000000001650000000000000000000170000063841000
0202LOTE PADRAO                   BRASIL T PARON *       BRTP3       010VISTA          000000000012600000000129000000001260000000000000000000128000008873600
0202LOTE PADRAO                   KLABIN S/A  PN         KLBN4       010VISTA          000000000001000000000010000000000099000000000000000000010000000019900
0202LOTE PADRAO                   ACESITA     PN *       ACES4       010VISTA          000000000000880000000008800000000084000000000000000000008400180697000
0202LOTE PADRAO                   PETROBRAS   PN         PETR4       010VISTA          000000000044700000000455000000004410000000000000000000452500000226700
0202LOTE PADRAO                   ELETROBRAS  PNB*       ELET6       010VISTA          000000000019800000000203000000001960000000000000000000199000053294500
0202LOTE PADRAO                   PETROBRAS   ON         PETR3       010VISTA          000000000049700000000500000000004850000000000000000000496000000064700
0202LOTE PADRAO                   COMGAS      PNA*       CGAS5       010VISTA          000000000050100000000510000000004900000000000000000000495000001009000
0202LOTE PADRAO                   SOUZA CRUZ  ON EJ      CRUZ3       010VISTA          000000000017750000000179000000001760000000000000000000178000000028000
0202LOTE PADRAO                   ELETROBRAS  ON *       ELET3       010VISTA          000000000018800000000193000000001850000000000000000000187000020578400
0202LOTE PADRAO                   CELESC      PNB        CLSC6       010VISTA          000000000000510000000005100000000049000000000000000000004900000192200
0202LOTE PADRAO                   BRADESCO    PN * EJ    BBDC4       010VISTA          000000000009800000000100000000000980000000000000000000098000207119000
0202LOTE PADRAO                   CESP        PN *       CESP4       010VISTA          000000000006500000000065000000000600000000000000000000060000026389000
0202LOTE PADRAO                   LIGHT       ON *       LIGH3       010VISTA          000000000039800000000410000000003790000000000000000000390000000437200
0202LOTE PADRAO                   TELESP CL PAPN *       TSPP4       010VISTA          000000000003600000000036000000000350000000000000000000035400538643000
0202LOTE PADRAO                   VALE R DOCE PNA        VALE5       010VISTA          000000000090200000000905000000008825000000000000000000885000000027500
0202LOTE PADRAO                   COPEL       PNB*       CPLE6       010VISTA          000000000008600000000086000000000820000000000000000000083000033480200
0202LOTE PADRAO                   VALE R DOCE ON         VALE3       010VISTA          000000000094200000000946000000009340000000000000000000934000000007900
0202LOTE PADRAO                   ARACRUZ     PNB        ARCZ6       010VISTA          000000000006700000000069000000000660000000000000000000067000000026500
0202LOTE PADRAO                   TELEMIG PARTPN *       TMCP4       010VISTA          000000000002690000000027000000000260000000000000000000026000127553000
0202LOTE PADRAO                   BRASIL TELECPN *       BRTO4       010VISTA          000000000010400000000108000000001030000000000000000000108000078775300
0202LOTE PADRAO                   SABESP      ON *       SBSP3       010VISTA          000000000088000000000880000000008470000000000000000000855000003848800
0202LOTE PADRAO                   BRASKEM     PNA*       BRKM5       010VISTA          000000000196000000002150000000019300000000000000000001985000000176500
0202LOTE PADRAO                   EMBRAER     PN EJ      EMBR4       010VISTA          000000000012500000000128000000001230000000000000000000124000000097200
0202LOTE PADRAO                   TELESP      PN * EJ    TLPP4       010VISTA          000000000031600000000318000000003050000000000000000000310000010152900
0202LOTE PADRAO                   EMBRAER     ON EJ      EMBR3       010VISTA          000000000011200000000115000000001100000000000000000000111000000033800
0202LOTE PADRAO                   AMBEV       PN *       AMBV4       010VISTA          000000000478000000004800000000046100000000000000000004779000002532400
0202LOTE PADRAO                   USIMINAS    PNA        USIM5       010VISTA          000000000007300000000073000000000700000000000000000000071000000094100
0202LOTE PADRAO                   ELETROPAULO PN *       ELPL4       010VISTA          000000000027500000000280000000002610000000000000000000265000010898700
0202LOTE PADRAO                   TELE NORD CLPN *       TNEP4       010VISTA          000000000002500000000026000000000240000000000000000000024000077646400
0202LOTE PADRAO                   CEMIG       PN * EJ    CMIG4       010VISTA          000000000026000000000261000000002500000000000000000000253000046645600
0202LOTE PADRAO                   TELE CL SUL PN * EJ    TCSL4       010VISTA          000000000002400000000025400000000230000000000000000000024000134197000
0202LOTE PADRAO                   TRACTEBEL   ON *       TBLE3       010VISTA          000000000003300000000033000000000310000000000000000000032000011187200
0202LOTE PADRAO                   CEMIG       ON * EJ    CMIG3       010VISTA          000000000022500000000228000000002140000000000000000000228000000928600
0202LOTE PADRAO                   TELE CL SUL ON * EJ    TCSL3       010VISTA          000000000001800000000018000000000176000000000000000000017800022214100
0202LOTE PADRAO                   ITAUSA      PN         ITSA4       010VISTA          000000000001780000000018000000000178000000000000000000018000000319500
0202LOTE PADRAO                   V C P       PN *       VCPA4       010VISTA          000000000123000000001230000000011700000000000000000001182000002761500
0202LOTE PADRAO                   SID TUBARAO PN *       CSTB4       010VISTA          000000000034000000000349000000003330000000000000000000337000008183900
0202LOTE PADRAO                   BRADESPAR   PN *       BRAP4       010VISTA          000000000000580000000005900000000057000000000000000000005800286731000
0202LOTE PADRAO                   NET         PN         PLIM4       010VISTA          000000000000370000000003700000000035000000000000000000003600000954200
0202LOTE PADRAO                   TELE CTR OESPN * EJ    TCOC4       010VISTA          000000000004500000000045000000000430000000000000000000044000162545000
0202LOTE PADRAO                   TELEMAR N L PNA* EJ    TMAR5       010VISTA          000000000040800000000408000000003900000000000000000000399000034518700
0202LOTE PADRAO                   GERDAU      PN * EJ    GGBR4       010VISTA          000000000030000000000305000000002960000000000000000000298000024139500
0202LOTE PADRAO                   BRASIL      ON *       BBAS3       010VISTA          000000000009400000000095000000000920000000000000000000093000021550600
