00BDIN9999BOVESPA 99992003061820030618
0101IBOVESPA                      0137900133720138900000000000000000002003061800000020030618013511000000
0202LOTE PADRAO                   EMBRATEL PARPN *       EBTP4       010VISTA          000000000006200000000064000000000580000000000000000000059000954954000
0202LOTE PADRAO                   TRAN PAULISTPN * EJ    TRPL4       010VISTA          000000000007400000000074000000000700000000000000000000070000037873200
0202LOTE PADRAO                   EMBRATEL PARON *       EBTP3       010VISTA          000000000006700000000069000000000610000000000000000000062000129654000
0202LOTE PADRAO                   TELEMAR     PN * EJ    TNLP4       010VISTA          000000000035500000000360000000003500000000000000000000354000400691000
0202LOTE PADRAO                   ITAUBANCO   PN * EJ    ITAU4       010VISTA          000000000194000000001990000000019350000000000000000001956000011103600
0202LOTE PADRAO                   TELEMAR     ON * EJ    TNLP3       010VISTA          000000000025750000000258000000002450000000000000000000252000021457000
0202LOTE PADRAO                   SID NACIONALON *       CSNA3       010VISTA          000000000067700000000685000000006500000000000000000000670000028317300
0202LOTE PADRAO                   TELE LEST CLPN *       TLCP4       010VISTA          000000000000460000000004700000000044000000000000000000004500378303000
0202LOTE PADRAO                   CRT CELULAR PNA* EJ    CRTP5       010VISTA          000000000333000000003380000000032850000000000000000003330000001769300
0202LOTE PADRAO                   IPIRANGA PETPN *       PTIP4       010VISTA          000000000009500000000099000000000950000000000000000000098000048897400
0202LOTE PADRAO                   BRASIL T PARPN *       BRTP4       010VISTA          000000000022100000000223000000002160000000000000000000220000070584900
0202LOTE PADRAO                   BRASIL T PARON *       BRTP3       010VISTA          000000000016800000000168000000001620000000000000000000167000007302400
0202LOTE PADRAO                   KLABIN S/A  PN         KLBN4       010VISTA          000000000002810000000028000000000281000000000000000000028000000237500
0202LOTE PADRAO                   ACESITA     PN *       ACES4       010VISTA          000000000001480000000015300000000147000000000000000000014900526839000
0202LOTE PADRAO                   PETROBRAS   PN         PETR4       010VISTA          000000000054500000000545000000005270000000000000000000535000000112600
0202LOTE PADRAO                   ELETROBRAS  PNB*       ELET6       010VISTA          000000000024900000000251000000002350000000000000000000236000098514700
0202LOTE PADRAO                   PETROBRAS   ON         PETR3       010VISTA          000000000059100000000595000000005710000000000000000000580000000041300
0202LOTE PADRAO                   COMGAS      PNA*       CGAS5       010VISTA          000000000066500000000679000000006450000000000000000000650000001875700
0202LOTE PADRAO                   SOUZA CRUZ  ON EJ      CRUZ3       010VISTA          000000000022300000000223000000002110000000000000000000216000000016700
0202LOTE PADRAO                   ELETROBRAS  ON *       ELET3       010VISTA          000000000022750000000228000000002130000000000000000000216000015254300
0202LOTE PADRAO                   CELESC      PNB        CLSC6       010VISTA          000000000000490000000005000000000047000000000000000000004700000493900
0202LOTE PADRAO                   BRADESCO    PN * EJ    BBDC4       010VISTA          000000000011400000000115000000001120000000000000000000112000258328000
0202LOTE PADRAO                   CESP        PN *       CESP4       010VISTA          000000000008100000000081000000000760000000000000000000079000027881400
0202LOTE PADRAO                   LIGHT       ON *       LIGH3       010VISTA          000000000028000000000281000000002720000000000000000000273000001690300
0202LOTE PADRAO                   TELESP CL PAPN *       TSPP4       010VISTA          000000000004600000000046000000000440000000000000000000044000612126000
0202LOTE PADRAO                   VALE R DOCE PNA        VALE5       010VISTA          000000000080750000000819000000008000000000000000000000809000000039700
0202LOTE PADRAO                   COPEL       PNB*       CPLE6       010VISTA          000000000010400000000104000000000990000000000000000000099000077366500
0202LOTE PADRAO                   VALE R DOCE ON         VALE3       010VISTA          000000000086700000000882000000008660000000000000000000877000000009200
0202LOTE PADRAO                   ARACRUZ     PNB        ARCZ6       010VISTA          000000000005800000000059000000000560000000000000000000058000000074200
0202LOTE PADRAO                   TELEMIG PARTPN *       TMCP4       010VISTA          000000000003000000000030000000000280000000000000000000029000192314000
0202LOTE PADRAO                   BRASIL TELECPN *       BRTO4       010VISTA          000000000013300000000135000000001310000000000000000000134000148196000
0202LOTE PADRAO                   SABESP      ON *       SBSP3       010VISTA          000000000113000000001142000000011050000000000000000001112000007703500
0202LOTE PADRAO                   BRASKEM     PNA*       BRKM5       010VISTA          000000000385000000003930000000037500000000000000000003778000000435200
0202LOTE PADRAO                   EMBRAER     PN EJ      EMBR4       010VISTA          000000000014500000000147500000001400000000000000000000140000000295800
0202LOTE PADRAO                   TELESP      PN * EJ    TLPP4       010VISTA          000000000032500000000330000000003200000000000000000000326000012797200
0202LOTE PADRAO                   EMBRAER     ON EJ      EMBR3       010VISTA          000000000011600000000116000000001110000000000000000000112000000040000
0202LOTE PADRAO                   AMBEV       PN *       AMBV4       010VISTA          000000000596500000005980000000059010000000000000000005940000005222900
0202LOTE PADRAO                   USIMINAS    PNA        USIM5       010VISTA          000000000012600000000126000000001210000000000000000000124000000102000
0202LOTE PADRAO                   ELETROPAULO PN *       ELPL4       010VISTA          000000000028200000000288000000002750000000000000000000280000013271700
0202LOTE PADRAO                   TELE NORD CLPN *       TNEP4       010VISTA          000000000002400000000025000000000230000000000000000000023000231762000
0202LOTE PADRAO                   CEMIG       PN * EJ    CMIG4       010VISTA          000000000030100000000301000000002860000000000000000000296000061705700
0202LOTE PADRAO                   TELE CL SUL PN * EJ    TCSL4       010VISTA          000000000002500000000026000000000240000000000000000000025000241466000
0202LOTE PADRAO                   TRACTEBEL   ON *       TBLE3       010VISTA          000000000006600000000068000000000650000000000000000000068000043397500
0202LOTE PADRAO                   CEMIG       ON * EJ    CMIG3       010VISTA          000000000023200000000237000000002310000000000000000000234000000580300
0202LOTE PADRAO                   TELE CL SUL ON * EJ    TCSL3       010VISTA          000000000002200000000022000000000200000000000000000000022000049833400
0202LOTE PADRAO                   ITAUSA      PN         ITSA4       010VISTA          000000000002300000000024000000000220000000000000000000023000000609700
0202LOTE PADRAO                   V C P       PN *       VCPA4       010VISTA          000000000111000000001130000000010800000000000000000001085000004242100
0202LOTE PADRAO                   SID TUBARAO PN *       CSTB4       010VISTA          000000000048600000000498000000004850000000000000000000486000005919100
0202LOTE PADRAO                   BRADESPAR   PN *       BRAP4       010VISTA          000000000000640000000006500000000062000000000000000000006300316311000
0202LOTE PADRAO                   NET         PN         PLIM4       010VISTA          000000000000350000000003600000000031000000000000000000003300002699000
0202LOTE PADRAO                   TELE CTR OESPN * EJ    TCOC4       010VISTA          000000000005500000000057000000000530000000000000000000054000155908000
0202LOTE PADRAO                   TELEMAR N L PNA* EJ    TMAR5       010VISTA          000000000043500000000435000000004120000000000000000000425000021193800
0202LOTE PADRAO                   GERDAU      PN * EJ    GGBR4       010VISTA          000000000032600000000330000000003110000000000000000000317000000062800
0202LOTE PADRAO                   BRASIL      ON *       BBAS3       010VISTA          000000000014300000000144000000001360000000000000000000138000053402500
