00BDIN9999BOVESPA 99992003062020030620
0101IBOVESPA                      0135140131050135140000000000000000002003062000000020030620013131000000
0202LOTE PADRAO                   EMBRATEL PARPN *       EBTP4       010VISTA          000000000005960000000059000000000550000000000000000000055000524307000
0202LOTE PADRAO                   TRAN PAULISTPN * EJ    TRPL4       010VISTA          000000000007000000000070000000000660000000000000000000069000014980100
0202LOTE PADRAO                   EMBRATEL PARON *       EBTP3       010VISTA          000000000006200000000062000000000575000000000000000000057500128461000
0202LOTE PADRAO                   TELEMAR     PN * EJ    TNLP4       010VISTA          000000000034900000000352000000003390000000000000000000341000247469000
0202LOTE PADRAO                   ITAUBANCO   PN * EJ    ITAU4       010VISTA          000000000193500000001975000000019300000000000000000001975000006951100
0202LOTE PADRAO                   TELEMAR     ON * EJ    TNLP3       010VISTA          000000000025000000000250000000002400000000000000000000241000008194100
0202LOTE PADRAO                   SID NACIONALON *       CSNA3       010VISTA          000000000066000000000678000000006500000000000000000000665000012042900
0202LOTE PADRAO                   TELE LEST CLPN *       TLCP4       010VISTA          000000000000450000000004500000000044000000000000000000004400170087000
0202LOTE PADRAO                   CRT CELULAR PNA* EJ    CRTP5       010VISTA          000000000322000000003285000000032200000000000000000003268000000392500
0202LOTE PADRAO                   IPIRANGA PETPN *       PTIP4       010VISTA          000000000009800000000104000000000980000000000000000000101000029622700
0202LOTE PADRAO                   BRASIL T PARPN *       BRTP4       010VISTA          000000000021300000000216000000002130000000000000000000215000028252500
0202LOTE PADRAO                   BRASIL T PARON *       BRTP3       010VISTA          000000000016500000000165000000001550000000000000000000161000007030300
0202LOTE PADRAO                   KLABIN S/A  PN         KLBN4       010VISTA          000000000002800000000029400000000270000000000000000000029000000070600
0202LOTE PADRAO                   ACESITA     PN *       ACES4       010VISTA          000000000001480000000015000000000140000000000000000000014700102006000
0202LOTE PADRAO                   PETROBRAS   PN         PETR4       010VISTA          000000000053200000000532000000005080000000000000000000511000000132100
0202LOTE PADRAO                   ELETROBRAS  PNB*       ELET6       010VISTA          000000000023600000000236000000002270000000000000000000228000049693000
0202LOTE PADRAO                   PETROBRAS   ON         PETR3       010VISTA          000000000057200000000574000000005520000000000000000000552000000043200
0202LOTE PADRAO                   COMGAS      PNA*       CGAS5       010VISTA          000000000064000000000663000000006300000000000000000000663000001148000
0202LOTE PADRAO                   SOUZA CRUZ  ON EJ      CRUZ3       010VISTA          000000000020800000000219000000002080000000000000000000208000000006300
0202LOTE PADRAO                   ELETROBRAS  ON *       ELET3       010VISTA          000000000021800000000218000000002020000000000000000000206000021038600
0202LOTE PADRAO                   CELESC      PNB        CLSC6       010VISTA          000000000000470000000004700000000046000000000000000000004700000181200
0202LOTE PADRAO                   BRADESCO    PN * EJ    BBDC4       010VISTA          000000000011300000000113000000001110000000000000000000111000174081000
0202LOTE PADRAO                   CESP        PN *       CESP4       010VISTA          000000000007900000000079000000000750000000000000000000075000013820100
0202LOTE PADRAO                   LIGHT       ON *       LIGH3       010VISTA          000000000027300000000280000000002700000000000000000000270000001017900
0202LOTE PADRAO                   TELESP CL PAPN *       TSPP4       010VISTA          000000000004400000000044000000000430000000000000000000044000326346000
0202LOTE PADRAO                   VALE R DOCE PNA        VALE5       010VISTA          000000000081500000000815000000008020000000000000000000805000000045400
0202LOTE PADRAO                   COPEL       PNB*       CPLE6       010VISTA          000000000010000000000100000000000930000000000000000000096000084042000
0202LOTE PADRAO                   VALE R DOCE ON         VALE3       010VISTA          000000000087000000000884000000008500000000000000000000864000000005500
0202LOTE PADRAO                   ARACRUZ     PNB        ARCZ6       010VISTA          000000000005700000000058000000000570000000000000000000058000000030500
0202LOTE PADRAO                   TELEMIG PARTPN *       TMCP4       010VISTA          000000000002900000000029000000000280000000000000000000028000107751000
0202LOTE PADRAO                   BRASIL TELECPN *       BRTO4       010VISTA          000000000013100000000133000000001300000000000000000000133000049580400
0202LOTE PADRAO                   SABESP      ON *       SBSP3       010VISTA          000000000110500000001112000000010810000000000000000001081000004516400
0202LOTE PADRAO                   BRASKEM     PNA*       BRKM5       010VISTA          000000000378000000003800000000036000000000000000000003730000000153000
0202LOTE PADRAO                   EMBRAER     PN EJ      EMBR4       010VISTA          000000000014100000000143000000001350000000000000000000139000000169300
0202LOTE PADRAO                   TELESP      PN * EJ    TLPP4       010VISTA          000000000032000000000320000000003110000000000000000000318000008148700
0202LOTE PADRAO                   EMBRAER     ON EJ      EMBR3       010VISTA          000000000011100000000112000000001070000000000000000000108000000023200
0202LOTE PADRAO                   AMBEV       PN *       AMBV4       010VISTA          000000000594000000005985000000058500000000000000000005900000001621000
0202LOTE PADRAO                   USIMINAS    PNA        USIM5       010VISTA          000000000012300000000128000000001200000000000000000000124000000056800
0202LOTE PADRAO                   ELETROPAULO PN *       ELPL4       010VISTA          000000000027600000000279000000002680000000000000000000268000007131500
0202LOTE PADRAO                   TELE NORD CLPN *       TNEP4       010VISTA          000000000002300000000023000000000220000000000000000000022000074847200
0202LOTE PADRAO                   CEMIG       PN * EJ    CMIG4       010VISTA          000000000028700000000288000000002810000000000000000000282000061544200
0202LOTE PADRAO                   TELE CL SUL PN * EJ    TCSL4       010VISTA          000000000002400000000024000000000230000000000000000000023000090981400
0202LOTE PADRAO                   TRACTEBEL   ON *       TBLE3       010VISTA          000000000006700000000071000000000660000000000000000000070000022494600
0202LOTE PADRAO                   CEMIG       ON * EJ    CMIG3       010VISTA          000000000023100000000231000000002230000000000000000000223000001945900
0202LOTE PADRAO                   TELE CL SUL ON * EJ    TCSL3       010VISTA          000000000002100000000021000000000200000000000000000000020000021022900
0202LOTE PADRAO                   ITAUSA      PN         ITSA4       010VISTA          000000000002300000000023000000000220000000000000000000023000000362400
0202LOTE PADRAO                   V C P       PN *       VCPA4       010VISTA          000000000107200000001075000000010500000000000000000001057000003306100
0202LOTE PADRAO                   SID TUBARAO PN *       CSTB4       010VISTA          000000000048500000000493000000004720000000000000000000472000005880200
0202LOTE PADRAO                   BRADESPAR   PN *       BRAP4       010VISTA          000000000000630000000006400000000062000000000000000000006200158382000
0202LOTE PADRAO                   NET         PN         PLIM4       010VISTA          000000000000330000000003300000000031000000000000000000003100000706200
0202LOTE PADRAO                   TELE CTR OESPN * EJ    TCOC4       010VISTA          000000000005400000000054000000000520000000000000000000054000086856400
0202LOTE PADRAO                   TELEMAR N L PNA* EJ    TMAR5       010VISTA          000000000041500000000417000000004100000000000000000000410000012175800
0202LOTE PADRAO                   GERDAU      PN * EJ    GGBR4       010VISTA          000000000031600000000317000000003000000000000000000000305000000030500
0202LOTE PADRAO                   BRASIL      ON *       BBAS3       010VISTA          000000000013500000000138000000001310000000000000000000135000035574800
