00BDIN9999BOVESPA 99992003061720030617
0101IBOVESPA                      0138430137320139730000000000000000002003061700000020030617013777000000
0202LOTE PADRAO                   EMBRATEL PARPN *       EBTP4       010VISTA          000000000006200000000063000000000610000000000000000000062500530402000
0202LOTE PADRAO                   TRAN PAULISTPN * EJ    TRPL4       010VISTA          000000000007200000000073000000000720000000000000000000072500027708700
0202LOTE PADRAO                   EMBRATEL PARON *       EBTP3       010VISTA          000000000006600000000069000000000650000000000000000000067500062698900
0202LOTE PADRAO                   TELEMAR     PN * EJ    TNLP4       010VISTA          000000000036100000000362000000003525000000000000000000355000312384000
0202LOTE PADRAO                   ITAUBANCO   PN * EJ    ITAU4       010VISTA          000000000196700000001995000000019650000000000000000001995000006904200
0202LOTE PADRAO                   TELEMAR     ON * EJ    TNLP3       010VISTA          000000000025600000000261000000002500000000000000000000257500006627700
0202LOTE PADRAO                   SID NACIONALON *       CSNA3       010VISTA          000000000067000000000679000000006620000000000000000000677000029413600
0202LOTE PADRAO                   TELE LEST CLPN *       TLCP4       010VISTA          000000000000480000000004800000000046000000000000000000004600102609000
0202LOTE PADRAO                   CRT CELULAR PNA* EJ    CRTP5       010VISTA          000000000341900000003419000000033300000000000000000003350000000504700
0202LOTE PADRAO                   IPIRANGA PETPN *       PTIP4       010VISTA          000000000009100000000095000000000910000000000000000000094000011923100
0202LOTE PADRAO                   BRASIL T PARPN *       BRTP4       010VISTA          000000000022300000000225000000002210000000000000000000221000022890700
0202LOTE PADRAO                   BRASIL T PARON *       BRTP3       010VISTA          000000000017000000000171000000001650000000000000000000168000004245600
0202LOTE PADRAO                   KLABIN S/A  PN         KLBN4       010VISTA          000000000002810000000028000000000270000000000000000000028000000087500
0202LOTE PADRAO                   ACESITA     PN *       ACES4       010VISTA          000000000001400000000014900000000140000000000000000000014000298354000
0202LOTE PADRAO                   PETROBRAS   PN         PETR4       010VISTA          000000000054200000000547000000005420000000000000000000542000000058500
0202LOTE PADRAO                   ELETROBRAS  PNB*       ELET6       010VISTA          000000000025300000000256000000002470000000000000000000247000045508400
0202LOTE PADRAO                   PETROBRAS   ON         PETR3       010VISTA          000000000059000000000597000000005900000000000000000000590000000036800
0202LOTE PADRAO                   COMGAS      PNA*       CGAS5       010VISTA          000000000069900000000699000000006650000000000000000000669000000616000
0202LOTE PADRAO                   SOUZA CRUZ  ON EJ      CRUZ3       010VISTA          000000000022300000000226000000002175000000000000000000223000000014500
0202LOTE PADRAO                   ELETROBRAS  ON *       ELET3       010VISTA          000000000023100000000235000000002280000000000000000000228000008370900
0202LOTE PADRAO                   CELESC      PNB        CLSC6       010VISTA          000000000000490000000005000000000049000000000000000000004900000207500
0202LOTE PADRAO                   BRADESCO    PN * EJ    BBDC4       010VISTA          000000000011500000000115000000001130000000000000000000114000227293000
0202LOTE PADRAO                   CESP        PN *       CESP4       010VISTA          000000000008300000000083000000000810000000000000000000081000007369200
0202LOTE PADRAO                   LIGHT       ON *       LIGH3       010VISTA          000000000028600000000291000000002790000000000000000000279000001002600
0202LOTE PADRAO                   TELESP CL PAPN *       TSPP4       010VISTA          000000000004600000000047000000000450000000000000000000045000249121000
0202LOTE PADRAO                   VALE R DOCE PNA        VALE5       010VISTA          000000000080000000000808000000007960000000000000000000799000000037800
0202LOTE PADRAO                   COPEL       PNB*       CPLE6       010VISTA          000000000010300000000105000000001030000000000000000000104000085245900
0202LOTE PADRAO                   VALE R DOCE ON         VALE3       010VISTA          000000000085200000000874000000008520000000000000000000874000000018900
0202LOTE PADRAO                   ARACRUZ     PNB        ARCZ6       010VISTA          000000000005700000000059000000000570000000000000000000058000000033800
0202LOTE PADRAO                   TELEMIG PARTPN *       TMCP4       010VISTA          000000000003100000000031000000000300000000000000000000030000092056100
0202LOTE PADRAO                   BRASIL TELECPN *       BRTO4       010VISTA          000000000013800000000138000000001340000000000000000000135000068129100
0202LOTE PADRAO                   SABESP      ON *       SBSP3       010VISTA          000000000113900000001145000000011300000000000000000001140000003840800
0202LOTE PADRAO                   BRASKEM     PNA*       BRKM5       010VISTA          000000000400000000004049000000038900000000000000000003920000001049500
0202LOTE PADRAO                   EMBRAER     PN EJ      EMBR4       010VISTA          000000000014100000000145000000001410000000000000000000144000000165600
0202LOTE PADRAO                   TELESP      PN * EJ    TLPP4       010VISTA          000000000033300000000337000000003270000000000000000000330000012800500
0202LOTE PADRAO                   EMBRAER     ON EJ      EMBR3       010VISTA          000000000011500000000118000000001140000000000000000000114000000040600
0202LOTE PADRAO                   AMBEV       PN *       AMBV4       010VISTA          000000000596300000006019000000059630000000000000000006000000001627700
0202LOTE PADRAO                   USIMINAS    PNA        USIM5       010VISTA          000000000013000000000131000000001240000000000000000000124000000104500
0202LOTE PADRAO                   ELETROPAULO PN *       ELPL4       010VISTA          000000000029000000000293000000002780000000000000000000282000007021000
0202LOTE PADRAO                   TELE NORD CLPN *       TNEP4       010VISTA          000000000002400000000025000000000240000000000000000000024000105018000
0202LOTE PADRAO                   CEMIG       PN * EJ    CMIG4       010VISTA          000000000030200000000303000000002930000000000000000000296000047798200
0202LOTE PADRAO                   TELE CL SUL PN * EJ    TCSL4       010VISTA          000000000002600000000026000000000250000000000000000000025000115074000
0202LOTE PADRAO                   TRACTEBEL   ON *       TBLE3       010VISTA          000000000006400000000067000000000640000000000000000000066000142227000
0202LOTE PADRAO                   CEMIG       ON * EJ    CMIG3       010VISTA          000000000023500000000236000000002330000000000000000000234000000620300
0202LOTE PADRAO                   TELE CL SUL ON * EJ    TCSL3       010VISTA          000000000002200000000023000000000220000000000000000000022000018291100
0202LOTE PADRAO                   ITAUSA      PN         ITSA4       010VISTA          000000000002400000000024000000000230000000000000000000023000000289600
0202LOTE PADRAO                   V C P       PN *       VCPA4       010VISTA          000000000109500000001120000000010950000000000000000001114000003035000
0202LOTE PADRAO                   SID TUBARAO PN *       CSTB4       010VISTA          000000000050750000000510000000004910000000000000000000491000007752100
0202LOTE PADRAO                   BRADESPAR   PN *       BRAP4       010VISTA          000000000000650000000006600000000064000000000000000000006400121630000
0202LOTE PADRAO                   NET         PN         PLIM4       010VISTA          000000000000360000000003600000000034000000000000000000003400000840600
0202LOTE PADRAO                   TELE CTR OESPN * EJ    TCOC4       010VISTA          000000000005700000000057500000000550000000000000000000056000138792000
0202LOTE PADRAO                   TELEMAR N L PNA* EJ    TMAR5       010VISTA          000000000044000000000442000000004250000000000000000000429000023322600
0202LOTE PADRAO                   GERDAU      PN * EJ    GGBR4       010VISTA          000000000032800000000332000000003250000000000000000000326000000028400
0202LOTE PADRAO                   BRASIL      ON *       BBAS3       010VISTA          000000000014700000000149000000001400000000000000000000141000032567500
