00BDIN9999BOVESPA 99992003031920030319
0101IBOVESPA                      0111430109440111430000000000000000002003031900000020030319011006000000
0202LOTE PADRAO                   EMBRATEL PARPN *       EBTP4       010VISTA          000000000003400000000034000000000320000000000000000000032000345029000
0202LOTE PADRAO                   TRAN PAULISTPN * EJ    TRPL4       010VISTA          000000000005500000000055000000000530000000000000000000053000022004900
0202LOTE PADRAO                   EMBRATEL PARON *       EBTP3       010VISTA          000000000003800000000038000000000360000000000000000000036000052961000
0202LOTE PADRAO                   TELEMAR     PN * EJ    TNLP4       010VISTA          000000000026900000000271000000002670000000000000000000270000223583000
0202LOTE PADRAO                   ITAUBANCO   PN * EJ    ITAU4       010VISTA          000000000176000000001790000000017550000000000000000001790000008854000
0202LOTE PADRAO                   TELEMAR     ON * EJ    TNLP3       010VISTA          000000000019100000000193000000001870000000000000000000193000020206000
0202LOTE PADRAO                   SID NACIONALON *       CSNA3       010VISTA          000000000059900000000605000000005930000000000000000000603000020238100
0202LOTE PADRAO                   TELE LEST CLPN *       TLCP4       010VISTA          000000000000420000000004300000000041000000000000000000004100218447000
0202LOTE PADRAO                   CRT CELULAR PNA* EJ    CRTP5       010VISTA          000000000325000000003250000000031700000000000000000003213000000559600
0202LOTE PADRAO                   IPIRANGA PETPN *       PTIP4       010VISTA          000000000007200000000072000000000700000000000000000000070000003360000
0202LOTE PADRAO                   BRASIL T PARPN *       BRTP4       010VISTA          000000000019300000000195000000001910000000000000000000192000090102300
0202LOTE PADRAO                   BRASIL T PARON *       BRTP3       010VISTA          000000000014100000000145000000001400000000000000000000144000010773300
0202LOTE PADRAO                   KLABIN S/A  PN         KLBN4       010VISTA          000000000001600000000016000000000150000000000000000000016000000067600
0202LOTE PADRAO                   ACESITA     PN *       ACES4       010VISTA          000000000001100000000011000000000100000000000000000000010000198800000
0202LOTE PADRAO                   PETROBRAS   PN         PETR4       010VISTA          000000000047100000000482000000004700000000000000000000477000000127400
0202LOTE PADRAO                   ELETROBRAS  PNB*       ELET6       010VISTA          000000000020250000000203000000001975000000000000000000198000082635400
0202LOTE PADRAO                   PETROBRAS   ON         PETR3       010VISTA          000000000052100000000535000000005210000000000000000000530000000037200
0202LOTE PADRAO                   COMGAS      PNA*       CGAS5       010VISTA          000000000043100000000437000000004250000000000000000000437000000636000
0202LOTE PADRAO                   SOUZA CRUZ  ON EJ      CRUZ3       010VISTA          000000000018800000000188000000001780000000000000000000181000000015400
0202LOTE PADRAO                   ELETROBRAS  ON *       ELET3       010VISTA          000000000018100000000186000000001780000000000000000000178000019935500
0202LOTE PADRAO                   CELESC      PNB        CLSC6       010VISTA          000000000000460000000004600000000044000000000000000000004500000196800
0202LOTE PADRAO                   BRADESCO    PN * EJ    BBDC4       010VISTA          000000000011100000000112000000001100000000000000000000111000268253000
0202LOTE PADRAO                   CESP        PN *       CESP4       010VISTA          000000000006000000000060000000000570000000000000000000058000011467800
0202LOTE PADRAO                   LIGHT       ON *       LIGH3       010VISTA          000000000027500000000275000000002630000000000000000000266000000401200
0202LOTE PADRAO                   TELESP CL PAPN *       TSPP4       010VISTA          000000000004100000000043000000000410000000000000000000042500921132000
0202LOTE PADRAO                   VALE R DOCE PNA        VALE5       010VISTA          000000000089900000000902000000008875000000000000000000890000000023900
0202LOTE PADRAO                   COPEL       PNB*       CPLE6       010VISTA          000000000008500000000085000000000830000000000000000000083000060696600
0202LOTE PADRAO                   VALE R DOCE ON         VALE3       010VISTA          000000000095300000000963000000009420000000000000000000943000000012600
0202LOTE PADRAO                   ARACRUZ     PNB        ARCZ6       010VISTA          000000000006900000000070000000000670000000000000000000069000000024800
0202LOTE PADRAO                   TELEMIG PARTPN *       TMCP4       010VISTA          000000000002900000000029000000000271000000000000000000027000156794000
0202LOTE PADRAO                   BRASIL TELECPN *       BRTO4       010VISTA          000000000011300000000114000000001110000000000000000000112000138479000
0202LOTE PADRAO                   SABESP      ON *       SBSP3       010VISTA          000000000080000000000818000000007850000000000000000000790000008130900
0202LOTE PADRAO                   BRASKEM     PNA*       BRKM5       010VISTA          000000000178000000001840000000017710000000000000000001771000001180800
0202LOTE PADRAO                   EMBRAER     PN EJ      EMBR4       010VISTA          000000000009300000000093000000000910000000000000000000092000000062600
0202LOTE PADRAO                   TELESP      PN * EJ    TLPP4       010VISTA          000000000032600000000331000000003200000000000000000000323000012772100
0202LOTE PADRAO                   EMBRAER     ON EJ      EMBR3       010VISTA          000000000007800000000079000000000760000000000000000000079000000022100
0202LOTE PADRAO                   AMBEV       PN *       AMBV4       010VISTA          000000000530000000005560000000053000000000000000000005414000002888000
0202LOTE PADRAO                   USIMINAS    PNA        USIM5       010VISTA          000000000007500000000076000000000750000000000000000000076000000051100
0202LOTE PADRAO                   ELETROPAULO PN *       ELPL4       010VISTA          000000000024600000000246000000002280000000000000000000230000004616200
0202LOTE PADRAO                   TELE NORD CLPN *       TNEP4       010VISTA          000000000002300000000023000000000220000000000000000000022000083903700
0202LOTE PADRAO                   CEMIG       PN * EJ    CMIG4       010VISTA          000000000026000000000260000000002530000000000000000000256000043884400
0202LOTE PADRAO                   TELE CL SUL PN * EJ    TCSL4       010VISTA          000000000002300000000023000000000220000000000000000000022000084041300
0202LOTE PADRAO                   TRACTEBEL   ON *       TBLE3       010VISTA          000000000003300000000037000000000330000000000000000000036000034123400
0202LOTE PADRAO                   CEMIG       ON * EJ    CMIG3       010VISTA          000000000020500000000205000000001950000000000000000000195000000498300
0202LOTE PADRAO                   TELE CL SUL ON * EJ    TCSL3       010VISTA          000000000001800000000018000000000179000000000000000000018000020186000
0202LOTE PADRAO                   ITAUSA      PN         ITSA4       010VISTA          000000000001990000000020000000000197000000000000000000020000000609700
0202LOTE PADRAO                   V C P       PN *       VCPA4       010VISTA          000000000131500000001315000000012800000000000000000001306000000939200
0202LOTE PADRAO                   SID TUBARAO PN *       CSTB4       010VISTA          000000000041900000000419000000003960000000000000000000405000016091400
0202LOTE PADRAO                   BRADESPAR   PN *       BRAP4       010VISTA          000000000000660000000006600000000063000000000000000000006300200786000
0202LOTE PADRAO                   NET         PN         PLIM4       010VISTA          000000000000290000000003000000000028000000000000000000002800002453500
0202LOTE PADRAO                   TELE CTR OESPN * EJ    TCOC4       010VISTA          000000000005200000000053000000000500000000000000000000052000184304000
0202LOTE PADRAO                   TELEMAR N L PNA* EJ    TMAR5       010VISTA          000000000037200000000374000000003550000000000000000000367000037814400
0202LOTE PADRAO                   GERDAU      PN * EJ    GGBR4       010VISTA          000000000031300000000313000000003030000000000000000000308000022410600
0202LOTE PADRAO                   BRASIL      ON *       BBAS3       010VISTA          000000000010300000000103000000001000000000000000000000101000042696800
