00BDIN9999BOVESPA 99992003031420030314
0101IBOVESPA                      0107920107550109240000000000000000002003031400000020030314010817000000
0202LOTE PADRAO                   EMBRATEL PARPN *       EBTP4       010VISTA          000000000003400000000034800000000327000000000000000000032000345581000
0202LOTE PADRAO                   TRAN PAULISTPN * EJ    TRPL4       010VISTA          000000000005750000000057500000000550000000000000000000055000005322500
0202LOTE PADRAO                   EMBRATEL PARON *       EBTP3       010VISTA          000000000003940000000039000000000370000000000000000000037500054171400
0202LOTE PADRAO                   TELEMAR     PN * EJ    TNLP4       010VISTA          000000000026300000000263000000002580000000000000000000259000286463000
0202LOTE PADRAO                   ITAUBANCO   PN * EJ    ITAU4       010VISTA          000000000171700000001740000000017000000000000000000001730000008465300
0202LOTE PADRAO                   TELEMAR     ON * EJ    TNLP3       010VISTA          000000000019000000000190000000001850000000000000000000186000014329200
0202LOTE PADRAO                   SID NACIONALON *       CSNA3       010VISTA          000000000058000000000589000000005725000000000000000000585000016102300
0202LOTE PADRAO                   TELE LEST CLPN *       TLCP4       010VISTA          000000000000400000000004100000000038000000000000000000003900132682000
0202LOTE PADRAO                   CRT CELULAR PNA* EJ    CRTP5       010VISTA          000000000316000000003199000000031400000000000000000003165000000352600
0202LOTE PADRAO                   IPIRANGA PETPN *       PTIP4       010VISTA          000000000007200000000073000000000700000000000000000000073000001784400
0202LOTE PADRAO                   BRASIL T PARPN *       BRTP4       010VISTA          000000000018500000000190000000001850000000000000000000188000084773800
0202LOTE PADRAO                   BRASIL T PARON *       BRTP3       010VISTA          000000000014900000000149000000001380000000000000000000141000011921900
0202LOTE PADRAO                   KLABIN S/A  PN         KLBN4       010VISTA          000000000001520000000016000000000152000000000000000000015500000098700
0202LOTE PADRAO                   ACESITA     PN *       ACES4       010VISTA          000000000001100000000012000000000110000000000000000000011000169280000
0202LOTE PADRAO                   PETROBRAS   PN         PETR4       010VISTA          000000000045900000000468000000004570000000000000000000461000000096900
0202LOTE PADRAO                   ELETROBRAS  PNB*       ELET6       010VISTA          000000000019300000000196000000001910000000000000000000194000115047000
0202LOTE PADRAO                   PETROBRAS   ON         PETR3       010VISTA          000000000050900000000514000000005050000000000000000000511000000021200
0202LOTE PADRAO                   COMGAS      PNA*       CGAS5       010VISTA          000000000044900000000451000000004370000000000000000000440000001286700
0202LOTE PADRAO                   SOUZA CRUZ  ON EJ      CRUZ3       010VISTA          000000000018700000000187000000001830000000000000000000186000000010700
0202LOTE PADRAO                   ELETROBRAS  ON *       ELET3       010VISTA          000000000017800000000181000000001750000000000000000000180000025447200
0202LOTE PADRAO                   CELESC      PNB        CLSC6       010VISTA          000000000000480000000004800000000045000000000000000000004600000194900
0202LOTE PADRAO                   BRADESCO    PN * EJ    BBDC4       010VISTA          000000000010900000000111000000001090000000000000000000110000202625000
0202LOTE PADRAO                   CESP        PN *       CESP4       010VISTA          000000000006400000000064000000000600000000000000000000060000012078900
0202LOTE PADRAO                   LIGHT       ON *       LIGH3       010VISTA          000000000028500000000299000000002700000000000000000000280000000565900
0202LOTE PADRAO                   TELESP CL PAPN *       TSPP4       010VISTA          000000000003800000000039000000000380000000000000000000038000525813000
0202LOTE PADRAO                   VALE R DOCE PNA        VALE5       010VISTA          000000000092000000000920000000008920000000000000000000900000000016800
0202LOTE PADRAO                   COPEL       PNB*       CPLE6       010VISTA          000000000008500000000088000000000850000000000000000000087500052812900
0202LOTE PADRAO                   VALE R DOCE ON         VALE3       010VISTA          000000000097400000000979000000009520000000000000000000962000000009100
0202LOTE PADRAO                   ARACRUZ     PNB        ARCZ6       010VISTA          000000000006700000000073000000000679000000000000000000071000000117100
0202LOTE PADRAO                   TELEMIG PARTPN *       TMCP4       010VISTA          000000000002800000000029000000000280000000000000000000028000082428400
0202LOTE PADRAO                   BRASIL TELECPN *       BRTO4       010VISTA          000000000011100000000114000000001100000000000000000000112000094530100
0202LOTE PADRAO                   SABESP      ON *       SBSP3       010VISTA          000000000078900000000805000000007890000000000000000000795000004666800
0202LOTE PADRAO                   BRASKEM     PNA*       BRKM5       010VISTA          000000000173000000001730000000016800000000000000000001680000000393400
0202LOTE PADRAO                   EMBRAER     PN EJ      EMBR4       010VISTA          000000000008400000000087500000000820000000000000000000086000000106900
0202LOTE PADRAO                   TELESP      PN * EJ    TLPP4       010VISTA          000000000032700000000331000000003250000000000000000000326000016801000
0202LOTE PADRAO                   EMBRAER     ON EJ      EMBR3       010VISTA          000000000007200000000072000000000700000000000000000000072000000043800
0202LOTE PADRAO                   AMBEV       PN *       AMBV4       010VISTA          000000000515000000005380000000051500000000000000000005380000002783300
0202LOTE PADRAO                   USIMINAS    PNA        USIM5       010VISTA          000000000007600000000077000000000760000000000000000000077000000044100
0202LOTE PADRAO                   ELETROPAULO PN *       ELPL4       010VISTA          000000000023000000000238000000002260000000000000000000232000003864400
0202LOTE PADRAO                   TELE NORD CLPN *       TNEP4       010VISTA          000000000002300000000024000000000230000000000000000000023000198260000
0202LOTE PADRAO                   CEMIG       PN * EJ    CMIG4       010VISTA          000000000024900000000255000000002450000000000000000000250000056372500
0202LOTE PADRAO                   TELE CL SUL PN * EJ    TCSL4       010VISTA          000000000002400000000024000000000220000000000000000000023000072756100
0202LOTE PADRAO                   TRACTEBEL   ON *       TBLE3       010VISTA          000000000003200000000035000000000320000000000000000000034000013820600
0202LOTE PADRAO                   CEMIG       ON * EJ    CMIG3       010VISTA          000000000020500000000205000000001930000000000000000000201000000919800
0202LOTE PADRAO                   TELE CL SUL ON * EJ    TCSL3       010VISTA          000000000001900000000019000000000180000000000000000000018000030788900
0202LOTE PADRAO                   ITAUSA      PN         ITSA4       010VISTA          000000000001960000000019800000000195000000000000000000019700000350500
0202LOTE PADRAO                   V C P       PN *       VCPA4       010VISTA          000000000125000000001330000000012500000000000000000001320000001548600
0202LOTE PADRAO                   SID TUBARAO PN *       CSTB4       010VISTA          000000000043600000000437000000004270000000000000000000432000006073200
0202LOTE PADRAO                   BRADESPAR   PN *       BRAP4       010VISTA          000000000000670000000006800000000065000000000000000000006500122543000
0202LOTE PADRAO                   NET         PN         PLIM4       010VISTA          000000000000310000000003200000000030000000000000000000003100000854100
0202LOTE PADRAO                   TELE CTR OESPN * EJ    TCOC4       010VISTA          000000000004900000000050000000000480000000000000000000049000075447000
0202LOTE PADRAO                   TELEMAR N L PNA* EJ    TMAR5       010VISTA          000000000036400000000367000000003570000000000000000000358000026919500
0202LOTE PADRAO                   GERDAU      PN * EJ    GGBR4       010VISTA          000000000031600000000320000000003130000000000000000000313000013348500
0202LOTE PADRAO                   BRASIL      ON *       BBAS3       010VISTA          000000000010250000000104000000001000000000000000000000101000027117700
