00BDIN9999BOVESPA 99992003080520030805
0101IBOVESPA                      0129400129400131120000000000000000002003080500000020030805013059000000
0202LOTE PADRAO                   EMBRATEL PARPN *       EBTP4       010VISTA          000000000005300000000055000000000530000000000000000000054000288396000
0202LOTE PADRAO                   TRAN PAULISTPN * EJ    TRPL4       010VISTA          000000000007000000000072000000000700000000000000000000071000004095300
0202LOTE PADRAO                   EMBRATEL PARON *       EBTP3       010VISTA          000000000006000000000062000000000596000000000000000000059000029841600
0202LOTE PADRAO                   TELEMAR     PN * EJ    TNLP4       010VISTA          000000000031500000000318000000003130000000000000000000314000331119000
0202LOTE PADRAO                   ITAUBANCO   PN * EJ    ITAU4       010VISTA          000000000210000000002105000000020630000000000000000002075000007408000
0202LOTE PADRAO                   TELEMAR     ON * EJ    TNLP3       010VISTA          000000000022600000000232500000002260000000000000000000230000010447400
0202LOTE PADRAO                   SID NACIONALON *       CSNA3       010VISTA          000000000078000000000780000000007670000000000000000000779000006076300
0202LOTE PADRAO                   TELE LEST CLPN *       TLCP4       010VISTA          000000000000420000000004200000000040000000000000000000004000245651000
0202LOTE PADRAO                   CRT CELULAR PNA* EJ    CRTP5       010VISTA          000000000365000000003650000000035810000000000000000003640000002562500
0202LOTE PADRAO                   IPIRANGA PETPN *       PTIP4       010VISTA          000000000009900000000101000000000990000000000000000000101000007590000
0202LOTE PADRAO                   BRASIL T PARPN *       BRTP4       010VISTA          000000000018600000000191000000001850000000000000000000187500062931600
0202LOTE PADRAO                   BRASIL T PARON *       BRTP3       010VISTA          000000000014000000000145000000001400000000000000000000144000007217900
0202LOTE PADRAO                   KLABIN S/A  PN         KLBN4       010VISTA          000000000002790000000027000000000270000000000000000000027000000058600
0202LOTE PADRAO                   ACESITA     PN *       ACES4       010VISTA          000000000001280000000012000000000126000000000000000000012600115976000
0202LOTE PADRAO                   PETROBRAS   PN         PETR4       010VISTA          000000000054000000000549000000005400000000000000000000547000000135800
0202LOTE PADRAO                   ELETROBRAS  PNB*       ELET6       010VISTA          000000000021600000000220000000002150000000000000000000216000034036900
0202LOTE PADRAO                   PETROBRAS   ON         PETR3       010VISTA          000000000058000000000587000000005770000000000000000000585000000029500
0202LOTE PADRAO                   COMGAS      PNA*       CGAS5       010VISTA          000000000073500000000740000000007150000000000000000000719000002432100
0202LOTE PADRAO                   SOUZA CRUZ  ON EJ      CRUZ3       010VISTA          000000000022000000000220000000002160000000000000000000219000000004800
0202LOTE PADRAO                   ELETROBRAS  ON *       ELET3       010VISTA          000000000018900000000191000000001860000000000000000000187500016985900
0202LOTE PADRAO                   CELESC      PNB        CLSC6       010VISTA          000000000000430000000004400000000042000000000000000000004300000129700
0202LOTE PADRAO                   BRADESCO    PN * EJ    BBDC4       010VISTA          000000000011300000000113000000001110000000000000000000112500185349000
0202LOTE PADRAO                   CESP        PN *       CESP4       010VISTA          000000000006400000000064000000000630000000000000000000063000013422800
0202LOTE PADRAO                   LIGHT       ON *       LIGH3       010VISTA          000000000022300000000235000000002230000000000000000000230000000211300
0202LOTE PADRAO                   TELESP CL PAPN *       TSPP4       010VISTA          000000000003960000000041000000000396000000000000000000041000463981000
0202LOTE PADRAO                   VALE R DOCE PNA        VALE5       010VISTA          000000000093400000000937000000009260000000000000000000930000000036500
0202LOTE PADRAO                   COPEL       PNB*       CPLE6       010VISTA          000000000007700000000080000000000775000000000000000000080000091583300
0202LOTE PADRAO                   VALE R DOCE ON         VALE3       010VISTA          000000000102500000001030000000010050000000000000000001005000000011600
0202LOTE PADRAO                   ARACRUZ     PNB        ARCZ6       010VISTA          000000000007400000000074000000000720000000000000000000072000000052700
0202LOTE PADRAO                   TELEMIG PARTPN *       TMCP4       010VISTA          000000000002900000000029400000000281000000000000000000028000107254000
0202LOTE PADRAO                   BRASIL TELECPN *       BRTO4       010VISTA          000000000011100000000115000000001110000000000000000000115000111836000
0202LOTE PADRAO                   SABESP      ON *       SBSP3       010VISTA          000000000101500000001035000000010150000000000000000001030000005099200
0202LOTE PADRAO                   BRASKEM     PNA*       BRKM5       010VISTA          000000000414900000004170000000040700000000000000000004109000000511900
0202LOTE PADRAO                   EMBRAER     PN EJ      EMBR4       010VISTA          000000000013200000000133000000001290000000000000000000130000000025600
0202LOTE PADRAO                   TELESP      PN * EJ    TLPP4       010VISTA          000000000029100000000295000000002880000000000000000000293000006770300
0202LOTE PADRAO                   EMBRAER     ON EJ      EMBR3       010VISTA          000000000010100000000103000000001010000000000000000000101000000004600
0202LOTE PADRAO                   AMBEV       PN *       AMBV4       010VISTA          000000000565000000005880000000056000000000000000000005870000001469000
0202LOTE PADRAO                   USIMINAS    PNA        USIM5       010VISTA          000000000014400000000145000000001410000000000000000000145000000083200
0202LOTE PADRAO                   ELETROPAULO PN *       ELPL4       010VISTA          000000000022400000000228000000002210000000000000000000226000002546000
0202LOTE PADRAO                   TELE NORD CLPN *       TNEP4       010VISTA          000000000002300000000023000000000220000000000000000000022000093902100
0202LOTE PADRAO                   CEMIG       PN * EJ    CMIG4       010VISTA          000000000026400000000267000000002560000000000000000000266000049421900
0202LOTE PADRAO                   TELE CL SUL PN * EJ    TCSL4       010VISTA          000000000002100000000021000000000200000000000000000000021000143951000
0202LOTE PADRAO                   TRACTEBEL   ON *       TBLE3       010VISTA          000000000007000000000070000000000690000000000000000000070000002765000
0202LOTE PADRAO                   CEMIG       ON * EJ    CMIG3       010VISTA          000000000020100000000205000000002000000000000000000000203000000212500
0202LOTE PADRAO                   TELE CL SUL ON * EJ    TCSL3       010VISTA          000000000002000000000020000000000194000000000000000000019600023639900
0202LOTE PADRAO                   ITAUSA      PN         ITSA4       010VISTA          000000000002400000000025000000000230000000000000000000024000000432800
0202LOTE PADRAO                   V C P       PN *       VCPA4       010VISTA          000000000137000000001380000000013400000000000000000001341000000841100
0202LOTE PADRAO                   SID TUBARAO PN *       CSTB4       010VISTA          000000000055000000000557000000005400000000000000000000541000009168100
0202LOTE PADRAO                   BRADESPAR   PN *       BRAP4       010VISTA          000000000000700000000007200000000070000000000000000000007000172693000
0202LOTE PADRAO                   NET         PN         PLIM4       010VISTA          000000000000310000000003100000000030000000000000000000003000000247700
0202LOTE PADRAO                   TELE CTR OESPN * EJ    TCOC4       010VISTA          000000000004900000000050000000000470000000000000000000049000180592000
0202LOTE PADRAO                   TELEMAR N L PNA* EJ    TMAR5       010VISTA          000000000038500000000387000000003810000000000000000000382000016799100
0202LOTE PADRAO                   GERDAU      PN * EJ    GGBR4       010VISTA          000000000033300000000341000000003320000000000000000000338000000019700
0202LOTE PADRAO                   BRASIL      ON *       BBAS3       010VISTA          000000000013700000000140000000001370000000000000000000139000007378000
