00BDIN9999BOVESPA 99992003062320030623
0101IBOVESPA                      0131320128950132730000000000000000002003062300000020030623012991000000
0202LOTE PADRAO                   EMBRATEL PARPN *       EBTP4       010VISTA          000000000005600000000057900000000530000000000000000000055000422073000
0202LOTE PADRAO                   TRAN PAULISTPN * EJ    TRPL4       010VISTA          000000000007100000000071000000000670000000000000000000067500014603500
0202LOTE PADRAO                   EMBRATEL PARON *       EBTP3       010VISTA          000000000005700000000058000000000540000000000000000000057000097216900
0202LOTE PADRAO                   TELEMAR     PN * EJ    TNLP4       010VISTA          000000000034300000000345000000003320000000000000000000333000248622000
0202LOTE PADRAO                   ITAUBANCO   PN * EJ    ITAU4       010VISTA          000000000196500000001999000000019620000000000000000001980000019574600
0202LOTE PADRAO                   TELEMAR     ON * EJ    TNLP3       010VISTA          000000000024300000000243000000002400000000000000000000241000015215000
0202LOTE PADRAO                   SID NACIONALON *       CSNA3       010VISTA          000000000067400000000680000000006450000000000000000000660000018222100
0202LOTE PADRAO                   TELE LEST CLPN *       TLCP4       010VISTA          000000000000450000000004600000000044000000000000000000004600086838000
0202LOTE PADRAO                   CRT CELULAR PNA* EJ    CRTP5       010VISTA          000000000327000000003270000000032000000000000000000003240000002417600
0202LOTE PADRAO                   IPIRANGA PETPN *       PTIP4       010VISTA          000000000010300000000103000000000950000000000000000000096000012413100
0202LOTE PADRAO                   BRASIL T PARPN *       BRTP4       010VISTA          000000000021500000000216000000002125000000000000000000214000040184700
0202LOTE PADRAO                   BRASIL T PARON *       BRTP3       010VISTA          000000000016100000000163000000001580000000000000000000162000005199500
0202LOTE PADRAO                   KLABIN S/A  PN         KLBN4       010VISTA          000000000002900000000029000000000280000000000000000000028000000126700
0202LOTE PADRAO                   ACESITA     PN *       ACES4       010VISTA          000000000001480000000015200000000147000000000000000000015000136714000
0202LOTE PADRAO                   PETROBRAS   PN         PETR4       010VISTA          000000000051500000000519000000004960000000000000000000496000000137000
0202LOTE PADRAO                   ELETROBRAS  PNB*       ELET6       010VISTA          000000000023600000000236000000002260000000000000000000231000036110500
0202LOTE PADRAO                   PETROBRAS   ON         PETR3       010VISTA          000000000055600000000562500000005410000000000000000000542000000048400
0202LOTE PADRAO                   COMGAS      PNA*       CGAS5       010VISTA          000000000066900000000669000000006470000000000000000000659000000690400
0202LOTE PADRAO                   SOUZA CRUZ  ON EJ      CRUZ3       010VISTA          000000000021000000000218000000002080000000000000000000218000000003700
0202LOTE PADRAO                   ELETROBRAS  ON *       ELET3       010VISTA          000000000020600000000211000000002050000000000000000000210000013096300
0202LOTE PADRAO                   CELESC      PNB        CLSC6       010VISTA          000000000000470000000004700000000045000000000000000000004600000395100
0202LOTE PADRAO                   BRADESCO    PN * EJ    BBDC4       010VISTA          000000000011100000000113000000001100000000000000000000110000239353000
0202LOTE PADRAO                   CESP        PN *       CESP4       010VISTA          000000000007500000000076000000000710000000000000000000072000009527800
0202LOTE PADRAO                   LIGHT       ON *       LIGH3       010VISTA          000000000027500000000282500000002710000000000000000000273000000783500
0202LOTE PADRAO                   TELESP CL PAPN *       TSPP4       010VISTA          000000000004400000000045400000000430000000000000000000043000266915000
0202LOTE PADRAO                   VALE R DOCE PNA        VALE5       010VISTA          000000000079500000000810000000007950000000000000000000801000000029600
0202LOTE PADRAO                   COPEL       PNB*       CPLE6       010VISTA          000000000009600000000098000000000900000000000000000000092000062314000
0202LOTE PADRAO                   VALE R DOCE ON         VALE3       010VISTA          000000000086500000000870000000008600000000000000000000860000000018500
0202LOTE PADRAO                   ARACRUZ     PNB        ARCZ6       010VISTA          000000000005700000000057000000000570000000000000000000057000000048900
0202LOTE PADRAO                   TELEMIG PARTPN *       TMCP4       010VISTA          000000000002900000000029000000000280000000000000000000028000128218000
0202LOTE PADRAO                   BRASIL TELECPN *       BRTO4       010VISTA          000000000013400000000137000000001275000000000000000000129000131248000
0202LOTE PADRAO                   SABESP      ON *       SBSP3       010VISTA          000000000108500000001110000000010700000000000000000001077000004910700
0202LOTE PADRAO                   BRASKEM     PNA*       BRKM5       010VISTA          000000000380000000003869000000037000000000000000000003770000000101500
0202LOTE PADRAO                   EMBRAER     PN EJ      EMBR4       010VISTA          000000000014000000000140000000001350000000000000000000135000000131400
0202LOTE PADRAO                   TELESP      PN * EJ    TLPP4       010VISTA          000000000032000000000322000000003160000000000000000000322000010575100
0202LOTE PADRAO                   EMBRAER     ON EJ      EMBR3       010VISTA          000000000011000000000110000000001050000000000000000000105000000032700
0202LOTE PADRAO                   AMBEV       PN *       AMBV4       010VISTA          000000000590000000005988000000057500000000000000000005900000004029400
0202LOTE PADRAO                   USIMINAS    PNA        USIM5       010VISTA          000000000012500000000125000000001190000000000000000000119000000046500
0202LOTE PADRAO                   ELETROPAULO PN *       ELPL4       010VISTA          000000000027500000000275000000002560000000000000000000263000007217900
0202LOTE PADRAO                   TELE NORD CLPN *       TNEP4       010VISTA          000000000002300000000023000000000220000000000000000000023000059598900
0202LOTE PADRAO                   CEMIG       PN * EJ    CMIG4       010VISTA          000000000028200000000286000000002710000000000000000000272000053072300
0202LOTE PADRAO                   TELE CL SUL PN * EJ    TCSL4       010VISTA          000000000002300000000024000000000220000000000000000000023000172116000
0202LOTE PADRAO                   TRACTEBEL   ON *       TBLE3       010VISTA          000000000007000000000075000000000700000000000000000000075000002891800
0202LOTE PADRAO                   CEMIG       ON * EJ    CMIG3       010VISTA          000000000022500000000225000000002125000000000000000000224000000689600
0202LOTE PADRAO                   TELE CL SUL ON * EJ    TCSL3       010VISTA          000000000002000000000021000000000200000000000000000000021000014488000
0202LOTE PADRAO                   ITAUSA      PN         ITSA4       010VISTA          000000000002300000000023000000000230000000000000000000023000000693700
0202LOTE PADRAO                   V C P       PN *       VCPA4       010VISTA          000000000107000000001070000000010550000000000000000001060000001215900
0202LOTE PADRAO                   SID TUBARAO PN *       CSTB4       010VISTA          000000000047200000000475000000004660000000000000000000467000010406000
0202LOTE PADRAO                   BRADESPAR   PN *       BRAP4       010VISTA          000000000000630000000006300000000061000000000000000000006100135526000
0202LOTE PADRAO                   NET         PN         PLIM4       010VISTA          000000000000320000000003300000000031000000000000000000003200000453400
0202LOTE PADRAO                   TELE CTR OESPN * EJ    TCOC4       010VISTA          000000000005400000000054000000000520000000000000000000053000103504000
0202LOTE PADRAO                   TELEMAR N L PNA* EJ    TMAR5       010VISTA          000000000041200000000412000000003840000000000000000000386000055240200
0202LOTE PADRAO                   GERDAU      PN * EJ    GGBR4       010VISTA          000000000030750000000318000000003000000000000000000000305000000020000
0202LOTE PADRAO                   BRASIL      ON *       BBAS3       010VISTA          000000000013800000000138000000001350000000000000000000135000024440000
