00BDIN9999BOVESPA 99992003071720030717
0101IBOVESPA                      0134870133600136360000000000000000002003071700000020030717013622000000
0202LOTE PADRAO                   EMBRATEL PARPN *       EBTP4       010VISTA          000000000005710000000059000000000560000000000000000000059000450858000
0202LOTE PADRAO                   TRAN PAULISTPN * EJ    TRPL4       010VISTA          000000000007600000000077000000000730000000000000000000077000007954400
0202LOTE PADRAO                   EMBRATEL PARON *       EBTP3       010VISTA          000000000006300000000066000000000630000000000000000000066000030128600
0202LOTE PADRAO                   TELEMAR     PN * EJ    TNLP4       010VISTA          000000000032500000000333000000003250000000000000000000333000342687000
0202LOTE PADRAO                   ITAUBANCO   PN * EJ    ITAU4       010VISTA          000000000193000000001969000000019300000000000000000001962000012156500
0202LOTE PADRAO                   TELEMAR     ON * EJ    TNLP3       010VISTA          000000000023800000000243000000002380000000000000000000243000038177600
0202LOTE PADRAO                   SID NACIONALON *       CSNA3       010VISTA          000000000069700000000719000000006970000000000000000000715000020903800
0202LOTE PADRAO                   TELE LEST CLPN *       TLCP4       010VISTA          000000000000440000000004500000000043000000000000000000004500110148000
0202LOTE PADRAO                   CRT CELULAR PNA* EJ    CRTP5       010VISTA          000000000332000000003580000000033200000000000000000003500000001383300
0202LOTE PADRAO                   IPIRANGA PETPN *       PTIP4       010VISTA          000000000010800000000109000000001060000000000000000000108000003848800
0202LOTE PADRAO                   BRASIL T PARPN *       BRTP4       010VISTA          000000000020750000000212000000002075000000000000000000212000060919000
0202LOTE PADRAO                   BRASIL T PARON *       BRTP3       010VISTA          000000000015400000000160000000001540000000000000000000160000010317600
0202LOTE PADRAO                   KLABIN S/A  PN         KLBN4       010VISTA          000000000002700000000028000000000270000000000000000000028000000024300
0202LOTE PADRAO                   ACESITA     PN *       ACES4       010VISTA          000000000001400000000014000000000140000000000000000000014000165625000
0202LOTE PADRAO                   PETROBRAS   PN         PETR4       010VISTA          000000000055500000000562500000005525000000000000000000562000000119900
0202LOTE PADRAO                   ELETROBRAS  PNB*       ELET6       010VISTA          000000000023300000000240000000002330000000000000000000240000043082100
0202LOTE PADRAO                   PETROBRAS   ON         PETR3       010VISTA          000000000059400000000602000000005940000000000000000000602000000032800
0202LOTE PADRAO                   COMGAS      PNA*       CGAS5       010VISTA          000000000068300000000707000000006800000000000000000000697000003581900
0202LOTE PADRAO                   SOUZA CRUZ  ON EJ      CRUZ3       010VISTA          000000000022100000000227000000002210000000000000000000222500000009600
0202LOTE PADRAO                   ELETROBRAS  ON *       ELET3       010VISTA          000000000020800000000218000000002080000000000000000000216000017893600
0202LOTE PADRAO                   CELESC      PNB        CLSC6       010VISTA          000000000000460000000004600000000045000000000000000000004600000058300
0202LOTE PADRAO                   BRADESCO    PN * EJ    BBDC4       010VISTA          000000000011100000000113000000001110000000000000000000112500125830000
0202LOTE PADRAO                   CESP        PN *       CESP4       010VISTA          000000000007300000000075000000000720000000000000000000073000006440000
0202LOTE PADRAO                   LIGHT       ON *       LIGH3       010VISTA          000000000025600000000264000000002560000000000000000000263000000185500
0202LOTE PADRAO                   TELESP CL PAPN *       TSPP4       010VISTA          000000000004600000000047000000000450000000000000000000046000224322000
0202LOTE PADRAO                   VALE R DOCE PNA        VALE5       010VISTA          000000000083900000000854000000008390000000000000000000849000000021000
0202LOTE PADRAO                   COPEL       PNB*       CPLE6       010VISTA          000000000008600000000088000000000860000000000000000000087000060223200
0202LOTE PADRAO                   VALE R DOCE ON         VALE3       010VISTA          000000000090200000000917000000009020000000000000000000912000000009100
0202LOTE PADRAO                   ARACRUZ     PNB        ARCZ6       010VISTA          000000000006200000000063000000000620000000000000000000063000000027300
0202LOTE PADRAO                   TELEMIG PARTPN *       TMCP4       010VISTA          000000000002900000000030000000000290000000000000000000030000077505800
0202LOTE PADRAO                   BRASIL TELECPN *       BRTO4       010VISTA          000000000012600000000130000000001260000000000000000000130000108490000
0202LOTE PADRAO                   SABESP      ON *       SBSP3       010VISTA          000000000106500000001085000000010650000000000000000001085000003154500
0202LOTE PADRAO                   BRASKEM     PNA*       BRKM5       010VISTA          000000000425000000004350000000042500000000000000000004331000000113000
0202LOTE PADRAO                   EMBRAER     PN EJ      EMBR4       010VISTA          000000000013800000000140000000001350000000000000000000135000000054900
0202LOTE PADRAO                   TELESP      PN * EJ    TLPP4       010VISTA          000000000030300000000311000000003030000000000000000000311000013353400
0202LOTE PADRAO                   EMBRAER     ON EJ      EMBR3       010VISTA          000000000011100000000114000000001090000000000000000000109000000014900
0202LOTE PADRAO                   AMBEV       PN *       AMBV4       010VISTA          000000000584000000005960000000058200000000000000000005869000002219800
0202LOTE PADRAO                   USIMINAS    PNA        USIM5       010VISTA          000000000015000000000151000000001460000000000000000000151000000065100
0202LOTE PADRAO                   ELETROPAULO PN *       ELPL4       010VISTA          000000000024500000000255000000002450000000000000000000255000005367200
0202LOTE PADRAO                   TELE NORD CLPN *       TNEP4       010VISTA          000000000002300000000023000000000230000000000000000000023000060661300
0202LOTE PADRAO                   CEMIG       PN * EJ    CMIG4       010VISTA          000000000027300000000280000000002730000000000000000000276000056192400
0202LOTE PADRAO                   TELE CL SUL PN * EJ    TCSL4       010VISTA          000000000002300000000024000000000230000000000000000000023000051645400
0202LOTE PADRAO                   TRACTEBEL   ON *       TBLE3       010VISTA          000000000007600000000077500000000750000000000000000000077000047111200
0202LOTE PADRAO                   CEMIG       ON * EJ    CMIG3       010VISTA          000000000021000000000216000000002100000000000000000000216000000666300
0202LOTE PADRAO                   TELE CL SUL ON * EJ    TCSL3       010VISTA          000000000002000000000021000000000200000000000000000000021000016483200
0202LOTE PADRAO                   ITAUSA      PN         ITSA4       010VISTA          000000000002300000000023000000000230000000000000000000023000000142300
0202LOTE PADRAO                   V C P       PN *       VCPA4       010VISTA          000000000122200000001250000000012200000000000000000001239000002347600
0202LOTE PADRAO                   SID TUBARAO PN *       CSTB4       010VISTA          000000000053500000000556000000005350000000000000000000545000008375900
0202LOTE PADRAO                   BRADESPAR   PN *       BRAP4       010VISTA          000000000000630000000006500000000063000000000000000000006500093909400
0202LOTE PADRAO                   NET         PN         PLIM4       010VISTA          000000000000340000000003500000000033000000000000000000003500000337300
0202LOTE PADRAO                   TELE CTR OESPN * EJ    TCOC4       010VISTA          000000000005500000000057000000000550000000000000000000057100073133200
0202LOTE PADRAO                   TELEMAR N L PNA* EJ    TMAR5       010VISTA          000000000041400000000422000000004110000000000000000000415000030608300
0202LOTE PADRAO                   GERDAU      PN * EJ    GGBR4       010VISTA          000000000033000000000340000000003300000000000000000000339000000020700
0202LOTE PADRAO                   BRASIL      ON *       BBAS3       010VISTA          000000000013800000000144000000001360000000000000000000141000016013800
