00BDIN9999BOVESPA 99992003043020030430
0101IBOVESPA                      0127130125570127460000000000000000002003043000000020030430012557000000
0202LOTE PADRAO                   EMBRATEL PARPN *       EBTP4       010VISTA          000000000004700000000048000000000450000000000000000000045000448682000
0202LOTE PADRAO                   TRAN PAULISTPN * EJ    TRPL4       010VISTA          000000000006400000000065000000000620000000000000000000062000016467100
0202LOTE PADRAO                   EMBRATEL PARON *       EBTP3       010VISTA          000000000005300000000054000000000510000000000000000000051000038061300
0202LOTE PADRAO                   TELEMAR     PN * EJ    TNLP4       010VISTA          000000000032500000000325000000003110000000000000000000311000289269000
0202LOTE PADRAO                   ITAUBANCO   PN * EJ    ITAU4       010VISTA          000000000193600000001990000000019300000000000000000001930000013963400
0202LOTE PADRAO                   TELEMAR     ON * EJ    TNLP3       010VISTA          000000000022800000000228000000002250000000000000000000225000020685900
0202LOTE PADRAO                   SID NACIONALON *       CSNA3       010VISTA          000000000058500000000585000000005700000000000000000000577000023085800
0202LOTE PADRAO                   TELE LEST CLPN *       TLCP4       010VISTA          000000000000440000000004500000000044000000000000000000004400133578000
0202LOTE PADRAO                   CRT CELULAR PNA* EJ    CRTP5       010VISTA          000000000362000000003670000000035700000000000000000003570000002685400
0202LOTE PADRAO                   IPIRANGA PETPN *       PTIP4       010VISTA          000000000008600000000086000000000840000000000000000000086000009448900
0202LOTE PADRAO                   BRASIL T PARPN *       BRTP4       010VISTA          000000000020300000000207000000002030000000000000000000205000046836600
0202LOTE PADRAO                   BRASIL T PARON *       BRTP3       010VISTA          000000000016000000000161000000001550000000000000000000155000015270300
0202LOTE PADRAO                   KLABIN S/A  PN         KLBN4       010VISTA          000000000002100000000021000000000200000000000000000000020000000087400
0202LOTE PADRAO                   ACESITA     PN *       ACES4       010VISTA          000000000001300000000013000000000130000000000000000000013000552153000
0202LOTE PADRAO                   PETROBRAS   PN         PETR4       010VISTA          000000000049600000000499000000004920000000000000000000498000000134300
0202LOTE PADRAO                   ELETROBRAS  PNB*       ELET6       010VISTA          000000000024900000000250000000002460000000000000000000248000061835100
0202LOTE PADRAO                   PETROBRAS   ON         PETR3       010VISTA          000000000053800000000542000000005290000000000000000000542000000042500
0202LOTE PADRAO                   COMGAS      PNA*       CGAS5       010VISTA          000000000053000000000585000000005300000000000000000000565000002078700
0202LOTE PADRAO                   SOUZA CRUZ  ON EJ      CRUZ3       010VISTA          000000000018100000000181000000001780000000000000000000180000000020500
0202LOTE PADRAO                   ELETROBRAS  ON *       ELET3       010VISTA          000000000021800000000225000000002180000000000000000000223000020854200
0202LOTE PADRAO                   CELESC      PNB        CLSC6       010VISTA          000000000000470000000004800000000046000000000000000000004700000226400
0202LOTE PADRAO                   BRADESCO    PN * EJ    BBDC4       010VISTA          000000000012250000000122500000001190000000000000000000119000217576000
0202LOTE PADRAO                   CESP        PN *       CESP4       010VISTA          000000000008000000000083000000000780000000000000000000078000015707300
0202LOTE PADRAO                   LIGHT       ON *       LIGH3       010VISTA          000000000029600000000313000000002910000000000000000000305000002910300
0202LOTE PADRAO                   TELESP CL PAPN *       TSPP4       010VISTA          000000000004700000000047000000000440000000000000000000044000732452000
0202LOTE PADRAO                   VALE R DOCE PNA        VALE5       010VISTA          000000000078400000000784000000007670000000000000000000774000000067400
0202LOTE PADRAO                   COPEL       PNB*       CPLE6       010VISTA          000000000009400000000096000000000940000000000000000000095000053572900
0202LOTE PADRAO                   VALE R DOCE ON         VALE3       010VISTA          000000000080500000000819000000008040000000000000000000819000000017700
0202LOTE PADRAO                   ARACRUZ     PNB        ARCZ6       010VISTA          000000000006200000000062000000000600000000000000000000061000000076400
0202LOTE PADRAO                   TELEMIG PARTPN *       TMCP4       010VISTA          000000000002800000000028000000000270000000000000000000027700148641000
0202LOTE PADRAO                   BRASIL TELECPN *       BRTO4       010VISTA          000000000012800000000128000000001250000000000000000000126000094874900
0202LOTE PADRAO                   SABESP      ON *       SBSP3       010VISTA          000000000099500000001035000000009950000000000000000001030000006758300
0202LOTE PADRAO                   BRASKEM     PNA*       BRKM5       010VISTA          000000000307000000003379000000030700000000000000000003360000000543200
0202LOTE PADRAO                   EMBRAER     PN EJ      EMBR4       010VISTA          000000000010000000000101000000000990000000000000000000101000000117700
0202LOTE PADRAO                   TELESP      PN * EJ    TLPP4       010VISTA          000000000033800000000350000000003310000000000000000000348000005859700
0202LOTE PADRAO                   EMBRAER     ON EJ      EMBR3       010VISTA          000000000008200000000084000000000825000000000000000000084000000046200
0202LOTE PADRAO                   AMBEV       PN *       AMBV4       010VISTA          000000000590000000005900000000057150000000000000000005830000002654700
0202LOTE PADRAO                   USIMINAS    PNA        USIM5       010VISTA          000000000011000000000112000000001060000000000000000000107000000096700
0202LOTE PADRAO                   ELETROPAULO PN *       ELPL4       010VISTA          000000000029000000000294000000002775000000000000000000293000006359700
0202LOTE PADRAO                   TELE NORD CLPN *       TNEP4       010VISTA          000000000002400000000024800000000230000000000000000000024000152634000
0202LOTE PADRAO                   CEMIG       PN * EJ    CMIG4       010VISTA          000000000030600000000310000000003010000000000000000000308000063803400
0202LOTE PADRAO                   TELE CL SUL PN * EJ    TCSL4       010VISTA          000000000002500000000025200000000240000000000000000000025200168335000
0202LOTE PADRAO                   TRACTEBEL   ON *       TBLE3       010VISTA          000000000005000000000055000000000460000000000000000000055000226626000
0202LOTE PADRAO                   CEMIG       ON * EJ    CMIG3       010VISTA          000000000023000000000230000000002200000000000000000000226000002599300
0202LOTE PADRAO                   TELE CL SUL ON * EJ    TCSL3       010VISTA          000000000002300000000024000000000220000000000000000000022000036081100
0202LOTE PADRAO                   ITAUSA      PN         ITSA4       010VISTA          000000000002270000000022000000000220000000000000000000022000000297600
0202LOTE PADRAO                   V C P       PN *       VCPA4       010VISTA          000000000110200000001109000000010820000000000000000001109000005295200
0202LOTE PADRAO                   SID TUBARAO PN *       CSTB4       010VISTA          000000000046700000000480000000004670000000000000000000480000015823000
0202LOTE PADRAO                   BRADESPAR   PN *       BRAP4       010VISTA          000000000000660000000006700000000064000000000000000000006400328949000
0202LOTE PADRAO                   NET         PN         PLIM4       010VISTA          000000000000400000000004300000000039000000000000000000004100001449900
0202LOTE PADRAO                   TELE CTR OESPN * EJ    TCOC4       010VISTA          000000000005600000000057000000000530000000000000000000055000152899000
0202LOTE PADRAO                   TELEMAR N L PNA* EJ    TMAR5       010VISTA          000000000043600000000445000000004320000000000000000000440000034364900
0202LOTE PADRAO                   GERDAU      PN * EJ    GGBR4       010VISTA          000000000034700000000362000000003470000000000000000000356000048504900
0202LOTE PADRAO                   BRASIL      ON *       BBAS3       010VISTA          000000000013400000000136000000001260000000000000000000126000070211200
