00BDIN9999BOVESPA 99992003052120030521
0101IBOVESPA                      0127490127110130770000000000000000002003052100000020030521013034000000
0202LOTE PADRAO                   EMBRATEL PARPN *       EBTP4       010VISTA          000000000004400000000047000000000440000000000000000000047000464229000
0202LOTE PADRAO                   TRAN PAULISTPN * EJ    TRPL4       010VISTA          000000000007400000000077900000000740000000000000000000076000007104200
0202LOTE PADRAO                   EMBRATEL PARON *       EBTP3       010VISTA          000000000005000000000053000000000500000000000000000000053000033171800
0202LOTE PADRAO                   TELEMAR     PN * EJ    TNLP4       010VISTA          000000000033000000000346000000003300000000000000000000345000452308000
0202LOTE PADRAO                   ITAUBANCO   PN * EJ    ITAU4       010VISTA          000000000192000000002010000000019200000000000000000002010000009360000
0202LOTE PADRAO                   TELEMAR     ON * EJ    TNLP3       010VISTA          000000000023800000000250000000002380000000000000000000250000011498100
0202LOTE PADRAO                   SID NACIONALON *       CSNA3       010VISTA          000000000057200000000587000000005670000000000000000000587000023843300
0202LOTE PADRAO                   TELE LEST CLPN *       TLCP4       010VISTA          000000000000440000000004500000000043000000000000000000004500095613200
0202LOTE PADRAO                   CRT CELULAR PNA* EJ    CRTP5       010VISTA          000000000333300000003439000000033100000000000000000003425000000738800
0202LOTE PADRAO                   IPIRANGA PETPN *       PTIP4       010VISTA          000000000008200000000087500000000820000000000000000000085000002860000
0202LOTE PADRAO                   BRASIL T PARPN *       BRTP4       010VISTA          000000000021200000000215000000002110000000000000000000213000055269300
0202LOTE PADRAO                   BRASIL T PARON *       BRTP3       010VISTA          000000000015800000000159000000001550000000000000000000158000005809400
0202LOTE PADRAO                   KLABIN S/A  PN         KLBN4       010VISTA          000000000002300000000024800000000220000000000000000000022000000077800
0202LOTE PADRAO                   ACESITA     PN *       ACES4       010VISTA          000000000001300000000013000000000130000000000000000000013000160478000
0202LOTE PADRAO                   PETROBRAS   PN         PETR4       010VISTA          000000000052800000000540000000005250000000000000000000534000000085300
0202LOTE PADRAO                   ELETROBRAS  PNB*       ELET6       010VISTA          000000000023000000000240000000002300000000000000000000239000031761400
0202LOTE PADRAO                   PETROBRAS   ON         PETR3       010VISTA          000000000057200000000580000000005670000000000000000000580000000042000
0202LOTE PADRAO                   COMGAS      PNA*       CGAS5       010VISTA          000000000054000000000575000000005360000000000000000000556000000693000
0202LOTE PADRAO                   SOUZA CRUZ  ON EJ      CRUZ3       010VISTA          000000000018300000000186000000001830000000000000000000185000000005400
0202LOTE PADRAO                   ELETROBRAS  ON *       ELET3       010VISTA          000000000021100000000227000000002110000000000000000000223000007618900
0202LOTE PADRAO                   CELESC      PNB        CLSC6       010VISTA          000000000000490000000005100000000048000000000000000000005000000118600
0202LOTE PADRAO                   BRADESCO    PN * EJ    BBDC4       010VISTA          000000000011200000000117000000001120000000000000000000116000145122000
0202LOTE PADRAO                   CESP        PN *       CESP4       010VISTA          000000000008000000000086000000000800000000000000000000084000003507000
0202LOTE PADRAO                   LIGHT       ON *       LIGH3       010VISTA          000000000028200000000301000000002820000000000000000000288000000861200
0202LOTE PADRAO                   TELESP CL PAPN *       TSPP4       010VISTA          000000000004400000000045000000000430000000000000000000045000308898000
0202LOTE PADRAO                   VALE R DOCE PNA        VALE5       010VISTA          000000000082800000000828000000008150000000000000000000819000000038100
0202LOTE PADRAO                   COPEL       PNB*       CPLE6       010VISTA          000000000009500000000099000000000950000000000000000000098000036421600
0202LOTE PADRAO                   VALE R DOCE ON         VALE3       010VISTA          000000000087600000000880000000008640000000000000000000879000000006700
0202LOTE PADRAO                   ARACRUZ     PNB        ARCZ6       010VISTA          000000000005600000000056000000000550000000000000000000056000000040800
0202LOTE PADRAO                   TELEMIG PARTPN *       TMCP4       010VISTA          000000000002600000000027000000000260000000000000000000027300068132100
0202LOTE PADRAO                   BRASIL TELECPN *       BRTO4       010VISTA          000000000012500000000126000000001240000000000000000000126000087040400
0202LOTE PADRAO                   SABESP      ON *       SBSP3       010VISTA          000000000104400000001060000000010200000000000000000001040000005389100
0202LOTE PADRAO                   BRASKEM     PNA*       BRKM5       010VISTA          000000000368100000003799000000036600000000000000000003711000000298500
0202LOTE PADRAO                   EMBRAER     PN EJ      EMBR4       010VISTA          000000000010700000000107000000001050000000000000000000105000000040500
0202LOTE PADRAO                   TELESP      PN * EJ    TLPP4       010VISTA          000000000030750000000313000000003050000000000000000000310000010253400
0202LOTE PADRAO                   EMBRAER     ON EJ      EMBR3       010VISTA          000000000008800000000089000000000870000000000000000000088000000019700
0202LOTE PADRAO                   AMBEV       PN *       AMBV4       010VISTA          000000000585000000006040000000058400000000000000000006000000000468100
0202LOTE PADRAO                   USIMINAS    PNA        USIM5       010VISTA          000000000009800000000102500000000980000000000000000000101000000030800
0202LOTE PADRAO                   ELETROPAULO PN *       ELPL4       010VISTA          000000000028700000000305000000002850000000000000000000301000006220500
0202LOTE PADRAO                   TELE NORD CLPN *       TNEP4       010VISTA          000000000002400000000025000000000240000000000000000000025000122356000
0202LOTE PADRAO                   CEMIG       PN * EJ    CMIG4       010VISTA          000000000029600000000311000000002960000000000000000000311000053789700
0202LOTE PADRAO                   TELE CL SUL PN * EJ    TCSL4       010VISTA          000000000002500000000027100000000250000000000000000000026000088053600
0202LOTE PADRAO                   TRACTEBEL   ON *       TBLE3       010VISTA          000000000005000000000051000000000480000000000000000000050000015806000
0202LOTE PADRAO                   CEMIG       ON * EJ    CMIG3       010VISTA          000000000022800000000251000000002280000000000000000000251000000494600
0202LOTE PADRAO                   TELE CL SUL ON * EJ    TCSL3       010VISTA          000000000002300000000023000000000220000000000000000000023000017593200
0202LOTE PADRAO                   ITAUSA      PN         ITSA4       010VISTA          000000000002200000000024000000000220000000000000000000023000000159300
0202LOTE PADRAO                   V C P       PN *       VCPA4       010VISTA          000000000102500000001025000000010050000000000000000001010000002837600
0202LOTE PADRAO                   SID TUBARAO PN *       CSTB4       010VISTA          000000000044200000000456000000004420000000000000000000455000007925800
0202LOTE PADRAO                   BRADESPAR   PN *       BRAP4       010VISTA          000000000000640000000006500000000063000000000000000000006400112619000
0202LOTE PADRAO                   NET         PN         PLIM4       010VISTA          000000000000350000000003600000000034000000000000000000003500000464100
0202LOTE PADRAO                   TELE CTR OESPN * EJ    TCOC4       010VISTA          000000000005300000000055000000000530000000000000000000055000125538000
0202LOTE PADRAO                   TELEMAR N L PNA* EJ    TMAR5       010VISTA          000000000040800000000416000000004020000000000000000000413000041750200
0202LOTE PADRAO                   GERDAU      PN * EJ    GGBR4       010VISTA          000000000030000000000303000000002980000000000000000000301000000015700
0202LOTE PADRAO                   BRASIL      ON *       BBAS3       010VISTA          000000000013400000000140000000001340000000000000000000138000026055100
