00BDIN9999BOVESPA 99992003041520030415
0101IBOVESPA                      0118650118280121110000000000000000002003041500000020030415012106000000
0202LOTE PADRAO                   EMBRATEL PARPN *       EBTP4       010VISTA          000000000004000000000043000000000400000000000000000000043000861311000
0202LOTE PADRAO                   TRAN PAULISTPN * EJ    TRPL4       010VISTA          000000000006300000000067000000000630000000000000000000065000008683100
0202LOTE PADRAO                   EMBRATEL PARON *       EBTP3       010VISTA          000000000004700000000051000000000470000000000000000000051000068870600
0202LOTE PADRAO                   TELEMAR     PN * EJ    TNLP4       010VISTA          000000000029800000000306000000002970000000000000000000303000414928000
0202LOTE PADRAO                   ITAUBANCO   PN * EJ    ITAU4       010VISTA          000000000182000000001900000000018150000000000000000001890000008297200
0202LOTE PADRAO                   TELEMAR     ON * EJ    TNLP3       010VISTA          000000000021500000000221000000002130000000000000000000218000017788900
0202LOTE PADRAO                   SID NACIONALON *       CSNA3       010VISTA          000000000067800000000678000000006620000000000000000000669000016688000
0202LOTE PADRAO                   TELE LEST CLPN *       TLCP4       010VISTA          000000000000430000000004600000000043000000000000000000004500224145000
0202LOTE PADRAO                   CRT CELULAR PNA* EJ    CRTP5       010VISTA          000000000349900000003499000000033600000000000000000003490000000519400
0202LOTE PADRAO                   IPIRANGA PETPN *       PTIP4       010VISTA          000000000007600000000076000000000740000000000000000000076000006275600
0202LOTE PADRAO                   BRASIL T PARPN *       BRTP4       010VISTA          000000000019200000000198000000001920000000000000000000198000054188600
0202LOTE PADRAO                   BRASIL T PARON *       BRTP3       010VISTA          000000000014500000000156000000001450000000000000000000155000005192000
0202LOTE PADRAO                   KLABIN S/A  PN         KLBN4       010VISTA          000000000002000000000020000000000196000000000000000000020000000024700
0202LOTE PADRAO                   ACESITA     PN *       ACES4       010VISTA          000000000001200000000013000000000128000000000000000000013000327445000
0202LOTE PADRAO                   PETROBRAS   PN         PETR4       010VISTA          000000000046400000000467500000004580000000000000000000467000000066100
0202LOTE PADRAO                   ELETROBRAS  PNB*       ELET6       010VISTA          000000000022600000000230000000002240000000000000000000230000065149500
0202LOTE PADRAO                   PETROBRAS   ON         PETR3       010VISTA          000000000050700000000511000000004980000000000000000000511000000029500
0202LOTE PADRAO                   COMGAS      PNA*       CGAS5       010VISTA          000000000053700000000552000000005270000000000000000000530000001741700
0202LOTE PADRAO                   SOUZA CRUZ  ON EJ      CRUZ3       010VISTA          000000000018400000000189000000001810000000000000000000188000000017000
0202LOTE PADRAO                   ELETROBRAS  ON *       ELET3       010VISTA          000000000020000000000206000000001980000000000000000000206000027476000
0202LOTE PADRAO                   CELESC      PNB        CLSC6       010VISTA          000000000000450000000004600000000045000000000000000000004600000382600
0202LOTE PADRAO                   BRADESCO    PN * EJ    BBDC4       010VISTA          000000000011400000000119000000001130000000000000000000119000133547000
0202LOTE PADRAO                   CESP        PN *       CESP4       010VISTA          000000000006300000000065000000000620000000000000000000063000017003000
0202LOTE PADRAO                   LIGHT       ON *       LIGH3       010VISTA          000000000026800000000269000000002630000000000000000000266000001278400
0202LOTE PADRAO                   TELESP CL PAPN *       TSPP4       010VISTA          000000000004200000000043000000000410000000000000000000042500535357000
0202LOTE PADRAO                   VALE R DOCE PNA        VALE5       010VISTA          000000000085500000000857000000008400000000000000000000842000000031700
0202LOTE PADRAO                   COPEL       PNB*       CPLE6       010VISTA          000000000009000000000091000000000890000000000000000000091000030279800
0202LOTE PADRAO                   VALE R DOCE ON         VALE3       010VISTA          000000000087800000000887000000008720000000000000000000880000000006100
0202LOTE PADRAO                   ARACRUZ     PNB        ARCZ6       010VISTA          000000000006600000000068000000000660000000000000000000067500000029000
0202LOTE PADRAO                   TELEMIG PARTPN *       TMCP4       010VISTA          000000000002600000000027300000000260000000000000000000027300187062000
0202LOTE PADRAO                   BRASIL TELECPN *       BRTO4       010VISTA          000000000011300000000119000000001125000000000000000000119000167114000
0202LOTE PADRAO                   SABESP      ON *       SBSP3       010VISTA          000000000092000000000949000000009150000000000000000000948000004351300
0202LOTE PADRAO                   BRASKEM     PNA*       BRKM5       010VISTA          000000000242500000002530000000023500000000000000000002530000000277100
0202LOTE PADRAO                   EMBRAER     PN EJ      EMBR4       010VISTA          000000000010800000000108000000001030000000000000000000103000000126900
0202LOTE PADRAO                   TELESP      PN * EJ    TLPP4       010VISTA          000000000031500000000322000000003150000000000000000000320000015728500
0202LOTE PADRAO                   EMBRAER     ON EJ      EMBR3       010VISTA          000000000008900000000091000000000880000000000000000000089000000019200
0202LOTE PADRAO                   AMBEV       PN *       AMBV4       010VISTA          000000000553000000005580000000054300000000000000000005500000004992900
0202LOTE PADRAO                   USIMINAS    PNA        USIM5       010VISTA          000000000010300000000103000000000990000000000000000000100000000076400
0202LOTE PADRAO                   ELETROPAULO PN *       ELPL4       010VISTA          000000000025800000000273000000002550000000000000000000268000009949800
0202LOTE PADRAO                   TELE NORD CLPN *       TNEP4       010VISTA          000000000002300000000025200000000230000000000000000000025200182290000
0202LOTE PADRAO                   CEMIG       PN * EJ    CMIG4       010VISTA          000000000028500000000290000000002780000000000000000000290000055770900
0202LOTE PADRAO                   TELE CL SUL PN * EJ    TCSL4       010VISTA          000000000002300000000025000000000230000000000000000000025000276582000
0202LOTE PADRAO                   TRACTEBEL   ON *       TBLE3       010VISTA          000000000004300000000051000000000430000000000000000000051000014741700
0202LOTE PADRAO                   CEMIG       ON * EJ    CMIG3       010VISTA          000000000021800000000230000000002180000000000000000000223000003425100
0202LOTE PADRAO                   TELE CL SUL ON * EJ    TCSL3       010VISTA          000000000002400000000025000000000230000000000000000000024000039513500
0202LOTE PADRAO                   ITAUSA      PN         ITSA4       010VISTA          000000000002100000000022000000000210000000000000000000021000000475000
0202LOTE PADRAO                   V C P       PN *       VCPA4       010VISTA          000000000122000000001235000000012150000000000000000001231000004074100
0202LOTE PADRAO                   SID TUBARAO PN *       CSTB4       010VISTA          000000000045200000000489000000004520000000000000000000479000058882300
0202LOTE PADRAO                   BRADESPAR   PN *       BRAP4       010VISTA          000000000000650000000006900000000064000000000000000000006800440373000
0202LOTE PADRAO                   NET         PN         PLIM4       010VISTA          000000000000310000000003300000000031000000000000000000003300000815900
0202LOTE PADRAO                   TELE CTR OESPN * EJ    TCOC4       010VISTA          000000000005300000000053000000000510000000000000000000052000152410000
0202LOTE PADRAO                   TELEMAR N L PNA* EJ    TMAR5       010VISTA          000000000040500000000416000000004020000000000000000000415000045227900
0202LOTE PADRAO                   GERDAU      PN * EJ    GGBR4       010VISTA          000000000031800000000326000000003160000000000000000000325000032246700
0202LOTE PADRAO                   BRASIL      ON *       BBAS3       010VISTA          000000000012100000000129000000001200000000000000000000128000044456200
