00BDIN9999BOVESPA 99992003020320030203
0101IBOVESPA                      0109430108520110670000000000000000002003020300000020030203010910000000
0202LOTE PADRAO                   EMBRATEL PARPN *       EBTP4       010VISTA          000000000003600000000037000000000330000000000000000000033000292507000
0202LOTE PADRAO                   TRAN PAULISTPN * EJ    TRPL4       010VISTA          000000000005400000000054000000000525000000000000000000052000007550700
0202LOTE PADRAO                   EMBRATEL PARON *       EBTP3       010VISTA          000000000004400000000044000000000400000000000000000000042000012210500
0202LOTE PADRAO                   TELEMAR     PN * EJ    TNLP4       010VISTA          000000000027300000000274000000002680000000000000000000269000162513000
0202LOTE PADRAO                   ITAUBANCO   PN * EJ    ITAU4       010VISTA          000000000155000000001595000000015400000000000000000001595000012212300
0202LOTE PADRAO                   TELEMAR     ON * EJ    TNLP3       010VISTA          000000000019900000000200000000001930000000000000000000195000013602700
0202LOTE PADRAO                   SID NACIONALON *       CSNA3       010VISTA          000000000058000000000590000000005800000000000000000000586000014671400
0202LOTE PADRAO                   TELE LEST CLPN *       TLCP4       010VISTA          000000000000430000000004500000000043000000000000000000004300263603000
0202LOTE PADRAO                   CRT CELULAR PNA* EJ    CRTP5       010VISTA          000000000334000000003380000000033240000000000000000003380000000362500
0202LOTE PADRAO                   IPIRANGA PETPN *       PTIP4       010VISTA          000000000007200000000072000000000700000000000000000000070000000865600
0202LOTE PADRAO                   BRASIL T PARPN *       BRTP4       010VISTA          000000000017800000000178000000001730000000000000000000173000044458400
0202LOTE PADRAO                   BRASIL T PARON *       BRTP3       010VISTA          000000000013000000000131000000001280000000000000000000130000002327500
0202LOTE PADRAO                   KLABIN S/A  PN         KLBN4       010VISTA          000000000001000000000011000000000100000000000000000000010000000011800
0202LOTE PADRAO                   ACESITA     PN *       ACES4       010VISTA          000000000000910000000009500000000091000000000000000000009300119223000
0202LOTE PADRAO                   PETROBRAS   PN         PETR4       010VISTA          000000000048000000000482000000004740000000000000000000480000000073000
0202LOTE PADRAO                   ELETROBRAS  PNB*       ELET6       010VISTA          000000000020300000000207000000001980000000000000000000201000042396600
0202LOTE PADRAO                   PETROBRAS   ON         PETR3       010VISTA          000000000052000000000528000000005160000000000000000000526000000025700
0202LOTE PADRAO                   COMGAS      PNA*       CGAS5       010VISTA          000000000050900000000509000000004850000000000000000000488000000347400
0202LOTE PADRAO                   SOUZA CRUZ  ON EJ      CRUZ3       010VISTA          000000000017800000000179000000001750000000000000000000178000000006400
0202LOTE PADRAO                   ELETROBRAS  ON *       ELET3       010VISTA          000000000019600000000196000000001900000000000000000000196000004466600
0202LOTE PADRAO                   CELESC      PNB        CLSC6       010VISTA          000000000000510000000005100000000050000000000000000000005000000047600
0202LOTE PADRAO                   BRADESCO    PN * EJ    BBDC4       010VISTA          000000000009900000000101000000000990000000000000000000100000161094000
0202LOTE PADRAO                   CESP        PN *       CESP4       010VISTA          000000000006800000000069000000000650000000000000000000067000005744500
0202LOTE PADRAO                   LIGHT       ON *       LIGH3       010VISTA          000000000040000000000400000000003875000000000000000000387000000561500
0202LOTE PADRAO                   TELESP CL PAPN *       TSPP4       010VISTA          000000000003800000000039000000000370000000000000000000037000288535000
0202LOTE PADRAO                   VALE R DOCE PNA        VALE5       010VISTA          000000000091500000000934000000009150000000000000000000930000000022200
0202LOTE PADRAO                   COPEL       PNB*       CPLE6       010VISTA          000000000008750000000088000000000820000000000000000000085000022915100
0202LOTE PADRAO                   VALE R DOCE ON         VALE3       010VISTA          000000000096900000000975000000009670000000000000000000973000000004800
0202LOTE PADRAO                   ARACRUZ     PNB        ARCZ6       010VISTA          000000000006800000000068000000000670000000000000000000068000000021900
0202LOTE PADRAO                   TELEMIG PARTPN *       TMCP4       010VISTA          000000000002600000000027000000000260000000000000000000026000158047000
0202LOTE PADRAO                   BRASIL TELECPN *       BRTO4       010VISTA          000000000010600000000107000000001040000000000000000000106000056418900
0202LOTE PADRAO                   SABESP      ON *       SBSP3       010VISTA          000000000087000000000871000000008390000000000000000000855000001825200
0202LOTE PADRAO                   BRASKEM     PNA*       BRKM5       010VISTA          000000000184400000001860000000018100000000000000000001818000000257600
0202LOTE PADRAO                   EMBRAER     PN EJ      EMBR4       010VISTA          000000000012500000000125000000001210000000000000000000121000000054800
0202LOTE PADRAO                   TELESP      PN * EJ    TLPP4       010VISTA          000000000030500000000305000000002950000000000000000000298000004893300
0202LOTE PADRAO                   EMBRAER     ON EJ      EMBR3       010VISTA          000000000011000000000113000000001090000000000000000000109000000006400
0202LOTE PADRAO                   AMBEV       PN *       AMBV4       010VISTA          000000000505000000005070000000049900000000000000000005059000001236200
0202LOTE PADRAO                   USIMINAS    PNA        USIM5       010VISTA          000000000007500000000075000000000710000000000000000000072000000021600
0202LOTE PADRAO                   ELETROPAULO PN *       ELPL4       010VISTA          000000000029100000000291000000002660000000000000000000280000005059800
0202LOTE PADRAO                   TELE NORD CLPN *       TNEP4       010VISTA          000000000002600000000026000000000250000000000000000000025600051806000
0202LOTE PADRAO                   CEMIG       PN * EJ    CMIG4       010VISTA          000000000025100000000255000000002480000000000000000000253000022044000
0202LOTE PADRAO                   TELE CL SUL PN * EJ    TCSL4       010VISTA          000000000002500000000025000000000240000000000000000000024000028967200
0202LOTE PADRAO                   TRACTEBEL   ON *       TBLE3       010VISTA          000000000003500000000035000000000330000000000000000000034000007124900
0202LOTE PADRAO                   CEMIG       ON * EJ    CMIG3       010VISTA          000000000021600000000216000000002010000000000000000000215000000195200
0202LOTE PADRAO                   TELE CL SUL ON * EJ    TCSL3       010VISTA          000000000001800000000018000000000181000000000000000000018000013222800
0202LOTE PADRAO                   ITAUSA      PN         ITSA4       010VISTA          000000000001800000000018000000000180000000000000000000018000000253600
0202LOTE PADRAO                   V C P       PN *       VCPA4       010VISTA          000000000122000000001274000000012120000000000000000001274000001046600
0202LOTE PADRAO                   SID TUBARAO PN *       CSTB4       010VISTA          000000000037200000000383000000003700000000000000000000375000005668700
0202LOTE PADRAO                   BRADESPAR   PN *       BRAP4       010VISTA          000000000000610000000006200000000060000000000000000000006100215229000
0202LOTE PADRAO                   NET         PN         PLIM4       010VISTA          000000000000380000000003800000000035000000000000000000003600000649300
0202LOTE PADRAO                   TELE CTR OESPN * EJ    TCOC4       010VISTA          000000000004900000000049000000000480000000000000000000048000198593000
0202LOTE PADRAO                   TELEMAR N L PNA* EJ    TMAR5       010VISTA          000000000041500000000415000000004000000000000000000000402000007458300
0202LOTE PADRAO                   GERDAU      PN * EJ    GGBR4       010VISTA          000000000031800000000318000000003100000000000000000000316000015808900
0202LOTE PADRAO                   BRASIL      ON *       BBAS3       010VISTA          000000000009600000000096000000000950000000000000000000095000013163400
