00BDIN9999BOVESPA 99992003080120030801
0101IBOVESPA                      0135790131300135790000000000000000002003080100000020030801013130000000
0202LOTE PADRAO                   EMBRATEL PARPN *       EBTP4       010VISTA          000000000005900000000059000000000554000000000000000000055400360915000
0202LOTE PADRAO                   TRAN PAULISTPN * EJ    TRPL4       010VISTA          000000000007200000000072500000000710000000000000000000071000011969500
0202LOTE PADRAO                   EMBRATEL PARON *       EBTP3       010VISTA          000000000006500000000065000000000600000000000000000000060000042291100
0202LOTE PADRAO                   TELEMAR     PN * EJ    TNLP4       010VISTA          000000000032600000000326000000003150000000000000000000316000277382000
0202LOTE PADRAO                   ITAUBANCO   PN * EJ    ITAU4       010VISTA          000000000210000000002150000000021000000000000000000002131000018321800
0202LOTE PADRAO                   TELEMAR     ON * EJ    TNLP3       010VISTA          000000000023700000000237000000002300000000000000000000230000014893200
0202LOTE PADRAO                   SID NACIONALON *       CSNA3       010VISTA          000000000081000000000812000000007970000000000000000000805000019802300
0202LOTE PADRAO                   TELE LEST CLPN *       TLCP4       010VISTA          000000000000410000000004200000000040000000000000000000004200118651000
0202LOTE PADRAO                   CRT CELULAR PNA* EJ    CRTP5       010VISTA          000000000363000000003640000000036000000000000000000003640000000677000
0202LOTE PADRAO                   IPIRANGA PETPN *       PTIP4       010VISTA          000000000010750000000108000000001030000000000000000000104000003408600
0202LOTE PADRAO                   BRASIL T PARPN *       BRTP4       010VISTA          000000000019600000000196000000001880000000000000000000188000059983100
0202LOTE PADRAO                   BRASIL T PARON *       BRTP3       010VISTA          000000000014700000000147000000001410000000000000000000141000025800100
0202LOTE PADRAO                   KLABIN S/A  PN         KLBN4       010VISTA          000000000002800000000028000000000275000000000000000000028100000069500
0202LOTE PADRAO                   ACESITA     PN *       ACES4       010VISTA          000000000001300000000013000000000128000000000000000000013000245793000
0202LOTE PADRAO                   PETROBRAS   PN         PETR4       010VISTA          000000000056500000000565000000005370000000000000000000537000000111500
0202LOTE PADRAO                   ELETROBRAS  PNB*       ELET6       010VISTA          000000000022300000000223000000002160000000000000000000216000073807200
0202LOTE PADRAO                   PETROBRAS   ON         PETR3       010VISTA          000000000060700000000607000000005780000000000000000000580000000042800
0202LOTE PADRAO                   COMGAS      PNA*       CGAS5       010VISTA          000000000071000000000750000000007090000000000000000000742000006792000
0202LOTE PADRAO                   SOUZA CRUZ  ON EJ      CRUZ3       010VISTA          000000000022300000000225000000002180000000000000000000218000000010800
0202LOTE PADRAO                   ELETROBRAS  ON *       ELET3       010VISTA          000000000019600000000196000000001860000000000000000000189000020980500
0202LOTE PADRAO                   CELESC      PNB        CLSC6       010VISTA          000000000000440000000004400000000042000000000000000000004400000347300
0202LOTE PADRAO                   BRADESCO    PN * EJ    BBDC4       010VISTA          000000000012000000000120000000001170000000000000000000117000247685000
0202LOTE PADRAO                   CESP        PN *       CESP4       010VISTA          000000000006700000000067000000000650000000000000000000065000005932700
0202LOTE PADRAO                   LIGHT       ON *       LIGH3       010VISTA          000000000024300000000243000000002380000000000000000000238000000910200
0202LOTE PADRAO                   TELESP CL PAPN *       TSPP4       010VISTA          000000000004200000000042000000000396000000000000000000039000301412000
0202LOTE PADRAO                   VALE R DOCE PNA        VALE5       010VISTA          000000000094200000000960000000009420000000000000000000947000000048200
0202LOTE PADRAO                   COPEL       PNB*       CPLE6       010VISTA          000000000008000000000081000000000770000000000000000000077000038328900
0202LOTE PADRAO                   VALE R DOCE ON         VALE3       010VISTA          000000000103000000001052000000010290000000000000000001037000000007300
0202LOTE PADRAO                   ARACRUZ     PNB        ARCZ6       010VISTA          000000000007400000000075000000000730000000000000000000075000000066400
0202LOTE PADRAO                   TELEMIG PARTPN *       TMCP4       010VISTA          000000000002900000000030000000000290000000000000000000029000088746600
0202LOTE PADRAO                   BRASIL TELECPN *       BRTO4       010VISTA          000000000011600000000116000000001120000000000000000000113000061490400
0202LOTE PADRAO                   SABESP      ON *       SBSP3       010VISTA          000000000113000000001130000000010400000000000000000001040000007298400
0202LOTE PADRAO                   BRASKEM     PNA*       BRKM5       010VISTA          000000000428000000004300000000041200000000000000000004151000000208700
0202LOTE PADRAO                   EMBRAER     PN EJ      EMBR4       010VISTA          000000000013500000000135000000001310000000000000000000132500000035700
0202LOTE PADRAO                   TELESP      PN * EJ    TLPP4       010VISTA          000000000030500000000305000000002920000000000000000000293000029026900
0202LOTE PADRAO                   EMBRAER     ON EJ      EMBR3       010VISTA          000000000010500000000105000000001010000000000000000000101000000013600
0202LOTE PADRAO                   AMBEV       PN *       AMBV4       010VISTA          000000000586700000005870000000056000000000000000000005780000002812500
0202LOTE PADRAO                   USIMINAS    PNA        USIM5       010VISTA          000000000015250000000152500000001410000000000000000000145000000077400
0202LOTE PADRAO                   ELETROPAULO PN *       ELPL4       010VISTA          000000000023500000000235000000002200000000000000000000225000007229000
0202LOTE PADRAO                   TELE NORD CLPN *       TNEP4       010VISTA          000000000002300000000023000000000230000000000000000000023000119825000
0202LOTE PADRAO                   CEMIG       PN * EJ    CMIG4       010VISTA          000000000027300000000273000000002650000000000000000000265000056289200
0202LOTE PADRAO                   TELE CL SUL PN * EJ    TCSL4       010VISTA          000000000002250000000022500000000210000000000000000000021000097505500
0202LOTE PADRAO                   TRACTEBEL   ON *       TBLE3       010VISTA          000000000006400000000064000000000596000000000000000000059600003942300
0202LOTE PADRAO                   CEMIG       ON * EJ    CMIG3       010VISTA          000000000021100000000211000000002030000000000000000000203000002220500
0202LOTE PADRAO                   TELE CL SUL ON * EJ    TCSL3       010VISTA          000000000002100000000021000000000200000000000000000000020000019286400
0202LOTE PADRAO                   ITAUSA      PN         ITSA4       010VISTA          000000000002400000000025000000000240000000000000000000024000000260800
0202LOTE PADRAO                   V C P       PN *       VCPA4       010VISTA          000000000137000000001374000000013510000000000000000001370000004262500
0202LOTE PADRAO                   SID TUBARAO PN *       CSTB4       010VISTA          000000000054700000000557000000005380000000000000000000549000010105400
0202LOTE PADRAO                   BRADESPAR   PN *       BRAP4       010VISTA          000000000000720000000007200000000069000000000000000000007000310926000
0202LOTE PADRAO                   NET         PN         PLIM4       010VISTA          000000000000320000000003300000000030000000000000000000003000000520500
0202LOTE PADRAO                   TELE CTR OESPN * EJ    TCOC4       010VISTA          000000000005100000000051000000000480000000000000000000049000141253000
0202LOTE PADRAO                   TELEMAR N L PNA* EJ    TMAR5       010VISTA          000000000039600000000397000000003870000000000000000000387000031422500
0202LOTE PADRAO                   GERDAU      PN * EJ    GGBR4       010VISTA          000000000033800000000338000000003320000000000000000000337000000021900
0202LOTE PADRAO                   BRASIL      ON *       BBAS3       010VISTA          000000000014000000000140000000001380000000000000000000138000021194800
