00BDIN9999BOVESPA 99992003081420030814
0101IBOVESPA                      0136830135290138490000000000000000002003081400000020030814013812000000
0202LOTE PADRAO                   EMBRATEL PARPN *       EBTP4       010VISTA          000000000005600000000058000000000550000000000000000000057000193602000
0202LOTE PADRAO                   TRAN PAULISTPN * EJ    TRPL4       010VISTA          000000000008000000000083000000000780000000000000000000081000016184300
0202LOTE PADRAO                   EMBRATEL PARON *       EBTP3       010VISTA          000000000006200000000062000000000600000000000000000000062000027000600
0202LOTE PADRAO                   TELEMAR     PN * EJ    TNLP4       010VISTA          000000000032000000000327500000003160000000000000000000326000448754000
0202LOTE PADRAO                   ITAUBANCO   PN * EJ    ITAU4       010VISTA          000000000207000000002130000000020700000000000000000002125000013176000
0202LOTE PADRAO                   TELEMAR     ON * EJ    TNLP3       010VISTA          000000000023300000000239000000002330000000000000000000239000008757900
0202LOTE PADRAO                   SID NACIONALON *       CSNA3       010VISTA          000000000087500000000875000000008420000000000000000000860000014072500
0202LOTE PADRAO                   TELE LEST CLPN *       TLCP4       010VISTA          000000000000420000000004200000000040000000000000000000004200131416000
0202LOTE PADRAO                   CRT CELULAR PNA* EJ    CRTP5       010VISTA          000000000369000000003800000000036300000000000000000003800000000534700
0202LOTE PADRAO                   IPIRANGA PETPN *       PTIP4       010VISTA          000000000010300000000105000000001030000000000000000000104000005081300
0202LOTE PADRAO                   BRASIL T PARPN *       BRTP4       010VISTA          000000000020250000000205000000001980000000000000000000201000045937700
0202LOTE PADRAO                   BRASIL T PARON *       BRTP3       010VISTA          000000000015500000000157500000001540000000000000000000155000009216200
0202LOTE PADRAO                   KLABIN S/A  PN         KLBN4       010VISTA          000000000002800000000029000000000281000000000000000000028000000090200
0202LOTE PADRAO                   ACESITA     PN *       ACES4       010VISTA          000000000001300000000013000000000130000000000000000000013000105129000
0202LOTE PADRAO                   PETROBRAS   PN         PETR4       010VISTA          000000000058250000000597000000005825000000000000000000595000000133300
0202LOTE PADRAO                   ELETROBRAS  PNB*       ELET6       010VISTA          000000000021300000000218000000002130000000000000000000217000025955700
0202LOTE PADRAO                   PETROBRAS   ON         PETR3       010VISTA          000000000062000000000637000000006180000000000000000000637000000046400
0202LOTE PADRAO                   COMGAS      PNA*       CGAS5       010VISTA          000000000072500000000725000000007250000000000000000000725000000000000
0202LOTE PADRAO                   SOUZA CRUZ  ON EJ      CRUZ3       010VISTA          000000000023400000000239000000002330000000000000000000236000000012700
0202LOTE PADRAO                   ELETROBRAS  ON *       ELET3       010VISTA          000000000018700000000193000000001860000000000000000000191000010027300
0202LOTE PADRAO                   CELESC      PNB        CLSC6       010VISTA          000000000000440000000004400000000042000000000000000000004300000408600
0202LOTE PADRAO                   BRADESCO    PN * EJ    BBDC4       010VISTA          000000000011600000000118000000001150000000000000000000118000091060400
0202LOTE PADRAO                   CESP        PN *       CESP4       010VISTA          000000000007000000000070000000000680000000000000000000070000006018100
0202LOTE PADRAO                   LIGHT       ON *       LIGH3       010VISTA          000000000024900000000249000000002400000000000000000000247000000198100
0202LOTE PADRAO                   TELESP CL PAPN *       TSPP4       010VISTA          000000000004100000000041000000000400000000000000000000041000301504000
0202LOTE PADRAO                   VALE R DOCE PNA        VALE5       010VISTA          000000000097000000000999000000009490000000000000000000999000000052500
0202LOTE PADRAO                   COPEL       PNB*       CPLE6       010VISTA          000000000008500000000085000000000850000000000000000000085000000000000
0202LOTE PADRAO                   VALE R DOCE ON         VALE3       010VISTA          000000000103000000001099000000010300000000000000000001097000000041300
0202LOTE PADRAO                   ARACRUZ     PNB        ARCZ6       010VISTA          000000000007500000000078000000000750000000000000000000077000000052800
0202LOTE PADRAO                   TELEMIG PARTPN *       TMCP4       010VISTA          000000000002980000000029800000000280000000000000000000029000068887500
0202LOTE PADRAO                   BRASIL TELECPN *       BRTO4       010VISTA          000000000012000000000122000000001190000000000000000000122000062129500
0202LOTE PADRAO                   SABESP      ON *       SBSP3       010VISTA          000000000111800000001118000000011180000000000000000001118000000000000
0202LOTE PADRAO                   BRASKEM     PNA*       BRKM5       010VISTA          000000000449900000004700000000044500000000000000000004700000000701200
0202LOTE PADRAO                   EMBRAER     PN EJ      EMBR4       010VISTA          000000000013500000000135000000001240000000000000000000131000000266800
0202LOTE PADRAO                   TELESP      PN * EJ    TLPP4       010VISTA          000000000029800000000298000000002910000000000000000000293000009069900
0202LOTE PADRAO                   EMBRAER     ON EJ      EMBR3       010VISTA          000000000010500000000105000000001000000000000000000000105000000046400
0202LOTE PADRAO                   AMBEV       PN *       AMBV4       010VISTA          000000000580000000005840000000057250000000000000000005795000003347900
0202LOTE PADRAO                   USIMINAS    PNA        USIM5       010VISTA          000000000017300000000173000000001675000000000000000000170000000054500
0202LOTE PADRAO                   ELETROPAULO PN *       ELPL4       010VISTA          000000000022300000000224000000002210000000000000000000224000005158600
0202LOTE PADRAO                   TELE NORD CLPN *       TNEP4       010VISTA          000000000002300000000023000000000230000000000000000000023000073203000
0202LOTE PADRAO                   CEMIG       PN * EJ    CMIG4       010VISTA          000000000027000000000276000000002680000000000000000000274000036766700
0202LOTE PADRAO                   TELE CL SUL PN * EJ    TCSL4       010VISTA          000000000002270000000023000000000220000000000000000000022000132603000
0202LOTE PADRAO                   TRACTEBEL   ON *       TBLE3       010VISTA          000000000007700000000077000000000730000000000000000000077000004165200
0202LOTE PADRAO                   CEMIG       ON * EJ    CMIG3       010VISTA          000000000022300000000223000000002160000000000000000000218000000282700
0202LOTE PADRAO                   TELE CL SUL ON * EJ    TCSL3       010VISTA          000000000001970000000020000000000194000000000000000000020000006660900
0202LOTE PADRAO                   ITAUSA      PN         ITSA4       010VISTA          000000000002520000000026000000000252000000000000000000026000000847500
0202LOTE PADRAO                   V C P       PN *       VCPA4       010VISTA          000000000141900000001420000000014100000000000000000001410000001943800
0202LOTE PADRAO                   SID TUBARAO PN *       CSTB4       010VISTA          000000000054200000000542000000005420000000000000000000542000000000000
0202LOTE PADRAO                   BRADESPAR   PN *       BRAP4       010VISTA          000000000000700000000007200000000069000000000000000000007100098717300
0202LOTE PADRAO                   NET         PN         PLIM4       010VISTA          000000000000330000000003400000000032000000000000000000003300000309100
0202LOTE PADRAO                   TELE CTR OESPN * EJ    TCOC4       010VISTA          000000000005250000000052000000000500000000000000000000051000089897700
0202LOTE PADRAO                   TELEMAR N L PNA* EJ    TMAR5       010VISTA          000000000039200000000397000000003900000000000000000000397000013448600
0202LOTE PADRAO                   GERDAU      PN * EJ    GGBR4       010VISTA          000000000037000000000380000000003675000000000000000000380000000018900
0202LOTE PADRAO                   BRASIL      ON *       BBAS3       010VISTA          000000000015600000000158000000001530000000000000000000156000034524000
