00BDIN9999BOVESPA 99992003012020030120
0101IBOVESPA                      0116750115450117420000000000000000002003012000000020030120011648000000
0202LOTE PADRAO                   EMBRATEL PARPN *       EBTP4       010VISTA          000000000004300000000044000000000410000000000000000000042000199763000
0202LOTE PADRAO                   TRAN PAULISTPN * EJ    TRPL4       010VISTA          000000000005750000000058000000000575000000000000000000057000004382600
0202LOTE PADRAO                   EMBRATEL PARON *       EBTP3       010VISTA          000000000005000000000051000000000490000000000000000000049000021317300
0202LOTE PADRAO                   TELEMAR     PN * EJ    TNLP4       010VISTA          000000000028800000000291000000002850000000000000000000290000293182000
0202LOTE PADRAO                   ITAUBANCO   PN * EJ    ITAU4       010VISTA          000000000170000000001700000000016450000000000000000001645000002994900
0202LOTE PADRAO                   TELEMAR     ON * EJ    TNLP3       010VISTA          000000000021000000000211000000002070000000000000000000211000006000000
0202LOTE PADRAO                   SID NACIONALON *       CSNA3       010VISTA          000000000052500000000532000000005170000000000000000000532000003677400
0202LOTE PADRAO                   TELE LEST CLPN *       TLCP4       010VISTA          000000000000500000000005100000000049000000000000000000004900052087300
0202LOTE PADRAO                   CRT CELULAR PNA* EJ    CRTP5       010VISTA          000000000348000000003545000000034800000000000000000003545000000540700
0202LOTE PADRAO                   IPIRANGA PETPN *       PTIP4       010VISTA          000000000008000000000080000000000790000000000000000000079000000878700
0202LOTE PADRAO                   BRASIL T PARPN *       BRTP4       010VISTA          000000000018700000000188000000001850000000000000000000187500011088800
0202LOTE PADRAO                   BRASIL T PARON *       BRTP3       010VISTA          000000000013500000000143000000001350000000000000000000141000002631300
0202LOTE PADRAO                   KLABIN S/A  PN         KLBN4       010VISTA          000000000001100000000011000000000100000000000000000000011000000007900
0202LOTE PADRAO                   ACESITA     PN *       ACES4       010VISTA          000000000000920000000009300000000091000000000000000000009100054763500
0202LOTE PADRAO                   PETROBRAS   PN         PETR4       010VISTA          000000000050600000000507000000004970000000000000000000502000000048400
0202LOTE PADRAO                   ELETROBRAS  PNB*       ELET6       010VISTA          000000000022900000000230000000002230000000000000000000225000027183400
0202LOTE PADRAO                   PETROBRAS   ON         PETR3       010VISTA          000000000055500000000555000000005470000000000000000000550000000004100
0202LOTE PADRAO                   COMGAS      PNA*       CGAS5       010VISTA          000000000054100000000550000000005320000000000000000000550000000227000
0202LOTE PADRAO                   SOUZA CRUZ  ON EJ      CRUZ3       010VISTA          000000000017800000000179000000001780000000000000000000178000000010300
0202LOTE PADRAO                   ELETROBRAS  ON *       ELET3       010VISTA          000000000021100000000215000000002060000000000000000000211000020724900
0202LOTE PADRAO                   CELESC      PNB        CLSC6       010VISTA          000000000000540000000005400000000053000000000000000000005400000068800
0202LOTE PADRAO                   BRADESCO    PN * EJ    BBDC4       010VISTA          000000000010900000000109000000001060000000000000000000106000097397100
0202LOTE PADRAO                   CESP        PN *       CESP4       010VISTA          000000000007500000000077000000000750000000000000000000077000003157400
0202LOTE PADRAO                   LIGHT       ON *       LIGH3       010VISTA          000000000045100000000460000000004500000000000000000000450000000095000
0202LOTE PADRAO                   TELESP CL PAPN *       TSPP4       010VISTA          000000000003700000000040000000000370000000000000000000039800491833000
0202LOTE PADRAO                   VALE R DOCE PNA        VALE5       010VISTA          000000000089200000000895000000008780000000000000000000890000000006900
0202LOTE PADRAO                   COPEL       PNB*       CPLE6       010VISTA          000000000009100000000095000000000910000000000000000000093000021092200
0202LOTE PADRAO                   VALE R DOCE ON         VALE3       010VISTA          000000000092500000000934000000009200000000000000000000922000000002600
0202LOTE PADRAO                   ARACRUZ     PNB        ARCZ6       010VISTA          000000000006700000000069000000000675000000000000000000068000000084000
0202LOTE PADRAO                   TELEMIG PARTPN *       TMCP4       010VISTA          000000000003100000000031000000000290000000000000000000029800068272400
0202LOTE PADRAO                   BRASIL TELECPN *       BRTO4       010VISTA          000000000011500000000118000000001110000000000000000000113000083571300
0202LOTE PADRAO                   SABESP      ON *       SBSP3       010VISTA          000000000096000000000965000000009360000000000000000000945000001222500
0202LOTE PADRAO                   BRASKEM     PNA*       BRKM5       010VISTA          000000000250000000002500000000024690000000000000000002483000000107000
0202LOTE PADRAO                   EMBRAER     PN EJ      EMBR4       010VISTA          000000000012600000000128000000001260000000000000000000126000000017400
0202LOTE PADRAO                   TELESP      PN * EJ    TLPP4       010VISTA          000000000033000000000337000000003275000000000000000000332000004213800
0202LOTE PADRAO                   EMBRAER     ON EJ      EMBR3       010VISTA          000000000011500000000115000000001140000000000000000000114000000002800
0202LOTE PADRAO                   AMBEV       PN *       AMBV4       010VISTA          000000000507000000005140000000050200000000000000000005140000000763300
0202LOTE PADRAO                   USIMINAS    PNA        USIM5       010VISTA          000000000007000000000070000000000680000000000000000000068000000014100
0202LOTE PADRAO                   ELETROPAULO PN *       ELPL4       010VISTA          000000000033000000000337000000003280000000000000000000330000004535300
0202LOTE PADRAO                   TELE NORD CLPN *       TNEP4       010VISTA          000000000002700000000028000000000270000000000000000000028000033763200
0202LOTE PADRAO                   CEMIG       PN * EJ    CMIG4       010VISTA          000000000027500000000276000000002730000000000000000000275000026299800
0202LOTE PADRAO                   TELE CL SUL PN * EJ    TCSL4       010VISTA          000000000002700000000028100000000270000000000000000000027000035898700
0202LOTE PADRAO                   TRACTEBEL   ON *       TBLE3       010VISTA          000000000003400000000035000000000330000000000000000000035000002960000
0202LOTE PADRAO                   CEMIG       ON * EJ    CMIG3       010VISTA          000000000023500000000245000000002350000000000000000000236000000173000
0202LOTE PADRAO                   TELE CL SUL ON * EJ    TCSL3       010VISTA          000000000002000000000020000000000200000000000000000000020000008532600
0202LOTE PADRAO                   ITAUSA      PN         ITSA4       010VISTA          000000000001900000000019000000000180000000000000000000018000000205000
0202LOTE PADRAO                   V C P       PN *       VCPA4       010VISTA          000000000124500000001270000000012400000000000000000001260000000276000
0202LOTE PADRAO                   SID TUBARAO PN *       CSTB4       010VISTA          000000000035600000000360000000003520000000000000000000352000009386200
0202LOTE PADRAO                   BRADESPAR   PN *       BRAP4       010VISTA          000000000000580000000006000000000058000000000000000000005900119302000
0202LOTE PADRAO                   NET         PN         PLIM4       010VISTA          000000000000460000000004700000000045000000000000000000004500000321200
0202LOTE PADRAO                   TELE CTR OESPN * EJ    TCOC4       010VISTA          000000000004600000000048000000000450000000000000000000048000281833000
0202LOTE PADRAO                   TELEMAR N L PNA* EJ    TMAR5       010VISTA          000000000045100000000453000000004400000000000000000000445000010979300
0202LOTE PADRAO                   GERDAU      PN * EJ    GGBR4       010VISTA          000000000032100000000325000000003200000000000000000000324000003321300
0202LOTE PADRAO                   BRASIL      ON *       BBAS3       010VISTA          000000000010100000000107500000001000000000000000000000105000042707200
