00BDIN9999BOVESPA 99992003050820030508
0101IBOVESPA                      0129690128640130280000000000000000002003050800000020030508012921000000
0202LOTE PADRAO                   EMBRATEL PARPN *       EBTP4       010VISTA          000000000004700000000048000000000470000000000000000000048000613760000
0202LOTE PADRAO                   TRAN PAULISTPN * EJ    TRPL4       010VISTA          000000000006600000000069000000000660000000000000000000068000018932400
0202LOTE PADRAO                   EMBRATEL PARON *       EBTP3       010VISTA          000000000005400000000055000000000530000000000000000000055000050015000
0202LOTE PADRAO                   TELEMAR     PN * EJ    TNLP4       010VISTA          000000000032300000000327500000003220000000000000000000324000316828000
0202LOTE PADRAO                   ITAUBANCO   PN * EJ    ITAU4       010VISTA          000000000197500000001980000000019420000000000000000001959000015383300
0202LOTE PADRAO                   TELEMAR     ON * EJ    TNLP3       010VISTA          000000000023600000000238000000002310000000000000000000237000018176800
0202LOTE PADRAO                   SID NACIONALON *       CSNA3       010VISTA          000000000061900000000622000000006130000000000000000000617000023306600
0202LOTE PADRAO                   TELE LEST CLPN *       TLCP4       010VISTA          000000000000450000000004600000000044000000000000000000004500142204000
0202LOTE PADRAO                   CRT CELULAR PNA* EJ    CRTP5       010VISTA          000000000351000000003550000000034810000000000000000003550000000920400
0202LOTE PADRAO                   IPIRANGA PETPN *       PTIP4       010VISTA          000000000009300000000097500000000930000000000000000000097000028908600
0202LOTE PADRAO                   BRASIL T PARPN *       BRTP4       010VISTA          000000000020500000000208000000002030000000000000000000208000074629000
0202LOTE PADRAO                   BRASIL T PARON *       BRTP3       010VISTA          000000000015600000000160000000001560000000000000000000157000006870400
0202LOTE PADRAO                   KLABIN S/A  PN         KLBN4       010VISTA          000000000002000000000021000000000200000000000000000000021000000041200
0202LOTE PADRAO                   ACESITA     PN *       ACES4       010VISTA          000000000001400000000014800000000140000000000000000000014000305470000
0202LOTE PADRAO                   PETROBRAS   PN         PETR4       010VISTA          000000000052000000000521000000005100000000000000000000511000000134900
0202LOTE PADRAO                   ELETROBRAS  PNB*       ELET6       010VISTA          000000000023600000000250000000002360000000000000000000247500115164000
0202LOTE PADRAO                   PETROBRAS   ON         PETR3       010VISTA          000000000055800000000558000000005480000000000000000000551000000045100
0202LOTE PADRAO                   COMGAS      PNA*       CGAS5       010VISTA          000000000057000000000587000000005700000000000000000000581000001554700
0202LOTE PADRAO                   SOUZA CRUZ  ON EJ      CRUZ3       010VISTA          000000000018500000000193000000001850000000000000000000191000000029400
0202LOTE PADRAO                   ELETROBRAS  ON *       ELET3       010VISTA          000000000022600000000237000000002260000000000000000000236000013046800
0202LOTE PADRAO                   CELESC      PNB        CLSC6       010VISTA          000000000000540000000005600000000053000000000000000000005400000991300
0202LOTE PADRAO                   BRADESCO    PN * EJ    BBDC4       010VISTA          000000000012000000000121000000001180000000000000000000118000309770000
0202LOTE PADRAO                   CESP        PN *       CESP4       010VISTA          000000000008000000000084000000000800000000000000000000084000029906100
0202LOTE PADRAO                   LIGHT       ON *       LIGH3       010VISTA          000000000031000000000320000000003030000000000000000000313000000998800
0202LOTE PADRAO                   TELESP CL PAPN *       TSPP4       010VISTA          000000000004600000000047000000000450000000000000000000045000347901000
0202LOTE PADRAO                   VALE R DOCE PNA        VALE5       010VISTA          000000000079700000000800000000007870000000000000000000787000000036400
0202LOTE PADRAO                   COPEL       PNB*       CPLE6       010VISTA          000000000009600000000100000000000950000000000000000000100000161984000
0202LOTE PADRAO                   VALE R DOCE ON         VALE3       010VISTA          000000000083000000000840000000008250000000000000000000825000000007800
0202LOTE PADRAO                   ARACRUZ     PNB        ARCZ6       010VISTA          000000000005900000000059000000000579000000000000000000057000000062500
0202LOTE PADRAO                   TELEMIG PARTPN *       TMCP4       010VISTA          000000000002700000000027000000000273000000000000000000027000070489000
0202LOTE PADRAO                   BRASIL TELECPN *       BRTO4       010VISTA          000000000012900000000130000000001275000000000000000000129000119421000
0202LOTE PADRAO                   SABESP      ON *       SBSP3       010VISTA          000000000102000000001030000000010150000000000000000001028000006915200
0202LOTE PADRAO                   BRASKEM     PNA*       BRKM5       010VISTA          000000000384900000004090000000037300000000000000000003750000001091300
0202LOTE PADRAO                   EMBRAER     PN EJ      EMBR4       010VISTA          000000000010800000000108000000001025000000000000000000102500000126400
0202LOTE PADRAO                   TELESP      PN * EJ    TLPP4       010VISTA          000000000034000000000340000000003310000000000000000000331000007735100
0202LOTE PADRAO                   EMBRAER     ON EJ      EMBR3       010VISTA          000000000008750000000087500000000830000000000000000000084000000031700
0202LOTE PADRAO                   AMBEV       PN *       AMBV4       010VISTA          000000000600000000006079000000060000000000000000000006070000001052300
0202LOTE PADRAO                   USIMINAS    PNA        USIM5       010VISTA          000000000010900000000110000000001070000000000000000000108000000039300
0202LOTE PADRAO                   ELETROPAULO PN *       ELPL4       010VISTA          000000000028100000000292500000002810000000000000000000290000009238000
0202LOTE PADRAO                   TELE NORD CLPN *       TNEP4       010VISTA          000000000002400000000024000000000230000000000000000000024000286840000
0202LOTE PADRAO                   CEMIG       PN * EJ    CMIG4       010VISTA          000000000031500000000320000000003110000000000000000000319000085478700
0202LOTE PADRAO                   TELE CL SUL PN * EJ    TCSL4       010VISTA          000000000002500000000025000000000240000000000000000000024000104830000
0202LOTE PADRAO                   TRACTEBEL   ON *       TBLE3       010VISTA          000000000005200000000053000000000500000000000000000000051000010208700
0202LOTE PADRAO                   CEMIG       ON * EJ    CMIG3       010VISTA          000000000022800000000245000000002280000000000000000000242000005643100
0202LOTE PADRAO                   TELE CL SUL ON * EJ    TCSL3       010VISTA          000000000002300000000023000000000230000000000000000000023000026044900
0202LOTE PADRAO                   ITAUSA      PN         ITSA4       010VISTA          000000000002200000000023000000000220000000000000000000023000000159700
0202LOTE PADRAO                   V C P       PN *       VCPA4       010VISTA          000000000110000000001105000000010725000000000000000001084000003083900
0202LOTE PADRAO                   SID TUBARAO PN *       CSTB4       010VISTA          000000000049500000000504000000004930000000000000000000500000007552100
0202LOTE PADRAO                   BRADESPAR   PN *       BRAP4       010VISTA          000000000000650000000006600000000064000000000000000000006600172474000
0202LOTE PADRAO                   NET         PN         PLIM4       010VISTA          000000000000390000000003900000000036000000000000000000003700000906000
0202LOTE PADRAO                   TELE CTR OESPN * EJ    TCOC4       010VISTA          000000000005600000000057000000000550000000000000000000055000102084000
0202LOTE PADRAO                   TELEMAR N L PNA* EJ    TMAR5       010VISTA          000000000043500000000443000000004330000000000000000000437000012256600
0202LOTE PADRAO                   GERDAU      PN * EJ    GGBR4       010VISTA          000000000028900000000299000000002890000000000000000000296000000028800
0202LOTE PADRAO                   BRASIL      ON *       BBAS3       010VISTA          000000000013200000000136000000001300000000000000000000136000035412900
