00BDIN9999BOVESPA 99992003082520030825
0101IBOVESPA                      0146130144260147140000000000000000002003082500000020030825014473000000
0202LOTE PADRAO                   EMBRATEL PARPN *       EBTP4       010VISTA          000000000006000000000060000000000580000000000000000000059000261760000
0202LOTE PADRAO                   TRAN PAULISTPN * EJ    TRPL4       010VISTA          000000000008300000000086000000000830000000000000000000086000019384100
0202LOTE PADRAO                   EMBRATEL PARON *       EBTP3       010VISTA          000000000006200000000062000000000600000000000000000000060000073674700
0202LOTE PADRAO                   TELEMAR     PN * EJ    TNLP4       010VISTA          000000000036000000000362000000003520000000000000000000355000210093000
0202LOTE PADRAO                   ITAUBANCO   PN * EJ    ITAU4       010VISTA          000000000215000000002210000000021450000000000000000002150000008039800
0202LOTE PADRAO                   TELEMAR     ON * EJ    TNLP3       010VISTA          000000000026300000000263000000002560000000000000000000258000013110900
0202LOTE PADRAO                   SID NACIONALON *       CSNA3       010VISTA          000000000098300000000990000000009660000000000000000000975000015057300
0202LOTE PADRAO                   TELE LEST CLPN *       TLCP4       010VISTA          000000000000450000000004500000000043000000000000000000004500074620200
0202LOTE PADRAO                   CRT CELULAR PNA* EJ    CRTP5       010VISTA          000000000410000000004130000000040800000000000000000004105000000828800
0202LOTE PADRAO                   IPIRANGA PETPN *       PTIP4       010VISTA          000000000010400000000104000000001010000000000000000000101000004735800
0202LOTE PADRAO                   BRASIL T PARPN *       BRTP4       010VISTA          000000000022400000000224000000002150000000000000000000215000027751000
0202LOTE PADRAO                   BRASIL T PARON *       BRTP3       010VISTA          000000000016400000000164000000001610000000000000000000163000007272200
0202LOTE PADRAO                   KLABIN S/A  PN         KLBN4       010VISTA          000000000003100000000031000000000310000000000000000000031000000033200
0202LOTE PADRAO                   ACESITA     PN *       ACES4       010VISTA          000000000001490000000015200000000147000000000000000000014800357296000
0202LOTE PADRAO                   PETROBRAS   PN         PETR4       010VISTA          000000000058000000000582000000005700000000000000000000571000000064400
0202LOTE PADRAO                   ELETROBRAS  PNB*       ELET6       010VISTA          000000000024000000000240000000002330000000000000000000235000031594200
0202LOTE PADRAO                   PETROBRAS   ON         PETR3       010VISTA          000000000062300000000623000000006130000000000000000000616000000023300
0202LOTE PADRAO                   COMGAS      PNA*       CGAS5       010VISTA          000000000084000000000885000000008400000000000000000000883000003987300
0202LOTE PADRAO                   SOUZA CRUZ  ON EJ      CRUZ3       010VISTA          000000000024000000000240000000002360000000000000000000236000000007100
0202LOTE PADRAO                   ELETROBRAS  ON *       ELET3       010VISTA          000000000021300000000214000000002060000000000000000000208000015114300
0202LOTE PADRAO                   CELESC      PNB        CLSC6       010VISTA          000000000000450000000004600000000043000000000000000000004500000441700
0202LOTE PADRAO                   BRADESCO    PN * EJ    BBDC4       010VISTA          000000000012500000000126000000001230000000000000000000124000139834000
0202LOTE PADRAO                   CESP        PN *       CESP4       010VISTA          000000000007200000000072000000000700000000000000000000070000006849500
0202LOTE PADRAO                   LIGHT       ON *       LIGH3       010VISTA          000000000027700000000280000000002720000000000000000000272000000310400
0202LOTE PADRAO                   TELESP CL PAPN *       TSPP4       010VISTA          000000000004800000000049000000000471000000000000000000047500225852000
0202LOTE PADRAO                   VALE R DOCE PNA        VALE5       010VISTA          000000000101900000001022000000009975000000000000000001000000000018300
0202LOTE PADRAO                   COPEL       PNB*       CPLE6       010VISTA          000000000008300000000083000000000770000000000000000000077000226268000
0202LOTE PADRAO                   VALE R DOCE ON         VALE3       010VISTA          000000000110700000001110000000010840000000000000000001095000000004500
0202LOTE PADRAO                   ARACRUZ     PNB        ARCZ6       010VISTA          000000000007800000000078000000000750000000000000000000075000000044100
0202LOTE PADRAO                   TELEMIG PARTPN *       TMCP4       010VISTA          000000000003100000000031000000000310000000000000000000031000049305600
0202LOTE PADRAO                   BRASIL TELECPN *       BRTO4       010VISTA          000000000013100000000131000000001280000000000000000000128000052893900
0202LOTE PADRAO                   SABESP      ON *       SBSP3       010VISTA          000000000113500000001135000000011100000000000000000001122000003369300
0202LOTE PADRAO                   BRASKEM     PNA*       BRKM5       010VISTA          000000000602000000006290000000060200000000000000000006270000000948900
0202LOTE PADRAO                   EMBRAER     PN EJ      EMBR4       010VISTA          000000000013750000000139000000001370000000000000000000138000000057000
0202LOTE PADRAO                   TELESP      PN * EJ    TLPP4       010VISTA          000000000031300000000316000000003050000000000000000000305000010685800
0202LOTE PADRAO                   EMBRAER     ON EJ      EMBR3       010VISTA          000000000010600000000108000000001060000000000000000000107000000018900
0202LOTE PADRAO                   AMBEV       PN *       AMBV4       010VISTA          000000000613000000006144000000060400000000000000000006050000002366800
0202LOTE PADRAO                   USIMINAS    PNA        USIM5       010VISTA          000000000018100000000185000000001750000000000000000000177000000089200
0202LOTE PADRAO                   ELETROPAULO PN *       ELPL4       010VISTA          000000000025500000000256000000002480000000000000000000249000005657700
0202LOTE PADRAO                   TELE NORD CLPN *       TNEP4       010VISTA          000000000002500000000025000000000240000000000000000000024800075628500
0202LOTE PADRAO                   CEMIG       PN * EJ    CMIG4       010VISTA          000000000029800000000299000000002910000000000000000000293000052812700
0202LOTE PADRAO                   TELE CL SUL PN * EJ    TCSL4       010VISTA          000000000002480000000024000000000240000000000000000000024800161164000
0202LOTE PADRAO                   TRACTEBEL   ON *       TBLE3       010VISTA          000000000007500000000077000000000740000000000000000000077000001001500
0202LOTE PADRAO                   CEMIG       ON * EJ    CMIG3       010VISTA          000000000023100000000233000000002300000000000000000000232000000900300
0202LOTE PADRAO                   TELE CL SUL ON * EJ    TCSL3       010VISTA          000000000002100000000022000000000210000000000000000000021000005807700
0202LOTE PADRAO                   ITAUSA      PN         ITSA4       010VISTA          000000000002600000000026000000000260000000000000000000026000000119400
0202LOTE PADRAO                   V C P       PN *       VCPA4       010VISTA          000000000148800000001500000000014520000000000000000001460000001911700
0202LOTE PADRAO                   SID TUBARAO PN *       CSTB4       010VISTA          000000000060500000000630000000005980000000000000000000630000009588400
0202LOTE PADRAO                   BRADESPAR   PN *       BRAP4       010VISTA          000000000000780000000007900000000077000000000000000000007700262099000
0202LOTE PADRAO                   NET         PN         PLIM4       010VISTA          000000000000340000000003500000000033000000000000000000003400000239700
0202LOTE PADRAO                   TELE CTR OESPN * EJ    TCOC4       010VISTA          000000000006100000000061000000000590000000000000000000059000118500000
0202LOTE PADRAO                   TELEMAR N L PNA* EJ    TMAR5       010VISTA          000000000042800000000428000000004120000000000000000000416000007411000
0202LOTE PADRAO                   GERDAU      PN * EJ    GGBR4       010VISTA          000000000041700000000430000000004170000000000000000000428000000029200
0202LOTE PADRAO                   BRASIL      ON *       BBAS3       010VISTA          000000000015500000000156000000001540000000000000000000155000010738900
