00BDIN9999BOVESPA 99992003022120030221
0101IBOVESPA                      0102220101440103400000000000000000002003022100000020030221010331000000
0202LOTE PADRAO                   EMBRATEL PARPN *       EBTP4       010VISTA          000000000003000000000032500000000300000000000000000000032500522274000
0202LOTE PADRAO                   TRAN PAULISTPN * EJ    TRPL4       010VISTA          000000000005100000000052000000000510000000000000000000052000005001900
0202LOTE PADRAO                   EMBRATEL PARON *       EBTP3       010VISTA          000000000003600000000037000000000360000000000000000000037700057126900
0202LOTE PADRAO                   TELEMAR     PN * EJ    TNLP4       010VISTA          000000000024600000000246000000002410000000000000000000245000176256000
0202LOTE PADRAO                   ITAUBANCO   PN * EJ    ITAU4       010VISTA          000000000152900000001529000000015190000000000000000001525000011014700
0202LOTE PADRAO                   TELEMAR     ON * EJ    TNLP3       010VISTA          000000000017400000000177000000001710000000000000000000176000015816700
0202LOTE PADRAO                   SID NACIONALON *       CSNA3       010VISTA          000000000064500000000645000000005910000000000000000000597000050648600
0202LOTE PADRAO                   TELE LEST CLPN *       TLCP4       010VISTA          000000000000390000000003900000000037000000000000000000003900033340200
0202LOTE PADRAO                   CRT CELULAR PNA* EJ    CRTP5       010VISTA          000000000306000000003100000000030300000000000000000003080000000277000
0202LOTE PADRAO                   IPIRANGA PETPN *       PTIP4       010VISTA          000000000006700000000069000000000670000000000000000000069000000305000
0202LOTE PADRAO                   BRASIL T PARPN *       BRTP4       010VISTA          000000000018100000000186000000001790000000000000000000183000141602000
0202LOTE PADRAO                   BRASIL T PARON *       BRTP3       010VISTA          000000000013500000000139000000001340000000000000000000139000005379500
0202LOTE PADRAO                   KLABIN S/A  PN         KLBN4       010VISTA          000000000001280000000014000000000128000000000000000000014000000261900
0202LOTE PADRAO                   ACESITA     PN *       ACES4       010VISTA          000000000001100000000011000000000110000000000000000000011000091433800
0202LOTE PADRAO                   PETROBRAS   PN         PETR4       010VISTA          000000000044600000000451000000004420000000000000000000451000000064200
0202LOTE PADRAO                   ELETROBRAS  PNB*       ELET6       010VISTA          000000000018000000000183000000001760000000000000000000180000056461200
0202LOTE PADRAO                   PETROBRAS   ON         PETR3       010VISTA          000000000049600000000502000000004930000000000000000000501000000030000
0202LOTE PADRAO                   COMGAS      PNA*       CGAS5       010VISTA          000000000044500000000451000000004450000000000000000000448000000357000
0202LOTE PADRAO                   SOUZA CRUZ  ON EJ      CRUZ3       010VISTA          000000000018900000000190000000001890000000000000000000190000000012000
0202LOTE PADRAO                   ELETROBRAS  ON *       ELET3       010VISTA          000000000017000000000171000000001660000000000000000000169000019457300
0202LOTE PADRAO                   CELESC      PNB        CLSC6       010VISTA          000000000000470000000004700000000046000000000000000000004700000080800
0202LOTE PADRAO                   BRADESCO    PN * EJ    BBDC4       010VISTA          000000000009600000000098000000000950000000000000000000098000108489000
0202LOTE PADRAO                   CESP        PN *       CESP4       010VISTA          000000000005900000000060000000000580000000000000000000058000009880300
0202LOTE PADRAO                   LIGHT       ON *       LIGH3       010VISTA          000000000031900000000319000000002910000000000000000000299000000089700
0202LOTE PADRAO                   TELESP CL PAPN *       TSPP4       010VISTA          000000000003200000000033000000000310000000000000000000033000243959000
0202LOTE PADRAO                   VALE R DOCE PNA        VALE5       010VISTA          000000000095000000000990000000009500000000000000000000989000000011600
0202LOTE PADRAO                   COPEL       PNB*       CPLE6       010VISTA          000000000007400000000077100000000730000000000000000000075000041989700
0202LOTE PADRAO                   VALE R DOCE ON         VALE3       010VISTA          000000000099000000001020000000009900000000000000000001020000000003600
0202LOTE PADRAO                   ARACRUZ     PNB        ARCZ6       010VISTA          000000000006700000000067000000000660000000000000000000067000000039300
0202LOTE PADRAO                   TELEMIG PARTPN *       TMCP4       010VISTA          000000000002600000000026000000000250000000000000000000025600065521000
0202LOTE PADRAO                   BRASIL TELECPN *       BRTO4       010VISTA          000000000010500000000111000000001050000000000000000000109000268903000
0202LOTE PADRAO                   SABESP      ON *       SBSP3       010VISTA          000000000079700000000819000000007950000000000000000000795000001526700
0202LOTE PADRAO                   BRASKEM     PNA*       BRKM5       010VISTA          000000000166500000001675000000016500000000000000000001673000000069700
0202LOTE PADRAO                   EMBRAER     PN EJ      EMBR4       010VISTA          000000000009300000000096000000000930000000000000000000095000000025300
0202LOTE PADRAO                   TELESP      PN * EJ    TLPP4       010VISTA          000000000032800000000338000000003260000000000000000000338000004431300
0202LOTE PADRAO                   EMBRAER     ON EJ      EMBR3       010VISTA          000000000008300000000084000000000820000000000000000000083000000004500
0202LOTE PADRAO                   AMBEV       PN *       AMBV4       010VISTA          000000000515000000005170000000051200000000000000000005150000001354400
0202LOTE PADRAO                   USIMINAS    PNA        USIM5       010VISTA          000000000007500000000075000000000740000000000000000000074000000047300
0202LOTE PADRAO                   ELETROPAULO PN *       ELPL4       010VISTA          000000000022000000000223000000002160000000000000000000218000004029500
0202LOTE PADRAO                   TELE NORD CLPN *       TNEP4       010VISTA          000000000002300000000024000000000230000000000000000000023000036943100
0202LOTE PADRAO                   CEMIG       PN * EJ    CMIG4       010VISTA          000000000023100000000233000000002260000000000000000000231000032655400
0202LOTE PADRAO                   TELE CL SUL PN * EJ    TCSL4       010VISTA          000000000002200000000022000000000210000000000000000000022000074338200
0202LOTE PADRAO                   TRACTEBEL   ON *       TBLE3       010VISTA          000000000002900000000030000000000290000000000000000000029000009300000
0202LOTE PADRAO                   CEMIG       ON * EJ    CMIG3       010VISTA          000000000019800000000198000000001980000000000000000000198000000040900
0202LOTE PADRAO                   TELE CL SUL ON * EJ    TCSL3       010VISTA          000000000001600000000016000000000160000000000000000000016000018404300
0202LOTE PADRAO                   ITAUSA      PN         ITSA4       010VISTA          000000000001800000000018100000000179000000000000000000017900000116100
0202LOTE PADRAO                   V C P       PN *       VCPA4       010VISTA          000000000130000000001320000000012910000000000000000001305000001837500
0202LOTE PADRAO                   SID TUBARAO PN *       CSTB4       010VISTA          000000000042800000000435000000004230000000000000000000427000003951300
0202LOTE PADRAO                   BRADESPAR   PN *       BRAP4       010VISTA          000000000000610000000006200000000060000000000000000000006100058686700
0202LOTE PADRAO                   NET         PN         PLIM4       010VISTA          000000000000290000000003000000000027000000000000000000003000000401500
0202LOTE PADRAO                   TELE CTR OESPN * EJ    TCOC4       010VISTA          000000000004000000000041000000000390000000000000000000041000066465400
0202LOTE PADRAO                   TELEMAR N L PNA* EJ    TMAR5       010VISTA          000000000036000000000375000000003580000000000000000000371000013351700
0202LOTE PADRAO                   GERDAU      PN * EJ    GGBR4       010VISTA          000000000032100000000327000000003180000000000000000000324000021613500
0202LOTE PADRAO                   BRASIL      ON *       BBAS3       010VISTA          000000000009400000000096000000000930000000000000000000095000014622100
