00BDIN9999BOVESPA 99992003013120030131
0101IBOVESPA                      0107610107410110040000000000000000002003013100000020030131010941000000
0202LOTE PADRAO                   EMBRATEL PARPN *       EBTP4       010VISTA          000000000003600000000036900000000350000000000000000000036000403412000
0202LOTE PADRAO                   TRAN PAULISTPN * EJ    TRPL4       010VISTA          000000000005200000000054000000000520000000000000000000053000005230300
0202LOTE PADRAO                   EMBRATEL PARON *       EBTP3       010VISTA          000000000004200000000043000000000420000000000000000000042000061690000
0202LOTE PADRAO                   TELEMAR     PN * EJ    TNLP4       010VISTA          000000000026500000000271000000002630000000000000000000270000284381000
0202LOTE PADRAO                   ITAUBANCO   PN * EJ    ITAU4       010VISTA          000000000154100000001555000000015360000000000000000001545000007826400
0202LOTE PADRAO                   TELEMAR     ON * EJ    TNLP3       010VISTA          000000000019300000000197500000001900000000000000000000197000013858400
0202LOTE PADRAO                   SID NACIONALON *       CSNA3       010VISTA          000000000055000000000582000000005500000000000000000000577500017725400
0202LOTE PADRAO                   TELE LEST CLPN *       TLCP4       010VISTA          000000000000430000000004400000000042000000000000000000004300112788000
0202LOTE PADRAO                   CRT CELULAR PNA* EJ    CRTP5       010VISTA          000000000335000000003399000000032500000000000000000003365000000283600
0202LOTE PADRAO                   IPIRANGA PETPN *       PTIP4       010VISTA          000000000007000000000075000000000700000000000000000000072000001233400
0202LOTE PADRAO                   BRASIL T PARPN *       BRTP4       010VISTA          000000000017300000000181000000001700000000000000000000178000127810000
0202LOTE PADRAO                   BRASIL T PARON *       BRTP3       010VISTA          000000000012900000000133000000001270000000000000000000133000002679700
0202LOTE PADRAO                   KLABIN S/A  PN         KLBN4       010VISTA          000000000001000000000010000000000100000000000000000000010000000025600
0202LOTE PADRAO                   ACESITA     PN *       ACES4       010VISTA          000000000000860000000009000000000086000000000000000000008800054692000
0202LOTE PADRAO                   PETROBRAS   PN         PETR4       010VISTA          000000000047200000000481000000004680000000000000000000475000000101500
0202LOTE PADRAO                   ELETROBRAS  PNB*       ELET6       010VISTA          000000000020000000000204000000001980000000000000000000203000028225300
0202LOTE PADRAO                   PETROBRAS   ON         PETR3       010VISTA          000000000051750000000522500000005100000000000000000000517000000028100
0202LOTE PADRAO                   COMGAS      PNA*       CGAS5       010VISTA          000000000049100000000492000000004850000000000000000000488000001386400
0202LOTE PADRAO                   SOUZA CRUZ  ON EJ      CRUZ3       010VISTA          000000000017900000000181000000001760000000000000000000178000000010600
0202LOTE PADRAO                   ELETROBRAS  ON *       ELET3       010VISTA          000000000019500000000197500000001930000000000000000000193000003013500
0202LOTE PADRAO                   CELESC      PNB        CLSC6       010VISTA          000000000000510000000005100000000050000000000000000000005100000078200
0202LOTE PADRAO                   BRADESCO    PN * EJ    BBDC4       010VISTA          000000000009700000000099000000000970000000000000000000098000133514000
0202LOTE PADRAO                   CESP        PN *       CESP4       010VISTA          000000000006700000000067000000000660000000000000000000067000004109200
0202LOTE PADRAO                   LIGHT       ON *       LIGH3       010VISTA          000000000039000000000406000000003900000000000000000000400000000280900
0202LOTE PADRAO                   TELESP CL PAPN *       TSPP4       010VISTA          000000000003700000000038000000000360000000000000000000038000453940000
0202LOTE PADRAO                   VALE R DOCE PNA        VALE5       010VISTA          000000000089900000000924000000008990000000000000000000919000000014300
0202LOTE PADRAO                   COPEL       PNB*       CPLE6       010VISTA          000000000008500000000086000000000840000000000000000000086000024664100
0202LOTE PADRAO                   VALE R DOCE ON         VALE3       010VISTA          000000000095000000000975000000009500000000000000000000967000000005600
0202LOTE PADRAO                   ARACRUZ     PNB        ARCZ6       010VISTA          000000000006500000000068000000000650000000000000000000067000000018500
0202LOTE PADRAO                   TELEMIG PARTPN *       TMCP4       010VISTA          000000000002500000000026000000000256000000000000000000026000145370000
0202LOTE PADRAO                   BRASIL TELECPN *       BRTO4       010VISTA          000000000010600000000107000000001030000000000000000000106000129020000
0202LOTE PADRAO                   SABESP      ON *       SBSP3       010VISTA          000000000083900000000860000000008330000000000000000000859000001896800
0202LOTE PADRAO                   BRASKEM     PNA*       BRKM5       010VISTA          000000000184000000001889000000018300000000000000000001840000000198800
0202LOTE PADRAO                   EMBRAER     PN EJ      EMBR4       010VISTA          000000000012500000000127000000001230000000000000000000124000000040500
0202LOTE PADRAO                   TELESP      PN * EJ    TLPP4       010VISTA          000000000030200000000306000000002980000000000000000000300000011674400
0202LOTE PADRAO                   EMBRAER     ON EJ      EMBR3       010VISTA          000000000011400000000115000000001110000000000000000000111000000011400
0202LOTE PADRAO                   AMBEV       PN *       AMBV4       010VISTA          000000000493000000005049000000049300000000000000000005049000001436200
0202LOTE PADRAO                   USIMINAS    PNA        USIM5       010VISTA          000000000007300000000074000000000720000000000000000000074000000018700
0202LOTE PADRAO                   ELETROPAULO PN *       ELPL4       010VISTA          000000000026300000000285000000002600000000000000000000285000005617000
0202LOTE PADRAO                   TELE NORD CLPN *       TNEP4       010VISTA          000000000002700000000027000000000260000000000000000000026000067002600
0202LOTE PADRAO                   CEMIG       PN * EJ    CMIG4       010VISTA          000000000024600000000250000000002410000000000000000000250000030439600
0202LOTE PADRAO                   TELE CL SUL PN * EJ    TCSL4       010VISTA          000000000002500000000025400000000240000000000000000000025000068091400
0202LOTE PADRAO                   TRACTEBEL   ON *       TBLE3       010VISTA          000000000003520000000035000000000330000000000000000000035000011420300
0202LOTE PADRAO                   CEMIG       ON * EJ    CMIG3       010VISTA          000000000022100000000221000000002150000000000000000000218000000716300
0202LOTE PADRAO                   TELE CL SUL ON * EJ    TCSL3       010VISTA          000000000001800000000018000000000180000000000000000000018000010632600
0202LOTE PADRAO                   ITAUSA      PN         ITSA4       010VISTA          000000000001790000000018000000000178000000000000000000018000000104900
0202LOTE PADRAO                   V C P       PN *       VCPA4       010VISTA          000000000120000000001239000000012000000000000000000001220000000889700
0202LOTE PADRAO                   SID TUBARAO PN *       CSTB4       010VISTA          000000000035000000000371000000003500000000000000000000370000008153500
0202LOTE PADRAO                   BRADESPAR   PN *       BRAP4       010VISTA          000000000000590000000006100000000058000000000000000000006100286102000
0202LOTE PADRAO                   NET         PN         PLIM4       010VISTA          000000000000380000000003800000000036000000000000000000003700000714300
0202LOTE PADRAO                   TELE CTR OESPN * EJ    TCOC4       010VISTA          000000000004600000000048000000000450000000000000000000048000177354000
0202LOTE PADRAO                   TELEMAR N L PNA* EJ    TMAR5       010VISTA          000000000040600000000412000000004000000000000000000000408000014092600
0202LOTE PADRAO                   GERDAU      PN * EJ    GGBR4       010VISTA          000000000030800000000320000000003080000000000000000000316000010406600
0202LOTE PADRAO                   BRASIL      ON *       BBAS3       010VISTA          000000000009500000000097000000000950000000000000000000096000008366300
