00BDIN9999BOVESPA 99992003033120030331
0101IBOVESPA                      0113870112150113870000000000000000002003033100000020030331011274000000
0202LOTE PADRAO                   EMBRATEL PARPN *       EBTP4       010VISTA          000000000003300000000034000000000330000000000000000000033000223471000
0202LOTE PADRAO                   TRAN PAULISTPN * EJ    TRPL4       010VISTA          000000000005900000000060000000000590000000000000000000059000008149700
0202LOTE PADRAO                   EMBRATEL PARON *       EBTP3       010VISTA          000000000003800000000040000000000370000000000000000000040000068223200
0202LOTE PADRAO                   TELEMAR     PN * EJ    TNLP4       010VISTA          000000000027800000000283000000002750000000000000000000275000334006000
0202LOTE PADRAO                   ITAUBANCO   PN * EJ    ITAU4       010VISTA          000000000177000000001838000000017700000000000000000001838000005319100
0202LOTE PADRAO                   TELEMAR     ON * EJ    TNLP3       010VISTA          000000000019900000000203000000001980000000000000000000198000027677000
0202LOTE PADRAO                   SID NACIONALON *       CSNA3       010VISTA          000000000065000000000681000000006410000000000000000000650000041916800
0202LOTE PADRAO                   TELE LEST CLPN *       TLCP4       010VISTA          000000000000430000000004300000000041000000000000000000004200095430400
0202LOTE PADRAO                   CRT CELULAR PNA* EJ    CRTP5       010VISTA          000000000312000000003280000000031200000000000000000003280000000303900
0202LOTE PADRAO                   IPIRANGA PETPN *       PTIP4       010VISTA          000000000007000000000071000000000696000000000000000000070000002795600
0202LOTE PADRAO                   BRASIL T PARPN *       BRTP4       010VISTA          000000000018600000000188000000001860000000000000000000187500053060200
0202LOTE PADRAO                   BRASIL T PARON *       BRTP3       010VISTA          000000000014500000000146000000001410000000000000000000146000002976700
0202LOTE PADRAO                   KLABIN S/A  PN         KLBN4       010VISTA          000000000001730000000018000000000173000000000000000000018000000186600
0202LOTE PADRAO                   ACESITA     PN *       ACES4       010VISTA          000000000001100000000011000000000110000000000000000000011000191236000
0202LOTE PADRAO                   PETROBRAS   PN         PETR4       010VISTA          000000000046000000000463000000004580000000000000000000463000000060700
0202LOTE PADRAO                   ELETROBRAS  PNB*       ELET6       010VISTA          000000000020300000000205000000002010000000000000000000201000022945000
0202LOTE PADRAO                   PETROBRAS   ON         PETR3       010VISTA          000000000050300000000512000000005030000000000000000000507000000021600
0202LOTE PADRAO                   COMGAS      PNA*       CGAS5       010VISTA          000000000049200000000518000000004920000000000000000000503000001030900
0202LOTE PADRAO                   SOUZA CRUZ  ON EJ      CRUZ3       010VISTA          000000000018800000000193000000001880000000000000000000193000000019600
0202LOTE PADRAO                   ELETROBRAS  ON *       ELET3       010VISTA          000000000018200000000182000000001790000000000000000000182000010710700
0202LOTE PADRAO                   CELESC      PNB        CLSC6       010VISTA          000000000000440000000004500000000043000000000000000000004400000069700
0202LOTE PADRAO                   BRADESCO    PN * EJ    BBDC4       010VISTA          000000000011500000000116000000001140000000000000000000116000124908000
0202LOTE PADRAO                   CESP        PN *       CESP4       010VISTA          000000000006000000000060000000000580000000000000000000058000006600000
0202LOTE PADRAO                   LIGHT       ON *       LIGH3       010VISTA          000000000024100000000248000000002410000000000000000000243000000184300
0202LOTE PADRAO                   TELESP CL PAPN *       TSPP4       010VISTA          000000000004300000000043000000000420000000000000000000042000218409000
0202LOTE PADRAO                   VALE R DOCE PNA        VALE5       010VISTA          000000000087200000000880000000008650000000000000000000875000000027300
0202LOTE PADRAO                   COPEL       PNB*       CPLE6       010VISTA          000000000008100000000083000000000810000000000000000000082000027791200
0202LOTE PADRAO                   VALE R DOCE ON         VALE3       010VISTA          000000000092000000000920000000009000000000000000000000910000000020500
0202LOTE PADRAO                   ARACRUZ     PNB        ARCZ6       010VISTA          000000000006600000000067000000000650000000000000000000067000000048500
0202LOTE PADRAO                   TELEMIG PARTPN *       TMCP4       010VISTA          000000000002800000000028000000000270000000000000000000028000075627700
0202LOTE PADRAO                   BRASIL TELECPN *       BRTO4       010VISTA          000000000010600000000108000000001060000000000000000000107000107629000
0202LOTE PADRAO                   SABESP      ON *       SBSP3       010VISTA          000000000080800000000834000000008050000000000000000000815000006647300
0202LOTE PADRAO                   BRASKEM     PNA*       BRKM5       010VISTA          000000000202000000002190000000020200000000000000000002130000000375100
0202LOTE PADRAO                   EMBRAER     PN EJ      EMBR4       010VISTA          000000000009300000000098000000000920000000000000000000097000000183900
0202LOTE PADRAO                   TELESP      PN * EJ    TLPP4       010VISTA          000000000031500000000315000000003060000000000000000000308000017093000
0202LOTE PADRAO                   EMBRAER     ON EJ      EMBR3       010VISTA          000000000008000000000087000000000790000000000000000000082000000027600
0202LOTE PADRAO                   AMBEV       PN *       AMBV4       010VISTA          000000000544200000005620000000054420000000000000000005620000002853000
0202LOTE PADRAO                   USIMINAS    PNA        USIM5       010VISTA          000000000008600000000093000000000860000000000000000000091000000116400
0202LOTE PADRAO                   ELETROPAULO PN *       ELPL4       010VISTA          000000000022300000000223000000002160000000000000000000218000006395400
0202LOTE PADRAO                   TELE NORD CLPN *       TNEP4       010VISTA          000000000002400000000024000000000230000000000000000000023000026001400
0202LOTE PADRAO                   CEMIG       PN * EJ    CMIG4       010VISTA          000000000024600000000253000000002430000000000000000000252000043006900
0202LOTE PADRAO                   TELE CL SUL PN * EJ    TCSL4       010VISTA          000000000002300000000024000000000230000000000000000000023000051379700
0202LOTE PADRAO                   TRACTEBEL   ON *       TBLE3       010VISTA          000000000004200000000044000000000420000000000000000000042000028607400
0202LOTE PADRAO                   CEMIG       ON * EJ    CMIG3       010VISTA          000000000018800000000196000000001880000000000000000000192000003482200
0202LOTE PADRAO                   TELE CL SUL ON * EJ    TCSL3       010VISTA          000000000002300000000027500000000230000000000000000000026000048874100
0202LOTE PADRAO                   ITAUSA      PN         ITSA4       010VISTA          000000000002100000000021000000000200000000000000000000020000000217400
0202LOTE PADRAO                   V C P       PN *       VCPA4       010VISTA          000000000126900000001278000000012290000000000000000001270000000525200
0202LOTE PADRAO                   SID TUBARAO PN *       CSTB4       010VISTA          000000000043600000000445000000004310000000000000000000435000009516900
0202LOTE PADRAO                   BRADESPAR   PN *       BRAP4       010VISTA          000000000000650000000006500000000064000000000000000000006400116183000
0202LOTE PADRAO                   NET         PN         PLIM4       010VISTA          000000000000290000000002900000000027000000000000000000002800001145900
0202LOTE PADRAO                   TELE CTR OESPN * EJ    TCOC4       010VISTA          000000000005400000000054000000000520000000000000000000054000069645500
0202LOTE PADRAO                   TELEMAR N L PNA* EJ    TMAR5       010VISTA          000000000037300000000378000000003640000000000000000000366000022522600
0202LOTE PADRAO                   GERDAU      PN * EJ    GGBR4       010VISTA          000000000030600000000310000000003030000000000000000000308000014703700
0202LOTE PADRAO                   BRASIL      ON *       BBAS3       010VISTA          000000000010500000000106000000001050000000000000000000105000012885800
