00BDIN9999BOVESPA 99992003052020030520
0101IBOVESPA                      0127530125760127530000000000000000002003052000000020030520012745000000
0202LOTE PADRAO                   EMBRATEL PARPN *       EBTP4       010VISTA          000000000004400000000045000000000440000000000000000000044000343139000
0202LOTE PADRAO                   TRAN PAULISTPN * EJ    TRPL4       010VISTA          000000000007300000000075000000000730000000000000000000075400017857000
0202LOTE PADRAO                   EMBRATEL PARON *       EBTP3       010VISTA          000000000005100000000051000000000500000000000000000000050000020845300
0202LOTE PADRAO                   TELEMAR     PN * EJ    TNLP4       010VISTA          000000000033000000000335000000003260000000000000000000335000504867000
0202LOTE PADRAO                   ITAUBANCO   PN * EJ    ITAU4       010VISTA          000000000195500000001965000000019100000000000000000001930000011183000
0202LOTE PADRAO                   TELEMAR     ON * EJ    TNLP3       010VISTA          000000000023500000000240000000002310000000000000000000240000016816500
0202LOTE PADRAO                   SID NACIONALON *       CSNA3       010VISTA          000000000055500000000575000000005470000000000000000000575000027089500
0202LOTE PADRAO                   TELE LEST CLPN *       TLCP4       010VISTA          000000000000430000000004400000000043000000000000000000004400122248000
0202LOTE PADRAO                   CRT CELULAR PNA* EJ    CRTP5       010VISTA          000000000337000000003390000000033000000000000000000003350000000877200
0202LOTE PADRAO                   IPIRANGA PETPN *       PTIP4       010VISTA          000000000008400000000084000000000800000000000000000000083000006309800
0202LOTE PADRAO                   BRASIL T PARPN *       BRTP4       010VISTA          000000000021300000000217000000002100000000000000000000213000061964000
0202LOTE PADRAO                   BRASIL T PARON *       BRTP3       010VISTA          000000000015800000000159000000001530000000000000000000159000011996000
0202LOTE PADRAO                   KLABIN S/A  PN         KLBN4       010VISTA          000000000002100000000023000000000200000000000000000000023000000309300
0202LOTE PADRAO                   ACESITA     PN *       ACES4       010VISTA          000000000001300000000013000000000130000000000000000000013000161574000
0202LOTE PADRAO                   PETROBRAS   PN         PETR4       010VISTA          000000000052700000000531000000005160000000000000000000531000000128500
0202LOTE PADRAO                   ELETROBRAS  PNB*       ELET6       010VISTA          000000000023300000000233000000002260000000000000000000230000043915000
0202LOTE PADRAO                   PETROBRAS   ON         PETR3       010VISTA          000000000056000000000575000000005580000000000000000000575000000020500
0202LOTE PADRAO                   COMGAS      PNA*       CGAS5       010VISTA          000000000055100000000562000000005350000000000000000000540000001354000
0202LOTE PADRAO                   SOUZA CRUZ  ON EJ      CRUZ3       010VISTA          000000000018200000000186000000001820000000000000000000184000000010900
0202LOTE PADRAO                   ELETROBRAS  ON *       ELET3       010VISTA          000000000021600000000216000000002080000000000000000000213000009562800
0202LOTE PADRAO                   CELESC      PNB        CLSC6       010VISTA          000000000000490000000004900000000048000000000000000000004900000126500
0202LOTE PADRAO                   BRADESCO    PN * EJ    BBDC4       010VISTA          000000000011400000000114000000001120000000000000000000112500288296000
0202LOTE PADRAO                   CESP        PN *       CESP4       010VISTA          000000000008200000000082500000000790000000000000000000080000007274500
0202LOTE PADRAO                   LIGHT       ON *       LIGH3       010VISTA          000000000028500000000295000000002800000000000000000000284000001284000
0202LOTE PADRAO                   TELESP CL PAPN *       TSPP4       010VISTA          000000000004300000000044000000000420000000000000000000044000475862000
0202LOTE PADRAO                   VALE R DOCE PNA        VALE5       010VISTA          000000000082000000000832000000008200000000000000000000830000000048000
0202LOTE PADRAO                   COPEL       PNB*       CPLE6       010VISTA          000000000009700000000098000000000930000000000000000000095000059721200
0202LOTE PADRAO                   VALE R DOCE ON         VALE3       010VISTA          000000000085500000000882000000008550000000000000000000881000000011300
0202LOTE PADRAO                   ARACRUZ     PNB        ARCZ6       010VISTA          000000000005600000000057000000000550000000000000000000056000000103500
0202LOTE PADRAO                   TELEMIG PARTPN *       TMCP4       010VISTA          000000000002600000000027100000000260000000000000000000026000069283000
0202LOTE PADRAO                   BRASIL TELECPN *       BRTO4       010VISTA          000000000012600000000128000000001230000000000000000000125000082280900
0202LOTE PADRAO                   SABESP      ON *       SBSP3       010VISTA          000000000105000000001050000000010200000000000000000001049000004115600
0202LOTE PADRAO                   BRASKEM     PNA*       BRKM5       010VISTA          000000000355000000003720000000035500000000000000000003700000000186400
0202LOTE PADRAO                   EMBRAER     PN EJ      EMBR4       010VISTA          000000000010500000000108000000001050000000000000000000107500000084800
0202LOTE PADRAO                   TELESP      PN * EJ    TLPP4       010VISTA          000000000031400000000315000000003010000000000000000000308000019455200
0202LOTE PADRAO                   EMBRAER     ON EJ      EMBR3       010VISTA          000000000008800000000090000000000870000000000000000000088000000009700
0202LOTE PADRAO                   AMBEV       PN *       AMBV4       010VISTA          000000000593200000005932000000057100000000000000000005880000001320000
0202LOTE PADRAO                   USIMINAS    PNA        USIM5       010VISTA          000000000010000000000100000000000960000000000000000000098000000058900
0202LOTE PADRAO                   ELETROPAULO PN *       ELPL4       010VISTA          000000000028600000000294000000002780000000000000000000294000006484300
0202LOTE PADRAO                   TELE NORD CLPN *       TNEP4       010VISTA          000000000002480000000025200000000240000000000000000000024000074711300
0202LOTE PADRAO                   CEMIG       PN * EJ    CMIG4       010VISTA          000000000030300000000303000000002930000000000000000000298000063049000
0202LOTE PADRAO                   TELE CL SUL PN * EJ    TCSL4       010VISTA          000000000002500000000026000000000256000000000000000000025000077325200
0202LOTE PADRAO                   TRACTEBEL   ON *       TBLE3       010VISTA          000000000004600000000050000000000460000000000000000000050000063410000
0202LOTE PADRAO                   CEMIG       ON * EJ    CMIG3       010VISTA          000000000023200000000238000000002280000000000000000000238000001057500
0202LOTE PADRAO                   TELE CL SUL ON * EJ    TCSL3       010VISTA          000000000002300000000023000000000220000000000000000000023000022766100
0202LOTE PADRAO                   ITAUSA      PN         ITSA4       010VISTA          000000000002300000000023000000000220000000000000000000023000000111400
0202LOTE PADRAO                   V C P       PN *       VCPA4       010VISTA          000000000101000000001025000000009900000000000000000001024000005971000
0202LOTE PADRAO                   SID TUBARAO PN *       CSTB4       010VISTA          000000000045000000000450000000004400000000000000000000445000008680700
0202LOTE PADRAO                   BRADESPAR   PN *       BRAP4       010VISTA          000000000000640000000006500000000063000000000000000000006400240352000
0202LOTE PADRAO                   NET         PN         PLIM4       010VISTA          000000000000360000000003600000000034000000000000000000003400000544100
0202LOTE PADRAO                   TELE CTR OESPN * EJ    TCOC4       010VISTA          000000000005200000000054000000000520000000000000000000054000097161400
0202LOTE PADRAO                   TELEMAR N L PNA* EJ    TMAR5       010VISTA          000000000042000000000432000000003970000000000000000000407000051162600
0202LOTE PADRAO                   GERDAU      PN * EJ    GGBR4       010VISTA          000000000030500000000305000000002950000000000000000000301000000030200
0202LOTE PADRAO                   BRASIL      ON *       BBAS3       010VISTA          000000000013500000000138000000001310000000000000000000135000040954400
