00BDIN9999BOVESPA 99992003082020030820
0101IBOVESPA                      0141580140580145060000000000000000002003082000000020030820014467000000
0202LOTE PADRAO                   EMBRATEL PARPN *       EBTP4       010VISTA          000000000005700000000060000000000560000000000000000000060000610270000
0202LOTE PADRAO                   TRAN PAULISTPN * EJ    TRPL4       010VISTA          000000000008300000000084000000000820000000000000000000083000018497900
0202LOTE PADRAO                   EMBRATEL PARON *       EBTP3       010VISTA          000000000006000000000063000000000590000000000000000000063000069464400
0202LOTE PADRAO                   TELEMAR     PN * EJ    TNLP4       010VISTA          000000000034750000000360000000003475000000000000000000357000553705000
0202LOTE PADRAO                   ITAUBANCO   PN * EJ    ITAU4       010VISTA          000000000214500000002150000000020920000000000000000002125000008856300
0202LOTE PADRAO                   TELEMAR     ON * EJ    TNLP3       010VISTA          000000000025300000000262500000002500000000000000000000262500018222500
0202LOTE PADRAO                   SID NACIONALON *       CSNA3       010VISTA          000000000086600000000899000000008650000000000000000000899000030560900
0202LOTE PADRAO                   TELE LEST CLPN *       TLCP4       010VISTA          000000000000440000000004600000000043000000000000000000004500141734000
0202LOTE PADRAO                   CRT CELULAR PNA* EJ    CRTP5       010VISTA          000000000399400000004090000000039800000000000000000004050000001153000
0202LOTE PADRAO                   IPIRANGA PETPN *       PTIP4       010VISTA          000000000010300000000105000000001030000000000000000000104000010800000
0202LOTE PADRAO                   BRASIL T PARPN *       BRTP4       010VISTA          000000000020600000000215000000002060000000000000000000211000078704100
0202LOTE PADRAO                   BRASIL T PARON *       BRTP3       010VISTA          000000000015800000000161000000001570000000000000000000160000008603200
0202LOTE PADRAO                   KLABIN S/A  PN         KLBN4       010VISTA          000000000003000000000031000000000300000000000000000000031000000150300
0202LOTE PADRAO                   ACESITA     PN *       ACES4       010VISTA          000000000001300000000014000000000130000000000000000000014000387972000
0202LOTE PADRAO                   PETROBRAS   PN         PETR4       010VISTA          000000000057600000000581000000005680000000000000000000576000000178100
0202LOTE PADRAO                   ELETROBRAS  PNB*       ELET6       010VISTA          000000000023000000000240000000002270000000000000000000238000067663200
0202LOTE PADRAO                   PETROBRAS   ON         PETR3       010VISTA          000000000061500000000627000000006100000000000000000000622000000040700
0202LOTE PADRAO                   COMGAS      PNA*       CGAS5       010VISTA          000000000075500000000794000000007550000000000000000000780000002838500
0202LOTE PADRAO                   SOUZA CRUZ  ON EJ      CRUZ3       010VISTA          000000000023800000000239000000002360000000000000000000239000000006900
0202LOTE PADRAO                   ELETROBRAS  ON *       ELET3       010VISTA          000000000020400000000214000000002030000000000000000000214000017582000
0202LOTE PADRAO                   CELESC      PNB        CLSC6       010VISTA          000000000000440000000004600000000044000000000000000000004600000538500
0202LOTE PADRAO                   BRADESCO    PN * EJ    BBDC4       010VISTA          000000000011900000000122000000001180000000000000000000121000196887000
0202LOTE PADRAO                   CESP        PN *       CESP4       010VISTA          000000000007200000000074000000000710000000000000000000073000015766500
0202LOTE PADRAO                   LIGHT       ON *       LIGH3       010VISTA          000000000026500000000288000000002650000000000000000000285000001530900
0202LOTE PADRAO                   TELESP CL PAPN *       TSPP4       010VISTA          000000000004400000000046000000000430000000000000000000046000626118000
0202LOTE PADRAO                   VALE R DOCE PNA        VALE5       010VISTA          000000000103900000001074000000010190000000000000000001070000000030200
0202LOTE PADRAO                   COPEL       PNB*       CPLE6       010VISTA          000000000009000000000091000000000870000000000000000000091000277715000
0202LOTE PADRAO                   VALE R DOCE ON         VALE3       010VISTA          000000000113200000001190000000011170000000000000000001165000000020200
0202LOTE PADRAO                   ARACRUZ     PNB        ARCZ6       010VISTA          000000000007700000000078000000000770000000000000000000077000000095600
0202LOTE PADRAO                   TELEMIG PARTPN *       TMCP4       010VISTA          000000000003100000000032000000000300000000000000000000032000092761500
0202LOTE PADRAO                   BRASIL TELECPN *       BRTO4       010VISTA          000000000012500000000128000000001240000000000000000000127000189071000
0202LOTE PADRAO                   SABESP      ON *       SBSP3       010VISTA          000000000111500000001125000000010860000000000000000001120000004621800
0202LOTE PADRAO                   BRASKEM     PNA*       BRKM5       010VISTA          000000000500000000005100000000049200000000000000000005098000000499700
0202LOTE PADRAO                   EMBRAER     PN EJ      EMBR4       010VISTA          000000000013100000000136000000001310000000000000000000136000000067100
0202LOTE PADRAO                   TELESP      PN * EJ    TLPP4       010VISTA          000000000030100000000306000000002990000000000000000000302000025057200
0202LOTE PADRAO                   EMBRAER     ON EJ      EMBR3       010VISTA          000000000010500000000109000000001050000000000000000000109000000028100
0202LOTE PADRAO                   AMBEV       PN *       AMBV4       010VISTA          000000000591900000005949000000058300000000000000000005923000004546900
0202LOTE PADRAO                   USIMINAS    PNA        USIM5       010VISTA          000000000016600000000172000000001660000000000000000000172500000097400
0202LOTE PADRAO                   ELETROPAULO PN *       ELPL4       010VISTA          000000000022900000000248000000002270000000000000000000246000020558800
0202LOTE PADRAO                   TELE NORD CLPN *       TNEP4       010VISTA          000000000002400000000025000000000230000000000000000000024000082950500
0202LOTE PADRAO                   CEMIG       PN * EJ    CMIG4       010VISTA          000000000028300000000294000000002790000000000000000000293000088514100
0202LOTE PADRAO                   TELE CL SUL PN * EJ    TCSL4       010VISTA          000000000002300000000024000000000230000000000000000000024000193121000
0202LOTE PADRAO                   TRACTEBEL   ON *       TBLE3       010VISTA          000000000007900000000079000000000770000000000000000000079000004176300
0202LOTE PADRAO                   CEMIG       ON * EJ    CMIG3       010VISTA          000000000022300000000231000000002230000000000000000000229000000486300
0202LOTE PADRAO                   TELE CL SUL ON * EJ    TCSL3       010VISTA          000000000002100000000021000000000200000000000000000000021000027312300
0202LOTE PADRAO                   ITAUSA      PN         ITSA4       010VISTA          000000000002500000000026000000000250000000000000000000026000000246200
0202LOTE PADRAO                   V C P       PN *       VCPA4       010VISTA          000000000144800000001469000000014300000000000000000001468000004310900
0202LOTE PADRAO                   SID TUBARAO PN *       CSTB4       010VISTA          000000000054700000000570000000005470000000000000000000567000006236000
0202LOTE PADRAO                   BRADESPAR   PN *       BRAP4       010VISTA          000000000000730000000007600000000072000000000000000000007600370141000
0202LOTE PADRAO                   NET         PN         PLIM4       010VISTA          000000000000340000000003500000000033000000000000000000003500000627100
0202LOTE PADRAO                   TELE CTR OESPN * EJ    TCOC4       010VISTA          000000000005540000000058000000000550000000000000000000058000103006000
0202LOTE PADRAO                   TELEMAR N L PNA* EJ    TMAR5       010VISTA          000000000041600000000429000000004150000000000000000000422000013430700
0202LOTE PADRAO                   GERDAU      PN * EJ    GGBR4       010VISTA          000000000039000000000400000000003870000000000000000000399000000042300
0202LOTE PADRAO                   BRASIL      ON *       BBAS3       010VISTA          000000000015200000000157000000001510000000000000000000157000028823300
