00BDIN9999BOVESPA 99992003042520030425
0101IBOVESPA                      0121240120590121850000000000000000002003042500000020030425012126000000
0202LOTE PADRAO                   EMBRATEL PARPN *       EBTP4       010VISTA          000000000004300000000045400000000420000000000000000000044000486536000
0202LOTE PADRAO                   TRAN PAULISTPN * EJ    TRPL4       010VISTA          000000000006200000000064000000000620000000000000000000064000007759700
0202LOTE PADRAO                   EMBRATEL PARON *       EBTP3       010VISTA          000000000004900000000050000000000490000000000000000000050000046387300
0202LOTE PADRAO                   TELEMAR     PN * EJ    TNLP4       010VISTA          000000000029600000000298000000002930000000000000000000296000294786000
0202LOTE PADRAO                   ITAUBANCO   PN * EJ    ITAU4       010VISTA          000000000195750000001960000000019100000000000000000001950000015755100
0202LOTE PADRAO                   TELEMAR     ON * EJ    TNLP3       010VISTA          000000000021300000000213000000002080000000000000000000210000023875500
0202LOTE PADRAO                   SID NACIONALON *       CSNA3       010VISTA          000000000067000000000670000000006520000000000000000000670000072246700
0202LOTE PADRAO                   TELE LEST CLPN *       TLCP4       010VISTA          000000000000440000000004500000000043000000000000000000004500069786500
0202LOTE PADRAO                   CRT CELULAR PNA* EJ    CRTP5       010VISTA          000000000331000000003450000000033000000000000000000003429000001485600
0202LOTE PADRAO                   IPIRANGA PETPN *       PTIP4       010VISTA          000000000008100000000084000000000800000000000000000000083000002880900
0202LOTE PADRAO                   BRASIL T PARPN *       BRTP4       010VISTA          000000000019100000000194000000001910000000000000000000192000062234100
0202LOTE PADRAO                   BRASIL T PARON *       BRTP3       010VISTA          000000000014100000000150000000001410000000000000000000149000023893100
0202LOTE PADRAO                   KLABIN S/A  PN         KLBN4       010VISTA          000000000001980000000020000000000197000000000000000000020000000141600
0202LOTE PADRAO                   ACESITA     PN *       ACES4       010VISTA          000000000001270000000013000000000127000000000000000000012700218435000
0202LOTE PADRAO                   PETROBRAS   PN         PETR4       010VISTA          000000000048000000000482500000004730000000000000000000473000000084200
0202LOTE PADRAO                   ELETROBRAS  PNB*       ELET6       010VISTA          000000000023300000000235000000002310000000000000000000233000023993300
0202LOTE PADRAO                   PETROBRAS   ON         PETR3       010VISTA          000000000052000000000522000000005160000000000000000000517500000010900
0202LOTE PADRAO                   COMGAS      PNA*       CGAS5       010VISTA          000000000052700000000539000000005250000000000000000000537000000936000
0202LOTE PADRAO                   SOUZA CRUZ  ON EJ      CRUZ3       010VISTA          000000000017800000000181000000001760000000000000000000179000000027300
0202LOTE PADRAO                   ELETROBRAS  ON *       ELET3       010VISTA          000000000020700000000211000000002060000000000000000000209000021760700
0202LOTE PADRAO                   CELESC      PNB        CLSC6       010VISTA          000000000000460000000004700000000045000000000000000000004700000085400
0202LOTE PADRAO                   BRADESCO    PN * EJ    BBDC4       010VISTA          000000000012000000000120000000001170000000000000000000119000205170000
0202LOTE PADRAO                   CESP        PN *       CESP4       010VISTA          000000000007600000000080000000000750000000000000000000077000026631800
0202LOTE PADRAO                   LIGHT       ON *       LIGH3       010VISTA          000000000028200000000286000000002780000000000000000000285000001023000
0202LOTE PADRAO                   TELESP CL PAPN *       TSPP4       010VISTA          000000000004500000000047100000000440000000000000000000045000536898000
0202LOTE PADRAO                   VALE R DOCE PNA        VALE5       010VISTA          000000000078500000000789000000007790000000000000000000784000000028800
0202LOTE PADRAO                   COPEL       PNB*       CPLE6       010VISTA          000000000009200000000094000000000910000000000000000000093000096584600
0202LOTE PADRAO                   VALE R DOCE ON         VALE3       010VISTA          000000000080400000000817500000008040000000000000000000814000000005300
0202LOTE PADRAO                   ARACRUZ     PNB        ARCZ6       010VISTA          000000000006500000000065000000000640000000000000000000064000000023800
0202LOTE PADRAO                   TELEMIG PARTPN *       TMCP4       010VISTA          000000000002600000000027000000000260000000000000000000026000077929700
0202LOTE PADRAO                   BRASIL TELECPN *       BRTO4       010VISTA          000000000011900000000120000000001175000000000000000000119000200552000
0202LOTE PADRAO                   SABESP      ON *       SBSP3       010VISTA          000000000097000000001005000000009670000000000000000001000000011413700
0202LOTE PADRAO                   BRASKEM     PNA*       BRKM5       010VISTA          000000000286000000002930000000028500000000000000000002850000000229600
0202LOTE PADRAO                   EMBRAER     PN EJ      EMBR4       010VISTA          000000000009900000000100000000000970000000000000000000099000000066100
0202LOTE PADRAO                   TELESP      PN * EJ    TLPP4       010VISTA          000000000032000000000327000000003200000000000000000000323000008622700
0202LOTE PADRAO                   EMBRAER     ON EJ      EMBR3       010VISTA          000000000008300000000084000000000800000000000000000000082000000018300
0202LOTE PADRAO                   AMBEV       PN *       AMBV4       010VISTA          000000000561300000005760000000056130000000000000000005700000001334000
0202LOTE PADRAO                   USIMINAS    PNA        USIM5       010VISTA          000000000010700000000108000000001050000000000000000000106000000045300
0202LOTE PADRAO                   ELETROPAULO PN *       ELPL4       010VISTA          000000000026200000000280000000002620000000000000000000270000004654300
0202LOTE PADRAO                   TELE NORD CLPN *       TNEP4       010VISTA          000000000002300000000024000000000230000000000000000000024000104234000
0202LOTE PADRAO                   CEMIG       PN * EJ    CMIG4       010VISTA          000000000028800000000291000000002860000000000000000000290000034466800
0202LOTE PADRAO                   TELE CL SUL PN * EJ    TCSL4       010VISTA          000000000002300000000024000000000230000000000000000000024000112407000
0202LOTE PADRAO                   TRACTEBEL   ON *       TBLE3       010VISTA          000000000004700000000052000000000450000000000000000000046000002439800
0202LOTE PADRAO                   CEMIG       ON * EJ    CMIG3       010VISTA          000000000021600000000219000000002120000000000000000000216000002226000
0202LOTE PADRAO                   TELE CL SUL ON * EJ    TCSL3       010VISTA          000000000002200000000023000000000227000000000000000000023000013182800
0202LOTE PADRAO                   ITAUSA      PN         ITSA4       010VISTA          000000000002200000000022700000000210000000000000000000022000000191400
0202LOTE PADRAO                   V C P       PN *       VCPA4       010VISTA          000000000116400000001164000000011070000000000000000001125000001697900
0202LOTE PADRAO                   SID TUBARAO PN *       CSTB4       010VISTA          000000000047700000000477000000004630000000000000000000465000009705600
0202LOTE PADRAO                   BRADESPAR   PN *       BRAP4       010VISTA          000000000000650000000006500000000064000000000000000000006500064135200
0202LOTE PADRAO                   NET         PN         PLIM4       010VISTA          000000000000340000000003400000000033000000000000000000003400000201600
0202LOTE PADRAO                   TELE CTR OESPN * EJ    TCOC4       010VISTA          000000000005540000000057500000000550000000000000000000056000131938000
0202LOTE PADRAO                   TELEMAR N L PNA* EJ    TMAR5       010VISTA          000000000040000000000408000000003970000000000000000000403000007955300
0202LOTE PADRAO                   GERDAU      PN * EJ    GGBR4       010VISTA          000000000033200000000335000000003280000000000000000000331000010782600
0202LOTE PADRAO                   BRASIL      ON *       BBAS3       010VISTA          000000000012400000000125000000001220000000000000000000122000019243400
