00BDIN9999BOVESPA 99992003071420030714
0101IBOVESPA                      0133220133220136350000000000000000002003071400000020030714013588000000
0202LOTE PADRAO                   EMBRATEL PARPN *       EBTP4       010VISTA          000000000005600000000058000000000560000000000000000000057000297389000
0202LOTE PADRAO                   TRAN PAULISTPN * EJ    TRPL4       010VISTA          000000000007300000000076000000000730000000000000000000075000009060200
0202LOTE PADRAO                   EMBRATEL PARON *       EBTP3       010VISTA          000000000006500000000065000000000640000000000000000000065000018503200
0202LOTE PADRAO                   TELEMAR     PN * EJ    TNLP4       010VISTA          000000000032000000000334000000003200000000000000000000334000369663000
0202LOTE PADRAO                   ITAUBANCO   PN * EJ    ITAU4       010VISTA          000000000189000000001949000000018850000000000000000001942000008356400
0202LOTE PADRAO                   TELEMAR     ON * EJ    TNLP3       010VISTA          000000000023100000000243000000002310000000000000000000243000014905500
0202LOTE PADRAO                   SID NACIONALON *       CSNA3       010VISTA          000000000072000000000732000000007200000000000000000000724000011744000
0202LOTE PADRAO                   TELE LEST CLPN *       TLCP4       010VISTA          000000000000430000000004400000000042000000000000000000004400084459900
0202LOTE PADRAO                   CRT CELULAR PNA* EJ    CRTP5       010VISTA          000000000340000000003445000000033810000000000000000003438000000586600
0202LOTE PADRAO                   IPIRANGA PETPN *       PTIP4       010VISTA          000000000011100000000115000000001080000000000000000000110000023341500
0202LOTE PADRAO                   BRASIL T PARPN *       BRTP4       010VISTA          000000000021700000000219000000002140000000000000000000216000031295200
0202LOTE PADRAO                   BRASIL T PARON *       BRTP3       010VISTA          000000000015600000000161000000001560000000000000000000161000013369000
0202LOTE PADRAO                   KLABIN S/A  PN         KLBN4       010VISTA          000000000002800000000029000000000280000000000000000000028000000023600
0202LOTE PADRAO                   ACESITA     PN *       ACES4       010VISTA          000000000001300000000014000000000130000000000000000000014000179602000
0202LOTE PADRAO                   PETROBRAS   PN         PETR4       010VISTA          000000000054500000000552000000005450000000000000000000550000000084800
0202LOTE PADRAO                   ELETROBRAS  PNB*       ELET6       010VISTA          000000000023800000000243000000002380000000000000000000240000036676500
0202LOTE PADRAO                   PETROBRAS   ON         PETR3       010VISTA          000000000059200000000597000000005910000000000000000000595000000014400
0202LOTE PADRAO                   COMGAS      PNA*       CGAS5       010VISTA          000000000063400000000647000000006340000000000000000000640000006149000
0202LOTE PADRAO                   SOUZA CRUZ  ON EJ      CRUZ3       010VISTA          000000000023100000000231000000002280000000000000000000228000000008900
0202LOTE PADRAO                   ELETROBRAS  ON *       ELET3       010VISTA          000000000021000000000215000000002070000000000000000000210000010056200
0202LOTE PADRAO                   CELESC      PNB        CLSC6       010VISTA          000000000000470000000004800000000046000000000000000000004700000343200
0202LOTE PADRAO                   BRADESCO    PN * EJ    BBDC4       010VISTA          000000000011000000000113000000001100000000000000000000112500152139000
0202LOTE PADRAO                   CESP        PN *       CESP4       010VISTA          000000000007300000000075000000000730000000000000000000075000001904000
0202LOTE PADRAO                   LIGHT       ON *       LIGH3       010VISTA          000000000025700000000267000000002570000000000000000000267000000208000
0202LOTE PADRAO                   TELESP CL PAPN *       TSPP4       010VISTA          000000000004600000000046000000000450000000000000000000046000208068000
0202LOTE PADRAO                   VALE R DOCE PNA        VALE5       010VISTA          000000000084500000000849000000008390000000000000000000842000000017900
0202LOTE PADRAO                   COPEL       PNB*       CPLE6       010VISTA          000000000009100000000091000000000900000000000000000000090000030082700
0202LOTE PADRAO                   VALE R DOCE ON         VALE3       010VISTA          000000000091200000000915000000009000000000000000000000900000000007000
0202LOTE PADRAO                   ARACRUZ     PNB        ARCZ6       010VISTA          000000000006200000000063000000000620000000000000000000062000000031500
0202LOTE PADRAO                   TELEMIG PARTPN *       TMCP4       010VISTA          000000000002900000000029000000000290000000000000000000029000065832100
0202LOTE PADRAO                   BRASIL TELECPN *       BRTO4       010VISTA          000000000012600000000129000000001260000000000000000000129000042863200
0202LOTE PADRAO                   SABESP      ON *       SBSP3       010VISTA          000000000104000000001067000000010360000000000000000001065000003946000
0202LOTE PADRAO                   BRASKEM     PNA*       BRKM5       010VISTA          000000000430100000004410000000042200000000000000000004410000000140700
0202LOTE PADRAO                   EMBRAER     PN EJ      EMBR4       010VISTA          000000000014000000000144000000001400000000000000000000142500000082100
0202LOTE PADRAO                   TELESP      PN * EJ    TLPP4       010VISTA          000000000030600000000313000000003060000000000000000000313000005538100
0202LOTE PADRAO                   EMBRAER     ON EJ      EMBR3       010VISTA          000000000011250000000115000000001125000000000000000000115000000008500
0202LOTE PADRAO                   AMBEV       PN *       AMBV4       010VISTA          000000000590000000006025000000059000000000000000000006015000003583500
0202LOTE PADRAO                   USIMINAS    PNA        USIM5       010VISTA          000000000015000000000155000000001475000000000000000000154000000102200
0202LOTE PADRAO                   ELETROPAULO PN *       ELPL4       010VISTA          000000000024600000000251000000002430000000000000000000249000003634500
0202LOTE PADRAO                   TELE NORD CLPN *       TNEP4       010VISTA          000000000002300000000023000000000230000000000000000000023000050097000
0202LOTE PADRAO                   CEMIG       PN * EJ    CMIG4       010VISTA          000000000027600000000279000000002740000000000000000000277000029500600
0202LOTE PADRAO                   TELE CL SUL PN * EJ    TCSL4       010VISTA          000000000002400000000024000000000230000000000000000000023000065846800
0202LOTE PADRAO                   TRACTEBEL   ON *       TBLE3       010VISTA          000000000007500000000078000000000750000000000000000000078000001539200
0202LOTE PADRAO                   CEMIG       ON * EJ    CMIG3       010VISTA          000000000021300000000219000000002130000000000000000000213000000430300
0202LOTE PADRAO                   TELE CL SUL ON * EJ    TCSL3       010VISTA          000000000002000000000020000000000200000000000000000000020000023827900
0202LOTE PADRAO                   ITAUSA      PN         ITSA4       010VISTA          000000000002200000000023000000000220000000000000000000023000000325600
0202LOTE PADRAO                   V C P       PN *       VCPA4       010VISTA          000000000123500000001260000000012300000000000000000001259000002027000
0202LOTE PADRAO                   SID TUBARAO PN *       CSTB4       010VISTA          000000000055100000000561000000005510000000000000000000555000006528100
0202LOTE PADRAO                   BRADESPAR   PN *       BRAP4       010VISTA          000000000000630000000006400000000062000000000000000000006300055507100
0202LOTE PADRAO                   NET         PN         PLIM4       010VISTA          000000000000350000000003500000000033000000000000000000003400000439000
0202LOTE PADRAO                   TELE CTR OESPN * EJ    TCOC4       010VISTA          000000000005600000000057000000000550000000000000000000056000046383300
0202LOTE PADRAO                   TELEMAR N L PNA* EJ    TMAR5       010VISTA          000000000040000000000417000000003980000000000000000000415000033696800
0202LOTE PADRAO                   GERDAU      PN * EJ    GGBR4       010VISTA          000000000034300000000351000000003430000000000000000000345000000020000
0202LOTE PADRAO                   BRASIL      ON *       BBAS3       010VISTA          000000000013800000000140000000001360000000000000000000138000013392900
