00BDIN9999BOVESPA 99992003050520030505
0101IBOVESPA                      0128290127170128700000000000000000002003050500000020030505012833000000
0202LOTE PADRAO                   EMBRATEL PARPN *       EBTP4       010VISTA          000000000004700000000047000000000450000000000000000000045000302132000
0202LOTE PADRAO                   TRAN PAULISTPN * EJ    TRPL4       010VISTA          000000000006200000000065000000000620000000000000000000064000008916900
0202LOTE PADRAO                   EMBRATEL PARON *       EBTP3       010VISTA          000000000005400000000055000000000510000000000000000000051000031461700
0202LOTE PADRAO                   TELEMAR     PN * EJ    TNLP4       010VISTA          000000000032400000000329000000003200000000000000000000322500292032000
0202LOTE PADRAO                   ITAUBANCO   PN * EJ    ITAU4       010VISTA          000000000191100000001958000000019110000000000000000001958000011761400
0202LOTE PADRAO                   TELEMAR     ON * EJ    TNLP3       010VISTA          000000000023200000000238000000002300000000000000000000236000027260900
0202LOTE PADRAO                   SID NACIONALON *       CSNA3       010VISTA          000000000059000000000598000000005870000000000000000000597000028323900
0202LOTE PADRAO                   TELE LEST CLPN *       TLCP4       010VISTA          000000000000430000000004600000000043000000000000000000004600407178000
0202LOTE PADRAO                   CRT CELULAR PNA* EJ    CRTP5       010VISTA          000000000359000000003600000000035400000000000000000003580000000872200
0202LOTE PADRAO                   IPIRANGA PETPN *       PTIP4       010VISTA          000000000008900000000089000000000850000000000000000000086000010926900
0202LOTE PADRAO                   BRASIL T PARPN *       BRTP4       010VISTA          000000000021200000000212000000002070000000000000000000211000055468900
0202LOTE PADRAO                   BRASIL T PARON *       BRTP3       010VISTA          000000000015700000000161000000001575000000000000000000159000012437700
0202LOTE PADRAO                   KLABIN S/A  PN         KLBN4       010VISTA          000000000002000000000020000000000200000000000000000000020000000096800
0202LOTE PADRAO                   ACESITA     PN *       ACES4       010VISTA          000000000001300000000013000000000130000000000000000000013000357762000
0202LOTE PADRAO                   PETROBRAS   PN         PETR4       010VISTA          000000000050600000000516000000005020000000000000000000516000000097200
0202LOTE PADRAO                   ELETROBRAS  PNB*       ELET6       010VISTA          000000000023100000000231000000002260000000000000000000230000059398900
0202LOTE PADRAO                   PETROBRAS   ON         PETR3       010VISTA          000000000054100000000562000000005410000000000000000000562000000029800
0202LOTE PADRAO                   COMGAS      PNA*       CGAS5       010VISTA          000000000056500000000580000000005610000000000000000000580000001260500
0202LOTE PADRAO                   SOUZA CRUZ  ON EJ      CRUZ3       010VISTA          000000000018100000000181000000001790000000000000000000179000000019900
0202LOTE PADRAO                   ELETROBRAS  ON *       ELET3       010VISTA          000000000021500000000220000000002150000000000000000000216000011465300
0202LOTE PADRAO                   CELESC      PNB        CLSC6       010VISTA          000000000000470000000004700000000045000000000000000000004600000387700
0202LOTE PADRAO                   BRADESCO    PN * EJ    BBDC4       010VISTA          000000000012000000000124000000001200000000000000000000123000238671000
0202LOTE PADRAO                   CESP        PN *       CESP4       010VISTA          000000000008000000000080000000000750000000000000000000077000009438200
0202LOTE PADRAO                   LIGHT       ON *       LIGH3       010VISTA          000000000031800000000329000000003000000000000000000000305000001173800
0202LOTE PADRAO                   TELESP CL PAPN *       TSPP4       010VISTA          000000000004500000000046000000000440000000000000000000046000547324000
0202LOTE PADRAO                   VALE R DOCE PNA        VALE5       010VISTA          000000000078000000000812000000007700000000000000000000810000000059100
0202LOTE PADRAO                   COPEL       PNB*       CPLE6       010VISTA          000000000009500000000096000000000950000000000000000000095000047285300
0202LOTE PADRAO                   VALE R DOCE ON         VALE3       010VISTA          000000000081000000000855000000008100000000000000000000855000000005000
0202LOTE PADRAO                   ARACRUZ     PNB        ARCZ6       010VISTA          000000000006100000000064000000000610000000000000000000064000000027200
0202LOTE PADRAO                   TELEMIG PARTPN *       TMCP4       010VISTA          000000000002800000000028000000000270000000000000000000027700056180400
0202LOTE PADRAO                   BRASIL TELECPN *       BRTO4       010VISTA          000000000013000000000130000000001280000000000000000000129000082220900
0202LOTE PADRAO                   SABESP      ON *       SBSP3       010VISTA          000000000104500000001045000000010100000000000000000001020000008392600
0202LOTE PADRAO                   BRASKEM     PNA*       BRKM5       010VISTA          000000000343000000003490000000033200000000000000000003373000000233300
0202LOTE PADRAO                   EMBRAER     PN EJ      EMBR4       010VISTA          000000000010800000000108000000001050000000000000000000106000000100200
0202LOTE PADRAO                   TELESP      PN * EJ    TLPP4       010VISTA          000000000034300000000357000000003430000000000000000000345000006773300
0202LOTE PADRAO                   EMBRAER     ON EJ      EMBR3       010VISTA          000000000008600000000087000000000850000000000000000000086000000075700
0202LOTE PADRAO                   AMBEV       PN *       AMBV4       010VISTA          000000000572000000006100000000057200000000000000000006065000002569400
0202LOTE PADRAO                   USIMINAS    PNA        USIM5       010VISTA          000000000011000000000110000000001060000000000000000000106000000066500
0202LOTE PADRAO                   ELETROPAULO PN *       ELPL4       010VISTA          000000000028300000000289000000002660000000000000000000267000013029800
0202LOTE PADRAO                   TELE NORD CLPN *       TNEP4       010VISTA          000000000002400000000025400000000240000000000000000000025000180659000
0202LOTE PADRAO                   CEMIG       PN * EJ    CMIG4       010VISTA          000000000030800000000311000000003050000000000000000000308000101172000
0202LOTE PADRAO                   TELE CL SUL PN * EJ    TCSL4       010VISTA          000000000002500000000026000000000250000000000000000000025000093053600
0202LOTE PADRAO                   TRACTEBEL   ON *       TBLE3       010VISTA          000000000005300000000055000000000530000000000000000000055000120220000
0202LOTE PADRAO                   CEMIG       ON * EJ    CMIG3       010VISTA          000000000022500000000231000000002250000000000000000000226000002581100
0202LOTE PADRAO                   TELE CL SUL ON * EJ    TCSL3       010VISTA          000000000002200000000023000000000220000000000000000000022000026877200
0202LOTE PADRAO                   ITAUSA      PN         ITSA4       010VISTA          000000000002100000000022000000000210000000000000000000022000000274000
0202LOTE PADRAO                   V C P       PN *       VCPA4       010VISTA          000000000109500000001125000000010950000000000000000001122000005372700
0202LOTE PADRAO                   SID TUBARAO PN *       CSTB4       010VISTA          000000000048000000000490000000004800000000000000000000482000004923100
0202LOTE PADRAO                   BRADESPAR   PN *       BRAP4       010VISTA          000000000000650000000006600000000064000000000000000000006400111908000
0202LOTE PADRAO                   NET         PN         PLIM4       010VISTA          000000000000400000000004100000000038000000000000000000003800000804200
0202LOTE PADRAO                   TELE CTR OESPN * EJ    TCOC4       010VISTA          000000000005400000000056000000000540000000000000000000056000047049200
0202LOTE PADRAO                   TELEMAR N L PNA* EJ    TMAR5       010VISTA          000000000044300000000445000000004360000000000000000000437000020429800
0202LOTE PADRAO                   GERDAU      PN * EJ    GGBR4       010VISTA          000000000029500000000295000000002800000000000000000000283000000032800
0202LOTE PADRAO                   BRASIL      ON *       BBAS3       010VISTA          000000000012800000000129000000001260000000000000000000128000025288100
