00BDIN9999BOVESPA 99992003041620030416
0101IBOVESPA                      0121200120120122450000000000000000002003041600000020030416012043000000
0202LOTE PADRAO                   EMBRATEL PARPN *       EBTP4       010VISTA          000000000004400000000045000000000430000000000000000000044000773054000
0202LOTE PADRAO                   TRAN PAULISTPN * EJ    TRPL4       010VISTA          000000000006600000000067000000000620000000000000000000062000011866000
0202LOTE PADRAO                   EMBRATEL PARON *       EBTP3       010VISTA          000000000005100000000053000000000500000000000000000000051000067284600
0202LOTE PADRAO                   TELEMAR     PN * EJ    TNLP4       010VISTA          000000000030500000000308000000003000000000000000000000302500291302000
0202LOTE PADRAO                   ITAUBANCO   PN * EJ    ITAU4       010VISTA          000000000189000000001910000000018600000000000000000001878000017256900
0202LOTE PADRAO                   TELEMAR     ON * EJ    TNLP3       010VISTA          000000000022000000000222000000002150000000000000000000216000024075200
0202LOTE PADRAO                   SID NACIONALON *       CSNA3       010VISTA          000000000067000000000672000000006480000000000000000000665000030986400
0202LOTE PADRAO                   TELE LEST CLPN *       TLCP4       010VISTA          000000000000450000000004600000000043000000000000000000004300119646000
0202LOTE PADRAO                   CRT CELULAR PNA* EJ    CRTP5       010VISTA          000000000348800000003530000000033600000000000000000003380000000768200
0202LOTE PADRAO                   IPIRANGA PETPN *       PTIP4       010VISTA          000000000007600000000078000000000730000000000000000000075000004060400
0202LOTE PADRAO                   BRASIL T PARPN *       BRTP4       010VISTA          000000000019800000000201000000001960000000000000000000198000086767900
0202LOTE PADRAO                   BRASIL T PARON *       BRTP3       010VISTA          000000000015500000000155000000001500000000000000000000154000006139300
0202LOTE PADRAO                   KLABIN S/A  PN         KLBN4       010VISTA          000000000002000000000020000000000198000000000000000000020000000025100
0202LOTE PADRAO                   ACESITA     PN *       ACES4       010VISTA          000000000001300000000013000000000126000000000000000000012700292392000
0202LOTE PADRAO                   PETROBRAS   PN         PETR4       010VISTA          000000000046800000000472000000004630000000000000000000463000000124800
0202LOTE PADRAO                   ELETROBRAS  PNB*       ELET6       010VISTA          000000000023000000000237000000002250000000000000000000225000050175100
0202LOTE PADRAO                   PETROBRAS   ON         PETR3       010VISTA          000000000051200000000512000000005010000000000000000000507000000041100
0202LOTE PADRAO                   COMGAS      PNA*       CGAS5       010VISTA          000000000053000000000547000000005200000000000000000000520000001726000
0202LOTE PADRAO                   SOUZA CRUZ  ON EJ      CRUZ3       010VISTA          000000000018800000000188000000001820000000000000000000183000000022100
0202LOTE PADRAO                   ELETROBRAS  ON *       ELET3       010VISTA          000000000020600000000211000000002030000000000000000000203000017541600
0202LOTE PADRAO                   CELESC      PNB        CLSC6       010VISTA          000000000000460000000004700000000045000000000000000000004600000363100
0202LOTE PADRAO                   BRADESCO    PN * EJ    BBDC4       010VISTA          000000000011900000000119000000001150000000000000000000115000214216000
0202LOTE PADRAO                   CESP        PN *       CESP4       010VISTA          000000000006400000000066000000000630000000000000000000063000015572800
0202LOTE PADRAO                   LIGHT       ON *       LIGH3       010VISTA          000000000027000000000280000000002600000000000000000000265000002531400
0202LOTE PADRAO                   TELESP CL PAPN *       TSPP4       010VISTA          000000000004300000000044000000000410000000000000000000041000777343000
0202LOTE PADRAO                   VALE R DOCE PNA        VALE5       010VISTA          000000000084300000000854000000008350000000000000000000844000000022300
0202LOTE PADRAO                   COPEL       PNB*       CPLE6       010VISTA          000000000009100000000091000000000890000000000000000000089000040211000
0202LOTE PADRAO                   VALE R DOCE ON         VALE3       010VISTA          000000000088000000000890000000008610000000000000000000870000000006800
0202LOTE PADRAO                   ARACRUZ     PNB        ARCZ6       010VISTA          000000000006700000000067500000000650000000000000000000067000000049200
0202LOTE PADRAO                   TELEMIG PARTPN *       TMCP4       010VISTA          000000000002770000000027000000000260000000000000000000027000113247000
0202LOTE PADRAO                   BRASIL TELECPN *       BRTO4       010VISTA          000000000012000000000120000000001180000000000000000000119000154397000
0202LOTE PADRAO                   SABESP      ON *       SBSP3       010VISTA          000000000094000000000975000000009400000000000000000000947000006998000
0202LOTE PADRAO                   BRASKEM     PNA*       BRKM5       010VISTA          000000000253000000002680000000025000000000000000000002573000000596800
0202LOTE PADRAO                   EMBRAER     PN EJ      EMBR4       010VISTA          000000000010500000000107000000001040000000000000000000106000000140100
0202LOTE PADRAO                   TELESP      PN * EJ    TLPP4       010VISTA          000000000032200000000322000000003125000000000000000000315000013163800
0202LOTE PADRAO                   EMBRAER     ON EJ      EMBR3       010VISTA          000000000009000000000090000000000860000000000000000000089000000033900
0202LOTE PADRAO                   AMBEV       PN *       AMBV4       010VISTA          000000000550000000005500000000054000000000000000000005430000005785000
0202LOTE PADRAO                   USIMINAS    PNA        USIM5       010VISTA          000000000010100000000105000000001000000000000000000000104000000212200
0202LOTE PADRAO                   ELETROPAULO PN *       ELPL4       010VISTA          000000000026300000000276000000002610000000000000000000270000015040300
0202LOTE PADRAO                   TELE NORD CLPN *       TNEP4       010VISTA          000000000002520000000025000000000240000000000000000000024000093923000
0202LOTE PADRAO                   CEMIG       PN * EJ    CMIG4       010VISTA          000000000029000000000292500000002840000000000000000000286000052195400
0202LOTE PADRAO                   TELE CL SUL PN * EJ    TCSL4       010VISTA          000000000002500000000025000000000240000000000000000000024000159357000
0202LOTE PADRAO                   TRACTEBEL   ON *       TBLE3       010VISTA          000000000005100000000060000000000500000000000000000000060000056856200
0202LOTE PADRAO                   CEMIG       ON * EJ    CMIG3       010VISTA          000000000022700000000229000000002200000000000000000000220000001270700
0202LOTE PADRAO                   TELE CL SUL ON * EJ    TCSL3       010VISTA          000000000002400000000024000000000227000000000000000000023000015485000
0202LOTE PADRAO                   ITAUSA      PN         ITSA4       010VISTA          000000000002200000000022000000000210000000000000000000022000000223200
0202LOTE PADRAO                   V C P       PN *       VCPA4       010VISTA          000000000126000000001272500000012150000000000000000001237000001417000
0202LOTE PADRAO                   SID TUBARAO PN *       CSTB4       010VISTA          000000000048200000000500000000004800000000000000000000490000046356700
0202LOTE PADRAO                   BRADESPAR   PN *       BRAP4       010VISTA          000000000000680000000006900000000065000000000000000000006600381902000
0202LOTE PADRAO                   NET         PN         PLIM4       010VISTA          000000000000330000000003400000000031000000000000000000003100000853000
0202LOTE PADRAO                   TELE CTR OESPN * EJ    TCOC4       010VISTA          000000000005200000000054000000000510000000000000000000051000149378000
0202LOTE PADRAO                   TELEMAR N L PNA* EJ    TMAR5       010VISTA          000000000041900000000419000000004100000000000000000000414000033866200
0202LOTE PADRAO                   GERDAU      PN * EJ    GGBR4       010VISTA          000000000032400000000335000000003230000000000000000000332000035854700
0202LOTE PADRAO                   BRASIL      ON *       BBAS3       010VISTA          000000000012800000000135000000001260000000000000000000130000083383200
