00BDIN9999BOVESPA 99992003032720030327
0101IBOVESPA                      0112040110360112620000000000000000002003032700000020030327011233000000
0202LOTE PADRAO                   EMBRATEL PARPN *       EBTP4       010VISTA          000000000003300000000033000000000320000000000000000000033000225104000
0202LOTE PADRAO                   TRAN PAULISTPN * EJ    TRPL4       010VISTA          000000000005900000000060000000000580000000000000000000059000012935100
0202LOTE PADRAO                   EMBRATEL PARON *       EBTP3       010VISTA          000000000003800000000038000000000375000000000000000000038000013021500
0202LOTE PADRAO                   TELEMAR     PN * EJ    TNLP4       010VISTA          000000000027000000000279000000002680000000000000000000278000289768000
0202LOTE PADRAO                   ITAUBANCO   PN * EJ    ITAU4       010VISTA          000000000181900000001850000000017950000000000000000001850000004687300
0202LOTE PADRAO                   TELEMAR     ON * EJ    TNLP3       010VISTA          000000000018800000000198000000001880000000000000000000198000044065900
0202LOTE PADRAO                   SID NACIONALON *       CSNA3       010VISTA          000000000065500000000655000000006280000000000000000000649000040392000
0202LOTE PADRAO                   TELE LEST CLPN *       TLCP4       010VISTA          000000000000410000000004300000000041000000000000000000004300134154000
0202LOTE PADRAO                   CRT CELULAR PNA* EJ    CRTP5       010VISTA          000000000317000000003250000000031550000000000000000003235000000115800
0202LOTE PADRAO                   IPIRANGA PETPN *       PTIP4       010VISTA          000000000007000000000070000000000696000000000000000000070000000580000
0202LOTE PADRAO                   BRASIL T PARPN *       BRTP4       010VISTA          000000000019000000000190000000001860000000000000000000188000058029800
0202LOTE PADRAO                   BRASIL T PARON *       BRTP3       010VISTA          000000000014000000000146000000001400000000000000000000146000021121800
0202LOTE PADRAO                   KLABIN S/A  PN         KLBN4       010VISTA          000000000001600000000017000000000160000000000000000000016000000100400
0202LOTE PADRAO                   ACESITA     PN *       ACES4       010VISTA          000000000001100000000011000000000110000000000000000000011000090583500
0202LOTE PADRAO                   PETROBRAS   PN         PETR4       010VISTA          000000000046800000000473000000004620000000000000000000473000000113900
0202LOTE PADRAO                   ELETROBRAS  PNB*       ELET6       010VISTA          000000000020200000000205000000002010000000000000000000203000041144400
0202LOTE PADRAO                   PETROBRAS   ON         PETR3       010VISTA          000000000051700000000518000000005050000000000000000000517000000027000
0202LOTE PADRAO                   COMGAS      PNA*       CGAS5       010VISTA          000000000049000000000530000000004900000000000000000000508000001918500
0202LOTE PADRAO                   SOUZA CRUZ  ON EJ      CRUZ3       010VISTA          000000000019200000000192000000001880000000000000000000188000000009100
0202LOTE PADRAO                   ELETROBRAS  ON *       ELET3       010VISTA          000000000017800000000182500000001770000000000000000000179000003327400
0202LOTE PADRAO                   CELESC      PNB        CLSC6       010VISTA          000000000000450000000004500000000043000000000000000000004400000338000
0202LOTE PADRAO                   BRADESCO    PN * EJ    BBDC4       010VISTA          000000000011800000000118000000001160000000000000000000118000140815000
0202LOTE PADRAO                   CESP        PN *       CESP4       010VISTA          000000000006000000000060000000000570000000000000000000058000004624200
0202LOTE PADRAO                   LIGHT       ON *       LIGH3       010VISTA          000000000026000000000260000000002490000000000000000000250000000592800
0202LOTE PADRAO                   TELESP CL PAPN *       TSPP4       010VISTA          000000000004200000000042000000000410000000000000000000041000417592000
0202LOTE PADRAO                   VALE R DOCE PNA        VALE5       010VISTA          000000000089000000000905000000008890000000000000000000889000000024600
0202LOTE PADRAO                   COPEL       PNB*       CPLE6       010VISTA          000000000008200000000083000000000810000000000000000000083000038397300
0202LOTE PADRAO                   VALE R DOCE ON         VALE3       010VISTA          000000000092200000000945000000009220000000000000000000935000000003500
0202LOTE PADRAO                   ARACRUZ     PNB        ARCZ6       010VISTA          000000000006700000000068000000000671000000000000000000067000000013600
0202LOTE PADRAO                   TELEMIG PARTPN *       TMCP4       010VISTA          000000000002700000000028000000000273000000000000000000028000101106000
0202LOTE PADRAO                   BRASIL TELECPN *       BRTO4       010VISTA          000000000010900000000109000000001060000000000000000000107000092637100
0202LOTE PADRAO                   SABESP      ON *       SBSP3       010VISTA          000000000080000000000813000000007950000000000000000000812000004360300
0202LOTE PADRAO                   BRASKEM     PNA*       BRKM5       010VISTA          000000000205100000002060000000020000000000000000000002033000000733400
0202LOTE PADRAO                   EMBRAER     PN EJ      EMBR4       010VISTA          000000000009200000000096000000000910000000000000000000095000000167600
0202LOTE PADRAO                   TELESP      PN * EJ    TLPP4       010VISTA          000000000030800000000316000000003050000000000000000000316000018021500
0202LOTE PADRAO                   EMBRAER     ON EJ      EMBR3       010VISTA          000000000007750000000081000000000770000000000000000000080000000022100
0202LOTE PADRAO                   AMBEV       PN *       AMBV4       010VISTA          000000000540000000005560000000054000000000000000000005530000001689100
0202LOTE PADRAO                   USIMINAS    PNA        USIM5       010VISTA          000000000007900000000083000000000775000000000000000000083000000125300
0202LOTE PADRAO                   ELETROPAULO PN *       ELPL4       010VISTA          000000000021600000000223000000002150000000000000000000221000004633600
0202LOTE PADRAO                   TELE NORD CLPN *       TNEP4       010VISTA          000000000002300000000025000000000230000000000000000000024000100675000
0202LOTE PADRAO                   CEMIG       PN * EJ    CMIG4       010VISTA          000000000024600000000249000000002430000000000000000000249000045069300
0202LOTE PADRAO                   TELE CL SUL PN * EJ    TCSL4       010VISTA          000000000002300000000024000000000220000000000000000000023000346989000
0202LOTE PADRAO                   TRACTEBEL   ON *       TBLE3       010VISTA          000000000004000000000043000000000400000000000000000000042000088490700
0202LOTE PADRAO                   CEMIG       ON * EJ    CMIG3       010VISTA          000000000020000000000200000000001910000000000000000000195000000256600
0202LOTE PADRAO                   TELE CL SUL ON * EJ    TCSL3       010VISTA          000000000002000000000024000000000200000000000000000000022000321857000
0202LOTE PADRAO                   ITAUSA      PN         ITSA4       010VISTA          000000000002100000000021000000000200000000000000000000021000000105200
0202LOTE PADRAO                   V C P       PN *       VCPA4       010VISTA          000000000127500000001284000000012700000000000000000001270000000436400
0202LOTE PADRAO                   SID TUBARAO PN *       CSTB4       010VISTA          000000000044300000000447000000004360000000000000000000443000003458000
0202LOTE PADRAO                   BRADESPAR   PN *       BRAP4       010VISTA          000000000000630000000006400000000062000000000000000000006400059508600
0202LOTE PADRAO                   NET         PN         PLIM4       010VISTA          000000000000280000000002900000000027000000000000000000002800000701000
0202LOTE PADRAO                   TELE CTR OESPN * EJ    TCOC4       010VISTA          000000000005400000000054000000000510000000000000000000052000093901800
0202LOTE PADRAO                   TELEMAR N L PNA* EJ    TMAR5       010VISTA          000000000036600000000379000000003630000000000000000000377000018618200
0202LOTE PADRAO                   GERDAU      PN * EJ    GGBR4       010VISTA          000000000030500000000308000000003030000000000000000000306000009743500
0202LOTE PADRAO                   BRASIL      ON *       BBAS3       010VISTA          000000000010500000000109000000001050000000000000000000107000044167700
