00BDIN9999BOVESPA 99992003070820030708
0101IBOVESPA                      0134010133390136190000000000000000002003070800000020030708013619000000
0202LOTE PADRAO                   EMBRATEL PARPN *       EBTP4       010VISTA          000000000005700000000059000000000570000000000000000000058000282958000
0202LOTE PADRAO                   TRAN PAULISTPN * EJ    TRPL4       010VISTA          000000000007400000000075000000000740000000000000000000075000005427400
0202LOTE PADRAO                   EMBRATEL PARON *       EBTP3       010VISTA          000000000006500000000066000000000630000000000000000000066000046927300
0202LOTE PADRAO                   TELEMAR     PN * EJ    TNLP4       010VISTA          000000000033500000000341000000003330000000000000000000336000279301000
0202LOTE PADRAO                   ITAUBANCO   PN * EJ    ITAU4       010VISTA          000000000190500000001915000000018900000000000000000001915000013236000
0202LOTE PADRAO                   TELEMAR     ON * EJ    TNLP3       010VISTA          000000000023800000000246000000002380000000000000000000241000010134300
0202LOTE PADRAO                   SID NACIONALON *       CSNA3       010VISTA          000000000070700000000730000000007020000000000000000000730000027502700
0202LOTE PADRAO                   TELE LEST CLPN *       TLCP4       010VISTA          000000000000430000000004500000000043000000000000000000004400059448200
0202LOTE PADRAO                   CRT CELULAR PNA* EJ    CRTP5       010VISTA          000000000330000000003395000000033000000000000000000003355000001031100
0202LOTE PADRAO                   IPIRANGA PETPN *       PTIP4       010VISTA          000000000009500000000104000000000950000000000000000000104000050187400
0202LOTE PADRAO                   BRASIL T PARPN *       BRTP4       010VISTA          000000000021600000000221000000002160000000000000000000221000042246600
0202LOTE PADRAO                   BRASIL T PARON *       BRTP3       010VISTA          000000000015900000000163000000001590000000000000000000163000014659400
0202LOTE PADRAO                   KLABIN S/A  PN         KLBN4       010VISTA          000000000002800000000028000000000280000000000000000000028000000074100
0202LOTE PADRAO                   ACESITA     PN *       ACES4       010VISTA          000000000001400000000014000000000140000000000000000000014000095384900
0202LOTE PADRAO                   PETROBRAS   PN         PETR4       010VISTA          000000000054300000000547000000005390000000000000000000547000000140700
0202LOTE PADRAO                   ELETROBRAS  PNB*       ELET6       010VISTA          000000000024300000000251000000002430000000000000000000249000056994300
0202LOTE PADRAO                   PETROBRAS   ON         PETR3       010VISTA          000000000056500000000597000000005650000000000000000000597000000031100
0202LOTE PADRAO                   COMGAS      PNA*       CGAS5       010VISTA          000000000063000000000650000000006300000000000000000000640000000390000
0202LOTE PADRAO                   SOUZA CRUZ  ON EJ      CRUZ3       010VISTA          000000000023800000000245000000002380000000000000000000240000000018400
0202LOTE PADRAO                   ELETROBRAS  ON *       ELET3       010VISTA          000000000020700000000218000000002070000000000000000000217000021025200
0202LOTE PADRAO                   CELESC      PNB        CLSC6       010VISTA          000000000000480000000005000000000048000000000000000000004900000194900
0202LOTE PADRAO                   BRADESCO    PN * EJ    BBDC4       010VISTA          000000000010900000000111000000001090000000000000000000111000243616000
0202LOTE PADRAO                   CESP        PN *       CESP4       010VISTA          000000000007400000000076000000000740000000000000000000076000006902200
0202LOTE PADRAO                   LIGHT       ON *       LIGH3       010VISTA          000000000025300000000270000000002530000000000000000000269000002586200
0202LOTE PADRAO                   TELESP CL PAPN *       TSPP4       010VISTA          000000000004500000000047000000000450000000000000000000046000201194000
0202LOTE PADRAO                   VALE R DOCE PNA        VALE5       010VISTA          000000000084200000000845000000008340000000000000000000835000000039900
0202LOTE PADRAO                   COPEL       PNB*       CPLE6       010VISTA          000000000008800000000092500000000880000000000000000000091000043086500
0202LOTE PADRAO                   VALE R DOCE ON         VALE3       010VISTA          000000000089500000000909000000008950000000000000000000907000000012900
0202LOTE PADRAO                   ARACRUZ     PNB        ARCZ6       010VISTA          000000000006300000000063000000000620000000000000000000062000000064400
0202LOTE PADRAO                   TELEMIG PARTPN *       TMCP4       010VISTA          000000000002900000000030000000000298000000000000000000030000064547900
0202LOTE PADRAO                   BRASIL TELECPN *       BRTO4       010VISTA          000000000012800000000130000000001280000000000000000000130000107762000
0202LOTE PADRAO                   SABESP      ON *       SBSP3       010VISTA          000000000107800000001080000000010500000000000000000001065000002624200
0202LOTE PADRAO                   BRASKEM     PNA*       BRKM5       010VISTA          000000000434500000004449000000043300000000000000000004430000000593300
0202LOTE PADRAO                   EMBRAER     PN EJ      EMBR4       010VISTA          000000000013600000000140000000001360000000000000000000140000000045900
0202LOTE PADRAO                   TELESP      PN * EJ    TLPP4       010VISTA          000000000031400000000317500000003125000000000000000000315000017965200
0202LOTE PADRAO                   EMBRAER     ON EJ      EMBR3       010VISTA          000000000010900000000115000000001090000000000000000000115000000033400
0202LOTE PADRAO                   AMBEV       PN *       AMBV4       010VISTA          000000000595900000006000000000059500000000000000000006000000001922900
0202LOTE PADRAO                   USIMINAS    PNA        USIM5       010VISTA          000000000014000000000143000000001390000000000000000000143000000071500
0202LOTE PADRAO                   ELETROPAULO PN *       ELPL4       010VISTA          000000000025000000000258000000002480000000000000000000258000005823800
0202LOTE PADRAO                   TELE NORD CLPN *       TNEP4       010VISTA          000000000002300000000023000000000230000000000000000000023000048709100
0202LOTE PADRAO                   CEMIG       PN * EJ    CMIG4       010VISTA          000000000028000000000287000000002800000000000000000000286000061374000
0202LOTE PADRAO                   TELE CL SUL PN * EJ    TCSL4       010VISTA          000000000002400000000024000000000230000000000000000000024000058603100
0202LOTE PADRAO                   TRACTEBEL   ON *       TBLE3       010VISTA          000000000007100000000076000000000710000000000000000000075000021739900
0202LOTE PADRAO                   CEMIG       ON * EJ    CMIG3       010VISTA          000000000021700000000221000000002160000000000000000000221000001242900
0202LOTE PADRAO                   TELE CL SUL ON * EJ    TCSL3       010VISTA          000000000002000000000021000000000200000000000000000000020000044534900
0202LOTE PADRAO                   ITAUSA      PN         ITSA4       010VISTA          000000000002200000000023000000000220000000000000000000023000000220200
0202LOTE PADRAO                   V C P       PN *       VCPA4       010VISTA          000000000120900000001245000000012070000000000000000001245000014542500
0202LOTE PADRAO                   SID TUBARAO PN *       CSTB4       010VISTA          000000000052200000000558000000005220000000000000000000545000005505400
0202LOTE PADRAO                   BRADESPAR   PN *       BRAP4       010VISTA          000000000000610000000006300000000061000000000000000000006200121283000
0202LOTE PADRAO                   NET         PN         PLIM4       010VISTA          000000000000290000000003700000000028000000000000000000003700004832200
0202LOTE PADRAO                   TELE CTR OESPN * EJ    TCOC4       010VISTA          000000000005500000000056000000000550000000000000000000056000040603300
0202LOTE PADRAO                   TELEMAR N L PNA* EJ    TMAR5       010VISTA          000000000039000000000396000000003880000000000000000000392500025564100
0202LOTE PADRAO                   GERDAU      PN * EJ    GGBR4       010VISTA          000000000033100000000342000000003310000000000000000000342000000021000
0202LOTE PADRAO                   BRASIL      ON *       BBAS3       010VISTA          000000000013600000000142000000001360000000000000000000140000029371600
