00BDIN9999BOVESPA 99992003072320030723
0101IBOVESPA                      0138520137550139420000000000000000002003072300000020030723013799000000
0202LOTE PADRAO                   EMBRATEL PARPN *       EBTP4       010VISTA          000000000006300000000063000000000600000000000000000000061000476205000
0202LOTE PADRAO                   TRAN PAULISTPN * EJ    TRPL4       010VISTA          000000000007600000000077000000000750000000000000000000075000018036400
0202LOTE PADRAO                   EMBRATEL PARON *       EBTP3       010VISTA          000000000006900000000069000000000675000000000000000000067000060348000
0202LOTE PADRAO                   TELEMAR     PN * EJ    TNLP4       010VISTA          000000000034500000000345000000003330000000000000000000333000233971000
0202LOTE PADRAO                   ITAUBANCO   PN * EJ    ITAU4       010VISTA          000000000200000000002070000000019950000000000000000002070000013592900
0202LOTE PADRAO                   TELEMAR     ON * EJ    TNLP3       010VISTA          000000000025500000000255000000002450000000000000000000248000015748100
0202LOTE PADRAO                   SID NACIONALON *       CSNA3       010VISTA          000000000075300000000760000000007360000000000000000000745000016995200
0202LOTE PADRAO                   TELE LEST CLPN *       TLCP4       010VISTA          000000000000440000000004400000000042000000000000000000004300204255000
0202LOTE PADRAO                   CRT CELULAR PNA* EJ    CRTP5       010VISTA          000000000372000000003720000000036800000000000000000003715000001328800
0202LOTE PADRAO                   IPIRANGA PETPN *       PTIP4       010VISTA          000000000011000000000111000000001080000000000000000000108000003937000
0202LOTE PADRAO                   BRASIL T PARPN *       BRTP4       010VISTA          000000000021300000000215000000002110000000000000000000211000036065800
0202LOTE PADRAO                   BRASIL T PARON *       BRTP3       010VISTA          000000000016100000000164000000001570000000000000000000160000008108700
0202LOTE PADRAO                   KLABIN S/A  PN         KLBN4       010VISTA          000000000002800000000028000000000280000000000000000000028000000051200
0202LOTE PADRAO                   ACESITA     PN *       ACES4       010VISTA          000000000001400000000014000000000130000000000000000000013000125467000
0202LOTE PADRAO                   PETROBRAS   PN         PETR4       010VISTA          000000000057700000000580000000005700000000000000000000573000000111500
0202LOTE PADRAO                   ELETROBRAS  PNB*       ELET6       010VISTA          000000000024600000000248000000002430000000000000000000245000067918000
0202LOTE PADRAO                   PETROBRAS   ON         PETR3       010VISTA          000000000061750000000622000000006090000000000000000000611000000021700
0202LOTE PADRAO                   COMGAS      PNA*       CGAS5       010VISTA          000000000071600000000732000000007120000000000000000000715000003992300
0202LOTE PADRAO                   SOUZA CRUZ  ON EJ      CRUZ3       010VISTA          000000000022300000000226000000002210000000000000000000222500000011300
0202LOTE PADRAO                   ELETROBRAS  ON *       ELET3       010VISTA          000000000022300000000226000000002180000000000000000000220000024605900
0202LOTE PADRAO                   CELESC      PNB        CLSC6       010VISTA          000000000000470000000004800000000046000000000000000000004700000201500
0202LOTE PADRAO                   BRADESCO    PN * EJ    BBDC4       010VISTA          000000000011300000000116000000001120000000000000000000116000233740000
0202LOTE PADRAO                   CESP        PN *       CESP4       010VISTA          000000000007400000000075000000000740000000000000000000074000007229600
0202LOTE PADRAO                   LIGHT       ON *       LIGH3       010VISTA          000000000026400000000269000000002600000000000000000000261000000400000
0202LOTE PADRAO                   TELESP CL PAPN *       TSPP4       010VISTA          000000000004600000000047000000000460000000000000000000046000370384000
0202LOTE PADRAO                   VALE R DOCE PNA        VALE5       010VISTA          000000000085000000000859000000008470000000000000000000852000000018800
0202LOTE PADRAO                   COPEL       PNB*       CPLE6       010VISTA          000000000008700000000088000000000850000000000000000000085000143184000
0202LOTE PADRAO                   VALE R DOCE ON         VALE3       010VISTA          000000000091500000000917000000009000000000000000000000913000000015000
0202LOTE PADRAO                   ARACRUZ     PNB        ARCZ6       010VISTA          000000000006500000000068000000000650000000000000000000068000000055300
0202LOTE PADRAO                   TELEMIG PARTPN *       TMCP4       010VISTA          000000000003100000000032000000000310000000000000000000031000074970900
0202LOTE PADRAO                   BRASIL TELECPN *       BRTO4       010VISTA          000000000012900000000130000000001275000000000000000000127000060440400
0202LOTE PADRAO                   SABESP      ON *       SBSP3       010VISTA          000000000115500000001165000000011470000000000000000001150000005834500
0202LOTE PADRAO                   BRASKEM     PNA*       BRKM5       010VISTA          000000000435000000004360000000043150000000000000000004330000000234500
0202LOTE PADRAO                   EMBRAER     PN EJ      EMBR4       010VISTA          000000000013900000000140000000001360000000000000000000137500000037200
0202LOTE PADRAO                   TELESP      PN * EJ    TLPP4       010VISTA          000000000031200000000314000000003050000000000000000000310000012447600
0202LOTE PADRAO                   EMBRAER     ON EJ      EMBR3       010VISTA          000000000011200000000112000000001080000000000000000000109000000015100
0202LOTE PADRAO                   AMBEV       PN *       AMBV4       010VISTA          000000000601000000006020000000057500000000000000000006000000001337400
0202LOTE PADRAO                   USIMINAS    PNA        USIM5       010VISTA          000000000016100000000163000000001550000000000000000000157000000141400
0202LOTE PADRAO                   ELETROPAULO PN *       ELPL4       010VISTA          000000000025600000000265000000002510000000000000000000251000006924800
0202LOTE PADRAO                   TELE NORD CLPN *       TNEP4       010VISTA          000000000002300000000023000000000220000000000000000000022000155173000
0202LOTE PADRAO                   CEMIG       PN * EJ    CMIG4       010VISTA          000000000027600000000283000000002750000000000000000000281000064961000
0202LOTE PADRAO                   TELE CL SUL PN * EJ    TCSL4       010VISTA          000000000002300000000023000000000220000000000000000000022000163979000
0202LOTE PADRAO                   TRACTEBEL   ON *       TBLE3       010VISTA          000000000007750000000077000000000770000000000000000000077000026040000
0202LOTE PADRAO                   CEMIG       ON * EJ    CMIG3       010VISTA          000000000022250000000228000000002180000000000000000000223000000440800
0202LOTE PADRAO                   TELE CL SUL ON * EJ    TCSL3       010VISTA          000000000002000000000021000000000200000000000000000000020000077742200
0202LOTE PADRAO                   ITAUSA      PN         ITSA4       010VISTA          000000000002400000000024000000000230000000000000000000024000000426200
0202LOTE PADRAO                   V C P       PN *       VCPA4       010VISTA          000000000126500000001290000000012640000000000000000001289000004927500
0202LOTE PADRAO                   SID TUBARAO PN *       CSTB4       010VISTA          000000000056900000000580000000005600000000000000000000566000009646200
0202LOTE PADRAO                   BRADESPAR   PN *       BRAP4       010VISTA          000000000000660000000006700000000065000000000000000000006600218924000
0202LOTE PADRAO                   NET         PN         PLIM4       010VISTA          000000000000330000000003400000000032000000000000000000003300000536900
0202LOTE PADRAO                   TELE CTR OESPN * EJ    TCOC4       010VISTA          000000000005600000000057000000000550000000000000000000056000085539200
0202LOTE PADRAO                   TELEMAR N L PNA* EJ    TMAR5       010VISTA          000000000041700000000417000000004100000000000000000000411000019121500
0202LOTE PADRAO                   GERDAU      PN * EJ    GGBR4       010VISTA          000000000033900000000345000000003370000000000000000000339000000023100
0202LOTE PADRAO                   BRASIL      ON *       BBAS3       010VISTA          000000000014300000000145000000001410000000000000000000142500027090300
