00BDIN9999BOVESPA 99992003031720030317
0101IBOVESPA                      0107830106090109400000000000000000002003031700000020030317010875000000
0202LOTE PADRAO                   EMBRATEL PARPN *       EBTP4       010VISTA          000000000003200000000033000000000310000000000000000000033000305361000
0202LOTE PADRAO                   TRAN PAULISTPN * EJ    TRPL4       010VISTA          000000000005400000000057000000000540000000000000000000055000013235100
0202LOTE PADRAO                   EMBRATEL PARON *       EBTP3       010VISTA          000000000003700000000038000000000360000000000000000000038100042560200
0202LOTE PADRAO                   TELEMAR     PN * EJ    TNLP4       010VISTA          000000000025500000000266000000002550000000000000000000262000516949000
0202LOTE PADRAO                   ITAUBANCO   PN * EJ    ITAU4       010VISTA          000000000169000000001730000000016800000000000000000001730000005832500
0202LOTE PADRAO                   TELEMAR     ON * EJ    TNLP3       010VISTA          000000000018300000000191000000001830000000000000000000188000025968800
0202LOTE PADRAO                   SID NACIONALON *       CSNA3       010VISTA          000000000057000000000590000000005700000000000000000000589000022775300
0202LOTE PADRAO                   TELE LEST CLPN *       TLCP4       010VISTA          000000000000380000000004200000000038000000000000000000004200192825000
0202LOTE PADRAO                   CRT CELULAR PNA* EJ    CRTP5       010VISTA          000000000310000000003199000000031000000000000000000003198000000411300
0202LOTE PADRAO                   IPIRANGA PETPN *       PTIP4       010VISTA          000000000007000000000075000000000700000000000000000000074000001671800
0202LOTE PADRAO                   BRASIL T PARPN *       BRTP4       010VISTA          000000000018500000000193000000001830000000000000000000188000093409500
0202LOTE PADRAO                   BRASIL T PARON *       BRTP3       010VISTA          000000000014000000000145000000001400000000000000000000140000011528800
0202LOTE PADRAO                   KLABIN S/A  PN         KLBN4       010VISTA          000000000001520000000016000000000152000000000000000000016000000084700
0202LOTE PADRAO                   ACESITA     PN *       ACES4       010VISTA          000000000001100000000011000000000110000000000000000000011000176577000
0202LOTE PADRAO                   PETROBRAS   PN         PETR4       010VISTA          000000000045000000000465000000004470000000000000000000458000000185700
0202LOTE PADRAO                   ELETROBRAS  PNB*       ELET6       010VISTA          000000000019100000000204000000001900000000000000000000201000095289600
0202LOTE PADRAO                   PETROBRAS   ON         PETR3       010VISTA          000000000051000000000517000000005010000000000000000000507000000039400
0202LOTE PADRAO                   COMGAS      PNA*       CGAS5       010VISTA          000000000043000000000435000000004270000000000000000000432000000853200
0202LOTE PADRAO                   SOUZA CRUZ  ON EJ      CRUZ3       010VISTA          000000000018300000000188000000001830000000000000000000186000000003300
0202LOTE PADRAO                   ELETROBRAS  ON *       ELET3       010VISTA          000000000017100000000185000000001710000000000000000000180000011616500
0202LOTE PADRAO                   CELESC      PNB        CLSC6       010VISTA          000000000000450000000004600000000045000000000000000000004600000121700
0202LOTE PADRAO                   BRADESCO    PN * EJ    BBDC4       010VISTA          000000000010700000000110000000001060000000000000000000108000121554000
0202LOTE PADRAO                   CESP        PN *       CESP4       010VISTA          000000000006000000000061000000000590000000000000000000060000007489200
0202LOTE PADRAO                   LIGHT       ON *       LIGH3       010VISTA          000000000027200000000291000000002720000000000000000000279000000179200
0202LOTE PADRAO                   TELESP CL PAPN *       TSPP4       010VISTA          000000000003700000000039000000000370000000000000000000039400693117000
0202LOTE PADRAO                   VALE R DOCE PNA        VALE5       010VISTA          000000000090000000000917500000009000000000000000000000911000000024100
0202LOTE PADRAO                   COPEL       PNB*       CPLE6       010VISTA          000000000008500000000088000000000850000000000000000000085000047068400
0202LOTE PADRAO                   VALE R DOCE ON         VALE3       010VISTA          000000000097400000000974000000009590000000000000000000960000000004200
0202LOTE PADRAO                   ARACRUZ     PNB        ARCZ6       010VISTA          000000000007100000000072000000000710000000000000000000071000000050600
0202LOTE PADRAO                   TELEMIG PARTPN *       TMCP4       010VISTA          000000000002800000000030000000000270000000000000000000029000096588800
0202LOTE PADRAO                   BRASIL TELECPN *       BRTO4       010VISTA          000000000011000000000114000000001080000000000000000000112500138682000
0202LOTE PADRAO                   SABESP      ON *       SBSP3       010VISTA          000000000078700000000810000000007700000000000000000000807000004615500
0202LOTE PADRAO                   BRASKEM     PNA*       BRKM5       010VISTA          000000000168000000001749000000016500000000000000000001700000000450700
0202LOTE PADRAO                   EMBRAER     PN EJ      EMBR4       010VISTA          000000000008500000000090000000000840000000000000000000090000000129600
0202LOTE PADRAO                   TELESP      PN * EJ    TLPP4       010VISTA          000000000032500000000330000000003220000000000000000000327000003671700
0202LOTE PADRAO                   EMBRAER     ON EJ      EMBR3       010VISTA          000000000007000000000074000000000700000000000000000000074000000046900
0202LOTE PADRAO                   AMBEV       PN *       AMBV4       010VISTA          000000000537000000005470000000052900000000000000000005450000004528100
0202LOTE PADRAO                   USIMINAS    PNA        USIM5       010VISTA          000000000007600000000077000000000750000000000000000000077000000043800
0202LOTE PADRAO                   ELETROPAULO PN *       ELPL4       010VISTA          000000000022500000000240000000002230000000000000000000234000004962400
0202LOTE PADRAO                   TELE NORD CLPN *       TNEP4       010VISTA          000000000002200000000023000000000225000000000000000000023000069712500
0202LOTE PADRAO                   CEMIG       PN * EJ    CMIG4       010VISTA          000000000024300000000253000000002410000000000000000000251000036194500
0202LOTE PADRAO                   TELE CL SUL PN * EJ    TCSL4       010VISTA          000000000002200000000023000000000220000000000000000000022000094425300
0202LOTE PADRAO                   TRACTEBEL   ON *       TBLE3       010VISTA          000000000003300000000034000000000320000000000000000000033000052307700
0202LOTE PADRAO                   CEMIG       ON * EJ    CMIG3       010VISTA          000000000018400000000205000000001840000000000000000000204000000373600
0202LOTE PADRAO                   TELE CL SUL ON * EJ    TCSL3       010VISTA          000000000001810000000018000000000177000000000000000000018000022832800
0202LOTE PADRAO                   ITAUSA      PN         ITSA4       010VISTA          000000000001900000000019700000000190000000000000000000019700000324500
0202LOTE PADRAO                   V C P       PN *       VCPA4       010VISTA          000000000130300000001347500000013000000000000000000001315000001799300
0202LOTE PADRAO                   SID TUBARAO PN *       CSTB4       010VISTA          000000000044800000000448000000004200000000000000000000430000004049500
0202LOTE PADRAO                   BRADESPAR   PN *       BRAP4       010VISTA          000000000000660000000006700000000064000000000000000000006500143611000
0202LOTE PADRAO                   NET         PN         PLIM4       010VISTA          000000000000300000000003100000000029000000000000000000003000000567300
0202LOTE PADRAO                   TELE CTR OESPN * EJ    TCOC4       010VISTA          000000000004800000000050000000000470000000000000000000049000069077700
0202LOTE PADRAO                   TELEMAR N L PNA* EJ    TMAR5       010VISTA          000000000035400000000360000000003450000000000000000000357000050830100
0202LOTE PADRAO                   GERDAU      PN * EJ    GGBR4       010VISTA          000000000031300000000315000000003090000000000000000000315000008458100
0202LOTE PADRAO                   BRASIL      ON *       BBAS3       010VISTA          000000000010000000000103000000000975000000000000000000100000025572600
