00BDIN9999BOVESPA 99992003061620030616
0101IBOVESPA                      0137370136970139630000000000000000002003061600000020030616013833000000
0202LOTE PADRAO                   EMBRATEL PARPN *       EBTP4       010VISTA          000000000005800000000062000000000570000000000000000000061000683687000
0202LOTE PADRAO                   TRAN PAULISTPN * EJ    TRPL4       010VISTA          000000000007100000000072000000000710000000000000000000072000025821400
0202LOTE PADRAO                   EMBRATEL PARON *       EBTP3       010VISTA          000000000006400000000067000000000600000000000000000000066000077326600
0202LOTE PADRAO                   TELEMAR     PN * EJ    TNLP4       010VISTA          000000000035300000000361000000003530000000000000000000360000513988000
0202LOTE PADRAO                   ITAUBANCO   PN * EJ    ITAU4       010VISTA          000000000197000000001985000000019600000000000000000001975000006160400
0202LOTE PADRAO                   TELEMAR     ON * EJ    TNLP3       010VISTA          000000000025900000000261000000002550000000000000000000256000008182900
0202LOTE PADRAO                   SID NACIONALON *       CSNA3       010VISTA          000000000064100000000669000000006350000000000000000000669000023201300
0202LOTE PADRAO                   TELE LEST CLPN *       TLCP4       010VISTA          000000000000470000000004800000000046000000000000000000004800041410500
0202LOTE PADRAO                   CRT CELULAR PNA* EJ    CRTP5       010VISTA          000000000334000000003440000000033400000000000000000003415000000527600
0202LOTE PADRAO                   IPIRANGA PETPN *       PTIP4       010VISTA          000000000009300000000094000000000910000000000000000000091000006994200
0202LOTE PADRAO                   BRASIL T PARPN *       BRTP4       010VISTA          000000000021800000000226000000002180000000000000000000223000021852600
0202LOTE PADRAO                   BRASIL T PARON *       BRTP3       010VISTA          000000000016800000000171000000001650000000000000000000171000006030000
0202LOTE PADRAO                   KLABIN S/A  PN         KLBN4       010VISTA          000000000002800000000028000000000270000000000000000000028000000156600
0202LOTE PADRAO                   ACESITA     PN *       ACES4       010VISTA          000000000001400000000014000000000140000000000000000000014000069584000
0202LOTE PADRAO                   PETROBRAS   PN         PETR4       010VISTA          000000000054000000000547000000005400000000000000000000542500000174700
0202LOTE PADRAO                   ELETROBRAS  PNB*       ELET6       010VISTA          000000000025100000000260000000002500000000000000000000250000035604600
0202LOTE PADRAO                   PETROBRAS   ON         PETR3       010VISTA          000000000058700000000596000000005870000000000000000000590000000039400
0202LOTE PADRAO                   COMGAS      PNA*       CGAS5       010VISTA          000000000066600000000690000000006660000000000000000000686000000434900
0202LOTE PADRAO                   SOUZA CRUZ  ON EJ      CRUZ3       010VISTA          000000000021500000000223000000002150000000000000000000221000000012300
0202LOTE PADRAO                   ELETROBRAS  ON *       ELET3       010VISTA          000000000023100000000238000000002310000000000000000000231000007543200
0202LOTE PADRAO                   CELESC      PNB        CLSC6       010VISTA          000000000000500000000005000000000049000000000000000000004900000205000
0202LOTE PADRAO                   BRADESCO    PN * EJ    BBDC4       010VISTA          000000000011500000000116000000001140000000000000000000115000169515000
0202LOTE PADRAO                   CESP        PN *       CESP4       010VISTA          000000000008300000000086000000000820000000000000000000082000005620000
0202LOTE PADRAO                   LIGHT       ON *       LIGH3       010VISTA          000000000029600000000296000000002850000000000000000000285000000601200
0202LOTE PADRAO                   TELESP CL PAPN *       TSPP4       010VISTA          000000000004710000000047500000000460000000000000000000046000370995000
0202LOTE PADRAO                   VALE R DOCE PNA        VALE5       010VISTA          000000000079200000000799000000007870000000000000000000795000000032200
0202LOTE PADRAO                   COPEL       PNB*       CPLE6       010VISTA          000000000010300000000106000000001030000000000000000000104000029456500
0202LOTE PADRAO                   VALE R DOCE ON         VALE3       010VISTA          000000000084900000000855000000008310000000000000000000852000000014500
0202LOTE PADRAO                   ARACRUZ     PNB        ARCZ6       010VISTA          000000000005700000000058000000000560000000000000000000057000000058800
0202LOTE PADRAO                   TELEMIG PARTPN *       TMCP4       010VISTA          000000000003000000000031000000000300000000000000000000031000089945400
0202LOTE PADRAO                   BRASIL TELECPN *       BRTO4       010VISTA          000000000013600000000138000000001350000000000000000000137500054597200
0202LOTE PADRAO                   SABESP      ON *       SBSP3       010VISTA          000000000115500000001179000000011510000000000000000001174000006957000
0202LOTE PADRAO                   BRASKEM     PNA*       BRKM5       010VISTA          000000000392400000004000000000039240000000000000000003960000000145700
0202LOTE PADRAO                   EMBRAER     PN EJ      EMBR4       010VISTA          000000000013600000000141000000001320000000000000000000141000000372600
0202LOTE PADRAO                   TELESP      PN * EJ    TLPP4       010VISTA          000000000032500000000334000000003250000000000000000000333000009990500
0202LOTE PADRAO                   EMBRAER     ON EJ      EMBR3       010VISTA          000000000011300000000115000000001060000000000000000000114000000040000
0202LOTE PADRAO                   AMBEV       PN *       AMBV4       010VISTA          000000000586600000006040000000058660000000000000000005999000003891100
0202LOTE PADRAO                   USIMINAS    PNA        USIM5       010VISTA          000000000012250000000130000000001225000000000000000000129000000078700
0202LOTE PADRAO                   ELETROPAULO PN *       ELPL4       010VISTA          000000000028600000000297000000002860000000000000000000290000010927200
0202LOTE PADRAO                   TELE NORD CLPN *       TNEP4       010VISTA          000000000002400000000025000000000248000000000000000000025000060356900
0202LOTE PADRAO                   CEMIG       PN * EJ    CMIG4       010VISTA          000000000030200000000306000000003020000000000000000000303000032651800
0202LOTE PADRAO                   TELE CL SUL PN * EJ    TCSL4       010VISTA          000000000002500000000026000000000250000000000000000000026000044211800
0202LOTE PADRAO                   TRACTEBEL   ON *       TBLE3       010VISTA          000000000006100000000066000000000600000000000000000000065000005054300
0202LOTE PADRAO                   CEMIG       ON * EJ    CMIG3       010VISTA          000000000023400000000241000000002330000000000000000000236000000510600
0202LOTE PADRAO                   TELE CL SUL ON * EJ    TCSL3       010VISTA          000000000002270000000023000000000227000000000000000000022000010191900
0202LOTE PADRAO                   ITAUSA      PN         ITSA4       010VISTA          000000000002300000000024000000000230000000000000000000024000000174100
0202LOTE PADRAO                   V C P       PN *       VCPA4       010VISTA          000000000107500000001090000000010700000000000000000001087500001822700
0202LOTE PADRAO                   SID TUBARAO PN *       CSTB4       010VISTA          000000000049600000000513000000004960000000000000000000506000008618800
0202LOTE PADRAO                   BRADESPAR   PN *       BRAP4       010VISTA          000000000000650000000006500000000064000000000000000000006500101388000
0202LOTE PADRAO                   NET         PN         PLIM4       010VISTA          000000000000360000000003700000000035000000000000000000003600000908000
0202LOTE PADRAO                   TELE CTR OESPN * EJ    TCOC4       010VISTA          000000000005700000000058000000000560000000000000000000056000110381000
0202LOTE PADRAO                   TELEMAR N L PNA* EJ    TMAR5       010VISTA          000000000043200000000442000000004320000000000000000000437000012033200
0202LOTE PADRAO                   GERDAU      PN * EJ    GGBR4       010VISTA          000000000033500000000339000000003270000000000000000000328000000014700
0202LOTE PADRAO                   BRASIL      ON *       BBAS3       010VISTA          000000000015000000000151000000001450000000000000000000146000023144700
