00BDIN9999BOVESPA 99992003081520030815
0101IBOVESPA                      0138100137440139520000000000000000002003081500000020030815013890000000
0202LOTE PADRAO                   EMBRATEL PARPN *       EBTP4       010VISTA          000000000005700000000058000000000571000000000000000000057000183688000
0202LOTE PADRAO                   TRAN PAULISTPN * EJ    TRPL4       010VISTA          000000000008200000000084000000000810000000000000000000084000024092400
0202LOTE PADRAO                   EMBRATEL PARON *       EBTP3       010VISTA          000000000006200000000063000000000620000000000000000000062000027528800
0202LOTE PADRAO                   TELEMAR     PN * EJ    TNLP4       010VISTA          000000000032300000000333000000003230000000000000000000332000430295000
0202LOTE PADRAO                   ITAUBANCO   PN * EJ    ITAU4       010VISTA          000000000212500000002149000000021160000000000000000002128000011262000
0202LOTE PADRAO                   TELEMAR     ON * EJ    TNLP3       010VISTA          000000000023900000000249000000002390000000000000000000242500031427500
0202LOTE PADRAO                   SID NACIONALON *       CSNA3       010VISTA          000000000085500000000882000000008430000000000000000000882000011643200
0202LOTE PADRAO                   TELE LEST CLPN *       TLCP4       010VISTA          000000000000420000000004300000000041000000000000000000004300087772200
0202LOTE PADRAO                   CRT CELULAR PNA* EJ    CRTP5       010VISTA          000000000381800000003899000000037900000000000000000003850000000486500
0202LOTE PADRAO                   IPIRANGA PETPN *       PTIP4       010VISTA          000000000010500000000106000000001030000000000000000000103000003491100
0202LOTE PADRAO                   BRASIL T PARPN *       BRTP4       010VISTA          000000000020300000000205000000002010000000000000000000203000019038400
0202LOTE PADRAO                   BRASIL T PARON *       BRTP3       010VISTA          000000000015900000000159000000001540000000000000000000155000009144100
0202LOTE PADRAO                   KLABIN S/A  PN         KLBN4       010VISTA          000000000002900000000029000000000280000000000000000000029000000040100
0202LOTE PADRAO                   ACESITA     PN *       ACES4       010VISTA          000000000001300000000013000000000130000000000000000000013000148041000
0202LOTE PADRAO                   PETROBRAS   PN         PETR4       010VISTA          000000000058000000000588000000005770000000000000000000583000000157900
0202LOTE PADRAO                   ELETROBRAS  PNB*       ELET6       010VISTA          000000000021800000000225000000002160000000000000000000223000036144400
0202LOTE PADRAO                   PETROBRAS   ON         PETR3       010VISTA          000000000062900000000630000000006160000000000000000000623000000028500
0202LOTE PADRAO                   COMGAS      PNA*       CGAS5       010VISTA          000000000074900000000749000000007300000000000000000000737000000814200
0202LOTE PADRAO                   SOUZA CRUZ  ON EJ      CRUZ3       010VISTA          000000000023900000000239000000002310000000000000000000235000000004500
0202LOTE PADRAO                   ELETROBRAS  ON *       ELET3       010VISTA          000000000019300000000198000000001910000000000000000000196000007538000
0202LOTE PADRAO                   CELESC      PNB        CLSC6       010VISTA          000000000000420000000004300000000042000000000000000000004200000273700
0202LOTE PADRAO                   BRADESCO    PN * EJ    BBDC4       010VISTA          000000000011750000000119000000001175000000000000000000119000152705000
0202LOTE PADRAO                   CESP        PN *       CESP4       010VISTA          000000000007000000000072000000000700000000000000000000071000013342900
0202LOTE PADRAO                   LIGHT       ON *       LIGH3       010VISTA          000000000024750000000265000000002380000000000000000000252500000989800
0202LOTE PADRAO                   TELESP CL PAPN *       TSPP4       010VISTA          000000000004100000000042000000000410000000000000000000041000153166000
0202LOTE PADRAO                   VALE R DOCE PNA        VALE5       010VISTA          000000000099500000001020000000009900000000000000000001020000000021600
0202LOTE PADRAO                   COPEL       PNB*       CPLE6       010VISTA          000000000008600000000088000000000840000000000000000000087000080243800
0202LOTE PADRAO                   VALE R DOCE ON         VALE3       010VISTA          000000000109000000001112000000010900000000000000000001107000000015000
0202LOTE PADRAO                   ARACRUZ     PNB        ARCZ6       010VISTA          000000000007700000000078000000000770000000000000000000077000000042000
0202LOTE PADRAO                   TELEMIG PARTPN *       TMCP4       010VISTA          000000000002900000000029000000000290000000000000000000029800040912200
0202LOTE PADRAO                   BRASIL TELECPN *       BRTO4       010VISTA          000000000012200000000124000000001210000000000000000000122000054478500
0202LOTE PADRAO                   SABESP      ON *       SBSP3       010VISTA          000000000111500000001142000000011100000000000000000001122000005042600
0202LOTE PADRAO                   BRASKEM     PNA*       BRKM5       010VISTA          000000000470900000005025000000047090000000000000000004948000000968800
0202LOTE PADRAO                   EMBRAER     PN EJ      EMBR4       010VISTA          000000000013100000000133000000001300000000000000000000131000000024700
0202LOTE PADRAO                   TELESP      PN * EJ    TLPP4       010VISTA          000000000029500000000300000000002930000000000000000000296000008790100
0202LOTE PADRAO                   EMBRAER     ON EJ      EMBR3       010VISTA          000000000010500000000105000000001030000000000000000000104000000011900
0202LOTE PADRAO                   AMBEV       PN *       AMBV4       010VISTA          000000000583000000005868000000058000000000000000000005860000003613900
0202LOTE PADRAO                   USIMINAS    PNA        USIM5       010VISTA          000000000016900000000173000000001630000000000000000000167500000058900
0202LOTE PADRAO                   ELETROPAULO PN *       ELPL4       010VISTA          000000000022000000000223000000002150000000000000000000218000009744300
0202LOTE PADRAO                   TELE NORD CLPN *       TNEP4       010VISTA          000000000002300000000024000000000230000000000000000000024000073080400
0202LOTE PADRAO                   CEMIG       PN * EJ    CMIG4       010VISTA          000000000027300000000279000000002730000000000000000000278000035048900
0202LOTE PADRAO                   TELE CL SUL PN * EJ    TCSL4       010VISTA          000000000002300000000023000000000220000000000000000000023000083534900
0202LOTE PADRAO                   TRACTEBEL   ON *       TBLE3       010VISTA          000000000007600000000077000000000750000000000000000000077000003338000
0202LOTE PADRAO                   CEMIG       ON * EJ    CMIG3       010VISTA          000000000022100000000221000000002190000000000000000000220000000959800
0202LOTE PADRAO                   TELE CL SUL ON * EJ    TCSL3       010VISTA          000000000002000000000020000000000200000000000000000000020000018344000
0202LOTE PADRAO                   ITAUSA      PN         ITSA4       010VISTA          000000000002600000000026000000000256000000000000000000025600000329000
0202LOTE PADRAO                   V C P       PN *       VCPA4       010VISTA          000000000140900000001435000000014090000000000000000001419000000955600
0202LOTE PADRAO                   SID TUBARAO PN *       CSTB4       010VISTA          000000000055000000000550000000005380000000000000000000549000013944700
0202LOTE PADRAO                   BRADESPAR   PN *       BRAP4       010VISTA          000000000000710000000007100000000069000000000000000000007100189695000
0202LOTE PADRAO                   NET         PN         PLIM4       010VISTA          000000000000330000000003400000000032000000000000000000003300000430100
0202LOTE PADRAO                   TELE CTR OESPN * EJ    TCOC4       010VISTA          000000000005100000000052000000000510000000000000000000052500058909100
0202LOTE PADRAO                   TELEMAR N L PNA* EJ    TMAR5       010VISTA          000000000039700000000405000000003970000000000000000000403000013676800
0202LOTE PADRAO                   GERDAU      PN * EJ    GGBR4       010VISTA          000000000037700000000386000000003770000000000000000000384000000018000
0202LOTE PADRAO                   BRASIL      ON *       BBAS3       010VISTA          000000000015250000000156000000001490000000000000000000152500020895900
