00BDIN9999BOVESPA 99992003053020030530
0101IBOVESPA                      0134130133120135410000000000000000002003053000000020030530013422000000
0202LOTE PADRAO                   EMBRATEL PARPN *       EBTP4       010VISTA          000000000005600000000057000000000540000000000000000000056000413072000
0202LOTE PADRAO                   TRAN PAULISTPN * EJ    TRPL4       010VISTA          000000000007200000000075000000000720000000000000000000075000013486700
0202LOTE PADRAO                   EMBRATEL PARON *       EBTP3       010VISTA          000000000006500000000065000000000620000000000000000000063000100612000
0202LOTE PADRAO                   TELEMAR     PN * EJ    TNLP4       010VISTA          000000000035200000000361000000003520000000000000000000355000340303000
0202LOTE PADRAO                   ITAUBANCO   PN * EJ    ITAU4       010VISTA          000000000205100000002051000000020000000000000000000002000000009085900
0202LOTE PADRAO                   TELEMAR     ON * EJ    TNLP3       010VISTA          000000000026000000000262500000002550000000000000000000256000019842100
0202LOTE PADRAO                   SID NACIONALON *       CSNA3       010VISTA          000000000057100000000572000000005610000000000000000000572000032721600
0202LOTE PADRAO                   TELE LEST CLPN *       TLCP4       010VISTA          000000000000440000000004600000000044000000000000000000004400114281000
0202LOTE PADRAO                   CRT CELULAR PNA* EJ    CRTP5       010VISTA          000000000331100000003330000000032910000000000000000003299000000656400
0202LOTE PADRAO                   IPIRANGA PETPN *       PTIP4       010VISTA          000000000008300000000084000000000800000000000000000000080000029603000
0202LOTE PADRAO                   BRASIL T PARPN *       BRTP4       010VISTA          000000000021600000000220000000002160000000000000000000219000047688700
0202LOTE PADRAO                   BRASIL T PARON *       BRTP3       010VISTA          000000000016100000000166000000001610000000000000000000164000013002900
0202LOTE PADRAO                   KLABIN S/A  PN         KLBN4       010VISTA          000000000002690000000027000000000260000000000000000000026000000121000
0202LOTE PADRAO                   ACESITA     PN *       ACES4       010VISTA          000000000001400000000014000000000140000000000000000000014000149215000
0202LOTE PADRAO                   PETROBRAS   PN         PETR4       010VISTA          000000000052500000000529000000005220000000000000000000527000000108700
0202LOTE PADRAO                   ELETROBRAS  PNB*       ELET6       010VISTA          000000000025200000000256000000002500000000000000000000250000054562400
0202LOTE PADRAO                   PETROBRAS   ON         PETR3       010VISTA          000000000057000000000580000000005650000000000000000000580000000071400
0202LOTE PADRAO                   COMGAS      PNA*       CGAS5       010VISTA          000000000058800000000620000000005750000000000000000000604000001681200
0202LOTE PADRAO                   SOUZA CRUZ  ON EJ      CRUZ3       010VISTA          000000000020000000000206000000001970000000000000000000204000000031400
0202LOTE PADRAO                   ELETROBRAS  ON *       ELET3       010VISTA          000000000023000000000233000000002260000000000000000000231000025326600
0202LOTE PADRAO                   CELESC      PNB        CLSC6       010VISTA          000000000000500000000005100000000049000000000000000000005000000113400
0202LOTE PADRAO                   BRADESCO    PN * EJ    BBDC4       010VISTA          000000000011800000000120000000001170000000000000000000118000200531000
0202LOTE PADRAO                   CESP        PN *       CESP4       010VISTA          000000000008500000000085000000000820000000000000000000083000010063500
0202LOTE PADRAO                   LIGHT       ON *       LIGH3       010VISTA          000000000027700000000285000000002710000000000000000000285000001530900
0202LOTE PADRAO                   TELESP CL PAPN *       TSPP4       010VISTA          000000000004700000000048000000000460000000000000000000047000517654000
0202LOTE PADRAO                   VALE R DOCE PNA        VALE5       010VISTA          000000000083000000000837000000008280000000000000000000830000000029500
0202LOTE PADRAO                   COPEL       PNB*       CPLE6       010VISTA          000000000009750000000100000000000975000000000000000000098000056365900
0202LOTE PADRAO                   VALE R DOCE ON         VALE3       010VISTA          000000000087200000000895000000008700000000000000000000870000000012100
0202LOTE PADRAO                   ARACRUZ     PNB        ARCZ6       010VISTA          000000000005710000000059000000000560000000000000000000057000000138300
0202LOTE PADRAO                   TELEMIG PARTPN *       TMCP4       010VISTA          000000000002700000000028000000000270000000000000000000027000118884000
0202LOTE PADRAO                   BRASIL TELECPN *       BRTO4       010VISTA          000000000012900000000130000000001280000000000000000000129000159392000
0202LOTE PADRAO                   SABESP      ON *       SBSP3       010VISTA          000000000109900000001110000000010710000000000000000001090000005589000
0202LOTE PADRAO                   BRASKEM     PNA*       BRKM5       010VISTA          000000000367000000003727000000036000000000000000000003600000000487200
0202LOTE PADRAO                   EMBRAER     PN EJ      EMBR4       010VISTA          000000000010800000000110000000001075000000000000000000110000000085300
0202LOTE PADRAO                   TELESP      PN * EJ    TLPP4       010VISTA          000000000030800000000318000000003060000000000000000000315000014977000
0202LOTE PADRAO                   EMBRAER     ON EJ      EMBR3       010VISTA          000000000008800000000090000000000880000000000000000000089000000012400
0202LOTE PADRAO                   AMBEV       PN *       AMBV4       010VISTA          000000000600000000006050000000059000000000000000000005930000001916500
0202LOTE PADRAO                   USIMINAS    PNA        USIM5       010VISTA          000000000010600000000109000000001060000000000000000000108000000044000
0202LOTE PADRAO                   ELETROPAULO PN *       ELPL4       010VISTA          000000000026400000000268000000002550000000000000000000255000011341000
0202LOTE PADRAO                   TELE NORD CLPN *       TNEP4       010VISTA          000000000002520000000025000000000240000000000000000000025400069822900
0202LOTE PADRAO                   CEMIG       PN * EJ    CMIG4       010VISTA          000000000030600000000308000000003000000000000000000000302500048115900
0202LOTE PADRAO                   TELE CL SUL PN * EJ    TCSL4       010VISTA          000000000002600000000027000000000260000000000000000000026000076471800
0202LOTE PADRAO                   TRACTEBEL   ON *       TBLE3       010VISTA          000000000005100000000052500000000500000000000000000000051000084760500
0202LOTE PADRAO                   CEMIG       ON * EJ    CMIG3       010VISTA          000000000023500000000241000000002310000000000000000000241000000620000
0202LOTE PADRAO                   TELE CL SUL ON * EJ    TCSL3       010VISTA          000000000002300000000023000000000230000000000000000000023000026922300
0202LOTE PADRAO                   ITAUSA      PN         ITSA4       010VISTA          000000000002500000000025200000000248000000000000000000024800000452400
0202LOTE PADRAO                   V C P       PN *       VCPA4       010VISTA          000000000110000000001129000000010840000000000000000001105000011057300
0202LOTE PADRAO                   SID TUBARAO PN *       CSTB4       010VISTA          000000000044600000000460000000004400000000000000000000460000019238300
0202LOTE PADRAO                   BRADESPAR   PN *       BRAP4       010VISTA          000000000000650000000006700000000065000000000000000000006500225375000
0202LOTE PADRAO                   NET         PN         PLIM4       010VISTA          000000000000350000000003600000000034000000000000000000003500000316000
0202LOTE PADRAO                   TELE CTR OESPN * EJ    TCOC4       010VISTA          000000000005700000000059000000000570000000000000000000058000092613900
0202LOTE PADRAO                   TELEMAR N L PNA* EJ    TMAR5       010VISTA          000000000045700000000457000000004410000000000000000000442500029230400
0202LOTE PADRAO                   GERDAU      PN * EJ    GGBR4       010VISTA          000000000030500000000306000000003020000000000000000000303000000015000
0202LOTE PADRAO                   BRASIL      ON *       BBAS3       010VISTA          000000000014600000000154000000001460000000000000000000153000037483200
