00BDIN9999BOVESPA 99992003010620030106
0101IBOVESPA                      0116360116330120320000000000000000002003010600000020030106012020000000
0202LOTE PADRAO                   EMBRATEL PARPN *       EBTP4       010VISTA          000000000004600000000049000000000460000000000000000000049000543292000
0202LOTE PADRAO                   TRAN PAULISTPN * EJ    TRPL4       010VISTA          000000000005700000000060000000000570000000000000000000060000013628500
0202LOTE PADRAO                   EMBRATEL PARON *       EBTP3       010VISTA          000000000004960000000052000000000490000000000000000000052000111874000
0202LOTE PADRAO                   TELEMAR     PN * EJ    TNLP4       010VISTA          000000000027900000000282500000002760000000000000000000281000304979000
0202LOTE PADRAO                   ITAUBANCO   PN * EJ    ITAU4       010VISTA          000000000171000000001765000000017100000000000000000001765000015462000
0202LOTE PADRAO                   TELEMAR     ON * EJ    TNLP3       010VISTA          000000000020300000000208000000002010000000000000000000208000036326400
0202LOTE PADRAO                   SID NACIONALON *       CSNA3       010VISTA          000000000052400000000524000000005050000000000000000000512000012079200
0202LOTE PADRAO                   TELE LEST CLPN *       TLCP4       010VISTA          000000000000450000000004900000000045000000000000000000004800505874000
0202LOTE PADRAO                   CRT CELULAR PNA* EJ    CRTP5       010VISTA          000000000340000000003610000000034000000000000000000003600000003010200
0202LOTE PADRAO                   IPIRANGA PETPN *       PTIP4       010VISTA          000000000008500000000086000000000850000000000000000000085000004982000
0202LOTE PADRAO                   BRASIL T PARPN *       BRTP4       010VISTA          000000000018600000000191000000001860000000000000000000190000026809200
0202LOTE PADRAO                   BRASIL T PARON *       BRTP3       010VISTA          000000000014400000000146000000001400000000000000000000146000009382200
0202LOTE PADRAO                   KLABIN S/A  PN         KLBN4       010VISTA          000000000001000000000011000000000100000000000000000000011000000033300
0202LOTE PADRAO                   ACESITA     PN *       ACES4       010VISTA          000000000000950000000009600000000094000000000000000000009500269620000
0202LOTE PADRAO                   PETROBRAS   PN         PETR4       010VISTA          000000000047200000000493000000004720000000000000000000490000000141400
0202LOTE PADRAO                   ELETROBRAS  PNB*       ELET6       010VISTA          000000000023300000000236000000002320000000000000000000235000041079000
0202LOTE PADRAO                   PETROBRAS   ON         PETR3       010VISTA          000000000052500000000547000000005250000000000000000000543000000043200
0202LOTE PADRAO                   COMGAS      PNA*       CGAS5       010VISTA          000000000055200000000564000000005520000000000000000000562500000447000
0202LOTE PADRAO                   SOUZA CRUZ  ON EJ      CRUZ3       010VISTA          000000000018000000000181000000001780000000000000000000178000000006900
0202LOTE PADRAO                   ELETROBRAS  ON *       ELET3       010VISTA          000000000023900000000241000000002360000000000000000000238000012979800
0202LOTE PADRAO                   CELESC      PNB        CLSC6       010VISTA          000000000000550000000005600000000055000000000000000000005600000234100
0202LOTE PADRAO                   BRADESCO    PN * EJ    BBDC4       010VISTA          000000000011000000000111000000001090000000000000000000111000173649000
0202LOTE PADRAO                   CESP        PN *       CESP4       010VISTA          000000000007200000000080000000000720000000000000000000080000068391200
0202LOTE PADRAO                   LIGHT       ON *       LIGH3       010VISTA          000000000048000000000504000000004700000000000000000000475000001248700
0202LOTE PADRAO                   TELESP CL PAPN *       TSPP4       010VISTA          000000000004700000000050000000000460000000000000000000050000592348000
0202LOTE PADRAO                   VALE R DOCE PNA        VALE5       010VISTA          000000000095700000000957000000009300000000000000000000932500000012900
0202LOTE PADRAO                   COPEL       PNB*       CPLE6       010VISTA          000000000009900000000099000000000950000000000000000000098000086651600
0202LOTE PADRAO                   VALE R DOCE ON         VALE3       010VISTA          000000000098000000000985000000009650000000000000000000980000000006200
0202LOTE PADRAO                   ARACRUZ     PNB        ARCZ6       010VISTA          000000000006800000000068000000000650000000000000000000065000000045100
0202LOTE PADRAO                   TELEMIG PARTPN *       TMCP4       010VISTA          000000000003100000000032000000000300000000000000000000032000235253000
0202LOTE PADRAO                   BRASIL TELECPN *       BRTO4       010VISTA          000000000011900000000122500000001190000000000000000000122500058599100
0202LOTE PADRAO                   SABESP      ON *       SBSP3       010VISTA          000000000094200000000975000000009420000000000000000000975000004062900
0202LOTE PADRAO                   BRASKEM     PNA*       BRKM5       010VISTA          000000000244900000002530000000024000000000000000000002519000000220500
0202LOTE PADRAO                   EMBRAER     PN EJ      EMBR4       010VISTA          000000000013600000000136000000001330000000000000000000134000000063300
0202LOTE PADRAO                   TELESP      PN * EJ    TLPP4       010VISTA          000000000035500000000356000000003500000000000000000000355000006670100
0202LOTE PADRAO                   EMBRAER     ON EJ      EMBR3       010VISTA          000000000012500000000125000000001210000000000000000000121000000014000
0202LOTE PADRAO                   AMBEV       PN *       AMBV4       010VISTA          000000000547000000005470000000053100000000000000000005360000000905400
0202LOTE PADRAO                   USIMINAS    PNA        USIM5       010VISTA          000000000006900000000072500000000690000000000000000000071000000091300
0202LOTE PADRAO                   ELETROPAULO PN *       ELPL4       010VISTA          000000000027800000000303000000002750000000000000000000300000010623200
0202LOTE PADRAO                   TELE NORD CLPN *       TNEP4       010VISTA          000000000002800000000029000000000270000000000000000000028000158456000
0202LOTE PADRAO                   CEMIG       PN * EJ    CMIG4       010VISTA          000000000026300000000268000000002580000000000000000000261000029128300
0202LOTE PADRAO                   TELE CL SUL PN * EJ    TCSL4       010VISTA          000000000002800000000029600000000280000000000000000000029000129590000
0202LOTE PADRAO                   TRACTEBEL   ON *       TBLE3       010VISTA          000000000003750000000037500000000356000000000000000000036000008933000
0202LOTE PADRAO                   CEMIG       ON * EJ    CMIG3       010VISTA          000000000024000000000250000000002380000000000000000000238000000190000
0202LOTE PADRAO                   TELE CL SUL ON * EJ    TCSL3       010VISTA          000000000002000000000021000000000200000000000000000000021000059826900
0202LOTE PADRAO                   ITAUSA      PN         ITSA4       010VISTA          000000000001900000000019700000000190000000000000000000019600000378400
0202LOTE PADRAO                   V C P       PN *       VCPA4       010VISTA          000000000124900000001252000000012300000000000000000001234000002278600
0202LOTE PADRAO                   SID TUBARAO PN *       CSTB4       010VISTA          000000000043000000000430000000004000000000000000000000403000015364500
0202LOTE PADRAO                   BRADESPAR   PN *       BRAP4       010VISTA          000000000000580000000005900000000057000000000000000000005800210939000
0202LOTE PADRAO                   NET         PN         PLIM4       010VISTA          000000000000440000000004600000000043000000000000000000004400001459500
0202LOTE PADRAO                   TELE CTR OESPN * EJ    TCOC4       010VISTA          000000000004900000000053000000000490000000000000000000052000111723000
0202LOTE PADRAO                   TELEMAR N L PNA* EJ    TMAR5       010VISTA          000000000044900000000477500000004460000000000000000000472000041318800
0202LOTE PADRAO                   GERDAU      PN * EJ    GGBR4       010VISTA          000000000032700000000332000000003230000000000000000000328000014168800
0202LOTE PADRAO                   BRASIL      ON *       BBAS3       010VISTA          000000000009900000000099000000000975000000000000000000099000033326300
