00BDIN9999BOVESPA 99992003020720030207
0101IBOVESPA                      0105670103550106920000000000000000002003020700000020030207010381000000
0202LOTE PADRAO                   EMBRATEL PARPN *       EBTP4       010VISTA          000000000003200000000032000000000290000000000000000000029000370142000
0202LOTE PADRAO                   TRAN PAULISTPN * EJ    TRPL4       010VISTA          000000000005100000000052500000000500000000000000000000050000009930000
0202LOTE PADRAO                   EMBRATEL PARON *       EBTP3       010VISTA          000000000004000000000040000000000360000000000000000000036900045289900
0202LOTE PADRAO                   TELEMAR     PN * EJ    TNLP4       010VISTA          000000000025500000000259000000002480000000000000000000250000232117000
0202LOTE PADRAO                   ITAUBANCO   PN * EJ    ITAU4       010VISTA          000000000155500000001566000000015400000000000000000001545000005359300
0202LOTE PADRAO                   TELEMAR     ON * EJ    TNLP3       010VISTA          000000000018800000000188000000001810000000000000000000181000005612700
0202LOTE PADRAO                   SID NACIONALON *       CSNA3       010VISTA          000000000061300000000620000000006070000000000000000000610000016291300
0202LOTE PADRAO                   TELE LEST CLPN *       TLCP4       010VISTA          000000000000420000000004300000000041000000000000000000004200057879800
0202LOTE PADRAO                   CRT CELULAR PNA* EJ    CRTP5       010VISTA          000000000318000000003320000000031800000000000000000003279000000583800
0202LOTE PADRAO                   IPIRANGA PETPN *       PTIP4       010VISTA          000000000006700000000069000000000671000000000000000000067000002749900
0202LOTE PADRAO                   BRASIL T PARPN *       BRTP4       010VISTA          000000000017100000000173000000001700000000000000000000173000040899000
0202LOTE PADRAO                   BRASIL T PARON *       BRTP3       010VISTA          000000000012600000000130000000001250000000000000000000129000003658200
0202LOTE PADRAO                   KLABIN S/A  PN         KLBN4       010VISTA          000000000001000000000011000000000100000000000000000000010000000009100
0202LOTE PADRAO                   ACESITA     PN *       ACES4       010VISTA          000000000000930000000009400000000091000000000000000000009100068442400
0202LOTE PADRAO                   PETROBRAS   PN         PETR4       010VISTA          000000000045600000000468000000004420000000000000000000450000000102800
0202LOTE PADRAO                   ELETROBRAS  PNB*       ELET6       010VISTA          000000000019900000000203000000001940000000000000000000195000050338400
0202LOTE PADRAO                   PETROBRAS   ON         PETR3       010VISTA          000000000049800000000510000000004900000000000000000000492000000019500
0202LOTE PADRAO                   COMGAS      PNA*       CGAS5       010VISTA          000000000045600000000460000000004500000000000000000000450000000147000
0202LOTE PADRAO                   SOUZA CRUZ  ON EJ      CRUZ3       010VISTA          000000000017600000000178000000001760000000000000000000176000000011700
0202LOTE PADRAO                   ELETROBRAS  ON *       ELET3       010VISTA          000000000018800000000191000000001850000000000000000000187500028932900
0202LOTE PADRAO                   CELESC      PNB        CLSC6       010VISTA          000000000000480000000004900000000048000000000000000000004800000116600
0202LOTE PADRAO                   BRADESCO    PN * EJ    BBDC4       010VISTA          000000000009900000000099000000000960000000000000000000097000108664000
0202LOTE PADRAO                   CESP        PN *       CESP4       010VISTA          000000000006200000000063000000000610000000000000000000061000005774800
0202LOTE PADRAO                   LIGHT       ON *       LIGH3       010VISTA          000000000033500000000335000000003070000000000000000000307000000719400
0202LOTE PADRAO                   TELESP CL PAPN *       TSPP4       010VISTA          000000000003690000000037000000000350000000000000000000035600184156000
0202LOTE PADRAO                   VALE R DOCE PNA        VALE5       010VISTA          000000000098700000000993000000009750000000000000000000980000000024900
0202LOTE PADRAO                   COPEL       PNB*       CPLE6       010VISTA          000000000008100000000081000000000760000000000000000000076000055653200
0202LOTE PADRAO                   VALE R DOCE ON         VALE3       010VISTA          000000000102500000001025000000010120000000000000000001020000000007400
0202LOTE PADRAO                   ARACRUZ     PNB        ARCZ6       010VISTA          000000000007100000000072000000000700000000000000000000071000000038100
0202LOTE PADRAO                   TELEMIG PARTPN *       TMCP4       010VISTA          000000000002500000000026000000000240000000000000000000024000066742700
0202LOTE PADRAO                   BRASIL TELECPN *       BRTO4       010VISTA          000000000010100000000103000000001000000000000000000000100000050039200
0202LOTE PADRAO                   SABESP      ON *       SBSP3       010VISTA          000000000082500000000845000000008190000000000000000000819000001940500
0202LOTE PADRAO                   BRASKEM     PNA*       BRKM5       010VISTA          000000000165000000001699000000016100000000000000000001699000000255300
0202LOTE PADRAO                   EMBRAER     PN EJ      EMBR4       010VISTA          000000000012000000000120000000001120000000000000000000112500000076700
0202LOTE PADRAO                   TELESP      PN * EJ    TLPP4       010VISTA          000000000030500000000316000000003050000000000000000000308000009897200
0202LOTE PADRAO                   EMBRAER     ON EJ      EMBR3       010VISTA          000000000010700000000108000000001000000000000000000000101000000003900
0202LOTE PADRAO                   AMBEV       PN *       AMBV4       010VISTA          000000000496500000004965000000048500000000000000000004880000001208100
0202LOTE PADRAO                   USIMINAS    PNA        USIM5       010VISTA          000000000007300000000073000000000710000000000000000000071000000030500
0202LOTE PADRAO                   ELETROPAULO PN *       ELPL4       010VISTA          000000000024800000000253000000002350000000000000000000235000007615000
0202LOTE PADRAO                   TELE NORD CLPN *       TNEP4       010VISTA          000000000002300000000024000000000230000000000000000000023000044709600
0202LOTE PADRAO                   CEMIG       PN * EJ    CMIG4       010VISTA          000000000025500000000263000000002530000000000000000000256000066226000
0202LOTE PADRAO                   TELE CL SUL PN * EJ    TCSL4       010VISTA          000000000002300000000023000000000220000000000000000000022700097679900
0202LOTE PADRAO                   TRACTEBEL   ON *       TBLE3       010VISTA          000000000003200000000034000000000320000000000000000000032000017856300
0202LOTE PADRAO                   CEMIG       ON * EJ    CMIG3       010VISTA          000000000021800000000223000000002150000000000000000000215000000880000
0202LOTE PADRAO                   TELE CL SUL ON * EJ    TCSL3       010VISTA          000000000001600000000017300000000160000000000000000000016900004401200
0202LOTE PADRAO                   ITAUSA      PN         ITSA4       010VISTA          000000000001800000000018000000000180000000000000000000018000000371200
0202LOTE PADRAO                   V C P       PN *       VCPA4       010VISTA          000000000135000000001350000000013000000000000000000001325000001934100
0202LOTE PADRAO                   SID TUBARAO PN *       CSTB4       010VISTA          000000000037900000000387000000003760000000000000000000385000003771500
0202LOTE PADRAO                   BRADESPAR   PN *       BRAP4       010VISTA          000000000000630000000006600000000063000000000000000000006400188596000
0202LOTE PADRAO                   NET         PN         PLIM4       010VISTA          000000000000320000000003200000000029000000000000000000003000001206500
0202LOTE PADRAO                   TELE CTR OESPN * EJ    TCOC4       010VISTA          000000000004500000000046000000000440000000000000000000045000076664000
0202LOTE PADRAO                   TELEMAR N L PNA* EJ    TMAR5       010VISTA          000000000038100000000387000000003730000000000000000000377000008483500
0202LOTE PADRAO                   GERDAU      PN * EJ    GGBR4       010VISTA          000000000031300000000315000000003030000000000000000000304000007262700
0202LOTE PADRAO                   BRASIL      ON *       BBAS3       010VISTA          000000000009200000000093000000000900000000000000000000091000010069500
