00BDIN9999BOVESPA 99992003040420030404
0101IBOVESPA                      0120140119240121350000000000000000002003040400000020030404012066000000
0202LOTE PADRAO                   EMBRATEL PARPN *       EBTP4       010VISTA          000000000003800000000039000000000370000000000000000000038000321798000
0202LOTE PADRAO                   TRAN PAULISTPN * EJ    TRPL4       010VISTA          000000000006000000000060000000000590000000000000000000059000011397500
0202LOTE PADRAO                   EMBRATEL PARON *       EBTP3       010VISTA          000000000004500000000046000000000440000000000000000000045000041777000
0202LOTE PADRAO                   TELEMAR     PN * EJ    TNLP4       010VISTA          000000000030100000000303000000002980000000000000000000300000268244000
0202LOTE PADRAO                   ITAUBANCO   PN * EJ    ITAU4       010VISTA          000000000180000000001904000000018000000000000000000001904000021068600
0202LOTE PADRAO                   TELEMAR     ON * EJ    TNLP3       010VISTA          000000000021700000000217500000002130000000000000000000216000035283600
0202LOTE PADRAO                   SID NACIONALON *       CSNA3       010VISTA          000000000065000000000652000000006270000000000000000000633000135062000
0202LOTE PADRAO                   TELE LEST CLPN *       TLCP4       010VISTA          000000000000450000000004600000000044000000000000000000004500085342800
0202LOTE PADRAO                   CRT CELULAR PNA* EJ    CRTP5       010VISTA          000000000352000000003520000000033400000000000000000003376000000597300
0202LOTE PADRAO                   IPIRANGA PETPN *       PTIP4       010VISTA          000000000007600000000078000000000750000000000000000000077000012005600
0202LOTE PADRAO                   BRASIL T PARPN *       BRTP4       010VISTA          000000000020000000000204000000001950000000000000000000199000039905700
0202LOTE PADRAO                   BRASIL T PARON *       BRTP3       010VISTA          000000000015400000000154000000001475000000000000000000151000014075000
0202LOTE PADRAO                   KLABIN S/A  PN         KLBN4       010VISTA          000000000001790000000018000000000171000000000000000000017500000071100
0202LOTE PADRAO                   ACESITA     PN *       ACES4       010VISTA          000000000001100000000012000000000110000000000000000000011000144934000
0202LOTE PADRAO                   PETROBRAS   PN         PETR4       010VISTA          000000000049000000000492500000004820000000000000000000490000000111200
0202LOTE PADRAO                   ELETROBRAS  PNB*       ELET6       010VISTA          000000000024500000000247000000002350000000000000000000243000069786000
0202LOTE PADRAO                   PETROBRAS   ON         PETR3       010VISTA          000000000054500000000545000000005330000000000000000000537500000026100
0202LOTE PADRAO                   COMGAS      PNA*       CGAS5       010VISTA          000000000054100000000541000000005320000000000000000000535000000677500
0202LOTE PADRAO                   SOUZA CRUZ  ON EJ      CRUZ3       010VISTA          000000000019800000000200000000001970000000000000000000198000000011100
0202LOTE PADRAO                   ELETROBRAS  ON *       ELET3       010VISTA          000000000022300000000230000000002180000000000000000000228000023917400
0202LOTE PADRAO                   CELESC      PNB        CLSC6       010VISTA          000000000000500000000005000000000047000000000000000000004800000363900
0202LOTE PADRAO                   BRADESCO    PN * EJ    BBDC4       010VISTA          000000000011500000000119000000001150000000000000000000119000192115000
0202LOTE PADRAO                   CESP        PN *       CESP4       010VISTA          000000000006900000000070000000000670000000000000000000067500012059400
0202LOTE PADRAO                   LIGHT       ON *       LIGH3       010VISTA          000000000027400000000300000000002700000000000000000000299000004551400
0202LOTE PADRAO                   TELESP CL PAPN *       TSPP4       010VISTA          000000000004700000000047000000000450000000000000000000046000316154000
0202LOTE PADRAO                   VALE R DOCE PNA        VALE5       010VISTA          000000000083000000000855000000008240000000000000000000835000000040800
0202LOTE PADRAO                   COPEL       PNB*       CPLE6       010VISTA          000000000009600000000097000000000930000000000000000000095000089146800
0202LOTE PADRAO                   VALE R DOCE ON         VALE3       010VISTA          000000000088400000000889000000008640000000000000000000873000000005600
0202LOTE PADRAO                   ARACRUZ     PNB        ARCZ6       010VISTA          000000000006600000000066000000000650000000000000000000065000000052000
0202LOTE PADRAO                   TELEMIG PARTPN *       TMCP4       010VISTA          000000000002900000000029000000000280000000000000000000029000052917200
0202LOTE PADRAO                   BRASIL TELECPN *       BRTO4       010VISTA          000000000011500000000117000000001150000000000000000000117000092338200
0202LOTE PADRAO                   SABESP      ON *       SBSP3       010VISTA          000000000092000000000927000000009010000000000000000000922000008320900
0202LOTE PADRAO                   BRASKEM     PNA*       BRKM5       010VISTA          000000000238000000002398000000022800000000000000000002280000000344300
0202LOTE PADRAO                   EMBRAER     PN EJ      EMBR4       010VISTA          000000000010900000000110000000001060000000000000000000106000000139600
0202LOTE PADRAO                   TELESP      PN * EJ    TLPP4       010VISTA          000000000032000000000320000000003175000000000000000000317500009072700
0202LOTE PADRAO                   EMBRAER     ON EJ      EMBR3       010VISTA          000000000009300000000093000000000900000000000000000000090000000011900
0202LOTE PADRAO                   AMBEV       PN *       AMBV4       010VISTA          000000000580000000005800000000057300000000000000000005780000001197600
0202LOTE PADRAO                   USIMINAS    PNA        USIM5       010VISTA          000000000009400000000098000000000940000000000000000000098000000106500
0202LOTE PADRAO                   ELETROPAULO PN *       ELPL4       010VISTA          000000000027600000000290000000002650000000000000000000266000009594700
0202LOTE PADRAO                   TELE NORD CLPN *       TNEP4       010VISTA          000000000002500000000025000000000240000000000000000000024000048359500
0202LOTE PADRAO                   CEMIG       PN * EJ    CMIG4       010VISTA          000000000028800000000295000000002860000000000000000000295000106916000
0202LOTE PADRAO                   TELE CL SUL PN * EJ    TCSL4       010VISTA          000000000002520000000025000000000240000000000000000000024000050785500
0202LOTE PADRAO                   TRACTEBEL   ON *       TBLE3       010VISTA          000000000004400000000044000000000430000000000000000000044000020475400
0202LOTE PADRAO                   CEMIG       ON * EJ    CMIG3       010VISTA          000000000022250000000235000000002225000000000000000000235000000755000
0202LOTE PADRAO                   TELE CL SUL ON * EJ    TCSL3       010VISTA          000000000002500000000025000000000230000000000000000000024800018553900
0202LOTE PADRAO                   ITAUSA      PN         ITSA4       010VISTA          000000000002000000000021000000000200000000000000000000021000000515000
0202LOTE PADRAO                   V C P       PN *       VCPA4       010VISTA          000000000122500000001225000000012000000000000000000001217000000999900
0202LOTE PADRAO                   SID TUBARAO PN *       CSTB4       010VISTA          000000000042500000000430000000004230000000000000000000427000012347600
0202LOTE PADRAO                   BRADESPAR   PN *       BRAP4       010VISTA          000000000000670000000006800000000065000000000000000000006700144877000
0202LOTE PADRAO                   NET         PN         PLIM4       010VISTA          000000000000330000000003400000000031000000000000000000003200000939500
0202LOTE PADRAO                   TELE CTR OESPN * EJ    TCOC4       010VISTA          000000000005800000000058000000000560000000000000000000056000162956000
0202LOTE PADRAO                   TELEMAR N L PNA* EJ    TMAR5       010VISTA          000000000039900000000408000000003950000000000000000000407000050869600
0202LOTE PADRAO                   GERDAU      PN * EJ    GGBR4       010VISTA          000000000030300000000315000000003030000000000000000000313000036531300
0202LOTE PADRAO                   BRASIL      ON *       BBAS3       010VISTA          000000000010900000000111000000001080000000000000000000110000020406600
