00BDIN9999BOVESPA 99992003031020030310
0101IBOVESPA                      0106950102940106950000000000000000002003031000000020030310010309000000
0202LOTE PADRAO                   EMBRATEL PARPN *       EBTP4       010VISTA          000000000003300000000033000000000300000000000000000000030000384951000
0202LOTE PADRAO                   TRAN PAULISTPN * EJ    TRPL4       010VISTA          000000000005500000000056000000000530000000000000000000053000008566800
0202LOTE PADRAO                   EMBRATEL PARON *       EBTP3       010VISTA          000000000003800000000038000000000348000000000000000000035000039507300
0202LOTE PADRAO                   TELEMAR     PN * EJ    TNLP4       010VISTA          000000000024500000000249000000002430000000000000000000244000353778000
0202LOTE PADRAO                   ITAUBANCO   PN * EJ    ITAU4       010VISTA          000000000163000000001675000000016000000000000000000001664000009880300
0202LOTE PADRAO                   TELEMAR     ON * EJ    TNLP3       010VISTA          000000000018200000000182000000001750000000000000000000176000021085700
0202LOTE PADRAO                   SID NACIONALON *       CSNA3       010VISTA          000000000058300000000583000000005680000000000000000000575000026280900
0202LOTE PADRAO                   TELE LEST CLPN *       TLCP4       010VISTA          000000000000410000000004100000000038000000000000000000003800279509000
0202LOTE PADRAO                   CRT CELULAR PNA* EJ    CRTP5       010VISTA          000000000310000000003100000000030200000000000000000003020000000373000
0202LOTE PADRAO                   IPIRANGA PETPN *       PTIP4       010VISTA          000000000007300000000073000000000700000000000000000000070000001701500
0202LOTE PADRAO                   BRASIL T PARPN *       BRTP4       010VISTA          000000000017800000000179000000001710000000000000000000173000028822300
0202LOTE PADRAO                   BRASIL T PARON *       BRTP3       010VISTA          000000000014000000000140000000001330000000000000000000135000003297600
0202LOTE PADRAO                   KLABIN S/A  PN         KLBN4       010VISTA          000000000001600000000016000000000152000000000000000000015300000016100
0202LOTE PADRAO                   ACESITA     PN *       ACES4       010VISTA          000000000001100000000011000000000110000000000000000000011000179844000
0202LOTE PADRAO                   PETROBRAS   PN         PETR4       010VISTA          000000000043500000000437000000004300000000000000000000432000000120900
0202LOTE PADRAO                   ELETROBRAS  PNB*       ELET6       010VISTA          000000000019600000000196000000001830000000000000000000183000041745000
0202LOTE PADRAO                   PETROBRAS   ON         PETR3       010VISTA          000000000047900000000479000000004710000000000000000000471000000047000
0202LOTE PADRAO                   COMGAS      PNA*       CGAS5       010VISTA          000000000044500000000445000000004120000000000000000000412000000429000
0202LOTE PADRAO                   SOUZA CRUZ  ON EJ      CRUZ3       010VISTA          000000000018500000000191000000001830000000000000000000191000000014200
0202LOTE PADRAO                   ELETROBRAS  ON *       ELET3       010VISTA          000000000018100000000182000000001730000000000000000000173000011491100
0202LOTE PADRAO                   CELESC      PNB        CLSC6       010VISTA          000000000000470000000004700000000045000000000000000000004600000172500
0202LOTE PADRAO                   BRADESCO    PN * EJ    BBDC4       010VISTA          000000000010400000000105000000001030000000000000000000104000220390000
0202LOTE PADRAO                   CESP        PN *       CESP4       010VISTA          000000000006100000000062000000000600000000000000000000060000008429300
0202LOTE PADRAO                   LIGHT       ON *       LIGH3       010VISTA          000000000030250000000302500000002860000000000000000000286000000366700
0202LOTE PADRAO                   TELESP CL PAPN *       TSPP4       010VISTA          000000000003690000000037000000000350000000000000000000035000297635000
0202LOTE PADRAO                   VALE R DOCE PNA        VALE5       010VISTA          000000000096000000000966000000009400000000000000000000942000000047600
0202LOTE PADRAO                   COPEL       PNB*       CPLE6       010VISTA          000000000008500000000085000000000810000000000000000000081000032644000
0202LOTE PADRAO                   VALE R DOCE ON         VALE3       010VISTA          000000000099500000001004000000009890000000000000000000992000000006300
0202LOTE PADRAO                   ARACRUZ     PNB        ARCZ6       010VISTA          000000000006600000000067500000000650000000000000000000065000000019800
0202LOTE PADRAO                   TELEMIG PARTPN *       TMCP4       010VISTA          000000000002520000000026000000000252000000000000000000026000055866000
0202LOTE PADRAO                   BRASIL TELECPN *       BRTO4       010VISTA          000000000011000000000110000000001050000000000000000000105000063040000
0202LOTE PADRAO                   SABESP      ON *       SBSP3       010VISTA          000000000080600000000806000000007630000000000000000000770000003149300
0202LOTE PADRAO                   BRASKEM     PNA*       BRKM5       010VISTA          000000000175000000001799000000017000000000000000000001755000000178300
0202LOTE PADRAO                   EMBRAER     PN EJ      EMBR4       010VISTA          000000000008750000000088000000000840000000000000000000085000000081000
0202LOTE PADRAO                   TELESP      PN * EJ    TLPP4       010VISTA          000000000032000000000330000000003200000000000000000000327000010978800
0202LOTE PADRAO                   EMBRAER     ON EJ      EMBR3       010VISTA          000000000007500000000075000000000720000000000000000000072000000012700
0202LOTE PADRAO                   AMBEV       PN *       AMBV4       010VISTA          000000000488000000004935000000048800000000000000000004930000001726500
0202LOTE PADRAO                   USIMINAS    PNA        USIM5       010VISTA          000000000007710000000077100000000740000000000000000000074000000038100
0202LOTE PADRAO                   ELETROPAULO PN *       ELPL4       010VISTA          000000000025300000000253000000002360000000000000000000237000003626000
0202LOTE PADRAO                   TELE NORD CLPN *       TNEP4       010VISTA          000000000002300000000023000000000220000000000000000000022000046938300
0202LOTE PADRAO                   CEMIG       PN * EJ    CMIG4       010VISTA          000000000024000000000246000000002360000000000000000000238000049713200
0202LOTE PADRAO                   TELE CL SUL PN * EJ    TCSL4       010VISTA          000000000002200000000022000000000210000000000000000000022000060466200
0202LOTE PADRAO                   TRACTEBEL   ON *       TBLE3       010VISTA          000000000003000000000031000000000300000000000000000000030000013816800
0202LOTE PADRAO                   CEMIG       ON * EJ    CMIG3       010VISTA          000000000019000000000192000000001880000000000000000000191000000307200
0202LOTE PADRAO                   TELE CL SUL ON * EJ    TCSL3       010VISTA          000000000001740000000017900000000160000000000000000000016900018430500
0202LOTE PADRAO                   ITAUSA      PN         ITSA4       010VISTA          000000000001800000000019000000000180000000000000000000019000000281000
0202LOTE PADRAO                   V C P       PN *       VCPA4       010VISTA          000000000128000000001290000000012670000000000000000001267000001219300
0202LOTE PADRAO                   SID TUBARAO PN *       CSTB4       010VISTA          000000000044700000000455000000004450000000000000000000452000003744000
0202LOTE PADRAO                   BRADESPAR   PN *       BRAP4       010VISTA          000000000000690000000006900000000065000000000000000000006500120169000
0202LOTE PADRAO                   NET         PN         PLIM4       010VISTA          000000000000300000000003100000000029000000000000000000002900000599000
0202LOTE PADRAO                   TELE CTR OESPN * EJ    TCOC4       010VISTA          000000000004600000000046000000000450000000000000000000045000113543000
0202LOTE PADRAO                   TELEMAR N L PNA* EJ    TMAR5       010VISTA          000000000035600000000356000000003450000000000000000000346000019922800
0202LOTE PADRAO                   GERDAU      PN * EJ    GGBR4       010VISTA          000000000032500000000325000000003110000000000000000000311000026960500
0202LOTE PADRAO                   BRASIL      ON *       BBAS3       010VISTA          000000000009900000000101000000000990000000000000000000100000026887100
