00BDIN9999BOVESPA 99992003021220030212
0101IBOVESPA                      0105120104450105870000000000000000002003021200000020030212010510000000
0202LOTE PADRAO                   EMBRATEL PARPN *       EBTP4       010VISTA          000000000003100000000031000000000300000000000000000000030000299809000
0202LOTE PADRAO                   TRAN PAULISTPN * EJ    TRPL4       010VISTA          000000000005250000000053000000000510000000000000000000052000007169500
0202LOTE PADRAO                   EMBRATEL PARON *       EBTP3       010VISTA          000000000003600000000037300000000350000000000000000000036000031800000
0202LOTE PADRAO                   TELEMAR     PN * EJ    TNLP4       010VISTA          000000000025300000000255000000002510000000000000000000253000273956000
0202LOTE PADRAO                   ITAUBANCO   PN * EJ    ITAU4       010VISTA          000000000157300000001613000000015730000000000000000001600000008233800
0202LOTE PADRAO                   TELEMAR     ON * EJ    TNLP3       010VISTA          000000000018300000000185000000001810000000000000000000184000012225400
0202LOTE PADRAO                   SID NACIONALON *       CSNA3       010VISTA          000000000064500000000664000000006370000000000000000000637000023407000
0202LOTE PADRAO                   TELE LEST CLPN *       TLCP4       010VISTA          000000000000400000000004200000000039000000000000000000004000157081000
0202LOTE PADRAO                   CRT CELULAR PNA* EJ    CRTP5       010VISTA          000000000325000000003290000000032050000000000000000003240000000647000
0202LOTE PADRAO                   IPIRANGA PETPN *       PTIP4       010VISTA          000000000007000000000070000000000680000000000000000000068000002340900
0202LOTE PADRAO                   BRASIL T PARPN *       BRTP4       010VISTA          000000000017100000000175000000001700000000000000000000172000045456700
0202LOTE PADRAO                   BRASIL T PARON *       BRTP3       010VISTA          000000000013100000000133000000001250000000000000000000125000018510600
0202LOTE PADRAO                   KLABIN S/A  PN         KLBN4       010VISTA          000000000001000000000011000000000100000000000000000000011000000016600
0202LOTE PADRAO                   ACESITA     PN *       ACES4       010VISTA          000000000000980000000010000000000098000000000000000000010000478615000
0202LOTE PADRAO                   PETROBRAS   PN         PETR4       010VISTA          000000000046700000000471000000004580000000000000000000468000000129300
0202LOTE PADRAO                   ELETROBRAS  PNB*       ELET6       010VISTA          000000000018750000000190000000001830000000000000000000188000070881200
0202LOTE PADRAO                   PETROBRAS   ON         PETR3       010VISTA          000000000050800000000517000000005050000000000000000000515000000028400
0202LOTE PADRAO                   COMGAS      PNA*       CGAS5       010VISTA          000000000044300000000453000000004320000000000000000000440000001371000
0202LOTE PADRAO                   SOUZA CRUZ  ON EJ      CRUZ3       010VISTA          000000000018100000000185000000001810000000000000000000185000000034400
0202LOTE PADRAO                   ELETROBRAS  ON *       ELET3       010VISTA          000000000018100000000185000000001790000000000000000000181000024870400
0202LOTE PADRAO                   CELESC      PNB        CLSC6       010VISTA          000000000000470000000004800000000047000000000000000000004800000084800
0202LOTE PADRAO                   BRADESCO    PN * EJ    BBDC4       010VISTA          000000000009750000000098000000000960000000000000000000098000210821000
0202LOTE PADRAO                   CESP        PN *       CESP4       010VISTA          000000000006400000000064000000000620000000000000000000062000012518300
0202LOTE PADRAO                   LIGHT       ON *       LIGH3       010VISTA          000000000027800000000295000000002750000000000000000000281000000775500
0202LOTE PADRAO                   TELESP CL PAPN *       TSPP4       010VISTA          000000000003400000000034000000000330000000000000000000034000400996000
0202LOTE PADRAO                   VALE R DOCE PNA        VALE5       010VISTA          000000000100000000001007000000009820000000000000000000982000000023100
0202LOTE PADRAO                   COPEL       PNB*       CPLE6       010VISTA          000000000007700000000079000000000760000000000000000000077100037843700
0202LOTE PADRAO                   VALE R DOCE ON         VALE3       010VISTA          000000000105000000001050000000010250000000000000000001032000000007100
0202LOTE PADRAO                   ARACRUZ     PNB        ARCZ6       010VISTA          000000000006900000000071000000000680000000000000000000070000000030500
0202LOTE PADRAO                   TELEMIG PARTPN *       TMCP4       010VISTA          000000000002520000000025200000000240000000000000000000024000159198000
0202LOTE PADRAO                   BRASIL TELECPN *       BRTO4       010VISTA          000000000010000000000100000000000980000000000000000000098000207162000
0202LOTE PADRAO                   SABESP      ON *       SBSP3       010VISTA          000000000085200000000890000000008400000000000000000000890000011004600
0202LOTE PADRAO                   BRASKEM     PNA*       BRKM5       010VISTA          000000000172000000001739000000016600000000000000000001680000000415500
0202LOTE PADRAO                   EMBRAER     PN EJ      EMBR4       010VISTA          000000000011200000000113000000001100000000000000000000113000000061700
0202LOTE PADRAO                   TELESP      PN * EJ    TLPP4       010VISTA          000000000030800000000319000000002980000000000000000000307500013819400
0202LOTE PADRAO                   EMBRAER     ON EJ      EMBR3       010VISTA          000000000010100000000101000000000960000000000000000000096000000016800
0202LOTE PADRAO                   AMBEV       PN *       AMBV4       010VISTA          000000000481000000004848000000047790000000000000000004791000001845600
0202LOTE PADRAO                   USIMINAS    PNA        USIM5       010VISTA          000000000007600000000077000000000740000000000000000000076000000108400
0202LOTE PADRAO                   ELETROPAULO PN *       ELPL4       010VISTA          000000000022800000000234000000002250000000000000000000225000006435500
0202LOTE PADRAO                   TELE NORD CLPN *       TNEP4       010VISTA          000000000002300000000024800000000230000000000000000000024000102203000
0202LOTE PADRAO                   CEMIG       PN * EJ    CMIG4       010VISTA          000000000024750000000248000000002430000000000000000000243000040784400
0202LOTE PADRAO                   TELE CL SUL PN * EJ    TCSL4       010VISTA          000000000002300000000023000000000220000000000000000000023000093452300
0202LOTE PADRAO                   TRACTEBEL   ON *       TBLE3       010VISTA          000000000003250000000032000000000320000000000000000000032000005024800
0202LOTE PADRAO                   CEMIG       ON * EJ    CMIG3       010VISTA          000000000020800000000218000000002050000000000000000000211000002470500
0202LOTE PADRAO                   TELE CL SUL ON * EJ    TCSL3       010VISTA          000000000001600000000017000000000160000000000000000000016000018480500
0202LOTE PADRAO                   ITAUSA      PN         ITSA4       010VISTA          000000000001800000000019000000000180000000000000000000018000000192300
0202LOTE PADRAO                   V C P       PN *       VCPA4       010VISTA          000000000130750000001349000000013075000000000000000001321000008018700
0202LOTE PADRAO                   SID TUBARAO PN *       CSTB4       010VISTA          000000000042000000000441000000004200000000000000000000434000012352700
0202LOTE PADRAO                   BRADESPAR   PN *       BRAP4       010VISTA          000000000000670000000006900000000067000000000000000000006700365130000
0202LOTE PADRAO                   NET         PN         PLIM4       010VISTA          000000000000310000000003200000000030000000000000000000003000000895100
0202LOTE PADRAO                   TELE CTR OESPN * EJ    TCOC4       010VISTA          000000000004300000000044000000000420000000000000000000042000127559000
0202LOTE PADRAO                   TELEMAR N L PNA* EJ    TMAR5       010VISTA          000000000038100000000381000000003730000000000000000000377500035158500
0202LOTE PADRAO                   GERDAU      PN * EJ    GGBR4       010VISTA          000000000029800000000322000000002980000000000000000000315000033167100
0202LOTE PADRAO                   BRASIL      ON *       BBAS3       010VISTA          000000000009500000000097000000000950000000000000000000096000044492600
