00BDIN9999BOVESPA 99992003022020030220
0101IBOVESPA                      0102590101180102680000000000000000002003022000000020030220010217000000
0202LOTE PADRAO                   EMBRATEL PARPN *       EBTP4       010VISTA          000000000003000000000030000000000290000000000000000000029000182755000
0202LOTE PADRAO                   TRAN PAULISTPN * EJ    TRPL4       010VISTA          000000000005000000000051000000000500000000000000000000051000001911300
0202LOTE PADRAO                   EMBRATEL PARON *       EBTP3       010VISTA          000000000003690000000036900000000340000000000000000000035000038415200
0202LOTE PADRAO                   TELEMAR     PN * EJ    TNLP4       010VISTA          000000000024700000000248000000002410000000000000000000246000189982000
0202LOTE PADRAO                   ITAUBANCO   PN * EJ    ITAU4       010VISTA          000000000151500000001530000000015100000000000000000001520000005368500
0202LOTE PADRAO                   TELEMAR     ON * EJ    TNLP3       010VISTA          000000000018000000000180000000001730000000000000000000177500014858900
0202LOTE PADRAO                   SID NACIONALON *       CSNA3       010VISTA          000000000064200000000665000000006420000000000000000000655000036056100
0202LOTE PADRAO                   TELE LEST CLPN *       TLCP4       010VISTA          000000000000390000000003900000000038000000000000000000003900043090100
0202LOTE PADRAO                   CRT CELULAR PNA* EJ    CRTP5       010VISTA          000000000307000000003080000000030400000000000000000003080000000414700
0202LOTE PADRAO                   IPIRANGA PETPN *       PTIP4       010VISTA          000000000006750000000068000000000675000000000000000000067000000300000
0202LOTE PADRAO                   BRASIL T PARPN *       BRTP4       010VISTA          000000000018300000000183000000001800000000000000000000181000086017000
0202LOTE PADRAO                   BRASIL T PARON *       BRTP3       010VISTA          000000000013300000000138000000001330000000000000000000135000010547500
0202LOTE PADRAO                   KLABIN S/A  PN         KLBN4       010VISTA          000000000001240000000012800000000120000000000000000000012600000108700
0202LOTE PADRAO                   ACESITA     PN *       ACES4       010VISTA          000000000001100000000011000000000110000000000000000000011000206753000
0202LOTE PADRAO                   PETROBRAS   PN         PETR4       010VISTA          000000000045200000000452000000004420000000000000000000445000000123700
0202LOTE PADRAO                   ELETROBRAS  PNB*       ELET6       010VISTA          000000000018500000000185000000001775000000000000000000180000032310100
0202LOTE PADRAO                   PETROBRAS   ON         PETR3       010VISTA          000000000050000000000502000000004880000000000000000000496000000029300
0202LOTE PADRAO                   COMGAS      PNA*       CGAS5       010VISTA          000000000044500000000450000000004410000000000000000000449000000178000
0202LOTE PADRAO                   SOUZA CRUZ  ON EJ      CRUZ3       010VISTA          000000000018700000000189000000001870000000000000000000189000000010600
0202LOTE PADRAO                   ELETROBRAS  ON *       ELET3       010VISTA          000000000017000000000173000000001675000000000000000000170000013158000
0202LOTE PADRAO                   CELESC      PNB        CLSC6       010VISTA          000000000000470000000004800000000046000000000000000000004700000161200
0202LOTE PADRAO                   BRADESCO    PN * EJ    BBDC4       010VISTA          000000000009800000000098000000000960000000000000000000096000228752000
0202LOTE PADRAO                   CESP        PN *       CESP4       010VISTA          000000000006000000000060000000000580000000000000000000060000007982800
0202LOTE PADRAO                   LIGHT       ON *       LIGH3       010VISTA          000000000028400000000319000000002780000000000000000000319000000139800
0202LOTE PADRAO                   TELESP CL PAPN *       TSPP4       010VISTA          000000000003250000000032000000000310000000000000000000032000233989000
0202LOTE PADRAO                   VALE R DOCE PNA        VALE5       010VISTA          000000000095500000000967500000009450000000000000000000950000000032100
0202LOTE PADRAO                   COPEL       PNB*       CPLE6       010VISTA          000000000007400000000075000000000720000000000000000000073000030229400
0202LOTE PADRAO                   VALE R DOCE ON         VALE3       010VISTA          000000000099000000001003000000009860000000000000000000986000000007800
0202LOTE PADRAO                   ARACRUZ     PNB        ARCZ6       010VISTA          000000000006800000000068000000000650000000000000000000067000000063400
0202LOTE PADRAO                   TELEMIG PARTPN *       TMCP4       010VISTA          000000000002400000000026000000000240000000000000000000026000165276000
0202LOTE PADRAO                   BRASIL TELECPN *       BRTO4       010VISTA          000000000010400000000105000000001025000000000000000000105000168743000
0202LOTE PADRAO                   SABESP      ON *       SBSP3       010VISTA          000000000080500000000805000000007870000000000000000000804000002234600
0202LOTE PADRAO                   BRASKEM     PNA*       BRKM5       010VISTA          000000000165000000001675000000016150000000000000000001665000000139100
0202LOTE PADRAO                   EMBRAER     PN EJ      EMBR4       010VISTA          000000000009600000000096000000000910000000000000000000093000000058500
0202LOTE PADRAO                   TELESP      PN * EJ    TLPP4       010VISTA          000000000032800000000328000000003220000000000000000000328000014773200
0202LOTE PADRAO                   EMBRAER     ON EJ      EMBR3       010VISTA          000000000008300000000083000000000800000000000000000000082500000010800
0202LOTE PADRAO                   AMBEV       PN *       AMBV4       010VISTA          000000000505900000005160000000050500000000000000000005150000001635400
0202LOTE PADRAO                   USIMINAS    PNA        USIM5       010VISTA          000000000007300000000075000000000730000000000000000000075000000042200
0202LOTE PADRAO                   ELETROPAULO PN *       ELPL4       010VISTA          000000000022000000000225000000002130000000000000000000220000005161200
0202LOTE PADRAO                   TELE NORD CLPN *       TNEP4       010VISTA          000000000002300000000023000000000230000000000000000000023000022224800
0202LOTE PADRAO                   CEMIG       PN * EJ    CMIG4       010VISTA          000000000023400000000234000000002260000000000000000000231000029400400
0202LOTE PADRAO                   TELE CL SUL PN * EJ    TCSL4       010VISTA          000000000002200000000022000000000210000000000000000000022000145917000
0202LOTE PADRAO                   TRACTEBEL   ON *       TBLE3       010VISTA          000000000003100000000031000000000280000000000000000000029400009809900
0202LOTE PADRAO                   CEMIG       ON * EJ    CMIG3       010VISTA          000000000020000000000200000000001950000000000000000000195000000864800
0202LOTE PADRAO                   TELE CL SUL ON * EJ    TCSL3       010VISTA          000000000001600000000016000000000160000000000000000000016000040984800
0202LOTE PADRAO                   ITAUSA      PN         ITSA4       010VISTA          000000000001790000000018000000000178000000000000000000018000000154400
0202LOTE PADRAO                   V C P       PN *       VCPA4       010VISTA          000000000128000000001309000000012800000000000000000001300000002274000
0202LOTE PADRAO                   SID TUBARAO PN *       CSTB4       010VISTA          000000000042600000000436000000004240000000000000000000428000006313700
0202LOTE PADRAO                   BRADESPAR   PN *       BRAP4       010VISTA          000000000000610000000006200000000060000000000000000000006200049263300
0202LOTE PADRAO                   NET         PN         PLIM4       010VISTA          000000000000280000000002900000000027000000000000000000002800000478300
0202LOTE PADRAO                   TELE CTR OESPN * EJ    TCOC4       010VISTA          000000000003900000000041000000000390000000000000000000040000080742400
0202LOTE PADRAO                   TELEMAR N L PNA* EJ    TMAR5       010VISTA          000000000037000000000370000000003570000000000000000000362500021266700
0202LOTE PADRAO                   GERDAU      PN * EJ    GGBR4       010VISTA          000000000031300000000323000000003110000000000000000000323000007581500
0202LOTE PADRAO                   BRASIL      ON *       BBAS3       010VISTA          000000000009300000000095000000000930000000000000000000094000031870600
