00BDIN9999BOVESPA 99992003032420030324
0101IBOVESPA                      0113620110240113620000000000000000002003032400000020030324011053000000
0202LOTE PADRAO                   EMBRATEL PARPN *       EBTP4       010VISTA          000000000003300000000034000000000320000000000000000000033000255567000
0202LOTE PADRAO                   TRAN PAULISTPN * EJ    TRPL4       010VISTA          000000000005500000000056000000000540000000000000000000056000013420400
0202LOTE PADRAO                   EMBRATEL PARON *       EBTP3       010VISTA          000000000003800000000038000000000375000000000000000000038000033504600
0202LOTE PADRAO                   TELEMAR     PN * EJ    TNLP4       010VISTA          000000000027000000000273000000002680000000000000000000269000214934000
0202LOTE PADRAO                   ITAUBANCO   PN * EJ    ITAU4       010VISTA          000000000183000000001840000000018000000000000000000001810000011765800
0202LOTE PADRAO                   TELEMAR     ON * EJ    TNLP3       010VISTA          000000000019600000000197500000001930000000000000000000194000027921400
0202LOTE PADRAO                   SID NACIONALON *       CSNA3       010VISTA          000000000063500000000638000000006100000000000000000000622000019569600
0202LOTE PADRAO                   TELE LEST CLPN *       TLCP4       010VISTA          000000000000420000000004300000000040000000000000000000004100182594000
0202LOTE PADRAO                   CRT CELULAR PNA* EJ    CRTP5       010VISTA          000000000338500000003385000000032250000000000000000003280000000207800
0202LOTE PADRAO                   IPIRANGA PETPN *       PTIP4       010VISTA          000000000007000000000072000000000696000000000000000000070000001792700
0202LOTE PADRAO                   BRASIL T PARPN *       BRTP4       010VISTA          000000000019400000000194000000001900000000000000000000193000059059700
0202LOTE PADRAO                   BRASIL T PARON *       BRTP3       010VISTA          000000000014300000000144000000001400000000000000000000144000018802400
0202LOTE PADRAO                   KLABIN S/A  PN         KLBN4       010VISTA          000000000001690000000016900000000160000000000000000000016000000055500
0202LOTE PADRAO                   ACESITA     PN *       ACES4       010VISTA          000000000001100000000011000000000100000000000000000000011000079626100
0202LOTE PADRAO                   PETROBRAS   PN         PETR4       010VISTA          000000000047200000000482000000004680000000000000000000469000000069900
0202LOTE PADRAO                   ELETROBRAS  PNB*       ELET6       010VISTA          000000000020300000000203000000001990000000000000000000199000035689500
0202LOTE PADRAO                   PETROBRAS   ON         PETR3       010VISTA          000000000052100000000535000000005160000000000000000000516000000028200
0202LOTE PADRAO                   COMGAS      PNA*       CGAS5       010VISTA          000000000043900000000440000000004250000000000000000000440000000614000
0202LOTE PADRAO                   SOUZA CRUZ  ON EJ      CRUZ3       010VISTA          000000000018400000000188000000001830000000000000000000186000000007000
0202LOTE PADRAO                   ELETROBRAS  ON *       ELET3       010VISTA          000000000017800000000179000000001750000000000000000000176000015004500
0202LOTE PADRAO                   CELESC      PNB        CLSC6       010VISTA          000000000000450000000004600000000044000000000000000000004500000243900
0202LOTE PADRAO                   BRADESCO    PN * EJ    BBDC4       010VISTA          000000000011400000000115000000001130000000000000000000113000115686000
0202LOTE PADRAO                   CESP        PN *       CESP4       010VISTA          000000000005900000000060000000000570000000000000000000058000007509300
0202LOTE PADRAO                   LIGHT       ON *       LIGH3       010VISTA          000000000026900000000270000000002580000000000000000000260000000324200
0202LOTE PADRAO                   TELESP CL PAPN *       TSPP4       010VISTA          000000000004400000000044000000000420000000000000000000042000420318000
0202LOTE PADRAO                   VALE R DOCE PNA        VALE5       010VISTA          000000000088700000000897000000008800000000000000000000882000000014100
0202LOTE PADRAO                   COPEL       PNB*       CPLE6       010VISTA          000000000008400000000084000000000810000000000000000000082000040973100
0202LOTE PADRAO                   VALE R DOCE ON         VALE3       010VISTA          000000000093800000000949000000009240000000000000000000925000000009300
0202LOTE PADRAO                   ARACRUZ     PNB        ARCZ6       010VISTA          000000000006800000000069000000000670000000000000000000067500000009200
0202LOTE PADRAO                   TELEMIG PARTPN *       TMCP4       010VISTA          000000000002770000000027000000000260000000000000000000027700057446000
0202LOTE PADRAO                   BRASIL TELECPN *       BRTO4       010VISTA          000000000011100000000113000000001100000000000000000000111000064141800
0202LOTE PADRAO                   SABESP      ON *       SBSP3       010VISTA          000000000078000000000785000000007750000000000000000000781000004839500
0202LOTE PADRAO                   BRASKEM     PNA*       BRKM5       010VISTA          000000000185000000001880000000018050000000000000000001850000000435500
0202LOTE PADRAO                   EMBRAER     PN EJ      EMBR4       010VISTA          000000000009900000000099000000000900000000000000000000094000000102600
0202LOTE PADRAO                   TELESP      PN * EJ    TLPP4       010VISTA          000000000032600000000326000000003180000000000000000000320000018115500
0202LOTE PADRAO                   EMBRAER     ON EJ      EMBR3       010VISTA          000000000008500000000085000000000800000000000000000000081000000026700
0202LOTE PADRAO                   AMBEV       PN *       AMBV4       010VISTA          000000000546100000005590000000054610000000000000000005490000001361100
0202LOTE PADRAO                   USIMINAS    PNA        USIM5       010VISTA          000000000007700000000077000000000760000000000000000000077000000030200
0202LOTE PADRAO                   ELETROPAULO PN *       ELPL4       010VISTA          000000000023000000000230000000002230000000000000000000228000005295600
0202LOTE PADRAO                   TELE NORD CLPN *       TNEP4       010VISTA          000000000002300000000023000000000230000000000000000000023000061350200
0202LOTE PADRAO                   CEMIG       PN * EJ    CMIG4       010VISTA          000000000025600000000262000000002510000000000000000000256000028920700
0202LOTE PADRAO                   TELE CL SUL PN * EJ    TCSL4       010VISTA          000000000002300000000023000000000220000000000000000000022500042790500
0202LOTE PADRAO                   TRACTEBEL   ON *       TBLE3       010VISTA          000000000003500000000038000000000350000000000000000000038000025314400
0202LOTE PADRAO                   CEMIG       ON * EJ    CMIG3       010VISTA          000000000019300000000203000000001930000000000000000000200000000206300
0202LOTE PADRAO                   TELE CL SUL ON * EJ    TCSL3       010VISTA          000000000001900000000019500000000180000000000000000000018000031964300
0202LOTE PADRAO                   ITAUSA      PN         ITSA4       010VISTA          000000000002000000000021000000000200000000000000000000020000000326100
0202LOTE PADRAO                   V C P       PN *       VCPA4       010VISTA          000000000127500000001318000000012400000000000000000001250000000498700
0202LOTE PADRAO                   SID TUBARAO PN *       CSTB4       010VISTA          000000000042400000000425000000004170000000000000000000423000005073800
0202LOTE PADRAO                   BRADESPAR   PN *       BRAP4       010VISTA          000000000000630000000006400000000062000000000000000000006300098854000
0202LOTE PADRAO                   NET         PN         PLIM4       010VISTA          000000000000280000000002900000000028000000000000000000002800000461000
0202LOTE PADRAO                   TELE CTR OESPN * EJ    TCOC4       010VISTA          000000000005500000000055000000000520000000000000000000052000107190000
0202LOTE PADRAO                   TELEMAR N L PNA* EJ    TMAR5       010VISTA          000000000036400000000367500000003600000000000000000000363000023934900
0202LOTE PADRAO                   GERDAU      PN * EJ    GGBR4       010VISTA          000000000029800000000303000000002980000000000000000000300000012931200
0202LOTE PADRAO                   BRASIL      ON *       BBAS3       010VISTA          000000000010300000000103000000001020000000000000000000103000020846000
