00BDIN9999BOVESPA 99992003071020030710
0101IBOVESPA                      0136220134070136220000000000000000002003071000000020030710013501000000
0202LOTE PADRAO                   EMBRATEL PARPN *       EBTP4       010VISTA          000000000005790000000057900000000560000000000000000000057000282952000
0202LOTE PADRAO                   TRAN PAULISTPN * EJ    TRPL4       010VISTA          000000000007400000000074000000000730000000000000000000073000011667400
0202LOTE PADRAO                   EMBRATEL PARON *       EBTP3       010VISTA          000000000006400000000066000000000640000000000000000000066000038089800
0202LOTE PADRAO                   TELEMAR     PN * EJ    TNLP4       010VISTA          000000000032700000000336000000003260000000000000000000326000369452000
0202LOTE PADRAO                   ITAUBANCO   PN * EJ    ITAU4       010VISTA          000000000189500000001915000000018700000000000000000001885000011257500
0202LOTE PADRAO                   TELEMAR     ON * EJ    TNLP3       010VISTA          000000000023600000000240000000002330000000000000000000236000011616200
0202LOTE PADRAO                   SID NACIONALON *       CSNA3       010VISTA          000000000072000000000742000000007000000000000000000000740000016255700
0202LOTE PADRAO                   TELE LEST CLPN *       TLCP4       010VISTA          000000000000440000000004500000000043000000000000000000004300065377800
0202LOTE PADRAO                   CRT CELULAR PNA* EJ    CRTP5       010VISTA          000000000335000000003430000000033490000000000000000003401000001881600
0202LOTE PADRAO                   IPIRANGA PETPN *       PTIP4       010VISTA          000000000010000000000109000000001000000000000000000000108000024544100
0202LOTE PADRAO                   BRASIL T PARPN *       BRTP4       010VISTA          000000000021400000000218000000002140000000000000000000216000027068900
0202LOTE PADRAO                   BRASIL T PARON *       BRTP3       010VISTA          000000000016000000000160000000001550000000000000000000158000010876400
0202LOTE PADRAO                   KLABIN S/A  PN         KLBN4       010VISTA          000000000002800000000028000000000280000000000000000000028000000027500
0202LOTE PADRAO                   ACESITA     PN *       ACES4       010VISTA          000000000001400000000014000000000140000000000000000000014000086286800
0202LOTE PADRAO                   PETROBRAS   PN         PETR4       010VISTA          000000000054000000000552000000005390000000000000000000551000000129300
0202LOTE PADRAO                   ELETROBRAS  PNB*       ELET6       010VISTA          000000000024600000000248000000002425000000000000000000243000042121600
0202LOTE PADRAO                   PETROBRAS   ON         PETR3       010VISTA          000000000059000000000597000000005890000000000000000000596000000035800
0202LOTE PADRAO                   COMGAS      PNA*       CGAS5       010VISTA          000000000063750000000649000000006375000000000000000000640000000597600
0202LOTE PADRAO                   SOUZA CRUZ  ON EJ      CRUZ3       010VISTA          000000000024000000000240000000002360000000000000000000238000000004500
0202LOTE PADRAO                   ELETROBRAS  ON *       ELET3       010VISTA          000000000021750000000217500000002100000000000000000000213000016525300
0202LOTE PADRAO                   CELESC      PNB        CLSC6       010VISTA          000000000000480000000004900000000047000000000000000000004800000249700
0202LOTE PADRAO                   BRADESCO    PN * EJ    BBDC4       010VISTA          000000000011000000000111000000001090000000000000000000110000162896000
0202LOTE PADRAO                   CESP        PN *       CESP4       010VISTA          000000000007400000000076000000000730000000000000000000074000009323100
0202LOTE PADRAO                   LIGHT       ON *       LIGH3       010VISTA          000000000026900000000269000000002610000000000000000000263000000467500
0202LOTE PADRAO                   TELESP CL PAPN *       TSPP4       010VISTA          000000000004600000000047000000000460000000000000000000046000208392000
0202LOTE PADRAO                   VALE R DOCE PNA        VALE5       010VISTA          000000000084200000000859000000008360000000000000000000854000000053600
0202LOTE PADRAO                   COPEL       PNB*       CPLE6       010VISTA          000000000009100000000093000000000890000000000000000000093000041836400
0202LOTE PADRAO                   VALE R DOCE ON         VALE3       010VISTA          000000000090700000000937000000009070000000000000000000924000000016100
0202LOTE PADRAO                   ARACRUZ     PNB        ARCZ6       010VISTA          000000000006200000000062000000000610000000000000000000062500000091800
0202LOTE PADRAO                   TELEMIG PARTPN *       TMCP4       010VISTA          000000000002980000000030000000000280000000000000000000028000101190000
0202LOTE PADRAO                   BRASIL TELECPN *       BRTO4       010VISTA          000000000012800000000129000000001260000000000000000000128000136816000
0202LOTE PADRAO                   SABESP      ON *       SBSP3       010VISTA          000000000106000000001065000000010310000000000000000001034000003882700
0202LOTE PADRAO                   BRASKEM     PNA*       BRKM5       010VISTA          000000000444900000004449000000042600000000000000000004311000000371900
0202LOTE PADRAO                   EMBRAER     PN EJ      EMBR4       010VISTA          000000000014000000000141000000001360000000000000000000141000000143600
0202LOTE PADRAO                   TELESP      PN * EJ    TLPP4       010VISTA          000000000031500000000316000000003080000000000000000000308000019855100
0202LOTE PADRAO                   EMBRAER     ON EJ      EMBR3       010VISTA          000000000011300000000115000000001110000000000000000000115000000040900
0202LOTE PADRAO                   AMBEV       PN *       AMBV4       010VISTA          000000000600000000006000000000059500000000000000000005989000001290400
0202LOTE PADRAO                   USIMINAS    PNA        USIM5       010VISTA          000000000014100000000149000000001400000000000000000000149000000073900
0202LOTE PADRAO                   ELETROPAULO PN *       ELPL4       010VISTA          000000000025800000000258000000002500000000000000000000251000004358600
0202LOTE PADRAO                   TELE NORD CLPN *       TNEP4       010VISTA          000000000002300000000023000000000220000000000000000000023000049708700
0202LOTE PADRAO                   CEMIG       PN * EJ    CMIG4       010VISTA          000000000028400000000284000000002780000000000000000000279000068164300
0202LOTE PADRAO                   TELE CL SUL PN * EJ    TCSL4       010VISTA          000000000002400000000024000000000230000000000000000000023000074564900
0202LOTE PADRAO                   TRACTEBEL   ON *       TBLE3       010VISTA          000000000007200000000077100000000720000000000000000000077000066509500
0202LOTE PADRAO                   CEMIG       ON * EJ    CMIG3       010VISTA          000000000022000000000220000000002150000000000000000000216000000500800
0202LOTE PADRAO                   TELE CL SUL ON * EJ    TCSL3       010VISTA          000000000002000000000020000000000200000000000000000000020000018937200
0202LOTE PADRAO                   ITAUSA      PN         ITSA4       010VISTA          000000000002300000000023000000000220000000000000000000022000000217800
0202LOTE PADRAO                   V C P       PN *       VCPA4       010VISTA          000000000124500000001245000000012120000000000000000001230000005963500
0202LOTE PADRAO                   SID TUBARAO PN *       CSTB4       010VISTA          000000000054700000000550000000005430000000000000000000550000005824900
0202LOTE PADRAO                   BRADESPAR   PN *       BRAP4       010VISTA          000000000000630000000006400000000062000000000000000000006300171850000
0202LOTE PADRAO                   NET         PN         PLIM4       010VISTA          000000000000360000000003600000000033000000000000000000003500001769400
0202LOTE PADRAO                   TELE CTR OESPN * EJ    TCOC4       010VISTA          000000000005500000000057000000000550000000000000000000056000061563900
0202LOTE PADRAO                   TELEMAR N L PNA* EJ    TMAR5       010VISTA          000000000038700000000392500000003850000000000000000000390000026880100
0202LOTE PADRAO                   GERDAU      PN * EJ    GGBR4       010VISTA          000000000034000000000350000000003350000000000000000000348000000015300
0202LOTE PADRAO                   BRASIL      ON *       BBAS3       010VISTA          000000000014000000000142000000001360000000000000000000141000023402600
