00BDIN9999BOVESPA 99992003042220030422
0101IBOVESPA                      0123930122450125020000000000000000002003042200000020030422012452000000
0202LOTE PADRAO                   EMBRATEL PARPN *       EBTP4       010VISTA          000000000004700000000049000000000460000000000000000000049000392013000
0202LOTE PADRAO                   TRAN PAULISTPN * EJ    TRPL4       010VISTA          000000000006400000000067000000000640000000000000000000065000015700100
0202LOTE PADRAO                   EMBRATEL PARON *       EBTP3       010VISTA          000000000005300000000055000000000520000000000000000000055000068133200
0202LOTE PADRAO                   TELEMAR     PN * EJ    TNLP4       010VISTA          000000000030700000000311000000003040000000000000000000310000393882000
0202LOTE PADRAO                   ITAUBANCO   PN * EJ    ITAU4       010VISTA          000000000187300000001935000000018600000000000000000001929000014814000
0202LOTE PADRAO                   TELEMAR     ON * EJ    TNLP3       010VISTA          000000000021900000000224000000002180000000000000000000221000009653900
0202LOTE PADRAO                   SID NACIONALON *       CSNA3       010VISTA          000000000066500000000665000000006490000000000000000000654000023840500
0202LOTE PADRAO                   TELE LEST CLPN *       TLCP4       010VISTA          000000000000450000000004700000000045000000000000000000004700211952000
0202LOTE PADRAO                   CRT CELULAR PNA* EJ    CRTP5       010VISTA          000000000340000000003450000000033900000000000000000003430000000596500
0202LOTE PADRAO                   IPIRANGA PETPN *       PTIP4       010VISTA          000000000007710000000081000000000771000000000000000000081000007856200
0202LOTE PADRAO                   BRASIL T PARPN *       BRTP4       010VISTA          000000000020000000000201000000001980000000000000000000201000031747900
0202LOTE PADRAO                   BRASIL T PARON *       BRTP3       010VISTA          000000000015000000000158000000001500000000000000000000156000001691000
0202LOTE PADRAO                   KLABIN S/A  PN         KLBN4       010VISTA          000000000002000000000020000000000198000000000000000000020000000011800
0202LOTE PADRAO                   ACESITA     PN *       ACES4       010VISTA          000000000001300000000013000000000126000000000000000000012600144633000
0202LOTE PADRAO                   PETROBRAS   PN         PETR4       010VISTA          000000000047000000000482000000004690000000000000000000482000000124700
0202LOTE PADRAO                   ELETROBRAS  PNB*       ELET6       010VISTA          000000000023600000000238000000002300000000000000000000235000056095900
0202LOTE PADRAO                   PETROBRAS   ON         PETR3       010VISTA          000000000051000000000525000000005100000000000000000000525000000018000
0202LOTE PADRAO                   COMGAS      PNA*       CGAS5       010VISTA          000000000052500000000547000000005250000000000000000000540000000795000
0202LOTE PADRAO                   SOUZA CRUZ  ON EJ      CRUZ3       010VISTA          000000000018800000000188000000001790000000000000000000179000000039000
0202LOTE PADRAO                   ELETROBRAS  ON *       ELET3       010VISTA          000000000021300000000214000000002100000000000000000000211000010474300
0202LOTE PADRAO                   CELESC      PNB        CLSC6       010VISTA          000000000000470000000004800000000046000000000000000000004700000092400
0202LOTE PADRAO                   BRADESCO    PN * EJ    BBDC4       010VISTA          000000000011800000000121000000001170000000000000000000120000134300000
0202LOTE PADRAO                   CESP        PN *       CESP4       010VISTA          000000000006900000000075000000000671000000000000000000075000029603300
0202LOTE PADRAO                   LIGHT       ON *       LIGH3       010VISTA          000000000029000000000300000000002800000000000000000000282000001366500
0202LOTE PADRAO                   TELESP CL PAPN *       TSPP4       010VISTA          000000000004400000000046000000000440000000000000000000045000446099000
0202LOTE PADRAO                   VALE R DOCE PNA        VALE5       010VISTA          000000000082300000000832000000008120000000000000000000816000000019000
0202LOTE PADRAO                   COPEL       PNB*       CPLE6       010VISTA          000000000009000000000092000000000900000000000000000000090000036745400
0202LOTE PADRAO                   VALE R DOCE ON         VALE3       010VISTA          000000000085300000000864000000008350000000000000000000845000000004500
0202LOTE PADRAO                   ARACRUZ     PNB        ARCZ6       010VISTA          000000000006500000000067000000000650000000000000000000065000000024200
0202LOTE PADRAO                   TELEMIG PARTPN *       TMCP4       010VISTA          000000000002750000000027000000000270000000000000000000027500061132700
0202LOTE PADRAO                   BRASIL TELECPN *       BRTO4       010VISTA          000000000012200000000122000000001200000000000000000000121000165179000
0202LOTE PADRAO                   SABESP      ON *       SBSP3       010VISTA          000000000097000000000970000000009400000000000000000000962000004161400
0202LOTE PADRAO                   BRASKEM     PNA*       BRKM5       010VISTA          000000000274600000002945000000027460000000000000000002930000000356200
0202LOTE PADRAO                   EMBRAER     PN EJ      EMBR4       010VISTA          000000000010700000000110000000001050000000000000000000105000000123800
0202LOTE PADRAO                   TELESP      PN * EJ    TLPP4       010VISTA          000000000031800000000329000000003180000000000000000000325000017403700
0202LOTE PADRAO                   EMBRAER     ON EJ      EMBR3       010VISTA          000000000008900000000090000000000880000000000000000000088000000019900
0202LOTE PADRAO                   AMBEV       PN *       AMBV4       010VISTA          000000000547800000005589000000054750000000000000000005569000001745800
0202LOTE PADRAO                   USIMINAS    PNA        USIM5       010VISTA          000000000010900000000114000000001070000000000000000000112000000155300
0202LOTE PADRAO                   ELETROPAULO PN *       ELPL4       010VISTA          000000000029500000000295000000002850000000000000000000287000005066200
0202LOTE PADRAO                   TELE NORD CLPN *       TNEP4       010VISTA          000000000002500000000025400000000240000000000000000000024000088863000
0202LOTE PADRAO                   CEMIG       PN * EJ    CMIG4       010VISTA          000000000028700000000293000000002875000000000000000000290000036047200
0202LOTE PADRAO                   TELE CL SUL PN * EJ    TCSL4       010VISTA          000000000002480000000025000000000240000000000000000000024000129086000
0202LOTE PADRAO                   TRACTEBEL   ON *       TBLE3       010VISTA          000000000006000000000060000000000590000000000000000000060000003650900
0202LOTE PADRAO                   CEMIG       ON * EJ    CMIG3       010VISTA          000000000022000000000221000000002160000000000000000000216000001349800
0202LOTE PADRAO                   TELE CL SUL ON * EJ    TCSL3       010VISTA          000000000002300000000024000000000230000000000000000000024000007007200
0202LOTE PADRAO                   ITAUSA      PN         ITSA4       010VISTA          000000000002200000000022000000000220000000000000000000022700000330000
0202LOTE PADRAO                   V C P       PN *       VCPA4       010VISTA          000000000121600000001225000000012150000000000000000001220000000321700
0202LOTE PADRAO                   SID TUBARAO PN *       CSTB4       010VISTA          000000000048900000000493000000004780000000000000000000490000021848300
0202LOTE PADRAO                   BRADESPAR   PN *       BRAP4       010VISTA          000000000000660000000006800000000066000000000000000000006700078132100
0202LOTE PADRAO                   NET         PN         PLIM4       010VISTA          000000000000330000000003400000000033000000000000000000003400000530300
0202LOTE PADRAO                   TELE CTR OESPN * EJ    TCOC4       010VISTA          000000000005500000000056000000000540000000000000000000056000176556000
0202LOTE PADRAO                   TELEMAR N L PNA* EJ    TMAR5       010VISTA          000000000041500000000418000000004060000000000000000000416000021049600
0202LOTE PADRAO                   GERDAU      PN * EJ    GGBR4       010VISTA          000000000033400000000342000000003280000000000000000000331000033262600
0202LOTE PADRAO                   BRASIL      ON *       BBAS3       010VISTA          000000000013000000000133000000001280000000000000000000128000031388900
