00BDIN9999BOVESPA 99992003073020030730
0101IBOVESPA                      0136230134530136980000000000000000002003073000000020030730013475000000
0202LOTE PADRAO                   EMBRATEL PARPN *       EBTP4       010VISTA          000000000005900000000061000000000580000000000000000000059000349796000
0202LOTE PADRAO                   TRAN PAULISTPN * EJ    TRPL4       010VISTA          000000000007500000000075000000000730000000000000000000074000006219400
0202LOTE PADRAO                   EMBRATEL PARON *       EBTP3       010VISTA          000000000006500000000068000000000650000000000000000000066000062543300
0202LOTE PADRAO                   TELEMAR     PN * EJ    TNLP4       010VISTA          000000000033500000000335000000003230000000000000000000324000249176000
0202LOTE PADRAO                   ITAUBANCO   PN * EJ    ITAU4       010VISTA          000000000210500000002110000000020480000000000000000002070000006815000
0202LOTE PADRAO                   TELEMAR     ON * EJ    TNLP3       010VISTA          000000000024100000000243000000002360000000000000000000237000012622100
0202LOTE PADRAO                   SID NACIONALON *       CSNA3       010VISTA          000000000077500000000784000000007670000000000000000000779000008323400
0202LOTE PADRAO                   TELE LEST CLPN *       TLCP4       010VISTA          000000000000410000000004200000000040000000000000000000004100045414000
0202LOTE PADRAO                   CRT CELULAR PNA* EJ    CRTP5       010VISTA          000000000367000000003700000000036650000000000000000003685000000851000
0202LOTE PADRAO                   IPIRANGA PETPN *       PTIP4       010VISTA          000000000010800000000109000000001050000000000000000000107000004044400
0202LOTE PADRAO                   BRASIL T PARPN *       BRTP4       010VISTA          000000000020100000000201000000001980000000000000000000199000032275800
0202LOTE PADRAO                   BRASIL T PARON *       BRTP3       010VISTA          000000000014900000000150000000001480000000000000000000149000010251600
0202LOTE PADRAO                   KLABIN S/A  PN         KLBN4       010VISTA          000000000002900000000029000000000280000000000000000000028000000026200
0202LOTE PADRAO                   ACESITA     PN *       ACES4       010VISTA          000000000001300000000013000000000130000000000000000000013000101880000
0202LOTE PADRAO                   PETROBRAS   PN         PETR4       010VISTA          000000000057000000000573000000005630000000000000000000563000000076700
0202LOTE PADRAO                   ELETROBRAS  PNB*       ELET6       010VISTA          000000000023500000000235000000002230000000000000000000225000065105500
0202LOTE PADRAO                   PETROBRAS   ON         PETR3       010VISTA          000000000061000000000611000000006060000000000000000000607000000020500
0202LOTE PADRAO                   COMGAS      PNA*       CGAS5       010VISTA          000000000070300000000706000000007030000000000000000000705000001027300
0202LOTE PADRAO                   SOUZA CRUZ  ON EJ      CRUZ3       010VISTA          000000000022750000000227500000002210000000000000000000223000000004800
0202LOTE PADRAO                   ELETROBRAS  ON *       ELET3       010VISTA          000000000020500000000206000000001975000000000000000000198000008609100
0202LOTE PADRAO                   CELESC      PNB        CLSC6       010VISTA          000000000000440000000004500000000043000000000000000000004300000434100
0202LOTE PADRAO                   BRADESCO    PN * EJ    BBDC4       010VISTA          000000000011900000000120000000001160000000000000000000116000148344000
0202LOTE PADRAO                   CESP        PN *       CESP4       010VISTA          000000000007000000000070000000000671000000000000000000067000005223300
0202LOTE PADRAO                   LIGHT       ON *       LIGH3       010VISTA          000000000025200000000255000000002460000000000000000000251000000540800
0202LOTE PADRAO                   TELESP CL PAPN *       TSPP4       010VISTA          000000000004400000000044000000000420000000000000000000042000201460000
0202LOTE PADRAO                   VALE R DOCE PNA        VALE5       010VISTA          000000000090600000000920000000009060000000000000000000917000000032900
0202LOTE PADRAO                   COPEL       PNB*       CPLE6       010VISTA          000000000008100000000083000000000790000000000000000000079600073398500
0202LOTE PADRAO                   VALE R DOCE ON         VALE3       010VISTA          000000000099000000001010000000009870000000000000000001010000000039600
0202LOTE PADRAO                   ARACRUZ     PNB        ARCZ6       010VISTA          000000000007300000000074000000000720000000000000000000072000000012400
0202LOTE PADRAO                   TELEMIG PARTPN *       TMCP4       010VISTA          000000000003000000000031000000000300000000000000000000030000043914600
0202LOTE PADRAO                   BRASIL TELECPN *       BRTO4       010VISTA          000000000011900000000120000000001170000000000000000000119000055574400
0202LOTE PADRAO                   SABESP      ON *       SBSP3       010VISTA          000000000113100000001138000000011100000000000000000001130000004501300
0202LOTE PADRAO                   BRASKEM     PNA*       BRKM5       010VISTA          000000000440000000004400000000042800000000000000000004295000000079800
0202LOTE PADRAO                   EMBRAER     PN EJ      EMBR4       010VISTA          000000000013000000000133000000001280000000000000000000131000000081900
0202LOTE PADRAO                   TELESP      PN * EJ    TLPP4       010VISTA          000000000031400000000316000000003110000000000000000000311000007642800
0202LOTE PADRAO                   EMBRAER     ON EJ      EMBR3       010VISTA          000000000010400000000105000000001020000000000000000000105000000034400
0202LOTE PADRAO                   AMBEV       PN *       AMBV4       010VISTA          000000000590000000005970000000058500000000000000000005950000000751500
0202LOTE PADRAO                   USIMINAS    PNA        USIM5       010VISTA          000000000015300000000154000000001500000000000000000000152000000070300
0202LOTE PADRAO                   ELETROPAULO PN *       ELPL4       010VISTA          000000000023900000000241000000002310000000000000000000232000004914600
0202LOTE PADRAO                   TELE NORD CLPN *       TNEP4       010VISTA          000000000002300000000024000000000230000000000000000000024000154191000
0202LOTE PADRAO                   CEMIG       PN * EJ    CMIG4       010VISTA          000000000027300000000273000000002640000000000000000000268000046701000
0202LOTE PADRAO                   TELE CL SUL PN * EJ    TCSL4       010VISTA          000000000002200000000023000000000220000000000000000000022000071542600
0202LOTE PADRAO                   TRACTEBEL   ON *       TBLE3       010VISTA          000000000007200000000072000000000620000000000000000000065000003005800
0202LOTE PADRAO                   CEMIG       ON * EJ    CMIG3       010VISTA          000000000021800000000218000000002060000000000000000000209000000996700
0202LOTE PADRAO                   TELE CL SUL ON * EJ    TCSL3       010VISTA          000000000002100000000021000000000200000000000000000000020000012432700
0202LOTE PADRAO                   ITAUSA      PN         ITSA4       010VISTA          000000000002400000000024800000000240000000000000000000024000000114800
0202LOTE PADRAO                   V C P       PN *       VCPA4       010VISTA          000000000138500000001385000000013650000000000000000001375000001709000
0202LOTE PADRAO                   SID TUBARAO PN *       CSTB4       010VISTA          000000000056700000000570000000005610000000000000000000564000004732700
0202LOTE PADRAO                   BRADESPAR   PN *       BRAP4       010VISTA          000000000000690000000006900000000067000000000000000000006900171322000
0202LOTE PADRAO                   NET         PN         PLIM4       010VISTA          000000000000310000000003300000000031000000000000000000003100001151700
0202LOTE PADRAO                   TELE CTR OESPN * EJ    TCOC4       010VISTA          000000000005400000000054000000000510000000000000000000051000069811500
0202LOTE PADRAO                   TELEMAR N L PNA* EJ    TMAR5       010VISTA          000000000039900000000399000000003910000000000000000000395000023182400
0202LOTE PADRAO                   GERDAU      PN * EJ    GGBR4       010VISTA          000000000034600000000346000000003330000000000000000000337500000028100
0202LOTE PADRAO                   BRASIL      ON *       BBAS3       010VISTA          000000000014200000000142000000001350000000000000000000139000014799400
